
Source Code


000002:                                                                                                  ## Copyright:   Public domain.
000003:                                                                                                  ## Filename:    CONIC_SUBROUTINES.agc
000004:                                                                                                  ## Purpose:     A section of Luminary revision 98.
000005:                                                                                                  ##              It is part of the reconstructed source code for the a
000006:                                                                                                  ##              development version of the flight software for the Lunar
000007:                                                                                                  ##              Module's (LM) Apollo Guidance Computer (AGC) for Apollo 11.
000008:                                                                                                  ##              The code has been recreated from a copy of Luminary 99
000009:                                                                                                  ##              revision 001, using asterisks indicating changed lines in
000010:                                                                                                  ##              the listing and Luminary Memo #85, which lists changes between
000011:                                                                                                  ##              Luminary 98 and 99.
000012:                                                                                                  ## Reference:   pp. 1159-1204
000013:                                                                                                  ## Assembler:   yaYUL
000014:                                                                                                  ## Contact:     Ron Burkey <info@sandroid.org>.
000015:                                                                                                  ## Website:     www.ibiblio.org/apollo/index.html
000016:                                                                                                  ## Mod history: 2019-07-28 MAS  Created from Luminary 99.
000017:


000019:                                                                                                  #  PROGRAM DESCRIPTION - ENTIRE CONIC SUBROUTINE LOG SECTION     DATE - 1 SEPTEMBER 1967
000020:                                                                                                  #  MOD NO. - 0                                                   LOG SECTION - CONIC SUBROUTINES
000021:                                                                                                  #  MOD BY KRAUSE                                                 ASSEMBLY - COLOSSUS REVISION 88
000022:
000023:                                                                                                  #  FUNCTIONAL DESCRIPTION -
000024:                                                                                                  #        THE FOLLOWING SET OF SUBROUTINES SOLVE VARIOUS PROBLEMS INVOLVING THE TRAJECTORY PRODUCED BY A CENTRAL
000025:                                                                                                  #  INVERSE-SQUARE FORCE ACTING ON A POINT MASS, AS OUTLINED IN THE CMC AND LGC LUNAR LANDING MISSION GSOP, SECTION
000026:                                                                                                  #  5.5.1.2.  A GENERAL USAGE POINT-OF-VIEW WAS TAKEN IN FORMULATING, MECHANIZING, AND SCALING THE SUBROUTINES,
000027:                                                                                                  #  RATHER THAN OPTIMIZING EACH FOR A PARTICULAR USE.  THEREFORE, MULTIPLE USAGE CAN BE MADE OF THE SUBROUTINES
000028:                                                                                                  #  INVOLVING ANY REALISTIC SET OF CONSTRAINTS.  IT SHOULD BE NOTED THAT ONLY ONE SET OF CODING IS USED, WHETHER THE
000029:                                                                                                  #  EARTH, MOON, OR ANY OTHER CELESTIAL BODY IS SPECIFIED AS THE CENTRAL BODY OF THE PROBLEM, PROVIDED ONE OBSERVES
000030:                                                                                                  #  THE INHERENT SCALE CHANGE REQUIRED IN POSITION, VELOCITY, MU, AND TIME, AS OUTLINED IN MISSION PROGRAMMING
000031:                                                                                                  #  DEFINITION MEMO NO. 10.  THIS CAN BE ACCOMPLISHED BY SIMPLY ADDING TO THE MUTABLE AND INITIALIZING THE SUBROU-
000032:                                                                                                  #  TINES APPROPRIATELY.
000033:
000034:                                                                                                  #        DUE TO THE UNIFORMITY OF THE EQUATIONS INVOLVED, CODING WAS MINIMIZED BY TREATING INDIVIDUAL EQUATIONS AND
000035:                                                                                                  #  BLOCKS OF EQUATIONS AS SUBROUTINES OF LOWER RANK WHENEVER POSSIBLE.  AS A RESULT, THREE BY-PRODUCTS SUBROUTINES,
000036:                                                                                                  #  DIRECTLY USABLE AS INDEPENDENT SUBROUTINES, WERE GENERATED.
000037:
000038:                                                                                                  #  RESTRICTIONS -
000039:                                                                                                  #        THE ONLY LIMITATION IN THE SCOPE OF PROBLEM WHICH CAN BE SOLVED BY A PARTICULAR SUBROUTINE IS THE SCALING
000040:                                                                                                  #  LIMIT OF EACH PARAMETER AS SPECIFIED IN THE GSOP.  THESE SCALING LIMITS WERE CHOSEN SO THAT ALL FEASIBLE TRAJEC-
000041:                                                                                                  #  TORIES COULD BE HANDLED.
000042:
000043:                                                                                                  #        SINCE THE SUBROUTINES (EXCEPT KEPLER) USE COMMON SUBROUTINES OF LOWER RANK WHICH USE ERASABLE OTHER THAN
000044:                                                                                                  #  THE PUSHLIST (DUE TO ITS LIMITED SIZE) AND COMMON INTERPRETIVE SWITCHES, THE CONIC SUBROUTINES CANNOT BE ALLOWED
000045:                                                                                                  #  TO INTERRUPT EACH OTHER.  IT IS UP TO THE USER TO GUARANTEE THIS CONDITION.
000046:


000048:                                                                                                  #  PROGRAM DESCRIPTION - KEPLER SUBROUTINE                       DATE - 11 OCTOBER 1967
000049:                                                                                                  #  MOD NO. -1                                                    LOG SECTION - CONIC SUBROUTINES
000050:                                                                                                  #  MOD BY KRAUSE                                                 ASSEMBLY - COLOSSUS 103 AND SUNDANCE 222
000051:                                                                                                  #  MOD NO. - 2 (AUGUST 1968) BY ROBERTSON: TO PERMIT BACKDATING BY MORE THAN ONE ORBITAL PERIOD.
000052:                                                                                                  #  MOD NO. - 3 (DEC 1968) BY ROBERTSON:  SUPPRESSION OF X-MODULO-ING
000053:                                                                                                  #  MOD. NO. - 4 (JAN 1969) BY ROBERTSON:  CLEAR OVFIND AT KEPLER ENTRY
000054:
000055:                                                                                                  #  FUNCTIONAL DESCRIPTION -
000056:                                                                                                  #        THIS SUBROUTINE, GIVEN AN INITIAL STATE VECTOR AND THE DESIRED TRANSFER TIME THROUGH WHICH THE STATE IS TO
000057:                                                                                                  #  BE UPDATED ALONG A CONIC TRAJECTORY, COMPUTES THE NEW, UPDATED STATE VECTOR.  THE TRAJECTORY MAY BE ANY CONIC
000058:                                                                                                  #  SECTION - CIRCULAR, ELLIPTIC, PARABOLIC, HYPERBOLIC, OR RECTILINEAR WITH RESPECT TO THE EARTH OR THE MOON.  THE
000059:                                                                                                  #  USE OF THE SUBROUTINE CAN BE EXTENDED USING OTHER PRIMARY BODIES BY SIMPLE ADDITIONS TO THE MUTABLE WITHOUT
000060:                                                                                                  #  INTRODUCING ANY CODING CHANGES, ACCEPTING THE INHERENT SCALE FACTOR CHANGES IN POSITION AND VELOCITY.  AN ITERA-
000061:                                                                                                  #  TION TECHNIQUE IS UTILIZED IN THE COMPUTATION.
000062:
000063:                                                                                                  #        IF A NEGATIVE TIME-OF-FLIGHT IS INPUT, THE PROGRAM WILL SOLVE FOR THE STATE WHICH WOULD BE PRODUCED BY
000064:                                                                                                  #  EXTRAPOLATING THE POSITION BACKWARD IN TIME.
000065:
000066:                                                                                                  #        IF THE ABSOLUTE VALUE OF THE DESIRED TRANSFER TIME EXCEEDS THE ORBITAL PERIOD, THE SUBROUTINE, THROUGH A
000067:                                                                                                  #   MODULAR TECHNIQUE, WILL COMPUTE THE STATE CORRESPONDING TO THE DESIRED TIME (WHETHER POSITIVE OR NEGATIVE).
000068:
000069:                                                                                                  #  THE RESTRICTIONS ARE -
000070:                                                                                                  #        1. (PREVIOUS RESTRICTION ON THE NEGATIVE DESIRED TRANSFER TIME IS NOW DELETED.)
000071:                                                                                                  #        2. THE PARAMETERS IN THE PROBLEM CANNOT EXCEED THEIR SCALING LIMITS AS SPECIFIED IN THE GSOP.  IF
000072:                                                                                                  #           ANY OF THESE LIMITS ARE EXCEEDED, THE RESULTING SOLUTION WILL BE MEANINGLESS.
000073:
000074:                                                                                                  #        THE NUMBER OF ITERATIONS AND, THEREFORE, THE COMPUTATION SPEED IS DEPENDENT ON THE ACCURACY OF THE
000075:                                                                                                  #  GUESS, XKFPNEW.  THE AGC COMPUTATION TIME IS APPROXIMATELY .061 SECONDS FOR INITIALIZATION, .065 SECONDS FOR THE
000076:                                                                                                  #  FINAL COMPUTATIONS, PLUS .083 SECONDS FOR EACH ITERATION.
000077:
000078:                                                                                                  #  REFERENCES -
000079:                                                                                                  #        R-479, MISSION PROGRAMMING DEFINITION MEMO NO. 10, LUNAR LANDING MISSION GSOP, SECTION 5.5, SGA
000080:                                                                                                  #        MEMO 67-4.
000081:
000082:                                                                                                  #  INPUT - ERASABLE INITIALIZATION REQUIRED
000083:                                                                                                  #                        * SCALE FACTOR  *
000084:                                                                                                  #        VARIABLE        *IN POWERS OF 2 *               DESCRIPTION AND REMARKS
000085:                                                                                                  #        --------        *-------------- *               -----------------------
000086:                                                                                                  #        RRECT           * +29 FOR EARTH *       DP INITIAL POSITION VECTOR IN METERS
000087:                                                                                                  #                        * +27 FOR MOON  *


000089:                                                                                                  #        VRECT           * +7 FOR EARTH  *       DP INITIAL VELOCITY VECTOR IN METERS/CENTISECOND
000090:                                                                                                  #                        * +5 FOR MOON   *
000091:                                                                                                  #        X1 (38D)        * NONE          *       INDEX REGISTER SET TO -2D OR -10D ACCORDING TO WHETHER THE EARTH OR MOON,
000092:                                                                                                  #                        *               *               RESPECTIVELY, IS THE CENTRAL BODY
000093:                                                                                                  #        TAU.            * +28           *       DESIRED TRANSFER TIME IN CENTISECONDS (DP)
000094:                                                                                                  #                        *               *               MAY BE POS OR NEG AND ABSOLUTE VALUE MAY BE GREATER OR LESS THAN ONE ORBITAL PERIOD.
000095:                                                                                                  #        XKEPNEW         * +17 FOR EARTH *       DP GUESS OF ROOT X OF KEPLERS EQN IN SQRT(METERS). SIGN SHOULD AGREE WITH THAT OF TAU.
000096:                                                                                                  #                        * +16 FOR MOON  *               AND ABS VALUE SHOULD BE LESS THAN THAT CORRESPONDING TO A PERIOD, VIZ, 2PI SQRT(SEMI-
000097:                                                                                                  #                        *               *               MAJOR AXIS), FOR SPEED OF CONVERGENCE, BUT IF EITHER CONDITION FAILS, XKEPNEW IS RESET
000098:                                                                                                  #                        *               *               BY KEPLER TO A POOR BUT VALID GUESS.
000099:                                                                                                  #        TC              * +28           *       DP PREV. VALUE OF TIME IN CENTISECS.  MUST BE LESS THAN ONE ORBITAL PERIOD.
000100:                                                                                                  #        XPREV           * +17 FOR EARTH *       DP PREV. VALUE OF X IN SQRT(METERS).  MUST BE LESS THAN AN X CORRESPONDING TO ONE
000101:                                                                                                  #                        * +16 FOR MOON  *               ORBITAL PERIOD, VIZ, 2PI SQRT(SEMI-MAJOR AXIS)
000102:
000103:                                                                                                  #  SUBROUTINES CALLED -
000104:                                                                                                  #        DELTIME
000105:
000106:                                                                                                  #  CALLING SEQUENCE AND NORMAL EXIT MODES -
000107:                                                                                                  #        KEPRTN-2        GOTO                    MUST BE IN INTERPRETIVE MODE BUT OVFIND ARBITRARY.
000108:                                                                                                  #        KEPRTN-1                KEPLER          RETURNS WITH XPREV IN MPAC. PL IS AT 0.
000109:                                                                                                  #        KEPRTN          ...                     CONTINUE
000110:
000111:                                                                                                  #  KEPLER MUST NOT BE CALLED DIRECTLY SINCE AN INTERRUPTION OF IT WOULD DESTROY THE ERASABLES IT NEEDS TO COMPLETE
000112:                                                                                                  #  THE INTERRUPTED JOB.  THEREFORE THE USER MUST CALL CSMCONIC OR LEMCONIC WHICH GUARANTEES NO INTERRUPTS AND WHICH
000113:                                                                                                  #  ALSO CALLS KEPPREP TO COMPUTE A GUESS OF XKEPNEW.
000114:
000115:                                                                                                  #  ABORT EXIT MODES -
000116:                                                                                                  #        NONE
000117:
000118:                                                                                                  #  OUTPUT -
000119:                                                                                                  #                        * SCALE FACTOR  *
000120:                                                                                                  #        VARIABLE        *IN POWERS OF 2 *       DESCRIPTION AND REMARKS
000121:                                                                                                  #        --------        *-------------- *       -----------------------
000122:                                                                                                  #        RCV             * +29 FOR EARTH *       DP TERMINAL POSITION VECTOR IN METERS
000123:                                                                                                  #                        * +27 FOR MOON  *
000124:                                                                                                  #        VCV             * +7 FOR EARTH  *       DP TERMINAL VELOCITY VECTOR IN METERS/CENTISEC
000125:                                                                                                  #                        * +5 FOR MOON   *
000126:                                                                                                  #        TC              * +28           *       DP TRANSFER TIME IN CENTISECS TO WHICH KEPLER CONVERGED. ALWAYS LESS THAN ONE PERIOD.
000127:                                                                                                  #        XPREV           * +17 FOR EARTH *       DP VALUE OF X IN SQRT(METERS) TO WHCIH KEPLER CONVERGED. ALWAYS LESS THAN THE X
000128:                                                                                                  #                        * +16 FOR MOON  *               CORRESPONDING TO ONE PERIOD.


000130:                                                                                                  #  FOR OTHER OUTPUT WHICH MAY BE OF USE, SEE DEBRIS.
000131:
000132:                                                                                                  #  DEBRIS -
000133:                                                                                                  #        PARAMETERS WHICH MAY BE OF USE -
000134:                                                                                                  #                        * SCALE FACTOR  *
000135:                                                                                                  #        VARIABLE        *IN POWERS OF 2 *       DESCRIPTION AND REMARKS
000136:                                                                                                  #        --------        *-------------- *       -----------------------
000137:                                                                                                  #        URRECT          * +1            *       DP UNIT VECTOR OF INITIAL POSITION
000138:                                                                                                  #        R1              * +29 FOR EARTH *       DP MAGNITUDE OF INITIAL POSITION IN METERS
000139:                                                                                                  #                        * +27 FOR MOON  *
000140:                                                                                                  #        ALPHA           * -22 FOR EARTH *       DP INVERSE OF SEMIMAJOR AXIS IN 1/METERS
000141:                                                                                                  #                        * -20 FOR MOON  *
000142:                                                                                                  #        TMODULO         * +28           *       DP INTEGRAL NUMBER OF PERIODS IN CENTISECS. WHICH WAS SUBTRACTED FROM TAU. TO PRODUCE A
000143:                                                                                                  #                        *               *       TAU. OF LESS THAN ONE PERIOD.
000144:
000145:                                                                                                  #  PARAMETERS OF NO USE -
000146:                                                                                                  #        DP PARAMETERS - EPSILONT, DELX, DELT, RCNORM, XMODULO, PLUS PUSHLIST REGISTERS 0 THROUGH 39D.
000147:


000149:
000150:                                                                                                  #  PROGRAM DESCRIPTION - LAMBERT SUBROUTINE                      DATE - 1 SEPTEMBER 1967
000151:                                                                                                  #  MOD NO. - 0                                                   LOG SECTION - CONIC SUBROUTINES
000152:                                                                                                  #  MOD BY KRAUSE                                                 ASSEMBLY - COLOSSUS REVISION 88
000153:
000154:                                                                                                  #  FUNCTIONAL DESCRIPTION -
000155:                                                                                                  #        THIS SUBROUTINE CALCULATES THE INITIAL VELOCITY REQUIRED TO TRANSFER A POINT-MASS ALONG A CONIC TRAJECTORY
000156:                                                                                                  #  FROM AN INITIAL POSITION TO A TERMINAL POSITION IN A PRESCRIBED TIME INTERVAL.  THE RESULTING TRAJECTORY MAY BE
000157:                                                                                                  #  A SECTION OF A CIRCLE, ELLIPSE, PARABOLA, OR HYPERBOLA WITH RESPECT TO THE EARTH OR THE MOON.  THE USE OF THE
000158:                                                                                                  #  SUBROUTINE CAN BE EXTENDED USING OTHER PRIMARY BODIES BY SIMPLE ADDITIONS TO THE MUTABLE WITHOUT INTRODUCING ANY
000159:                                                                                                  #  CODING CHANGES, ACCEPTING THE INHERENT SCALE FACTOR CHANGES IN POSITION AND VELOCITY.  AN ITERATION TECHNIQUE IS
000160:                                                                                                  #  UTILIZED IN THE COMPUTATION.
000161:
000162:                                                                                                  #  THE RESTRICTIONS ARE -
000163:                                                                                                  #        1. RECTILINEAR TRAJECTORIES CANNOT BE COMPUTED.
000164:                                                                                                  #        2. AN ACCURACY DEGRADATION OCCURS AS THE COSINE OF THE TRUE ANOMALY DIFFERENCE APPROACHES +1.0.
000165:                                                                                                  #        3. THE ANGLE BETWEEN ANY POSITION VECTOR AND ITS VELOCITY VECTOR MUST BE GREATER THAN 1 DEGREE 47.5 MINUTES
000166:                                                                                                  #           AND LESS THAN 178 DEGREES 12.5 MINUTES.
000167:                                                                                                  #        4. NEGATIVE TRANSFER TIME IS AMBIGUOUS AND WILL RESULT IN NO SOLUTION.
000168:                                                                                                  #        5. THE PARAMETERS IN THE PROBLEM MUST NOT EXCEED THEIR SCALING LIMITS SPECIFIED IN THE GSOP.  IF THE
000169:                                                                                                  #           LIMITS ARE EXCEEDED, THE RESULTING SOLUTION WILL BE MEANINGLESS.
000170:
000171:                                                                                                  #        THE NUMBER OF ITERATIONS AND, THEREFORE, THE COMPUTATIONS SPEED IS DEPENDENT ON THE ACCURACY OF THE FIRST
000172:                                                                                                  #  GUESS OF THE INDEPENDENT VARIABLE, COGA.                                 THE AGC COMPUTATION TIME IS APPROXIMATE-
000173:                                                                                                  #  LY .105 SECONDS FOR INITIALIZATION, .069 SECONDS FOR FINAL COMPUTATIONS, PLUS .205 SECONDS FOR EACH ITERATION.
000174:
000175:                                                                                                  #  REFERENCES -
000176:                                                                                                  #        R-479, MISSION PROGRAMMING DEFINITION MEMO NO. 10, LUNAR LANDING MISSION GSOP - SECTION 5.5, SGA MEMO 67-8,
000177:                                                                                                  #        SGA MEMO 67-4.
000178:
000179:                                                                                                  #  INPUT - ERASABLE INITIALIZATION REQUIRED
000180:                                                                                                  #
000181:                                                                                                  #                        * SCALE FACTOR  *
000182:                                                                                                  #        VARIABLE        *IN POWERS OF 2 *       DESCRIPTION AND REMARKS
000183:                                                                                                  #        --------        *-------------- *       -----------------------
000184:                                                                                                  #        R1VEC           * +29 FOR EARTH *       DP INITIAL POSITION VECTOR IN METERS
000185:                                                                                                  #                        * +27 FOR MOON  *
000186:                                                                                                  #        R2VEC           * +29 FOR EARTH *       DP TARGET OR TERMINAL POSITION VECTOR IN METERS
000187:                                                                                                  #                        * +27 FOR MOON  *
000188:                                                                                                  #        TDESIRED        * +28           *       DP DESIRED TRANSFER TIME IN CENTISECONDS
000189:                                                                                                  #        X1 (38D)        * NONE          *       INDEX REGISTER SET TO -2D OR -10D ACCORDING TO WHETHER THE EARTH OR MOON,
000190:                                                                                                  #                        *               *               RESPECTIVELY, IS THE CENTRAL BODY
000191:                                                                                                  #        GEOMSGN         * NONE          *       SP +.5 IF DESIRED TRANSFER ANGLE IS LESS THAN 180 DEGREES, -.5 IF GREATER THAN 180 DEG.
000192:                                                                                                  #        GUESSW          * NONE          *       AN INTERPRETER SWITCH TO BE SET IF NO GUESS OF COGA IS AVAILABLE, CLEAR IF A GUESS OF


000194:                                                                                                  #                        *               *               COGA IS TO BE USED BY LAMBERT
000195:                                                                                                  #        COGA            * +5            *       DP GUESS OF COTANGNT OF FLIGHT PATH ANGLE (MEASURED FROM VERTICAL).  THIS WILL BE
000196:                                                                                                  #                                        *       IGNORED IF GUESSW IS SET.
000197:                                                                                                  #        NORMSW          * NONE          *       AN INTERPRETER SWITCH TO BE SET IF UN IS TO BE AN INPUT TO THE SUBROUTINE, CLEAR IF
000198:                                                                                                  #                        *               *               LAMBERT IS TO COMPUTE ITS OWN NORMAL (UN).
000199:                                                                                                  #        UN              * +1            *       DP UNIT NORMAL TO THE DESIRED ORBIT PLANE IN THE DIRECTION OF THE RESULTING ANGULAR
000200:                                                                                                  #                        *               *               MOMENTUM VECTOR.  THIS WILL BE IGNORED IF NORMSW IS CLEAR.
000201:                                                                                                  #        VTARGTAG        * NONE          *       A S.P. TAG TO BE SET TO ZERO IF LAMBERT IS TO COMPUTE THE VELOCITY AT R2VEC AS WELL AS
000202:                                                                                                  #                        *               *               AT R1VEC.
000203:                                                                                                  #        ITERCTR         * NONE          *       A S.P. COUNTER WHICH SPECIFIES THE MAXIMUM NUMBER OF ITERATIONS ALLOWABLE.
000204:                                                                                                  #                        *               *               (AN ITERATION MEANS A PASS THRU KEPLER EQN (DELTIME). AT LEAST ONE OF THESE MUST
000205:                                                                                                  #                        *               *               ALWAYS OCCUR, EVEN IF COGA CORRESPONDING TO SOLUTION WERE INPUT AS A GUESS.)
000206:                                                                                                  #                        *               *               TWENTY ITERATIONS ARE SUFFICIENT TO SOLVE ALL PROBLEMS INCLUDING THOSE WITHOUT GUESS.
000207:
000208:                                                                                                  #  SUBROUTINES CALLED -
000209:                                                                                                  #        GEOM, GETX, DELTIME, ITERATOR, LAMENTER (PART OF NEWSTATE)
000210:
000211:                                                                                                  #  CALLING SEQUENCE AND NORMAL EXIT MODES -
000212:                                                                                                  #        L       CALL                    MUST BE IN INTERPRETIVE MODE BUT OVFIND ARBITRARY.
000213:                                                                                                  #        L+1             LAMBERT         RETURNS WITH PL AT 0 AND WITH VVEC IN MPAC IF VTARGTAG WAS NON-ZERO OR VTARGET
000214:                                                                                                  #                                        IN MPAC IF VTARGTAG WAS ZERO
000215:                                                                                                  #        L+2     BON                     CONTINUE IF SOLNSW CLEAR SINCE SOLUTION IS ACCEPTABLE
000216:                                                                                                  #        L+3             SOLNSW
000217:                                                                                                  #        L+4             LAMABORT
000218:
000219:                                                                                                  #        IF A LAMBERT RESULT IS TO BE A FIRST GUESS FOR THE NEXT LAMBERT CALCULATION, COGA MUST BE PRESERVED AND
000220:                                                                                                  #  GUESSW MUST BE CLEAR FOR EACH SUCCEEDING LAMBERT CALL.
000221:
000222:                                                                                                  #  ABORT EXIT MODES -
000223:                                                                                                  #        IF SOLNSW WAS SET UPON EXITING, EITHER LAMBERT WAS ASKED TO COMPUTE A TRANSFER TOO NEAR 0 OR 360 DEG, OR T
000224:                                                                                                  #  WAS TOO SMALL TO PRODUCE A REALISTIC TRANSFER BETWEEN R1VEC AND R2VEC.  IN EITHER CASE THE FIX MUST BE MADE
000225:                                                                                                  #  ACCORDING TO THE NEEDS OF THE PARTICULAR USER.  THE ABORT EXIT MODE MAY BE CODED AS ...
000226:                                                                                                  #  LAMABORT      DLOAD   ABS             A MEASURE OF PROXIMITY TO 0 OR
000227:                                                                                                  #                        1-CSTH          360 DEGREES.
000228:                                                                                                  #                DSU     BMN
000229:                                                                                                  #                        ONEBIT
000230:                                                                                                  #                        CHANGER2        CHANGE R2VEC DIRECTION SLIGHTLY.
000231:                                                                                                  #                DLOAD   DAD
000232:                                                                                                  #                        TDESIRED
000233:                                                                                                  #                        SOMETIME
000234:                                                                                                  #                STCALL  TDESIRED        INCREASE TDESIRED
000235:                                                                                                  #                        LAMBERT
000236:


000238:                                                                                                  #  OUTPUT -
000239:                                                                                                  #                        * SCALE FACTOR  *
000240:                                                                                                  #        VARIABLE        *IN POWERS OF 2 *       DESCRIPTION AND REMARKS
000241:                                                                                                  #        --------        *-------------- *       -----------------------
000242:                                                                                                  #        VVEC            * +7 FOR EARTH  *       DP INITIAL VELOCITY VECTOR IN METERS/CENTISECOND REQUIRED TO SATISFY THE BOUNDARY VALUE
000243:                                                                                                  #                        * +5 FOR MOON   *               PROBLEM.
000244:                                                                                                  #        VTARGET         * +7 FOR EARTH  *       DP RESULTANT VELOCITY VECTOR AT R2VEC IN METERS/CENTISECOND.
000245:                                                                                                  #                        * +5 FOR MOON   *
000246:                                                                                                  #        SOLNSW          * NONE          *       INTERPRETER SWITCH WHICH IS SET IF THE SUBROUTINE CANNOT SOLVE THE PROBLEM, CLEAR IF THE
000247:                                                                                                  #                        *               *               SOLUTION EXISTS.
000248:
000249:                                                                                                  #        FOR OTHER OUTPUT WHICH MAY BE OF USE, SEE DEBRIS.
000250:
000251:                                                                                                  #  DEBRIS -
000252:                                                                                                  #        PARAMETERS WHICH MAY BE OF USE -
000253:
000254:                                                                                                  #                        * SCALE FACTOR  *
000255:                                                                                                  #        VARIABLE        *IN POWERS OF 2 *       DESCRIPTION AND REMARKS
000256:                                                                                                  #        --------        *-------------- *       -----------------------
000257:                                                                                                  #        SNTH            * +1            *       DP SIN OF ANGLE BETWEEN R1VEC AND R2VEC
000258:                                                                                                  #        CSTH            * +1            *       DP COSINE OF ANGLE
000259:                                                                                                  #        1-CSTH          * +2            *       DP 1-CSTH
000260:                                                                                                  #        COGA            * +5            *       DP COTAN OF INITIAL REQUIRED FLIGHT PATH ANGLE MEASURED FROM VERTICAL
000261:                                                                                                  #        P               * +4            *       DP RATIO OF SEMILATUS RECTUM TO INITIAL RADIUS
000262:                                                                                                  #        R1A             * +6            *       DP RATIO OF INITIAL RADIUS TO SEMIMAJOR AXIS
000263:                                                                                                  #        R1 (32D)        * +29 FOR EARTH *       DP INITIAL RADIUS IN METERS
000264:                                                                                                  #                        * +27 FOR MOON  *
000265:                                                                                                  #        UR1             * +1            *       DP UNIT VECTOR OF R1VEC
000266:                                                                                                  #        U2              * +1            *       DP UNIT VECTOR OF R2VEC
000267:
000268:                                                                                                  #        PARAMETERS OF NO USE
000269:                                                                                                  #                DP PARAMETERS - EPSILONL, CSTH-RHO, TPREV, TERRLAMB, R2, RTNLAMB (SP), PLUS PUSHLIST REGISTER 0 THROUGH 41D
000270:                                                                                                  #                ADDITIONAL INTERPRETIVE SWITCHES USED - INFINFLG, 360SW, SLOPESW, ORDERSW
000271:


000273:                                                                                                  #  PROGRAM DESCRIPTION - TIME-THETA SUBROUTINE                   DATE - 1 SEPTEMBER 1967
000274:                                                                                                  #  MOD NO. - 0                                                   LOG SECTION - CONIC SUBROUTINES
000275:                                                                                                  #  MOD BY KRAUSE                                                 ASSEMBLY - COLOSSUS REVISION 88
000276:
000277:                                                                                                  #  FUNCTIONAL DESCRIPTION -
000278:                                                                                                  #        THIS SUBROUTINE, GIVEN AN INITIAL STATE VECTOR AND A DESIRED TRUE-ANOMALY-DIFFERENCE THROUGH WHICH THE
000279:                                                                                                  #  STATE IS TO BE UPDATED ALONG A CONIC TRAJECTORY, CALCULATES THE CORRESPONDING TIME-OF-FLIGHT AND, IN ADDITION,
000280:                                                                                                  #  PROVIDES THE OPTION OF COMPUTING THE NEW UPDATED STATE VECTOR.  THE RESULTING TRAJECTORY MAY BE A SECTION OF A
000281:                                                                                                  #  CIRCLE, ELLIPSE, PARABOLA, OR HYPERBOLA WITH RESPECT TO THE EARTH OR THE MOON.  THE USE OF THE SUBROUTINE CAN BE
000282:                                                                                                  #  EXTENDED USING OTHER PRIMARY BODIES BY SIMPLE ADDITIONS TO THE MUTABLE WITHOUT INTRODUCING ANY CODING CHANGES,
000283:                                                                                                  #  ACCEPTING THE INHERENT SCALE FACTOR CHANGES IN POSITION AND VELOCITY.
000284:
000285:                                                                                                  #  THE RESTRICTIONS ARE -
000286:                                                                                                  #        1. THE ANGLE BETWEEN ANY POSITION VECTOR AND ITS VELOCITY VECTOR MUST BE GREATER THAN 1 DEGREE 47.5 MINUTES
000287:                                                                                                  #           AND LESS THAN 178 DEGREES 12.5 MINUTES.
000288:                                                                                                  #        2. THE PARAMETERS IN THE PROBLEM MUST NOT EXCEED THEIR SCALING LIMITS SPECIFIED IN THE GSOP.  IF THE LIMITS
000289:                                                                                                  #           ARE EXCEEDED, THE RESULTING SOLUTION WILL BE MEANINGLESS.
000290:
000291:                                                                                                  #        THE AGC COMPUTATION TIME IS APPROXIMATELY .292 SECONDS.
000292:
000293:                                                                                                  #  REFERENCES -
000294:                                                                                                  #        R-479, MISSION PROGRAMMING DEFINITION MEMO NO. 10, LUNAR LANDING MISSION GSOP-SECTION 5.5, SGA MEMO 67-8.
000295:
000296:                                                                                                  #  INPUT - ERASABLE INITIALIZATION REQUIRED
000297:                                                                                                  #                        * SCALE FACTOR  *
000298:                                                                                                  #        VARIABLE        *IN POWERS OF 2 *       DESCRIPTION AND REMARKS
000299:                                                                                                  #        --------        *-------------- *       -----------------------
000300:                                                                                                  #        RVEC            * +29 FOR EARTH *       DP INITIAL POSITION VECTOR IN METERS
000301:                                                                                                  #                        * +27 FOR MOON  *
000302:                                                                                                  #        VVEC            * +7 FOR EARTH  *       DP INITIAL VELOCITY VECTOR IN METERS/CENTISECOND
000303:                                                                                                  #                        * +5 FOR MOON   *
000304:                                                                                                  #        SNTH            * +1            *       DP SINE OF TRUE-ANOMALY-DIFFERENCE THROUGH WHICH THE STATE IS TO BE UPDATED
000305:                                                                                                  #        CSTH            * +1            *       DP COSINE OF THE ANGLE
000306:                                                                                                  #        RVSW            * NONE          *       AN INTERPRETIVE SWITCH TO BE SET IF ONLY TIME IS TO BE AN OUTPUT, CLEAR IF THE NEW STATE
000307:                                                                                                  #                        *               *               IS TO BE COMPUTED ALSO.
000308:                                                                                                  #        X1 (38D)        * NONE          *       INDEX REGISTER TO BE SET TO -2D OR -10D ACCORDING TO WHETHER THE EARTH OR MOON,
000309:                                                                                                  #                        *               *               RESPECTIVELY, IS THE CENTRAL BODY.
000310:
000311:                                                                                                  #  SUBROUTINES CALLED -


000313:                                                                                                  #        PARAM, GEOM, GETX, DELTIME, NEWSTATE
000314:
000315:                                                                                                  #  CALLING SEQUENCE AND NORMAL EXIT MODES -
000316:                                                                                                  #        IF ONLY TIME IS DESIRED AS OUTPUT -
000317:                                                                                                  #        L       SET     CALL            MUST BE IN INTERPRETIVE MODE BUT OVFIND ARBITRARY.
000318:                                                                                                  #        L+1             RVSW
000319:                                                                                                  #        L+2             TIMETHET        RETURN WITH PL AT 0 AND T IN MPAC
000320:                                                                                                  #        L+3     ...                     CONTINUE
000321:
000322:                                                                                                  #        IF THE UPDATE STATE VECTOR IS DESIRED AS WELL -
000323:                                                                                                  #        L       CLEAR   CALL            MUST BE IN INTERPRETIVE MODE BUT OVFIND ARBITRARY.
000324:                                                                                                  #        L+1             RVSW
000325:                                                                                                  #        L+2             TIMETHET        RETURNS WITH PL AT 6.  THE INITIAL POSITION VECTOR IS IN 0D OF THE PUSHLIST AND
000326:                                                                                                  #                                        THE INITIAL VELOCITY VECTOR IN MPAC.
000327:                                                                                                  #        L+3     STOVL   NEWVVEC
000328:                                                                                                  #        L+4     STADR
000329:                                                                                                  #        L+5     STORE   NEWRVEC         NEWVVEC AND NEWRVEC ARE SYMBOLIC REPRESENTATIONS OF THE USERS LOCATIONS.
000330:                                                                                                  #        L+6     ...                     CONTINUE
000331:
000332:                                                                                                  #  ABORT EXIT MODES -
000333:                                                                                                  #        IF COGAFLAG AND/OR INFINFLG IS SET AT THE EXIT TO TIME-THETA, TIME-THETA WILL TRANSFER TO POODOO WITH
000334:                                                                                                  #        AN ALARM CODE (ORIGINALLY 00607), AND NOT RETURN TO THE CALLING PROGRAM.  (PCR 692 AND 721).
000335:
000336:                                                                                                  #  OUTPUT -
000337:                                                                                                  #                        * SCALE FACTOR  *
000338:                                                                                                  #        VARIABLE        *IN POWERS OF 2 *       DESCRIPTION AND REMARKS
000339:                                                                                                  #        --------        *-------------- *       -----------------------
000340:                                                                                                  #        T (30D)         * +28           *       DP TRANSFER TIME IN CENTISECONDS
000341:                                                                                                  #        INFINFLG        * NONE          *       AN INTERPRETIVE SWITCH WHICH IS SET IF THE TRANSFER ANGLE REQUIRES CLOSURE THROUGH
000342:                                                                                                  #                        *               *               INFINITY (NO SOLUTION), CLEAR IF A PHYSICAL SOLUTION IS POSSIBLE.
000343:                                                                                                  #        COGAFLAG        * NONE          *       AN INTERPRETIVE SWITCH WHICH IS SET IF RESTRICTION 1 HAS BEEN VIOLATED (NO SOLUTION),
000344:                                                                                                  #                        *               *               CLEAR IF NOT.
000345:
000346:                                                                                                  #        IN ADDITION, IF RVSW IS CLEAR, THE FOLLOWING ARE OUTPUT -
000347:                                                                                                  #        MPAC  -         * +7 FOR EARTH  *       DP TERMINAL VELOCITY VECTOR IN METERS/CENTISEC.
000348:                                                                                                  #         MPAC +5        * +5 FOR MOON   *
000349:                                                                                                  #        0D - 5D         * +29 FOR EARTH *       DP TERMINAL POSITION VECTOR IN METERS (PL AT 6D)
000350:                                                                                                  #                        * +27 FOR MOON  *
000351:
000352:                                                                                                  #        FOR OTHER OUTPUT WHICH MAY BE OF USE, SEE DEBRIS.
000353:


000355:                                                                                                  #  DEBRIS -
000356:                                                                                                  #        PARAMETERS WHICH MAY BE OF USE -
000357:                                                                                                  #
000358:                                                                                                  #                        * SCALE FACTOR  *
000359:                                                                                                  #        VARIABLE        *IN POWERS OF 2 *       DESCRIPTION AND REMARKS
000360:                                                                                                  #        --------        *-------------- *       -----------------------
000361:                                                                                                  #        R1 (32D)        * +29 FOR EARTH *       DP MAGNITUDE OF INITIAL POSITION VECTOR, RVEC, IN METERS
000362:                                                                                                  #                        * +27 FOR MOON  *
000363:                                                                                                  #        R1A             * +6            *       DP RATIO OF R1 TO SEMIMAJOR AXIS (NEG. FOR HYPERBOLIC TRAJECTORIES)
000364:                                                                                                  #        P               * +4            *       DP RATIO OF SEMILATUS RECTUM TO R1
000365:                                                                                                  #        COGA            * +5            *       DP COTAN OF ANGLE BETWEEN RVEC AND VVEC
000366:                                                                                                  #        UR1             * +1            *       DP UNIT VECTOR OF RVEC
000367:                                                                                                  #        U2              * +1            *       DP UNIT VECTOR OF VVEC
000368:                                                                                                  #        UN              * +1            *       DP UNIT VECTOR OF UR1*U2
000369:
000370:                                                                                                  #        PARAMETERS OF NO USE -
000371:                                                                                                  #        SP PARAMETERS - RTNTT, GEOMSGN, RTNPRM, MAGVEC2=R2 (DP), PLUS PUSHLIST LOCATIONS 0-11D, 14D-21D, 24D-39D, 41D
000372:                                                                                                  #        ADDITIONAL INTERPRETIVE SWITCHES USED - NORMSW, 360SW
000373:


000375:                                                                                                  #  PROGRAM DESCRIPTION - TIME-RADIUS SUBROUTINE          DATE - 11 OCTOBER 1967
000376:                                                                                                  #  MOD NO. -1                                            LOG SECTION - CONIC SUBROUTINES
000377:                                                                                                  #  MOD BY KRAUSE                                         ASSEMBLY - COLOSSUS REVISION 88
000378:
000379:                                                                                                  #  FUNCTIONAL DESCRIPTION -
000380:
000381:                                                                                                  #        THIS SUBROUTINE, GIVEN AN INITIAL STATE VECTOR AND A DESIRED RADIUS TO WHICH THE
000382:                                                                                                  #        STATE IS TO BE UPDATED ALONG A CONIC TRAJECTORY, CALCULATES THE CORRESPONDING TIME-OF-FLIGHT AND, IN ADDITION,
000383:                                                                                                  #        PROVIDES THE OPTION OF COMPUTING THE NEW UPDATED STATE VECTOR.  THE RESULTING TRAJECTORY MAY BE A SECTION OF A
000384:                                                                                                  #        CIRCLE, ELLIPSE, PARABOLA, OR HYPERBOLA WITH RESPECT TO THE EARTH OR THE MOON.  THE USE OF THE SUBROUTINE CAN BE
000385:                                                                                                  #        EXTENDED USING OTHER PRIMARY BODIES BY SIMPLE ADDITIONS TO THE MUTABLE WITHOUT INTRODUCING ANY CODING CHANGES,
000386:                                                                                                  #        ACCEPTING THE INHERENT SCALE FACTOR CHANGES IN POSITION AND VELOCITY.
000387:
000388:                                                                                                  #        IF THE DESIRED RADIUS IS BEYOND THE RADIUS OF APOCENTER OF THE CONIC OR BELOW THE RADIUS OF PERICENTER,
000389:                                                                                                  #        APSESW WILL BE SET AND THE SUBROUTINE WILL RETURN THE APOCENTER OR PERICENTER SOLUTION, RESPECTIVELY.
000390:
000391:                                                                                                  #  THE RESTRICTIONS ARE -
000392:                                                                                                  #        1. THE ANGLE BETWEEN ANY POSITION VECTOR AND ITS VELOCITY VECTOR MUST BE GREATER THAN 1 DEGREE 47.5 MINUTES
000393:                                                                                                  #           AND LESS THAN 178 DEGREES 12.5 MINUTES.
000394:                                                                                                  #        2. THE PARAMETERS IN THE PROBLEM MUST NOT EXCEED THEIR SCALING LIMITS SPECIFIED IN THE GSOP.  IF THE LIMITS
000395:                                                                                                  #           ARE EXCEEDED, THE RESULTING SOLUTION WILL BE MEANINGLESS.
000396:                                                                                                  #        3. AN ACCURACY DEGRADATION OCCURS AS THE SENSITIVITIES OF TIME AND UPDATED STATE VECTOR TO CHANGES IN
000397:                                                                                                  #           RDESIRED INCREASE.  THIS WILL OCCUR NEAR EITHER APSIS OF THE CONIC AND WHEN THE CONIC IS NEARLY CIRCULAR.  IN
000398:                                                                                                  #           PARTICULAR, IF THE CONIC IS AN EXACT CIRCLE, THE PROBLEM IS UNDEFINED AND THE SUBROUTINE WILL ABORT.
000399:
000400:                                                                                                  #        THE AGC COMPUTATION TIME IS APPROXIMATELY .363 SECONDS
000401:
000402:                                                                                                  #  REFERENCES -
000403:                                                                                                  #        R-479, MISSION PROGRAMMING DEFINITION MEMO NO. 10, LUNAR LANDING MISSION GSOP-SECTION 5.5, SGA MEMO 67-8.
000404:
000405:                                                                                                  #  INPUT - ERASABLE INITIALIZATION REQUIRED
000406:                                                                                                  #                        * SCALE FACTOR  *
000407:                                                                                                  #        VARIABLE        *IN POWERS OF 2 *       DESCRIPTION AND REMARKS
000408:                                                                                                  #        --------        *-------------- *       -----------------------
000409:                                                                                                  #        RVEC            * +29 FOR EARTH *       DP INITIAL POSITION VECTOR IN METERS
000410:                                                                                                  #                        * +27 FOR MOON  *
000411:                                                                                                  #        VVEC            * +7 FOR EARTH  *       DP INITIAL VELOCITY VECTOR IN METERS/CENTISECOND
000412:                                                                                                  #                        * +5 FOR MOON   *
000413:                                                                                                  #        RDESIRED        * +29 FOR EARTH *       DP TERMINAL RADIAL DISTANCE ON CONIC TRAJECTORY FOR WHICH TRANSFER TIME IS TO BE
000414:                                                                                                  #                        * +27 FOR MOON  *               COMPUTED.
000415:                                                                                                  #        SGNRDOT         * NONE          *       SP TAG SET TO +.5 OR -.5 ACCORDING TO WHETHER THE RADIAL VELOCITY AT RDESIRED IS TO BE
000416:                                                                                                  #                        *               *               POSITIVE OR NEGATIVE, RESPECTIVELY.   THIS TAG REDUCES THE DOUBLE-VALUED PROBLEM TO A


000418:                                                                                                  #                        *               *               SINGLE-VALUED PROBLEM.
000419:                                                                                                  #        X1 (38D)        * NONE          *       INDEX REGISTER TO BE SET TO -2D OR -10D ACCORDING TO WHETHER THE EARTH OR MOON,
000420:                                                                                                  #                        *               *               RESPECTIVELY, IS THE CENTRAL BODY.
000421:                                                                                                  #        RVSW            * NONE          *       AN INTERPRETIVE SWITCH TO BE SET IF ONLY TIME IS TO BE AN OUTPUT, CLEAR IF THE NEW STATE
000422:                                                                                                  #                        *               *               IS TO BE COMPUTED ALSO.
000423:
000424:                                                                                                  #  SUBROUTINES CALLED -
000425:                                                                                                  #        PARAM, GEOM, GETX, DELTIME, NEWSTATE
000426:
000427:                                                                                                  #  CALLING SEQUENCE AND NORMAL EXIT MODES -
000428:
000429:                                                                                                  #        IF ONLY TIME IS DESIRED AS OUTPUT -
000430:                                                                                                  #        L       SET     CALL            MUST BE IN INTERPRETIVE MODE BUT OVFIND ARBITRARY.
000431:                                                                                                  #        L+1             RVSW
000432:                                                                                                  #        L+2             TIMERAD         RETURN WITH PL AT 0 AND T IN MPAC
000433:                                                                                                  #        L+3     ...                     CONTINUE
000434:
000435:                                                                                                  #        IF THE UPDATE STATE VECTOR IS DESIRED AS WELL -
000436:                                                                                                  #        L       CLEAR   CALL            MUST BE IN INTERPRETIVE MODE BUT OVFIND ARBITRARY.
000437:                                                                                                  #        L+1             RVSW
000438:                                                                                                  #        L+2             TIMERAD         RETURNS WITH PL AT 6.  THE INITIAL POSITION VECTOR IS IN 0D OF THE PUSHLIST AND
000439:                                                                                                  #                                        THE INITIAL VELOCITY VECTOR IN MPAC.
000440:                                                                                                  #        L+3     STOVL   NEWVVEC
000441:                                                                                                  #        L+4     STADR
000442:                                                                                                  #        L+5     STORE   NEWRVEC         NEWVVEC AND NEWRVEC ARE SYMBOLIC REPRESENTATIONS OF THE USERS LOCATIONS.
000443:                                                                                                  #        L+6     ...                     CONTINUE
000444:
000445:                                                                                                  #  ABORT EXIT MODES -
000446:                                                                                                  #        IF SOLNSW AND/OR COGAFLAG AND/OR INFINFLG IS SET AT THE EXIT TO TIME-RADIUS, TIME-RADIUS WILL TRANSFER
000447:                                                                                                  #        TO POODOO WITH AN ALARM CODE (ORIGINALLY 00607), AND NOT RETURN TO THE CALLING PROGRAM. (PCR 692 & 721)
000448:
000449:                                                                                                  #  OUTPUT -
000450:                                                                                                  #                        * SCALE FACTOR  *
000451:                                                                                                  #        VARIABLE        *IN POWERS OF 2 *       DESCRIPTION AND REMARKS
000452:                                                                                                  #        --------        *-------------- *       -----------------------
000453:                                                                                                  #        T (30D)         * +28           *       DP TRANSFER TIME IN CENTISECONDS
000454:                                                                                                  #        INFINFLG        * NONE          *       AN INTERPRETIVE SWITCH WHICH IS SET IF RDESIRED AND SGNRDOT REQUIRE CLOSURE THROUGH
000455:                                                                                                  #                        *               *               INFINITY (NO SOLUTION), CLEAR IF A PHYSICAL SOLUTION IS POSSIBLE.
000456:                                                                                                  #        COGAFLAG        * NONE          *       AN INTERPRETIVE SWITCH WHICH IS SET IF RESTRICTION 1 HAS BEEN VIOLATED (NO SOLUTION),
000457:                                                                                                  #                        *               *               CLEAR IF NOT.
000458:                                                                                                  #        APSESW          * NONE          *       AN INTERPRETIVE SWITCH WHICH IS SET IF RDESIRED WAS GREATER THAN RADIUS OF APOCENTER OR


000460:                                                                                                  #                        *               *               LESS THAN RADIUS OF PERICENTER.  THE APOCENTER OR PERICENTER SOLUTION, RESPECTIVELY,
000461:                                                                                                  #                        *               *               WILL THEN BE RETURNED.  THE SWITCH IS CLEAR IF RDESIRED WAS BETWEEN PERICENTER AND
000462:                                                                                                  #                        *               *               APOCENTER.
000463:                                                                                                  #        SOLNSW          * NONE          *       AN INTERPRETIVE SWITCH WHICH IS SET IF THE CONIC IS SO CLOSE TO A CIRCLE THAT THE TERMIN
000464:                                                                                                  #                                        *               POINT IS AMBIGUOUS, VIOLATING RESTRICTION 3.  IF ECCENTRICITY IS GREATER THAN 2-TO-THE-
000465:                                                                                                  #                                        *               MINUS-18, THE SWITCH IS CLEAR.
000466:
000467:                                                                                                  #        IN ADDITION, IF RVSW IS CLEAR, THE FOLLOWING ARE OUTPUT -
000468:
000469:                                                                                                  #        MPAC  -         * +7 FOR EARTH  *       DP TERMINAL VELOCITY VECTOR IN METERS/CENTISEC.
000470:                                                                                                  #         MPAC +5        * +5 FOR MOON   *
000471:                                                                                                  #        0D - 5D         * +29 FOR EARTH *       DP TERMINAL POSITION VECTOR IN METERS (PL AT 6D)
000472:                                                                                                  #                        * +27 FOR MOON  *
000473:
000474:                                                                                                  #        FOR OTHER OUTPUT WHICH MAY BE OF USE, SEE DEBRIS.
000475:
000476:                                                                                                  #  DEBRIS -
000477:                                                                                                  #        PARAMETERS WHICH MAY BE OF USE -
000478:
000479:                                                                                                  #                        * SCALE FACTOR  *
000480:                                                                                                  #        VARIABLE        *IN POWERS OF 2 *       DESCRIPTION AND REMARKS
000481:                                                                                                  #        --------        *-------------- *       -----------------------
000482:                                                                                                  #        R1 (32D)        * +29 FOR EARTH *       DP MAGNITUDE OF INITIAL POSITION VECTOR, RVEC, IN METERS
000483:                                                                                                  #                        * +27 FOR MOON  *
000484:                                                                                                  #        R1A             * +6            *       DP RATIO OF R1 TO SEMIMAJOR AXIS (NEG. FOR HYPERBOLIC TRAJECTORIES)
000485:                                                                                                  #        P               * +4            *       DP RATIO OF SEMILATUS RECTUM TO R1
000486:                                                                                                  #        COGA            * +5            *       DP COTAN OF ANGLE BETWEEN RVEC AND VVEC
000487:                                                                                                  #        UR1             * +1            *       DP UNIT VECTOR OF RVEC
000488:                                                                                                  #        U2              * +1            *       DP UNIT VECTOR OF VVEC
000489:                                                                                                  #        UN              * +1            *       DP UNIT VECTOR OF UR1*U2
000490:                                                                                                  #        CSTH            * +1            *       DP COSINE OF TRUE ANOMALY DIFFERENCE BETWEEN RVEC AND RDESIRED.
000491:                                                                                                  #        SNTH            * +1            *       DP SINE OF TRUE ANOMALY DIFFERENCE.
000492:
000493:                                                                                                  #        PARAMETERS OF NO USE -
000494:                                                                                                  #                SP PARAMETERS - RTNTT, GEOMSGN, RTNPRM, MAGVEC2=R2 (DP), PLUS PUSHLIST LOCATIONS 0-11D, 14D-21D, 24D-39D, 41D
000495:                                                                                                  #                ADDITIONAL INTERPRETIVE SWITCHES USED - NORMSW, 360SW
000496:
000497:


000499:                                                                                                  #  PROGRAM DESCRIPTION - APSIDES SUBROUTINE              DATE - 1 SEPTEMBER 1967
000500:                                                                                                  #  MOD NO. - 0                                           LOG SECTION - CONIC SUBROUTINES
000501:                                                                                                  #  MOD BY KRAUSE                                         ASSEMBLY - COLOSSUS REVISION 88
000502:
000503:                                                                                                  #  FUNCTIONAL DESCRIPTION -
000504:
000505:                                                                                                  #        THIS SUBROUTINE, GIVEN AN INITIAL STATE VECTOR CALCULATES THE RADIUS OF PERICENTER AND OF APOCENTER AND THE
000506:                                                                                                  #        ECCENTRICITY OF THE RESULTING CONIC TRAJECTORY, WHICH MAY BE A STRAIGHT LINE,
000507:                                                                                                  #        CIRCLE, ELLIPSE, PARABOLA, OR HYPERBOLA WITH RESPECT TO THE EARTH OR THE MOON.  THE USE OF THE SUBROUTINE CAN BE
000508:                                                                                                  #        EXTENDED USING OTHER PRIMARY BODIES BY SIMPLE ADDITIONS TO THE MUTABLE WITHOUT INTRODUCING ANY CODING CHANGES,
000509:                                                                                                  #        ACCEPTING THE INHERENT SCALE FACTOR CHANGES IN POSITION AND VELOCITY.
000510:
000511:                                                                                                  #  THE RESTRICTIONS ARE -
000512:                                                                                                  #        1. IF APOCENTER IS BEYOND THE SCALING OF POSITION, THE SCALE FACTOR LIMIT (536,870,910 METERS WITH RESPECT
000513:                                                                                                  #           TO THE EARTH OR 134,217,727.5 METERS WITH RESPECT TO THE MOON) WILL BE RETURNED.
000514:                                                                                                  #        2. THE PARAMETERS IN THE PROBLEM MUST NOT EXCEED THEIR SCALING LIMITS SPECIFIED IN THE GSOP.  IF THE LIMITS
000515:                                                                                                  #           ARE EXCEEDED, THE RESULTING SOLUTION WILL BE MEANINGLESS.
000516:
000517:                                                                                                  #        THE AGC COMPUTATION TIME IS APPROXIMATELY .103 SECONDS.
000518:
000519:                                                                                                  #  REFERENCES -
000520:                                                                                                  #        MISSION PROGRAMMING DEFINITION MEMO NO. 10, LUNAR LANDING MISSION GSOP-SECTION 5.5
000521:
000522:                                                                                                  #  INPUT - ERASABLE INITIALIZATION REQUIRED
000523:                                                                                                  #                        * SCALE FACTOR  *
000524:                                                                                                  #        VARIABLE        *IN POWERS OF 2 *       DESCRIPTION AND REMARKS
000525:                                                                                                  #        --------        *-------------- *       -----------------------
000526:                                                                                                  #        RVEC            * +29 FOR EARTH *       DP INITIAL POSITION VECTOR IN METERS
000527:                                                                                                  #                        * +27 FOR MOON  *
000528:                                                                                                  #        VVEC            * +7 FOR EARTH  *       DP INITIAL VELOCITY VECTOR IN METERS/CENTISECOND
000529:                                                                                                  #                        * +5 FOR MOON   *
000530:                                                                                                  #        X1 (38D)        * NONE          *       INDEX REGISTER TO BE SET TO -2D OR -10D ACCORDING TO WHETHER THE EARTH OR MOON,
000531:                                                                                                  #                        *               *               RESPECTIVELY, IS THE CENTRAL BODY.
000532:
000533:                                                                                                  #  SUBROUTINES CALLED -
000534:                                                                                                  #        PARAM, GEOM
000535:
000536:                                                                                                  #  CALLING SEQUENCE AND NORMAL EXIT MODES -


000538:                                                                                                  #        IF ONLY TIME IS DESIRED AS OUTPUT -
000539:                                                                                                  #        L       CALL                    MUST BE IN INTERPRETIVE MODE BUT OVFIND ARBITRARY.
000540:                                                                                                  #        L+1             APSIDES         RETURNS WITH PL AT 0, RADIUS OF APOCENTER IN MPAC AND RADIUS OF PERICENTER IN 0D
000541:                                                                                                  #        L+2     STODL   APOAPSE
000542:                                                                                                  #        L+3             0D
000543:                                                                                                  #        L+4     STORE   PERIAPSE        APOAPSE AND PERIAPSE ARE SYMBOLIC REPRESENTATIONS OF THE USERS LOCATIONS
000544:                                                                                                  #        L+5     ...                     CONTINUE
000545:
000546:                                                                                                  #  OUTPUT -
000547:                                                                                                  #                        * SCALE FACTOR  *
000548:                                                                                                  #        VARIABLE        *IN POWERS OF 2 *       DESCRIPTION AND REMARKS
000549:                                                                                                  #        --------        *-------------- *       -----------------------
000550:                                                                                                  #        MPAC            * +29 FOR EARTH *       DP RADIUS OF APOCENTER IN METERS
000551:                                                                                                  #                        * +27 FOR MOON  *
000552:                                                                                                  #        0D-1D           * +29 FOR EARTH *       DP RADIUS OF PERICENTER IN METERS
000553:                                                                                                  #                        * +27 FOR MOON  *
000554:                                                                                                  #        ECC             * +3            *       DP ECCENTRICITY OF CONIC TRAJECTORY.
000555:
000556:                                                                                                  #        FOR OTHER OUTPUT WHICH MAY BE OF USE, SEE DEBRIS.
000557:
000558:                                                                                                  #  DEBRIS -
000559:
000560:                                                                                                  #        PARAMETERS WHICH MAY BE OF USE -
000561:
000562:                                                                                                  #                        * SCALE FACTOR  *
000563:                                                                                                  #        VARIABLE        *IN POWERS OF 2 *       DESCRIPTION AND REMARKS
000564:                                                                                                  #        --------        *-------------- *       -----------------------
000565:                                                                                                  #        R1 (32D)        * +29 FOR EARTH *       DP MAGNITUDE OF INITIAL POSITION VECTOR, RVEC, IN METERS
000566:                                                                                                  #                        * +27 FOR MOON  *
000567:                                                                                                  #        R1A             * +6            *       DP RATIO OF R1 TO SEMIMAJOR AXIS (NEG. FOR HYPERBOLIC TRAJECTORIES)
000568:                                                                                                  #        P               * +4            *       DP RATIO OF SEMILATUS RECTUM TO R1
000569:                                                                                                  #        COGA            * +5            *       DP COTAN OF ANGLE BETWEEN RVEC AND VVEC
000570:                                                                                                  #        UR1             * +1            *       DP UNIT VECTOR OF RVEC
000571:                                                                                                  #        U2              * +1            *       DP UNIT VECTOR OF VVEC
000572:                                                                                                  #        UN              * +1            *       DP UNIT VECTOR OF UR1*U2
000573:                                                                                                  #        MAGVEC2         * +7 FOR EARTH  *       DP MAGNITUDE OF VVEC
000574:                                                                                                  #                        * +5 FOR MOON   *
000575:
000576:                                                                                                  #        PARAMETERS OF NO USE -
000577:                                                                                                  #                SP PARAMETERS - RTNAPSE, GEOMSGN, RTNPRM, PLUS PUSHLIST LOCATIONS 0-5, 10D-11D, 14D-21D, 31D-38D.
000578:                                                                                                  #                ADDITIONAL INTERPRETIVE SWITCHES USED - NORMSW
000579:
000580: 12,2000                                           SETLOC   CONICS


000582: 12,2000                                           BANK
000583:
000584: 12,2023                                           COUNT*   $$/CONIC
000585: 12,2023  E5,1721                                  EBANK=   UR1
000586: 12,2023           40001        KEPLERN            SETPD    BOV
000587: 12,2024           00001                                    0
000588: 12,2025           24026                                    +1
000589: 12,2026           77773                           VLOAD*
000590: 12,2027           10005                                    MUTABLE,1
000591: 12,2030           24017                           STOVL    14D
000592: 12,2031           01503                                    RRECT
000593: 12,2032           66256                           UNIT     SSP
000594: 12,2033           00027                                    ITERCTR
000595: 12,2034           00024                                    20D
000596: 12,2035           16647                           STODL    URRECT
000597: 12,2036           00045                                    36D
000598: 12,2037           24041                           STOVL    R1
000599: 12,2040           01503                                    RRECT
000600: 12,2041           76441                           DOT      SL1R
000601: 12,2042           01511                                    VRECT
000602: 12,2043           76405                           DMP      SL1R
000603: 12,2044           00023                                    1/ROOTMU                              #  1/ROOTMU (-17 OR -14)
000604: 12,2045           24043                           STOVL    KEPC1                                 #  C1=R.V/ROOTMU (+17 OR +16)
000605: 12,2046           01511                                    VRECT
000606: 12,2047           57236                           VSQ      DMPR
000607: 12,2050           00017                                    1/MU                                  #  1/MU (-34 OR -28)
000608: 12,2051           52405                           DMP      SL3
000609: 12,2052           00041                                    R1
000610: 12,2053           61425                           DSU      ROUND
000611: 12,2054           11035                                    D1/64
000612: 12,2055           00045                           STORE    KEPC2                                 #  C2=RV.V/MU -1 (+6)
000613:
000614: 12,2056           74421                           BDSU     SR1R
000615: 12,2057           11035                                    D1/64
000616: 12,2060           77671                           DDV
000617: 12,2061           00041                                    R1
000618: 12,2062           00011                           STORE    ALPHA                                 #  ALPHA=(1-C2)/R1 (-22 OR -20)
000619:
000620: 12,2063           71244                           BPL      DLOAD                                 #  MAXIMUM X DEPENDS ON TYPE OF CONIC
000621: 12,2064           24073                                    1REV
000622: 12,2065           11053                                    -50SC                                 #  -50SC (+12)
000623: 12,2066           40071                           DDV      BOV
000624: 12,2067           00011                                    ALPHA
000625: 12,2070           24077                                    STOREMAX
000626: 12,2071           52166                           SQRT     GOTO
000627: 12,2072           24077                                    STOREMAX
000628:
000629: 12,2073           55366        1REV               SQRT     BDDV


000631: 12,2074           11055                                    2PISC                                 #  2PISC (+6)
000632: 12,2075           77600                           BOV
000633: 12,2076           24077                                    STOREMAX
000634: 12,2077           00013        STOREMAX           STORE    XMAX
000635: 12,2100           65205                           DMP      PDDL
000636: 12,2101           00023                                    1/ROOTMU
000637: 12,2102           00011                                    ALPHA
000638: 12,2103           65301                           NORM     PDDL
000639: 12,2104           00047                                    X1
000640: 12,2105           56257                           SL*      DDV
000641: 12,2106           20173                                    0          -6,1
000642: 12,2107           50000                           BOV      BMN
000643: 12,2110           24124                                    MODDONE
000644: 12,2111           24124                                    MODDONE                               #  MPAC=PERIOD
000645: 12,2112           51525        PERIODCH           PDDL     ABS                                   #  0D=PERIOD
000646: 12,2113           02074                                    TAU.
000647: 12,2114           50025                           DSU      BMN
000648: 12,2115           00001                                    0D
000649: 12,2116           24124                                    MODDONE
000650: 12,2117           77765                           SIGN
000651: 12,2120           02074                                    TAU.
000652: 12,2121           16074                           STODL    TAU.
000653: 12,2122           77650                           GOTO
000654: 12,2123           24112                                    PERIODCH
000655: 12,2124           71201        MODDONE            SETPD    DLOAD
000656: 12,2125           00001                                    0
000657: 12,2126           02130                                    XKEPNEW
000658: 12,2127           00025                           STORE    X
000659: 12,2130           53165                           SIGN     BZE
000660: 12,2131           02074                                    TAU.
000661: 12,2132           24302                                    BADX
000662: 12,2133           51440                           BMN      ABS
000663: 12,2134           24302                                    BADX
000664: 12,2135           51025                           DSU      BPL
000665: 12,2136           00013                                    XMAX
000666: 12,2137           24302                                    BADX
000667: 12,2140           51145        STORBNDS           DLOAD    BPL
000668: 12,2141           02074                                    TAU.
000669: 12,2142           24152                                    STOREMIN
000670: 12,2143           57545                           DLOAD    DCOMP
000671: 12,2144           00013                                    XMAX
000672: 12,2145           14015                           STODL    XMIN
000673: 12,2146           24007                                    KEPZERO
000674: 12,2147           00013                           STORE    XMAX
000675: 12,2150           77650                           GOTO
000676: 12,2151           24155                                    DXCOMP
000677: 12,2152           77745        STOREMIN           DLOAD
000678: 12,2153           24007                                    KEPZERO
000679: 12,2154           00015                           STORE    XMIN
000680: 12,2155           57345        DXCOMP             DLOAD    DMPR


000682: 12,2156           02074                                    TAU.
000683: 12,2157           11046                                    BEE22
000684: 12,2160           77646                           ABS
000685: 12,2161           16177                           STODL    EPSILONT
000686: 12,2162           01553                                    XPREV
000687: 12,2163           77621        XDIFF              BDSU
000688: 12,2164           00025                                    X
000689: 12,2165           02643                           STORE    DELX
000690:
000691: 12,2166           63545        KEPLOOP            DLOAD    DSQ
000692: 12,2167           00025                                    X                                     #  X=XKEP
000693: 12,2170           41501                           NORM     PUSH                                  #  0D=XSQ (+34 OR +32 -N1)       PL AT 2
000694: 12,2171           00047                                    X1
000695: 12,2172           53605                           DMP      SRR*
000696: 12,2173           00011                                    ALPHA
000697: 12,2174           21573                                    0          -6,1
000698: 12,2175           34031                           STCALL   XI                                    #  XI=ALPHA XSQ (+6)
000699: 12,2176           24421                                    DELTIME
000700: 12,2177           44200                           BOV      BDSU
000701: 12,2200           24311                                    TIMEOVFL                              #  UNLIKELY
000702: 12,2201           02074                                    TAU.
000703: 12,2202           02645                           STORE    DELT                                  #  DELT=DELINDEP
000704: 12,2203           44246                           ABS      BDSU
000705: 12,2204           02177                                    EPSILONT
000706: 12,2205           71244                           BPL      DLOAD
000707: 12,2206           24333                                    KEPCONVG
000708: 12,2207           00037                                    T
000709: 12,2210           60225                           DSU      NORM
000710: 12,2211           01551                                    TC
000711: 12,2212           00047                                    X1
000712: 12,2213           60325                           PDDL     NORM
000713: 12,2214           02643                                    DELX
000714: 12,2215           00050                                    X2
000715: 12,2216           41260                           XSU,1    DMP
000716: 12,2217           00047                                    X2
000717: 12,2220           02645                                    DELT
000718: 12,2221           56257                           SLR*     DDV
000719: 12,2222           21202                                    1,1
000720: 12,2223           41542                           SR1      PUSH                                  #  0D=TRIAL DELX         PL AT 2
000721: 12,2224           71244                           BPL      DLOAD
000722: 12,2225           24246                                    POSDELX
000723: 12,2226           00025                                    X
000724: 12,2227           00013                           STORE    XMAX                                  #  MOVE MAX BOUND IN
000725: 12,2230           45221                           BDSU     DSU                                   #                        PL AT 0
000726: 12,2231           00015                                    XMIN
000727: 12,2232           51000                           BOV      BPL
000728: 12,2233           24240                                    NDXCHNGE
000729: 12,2234           24240                                    NDXCHNGE
000730: 12,2235           52145                           DLOAD    GOTO


000732: 12,2236           00001                                    0D
000733: 12,2237           24260                                    NEWDELX
000734:
000735: 12,2240           45345        NDXCHNGE           DLOAD    DSU
000736: 12,2241           00015                                    XMIN
000737: 12,2242           00025                                    X
000738: 12,2243           52075                           DMPR     GOTO                                  #  TO FORCE MPAC +2 TO ZERO
000739: 12,2244           11051                                    DP9/10
000740: 12,2245           24260                                    NEWDELX
000741:
000742: 12,2246           77745        POSDELX            DLOAD
000743: 12,2247           00025                                    X
000744: 12,2250           00015                           STORE    XMIN                                  #  MOVE MIN BOUND IN
000745: 12,2251           45221                           BDSU     DSU                                   #                        PL AT 0
000746: 12,2252           00013                                    XMAX
000747: 12,2253           50000                           BOV      BMN
000748: 12,2254           24274                                    PDXCHNGE
000749: 12,2255           24274                                    PDXCHNGE
000750: 12,2256           77745                           DLOAD
000751: 12,2257           00001                                    0D
000752: 12,2260           02643        NEWDELX            STORE    DELX
000753: 12,2261           43254                           BZE      DAD
000754: 12,2262           24333                                    KEPCONVG
000755: 12,2263           00025                                    X
000756: 12,2264           14025                           STODL    X
000757: 12,2265           00037                                    T
000758: 12,2266           01551                           STORE    TC
000759: 12,2267           46034        BRNCHCTR           RTB      BHIZ
000760: 12,2270           24644                                    CHECKCTR
000761: 12,2271           24333                                    KEPCONVG
000762: 12,2272           77650                           GOTO
000763: 12,2273           24166                                    KEPLOOP                               #  ITERATE
000764:
000765: 12,2274           45345        PDXCHNGE           DLOAD    DSU
000766: 12,2275           00013                                    XMAX
000767: 12,2276           00025                                    X
000768: 12,2277           52075                           DMPR     GOTO                                  #  TO FORCE MPAC +2 TO ZERO
000769: 12,2300           11051                                    DP9/10
000770: 12,2301           24260                                    NEWDELX
000771:
000772: 12,2302           70545        BADX               DLOAD    SR1
000773: 12,2303           00013                                    XMAX
000774: 12,2304           77765                           SIGN
000775: 12,2305           02074                                    TAU.
000776: 12,2306           00025                           STORE    X
000777: 12,2307           77650                           GOTO


000779: 12,2310           24140                                    STORBNDS
000780: 12,2311           50145        TIMEOVFL           DLOAD    BMN                                   #  X WAS TOO BIG
000781: 12,2312           00025                                    X
000782: 12,2313           24330                                    NEGTOVFL
000783: 12,2314           00013                           STORE    XMAX
000784: 12,2315           70545        CMNTOVFL           DLOAD    SR1
000785: 12,2316           02643                                    DELX
000786: 12,2317           02643                           STORE    DELX
000787: 12,2320           44254                           BZE      BDSU
000788: 12,2321           02112                                    KEPRTN
000789: 12,2322           00025                                    X
000790: 12,2323           14025                           STODL    X
000791: 12,2324           01551                                    TC
000792: 12,2325           00037                           STORE    T
000793: 12,2326           77650                           GOTO
000794: 12,2327           24267                                    BRNCHCTR
000795: 12,2330           00015        NEGTOVFL           STORE    XMIN
000796: 12,2331           77650                           GOTO
000797: 12,2332           24315                                    CMNTOVFL
000798: 12,2333           44545        KEPCONVG           DLOAD    SR4R
000799: 12,2334           00041                                    R1
000800: 12,2335           74225                           DSU      VXSC
000801: 12,2336           00035                                    XSQC(XI)
000802: 12,2337           02647                                    URRECT
000803: 12,2340           65372                           VSL1     PDDL                                  #  0D=(R1-XSQC(XI))URRECT (+33 OR +31)
000804: 12,2341           00025                                    X
000805: 12,2342           60316                           DSQ      NORM
000806: 12,2343           00047                                    X1
000807: 12,2344           57275                           DMPR     DMPR
000808: 12,2345           00023                                    1/ROOTMU
000809: 12,2346           00025                                    X
000810: 12,2347           53605                           DMP      SRR*
000811: 12,2350           00033                                    S(XI)
000812: 12,2351           21572                                    0          -7,1
000813: 12,2352           77621                           BDSU
000814: 12,2353           00037                                    T
000815: 12,2354           74352                           SL1      VXSC
000816: 12,2355           01511                                    VRECT
000817: 12,2356           53372                           VSL1     VAD                                   #                                PL AT 0
000818: 12,2357           77712                           VSL4
000819: 12,2360           01535                           STORE    RCV                                   #  RCV (+29 OR +27)
000820:
000821: 12,2361           60246                           ABVAL    NORM
000822: 12,2362           00050                                    X2
000823: 12,2363           14043                           STODL    RCNORM
000824: 12,2364           00031                                    XI
000825: 12,2365           45275                           DMPR     DSU
000826: 12,2366           00033                                    S(XI)
000827: 12,2367           11033                                    D1/128


000829: 12,2370           76405                           DMP      SL1R
000830: 12,2371           00021                                    ROOTMU
000831: 12,2372           53605                           DMP      SLR*
000832: 12,2373           00025                                    X
000833: 12,2374           56601                                    0          -3,2
000834: 12,2375           74271                           DDV      VXSC
000835: 12,2376           00043                                    RCNORM
000836: 12,2377           02647                                    URRECT
000837: 12,2400           65372                           VSL1     PDDL                                  #  0D=URRECT(XI S(XI)-1)X ROOTMU/RCV (+15
000838: 12,2401           00035                                    XSQC(XI)                              #  OR +13)                       PL AT 6
000839: 12,2402           56257                           SLR*     DDV
000840: 12,2403           56602                                    0          -4,2
000841: 12,2404           00043                                    RCNORM
000842: 12,2405           74221                           BDSU     VXSC
000843: 12,2406           11047                                    D1/256
000844: 12,2407           01511                                    VRECT
000845: 12,2410           42455                           VAD      VSL8
000846: 12,2411           77626                           STADR                                          #                                PL AT 0
000847: 12,2412           62234                           STODL    VCV                                   #  VCV (+7 OR +5)
000848: 12,2413           00037                                    T
000849: 12,2414           15551                           STODL    TC
000850: 12,2415           00025                                    X
000851: 12,2416           01553                           STORE    XPREV
000852: 12,2417           77650                           GOTO
000853: 12,2420           02112                                    KEPRTN
000854:


000856: 12,2421           77776        DELTIME            EXIT                                           #  MPAC=XI (+6), 0D=XSQ (+34 OR +32 -N1)
000857: 12,2422           07222                           TC       POLY
000858: 12,2423           00010                           DEC      8          B-14
000859: 12,2424           02525 12526                     2DEC     .083333334
000860: 12,2426           67356 75666                     2DEC     -.266666684
000861: 12,2430           15001 23771                     2DEC     .406349155
000862: 12,2432           64342 43674                     2DEC     -.361198675
000863: 12,2434           06563 04645                     2DEC     .210153242
000864: 12,2436           75173 52672                     2DEC     -.086221951
000865: 12,2440           00656 14331                     2DEC     .026268812
000866: 12,2442           77633 40512                     2DEC     -.006163316
000867: 12,2444           00023 11210                     2DEC     .001177342
000868: 12,2446           77774 67506                     2DEC     -.000199055
000869:
000870: 12,2450           06037                           TC       INTPRET
000871: 12,2451           14033                           STODL    S(XI)
000872: 12,2452           00031                                    XI
000873: 12,2453           77776                           EXIT
000874: 12,2454           07222                           TC       POLY
000875: 12,2455           00010                           DEC      8          B-14
000876: 12,2456           01000 00000                     2DEC     .031250001
000877: 12,2460           72525 52506                     2DEC     -.166666719
000878: 12,2462           13301 15337                     2DEC     .355555413
000879: 12,2464           62776 54733                     2DEC     -.406347410
000880: 12,2466           11176 13267                     2DEC     .288962094
000881: 12,2470           73410 51674                     2DEC     -.140117894
000882: 12,2472           01446 33641                     2DEC     .049247387
000883: 12,2474           77451 65233                     2DEC     -.013081923
000884: 12,2476           00055 37266                     2DEC     .002806389
000885: 12,2500           77767 52336                     2DEC     -.000529414
000886: 12,2502           06037                           TC       INTPRET


000888: 12,2503           53605                           DMP      SRR*                                  #                                PL AT 0
000889: 12,2504           00001                                    0D
000890: 12,2505           21574                                    0          -5,1
000891: 12,2506           00035                           STORE    XSQC(XI)                              #  XSQC(XI) (+33 OR +31)
000892: 12,2507           72405                           DMP      SL1
000893: 12,2510           00043                                    KEPC1
000894: 12,2511           65234                           RTB      PDDL                                  #  XCH WITH PL. 0D=C1 XSQ C(XI) (+49 OR +46
000895: 12,2512           21633                                    TPMODE                                #                                PL AT 0,3
000896: 12,2513           53605                           DMP      SRR*
000897: 12,2514           00033                                    S(XI)
000898: 12,2515           21574                                    0          -5,1
000899: 12,2516           72405                           DMP      SL1
000900: 12,2517           00045                                    KEPC2
000901: 12,2520           65234                           RTB      PDDL                                  #  3D=C2 XSQ S(XI) (+35 OR +33)  PL AT 6
000902: 12,2521           21633                                    TPMODE
000903: 12,2522           00041                                    R1
000904: 12,2523           76261                           SR       TAD                                   #                                PL AT 3
000905: 12,2524           20607                                    6
000906: 12,2525           41301                           NORM     DMP                                   #  TO PRESERVE SIGNIF.
000907: 12,2526           00047                                    X1
000908: 12,2527           00025                                    X
000909: 12,2530           76257                           SR*      TAD                                   #  X(C2 XSQ S(XI) +R1) (+49 OR +46)  PL AT 0
000910: 12,2531           20576                                    0          -3,1
000911: 12,2532           57232                           SL4R     DMPR
000912: 12,2533           00023                                    1/ROOTMU
000913: 12,2534           00037                           STORE    T
000914: 12,2535           77616                           RVQ
000915:


000917: 12,2536           71214        ITERATOR           BONCLR   DLOAD
000918: 12,2537           00614                                    SLOPESW
000919: 12,2540           24606                                    FIRSTIME
000920: 12,2541           00037                                    DEP
000921: 12,2542           60225                           DSU      NORM
000922: 12,2543           02762                                    DEPREV
000923: 12,2544           00047                                    X1
000924: 12,2545           60325                           PDDL     NORM
000925: 12,2546           00015                                    DELINDEP
000926: 12,2547           00050                                    X2
000927: 12,2550           41260                           XSU,1    DMP
000928: 12,2551           00047                                    X2
000929: 12,2552           02760                                    DELDEP
000930: 12,2553           56257                           SLR*     DDV                                   #                                PL UP 2
000931: 12,2554           21202                                    1,1
000932: 12,2555           43142                           SR1      BOFF
000933: 12,2556           04351                                    ORDERSW
000934: 12,2557           24562                                    SGNCHECK
000935: 12,2560           75246                           ABS      SIGN                                  #  IN CASE 2ND DERIV. CHANGED SIGN, MUST
000936: 12,2561           02760                                    DELDEP                                #  DISREGARD IT TO FIND MIN.
000937:
000938: 12,2562           51006        SGNCHECK           PUSH     BPL                                   #  TRIAL DELINDEP                PL DOWN 2
000939: 12,2563           24620                                    POSDEL
000940: 12,2564           43145                           DLOAD    BON
000941: 12,2565           02766                                    INDEP
000942: 12,2566           04311                                    ORDERSW
000943: 12,2567           24571                                    MINCHECK
000944: 12,2570           00017                           STORE    MAX                                   #  IF NOT 2ND ORDER, CAN MOVE MAX BOUND IN.
000945:
000946: 12,2571           45221        MINCHECK           BDSU     DSU
000947: 12,2572           00011                                    MIN
000948: 12,2573           51000                           BOV      BPL
000949: 12,2574           24600                                    MODNGDEL
000950: 12,2575           24600                                    MODNGDEL
000951: 12,2576           77650                           GOTO
000952: 12,2577           24632                                    DELOK
000953:
000954: 12,2600           45345        MODNGDEL           DLOAD    DSU                                   #  TRIAL DELINDEP WOULD EXCEED MIN BOUND
000955: 12,2601           00011                                    MIN
000956: 12,2602           02766                                    INDEP
000957: 12,2603           52005                           DMP      GOTO
000958: 12,2604           11051                                    DP9/10
000959: 12,2605           24634                                    NEWDEL
000960:
000961: 12,2606           41345        FIRSTIME           DLOAD    DMP
000962: 12,2607           00011                                    MIN
000963: 12,2610           00051                                    TWEEKIT                               #  DLOAD TWEEKIT(40D) SENSITIVE TO CHANGE.
000964: 12,2611           41325                           PDDL     DMP                                   #  S2(41D) SHOULDNT CONTAIN HI ORDER ONES


000966: 12,2612           00017                                    MAX
000967: 12,2613           00051                                    TWEEKIT
000968: 12,2614           77625                           DSU
000969: 12,2615           52165                           SIGN     GOTO
000970: 12,2616           02760                                    DELDEP
000971: 12,2617           24562                                    SGNCHECK
000972:
000973: 12,2620           43145        POSDEL             DLOAD    BON
000974: 12,2621           02766                                    INDEP
000975: 12,2622           04311                                    ORDERSW
000976: 12,2623           24625                                    MAXCHECK
000977: 12,2624           00011                           STORE    MIN                                   #  IF NOT 2ND ORDER, CAN MOVE MIN BOUND IN.
000978:
000979: 12,2625           45221        MAXCHECK           BDSU     DSU
000980: 12,2626           00017                                    MAX
000981: 12,2627           50000                           BOV      BMN
000982: 12,2630           24636                                    MODPSDEL
000983: 12,2631           24636                                    MODPSDEL
000984: 12,2632           77745        DELOK              DLOAD
000985: 12,2633           00001                                    0D
000986: 12,2634           00015        NEWDEL             STORE    DELINDEP
000987: 12,2635           77616                           RVQ
000988:
000989: 12,2636           45345        MODPSDEL           DLOAD    DSU
000990: 12,2637           00017                                    MAX
000991: 12,2640           02766                                    INDEP
000992: 12,2641           52005                           DMP      GOTO
000993: 12,2642           11051                                    DP9/10
000994: 12,2643           24634                                    NEWDEL
000995:
000996: 12,2644           44753        CHECKCTR           CS       ONE
000997: 12,2645           50120                           INDEX    FIXLOC
000998: 12,2646           60026                           AD       ITERCTR
000999: 12,2647           50120                           INDEX    FIXLOC
001000: 12,2650           54026                           TS       ITERCTR
001001: 12,2651           54154                           TS       MPAC
001002: 12,2652           06061                           TC       DANZIG
001003:


001005: 12,2653           44545        NEWSTATE           DLOAD    SR4R
001006: 12,2654           00041                                    R1
001007: 12,2655           74225                           DSU      VXSC
001008: 12,2656           00035                                    XSQC(XI)
001009: 12,2657           02722                                    UR1
001010: 12,2660           65372                           VSL1     PDDL                                  #  0D=(R1-XSQC(XI))UR1 (+33 OR 31) PL AT 6
001011: 12,2661           00025                                    X
001012: 12,2662           60316                           DSQ      NORM
001013: 12,2663           00047                                    X1
001014: 12,2664           57275                           DMPR     DMPR
001015: 12,2665           00023                                    1/ROOTMU
001016: 12,2666           00025                                    X
001017: 12,2667           53605                           DMP      SRR*
001018: 12,2670           00033                                    S(XI)
001019: 12,2671           21572                                    0          -7,1
001020: 12,2672           77621                           BDSU
001021: 12,2673           00037                                    T
001022: 12,2674           74352                           SL1      VXSC
001023: 12,2675           02744                                    VVEC
001024: 12,2676           53372                           VSL1     VAD                                   #                                PL AT 0
001025: 12,2677           41512                           VSL4     PUSH
001026: 12,2700           77646                           ABVAL
001027: 12,2701           77701        LAMENTER           NORM
001028: 12,2702           00047                                    X1
001029: 12,2703           16720                           STODL    R2
001030: 12,2704           00031                                    XI
001031: 12,2705           45205                           DMP      DSU
001032: 12,2706           00033                                    S(XI)
001033: 12,2707           11033                                    D1/128
001034: 12,2710           76405                           DMP      SL1R
001035: 12,2711           00021                                    ROOTMU
001036: 12,2712           53605                           DMP      SLR*
001037: 12,2713           00025                                    X
001038: 12,2714           21176                                    0          -3,1
001039: 12,2715           74271                           DDV      VXSC
001040: 12,2716           02720                                    R2
001041: 12,2717           02722                                    UR1
001042: 12,2720           65372                           VSL1     PDDL                                  #  6D=V2VEC PART (+15 OR 13)     PL AT 12
001043: 12,2721           00035                                    XSQC(XI)
001044: 12,2722           56257                           SLR*     DDV
001045: 12,2723           21175                                    0          -4,1
001046: 12,2724           02720                                    R2
001047: 12,2725           77621                           BDSU
001048: 12,2726           11047                                    D1/256
001049: 12,2727           53361                           VXSC     VAD                                   #                                PL AT 6
001050: 12,2730           02744                                    VVEC
001051: 12,2731           43412                           VSL8     RVQ
001052:


001054: 04,2000                                           SETLOC   CONICS1
001055: 04,2000                                           BANK
001056:
001057: 04,3027                                           COUNT*   $$/CONIC
001058:                                                                                                  #  DO NOT DISTURB THE ORDER OF THESE CDS, OVERLAYS HAVE BEEN MADE.
001059: 04,3027           00000        BEE17              DEC      0          B-14                       #  KEEP WITH D1/8 2DEC 1.0B-17 (0000004000)
001060: 04,3030           04000 00000  D1/8               2DEC     1.0        B-3
001061: 04,3032           00200 00000  D1/128             2DEC     1.0        B-7
001062: 04,3034           00400 00000  D1/64              2DEC     1.0        B-6
001063: 04,3036           10000 00000  D1/4               2DEC     1.0        B-2
001064: 04,3040           02000 00000  D1/16              2DEC     1.0        B-4
001065: 04,3042           01000 00000  D1/32              2DEC     1.0        B-5
001066: 04,3044           00020 00000  D1/1024            2DEC     1.0        B-10
001067: 04,3046           00100 00000  D1/256             2DEC     1.0        B-8
001068: 04,3050           34631 23146  DP9/10             2DEC     .9
001069: 04,3052  12,2006               KEPZERO            EQUALS   LO6ZEROS
001070: 04,3052           77467 77777  -50SC              2DEC     -50.0      B-12
001071: 04,3054           03110 17665  2PISC              2DEC     6.28318530 B-6
001072: 04,3056  04,3041               BEE19              EQUALS   D1/32      -1                         #  2DEC 1.0 B-19 (00000 01000)
001073: 04,3056  04,3045               BEE22              EQUALS   D1/256     -1                         #  2DEC 1.0 B-22 (00000 00100)
001074: 04,3056           00000 00001  ONEBIT             2DEC     1.0        B-28
001075: 04,3060           37767 37737  COGUPLIM           2DEC     .999511597
001076: 04,3062           40010 40040  COGLOLIM           2DEC     -.999511597
001077:


001079: 12,2000                                           SETLOC   CONICS
001080: 12,2000                                           BANK
001081:
001082: 12,2732                                           COUNT*   $$/CONIC
001083: 12,2732           40220        TIMETHET           STQ      SETPD                                 #                                PL AT 0
001084: 12,2733           02710                                    RTNTT
001085: 12,2734           00001                                    0
001086: 12,2735           77600                           BOV
001087: 12,2736           24737                                    +1
001088: 12,2737           63375                           VLOAD    PDVL                                  #  SETUP FOR PARAM CALL          PL AT 6
001089: 12,2740           02655                                    RVEC
001090: 12,2741           02744                                    VVEC
001091: 12,2742           77624                           CALL
001092: 12,2743           11064                                    PARAM
001093: 12,2744           45000                           BOV      CALL                                  #                                PL AT 0
001094: 12,2745           24764                                    COGAOVFL
001095: 12,2746           24767                                    GETX
001096: 12,2747           43145        COMMNOUT           DLOAD    BON
001097: 12,2750           00031                                    XI
001098: 12,2751           04310                                    INFINFLG
001099: 12,2752           25742                                    ABTCONIC
001100: 12,2753           45014                           CLEAR    CALL
001101: 12,2754           04273                                    COGAFLAG
001102: 12,2755           24421                                    DELTIME
001103: 12,2756           45014                           BON      CALL
001104: 12,2757           03706                                    RVSW
001105: 12,2760           02710                                    RTNTT
001106: 12,2761           24653                                    NEWSTATE
001107: 12,2762           77650                           GOTO
001108: 12,2763           02710                                    RTNTT
001109:
001110: 12,2764           77614        COGAOVFL           SETGO
001111: 12,2765           04033                                    COGAFLAG
001112: 12,2766           25742                                    ABTCONIC
001113:
001114: 04,3064                                           BANK     4
001115: 04,2000                                           SETLOC   CONICS1
001116: 04,2000                                           BANK
001117: 04,3064                                           COUNT*   $$/CONIC
001118: 04,3064           43020        PARAM              STQ      CLEAR                                 #  MPAC=V1VEC, 0D=R1VEC          PL AT 6
001119: 04,3065           02753                                    RTNPRM
001120: 04,3066           03665                                    NORMSW
001121: 04,3067           77614                           CLEAR
001122: 04,3070           04273                                    COGAFLAG
001123: 04,3071           45131                           SSP      CALL
001124: 04,3072           02673                                    GEOMSGN
001125: 04,3073           27777                                    37777                                 #  GAMMA ALWAYS LESS THAN 180DEG
001126: 04,3074           11130                                    GEOM                                  #  MPAC=SNGA (+1), 0D=CSGA (+1)  PL AT 2
001127: 04,3075           14045                           STODL    36D                                   #  36D=SIN GAMMA (+1)            PL AT 0
001128: 04,3076           56261                           SR       DDV


001130: 04,3077           20606                                    5
001131: 04,3100           00045                                    36D
001132: 04,3101           32766                           STOVL*   COGA
001133: 04,3102           10005                                    MUTABLE,1
001134: 04,3103           14017                           STODL    1/MU
001135: 04,3104           02720                                    MAGVEC2
001136: 04,3105           60316                           DSQ      NORM
001137: 04,3106           00047                                    X1
001138: 04,3107           41275                           DMPR     DMP
001139: 04,3110           00017                                    1/MU
001140: 04,3111           00041                                    R1
001141: 04,3112           77657                           SRR*
001142: 04,3113           21576                                    0          -3,1
001143: 04,3114           44206                           PUSH     BDSU                                  #  0D=R1 V1SQ/MU (+6)            PL AT 2
001144: 04,3115           11043                                    D1/32
001145: 04,3116           16742                           STODL    R1A                                   #  R1A (+6)                      PL AT 0
001146:
001147: 04,3117           60205                           DMP      NORM
001148: 04,3120           00045                                    36D
001149: 04,3121           00047                                    X1
001150: 04,3122           53605                           DMP      SR*
001151: 04,3123           00045                                    36D
001152: 04,3124           20575                                    0          -4,1
001153: 04,3125           02740                           STORE    P                                     #  P (+4)
001154: 04,3126           77650                           GOTO
001155: 04,3127           02753                                    RTNPRM
001156:


001158: 04,3130           77656        GEOM               UNIT                                           #  MPAC=V2VEC, 0D=R1VEC          PL AT 6
001159: 04,3131           16712                           STODL    U2                                    #  U2 (+1)
001160: 04,3132           00045                                    36D
001161: 04,3133           26720                           STOVL    MAGVEC2                               #                                PL AT 0
001162: 04,3134           77656                           UNIT
001163: 04,3135           02722                           STORE    UR1                                   #  UR1 (+1)
001164: 04,3136           72441                           DOT      SL1
001165: 04,3137           02712                                    U2
001166: 04,3140           77725                           PDDL                                           #  OD=CSTH (+1)                  PL AT 2
001167: 04,3141           00045                                    36D
001168: 04,3142           24041                           STOVL    R1                                    #  R1 (+29 OR +27)
001169: 04,3143           02722                                    UR1
001170: 04,3144           76435                           VXV      VSL1
001171: 04,3145           02712                                    U2
001172: 04,3146           75214                           BON      SIGN
001173: 04,3147           03705                                    NORMSW
001174: 04,3150           11162                                    HAVENORM
001175: 04,3151           02673                                    GEOMSGN
001176: 04,3152           40056                           UNIT     BOV
001177: 04,3153           11160                                    COLINEAR
001178: 04,3154           16674        UNITNORM           STODL    UN                                    #  UN (+1)
001179: 04,3155           00045                                    36D
001180: 04,3156           43565                           SIGN     RVQ                                   #  MPAC=SNTH (+1), 34D=SNTH.SNTH (+2)
001181: 04,3157           02673                                    GEOMSGN
001182:
001183: 04,3160           52162        COLINEAR           VSR1     GOTO
001184: 04,3161           11154                                    UNITNORM
001185:
001186: 04,3162           75246        HAVENORM           ABVAL    SIGN
001187: 04,3163           02673                                    GEOMSGN
001188: 04,3164           77616                           RVQ                                            #  MPAC=SNTH (+1), 34D=SNTH.SNTH (+2)
001189:


001191: 12,2767                                           BANK     12
001192: 12,2000                                           SETLOC   CONICS
001193: 12,2000                                           BANK
001194:
001195: 12,2767                                           COUNT*   $$/CONIC
001196: 12,2767           66374        GETX               AXT,2    SSP                                   #  ASSUMES P (+4) IN MPAC
001197: 12,2770           00003                                    3
001198: 12,2771           00052                                    S2
001199: 12,2772           00001                                    1
001200: 12,2773           77614                           CLEAR
001201: 12,2774           04276                                    360SW
001202: 12,2775           65366                           SQRT     PDDL                                  #  0D=SQRT(P)                    PL AT 2
001203: 12,2776           02732                                    CSTH
001204: 12,2777           44342                           SR1      BDSU
001205: 12,3000           11037                                    D1/4
001206: 12,3001           54325                           PDDL     SRR                                   #                                PL AT 4D
001207: 12,3002           02730                                    SNTH
001208: 12,3003           21607                                    6
001209: 12,3004           77671                           DDV                                            #                                PL AT 2
001210: 12,3005           77600                           BOV
001211: 12,3006           25122                                    360CHECK
001212: 12,3007           41225                           DSU      DMP
001213: 12,3010           02766                                    COGA                                  #                                PL AT 0
001214: 12,3011           40132                           SL2R     BOV
001215: 12,3012           25122                                    360CHECK
001216: 12,3013           63406        WLOOP              PUSH     DSQ                                   #  0D=W (+5)                     PL AT 2
001217: 12,3014           65351                           TLOAD    PDDL                                  #  2D=WSQ (+10)                  PL AT 5
001218: 12,3015           00155                                    MPAC
001219: 12,3016           02742                                    R1A
001220: 12,3017           76202                           SR4      TAD                                   #                                PL AT 2
001221: 12,3020           75440                           BMN      SQRT
001222: 12,3021           25205                                    INFINITY
001223: 12,3022           43306                           ROUND    DAD                                   #                                PL AT 0D
001224: 12,3023           61000                           BOV      TIX,2
001225: 12,3024           25120                                    RESETX2
001226: 12,3025           25013                                    WLOOP
001227:
001228: 12,3026           40065                           BDDV     BOV
001229: 12,3027           11033                                    D1/128
001230: 12,3030           25205                                    INFINITY
001231: 12,3031           41440        POLYCOEF           BMN      PUSH                                  #  0D=1/W (+2) OR 16/W (+6)      PL AT 2
001232: 12,3032           25205                                    INFINITY
001233: 12,3033           77716                           DSQ
001234: 12,3034           41301                           NORM     DMP
001235: 12,3035           00047                                    X1
001236: 12,3036           02742                                    R1A
001237: 12,3037           77457                           SRR*     EXIT
001238: 12,3040           21567                                    0          -10D,1
001239: 12,3041           07222                           TC       POLY


001241: 12,3042           00005                           DEC      5          B-14
001242: 12,3043           20000 00000                     2DEC     .5
001243: 12,3045           72525 52471                     2DEC     -.166666770
001244: 12,3047           03146 15003                     2DEC     .100000392
001245: 12,3051           75556 45210                     2DEC     -.071401086
001246: 12,3053           01615 13553                     2DEC     .055503292
001247: 12,3055           76371 63777                     2DEC     -.047264098
001248: 12,3057           01232 27367                     2DEC     .040694204
001249:
001250: 12,3061           06037                           TC       INTPRET
001251: 12,3062           76405                           DMP      SL1R                                  #                                PL AT 0D
001252: 12,3063           43006                           PUSH     BON
001253: 12,3064           04316                                    360SW
001254: 12,3065           25172                                    TRUE360X
001255: 12,3066           60316        XCOMMON            DSQ      NORM
001256: 12,3067           00047                                    X1
001257: 12,3070           53605                           DMP      SRR*
001258: 12,3071           02742                                    R1A
001259: 12,3072           21565                                    0          -12D,1
001260: 12,3073           14031                           STODL    XI                                    #  XI (+6)
001261: 12,3074           00041                                    R1
001262: 12,3075           75542                           SR1      SQRT
001263: 12,3076           41306                           ROUND    DMP
001264: 12,3077           77632                           SL4R                                           #                                PL AT 0
001265: 12,3100           00025                           STORE    X                                     #  X (+17 OR +16)
001266:
001267: 12,3101           60316                           DSQ      NORM
001268: 12,3102           00047                                    X1
001269: 12,3103           41325                           PDDL     DMP                                   #  0D=XSQ (+34 OR +32 -N1)       PL AT 2
001270: 12,3104           02740                                    P
001271: 12,3105           00041                                    R1
001272: 12,3106           75452                           SL3      SQRT
001273: 12,3107           56405                           DMP      SL3R
001274: 12,3110           02766                                    COGA
001275: 12,3111           14043                           STODL    KEPC1
001276: 12,3112           02742                                    R1A
001277: 12,3113           43021                           BDSU     CLEAR
001278: 12,3114           11035                                    D1/64
001279: 12,3115           04270                                    INFINFLG
001280: 12,3116           00045                           STORE    KEPC2
001281: 12,3117           77616                           RVQ
001282:


001284: 12,3120           77774        RESETX2            AXT,2
001285: 12,3121           00003                                    3
001286:
001287: 12,3122           51001        360CHECK           SETPD    BPL
001288: 12,3123           00001                                    0D
001289: 12,3124           25127                                    INVRSEQN
001290: 12,3125           77614                           SET
001291: 12,3126           04076                                    360SW
001292:
001293: 12,3127           75545        INVRSEQN           DLOAD    SQRT
001294: 12,3130           02740                                    P
001295: 12,3131           41325                           PDDL     DMP                                   #  0D=SQRT(P) (+2)               PL AT 2
001296: 12,3132           02730                                    SNTH
001297: 12,3133           02766                                    COGA
001298: 12,3134           65352                           SL1      PDDL                                  #  2D=SNTH COGA (+5)             PL AT 4
001299: 12,3135           02732                                    CSTH
001300: 12,3136           43202                           SR4      DAD
001301: 12,3137           11043                                    D1/32
001302: 12,3140           41225                           DSU      DMP                                   #                                PL AT 2,0
001303: 12,3141           55301                           NORM     BDDV
001304: 12,3142           00047                                    X1
001305: 12,3143           02730                                    SNTH
001306: 12,3144           51457                           SLR*     ABS                                   #  NOTE: NEAR 360 CASE TREATED DIFFERENTLY
001307: 12,3145           21174                                    0          -5,1
001308: 12,3146           63406                           PUSH     DSQ                                   #  0D=1/W (-1)                   PL AT 2
001309: 12,3147           14043                           STODL    34D
001310: 12,3150           11041                                    D1/16
001311: 12,3151           63406        1/WLOOP            PUSH     DSQ                                   #  2D=G (+4)                     PL AT 4
001312: 12,3152           65234                           RTB      PDDL                                  #                                PL AT 7
001313: 12,3153           21633                                    TPMODE
001314: 12,3154           02742                                    R1A
001315: 12,3155           40405                           DMP      SR4
001316: 12,3156           00043                                    34D
001317: 12,3157           77771                           TAD                                            #                                PL AT 4
001318: 12,3160           75440                           BMN      SQRT
001319: 12,3161           25205                                    INFINITY
001320: 12,3162           77615                           DAD                                            #                                PL AT 2
001321: 12,3163           60304                           TIX,2    NORM
001322: 12,3164           25151                                    1/WLOOP
001323: 12,3165           00047                                    X1
001324: 12,3166           77665                           BDDV
001325: 12,3167           52057                           SLR*     GOTO                                  #                                PL AT 0
001326: 12,3170           21172                                    0          -7,1
001327: 12,3171           25031                                    POLYCOEF
001328:
001329: 12,3172           50145        TRUE360X           DLOAD    BMN
001330: 12,3173           02742                                    R1A


001332: 12,3174           25205                                    INFINITY
001333: 12,3175           60366                           SQRT     NORM
001334: 12,3176           00047                                    X1
001335: 12,3177           53665                           BDDV     SL*
001336: 12,3200           11055                                    2PISC
001337: 12,3201           20176                                    0          -3,1
001338: 12,3202           41425                           DSU      PUSH                                  #  0D=2PI/SQRT(R1A) -X           PL AT 0,2
001339: 12,3203           77650                           GOTO
001340: 12,3204           25066                                    XCOMMON
001341: 12,3205           40001        INFINITY           SETPD    BOV                                   #  NO SOLUTION EXISTS SINCE CLOSURE THROUGH
001342: 12,3206           00001                                    0                                     #  INFINITY IS REQUIRED
001343: 12,3207           25210                                    OVFLCLR
001344: 12,3210           43414        OVFLCLR            SET      RVQ
001345: 12,3211           04070                                    INFINFLG
001346:


001348: 12,3212           40220        LAMBERT            STQ      SETPD
001349: 12,3213           02710                                    RTNLAMB
001350: 12,3214           00001                                    0D
001351: 12,3215           77600                           BOV
001352: 12,3216           25217                                    +1
001353: 12,3217           76614                           CLEAR    VLOAD*
001354: 12,3220           02674                                    SOLNSW
001355: 12,3221           10005                                    MUTABLE,1
001356: 12,3222           14017                           STODL    1/MU
001357: 12,3223           02671                                    TDESIRED
001358: 12,3224           77675                           DMPR
001359: 12,3225           11042                                    BEE19
001360: 12,3226           02764                           STORE    EPSILONL
001361: 12,3227           77214                           SET      VLOAD
001362: 12,3230           00474                                    SLOPESW
001363: 12,3231           02655                                    R1VEC
001364: 12,3232           45115                           PDVL     CALL                                  #  0D=R1VEC (+29 OR +27)         PL AT 6
001365: 12,3233           02663                                    R2VEC                                 #  MPAC=R2VEC (+29 OR +27)
001366: 12,3234           11130                                    GEOM
001367: 12,3235           16730                           STODL    SNTH                                  #  0D=CSTH (+1)                  PL AT 2
001368: 12,3236           02720                                    MAGVEC2
001369: 12,3237           65301                           NORM     PDDL                                  #                                PL AT 4
001370: 12,3240           00047                                    X1
001371: 12,3241           00041                                    R1
001372: 12,3242           56342                           SR1      DDV                                   #                                PL AT 2
001373: 12,3243           65257                           SL*      PDDL                                  #  DXCH WITH 0D, 0D=R1/R2 (+7)   PL AT 0,2
001374: 12,3244           20173                                    0          -6,1
001375: 12,3245           77626                           STADR
001376: 12,3246           75045                           STORE    CSTH                                  #  CSTH (+1)
001377: 12,3247           44342                           SR1      BDSU
001378: 12,3250           11037                                    D1/4
001379: 12,3251           02734                           STORE    1-CSTH                                #  1-CSTH (+2)
001380:
001381: 12,3252           53106                           ROUND    BZE
001382: 12,3253           25463                                    360LAMB
001383: 12,3254           65301                           NORM     PDDL                                  #                                PL AT 4
001384: 12,3255           00047                                    X1
001385: 12,3256           00001                                    0D
001386: 12,3257           56342                           SR1      DDV                                   #                                PL AT 2
001387: 12,3260           75457                           SL*      SQRT
001388: 12,3261           20176                                    0          -3,1
001389: 12,3262           54325                           PDDL     SR                                    #  2D=SQRT(2R1/R2(1-CSTH)) (+5)  PL AT 4
001390: 12,3263           02730                                    SNTH
001391: 12,3264           20607                                    6
001392: 12,3265           43271                           DDV      DAD                                   #                                PL AT 2
001393: 12,3266           02734                                    1-CSTH
001394: 12,3267           77626                           STADR
001395: 12,3270           77760                           STORE    COGAMAX
001396: 12,3271           50000                           BOV      BMN                                   #  IF OVFL, COGAMAX=COGUPLIM
001397: 12,3272           25277                                    UPLIM                                 #  IF NEG, USE EVEN IF LT COGLOLIM, SINCE


001399: 12,3273           25302                                    MAXCOGA                               #        THIS WOULD BE RESET IN LAMBLOOP
001400: 12,3274           50025                           DSU      BMN                                   #  IF COGAMAX GT COGUPLIM, COGAMAX=COGUPLIM
001401: 12,3275           11061                                    COGUPLIM
001402: 12,3276           25302                                    MAXCOGA                               #  OTHERWISE OK, SO GO TO MAXCOGA
001403: 12,3277           77745        UPLIM              DLOAD
001404: 12,3300           11061                                    COGUPLIM                              #  COGUPLIM=.999511597 = MAX VALUE OF COGA
001405: 12,3301           00017                           STORE    COGAMAX                               #        NOT CAUSING OVFL IN R1A CALCULATION
001406: 12,3302           77745        MAXCOGA            DLOAD
001407: 12,3303           02732                                    CSTH
001408: 12,3304           45261                           SR       DSU                                   #                                PL AT 0
001409: 12,3305           20607                                    6
001410: 12,3306           77626                           STADR
001411: 12,3307           61041                           STODL    CSTH-RHO
001412: 12,3310           02673                                    GEOMSGN
001413: 12,3311           71240                           BMN      DLOAD
001414: 12,3312           25503                                    LOLIM
001415: 12,3313           02736                                    CSTH-RHO
001416: 12,3314           56352                           SL1      DDV
001417: 12,3315           02730                                    SNTH
001418: 12,3316           77600                           BOV
001419: 12,3317           25503                                    LOLIM
001420: 12,3320           00011        MINCOGA            STORE    COGAMIN                               #  COGAMIN (+5)
001421: 12,3321           66214                           BON      SSP
001422: 12,3322           00715                                    GUESSW
001423: 12,3323           25467                                    NOGUESS
001424: 12,3324           00051                                    TWEEKIT
001425: 12,3325           00001                                    00001
001426: 12,3326           77745                           DLOAD
001427: 12,3327           02766                                    COGA
001428:
001429: 12,3330           77605        LAMBLOOP           DMP
001430: 12,3331           02730                                    SNTH
001431: 12,3332           45342                           SR1      DSU
001432: 12,3333           02736                                    CSTH-RHO
001433: 12,3334           65301                           NORM     PDDL                                  #  0D=SNTH COGA-(CSTH-RHO) (+7+C(X1)) PL=2
001434: 12,3335           00047                                    X1
001435: 12,3336           02734                                    1-CSTH
001436: 12,3337           56257                           SL*      DDV                                   #  1-CSTH (+2)                   PL AT 0
001437: 12,3340           20170                                    0          -9D,1
001438: 12,3341           53040                           BMN      BZE
001439: 12,3342           25417                                    NEGP
001440: 12,3343           25417                                    NEGP
001441: 12,3344           16740                           STODL    P                                     #  P=(1-CSTH)/(SNTH COGA-(CSTH-RHO)) (+4)
001442: 12,3345           02766                                    COGA
001443: 12,3346           43316                           DSQ      DAD
001444: 12,3347           11045                                    D1/1024
001445: 12,3350           41301                           NORM     DMP
001446: 12,3351           00047                                    X1
001447: 12,3352           02740                                    P


001449: 12,3353           44257                           SR*      BDSU
001450: 12,3354           20571                                    0          -8D,1
001451: 12,3355           11043                                    D1/32
001452: 12,3356           16742                           STODL    R1A                                   #  R1A=2-P(1+COGA COGA) (+6)
001453: 12,3357           02740                                    P
001454: 12,3360           45000                           BOV      CALL
001455: 12,3361           25422                                    HIENERGY
001456: 12,3362           24767                                    GETX
001457: 12,3363           77745                           DLOAD
001458: 12,3364           00037                                    T
001459: 12,3365           16762                           STODL    TPREV
001460: 12,3366           00031                                    XI
001461: 12,3367           45014                           BON      CALL
001462: 12,3370           04310                                    INFINFLG
001463: 12,3371           25417                                    NEGP                                  #  HAVE EXCEEDED THEORETICAL BOUNDS
001464: 12,3372           24421                                    DELTIME
001465: 12,3373           44200                           BOV      BDSU
001466: 12,3374           25437                                    BIGTIME
001467: 12,3375           02671                                    TDESIRED
001468: 12,3376           02760                           STORE    TERRLAMB
001469: 12,3377           44246                           ABS      BDSU
001470: 12,3400           02764                                    EPSILONL
001471: 12,3401           47044                           BPL      RTB
001472: 12,3402           25506                                    INITV
001473: 12,3403           24644                                    CHECKCTR
001474: 12,3404           45030                           BHIZ     CALL
001475: 12,3405           25450                                    SUFFCHEK
001476: 12,3406           24536                                    ITERATOR
001477: 12,3407           53145                           DLOAD    BZE
001478: 12,3410           00155                                    MPAC
001479: 12,3411           25450                                    SUFFCHEK
001480: 12,3412           77615                           DAD
001481: 12,3413           02766                                    COGA
001482: 12,3414           02766                           STORE    COGA
001483: 12,3415           77650                           GOTO
001484: 12,3416           25330                                    LAMBLOOP
001485:
001486: 12,3417           51145        NEGP               DLOAD    BPL                                   #  IMPOSSIBLE TRAJECTORY DUE TO INACCURATE
001487: 12,3420           00015                                    DCOGA                                 #  BOUND CALCULATION. TRY NEW COGA.
001488: 12,3421           25442                                    LOENERGY
001489:
001490: 12,3422           71201        HIENERGY           SETPD    DLOAD                                 #  HIGH ENERGY TRAJECTORY RESULTED
001491: 12,3423           00001                                    0
001492: 12,3424           02766                                    COGA                                  #  IN OVFL OF P OR R1A, OR XI EXCEEDING 50.
001493: 12,3425           00011                           STORE    COGAMIN                               #  THIS IS THE NEW BOUND.
001494: 12,3426           70545        COMMONLM           DLOAD    SR1
001495: 12,3427           00015                                    DCOGA


001497: 12,3430           00015                           STORE    DCOGA                                 #  USE DCOGA/2 AS DECREMENT
001498: 12,3431           44254                           BZE      BDSU
001499: 12,3432           25450                                    SUFFCHEK
001500: 12,3433           02766                                    COGA
001501: 12,3434           02766                           STORE    COGA
001502: 12,3435           77650                           GOTO                                           #  RESTART THIS LOOP
001503: 12,3436           25330                                    LAMBLOOP
001504:
001505: 12,3437           77745        BIGTIME            DLOAD
001506: 12,3440           02762                                    TPREV
001507: 12,3441           00037                           STORE    T
001508:
001509: 12,3442           71201        LOENERGY           SETPD    DLOAD                                 #  LOW ENERGY TRAJECTORY RESULTED
001510: 12,3443           00001                                    0
001511: 12,3444           02766                                    COGA                                  #  IN OVERFLOW OF TIME.
001512: 12,3445           00017                           STORE    COGAMAX                               #  THIS IS THE NEW BOUND.
001513: 12,3446           77650                           GOTO
001514: 12,3447           25426                                    COMMONLM
001515:
001516: 12,3450           51545        SUFFCHEK           DLOAD    ABS
001517: 12,3451           02760                                    TERRLAMB
001518: 12,3452           41325                           PDDL     DMP                                   #                                PL AT 2D
001519: 12,3453           02671                                    TDESIRED
001520: 12,3454           11030                                    BEE17
001521: 12,3455           45215                           DAD      DSU                                   #                                PL AT 0D
001522: 12,3456           11057                                    ONEBIT
001523: 12,3457           43044                           BPL      SETGO
001524: 12,3460           25506                                    INITV
001525: 12,3461           02434                                    SOLNSW
001526: 12,3462           25506                                    INITV
001527: 12,3463           43001        360LAMB            SETPD    SETGO                                 #  LAMBERT CANNOT HANDLE CSTH=1
001528: 12,3464           00001                                    0
001529: 12,3465           02434                                    SOLNSW
001530: 12,3466           02710                                    RTNLAMB
001531:
001532: 12,3467           71331        NOGUESS            SSP      DLOAD
001533: 12,3470           00051                                    TWEEKIT
001534: 12,3471           10000                                    20000
001535: 12,3472           00011                                    COGAMIN
001536: 12,3473           65342                           SR1      PDDL                                  #                                PL AT 2
001537: 12,3474           00017                                    COGAMAX
001538: 12,3475           43342                           SR1      DAD
001539: 12,3476           77626                           STADR                                          #                                PL AT 0
001540: 12,3477           75011                           STORE    COGA
001541: 12,3500           00015                           STORE    DCOGA
001542: 12,3501           77650                           GOTO


001544: 12,3502           25330                                    LAMBLOOP
001545:
001546: 12,3503           52145        LOLIM              DLOAD    GOTO
001547: 12,3504           11063                                    COGLOLIM                              #  COGLOLIM=-.999511597
001548: 12,3505           25320                                    MINCOGA
001549:
001550: 12,3506           60345        INITV              DLOAD    NORM
001551: 12,3507           00041                                    R1
001552: 12,3510           00047                                    X1
001553: 12,3511           70525                           PDDL     SR1                                   #                                PL AT 2
001554: 12,3512           02740                                    P
001555: 12,3513           77671                           DDV                                            #                                PL AT 0
001556: 12,3514           75457                           SL*      SQRT
001557: 12,3515           20175                                    0          -4,1
001558: 12,3516           72405                           DMP      SL1
001559: 12,3517           00021                                    ROOTMU
001560: 12,3520           41206                           PUSH     DMP                                   #  0D=VTAN (+7)                  PL AT 2
001561: 12,3521           02766                                    COGA
001562: 12,3522           74261                           SL       VXSC
001563: 12,3523           20206                                    5
001564: 12,3524           02722                                    UR1
001565: 12,3525           77725                           PDDL                                           #  XCH WITH 0D                   PL AT 0,6
001566: 12,3526           76561                           VXSC     VSL1
001567: 12,3527           02674                                    UN
001568: 12,3530           53235                           VXV      VAD                                   #                                PL AT 0
001569: 12,3531           02722                                    UR1
001570: 12,3532           77772                           VSL1
001571: 12,3533           02744                           STORE    VVEC
001572: 12,3534           53135                           SLOAD    BZE
001573: 12,3535           02702                                    VTARGTAG
001574: 12,3536           25541                                    TARGETV
001575: 12,3537           77650                           GOTO
001576: 12,3540           02710                                    RTNLAMB
001577:
001578: 12,3541           45145        TARGETV            DLOAD    CALL
001579: 12,3542           02720                                    MAGVEC2
001580: 12,3543           24701                                    LAMENTER
001581: 12,3544           02703                           STORE    VTARGET
001582: 12,3545           77650                           GOTO
001583: 12,3546           02710                                    RTNLAMB
001584:


001586: 12,3547           40220        TIMERAD            STQ      SETPD                                 #                                PL AT 0
001587: 12,3550           02710                                    RTNTR
001588: 12,3551           00001                                    0
001589: 12,3552           77600                           BOV
001590: 12,3553           25554                                    +1
001591: 12,3554           63375                           VLOAD    PDVL                                  #                                PL AT 6
001592: 12,3555           02655                                    RVEC
001593: 12,3556           02744                                    VVEC
001594: 12,3557           77624                           CALL
001595: 12,3560           11064                                    PARAM
001596: 12,3561           71200                           BOV      DLOAD                                 #                                PL AT 0
001597: 12,3562           24764                                    COGAOVFL
001598: 12,3563           11043                                    D1/32
001599: 12,3564           41225                           DSU      DMP
001600: 12,3565           02742                                    R1A
001601: 12,3566           02740                                    P
001602: 12,3567           41366                           SQRT     DMP
001603: 12,3570           02766                                    COGA
001604: 12,3571           74212                           SL4      VXSC
001605: 12,3572           02712                                    U2
001606: 12,3573           45325                           PDDL     DSU                                   #                                PL AT 6
001607: 12,3574           11035                                    D1/64
001608: 12,3575           02742                                    R1A
001609: 12,3576           52361                           VXSC     VSU                                   #                                PL AT 0
001610: 12,3577           02722                                    UR1
001611: 12,3600           53512                           VSL4     UNIT
001612: 12,3601           77600                           BOV
001613: 12,3602           25660                                    CIRCULAR
001614: 12,3603           60325                           PDDL     NORM                                  #  0D=UNIT(ECC) (+3)             PL AT 6
001615: 12,3604           02756                                    RDESIRED                              #  36D=ECC (+3)
001616: 12,3605           00047                                    X1
001617: 12,3606           41325                           PDDL     DMP                                   #                                PL AT 8
001618: 12,3607           00041                                    R1
001619: 12,3610           02740                                    P
001620: 12,3611           56257                           SL*      DDV                                   #                                PL AT 6
001621: 12,3612           20201                                    0,1
001622: 12,3613           56225                           DSU      DDV
001623: 12,3614           11041                                    D1/16
001624: 12,3615           00045                                    36D                                   #  36D=ECC (+3)
001625: 12,3616           00031                           STORE    COSF
001626: 12,3617           63400                           BOV      DSQ
001627: 12,3620           25664                                    BADR2
001628: 12,3621           50021                           BDSU     BMN
001629: 12,3622           11037                                    D1/4
001630: 12,3623           25664                                    BADR2
001631: 12,3624           75366                           SQRT     SIGN
001632: 12,3625           02755                                    SGNRDOT
001633: 12,3626           77614                           CLEAR
001634: 12,3627           04272                                    APSESW


001636: 12,3630           76561        TERMNVEC           VXSC     VSL1
001637: 12,3631           02674                                    UN
001638: 12,3632           63235                           VXV      PDVL                                  #  VXCH WITH 0D                  PL AT 0,6
001639: 12,3633           00001                                    0D
001640: 12,3634           53361                           VXSC     VAD                                   #                                PL AT 0
001641: 12,3635           00031                                    COSF
001642: 12,3636           41572                           VSL1     PUSH                                  #  0D=U2                         PL AT 6
001643:
001644: 12,3637           56241                           DOT      DDV                                   #  LIMITS RESULT TO POSMAX OR NEGMAX
001645: 12,3640           02722                                    UR1
001646: 12,3641           25756                                    DP1/4
001647: 12,3642           40142                           SR1      BOV                                   #  SCALE BACK DOWN TO NORMAL
001648: 12,3643           25644                                    +1                                    #  CLEAR OVFIND IF SET
001649: 12,3644           26732                           STOVL    CSTH                                  #  CSTH (+1)
001650: 12,3645           02722                                    UR1
001651: 12,3646           76435                           VXV      VSL1
001652: 12,3647           72441                           DOT      SL1
001653: 12,3650           02674                                    UN
001654: 12,3651           16730                           STODL    SNTH                                  #  SNTH (+1)
001655: 12,3652           02740                                    P
001656: 12,3653           77624                           CALL
001657: 12,3654           24767                                    GETX
001658: 12,3655           77614                           CLRGO
001659: 12,3656           02634                                    SOLNSW
001660: 12,3657           24747                                    COMMNOUT
001661:
001662: 12,3660           43001        CIRCULAR           SETPD    SETGO
001663: 12,3661           00001                                    0
001664: 12,3662           02434                                    SOLNSW
001665: 12,3663           25742                                    ABTCONIC
001666:
001667: 12,3664           75345        BADR2              DLOAD    SIGN
001668: 12,3665           24005                                    LODPHALF
001669: 12,3666           00031                                    COSF
001670: 12,3667           14031                           STODL    COSF
001671: 12,3670           24007                                    KEPZERO
001672: 12,3671           77614                           SETGO
001673: 12,3672           04032                                    APSESW
001674: 12,3673           25630                                    TERMNVEC
001675:


001677: 12,3674           40220        APSIDES            STQ      SETPD                                 #                                PL AT 0
001678: 12,3675           02710                                    RTNAPSE
001679: 12,3676           00001                                    0D
001680: 12,3677           77600                           BOV
001681: 12,3700           25701                                    +1
001682: 12,3701           63375                           VLOAD    PDVL                                  #                                PL AT 6
001683: 12,3702           02655                                    RVEC
001684: 12,3703           02744                                    VVEC
001685: 12,3704           77624                           CALL
001686: 12,3705           11064                                    PARAM
001687: 12,3706           77600                           BOV                                            #                                PL AT 0
001688: 12,3707           25710                                    GETECC
001689: 12,3710           42405        GETECC             DMP      SL4
001690: 12,3711           02742                                    R1A
001691: 12,3712           75421                           BDSU     SQRT
001692: 12,3713           11035                                    D1/64
001693: 12,3714           02752                           STORE    ECC
001694: 12,3715           65215                           DAD      PDDL                                  #                                PL AT 2
001695: 12,3716           11031                                    D1/8
001696: 12,3717           00041                                    R1
001697: 12,3720           72405                           DMP      SL1
001698: 12,3721           02740                                    P
001699: 12,3722           77671                           DDV                                            #                                PL AT 0
001700: 12,3723           60325                           PDDL     NORM                                  #  0D=RP (+29 OR +27)            PL AT 2
001701: 12,3724           02742                                    R1A
001702: 12,3725           00047                                    X1
001703: 12,3726           53725                           PDDL     SL*                                   #                                PL AT 4
001704: 12,3727           00041                                    R1
001705: 12,3730           20174                                    0          -5,1
001706: 12,3731           45271                           DDV      DSU                                   #                                PL AT 2,0
001707: 12,3732           50000                           BOV      BMN
001708: 12,3733           25737                                    INFINAPO
001709: 12,3734           25737                                    INFINAPO
001710: 12,3735           77650                           GOTO
001711: 12,3736           02710                                    RTNAPSE
001712: 12,3737           52145        INFINAPO           DLOAD    GOTO                                  #  RETURNS WITH APOAPSIS IN MPAC, PERIAPSIS
001713: 12,3740           24020                                    LDPOSMAX
001714: 12,3741           02710                                    RTNAPSE                               #  THAT PL IS AT 0.
001715:


001717: 12,3742           77776        ABTCONIC           EXIT
001718: 12,3743           05652                           TC       POODOO
001719: 12,3744           00607                           OCT      00607
001720:


001722: 12,3745  12,2017               LDPOSMAX           EQUALS   LODPMAX                               #  DPPOSMAX IN LOW MEMORY.
001723:
001724:                                                                                                  #  ERASABLE ASSIGNMENTS
001725:
001726:                                                                                                  #  KEPLER SUBROUTINE
001727:
001728:                                                                                                  #        INPUT -
001729:                                                                                                  #  RRECT         ERASE   +5
001730:                                                                                                  #  VRECT         ERASE   +5
001731:                                                                                                  #  TAU.          ERASE   +1


001733:                                                                                                  #  XKEP          ERASE   +1
001734:                                                                                                  #  TC            ERASE   +1
001735:                                                                                                  #  XPREV         ERASE   +1
001736: 12,3745                        1/MU               EQUALS   14D
001737: 12,3745                        ROOTMU             EQUALS   16D
001738: 12,3745                        1/ROOTMU           EQUALS   18D
001739:
001740:                                                                                                  #        OUTPUT -
001741:                                                                                                  #  RCV           ERASE   +5
001742:                                                                                                  #  VCV           ERASE   +5


001744:                                                                                                  #  RC            ERASE   +1
001745:                                                                                                  #  XPREV         ERASE   +1
001746:
001747:                                                                                                  #        DEBRIS -
001748: 12,3745                        ALPHA              EQUALS   8D
001749: 12,3745                        XMAX               EQUALS   10D
001750: 12,3745                        XMIN               EQUALS   12D
001751: 12,3745                        X                  EQUALS   20D
001752: 12,3745                        XI                 EQUALS   24D
001753: 12,3745                        S(XI)              EQUALS   26D
001754: 12,3745                        XSQC(XI)           EQUALS   28D
001755: 12,3745                        T                  EQUALS   30D
001756: 12,3745                        R1                 EQUALS   32D
001757: 12,3745                        KEPC1              EQUALS   34D
001758: 12,3745                        KEPC2              EQUALS   36D
001759:                                                                                                  #  DELX          ERASE   +1
001760:                                                                                                  #  DELT          ERASE   +1
001761:                                                                                                  #  URRECT        ERASE   +5
001762:                                                                                                  #  RCNORM        ERASE   +1
001763:                                                                                                  #  XPREV         EQUALS  XKEP
001764:
001765:
001766:                                                                                                  #  LAMBERT SUBROUTINE
001767:
001768:                                                                                                  #        INPUT -
001769:                                                                                                  #  R1VEC         ERASE   +5
001770:                                                                                                  #  R2VEC         ERASE   +5
001771:                                                                                                  #  TDESIRED      ERASE   +1
001772:                                                                                                  #  GEOMSGN       ERASE   +0
001773:                                                                                                  #  GUESSW                        0 IF COGA GUESS AVAILABLE, 1 IF NOT


001775:                                                                                                  #  COGA          ERASE   +1      INPUT ONLY IF GUESSW IS ZERO.
001776:                                                                                                  #  NORMSW                        0 IF UN TO BE COMPUTED, 1 IF UN INPUT
001777:                                                                                                  #  UN            ERASE   +5      ONLY USED IF NORMSW IS 1
001778:                                                                                                  #  VTARGTAG      ERASE   +0
001779:                                                                                                  #  TWEEKIT       EQUALS  40D     ONLY USED IF GUESSW IS 0
001780:
001781:                                                                                                  #        OUTPUT -
001782:                                                                                                  #  VTARGET       ERASE   +5      AVAILABLE ONLY IF VTARGTAG IS ZERO.
001783:                                                                                                  #  V1VEC         EQUALS  MPAC
001784:
001785:                                                                                                  #        DEBRIS -
001786:                                                                                                  #  RTNLAMB       ERASE   +0
001787:                                                                                                  #  U2            ERASE   +5
001788:                                                                                                  #  MAGVEC2       ERASE   +1
001789:                                                                                                  #  UR1           ERASE   +5


001791:                                                                                                  #  R1            EQUALS  31D
001792:                                                                                                  #  UN            ERASE   +5
001793:                                                                                                  #  SNTH          ERASE   +1
001794:                                                                                                  #  CSTH          ERASE   +1
001795:                                                                                                  #  1-CSTH        ERASE   +1
001796:                                                                                                  #  CSTH-RHO      ERASE   +1
001797: 12,3745                        COGAMAX            EQUALS   14D                                   #  CLOBBERS 1/MU
001798: 12,3745                        COGAMIN            EQUALS   8D
001799: 12,3745                        DCOGA              EQUALS   12D
001800:                                                                                                  #  TWEEKIT       EQUALS  40D
001801:                                                                                                  #  P             ERASE   +1
001802:                                                                                                  #  COGA          ERASE   +1
001803:                                                                                                  #  R1A           ERASE   +1
001804:                                                                                                  #  X             EQUALS  20D
001805:                                                                                                  #  XSQ           EQUALS  22D
001806:                                                                                                  #  XI            EQUALS  24D
001807:                                                                                                  #  S(XI)         EQUALS  26D
001808:                                                                                                  #  XSQC(XI)      EQUALS  28D
001809:                                                                                                  #  T             EQUALS  30D
001810:                                                                                                  #  KEPC1         EQUALS  34D
001811:                                                                                                  #  KEPC2         EQUALS  36D
001812:                                                                                                  #  SLOPESW
001813:                                                                                                  #  SOLNSW
001814:
001815:                                                                                                  #        OTHERS -
001816:                                                                                                  #  RVEC          EQUALS  R1VEC
001817:                                                                                                  #  VVEC          ERASE   +5
001818:                                                                                                  #  COGAFLAG
001819:                                                                                                  #  RVSW
001820:                                                                                                  #  INFINFLG
001821:                                                                                                  #  APSESW
001822:                                                                                                  #  360SW
001823:                                                                                                  #  RTNTT         EQUALS  RTNLAMB
001824:                                                                                                  #  ECC           ERASE   +1
001825:                                                                                                  #  RTNTR         EQUALS  RTNLAMB


001827:                                                                                                  #  RTNAPSE       EQUALS  RTNLAMB
001828:                                                                                                  #  R2            EQUALS  MAGVEC2
001829: 12,3745                        COSF               EQUALS   24D
001830:                                                                                                  #  RTNPRM        ERASE   +0
001831:                                                                                                  #  SGNRDOT       ERASE   +0
001832:                                                                                                  #  RDESIRED      ERASE   +1
001833:
001834:
001835:                                                                                                  #  ITERATOR SUBROUTINE
001836:                                                                                                  #  ORDERSW
001837: 12,3745                        MAX                EQUALS   14D                                   #  CLOBBERS 1/MU
001838: 12,3745                        MIN                EQUALS   8D


001840:                                                                                                  #  INDEP         ERASE   +1
001841: 12,3745                        DELINDEP           EQUALS   12D
001842: 12,3745                        ITERCTR            EQUALS   22D
001843: 12,3745                        DEP                EQUALS   30D


001845:                                                                                                  #  DELDEP        ERASE   +1


001847:                                                                                                  #  DEPREV        ERASE   +1
001848: 12,3745                        TWEEKIT            EQUALS   40D
001849:
001850:
001851:                                                                                                  #  MORE KEPLER
001852:                                                                                                  #  EPSILONT      ERASE   +1
001853:
001854:
001855:                                                                                                  #  MORE LAMBERT
001856:                                                                                                  #  TERRLAMB      EQUALS  DELDEP
001857:                                                                                                  #  TPREV         EQUALS  DEPREV
001858:
001859:                                                                                                  #  EPSILONL      EQUALS  EPSILONT +2     DOUBLE PRECISION WORD

End of include-file CONIC_SUBROUTINES.agc.  Parent file is MAIN.agc


