
Source Code


000002:                                                                                                  ## Copyright:   Public domain.
000003:                                                                                                  ## Filename:    ERASABLE_ASSIGNMENTS.agc
000004:                                                                                                  ## Purpose:     A section of Luminary revision 98.
000005:                                                                                                  ##              It is part of the reconstructed source code for the a
000006:                                                                                                  ##              development version of the flight software for the Lunar
000007:                                                                                                  ##              Module's (LM) Apollo Guidance Computer (AGC) for Apollo 11.
000008:                                                                                                  ##              The code has been recreated from a copy of Luminary 99
000009:                                                                                                  ##              revision 001, using asterisks indicating changed lines in
000010:                                                                                                  ##              the listing and Luminary Memo #85, which lists changes between
000011:                                                                                                  ##              Luminary 98 and 99.
000012:                                                                                                  ## Reference:   pp. 90-152
000013:                                                                                                  ## Assembler:   yaYUL
000014:                                                                                                  ## Contact:     Ron Burkey <info@sandroid.org>.
000015:                                                                                                  ## Website:     www.ibiblio.org/apollo/index.html
000016:                                                                                                  ## Mod history: 2019-07-28 MAS  Created from Luminary 99. Reverted the Anomaly
000017:                                                                                                  ##                              70 fix by moving ZERLINA, ELVIRA, AZINCR1, and
000018:                                                                                                  ##                              ELINCR1 back to their original positions. Also,
000019:                                                                                                  ##                              deleted the RADSKAL and SKALSKAL erasables for
000020:                                                                                                  ##                              LR doppler compensation which were introduced
000021:                                                                                                  ##                              with PCR 775.
000022:                                                                                                  ##              2021-05-30 ABS  W.INDI -> W.IND1
000023:                                                                                                  ##                              TTPIO -> TTPI0
000024:                                                                                                  ##                              NETTOTKP -> NEGTOTKP
000025:


000027:                                                                                                  #  CONVENTIONS AND NOTATIONS UTILIZED FOR ERASABLE ASSIGNMENTS.
000028:
000029:                                                                                                  #        EQUALS  IS USED IN TWO WAYS.  IT IS OFTEN USED TO CHAIN A GROUP
000030:                                                                                                  #                OF ASSIGNMENTS SO THAT THE GROUP MAY BE MOVED WITH THE
000031:                                                                                                  #                CHANGING OF ONLY ONE CARD.  EXAMPLE.
000032:
000033:                                                                                                  #                        X       EQUALS  START
000034:                                                                                                  #                        Y       EQUALS  X       +SIZE.X
000035:                                                                                                  #                        Z       EQUALS  Y       +SIZE.Y
000036:
000037:                                                                                                  #                (X, Y, AND Z ARE CONSECUTIVE AND BEGIN AT START.       )
000038:                                                                                                  #                (SIZE.X AND SIZE.Y ARE THE RESPECTIVE SIZES OF X AND Y,
000039:                                                                                                  #                 USUALLY NUMERIC, IE. 1, 2, 6, 18D ETC.                )
000040:
000041:                                                                                                  #        EQUALS  OFTEN IMPLIES THE SHARING OF REGISTERS (DIFFERENT NAMES
000042:                                                                                                  #                AND DIFFERENT DATA).  EXAMPLE.
000043:
000044:                                                                                                  #                        X       EQUALS  Y
000045:
000046:                                                                                                  #        =       MEANS THAT MULTIPLE NAMES HAVE BEEN GIVEN TO THE SAME DATA.
000047:                                                                                                  #                (THIS IS LOGICAL EQUIVALENCE, NOT SHARING)  EXAMPLE.
000048:
000049:                                                                                                  #                        X       =       Y
000050:
000051:                                                                                                  #        THE SIZE AND UTILIZATION OF AN ERASABLE ARE OFTEN INCLUDED IN
000052:                                                                                                  #        THE COMMENTS IN THE FOLLOWING FORM.  M(SIZE)N.
000053:
000054:                                                                                                  #                M       REFERS TO THE MOBILITY OF THE ASSIGNMENT.
000055:                                                                                                  #                        B       MEANS THAT THE SYMBOL IS REFERENCED BY BASIC
000056:                                                                                                  #                                INSTRUCTIONS AND THUS IS E-BANK SENSITIVE.
000057:                                                                                                  #                        I       MEANS THAT THE SYMBOL IS REFERENCED ONLY BY
000058:                                                                                                  #                                INTERPRETIVE INSTRUCTIONS, AND IS THUS E-BANK
000059:                                                                                                  #                                INSENSITIVE AND MAY APPEAR IN ANY E-BANK.
000060:
000061:                                                                                                  #                SIZE    IS THE NUMBER OF REGISTERS INCLUDED BY THE SYMBOL.
000062:
000063:                                                                                                  #                N       INDICATES THE NATURE OR PERMANENCE OF THE CONTENTS.
000064:                                                                                                  #                        PL      MEANS THAT THE CONTENTS ARE PAD LOADED.
000065:                                                                                                  #                        DSP     MEANS THAT THE REGISTER IS USED FOR A DISPLAY.
000066:                                                                                                  #                        PRM     MEANS THAT THE REGISTER IS PERMANENT,  IE. IT
000067:                                                                                                  #                                IS USED DURING THE ENTIRE MISSION FOR ONE
000068:                                                                                                  #                                PURPOSE AND CANNOT BE SHARED.
000069:                                                                                                  #                        TMP     MEANS THAT THE REGISTER IS USED TEMPORARILY OR
000070:                                                                                                  #                                IS A SCRATCH REGISTER FOR THE ROUTINE TO WHICH
000071:                                                                                                  #                                IT IS ASSIGNED.  THAT IS, IT NEED NOT BE SET
000072:                                                                                                  #                                PRIOR TO INVOCATION OF THE ROUTINE NOR DOES IT
000073:                                                                                                  #                                CONTAIN USEFUL OUTPUT TO ANOTHER ROUTINE.  THUS


000075:                                                                                                  #                                IT MAY BE SHARED WITHANY OTHER ROUTINE WHICH
000076:                                                                                                  #                                IS NOT ACTIVE IN PARALLEL.
000077:                                                                                                  #                        IN      MEANS INPUT TO THE ROUTINE AND IT IS PROBABLY
000078:                                                                                                  #                                TEMPORARY FOR A HIGHER-LEVEL ROUTINE/PROGRAM.
000079:                                                                                                  #                        OUT     MEANS OUTPUT FROM THE ROUTINE, PROBABLY
000080:                                                                                                  #                                TEMPORARY FOR A HIGHER-LEVEL ROUTINE/PROGRAM.
000081:


000083:                                                                                                  #  SPECIAL REGISTERS.
000084:
000085: 26,2022                        A                  EQUALS   0
000086: 26,2022                        L                  EQUALS   1                                     #  L AND Q ARE BOTH CHANNELS AND REGISTERS.
000087: 26,2022                        Q                  EQUALS   2
000088: 26,2022                        EBANK              EQUALS   3
000089: 26,2022                        FBANK              EQUALS   4
000090: 26,2022                        Z                  EQUALS   5                                     #  ADJACENT TO FBANK AND BBANK FOR DXCH Z
000091: 26,2022                        BBANK              EQUALS   6                                     #  (DTCB) AND DXCH FBANK (DTCF).
000092:                                                                                                  #  REGISTER 7 IS A ZERO-SOURCE, USED BY ZL.
000093:
000094: 26,2022                        ARUPT              EQUALS   10                                    #  INTERRUPT STORAGE.
000095: 26,2022                        LRUPT              EQUALS   11
000096: 26,2022                        QRUPT              EQUALS   12
000097: 26,2022                        SAMPTIME           EQUALS   13                                    #  SAMPLED TIME 1 & 2.
000098: 26,2022                        ZRUPT              EQUALS   15                                    #  (13 AND 14 ARE SPARES.)
000099: 26,2022                        BANKRUPT           EQUALS   16                                    #  USUALLY HOLDS FBANK OR BBANK.
000100: 26,2022                        BRUPT              EQUALS   17                                    #  RESUME ADDRESS AS WELL.
000101:
000102: 26,2022                        CYR                EQUALS   20
000103: 26,2022                        SR                 EQUALS   21
000104: 26,2022                        CYL                EQUALS   22
000105: 26,2022                        EDOP               EQUALS   23                                    #  EDITS INTERPRETIVE OPERATION CODE PAIRS.
000106:
000107: 26,2022                        TIME2              EQUALS   24
000108: 26,2022                        TIME1              EQUALS   25
000109: 26,2022                        TIME3              EQUALS   26
000110: 26,2022                        TIME4              EQUALS   27
000111: 26,2022                        TIME5              EQUALS   30
000112: 26,2022                        TIME6              EQUALS   31
000113: 26,2022                        CDUX               EQUALS   32
000114: 26,2022                        CDUY               EQUALS   33
000115: 26,2022                        CDUZ               EQUALS   34
000116: 26,2022                        CDUT               EQUALS   35                                    #  REND RADAR TRUNNION CDU
000117: 26,2022                        CDUS               EQUALS   36                                    #  REND RADAR SHAFT CDU
000118: 26,2022                        PIPAX              EQUALS   37
000119: 26,2022                        PIPAY              EQUALS   40
000120: 26,2022                        PIPAZ              EQUALS   41
000121: 26,2022                        Q-RHCCTR           EQUALS   42                                    #  RHC COUNTER REGISTERS
000122: 26,2022                        P-RHCCTR           EQUALS   43
000123: 26,2022                        R-RHCCTR           EQUALS   44
000124: 26,2022                        INLINK             EQUALS   45
000125: 26,2022                        RNRAD              EQUALS   46
000126: 26,2022                        GYROCMD            EQUALS   47
000127: 26,2022                        CDUXCMD            EQUALS   50
000128: 26,2022                        CDUYCMD            EQUALS   51
000129: 26,2022                        CDUZCMD            EQUALS   52
000130: 26,2022                        CDUTCMD            EQUALS   53                                    #  RADAR TRUNNION COMMAND
000131: 26,2022                        CDUSCMD            EQUALS   54                                    #  RADAR SHAFT COMMAND


000133: 26,2022                        THRUST             EQUALS   55
000134: 26,2022                        LEMONM             EQUALS   56
000135: 26,2022                        OUTLINK            EQUALS   57
000136: 26,2022                        ALTM               EQUALS   60
000137:
000138:                                                                                                  #  INTERPRETIVE REGISTERS ADDRESSED RELATIVE TO VAC AREA.
000139:
000140: 26,2022                        LVSQUARE           EQUALS   34D                                   #  SQUARE OF VECTOR INPUT TO ABVAL AND UNIT
000141: 26,2022                        LV                 EQUALS   36D                                   #  LENGTH OF VECTOR INPUT TO UNIT.
000142: 26,2022                        X1                 EQUALS   38D                                   #  INTERPRETIVE SPECIAL REGISTERS RELATIVE
000143: 26,2022                        X2                 EQUALS   39D                                   #  TO THE WORK AREA.
000144: 26,2022                        S1                 EQUALS   40D
000145: 26,2022                        S2                 EQUALS   41D
000146: 26,2022                        QPRET              EQUALS   42D
000147:
000148:                                                                                                  #  INPUT/OUTPUT CHANNELS
000149:
000150:                                                                                                  #  *** CHANNEL ZERO IS TO BE USED IN AN INDEXED OPERATION ONLY. ***
000151: 26,2022  0000001               LCHAN              EQUALS   L
000152: 26,2022  0000002               QCHAN              EQUALS   Q
000153: 26,2022                        HISCALAR           EQUALS   3
000154: 26,2022                        LOSCALAR           EQUALS   4
000155: 26,2022                        CHAN5              EQUALS   5
000156: 26,2022                        CHAN6              EQUALS   6
000157: 26,2022                        SUPERBNK           EQUALS   7                                     #  SUPER-BANK.
000158: 26,2022                        OUT0               EQUALS   10
000159: 26,2022                        DSALMOUT           EQUALS   11
000160: 26,2022                        CHAN12             EQUALS   12
000161: 26,2022                        CHAN13             EQUALS   13
000162: 26,2022                        CHAN14             EQUALS   14
000163: 26,2022                        MNKEYIN            EQUALS   15
000164: 26,2022                        NAVKEYIN           EQUALS   16
000165: 26,2022                        CHAN30             EQUALS   30
000166: 26,2022                        CHAN31             EQUALS   31
000167: 26,2022                        CHAN32             EQUALS   32
000168: 26,2022                        CHAN33             EQUALS   33
000169: 26,2022                        DNTM1              EQUALS   34
000170: 26,2022                        DNTM2              EQUALS   35
000171:
000172:                                                                                                  #  END OF CHANNEL ASSIGNMENTS
000173:


000175:                                                                                                  #  INTERPRETIVE SWITCH BIT ASSIGNMENTS
000176:
000177:                                                                                                  #        ** FLAGWORDS AND BITS NOW ASSIGNED AND DEFINED IN THEIR OWN LOG SECTION. **
000178:


000180:                                                                                                  #  GENERAL ERASABLE ASSIGNMENTS.
000181:
000182:    0061                                           SETLOC   61
000183:                                                                                                  #  INTERRUPT TEMPORARY STORAGE POOL.     (11D)
000184:
000185:                                                                                                  #  (ITEMP1 THROUGH RUPTREG4)
000186:
000187:                                                                                                  #  ANY OF THESE MAY BE USED AS TEMPORARIES DURING INTERRUPT OR WITH INTERRUPT INHIBITED. THE ITEMP SERIES
000188:                                                                                                  #  IS USED DURING CALLS TO THE EXECUTIVE AND WAITLIST - THE RUPTREGS ARE NOT.
000189:
000190:    0061                        ITEMP1             ERASE
000191:    0062     0061               WAITEXIT           EQUALS   ITEMP1
000192:    0062     0061               EXECTEM1           EQUALS   ITEMP1
000193:
000194:    0062                        ITEMP2             ERASE
000195:    0063     0062               WAITBANK           EQUALS   ITEMP2
000196:    0063     0062               EXECTEM2           EQUALS   ITEMP2
000197:
000198:    0063                        ITEMP3             ERASE
000199:    0064     0063               RUPTSTOR           EQUALS   ITEMP3
000200:    0064     0063               WAITADR            EQUALS   ITEMP3
000201:    0064     0063               NEWPRIO            EQUALS   ITEMP3
000202:
000203:    0064                        ITEMP4             ERASE
000204:    0065     0064               LOCCTR             EQUALS   ITEMP4
000205:    0065     0064               WAITTEMP           EQUALS   ITEMP4
000206:
000207:    0065                        ITEMP5             ERASE
000208:    0066     0065               NEWLOC             EQUALS   ITEMP5
000209:
000210:    0066                        ITEMP6             ERASE
000211:                                                                                                  #  NEWLOC+1      EQUALS  ITEMP6          DP ADDRESS.
000212:
000213:    0067                                           SETLOC   67
000214:    0067                        NEWJOB             ERASE                                          #  MUST BE AT LOC 67 DUE TO WIRING.
000215:
000216:    0070                        RUPTREG1           ERASE
000217:    0071                        RUPTREG2           ERASE
000218:    0072                        RUPTREG3           ERASE
000219:    0073                        RUPTREG4           ERASE
000220:    0074     0073               KEYTEMP1           EQUALS   RUPTREG4
000221:    0074     0073               DSRUPTEM           EQUALS   RUPTREG4
000222:
000223:                                                                                                  #  FLAGWORD RESERVATIONS.                (16D)
000224:
000225:    0074                        STATE              ERASE    +15D                                  #  FLAGWORD REGISTERS.
000226:
000227:                                                                                                  #  P25 RADAR STORAGE.  (MAY BE UNSHARED IN E7)  (TEMP OVERLAY)  (2D)  OVERLAYS FLGWRD 14 & 15


000229:    0114     0112               LASTYCMD           EQUALS   STATE      +14D                       #  B(1)PRM       THESE ARE CALLED BY T4RUPT
000230:    0114     0113               LASTXCMD           EQUALS   LASTYCMD   +1                         #  B(1)PRM       THEY MUST BE CONTIGUOUS, Y FIRST
000231:
000232:                                                                                                  #  EXEC TEMPORARIES WHICH MAY BE USED BETWEEN CCS NEWJOBS. (32D) (INTB15+ THROUGH RUPTMXTM)
000233:    0114                        INTB15+            ERASE                                          #  REFLECTS 15TH BIT OF INDEXABLE ADDRESSES
000234:    0115     0114               DSEXIT             =        INTB15+                               #  RETURN FOR DSPIN
000235:    0115     0114               EXITEM             =        INTB15+                               #  RETURN FOR SCALE FACTOR ROUTINE SELECT
000236:    0115     0114               BLANKRET           =        INTB15+                               #  RETURN FOR 2BLANK
000237:
000238:    0115                        INTBIT15           ERASE                                          #  SIMILAR TO ABOVE.
000239:    0116     0115               WRDRET             =        INTBIT15                              #  RETURN FOR 5BLANK
000240:    0116     0115               WDRET              =        INTBIT15                              #  RETURN FOR DSPWD
000241:    0116     0115               DECRET             =        INTBIT15                              #  RETURN FOR PUTCOM(DEC LOAD)
000242:    0116     0115               21/22REG           =        INTBIT15                              #  TEMP FOR CHARIN
000243:
000244:                                                                                                  #  THE REGISTERS BETWEEN ADDRWD AND PRIORITY MUST STAY IN THE FOLLOWING ORDER FOR INTERPRETIVE TRACE.
000245:
000246:    0116                        ADDRWD             ERASE                                          #  12 BIT INTERPRETIVE OPERAND SUB-ADDRESS.
000247:    0117                        POLISH             ERASE                                          #  HOLDS CADR MADE FROM POLISH ADDRESS.
000248:    0120     0117               UPDATRET           =        POLISH                                #  RETURN FOR UPDATNN, UPDATVB
000249:    0120     0117               CHAR               =        POLISH                                #  TEMP FOR CHARIN
000250:    0120     0117               ERCNT              =        POLISH                                #  COUNTER FOR ERROR LIGHT RESET
000251:    0120     0117               DECOUNT            =        POLISH                                #  COUNTER FOR SCALING AND DISPLAY (DEC)
000252:
000253:    0120                        FIXLOC             ERASE                                          #  WORK AREA ADDRESS.
000254:    0121                        OVFIND             ERASE                                          #  SET NON-ZERO ON OVERFLOW.
000255:
000256:    0122                        VBUF               ERASE    +5                                    #  TEMPORARY STORAGE USED FOR VECTORS.
000257:    0130     0122               SGNON              =        VBUF                                  #  TEMP FOR +,- ON
000258:    0130     0122               NOUNTEM            =        VBUF                                  #  COUNTER FOR MIXNOUN FETCH
000259:    0130     0122               DISTEM             =        VBUF                                  #  COUNTER FOR OCTAL DISPLAY VERBS
000260:    0130     0122               DECTEM             =        VBUF                                  #  COUNTER FOR FETCH (DEC DISPLAY VERBS)
000261:
000262:    0130     0123               SGNOFF             =        VBUF       +1                         #  TEMP FOR +,- ON
000263:    0130     0123               NVTEMP             =        VBUF       +1                         #  TEMP FOR NVSUB
000264:    0130     0123               SFTEMP1            =        VBUF       +1                         #  STORAGE FOR SF CONST HI PART (=SFTEMP2-1)
000265:    0130     0123               HITEMIN            =        VBUF       +1                         #  TEMP FOR LOAD OF HRS,MIN,SEC
000266:                                                                                                  #  MUST = LOTEMIN-1.
000267:
000268:    0130     0124               CODE               =        VBUF       +2                         #  FOR DSPIN
000269:    0130     0124               SFTEMP2            =        VBUF       +2                         #  STORAGE FOR SF CONST LO PART (=SFTEMP1+1)
000270:    0130     0124               LOTEMIN            =        VBUF       +2                         #  TEMP FOR LOAD OF HRS,MIN,SEC
000271:                                                                                                  #  MUST = HITEMIN+1.
000272:
000273:    0130     0125               MIXTEMP            =        VBUF       +3                         #  FOR MIXNOUN DATA
000274:    0130     0125               SIGNRET            =        VBUF       +3                         #  RETURN FOR +,- ON
000275:
000276:                                                                                                  #  ALSO MIXTEMP+1 = VBUF+4, MIXTEMP+2 = VBUF+5.
000277:
000278:    0130                        BUF                ERASE    +2                                    #  TEMPORARY SCALAR STORAGE.


000280:    0133                        BUF2               ERASE    +1
000281:    0135     0130               INDEXLOC           EQUALS   BUF                                   #  CONTAINS ADDRESS OF SPECIFIED INDEX.
000282:    0135     0130               SWWORD             EQUALS   BUF                                   #  ADDRESS OF SWITCH WORD.
000283:    0135     0131               SWBIT              EQUALS   BUF        +1                         #  SWITCH BIT WITHIN SWITCH WORD.
000284:    0135                        MPTEMP             ERASE                                          #  TEMPORARY USED IN MULTIPLY AND SHIFT.
000285:    0136     0135               DMPNTEMP           =        MPTEMP                                #  DMPSUB TEMPORARY
000286:    0136                        DOTINC             ERASE                                          #  COMPONENT INCREMENT FOR DOT SUBROUTINE.
000287:    0137     0136               DVSIGN             EQUALS   DOTINC                                #  DETERMINES SIGN OF DDV RESULT.
000288:    0137     0136               ESCAPE             EQUALS   DOTINC                                #  USED IN ARCSIN/ARCCOS.
000289:    0137     0136               ENTRET             =        DOTINC                                #  EXIT FROM ENTER
000290:
000291:    0137                        DOTRET             ERASE                                          #  RETURN FROM DOT SUBROUTINE.
000292:    0140     0137               DVNORMCT           EQUALS   DOTRET                                #  DIVIDEND NORMALIZATION COUNT IN DDV.
000293:    0140     0137               ESCAPE2            EQUALS   DOTRET                                #  ALTERNATE ARCSIN/ARCCOS SWITCH.
000294:    0140     0137               WDCNT              =        DOTRET                                #  CHAR COUNTER FOR DSPWD
000295:    0140     0137               INREL              =        DOTRET                                #  INPUT BUFFER SELECTOR ( X,Y,Z, REG)
000296:
000297:    0140                        MATINC             ERASE                                          #  VECTOR INCREMENT IN MXV AND VXM.
000298:    0141     0140               MAXDVSW            EQUALS   MATINC                                #  +0 IF DP QUOTIENT IS NEAR ONE - ELSE -1.
000299:    0141     0140               POLYCNT            EQUALS   MATINC                                #  POLYNOMIAL LOOP COUNTER
000300:    0141     0140               DSPMMTEM           =        MATINC                                #  DSPCOUNT SAVE FOR DSPMM
000301:    0141     0140               MIXBR              =        MATINC                                #  INDICATOR FOR MIXED OR NORMAL NOUN
000302:
000303:    0141                        TEM1               ERASE                                          #  EXEC TEMP
000304:    0142     0141               POLYRET            =        TEM1
000305:    0142     0141               DSREL              =        TEM1                                  #  REL ADDRESS FOR DSPIN
000306:
000307:    0142                        TEM2               ERASE                                          #  EXEC TEMP
000308:    0143     0142               DSMAG              =        TEM2                                  #  MAGNITUDE STORE FOR DSPIN
000309:    0143     0142               IDADDTEM           =        TEM2                                  #  MIXNOUN INDIRECT ADDRESS STORAGE
000310:
000311:    0143                        TEM3               ERASE                                          #  EXEC TEMP
000312:    0144     0143               COUNT              =        TEM3                                  #  FOR DSPIN
000313:
000314:    0144                        TEM4               ERASE                                          #  EXEC TEMP
000315:    0145     0144               LSTPTR             =        TEM4                                  #  LIST POINTER FOR GRABUSY
000316:    0145     0144               RELRET             =        TEM4                                  #  RETURN FOR RELDSP
000317:    0145     0144               FREERET            =        TEM4                                  #  RETURN FOR FREEDSP
000318:    0145     0144               DSPWDRET           =        TEM4                                  #  RETURN FOR DSPSIGN
000319:    0145     0144               SEPSCRET           =        TEM4                                  #  RETURN FOR SEPSEC
000320:    0145     0144               SEPMNRET           =        TEM4                                  #  RETURN FOR SEPMIN
000321:
000322:    0145                        TEM5               ERASE                                          #  EXEC TEMP
000323:    0146     0145               NOUNADD            =        TEM5                                  #  TEMP STORAGE FOR NOUN ADDRESS
000324:
000325:    0146                        NNADTEM            ERASE                                          #  TEMP FOR NOUN ADDRESS TABLE ENTRY
000326:    0147                        NNTYPTEM           ERASE                                          #  TEMP FOR NOUN TYPE TABLE ENTRY
000327:    0150                        IDAD1TEM           ERASE                                          #  TEMP FOR INDIR ADRESS TABLE ENTRY (MIXNN)
000328:                                                                                                  #  MUST = IDAD2TEM-1, = IDAD3TEM-2.
000329:    0151                        IDAD2TEM           ERASE                                          #  TEMP FOR INDIR ADRESS TABLE ENTRY (MIXNN)


000331:                                                                                                  #  MUST = IDAD1TEM+1, = IDAD3TEM-1.
000332:    0152                        IDAD3TEM           ERASE                                          #  TEMP FOR INDIR ADRESS TABLE ENTRY (MIXNN)
000333:                                                                                                  #  MUST = IDAD1TEM+2, = IDAD2TEM+1.
000334:    0153                        RUTMXTEM           ERASE                                          #  TEMP FOR SF ROUT TABLE ENTRY (MIXNN ONLY)
000335:
000336:                                                                                                  #  AX*SR*T STORAGE.                      (6D)
000337:    0154     0142               DEXDEX             EQUALS   TEM2                                  #  B(1)TMP
000338:    0154     0143               DEX1               EQUALS   TEM3                                  #  B(1)TMP
000339:    0154     0144               DEX2               EQUALS   TEM4                                  #  B(1)TMP
000340:    0154     0145               RTNSAVER           EQUALS   TEM5                                  #  B(1)TMP
000341:    0154     0157               TERM1TMP           EQUALS   MPAC       +3                         #  B(2)TMP
000342:
000343:    0154     0143               DEXI               =        DEX1
000344:
000345:                                                                                                  #           THE FOLLOWING 10 REGISTERS ARE USED FOR TEMPORARY STORAGE OF THE DERIVATIVE COEFFICIENT TABLE OF
000346:                                                                                                  #  SUBROUTINE ROOTPSRS.  THEY MUST REMAIN WITHOUT INTERFERENCE WITH ITS SUBROUTINES WHICH ARE POWRSERS (POLY),
000347:                                                                                                  #  DMPSUB, DMPNSUB, SHORTMP, DDV/BDDV, ABS, AND USPRCADR.
000348:
000349:    0154     0142               DERCOF-8           =        MPAC       -12                        #  ROOTPSRS DER COF N-4 HI ORDER
000350:    0154     0143               DERCOF-7           =        MPAC       -11                        #  ROOTPSRS DER COF N-4 LO ORDER
000351:    0154     0144               DERCOF-6           =        MPAC       -10                        #  ROOTPSRS DER COF N-3 HI ORDER
000352:    0154     0145               DERCOF-5           =        MPAC       -7                         #  ROOTPSRS DER COF N-3 LO ORDER
000353:    0154     0146               DERCOF-4           =        MPAC       -6                         #  ROOTPSRS DER COF N-2 HI ORDER
000354:    0154     0147               DERCOF-3           =        MPAC       -5                         #  ROOTPSRS DER COF N-2 LO ORDER
000355:    0154     0150               DERCOF-2           =        MPAC       -4                         #  ROOTPSRS DER COF N-1 HI ORDER
000356:    0154     0151               DERCOF-1           =        MPAC       -3                         #  ROOTPSRS DER COF N-1 LO ORDER
000357:    0154     0152               DERCOFN            =        MPAC       -2                         #  ROOTPSRS DER COF N HI ORDER
000358:    0154     0153               DERCOF+1           =        MPAC       -1                         #  ROOTPSRS DER COF N LO ORDER
000359:
000360:    0154     0117               PWRPTR             =        POLISH                                #  ROOTPSRS POWER TABLE POINTER
000361:    0154     0124               DXCRIT             =        VBUF       +2                         #  ROOTPSRS CRITERION FOR ENDING ITERS HI
000362:    0154     0125               DXCRIT+1           =        VBUF       +3                         #  ROOTPSRS CRITERION FOR ENDING ITERS LO
000363:    0154     0126               ROOTPS             =        VBUF       +4                         #  ROOTPSRS ROOT HI ORDER
000364:    0154     0127               ROOTPS+1           =        VBUF       +5                         #  ROOTPSRS ROOT LO ORDER
000365:    0154     0132               RETROOT            =        BUF        +2                         #  ROOTPSRS RETURN ADDRESS OF USER
000366:    0154     0140               PWRCNT             =        MATINC                                #  ROOTPSRS DER TABLE LOOP COUNTER
000367:    0154     0141               DERPTR             =        TEM1                                  #  ROOTPSRS DER TABLE POINTER
000368:


000370:                                                                                                  #  DYNAMICALLY ALLOCATED CORE SETS FOR JOBS.     (84D)
000371:
000372:    0154                        MPAC               ERASE    +6                                    #  MULTI-PURPOSE ACCUMULATOR.
000373:    0163                        MODE               ERASE                                          #  +1 FOR TP, +0 FOR DP, OR -1 FOR VECTOR.
000374:    0164                        LOC                ERASE                                          #  LOCATION ASSOCIATED WITH JOB.
000375:    0165                        BANKSET            ERASE                                          #  USUALLY CONTAINS BBANK SETTING.
000376:    0166                        PUSHLOC            ERASE                                          #  WORD OF PACKED INTERPRETIVE PARAMETERS.
000377:    0167                        PRIORITY           ERASE                                          #  PRIORITY OF PRESENT JOB AND WORK AREA.
000378:
000379:    0170                                           ERASE    +83D                                  #  EIGHT SETS OF 12 REGISTERS EACH
000380:
000381:                                                                                                  #  INCORP STORAGE:  R22 (N29)    (SHARES WITH FOLLOWING SECTION)         (4D)
000382:
000383:    0314     0314               R22DISP            EQUALS   TIME2SAV                              #  I(4) N49 DISPLAY OF DELTA R AND DELTA V
000384:
000385:                                                                                                  #  STANDBY VERB ERASABLES.  REDOCTR BEFORE THETADS.      (14D)
000386:
000387:    0314                        TIME2SAV           ERASE    +1
000388:    0316                        SCALSAVE           ERASE    +1
000389:    0320                        REDOCTR            ERASE                                          #  CONTAINS NUMBER OF RESTARTS
000390:    0321                        THETAD             ERASE    +2
000391:    0324     0321               CPHI               =        THETAD                                #  O     DESIRED GIMBAL ANGLES
000392:    0324     0322               CTHETA             =        THETAD     +1                         #  I     FOR
000393:    0324     0323               CPSI               =        THETAD     +2                         #  M     MANEUVER.
000394:    0324                        DELV               ERASE    +5
000395:    0332     0324               DELVX              =        DELV
000396:    0332     0326               DELVY              =        DELV       +2
000397:    0332     0330               DELVZ              =        DELV       +4
000398:
000399:
000400:                                                                                                  #  DOWNLINK STORAGE.                     (28D)
000401:
000402:    0332     0332               DNLSTADR           EQUALS   DNLSTCOD
000403:
000404:    0332                        DNLSTCOD           ERASE                                          #  B(1)PRM DOWNLIINK LIST CODE
000405:    0333                        DUMPCNT            ERASE                                          #  B(1)
000406:    0334                        LDATALST           ERASE    +25D                                  #  (26D)
000407:    0366     0335               DNTMGOTO           EQUALS   LDATALST   +1                         #  B(1)
000408:    0366     0336               TMINDEX            EQUALS   DNTMGOTO   +1                         #  B(1)
000409:    0366     0336               DUMPLOC            EQUALS   TMINDEX                               #  CONTAINS ECADR OF AGC DP WORD BEING DUMP
000410:                                                                                                  #  ED AND COUNT OF COMPLETE DUMPS ALREADY S
000411:                                                                                                  #  ENT.
000412:    0366     0337               DNQ                EQUALS   TMINDEX    +1                         #  B(1)
000413:    0366     0340               DNTMBUFF           EQUALS   DNQ        +1                         #  B(22)PRM DOWNLINK SNAPSHOT BUFFER
000414:
000415:                                                                                                  #  UNSWITCHED FOR DISPLAY INTERFACE ROUTINES.    (10D) FIVE MORE IN EBANK 2
000416:


000418:    0366                        RESTREG            ERASE                                          #  B(1)PRM FOR DISPLAY RESTARTS
000419:    0367                        NVWORD             ERASE
000420:    0370                        MARKNV             ERASE
000421:    0371                        NVSAVE             ERASE
000422:                                                                                                  #  (RETAIN THE ORDER OF CADRFLSH TO FAILREG +2 FOR DOWNLINK PURPOSES)
000423:    0372                        CADRFLSH           ERASE
000424:    0373                        CADRMARK           ERASE
000425:    0374                        TEMPFLSH           ERASE
000426:    0375                        FAILREG            ERASE    +2                                    #  B(3)PRM 3 ALARM CODE REGISTERS
000427:
000428:                                                                                                  #  VAC AREAS. - BE CAREFUL OF PLACEMENT- (220D)
000429:
000430:    0400                        VAC1USE            ERASE
000431:    0401                        VAC1               ERASE    +42D
000432:    0454                        VAC2USE            ERASE
000433:    0455                        VAC2               ERASE    +42D
000434:    0530                        VAC3USE            ERASE
000435:    0531                        VAC3               ERASE    +42D
000436:    0604                        VAC4USE            ERASE
000437:    0605                        VAC4               ERASE    +42D
000438:    0660                        VAC5USE            ERASE
000439:    0661                        VAC5               ERASE    +42D
000440:
000441:                                                                                                  #  WAITLIST REPEAT FLAG.                 (1D)
000442:    0734                        RUPTAGN            ERASE
000443:    0735     0734               KEYTEMP2           =        RUPTAGN                               #  TEMP FOR KEYRUPT, UPRUPT
000444:
000445:                                                                                                  #  STARALIGN ERASABLES.                  (13D)
000446:
000447:    0735                        STARCODE           ERASE                                          #  (1)
000448:    0736     0735               AOTCODE            =        STARCODE
000449:    0736                        STARALGN           ERASE    +11D
000450:    0752     0736               SINCDU             =        STARALGN
000451:    0752     0744               COSCDU             =        STARALGN   +6
000452:
000453:    0752     0742               SINCDUX            =        SINCDU     +4
000454:    0752     0736               SINCDUY            =        SINCDU
000455:    0752     0740               SINCDUZ            =        SINCDU     +2
000456:    0752     0750               COSCDUX            =        COSCDU     +4
000457:    0752     0744               COSCDUY            =        COSCDU
000458:    0752     0746               COSCDUZ            =        COSCDU     +2
000459:
000460:                                                                                                  #  PHASE TABLE AND RESTART COUNTERS.     (12D)
000461:
000462:    0752                        -PHASE1            ERASE
000463:


000465:    0753                        PHASE1             ERASE
000466:    0754                        -PHASE2            ERASE
000467:    0755                        PHASE2             ERASE
000468:    0756                        -PHASE3            ERASE
000469:    0757                        PHASE3             ERASE
000470:    0760                        -PHASE4            ERASE
000471:    0761                        PHASE4             ERASE
000472:    0762                        -PHASE5            ERASE
000473:    0763                        PHASE5             ERASE
000474:    0764                        -PHASE6            ERASE
000475:    0765                        PHASE6             ERASE
000476:
000477:                                                                                                  #  A**SR*T STORAGE.                      (6D)
000478:
000479:    0766                        CDUSPOT            ERASE    +5                                    #  B(6)
000480:
000481:    0774     0766               CDUSPOTY           =        CDUSPOT
000482:    0774     0770               CDUSPOTZ           =        CDUSPOT    +2
000483:    0774     0772               CDUSPOTX           =        CDUSPOT    +4
000484:
000485:                                                                                                  #  VERB 37 STORAGE.                      (2D)
000486:
000487:    0774                        MINDEX             ERASE                                          #  B(1)TMP INDEX FOR MAJOR MODE
000488:    0775                        MMNUMBER           ERASE                                          #  B(1)TMP MAJOR MODE REQUESTED BY V37
000489:
000490:                                                                                                  #  PINBALL INTERRUPT ACTION.             (1D)
000491:
000492:    0776                        DSPCNT             ERASE                                          #  B(1)PRM COUNTER FOR DSPOUT.
000493:
000494:                                                                                                  #  PINBALL EXECUTIVE ACTION              (44D)
000495:
000496:    0777                        DSPCOUNT           ERASE                                          #  DISPLAY POSITION INDICATOR.
000497:    1000                        DECBRNCH           ERASE                                          #  +DEC, -DEC, OCT INDICATOR
000498:    1001                        VERBREG            ERASE                                          #  VERB CODE
000499:    1002                        NOUNREG            ERASE                                          #  NOUN CODE
000500:    1003                        XREG               ERASE                                          #  R1 INPUT BUFFER
000501:    1004                        YREG               ERASE                                          #  R2 INPUT BUFFER
000502:    1005                        ZREG               ERASE                                          #  R3 INPUT BUFFER
000503:    1006                        XREGLP             ERASE                                          #  LO PART OF XREG (FOR DEC CONV ONLY)
000504:    1007                        YREGLP             ERASE                                          #  LO PART OF YREG (FOR DEC CONV ONLY)
000505:    1010     1007               HITEMOUT           =        YREGLP                                #  TEMP FOR DISPLAY OF HRS,MIN,SEC
000506:                                                                                                  #  MUST = LOTEMOUT-1.
000507:    1010                        ZREGLP             ERASE                                          #  LO PART OF ZREG (FOR DEC CONV ONLY)
000508:    1011     1010               LOTEMOUT           =        ZREGLP                                #  TEMP FOR DISPLAY OF HRS,MIN,SEC
000509:                                                                                                  #  MUST = HITEMOUT+1.
000510:    1011                        MODREG             ERASE                                          #  MODE CODE
000511:


000513:    1012                        DSPLOCK            ERASE                                          #  KEYBOARD/SUBROUTINE CALL INTERLOCK
000514:    1013                        REQRET             ERASE                                          #  RETURN REGISTER FOR LOAD
000515:    1014                        LOADSTAT           ERASE                                          #  STATUS INDICATOR FOR LOADTST
000516:    1015                        CLPASS             ERASE                                          #  PASS INDICATOR CLEAR
000517:    1016                        NOUT               ERASE                                          #  ACTIVITY COUNTER FOR DSPTAB
000518:    1017                        NOUNCADR           ERASE                                          #  MACHINE CADR FOR NOUN
000519:    1020                        MONSAVE            ERASE                                          #  N/V CODE FOR MONITOR. (= MONSAVE1-1)
000520:    1021                        MONSAVE1           ERASE                                          #  NOUNCADR FOR MONITOR (MATBS) = MONSAVE+1
000521:    1022                        MONSAVE2           ERASE                                          #  NVMONOPT OPTIONS
000522:    1023                        DSPTAB             ERASE    +11D                                  #  0-10D, DISPLAY PANEL BUFF.  11D, C/S LTS.
000523:    1037                        NVQTEM             ERASE                                          #  NVSUB STORAGE FOR CALLING ADDRESS
000524:                                                                                                  #  MUST = NVBNKTEM-1
000525:    1040                        NVBNKTEM           ERASE                                          #  NVSUB STORAGE FOR CALLING BANK
000526:                                                                                                  #  MUST = NVQTEM+1
000527:    1041                        VERBSAVE           ERASE                                          #  NEEDED FOR RECYCLE
000528:    1042                        CADRSTOR           ERASE                                          #  ENDIDLE STORAGE
000529:    1043                        DSPLIST            ERASE                                          #  WAITING REG FOR DSP SYST INTERNAL USE
000530:    1044                        EXTVBACT           ERASE                                          #  EXTENDED VERB ACTIVITY INTERLOCK
000531:    1045                        DSPTEM1            ERASE    +2                                    #  BUFFER STORAGE AREA 1 (MOSTLY FOR TIME)
000532:    1050                        DSPTEM2            ERASE    +2                                    #  BUFFER STORAGE AREA 2 (MOSTLY FOR DEG)
000533:
000534:    1053     1051               DSPTEMX            EQUALS   DSPTEM2    +1                         #  B(2) S-S DISPLAY BUFFER FOR EXT. VERBS
000535:    1053     1045               NORMTEM1           EQUALS   DSPTEM1                               #  B(3)DSP NORMAL DISPLAY REGISTERS.
000536:
000537:                                                                                                  #  DISPLAY FOR EXTENDED VERBS (V82, R04(V62), V41(N72) ) (2D)
000538:
000539:    1053     1051               OPTIONX            EQUALS   DSPTEMX                               #  (2) EXTENDED VERB OPTION CODE
000540:
000541:                                                                                                  #  TBASES AND PHSPRDT S.                 (12D)
000542:
000543:    1053                        TBASE1             ERASE
000544:    1054                        PHSPRDT1           ERASE
000545:    1055                        TBASE2             ERASE
000546:    1056                        PHSPRDT2           ERASE
000547:    1057                        TBASE3             ERASE
000548:    1060                        PHSPRDT3           ERASE
000549:    1061                        TBASE4             ERASE
000550:    1062                        PHSPRDT4           ERASE
000551:    1063                        TBASE5             ERASE
000552:    1064                        PHSPRDT5           ERASE
000553:    1065                        TBASE6             ERASE
000554:    1066                        PHSPRDT6           ERASE
000555:
000556:                                                                                                  #  UNSWITCHED FOR DISPLAY INTERFACE ROUTINES.    (6D)
000557:


000559:    1067                        NVWORD1            ERASE                                          #  B(1) PROBABLY FOR DISPLAY DURING SERVICER
000560:    1070                        EBANKSAV           ERASE
000561:    1071                        MARKEBAN           ERASE
000562:    1072                        EBANKTEM           ERASE
000563:    1073                        MARK2PAC           ERASE
000564:    1074                        R1SAVE             ERASE
000565:
000566:                                                                                                  #  IMU COMPENSATION UNSWITCHED ERASABLE.         (1D)
000567:
000568:    1075                        1/PIPADT           ERASE
000569:
000570:                                                                                                  #  SINGLE PRECISION SUBROUTINE TEMPORARIES.      (2D)
000571:
000572:    1076                        TEMK               ERASE                                          #  (1)
000573:    1077                        SQ                 ERASE                                          #  (1)
000574:
000575:                                                                                                  #  UNSWITCHED RADAR ERASABLE                     (13D)
000576:
000577:    1100                        SAMPLIM            ERASE
000578:    1101                        SAMPLSUM           ERASE    +3
000579:    1105                        TIMEHOLD           ERASE    +1
000580:    1107     1101               RRTARGET           EQUALS   SAMPLSUM                              #  HALF U IT VECTOR IN SM OR NB AXES.
000581:    1107                        TANG               ERASE    +1                                    #  DESIRE TRUNNION AND SHAFT ANGLES.
000582:    1111     1107               MODEA              EQUALS   TANG
000583:    1111                        MODEB              ERASE    +1                                    #  DODES LOBBERS TANG +2.
000584:    1113     1111               NSAMP              EQUALS   MODEB
000585:    1113                        DESRET             ERASE
000586:    1114     1113               OLDATAGD           EQUALS   DESRET                                #  USED I  DATA READING ROUTINES.
000587:    1114                        DESCOUNT           ERASE
000588:
000589:                                                                                                  #  ******   P22  ******                          (6D)
000590:
000591:    1115     1101               RSUBC              EQUALS   RRTARGET                              #  I(6) S-S CSM POSITION VECTOR
000592:


000594:                                                                                                  #  UNSWITCHED FOR ORBIT INTEGRATION.             (21D)
000595:
000596:    1115                        TDEC               ERASE    +20D                                  #  I(2)
000597:    1142     1117               COLREG             EQUALS   TDEC       +2                         #  I(1)
000598:    1142     1120               LAT                EQUALS   COLREG     +1                         #  I(2)
000599:    1142     1122               LONG               EQUALS   LAT        +2                         #  I(2)
000600:    1142     1124               ALT                EQUALS   LONG       +2                         #  I(2)
000601:    1142     1126               YV                 EQUALS   ALT        +2                         #  I(6)
000602:    1142     1134               ZV                 EQUALS   YV         +6                         #  I(6)
000603:
000604:                                                                                                  #  MISCELLANEOUS UNSWITCHED.                     (20D)
000605:
000606:    1142                        P40/RET            ERASE                                          #  (WILL BE PUT IN E6 WHEN THERE IS ROOM)
000607:    1143                        GENRET             ERASE                                          #  B(1) R61 RETURN CADR.
000608:    1144                        OPTION1            ERASE                                          #  B(1) NOUN 06 USES THIS
000609:    1145                        OPTION2            ERASE                                          #  B(1) NOUN 06 USES THIS
000610:    1146                        OPTION3            ERASE                                          #  B(1) NOUN 06 USES THIS
000611:    1147                        LONGCADR           ERASE    +1                                    #  B(2) LONGCALL REGISTER
000612:    1151                        LONGBASE           ERASE    +1
000613:    1153                        LONGTIME           ERASE    +1                                    #  B(2) LONGCALL REGISTER
000614:    1155                        CDUTEMPX           ERASE                                          #  B(1)TMP
000615:    1156                        CDUTEMPY           ERASE                                          #  B(1)TMP
000616:    1157                        CDUTEMPZ           ERASE                                          #  B(1)TMP
000617:    1160                        PIPATMPX           ERASE                                          #  B(1)TMP
000618:    1161                        PIPATMPY           ERASE                                          #  B(1)TMP
000619:    1162                        PIPATMPZ           ERASE                                          #  B(1)TMP
000620:
000621:    1163                        DISPDEX            ERASE                                          #  B(1)
000622:    1164                        TEMPR60            ERASE                                          #  B(1)
000623:    1165                        PRIOTIME           ERASE                                          #  B(1)
000624:
000625:                                                                                                  #  P27 (UPDATE PROGRAM) STORAGE.                 (26D)
000626:
000627:    1166                        UPVERBSV           ERASE                                          #  B(1) UPDATE VERB ATTEMPTED.
000628:    1167                        UPTEMP             ERASE    +24D                                  #  B(1)TMP SCRATCH
000629:    1220     1167               INTWAK1Q           EQUALS   UPTEMP                                #  (BORROWS UPTEMP REGISTERS)
000630:                                                                                                  #  RETAIN THE ORDER OF COMPNUMB THRU UPBUFF +19D FOR DOWNLINK PURPOSES.
000631:    1220     1170               COMPNUMB           EQUALS   UPTEMP     +1                         #  B(1)TMP NUMBER OF ITEMS TO BE UPLINKED
000632:    1220     1171               UPOLDMOD           EQUALS   COMPNUMB   +1                         #  B(1)TMP INTERRUPTED PROGRAM MM
000633:    1220     1172               UPVERB             EQUALS   UPOLDMOD   +1                         #  B(1)TMP VERB NUMBER
000634:    1220     1173               UPCOUNT            EQUALS   UPVERB     +1                         #  B(1)TMP UPBUFF INDEX
000635:    1220     1174               UPBUFF             EQUALS   UPCOUNT    +1                         #  B(20D)
000636:
000637:                                                                                                  #  SPECIAL DEFINITION FOR SYSTEM TEST ERASABLE PGMS.     (2D)
000638:
000639:    1220     1167               EBUF2              EQUALS   UPTEMP                                #  B(2) FOR EXCLUSIVE USE OF SYSTEM TEST
000640:


000642:                                                                                                  #  PERM STATE VECTORS FOR BOOST AND DOWNLINK-WHOLE MISSION-      (14D)
000643:
000644:    1220                        RN                 ERASE    +5                                    #  B(6)PRM
000645:    1226                        VN                 ERASE    +5                                    #  B(6)PRM
000646:    1234                        PIPTIME            ERASE    +1                                    #  B(2)PRM (MUST BE FOLLOWED BY GDT/2)
000647:
000648:                                                                                                  #  SERVICER -MUST FOLLOW PIPTIME-                (19D)
000649:
000650:    1236                        GDT/2              ERASE    +19D                                  #  B(6)TMP (MUST FOLLOW PIPTIME)
000651:    1262     1244               MASS               EQUALS   GDT/2      +6                         #  B(2)
000652:    1262     1244               WEIGHT/G           =        MASS
000653:    1262     1246               ABDELV             EQUALS   MASS       +2                         #  ALCMANU STORAGE)
000654:    1262     1247               PGUIDE             EQUALS   ABDELV     +1                         #  (2)
000655:    1262     1251               DVTHRUSH           EQUALS   PGUIDE     +2                         #  (1)
000656:    1262     1252               AVEGEXIT           EQUALS   DVTHRUSH   +1                         #  (2)
000657:    1262     1252               AVGEXIT            =        AVEGEXIT
000658:    1262     1254               TEMX               EQUALS   AVEGEXIT   +2                         #  (1)
000659:    1262     1255               TEMY               EQUALS   TEMX       +1                         #  (1)
000660:    1262     1256               TEMZ               EQUALS   TEMY       +1                         #  (1)
000661:    1262     1257               PIPAGE             EQUALS   TEMZ       +1                         #  B(1)
000662:    1262     1260               OUTROUTE           EQUALS   PIPAGE     +1                         #  B(1)
000663:
000664:                                                                                                  #  PERMANENT LEM DAP STORAGE.            (12D)
000665:
000666:    1262                        CH5MASK            ERASE                                          #  B(1)PRM
000667:    1263                        CH6MASK            ERASE                                          #  B(1)PRM JET FAILURE MASK.
000668:    1264                        DTHETASM           ERASE    +5                                    #   (6)
000669:    1272                        SPNDX              ERASE                                          #  B(1)
000670:    1273                        RCSFLAGS           ERASE                                          #  AUTOPILOT FLAG WORD
000671:                                                                                                  #  BIT ASSIGNMENTS:
000672:                                                                                                  #   1) ALTERYZ SWITCH (ZEROOR1)
000673:                                                                                                  #   2) NEEDLER SWITCH
000674:                                                                                                  #   3) NEEDLER SWITCH
000675:                                                                                                  #   4) NEEDLER SWITCH
000676:                                                                                                  #   5) NEEDLER SWITCH
000677:                                                                                                  #   9) JUST-IN-DETENT SWITCH
000678:                                                                                                  #  10) PBIT - MANUAL CONTROL SWITCH
000679:                                                                                                  #  11) QRBIT - MANUAL CONTROL SWITCH
000680:                                                                                                  #  12) PSKIP CONTROL (PJUMPADR)
000681:                                                                                                  #  13) 1/ACCJOB CONTROL (ACCSET)
000682:    1274                        T5ADR              ERASE    +1                                    #  GENADR OF NEXT LM DAP T5RUPT. * 2CADR *
000683:                                                                                                  #  BBCON  OF NEXT LM DAP T5RUPT.   2CADR
000684:


000686:
000687:                                                                                                  #  RCS FAILURE MONITOR STORAGE.          (1)
000688:
000689:    1276                        PVALVEST           ERASE                                          #  B(1)PRM
000690:
000691:                                                                                                  #  KALCMANU/DAP INTERFACE.                       (3D)
000692:
000693:    1277                        DELPEROR           ERASE                                          #  B(1)PRM COMMAND LAGS.
000694:    1300                        DELQEROR           ERASE                                          #  B(1)PRM
000695:    1301                        DELREROR           ERASE                                          #  B(1)PRM
000696:
000697:                                                                                                  #  MODE SWITCHING ERASABLE.                      (9D)
000698:
000699:                                                                                                  #  RETAIN THE ORDER OF IMODES30 AND IMODES33 FOR DOWNLINK PURPOSES.
000700:    1302                        IMODES30           ERASE                                          #  B(1)
000701:    1303                        IMODES33           ERASE
000702:    1304                        MODECADR           ERASE    +2                                    #  B(3)PRM
000703:    1307     1304               IMUCADR            EQUALS   MODECADR
000704:    1307     1305               OPTCADR            EQUALS   MODECADR   +1
000705:    1307     1306               RADCADR            EQUALS   MODECADR   +2
000706:    1307                        ATTCADR            ERASE    +2                                    #  B(3)PRM
000707:    1312     1311               ATTPRIO            =        ATTCADR    +2
000708:    1312                        MARKSTAT           ERASE
000709:
000710:                                                                                                  #  T4RUPT ERASABLE.                              (2D)
000711:
000712:    1313                        DSRUPTSW           ERASE
000713:    1314                        LGYRO              ERASE                                          #  (1)
000714:
000715:                                                                                                  #  RENDEZVOUS RADAR TASK STORAGE                 (3D)
000716:
000717:    1315                        RRRET              ERASE    +2D                                   #  B(1)TMP       P20'S, PERHAPS R29 & R12
000718:    1320     1316               RDES               EQUALS   RRRET      +1                         #  B(1)TMP
000719:    1320     1317               RRINDEX            EQUALS   RDES       +1                         #  B(1)TMP
000720:
000721:                                                                                                  #  MEASINC                                       (4D)
000722:
000723:    1320                        WIXA               ERASE                                          #  B(1)
000724:    1321                        WIXB               ERASE                                          #  B(1)
000725:    1322                        ZIXA               ERASE                                          #  B(1)
000726:    1323                        ZIXB               ERASE                                          #  B(1)
000727:


000729:
000730:                                                                                                  #  AGS DUMMY ID WORD.                            (1D)
000731:
000732:    1324                        AGSWORD            ERASE
000733:
000734:                                                                                                  #  SOME MISCELLANEOUS UNSWITCHED.                (6D)
000735:
000736:    1325                        RATEINDX           ERASE                                          #  (1) USED BY KALCMANU
000737:    1326                        DELAYLOC           ERASE    +2
000738:    1331                        LEMMASS            ERASE                                          #  KEEP CONTIGUOUS W. CSMMASS  (1) EACH
000739:    1332                        CSMMASS            ERASE
000740:
000741:                                                                                                  #  LESS IS MORE.
000742:
000743:                                                                                                  #  RENDEZVOUS AND LANDING RADAR DOWNLINK STORAGE.        (7D)
000744:
000745:                                                                                                  #        (NORMALLY USED DURING P20, BUT MAY ALSO)
000746:                                                                                                  #        (BE REQUIRED FOR THE V62 SPURIOUS TEST.)
000747:
000748:                                                                                                  #                    (PLEASE KEEP IN THIS ORDER)
000749:
000750:    1333                        DNRRANGE           ERASE    +6                                    #  B(1)TMP
000751:    1342     1334               DNRRDOT            EQUALS   DNRRANGE   +1                         #  B(1)TMP
000752:    1342     1335               DNINDEX            EQUALS   DNRRDOT    +1                         #  B(1)TMP
000753:    1342     1336               DNLRVELX           EQUALS   DNINDEX    +1                         #  B(1)TMP
000754:    1342     1337               DNLRVELY           EQUALS   DNLRVELX   +1                         #  B(1)TMP
000755:    1342     1340               DNLRVELZ           EQUALS   DNLRVELY   +1                         #  B(1)TMP
000756:    1342     1341               DNLRALT            EQUALS   DNLRVELZ   +1                         #  B(1)TMP
000757:
000758:                                                                                                  #  INCORPORATION UNSWITCHED.                     (2D)
000759:
000760:    1342     1257               W.IND              EQUALS   PIPAGE                                #  B(1)
000761:    1342     1260               W.IND1             EQUALS   W.IND      +1                         #  I(1)
000762:
000763:                                                                                                  #  SUBROUTINE BALLANGS OF R60.                   (1D)
000764:
000765:    1342                        BALLEXIT           ERASE                                          #  B(1) SAVE LOCATION FOR BALLINGS SUBR EXIT
000766:
000767:                                                                                                  #  SOME LEM DAP STORAGE.                         (4D)
000768:
000769:    1343                        DAPDATR1           ERASE                                          #  B(1)DSP DAP CONFIG.
000770:    1344                        TEVENT             ERASE    +1                                    #  B(2)DSP
000771:    1346                        DB                 ERASE                                          #  B(1)TMP DEAD BAND.
000772:
000773:                                                                                                  #  NOUN 87                                       (2D)
000774:    1347                        AZ                 ERASE    +1D                                   #  B(1) AZ AND EL MUST BE CONTIGUOUS
000775:


000777:    1351     1350               EL                 EQUALS   AZ         +1D                        #  B(1)
000778:
000779:                                                                                                  #  P63, P64, P65, P66, AND P67.                  (1D)
000780:
000781:    1351                        WCHPHASE           ERASE                                          #  B(1)
000782:
000783:                                                                                                  #  ERASABLES FOR THE R2 LUNAR POTENTIAL MODEL    (2D)
000784:
000785:    1352                        E3J22R2M           ERASE                                          #  I(1)
000786:    1353                        E32C31RM           ERASE                                          #  I(1)
000787:
000788:    1354                        END-UE             EQUALS                                         #  NEXT UNUSED UE ADDRESS
000789:
000790:                                                                                                  #           SELF-CHECK ASSIGNMENTS.              (17D)
000791:
000792:                                                                                                  #                                  (DO NOT MOVE, S-C IS ADDRESS SENSITIVE)
000793:
000794:    1354                        SELFERAS           ERASE    1357       -          1377            #  *** MUST NOT BE MOVED ***
000795:    1354     1357               SFAIL              EQUALS   SELFERAS                              #  B(1)
000796:    1354     1360               ERESTORE           EQUALS   SFAIL      +1                         #  B(1)
000797:    1354     1361               SELFRET            EQUALS   ERESTORE   +1                         #  B(1) RETURN
000798:    1354     1362               SMODE              EQUALS   SELFRET    +1                         #  B(1)
000799:    1354     1363               ALMCADR            EQUALS   SMODE      +1                         #  B(2) ALARM-ABORT USER'S 2CADR
000800:    1354     1365               ERCOUNT            EQUALS   ALMCADR    +2                         #  B(1)
000801:    1354     1366               SCOUNT             EQUALS   ERCOUNT    +1                         #  B(3)
000802:    1354     1371               SKEEP1             EQUALS   SCOUNT     +3                         #  B(1)
000803:    1354     1372               SKEEP2             EQUALS   SKEEP1     +1                         #  B(1)
000804:    1354     1373               SKEEP3             EQUALS   SKEEP2     +1                         #  B(1)
000805:    1354     1374               SKEEP4             EQUALS   SKEEP3     +1                         #  B(1)
000806:    1354     1375               SKEEP5             EQUALS   SKEEP4     +1                         #  B(1)
000807:    1354     1376               SKEEP6             EQUALS   SKEEP5     +1                         #  B(1)
000808:    1354     1377               SKEEP7             EQUALS   SKEEP6     +1                         #  B(1)


000810:                                                                                                  #  EBANK-3 ASSIGNMENTS
000811:
000812: E3,1400                                           SETLOC   1400
000813:
000814:                                                                                                  #  WAITLIST TASK LISTS.                                  (26D)
000815:
000816: E3,1400                        LST1               ERASE    +7                                    #  B(8D)PRM DELTA T S.
000817: E3,1410                        LST2               ERASE    +17D                                  #  B(18D)PRM TASK 2CADR ADDRESSES.
000818:
000819:                                                                                                  #  RESTART STORAGE.                                      (2D)
000820:
000821: E3,1432                        RSBBQ              ERASE    +1                                    #  B(2)PRM SAVE BB AND Q FOR RESTARTS.
000822:
000823:                                                                                                  #  MORE LONGCALL STORAGE.  (MUST BE IN LST1 S BANK.      (2D)
000824:
000825: E3,1434                        LONGEXIT           ERASE    +1                                    #  B(2)TMP MAY BE SELDOM OVERLAYED.
000826:
000827:                                                                                                  #  PHASE-CHANGE LISTS PART II.                           (12D)
000828:
000829:
000830: E3,1436                        PHSNAME1           ERASE                                          #  B(1)PRM
000831: E3,1437                        PHSBB1             ERASE                                          #  B(1)PRM
000832: E3,1440                        PHSNAME2           ERASE                                          #  B(1)PRM
000833: E3,1441                        PHSBB2             ERASE                                          #  B(1)PRM
000834: E3,1442                        PHSNAME3           ERASE                                          #  B(1)PRM
000835: E3,1443                        PHSBB3             ERASE                                          #  B(1)PRM
000836: E3,1444                        PHSNAME4           ERASE                                          #  B(1)PRM
000837: E3,1445                        PHSBB4             ERASE                                          #  B(1)PRM
000838: E3,1446                        PHSNAME5           ERASE                                          #  B(1)PRM
000839: E3,1447                        PHSBB5             ERASE                                          #  B(1)PRM
000840: E3,1450                        PHSNAME6           ERASE                                          #  B(1)PRM
000841: E3,1451                        PHSBB6             ERASE                                          #  B(1)PRM
000842:
000843:                                                                                                  #  IMU COMPENSATION PARAMETERS.                          (22D)
000844:
000845: E3,1452                        PBIASX             ERASE                                          #  B(1) PIPA BIAS, PIPA SCALE FACTR TERMS
000846: E3,1453  E3,1452               PIPABIAS           =        PBIASX                                #  INTERMIXED.
000847: E3,1453                        PIPASCFX           ERASE
000848: E3,1454  E3,1453               PIPASCF            =        PIPASCFX
000849: E3,1454                        PBIASY             ERASE
000850: E3,1455                        PIPASCFY           ERASE
000851: E3,1456                        PBIASZ             ERASE
000852: E3,1457                        PIPASCFZ           ERASE
000853:
000854: E3,1460                        NBDX               ERASE                                          #  GYRO BIAS DRIFTS
000855: E3,1461                        NBDY               ERASE
000856: E3,1462                        NBDZ               ERASE


000858: E3,1463                        ADIAX              ERASE                                          #  ACCELERATION SENSITIVE DRIFT ALONG THE
000859: E3,1464                        ADIAY              ERASE                                          #  INPUT AXIS
000860: E3,1465                        ADIAZ              ERASE
000861:
000862: E3,1466                        ADSRAX             ERASE                                          #  ACCELERATION SENSITIVE DRIFT ALONG THE
000863: E3,1467                        ADSRAY             ERASE                                          #  SPIN REFERENCE AXIS
000864: E3,1470                        ADSRAZ             ERASE
000865:
000866: E3,1471                        GCOMP              ERASE    +5                                    #  CONTAINS COMPENSATING TORQUES
000867:
000868: E3,1477  E3,1471               COMMAND            EQUALS   GCOMP
000869: E3,1477  E3,1474               CDUIND             EQUALS   GCOMP      +3
000870:
000871: E3,1477                        GCOMPSW            ERASE
000872:
000873:                                                                                                  #  STATE VECTORS FOR ORBIT INTEGRATION.          (44D)
000874:
000875:                                                                                                  #                (DIFEQCNT THRU XKEP MUST BE IN SAME
000876:                                                                                                  #                EBANK AS RRECTCSM, RRECTLEM ETC
000877:                                                                                                  #                BECAUSE THE COPY-CYCLES (ATOPCSM,
000878:                                                                                                  #                PTOACSM ETC) ARE EXECUTED IN BASIC.
000879:                                                                                                  #                ALL OTHER REFERENCES TO THIS GROUP
000880:                                                                                                  #                ARE BY INTERPRETIVE INSTRUCTIONS.)
000881:
000882:
000883: E3,1500                        DIFEQCNT           ERASE    +43D                                  #  B(1)
000884:                                                                                                  #  (UPSVFLAG...XKEP MUST BE KEPT IN ORDER)
000885:
000886: E3,1554  E3,1501               UPSVFLAG           EQUALS   DIFEQCNT   +1                         #  B(1)
000887: E3,1554  E3,1502               RRECT              EQUALS   UPSVFLAG   +1                         #  B(6)
000888: E3,1554  E3,1510               VRECT              EQUALS   RRECT      +6                         #  B(6)
000889: E3,1554  E3,1516               TET                EQUALS   VRECT      +6                         #  B(2)
000890: E3,1554  E3,1520               TDELTAV            EQUALS   TET        +2                         #  B(6)
000891: E3,1554  E3,1526               TNUV               EQUALS   TDELTAV    +6                         #  B(6)
000892: E3,1554  E3,1534               RCV                EQUALS   TNUV       +6                         #  B(6)
000893: E3,1554  E3,1542               VCV                EQUALS   RCV        +6                         #  B(6)
000894: E3,1554  E3,1550               TC                 EQUALS   VCV        +6                         #  B(2)
000895: E3,1554  E3,1552               XKEP               EQUALS   TC         +2                         #  B(2)
000896:
000897:                                                                                                  #  PERMANENT STATE VECTORS AND TIMES.    (99D)
000898:
000899:                                                                                                  #  (DO NOT OVERLAY WITH ANYTHING AFTER BOOST)
000900:
000901:                                                                                                  #  (RRECTCSM...XKEPCSM MUST BE KEPT IN THIS ORDER)
000902:
000903: E3,1554                        RRECTCSM           ERASE    +5                                    #  B(6)PRM CSM VARIABLES.
000904: E3,1562  E3,1554               RRECTOTH           =        RRECTCSM
000905: E3,1562                        VRECTCSM           ERASE    +5                                    #  B(6)PRM


000907: E3,1570                        TETCSM             ERASE    +1                                    #  B(2)PRM
000908: E3,1572  E3,1570               TETOTHER           =        TETCSM
000909: E3,1572                        DELTACSM           ERASE    +5                                    #  B(6)PRM
000910: E3,1600                        NUVCSM             ERASE    +5                                    #  B(6)PRM
000911: E3,1606                        RCVCSM             ERASE    +5                                    #  B(6)PRM
000912: E3,1614                        VCVCSM             ERASE    +5                                    #  B(6)PRM
000913: E3,1622                        TCCSM              ERASE    +1                                    #  B(2)PRM
000914: E3,1624                        XKEPCSM            ERASE    +1                                    #  B(2)PRM
000915:
000916:                                                                                                  #  (RRECTLEM...XKEPLEM MUST BE KEPT IN THIS ORDER)
000917:
000918: E3,1626                        RRECTLEM           ERASE    +5                                    #  B(6)PRM LEM VARIABLES
000919: E3,1634  E3,1626               RRECTHIS           =        RRECTLEM
000920: E3,1634                        VRECTLEM           ERASE    +5                                    #  B(6)PRM
000921: E3,1642                        TETLEM             ERASE    +1                                    #  B(2)PRM
000922: E3,1644  E3,1642               TETTHIS            =        TETLEM
000923: E3,1644                        DELTALEM           ERASE    +5                                    #  B(6)PRM
000924: E3,1652                        NUVLEM             ERASE    +5                                    #  B(6)PRM
000925: E3,1660                        RCVLEM             ERASE    +5                                    #  B(6)PRM
000926: E3,1666                        VCVLEM             ERASE    +5                                    #  B(6)PRM
000927: E3,1674                        TCLEM              ERASE    +1                                    #  B(2)PRM
000928: E3,1676                        XKEPLEM            ERASE    +1                                    #  B(2)PRM
000929:
000930: E3,1700                        X789               ERASE    +5
000931: E3,1706                        TEPHEM             ERASE    +2
000932: E3,1711                        AZO                ERASE    +1
000933: E3,1713                        -AYO               ERASE    +1
000934: E3,1715                        AXO                ERASE    +1
000935:
000936:                                                                                                  #  STATE VECTORS FOR DOWNLINK.                   (12D)
000937:
000938: E3,1717                        R-OTHER            ERASE    +5                                    #  B(6)PRM POS VECT (OTHER VECH) FOR DNLINK
000939: E3,1725                        V-OTHER            ERASE    +5                                    #  B(6)PRM VEL VECT (OTHER VECH) FOR DNLINK
000940:
000941: E3,1733  E3,1570               T-OTHER            =        TETCSM                                #              TIME (OTHER VECH) FOR DNLINK
000942:
000943:                                                                                                  #  REFSMMAT.                                     (18D)
000944:
000945: E3,1733                        REFSMMAT           ERASE    +17D                                  #  I(18D)PRM
000946:
000947:                                                                                                  #  ACTIVE VEHICLE CENTANG.  MUST BE DISPLAYED ANYTIME (ALMOST.)  (2D)
000948:
000949: E3,1755                        ACTCENT            ERASE    +1                                    #  I(2) S-S CENTRAL ANGLE BETWEEN ACTIVE
000950:                                                                                                  #  VEHICLE AT TPI TIG AND TARGET VECTOR.
000951:
000952:                                                                                                  #  **** USED IN CONICSEX (PLAN INERT ORIENT) ****


000954: E3,1757  E3,1706               TIMSUBO            EQUALS   TEPHEM                                #  CSEC B-42 (TRIPLE PRECISION)
000955:
000956:                                                                                                  #  LPS20.1 STORAGE       -ALL ARE PRM -          (9D)
000957:
000958: E3,1757                        LS21X              ERASE                                          #  I(1)
000959: E3,1760                        LOSVEL             ERASE    +5                                    #  I(6)
000960: E3,1766                        MLOSV              ERASE    +1                                    #  I(2) MAGNITUDE OF LOS, METERS B-29
000961:
000962:                                                                                                  #  ***** P22 ***** (OVERLAYS LPS 20.1 STORAGE)   (6D)
000963: E3,1770  E3,1760               VSUBC              EQUALS   LOSVEL                                #  I(6) S-S CSM VELOCITY VECTOR
000964:
000965:                                                                                                  #  PADLOADED ERASABLES FOR P20/P22               (6D)
000966:
000967: E3,1770                        RANGEVAR           ERASE    +1                                    #  I(2) RR RANGE ERROR VARIANCE
000968: E3,1772                        RATEVAR            ERASE    +1                                    #  I(2) RR RANGE-RATE ERROR VARIANCE
000969: E3,1774                        RVARMIN            ERASE                                          #  I(1) MINIMUM RANGE ERROR VARIANCE
000970: E3,1775                        VVARMIN            ERASE                                          #  I(1) MINIMUM RANGE-RATE ERROR VARIANCE
000971:
000972:                                                                                                  #  P32-P33 STORAGE                               (2D)
000973:
Warning:  May overflow memory bank.
000974: E3,1776                        TCDH               ERASE    +1                                    #  I(2) T2 CDH TIME IN CS. (ALSO DOWNLINKED
000975:
000976: E3,1777                        END-E3             EQUALS   1777                                  #  ** LAST LOCATION USED IN E3 **
000977:


000979:                                                                                                  #  EBANK-4 ASSIGNMENTS
000980:
000981: E4,1400                                           SETLOC   2000
000982:
000983:                                                                                                  #  E4 IS, FOR THE MOST PART RESERVED FOR PAD LOADED AND UNSHARABLE ERASE.
000984:
000985: E4,1400                        AMEMORY            EQUALS
000986:
000987:                                                                                                  #  P20 STORAGE.  -PAD LOADED-                            (6D)
000988:
000989: E4,1400                        WRENDPOS           ERASE                                          #  B(1)PL        KM*2(-7)
000990: E4,1401                        WRENDVEL           ERASE                                          #  B(1)PL        KM(-1/2)*2(11)
000991: E4,1402                        WSHAFT             ERASE                                          #  B(1)PL        KM*2(-7)
000992: E4,1403                        WTRUN              ERASE                                          #  B(1)PL        KM*2(-7)
000993: E4,1404                        RMAX               ERASE                                          #  B(1)PL        METERS*2(-19)
000994: E4,1405                        VMAX               ERASE                                          #  B(1)PL        M/CSEC*2(-7)
000995:
000996:                                                                                                  #  LUNAR SURFACE NAVIGATION                              (2D)
000997:
000998: E4,1406                        WSURFPOS           ERASE                                          #  B(1)PL
000999: E4,1407                        WSURFVEL           ERASE                                          #  B(1)PL
001000:
001001:                                                                                                  #  P22 STORAGE.  -PAD LOADED-            (2D)
001002:
001003: E4,1410                        SHAFTVAR           ERASE                                          #  B(1)PL        RAD SQ*2(12)
001004: E4,1411                        TRUNVAR            ERASE                                          #  B(1)PL        RAD SQ*2(10)
001005:
001006:                                                                                                  #  CONISEX STORAGE.-PAD LOADED-          (6D)
001007:
001008: E4,1412                        504LM              ERASE    +5                                    #  I(6) MOON LIBRATION VECTOR
001009:
001010:                                                                                                  #  V47 (R47) AGS INITIALIZATION STORAGE. -PAD LOADED-    (2D)
001011:
001012: E4,1420                        AGSK               ERASE    +1
001013:
001014:                                                                                                  #  LUNAR LANDING STORAGE. -PAD LOADED-                   (6D)
001015:
001016: E4,1422                        RLS                ERASE    +5                                    #  I(6) LANDING SITE VECTOR -MOON REF
001017:
001018:                                                                                                  #  INTEGRATION STORAGE.                          (102D)
001019:
001020: E4,1430                        PBODY              ERASE    +101D                                 #  I(1)


001022: E4,1576  E4,1431               ALPHAV             EQUALS   PBODY      +1                         #  I(6)
001023: E4,1576  E4,1437               BETAV              EQUALS   ALPHAV     +6                         #  I(6)
001024: E4,1576  E4,1445               PHIV               EQUALS   BETAV      +6                         #  I(6)
001025: E4,1576  E4,1453               PSIV               EQUALS   PHIV       +6                         #  I(6)
001026: E4,1576  E4,1461               FV                 EQUALS   PSIV       +6                         #  I(6)  PERTURBING ACCELERATIONS
001027: E4,1576  E4,1467               ALPHAM             EQUALS   FV         +6                         #  I(2)
001028: E4,1576  E4,1471               BETAM              EQUALS   ALPHAM     +2                         #  I(2)
001029: E4,1576  E4,1473               TAU.               EQUALS   BETAM      +2                         #  I(2)
001030: E4,1576  E4,1475               DT/2               EQUALS   TAU.       +2                         #  I(2)
001031: E4,1576  E4,1477               H                  EQUALS   DT/2       +2                         #  I(2)
001032: E4,1576  E4,1501               GMODE              EQUALS   H          +2                         #  I(1)
001033: E4,1576  E4,1502               IRETURN            EQUALS   GMODE      +1                         #  I(1)
001034: E4,1576  E4,1503               NORMGAM            EQUALS   IRETURN    +1                         #  I(1)
001035: E4,1576  E4,1504               RPQV               EQUALS   NORMGAM    +1
001036: E4,1576  E4,1512               ORIGEX             EQUALS   RPQV       +6                         #  I(1)
001037: E4,1576  E4,1512               KEPRTN             EQUALS   ORIGEX                                #  I(1)
001038: E4,1576  E4,1513               RQVV               EQUALS   ORIGEX     +1                         #  I(6)
001039: E4,1576  E4,1521               RPSV               EQUALS   RQVV       +6                         #  I(6)
001040: E4,1576  E4,1527               XKEPNEW            EQUALS   RPSV       +6                         #  I(2)
001041: E4,1576  E4,1531               VECTAB             EQUALS   XKEPNEW    +2                         #  I(36D)
001042: E4,1576  E4,1574               VECTABND           EQUALS   VECTAB     +35D                       #  END MARK
001043:
001044:                                                                                                  #  THESE PROBABLY CAN SHARE MID-COURSE VARIABLES.        (6D)
001045:
001046: E4,1576  E4,1537               VACX               EQUALS   VECTAB     +6                         #  I(2)
001047: E4,1576  E4,1541               VACY               EQUALS   VACX       +2                         #  I(2)
001048: E4,1576  E4,1543               VACZ               EQUALS   VACY       +2                         #  I(2)
001049:
001050:                                                                                                  #  SERVICER STORAGE (USED BY ALL POWERED FLIGHT PROGS.)  (18D)
001051:
001052: E4,1576  E4,1545               XNBPIP             EQUALS   VECTAB     +12D                       #  I(6)
001053: E4,1576  E4,1553               YNBPIP             EQUALS   XNBPIP     +6                         #  I(6)
001054: E4,1576  E4,1561               ZNBPIP             EQUALS   YNBPIP     +6                         #  I(6)
001055:
001056:                                                                                                  #  SOME VERB 82 STORAGE                          (4D)
001057:
001058: E4,1576  E4,1517               HAPOX              EQUALS   RQVV       +4                         #  I(2)
001059: E4,1576  E4,1521               HPERX              EQUALS   HAPOX      +2                         #  I(2)
001060:
001061:                                                                                                  #  V82 STORAGE                                   (6D)
001062:
001063: E4,1576  E4,1567               VONE'              EQUALS   VECTAB     +30D                       #  I(6)TMP NORMAL VELOCITY VONE / SQRT. MU
001064:
001065:                                                                                                  #  R31(V83) STORAGE. -SHARES WITH INTEGRATION STORAGE-   (28D)
001066:


001068: E4,1576  E4,1504               BASETHV            EQUALS   RPQV                                  #  I(6) BASE VEL VECTOR THIS VEH
001069:
001070: E4,1576  E4,1513               BASETIME           EQUALS   RQVV                                  #  I(2) TIME ASSOC WITH BASE VECS
001071: E4,1576  E4,1515               ORIG               EQUALS   RQVV       +2                         #  I(1) =0 FOR EARTH     =2 FOR MOON
001072: E4,1576  E4,1516               STATEXIT           EQUALS   RQVV       +3                         #  I(1) STQ ADDRESS FOR STATEXTP
001073: E4,1576  E4,1517               BASEOTV            EQUALS   RQVV       +4                         #  I(6) BASE VEL VECTOR OTHER VEH
001074:
001075: E4,1576  E4,1537               BASEOTP            EQUALS   VECTAB     +6                         #  I(6) BASE POS VECTOR OTHER VEH
001076:
001077: E4,1576  E4,1567               BASETHP            EQUALS   VECTAB     +30D                       #  I(6) BASE POS VECTOR THIS VEH
001078:
001079:                                                                                                  #  KEPLER STORAGE. (KEPLER IS CALLED BY PRECISION INTEGRATION AND (2D)
001080:                                                                                                  #  CONICS)
001081:
001082: E4,1576                        EPSILONT           ERASE    +1                                    #  I(2)
001083:
001084:                                                                                                  #  VERB 83 STORAGE.                              (18D)
001085:
001086: E4,1600                        RANGE              ERASE    +17D                                  #  I(2)DSP NOUN 54 DISTANCE TO OPTICAL SUBJ
001087: E4,1622  E4,1602               RRATE              EQUALS   RANGE      +2                         #  I(2)DSP NOUN 54 RATE OF APPROACH.
001088: E4,1622  E4,1604               RTHETA             EQUALS   RRATE      +2                         #  I(2)DSP NOUN 54.
001089: E4,1622  E4,1606               RONE               EQUALS   RTHETA     +2                         #  I(6)TMP VECTOR STORAGE.  (SCRATCH)
001090: E4,1622  E4,1614               VONE               EQUALS   RONE       +6                         #  I(6)TMP VECTOR STORAGE.  (SCRATCH)
001091:
001092:                                                                                                  #  VERB 67 STORAGE
001093:
001094: E4,1622  E4,1600               WWPOS              =        RANGE                                 #  NOUN 99 (V67)
001095: E4,1622  E4,1602               WWVEL              =        RRATE                                 #  NOUN 99 (V67)
001096: E4,1622  E4,1604               WWBIAS             =        RTHETA                                #  NOUN 99 (V67)
001097:
001098:                                                                                                  #  V82 STORAGE.  (CANNOT OVERLAY RONE OR VONE)   (11D) TWO SEPARATE LOCATIONS
001099:
001100: E4,1622  E4,1537               V82FLAGS           EQUALS   VECTAB     +6                         #  (1) FOR V82 BITS.
001101: E4,1622  E4,1540               TFF                EQUALS   V82FLAGS   +1                         #  I(2)
001102: E4,1622  E4,1542               -TPER              EQUALS   TFF        +2                         #  I(2)
001103:
001104: E4,1622  E4,1600               HPERMIN            EQUALS   RANGE                                 #  I(2) SET TO 300KFT OR 35KFT FOR SR30.1
001105: E4,1622  E4,1602               RPADTEM            EQUALS   HPERMIN    +2                         #  I(2) PAD OR LANDING RADIUS FOR SR30.1
001106: E4,1622  E4,1604               TSTART82           EQUALS   RPADTEM    +2                         #  I(2) TEMP TIME STORAGE FOR V82.
001107:
001108:                                                                                                  #  VARIOUS DISPLAY REGISTERS                     (6D) NOUN 84; P76


001110: E4,1622                        DELVOV             ERASE    +5D                                   #  (6)
001111:
001112:                                                                                                  #  ALIGNMENT PLANETARY -INERTIAL TRANSFORMATION STORAGE. (18D)
001113:
001114:                                                                                                  #                UNSHARED WHILE LM ON LUNAR SURFACE.
001115:
001116: E4,1630                        GSAV               ERASE    +17D                                  #  I(6)
001117: E4,1652  E4,1636               YNBSAV             EQUALS   GSAV       +6                         #  I(6)
001118: E4,1652  E4,1644               ZNBSAV             EQUALS   YNBSAV     +6                         #  I(6)
001119:
001120:                                                                                                  #  KALCMANU STORAGE. CAN OVERLAY GSAV.           (18D)
001121:
001122: E4,1652  E4,1630               MFS                EQUALS   GSAV                                  #  I(18)
001123: E4,1652  E4,1630               MFI                EQUALS   MFS                                   #  I
001124: E4,1652  E4,1630               KEL                EQUALS   MFS                                   #  I(18)
001125: E4,1652  E4,1630               E01                EQUALS   MFS                                   #  I(6)
001126: E4,1652  E4,1636               E02                EQUALS   E01        +6                         #  I(6)
001127:
001128:                                                                                                  #  LR VEL BEAM VECTORS.                          (26D)
001129:
001130:                                                                                                  #  CAN OVERLAY GSAV WITH CARE, USED DURING POWERED DESCENT ONLY.
001131:
001132: E4,1652  E4,1630               VZBEAMNB           EQUALS   GSAV                                  #  I(6) LR VELOCITY BEAMS IN NB COORDS.
001133: E4,1652  E4,1636               VYBEAMNB           EQUALS   VZBEAMNB   +6                         #  I(6)
001134: E4,1652  E4,1644               VXBEAMNB           EQUALS   VYBEAMNB   +6                         #  I(6) PRESERVE Z,Y,X ORDER.
001135:
001136: E4,1652  E4,1652               LRVTIME            =        VXBEAMNB   +6                         #  B(2) LR
001137: E4,1652  E4,1654               LRXCDU             =        LRVTIME    +2                         #  B(1) LR
001138: E4,1652  E4,1655               LRYCDU             =        LRXCDU     +1                         #  B(1) LR
001139: E4,1652  E4,1656               LRZCDU             =        LRYCDU     +1                         #  B(1) LR
001140: E4,1652  E4,1657               PIPTEM             =        LRZCDU     +1                         #  B(3) LR
001141:
001142:                                                                                                  #  P32-P35, P72-P75 STORAGE.                     (40D)
001143:
001144: E4,1652                        T1TOT2             ERASE    +1                                    #  (2)   TIME FROM CSI TO CDH
001145: E4,1654                        T2TOT3             ERASE    +1                                    #  (2)
001146: E4,1656                        ELEV               ERASE    +1                                    #  (2)
001147: E4,1660                        UP1                ERASE    +5                                    #  (6)
001148: E4,1666                        DELVEET1           ERASE    +5                                    #  I(6)  DV CSI IN REF
001149: E4,1674                        DELVEET2           ERASE    +5                                    #  I(6)  DV CSH IN REF
001150: E4,1702                        RACT1              ERASE    +5                                    #  (6)   POS VEC OF ACTIVE AT CSI TIME
001151: E4,1710                        RACT2              ERASE    +5                                    #  (6)   POS VEC OF ACTIVE AT CDH TIME


001153: E4,1716                        RTSR1/MU           ERASE    +1                                    #  (2)   SQ ROOT 1/MU STORAGE
001154: E4,1720                        RTMU               ERASE    +1                                    #  (2)   MU STORAGE
001155:
001156:                                                                                                  #  (THE FOLLOWING ERASABLES OVERLAY PORTIONS OF THE PREVIOUS SECTION)
001157:
001158: E4,1722  E4,1652               +MGA               EQUALS   T1TOT2                                #  (2) S-S + MID GIM ANGL TO DELVEET3
001159:
001160: E4,1722  E4,1660               UNRM               EQUALS   UP1                                   #  I(6) S-S
001161:
001162: E4,1722  E4,1702               DVLOS              EQUALS   RACT1                                 #  I(6) S-S DELTA VELOCITY, LOS COORD-DISPLA
001163: E4,1722  E4,1710               ULOS               EQUALS   RACT2                                 #  I(6) S-S UNIT LINE OF SIGHT VECTOR
001164:
001165: E4,1722  E4,1716               NOMTPI             EQUALS   RTSR1/MU                              #  (2) S-S NOMINAL TPI TIME FOR RECYCLE
001166:
001167:                                                                                                  #  SOME P30 STORAGE.                             (4D)
001168:
001169: E4,1722  E4,1716               HAPO               EQUALS   RTSR1/MU                              #  I(2)
001170: E4,1722  E4,1720               HPER               EQUALS   HAPO       +2                         #  I(2)
001171:
001172:
001173:                                                                                                  #  SOME P38-P39,P78-79 STORAGE.                  (6D)
001174:
001175: E4,1722  E4,1702               DELTAR             EQUALS   DVLOS                                 #  I(2)
001176: E4,1722  E4,1704               DELTTIME           EQUALS   DELTAR     +2                         #  I(2) TIME REPRESENTATION OF DELTAR
001177: E4,1722  E4,1706               TARGTIME           EQUALS   DELTTIME   +2                         #  I(2) TINT MINUS DELTTIME
001178:
001179: E4,1722  E4,1702               TINTSOI            EQUALS   DELTAR                                #  I(2) TIME OF INTERCEPT FOR SOI PHASE
001180:
001181:                                                                                                  #  THE FOLLOWING ARE ERASABLE LOADS DURING A PERFORMANCE TEST.
001182:
001183: E4,1722  E4,1400               TRANSM1            =        WRENDPOS                              #  E4,1400
001184: E4,1722  E4,1422               ALFDK              =        TRANSM1    +18D
001185:
001186:                                                                                                  #  ******* THE FOLLOWING SECTIONS OVERLAY V83 AND DISPLAY STORAGE *******
001187:
001188:                                                                                                  #  V47 (R47) AGS INITIALIZATION PROGRAM STORAGE.  (OVERLAYS V83) (14D)
001189:
001190: E4,1722  E4,1600               AGSBUFF            EQUALS   RANGE                                 #  B(14D)
001191: E4,1722  E4,1615               AGSBUFFE           EQUALS   AGSBUFF    +13D                       #  ENDMARK


001193:
001194:                                                                                                  #  R36 OUT-OF-PLANE RENDEZVOUS DISPLAY STORAGE.  (OVERLAYS V83)  (12D)
001195:
001196: E4,1722  E4,1606               RPASS36            EQUALS   RONE                                  #  I(6) S-S
001197: E4,1722  E4,1614               UNP36              EQUALS   RPASS36    +6                         #  I(6) S-S
001198:
001199:                                                                                                  #  S-BAND ANTENNA GIMBAL ANGLES.  DISPLAYED BY R05 (V64).  (OVERLAYS V83)        (10D)
001200:                                                                                                  #                        (OPERATES DURING P00 ONLY)
001201: E4,1722  E4,1600               ALPHASB            EQUALS   RANGE                                 #  B(2)DSP NOUN 51.  PITCH ANGLE.
001202: E4,1722  E4,1602               BETASB             EQUALS   ALPHASB    +2                         #  B(2)DSP NOUN 51.  YAW ANGLE.
001203: E4,1722  E4,1604               RLM                EQUALS   BETASB     +2                         #  I(6)S S/C POSITION VECTOR.
001204:
001205:                                                                                                  #  **** USED IN S-BAND ANTENNA FOR LM ****
001206:
001207: E4,1722  E4,1602               YAWANG             EQUALS   BETASB
001208: E4,1722  E4,1600               PITCHANG           EQUALS   ALPHASB
001209:
001210:                                                                                                  #  NOUN 56 DATA -COMPUTED AND DISPLAYED BY VERB 85.      (4)
001211:
001212: E4,1722  E4,1600               RR-AZ              EQUALS   PITCHANG                              #  I(2) ANGLE BETWEEN LOS AND X-Z PLANE.
001213: E4,1722  E4,1602               RR-ELEV            EQUALS   RR-AZ      +2                         #  I(2) ANGLE BETWEEN LOS AND Y-Z PLANE.
001214:
001215:                                                                                                  #  R04 (V62) RADAR TEST STORAGE.                 (8D)
001216:                                                                                                  #  R04 IS RESTRICTED TO P00.
001217:
001218: E4,1722  E4,1600               RSTACK             EQUALS   RANGE                                 #  B(8) BUFFER FOR R04 NOUNS.
001219:
001220:                                                                                                  #  INITVEL STORAGE.  ALSO USED BY P31, P34, P35, P74, P75, P10, P11, MIDGIM, S40.1 AND S40.9.    (18D)
001221:
001222:                                                                                                  #                (POSSIBLY RINIT & VINIT CAN OVERLAY DELVEET1 & 2 ABOVE)
001223:
001224: E4,1722                        RINIT              ERASE    +5                                    #  I(6) ACTIVE VEHICLE POSITION
001225: E4,1730                        VINIT              ERASE    +5                                    #  I(6) ACTIVE VEHICLE VELOCITY
001226: E4,1736                        VIPRIME            ERASE    +5                                    #  I(6) NEW VEL REQUIRED AT INITIAL RADIUS.
001227:
001228:                                                                                                  #  VARIOUS DISPLAY REGISTERS.  BALLANGS          (3D)
001229:
001230: E4,1744                        FDAIX              ERASE                                          #  I(1)
001231: E4,1745                        FDAIY              ERASE                                          #  I(1)
001232: E4,1746                        FDAIZ              ERASE                                          #  I(1)
001233:
001234:                                                                                                  #  P34-P35 STORAGE.  DOWNLINKED.                 (2D)
001235:
001236: E4,1747                        DELVTPF            ERASE    +1                                    #  I(2) DELTA V FOR TPF
001237:
001238:                                                                                                  #  SOME R04(V62)-R77 RADAR TEST STORAGE          (6D)


001240: E4,1751                        RTSTDEX            ERASE                                          #  (1)
001241: E4,1752                        RTSTMAX            ERASE                                          #  (1)
001242: E4,1753                        RTSTBASE           ERASE                                          #  (1)
001243: E4,1754                        RTSTLOC            ERASE                                          #  (1)
001244: E4,1755  E4,1754               RSTKLOC            =        RTSTLOC
001245: E4,1755                        RSAMPDT            ERASE                                          #  (1)
001246: E4,1756                        RFAILCNT           ERASE                                          #  (1)
001247:
001248:                                                                                                  #  LPS20.1 STORAGE                               (12D)
001249:
001250: E4,1757  E4,1751               LMPOS              EQUALS   RTSTDEX                               #  I(6)TEMP.  STORAGE FOR LM POS. VECTOR.
001251: E4,1757  E4,1757               LMVEL              EQUALS   LMPOS      +6                         #  I(6)TEMP.  STORAGE FOR LM VEL. VECTOR.
001252:
001253:                                                                                                  #  INITVEL STORAGE.  ALSO USED BY P31,34,35,74,75,S40.1 AND DOWNLINKED.  (6D)
001254:
001255: E4,1757  E4,1765               DELVEET3           EQUALS   LMVEL      +6                         #  I(6) DELTA V IN INERTIAL COORDINATES.
001256:
001257:
001258: E4,1757                        END-E4             EQUALS                                         #  FIRST UNUSED LOCATION IN E4
001259:
001260:                                                                                                  #  SECOND DPS GUIDANCE (LUNAR LANDING)  (OVERLAY P32-35, INITVEL)        (14D)
001261:
001262: E4,1757  E4,1662               VHORIZ             EQUALS   PIPTEM     +3                         #  I(2) DISPLAY
001263: E4,1757  E4,1664               ANGTERM            EQUALS   VHORIZ     +2                         #  I(6) GUIDANCE
001264: E4,1757  E4,1672               HBEAMNB            EQUALS   ANGTERM    +6                         #  I(6) LANDING RADAR
001265:
001266:                                                                                                  #  R12 DOWNLINK QUANTITIES                       (5D)
001267:
001268: E4,1757  E4,1734               LRXCDUDL           EQUALS   /LAND/     +2                         #  B(1) LANDING RADAR DOWNLINK
001269: E4,1757  E4,1735               LRYCDUDL           EQUALS   LRXCDUDL   +1                         #  B(1) LANDING RADAR DOWNLINK
001270: E4,1757  E4,1736               LRZCDUDL           EQUALS   LRYCDUDL   +1                         #  B(1) LANDING RADAR DOWNLINK
001271: E4,1757  E4,1737               LRVTIMDL           EQUALS   LRZCDUDL   +1                         #  B(2) LANDING RADAR DOWNLINK
001272:
001273:                                                                                                  #  ASCENT GUIDANCE FOR LUNAR LANDING             (54D)
001274:
001275: E4,1757  E4,1662               AT                 EQUALS   PIPTEM     +3                         #  I(2)TMP ENGINE DATA -- THRUST ACC*2(9)
001276: E4,1757  E4,1664               VE                 EQUALS   AT         +2                         #  I(2)TMP EXHAUST VELOCITY * 2(7)M/CS.
001277: E4,1757  E4,1666               TTO                EQUALS   VE         +2                         #  I(2)TMP TAILOFF TIME * 2(17)CS.
001278: E4,1757  E4,1670               TBUP               EQUALS   TTO        +2                         #  I(2)TMP (M/MDOT) * 2(17)CS.
001279: E4,1757  E4,1672               RDOTD              EQUALS   TBUP       +2                         #  I(2)TMP TARGET VELOCITY COMPONENTS
001280: E4,1757  E4,1674               YDOTD              EQUALS   RDOTD      +2                         #  I(2)TMP SCALING IS 2(7)M/CS.
001281: E4,1757  E4,1676               ZDOTD              EQUALS   YDOTD      +2                         #  I(2)TMP
001282:
001283: E4,1757  E4,1700               /R/MAG             EQUALS   ZDOTD      +2                         #  I(2)TMP
001284: E4,1757  E4,1702               LAXIS              EQUALS   /R/MAG     +2                         #  I(6)TMP


001286: E4,1757  E7,1725               ZAXIS1             =        UHZP
001287: E4,1757  E7,1473               RDOT               =        HDOTDISP
001288: E4,1757  E4,1710               YDOT               =        LAXIS      +6                         #  I(2)TMP VEL. NORMAL TO REF. PLANE*2(-7)
001289: E4,1757  E4,1712               ZDOT               EQUALS   YDOT       +2                         #  I(2)TMP DOWN RANGE VEL * 2(-7).
001290: E4,1757  E4,1714               GEFF               EQUALS   ZDOT       +2                         #  I(2)TMP EFFECTIVE GRAVITY
001291:
001292:                                                                                                  #  THESE TWO GROUPS OF ASCENT GUIDANCE ARE SPLIT BY THE ASCENT-DESCENT SERVICER SECTION FOLLOWING THIS SECTION
001293:
001294: E4,1757  E4,1734               Y                  EQUALS   /LAND/     +2                         #  I(2)TMP OUT-OF-PLANE DIST *2(24)M
001295: E4,1757  E4,1736               DRDOT              EQUALS   Y          +2                         #  I(2)TMP RDOTD - RDOT
001296: E4,1757  E4,1740               DYDOT              EQUALS   DRDOT      +2                         #  I(2)TMP YDOTD - YDOT
001297: E4,1757  E4,1742               DZDOT              EQUALS   DYDOT      +2                         #  I(2)TMP ZDOTD - ZDOT
001298: E4,1757  E4,1744               PCONS              EQUALS   DZDOT      +2                         #  I(2)TMP CONSTANT IN ATR EQUATION
001299: E4,1757  E4,1746               YCONS              EQUALS   PCONS      +2                         #  I(2)TMP CONSTANT IN ATY EQUATION
001300: E4,1757  E4,1750               PRATE              EQUALS   YCONS      +2                         #  I(2)TMP RATE COEFF. IN ATR EQUATION
001301: E4,1757  E4,1752               YRATE              EQUALS   PRATE      +2                         #  I(2)TMP RATE COEFF. IN ATY EQUATION
001302: E4,1757  E4,1754               ATY                EQUALS   YRATE      +2                         #  I(2)TMP OUT-OF-PLANE THRUST COMP. *2(9)
001303: E4,1757  E4,1756               ATR                EQUALS   ATY        +2                         #  I(2)TMP RADIAL THRUST COMP. * 2(9)
001304: E4,1757  E4,1760               ATP                EQUALS   ATR        +2                         #  I(2)TMP DOWN-RANGE THRUST COMP
001305: E4,1757  E4,1762               YAW                EQUALS   ATP        +2                         #  I(2)TMP
001306: E4,1757  E4,1764               PITCH              EQUALS   YAW        +2                         #  I(2)RMP
001307:
001308:                                                                                                  #  SERVICER FOR LUNAR ASCENT AND DESCENT         (14D)
001309:
001310: E4,1757  E4,1716               G(CSM)             EQUALS   GEFF       +2                         #  I(6)  FOR UPDATE OF COMMAND MODULE STATE
001311: E4,1757  E3,1717               R(CSM)             EQUALS   R-OTHER                               #        VECTORS BY LEM; ANALOGS OF GDT/2,
001312: E4,1757  E3,1725               V(CSM)             EQUALS   V-OTHER                               #        R, AND V, RESPECTIVELY OF THE CSM
001313: E4,1757  E4,1724               WM                 EQUALS   G(CSM)     +6                         #  I(6)TMP - LUNAR ROTATION VECTOR (SM)
001314: E4,1757  E4,1732               /LAND/             EQUALS   WM         +6                         #  B(2) LUNAR RADIUS AT LANDING SITE
001315:


001317:                                                                                                  #  EBANK-5 ASSIGNMENTS
001318:
001319: E5,1400                                           SETLOC   2400
001320:
001321:                                                                                                  #  W-MATRIX.  ESSENTIALLY UNSHARABLE.            (162D)
001322:
001323: E5,1400                        W                  ERASE    +161D
001324: E5,1642  E5,1642               ENDW               EQUALS   W          +162D
001325:
001326:                                                                                                  #  ******* OVERLAY NUMBER 1 IN EBANK 5 *******
001327:
001328:                                                                                                  #                W-MATRIX PADLOADS               (128D)
001329:
001330:                                                                                                  #  PLEASE RETAIN THE ORDER OF TLAND THRU JAPFG
001331:
001332: E5,1642  E5,1400               TLAND              EQUALS   W                                     #  I(2)  NOMINAL TIME OF LANDING
001333: E5,1642  E5,1402               RBRFG              EQUALS   TLAND      +2                         #  I(6) BRAKING
001334: E5,1642  E5,1410               VBRFG              EQUALS   RBRFG      +6                         #  I(6)      PHASE
001335: E5,1642  E5,1416               ABRFG              EQUALS   VBRFG      +6                         #  I(6)           TARGET
001336: E5,1642  E5,1424               VBRFG*             EQUALS   ABRFG      +6                         #  I(2)                PARAMETERS:
001337: E5,1642  E5,1426               ABRFG*             EQUALS   VBRFG*     +2                         #  I(2)                     HIGH
001338: E5,1642  E5,1430               JBRFG*             EQUALS   ABRFG*     +2                         #  I(2)                          GATE
001339: E5,1642  E5,1432               GAINBRAK           EQUALS   JBRFG*     +2                         #  B(2)
001340: E5,1642  E5,1434               TCGFBRAK           EQUALS   GAINBRAK   +2                         #  B(1)
001341: E5,1642  E5,1435               TCGIBRAK           EQUALS   TCGFBRAK   +1                         #  B(1)
001342: E5,1642  E5,1436               RAPFG              EQUALS   TCGIBRAK   +1                         #  I(6) APPROACH
001343: E5,1642  E5,1444               VAPFG              EQUALS   RAPFG      +6                         #  I(6)      PHASE
001344: E5,1642  E5,1452               AAPFG              EQUALS   VAPFG      +6                         #  I(6)           TARGET
001345: E5,1642  E5,1460               VAPFG*             EQUALS   AAPFG      +6                         #  I(2)                PARAMETERS:
001346: E5,1642  E5,1462               AAPFG*             EQUALS   VAPFG*     +2                         #  I(2)                     LOW
001347: E5,1642  E5,1464               JAPFG*             EQUALS   AAPFG*     +2                         #  I(2)                          GATE
001348: E5,1642  E5,1466               GAINAPPR           EQUALS   JAPFG*     +2                         #  B(2)
001349: E5,1642  E5,1470               TCGFAPPR           EQUALS   GAINAPPR   +2                         #  B(1)
001350: E5,1642  E5,1471               TCGIAPPR           EQUALS   TCGFAPPR   +1                         #  B(1)
001351: E5,1642  E5,1472               VIGN               EQUALS   TCGIAPPR   +1                         #  I(2)  DESIRED SPEED FOR IGNITION
001352: E5,1642  E5,1474               RIGNX              EQUALS   VIGN       +2                         #  I(2)  DESIRED 'ALTITUDE' FOR IGNITION
001353: E5,1642  E5,1476               RIGNZ              EQUALS   RIGNX      +2                         #  I(2)  DESIRED GROUND RANGE FOR IGNITION
001354: E5,1642  E5,1500               KIGNX/B4           EQUALS   RIGNZ      +2                         #  I(2)
001355: E5,1642  E5,1502               KIGNY/B8           EQUALS   KIGNX/B4   +2                         #  I(2)
001356: E5,1642  E5,1504               KIGNV/B4           EQUALS   KIGNY/B8   +2                         #  I(2)
001357: E5,1642  E5,1506               LOWCRIT            EQUALS   KIGNV/B4   +2                         #  B(1) (HIGHCRIT MUST FOLLOW LOWCRIT)
001358: E5,1642  E5,1507               HIGHCRIT           EQUALS   LOWCRIT    +1                         #  B(1)
001359: E5,1642  E5,1510               V2FG               EQUALS   HIGHCRIT   +1                         #  I(6) DESIRED VELOCITY FOR P65.
001360: E5,1642  E5,1516               TAUVERT            EQUALS   V2FG       +6                         #  I(2) TIME CONSTANT FOR P65 VEL. NULLING.
001361: E5,1642  E5,1520               DELQFIX            EQUALS   TAUVERT    +2                         #  I(2) LR ALTITUDE DATA REASONABLE PARM.
001362: E5,1642  E5,1522               LRALPHA            EQUALS   DELQFIX    +2                         #  B(1) POS1 X ROTATION          * MUST *


001364: E5,1642  E5,1523               LRBETA1            EQUALS   LRALPHA    +1                         #  B(1) POS1 Y ROTATION          *  BE  *
001365: E5,1642  E5,1524               LRALPHA2           EQUALS   LRBETA1    +1                         #  B(1) POS2 X ROTATION          *  IN  *
001366: E5,1642  E5,1525               LRBETA2            EQUALS   LRALPHA2   +1                         #  B(1) POS2 Y ROTATION          * ORDER*
001367: E5,1642  E5,1526               LRVMAX             EQUALS   LRBETA2    +1                         #  B(1) LR VEL WEIGHTING FUNCTIONS
001368: E5,1642  E5,1527               LRVF               EQUALS   LRVMAX     +1                         #  B(1) LR VEL WEIGHTING FUNCTIONS
001369: E5,1642  E5,1530               LRWVZ              EQUALS   LRVF       +1                         #  B(1) LR VEL WEIGH ING FUNCTIONS
001370: E5,1642  E5,1531               LRWVY              EQUALS   LRWVZ      +1                         #  B(1) LR VEL WEIGH ING FUNCTIONS
001371: E5,1642  E5,1532               LRWVX              EQUALS   LRWVY      +1                         #  B(1) LR VEL WEIGH ING FUNCTIONS
001372: E5,1642  E5,1533               LRWVFZ             EQUALS   LRWVX      +1                         #  B(1) LR VEL WEIGH ING FUNCTIONS
001373: E5,1642  E5,1534               LRWVFY             EQUALS   LRWVFZ     +1                         #  B(1) LR VEL WEIG  ING FUNC IONS
001374: E5,1642  E5,1535               LRWVFX             EQUALS   LRWVFY     +1                         #  B(1) LR VEL WEIG  ING FUNC IONS
001375: E5,1642  E5,1536               LRWVFF             EQUALS   LRWVFX     +1                         #  B(1) LR VEL WEIG  ING FUNC IONS
001376:
001377: E5,1642     0130               ABVEL*             EQUALS   BUF                                   #  B(1) LR TEMP
001378: E5,1642     0131               VSELECT*           EQUALS   BUF        +1                         #  B(1) LR TEMP
001379:
001380: E5,1642  E5,1537               RODSCALE           EQUALS   LRWVFF     +1                         #  I(1) CLICK SCALE FACTOR FOR ROD
001381: E5,1642  E5,1540               TAUROD             EQUALS   RODSCALE   +1                         #  I(2) TIME CONSTANT FOR R.O.D.
001382: E5,1642  E5,1542               LAG/TAU            EQUALS   TAUROD     +2                         #  I(2) LAG TIME DIVIDED BY TAUROD (P66)
001383: E5,1642  E5,1544               MINFORCE           EQUALS   LAG/TAU    +2                         #  I(2) MINIMUM FORCE P66 WILL COMMAND.
001384: E5,1642  E5,1546               MAXFORCE           EQUALS   MINFORCE   +2                         #  I(2) MAXIMUM FORCE P66 WILL COMMAND.
001385: E5,1642  E5,1550               ABTCOF             EQUALS   MAXFORCE   +2                         #  I(16) COEFFICIENTS FOR ABORT TFI POLYS.
001386: E5,1642  E5,1570               VMIN               EQUALS   ABTCOF     +16D                       #  I(2) MINIMUM VELOCITY FOR ABORT INJ.
001387: E5,1642  E5,1572               YLIM               EQUALS   VMIN       +2                         #  I(2) MAXIMUM CROSS-RANGE DIST IN ABORTS.
001388: E5,1642  E5,1574               ABTRDOT            EQUALS   YLIM       +2                         #  I(2) DESIRED RADIAL VEL. FOR ABORTS.
001389: E5,1642  E5,1576               COSTHET1           EQUALS   ABTRDOT    +2                         #  I(2) COS OF CONE 1 ANGLE FOR ABORTS
001390: E5,1642  E5,1600               COSTHET2           EQUALS   COSTHET1   +2                         #  I(2) COS OF CONE 2 ANGLE FOR ABORTS.
001391:
001392:                                                                                                  #  SOME VARIABLES FOR SECOND DPS GUIDANCE        (34D)
001393:
001394: E5,1642  E5,1602               CG                 EQUALS   COSTHET2   +2                         #  I(18D) GUIDANCE
001395: E5,1642  E5,1624               RANGEDSP           EQUALS   CG         +18D                       #  B(2)     DISPLAY
001396: E5,1642  E5,1626               OUTOFPLN           EQUALS   RANGEDSP   +2                         #  B(2)    DISPLAY
001397: E5,1642  E5,1630               R60VSAVE           EQUALS   OUTOFPLN   +2                         #  I(6)TMP SAVES VALUE OF POINTVSM THRU R51
001398: E5,1642  E5,1636               RGU                EQUALS   R60VSAVE   +6                         #  I(6) UNSHARED FOR DOWNLINK
001399: E5,1642  E5,1630               VBIAS              EQUALS   R60VSAVE                              #  I(6) PIPA BIAS EQUIV. VELOCITY VECTOR.
001400: E5,1642     0130               L*WCR*T            =        BUF
001401: E5,1642     0131               H*GHCR*T           =        BUF        +1
001402:
001403:                                                                                                  #  ALIGNMENT/SYSTEST/CALCSMSC COMMON STORAGE.    (36D)
001404:
001405: E5,1642  E5,1642               XSM                EQUALS   ENDW                                  #  B(6)
001406: E5,1642  E5,1650               YSM                EQUALS   XSM        +6                         #  B(6)
001407: E5,1642  E5,1656               ZSM                EQUALS   YSM        +6                         #  B(6)
001408:
001409: E5,1642  E5,1664               XDC                EQUALS   ZSM        +6                         #  B(6)
001410: E5,1642  E5,1672               YDC                EQUALS   XDC        +6                         #  B(6)
001411: E5,1642  E5,1700               ZDC                EQUALS   YDC        +6                         #  B(6)


001413: E5,1642  E5,1664               XNB                =        XDC
001414: E5,1642  E5,1672               YNB                =        YDC
001415: E5,1642  E5,1700               ZNB                =        ZDC
001416:
001417:                                                                                                  #  OVERLAYS WITHIN ALIGNMENT/SYSTEST/CALCSMSC COMMON STORAGE.    (4D)
001418:
001419: E5,1642  E5,1644               -COSB              EQUALS   XSM        +2                         #  (2)TMP
001420: E5,1642  E5,1646               SINB               EQUALS   -COSB      +2                         #  (2)TMP
001421:
001422:                                                                                                  #  MORE OVERLAYS TO ALIGNMENT/SYSTEST (THESE ARE P52)    (6D)
001423:
001424: E5,1642  E5,1706               LANDLAT            EQUALS   STARAD                                #  (2) LATITUDE,LONGITUDE
001425: E5,1642  E5,1710               LANDLONG           EQUALS   LANDLAT    +2                         #  (2)   AND ALTITUDE
001426: E5,1642  E5,1712               LANDALT            EQUALS   LANDLONG   +2                         #  (2)   OF LANDING SITE
001427:
001428:                                                                                                  #  ALIGNMENT/SYSTEST COMMON STORAGE.             (31D)
001429:
001430: E5,1642  E5,1706               STARAD             EQUALS   ZDC        +6                         #  I(18D)TMP
001431: E5,1642  E5,1730               STAR               EQUALS   STARAD     +18D                       #  I(6)
001432: E5,1642  E5,1736               GCTR               EQUALS   STAR       +6                         #  B(1)
001433: E5,1642  E5,1737               OGC                EQUALS   GCTR       +1                         #  I(2)
001434: E5,1642  E5,1741               IGC                EQUALS   OGC        +2                         #  I(2)
001435: E5,1642  E5,1743               MGC                EQUALS   IGC        +2                         #  I(2)
001436:
001437:                                                                                                  #  P57 ALIGNMENT (OVERLAY OF ALIGNMENT/SYSTEST COMMON STORAGE)   (12D)
001438:
001439: E5,1642  E5,1706               GACC               =        STARAD                                #  (6) SS
001440: E5,1642  E5,1714               GOUT               =        STARAD     +6                         #  (6) SS
001441:
001442:                                                                                                  #  OVERLAYS WITHIN ALIGNMENT/SYSTEST COMMON STORAGE      (24D)
001443:
001444: E5,1642  E5,1706               VEARTH             EQUALS   STARAD                                #  (6)TMP
001445: E5,1642  E5,1714               VSUN               EQUALS   VEARTH     +6                         #  (6)TMP
001446: E5,1642  E5,1722               VMOON              EQUALS   VSUN       +6                         #  (6)TMP
001447: E5,1642  E5,1730               SAX                EQUALS   VMOON      +6                         #  (6)TMP
001448:
001449:                                                                                                  #  P50'S, R50'S Q STORES.                                (2D)
001450:
001451: E5,1642  E5,1745               QMIN               EQUALS   MGC        +2                         #  B(1)TMP
001452: E5,1642  E5,1746               QMAJ               EQUALS   QMIN       +1                         #  B(1)TMP
001453:
001454:                                                                                                  #  **** USED IN P50S **** (SCATTERED OVERLAYS)
001455:
001456: E5,1642  E5,1706               XSCI               EQUALS   STARAD
001457: E5,1642  E5,1714               YSCI               EQUALS   XSCI       +6


001459: E5,1642  E5,1714               ZSCI               EQUALS   YSCI
001460: E5,1642  E5,1706               CULTRIX            EQUALS   VEARTH                                #  VEARTH, VSUN, VMOON
001461: E5,1642  E5,1722               VEC1               EQUALS   STARAD     +12D
001462: E5,1642  E5,1730               VEC2               EQUALS   STAR
001463:
001464:                                                                                                  #  ALIGNMENT STORAGE.                            (23D)
001465:
001466: E5,1642  E5,1747               OGCT               EQUALS   QMAJ       +1                         #  I(6)
001467: E5,1642  E5,1755               BESTI              EQUALS   OGCT       +6                         #  I(1)
001468: E5,1642  E5,1756               BESTJ              EQUALS   BESTI      +1
001469: E5,1642  E5,1757               STARIND            EQUALS   BESTJ      +1
001470:                                                                                                  #  RETAIN THE ORDER OF STARSAV1 TO STARSAV2 +5 FOR DOWNLINK PURPOSES.
001471: E5,1642  E5,1760               STARSAV1           EQUALS   STARIND    +1                         #  I(6)
001472: E5,1642  E5,1766               STARSAV2           EQUALS   STARSAV1   +6                         #  I(6)
001473: E5,1642  E5,1774               TALIGN             EQUALS   STARSAV2   +6                         #  B(2) TIME OF IMU ALIGNMENT (DOWNLINKED)
001474:
001475:                                                                                                  #  P32-35 + SERVICER                     (2D)
001476:
001477: E5,1642  E5,1776               RTX1               EQUALS   TALIGN     +2                         #  I(1) X1       -2 EARTH, -10 MOON
001478: E5,1642  E5,1777               RTX2               EQUALS   RTX1       +1                         #  I(1) X2       0 EARTH, 2 MOON
001479:
001480: E5,1642                        ZPRIME             =        22D
001481: E5,1642                        PDA                =        22D
001482: E5,1642                        COSTH              =        16D
001483: E5,1642                        SINTH              =        18D
001484: E5,1642                        THETA              =        20D
001485: E5,1642                        STARM              =        32D
001486:


001488:                                                                                                  #  ******* OVERLAY NUMBER 2 IN EBANK 5 *******
001489:
001490:                                                                                                  #  CONICS ROUTINE STORAGE.                       (85D)
001491:
001492: E5,1642  E5,1642               DELX               EQUALS   ENDW                                  #  I(2)TMP
001493: E5,1642  E5,1644               DELT               EQUALS   DELX       +2                         #  I(2)TMP
001494: E5,1642  E5,1646               URRECT             EQUALS   DELT       +2                         #  I(6)TMP
001495: E5,1642                        RCNORM             EQUALS   34D                                   #  I(2)TMP
001496: E5,1642  E3,1552               XPREV              EQUALS   XKEP                                  #  I(2)TMP
001497: E5,1642  E5,1654               R1VEC              EQUALS   URRECT     +6                         #  I(6)TMP
001498: E5,1642  E5,1662               R2VEC              EQUALS   R1VEC      +6                         #  I(6)TMP
001499: E5,1642  E5,1670               TDESIRED           EQUALS   R2VEC      +6                         #  I(2)TMP
001500: E5,1642  E5,1672               GEOMSGN            EQUALS   TDESIRED   +2                         #  I(1)TMP
001501: E5,1642  E5,1673               UN                 EQUALS   GEOMSGN    +1                         #  I(6)TMP
001502: E5,1642  E5,1701               VTARGTAG           EQUALS   UN         +6                         #  I(1)TMP
001503: E5,1642  E5,1702               VTARGET            EQUALS   VTARGTAG   +1                         #  I(6)TMP
001504: E5,1642  E5,1710               RTNLAMB            EQUALS   VTARGET    +6                         #  I(1)TMP
001505: E5,1642  E5,1711               U2                 EQUALS   RTNLAMB    +1                         #  I(6)TMP
001506: E5,1642  E5,1717               MAGVEC2            EQUALS   U2         +6                         #  I(2)TMP
001507: E5,1642  E5,1721               UR1                EQUALS   MAGVEC2    +2                         #  I(6)TMP
001508: E5,1642  E5,1727               SNTH               EQUALS   UR1        +6                         #  I(2)TMP
001509: E5,1642  E5,1731               CSTH               EQUALS   SNTH       +2                         #  I(2)TMP
001510: E5,1642  E5,1733               1-CSTH             EQUALS   CSTH       +2                         #  I(2)TMP
001511: E5,1642  E5,1735               CSTH-RHO           EQUALS   1-CSTH     +2                         #  I(2)TMP
001512: E5,1642  E5,1737               P                  EQUALS   CSTH-RHO   +2                         #  I(2)TMP
001513: E5,1642  E5,1741               R1A                EQUALS   P          +2                         #  I(2)TMP
001514: E5,1642  E5,1654               RVEC               EQUALS   R1VEC                                 #  I(6)TMP
001515: E5,1642  E5,1743               VVEC               EQUALS   R1A        +2                         #  I(6)TMP
001516: E5,1642  E5,1710               RTNTT              EQUALS   RTNLAMB                               #  I(1)TMP
001517: E5,1642  E5,1751               ECC                EQUALS   VVEC       +6                         #  I(2)TMP
001518: E5,1642  E5,1710               RTNTR              EQUALS   RTNLAMB                               #  I(1)TMP
001519: E5,1642  E5,1710               RTNAPSE            EQUALS   RTNLAMB                               #  I(1)TMP
001520: E5,1642  E5,1717               R2                 EQUALS   MAGVEC2                               #  I(2)TMP
001521: E5,1642  E5,1753               RTNPRM             EQUALS   ECC        +2                         #  I(1)TMP
001522: E5,1642  E5,1754               SGNRDOT            EQUALS   RTNPRM     +1                         #  I(1)TMP
001523: E5,1642  E5,1755               RDESIRED           EQUALS   SGNRDOT    +1                         #  I(2)TMP
001524: E5,1642  E5,1757               DELDEP             EQUALS   RDESIRED   +2                         #  I(2)TMP
001525: E5,1642  E5,1761               DEPREV             EQUALS   DELDEP     +2                         #  I(2)TMP
001526: E5,1642  E5,1757               TERRLAMB           EQUALS   DELDEP                                #  I(2)TMP
001527: E5,1642  E5,1761               TPREV              EQUALS   DEPREV                                #  I(2)TMP
001528: E5,1642  E5,1763               EPSILONL           EQUALS   DEPREV     +2                         #  I(2)TMP
001529: E5,1642  E5,1765               COGA               EQUALS   EPSILONL   +2                         #  I(2)  COTAN OF INITIAL FLIGHT PATH ANGLE.
001530: E5,1642  E5,1765               INDEP              EQUALS   COGA                                  #        USED BY SUBROUTINE 'ITERATOR'.
001531:


001533:                                                                                                  #  ******* OVERLAY NUMBER 3 IN EBANK 5 *******
001534:
001535:                                                                                                  #  INCORP STORAGE.                               (18D)
001536:
001537: E5,1642  E5,1642               ZI                 EQUALS   ENDW                                  #  I(18)TMP
001538:
001539:                                                                                                  #  INCORP/L SR22.3 STORAGE.                      (21D)
001540:
001541: E5,1642  E5,1664               DELTAX             EQUALS   ZI         +18D                       #  I(18)
001542: E5,1642  E5,1706               VARIANCE           EQUALS   DELTAX     +18D                       #  I(3)
001543:
001544:                                                                                                  #  MEASUREMENT INCORPORATION -R22- STORAGE.      (49D)
001545:
001546: E5,1642  E5,1711               GRP2SVQ            EQUALS   VARIANCE   +3                         #  I(1)TMP QSAVE FOR RESTARTS
001547: E5,1642  E5,1712               OMEGAM1            EQUALS   GRP2SVQ    +1                         #  I(6)
001548: E5,1642  E5,1720               OMEGAM2            EQUALS   OMEGAM1    +6                         #  I(6)
001549: E5,1642  E5,1726               OMEGAM3            EQUALS   OMEGAM2    +6                         #  I(6)
001550: E5,1642  E5,1734               HOLDW              EQUALS   OMEGAM3    +6                         #  I(18)
001551: E5,1642  E5,1756               TDPOS              EQUALS   HOLDW      +18D                       #  I(6)
001552: E5,1642  E5,1764               TDVEL              EQUALS   TDPOS      +6                         #  I(6)
001553:
001554: E5,1642  E5,1664               TRIPA              EQUALS   DELTAX                                #  I(3)TMP
001555: E5,1642  E5,1667               TEMPVAR            EQUALS   TRIPA      +3                         #  I(3)TMP
001556:
001557:                                                                                                  #  INCORPORATION/INTEGRATION Q STORAGE.          (1D)
001558:
001559: E5,1642  E5,1772               EGRESS             EQUALS   TDVEL      +6                         #  I(1)
001560:
001561:                                                                                                  #  P30/P31 STORAGE.                              (1D) AND ONE OVERLAY
001562:
001563: E5,1642  E5,1773               P30EXIT            EQUALS   EGRESS     +1                         #  B(1)TMP
001564:
001565: E5,1642  E5,1773               ORIGIN             EQUALS   P30EXIT                               #  I(1)TMP INDEX DURING INITVEL
001566:


001568:                                                                                                  #  SYSTEM TEST ERASABLES.  CAN OVERLAY W MATRIX. (127D)
001569:
001570:                                                                                                  #  ******* OVERLAY NUMBER 0 IN EBANK 5 *******
001571:
001572: E5,1642  E5,1400               AZIMUTH            EQUALS   W                                     #  2
001573: E5,1642  E5,1402               LATITUDE           EQUALS   AZIMUTH    +2                         #  2
001574: E5,1642  E5,1404               ERVECTOR           EQUALS   LATITUDE   +2                         #  6
001575: E5,1642  E5,1412               LENGTHOT           EQUALS   ERVECTOR   +6                         #  1
001576: E5,1642  E5,1413               LOSVEC             EQUALS   LENGTHOT   +1                         #  6
001577: E5,1642  E5,1414               NDXCTR             EQUALS   LOSVEC     +1                         #  1
001578: E5,1642  E5,1415               PIPINDEX           EQUALS   NDXCTR     +1                         #  1
001579: E5,1642  E5,1416               POSITON            EQUALS   PIPINDEX   +1                         #  1
001580: E5,1642  E5,1417               QPLACE             EQUALS   POSITON    +1                         #  1
001581: E5,1642  E5,1420               QPLACES            EQUALS   QPLACE     +1                         #  1
001582: E5,1642  E5,1421               SOUTHDR            EQUALS   QPLACES    +1                         #  7
001583: E5,1642  E5,1430               TEMPTIME           EQUALS   SOUTHDR    +7                         #  2
001584: E5,1642  E5,1432               TMARK              EQUALS   TEMPTIME   +2                         #  2
001585: E5,1642  E5,1434               GENPL              EQUALS   TMARK      +2
001586: E5,1642  E5,1434               CDUTIMEI           =        GENPL
001587: E5,1642  E5,1436               CDUTIMEF           =        GENPL      +2
001588: E5,1642  E5,1440               CDUDANG            =        GENPL      +4
001589: E5,1642  E5,1441               CDUREADF           =        GENPL      +5
001590: E5,1642  E5,1442               CDUREADI           =        GENPL      +6
001591: E5,1642  E5,1443               CDULIMIT           =        GENPL      +7
001592:
001593: E5,1642  E5,1440               TEMPADD            =        GENPL      +4
001594: E5,1642  E5,1441               TEMP               =        GENPL      +5
001595: E5,1642  E5,1442               NOBITS             =        GENPL      +6
001596: E5,1642  E5,1443               CHAN               =        GENPL      +7
001597:
001598: E5,1642  E5,1444               LOS1               =        GENPL      +8D
001599: E5,1642  E5,1452               LOS2               =        GENPL      +14D
001600:
001601: E5,1642  E5,1460               CALCDIR            EQUALS   GENPL      +20D
001602: E5,1642  E5,1461               CDUFLAG            EQUALS   GENPL      +21D
001603: E5,1642  E5,1462               GYTOBETQ           EQUALS   GENPL      +22D
001604: E5,1642  E5,1463               OPTNREG            EQUALS   GENPL      +23D
001605: E5,1642  E5,1464               SAVE               EQUALS   GENPL      +24D                       #  THREE ONSEC LOC
001606: E5,1642  E5,1467               SFCONST1           EQUALS   GENPL      +27D
001607: E5,1642  E5,1470               TIMER              EQUALS   GENPL      +28D
001608:
001609: E5,1642  E5,1472               DATAPL             EQUALS   GENPL      +30D
001610: E5,1642  E5,1434               RDSP               EQUALS   GENPL                                 #  FIX LA ER     POSSIBLY KEEP1
001611: E5,1642  E5,1534               MASKREG            EQUALS   GENPL      +64D
001612: E5,1642  E5,1536               CDUNDX             EQUALS   GENPL      +66D
001613: E5,1642  E5,1537               RESULTCT           EQUALS   GENPL      +67D
001614: E5,1642  E5,1542               COUNTPL            EQUALS   GENPL      +70D
001615:
001616: E5,1642  E5,1543               CDUANG             EQUALS   GENPL      +71D


001618: E5,1642  E5,1434               AINLA              =        GENPL                                 #  110 DE  OR 156 OCT LOCATIONS
001619:
001620: E5,1642  E5,1434               WANGO              EQUALS   AINLA                                 #  VERT E ATE
001621: E5,1642  E5,1436               WANGI              EQUALS   AINLA      +2D                        #  HORIZO TAL ERATE
001622: E5,1642  E5,1440               WANGT              EQUALS   AINLA      +4D                        #  T
001623: E5,1642  E5,1440               TORQNDX            =        WANGT
001624: E5,1642  E5,1442               DRIFTT             EQUALS   AINLA      +6D
001625: E5,1642  E5,1444               ALX1S              EQUALS   AINLA      +8D
001626: E5,1642  E5,1445               CMPX1              EQUALS   AINLA      +9D                        #  IND
001627: E5,1642  E5,1446               ALK                EQUALS   AINLA      +10D                       #  GAINS
001628: E5,1642  E5,1462               VLAUNS             EQUALS   AINLA      +22D
001629: E5,1642  E5,1464               WPLATO             EQUALS   AINLA      +24D
001630: E5,1642  E5,1470               INTY               EQUALS   AINLA      +28D                       #  SOUTH  IP INTE
001631: E5,1642  E5,1472               ANGZ               EQUALS   AINLA      +30D                       #  EAST A IS
001632: E5,1642  E5,1474               INTZ               EQUALS   AINLA      +32D                       #  EAST P P I
001633: E5,1642  E5,1476               ANGY               EQUALS   AINLA      +34D                       #  SOUTH
001634: E5,1642  E5,1500               ANGX               EQUALS   AINLA      +36D                       #  VE
001635: E5,1642  E5,1502               DRIFTO             EQUALS   AINLA      +38D                       #  VERT
001636: E5,1642  E5,1504               DRIFTI             EQUALS   AINLA      +40D                       #  SOU
001637: E5,1642  E5,1510               VLAUN              EQUALS   AINLA      +44D
001638: E5,1642  E5,1512               ACCWD              EQUALS   AINLA      +46D
001639: E5,1642  E5,1520               POSNV              EQUALS   AINLA      +52D
001640: E5,1642  E5,1522               DPIPAY             EQUALS   AINLA      +54D                       #  SOUTH
001641: E5,1642  E5,1526               DPIPAZ             EQUALS   AINLA      +58D                       #  NORTH  IP INCREMENT
001642: E5,1642  E5,1530               ALTIM              EQUALS   AINLA      +60D
001643: E5,1642  E5,1531               ALTIMS             EQUALS   AINLA      +61D                       #  INDEX
001644: E5,1642  E5,1532               ALDK               EQUALS   AINLA      +62D                       #  TIME  ONSTAN
001645: E5,1642  E5,1550               DELM               EQUALS   AINLA      +76D
001646: E5,1642  E5,1560               WPLATI             EQUALS   AINLA      +84D
001647: E5,1642  E5,1562               GEOCOMPS           EQUALS   AINLA      +86D
001648: E5,1642  E5,1563               ERCOMP             EQUALS   AINLA      +87D
001649: E5,1642  E5,1571               ZERONDX            EQUALS   AINLA      +93D
001650:
001651: E5,1642  E5,1452               THETAN             =        ALK        +4
001652: E5,1642  E5,1460               FILDELV            EQUALS   THETAN     +6                         #  AGS ALIGNMENT STORAGE
001653: E5,1642  E5,1462               INTVEC             EQUALS   FILDELV    +2
001654: E5,1642  E5,1572               1SECXT             =        AINLA      +94D
001655: E5,1642  E5,1573               ASECXT             =        AINLA      +95D
001656: E5,1642  E5,1574               PERFDLAY           EQUALS   AINLA      +96D                       #  B(2) DELAY TIME BEF. START DRIFT MEASURE
001657: E5,1642  E5,1576               OVFLOWCK           EQUALS   AINLA      +98D                       #  (1) SET MEANS OVERFLOW IN IMU PERF TEST
001658:                                                                                                  #      AND CAUSES TERMINATION
001659:
001660: E5,1642  E5,1774               END-E5             EQUALS   STARSAV2   +6                         #  *** FIRST FREE LOCATION IN E5 ***
001661:


001663:                                                                                                  #  EBANK-6 ASSIGNMENTS.
001664:
001665: E6,1400                                           SETLOC   3000
001666:
001667:                                                                                                  #  DAP PAD-LOADED DATA.                          (10D)
001668:
001669:                                                                                                  #  ALL OF THE FOLLOWING EXCEPT PITTIME AND ROLLTIME ARE INITIALIZED IN FRESH START TO PERMIT IMMEDIATE USE OF DAP
001670:
001671: E6,1400                        HIASCENT           ERASE                                          #  (1) MASS AFTER STAGING, SCALE AT B16 KG.
001672: E6,1401                        ROLLTIME           ERASE                                          #  (1) TIME TO TRIM Z GIMBAL IN R03, CSEC.
001673: E6,1402                        PITTIME            ERASE                                          #  (1) TIME TO TRIM Y GIMBAL IN R03, CSEC.
001674: E6,1403                        DKTRAP             ERASE                                          #  (1) DAP STATE            (POSSIBLE 77001
001675: E6,1404                        DKOMEGAN           ERASE                                          #  (1)   ESTIMATOR PARA-      (VALUES 00012
001676: E6,1405                        DKKAOSN            ERASE                                          #  (1)     METERS FOR THE             00074
001677: E6,1406                        LMTRAP             ERASE                                          #  (1)       DOCKED AND               77001
001678: E6,1407                        LMOMEGAN           ERASE                                          #  (1)         LEM-ALONE CASES        00000
001679: E6,1410                        LMKAOSN            ERASE                                          #  (1)           RESPECTIVELY         00074
001680: E6,1411                        DKDB               ERASE                                          #  (1) WIDTH OF DEADBAND FOR DOCKED RCS
001681:                                                                                                  #      AUTOPILOT (DB=1.4DEG IN FRESH START)
001682:                                                                                                  #      DEADBAND = PI/DKDB RAD.
001683:
001684:                                                                                                  #  PADLOADS FOR INITIALIZATION OF DAP BIAS ACCELERATION (AT P12 IGNITION)        (2D)
001685:
001686: E6,1412                        IGNAOSQ            ERASE                                          #  B(1)PL
001687: E6,1413                        IGNAOSR            ERASE                                          #  B(1)PL
001688:
001689:                                                                                                  #  AXIS TRANSFORMATION MATRIX - GIMBAL TO PILOT AXES:    (5D)
001690:
001691: E6,1414                        M11                ERASE                                          #  SCALED AT 1
001692: E6,1415                        M21                ERASE                                          #  SCALED AT 1
001693: E6,1416                        M31                ERASE
001694: E6,1417                        M22                ERASE                                          #  SCALED AT 1.
001695: E6,1420                        M32                ERASE                                          #  SCALED AT 1.
001696:
001697:                                                                                                  #  ANGLE MEASUREMENTS.                   (31D)
001698:
001699: E6,1421                        OMEGAP             ERASE    +4                                    #  BODY-AXIS ROT. RATES SCALED AT PI/4 AND
001700: E6,1426  E6,1422               OMEGAQ             EQUALS   OMEGAP     +1                         #  BODY-AXIS ACCELERATIONS SCALED AT PI/8
001701: E6,1426  E6,1423               OMEGAR             EQUALS   OMEGAP     +2
001702:                                                                                                  #  RETAIN THE ORDER OF ALPHAQ AND ALPHAR FOR DOWNLINK PURPOSES.
001703: E6,1426  E6,1424               ALPHAQ             EQUALS   OMEGAP     +3
001704: E6,1426  E6,1425               ALPHAR             EQUALS   OMEGAP     +4
001705: E6,1426                        OMEGAU             ERASE    +1
001706: E6,1430  E6,1427               OMEGAV             =        OMEGAU     +1
001707:
001708: E6,1430                        TRAPEDP            ERASE    +5
001709: E6,1436  E6,1431               TRAPEDQ            =        TRAPEDP    +1
001710: E6,1436  E6,1432               TRAPEDR            =        TRAPEDP    +2
001711: E6,1436  E6,1433               NPTRAPS            =        TRAPEDP    +3


001713: E6,1436  E6,1434               NQTRAPS            =        TRAPEDP    +4
001714: E6,1436  E6,1435               NRTRAPS            =        TRAPEDP    +5
001715: E6,1436  E6,1427               EDOTP              =        EDOT
001716: E6,1436                        EDOTQ              ERASE    +1
001717: E6,1440  E6,1437               EDOTR              =        EDOTQ      +1                         #   MANY SHARING NAMES
001718: E6,1440  E6,1436               QRATEDIF           EQUALS   EDOTQ                                 #  ALTERNATIVE NAMES:
001719: E6,1440  E6,1437               RRATEDIF           EQUALS   EDOTR                                 #  DELETE WHEN NO. OF REFERENCES = 0
001720:
001721: E6,1440  E6,1426               URATEDIF           EQUALS   OMEGAU
001722: E6,1440  E6,1427               VRATEDIF           EQUALS   OMEGAV
001723: E6,1440                        OLDXFORP           ERASE    +2                                    #  STORED CDU READINGS FOR STATE
001724: E6,1443  E6,1441               OLDYFORP           EQUALS   OLDXFORP   +1                         #  DERIVATIONS: SCALED AT PI RADIANS (2'S)
001725: E6,1443  E6,1442               OLDZFORQ           EQUALS   OLDXFORP   +2
001726:
001727:                                                                                                  #  RATE-COMMAND AND MINIMUM IMPULSE MODES
001728:
001729: E6,1443                        CH31TEMP           ERASE
001730: E6,1444                        STIKSENS           ERASE
001731: E6,1445                        TCP                ERASE
001732: E6,1446                        DXERROR            ERASE    +5
001733: E6,1454  E6,1450               DYERROR            EQUALS   DXERROR    +2
001734: E6,1454  E6,1452               DZERROR            EQUALS   DXERROR    +4
001735: E6,1454                        PLAST              ERASE
001736: E6,1455                        QLAST              ERASE
001737: E6,1456                        RLAST              ERASE
001738: E6,1457                        TCQR               ERASE
001739:
001740:                                                                                                  #  OTHER VARIABLES.                              (5D)
001741:
001742: E6,1460                        OLDPMIN            ERASE                                          #  THESE THREE USED IN MIN IMPULSE MODE.
001743: E6,1461                        OLDQRMIN           ERASE
001744: E6,1462  E6,1737               TEMP31             EQUALS   DAPTEMP1
001745:
001746: E6,1462                        SAVEHAND           ERASE    +1
001747: E6,1464                        PERROR             ERASE
001748: E6,1465  E6,1450               QERROR             EQUALS   DYERROR
001749: E6,1465  E6,1452               RERROR             EQUALS   DZERROR
001750:
001751:                                                                                                  #  JET STATE CHANGE VARIABLES - TIME (TOFJTCHG), JET BITS WRITTEN NOW    (10D)
001752:                                                                                                  #  (JTSONNOW), AND JET BITS WRITTEN AT T6 RUPT (JTSATCHG).
001753:
001754: E6,1465                        NXT6ADR            ERASE
001755: E6,1466                        T6NEXT             ERASE    +1
001756: E6,1470                        T6FURTHA           ERASE    +1
001757: E6,1472                        NEXTP              ERASE    +2
001758: E6,1475  E6,1473               NEXTU              =        NEXTP      +1
001759: E6,1475  E6,1474               NEXTV              =        NEXTP      +2
001760: E6,1475                        -2JETLIM           ERASE    +1                                    #  RATE COMMAND 4-JET RATE DIFFERENCE LIMIT
001761: E6,1477  E6,1476               -RATEDB            EQUALS   -2JETLIM   +1                         #  AND RATE DEADBAND FOR ASCENT OR DESCENT
001762:
001763: E6,1477  E6,1476               TARGETDB           EQUALS   -RATEDB                               #  MAN. CONTROL TARGET DB COMPLEMENT.
001764:
001765:                                                                                                  #  ***Q,R AXIS ERASABLES ***             (3)


001767: E6,1477     4742               PBIT               EQUALS   BIT10
001768: E6,1477     4741               QRBIT              EQUALS   BIT11
001769: E6,1477  E6,1751               UERROR             EQUALS   DAPTREG5                              #  U,V-AXES ATT ERROR FOR RCS CONTROL LAWS
001770: E6,1477  E6,1752               VERROR             =        UERROR     +1
001771: E6,1477                        RETJADR            ERASE
001772: E6,1500  E6,1742               TEMPNUM            EQUALS   DAPTEMP4
001773: E6,1500  E6,1743               NUMBERT            EQUALS   DAPTEMP5
001774: E6,1500  E6,1744               ROTINDEX           EQUALS   DAPTEMP6
001775: E6,1500  E6,1737               ROTEMP1            EQUALS   DAPTEMP1
001776: E6,1500  E6,1740               ROTEMP2            EQUALS   DAPTEMP2
001777: E6,1500  E6,1741               POLYTEMP           EQUALS   DAPTEMP3
001778: E6,1500                        SENSETYP           ERASE
001779: E6,1501  E6,1737               ABSTJ              EQUALS   DAPTEMP1                              #  ABS VALUE OF JET-FIRING TIME
001780: E6,1501  E6,1737               ABSEDOTP           EQUALS   DAPTEMP1
001781:
001782: E6,1501  E6,1750               DPSBURN            EQUALS   DAPTREG4                              #  USED WITH SNUFFBIT.  VERY TEMPORARY.
001783:


001785:                                                                                                  #  TRIM GIMBAL CONTROL LAW ERASABLES:            (11D)
001786:
001787: E6,1501  E6,1737               GTSTEMPS           EQUALS   DAPTEMP1                              #  GTS IS PART OF THE JASK.
001788: E6,1501  E6,1741               SHFTFLAG           EQUALS   GTSTEMPS   +2                         #  COUNT BITS FOR GTSQRT SHIFTING.
001789: E6,1501  E6,1744               ININDEX            EQUALS   GTSTEMPS   +5                         #  INDEX FOR SHIFT LOOP IN GTSQRT.
001790:
001791: E6,1501  E6,1505               SAVESR             EQUALS   AXISCTR                               #  CANNOT BE A DAPTEMP - GTS USES THEM ALL.
001792:
001793: E6,1501  E6,1746               SCRATCH            EQUALS   GTSTEMPS   +7                         #  ROOTCYCL ERASABLE
001794: E6,1501  E6,1747               HALFARG            EQUALS   GTSTEMPS   +8D                        #  ROOTCYCL ERASABLE.
001795:
001796: E6,1501  E6,1737               K2THETA            EQUALS   GTSTEMPS                              #  D.P., K*ERROR, NEGUSUM
001797: E6,1501  E6,1741               KCENTRAL           EQUALS   GTSTEMPS   +2                         #  S.P., K FROM KQ OR KRDAP, AT PI/2(8)
001798: E6,1501  E6,1742               K2CNTRAL           EQUALS   GTSTEMPS   +3                         #  D.P., GTS SCRATCH CELLS.
001799: E6,1501  E6,1743               WCENTRAL           EQUALS   GTSTEMPS   +4                         #  S.P., OMEGA, AT PI/4 RAD/SEC
001800: E6,1501  E6,1744               ACENTRAL           EQUALS   GTSTEMPS   +5                         #  S.P., ALPHA, AT PI/4 RAD/SEC(2)
001801: E6,1501  E6,1745               DEL                EQUALS   GTSTEMPS   +6                         #  S.P., SGN FUNCTION VALUE.
001802: E6,1501  E6,1746               A2CNTRAL           EQUALS   GTSTEMPS   +7                         #  D.P., GTS SCRATCH CELLS.
001803: E6,1501  E6,1750               QRCNTR             EQUALS   GTSTEMPS   +9D                        #  S.P., INDEX FOR GTS LOOP THROUGH Q,R AXES
001804: E6,1501  E6,1751               FUNCTION           EQUALS   GTSTEMPS   +10D                       #  D.P., ARGUMENT FOR GRSQRT, SCRATCH FOR GTS
001805:
001806: E6,1501                        NEGUQ              ERASE    +2                                    #  NEGATIVE OF Q-AXIS GIMBAL DRIVE
001807:                                                                                                  #                        NEGUQ +1        DEFINED AND USED ELSEWHERE
001808: E6,1504  E6,1503               NEGUR              EQUALS   NEGUQ      +2                         #  NEGATIVE OF R-AXIS GIMBAL DRIVE
001809:
001810: E6,1504                        KQ                 ERASE    +2                                    #  S.P., JERK TERM FOR GTS, AT PI/2(8)
001811: E6,1507  E6,1505               AXISCTR            EQUALS   KQ         +1
001812: E6,1507  E6,1506               KRDAP              EQUALS   KQ         +2                         #  .3 ACCDOTR SCALED AT PI/2(8)
001813:
001814: E6,1507                        ACCDOTQ            ERASE    +3                                    #  Q-JERK SCALED AT PI/2(7) UNSIGNED
001815: E6,1513  E6,1510               QACCDOT            EQUALS   ACCDOTQ    +1                         #  Q-JERK SCALED AT PI/2(7) SIGNED
001816: E6,1513  E6,1511               ACCDOTR            EQUALS   ACCDOTQ    +2                         #  R-JERK SCALED AT PI/2(7) UNSIGNED
001817: E6,1513  E6,1512               RACCDOT            EQUALS   ACCDOTQ    +3                         #  R-JERK SCALED AT PI/2(7) SIGNED
001818:
001819: E6,1513  E6,1450               QDIFF              EQUALS   QERROR                                #  ATTITUDE ERRORS:
001820: E6,1513  E6,1452               RDIFF              EQUALS   RERROR                                #  SCALED AT PI RADIANS
001821:
001822:                                                                                                  #  TORQUE VECTOR RECONSTRUCTION VARIABLES:       (18D)
001823:
001824: E6,1513  E6,1745               JETRATE            EQUALS   DAPTREG1
001825: E6,1513  E6,1746               JETRATEQ           EQUALS   JETRATE    +1                         #  THE LAST CONTROL SAMPLE PERIOD OF 100 MS
001826: E6,1513  E6,1747               JETRATER           EQUALS   JETRATE    +2                         #  SCALED AT PI/4 RADIANS/SECOND
001827:
001828: E6,1513                        DOWNTORK           ERASE    +5                                    #  ACCUMULATED JET TORQUE COMMANDED ABOUT
001829: E6,1521  E6,1513               POSTORKP           EQUALS   DOWNTORK                              #        +,-P, +,-U, +,-V RESPECTIVELY.
001830: E6,1521  E6,1514               NEGTOTKP           EQUALS   DOWNTORK   +1                         #        EMPLOYED EXCLUSIVELY FOR DOWNLIST.
001831: E6,1521  E6,1515               POSTORKU           EQUALS   DOWNTORK   +2                         #        NOT INITIALIZED:  PERMITTED TO OVERFLOW


001833: E6,1521  E6,1516               NEGTORKU           EQUALS   DOWNTORK   +3                         #        SCALED AT 32 JET-SEC, OR ABOUT 2.0 JET-
001834: E6,1521  E6,1517               POSTORKV           EQUALS   DOWNTORK   +4                         #        MSEC PER BIT.
001835: E6,1521  E6,1520               NEGTORKV           EQUALS   DOWNTORK   +5
001836:
001837: E6,1521                        NO.PJETS           ERASE    +2
001838: E6,1524  E6,1522               NO.UJETS           =        NO.PJETS   +1
001839: E6,1524  E6,1523               NO.VJETS           =        NO.UJETS   +1
001840: E6,1524                        TJP                ERASE    +2
001841: E6,1527  E6,1525               TJU                =        TJP        +1
001842: E6,1527  E6,1526               TJV                =        TJP        +2
001843:
001844: E6,1527                        L,PVT-CG           ERASE
001845: E6,1530                        1JACC              ERASE    +4                                    #  ACCELERATIONS DUE TO 1 JET TORQUING
001846: E6,1535  E6,1531               1JACCQ             EQUALS   1JACC      +1                         #  SCALED AT PI/4 RADIANS/SECOND
001847: E6,1535  E6,1532               1JACCR             EQUALS   1JACC      +2
001848: E6,1535  E6,1533               1JACCU             EQUALS   1JACC      +3                         #  FOR U,V-AXES THE SCALE FACTOR IS  DIFF:
001849: E6,1535  E6,1534               1JACCV             EQUALS   1JACC      +4                         #  SCALED AT PI/2 RADIANS/SECOND (FOR ASC)
001850:
001851:                                                                                                  #  ASCENT VARIABLES:                             (10D)
001852:
001853: E6,1535                        SKIPU              ERASE    +1
001854: E6,1537  E6,1536               SKIPV              =        SKIPU      +1
001855:
001856:                                                                                                  #  THE FOLLOWING LM DAP ERASABLES ARE ZEROED IN THE STARTDAP SECTION OF THE DAPIDLER PROGRAM AND THE COASTASC
001857:                                                                                                  #  SECTION OF THE AOSTASK.  THE ORDER MUST BE PRESERVED FOR THE INDEXING METHODS WHICH ARE EMPLOYED IN THOSE
001858:                                                                                                  #  SECTIONS AND ELSEWHERE.
001859:
001860: E6,1537                        AOSQ               ERASE    +5                                    #  OFFSET ACC. ESTIMATES, UPDATED IN D.P.,
001861: E6,1545  E6,1541               AOSR               EQUALS   AOSQ       +2                         #  AND SCALED AT PI/2.
001862: E6,1545  E6,1543               AOSU               EQUALS   AOSQ       +4                         #  UV-AXES OFFSET ACC. FROMED BY VECTOR
001863: E6,1545  E6,1544               AOSV               EQUALS   AOSQ       +5                         #  ADDITION OF Q,R. AT PI/2 RAD/SEC(2).
001864:
001865: E6,1545                        AOSQTERM           ERASE    +1                                    #  (.1-.05K)AOS
001866: E6,1547  E6,1546               AOSRTERM           EQUALS   AOSQTERM   +1                         #  SCALED AT PI/4 RADIANS/SECOND.
001867:
001868:                                                                                                  #  FOR TJET LAW SUBROUTINE:                      (TEMPS ONLY)
001869:
001870:                                                                                                  # NUMBERT        EQUALS  DAPTEMP5        DEFINED IN QRAXIS.
001871: E6,1547  E6,1737               EDOTSQ             EQUALS   DAPTEMP1
001872: E6,1547  E6,1740               ROTSENSE           EQUALS   DAPTEMP2
001873: E6,1547  E6,1741               FIREFCT            EQUALS   DAPTEMP3                              #  LOOKED AT BY PAXIS.
001874: E6,1547  E6,1742               TTOAXIS            EQUALS   DAPTEMP4
001875: E6,1547  E6,1744               ADRSDIF2           EQUALS   DAPTEMP6
001876: E6,1547  E6,1745               HOLDQ              EQUALS   DAPTREG1
001877: E6,1547  E6,1746               ADRSDIF1           EQUALS   DAPTREG2
001878: E6,1547  E6,1747               HH                 EQUALS   DAPTREG3                              #  DOUBLE PRECISION
001879:                                                                                                  #  HH +1         EQUALS  DAPTREG4
001880: E6,1547  E6,1752               E                  EQUALS   DAPTREG6                              #  TIME SHARE WITH VERROR
001881: E6,1547  E6,1427               EDOT               EQUALS   OMEGAV
001882:


001884:                                                                                                  #  INPUT TO TJET LAW (PERMANENT ERASABLES).      (48D)
001885:
001886: E6,1547  E6,1525               TJETU              =        TJU                                   #  EQUATE NAMES.  INDEXED BY -1, 0, +1.
001887: E6,1547                        BLOCKTOP           ERASE    +47D
001888: E6,1627  E6,1567               1/ANET1            =        BLOCKTOP   +16D                       #  THESE 8 PARAMETERS ARE SET UP BY 1/ACCS
001889: E6,1627  E6,1570               1/ANET2            =        1/ANET1    +1                         #  FOR MINIMUM JETS ABOUT THE U-AXIS WHEN
001890: E6,1627  E6,1573               1/ACOAST           =        1/ANET1    +4                         #  EDOT IS POSITIVE.  TJETLAW INDEXES BY
001891: E6,1627  E6,1575               ACCFCTZ1           =        1/ANET1    +6                         #  ADRSDIFF FROM THESE REGISTERS TO PICK UP
001892: E6,1627  E6,1576               ACCFCTZ5           =        1/ANET1    +7                         #  PARAMETERS FOR THE PROPER AXIS, NUMBER
001893: E6,1627  E6,1601               FIREDB             =        1/ANET1    +10D                       #  OF JETS AND SIGN OF EDOT.  THERE ARE 48
001894: E6,1627  E6,1603               COASTDB            =        1/ANET1    +12D                       #  REGISTERS IN ALL IN THIS BLOCK.
001895: E6,1627  E6,1605               AXISDIST           =        1/ANET1    +14D                       #  FOUR NOT REFERENCED (P-AXIS) ARE FILLED
001896:                                                                                                  #  IN BY THE FOLLOWING:
001897: E6,1627  E6,1547               ACCSWU             =        BLOCKTOP                              #  SET BY 1/ACCS TO SHOW WHETHER MAXIMUM
001898: E6,1627  E6,1550               ACCSWV             =        ACCSWU     +1                         #  JETS ARE REQUIRED BECAUSE OF AOS.
001899: E6,1627  E6,1555               FLAT               =        BLOCKTOP   +6                         #  WIDTH OF MINIMUM IMPULSE ZONE.
001900: E6,1627  E6,1556               ZONE3LIM           =        BLOCKTOP   +7                         #  HEIGHT OF MINIMUM IMPULSE ZONE (AT 4 SEC)
001901:
001902: E6,1627                        COEFFQ             ERASE    +1                                    #  COEFFQ AND COEFFR ARE USED IN ROT-TOUV
001903: E6,1631  E6,1630               COEFFR             EQUALS   COEFFQ     +1                         #  TO RESOLVE Q,R COMPONENTS INTO U,V COMP.
001904:
001905:                                                                                                  #  VARIABLES FOR GTS-QRAXIS CONTROL EXCHANGE.    (4)
001906:
001907: E6,1631  E6,1502               ALLOWGTS           EQUALS   NEGUQ      +1                         #  INSERT INTO UNUSED LOCATION
001908: E6,1631                        COTROLER           ERASE                                          #  INDICATES WHICH CONTROL SYSTEM TO USE.
001909: E6,1632                        QGIMTIMR           ERASE    +2                                    #  Q-GIMBAL DRIVE ITMER, DECISECONDS.
001910: E6,1635  E6,1633               INGTS              EQUALS   QGIMTIMR   +1                         #  INDICATOR OF CURRENT GTS CONTROL.
001911: E6,1635  E6,1634               RGIMTIMR           EQUALS   QGIMTIMR   +2                         #  R-GIMBAL DRIVE TIMER, DECISECONDS.
001912:
001913:                                                                                                  #  PLEASE RETAIN THE ORDER OF CDUXD THRU CDUZD FOR DOWNLINK PURPOSES.
001914:
001915:                                                                                                  #  KALCMANU:DAP INTERFACE.                       (9D)
001916:
001917: E6,1635                        CDUXD              ERASE    +2                                    #  CDU DESIRED REGISTERS:
001918: E6,1640  E6,1636               CDUYD              EQUALS   CDUXD      +1                         #  SCALED AT PI RADIANS (180 DEGREES)
001919: E6,1640  E6,1637               CDUZD              EQUALS   CDUXD      +2                         #  (STORE IN 2S COMPLEMENT)
001920:
001921: E6,1640                        DELCDUX            ERASE    +2                                    #  NEGATIVE OF DESIRED 100MS CDU INCREMENT:
001922: E6,1643  E6,1641               DELCDUY            EQUALS   DELCDUX    +1                         #  SCALED AT PI RADIANS (180 DEGREES)
001923: E6,1643  E6,1642               DELCDUZ            EQUALS   DELCDUX    +2                         #  (STORE IN 2S COMPLEMENT)
001924:
001925:                                                                                                  #  RETAIN THE ORDER OF OMEGAPD TO OMEGARD FOR DOWNLINK PURPOSES.
001926:
001927: E6,1643                        OMEGAPD            ERASE    +2                                    #  ATTITUDE MANEUVER DESIRED RATES:
001928: E6,1646  E6,1644               OMEGAQD            EQUALS   OMEGAPD    +1                         #  (NOT EXPLICITLY REFERENCED IN GTS CNTRL)
001929: E6,1646  E6,1645               OMEGARD            EQUALS   OMEGAPD    +2                         #  SCALED AT PI/4 RADIANS/SECOND
001930:
001931:                                                                                                  #  KALCMANU STORAGE.                             (24D)
001932:
001933: E6,1646                        MIS                ERASE    +23D                                  #  I(18D)


001935: E6,1676  E6,1670               COF                EQUALS   MIS        +18D                       #  I(6)
001936:
001937:                                                                                                  #  KALCMANU STORAGE.                             (33D)
001938: E6,1676                        BCDU               ERASE    +30D                                  #  B(3)
001939: E6,1735  E6,1701               KSPNDX             EQUALS   BCDU       +3                         #  B(1)
001940: E6,1735  E6,1702               KDPNDX             EQUALS   KSPNDX     +1                         #  B(1)
001941:
001942: E6,1735  E6,1703               TMIS               EQUALS   KDPNDX     +1                         #  I(18) MUST BE IN SAME BANK AS RCS DAP
001943: E6,1735  E6,1725               COFSKEW            EQUALS   TMIS       +18D                       #  I(6)  MUST BE IN SAME BANK AS RCS DAP
001944: E6,1735  E6,1733               CAM                EQUALS   COFSKEW    +6                         #  I(2)  MUST BE IN SAME BANK AS RCS DAP
001945:
001946: E6,1735                        AM                 ERASE    +1                                    #  I(2) THIS WAS ONCE IN E5 OVERLAYING OGC
001947:
001948:                                                                                                  #  FIRST-ORDER OVERLAYS IN KALCMANU              (25D)
001949: E6,1737  E6,1703               KV1                EQUALS   TMIS                                  #  I(6)
001950: E6,1737  E6,1703               MFISYM             EQUALS   TMIS                                  #  I
001951: E6,1737  E6,1703               TMFI               EQUALS   TMIS                                  #  I
001952: E6,1737  E6,1703               NCDU               EQUALS   TMIS                                  #  B
001953: E6,1737  E6,1706               NEXTIME            EQUALS   TMIS       +3                         #  B
001954: E6,1737  E6,1707               TTEMP              EQUALS   TMIS       +4                         #  B
001955: E6,1737  E6,1711               KV2                EQUALS   TMIS       +6                         #  I(6)
001956: E6,1737  E6,1711               BIASTEMP           EQUALS   TMIS       +6                         #  B
001957: E6,1737  E6,1717               KV3                EQUALS   TMIS       +12D                       #  I(6)
001958: E6,1737  E6,1717               OGF                EQUALS   TMIS       +12D                       #  I
001959:
001960: E6,1737  E6,1725               BRATE              EQUALS   COFSKEW                               #  B
001961: E6,1737  E6,1725               IG                 EQUALS   COFSKEW                               #  I
001962:
001963: E6,1737  E6,1733               TM                 EQUALS   CAM                                   #  B
001964:
001965:                                                                                                  #  SECOND-ORDER OVERLAYS IN KALCMANU             (24D)
001966:
001967: E6,1737  E6,1703               K1                 =        KV1
001968: E6,1737  E6,1711               K2                 =        KV2
001969: E6,1737  E6,1717               K3                 =        KV3
001970: E6,1737  E6,1703               P21                EQUALS   KV1                                   #  I(2)
001971: E6,1737  E6,1705               D21                EQUALS   KV1        +2                         #  I(2)
001972: E6,1737  E6,1707               G21                EQUALS   KV1        +4                         #  I(2)
001973: E6,1737  E6,1711               C2SQP              EQUALS   KV2                                   #  I(2)
001974: E6,1737  E6,1713               C2SQM              EQUALS   KV2        +2                         #  I(2)
001975: E6,1737  E6,1715               C2PP               EQUALS   KV2        +4                         #  I(2)
001976: E6,1737  E6,1717               C2MP               EQUALS   KV3                                   #  I(2)
001977: E6,1737  E6,1721               C1PP               EQUALS   KV3        +2                         #  I(2)
001978: E6,1737  E6,1723               C1MP               EQUALS   KV3        +4                         #  I(2)


001980: E6,1737  E6,1725               VECQTEMP           =        COFSKEW
001981:
001982: E6,1737  E6,1635               DCDU               =        CDUXD
001983: E6,1737  E6,1640               DELDCDU            =        DELCDUX
001984: E6,1737  E6,1641               DELDCDU1           =        DELCDUY
001985: E6,1737  E6,1642               DELDCDU2           =        DELCDUZ
001986:
001987:                                                                                                  #  *  *  *  *  *  *  *  *  *  *  *  *  *  *  *  *  *  *  *  *  *  *  *  *
001988:
001989:                                                                                                  #  STORAGE FOR FINDCDUW
001990:
001991:                                                                                                  #  OVERLAYING KALCMANU STORAGE:                  (26D)
001992:
001993: E6,1737  E6,1646               ECDUW              EQUALS   MIS
001994: E6,1737  E6,1646               ECDUWUSR           EQUALS   ECDUW                                 #  B(1)TMP
001995: E6,1737  E6,1647               QCDUWUSR           EQUALS   ECDUWUSR   +1                         #  I(1)TMP
001996: E6,1737  E6,1650               NDXCDUW            EQUALS   QCDUWUSR   +1                         #  B(1)TMP
001997: E6,1737  E6,1651               FLAGOODW           EQUALS   NDXCDUW    +1                         #  B(1)TMP
001998: E6,1737  E6,1652               FLPAUTNO           EQUALS   FLAGOODW   +1                         #  B(1)TMP
001999: E6,1737  E6,1653               UNFC/2             EQUALS   FLPAUTNO   +1                         #  I(6)IN
002000: E6,1737  E6,1661               UNWC/2             EQUALS   UNFC/2     +6                         #  I(6)IN
002001: E6,1737  E6,1667               UNFV/2             EQUALS   UNWC/2     +6                         #  I(6) S-S
002002: E6,1737  E6,1667               UNFVX/2            =        UNFV/2
002003: E6,1737  E6,1671               UNFVY/2            =        UNFV/2     +2
002004: E6,1737  E6,1673               UNFVZ/2            =        UNFV/2     +4
002005: E6,1737  E6,1675               -DELGMB            EQUALS   UNFV/2     +6                         #  B(3)TMP
002006:
002007:                                                                                                  #  DEFINED IN THE WORK AREA:                     (18D)
002008:
002009: E6,1737                        UNX/2              =        0
002010: E6,1737                        UNY/2              =        6
002011: E6,1737                        UNZ/2              =        14
002012:
002013:                                                                                                  #  END OF FINDCDUW ERASABLES
002014:
002015:                                                                                                  #  *  *  *  *  *  *  *  *  *  *  *  *  *  *  *  *  *  *  *  *  *  *  *  *
002016:
002017:                                                                                                  #  THE FOLLOWING ARE THE DAP REPLACEMENTS FOR THE ITEMPS AND RUPTREGS, NEEDED BECAUSE DAP IS NOW A TOB,JASK,JAB,TOSK
002018:                                                                                                  #  ... ANYWAY, THE DAP CAN NOW BE INTERRUPTED.   (18D)
002019:
002020: E6,1737                        DAPTEMP1           ERASE    +17D
002021: E6,1761  E6,1740               DAPTEMP2           EQUALS   DAPTEMP1   +1
002022: E6,1761  E6,1741               DAPTEMP3           EQUALS   DAPTEMP1   +2
002023: E6,1761  E6,1742               DAPTEMP4           EQUALS   DAPTEMP1   +3
002024: E6,1761  E6,1743               DAPTEMP5           EQUALS   DAPTEMP1   +4
002025: E6,1761  E6,1744               DAPTEMP6           EQUALS   DAPTEMP1   +5
002026: E6,1761  E6,1745               DAPTREG1           EQUALS   DAPTEMP1   +6
002027: E6,1761  E6,1746               DAPTREG2           EQUALS   DAPTEMP1   +7
002028: E6,1761  E6,1747               DAPTREG3           EQUALS   DAPTEMP1   +8D


002030: E6,1761  E6,1750               DAPTREG4           EQUALS   DAPTEMP1   +9D
002031: E6,1761  E6,1751               DAPTREG5           EQUALS   DAPTEMP1   +10D
002032: E6,1761  E6,1752               DAPTREG6           EQUALS   DAPTEMP1   +11D
002033:
002034: E6,1761  E6,1753               DAPARUPT           EQUALS   DAPTEMP1   +12D
002035: E6,1761  E6,1754               DAPLRUPT           EQUALS   DAPARUPT   +1
002036: E6,1761  E6,1755               DAPBQRPT           EQUALS   DAPARUPT   +2
002037: E6,1761  E6,1757               DAPZRUPT           EQUALS   DAPARUPT   +4
002038:                                                                                                  #  (DAPZRUPT IS ALSO JASK-IN-PROGRESS FLAG)
002039:
002040:                                                                                                  #  NEEDLER (ATTITUDE ERROR EIGHT BALL DISPLAY) STORAGE.  (6D)
002041:
002042: E6,1761     0061               T5TEMP             EQUALS   ITEMP1
002043: E6,1761     0063               DINDX              EQUALS   ITEMP3
002044: E6,1761                        AK                 ERASE    +2                                    #  NEEDLER ATTITUDE INPUTS, SCALED AT 180
002045: E6,1764  E6,1762               AK1                EQUALS   AK         +1                         #  DEGREES.  P,Q,R AXES IN AK,AK1,AK2.
002046: E6,1764  E6,1763               AK2                EQUALS   AK         +2
002047:
002048: E6,1764                        EDRIVEX            ERASE    +2                                    #  NEEDLER DISPLAY REGS AT 1800 DEGREES.
002049: E6,1767  E6,1765               EDRIVEY            EQUALS   EDRIVEX    +1                         #  SO THAT 384 BITS REPRESENT 42 3/16 DEG.
002050: E6,1767  E6,1766               EDRIVEZ            EQUALS   EDRIVEX    +2
002051:
002052:                                                                                                  #  DOCKED JET INHIBITION COUNTERS                (3D)
002053:
002054: E6,1767                        PJETCTR            ERASE    +2
002055: E6,1772  E6,1770               UJETCTR            EQUALS   PJETCTR    +1
002056: E6,1772  E6,1771               VJETCTR            EQUALS   PJETCTR    +2
002057:
002058: E6,1772  E6,1771               END-E6             EQUALS   VJETCTR
002059:


002061:                                                                                                  #  EBANK-7 ASSIGNMENTS
002062:
002063: E7,1400                                           SETLOC   3400
002064:
002065:                                                                                                  #  P35 CONSTANTS.        -PAD LOADED-            (4D)
002066:
002067: E7,1400                        ATIGINC            ERASE    +1                                    #  B(2)PL        *MUST BE AT 1400 FOR SYSTEMSTEST
002068: E7,1402                        PTIGINC            ERASE    +1                                    #  B(2)PL
002069:
002070:                                                                                                  #  AOTMARK STORAGE.      -PAD LOADED-            (12D)
002071:
002072: E7,1404                        AOTAZ              ERASE    +5                                    #  B(6)PL
002073: E7,1412                        AOTEL              ERASE    +5                                    #  B(6)PL
002074:
002075:                                                                                                  #  LANDING RADAR.        -PAD LOADED-            (2D)
002076:
002077: E7,1420                        LRHMAX             ERASE                                          #  B(1)
002078: E7,1421                        LRWH               ERASE                                          #  B(1)
002079:
002080:                                                                                                  #  THROTTLE STORAGE.     -PAD LOADED-            (1D)
002081:
002082: E7,1422                        ZOOMTIME           ERASE                                          #  B(1)PL TIME OF DPS THROTTLE-UP COMMAND
002083:
002084:                                                                                                  #  P63 AND P64 CONSTANTS.        -PAD LOADED-            (4D)
002085:
002086: E7,1423                        TENDBRAK           ERASE                                          #  B(1) LANDING PHASE SWITCHING CRITERION
002087: E7,1424                        TENDAPPR           ERASE                                          #  B(1) LANDING PHASE SWITCHING CRITERION
002088: E7,1425                        DELTTFAP           ERASE                                          #  B(1) INCREMENT ADDED TO TTF/8 WHEN
002089:                                                                                                  #        SWITCHING FROM P63 TO P64
002090: E7,1426                        LEADTIME           ERASE                                          #  B(1) TIME INCREMENT SPECIFYING HOW MUCH
002091:                                                                                                  #        GUIDANCE IS PROJECTED FORWARD.
002092:
002093:                                                                                                  #  LANDING RADAR         -PAD LOADED-            (2D)
002094:
002095: E7,1427                        RPCRTIME           ERASE                                          #  B(1) REPOSITIONING CRITERION (TIME)
002096: E7,1430                        RPCRTQSW           ERASE                                          #  B(1) REPOSITIONING CRITERION (ANGLE)
002097:
002098:                                                                                                  #  ASTEER                -PAD LOADED-            (2D)
002099:
002100: E7,1431                        TNEWA              ERASE    +1                                    #  I(2)PL LAMBERT CYCLE PERIOD
002101:
002102:                                                                                                  #  P22 STORAGE - OVERLAYS LANDING PADLOADS -     (5D)


002104: E7,1433  E7,1423               REPOSCNT           EQUALS   TENDBRAK                              #  B(1)TMP COUNTS NUMBER OF PASSES THROUGH
002105:                                                                                                  #          REPOSITION ROUTINE.
002106: E7,1433  E7,1424               REPOSTM            EQUALS   REPOSCNT   +1                         #  I(2)TMP PRESENT TIME PLUS INCREMENTS OF
002107:                                                                                                  #          TEN SECONDS.
002108: E7,1433  E7,1426               DELTATM            EQUALS   REPOSTM    +2                         #  I(2)TMP TIME INTERVAL FOR RUNNING
002109:                                                                                                  #          DESIGNATE TASK.
002110:
002111:                                                                                                  #  *** RETAIN THE ORDER OF DELVSLV, TIG, RTARG, DELLT4 FOR UPDATE. ***
002112:
002113:                                                                                                  #  P32-35 P72-75 STORAGE.                        (6D)
002114:
002115: E7,1433                        DELVLVC            ERASE    +5                                    #  I(6) DELTA VELOCITY - LOCAL VERTICAL COO
002116: E7,1441  E7,1433               DELVSLV            =        DELVLVC                               #  (TEMP STORAGE OF SAME VECTOR)    -RDINATE
002117:
002118:                                                                                                  #  P30-P40 INTERFACE UNSHARED.                   (2D)
002119:
002120: E7,1441                        TIG                ERASE    +1                                    #  B(2)
002121:
002122:                                                                                                  #  INITVEL STORAGE.  ALSO USED BY P34,35,74,75,10,11 OTHERS      (8D)
002123:
002124: E7,1443                        RTARG              ERASE    +5                                    #  I(6) TARGET VECTOR
002125: E7,1451                        DELLT4             ERASE    +1                                    #  I(2) TIME DIFFERENCE
002126:
002127:                                                                                                  #  P30-P40 INTERFACE UNSHARED.                   (3D)
002128:
002129: E7,1453                        TTOGO              ERASE    +1                                    #  B(2)
002130: E7,1455  E7,1453               TFI                EQUALS   TTOGO
002131: E7,1455                        WHICH              ERASE                                          #  B(1)
002132:
002133:                                                                                                  #  *** R21 ***                                   (1D)
002134:
002135: E7,1456                        LOSCOUNT           ERASE                                          #  B(1)
002136:
002137:                                                                                                  #  L SR22.3 (RENDEZVOUS NAVIGATION) STORAGE.             (4D)
002138:
002139:                                                                                                  #  RETAIN THE ORDER OF AIG TO TRKMKCNT FOR DOWNLINK PURPOSES.
002140:
002141: E7,1457                        AIG                ERASE                                          #  B(1)OUT GIMGAL ANGLES
002142: E7,1460                        AMG                ERASE                                          #  B(1)OUT (MUST BE
002143: E7,1461                        AOG                ERASE                                          #  B(1)OUT  CONSECUTIVE)
002144:
002145: E7,1462                        TRKMKCNT           ERASE                                          #  B(1)TMP TEMPORARY MARK STORAGE.
002146: E7,1463  E7,1462               MARKCTR            =        TRKMKCNT
002147:


002149:                                                                                                  #  P32-P35, P72-P75 STORAGE.  -PERMANENT-        (6)
002150:
002151: E7,1463                        NORMEX             ERASE                                          #  B(1)PRM SAVE FOR Q
002152: E7,1464                        QSAVED             ERASE                                          #  B(1)PRM SAVE FOR Q
002153: E7,1465                        RTRN               ERASE                                          #  B(1)PRM SAVE FOR Q
002154: E7,1466                        NN                 ERASE    +1                                    #  B(2)
002155: E7,1470                        SUBEXIT            ERASE                                          #  B(1)PRM SAVE Q
002156:
002157: E7,1471                        E7OVERLA           EQUALS                                         #  START OF E7 OVERLAYS.
002158: E7,1471  E7,1471               WHOCARES           EQUALS   E7OVERLA                              #  DUMMY FOR EBANK INSENSITIVE 2CADRS
002159:
002160:                                                                                                  #  LUNAR LANDING OVERLAYS                        (6D)
002161:
002162: E7,1471  E7,1463               /AFC/              EQUALS   NORMEX                                #  B(2)TMP THROTTLE
002163: E7,1471  E7,1465               FCODD              EQUALS   /AFC/      +2                         #  B(2)TMP THROTTLE
002164: E7,1471  E7,1467               FP                 EQUALS   FCODD      +2                         #  B(2)TMP THROTTLE


002166:                                                                                                  #  ******* OVERLAY NUMBER 0 IN EBANK 7 *******
002167:
002168:                                                                                                  #  RENDEZVOUS GUIDANCE STORAGE -P32....P35-      (89D)
002169:
002170: E7,1471  E7,1611               TSTRT              EQUALS   DELDV                                 #  MIDCOURSE START TIME
002171: E7,1471  E7,1573               TDEC2              EQUALS   DELVCSI                               #  TEMP STORAGE FOR INTEGRATION TIME INPUT
002172: E7,1471  E7,1575               KT                 EQUALS   DELVTPI                               #  TEMP STORAGE FOR MIDCOURSE DELTA TIME
002173: E7,1471                        VACT1              ERASE    +5D                                   #  VELOCITY VECTOR OF ACTIVE AT CSI TIME
002174: E7,1477                        RPASS1             ERASE    +5D                                   #  POSITION VECTOR OF PASSIVE AT CSI TIME
002175: E7,1505                        VPASS1             ERASE    +5D                                   #  VELOCITY VECTOR OF PASSIVE AT CSI TIME
002176: E7,1513                        VACT2              ERASE    +5D                                   #  VELOCITY VECTOR OF ACTIVE AT CDH TIME
002177: E7,1521                        RPASS2             ERASE    +5D                                   #  POSITION VECTOR OF PASSIVE AT CDH TIME
002178: E7,1527                        VPASS2             ERASE    +5D                                   #  VELOCITY VECTOR OF PASSIVE AT CDH TIME
002179: E7,1535                        RACT3              ERASE    +5D                                   #  POSITION VECTOR OF ACTIVE AT TPI TIME
002180: E7,1543                        VACT3              ERASE    +5D                                   #  VELOCITY VECTOR OF ACTIVE AT TPI TIME
002181: E7,1551                        RPASS3             ERASE    +5D                                   #  POSITION VECTOR OF PASSIVE AT TPI TIME
002182: E7,1557                        VPASS3             ERASE    +5D                                   #  VELOCITY VECTOR OF PASSIVE AT TPI TIME
002183: E7,1565                        VACT4              ERASE    +5D                                   #  VELOCITY VECTOR OF ACTIVE AT INTERCEPT
002184: E7,1573  E7,1543               UNVEC              EQUALS   VACT3                                 #  CDHMVR UNIT VECTOR TEMP STORAGE.
002185: E7,1573                        DELVCSI            ERASE    +1D                                   #  THRUST VALUE AT CSI
002186: E7,1575                        DELVTPI            ERASE    +1D                                   #  THRUST VALUE AT TPI OR MID
002187: E7,1577  E7,1575               DELVMID            EQUALS   DELVTPI
002188: E7,1577                        DIFFALT            ERASE    +1D                                   #  ALT DIFFERENCE AT CDH
002189: E7,1601                        POSTCSI            ERASE    +1                                    #  PERIGEE ALTITUDE AFTER CSI MANEUVER
002190: E7,1603                        POSTCDH            ERASE    +1                                    #  PERIGEE ALTITUDE AFTER CDH MANEUVER
002191: E7,1605                        POSTTPI            ERASE    +1                                    #  PERIGEE ALTITUDE AFTER TPI MANEUVER
002192: E7,1607  E7,1605               LOOPCT             EQUALS   POSTTPI                               #  CSI NEWTON ITERATION COUNTER
002193: E7,1607  E7,1603               HAFPA1             EQUALS   POSTCDH                               #  HALF PERIOD
002194: E7,1607                        GAMPREV            ERASE    +1                                    #  PREVIOUS GAMMA
002195: E7,1611  E7,1575               DVPREV             EQUALS   DELVTPI                               #  PREVIOUS DELVCSI
002196: E7,1611                        DELDV              ERASE    +1D
002197: E7,1613                        CSIALRM            ERASE    +1                                    #  FIRST SOLUTION ALARM
002198: E7,1615                        VERBNOUN           ERASE
002199: E7,1616  E7,1613               TITER              EQUALS   CSIALRM                               #  ITERATION COUNTER
002200: E7,1616                        RDOTV              ERASE    +1
002201: E7,1620  E7,1505               VAPREC             EQUALS   VPASS1                                #  I(6) S-S PREC VEC FOR NOM TPI TIME(ACT V
002202: E7,1620  E7,1477               RAPREC             EQUALS   RPASS1                                #  I(6) S-S PREC VEC FOR NOM TPI TIME(ACT V
002203: E7,1620  E7,1527               VPPREC             EQUALS   VPASS2                                #  I(6) S-S PREC VEC FOR NOM TPI TIME(PASS
002204: E7,1620  E7,1521               RPPREC             EQUALS   RPASS2                                #  I(6) S-S PREC VEC FOR NOM TPI TIME(PASS
002205: E7,1620  E7,1575               DELEL              EQUALS   DELVTPI                               #  I(2) S-S
002206: E7,1620  E7,1611               DELTEE             EQUALS   DELDV                                 #  I(2) S-S
002207: E7,1620  E7,1573               SECMAX             EQUALS   DELVCSI                               #  I(2) S-S MAX STOP SIZE FOR ROUTINE
002208: E7,1620  E7,1605               DELTEEO            EQUALS   POSTTPI                               #  I(2) S-S BACK VALUES OF DELTA TIME
002209: E7,1620                        CENTANG            ERASE    +1                                    #  I(2) S-S CENTRAL ANGLE COVERED(TPI-TPF)
002210:


002212:                                                                                                  #  SOME P47 STORAGE                              (6D)
002213:
002214: E7,1622                        DELVIMU            ERASE    +5                                    #  I(6)DSP NOUN 83 FOR P47 DELTA V (IMU)
002215:
002216:                                                                                                  #  P30-P40 COMMON STORAGE.                       (3D)
002217:
002218: E7,1630                        TPASS4             ERASE    +1                                    #  INTERCEPT TIME
002219: E7,1632                        QTEMP              ERASE                                          #  I(1)TMP COMMON RETURN SAVE REGISTER.
002220:
002221:                                                                                                  #  P32,33,34 STORAGE.                            (6D)
002222:
002223: E7,1633                        TCSI               ERASE    +1                                    #  B(2)TMP CSI TIME IN CENTISECONDS
002224: E7,1635                        TTPI               ERASE    +1                                    #  B(2)TMP TPI TIME IN CENTISECONDS
002225: E7,1637                        TTPI0              ERASE    +1                                    #  B(2)TMP TTPI STORAGE FOR RECYCLE
002226:
002227:                                                                                                  #  P30,P40 INTERFACE.                            (21D)
002228:
002229: E7,1641                        RTIG               ERASE    +19D                                  #  I(6)TMP
002230: E7,1665  E7,1647               VTIG               EQUALS   RTIG       +6                         #  I(6)TMP
002231: E7,1665  E7,1655               DELVSIN            EQUALS   VTIG       +6                         #  I(6)TMP
002232: E7,1665  E7,1663               DELVSAB            EQUALS   DELVSIN    +6                         #  I(2)TMP
002233: E7,1665  E7,1663               VGDISP             =        DELVSAB
002234:
002235: E7,1665                        QTEMP1             ERASE                                          #  I(1)TMP HOLDS RETURN.
002236: E7,1666  E7,1665               RGEXIT             EQUALS   QTEMP1                                #  SAVE Q
002237: E7,1666  E7,1665               SAVQR52            EQUALS   QTEMP1
002238:
002239:                                                                                                  #  INITVEL STORAGE.  (IN OVERLAY 0 AND OVERLAY 1.        (2D)
002240:                                                                                                  #        (CALLS LAMBERT, CONIC SUBROUTINES)
002241:
002242: E7,1666  E7,1565               VTPRIME            EQUALS   VACT4                                 #  TOTAL VELOCITY AT DESIRED RADIUS
002243: E7,1666  E7,1616               ITCTR              EQUALS   RDOTV                                 #  ITERATION COUNTER
002244: E7,1666                        COZY4              ERASE    +1                                    #  COS OF ANGLE WHEN ROTATION STARTS
002245: E7,1670  E7,1611               X1INPUT            EQUALS   DELDV                                 #  X1 TEMP STORAGE
002246: E7,1670  E7,1607               INTIME             EQUALS   GAMPREV                               #  TIME OF RINIT
002247:
002248:                                                                                                  #  PERIAPO STORAGE. (2D)                         (2D)
002249:
002250: E7,1670                        XXXALT             ERASE    +1                                    #  RADIUS TO LAUNCH PAD OR LANDING SIGHT
002251:
002252: E7,1672  E7,1672               END-IN/M           EQUALS   XXXALT     +2                         #  NEXT AVAIL ERASABLE AFTER INITVEL/MIDGIM
002253:


002255:                                                                                                  #  S40.1 STORAGE.                                (12D)
002256:
002257: E7,1672                        UT                 ERASE    +11D                                  #  I(6) THRUST DIRECTION
002258: E7,1706  E7,1700               VGTIG              EQUALS   UT         +6                         #  I(6)OUT
002259: E7,1706  E7,1700               VGPREV             =        VGTIG
002260:
002261:                                                                                                  #  ASTEER STORAGE.                               (22D)
002262:
002263: E7,1706                        VG                 ERASE    +21D                                  #  I(6)
002264: E7,1734  E7,1714               RMAG               EQUALS   VG         +6                         #  I(2)
002265: E7,1734  E7,1716               MUASTEER           EQUALS   RMAG       +2                         #  I(2)
002266: E7,1734  E7,1720               MU/A               EQUALS   MUASTEER   +2                         #  I(2)
002267: E7,1734  E7,1722               RTMAG              EQUALS   MU/A       +2                         #  I(2)
002268: E7,1734  E7,1724               R1C                EQUALS   RTMAG      +2                         #  I(6)
002269: E7,1734  E7,1732               SS                 EQUALS   R1C        +6                         #  I(2)
002270:
002271: E7,1734  E7,1655               IC                 =        DELVSIN
002272: E7,1734  E7,1762               TIGSAVE            =        P21TIME
002273: E7,1734  E7,1764               TIGSAVEP           =        SCAXIS
002274: E7,1734  E7,1766               MUSCALE            =        SCAXIS     +2
002275:
002276:                                                                                                  #  P40 STORAGE.                                  (6D)
002277:
002278:                                                                                                  #  F, MDOT, AND TDECAY MUST BE CONTIGUOUS FOR VLOAD.
002279:
002280: E7,1734                        F                  ERASE    +5                                    #  I(2)TMP S40.1 GENERATES THIS FOR S40.3
002281: E7,1742  E7,1736               MDOT               EQUALS   F          +2                         #  I(2)TMP MASS CHNG RATE, KG/CS AT 2**3.
002282: E7,1742  E7,1740               TDECAY             EQUALS   MDOT       +2                         #  I(2)IN DELTA-T TAILOFF, (2**28)CS.
002283: E7,1742                        VEX                ERASE    +1                                    #  I(2) EXHAUST VELOCITY FOR TGO COMPUTAT'N
002284:
002285:                                                                                                  #  MIDTOAV1(2) STORAGE.  (CALLED BY P40,P41,P42)         (1D)
002286:
002287: E7,1744                        IRETURN1           ERASE                                          #  B(1) RETURN FROM MIDTOAV1 AND 2
002288:


002290:                                                                                                  #  ******* OVERLAY NUMBER 1 IN EBANK 7 *******
002291:
002292:                                                                                                  #  INITVEL (CALLED BY P34,35,38,39,10,11,S40.9,S40.1)    (6D)
002293:
002294: E7,1745  E7,1471               RTARG1             EQUALS   VACT1                                 #  I(6)S TEMP STORAGE OF RTARG
002295:
002296:                                                                                                  #  P35-P40 INTERFACE.                            (6D)
002297:
002298: E7,1745  E7,1505               VPASS4             EQUALS   VPASS1                                #  I(6)TMP VELOCITY OF PASSIVE AT INTERCEPT
002299:
002300:                                                                                                  #  INITVEL OVERLAYS RENDESVOUS GUIDANCE (LISTED IN OVERLAY O)
002301:
002302:                                                                                                  #  SOME P38-39,P78-79 STORAGE.                           (2D)
002303: E7,1745  E7,1630               TINT               EQUALS   TPASS4                                #  I(2) TIME OF INTERCEPT
002304:
002305:
002306:                                                                                                  #  LAT-LONG TEMPORARIES.  CAN OVERLAY WITH S40.1         (3D)
002307:
002308: E7,1745  E7,1672               ERADM              EQUALS   UT                                    #  I(2)
002309: E7,1745  E7,1674               INCORPEX           EQUALS   ERADM      +2                         #  I(1)
002310:
002311:                                                                                                  #  LRS24.1 STORAGE.  (CAN SHARE WITH P30'S)              (40D)
002312:
002313: E7,1745  E7,1675               RLMSRCH            EQUALS   INCORPEX   +1                         #  I(6)TMP LM POSITION VECTOR
002314: E7,1745  E7,1703               VXRCM              EQUALS   RLMSRCH    +6                         #  I(6)    CM V X R VECTOR
002315: E7,1745  E7,1711               LOSDESRD           EQUALS   VXRCM      +6                         #  I(6)    DESIRED LOS VECTOR
002316: E7,1745  E7,1717               UXVECT             EQUALS   LOSDESRD   +6                         #  I(6)    X-AXIS SRCH PATTERN COORDS
002317: E7,1745  E7,1725               UYVECT             EQUALS   UXVECT     +6                         #  I(6)    Y-AXIS SRCH PATTERN COORDS
002318: E7,1745  E7,1733               DATAGOOD           EQUALS   UYVECT     +6                         #  B(1)DSP FOR R1 - ALL 1-S WHEN LOCKON
002319: E7,1745  E7,1734               OMEGDISP           EQUALS   DATAGOOD   +1                         #  B(2)    ANGLE OMEGA DISPLAYED IN R2
002320: E7,1745  E7,1734               OMEGAD             =        OMEGDISP                              #          PINBALL DEFINITION.
002321: E7,1745  E7,1736               NSRCHPNT           EQUALS   OMEGDISP   +2                         #  B(1)TMP SEARCH PATTERN POINT COUNTER.
002322: E7,1745  E7,1737               SAVLEMV            EQUALS   NSRCHPNT   +1                         #  I(6)S-S SAVES LOSVEL
002323:


002325:                                                                                                  #  ******* OVERLAY NUMBER 2 IN EBANK 7 *******
002326:
002327:                                                                                                  #  INCORP STORAGE IN E7.                         (47D)
002328:
002329: E7,1745  E7,1471               TX789              EQUALS   E7OVERLA                              #  I(6)
002330: E7,1745  E7,1477               GAMMA              EQUALS   TX789      +6                         #  I(3)
002331: E7,1745  E7,1502               OMEGA              EQUALS   GAMMA      +3                         #  I(18)
002332: E7,1745  E7,1524               BVECTOR            EQUALS   OMEGA      +18D                       #  I(18)
002333: E7,1745  E7,1546               DELTAQ             EQUALS   BVECTOR    +18D                       #  I(2)
002334:
002335:                                                                                                  #  AOTMARK STORAGE                               (3D)
002336:
002337: E7,1745  E7,1550               MARKCNTR           EQUALS   DELTAQ     +2                         #  I(1)
002338: E7,1745  E7,1551               XYMARK             EQUALS   MARKCNTR   +1                         #  B(1)
002339: E7,1745  E7,1552               MKDEX              EQUALS   XYMARK     +1                         #  B(1)TMP INDEX FOR AOTMARK
002340:
002341:                                                                                                  #  PLANET STORAGE.                               (8D)
002342:
002343: E7,1745  E7,1553               PLANVEC            EQUALS   MKDEX      +1                         #  (6) REFER VECTOR OF PLANET
002344: E7,1745  E7,1561               TSIGHT             EQUALS   PLANVEC    +6                         #  (2) TIME OF MARK OR EST TIME OF MARK
002345:
002346:                                                                                                  #  LRS22.3 STORAGE.  (CAN SHARE WITH P30'S AND OVERLAY LRS24.1   (30D).
002347:
002348: E7,1745  E7,1675               LGRET              EQUALS   RLMSRCH                               #  I(1)TMP
002349: E7,1745  E7,1675               RDRET              EQUALS   LGRET                                 #  B(1) TEMP RETURN.
002350: E7,1745  E7,1675               IGRET              EQUALS   LGRET                                 #  B(1) TEMP RETURN.
002351: E7,1745  E7,1676               MX                 EQUALS   RDRET      +1                         #  I(6)
002352: E7,1745  E7,1704               MY                 EQUALS   MX         +6                         #  I(6)
002353: E7,1745  E7,1712               MZ                 EQUALS   MY         +6                         #  I(6)
002354: E7,1745  E7,1676               E0                 EQUALS   MX                                    #  I(2)
002355: E7,1745  E7,1700               E1                 EQUALS   MX         +2                         #  I(2)
002356: E7,1745  E7,1702               E2                 EQUALS   MX         +4                         #  I(2)
002357: E7,1745  E7,1704               E3                 EQUALS   E2         +2                         #  I(2)
002358: E7,1745  E7,1720               SCALSHFT           EQUALS   MZ         +6                         #  B(1) SCALE SHIFT FOR EARTH/MOON
002359: E7,1745  E7,1721               RXZ                EQUALS   SCALSHFT   +1                         #  I(2)
002360: E7,1745  E7,1723               ULC                EQUALS   RXZ        +2                         #  I(6)
002361: E7,1745  E7,1731               SINTHETA           EQUALS   ULC        +6                         #  I(2)
002362:
002363:                                                                                                  #  ***** IN OVERLAY ONE *****
002364:
002365: E7,1745  E7,1746               N49FLAG            EQUALS   RDOTMSAV                              #  B(1)S FLAG INDICATING V0649 RESPONSE
002366:
002367:                                                                                                  #  LRS22.1 STORAGE.  (MUST NOT SHARE WITH P30'S)         (13D)
002368:
002369:                                                                                                  #  (OUTPUTS ARE TO LRS22.3)
002370:


002372: E7,1745  E7,1733               RRTRUN             EQUALS   SINTHETA   +2                         #  B(2)OUT RR TRUNION ANGLE
002373: E7,1745  E7,1735               RRSHAFT            EQUALS   RRTRUN     +2                         #  B(2)OUT RR SHAFT ANGLE
002374: E7,1745  E7,1737               LRS22.1X           EQUALS   RRSHAFT    +2                         #  B(1)TMP
002375: E7,1745  E7,1740               RRBORSIT           EQUALS   LRS22.1X   +1                         #  I(6)TMP RADAR BORESIGHT VECTOR.
002376: E7,1745  E7,1746               RDOTMSAV           EQUALS   RRBORSIT   +6                         #  B(2)S RR RANGE-RATE (FPS)
002377:
002378:                                                                                                  #  LRS22.1 (SAME AS PREVIOUS SECTION) ALSO DOWNLINK FOR RR (R29)         (10D) CANNOT SHARE WITH L.A.D.
002379:
002380: E7,1745  E7,1750               RDOTM              EQUALS   RDOTMSAV   +2                         #  B(2)OUT RANGE-RATE READING
002381: E7,1745  E7,1752               TANGNB             EQUALS   RDOTM      +2                         #  B(2)TMP RR GIMBAL ANGLES
002382:                                                                                                  #  RETAIN THE ORDER OF MKTIME TO RM FOR DOWNLINK PURPOSES
002383: E7,1745  E7,1754               MKTIME             EQUALS   TANGNB     +2                         #  B(2)OUT TIME OF RR READING
002384: E7,1745  E7,1756               RM                 EQUALS   MKTIME     +2                         #  I(2)OUT RANGE READING
002385: E7,1745  E7,1760               RANGRDOT           EQUALS   RM         +2                         #  B(2) DOWNLINKED RAW RANGE AND RRATE
002386:
002387:                                                                                                  #  R61LEM - PREFERRED TRACKING ATTITUDE ROUTINE **IN OVERLAY ONE*
002388:                                                                                                  #  (CALLED BY P20, R22LEM, LSR22.3)              (1D)
002389:
002390: E7,1745  E7,1745               R65CNTR            EQUALS   RRBORSIT   +5                         #  B(1)SS COUNT NUMBER OF TIMES PREFERRED
002391:                                                                                                  #         TRACKING ROUTINE IS TO CYCLE
002392: E7,1745  E7,1745               WHCHREAD           EQUALS   R65CNTR                               #  TELLS WHICH RR DATA TRIGGERED N49 DISPLA
002393:
002394:                                                                                                  #  P21 STORAGE                                   (2D)
002395:
002396: E7,1745  E7,1762               P21TIME            EQUALS   RANGRDOT   +2                         #  I(2)TMP
002397:
002398:                                                                                                  #  KALCMANU, VECPOINT STORAGE.  CALLED BY R63, R61, R65.         (12D)
002399:
002400: E7,1745  E7,1764               SCAXIS             EQUALS   P21TIME    +2                         #  I(6)
002401: E7,1745  E7,1772               POINTVSM           EQUALS   SCAXIS     +6                         #  I(6)


002403:                                                                                                  #  ******* OVERLAY NUMBER 3 IN EBANK 7 *******
002404:
002405:
002406:                                                                                                  #  SERVICER STORAGE                              (6D)
002407:
002408: E7,1745  E7,1471               ABVEL              EQUALS   E7OVERLA                              #  B(2) DISPLAY
002409: E7,1745  E7,1473               HDOTDISP           EQUALS   ABVEL      +2                         #  B(2) DISPLAY
002410: E7,1745  E7,1475               TTFDISP            EQUALS   HDOTDISP   +2                         #  B(2) DISPLAY
002411:
002412:                                                                                                  #  BURN PROG STORAGE.                            (2D)
002413:
002414: E7,1745  E7,1477               SAVET-30           EQUALS   TTFDISP    +2                         #  B(2)TMP TIG-30 RESTART
002415:
002416:                                                                                                  #  SERVICER STORAGE.                             (69D)
002417:
002418: E7,1745  E7,1501               VGBODY             EQUALS   SAVET-30   +2                         #  B(6)OUT SET.BY S41.1 VG LEM, SC.COORDS
002419: E7,1745  E7,1501               DELVCTL            =        VGBODY
002420: E7,1745  E7,1507               DVTOTAL            EQUALS   VGBODY     +6                         #  B(2) DISPLAY NOUN
002421: E7,1745  E7,1511               GOBLTIME           EQUALS   DVTOTAL    +2                         #  B(2) NOMINAL TIG FOR CALC. OF GOBLATE.
002422: E7,1745  E7,1513               ABDVCONV           EQUALS   GOBLTIME   +2                         #  I(2)
002423: E7,1745  E7,1515               DVCNTR             EQUALS   ABDVCONV   +2                         #  B(1)
002424: E7,1745  E7,1516               TGO                EQUALS   DVCNTR     +1                         #  B(2)
002425: E7,1745  E7,1520               R                  EQUALS   TGO        +2                         #  I(6)
002426: E7,1745  E7,1520               UNITGOBL           EQUALS   R                                     #  I(6)
002427: E7,1745  E7,1526               V                  EQUALS   R          +6
002428: E7,1745  E7,1526               DELVREF            EQUALS   V                                     #  I(6)
002429: E7,1745  E7,1534               HCALC              EQUALS   DELVREF    +6                         #  B(2) LR
002430: E7,1745  E7,1536               UNIT/R/            EQUALS   HCALC      +2                         #  I(6)
002431:
002432:                                                                                                  #  (THE FOLLOWING SERVICER ERASABLES CAN BE SHARED WITH SECOND DPS GUIDANCE STORAGE)
002433:
002434: E7,1745  E7,1544               RN1                EQUALS   UNIT/R/    +6                         #  B(6)
002435: E7,1745  E7,1552               VN1                EQUALS   RN1        +6                         #  I(6)          ( IN ORDER )
002436: E7,1745  E7,1560               PIPTIME1           EQUALS   VN1        +6                         #  B(2)          (    FOR   )
002437: E7,1745  E7,1562               GDT1/2             EQUALS   PIPTIME1   +2                         #  I(6)          (   COPY   )
002438: E7,1745  E7,1570               MASS1              EQUALS   GDT1/2     +6                         #  I(2)          (   CYCLE  )
002439: E7,1745  E7,1572               R1S                EQUALS   MASS1      +2                         #  I(6)
002440: E7,1745  E7,1600               V1S                EQUALS   R1S        +6                         #  I(6)
002441:
002442:                                                                                                  #  ALIGNMENT/S40.2.3 COMMON STORAGE.             (18D)
002443:
002444: E7,1745  E7,1606               XSMD               EQUALS   V1S        +6                         #  I(6)
002445: E7,1745  E7,1614               YSMD               EQUALS   XSMD       +6                         #  I(6)
002446: E7,1745  E7,1622               ZSMD               EQUALS   YSMD       +6                         #  I(6)
002447:
002448: E7,1745  E7,1606               XSCREF             =        XSMD
002449: E7,1745  E7,1614               YSCREF             =        YSMD


002451: E7,1745  E7,1622               ZSCREF             =        ZSMD
002452:
002453: E7,1745  E7,1630               END-ALIG           EQUALS   ZSMD       +6                         #  NEXT AVAIL ERASABLE AFTER ALIGN/S40.2,3
002454:
002455:                                                                                                  #  ****** P22 ******                             (24D)
002456:
002457: E7,1745  E7,1630               RSUBL              EQUALS   END-ALIG                              #  I(6)S-S       LM POSITION VECTOR
002458: E7,1745  E7,1636               UCSM               EQUALS   RSUBL      +6                         #  I(6)S-S       VECTOR U
002459: E7,1745  E7,1644               NEWVEL             EQUALS   UCSM       +6                         #  I(6)S-S       TERMINAL VELOCITY VECTOR
002460: E7,1745  E7,1652               NEWPOS             EQUALS   NEWVEL     +6                         #  I(6)S-S       TERMINAL POSITION VECTOR
002461: E7,1745  E7,1660               LNCHTM             EQUALS   NEWPOS     +6                         #  I(2)S-S       EST. LAUNCH TIME FOR LEM
002462: E7,1745  E7,1662               TRANSTM            EQUALS   LNCHTM     +2                         #  I(2)S-S       TRANSFER TIME
002463: E7,1745  E7,1664               NCSMVEL            EQUALS   TRANSTM    +2                         #  I(6)S-S       NEW CSM VELOCITY
002464:
002465:                                                                                                  #  ***** P21 *****                               (18D)
002466:
002467: E7,1745     1163               P21ORIG            =        DISPDEX
002468: E7,1745  E7,1675               P21BASER           EQUALS   RLMSRCH                               #  I(6)TMP
002469: E7,1745  E7,1703               P21BASEV           EQUALS   P21BASER   +6                         #  I(6)TMP
002470: E7,1745  E7,1711               P21VEL             EQUALS   P21BASEV   +6                         #  I(2)TMP       *** NOUN 91 ***
002471: E7,1745  E7,1713               P21GAM             EQUALS   P21VEL     +2                         #  I(2)TMP       *** NOUN 91 ***
002472: E7,1745  E7,1715               P21ALT             EQUALS   P21GAM     +2                         #  I(2)TMP       *** NOUN 91 ***
002473:


002475:                                                                                                  #  ******* OVERLAY NUMBER 4 IN EBANK 7 *******
002476:
002477:                                                                                                  #  VARIABLES FOR SECOND DPS GUIDANCE (THE LUNAR LANDING)         (80D)
002478:
002479:                                                                                                  #  THESE ERASABLES MAY BE SHARED WITH CARE
002480:
002481: E7,1745  E7,1544               OURTEMPS           =        RN1                                   #  OVERLAY LAST PART OF SERVICER
002482: E7,1745  E7,1544               LANDTEMP           =        OURTEMPS                              #  B(6)  GUIDANCE
002483: E7,1745  E7,1552               TTF/8TMP           =        LANDTEMP   +6                         #  B(2)  GUIDANCE
002484: E7,1745  E7,1554               ELINCR             =        TTF/8TMP   +2                         #  B(2)  GUIDANCE
002485: E7,1745  E7,1556               AZINCR             =        ELINCR     +2                         #  B(2)  GUIDANCE
002486: E7,1745  E7,1560               KEEP-2             =        AZINCR     +2                         #  B(2)  TO PREVENT PIPTIME1 OVERLAY
002487: E7,1745  E7,1562               TABLTTF            =        KEEP-2     +2                         #  B(2)  GUIDANCE
002488: E7,1745  E7,1573               TPIPOLD            =        TABLTTF    +9D                        #  B(2)  GUIDANCE
002489: E7,1745  E7,1621               E2DPS              EQUALS   OURPERMS
002490:
002491:                                                                                                  #  THESE ERASABLES MUST NOT OVERLAY GOBLTIME OR SERVICER
002492:
002493: E7,1745  E7,1606               PIFPSET            =        XSMD                                  #  B(1)  THROTTLE
002494: E7,1745  E7,1607               RTNHOLD            =        PIFPSET    +1                         #  B(1)  THROTTLE
002495: E7,1745  E7,1610               FWEIGHT            =        RTNHOLD    +1                         #  B(2)  THROTTLE
002496: E7,1745  E7,1612               PIF                =        FWEIGHT    +2                         #  B(2)  THROTTLE
002497: E7,1745  E7,1614               PSEUDO55           =        PIF        +2                         #  B(1)  THROTTLE DOWNLINK
002498: E7,1745  E7,1615               FC                 =        PSEUDO55   +1                         #  B(2)  THROTTLE
002499: E7,1745  E7,1617               TTHROT             =        FC         +2                         #  B(1)  THROTTLE
002500: E7,1745  E7,1620               FCOLD              =        TTHROT     +1                         #  B(1)  THROTTLE
002501:
002502:                                                                                                  #  THESE ERASABLES SHOULD NOT BE SHARED DURING P63, P64, P65, P66, P67
002503:
002504: E7,1745  E7,1621               OURPERMS           =        FCOLD      +1                         #  MUSTN'T OVERLAY OURTEMPS OR SERVICER
002505: E7,1745  E7,1621               WCHPHOLD           =        OURPERMS                              #  B(1)  GUIDANCE
002506: E7,1745  E7,1622               FILLER             =        WCHPHOLD   +1
002507: E7,1745  E7,1623               FLPASS0            =        FILLER     +1                         #  B(1)  GUIDANCE
002508: E7,1745  E7,1624               TPIP               =        FLPASS0    +1                         #  B(2)
002509: E7,1745  E7,1626               VGU                =        TPIP       +2                         #  B(6)  GUIDANCE
002510: E7,1745  E7,1634               LAND               =        VGU        +6                         #  B(6)  GUIDANCE        CONTIGUOUS
002511: E7,1745  E7,1642               TTF/8              =        LAND       +6                         #  B(2)  GUIDANCE        CONTIGUOUS


002516: E7,1745  E7,1644               ELINCR1            =        TTF/8      +2                         #  (1)   GUIDANCE
002517: E7,1745  E7,1645               AZINCR1            =        ELINCR1    +1                         #  (1)    GUIDANCE
002518: E7,1745  E7,1646               ZERLINA            =        AZINCR1    +1                         #  (1)    GUIDANCE
002519: E7,1745  E7,1647               ELVIRA             =        ZERLINA    +1                         #  (1)    GUIDANCE
002520: E7,1745  E7,1650               LRADRET            =        ELVIRA     +1                         #  B(1)  LR
002521: E7,1745  E7,1651               VSELECT            =        LRADRET    +1                         #  B(1)  LR
002522: E7,1745  E7,1652               VMEAS              =        VSELECT    +1                         #  B(2)  LR
002523: E7,1745  E7,1654               HMEAS              =        VMEAS      +2                         #  B(2)  LR
002524: E7,1745  E7,1656               VN2                =        HMEAS      +2                         #  B(6)  LR


002526: E7,1745  E7,1656               GNUR               =        VN2                                   #  B(6)  LR
002527: E7,1745  E7,1656               GNUV               =        VN2                                   #  B(6)  LR
002528: E7,1745  E7,1656               LRADRET1           =        VN2                                   #  B(1)  LR
002529: E7,1745  E7,1664               DELTAH             =        VN2        +6                         #  B(2)  DISPLAY
002530: E7,1745  E7,1666               FUNNYDSP           =        DELTAH     +2                         #  B(2)  DISPLAY
002531: E7,1745  E7,1670               EOURPERM           EQUALS   FUNNYDSP   +2                         #  NEXT AVAILABLE ERASABLE AFTER OURPERMS
002532:
002533:                                                                                                  #  (ERASABLES WHICH OVERLAY THE ABOVE BLOCK)
002534:
002535: E7,1745  E7,1644               VDGVERT            =        ELINCR1                               #  B(2)  P65,P66
002536: E7,1745  E7,1646               NIGNLOOP           =        ZERLINA                               #  B(1)  IGNALG
002537: E7,1745  E7,1647               NGUIDSUB           =        ELVIRA                                #  B(1)  IGNALG
002538: E7,1745  E7,1647               WCHVERT            =        ELVIRA                                #  B(1)  P65,P66,P67
002539: E7,1745  E7,1666               FUELNEED           =        FUNNYDSP                              #  B(1)  DISPLAY
002540: E7,1745  E7,1666               TREDES             =        FUNNYDSP                              #  B(1)  DISPLAY
002541: E7,1745  E7,1667               LOOKANGL           =        FUNNYDSP   +1                         #  B(1)  DISPLAY
002542:
002543:                                                                                                  #  ERASABLES CONVENIENTLY DEFINABLE IN THE WORK AREA
002544:
002545: E7,1745                        PROJ               =        18D                                   #  I(2)  GUIDANCE
002546: E7,1745                        UNLRB/2            =        20D                                   #  I(6)  GUIDANCE (DURING P64 ONLY)
002547: E7,1745                        UNLR/2             =        20D                                   #  I(6)  GUIDANCE
002548:
002549:                                                                                                  #  THE END OF THE LUNAR LANDING ERASABLES
002550:
002551:                                                                                                  #  R12 (FOR LUNAR LANDING)                       (6D)
002552:
002553: E7,1745  E7,1670               LRLCTR             EQUALS   EOURPERM                              #  B(1) LR DATA TEST
002554: E7,1745  E7,1671               LRRCTR             EQUALS   LRLCTR     +1                         #  B(1)
002555: E7,1745  E7,1672               LRMCTR             EQUALS   LRRCTR     +1                         #  B(1)
002556: E7,1745  E7,1673               LRSCTR             EQUALS   LRMCTR     +1                         #  B(1)
002557: E7,1745  E7,1674               STILBADH           EQUALS   LRSCTR     +1                         #  B(1)
002558: E7,1745  E7,1675               STILBADV           EQUALS   STILBADH   +1                         #  B(1)
002559:
002560:                                                                                                  #  LANDING ANALOGS DISPLAY STORAGE.              (40D)
002561:
002562: E7,1745  E7,1676               LATVMETR           EQUALS   STILBADV   +1                         #  B(1)PRM LATVEL MONITOR METER (AN ORDER)
002563: E7,1745  E7,1677               FORVMETR           EQUALS   LATVMETR   +1                         #  B(1)PRM FORVEL MONITOR METER (-ED PAIR)
002564: E7,1745  E7,1700               LATVEL             EQUALS   FORVMETR   +1                         #  B(1)PRM LATERAL VELOCITY (AN ORDER)
002565: E7,1745  E7,1701               FORVEL             EQUALS   LATVEL     +1                         #  B(1)PRM FORWARD VELOCITY (-ED PAIR)
002566: E7,1745  E7,1702               TRAKLATV           EQUALS   FORVEL     +1                         #  B(1)PRM MONITOR FLG 4 LATVEL (AN ORDER)
002567: E7,1745  E7,1703               TRAKFWDV           EQUALS   TRAKLATV   +1                         #  B(1)PRM MONIT. FLAG FOR FORVEL (ED PAIR)
002568: E7,1745  E7,1704               VHY                EQUALS   TRAKFWDV   +1                         #  B(1)PRM VHY=VMP.UHYP (AN ORDER)


002570: E7,1745  E7,1705               VHZ                EQUALS   VHY        +1                         #  B(1)PRM VHZ=VMP.UHZP (-ED PAIR)
002571: E7,1745  E7,1706               VVECT              EQUALS   VHZ        +1                         #  B(3)PRM UPDATED S.P. VELOCITY VECTOR
002572: E7,1745  E7,1711               ALTRATE            EQUALS   VVECT      +3                         #  B(1)PRM ALTITUDE RATE IN BIT UNITS
002573: E7,1745  E7,1712               ALTSAVE            EQUALS   ALTRATE    +1                         #  B(2)PRM ALTITUDE IN BIT UNITS
002574: E7,1745  E7,1714               LADQSAVE           EQUALS   ALTSAVE    +2                         #  B(1)PRM SAVE Q IN LANDISP
002575: E7,1745  E7,1715               DT                 EQUALS   LADQSAVE   +1                         #  B(1)PRM TIME 1 MINUS (PIPTIME +1)
002576: E7,1745  E7,1716               DALTRATE           EQUALS   DT         +1                         #  B(1)PRM ALTITUDE RATE ERROR CORRECTION
002577: E7,1745  E7,1717               UHYP               EQUALS   DALTRATE   +1                         #  B(6)PRM SM UNIT VECTOR
002578: E7,1745  E7,1717               QAXIS              =        UHYP
002579: E7,1745  E7,1725               UHZP               EQUALS   UHYP       +6                         #  B(6)PRM SM UNIT VECTOR
002580: E7,1745  E7,1733               DELVS              EQUALS   UHZP       +6                         #  B(6)PRM DELVS = WMXR
002581: E7,1745  E7,1741               ALTBITS            EQUALS   DELVS      +6                         #  B(2)PRM ALTITUDE IN BIT UNITS, 2.34 FT/BT
002582: E7,1745  E7,1743               RUNIT              EQUALS   ALTBITS    +2                         #  B(3)PRM SM HALF-UNIT R VECTOR
002583: E7,1745  E7,1745               LASTLADW           EQUALS   RUNIT      +2                         #  ONLY A TAG TO SIGNIFY LAST L.A.D. WORD
002584:
002585:                                                                                                  #  P66 ERASABLES (R.O.D.)                        (1D)
002586:
002587: E7,1745  E7,1746               RODCOUNT           EQUALS   RUNIT      +3
002588:
002589:                                                                                                  #  P66 ERASABLES (R.O.D.)                        (14D)
002590:
002591: E7,1745  E7,1756               RODSCAL1           EQUALS   RM                                    #  B(1)
002592: E7,1745  E7,1757               LASTTPIP           EQUALS   RODSCAL1   +1                         #  I(2)
002593: E7,1745  E7,1761               THISTPIP           EQUALS   LASTTPIP   +2                         #  B(2)
002594: E7,1745  E7,1763               OLDPIPAX           EQUALS   THISTPIP   +2                         #  B(1)
002595: E7,1745  E7,1764               OLDPIPAY           EQUALS   OLDPIPAX   +1                         #  B(1)
002596: E7,1745  E7,1765               OLDPIPAZ           EQUALS   OLDPIPAY   +1                         #  B(1)
002597: E7,1745  E7,1766               DELVROD            EQUALS   OLDPIPAZ   +1                         #  B(6)
002598:
002599:                                                                                                  #  NOUN 63 COMPONENT                             (2D)
002600:
002601: E7,1745  E7,1774               HCALC1             EQUALS   DELVROD    +6                         #  I(2)
002602:


002604:                                                                                                  #  ******* OVERLAY NUMBER 5 IN EBANK 7 *******
002605:
002606:                                                                                                  #  ASCENT GUIDANCE ERASABLES.                    (21D)
002607:
002608: E7,1745  E7,1630               RCO                EQUALS   END-ALIG                              #  I(2)TMP TARGET RADIUS AND OUT-OF-PLANE
002609: E7,1745  E7,1632               YCO                EQUALS   RCO        +2                         #  I(2)TMP DISTANCE, SCALED AT 2(24).
002610: E7,1745  E7,1634               1/DV1              EQUALS   YCO        +2                         #  B(2)TMP ATMAG
002611: E7,1745  E7,1636               1/DV2              EQUALS   1/DV1      +2                         #  B(2)TMP ATMAG
002612: E7,1745  E7,1640               1/DV3              EQUALS   1/DV2      +2                         #  B(2)TMP ATMAG
002613: E7,1745  E7,1642               XRANGE             EQUALS   1/DV3      +2                         #  B(2)TMP
002614: E7,1745  E7,1644               ENGOFFDT           EQUALS   XRANGE     +2                         #  B(1)TMP
002615: E7,1745  E7,1645               VGVECT             EQUALS   ENGOFFDT   +1                         #  I(6)OUT VELOCITY-TO-BE-GAINED
002616: E7,1745  E7,1653               TXO                EQUALS   VGVECT     +6                         #  I(2)TMP TIME AT WHICH X-AXIS OVERRIDE
002617:                                                                                                  #  IS ALLOWED.
002618:
002619:                                                                                                  #  END OF THE ASCENT GUIDANCE ERASABLES.
002620:
002621:                                                                                                  #  THE FOLLOWING CARDS KEEP THE ASSEMBLER HAPPY UNTIL THE SYMBOLS ARE DELETED FROM THE PINBALL NOUN TABLES.
002622:
002623: E7,1745  E7,1745               END-E7.0           EQUALS   IRETURN1   +1                         #  FIRST UNUSED LOCATION IN E7 OVERLAY 0
002624: E7,1745  E7,1747               END-E7.1           EQUALS   N49FLAG    +1                         #  FIRST UNUSED LOCATION IN E7 OVERLAY 1
002625: E7,1745     4000               END-E7.2           EQUALS   POINTVSM   +6                         #  FIRST UNUSED LOCATION IN E7 OVERLAY 2
002626: E7,1745  E7,1630               END-E7.3           EQUALS   END-ALIG                              #  FIRST UNUSED LOCATION IN E7 OVERLAY 3
002627: E7,1745                        END-E7.4           EQUALS   3777                                  #  ** LAST LOCATION USED IN E7 OVERLAY 4 **
002628: E7,1745  E7,1655               END-E7.5           EQUALS   TXO        +2                         #  FIRST UNUSED LOCATION IN E7 OVERLAY 5
002629: E7,1745                        END-E7             EQUALS   3777                                  #  ** LAST LOCATION USED IN E7 **

End of include-file ERASABLE_ASSIGNMENTS.agc.  Parent file is MAIN.agc


