
Source Code


000002:                                                                                                  ## Copyright:   Public domain.
000003:                                                                                                  ## Filename:    FIXED-FIXED_CONSTANT_POOL.agc
000004:                                                                                                  ## Purpose:     A section of Luminary revision 98.
000005:                                                                                                  ##              It is part of the reconstructed source code for the a
000006:                                                                                                  ##              development version of the flight software for the Lunar
000007:                                                                                                  ##              Module's (LM) Apollo Guidance Computer (AGC) for Apollo 11.
000008:                                                                                                  ##              The code has been recreated from a copy of Luminary 99
000009:                                                                                                  ##              revision 001, using asterisks indicating changed lines in
000010:                                                                                                  ##              the listing and Luminary Memo #85, which lists changes between
000011:                                                                                                  ##              Luminary 98 and 99.
000012:                                                                                                  ## Reference:   pp. 1095-1099
000013:                                                                                                  ## Assembler:   yaYUL
000014:                                                                                                  ## Contact:     Ron Burkey <info@sandroid.org>.
000015:                                                                                                  ## Website:     www.ibiblio.org/apollo/index.html
000016:                                                                                                  ## Mod history: 2019-07-28 MAS  Created from Luminary 99.
000017:


000019:    4732                                           BLOCK    02
000020:    4732                                           COUNT*   $$/FCONS
000021:
000022:                                                                                                  #  THE FOLLOWING TABLE OF 18 VALUES IS INDEXED.  DO NOT INSERT OR REMOVE ANY QUANTITIES.
000023:
000024:    4732           37777        DPOSMAX            OCT      37777                                 #  MUST PRECEDE POSMAX
000025:    4733           37777        POSMAX             OCT      37777
000026:
000027:    4734     4734               LIMITS             =        NEG1/2
000028:
000029:    4734           57777        NEG1/2             OCT      -20000                                #  USED BY SIN ROUTINE (MUST BE TWO
000030:                                                                                                  #  LOCATIONS IN FRONT OF BIT14)
000031:
000032:                                                                                                  #  BIT TABLE
000033:
000034:    4735           40000        BIT15              OCT      40000
000035:    4736           20000        BIT14              OCT      20000
000036:    4737           10000        BIT13              OCT      10000
000037:    4740           04000        BIT12              OCT      04000
000038:    4741           02000        BIT11              OCT      02000
000039:    4742           01000        BIT10              OCT      01000
000040:    4743           00400        BIT9               OCT      00400
000041:    4744           00200        BIT8               OCT      00200
000042:    4745           00100        BIT7               OCT      00100
000043:    4746           00040        BIT6               OCT      00040
000044:    4747           00020        BIT5               OCT      00020
000045:    4750           00010        BIT4               OCT      00010
000046:    4751           00004        BIT3               OCT      00004
000047:    4752           00002        BIT2               OCT      00002
000048:    4753           00001        BIT1               OCT      00001
000049:
000050:                                                                                                  #  DO NOT DESTROY THIS COMBINATION, SINCE IT IS USED IN DOUBLE PRECISION INSTRUCTIONS.
000051:    4754           77777        NEG0               OCT      -0                                    #  MUST PRECEDE ZERO
000052:    4755           00000        ZERO               OCT      0                                     #  MUST FOLLOW NEG0
000053:                                                                                                  #  BIT1          OCT     00001
000054:                                                                                                  #  NO.WDS        OCT     2               INTERPRETER
000055:                                                                                                  #  OCTAL3        OCT     3               INTERPRETER
000056:                                                                                                  #  R3D1          OCT     4               PINBALL
000057:    4756           00005        FIVE               OCT      5
000058:                                                                                                  #  REVCNT        OCT     6               INTERPRETER
000059:    4757           00007        SEVEN              OCT      7
000060:                                                                                                  #  BIT4          OCT     00010
000061:                                                                                                  #  R2D1          OCT     11              PINBALL
000062:    4760     4320               OCT11              =        R2D1                                  #  P20S
000063:                                                                                                  #  BINCON        DEC     10              PINBALL         (OCTAL 12)
000064:    4760           00013        ELEVEN             DEC      11         B-14
000065:                                                                                                  #  OCT14         OCT     14              ALARM AND ABORT (FILLER)
000066:    4761           00015        OCT15              OCT      15
000067:                                                                                                  #  R1D1          OCT     16              PINBALL
000068:    4762           00017        LOW4               OCT      17


000070:                                                                                                  #  BIT5          OCT     00020
000071:                                                                                                  #  ND1           OCT     21              PINBALL
000072:                                                                                                  #  VD1           OCT     23              PINBALL
000073:                                                                                                  #  OCT24         OCT     24              SERVICE ROUTINES
000074:                                                                                                  #  MD1           OCT     25              PINBALL
000075:    4763           00030        BITS4&5            OCT      30
000076:                                                                                                  #  OCT31         OCT     31              SERVICE ROUTINES
000077:    4764           00033        OCT33              OCT      33
000078:    4765     4764               DEC27              =        OCT33
000079:    4765           00035        OCT35              OCT      35
000080:    4766     4765               DEC29              =        OCT35
000081:    4766           00032        CALLCODE           OCT      00032
000082:                                                                                                  #  LOW5          OCT     37              PINBALL
000083:                                                                                                  #  33DEC         DEC     33              PINBALL         (OCTAL 41)
000084:                                                                                                  #  34DEC         DEC     34              PINBALL         (OCTAL 42)
000085:    4767           00045        TBUILDFX           DEC      37         B-14                       #  BUILDUP FOR CONVIENCE IN DAPTESTING
000086:    4770           00046        TDECAYFX           DEC      38         B-14                       #  CONVENIENCE FOR DAPTESTING
000087:                                                                                                  #  BIT6          OCT     00040
000088:    4771           00050        OCT50              OCT      50
000089:    4772           00055        DEC45              DEC      45         B-14
000090:    4773           00060        SUPER011           OCT      60                                    #  BITS FOR SUPERBNK SETTING 011.
000091:    4774           00062        .5SEC              DEC      50         B-14
000092:                                                                                                  #  BIT7          OCT     00100
000093:
000094:    4775     4745               SUPER100           =        BIT7                                  #  BITS FOR SUPERBNK SETTING 100
000095:                                                                                                  #  (LAST 4K OF ROPE)
000096:    4775           00120        SUPER101           OCT      120                                   #  BITS FOR SUPERBNK SETTING 101
000097:                                                                                                  #  OCT121        OCT     121             SERVICE ROUTINES
000098:                                                                                                  #  (FIRST 8K OF ACM)
000099:    4776           00140        SUPER110           OCT      140                                   #  BITS FOR SUPERBNK SETTING 110.
000100:                                                                                                  #  (LAST 8K OF ACM)
000101:    4777           00144        1SEC               DEC      100        B-14
000102:                                                                                                  #  LOW7          OCT     177             INTERPRETER
000103:                                                                                                  #  BIT8          OCT     00200
000104:                                                                                                  #  OT215         OCT     215             ALARM AND ABORT
000105:                                                                                                  #  8,5           OCT     00220           P20-P25 SUNDANCE
000106:    5000           00310        2SECS              DEC      200        B-14
000107:                                                                                                  #  LOW8          OCT     377             PINBALL
000108:                                                                                                  #  BIT9          OCT     00400
000109:    5001           00401        GN/CCODE           OCT      00401                                 #  SET S/C CONTROL SWITCH TO G/N
000110:    5002           00454        3SECS              DEC      300        B-14
000111:    5003           00620        4SECS              DEC      400        B-14
000112:    5004           00777        LOW9               OCT      777
000113:                                                                                                  #  BIT10         OCT     01000
000114:                                                                                                  #  5.5DEGS       DEC     .03056          P20-P25 SUNDANCE        (OCTAL 00765)
000115:                                                                                                  #  OCT1103       OCT     1103            ALARM AND ABORT
000116:    5005           01124        C5/2               DEC      .0363551                              #                        (OCTAL 01124)
000117:    5006           01211        V05N09             VN       0509                                  #  (SAME AS OCTAL 1211)
000118:    5007           01400        OCT1400            OCT      01400
000119:    5010           01426        V06N22             VN       0622


000121:                                                                                                  #  MID5          OCT     1740            PINBALL
000122:    5011           01776        BITS2-10           OCT      1776
000123:    5012           01777        LOW10              OCT      1777
000124:                                                                                                  #  BIT11         OCT     02000
000125:                                                                                                  #  2K+3          OCT     2003            PINBALL
000126:    5013           02177        LOW7+2K            OCT      2177                                  #  OP CODE MASK + BANK 1 FBANK SETTING.
000127:    5014           02400        EBANK5             OCT      02400
000128:    5015           03000        PRIO3              OCT      03000
000129:    5016           03400        EBANK7             OCT      03400
000130:                                                                                                  #  LOW11         OCT     3777            PINBALL
000131:                                                                                                  #  BIT12         OCT     04000
000132:                                                                                                  #  RELTAB        OCT     04025           T4RUPT
000133:    5017           05000        PRIO5              OCT      05000
000134:    5020           06000        PRIO6              OCT      06000
000135:    5021           07000        PRIO7              OCT      07000
000136:
000137:                                                                                                  #  BIT13         OCT     10000
000138:                                                                                                  #                OCT     10003           T4RUPT  RELTAB +1D
000139:                                                                                                  #  13,7,2        OCT     10102           P20-P25 SUNDANCE
000140:    5022           11000        PRIO11             OCT      11000
000141:                                                                                                  #  PRIO12        OCT     12000           BANKCALL
000142:    5023           13000        PRIO13             OCT      13000
000143:    5024           14000        PRIO14             OCT      14000
000144:                                                                                                  #                OCT     14031           T4RUPT  RELTAB +2D
000145:    5025           15000        PRIO15             OCT      15000
000146:    5026           16000        PRIO16             OCT      16000
000147:                                                                                                  #  85DEGS        DEC     .45556          P20-P25 SUNDANCE        (OCTAL 16450)
000148:    5027           17000        PRIO17             OCT      17000
000149:    5030           17770        OCT17770           OCT      17770
000150:                                                                                                  #  BIT14         OCT     20000
000151:                                                                                                  #                OCT     20033           T4RUPT  RELTAB +3D
000152:    5031           21000        PRIO21             OCT      21000
000153:    7710                                           BLOCK    03
000154:    7710                                           COUNT*   $$/FCONS
000155:    7710           22000        PRIO22             OCT      22000                                 #  SERVICE ROUTINES
000156:    7711           23000        PRIO23             OCT      23000
000157:    7712           24000        PRIO24             OCT      24000
000158:                                                                                                  #  5/8+1         OCT     24001           SINGLE PRECISION SUBROUTINES
000159:                                                                                                  #                OCT     24017           T4RUPT  RELTAB +4D
000160:    7713           25000        PRIO25             OCT      25000
000161:    7714           26000        PRIO26             OCT      26000
000162:    7715           27000        PRIO27             OCT      27000
000163:                                                                                                  #  CHRPRIO       OCT     30000           PINBALL
000164:                                                                                                  #                OCT     30036           T4RUPT  RELTAB +5D
000165:    7716           31000        PRIO31             OCT      31000
000166:    7717           31103        C1/2               DEC      .7853134                              #                        (OCTAL 31103)
000167:    7720           32000        PRIO32             OCT      32000
000168:    7721           33000        PRIO33             OCT      33000
000169:    7722           34000        PRIO34             OCT      34000
000170:                                                                                                  #                OCT     34034           T4RUPT  RELTAB +6D


000172:    7723           35000        PRIO35             OCT      35000
000173:    7724           36000        PRIO36             OCT      36000
000174:    7725           37000        PRIO37             OCT      37000
000175:    7726           37401        63/64+1            OCT      37401
000176:                                                                                                  #  MID7          OCT     37600           PINBALL
000177:    7727           37766        OCT37766           OCT      37766
000178:    7730           37774        OCT37774           OCT      37774
000179:    7731           37776        OCT37776           OCT      37776
000180:                                                                                                  #  DPOSMAX       OCT     37777
000181:                                                                                                  #  BIT15         OCT     40000
000182:                                                                                                  #  OCT40001      OCT     40001           INTERPRETER (CS 1 INSTRUCTION)
000183:    7732           40014        DLOADCOD           OCT      40014
000184:    7733           40015        DLOAD*             OCT      40015
000185:                                                                                                  #                OCT     40023           T4RUPT  RELTAB +7D
000186:    7734           40040        BIT15+6            OCT      40040
000187:    7735           40200        OCT40200           OCT      40200
000188:                                                                                                  #                OCT     44035           T4RUPT  RELTAB +8D
000189:                                                                                                  #                OCT     50037           T4RUPT  RELTAB +9D
000190:                                                                                                  #                OCT     54000           T4RUPT  RELTAB +10D
000191:    7736           57777        -BIT14             OCT      57777
000192:                                                                                                  #  RELTAB11      OCT     60000           T4RUPT
000193:    7737           65552        C3/2               DEC      -.3216147                             #                        (OCTAL 65552)
000194:    7740           70000        13,14,15           OCT      70000
000195:    7741           73777        -1/8               OCT      73777
000196:    7742           74000        HIGH4              OCT      74000
000197:    7743           74056        -ENDERAS           DEC      -2001      B-14                       #                        (OCTAL 74056)
000198:                                                                                                  #  HI5           OCT     76000           PINBALL
000199:    7744           77700        HIGH9              OCT      77700
000200:                                                                                                  #  -ENDVAC       DEC     -45             INTERPRETER             (OCTAL 77722)
000201:                                                                                                  #  -OCT10        OCT     -10                                      (OCT 77767)
000202:                                                                                                  #  NEG4          DEC     -4                                      (OCTAL 77773)
000203:    7745           77774        NEG3               DEC      -3         B-14
000204:    7746           77775        NEG2               OCT      77775
000205:    7747           77776        NEGONE             DEC      -1         B-14
000206:


000208:
000209:                                                                                                  #  DEFINED BY EQUALS
000210:
000211:                                                                                                  #  IT WOULD BE TO THE USERS ADVANTAGE TO OCCASIONALLY CHECK ANY OF THESE SYMBOLS IN ORDER TO PREVENT ANY
000212:                                                                                                  #  ACCIDENTAL DEFINITION CHANGES.
000213:
000214:    7750     7747               MINUS1             =        NEG1
000215:    7750     7747               NEG1               =        NEGONE
000216:    7750     4753               ONE                =        BIT1
000217:    7750     4752               TWO                =        BIT2
000218:    7750     6245               THREE              =        OCTAL3
000219:    7750     6245               LOW2               =        THREE
000220:    7750     4751               FOUR               =        BIT3
000221:    7750     6242               SIX                =        REVCNT
000222:    7750     4757               LOW3               =        SEVEN
000223:    7750     4750               EIGHT              =        BIT4
000224:    7750     4320               NINE               =        R2D1
000225:    7750     4363               TEN                =        BINCON
000226:    7750     4760               NOUTCON            =        ELEVEN
000227:    7750     4360               OCT23              =        VD1
000228:    7750     4362               OCT25              =        MD1
000229:    7750     4742               PRIO1              =        BIT10
000230:    7750     5007               EBANK3             =        OCT1400
000231:    7750     4741               PRIO2              =        BIT11
000232:    7750     4775               OCT120             =        SUPER101
000233:    7750     4776               OCT140             =        SUPER110
000234:    7750     4741               2K                 =        BIT11
000235:    7750     4741               EBANK4             =        BIT11
000236:    7750     4740               PRIO4              =        BIT12
000237:    7750     5015               EBANK6             =        PRIO3
000238:    7750     4737               QUARTER            =        BIT13
000239:    7750     4737               PRIO10             =        BIT13
000240:    7750     7663               OCT10001           =        CCSL
000241:    7750     4736               POS1/2             =        HALF
000242:    7750     4736               PRIO20             =        BIT14
000243:    7750     4736               HALF               =        BIT14
000244:    7750     4355               PRIO30             =        CHRPRIO
000245:    7750     4355               BIT13-14           =        PRIO30                                #  INTERPRETER USES IN PROCESSING STORECODE
000246:    7750     6471               OCT30002           =        TLOAD      +1
000247:    7750     7722               B12T14             =        PRIO34
000248:    7750     4735               NEGMAX             =        BIT15
000249:    7750     4735               VLOADCOD           =        BIT15
000250:    7750     6107               VLOAD*             =        OCT40001
000251:    7750     4101               OCT60000           =        RELTAB11
000252:    7750     4350               BANKMASK           =        HI5
000253:

End of include-file FIXED-FIXED_CONSTANT_POOL.agc.  Parent file is MAIN.agc


