
Source Code


000002:                                                                                                  ## Copyright:   Public domain.
000003:                                                                                                  ## Filename:    FLAGWORD_ASSIGNMENTS.agc
000004:                                                                                                  ## Purpose:     A section of Luminary revision 98.
000005:                                                                                                  ##              It is part of the reconstructed source code for the a
000006:                                                                                                  ##              development version of the flight software for the Lunar
000007:                                                                                                  ##              Module's (LM) Apollo Guidance Computer (AGC) for Apollo 11.
000008:                                                                                                  ##              The code has been recreated from a copy of Luminary 99
000009:                                                                                                  ##              revision 001, using asterisks indicating changed lines in
000010:                                                                                                  ##              the listing and Luminary Memo #85, which lists changes between
000011:                                                                                                  ##              Luminary 98 and 99.
000012:                                                                                                  ## Reference:   pp. 61-88
000013:                                                                                                  ## Assembler:   yaYUL
000014:                                                                                                  ## Contact:     Ron Burkey <info@sandroid.org>.
000015:                                                                                                  ## Website:     www.ibiblio.org/apollo/index.html
000016:                                                                                                  ## Mod history: 2019-07-28 MAS  Created from Luminary 99.
000017:


000019:                                                                                                  #  FLAGWORDS 0-11        ARE DOWNLINKED AND CAN BE SET AND CLEARED BY UP-FLAG AND DOWN-FLAG INSTRUCTIONS IN THE
000020:                                                                                                  #                        INTERPRETER.  THESE WERE PREVIOUSLY LISTED UNDER "INTERPRETIVE SWITCH BIT ASSIGNMENTS" IN
000021:                                                                                                  #                        THE ERASABLE LOG SECTION.  FLAGWORDS 12 & 13 WERE PREVIOUSLY RADMODES AND DAPBOOLS AND
000022:                                                                                                  #                        ARE STILL DOWNLINKED UNDER THOSE NAMES.
000023:
000024:                                                                                                  #                ALPHABETICAL LIST OF FLAGWORDS
000025:
000026:
000027:                                                                                                  #  FLAGWORD      DEC. NUMBER     BIT AND FLAG            BIT NAME
000028:
000029:                                                                                                  #  ACCOKFLG      207             BIT  3 FLAG 13          ACCSOKAY
000030:                                                                                                  #  ACC4-2FL      199             BIT 11 FLAG 13          ACC4OR2X
000031:                                                                                                  #  ACMODFLG      032             BIT 13 FLAG  2          ACMODBIT
000032:                                                                                                  #  ALTSCALE      186             BIT  9 FLAG 12          ALTSCBIT
000033:                                                                                                  #  ANTENFLG      183             BIT 12 FLAG 12          ANTENBIT
000034:                                                                                                  #  AORBSFLG      205             BIT  5 FLAG 13          AORBSYST
000035:                                                                                                  #  AORBTFLG      200             BIT 10 FLAG 13          AORBTRAN
000036:                                                                                                  #  APSESW        130             BIT  5 FLAG  8          APSESBIT
000037:                                                                                                  #  APSFLAG       152             BIT 13 FLAG 10          APSFLBIT
000038:                                                                                                  #  ASTNFLAG      108             BIT 12 FLAG  7          ASTNBIT
000039:                                                                                                  #  ATTFLAG       104             BIT  1 FLAG  6          ATTFLBIT
000040:                                                                                                  #  AUTOMODE      193             BIT  2 FLAG 12          AUTOMBIT
000041:                                                                                                  #  AUTR1FLG      209             BIT  1 FLAG 13          AUTRATE1
000042:                                                                                                  #  AUTR2FLG      208             BIT  2 FLAG 13          AUTRATE2
000043:                                                                                                  #  AUXFLAG       103             BIT  2 FLAG  6          AUXFLBIT
000044:                                                                                                  #  AVEGFLAG      115             BIT  5 FLAG  7          AVEGFBIT
000045:                                                                                                  #  AVEMIDSW      149             BIT  1 FLAG  9          AVEMDBIT
000046:                                                                                                  #  AVFLAG        040             BIT  5 FLAG  2          AVFLBIT
000047:                                                                                                  #  CALCMAN2      043             BIT  2 FLAG  2          CALC2BIT
000048:                                                                                                  #  CALCMAN3      042             BIT  3 FLAG  2          CALC3BIT
000049:                                                                                                  #  CDESFLAG      180             BIT 15 FLAG 12          CDESBIT
000050:                                                                                                  #  CMOONFLG      123             BIT 12 FLAG  8          CMOONBIT
000051:                                                                                                  #  COGAFLAG      131             BIT  4 FLAG  8          COGAFBIT
000052:                                                                                                  #  CSMDKFLG      197             BIT 13 FLAG 13          CSMDOCKD
000053:                                                                                                  #  CULTFLAG      053             BIT  7 FLAG  3          CULTBIT
000054:                                                                                                  #  DAPBOOLS                      FLGWRD13
000055:                                                                                                  #  DBSELFLG      206             BIT  4 FLAG 13          DBSELECT
000056:                                                                                                  #  DESIGFLG      185             BIT 10 FLAG 12          DESIGBIT
000057:                                                                                                  #  DIDFLAG       016             BIT 14 FLAG             DIDFLBIT
000058:                                                                                                  #  DIMOFLAG      059             BIT  1 FLAG  3          DIMOBIT
000059:                                                                                                  #  DMENFLG       081             BIT  9 FLAG  5          DMENFBIT
000060:                                                                                                  #  DRIFTDFL      202             BIT  8 FLAG 13          DRIFTBIT
000061:                                                                                                  #  DRIFTFLG      030             BIT 15 FLAG  2          DRFTBIT
000062:                                                                                                  #  DSKYFLAG      075             BIT 15 FLAG  5          DSKYFBIT


000064:                                                                                                  #  D6OR9FLG      058             BIT  2 FLAG  3          D6OR9BIT
000065:                                                                                                  #  ENGONFLG      083             BIT  7 FLAG  5          ENGONBIT
000066:                                                                                                  #  ERADFLAG      017             BIT 13 FLAG  1          ERADFBIT
000067:                                                                                                  #  ETPIFLAG      038             BIT  7 FLAG  2          ETPIBIT         EQUIVALENT FLAG NAME: OPTNSW
000068:                                                                                                  #  FINALFLG      039             BIT  6 FLAG  2          FINALBIT
000069:                                                                                                  #  FLAGWRD0      (000-014)       (STATE +0)
000070:                                                                                                  #  FLAGWRD1      (015-029)       (STATE +1)
000071:                                                                                                  #  FLAGWRD2      (030-044)       (STATE +2)
000072:                                                                                                  #  FLAGWRD3      (045-059)       (STATE +3)
000073:                                                                                                  #  FLAGWRD4      (060-074)       (STATE +4)
000074:                                                                                                  #  FLAGWRD5      (075-089)       (STATE +5)
000075:                                                                                                  #  FLAGWRD6      (090-104)       (STATE +6)
000076:                                                                                                  #  FLAGWRD7      (105-119)       (STATE +7)
000077:                                                                                                  #  FLAGWRD8      (120-134)       (STATE +8D)
000078:                                                                                                  #  FLAGWRD9      (135-149)       (STATE +9D)
000079:                                                                                                  #  FLAP          142             BIT  8 FLAG  9          FLAPBIT
000080:                                                                                                  #  FLGWRD10      (150-164)       (STATE +10D)
000081:                                                                                                  #  FLGWRD11      (165-179)       (STATE +11D)
000082:                                                                                                  #  FLGWRD12      (180-194)       (STATE +12D)
000083:                                                                                                  #  FLGWRD13      (195-209)       (STATE +13D)
000084:                                                                                                  #  FLPC          138             BIT 12 FLAG  9          FLPCBIT
000085:                                                                                                  #  FLPI          139             BIT 11 FLAG  9          FLPIBIT
000086:                                                                                                  #  FLRCS         149             BIT 10 FLAG  9          FLRCSBIT
000087:                                                                                                  #  FLUNDISP      125             BIT 10 FLAG  8          FLUNDBIT
000088:                                                                                                  #  FLVR          136             BIT 14 FLAG  9          FLVRBIT
000089:                                                                                                  #  FREEFLAG      012             BIT  3 FLAG  0          FREEFBIT
000090:                                                                                                  #  FSPASFLG      005             BIT 10 FLAG  0          FSPASBIT
000091:                                                                                                  #  GLOKFAIL      046             BIT 14 FLAG  3          GLOKFBIT
000092:                                                                                                  #  GMBDRVSW      095             BIT 10 FLAG  6          GMBDRBIT
000093:                                                                                                  #  GUESSW        028             BIT  2 FLAG  1          GUESSBIT
000094:                                                                                                  #  HFLSHFLG      179             BIT  1 FLAG 11          HFLSHBIT
000095:                                                                                                  #  IDLEFLAG      113             BIT  7 FLAG  7          IDLEFBIT
000096:                                                                                                  #  IGNFLAG       107             BIT 13 FLAG  7          IGNFLBIT
000097:                                                                                                  #  IMPULSW       036             BIT  9 FLAG  2          IMPULBIT
000098:                                                                                                  #  IMUSE         007             BIT  8 FLAG  0          IMUSEBIT
000099:                                                                                                  #  INFINFLG      128             BIT  7 FLAG  8          INFINBIT
000100:                                                                                                  #  INITALGN      133             BIT  2 FLAG  8          INITABIT
000101:                                                                                                  #  INTFLAG       151             BIT 14 FLAG 10          INTFLBIT
000102:                                                                                                  #  INTYPFLG      056             BIT  4 FLAG  3          INTYPBIT
000103:                                                                                                  #  ITSWICH       105             BIT 15 FLAG  7          ITSWBIT
000104:                                                                                                  #  JSWITCH       001             BIT 14 FLAG  0          JSWCHBIT
000105:                                                                                                  #  LETABORT      141             BIT  9 FLAG  9          LETABBIT
000106:                                                                                                  #  LMOONFLG      124             BIT 11 FLAG  8          LMOONBIT
000107:                                                                                                  #  LOKONSW       010             BIT  5 FLAG  0          LOKONBIT
000108:                                                                                                  #  LOSCMFLG      033             BIT 12 FLAG  2          LOSCMBIT
000109:                                                                                                  #  LRALTFLG      190             BIT  5 FLAG 12          LRALTBIT
000110:                                                                                                  #  LRBYPASS      165             BIT 15 FLAG 11          LRBYBIT
000111:                                                                                                  #  LRINH         172             BIT  8 FLAG 11          LRINHBIT
000112:                                                                                                  #  LRPOSFLG      189             BIT  6 FLAG 12          LRPOSBIT
000113:                                                                                                  #  LRVELFLG      187             BIT  8 FLAG 12          LRVELBIT


000115:                                                                                                  #  LUNAFLAG      048             BIT 12 FLAG  3          LUNABIT
000116:                                                                                                  #  MANUFLAG      106             BIT 14 FLAG  7          MANUFBIT
000117:                                                                                                  #  MGLVFLAG      088             BIT  2 FLAG  5          MGLVFBIT
000118:                                                                                                  #  MIDAVFLG      148             BIT  2 FLAG  9          MIDAVBIT
000119:                                                                                                  #  MIDFLAG       002             BIT 13 FLAG  0          MIDFLBIT
000120:                                                                                                  #  MID1FLAG      147             BIT  3 FLAG  9          MID1BIT
000121:                                                                                                  #  MKOVFLAG      072             BIT  3 FLAG  4          MKOVBIT
000122:                                                                                                  #  MOONFLAG      003             BIT 12 FLAG  0          MOONBIT
000123:                                                                                                  #  MRKIDFLG      060             BIT 15 FLAG  4          MRKIDBIT
000124:                                                                                                  #  MRKNVFLG      066             BIT  9 FLAG  4          MRKNVBIT
000125:                                                                                                  #  MRUPTFLG      070             BIT  5 FLAG  4          MRUPTBIT
000126:                                                                                                  #  MUNFLAG       097             BIT  8 FLAG  6          MUNFLBIT
000127:                                                                                                  #  MWAITFLG      064             BIT 11 FLAG  4          MWAITBIT
000128:                                                                                                  #  NEEDLFLG      011             BIT  4 FLAG  0          NEEDLBIT
000129:                                                                                                  #  NEWIFLG       122             BIT 13 FLAG  8          NEWIBIT
000130:                                                                                                  #  NJETSFLG      015             BIT 15 FLAG             NJETSBIT
000131:                                                                                                  #  NODOFLAG      044             BIT  1 FLAG  2          NODOBIT
000132:                                                                                                  #  NOLRREAD      170             BIT 10 FLAG 11          NOLRRBIT
000133:                                                                                                  #  NORMSW        110             BIT 10 FLAG  7          NORMSBIT
000134:                                                                                                  #  NORRMON       086             BIT  4 FLAG  5          NORRMBIT
000135:                                                                                                  #  NOR29FLG      049             BIT 11 FLAG  3          NR29FBIT
000136:                                                                                                  #  NOTHROTL      078             BIT 12 FLAG  5          NOTHRBIT
000137:                                                                                                  #  NOUPFLAG      024             BIT  6 FLAG  1          NOUPFBIT
000138:                                                                                                  #  NRMNVFLG      067             BIT  8 FLAG  4          NRMNVBIT
000139:                                                                                                  #  NRMIDFLG      062             BIT 13 FLAG  4          NRMIDBIT
000140:                                                                                                  #  NRUPTFLG      071             BIT  4 FLAG  4          NRUPTBIT
000141:                                                                                                  #  NTARGFLG      102             BIT  3 FLAG  6          NTARGBIT
000142:                                                                                                  #  NWAITFLG      065             BIT 10 FLAG  4          NWAITBIT
000143:                                                                                                  #  OLDESFLG      014             BIT  1 FLAG  0          OLDESBIT
000144:                                                                                                  #  OPTNSW        038             BIT  7 FLAG  2          OPTNBIT         EQUIVALENT FLAG NAME: ETPIFLAG
000145:                                                                                                  #  ORBWFLAG      054             BIT  6 FLAG  3          ORBWFBIT
000146:                                                                                                  #  ORDERSW       129             BIT  6 FLAG  8          ORDERBIT
000147:                                                                                                  #  OURRCFLG      198             BIT 12 FLAG 13          OURRCBIT
000148:                                                                                                  #  PDSPFLAG      063             BIT 12 FLAG  4          PDSPFBIT
000149:                                                                                                  #  PFRATFLG      041             BIT  4 FLAG  2          PFRATBIT
000150:                                                                                                  #  PINBRFLG      069             BIT  6 FLAG  4          PINBRBIT
000151:                                                                                                  #  PRECIFLG      052             BIT  8 FLAG  3          PRECIBIT
000152:                                                                                                  #  PRIODFLG      061             BIT 14 FLAG  1          PRIODBIT
000153:                                                                                                  #  PRONVFLG      068             BIT  7 FLAG  4          PRONVBIT
000154:                                                                                                  #  PSTHIGAT      169             BIT 11 FLAG 11          PSTHIBIT
000155:                                                                                                  #  PULSEFLG      195             BIT 15 FLAG 13          PULSES
000156:                                                                                                  #  P21FLAG       004             BIT 11 FLAG  0          P21FLBIT
000157:                                                                                                  #  P25FLAG       006             BIT  9 FLAG  0          P25FLBIT
000158:                                                                                                  #  P39/79SW      126             BIT  9 FLAG  8          P39SWBIT
000159:                                                                                                  #  QUITFLAG      145             BIT 5 FLAG 9            QUITBIT
000160:                                                                                                  #  RADMODES                      FLGWRD12
000161:                                                                                                  #  RASFLAG                       FLGWRD10
000162:                                                                                                  #  RCDUFAIL      188             BIT  7 FLAG 12          RCDUFBIT
000163:                                                                                                  #  RCDU0FLG      182             BIT 13 FLAG 12          RCDU0BIT
000164:                                                                                                  #  READLR        174             BIT  6 FLAG 11          READLBIT


000166:                                                                                                  #  READRFLG      051             BIT  9 FLAG  3          READRBIT        EQUIVALENT FLAG NAME:  R04FLAG
000167:                                                                                                  #  READVEL       175             BIT  5 FLAG 11          READVBIT
000168:                                                                                                  #  REDFLAG       099             BIT  6 FLAG  6          REDFLBIT
000169:                                                                                                  #  REFSMFLG      047             BIT 13 FLAG  3          REFSMBIT
000170:                                                                                                  #  REINTFLG      158             BIT  7 FLAG 10          REINTBIT
000171:                                                                                                  #  REMODFLG      181             BIT 14 FLAG 12          REMODBIT
000172:                                                                                                  #  RENDWFLG      089             BIT  1 FLAG  5          RENDWBIT
000173:                                                                                                  #  REPOSMON      184             BIT 11 FLAG 12          REPOSBIT
000174:                                                                                                  #  RHCSCFLG      203             BIT  7 FLAG 13          RHCSCALE
000175:                                                                                                  #  RNDVZFLG      008             BIT  7 FLAG  0          RNDVZBIT
000176:                                                                                                  #  RNGEDATA      176             BIT  4 FLAG 11          RNGEDBIT
000177:                                                                                                  #  RNGSCFLG      080             BIT 10 FLAG  5          RNGSCBIT
000178:                                                                                                  #  RODFLAG       018             BIT 12 FLAG  1          RODFLBIT
000179:                                                                                                  #  ROTFLAG       144             BIT  6 FLAG  9          ROTFLBIT
000180:                                                                                                  #  RPQFLAG       120             BIT 15 FLAG  8          RPQFLBIT
000181:                                                                                                  #  RRDATAFL      191             BIT  4 FLAG 12          RRDATABT
000182:                                                                                                  #  RRNBSW        009             BIT  6 FLAG  0          RRNBBIT
000183:                                                                                                  #  RRRSFLAG      192             BIT  3 FLAG 12          RRRSBIT
000184:                                                                                                  #  RVSW          111             BIT  9 FLAG  7          RVSWBIT
000185:                                                                                                  #  R04FLAG       051             BIT  9 FLAG  3          R04FLBIT        EQUIVALENT FLAG NAME:  READRFLG
000186:                                                                                                  #  R10FLAG       013             BIT  2 FLAG  0          R10FLBIT
000187:                                                                                                  #  R61FLAG       020             BIT 10 FLAG  1          R61FLBIT
000188:                                                                                                  #  R77FLAG       079             BIT 11 FLAG  5          R77FLBIT
000189:                                                                                                  #  SCALBAD       177             BIT  3 FLAG 11          SCABBIT
000190:                                                                                                  #  SLOPESW       027             BIT  3 FLAG  1          SLOPEBIT
000191:                                                                                                  #  SNUFFER       077             BIT 13 FLAG  5          SNUFFBIT
000192:                                                                                                  #  SOLNSW        087             BIT  3 FLAG  5          SOLNSBIT
000193:                                                                                                  #  SRCHOPTN      031             BIT 14 FLAG  2          SRCHOBIT
000194:                                                                                                  #  STATEFLG      055             BIT  5 FLAG  3          STATEBIT
000195:                                                                                                  #  STEERSW       034             BIT 11 FLAG  2          STEERBIT
000196:                                                                                                  #  SURFFLAG      127             BIT  8 FLAG  8          SURFFBIT
000197:                                                                                                  #  SWANDISP      109             BIT 11 FLAG  7          SWANDBIT
000198:                                                                                                  #  S32.1F1       090             BIT 15 FLAG  6          S32BIT1
000199:                                                                                                  #  S32.1F2       092             BIT 14 FLAG  6          S32BIT2
000200:                                                                                                  #  S32.1F3A      092             BIT 13 FLAG  6          S32BIT3A
000201:                                                                                                  #  S32.1S3B      093             BIT 12 FLAG  6          S32BIT3B
000202:                                                                                                  #  TFFSW         119             BIT  1 FLAG  7          TFFSWBIT
000203:                                                                                                  #  TRACKFLG      025             BIT  5 FLAG  1          TRACKBIT
000204:                                                                                                  #  TURNONFL      194             BIT  1 FLAG 12          TURNONBT
000205:                                                                                                  #  ULLAGFLG      204             BIT  6 FLAG 13          ULLAGER
000206:                                                                                                  #  UPDATFLG      023             BIT  7 FLAG  1          UPDATBIT
000207:                                                                                                  #  UPLOCKFL      116             BIT  4 FLAG 7           UPLOCBIT
000208:                                                                                                  #  USEQRFLG      196             BIT 14 FLAG 13          USEQRJTS
000209:                                                                                                  #  VEHUPFLG      022             BIT  8 FLAG  1          VEHUPBIT
000210:                                                                                                  #  VELDATA       173             BIT  7 FLAG 11          VELDABIT
000211:                                                                                                  #  VERIFLAG      117             BIT  3 FLAG  7          VERIFBIT
000212:                                                                                                  #  VFLAG         050             BIT 10 FLAG  3          VFLAGBIT
000213:                                                                                                  #  VFLSHFLG      178             BIT  2 FLAG 11          VFLSHBIT
000214:                                                                                                  #  VINTFLAG      057             BIT  3 FLAG  3          VINTFBIT
000215:                                                                                                  #  VXINH         168             BIT 12 FLAG 11          VXINHBIT


000217:                                                                                                  #  V37FLAG       114             BIT  6 FLAG  7          V37FLBIT
000218:                                                                                                  #  V67FLAG       112             BIT  8 FLAG  7          V67FLBIT
000219:                                                                                                  #  V82EMFLG      118             BIT  2 FLAG  7          V82EMBIT
000220:                                                                                                  #  XDELVFLG      037             BIT  8 FLAG  2          XDELVBIT
000221:                                                                                                  #  XDSPFLAG      074             BIT  1 FLAG  4          XDSPBIT
000222:                                                                                                  #  XORFLG        171             BIT  9 FLAG 11          XORFLBIT
000223:                                                                                                  #  XOVINFLG      201             BIT  9 FLAG 13          XOVINHIB
000224:                                                                                                  #  3AXISFLG      084             BIT  6 FLAG  5          3AXISBIT
000225:                                                                                                  #  360SW         134             BIT  1 FLAG  8          360SWBIT
000226:
000227:                                                                                                  #  ASSIGNMENT AND DESCRIPTION OF FLAGWORDS
000228:
000229: 26,2022     0074               FLAGWRD0           =        STATE      +0                         #  (000-014)
000230:
000231:                                                                                                  #        (SET)                   (RESET)
000232:
000233:                                                                                                  #  BIT 15 FLAG 0 (S)
000234:                                                                                                  #                =       000D
000235:                                                                                                  #                =       BIT15
000236:
000237:                                                                                                  #  BIT 14 FLAG 0 (S)
000238: 26,2022                        JSWITCH            =        001D                                  #        INTEGRATION OF W        INTEGRATION OF STATE
000239: 26,2022     4736               JSWCHBIT           =        BIT14                                 #        MATRIX                  VECTOR
000240:
000241:                                                                                                  #  BIT 13 FLAG 0 (S)
000242: 26,2022                        MIDFLAG            =        002D                                  #        INTEGRATION WITH        INTEGRATION WITHOUT
000243:                                                                                                  #        SECONDARY BODY AND      SOLAR PERTURBATIONS
000244: 26,2022     4737               MIDFLBIT           =        BIT13                                 #        SOLAR PERTURBATIONS
000245:
000246:                                                                                                  #  BIT 12 FLAG 0 (L)
000247: 26,2022                        MOONFLAG           =        003D                                  #        MOON IS SPHERE OF       EARTH IS SPHERE OF
000248: 26,2022     4740               MOONBIT            =        BIT12                                 #        INFLUENCE               INFLUENCE
000249:
000250:                                                                                                  #  BIT 11 FLAG 0
000251: 26,2022                        P21FLAG            =        004D                                  #        USE BASE VECTORS        1ST PASS -- CALC-
000252: 26,2022     4741               P21FLBIT           =        BIT11                                 #        ALREADY CALCULATED      ULATE BASE VECTORS
000253:
000254:                                                                                                  #  BIT 10 FLAG 0
000255: 26,2022                        FSPASFLG           =        005D                                  #        FIRST PASS THROUGH      NOT FIRST PASS THRU
000256: 26,2022     4742               FSPASBIT           =        BIT10                                 #        REPOSITION ROUTINE      REPOSITION ROUTINE
000257:


000259:                                                                                                  #  BIT 9 FLAG 0  (S)
000260: 26,2022                        P25FLAG            =        006D                                  #        P25 OPERATING           P25 NOT OPERATING
000261: 26,2022     4743               P25FLBIT           =        BIT9
000262:
000263:                                                                                                  #  BIT 8 FLAG 0  (S)
000264: 26,2022                        IMUSE              =        007D                                  #        IMU IN USE              IMU NOT IN USE
000265: 26,2022     4744               IMUSEBIT           =        BIT8
000266:
000267:                                                                                                  #  BIT 7 FLAG 0  (S)
000268: 26,2022                        RNDVZFLG           =        008D                                  #        P20 RUNNING (RADAR      P20 NOT RUNNING
000269: 26,2022     4745               RNDVZBIT           =        BIT7                                  #        IN USE)
000270:
000271:                                                                                                  #  BIT 6 FLAG 0  (S)
000272: 26,2022                        RRNBSW             =        009D                                  #        RADAR TARGET IN         RADAR TARGET IN
000273: 26,2022     4746               RRNBBIT            =        BIT6                                  #        NB COORDINATES          SM COORDINATES
000274:
000275:                                                                                                  #  BIT 5 FLAG 0  (S)
000276: 26,2022                        LOKONSW            =        010D                                  #        RADAR LOCK-ON           RADAR LOCK-ON NOT
000277: 26,2022     4747               LOKONBIT           =        BIT5                                  #        DESIRED                 DESIRED
000278:
000279:                                                                                                  #  BIT 4 FLAG 0  (S)
000280: 26,2022                        NEEDLFLG           =        011D                                  #        TOTAL ATTITUDE          A/P FOLLOWING
000281: 26,2022     4750               NEEDLBIT           =        BIT4                                  #        ERROR DISPLAYED         ERROR DISPLAYED
000282:
000283:                                                                                                  #  BIT 3 FLAG 0
000284: 26,2022                        FREEFLAG           =        012D                                  #  (USED BY P51-53 TEMP IN MANY DIFFERENT
000285:                                                                                                  #  ROUTINES & BY LUNAR + SOLAR EPHEMERIDES)
000286: 26,2022     4751               FREEFBIT           =        BIT3
000287:
000288:                                                                                                  #  BIT 2 FLAG 0
000289: 26,2022                        R10FLAG            =        013D                                  #        R10 OUTPUTS DATA TO     BESIDES OUTPUT WHEN
000290: 26,2022     4752               R10FLBIT           =        BIT2                                  #        ALTITUDE & ALTITUDE     SET, R10 ALSO OUTPUT
000291:                                                                                                  #        RATE METERS ONLY        TO FORWARD & LATERAL
000292:                                                                                                  #                                VELOCITY CROSSPOINTR
000293:
000294:                                                                                                  #  BIT 1 FLAG 0  (L)
000295: 26,2022                        OLDESFLG           =        014D                                  #        R29 GYRO CMD LOOP       R29 GYRO CMD LOOP
000296: 26,2022     4753               OLDESBIT           =        BIT1                                  #        REQUESTED               NOT REQUESTED
000297:
000298:
000299: 26,2022     0075               FLAGWRD1           =        STATE      +1                         #  (015-029)
000300:


000302:                                                                                                  #        (SET)                   (RESET)
000303:
000304:                                                                                                  #  BIT 15 FLAG 1 (S)
000305: 26,2022                        NJETSFLG           =        015D                                  #        TWO JET RCS BURN        FOUR JET RCS BURN
000306: 26,2022     4735               NJETSBIT           =        BIT15
000307:
000308:                                                                                                  #  BIT 14 FLAG 1 (L)
000309: 26,2022                        DIDFLAG            =        016D                                  #        INERTIAL DATA IS        PERFORM DATA DISPLAY
000310: 26,2022     4736               DIDFLBIT           =        BIT14                                 #        AVAILABLE               INITIALIZATION FUNCS
000311:
000312:                                                                                                  #  BIT 13 FLAG 1 (S)
000313: 26,2022                        ERADFLAG           =        017D                                  #        COMPUTE REARTH          USE CONSTANT REARTH
000314: 26,2022     4737               ERADFBIT           =        BIT13                                 #        FISCHER ELLIPSOID       PAD RADIUS
000315:
000316:                                                                                                  #  BIT 12 FLAG 1
000317: 26,2022                        RODFLAG            =        018D                                  #        IF IN P66, NORMAL       IF IN P66, RE-INIT-
000318: 26,2022     4740               RODFLBIT           =        BIT12                                 #        OPERATION CONTINUES.    IALIZATION IS PER-
000319:                                                                                                  #        RESTART CLEARS FLAG     FORMED AND FLAG IS
000320:
000321:                                                                                                  #  BIT 11 FLAG 1
000322:                                                                                                  #                =       019D
000323:                                                                                                  #                =       BIT11
000324:
000325:                                                                                                  #  BIT 10 FLAG 1 (L)
000326: 26,2022                        R61FLAG            =        020D                                  #        RUN R61 LEM             RUN R65 LEM
000327: 26,2022     4742               R61FLBIT           =        BIT10
000328:
000329:                                                                                                  #  BIT 9 FLAG 1
000330:                                                                                                  #                =       021D
000331:                                                                                                  #                =       BIT9
000332:
000333:                                                                                                  #  BIT 8 FLAG 1  (S)
000334: 26,2022                        VEHUPFLG           =        022D                                  #        CSM STATE VECTOR        LEM STATE VECTOR
000335: 26,2022     4744               VEHUPBIT           =        BIT8                                  #        BEING UPDATED           BEING UPDATED
000336:
000337:                                                                                                  #  BIT 7 FLAG 1  (S)
000338: 26,2022                        UPDATFLG           =        023D                                  #        UPDATING BY MARKS       UPDATING BY MARKS
000339: 26,2022     4745               UPDATBIT           =        BIT7                                  #        ALLOWED                 NOT ALLOWED
000340:
000341:                                                                                                  #  BIT 6 FLAG 1  (S)
000342: 26,2022                        NOUPFLAG           =        024D                                  #        NEITHER CSM             EITHER STATE
000343:                                                                                                  #        NOR LM STATE VECTOR     VECTOR MAY BE
000344: 26,2022     4746               NOUPFBIT           =        BIT6                                  #        MAY BE UPDATED          UPDATED
000345:


000347:                                                                                                  #  BIT 5 FLAG 1  (S)
000348: 26,2022                        TRACKFLG           =        025D                                  #        TRACKING ALLOWED        TRACKING NOT ALLOWED
000349: 26,2022     4747               TRACKBIT           =        BIT5
000350:
000351:                                                                                                  #  BIT 4 FLAG 1
000352:                                                                                                  #                =       026D
000353:                                                                                                  #                =       BIT4
000354:
000355:                                                                                                  #  BIT 3 FLAG 1  (S)
000356: 26,2022                        SLOPESW            =        027D                                  #        ITERATE WITH BIAS       ITERATE WITH REGULAR
000357:                                                                                                  #        METHOD IN ITERATOR      FALSI METHOD IN
000358: 26,2022     4751               SLOPEBIT           =        BIT3                                  #                                ITERATOR
000359:
000360:                                                                                                  #  BIT 2 FLAG 1  (S)
000361: 26,2022                        GUESSW             =        028D                                  #        NO STARTING VALUE       STARTING VALUE FOR
000362: 26,2022     4752               GUESSBIT           =        BIT2                                  #        FOR ITERATION           ITERATION EXISTS
000363:
000364:                                                                                                  #  BIT 1 FLAG 1
000365:                                                                                                  #                =       029D
000366:
000367: 26,2022     0076               FLAGWRD2           =        STATE      +2                         #  (030-044)
000368:
000369:                                                                                                  #        (SET)                   (RESET)
000370:
000371:                                                                                                  #  BIT 15 FLAG 2 (S)
000372: 26,2022                        DRIFTFLG           =        030D                                  #        T3RUPT CALLS GYRO       T3RUPT DOES NO GYRO
000373: 26,2022     4735               DRFTBIT            =        BIT15                                 #        COMPENSATION            COMPENSATION
000374:
000375:                                                                                                  #  BIT 14 FLAG 2 (S)
000376: 26,2022                        SRCHOPTN           =        031D                                  #        RADAR IN AUTOMATIC      RADAR NOT IN AUTO-
000377: 26,2022     4736               SRCHOBIT           =        BIT14                                 #        SEARCH OPTION (R24)     MATIC SEARCH OPTION
000378:
000379:                                                                                                  #  BIT 13 FLAG 2 (S)
000380: 26,2022                        ACMODFLG           =        032D                                  #        MANUAL ACQUISITION      AUTO ACQUISITION
000381: 26,2022     4737               ACMODBIT           =        BIT13                                 #        BY RENDESVOUS RADAR     BY RENDESVOUS RADAR
000382:
000383:                                                                                                  #  BIT 12 FLAG 2 (S)
000384: 26,2022                        LOSCMFLG           =        033D                                  #        LINE OF SIGHT BEING     LINE OF SIGHT NOT
000385:                                                                                                  #        COMPUTED (R21)          BEING COMPUTED
000386: 26,2022     4740               LOSCMBIT           =        BIT12
000387:


000389:                                                                                                  #        IN R29 (L): RR GYRO     IN R29 (L): RR GYRO
000390:                                                                                                  #        CMD LOOP RUNNING        CMD LOOP OFF
000391:
000392:                                                                                                  #  BIT 11 FLAG 2 (S)
000393: 26,2022                        STEERSW            =        034D                                  #        SUFFICIENT THRUST       INSUFFICIENT THRUST
000394: 26,2022     4741               STEERBIT           =        BIT11                                 #        IS PRESENT              IS PRESENT
000395:
000396:                                                                                                  #  BIT 10 FLAG 2 (S)
000397:
000398:                                                                                                  #  BIT 9 FLAG 2 (S)
000399: 26,2022                        IMPULSW            =        036D                                  #        MINIMUM IMPULSE         STEERING BURN (NO
000400:                                                                                                  #        BURN (CUTOFF TIME       CUTOFF TIME YET
000401: 26,2022     4743               IMPULBIT           =        BIT9                                  #        SPECIFIED)              AVAILABLE)
000402:
000403:                                                                                                  #  BIT 8 FLAG 2 (S)
000404: 26,2022                        XDELVFLG           =        037D                                  #        EXTERNAL DELTAV VG      LAMBERT (AIMPOINT)
000405: 26,2022     4744               XDELVBIT           =        BIT8                                  #        COMPUTATION             VG COMPUTATION
000406:
000407:                                                                                                  #  BIT 7 FLAG 2 (S)
000408: 26,2022                        ETPIFLAG           =        038D                                  #        ELEVATION ANGLE         TPI TIME SUPPLIED
000409:                                                                                                  #        SUPPLIED FOR            FOR P34,74 TO COMPUT
000410: 26,2022     4745               ETPIBIT            =        BIT7                                  #        P34,74                  ELEVATION
000411:
000412:                                                                                                  #  BIT 7 FLAG 2 (L)
000413: 26,2022  0000046               OPTNSW             =        ETPIFLAG                              #        SOI PHASE OF P38/78     SOR PHASE OF P38/78
000414: 26,2022     4745               OPTNBIT            =        BIT7
000415:
000416:                                                                                                  #  BIT 6 FLAG 2 (S)
000417: 26,2022                        FINALFLG           =        039D                                  #        LAST PASS THROUGH       INTERIM PASS THROUGH
000418:                                                                                                  #        RENDEZVOUS PROGRAM      RENDEZVOUS PROGRAM
000419: 26,2022     4746               FINALBIT           =        BIT6                                  #        COMPUTATIONS            COMPUTATIONS
000420:
000421:                                                                                                  #  BIT 5 FLAG 2 (S)
000422: 26,2022                        AVFLAG             =        040D                                  #        LEM IS ACTIVE           CSM IS ACTIVE
000423: 26,2022     4747               AVFLBIT            =        BIT5                                  #        VEHICLE                 VEHICLE
000424:
000425:                                                                                                  #  BIT 4 FLAG 2 (S)
000426: 26,2022                        PFRATFLG           =        041D                                  #        PREFERRED ATTITUDE      PREFERRED ATTITUDE
000427: 26,2022     4750               PFRATBIT           =        BIT4                                  #        COMPUTED                NOT COMPUTED
000428:
000429:                                                                                                  #  BIT 3 FLAG 2 (S)
000430:


000432: 26,2022                        CALCMAN3           =        042D                                  #        NO FINAL ROLL           FINAL ROLL IS
000433: 26,2022     4751               CALC3BIT           =        BIT3                                  #                                NECESSARY
000434:
000435:                                                                                                  #  BIT 2 FLAG 2 (S)
000436: 26,2022                        CALCMAN2           =        043D                                  #        PERFORM MANEUVER        BYPASS STARTING
000437: 26,2022     4752               CALC2BIT           =        BIT2                                  #        STARTING PROCEDURE      PROCEDURE
000438:
000439:                                                                                                  #  BIT 1 FLAG 2 (S)
000440: 26,2022                        NODOFLAG           =        044D                                  #        V37 NOT PERMITTED       V37 PERMITTED
000441: 26,2022     4753               NODOBIT            =        BIT1
000442:
000443: 26,2022     0077               FLAGWRD3           =        STATE      +3                         #  (045-059)
000444:
000445:                                                                                                  #        (SET)                   (RESET)
000446:
000447:                                                                                                  #  BIT 15 FLAG 3
000448:                                                                                                  #                =       045D
000449:
000450:                                                                                                  #  BIT 14 FLAG 3 (S)
000451: 26,2022                        GLOKFAIL           =        046D                                  #        GIMBAL LOCK HAS         NOT IN GIMBAL LOCK
000452: 26,2022     4736               GLOKFBIT           =        BIT14                                 #        OCCURRED
000453:
000454:                                                                                                  #  BIT 13 FLAG 3 *** PROTECTED FROM FRESH START ***
000455: 26,2022                        REFSMFLG           =        047D                                  #        REFSMMAT GOOD           REFSMMAT NO GOOD
000456: 26,2022     4737               REFSMBIT           =        BIT13
000457:
000458:                                                                                                  #  BIT 12 FLAG 3 (S)
000459: 26,2022                        LUNAFLAG           =        048D                                  #        LUNAR LAT-LONG          EARTH LAT-LONG
000460: 26,2022     4740               LUNABIT            =        BIT12
000461:
000462:                                                                                                  #  BIT 11 FLAG 3 (L)
000463: 26,2022                        NOR29FLG           =        049D                                  #        R29 NOT ALLOWED         R29 ALOWED (RR DES-
000464: 26,2022     4741               NR29FBIT           =        BIT11                                 #                                IGNATE, POWERED FLT)
000465:
000466:                                                                                                  #  BIT 10 FLAG 3 (S)
000467: 26,2022                        VFLAG              =        050D                                  #        LESS THAN TWO STARS     TWO STARS IN FIELD
000468: 26,2022     4742               VFLAGBIT           =        BIT10                                 #        IN FIELD OF VIEW        OF VIEW
000469:
000470:                                                                                                  #  BIT 9 FLAG 3  (S)
000471: 26,2022                        R04FLAG            =        051D                                  #        ALARM 521               ALARM 521 ALLOWED
000472:                                                                                                  #        SUPPRESSED


000474: 26,2022     4743               R04FLBIT           =        BIT9
000475:
000476:                                                                                                  #  BIT 9 FLAG 3  (L)
000477: 26,2022  0000063               READRFLG           =        R04FLAG                               #        READING RR DATA         NOT READING RR DATA
000478: 26,2022     4743               READRBIT           =        BIT9                                  #        PURSUANT TO R29         PURSUANT TO R29
000479:
000480:                                                                                                  #  BIT 8 FLAG 3  (S)
000481: 26,2022                        PRECIFLG           =        052D                                  #        NORMAL INTEGRATION      ENGAGES 4-TIME STEP
000482:                                                                                                  #        IN POO                  (POO) LOGIC IN INTE-
000483: 26,2022     4744               PRECIBIT           =        BIT8                                  #                                GRATION
000484:
000485:                                                                                                  #  BIT 7 FLAG 3  (S)
000486: 26,2022                        CULTFLAG           =        053D                                  #        STAR OCCULTED           STAR NOT OCCULTED
000487: 26,2022     4745               CULTBIT            =        BIT7
000488:
000489:                                                                                                  #  BIT 6 FLAG 3  (S)
000490: 26,2022                        ORBWFLAG           =        054D                                  #        W MATRIX VALID FOR      W MATRIX INVALID FOR
000491: 26,2022     4746               ORBWFBIT           =        BIT6                                  #        ORBITAL NAVIGATION      ORBITAL NAVIGATION
000492:
000493:                                                                                                  #  BIT 5 FLAG 3  (S)
000494: 26,2022                        STATEFLG           =        055D                                  #        PERMANENT STATE         PERMANENT STATE
000495: 26,2022     4747               STATEBIT           =        BIT5                                  #        VECTOR UPDATED          VECTOR NOT UPDATED
000496:
000497:                                                                                                  #  BIT 4 FLAG 3  (S)
000498: 26,2022                        INTYPFLG           =        056D                                  #        CONIC INTEGRATION       ENCKE INTEGRATION
000499: 26,2022     4750               INTYPBIT           =        BIT4
000500:
000501:                                                                                                  #  BIT 3 FLAG 3  (S)
000502: 26,2022                        VINTFLAG           =        057D                                  #        CSM STATE VECTOR        LEM STATE VECTOR
000503: 26,2022     4751               VINTFBIT           =        BIT3                                  #        BEING INTEGRATED        BEING INTEGRATED
000504:
000505:                                                                                                  #  BIT 2 FLAG 3 (S)
000506: 26,2022                        D6OR9FLG           =        058D                                  #        DIMENSION OF W IS 9     DIMENSION OF W IS 6
000507: 26,2022     4752               D6OR9BIT           =        BIT2                                  #        FOR INTEGRATION         FOR INTEGRATION
000508:
000509:                                                                                                  #  BIT 1 FLAG 3  (S)
000510: 26,2022                        DIM0FLAG           =        059D                                  #        W MATRIX IS TO BE       W MATRIX IS NOT TO
000511: 26,2022     4753               DIM0BIT            =        BIT1                                  #        USED                    BE USED
000512:
000513: 26,2022     0100               FLAGWRD4           =        STATE      +4                         #  (060-074)
000514:


000516:                                                                                                  #        (SET)                   (RESET)
000517:
000518:                                                                                                  #  BIT 15 FLAG 4 (S)
000519: 26,2022                        MRKIDFLG           =        060D                                  #        MARK DISPLAY IN         NO MARK DISPLAY IN
000520: 26,2022     4735               MRKIDBIT           =        BIT15                                 #        ENDIDLE                 ENDIDLE
000521:
000522:                                                                                                  #  BIT 14 FLAG 4 (S)
000523: 26,2022                        PRIODFLG           =        061D                                  #        PRIORITY DISPLAY IN     NO PRIORITY DISPLAY
000524: 26,2022     4736               PRIODBIT           =        BIT14                                 #        ENDIDLE                 IN ENDIDLE
000525:
000526:                                                                                                  #  BIT 13 FLAG 4 (S)
000527: 26,2022                        NRMIDFLG           =        062D                                  #        NORMAL DISPLAY IN       NO NORMAL DISPLAY
000528: 26,2022     4737               NRMIDBIT           =        BIT13                                 #        ENDIDLE                 IN ENDIDLE
000529:
000530:                                                                                                  #  BIT 12 FLAG 4 (S)
000531: 26,2022                        PDSPFLAG           =        063D                                  #        P20 SETS SO AS TO       LEAVE AS NORMAL DISP
000532:                                                                                                  #        TURN A NORMAL DIS-
000533: 26,2022     4740               PDSPFBIT           =        BIT12                                 #        PLAY INTO A PRIORITY
000534:                                                                                                  #        DISPLAY IN R60
000535:
000536:                                                                                                  #  BIT 11 FLAG 4 (S)
000537: 26,2022                        MWAITFLG           =        064D                                  #        HIGHER PRIORITY         NO HIGHER PRIORITY
000538:                                                                                                  #        DISPLAY OPERATING       DISPLAY OPERATING
000539: 26,2022     4741               MWAITBIT           =        BIT11                                 #        WHEN MARK DISPLAY       WHEN MARK DISPLAY
000540:                                                                                                  #        INITIATED               INITIATED
000541:
000542:                                                                                                  #  BIT 10 FLAG 4 (S)
000543: 26,2022                        NWAITFLG           =        065D                                  #        HIGHER PRIORITY         NO HIGHER PRIORITY
000544:                                                                                                  #        DISPLAY OPERATING       DISPLAY OPERATING
000545: 26,2022     4742               NWAITBIT           =        BIT10                                 #        WHEN NORMAL             WHEN NORMAL DISPLAY
000546:                                                                                                  #        DISPLAY INITIATED       INITIATED
000547:
000548:                                                                                                  #  BIT 9 FLAG 4  (S)
000549: 26,2022                        MRKNVFLG           =        066D                                  #        ASTRONAUT USING         ASTRONAUT NOT USING
000550:                                                                                                  #        KEYBOARD WHEN MARK      KEYBOARD WHEN MARK
000551: 26,2022     4743               MRKNVBIT           =        BIT9                                  #        DISPLAY INITIATED       DISPLAY INITIATED
000552:
000553:                                                                                                  #  BIT 8 FLAG 4  (S)
000554: 26,2022                        NRMNVFLG           =        067D                                  #        ASTRONAUT USING         ASTRONAUT NOT USING
000555:                                                                                                  #        KEYBOARD WHEN           KEYBOARD WHEN
000556: 26,2022     4744               NRMNVBIT           =        BIT8                                  #        NORMAL DISPLAY          NORMAL DISPLAY
000557:                                                                                                  #        INITIATED               INITIATED
000558:
000559:                                                                                                  #  BIT 7 FLAG 4  (S)
000560: 26,2022                        PRONVFLG           =        068D                                  #        ASTRONAUT USING         ASTRONAUT NOT USING
000561:


000563:                                                                                                  #        KEYBOARD WHEN           KEYBOARD WHEN
000564: 26,2022     4745               PRONVBIT           =        BIT7                                  #        PRIORITY DISPLAY        PRIORITY DISPLAY
000565:                                                                                                  #        INITIATED               INITIATED
000566:
000567:                                                                                                  #  BIT 6 FLAG 4  (S)
000568: 26,2022                        PINBRFLG           =        069D                                  #        ASTRONAUT HAS           ASTRONAUT HAS NOT
000569:                                                                                                  #        INTERFERED WITH         INTERFERED WITH
000570: 26,2022     4746               PINBRBIT           =        BIT6                                  #        EXISTING DISPLAY        EXISTING DISPLAY
000571:
000572:                                                                                                  #  BIT 5 FLAG 4  (S)
000573: 26,2022                        MRUPTFLG           =        070D                                  #        MARK DISPLAY            MARK DISPLAY NOT
000574:                                                                                                  #        INTERRUPTED BY          INTERRUPTED BY
000575: 26,2022     4747               MRUPTBIT           =        BIT5                                  #        PRIORITY DISPLAY        PRIORITY DISPLAY
000576:
000577:                                                                                                  #  BIT 4 FLAG 4  (S)
000578: 26,2022                        NRUPTFLG           =        071D                                  #        NORMAL DISPLAY          NORMAL DISPLAY NOT
000579:                                                                                                  #        INTERRUPTED BY          INTERRUPTED BY
000580: 26,2022     4750               NRUPTBIT           =        BIT4                                  #        PRIORITY OR MARK        PRIORITY OR MARK
000581:                                                                                                  #        DISPLAY                 DISPLAY
000582:
000583:                                                                                                  #  BIT 3 FLAG 4  (S)
000584: 26,2022                        MKOVFLAG           =        072D                                  #        MARK DISPLAY OVER       NO MARK DISPLAY OVER
000585: 26,2022     4751               MKOVBIT            =        BIT3                                  #        NORMAL                  NORMAL
000586:
000587:                                                                                                  #  BIT 2 FLAG 4
000588:                                                                                                  #                =       073D
000589:
000590:
000591:                                                                                                  #  BIT 1 FLAG 4  (S)
000592: 26,2022                        XDSPFLAG           =        074D                                  #        MARK DISPLAY NOT        NO SPECIAL MARK
000593: 26,2022     4753               XDSPBIT            =        BIT1                                  #        TO BE INTERRUPTED       INFORMATION
000594:
000595: 26,2022     0101               FLAGWRD5           =        STATE      +5                         #  (075-089)
000596:
000597:                                                                                                  #        (SET)                   (RESET)
000598:
000599:                                                                                                  #  BIT 15 FLAG 5 (S)
000600: 26,2022                        DSKYFLAG           =        075D                                  #        DISPLAYS SENT TO        NO DISPLAYS TO DSKY
000601: 26,2022     4735               DSKYFBIT           =        BIT15                                 #        DSKY
000602:
000603:                                                                                                  #  BIT 14 FLAG 5
000604:                                                                                                  #                =       076D
000605:                                                                                                  #                =       BIT14
000606:


000608:                                                                                                  #  BIT 13 FLAG 5 (S,L)
000609: 26,2022                        SNUFFER            =        077D                                  #        U,V JETS DISABLED       U,V JETS ENABLED
000610:                                                                                                  #        DURING DPS              DURING DPS
000611: 26,2022     4737               SNUFFBIT           =        BIT13                                 #        BURNS (V65)             BURNS (V75)
000612:
000613:                                                                                                  #  BIT 12 FLAG 5 (S)
000614: 26,2022                        NOTHROTL           =        078D                                  #        INHIBIT FULL            PERMIT FULL THROTTLE
000615: 26,2022     4740               NOTHRBIT           =        BIT12                                 #        THROTTLE
000616:
000617:                                                                                                  #  BIT 11 FLAG 5 (S,L)
000618: 26,2022                        R77FLAG            =        079D                                  #        R77 IS ON,              R77 IS NOT ON.
000619:                                                                                                  #        SUPPRESS ALL RADAR
000620:                                                                                                  #        ALARMS AND TRACKER
000621: 26,2022     4741               R77FLBIT           =        BIT11                                 #        FAILS
000622:
000623:                                                                                                  #  BIT 10 FLAG 5 (S)
000624: 26,2022                        RNGSCFLG           =        080D                                  #        SCALE CHANGE HAS        NO SCALE CHANGE HAS
000625:                                                                                                  #        OCCURRED DURING         OCCURRED DURING
000626: 26,2022     4742               RNGSCBIT           =        BIT10                                 #        RR READING              RR READING
000627:
000628:                                                                                                  #  BIT 9 FLAG 5  (S)
000629: 26,2022                        DMENFLG            =        081D                                  #        DIMENSION OF W IS 9     DIMENSION OF W IS 6
000630: 26,2022     4743               DMENFBIT           =        BIT9                                  #        FOR INCORPORATION       FOR INCORPORATION
000631:
000632:                                                                                                  #  BIT 8 FLAG 5  (S)
000633:                                                                                                  #                =       082D
000634:                                                                                                  #                =       BIT8
000635:
000636:                                                                                                  #  BIT 7 FLAG 5  (S)
000637: 26,2022                        ENGONFLG           =        083D                                  #        ENGINE TURNED ON        ENGINE TURNED OFF
000638: 26,2022     4745               ENGONBIT           =        BIT7                                  #
000639:
000640:                                                                                                  #  BIT 6 FLAG 5  (S)
000641: 26,2022                        3AXISFLG           =        084D                                  #        MANEUVER SPECIFIED      MANEUVER SPECIFIED
000642:                                                                                                  #        BY THREE AXES           BY ONE AXIS; R60
000643: 26,2022     4746               3AXISBIT           =        BIT6                                  #                                CALLS VECPOINT.
000644:
000645:                                                                                                  #  BIT 5 FLAG 5
000646:                                                                                                  #                =       085D
000647:
000648:                                                                                                  #  BIT 4 FLAG 5  (S)
000649:


000651: 26,2022                        NORRMON            =        086D                                  #        BYPASS RR GIMBAL        PERFORM
000652: 26,2022     4750               NORRMBIT           =        BIT4                                  #        MONITOR                 RR GIMBAL MONITOR
000653:
000654:                                                                                                  #  BIT 3 FLAG 5  (S)
000655: 26,2022                        SOLNSW             =        087D                                  #        LAMBERT DOES NOT        LAMBERT CONVERGES OR
000656:                                                                                                  #        CONVERGE, OR TIME-RAD   TIME-RADIUS NON
000657: 26,2022     4751               SOLNSBIT           =        BIT3                                  #        NEARLY CIRCULAR         CIRCULAR
000658:
000659:                                                                                                  #  BIT 2 FLAG 5  (S)
000660: 26,2022                        MGLVFLAG           =        088D                                  #        LOCAL VERTICAL          MIDDLE GIMBAL ANGLE
000661:                                                                                                  #        COORDINATES             COMPUTED
000662: 26,2022     4752               MGLVFBIT           =        BIT2                                  #        COMPUTED
000663:
000664:                                                                                                  #  BIT 1 FLAG 5  (S)
000665: 26,2022                        RENDWFLG           =        089D                                  #        W MATRIX VALID          W MATRIX INVALID
000666:                                                                                                  #        FOR RENDEZVOUS          FOR RENDEZVOUS
000667: 26,2022     4753               RENDWBIT           =        BIT1                                  #        NAVIGATION              NAVIGATION
000668:
000669:
000670: 26,2022     0102               FLAGWRD6           =        STATE      +6                         #  (090-104)
000671:
000672:                                                                                                  #        (SET)                   (RESET)
000673:
000674:                                                                                                  #  BIT 15 FLAG 6 (S)
000675: 26,2022                        S32.1F1            =        090D                                  #        DELTA V AT CSI TIME     DVT1 LESS THEN MAX
000676: 26,2022     4735               S32BIT1            =        BIT15                                 #        ONE EXCEEDS MAX
000677:
000678:                                                                                                  #  BIT 14 FLAG 6 (S)
000679: 26,2022                        S32.1F2            =        091D                                  #        FIRST PASS OF           REITERATION OF
000680: 26,2022     4736               S32BIT2            =        BIT14                                 #        NEWTON ITERATION        NEWTON
000681:
000682:                                                                                                  #  BIT 13 FLAG 6 (S)
000683: 26,2022                        S32.1F3A           =        092D                                  #  BIT 13 AND BIT 12 FUNCTION AS AN ORDERED
000684: 26,2022     4737               S32BIT3A           =        BIT13                                 #  PAIR (13,12) INDICATING THE POSSIBLE OC-
000685:                                                                                                  #  CURRANCE OF 2NEWTON ITERATIONS FOR S32.1
000686:                                                                                                  #  IN THE PROGRAM IN THE FOLLOWING ORDER:
000687:                                                                                                  #  BIT 12 FLAG 6                                   (0,1) (I.E. BIT 13 RESET, BIT 12 SET)
000688: 26,2022                        S32.1F3B           =        093D                                  #       = FIRST NEWTON ITERATION BEING DONE
000689: 26,2022     4740               S32BIT3B           =        BIT12                                 #  (0,0)= FIRST PASS OF SECOND NEWT.ITERAT.
000690:                                                                                                  #  (1,1)= 50 FT/SEC STAGE OF SEC. NEWT.ITER
000691:                                                                                                  #  (1,0)= REMAINDER OF SECOND NEWTON ITERA.
000692:                                                                                                  #  BIT 11 FLAG 6 (S)
000693:


000695:                                                                                                  #  BIT 10 FLAG 6 (S)
000696: 26,2022                        GMBDRVSW           =        095D                                  #        TRIMGIMB OVER           TRIMGIMB NOT OVER
000697: 26,2022     4742               GMBDRBIT           =        BIT10                                 #
000698:
000699:                                                                                                  #  BIT 9 FLAG 6
000700:                                                                                                  #                =       096D
000701:                                                                                                  #                =       BIT9
000702:
000703:                                                                                                  #  BIT 8 FLAG 6  (S)
000704: 26,2022                        MUNFLAG            =        097D                                  #        SERVICER CALLS          SERVICER CALLS
000705: 26,2022     4744               MUNFLBIT           =        BIT8                                  #        MUNRVG                  CALCRVG
000706:
000707:                                                                                                  #  BIT 7 FLAG 6  (L)
000708:
000709:
000710:                                                                                                  #  BIT 6 FLAG 6  (L)
000711: 26,2022                        REDFLAG            =        099D                                  #        LANDING SITE            LANDING SITE
000712:                                                                                                  #        REDESIGNATION           REDESIGNATION NOT
000713: 26,2022     4746               REDFLBIT           =        BIT6                                  #        PERMITTED               PERMITTED
000714:
000715:                                                                                                  #  BIT 5 FLAG 6
000716:                                                                                                  #                =       100D
000717:
000718:                                                                                                  #  BIT 4 FLAG 6
000719:                                                                                                  #                =       101D
000720:
000721:                                                                                                  #  BIT 3 FLAG 6  (S)
000722: 26,2022                        NTARGFLG           =        102D                                  #        ASTRONAUT DID           ASTRONAUT DID NOT
000723:                                                                                                  #        OVERWRITE DELTA         OVERWRITE DELTA
000724: 26,2022     4751               NTARGBIT           =        BIT3                                  #        VELOCITY AT TPI         VELOCITY
000725:                                                                                                  #        OR TPM (P34,35)
000726:
000727:                                                                                                  #  BIT 2 FLAG 6
000728: 26,2022                        AUXFLAG            =        103D                                  #        PROVIDING IDLEFLAG      SERVICER WILL SKIP
000729: 26,2022     4752               AUXFLBIT           =        BIT2                                  #        IS NOT SET, SERV-       DVMON ON ITS NEXT
000730:                                                                                                  #        ICER WILL EXERCISE      PASS EVEN IF THE
000731:                                                                                                  #        DVMON ON ITS NEXT       IDLEFLAG IS NOT SET.
000732:                                                                                                  #        PASS.                   IT WILL THEN SET
000733:                                                                                                  #                                AUXFLAG.
000734:
000735:                                                                                                  #  BIT 1 FLAG 6  (L)
000736: 26,2022                        ATTFLAG            =        104D                                  #        LEM ATTITUDE EXISTS     NO LEM ATTITUDE
000737:                                                                                                  #        IN MOON-FIXED           AVAILABLE IN MOON-
000738:


000740: 26,2022     4753               ATTFLBIT           =        BIT1                                  #        COORDINATES             FIXED COORDINATES
000741:
000742: 26,2022     0103               FLAGWRD7           =        STATE      +7                         #  (105-119)
000743:
000744:                                                                                                  #        (SET)                   (RESET)
000745:
000746:                                                                                                  #  BIT 15 FLAG 7 (S)
000747: 26,2022                        ITSWICH            =        105D                                  #        P34;TPI TIME TO BE      TPI HAS BEEN
000748: 26,2022     4735               ITSWBIT            =        BIT15                                 #        COMPUTED                COMPUTED
000749:
000750:                                                                                                  #  BIT 14 FLAG 7 (S)
000751: 26,2022                        MANUFLAG           =        106D                                  #        ATTITUDE MANEUVER       NO ATTITUDE MANEUVER
000752:                                                                                                  #        GOING DURING RR         DURING RR SEARCH
000753: 26,2022     4736               MANUFBIT           =        BIT14                                 #        SEARCH
000754:
000755:                                                                                                  #  BIT 13 FLAG 7 (S)
000756: 26,2022                        IGNFLAG            =        107D                                  #        TIG HAS ARRIVED         TIG HAS NOT ARRIVED
000757: 26,2022     4737               IGNFLBIT           =        BIT13                                 #
000758:
000759:                                                                                                  #  BIT 12 FLAG 7 (S)
000760: 26,2022                        ASTNFLAG           =        108D                                  #        ASTRONAUT HAS           ASTRONAUT HAS NOT
000761: 26,2022     4740               ASTNBIT            =        BIT12                                 #        OKAYED IGNITION         OKAYED IGNITION
000762:
000763:                                                                                                  #  BIT 11 FLAG 7 (L)
000764: 26,2022                        SWANDISP           =        109D                                  #        LANDING ANALOG          LANDING ANALOG
000765: 26,2022     4741               SWANDBIT           =        BIT11                                 #        DISPLAYS ENABLED        DISPLAYS SUPPRESSED
000766:
000767:                                                                                                  #  BIT 10 FLAG 7 (S)
000768: 26,2022                        NORMSW             =        110D                                  #        UNIT NORMAL INPUT       LAMBERT COMPUTES ITS
000769: 26,2022     4742               NORMSBIT           =        BIT10                                 #        TO LAMBERT              OWN UNIT NORMAL
000770:
000771:                                                                                                  #  BIT 9 FLAG 7  (S)
000772: 26,2022                        RVSW               =        111D                                  #        DO NOT COMPUTE          COMPUTE FINAL STATE
000773:                                                                                                  #        FINAL STATE VECTOR      VECTOR IN TIME-THETA
000774: 26,2022     4743               RVSWBIT            =        BIT9                                  #        IN TIME-THETA
000775:
000776:                                                                                                  #  BIT 8 FLAG 7  (S)
000777: 26,2022                        V67FLAG            =        112D                                  #        ASTRONAUT OVERWRITE     ASTRONAUT DOES NOT
000778:                                                                                                  #        W-MATRIX INITIAL        OVERWRITE W-MATRIX
000779: 26,2022     4744               V67FLBIT           =        BIT8                                  #        VALUES                  INITIAL VALUES
000780:


000782:                                                                                                  #  BIT 7 FLAG 7  (S)
000783: 26,2022                        IDLEFLAG           =        113D                                  #        NO DV MONITOR           CONNECT DV MONITOR
000784: 26,2022     4745               IDLEFBIT           =        BIT7                                  #
000785:
000786:                                                                                                  #  BIT 6 FLAG 7  (S)
000787: 26,2022                        V37FLAG            =        114D                                  #        AVERAGEG (SERVICER)     AVERAGEG (SERVICER)
000788: 26,2022     4746               V37FLBIT           =        BIT6                                  #        RUNNING                 OFF
000789:
000790:                                                                                                  #  BIT 5 FLAG 7  (S)
000791: 26,2022                        AVEGFLAG           =        115D                                  #        AVERAGEG (SERVICER)     AVERAGEG (SERVICER)
000792: 26,2022     4747               AVEGFBIT           =        BIT5                                  #        DESIRED                 NOT DESIRED
000793:
000794:                                                                                                  #  BIT 4 FLAG 7  (S)
000795: 26,2022                        UPLOCKFL           =        116D                                  #        K-KBAR-K FAIL           NO K-KBAR-K FAIL
000796: 26,2022     4750               UPLOCBIT           =        BIT4                                  #
000797:
000798:                                                                                                  #  BIT 3 FLAG 7  (S)
000799: 26,2022                        VERIFLAG           =        117D                                  #  CHANGED WHEN V33E OCCURS AT END OF P27
000800: 26,2022     4751               VERIFBIT           =        BIT3                                  #
000801:
000802:                                                                                                  #  BIT 2 FLAG 7  (L,C)
000803: 26,2022                        V82EMFLG           =        118D                                  #        MOON VICINITY           EARTH VICINITY
000804: 26,2022     4752               V82EMBIT           =        BIT2                                  #
000805:
000806:                                                                                                  #  BIT 1 FLAG 7  (S)
000807: 26,2022                        TFFSW              =        119D                                  #        CALCULATE TPERIGEE      CALCULATE TFF
000808: 26,2022     4753               TFFSWBIT           =        BIT1                                  #
000809:
000810:
000811: 26,2022     0104               FLAGWRD8           =        STATE      +8D                        #  (120-134)
000812:
000813:                                                                                                  #        (SET)                   (RESET)
000814:
000815:                                                                                                  #  BIT 15 FLAG 8 (S)
000816: 26,2022                        RPQFLAG            =        120D                                  #        RPQ NOT COMPUTED        RPQ COMPUTED
000817:                                                                                                  #        (RPQ = VECTOR BE-
000818: 26,2022     4735               RPQFLBIT           =        BIT15                                 #        TWEEN SECONDARY BODY
000819:                                                                                                  #        AND PRIMARY BODY
000820:
000821:                                                                                                  #  BIT 14 FLAG 8
000822:                                                                                                  #                =       121D
000823:                                                                                                  #                =       BIT14
000824:


000826:                                                                                                  #  BIT 13 FLAG 8 (S)
000827: 26,2022                        NEWIFLG            =        122D                                  #        FIRST PASS THROUGH      SUCCEEDING ITERATION
000828: 26,2022     4737               NEWIBIT            =        BIT13                                 #        INTEGRATION             OF INTEGRATION
000829:
000830:                                                                                                  #  BIT 12 FLAG 8 *** PROTECTED FROM FRESH START ***
000831: 26,2022                        CMOONFLG           =        123D                                  #        PERMANENT CSM STATE     PERMANENT CSM STATE
000832: 26,2022     4740               CMOONBIT           =        BIT12                                 #        IN LUNAR SPHERE         IN EARTH SPHERE
000833:
000834:                                                                                                  #  BIT 11 FLAG 8 *** PROTECTED FROM FRESH START ***
000835: 26,2022                        LMOONFLG           =        124D                                  #        PERMANENT LM STATE      PERMANENT LM STATE
000836: 26,2022     4741               LMOONBIT           =        BIT11                                 #        IN LUNAR SPHERE         IN EARTH SPHERE
000837:
000838:                                                                                                  #  BIT 10 FLAG 8 (L)
000839: 26,2022                        FLUNDISP           =        125D                                  #        CURRENT GUIDANCE        CURRENT GUIDANCE
000840: 26,2022     4742               FLUNDBIT           =        BIT10                                 #        DISPLAYS INHIBITED      DISPLAYS PERMITTED
000841:
000842:                                                                                                  #  BIT 9 FLAG 8  (L)
000843: 26,2022                        P39/79SW           =        126D                                  #        P39/79 OPERATING        P38/P78 OPERATING
000844: 26,2022     4743               P39SWBIT           =        BIT9                                  #
000845:
000846:                                                                                                  #  BIT 8 FLAG 8  *** PROTECTED FROM FRESH START ***
000847: 26,2022                        SURFFLAG           =        127D                                  #        LM ON LUNAR SURFACE     LM NOT ON LUNAR
000848: 26,2022     4744               SURFFBIT           =        BIT8                                  #                                SURFACE
000849:
000850:                                                                                                  #  BIT 7 FLAG 8  (S)
000851: 26,2022                        INFINFLG           =        128D                                  #        NO CONIC SOLUTION       CONIC SOLUTION
000852:                                                                                                  #        (CLOSURE THROUGH        EXISTS
000853: 26,2022     4745               INFINBIT           =        BIT7                                  #        INFINITY REQUIRED)
000854:
000855:                                                                                                  #  BIT 6 FLAG 8  (S)
000856: 26,2022                        ORDERSW            =        129D                                  #        ITERATOR USES 2ND       ITERATOR USES 1ST
000857: 26,2022     4746               ORDERBIT           =        BIT6                                  #        ORDER MINIMUM MODE      ORDER STANDARD MODE
000858:
000859:                                                                                                  #  BIT 5 FLAG 8  (S)
000860: 26,2022                        APSESW             =        130D                                  #        RDESIRED OUTSIDE        RDESIRED INSIDE
000861:                                                                                                  #        PERICENTER-APOCENTER    PERICENTER-APOCENTER
000862: 26,2022     4747               APSESBIT           =        BIT5                                  #        RANGE IN TIME-RADI      RANGE IN TIME-RADIUS
000863:
000864:                                                                                                  #  BIT 4 FLAG 8  (S)
000865: 26,2022                        COGAFLAG           =        131D                                  #        NO CONIC SOLUTION -     CONIC SOLUTION
000866:                                                                                                  #        TOO CLOSE TO RECTI-     EXISTS(COGA DOES NOT
000867:


000869: 26,2022     4750               COGAFBIT           =        BIT4                                  #        LINEAR (COGA OVRFLWS)   OVERFLOW)
000870:
000871:                                                                                                  #  BIT 3 FLAG 8
000872:                                                                                                  #                =       132D
000873:
000874:                                                                                                  #  BIT 2 FLAG 8  (L)
000875: 26,2022                        INITALGN           =        133D                                  #        INITIAL PASS THRU       SECOND PASS THRU P57
000876: 26,2022     4752               INITABIT           =        BIT2                                  #        P57                     (CHECK RESET-MILLARD)
000877:
000878:                                                                                                  #  BIT 1 FLAG 8  (S)
000879: 26,2022                        360SW              =        134D                                  #        TRANSFER ANGLE NEAR     TRANSFER ANGLE NOT
000880: 26,2022     4753               360SWBIT           =        BIT1                                  #        360 DEGREES             NEAR 360 DEGREES
000881:
000882:
000883: 26,2022     0105               FLAGWRD9           =        STATE      +9D                        #  (135-149)
000884:
000885:                                                                                                  #        (SET)                   (RESET)
000886:
000887:                                                                                                  #  BIT 15 FLAG 9
000888:                                                                                                  #                =       135D
000889:                                                                                                  #                =       BIT15
000890:
000891:                                                                                                  #  BIT 14 FLAG 9 (L)
000892: 26,2022                        FLVR               =        136D                                  #        VERTICAL RISE           NON-VERTICAL RISE
000893: 26,2022     4736               FLVRBIT            =        BIT14                                 #        (ASCENT GUIDANCE)
000894:
000895:                                                                                                  #  BIT 13 FLAG 9
000896:                                                                                                  #                =       137D
000897:
000898:                                                                                                  #  BIT 12 FLAG 9 (L)
000899: 26,2022                        FLPC               =        138D                                  #        NO POSITION CONTROL     POSITION CONTROL
000900: 26,2022     4740               FLPCBIT            =        BIT12                                 #        (ASCENT GUIDANCE)
000901:
000902:                                                                                                  #  BIT 11 FLAG 9 (L)
000903: 26,2022                        FLPI               =        139D                                  #        PRE-IGNITION PHASE      REGULAR GUIDANCE
000904: 26,2022     4741               FLPIBIT            =        BIT11                                 #        (ASCENT GUIDANCE)
000905:
000906:                                                                                                  #  BIT 10 FLAG 9 (L)
000907: 26,2022                        FLRCS              =        140D                                  #        RCS INJECTION MODE      MAIN ENGINE MODE
000908: 26,2022     4742               FLRCSBIT           =        BIT10                                 #        (ASCENT GUIDANCE)
000909:
000910:                                                                                                  #  BIT 9 FLAG 9  (L)
000911:


000913: 26,2022                        LETABORT           =        141D                                  #        ABORT PROGRAMS          ABORT PROGRAMS
000914: 26,2022     4743               LETABBIT           =        BIT9                                  #        ARE ENABLED             ARE NOT ENABLED
000915:
000916:                                                                                                  #  BIT 8 FLAG 9  (L)
000917: 26,2022                        FLAP               =        142D                                  #        APS CONTINUED ABORT     APS ABORT IS NOT A
000918:                                                                                                  #        AFTER DPS STAGING       CONTINUATION
000919: 26,2022     4744               FLAPBIT            =        BIT8                                  #        (ASCENT GUIDANCE)
000920:
000921:                                                                                                  #  BIT 7 FLAG 9  (L)
000922:                                                                                                  #                =       143D
000923:
000924:
000925:                                                                                                  #  BIT 6 FLAG 9  (L)
000926: 26,2022                        ROTFLAG            =        144D                                  #        P70 AND P71 WILL        P70 AND P71 WILL NOT
000927: 26,2022     4746               ROTFLBIT           =        BIT6                                  #        FORCE VEHICLE           FORCE VEHICLE
000928:                                                                                                  #        ROTATION IN THE         ROTATION IN THE
000929:                                                                                                  #        PREFERRED DIRECTION.    PREFERRED DIRECTION
000930:
000931:                                                                                                  #  BIT 5 FLAG 9  (S)
000932: 26,2022                        QUITFLAG           =        145D                                  #        DISCONTINUE INTEGR.     CONTINUE INTEGRATION
000933: 26,2022     4747               QUITBIT            =        BIT5                                  #
000934:
000935:                                                                                                  #  BIT 4 FLAG 9
000936:                                                                                                  #                =       146D
000937:                                                                                                  #                =       BIT4
000938:
000939:                                                                                                  #  BIT 3 FLAG 9  (L)
000940: 26,2022                        MID1FLAG           =        147D                                  #        INTEGRATE TO TDEC       INTEGRATE TO THE
000941: 26,2022     4751               MID1FBIT           =        BIT3                                  #                                THEN-PRESENT TIME
000942:
000943:                                                                                                  #  BIT 2 FLAG 9  (L)
000944: 26,2022                        MIDAVFLG           =        148D                                  #        INTEGRATION ENTERED     INTEGRATION WAS
000945:                                                                                                  #        FROM ONE OF MIDTOAV     NOT ENTERED VIA
000946: 26,2022     4752               MIDAVBIT           =        BIT2                                  #        PORTALS                 MIDTOAV
000947:
000948:                                                                                                  #  BIT 1 FLAG 9  (S)
000949: 26,2022                        AVEMIDSW           =        149D                                  #        AVETOMID CALLING        NO AVETOMID W INTEGR
000950:                                                                                                  #        FOR W.MATRIX INTEGR     ALLOW SET UP RM,VN.
000951: 26,2022     4753               AVEMDBIT           =        BIT1                                  #        DONT WRITE OVER RN,     PIPTIME
000952:                                                                                                  #        VN,PIPTIME
000953:
000954:
000955: 26,2022     0106               RASFLAG            EQUALS   FLGWRD10                              #  WAS ONLY AN INSTALL-ERASTALL FLAG
000956:


000958: 26,2022     0106               FLGWRD10           =        STATE      +10D                       #  (150-164)
000959:
000960:                                                                                                  #        (SET)                   (RESET)
000961:
000962:                                                                                                  #  BIT 15 FLAG 10
000963:                                                                                                  #                =       150D
000964:
000965:                                                                                                  #  BIT 14 FLAG 10 (L,C)
000966: 26,2022                        INTFLAG            =        151D                                  #        INTEGRATION IN          INTEGRATION NOT IN
000967: 26,2022     4736               INTFLBIT           =        BIT14                                 #        PROGRESS                PROGRESS
000968:
000969:                                                                                                  #  BIT 13 FLAG 10 (S,L)
000970: 26,2022                        APSFLAG            =        152D                                  #        ASCENT STAGE            DESCENT STAGE
000971: 26,2022     4737               APSFLBIT           =        BIT13                                 #         *** PROTECTED FROM FRESH START ***
000972:
000973:                                                                                                  #  BIT 12 FLAG 10
000974:                                                                                                  #                =       153D
000975:
000976:                                                                                                  #  BIT 11 FLAG 10
000977:                                                                                                  #                =       154D
000978:
000979:                                                                                                  #  BIT 10 FLAG 10
000980:                                                                                                  #                =       155D
000981:
000982:                                                                                                  #  BIT 9 FLAG 10
000983:                                                                                                  #                =       156D
000984:
000985:                                                                                                  #  BIT 8 FLAG 10
000986:                                                                                                  #                =       157D
000987:
000988:                                                                                                  #  BIT 7 FLAG 10 (L,C)
000989: 26,2022                        REINTFLG           =        158D                                  #        INTEGRATION ROUTINE     INTEGRATION ROUTINE
000990: 26,2022     4745               REINTBIT           =        BIT7                                  #        TO BE RESTARTED         NOT TO BE RESTARTED
000991:
000992:                                                                                                  #  BIT 6 FLAG 10
000993:                                                                                                  #                =       159D
000994:
000995:                                                                                                  #  BIT 5 FLAG 10
000996:                                                                                                  #                =       160D
000997:


000999:                                                                                                  #  BIT 4 FLAG 10
001000:                                                                                                  #                =       161D
001001:
001002:                                                                                                  #  BIT 3 FLAG 10
001003:                                                                                                  #                =       162D
001004:
001005:                                                                                                  #  BIT 2 FLAG 10
001006:                                                                                                  #                =       163D
001007:
001008:                                                                                                  #  BIT 1 FLAG 10
001009:                                                                                                  #                =       164D
001010:
001011:
001012:
001013: 26,2022     0107               FLGWRD11           =        STATE      +11D                       #  (165-179)
001014:
001015:                                                                                                  #        (SET)                   (RESET)
001016:
001017:                                                                                                  #  BIT 15 FLAG 11 (L)(R12)
001018: 26,2022                        LRBYPASS           =        165D                                  #        BYPASS ALL LANDING      DO NOT BYPASS LR
001019: 26,2022     4735               LRBYBIT            =        BIT15                                 #        RADAR UPDATES           UPDATES
001020:
001021:                                                                                                  #  BIT 14 FLAG 11
001022:                                                                                                  #                =       166D
001023:                                                                                                  #                =       BIT14
001024:
001025:                                                                                                  #                =       BIT 13 FLAG 11
001026:                                                                                                  #                =       167D
001027:                                                                                                  #                =       BIT13
001028:
001029:                                                                                                  #  BIT 12 FLAG 11 (L)(R12)
001030: 26,2022                        VXINH              =        168D                                  #        IF Z VELOCITY DATA      UPDATE X AXIS
001031:                                                                                                  #        UNREASONABLE,           VELOCITY
001032: 26,2022     4740               VXINHBIT           =        BIT12                                 #        BYPASS X VELOCITY
001033:                                                                                                  #        UPDATE ON NEXT PASS
001034:
001035:                                                                                                  #  BIT 11 FLAG 11 (L)(R12)
001036: 26,2022                        PSTHIGAT           =        169D                                  #        PAST HIGATE             PREHIGATE
001037: 26,2022     4741               PSTHIBIT           =        BIT11                                 #
001038:
001039:                                                                                                  #  BIT 10 FLAG 11 (L)(R12)
001040:


001042: 26,2022                        NOLRREAD           =        170D                                  #        LANDING RADAR           LR NOT REPOSITIONING
001043:                                                                                                  #        REPOSITIONING;
001044: 26,2022     4742               NOLRRBIT           =        BIT10                                 #        BYPASS UPDATE
001045:
001046:                                                                                                  #  BIT 9 FLAG 11 (L)(R12)
001047: 26,2022                        XORFLG             =        171D                                  #        BELOW LIMIT             ABOVE LIMIT DO
001048:                                                                                                  #        INHIBIT X AXIS          NOT INHIBIT
001049: 26,2022     4743               XORFLBIT           =        BIT9                                  #        OVERRIDE
001050:
001051:                                                                                                  #  BIT 8 FLAG 11
001052: 26,2022                        LRINH              =        172D                                  #        LANDING RADAR UP-       LR UPDATES INHIBITED
001053: 26,2022     4744               LRINHBIT           =        BIT8                                  #        DATES PERMITTED         BY ASTRONAUT
001054:                                                                                                  #        BY ASTRONAUT
001055:
001056:                                                                                                  #  BIT 7 FLAG 11 (L)(R12)
001057: 26,2022                        VELDATA            =        173D                                  #        LR VELOCITY             LR VELOCITY MEASURE
001058: 26,2022     4745               VELDABIT           =        BIT7                                  #        MEASUREMENT MADE        NOT MADE
001059:
001060:                                                                                                  #  BIT 6 FLAG 11 (L)(R12)
001061: 26,2022                        READLR             =        174D                                  #        OK TO READ LR           DO NOT READ LR RANGE
001062: 26,2022     4746               READLBIT           =        BIT6                                  #        RANGE DATA              DATA
001063:
001064:                                                                                                  #  BIT 5 FLAG 11 (L)(R12)
001065: 26,2022                        READVEL            =        175D                                  #        OK TO READ LR           DO NOT READ LR
001066: 26,2022     4747               READVBIT           =        BIT5                                  #        VELOCITY DATA           VELOCITY DATA
001067:
001068:                                                                                                  #  BIT 4 FLAG 11 (L)(R12)
001069: 26,2022                        RNGEDATA           =        176D                                  #        LR ALTITUDE             LR ALTITUDE MEASURE
001070: 26,2022     4750               RNGEDBIT           =        BIT4                                  #        MEASUREMENT MADE        NOT MADE
001071:
001072:                                                                                                  #  BIT 3 FLAG 11
001073: 26,2022                        SCALBAD            =        177D                                  #        LR LOW SCALE DIS-       LR SCALE DISCRETE
001074: 26,2022     4751               SCABBIT            =        BIT3                                  #        CRETE NOT PRESENT       APPEARS OK
001075:                                                                                                  #        WHEN IT SHOULD BE
001076:
001077:                                                                                                  #  BIT 2 FLAG 11 (L)(R12)
001078: 26,2022                        VFLSHFLG           =        178D                                  #        LR VELOCITY FAIL        LR VEL FAIL LAMP
001079:                                                                                                  #        LAMP SHOULD BE          SHOULDN'T FLASH
001080: 26,2022     4752               VFLSHBIT           =        BIT2                                  #        FLASHING
001081:
001082:                                                                                                  #  BIT 1 FLAG 11 (L)(R12)


001084: 26,2022                        HFLSHFLG           =        179D                                  #        LR ALTITUDE FAIL        LR ALTITUDE FAIL
001085: 26,2022     4753               HFLSHBIT           =        BIT1                                  #        LAMP SHOULD BE          LAMP SHOULD NOT BE
001086:                                                                                                  #        FLASHING                FLASHING
001087:
001088: 26,2022     0110               RADMODES           EQUALS   FLGWRD12                              #  RADAR FLAG WORD
001089:
001090: 26,2022     0110               FLGWRD12           =        STATE      +12D                       #  (180-194)             WAS RADMODES
001091:
001092:                                                                                                  #        (SET)                   (RESET)
001093:
001094:                                                                                                  #  BIT 15 FLAG 12
001095: 26,2022                        CDESFLAG           =        180D                                  #        CONTINUOUS DESIG-       LGC CHECKS FOR LOCK-
001096: 26,2022     4735               CDESBIT            =        BIT15                                 #        NATE. LGC COMMANDS      ON WHEN ANTENNA
001097:                                                                                                  #        RR REGARDLESS OF        BEING DESIGNATED
001098:                                                                                                  #        LOCK-ON
001099:
001100:                                                                                                  #  BIT 14 FLAG 12
001101: 26,2022                        REMODFLG           =        181D                                  #        CHANGE IN ANTENNA       NO REMODE REQUESTED
001102: 26,2022     4736               REMODBIT           =        BIT14                                 #        MODE BEEN REQUESTED     OR OCCURRING
001103:                                                                                                  #        I.E., REMODE
001104:
001105:                                                                                                  #  BIT 13 FLAG 12
001106: 26,2022                        RCDU0FLG           =        182D                                  #        RR CDU'S BEING          RR CDU'S NOT BEING
001107: 26,2022     4737               RCDU0BIT           =        BIT13                                 #        ZEROED                  ZEROED
001108:
001109:                                                                                                  #  BIT 12 FLAG 12
001110: 26,2022                        ANTENFLG           =        183D                                  #        RR ANTENNA MODE IS      RR ANTENNA IN MODE 1
001111: 26,2022     4740               ANTENBIT           =        BIT12                                 #        MODE 2
001112:
001113:                                                                                                  #  BIT 11 FLAG 12
001114: 26,2022                        REPOSMON           =        184D                                  #        REPOSITION MONITOR.     NO REPOSITION TAKING
001115: 26,2022     4741               REPOSBIT           =        BIT11                                 #        RR REPOSITION IS        PLACE
001116:                                                                                                  #        TAKING PLACE
001117:
001118:                                                                                                  #  BIT 10 FLAG 12
001119: 26,2022                        DESIGFLG           =        185D                                  #        RR DESIGNATE            RR DESIGNATE NOT
001120: 26,2022     4742               DESIGBIT           =        BIT10                                 #        REQUESTED OR IN         REQUESTED OR IN
001121:                                                                                                  #        PROGRESS                PROGRESS
001122:
001123:                                                                                                  #  BIT 9 FLAG 12
001124: 26,2022                        ALTSCALE           =        186D                                  #        LR ALTITUDE READING     LR ALTITUDE READING
001125: 26,2022     4743               ALTSCBIT           =        BIT9                                  #        IS ON HIGH SCALE        IS ON LOW SCALE
001126:


001128:                                                                                                  #  BIT 8 FLAG 12
001129: 26,2022                        LRVELFLG           =        187D                                  #        LR VELOCITY DATA        NO LR VELOCITY DATA
001130: 26,2022     4744               LRVELBIT           =        BIT8                                  #        FAIL                    FAIL
001131:
001132:                                                                                                  #  BIT 7 FLAG 12
001133: 26,2022                        RCDUFAIL           =        188D                                  #        RR CDU FAIL HAS         RR CDU FAIL OCCURRED
001134: 26,2022     4745               RCDUFBIT           =        BIT7                                  #        NOT OCCURRED
001135:
001136:                                                                                                  #  BIT 6 FLAG 12
001137: 26,2022                        LRPOSFLG           =        189D                                  #        LANDING RADAR           LR POSITION 1
001138: 26,2022     4746               LRPOSBIT           =        BIT6                                  #        POSITION 2
001139:
001140:                                                                                                  #  BIT 5 FLAG 12
001141: 26,2022                        LRALTFLG           =        190D                                  #        LR ALTITUDE DATA        NO LR ALTITUDE DATA
001142: 26,2022     4747               LRALTBIT           =        BIT5                                  #        FAIL.  COULD NOT BE     FAIL
001143:                                                                                                  #        READ SUCCESSFULLY.
001144:
001145:                                                                                                  #  BIT 4 FLAG 12
001146: 26,2022                        RRDATAFL           =        191D                                  #        RR DATA FAIL.           NO RR DATA FAIL.
001147: 26,2022     4750               RRDATABT           =        BIT4                                  #        DATA COULD NOT BE
001148:                                                                                                  #        READ SUCCESSFULLY
001149:
001150:                                                                                                  #  BIT 3 FLAG 12
001151: 26,2022                        RRRSFLAG           =        192D                                  #        RR RANGE READING        RR RANGE READING ON
001152: 26,2022     4751               RRRSBIT            =        BIT3                                  #        ON THE HIGH SCALE       THE LOW SCALE
001153:
001154:                                                                                                  #  BIT 2 FLAG 12
001155: 26,2022                        AUTOMODE           =        193D                                  #        RR NOT IN AUTO MODE.    RR IN AUTO MODE
001156: 26,2022     4752               AUTOMBIT           =        BIT2                                  #        AUTO MODE DISCRETE
001157:                                                                                                  #        IS NOT PRESENT
001158:
001159:                                                                                                  #  BIT 1 FLAG 12
001160: 26,2022                        TURNONFL           =        194D                                  #        RR TURN-ON SEQUENCE     NO RR TURN-ON
001161: 26,2022     4753               TURNONBT           =        BIT1                                  #        IN PROGRESS.  (ZERO     SEQUENCE IN PROGRESS
001162:                                                                                                  #        CDU'S, FIX ANTENNA
001163:                                                                                                  #        MODE)
001164:
001165: 26,2022     0111               DAPBOOLS           EQUALS   FLGWRD13                              #  DIGITAL AUTOPILOT FLAGWORD
001166:


001168: 26,2022     0111               FLGWRD13           =        STATE      +13D                       #  (195-209)     WAS DAPBOOLS
001169:
001170:                                                                                                  #        (SET)                   (RESET)
001171:
001172:                                                                                                  #  BIT 15 FLAG 13
001173: 26,2022                        PULSEFLG           =        195D                                  #        MINIMUM IMPULSE         NOT IN MINIMUM
001174: 26,2022     4735               PULSES             =        BIT15                                 #        COMMAND MODE IN         IMPULSE COMMAND MODE
001175:                                                                                                  #        "ATT HOLD" (V76)        (V77)
001176:
001177:                                                                                                  #  BIT 14 FLAG 13
001178: 26,2022                        USEQRFLG           =        196D                                  #        GIMBAL UNUSABLE.        TRIM GIMBAL MAY BE
001179: 26,2022     4736               USEQRJTS           =        BIT14                                 #        USE JETS ONLY.          USED.
001180:
001181:                                                                                                  #  BIT 13 FLAG 13
001182: 26,2022                        CSMDKFLG           =        197D                                  #        CSM DOCKED.  USE        CSM NOT DOCKED TO LM
001183: 26,2022     4737               CSMDOCKD           =        BIT13                                 #        BACKUP DAP
001184:
001185:                                                                                                  #  BIT 12 FLAG 13
001186: 26,2022                        OURRCFLG           =        198D                                  #        CURRENT DAP PASS        CURRENT DAP PASS IS
001187: 26,2022     4740               OURRCBIT           =        BIT12                                 #        IS RATE COMMAND         NOT RATE COMMAND
001188:
001189:                                                                                                  #  BIT 11 FLAG 13
001190: 26,2022                        ACC4-2FL           =        199D                                  #        4 JET X-AXIS TRANS-     2 JET X-AXIS TRANS-
001191: 26,2022     4741               ACC4OR2X           =        BIT11                                 #        LATION REQUESTED        LATION REQUESTED
001192:
001193:                                                                                                  #  BIT 10 FLAG 13
001194: 26,2022                        AORBTFLG           =        200D                                  #        B SYSTEM FOR X-         A SYSTEM FOR X-
001195: 26,2022     4742               AORBTRAN           =        BIT10                                 #        TRANSLATION             TRANSLATION PREFER'D
001196:
001197:                                                                                                  #  BIT 9 FLAG 13
001198: 26,2022                        XOVINFLG           =        201D                                  #        X-AXIS OVERRIDE         X-AXIS OVERRIDE OKAY
001199: 26,2022     4743               XOVINHIB           =        BIT9                                  #        LOCKED OUT
001200:
001201:                                                                                                  #  BIT 8 FLAG 13
001202: 26,2022                        DRIFTDFL           =        202D                                  #        ASSUME 0 OFFSET         USE OFFSET ACCELERA-
001203: 26,2022     4744               DRIFTBIT           =        BIT8                                  #        DRIFTING FLIGHT.        TION ESTIMATE
001204:
001205:                                                                                                  #  BIT 7 FLAG 13
001206: 26,2022                        RHCSCFLG           =        203D                                  #        NORMAL RHC SCALING      FINE RHC SCALING
001207: 26,2022     4745               RHCSCALE           =        BIT7                                  #        REQUESTED               REQUESTED
001208:


001210:                                                                                                  #  BIT 6 FLAG 13
001211: 26,2022                        ULLAGFLG           =        204D                                  #        ULLAGE REQUEST BY       NO INTERNAL ULLAGE
001212: 26,2022     4746               ULLAGER            =        BIT6                                  #        MISSION PROGRAM         REQUEST
001213:
001214:                                                                                                  #  BIT 5 FLAG 13
001215: 26,2022                        AORBSFLG           =        205D                                  #        P-AXIS COUPLES 7.15     P-AXIS COUPLES 4.12
001216: 26,2022     4747               AORBSYST           =        BIT5                                  #        AND 8,16 PREFERRED      AND 3,11 PREFERRED
001217:
001218:                                                                                                  #  BIT 4 FLAG 13
001219: 26,2022                        DBSELFLG           =        206D                                  #        MAX DB SELECTED         MIN DB SELECTED BY
001220: 26,2022     4750               DBSELECT           =        BIT4                                  #        BY CREW (5 DEG)         CREW (0.3 DEG)
001221:
001222:                                                                                                  #  BIT 3 FLAG 13
001223: 26,2022                        ACCOKFLG           =        207D                                  #        CONTROL AUTHORITY       RESTART OR FRESH ST.
001224: 26,2022     4751               ACCSOKAY           =        BIT3                                  #        VALUES FROM 1/ACCS      SINCE LAST 1/ACCS;
001225:                                                                                                  #        USABLE                  OUTPUTS SUSPECT.
001226:
001227:                                                                                                  #  BIT 2 FLAG 13
001228: 26,2022                        AUTR2FLG           =        208D                                  #  THESE FLAGS ARE USED TOGETHER TO INDICAT
001229: 26,2022     4752               AUTRATE2           =        BIT2                                  #  ASTRONAUT-CHOSEN KALCMANU MANEUVER RATES
001230:                                                                                                  #  (0,0)=(BIT2,BIT1)=    0.2 DEG/SEC
001231:                                                                                                  #  (0,1)=                0.5 DEG/SEC
001232:                                                                                                  #  BIT 1 FLAG 13
001233: 26,2022                        AUTR1FLG           =        209D                                  #  (1,0)=                2.0 DEG/SEC
001234: 26,2022     4753               AUTRATE1           =        BIT1                                  #  (1,1)=               10.0 DEG/SEC
001235:


001238:

End of include-file FLAGWORD_ASSIGNMENTS.agc.  Parent file is MAIN.agc


