
Source Code


000002:                                                                                                  ## Copyright:   Public domain.
000003:                                                                                                  ## Filename:    GIMBAL_LOCK_AVOIDANCE.agc
000004:                                                                                                  ## Purpose:     A section of Luminary revision 98.
000005:                                                                                                  ##              It is part of the reconstructed source code for the a
000006:                                                                                                  ##              development version of the flight software for the Lunar
000007:                                                                                                  ##              Module's (LM) Apollo Guidance Computer (AGC) for Apollo 11.
000008:                                                                                                  ##              The code has been recreated from a copy of Luminary 99
000009:                                                                                                  ##              revision 001, using asterisks indicating changed lines in
000010:                                                                                                  ##              the listing and Luminary Memo #85, which lists changes between
000011:                                                                                                  ##              Luminary 98 and 99.
000012:                                                                                                  ## Reference:   p.  364
000013:                                                                                                  ## Assembler:   yaYUL
000014:                                                                                                  ## Contact:     Ron Burkey <info@sandroid.org>.
000015:                                                                                                  ## Website:     www.ibiblio.org/apollo/index.html
000016:                                                                                                  ## Mod history: 2019-07-28 MAS  Created from Luminary 99.
000017:


000019: 15,2050                                           BANK     15
000020:
000021: 22,2000                                           SETLOC   KALCMON1
000022: 22,2000                                           BANK
000023:
000024:                                                                                                  #  DETECTING GIMBAL LOCK
000025: 22,2744  22,2744               LOCSKIRT           EQUALS   NOGIMLOC
000026:
000027: 22,2744           77614        NOGIMLOC           SET
000028: 22,2745           01074                                    CALCMAN3
000029: 22,2746           70740        WCALC              LXC,1    DLOAD*
000030: 22,2747           01325                                    RATEINDX                              #  CHOOSE THE DESIRED MANEUVER RATE
000031: 22,2750           04772                                    ARATE,1                               #  FROM A LIST OF FOUR
000032: 22,2751           45002                           SR4      CALL                                  #  COMPUTE THE INCREMENTAL ROTATION MATRIX
000033: 22,2752           44527                                    DELCOMP                               #  DEL CORRESPONDING TO A 1 SEC ROTATION
000034:                                                                                                  #  ABOUT COF
000035: 22,2753           74343                           DLOAD*   VXSC
000036: 22,2754           04772                                    ARATE,1
000037: 22,2755           03271                                    COF
000038: 22,2756           17326                           STODL    BRATE                                 #  COMPONENT MANEUVER RATES 45 DEG/SEC
000039: 22,2757           03336                                    AM
000040: 22,2760           55605                           DMP      DDV*
000041: 22,2761           05002                                    ANGLTIME
000042: 22,2762           04772                                    ARATE,1
000043: 22,2763           77661                           SR
000044: 22,2764           20606                                    5
000045: 22,2765           03334                           STORE    TM                                    #  MANEUVER EXECUTION TIME SCALED AS T2
000046: 22,2766           77614                           SETGO
000047: 22,2767           01035                                    CALCMAN2                              #  0(OFF) = CONTINUE MANEUVER
000048: 22,2770           45010                                    NEWANGL    +1                         #  1(ON) = START MANEUVER
000049:
000050:                                                                                                  #  THE FOUR SELECTABLE FREE FALL MANEUVER RATES SELECTED BY
000051:                                                                                                  #  LOADING RATEINDX WITH 0, 2, 4, 6, RESPECTIVELY
000052:
000053: 22,2771           00221 24255  ARATE              2DEC     .0088888888                            #  = 0.2 DEG/SEC         $ 22.5 DEG/SEC
000054:
000055: 22,2773           00554 02660                     2DEC     .0222222222                            #  = 0.5 DEG/SEC         $ 22.5 DEG/SEC
000056:
000057: 22,2775           02660 13301                     2DEC     .0888888888                            #  = 2.0 DEG/SEC         $ 22.5 DEG/SEC
000058:
000059: 22,2777           16161 30707                     2DEC     .4444444444                            #  = 10.0 DEG/SEC        $ 22.5 DEG/SEC
000060:
000061: 22,3001           00003 04000  ANGLTIME           2DEC     .0001907349                            #  = 100B-19 FUDGE FACTOR TO CONVERT
000062:                                                                                                  #  MANEUVER ANGLE TO MANEUVER TIME
000063:
000064:

End of include-file GIMBAL_LOCK_AVOIDANCE.agc.  Parent file is MAIN.agc


