
Source Code


000002:                                                                                                  ## Copyright:   Public domain.
000003:                                                                                                  ## Filename:    GROUND_TRACKING_DETERMINATION_PROGRAM_-_P21.agc
000004:                                                                                                  ## Purpose:     A section of Luminary revision 98.
000005:                                                                                                  ##              It is part of the reconstructed source code for the a
000006:                                                                                                  ##              development version of the flight software for the Lunar
000007:                                                                                                  ##              Module's (LM) Apollo Guidance Computer (AGC) for Apollo 11.
000008:                                                                                                  ##              The code has been recreated from a copy of Luminary 99
000009:                                                                                                  ##              revision 001, using asterisks indicating changed lines in
000010:                                                                                                  ##              the listing and Luminary Memo #85, which lists changes between
000011:                                                                                                  ##              Luminary 98 and 99.
000012:                                                                                                  ## Reference:   pp. 654-657
000013:                                                                                                  ## Assembler:   yaYUL
000014:                                                                                                  ## Contact:     Ron Burkey <info@sandroid.org>.
000015:                                                                                                  ## Website:     www.ibiblio.org/apollo/index.html
000016:                                                                                                  ## Mod history: 2019-07-28 MAS  Created from Luminary 99.
000017:


000019:                                                                                                  #  GROUND TRACKING DETERMINATION PROGRAM P21
000020:                                                                                                  #  PROGRAM DESCRIPTION
000021:                                                                                                  #        MOD NO - 1
000022:                                                                                                  #        MOD BY - N. M. NEVILLE
000023:
000024:                                                                                                  #  FUNCTIONAL DECRIPTION -
000025:                                                                                                  #        TO PROVIDE THE ASTRONAUT DETAILS OF THE LM OR CSM GROUND TRACK WITHOUT
000026:                                                                                                  #        THE NEED FOR GROUND COMMUNICATION (REQUESTED BY DSKY).
000027:
000028:                                                                                                  #  CALLING SEQUENCE -
000029:                                                                                                  #        ASTRONAUT REQUEST THROUGH DSKY V37E21E
000030:
000031:                                                                                                  #  SUBROUTINES CALLED -
000032:                                                                                                  #        GOPERF4
000033:                                                                                                  #        GOFLASH
000034:                                                                                                  #        THISPREC
000035:                                                                                                  #        OTHPREC
000036:                                                                                                  #        LAT-LONG
000037:
000038:                                                                                                  #  NORMAL EXIT MODES -
000039:                                                                                                  #        ASTRONAUT REQUEST TROUGH DSKY TO TERMINATE PROGRAM V34E
000040:
000041:                                                                                                  #  ALARM OR ABORT EXIT MODES -
000042:                                                                                                  #        NONE
000043:
000044:                                                                                                  #  OUTPUT -
000045:                                                                                                  #        OCTAL DISPLAY OF OPTION CODE AND VEHICLE WHOSE GROUND TRACK IS TO BE
000046:                                                                                                  #        COMPUTED
000047:                                                                                                  #                OPTION CODE     00002
000048:                                                                                                  #                THIS            00001
000049:                                                                                                  #                OTHER           00002
000050:                                                                                                  #        DECIMAL DISPLAY OF TIME TO BE INTEGRATED TO HOURS, MINUTES, SECONDS
000051:                                                                                                  #        DECIMAL DISPLAY OF LAT,LONG,ALT
000052:
000053:                                                                                                  #  ERASABLE INITIALIZATION REQUIRED
000054:                                                                                                  #        AX0             2DEC    4.652459653 E-5 RADIANS         %68-69 CONSTANTS"
000055:                                                                                                  #        -AY0            2DEC    2.147535898 E-5 RADIANS
000056:                                                                                                  #        AZ0             2DEC    .7753206164     REVOLUTIONS
000057:                                                                                                  #        FOR LUNAR ORBITS 504LM VECTOR IS NEEDED
000058:                                                                                                  #        504LM           2DEC    -2.700340600 E-5 RADIANS
000059:                                                                                                  #        504LM _2        2DEC    -7.514128400 E-4 RADIANS
000060:                                                                                                  #        504LM _4        2DEC    _2.553198641 E-4 RADIANS
000061:
000062:                                                                                                  #        NONE
000063:
000064:                                                                                                  #  DEBRIS


000066:                                                                                                  #        CENTRALS - A,Q,L
000067:                                                                                                  #        OTHER - THOSE USED BY THE ABOVE LISTED SUBROUTINES
000068:                                                                                                  #        SEE LEMPREC, LAT-LONG
000069:
000070: 35,2545  30,2000                                  SBANK=   LOWSUPER                              #  FOR LOW 2CADR'S.
000071:
000072: 33,2200                                           BANK     33
000073: 24,2000                                           SETLOC   P20S
000074: 24,2000                                           BANK
000075:
000076: 24,3505  E7,1762                                  EBANK=   P21TIME
000077: 24,3505                                           COUNT*   $$/P21
000078: 24,3505           34753        PROG21             CAF      ONE
000079: 24,3506           55145                           TS       OPTION2                               #  ASSUMED VEHICLE IS LM, R2 = 00001
000080: 24,3507           34752                           CAF      BIT2                                  #  OPTION 2
000081: 24,3510           04616                           TC       BANKCALL
000082: 24,3511           20633                           CADR     GOPERF4
000083: 24,3512           06001                           TC       GOTOPOOH                              #  TERMINATE
000084: 24,3513           03515                           TC       +2                                    #  PROCEED VALUE OF ASSUMED VEHICLE OK
000085: 24,3514           03507                           TC       -5                                    #  R2 LOADED THROUGH DSKY
000086: 24,3515           33665        P21PROG1           CAF      V6N34                                 #  LOAD DESIRED TIME OF LAT-LONG.
000087: 24,3516           04616                           TC       BANKCALL
000088: 24,3517           20476                           CADR     GOFLASH
000089: 24,3520           06001                           TC       GOTOPOOH                              #  TERM
000090: 24,3521           03523                           TC       +2                                    #  PROCEED VALUES OK
000091: 24,3522           03515                           TC       -5                                    #  TIME LOADED THROUGH DSKY
000092: 24,3523           06037                           TC       INTPRET
000093: 24,3524           77745                           DLOAD
000094: 24,3525           01046                                    DSPTEM1
000095: 24,3526           34041                           STCALL   TDEC1                                 #  INTEGRATE TO TIME SPECIFIED IN TDEC
000096: 24,3527           27414                                    INTSTALL
000097: 24,3530           43014                           BON      CLEAR
000098: 24,3531           00304                                    P21FLAG
000099: 24,3532           51550                                    P21CONT                               #  ON --- RECYCLE USING BASE VECTOR
000100: 24,3533           01674                                    VINTFLAG                              #  OFF -- 1ST PASS CALL BASE VECTOR
000101: 24,3534           70535                           SLOAD    SR1
000102: 24,3535           01146                                    OPTION2
000103: 24,3536           43030                           BHIZ     SET
000104: 24,3537           51541                                    +2                                    #  ZERO -- THIS VEHICLE (LM)
000105: 24,3540           01474                                    VINTFLAG                              #  ONE -- OTHER VEHICLE (CM)
000106: 24,3541           43014                           CLEAR    CLEAR
000107: 24,3542           01676                                    DIM0FLAG
000108: 24,3543           01673                                    INTYPFLG                              #  PRECISION
000109: 24,3544           77624                           CALL
000110: 24,3545           27134                                    INTEGRV                               #  CALCULATE
000111: 24,3546           77650                           GOTO                                           #  -AND
000112: 24,3547           51571                                    P21VSAVE                              #  -SAVE BASE VECTOR
000113: 24,3550           77775        P21CONT            VLOAD
000114: 24,3551           03676                                    P21BASER                              #  RECYCLE -- INTEG FROM BASE VECTOR
000115: 24,3552           25535                           STOVL    RCV                                   #  --POS


000117: 24,3553           03704                                    P21BASEV
000118: 24,3554           15543                           STODL    VCV                                   #  --VEL
000119: 24,3555           03763                                    P21TIME
000120: 24,3556           01517                           STORE    TET                                   #  --TIME
000121: 24,3557           43014                           CLEAR    CLEAR
000122: 24,3560           01676                                    DIM0FLAG
000123: 24,3561           00263                                    MOONFLAG
000124: 24,3562           53135                           SLOAD    BZE
000125: 24,3563           01164                                    P21ORIG
000126: 24,3564           51567                                    +3                                    #  ZERO = EARTH
000127: 24,3565           77614                           SET                                            #  ---2 = MOON
000128: 24,3566           00063                                    MOONFLAG
000129: 24,3567           77624                 +3        CALL
000130: 24,3570           27107                                    INTEGRVS
000131: 24,3571           77745        P21VSAVE           DLOAD                                          #  SAVE CURRENT BASE VECTOR
000132: 24,3572           00015                                    TAT
000133: 24,3573           27763                           STOVL    P21TIME                               #  --TIME
000134: 24,3574           00017                                    RATT1
000135: 24,3575           27676                           STOVL    P21BASER                              #  --POS B-29 OR B-27
000136: 24,3576           00025                                    VATT1
000137: 24,3577           03704                           STORE    P21BASEV                              #  --VEL B-07 OR B-05
000138: 24,3600           53646                           ABVAL    SL*
000139: 24,3601           57576                                    0,2
000140: 24,3602           27712                           STOVL    P21VEL                                #  VEL/ FOR N91 DISP
000141: 24,3603           00001                                    RATT
000142: 24,3604           50256                           UNIT     DOT
000143: 24,3605           00007                                    VATT                                  #  U(R).V
000144: 24,3606           67471                           DDV      ASIN                                  #  U(R).U(V)
000145: 24,3607           03712                                    P21VEL
000146: 24,3610           03714                           STORE    P21GAM                                #  SIN-1 U(R).U(V) , -90 TO &90
000147: 24,3611           67334                           SXA,2    SLOAD
000148: 24,3612           01163                                    P21ORIG                               #  0 = EARTH
000149: 24,3613           01146                                    OPTION2
000150: 24,3614           46142                           SR1      BHIZ
000151: 24,3615           51620                                    +3
000152: 24,3616           77650                           GOTO
000153: 24,3617           51623                                    +4
000154: 24,3620           77614                 +3        BON
000155: 24,3621           04307                                    SURFFLAG
000156: 24,3622           51625                                    P21DSP
000157: 24,3623           77614                 +4        SET
000158: 24,3624           00064                                    P21FLAG
000159: 24,3625           67214        P21DSP             CLEAR    SLOAD                                 #  GENERATE DISPLAY DATA
000160: 24,3626           01663                                    LUNAFLAG
000161: 24,3627           00050                                    X2
000162: 24,3630           43054                           BZE      SET
000163: 24,3631           51633                                    +2                                    #  0 = EARTH
000164: 24,3632           01463                                    LUNAFLAG
000165: 24,3633           77775                           VLOAD
000166: 24,3634           00001                                    RATT


000168: 24,3635           16032                           STODL    ALPHAV
000169: 24,3636           00015                                    TAT
000170: 24,3637           45014                           CLEAR    CALL
000171: 24,3640           00662                                    ERADFLAG
000172: 24,3641           26351                                    LAT-LONG
000173: 24,3642           77605                           DMP                                            #  MPAC = ALT, METERS B-29
000174: 24,3643           11667                                    K.01
000175: 24,3644           03716                           STORE    P21ALT                                #  ALT/100 FOR N91 DISP
000176: 24,3645           77776                           EXIT
000177: 24,3646           33664                           CAF      V06N43                                #  DISPLAY LAT, LONG, ALT
000178: 24,3647           04616                           TC       BANKCALL                              #  LAT, LONG = 1/2 REVS B0
000179: 24,3650           20476                           CADR     GOFLASH                               #  ALT = KM B14
000180: 24,3651           06001                           TC       GOTOPOOH                              #  TERM
000181: 24,3652           06001                           TC       GOTOPOOH
000182: 24,3653           06037                           TC       INTPRET                               #  V32E RECYCLE
000183: 24,3654           43345                           DLOAD    DAD
000184: 24,3655           03763                                    P21TIME
000185: 24,3656           11663                                    600SEC                                #  600 SECONDS OR 10 MIN
000186: 24,3657           01046                           STORE    DSPTEM1
000187: 24,3660           77634                           RTB
000188: 24,3661           51515                                    P21PROG1
000189: 24,3662           00003 25140  600SEC             2DEC     60000      B-28                       #  10 MIN
000190:
000191: 24,3664           01453        V06N43             VN       00643
000192: 24,3665           01442        V6N34              VN       00634
000193: 24,3666           00243 32703  K.01               2DEC     .01
000194:

End of include-file GROUND_TRACKING_DETERMINATION_PROGRAM_-_P21.agc.  Parent file is MAIN.agc


