
Source Code


000002:                                                                                                  ## Copyright:   Public domain.
000003:                                                                                                  ## Filename:    INTEGRATION_INITIALIZATION.agc
000004:                                                                                                  ## Purpose:     A section of Luminary revision 98.
000005:                                                                                                  ##              It is part of the reconstructed source code for the a
000006:                                                                                                  ##              development version of the flight software for the Lunar
000007:                                                                                                  ##              Module's (LM) Apollo Guidance Computer (AGC) for Apollo 11.
000008:                                                                                                  ##              The code has been recreated from a copy of Luminary 99
000009:                                                                                                  ##              revision 001, using asterisks indicating changed lines in
000010:                                                                                                  ##              the listing and Luminary Memo #85, which lists changes between
000011:                                                                                                  ##              Luminary 98 and 99.
000012:                                                                                                  ## Reference:   pp. 1205-1226
000013:                                                                                                  ## Assembler:   yaYUL
000014:                                                                                                  ## Contact:     Ron Burkey <info@sandroid.org>.
000015:                                                                                                  ## Website:     www.ibiblio.org/apollo/index.html
000016:                                                                                                  ## Mod history: 2019-07-28 MAS  Created from Luminary 99.
000017:


000019:                                                                                                  #  1.0 INTRODUCTION
000020:                                                                                                  #  ----------------
000021:
000022:                                                                                                  #  FROM A USERS POINT OF VIEW, ORBITAL INTEGRATION IS ESSENTIALLY THE SAME AS THE 278 INTEGRATION
000023:                                                                                                  #  PROGRAM.  THE SAME ENTRANCES TO THE PROGRAM WILL BE MAINTAINED, THE SAME STALLING ROUTINE WILL BE USED AND
000024:                                                                                                  #  OUTPUT WILL STILL BE VIA THE PUSHLIST.  THE PRIMARY DIFFERENCES TO A USER INVOLVE THE ADDED CAPABILITY OF
000025:                                                                                                  #  TERMINATING INTEGRATION AT A SPECIFIC FINAL RADIUS AND THE DIFFERENCE IN STATE VECTOR SCALING INSIDE AND OUT-
000026:                                                                                                  #  SIDE THE LUNAR SPHERE OF INFLUENCE.
000027:
000028:                                                                                                  #  IN ORDER TO MAKE THE CSM(LEM)PREC AND CSM(LEM)CONIC ENTRANCES SIMILAR TO FLIGHT 278, THE INTEGRATION PROGRAM
000029:                                                                                                  #  WILL ITSELF SET THE FINAL RADIUS (RFINAL) TO 0 SO THAT REACHING THE DESIRED TIME ONLY WILL TERMINATE
000030:                                                                                                  #  INTEGRATION.  THE DP REGISTER RFINAL MUST BE SET BY USERS OF INTEGRVS AND INTEGRV, AND MUST BE DONE AFTER THE
000031:                                                                                                  #  CALL TC INTSTALL.
000032:
000033:                                                                                                  #  WHEN THE LM IS ON THE LUNAR SURFACE (INDICATED BY LUNAR SURFACE FLAG SET) CALLS TO LEMCONIC, LEMPREC, AND
000034:                                                                                                  #  INTEGRV WITH VINFLAG = 0 WILL RESULT IN THE USE OF THE PLANETARY INERTIAL ORIENTATION SUBROUTINES TO PROVIDE
000035:                                                                                                  #  BOTH THE LMS POSITION AND VELOCITY IN THE REFERENCE COORDINATE SYSTEM.
000036:                                                                                                  #  THE PROGRAM WILL PROVIDE OUTPUT AS IF INTEGRATION WAS USED.  THAT IS, THE PUSHLIST WILL BE SET AS NOTED BELOW AND
000037:                                                                                                  #  THE PERMANENT STATE VECTOR UPDATED WHEN SPECIFIED BY AN INTEGRV CALL.
000038:
000039:                                                                                                  #  USERS OF INTEGRVS DESIRING INTEGRATION (INTYPFLG = 0) SHOULD NOTE THAT THE OBLATENESS PERTURBATION COMPUTATION
000040:                                                                                                  #  IN LUNAR ORBIT IS TIME DEPENDENT.  THEREFORE, THE USER SHOULD SUPPLY AN INITIAL STATE VECTOR VALID AT SOME REAL
000041:                                                                                                  #  TIME AND THE DESIRED TIME (TDEC1) ALSO AT SOME REAL TIME.  FOR CONIC ,,INTEGRATION,, THE USER MAY STILL USE ZERO
000042:                                                                                                  #  AS THE INITIAL TIME AND DELTA TIME AS THE DESIRED TIME.
000043:
000044:                                                                                                  #  2.0 GENERAL DESCRIPTION
000045:                                                                                                  #  -----------------------
000046:
000047:                                                                                                  #  THE INTEGRATION PROGRAM OPERATES AS A CLOSED INTERPRETIVE SUBROUTINE AND PERFORMS THESE FUNCTIONS ---
000048:                                                                                                  #        1) INTEGRATES (PRECISION OR CONIC) EITHER CSM OR LM STATE VECTOR
000049:                                                                                                  #        2) INTEGRATES THE W-MATRIX
000050:                                                                                                  #        3) PERMANENT OR TEMPORARY UPDATE OF THE STATE VECTOR
000051:
000052:                                                                                                  #  THERE ARE SIX ENTRANCES TO THE INTEGRATION PROGRAM.  FOUR OF THESE (CSMPREC, LEMPREC, CSMCONIC, LEMCONIC) SET
000053:                                                                                                  #  ALL THE FLAGS REQUIRED IN THE INTEGRATION PROGRAM ITSELF TO CAUSE THE PRECISION OR CONIC INTEGRATION (KEPLER) OF
000054:                                                                                                  #  THE LM OR CSM STATE VECTOR, AS THE NAMES SUGGEST.  ONE ENTRANCE (INTEGRVS) PERMITS THE CALLING PROGRAM TO
000055:                                                                                                  #  PROVIDE A STATE VECTOR TO BE INTEGRATED.  THE CALLING PROGRAM MUST SET THE FLAGS INDICATING (1) PRECISION OR
000056:                                                                                                  #  CONIC INTEGRATION, (2) IN OR OUT OF LUNAR SPHERE, (3) MIDCOURSE OR NOT, AND THE INTEGRATION PROGRAM COMPLETES
000057:                                                                                                  #  THE FLAG SETTING TO BYPASS W-MATRIX INTEGRATION.  THE LAST ENTRANCE (INTEGRV, USED IN GENERAL BY THE
000058:                                                                                                  #  NAVIGATION PROGRAMS) PERMITS THE CALLER TO SET FIVE FLAGS (NOT MOONFLAG OR MIDFLAG) BUT NOT TO INPUT A STATE
000059:                                                                                                  #  VECTOR.  ANY PROGRAM WHICH CALLS INTEGRVS OR INTEGRV MUST CALL INTSTALL BEFORE IT SETS THE INTEGRATION FLAGS
000060:                                                                                                  #  AND/OR STATE VECTOR.
000061:
000062:                                                                                                  #  THREE SETS OF 42 REGISTERS AND 2 FLAGS ARE USED FOR THE STATE VECTORS.  TWO SETS, WHICH MAY NOT BE OVERLAYED, ARE
000063:                                                                                                  #  USED FOR THE PERMANENT STATE VECTORS FOR THE CSM AND LM.  THE THIRD SET, WHICH MAY BE OVERLAYED WHEN INTEGRATION
000064:                                                                                                  #  IS NOT BEING DONE, IS USED IN THE COMPUTATIONS.
000065:
000066:                                                                                                  #  THE PERMANENT STATE VECTORS WILL BE PERIODICALLY UPDATED SO THAT THE VECTORS WILL NOT BE OLDER THAN 4 TIMESTEPS.
000067:                                                                                                  #  THE PERMANENT STATE VECTORS WILL ALSO BE UPDATED WHENEVER THE W-MATRIX IS INTEGRATED OR WHEN A CALLER OF INTEGRV
000068:                                                                                                  #  SETS STATEFLG (THE NAVIGATION PROGRAMS P20, P22.)
000069:


000071:                                                                                                  #  APPENDIX B OF THE USERS GUIDE LISTS THE STATE VECTOR QUANTITIES.
000072:
000073:                                                                                                  #  2.1 RESTARTS
000074:
000075:                                                                                                  #  PHASE CHANGES WILL BE MADE IN THE INTEGRATION PROGRAM ONLY FOR THE INTEGRV ENTRANCE (I.E., WHEN THE W-MATRIX IS
000076:                                                                                                  #  INTEGRATED OR PERMANENT STATE VECTOR IS UPDATED.)  THE GROUP NUMBER USED WILL BE THAT FOR THE P20-25 PROGRAMS
000077:                                                                                                  #  (I.E., GROUP2) SINCE THE INTEGRV ENTRANCE WILL ONLY BE USED BY THESE PROGRAMS.  IF A RESTART OCCURS DURING AN
000078:                                                                                                  #  INTEGRATION OF THE STATE VECTOR ONLY, THE RECOVERY WILL BE TO THE LAST PHASE IN THE CALLING PROGRAM.  CALLING
000079:                                                                                                  #  PROGRAMS WHICH USE THE INTEGRV OR INTEGRVS ENTRANCE OF INTEGRATION SHOULD ENSURE THAT IF PHASE CHANGING IS DONE
000080:                                                                                                  #  THAT IT IS PRIOR TO SETTING THE INTEGRATION INPUTS IN THE PUSHLIST.
000081:                                                                                                  #  THIS IS BECAUSE THE PUSHLIST IS LOST DURING A RESTART.
000082:
000083:                                                                                                  #  2.2 SCALING
000084:
000085:                                                                                                  #  THE INTEGRATION ROUTINE WILL MAINTAIN THE PERMANENT MEMORY STATE VECTORS IN THE SCALING AND UNITS DEFINED IN
000086:                                                                                                  #  APPENDIX B OF THE USERS GUIDE.  THE SCALING OF THE OUTPUT POSITION VECTOR DEPENDS ON THE ORIGIN OF THE COORDINATE
000087:                                                                                                  #  SYSTEM AT THE DESIRED INTEGRATION TIME.  THE COORDINATE SYSTEM TRANSFORMATION WILL BE DONE AUTOMATICALLY ON
000088:                                                                                                  #  MULTIPLE TIMESTEP ENCKE INTEGRATION ONLY.  THUS IT IS POSSIBLE TO HAVE OUTPUT FROM SUCCESSIVE INTEGRATIONS IN
000089:                                                                                                  #  DIFFERENT SCALING.
000090:                                                                                                  #  HOWEVER, RATT, VATT WILL ALWAYS BE SCALED THE SAME.
000091:
000092:                                                                                                  #  3.0 INPUT/OUTPUT
000093:                                                                                                  #  ----------------
000094:
000095:                                                                                                  #  PROGRAM INPUTS ARE THE FLAGS DESCRIBED IN APPENDIX A AND THE PERMANENT STATE VECTOR QUANTITIES DESCRIBED IN AP-
000096:                                                                                                  #  PENDIX B OF THE USERS GUIDE, PLUS THE DESIRED TIME TO INTEGRATE TO IN TDEC1 (A PUSH LIST LOCATION).
000097:                                                                                                  #  FOR INTEGRVS, THE RCV,VCV,TET OF THE TEMPORARY STATE VECTOR MUST BE SET, PLUS MOONFLAG AND MIDFLAG
000098:
000099:                                                                                                  #  FOR SIMULATION THE FOLLOWING QUANTITIES MUST BE PRESET ---
000100:                                                                                                  #                                                                                EARTH   MOON
000101:                                                                                                  #                                                                                 29      27
000102:                                                                                                  #        RRECTCSM(LEM)   -       RECTIFIED POSITION VECTOR       METERS          2       2
000103:
000104:                                                                                                  #                                                                                 7       5
000105:                                                                                                  #        VRECTCSM(LEM)   -       RECTIFIED VELOCITY VECTOR       M/CSEC          2       2
000106:
000107:                                                                                                  #                                                                                 28      28
000108:                                                                                                  #        TETCSM(LEM)     -       TIME STATE VECTOR IS VALID      CSEC            2       2
000109:                                                                                                  #                                CUSTOMARILY 0, BUT NOTE LUNAR
000110:                                                                                                  #                                ORBIT DEPENDENCE ON REAL TIME.
000111:
000112:                                                                                                  #                                                                                 22      18
000113:                                                                                                  #        DELTAVCSM(LEM)  -       POSITION DEVIATION              METERS          2       2
000114:                                                                                                  #                                0 IF TCCSM(LEM) = 0
000115:
000116:                                                                                                  #                                                                                 3       -1
000117:                                                                                                  #        NUVCSM(LEM)     -       VELOCITY DEVIATION              M/CSEC          2       2
000118:                                                                                                  #                                0 IF TCCSM(LEM) = 0


000120:                                                                                                  #                                                                                 29      27
000121:                                                                                                  #        RCVCSM(LEM)     -       CONIC POSITION                  METERS          2       2
000122:                                                                                                  #                                EQUALS RRECTCSM(LEM) IF
000123:                                                                                                  #                                TCCSM(LEM) = 0
000124:
000125:                                                                                                  #                                                                                 7       5
000126:                                                                                                  #        VCVCSM(LEM)     -       CONIC VELOCITY                  M/CSEC          2       2
000127:                                                                                                  #                                EQUALS VRECTCSM(LEM) IF
000128:                                                                                                  #                                TCCSM(LEM) = 0
000129:
000130:                                                                                                  #                                                                                 28      28
000131:                                                                                                  #        TCCSM(LEM)      -       TIME SINCE RECTIFICATION        CSECS           2       2
000132:                                                                                                  #                                CUSTOMARILY 0
000133:
000134:                                                                                                  #                                                                 1/2             17      16
000135:                                                                                                  #        XKEPCSM(LEM)    -       ROOT OF KEPLERS EQUATION        M               2       2
000136:                                                                                                  #                                0 IF TCCSM(LEM) = 0
000137:
000138:                                                                                                  #        CMOONFLG        -       PERMANENT FLAGS CORRESPONDING                   0       0
000139:                                                                                                  #        CMIDFLAG                TO MOONFLAG AND MIDFLAG                         0,1     0,1
000140:                                                                                                  #        LMOONFLG                C = CSM, L = LM                                 0       0
000141:                                                                                                  #        LMIDFLG                                                                 0,1     0,1
000142:
000143:                                                                                                  #        SURFFLAG        -       LUNAR SURFACE FLAG                              0,1     0,1
000144:
000145:                                                                                                  #  IN ADDITION, IF (L)CMIDFLAG IS SET, THE INITIAL INPUT VALUES FOR LUNAR
000146:                                                                                                  #  SOLAR EPHEMERIDES SUBROUTINE AND PLANETARY INERTIAL ORIENTATION SUB-
000147:                                                                                                  #  ROUTINE MUST BE PRESET.
000148:
000149:                                                                                                  #  OUTPUT
000150:                                                                                                  #        AFTER EVERY CALL TO INTEGRATION
000151:                                                                                                  #                                                                        EARTH   MOON
000152:                                                                                                  #                                                                         29      29
000153:                                                                                                  #        0D      RATT    POSITION                        METERS          2       2
000154:
000155:                                                                                                  #                                                                         7       7
000156:                                                                                                  #        6D      VATT    VELOCITY                        M/CSEC          2       2
000157:
000158:                                                                                                  #                                                                         28      28
000159:                                                                                                  #        12D     TAT     TIME                                            2       2
000160:
000161:                                                                                                  #                                                                         29      27
000162:                                                                                                  #        14D     RATT1   POSITION                        METERS          2       2
000163:
000164:                                                                                                  #                                                                         7       5
000165:                                                                                                  #        20D     VATT1   VELOCITY                        M/CSEC          2       2
000166:
000167:                                                                                                  #                                                         3   2           36      30
000168:                                                                                                  #        26D     MU(P)   MU                              M /CS           2       2
000169:
000170:                                                                                                  #        X1              MUTABLE ENTRY                                   -2      -10D
000171:
000172:                                                                                                  #        X2              COORDINT
000173:                                                                                                  #        X2              COORDINATE SYSTEM ORIGEN                        0       2
000174:                                                                                                  #                        (THIS, NOT MOONFLAG, SHOULD BE


000176:                                                                                                  #                        USED TO DETERMINE ORIGIN.)
000177:
000178:                                                                                                  #  IN ADDITION TO THE ABOVE, THE PERMANENT STATE VECTOR IS UPDATED WHENEVER
000179:                                                                                                  #  STATEFLG WAS SET AND WHENEVER A W-MATRIX IS TO BE INTEGRATED.  THE PUSH
000180:                                                                                                  #  COUNTER IS SET TO 0 AND OVERFLOW IS CLEARED BEFORE RETURNING TO THE
000181:                                                                                                  #  CALLING PROGRAM.
000182:
000183:                                                                                                  #  4.0 CALLING SEQUENCES AND SAMPLE CODE
000184:                                                                                                  #  -------------------------------------
000185:
000186:                                                                                                  #        A) PRECISION ORBITAL INTEGRATION.  CSMPREC, LEMPREC ENTRANCES
000187:                                                                                                  #                L-X     STORE TIME TO 95T5791T5 T 95 PUS L9ST (T4531)
000188:                                                                                                  #                L       CALL
000189:                                                                                                  #                L+1             CSMPREC (OR LEMPREC)
000190:                                                                                                  #                L+2     RETURN
000191:                                                                                                  #           INPUT                                                           28
000192:                                                                                                  #                TDEC1 (PD 32D) TIME TO INTEGRATE TO...CENTISECONDS SCALED 2
000193:                                                                                                  #           OUTPUT
000194:                                                                                                  #                THE DATA LISTED IN SECTION 3.0 PLUS
000195:                                                                                                  #                RQVV    POSITION VECTOR OF VEHICLE WITH RESPECT TO SECONDARY
000196:                                                                                                  #                BODY... METERS B-29 ONLY IF MIDFLAG = DIMOFLAG = 1
000197:                                                                                                  #        B) CONIC INTEGRATION.  CSMCONIC, LEMCONIC ENTRANCES
000198:                                                                                                  #                L-X     STORE TIME IN PUSH LIST (TDEC1)
000199:                                                                                                  #                L       CALL
000200:                                                                                                  #                L+1             CSMCONIC (OR LEMCONIC)
000201:                                                                                                  #           INPUT/OUTPUT
000202:                                                                                                  #                SAME AS PRECISION INTEGRATION, EXCEPT RQVV NOT SET
000203:                                                                                                  #        C) INTEGRATE GIVEN STATE VECTOR.  INTEGRVS ENTRANCE
000204:                                                                                                  #                CALL
000205:                                                                                                  #                                INTSTALL
000206:                                                                                                  #                VLOAD
000207:                                                                                                  #                                POSITION VECTOR
000208:                                                                                                  #                STOVL           RCV
000209:                                                                                                  #                                VELOCITY VECTOR
000210:                                                                                                  #                STODL           VCV
000211:                                                                                                  #                                TIME STATE VECTOR VALID
000212:                                                                                                  #                STODL           TET
000213:                                                                                                  #                                FINAL RADIUS
000214:                                                                                                  #                STORE           RFINAL
000215:                                                                                                  #                SET(CLEAR)      SET(CLEAR)
000216:                                                                                                  #                                INTYPFLAG
000217:                                                                                                  #                                MOONFLAG
000218:                                                                                                  #                SET(CLEAR)      DLOAD
000219:                                                                                                  #                                DESIRED TIME
000220:                                                                                                  #                STCALL          TDEC1
000221:                                                                                                  #                                INTEGRVS
000222:                                                                                                  #          INPUT
000223:                                                                                                  #                RCV     POSITION VECTOR                 METERS
000224:                                                                                                  #                VCV     VELOCITY VECTOR                 M/CSEC
000225:                                                                                                  #                TET     TIME OF STATE VECTOR (MAY = 0)  CSEC B-28


000227:                                                                                                  #                TDEC1   TIME TO INTEGRATE TO            CSEC B-28 (PD 32D)
000228:                                                                                                  #                        (MAY BE INCREMENT IF TET=0)
000229:                                                                                                  #          OUTPUT
000230:                                                                                                  #                SAME AS FOR PRECISION OR CONIC INTEGRATION,
000231:                                                                                                  #                DEPENDING ON INTYPFLG.
000232:                                                                                                  #        D) INTEGRATE STATE VECTOR.  INTGRV ENTRANCE
000233:                                                                                                  #                L-X     STORE TIME IN PUSH LIST (TDEC1) (MAY BE DONE AFTER CALL TO INTSTALL)
000234:                                                                                                  #                L-8     CALL
000235:                                                                                                  #                L-7
000236:                                                                                                  #                L-6     SET(CLEAR)      SET(CLEAR)
000237:                                                                                                  #                L-5                     VINTFLAG        1=CSM, 0=LM
000238:                                                                                                  #                L-4                     INTYPFLAG       1=CONIC, 0=PRECISION
000239:                                                                                                  #                L-3     SET(CLEAR)      SET(CLEAR)
000240:                                                                                                  #                L-2                     DIMOFLAG        1=W-MATRIX, 0=NO W-MATRIX
000241:                                                                                                  #                L-1                     D6OR9FLG        1=9X9, 0=6X6
000242:                                                                                                  #                L       SET             DLOAD
000243:                                                                                                  #                L+1                     STATEFLG        DESIRE PERMANENT UPDATE
000244:                                                                                                  #                L+2                     FINAL RAD.      OF STATE VECTOR
000245:                                                                                                  #                L+3     STCALL          RFINAL
000246:                                                                                                  #                L+4                     INTEGRV
000247:                                                                                                  #                L       CALL                            NORMAL USE -- WILL UPDATE STATE
000248:                                                                                                  #                L+1                     INTEGRV         VECTOR IF DIMOFLAG=1. (STATEFLG IS
000249:                                                                                                  #                L+2     RETURN                          ALWAYS RESET IN INTEGRATION AFTER
000250:                                                                                                  #                                                        IT IS USED.)
000251:                                                                                                  #          INPUT
000252:                                                                                                  #                TDEC1 (PD 32D) TIME TO INTEGRATE TO     CSEC B-28
000253:                                                                                                  #          OUTPUT
000254:                                                                                                  #                SAME AS FOR PRECISION OR CONIC INTEGRATION
000255:                                                                                                  #          THE PROGRAM WILL SET MOONFLAG, MIDFLAG DEPENDING ON
000256:                                                                                                  #          THE PERMANENT STATE VECTOR REPRESENTATION.
000257:
000258: 11,2376                                           BANK     11
000259: 13,2000                                           SETLOC   INTINIT
000260: 13,2000                                           BANK
000261: 13,2604  E3,1554                                  EBANK=   RRECTCSM
000262: 13,2604                                           COUNT*   $$/INTIN
000263: 13,2604           05353        STATEINT           TC       PHASCHNG
000264: 13,2605           00052                           OCT      00052
000265: 13,2606           35017                           CAF      PRIO5
000266: 13,2607           05105                           TC       FINDVAC
000267: 13,2610  E3,1554                                  EBANK=   RRECTCSM
000268: 13,2610           02613 26063                     2CADR    STATINT1
000269:
000270: 13,2612           05261                           TC       TASKOVER
000271: 13,2613           06037        STATINT1           TC       INTPRET
000272: 13,2614           47014                           BON      RTB
000273: 13,2615           04712                                    QUITFLAG                              #  KILL INTEGRATION UNTIL NEXT POO.
000274: 13,2616           26653                                    NOINT
000275: 13,2617           21573                                    LOADTIME
000276: 13,2620           00041                           STORE    TDEC1


000278: 13,2621           77624                           CALL
000279: 13,2622           27414                                    INTSTALL
000280: 13,2623           45014                           SET      CALL
000281: 13,2624           01076                                    NODOFLAG
000282: 13,2625           26644                                    SETIFLGS
000283: 13,2626           77650                           GOTO
000284: 13,2627           26026                                    STATEUP
000285: 13,2630           00003 25140  600SECS            2DEC     60000      B-28
000286:
000287: 13,2632           77414        ENDINT             CLEAR    EXIT
000288: 13,2633           01672                                    STATEFLG
000289: 13,2634           05353                           TC       PHASCHNG
000290: 13,2635           20032                           OCT      20032
000291: 13,2636           00006                           EXTEND
000292: 13,2637           32631                           DCA      600SECS
000293: 13,2640           05277                           TC       LONGCALL
000294: 13,2641  E3,1626                                  EBANK=   RRECTHIS
000295: 13,2641           02604 26063                     2CADR    STATEINT
000296:
000297: 13,2643           05155                           TC       ENDOFJOB
000298: 13,2644           43014        SETIFLGS           SET      CLEAR
000299: 13,2645           01472                                    STATEFLG
000300: 13,2646           01673                                    INTYPFLG
000301: 13,2647           43014                           CLEAR    CLEAR
000302: 13,2650           01676                                    DIM0FLAG
000303: 13,2651           01675                                    D6OR9FLG
000304: 13,2652           77616                           RVQ
000305: 13,2653           77776        NOINT              EXIT
000306: 13,2654           05353                           TC       PHASCHNG
000307: 13,2655           00002                           OCT      00002
000308:
000309: 13,2656           05516                           TC       DOWNFLAG
000310: 13,2657           00221                           ADRES    QUITFLAG
000311: 13,2660           05155                           TC       ENDOFJOB
000312:
000313:                                                                                                  #  ATOPCSM TRANSFERS RRECT TO RRECT +41 TO RRECTCSM TO RRECTCSM +41
000314:
000315:                                                                                                  #  CALLING SEQUENCE
000316:                                                                                                  #        L       CALL
000317:                                                                                                  #        L+1             ATOPCSM
000318:
000319:                                                                                                  #  NORMAL EXIT AT L+2
000320:
000321: 13,2661           47020        ATOPCSM            STQ      RTB
000322: 13,2662           00051                                    S2
000323: 13,2663           26674                                    MOVEACSM
000324: 13,2664           45014                           SET      CALL
000325: 13,2665           04063                                    CMOONFLG
000326: 13,2666           26114                                    SVDWN1
000327: 13,2667           43014                           BON      CLRGO


000329: 13,2670           00303                                    MOONFLAG
000330: 13,2671           00051                                    S2
000331: 13,2672           04223                                    CMOONFLG
000332: 13,2673           00051                                    S2
000333: 13,2674           03036        MOVEACSM           TC       SETBANK
000334: 13,2675           55500                           TS       DIFEQCNT                              #  INITIALIZE INDEX
000335: 13,2676           51500                           INDEX    DIFEQCNT
000336: 13,2677           31502                           CA       RRECT
000337: 13,2700           51500                           INDEX    DIFEQCNT
000338: 13,2701           55554                           TS       RRECTCSM
000339: 13,2702           11500                           CCS      DIFEQCNT                              #  IS TRANSFER COMPLETE
000340: 13,2703           12675                           TCF      MOVEACSM   +1                         #  NO-LOOP
000341: 13,2704           06061                           TC       DANZIG                                #  COMPLETE - RETURN
000342:
000343:                                                                                                  #  PTOACSM TRANSFERS RRECTCSM TO RRECTCSM +41 TO RRECT TO RRECT +41
000344:
000345:                                                                                                  #  CALLING SEQUENCE
000346:                                                                                                  #        L       CALL
000347:                                                                                                  #                        PTOACSM
000348:
000349:                                                                                                  #  NORMAL EXIT AT L+2
000350:
000351: 13,2705           43034        PTOACSM            RTB      BON
000352: 13,2706           26723                                    MOVEPCSM
000353: 13,2707           04303                                    CMOONFLG
000354: 13,2710           26716                                    SETMOON
000355: 13,2711           66214        CLRMOON            CLEAR    SSP
000356: 13,2712           00263                                    MOONFLAG
000357: 13,2713           02031                                    PBODY
000358: 13,2714           00000                                    0
000359: 13,2715           77616                           RVQ
000360: 13,2716           66214        SETMOON            SET      SSP
000361: 13,2717           00063                                    MOONFLAG
000362: 13,2720           02031                                    PBODY
000363: 13,2721           00002                                    2
000364: 13,2722           77616                           RVQ
000365: 13,2723           03036        MOVEPCSM           TC       SETBANK
000366: 13,2724           55500                           TS       DIFEQCNT
000367: 13,2725           51500                           INDEX    DIFEQCNT
000368: 13,2726           31554                           CA       RRECTCSM
000369: 13,2727           51500                           INDEX    DIFEQCNT
000370: 13,2730           55502                           TS       RRECT
000371: 13,2731           11500                           CCS      DIFEQCNT
000372: 13,2732           12724                           TCF      MOVEPCSM   +1
000373: 13,2733           06061                           TC       DANZIG
000374:
000375:                                                                                                  #  ATOPLEM TRANSFERS RRECT TO RRECT +41 TO RRECTLEM TO RRECTLEM +41
000376: 13,2734           47020        ATOPLEM            STQ      RTB


000378: 13,2735           00051                                    S2
000379: 13,2736           26747                                    MOVEALEM
000380: 13,2737           45014                           SET      CALL
000381: 13,2740           04064                                    LMOONFLG
000382: 13,2741           26070                                    SVDWN2
000383: 13,2742           43014                           BON      CLRGO
000384: 13,2743           00303                                    MOONFLAG
000385: 13,2744           00051                                    S2
000386: 13,2745           04224                                    LMOONFLG
000387: 13,2746           00051                                    S2
000388: 13,2747           03036        MOVEALEM           TC       SETBANK
000389: 13,2750           55500                           TS       DIFEQCNT
000390: 13,2751           51500                           INDEX    DIFEQCNT
000391: 13,2752           31502                           CA       RRECT
000392: 13,2753           51500                           INDEX    DIFEQCNT
000393: 13,2754           55626                           TS       RRECTLEM
000394: 13,2755           11500                           CCS      DIFEQCNT
000395: 13,2756           12750                           TCF      MOVEALEM   +1
000396: 13,2757           06061                           TC       DANZIG
000397:
000398:                                                                                                  #  PTOALEM TRANSFERS RRECTLEM TO RRECTLEM +41 TO RRECT TO RRECT +41
000399:
000400: 13,2760           47014        PTOALEM            BON      RTB
000401: 13,2761           04307                                    SURFFLAG
000402: 13,2762           27001                                    USEPIOS
000403: 13,2763           26770                                    MOVEPLEM
000404: 13,2764           52014                           BON      GOTO
000405: 13,2765           04304                                    LMOONFLG
000406: 13,2766           26716                                    SETMOON
000407: 13,2767           26711                                    CLRMOON
000408: 13,2770           03036        MOVEPLEM           TC       SETBANK
000409: 13,2771           55500                           TS       DIFEQCNT
000410: 13,2772           51500                           INDEX    DIFEQCNT
000411: 13,2773           31626                           CA       RRECTLEM
000412: 13,2774           51500                           INDEX    DIFEQCNT
000413: 13,2775           55502                           TS       RRECT
000414: 13,2776           11500                           CCS      DIFEQCNT
000415: 13,2777           12771                           TCF      MOVEPLEM   +1
000416: 13,3000           06061                           TC       DANZIG
000417:
000418: 13,3001           77201        USEPIOS            SETPD    VLOAD
000419: 13,3002           00001                                    0
000420: 13,3003           02023                                    RLS
000421: 13,3004           41525                           PDDL     PUSH
000422: 13,3005           00041                                    TDEC1
000423: 13,3006           15517                           STODL    TET
000424: 13,3007           27712                                    5/8
000425: 13,3010           77624                           CALL


000427: 13,3011           55716                                    RP-TO-R
000428: 13,3012           25535                           STOVL    RCV
000429: 13,3013           24001                                    ZUNIT
000430: 13,3014           14001                           STODL    0D
000431: 13,3015           01517                                    TET
000432: 13,3016           14007                           STODL    6D
000433: 13,3017           27712                                    5/8
000434: 13,3020           45014                           SET      CALL                                  #  NEEDED FOR SETTING X1 ON EXIT
000435: 13,3021           00063                                    MOONFLAG
000436: 13,3022           55716                                    RP-TO-R
000437: 13,3023           74235                           VXV      VXSC
000438: 13,3024           01535                                    RCV
000439: 13,3025           26001                                    OMEGMOON
000440: 13,3026           25543                           STOVL    VCV
000441: 13,3027           24007                                    ZEROVEC
000442: 13,3030           01521                           STORE    TDELTAV
000443: 13,3031           67174                           AXT,2    SXA,2
000444: 13,3032           00002                                    2
000445: 13,3033           02030                                    PBODY
000446: 13,3034           35527                           STCALL   TNUV
000447: 13,3035           27157                                    A-PCHK
000448: 13,3036           33042        SETBANK            CAF      INTBANK
000449: 13,3037           54006                           TS       BBANK
000450: 13,3040           33452                           CAF      FORTYONE
000451: 13,3041           00002                           TC       Q
000452: 13,3042  E3,1554                                  EBANK=   RRECTCSM
000453: 13,3042           26063        INTBANK            BBCON    INTEGRV
000454:
000455:                                                                                                  #  SPECIAL PURPOSE ENTRIES TO ORBITAL INTEGRATION.  THESE ROUTINES PROVIDE ENTRANCES TO INTEGRATION WITH
000456:                                                                                                  #  APPROPRIATE SWITCHES SET OR CLEARED FOR THE DESIRED INTEGRATION.
000457:
000458:                                                                                                  #  CSMPREC AND LEMPREC PERFORM ORBIT INTEGRATION BY THE ENCKE METHOD TO THE TIME INDICATED IN TDEC1
000459:                                                                                                  #  ACCELERATIONS DUE TO OBLATENESS ARE INCLUDED.  NO W-MATRIX INT. IS DONE.
000460:                                                                                                  #  THE PERMANENT STATE VECTOR IS NOT UPDATED.
000461:
000462:                                                                                                  #  CSMCONIC AND LEMCONIC PERFORM ORBIT INTEG. BY KEPLERS METHOD TO THE TIME INDICATED IN TDEC1
000463:                                                                                                  #  NO DISTURBING ACCELERATIONS ARE INCLUDED.  IN THE PROGRAM FLOW THE GIVEN
000464:                                                                                                  #  STATE VECTOR IS RECTIFIED BEFORE SOLUTION OF KEPLERS EQUATION
000465:
000466:                                                                                                  #  THE ROUTINES ASSUME THAT THE CSM (LEM) STATE VECTOR IN P-MEM IS VALID.
000467:                                                                                                  #  SWITCHES SET PRIOR TO ENTRY TO THE MAIN INTEG. PROG ARE AS FOLLOWS
000468:                                                                                                  #                        CSMPREC         CSMCONIC        LEMPREC         LEMCONIC
000469:                                                                                                  #        VINTFLAG        SET             SET             CLEAR           CLEAR
000470:                                                                                                  #        INTYPFLG        CLEAR           SET             CLEAR           SET
000471:                                                                                                  #        DIM0FLAG        CLEAR           CLEAR           CLEAR           CLEAR
000472:
000473:                                                                                                  #  CALLING SEQUENCE
000474:                                                                                                  #        L-X     STORE   TDEC1
000475:                                                                                                  #        L       CALL                    (STCALL TDEC1)


000477:                                                                                                  #        L+1             CSMPREC         (CSMCONIC, LEMPREC, LEMCONIC)
000478:
000479:                                                                                                  #  NORMAL EXIT TO L+2
000480:
000481:                                                                                                  #  SUBROUTINES CALLED
000482:                                                                                                  #        INTEGRV1
000483:                                                                                                  #        PRECOUT FOR CSMPREC AND LEMPREC
000484:                                                                                                  #        CONICOUT FOR CSMCONIC AND LEMCONIC
000485:
000486:                                                                                                  #  OUTPUT - SEE PAGE 2 OF THIS LOG SECTION
000487:
000488:                                                                                                  #  INPUT
000489:                                                                                                  #        TDEC1           TIME TO INTEGRATE TO.  CSECS B-28
000490:
000491: 13,3043           45020        CSMPREC            STQ      CALL
000492: 13,3044           00046                                    X1
000493: 13,3045           27414                                    INTSTALL
000494: 13,3046           43130                           SXA,1    SET
000495: 13,3047           02102                                    IRETURN
000496: 13,3050           01474                                    VINTFLAG
000497:
000498: 13,3051           43014        IFLAGP             SET      CLEAR
000499: 13,3052           01467                                    PRECIFLG
000500: 13,3053           01676                                    DIM0FLAG
000501: 13,3054           77614                           CLRGO
000502: 13,3055           01633                                    INTYPFLG
000503: 13,3056           27136                                    INTEGRV1
000504: 13,3057           45020        LEMPREC            STQ      CALL
000505: 13,3060           00046                                    X1
000506: 13,3061           27414                                    INTSTALL
000507: 13,3062           43130                           SXA,1    CLRGO
000508: 13,3063           02102                                    IRETURN
000509: 13,3064           01634                                    VINTFLAG
000510: 13,3065           27051                                    IFLAGP
000511:
000512: 13,3066           45020        CSMCONIC           STQ      CALL
000513: 13,3067           00046                                    X1
000514: 13,3070           27414                                    INTSTALL
000515: 13,3071           43130                           SXA,1    SET
000516: 13,3072           02102                                    IRETURN
000517: 13,3073           01474                                    VINTFLAG
000518: 13,3074           43014        IFLAGC             CLEAR    SETGO
000519: 13,3075           01676                                    DIM0FLAG
000520: 13,3076           01433                                    INTYPFLG
000521: 13,3077           27136                                    INTEGRV1
000522: 13,3100           45020        LEMCONIC           STQ      CALL
000523: 13,3101           00046                                    X1
000524: 13,3102           27414                                    INTSTALL
000525: 13,3103           43130                           SXA,1    CLRGO
000526: 13,3104           02102                                    IRETURN


000528: 13,3105           01634                                    VINTFLAG
000529: 13,3106           27074                                    IFLAGC
000530:
000531: 13,3107           66214        INTEGRVS           SET      SSP
000532: 13,3110           01467                                    PRECIFLG
000533: 13,3111           02031                                    PBODY
000534: 13,3112           00000                                    0
000535: 13,3113           66214                           BOF      SSP
000536: 13,3114           00343                                    MOONFLAG
000537: 13,3115           27120                                    +3
000538: 13,3116           02031                                    PBODY
000539: 13,3117           00002                                    2
000540: 13,3120           77220                           STQ      VLOAD
000541: 13,3121           02102                                    IRETURN
000542: 13,3122           24007                                    ZEROVEC
000543: 13,3123           01521                           STORE    TDELTAV
000544: 13,3124           35527                           STCALL   TNUV
000545: 13,3125           23441                                    RECTIFY
000546: 13,3126           43014                           CLEAR    SET
000547: 13,3127           01676                                    DIM0FLAG
000548: 13,3130           04062                                    NEWIFLG
000549: 13,3131           77614                           SETGO
000550: 13,3132           04020                                    RPQFLAG
000551: 13,3133           27150                                    ALOADED
000552:
000553:                                                                                                  #  INTEGRV IS AN ENTRY TO ORBIT INTEGRATION WHICH PERMITS THE CALLER,
000554:                                                                                                  #  NORMALLY THE NAVIGATION PROGRAM, TO SET THE INTEG. FLAGS.  THE ROUTINE
000555:                                                                                                  #  IS ENTERED AT INTEGRV1 BY CSMPREC ET. AL. AND AT ALOADED BY INTEGRVS.
000556:                                                                                                  #  THE ROUTINE SETS UP A-MEMORY IF ENTERED AT INTEGRV,1 AND SETS THE INTEG.
000557:                                                                                                  #  PROGRAM FOR PRECISION OR CONIC
000558:
000559:                                                                                                  #  THE CALLER MUST FIRST CALL INTSTALL TO CHECK IF INTEG. IS IN USE BEFORE
000560:                                                                                                  #  SETTING ANY FLAGS.
000561:
000562:                                                                                                  #  THE FLAGS WHICH SHOULD BE SET OR CLEARED ARE
000563:                                                                                                  #        VINTFLAG        (IGNORED WHEN ENTERED FROM INTEGRVS)
000564:                                                                                                  #        INTYPFLG
000565:                                                                                                  #        DIM0FLAG
000566:                                                                                                  #        D6OR9FLG
000567:
000568:                                                                                                  #  CALLING SEQUENCE
000569:                                                                                                  #        L-X     CALL
000570:                                                                                                  #        L-Y             INTSTALL
000571:                                                                                                  #        L-1     SET OR CLEAR ALL FOUR FLAGS.  ALSO CAN SET STATEFLG IF DESIRED
000572:                                                                                                  #                AND DIM0FLAG IS CLEAR.
000573:                                                                                                  #        L       CALL
000574:                                                                                                  #        L+1             INTEGRV
000575:
000576:                                                                                                  #  INITIALIZATION
000577:                                                                                                  #        FLAGS AS ABOVE
000578:                                                                                                  #        STORE TIME TO INTEGRATE TO IN TDEC1
000579:
000580:                                                                                                  #  OUTPUT
000581:                                                                                                  #        RATT    AS
000582:                                                                                                  #        VATT          DEFINED


000584:                                                                                                  #        TAT                     BEFORE
000585:
000586: 13,3134           77620        INTEGRV            STQ
000587: 13,3135           02102                                    IRETURN
000588: 13,3136           43014        INTEGRV1           SET      SET
000589: 13,3137           04060                                    RPQFLAG
000590: 13,3140           04062                                    NEWIFLG
000591: 13,3141           77731        INTEGRV2           SSP
000592: 13,3142           00053                                    QPRET
000593: 13,3143           27150                                    ALOADED
000594: 13,3144           52014                           BON      GOTO
000595: 13,3145           01714                                    VINTFLAG
000596: 13,3146           26705                                    PTOACSM
000597: 13,3147           26760                                    PTOALEM
000598: 13,3150           77745        ALOADED            DLOAD
000599: 13,3151           00041                                    TDEC1
000600: 13,3152           01116                           STORE    TDEC
000601: 13,3153           52014                           BOFF     GOTO
000602: 13,3154           01753                                    INTYPFLG
000603: 13,3155           27257                                    TESTLOOP
000604: 13,3156           27243                                    RVCON
000605: 13,3157           77414        A-PCHK             BOF      EXIT
000606: 13,3160           01752                                    STATEFLG
000607: 13,3161           27200                                    RECTOUT
000608: 13,3162           05353                           TC       PHASCHNG
000609: 13,3163           04022                           OCT      04022
000610: 13,3164           05504                           TC       UPFLAG                                #  PHASE CHANGE HAS OCCURRED BETWEEN
000611: 13,3165           00236                           ADRES    REINTFLG                              #  INTSTALL AND INTWAKE
000612: 13,3166           06037                           TC       INTPRET
000613: 13,3167           77731                           SSP
000614: 13,3170           00053                                    QPRET
000615: 13,3171           27176                                    PHEXIT
000616: 13,3172           52014                           BON      GOTO
000617: 13,3173           01714                                    VINTFLAG
000618: 13,3174           26661                                    ATOPCSM
000619: 13,3175           26734                                    ATOPLEM
000620: 13,3176           77624        PHEXIT             CALL
000621: 13,3177           11244                                    GRP2PC
000622: 13,3200           45001        RECTOUT            SETPD    CALL
000623: 13,3201           00001                                    0
000624: 13,3202           23441                                    RECTIFY
000625: 13,3203           53775                           VLOAD    VSL*
000626: 13,3204           01503                                    RRECT
000627: 13,3205           57576                                    0,2
000628: 13,3206           53715                           PDVL     VSL*                                  #  RATT TO PD0
000629: 13,3207           01511                                    VRECT
000630: 13,3210           57576                                    0,2
000631: 13,3211           63325                           PDDL     PDVL                                  #  VATT TO PD6   TAT TO PD12
000632: 13,3212           01517                                    TET


000634: 13,3213           01503                                    RRECT
000635: 13,3214           64715                           PDVL     PDDL*
000636: 13,3215           01511                                    VRECT
000637: 13,3216           51770                                    MUEARTH,2
000638: 13,3217           76006                           PUSH     AXT,1
000639: 13,3220           77765                           DEC      -10        B-14
000640: 13,3221           76014                           BON      AXT,1
000641: 13,3222           00303                                    MOONFLAG
000642: 13,3223           27225                                    +2
000643: 13,3224           77775                           DEC      -2         B-14
000644: 13,3225           40001        INTEXIT            SETPD    BOV
000645: 13,3226           00001                                    0
000646: 13,3227           27230                                    +1
000647: 13,3230           43014                           CLEAR    CLEAR
000648: 13,3231           04676                                    AVEMIDSW                              #  ALLOW UPDATE OF DOWNLINK STATE VECTOR
000649: 13,3232           01667                                    PRECIFLG
000650: 13,3233           77614                           CLEAR
000651: 13,3234           01672                                    STATEFLG
000652: 13,3235           77535                           SLOAD    EXIT
000653: 13,3236           02103                                    IRETURN
000654: 13,3237           30154                           CA       MPAC
000655: 13,3240           50120                           INDEX    FIXLOC
000656: 13,3241           54052                           TS       QPRET
000657: 13,3242           03425                           TC       INTWAKE
000658:
000659:                                                                                                  #  RVCON SETS UP ORBIT INTEGRATION TO DO A CONIC SOLUTION FOR POSITION AND
000660:                                                                                                  #  VELOCITY FOR THE INTERVAL (TET-TDEC)
000661:
000662: 13,3243           45345        RVCON              DLOAD    DSU
000663: 13,3244           01116                                    TDEC
000664: 13,3245           01517                                    TET
000665: 13,3246           36074                           STCALL   TAU.
000666: 13,3247           23441                                    RECTIFY
000667: 13,3250           77624                           CALL
000668: 13,3251           22376                                    KEPPREP
000669: 13,3252           43345                           DLOAD    DAD
000670: 13,3253           01551                                    TC
000671: 13,3254           01517                                    TET
000672: 13,3255           35517                           STCALL   TET
000673: 13,3256           27200                                    RECTOUT
000674:


000676:                                                                                                  #  TESTLOOP
000677:
000678: 13,3257           43014        TESTLOOP           BOF      CLRGO
000679: 13,3260           04752                                    QUITFLAG
000680: 13,3261           27264                                    +3
000681: 13,3262           01632                                    STATEFLG
000682: 13,3263           27225                                    INTEXIT                               #  STOP INTEGRATION
000683: 13,3264           73001                 +3        SETPD    LXA,2
000684: 13,3265           00013                                    10D
000685: 13,3266           02030                                    PBODY
000686: 13,3267           51575                           VLOAD    ABVAL
000687: 13,3270           01535                                    RCV
000688: 13,3271           43006                           PUSH     CLEAR                                 #  RC TO 10D
000689: 13,3272           00262                                    MIDFLAG
000690: 13,3273           50023                           DSU*     BMN                                   #  MIDFLAG=0 IF R G.T. RMP
000691: 13,3274           53755                                    RME,2
000692: 13,3275           27300                                    +3
000693: 13,3276           77614                           SET
000694: 13,3277           00062                                    MIDFLAG
000695: 13,3300           41345        NORFINAL           DLOAD    DMP
000696: 13,3301           00013                                    10D
000697: 13,3302           00043                                    34D
000698: 13,3303           55762                           SR1R     DDV*
000699: 13,3304           51770                                    MUEARTH,2
000700: 13,3305           41366                           SQRT     DMP
000701: 13,3306           25752                                    .3D
000702: 13,3307           40442                           SR3      SR4                                   #  DT IS TRUNCATED TO A MULTIPLE
000703: 13,3310           54345                           DLOAD    SL
000704: 13,3311           00155                                    MPAC
000705: 13,3312           20220                                    15D                                   #        OF 128 CSECS.
000706: 13,3313           40006                           PUSH     BOV
000707: 13,3314           27341                                    MAXDT
000708: 13,3315           50021                           BDSU     BMN
000709: 13,3316           27413                                    DT/2MAX
000710: 13,3317           27341                                    MAXDT
000711: 13,3320           45345        DT/2COMP           DLOAD    DSU
000712: 13,3321           01116                                    TDEC
000713: 13,3322           01517                                    TET
000714: 13,3323           54234                           RTB      SL
000715: 13,3324           21612                                    SGNAGREE
000716: 13,3325           20211                                    8D
000717: 13,3326           02076                           STORE    DT/2                                  #  B-19
000718: 13,3327           51400                           BOV      ABS
000719: 13,3330           27345                                    GETMAXDT
000720: 13,3331           50025                           DSU      BMN                                   #  IS TIME TO INTEG. TO GR THAN MAXTIME
000721: 13,3332           00015                                    12D
000722: 13,3333           27351                                    P00HCHK
000723: 13,3334           75345        USEMAXDT           DLOAD    SIGN
000724: 13,3335           00015                                    12D
000725: 13,3336           02076                                    DT/2


000727: 13,3337           36076                           STCALL   DT/2
000728: 13,3340           27351                                    P00HCHK
000729: 13,3341           65345        MAXDT              DLOAD    PDDL                                  #  EXCHANGE DT/2MAX WITH COMPUTED MAX.
000730: 13,3342           27413                                    DT/2MAX
000731: 13,3343           77650                           GOTO
000732: 13,3344           27320                                    DT/2COMP
000733: 13,3345           77634        GETMAXDT           RTB
000734: 13,3346           21712                                    SIGNMPAC
000735: 13,3347           36076                           STCALL   DT/2
000736: 13,3350           27334                                    USEMAXDT
000737: 13,3351           51545        P00HCHK            DLOAD    ABS
000738: 13,3352           02076                                    DT/2
000739: 13,3353           50025                           DSU      BMN
000740: 13,3354           27411                                    DT/2MIN
000741: 13,3355           27157                                    A-PCHK
000742: 13,3356           46135                           SLOAD    BHIZ
000743: 13,3357           01012                                    MODREG
000744: 13,3360           27363                                    +3
000745: 13,3361           77650                           GOTO
000746: 13,3362           23252                                    TIMESTEP
000747: 13,3363           77614                           BON                                            #  WAS THIS CALL VIA CSM(LEM)PREC
000748: 13,3364           01707                                    PRECIFLG
000749: 13,3365           23252                                    TIMESTEP                              #  YES
000750: 13,3366           45345                           DLOAD    DSU
000751: 13,3367           02076                                    DT/2
000752: 13,3370           00015                                    12D
000753: 13,3371           43040                           BMN      BOFCLR
000754: 13,3372           27157                                    A-PCHK
000755: 13,3373           04242                                    NEWIFLG
000756: 13,3374           23252                                    TIMESTEP
000757: 13,3375           45345                           DLOAD    DSU
000758: 13,3376           01116                                    TDEC
000759: 13,3377           01517                                    TET
000760: 13,3400           77640                           BMN                                            #  NO BACKWARD INTEGRATION
000761: 13,3401           27225                                    INTEXIT
000762: 13,3402           40525                           PDDL     SR4
000763: 13,3403           02076                                    DT/2                                  #  IS 4(DT) LS (TDEC - TET)
000764: 13,3404           44322                           SR2R     BDSU                                  #  NO
000765: 13,3405           52040                           BMN      GOTO
000766: 13,3406           27225                                    INTEXIT
000767: 13,3407           23252                                    TIMESTEP
000768: 13,3410           00000 01400  DT/2MIN            2DEC     3          B-20
000769:
000770: 13,3412           14152 00000  DT/2MAX            2DEC     4000       E2         B-20
000771:
000772: 13,3414           77776        INTSTALL           EXIT
000773: 13,3415           30106                           CA       RASFLAG
000774: 13,3416           73466                           MASK     INTBITAB                              #  IS THIS STALL AREA FREE
000775: 13,3417           00006                           EXTEND
000776: 13,3420           13460                           BZF      OKTOGRAB                              #  YES


000778: 13,3421           33465                           CAF      WAKESTAL
000779: 13,3422           05133                           TC       JOBSLEEP
000780: 13,3423           77776        INTWAKE0           EXIT
000781: 13,3424           13445                           TCF      INTWAKE1
000782:
000783: 13,3425           40106        INTWAKE            CS       RASFLAG                               #  IS THIS INTSTALLED ROUTINE TO BE
000784: 13,3426           74745                           MASK     REINTBIT                              #        RESTARTED
000785: 13,3427           10000                           CCS      A
000786: 13,3430           03445                           TC       INTWAKE1                              #  NO
000787:
000788: 13,3431           50120                           INDEX    FIXLOC
000789: 13,3432           30052                           CA       QPRET
000790: 13,3433           55055                           TS       TBASE2                                #  YES, DONT RESTART WITH SOMEONE ELSES Q
000791:
000792: 13,3434           05353                           TC       PHASCHNG
000793: 13,3435           04022                           OCT      04022
000794:
000795: 13,3436           31055                           CA       TBASE2
000796: 13,3437           50120                           INDEX    FIXLOC
000797: 13,3440           54052                           TS       QPRET
000798:
000799: 13,3441           34745                           CAF      REINTBIT
000800: 13,3442           70106                           MASK     RASFLAG
000801: 13,3443           00006                           EXTEND
000802: 13,3444           13463                           BZF      GOBAC                                 #  DONT INTWAKE IF WE CAME HERE VIA RESTART
000803:
000804: 13,3445           33465        INTWAKE1           CAF      WAKESTAL
000805: 13,3446           00004                           INHINT
000806: 13,3447           05137                           TC       JOBWAKE
000807: 13,3450           10064                           CCS      LOCCTR
000808: 13,3451           13445                           TCF      INTWAKE1
000809: 13,3452           00051        FORTYONE           DEC      41         B-14
000810: 13,3453           43466                           CS       INTBITAB
000811: 13,3454           70106                           MASK     RASFLAG
000812: 13,3455           54106                           TS       RASFLAG                               #  RELEASE STALL AREA
000813: 13,3456           00003                           RELINT
000814: 13,3457           13463                           TCF      GOBAC
000815: 13,3460           34736        OKTOGRAB           CAF      INTFLBIT
000816: 13,3461           00004                           INHINT
000817: 13,3462           26106                           ADS      RASFLAG
000818: 13,3463           06037        GOBAC              TC       INTPRET
000819: 13,3464           77616                           RVQ
000820: 13,3465           27415        WAKESTAL           CADR     INTSTALL   +1
000821: 13,3466           20100        INTBITAB           OCT      20100
000822:


000824:                                                                                                  #  AVETOMID
000825:
000826:                                                                                                  #  THIS ROUTINE PERFORMS THE TRANSITION FROM A THRUSTING PHASE TO THE COAST
000827:                                                                                                  #  PHASE BY INITIALIZING THIS VEHICLES PERMANENT STATE VECTOR WITH THE
000828:                                                                                                  #  VALUES LEFT BY THE AVERAGEG ROUTINE IN RN,VN,PIPTIME.
000829:
000830:                                                                                                  #  BEFORE THIS IS DONE THE W-MATRIX, IF ITS VALID (OR WFLAG OR RENDWFLG IS
000831:                                                                                                  #  SET) IS INTEGRATED FORWARD TO PIPTIME WITH THE PRE-THRUST STATE VECTOR.
000832:
000833:                                                                                                  #  IN ADDITION, THE OTHER VEHICLE IS INTEGRATED (PERMANENT) TO PIPTIME.
000834:
000835:                                                                                                  #  FINALLY TRKMKCNT IS ZEROED
000836:
000837: 13,2000                                           SETLOC   INTINIT
000838: 13,2000                                           BANK
000839:
000840: 13,3467                                           COUNT*   $$/INTIN
000841: 13,3467           43020        AVETOMID           STQ      BON
000842: 13,3470           02772                                    EGRESS
000843: 13,3471           02716                                    RENDWFLG
000844: 13,3472           27536                                    INT/W                                 #  W-MATRIX VALID, GO INTEGRATE IT
000845: 13,3473           77614                           BON
000846: 13,3474           01711                                    ORBWFLAG
000847: 13,3475           27536                                    INT/W                                 #  W-MATRIX VALID, GO INTEGRATE IT
000848:
000849: 13,3476           45145        OTHERS             DLOAD    CALL                                  #  GET SET FOR OTHER VEHICLE INTEGRATION
000850: 13,3477           01235                                    PIPTIME                               #  DESIRED TIME
000851: 13,3500           27414                                    INTSTALL
000852: 13,3501           45014                           SET      CALL
000853: 13,3502           01474                                    VINTFLAG                              #  CM
000854: 13,3503           26644                                    SETIFLGS                              #  SETS UP NONE W-MAT. PERMANENT INTEG.
000855: 13,3504           34041                           STCALL   TDEC1
000856: 13,3505           27134                                    INTEGRV
000857:
000858: 13,3506           45174                           AXT,2    CALL                                  #  NOW MOVE PROPERLY SCALE RN,UN AS WELL AS
000859: 13,3507           00002                                    2                                     #  PIPTIME TO INTEGRATION ERASABLES.
000860: 13,3510           27414                                    INTSTALL
000861: 13,3511           77014                           BON      AXT,2
000862: 13,3512           04304                                    MOONTHIS
000863: 13,3513           27515                                    +2
000864: 13,3514           00000                                    0
000865: 13,3515           53775                           VLOAD    VSR*
000866: 13,3516           01221                                    RN
000867: 13,3517           57176                                    0,2
000868: 13,3520           01503                           STORE    RRECT
000869: 13,3521           15535                           STODL    RCV
000870: 13,3522           01235                                    PIPTIME
000871: 13,3523           25517                           STOVL    TET
000872: 13,3524           01227                                    VN


000874: 13,3525           45057                           VSR*     CALL
000875: 13,3526           57176                                    0,2
000876: 13,3527           23455                                    MINIRECT                              #  FINISH SETTING UP STATE VECTOR
000877: 13,3530           66234                           RTB      SSP
000878: 13,3531           26747                                    MOVATHIS                              #  PUT TEMP STATE VECTOR INTO PERMANENT
000879: 13,3532           03463                                    TRKMKCNT
000880: 13,3533           00000                                    0
000881: 13,3534           77650                           GOTO
000882: 13,3535           47226                                    FAZAB5
000883:
000884: 13,3536           45145        INT/W              DLOAD    CALL
000885: 13,3537           01235                                    PIPTIME                               #  INTEGRATE W THRU BURN
000886: 13,3540           27414                                    INTSTALL
000887: 13,3541           43014                           SET      SET
000888: 13,3542           01476                                    DIM0FLAG                              #  DO W-MATRIX
000889: 13,3543           04476                                    AVEMIDSW                              #  SO WONT CLOBBER RN,VN,PIPTIME
000890: 13,3544           43014                           SET      CLEAR
000891: 13,3545           01475                                    D6OR9FLG                              #  9X9 FOR LM
000892: 13,3546           01674                                    VINTFLAG                              #  LM
000893: 13,3547           34041                           STCALL   TDEC1
000894: 13,3550           27134                                    INTEGRV
000895: 13,3551           77650                           GOTO
000896: 13,3552           27476                                    OTHERS                                #  NOW GO DO THE OTHER VEHICLE
000897:


000899:                                                                                                  #  MIDTOAV1
000900:
000901:                                                                                                  #  THIS ROUTINE INTEGRATES (PRECISION) TO THE TIME SPECIFIED IN TDEC1.
000902:                                                                                                  #  IF, AT THE END OF AN INTEGRATION TIME STEP, CURRENT TIME PLUS A DELTA
000903:                                                                                                  #  TIME (SEE TIMEDELT.....BASED ON THE COMPUTATUON TIME FOR ONE TIME STEP)
000904:                                                                                                  #  IS GREATER THAN THE DESIRED TIME, ALARM 1703 IS SET AND THE INTEGRATION
000905:                                                                                                  #  IS DONE TO THE CURRENT TIME.
000906:                                                                                                  #  RETURN IS IN BASIC TO THE RETURN ADDRESS PLUS ONE.
000907:
000908:                                                                                                  #  IF THE INTEGRATION IS FINISHED TO THE DESIRED TIME, RETURN IS IN BASIC
000909:                                                                                                  #  TO THE RETURN ADDRESS
000910:
000911:                                                                                                  #  IN EITHER CASE, BEFORE RETURNING, THE EXTRAPOLATED STATE VECTOR IS TRAN
000912:                                                                                                  #  FERRED FROM R,VATT TO R,VN1-PIPTIME1 IS SET TO THE FINISHING INTEGRA-
000913:                                                                                                  #  TION TIME AND MPAC IS SET TO THE DELTA TIME ---
000914:                                                                                                  #                        TAT MINUS CURRENT TIME.
000915:
000916:                                                                                                  #  MIDTOAV2
000917:
000918:                                                                                                  #  THIS ROUTINE INTEGRATES THIS VEHICLES STATE VECTOR TO THE CURRENT TIME.
000919:                                                                                                  #  NO INPUTS ARE REQUIRED OF THE CALLER.  RETURN IS IN BASIC TO THE RETURN
000920:                                                                                                  #  ADDRESS WITH THE ABOVE TRANSFERS TO R,VN1-PIPTIME1-AND MPAC DONE
000921:
000922: 13,3553  E7,1744                                  EBANK=   IRETURN1
000923: 13,3553           43020        MIDTOAV2           STQ      CLRGO                                 #  INTEGRATE TO PRESENT TIME PLUS TIMEDELT
000924: 13,3554           03744                                    IRETURN1
000925: 13,3555           04634                                    MID1FLAG
000926: 13,3556           27572                                    ENTMID2
000927:
000928: 13,3557           43020        MIDTOAV1           STQ      SET                                   #  INTEGRATE TO TDEC1
000929: 13,3560           03744                                    IRETURN1
000930: 13,3561           04474                                    MID1FLAG
000931: 13,3562           43234                           RTB      DAD                                   #  INITIAL CHECK, IS TDEC1 IN THE FUTURE
000932: 13,3563           21573                                    LOADTIME
000933: 13,3564           27674                                    TIMEDELT
000934: 13,3565           51021                           BDSU     BPL
000935: 13,3566           00041                                    TDEC1
000936: 13,3567           27576                                    ENTMID1                               #  Y5S
000937: 13,3570           77624                           CALL
000938: 13,3571           27662                                    NOTIME                                #  NO, SET ALARM, SWITCH TO MIDTOAV2
000939:
000940: 13,3572           43234        ENTMID2            RTB      DAD
000941: 13,3573           21573                                    LOADTIME
000942: 13,3574           27674                                    TIMEDELT
000943: 13,3575           00041                           STORE    TDEC1
000944:
000945: 13,3576           77624        ENTMID1            CALL
000946: 13,3577           27414                                    INTSTALL
000947: 13,3600           45014                           CLEAR    CALL


000949: 13,3601           01676                                    DIM0FLAG                              #  NO W-MATRIX
000950: 13,3602           26066                                    THISVINT
000951: 13,3603           43014                           CLEAR    SET
000952: 13,3604           01673                                    INTYPFLG
000953: 13,3605           04475                                    MIDAVFLG                              #  LET INTEG. KNOW THE CALL IS FOR MIDTOAV.
000954: 13,3606           77624                           CALL
000955: 13,3607           27134                                    INTEGRV                               #  GO INTEGRATE
000956: 13,3610           77214                           CLEAR    VLOAD
000957: 13,3611           04675                                    MIDAVFLG
000958: 13,3612           00001                                    RATT
000959: 13,3613           27545                           STOVL    RN1
000960: 13,3614           00007                                    VATT
000961: 13,3615           17553                           STODL    VN1
000962: 13,3616           00015                                    TAT
000963: 13,3617           03561                           STORE    PIPTIME1
000964: 13,3620           66134                           SXA,2    SXA,1
000965: 13,3621           02777                                    RTX2
000966: 13,3622           02776                                    RTX1
000967: 13,3623           77776                           EXIT
000968:
000969: 13,3624           00004                           INHINT
000970: 13,3625           00006                           EXTEND
000971: 13,3626           40025                           DCS      TIME2
000972: 13,3627           20155                           DAS      MPAC
000973: 13,3630           07257                           TC       TPAGREE
000974:
000975: 13,3631           31744                           CA       IRETURN1
000976: 13,3632           04640                           TC       BANKJUMP
000977: 13,3633           47014        CKMID2             BOF      RTB
000978: 13,3634           04754                                    MID1FLAG
000979: 13,3635           27652                                    MID2
000980: 13,3636           21573                                    LOADTIME
000981: 13,3637           44215                           DAD      BDSU
000982: 13,3640           27674                                    TIMEDELT
000983: 13,3641           01116                                    TDEC
000984: 13,3642           45044                           BPL      CALL
000985: 13,3643           27257                                    TESTLOOP                              #  YES
000986: 13,3644           27662                                    NOTIME
000987:
000988: 13,3645           43234        TIMEINC            RTB      DAD
000989: 13,3646           21573                                    LOADTIME
000990: 13,3647           27674                                    TIMEDELT
000991: 13,3650           35116                           STCALL   TDEC
000992: 13,3651           27257                                    TESTLOOP
000993:
000994: 13,3652           45345        MID2               DLOAD    DSU
000995: 13,3653           01116                                    TDEC
000996: 13,3654           01517                                    TET
000997: 13,3655           45246                           ABS      DSU
000998: 13,3656           27672                                    3CSECS
000999:


001001: 13,3657           52040                           BMN      GOTO
001002: 13,3660           27157                                    A-PCHK
001003: 13,3661           27645                                    TIMEINC
001004:
001005: 13,3662           77414        NOTIME             CLEAR    EXIT                                  #  TOO LATE
001006: 13,3663           04674                                    MID1FLAG
001007: 13,3664           25744                           INCR     IRETURN1                              #  SET ERROR EXIT (CALLOC +2)
001008: 13,3665           05567                           TC       ALARM                                 #  INSUFFICIENT TIME FOR INTEGRATION --
001009: 13,3666           01703                           OCT      1703                                  #        TIG WILL BE SLIPPED...
001010: 13,3667           06037                           TC       INTPRET
001011: 13,3670           77616                           RVQ
001012:
001013: 13,3671           00000 00003  3CSECS             2DEC     3          B-28
001014:
001015: 13,3673           00000 03720  TIMEDELT           2DEC     2000       B-28
001016:
001017: 27,3360                                           BANK     27
001018: 04,2000                                           SETLOC   UPDATE2
001019: 04,2000                                           BANK
001020: 04,3165     1167                                  EBANK=   INTWAKUQ
001021:
001022: 04,3165                                           COUNT*   $$/INTIN
001023:
001024: 04,3165     1167               INTWAKUQ           =        INTWAK1Q                              #  TEMPORARY UNTIL NAME OF INTWAK1Q IS CHNG
001025:
001026: 04,3165           00003        INTWAKEU           RELINT
001027: 04,3166           00006                           EXTEND
001028: 04,3167           23167                           QXCH     INTWAKUQ                              #  SAVE Q FOR RETURN
001029:
001030: 04,3170           06037                           TC       INTPRET
001031:
001032: 04,3171           53135                           SLOAD    BZE                                   #  IS THIS A CSM/LEM STATE VECTOR UPDATE
001033: 04,3172           01502                                    UPSVFLAG                              #  REQUEST.  IF NOT GO TO INTWAKUP.
001034: 04,3173           11232                                    INTWAKUP
001035:
001036: 04,3174           77775                           VLOAD                                          #  MOVE RRECT(6) AND VRECT(6) INTO
001037: 04,3175           01503                                    RRECT                                 #        RCV(6) AND VCV(6) RESPECTIVELY.
001038: 04,3176           25535                           STOVL    RCV
001039: 04,3177           01511                                    VRECT                                 #  NOW GO TO 'RECTIFY +13D' TO
001040: 04,3200           77624                           CALL                                           #  STORE VRECT INTO VCV AND ZERO OUT
001041: 04,3201           23456                                    RECTIFY    +13D                       #  TDELTAV(6),TNUV(6),TC(2) AND XKEP(2)
001042: 04,3202           51535                           SLOAD    ABS                                   #  COMPARE ABSOLUTE VALUE OF 'UPSVFLAG'
001043: 04,3203           01502                                    UPSVFLAG                              #  TO 'UPDATE MOON STATE VECTOR CODE'
001044: 04,3204           53025                           DSU      BZE                                   #  TO DETERMINE WHETHER THE STATE VECTOR TO
001045: 04,3205           11243                                    UPMNSVCD                              #  BE UPDATED IS IN THE EARTH OR LUNAR
001046: 04,3206           11213                                    INTWAKEM                              #  SPHERE OF INFLUENCE.........
001047: 04,3207           43174                           AXT,2    CLRGO                                 #  EARTH SPHERE OF INFLUENCE.
001048: 04,3210           00000                           DEC      0          B-14
001049: 04,3211           00223                                    MOONFLAG


001051: 04,3212           11216                                    INTWAKEC
001052: 04,3213           43174        INTWAKEM           AXT,2    SET                                   #  LUNAR SPHERE OF INFLUENCE.
001053: 04,3214           00002                           DEC      2          B-14
001054: 04,3215           00063                                    MOONFLAG
001055: 04,3216           50135        INTWAKEC           SLOAD    BMN                                   #  COMMON CODING AFTER X2 INITIALIZED AND
001056:                                                                                                  #  MOONFLAG SET (OR CLEARED).
001057: 04,3217           01502                                    UPSVFLAG                              #  IS THIS A REQUEST FOR A LEM OR CSM
001058: 04,3220           11226                                    INTWAKLM                              #        STATE VECTOR UPDATE......
001059: 04,3221           77624                           CALL                                           #  UPDATE CSM STATE VECTOR
001060: 04,3222           26661                                    ATOPCSM
001061:
001062: 04,3223           52014                           CLEAR    GOTO
001063: 04,3224           01671                                    ORBWFLAG
001064: 04,3225           11230                                    INTWAKEX
001065:
001066: 04,3226           77624        INTWAKLM           CALL                                           #  UPDATE LM STATE VECTOR
001067: 04,3227           26734                                    ATOPLEM
001068:
001069: 04,3230           77614        INTWAKEX           CLEAR
001070: 04,3231           02676                                    RENDWFLG
001071:
001072: 04,3232           45131        INTWAKUP           SSP      CALL                                  #  REMOVE :UPDATE STATE VECTOR INDICATOR:
001073: 04,3233           01502                                    UPSVFLAG
001074: 04,3234           00000                                    0
001075: 04,3235           27423                                    INTWAKE0                              #  RELEASE :GRAB: OF ORBIT INTEG
001076: 04,3236           77776                           EXIT
001077:
001078: 04,3237           05353                           TC       PHASCHNG
001079: 04,3240           04026                           OCT      04026
001080: 04,3241           01167                           TC       INTWAKUQ
001081:
001082: 04,3242           00002        UPMNSVCD           OCT      2
001083: 04,3243           00000                           OCT      0
001084:
001085: 04,3244           77420        GRP2PC             STQ      EXIT
001086: 04,3245           02711                                    GRP2SVQ
001087: 04,3246           05353                           TC       PHASCHNG
001088: 04,3247           04022                           OCT      04022
001089: 04,3250           06037                           TC       INTPRET
001090: 04,3251           77650                           GOTO
001091: 04,3252           02711                                    GRP2SVQ
001092:

End of include-file INTEGRATION_INITIALIZATION.agc.  Parent file is MAIN.agc


