
Source Code


000002:                                                                                                  ## Copyright:   Public domain.
000003:                                                                                                  ## Filename:    INTERRUPT_LEAD_INS.agc
000004:                                                                                                  ## Purpose:     A section of Luminary revision 98.
000005:                                                                                                  ##              It is part of the reconstructed source code for the a
000006:                                                                                                  ##              development version of the flight software for the Lunar
000007:                                                                                                  ##              Module's (LM) Apollo Guidance Computer (AGC) for Apollo 11.
000008:                                                                                                  ##              The code has been recreated from a copy of Luminary 99
000009:                                                                                                  ##              revision 001, using asterisks indicating changed lines in
000010:                                                                                                  ##              the listing and Luminary Memo #85, which lists changes between
000011:                                                                                                  ##              Luminary 98 and 99.
000012:                                                                                                  ## Reference:   pp. 153-154
000013:                                                                                                  ## Assembler:   yaYUL
000014:                                                                                                  ## Contact:     Ron Burkey <info@sandroid.org>.
000015:                                                                                                  ## Website:     www.ibiblio.org/apollo/index.html
000016:                                                                                                  ## Mod history: 2019-07-28 MAS  Created from Luminary 99.
000017:


000019:    4000                                           SETLOC   4000
000020:
000021:    4000                                           COUNT*   $$/RUPTS                              #  FIX-FIX LEAD INS
000022:    4000           00004                           INHINT                                         #  GO
000023:    4001           34054                           CAF      GOBB
000024:    4002           56006                           XCH      BBANK
000025:    4003           12667                           TCF      GOPROG
000026:
000027:    4004           52011                           DXCH     ARUPT                                 #  T6RUPT
000028:    4005           00006                           EXTEND
000029:    4006           34056                           DCA      T6ADR
000030:    4007           52006                           DTCB
000031:
000032:    4010           52011                           DXCH     ARUPT                                 #  T5RUPT - AUTOPILOT
000033:    4011           00006                           EXTEND
000034:    4012           31275                           DCA      T5ADR
000035:    4013           52006                           DTCB
000036:
000037:    4014           52011                           DXCH     ARUPT                                 #  T3RUPT
000038:    4015           34057                           CAF      T3RPTBB
000039:    4016           56006                           XCH      BBANK
000040:    4017           13407                           TCF      T3RUPT
000041:
000042:    4020           52011                           DXCH     ARUPT                                 #  T4RUPT
000043:    4021           34064                           CAF      T4RPTBB
000044:    4022           56006                           XCH      BBANK
000045:    4023           12000                           TCF      T4RUPT
000046:
000047:    4024           52011                           DXCH     ARUPT                                 #  KEYRUPT1
000048:    4025           34060                           CAF      KEYRPTBB
000049:    4026           56006                           XCH      BBANK
000050:    4027           13274                           TCF      KEYRUPT1
000051:
000052:    4030           52011                           DXCH     ARUPT                                 #  KEYRUPT2
000053:    4031           34061                           CAF      MKRUPTBB
000054:    4032           56006                           XCH      BBANK
000055:    4033           12332                           TCF      MARKRUPT
000056:
000057:    4034           52011                           DXCH     ARUPT                                 #  UPRUPT
000058:    4035           34060                           CAF      UPRPTBB
000059:    4036           56006                           XCH      BBANK
000060:    4037           13317                           TCF      UPRUPT
000061:
000062:    4040           52011                           DXCH     ARUPT                                 #  DOWNRUPT
000063:    4041           34062                           CAF      DWNRPTBB
000064:    4042           56006                           XCH      BBANK
000065:    4043           13506                           TCF      DODOWNTM
000066:
000067:    4044           52011                           DXCH     ARUPT                                 #  RADAR RUPT
000068:    4045           34063                           CAF      RDRPTBB


000070:    4046           56006                           XCH      BBANK
000071:    4047           13150                           TCF      RADAREAD
000072:
000073:    4050           52011                           DXCH     ARUPT                                 #  RUPT10 IS USED ONLY BY LANDING GUIDANCE
000074:    4051           34065                           CA       RUPT10BB
000075:    4052           56006                           XCH      BBANK
000076:    4053           12275                           TCF      PITFALL
000077:
000078:
000079:    4054  E3,1400                                  EBANK=   LST1                                  #  RESTART USES E0, E3
000080:    4054           12103        GOBB               BBCON    GOPROG
000081:
000082:    4055  E6,1464                                  EBANK=   PERROR
000083:    4055           02065 36106  T6ADR              2CADR    DOT6RUPT
000084:
000085:    4057  E3,1400                                  EBANK=   LST1
000086:    4057           02103        T3RPTBB            BBCON    T3RUPT
000087:
000088:    4060     0073                                  EBANK=   KEYTEMP1
000089:    4060           10100        KEYRPTBB           BBCON    KEYRUPT1
000090:
000091:    4061  E7,1404                                  EBANK=   AOTAZ
000092:    4061           16107        MKRUPTBB           BBCON    MARKRUPT
000093:
000094:    4062     4060               UPRPTBB            =        KEYRPTBB
000095:
000096:    4062     0340                                  EBANK=   DNTMBUFF
000097:    4062           12100        DWNRPTBB           BBCON    DODOWNTM
000098:
000099:    4063     0110                                  EBANK=   RADMODES
000100:    4063           52100        RDRPTBB            BBCON    RADAREAD
000101:
000102:    4064  E6,1414                                  EBANK=   M11
000103:    4064           14106        T4RPTBB            BBCON    T4RUPT
000104:
000105:    4065  E7,1647                                  EBANK=   ELVIRA
000106:    4065           22107        RUPT10BB           BBCON    PITFALL
000107:

End of include-file INTERRUPT_LEAD_INS.agc.  Parent file is MAIN.agc


