
Source Code


000002:                                                                                                  ## Copyright:   Public domain.
000003:                                                                                                  ## Filename:    INTERPRETIVE_CONSTANTS.agc
000004:                                                                                                  ## Purpose:     A section of Luminary revision 98.
000005:                                                                                                  ##              It is part of the reconstructed source code for the a
000006:                                                                                                  ##              development version of the flight software for the Lunar
000007:                                                                                                  ##              Module's (LM) Apollo Guidance Computer (AGC) for Apollo 11.
000008:                                                                                                  ##              The code has been recreated from a copy of Luminary 99
000009:                                                                                                  ##              revision 001, using asterisks indicating changed lines in
000010:                                                                                                  ##              the listing and Luminary Memo #85, which lists changes between
000011:                                                                                                  ##              Luminary 98 and 99.
000012:                                                                                                  ## Reference:   pp. 1100-1101
000013:                                                                                                  ## Assembler:   yaYUL
000014:                                                                                                  ## Contact:     Ron Burkey <info@sandroid.org>.
000015:                                                                                                  ## Website:     www.ibiblio.org/apollo/index.html
000016:                                                                                                  ## Mod history: 2019-07-28 MAS  Created from Luminary 99.
000017:                                                                                                  ##              2021-05-30 ABS  DFC-6 -> DEC-6, DFC-12 -> DEC-12
000018:


000020: 23,2000                                           SETLOC   INTPRET1
000021: 23,2000                                           BANK
000022:
000023: 23,2511                                           COUNT*   $$/ICONS
000024: 23,2511           10000 00000  DP1/4TH            2DEC     .25
000025:
000026: 23,2513           00000 00000  UNITZ              2DEC     0          B-28
000027:
000028: 23,2515           00000 00000  UNITY              2DEC     0          B-28
000029:
000030: 23,2517           20000 00000  UNITX              2DEC     .5
000031:
000032: 23,2521           00000 00000  ZEROVECS           2DEC     0          B-28
000033:
000034: 23,2523           00000 00000                     2DEC     0          B-28
000035:
000036: 23,2525           00000 00000                     2DEC     0          B-28
000037:
000038: 23,2527  23,2517               DPHALF             =        UNITX
000039: 23,2527           37777        DPPOSMAX           OCT      37777
000040: 23,2530           37777                           OCT      37777
000041:


000043:                                                                                                  #  INTERPRETIVE CONSTANTS IN THE OTHER HALF-MEMORY
000044:
000045: 12,2000                                           SETLOC   INTPRET2
000046: 12,2000                                           BANK
000047:
000048: 12,2000                                           COUNT*   $$/ICONS
000049: 12,2000           00000 00000  ZUNIT              2DEC     0          B-28
000050:
000051: 12,2002           00000 00000  YUNIT              2DEC     0          B-28
000052:
000053: 12,2004           20000 00000  XUNIT              2DEC     .5
000054:
000055: 12,2006           00000 00000  ZEROVEC            2DEC     0          B-28
000056:
000057: 12,2010           00000 00000                     2DEC     0          B-28
000058:
000059: 12,2012           00000 00000                     2DEC     0          B-28
000060:
000061: 12,2014           77777                           OCT      77777                                 #  -0, -6, -12 MUST REMAIN IN THIS ORDER
000062: 12,2015           77771        DEC-6              DEC      -6         B-14
000063: 12,2016           77763        DEC-12             DEC      -12        B-14
000064: 12,2017           37777 37777  LODPMAX            2OCT     3777737777                            #  THESE TWO CONSTANTS MUST REMAIN
000065:
000066: 12,2021           37777 37777  LODPMAX1           2OCT     3777737777                            #  ADJACENT AND THE SAME FOR INTEGRATION
000067:
000068: 12,2023  12,2006               ZERODP             =        ZEROVEC
000069: 12,2023  12,2004               HALFDP             =        XUNIT
000070:
000071:

End of include-file INTERPRETIVE_CONSTANTS.agc.  Parent file is MAIN.agc


