
Source Code


000002:                                                                                                  ## Copyright:   Public domain.
000003:                                                                                                  ## Filename:    LAMBERT_AIMPOINT_GUIDANCE.agc
000004:                                                                                                  ## Purpose:     A section of Luminary revision 98.
000005:                                                                                                  ##              It is part of the reconstructed source code for the a
000006:                                                                                                  ##              development version of the flight software for the Lunar
000007:                                                                                                  ##              Module's (LM) Apollo Guidance Computer (AGC) for Apollo 11.
000008:                                                                                                  ##              The code has been recreated from a copy of Luminary 99
000009:                                                                                                  ##              revision 001, using asterisks indicating changed lines in
000010:                                                                                                  ##              the listing and Luminary Memo #85, which lists changes between
000011:                                                                                                  ##              Luminary 98 and 99.
000012:                                                                                                  ## Reference:   pp. 651-653
000013:                                                                                                  ## Assembler:   yaYUL
000014:                                                                                                  ## Contact:     Ron Burkey <info@sandroid.org>.
000015:                                                                                                  ## Website:     www.ibiblio.org/apollo/index.html
000016:                                                                                                  ## Mod history: 2019-07-28 MAS  Created from Luminary 99.
000017:


000019:
000020:                                                                                                  #  GENERAL LAMBERT AIMPOINT GUIDANCE **
000021:                                                                                                  #  WRITTEN BY RAMA M AIYAWAR
000022:
000023:                                                                                                  #  PROGRAM P-31 DESCRIPTION **
000024:
000025:                                                                                                  #  1.    TO ACCEPT TARGETING PARAMETERS OBTAINED FROM A SOURCE EXTERNAL
000026:                                                                                                  #        TO THE LEM AND COMPUTE THERE FROM THE REQUIRED-VELOCITY AND
000027:                                                                                                  #        OTHER INITIAL CONDITIONS REQUIRED BY LM FOR DESIRED MANEUVER.
000028:                                                                                                  #        THE TARGETING PARAMETERS ARE TIG (TIME OF IGNITION), TARGET
000029:                                                                                                  #        VECTOR (RTARG), AND THE TIME FROM TIG UNTIL THE TARGET IS
000030:                                                                                                  #        REACHED (DELLT4), DESIRED TIME OF FLIGHT FROM RINIT TO RTARG..
000031:
000032:                                                                                                  #  ASSUMPTIONS **
000033:
000034:                                                                                                  #  1.    THE TARGET PARAMETERS MAY HAVE BEEN LOADED PRIOR TO THE
000035:                                                                                                  #        EXECUTION OF THIS PROGRAM.
000036:                                                                                                  #  2.    THIS PROGRAM IS APPLICABLE IN EITHER EARTH OR LUNAR ORBIT.
000037:                                                                                                  #  3.    THIS PROGRAM IS DESIGNED FOR ONE-MAN OPERATION, AND SHOULD
000038:                                                                                                  #        BE SELECTED BY THE ASTRONAUT BY DSKY ENTRY V37 E31.
000039:
000040:                                                                                                  #  SUBROUTINES USED **
000041:                                                                                                  #
000042:                                                                                                  #  MANUPARM, TTG/N35, R02BOTH, MIDGIM, DISPMGA, FLAGDOWN, BANKCALL,
000043:                                                                                                  #  GOTOPOOH, ENDOFJOB, PHASCHNG, GOFLASHR, GOFLASH.
000044:
000045:                                                                                                  #  MANUPARM      CALCULATES APOGEE, PERIGEE ALTITUDES AND DELTAV DESIRED
000046:                                                                                                  #                FOR THE MANEUVER.
000047:
000048:                                                                                                  #  TTG/N35       CLOCKTASK - UPDATES CLOCK.
000049:
000050:                                                                                                  #  MIDGIM        CALCULATES MIDDLE GIMBAL ANGLE FOR DISPLAY.
000051:
000052:                                                                                                  #  R02BOTH       IMU - STATUS CHECK ROUTINE.
000053:
000054:                                                                                                  #  DISPLAYS USED IN P-31LM **
000055:
000056:                                                                                                  #  V06N33        DISPLAY SOTRED TIG (IN HRS. MINS. SECS)
000057:                                                                                                  #  V06N42        DISPLAY APOGEE, PERIGEE, DELTAV.
000058:                                                                                                  #  V16N35        DISPLAY TIME FROM TIG.
000059:                                                                                                  #  V06N45        TIME FROM IGNITION AND MIDDLE GIMBAL ANGLE.
000060:
000061:                                                                                                  #  ERASABLE INITIALIZATION REQUIRED **
000062:
000063:                                                                                                  #  TIG           TIME OF IGNITION                DP      (B+28) CS.
000064:
000065:                                                                                                  #  DELLT4        DESIRED TIME OF FLIGHT          DP      (B+28) CS
000066:                                                                                                  #                FROM RINIT TO RTARG.
000067:
000068:                                                                                                  #  RTARG         RADIUS VECTOR OF TARGET POSITION VECTOR
000069:                                                                                                  #                RADIUS VECTOR SCALED TO (B+29)METERS IF EARTH ORBIT


000071:                                                                                                  #                RADIUS VECTOR SCALED TO (B+27)METERS IF MOON ORBIT
000072:
000073:                                                                                                  #  OUTPUT **
000074:
000075:                                                                                                  #  HAPO          APOGEE ALTITUDE
000076:                                                                                                  #  HPER          PERIGEE ALTITUDE
000077:                                                                                                  #  VGDISP        MAG. OF DELTAV FOR DISPLAY, SCALING     B+7 M/CS EARTH
000078:                                                                                                  #                MAG. OF DELTAV FOR DISPLAY, SCALING     B+5 M/CS MOON
000079:                                                                                                  #  MIDGIM        MIDDLE GIMBAL ANGLE
000080:                                                                                                  #  XDELVFLG      RESETS XDELVFLG FOR LAMBERT VG COMPUTATIONS
000081:
000082:                                                                                                  #  ALARMS OR ABORTS      NONE **
000083:
000084:                                                                                                  #  RESTARTS ARE VIA GROUP 4 **
000085:
000086: 35,2000                                           SETLOC   GLM
000087: 35,2000                                           BANK
000088:
000089: 35,2450  E7,1470                                  EBANK=   SUBEXIT
000090:
000091: 35,2450                                           COUNT*   $$/P31
000092: 35,2450           02361        P31                TC       P20FLGON
000093: 35,2451           32025                           CAF      V06N33                                #  TIG
000094: 35,2452           03712                           TC       VNPOOH
000095: 35,2453           06037                           TC       INTPRET
000096: 35,2454           71214                           CLEAR    DLOAD
000097: 35,2455           00670                                    UPDATFLG
000098: 35,2456           03442                                    TIG
000099: 35,2457           34041                           STCALL   TDEC1                                 #  INTEGRATE STATE VECTORS TO TIG
000100: 35,2460           27057                                    LEMPREC
000101: 35,2461           40375                           VLOAD    SETPD
000102: 35,2462           00001                                    RATT
000103: 35,2463           00001                                    0D
000104: 35,2464           03642                           STORE    RTIG
000105: 35,2465           26323                           STOVL    RINIT
000106: 35,2466           00007                                    VATT
000107: 35,2467           03650                           STORE    VTIG
000108: 35,2470           16331                           STODL    VINIT
000109: 35,2471           32420                                    P30ZERO
000110: 35,2472           65206                           PUSH     PDDL                                  #  E4 AND NUMIT = 0
000111: 35,2473           03452                                    DELLT4
000112: 35,2474           66015                           DAD      SXA,1
000113: 35,2475           03442                                    TIG
000114: 35,2476           02776                                    RTX1
000115: 35,2477           03631                           STORE    TPASS4
000116: 35,2500           45134                           SXA,2    CALL
000117: 35,2501           02777                                    RTX2
000118: 35,2502           22000                                    INITVEL
000119: 35,2503           41575                           VLOAD    PUSH


000121: 35,2504           02366                                    DELVEET3
000122: 35,2505           03656                           STORE    DELVSIN
000123: 35,2506           43046                           ABVAL    CLEAR
000124: 35,2507           01267                                    XDELVFLG
000125: 35,2510           37664                           STCALL   VGDISP
000126: 35,2511           15733                                    GET.LVC
000127: 35,2512           63375                           VLOAD    PDVL
000128: 35,2513           03642                                    RTIG
000129: 35,2514           02337                                    VIPRIME
000130: 35,2515           77624                           CALL
000131: 35,2516           46316                                    PERIAPO1
000132: 35,2517           77624                           CALL
000133: 35,2520           46426                                    SHIFTR1
000134: 35,2521           77624                           CALL                                           #  LIMIT DISPLAY TO 9999.9 N. MI.
000135: 35,2522           45636                                    MAXCHK
000136: 35,2523           16321                           STODL    HPER
000137: 35,2524           00005                                    4D
000138: 35,2525           77624                           CALL
000139: 35,2526           46426                                    SHIFTR1
000140: 35,2527           77624                           CALL                                           #  LIMIT DISPLAY TO 9999.9 N. MI.
000141: 35,2530           45636                                    MAXCHK
000142: 35,2531           02317                           STORE    HAPO
000143: 35,2532           77776                           EXIT
000144: 35,2533           33727                           CAF      V06N81                                #  DELVLVC
000145: 35,2534           03712                           TC       VNPOOH
000146: 35,2535           32026                           CAF      V06N42                                #  HAPO, HPER, VGDISP
000147: 35,2536           03712                           TC       VNPOOH
000148: 35,2537           06037                           TC       INTPRET
000149: 35,2540           45014        REVN1645           SET      CALL                                  #  TRKMKCNT, TTOGO, +MGA
000150: 35,2541           01071                                    FINALFLG
000151: 35,2542           73606                                    VN1645
000152: 35,2543           77650                           GOTO
000153: 35,2544           72540                                    REVN1645
000154:

End of include-file LAMBERT_AIMPOINT_GUIDANCE.agc.  Parent file is MAIN.agc


