
Source Code


000002:                                                                                                  ## Copyright:   Public domain.
000003:                                                                                                  ## Filename:    LEM_GEOMETRY.agc
000004:                                                                                                  ## Purpose:     A section of Luminary revision 98.
000005:                                                                                                  ##              It is part of the reconstructed source code for the a
000006:                                                                                                  ##              development version of the flight software for the Lunar
000007:                                                                                                  ##              Module's (LM) Apollo Guidance Computer (AGC) for Apollo 11.
000008:                                                                                                  ##              The code has been recreated from a copy of Luminary 99
000009:                                                                                                  ##              revision 001, using asterisks indicating changed lines in
000010:                                                                                                  ##              the listing and Luminary Memo #85, which lists changes between
000011:                                                                                                  ##              Luminary 98 and 99.
000012:                                                                                                  ## Reference:   pp. 320-325
000013:                                                                                                  ## Assembler:   yaYUL
000014:                                                                                                  ## Contact:     Ron Burkey <info@sandroid.org>.
000015:                                                                                                  ## Website:     www.ibiblio.org/apollo/index.html
000016:                                                                                                  ## Mod history: 2019-07-28 MAS  Created from Luminary 99.
000017:


000019: 23,2041                                           BANK     23
000020: 13,2000                                           SETLOC   LEMGEOM
000021: 13,2000                                           BANK
000022:
000023: 13,2070  30,2000                                  SBANK=   LOWSUPER
000024: 13,2070  E5,1642                                  EBANK=   XSM
000025:
000026:                                                                                                  #  THESE TWO ROUTINES COMPUTE THE ACTUAL STATE VECTOR FOR LM,CSM BY ADDING
000027:                                                                                                  #  THE CONIC R,V AND THE DEVIATIONS R,V.  THE STATE VECTORS ARE CONVERTED TO
000028:                                                                                                  #  METERS B-29 AND METERS/CSEC B-7 AND STORED APPROPRIATELY IN RN,VN OR
000029:                                                                                                  #  R-OTHER,V-OTHER FOR DOWNLINK.  THE ROUTINES NAMES ARE SWITCHED IN THE
000030:                                                                                                  #  OTHER VEHICLES COMPUTER.
000031:
000032:                                                                                                  #  INPUT
000033:                                                                                                  #        STATE VECTOR IN TEMPORARY STORAGE AREA
000034:                                                                                                  #        IF STATE VECTOR IS SCALED POS B27 AND VEL B5
000035:                                                                                                  #                SET X2 TO +2
000036:                                                                                                  #        IF STATE VECTOR IS SCALED POS B29 AND VEL B7
000037:                                                                                                  #                SET X2 TO 0
000038:
000039:                                                                                                  #  OUTPUT
000040:                                                                                                  #        R(T) IN RN, V(T) IN VN, T IN PIPTIME
000041:                                                                                                  #  OR
000042:                                                                                                  #        R(T) IN R-OTHER, V(T) IN V-OTHER        (T IS DEFINED BY T-OTHER)
000043:
000044: 13,2070                                           COUNT*   $$/GEOM
000045: 13,2070           43414        SVDWN2             BOF      RVQ                                   #  SW=1=AVETOMID DOING W-MATRIX INTEG.
000046: 13,2071           04756                                    AVEMIDSW
000047: 13,2072           26073                                    +1
000048: 13,2073           53775                           VLOAD    VSL*
000049: 13,2074           01521                                    TDELTAV
000050: 13,2075           57605                                    0          -7,2
000051: 13,2076           53655                           VAD      VSL*
000052: 13,2077           01535                                    RCV
000053: 13,2100           57576                                    0,2
000054: 13,2101           25221                           STOVL    RN
000055: 13,2102           01527                                    TNUV
000056: 13,2103           53257                           VSL*     VAD
000057: 13,2104           57602                                    0          -4,2
000058: 13,2105           01543                                    VCV
000059: 13,2106           77657                           VSL*
000060: 13,2107           57576                                    0,2
000061: 13,2110           15227                           STODL    VN
000062: 13,2111           01517                                    TET
000063: 13,2112           01235                           STORE    PIPTIME
000064: 13,2113           77616                           RVQ


000066: 13,2114           53775        SVDWN1             VLOAD    VSL*
000067: 13,2115           01521                                    TDELTAV
000068: 13,2116           57605                                    0          -7,2
000069: 13,2117           53655                           VAD      VSL*
000070: 13,2120           01535                                    RCV
000071: 13,2121           57576                                    0,2
000072: 13,2122           25720                           STOVL    R-OTHER
000073: 13,2123           01527                                    TNUV
000074: 13,2124           53257                           VSL*     VAD
000075: 13,2125           57602                                    0          -4,2
000076: 13,2126           01543                                    VCV
000077: 13,2127           77657                           VSL*
000078: 13,2130           57576                                    0,2
000079: 13,2131           01726                           STORE    V-OTHER
000080: 13,2132           77616                           RVQ
000081:


000083:                                                                                                  #  THE FOLLOWING ROUTINE TAKES A HALF UNIT TARGET VECTOR REFERRED TO NAV BASE COORDINATES AND FINDS BOTH
000084:                                                                                                  #  GIMBAL ORIENTATIONS AT WHICH THE RR MIGHT SIGHT THE TARGET.  THE GIMBAL ANGLES CORRESPONDING TO THE PRESENT MODE
000085:                                                                                                  #  ARE LEFT IN MODEA AND THOSE WHICH WOULD BE USED AFTER A REMODE IN MODEB.  THIS ROUTINE ASSUMES MODE 1 IS TRUNNION
000086:                                                                                                  #  ANGLE LESS THAN 90 DEGS IN ABS VALUE WITH ARBITRARY SHAFT, WITH A CORRESPONDING DEFINITION FOR MODE 2.  MODE
000087:                                                                                                  #  SELECTION AND LIMIT CHECKING ARE DONE ELSEWHERE.
000088:
000089:                                                                                                  #  THE MODE 1 CONFIGURATION IS CALCULATED FROM THE VECTOR AND THEN MODE 2 IS FOUND USING THE RELATIONS
000090:
000091:                                                                                                  #        S(2) = 180 + S(1)
000092:                                                                                                  #        T(2) = 180 - T(1)
000093:
000094:                                                                                                  #  THE VECTOR ARRIVES IN MPAC WHERE TRG*SMNG OR *SMNB* WILL HAVE LEFT IT.
000095:
000096: 13,2133           00041        RRANGLES           STORE    32D
000097: 13,2134           57545                           DLOAD    DCOMP                                 #  SINCE WE WILL FIND THE MODE 1 SHAFT
000098: 13,2135           00043                                    34D                                   #  ANGLE LATER, WE CAN FIND THE MODE 1
000099: 13,2136           67401                           SETPD    ASIN                                  #  TRUNNION BY SIMPLY TAKING THE ARCSIN OF
000100: 13,2137           00001                                    0                                     #  THE Y COMPONENT, THE ASIN GIVING AN
000101: 13,2140           44206                           PUSH     BDSU                                  #  ANSWER WHOSE ABS VAL IS LESS THAN 90 DEG
000102: 13,2141           24005                                    LODPHALF
000103: 13,2142           14005                           STODL    4                                     #  MODE 2 TRUNNION TO 4.
000104:
000105: 13,2143           24007                                    LO6ZEROS
000106: 13,2144           24043                           STOVL    34D                                   #  UNIT THE PROJECTION OF THE VECTOR
000107: 13,2145           00041                                    32D                                   #        IN THE X-Z PLANE
000108: 13,2146           41056                           UNIT     BOVB                                  #  IF OVERFLOW, TARGET VECTOR IS ALONG Y
000109: 13,2147           52421                                    LUNDESCH                              #  CALL FOR MANEUVER UNLESS ON LUNAR SURF
000110: 13,2150           14041                           STODL    32D                                   #  PROJECTION VECTOR.
000111: 13,2151           00041                                    32D
000112: 13,2152           44142                           SR1      STQ
000113: 13,2153           00051                                    S2
000114: 13,2154           14023                           STODL    SINTH                                 #  USE ARCTRIG SINCE SHAFT COULD BE ARB.
000115: 13,2155           00045                                    36D
000116: 13,2156           77742                           SR1
000117: 13,2157           34021                           STCALL   COSTH
000118: 13,2160           47320                                    ARCTRIG


000120: 13,2161           43206                           PUSH     DAD                                   #  MODE 1 SHAFT TO 2.
000121: 13,2162           24005                                    LODPHALF
000122: 13,2163           24007                           STOVL    6
000123: 13,2164           00005                                    4
000124: 13,2165           77634                           RTB                                            #  FIND MODE 2 CDU ANGLES.
000125: 13,2166           21635                                    2V1STO2S
000126: 13,2167           25112                           STOVL    MODEB
000127: 13,2170           00001                                    0
000128: 13,2171           77634                           RTB                                            #  MODE 1 ANGLES TO MODE A.
000129: 13,2172           21635                                    2V1STO2S
000130: 13,2173           01110                           STORE    MODEA
000131: 13,2174           77776                           EXIT
000132:
000133: 13,2175           40110                           CS       RADMODES                              #  SWAP MODEA AND MODEB IF RR IN MODE 2.
000134: 13,2176           74740                           MASK     ANTENBIT
000135: 13,2177           10000                           CCS      A
000136: 13,2200           12204                           TCF      +4
000137:
000138: 13,2201           53110                           DXCH     MODEA
000139: 13,2202           53112                           DXCH     MODEB
000140: 13,2203           53110                           DXCH     MODEA
000141:
000142: 13,2204           06037                           TC       INTPRET
000143: 13,2205           77650                           GOTO
000144: 13,2206           00051                                    S2


000146:                                                                                                  #  GIVEN RR TRUNNION AND SHAFT (T,S) IN TANGNB,+1, FIND THE ASSOCIATED
000147:                                                                                                  #  LINE OF SIGHT IN NAV BASE AXES.  THE HALF UNIT VECTOR, .5(SIN(S)COS(T),
000148:                                                                                                  #  -SIN(T),COS(S)COS(T)) IS LEFT IN MPAC AND 32D.
000149:
000150: 23,2000                                           SETLOC   INFLIGHT
000151: 23,2000                                           BANK
000152:
000153: 23,2041                                           COUNT*   $$/GEOM
000154:
000155: 23,2041           47135        RRNB               SLOAD    RTB
000156: 23,2042           03753                                    TANGNB
000157: 23,2043           21576                                    CDULOGIC
000158: 23,2044           41401                           SETPD    PUSH                                  #  TRUNNION ANGLE TO 0
000159: 23,2045           00001                                    0
000160: 23,2046           57556                           SIN      DCOMP
000161: 23,2047           14043                           STODL    34D                                   #  Y COMPONENT
000162:
000163: 23,2050           41546                           COS      PUSH                                  #  .5 COS(T) TO 0
000164: 23,2051           47135                           SLOAD    RTB
000165: 23,2052           03754                                    TANGNB     +1
000166: 23,2053           21576                                    CDULOGIC
000167: 23,2054           71406        RRNB1              PUSH     COS                                   #  SHAFT ANGLE TO 2
000168: 23,2055           72405                           DMP      SL1
000169: 23,2056           00001                                    0
000170: 23,2057           14045                           STODL    36D                                   #  Z COMPONENT
000171:
000172: 23,2060           41356                           SIN      DMP
000173: 23,2061           77752                           SL1
000174: 23,2062           24041                           STOVL    32D
000175: 23,2063           00041                                    32D
000176: 23,2064           77616                           RVQ
000177:
000178:                                                                                                  #  THIS ENTRY TO RRNB REQUIRES THE TRUNNION AND SHAFT ANGLES IN MPAC AND MPAC +1 RESPECTIVELY
000179:
000180: 23,2065           14025        RRNBMPAC           STODL    20D                                   #  SAVE SHAFT CDU IN 21.
000181: 23,2066           00155                                    MPAC                                  #  SET MODE TO DP.  (THE PRECEEDING STORE
000182:                                                                                                  #  MAY BE DP, TP OR VECTOR.)
000183: 23,2067           40234                           RTB      SETPD
000184: 23,2070           21576                                    CDULOGIC
000185: 23,2071           00001                                    0
000186: 23,2072           73406                           PUSH     SIN                                   #  TRUNNION ANGLE TO 0
000187: 23,2073           77676                           DCOMP
000188: 23,2074           14043                           STODL    34D                                   #  Y COMPONENT
000189: 23,2075           41546                           COS      PUSH                                  #  .5COS(T) TO 0
000190: 23,2076           47135                           SLOAD    RTB                                   #  PICK UP CDU'S.
000191: 23,2077           00026                                    21D
000192: 23,2100           21576                                    CDULOGIC
000193: 23,2101           77650                           GOTO
000194: 23,2102           46054                                    RRNB1


000197:
000198:

End of include-file LEM_GEOMETRY.agc.  Parent file is MAIN.agc


