
Source Code


000002:                                                                                                  ## Copyright:   Public domain.
000003:                                                                                                  ## Filename:    P12.agc
000004:                                                                                                  ## Purpose:     A section of Luminary revision 98.
000005:                                                                                                  ##              It is part of the reconstructed source code for the a
000006:                                                                                                  ##              development version of the flight software for the Lunar
000007:                                                                                                  ##              Module's (LM) Apollo Guidance Computer (AGC) for Apollo 11.
000008:                                                                                                  ##              The code has been recreated from a copy of Luminary 99
000009:                                                                                                  ##              revision 001, using asterisks indicating changed lines in
000010:                                                                                                  ##              the listing and Luminary Memo #85, which lists changes between
000011:                                                                                                  ##              Luminary 98 and 99.
000012:                                                                                                  ## Reference:   pp. 838-842
000013:                                                                                                  ## Assembler:   yaYUL
000014:                                                                                                  ## Contact:     Ron Burkey <info@sandroid.org>.
000015:                                                                                                  ## Website:     www.ibiblio.org/apollo/index.html
000016:                                                                                                  ## Mod history: 2019-07-28 MAS  Created from Luminary 99.
000017:


000019: 24,3670                                           BANK     24
000020: 30,2000                                           SETLOC   P12
000021: 30,2000                                           BANK
000022:
000023: 30,2061  E7,1515                                  EBANK=   DVCNTR
000024: 30,2061                                           COUNT*   $$/P12
000025:
000026: 30,2061           05353        P12LM              TC       PHASCHNG
000027: 30,2062           04024                           OCT      04024
000028:
000029: 30,2063           04616                           TC       BANKCALL
000030: 30,2064           11254                           CADR     R02BOTH                               #  CHECK THE STATUS OF THE IMU.
000031:
000032: 30,2065           05504                           TC       UPFLAG
000033: 30,2066           00141                           ADRES    MUNFLAG
000034:
000035: 30,2067           05504                           TC       UPFLAG                                #  INSURE 4-JET TRANSLATION CAPABILITY.
000036: 30,2070           00307                           ADRES    ACC4-2FL
000037:
000038: 30,2071           05504                           TC       UPFLAG                                #  PREVENT R10 FROM ISSUING CROSS-POINTER
000039: 30,2072           00015                           ADRES    R10FLAG                               #  OUTPUTS.
000040:
000041: 30,2073           06011                           TC       CLRADMOD                              #  INITIALIZE RADMODES FOR R29.
000042:
000043: 30,2074           05516                           TC       DOWNFLAG                              #  CLEAR RENDEZVOUS FLAG  FOR P22
000044: 30,2075           00010                           ADRES    RNDVZFLG
000045:
000046: 30,2076           36000                           CAF      THRESH2                               #  INITIALIZE DVMON
000047: 30,2077           55251                           TS       DVTHRUSH
000048: 30,2100           34751                           CAF      FOUR
000049: 30,2101           55515                           TS       DVCNTR
000050:
000051: 30,2102           34755                           CA       ZERO
000052: 30,2103           55462                           TS       TRKMKCNT                              #  SHOW THAT R29 DOWNLINK DATA ISN'T READY.
000053: 30,2104           33035                           CAF      V06N33A
000054: 30,2105           04616                           TC       BANKCALL                              #  FLASH TIG
000055: 30,2106           20476                           CADR     GOFLASH
000056: 30,2107           16001                           TCF      GOTOPOOH
000057: 30,2110           12112                           TCF      +2                                    #  PROCEED
000058: 30,2111           12104                           TCF      -5                                    #  ENTER
000059:
000060: 30,2112           05353                           TC       PHASCHNG
000061: 30,2113           04024                           OCT      04024
000062:
000063: 30,2114           06037                           TC       INTPRET
000064: 30,2115           77624                           CALL                                           #  INITIALIZE WM AND /LAND/
000065: 30,2116           46432                                    GUIDINIT
000066: 30,2117           45014                           SET      CALL
000067: 30,2120           04464                                    FLPI
000068: 30,2121           60254                                    P12INIT


000070: 30,2122           77745        P12LMB             DLOAD
000071: 30,2123           25761                                    (TGO)A                                #  SET TGO TO AN INITIAL NOMINAL VALUE.
000072: 30,2124           17517                           STODL    TGO
000073: 30,2125           03442                                    TIG
000074: 30,2126           34041                           STCALL   TDEC1
000075: 30,2127           27057                                    LEMPREC                               #  ROTATE THE STATE VECTORS TO THE
000076: 30,2130           64375                           VLOAD    MXV                                   #  IGNITION TIME.
000077: 30,2131           00007                                    VATT
000078: 30,2132           01734                                    REFSMMAT
000079: 30,2133           77772                           VSL1
000080: 30,2134           27601                           STOVL    V1S                                   #  COMPUTE V1S = VEL(TIG)*2(-7) M/CS.
000081: 30,2135           00001                                    RATT
000082: 30,2136           52521                           MXV      VSL6
000083: 30,2137           01734                                    REFSMMAT
000084: 30,2140           37521                           STCALL   R                                     #  COMPUTE R = POS(TIG)*2(-24) M.
000085: 30,2141           67130                                    MUNGRAV                               #  COMPUTE GDT1/2(TIG)*2(-7)M/CS.
000086: 30,2142           53575                           VLOAD    UNIT
000087: 30,2143           03521                                    R
000088: 30,2144           37537                           STCALL   UNIT/R/                               #  COMPUTE UNIT/R/ FOR YCOMP.
000089: 30,2145           57312                                    YCOMP
000090: 30,2146           57461                           SR       DCOMP
000091: 30,2147           20606                                    5D
000092: 30,2150           17643                           STODL    XRANGE                                #  INITIALIZE XRANGE FOR NOUN 76.
000093: 30,2151           06456                                    VINJNOM
000094: 30,2152           16277                           STODL    ZDOTD
000095: 30,2153           06460                                    RDOTDNOM
000096: 30,2154           02273                           STORE    RDOTD
000097: 30,2155           77776                           EXIT
000098:
000099: 30,2156           05353                           TC       PHASCHNG
000100: 30,2157           04024                           OCT      04024
000101:
000102: 30,2160           33034        NEWLOAD            CAF      V06N76                                #  FLASH CROSS-RANGE AND APOLUNE VALUES.
000103: 30,2161           04616                           TC       BANKCALL
000104: 30,2162           20476                           CADR     GOFLASH
000105: 30,2163           16001                           TCF      GOTOPOOH
000106: 30,2164           12166                           TCF      +2                                    #  PROCEED
000107: 30,2165           12160                           TCF      NEWLOAD                               #  ENTER NEW DATA.
000108:
000109: 30,2166           32320                           CAF      P12ADRES
000110: 30,2167           55455                           TS       WHICH
000111:
000112: 30,2170           05353                           TC       PHASCHNG
000113: 30,2171           04024                           OCT      04024
000114:
000115: 30,2172           06037                           TC       INTPRET
000116: 30,2173           54345                           DLOAD    SL
000117: 30,2174           03643                                    XRANGE
000118: 30,2175           20206                                    5D
000119: 30,2176           77615                           DAD


000121: 30,2177           02335                                    Y
000122: 30,2200           27633                           STOVL    YCO
000123: 30,2201           03537                                    UNIT/R/
000124: 30,2202           53361                           VXSC     VAD
000125: 30,2203           06454                                    49FPS
000126: 30,2204           03601                                    V1S
000127: 30,2205           03527                           STORE    V                                     #  V(TIPOVER) = V(IGN) + 57FPS (UNIT/R/)
000128: 30,2206           72441                           DOT      SL1
000129: 30,2207           03537                                    UNIT/R/
000130: 30,2210           27474                           STOVL    RDOT                                  #  RDOT * 2(-7)
000131: 30,2211           03537                                    UNIT/R/
000132: 30,2212           53435                           VXV      UNIT
000133: 30,2213           03720                                    QAXIS
000134: 30,2214           03726                           STORE    ZAXIS1
000135: 30,2215           77614                           SETGO
000136: 30,2216           04421                                    FLVR
000137: 30,2217           60321                                    ASCENT
000138: 30,2220           77745        P12RET             DLOAD
000139: 30,2221           02361                                    ATP                                   #  ATP(2)*2(18)
000140: 30,2222           65316                           DSQ      PDDL
000141: 30,2223           02355                                    ATY                                   #  ATY(2)*2(18)
000142: 30,2224           43316                           DSQ      DAD
000143: 30,2225           75454                           BZE      SQRT
000144: 30,2226           60232                                    YAWDUN
000145: 30,2227           55352                           SL1      BDDV
000146: 30,2230           02355                                    ATY
000147: 30,2231           77736                           ARCSIN
000148: 30,2232           26363        YAWDUN             STOVL    YAW
000149: 30,2233           03254                                    UNFC/2
000150: 30,2234           50256                           UNIT     DOT
000151: 30,2235           03537                                    UNIT/R/
000152: 30,2236           65552                           SL1      ARCCOS
000153: 30,2237           77676                           DCOMP
000154: 30,2240           02365                           STORE    PITCH
000155: 30,2241           77776                           EXIT
000156: 30,2242           05353                           TC       PHASCHNG
000157: 30,2243           04024                           OCT      04024
000158:
000159: 30,2244           05516                           TC       DOWNFLAG
000160: 30,2245           00213                           ADRES    FLPI
000161:
000162: 30,2246           00004                           INHINT
000163: 30,2247           04674                           TC       IBNKCALL
000164: 30,2250           40142                           CADR     PFLITEDB
000165: 30,2251           00003                           RELINT
000166:
000167: 30,2252           04635                           TC       POSTJUMP
000168: 30,2253           74126                           CADR     BURNBABY
000169:
000170: 30,2254           77745        P12INIT            DLOAD                                          #  INITIALIZE ENGINE DATA.  USED FOR P12 AND


000172: 30,2255           16013                                    (1/DV)A                               #  P71.
000173: 30,2256           03641                           STORE    1/DV3
000174: 30,2257           03637                           STORE    1/DV2
000175: 30,2260           17635                           STODL    1/DV1
000176: 30,2261           16017                                    (AT)A
000177: 30,2262           16263                           STODL    AT
000178: 30,2263           16021                                    (TBUP)A
000179: 30,2264           16271                           STODL    TBUP
000180: 30,2265           34013                                    ATDECAY
000181: 30,2266           54276                           DCOMP    SL
000182: 30,2267           20214                                    11D
000183: 30,2270           02267                           STORE    TTO
000184: 30,2271           57535                           SLOAD    DCOMP
000185: 30,2272           26001                                    APSVEX
000186: 30,2273           77702                           SR2
000187: 30,2274           02265                           STORE    VE
000188: 30,2275           43414                           BOFF     RVQ
000189: 30,2276           04747                                    FLAP
000190: 30,2277           60300                                    COMMINIT
000191: 30,2300           43345        COMMINIT           DLOAD    DAD                                   #  INITIALIZE TARGET DATA.  USED BY P12, P70
000192: 30,2301           25757                                    HINJECT                               #  AND P71 IF IT DOES NOT FOLLOW P70.
000193: 30,2302           02333                                    /LAND/
000194: 30,2303           17631                           STODL    RCO
000195: 30,2304           06522                                    HI6ZEROS
000196: 30,2305           03654                           STORE    TXO
000197: 30,2306           03633                           STORE    YCO
000198: 30,2307           02273                           STORE    RDOTD
000199: 30,2310           26275                           STOVL    YDOTD
000200: 30,2311           01563                                    VRECTCSM
000201: 30,2312           64235                           VXV      MXV
000202: 30,2313           01555                                    RRECTCSM
000203: 30,2314           01734                                    REFSMMAT
000204: 30,2315           77656                           UNIT
000205: 30,2316           03720                           STORE    QAXIS
000206: 30,2317           77616                           RVQ
000207: 30,2320           02022        P12ADRES           REMADR   P12TABLE
000208:
000209: 23,2000                                           SETLOC   P12A
000210: 23,2000                                           BANK
000211: 23,2432                                           COUNT*   $$/P12
000212:
000213: 23,2432           40220        GUIDINIT           STQ      SETPD
000214: 23,2433           01164                                    TEMPR60
000215: 23,2434           00001                                    0D
000216: 23,2435           41575                           VLOAD    PUSH
000217: 23,2436           06514                                    UNITZ
000218: 23,2437           41434                           RTB      PUSH
000219: 23,2440           21573                                    LOADTIME
000220: 23,2441           77624                           CALL
000221: 23,2442           55716                                    RP-TO-R


000223: 23,2443           74321                           MXV      VXSC
000224: 23,2444           01734                                    REFSMMAT
000225: 23,2445           16027                                    MOONRATE
000226: 23,2446           26325                           STOVL    WM
000227: 23,2447           02023                                    RLS
000228: 23,2450           52446                           ABVAL    SL3
000229: 23,2451           36333                           STCALL   /LAND/
000230: 23,2452           01164                                    TEMPR60
000231:
000232: 23,2453           00046 07374  49FPS              2DEC     .149352    B-6                        #  EXPECTED RDOT AT TIPOVER
000233: 23,2455           04145 15527  VINJNOM            2DEC     16.7924    B-7                        #  5509.5 FPS(APO=30NM WITH RDOT=19.5FPS)
000234: 23,2457           00007 23346  RDOTDNOM           2DEC     .059436    B-7                        #  19.5 FPS
000235:
000236:

End of include-file P12.agc.  Parent file is MAIN.agc


