
Source Code


000002:                                                                                                  ## Copyright:   Public domain.
000003:                                                                                                  ## Filename:    P30,P37.agc
000004:                                                                                                  ## Purpose:     A section of Luminary revision 98.
000005:                                                                                                  ##              It is part of the reconstructed source code for the a
000006:                                                                                                  ##              development version of the flight software for the Lunar
000007:                                                                                                  ##              Module's (LM) Apollo Guidance Computer (AGC) for Apollo 11.
000008:                                                                                                  ##              The code has been recreated from a copy of Luminary 99
000009:                                                                                                  ##              revision 001, using asterisks indicating changed lines in
000010:                                                                                                  ##              the listing and Luminary Memo #85, which lists changes between
000011:                                                                                                  ##              Luminary 98 and 99.
000012:                                                                                                  ## Reference:   pp. 614-617
000013:                                                                                                  ## Assembler:   yaYUL
000014:                                                                                                  ## Contact:     Ron Burkey <info@sandroid.org>.
000015:                                                                                                  ## Website:     www.ibiblio.org/apollo/index.html
000016:                                                                                                  ## Mod history: 2019-07-28 MAS  Created from Luminary 99.
000017:


000019:                                                                                                  #  PROGRAM DESCRIPTION P30       DATE 3-6-67
000020:
000021:                                                                                                  #  MOD.1 BY RAMA AIYAWAR
000022:
000023:                                                                                                  #  FUNCTIONAL DESCRIPTION
000024:                                                                                                  #        ACCEPT ASTRONAUT INPUTS OF TIG,DELV(LV)
000025:                                                                                                  #        CALL IMU STATUS CHECK ROUTINE (R02)
000026:                                                                                                  #        DISPLAY TIME TO GO, APOGEE, PERIGEE, DELV(MAG), MGA AT IGN
000027:                                                                                                  #        REQUEST BURN PROGRAM
000028:
000029:                                                                                                  #  CALLING SEQUENCE VIA JOB FROM V37
000030:
000031:                                                                                                  #  EXIT VIA V37 CALL OR TO GOTOPOOH (V34E)
000032:
000033:                                                                                                  #  SUBROUTINE CALLS -    FLAGUP, PHASCHNG, BANKCALL, ENDOFJOB, GOFLASH, GOFLASHR
000034:                                                                                                  #                        GOPERF3R, INTPRET, BLANKET, GOTOPOOH, R02BOTH, S30.1,
000035:                                                                                                  #                        TTG/N35, MIDGIM, DISPMGA
000036:
000037:                                                                                                  #  ERASABLE INITIALIZATION - STATE VECTOR
000038:
000039:                                                                                                  #  OUTPUT -      RINIT, VINIT, +MGA, VTIG, RTIG, DELVSIN, DELVSAB, DELVSLV, HAPO,
000040:                                                                                                  #                HPER, TTOGO
000041:
000042:                                                                                                  #  DEBRIS - A, L, MPAC, PUSHLIST
000043:
000044: 32,2776                                           BANK     32
000045: 35,2000                                           SETLOC   P30S
000046: 35,2000                                           BANK
000047: 35,2000  E4,1652                                  EBANK=   +MGA
000048: 35,2000                                           COUNT*   $$/P30
000049: 35,2000           05504        P30                TC       UPFLAG                                #  SET UPDATE FLAG
000050: 35,2001           00027                           ADRES    UPDATFLG
000051: 35,2002           05504                           TC       UPFLAG                                #  SET TRACK FLAG
000052: 35,2003           00031                           ADRES    TRACKFLG
000053:
000054: 35,2004           32025        P30N33             CAF      V06N33                                #  T OF IGN
000055: 35,2005           03712                           TC       VNPOOH                                #  RETURNS ON PROCEED, POOH ON TERMINATE
000056:
000057: 35,2006           33727                           CAF      V06N81                                #  DISPLAY DELTA V (LV)
000058: 35,2007           03712                           TC       VNPOOH                                #        REDISPLAY ON RECYCLE
000059:
000060: 35,2010           05516                           TC       DOWNFLAG                              #  RESET UPDATE FLAG
000061: 35,2011           00027                           ADRES    UPDATFLG
000062: 35,2012           06037                           TC       INTPRET
000063: 35,2013           77624                           CALL
000064: 35,2014           70000                                    S30.1
000065: 35,2015           77414                           SET      EXIT
000066: 35,2016           00470                                    UPDATFLG
000067: 35,2017           32026        PARAM30            CAF      V06N42                                #  DISPLAY APOGEE,PERIGEE,DELTA V
000068: 35,2020           03712                           TC       VNPOOH


000070:
000071: 35,2021           06037                           TC       INTPRET
000072: 35,2022           77614                           SETGO
000073: 35,2023           01027                                    XDELVFLG                              #  FOR P40'S: EXTERNAL DELTA-V GUIDANCE.
000074: 35,2024           72540                                    REVN1645                              #  TRKMKCNT, TGO, +MGA  DISPLAY
000075:
000076: 35,2025           01441        V06N33             VN       0633
000077: 35,2026           01452        V06N42             VN       0642
000078:


000080:                                                                                                  #  PROGRAM DESCRIPTION S30.1     DATE 9NOV66
000081:                                                                                                  #  MOD NO 1                      LOG SECTION P30,P37
000082:                                                                                                  #  MOD BY RAMA AIYAWAR **
000083:
000084:                                                                                                  #  FUNCTIONAL DESCRIPTION
000085:                                                                                                  #        BASED ON STORED TARGET PARAMETERS (R OF IGNITION (RTIG), V OF
000086:                                                                                                  #        IGNITION (VTIG), TIME OF IGNITION (TIG)), COMPUTE PERIGEE ALTITUDE
000087:                                                                                                  #        APOGEE ALTITUDE AND DELTAV REQUIRED (DELVSIN).
000088:
000089:                                                                                                  #  CALLING SEQUENCE
000090:                                                                                                  #        L       CALL
000091:                                                                                                  #        L+1             S30.1
000092:
000093:                                                                                                  #  NORMAL EXIT MODE
000094:                                                                                                  #        AT L+2 OR CALLING SEQUENCE (GOTO L+2)
000095:
000096:                                                                                                  #  SUBROUTINES CALLED
000097:                                                                                                  #        LEMPREC
000098:                                                                                                  #        PERIAPO
000099:
000100:                                                                                                  #  ALARM OR ABORT EXIT MODES
000101:                                                                                                  #        NONE
000102:
000103:                                                                                                  #  ERASABLE INITIALIZATION REQUIRED
000104:                                                                                                  #        TIG             TIME OF IGNITION        DP B28CS
000105:                                                                                                  #        DELVSLV         SPECIFIED DELTA-V IN LOCAL VERT.
000106:                                                                                                  #                        COORDS. OF ACTIVE VEHICLE AT
000107:                                                                                                  #                        TIME OF IGNITION        VECTOR B+7 METERS/CS
000108:
000109:                                                                                                  #  OUTPUT
000110:                                                                                                  #        RTIG            POSITION AT TIG         VECTOR B+29 METERS
000111:                                                                                                  #        VTIG            VELOCITY AT TIG         VECTOR B+29 METERS/CS
000112:                                                                                                  #        PDL 4D          APOGEE ALTITUDE         DP B+29 M, B+27 METERS.
000113:                                                                                                  #        HAPO            APOGEE ALTITUDE         DP B+29 METERS
000114:                                                                                                  #        PDL 8D          PERIGEE ALTITUDE        DP B+29 M, B+27 METERS.
000115:                                                                                                  #        HPER            PERIGEE ALTITUDE        DP B+29 METERS
000116:                                                                                                  #        DELVSIN         SPECIFIED DELTA-V IN INERTIAL
000117:                                                                                                  #                        COORD. OF ACTIVE VEHICLE AT
000118:                                                                                                  #                        TIME OF IGNITION        VECTOR B+7 METERS/CS
000119:                                                                                                  #        DELVSAB         MAG. OF DELVSIN         VECTOR B+7 METERS/CS
000120:
000121:                                                                                                  #  DEBRIS        QTEMP   TEMP.ERASABLE
000122:                                                                                                  #                QPRET, MPAC
000123:                                                                                                  #                PUSHLIST
000124:
000125: 34,2000                                           SETLOC   P30S1
000126: 34,2000                                           BANK
000127:
000128: 34,2000                                           COUNT*   $$/S30S
000129:
000130: 34,2000           71220        S30.1              STQ      DLOAD
000131: 34,2001           03632                                    QTEMP
000132: 34,2002           03442                                    TIG                                   #  TIME IGNITION SCALED AT 2(+28)CS
000133: 34,2003           34041                           STCALL   TDEC1
000134: 34,2004           27057                                    LEMPREC                               #  ENCKE ROUTINE FOR LEM
000135:
000136: 34,2005           67175                           VLOAD    SXA,2


000138: 34,2006           00001                                    RATT
000139: 34,2007           02777                                    RTX2
000140: 34,2010           03642                           STORE    RTIG                                  #  RADIUS VECTOR AT IGNITION TIME
000141: 34,2011           57456                           UNIT     VCOMP
000142: 34,2012           27656                           STOVL    DELVSIN                               #  ZRF/LV IN DELVSIN SCALED AT 2
000143: 34,2013           00007                                    VATT                                  #  VELOCITY VECTOR AT TIG, SCALED 2(7) M/CS
000144: 34,2014           03650                           STORE    VTIG
000145: 34,2015           53435                           VXV      UNIT
000146: 34,2016           03642                                    RTIG
000147: 34,2017           66001                           SETPD    SXA,1
000148: 34,2020           00001                                    0
000149: 34,2021           02776                                    RTX1
000150: 34,2022           47206                           PUSH     VXV                                   #  YRF/LV PDL 0 SCALED AT 2
000151: 34,2023           03656                                    DELVSIN
000152: 34,2024           63372                           VSL1     PDVL
000153: 34,2025           63315                           PDVL     PDVL                                  #  YRF/LV PDL 6 SCALED AT 2
000154: 34,2026           03656                                    DELVSIN                               #  ZRF/LV PDL 12D SCALED AT 2
000155: 34,2027           03434                                    DELVSLV
000156: 34,2030           76505                           VXM      VSL1
000157: 34,2031           00001                                    0
000158: 34,2032           03656                           STORE    DELVSIN                               #  DELTAV IN INERT. COOR. SCALED TO B+7M/CS
000159: 34,2033           77646                           ABVAL
000160: 34,2034           27664                           STOVL    DELVSAB                               #  DELTA V MAG.
000161: 34,2035           03642                                    RTIG                                  #  (FOR PERIAPO)
000162: 34,2036           53315                           PDVL     VAD                                   #  VREQUIRED = VTIG + DELVSIN (FOR PERIAPO)
000163: 34,2037           03650                                    VTIG
000164: 34,2040           03656                                    DELVSIN
000165: 34,2041           77624                           CALL
000166: 34,2042           46316                                    PERIAPO1
000167: 34,2043           77624                           CALL
000168: 34,2044           46426                                    SHIFTR1                               #  RESCALE IF NEEDED
000169: 34,2045           77624                           CALL                                           #  LIMIT DISPLAY TO 9999.9 N. MI.
000170: 34,2046           45636                                    MAXCHK
000171: 34,2047           16321                           STODL    HPER                                  #  PERIGEE ALT 2(29) METERS, FOR DISPLAY
000172: 34,2050           00005                                    4D
000173: 34,2051           77624                           CALL
000174: 34,2052           46426                                    SHIFTR1                               #  RESCALE IF NEEDED
000175: 34,2053           77624                           CALL                                           #  LIMIT DISPLAY TO 9999.9 N. MI.
000176: 34,2054           45636                                    MAXCHK
000177: 34,2055           36317                           STCALL   HAPO                                  #  APOGEE ALT 2(29) METERS, FOR DISPLAY
000178: 34,2056           03632                                    QTEMP
000179:
000180:

End of include-file P30,P37.agc.  Parent file is MAIN.agc


