
Source Code


000002:                                                                                                  ## Copyright:   Public domain.
000003:                                                                                                  ## Filename:    P40-P47.agc
000004:                                                                                                  ## Purpose:     A section of Luminary revision 98.
000005:                                                                                                  ##              It is part of the reconstructed source code for the a
000006:                                                                                                  ##              development version of the flight software for the Lunar
000007:                                                                                                  ##              Module's (LM) Apollo Guidance Computer (AGC) for Apollo 11.
000008:                                                                                                  ##              The code has been recreated from a copy of Luminary 99
000009:                                                                                                  ##              revision 001, using asterisks indicating changed lines in
000010:                                                                                                  ##              the listing and Luminary Memo #85, which lists changes between
000011:                                                                                                  ##              Luminary 98 and 99.
000012:                                                                                                  ## Reference:   pp. 752-784
000013:                                                                                                  ## Assembler:   yaYUL
000014:                                                                                                  ## Contact:     Ron Burkey <info@sandroid.org>.
000015:                                                                                                  ## Website:     www.ibiblio.org/apollo/index.html
000016:                                                                                                  ## Mod history: 2019-07-28 MAS  Created from Luminary 99.
000017:                                                                                                  ##              2021-05-30 ABS  TGDCALC -> TGOCALC
000018:


000020:                                                                                                  #  PROGRAM DESCRIPTION  P40BOTH          DECEMBER 22, 1966
000021:                                                                                                  #  MOD 03 BY PETER ADLER                 MARCH 3, 1967
000022:                                                                                                  #  CALLED VIA JOB FROM V37E
000023:
000024:                                                                                                  #  FUNCTIONAL DESCRIPTION
000025:
000026:                                                                                                  #        1)      TO COMPUTE A PREFERRED IMU ORIENTATION AND A PREFERRED VEHICLE ATTITUDE FOR A LM DPS
000027:                                                                                                  #                THRUSTING MANEUVER.


000029:                                                                                                  #        3)      TO DO THE VEHICLE MANEUVER TO THE THRUSTING ATTITUDE.
000030:                                                                                                  #        4)      TO CONTROL THE PGNCS DURING COUNTDOWN, IGNITION, THRUSTING, AND THRUST TERMINATION OF A
000031:                                                                                                  #                PGNCS CONTROLLED DPS MANEUVER.
000032:                                                                                                  #        5)      IN POSTBURN--ZERO RENDEZVOUS COUNTER, MAINTAIN VG CALCULATIONS FOR POSSIBLE RCS MANEUVER,
000033:                                                                                                  #                SET MAXIMUM DEADBAND IN DAP, RESET STEERLAW CSTEER TO ZERO.
000034:
000035:                                                                                                  #        NOTE:   P42, WHICH IS IN THIS LOG SECTION, DOES THE SAME FOR AN APS BURN, AND P41 DOES 1-3 FOR
000036:                                                                                                  #                RCS PLUS DISPLAYS PARAMETERS FOR MANUAL CONTROL.
000037:
000038:                                                                                                  #  SUBROUTINES USED
000039:
000040:                                                                                                  #        R02             IMU STATUS CHECK
000041:                                                                                                  #        S40.1           COMPUTATION OF THRUST DIRECTION
000042:                                                                                                  #        S40.13          LENGTH OF BURN
000043:                                                                                                  #        S40.2,3         PREFERRED IMU ORIENATTION
000044:                                                                                                  #        S40.8           X PRODUCT STEERING
000045:                                                                                                  #        S40.9           LAMBERT VTOGAIN
000046:                                                                                                  #        R60LEM          ATTITUDE MANEUVER
000047:                                                                                                  #        LEMPREC         EXTRAPOLATE STATE VECTOR
000048:                                                                                                  #        PREREAD         AVERAGE G, SERVICER
000049:                                                                                                  #        ALLCOAST        DAP COASTING INITIALIZATION
000050:                                                                                                  #        CLOKTASK        ERGO CLOCKJOB -- COUNT DOWN
000051:                                                                                                  #        PHASCHNG, INTPRET, FLAGUP, FLAGDOWN, WAITLIST, LONGCALL, GOFLASH, GOFLASHR, GOPERF1, ALARM,
000052:                                                                                                  #        PRIOLARM, GOTOPOOH, ENDOFJOB, BANKCALL, SETMAXDB, SETMINDB, CHECKMM, FLATOUT, OUTFLAT,
000053:                                                                                                  #        KILLTASK, SGNAGREE, TPAGREE, ETC.
000054:
000055:                                                                                                  #  RESTARTS VIA GROUP 4
000056:
000057:                                                                                                  #  DISPLAYS
000058:
000059:                                                                                                  #        V50N25  203 A/P TO PGNCS, AUTOTHROTTLE MODE, AUTO ATTITUDE CONTROL
000060:                                                                                                  #        V06N40  TTI, VG, DELTAVM (DISPLAYED ONCE/SECOND BY CLOKTASK)
000061:                                                                                                  #        V50N99  PLEASE PERFORM ENGINE ON ENABLE
000062:                                                                                                  #        V06N40  TG (TIME TO GO TO CUTOFF), VG, DELTAVM -- ONCE/SECOND
000063:                                                                                                  #        V16N40  FINAL VALUES OF TG, VG, DELTAVM
000064:                                                                                                  #        V16N85  COMP OF VG (BODY AXES) FOR POSS. RCS MANUAL MANEUVER
000065:                                                                                                  #        V05N09  POSSIBLE ALARMS
000066:                                                                                                  #        V50N07  PLEASE SELECT P00
000067:


000069:                                                                                                  #        VIA R30
000070:
000071:                                                                                                  #        V06N44  HAPO, PERI, TFF
000072:                                                                                                  #        V06N35  TIME TO PERIGEE, HMS
000073:
000074:                                                                                                  #  ALARM OR ABORT EXIT MODES
000075:
000076:                                                                                                  #        PROGRAM ALARM, FLASHING DISPLAY OF ALARM CODE 1706 IF P40 SELECTED WITH DESCENT UNIT STAGED.
000077:                                                                                                  #        V34E (TERMINATE) IS THE ONLY RESPONSE ACCEPTED.  TC GOTOPOOH.
000078:
000079:                                                                                                  #        PROGRAM ALARM, FLASH CODE 1703:  TIG LESS THAN 45 SECS AWAY.  V34E= GOTOPOOH OR V33E= SLIP
000080:                                                                                                  #        TIG BY 45 SECS.
000081:
000082:                                                                                                  #  ERASABLE INITIALIZATION
000083:
000084:                                                                                                  #  DEBRIS
000085:
000086:                                                                                                  #  OUTPUT
000087:
000088:                                                                                                  #        SEE SUBROUTINES E.G.:  S40.1, S40.2,3, S40.13, S40.8, S40.9, TRIMGIMB
000089:                                                                                                  #        XDELVFLG = 1 FOR EXT DELV COMPUTATION
000090:                                                                                                  #                 = 0 FOR AIMPT (LAMBERT) COMP
000091:
000092: 27,2246                                           COUNT*   $$/P40
000093: 27,2246  E7,1455                                  EBANK=   WHICH
000094:
000095: 36,3147                                           BANK     36
000096: 36,2000                                           SETLOC   P40S
000097: 36,2000                                           BANK
000098:
000099: 36,3147           05353        P40LM              TC       PHASCHNG
000100: 36,3150           04024                           OCT      04024
000101:
000102: 36,3151           33133                           CAF      P40ADRES                              #  INITIALIZATION FOR BURNBABY.
000103: 36,3152           55455                           TS       WHICH
000104:
000105: 36,3153           30106                           CA       FLGWRD10
000106: 36,3154           74737                           MASK     APSFLBIT
000107: 36,3155           10000                           CCS      A
000108: 36,3156           13121                           TCF      P40ALM
000109: 36,3157           04616                           TC       BANKCALL                              #  GO DO IMU STATUS CHECK ROUTINE.
000110: 36,3160           11254                           CADR     R02BOTH
000111:
000112: 36,3161           40111                           CS       DAPBOOLS                              #  INITIALIZE DVMON
000113: 36,3162           74737                           MASK     CSMDOCKD
000114: 36,3163           10000                           CCS      A
000115: 36,3164           32020                           CAF      THRESH1
000116: 36,3165           62021                           AD       THRESH3
000117: 36,3166           55251                           TS       DVTHRUSH
000118: 36,3167           34751                           CAF      FOUR
000119: 36,3170           55515                           TS       DVCNTR


000121: 36,3171           06037                           TC       INTPRET                               #  LOAD CONSTANTS FOR DPS BURN
000122: 36,3172           43175                           VLOAD    CLEAR                                 #  LOAD F, MDOT, TDECAY
000123: 36,3173           34001                                    FDPS
000124: 36,3174           02663                                    NOTHROTL
000125: 36,3175           03735                           STORE    F
000126: 36,3176           77735                           SLOAD
000127: 36,3177           26002                                    DPSVEX
000128: 36,3200           70476        P40IN              DCOMP    SR1
000129: 36,3201           37743                           STCALL   VEX                                   #  LOAD EXHAUST VELOCITY FOR TGO COMP.
000130: 36,3202           56246                                    S40.1                                 #  COMPUTES UT AND VGTIG
000131: 36,3203           77624                           CALL
000132: 36,3204           56413                                    S40.2,3                               #  COMPUTES PREFERRED IMU ORIENTATION
000133: 36,3205           77776                           EXIT
000134:
000135: 36,3206           00004                           INHINT
000136: 36,3207           04674                           TC       IBNKCALL
000137: 36,3210           40142                           CADR     PFLITEDB                              #  ZERO ATTITUDE ERRORS, SET DB TO ONE DEG.
000138:
000139: 36,3211           03213                           TC       P40SXT4
000140:
000141:                                                                                                  #        ***********************
000142:
000143: 36,3212           12126                           TCF      BURNBABY
000144:
000145:                                                                                                  #        ***********************
000146:
000147: 36,3213           00006        P40SXT4            EXTEND
000148: 36,3214           23142                           QXCH     P40/RET
000149: 36,3215           00003        P41MANU            RELINT
000150:
000151: 36,3216           05516                           TC       DOWNFLAG                              #  CLEAR 3AXISFLG -- R60 WILL USE VECPOINT.
000152: 36,3217           00124                           ADRES    3AXISFLG
000153:
000154: 36,3220           04616                           TC       BANKCALL
000155: 36,3221           54123                           CADR     R60LEM                                #  DO ATTITUDE MANEUVER ROUTINE
000156: 36,3222           01142                           TC       P40/RET
000157:
000158: 36,3223  E7,1462                                  EBANK=   TRKMKCNT
000159: 36,3223           30005        POSTBURN           CA       Z
000160: 36,3224           55163                           TS       DISPDEX
000161: 36,3225           00006                           EXTEND
000162: 36,3226           32056                           DCA      ACADN85
000163: 36,3227           53253                           DXCH     AVEGEXIT
000164: 36,3230           33760                           CAF      V16N40
000165: 36,3231           04616                           TC       BANKCALL
000166: 36,3232           20635                           CADR     GOFLASHR
000167: 36,3233           03256                           TC       TERM40
000168: 36,3234           13241                           TCF      TIGNOW
000169: 36,3235           03223                           TC       POSTBURN


000171: 36,3236           05353        P40PHS1            TC       PHASCHNG
000172: 36,3237           00014                           OCT      00014
000173: 36,3240           15155                           TCF      ENDOFJOB
000174:
000175: 36,3241           00004        TIGNOW             INHINT
000176: 36,3242           04674                           TC       IBNKCALL
000177: 36,3243           40153                           CADR     ZATTEROR
000178: 36,3244           04674                           TC       IBNKCALL
000179: 36,3245           40140                           CADR     SETMINDB
000180: 36,3246           00003                           RELINT
000181: 36,3247           33761                           CAF      V16N85B
000182: 36,3250           04616                           TC       BANKCALL
000183: 36,3251           20462                           CADR     REFLASHR
000184: 36,3252           03256                           TC       TERM40
000185: 36,3253           13256                           TCF      TERM40
000186: 36,3254           03247                           TC       -5
000187:
000188: 36,3255           13236                           TCF      P40PHS1
000189:
000190: 36,3256           00006        TERM40             EXTEND
000191: 36,3257           32106                           DCA      SERVCADR
000192: 36,3260           53253                           DXCH     AVEGEXIT
000193: 36,3261           34755                           CAF      ZERO
000194: 36,3262           55462                           TS       TRKMKCNT                              #  ZERO RENDZVS CNTERS
000195: 36,3263           30005                           CA       Z
000196: 36,3264           55163                           TS       DISPDEX
000197: 36,3265           00004                           INHINT
000198: 36,3266           04674                           TC       IBNKCALL
000199: 36,3267           40123                           CADR     RESTORDB
000200: 36,3270           00003                           RELINT
000201: 36,3271           06001                           TC       GOTOPOOH
000202:
000203: 36,3272  E7,1455                                  EBANK=   WHICH
000204: 36,3272                                           COUNT*   $$/P41
000205: 36,3272           33134        P41LM              CAF      P41ADRES                              #  INITIALIZATION FOR BURNBABY
000206: 36,3273           55455                           TS       WHICH
000207:
000208: 36,3274           04616                           TC       BANKCALL
000209: 36,3275           11254                           CADR     R02BOTH
000210:
000211: 36,3276           06037                           TC       INTPRET                               #  BOTH LM
000212: 36,3277           71214                           BON      DLOAD                                 #  IF NJETSFLAG IS SET, LOAD 2 JET F
000213: 36,3300           00700                                    NJETSFLG
000214: 36,3301           75305                                    P41FJET1
000215: 36,3302           34015                                    FRCS4                                 #  IF NJETSFLAG IS CLEAR, LOAD 4 JET F
000216:
000217: 36,3303           37735        P41FJET            STCALL   F
000218: 36,3304           75310                                    P41IN
000219: 36,3305           77745        P41FJET1           DLOAD


000221: 36,3306           34017                                    FRCS2
000222: 36,3307           03735                           STORE    F
000223:
000224: 36,3310           77624        P41IN              CALL
000225: 36,3311           56246                                    S40.1                                 #  BOTH
000226: 36,3312           77624        P41NORM            CALL
000227: 36,3313           56413                                    S40.2,3                               #  CALCULATE PREFERRED IMU ORIENTATION AND
000228: 36,3314           77776                           EXIT                                           #  SET PFRATFLG.
000229:
000230: 36,3315           00004                           INHINT
000231: 36,3316           04674                           TC       IBNKCALL
000232: 36,3317           40153                           CADR     ZATTEROR                              #  ZERO ATTITUDE ERRORS
000233: 36,3320           04674                           TC       IBNKCALL
000234: 36,3321           40140                           CADR     SETMINDB                              #  SET 0.3 DEGREE DEADBAND
000235: 36,3322           03213                           TC       P40SXT4
000236:
000237: 36,3323           06037                           TC       INTPRET
000238: 36,3324           45175                           VLOAD    CALL                                  #  TRANSFORM VELOCITY-TO-BE-GAINED AT TIG
000239: 36,3325           03701                                    VGTIG                                 #  FROM REFERENCE COORDINATES TO LM BODY-
000240: 36,3326           57267                                    S41.1                                 #  AXIS COORDINATES FOR V16N85 DISPLAY.
000241: 36,3327           03502                           STORE    VGBODY                                #  (SCALED AT 2 (+7) METERS/CENTISECOND)
000242: 36,3330           77776                           EXIT
000243:
000244: 36,3331           33761                           CAF      V16N85B
000245: 36,3332           04616                           TC       BANKCALL
000246: 36,3333           20446                           CADR     GODSPRET
000247:
000248: 36,3334           35017                           CAF      PRIO5
000249: 36,3335           55163                           TS       DISPDEX                               #  FOR SAFETY ONLY
000250: 36,3336           05105                           TC       FINDVAC
000251: 36,3337  E7,1700                                  EBANK=   VGPREV
000252: 36,3337           03361 74067                     2CADR    DYNMDISP
000253:
000254: 36,3341           05327                           TC       2PHSCHNG
000255: 36,3342           00076                           OCT      00076                                 #  GROUP 6 RESTARTS AT REDO6.7
000256: 36,3343           04024                           OCT      04024                                 #  GROUP 4 RESTARTS HERE
000257:
000258:                                                                                                  #        ***********************
000259:
000260: 36,3344           12135                           TCF      B*RNB*B*
000261:
000262:                                                                                                  #        ***********************
000263:
000264: 36,3345           34777        BLNKWAIT           CAF      1SEC
000265: 36,3346           04616                           TC       BANKCALL
000266: 36,3347           01735                           CADR     DELAYJOB
000267:
000268: 36,3350           31163        REDO6.7            CA       DISPDEX                               #  ON A RESTART, DO NOT PUT UP DISPLAY IF
000269: 36,3351           64752                           AD       TWO                                   #  BLANKING (BETWEEN TIG-35 AND TIG-30)
000270:
000271:                                                                                                  #        ***********************


000273:
000274: 36,3352           00006                           EXTEND
000275: 36,3353           13345                           BZF      BLNKWAIT
000276:
000277: 36,3354           33761                           CAF      V16N85B
000278: 36,3355           04616                           TC       BANKCALL
000279: 36,3356           20446                           CADR     GODSPRET
000280:
000281: 36,3357           35017                           CAF      PRIO5
000282: 36,3360           05146                           TC       PRIOCHNG
000283:
000284: 36,3361           31163        DYNMDISP           CA       DISPDEX                               #  A NON-POSITIVE DISPDEX INDICATES PAST
000285: 36,3362           00006                           EXTEND                                         #  TIG-35, SO SERVICER WILL BE DOING THE
000286: 36,3363           65155                           BZMF     ENDOFJOB                              #  UPDATING OF NOUN 85.  STOP DYNMDISP.
000287: 36,3364           06037                           TC       INTPRET
000288: 36,3365           45175                           VLOAD    CALL
000289: 36,3366           03701                                    VGPREV
000290: 36,3367           57267                                    S41.1
000291: 36,3370           03502                           STORE    VGBODY
000292: 36,3371           77776                           EXIT
000293: 36,3372           34777                           CAF      1SEC
000294: 36,3373           04616                           TC       BANKCALL
000295: 36,3374           01735                           CADR     DELAYJOB
000296: 36,3375           13361                           TCF      DYNMDISP
000297:
000298: 36,3376           06037        CALCN85            TC       INTPRET
000299: 36,3377           77624                           CALL
000300: 36,3400           75611                                    UPDATEVG
000301: 36,3401           45175                           VLOAD    CALL
000302: 36,3402           03701                                    VGPREV
000303: 36,3403           57267                                    S41.1
000304: 36,3404           03502                           STORE    VGBODY
000305: 36,3405           77776                           EXIT
000306: 36,3406           04635                           TC       POSTJUMP
000307: 36,3407           65770                           CADR     SERVEXIT
000308:
000309: 36,3410                                           COUNT*   $$/P42
000310: 36,3410  E7,1455                                  EBANK=   WHICH
000311:
000312: 36,3410           05353        P42LM              TC       PHASCHNG
000313: 36,3411           04024                           OCT      04024
000314:
000315: 36,3412           33135                           CAF      P42ADRES                              #  INITIALIZATION FOR BURNBABY.
000316: 36,3413           55455                           TS       WHICH
000317:
000318: 36,3414           40106                           CS       FLGWRD10
000319: 36,3415           74737                           MASK     APSFLBIT
000320: 36,3416           10000                           CCS      A
000321: 36,3417           03121                           TC       P40ALM
000322: 36,3420           04616        P42STAGE           TC       BANKCALL


000324: 36,3421           11254                           CADR     R02BOTH
000325: 36,3422           36000                           CAF      THRESH2                               #  INITIALIZE DVMON
000326: 36,3423           55251                           TS       DVTHRUSH
000327: 36,3424           34751                           CAF      FOUR
000328: 36,3425           55515                           TS       DVCNTR
000329:
000330: 36,3426           06037                           TC       INTPRET
000331: 36,3427           77214                           SET      VLOAD                                 #  LOAD FAPS, MDOTAPS, AND ATDECAY INTO
000332: 36,3430           01072                                    AVFLAG                                #  F, MDOT, AND TDECAY BY VECTOR LOAD.
000333: 36,3431           34007                                    FAPS
000334: 36,3432           03735                           STORE    F
000335: 36,3433           52135                           SLOAD    GOTO
000336: 36,3434           26001                                    APSVEX
000337: 36,3435           75200                                    P40IN
000338:
000339: 36,3436  E7,1455                                  EBANK=   WHICH
000340:
000341: 36,3436                                           COUNT*   $$/P47
000342: 36,3436           04616        P47LM              TC       BANKCALL
000343: 36,3437           11254                           CADR     R02BOTH
000344: 36,3440           06037                           TC       INTPRET
000345: 36,3441           77624                           CALRB
000346: 36,3442           27553                                    MIDTOAV2
000347:
000348: 36,3443           30155                           CA       MPAC       +1
000349: 36,3444           05173                           TC       TWIDDLE
000350: 36,3445           03447                           ADRES    STARTP47
000351:
000352: 36,3446           15155                           TCF      ENDOFJOB
000353:
000354: 36,3447           05353        STARTP47           TC       PHASCHNG
000355: 36,3450           05014                           OCT      05014
000356: 36,3451           77777                           OCT      77777
000357:
000358: 36,3452           00006                           EXTEND
000359: 36,3453           33764                           DCA      ACADN83
000360: 36,3454           53253                           DXCH     AVEGEXIT
000361: 36,3455           34736                           CAF      PRIO20
000362: 36,3456           05105                           TC       FINDVAC
000363: 36,3457  E7,1622                                  EBANK=   DELVIMU
000364: 36,3457           03513 74067                     2CADR    P47BODY
000365:
000366: 36,3461           12342                           TCF      REDO4.2                               #  CHECKS PHASE 5 AND GOES TO PREREAD
000367:                                                                                                  #  SEE TIG-30 IN BURNBABY.
000368:
000369: 36,3462           06037        CALCN83            TC       INTPRET
000370: 36,3463           53375                           VLOAD    VAD
000371: 36,3464           03502                                    DELVCTL
000372: 36,3465           03527                                    DELVREF
000373: 36,3466           03656                           STORE    DELVSIN                               #  TEMP STORAGE FOR RESTARTS


000375: 36,3467           77624                           CALL
000376: 36,3470           57267                                    S41.1
000377: 36,3471           03623                           STORE    DELVIMU
000378: 36,3472           77776                           EXIT
000379: 36,3473           05353                           TC       PHASCHNG
000380: 36,3474           10035                           OCT      10035                                 #  REREADAC AND HERE
000381:
000382: 36,3475           06037                           TC       INTPRET
000383: 36,3476           77775                           VLOAD
000384: 36,3477           03656                                    DELVSIN
000385: 36,3500           03502                           STORE    DELVCTL
000386: 36,3501           77776                           EXIT
000387:
000388: 36,3502           04635                           TC       POSTJUMP
000389: 36,3503           65770                           CADR     SERVEXIT
000390:
000391: 36,3504           33762        P47BOD             CAF      V1683
000392: 36,3505           04616                           TC       BANKCALL
000393: 36,3506           20635                           CADR     GOFLASHR
000394: 36,3507           06001                           TC       GOTOPOOH
000395: 36,3510           06001                           TC       GOTOPOOH
000396:
000397: 36,3511           13513                           TCF      P47BODY
000398:
000399: 36,3512           13236                           TCF      P40PHS1
000400:
000401: 36,3513           06037        P47BODY            TC       INTPRET
000402: 36,3514           77775                           VLOAD
000403: 36,3515           06522                                    HI6ZEROS
000404: 36,3516           03623                           STORE    DELVIMU
000405: 36,3517           03502                           STORE    DELVCTL
000406: 36,3520           77776                           EXIT
000407: 36,3521           03504                           TC       P47BOD
000408:
000409: 36,3522                                           COUNT*   $$/P40
000410: 36,3522           31517        IMPLBURN           CA       TGO        +1
000411: 36,3523           03735                           TC       GETDT
000412: 36,3524           05173                           TC       TWIDDLE
000413: 36,3525           03542                           ADRES    ENGOFTSK
000414: 36,3526           05516                           TC       DOWNFLAG                              #  TURN OFF IGNFLAG
000415: 36,3527           00153                           ADRES    IGNFLAG
000416: 36,3530           05516                           TC       DOWNFLAG                              #  TURN OFF ASTNFLG
000417: 36,3531           00154                           ADRES    ASTNFLAG
000418: 36,3532           05516                           TC       DOWNFLAG                              #  TURN OFF IMPULSW
000419: 36,3533           00044                           ADRES    IMPULSW
000420: 36,3534           05353                           TC       PHASCHNG                              #  RESTART PROTECT ENGOFTSK (ENGINOFF)
000421: 36,3535           40114                           OCT      40114
000422:
000423: 36,3536           05221                           TC       FIXDELAY                              #  WAIT HALF A SECOND
000424: 36,3537           00062                           DEC      50         B-14


000426: 36,3540           02653                           TC       NOULLAGE                              #  TURN OFF ULLAGE
000427:
000428: 36,3541           05261                           TC       TASKOVER
000429:
000430: 36,3542           04674        ENGOFTSK           TC       IBNKCALL                              #  THIS CODING ALLOWS ENGINOFF ET AL TO BE
000431: 36,3543           75545                           CADR     ENGINOFF                              #  USED BOTH BY WAITLIST AND BY TC IBNKCALL
000432: 36,3544           05261                           TC       TASKOVER
000433:
000434: 36,3545           34644        ENGINOFF           CAF      PRIO12                                #  MUST BE LOWER PRIO THAN CLOCKJOB
000435: 36,3546           05105                           TC       FINDVAC
000436: 36,3547  E7,1462                                  EBANK=   TRKMKCNT
000437: 36,3547           03223 74067                     2CADR    POSTBURN
000438:
000439: 36,3551           34753        ENGINOF2           CAF      BIT1
000440: 36,3552           05203                           TC       WAITLIST
000441: 36,3553  E6,1422                                  EBANK=   OMEGAQ
000442: 36,3553           03606 74066                     2CADR    COASTSET
000443:
000444: 36,3555           40103        ENGINOF1           CS       FLAGWRD7                              #  SET THE IDLE BIT.
000445: 36,3556           74745                           MASK     IDLEFBIT
000446: 36,3557           26103                           ADS      FLAGWRD7
000447:
000448: 36,3560           02653                           TC       NOULLAGE
000449:
000450: 36,3561           00006        ENGINOF4           EXTEND
000451: 36,3562           30025                           DCA      TIME2
000452: 36,3563           53345                           DXCH     TEVENT
000453:
000454: 36,3564           44745        ENGINOF3           CS       ENGONBIT                              #  INSURE ENGONFLG IS CLEAR.
000455: 36,3565           70101                           MASK     FLAGWRD5
000456: 36,3566           54101                           TS       FLAGWRD5
000457: 36,3567           44355                           CS       PRIO30                                #  ENGINOF3 IS USED AS A PRE-ENGINE ARM
000458: 36,3570           00006                           EXTEND                                         #  SUBROUTINE.
000459: 36,3571           02011                           RAND     DSALMOUT
000460: 36,3572           64736                           AD       PRIO20                                #  TURN OFF THE ENGINE - DPS OR APS
000461: 36,3573           00006                           EXTEND
000462: 36,3574           01011                           WRITE    DSALMOUT
000463:
000464: 36,3575           40111                           CS       DAPBOOLS                              #  TURN OFF TRIM GIMBAL
000465: 36,3576           74736                           MASK     USEQRJTS
000466: 36,3577           26111                           ADS      DAPBOOLS
000467:
000468: 36,3600           44737                           CS       HIRTHROT                              #  ZERO AUTO-THROTTLE WHENEVER THE ENGINE
000469: 36,3601           54055                           TS       THRUST                                #  IS TURNED OFF.
000470: 36,3602           34750                           CAF      BIT4                                  #  THE HARDWARE DOES SO ONLY WHEN THE
000471: 36,3603           00006                           EXTEND                                         #  ENGINE IS DISARMED.
000472: 36,3604           05014                           WOR      CHAN14
000473:
000474: 36,3605           04707                           TC       ISWRETRN


000476: 36,3606           04674        COASTSET           TC       IBNKCALL                              #  DO DAP COASTING INITIALIZATION
000477: 36,3607           40204                           CADR     ALLCOAST
000478: 36,3610           05261                           TC       TASKOVER
000479:
000480: 36,3611  E6,1422                                  EBANK=   OMEGAQ
000481: 36,3611           45020        UPDATEVG           STQ      CALL
000482: 36,3612           03665                                    QTEMP1
000483: 36,3613           56447                                    S40.8                                 #  X-PRODUCT STEERING
000484: 36,3614           43014                           BON      BON
000485: 36,3615           01307                                    XDELVFLG
000486: 36,3616           03665                                    QTEMP1
000487: 36,3617           03705                                    NORMSW
000488: 36,3620           75633                                    180SETUP
000489: 36,3621           45345                           DLOAD    DSU
000490: 36,3622           01235                                    PIPTIME
000491: 36,3623           03763                                    TIGSAVE
000492: 36,3624           50025                           DSU      BMN
000493: 36,3625           03432                                    TNEWA
000494: 36,3626           75656                                    GETRANS
000495: 36,3627           43345                           DLOAD    DAD
000496: 36,3630           03763                                    TIGSAVE
000497: 36,3631           03432                                    TNEWA
000498: 36,3632           03765                           STORE    TIGSAVEP
000499: 36,3633           77776        180SETUP           EXIT
000500: 36,3634           10755                           CCS      PHASE2
000501: 36,3635           13663                           TCF      NO.9
000502: 36,3636           34737                           CAF      PRIO10
000503: 36,3637           00004                           INHINT
000504: 36,3640           05105                           TC       FINDVAC
000505: 36,3641  E7,1706                                  EBANK=   VG
000506: 36,3641           02707 56067                     2CADR    S40.9                                 #  LAMBERT VTOGAIN
000507:
000508: 36,3643           05327                           TC       2PHSCHNG
000509: 36,3644           00172                           OCT      00172                                 #  2.17SPOT FOR S40.9
000510: 36,3645           10035                           OCT      10035                                 #  HERE AND REREADAC AFTER RESTART
000511:
000512: 36,3646           06037        ENDSTEER           TC       INTPRET
000513: 36,3647           77745                           DLOAD
000514: 36,3650           03765                                    TIGSAVEP
000515: 36,3651           27763                           STOVL    TIGSAVE
000516: 36,3652           01221                                    RN
000517: 36,3653           26323                           STOVL    RINIT
000518: 36,3654           01227                                    VN
000519: 36,3655           02331                           STORE    VINIT
000520: 36,3656           45345        GETRANS            DLOAD    DSU
000521: 36,3657           03631                                    TPASS4
000522: 36,3660           01235                                    PIPTIME
000523: 36,3661           37452                           STCALL   DELLT4
000524: 36,3662           03665                                    QTEMP1
000525:


000527: 36,3663           06037        NO.9               TC       INTPRET
000528: 36,3664           77650                           GOTO
000529: 36,3665           03665                                    QTEMP1
000530: 36,3666           06037        STEERING           TC       INTPRET
000531:
000532: 36,3667           77624                           CALL
000533: 36,3670           75611                                    UPDATEVG
000534: 36,3671           77776                           EXIT
000535:
000536: 36,3672  E7,1515                                  EBANK=   DVCNTR
000537: 36,3672           00004        NSTEER             INHINT
000538: 36,3673           35016                           CA       EBANK7
000539: 36,3674           54003                           TS       EBANK
000540: 36,3675           40076                           CS       FLAGWRD2                              #  CHECK IMPULSE SWITCH.  IT IS SET EITHER
000541: 36,3676           74743                           MASK     IMPULBIT                              #  BY S40.13 IF TBURN<6 SECS OR BY S40.8 IF
000542: 36,3677           10000                           CCS      A                                     #  STEERING IS ALMOST DONE.
000543:
000544: 36,3700           13705                           TCF      +5                                    #  IMPULSW = 0   EXIT
000545: 36,3701           40103                           CS       FLAGWRD7                              #  IMPULSW = 1   WHY?  CHECK IDLEFLAG
000546: 36,3702           74745                           MASK     IDLEFBIT                              #        (IDLEFLAG = 0 --> DVMON ON)
000547: 36,3703           10000                           CCS      A
000548: 36,3704           13707                           TCF      +3                                    #  DVMON ON --> THRUSTING --> IMPULSW VIA S40.8
000549: 36,3705           04635                           TC       POSTJUMP                              #  DVMON OFF --> IMPULSW ON VIA S40.13 --> EXIT
000550: 36,3706           65770                           CADR     SERVEXIT
000551:
000552: 36,3707           04674                           TC       IBNKCALL
000553: 36,3710           40165                           CADR     STOPRATE
000554:
000555: 36,3711           05516                           TC       DOWNFLAG                              #  TURN OFF IMPULSW
000556: 36,3712           00044                           ADRES    IMPULSW
000557:
000558: 36,3713           05504                           TC       UPFLAG
000559: 36,3714           00161                           ADRES    IDLEFLAG                              #  TURN OFF DVMON
000560:
000561: 36,3715           00004                           INHINT
000562: 36,3716           00006                           EXTEND
000563: 36,3717           31442                           DCA      TIG
000564: 36,3720           52155                           DXCH     MPAC
000565: 36,3721           00006                           EXTEND
000566: 36,3722           40025                           DCS      TIME2
000567: 36,3723           20155                           DAS      MPAC
000568: 36,3724           07257                           TC       TPAGREE
000569: 36,3725           30155                           CAE      MPAC       +1
000570: 36,3726           03735                           TC       GETDT
000571: 36,3727           05173                           TC       TWIDDLE
000572: 36,3730           03542                           ADRES    ENGOFTSK
000573: 36,3731           05327                           TC       2PHSCHNG
000574: 36,3732           40114                           OCT      40114                                 #  ENGOFTSK (ENGINOFF)
000575: 36,3733           00035                           OCT      00035                                 #  SERVICER -- REREADAC


000577: 36,3734           15155                           TCF      ENDOFJOB
000578:
000579: 36,3735           10000        GETDT              CCS      A
000580: 36,3736           13741                           TCF      +3
000581: 36,3737           13741                           TCF      +2
000582: 36,3740           34755                           CAF      ZERO
000583: 36,3741           64753                           AD       ONE
000584: 36,3742           56001                           XCH      L
000585: 36,3743           34755                           CAF      ZERO
000586: 36,3744           53517                           DXCH     TGO
000587: 36,3745           31517                           CA       TGO        +1
000588: 36,3746           00002                           TC       Q
000589:
000590:                                                                                                  #  ************************************************************************
000591:
000592: 36,3747           00000        SEC15DP            OCT      00000                                 #  DON'T SEPARATE
000593: 36,3750           02734        SEC15              DEC      1500       B-14                       #  DON'T SEPARATE
000594: 36,3751           00000 05670  SEC30DP            2DEC     3000       B-28
000595:
000596: 36,3753           00000        SEC45DP            OCT      00000                                 #  DON'T MOVE FROM JUST BEFORE SEC45
000597: 36,3754           10624        SEC45              DEC      4500       B-14
000598: 36,3755           00000        5SECDP             OCT      00000                                 #  DON'T MOVE FROM JUST BEFORE 5SEC
000599: 36,3756           00764        5SEC               DEC      500        B-14
000600: 36,3757           05050        26SECS             DEC      2600       B-14
000601: 36,3760           04050        V16N40             VN       1640
000602: 36,3761           04125        V16N85B            VN       1685
000603: 36,3762           04123        V1683              VN       1683
000604: 36,3763     4777               SEC01              =        1SEC
000605: 36,3763  36,2055               ACADN85            =        P41TABLE   +2
000606:
000607: 36,3763  E7,1622                                  EBANK=   DELVIMU
000608: 36,3763           03462 74067  ACADN83            2CADR    CALCN83
000609:
000610:                                                                                                  #  *************************************************


000612:                                                                                                  #  PROGRAM DESCRIPTION S40.1             DATE 15NOV66
000613:                                                                                                  #  MOD N02                               LOG SECTION P40-P47
000614:                                                                                                  #  MOD BY ZELDIN AND ADAPTED BY TALAYCO
000615:
000616:                                                                                                  #  FUNCTIONAL DESCRIPTION
000617:                                                                                                  #        COMPUTE INITIAL THRUST DIRECTION(UT) AND INITIAL VALUE OF VG
000618:                                                                                                  #        VECTOR(VGTIG).
000619:
000620:                                                                                                  #  CALLING SEQUENCE
000621:                                                                                                  #        L       CALL
000622:                                                                                                  #        L+1             S40.1
000623:
000624:                                                                                                  #  NORMAL EXIT MODE
000625:                                                                                                  #        AT L+2 OF CALLING SEQUENCE (GOTO L+2) NORMAL RETURN OR
000626:                                                                                                  #        ERROR RETURN IF NOSOFLAG =1
000627:
000628:                                                                                                  #  SUBROUTINES CALLED
000629:                                                                                                  #        LEMPREC
000630:                                                                                                  #        INITVEL
000631:                                                                                                  #        CALCGRAV
000632:                                                                                                  #        MIDGIM
000633:
000634:                                                                                                  #  ALARM OR ABORT EXIT MODES
000635:                                                                                                  #        L+2 OF CALLING SEQUENCE, UNSOLVABLE CONIC IF NOSOFLAG=1
000636:
000637:                                                                                                  #  ERASABLE INITIALIZATION REQUIRED
000638:                                                                                                  #        WEIGHT/G        ANTICIPATED VEHICLE MASS        DP B16 KGM
000639:                                                                                                  #        XDELVFLG        1=DELTA-V MANEUVER, 0=AIMPT STEER
000640:                                                                                                  #        F               THRUST FOR ENGINE USED
000641:                                                                                                  #    IF DELTA-V MANEUVER
000642:                                                                                                  #        DELVSIN         SPECIFIED DELTA-V REQUIRED IN
000643:                                                                                                  #                        INERTIAL COORDS. OF ACTIVE VEHICLE
000644:                                                                                                  #                        AT TIME OF IGNITION             VECTOR B7 M/CS
000645:                                                                                                  #        DELVSAB         MAG. OF DELVSIN                 DP B7 M/CS
000646:                                                                                                  #        RTIG            POSITION AT TIME OF IGNITION    VECTOR B29 M
000647:                                                                                                  #        VTIG            VELOCITY AT TIME OF IGNITION    VECTOR B7 M/CS
000648:                                                                                                  #    IF AIMPT STEER
000649:                                                                                                  #        TIG             TIME OF IGNITION                DP B28 CS
000650:                                                                                                  #        RTARG           POSITION TARGET TIME            VECTOR B29 M
000651:                                                                                                  #        CSTEER          C FOR STEER LAW                 DP B2
000652:                                                                                                  #        DLTARG          TARGET TIME-IGNITION TIME       DP B28 CS
000653:
000654:                                                                                                  #  OUTPUT
000655:                                                                                                  #        UT              DESIRED THRUST DIRECTION        VECT. B2 M/(CS.CS)
000656:                                                                                                  #        VGTIG           INITIAL VALUE OF VELOCITY
000657:                                                                                                  #                        TO BE GAINED (INERT. COORD.)    VECTOR B7 M/CS
000658:                                                                                                  #        DELVLVC         VGTIG IN LOC. VERT. COORDS.     B7 M/CS
000659:                                                                                                  #        BDT             V REQUIRED AT TIG -V REQUIRED AT (TIG-2SEC)
000660:                                                                                                  #           -GDT         FOR S40.13                      VECT B7 M/CS
000661:                                                                                                  #        RTIG            CALC IN S40.1B (AIMPT) FOR S40.2,3      VECTOR B29M
000662:                                                                                                  #                        POSITION AT TIME OF IGNITION
000663:
000664:                                                                                                  #  DEBRIS        QTEMP1
000665:                                                                                                  #                MPAC, QPRET
000666:                                                                                                  #                PUSHLIST
000667:
000668: 14,2347                                           BANK     14
000669: 27,2000                                           SETLOC   P40S1
000670: 27,2000                                           BANK


000672: 27,2246                                           COUNT*   $$/S40.1
000673: 27,2246           71220        S40.1              STQ      DLOAD
000674: 27,2247           03632                                    QTEMP
000675: 27,2250           03442                                    TIG
000676: 27,2251           03763                           STORE    TIGSAVE
000677: 27,2252           77614        DELVTEST           BOFF
000678: 27,2253           01347                                    XDELVFLG
000679: 27,2254           56336                                    S40.1B
000680: 27,2255           77201        CALCTHET           SETPD    VLOAD
000681: 27,2256           00001                                    0
000682: 27,2257           03650                                    VTIG
000683: 27,2260           02331                           STORE    VINIT
000684: 27,2261           53435                           VXV      UNIT
000685: 27,2262           03642                                    RTIG
000686: 27,2263           27673                           STOVL    UT                                    #  UP IN UT
000687: 27,2264           03642                                    RTIG
000688: 27,2265           02323                           STORE    RINIT
000689: 27,2266           65236                           VSQ      PDDL
000690: 27,2267           00045                                    36D
000691: 27,2270           56205                           DMP      DDV
000692: 27,2271           16412                                    THETACON
000693: 27,2272           41205                           DMP      DMP
000694: 27,2273           03664                                    DELVSAB
000695: 27,2274           01245                                    WEIGHT/G
000696: 27,2275           77671                           DDV
000697: 27,2276           03735                                    F
000698: 27,2277           24017                           STOVL    14D
000699: 27,2300           03656                                    DELVSIN
000700:
000701: 27,2301           74241                           DOT      VXSC
000702: 27,2302           03673                                    UT
000703: 27,2303           03673                                    UT
000704: 27,2304           41552                           VSL2     PUSH                                  #  (DELTAV.UP)UP SCALED AT 2(+7) P.D.L. 0
000705: 27,2305           65245                           BVSU     PDDL                                  #  DELTA VP SCALED AT 2(+7) P.D.L. 6
000706: 27,2306           03656                                    DELVSIN
000707: 27,2307           00017                                    14D
000708: 27,2310           63356                           SIN      PDVL
000709: 27,2311           00007                                    6D
000710: 27,2312           53435                           VXV      UNIT
000711: 27,2313           03673                                    UT
000712: 27,2314           45561                           VXSC     STADR
000713: 27,2315           50076                           STOVL    VGTIG                                 #  UNIT(VP X UP)SIN(THETAT/2) IN VGTIG.
000714: 27,2316           65256                           UNIT     PDDL                                  #  UNIT(DELTA VP) IN P.D.L. 6
000715: 27,2317           00017                                    14D
000716: 27,2320           74346                           COS      VXSC
000717: 27,2321           74255                           VAD      VXSC
000718: 27,2322           03701                                    VGTIG
000719: 27,2323           00045                                    36D
000720: 27,2324           53352                           VSL2     VAD
000721: 27,2325           77626                           STADR


000723: 27,2326           74076                           STORE    VGTIG                                 #  VG IGNITION SCALED AT 2(+7) M/CS
000724:
000725: 27,2327           77656                           UNIT
000726: 27,2330           27673                           STOVL    UT                                    #  THRUST DIRECTION SCALED AT 2(+1)
000727: 27,2331           03701                                    VGTIG
000728: 27,2332           45006                           PUSH     CALL
000729: 27,2333           15733                                    GET.LVC                               #  VGTIG IN LV COOR AT 2(+7) M/CS IN DELVLVC
000730: 27,2334           77650                           GOTO
000731: 27,2335           03632                                    QTEMP
000732: 27,2336           77745        S40.1B             DLOAD
000733: 27,2337           03442                                    TIG
000734: 27,2340           00041                           STORE    TDEC1
000735: 27,2341           77621                           BDSU
000736: 27,2342           03631                                    TPASS4
000737: 27,2343           37452                           STCALL   DELLT4                                #  INTERCEPT TIME - TIG.
000738: 27,2344           27057                                    LEMPREC
000739: 27,2345           40375                           VLOAD    SETPD                                 #  LOAD STATE VECTOR AT TIG FOR INITVEL.
000740: 27,2346           00001                                    RATT
000741: 27,2347           00001                                    0
000742: 27,2350           03642                           STORE    RTIG
000743: 27,2351           02323                           STORE    RINIT
000744: 27,2352           77656                           UNIT
000745: 27,2353           27537                           STOVL    UNIT/R/
000746: 27,2354           00007                                    VATT
000747: 27,2355           03650                           STORE    VTIG
000748: 27,2356           02331                           STORE    VINIT
000749: 27,2357           65345                           DLOAD    PDDL                                  #  NUMIT = 0
000750: 27,2360           06522                                    ZEROVECS
000751: 27,2361           16406                                    EPS1
000752: 27,2362           43214                           BOFF     DAD
000753: 27,2363           03745                                    NORMSW
000754: 27,2364           56366                                    SMALLEPS
000755: 27,2365           16410                                    EPS2                                  #  EPSILON4 = 10 DEGREES OR 45 DEGREES.
000756: 27,2366           66006        SMALLEPS           PUSH     SXA,1
000757: 27,2367           02776                                    RTX1
000758: 27,2370           45134                           SXA,2    CALL
000759: 27,2371           02777                                    RTX2
000760: 27,2372           22000                                    INITVEL
000761: 27,2373           41575                           VLOAD    PUSH
000762: 27,2374           02366                                    DELVEET3                              #  VGTIG = VR - VN.
000763: 27,2375           03701                           STORE    VGTIG
000764: 27,2376           77656                           UNIT                                           #  UT = UNIT (VGTIG)
000765: 27,2377           17673                           STODL    UT
000766: 27,2400           00045                                    36D
000767: 27,2401           37664                           STCALL   VGDISP                                #  CONVERT VGTIG (IN PUSHLIST) TO LOCAL
000768: 27,2402           15733                                    GET.LVC                               #  VERTICAL COORDINATES.
000769: 27,2403           77650                           GOTO
000770: 27,2404           03632                                    QTEMP
000771:
000772: 27,2405           00707 03434  EPS1               2DEC*    2.777777778 E-2*                       #  10 DEGREES AT 1 REVOLUTION.
000773:


000775: 27,2407           03070 34344  EPS2               2DEC*    9.722222222 E-2*                       #  35 DEGREES AT 1 REVOLUTION.
000776:
000777: 27,2411           00024 13714  THETACON           2DEC     .31830989  B-8
000778:


000780:                                                                                                  #  SUBROUTINE NAME:  S40.2,3             MOD. NO. 3 DATE: APRIL 4, 1967
000781:                                                                                                  #  MODIFICATION BY:  JONATHAN D. ADDELSTON (ADAMS ASSOCIATES)
000782:                                                                                                  #  MOD. NO. 4:  JULY 18, 1967: PETER ADLER (MIT/IL)
000783:                                                                                                  #  MOD. NO. 5:  OCTOBER 18, 1967:  PETER ADLER (MIT/IL)
000784:                                                                                                  #  ORIGINALLY BY:  SAYDEAN ZELDIN (MIT INSTRUMENTATION LAB) AND RICHARD TALAYCO (SYSTEM DEVELOPMENT CORP)
000785:
000786:                                                                                                  #  S40.2,3 COMPUTES "POINTVSM" WHICH IS THE HALF-UNIT DESIRED THRUST VECTOR IN STABLE-MEMBER COORDINATES FROM "UT"
000787:                                                                                                  #  WHICH IS THE SAME VECTOR IN REFERENCE COORDINATES.  IT DETERMINES THE CORRECT VALUES FOR "SCAXIS" USING THE +X
000788:                                                                                                  #  AXIS FOR DPS, APS, AND RCS BURNS.  THE "WINGS-LEVEL HEADS-UP" LM ORIENTATION IS THEN COMPUTED IN REFERENCE
000789:                                                                                                  #  COORDINATES.  THESE VECTORS ALSO DEFINE THE "PREFERRED IMU ORIENTATION".  UPON COMPLETION OF THIS CALCULATION,
000790:                                                                                                  #  THE "PREFERRED ATTITUDE COMPUTED" FLAG IS SET (PFRATFLG).
000791:
000792:                                                                                                  #  CALLING SEQUENCE:
000793:                                                                                                  #        L       CALL                    INTERPRETIVE CALL.
000794:                                                                                                  #        L +1            S40.2,3
000795:                                                                                                  #        L +2    (RETURN)                GIMBAL ANGLE VECTOR IN MPAC.
000796:
000797:                                                                                                  #  SUBROUTINES CALLED:  NONE.
000798:
000799:                                                                                                  #  NORMAL RETURN:  L +2 (SEE CALLING SEQUENCE ABOVE).
000800:
000801:                                                                                                  #  ALARM/ABORT MODES:  NONE.
000802:
000803:                                                                                                  #  INPUT:
000804:                                                                                                  #        1.      REFSMMAT        MATRIX FROM REFERENCE TO STABLE-MEMBER COORDINATES SCALED AT 2.
000805:                                                                                                  #        2.      UT              HALF-UNIT DESIRED THRUST DIRECTION.
000806:                                                                                                  #        3.      RTIG            POSITION AT TIG IN REFERENCE COORDINATES.
000807:
000808:                                                                                                  #  OUTPUT:
000809:                                                                                                  #        1.      :XSCREF:        WINGS-LEVEL HEADS-UP LM ORIENTATION
000810:                                                                                                  #                :YSCREF:        IN REFERENCE COORDINATES
000811:                                                                                                  #                :ZSCREF:        (PREFERRED IMU ORIENTATION).
000812:                                                                                                  #        2.      POINTVSM        DESIRED THRUST DIRECTION IN STABLE-MEMBER COORDINATES.
000813:                                                                                                  #        3.      SCAXIS          HALF-UNIT OF AXIS TO ALIGN IN STABLE-MEMBER COORDINATES.
000814:                                                                                                  #        4.      PFRATFLG        INTERPRETIVE FLAG.  ON: PREFERRED ORIENTATION COMPUTED; OFF: NOT COMPUTED.
000815:
000816:                                                                                                  #  DEBRIS:  NONE.


000818:
000819: 27,2413                                           COUNT*   $$/S40.2
000820: 27,2413           77775        S40.2,3            VLOAD                                          #  UT:  DESIRED THRUST DIRECTION (HALF-UNIT)
000821: 27,2414           03673                                    UT                                    #  (PUT INTO TOP OF PUSH-DOWN-LIST.)
000822: 27,2415           76521                           MXV      VSL1                                  #  TRANSFORM THRUST DIRECTION TO STABLE-
000823: 27,2416           01734                                    REFSMMAT                              #  MEMBER FROM REFERENCE COORDS (RESCALE).
000824: 27,2417           27773                           STOVL    POINTVSM                              #  SAVE FOR "VECPOINT" ROUTINE (LEMMANU).
000825: 27,2420           06520                                    UNITX                                 #  SCAXIS SET TO +X, FOR P40 AND P42 AND
000826: 27,2421           27765                           STOVL    SCAXIS                                #  FOR P41 IF RCS NOT -X,+Y,-Y,+Z,-Z.
000827:
000828: 27,2422           03673                                    UT                                    #  ASSUME +X BURN ALWAYS, EVEN FOR RCS.
000829: 27,2423           03607        PLUSX              STORE    XSCREF                                #  XSCREF = UT (DESIRED THRUST DIRECTION.)
000830: 27,2424           53435                           VXV      UNIT                                  #  RTIG = POSITION AT TIME-OF-IGNITION.
000831: 27,2425           03642                                    RTIG                                  #  YSCREF = UNIT(UT X RTIG)
000832: 27,2426           46125                           PDDL     BHIZ
000833: 27,2427           00045                                    36D                                   #  TEST MAGNITUDE OF UT X RTIG
000834: 27,2430           56441                                    FIXY                                  #  IF SMALL, USE UT X VTIG AS YSC
000835: 27,2431           45575        STORY              VLOAD    STADR
000836: 27,2432           74162                           STORE    YSCREF
000837: 27,2433           76435                           VXV      VSL1                                  #  COMPUTE (YSCREF X XSCREF), BUT FOR A
000838: 27,2434           03607                                    XSCREF                                #  RIGHT HANDED SYSTEM, NEED (X CROSS Y).
000839: 27,2435           77676                           VCOMP                                          #  ZSCREF = - (YSCREF X XSCREF)
000840: 27,2436           03623                           STORE    ZSCREF                                #         = + (XSCREF X YSCREF)
000841:
000842: 27,2437           43414                           SET      RVQ
000843: 27,2440           01073                                    PFRATFLG
000844: 27,2441           47375        FIXY               VLOAD    VXV                                   #  IN THIS CASE,
000845: 27,2442           03607                                    XSCREF                                #  YSCREF = UNIT(XSCREF X VTIG)
000846: 27,2443           03650                                    VTIG
000847: 27,2444           41456                           UNIT     PUSH
000848: 27,2445           77650                           GOTO
000849: 27,2446           56431                                    STORY


000851:                                                                                                  #  SUBROUTINE S40.8
000852:                                                                                                  #  MODIFIED APRIL 3, 1968 BY PETER ADLER   MIT/IL
000853:
000854:                                                                                                  #  DESCRIPTION
000855:                                                                                                  #        S40.8 UPDATES THE VELOCITY-TO-BE-GAINED VECTOR, VG, (AND FOR LAMBERT TARGETTED BURNS ALSO EXTRAPOLATES VG
000856:                                                                                                  #        USING THE BDT VECTOR) COMPUTES THE TIME FOR ISSUING THE ENGINE OFF COMMAND, TGO, AND CALLS THE ROUTINE
000857:                                                                                                  #        "FINDCDUW", WHICH GENERATES STEERING COMMANDS FOR THE DAP.
000858:
000859:                                                                                                  #  CALLING SEQUENCE
000860:                                                                                                  #        L-1     CALL
000861:                                                                                                  #        L               S40.8
000862:                                                                                                  #        L+1                     INTERPRETIVE RETURN
000863:
000864:                                                                                                  #  ALARM
000865:                                                                                                  #        IF VG . DELVREF IS NEGATIVE (VG AND DELVREF OVER 90 DEGREES APART), BYPASS TGO AND STEERING COMPUTATIONS
000866:                                                                                                  #        AND SET ALARM 1407.  RETURN TO CALLER NORMALLY.
000867:
000868:                                                                                                  #  INPUT AND INITIALIZATION
000869:                                                                                                  #        VGPREV          REFERENCE       2(7) M/CS
000870:                                                                                                  #        DELVREF         REFERENCE       2(7) M/CS
000871:                                                                                                  #        BDT             REFERENCE       2(7) M/CS
000872:                                                                                                  #        TDECAY          TAIL-OFF TIME   2(28) CS
000873:                                                                                                  #        XDELVFLG        1 = EXTERNAL DELTA-V; 0 = LAMBERT (AIMPOINT)
000874:                                                                                                  #        STEERSW         1 = DO STEERING AND TGO COMPUTATIONS; 0 = VG UPDATE ONLY
000875:                                                                                                  #        FIRSTFLG        1 = GONE TO LAMBERT AT LEAST ONCE; 0 = HAVEN'T GONE TO LAMBERT YET
000876:
000877:                                                                                                  #  NOTE:  VGTIG EQUALS VGPREV
000878:
000879:                                                                                                  #  OUTPUT
000880:                                                                                                  #        STEERSW         SEE INPUT
000881:                                                                                                  #        IMPULSW         1 = ENGINE OFF IN TGO CENTISECONDS; 0 = CONTINUE BURN
000882:                                                                                                  #        TGO             TIME TO CUT-OFF 2(28) CS
000883:                                                                                                  #        SEE FINDCDUW FOR STEERING OUTPUTS.
000884:
000885:                                                                                                  #  SUBROUTINE CALLED
000886:                                                                                                  #        FINDCDUW
000887:
000888:                                                                                                  #  DEBRIS
000889:                                                                                                  #        MPACS, PUSHLIST
000890:
000891: 27,2447                                           COUNT*   $$/S40.8


000893: 27,2447           77614        S40.8              BOF                                            #  GENERATE VR IF NOT EXTERNAL DELTA-V BURN
000894: 27,2450           01347                                    XDELVFLG
000895: 27,2451           56731                                    RASTEER1
000896: 27,2452           52375                           VLOAD    VSU
000897: 27,2453           03701                                    VGPREV
000898: 27,2454           03527                                    DELVREF
000899: 27,2455           03707        VGAIN*             STORE    VG                                    #  VELOCITY TO BE GAINED SCALED AT (7) M/CS
000900: 27,2456           76521                           MXV      VSL1
000901: 27,2457           01734                                    REFSMMAT
000902: 27,2460           03254                           STORE    UNFC/2
000903: 27,2461           51575        BDTOK              VLOAD    ABVAL
000904: 27,2462           03707                                    VG
000905: 27,2463           03664                           STORE    VGDISP
000906: 27,2464           77201        TGOCALC            SETPD    VLOAD
000907: 27,2465           00001                                    0
000908: 27,2466           03707                                    VG
000909: 27,2467           27701                           STOVL    VGPREV
000910: 27,2470           03527                                    DELVREF
000911: 27,2471           57414                           BOFF     VCOMP
000912: 27,2472           01344                                    STEERSW
000913: 27,2473           00052                                    QPRET
000914: 27,2474           77656                           UNIT
000915: 27,2475           41441                           DOT      PUSH
000916: 27,2476           03707                                    VG
000917: 27,2477           56244                           BPL      DDV
000918: 27,2500           56526                                    ALARMIT                               #  DELV IS MORE THAN 90 DEGREES FROM VG.
000919: 27,2501           03743                                    VEX
000920: 27,2502           41215                           DAD      DMP
000921: 27,2503           06520                                    DPHALF
000922: 27,2504           56261                           SR       DDV
000923: 27,2505           20613                                    10D
000924: 27,2506           00045                                    36D
000925: 27,2507           43205                           DMP      DAD
000926: 27,2510           16535                                    -FOURDT
000927: 27,2511           03741                                    TDECAY
000928: 27,2512           03517                           STORE    TGO
000929: 27,2513           77615                           DAD
000930: 27,2514           01235                                    PIPTIME
000931: 27,2515           17442                           STODL    TIG
000932: 27,2516           03517                                    TGO
000933: 27,2517           51025                           DSU      BPL
000934: 27,2520           16537                                    FOURSECS                              #  400 CS
000935: 27,2521           61111                                    FINDCDUW   -2
000936: 27,2522           43014                           SET      CLRGO
000937: 27,2523           01066                                    IMPULSW
000938: 27,2524           01224                                    STEERSW
000939: 27,2525           00052                                    QPRET
000940:
000941: 27,2526           77776        ALARMIT            EXIT
000942:


000944: 27,2527           05567                           TC       ALARM
000945: 27,2530           01407                           OCT      01407
000946: 27,2531           06037                           TC       INTPRET
000947: 27,2532           77650                           GOTO                                           #  SKIP TGO COMPUTATION BUT CALL FINDCDUW.
000948: 27,2533           61111                                    FINDCDUW   -2                         #  FINDCDUW WILL EXIT TO UPDATEVG +3.
000949:
000950: 27,2534           77715 77777  -FOURDT            2DEC     -800       B-18                       #  -4 (200 CS.) B(-18)
000951: 27,2536           00000 00620  FOURSECS           2DEC     400        B-28                       #  400 CS SCALED AT 2(+28) CS
000952: 27,2540  E7,1742               2VEXHUST           =        VEX
000953:


000955:                                                                                                  #  NAME                  S40.13 - TIMEBURN
000956:
000957:                                                                                                  #  FUNCTION              (1) DETERMINE WHETHER A GIVEN COMBINATION OF VELOCITY TO
000958:                                                                                                  #                        BE GAINED AND ENGINE CHOICE RESULT IN A BURN TIME
000959:                                                                                                  #                        SUFFICIENT TO ALLOW STEERING AT THE VEHICLE DURING THE
000960:                                                                                                  #                        BURN
000961:                                                                                                  #                        (2) THE MAGNITUDE OF THE RESULTING BURN TIME -- IF IT
000962:                                                                                                  #                        IS SHORT -- AND THE ASSOCIATED TIME OF THE ENGINE OFF
000963:                                                                                                  #                        SIGNAL
000964:
000965:                                                                                                  #  CALLING SEQUENCE      VIA FINDVAC AS A NEW JOB
000966:
000967:                                                                                                  #  INPUT                 VGTIG VELOCITY TO BE GAINED VECTOR (METERS/CS) AT +7
000968:                                                                                                  #                        WEIGHT/G MASS OF VEHICLE IN KGM AT +16
000969:                                                                                                  #                        F  APS ENGINE THRUST IN M.NEWTONS AT +7
000970:                                                                                                  #                                AND ALSO FOR RCS ENGINE
000971:                                                                                                  #                        MDOT RATE OF DECREASE OF VEHICLE MASS DURING ENGINE
000972:                                                                                                  #                                BURN IN KILOGRAMS/CS AT +3.  THIS SCALING MAY
000973:                                                                                                  #                                REQUIRE MODIFICATION FOR SATURN BURNS.
000974:                                                                                                  #                        ENG1FLAG      SWITCH TO DECIDE WHETHER APS OR DPS ENGINE IS USED
000975:                                                                                                  #                                =0      DPS
000976:                                                                                                  #                                =1      APS
000977:
000978:                                                                                                  #  OUTPUT                IMPULSW         ZERO FOR STEERING
000979:                                                                                                  #                                        ONE FOR ATTITUDE HOLD
000980:                                                                                                  #                        NOTHROTL        ZERO FOR THROTTLING
000981:                                                                                                  #                                        ONE TO INHIBIT THROTTLING
000982:                                                                                                  #                        TGO             TIME TO BURN IN CS
000983:
000984:                                                                                                  #                        THE QUANTITY M.NEWTON = 10000 NEWTONS WILL BE USED TO EXPRESS
000985:                                                                                                  #                        FORCE
000986:
000987: 27,2540  E7,1516                                  EBANK=   TGO
000988: 27,2540                                           COUNT*   $$/40.13
000989: 27,2540           06037        S40.13             TC       INTPRET
000990: 27,2541           43001                           SETPD    CLEAR
000991: 27,2542           00001                                    00D
000992: 27,2543           01266                                    IMPULSW                               #  ASSUME NO STEERING UNTIL FOUND OTHERWISE
000993: 27,2544           51575                           VLOAD    ABVAL
000994: 27,2545           03701                                    VGTIG                                 #  VELOCITY TO BE GAINED AT +7
000995: 27,2546           41325                           PDDL     DMP                                   #  00D = MAG OF VGTIG AT +7
000996: 27,2547           21021                                    4SEC(17)                              #  CORRECT VG FOR 4 SECS OF 2 JET ULLAGE
000997: 27,2550           34017                                    FRCS2
000998: 27,2551           72471                           DDV      SL1                                   #  SCALE
000999: 27,2552           01245                                    WEIGHT/G
001000: 27,2553           41421                           BDSU     PUSH
001001: 27,2554           43014                           BOFF     SET
001002: 27,2555           05342                                    APSFLAG
001003: 27,2556           56626                                    S40.13D                               #  FOR DPS ENGINE
001004: 27,2557           02463                                    NOTHROTL
001005: 27,2560           56345                           DLOAD    DDV                                   #  00D = MAG OF VGTIG CORRECTED
001006: 27,2561           16001                                    K1VAL                                 #  M.NEWTONS-CS AT +24
001007: 27,2562           01245                                    WEIGHT/G
001008: 27,2563           50021                           BDSU     BMN


001010: 27,2564           00001                                    00D
001011: 27,2565           56610                                    S40.131                               #  TGO LESS THAN 100 CS
001012: 27,2566           41325                           PDDL     DMP                                   #  02D = TEMP1 AT +7
001013: 27,2567           03737                                    MDOT
001014:
001015:                                                                                                  #  MDOT REPRESENTS THE RATE OF DECREASE OF VEHICLE MASS DURING ENGINE
001016:                                                                                                  #  BURN IN KILOGRAMS/CS.  WHEN SATURN IS USED, THE SCALING MAY
001017:                                                                                                  #  REQUIRE ADJUSTMENT
001018:
001019: 27,2570           16700                                    3.5SEC                                #  350 CS AT +14
001020: 27,2571           65221                           BDSU     PDDL
001021: 27,2572           01245                                    WEIGHT/G
001022: 27,2573           03735                                    F
001023: 27,2574           60405                           DMP      SR2                                   #  SCALE
001024: 27,2575           16702                                    5SECS
001025: 27,2576           41471                           DDV      PUSH                                  #  04D = TEMP2
001026: 27,2577           51021                           BDSU     BPL
001027: 27,2600           00003                                    02D
001028: 27,2601           56626                                    S40.13D
001029: 27,2602           55345                           DLOAD    BDDV
001030: 27,2603           43205                           DMP      DAD
001031: 27,2604           16702                                    5SECS
001032: 27,2605           16676                                    1SEC2D                                #  100 CS AT +14
001033: 27,2606           77650                           GOTO
001034: 27,2607           56616                                    S40.132
001035: 27,2610           41345        S40.131            DLOAD    DMP
001036: 27,2611           01245                                    WEIGHT/G
001037: 27,2612           41542                           SR1      PUSH
001038: 27,2613           56215                           DAD      DDV
001039: 27,2614           16003                                    K2VAL                                 #  M.NEWTON CS AT +24
001040: 27,2615           16005                                    K3VAL                                 #  M.NEWTON CS AT +10
001041: 27,2616           77414        S40.132            SET      EXIT
001042: 27,2617           01066                                    IMPULSW
001043: 27,2620           07257        S40.132*           TC       TPAGREE
001044: 27,2621           30154                           CA       MPAC
001045: 27,2622           56001                           XCH      L
001046: 27,2623           34755                           CA       ZERO
001047: 27,2624           53517                           DXCH     TGO
001048: 27,2625           12650                           TCF      S40.134
001049:
001050: 27,2626           41345        S40.13D            DLOAD    DMP                                   #  FOR DPS ENGINE
001051: 27,2627           00001                                    00D
001052: 27,2630           01245                                    WEIGHT/G
001053: 27,2631           43006                           PUSH     BON
001054: 27,2632           05302                                    APSFLAG
001055: 27,2633           56671                                    APSTGO
001056: 27,2634           43071                           DDV      CLEAR
001057: 27,2635           16007                                    S40.136
001058: 27,2636           02663                                    NOTHROTL
001059: 27,2637           41400                           BOV      PUSH


001061: 27,2640           56653                                    S40.130V
001062: 27,2641           51025        S40.137            DSU      BPL
001063: 27,2642           16704                                    6SEC                                  #  600.0 CS AT +14
001064: 27,2643           56661                                    S40.138
001065: 27,2644           52015                           DAD      GOTO
001066: 27,2645           16704                                    6SEC
001067: 27,2646           56616                                    S40.132
001068: 27,2647           77776        S40.133            EXIT
001069: 27,2650           05353        S40.134            TC       PHASCHNG
001070: 27,2651           00003                           OCT      00003
001071: 27,2652           05155                           TC       ENDOFJOB
001072: 27,2653           40545        S40.130V           DLOAD    SR4                                   #  RECOMPUTE TGO IN TIME2 UNITS
001073: 27,2654           77671                           DDV
001074: 27,2655           16011                                    S40.136_                              #  S40.136 SHIFTED LEFT 10
001075: 27,2656           03517                           STORE    TGO
001076: 27,2657           77776                           EXIT
001077: 27,2660           12650                           TCF      S40.134                               #  REJOIN COMMON CODING FOR RESTART PROTECT
001078:
001079: 27,2661           51025        S40.138            DSU      BPL
001080: 27,2662           16706                                    89SECS
001081: 27,2663           56666                                    STORETGO
001082: 27,2664           77614                           SET
001083: 27,2665           02463                                    NOTHROTL
001084: 27,2666           77745        STORETGO           DLOAD                                          #  LOAD TGO AT 2(14)
001085: 27,2667           77776                           EXIT
001086: 27,2670           12620                           TCF      S40.132*
001087:
001088: 27,2671           62471        APSTGO             DDV      SL2
001089: 27,2672           34007                                    FAPS
001090: 27,2673           77650                           GOTO
001091: 27,2674           56667                                    STORETGO   +1
001092: 27,2675           00144 00000  1SEC2D             2DEC     100.0      B-14                       #  100.0 CS AT +14
001093:
001094: 27,2677           01274 00000  3.5SEC             2DEC     350.0      B-13                       #  350 CS AT +13
001095:
001096: 27,2701           00764 00000  5SECS              2DEC     500.0      B-14                       #  500.0 CS AT +14
001097:
001098: 27,2703           01130 00000  6SEC               2DEC     600.0      B-14                       #  600.0 CS AT +14
001099:
001100: 27,2705           21304 00000  89SECS             2DEC     8900.0     B-14
001101:
001102:                                                                                                  #  FUNCTION              (1) GENERATES REQUIRED VELOCITY AND VELOCITY-TO-BE-GAINED
001103:                                                                                                  #                        VECTORS FOR USE DURING AIMPOINT MANEUVERS EVERY TWO
001104:                                                                                                  #                        COMPUTATION CYCLES (4 SECONDS).
001105:                                                                                                  #                        (2) UPDATES THE B VECTOR WHICH IS USED IN THE FINAL
001106:                                                                                                  #                        CALCULATION OF EXTRAPOLATING THE VELOCITY-TO-BE-GAINED
001107:                                                                                                  #                        THROUGH ONE 2-SECOND INTERVAL INTO THE FUTURE.
001108:
001109:                                                                                                  #  CALLING SEQ VIA FINDVAC AS NEW JOB.
001110:
001111:                                                                                                  #  INPUT                 RN      - ACTIVE VEHICLE RADIUS VECTOR IN METERS AT +29.
001112:                                                                                                  #                        VN      - ACTIVE VEHICLE VELOCITY VECTOR IN METERS/CS AT +7


001114:                                                                                                  #                        VRPREV  - LAST COMPUTED VELOCITY REQUIRED VECTOR IN
001115:                                                                                                  #                                  METERS/CS AT +7.
001116:                                                                                                  #                        TIG     - TIME OF IGNITION IN CS AT +28.
001117:                                                                                                  #                        DLTARG  - COMPUTATION CYCLE INTERVAL = 200 CS AT +28.
001118:                                                                                                  #                        PIPTIME - TIME OF RN AND VN IN CS AT +28.
001119:                                                                                                  #                        GDT/2   - HALF OF VELOCITY GAINED IN DELTA T TIME DUE TO
001120:                                                                                                  #                                  ACCERERATION OF GRAVITY IN METERS/CS AT +7.
001121:                                                                                                  #                        DELVREF - CHANGE IN VELOCITY DURING LAST 2 SEC IN
001122:                                                                                                  #                                  METERS/CS AT +7.
001123:
001124:                                                                                                  #  OUTPUT                VGPREV  - VELOCITY TO BE GAINED VECTOR IN METERS/CS AT +7.
001125:                                                                                                  #                        VGDISP  - MAG OF VGPREV FOR DISPLAY PURPOSES.
001126:                                                                                                  #                        VRPREV  - VELOCITY REQUIRED VECTOR IN METERS/CS AT +7.
001127:                                                                                                  #                        BDT     - B VECTOR IN METERS/CS AT +7.
001128:
001129:                                                                                                  #  SUBROUTINES USED - INITVEL
001130:
001131: 27,2707  E7,1700                                  EBANK=   VGPREV
001132: 27,2707                                           COUNT*   $$/S40.9
001133: 27,2707           06037        S40.9              TC       INTPRET
001134: 27,2710           77601                           SETPD
001135: 27,2711           00001                                    00D
001136: 27,2712           71214                           SET      DLOAD
001137: 27,2713           01072                                    AVFLAG                                #  SET AVFLAG FOR LEM ACTIVE
001138: 27,2714           06522                                    HI6ZEROS
001139: 27,2715           77725                           PDDL
001140: 27,2716           16406                                    EPS1
001141: 27,2717           43214                           BOFF     DAD                                   #  EPSILON4 = 10 OR 45 DEGREES.
001142: 27,2720           03745                                    NORMSW
001143: 27,2721           56723                                    EPSSMALL
001144: 27,2722           16410                                    EPS2
001145: 27,2723           45006        EPSSMALL           PUSH     CALL
001146: 27,2724           22002                                    HAVEGUES
001147: 27,2725           77776        ENDS40.9           EXIT
001148: 27,2726           05353                           TC       PHASCHNG
001149: 27,2727           00002                           OCT      2
001150: 27,2730           15155                           TCF      ENDOFJOB
001151:
001152: 27,2731           51575        RASTEER1           VLOAD    ABVAL
001153: 27,2732           01221                                    RN
001154: 27,2733           53744                           LXC,2    SL*
001155: 27,2734           02777                                    RTX2
001156: 27,2735           57576                                    0,2
001157: 27,2736           27715                           STOVL    RMAG
001158: 27,2737           03444                                    RTARG
001159: 27,2740           47051                           VSU      RTB
001160: 27,2741           01221                                    RN
001161: 27,2742           21724                                    NORMUNX1
001162: 27,2743           17656                           STODL    IC
001163: 27,2744           00045                                    36D                                   #  C(36D) = ABVAL(C)
001164: 27,2745           53674                           XAD,2    SL*
001165: 27,2746           00046                                    X1


001167: 27,2747           57576                                    0,2
001168: 27,2750           00037                           STORE    30D
001169: 27,2751           41301                           NORM     DMP
001170: 27,2752           00050                                    X2
001171: 27,2753           03715                                    RMAG
001172: 27,2754           57101                           NORM     XAD,2
001173: 27,2755           00047                                    X1
001174: 27,2756           00046                                    X1
001175: 27,2757           77734                           SXA,2
001176: 27,2760           03766                                    MUSCALE
001177: 27,2761           17725                           STODL    R1C                                   #                        2(+58 -X)
001178: 27,2762           00037                                    30D
001179: 27,2763           65342                           SR1      PDDL
001180: 27,2764           03715                                    RMAG
001181: 27,2765           65342                           SR1      PDDL
001182: 27,2766           03723                                    RTMAG
001183: 27,2767           43342                           SR1      DAD
001184: 27,2770           45415                           DAD      STADR
001185: 27,2771           74044                           STORE    SS                                    #  SS = (R1 + R2 + C)/2
001186: 27,2772           41225                           DSU      DMP
001187: 27,2773           00037                                    30D
001188: 27,2774           03721                                    MU/A
001189: 27,2775           77621                           BDSU
001190: 27,2776           03717                                    MUASTEER
001191: 27,2777           45325                           PDDL     DSU
001192: 27,3000           03733                                    SS
001193: 27,3001           03715                                    RMAG
001194: 27,3002           70501                           NORM     SR1
001195: 27,3003           00047                                    X1
001196: 27,3004           41271                           DDV      DMP
001197: 27,3005           03725                                    R1C
001198: 27,3006           53664                           XSU,2    SL*
001199: 27,3007           00046                                    X1
001200: 27,3010           57575                                    1,2
001201: 27,3011           77754                           LXA,2
001202: 27,3012           03766                                    MUSCALE
001203: 27,3013           75366                           SQRT     SIGN
001204: 27,3014           02673                                    GEOMSGN
001205: 27,3015           00041                           STORE    32D                                   #  + OR - A
001206: 27,3016           41345                           DLOAD    DMP
001207: 27,3017           03733                                    SS
001208: 27,3020           03721                                    MU/A
001209: 27,3021           77621                           BDSU
001210: 27,3022           03717                                    MUASTEER
001211: 27,3023           45325                           PDDL     DSU
001212: 27,3024           03733                                    SS
001213: 27,3025           03723                                    RTMAG
001214: 27,3026           70501                           NORM     SR1
001215: 27,3027           00047                                    X1
001216: 27,3030           41271                           DDV      DMP
001217:


001219: 27,3031           03725                                    R1C
001220: 27,3032           53664                           XSU,2    SL*
001221: 27,3033           00046                                    X1
001222: 27,3034           57575                                    1,2
001223: 27,3035           65366                           SQRT     PDDL                                  #  -B (NO SIGN)
001224: 27,3036           03733                                    SS
001225: 27,3037           56225                           DSU      DDV
001226: 27,3040           00037                                    30D
001227: 27,3041           03733                                    SS
001228: 27,3042           41566                           SQRT     PUSH
001229: 27,3043           67542                           SR1      ASIN
001230: 27,3044           65205                           DMP      PDDL
001231: 27,3045           17216                                    2PI+3
001232: 27,3046           56325                           PDDL     DDV
001233: 27,3047           00037                                    30D
001234: 27,3050           03733                                    SS
001235: 27,3051           77600                           BOV
001236: 27,3052           57053                                    +1
001237: 27,3053           41366                           SQRT     DMP
001238: 27,3054           44242                           SR3      BDSU
001239: 27,3055           65365                           SIGN     PDDL
001240: 27,3056           02673                                    GEOMSGN
001241: 27,3057           17216                                    2PI+3
001242: 27,3060           45302                           SR2      DSU
001243: 27,3061           65205                           DMP      PDDL
001244: 27,3062           03733                                    SS
001245: 27,3063           03733                                    SS
001246: 27,3064           75442                           SR3      SQRT
001247: 27,3065           77605                           DMP
001248: 27,3066           52525                           PDDL     SL3
001249: 27,3067           03717                                    MUASTEER
001250: 27,3070           55366                           SQRT     BDDV
001251: 27,3071           43225                           DSU      DAD
001252: 27,3072           03631                                    TPASS4
001253: 27,3073           01235                                    PIPTIME
001254: 27,3074           14037                           STODL    30D
001255: 27,3075           77765                           SIGN
001256: 27,3076           00037                                    30D                                   #  B WITH SIGN
001257: 27,3077           00037                           STORE    30D
001258: 27,3100           77214                           BON      VLOAD
001259: 27,3101           03705                                    NORMSW
001260: 27,3102           57123                                    180MESS
001261: 27,3103           03656                                    IC
001262: 27,3104           53451                           VSU      UNIT
001263: 27,3105           03537                                    UNIT/R/
001264: 27,3106           63361                           VXSC     PDVL
001265: 27,3107           00037                                    30D
001266: 27,3110           03656                                    IC
001267: 27,3111           53455                           VAD      UNIT
001268: 27,3112           03537                                    UNIT/R/


001270: 27,3113           53361        GETVRVG1           VXSC     VAD
001271: 27,3114           00041                                    32D
001272: 27,3115           53744        GETVRVG2           LXC,2    VSR*
001273: 27,3116           02777                                    RTX2
001274: 27,3117           57177                                    0          -1,2
001275: 27,3120           02337                           STORE    VIPRIME
001276: 27,3121           77650                           GOTO
001277: 27,3122           57166                                    ASTREND    -2
001278: 27,3123           50375        180MESS            VLOAD    DOT
001279: 27,3124           03656                                    IC
001280: 27,3125           03537                                    UNIT/R/
001281: 27,3126           77240                           BMN      VLOAD
001282: 27,3127           57146                                    NEGPROD
001283: 27,3130           03656                                    IC
001284: 27,3131           63362                           VSR1     PDVL
001285: 27,3132           03537                                    UNIT/R/
001286: 27,3133           53362                           VSR1     VAD
001287: 27,3134           77656                           UNIT
001288: 27,3135           57406                           PUSH     VCOMP                                 #  FOR A
001289: 27,3136           75235                           VXV      SIGN
001290: 27,3137           02674                                    UN
001291: 27,3140           02673                                    GEOMSGN
001292: 27,3141           74256                           UNIT     VXSC
001293: 27,3142           00037                                    30D
001294: 27,3143           77715                           PDVL                                           #  UNIT(IC-IR)   +-B
001295: 27,3144           77650                           GOTO
001296: 27,3145           57113                                    GETVRVG1
001297: 27,3146           74575        NEGPROD            VLOAD    VSR1
001298: 27,3147           03537                                    UNIT/R/
001299: 27,3150           74515                           PDVL     VSR1
001300: 27,3151           03656                                    IC
001301: 27,3152           53451                           VSU      UNIT
001302: 27,3153           77606                           PUSH
001303: 27,3154           75235                           VXV      SIGN
001304: 27,3155           02674                                    UN                                    #  FOR B
001305: 27,3156           02673                                    GEOMSGN
001306: 27,3157           74256                           UNIT     VXSC
001307: 27,3160           00041                                    32D
001308: 27,3161           77715                           PDVL
001309: 27,3162           53361                           VXSC     VAD
001310: 27,3163           00037                                    30D
001311: 27,3164           77650                           GOTO
001312: 27,3165           57115                                    GETVRVG2
001313: 27,3166           77651                           VSU
001314: 27,3167           03553                                    VN1
001315: 27,3170           02366        ASTREND            STORE    DELVEET3
001316: 27,3171           53135        FIRSTTME           SLOAD    BZE
001317: 27,3172           03000                                    RTX2
001318: 27,3173           57177                                    GETGOBL
001319: 27,3174           52175                           VLOAD    GOTO                                  #  NO OBLATENESS COMP IF IN MOON SPHERE


001321: 27,3175           02366                                    DELVEET3
001322: 27,3176           57212                                    NOGOBL
001323: 27,3177           53575        GETGOBL            VLOAD    UNIT                                  #  CALCULATE OBLATENESS TERM.
001324: 27,3200           01221                                    RN
001325: 27,3201           45345                           DLOAD    DSU
001326: 27,3202           01235                                    PIPTIME                               #               2
001327: 27,3203           03512                                    GOBLTIME                              #  G    = -(MU/R )(UNITGOBL)(T-TIG)
001328: 27,3204           56205                           DMP      DDV                                   #   OBL
001329: 27,3205           16023                                    EARTHMU
001330: 27,3206           00043                                    34D                                   #  34D = /RN/ (2) FROM UNIT OPERATION.
001331: 27,3207           53361                           VXSC     VAD
001332: 27,3210           03521                                    UNITGOBL
001333: 27,3211           02366                                    DELVEET3                              #  OUTPUT FROM INITVEL VG = VR - VN
001334: 27,3212           02366        NOGOBL             STORE    DELVEET3                              #  VG = VR + GOBL - VN
001335: 27,3213           77650                           GOTO
001336: 27,3214           56455                                    VGAIN*
001337:
001338: 27,3215           31103 36652  2PI+3              2DEC     3.141592653 B-2
001339:


001341:                                                                                                  #  TRIMGIMB      (FORMERLY S40.6)
001342:                                                                                                  #  MOD 0         24 FEB 67       PETER ADLER
001343:
001344:                                                                                                  #  FUNCTION:
001345:                                                                                                  #        TRIMS DPS ENGINE TO MINIMIZE THRUST/CG OFFSET.  ENGINE IS GIMBALLED TO FULL + PITCH AND + ROLL (TO LOCK)
001346:                                                                                                  #        FOR REFERENCE AND IS THEN BROUGHT BACK TO TRIM POSITION BY RUNNING FOR THE PROPER TIMES (TO BE
001347:                                                                                                  #        SPECIFIED BY GAEC) IN - PITCH AND - ROLL.
001348:
001349:                                                                                                  #  CALLING SEQUENCE:
001350:                                                                                                  #        VIA WAITLIST FROM R03
001351:
001352:                                                                                                  #  INPUT:
001353:                                                                                                  #        PITTIME         TIME TO RUN FROM FULL + PITCH TO TRIM (CS)
001354:                                                                                                  #        ROLLTIME        TIME TO RUN FROM FULL + ROLL TO TRIM (CS)
001355:
001356:                                                                                                  #  SUBROUTINES USED:
001357:                                                                                                  #        WAITLIST, FIXDELAY, VARDELAY, FLAGUP, FLAGDOWN, NOVAC
001358:
001359: 27,3217                                           COUNT*   $$/S40.6
001360: 27,3217  E6,1401                                  EBANK=   ROLLTIME                              #  OCTAL MASKS: PRIO5=05000 EBANK5=02400
001361:
001362: 27,3217           05516        TRIMGIMB           TC       DOWNFLAG                              #  GMBDRVSW FLAG IS SET WHEN EITHER ROLL OR
001363: 27,3220           00137                           ADRES    GMBDRVSW                              #  PITCH IS COMPLETED, WHICHEVER IS FIRST.
001364:
001365: 27,3221           45017                           CS       PRIO5                                 #  TURN OFF - PITCH, - ROLL, IF ON.
001366: 27,3222           00006                           EXTEND
001367: 27,3223           03012                           WAND     CHAN12
001368: 27,3224           35014                           CAF      EBANK5                                #  TURN ON + PITCH, + ROLL.
001369: 27,3225           00006                           EXTEND
001370: 27,3226           05012                           WOR      CHAN12
001371: 27,3227           05221                           TC       FIXDELAY                              #  WAIT ONE MINUTE TO MAKE SURE ENGINE IS
001372: 27,3230           13560                           DEC      6000       B-14                       #  AT FULL + PITCH AND FULL + ROLL
001373: 27,3231           45014                           CS       EBANK5                                #  TURN OFF + PITCH, + ROLL.
001374: 27,3232           00006                           EXTEND
001375: 27,3233           03012                           WAND     CHAN12
001376: 27,3234           35017                           CAF      PRIO5                                 #  TURN ON - PITCH, - ROLL.
001377: 27,3235           00006                           EXTEND
001378: 27,3236           05012                           WOR      CHAN12
001379: 27,3237           31402                           CAE      PITTIME                               #  GET TIME TO SHUT OFF - PITCH AND SET UP
001380: 27,3240           05173                           TC       TWIDDLE                               #  TWIDDLE-TASK TO TURN IT OFF THEN
001381: 27,3241           03260                           ADRES    PITCHOFF
001382:
001383: 27,3242           31401                           CAE      ROLLTIME                              #  GET TIME TO SHUT OFF - ROLL AND GO AWAY
001384: 27,3243           05224                           TC       VARDELAY                              #  UNTIL THEN
001385: 27,3244           44740                           CS       BIT12
001386: 27,3245           00006                           EXTEND
001387: 27,3246           03012                           WAND     CHAN12                                #  SHUT OFF ROLL
001388: 27,3247           30102        ROLLOVER           CA       FLAGWRD6                              #  IF HERE INLINE (ROLL DONE) IS PITCH DONE
001389: 27,3250           74742                           MASK     GMBDRBIT                              #  IF HERE FROM PITCHOFF, IS ROLL DONE?
001390: 27,3251           00006                           EXTEND
001391: 27,3252           13264                           BZF      PITCHOFF   +4                         #  NO.  SET FLAG, ROLL OR PITCH DONE.
001392: 27,3253           34737                           CAF      PRIO10                                #  RETURN TO R03
001393: 27,3254           05072                           TC       NOVAC
001394: 27,3255  E7,1471                                  EBANK=   WHOCARES


001396: 27,3255           02323 02067                     2CADR    TRIMDONE
001397:
001398: 27,3257           05261                           TC       TASKOVER
001399: 27,3260           44742        PITCHOFF           CS       BIT10
001400: 27,3261           00006                           EXTEND
001401: 27,3262           03012                           WAND     CHAN12                                #  SHUT OFF PITCH
001402: 27,3263           13247                           TCF      ROLLOVER                              #  SEE IF ROLL HAS FINISHED ALSO.
001403: 27,3264           05504                           TC       UPFLAG                                #  ROLL DONE; OR PITCH DONE; BUT NOT BOTH.
001404: 27,3265           00137                           ADRES    GMBDRVSW
001405: 27,3266           05261                           TC       TASKOVER
001406:


001408:                                                                                                  #  SUBROUTINE NAME:  S41.1       MOD. NO. 0      DATE: FEBRUARY 28, 1967
001409:                                                                                                  #  MOD. NO. 1    DATE: JANUARY 23, 1968: BY PETER ADLER (MIT/IL)
001410:
001411:                                                                                                  #  AUTHOR: JONATHAN D. ADDELSTON (ADAMS ASSOCIATES)
001412:
001413:                                                                                                  #  S41.1 PERFORMS THE COORDINATE SYSTEM TRANFORMATION FROM THE REFERENCE FRAME TO THE BODY OF THE LM.
001414:                                                                                                  #  SPECIFICALLY, IT IS USED TO TRANSFORM A VELOCITY (SCALED AT 2(+7) METERS/CENTISECOND) FROM REFERENCE TO LM AXIS
001415:                                                                                                  #  COORDINATES.  FIRST THE VECTOR IS TRANSFORMED TO THE STABLE MEMBER COORDINATES BY THE MATRIX REFSMMAT.  THIS
001416:                                                                                                  #  LEAVES THE VECTOR IN MPAC, SCALED AT 2(+8) METERS/CENTISECOND.  THEN
001417:                                                                                                  #  THE SUBROUTINE CDUTRIG IS CALLED TO SET UP THE DOUBLE-PRECISION CDU VECTOR ALONG WITH ITS SINES AND COSINES.
001418:                                                                                                  #  THE VECTOR IS THEN TRANSFORMED FROM STABLE MEMBER COORDINATES TO SPACECRAFT (OR LM) COORDINATES BY THE
001419:                                                                                                  #  SUBROUTINE *SMNB*.  FINALLY( THE VECTOR IS RESCALED TO 2(+7) METERS/CENTISECOND, AND CONTROL IS RETURNED TO THE
001420:                                                                                                  #  CALLER WITH C(MPAC) = VELOCITY(LM).
001421:
001422:                                                                                                  #  CALLING SEQUENCE:
001423:                                                                                                  #        L       VLOAD   CALL
001424:                                                                                                  #        L +1            VELOCITY(REF)           SCALED AT 2(+7) M/CS IN REFERENCE COORDS.
001425:                                                                                                  #        L +2            S41.1
001426:                                                                                                  #        L +3    STORE   VELOCITY(LM)            SCALED AT 2(+7) M/CS IN LM BODY AXIS SYS.
001427:
001428:                                                                                                  #  SUBROUTINES CALLED:
001429:                                                                                                  #        1.      CDUTRIG,
001430:                                                                                                  #                        WHICH CALLS CDULOGIC.
001431:                                                                                                  #        2.      *SMNB*
001432:
001433:                                                                                                  #  NORMAL RETURN:  L +3 (SEE CALLING SEQUENCE, ABOVE.)
001434:
001435:                                                                                                  #  ALARM/ABORT MODES:  NONE.
001436:
001437:                                                                                                  #  RESTART PROTECTION:  NONE.
001438:


001440:                                                                                                  #  INPUT:
001441:                                                                                                  #        1.      REFSMMAT.
001442:                                                                                                  #        2.      CDUX, CDUY, CDUZ.
001443:                                                                                                  #        3.      VELOCITY (REF) IN MPAC.
001444:
001445:                                                                                                  #  OUTPUT:
001446:                                                                                                  #        1.      CDUSPOT:        DOUBLE PRECISION CDU VECTOR, ORDERED Y,Z,X.
001447:                                                                                                  #        2.      SINCDU:         HALF SINES OF CDUSPOT COMPONENTS.
001448:                                                                                                  #        3.      COSCDU:         HALF COSINES OF CDUSPOT COMPONENTS.
001449:                                                                                                  #        4.      MPAC:           VELOCITY(LM) (SCALED AT 2(+7) METERS/CENTISECOND)
001450:
001451:                                                                                                  #  DEBRIS:  NONE.
001452:
001453:                                                                                                  #  CHECKOUT STATUS:  CODED.
001454:
001455: 27,3267                                           COUNT*   $$/S41.1
001456: 27,3267           76521        S41.1              MXV      VSL1                                  #  CONVERT VECTOR IN MPAC FROM REF AT 2(+7)
001457: 27,3270           01734                                    REFSMMAT                              #  TO SM AND RESCALE DUE TO HALFUNIT MATRIX
001458: 27,3271           77650                           GOTO                                           #  CONVERT TO BODY AT 2(+7) USING PRESENT
001459: 27,3272           47646                                    CDU*SMNB                              #  CDU ANGLES.  CDU*SMNB WILL RETURN
001460:                                                                                                  #  VIA RVQ TO THE CALLER OF S41.1

End of include-file P40-P47.agc.  Parent file is MAIN.agc


