
Source Code


000002:                                                                                                  ## Copyright:   Public domain.
000003:                                                                                                  ## Filename:    PHASE_TABLE_MAINTENANCE.agc
000004:                                                                                                  ## Purpose:     A section of Luminary revision 98.
000005:                                                                                                  ##              It is part of the reconstructed source code for the a
000006:                                                                                                  ##              development version of the flight software for the Lunar
000007:                                                                                                  ##              Module's (LM) Apollo Guidance Computer (AGC) for Apollo 11.
000008:                                                                                                  ##              The code has been recreated from a copy of Luminary 99
000009:                                                                                                  ##              revision 001, using asterisks indicating changed lines in
000010:                                                                                                  ##              the listing and Luminary Memo #85, which lists changes between
000011:                                                                                                  ##              Luminary 98 and 99.
000012:                                                                                                  ## Reference:   pp. 1294-1302
000013:                                                                                                  ## Assembler:   yaYUL
000014:                                                                                                  ## Contact:     Ron Burkey <info@sandroid.org>.
000015:                                                                                                  ## Website:     www.ibiblio.org/apollo/index.html
000016:                                                                                                  ## Mod history: 2019-07-28 MAS  Created from Luminary 99.
000017:


000019:                                                                                                  #  SUBROUTINE TO UPDATE THE PROGRAM NUMBER DISPLAY ON THE DSKY.
000020:
000021: 43,3724                                           COUNT*   $$/PHASE
000022:    5311                                           BLOCK    02
000023:    4000                                           SETLOC   FFTAG1
000024:    4000                                           BANK
000025:
000026:    5311           50002        NEWMODEX           INDEX    Q                                     #  UPDATE MODREG.  ENTRY FOR MODE IN FIXED.
000027:    5312           30000                           CAF      0
000028:    5313           24002                           INCR     Q
000029:
000030:    5314           55011        NEWMODEA           TS       MODREG                                #  ENTRY FOR MODE IN A.
000031:    5315           35320        MMDSPLAY           CAF      +3                                    #  DISPLAY MAJOR MODE.
000032:    5316           22006        PREBJUMP           LXCH     BBANK                                 #  PUTS BBANK IN L
000033:    5317           14640                           TCF      BANKJUMP                              #  PUTS Q INTO A
000034:    5320           20213                           CADR     SETUPDSP
000035:
000036:                                                                                                  #  RETURN TO CALLER +3 IF MODE = THAT AT CALLER +1.  OTHERWISE RETURN TO CALLER +2.
000037:
000038:    5321           50002        CHECKMM            INDEX    Q
000039:    5322           40000                           CS       0
000040:    5323           61011                           AD       MODREG
000041:    5324           00006                           EXTEND
000042:    5325           16741                           BZF      Q+2
000043:    5326           16737                           TCF      Q+1                                   #  NO MATCH
000044:
000045:    5327     6742               TCQ                =        Q+2        +1
000046:
000047: 14,3774                                           BANK     14
000048: 10,2000                                           SETLOC   PHASETAB
000049: 10,2000                                           BANK
000050:
000051: 10,2213                                           COUNT*   $$/PHASE
000052: 10,2213           00004        SETUPDSP           INHINT
000053: 10,2214           52071                           DXCH     RUPTREG1                              #  SAVE CALLER-S RETURN 2CADR
000054: 10,2215           34355                           CAF      PRIO30                                #        EITHER A TASK OR JOB CAN COME TO
000055: 10,2216           05072                           TC       NOVAC                                 #        NEWMODE X
000056: 10,2217     1011                                  EBANK=   MODREG
000057: 10,2217           03534 60102                     2CADR    DSPMMJOB
000058:
000059: 10,2221           52071                           DXCH     RUPTREG1
000060: 10,2222           00003                           RELINT
000061: 10,2223           52006                           DXCH     Z                                     #  RETURN
000062:
000063: 10,2224  40,3534               DSPMMJOB           EQUALS   DSPMMJB
000064:
000065:    5327                                           BLOCK    02
000066:    4000                                           SETLOC   FFTAG1
000067:    4000                                           BANK
000068:


000070:                                                                                                  #  PHASCHNG IS THE MAIN WAY OF MAKING PHASE CHANGES FOR RESTARTS.  THERE ARE THREE FORMS OF PHASCHNG, KNOWN AS TYPE
000071:                                                                                                  #  A, TYPE B, AND TYPE C.  THEY ARE ALL CALLED AS FOLLOWS, WHERE OCT XXXXX CONTAINS THE PHASE INFORMATION,
000072:                                                                                                  #                TC      PHASCHNG
000073:                                                                                                  #                OCT     XXXXX
000074:                                                                                                  #  TYPE A IS CONCERNED WITH FIXED PHASE CHANGES, THAT IS, PHASE INFORMATION THAT IS STORED PERMANENTLY.  THESE
000075:                                                                                                  #  OPTIONS ARE, WHERE G STANDS FOR A GROUP AND .X FOR THE PHASE,
000076:                                                                                                  #        G.0             INACTIVE, WILL NOT PERMIT A GROUP G RESTART
000077:                                                                                                  #        G.1             WILL CAUSE THE LAST DISPLAY TO BE REACTIVATED, USED MAINLY IN MANNED FLIGHTS
000078:                                                                                                  #        G.EVEN          A DOUBLE TABLE RESTART, CAN CAUSE ANY COMBINATION OF TWO JOBS, TASKS, AND/OR
000079:                                                                                                  #                        LONGCALL TO BE RESTARTED.
000080:                                                                                                  #        G.ODD NOT .1    A SINGLE TABLE RESTART, CAN CAUSE EITHER A JOB, TASK, OR LONGCALL RESTART
000081:
000082:                                                                                                  #  THIS INFORMATION IS PUT INTO THE OCTAL WORD AFTER TC PHASCHNG AS FOLLOWS
000083:                                                                                                  #        TL0 00P PPP PPP GGG                                               ,
000084:                                                                                                  #  WHERE EACH LETTER OR NUMBER STANDS FOR A BIT.  THE G:S STAND FOR THE GROUP, OCTAL 1-7, THE P:S FOR THE PHASE,
000085:                                                                                                  #  OCTAL 0 - 127.  0:S MUST BE 0.  IF ONE WISHES TO HAVE THE TBASE OF GROUP G TO BE SET AT THIS TIME,
000086:                                                                                                  #  T IS SET TO 1, OTHERWISE IT IS SET TO 0.  SIMIARLY IF ONE WISHES TO SET LONGBASE, THEN L IS SET TO 1, OTHERWISE
000087:                                                                                                  #  IT IS SET TO 0.  SOME EXAMPLES,
000088:                                                                                                  #                TC      PHASCHNG        THIS WILL CAUSE GROUP 3 TO BE SET TO 0,
000089:                                                                                                  #                OCT     00003           MAKING GROUP 3 INACTIVE
000090:
000091:                                                                                                  #                TC      PHASCHNG        IF A RESTART OCCURS THIS WOULD CAUSE
000092:                                                                                                  #                OCT     00012           GROUP 2 TO RESTART THE LAST DISPLAY
000093:
000094:                                                                                                  #                TC      PHASCHNG        THIS SETS THE TBASE OF GROUP 4 AND IN
000095:                                                                                                  #                OCT     40064           CASE OF A RESTART WOULD START UP THE TWO
000096:                                                                                                  #                                        THINGS LOCATED IN THE DOUBLE 4.6 RESTART
000097:                                                                                                  #                                        LOCATION
000098:
000099:                                                                                                  #                TC      PHASCHNG        THIS SETS LONGBASE AND UPON A RESTART
000100:                                                                                                  #                OCT     20135           CAUSES 5.13 TO BE RESTARTED (SINCE
000101:                                                                                                  #                                        LONGBASE WAS SET THIS SINGLE ENTRY
000102:                                                                                                  #                                        SHOULD BE A LONGCALL)
000103:
000104:                                                                                                  #                TC      PHASCHNG        SINCE BOTH TBASE4 AND LONGBASE ARE SET,
000105:                                                                                                  #                OCT     60124           4.12 SHOULD CONTAIN BOTH A TASK AND A
000106:                                                                                                  #                                        LONGCALL TO BE RESTARTED
000107:
000108:                                                                                                  #  TYPE C PHASCHNG CONTAINS THE VARIABLE TYPE OF PHASCHNG INFORMATION.  INSTEAD OF THE INFORMATION BEING IN A
000109:                                                                                                  #  PERMANENT FORM, ONE STORES THE DESIRED RESTART INFORMATION IN A VARIABKE LOCATION.  THE BITS ARE AS FOLLOWS,
000110:                                                                                                  #        TL0 1AD XXX CJW GGG
000111:                                                                                                  #  WHERE EACH LETTER OR NUMBER STANDS FOR A BIT.  THE G:S STAND FOR THE GROUP, OCTAL 1 - 7.  IF THE RESTART IS TO
000112:                                                                                                  #  BE BY WAITLIST, W IS SET TO 1, IF IT IS A JOB, J IS SET TO 1, IF IT IS A LONGCALL, C IS SET TO 1.  ONLY ONE OF
000113:                                                                                                  #  THESE THREE BITS MAY BE SET.  X:S ARE IGNORED  1 MUST BE 1, AND 0 MUST BE 0.  AGAIN T STANDS FOR THE TBASE,


000115:                                                                                                  #  AND L FOR LONGBASE.  THE BITS A AND D ARE CONCERNED WITH THE VARIABLE INFORMATION.  IF D IS SET TO 1, A PRIORITY
000116:                                                                                                  #  OR DELTA TIME WILL BE READ FROM THE NEXT LOCATION AFTER THE OCTAL INFORMATION, IF THIS IS TO BE INDIRECT, THAT
000117:                                                                                                  #  IS, THE NAME OF A LOCATION COMT+INING THE INFORMATION (DELTA TIME ONLY), THEN THIS IS GIVEN AS THE -GENADR OF
000118:                                                                                                  #  THAT LOCATION WHICH CONTAINS THE DELTA TIME.  IF THE OLD PRIORITY OR DELTA TIME IS TO BE USED, THAT WHICH IS
000119:                                                                                                  #  ALREADY IN THE VARIABLE STORAGE, THEN D IS SET TO 0.  NEXT THE A BIT IS USED.  IF IT IS SET TO 0, THE ADDRESS
000120:                                                                                                  #  THAT WOULD BE RESTARTED DURING A RESTART IS THE NEXT LOCATION AFTER THE PHASE INFORMATION, THAT IS, EITHER
000121:                                                                                                  #  (TC PHASCHNG) +2 OR +3, DEPENDING ON WHETHER D HAD BEEN SET OR NOT.  IF A IS SET TO 1, THEN THE ADDRESS THAT
000122:                                                                                                  #  WOULD BE RESTARTED IS THE 2CADR THAT IS READ FROM THE NEXT TWO LOCATIONS.  EXAMPLES,
000123:                                                                                                  #        AD      TC      PHASCHNG        THIS WOULD CAUSE LOCATION AD +3 TO BE
000124:                                                                                                  #        AD+1    OCT     05023           RESTARTED BY GROUP THREE WITH A PRIORITY
000125:                                                                                                  #        AD+2    OCT     23000           OF 23.  NOTE UPON RETURNING IT WOULD
000126:                                                                                                  #        AD+3                            ALSO GO TO AD+3
000127:
000128:                                                                                                  #        AD      TC      PHASCHNG        GROUP 1 WOULD CAUSE CAUSE CALLCALL TO
000129:                                                                                                  #        AD+1    OCT     27441           BE STARTED AS A LONGCALL FROM THE TIME
000130:                                                                                                  #        AD+2    -GENADR DELTIME         STORED IN LONGBASE (LONGBASE WAS SET) BY
000131:                                                                                                  #        AD+3    2CADR   CALLCALL        A DELTA TIME STORED IN DELTIME.  THE
000132:                                                                                                  #        AD+4                            BBCON OF THE 2CADR SHOULD CONTAIN THE E
000133:                                                                                                  #        AD+5                            BANK OF DELTIME.  PHASCHNG RETURNS TO
000134:                                                                                                  #                                        LOCATION AD+5
000135:
000136:                                                                                                  #  NOTE THAT IF A VARIABLE PRIORITY IS GIVEN FOR A JOB, THE JOB WILL BE RESTARTED AS A NOVAC IF THE PRIORITY IS
000137:                                                                                                  #  NEGATIVE, AS A FINDVAC IF THE PRIORITY IS POSITIVE.
000138:
000139:                                                                                                  #  TYPE B PHASCHNG IS A COMBINATION OF VARIABLE AND FIXED PHASE CHANGES.  IT WILL START UP A JOB AS INDICATED
000140:                                                                                                  #  BELOW AND ALSO START UP ONE FIXED RESTART, THAT IS EITHER AN G.1 OR A G.ODD OR THE FIRST ENTRY OF G.EVEN
000141:                                                                                                  #  DOUBLE ENTRY.  THE BIT INFORMATION IS AS FOLLOWS,
000142:                                                                                                  #        TL1 DAP PPP PPP GGG
000143:                                                                                                  #  WHERE EACH LETTER OR NUMBER STANDS FOR A BIT.  THE G:S STAND FOR THE GROUP, OCTAL 1 - 7. THE P:S FOR THE FIXED
000144:                                                                                                  #  PHASE INFORMATION, OCTAL 0 - 127.  1 MUST BE 1.  AND AGAIN T STANDS FOR THE TBASE AND L FOR LONGBASE.  D THIS
000145:                                                                                                  #  TIME STANDS ONLY FOR PRIORITY SINCE THIS WILL BE CONSIDERED A JOB, AND IT MUST BE GIVEN DIRECTLY IF GIVEN.
000146:                                                                                                  #  AGAIN A STANDS FOR THE ADDRESS OF THE LOCATION TO BE RESTARTED, 1 IF THE 2CADR IS GIVEN, OR 0 IF IT IS TO BE
000147:                                                                                                  #  THE NEXT LOCATION.  (THE RETURN LOCATION OF PHASCHNG) EXAMPLES,
000148:                                                                                                  #        AD      TC      PHASCHNG        TBASE IS SET AND A RESTART CAUSE GROUP 3
000149:                                                                                                  #        AD+1    OCT     56043           TO START THE JOB AJOBAJOB WITH PRIORITY
000150:                                                                                                  #        AD+2    OCT     31000           31 AND THE FIRST ENTRY OF 3.4SPOT (WE CAN
000151:                                                                                                  #        AD+3    2CADR   AJOBAJOB        ASSUME IT IS A TASK SINCE WE SET TBASE3)
000152:                                                                                                  #        AD+4                            UPON RETURN FROM PHASCHNG CONTROL WOULD
000153:                                                                                                  #        AD+5                            GO TO AD+5
000154:
000155:                                                                                                  #        AD      TC      PHASCHNG        UPON A RESTART THE LAST DISPLAY WOULD BE
000156:                                                                                                  #        AD+1    OCT     10015           RESTARTED AND A JOB WITH THE PREVIOUSLY
000157:                                                                                                  #        AD+2                            STORED PRIORITY WOULD BE BEGUN AT AD+2
000158:                                                                                                  #                                        BY MEANS OF GROUP 5


000160:                                                                                                  #  THE NOVAC-FINDVAC CHOICE FOR JOBS HOLDS HERE ALSO - NEGATIVE PRIORITY CAUSES A NOVAC CALL, POSITIVE A FINDVAC.
000161:
000162:                                                                                                  #  SUMMARY OF BITS
000163:                                                                                                  #        TYPE A          TL0 00P PPP PPP GGG
000164:                                                                                                  #        TYPE B          TL1 DAP PPP PPP GGG
000165:                                                                                                  #        TYPE C          TL0 1AD XXX CJW GGG
000166:


000168:                                                                                                  #  2PHSCHNG IS USED WHEN ONE WISHES TO START UP A GROUP OR CHANGE A GROUP WHILE UNDER THE CONTROL OF A DIFFERENT
000169:                                                                                                  #  GROUP.  FOR EXAMPLE, CHANGE THE PHASE OF GROUP 3 WHILE THE PORTION OF THE PROGRAM IS UNDER GROUP 5.  ALL 2PHSCHNG
000170:                                                                                                  #  CALLS ARE MADE IN THE FOLLOWING MANNER,
000171:                                                                                                  #                TC      2PHSCHNG
000172:                                                                                                  #                OCT     XXXXX
000173:                                                                                                  #                OCT     YYYYY
000174:                                                                                                  #  WHERE OCT XXXXX MUST BE OF TYPE A AND OCT YYYYY MAY BE OF EITHER TYPE A OR TYPE B OR TYPE C.  THERE IS ONE
000175:                                                                                                  #  DIFFERENCE --- NOTE- IF LONGBASE IS TO BE SET THIS INFORMATION IS GIVEN IN THE OCT YYYYY INFORMATION, IT WILL
000176:                                                                                                  #  BE DISREGARDED IF GIVEN WITH THE OCT XXXXX INFORMATION.  A COUPLE OF EXAMPLES MAY HELP,
000177:                                                                                                  #        AD      TC      2PHSCHNG        SET TBASE3 AND IF A RESTART OCCURS START
000178:                                                                                                  #        AD+1    OCT     40083           THE TWO ENTRIES IN 3.8 TABLE LOCATION
000179:                                                                                                  #        AD+2    OCT     05025           THIS IS OF TYPE C, SET THE JOB TO BE
000180:                                                                                                  #        AD+3    OCT     18000           TO BE LOCATION AD+4, WITH A PRIORITY 18,
000181:                                                                                                  #        AD+4                            FOR GROUP 5 PHASE INFORMATION
000182:
000183:    5327                                           COUNT*   $$/PHASE
000184:    5327           00004        2PHSCHNG           INHINT                                         #  THE ENTRY FOR A DOUBLE PHASE CHANGE
000185:    5330           50002                           NDX      Q
000186:    5331           30000                           CA       0
000187:    5332           24002                           INCR     Q
000188:    5333           54072                           TS       TEMPP2
000189:
000190:    5334           74757                           MASK     OCT7
000191:    5335           60000                           DOUBLE
000192:    5336           54071                           TS       TEMPG2
000193:
000194:    5337           30072                           CA       TEMPP2
000195:    5340           75030                           MASK     OCT17770                              #  NEED ONLY 1770, BUT WHY GET A NEW CONST.
000196:    5341           00006                           EXTEND
000197:    5342           74740                           MP       BIT12
000198:    5343           56072                           XCH      TEMPP2
000199:
000200:    5344           74735                           MASK     BIT15
000201:    5345           54066                           TS       TEMPSW2                               #  INDICATES WHETHER TO SET TBASE OR NOT
000202:
000203:    5346           50002                           INDEX    Q
000204:    5347           30000                           CA       0
000205:    5350           24002                           INCR     Q
000206:    5351           54065                           TS       TEMPSW
000207:
000208:    5352           15363                           TCF      PHASJUMP
000209:
000210:    5353           00004        PHASCHNG           INHINT                                         #  NORMAL PHASCHNG ENTRY POINT.
000211:    5354           50002                           INDEX    Q
000212:    5355           30000                           CA       0
000213:    5356           24002                           INCR     Q
000214:    5357           00004        PHSCHNGA           INHINT                                         #  FIRST OCTAL PARAMETER IN A.


000216:    5360           54065                           TS       TEMPSW
000217:    5361           34753                           CA       ONE
000218:    5362           54066                           TS       TEMPSW2
000219:    5363           00006        PHASJUMP           EXTEND
000220:    5364           35367                           DCA      ADRPCHN2                              #  OFF TO SWITCHED BANK
000221:    5365           52006                           DTCB
000222:
000223:    5366  E3,1400                                  EBANK=   LST1
000224:    5366           02224 20103  ADRPCHN2           2CADR    PHSCHNG2
000225:
000226:    5370           22073        ONEORTWO           LXCH     TEMPBBCN
000227:    5371           22006                           LXCH     BBANK
000228:    5372           22073                           LXCH     TEMPBBCN
000229:
000230:    5373           75024                           MASK     OCT14000                              #  SEE WHAT KIND OF PHASE CHANGE IT IS
000231:    5374           10000                           CCS      A
000232:    5375           17750                           TCF      CHECKB                                #  IT IS OF TYPE :B:
000233:
000234:    5376           30062                           CA       TEMPP
000235:    5377           74745                           MASK     BIT7
000236:    5400           10000                           CCS      A                                     #  SHALL WE USE THE OLD PRIORITY
000237:    5401           15423                           TCF      GETPRIO                               #  NO GET A NEW PRIORITY (OR DELTA T)
000238:
000239:    5402           50061        OLDPRIO            NDX      TEMPG                                 #  USE THE OLD PRIORITY (OR DELTA T)
000240:    5403           31052                           CA       PHSPRDT1   -2
000241:    5404           54070                           TS       TEMPPR
000242:
000243:    5405           30062        CON1               CA       TEMPP                                 #  SEE IF A 2CADR IS GIVEN
000244:    5406           74744                           MASK     BIT8
000245:    5407           10000                           CCS      A
000246:    5410           15427                           TCF      GETNEWNM
000247:
000248:    5411           30002                           CA       Q
000249:    5412           54063                           TS       TEMPNM
000250:    5413           30006                           CA       BB
000251:    5414           00006                           EXTEND                                         #  PICK UP USERS SUPERBANK
000252:    5415           04007                           ROR      SUPERBNK
000253:    5416           54064                           TS       TEMPBB
000254:
000255:    5417           35422        TOCON2             CA       CON2ADR                               #  BACK TO SWITCHED BANK
000256:    5420           22073                           LXCH     TEMPBBCN
000257:    5421           52006                           DTCB
000258:
000259:    5422           02312        CON2ADR            GENADR   CON2
000260:
000261:    5423           50002        GETPRIO            NDX      Q                                     #  DON:T CARE IF DIRECT OR INDIRECT
000262:    5424           30000                           CA       0                                     #  LEAVE THAT DECISION TO RESTARTS
000263:    5425           24002                           INCR     Q                                     #  OBTAIN RETURN ADDRESS


000265:    5426           15404                           TCF      CON1       -1
000266:
000267:    5427           00006        GETNEWNM           EXTEND
000268:    5430           50002                           INDEX    Q
000269:    5431           30001                           DCA      0
000270:    5432           52064                           DXCH     TEMPNM
000271:    5433           34752                           CA       TWO
000272:    5434           26002                           ADS      Q                                     #  OBTAIN RETURN ADDRESS
000273:
000274:    5435           15417                           TCF      TOCON2
000275:
000276:    5436     5024               OCT14000           EQUALS   PRIO14
000277:    5436     0061               TEMPG              EQUALS   ITEMP1
000278:    5436     0062               TEMPP              EQUALS   ITEMP2
000279:    5436     0063               TEMPNM             EQUALS   ITEMP3
000280:    5436     0064               TEMPBB             EQUALS   ITEMP4
000281:    5436     0065               TEMPSW             EQUALS   ITEMP5
000282:    5436     0066               TEMPSW2            EQUALS   ITEMP6
000283:    5436     0070               TEMPPR             EQUALS   RUPTREG1
000284:    5436     0071               TEMPG2             EQUALS   RUPTREG2
000285:    5436     0072               TEMPP2             EQUALS   RUPTREG3
000286:
000287:    5436     0073               TEMPBBCN           EQUALS   RUPTREG4
000288:    5436  0000006               BB                 EQUALS   BBANK
000289:
000290: 14,3774                                           BANK     14
000291: 10,2000                                           SETLOC   PHASETAB
000292: 10,2000                                           BANK
000293:
000294: 10,2224  E3,1436                                  EBANK=   PHSNAME1
000295: 10,2224                                           COUNT*   $$/PHASE
000296: 10,2224           22073        PHSCHNG2           LXCH     TEMPBBCN
000297: 10,2225           30065                           CA       TEMPSW
000298: 10,2226           74757                           MASK     OCT7
000299: 10,2227           60000                           DOUBLE
000300: 10,2230           54061                           TS       TEMPG
000301:
000302: 10,2231           30065                           CA       TEMPSW
000303: 10,2232           75030                           MASK     OCT17770
000304: 10,2233           00006                           EXTEND
000305: 10,2234           74740                           MP       BIT12
000306: 10,2235           54062                           TS       TEMPP
000307:
000308: 10,2236           30065                           CA       TEMPSW
000309: 10,2237           74101                           MASK     OCT60000
000310: 10,2240           56065                           XCH      TEMPSW
000311: 10,2241           75024                           MASK     OCT14000
000312: 10,2242           10000                           CCS      A


000314: 10,2243           15370                           TCF      ONEORTWO
000315:
000316: 10,2244           30062                           CA       TEMPP                                 #  START STORING THE PHASE INFORMATION
000317: 10,2245           50061                           NDX      TEMPG
000318: 10,2246           54751                           TS       PHASE1     -2
000319:
000320: 10,2247           10066        BELOW1             CCS      TEMPSW2                               #  IS IT A PHASCHNG OR A 2PHSCHNG
000321: 10,2250           12264                           TCF      BELOW2                                #  IT:S A PHASCHNG
000322:
000323: 10,2251           12252                           TCF      +1                                    #  IT:S A 2PHSCHNG
000324: 10,2252           40072                           CS       TEMPP2
000325: 10,2253           22072                           LXCH     TEMPP2
000326: 10,2254           50071                           NDX      TEMPG2
000327: 10,2255           52751                           DXCH     -PHASE1    -2
000328:
000329: 10,2256           10066                           CCS      TEMPSW2
000330: 10,2257           12260                           NOOP                                           #  CAN:T GET HERE
000331: 10,2260           12264                           TCF      BELOW2
000332:
000333: 10,2261           40025                           CS       TIME1
000334: 10,2262           50071                           NDX      TEMPG2
000335: 10,2263           55051                           TS       TBASE1     -2
000336:
000337: 10,2264           10065        BELOW2             CCS      TEMPSW                                #  SEE IF WE SHOULD SET TBASE OR LONGBASE
000338: 10,2265           12300                           TCF      BELOW3                                #  SET LONGBASE ONLY
000339: 10,2266           12303                           TCF      BELOW4                                #  SET NEITHER
000340:
000341: 10,2267           40025                           CS       TIME1                                 #  SET TBASE TO BEGIN WITH
000342: 10,2270           50061                           NDX      TEMPG
000343: 10,2271           55051                           TS       TBASE1     -2
000344:
000345: 10,2272           30065                           CA       TEMPSW                                #  SHALL WE NOW SET LONGBASE
000346: 10,2273           62276                           AD       BIT14COM
000347: 10,2274           10000                           CCS      A
000348: 10,2275           12276                           NOOP                                           #  ***** CANT GET HERE *****
000349: 10,2276           17777        BIT14COM           OCT      17777                                 #  ***** CANT GET HERE *****
000350: 10,2277           12303                           TCF      BELOW4                                #  NO WE NEED ONLY SET TBASE
000351:
000352: 10,2300           00006        BELOW3             EXTEND                                         #  SET LONGBASE
000353: 10,2301           30025                           DCA      TIME2
000354: 10,2302           53152                           DXCH     LONGBASE
000355:
000356: 10,2303           40062        BELOW4             CS       TEMPP                                 #  AND STORE THE FINAL PART OF THE PHASE
000357: 10,2304           50061                           NDX      TEMPG
000358: 10,2305           54750                           TS       -PHASE1    -2
000359:
000360: 10,2306           30002                           CA       Q
000361: 10,2307           22073                           LXCH     TEMPBBCN
000362: 10,2310           00003                           RELINT
000363: 10,2311           52006                           DTCB


000365: 10,2312           22073        CON2               LXCH     TEMPBBCN
000366:
000367: 10,2313           30062                           CA       TEMPP
000368: 10,2314           50061                           NDX      TEMPG
000369: 10,2315           54751                           TS       PHASE1     -2
000370:
000371: 10,2316           30070                           CA       TEMPPR
000372: 10,2317           50061                           NDX      TEMPG
000373: 10,2320           55052                           TS       PHSPRDT1   -2
000374:
000375: 10,2321           00006                           EXTEND
000376: 10,2322           30064                           DCA      TEMPNM
000377: 10,2323           50061                           NDX      TEMPG
000378: 10,2324           53435                           DXCH     PHSNAME1   -2
000379:
000380: 10,2325           12247                           TCF      BELOW1
000381:
000382:    7750                                           BLOCK    03
000383:    6000                                           SETLOC   FFTAG6
000384:    6000                                           BANK
000385:
000386:    7750                                           COUNT*   $$/PHASE
000387:    7750           74740        CHECKB             MASK     BIT12                                 #  SINCE THIS IS OF TYPE B, THIS BIT SHOULD
000388:    7751           10000                           CCS      A                                     #  BE HERE IF WE ARE TO GET A NEW PRIORITY
000389:    7752           15423                           TCF      GETPRIO                               #  IT IS, SO GET NEW PRIORITY
000390:
000391:    7753           15402                           TCF      OLDPRIO                               #  IT ISN:T, USE THE OLD PRIORITY
000392:
000393:

End of include-file PHASE_TABLE_MAINTENANCE.agc.  Parent file is MAIN.agc


