
Source Code


000002:                                                                                                  ## Copyright:   Public domain.
000003:                                                                                                  ## Filename:    PINBALL_NOUN_TABLES.agc
000004:                                                                                                  ## Purpose:     A section of Luminary revision 98.
000005:                                                                                                  ##              It is part of the reconstructed source code for the a
000006:                                                                                                  ##              development version of the flight software for the Lunar
000007:                                                                                                  ##              Module's (LM) Apollo Guidance Computer (AGC) for Apollo 11.
000008:                                                                                                  ##              The code has been recreated from a copy of Luminary 99
000009:                                                                                                  ##              revision 001, using asterisks indicating changed lines in
000010:                                                                                                  ##              the listing and Luminary Memo #85, which lists changes between
000011:                                                                                                  ##              Luminary 98 and 99.
000012:                                                                                                  ## Reference:   pp. 301-319
000013:                                                                                                  ## Assembler:   yaYUL
000014:                                                                                                  ## Contact:     Ron Burkey <info@sandroid.org>.
000015:                                                                                                  ## Website:     www.ibiblio.org/apollo/index.html
000016:                                                                                                  ## Mod history: 2019-07-28 MAS  Created from Luminary 99.
000017:


000019:                                                                                                  #  THE FOLLOWING REFERS TO THE NOUN TABLES
000020:
000021:                                                                                                  #  COMPONENT CODE NUMBER         INTERPRETATION
000022:
000023:                                                                                                  #        00000                   1 COMPONENT
000024:                                                                                                  #        00001                   2 COMPONENT
000025:                                                                                                  #        00010                   3 COMPONENT
000026:                                                                                                  #        X1XXX                   BIT 4 = 1.  DECIMAL ONLY
000027:                                                                                                  #        1XXXX                   BIT 5 = 1.  NO LOAD
000028:                                                                                                  #  END OF COMPONENT CODE NUMBERS
000029:
000030:                                                                                                  #  SF ROUTINE CODE NUMBER        INTERPRETATION
000031:
000032:                                                                                                  #        00000                   OCTAL ONLY
000033:                                                                                                  #        00001                   STRAIGHT FRACTIONAL
000034:                                                                                                  #        00010                   CDU DEGREES (XXX.XX)
000035:                                                                                                  #        00011                   ARITHMETIC SF
000036:                                                                                                  #        00100                   ARITH DP1       OUT (MULT BY 2EXP14 AT END)     IN (STRAIGHT)
000037:                                                                                                  #        00101                   ARITH DP2       OUT (STRAIGHT)                  IN (SL 7 AT END)
000038:                                                                                                  #        00110                   LANDING RADAR POSITION (+0000X)
000039:                                                                                                  #        00111                   ARITH DP3       OUT (SL 7 AT END)               IN (STRAIGHT)
000040:                                                                                                  #        01000                   WHOLE HOURS IN R1, WHOLE MINUTES (MOD 60) IN R2,
000041:                                                                                                  #                                        SECONDS (MOD 60) 0XX.XX IN R3.  *** ALARMS IF USED WITH OCTAL
000042:                                                                                                  #        01001                   MINUTES (MOD 60) IN D1D2, D3 BLANK, SECONDS (MOD 60) IN D4D5
000043:                                                                                                  #                                        LIMITS TO 59B59 IF MAG EXCEEDS THIS VALUE.
000044:                                                                                                  #                                        ALARMS IF USED WITH OCTAL ******** IN (ALARM)
000045:                                                                                                  #        01010                   ARITH DP4       OUT (STRAIGHT)                  IN (SL 3 AT END)
000046:                                                                                                  #        01011                   ARITH1 SF       OUT (MULT BY 2EXP14 AT END)     IN (STRAIGHT)
000047:                                                                                                  #        01100                   2 INTEGERS IN D1D2, D4D5, D3 BLANK.
000048:                                                                                                  #                                        ALARMS IF USED WITH OCTAL ******** IN (ALARM)
000049:                                                                                                  #        01101                   360-CDU DEGREES (XXX.XX)
000050:
000051:                                                                                                  #  END OF SF ROUTINE CODE NUMBERS
000052:
000053:                                                                                                  #  SF CONSTANT CODE NUMBER       INTERPRETATION
000054:
000055:                                                                                                  #        00000                   WHOLE                           USE ARITH
000056:                                                                                                  #        00000                   DP TIME SEC (XXX.XX SEC)        USE ARITHDP1
000057:                                                                                                  #        00000                   LR POSITION (+0000X)            USE LR POSITION
000058:                                                                                                  #        00001                   SPARE
000059:                                                                                                  #        00010                   CDU DEGREES                     USE CDU DEGREES
000060:                                                                                                  #        00010                   360-CDU DEGREES                 USE 360-CDU DEGREES
000061:                                                                                                  #        00011                   DP DEGREES (90) XX.XXX DEG      USE ARITHDP3
000062:                                                                                                  #        00100                   DP DEGREES (360) XXX.XX DEG     USE ARITHDP4
000063:                                                                                                  #        00101                   DEGREES (180) XXX.XX DEG        USE ARITH
000064:                                                                                                  #        00101                   OPTICAL TRACKER AZIMUTH ANGLE (XXX.XXDEG)
000065:                                                                                                  #                                                                USE ARITHDP1
000066:                                                                                                  #        00110                   WEIGHT2 (XXXXX. LBS)            USE ARITH1


000068:                                                                                                  #        00111                   POSITION5 (XXX.XX NAUTICAL MILES)
000069:                                                                                                  #                                                                USE ARITHDP3
000070:                                                                                                  #        01000                   POSITION4 (XXXX.X NAUTICAL MILES)
000071:                                                                                                  #                                                                USE ARITHDP3
000072:                                                                                                  #        01001                   VELOCITY2 (XXXXX. FT/SEC)       USE ARITHDP4
000073:                                                                                                  #        01010                   VELOCITY3 (XXXX.X FT/SEC)       USE ARITHDP3
000074:                                                                                                  #        01011                   ELEVATION DEGREES (89.999 MAX)  USE ARITH
000075:                                                                                                  #        01100                   RENDEZVOUS RADAR RANGE (XXX.XX NAUT MI)
000076:                                                                                                  #                                                                USE ARITHDP1
000077:                                                                                                  #        01101                   RENDEZVOUS RADAR RANGE RATE (XXXXX.FT/SEC
000078:                                                                                                  #                                                                USE ARITHDP1
000079:                                                                                                  #        01110                   LANDING RADAR ALTITUDE (XXXXX.FEET)
000080:                                                                                                  #                                                                USE ARITHDP1
000081:                                                                                                  #        01111                   INITIAL/FINAL ALTITUDE (XXXXX. FEET)
000082:                                                                                                  #                                                                USE ARITHDP1
000083:                                                                                                  #        10000                   ALTITUDE RATE (XXXXX.FT/SEC)    USE ARITH
000084:                                                                                                  #        10001                   FORWARD/LATERAL VELOCITY (XXXXX.FEET/SEC)
000085:                                                                                                  #                                                                USE ARITH
000086:                                                                                                  #        10010                   ROTATIONAL HAND CONTROLLER ANGLE RATES
000087:                                                                                                  #                                        XXXXX.DEG/SEC           USE ARITH
000088:                                                                                                  #        10011                   LANDING RADAR VELX (XXXXX.FEET/SEC)
000089:                                                                                                  #                                                                USE ARITHDP1
000090:                                                                                                  #        10100                   LANDING RADAR VELY (XXXXX.FEET/SEC)
000091:                                                                                                  #                                                                USE ARITHDP1
000092:                                                                                                  #        10101                   LANDING RADAR VELZ (XXXXX.FEET/SEC)
000093:                                                                                                  #                                                                USE ARITHDP1
000094:                                                                                                  #        10110                   POSITION7 (XXXX.X NAUT MI)      USE ARITHDP4
000095:                                                                                                  #        10111                   TRIM DEGREES2 (XXX.XX DEG)      USE ARITH
000096:                                                                                                  #        11000                   COMPUTED ALTITUDE (XXXXX. FEET)
000097:                                                                                                  #                                                                USE ARITHDP1
000098:                                                                                                  #        11001                   DP DEGREES (XXXX.X DEG)         USE ARITHDP3
000099:                                                                                                  #        11010                   POSITION9 (XXXXX. FT)           USE ARITHDP3
000100:                                                                                                  #        11011                   VELOCITY4 (XXXX.X FT/SEC)       USE ARITHDP2
000101:                                                                                                  #        11100                   RADIANS (XX.XXX RADIANS)        USE ARITHDP4
000102:
000103:                                                                                                  #  END OF SF CONSTANT CODE NUMBERS
000104:
000105:                                                                                                  #  FOR GREATER THAN SINGLE PRECISION SCALES, PUT ADDRESS OF MAJOR PART INTO
000106:                                                                                                  #  NOUN TABLES.
000107:
000108:                                                                                                  #  OCTAL LOADS PLACE +0 INTO MAJOR PART, DATA INTO MINOR PART.
000109:
000110:                                                                                                  #  OCTAL DISPLAYS SHOW MINOR PART ONLY.
000111:
000112:                                                                                                  #  TO GET AT BOTH MAJOR AND MINOR PARTS (IN OCTAL), USE NOUN 01.
000113:
000114:                                                                                                  #  A NOUN MAY BE DECLARED :DECIMAL ONLY: BY MAKING BIT4=1 OF ITS COMPONENT
000115:                                                                                                  #  CODE NUMBER.  IF THIS NOUN IS USED WITH ANY OCTAL DISPLAY VERB, OR IF
000116:                                                                                                  #  DATA IS LOADED IN OCTAL, IT ALARMS.
000117:
000118:
000119:                                                                                                  #  IN LOADING AN :HOURS, MINUTES, SECONDS: NOUN, ALL 3 WORDS MUST BE
000120:                                                                                                  #  LOADED, OR ALARM.
000121:


000123:
000124:                                                                                                  #  ALARM IF AN ATTEMPT IS MADE TO LOAD :SPLIT MINUTES/SECONDS: (MMBSS).
000125:                                                                                                  #  THIS IS USED FOR DISPLAY ONLY.
000126:


000128:                                                                                                  #  THE FOLLOWING ROUTINES ARE FOR READING THE NOUN TABLES AND THE SF TABLES
000129:                                                                                                  #  (WHICH ARE IN A SEPARATE BANK FROM THE REST OF PINBALL).  THESE READING
000130:                                                                                                  #  ROUTINES ARE IN THE SAME BANK AS THE TABLES.  THEY ARE CALLED BY DXCH Z.
000131:
000132:                                                                                                  #  LODNNTAB LOADS NNADTEM WITH THE NNADTAB ENTRY, NNTYPTEM WITH THE
000133:                                                                                                  #  NNTYPTAB ENTRY.  IF THE NOUN IS MIXED, IDAD1TEM IS LOADED WITH THE FIRST
000134:                                                                                                  #  IDADDTAB ENTRY, IDAD2TEM THE SECOND IDADDTAB ENTRY, IDAD3TEM THE THIRD
000135:                                                                                                  #  IDADDTAB ENTRY, RUTMXTEM WITH THE RUTMXTAB ENTRY.  MIXBR IS SET FOR
000136:                                                                                                  #  MIXED OR NORMAL NOUN.
000137:
000138: 06,3263                                           BANK     6
000139: 42,2000                                           SETLOC   PINBALL3
000140: 42,2000                                           BANK
000141: 42,2103                                           COUNT*   $$/NOUNS
000142: 42,2103           52152        LODNNTAB           DXCH     IDAD2TEM                              #  SAVE RETURN INFO IN IDAD2TEM, IDAD3TEM.
000143: 42,2104           51002                           INDEX    NOUNREG
000144: 42,2105           32154                           CAF      NNADTAB
000145: 42,2106           54146                           TS       NNADTEM
000146: 42,2107           51002                           INDEX    NOUNREG
000147: 42,2110           32320                           CAF      NNTYPTAB
000148: 42,2111           54147                           TS       NNTYPTEM
000149: 42,2112           41002                           CS       NOUNREG
000150: 42,2113           64771                           AD       MIXCON
000151: 42,2114           00006                           EXTEND
000152: 42,2115           62121                           BZMF     LODMIXNN                              #  NOUN NUMBER G/E FIRST MIXED NOUN
000153: 42,2116           34753                           CAF      ONE                                   #  NOUN NUMBER L/ FIRST MIXED NOUN
000154: 42,2117           54140                           TS       MIXBR                                 #  NORMAL.  +1 INTO MIXBR.
000155: 42,2120           02137                           TC       LODNLV
000156: 42,2121           34752        LODMIXNN           CAF      TWO                                   #  MIXED.  +2 INTO MIXBR.
000157: 42,2122           54140                           TS       MIXBR
000158: 42,2123           51002                           INDEX    NOUNREG
000159: 42,2124           33064                           CAF      RUTMXTAB   -40D                       #  FIRST MIXED NOUN = 40.
000160: 42,2125           54153                           TS       RUTMXTEM
000161: 42,2126           35012                           CAF      LOW10
000162: 42,2127           70146                           MASK     NNADTEM
000163: 42,2130           54002                           TS       Q                                     #  TEMP
000164: 42,2131           50000                           INDEX    A
000165: 42,2132           32650                           CAF      IDADDTAB
000166: 42,2133           54150                           TS       IDAD1TEM                              #  LOAD IDAD1TEM WITH FIRST IDADDTAB ENTRY
000167: 42,2134           00006                           EXTEND
000168: 42,2135           50002                           INDEX    Q                                     #  LOAD IDAD2TEM WITH 2ND IDADDTAB ENTRY
000169: 42,2136           32652                           DCA      IDADDTAB   +1                         #  LOAD IDAD3TEM WITH 3RD IDADDTAB ENTRY.
000170: 42,2137           52152        LODNLV             DXCH     IDAD2TEM                              #  PUT RETURN INFO INTO A, L.
000171: 42,2140           52006                           DXCH     Z
000172:
000173: 42,2141     4771               MIXCON             =        OCT50                                 #  (DEC 40)
000174:
000175:                                                                                                  #  GTSFOUT LOADS SFTEMP1, SFTEMP2 WITH THE DP SFOUTAB ENTRIES.
000176:
000177: 42,2141           52124        GTSFOUT            DXCH     SFTEMP1                               #  2X(SFCONUM) ARRIVES IN SFTEMP1.


000179: 42,2142           00006                           EXTEND
000180: 42,2143           50000                           INDEX    A
000181: 42,2144           32557                           DCA      SFOUTAB
000182: 42,2145           52124        SFCOM              DXCH     SFTEMP1
000183: 42,2146           52006                           DXCH     Z
000184:
000185:                                                                                                  #  GTSFIN LOADS SFTEMP1, SFTEMP2 WITH THE DP SFINTAB ENTRIES.
000186:
000187: 42,2147           52124        GTSFIN             DXCH     SFTEMP1                               #  2X(SFCONUM) ARRIVES IN SFTEMP1.
000188: 42,2150           00006                           EXTEND
000189: 42,2151           50000                           INDEX    A
000190: 42,2152           32465                           DCA      SFINTAB
000191: 42,2153           12145                           TCF      SFCOM
000192:
000193:                                                                                                  #  NN    NORMAL NOUNS
000194: 42,2154           00000        NNADTAB            OCT      00000                                 #  00    NOT IN USE
000195: 42,2155           40000                           OCT      40000                                 #  01    SPECIFY MACHINE ADDRESS (FRACTIONAL)
000196: 42,2156           40000                           OCT      40000                                 #  02    SPECIFY MACHINE ADDRESS (WHOLE)
000197: 42,2157           40000                           OCT      40000                                 #  03    SPECIFY MACHINE ADDRESS (DEGREES)
000198: 42,2160           01045                           ECADR    DSPTEM1                               #  04    ANGULAR ERROR/DIFFERENCE
000199: 42,2161           01045                           ECADR    DSPTEM1                               #  05    ANGULAR ERROR/DIFFERENCE
000200: 42,2162           01144                           ECADR    OPTION1                               #  06    OPTION CODE
000201: 42,2163           01003                           ECADR    XREG                                  #  07    ECADR OF WORD TO BE MODIFIED
000202:                                                                                                  #        ONES FOR BITS TO BE MODIFIED
000203:                                                                                                  #        1 TO SET OR 0 TO RESET SELECTED BITS
000204: 42,2164           01363                           ECADR    ALMCADR                               #  08    ALARM DATA
000205: 42,2165           00375                           ECADR    FAILREG                               #  09    ALARM CODES
000206: 42,2166           77776                           OCT      77776                                 #  10    CHANNEL TO BE SPECIFIED
000207: 42,2167           03633                           ECADR    TCSI                                  #  11    TIG OF CSI (HRS,MIN,SEC)
000208: 42,2170           01051                           ECADR    OPTIONX                               #  12    OPTION CODE
000209:                                                                                                  #        (USED BY EXTENDED VERBS ONLY)
000210: 42,2171           01776                           ECADR    TCDH                                  #  13    TIG OF CDH (HRS,MIN,SEC)
000211: 42,2172           01051                           ECADR    DSPTEMX                               #  14    CHECKLIST
000212:                                                                                                  #        (USED BY EXTENDED VERBS ONLY)
000213: 42,2173           77777                           OCT      77777                                 #  15    INCREMENT MACHINE ADDRESS
000214: 42,2174           01051                           ECADR    DSPTEMX                               #  16    TIME OF EVENT (HRS,MIN,SEC)
000215: 42,2175           00000                           OCT      00000                                 #  17    SPARE
000216: 42,2176           02344                           ECADR    FDAIX                                 #  18    AUTO MANEUVER BALL ANGLES
000217: 42,2177           00000                           OCT      00000                                 #  19    SPARE
000218: 42,2200           00032                           ECADR    CDUX                                  #  20    ICDU ANGLES
000219: 42,2201           00037                           ECADR    PIPAX                                 #  21    PIPAS
000220: 42,2202           00321                           ECADR    THETAD                                #  22    NEW ICDU ANGLES
000221: 42,2203           00000                           OCT      00000                                 #  23    SPARE
000222: 42,2204           01051                           ECADR    DSPTEM2    +1                         #  24    DELTA TIME FOR AGC CLOCK (HRS,MIN,SEC)
000223: 42,2205           01045                           ECADR    DSPTEM1                               #  25    CHECKLIST
000224:                                                                                                  #        (USED WITH PLEASE PERFORM ONLY)
000225: 42,2206           01045                           ECADR    DSPTEM1                               #  26    PRIO/DELAY, ADRES, BBCON
000226: 42,2207           01362                           ECADR    SMODE                                 #  27    SELF TEST ON/OFF SWITCH


000228: 42,2210           00000                           OCT      00000                                 #  28    SPARE
000229: 42,2211           00000                           OCT      00000                                 #  29    SPARE
000230: 42,2212           00000                           OCT      0                                     #  30    SPARE
000231: 42,2213           00000                           OCT      0                                     #  31    SPARE
000232: 42,2214           02142                           ECADR    -TPER                                 #  32    TIME TO PERIGEE (HRS,MIN,SEC)
000233: 42,2215           03441                           ECADR    TIG                                   #  33    TIME OF IGNITION (HRS,MIN(SEC)
000234: 42,2216           01045                           ECADR    DSPTEM1                               #  34    TIME OF EVENT (HRS,MIN,SEC)
000235: 42,2217           03453                           ECADR    TTOGO                                 #  35    TIME TO GO TO EVENT (HRS,MIN,SEC)
000236: 42,2220           00024                           ECADR    TIME2                                 #  36    TIME OF AGC CLOCK (HRS,MIN,SEC)
000237: 42,2221           03635                           ECADR    TTPI                                  #  37    TIG OF TPI (HRS,MIN,SEC)
000238: 42,2222           01516                           ECADR    TET                                   #  38    TIME OF STATE BEING INTEGRATED
000239: 42,2223           00000                           OCT      00000                                 #  39    SPARE
000240:
000241:                                                                                                  #  END OF NNADTAB FOR NORMAL NOUNS
000242:
000243:                                                                                                  #  NN    MIXED NOUNS
000244: 42,2224           64000                           OCT      64000                                 #  40    TIME TO IGNITION/CUTOFF
000245:                                                                                                  #        VG
000246:                                                                                                  #        DELTA V (ACCUMULATED)
000247: 42,2225           02003                           OCT      02003                                 #  41    TARGET  AZIMUTH
000248:                                                                                                  #                ELEVATION
000249: 42,2226           24006                           OCT      24006                                 #  42    APOGEE
000250:                                                                                                  #        PERIGEE
000251:                                                                                                  #        DELTA V (REQUIRED)
000252: 42,2227           24011                           OCT      24011                                 #  43    LATITUDE
000253:                                                                                                  #        LONGITUDE
000254:                                                                                                  #        ALTITUDE
000255: 42,2230           64014                           OCT      64014                                 #  44    APOGEE
000256:                                                                                                  #        PERIGEE
000257:                                                                                                  #        TFF
000258: 42,2231           64017                           OCT      64017                                 #  45    MARKS
000259:                                                                                                  #        TTI OF NEXT BURN
000260:                                                                                                  #        MGA
000261: 42,2232           00022                           OCT      00022                                 #  46    AUTOPILOT CONFIGURATION
000262: 42,2233           22025                           OCT      22025                                 #  47    LEM WEIGHT
000263:                                                                                                  #        CSM WEIGHT
000264: 42,2234           22030                           OCT      22030                                 #  48    GIMBAL PITCH TRIM
000265:                                                                                                  #        GIMBAL ROLL TRIM
000266: 42,2235           24033                           OCT      24033                                 #  49    DELTA R
000267:                                                                                                  #        DELTA V
000268:                                                                                                  #        RADAR DATA SOURCE CODE
000269: 42,2236           00000                           OCT      0                                     #  50    SPARE
000270: 42,2237           22041                           OCT      22041                                 #  51    S-BAND ANTENNA  PITCH
000271:                                                                                                  #                        YAW
000272: 42,2240           00044                           OCT      00044                                 #  52    CENTRAL ANGLE OF ACTIVE VEHICLE
000273: 42,2241           00000                           OCT      00000                                 #  53    SPARE
000274: 42,2242           24052                           OCT      24052                                 #  54    RANGE
000275:                                                                                                  #        RANGE RATE
000276:                                                                                                  #        THETA
000277: 42,2243           24055                           OCT      24055                                 #  55    NO. OF APSIDAL CROSSINGS


000279:                                                                                                  #        ELEVATION ANGLE
000280:                                                                                                  #        CENTRAL ANGLE
000281: 42,2244           02060                           OCT      02060                                 #  56    RR LOS  AZIMUTH
000282:                                                                                                  #                ELEVATION
000283: 42,2245           20063                           OCT      20063                                 #  57    DELTA R
000284: 42,2246           24066                           OCT      24066                                 #  58    PERIGEE ALT
000285:                                                                                                  #        DELTA V TPI
000286:                                                                                                  #        DELTA V TPF
000287: 42,2247           24071                           OCT      24071                                 #  59    DELTA VELOCITY LOS
000288: 42,2250           24074                           OCT      24074                                 #  60    HORIZONTAL VELOCITY
000289:                                                                                                  #        ALTITUDE RATE
000290:                                                                                                  #        COMPUTED ALTITUDE
000291: 42,2251           64077                           OCT      64077                                 #  61    TIME TO GO IN BRAKING PHASE
000292:                                                                                                  #        TIME TO IGNITION
000293:                                                                                                  #        CROSS RANGE DISTANCE
000294: 42,2252           64102                           OCT      64102                                 #  62    ABSOLUTE VALUE OF VELOCITY
000295:                                                                                                  #        TIME TO IGNITION
000296:                                                                                                  #        DELTA V (ACCUMULATED)
000297: 42,2253           24105                           OCT      24105                                 #  63    ABSOLUTE VALUE OF VELOCITY
000298:                                                                                                  #        ALTITUDE RATE
000299:                                                                                                  #        COMPUTED ALTITUDE
000300: 42,2254           64110                           OCT      64110                                 #  64    TIME LEFT FOR REDESIGNATION - LPD ANGLE
000301:                                                                                                  #        ALTITUDE RATE
000302:                                                                                                  #        COMPUTED ALTITUDE
000303: 42,2255           24113                           OCT      24113                                 #  65    SAMPLED AGC TIME (HRS,MIN,SEC)
000304:                                                                                                  #        (FETCHED IN INTERRUPT)
000305: 42,2256           62116                           OCT      62116                                 #  66    LR      RANGE
000306:                                                                                                  #                POSITION
000307: 42,2257           04121                           OCT      04121                                 #  67    LRVX
000308:                                                                                                  #        LRVY
000309:                                                                                                  #        LRVZ
000310: 42,2260           64124                           OCT      64124                                 #  68    SLANT RANGE TO LANDING SIGHT
000311:                                                                                                  #        TIME TO GO IN BRAKING PHASE
000312:                                                                                                  #        LR ALTITUDE - COMPUTED ALTITUDE
000313: 42,2261           00000                           OCT      00000                                 #  69    SPARE
000314: 42,2262           04132                           OCT      04132                                 #  70    AOT DETENT CODE/STAR CODE
000315: 42,2263           04135                           OCT      04135                                 #  71    AOT DETENT CODE/STAR CODE
000316: 42,2264           02140                           OCT      02140                                 #  72    RR      360 - TRUNNION ANGLE
000317:                                                                                                  #                SHAFT ANGLE
000318: 42,2265           02143                           OCT      02143                                 #  73    NEW RR  360 - TRUNNION ANGLE
000319:                                                                                                  #                SHAFT ANGLE
000320: 42,2266           64146                           OCT      64146                                 #  74    TIME TO IGNITION
000321:                                                                                                  #        YAWAFTER VEHICLE RISE
000322:                                                                                                  #        PITCH AFTER VEHICLE RISE
000323: 42,2267           64151                           OCT      64151                                 #  75    DELTA ALTITUDE CDH
000324:                                                                                                  #        DELTA TIME (CDH-CSI OR TPI-CDH)
000325:                                                                                                  #        DELTA TIME (TPI-CDH OR TPI-NOMTPI)
000326: 42,2270           24154                           OCT      24154                                 #  76    DESIRED HORIZONTAL VELOCITY
000327:                                                                                                  #        DESIRED RADIAL VELOCITY
000328:                                                                                                  #        CROSS-RANGE DISTANCE


000330: 42,2271           62157                           OCT      62157                                 #  77    TIME TO ENGINE CUTOFF
000331:                                                                                                  #        VELOCITY NORMAL TO CSM PLANE
000332: 42,2272           02162                           OCT      02162                                 #  78    RR      RANGE
000333:                                                                                                  #                RANGE RATE
000334: 42,2273           24165                           OCT      24165                                 #  79    CURSOR ANGLE
000335:                                                                                                  #        SPIRAL ANGLE
000336:                                                                                                  #        POSITION CODE
000337: 42,2274           02170                           OCT      02170                                 #  80    DATA INDICATOR
000338:                                                                                                  #        OMEGA
000339: 42,2275           24173                           OCT      24173                                 #  81    DELTA V (LV)
000340: 42,2276           24176                           OCT      24176                                 #  82    DELTA V (LV)
000341: 42,2277           24201                           OCT      24201                                 #  83    DELTA V (BODY)
000342: 42,2300           24204                           OCT      24204                                 #  84    DELTA V (OTHER VEHICLE)
000343: 42,2301           24207                           OCT      24207                                 #  85    VG (BODY)
000344: 42,2302           24212                           OCT      24212                                 #  86    VG (LV)
000345: 42,2303           02215                           OCT      02215                                 #  87    BACKUP OPTICS LOS       AZIMUTH
000346:                                                                                                  #                                ELEVATION
000347: 42,2304           24220                           OCT      24220                                 #  88    HALF UNIT SUN OR PLANET VECTOR
000348: 42,2305           24223                           OCT      24223                                 #  89    LANDMARK        LATITUDE
000349:                                                                                                  #                        LONGITUDE/2
000350:                                                                                                  #                        ALTITUDE
000351: 42,2306           24226                           OCT      24226                                 #  90    Y
000352:                                                                                                  #        Y DOT
000353:                                                                                                  #        PSI
000354: 42,2307           04231                           OCT      04231                                 #  91    ALTITUDE
000355:                                                                                                  #        VELOCITY
000356:                                                                                                  #        FLIGHT PATH ANGLE
000357: 42,2310           00000                           OCT      00000                                 #  92    SPARE
000358: 42,2311           04237                           OCT      04237                                 #  93    DELTA GYRO ANGLES
000359: 42,2312           00000                           OCT      00000                                 #  94    SPARE
000360: 42,2313           00000                           OCT      0                                     #  95    SPARE
000361: 42,2314           00000                           OCT      0                                     #  96    SPARE
000362: 42,2315           04253                           OCT      04253                                 #  97    SYSTEM TEST INPUTS
000363: 42,2316           04256                           OCT      04256                                 #  98    SYSTEM TEST RESULTS
000364: 42,2317           24261                           OCT      24261                                 #  99    RMS IN POSITION
000365:                                                                                                  #        RMS IN VELOCITY
000366:                                                                                                  #        RMS IN BIAS
000367:
000368:                                                                                                  #  END OF NNADTAB FOR MIXED NOUNS
000369:
000370:                                                                                                  #  NN    NORMAL NOUNS
000371: 42,2320           00000        NNTYPTAB           OCT      00000                                 #  00    NOT IN USE
000372: 42,2321           04040                           OCT      04040                                 #  01    3COMP FRACTIONAL
000373: 42,2322           04140                           OCT      04140                                 #  02    3COMP WHOLE
000374: 42,2323           04102                           OCT      04102                                 #  03    3COMP CDU DEGREES
000375: 42,2324           00504                           OCT      00504                                 #  04    1COMP DPDEG(360)
000376: 42,2325           00504                           OCT      00504                                 #  05    1COMP DPDEG(360)
000377: 42,2326           04000                           OCT      04000                                 #  06    3COMP OCTAL ONLY
000378: 42,2327           04000                           OCT      04000                                 #  07    3COMP OCTAL ONLY
000379: 42,2330           04000                           OCT      04000                                 #  08    3COMP OCTAL ONLY


000381: 42,2331           04000                           OCT      04000                                 #  09    3COMP OCTAL ONLY
000382: 42,2332           00000                           OCT      00000                                 #  10    1COMP OCTAL ONLY
000383: 42,2333           24400                           OCT      24400                                 #  11    3COMP HMS (DEC ONLY)
000384: 42,2334           02000                           OCT      02000                                 #  12    2COMP OCTAL ONLY
000385: 42,2335           24400                           OCT      24400                                 #  13    3COMP HMS (DEC ONLY)
000386: 42,2336           04140                           OCT      04140                                 #  14    3COMP WHOLE
000387: 42,2337           00000                           OCT      00000                                 #  15    1COMP OCTAL ONLY
000388: 42,2340           24400                           OCT      24400                                 #  16    3COMP HMS (DEC ONLY)
000389: 42,2341           00000                           OCT      0                                     #  17    SPARE
000390: 42,2342           04102                           OCT      04102                                 #  18    3COMP CDU DEG
000391: 42,2343           00000                           OCT      00000                                 #  19    SPARE
000392: 42,2344           04102                           OCT      04102                                 #  20    3COMP CDU DEGREES
000393: 42,2345           04140                           OCT      04140                                 #  21    3COMP WHOLE
000394: 42,2346           04102                           OCT      04102                                 #  22    3COMP CDU DEGREES
000395: 42,2347           00000                           OCT      00000                                 #  23    SPARE
000396: 42,2350           24400                           OCT      24400                                 #  24    3COMP HMS (DEC ONLY)
000397: 42,2351           04140                           OCT      04140                                 #  25    3COMP WHOLE
000398: 42,2352           04000                           OCT      04000                                 #  26    3COMP OCTAL ONLY
000399: 42,2353           00140                           OCT      00140                                 #  27    1COMP WHOLE
000400: 42,2354           00000                           OCT      00000                                 #  28    SPARE
000401: 42,2355           00000                           OCT      00000                                 #  29    SPARE
000402: 42,2356           00000                           OCT      0                                     #  30    SPARE
000403: 42,2357           00000                           OCT      0                                     #  31    SPARE
000404: 42,2360           24400                           OCT      24400                                 #  32    3COMP HMS (DEC ONLY)
000405: 42,2361           24400                           OCT      24400                                 #  33    3COMP HMS (DEC ONLY)
000406: 42,2362           24400                           OCT      24400                                 #  34    3COMP HMS (DEC ONLY)
000407: 42,2363           24400                           OCT      24400                                 #  35    3COMP HMS (DEC ONLY)
000408: 42,2364           24400                           OCT      24400                                 #  36    3COMP HMS (DEC ONLY)
000409: 42,2365           24400                           OCT      24400                                 #  37    3COMP HMS (DEC ONLY)
000410: 42,2366           24400                           OCT      24400                                 #  38    3COMP HMS (DEC ONLY)
000411: 42,2367           00000                           OCT      00000                                 #  39    SPARE
000412:
000413:                                                                                                  #  END OF NNTYPTAB FOR NORMAL NOUNS
000414:
000415:                                                                                                  #  NN    MIXED NOUNS
000416: 42,2370           24500                           OCT      24500                                 #  40    3COMP   MIN/SEC, VEL3, VEL3
000417:                                                                                                  #                (NO LOAD, DEC ONLY)
000418: 42,2371           00542                           OCT      00542                                 #  41    2COMP   CDU DEG, ELEV DEG
000419: 42,2372           24410                           OCT      24410                                 #  42    3COMP   POS4, POS4, VEL3
000420:                                                                                                  #                (DEC ONLY)
000421: 42,2373           20204                           OCT      20204                                 #  43    3COMP   DPDEG(360), DPDEG(360), POS4
000422:                                                                                                  #                (DEC ONLY)
000423: 42,2374           00410                           OCT      00410                                 #  44    3COMP   POS4, POS4, MIN/SEC
000424:                                                                                                  #                (NO LOAD, DEC ONLY)
000425: 42,2375           10000                           OCT      10000                                 #  45    3COMP   WHOLE, MIN/SEC, DPDEG(360)
000426:                                                                                                  #                (NO LOAD, DEC ONLY)
000427: 42,2376           00000                           OCT      00000                                 #  46    1COMP   OCTAL ONLY
000428: 42,2377           00306                           OCT      00306                                 #  47    2COMP   WEIGHT2 FOR EACH
000429:                                                                                                  #                (DEC ONLY)
000430: 42,2400           01367                           OCT      01367                                 #  48    2COMP   TRIM DEG2 FOR EACH


000432:                                                                                                  #                (DEC ONLY)
000433: 42,2401           00510                           OCT      00510                                 #  49    3COMP   POS4, VEL3, WHOLE
000434:                                                                                                  #                (DEC ONLY)
000435: 42,2402           00000                           OCT      0                                     #  50    SPARE
000436: 42,2403           00204                           OCT      00204                                 #  51    2COMP   DPDEG(360), DPDEG(360)
000437:                                                                                                  #                (DEC ONLY)
000438: 42,2404           00004                           OCT      00004                                 #  52    1COMP   DPDEG(360)
000439: 42,2405           00000                           OCT      00000                                 #  53    SPARE
000440: 42,2406           10507                           OCT      10507                                 #  54    3COMP   POS5, VEL3, DPDEG(360)
000441:                                                                                                  #                (DEC ONLY)
000442: 42,2407           10200                           OCT      10200                                 #  55    3COMP   WHOLE, DPDEG(360), DPDEG(360)
000443:                                                                                                  #                (DEC ONLY)
000444: 42,2410           00204                           OCT      00204                                 #  56    2COMP   DPDEG(360), DPDEG(360)
000445: 42,2411           00010                           OCT      00010                                 #  57    1COMP   POS4
000446:                                                                                                  #                (DEC ONLY)
000447: 42,2412           24510                           OCT      24510                                 #  58    3COMP   POS4, VEL3, VEL3
000448:                                                                                                  #                (DEC ONLY)
000449: 42,2413           24512                           OCT      24512                                 #  59    3COMP   VEL3 FOR EACH
000450:                                                                                                  #                (DEC ONLY)
000451: 42,2414           60512                           OCT      60512                                 #  60    3COMP   VEL3, VEL3, COMP ALT
000452:                                                                                                  #                (DEC ONLY)
000453: 42,2415           54000                           OCT      54000                                 #  61    3COMP   MIN/SEC, MIN/SEC, POS7
000454:                                                                                                  #                (NO LOAD, DEC ONLY)
000455: 42,2416           24012                           OCT      24012                                 #  62    3COMP   VEL3, MIN/SEC, VEL3
000456:                                                                                                  #                (NO LOAD, DEC ONLY)
000457: 42,2417           60512                           OCT      60512                                 #  63    3COMP   VEL3, VEL3, COMP ALT
000458:                                                                                                  #                (DEC ONLY)
000459: 42,2420           60500                           OCT      60500                                 #  64    3COMP   2INT, VEL3, COMP ALT
000460:                                                                                                  #                (NO LOAD, DEC ONLY)
000461: 42,2421           00000                           OCT      00000                                 #  65    3COMP   HMS (DEC ONLY)
000462: 42,2422           00016                           OCT      00016                                 #  66    2COMP   LANDING RADAR ALT, POSITION
000463:                                                                                                  #                (NO LOAD, DEC ONLY)
000464: 42,2423           53223                           OCT      53223                                 #  67    3COMP   LANDING RADAR VELX, Y, Z
000465: 42,2424           60026                           OCT      60026                                 #  68    3COMP   POS7, MIN/SEC, COMP ALT
000466:                                                                                                  #                (NO LOAD, DEC ONLY)
000467: 42,2425           00000                           OCT      00000                                 #  69    SPARE
000468: 42,2426           00000                           OCT      0                                     #  70    3COMP   OCTAL ONLY FOR EACH
000469: 42,2427           00000                           OCT      0                                     #  71    3COMP   OCTAL ONLY FOR EACH
000470: 42,2430           00102                           OCT      00102                                 #  72    2COMP   360-CDU DEG, CDU DEG
000471: 42,2431           00102                           OCT      00102                                 #  73    2COMP   360-CDU DEG, CDU DEG
000472: 42,2432           10200                           OCT      10200                                 #  74    3COMP   MIN/SEC, DPDEG(360), DPDEG(360)
000473:                                                                                                  #                (NO LOAD, DEC ONLY)
000474: 42,2433           00010                           OCT      00010                                 #  75    3COMP   POS4, MIN/SEC, MIN/SEC
000475:                                                                                                  #                (NO LOAD, DEC ONLY)
000476:
000477: 42,2434           20512                           OCT      20512                                 #  76    3COMP   VEL3, VEL3, POS4
000478:                                                                                                  #                (DEC ONLY)
000479: 42,2435           00500                           OCT      00500                                 #  77    2COMP   MIN/SEC, VEL3
000480:                                                                                                  #                (NO LOAD, DEC ONLY)
000481: 42,2436           00654                           OCT      00654                                 #  78    2 COMP  RR RANGE, RR RANGE RATE
000482: 42,2437           00102                           OCT      00102                                 #  79    3COMP   CDU DEG, CDU DEG, WHOLE


000484:                                                                                                  #                (DEC ONLY)
000485: 42,2440           00200                           OCT      00200                                 #  80    2COMP   WHOLE, DPDEG(360)
000486: 42,2441           24512                           OCT      24512                                 #  81    3COMP   VEL3 FOR EACH
000487:                                                                                                  #                (DEC ONLY)
000488: 42,2442           24512                           OCT      24512                                 #  82    3COMP   VEL3 FOR EACH
000489:                                                                                                  #                (DEC ONLY)
000490: 42,2443           24512                           OCT      24512                                 #  83    3COMP   VEL3 FOR EACH
000491:                                                                                                  #                (DEC ONLY)
000492: 42,2444           24512                           OCT      24512                                 #  84    3COMP   VEL3 FOR EACH
000493:                                                                                                  #                (DEC ONLY)
000494: 42,2445           24512                           OCT      24512                                 #  85    3COMP   VEL3 FOR EACH
000495:                                                                                                  #                (DEC ONLY)
000496: 42,2446           24512                           OCT      24512                                 #  86    3COMP   VEL3 FOR EACH
000497:                                                                                                  #                (DEC ONLY)
000498: 42,2447           00102                           OCT      00102                                 #  87    2COMP   CDU DEG FOR EACH
000499: 42,2450           00000                           OCT      0                                     #  88    3COMP   FRAC FOR EACH
000500:                                                                                                  #                (DEC ONLY)
000501: 42,2451           16143                           OCT      16143                                 #  89    3COMP   DPDEG(90), DPDEG(90), POS5
000502:                                                                                                  #                (DEC ONLY)
000503: 42,2452           10507                           OCT      10507                                 #  90    3COMP   POS5, VEL3, DPDEG(360)
000504:                                                                                                  #                (DEC ONLY)
000505: 42,2453           10450                           OCT      10450                                 #  91    3COMP   POS4, VEL2, DPDEG(360)
000506: 42,2454           00000                           OCT      00000                                 #  92    SPARE
000507: 42,2455           06143                           OCT      06143                                 #  93    3COMP   DPDEG(90) FOR EACH
000508: 42,2456           00000                           OCT      00000                                 #  94    SPARE
000509: 42,2457           00000                           OCT      0                                     #  95    SPARE
000510: 42,2460           00000                           OCT      0                                     #  96    SPARE
000511: 42,2461           00000                           OCT      00000                                 #  97    3COMP   WHOLE FOR EACH
000512: 42,2462           00000                           OCT      00000                                 #  98    3COMP   WHOLE, FRAC, WHOLE
000513: 42,2463           71572                           OCT      71572                                 #  99    3COMP   POS9, VEL4, RADIANS
000514:                                                                                                  #                (DEC ONLY)
000515:
000516:                                                                                                  #  END OF NNTYPTAB FOR MIXED NOUNS
000517:
000518: 42,2464           00006        SFINTAB            OCT      00006                                 #  WHOLE, DP TIME (SEC)
000519: 42,2465           03240                           OCT      03240
000520: 42,2466           00000                           OCT      00000                                 #  SPARE
000521: 42,2467           00000                           OCT      00000
000522: 42,2470           00000                           OCT      00000                                 #  CDU DEGREES, 360-CDU DEGREES
000523: 42,2471           00000                           OCT      00000                                 #        (SFCONS IN DEGINSF)
000524: 42,2472           10707                           OCT      10707                                 #  DP DEGREES (90)
000525: 42,2473           03435                           OCT      03435                                 #        UPPED BY 1
000526: 42,2474           13070                           OCT      13070                                 #  DP DEGREES (360) (POINT BETWN BITS 11-12)
000527: 42,2475           34345                           OCT      34345                                 #        UPPED BY 1
000528: 42,2476           00005                           OCT      00005                                 #  DEGREES (180)
000529: 42,2477           21616                           OCT      21616
000530: 42,2500           26113                           OCT      26113                                 #  WEIGHT2
000531: 42,2501           31713                           OCT      31713
000532: 42,2502           00070                           OCT      00070                                 #  POSITION5
000533: 42,2503           20460                           OCT      20460


000535: 42,2504           01065                           OCT      01065                                 #  POSITION4
000536: 42,2505           05740                           OCT      05740
000537: 42,2506           11414                           OCT      11414                                 #  VELOCITY2     (POINT BETWN BITS 11-12)
000538: 42,2507           31463                           OCT      31463
000539: 42,2510           07475                           OCT      07475                                 #  VELOCITY3
000540: 42,2511           16051                           OCT      16051
000541: 42,2512           00001                           OCT      00001                                 #  ELEVATION DEGREES
000542: 42,2513           03434                           OCT      03434
000543: 42,2514           00047                           OCT      00047                                 #  RENDEZVOUS RADAR RANGE
000544: 42,2515           21135                           OCT      21135
000545: 42,2516           77766                           OCT      77766                                 #  RENDEZVOUS RADAR RANGE RATE
000546: 42,2517           50711                           OCT      50711
000547: 42,2520           00005 25006                     2DEC*    .9267840599 E5         B-28*           #  LANDING RADAR ALTITUDE
000548:
000549: 42,2522           00002                           OCT      00002                                 #  INITIAL/FINAL ALTITUDE
000550: 42,2523           23224                           OCT      23224
000551: 42,2524           00014                           OCT      00014                                 #  ALTITUDE RATE
000552: 42,2525           06500                           OCT      06500
000553: 42,2526           00012                           OCT      00012                                 #  FORWARD/LATERAL VELOCITY
000554: 42,2527           36455                           OCT      36455
000555: 42,2530           04256                           OCT      04256                                 #  ROT HAND CONT ANGLE RATE
000556: 42,2531           07071                           OCT      07071
000557: 42,2532           77766 60557                     2DEC*    -1.552795030 E5         B-28*           #  LANDING RADAR VELX
000558:
000559: 42,2534           00005 01114                     2DEC*    .8250825087 E5         B-28*           #  LANDING RADAR VELY
000560:
000561: 42,2536           00007 01247                     2DEC*    1.153668673 E5         B-28*           #  LANDING RADAR VELZ
000562:
000563: 42,2540           04324                           OCT      04324                                 #  POSITION7
000564: 42,2541           27600                           OCT      27600
000565: 42,2542           00036                           OCT      00036                                 #  TRIM DEGREES2
000566: 42,2543           20440                           OCT      20440
000567: 42,2544           00035                           OCT      00035                                 #  COMPUTED ALTITUDE
000568: 42,2545           30400                           OCT      30400
000569: 42,2546           23420                           OCT      23420                                 #  DP DEGREES
000570: 42,2547           00000                           OCT      00000
000571: 42,2550           01670 20000                     2DEC     30480      B-19                       #  POSITION 9
000572:
000573: 42,2552           07475 16051                     2DEC     30.48      B-7                        #  VELOCITY4
000574:
000575: 42,2554           14400 00000                     2DEC     100        B-8                        #  RADIANS
000576:
000577:                                                                                                  #  END OF SFINTAB
000578:
000579: 42,2556           05174        SFOUTAB            OCT      05174                                 #  WHOLE, DP TIME (SEC)
000580: 42,2557           13261                           OCT      13261
000581: 42,2560           00000                           OCT      00000                                 #  SPARE
000582: 42,2561           00000                           OCT      00000
000583: 42,2562           00000                           OCT      00000                                 #  CDU DEGREES, 360-CDU DEGREES


000585: 42,2563           00000                           OCT      00000                                 #        (SFCONS IN DEGOUTSF, 360-CDUO)
000586: 42,2564           00714                           OCT      00714                                 #  DP DEGREES (90) (POINT BETWN BITS 7-8)
000587: 42,2565           31463                           OCT      31463
000588: 42,2566           13412                           OCT      13412                                 #  DP DEGREES (360)
000589: 42,2567           07534                           OCT      07534
000590: 42,2570           05605                           OCT      05605                                 #  DEGREES (180)
000591: 42,2571           03656                           OCT      03656
000592: 42,2572           00001                           OCT      00001                                 #  WEIGHT2
000593: 42,2573           16170                           OCT      16170
000594: 42,2574           00441                           OCT      00441                                 #  POSITION5
000595: 42,2575           34306                           OCT      34306
000596: 42,2576           07176                           OCT      07176                                 #  POSITION4     (POINT BETWN BITS 7-8)
000597: 42,2577           21603                           OCT      21603
000598: 42,2600           15340                           OCT      15340                                 #  VELOCITY2
000599: 42,2601           15340                           OCT      15340
000600: 42,2602           01031                           OCT      01031                                 #  VELOCITY3     (POINT BETWN BITS 7-8)
000601: 42,2603           21032                           OCT      21032
000602: 42,2604           34631                           OCT      34631                                 #  ELEVATION DEGREES
000603: 42,2605           23146                           OCT      23146
000604: 42,2606           00636                           OCT      00636                                 #  RENDEZVOUS RADAR RANGE
000605: 42,2607           14552                           OCT      14552
000606: 42,2610           74552                           OCT      74552                                 #  RENDEZVOUS RADAR RANGE RATE
000607: 42,2611           70307                           OCT      70307
000608: 42,2612           05520 15312                     2DEC     1.079      E-5        B14             #  LANDING RADAR ALTITUDE
000609:
000610: 42,2614           14226                           OCT      14226                                 #  INITIAL/FINAL ALTITUDE
000611: 42,2615           31757                           OCT      31757
000612: 42,2616           02476                           OCT      02476                                 #  ALTITUDE RATE
000613: 42,2617           05531                           OCT      05531
000614: 42,2620           02727                           OCT      02727                                 #  FORWARD/LATERAL VELOCITY
000615: 42,2621           16415                           OCT      16415
000616: 42,2622           00007                           OCT      00007                                 #  ROT HAND CONT ANGLE RATE
000617: 42,2623           13734                           OCT      13734
000618: 42,2624           74477 50643                     2DEC     -.6440     E-5        B14             #  LANDING RADAR VELX
000619:
000620: 42,2626           06265 16004                     2DEC     1.212      E-5        B14             #  LANDING RADAR VELY
000621:
000622: 42,2630           04426 31433                     2DEC     .8668      E-5        B14             #  LANDING RADAR VELZ
000623:
000624: 42,2632           34772                           OCT      34772                                 #  POSITION7
000625: 42,2633           07016                           OCT      07016
000626: 42,2634           01030                           OCT      01030                                 #  TRIM DEGREES2
000627: 42,2635           33675                           OCT      33675
000628: 42,2636           01046                           OCT      01046                                 #  COMPUTED ALTITUDE
000629: 42,2637           15700                           OCT      15700
000630: 42,2640           00321                           OCT      00321                                 #  DP DEGREES
000631: 42,2641           26706                           OCT      26706
000632: 42,2642           04231 27400                     2DEC     17.2010499 B-7                        #  POSITION 9
000633:
000634: 42,2644           01031 21032                     2DEC     .032808399                            #  VELOCITY4


000636: 42,2646           12172 34122                     2DEC     .32                                   #  RADIANS
000637:
000638:                                                                                                  #  END OF SFOUTAB
000639:
000640:                                                                                                  #  NN    SF CONSTANT             SF ROUTINE
000641: 42,2650           03453        IDADDTAB           ECADR    TTOGO                                 #  40    MIN/SEC                 M/S
000642: 42,2651           03663                           ECADR    VGDISP                                #  40    VEL3                    DP3
000643: 42,2652           03507                           ECADR    DVTOTAL                               #  40    VEL3                    DP3
000644: 42,2653           01045                           ECADR    DSPTEM1                               #  41    CDU DEG                 CDU
000645: 42,2654           01046                           ECADR    DSPTEM1    +1                         #  41    ELEV DEG                ARTH
000646: 42,2655           00000                           OCT      0                                     #  41    SPARE COMPONENT
000647: 42,2656           02316                           ECADR    HAPO                                  #  42    POS4                    DP3
000648: 42,2657           02320                           ECADR    HPER                                  #  42    POS4                    DP3
000649: 42,2660           03663                           ECADR    VGDISP                                #  42    VEL3                    DP3
000650: 42,2661           01120                           ECADR    LAT                                   #  43    DPDEG(360)              DP4
000651: 42,2662           01122                           ECADR    LONG                                  #  43    DPDEG(360)              DP4
000652: 42,2663           01124                           ECADR    ALT                                   #  43    POS4                    DP3
000653: 42,2664           02117                           ECADR    HAPOX                                 #  44    POS4                    DP3
000654: 42,2665           02121                           ECADR    HPERX                                 #  44    POS4                    DP3
000655: 42,2666           02140                           ECADR    TFF                                   #  44    MIN/SEC                 M/S
000656: 42,2667           03462                           ECADR    TRKMKCNT                              #  45    WHOLE                   ARTH
000657: 42,2670           03453                           ECADR    TTOGO                                 #  45    MIN/SEC                 M/S
000658: 42,2671           02252                           ECADR    +MGA                                  #  45    DPDEG(360)              DP4
000659: 42,2672           01343                           ECADR    DAPDATR1                              #  46    OCTAL ONLY              OCT
000660: 42,2673           00000                           OCT      0                                     #  46    SPARE COMPONENT
000661: 42,2674           00000                           OCT      0                                     #  46    SPARE COMPONENT
000662: 42,2675           01331                           ECADR    LEMMASS                               #  47    WEIGHT2                 ARTH1
000663: 42,2676           01332                           ECADR    CSMMASS                               #  47    WEIGHT2                 ARTH1
000664: 42,2677           00000                           OCT      0                                     #  47    SPARE COMPONENT
000665: 42,2700           03002                           ECADR    PITTIME                               #  48    TRIM DEG2               ARTH
000666: 42,2701           03001                           ECADR    ROLLTIME                              #  48    TRIM DEG2               ARTH
000667: 42,2702           00000                           OCT      0                                     #  48    SPARE COMPONENT
000668: 42,2703           00314                           ECADR    R22DISP                               #  49    POS4                    DP3
000669: 42,2704           00316                           ECADR    R22DISP    +2                         #  49    VEL3                    DP3
000670: 42,2705           03745                           ECADR    WHCHREAD                              #  49    WHOLE                   ARTH
000671: 42,2706           00000                           OCT      0                                     #  50    SPARE
000672: 42,2707           00000                           OCT      0                                     #  50    SPARE
000673: 42,2710           00000                           OCT      0                                     #  50    SPARE
000674: 42,2711           02200                           ECADR    ALPHASB                               #  51    DPDEG(360)              DP4
000675: 42,2712           02202                           ECADR    BETASB                                #  51    DPDEG(360)              DP4
000676: 42,2713           00000                           OCT      0                                     #  51    SPARE COMPONENT
000677: 42,2714           01755                           ECADR    ACTCENT                               #  52    DPDEG(360)              DP4
000678: 42,2715           00000                           OCT      00000                                 #  52    SPARE COMPONENT
000679: 42,2716           00000                           OCT      00000                                 #  52    SPARE COMPONENT
000680: 42,2717           00000                           OCT      00000                                 #  53    SPARE
000681: 42,2720           00000                           OCT      00000                                 #  53
000682: 42,2721           00000                           OCT      00000                                 #  53
000683: 42,2722           02200                           ECADR    RANGE                                 #  54    POS5                    DP1


000685: 42,2723           02202                           ECADR    RRATE                                 #  54    VEL3                    DP3
000686: 42,2724           02204                           ECADR    RTHETA                                #  54    DPDEG(360)              DP4
000687: 42,2725           03466                           ECADR    NN                                    #  55    WHOLE                   ARTH
000688: 42,2726           02256                           ECADR    ELEV                                  #  55    DPDEG(360)              DP4
000689: 42,2727           03620                           ECADR    CENTANG                               #  55    DPDEG(360)              DP4
000690: 42,2730           02200                           ECADR    RR-AZ                                 #  56    DPDEG(360)              DP4
000691: 42,2731           02202                           ECADR    RR-ELEV                               #  56    DPDEG(360)              DP4
000692: 42,2732           00000                           OCT      0                                     #  56    SPARE COMPONENT
000693: 42,2733           02302                           ECADR    DELTAR                                #  57    POS4                    DP3
000694: 42,2734           00000                           OCT      0                                     #  57    SPARE COMPONENT
000695: 42,2735           00000                           OCT      0                                     #  57    SPARE COMPONENT
000696: 42,2736           03605                           ECADR    POSTTPI                               #  58    POS4                    DP3
000697: 42,2737           03575                           ECADR    DELVTPI                               #  58    VEL3                    DP3
000698: 42,2740           02347                           ECADR    DELVTPF                               #  58    VEL3                    DP3
000699: 42,2741           02302                           ECADR    DVLOS                                 #  59    VEL3                    DP3
000700: 42,2742           02304                           ECADR    DVLOS      +2                         #  59    VEL3                    DP3
000701: 42,2743           02306                           ECADR    DVLOS      +4                         #  59    VEL3                    DP3
000702: 42,2744           02262                           ECADR    VHORIZ                                #  60    VEL3                    DP3
000703: 42,2745           03473                           ECADR    HDOTDISP                              #  60    VEL3                    DP3
000704: 42,2746           03534                           ECADR    HCALC                                 #  60    COMP ALT                DP1
000705: 42,2747           03475                           ECADR    TTFDISP                               #  61    MIN/SEC                 M/S
000706: 42,2750           03453                           ECADR    TTOGO                                 #  61    MIN/SEC                 M/S
000707: 42,2751           02626                           ECADR    OUTOFPLN                              #  61    POS7                    DP4
000708: 42,2752           03471                           ECADR    ABVEL                                 #  62    VEL3                    DP3
000709: 42,2753           03453                           ECADR    TTOGO                                 #  62    MIN/SEC                 M/S
000710: 42,2754           03507                           ECADR    DVTOTAL                               #  62    VEL3                    DP3
000711: 42,2755           03471                           ECADR    ABVEL                                 #  63    VEL3                    DP3
000712: 42,2756           03473                           ECADR    HDOTDISP                              #  63    VEL3                    DP3
000713: 42,2757           03774                           ECADR    HCALC1                                #  63    COMP ALT                DP1
000714: 42,2760           03666                           ECADR    FUNNYDSP                              #  64    2INT                    2INT
000715: 42,2761           03473                           ECADR    HDOTDISP                              #  64    VEL3                    DP3
000716: 42,2762           03534                           ECADR    HCALC                                 #  64    COMP ALT                DP1
000717: 42,2763           00013                           ECADR    SAMPTIME                              #  65    HMS (MIXED ONLY TO KEEP CODE 65) HMS
000718: 42,2764           00013                           ECADR    SAMPTIME                              #  65    HMS                     HMS
000719: 42,2765           00013                           ECADR    SAMPTIME                              #  65    HMS                     HMS
000720: 42,2766           02206                           ECADR    RSTACK     +6                         #  66    LANDING RADAR ALT       DP1
000721: 42,2767           00000                           OCT      0                                     #  66    LR POSITION             LRPOS
000722: 42,2770           00000                           OCT      0                                     #  66    SPARE COMPONENT
000723: 42,2771           02200                           ECADR    RSTACK                                #  67    LANDING RADAR VELX      DP1
000724: 42,2772           02202                           ECADR    RSTACK     +2                         #  67    LANDING RADAR VELY      DP1
000725: 42,2773           02204                           ECADR    RSTACK     +4                         #  67    LANDING RADAR VELZ      DP1
000726: 42,2774           02624                           ECADR    RANGEDSP                              #  68    POS7                    DP4
000727: 42,2775           03475                           ECADR    TTFDISP                               #  68    MIN/SEC                 M/S
000728: 42,2776           03664                           ECADR    DELTAH                                #  68    COMP ALT                DP1
000729: 42,2777           00000                           OCT      00000                                 #  69    SPARE
000730: 42,3000           00000                           OCT      00000                                 #  69
000731: 42,3001           00000                           OCT      00000                                 #  69
000732: 42,3002           00735                           ECADR    AOTCODE                               #  70    OCTAL ONLY              OCT
000733: 42,3003           00736                           ECADR    AOTCODE    +1                         #  70    OCTAL ONLY              OCT
000734: 42,3004           00737                           ECADR    AOTCODE    +2                         #  70    OCTAL ONLY              OCT


000736: 42,3005           00735                           ECADR    AOTCODE                               #  71    OCTAL ONLY              OCT
000737: 42,3006           00736                           ECADR    AOTCODE    +1                         #  71    OCTAL ONLY              OCT
000738: 42,3007           00737                           ECADR    AOTCODE    +2                         #  71    OCTAL ONLY              OCT
000739: 42,3010           00035                           ECADR    CDUT                                  #  72    360-CDU DEG             360-CDU
000740: 42,3011           00036                           ECADR    CDUS                                  #  72    CDU DEG                 CDU
000741: 42,3012           00000                           OCT      0                                     #  72    SPARE COMPONENT
000742: 42,3013           01107                           ECADR    TANG                                  #  73    360-CDU DEG             360-CDU
000743: 42,3014           01110                           ECADR    TANG       +1                         #  73    CDU DEG                 CDU
000744: 42,3015           00000                           OCT      0                                     #  73    SPARE COMPONENT
000745: 42,3016           03453                           ECADR    TTOGO                                 #  74    MIN/SEC                 M/S
000746: 42,3017           02362                           ECADR    YAW                                   #  74    DPDEG(360)              DP4
000747: 42,3020           02364                           ECADR    PITCH                                 #  74    DPDEG(360)              DP4
000748: 42,3021           03577                           ECADR    DIFFALT                               #  75    POS4                    DP3
000749: 42,3022           02252                           ECADR    T1TOT2                                #  75    MIN/SEC
000750: 42,3023           02254                           ECADR    T2TOT3                                #  75    MIN/SEC                 M/S
000751: 42,3024           02276                           ECADR    ZDOTD                                 #  76    VEL3                    DP3
000752: 42,3025           02272                           ECADR    RDOTD                                 #  76    VEL3                    DP3
000753: 42,3026           03642                           ECADR    XRANGE                                #  76    POS4                    DP3
000754: 42,3027           03453                           ECADR    TTOGO                                 #  77    MIN/SEC                 M/S
000755: 42,3030           02310                           ECADR    YDOT                                  #  77    VEL3                    DP3
000756: 42,3031           00000                           OCT      0                                     #  77    SPARE COMPONENT
000757: 42,3032           02200                           ECADR    RSTACK                                #  78    RR RANGE                DP1
000758: 42,3033           02202                           ECADR    RSTACK     +2                         #  78    RR RANGE RATE           DP1
000759: 42,3034           00000                           OCT      00000                                 #  78    SPARE COMPONENT
000760: 42,3035           01236                           ECADR    CURSOR                                #  79    CDU DEG                 CDU
000761: 42,3036           01240                           ECADR    SPIRAL                                #  79    CDU DEG                 CDU
000762: 42,3037           01242                           ECADR    POSCODE                               #  79    WHOLE                   ARTH
000763: 42,3040           03733                           ECADR    DATAGOOD                              #  80    WHOLE                   ARTH
000764: 42,3041           03734                           ECADR    OMEGAD                                #  80    DPDEG(360)              DP4
000765: 42,3042           00000                           OCT      0                                     #  80    SPARE COMPONENT
000766: 42,3043           03433                           ECADR    DELVLVC                               #  81    VEL3                    DP3
000767: 42,3044           03435                           ECADR    DELVLVC    +2                         #  81    VEL3                    DP3
000768: 42,3045           03437                           ECADR    DELVLVC    +4                         #  81    VEL3                    DP3
000769: 42,3046           03433                           ECADR    DELVLVC                               #  82    VEL3                    DP3
000770: 42,3047           03435                           ECADR    DELVLVC    +2                         #  82    VEL3                    DP3
000771: 42,3050           03437                           ECADR    DELVLVC    +4                         #  82    VEL3                    DP3
000772: 42,3051           03622                           ECADR    DELVIMU                               #  83    VEL3                    DP3
000773: 42,3052           03624                           ECADR    DELVIMU    +2                         #  83    VEL3                    DP3
000774: 42,3053           03626                           ECADR    DELVIMU    +4                         #  83    VEL3                    DP3
000775: 42,3054           02222                           ECADR    DELVOV                                #  84    VEL3                    DP3
000776: 42,3055           02224                           ECADR    DELVOV     +2                         #  84    VEL3                    DP3
000777: 42,3056           02226                           ECADR    DELVOV     +4                         #  84    VEL3                    DP3
000778: 42,3057           03501                           ECADR    VGBODY                                #  85    VEL3                    DP3
000779: 42,3060           03503                           ECADR    VGBODY     +2                         #  85    VEL3                    DP3
000780: 42,3061           03505                           ECADR    VGBODY     +4                         #  85    VEL3                    DP3
000781: 42,3062           03433                           ECADR    DELVLVC                               #  86    VEL3                    DP3
000782: 42,3063           03435                           ECADR    DELVLVC    +2                         #  86    VEL3                    DP3
000783: 42,3064           03437                           ECADR    DELVLVC    +4                         #  86    VEL3                    DP3
000784: 42,3065           01347                           ECADR    AZ                                    #  87    CDU DEG                 CDU
000785: 42,3066           01350                           ECADR    EL                                    #  87    CDU DEG                 CDU


000787: 42,3067           00000                           OCT      0                                     #  87    SPARE COMPONENT
000788: 42,3070           02706                           ECADR    STARAD                                #  88    FRAC                    FRAC
000789: 42,3071           02710                           ECADR    STARAD     +2                         #  88    FRAC                    FRAC
000790: 42,3072           02712                           ECADR    STARAD     +4                         #  88    FRAC                    FRAC
000791: 42,3073           02706                           ECADR    LANDLAT                               #  89    DPDEG(90)               DP3
000792: 42,3074           02710                           ECADR    LANDLONG                              #  89    DPDEG(90)               DP3
000793: 42,3075           02712                           ECADR    LANDALT                               #  89    POS5                    DP1
000794: 42,3076           02200                           ECADR    RANGE                                 #  90    POS5                    DP1
000795: 42,3077           02202                           ECADR    RRATE                                 #  90    VEL3                    DP3
000796: 42,3100           02204                           ECADR    RTHETA                                #  90    DPDEG(360)              DP4
000797: 42,3101           03715                           ECADR    P21ALT                                #  91    POS4                    DP3
000798: 42,3102           03711                           ECADR    P21VEL                                #  91    VEL2                    DP4
000799: 42,3103           03713                           ECADR    P21GAM                                #  91    DPDEG(360)              DP4
000800: 42,3104           00000                           OCT      00000                                 #  92    SPARE
000801: 42,3105           00000                           OCT      00000                                 #  92
000802: 42,3106           00000                           OCT      00000                                 #  92
000803: 42,3107           02737                           ECADR    OGC                                   #  93    DPDEG(90)               DP3
000804: 42,3110           02741                           ECADR    OGC        +2                         #  93    DPDEG(90)               DP3
000805: 42,3111           02743                           ECADR    OGC        +4                         #  93    DPDEG(90)               DP3
000806: 42,3112           00000                           OCT      00000                                 #  94    SPARE
000807: 42,3113           00000                           OCT      00000                                 #  94
000808: 42,3114           00000                           OCT      00000                                 #  94
000809: 42,3115           00000                           OCT      0                                     #  95    SPARE
000810: 42,3116           00000                           OCT      0                                     #  95    SPARE
000811: 42,3117           00000                           OCT      0                                     #  95    SPARE
000812: 42,3120           00000                           OCT      0                                     #  96    SPARE
000813: 42,3121           00000                           OCT      0                                     #  96    SPARE
000814: 42,3122           00000                           OCT      0                                     #  96    SPARE
000815: 42,3123           01045                           ECADR    DSPTEM1                               #  97    WHOLE                   ARTH
000816: 42,3124           01046                           ECADR    DSPTEM1    +1                         #  97    WHOLE                   ARTH
000817: 42,3125           01047                           ECADR    DSPTEM1    +2                         #  97    WHOLE                   ARTH
000818: 42,3126           01050                           ECADR    DSPTEM2                               #  98    WHOLE                   ARTH
000819: 42,3127           01051                           ECADR    DSPTEM2    +1                         #  98    FRAC                    FRAC
000820: 42,3130           01052                           ECADR    DSPTEM2    +2                         #  98    WHOLE                   ARTH
000821: 42,3131           02200                           ECADR    WWPOS                                 #  99    POS9                    DP3
000822: 42,3132           02202                           ECADR    WWVEL                                 #  99    VEL4                    DP2
000823: 42,3133           02204                           ECADR    WWBIAS                                #  99    RADIANS                 DP4
000824:
000825:                                                                                                  #  END OF IDADDTAB
000826:
000827:                                                                                                  #  NN    SF ROUTINES
000828: 42,3134           16351        RUTMXTAB           OCT      16351                                 #  40    M/S, DP3, DP3
000829: 42,3135           00142                           OCT      00142                                 #  41    CDU, ARTH
000830: 42,3136           16347                           OCT      16347                                 #  42    DP3, DP3, DP3
000831: 42,3137           16512                           OCT      16512                                 #  43    DP4, DP4, DP3
000832: 42,3140           22347                           OCT      22347                                 #  44    DP3, DP3, M/S
000833: 42,3141           24443                           OCT      24443                                 #  45    ARTH, M/S, DP4
000834: 42,3142           00000                           OCT      00000                                 #  46    OCT
000835: 42,3143           00553                           OCT      00553                                 #  47    ARITH1, ARITH1


000837: 42,3144           00143                           OCT      00143                                 #  48    ARTH, ARTH
000838: 42,3145           06347                           OCT      06347                                 #  49    DP3, DP3, ARTH
000839: 42,3146           00000                           OCT      0                                     #  50    SPARE
000840: 42,3147           00512                           OCT      00512                                 #  51    DP4, DP4
000841: 42,3150           00012                           OCT      00012                                 #  52    DP4
000842: 42,3151           00000                           OCT      00000                                 #  53    SPARE
000843: 42,3152           24344                           OCT      24344                                 #  54    DP1, DP3, DP4
000844: 42,3153           24503                           OCT      24503                                 #  55    ARTH, DP4, DP4
000845: 42,3154           00512                           OCT      00512                                 #  56    DP4, DP4
000846: 42,3155           00007                           OCT      00007                                 #  57    DP3
000847: 42,3156           16347                           OCT      16347                                 #  58    DP3, DP3, DP3
000848: 42,3157           16347                           OCT      16347                                 #  59    DP3, DP3, DP3
000849: 42,3160           10347                           OCT      10347                                 #  60    DP3, DP3, DP1
000850: 42,3161           24451                           OCT      24451                                 #  61    M/S, M/S, DP4
000851: 42,3162           16447                           OCT      16447                                 #  62    DP3, M/S, DP3
000852: 42,3163           10347                           OCT      10347                                 #  63    DP3, DP3, DP1
000853: 42,3164           10354                           OCT      10354                                 #  64    2INT, DP3, DP1
000854: 42,3165           20410                           OCT      20410                                 #  65    HMS, HMS, HMS
000855: 42,3166           00304                           OCT      00304                                 #  66    DP1, LRPOS
000856: 42,3167           10204                           OCT      10204                                 #  67    DP1, DP1, DP1
000857: 42,3170           10452                           OCT      10452                                 #  68    DP4, M/S, DP1
000858: 42,3171           00000                           OCT      00000                                 #  69    SPARE
000859: 42,3172           00000                           OCT      0                                     #  70    OCT, OCT, OCT
000860: 42,3173           00000                           OCT      0                                     #  71    OCT, OCT, OCT
000861: 42,3174           00115                           OCT      00115                                 #  72    360-CDU, CDU
000862: 42,3175           00115                           OCT      00115                                 #  73    360-CDU, CDU
000863: 42,3176           24511                           OCT      24511                                 #  74    M/S, DP4, DP4
000864: 42,3177           22447                           OCT      22447                                 #  75    DP3, M/S, M/S
000865: 42,3200           16347                           OCT      16347                                 #  76    DP3, DP3, DP3
000866: 42,3201           00351                           OCT      00351                                 #  77    M/S, DP3
000867: 42,3202           00204                           OCT      00204                                 #  78    DP1, DP1
000868: 42,3203           06102                           OCT      06102                                 #  79    CDU, CDU, ARTH
000869: 42,3204           00503                           OCT      00503                                 #  80    ARTH, DP4
000870: 42,3205           16347                           OCT      16347                                 #  81    DP3, DP3, DP3
000871: 42,3206           16347                           OCT      16347                                 #  82    DP3, DP3, DP3
000872: 42,3207           16347                           OCT      16347                                 #  83    DP3, DP3, DP3
000873: 42,3210           16347                           OCT      16347                                 #  84    DP3, DP3, DP3
000874: 42,3211           16347                           OCT      16347                                 #  85    DP3, DP3, DP3
000875: 42,3212           16347                           OCT      16347                                 #  86    DP3, DP3, DP3
000876: 42,3213           00102                           OCT      00102                                 #  87    CDU, CDU
000877: 42,3214           02041                           OCT      02041                                 #  88    FRAC FOR EACH
000878: 42,3215           10347                           OCT      10347                                 #  89    DP3, DP3, DP1
000879: 42,3216           24344                           OCT      24344                                 #  90    DP1, DP3, DP4
000880: 42,3217           24507                           OCT      24507                                 #  91    DP3, DP4, DP4
000881: 42,3220           00000                           OCT      00000                                 #  92    SPARE
000882: 42,3221           16347                           OCT      16347                                 #  93    DP3, DP3, DP3
000883: 42,3222           00000                           OCT      00000                                 #  94    SPARE
000884: 42,3223           00000                           OCT      0                                     #  95    SPARE
000885: 42,3224           00000                           OCT      0                                     #  96    SPARE
000886: 42,3225           06143                           OCT      06143                                 #  97    ARTH, ARTH, ARTH


000888: 42,3226           06043                           OCT      06043                                 #  98    ARTH, FRAC, ARTH
000889: 42,3227           24247                           OCT      24247                                 #  99    DP3, DP2, DP4
000890:
000891:                                                                                                  #  END OF RUTMXTAB
000892:
000893: 42,3230  30,2000                                  SBANK=   LOWSUPER
000894:

End of include-file PINBALL_NOUN_TABLES.agc.  Parent file is MAIN.agc


