
Source Code


000002:                                                                                                  ## Copyright:   Public domain.
000003:                                                                                                  ## Filename:    POWERED_FLIGHT_SUBROUTINES.agc
000004:                                                                                                  ## Purpose:     A section of Luminary revision 98.
000005:                                                                                                  ##              It is part of the reconstructed source code for the a
000006:                                                                                                  ##              development version of the flight software for the Lunar
000007:                                                                                                  ##              Module's (LM) Apollo Guidance Computer (AGC) for Apollo 11.
000008:                                                                                                  ##              The code has been recreated from a copy of Luminary 99
000009:                                                                                                  ##              revision 001, using asterisks indicating changed lines in
000010:                                                                                                  ##              the listing and Luminary Memo #85, which lists changes between
000011:                                                                                                  ##              Luminary 98 and 99.
000012:                                                                                                  ## Reference:   pp. 1259-1267
000013:                                                                                                  ## Assembler:   yaYUL
000014:                                                                                                  ## Contact:     Ron Burkey <info@sandroid.org>.
000015:                                                                                                  ## Website:     www.ibiblio.org/apollo/index.html
000016:                                                                                                  ## Mod history: 2019-07-28 MAS  Created from Luminary 99.
000017:                                                                                                  ##              2021-05-30 ABS  SINSLOC -> SINESLOC
000018:


000020: 14,3774                                           BANK     14                                    #  SAME FBANK AS THE FINDCDUD SUB-PROGRAM
000021: 23,2000                                           SETLOC   POWFLITE
000022: 23,2000                                           BANK
000023:
000024: 23,3537     0142                                  EBANK=   DEXDEX
000025: 23,3537                                           COUNT*   $$/POWFL
000026:
000027:                                                                                                  #  CDUTRIG, CDUTRIG1, CDUTRIG2, AND CD*TR*GS ALL COMPUTE THE SINES AND
000028:                                                                                                  #  COSINES OF THREE 2'S COMPLEMENT ANGLES AND PLACE THE RESULT, DOUBLE
000029:                                                                                                  #  PRECISION, IN THE SAME ORDER AS THE INPUTS, AT SINCDU AND COSCDU.  AN
000030:                                                                                                  #  ADDITIONAL OUTPUT IS THE 1'S COMPLEMENT ANGLES AT CDUSPOT.  THESE
000031:                                                                                                  #  ROUTINES GO OUT OF THEIR WAY TO LEAVE THE MPAC AREA AS THEY FIND IT,
000032:                                                                                                  #  EXCEPT FOR THE GENERALLY UNIMPORTANT MPAC +2.  THEY DIFFER ONLY IN
000033:                                                                                                  #  WHERE THEY GET THE ANGLES, AND IN METHOD OF CALLING.
000034:
000035:                                                                                                  #  CDUTRIG (AND CDUTRIG1, WHICH CAN BE CALLED IN BASIC) COMPUTE THE
000036:                                                                                                  #  SINES AND COSINES FROM THE CURRENT CONTENTS OF THE CDU REGISTERS.
000037:                                                                                                  #  THE CONTENTS OF CDUTEMP, ETC., ARE NOT TOUCHED SO THAT THEY MAY
000038:                                                                                                  #  CONTINUE TO FORM A CONSISTENT SET WITH THE LATEST PIPA READINGS.
000039:
000040:                                                                                                  #  CDUTRIG1 IS LIKE CDUTRIG EXCEPT THAT IT CAN BE CALLED IN BASIC.
000041:
000042:                                                                                                  #  CD*TR*GS FINDS CDU VALUES IN CDUSPOT RATHER THAN IN CDUTEMP.  THIS
000043:                                                                                                  #  ALLOWS USERS TO MAKE TRANSFORMATIONS USING ARBITRARY ANGLES, OR REAL
000044:                                                                                                  #  ANGLES IN AN ORDER OTHER THAN X Y Z.  A CALL TO THIS ROUTINE IS
000045:                                                                                                  #  NECESSARY IN PREPARATION FOR A CALL TO AX*SR*T IN EITHER OF ITS TWO
000046:                                                                                                  #  MODES (SMNB OR NBSM).  SINCE AX*SR*T EXPECTS TO FIND THE SINES AND
000047:                                                                                                  #  COSINES IN THE ORDER Y Z X THE ANGLES MUST HAVE BEEN PLACED IN CDUSPOT
000048:                                                                                                  #  IN THIS ORDER.  CD*TR*GS NEED NOT BE REPEATED WHEN AX*SR*T IS CALLED
000049:                                                                                                  #  MORE THAN ONCE, PROVIDED THE ANGLES HAVE NOT CHANGED.  NOTE THAT SINCE
000050:                                                                                                  #  IT CLOBBERS BUF2 (IN THE SINE AND COSINE ROUTINES) CD*TR*GS CANNOT BE
000051:                                                                                                  #  CALLED USING BANKCALL.  SORRY.
000052:
000053:                                                                                                  #  CD*TR*G IS LIKE CD*TR*GS EXCEPT THAT IT CAN BE CALLED IN
000054:                                                                                                  #  INTERPRETIVE.
000055:
000056: 23,3537           77776        CDUTRIG            EXIT
000057: 23,3540           03547                           TC       CDUTRIGS
000058: 23,3541           06037                           TC       INTPRET
000059: 23,3542           77616                           RVQ
000060:
000061: 23,3543           77776        CD*TR*G            EXIT
000062: 23,3544           03555                           TC       CD*TR*GS
000063: 23,3545           06037                           TC       INTPRET
000064: 23,3546           77616                           RVQ
000065:
000066: 23,3547           30032        CDUTRIGS           CA       CDUX
000067: 23,3550           54772                           TS       CDUSPOT    +4
000068: 23,3551           30033                           CA       CDUY
000069: 23,3552           54766                           TS       CDUSPOT


000071: 23,3553           30034                           CA       CDUZ
000072: 23,3554           54770                           TS       CDUSPOT    +2
000073:
000074: 23,3555           00006        CD*TR*GS           EXTEND
000075: 23,3556           22142                           QXCH     TEM2
000076: 23,3557           34751                           CAF      FOUR
000077: 23,3560           76242        TR*GL**P           MASK     SIX                                   #  MAKE IT EVEN AND SMALLER
000078: 23,3561           54143                           TS       TEM3
000079: 23,3562           50143                           INDEX    TEM3
000080: 23,3563           30766                           CA       CDUSPOT
000081: 23,3564           52155                           DXCH     MPAC                                  #  STORING 2'S COMP ANGLE, LOADING MPAC
000082: 23,3565           52127                           DXCH     VBUF       +4                         #  STORING MPAC FOR LATER RESTORATION
000083: 23,3566           04713                           TC       USPRCADR
000084: 23,3567           21576                           CADR     CDULOGIC
000085: 23,3570           00006                           EXTEND
000086: 23,3571           30155                           DCA      MPAC
000087: 23,3572           50143                           INDEX    TEM3
000088: 23,3573           52767                           DXCH     CDUSPOT                               #  STORING 1'S COMPLEMENT ANGLE
000089: 23,3574           04713                           TC       USPRCADR
000090: 23,3575           01517                           CADR     COSINE
000091: 23,3576           52155                           DXCH     MPAC
000092: 23,3577           50143                           INDEX    TEM3
000093: 23,3600           52745                           DXCH     COSCDU                                #  STORING COSINE
000094: 23,3601           00006                           EXTEND
000095: 23,3602           50143                           INDEX    TEM3
000096: 23,3603           30767                           DCA      CDUSPOT                               #  LOADING 1'S COMPLEMENT ANGLE
000097: 23,3604           04713                           TC       USPRCADR
000098: 23,3605           01531                           CADR     SINE       +1                         #  SINE +1 EXPECTS ARGUMENT IN A AND L
000099: 23,3606           52127                           DXCH     VBUF       +4                         #  BRINGING UP PRIOR MPAC TO BE RESTORED
000100: 23,3607           52155                           DXCH     MPAC
000101: 23,3610           50143                           INDEX    TEM3
000102: 23,3611           52737                           DXCH     SINCDU
000103: 23,3612           10143                           CCS      TEM3
000104: 23,3613           13560                           TCF      TR*GL**P
000105: 23,3614           00142                           TC       TEM2


000107:                                                                                                  #  ****************************************************************************************************************
000108:                                                                                                  #  QUICTRIG, INTENDED FOR GUIDANCE CYCLE USE WHERE TIME IS CRITICAL, IS A MUCH FASTER VERSION OF CD*TR*GS.
000109:                                                                                                  #  QUICTRIG COMPUTES AND STORES THE SINES AND COSINES OF THE 2'S COMPLEMENT ANGLES AT CDUSPOT, CDUSPOT +2,
000110:                                                                                                  #  AND CDUSPOT +4.  UNLIKE CD*TR*GS, QUICTRIG DOES NOT LEAVE THE 1'S COMPLEMENT VERSIONS OF THE ANGLES IN
000111:                                                                                                  #  CDUSPOT.  QUICTRIG'S EXECUTION TIME IS 4.1 MS;  THIS IS 10 TIMES AS FAST AS CD*TR*GS.  QUICTRIG MAY BE
000112:                                                                                                  #  CALLED FROM INTERPRETIVE AS AN RTB OP-CODE, OR FROM BASIC VIA BANKCALL OR IBNKCALL.
000113:
000114: 23,3615           00004        QUICTRIG           INHINT                                         #  INHINT SINCE DAP USES THE SAME TEMPS
000115: 23,3616           00006                           EXTEND
000116: 23,3617           22061                           QXCH     ITEMP1
000117: 23,3620           34751                           CAF      FOUR
000118: 23,3621           76242                 +4        MASK     SIX
000119: 23,3622           54062                           TS       ITEMP2
000120: 23,3623           50062                           INDEX    ITEMP2
000121: 23,3624           30766                           CA       CDUSPOT
000122: 23,3625           05033                           TC       SPSIN
000123: 23,3626           00006                           EXTEND
000124: 23,3627           74736                           MP       BIT14                                 #  SCALE DOWN TO MATCH INTERPRETER OUTPUTS
000125: 23,3630           50062                           INDEX    ITEMP2
000126: 23,3631           52737                           DXCH     SINCDU
000127: 23,3632           50062                           INDEX    ITEMP2
000128: 23,3633           30766                           CA       CDUSPOT
000129: 23,3634           05032                           TC       SPCOS
000130: 23,3635           00006                           EXTEND
000131: 23,3636           74736                           MP       BIT14
000132: 23,3637           50062                           INDEX    ITEMP2
000133: 23,3640           52745                           DXCH     COSCDU
000134: 23,3641           10062                           CCS      ITEMP2
000135: 23,3642           13621                           TCF      QUICTRIG   +4
000136: 23,3643           30061                           CA       ITEMP1
000137: 23,3644           00003                           RELINT
000138: 23,3645           00000                           TC       A
000139:


000141:                                                                                                  #  ****************************************************************************************************************
000142:                                                                                                  #  THESE INTERFACE ROUTINES MAKE IT POSSIBLE TO CALL AX*SR*T, ETC., IN
000143:                                                                                                  #  INTERPRETIVE.  LATER, WHERE POSSIBLE, THEY WILL BE ELIMINATED.
000144:
000145:                                                                                                  #  THESE INTERFACE ROUTINES ARE PERMANENT.  ALL RESTORE USER'S EBANK
000146:                                                                                                  #  SETTING. ALL ARE STRICT INTERPRETIVE SUBROUTINES, CALLED USING "CALL",
000147:                                                                                                  #  RETURNING VIA QPRET.  ALL EXPECT AND RETURN THE VECTOR TO BE TRANSFOR-
000148:                                                                                                  #  MED INTERPRETER-STYLE IN MPAC; COMPONENTS AT MPAC, MPAC +3, AND MPAC +5.
000149:
000150:                                                                                                  #  TRG*SMNB AND TRG*NBSM BOTH EXPECT TO SEE THE 2'S COMPLEMENT ANGLES
000151:                                                                                                  #  AT CDUSPOT (ORDER Y Z X, AT CDUSPOT, CDUSPOT +2, AND CDUSPOT +4; ODD
000152:                                                                                                  #  LOCATIONS NEED NOT BE ZEROED).  TRG*NBSM DOES THE NB TO SM TRANSFOR-
000153:                                                                                                  #  MATION;  TRG*SMNB, VICE VERSA.
000154:
000155:                                                                                                  #  CDU*NBSM DOES ITS TRANSFORMATION USING THE PRESENT CONTENTS OF
000156:                                                                                                  #  THE CDU COUNTERS.  OTHERWISE IT IS LIKE TRG*NBSM.
000157:
000158:                                                                                                  #  CDU*SMNB IS THE COMPLEMENT OF CDU*NBSM.
000159:
000160: 23,3646           77776        CDU*SMNB           EXIT
000161: 23,3647           03547                           TC       CDUTRIGS
000162: 23,3650           13653                           TCF      C*MM*N1
000163:
000164: 23,3651           77776        TRG*SMNB           EXIT
000165: 23,3652           03555                           TC       CD*TR*GS
000166: 23,3653           07532        C*MM*N1            TC       MPACVBUF                              #  AX*SR*T EXPECTS VECTOR IN VBUF
000167: 23,3654           46245                           CS       THREE                                 #  SIGNAL FOR SM TO NB TRANSFORMATION
000168: 23,3655           03675        C*MM*N2            TC       AX*SR*T
000169: 23,3656           06037                           TC       INTPRET
000170: 23,3657           43575                           VLOAD    RVQ
000171: 23,3660           00123                                    VBUF
000172:
000173: 23,3661           77776        CDU*NBSM           EXIT
000174: 23,3662           03547                           TC       CDUTRIGS
000175: 23,3663           13666                           TCF      C*MM*N3
000176:
000177: 23,3664           77776        TRG*NBSM           EXIT
000178: 23,3665           03555                           TC       CD*TR*GS
000179: 23,3666           07532        C*MM*N3            TC       MPACVBUF                              #  FOR AX*SR*T
000180: 23,3667           36245                           CA       THREE                                 #  SIGNAL FOR NB TO SM TRANSFORMATION
000181: 23,3670           13655                           TCF      C*MM*N2
000182:
000183:                                                                                                  #  *NBSM* AND *SMNB* EXPECT TO SEE THE SINES AND COSINES (AT SINCDU
000184:                                                                                                  #  AND COSCDU) RATHER THAN THE ANGLES THEMSELVES.  OTHERWISE THEY ARE
000185:                                                                                                  #  LIKE TRG*NBSM AND TRG*SMNB.
000186:
000187:                                                                                                  #  NOTE THAT JUST AS CD*TR*GS NEED BE CALLED ONLY ONCE FOR EACH SERIES
000188:                                                                                                  #  OF TRANSFORMATIONS USING THE SAME ANGLES, SO TOO ONLY ONE OF TRG*NBSM


000190:                                                                                                  #  AND TRG*SMNB NEED BE CALLED FOR EACH SERIES.  FOR SUBSEQUENT TRANSFOR-
000191:                                                                                                  #  MATIONS USE *NBSM* AND *SMNB*.
000192:
000193: 23,3671           77776        *SMNB*             EXIT
000194: 23,3672           13653                           TCF      C*MM*N1
000195:
000196: 23,3673           77776        *NBSM*             EXIT
000197: 23,3674           13666                           TCF      C*MM*N3
000198:
000199:                                                                                                  #  AX*SR*T COMBINES THE OLD SMNB AND NBSM.  FOR THE NB TO SM
000200:                                                                                                  #  TRANSFORMATION, ENTER WITH +3 IN A.  FOR SM TO NB, ENTER WITH -3.
000201:                                                                                                  #  THE VECTOR TO BE TRANSFORMED ARRIVES, AND IS RETURNED, IN VBUF.
000202:                                                                                                  #  AX*SR*T EXPECTS TO FIND THE SINES AND COSINES OF THE ANGLES OF ROTATION
000203:                                                                                                  #  AT SINCDU AND COSCDU, IN THE ORDER Y Z X.  A CALL TO CD*TR*GS, WITH
000204:                                                                                                  #  THE 2'S COMPLEMENT ANGLES (ORDER Y Z X) AT CDUSPOT, WILL TAKE CARE OF
000205:                                                                                                  #  THIS.  HERE IS A SAMPLE CALLING SEQUENCE:-
000206:                                                                                                  #                TC      CDUTRIGS
000207:                                                                                                  #                CS      THREE           ("CA THREE" FOR NBSM)
000208:                                                                                                  #                TC      AX*SR*T
000209:                                                                                                  #  THE CALL TO CD*TR*GS NEED NOT BE REPEATED, WHEN AX*SR*T IS CALLED MORE
000210:                                                                                                  #  THAN ONCE, UNLESS THE ANGLES HAVE CHANGED.
000211:
000212:                                                                                                  #  AX*SR*T IS GUARANTEED SAFE ONLY FOR VECTORS OF MAGNITUDE LESS THAN
000213:                                                                                                  #  UNITY.  A LOOK AT THE CASE IN WHICH A VECTOR OF GREATER MAGNITUDE
000214:                                                                                                  #  HAPPENS TO LIE ALONG AN AXIS OF THE SYSTEM TO WHICH IT IS TO BE TRANS-
000215:                                                                                                  #  FORMED CONVINCES ONE THAT THIS IS A RESTRICTION WHICH MUST BE ACCEPTED.
000216:
000217: 23,3675           54142        AX*SR*T            TS       DEXDEX                                #  WHERE IT BECOMES THE INDEX OF INDEXES
000218: 23,3676           00006                           EXTEND
000219: 23,3677           22145                           QXCH     RTNSAVER
000220:
000221: 23,3700           10142        R*TL**P            CCS      DEXDEX                                #                +3 --> 0        -3 --> 2
000222: 23,3701           40142                           CS       DEXDEX                                #  THUS:         +2 --> 1        -2 --> 1
000223: 23,3702           66245                           AD       THREE                                 #                +1 --> 2        -1 --> 0
000224: 23,3703           00006                           EXTEND
000225: 23,3704           50000                           INDEX    A
000226: 23,3705           33764                           DCA      INDEXI
000227: 23,3706           52144                           DXCH     DEXI
000228:
000229: 23,3707           34753                           CA       ONE
000230: 23,3710           54130                           TS       BUF
000231: 23,3711           00006                           EXTEND
000232: 23,3712           50143                           INDEX    DEX1
000233: 23,3713           40123                           DCS      VBUF
000234: 23,3714           13716                           TCF      LOOP1                                 #  REALLY BE A SUBTRACT, AND VICE VERSA
000235:
000236: 23,3715           52131        LOOP2              DXCH     BUF                                   #  LOADING VECTOR COMPONENT, STORING INDEX


000238: 23,3716           52155        LOOP1              DXCH     MPAC
000239: 23,3717           33762                           CA       SINESLOC
000240: 23,3720           60143                           AD       DEX1
000241: 23,3721           54116                           TS       ADDRWD
000242:
000243: 23,3722           07107                           TC       DMPSUB                                #  MULTIPLY BY SIN(CDUANGLE)
000244: 23,3723           10142                           CCS      DEXDEX
000245: 23,3724           52155                           DXCH     MPAC                                  #  NBSM CASE
000246: 23,3725           13730                           TCF      +3
000247: 23,3726           00006                           EXTEND                                         #  SMNB CASE
000248: 23,3727           40155                           DCS      MPAC
000249: 23,3730           52160                           DXCH     TERM1TMP
000250:
000251: 23,3731           36242                           CA       SIX                                   #  SINCDU AND COSCDU (EACH 6 WORDS) MUST
000252: 23,3732           26116                           ADS      ADDRWD                                #        BE CONSECUTIVE AND IN THAT ORDER
000253:
000254: 23,3733           00006                           EXTEND
000255: 23,3734           50130                           INDEX    BUF
000256: 23,3735           50143                           INDEX    DEX1
000257: 23,3736           30123                           DCA      VBUF
000258: 23,3737           52155                           DXCH     MPAC
000259: 23,3740           07107                           TC       DMPSUB                                #  MULTIPLY BY COS(CDUANGLE)
000260: 23,3741           52155                           DXCH     MPAC
000261: 23,3742           20160                           DAS      TERM1TMP
000262: 23,3743           52160                           DXCH     TERM1TMP
000263: 23,3744           20001                           DDOUBL
000264: 23,3745           50130                           INDEX    BUF
000265: 23,3746           50143                           INDEX    DEX1
000266: 23,3747           52123                           DXCH     VBUF
000267: 23,3750           52131                           DXCH     BUF                                   #  LOADING INDEX, STORING VECTOR COMPONENT
000268:
000269: 23,3751           10000                           CCS      A                                     #  'CAUSE THAT'S WHERE THE INDEX NOW IS
000270: 23,3752           13715                           TCF      LOOP2
000271:
000272: 23,3753           00006                           EXTEND
000273: 23,3754           26142                           DIM      DEXDEX                                #  DECREMENT MAGNITUDE PRESERVING SIGN
000274:
000275: 23,3755           10142        TSTPOINT           CCS      DEXDEX                                #  ONLY THE BRANCHING FUNCTION IS USED
000276: 23,3756           13700                           TCF      R*TL**P
000277: 23,3757           00145                           TC       RTNSAVER
000278: 23,3760           13700                           TCF      R*TL**P
000279: 23,3761           00145                           TC       RTNSAVER
000280:
000281: 23,3762           00736        SINESLOC           ADRES    SINCDU                                #  FOR USE IN SETTING ADDRWD
000282:
000283: 23,3763           00004        INDEXI             DEC      4          B-14                       #  **********   DON'T   **********
000284: 23,3764           00002                           DEC      2          B-14                       #  **********   TOUCH   **********
000285: 23,3765           00000                           DEC      0          B-14                       #  **********   THESE   **********


000287: 23,3766           00004                           DEC      4          B-14                       #  ********** CONSTANTS **********
000288:
000289:                                                                                                  #  ****************************************************************************************************************
000290:
000291: 10,2030                                           BANK     10
000292: 10,2000                                           SETLOC   FLESHLOC
000293: 10,2000                                           BANK
000294: 10,2030                                           COUNT*   $$/POWFL
000295:
000296:                                                                                                  #  ROUTINE FLESHPOT COMPUTES THE BODY-STABLE MEMBER TRANSFORMATION MATRIX (COMMONLY CALLED XNB) AND STORES
000297:                                                                                                  #  IT IN THE LOCATIONS SPECIFIED BY THE ECADR ENTERING IN A.
000298:
000299: 10,2030           77776        CALCSMSC           EXIT
000300: 10,2031           04616                           TC       BANKCALL
000301: 10,2032           20036                           CADR     FLESHPOT   -1
000302: 10,2033           06037                           TC       INTPRET
000303: 10,2034           77616                           RVQ
000304:
000305: 10,2035           02664        XNBECADR           ECADR    XNB
000306:
000307: 10,2036           32035                 -1        CAF      XNBECADR
000308:
000309: 10,2037           54142        FLESHPOT           TS       TEM2
000310: 10,2040           56003                           XCH      EBANK
000311: 10,2041           56142                           XCH      TEM2
000312: 10,2042           74357                           MASK     LOW8
000313: 10,2043           65007                           AD       OCT1400
000314: 10,2044           54141                           TS       TEM1
000315:
000316: 10,2045           00006                           EXTEND
000317: 10,2046           30745                           DCA      COSCDUY
000318: 10,2047           52155                           DXCH     MPAC
000319: 10,2050           07103                           TC       DMP
000320: 10,2051           00746                           ADRES    COSCDUZ
000321: 10,2052           52155                           DXCH     MPAC
000322: 10,2053           20001                           DDOUBL
000323: 10,2054           50141                           INDEX    TEM1
000324: 10,2055           52001                           DXCH     0                                     #  = COSY COSZ
000325:
000326: 10,2056           00006                           EXTEND
000327: 10,2057           30741                           DCA      SINCDUZ
000328: 10,2060           50141                           INDEX    TEM1
000329: 10,2061           52003                           DXCH     2                                     #  = SINZ
000330:
000331: 10,2062           00006                           EXTEND
000332: 10,2063           40737                           DCS      SINCDUY
000333: 10,2064           52155                           DXCH     MPAC
000334: 10,2065           07107                           TC       DMPSUB                                #  ADDRWD SET TO COSCDUZ


000336: 10,2066           52155                           DXCH     MPAC
000337: 10,2067           20001                           DDOUBL
000338: 10,2070           50141                           INDEX    TEM1
000339: 10,2071           52005                           DXCH     4                                     #  = - SINY COSZ
000340:
000341: 10,2072           00006                           EXTEND
000342: 10,2073           40743                           DCS      SINCDUX
000343: 10,2074           52155                           DXCH     MPAC
000344: 10,2075           07107                           TC       DMPSUB                                #  ADDRWD SET TO COSCDUZ STILL
000345: 10,2076           52155                           DXCH     MPAC
000346: 10,2077           20001                           DDOUBL
000347: 10,2100           52160                           DXCH     MPAC       +3
000348:
000349: 10,2101           00006                           EXTEND
000350: 10,2102           40743                           DCS      SINCDUX
000351: 10,2103           52155                           DXCH     MPAC
000352: 10,2104           07103                           TC       DMP
000353: 10,2105           00740                           ADRES    SINCDUZ
000354: 10,2106           00006                           EXTEND
000355: 10,2107           40155                           DCS      MPAC
000356: 10,2110           52162                           DXCH     MPAC       +5
000357: 10,2111           07103                           TC       DMP
000358: 10,2112           00736                           ADRES    SINCDUY
000359: 10,2113           52155                           DXCH     MPAC
000360: 10,2114           20001                           DDOUBL
000361: 10,2115           20001                           DDOUBL
000362: 10,2116           52162                           DXCH     MPAC       +5
000363:
000364: 10,2117           52155                           DXCH     MPAC
000365: 10,2120           07103                           TC       DMP
000366: 10,2121           00744                           ADRES    COSCDUY
000367: 10,2122           52155                           DXCH     MPAC
000368: 10,2123           20001                           DDOUBL
000369: 10,2124           20001                           DDOUBL
000370: 10,2125           52131                           DXCH     BUF
000371:
000372: 10,2126           00006                           EXTEND
000373: 10,2127           30745                           DCA      COSCDUY
000374: 10,2130           52155                           DXCH     MPAC
000375: 10,2131           07103                           TC       DMP
000376: 10,2132           00750                           ADRES    COSCDUX
000377: 10,2133           52155                           DXCH     MPAC
000378: 10,2134           20001                           DDOUBL
000379: 10,2135           20162                           DAS      MPAC       +5
000380:
000381: 10,2136           00006                           EXTEND
000382: 10,2137           30737                           DCA      SINCDUY
000383: 10,2140           52155                           DXCH     MPAC
000384: 10,2141           07107                           TC       DMPSUB                                #  ADDRWD SET TO COSCDUX
000385: 10,2142           52155                           DXCH     MPAC
000386:


000388: 10,2143           20001                           DDOUBL
000389: 10,2144           20131                           DAS      BUF
000390:
000391: 10,2145           52131                           DXCH     BUF
000392: 10,2146           52155                           DXCH     MPAC
000393:
000394: 10,2147           00006                           EXTEND
000395: 10,2150           30155                           DCA      MPAC
000396: 10,2151           50141                           INDEX    TEM1
000397: 10,2152           52015                           DXCH     14                                    #  = SINY COSX + SINX SINZ COSY
000398:
000399: 10,2153           00006                           EXTEND
000400: 10,2154           30160                           DCA      MPAC       +3
000401: 10,2155           50141                           INDEX    TEM1
000402: 10,2156           52017                           DXCH     16                                    #  = - SINX COSZ
000403:
000404: 10,2157           00006                           EXTEND
000405: 10,2160           30162                           DCA      MPAC       +5
000406: 10,2161           50141                           INDEX    TEM1
000407: 10,2162           52021                           DXCH     20                                    #  = COSX COSY - SINX SINY SINZ
000408:
000409: 10,2163           30141                           CA       TEM1
000410: 10,2164           54116                           TS       ADDRWD
000411: 10,2165           00006                           EXTEND
000412: 10,2166           30006                           DCA      Z
000413: 10,2167           64751                           AD       FOUR
000414: 10,2170           52165                           DXCH     LOC
000415: 10,2171           34744                           CAF      BIT8
000416: 10,2172           54023                           TS       EDOP
000417: 10,2173           17460                           TCF      VXV
000418: 10,2174           52155                           DXCH     MPAC
000419: 10,2175           20001                           DDOUBL
000420: 10,2176           50141                           INDEX    TEM1
000421: 10,2177           52007                           DXCH     6
000422:
000423: 10,2200           52160                           DXCH     MPAC       +3
000424: 10,2201           20001                           DDOUBL
000425: 10,2202           50141                           INDEX    TEM1
000426: 10,2203           52011                           DXCH     10
000427:
000428: 10,2204           52162                           DXCH     MPAC       +5
000429: 10,2205           20001                           DDOUBL
000430: 10,2206           50141                           INDEX    TEM1
000431: 10,2207           52013                           DXCH     12
000432:
000433: 10,2210           30142                           CA       TEM2
000434: 10,2211           54003                           TS       EBANK
000435: 10,2212           14631                           TCF      SWRETURN
000436:

End of include-file POWERED_FLIGHT_SUBROUTINES.agc.  Parent file is MAIN.agc


