
Source Code


000002:                                                                                                  ## Copyright:   Public domain.
000003:                                                                                                  ## Filename:    RCS_FAILURE_MONITOR.agc
000004:                                                                                                  ## Purpose:     A section of Luminary revision 98.
000005:                                                                                                  ##              It is part of the reconstructed source code for the a
000006:                                                                                                  ##              development version of the flight software for the Lunar
000007:                                                                                                  ##              Module's (LM) Apollo Guidance Computer (AGC) for Apollo 11.
000008:                                                                                                  ##              The code has been recreated from a copy of Luminary 99
000009:                                                                                                  ##              revision 001, using asterisks indicating changed lines in
000010:                                                                                                  ##              the listing and Luminary Memo #85, which lists changes between
000011:                                                                                                  ##              Luminary 98 and 99.
000012:                                                                                                  ## Reference:   pp. 190-192
000013:                                                                                                  ## Assembler:   yaYUL
000014:                                                                                                  ## Contact:     Ron Burkey <info@sandroid.org>.
000015:                                                                                                  ## Website:     www.ibiblio.org/apollo/index.html
000016:                                                                                                  ## Mod history: 2019-07-28 MAS  Created from Luminary 99.
000017:


000019:                                                                                                  #  PROGRAM DESCRIPTION
000020:
000021:                                                                                                  #  AUTHOR: J S MILLER
000022:
000023:                                                                                                  #  MODIFIED 6 MARCH 1968 BY P S WEISSMAN TO SET UP JOB FOR 1/ACCS WHEN THE MASKS ARE CHANGED.
000024:
000025:                                                                                                  #  THIS ROUTINE IS ATTACHED TO T4RUPT, AND IS ENTERED EVERY 480 MS.  ITS FUNCTION IS TO EXAMINE THE LOW 8 BITS
000026:                                                                                                  #  OF CHANNEL 32 TO SEE IF ANY ISOLATION-VALVE CLOSURE BITS HAVE APPEARED OR DISAPPEARED (THE CREW IS WARNED OF JET
000027:                                                                                                  #  FAILURES BY LAMPS LIT BY THE GRUMMAN FAILURE-DETECTION CIRCUITRY; THEY MAY RESPOND BY OPERATING SWITCHES WHICH
000028:                                                                                                  #  ISOLATE PAIRS OF JETS FROM THE PROPELLANT TANKS AND SET BITS IN CHANNEL 32).  IN THE EVENT THAT CHANNEL 32 BITS
000029:                                                                                                  #  DIFFER FROM 'PVALVEST', THE RECORD OF ACTIONS TAKEN BY THIS ROUTINE, THE APPROPRIATE BITS IN 'CH5MASK' &
000030:                                                                                                  #  'CH6MASK', USED BY THE DAP JET-SELECTION LOGIC, ARE UPDATED, AS IS 'PVALVEST'.  TO SPEED UP & SHORTEN THE
000031:                                                                                                  #  ROUTINE, NO MORE THAN ONE CHANGE IS ACCEPTED PER ENTRY.  THE HIGHEST-NUMBERED BIT IN CHANNEL 32 WHICH REQUIRES
000032:                                                                                                  #  ACTION IS THE ONE PROCESSED.
000033:
000034:                                                                                                  #  THE CODING IN THE FAILURE MONITOR HAS BEEN WRITTEN SO AS TO HAVE ALMOST COMPLETE RESTART PROTECTION.  FOR
000035:                                                                                                  #  EXAMPLE, NO ASSUMPTION IS MADE WHEN SETTING A 'CH5MASK' BIT TO 1 THAT THE PREVIOUS STATE IS 0, ALTHOUGH IT OF
000036:                                                                                                  #  COURSE SHOULD BE.  ONE CASE WHICH MAY BE SEEN TO EVADE PROTECTION IS THE OCCURRENCE OF A RESTART AFTER UPDATING
000037:                                                                                                  #  ONE OR BOTH DAP MASK-WORDS BUT BEFORE UPDATING 'PVALVEST', COUPLED WITH A CHANGE IN THE VALVE-BIT BACK TO ITS
000038:                                                                                                  #  FORMER STATE.  THE CONSEQUENCE OF THIS IS THAT THE NEXT ENTRY WOULD NOT SEE THE CHANGE INCOMPLETELY INCORP-
000039:                                                                                                  #  ORATED BY THE LAST PASS (BECAUSE IT WENT AWAY AT JUST THE RIGHT TIME), BUT THE DAP MASK-WORDS WILL BE INCORRECT.
000040:                                                                                                  #  THIS COMBINATION OF EVENTS SEEMS QUITE REMOTE, BUT NOT IMPOSSIBLE UNLESS THE CREW OPERATES THE SWITCHES AT HALF-
000041:                                                                                                  #  SECOND INTERVALS OR LONGER.  IN ANY EVENT, A DISAGREEMENT BETWEEN REALITY AND THE DAP MASKS WILL BE CURED IF
000042:                                                                                                  #  THE MISINTERPRETED SWITCH IS REVERSED AND THEN RESTORED TO ITS CORRECT POSITION (SLOWLY).
000043:
000044:                                                                                                  #  CALLING SEQUENCE:
000045:
000046:                                                                                                  #        TCF     RCSMONIT                (IN INTERRUPT MODE, EVERY 480 MS.)
000047:
000048:                                                                                                  #  EXIT: TCF RCSMONEX (ALL PATHS EXIT VIA SUCH AN INSTRUCTION)
000049:
000050: 06,3156     5270               RCSMONEX           EQUALS   RESUME
000051:
000052:                                                                                                  #  ERASABLE INITIALIZATION REQUIRED:
000053:
000054:                                                                                                  #        VIA FRESH START:        PVALVEST        =       +0      (ALL JETS ENABLED)
000055:                                                                                                  #                                CH5MASK,CH6MASK =       +0      (ALL JETS OK)
000056:
000057:                                                                                                  #  OUTPUT:       CH5MASK & CH6MASK UPDATED (1'S WHERE JETS NOT TO BE USED, IN CHANNEL 5 & 6 FORMAT)
000058:                                                                                                  #                PVALTEST UPDATED (1,S WHEN VALVE CLOSURES HAVE BEEN TRANSLATED INTO CH5MASK & CH6MASK; CHAN 32 FORMAT)
000059:                                                                                                  #                JOB TO DO 1/ACCS.
000060:
000061:                                                                                                  #  DEBRIS:  A, L, Q AND DEBRIS OF NOVAC.
000062:
000063:                                                                                                  #  SUBROUTINE CALLED:  NOVAC.
000064:
000065: 06,3156     1262                                  EBANK=   CH5MASK
000066:
000067: 23,2000                                           BANK     23
000068: 06,2000                                           SETLOC   RCSMONT
000069: 06,2000                                           BANK


000071: 06,3156                                           COUNT*   $$/T4RCS
000072:
000073: 06,3156  06,3156               RCSMONIT           EQUALS   RCSMON
000074:
000075: 06,3156           44755        RCSMON             CS       ZERO
000076: 06,3157           00006                           EXTEND
000077: 06,3160           06032                           RXOR     CHAN32                                #  PICK UP + INVERT INVERTED CHANNEL 32.
000078: 06,3161           74357                           MASK     LOW8                                  #  KEEP JET-FAIL BITS ONLY.
000079: 06,3162           54002                           TS       Q
000080:
000081: 06,3163           41276                           CS       PVALVEST                              #        -   -
000082: 06,3164           70002                           MASK     Q                                     #  FORM PC + PC.
000083: 06,3165           54001                           TS       L                                     #        (P = PREVIOUS ISOLATION VALVE STATE,
000084: 06,3166           40002                           CS       Q                                     #         C = CURRENT VALVE STATE (CH32)).
000085: 06,3167           71276                           MASK     PVALVEST
000086: 06,3170           26001                           ADS      L                                     #  RESULT NZ INDICATES ACTION REQUIRED.
000087:
000088: 06,3171           00006                           EXTEND
000089: 06,3172           15270                           BZF      RCSMONEX                              #  QUIT IF NO ACTION REQUIRED.
000090:
000091: 06,3173           00006                           EXTEND
000092: 06,3174           74745                           MP       BIT7                                  #  MOVE BITS 8-1 OF A TO 14-7 OF L.
000093: 06,3175           56001                           XCH      L                                     #  ZERO TO L IN THE PROCESS.
000094:
000095: 06,3176           24001                 -3        INCR     L
000096: 06,3177           60000                           DOUBLE                                         #  BOUND TO GET OVERFLOW IN THIS LOOP,
000097: 06,3200           54000                           OVSK                                           #  SINCE WE ASSURED INITIAL NZ IN A.
000098: 06,3201           13176                           TCF      -3
000099:
000100: 06,3202           50001                           INDEX    L
000101: 06,3203           34743                           CA       BIT8       -1                         #  SAVE THE RELEVANT BIT (8-1).
000102: 06,3204           54002                           TS       Q
000103: 06,3205           71276                           MASK     PVALVEST                              #  LOOK AT PREVIOUS VALVE STATE BIT.
000104: 06,3206           10000                           CCS      A
000105: 06,3207           13223                           TCF      VOPENED                               #  THE VALVE HAS JUST BEEN OPENED.
000106:
000107: 06,3210           41262                           CS       CH5MASK                               #  THE VALVE HAS JUST BEEN CLOSED.
000108: 06,3211           50001                           INDEX    L
000109: 06,3212           73242                           MASK     5FAILTAB
000110: 06,3213           27262                           ADS      CH5MASK                               #  SET INHIBIT BIT FOR CHANNEL 5 JET.
000111:
000112: 06,3214           41263                           CS       CH6MASK
000113: 06,3215           50001                           INDEX    L
000114: 06,3216           73252                           MASK     6FAILTAB
000115: 06,3217           27263                           ADS      CH6MASK                               #  SET INGIBIT BIT FOR CHANNEL 6 JET.
000116:
000117: 06,3220           30002                           CA       Q
000118: 06,3221           27276                           ADS      PVALVEST                              #  RECORD ACTION TAKEN.
000119:
000120: 06,3222           13236                           TCF      1/ACCFIX                              #  SET UP 1/ACCJOB AND EXIT.
000121:


000123: 06,3223           50001        VOPENED            INDEX    L                                     #  A VALVE HAS JUST BEEN OPENED.
000124: 06,3224           43242                           CS       5FAILTAB
000125: 06,3225           71262                           MASK     CH5MASK
000126: 06,3226           55262                           TS       CH5MASK                               #  REMOVE INHIBIT BIT FOR CHANNEL 5 JET.
000127:
000128: 06,3227           50001                           INDEX    L
000129: 06,3230           43252                           CS       6FAILTAB
000130: 06,3231           71263                           MASK     CH6MASK
000131: 06,3232           55263                           TS       CH6MASK                               #  REMOVE INHIBIT BIT FOR CHANNEL 6 JET.
000132:
000133: 06,3233           40002                           CS       Q
000134: 06,3234           71276                           MASK     PVALVEST
000135: 06,3235           55276                           TS       PVALVEST                              #  RECORD ACTION TAKEN.
000136:
000137: 06,3236           37715        1/ACCFIX           CAF      PRIO27                                #  SET UP 1/ACCS SO THAT THE SWITCH CURVES
000138: 06,3237           05072                           TC       NOVAC                                 #        FOR TJETLAW CAN BE MODIFIED IF CH5MASK
000139: 06,3240  E6,1537                                  EBANK=   AOSQ                                  #        HAS BEEN ALTERED.
000140: 06,3240           02454 40106                     2CADR    1/ACCJOB
000141:
000142: 06,3242           15270                           TCF      RCSMONEX                              #  EXIT.
000143:
000144: 06,3243                        5FAILTAB           EQUALS   -1                                    #  CH 5 JET BIT CORRESPONDING TO CH 32 BIT:
000145: 06,3243           00040                           OCT      00040                                 #  8
000146: 06,3244           00020                           OCT      00020                                 #  7
000147: 06,3245           00100                           OCT      00100                                 #  6
000148: 06,3246           00200                           OCT      00200                                 #  5
000149: 06,3247           00010                           OCT      00010                                 #  4
000150: 06,3250           00001                           OCT      00001                                 #  3
000151: 06,3251           00004                           OCT      00004                                 #  2
000152: 06,3252           00002                           OCT      00002                                 #  1
000153:
000154: 06,3253                        6FAILTAB           EQUALS   -1                                    #  CH 6 JET BIT CORRESPONDING TO CH 32 BIT:
000155: 06,3253           00010                           OCT      00010                                 #  8
000156: 06,3254           00020                           OCT      00020                                 #  7
000157: 06,3255           00004                           OCT      00004                                 #  6
000158: 06,3256           00200                           OCT      00200                                 #  5
000159: 06,3257           00001                           OCT      00001                                 #  4
000160: 06,3260           00002                           OCT      00002                                 #  3
000161: 06,3261           00040                           OCT      00040                                 #  2
000162: 06,3262           00100                           OCT      00100                                 #  1
000163:
000164:

End of include-file RCS_FAILURE_MONITOR.agc.  Parent file is MAIN.agc


