
Source Code


000002:                                                                                                  ## Copyright:   Public domain.
000003:                                                                                                  ## Filename:    SINGLE_PRECISION_SUBROUTINES.agc
000004:                                                                                                  ## Purpose:     A section of Luminary revision 98.
000005:                                                                                                  ##              It is part of the reconstructed source code for the a
000006:                                                                                                  ##              development version of the flight software for the Lunar
000007:                                                                                                  ##              Module's (LM) Apollo Guidance Computer (AGC) for Apollo 11.
000008:                                                                                                  ##              The code has been recreated from a copy of Luminary 99
000009:                                                                                                  ##              revision 001, using asterisks indicating changed lines in
000010:                                                                                                  ##              the listing and Luminary Memo #85, which lists changes between
000011:                                                                                                  ##              Luminary 98 and 99.
000012:                                                                                                  ## Reference:   p.  1102
000013:                                                                                                  ## Assembler:   yaYUL
000014:                                                                                                  ## Contact:     Ron Burkey <info@sandroid.org>.
000015:                                                                                                  ## Website:     www.ibiblio.org/apollo/index.html
000016:                                                                                                  ## Mod history: 2019-07-28 MAS  Created from Luminary 99.
000017:


000019:    5032                                           BLOCK    02
000020:
000021:                                                                                                  #  SINGLE PRECISION SINE AND COSINE
000022:
000023:    5032                                           COUNT*   $$/INTER
000024:    5032           64736        SPCOS              AD       HALF                                  #  ARGUMENTS SCALED AT PI
000025:    5033           55076        SPSIN              TS       TEMK
000026:    5034           15036                           TCF      SPT
000027:    5035           41076                           CS       TEMK
000028:    5036           60000        SPT                DOUBLE
000029:    5037           55076                           TS       TEMK
000030:    5040           15051                           TCF      POLLEY
000031:    5041           57076                           XCH      TEMK
000032:    5042           51076                           INDEX    TEMK
000033:    5043           64734                           AD       LIMITS
000034:    5044           40000                           COM
000035:    5045           61076                           AD       TEMK
000036:    5046           55076                           TS       TEMK
000037:    5047           15051                           TCF      POLLEY
000038:    5050           15067                           TCF      ARG90
000039:    5051           00006        POLLEY             EXTEND
000040:    5052           71076                           MP       TEMK
000041:    5053           55077                           TS       SQ
000042:    5054           00006                           EXTEND
000043:    5055           75005                           MP       C5/2
000044:    5056           67737                           AD       C3/2
000045:    5057           00006                           EXTEND
000046:    5060           71077                           MP       SQ
000047:    5061           67717                           AD       C1/2
000048:    5062           00006                           EXTEND
000049:    5063           71076                           MP       TEMK
000050:    5064           20001                           DDOUBL
000051:    5065           55076                           TS       TEMK
000052:    5066           00002                           TC       Q
000053:    5067           50000        ARG90              INDEX    A
000054:    5070           44734                           CS       LIMITS
000055:    5071           00002                           TC       Q                                     #  RESULT SCALED AT 1
000056:
000057:

End of include-file SINGLE_PRECISION_SUBROUTINES.agc.  Parent file is MAIN.agc


