
Source Code


000002:                                                                                                  ## Copyright:   Public domain.
000003:                                                                                                  ## Filename:    STABLE_ORBIT_-_P38-P39.agc
000004:                                                                                                  ## Purpose:     A section of Luminary revision 98.
000005:                                                                                                  ##              It is part of the reconstructed source code for the a
000006:                                                                                                  ##              development version of the flight software for the Lunar
000007:                                                                                                  ##              Module's (LM) Apollo Guidance Computer (AGC) for Apollo 11.
000008:                                                                                                  ##              The code has been recreated from a copy of Luminary 99
000009:                                                                                                  ##              revision 001, using asterisks indicating changed lines in
000010:                                                                                                  ##              the listing and Luminary Memo #85, which lists changes between
000011:                                                                                                  ##              Luminary 98 and 99.
000012:                                                                                                  ## Reference:   pp. 723-730
000013:                                                                                                  ## Assembler:   yaYUL
000014:                                                                                                  ## Contact:     Ron Burkey <info@sandroid.org>.
000015:                                                                                                  ## Website:     www.ibiblio.org/apollo/index.html
000016:                                                                                                  ## Mod history: 2019-07-28 MAS  Created from Luminary 99.
000017:


000019:                                                                                                  #  STABLE ORBIT RENDEZVOUS PROGRAMS (P38 AND P78)
000020:
000021:                                                                                                  #  MOD NO -1             LOG SECTION - STABLE ORBIT - P38-P39
000022:                                                                                                  #  MOD BY RUDNICKI.S     DATE 25JAN68
000023:
000024:                                                                                                  #  FUNCTIONAL DESCRIPTION
000025:
000026:                                                                                                  #        P38 AND P78 CALCULATE THE REQUIRED DELTA V AND OTHER INITIAL
000027:                                                                                                  #        CONDITIONS REQUIRED BY THE AGC TO (1) PUT THE ACTIVE VEHICLE
000028:                                                                                                  #        ON A TRANSFER TRAJECTORY THAT INTERCEPTS THE PASSIVE VEHICLE
000029:                                                                                                  #        ORBIT A GIVEN DISTANCE, DELTA R, EITHER AHEAD OF OR BEHIND THE
000030:                                                                                                  #        PASSIVE VEHICLE AND (2) ACTUALLY PLACE THE ACTIVE VEHICLE IN THE
000031:                                                                                                  #        PASSIVE VEHICLE ORBIT WITH A DELTA R SEPARATION BETWEEN THE TWO
000032:                                                                                                  #        VEHICLES
000033:
000034:                                                                                                  #  CALLING SEQUENCE
000035:
000036:                                                                                                  #        ASTRONAUT REQUEST THRU DSKY
000037:
000038:                                                                                                  #        V37E38E         IF THIS VEHICLE IS ACTIVE VEHICLE
000039:                                                                                                  #        V37E78E         IF OTHER VEHICLE IS ACTIVE VEHICLE
000040:
000041:                                                                                                  #  INPUT
000042:
000043:                                                                                                  #        (1)     SOI MANEUVER
000044:
000045:                                                                                                  #                (A)  TIG        TIME OF SOI MANEUVER
000046:                                                                                                  #                (B)  CENTANG    ORBITAL CENTRAL ANGLE OF THE PASSIVE VEHICLE
000047:                                                                                                  #                                DURING TRANSFER FROM TIG TO TIME OF INTERCEPT
000048:                                                                                                  #                (C)  DELTAR     THE DESIRED SEPARATION OF THE TWO VEHICLES
000049:                                                                                                  #                                SPECIFIED AS A DISTANCE ALONG THE PASSIVE VEHICLE
000050:                                                                                                  #                                ORBIT
000051:                                                                                                  #                (D)  OPTION     EQUALS 1 FOR SOI
000052:
000053:                                                                                                  #        (2)     SOR MANEUVER
000054:
000055:                                                                                                  #                (A)  TIG        TIME OF SOR MANEUVER
000056:                                                                                                  #                (B)  CENTANG    AN OPTIONAL RESPECIFICATION OF 1 (B) ABOVE
000057:                                                                                                  #                (C)  OPTION     EQUALS 2 FOR SOR
000058:                                                                                                  #                (D)  DELTTIME   THE TIME REQUIRED TO TRAVERSE DELTA R WHEN
000059:                                                                                                  #                                TRAVELING AT A VELOCITY EQUAL TO THE HORIZONTAL
000060:                                                                                                  #                                VELOCITY OF THE PASSIVE VEHICLE - SAVED FROM
000061:                                                                                                  #                                SOI PHASE
000062:                                                                                                  #                (E)  TINT       TIME OF INTERCEPT (SOI) - SAVED FROM SOI PHASE
000063:
000064:                                                                                                  #  OUTPUT
000065:
000066:                                                                                                  #        (1)  TRKMKCNT   NUMBER OF MARKS
000067:                                                                                                  #        (2)  TTOGO      TIME TO GO
000068:                                                                                                  #        (3)  +MGA       MIDDLE GIMBAL ANGLE


000070:                                                                                                  #        (4)  DSPTEM1    TIME OF INTERCEPT OF PASSIVE VEHICLE ORBIT
000071:                                                                                                  #                        (FOR SOI ONLY)
000072:                                                                                                  #        (5)  POSTTPI    PERIGEE ALTITUDE OF ACTIVE VEHICLE ORBIT AFTER
000073:                                                                                                  #                        THE SOI (SOR) MANEUVER
000074:                                                                                                  #        (6)  DELVTPI    MAGNITUDE OF DELTA V AT SOI (SOR) TIME
000075:                                                                                                  #        (7)  DELVTPF    MAGNITUDE OF DELTA V AT INTERCEPT TIME
000076:                                                                                                  #        (8)  DELVLVC    DELTA VELOCITY AT SOI (AND SOR) - LOCAL VERTICAL
000077:                                                                                                  #                        COORDINATES
000078:
000079:                                                                                                  #  SUBROUTINES USED
000080:
000081:                                                                                                  #        AVFLAGA
000082:                                                                                                  #        AVFLAGP
000083:                                                                                                  #        VNDSPLY
000084:                                                                                                  #        BANKCALL
000085:                                                                                                  #        GOFLASHR
000086:                                                                                                  #        GOTOPOOH
000087:                                                                                                  #        BLANKET
000088:                                                                                                  #        ENDOFJOB
000089:                                                                                                  #        PREC/TT
000090:                                                                                                  #        SELECTMU
000091:                                                                                                  #        INTRPVP
000092:                                                                                                  #        MAINRTNE
000093:
000094: 04,3013                                           BANK     04
000095: 34,2000                                           SETLOC   STBLEORB
000096: 34,2000                                           BANK
000097:
000098: 34,3271  E7,1470                                  EBANK=   SUBEXIT
000099: 34,3271                                           COUNT*   $$/P3879
000100:
000101: 34,3271           04616        P38                TC       BANKCALL
000102: 34,3272           72347                           CADR     AVFLAGA                               #  THIS VEHICLE ACTIVE
000103: 34,3273           03276                           TC       +3
000104: 34,3274           04616        P78                TC       BANKCALL
000105: 34,3275           72354                           CADR     AVFLAGP                               #  OTHER VEHICLE ACTIVE
000106: 34,3276           04616                           TC       BANKCALL
000107: 34,3277           72361                           CADR     P20FLGON                              #  SET UPDATFLG, TRACKFLG
000108: 34,3300           33641                           CAF      DECTWO
000109: 34,3301           55466                           TS       NN
000110: 34,3302           33632                           CAF      V06N33SR                              #  DISPLAY TIG
000111: 34,3303           03621                           TC       VNDSPLY
000112: 34,3304           33633                           CAF      V06N55SR                              #  DISPLAY CENTANG
000113: 34,3305           04616                           TCR      BANKCALL
000114: 34,3306           20635                           CADR     GOFLASHR
000115: 34,3307           16001                           TCF      GOTOPOOH                              #  TERMINATE
000116: 34,3310           13315                           TCF      +5                                    #  PROCEED
000117: 34,3311           13304                           TCF      -5                                    #  RECYCLE
000118: 34,3312           36245                           CAF      THREE                                 #  IMMEDIATE RETURN - BLANK R1, R2
000119: 34,3313           05464                           TCR      BLANKET


000121: 34,3314           15155                           TCF      ENDOFJOB
000122: 34,3315           34756                           CAF      FIVE
000123: 34,3316           55144                           TS       OPTION1
000124: 34,3317           34753                           CAF      ONE
000125: 34,3320           55145                           TS       OPTION2                               #  OPTION CODE IS SET TO 1
000126: 34,3321           33634                           CAF      V04N06SR                              #  DISPLAY OPTION CODE - 1 = SOI, 2 = SOR
000127: 34,3322           04616                           TCR      BANKCALL
000128: 34,3323           20635                           CADR     GOFLASHR
000129: 34,3324           16001                           TCF      GOTOPOOH                              #  TERMINATE
000130: 34,3325           13332                           TCF      +5                                    #  PROCEED
000131: 34,3326           13321                           TCF      -5                                    #  RECYCLE
000132: 34,3327           34751                           CAF      BIT3                                  #  IMMEDIATE RETURN - BLANK R3
000133: 34,3330           05464                           TCR      BLANKET
000134: 34,3331           15155                           TCF      ENDOFJOB
000135: 34,3332           06037                           TC       INTPRET
000136: 34,3333           70535                           SLOAD    SR1
000137: 34,3334           01146                                    OPTION2
000138: 34,3335           71230                           BHIZ     DLOAD
000139: 34,3336           71344                                    OPTN1
000140: 34,3337           03631                                    TINT
000141: 34,3340           02303                           STORE    TINTSOI                               #  STORE FOR SOR PHASE
000142: 34,3341           77614                           CLRGO
000143: 34,3342           01230                                    OPTNSW                                #  OPTNSW; ON = SOI, OFF = SOR
000144: 34,3343           71375                                    JUNCTN1
000145: 34,3344           43014        OPTN1              SET      CLEAR                                 #  SOI
000146: 34,3345           01070                                    OPTNSW
000147: 34,3346           00670                                    UPDATFLG
000148: 34,3347           77624                           CALL
000149: 34,3350           71554                                    PREC/TT
000150: 34,3351           43015                           DAD      SET
000151: 34,3352           03442                                    TIG
000152: 34,3353           00470                                    UPDATFLG
000153: 34,3354           03631                           STORE    TINT                                  #  TI = TIG + TF
000154: 34,3355           77776                           EXIT
000155: 34,3356           33635                           CAF      V06N57SR                              #  DISPLAY DELTA R
000156: 34,3357           04616                           TCR      BANKCALL
000157: 34,3360           20635                           CADR     GOFLASHR
000158: 34,3361           16001                           TCF      GOTOPOOH                              #  TERMINATE
000159: 34,3362           13367                           TCF      +5                                    #  PROCEED
000160: 34,3363           13356                           TCF      -5                                    #  RECYCLE
000161: 34,3364           36242                           CAF      SIX                                   #  IMMEDIATE RETURN - BLANK R2, R3
000162: 34,3365           05464                           TCR      BLANKET
000163: 34,3366           15155                           TCF      ENDOFJOB
000164: 34,3367           00006                 +5        EXTEND
000165: 34,3370           31631                           DCA      TINT
000166: 34,3371           53046                           DXCH     DSPTEM1                               #  FOR DISPLAY
000167: 34,3372           33636                           CAF      V06N34SR                              #  DISPLAY TIME OF INTERCEPT
000168: 34,3373           03621                           TC       VNDSPLY
000169: 34,3374           06037                           TC       INTPRET
000170: 34,3375           45014        JUNCTN1            CLEAR    CALL


000172: 34,3376           04266                                    P39/79SW
000173: 34,3377           20000                                    SELECTMU                              #  SELECT MU, CLEAR FINALFLG, GO TO VN1645
000174: 34,3400           77624        RECYCLE            CALL
000175: 34,3401           71554                                    PREC/TT
000176: 34,3402           71214                           BOFF     DLOAD
000177: 34,3403           01350                                    OPTNSW
000178: 34,3404           71424                                    OPTN2
000179: 34,3405           03631                                    TINT
000180: 34,3406           34041                           STCALL   TDEC1                                 #  PRECISION UPDATE PASSIVE VEHICLE TO
000181: 34,3407           71605                                    INTRPVP                               #        INTERCEPT TIME
000182: 34,3410           53575                           VLOAD    UNIT
000183: 34,3411           00001                                    RATT                                  #  RP/(RP)
000184: 34,3412           47315                           PDVL     VXV
000185: 34,3413           00007                                    VATT
000186: 34,3414           60246                           ABVAL    NORM                                  #  (VP X RP/(RP))
000187: 34,3415           00047                                    X1
000188: 34,3416           56325                           PDDL     DDV
000189: 34,3417           02303                                    DELTAR
000190: 34,3420           77657                           SL*                                            #  DELTA R / (VP X RP/RP)
000191: 34,3421           20172                                    0          -7,1
000192: 34,3422           36305                           STCALL   DELTTIME                              #  DELTA T = (RP) DELTA R / (VP X RP)
000193: 34,3423           71430                                    JUNCTN2
000194: 34,3424           43345        OPTN2              DLOAD    DAD
000195: 34,3425           02303                                    TINTSOI
000196: 34,3426           00037                                    T
000197: 34,3427           03631                           STORE    TINT                                  #  TI = TI + TF
000198: 34,3430           45345        JUNCTN2            DLOAD    DSU
000199: 34,3431           03631                                    TINT
000200: 34,3432           02305                                    DELTTIME
000201: 34,3433           02307                           STORE    TARGTIME                              #  TT = TI - DELTA T
000202:
000203:                                                                                                  #  .... MAINRTNE ....
000204:
000205:                                                                                                  #  SUBROUTINES USED
000206:
000207:                                                                                                  #        S3435.25
000208:                                                                                                  #        PERIAPO1
000209:                                                                                                  #        SHIFTR1
000210:                                                                                                  #        VNDSPLY
000211:                                                                                                  #        BANKCALL
000212:                                                                                                  #        GOFLASH
000213:                                                                                                  #        GOTOPOOH
000214:                                                                                                  #        VN1645
000215:
000216: 34,3434           34041        MAINRTNE           STCALL   TDEC1                                 #  PRECISION UPDATE PASSIVE VEHICLE TO
000217: 34,3435           71605                                    INTRPVP                               #        TARGET TIME
000218: 34,3436           77745                           DLOAD
000219: 34,3437           03442                                    TIG
000220: 34,3440           03610                           STORE    INTIME
000221: 34,3441           77331                           SSP      VLOAD
000222: 34,3442           03471                                    SUBEXIT
000223: 34,3443           71447                                    TEST3979


000225: 34,3444           00001                                    RATT
000226: 34,3445           77624                           CALL
000227: 34,3446           73327                                    S3435.25
000228: 34,3447           43014        TEST3979           BOFF     BON
000229: 34,3450           04346                                    P39/79SW
000230: 34,3451           71460                                    MAINRTN1
000231: 34,3452           01311                                    FINALFLG
000232: 34,3453           71456                                    P39P79
000233: 34,3454           77614                           SET
000234: 34,3455           00470                                    UPDATFLG
000235: 34,3456           77776        P39P79             EXIT
000236: 34,3457           03505                           TC       DSPLY81                               #  FOR P39 AND P79
000237: 34,3460           51575        MAINRTN1           VLOAD    ABVAL
000238: 34,3461           02366                                    DELVEET3
000239: 34,3462           27576                           STOVL    DELVTPI                               #  DELTA V
000240: 34,3463           03506                                    VPASS4
000241: 34,3464           51451                           VSU      ABVAL
000242: 34,3465           03566                                    VTPRIME
000243: 34,3466           26350                           STOVL    DELVTPF                               #  DELTA V (FINAL) = V'T - VT
000244: 34,3467           03536                                    RACT3
000245: 34,3470           45115                           PDVL     CALL
000246: 34,3471           02337                                    VIPRIME
000247: 34,3472           46316                                    PERIAPO1                              #  GET PERIGEE ALTITUDE
000248: 34,3473           77624                           CALL
000249: 34,3474           46426                                    SHIFTR1
000250: 34,3475           03606                           STORE    POSTTPI
000251: 34,3476           43014                           BON      SET
000252: 34,3477           01311                                    FINALFLG
000253: 34,3500           71502                                    DSPLY58
000254: 34,3501           00470                                    UPDATFLG
000255: 34,3502           77776        DSPLY58            EXIT
000256: 34,3503           33637                           CAF      V06N58SR                              #  DISPLAY HP, DELTA V, DELTA V (FINAL)
000257: 34,3504           03621                           TC       VNDSPLY
000258: 34,3505           33640        DSPLY81            CAF      V06N81SR                              #  DISPLAY DELTA V (LV)
000259: 34,3506           03621                           TC       VNDSPLY
000260: 34,3507           06037                           TC       INTPRET
000261: 34,3510           77214                           CLEAR    VLOAD
000262: 34,3511           01267                                    XDELVFLG
000263: 34,3512           02366                                    DELVEET3
000264: 34,3513           37656                           STCALL   DELVSIN
000265: 34,3514           73606                                    VN1645                                #  DISPLAY TRKMKCNT, TTOGO, +MGA
000266: 34,3515           52014                           BON      GOTO
000267: 34,3516           04306                                    P39/79SW
000268: 34,3517           71541                                    P39/P79B
000269: 34,3520           71400                                    RECYCLE
000270:
000271:                                                                                                  #  STABLE ORBIT MIDCOURSE PROGRAM (P39 AND P79)
000272:
000273:                                                                                                  #  MOD NO -1             LOG SECTION - STABLE ORBIT - P38-P39
000274:                                                                                                  #  MOD BY RUDNICKI.S     DATE 25JAN68
000275:


000277:                                                                                                  #  FUNCTIONAL DESCRIPTION
000278:
000279:                                                                                                  #        P39 AND P79 CALCULATE THE REQUIRED DELTA V AND OTHER INITIAL
000280:                                                                                                  #        CONDITIONS REQUIRED BY THE AGC TO MAKE A MIDCOURSE CORRECTION
000281:                                                                                                  #        MANEUVER AFTER COMPLETING THE SOI MANEUVER BUT BEFORE MAKING
000282:                                                                                                  #        THE SOR MANEUVER
000283:
000284:                                                                                                  #  CALLING SEQUENCE
000285:
000286:                                                                                                  #        ASTRONAUT REQUEST THRU DSKY
000287:
000288:                                                                                                  #        V37E39E         IF THIS VEHICLE IS ACTIVE VEHICLE
000289:                                                                                                  #        V37E79E         IF OTHER VEHICLE IS ACTIVE VEHICLE
000290:
000291:                                                                                                  #  INPUT
000292:
000293:                                                                                                  #        (1)  TPASS4     TIME OF INTERCEPT - SAVED FROM P38/P78
000294:                                                                                                  #        (2)  TARGTIME   TIME THAT PASSIVE VEHICLE IS AT INTERCEPT POINT -
000295:                                                                                                  #                        SAVED FROM P38/P78
000296:
000297:                                                                                                  #  OUTPUT
000298:
000299:                                                                                                  #        (1)  TRKMKCNT   NUMBER OF MARKS
000300:                                                                                                  #        (2)  TTOGO      TIME TO GO
000301:                                                                                                  #        (3)  +MGA       MIDDLE GIMBAL ANGLE
000302:                                                                                                  #        (4)  DELVLVC    DELTA VELOCITY AT MID - LOCAL VERTICAL COORDINATES
000303:
000304:                                                                                                  #  SUBROUTINES USED
000305:
000306:                                                                                                  #        AVFLAGA
000307:                                                                                                  #        AVFLAGP
000308:                                                                                                  #        LOADTIME
000309:                                                                                                  #        SELECTMU
000310:                                                                                                  #        PRECSET
000311:                                                                                                  #        S34/35.1
000312:                                                                                                  #        MAINRTNE
000313:
000314: 34,3521           04616        P39                TC       BANKCALL
000315: 34,3522           72347                           CADR     AVFLAGA                               #  THIS VEHICLE ACTIVE
000316: 34,3523           00006                           EXTEND
000317: 34,3524           31401                           DCA      ATIGINC
000318: 34,3525           03532                           TC       P39/P79A
000319: 34,3526           04616        P79                TC       BANKCALL
000320: 34,3527           72354                           CADR     AVFLAGP                               #  OTHER VEHICLE ACTIVE
000321: 34,3530           00006                           EXTEND
000322: 34,3531           31403                           DCA      PTIGINC
000323: 34,3532           53576        P39/P79A           DXCH     KT                                    #  TIME TO PREPARE FOR BURN
000324: 34,3533           04616                           TC       BANKCALL
000325: 34,3534           72361                           CADR     P20FLGON                              #  SET UPDATFLG, TRACKFLG
000326: 34,3535           06037                           TC       INTPRET


000328: 34,3536           45014                           SET      CALL
000329: 34,3537           04066                                    P39/79SW
000330: 34,3540           20000                                    SELECTMU                              #  SELECT MU, CLEAR FINALFLG, GO TO VN1645
000331: 34,3541           43234        P39/P79B           RTB      DAD
000332: 34,3542           21573                                    LOADTIME
000333: 34,3543           03576                                    KT
000334: 34,3544           03442                           STORE    TIG                                   #  TIG = T (PRESENT) + PREPARATION TIME
000335: 34,3545           34041                           STCALL   TDEC1                                 #  PRECISION UPDATE ACTIVE AND PASSIVE
000336: 34,3546           46360                                    PRECSET                               #        VEHICLES TO TIG
000337: 34,3547           77624                           CALL
000338: 34,3550           73274                                    S34/35.1                              #  GET UNIT NORMAL
000339: 34,3551           52145                           DLOAD    GOTO
000340: 34,3552           02307                                    TARGTIME
000341: 34,3553           71434                                    MAINRTNE                              #  CALCULATE DELTA V AND DELTA V (LV)
000342:
000343:                                                                                                  #  .... PREC/TT ....
000344:
000345:                                                                                                  #  SUBROUTINES USED
000346:
000347:                                                                                                  #        PRECSET
000348:                                                                                                  #        TIMETHET
000349:                                                                                                  #        S34/35.1
000350:
000351: 34,3554           71220        PREC/TT            STQ      DLOAD
000352: 34,3555           03465                                    RTRN
000353: 34,3556           03442                                    TIG
000354: 34,3557           34041                           STCALL   TDEC1                                 #  PRECISION UPDATE ACTIVE AND PASSIVE
000355: 34,3560           46360                                    PRECSET                               #        VEHICLES TO TIG
000356: 34,3561           53775                           VLOAD    VSR*
000357: 34,3562           03552                                    RPASS3
000358: 34,3563           57176                                    0,2
000359: 34,3564           16655                           STODL    RVEC
000360: 34,3565           03621                                    CENTANG
000361: 34,3566           71406                           PUSH     COS
000362: 34,3567           16732                           STODL    CSTH
000363: 34,3570           43156                           SIN      SET
000364: 34,3571           03466                                    RVSW
000365: 34,3572           26730                           STOVL    SNTH
000366: 34,3573           03560                                    VPASS3
000367: 34,3574           77657                           VSR*
000368: 34,3575           57176                                    0,2
000369: 34,3576           36744                           STCALL   VVEC                                  #  GET TRANSFER TIME BASED ON CENTANG OF
000370: 34,3577           24732                                    TIMETHET                              #        PASSIVE VEHICLE
000371: 34,3600           77624                           CALL
000372: 34,3601           73274                                    S34/35.1                              #  GET UNIT NORMAL
000373: 34,3602           52145                           DLOAD    GOTO
000374: 34,3603           00037                                    T
000375: 34,3604           03465                                    RTRN
000376:
000377:                                                                                                  #  .... INTRPVP ....
000378:
000379:                                                                                                  #  SUBROUTINES USED
000380:
000381:                                                                                                  #        CSMPREC


000383:                                                                                                  #        LEMPREC
000384:
000385: 34,3605           43020        INTRPVP            STQ      BOFF                                  #  PRECISION UPDATE PASSIVE VEHICLE TO
000386: 34,3606           03465                                    RTRN                                  #        TDEC1
000387: 34,3607           01352                                    AVFLAG
000388: 34,3610           71615                                    OTHERV
000389: 34,3611           77624                           CALL
000390: 34,3612           27043                                    CSMPREC
000391: 34,3613           77650                           GOTO
000392: 34,3614           03465                                    RTRN
000393: 34,3615           77624        OTHERV             CALL
000394: 34,3616           27057                                    LEMPREC
000395: 34,3617           77650                           GOTO
000396: 34,3620           03465                                    RTRN
000397:
000398:                                                                                                  #  .... VNDSPLY ....
000399:
000400:                                                                                                  #  SUBROUTINES USED
000401:
000402:                                                                                                  #        BANKCALL
000403:                                                                                                  #        GOFLASH
000404:                                                                                                  #        GOTOPOOH
000405:
000406: 34,3621           00006        VNDSPLY            EXTEND                                         #  FLASH DISPLAY
000407: 34,3622           23465                           QXCH     RTRN
000408: 34,3623           55615                           TS       VERBNOUN
000409: 34,3624           31615                           CA       VERBNOUN
000410: 34,3625           04616                           TCR      BANKCALL
000411: 34,3626           20476                           CADR     GOFLASH
000412: 34,3627           16001                           TCF      GOTOPOOH                              #  TERMINATE
000413: 34,3630           01465                           TC       RTRN                                  #  PROCEED
000414: 34,3631           13624                           TCF      -5                                    #  RECYCLE
000415: 34,3632           01441        V06N33SR           VN       0633
000416: 34,3633           01467        V06N55SR           VN       0655
000417: 34,3634           01006        V04N06SR           VN       0406
000418: 34,3635           01471        V06N57SR           VN       0657
000419: 34,3636           01442        V06N34SR           VN       0634
000420: 34,3637           01472        V06N58SR           VN       0658
000421: 34,3640           01521        V06N81SR           VN       0681
000422: 34,3641           00002        DECTWO             OCT      2
000423:
000424:
000425:
000426:
000427:

End of include-file STABLE_ORBIT_-_P38-P39.agc.  Parent file is MAIN.agc


