
Source Code


000002:                                                                                                  ## Copyright:   Public domain.
000003:                                                                                                  ## Filename:    SYSTEM_TEST_STANDARD_LEAD_INS.agc
000004:                                                                                                  ## Purpose:     A section of Luminary revision 98.
000005:                                                                                                  ##              It is part of the reconstructed source code for the a
000006:                                                                                                  ##              development version of the flight software for the Lunar
000007:                                                                                                  ##              Module's (LM) Apollo Guidance Computer (AGC) for Apollo 11.
000008:                                                                                                  ##              The code has been recreated from a copy of Luminary 99
000009:                                                                                                  ##              revision 001, using asterisks indicating changed lines in
000010:                                                                                                  ##              the listing and Luminary Memo #85, which lists changes between
000011:                                                                                                  ##              Luminary 98 and 99.
000012:                                                                                                  ## Reference:   pp. 370-372
000013:                                                                                                  ## Assembler:   yaYUL
000014:                                                                                                  ## Contact:     Ron Burkey <info@sandroid.org>.
000015:                                                                                                  ## Website:     www.ibiblio.org/apollo/index.html
000016:                                                                                                  ## Mod history: 2019-07-28 MAS  Created from Luminary 99.
000017:


000019: 22,3242  E5,1642                                  EBANK=   XSM
000020:
000021: 33,2045                                           BANK     33
000022: 04,2000                                           SETLOC   E/PROG
000023: 04,2000                                           BANK
000024:
000025: 04,2576                                           COUNT*   $$/P07
000026:
000027:                                                                                                  #  SPECIAL PROGRAMS TO EASE THE PANGS OF ERASABLE MEMORY PROGRAMS.
000028:
000029:                                                                                                  #  E/BKCALL      FOR DOING BANKCALLS FROM AND RETURNING TO ERASABLE.
000030:
000031:                                                                                                  #  THIS ROUTINE IS CALLABLE FROM ERASABLE OR FIXED.  LIKE BANKCALL, HOWEVER, SWITCHING BETWEEN S3 AND S4
000032:                                                                                                  #  IS NOT POSSIBLE.
000033:
000034:                                                                                                  #  THE CALLING SEQUENCE IS:
000035:
000036:                                                                                                  #        TC      BANKCALL
000037:                                                                                                  #        CADR    E/BKCALL
000038:                                                                                                  #        CADR    ROUTINE         WHERE YOU WANT TO GO IN FIXED.
000039:                                                                                                  #        RETURN HERE FROM DISPLAY TERMINATE, BAD STALL OR TC Q.
000040:                                                                                                  #        RETURN HERE FROM DISPLAY PROCEED OR GOOD RETURN FROM STALL.
000041:                                                                                                  #        RETURN HERE FROM DISPLAY ENTER OR RECYCLE.
000042:
000043:                                                                                                  #  THIS ROUTINE REQUIRES TWO ERASABLES (EBUF2, +1) IN UNSWITCHED WHICH ARE UNSHARED BY INTERRUPTS AND
000044:                                                                                                  #  OTHER EMEMORY PROGRAMS.
000045:
000046:                                                                                                  #  A + L ARE PRESERVED THROUGH BANKCALL AND E/BKCALL.
000047:
000048: 04,2576           52134        E/BKCALL           DXCH     BUF2                                  #  SAVE A,L AND GET DP RETURN.
000049: 04,2577           53170                           DXCH     EBUF2                                 #  SAVE DP RETURN.
000050: 04,2600           25167                           INCR     EBUF2                                 #  RETURN +1 BECAUSE DOUBLE CADR.
000051: 04,2601           30006                           CA       BBANK
000052: 04,2602           75012                           MASK     LOW10                                 #  GET CURRENT EBANK.  (SBANK SOMEDAY)
000053: 04,2603           27170                           ADS      EBUF2      +1                         #  FORM BBCON.  (WAS FBANK)
000054: 04,2604           51167                           NDX      EBUF2
000055: 04,2605           27777                           CA       0          -1                         #  GET CADR OF ROUTINE.
000056: 04,2606           04622                           TC       SWCALL                                #  GO TO ROUTINE, SETTING Q TO SWRETURN
000057:                                                                                                  #  AND RESTORING A + L.
000058: 04,2607           02613                           TC       +4                                    #  TX Q, V34, OR BAD STALL RETURN.
000059: 04,2610           02612                           TC       +2                                    #  PROCEED OR GOOD STALL RETURN.
000060: 04,2611           25167                           INCR     EBUF2                                 #  ENTER OR RECYCLE RETURN.
000061: 04,2612           25167                           INCR     EBUF2
000062: 04,2613           53170        E/SWITCH           DXCH     EBUF2
000063: 04,2614           52006                           DTCB
000064:


000066:                                                                                                  #  E/CALL        FOR CALLING A FIXED MEMORY INTERPRETIVE SUBROUTINE FROM ERASABLE AND RETURNING TO ERASABLE.
000067:
000068:                                                                                                  #  THE CALLING SEQUENCE IS...
000069:
000070:                                                                                                  #        RTB
000071:                                                                                                  #                E/CALL
000072:                                                                                                  #        CADR    ROUTINE                 THE INTERPRETIVE SUBROUTINE YOU WANT.
000073:                                                                                                  #                                        RETURNS HERE IN INTERPRETIVE.
000074:
000075: 04,2615           22164        E/CALL             LXCH     LOC                                   #  ADRES -1 OF CADR.
000076: 04,2616           50001                           INDEX    L
000077: 04,2617           30001                           CA       L                                     #  CADR IN A.
000078: 04,2620           24001                           INCR     L
000079: 04,2621           24001                           INCR     L                                     #  RETURN ADRES IN L.
000080: 04,2622           53170                           DXCH     EBUF2                                 #  STORE CADR AND RETURN.
000081: 04,2623           06037                           TC       INTPRET
000082: 04,2624           77624                           CALL
000083: 04,2625           01167                                    EBUF2                                 #  INDIRECTLY EXECUTE ROUTINE.  IT MUST
000084: 04,2626           77776                           EXIT                                           #  LEAVE VIA RVQ OR EQUIVALENT.
000085: 04,2627           23170                           LXCH     EBUF2      +1                         #  PICK UP RETURN.
000086: 04,2630           16041                           TCF      INTPRET    +2                         #  SET LOC AND RETURN TO CALLER.
000087:


000089:                                                                                                  #  E/JOBWAK      FOR WAKING UP ERASABLE MEMORY JOBS.
000090:
000091:                                                                                                  #  THIS ROUTINE MUST BE CALLED IN INTERRUPT OR WITH INTERRUPTS INHIBITED.
000092:
000093:                                                                                                  #  THE CALLING SEQUENCE IS:
000094:
000095:                                                                                                  #        INHINT
000096:                                                                                                  #          .
000097:                                                                                                  #          .
000098:                                                                                                  #        CA      WAKEADR         ADDRESS OF SLEEPING JOB
000099:                                                                                                  #        TC      IBNKCALL
000100:                                                                                                  #        CADR    E/JOBWAK
000101:                                                                                                  #          .                     RETURNS HERE
000102:                                                                                                  #          .
000103:                                                                                                  #          .
000104:                                                                                                  #        RELINT                  IF YOU DID AN INHINT.
000105:
000106: 33,2045                                           BANK     33
000107: 04,2000                                           SETLOC   E/PROG
000108: 04,2000                                           BANK
000109:
000110: 04,2631                                           COUNT*   $$/P07
000111:
000112: 04,2631           05137        E/JOBWAK           TC       JOBWAKE                               #  ARRIVE IWTH ADRES IN A.
000113: 04,2632           44741                           CS       BIT11
000114: 04,2633           50064                           NDX      LOCCTR
000115: 04,2634           26164                           ADS      LOC                                   #  KNOCK FIXED MEMORY BIT OUT OF ADRES.
000116: 04,2635           00072                           TC       RUPTREG3                              #  RETURN
000117:

End of include-file SYSTEM_TEST_STANDARD_LEAD_INS.agc.  Parent file is MAIN.agc


