
Source Code


000002:                                                                                                  ## Copyright:   Public domain.
000003:                                                                                                  ## Filename:    T6-RUPT_PROGRAMS.agc
000004:                                                                                                  ## Purpose:     A section of Luminary revision 98.
000005:                                                                                                  ##              It is part of the reconstructed source code for the a
000006:                                                                                                  ##              development version of the flight software for the Lunar
000007:                                                                                                  ##              Module's (LM) Apollo Guidance Computer (AGC) for Apollo 11.
000008:                                                                                                  ##              The code has been recreated from a copy of Luminary 99
000009:                                                                                                  ##              revision 001, using asterisks indicating changed lines in
000010:                                                                                                  ##              the listing and Luminary Memo #85, which lists changes between
000011:                                                                                                  ##              Luminary 98 and 99.
000012:                                                                                                  ## Reference:   pp. 1403-1405
000013:                                                                                                  ## Assembler:   yaYUL
000014:                                                                                                  ## Contact:     Ron Burkey <info@sandroid.org>.
000015:                                                                                                  ## Website:     www.ibiblio.org/apollo/index.html
000016:                                                                                                  ## Mod history: 2019-07-28 MAS  Created from Luminary 99.
000017:


000019:                                                                                                  #  PROGRAM NAMES:        (1) T6JOBCHK    MOD. NO. 5      OCTOBER 2, 1967
000020:                                                                                                  #                        (2) DOT6RUPT
000021:                                                                                                  #  MODIFICATION BY:      LOWELL G HULL (A.C.ELECTRONICS)
000022:
000023:                                                                                                  #  THESE PROGRAMS ENABLE THE LM DAP TO CONTROL THE THRUST TIMES OF THE REACTION CONTROL SYSTEM JETS BY USING TIME6.
000024:                                                                                                  #  SINCE THE LM DAP MAINTAINS EXCLUSIVE CONTROL OVER TIME6 AND ITS INTERRUPTS, THE FOLLOWING CONVENTIONS HAVE BEEN
000025:                                                                                                  #  ESTABLISHED AND MUST NOT BE TAMPERED WITH:
000026:                                                                                                  #        1.      NO NUMBER IS EVER PLACED INTO TIME6 EXCEPT BY LM DAP.
000027:                                                                                                  #        2.      NO PROGRAM OTHER THAN LM DAP ENABLES THE TIME6 COUNTER.
000028:                                                                                                  #        3.      TO USE TIME6, THE FOLLOWING SEQUENCE IS ALWAYS EMPLOYED:
000029:                                                                                                  #                A.      A POSITIVE (NON-ZERO) NUMBER IS STORED IN TIME6.
000030:                                                                                                  #                B.      THE TIME6 CLOCK IS ENABLED.
000031:                                                                                                  #                C.      TIME6 IS INTERROGATED AND IS:
000032:                                                                                                  #                        I.      NEVER FOUND NEGATIVE (NON-ZERO) OR +0.
000033:                                                                                                  #                        II.     SOMETIMES FOUND POSITIVE (BETWEEN 1 AND 240D) INDICATING THAT IT IS ACTIVE.
000034:                                                                                                  #                        III.    SOMETIMES FOUND POSMAX INDICATING THAT IT IS INACTIVE AND NOT ENABLED.
000035:                                                                                                  #                        IV.     SOMETIMES FOUND NEGATIVE ZERO INDICATING THAT:
000036:                                                                                                  #                                A.      A T6RUPT IS ABOUT TO OCCUR AT THE NEXT DINC, OR
000037:                                                                                                  #                                B.      A T6RUPT IS WAITING IN THE PRIORITY CHAIN, OR
000038:                                                                                                  #                                C.      A T6RUPT IS IN PROCESS NOW.
000039:                                                                                                  #        4)      ALL PROGRAMS WHICH OPERATE IN EITHER INTERRUPT MODE OR WITH INTERRUPT INHIBITED MUST CALL T6JOBCHK
000040:                                                                                                  #                EVERY 5 MILLISECONDS TO PROCESS A POSSIBLE WAITING T6RUPT BEFORE IT CAN BE HONORED BY THE HARDWARE.
000041:                                                                                                  #       (5.      PROGRAM JTLST, IN Q,R-AXES, HANDLES THE INPUT LIST.)
000042:
000043:                                                                                                  #  T6JOBCHK CALLING SEQUENCE:
000044:                                                                                                  #                L       TC      T6JOBCHK
000045:                                                                                                  #                L+1     (RETURN)
000046:
000047:                                                                                                  #  DOT6RUPT CALLING SEQUENCE:
000048:                                                                                                  #                        DXCH    ARUPT           T6RUPT LEAD IN AT LOCATION 4004.
000049:                                                                                                  #                        EXTEND
000050:                                                                                                  #                        DCA     T6ADR
000051:                                                                                                  #                        DTCB
000052:
000053:                                                                                                  #  SUBROUTINES CALLED:   DOT6RUPT CALLS T6JOBCHK.
000054:
000055:                                                                                                  #  NORMAL EXIT MODES:    T6JOBCHK RETURNS TO L +1.
000056:                                                                                                  #                        DOT6RUPT TRANSFERS CONTROL TO RESUME.
000057:
000058:                                                                                                  #  ALARM/ABORT MODES:    NONE.
000059:
000060:                                                                                                  #  INPUT:        TIME6           NXT6ADR         OUTPUT:         TIME6           NXT6ADR         CHANNEL 5
000061:                                                                                                  #                T6NEXT          T6NEXT +1                       T6NEXT          T6NEXT +1       CHANNEL 6
000062:                                                                                                  #                T6FURTHA        T6FURTHA +1                     T6FURTHA        T6FURTHA +1     BIT15/CH13
000063:
000064:                                                                                                  #  DEBRIS:       T6JOBCHK CLOBBERS A.  DOT6RUPT CLOBBERS NOTHING.
000065:
000066:    5753                                           BLOCK    02


000068: 17,2027                                           BANK     17
000069: 17,2000                                           SETLOC   DAPS2
000070: 17,2000                                           BANK
000071: 17,2027  E6,1466                                  EBANK=   T6NEXT
000072: 17,2027                                           COUNT*   $$/DAPT6
000073:
000074: 17,2027           10031        T6JOBCHK           CCS      TIME6                                 #  CHECK TIME6 FOR WAITING T6RUPT:
000075: 17,2030           00002                           TC       Q                                     #  NONE: CLOCK COUTING DOWN.
000076: 17,2031           05705                           TC       CCSHOLE
000077: 17,2032           02032                           TC       T6JOBCHK   +3
000078:
000079:                                                                                                  #  CONTROL PASSES TO T6JOB ONLY WHEN C(TIME6) = -0 (I.E. WHEN A T6RUPT MUST BE PROCESSED).
000080:
000081: 17,2033           34733        T6JOB              CAF      POSMAX                                #  DISABLE CLOCK: NEEDED SINCE RUPT OCCURS
000082: 17,2034           00006                           EXTEND                                         #  1 DINC AFTER T6 = 77777. FOR 625 MUSECS
000083: 17,2035           03013                           WAND     CHAN13                                #  MUST NOT HAVE T6 = +0 WITH ENABLE SET
000084:
000085: 17,2036           34733                           CA       POSMAX
000086: 17,2037           22007                           ZL
000087: 17,2040           53471                           DXCH     T6FURTHA
000088: 17,2041           53467                           DXCH     T6NEXT
000089: 17,2042           23465                           LXCH     NXT6ADR
000090: 17,2043           54031                           TS       TIME6
000091:
000092: 17,2044           67725                           AD       PRIO37
000093: 17,2045           54000                           TS       A
000094: 17,2046           12052                           TCF      ENABLET6
000095: 17,2047           34733                           CA       POSMAX
000096: 17,2050           54031                           TS       TIME6
000097: 17,2051           12063                           TCF      GOCH56
000098: 17,2052           34735        ENABLET6           CA       BIT15
000099: 17,2053           00006                           EXTEND
000100: 17,2054           05013                           WOR      CHAN13
000101: 17,2055           31466                           CA       T6NEXT
000102: 17,2056           67725                           AD       PRIO37
000103: 17,2057           54000                           TS       A
000104: 17,2060           12063                           TCF      GOCH56
000105: 17,2061           34733                           CA       POSMAX
000106: 17,2062           55466                           TS       T6NEXT
000107: 17,2063           50001        GOCH56             INDEX    L
000108: 17,2064           15753                           TCF      WRITEP     -1
000109:
000110:    5753                                           BLOCK    02
000111:    4000                                           SETLOC   FFTAG9
000112:    4000                                           BANK
000113:    5753  E6,1635                                  EBANK=   CDUXD
000114:    5753                                           COUNT*   $$/DAPT6
000115:
000116:    5753           31472                           CA       NEXTP
000117:    5754           00006        WRITEP             EXTEND
000118:    5755           01006                           WRITE    CHAN6


000120:    5756           00002                           TC       Q
000121:
000122:    5757           31473                           CA       NEXTU
000123:    5760           54001        WRITEU             TS       L
000124:    5761           45774                           CS       00314OCT
000125:    5762           00006                           EXTEND
000126:    5763           02005                           RAND     CHAN5
000127:    5764           60001                           AD       L
000128:    5765           00006                           EXTEND
000129:    5766           01005                           WRITE    CHAN5
000130:    5767           00002                           TC       Q
000131:
000132:    5770           31474                           CA       NEXTV
000133:    5771           54001        WRITEV             TS       L
000134:    5772           35774                           CA       00314OCT
000135:    5773           15762                           TCF      -9D
000136:    5774           00314        00314OCT           OCT      00314
000137:
000138: 17,2065                                           BANK     17
000139: 17,2000                                           SETLOC   DAPS2
000140: 17,2000                                           BANK
000141:
000142: 17,2065  E6,1466                                  EBANK=   T6NEXT
000143: 17,2065                                           COUNT*   $$/DAPT6
000144:
000145: 17,2065           22016        DOT6RUPT           LXCH     BANKRUPT                              #  (INTERRUPT LEAD INS CONTINUED)
000146: 17,2066           00006                           EXTEND
000147: 17,2067           22012                           QXCH     QRUPT
000148:
000149: 17,2070           02027                           TC       T6JOBCHK                              #  CALL T6JOBCHK.
000150:
000151: 17,2071           15270                           TCF      RESUME                                #  END TIME6 INTERRUPT PROCESSOR.
000152:

End of include-file T6-RUPT_PROGRAMS.agc.  Parent file is MAIN.agc


