
Source Code


000002:                                                                                                  ## Copyright:    Public domain.
000003:                                                                                                  ## Filename:     AGC_BLOCK_TWO_SELF-CHECK.agc
000004:                                                                                                  ## Purpose:      Part of the source code for Aurora (revision 12).
000005:                                                                                                  ## Assembler:    yaYUL
000006:                                                                                                  ## Contact:      Ron Burkey <info@sandroid.org>.
000007:                                                                                                  ## Website:      https://www.ibiblio.org/apollo.
000008:                                                                                                  ## Pages:        377-403
000009:                                                                                                  ## Mod history:  2016-09-20 JL   Created.
000010:                                                                                                  ## Mod history:  2016-09-22 MAS  Began.
000011:                                                                                                  ##               2016-10-16 HG   Fix operand 5BIT14 -> SBIT14
000012:                                                                                                  ##                                           DISPLAY -> SDISPLAY
000013:                                                                                                  ##              2016-10-20 RSB  Had to add an EBANK= to make some
000014:                                                                                                  ##                              2CADR's come out right.
000015:                                                                                                  ##              2016-10-21 RSB  Removed yesterday's EBANK=, due to
000016:                                                                                                  ##                              yaYUL fixes HG gave me.
000017:                                                                                                  ##              2016-12-08 RSB  Proofed comments with octopus/ProoferComments
000018:                                                                                                  ##                              and fixed the errors found.
000019:
000020:                                                                                                  ## This source code has been transcribed or otherwise adapted from
000021:                                                                                                  ## digitized images of a hardcopy from the private collection of
000022:                                                                                                  ## Don Eyles.  The digitization was performed by archive.org.
000023:
000024:                                                                                                  ## Notations on the hardcopy document read, in part:
000025:
000026:                                                                                                  ##       473423A YUL SYSTEM FOR BLK2: REVISION 12 of PROGRAM AURORA BY DAP GROUP
000027:                                                                                                  ##       NOV 10, 1966
000028:
000029:                                                                                                  ##       [Note that this is the date the hardcopy was made, not the
000030:                                                                                                  ##       date of the program revision or the assembly.]
000031:
000032:                                                                                                  ## The scan images (with suitable reduction in storage size and consequent
000033:                                                                                                  ## reduction in image quality) are available online at
000034:                                                                                                  ##       https://www.ibiblio.org/apollo.
000035:                                                                                                  ## The original high-quality digital images are available at archive.org:
000036:                                                                                                  ##       https://archive.org/details/aurora00dapg
000037:


000039: 20,2000                                           BANK     20
000040:
000041: 20,2000     7657               SBIT1              EQUALS   BIT1
000042: 20,2000     7656               SBIT2              EQUALS   BIT2
000043: 20,2000     7655               SBIT3              EQUALS   BIT3
000044: 20,2000     7654               SBIT4              EQUALS   BIT4
000045: 20,2000     7653               SBIT5              EQUALS   BIT5
000046: 20,2000     7652               SBIT6              EQUALS   BIT6
000047: 20,2000     7651               SBIT7              EQUALS   BIT7
000048: 20,2000     7650               SBIT8              EQUALS   BIT8
000049: 20,2000     7647               SBIT9              EQUALS   BIT9
000050: 20,2000     7646               SBIT10             EQUALS   BIT10
000051: 20,2000     7645               SBIT11             EQUALS   BIT11
000052: 20,2000     7644               SBIT12             EQUALS   BIT12
000053: 20,2000     7643               SBIT13             EQUALS   BIT13
000054: 20,2000     7642               SBIT14             EQUALS   BIT14
000055: 20,2000     7641               SBIT15             EQUALS   BIT15
000056:
000057: 20,2000     7665               S+ZERO             EQUALS   ZERO
000058: 20,2000     7657               S+1                EQUALS   BIT1
000059: 20,2000     7656               S+2                EQUALS   BIT2
000060: 20,2000     6165               S+3                EQUALS   THREE
000061: 20,2000     7655               S+4                EQUALS   FOUR
000062: 20,2000     7664               S+5                EQUALS   FIVE
000063: 20,2000     6162               S+6                EQUALS   SIX
000064: 20,2000     7663               S+7                EQUALS   SEVEN
000065: 20,2000     5235               S8BITS             EQUALS   LOW8                                  #  00377
000066: 20,2000           00051        CNTRCON            OCTAL    00051                                 #  USED IN CNTRCHK
000067: 20,2001           00062        ERASCON1           OCTAL    00062                                 #  USED IN ERASCHK
000068: 20,2002           01374        ERASCON2           OCTAL    01374                                 #  USED IN ERASCHK
000069: 20,2003           01400        ERASCON6           OCTAL    01400                                 #  USED IN ERASCHK
000070: 20,2004           01462        ERASCON3           OCTAL    01462                                 #  USED IN ERASCHK
000071: 20,2005           01774        ERASCON4           OCTAL    01774                                 #  USED IN ERASCHK
000072: 20,2006     6426               S10BITS            EQUALS   LOW10                                 #  01777, USED IN ERASCHK
000073: 20,2006     4506               SBNK03             EQUALS   PRIO6                                 #  06000, USED IN ROPECHK
000074: 20,2006           17777        S13BITS            OCTAL    17777
000075: 20,2007           25252        CONC+S1            OCTAL    25252                                 #  USED IN CYCLSHFT
000076: 20,2010           37737        OVCON              OCTAL    37737                                 #  USED IN RUPTCHK
000077: 20,2011           37776        DVCON              OCTAL    37776
000078: 20,2012           52400        CONC+S2            OCTAL    52400                                 #  USED IN CYCLSHFT
000079: 20,2013           76777        ERASCON5           OCTAL    76777
000080: 20,2014           77770        S-7                OCTAL    77770
000081: 20,2015     6045               S-4                EQUALS   NEG4
000082: 20,2015     7671               S-3                EQUALS   NEG3
000083: 20,2015     7670               S-2                EQUALS   NEG2
000084: 20,2015     7667               S-1                EQUALS   NEGONE
000085: 20,2015     7666               S-ZERO             EQUALS   NEG0
000086:
000087: 20,2015  E3,1400                                  EBANK=   3
000088: 20,2015           01371        ADRS1              ADRES    SKEEP1
000089:


000091: 20,2016           00021        SRADRS             ADRES    SR
000092: 20,2017           02101        SELFADRS           ADRES    SELFCHK                               #  SELFCHK RETURN ADDRESS.  SHOULD BE PUT
000093:                                                                                                  #  IN SELFRET WHEN GOING FROM SELFCHK TO
000094:                                                                                                  #  SHOWSUM AND PUT IN SKEEP1 WHEN GOING
000095:                                                                                                  #  FROM SHOWSUM TO SELF-CHECK.
000096:
000097: 20,2020           30002        ERRORS             CA       Q
000098: 20,2021           55364                           TS       SFAIL                                 #  SAVE Q FOR FAILURE LOCATION
000099: 20,2022           25365                           INCR     ERCOUNT                               #  KEEP TRACK OF NUMBER OF MALFUNCTIONS.
000100: 20,2023           05413                           TC       ALARM
000101: 20,2024           01102                           OCT      01102                                 #  SELF-CHECK MALFUNCTION INDICATOR
000102: 20,2025           11361                           CCS      SMODE
000103: 20,2026           37665                           CA       S+ZERO
000104: 20,2027           55361                           TS       SMODE
000105: 20,2030           02101                           TC       SELFCHK                               #  GO TO IDLE LOOP
000106: 20,2031           01364                           TC       SFAIL                                 #  CONTINUE WITH SELF-CHECK
000107:
000108: 20,2032           40000        +0CHK              CS       A
000109: 20,2033           10000        -0CHK              CCS      A
000110: 20,2034           12020                           TCF      ERRORS
000111: 20,2035           12020                           TCF      ERRORS
000112: 20,2036           12020                           TCF      ERRORS
000113: 20,2037           00002                           TC       Q
000114:
000115: 20,2040           40000        +1CHK              CS       A
000116: 20,2041           10000        -1CHK              CCS      A
000117: 20,2042           12020                           TCF      ERRORS
000118: 20,2043           12020                           TCF      ERRORS
000119: 20,2044           10000                           CCS      A
000120: 20,2045           12020                           TCF      ERRORS
000121: 20,2046           00002                           TC       Q
000122:
000123: 20,2047           00006        SMODECHK           EXTEND
000124: 20,2050           23371                           QXCH     SKEEP1
000125: 20,2051           04457                           TC       CHECKNJ                               #  CHECK FOR NEW JOB
000126: 20,2052           11361                           CCS      SMODE
000127: 20,2053           02060                           TC       SOPTIONS
000128: 20,2054           02051                           TC       SMODECHK   +2                         #  TO BACKUP IDLE LOOP
000129: 20,2055           02060                           TC       SOPTIONS
000130: 20,2056           25366                           INCR     SCOUNT
000131: 20,2057           01371                           TC       SKEEP1                                #  CONTINUE WITH SELF-CHECK
000132:
000133: 20,2060           62014        SOPTIONS           AD       S-7
000134: 20,2061           00006                           EXTEND
000135: 20,2062           62065                           BZMF     +3                                    #  FOR OPTIONS BELOW NINE.
000136: 20,2063           04102        BNKOPTN            TC       POSTJUMP                              #  GO TO ANOTHER BANK FOR OPTIONS ABOVE 8.
000137: 20,2064           03000                           CADR     SBNKOPTN
000138: 20,2065           25366                           INCR     SCOUNT                                #  FOR OPTIONS BELOW NINE.
000139: 20,2066           67663                           AD       S+7


000141: 20,2067           50000                           INDEX    A
000142: 20,2070           02071                           TC       SOPTION1
000143: 20,2071           02102        SOPTION1           TC       TC+TCF
000144: 20,2072           02767        SOPTION2           TC       IN-OUT1
000145: 20,2073           03043        SOPTION3           TC       COUNTCHK
000146: 20,2074           03137        SOPTION4           TC       ERASCHK
000147: 20,2075           03307        SOPTION5           TC       ROPECHK
000148: 20,2076           03516        SOPTION6           TC       MPNMBRS
000149: 20,2077           03605        SOPTION7           TC       DVCHECK
000150: 20,2100           01371        SOPTON10           TC       SKEEP1                                #  CONTINUE WITH SELF-CHECK
000151:
000152: 20,2101           02047        SELFCHK            TC       SMODECHK                              #  ** CHARLEY, COME IN HERE
000153:
000154:                                                                                                  #  TC+TCF CHECKS ALL OF THE PULSES OF TCF AND ALL OF THE PULSES OF TC
000155:                                                                                                  #  EXCEPT ABILITY TO TC TO ERASABLE.
000156:                                                                                                  #  ALSO FIRST TIME CS FIXED MEMORY IS USED
000157: 20,2102           02104        TC+TCF             TC       +2
000158: 20,2103           02111                           TC       CCSCHK
000159: 20,2104           12106                           TCF      +2                                    #  $ TCF FIXED MEMORY
000160: 20,2105           02020                           TC       ERRORS
000161: 20,2106           46165                           CS       S+3                                   #  $ CS FIXED MEMORY
000162: 20,2107           00002                           TC       Q                                     #  $
000163: 20,2110           02020                           TC       ERRORS
000164:
000165:                                                                                                  #  CCSCHK CHECKS ALL OF CCS EXCEPT RB WG.
000166:                                                                                                  #  ALSO CHECKS TS ERASABLE, CS SC, AND CS ERASABLE MEMORY.
000167: 20,2111           10000        CCSCHK             CCS      A                                     #  $ CCS SC, C(A) = -3
000168: 20,2112           02020                           TC       ERRORS
000169: 20,2113           02020                           TC       ERRORS
000170: 20,2114           02116                           TC       +2
000171: 20,2115           02020                           TC       ERRORS
000172: 20,2116           10000                           CCS      A                                     #  $ C(A) = +2, RESULT OF CCS -NUMBER
000173: 20,2117           02123                           TC       +4
000174: 20,2120           02020                           TC       ERRORS
000175: 20,2121           02020                           TC       ERRORS
000176: 20,2122           02020                           TC       ERRORS
000177: 20,2123           55371                           TS       SKEEP1                                #  $ TS ERASABLE
000178: 20,2124           11371                           CCS      SKEEP1                                #  $ CCS ERASABLE, C(A) = +1, RESULT OF
000179: 20,2125           02131                           TC       +4                                    #  CCS +NUMBER
000180: 20,2126           02020                           TC       ERRORS
000181: 20,2127           02020                           TC       ERRORS
000182: 20,2130           02020                           TC       ERRORS
000183: 20,2131           10000                           CCS      A                                     #  $ C(A) = +0, RESULT OF CCS +1, CHECKS CI
000184: 20,2132           02020                           TC       ERRORS
000185: 20,2133           02136                           TC       +3
000186: 20,2134           02020                           TC       ERRORS
000187: 20,2135           02020                           TC       ERRORS
000188: 20,2136           40000                           CS       A                                     #  $ CS SC
000189: 20,2137           10000                           CCS      A                                     #  $ C(A) = -0, RESULT OF CCS +0
000190: 20,2140           02020                           TC       ERRORS


000192: 20,2141           02020                           TC       ERRORS
000193: 20,2142           02020                           TC       ERRORS
000194: 20,2143           10000                           CCS      A                                     #  $ RESULT OF CCS -0
000195: 20,2144           02020                           TC       ERRORS
000196: 20,2145           02150                           TC       +3
000197: 20,2146           02020                           TC       ERRORS
000198: 20,2147           02020                           TC       ERRORS
000199: 20,2150           41371                           CS       SKEEP1                                #  $ CS ERASABLE. ALSO CHECKS BACK INTO
000200: 20,2151           02041                           TC       -1CHK                                 #  ERASABLE SEQUENCE.
000201:
000202:                                                                                                  #  BZMFCHK CHECKS ALL PULSES OF BZMF.
000203:                                                                                                  #  ALSO CHECKS CA FIXED MEMORY.
000204: 20,2152           37647        BZMFCHK            CAF      SBIT9                                 #  $ CA FIXED MEMORY
000205: 20,2153           00006                           EXTEND
000206: 20,2154           62175                           BZMF     ERRBZMF
000207: 20,2155           40000                           CS       A
000208: 20,2156           00006                           EXTEND
000209: 20,2157           62161                           BZMF     +2                                    #  $
000210: 20,2160           02020                           TC       ERRORS
000211: 20,2161           33431                           CA       S+MAX
000212: 20,2162           67657                           AD       S+1
000213: 20,2163           00006                           EXTEND
000214: 20,2164           62176                           BZMF     ERRBZMF2                              #  $ + OVERFLOW, CHECK 01-0000
000215: 20,2165           37665                           CA       S+ZERO
000216: 20,2166           00006                           EXTEND
000217: 20,2167           62171                           BZMF     +2                                    #  $
000218: 20,2170           02020                           TC       ERRORS
000219: 20,2171           40000                           CS       A
000220: 20,2172           00006                           EXTEND
000221: 20,2173           62177                           BZMF     +4                                    #  $
000222: 20,2174           02020                           TC       ERRORS
000223: 20,2175           02020        ERRBZMF            TC       ERRORS                                #  FROM BZMF WITH +NON-ZERO
000224: 20,2176           02020        ERRBZMF2           TC       ERRORS                                #  OVERFLOW WITH +0
000225:
000226:                                                                                                  #  RESTORE1 AND 2 CHECKS INSTRUCTIONS (WITH STAR) ABILITY TO READ BACK INTO
000227:                                                                                                  #  ERASABLE MEMORY. NOT NORMALLY INTERESTED IN CONTENTS OF A REGISTER.
000228:                                                                                                  #  FIRST TIME MANY INSTRUCTIONS ARE USED.
000229:                                                                                                  #  RESTORE1 ALSO CHECKS INDEX (WITHOUT EXTRACODE) ERASABLE, CA ERASABLE,
000230:                                                                                                  #  AND MASK ERASABLE.
000231: 20,2177           32016        RESTORE1           CAF      SRADRS                                #  ADDRESS OF SR
000232: 20,2200           55377                           TS       SKEEP7
000233: 20,2201           35235                           CA       S8BITS                                #  00377
000234: 20,2202           51377                           NDX      SKEEP7                                #  $ INDEX ERASABLE                       *
000235: 20,2203           54000                           TS       0000                                  #  TS SR, C(SR) = 00177
000236: 20,2204           10021                           CCS      SR                                    #  C(SR) = 00077                          *
000237: 20,2205           51377                           NDX      SKEEP7                                #  CHECKS C(SKEEP7) CORRECT
000238: 20,2206           40000                           CS       0000                                  #  C(SR) = 00037
000239: 20,2207           60021                           AD       SR                                    #  C(SR) = 00017                          *
000240: 20,2210           00006                           EXTEND
000241: 20,2211           20021                           MSU      SR                                    #  C(SR) = 00007                          *


000243: 20,2212           00006                           EXTEND
000244: 20,2213           60021                           SU       SR                                    #  C(SR) = 00003                          *
000245: 20,2214           30021                           CA       SR                                    #  $ C(SR) = +1, C(A) = +3, CA ERASABLE   *
000246: 20,2215           70021                           MASK     SR                                    #  $ B(SR) = C(SR) = +1, MASK ERASABLE    *
000247: 20,2216           02040                           TC       +1CHK
000248: 20,2217           00006                           EXTEND
000249: 20,2220           70021                           MP       SR
000250: 20,2221           00006                           EXTEND
000251: 20,2222           10021                           DV       SR
000252: 20,2223           30021                           CA       SR                                    #  $ CA ERASABLE
000253: 20,2224           02040                           TC       +1CHK                                 #  MAKES SURE MASK, MP, AND DV DO NOT EDIT.
000254:
000255:                                                                                                  #  RESTORE2 ALSO CHECKS XCH ERASABLE,INDEX (WITH EXTRACODE) ERASABLE AND
000256:                                                                                                  #  FIXED MEMORY, DCS ERASABLE, CA SC, AND DCA ERASABLE.
000257: 20,2225           32015        RESTORE2           CAF      ADRS1                                 #  ADDRESS OF SKEEP1
000258: 20,2226           55376                           TS       SKEEP6
000259: 20,2227           37667                           CA       S-1
000260: 20,2230           55371                           TS       SKEEP1                                #  -1
000261: 20,2231           40000                           CS       A
000262: 20,2232           57371                           XCH      SKEEP1                                #  $ XCH ERASABLE, C(SKEEP1) = +1
000263: 20,2233           57372                           XCH      SKEEP2                                #  $ XCH ERASABLE, C(SKEEP2) = -1
000264: 20,2234           00006                           EXTEND
000265: 20,2235           51376                           NDX      SKEEP6                                #  $ NDX ERASABLE                         *
000266: 20,2236           30001                           DCA      0000                                  #  DCA ERASABLE                           *
000267: 20,2237           00006                           EXTEND
000268: 20,2240           52015                           NDX      ADRS1                                 #  $ NDX FIXED MEMORY                     *
000269: 20,2241           40001                           DCS      0000                                  #  $ DCS ERASABLE MEMORY                  *
000270: 20,2242           02041                           TC       -1CHK                                 #  MAKES SURE DCS ERASABLE OK
000271: 20,2243           30001                           CA       L                                     #  $ CA SC
000272: 20,2244           02040                           TC       +1CHK
000273: 20,2245           00006                           EXTEND
000274: 20,2246           51376                           NDX      SKEEP6                                #  MAKE SURE C(SKEEP6) IS STILL CORRECT
000275: 20,2247           30001                           DCA      0000                                  #  $ DCA ERASABLE
000276: 20,2250           02040                           TC       +1CHK
000277: 20,2251           30001                           CA       L
000278: 20,2252           02041                           TC       -1CHK
000279:
000280:                                                                                                  #  RESTORE3 CHECKS ABILITY TO RESTORE INSTRUCTIONS BACK INTO ERASABLE
000281:                                                                                                  #  MEMORY. IT IS ONLY NECESSARY TO RESTORE ONE INSTRUCTION BECAUSE THE
000282:                                                                                                  #  G REGISTER DOES NOT CHANGE.
000283:                                                                                                  #  ALSO CHECKS TC TO ERASABLE MEMORY.
000284: 20,2253           37641        RESTORE3           CA       SBIT15                                #  CS
000285: 20,2254           55371                           TS       SKEEP1                                #  40000
000286: 20,2255           37656                           CA       S+2                                   #  TC Q
000287: 20,2256           55372                           TS       SKEEP2
000288: 20,2257           37657                           CA       S+1                                   #  +1
000289: 20,2260           01371                           TC       SKEEP1                                #  $ TC ERASABLE
000290: 20,2261           02041                           TC       -1CHK                                 #  FIRST TIME BACK FROM ERASABLE.
000291: 20,2262           01371                           TC       SKEEP1
000292: 20,2263           02033                           TC       -0CHK                                 #  SECOND TIME BACK FROM ERASABLE.
000293:


000295:                                                                                                  #  BZFCHK CHECKS ALL PULSES OF BZF.
000296: 20,2264           37664        BZFCHK             CAF      S+5
000297: 20,2265           00006                           EXTEND
000298: 20,2266           12311                           BZF      ERRBZF1                               #  $
000299: 20,2267           40000                           CS       A
000300: 20,2270           00006                           EXTEND
000301: 20,2271           12312                           BZF      ERRBZF2                               #  $
000302: 20,2272           33431                           CA       S+MAX
000303: 20,2273           67657                           AD       S+1                                   #  01-00000
000304: 20,2274           00006                           EXTEND
000305: 20,2275           12313                           BZF      ERRBZF3                               #  $
000306: 20,2276           40000                           CS       A
000307: 20,2277           00006                           EXTEND
000308: 20,2300           12314                           BZF      ERRBZF4                               #  $
000309: 20,2301           37665                           CAF      S+ZERO
000310: 20,2302           00006                           EXTEND
000311: 20,2303           12305                           BZF      +2                                    #  $
000312: 20,2304           02020                           TC       ERRORS
000313: 20,2305           40000                           CS       A
000314: 20,2306           00006                           EXTEND
000315: 20,2307           12315                           BZF      +6                                    #  $
000316: 20,2310           02020                           TC       ERRORS
000317: 20,2311           02020        ERRBZF1            TC       ERRORS                                #  +NON-ZERO
000318: 20,2312           02020        ERRBZF2            TC       ERRORS                                #  -NON-ZERO
000319: 20,2313           02020        ERRBZF3            TC       ERRORS                                #  01-00000
000320: 20,2314           02020        ERRBZF4            TC       ERRORS                                #  10-37777
000321:
000322:                                                                                                  #  DXCH+DIM CHECKS ALL PULSES OF DXCH AND DIM.
000323:                                                                                                  #  ALSO CHECKS TS WITH OVERFLOW, TS SC, CA SC, AND AD ERASABLE.
000324: 20,2315           33431        DXCH+DIM           CA       S+MAX
000325: 20,2316           67656                           AD       S+2                                   #  OVERFLOW WITH +1
000326: 20,2317           55371                           TS       SKEEP1                                #  $ TS WITH OVERFLOW, +1
000327: 20,2320           02020                           TC       ERRORS
000328: 20,2321           40000                           CS       A
000329: 20,2322           55372                           TS       SKEEP2
000330: 20,2323           43431                           CS       S+MAX
000331: 20,2324           54001                           TS       L                                     #  $ TS SC, 40000
000332: 20,2325           40000                           CS       A                                     #  37777
000333: 20,2326           53372                           DXCH     SKEEP1                                #  $ DXCH ERASABLE
000334: 20,2327           02040                           TC       +1CHK
000335: 20,2330           30001                           CA       L                                     #  $ CA SC
000336: 20,2331           02041                           TC       -1CHK
000337: 20,2332           00006                           EXTEND
000338: 20,2333           27371                           DIM      SKEEP1                                #  $ DIM ERASABLE, DIM + NUMBER, 37776
000339: 20,2334           00006                           EXTEND
000340: 20,2335           27372                           DIM      SKEEP2                                #  $ DIM - NUMBER, 40001
000341: 20,2336           33431                           CA       S+MAX                                 #  37777
000342: 20,2337           61372                           AD       SKEEP2                                #  $ AD ERASABLE, +1
000343: 20,2340           02040                           TC       +1CHK
000344: 20,2341           43431                           CS       S+MAX                                 #  40000


000346: 20,2342           61371                           AD       SKEEP1                                #  -1
000347: 20,2343           02041                           TC       -1CHK
000348: 20,2344           37657                           CA       S+1                                   #  +1
000349: 20,2345           00006                           EXTEND
000350: 20,2346           26000                           DIM      A                                     #  $ DIM SC, DIM +1
000351: 20,2347           00006                           EXTEND
000352: 20,2350           26000                           DIM      A                                     #  $ DIM -0
000353: 20,2351           02033                           TC       -0CHK
000354: 20,2352           00006                           EXTEND
000355: 20,2353           26000                           DIM      A                                     #  $ DIM +0
000356: 20,2354           02032                           TC       +0CHK
000357:
000358:                                                                                                  #  DAS+INCR CHECKS ALL PULSES OF DAS AND INCR.
000359:                                                                                                  #  ALSO CHECKS DCA FIXED, LXCH SC, DCA ERASABLE, AD ERASABLE, DCS FIXED,
000360:                                                                                                  #  DCS ERASABLE, AND XCH SC.
000361: 20,2355           37667        DAS+INCR           CA       S-1
000362: 20,2356           54001        DAS++              TS       L                                     #  -1
000363: 20,2357           37656                           CA       S+2                                   #  +2
000364: 20,2360           20001                           DAS      A                                     #  $ DAS SC, C(A) = +4 AND C(L) = -2
000365: 20,2361           67671                           AD       S-3                                   #  $ AD FIXED MEMORY
000366: 20,2362           02040                           TC       +1CHK
000367: 20,2363           37657                           CA       S+1
000368: 20,2364           60001                           AD       L                                     #  $ AD SC, -1
000369: 20,2365           02041                           TC       -1CHK
000370:                                                                                                  #  DAS WITH INTERFLOW IN LOW ORDER AND NET OVERFLOW
000371: 20,2366           00006        DAS+-              EXTEND
000372: 20,2367           33432                           DCA      S+MAX                                 #  $DCA FIXED MEMORY
000373: 20,2370           53374                           DXCH     SKEEP3                                #  37777, 40000
000374: 20,2371           37670                           CA       S-2
000375: 20,2372           54001                           TS       L
000376: 20,2373           36165                           CA       S+3                                   #  C(A) = +3, C(L) = -2
000377: 20,2374           21374                           DAS      SKEEP3                                #  $ DAS ERASABLE
000378: 20,2375           22000                           LXCH     A                                     #  $ LXCH SC
000379: 20,2376           02032                           TC       +0CHK
000380: 20,2377           30001                           CA       L
000381: 20,2400           02040                           TC       +1CHK
000382: 20,2401           00006                           EXTEND
000383: 20,2402           31374                           DCA      SKEEP3                                #  $ DCA ERASABLE
000384: 20,2403           22000                           LXCH     A                                     #  C(A) = -1, C(L) = +1
000385: 20,2404           02041                           TC       -1CHK
000386: 20,2405           30001                           CA       L
000387: 20,2406           02040                           TC       +1CHK
000388:                                                                                                  #  INCRCHK CHECKS ALL INCR PULSES EXCEPT WOVR.
000389: 20,2407           25374        INCRCHK            INCR     SKEEP4                                #  $ INCR ERASABLE, -0
000390: 20,2410           61374                           AD       SKEEP4                                #  $ AD ERASABLE
000391: 20,2411           02033                           TC       -0CHK
000392: 20,2412           24000                           INCR     A                                     #  $ INCR SC, +1
000393: 20,2413           02040                           TC       +1CHK
000394:                                                                                                  #  DAS WITH OVERFLOW IN LOW ORDER AND NET UNDERFLOW
000395: 20,2414           00006        DAS-+              EXTEND


000397: 20,2415           43432                           DCS      S+MAX                                 #  $ DCS FIXED MEMORY
000398: 20,2416           53372                           DXCH     SKEEP1                                #  40000, 37777
000399: 20,2417           36165                           CA       S+3                                   #  +3
000400: 20,2420           54001                           TS       L
000401: 20,2421           40000                           CS       A                                     #  -3
000402: 20,2422           21372                           DAS      SKEEP1                                #  $
000403: 20,2423           02041                           TC       -1CHK
000404: 20,2424           00006                           EXTEND
000405: 20,2425           41372                           DCS      SKEEP1                                #  $ DCS ERASABLE (+1, -2)
000406: 20,2426           56001                           XCH      L                                     #  $ XCH SC (-2, +1)
000407: 20,2427           67657                           AD       S+1
000408: 20,2430           02041                           TC       -1CHK
000409: 20,2431           30001                           CA       L
000410: 20,2432           02040                           TC       +1CHK
000411:
000412:                                                                                                  #  MPCHK CHECKS ALL PULSES OF MP, AUG, AND ADS.
000413: 20,2433           37657        MPCHK              CA       S+1
000414: 20,2434           00006                           EXTEND
000415: 20,2435           24000                           AUG      A                                     #  $ AUG SC, +2
000416: 20,2436           55375                           TS       SKEEP5                                #  +2
000417: 20,2437           40000                           CS       A
000418: 20,2440           54002                           TS       Q                                     #  -2
000419: 20,2441           40000                           CS       A
000420: 20,2442           00006        MP++               EXTEND
000421: 20,2443           73431                           MP       S+MAX                                 #  $ MP FIXED MEMORY, +1, 37776
000422: 20,2444           60001                           AD       L                                     #  37777
000423: 20,2445           00006        MP+-               EXTEND
000424: 20,2446           70002                           MP       Q                                     #  $ MP SC, -1, 40001
000425: 20,2447           26001                           ADS      L                                     #  $ ADS SC, 40000
000426: 20,2450           62011                           AD       DVCON
000427: 20,2451           02041                           TC       -1CHK
000428: 20,2452           30001                           CA       L
000429: 20,2453           00006        MP-+               EXTEND
000430: 20,2454           71375                           MP       SKEEP5                                #  $ MP ERASABLE, -1, 40001
000431: 20,2455           55376                           TS       SKEEP6
000432: 20,2456           00006                           EXTEND
000433: 20,2457           25376                           AUG      SKEEP6                                #  $ AUG ERASABLE, -2
000434: 20,2460           60001                           AD       L                                     #  40000
000435: 20,2461           00006        MP--               EXTEND
000436: 20,2462           71376                           MP       SKEEP6                                #  $ +1, 37776
000437: 20,2463           02040                           TC       +1CHK
000438: 20,2464           40001                           CS       L                                     #  40001
000439: 20,2465           62011                           AD       DVCON
000440: 20,2466           02033                           TC       -0CHK
000441: 20,2467           37657                           CA       S+1
000442: 20,2470           27376                           ADS      SKEEP6                                #  $ ADS ERASABLE, +1
000443: 20,2471           02041                           TC       -1CHK
000444: 20,2472           31376                           CA       SKEEP6
000445: 20,2473           02041                           TC       -1CHK
000446:


000448:                                                                                                  #  DVCH AND DVQXCHK CHECK ALL OF PULSES OF DV AND QXCH.
000449:                                                                                                  #  ALSO CHECKS TS WITH UNDERFLOW
000450: 20,2474           37642        DVCHK              CA       SBIT14                                #  20000
000451: 20,2475           55371                           TS       SKEEP1
000452: 20,2476           60000                           AD       A                                     #  OVERFLOW
000453: 20,2477           67657                           AD       S+1
000454: 20,2500           54001                           TS       L                                     #  $ TS SC WITH OVERFLOW, +1
000455: 20,2501           02020                           TC       ERRORS
000456: 20,2502           40000                           CS       A
000457: 20,2503           55372                           TS       SKEEP2                                #  -1
000458: 20,2504           37666                           CA       S-ZERO                                #  -0
000459: 20,2505           23371                           LXCH     SKEEP1                                #  $ LXCH ERASABLE
000460: 20,2506           00006        DV++               EXTEND
000461: 20,2507           11371                           DV       SKEEP1                                #  $ DV ERASABLE, C(A) = 20000, C(L) = +0
000462: 20,2510           40000                           CS       A
000463: 20,2511           22000                           LXCH     A
000464: 20,2512           02032                           TC       +0CHK
000465: 20,2513           00006        DV--               EXTEND
000466: 20,2514           11372                           DV       SKEEP2                                #  $ 20000, +0
000467: 20,2515           55374                           TS       SKEEP4                                #  20000
000468: 20,2516           40000                           CS       A
000469: 20,2517           55373                           TS       SKEEP3                                #  -(20000)
000470: 20,2520           67642                           AD       SBIT14
000471: 20,2521           02033                           TC       -0CHK
000472: 20,2522           30001                           CA       L
000473: 20,2523           02033                           TC       -0CHK
000474: 20,2524           33431        DV+-               CA       S+MAX
000475: 20,2525           54001                           TS       L
000476: 20,2526           32006                           CA       S13BITS
000477: 20,2527           00006                           EXTEND
000478: 20,2530           11373                           DV       SKEEP3                                #  $ -(37777), +(17777)
000479: 20,2531           56001                           XCH      L
000480: 20,2532           40000                           CS       A
000481: 20,2533           00006        DV-+               EXTEND
000482: 20,2534           11374                           DV       SKEEP4                                #  $ -(37777), -(17777)
000483: 20,2535           62011                           AD       DVCON
000484: 20,2536           02041                           TC       -1CHK
000485: 20,2537           33431                           CA       S+MAX
000486: 20,2540           56001                           XCH      L                                     #  ALSO PUTS 37777 IN L FOR DV-+,-
000487: 20,2541           67642                           AD       SBIT14
000488: 20,2542           02040                           TC       +1CHK
000489: 20,2543           42006        DV-+,+             CS       S13BITS                               #  -(17777)
000490: 20,2544           00006                           EXTEND
000491: 20,2545           11374                           DV       SKEEP4
000492: 20,2546           60001                           AD       L                                     #  -(37775)
000493: 20,2547           62011                           AD       DVCON
000494: 20,2550           02040                           TC       +1CHK
000495: 20,2551           56001                           XCH      L
000496: 20,2552           02041                           TC       -1CHK                                 #  ALSO PUTS +0 IN L FOR DVQXCH
000497: 20,2553           42011        DVQXCHK            CS       DVCON


000499: 20,2554           54002                           TS       Q                                     #  40001
000500: 20,2555           40000                           CS       A
000501: 20,2556           00006                           EXTEND
000502: 20,2557           10002                           DV       Q                                     #  $ DV SC, -(37777), +(37776)
000503: 20,2560           00006                           EXTEND
000504: 20,2561           22001                           QXCH     L                                     #  $ QXCH SC, C(L) = 40001, C(Q) = 37776
000505: 20,2562           60002                           AD       Q
000506: 20,2563           02041                           TC       -1CHK
000507: 20,2564           30001                           CA       L
000508: 20,2565           63431                           AD       S+MAX
000509: 20,2566           02040                           TC       +1CHK
000510: 20,2567           00006                           EXTEND
000511: 20,2570           23371                           QXCH     SKEEP1                                #  $ QXCH ERAS., C(Q) = +1, C(SKEEP1) = +3
000512: 20,2571           30002                           CA       Q
000513: 20,2572           02040                           TC       +1CHK
000514: 20,2573           41371                           CS       SKEEP1                                #  -3
000515: 20,2574           67656                           AD       S+2
000516: 20,2575           02041                           TC       -1CHK
000517:
000518:                                                                                                  #  MSUCHK CHECKS ALL PULSES OF MSU EXCEPT RB WG.
000519: 20,2576           37665        MSUCHK             CA       S+ZERO
000520: 20,2577           55371                           TS       SKEEP1                                #  +0
000521: 20,2600           40000                           CS       A
000522: 20,2601           55372                           TS       SKEEP2                                #  -0
000523: 20,2602           00006                           EXTEND
000524: 20,2603           20000                           MSU      A                                     #  $ MSU SC, +0
000525: 20,2604           02032                           TC       +0CHK
000526: 20,2605           00006                           EXTEND
000527: 20,2606           21372                           MSU      SKEEP2                                #  $ MSU ERASABLE, +1
000528: 20,2607           02040                           TC       +1CHK
000529: 20,2610           00006                           EXTEND
000530: 20,2611           33432                           DCA      S+MAX
000531: 20,2612           00006                           EXTEND
000532: 20,2613           20001                           MSU      L                                     #  $ CHECKS RUS WA, ALSO -1 FROM NEG. NO.
000533: 20,2614           54000                           TS       A
000534: 20,2615           02617                           TC       +2
000535: 20,2616           02020                           TC       ERRORS
000536: 20,2617           02041                           TC       -1CHK
000537:
000538:                                                                                                  #  MASKCHK FINISHES CHECKING MASK INSTRUCTION.
000539: 20,2620           37663        MASKCHK            CA       S+7
000540: 20,2621           54001                           TS       L
000541: 20,2622           72014                           MASK     S-7                                   #  $ MASK FIXED MEMORY
000542: 20,2623           02032                           TC       +0CHK
000543: 20,2624           37657                           CA       S+1
000544: 20,2625           70001                           MASK     L                                     #  $ MASK SC
000545: 20,2626           02040                           TC       +1CHK
000546:
000547:                                                                                                  #  NDX+SU FINISHES CHECKING BOTH INDEX INSTRUCTIONS. ALSO CHECKS ALL OF SU
000548:                                                                                                  #  EXCEPT RB WG.


000550: 20,2627           37657        NDX+SU             CA       S+1
000551: 20,2630           54001                           TS       L
000552: 20,2631           55371                           TS       SKEEP1
000553: 20,2632           50000                           NDX      A                                     #  $ NDX SC
000554: 20,2633           60000                           AD       0000                                  #  AD L, +2
000555: 20,2634           00006                           EXTEND
000556: 20,2635           61371                           SU       SKEEP1                                #  $ SU ERASABLE
000557: 20,2636           02040                           TC       +1CHK
000558: 20,2637           00006                           EXTEND
000559: 20,2640           50001                           NDX      L                                     #  $ NDX SC
000560: 20,2641           60000                           SU       0000                                  #  $ SU SC, SU L
000561: 20,2642           02041                           TC       -1CHK
000562:
000563:                                                                                                  #  D--SC CHECKS DCS SC, DXCH SC, AND DCA SC.
000564: 20,2643           37656        D--SC              CA       S+2
000565: 20,2644           54001                           TS       L                                     #  +2
000566: 20,2645           37657                           CA       S+1
000567: 20,2646           00006                           EXTEND
000568: 20,2647           40001                           DCS      A                                     #  $ DCS SC, C(L) = -2
000569: 20,2650           02041                           TC       -1CHK
000570:                                                                                                  #  AFTER DXCH C(A) = B(Q) = +3, C(L) = B(A) = +0, C(Q) = B(L) = -1.
000571: 20,2651           52002                           DXCH     L                                     #  $ DXCH SC
000572: 20,2652           55373                           TS       SKEEP3
000573: 20,2653           60002                           AD       Q
000574: 20,2654           02040                           TC       +1CHK
000575: 20,2655           30001                           CA       L
000576: 20,2656           02032                           TC       +0CHK
000577: 20,2657           37667                           CA       S-1
000578: 20,2660           54002                           TS       Q
000579: 20,2661           40000                           CS       A
000580: 20,2662           00006                           EXTEND
000581:                                                                                                  #  AFTER DCA C(A) = C(L) = C(Q) = B(Q) = -1.
000582: 20,2663           30002                           DCA      L                                     #  $ DCA SC
000583: 20,2664           60002                           AD       Q
000584: 20,2665           61373                           AD       SKEEP3
000585: 20,2666           02040                           TC       +1CHK
000586: 20,2667           30001                           CA       L
000587: 20,2670           02041                           TC       -1CHK
000588:
000589:                                                                                                  #  D--LCHK CHECKS THAT OVERFLOW IS LOST IN PROCESS OF GOING THROUGH L REG.
000590:                                                                                                  #  ALSO CHECKS THAT Q WILL HOLD 16 BITS
000591: 20,2671           37670        D--LCHK            CA       S-2
000592: 20,2672           54002                           TS       Q
000593: 20,2673           33432                           CA       S-MAX
000594: 20,2674           26002                           ADS      Q
000595: 20,2675           40002                           CS       Q
000596: 20,2676           54000                           TS       A
000597: 20,2677           02020                           TC       ERRORS
000598: 20,2700           00006                           EXTEND
000599: 20,2701           30002                           DCA      L


000601: 20,2702           54000                           TS       A
000602: 20,2703           02705                           TC       +2
000603: 20,2704           02020                           TC       ERRORS
000604: 20,2705           02041                           TC       -1CHK
000605:
000606:                                                                                                  #  CHECKS OVERFLOW, UNDERFLOW,END-AROUND-CARRY, AND SIGN CHANGE OF ADDER.
000607:                                                                                                  #  ALSO CHECKS ADS SC WITH OVERFLOW AND TS A WITH UNDERFLOW
000608: 20,2706           37642        ADDRCHK            CA       SBIT14                                #  20000
000609: 20,2707           54002                           TS       Q
000610: 20,2710           26002                           ADS      Q                                     #  $ ADS SC, OVERFLOW
000611: 20,2711           26002                           ADS      Q                                     #  UNDERFLOW
000612: 20,2712           54000                           TS       A                                     #  $ TS SC WITH UNDERFLOW
000613: 20,2713           02020                           TC       ERRORS
000614: 20,2714           26002                           ADS      Q
000615: 20,2715           02040                           TC       +1CHK
000616:
000617:                                                                                                  #  RUPTCHK CHECKS THAT INTERRUPT DOES NOT OCCUR WHILE OVERFLOW OR UNDERFLOW
000618:                                                                                                  #  IS IN THE A REGISTER. ALSO CHECKS THAT INHINT RELINT WORK PROPERLY.
000619: 20,2716           00004        RUPTCHK            INHINT
000620: 20,2717           37665                           CA       S+ZERO
000621: 20,2720           54015                           TS       ZRUPT
000622: 20,2721           00003                           RELINT
000623: 20,2722           60027                           AD       TIME4
000624: 20,2723           55371                           TS       SKEEP1
000625: 20,2724           41371        TENMS              CS       SKEEP1
000626: 20,2725           60027                           AD       TIME4                                 #  WAIT FOR NEXT TIME4 INCREMENT
000627: 20,2726           00006                           EXTEND
000628: 20,2727           12724                           BZF      TENMS
000629: 20,2730           00004                           INHINT
000630: 20,2731           30015                           CA       ZRUPT
000631: 20,2732           00006                           EXTEND
000632: 20,2733           12735                           BZF      +2                                    #  NO INTERRUPT.
000633: 20,2734           02716                           TC       RUPTCHK                               #  THERE WAS AN INTERRUPT. START AGAIN.
000634: 20,2735           37657                           CAF      S+1                                   #  2 1/2 MS UNTILE NEXT T3 INTERRUPT.
000635: 20,2736           04536                           TC       WAITLIST
000636: 20,2737  E3,1400                                  EBANK=   LST1
000637: 20,2737           02762 40003                     2CADR    TSKADRS
000638:
000639: 20,2741           33431                           CA       S+MAX
000640: 20,2742           62010                           AD       OVCON                                 #  CONTROLS TIME SPENT IN OF-UF LOOP
000641: 20,2743           00003                           RELINT
000642: 20,2744           40000        WAIT               CS       A
000643: 20,2745           10000                           CCS      A
000644: 20,2746           02752                           TC       INHNTCHK
000645: 20,2747           02756        RUPTCON            ADRES    C(BRUPT)
000646: 20,2750           67656                           AD       S+2
000647: 20,2751           02744                           TC       WAIT
000648: 20,2752           00004        INHNTCHK           INHINT                                         #  T3 RUPT SHOULD BE WAITING
000649: 20,2753           55375                           TS       SKEEP5
000650: 20,2754           02020                           TC       ERRORS


000652: 20,2755           00003                           RELINT
000653: 20,2756           40015        C(BRUPT)           CS       ZRUPT                                 #  INTERRUPT SHOULD HAPPEN HERE
000654: 20,2757           00006                           EXTEND
000655: 20,2760           12020                           BZF      ERRORS                                #  MAKES SURE AN INTERRUPT DID HAPPEN
000656: 20,2761           02766                           TC       +5                                    #  END OF RUPTCHK
000657: 20,2762           40015        TSKADRS            CS       ZRUPT
000658: 20,2763           62747                           AD       RUPTCON
000659: 20,2764           02041                           TC       -1CHK
000660: 20,2765           04602                           TC       TASKOVER
000661:
000662: 20,2766           02047                           TC       SMODECHK
000663:
000664:                                                                                                  #  IN-OUT1 CHECKS ALL PULSES OF WRITE AND READ
000665: 20,2767           37667        IN-OUT1            CA       S-1
000666: 20,2770           00006        WRITECHK           EXTEND
000667: 20,2771           01002                           WRITE    Q
000668: 20,2772           22002                           LXCH     Q                                     #  PUT C(Q) IN L
000669: 20,2773           02041                           TC       -1CHK
000670: 20,2774           00006        READCHK            EXTEND                                         #  C(L) = 77776
000671: 20,2775           00001                           READ     L
000672: 20,2776           02041                           TC       -1CHK
000673: 20,2777           30001                           CA       L
000674: 20,3000           02041                           TC       -1CHK
000675:
000676:                                                                                                  #  IN-OUT2 CHECKS ALL PULSES OF ROR AND WOR
000677: 20,3001           46165        IN-OUT2            CS       S+3
000678: 20,3002           54001        RORCHK             TS       L                                     #  77774
000679: 20,3003           32011                           CA       DVCON                                 #  37776
000680: 20,3004           00006                           EXTEND
000681: 20,3005           04001                           ROR      L                                     #  $ ROR, -1
000682: 20,3006           02041                           TC       -1CHK
000683: 20,3007           32011        WORCHK             CA       DVCON                                 #  C(L) STILL 77774
000684: 20,3010           00006                           EXTEND
000685: 20,3011           05001                           WOR      L                                     #  $ WOR, -1
000686: 20,3012           02041                           TC       -1CHK
000687: 20,3013           30001                           CA       L
000688: 20,3014           02041                           TC       -1CHK
000689:
000690:                                                                                                  #  IN-OUT3 CHECKS ALL PULSES OF RAND, WAND, AND RXOR
000691: 20,3015           42011        IN-OUT3            CS       DVCON
000692: 20,3016           54001        RANDCHK            TS       L                                     #  40001
000693: 20,3017           32006                           CA       S13BITS                               #  17777
000694: 20,3020           00006                           EXTEND
000695: 20,3021           02001                           RAND     L                                     #  $ RAND, +1
000696: 20,3022           02040                           TC       +1CHK
000697: 20,3023           32006        WANDCHK            CA       S13BITS                               #  C(L) STILL 40001
000698: 20,3024           00006                           EXTEND
000699: 20,3025           03001                           WAND     L                                     #  $ WAND, +1
000700: 20,3026           02040                           TC       +1CHK
000701: 20,3027           47664                           CS       S+5


000703: 20,3030           56001                           XCH      L                                     #  ALSO PUT -5 IN L FOR RXORCHK
000704: 20,3031           02040                           TC       +1CHK
000705: 20,3032           36162        RXORCHK            CA       S+6
000706: 20,3033           00006                           EXTEND
000707: 20,3034           06001                           RXOR     L                                     #  $ RXOR, -3
000708: 20,3035           67656                           AD       S+2
000709: 20,3036           02041                           TC       -1CHK
000710: 20,3037           30001                           CA       L
000711: 20,3040           67655                           AD       S+4
000712: 20,3041           02041                           TC       -1CHK
000713:
000714: 20,3042           02047                           TC       SMODECHK
000715:
000716:                                                                                                  #  COUNTCHK COUNTS UP 14 BIT NUMBER WITH SIGN.
000717:                                                                                                  #  TAKES APPROXIMATELY 8.7 SECONDS.
000718:                                                                                                  #  ** PUT IN CCS NEWJOB FOR ROPE.
000719: 20,3043           00006        COUNTCHK           EXTEND
000720: 20,3044           33432                           DCA      S+MAX
000721: 20,3045           53377                           DXCH     SKEEP6                                #  PUT 37777 IN SKEEP6 AND 40000 IN SKEEP7
000722: 20,3046           31376        +LOOP              CA       SKEEP6
000723: 20,3047           56002                           XCH      Q
000724: 20,3050           00006                           EXTEND
000725: 20,3051           40002                           DCS      L
000726: 20,3052           10000                           CCS      A
000727: 20,3053           03062                           TC       -NMBR
000728: 20,3054           03067                           TC       ENDCOUNT
000729: 20,3055           55376                           TS       SKEEP6
000730: 20,3056           61377                           AD       SKEEP7
000731: 20,3057           02041                           TC       -1CHK
000732: 20,3060           25377                           INCR     SKEEP7
000733: 20,3061           03046                           TC       +LOOP
000734: 20,3062           60001        -NMBR              AD       L
000735: 20,3063           02041                           TC       -1CHK
000736: 20,3064           04457                           TC       CHECKNJ                               #  CHECK FOR NEW JOB
000737: 20,3065           41376                           CS       SKEEP6
000738: 20,3066           03047                           TC       +LOOP      +1
000739: 20,3067           31377        ENDCOUNT           CA       SKEEP7                                #  -0
000740: 20,3070           61376                           AD       SKEEP6                                #  SKEEP6 SHOULD BE +0
000741: 20,3071           02033                           TC       -0CHK
000742:
000743:                                                                                                  #  O-UFLOW COUNTS DOWN OVERFLOW AND UNDERFLOW NUMBERS.
000744:                                                                                                  #  TAKES APPROXIMATELY 10.8 SECONDS
000745: 20,3072           33432        O-UFLOW            CA       S-MAX
000746: 20,3073           55375                           TS       SKEEP5                                #  40000
000747: 20,3074           40000                           CS       A
000748: 20,3075           00004        OFLOOP             INHINT
000749: 20,3076           63431                           AD       S+MAX
000750: 20,3077           67657                           AD       S+1
000751: 20,3100           56002                           XCH      Q
000752: 20,3101           10002                           CCS      Q


000754: 20,3102           03117                           TC       -NMBRS
000755: 20,3103           02020                           TC       ERRORS                                #  CAN PUT IN CONSTANT
000756: 20,3104           55373                           TS       SKEEP3
000757: 20,3105           02020                           TC       ERRORS
000758: 20,3106           31373                           CA       SKEEP3
000759: 20,3107           61375                           AD       SKEEP5
000760: 20,3110           02041                           TC       -1CHK
000761: 20,3111           00003                           RELINT
000762: 20,3112           04457                           TC       CHECKNJ                               #  CHECK FOR NEW JOB
000763: 20,3113           31374                           CA       SKEEP4
000764: 20,3114           00006                           EXTEND
000765: 20,3115           27375                           DIM      SKEEP5
000766: 20,3116           03075                           TC       OFLOOP
000767: 20,3117           55374        -NMBRS             TS       SKEEP4
000768: 20,3120           03130                           TC       ENDOFUF
000769: 20,3121           31374                           CA       SKEEP4
000770: 20,3122           61375                           AD       SKEEP5
000771: 20,3123           02041                           TC       -1CHK
000772: 20,3124           31375                           CA       SKEEP5
000773: 20,3125           63432                           AD       S-MAX
000774: 20,3126           67667                           AD       S-1
000775: 20,3127           03100                           TC       OFLOOP     +3
000776: 20,3130           31375        ENDOFUF            CA       SKEEP5
000777: 20,3131           02033                           TC       -0CHK
000778: 20,3132           41374                           CS       SKEEP4
000779: 20,3133           62011                           AD       DVCON
000780: 20,3134           02041                           TC       -1CHK
000781: 20,3135           00003                           RELINT
000782:
000783: 20,3136           02047                           TC       SMODECHK
000784:
000785:                                                                                                  #  SKEEP7 HOLDS LOWEST OF TWO ADDRESSES BEING CHECKED.
000786:                                                                                                  #  SKEEP6 HOLDS B(X+1).
000787:                                                                                                  #  SKEEP5 HOLDS B(X).
000788:                                                                                                  #  SKEEP4 CONTROLS CHECKING OF NON-SWITCHABLE ERASABLE MEMORY WITH
000789:                                                                                                  #  BANK NUMBERS IN EB.
000790:                                                                                                  #  SKEEP3 HOLDS LAST ADDRESS BEING CHECKED (HIGHEST ADDRESS).
000791:                                                                                                  #  SKEEP2 HOLDS C(EBANK) DURING CHECKNJ
000792:                                                                                                  #  ERASCHK TAKES APPROXMATELY 7 SECONDS
000793: 20,3137           37657        ERASCHK            CA       S+1
000794: 20,3140           55374                           TS       SKEEP4
000795: 20,3141           37665        0EBANK             CA       S+ZERO
000796: 20,3142           54003                           TS       EBANK
000797: 20,3143           32004                           CA       ERASCON3                              #  01462
000798: 20,3144           55377                           TS       SKEEP7                                #  STARTING ADDRESS
000799: 20,3145           36426                           CA       S10BITS                               #  01777
000800: 20,3146           55373                           TS       SKEEP3                                #  LAST ADDRESS CHECKED
000801: 20,3147           03167                           TC       ERASLOOP
000802:
000803: 20,3150           32003        E134567B           CA       ERASCON6                              #  01400


000805: 20,3151           55377                           TS       SKEEP7                                #  STARTING ADDRESS
000806: 20,3152           36426                           CA       S10BITS                               #  01777
000807: 20,3153           55373                           TS       SKEEP3                                #  LAST ADDRESS CHECKED
000808: 20,3154           03167                           TC       ERASLOOP
000809:
000810: 20,3155           32003        2EBANK             CA       ERASCON6                              #  01400
000811: 20,3156           55377                           TS       SKEEP7                                #  STARTING ADDRESS
000812: 20,3157           32005                           CA       ERASCON4                              #  01774
000813: 20,3160           55373                           TS       SKEEP3                                #  LAST ADDRESS CHECKED
000814: 20,3161           03167                           TC       ERASLOOP
000815:
000816: 20,3162           55374        NOEBANK            TS       SKEEP4                                #  +0
000817: 20,3163           32001                           CA       ERASCON1                              #  00062
000818: 20,3164           55377                           TS       SKEEP7                                #  STARTING ADDRESS
000819: 20,3165           32002                           CA       ERASCON2                              #  01374
000820: 20,3166           55373                           TS       SKEEP3                                #  LAST ADDRESS CHECKED
000821:
000822: 20,3167           00004        ERASLOOP           INHINT
000823: 20,3170           31377                           CA       SKEEP7
000824: 20,3171           54001                           TS       L
000825: 20,3172           24001                           INCR     L
000826: 20,3173           50000                           NDX      A
000827: 20,3174           52001                           DXCH     0000                                  #  PUTS OWN ADDRESS IN X AND X +1
000828: 20,3175           53376                           DXCH     SKEEP5                                #  STORES C(X) AND C(X-1) IN SKEEP6 AND 5
000829: 20,3176           51377                           NDX      SKEEP7
000830: 20,3177           40001                           CS       0001                                  #  CS X+1
000831: 20,3200           51377                           NDX      SKEEP7
000832: 20,3201           60000                           AD       0000                                  #  AD X
000833: 20,3202           02041                           TC       -1CHK
000834: 20,3203           00006                           EXTEND
000835: 20,3204           51377                           NDX      SKEEP7
000836: 20,3205           40001                           DCS      0000                                  #  COMPLEMENT OF ADDRESS OF X AND X+1
000837: 20,3206           51377                           NDX      SKEEP7
000838: 20,3207           52001                           DXCH     0000                                  #  PUT COMPLEMENT OF ADDRESS OF X AND X+1
000839: 20,3210           51377                           NDX      SKEEP7
000840: 20,3211           40000                           CS       0000                                  #  CS X
000841: 20,3212           51377                           NDX      SKEEP7
000842: 20,3213           60001                           AD       0001                                  #  AD X+1
000843: 20,3214           02041                           TC       -1CHK
000844: 20,3215           53376                           DXCH     SKEEP5
000845: 20,3216           51377                           NDX      SKEEP7
000846: 20,3217           52001                           DXCH     0000                                  #  PUT B(X) AND B(X+1) BACK INTO X AND X+1
000847: 20,3220           00003                           RELINT
000848: 20,3221           30003                           CA       EBANK                                 #  STORES C(EBANK)
000849: 20,3222           55372                           TS       SKEEP2
000850: 20,3223           04457                           TC       CHECKNJ                               #  CHECK FOR NEW JOB
000851: 20,3224           31372                           CA       SKEEP2                                #  REPLACES B(EBANK)
000852: 20,3225           54003                           TS       EBANK
000853: 20,3226           25377                           INCR     SKEEP7
000854: 20,3227           41377                           CS       SKEEP7


000856: 20,3230           61373                           AD       SKEEP3
000857: 20,3231           00006                           EXTEND
000858: 20,3232           13234                           BZF      +2
000859: 20,3233           03167                           TC       ERASLOOP                              #  GO TO NEXT ADDRESS IN SAME BANK
000860: 20,3234           11374                           CCS      SKEEP4
000861: 20,3235           03162                           TC       NOEBANK
000862: 20,3236           25374                           INCR     SKEEP4                                #  PUT +1 IN SKEEP4
000863: 20,3237           30003                           CA       EBANK
000864: 20,3240           67647                           AD       SBIT9
000865: 20,3241           54003                           TS       EBANK
000866: 20,3242           62013                           AD       ERASCON5                              #  76377 CHECK FOR BANK E3
000867: 20,3243           00006                           EXTEND
000868: 20,3244           13155                           BZF      2EBANK
000869: 20,3245           10003                           CCS      EBANK
000870: 20,3246           03150                           TC       E134567B                              #  GO TO EBANKS 1,3,4,5,6, AND 7
000871: 20,3247           32003                           CA       ERASCON6                              #  END OF ERASCHK
000872: 20,3250           54003                           TS       EBANK
000873:                                                                                                  #  CNTRCHK PERFORMS A CS OF ALL REGISTERS FROM OCT. 61 THROUGH OCT. 10.
000874:                                                                                                  #  INCLUDED ARE ALL COUNTERS, T6-1, CYCLE AND SHIFT, AND ALL RUPT REGISTERS
000875: 20,3251           32000        CNTRCHK            CAF      CNTRCON                               #  00051
000876: 20,3252           55372        CNTRLOOP           TS       SKEEP2
000877: 20,3253           67654                           AD       SBIT4                                 #  +10 OCTAL
000878: 20,3254           50000                           INDEX    A
000879: 20,3255           40000                           CS       0000
000880: 20,3256           11372                           CCS      SKEEP2
000881: 20,3257           03252                           TC       CNTRLOOP
000882:
000883:                                                                                                  #  CYCLSHFT CHECKS THE CYCLE AND SHIFT REGISTERS
000884: 20,3260           32007        CYCLSHFT           CA       CONC+S1                               #  25252
000885: 20,3261           54020                           TS       CYR                                   #  C(CYR) = 12525
000886: 20,3262           54022                           TS       CYL                                   #  C(CYL) = 52524
000887: 20,3263           54021                           TS       SR                                    #  C(SR) = 12525
000888: 20,3264           54023                           TS       EDOP                                  #  C(EDOP) = 00125
000889: 20,3265           60020                           AD       CYR                                   #  37777         C(CYR) = 45252
000890: 20,3266           60022                           AD       CYL                                   #  00-12524      C(CYL) = 25251
000891: 20,3267           60021                           AD       SR                                    #  00-25251      C(SR) = 05252
000892: 20,3270           60023                           AD       EDOP                                  #  00-25376      C(EDOP) = +0
000893: 20,3271           62012                           AD       CONC+S2                               #  C(CONC+S2) = 52400
000894: 20,3272           02041                           TC       -1CHK
000895: 20,3273           60020                           AD       CYR                                   #  45252
000896: 20,3274           60022                           AD       CYL                                   #  72523
000897: 20,3275           60021                           AD       SR                                    #  77775
000898: 20,3276           60023                           AD       EDOP                                  #  77775
000899: 20,3277           67657                           AD       S+1                                   #  77776
000900: 20,3300           02041                           TC       -1CHK
000901:
000902: 20,3301           25367                           INCR     SCOUNT     +1
000903: 20,3302           02047                           TC       SMODECHK
000904: 20,3303           03307                           TC       ROPECHK
000905:


000907:                                                                                                  #  SKEEP1 HOLDS SUM
000908:                                                                                                  #  SKEEP2 HOLDS PRESENT CONTENTS OF ADDRESS IN ROPECHK AND SHOWSUM ROUTINES
000909:                                                                                                  #  SKEEP2 HOLDS BANK NUMBER IN LOW ORDER BITS DURING SHOWSUM DISPLAY
000910:                                                                                                  #  SKEEP3 HOLDS PRESENT ADDRESS (00000 TO 01777 IN COMMON FIXED BANKS)
000911:                                                                                                  #                               (04000 TO 07777 IN FXFX BANKS)
000912:                                                                                                  #  SKEEP3 HOLDS BUGGER WORD DURING SHOWSUM DISPLAY
000913:                                                                                                  #  SKEEP4 HOLDS BANK NUMBER
000914:                                                                                                  #  SKEEP5 COUNTS 2 SUCCESSIVE TC SELF WORDS
000915:                                                                                                  #  SKEEP6 CONTROLS ROPECHK OR SHOWSUM OPTION
000916:                                                                                                  #  SKEEP7 CONTROLS WHEN ROUNTINE IS IN COMMON FIXED OR FIXED FIXED BANKS
000917:
000918: 20,3304           05304        STSHOSUM           TC       GRABDSP
000919: 20,3305           05312                           TC       PREGBSY
000920: 20,3306           03311                           TC       +3
000921: 20,3307           37666        ROPECHK            CA       S-ZERO
000922: 20,3310           55376                           TS       SKEEP6                                #  ROPECHK OPTION
000923: 20,3311           37665                           CA       S+ZERO
000924: 20,3312           55374                           TS       SKEEP4                                #  BANK NUMBER
000925: 20,3313           37657                           CA       S+1
000926: 20,3314           55377        COMMFX             TS       SKEEP7
000927: 20,3315           37665                           CA       S+ZERO
000928: 20,3316           55371                           TS       SKEEP1
000929: 20,3317           55373                           TS       SKEEP3
000930: 20,3320           37657                           CA       S+1
000931: 20,3321           55375                           TS       SKEEP5                                #  COUNTS DOWN 2 TC SELF WORDS
000932: 20,3322           31373        COMADRS            CA       SKEEP3
000933: 20,3323           61374                           AD       SKEEP4
000934: 20,3324           04116                           TC       DATACALL
000935: 20,3325           03351                           TC       ADSUM
000936: 20,3326           67645                           AD       SBIT11                                #  02000
000937: 20,3327           03362                           TC       ADRSCHK
000938:
000939: 20,3330           40000        FXFX               CS       A
000940: 20,3331           55377                           TS       SKEEP7
000941: 20,3332           00006                           EXTEND
000942: 20,3333           13336                           BZF      +3
000943: 20,3334           37644                           CA       SBIT12                                #  04000, STARTING ADDRESS OF BANK 02
000944: 20,3335           03337                           TC       +2
000945: 20,3336           34506                           CA       SBNK03                                #  06000, STARTING ADDRESS OF BANK 03
000946: 20,3337           55373                           TS       SKEEP3
000947: 20,3340           37665                           CA       S+ZERO
000948: 20,3341           55371                           TS       SKEEP1
000949: 20,3342           37657                           CA       S+1
000950: 20,3343           55375                           TS       SKEEP5                                #  COUNTS DOWN 2 TC SELF WORDS
000951: 20,3344           00006        FXADRS             EXTEND
000952: 20,3345           51373                           NDX      SKEEP3
000953: 20,3346           30001                           DCA      0000
000954: 20,3347           03351                           TC       ADSUM
000955: 20,3350           03362                           TC       ADRSCHK
000956:


000958: 20,3351           55372        ADSUM              TS       SKEEP2
000959: 20,3352           61371                           AD       SKEEP1
000960: 20,3353           55371                           TS       SKEEP1
000961: 20,3354           37665                           CAF      S+ZERO
000962: 20,3355           61371                           AD       SKEEP1
000963: 20,3356           55371                           TS       SKEEP1
000964: 20,3357           41372                           CS       SKEEP2
000965: 20,3360           61373                           AD       SKEEP3
000966: 20,3361           00002                           TC       Q
000967:
000968: 20,3362           10000        ADRSCHK            CCS      A
000969: 20,3363           03373                           TC       CONTINU
000970: 20,3364           03373                           TC       CONTINU
000971: 20,3365           03373                           TC       CONTINU
000972: 20,3366           11375                           CCS      SKEEP5
000973: 20,3367           03374                           TC       CONTINU    +1
000974: 20,3370           30001                           CA       L
000975: 20,3371           03351                           TC       ADSUM
000976: 20,3372           03434                           TC       SOPTION                               #  GO TO ROPECHK SHOSUM OPTION
000977: 20,3373           37657        CONTINU            CA       S+1                                   #  MAKE SURE TWO CONSECUTIVE TC SELF WORDS
000978: 20,3374           55375                           TS       SKEEP5
000979: 20,3375           11376                           CCS      SKEEP6                                #  +1 IN SKEEP6, SHOWSUM VIA EXECUTIVE
000980: 20,3376           10067                           CCS      NEWJOB
000981: 20,3377           04404                           TC       CHANG1
000982: 20,3400           03402                           TC       +2
000983: 20,3401           04457                           TC       CHECKNJ                               #  -0 IN SKEEP6 FOR ROPECHK
000984:
000985: 20,3402           25373        ADRS+1             INCR     SKEEP3
000986: 20,3403           11377                           CCS      SKEEP7
000987: 20,3404           03322                           TC       COMADRS
000988: 20,3405           03322                           TC       COMADRS
000989: 20,3406           03344                           TC       FXADRS
000990: 20,3407           03344                           TC       FXADRS
000991:
000992: 20,3410           31374        NXTBNK             CA       SKEEP4
000993: 20,3411           67645                           AD       SBIT11
000994: 20,3412           55374                           TS       SKEEP4
000995: 20,3413           03416                           TC       +3
000996: 20,3414           37641                           CA       SBIT15
000997: 20,3415           55374                           TS       SKEEP4
000998: 20,3416           63437                           AD       NOBANKNO                              #  FIRST BANK NOT USED.
000999: 20,3417           00006                           EXTEND
001000: 20,3420           13427                           BZF      ENDSUMS
001001: 20,3421           11377                           CCS      SKEEP7
001002: 20,3422           03314                           TC       COMMFX
001003: 20,3423           37657                           CA       S+1
001004: 20,3424           03330                           TC       FXFX
001005: 20,3425           37651                           CA       SBIT7                                 #  CAN BE ANY NUMBER LARGER THAN 36 DECIMAL
001006: 20,3426           03314                           TC       COMMFX
001007:


001009: 20,3427           11376        ENDSUMS            CCS      SKEEP6
001010: 20,3430           03311                           TC       ROPECHK    +2                         #  START SHOWSUM AGAIN
001011: 20,3431           37777        S+MAX              OCTAL    37777                                 #  ** S+MAX AND S-MAX MUST BE TOGETHER
001012: 20,3432           40000        S-MAX              OCTAL    40000                                 #  FOR DOUBLE PRECISION CHECKING.
001013: 20,3433           03515                           TC       MPNMBRS    -1                         #  ROPECHK IS COMPLETED
001014:
001015: 20,3434           11376        SOPTION            CCS      SKEEP6                                #  DECIDE ON ROPECHK OR SHOWSUM OPTION
001016: 20,3435           03471                           TC       SDISPLAY
001017: 20,3436           00501        VNCON              OCTAL    00501                                 #  USED IN SHOWSUM. DISPLAY 3 REGISTERS.
001018: 20,3437           33777        NOBANKNO           OCTAL    33777                                 #  * CONSTANT, COMPLEMENT OF LAST BANK +1.
001019:                                                                                                  #  CHANGE TO 33777 IF BANK 21 IS LAST BANK USED
001020: 20,3440           11371        BNKCHK             CCS      SKEEP1                                #  WHEN C(SKEEP6) = -0
001021: 20,3441           03445                           TC       +4
001022: 20,3442           41471        SCADR              FCADR    SDISPLAY                              #  * CONSTANT, USED IN SHOWSUM ONLY
001023: 20,3443           03445                           TC       +2
001024: 20,3444           37667                           CA       S-1                                   #  FOR BANK 00
001025: 20,3445           55371                           TS       SKEEP1
001026: 20,3446           31374                           CA       SKEEP4
001027: 20,3447           05207                           TC       LEFT5
001028: 20,3450           40000                           CS       A
001029: 20,3451           61371                           AD       SKEEP1
001030: 20,3452           02041                           TC       -1CHK
001031: 20,3453           03410                           TC       NXTBNK
001032:
001033:                                                                                                  #  INITIALIZE SKEEP6 TO +1 TO PERFORM SHOWSUM
001034:                                                                                                  #  START OF ROUTINE THAT DISPLAYS SUM OF EACH BANK
001035: 20,3454           37657        SHOWSUM            CAF      S+1
001036: 20,3455           55376                           TS       SKEEP6                                #  SHOWSUM OPTION
001037: 20,3456           37665                           CAF      S+ZERO
001038: 20,3457           55361                           TS       SMODE                                 #  PUT SELF-CHECK TO SLEEP
001039: 20,3460           32017                           CA       SELFADRS                              #  INITIALIZE SELFRET TO GO TO SELFCHK.
001040: 20,3461           55360                           TS       SELFRET
001041: 20,3462           00004                           INHINT
001042: 20,3463           37645                           CAF      PRIO2
001043: 20,3464           04363                           TC       NOVAC
001044: 20,3465     1360                                  EBANK=   SELFRET
001045: 20,3465           03304 40002                     2CADR    STSHOSUM
001046:
001047: 20,3467           00003                           RELINT
001048: 20,3470           04440                           TC       ENDOFJOB
001049:
001050: 20,3471           31374        SDISPLAY           CA       SKEEP4
001051: 20,3472           05207                           TC       LEFT5                                 #  CYCLES LEFT 5 PLACES
001052: 20,3473           57372                           XCH      SKEEP2                                #  SKEEP2 HOLDS BANK NUMBER DURING DISPLAY
001053: 20,3474           55373                           TS       SKEEP3                                #  SKEEP3 HOLDS BUGGER WORD DURING DISPLAY
001054: 20,3475           32015        NOKILL             CAF      ADRS1                                 #  ADDRESS OF SKEEP1
001055: 20,3476           54142                           TS       MPAC       +2
001056: 20,3477           33436                           CAF      VNCON                                 #  DISPLAY 3 REGISTERS
001057: 20,3500           05107                           TC       NVSUB
001058: 20,3501           03513                           TC       SBUSY


001060: 20,3502           05274                           TC       FLASHON
001061: 20,3503           05140                           TC       ENDIDLE
001062: 20,3504           03507                           TC       +3                                    #  FINISHED WITH SHOWSUM
001063: 20,3505           03410                           TC       NXTBNK
001064: 20,3506           03475                           TC       NOKILL                                #  SO CAN LOAD WITHOUT KILLING SHOWSUM
001065: 20,3507           05401                           TC       FREEDSP
001066: 20,3510           32017                           CA       SELFADRS                              #  INITIALIZE SKEEP1 TO GO TO SELFCHK.
001067: 20,3511           55371                           TS       SKEEP1
001068: 20,3512           04440                           TC       ENDOFJOB
001069:
001070: 20,3513           33442        SBUSY              CAF      SCADR
001071: 20,3514           05327                           TC       NVSUBUSY
001072:
001073: 20,3515           02047                           TC       SMODECHK
001074:
001075:                                                                                                  #  MULTIPLY SUBROUTINE TAKES APPROXIMATELY 19 SECONDS.
001076:                                                                                                  #  (37777) X (37777 THROUGH 00001)
001077:                                                                                                  #  C(A) COUNTS DOWN.  C(L) COUNTS UP.
001078: 20,3516           33431        MPNMBRS            CAF      S+MAX
001079: 20,3517           55372                           TS       SKEEP2
001080: 20,3520           33431                           CAF      S+MAX
001081: 20,3521           00006                           EXTEND
001082: 20,3522           71372                           MP       SKEEP2
001083: 20,3523           60001                           AD       L                                     #  C(A) = 37777
001084: 20,3524           63432                           AD       S-MAX
001085: 20,3525           02033                           TC       -0CHK
001086: 20,3526           04457                           TC       CHECKNJ                               #  CHECK FOR NEW JOB
001087: 20,3527           11372                           CCS      SKEEP2
001088: 20,3530           55372                           TS       SKEEP2
001089: 20,3531           11372                           CCS      SKEEP2
001090: 20,3532           03520                           TC       MPNMBRS    +2
001091:                                                                                                  #  (-1) X (37777 THROUGH 00001)
001092: 20,3533           33431                           CAF      S+MAX
001093: 20,3534           55372                           TS       SKEEP2
001094: 20,3535           37667        MPHIGH1            CAF      S-1
001095: 20,3536           00006                           EXTEND
001096: 20,3537           71372                           MP       SKEEP2                                #  C(A) = -0
001097: 20,3540           02033                           TC       -0CHK
001098: 20,3541           30001                           CA       L
001099: 20,3542           61372                           AD       SKEEP2
001100: 20,3543           02033                           TC       -0CHK
001101: 20,3544           04457                           TC       CHECKNJ                               #  CHECK FOR NEW JOB
001102: 20,3545           11372                           CCS      SKEEP2
001103: 20,3546           55372                           TS       SKEEP2
001104: 20,3547           11372                           CCS      SKEEP2
001105: 20,3550           03535                           TC       MPHIGH1
001106:
001107:                                                                                                  #  INTERCHANGE MULTIPLIER AND MULTIPLICAND
001108:                                                                                                  #  (37777 THROUGH 00001) X (37777)
001109:                                                                                                  #  C(A) COUNTS DOWN.  C(L) COUNTS UP.


001111: 20,3551           33431                           CAF      S+MAX
001112: 20,3552           55371                           TS       SKEEP1
001113: 20,3553           31371        MPAGAIN            CA       SKEEP1
001114: 20,3554           00006                           EXTEND
001115: 20,3555           73431                           MP       S+MAX
001116: 20,3556           60001                           AD       L                                     #  C(A) = 37777
001117: 20,3557           63432                           AD       S-MAX
001118: 20,3560           02033                           TC       -0CHK
001119: 20,3561           04457                           TC       CHECKNJ                               #  CHECK FOR NEW JOB
001120: 20,3562           11371                           CCS      SKEEP1
001121: 20,3563           55371                           TS       SKEEP1
001122: 20,3564           11371                           CCS      SKEEP1
001123: 20,3565           03553                           TC       MPAGAIN
001124:                                                                                                  #  (37777 THROUGH 00001) X (-1)
001125: 20,3566           33431                           CAF      S+MAX
001126: 20,3567           55371                           TS       SKEEP1
001127: 20,3570           31371        MPHIGH2            CA       SKEEP1
001128: 20,3571           00006                           EXTEND
001129: 20,3572           77667                           MP       S-1
001130: 20,3573           02033                           TC       -0CHK
001131: 20,3574           30001                           CA       L
001132: 20,3575           61371                           AD       SKEEP1
001133: 20,3576           02033                           TC       -0CHK
001134: 20,3577           04457                           TC       CHECKNJ                               #  CHECK FOR NEW JOB
001135: 20,3600           11371                           CCS      SKEEP1
001136: 20,3601           55371                           TS       SKEEP1
001137: 20,3602           11371                           CCS      SKEEP1
001138: 20,3603           03570                           TC       MPHIGH2
001139:
001140: 20,3604           02047                           TC       SMODECHK
001141:
001142:                                                                                                  #  ONCE THROUGH DIVIDE SUBROUTINE TAKES APPROXIMATELY 0.01 SECOND.
001143:                                                                                                  #  TOTAL TIME SPENT IN DIVIDE SUBROUTINE IS APPROXIMATELY 21.5 SECONDS
001144:                                                                                                  #  DIVIDE +-/17777/ +-/37777/ BY +-/20000/. THE CONTENTS OF THE A REGISTER
001145:                                                                                                  #  AND THE L REGISTER WILL HAVE OPPOSITE SIGNS BEFORE DIVISION. THE
001146:                                                                                                  #  QUOTIENT SHOULD BE +-/37774/ DEPENDING ON THE SIGN OF A AND THE SIGN
001147:                                                                                                  #  OF THE DIVISOR. THE REMAINDER = +-1 DEPENDING ON THE SIGN OF A
001148: 20,3605           47644        DVCHECK            CS       SBIT12                                #  -(04000)
001149: 20,3606           55374                           TS       SKEEP4
001150: 20,3607           25374        DVLOOP             INCR     SKEEP4
001151: 20,3610           37642        DV1CHK             CA       SBIT14                                #  20000
001152: 20,3611           55371                           TS       SKEEP1
001153: 20,3612           40000                           CS       A
001154: 20,3613           55372                           TS       SKEEP2
001155: 20,3614           43431        DV1++              CS       S+MAX
001156: 20,3615           54001                           TS       L                                     #  40000
001157: 20,3616           32006                           CA       S13BITS
001158: 20,3617           00006                           EXTEND
001159: 20,3620           11371                           DV       SKEEP1                                #  +37774, +1
001160: 20,3621           55377                           TS       SKEEP7                                #  37774


001162: 20,3622           33432                           CA       S-MAX
001163: 20,3623           56001                           XCH      L                                     #  ALSO PUT 40000 IN L
001164: 20,3624           02040                           TC       +1CHK
001165: 20,3625           32006        DV1+-              CA       S13BITS                               #  17777
001166: 20,3626           00006                           EXTEND
001167: 20,3627           11372                           DV       SKEEP2                                #  -37774, +1
001168: 20,3630           61377                           AD       SKEEP7
001169: 20,3631           02033                           TC       -0CHK
001170: 20,3632           33431                           CA       S+MAX
001171: 20,3633           56001                           XCH      L                                     #  ALSO PUT 37777 IN L
001172: 20,3634           02040                           TC       +1CHK
001173: 20,3635           42006        DV1-+              CS       S13BITS                               #  60000
001174: 20,3636           00006                           EXTEND
001175: 20,3637           11371                           DV       SKEEP1                                #  -37774, -1
001176: 20,3640           55376                           TS       SKEEP6
001177: 20,3641           61377                           AD       SKEEP7
001178: 20,3642           02033                           TC       -0CHK
001179: 20,3643           33431                           CA       S+MAX
001180: 20,3644           56001                           XCH      L                                     #  ALSO PUT 37777 IN L
001181: 20,3645           02041                           TC       -1CHK
001182: 20,3646           42006        DV1--              CS       S13BITS                               #  60000
001183: 20,3647           00006                           EXTEND
001184: 20,3650           11372                           DV       SKEEP2                                #  +37774, -1
001185: 20,3651           61376                           AD       SKEEP6
001186: 20,3652           02033                           TC       -0CHK
001187: 20,3653           33431                           CA       S+MAX
001188: 20,3654           56001                           XCH      L                                     #  ALSO PUT 37777 IN L FOR DV2
001189: 20,3655           02041                           TC       -1CHK
001190: 20,3656           31376                           CA       SKEEP6                                #  -37774
001191: 20,3657           67670                           AD       S-2                                   #  -37776
001192: 20,3660           63431                           AD       S+MAX
001193: 20,3661           02040                           TC       +1CHK
001194:
001195:                                                                                                  #  DIVIDE +17777 + 37777 BY +20000.  THE RESULT SHOULD BE +37777 WITH
001196:                                                                                                  #  +17777 REMAINDER.
001197: 20,3662           32006        DV2CHK             CA       S13BITS
001198: 20,3663           00006                           EXTEND
001199: 20,3664           11371                           DV       SKEEP1
001200: 20,3665           63432                           AD       S-MAX
001201: 20,3666           02033                           TC       -0CHK
001202: 20,3667           47642                           CS       SBIT14                                #  -20000
001203: 20,3670           60001                           AD       L
001204: 20,3671           02041                           TC       -1CHK
001205:
001206:                                                                                                  #  DIVIDE +37776 BY +37776.  THE RESULT SHOULD BE +37777 AND THE
001207:                                                                                                  #  REMAINDER SHOULD BE +37776.
001208: 20,3672           37665        DV4CHK             CA       S+ZERO
001209: 20,3673           54001                           TS       L
001210: 20,3674           32011                           CA       DVCON
001211: 20,3675           55371                           TS       SKEEP1                                #  37776


001213: 20,3676           00006                           EXTEND
001214: 20,3677           11371                           DV       SKEEP1
001215: 20,3700           40000                           CS       A
001216: 20,3701           62011                           AD       DVCON
001217: 20,3702           02041                           TC       -1CHK
001218: 20,3703           30001                           CA       L                                     #  37776
001219: 20,3704           63432                           AD       S-MAX
001220: 20,3705           02041                           TC       -1CHK
001221:
001222:                                                                                                  #  DIVIDE SAME (ZERO).  THE CONTENTS OF THE A REGISTER AND L REGISTER WILL
001223:                                                                                                  #  HAVE OPPOSITE SIGNS BEFORE DIVISION.  THE QUOTIENT WILL BE + OR - MAX.,
001224:                                                                                                  #  DEPENDING UPON THE SIGN OF THE L REGISTER AND THE SIGN OF THE DIVISOR.
001225:                                                                                                  #  C(L) REMAINS THE SAME BECAUSE IT IS THE DIVIDEND.
001226: 20,3706           37665        DV5CHK             CA       S+ZERO
001227: 20,3707           55371                           TS       SKEEP1                                #  +0
001228: 20,3710           54001                           TS       L
001229: 20,3711           40000                           CS       A
001230: 20,3712           55372                           TS       SKEEP2                                #  -0
001231: 20,3713           00006        DV5++              EXTEND
001232: 20,3714           11371                           DV       SKEEP1                                #  +37777, +0
001233: 20,3715           55377                           TS       SKEEP7                                #  37777
001234: 20,3716           30001                           CA       L
001235: 20,3717           02032                           TC       +0CHK
001236: 20,3720           40000        DV5+-              CS       A
001237: 20,3721           00006                           EXTEND
001238: 20,3722           11372                           DV       SKEEP2                                #  40000, +0
001239: 20,3723           55376                           TS       SKEEP6                                #  40000
001240: 20,3724           61377                           AD       SKEEP7
001241: 20,3725           02033                           TC       -0CHK
001242: 20,3726           40000                           CS       A
001243: 20,3727           56001                           XCH      L                                     #  ALSO PUT -0 IN L
001244: 20,3730           02032                           TC       +0CHK
001245: 20,3731           00006        DV5-+              EXTEND
001246: 20,3732           11371                           DV       SKEEP1                                #  40000, -0
001247: 20,3733           61377                           AD       SKEEP7
001248: 20,3734           02033                           TC       -0CHK
001249: 20,3735           30001                           CA       L
001250: 20,3736           02033                           TC       -0CHK
001251: 20,3737           00006        DV5--              EXTEND
001252: 20,3740           11372                           DV       SKEEP2                                #  37777, -0
001253: 20,3741           61376                           AD       SKEEP6
001254: 20,3742           02033                           TC       -0CHK
001255: 20,3743           30001                           CA       L
001256: 20,3744           02033                           TC       -0CHK
001257: 20,3745           31376                           CA       SKEEP6                                #  CHECK QUOTIENT
001258: 20,3746           62011                           AD       DVCON
001259: 20,3747           02041                           TC       -1CHK
001260:
001261: 20,3750           04457                           TC       CHECKNJ                               #  CHECK FOR NEW JOB
001262: 20,3751           31374                           CA       SKEEP4


001264: 20,3752           00006                           EXTEND
001265: 20,3753           63607                           BZMF     DVLOOP
001266: 20,3754           25370                           INCR     SCOUNT     +2
001267: 20,3755           02101                           TC       SELFCHK                               #  START SELF-CHECK AGAIN
001268:
001269: 20,3756                        ENDSLFS1           EQUALS
001270:
001271: 01,3000                                           SETLOC   ENDFAILS
001272:
001273: 01,3000           55371        SBNKOPTN           TS       SKEEP1
001274: 01,3001           40000                           CS       A                                     #  GO TO BACKUP IDLE LOOP IF C(SMODE) IS
001275: 01,3002           67656                           AD       TWO                                   #  GREATER THAN OCTAL 11
001276: 01,3003           00006                           EXTEND
001277: 01,3004           63013                           BZMF     TOSMODE    -2
001278: 01,3005           37665                           CA       S+ZERO                                #  ZERO SMODE FOR OPTIONS ABOVE 8.
001279: 01,3006           55361                           TS       SMODE
001280: 01,3007           31371                           CA       SKEEP1
001281: 01,3010           50000                           NDX      A
001282: 01,3011           03011                           TC       SOPTON11   -1
001283: 01,3012           03034        SOPTON11           TC       DSKYCHK
001284:
001285: 01,3013           37665                           CA       S+ZERO
001286: 01,3014           55361                           TS       SMODE
001287: 01,3015           04102        TOSMODE            TC       POSTJUMP
001288: 01,3016           40047                           CADR     SMODECHK
001289:
001290:                                                                                                  #  THE FOLLOWING CONSTANTS ARE USED BY DSKYCHK.
001291: 01,3017           05265        DSKYCODE           OCTAL    05265                                 #  00
001292: 01,3020           04143                           OCTAL    04143                                 #  11
001293: 01,3021           05471                           OCTAL    05471                                 #  22
001294: 01,3022           05573                           OCTAL    05573                                 #  33
001295: 01,3023           04757                           OCTAL    04757                                 #  44
001296: 01,3024           05736                           OCTAL    05736                                 #  55
001297: 01,3025           05634                           OCTAL    05634                                 #  66
001298: 01,3026           05163                           OCTAL    05163                                 #  77
001299: 01,3027           05675                           OCTAL    05675                                 #  88
001300: 01,3030           05777                           OCTAL    05777                                 #  99
001301: 01,3031           07265        +-ZERO             OCTAL    07265
001302: 01,3032           00013        11DEC.             OCTAL    00013
001303:
001304:                                                                                                  #  BITS 2 AND 6 TURN ON THE COMPUTER ACTIVITY AND VERB-NOUN FLASH.
001305: 01,3033           00042        S11CHAN            OCTAL    00042
001306:
001307: 01,3034           37661        DSKYCHK            CAF      TEN
001308: 01,3035           55373                           TS       SKEEP3
001309: 01,3036           00004                           INHINT
001310: 01,3037           37657                           CAF      S+1                                   #  SET UP TEN MS INTERRUPT
001311: 01,3040           04536                           TC       WAITLIST
001312: 01,3041           03075 02003                     2CADR    NXTNMBR
001313:


001315: 01,3043           00003                           RELINT
001316: 01,3044           03015                           TC       TOSMODE                               #  GO TO IDLE LOOP
001317:
001318: 01,3045           55373        SDSPTAB            TS       SKEEP3
001319: 01,3046           00004                           INHINT
001320: 01,3047           51373                           NDX      SKEEP3
001321: 01,3050           43017                           CS       DSKYCODE
001322: 01,3051           54307        SBLANKS            TS       DSPTAB
001323: 01,3052           54310                           TS       DSPTAB     +1
001324: 01,3053           54311                           TS       DSPTAB     +2
001325: 01,3054           54312                           TS       DSPTAB     +3
001326: 01,3055           54313                           TS       DSPTAB     +4
001327: 01,3056           54314                           TS       DSPTAB     +5
001328: 01,3057           54315                           TS       DSPTAB     +6
001329: 01,3060           54316                           TS       DSPTAB     +7
001330: 01,3061           54317                           TS       DSPTAB     +8D
001331: 01,3062           54320                           TS       DSPTAB     +9D
001332: 01,3063           54321                           TS       DSPTAB     +10D
001333: 01,3064           33032                           CA       11DEC.
001334: 01,3065           54303                           TS       NOUT
001335:
001336: 01,3066           00004        DSKYWAIT           INHINT
001337: 01,3067           37646                           CAF      BIT10                                 #  5.12 SECOND WAIT
001338: 01,3070           04536                           TC       WAITLIST
001339: 01,3071           03075 02003                     2CADR    NXTNMBR
001340:
001341: 01,3073           00003                           RELINT
001342: 01,3074           04602                           TC       TASKOVER
001343:
001344: 01,3075           11373        NXTNMBR            CCS      SKEEP3
001345: 01,3076           03045                           TC       SDSPTAB                               #  9 THROUGH 0
001346: 01,3077           03104                           TC       -SIGN                                 #  -ZEROS
001347: 01,3100           03121                           TC       +SIGN                                 #  +ZEROS
001348: 01,3101           11372                           CCS      SKEEP2
001349: 01,3102           03135                           TC       NODSPLAY                              #  PUTS BLANKS IN DSKY DISPLAY
001350: 01,3103           03141                           TC       LITESOUT                              #  TURN OFF LIGHTS
001351:
001352: 01,3104           47657        -SIGN              CS       S+1
001353: 01,3105           55373                           TS       SKEEP3
001354: 01,3106           33033                           CA       S11CHAN                               #  TURN ON VERB-NOUN FLASH
001355: 01,3107           00006                           EXTEND                                         #  AND COMPUTER ACTIVITY LIGHTS.
001356: 01,3110           05011                           WOR      DSALMOUT
001357: 01,3111           43031                           CS       +-ZERO
001358: 01,3112           00004                           INHINT
001359: 01,3113           54307                           TS       DSPTAB
001360: 01,3114           54312                           TS       DSPTAB     +3
001361: 01,3115           54314                           TS       DSPTAB     +5
001362: 01,3116           36165                           CAF      THREE
001363: 01,3117           54303                           TS       NOUT
001364: 01,3120           03066                           TC       DSKYWAIT


001366: 01,3121           47665        +SIGN              CS       ZERO
001367: 01,3122           55373                           TS       SKEEP3
001368: 01,3123           37657                           CA       S+1
001369: 01,3124           55372                           TS       SKEEP2
001370: 01,3125           00004                           INHINT
001371: 01,3126           43031                           CS       +-ZERO
001372: 01,3127           54310                           TS       DSPTAB     +1
001373: 01,3130           54313                           TS       DSPTAB     +4
001374: 01,3131           54315                           TS       DSPTAB     +6
001375: 01,3132           36165                           CAF      THREE
001376: 01,3133           54303                           TS       NOUT
001377: 01,3134           03066                           TC       DSKYWAIT
001378:
001379: 01,3135           55372        NODSPLAY           TS       SKEEP2                                #  +0
001380: 01,3136           47644                           CS       BIT12                                 #  BLANKS
001381: 01,3137           00004                           INHINT
001382: 01,3140           03051                           TC       SBLANKS                               #  PUTS BLANKS IN ALL DISPLAYS
001383:
001384: 01,3141           43033        LITESOUT           CS       S11CHAN
001385: 01,3142           00006                           EXTEND
001386: 01,3143           03011                           WAND     DSALMOUT                              #  TURN OFF COMPUTER ACTIVITY LIGHT.
001387: 01,3144           04602                           TC       TASKOVER                              #  END OF DSKYCHK
001388:
001389: 01,3145                        ENDSLFS2           EQUALS

End of include-file AGC_BLOCK_TWO_SELF-CHECK.agc.  Parent file is MAIN.agc


