
Source Code


000002:                                                                                                  ## Copyright:    Public domain.
000003:                                                                                                  ## Filename:     ALARM_AND_ABORT.agc
000004:                                                                                                  ## Purpose:      Part of the source code for Aurora (revision 12).
000005:                                                                                                  ## Assembler:    yaYUL
000006:                                                                                                  ## Contact:      Ron Burkey <info@sandroid.org>.
000007:                                                                                                  ## Website:      https://www.ibiblio.org/apollo.
000008:                                                                                                  ## Pages:        366-367
000009:                                                                                                  ## Mod history:  2016-09-20 JL   Created.
000010:                                                                                                  ##               2016-10-18 MAS  Transcribed.
000011:
000012:                                                                                                  ## This source code has been transcribed or otherwise adapted from
000013:                                                                                                  ## digitized images of a hardcopy from the private collection of
000014:                                                                                                  ## Don Eyles.  The digitization was performed by archive.org.
000015:
000016:                                                                                                  ## Notations on the hardcopy document read, in part:
000017:
000018:                                                                                                  ##       473423A YUL SYSTEM FOR BLK2: REVISION 12 of PROGRAM AURORA BY DAP GROUP
000019:                                                                                                  ##       NOV 10, 1966
000020:
000021:                                                                                                  ##       [Note that this is the date the hardcopy was made, not the
000022:                                                                                                  ##       date of the program revision or the assembly.]
000023:
000024:                                                                                                  ## The scan images (with suitable reduction in storage size and consequent
000025:                                                                                                  ## reduction in image quality) are available online at
000026:                                                                                                  ##       https://www.ibiblio.org/apollo.
000027:                                                                                                  ## The original high-quality digital images are available at archive.org:
000028:                                                                                                  ##       https://archive.org/details/aurora00dapg
000029:


000031:                                                                                                  #           THE FOLLOWING SUBROUTINE MAY BE CALLED TO DISPLAY A NON-ABORTIVE ALARM CONDITION. IT MAY BE CALLED
000032:                                                                                                  #  EITHER IN INTERRUPT OR UNDER EXECUTIVE CONTROL.
000033:
000034:                                                                                                  #           CALLING SEQUENCE IS AS FOLLOWS:
000035:
000036:                                                                                                  #           TC     ALARM
000037:                                                                                                  #           OCT    AAANN           ALARM NO. NN IN GENERAL AREA AAA.
000038:                                                                                                  #                                  (RETURNS HERE)
000039:
000040:    5413                                           SETLOC   ENDPINBF
000041:    5413     1363                                  EBANK=   FAILREG
000042:
000043:    5413           00004        ALARM              INHINT
000044:    5414           56002                           XCH      Q
000045:    5415           54077                           TS       RUPTREG4
000046:
000047:    5416           11363                           CCS      FAILREG                               #  SEE IF ONE FAILURE HAS OCCURRED SINCE
000048:                                                                                                  #   THE LAST ERROR RESET.
000049:    5417           05425                           TC       MULTFAIL                              #  YES - INDICATE MULTIPLE FAILURES.
000050:    5420           05430                           TC       NEWALARM                              #  FIRST SINCE RESET.
000051:
000052:    5421           30077        MULTEXIT           CA       RUPTREG4                              #  FREE RUPTREG4 BEFORE RELINT.
000053:    5422           00003                           RELINT
000054:    5423           50000                           INDEX    A
000055:    5424           00001                           TC       1                                     #  RETURN TO CALLER.
000056:
000057:    5425           66042        MULTFAIL           AD       OCT40001                              #  BIT 15 = 1 INDICATES MULTIPLE FAILURES.
000058:    5426           55363                           TS       FAILREG
000059:    5427           05421                           TC       MULTEXIT
000060:
000061:    5430           05440        NEWALARM           TC       PROGLARM                              #  TURN ON THE PROGRAM ALARM LIGHT.
000062:
000063:    5431           34535                           CAF      PRIO37
000064:    5432           04363                           TC       NOVAC
000065:    5433           02773 02002                     2CADR    DOALARM                               #  CALL (SEPARATE) JOB FOR DISPLAY.
000066:
000067:    5435           50077                           INDEX    RUPTREG4
000068:    5436           30000                           CAF      0
000069:    5437           05426                           TC       MULTFAIL   +1
000070:


000073:    5440           45445        PROGLARM           CS       OCT40400                              #  TURN ON PROGRAM ALARM LIGHT VIA OUT0.
000074:    5441           70322                           MASK     DSPTAB     +11D
000075:    5442           65445                           AD       OCT40400
000076:    5443           54322                           TS       DSPTAB     +11D
000077:    5444           00002                           TC       Q
000078:
000079:    5445           40400        OCT40400           OCT      40400
000080:


000082:                                                                                                  #           THE FOLLOWING ROUTINE IS CALLED TO INITIATE AN ABORT. FAILREG IS SET (ACCORDING TO THE MULTIPLE
000083:                                                                                                  #  FAILURES CONVENTION) AND A RE-START IS INITIATED BY TC-SELF. THIS IS CALLED ONLY UNDER RARE CIRCUMSTANCES.
000084:
000085:    5446           00004        ABORT              INHINT                                         #  MAY BE CALLED IN INTERRUPT OR UNDER EXEC
000086:    5447           50002                           INDEX    Q                                     #  PICK UP FAILURE CODE.
000087:    5450           30000                           CAF      0
000088:    5451           54065                           TS       ITEMP1
000089:
000090:    5452           11363                           CCS      FAILREG                               #  SEE IF THIS IS A MULTIPLE FAILURE.
000091:    5453           05456                           TC       SETMULTF                              #  SET BIT 15 TO INDICATE YES.
000092:    5454           05460                           TC       NEWABORT                              #  FIRST FAILURE.
000093:
000094:    5455           05455        WHIMPER            TC       WHIMPER                               #  NOT WITH A BANG...
000095:
000096:    5456           66042        SETMULTF           AD       OCT40001                              #  RESTORE AND SET BIT 15.
000097:    5457           05462                           TC       +3
000098:
000099:    5460           05440        NEWABORT           TC       PROGLARM                              #  FIRST FAILURE - TURN ON ALARM LIGHT.
000100:    5461           56065                           XCH      ITEMP1
000101:    5462           55363                 +3        TS       FAILREG
000102:    5463           05455                           TC       WHIMPER                               #  UNIVERSAL ABORT LOCATION.
000103:
000104:    5464           56002        CCSHOLE            XCH      Q
000105:    5465           55364                           TS       SFAIL
000106:
000107:    5466           05446                           TC       ABORT
000108:    5467           01103                           OCT      1103
000109:
000110:    5470                        ENDFAILF           EQUALS
000111:
000112:                                                                                                  #           JOB WHICH CALLS NVSUB FOR ALARM DISPLAY.
000113:
000114: 01,2773                                           SETLOC   ENDWAITS
000115:
000116: 01,2773           05317        DOALARM            TC       GRABWAIT                              #  DISPLAY FAILREG.
000117: 01,2774           32777                           CAF      FAILDISP
000118: 01,2775           05332                           TC       NVSBWAIT
000119:
000120: 01,2776           04437                           TC       EJFREE                                #  FREE DISPLAY AND END JOB.
000121:
000122: 01,2777           00531        FAILDISP           OCT      00531
000123:
000124: 01,3000                        ENDFAILS           EQUALS

End of include-file ALARM_AND_ABORT.agc.  Parent file is MAIN.agc


