
Source Code


000002:                                                                                                  ## Copyright:    Public domain.
000003:                                                                                                  ## Filename:     ALARM_AND_ABORT.agc
000004:                                                                                                  ## Purpose:      Part of the source code for Aurora (revision 12).
000005:                                                                                                  ## Assembler:    yaYUL
000006:                                                                                                  ## Contact:      Ron Burkey <info@sandroid.org>.
000007:                                                                                                  ## Website:      https://www.ibiblio.org/apollo.
000008:                                                                                                  ## Pages:        366-367
000009:                                                                                                  ## Mod history:  2016-09-20 JL   Created.
000010:                                                                                                  ##               2016-10-18 MAS  Transcribed.
000011:                                                                                                  ##               2016-12-08 RSB  Proofed comments with octopus/ProoferComments
000012:                                                                                                  ##                               but no errors found.
000013:
000014:                                                                                                  ## This source code has been transcribed or otherwise adapted from
000015:                                                                                                  ## digitized images of a hardcopy from the private collection of
000016:                                                                                                  ## Don Eyles.  The digitization was performed by archive.org.
000017:
000018:                                                                                                  ## Notations on the hardcopy document read, in part:
000019:
000020:                                                                                                  ##       473423A YUL SYSTEM FOR BLK2: REVISION 12 of PROGRAM AURORA BY DAP GROUP
000021:                                                                                                  ##       NOV 10, 1966
000022:
000023:                                                                                                  ##       [Note that this is the date the hardcopy was made, not the
000024:                                                                                                  ##       date of the program revision or the assembly.]
000025:
000026:                                                                                                  ## The scan images (with suitable reduction in storage size and consequent
000027:                                                                                                  ## reduction in image quality) are available online at
000028:                                                                                                  ##       https://www.ibiblio.org/apollo.
000029:                                                                                                  ## The original high-quality digital images are available at archive.org:
000030:                                                                                                  ##       https://archive.org/details/aurora00dapg
000031:


000033:                                                                                                  #           THE FOLLOWING SUBROUTINE MAY BE CALLED TO DISPLAY A NON-ABORTIVE ALARM CONDITION. IT MAY BE CALLED
000034:                                                                                                  #  EITHER IN INTERRUPT OR UNDER EXECUTIVE CONTROL.
000035:
000036:                                                                                                  #           CALLING SEQUENCE IS AS FOLLOWS:
000037:
000038:                                                                                                  #           TC     ALARM
000039:                                                                                                  #           OCT    AAANN           ALARM NO. NN IN GENERAL AREA AAA.
000040:                                                                                                  #                                  (RETURNS HERE)
000041:
000042:    5413                                           SETLOC   ENDPINBF
000043:    5413     1363                                  EBANK=   FAILREG
000044:
000045:    5413           00004        ALARM              INHINT
000046:    5414           56002                           XCH      Q
000047:    5415           54077                           TS       RUPTREG4
000048:
000049:    5416           11363                           CCS      FAILREG                               #  SEE IF ONE FAILURE HAS OCCURRED SINCE
000050:                                                                                                  #   THE LAST ERROR RESET.
000051:    5417           05425                           TC       MULTFAIL                              #  YES - INDICATE MULTIPLE FAILURES.
000052:    5420           05430                           TC       NEWALARM                              #  FIRST SINCE RESET.
000053:
000054:    5421           30077        MULTEXIT           CA       RUPTREG4                              #  FREE RUPTREG4 BEFORE RELINT.
000055:    5422           00003                           RELINT
000056:    5423           50000                           INDEX    A
000057:    5424           00001                           TC       1                                     #  RETURN TO CALLER.
000058:
000059:    5425           66042        MULTFAIL           AD       OCT40001                              #  BIT 15 = 1 INDICATES MULTIPLE FAILURES.
000060:    5426           55363                           TS       FAILREG
000061:    5427           05421                           TC       MULTEXIT
000062:
000063:    5430           05440        NEWALARM           TC       PROGLARM                              #  TURN ON THE PROGRAM ALARM LIGHT.
000064:
000065:    5431           34535                           CAF      PRIO37
000066:    5432           04363                           TC       NOVAC
000067:    5433           02773 02002                     2CADR    DOALARM                               #  CALL (SEPARATE) JOB FOR DISPLAY.
000068:
000069:    5435           50077                           INDEX    RUPTREG4
000070:    5436           30000                           CAF      0
000071:    5437           05426                           TC       MULTFAIL   +1
000072:


000075:    5440           45445        PROGLARM           CS       OCT40400                              #  TURN ON PROGRAM ALARM LIGHT VIA OUT0.
000076:    5441           70322                           MASK     DSPTAB     +11D
000077:    5442           65445                           AD       OCT40400
000078:    5443           54322                           TS       DSPTAB     +11D
000079:    5444           00002                           TC       Q
000080:
000081:    5445           40400        OCT40400           OCT      40400
000082:


000084:                                                                                                  #           THE FOLLOWING ROUTINE IS CALLED TO INITIATE AN ABORT. FAILREG IS SET (ACCORDING TO THE MULTIPLE
000085:                                                                                                  #  FAILURES CONVENTION) AND A RE-START IS INITIATED BY TC-SELF. THIS IS CALLED ONLY UNDER RARE CIRCUMSTANCES.
000086:
000087:    5446           00004        ABORT              INHINT                                         #  MAY BE CALLED IN INTERRUPT OR UNDER EXEC
000088:    5447           50002                           INDEX    Q                                     #  PICK UP FAILURE CODE.
000089:    5450           30000                           CAF      0
000090:    5451           54065                           TS       ITEMP1
000091:
000092:    5452           11363                           CCS      FAILREG                               #  SEE IF THIS IS A MULTIPLE FAILURE.
000093:    5453           05456                           TC       SETMULTF                              #  SET BIT 15 TO INDICATE YES.
000094:    5454           05460                           TC       NEWABORT                              #  FIRST FAILURE.
000095:
000096:    5455           05455        WHIMPER            TC       WHIMPER                               #  NOT WITH A BANG...
000097:
000098:    5456           66042        SETMULTF           AD       OCT40001                              #  RESTORE AND SET BIT 15.
000099:    5457           05462                           TC       +3
000100:
000101:    5460           05440        NEWABORT           TC       PROGLARM                              #  FIRST FAILURE - TURN ON ALARM LIGHT.
000102:    5461           56065                           XCH      ITEMP1
000103:    5462           55363                 +3        TS       FAILREG
000104:    5463           05455                           TC       WHIMPER                               #  UNIVERSAL ABORT LOCATION.
000105:
000106:    5464           56002        CCSHOLE            XCH      Q
000107:    5465           55364                           TS       SFAIL
000108:
000109:    5466           05446                           TC       ABORT
000110:    5467           01103                           OCT      1103
000111:
000112:    5470                        ENDFAILF           EQUALS
000113:
000114:                                                                                                  #           JOB WHICH CALLS NVSUB FOR ALARM DISPLAY.
000115:
000116: 01,2773                                           SETLOC   ENDWAITS
000117:
000118: 01,2773           05317        DOALARM            TC       GRABWAIT                              #  DISPLAY FAILREG.
000119: 01,2774           32777                           CAF      FAILDISP
000120: 01,2775           05332                           TC       NVSBWAIT
000121:
000122: 01,2776           04437                           TC       EJFREE                                #  FREE DISPLAY AND END JOB.
000123:
000124: 01,2777           00531        FAILDISP           OCT      00531
000125:
000126: 01,3000                        ENDFAILS           EQUALS

End of include-file ALARM_AND_ABORT.agc.  Parent file is MAIN.agc


