
Source Code


000002:                                                                                                  ## Copyright:    Public domain.
000003:                                                                                                  ## Filename:     AOSTASK.agc
000004:                                                                                                  ## Purpose:      Part of the source code for Aurora (revision 12).
000005:                                                                                                  ## Assembler:    yaYUL
000006:                                                                                                  ## Contact:      Ron Burkey <info@sandroid.org>.
000007:                                                                                                  ## Website:      https://www.ibiblio.org/apollo.
000008:                                                                                                  ## Pages:        0630-0634
000009:                                                                                                  ## Mod history:  2016-09-20 JL   Created.
000010:                                                                                                  ##               2016-09-22 OH   Initial Transcription
000011:                                                                                                  ##               2016-10-05 HG   Add missing   TS ITEMP1
000012:                                                                                                  ##                               Add missing page 634.
000013:                                                                                                  ##                               use new formatting
000014:                                                                                                  ##               2016-12-08 RSB  Proofed comments with octopus/ProoferComments
000015:                                                                                                  ##                               and fixed the errors found.
000016:
000017:                                                                                                  ## This source code has been transcribed or otherwise adapted from
000018:                                                                                                  ## digitized images of a hardcopy from the private collection of
000019:                                                                                                  ## Don Eyles.  The digitization was performed by archive.org.
000020:
000021:                                                                                                  ## Notations on the hardcopy document read, in part:
000022:
000023:                                                                                                  ##       473423A YUL SYSTEM FOR BLK2: REVISION 12 of PROGRAM AURORA BY DAP GROUP
000024:                                                                                                  ##       NOV 10, 1966
000025:
000026:                                                                                                  ##       [Note that this is the date the hardcopy was made, not the
000027:                                                                                                  ##       date of the program revision or the assembly.]
000028:
000029:                                                                                                  ## The scan images (with suitable reduction in storage size and consequent
000030:                                                                                                  ## reduction in image quality) are available online at
000031:                                                                                                  ##       https://www.ibiblio.org/apollo.
000032:                                                                                                  ## The original high-quality digital images are available at archive.org:
000033:                                                                                                  ##       https://archive.org/details/aurora00dapg
000034:


000036: 25,3064                                           BANK     25
000037: 25,3064  E6,1634                                  EBANK=   AOSQ
000038:
000039: 25,3064           37650        AOSTASK            CAF      BIT8                                  #  TEST POWERED ASCENT FLAG (BIT8/DAPBOOLS)
000040: 25,3065           70765                           MASK     DAPBOOLS                              #  0- NOT POWERED ASCENT
000041: 25,3066           00006                           EXTEND                                         #  1- POWERED ASCENT
000042: 25,3067           13325                           BZF      COASTASC                              #  END CYCLE OF TASKS DURING ASCENT COAST
000043:
000044: 25,3070           31671                           CAE      KCOEFCTR                              #  TEST KCOEFCTR FOR INITIAL PASS
000045: 25,3071           00006                           EXTEND
000046: 25,3072           13275                           BZF      ZEROCOEF                              #  DISCONTINUITY SECTION FOR COEFFA
000047:
000048: 25,3073           63367                           AD       DEC-399                               #  TEST KCOEFCTR FOR CONSTANT RANGE
000049: 25,3074           00006                           EXTEND                                         #  ON BOTH K AND COEFFA
000050: 25,3075           63077                           BZMF     +2
000051: 25,3076           13301                           TCF      KONENOW
000052:
000053: 25,3077           33410                           CAF      0.00125                               #  COEFFA = 0.00125(T) + 0.25
000054: 25,3100           00006                           EXTEND
000055: 25,3101           71671                           MP       KCOEFCTR
000056: 25,3102           37643                           CAF      BIT13
000057: 25,3103           60001                           AD       L
000058: 25,3104           54066        COEFFA             TS       ITEMP2
000059:
000060: 25,3105           33411                           CAF      0.0014                                #  K = 0.0014(T) + 0.44
000061: 25,3106           00006                           EXTEND
000062: 25,3107           71671                           MP       KCOEFCTR
000063: 25,3110           33412                           CAF      0.44
000064: 25,3111           60001                           AD       L
000065: 25,3112           54065                           TS       ITEMP1
000066: 25,3113           40000                           COM                                            #  (1-K),QR SCALED AT 1
000067: 25,3114           67637                           AD       POSMAX                                #  (1 BIT ERROR DOES NOT COMPOUND)
000068: 25,3115           55657                           TS       (1-K)QR
000069:
000070: 25,3116           00006                           EXTEND                                         #  (1-K)/8 IS (1-K) SCALED AT 8
000071: 25,3117           77644                           MP       BIT12
000072: 25,3120           55660                           TS       (1-K)/8
000073:
000074: 25,3121           30065                           CAE      ITEMP1                                #  WFORQR = K/DT SCALED AT 16
000075: 25,3122           00006                           EXTEND
000076: 25,3123           73403                           MP       10AT16WL                              #  DT = .1 SECS
000077: 25,3124           55656                           TS       WFORQR
000078:
000079: 25,3125           40065                           CS       ITEMP1                                #  FORM (.1-.05K) FROM K SCALED AT 1
000080: 25,3126           00006                           EXTEND                                         #  WHICH IS USED AS IS BUT SINCE THESUM
000081: 25,3127           73375                           MP       .05AT.5                               #  IS TO BE SCALED AT 1/2, THE TWO
000082: 25,3130           63376                           AD       .1AT.5                                #  CONSTANTS REFLECT THAT SCALE FACTOR
000083: 25,3131           54065                           TS       ITEMP1
000084:
000085: 25,3132           30066        COEFFA1            CAE      ITEMP2                                #  FORM COEFFA(AOSQ)
000086: 25,3133           00006                           EXTEND
000087:


000089:
000090: 25,3134           71634                           MP       AOSQ
000091: 25,3135           55634                           TS       AOSQ                                  #  FIRST TERM OF NEW AOSQ, SCALED AT PI/2
000092:
000093: 25,3136           30066                           CAE      ITEMP2                                #  FORM COEFFA(AOSR)
000094: 25,3137           00006                           EXTEND
000095: 25,3140           71635                           MP       AOSR
000096: 25,3141           55635                           TS       AOSR                                  #  FIRST TERM OF NEW AOSR, SCALED AT PI/2
000097:


000099: 25,3142           40066                           CS       ITEMP2                                #  FORM .5(1-COEFFA) SCALED AT 2
000100: 25,3143           00006                           EXTEND                                         #  FROM COEFFA SCALED AT 1 WHICH IS THE
000101: 25,3144           77643                           MP       BIT13                                 #  SAME AS 2(COEFFA) SCALED AT 2
000102: 25,3145           67643                           AD       BIT13                                 #  SO MULTIPLY BY 1/4 TO GET .5(COEFFA)
000103: 25,3146           54066                           TS       ITEMP2                                #  AND 1/4 IS 1/2 WHEN SCALED AT 2


000105:
000106: 25,3147           41417                           CS       OMEGAQ                                #  SAVE PRESENT OMEGAQ FOR NEXT PASS
000107: 25,3150           57644                           XCH      OLDWFORQ                              #  GET -(LAST OMEGAQ)
000108: 25,3151           00006                           EXTEND
000109: 25,3152           61640                           SU       SUMRATEQ                              #  FORM- W - W(OLD) - SUMRATE = SUM
000110: 25,3153           61417                           AD       OMEGAQ                                #  SCALED AT PI/4 RADIANS/SECOND
000111: 25,3154           00006                           EXTEND
000112: 25,3155           70066                           MP       ITEMP2                                #  AOSQ = COEFFA(AOSQ)+.5(1-COEFFA)(SUM)
000113: 25,3156           27634                           ADS      AOSQ                                  #  SCALED AT PI/2 RADIANS/SECOND(2)
000114:
000115: 25,3157           41421                           CS       OMEGAR                                #  SAVE PRESENT OMEGAQ FOR NEXT PASS
000116: 25,3160           57645                           XCH      OLDWFORR                              #  GET -(LAST OMEGAR)
000117: 25,3161           00006                           EXTEND
000118: 25,3162           61641                           SU       SUMRATER                              #  FORM- W - W(OLD) - SUMRATE = SUM
000119: 25,3163           61421                           AD       OMEGAR                                #  SCALED AT PI/4 RADIANS/SECOND
000120: 25,3164           00006                           EXTEND
000121: 25,3165           70066                           MP       ITEMP2                                #  AOSR = COEFFA(AOSR)+.5(1-COEFFA)(SUM)
000122: 25,3166           27635                           ADS      AOSR                                  #  SCALED AT PI/2 RADIANS/SECOND(2)
000123:
000124: 25,3167           30065                           CAE      ITEMP1
000125: 25,3170           00006                           EXTEND                                         #  FORM TERM FOR RATE DERIVATION
000126: 25,3171           71634                           MP       AOSQ                                  #  (.1-.05K)AOSQ
000127: 25,3172           55642                           TS       AOSQTERM                              #  SCALED AT PI/4 RADIANS/SECOND
000128:
000129: 25,3173           30065                           CAE      ITEMP1
000130: 25,3174           00006                           EXTEND                                         #  FORM TERM FOR RATE DERIVATION
000131: 25,3175           71635                           MP       AOSR                                  #  (.1-.05K)AOSR
000132: 25,3176           55643                           TS       AOSRTERM                              #  SCALED AT PI/4 RADIANS/SECOND
000133:
000134: 25,3177           31634                           CAE      AOSQ                                  #  FORM AOS FOR U-AXIS
000135: 25,3200           61635                           AD       AOSR
000136: 25,3201           00006                           EXTEND
000137: 25,3202           73377                           MP       .707WL
000138: 25,3203           55636                           TS       AOSU                                  #  SCALED AT PI/2 RADIANS/SECOND(2)
000139:
000140: 25,3204           41634                           CS       AOSQ                                  #  FORM AOS FOR V-AXIS
000141: 25,3205           61635                           AD       AOSR
000142:


000144: 25,3206           00006                           EXTEND
000145: 25,3207           73377                           MP       .707WL
000146: 25,3210           55637                           TS       AOSV                                  #  SCALED AT PI/2 RADIANS/SECOND(2)
000147:
000148: 25,3211           36165                           CAF      THREE                                 #  SET UP LOOP FOR Q,R,U,V-AXES
000149: 25,3212           54065                           TS       AXISCNTR
000150:
000151: 25,3213           50065        ALLAXES            INDEX    AXISCNTR
000152: 25,3214           11634                           CCS      AOSQ                                  #  FORM ABSOLUTE VALUE OF AOS
000153: 25,3215           67657                           AD       ONE
000154: 25,3216           13220                           TCF      +2
000155: 25,3217           67657                           AD       ONE
000156: 25,3220           50065                           INDEX    AXISCNTR                              #  SAVE IN ITEMP REGISTER (3-6)
000157: 25,3221           54070                           TS       ABVLAOSQ                              #  SCALED AT PI/2 RADIANS/SECOND(2)
000158: 25,3222           63400                           AD       -.02R/S2                              #  -.02 RADIANS/SECOND(2) SCALED AT PI/2
000159: 25,3223           00006                           EXTEND
000160: 25,3224           63263                           BZMF     CONSTMIN                              #  USE 1/(.02) SEC(2)/RAD AS 1/AMIN
000161: 25,3225           63413                           AD       +.02R/S2
000162: 25,3226           54066                           TS       ITEMP2
000163: 25,3227           37651                           CAF      BIT7
000164: 25,3230           22007                           ZL                                             #  SCALE FACTOR FOR .5ACCMIN.
000165: 25,3231           00006                           EXTEND
000166: 25,3232           10066                           DV       ITEMP2
000167: 25,3233           50065        ACCMINVL           INDEX    AXISCNTR
000168: 25,3234           55651                           TS       .5ACCMNQ                              #  SCALED AT 2(+8)/PI
000169:
000170: 25,3235           33400                           CAF      -.02R/S2                              #  CALCULATE ONE OF THE FOLLOWING (4) SUMS:
000171: 25,3236           00006                           EXTEND                                         #  2JETAC(Q,R)-ABAOS(Q,R)-.02RAD/SEC(2) OR
000172: 25,3237           50065                           INDEX    AXISCNTR                              #  1JETAC(U,V)-ABAOS(1,V)-.02RAD/SEC(2)
000173: 25,3240           60070                           SU       ABVLAOSQ                              #  EACH SUM HAS EACH TERM SCALED AT PI/2
000174: 25,3241           50065                           INDEX    AXISCNTR                              #  THE "OUTER LOOP" IS DEFINED TO CALCULATE
000175: 25,3242           61630                           AD       1JACCQ                                #  THE VALUES 1JACCQ, 1JACCR SCALED AT PI/4
000176: 25,3243           00006                           EXTEND                                         #  AND 1JACCU, 1JACCV SCALED AT PI/2 WHERE
000177: 25,3244           63265                           BZMF     DEMANDAC                              #  1JACCU = 2(.707)(1JACCQ+1JACCR) AND
000178: 25,3245           37665                           CAF      ZERO                                  #  1JACCV = 2(.707)(1JACCQ+1JACCR)
000179: 25,3246           50065                           INDEX    AXISCNTR                              #  WHERE THE CALCULATIONS USE THE FACT THAT
000180: 25,3247           55665                           TS       QMANDACC                              #  1JACC(Q,R) AT PI/4 = 2JACC(Q,R) AT PI/2
000181: 25,3250           50065                           INDEX    AXISCNTR                              #  MANDACC(Q,R)=1 MEANS USE 4 JETS, 0 FOR 2
000182: 25,3251           31445                           CAE      1/2JTSQ                               #  MANDACC(U,V)=1 MEANS USE 2 JETS, 0 FOR 1
000183: 25,3252           00006                           EXTEND
000184: 25,3253           77642                           MP       BIT14
000185: 25,3254           50065        AXISLOOP           INDEX    AXISCNTR                              #  SET UP 1/NJTSX TO 1/2JTSX FOR URGENCY
000186: 25,3255           55661                           TS       1/NJTSQ                               #  (DOES NOT COUNT FOR U,V-AXES)
000187:
000188: 25,3256           10065                           CCS      AXISCNTR                              #  DECREMENT LOOP COUNTER AND TEST FOR END
000189: 25,3257           13261                           TCF      +2
000190: 25,3260           13313                           TCF      NEXTCALL                              #  FINISHED LOOP
000191:
000192: 25,3261           54065                           TS       AXISCNTR
000193: 25,3262           13213                           TCF      ALLAXES                               #  CONTINUE LOOP
000194:


000196: 25,3263           33402        CONSTMIN           CAF      AMINCNST                              #  1/AMIN = 1/(.02) SEC(2)/RAD AT 2(8)/PI
000197: 25,3264           13233                           TCF      ACCMINVL
000198:
000199: 25,3265           37637        DEMANDAC           CAF      POSMAX                                #  SET MANDATORY HIGH ACCELERATION FLAG TO
000200: 25,3266           50065                           INDEX    AXISCNTR                              #  OVER-RIDE 2 JET DECISION FOR Q,R-AXES OR
000201: 25,3267           55665                           TS       QMANDACC                              #  2 JET OPTIONAL DECISION FOR U,V-AXES
000202: 25,3270           50065                           INDEX    AXISCNTR                              #  FORM 1/4JTSX VALUE FOR USE IN URGENCY
000203: 25,3271           31445                           CAE      1/2JTSQ                               #  FROM 1/2JTSX
000204: 25,3272           00006                           EXTEND                                         #  (DOES NOT COUNT FOR U,V-AXES)
000205: 25,3273           77643                           MP       BIT13
000206: 25,3274           13254                           TCF      AXISLOOP
000207:
000208: 25,3275           37656        ZEROCOEF           CAF      TWO                                   #  INITIALIZE TIME SETTING
000209: 25,3276           55671                           TS       KCOEFCTR
000210: 25,3277           37665                           CAF      ZERO
000211: 25,3300           13104                           TCF      COEFFA
000212:
000213: 25,3301           37665        KONENOW            CAF      ZERO                                  #  K=1, SO 1-K AT EITHER SCALING IS ZERO
000214: 25,3302           22007                           ZL                                             #  EXTEND, DCA DPZERO IS FASTER BUT WASTES
000215: 25,3303           53660                           DXCH     (1-K)QR                               #  STORAGE IN SWITCHED FIXED UNLESS IN FF
000216: 25,3304           33403                           CAF      10AT16WL                              #  WFORQR = K/DT = 10K = 10
000217: 25,3305           55656                           TS       WFORQR                                #  SCALED AT 16
000218: 25,3306           33375                           CAF      .05AT.5                               #  SAVE (.1-.05K) SCALED AT 1/2
000219: 25,3307           54065                           TS       ITEMP1                                #  FOR AOSTERMS
000220: 25,3310           33404                           CAF      .75                                   #  SET COEFFA = .75
000221: 25,3311           54066                           TS       ITEMP2
000222: 25,3312           13132                           TCF      COEFFA1
000223: 25,3313           33405        NEXTCALL           CAF      2SECSAOS                              #  SET UP WAITLIST CALL FOR TWO SECS
000224: 25,3314           04536                           TC       WAITLIST
000225: 25,3315           03064 52006                     2CADR    AOSTASK
000226:
000227: 25,3317           37656                           CAF      TWO                                   #  INCREMENT TIME COUNTER
000228: 25,3320           27671                           ADS      KCOEFCTR
000229: 25,3321           37665                           CAF      ZERO                                  #  ZERO SUMMED RATES
000230: 25,3322           55640                           TS       SUMRATEQ
000231: 25,3323           55641                           TS       SUMRATER
000232: 25,3324           14602                           TCF      TASKOVER
000233:
000234: 25,3325           33406        COASTASC           CAF      0.3125WL


000236: 25,3326           55656                           TS       WFORQR
000237: 25,3327           00006                           EXTEND
000238: 25,3330           33415                           DCA      (1-K)S
000239: 25,3331           53660                           DXCH     (1-K)QR


000242: 25,3332           37655                           CAF      BIT3
000243: 25,3333           70765                           MASK     DAPBOOLS
000244: 25,3334           67655                           AD       BIT3
000245: 25,3335           54765                           TS       DAPBOOLS
000246: 25,3336           33402                           CAF      0.30680
000247: 25,3337           55650                           TS       .5ACCMNE
000248: 25,3340           55651                           TS       .5ACCMNQ
000249:


000251: 25,3341           55652                           TS       .5ACCMNR
000252: 25,3342           55653                           TS       .5ACCMNU
000253: 25,3343           55654                           TS       .5ACCMNV
000254: 25,3344           00006                           EXTEND
000255: 25,3345           31446                           DCA      1/2JTSQ
000256: 25,3346           53662                           DXCH     1/NJTSQ
000257: 25,3347           00006                           EXTEND
000258: 25,3350           31450                           DCA      1/2JETSU
000259: 25,3351           53664                           DXCH     1/NJTSU


000261: 25,3352           33407                           CAF      0.00167A
000262: 25,3353           55647                           TS       MINIMPDB
000263: 25,3354           55646                           TS       DBMINIMP
000264: 25,3355           37665                           CAF      ZERO
000265: 25,3356           55634                           TS       AOSQ
000266: 25,3357           55635                           TS       AOSR
000267: 25,3360           55642                           TS       AOSQTERM
000268: 25,3361           55643                           TS       AOSRTERM
000269: 25,3362           55665                           TS       QMANDACC
000270: 25,3363           55666                           TS       RMANDACC
000271: 25,3364           55667                           TS       UMANDACC
000272: 25,3365           55670                           TS       VMANDACC
000273: 25,3366           14602                           TCF      TASKOVER
000274:
000275: 25,3367     0065               AXISCNTR           EQUALS   ITEMP1
000276: 25,3367           77160        DEC-399            DEC      -399       B-14                       #  BOUND FOR CONSTANT RANGE: T.GE.400 SECS.
000277: 25,3370           00024        0.0012             DEC      0.0012
000278: 25,3371           20510        0.52               DEC      0.52
000279: 25,3372           77537        DEC-160            DEC      -160       B-14
000280: 25,3373           00047        0.0024             DEC      0.0024
000281: 25,3374           13555        0.366              DEC      0.366
000282: 25,3375           03146        .05AT.5            DEC      0.1
000283: 25,3376           06315        .1AT.5             DEC      0.2
000284: 25,3377           26501        .707WL             DEC      0.70711                               ## Note: the following appears handrwiten
000285: 25,3400           77456        -.02R/S2           DEC      -.01273                               ## in red ink in the comments column
000286: 25,3401           00641        .04R/S2            DEC      0.02546                               ## WCHANGER  CAF  0.3/25WL
000287: 25,3402           11643        0.30680            DEC      0.30680                               ## TS        WFORP
000288: 25,3403           24000        10AT16WL           DEC      0.625                                 ## TS        WFORQR
000289: 25,3404           30000        .75                DEC      0.75                                  ## EXTEND
000290: 25,3405  25,3402               AMINCNST           EQUALS   0.30680                               ## DCA       (1-K)S
000291: 25,3405           00310        2SECSAOS           DEC      200        B-14                       ## DXCH      (1-K)QR
000292: 25,3406           12000        0.3125WL           DEC      0.3125
000293: 25,3407           00033        0.00167A           DEC      0.00167
000294: 25,3410           00024        0.00125            DEC      0.00125
000295: 25,3411           00027        0.0014             DEC      0.0014
000296: 25,3412           16051        0.44               DEC      0.44
000297: 25,3413           00321        +.02R/S2           DEC      0.01273
000298: 25,3414           20000        (1-K)S             DEC      0.5
000299: 25,3415           02000                           DEC      0.0625
000300:
000301:
000302:
000303:

End of include-file AOSTASK.agc.  Parent file is MAIN.agc


