
Source Code


000002:                                                                                                  ## Copyright:    Public domain.
000003:                                                                                                  ## Filename:     ASCENT_INERTIA_UPDATER.agc
000004:                                                                                                  ## Purpose:      Part of the source code for Aurora (revision 12).
000005:                                                                                                  ## Assembler:    yaYUL
000006:                                                                                                  ## Contact:      Ron Burkey <info@sandroid.org>.
000007:                                                                                                  ## Website:      https://www.ibiblio.org/apollo.
000008:                                                                                                  ## Pages:        639-641
000009:                                                                                                  ## Mod history:  2016-09-20 JL   Created.
000010:                                                                                                  ##               2016-09-21 MC   Filled out.
000011:                                                                                                  ##               2016-10-05 HG   Insert missed TC ASCENGON
000012:                                                                                                  ##               2016-10-16 HG   Fix operand 1/3JTS -> 1/2JTS
000013:
000014:                                                                                                  ## This source code has been transcribed or otherwise adapted from
000015:                                                                                                  ## digitized images of a hardcopy from the private collection of
000016:                                                                                                  ## Don Eyles.  The digitization was performed by archive.org.
000017:
000018:                                                                                                  ## Notations on the hardcopy document read, in part:
000019:
000020:                                                                                                  ##       473423A YUL SYSTEM FOR BLK2: REVISION 12 of PROGRAM AURORA BY DAP GROUP
000021:                                                                                                  ##       NOV 10, 1966
000022:
000023:                                                                                                  ##       [Note that this is the date the hardcopy was made, not the
000024:                                                                                                  ##       date of the program revision or the assembly.]
000025:
000026:                                                                                                  ## The scan images (with suitable reduction in storage size and consequent
000027:                                                                                                  ## reduction in image quality) are available online at
000028:                                                                                                  ##       https://www.ibiblio.org/apollo.
000029:                                                                                                  ## The original high-quality digital images are available at archive.org:
000030:                                                                                                  ##       https://archive.org/details/aurora00dapg
000031:


000033:
000034: 25,3525           03570        IXXTASK            TC       JACCESTP
000035: 25,3526           03563                           TC       ASCENGON
000036:
000037: 25,3527           00006                           EXTEND
000038: 25,3530           27461                           DIM      IXX
000039: 25,3531           33560                           CAF      IXXTIME
000040: 25,3532           04536                           TC       WAITLIST
000041: 25,3533           03525 52006                     2CADR    IXXTASK
000042:
000043: 25,3535           14602                           TCF      TASKOVER
000044:
000045: 25,3536           03604        IYYTASK            TC       JACCESTQ
000046:
000047: 25,3537           03563                           TC       ASCENGON
000048:
000049: 25,3540           00006                           EXTEND
000050: 25,3541           27462                           DIM      IYY
000051: 25,3542           33561                           CAF      IYYTIME
000052: 25,3543           04536                           TC       WAITLIST
000053: 25,3544           03536 52006                     2CADR    IYYTASK
000054:
000055: 25,3546           14602                           TCF      TASKOVER
000056:
000057: 25,3547           03621        IZZTASK            TC       JACCESTR
000058:
000059: 25,3550           03563                           TC       ASCENGON
000060:
000061: 25,3551           00006                           EXTEND
000062: 25,3552           27463                           DIM      IZZ
000063: 25,3553           33562                           CAF      IZZTIME
000064: 25,3554           04536                           TC       WAITLIST
000065: 25,3555           03547 52006                     2CADR    IZZTASK
000066:
000067: 25,3557           14602                           TCF      TASKOVER
000068:
000069: 25,3560           00310        IXXTIME            DEC      200        B-14
000070: 25,3561           02424        IYYTIME            DEC      1300       B-14
000071: 25,3562           00264        IZZTIME            DEC      180        B-14
000072:
000073: 25,3563           37650        ASCENGON           CAF      BIT8
000074: 25,3564           70765                           MASK     DAPBOOLS
000075: 25,3565           10000                           CCS      A
000076: 25,3566           00002                           TC       Q
000077: 25,3567           14602                           TCF      TASKOVER
000078:
000079: 25,3570           31461        JACCESTP           CAE      IXX
000080: 25,3571           22007                           ZL
000081: 25,3572           00006                           EXTEND
000082: 25,3573           11464                           DV       4JETTORK
000083:


000085: 25,3574           60000                           DOUBLE
000086: 25,3575           55444                           TS       1/2JTSP
000087:
000088: 25,3576           33660                           CAF      JETTORK
000089: 25,3577           22007                           ZL
000090: 25,3600           00006                           EXTEND
000091: 25,3601           11461                           DV       IXX
000092: 25,3602           55627                           TS       1JACC
000093:
000094: 25,3603           00002                           TC       Q
000095:
000096: 25,3604           31462        JACCESTQ           CAE      IYY
000097: 25,3605           22007                           ZL
000098: 25,3606           00006                           EXTEND
000099: 25,3607           11465                           DV       JETTORK4
000100: 25,3610           55661                           TS       1/NJTSQ
000101:
000102: 25,3611           60000                           DOUBLE
000103: 25,3612           55445                           TS       1/2JTSQ
000104:
000105: 25,3613           33661                           CAF      JETTORK1
000106: 25,3614           22007                           ZL
000107: 25,3615           00006                           EXTEND
000108: 25,3616           11462                           DV       IYY
000109: 25,3617           55630                           TS       1JACCQ
000110:
000111: 25,3620           00002                           TC       Q
000112: 25,3621           31463        JACCESTR           CAE      IZZ
000113: 25,3622           22007                           ZL
000114: 25,3623           00006                           EXTEND
000115: 25,3624           11465                           DV       JETTORK4
000116: 25,3625           55662                           TS       1/NJTSR
000117:
000118: 25,3626           60000                           DOUBLE
000119: 25,3627           55446                           TS       1/2JTSR
000120:
000121: 25,3630           33661                           CAF      JETTORK1
000122: 25,3631           22007                           ZL
000123: 25,3632           00006                           EXTEND
000124: 25,3633           11463                           DV       IZZ
000125: 25,3634           55631                           TS       1JACCR
000126:
000127: 25,3635           31445        COMMONQR           CAE      1/2JTSQ
000128: 25,3636           61446                           AD       1/2JTSR
000129: 25,3637           00006                           EXTEND
000130: 25,3640           73377                           MP       .707WL
000131: 25,3641           55447                           TS       1/2JETSU                              #  TEMP
000132:
000133: 25,3642           31445                           CAE      1/2JTSQ
000134: 25,3643           00006                           EXTEND
000135:


000137:
000138: 25,3644           71446                           MP       1/2JTSR
000139: 25,3645           00006                           EXTEND
000140: 25,3646           11447                           DV       1/2JETSU                              #  TEMP
000141: 25,3647           55447                           TS       1/2JETSU
000142: 25,3650           55450                           TS       1/2JETSV
000143:
000144: 25,3651           31630                           CAE      1JACCQ
000145: 25,3652           61631                           AD       1JACCR
000146: 25,3653           00006                           EXTEND
000147: 25,3654           73662                           MP       0.35356
000148: 25,3655           55632                           TS       1JACCU
000149: 25,3656           55633                           TS       1JACCV
000150:
000151: 25,3657           00002                           TC       Q
000152:
000153: 25,3660           00050        JETTORK            DEC      0.00243                               #  500 FT LBS. SCALED AT PI*2(+16)
000154: 25,3661           00054        JETTORK1           DEC      0.00267                               #  550 FT LBS. SCALED AT PI*2(+16)
000155: 25,3662           13241        0.35356            DEC      0.35356
000156: 25,3663                        ENDDAP25           EQUALS

End of include-file ASCENT_INERTIA_UPDATER.agc.  Parent file is MAIN.agc


