
Source Code


000002:                                                                                                  ## Copyright:    Public domain.
000003:                                                                                                  ## Filename:     CONTROLLER_AND_METER_ROUTINES.agc
000004:                                                                                                  ## Purpose:      Part of the source code for Aurora (revision 12).
000005:                                                                                                  ## Assembler:    yaYUL
000006:                                                                                                  ## Contact:      Ron Burkey <info@sandroid.org>.
000007:                                                                                                  ## Website:      https://www.ibiblio.org/apollo.
000008:                                                                                                  ## Pages:        368-369
000009:                                                                                                  ## Mod history:  2016-09-20 JL   Created.
000010:                                                                                                  ##               2016-10-16 HG   Fix label ENDCM5 -> ENDCMS
000011:                                                                                                  ##               2016-12-08 RSB  Proofed comments with octopus/ProoferComments
000012:                                                                                                  ##                               but no errors found.
000013:
000014:                                                                                                  ## This source code has been transcribed or otherwise adapted from
000015:                                                                                                  ## digitized images of a hardcopy from the private collection of
000016:                                                                                                  ## Don Eyles.  The digitization was performed by archive.org.
000017:
000018:                                                                                                  ## Notations on the hardcopy document read, in part:
000019:
000020:                                                                                                  ##       473423A YUL SYSTEM FOR BLK2: REVISION 12 of PROGRAM AURORA BY DAP GROUP
000021:                                                                                                  ##       NOV 10, 1966
000022:
000023:                                                                                                  ##       [Note that this is the date the hardcopy was made, not the
000024:                                                                                                  ##       date of the program revision or the assembly.]
000025:
000026:                                                                                                  ## The scan images (with suitable reduction in storage size and consequent
000027:                                                                                                  ## reduction in image quality) are available online at
000028:                                                                                                  ##       https://www.ibiblio.org/apollo.
000029:                                                                                                  ## The original high-quality digital images are available at archive.org:
000030:                                                                                                  ##       https://archive.org/details/aurora00dapg
000031:


000033:
000034: 11,3264                                           SETLOC   ENDEXTVS
000035: 11,3264  E6,1435                                  EBANK=   PCOM
000036:
000037: 11,3264           37641        RHCNTRL            CAF      BIT15
000038: 11,3265           00006                           EXTEND
000039: 11,3266           02031                           RAND     31                                    #  CHECK PGNCS CONTROL OF S/C
000040: 11,3267           00006                           EXTEND
000041: 11,3270           13272                           BZF      +2
000042: 11,3271           13353                           TCF      NORATE
000043: 11,3272           37655                           CAF      BIT3
000044: 11,3273           00006                           EXTEND
000045: 11,3274           02031                           RAND     31                                    #  CHECK OUT-OF-DETENT BIT
000046: 11,3275           10000                           CCS      A
000047: 11,3276           13353                           TCF      NORATE
000048:
000049: 11,3277           37665                           CAF      ZERO                                  #  ZERO COUNTERS
000050: 11,3300           54042                           TS       RHCP
000051: 11,3301           54043                           TS       RHCY
000052: 11,3302           54044                           TS       RHCR
000053: 11,3303           37650                           CAF      BIT8                                  #  ENABLE COUNTERS
000054: 11,3304           67647                           AD       BIT9                                  #  START READING INTO COUNTERS
000055: 11,3305           00006                           EXTEND
000056: 11,3306           05013                           WOR      13
000057: 11,3307           37653                           CAF      BIT5
000058: 11,3310           04536                           TC       WAITLIST                              #  COUNTERS FILLED
000059: 11,3311           03314 22006                     2CADR    ATTCONT
000060:
000061: 11,3313           04602                           TC       TASKOVER
000062:
000063: 11,3314           47650        ATTCONT            CS       BIT8
000064: 11,3315           00006                           EXTEND
000065: 11,3316           03013                           WAND     13                                    #  RESET COUNTER ENABLE
000066: 11,3317           37645                           CAF      BIT11
000067: 11,3320           00006                           EXTEND
000068: 11,3321           02032                           RAND     32                                    #  CHECK IF IN ATTITUDE HOLD MODE
000069: 11,3322           00006                           EXTEND
000070: 11,3323           13325                           BZF      +2
000071: 11,3324           03343                           TC       XAXOVRD
000072: 11,3325           30042                           CA       RHCP
000073: 11,3326           00006                           EXTEND
000074: 11,3327           77646                           MP       BIT10
000075: 11,3330           33360                           CAF      RHCSCALE
000076: 11,3331           00006                           EXTEND
000077: 11,3332           70001                           MP       L
000078: 11,3333           55435                           TS       PCOM
000079: 11,3334           30044                           CA       RHCR
000080: 11,3335           00006                           EXTEND
000081: 11,3336           77646                           MP       BIT10
000082: 11,3337           33360                           CAF      RHCSCALE
000083: 11,3340           00006                           EXTEND
000084:


000086:
000087: 11,3341           70001                           MP       L
000088: 11,3342           55436                           TS       RCOM
000089: 11,3343           30043        XAXOVRD            CA       RHCY                                  #  YAW CHANNEL ONLY IN AUTO MODE
000090: 11,3344           00006                           EXTEND
000091: 11,3345           77646                           MP       BIT10
000092: 11,3346           33360                           CAF      RHCSCALE
000093: 11,3347           00006                           EXTEND
000094: 11,3350           70001                           MP       L
000095: 11,3351           55437                           TS       YCOM
000096: 11,3352           13264                           TCF      RHCNTRL
000097:
000098: 11,3353           37665        NORATE             CAF      ZERO                                  #  SET RATE COMMANDS TO ZERO
000099: 11,3354           55435                           TS       PCOM
000100: 11,3355           55436                           TS       RCOM
000101: 11,3356           55437                           TS       YCOM
000102: 11,3357           04602                           TC       TASKOVER
000103:
000104: 11,3360           16171        RHCSCALE           DEC      .44488                                #  LEAVES INPUTS SCALED AS PI/4 RAD/SEC.
000105: 11,3361                        ENDCMS             EQUALS

End of include-file CONTROLLER_AND_METER_ROUTINES.agc.  Parent file is MAIN.agc


