
Source Code


000002:                                                                                                  ## Copyright:    Public domain.
000003:                                                                                                  ## Filename:     DAPIDLER_PROGRAM.agc
000004:                                                                                                  ## Purpose:      Part of the source code for Aurora (revision 12).
000005:                                                                                                  ## Assembler:    yaYUL
000006:                                                                                                  ## Contact:      Ron Burkey <info@sandroid.org>.
000007:                                                                                                  ## Website:      https://www.ibiblio.org/apollo.
000008:                                                                                                  ## Pages:        557-561
000009:                                                                                                  ## Mod history:  2016-09-20 JL   Created.
000010:                                                                                                  ##               2016-10-15 HG   FIx operand IZZMASK -> IZZTASK
000011:                                                                                                  ##               2016-12-08 RSB  Proofed comments with octopus/ProoferComments
000012:                                                                                                  ##                               and fixed the errors found.
000013:
000014:                                                                                                  ## This source code has been transcribed or otherwise adapted from
000015:                                                                                                  ## digitized images of a hardcopy from the private collection of
000016:                                                                                                  ## Don Eyles.  The digitization was performed by archive.org.
000017:
000018:                                                                                                  ## Notations on the hardcopy document read, in part:
000019:
000020:                                                                                                  ##       473423A YUL SYSTEM FOR BLK2: REVISION 12 of PROGRAM AURORA BY DAP GROUP
000021:                                                                                                  ##       NOV 10, 1966
000022:
000023:                                                                                                  ##       [Note that this is the date the hardcopy was made, not the
000024:                                                                                                  ##       date of the program revision or the assembly.]
000025:
000026:                                                                                                  ## The scan images (with suitable reduction in storage size and consequent
000027:                                                                                                  ## reduction in image quality) are available online at
000028:                                                                                                  ##       https://www.ibiblio.org/apollo.
000029:                                                                                                  ## The original high-quality digital images are available at archive.org:
000030:                                                                                                  ##       https://archive.org/details/aurora00dapg
000031:


000033:                                                                                                  #  THE DAPIDLER PROGRAM IS STARTED BY FRESH START AND RESTART.             THE DAPIDLER PROGRAM IS DONE 10 TIMES
000034:                                                                                                  #  PER SECOND UNTIL THE ASTRONAUT DESIRES THE DAP TO WAKE UP, AND THE IMU AND CDUS ARE READY FOR USE BY THE DAP.
000035:                                                                                                  #  THE NECESSARY INITIALIZATION OF THE DAP IS DONE BY THE DAPIDLER PROGRAM.
000036:                                                                                                  #  ADDITIONAL WORK MUST BE DONE ON DAPIDLER IN THE FUTURE.
000037:
000038:
000039:
000040: 23,3141           22016        DAPIDLER           LXCH     BANKRUPT                              #  INTERRUPT LEAD IN (CONTINUED)
000041: 23,3142           00006                           EXTEND
000042: 23,3143           22012                           QXCH     QRUPT
000043:
000044: 23,3144           37652                           CAF      BIT6
000045: 23,3145           70367                           MASK     IMODES30
000046: 23,3146           10000                           CCS      A
000047: 23,3147           13354                           TCF      MOREIDLE
000048:
000049: 23,3150           37654                           CAF      BIT4
000050: 23,3151           67653                           AD       BIT5
000051: 23,3152           00006                           EXTEND
000052: 23,3153           02012                           RAND     12
000053: 23,3154           10000                           CCS      A
000054: 23,3155           13354                           TCF      MOREIDLE
000055:
000056: 23,3156           37646                           CAF      BIT10                                 #  BIT10 OF 30 IS PNGCS CONTROL OF S/C
000057: 23,3157           00006                           EXTEND
000058: 23,3160           02030                           RAND     30                                    #  BITS IN 30 ARE INVERTED
000059: 23,3161           10000                           CCS      A
000060: 23,3162           13354                           TCF      MOREIDLE
000061:
000062: 23,3163           37643                           CAF      BIT13                                 #  ATTITUDE HOLD BIT. INVERTED.
000063: 23,3164           00006                           EXTEND
000064: 23,3165           02031                           RAND     31
000065: 23,3166           00006                           EXTEND
000066: 23,3167           13175                           BZF      STARTDAP
000067:
000068: 23,3170           37642                           CA       BIT14
000069: 23,3171           00006                           EXTEND
000070: 23,3172           02031                           RAND     31
000071: 23,3173           10000                           CCS      A
000072: 23,3174           13354                           TCF      MOREIDLE
000073:
000074: 23,3175           37665        STARTDAP           CAF      ZERO
000075: 23,3176           54031                           TS       TIME6
000076: 23,3177           55545                           TS       TIMEOFFQ
000077: 23,3200           55546                           TS       TIMEOFFR
000078: 23,3201           55473                           TS       LASTPER
000079: 23,3202           55474                           TS       LASTQER
000080: 23,3203           55475                           TS       LASTRER
000081: 23,3204           55476                           TS       PERROR                                #  INITIALIZE TEMPS FOR ATT ERROR DISPLAY
000082: 23,3205           55477                           TS       QERROR


000084: 23,3206           55500                           TS       RERROR
000085: 23,3207           54766                           TS       T6NEXT
000086: 23,3210           54767                           TS       T6NEXT     +1
000087: 23,3211           54773                           TS       DELAYCTR
000088: 23,3212           55615                           TS       JETRATE
000089: 23,3213           55616                           TS       JETRATEQ
000090: 23,3214           55617                           TS       JETRATER
000091: 23,3215           55642                           TS       AOSQTERM
000092: 23,3216           55643                           TS       AOSRTERM
000093: 23,3217           55512                           TS       CH5MASK
000094: 23,3220           55513                           TS       CH6MASK
000095: 23,3221           54066                           TS       DELTAP
000096: 23,3222           55416                           TS       OMEGAP
000097: 23,3223           55417                           TS       OMEGAQ
000098: 23,3224           55421                           TS       OMEGAR
000099: 23,3225           55426                           TS       OMEGAPD
000100: 23,3226           55427                           TS       OMEGAQD
000101: 23,3227           55430                           TS       OMEGARD
000102: 23,3230           55626                           TS       TQR
000103: 23,3231           55620                           TS       NO.QJETS
000104: 23,3232           55621                           TS       NO.RJETS
000105:                                                                                                  ## HANDWRITTEN NOTATION:
000106:                                                                                                  ## TS  (1-K)GR
000107:                                                                                                  ##     (1-K)/8
000108: 23,3233           33375                           CAF      0.62170
000109: 23,3234           55464                           TS       4JETTORK
000110: 23,3235           33377                           CAF      .68387                                #  2200 FT LBS. SCALED AT 2(10) X PI.
000111: 23,3236           55465                           TS       JETTORK4                              #  QR AXIS JET TORQUE FOR 4 JETS.
000112: 23,3237           30032                           CA       CDUX
000113: 23,3240           55431                           TS       OLDXFORP
000114: 23,3241           54774                           TS       CDUXD
000115: 23,3242           30033                           CA       CDUY
000116: 23,3243           55432                           TS       OLDYFORP
000117: 23,3244           55433                           TS       OLDYFORQ
000118: 23,3245           54775                           TS       CDUYD
000119: 23,3246           30034                           CA       CDUZ
000120: 23,3247           55434                           TS       OLDZFORQ
000121: 23,3250           54776                           TS       CDUZD
000122: 23,3251           37652                           CAF      BIT6                                  #  ENABLE CDU ERR CNTR FOR ATT ERROR DISPLA
000123: 23,3252           00006                           EXTEND
000124: 23,3253           05012                           WOR      12
000125:
000126: 23,3254           33361                           CA       VISFZADR
000127: 23,3255           55613                           TS       PJUMPADR
000128: 23,3256           33410                           CA       .075DEC                               #  INITIALIZE 100 MS JET PULSE TORQUE TERMS
000129: 23,3257           55622                           TS       100MSPTQ                              #    TO VALUES WHEN K = 1/2.
000130: 23,3260           55623                           TS       QR.1STOQ                              #  AOSTASK MUST VARY THESE AS K VARIES.
000131:                                                                                                  #  ****** JON ADDELSTON TAKE NOT OF THE ABOVE COMMENT - DICK GRAN.


000133: 23,3261           33400                           CA       10AT16
000134: 23,3262           55655                           TS       WFORP                                 ## HANDWRITTEN NOTATION:
000135: 23,3263           33401                           CA       6.6AT16                               ## <<-THIS INSTRUCTION IS CROSSED OUT, BUT THEN
000136:                                                                                                  ## THERE IS A NOTATION "GOOD AS IS"
000137: 23,3264           55656                           TS       WFORQR
000138:
000139: 23,3265           37657                           CAF      ONE
000140: 23,3266           04536                           TC       WAITLIST
000141: 23,3267           03525 52006                     2CADR    IXXTASK
000142:
000143: 23,3271           37657                           CA       ONE
000144: 23,3272           04536                           TC       WAITLIST
000145: 23,3273           03536 52006                     2CADR    IYYTASK
000146:                                                                                                  ## HANDWRITTEN NOTATION:
000147:                                                                                                  ##   CAF      IPOMS
000148:                                                                                                  ##   TC       WAITLIST
000149:                                                                                                  ##   2CADR    WCHANGER
000150: 23,3275           37657                           CA       ONE
000151: 23,3276           04536                           TC       WAITLIST
000152: 23,3277           03547 52006                     2CADR    IZZTASK
000153:
000154:                                                                                                  #  THIS SECTION COMPUTES THE RATE OF CHANGE OF ACCELERATION DUE TO THE
000155:                                                                                                  #    ROTATION OF THE GIMBAL ENGINE. THE EQUATION IMPLEMENTED IN BOTH THE
000156:                                                                                                  #    Y-X PLANE AND THE Z-X PLANE IS -- D(ALPHA)/DT = T L/I * D(DELTA)/DT
000157:                                                                                                  #    WHERE ----
000158:                                                                                                  #              T = ENGINE THRUST COMMAND
000159:                                                                                                  #              L = PIVOT TO CG DISTANCE OF THE GIMBAL ENGINE
000160:                                                                                                  #              I = INERTIA
000161:                                                                                                  #              DELTA = GIMBAL ENGINE ANGLE MEASURED FROM THE X AXIS.
000162:
000163: 23,3301           33403                           CAF      DELTADOT                              #  0.2 DEG/SEC SCALED AT PI/64
000164: 23,3302           00006                           EXTEND
000165: 23,3303           71526                           MP       L,PVT-CG                              #  GIMBAL PIVOT TO C.G. DISTANCE ,SCALE=8.
000166: 23,3304           00006                           EXTEND
000167: 23,3305           71533                           MP       THRSTCMD                              #  COMMANDED THRUST SCALED AT 2(14) =16384.
000168: 23,3306           52066                           DXCH     ITEMP1
000169: 23,3307           00006                           EXTEND
000170: 23,3310           30066                           DCA      ITEMP1
000171: 23,3311           00006                           EXTEND
000172: 23,3312           11463                           DV       IZZ                                   #  AT 2(18)
000173: 23,3313           55543                           TS       ACCDOTR                               #  AT PI/2(7)
000174: 23,3314           52066                           DXCH     ITEMP1
000175: 23,3315           00006                           EXTEND
000176: 23,3316           11462                           DV       IYY                                   #  AT 2(18)
000177: 23,3317           55541                           TS       ACCDOTQ                               #  AT PI/2(7)
000178:
000179: 23,3320           00006                           EXTEND                                         #  .3ACCDOTQ AT PI/2(8)
000180: 23,3321           73404                           MP       DGBF
000181: 23,3322           55535                           TS       KQ
000182: 23,3323           00006                           EXTEND
000183: 23,3324           70000                           SQUARE
000184: 23,3325           55536                           TS       KQ2                                   #  KQ(2)
000185:
000186: 23,3326           31543                           CAE      ACCDOTR                               #  .3ACCDOTR AT PI/2(8)


000188: 23,3327           00006                           EXTEND
000189: 23,3330           73404                           MP       DGBF
000190: 23,3331           55537                           TS       KR
000191: 23,3332           00006                           EXTEND
000192: 23,3333           70000                           SQUARE
000193: 23,3334           55540                           TS       KR2
000194:
000195: 23,3335           33406                           CAF      .5ACCMIN
000196: 23,3336           55651                           TS       .5ACCMNQ                              #  INITIALIZE FOR DESCENT
000197: 23,3337           55652                           TS       .5ACCMNR
000198: 23,3340           55653                           TS       .5ACCMNU
000199: 23,3341           55654                           TS       .5ACCMNV
000200:
000201: 23,3342           55650                           TS       .5ACCMNE                              #  (QUIRK FIX)
000202:
000203: 23,3343           33407                           CAF      DBMNMP                                #  SET UP DESCENT MINIMUM IMPULSE DEADBANDS
000204: 23,3344           55646                           TS       DBMINIMP                              #  (DUPLICATES MONITOR FUNCTION)
000205: 23,3345           55647                           TS       MINIMPDB
000206:
000207: 23,3346           00006                           EXTEND                                         #  SET UP P-AXIS TO GO TO DUMMYFIL
000208: 23,3347           33372                           DCA      DF2CADR
000209: 23,3350           53602                           DXCH     PFILTADR
000210:
000211: 23,3351           00006                           EXTEND
000212: 23,3352           33370                           DCA      PAXADIDL
000213: 23,3353           52346                           DXCH     T5ADR
000214: 23,3354           33373        MOREIDLE           CAF      MS100
000215: 23,3355           54030                           TS       TIME5
000216: 23,3356           14606                           TCF      RESUME
000217: 23,3357           03141 46006  IDLERADR           2CADR    DAPIDLER
000218:
000219: 23,3361  23,3357               GOIDLADR           EQUALS   IDLERADR
000220:
000221:
000222: 23,3361           02213        VISFZADR           GENADR   CHKVISFZ
000223: 23,3362           33402        WCHANGER           CA       0.31250                               #  CHANGE WFORP AND WFORQR
000224: 23,3363           55655                           TS       WFORP                                 #  TO REFLECT 100 MS INTERVAL
000225: 23,3364           55656                           TS       WFORQR                                #  WHICH CAUSES SMOOTHING IN RATE FILTER.
000226: 23,3365           14602                           TCF      TASKOVER                              #  BETWEEN 1ST QR AND 2ND P AFTER STARTDAP
000227: 23,3366           26501        .707P              DEC      .70711                                #  SQUARE ROOT OF 1/2
000228: 23,3367           02055 46006  PAXADIDL           2CADR    PAXIS
000229: 23,3371           02544 54006  DF2CADR            2CADR    DUMMYFIL
000230: 23,3373           37766        MS100              OCTAL    37766
000231: 23,3374           00033        0.00167            DEC      0.00167
000232: 23,3375           23712        0.62170            DEC      0.62170
000233: 23,3376           00022        180MS              OCTAL    00022                                 #  18 BITS
000234: 23,3377           25705        .68387             DEC      0.68387


000236: 23,3400           24000        10AT16             DEC      0.62500
000237: 23,3401           15146        6.6AT16            DEC      0.4125                                #  *** IS THIS NEEDED
000238: 23,3402           12000        0.31250            DEC      0.31250
000239:
000240: 23,3403           02215        DELTADOT           DEC      0.07111                               #  0.2 DEG/SEC SCALED AT PI/64
000241: 23,3404           23146        DGBF               DEC      0.6
000242: 23,3405           70000        OCT70000           OCT      70000
000243: 23,3406           11643        .5ACCMIN           DEC      0.30680
000244: 23,3407           00033        DBMNMP             DEC      0.00167                               #  .3 DEGREES SCALED AT PI RADIANS
000245: 23,3410           02315        .075DEC            DEC      0.07500                               #  = T(1-K + KT/(2CSP) ) WHEN T = .1,K=.5
000246: 23,3411                        ENDDAP23           EQUALS

End of include-file DAPIDLER_PROGRAM.agc.  Parent file is MAIN.agc


