
Source Code


000002:                                                                                                  ## Copyright:    Public domain.
000003:                                                                                                  ## Filename:     DIGITAL_AUTOPILOT_ERASABLE.agc
000004:                                                                                                  ## Purpose:      Part of the source code for Aurora (revision 12).
000005:                                                                                                  ## Assembler:    yaYUL
000006:                                                                                                  ## Contact:      Ron Burkey <info@sandroid.org>.
000007:                                                                                                  ## Website:      https://www.ibiblio.org/apollo.
000008:                                                                                                  ## Pages:        535-541
000009:                                                                                                  ## Mod history:  2016-09-20 JL   Created.
000010:                                                                                                  ##               2016-09-30 MAS  Began.
000011:                                                                                                  ##               2016-10-01 MAS  Completed transcription.
000012:                                                                                                  ##               2016-10-04 HG   Capitalize SETLOC`
000013:                                                                                                  ##               2016-12-08 RSB  Proofed comments with octopus/ProoferComments
000014:                                                                                                  ##                               but no errors found.
000015:
000016:                                                                                                  ## This source code has been transcribed or otherwise adapted from
000017:                                                                                                  ## digitized images of a hardcopy from the private collection of
000018:                                                                                                  ## Don Eyles.  The digitization was performed by archive.org.
000019:
000020:                                                                                                  ## Notations on the hardcopy document read, in part:
000021:
000022:                                                                                                  ##       473423A YUL SYSTEM FOR BLK2: REVISION 12 of PROGRAM AURORA BY DAP GROUP
000023:                                                                                                  ##       NOV 10, 1966
000024:
000025:                                                                                                  ##       [Note that this is the date the hardcopy was made, not the
000026:                                                                                                  ##       date of the program revision or the assembly.]
000027:
000028:                                                                                                  ## The scan images (with suitable reduction in storage size and consequent
000029:                                                                                                  ## reduction in image quality) are available online at
000030:                                                                                                  ##       https://www.ibiblio.org/apollo.
000031:                                                                                                  ## The original high-quality digital images are available at archive.org:
000032:                                                                                                  ##       https://archive.org/details/aurora00dapg
000033:


000035: E6,1400                                           SETLOC   3000
000036:
000037:                                                                                                  #  AXIS TRANSFORMATION MATRIX - PILOT TO GIMBAL AXES:
000038:
000039: E6,1400                        MR12               ERASE                                          #  SCALED AT 2   THESE FOUR P-G MATRIX ELE-
000040: E6,1401                        MR22               ERASE                                          #  SCALED AT 1   MENTS ARE IN THIS ORDER TO
000041: E6,1402                        MR13               ERASE                                          #  SCALED AT 2   COMPUTE RATE HOLD DELCDUS
000042: E6,1403                        MR23               ERASE                                          #  SCALED AT 1   WITH AN INDEXED LOOP
000043:                                                                                                  #  AXIS TRANSFORMATION MATRIX - GIMBAL TO PILOT AXES:
000044:
000045: E6,1404                        M11                ERASE                                          #  SCALED AT 1
000046: E6,1405                        M21                ERASE                                          #  SCALED AT 1
000047: E6,1406                        M31                ERASE
000048: E6,1407  E6,1401               M22                EQUALS   MR22                                  #  SCALED AT 1
000049: E6,1407  E6,1403               M32                EQUALS   MR23                                  #  SCALED AT 1
000050:                                                                                                  #  ANGLE MEASUREMENTS.
000051:
000052: E6,1407                        EDOT               ERASE    +1                                    #  ERROR IN ANGULAR RATE:
000053: E6,1411  E6,1410               EDOT(R)            EQUALS   EDOT       +1                         #  SCALED DOWN TO PI/16 RADIANS/SECOND
000054:
000055: E6,1411                        E                  ERASE    +1                                    #  ANGLE ERROR SCALED AT PI RADIANS
000056: E6,1413  E6,1412               EDOT(2)            EQUALS   E          +1                         #  ERROR RATE SQUARED SCALED AT PI(2)/16
000057: E6,1413  E6,1411               EQ                 EQUALS   E                                     #  THIS PAIR OF NAMES IS USED TO REFER TO
000058: E6,1413  E6,1412               EDOT(2)Q           EQUALS   EDOT(2)                               #  THE ABOVE ERASABLES AS Q-AXIS DATA
000059: E6,1413                        ER                 ERASE    +1                                    #  THIS PAIR OF NAMES REFERS TO LOCATIONS
000060: E6,1415  E6,1414               EDOT(2)R           EQUALS   ER         +1                         #  FOR THE R-AXIS DATA: INTERCHANGES WITH Q
000061:
000062: E6,1415                        DB                 ERASE                                          #  ANGLE DEADBAND SCALED AT PI RADIANS
000063:
000064: E6,1416                        OMEGAP             ERASE    +4                                    #  BODY-AXIS ROT. RATES SCALED AT PI/4 AND
000065: E6,1423  E6,1417               OMEGAQ             EQUALS   OMEGAP     +1                         #  BODY-AXIS ACCELERATIONS SCALED AT PI/8
000066: E6,1423  E6,1420               ALPHAQ             EQUALS   OMEGAP     +2                         #  (IN DESCENT) OR PI/2 (IN ASCENT)
000067: E6,1423  E6,1421               OMEGAR             EQUALS   OMEGAP     +3                         #  THESE W,A PAIRS ARE NEEDED, ALPHAP HAS
000068: E6,1423  E6,1422               ALPHAR             EQUALS   OMEGAP     +4                         #  NO USE IN THE DIGITAL AUTOPILOT
000069:
000070: E6,1423                        EDOTP              ERASE    +2                                    #  ERRORS IN ANGULAR RATE:
000071: E6,1426  E6,1424               EDOTQ              EQUALS   EDOTP      +1                         #  EDOT = 3MEGA - OMEGA(DESIRED)
000072: E6,1426  E6,1425               EDOTR              EQUALS   EDOTP      +2                         #  SCALED AT PI/4 RADIANS/SECOND
000073:
000074: E6,1426  E6,1424               QRATEDIF           EQUALS   EDOTQ                                 #  ALTERNATIVE NAMES:
000075: E6,1426  E6,1425               RRATEDIF           EQUALS   EDOTR                                 #  DELETE WHEN NO. OF REFERENCES = 0
000076:
000077: E6,1426                        OMEGAPD            ERASE    +2                                    #  DESIRED VEHICLE RATES DETERMINED BY THE
000078: E6,1431  E6,1427               OMEGAQD            EQUALS   OMEGAPD    +1                         #  "OUTER LOOP" USED TO CALCULATE EDOT
000079: E6,1431  E6,1430               OMEGARD            EQUALS   OMEGAPD    +2                         #  SCALED AT PI/4 RADIANS/SECOND
000080:
000081: E6,1431                        OLDXFORP           ERASE    +3                                    #  STORED CDU READINGS FOR P AND Q,R RATE
000082: E6,1435  E6,1432               OLDYFORP           EQUALS   OLDXFORP   +1                         #  DERIVATIONS: SCALED AT PI RADIANS (2'S)
000083: E6,1435  E6,1433               OLDYFORQ           EQUALS   OLDXFORP   +2                         #  (THERE MUST BE TWO REGISTERS FOR CDUY
000084: E6,1435  E6,1434               OLDZFORQ           EQUALS   OLDXFORP   +3                         #  SINCE P AND Q,R ARE NOT IN PHASE)
000085:


000087:                                                                                                  #  RHC INPUTS SCALED AT PI/4 RAD/SEC.
000088:
000089: E6,1435                        PCOM               ERASE
000090: E6,1436                        RCOM               ERASE
000091: E6,1437                        YCOM               ERASE
000092:
000093:                                                                                                  #  RHC COUNTER REGISTERS.
000094:
000095: E6,1440                        P-RHCCTR           EQUALS   43
000096: E6,1440                        Q-RHCCTR           EQUALS   42
000097: E6,1440                        R-RHCCTR           EQUALS   44
000098:
000099:                                                                                                  #  OTHER VARIABLES.
000100:
000101: E6,1440                        TPSIG              ERASE
000102: E6,1441                        PRATECOM           ERASE
000103: E6,1442                        EDOTGEN            ERASE
000104: E6,1443                        RATEDIF            ERASE
000105: E6,1444                        1/2JTSP            ERASE
000106: E6,1445                        1/2JTSQ            ERASE
000107: E6,1446                        1/2JTSR            ERASE
000108: E6,1447                        1/2JETSU           ERASE
000109: E6,1450                        1/2JETSV           ERASE
000110: E6,1451                        FPQR               ERASE
000111: E6,1452                        MINRA              ERASE
000112: E6,1453                        MINRASQ            ERASE
000113: E6,1454                        HDAP               ERASE
000114: E6,1455                        U                  ERASE
000115: E6,1456                        DENOM              ERASE
000116: E6,1457                        RATIO              ERASE
000117: E6,1460                        TJSR               ERASE
000118: E6,1461                        IXX                ERASE
000119: E6,1462                        IYY                ERASE
000120: E6,1463                        IZZ                ERASE
000121: E6,1464                        4JETTORK           ERASE
000122: E6,1465                        JETTORK4           ERASE
000123: E6,1466                        COSMG              ERASE
000124: E6,1467     0066               DELTAP             EQUALS   ITEMP2
000125: E6,1467                        FPQRMIN            ERASE
000126: E6,1470                        NJET               ERASE
000127: E6,1471                        1/NJETAC           ERASE
000128: E6,1472                        PRATEDIF           ERASE
000129: E6,1473                        LASTPER            ERASE                                          #  THESE 6 REG USED FOR ATT ERR DISPLAY
000130: E6,1474                        LASTQER            ERASE
000131: E6,1475                        LASTRER            ERASE
000132: E6,1476                        PERROR             ERASE
000133: E6,1477                        QERROR             ERASE
000134: E6,1500                        RERROR             ERASE
000135:
000136:                                                                                                  #  JET STATE CHANGE VARIABLES- TIME (TOFJTCHG),JET BITS WRITTEN NOW


000138:                                                                                                  #  (JTSONNOW), AND JET BITS WRITTEN AT T6 RUPT (JTSATCHG).
000139:
000140: E6,1501                        JTSONNOW           ERASE
000141: E6,1502                        JTSATCHG           ERASE
000142: E6,1503                        ADDT6JTS           ERASE
000143: E6,1504                        ADDTLT6            ERASE
000144: E6,1505                        TOFJTCHG           ERASE
000145:
000146: E6,1506                        -RATEDB            ERASE
000147: E6,1507                        -2JETLIM           ERASE
000148:
000149:                                                                                                  #  RCS FAILURE MONITOR ERASABLE - PROGRAM ON T4RUPT 4 TIMES/SECOND
000150:
000151:                                                                                                  #  *** FAILSW CAPABILITY FOR CHECKOUT ONLY ***
000152:
000153: E6,1510                        FAILSW             ERASE                                          #  IF POSITIVE NO RCSMONIT, OTHERWISE 0
000154: E6,1511                        LASTFAIL           ERASE                                          #  LAST FAILURE CHANNEL RECORD, -0 INITIAL
000155: E6,1512                        CH5MASK            ERASE                                          #  MASKS FOR TURNING ON P/Q,R JETS
000156: E6,1513                        CH6MASK            ERASE                                          #  IN OUTPUT CHANNELS 5 AND 6
000157: E6,1514     0065               FAILCTR            EQUALS   ITEMP1                                #  BIT POSITION COUNTER (INTERNAL)
000158: E6,1514     0066               FAILTEMP           EQUALS   ITEMP2                                #  TEMPORARY RECORD OF FAILED BITS
000159:
000160:                                                                                                  #  Q,R AXIS ERASABLES
000161:
000162: E6,1514     0066               DELQ               EQUALS   ITEMP2
000163: E6,1514     0070               DELTAR             EQUALS   ITEMP3
000164: E6,1514                        TJETADR            ERASE
000165: E6,1515                        URGENCYQ           ERASE
000166: E6,1516                        URGENCYR           ERASE
000167: E6,1517                        A+B                ERASE
000168: E6,1520                        A-B                ERASE
000169: E6,1521                        TERMA              ERASE
000170: E6,1522                        TERMB              ERASE
000171: E6,1523                        POLRELOC           ERASE
000172: E6,1524                        LOOPCTR            ERASE
000173: E6,1525                        POLTEST            ERASE
000174:


000176:                                                                                                  #  TRIM GIMBAL CONTROL LAW ERASABLES:
000177:
000178:                                                                                                  #  THE FOLLOWING ASSIGNMENTS OF RUPTREGS AND ITEMPS HAS BEEN MADE IN AN EFFORT TO OPTIMIZE USE OF ERASABLES:
000179:
000180: E6,1526     0074               K2THETA            EQUALS   RUPTREG1                              #  D.P. K(2)THETA AND "NEGUSUM"
000181: E6,1526     0075               ETHETA             EQUALS   RUPTREG2                              #  S.P. ERROR ANGLE SCALED AT PI/64 RADIANS
000182: E6,1526     0076               A2CNTRAL           EQUALS   RUPTREG3                              #  D.P. ALPHA(2) SCALED AT PI(2)/64 R/S(2)
000183: E6,1526     0076               SF1                EQUALS   RUPTREG3                              #  S.P. VARIABLE SCALE FACTORS WHICH ARE
000184: E6,1526     0077               SF2                EQUALS   RUPTREG4                              #  S.P. - REALLY SINGLE BITS (OR ZERO)
000185: E6,1526     0065               OMEGA.K            EQUALS   ITEMP1                                #  D.P. OMEGA*K SUPERCEDES K AND K(2)
000186: E6,1526     0065               KCENTRAL           EQUALS   ITEMP1                                #  S.P. K FROM KQ OR KR FIRST AT PI/2(8)
000187: E6,1526     0066               K2CNTRAL           EQUALS   ITEMP2                                #  S.P. K(2) FROM Q OR R 1ST AT PI(2)/2(16)
000188: E6,1526     0070               WCENTRAL           EQUALS   ITEMP3                                #  S.P. OMEGA SCALED AT PI/4 RADIANS/SECOND
000189: E6,1526     0071               ACENTRAL           EQUALS   ITEMP4                                #  S.P. ALPHA SCALED AT PI/8 RAD/SEC(2)
000190: E6,1526     0072               DEL                EQUALS   ITEMP5                                #  S.P. SGN(FUNCTION)
000191: E6,1526     0073               QRCNTR             EQUALS   ITEMP6                                #  S.P. COUNTER: Q,Y=0, R,Z=2
000192:
000193:                                                                                                  #  THE ABOVE QUANTITIES ARE ONLY NEEDED ON A VERY TEMPORARY BASIS AND HAVE BEEN PROVEN TO BE NON-CONFLICTING.
000194:
000195: E6,1526                        L,PVT-CG           ERASE                                          #  TRIM GIMBAL PIVOT TO CG DIST AT 8 FEET
000196:
000197: E6,1527                        MULTFLAG           ERASE                                          #  INDICATOR FOR SPDPMULT ROUTINE
000198:
000199: E6,1530                        FUNCTION           ERASE    +1                                    #  D.P. WORD FOR DRIVE FUNCTIONS
000200:
000201: E6,1532                        NEGUQ              ERASE    +2                                    #  NEGATIVE OF Q-AXIS GIMBAL DRIVE
000202: E6,1535  E6,1533               THRSTCMD           EQUALS   NEGUQ      +1                         #  THRUST COMMAND AT 16384 LBS (SEPARATOR)
000203: E6,1535  E6,1534               NEGUR              EQUALS   NEGUQ      +2                         #  NEGATIVE OF R-AXIS GIMBAL DRIVE
000204:
000205: E6,1535                        KQ                 ERASE    +3                                    #  .3ACCDOTQ SCALED AT PI/2(8)
000206: E6,1541  E6,1536               KQ2                EQUALS   KQ         +1                         #  KQ2 = KQ*KQ
000207: E6,1541  E6,1537               KR                 EQUALS   KQ         +2                         #  .3ACCDOTR SCALED AT PI/2(8)
000208: E6,1541  E6,1540               KR2                EQUALS   KQ         +3                         #  KR2 = KR*KR
000209:
000210: E6,1541                        ACCDOTQ            ERASE    +3                                    #  Q-JERK SCALED AT PI/2(7) UNSIGNED
000211: E6,1545  E6,1542               QACCDOT            EQUALS   ACCDOTQ    +1                         #  Q-JERK SCALED AT PI/2(7) SIGNED
000212: E6,1545  E6,1543               ACCDOTR            EQUALS   ACCDOTQ    +2                         #  R-JERK SCALED AT PI/2(7) UNSIGNED
000213: E6,1545  E6,1544               RACCDOT            EQUALS   ACCDOTQ    +3                         #  R-JERK SCALED AT PI/2(7) SIGNED
000214:
000215: E6,1545  E6,1477               QDIFF              EQUALS   QERROR                                #  ATTITUDE ERRORS:
000216: E6,1545  E6,1500               RDIFF              EQUALS   RERROR                                #  SCALED AT PI RADIANS
000217:
000218: E6,1545                        TIMEOFFQ           ERASE                                          #  TIMES TO GO UNTIL TRIM GIMBAL TURN-OFF.
000219: E6,1546                        TIMEOFFR           ERASE                                          #  ZERO MEANS NO ACTION, SCALED AS WAITLIST
000220:


000222:                                                                                                  #  KALMAN FILTER ERASABLES.
000223:
000224: E6,1547                        STORCDUY           ERASE                                          #  THIS S.P. PAIR IS USED TO SAVE CDUY,Z
000225: E6,1550                        STORCDUZ           ERASE                                          #  FOR THE GTS RUPT
000226:
000227: E6,1551     0076               CDU                EQUALS   RUPTREG3                              #  RUPTREG3,4 USED AS D.P. WORD FOR CDU
000228:                                                                                                  #  VALUE WITHIN FILTER 1S COMP AT 2PI RAD
000229:
000230: E6,1551     0065               CDUDOT             EQUALS   ITEMP1                                #  ITEMP1,2 USED AS D.P. WORD FOR CDUDOT
000231:                                                                                                  #  VALUE WITHIN FILTER SCALED AT PI/4
000232:
000233: E6,1551     0070               CDU2DOT            EQUALS   ITEMP3                                #  ITEMP3,4 USED AS D.P. WORD FOR CDU2DOT
000234:                                                                                                  #  VALUE WITHIN FILTER SCALED AT PI/8
000235:
000236: E6,1551                        DT                 ERASE                                          #  TIME ELAPSED SCALED AT 1/8: NOMINAL=50MS
000237: E6,1552                        DAPTIME            ERASE                                          #  USED TO RECORD LAST TIME FROM CHANNEL 4
000238:
000239: E6,1553                        STEERADR           ERASE                                          #  DTCALC SWITCH IN FILTER INITIALIZATION
000240:
000241: E6,1554                        DPDIFF             ERASE    +1                                    #  D.P. WEIGHTING VECTOR FACTOR AT P1
000242: E6,1556                        WPOINTER           ERASE                                          #  POINTER TO WEIGHTING VECTOR TABLE
000243: E6,1557                        W0                 ERASE    +2                                    #  THETA WEIGHT
000244: E6,1562  E6,1560               W1                 EQUALS   W0         +1                         #  OMEGA WEIGHT
000245: E6,1562  E6,1561               W2                 EQUALS   W1         +1                         #  ALPHA WEIGHT
000246:
000247: E6,1562                        CDUYFIL            ERASE    +1                                    #  Y-AXIS D.P. FILTERED THETA AT 2PI
000248: E6,1564                        CDUZFIL            ERASE    +1                                    #  Z-AXIS D.P. FILTERED THETA AT 2PI
000249: E6,1566                        DCDUYFIL           ERASE    +1                                    #  Y-AXIS D.P. FILTERED OMEGA AT PI/4
000250: E6,1570                        DCDUZFIL           ERASE    +1                                    #  Z-AXIS D.P. FILTERED OMEGA AT PI/4
000251: E6,1572                        D2CDUYFL           ERASE    +1                                    #  Y-AXIS D.P. FILTERED ALPHA AT PI/8
000252: E6,1574                        D2CDUZFL           ERASE    +1                                    #  Z-AXIS D.P. FILTERED ALPHA AT PI/8
000253: E6,1576                        Y3DOT              ERASE                                          #  Y-AXIS S.P. JERK AT PI/2(7)
000254: E6,1577                        CDU3DOT            ERASE                                          #                    LOOP REGISTER (SPACER)
000255: E6,1600                        Z3DOT              ERASE                                          #  Z-AXIS S.P. JERK AT PI/2(7)
000256:
000257: E6,1601                        PFILTADR           ERASE    +1                                    #  2CADR FOR FILTER RUPT 30 MS AFTER P-AXIS
000258: E6,1603                        PFRPTLST           ERASE    +7                                    #  POST FILTER RUPT LIST
000259: E6,1613                        PJUMPADR           ERASE
000260: E6,1614                        QJUMPADR           ERASE
000261:                                                                                                  #  TORQUE VECTOR RECONSTRUCTION VARIABLES:
000262:


000264: E6,1615                        JETRATE            ERASE    +2                                    #  WEIGHTED RATES DUE TO JETS APPLIED IN
000265: E6,1620  E6,1616               JETRATEQ           EQUALS   JETRATE    +1                         #  THE LAST CONTROL SAMPLE PERIOD OF 100 MS
000266: E6,1620  E6,1617               JETRATER           EQUALS   JETRATE    +2                         #  SCALED AT PI/4 RADIANS/SECOND
000267:
000268: E6,1620                        NO.QJETS           ERASE    +1                                    #  NUMBER OF Q AND R JETS THAT ARE GIVEN
000269: E6,1622  E6,1621               NO.RJETS           EQUALS   NO.QJETS   +1                         #  BY THE JET SELECT LOGIC
000270:
000271: E6,1622                        100MSPTQ           ERASE
000272:


000274: E6,1623                        QR.1STOQ           ERASE
000275: E6,1624                        NO.PJETS           ERASE
000276: E6,1625                        TP                 ERASE    +1                                    #  TIME CALCULATED BY TJETLAW FOR P, QR
000277: E6,1627  E6,1626               TQR                EQUALS   TP         +1                         #  SCALED AS TIME6, THEN TQR RESCALED TO 1
000278:
000279: E6,1627                        1JACC              ERASE    +4                                    #  ACCELERATIONS DUE TO 1 JET TORQUING
000280: E6,1634  E6,1630               1JACCQ             EQUALS   1JACC      +1                         #  SCALED AT PI/4 RADIANS/SECOND
000281: E6,1634  E6,1631               1JACCR             EQUALS   1JACC      +2
000282: E6,1634  E6,1632               1JACCU             EQUALS   1JACC      +3                         #  FOR U,V-AXES THE SCALE FACTOR IS  DIFF:
000283: E6,1634  E6,1633               1JACCV             EQUALS   1JACC      +4                         #  SCALED AT PI/2 RADIANS/SECOND (FOR ASC)
000284:
000285:                                                                                                  #  ASCENT VARIABLES:
000286:
000287: E6,1634                        AOSQ               ERASE    +3                                    #  ASCENT OFFSET ACCELERATIONS
000288: E6,1640  E6,1635               AOSR               EQUALS   AOSQ       +1                         #  ESTIMATED EVERY 2 SECONDS BY AOSTASK
000289: E6,1640  E6,1636               AOSU               EQUALS   AOSQ       +2                         #  U,V-ACCS ARE FORMED BY VECTOR ADDITION
000290: E6,1640  E6,1637               AOSV               EQUALS   AOSQ       +3                         #  SCALED AT PI/2 RADIANS/SECOND


000292:
000293: E6,1640     0070               ABVLAOSQ           EQUALS   ITEMP3                                #  ASCENT OFFSET ACCELERATIONS (ABVAL)
000294: E6,1640     0071               ABVLAOSR           EQUALS   ABVLAOSQ   +1                         #  SCALED AT PI/2 RADIANS/SECOND(2)
000295: E6,1640     0072               ABVLAOSU           EQUALS   ABVLAOSQ   +2
000296: E6,1640     0073               ABVLAOSV           EQUALS   ABVLAOSQ   +3
000297:
000298: E6,1640                        SUMRATEQ           ERASE    +1                                    #  SUM OF UN-WEIGHTED JETRATE TERMS
000299: E6,1642  E6,1641               SUMRATER           EQUALS   SUMRATEQ   +1                         #  SCALED AT PI/4 RADIANS/SECOND
000300:
000301: E6,1642                        AOSQTERM           ERASE    +1                                    #  (.1-.05K)AOS
000302: E6,1644  E6,1643               AOSRTERM           EQUALS   AOSQTERM   +1                         #  SCALED AT PI/4 RADIANS/SECOND
000303:
000304: E6,1644                        OLDWFORQ           ERASE    +1                                    #  OMEGA VALUE 2 SECONDS AGO
000305: E6,1646  E6,1645               OLDWFORR           EQUALS   OLDWFORQ   +1                         #  SCALED AT PI/4 RADIANS/SECOND
000306:
000307: E6,1646                        DBMINIMP           ERASE    +1                                    #  MINIMUM IMPULSE DEADBANDS (EQUAL IN DESC
000308: E6,1650  E6,1647               MINIMPDB           EQUALS   DBMINIMP   +1                         #  AT .3 DEG, 0,-DB RESPECTIVELY FOR ASC)
000309:                                                                                                  #  SCALED AT PI RADIANS
000310:
000311: E6,1650                        .5ACCMNE           ERASE    +4                                    #  (1/2)(1/ACCMIN) WHICH IS THE INVERSE OF
000312: E6,1655  E6,1651               .5ACCMNQ           EQUALS   .5ACCMNE   +1                         #  THE MINIMUM ACCELERATION (A CONSTANT FOR
000313: E6,1655  E6,1652               .5ACCMNR           EQUALS   .5ACCMNE   +2                         #  DESCENT AND A VARIABLE FOR ASCENT DAP)
000314: E6,1655  E6,1653               .5ACCMNU           EQUALS   .5ACCMNE   +3                         #  SCALED AT 2(.8)/PI
000315: E6,1655  E6,1654               .5ACCMNV           EQUALS   .5ACCMNE   +4                         #  IN UNITS OF SECONDS(2)/RADIAN
000316:
000317: E6,1655                        WFORP              ERASE    +1                                    #  W = K/(NOMINAL DT)
000318: E6,1657  E6,1656               WFORQR             EQUALS   WFORP      +1                         #  SCALED AT 16
000319:
000320: E6,1657                        (1-K)QR            ERASE    +1                                    #  1-K SCALED AT 1
000321: E6,1661  E6,1660               (1-K)/8            EQUALS   (1-K)QR    +1                         #  1-K SCALED AT 8
000322:
000323: E6,1661                        1/NJTSQ            ERASE    +3                                    #  1/NJETACC FOR EACH AXIS
000324: E6,1665  E6,1662               1/NJTSR            EQUALS   1/NJTSQ    +1                         #  FOR DESCENT THIS IS ALWAYS 1/2JTS


000326: E6,1665  E6,1663               1/NJTSU            EQUALS   1/NJTSQ    +2                         #  FOR ASCENT WITH HIGH OFFSET: 1/4JTS
000327: E6,1665  E6,1664               1/NJTSV            EQUALS   1/NJTSQ    +3                         #  SCALED AT 2(8)/PI SEC(2)/RAD
000328:
000329: E6,1665                        QMANDACC           ERASE    +3                                    #  ASCENT FLAGS
000330: E6,1671  E6,1666               RMANDACC           EQUALS   QMANDACC   +1                         #  0: INDICATES NO OVER-RIDE OF 2 JETS
000331: E6,1671  E6,1667               UMANDACC           EQUALS   QMANDACC   +2                         #  1: INDICATES USE 4 INSTEAD OF 2 JETS
000332: E6,1671  E6,1670               VMANDACC           EQUALS   QMANDACC   +3                         #  (ALWAYS ZERO FOR DESCENT)
000333:
000334: E6,1671                        KCOEFCTR           ERASE                                          #  COUNTER FOR ASCENT DAP
000335:
000336:
000337:                                                                                                  #  THE SAVE RATE INDEX AND THE THREE DELCDUS ARE LOCATED HERE TEMPORARILY, AWAITING MORE LOGICAL PLACEMENT WHEN THE
000338:                                                                                                  #  DAP IS ASSEMBLED INTO SUNBURST
000339:
000340: E6,1672                        DLCDUIDX           ERASE                                          #  SAVE RATE INDEX, = 1, 0
000341: E6,1673                        DELCDUX            ERASE
000342: E6,1674                        DELCDUY            ERASE                                          #  DELCDUS ARE SCALED AT P1, LIKE THE CDUS
000343: E6,1675                        DELCDUZ            ERASE

End of include-file DIGITAL_AUTOPILOT_ERASABLE.agc.  Parent file is MAIN.agc


