
Source Code


000002:                                                                                                  #  Copyright:    Public domain.
000003:                                                                                                  #  Filename:     ERASABLE_ASSIGNMENTS.agc
000004:                                                                                                  #  Purpose:      Part of the source code for Aurora (revision 12).
000005:                                                                                                  #  Assembler:    yaYUL
000006:                                                                                                  #  Contact:      Ron Burkey <info@sandroid.org>.
000007:                                                                                                  #  Website:      https://www.ibiblio.org/apollo.
000008:                                                                                                  #  Pages:        7-25
000009:                                                                                                  #  Mod history:  2016-09-20 JL   Created.
000010:                                                                                                  #                2016-10-04 HG   Insert missed statements
000011:                                                                                                  #                2016-10-12 HG   add missing  THRUST  EQUALS  55
000012:                                                                                                  #                                fix label   SQRANG -> SQRARG
000013:                                                                                                  #                2016-10-15 HG   fix label   LASTXMCD -> LASTXCMD
000014:                                                                                                  #                2016-10-16 HG   FIX LABEL   SCALSAVE -> SCALSAV
000015:
000016:                                                                                                  #  This source code has been transcribed or otherwise adapted from
000017:                                                                                                  #  digitized images of a hardcopy from the private collection of
000018:                                                                                                  #  Don Eyles.  The digitization was performed by archive.org.
000019:
000020:                                                                                                  #  Notations on the hardcopy document read, in part:
000021:
000022:                                                                                                  #        473423A YUL SYSTEM FOR BLK2: REVISION 12 of PROGRAM AURORA BY DAP GROUP
000023:                                                                                                  #        NOV 10, 1966
000024:
000025:                                                                                                  #        [Note that this is the date the hardcopy was made, not the
000026:                                                                                                  #        date of the program revision or the assembly.]
000027:
000028:                                                                                                  #  The scan images (with suitable reduction in storage size and consequent
000029:                                                                                                  #  reduction in image quality) are available online at
000030:                                                                                                  #        https://www.ibiblio.org/apollo.
000031:                                                                                                  #  The original high-quality digital images are available at archive.org:
000032:                                                                                                  #        https://archive.org/details/aurora00dapg
000033:


000035: ???????                        A                  EQUALS   0
000036: ???????                        L                  EQUALS   1                                     #  L AND Q ARE BOTH CHANNELS AND REGISTERS.
000037: ???????                        Q                  EQUALS   2
000038: ???????                        EBANK              EQUALS   3
000039: ???????                        FBANK              EQUALS   4
000040: ???????                        Z                  EQUALS   5                                     #  ADJACENT TO FBANK AND BBANK FOR DXCH Z
000041: ???????                        BBANK              EQUALS   6                                     #  (DTCB) AND DXCH FBANK (DTCF).
000042:                                                                                                  #  REGISTER 7 IS A ZERO-SOURCE, USED BY ZL.
000043:
000044: ???????                        ARUPT              EQUALS   10                                    #  INTERRUPT STORAGE.
000045: ???????                        LRUPT              EQUALS   11
000046: ???????                        QRUPT              EQUALS   12
000047: ???????                        SAMPTIME           EQUALS   13                                    #  SAMPLED TIME 1 & 2.
000048: ???????                        ZRUPT              EQUALS   15                                    #  (13 AND 14 ARE SPARES.)
000049: ???????                        BANKRUPT           EQUALS   16                                    #  USUALLY HOLDS FBANK OR BBANK.
000050: ???????                        BRUPT              EQUALS   17                                    #  RESUME ADDRESS AS WELL.
000051:
000052: ???????                        CYR                EQUALS   20
000053: ???????                        SR                 EQUALS   21
000054: ???????                        CYL                EQUALS   22
000055: ???????                        EDOP               EQUALS   23                                    #  EDITS INTERPRETIVE OPERATION CODE PAIRS.
000056:
000057:
000058: ???????                        TIME2              EQUALS   24
000059: ???????                        TIME1              EQUALS   25
000060: ???????                        TIME3              EQUALS   26
000061: ???????                        TIME4              EQUALS   27
000062: ???????                        TIME5              EQUALS   30
000063: ???????                        TIME6              EQUALS   31
000064: ???????                        CDUX               EQUALS   32
000065: ???????                        CDUY               EQUALS   33
000066: ???????                        CDUZ               EQUALS   34
000067: ???????                        OPTY               EQUALS   35
000068: ???????                        OPTX               EQUALS   36
000069: ???????                        PIPAX              EQUALS   37
000070: ???????                        PIPAY              EQUALS   40
000071: ???????                        PIPAZ              EQUALS   41
000072: ???????                        BMAGX              EQUALS   42
000073: ???????                        RHCP               EQUALS   42
000074: ???????                        BMAGY              EQUALS   43
000075: ???????                        RHCY               EQUALS   43
000076: ???????                        BMAGZ              EQUALS   44
000077: ???????                        RHCR               EQUALS   44
000078: ???????                        INLINK             EQUALS   45
000079: ???????                        RNRAD              EQUALS   46
000080: ???????                        GYROCTR            EQUALS   47
000081: ???????                        GYROCMD            EQUALS   47
000082: ???????                        CDUXCMD            EQUALS   50
000083: ???????                        CDUYCMD            EQUALS   51
000084:


000086: ???????                        CDUZCMD            EQUALS   52
000087: ???????                        OPTYCMD            EQUALS   53
000088: ???????                        OPTXCMD            EQUALS   54
000089: ???????                        EMSD               EQUALS   55
000090: ???????                        THRUST             EQUALS   55
000091: ???????                        LEMONM             EQUALS   56
000092: ???????                        OUTLINK            EQUALS   57
000093: ???????                        ALTM               EQUALS   60
000094:
000095:    0067                                           SETLOC   67                                    #  DECODED REGISTER FOR NIGHT-WATCHMAN ALM.
000096:    0067                        NEWJOB             ERASE
000097:
000098:    0070                        LVSQUARE           EQUALS   34D                                   #  SQUARE OF VECTOR INPUT TO ABVAL AND UNIT
000099:    0070                        LV                 EQUALS   36D                                   #  LENGTH OF VECTOR INPUT TO UNIT.
000100:    0070                        X1                 EQUALS   38D                                   #  INTERPRETIVE SPECIAL REGISTERS RELATIVE
000101:    0070                        X2                 EQUALS   39D                                   #  TO THE WORK AREA.
000102:    0070                        S1                 EQUALS   40D
000103:    0070                        S2                 EQUALS   41D
000104:    0070                        QPRET              EQUALS   42D
000105:


000107:
000108:                                                                                                  #  GENERAL ERASABLE ASSIGNMENTS.
000109:
000110:    0061                                           SETLOC   61
000111:
000112:                                                                                                  #  INTERPRETIVE SWITCH RESERVATIONS.
000113:
000114:    0061                        STATE              ERASE    +3                                    #  60 SWITCHES PRESENTLY.
000115:
000116:                                                                                                  #  INTERPRETIVE SWITCH BIT ASSIGNMENTS:
000117:
000118:    0065                        WMATFLAG           EQUALS   0
000119:    0065                        JSWITCH            EQUALS   1
000120:    0065                        MIDFLAG            EQUALS   2
000121:    0065                        MOONFLAG           EQUALS   3
000122:    0065                        NBSMBIT            EQUALS   4
000123:    0065                        COAROFIN           EQUALS   5
000124:    0065                        BODYFLAG           EQUALS   6
000125:    0065                        IMUSE              EQUALS   7
000126:    0065                        RRUSE              EQUALS   8D
000127:    0065                        RRNBSW             EQUALS   9D
000128:    0065                        LOKONSW            EQUALS   10D
000129:                                                                                                  #  END OF SWITCH ASSIGNMENTS
000130:
000131:                                                                                                  #        THE FOLLOWING SET COMPRISES THE INTERRUPT TEMPORARY STORAGE POO
000132:
000133:                                                                                                  #        ANY OF THESE MAY BE USED AS TEMPORARIES DURING INTERRUPT OR WITH INTERRUPT INHIBITED. THE ITEMP SERIES
000134:                                                                                                  #  IS USED DURING CALLS TO THE EXECUTIVE AND WAITLIST - THE RUPTREGS ARE NOT.
000135:
000136:    0065                        ITEMP1             ERASE
000137:    0066     0065               WAITEXIT           EQUALS   ITEMP1
000138:    0066     0065               EXECTEM1           EQUALS   ITEMP1
000139:
000140:    0066                        ITEMP2             ERASE
000141:    0067     0066               WAITBANK           EQUALS   ITEMP2
000142:    0067     0066               EXECTEM2           EQUALS   ITEMP2
000143:
000144:    0070                                           SETLOC   70
000145:
000146:    0070                        ITEMP3             ERASE
000147:    0071     0070               RUPTSTOR           EQUALS   ITEMP3
000148:    0071     0070               WAITADR            EQUALS   ITEMP3
000149:    0071     0070               NEWPRIO            EQUALS   ITEMP3
000150:
000151:    0071                        ITEMP4             ERASE
000152:    0072     0071               LOCCTR             EQUALS   ITEMP4
000153:    0072     0071               WAITTEMP           EQUALS   ITEMP4
000154:
000155:    0072                        ITEMP5             ERASE


000157:    0073     0072               NEWLOC             EQUALS   ITEMP5
000158:
000159:    0073                        ITEMP6             ERASE
000160:    0074     0073               NEWLOC+1           EQUALS   ITEMP6
000161:
000162:    0074                        RUPTREG1           ERASE
000163:    0075                        RUPTREG2           ERASE
000164:    0076                        RUPTREG3           ERASE
000165:    0077                        RUPTREG4           ERASE
000166:    0100     0077               KEYTEMP1           EQUALS   RUPTREG4
000167:    0100     0077               DSRUPTEM           EQUALS   RUPTREG4
000168:
000169:                                                                                                  #        THE FOLLOWING ARE EXECUTIVE TEMPORARIES WHICH MAY BE USED BETWEEN CCS NEWJOB INQUIRIES.
000170:    0100                        INTB15+            ERASE                                          #  REFLECTS 15TH BIT OF INDEXABLE ADDRESSES
000171:    0101     0100               DSEXIT             =        INTB15+                               #  RETURN FOR DSPIN
000172:    0101     0100               EXITEM             =        INTB15+                               #  RETURN FOR SCALE FACTOR ROUTINE SELECT
000173:    0101     0100               BLANKRET           =        INTB15+                               #  RETURN FOR 2BLANK
000174:
000175:    0101                        INTBIT15           ERASE                                          #  SIMILAR TO ABOVE.
000176:    0102     0101               WRDRET             =        INTBIT15                              #  RETURN FOR 5BLANK
000177:    0102     0101               WDRET              =        INTBIT15                              #  RETURN FOR DSPWD
000178:    0102     0101               DECRET             =        INTBIT15                              #  RETURN FOR PUTCOM(DEC LOAD)
000179:    0102     0101               21/22REG           =        INTBIT15                              #  TEMP FOR CHARIN
000180:
000181:                                                                                                  #        THE REGISTERS BETWEEN ADDRWD AND PRIORITY MUST STAY IN THE FOLLOWING ORDER FOR INTERPRETIVE TRACE.
000182:
000183:    0102                        ADDRWD             ERASE                                          #  12 BIT INTERPRETIVE OPERAND SUB-ADDRESS.
000184:    0103                        POLISH             ERASE                                          #  HOLDS CADR MADE FROM POLISH ADDRESS.
000185:    0104     0103               UPDATRET           =        POLISH                                #  RETURN FOR UPDATNN, UPDATVB
000186:    0104     0103               CHAR               =        POLISH                                #  TEMP FOR CHARIN
000187:    0104     0103               ERCNT              =        POLISH                                #  COUNTER FOR ERROR LIGHT RESET
000188:    0104     0103               DECOUNT            =        POLISH                                #  COUNTER FOR SCALING AND DISPLAY (DEC)
000189:
000190:    0104                        FIXLOC             ERASE                                          #  WORK AREA ADDRESS.
000191:
000192:    0105                        OVFIND             ERASE                                          #  SET NON-ZERO ON OVERFLOW.
000193:
000194:    0106                        VBUF               ERASE    +5                                    #  TEMPORARY STORAGE USED FOR VECTORS.
000195:    0114     0106               SGNON              =        VBUF                                  #  TEMP FOR +,- ON
000196:    0114     0106               NOUNTEM            =        VBUF                                  #  COUNTER FOR MIXNOUN FETCH
000197:    0114     0106               DISTEM             =        VBUF                                  #  COUNTER FOR OCTAL DISPLAY VERBS
000198:    0114     0106               DECTEM             =        VBUF                                  #  COUNTER FOR FETCH (DEC DISPLAY VERBS)
000199:
000200:    0114     0107               SGNOFF             =        VBUF       +1                         #  TEMP FOR +,- ON
000201:    0114     0107               NVTEMP             =        VBUF       +1                         #  TEMP FOR NVSUB
000202:    0114     0107               SFTEMP1            =        VBUF       +1                         #  STORAGE FOR SF CONST HI PART(=SFTEMP2-1)
000203:
000204:    0114     0110               CODE               =        VBUF       +2                         #  FOR DSPIN
000205:    0114     0110               SFTEMP2            =        VBUF       +2                         #  STORAGE FOR SF CONST LO PART(=SFTEMP1+1)


000207:    0114     0111               MIXTEMP            =        VBUF       +3                         #  FOR MIXNOUN DATA
000208:    0114     0111               SIGNRET            =        VBUF       +3                         #  RETURN FOR +,- ON
000209:
000210:                                                                                                  #  ALSO MIXTEMP+1 = VBUF+4, MIXTEMP+2 = VBUF+5.
000211:
000212:    0114                        BUF                ERASE    +2                                    #  TEMPORARY SCALAR STORAGE.
000213:    0117                        BUF2               ERASE    +1
000214:    0121     0114               INDEXLOC           EQUALS   BUF                                   #  CONTAINS ADDRESS OF SPECIFIED INDEX.
000215:    0121     0114               SWWORD             EQUALS   BUF                                   #  ADDRESS OF SWITCH WORD.
000216:    0121     0115               SWBIT              EQUALS   BUF        +1                         #  SWITCH BIT WITHIN SWITCH WORD
000217:    0121                        MPTEMP             ERASE                                          #  TEMPORARY USED IN MULTIPLY AND SHIFT.
000218:    0122                        DOTINC             ERASE                                          #  COMPONENT INCREMENT FOR DOT SUBROUTINE.
000219:    0123     0122               DVSIGN             EQUALS   DOTINC                                #  DETERMINES SIGN OF DDV RESULT.
000220:    0123     0122               ESCAPE             EQUALS   DOTINC                                #  USED IN ARCSIN/ARCCOS.
000221:    0123     0122               ENTRET             =        DOTINC                                #  EXIT FROM ENTER
000222:
000223:    0123                        DOTRET             ERASE                                          #  RETURN FROM DOT SUBROUTINE.
000224:    0124     0123               DVNORMCT           EQUALS   DOTRET                                #  DIVIDEND NORMALIZATION COUNT IN DDV.
000225:    0124     0123               ESCAPE2            EQUALS   DOTRET                                #  ALTERNATE ARCSIN/ARCCOS SWITCH.
000226:    0124     0123               WDCNT              =        DOTRET                                #  CHAR COUNTER FOR DSPWD
000227:    0124     0123               INREL              =        DOTRET                                #  INPUT BUFFER SELECTOR ( X,Y,Z, REG )
000228:
000229:    0124                        MATINC             ERASE                                          #  VECTOR INCREMENT IN MXV AND VXM.
000230:    0125     0124               MAXDVSW            EQUALS   MATINC                                #  +0 IF DP QUOTIENT IS NEAR ONE - ELSE -1.
000231:    0125     0124               POLYCNT            EQUALS   MATINC                                #  POLYNOMIAL LOOP COUNTER
000232:    0125     0124               DSPMMTEM           =        MATINC                                #  DSPCOUNT SAVE FOR DSPMM
000233:    0125     0124               MIXBR              =        MATINC                                #  INDICATOR FOR MIXED OR NORMAL NOUN
000234:
000235:    0125                        TEM1               ERASE                                          #  EXEC TEMP
000236:    0126     0125               POLYRET            =        TEM1
000237:    0126     0125               DSREL              =        TEM1                                  #  REL ADDRESS FOR DSPIN
000238:
000239:    0126                        TEM2               ERASE                                          #  EXEC TEMP
000240:    0127     0126               DSMAG              =        TEM2                                  #  MAGNITUDE STORE FOR DSPIN
000241:    0127     0126               IDADDTEM           =        TEM2                                  #  MIXNOUN INDIRECT ADDRESS STORAGE
000242:
000243:    0127                        TEM3               ERASE                                          #  EXEC TEMP
000244:    0130     0127               COUNT              =        TEM3                                  #  FOR DSPIN
000245:
000246:    0130                        TEM4               ERASE                                          #  EXEC TEMP
000247:    0131     0130               LSTPTR             =        TEM4                                  #  LIST POINTER FOR GRABUSY
000248:    0131     0130               RELRET             =        TEM4                                  #  RETURN FOR RELDSP
000249:    0131     0130               FREERET            =        TEM4                                  #  RETURN FOR FREEDSP
000250:
000251:    0131                        TEM5               ERASE                                          #  EXEC TEMP
000252:    0132     0131               NOUNADD            =        TEM5                                  #  TEMP STORAGE FOR NOUN ADDRESS
000253:
000254:    0132                        NNADTEM            ERASE                                          #  TEMP FOR NOUN ADDRESS TABLE ENTRY
000255:    0133                        NNTYPTEM           ERASE                                          #  TEMP FOR NOUN TYPE TABLE ENTRY
000256:    0134                        IDAD1TEM           ERASE                                          #  TEMP FOR INDIR ADRESS TABLE ENTRY(MIXNN)


000258:                                                                                                  #  MUST = IDAD2TEM-1, = IDAD3TEM-2.
000259:    0135                        IDAD2TEM           ERASE                                          #  TEMP FOR INDIR ADRESS TABLE ENTRY(MIXNN)
000260:                                                                                                  #  MUST = IDAD1TEM+1, = IDAD3TEM-1.
000261:    0136                        IDAD3TEM           ERASE                                          #  TEMP FOR INDIR ADRESS TABLE ENTRY(MIXNN)
000262:                                                                                                  #  MUST = IDAD1TEM+2, = IDAD2TEM+1.
000263:    0137                        RUTMXTEM           ERASE                                          #  TEMP FOR SF ROUT TABLE ENTRY(MIXNN ONLY)
000264:
000265:
000266:
000267:                                                                                                  #        STORAGE USED BY THE EXECUTIVE.
000268:
000269:    0140                        MPAC               ERASE    +6                                    #  MULTI-PURPOSE ACCUMULATOR.
000270:    0147                        MODE               ERASE                                          #  +1 FOR TP, +0 FOR DP, OR -1 FOR VECTOR.
000271:    0150                        LOC                ERASE                                          #  LOCATION ASSOCIATED WITH JOB.
000272:    0151                        BANKSET            ERASE                                          #  USUALLY CONTAINS BBANK SETTING.
000273:    0152                        PUSHLOC            ERASE                                          #  WORD OF PACKED INTERPRETIVE PARAMETERS.
000274:    0153                        PRIORITY           ERASE                                          #  PRIORITY OF PRESENT JOB AND WORK AREA.
000275:
000276:    0154                                           ERASE    +71D                                  #  SEVEN SETS OF 12 REGISTERS EACH.
000277:


000279:                                                                                                  #  THE FOLLOWING REGISTERS ARE RESERVED FOR PINBALL
000280:
000281:
000282:                                                                                                  #  RESERVED FOR PINBALL EXECUTIVE ACTION
000283:
000284:    0264                        DSPCOUNT           ERASE                                          #  DISPLAY POSITION INDICATOR
000285:    0265                        DECBRNCH           ERASE                                          #  +DEC, - DEC, OCT INDICATOR
000286:    0266                        VERBREG            ERASE                                          #  VERB CODE
000287:    0267                        NOUNREG            ERASE                                          #  NOUN CODE
000288:    0270                        XREG               ERASE                                          #  R1 INPUT BUFFER
000289:    0271                        YREG               ERASE                                          #  R2 INPUT BUFFER
000290:    0272                        ZREG               ERASE                                          #  R3 INPUT BUFFER
000291:    0273                        XREGLP             ERASE                                          #  LO PART OF XREG (FOR DEC CONV ONLY)
000292:    0274                        YREGLP             ERASE                                          #  LO PART OF YREG (FOR DEC CONV ONLY)
000293:    0275                        ZREGLP             ERASE                                          #  LO PART OF ZREG (FOR DEC CONV ONLY)
000294:    0276                        MODREG             ERASE                                          #  MODE CODE
000295:    0277                        DSPLOCK            ERASE                                          #  KEYBOARD/SUBROUTINE CALL INTERLOCK
000296:    0300                        REQRET             ERASE                                          #  RETURN REGISTER FOR LOAD
000297:    0301                        LOADSTAT           ERASE                                          #  STATUS INDICATOR FOR LOADTST
000298:    0302                        CLPASS             ERASE                                          #  PASS INDICATOR CLEAR
000299:    0303                        NOUT               ERASE                                          #  ACTIVITY COUNTER FOR DSPTAB
000300:    0304                        NOUNCADR           ERASE                                          #  MACHINE CADR FOR NOUN
000301:    0305                        MONSAVE            ERASE                                          #  N/V CODE FOR MONITOR. (= MONSAVE1-1)
000302:    0306                        MONSAVE1           ERASE                                          #  NOUNCADR FOR MONITOR(MATBS) =MONSAVE+1
000303:    0307                        DSPTAB             ERASE    +11D                                  #  0-10D, DISPLAY PANEL BUFF. 11D, C/S LTS.
000304:    0323                        CADRSTOR           ERASE                                          #  ENDIDLE STORAGE
000305:    0324                        GRABLOCK           ERASE                                          #  INTERNAL INTERLOCK FOR DISPLAY SYSTEM
000306:    0325                        NVQTEM             ERASE                                          #  NVSUB STORAGE FOR CALLING ADDRESS
000307:                                                                                                  #  MUST = NVBNKTEM-1.
000308:    0326                        NVBNKTEM           ERASE                                          #  NVSUB STORAGE FOR CALLING BANK
000309:                                                                                                  #  MUST = NVQTEM+1
000310:    0327                        DSPLIST            ERASE    +2                                    #  WAITING LIST FOR DSP SYST INTERNAL USE
000311:    0332                        EXTVBACT           ERASE                                          #  EXTENDED VERB ACTIVITY INTERLOCK
000312:    0333                        DSPTEM1            ERASE    +2                                    #  BUFFER STORAGE AREA 1 (MOSTLY FOR TIME)
000313:    0336                        DSPTEM2            ERASE    +2                                    #  BUFFER STORAGE AREA 2 (MOSTLY FOR DEG)
000314:                                                                                                  #  END OF ERASABLES RESERVED FOR PINBALL EXECUTIVE ACTION
000315:
000316:
000317:
000318:                                                                                                  #  RESERVED FOR PINBALL INTERRUPT ACTION
000319:
000320:    0341                        DSPCNT             ERASE                                          #  COUNTER FOR DSPOUT
000321:    0342                        UPLOCK             ERASE                                          #  BIT1 = UPLINK INTERLOCK ACTIVATED BY
000322:                                                                                                  #  RECEPTION OF A BAD MESSAGE IN UPLINK)
000323:                                                                                                  #  END OF ERASABLES RESERVED FOR PINBALL INTERRUPT ACTION
000324:
000325:
000326:
000327:                                                                                                  #         DAP STORAGE IN NON-SWITCHED ERASABLE.
000328:


000330:    0343                        T6LOC              ERASE    +1
000331:    0345     0343               T6ADR              EQUALS   T6LOC
000332:    0345                        T5LOC              ERASE    +1
000333:    0347     0345               T5ADR              EQUALS   T5LOC
000334:


000336:                                                                                                  #  ASSIGNMENTS FOR T4RUPT PROGRAM
000337:    0347                        T4LOC              ERASE
000338:    0350                        DSRUPTSW           ERASE
000339:    0351                        DIDFLG             ERASE
000340:    0352                        ALT                ERASE    +1
000341:    0354                        ALTRATE            ERASE
000342:    0355                        FINALT             ERASE    +1                                    #  (MAY NOT BE REQUIRED FOR FLIGHTS).
000343:    0357                        LGYRO              ERASE
000344:    0360                        FORVEL             ERASE
000345:    0361                        LATVEL             ERASE
000346:    0362                        LASTYCMD           ERASE
000347:    0363                        LASTXCMD           ERASE
000348:
000349:    0364                        ALTSAVE            ERASE    +1
000350:    0366                        LMPCMD             ERASE
000351:
000352:                                                                                                  #  END OF T4RUPT ASSIGNMENTS
000353:
000354:
000355:
000356:    0367                        IMODES30           ERASE
000357:    0370                        IMODES33           ERASE
000358:    0371                        MODECADR           ERASE    +2
000359:    0374     0371               IMUCADR            EQUALS   MODECADR
000360:    0374     0372               AOTCADR            EQUALS   MODECADR   +1
000361:    0374     0372               OPTCADR            EQUALS   AOTCADR
000362:    0374     0373               RADCADR            EQUALS   MODECADR   +2
000363:
000364:    0374                        MARKSTAT           ERASE
000365:    0375                        XYMARK             ERASE
000366:    0400                                           SETLOC   400
000367:


000369:                                                                                                  #  TEMPORARY PHONY ASSIGNMENTS TO KEEP PINBALL FROM HAVING BAD ASSEBLIES
000370:
000371:    0400                        THETAD             ERASE    +2
000372:    0403                        DELVX              ERASE    +5
000373:                                                                                                  #  END OF PHONY ASSIGNMENTS
000374:
000375:
000376:
000377:                                                                                                  #         DOWNLINK LIST ADDRESS.
000378:    0411                        DNLSTADR           ERASE
000379:
000380:                                                                                                  #  AGS DUMMY ID WORD
000381:    0412                        AGSWORD            ERASE
000382:                                                                                                  #  RADAR ERASABLE
000383:
000384:    0413                        RADMODES           ERASE
000385:    0414                        SAMPLIM            ERASE
000386:    0415                        SAMPLSUM           ERASE    +1
000387:    0417     0415               SAMPSUM            EQUALS   SAMPLSUM
000388:    0417                        OPTYHOLD           ERASE    +1
000389:    0421                        TIMEHOLD           ERASE    +1
000390:    0423     0415               RRTARGET           EQUALS   SAMPLSUM                              #  HALF UNIT VECTOR IN SM OR NB AXES.
000391:    0423                        TANG               ERASE    +1                                    #  DESIRED TRUNNION AND SHAFT ANGLES.
000392:    0425     0423               MODEA              EQUALS   TANG
000393:    0425                        MODEB              ERASE    +1                                    #  DODES CLOBBERS TANG +2.
000394:    0427     0425               NSAMP              EQUALS   MODEB
000395:    0427                        DESRET             ERASE
000396:    0430     0427               OLDATAGD           EQUALS   DESRET                                #  USED IN DATA READING ROUTINES.
000397:    0430                        DESCOUNT           ERASE
000398:                                                                                                  #  END OF RADAR ERASABLE ASSIGNMENTS
000399:
000400:    0431                        VAC1USE            ERASE
000401:    0432                        VAC1               ERASE    +42D
000402:    0505                        VAC2USE            ERASE
000403:    0506                        VAC2               ERASE    +42D
000404:    0561                        VAC3USE            ERASE
000405:    0562                        VAC3               ERASE    +42D
000406:    0635                        VAC4USE            ERASE
000407:    0636                        VAC4               ERASE    +42D
000408:    0711                        VAC5USE            ERASE
000409:    0712                        VAC5               ERASE    +42D
000410:
000411:                                                                                                  #  UNSWITCHED ERASABLE STORAGE ASSIGNMENTS FOR THE DAP
000412:
000413:    0765                        DAPBOOLS           ERASE
000414:    0766                        T6NEXT             ERASE    +1
000415:    0770                        T6NEXTJT           ERASE    +2
000416:
000417:    0773                        DELAYCTR           ERASE
000418:                                                                                                  #  THESE ARE WRITTEN INTO FROM SEVERAL PROGRAMS
000419:


000421:    0774                        CDUXD              ERASE
000422:    0775                        CDUYD              ERASE
000423:    0776                        CDUZD              ERASE
000424:    1000                                           SETLOC   1000
000425:
000426:                                                                                                  #  ERASABLE STORAGE FOR AVERAGE G INTEGRATOR
000427:
000428:    1000                        RN                 ERASE    +5
000429:    1006                        VN                 ERASE    +5
000430:    1014                        NSHIFT             ERASE
000431:    1015                        XSHIFT             ERASE
000432:    1016                        UNITR              ERASE    +5
000433:    1024                        UNITW              ERASE    +5
000434:    1032                        RMAG               ERASE    +1
000435:    1034                        RMAGSQ             ERASE    +1
000436:    1036                        GRAVITY            ERASE    +5
000437:    1044                        DELV               ERASE    +5
000438:    1052                        DELTAT             ERASE    +1
000439:    1054                        RN1                ERASE    +5
000440:    1062                        VN1                ERASE    +5
000441:                                                                                                  #        WAITLIST REPEAT FLAG:
000442:
000443:    1070                        RUPTAGN            ERASE
000444:    1071     1070               KEYTEMP2           =        RUPTAGN                               #  TEMP FOR KEYRUPT, UPRUPT
000445:
000446:                                                                                                  #        PHASE TABLE AND RESTART COUNTER.
000447:
000448:    1071                        -PHASE0            ERASE
000449:    1072                        PHASE0             ERASE
000450:    1073                        -PHASE1            ERASE
000451:    1074                        PHASE1             ERASE
000452:    1075                        -PHASE2            ERASE
000453:    1076                        PHASE2             ERASE
000454:    1077                        -PHASE3            ERASE
000455:    1100                        PHASE3             ERASE
000456:    1101                        -PHASE4            ERASE
000457:    1102                        PHASE4             ERASE
000458:    1103                        -PHASE5            ERASE
000459:    1104                        PHASE5             ERASE
000460:
000461:                                                                                                  #  ERASABLE FOR SINGLE PRECISION SUBROUTINES.
000462:
000463:    1105                        HALFY              ERASE
000464:    1106                        ROOTRET            ERASE
000465:    1107                        SQRARG             ERASE
000466:    1110     1105               TEMK               EQUALS   HALFY
000467:    1110     1106               SQ                 EQUALS   ROOTRET
000468:
000469:    1110                        1/PIPADT           ERASE                                          #  IMU COMPENSATION PACKAGE
000470:    1111     1110               OLDBT1             =        1/PIPADT
000471:


000473:                                                                                                  #  ASSIGNMENTS RESERVED EXCLUSIVELY FOR SELF-CHECK
000474:    1111                        SELFERAS           ERASE    1360       -          1377
000475:
000476:    1111                        SELFRET            =        1360
000477:    1111                        SMODE              =        1361
000478:    1111                        REDOCTR            =        1362                                  #  KEEPS TRACK OF RESTARTS
000479:    1111                        FAILREG            =        1363
000480:    1111                        SFAIL              =        1364
000481:    1111                        ERCOUNT            =        1365
000482:    1111                        SCOUNT             =        1366
000483:    1111                        SKEEP1             =        1371
000484:    1111                        SKEEP2             =        1372
000485:    1111                        SKEEP3             =        1373
000486:    1111                        SKEEP4             =        1374
000487:    1111                        SKEEP5             =        1375
000488:    1111                        SKEEP6             =        1376
000489:    1111                        SKEEP7             =        1377
000490:
000491:                                                                                                  #  WAITLIST TASK LISTS
000492:
000493: E3,1400                                           SETLOC   1400
000494:
000495: E3,1400                        LST1               ERASE    +7                                    #  DELTA T'S.
000496: E3,1410                        LST2               ERASE    +17D                                  #  2CADR TASK ADDRESSES.
000497:
000498:                                                                                                  #  IMU COMPENSATION PARAMETERS:
000499:
000500: E3,1432                        PBIASX             ERASE                                          #  PIPA BIAS AND PIPA SCALE FACTOR TERMS
000501: E3,1433  E3,1432               PIPABIAS           =        PBIASX                                #        INTERMIXED.
000502: E3,1433                        PIPASCFX           ERASE
000503: E3,1434  E3,1433               PIPASCF            =        PIPASCFX
000504: E3,1434                        PBIASY             ERASE
000505: E3,1435                        PIPASCFY           ERASE
000506: E3,1436                        PBIASZ             ERASE
000507: E3,1437                        PIPASCFZ           ERASE
000508:
000509: E3,1440                        NBDX               ERASE                                          #  GYRO BIAS DRIFTS
000510: E3,1441  E3,1440               GBIASX             =        NBDX
000511: E3,1441                        NBDY               ERASE
000512: E3,1442                        NBDZ               ERASE
000513:
000514: E3,1443                        ADIAX              ERASE                                          #  ACCELERATION SENSITIVE DRIFT ALONG THE
000515: E3,1444                        ADIAY              ERASE                                          #  INPUT AXIS
000516: E3,1445                        ADIAZ              ERASE
000517:
000518: E3,1446                        ADSRAX             ERASE                                          #  ACCELERATION SENSITIVE DRIFT ALONG THE
000519: E3,1447                        ADSRAY             ERASE                                          #  SPIN REFERENCE AXIS
000520: E3,1450                        ADSRAZ             ERASE
000521:
000522: E3,1451                        GCOMP              ERASE    +5                                    #  CONTAINS COMPENSATING TORQUES
000523:


000525: E3,1457                        GCOMPSW            ERASE
000526: E3,1460  E3,1451               COMMAND            EQUALS   GCOMP
000527: E3,1460  E3,1454               CDUIND             EQUALS   GCOMP      +3
000528:
000529: E3,1460                        RRRET              ERASE
000530: E3,1461                        RDES               ERASE
000531: E3,1462                        RRINDEX            ERASE
000532:
000533:                                                                                                  #  AOT CALIBRATIONS IN AZIMUTH AND ELEVATION AT DETENTS
000534: E3,1463                        AOTAZ              ERASE    +2
000535: E3,1466                        AOTEL              ERASE    +2
000536:                                                                                                  #        ASSIGNMENTS FOR PRESENTLY UNUSED NOUNS.
000537: E3,1471                        AZANG              EQUALS                                         #  DELETE WHEN OPTICAL TRACKER NOUNS GONE.
000538: E3,1471                        ELANG              EQUALS
000539: E3,1471                        DESLOTSY           EQUALS
000540: E3,1471                        DESLOTSX           EQUALS
000541:
000542: E3,1471                        ROLL               ERASE    +2
000543: E3,1474                        LANDMARK           ERASE    +5
000544:
000545: E3,1502                        TIMESAV            ERASE    +1
000546: E3,1504                        SCALSAV            ERASE    +1
000547: E3,1506                        TIMAR              ERASE    +1
000548: E3,1510                        TIMEDIFF           ERASE    +1
000549:
000550: E4,1400                                           SETLOC   2000
000551:
000552: E4,1400                        AMEMORY            ERASE    +150D
000553:                                                                                                  #        THE FOLLOWING A MEMORY LOCATIONS ARE USED BY MID-COURSE NAVIGATION:
000554:
000555: E4,1627  E4,1400               RRECT              EQUALS   AMEMORY    +000D
000556: E4,1627  E4,1400               RIGNTION           EQUALS   AMEMORY    +000D
000557: E4,1627  E4,1406               VRECT              EQUALS   AMEMORY    +006D
000558: E4,1627  E4,1406               VIGNTION           EQUALS   AMEMORY    +006D
000559: E4,1627  E4,1414               TDELTAV            EQUALS   AMEMORY    +012D
000560: E4,1627  E4,1414               NEWDLTAV           EQUALS   AMEMORY    +012D
000561: E4,1627  E4,1422               TNUV               EQUALS   AMEMORY    +018D
000562: E4,1627  E4,1422               NEWNUV             EQUALS   AMEMORY    +018D
000563: E4,1627  E4,1430               RCV                EQUALS   AMEMORY    +024D
000564: E4,1627  E4,1430               FOUNDR             EQUALS   AMEMORY    +024D
000565: E4,1627  E4,1436               VCV                EQUALS   AMEMORY    +030D
000566: E4,1627  E4,1436               FOUNDV             EQUALS   AMEMORY    +030D
000567: E4,1627  E4,1444               TC                 EQUALS   AMEMORY    +036D
000568: E4,1627  E4,1446               TET                EQUALS   AMEMORY    +038D
000569: E4,1627  E4,1450               XKEP               EQUALS   AMEMORY    +040D
000570: E4,1627  E4,1452               ALPHAV             EQUALS   AMEMORY    +042D


000572: E4,1627  E4,1452               DELR               EQUALS   AMEMORY    +042D
000573: E4,1627  E4,1460               BETAV              EQUALS   AMEMORY    +048D
000574: E4,1627  E4,1460               DELVEL             EQUALS   AMEMORY    +048D
000575: E4,1627  E4,1466               PHIV               EQUALS   AMEMORY    +054D
000576: E4,1627  E4,1466               BVECTOR            EQUALS   AMEMORY    +054D
000577: E4,1627  E4,1474               PSIV               EQUALS   AMEMORY    +060D
000578: E4,1627  E4,1502               FV                 EQUALS   AMEMORY    +066D
000579:
000580: E4,1627  E4,1510               VECTAB             EQUALS   AMEMORY    +072D
000581:
000582: E4,1627  E4,1510               TAVEGON            EQUALS   AMEMORY    +072D
000583: E4,1627  E4,1512               TRESUME            EQUALS   AMEMORY    +074D
000584: E4,1627  E4,1514               RAVEGON            EQUALS   AMEMORY    +076D
000585: E4,1627  E4,1522               VAVEGON            EQUALS   AMEMORY    +082D
000586: E4,1627  E4,1530               RIG-4SEC           EQUALS   AMEMORY    +088D
000587: E4,1627  E4,1554               ALPHAM             EQUALS   AMEMORY    +108D
000588: E4,1627  E4,1556               BETAM              EQUALS   AMEMORY    +110D
000589: E4,1627  E4,1560               TAU                EQUALS   AMEMORY    +112D
000590: E4,1627  E4,1560               GIVENT             EQUALS   AMEMORY    +112D
000591: E4,1627  E4,1562               DT/2               EQUALS   AMEMORY    +114D
000592: E4,1627  E4,1564               H                  EQUALS   AMEMORY    +116D
000593: E4,1627  E4,1566               TDEC               EQUALS   AMEMORY    +118D
000594: E4,1627  E4,1570               FBRANCH            EQUALS   AMEMORY    +120D
000595: E4,1627  E4,1571               HBRANCH            EQUALS   AMEMORY    +121D
000596: E4,1627  E4,1572               GMODE              EQUALS   AMEMORY    +122D
000597: E4,1627  E4,1573               QREADY             EQUALS   AMEMORY    +123D
000598: E4,1627  E4,1574               MEASQ              EQUALS   AMEMORY    +124D
000599: E4,1627  E4,1576               DELTAQ             EQUALS   AMEMORY    +126D
000600:
000601: E4,1627  E4,1600               MEASMODE           EQUALS   AMEMORY    +128D
000602: E4,1627  E4,1601               NVCODE             EQUALS   AMEMORY    +129D
000603: E4,1627  E4,1602               MIDEXIT            EQUALS   AMEMORY    +130D
000604: E4,1627  E4,1602               DSPRTRN            EQUALS   AMEMORY    +130D
000605: E4,1627  E4,1603               INCORPEX           EQUALS   AMEMORY    +131D
000606: E4,1627  E4,1604               STEPEXIT           EQUALS   AMEMORY    +132D
000607: E4,1627  E4,1605               DIFEQCNT           EQUALS   AMEMORY    +133D
000608: E4,1627  E4,1605               NORMGAM            EQUALS   AMEMORY    +133D
000609: E4,1627  E4,1606               SCALEA             EQUALS   AMEMORY    +134D
000610: E4,1627  E4,1607               SCALEB             EQUALS   AMEMORY    +135D
000611: E4,1627  E4,1610               SCALDT             EQUALS   AMEMORY    +136D
000612: E4,1627  E4,1611               SCALDELT           EQUALS   AMEMORY    +137D
000613: E4,1627  E4,1612               SCALER             EQUALS   AMEMORY    +138D
000614:
000615: E4,1627  E4,1613               YV                 EQUALS   AMEMORY    +139D
000616: E4,1627  E4,1621               ZV                 EQUALS   AMEMORY    +145D
000617:
000618: E4,1627                        PBODY              ERASE
000619: E4,1630                        W                  ERASE    +071D
000620:


000622:                                                                                                  #   THE FOLLOWING ERASABLE REGISTERS ARE USED BY THE  ENTRY AND INITIALIZATION JOB OF THE FCS TEST FOR LEM.
000623:
000624: E4,1740  E4,1400               FCSCNTR            EQUALS   AMEMORY    +000D
000625:
000626:                                                                                                  #    THE FOLLOWING ERASABLE REGISTERS ARE USED BY THE JETSET TASK.
000627:
000628:                                                                                                  #  (OPTIMUM PRELAUNCH A C USES JETSTEP-JETSTEP +77D FOR RESTART PROOF)
000629:
000630: E4,1740  E4,1401               XJBUF              EQUALS   AMEMORY    +001D
000631: E4,1740  E4,1402               YZJBUF             EQUALS   AMEMORY    +002D
000632: E4,1740  E4,1403               JFBUF              EQUALS   AMEMORY    +003D
000633: E4,1740  E4,1404               FCNTR              EQUALS   AMEMORY    +004D
000634: E4,1740  E4,1405               THBUF              EQUALS   AMEMORY    +005D
000635: E4,1740  E4,1406               OFFTMBUF           EQUALS   AMEMORY    +006D
000636: E4,1740  E4,1407               JETSTEP            EQUALS   AMEMORY    +007D
000637: E4,1740  E4,1410               NTIMES             EQUALS   AMEMORY    +008D
000638: E4,1740  E4,1420               NEXTTIME           EQUALS   AMEMORY    +016D
000639: E4,1740  E4,1430               JETONTM            EQUALS   AMEMORY    +024D
000640: E4,1740  E4,1440               XJETS              EQUALS   AMEMORY    +032D
000641: E4,1740  E4,1450               YZJETS             EQUALS   AMEMORY    +040D
000642: E4,1740  E4,1460               JETOFFTM           EQUALS   AMEMORY    +048D
000643:
000644:                                                                                                  #     THE FOLLOWING ERASABLE REGISTERS ARE USED BY THE ENGINE ON-OFF TASK.
000645:
000646: E4,1740  E4,1470               ENGSTEP            EQUALS   AMEMORY    +056D
000647: E4,1740  E4,1471               CYLTIMES           EQUALS   AMEMORY    +057D
000648: E4,1740  E4,1474               NEXTCYLT           EQUALS   AMEMORY    +060D
000649: E4,1740  E4,1477               ONTIME             EQUALS   AMEMORY    +063D
000650: E4,1740  E4,1502               OFFTIME            EQUALS   AMEMORY    +066D
000651: E4,1740  E4,1505               OFFTIMER           EQUALS   AMEMORY    +069D
000652:
000653:                                                                                                  #    THE FOLLOWING ERASABLE REGISTERS ARE USED BY THE TRIM TASK.
000654:
000655: E4,1740  E4,1510               TRIMSTEP           EQUALS   AMEMORY    +072D
000656: E4,1740  E4,1511               NUMTIMES           EQUALS   AMEMORY    +073D
000657: E4,1740  E4,1525               STEPDLYT           EQUALS   AMEMORY    +085D
000658: E4,1740  E4,1541               TRIMONT            EQUALS   AMEMORY    +097D
000659: E4,1740  E4,1555               TRIMOFFT           EQUALS   AMEMORY    +109D
000660: E4,1740  E4,1571               TRIMIND            EQUALS   AMEMORY    +121D
000661:
000662:                                                                                                  #    THE FOLLOWING ERASABLE REGISTERS ARE USED BY THE THROTTLE TASK.
000663:
000664: E4,1740  E4,1605               THRTSTEP           EQUALS   AMEMORY    +133D
000665: E4,1740  E4,1606               DOTIMES            EQUALS   AMEMORY    +134D
000666: E4,1740  E4,1614               DELAY              EQUALS   AMEMORY    +140D
000667: E4,1740  E4,1622               THR1TIME           EQUALS   AMEMORY    +146D
000668: E4,1740  E4,1630               THCOMM1            EQUALS   AMEMORY    +152D
000669: E4,1740  E4,1636               THCOMM2            EQUALS   AMEMORY    +158D
000670:
000671:                                                                                                  #   THE FOLLOWING ERASABLE REGISTERS ARE USED BY THE INTERFACE LOOK TASK.
000672:


000674: E4,1740  E4,1644               30BUF1             EQUALS   AMEMORY    +164D
000675: E4,1740  E4,1650               30BUF0             EQUALS   AMEMORY    +168D
000676: E4,1740  E4,1654               QUITLOOK           EQUALS   AMEMORY    +172D
000677: E4,1740  E4,1655               CHCNTR             EQUALS   AMEMORY    +173D
000678:
000679: E5,1400                                           SETLOC   2400
000680:                                                                                                  #  THE FOLLOWING ERASABLE LOCATIONS ARE UTILIZED BY THE IN-FLIGHT ALIGNMENT ROUTINES
000681:
000682: E5,1400                        XSM                ERASE    +17D
000683: E5,1422  E5,1406               YSM                =        XSM        +6
000684: E5,1422  E5,1414               ZSM                =        XSM        +12D
000685: E5,1422                        XDC                ERASE    +17D
000686: E5,1444  E5,1430               YDC                =        XDC        +6
000687: E5,1444  E5,1436               ZDC                =        XDC        +12D
000688: E5,1444  E5,1422               XNB                =        XDC
000689: E5,1444  E5,1430               YNB                =        XDC        +6
000690: E5,1444  E5,1436               ZNB                =        XDC        +12D
000691: E5,1444                        STARAD             ERASE    +17D
000692: E5,1466                        STAR               ERASE    +5
000693: E5,1474                        SAC                ERASE    +1
000694: E5,1476                        PAC                ERASE    +1
000695: E5,1500                        OGC                ERASE    +1
000696: E5,1502                        IGC                ERASE    +1
000697: E5,1504                        MGC                ERASE    +1
000698: E5,1506                        ZPRIME             =        22D
000699: E5,1506                        PDA                =        22D
000700: E5,1506                        COSTH              =        16D
000701: E5,1506                        SINTH              =        18D
000702: E5,1506                        THETA              =        20D
000703: E5,1506                        STARM              =        32D
000704:
000705:
000706:
000707:                                                                                                  #  THE FOLLOWING ERASABLE LOCATIONS ARE UTILIZED BY THE SYSTEM TESTS
000708: E5,1506                        AZIMUTH            ERASE    +1
000709: E5,1510                        LATITUDE           ERASE    +1
000710:
000711: E5,1512                        EROPTN             ERASE
000712: E5,1513                        ERVECTOR           ERASE    +5
000713: E5,1521                        GYROD              ERASE    +5
000714: E5,1527                        LENGTHOT           ERASE
000715: E5,1530                        LOSVEC             ERASE    +5
000716: E5,1536                        NBPOS              ERASE
000717: E5,1537                        NDXCTR             ERASE
000718: E5,1540                        PIPANO             ERASE
000719: E5,1541                        PIPINDEX           ERASE
000720: E5,1542                        PIPNDX             ERASE    +1
000721: E5,1544                        POSITON            ERASE
000722: E5,1545                        QPLAC              ERASE
000723:


000725: E5,1546                        QPLACE             ERASE
000726: E5,1547                        QPLACES            ERASE
000727: E5,1550                        RUN                ERASE
000728: E5,1551                        STOREPL            ERASE
000729: E5,1552                        SOUTHDR            ERASE
000730: E5,1553                        TAZEL1             ERASE    +5
000731: E5,1561                        TEMPTIME           ERASE    +1
000732: E5,1563                        TESTNO             ERASE
000733: E5,1564                        TMARK              ERASE    +1
000734: E5,1566                        SHAFTA             ERASE
000735: E5,1567                        TRUNA              ERASE
000736: E5,1570  E5,1776               ZERONDX            =        ERCOMP     +5
000737: E5,1570                        GENPL              ERASE    +111D
000738:
000739: E5,1750  E5,1570               CDUTIMEI           =        GENPL
000740: E5,1750  E5,1572               CDUTIMEF           =        GENPL      +2
000741: E5,1750  E5,1574               CDUDANG            =        GENPL      +4
000742: E5,1750  E5,1575               CDUREADF           =        GENPL      +5
000743: E5,1750  E5,1576               CDUREADI           =        GENPL      +6
000744: E5,1750  E5,1577               CDULIMIT           =        GENPL      +7
000745:
000746: E5,1750  E5,1574               TEMPADD            =        GENPL      +4
000747: E5,1750  E5,1575               TEMP               =        GENPL      +5
000748: E5,1750  E5,1576               NOBITS             =        GENPL      +6
000749: E5,1750  E5,1577               CHAN               =        GENPL      +7
000750:
000751: E5,1750  E5,1600               LOS1               =        GENPL      +8D
000752: E5,1750  E5,1606               LOS2               =        GENPL      +14D
000753:
000754: E5,1750  E5,1614               CALCDIR            EQUALS   GENPL      +20D
000755: E5,1750  E5,1615               CDUFLAG            EQUALS   GENPL      +21D
000756: E5,1750  E5,1616               GYTOBETQ           EQUALS   GENPL      +22D
000757: E5,1750  E5,1617               OPTNREG            EQUALS   GENPL      +23D
000758: E5,1750  E5,1620               SAVE               EQUALS   GENPL      +24D                       #  THREE CONSEC LOC
000759: E5,1750  E5,1623               SFCONST1           EQUALS   GENPL      +27D
000760: E5,1750  E5,1624               TIMER              EQUALS   GENPL      +28D
000761:
000762: E5,1750  E5,1626               DATAPL             EQUALS   GENPL      +30D
000763: E5,1750  E5,1570               RDSP               EQUALS   GENPL                                 #  FIX LATER   POSSIBLY KEEP1
000764: E5,1750  E5,1670               MASKREG            EQUALS   GENPL      +64D
000765: E5,1750  E5,1672               CDUNDX             EQUALS   GENPL      +66D
000766: E5,1750  E5,1673               RESULTCT           EQUALS   GENPL      +67D
000767: E5,1750  E5,1676               COUNTPL            EQUALS   GENPL      +70D
000768:
000769: E5,1750  E5,1677               CDUANG             EQUALS   GENPL      +71D
000770: E5,1750  E5,1570               AINLA              =        GENPL                                 #  110 DEC OR 156 OCT LOCATIONS
000771:
000772: E5,1750  E5,1570               WANGO              EQUALS   AINLA                                 #  VERT ERATE
000773: E5,1750  E5,1572               WANGI              EQUALS   AINLA      +2D                        #  HO
000774: E5,1750  E5,1574               WANGT              EQUALS   AINLA      +4D                        #  T


000776: E5,1750  E5,1574               TORQNDX            =        WANGT
000777: E5,1750  E5,1576               DRIFTT             EQUALS   AINLA      +6D                        #  EAST AX
000778: E5,1750  E5,1600               ALX1S              EQUALS   AINLA      +8D                        #  IN
000779: E5,1750  E5,1601               CMPX1              EQUALS   AINLA      +9D                        #  IND
000780: E5,1750  E5,1602               ALK                EQUALS   AINLA      +10D                       #  GAINS
000781: E5,1750  E5,1616               VLAUNS             EQUALS   AINLA      +22D
000782: E5,1750  E5,1616               THETAX             =        VLAUNS
000783: E5,1750  E5,1620               WPLATO             EQUALS   AINLA      +24D
000784: E5,1750  E5,1624               INTY               EQUALS   AINLA      +28D                       #  SOUTH PIP INTE
000785: E5,1750  E5,1626               ANGZ               EQUALS   AINLA      +30D                       #  EAST AXIS
000786: E5,1750  E5,1630               INTZ               EQUALS   AINLA      +32D                       #  EAST PIP I
000787: E5,1750  E5,1632               ANGY               EQUALS   AINLA      +34D                       #  SOUTH
000788: E5,1750  E5,1624               THETAN             =        INTY
000789: E5,1750  E5,1634               ANGX               EQUALS   AINLA      +36D                       #  VE
000790: E5,1750  E5,1636               DRIFTO             EQUALS   AINLA      +38D                       #  VERT
000791: E5,1750  E5,1640               DRIFTI             EQUALS   AINLA      +40D                       #  SOU
000792: E5,1750  E5,1644               VLAUN              EQUALS   AINLA      +44D                       #  LAUNCH
000793: E5,1750  E5,1644               FILDELV            =        VLAUN
000794: E5,1750  E5,1646               ACCWD              EQUALS   AINLA      +46D                       #  LAUN
000795: E5,1750  E5,1646               INTVEC             =        ACCWD
000796: E5,1750  E5,1654               POSNV              EQUALS   AINLA      +52D                       #  LAUNC
000797: E5,1750  E5,1656               DPIPAY             EQUALS   AINLA      +54D                       #  SOUTH
000798: E5,1750  E5,1662               DPIPAZ             EQUALS   AINLA      +58D                       #  NORTH PIP INCREMENT
000799: E5,1750  E5,1664               ALTIM              EQUALS   AINLA      +60D                       #  LENG
000800: E5,1750  E5,1665               ALTIMS             EQUALS   AINLA      +61D                       #   INDEX
000801: E5,1750  E5,1666               ALDK               EQUALS   AINLA      +62D                       #   TIME CONSTAN
000802: E5,1750  E5,1704               DELM               EQUALS   AINLA      +76D
000803: E5,1750  E5,1714               WPLATI             EQUALS   AINLA      +84D
000804: E5,1750  E5,1716               GEOSAVED           EQUALS   AINLA      +86D
000805: E5,1750  E5,1717               PREMTRXC           EQUALS   AINLA      +87D
000806: E5,1750  E5,1720               PRELMTRX           EQUALS   AINLA      +88D
000807: E5,1750  E5,1720               TRANSM1            =        PRELMTRX
000808: E5,1750  E5,1742               GEOCOMPS           EQUALS   AINLA      +106D
000809: E5,1750  E5,1743               GTSOPNDZ           EQUALS   AINLA      +107D
000810: E5,1750  E5,1744               1SECXT             EQUALS   AINLA      +108D
000811: E5,1750  E5,1745               GTSWTLST           EQUALS   AINLA      +109D
000812: E5,1750  E5,1746               ERECTIME           EQUALS   AINLA      +110D
000813: E5,1750  E5,1747               GEOMTRX            EQUALS   AINLA      +111D
000814: E5,1750  E5,1771               ERCOMP             EQUALS   AINLA      +129D
000815:


000817: E5,1750  E5,1570               BMEMORY            EQUALS   GENPL
000818: E5,1750     0405               DELVY              EQUALS   DELVX      +2
000819: E5,1750     0407               DELVZ              EQUALS   DELVX      +4
000820: E7,1400                                           SETLOC   3400
000821:
000822:                                                                                                  #        DOWNLINK STORAGE.
000823:
000824: E7,1400                        LDATALST           ERASE
000825: E7,1401                        DNTMGOTO           ERASE
000826: E7,1402                        TMINDEX            ERASE
000827: E7,1403                        DNTMBUFF           ERASE    +21D                                  #  SNAPSHOT BUFFER.
000828:
000829:                                                                                                  #        RADAR TEST STORAGE.
000830:
000831: E7,1431                        RTSTDEX            ERASE
000832: E7,1432                        RTSTMAX            ERASE                                          #  66 FOR HI SPEED, 6 FOR LOW SPEED RR,
000833:                                                                                                  #  AND 18 FOR LOW SPEED LR.
000834: E7,1433                        RTSTBASE           ERASE                                          #  USED FOR CYCLIC SAMPLING.
000835: E7,1434                        RTSTLOC            ERASE                                          #  GOES 0(6)RTSTMAX
000836: E7,1435  E7,1434               RSTKLOC            EQUALS   RTSTLOC
000837: E7,1435                        RSAMPDT            ERASE                                          #  PNZ FOR CYCLIC SAMPLING, -1 FOR HI SPEED
000838:                                                                                                  #  INSERT +0 HERE MANUALLY TO TERMINATE TST
000839: E7,1436                        RFAILCNT           ERASE
000840: E7,1437                        RSTACK             ERASE    +71D                                  #  BUFFERS FOR RADAR TESTING.
000841:
000842:                                                                                                  #  AGS INITIALIZATION
000843: E7,1547                        AGSBUFF            ERASE    +27D
000844:                                                                                                  #        STORAGE FOR INBIT SCANNER.
000845:
000846: E7,1603                        LAST30             ERASE    +2                                    #  LAST SAMPLED INBITS.
000847: E7,1606                        MSGCNT             ERASE

End of include-file ERASABLE_ASSIGNMENTS.agc.  Parent file is MAIN.agc


