
Source Code


000002:                                                                                                  ## Copyright:    Public domain.
000003:                                                                                                  ## Filename:     EXECUTIVE.agc
000004:                                                                                                  ## Purpose:      Part of the source code for Aurora (revision 12).
000005:                                                                                                  ## Assembler:    yaYUL
000006:                                                                                                  ## Contact:      Ron Burkey <info@sandroid.org>.
000007:                                                                                                  ## Website:      https://www.ibiblio.org/apollo.
000008:                                                                                                  ## Pages:        126-138
000009:                                                                                                  ## Mod history:  2016-09-20 JL   Created.
000010:                                                                                                  ##               2016-12-08 RSB  Proofed comments with octopus/ProoferComments
000011:                                                                                                  ##                               and fixed the errors found.
000012:                                                                                                  ##               2021-05-30 ABS  Aligned TCF +1 line to match scans.
000013:
000014:                                                                                                  ## This source code has been transcribed or otherwise adapted from
000015:                                                                                                  ## digitized images of a hardcopy from the private collection of
000016:                                                                                                  ## Don Eyles.  The digitization was performed by archive.org.
000017:
000018:                                                                                                  ## Notations on the hardcopy document read, in part:
000019:
000020:                                                                                                  ##       473423A YUL SYSTEM FOR BLK2: REVISION 12 of PROGRAM AURORA BY DAP GROUP
000021:                                                                                                  ##       NOV 10, 1966
000022:
000023:                                                                                                  ##       [Note that this is the date the hardcopy was made, not the
000024:                                                                                                  ##       date of the program revision or the assembly.]
000025:
000026:                                                                                                  ## The scan images (with suitable reduction in storage size and consequent
000027:                                                                                                  ## reduction in image quality) are available online at
000028:                                                                                                  ##       https://www.ibiblio.org/apollo.
000029:                                                                                                  ## The original high-quality digital images are available at archive.org:
000030:                                                                                                  ##       https://archive.org/details/aurora00dapg
000031:


000033:
000034:    4363                                           SETLOC   ENDSUBSF
000035:
000036:                                                                                                  #  TO ENTER A JOB REQUEST REQUIRING NO VAC AREA:
000037:
000038:    4363           54070        NOVAC              TS       NEWPRIO                               #  SAVE PRIORITY OF NEW JOB.
000039:    4364           00006                           EXTEND
000040:    4365           50002                           INDEX    Q                                     #  Q WILL BE UNDISTURBED THROUGHOUT.
000041:    4366           30001                           DCA      0                                     #  2CADR OF JOB ENTERED.
000042:    4367           52073                           DXCH     NEWLOC
000043:    4370           34447                           CAF      EXECBANK
000044:    4371           56004                           XCH      FBANK
000045:    4372           54065                           TS       EXECTEM1
000046:    4373           12242                           TCF      NOVAC2                                #  ENTER EXECUTIVE BANK.
000047:
000048:                                                                                                  #  TO ENTER A JOB REQUEST REQUIRING A VAC AREA - E.G., ALL (PARTIALLY) INTERPRETIVE JOBS.
000049:
000050:    4374           54070        FINDVAC            TS       NEWPRIO
000051:    4375           00006                           EXTEND
000052:    4376           50002                           INDEX    Q
000053:    4377           30001                           DCA      0
000054:    4400           52073                           DXCH     NEWLOC
000055:    4401           34447                           CAF      EXECBANK
000056:    4402           56004                           XCH      FBANK
000057:    4403           12220                           TCF      FINDVAC2                              #  OFF TO EXECUTIVE SWITCHED-BANK.
000058:
000059:                                                                                                  #  TO SUSPEND A BASIC JOB SO A HIGHER PRIORITY JOB MAY BE SERVICED:
000060:
000061:    4404           34447        CHANG1             CAF      EXECBANK
000062:    4405           54001                           TS       L
000063:    4406           30002                           CA       Q
000064:    4407           22006                 +3        LXCH     BBANK
000065:    4410           00004                           INHINT
000066:    4411           12320                           TCF      CHANJOB
000067:
000068:                                                                                                  #  TO SUSPEND AN INTERPRETIVE JOB:
000069:
000070:    4412           34447        CHANG2             CAF      EXECBANK
000071:    4413           54001                           TS       L
000072:    4414           40150                           CS       LOC                                   #  NEGATIVE LOC SHOWS JOB INTERPRETIVE.
000073:    4415           14407                           TCF      CHANG1     +3
000074:


000076:
000077:                                                                                                  #  TO VOLUNTARILY SUSPEND A JOB UNTIL THE COMPLETION OF SOME ANTICIPATED EVENT (I/O EVENT ETC.):
000078:
000079:    4416           54150        JOBSLEEP           TS       LOC
000080:    4417           34447                           CAF      EXECBANK
000081:    4420           54004                           TS       FBANK
000082:    4421           12403                           TCF      JOBSLP1
000083:
000084:                                                                                                  #  TO AWAKEN A JOB PUT TO SLEEP IN THE ABOVE FASHION:
000085:
000086:    4422           54072        JOBWAKE            TS       NEWLOC
000087:    4423           47656                           CS       TWO                                   #  EXIT IS VIA FINDVAC/NOVAC PROCEDURES.
000088:    4424           26002                           ADS      Q
000089:    4425           34447                           CAF      EXECBANK
000090:    4426           56004                           XCH      FBANK
000091:    4427           12414                           TCF      JOBWAKE2
000092:
000093:                                                                                                  #  TO CHANGE THE PRIORITY OF A JOB CURRENTLY UNDER EXECUTION:
000094:
000095:    4430           00004        PRIOCHNG           INHINT                                         #  NEW PRIORITY ARRIVES IN A. RETURNS TO
000096:    4431           54070                           TS       NEWPRIO                               #  CALLER AS SOON AS NEW JOB PRIORITY IS
000097:    4432           34447                           CAF      EXECBANK                              #  HIGHEST. PREPARE FOR POSSIBLE BASIC-
000098:    4433           56006                           XCH      BBANK                                 #  STYLE CHANGE-JOB.
000099:    4434           54151                           TS       BANKSET
000100:    4435           30002                           CA       Q
000101:    4436           12463                           TCF      PRIOCH2
000102:
000103:                                                                                                  #  TO FREE THE DISPLAY BEFORE ENDOFJOB:
000104:
000105:    4437           05401        EJFREE             TC       FREEDSP
000106:
000107:                                                                                                  #  TO REMOVE A JOB FROM EXECUTIVE CONSIDERATIONS:
000108:
000109:    4440           34447        ENDOFJOB           CAF      EXECBANK
000110:    4441           54004                           TS       FBANK
000111:    4442           12474                           TCF      ENDJOB1
000112:
000113:    4443           30065        ENDFIND            CA       EXECTEM1                              #  RETURN TO CALLER AFTER JOB ENTRY
000114:    4444           54004                           TS       FBANK                                 #  COMPLETE.
000115:    4445           50002                           INDEX    Q
000116:    4446           00002                           TC       2
000117:
000118:    4447           02220        EXECBANK           CADR     FINDVAC2
000119:


000121:
000122:                                                                                                  #  LOCATE AN AVAILABLE VAC AREA.
000123:
000124: 01,2220                                           SETLOC   ENDINTS1
000125:
000126: 01,2220           54065        FINDVAC2           TS       EXECTEM1                              #  (SAVE CALLER'S BANK FIRST.)
000127: 01,2221           10431                           CCS      VAC1USE
000128: 01,2222           12235                           TCF      VACFOUND
000129: 01,2223           10505                           CCS      VAC2USE
000130: 01,2224           12235                           TCF      VACFOUND
000131: 01,2225           10561                           CCS      VAC3USE
000132: 01,2226           12235                           TCF      VACFOUND
000133: 01,2227           10635                           CCS      VAC4USE
000134: 01,2230           12235                           TCF      VACFOUND
000135: 01,2231           10711                           CCS      VAC5USE
000136: 01,2232           12235                           TCF      VACFOUND
000137: 01,2233           05446                           TC       ABORT
000138: 01,2234           01201                           OCT      1201                                  #  NO VAC AREAS.
000139:
000140: 01,2235           67656        VACFOUND           AD       TWO                                   #  RESERVE THIS VAC AREA BY STORING A ZERO
000141: 01,2236           22007                           ZL                                             #  IN ITS VAC USE REGISTER AND STORE THE
000142: 01,2237           50000                           INDEX    A                                     #  ADDRESS OF THE FIRST WORD OF IT IN THE
000143: 01,2240           21777                           LXCH     0          -1                         #  LOW NINE BITS OF THE PRIORITY WORD.
000144: 01,2241           26070                           ADS      NEWPRIO
000145:
000146: 01,2242           37665        NOVAC2             CAF      ZERO                                  #  NOVAC ENTERS HERE.  FIND A CORE SET.
000147: 01,2243           54071                           TS       LOCCTR
000148: 01,2244           32251                           CAF      NO.CORES                              #  SEVEN SETS OF ELEVEN REGISTERS EACH.
000149: 01,2245           54066        NOVAC3             TS       EXECTEM2
000150: 01,2246           50071                           INDEX    LOCCTR
000151: 01,2247           10153                           CCS      PRIORITY                              #  EACH PRIORITY REGISTER CONTAINS -0 IF
000152: 01,2250           12311                           TCF      NEXTCORE                              #  THE CORRESPONDING CORE SET IS AVAILABLE.
000153: 01,2251           00006        NO.CORES           DEC      6          B-14
000154: 01,2252           12311                           TCF      NEXTCORE                              #  AN ACTIVE JOB HAS A POSITIVE PRIORITY
000155:                                                                                                  #  BUT A DORMANT JOB'S PRIORITY IS NEGATIVE
000156:


000158:
000159: 01,2253           30070        CORFOUND           CA       NEWPRIO                               #  SET THE PRIORITY OF THIS JOB IN THE CORE
000160: 01,2254           50071                           INDEX    LOCCTR                                #  SET'S PRIORITY REGISTER AND SET THE
000161: 01,2255           54153                           TS       PRIORITY                              #  JOB'S PUSH-DOWN POINTER AT THE BEGINNING
000162: 01,2256           77672                           MASK     LOW9                                  #  OF THE WORK AREA AND OVERFLOW INDICATOR
000163: 01,2257           50071                           INDEX    LOCCTR
000164: 01,2260           54152                           TS       PUSHLOC                               #  OFF TO PREPARE FOR INTERPRETIVE PROGRAMS
000165:
000166: 01,2261           10071                           CCS      LOCCTR                                #  IF CORE SET ZERO IS BEING LOADED, SET UP
000167: 01,2262           12276                           TCF      SETLOC                                #  OVFIND AND FIXLOC IMMEDIATELY.
000168: 01,2263           54105                           TS       OVFIND
000169: 01,2264           30152                           CA       PUSHLOC
000170: 01,2265           54104                           TS       FIXLOC
000171:
000172: 01,2266           10067        SPECTEST           CCS      NEWJOB                                #  SEE IF ANY ACTIVE JOBS WAITING (RARE).
000173: 01,2267           12276                           TCF      SETLOC                                #  MUST BE AWAKENED BUT UNCHANGED JOB.
000174: 01,2270           05464                           TC       CCSHOLE
000175: 01,2271           05464                           TC       CCSHOLE
000176: 01,2272           54067                           TS       NEWJOB                                #  +0 SHOWS ACTIVE JOB ALREADY SET.
000177: 01,2273           52073                           DXCH     NEWLOC
000178: 01,2274           52151                           DXCH     LOC
000179: 01,2275           14443                           TCF      ENDFIND
000180:
000181: 01,2276           52073        SETLOC             DXCH     NEWLOC                                #  SET UP THE LOCATION REGISTERS FOR THIS
000182: 01,2277           50071                           INDEX    LOCCTR
000183: 01,2300           52151                           DXCH     LOC
000184: 01,2301           50067                           INDEX    NEWJOB                                #  THIS INDEX INSTRUCTION INSURES THAT THE
000185: 01,2302           40153                           CS       PRIORITY                              #  HIGHEST ACTIVE PRIORITY WILL BE COMPARED
000186: 01,2303           60070                           AD       NEWPRIO                               #  WITH THE NEW PRIORITY TO SEE IF NEWJOB
000187: 01,2304           00006                           EXTEND                                         #  SHOULD BE SET TO SIGNAL A SWITCH.
000188: 01,2305           64443                           BZMF     ENDFIND
000189: 01,2306           30071                           CA       LOCCTR                                #  LOCCTR IS LEFT SET AT THIS CORE SET IF
000190: 01,2307           54067                           TS       NEWJOB                                #  THE CALLER WANTS TO LOAD ANY MPAC
000191: 01,2310           14443                           TCF      ENDFIND                               #  REGISTERS, ETC.
000192:
000193: 01,2311           32424        NEXTCORE           CAF      COREINC
000194: 01,2312           26071                           ADS      LOCCTR
000195: 01,2313           10066                           CCS      EXECTEM2
000196: 01,2314           12245                           TCF      NOVAC3
000197: 01,2315           05446                           TC       ABORT                                 #  NO CORE SETS.
000198: 01,2316           01202                           OCT      1202
000199:


000201:
000202:                                                                                                  #  THE FOLLOWING ROUTINE SWAPS CORE SET 0 WITH THAT WHOSE RELATIVE ADDRESS IS IN NEWJOB.
000203:
000204: 01,2317           52151                 -1        DXCH     LOC
000205: 01,2320           50067        CHANJOB            INDEX    NEWJOB                                #  LOC ARRIVES IN A AND BBANK IN L.
000206: 01,2321           52151                           DXCH     LOC
000207: 01,2322           52151                           DXCH     LOC
000208:
000209: 01,2323           52141                           DXCH     MPAC                                  #  SWAP MULTI-PURPOSE ACCUMULATOR AREAS.
000210: 01,2324           50067                           INDEX    NEWJOB
000211: 01,2325           52141                           DXCH     MPAC
000212: 01,2326           52141                           DXCH     MPAC
000213: 01,2327           52143                           DXCH     MPAC       +2
000214: 01,2330           50067                           INDEX    NEWJOB
000215: 01,2331           52143                           DXCH     MPAC       +2
000216: 01,2332           52143                           DXCH     MPAC       +2
000217: 01,2333           52145                           DXCH     MPAC       +4
000218: 01,2334           50067                           INDEX    NEWJOB
000219: 01,2335           52145                           DXCH     MPAC       +4
000220: 01,2336           52145                           DXCH     MPAC       +4
000221: 01,2337           52147                           DXCH     MPAC       +6
000222: 01,2340           50067                           INDEX    NEWJOB
000223: 01,2341           52147                           DXCH     MPAC       +6
000224: 01,2342           52147                           DXCH     MPAC       +6
000225:
000226: 01,2343           37665                           CAF      ZERO
000227: 01,2344           56105                           XCH      OVFIND                                #  MAKE PUSHLOC NEGATIVE IF OVFIND NZ.
000228: 01,2345           00006                           EXTEND
000229: 01,2346           12351                           BZF      +3
000230: 01,2347           40152                           CS       PUSHLOC
000231: 01,2350           54152                           TS       PUSHLOC
000232:
000233: 01,2351           52153                           DXCH     PUSHLOC
000234: 01,2352           50067                           INDEX    NEWJOB
000235: 01,2353           52153                           DXCH     PUSHLOC
000236: 01,2354           52153                           DXCH     PUSHLOC                               #  SWAPS PUSHLOC AND PRIORITY.
000237: 01,2355           37672                           CAF      LOW9                                  #  SET FIXLOC TO BASE OF VAC AREA.
000238: 01,2356           70153                           MASK     PRIORITY
000239: 01,2357           54104                           TS       FIXLOC
000240:
000241: 01,2360           10152                           CCS      PUSHLOC                               #  SET OVERFLOW INDICATOR ACCORDING TO
000242: 01,2361           37665                           CAF      ZERO
000243: 01,2362           12367                           TCF      ENDPRCHG   -1
000244: 01,2363           40152                           CS       PUSHLOC
000245: 01,2364           54152                           TS       PUSHLOC
000246: 01,2365           37657                           CAF      ONE
000247: 01,2366           56105                           XCH      OVFIND
000248: 01,2367           54067                           TS       NEWJOB
000249:
000250: 01,2370           00003        ENDPRCHG           RELINT
000251: 01,2371           52151                           DXCH     LOC                                   #  BASIC JOBS HAVE POSITIVE ADDRESSES, SO
000252:


000254:
000255: 01,2372           00006                           EXTEND                                         #  DISPATCH WITH A DTCB.
000256: 01,2373           62375                           BZMF     +2                                    #  IF INTERPRETIVE, SET UP EBANK, ETC.
000257: 01,2374           52006                           DTCB
000258:


000260:
000261: 01,2375           40000                           COM                                            #  EPILOGUE TO JOB CHANGE FOR INTERPRETIVE
000262: 01,2376           67657                           AD       ONE
000263: 01,2377           54150                           TS       LOC                                   #  RESUME.
000264: 01,2400           36232                           CAF      FBANKMSK
000265: 01,2401           70001                           MASK     L
000266: 01,2402           16011                           TCF      INTRSM
000267:
000268:                                                                                                  #  COMPLETE JOBSLEEP PREPARATIONS.
000269:
000270: 01,2403           00004        JOBSLP1            INHINT
000271: 01,2404           40153                           CS       PRIORITY                              #  NNZ PRIORITY SHOWS JOB ASLEEP.
000272: 01,2405           54153                           TS       PRIORITY
000273: 01,2406           36027                           CAF      LOW7
000274: 01,2407           70006                           MASK     BBANK
000275: 01,2410           54151                           TS       BANKSET
000276: 01,2411           47665                           CS       ZERO
000277: 01,2412           54115        JOBSLP2            TS       BUF        +1                         #  HOLDS - HIGHEST PRIORITY.
000278: 01,2413           12504                           TCF      EJSCAN                                #  SCAN FOR HIGHEST PRIORITY ALA ENDOFJOB.
000279:


000281:
000282:                                                                                                  #  TO WAKE UP A JOB, EACH CORE SET IS FOUND TO LOCATE ALL JOBS WHICH ARE ASLEEP. IF THE FCADR IN THE
000283:                                                                                                  #  LOC REGISTER OF ANY SUCH JOB MATCHES THAT SUPPLIED BY THE CALLER, THAT JOB IS AWAKENED. IF NO JOB IS FOUND,
000284:                                                                                                  #  LOCCTR IS SET TO -1 AND NO FURTHER ACTION TAKES PLACE.
000285:
000286: 01,2414           54065        JOBWAKE2           TS       EXECTEM1
000287: 01,2415           37665                           CAF      ZERO                                  #  BEGIN CORE SET SCAN.
000288: 01,2416           54071                           TS       LOCCTR
000289: 01,2417           32251                           CAF      NO.CORES
000290: 01,2420           54066        JOBWAKE4           TS       EXECTEM2
000291: 01,2421           50071                           INDEX    LOCCTR
000292: 01,2422           10153                           CCS      PRIORITY
000293: 01,2423           12426                           TCF      JOBWAKE3                              #  ACTIVE JOB - CHECK NEXT CORE SET.
000294: 01,2424           00014        COREINC            DEC      12         B-14                       #  12 REGISTERS PER CORE SET.
000295: 01,2425           12435                           TCF      WAKETEST                              #  SLEEPING JOB - SEE IF CADR MATCHES.
000296:
000297: 01,2426           32424        JOBWAKE3           CAF      COREINC
000298: 01,2427           26071                           ADS      LOCCTR
000299: 01,2430           10066                           CCS      EXECTEM2
000300: 01,2431           12420                           TCF      JOBWAKE4
000301: 01,2432           47657                           CS       ONE                                   #  EXIT IF SLEEPING JOB NOT FOUND.
000302: 01,2433           54071                           TS       LOCCTR
000303: 01,2434           14443                           TCF      ENDFIND
000304:
000305: 01,2435           40072        WAKETEST           CS       NEWLOC
000306: 01,2436           50071                           INDEX    LOCCTR
000307: 01,2437           60150                           AD       LOC
000308: 01,2440           00006                           EXTEND
000309: 01,2441           12443                           BZF      +2                                    #  IF MATCH.
000310: 01,2442           12426                           TCF      JOBWAKE3                              #  EXAMINE NEXT CORE SET IF NO MATCH.
000311:
000312: 01,2443           50071                           INDEX    LOCCTR                                #  RE-COMPLEMENT PRIORITY TO SHOW JOB AWAKE
000313: 01,2444           40153                           CS       PRIORITY
000314: 01,2445           54070                           TS       NEWPRIO
000315: 01,2446           50071                           INDEX    LOCCTR
000316: 01,2447           54153                           TS       PRIORITY
000317:
000318: 01,2450           46232                           CS       FBANKMSK                              #  MAKE UP THE 2CADR OF THE WAKE ADDRESS
000319: 01,2451           70072                           MASK     NEWLOC                                #  USING THE CADR IN NEWLOC AND THE EBANK
000320: 01,2452           67645                           AD       2K                                    #  HALF OF BBANK SAVED IN BANKSET.
000321: 01,2453           56072                           XCH      NEWLOC
000322: 01,2454           76232                           MASK     FBANKMSK
000323: 01,2455           50071                           INDEX    LOCCTR
000324: 01,2456           60151                           AD       BANKSET
000325: 01,2457           54073                           TS       NEWLOC     +1
000326:
000327: 01,2460           10071                           CCS      LOCCTR                                #  SPECIAL TREATMENT IF THIS JOB WAS
000328: 01,2461           12276                           TCF      SETLOC                                #  ALREADY IN THE RUN (0) POSITION.
000329: 01,2462           12266                           TCF      SPECTEST
000330:


000332:
000333:                                                                                                  #  PRIORITY CHANGE. CHANGE THE CONTENTS OF PRIORITY AND SCAN FOR THE JOB OF HIGHEST PRIORITY.
000334:
000335: 01,2463           54150        PRIOCH2            TS       LOC
000336: 01,2464           37665                           CAF      ZERO                                  #  SET FLAG TO TELL ENDJOB SCANNER IF THIS
000337: 01,2465           54114                           TS       BUF                                   #  JOB IS STILL HIGHEST PRIORITY.
000338: 01,2466           37672                           CAF      LOW9
000339: 01,2467           70153                           MASK     PRIORITY
000340: 01,2470           60070                           AD       NEWPRIO
000341: 01,2471           54153                           TS       PRIORITY
000342: 01,2472           40000                           COM
000343: 01,2473           12412                           TCF      JOBSLP2                               #  AND TO EJSCAN.
000344:


000346:
000347:                                                                                                  #  RELEASE THIS CORE SET AND VAC AREA AND SCAN FOR THE JOB OF HIGHEST ACTIVE PRIORITY.
000348:
000349: 01,2474           00004        ENDJOB1            INHINT
000350: 01,2475           47665                           CS       ZERO
000351: 01,2476           54115                           TS       BUF        +1
000352: 01,2477           56153                           XCH      PRIORITY
000353: 01,2500           77672                           MASK     LOW9
000354: 01,2501           10000                           CCS      A
000355: 01,2502           50000                           INDEX    A
000356: 01,2503           54000                           TS       0
000357:
000358: 01,2504           10167        EJSCAN             CCS      PRIORITY   +12D
000359: 01,2505           02551                           TC       EJ1
000360: 01,2506           05464                           TC       CCSHOLE
000361: 01,2507           12510                           TCF      +1
000362:
000363: 01,2510           10203                           CCS      PRIORITY   +24D                       #  EXAMINE EACH PRIORITY REGISTER TO FIND
000364: 01,2511           02551                           TC       EJ1                                   #  THE JOB OF HIGHEST ACTIVE PRIORITY.
000365: 01,2512           05464                           TC       CCSHOLE
000366: 01,2513           12514                           TCF      +1
000367:
000368: 01,2514           10217                           CCS      PRIORITY   +36D
000369: 01,2515           02551                           TC       EJ1
000370: 01,2516           67624        -CCSPR             -CCS     PRIORITY
000371: 01,2517           12520                           TCF      +1
000372:
000373: 01,2520           10233                           CCS      PRIORITY   +48D
000374: 01,2521           02551                           TC       EJ1
000375: 01,2522           05464                           TC       CCSHOLE
000376: 01,2523           12524                           TCF      +1
000377:
000378: 01,2524           10247                           CCS      PRIORITY   +60D
000379: 01,2525           02551                           TC       EJ1
000380: 01,2526           05464                           TC       CCSHOLE
000381: 01,2527           12530                           TCF      +1
000382:
000383: 01,2530           10263                           CCS      PRIORITY   +72D
000384: 01,2531           02551                           TC       EJ1
000385: 01,2532           05464                           TC       CCSHOLE
000386: 01,2533           12534                           TCF      +1
000387:


000389:
000390:                                                                                                  #  EVALUATE THE RESULTS OF THE SCAN.
000391:
000392: 01,2534           10115                           CCS      BUF        +1                         #  SEE IF THERE ARE ANY ACTIVE JOBS WAITING
000393: 01,2535           05464                           TC       CCSHOLE
000394: 01,2536           05464                           TC       CCSHOLE
000395:
000396: 01,2537           12541                           TCF      +2
000397: 01,2540           14450                           TCF      DUMMYJOB
000398: 01,2541           10114                           CCS      BUF                                   #  BUF IS ZERO IF THIS IS A PRIOCHNG AND
000399: 01,2542           12544                           TCF      +2                                    #  CHANGED PRIORITY IS STILL HIGHEST.
000400: 01,2543           12370                           TCF      ENDPRCHG
000401:
000402: 01,2544           50000                           INDEX    A                                     #  OTHERWISE, SET NEWJOB TO THE RELATIVE
000403: 01,2545           27777                           CAF      0          -1                         #  ADDRESS OF THE NEW JOB'S CORE SET.
000404: 01,2546           62516                           AD       -CCSPR
000405: 01,2547           54067                           TS       NEWJOB
000406: 01,2550           12317                           TCF      CHANJOB    -1
000407:
000408: 01,2551           54116        EJ1                TS       BUF        +2
000409: 01,2552           60115                           AD       BUF        +1                         #  - OLD HIGH PRIORITY.
000410: 01,2553           10000                           CCS      A
000411: 01,2554           40116                           CS       BUF        +2
000412: 01,2555           12561                           TCF      EJ2                                   #  NEW HIGH PRIORITY.
000413: 01,2556           12557                           NOOP
000414: 01,2557           50002                           INDEX    Q
000415: 01,2560           00002                           TC       2                                     #  PROCEED WITH SEARCH.
000416:
000417: 01,2561           54115        EJ2                TS       BUF        +1
000418: 01,2562           00006                           EXTEND
000419: 01,2563           22114                           QXCH     BUF                                   #  FOR LOCATING CCS PRIORITY + X INSTR.
000420: 01,2564           50114                           INDEX    BUF
000421: 01,2565           00002                           TC       2
000422:
000423: 01,2566                        ENDEXECS           EQUALS
000424:


000426:
000427:                                                                                                  #  IDLING AND COMPUTER ACTIVITY (GREEN) LIGHT MAINTENANCE. THE IDLING ROUTINE IS NOT A JOB IN ITSELF,
000428:                                                                                                  #  BUT RATHER A SUBROUTINE OF THE EXECUTIVE.
000429:
000430:    4450                                           SETLOC   EXECBANK   +1
000431:
000432:    4450     1360                                  EBANK=   SELFRET                               #  SELF-CHECK STORAGE IN EBANK.
000433:
000434:    4450           47665        DUMMYJOB           CS       ZERO                                  #  SET NEWJOB TO -0 FOR IDLING.
000435:    4451           54067                           TS       NEWJOB
000436:    4452           00003                           RELINT
000437:    4453           47656                           CS       TWO                                   #  TURN OFF THE ACTIVITY LIGHT.
000438:    4454           00006                           EXTEND
000439:    4455           03011                           WAND     DSALMOUT
000440:    4456           14461                           TCF      CHECKNJ    +2
000441:
000442:    4457           00006        CHECKNJ            EXTEND                                         #  SPECIAL NEWJOB TEST FOR SELF-CHECK,
000443:    4460           23360                           QXCH     SELFRET                               #  WHICH RUNS UNDER EXECUTIVE CONTROL,
000444:    4461           10067                 +2        CCS      NEWJOB                                #  BUT DOES NOT HAVE A JOBS CORE REGISTERS.
000445:    4462           14474                           TCF      NUCHANGE                              #  NEW JOB REQUIRING A CHANGE JOB.
000446:    4463           37656                           CAF      TWO                                   #  NEW JOB ALREADY IN POSITION FOR
000447:    4464           14470                           TCF      NUDIRECT                              #  EXECUTION.
000448:
000449:    4465           34503        ADVAN              CAF      SELFBANK                              #  (SIMULATOR ADVAN IF NEWJOB = 77777).
000450:    4466           54006                           TS       BBANK
000451:    4467           01360                           TC       SELFRET
000452:
000453:    4470           00006        NUDIRECT           EXTEND                                         #  TURN THE GREEN LIGHT BACK ON.
000454:    4471           05011                           WOR      DSALMOUT
000455:    4472           52151                           DXCH     LOC                                   #  JOBS STARTED IN THIS FASHION MUST BE
000456:    4473           52006                           DTCB                                           #  BASIC.
000457:
000458:    4474           37656        NUCHANGE           CAF      TWO
000459:    4475           00006                           EXTEND
000460:    4476           05011                           WOR      DSALMOUT
000461:    4477           34447                           CAF      EXECBANK                              #  SWAP CORE SETS.
000462:    4500           54004                           TS       FBANK
000463:    4501           00004                           INHINT                                         #  CHANGE JOBS
000464:    4502           12317                           TCF      CHANJOB    -1
000465:
000466:    4503           40002        SELFBANK           BBCON    SELFCHK
000467:


000469:
000470:                                                                                                  #  PRIORITY CONSTANTS (NOTE IN FIXED-FIXED).
000471:
000472:    4504     7646               PRIO1              EQUALS   BIT10
000473:    4504     7645               PRIO2              EQUALS   BIT11
000474:    4504           03000        PRIO3              OCT      03000
000475:    4505     7644               PRIO4              EQUALS   BIT12
000476:    4505           05000        PRIO5              OCT      05000
000477:    4506           06000        PRIO6              OCT      06000
000478:    4507           07000        PRIO7              OCT      07000
000479:    4510     7643               PRIO10             EQUALS   BIT13
000480:    4510           11000        PRIO11             OCT      11000
000481:    4511           12000        PRIO12             OCT      12000
000482:    4512           13000        PRIO13             OCT      13000
000483:    4513           14000        PRIO14             OCT      14000
000484:    4514           15000        PRIO15             OCT      15000
000485:    4515           16000        PRIO16             OCT      16000
000486:    4516           17000        PRIO17             OCT      17000
000487:    4517     7642               PRIO20             EQUALS   BIT14
000488:    4517           21000        PRIO21             OCT      21000
000489:    4520           22000        PRIO22             OCT      22000
000490:    4521           23000        PRIO23             OCT      23000
000491:    4522           24000        PRIO24             OCT      24000
000492:    4523           25000        PRIO25             OCT      25000
000493:    4524           26000        PRIO26             OCT      26000
000494:    4525           27000        PRIO27             OCT      27000
000495:    4526           30000        PRIO30             OCT      30000
000496:    4527           31000        PRIO31             OCT      31000
000497:    4530           32000        PRIO32             OCT      32000
000498:    4531           33000        PRIO33             OCT      33000
000499:    4532           34000        PRIO34             OCT      34000
000500:    4533           35000        PRIO35             OCT      35000
000501:    4534           36000        PRIO36             OCT      36000
000502:    4535           37000        PRIO37             OCT      37000
000503:    4536                        ENDEXECF           EQUALS

End of include-file EXECUTIVE.agc.  Parent file is MAIN.agc


