
Source Code


000002:                                                                                                  ## Copyright:    Public domain.
000003:                                                                                                  ## Filename:     IMU_PERFORMANCE_TESTS_3.agc
000004:                                                                                                  ## Purpose:      Part of the source code for Aurora (revision 12).
000005:                                                                                                  ## Assembler:    yaYUL
000006:                                                                                                  ## Contact:      Ron Burkey <info@sandroid.org>.
000007:                                                                                                  ## Website:      https://www.ibiblio.org/apollo.
000008:                                                                                                  ## Pages:        0500-0513
000009:                                                                                                  ## Mod history:  2016-09-20 JL   Created.
000010:                                                                                                  ##               2016-10-03 OH   Initial Transcription from images
000011:                                                                                                  ##               2016-10-16 HG   Fix operand OGCECADR -> OGC
000012:                                                                                                  ##               2016-10-18 HG   Fix label DEG/SECC -> DEG/SEC
000013:                                                                                                  ##                               Fix operand modifier TS TANG +  -> TS TANG +1
000014:                                                                                                  ##                               Fix instruction TC -> TCF
000015:                                                                                                  ##               2021-05-30 ABS  Removed 2F typo text in code.
000016:                                                                                                  ##                               Removed leading whitespace from a page marker
000017:                                                                                                  ##                               comment.
000018:
000019:                                                                                                  ## This source code has been transcribed or otherwise adapted from
000020:                                                                                                  ## digitized images of a hardcopy from the private collection of
000021:                                                                                                  ## Don Eyles.  The digitization was performed by archive.org.
000022:
000023:                                                                                                  ## Notations on the hardcopy document read, in part:
000024:
000025:                                                                                                  ##       473423A YUL SYSTEM FOR BLK2: REVISION 12 of PROGRAM AURORA BY DAP GROUP
000026:                                                                                                  ##       NOV 10, 1966
000027:
000028:                                                                                                  ##       [Note that this is the date the hardcopy was made, not the
000029:                                                                                                  ##       date of the program revision or the assembly.]
000030:
000031:                                                                                                  ## The scan images (with suitable reduction in storage size and consequent
000032:                                                                                                  ## reduction in image quality) are available online at
000033:                                                                                                  ##       https://www.ibiblio.org/apollo.
000034:                                                                                                  ## The original high-quality digital images are available at archive.org:
000035:                                                                                                  ##       https://archive.org/details/aurora00dapg
000036:


000038: 16,2520                                           SETLOC   ENDPINS3
000039: 16,2520  E5,1400                                  EBANK=   XSM
000040:
000041:
000042:
000043: 16,2520           00006        SILVER             EXTEND
000044: 16,2521           23546                           QXCH     QPLACE                                #   SHOULD BE ADDRESS OF STRTWACH
000045:
000046: 16,2522           11614                           CCS      CALCDIR                               #  2F COMMAND IS POSITIVE THE MINUS TORQ
000047: 16,2523           37647                           CAF      BIT9                                  #   WINDING IS TO BE ENERGIZED
000048: 16,2524           02526                           TC       +2
000049: 16,2525           02530                           TC       TORK                                  #   COMMAND IS NEG SO USE PLUS WINDING
000050: 16,2526           00006                           EXTEND
000051: 16,2527           05014                           WOR      14C                                   #   SELECTS THE MINUS WINDING
000052:
000053: 16,2530           37637        TORK               CAF      POSMAX
000054: 16,2531           54047                           TS       GYROCTR                               #  16383 PULSES =2.8125 DEG LESS ONE PULSE
000055:
000056: 16,2532           11616                           CCS      GYTOBETQ                              #  C(K)= 1 FOR X, -0 FOR Y, -1FOR Z.
000057: 16,2533           02537                           TC       SELECTX
000058: 16,2534           05464                           TC       CCSHOLE
000059: 16,2535           02547                           TC       SELECTZ
000060: 16,2536           02543                           TC       SELECTY
000061: 16,2537           32553        SELECTX            CAF      TORKX                                 #  BBITS 7AND 10 IN CHANNEL 14 WILL
000062: 16,2540           00006                           EXTEND                                         #   SELECT X GYRO AND TURN ON BCSW 1/3200
000063: 16,2541           05014                           WOR      14C                                   #  SSEC LATER BY CHANNEL OUTPUT DESIGN.....
000064: 16,2542           01546                           TC       QPLACE
000065:
000066: 16,2543           32554        SELECTY            CAF      TORKY                                 #  BBITS 8 AND 10 TO TORQ Y GYRO
000067: 16,2544           00006                           EXTEND
000068: 16,2545           05014                           WOR      14C
000069: 16,2546           01546                           TC       QPLACE
000070:
000071: 16,2547           32555        SELECTZ            CAF      TORKZ                                 #  BBITS 7,8AND 10 TO TORQZ GYRO
000072: 16,2550           00006                           EXTEND
000073: 16,2551           05014                           WOR      14C
000074: 16,2552           01546                           TC       QPLACE
000075: 16,2553           01100        TORKX              OCT      01100
000076: 16,2554           01200        TORKY              OCT      01200
000077: 16,2555           01300        TORKZ              OCT      01300
000078:


000080:
000081: 16,2556           37665        SAMODCHK           CAF      ZERO
000082: 16,2557           55563                           TS       TESTNO
000083: 16,2560           55550                           TS       RUN
000084:
000085: 16,2561           03150                           TC       ZEROMODE
000086: 16,2562           03174                           TC       OPRTRDLY
000087:
000088: 16,2563           03244                           TC       COARZERO
000089:
000090: 16,2564           03160                           TC       ZEROMAIN
000091: 16,2565           03174                           TC       OPRTRDLY
000092:
000093: 16,2566           03150                           TC       ZEROMODE
000094:
000095: 16,2567           37665                           CAF      ZERO
000096: 16,2570           03102                           TC       THETADLD
000097:
000098: 16,2571           33332                           CAF      45ANG
000099: 16,2572           03102                           TC       THETADLD
000100:
000101: 16,2573           03260                           TC       FNZEROFN
000102:
000103: 16,2574           33334                           CAF      90ANG
000104: 16,2575           03102                           TC       THETADLD
000105:
000106: 16,2576           33335                           CAF      135ANG
000107: 16,2577           03102                           TC       THETADLD
000108:
000109: 16,2600           33332                           CAF      45ANG
000110: 16,2601           03104                           TC       THETADLD   +2
000111:
000112: 16,2602           03260                           TC       FNZEROFN
000113:
000114: 16,2603           33340                           CAF      180ANG
000115: 16,2604           54400                           TS       THETAD
000116: 16,2605           54401                           TS       THETAD     +1
000117: 16,2606           33333                           CAF      71ANG
000118: 16,2607           03104                           TC       THETADLD   +2
000119:
000120: 16,2610           33341                           CAF      225ANG
000121: 16,2611           03102                           TC       THETADLD
000122:
000123: 16,2612           37665                           CAF      ZERO
000124: 16,2613           03102                           TC       THETADLD
000125:
000126: 16,2614           37656                           CAF      TWO
000127: 16,2615           55672        CHK2               TS       CDUNDX
000128:
000129: 16,2616           33342                           CAF      170ANG
000130: 16,2617           51672                           INDEX    CDUNDX
000131:


000133:
000134: 16,2620           54400                           TS       THETAD
000135:
000136: 16,2621           04063                           TC       BANKCALL
000137: 16,2622           26055                           CADR     IMUCOARS
000138:
000139: 16,2623           33336                           CAF      10ANG
000140: 16,2624           03023                           TC       CDURATE
000141:
000142: 16,2625           33337                           CAF      160ANG
000143: 16,2626           03023                           TC       CDURATE
000144:
000145: 16,2627           03046                           TC       CALCRATE
000146:
000147: 16,2630           04063                           TC       BANKCALL
000148: 16,2631           26716                           CADR     IMUSTALL
000149: 16,2632           12766                           TCF      ENDTST03
000150:
000151: 16,2633           03244                           TC       COARZERO
000152:
000153: 16,2634           11672                           CCS      CDUNDX
000154: 16,2635           12615                           TCF      CHK2
000155:
000156: 16,2636           43332                           CS       45ANG
000157: 16,2637           03102                           TC       THETADLD
000158:
000159: 16,2640           03260                           TC       FNZEROFN
000160:
000161: 16,2641           43335                           CS       135ANG
000162: 16,2642           54400                           TS       THETAD
000163: 16,2643           54401                           TS       THETAD     +1
000164: 16,2644           43333                           CS       71ANG
000165: 16,2645           03104                           TC       THETADLD   +2
000166:
000167: 16,2646           03260                           TC       FNZEROFN
000168:
000169: 16,2647           03244                           TC       COARZERO
000170:
000171: 16,2650           03215                           TC       FINEZERO
000172: 16,2651           03215                           TC       FINEZERO
000173:
000174: 16,2652           43346        CHK5               CS       4+6BITS
000175: 16,2653           00006                           EXTEND
000176: 16,2654           03012                           WAND     12
000177: 16,2655           37655                           CAF      FOUR
000178: 16,2656           04536                           TC       WAITLIST
000179: 16,2657           02663 34005                     2CADR    ECE1
000180:
000181: 16,2661           33355                           CAF      ECE2CADR
000182: 16,2662           04416                           TC       JOBSLEEP
000183:


000185:
000186: 16,2663           33355        ECE1               CAF      ECE2CADR
000187: 16,2664           04422                           TC       JOBWAKE
000188: 16,2665           04602                           TC       TASKOVER
000189:
000190: 16,2666           46162        ECE2               CS       SIX
000191: 16,2667           61563                           AD       TESTNO
000192: 16,2670           00006                           EXTEND
000193: 16,2671           62673                           BZMF     +2
000194: 16,2672           12714                           TCF      CHKX
000195:
000196: 16,2673           51563                           INDEX    TESTNO
000197: 16,2674           32770                           CAF      ERCTRANG
000198: 16,2675           54400                           TS       THETAD
000199: 16,2676           54401                           TS       THETAD     +1
000200: 16,2677           54402                           TS       THETAD     +2
000201:
000202: 16,2700           37652                           CAF      BIT6
000203: 16,2701           00006                           EXTEND
000204: 16,2702           05012                           WOR      12
000205:
000206: 16,2703           00004                           INHINT
000207: 16,2704           37656                           CAF      TWO
000208: 16,2705           04536                           TC       WAITLIST
000209: 16,2706           02613 22005                     2CADR    ATTCK2
000210:
000211: 16,2710           00003                           RELINT
000212:
000213: 16,2711           03174                           TC       OPRTRDLY
000214:
000215: 16,2712           25563                           INCR     TESTNO
000216:
000217: 16,2713           12652                           TCF      CHK5
000218:
000219: 16,2714           03244        CHKX               TC       COARZERO
000220:
000221: 16,2715           37665                           CAF      ZERO
000222: 16,2716           55563                           TS       TESTNO
000223:
000224: 16,2717           04063                           TC       BANKCALL
000225: 16,2720           20247                           CADR     RRZERO
000226: 16,2721           04063                           TC       BANKCALL
000227: 16,2722           26712                           CADR     RADSTALL
000228: 16,2723           12766                           TCF      ENDTST03
000229:
000230: 16,2724           51563        CHK6               INDEX    TESTNO
000231: 16,2725           32777                           CAF      RADECNTR
000232: 16,2726           54424                           TS       TANG       +1
000233: 16,2727           54423                           TS       TANG
000234:
000235: 16,2730           06000                           TC       INTPRET
000236:


000238:
000239: 16,2731           77634                           CALL
000240: 16,2732           20363                                    RRDESNB
000241:
000242: 16,2733           04063                           TC       BANKCALL
000243: 16,2734           26712                           CADR     RADSTALL
000244: 16,2735           12766                           TCF      ENDTST03
000245:
000246: 16,2736           03167                           TC       RROPRDLY
000247:
000248: 16,2737           25563                           INCR     TESTNO
000249:
000250: 16,2740           47655                           CS       FOUR
000251: 16,2741           61563                           AD       TESTNO
000252: 16,2742           00006                           EXTEND
000253: 16,2743           62724                           BZMF     CHK6
000254:
000255: 16,2744           37665                           CAF      ZERO
000256: 16,2745           55563                           TS       TESTNO
000257: 16,2746           54354                           TS       ALTRATE
000258: 16,2747           54352                           TS       ALT
000259: 16,2750           54353                           TS       ALT        +1
000260:
000261: 16,2751           47657                           CS       ONE
000262: 16,2752           54351                           TS       DIDFLG
000263:
000264: 16,2753           51563        CHK7               INDEX    TESTNO
000265: 16,2754           33004                           CAF      RRRATFPS
000266: 16,2755           54360                           TS       FORVEL
000267: 16,2756           54361                           TS       LATVEL
000268:
000269: 16,2757           03167                           TC       RROPRDLY
000270:
000271: 16,2760           25563                           INCR     TESTNO
000272:
000273: 16,2761           47653                           CS       BIT5
000274: 16,2762           67656                           AD       TWO
000275: 16,2763           61563                           AD       TESTNO
000276: 16,2764           00006                           EXTEND
000277: 16,2765           62753                           BZMF     CHK7
000278:
000279: 16,2766           04063        ENDTST03           TC       BANKCALL
000280: 16,2767           30745                           CADR     ENDTEST
000281:
000282:
000283:
000284:
000285:
000286: 16,2770           03013        ERCTRANG           OCT      03013
000287: 16,2771           02660                           OCT      02660
000288: 16,2772           01042                           OCT      01042
000289:


000291:
000292: 16,2773           00000                           OCT      00000
000293: 16,2774           76736                           OCT      76736
000294: 16,2775           75120                           OCT      75120
000295: 16,2776           74765                           OCT      74765
000296:
000297:
000298:
000299:
000300:
000301: 16,2777           01463        RADECNTR           OCT      01463
000302: 16,3000           01042                           OCT      01042
000303: 16,3001           00000                           OCT      00000
000304: 16,3002           76736                           OCT      76736
000305: 16,3003           76315                           OCT      76315
000306:
000307:
000308:
000309:
000310:
000311: 16,3004           00000        RRRATFPS           OCT      00000
000312: 16,3005           00001                           OCT      00001
000313: 16,3006           00002                           OCT      00002
000314: 16,3007           00004                           OCT      00004
000315: 16,3010           00010                           OCT      00010
000316: 16,3011           00020                           OCT      00020
000317: 16,3012           00040                           OCT      00040
000318: 16,3013           00100                           OCT      00100
000319: 16,3014           00200                           OCT      00200
000320: 16,3015           00237                           OCT      00237
000321: 16,3016           00400                           OCT      00400
000322: 16,3017           00545                           OCT      00545
000323: 16,3020           00544                           OCT      00544
000324: 16,3021           77540                           OCT      77540
000325: 16,3022           77232                           OCT      77232
000326:


000328:
000329: 16,3023           00006        CDURATE            EXTEND
000330: 16,3024           23546                           QXCH     QPLACE
000331:
000332: 16,3025           55577                           TS       CDULIMIT
000333:
000334: 16,3026           10067                           CCS      NEWJOB
000335: 16,3027           04404                           TC       CHANG1
000336:
000337: 16,3030           41577                           CS       CDULIMIT
000338: 16,3031           51672                           INDEX    CDUNDX
000339: 16,3032           60032                           AD       CDUX                                  #  CATCH FIRST PULSE
000340: 16,3033           00006                           EXTEND
000341: 16,3034           63026                           BZMF     CDURATE    +3                         #  LOOK AGAIN
000342:
000343: 16,3035           51672                           INDEX    CDUNDX
000344: 16,3036           30032                           CAE      CDUX
000345: 16,3037           57575                           XCH      CDUREADF                              #  CDU FINAL READING
000346: 16,3040           57576                           XCH      CDUREADI                              #  CDU INITIAL READING
000347:
000348: 16,3041           05470                           TC       FINETIME
000349: 16,3042           53573                           DXCH     CDUTIMEF                              #  DP FINAL TIME
000350: 16,3043           53571                           DXCH     CDUTIMEI                              #  DP INITIAL READING
000351:
000352: 16,3044           00003                           RELINT
000353: 16,3045           01546                           TC       QPLACE
000354:
000355:
000356:
000357:
000358: 16,3046           00006        CALCRATE           EXTEND
000359: 16,3047           23546                           QXCH     QPLACE
000360:
000361: 16,3050           53576                           DXCH     CDUREADF
000362: 16,3051           00006                           EXTEND
000363: 16,3052           20001                           MSU      L
000364: 16,3053           55677                           TS       CDUANG
000365:
000366: 16,3054           06000                           TC       INTPRET
000367: 16,3055           45345                           DLOAD    DSU
000368: 16,3056           01573                                    CDUTIMEF
000369: 16,3057           01571                                    CDUTIMEI
000370: 16,3060           67206                           PUSH     SLOAD
000371: 16,3061           01700                                    CDUANG
000372: 16,3062           56261                           SR       DDV
000373: 16,3063           00617                                    14D
000374: 16,3064           45005                           DMP      RTB
000375: 16,3065           35361                                    DEG/SEC
000376: 16,3066           33406                                    SGNAGREE
000377: 16,3067           00337                           STORE    DSPTEM2
000378:


000380: 16,3070           77776                           EXIT
000381:
000382: 16,3071           33353        RATEDSP            CAF      V06N66X
000383: 16,3072           05332                           TC       NVSBWAIT
000384: 16,3073           05274                           TC       FLASHON
000385: 16,3074           05140                           TC       ENDIDLE
000386: 16,3075           12766                           TCF      ENDTST03
000387: 16,3076           13100                           TCF      +2
000388: 16,3077           13071                           TCF      RATEDSP
000389:
000390: 16,3100           25550                           INCR     RUN
000391: 16,3101           01546                           TC       QPLACE
000392:


000394:
000395: 16,3102           54400        THETADLD           TS       THETAD
000396: 16,3103           54401                           TS       THETAD     +1
000397: 16,3104           54402                           TS       THETAD     +2
000398:
000399: 16,3105           00006                           EXTEND
000400: 16,3106           23546                           QXCH     QPLACE
000401:
000402: 16,3107           37663                           CAF      SEVEN
000403: 16,3110           55551        THLD1              TS       STOREPL
000404:
000405: 16,3111           04063                           TC       BANKCALL
000406: 16,3112           26055                           CADR     IMUCOARS
000407: 16,3113           04063                           TC       BANKCALL
000408: 16,3114           26716                           CADR     IMUSTALL
000409: 16,3115           12766                           TCF      ENDTST03
000410:
000411: 16,3116           11551                           CCS      STOREPL
000412: 16,3117           03110                           TC       THLD1
000413:
000414: 16,3120           03174                           TC       OPRTRDLY
000415:
000416: 16,3121           01546                           TC       QPLACE
000417:
000418:
000419:
000420:
000421: 16,3122           00006        FINEALGN           EXTEND
000422: 16,3123           23546                           QXCH     QPLACE
000423:
000424: 16,3124           04063                           TC       BANKCALL
000425: 16,3125           26227                           CADR     IMUFINE
000426: 16,3126           04063                           TC       BANKCALL
000427: 16,3127           26716                           CADR     IMUSTALL
000428: 16,3130           12766                           TCF      ENDTST03
000429:
000430: 16,3131           01546                           TC       QPLACE
000431:


000433:
000434: 16,3132           00006        CH30DSPY           EXTEND
000435: 16,3133           23546                           QXCH     QPLACE
000436:
000437: 16,3134           33344                           CAF      OCT30
000438: 16,3135           54142                           TS       MPAC       +2
000439: 16,3136           33347                           CAF      V01N10X
000440: 16,3137           05332                           TC       NVSBWAIT
000441: 16,3140           05274                           TC       FLASHON
000442: 16,3141           05140                           TC       ENDIDLE
000443: 16,3142           12766                           TCF      ENDTST03
000444: 16,3143           13145                           TCF      +2
000445: 16,3144           13134                           TCF      CH30DSPY   +2
000446:
000447: 16,3145           05300                           TC       FLASHOFF
000448: 16,3146           25550                           INCR     RUN
000449: 16,3147           01546                           TC       QPLACE
000450:
000451:
000452:
000453:
000454: 16,3150           00006        ZEROMODE           EXTEND
000455: 16,3151           23546                           QXCH     QPLACE
000456:
000457: 16,3152           04063                           TC       BANKCALL
000458: 16,3153           26000                           CADR     IMUZERO
000459: 16,3154           04063                           TC       BANKCALL
000460: 16,3155           26716                           CADR     IMUSTALL
000461: 16,3156           12766                           TCF      ENDTST03
000462:
000463: 16,3157           01546                           TC       QPLACE
000464:
000465:
000466:
000467:
000468: 16,3160           43346        ZEROMAIN           CS       4+6BITS
000469: 16,3161           00006                           EXTEND
000470: 16,3162           03012                           WAND     12
000471:
000472: 16,3163           37653                           CAF      BIT5
000473: 16,3164           00006                           EXTEND
000474: 16,3165           05012                           WOR      12
000475:
000476: 16,3166           00002                           TC       Q
000477:


000479:
000480: 16,3167           00006        RROPRDLY           EXTEND
000481: 16,3170           23545                           QXCH     QPLAC
000482:
000483: 16,3171           25550                           INCR     RUN
000484:
000485: 16,3172           33352                           CAF      V06N40X
000486: 16,3173           13200                           TCF      OPRTRDLY   +4
000487:
000488:
000489:
000490:
000491: 16,3174           00006        OPRTRDLY           EXTEND
000492: 16,3175           23545                           QXCH     QPLAC
000493:
000494: 16,3176           25550                           INCR     RUN
000495: 16,3177           33351                           CAF      V06N20X
000496: 16,3200           05332                           TC       NVSBWAIT
000497: 16,3201           33354                           CAF      V33N00X
000498: 16,3202           05332                           TC       NVSBWAIT
000499: 16,3203           31550                           CA       RUN
000500: 16,3204           73343                           MASK     6LOW
000501: 16,3205           05332                           TC       NVSBWAIT
000502: 16,3206           05274                           TC       FLASHON
000503: 16,3207           05140                           TC       ENDIDLE
000504: 16,3210           12766                           TCF      ENDTST03
000505: 16,3211           13213                           TCF      +2
000506: 16,3212           13177                           TCF      OPRTRDLY   +3
000507:
000508: 16,3213           05300                           TC       FLASHOFF
000509: 16,3214           01545                           TC       QPLAC
000510:
000511: 16,3215           00006        FINEZERO           EXTEND
000512: 16,3216           23545                           QXCH     QPLAC
000513:
000514: 16,3217           04063                           TC       BANKCALL
000515: 16,3220           26000                           CADR     IMUZERO
000516:
000517: 16,3221           37656                           CAF      TWO
000518: 16,3222           55512                           TS       EROPTN
000519: 16,3223           37655                           CAF      FOUR
000520: 16,3224           55544                           TS       POSITON
000521:
000522: 16,3225           00004                           INHINT
000523: 16,3226           47646                           CS       BIT10
000524: 16,3227           70061                           MASK     STATE
000525: 16,3230           67646                           AD       BIT10
000526: 16,3231           54061                           TS       STATE
000527: 16,3232           00003                           RELINT
000528:


000530:
000531: 16,3233           04063                           TC       BANKCALL
000532: 16,3234           30760                           CADR     LEMLAB
000533:
000534: 16,3235           05317        SAMODRTN           TC       GRABWAIT
000535:
000536: 16,3236           33351                           CAF      V06N20X
000537: 16,3237           05332                           TC       NVSBWAIT
000538:
000539: 16,3240           03160                           TC       ZEROMAIN
000540:
000541: 16,3241           03132                           TC       CH30DSPY
000542: 16,3242           03150                           TC       ZEROMODE
000543:
000544: 16,3243           01545                           TC       QPLAC
000545:
000546:
000547:
000548: 16,3244           37665        COARZERO           CAF      ZERO
000549: 16,3245           54400                           TS       THETAD
000550: 16,3246           54401                           TS       THETAD     +1
000551: 16,3247           54402                           TS       THETAD     +2
000552:
000553: 16,3250           00006                           EXTEND
000554: 16,3251           23546                           QXCH     QPLACE
000555:
000556: 16,3252           04063                           TC       BANKCALL
000557: 16,3253           26055                           CADR     IMUCOARS
000558: 16,3254           04063                           TC       BANKCALL
000559: 16,3255           26716                           CADR     IMUSTALL
000560: 16,3256           12766                           TCF      ENDTST03
000561:
000562: 16,3257           01546                           TC       QPLACE
000563:


000565:
000566: 16,3260           00006        FNZEROFN           EXTEND
000567: 16,3261           23545                           QXCH     QPLAC
000568:
000569: 16,3262           03122                           TC       FINEALGN
000570:
000571: 16,3263           30032                           CAE      CDUX
000572: 16,3264           55575                           TS       CDUREADF
000573: 16,3265           30033                           CAE      CDUY
000574: 16,3266           55576                           TS       CDUREADI
000575: 16,3267           30034                           CAE      CDUZ
000576: 16,3270           55577                           TS       CDULIMIT
000577:
000578: 16,3271           03150                           TC       ZEROMODE
000579:
000580: 16,3272           33345                           CAF      3SEC
000581: 16,3273           04536                           TC       WAITLIST
000582: 16,3274           03300 34005                     2CADR    FZF1
000583:
000584: 16,3276           33356                           CAF      FZF2CADR
000585: 16,3277           04416                           TC       JOBSLEEP
000586:
000587: 16,3300           33356        FZF1               CAF      FZF2CADR
000588: 16,3301           04422                           TC       JOBWAKE
000589: 16,3302           04602                           TC       TASKOVER
000590:
000591: 16,3303           31575        FZF2               CAE      CDUREADF
000592: 16,3304           00006                           EXTEND
000593: 16,3305           20032                           MSU      CDUX
000594: 16,3306           54333                           TS       DSPTEM1
000595:
000596: 16,3307           31576                           CAE      CDUREADI
000597: 16,3310           00006                           EXTEND
000598: 16,3311           20033                           MSU      CDUY
000599: 16,3312           54334                           TS       DSPTEM1    +1
000600:
000601: 16,3313           31577                           CAE      CDULIMIT
000602: 16,3314           00006                           EXTEND
000603: 16,3315           20034                           MSU      CDUZ
000604: 16,3316           54335                           TS       DSPTEM1    +2
000605:
000606: 16,3317           33350        FZFDSP             CAF      V05N30X
000607: 16,3320           05332                           TC       NVSBWAIT
000608: 16,3321           05274                           TC       FLASHON
000609: 16,3322           05140                           TC       ENDIDLE
000610: 16,3323           12766                           TCF      ENDTST03
000611: 16,3324           13326                           TCF      +2
000612: 16,3325           13317                           TCF      FZFDSP
000613:
000614: 16,3326           25550                           INCR     RUN
000615: 16,3327           01545                           TC       QPLAC
000616:


000618:
000619: 16,3330           00133        1ANG               OCT      00133
000620: 16,3331           06000        33.75ANG           OCT      06000
000621: 16,3332           10000        45ANG              OCT      10000
000622: 16,3333           14477        71ANG              OCT      14477
000623: 16,3334           20000        90ANG              OCT      20000
000624: 16,3335           30000        135ANG             OCT      30000
000625: 16,3336           01616        10ANG              OCT      01616
000626: 16,3337           34344        160ANG             OCT      34344
000627: 16,3340           40000        180ANG             OCT      40000
000628: 16,3341           50000        225ANG             OCT      50000
000629: 16,3342           36162        170ANG             OCT      36162
000630:
000631: 16,3343           00077        6LOW               OCT      77
000632: 16,3344           00030        OCT30              OCT      30
000633: 16,3345           00454        3SEC               DEC      300        B-14
000634: 16,3346           00050        4+6BITS            OCT      00050
000635:
000636: 16,3347           00110        V01N10X            OCT      00110
000637: 16,3350           00530        V05N30X            OCT      00530
000638: 16,3351           00620        V06N20X            OCT      00620
000639: 16,3352           00640        V06N40X            OCT      00640
000640: 16,3353           00666        V06N66X            OCT      00666
000641: 16,3354           03300        V33N00X            OCT      03300
000642:
000643: 16,3355           34666        ECE2CADR           CADR     ECE2
000644: 16,3356           35303        FZF2CADR           CADR     FZF2
000645: 16,3357           02500        OGCECADR           ECADR    OGC
000646:
000647: 16,3360           00043 05000  DEG/SEC            2DEC     576000     B-28
000648:
000649:
000650:
000651: 16,3362                        ENDIMUS3           EQUALS
000652:
000653:
000654:
000655:
000656:
000657:
000658:
000659:
000660:
000661:
000662:
000663:

End of include-file IMU_PERFORMANCE_TESTS_3.agc.  Parent file is MAIN.agc


