
Source Code


000002:                                                                                                  ## Copyright:    Public domain.
000003:                                                                                                  ## Filename:     IMU_MODE_SWITCHING_ROUTINES.agc
000004:                                                                                                  ## Purpose:      Part of the source code for Aurora (revision 12).
000005:                                                                                                  ## Assembler:    yaYUL
000006:                                                                                                  ## Contact:      Ron Burkey <info@sandroid.org>.
000007:                                                                                                  ## Website:      https://www.ibiblio.org/apollo.
000008:                                                                                                  ## Pages:        189-208
000009:                                                                                                  ## Mod history:  2016-09-20 JL   Created.
000010:                                                                                                  ##               2016-09-28 MAS  Began.
000011:                                                                                                  ##               2016-09-30 MAS  Finished transcription.
000012:                                                                                                  ##               2016-12-08 RSB  Proofed comments with octopus/ProoferComments
000013:                                                                                                  ##                               and fixed the errors found.
000014:
000015:                                                                                                  ## This source code has been transcribed or otherwise adapted from
000016:                                                                                                  ## digitized images of a hardcopy from the private collection of
000017:                                                                                                  ## Don Eyles.  The digitization was performed by archive.org.
000018:
000019:                                                                                                  ## Notations on the hardcopy document read, in part:
000020:
000021:                                                                                                  ##       473423A YUL SYSTEM FOR BLK2: REVISION 12 of PROGRAM AURORA BY DAP GROUP
000022:                                                                                                  ##       NOV 10, 1966
000023:
000024:                                                                                                  ##       [Note that this is the date the hardcopy was made, not the
000025:                                                                                                  ##       date of the program revision or the assembly.]
000026:
000027:                                                                                                  ## The scan images (with suitable reduction in storage size and consequent
000028:                                                                                                  ## reduction in image quality) are available online at
000029:                                                                                                  ##       https://www.ibiblio.org/apollo.
000030:                                                                                                  ## The original high-quality digital images are available at archive.org:
000031:                                                                                                  ##       https://archive.org/details/aurora00dapg
000032:


000034:    4755                                           SETLOC   ENDT4FF
000035:    4755  E3,1451                                  EBANK=   COMMAND
000036:
000037:                                                                                                  #  FIXED-FIXED ROUTINES.
000038:    4755           37665        ZEROICDU           CAF      ZERO                                  #  ZERO ICDU COUNTERS.
000039:    4756           54032                           TS       CDUX
000040:    4757           54033                           TS       CDUY
000041:    4760           54034                           TS       CDUZ
000042:    4761           00002                           TC       Q
000043:
000044:    4762           00454        3SECS              DEC      300        B-14
000045:
000046:    4763                        ENDIMODF           EQUALS
000047:


000049:                                                                                                  #  IMU ZEROING ROUTINE.
000050:
000051: 13,2000                                           BANK     13
000052:
000053: 13,2000           00004        IMUZERO            INHINT                                         #  ROUTINE TO ZERO ICDUS.
000054: 13,2001           47650                           CS       IMUSEFLG                              #  SET INDICATION THAT A MISSION OR TEST
000055: 13,2002           70061                           MASK     STATE                                 #  PROGRAM IS USING THE IMU.
000056: 13,2003           67650                           AD       IMUSEFLG
000057: 13,2004           54061                           TS       STATE
000058:
000059: 13,2005           02650                           TC       CAGETSTQ                              #  IF IMU COMING UP, TURN-ON PROGRAM WILL
000060: 13,2006           12033                           TCF      MODEEXIT                              #  DO ALL THE WORK.
000061:
000062: 13,2007           42743                           CS       BITS3&4                               #  INHIBIT ICDUFAIL AND IMUFAIL (IN CASE WE
000063: 13,2010           70367                           MASK     IMODES30                              #  JUST CAME OUT OF COARSE ALIGN).
000064: 13,2011           62743                           AD       BITS3&4
000065: 13,2012           54367                           TS       IMODES30
000066:
000067: 13,2013           42744                           CS       BITS4&6                               #  SEND ZERO ENCODE WITH COARSE AND ERROR
000068: 13,2014           00006                           EXTEND                                         #  COUNTER DISABLED.
000069: 13,2015           03012                           WAND     12
000070:
000071: 13,2016           37653                           CAF      BIT5
000072: 13,2017           00006                           EXTEND
000073: 13,2020           05012                           WOR      12
000074:
000075: 13,2021           37652                           CAF      BIT6                                  #  WAIT 320 MS TO GIVE AGS ADEQUATE TIME TO
000076: 13,2022           04536                           TC       WAITLIST                              #  RECEIVE ITS PULSE TRAIN.
000077: 13,2023           02035 26003                     2CADR    IMUZERO2
000078:
000079: 13,2025           40367                           CS       IMODES30                              #  SEE IF IMU OPERATING AND ALARM IF NOT.
000080: 13,2026           77647                           MASK     BIT9
000081: 13,2027           10000                           CCS      A
000082: 13,2030           12033                           TCF      MODEEXIT
000083:
000084: 13,2031           05413                           TC       ALARM
000085: 13,2032           00210                           OCT      210
000086:
000087: 13,2033           00003        MODEEXIT           RELINT                                         #  GENERAL MODE-SWITCHING EXIT.
000088: 13,2034           14076                           TCF      SWRETURN
000089:


000091: 13,2035           02650        IMUZERO2           TC       CAGETSTQ                              #  POSSIBLY SWITCH TO TURN-ON PROGRAM.
000092: 13,2036           14602                           TCF      TASKOVER
000093:
000094: 13,2037           04755                           TC       ZEROICDU                              #  ZERO COUNTERS.
000095: 13,2040           47653                           CS       BIT5                                  #  REMOVE ZERO DISCRETE.
000096: 13,2041           00006                           EXTEND
000097: 13,2042           03012                           WAND     12
000098:
000099: 13,2043           34762                           CAF      3SECSM                                #  WAIT FOR COUNTERS TO SYNCRONIZE.
000100: 13,2044           04557                           TC       VARDELAY
000101:
000102: 13,2045           02650        IMUZERO3           TC       CAGETSTQ
000103: 13,2046           14602                           TCF      TASKOVER
000104:
000105: 13,2047           42743                           CS       BITS3&4                               #  REMOVE IMUFAIL AND ICDUFAIL INHIBIT.
000106: 13,2050           70367                           MASK     IMODES30
000107: 13,2051           54367                           TS       IMODES30
000108:
000109: 13,2052           04156                           TC       IBNKCALL                              #  SET ISS WARNING IF EITHER OF ABOVE ARE
000110: 13,2053           25344                           CADR     SETISSW                               #  PRESENT.
000111:
000112: 13,2054           12633                           TCF      ENDIMU
000113:


000115:                                                                                                  #  IMU COARSE ALIGN MODE.
000116:
000117: 13,2055           37654        IMUCOARS           CAF      BIT4                                  #  SEND COARSE ALIGN ENABLE DISCRETE
000118: 13,2056           00004                           INHINT
000119: 13,2057           00006                           EXTEND
000120: 13,2060           05012                           WOR      CHAN12
000121:
000122: 13,2061           47654                           CS       BIT4                                  #  INHIBIT IMU FAIL.
000123: 13,2062           70367                           MASK     IMODES30
000124: 13,2063           67654                           AD       BIT4
000125: 13,2064           54367                           TS       IMODES30
000126:
000127: 13,2065           36162                           CAF      SIX
000128: 13,2066           04536                           TC       WAITLIST
000129: 13,2067           02072 26003                     2CADR    COARS
000130:
000131: 13,2071           12033                           TCF      MODEEXIT
000132:
000133: 13,2072           02643        COARS              TC       CAGETEST
000134: 13,2073           37652                           CAF      BIT6                                  #  ENABLE ALL THREE ISS CDU ERROR COUNTERS
000135: 13,2074           00006                           EXTEND
000136: 13,2075           05012                           WOR      CHAN12
000137:
000138: 13,2076           37656                           CAF      TWO                                   #  SET CDU INDICATOR
000139: 13,2077           55454        COARS1             TS       CDUIND
000140:
000141: 13,2100           51454                           INDEX    CDUIND                                #  COMPUTE THETAD - THETAA IN 1'S
000142: 13,2101           30400                           CA       THETAD                                #    COMPLEMENT FORM
000143: 13,2102           00006                           EXTEND
000144: 13,2103           51454                           INDEX    CDUIND
000145: 13,2104           20032                           MSU      CDUX
000146: 13,2105           00006                           EXTEND
000147: 13,2106           77643                           MP       BIT13                                 #  SHIFT RIGHT 2
000148: 13,2107           56001                           XCH      L                                     #  ROUND
000149: 13,2110           60000                           DOUBLE
000150: 13,2111           54065                           TS       ITEMP1
000151: 13,2112           12114                           TCF      +2
000152: 13,2113           26001                           ADS      L
000153:
000154: 13,2114           51454                           INDEX    CDUIND                                #  DIFFERENCE TO BE COMPUTED
000155: 13,2115           23451                           LXCH     COMMAND
000156: 13,2116           11454                           CCS      CDUIND
000157: 13,2117           02077                           TC       COARS1
000158:
000159: 13,2120           37656                           CAF      TWO                                   #  MINIMUM OF 4 MS WAIT
000160: 13,2121           04557                           TC       VARDELAY
000161:


000163: 13,2122           02643        COARS2             TC       CAGETEST                              #  DONT CONTINUE IF CAGED.
000164: 13,2123           54065                           TS       ITEMP1                                #  SETS TO +0.
000165: 13,2124           37656                           CAF      TWO                                   #  SET CDU INDICATOR
000166: 13,2125           55454                 +3        TS       CDUIND
000167:
000168: 13,2126           51454                           INDEX    CDUIND
000169: 13,2127           11451                           CCS      COMMAND                               #  NUMBER OF PULSES REQUIRED
000170: 13,2130           02134                           TC       COMPOS                                #  GREATER THAN MAX ALLOWED
000171: 13,2131           02143                           TC       NEXTCDU    +1
000172: 13,2132           02206                           TC       COMNEG
000173: 13,2133           02143                           TC       NEXTCDU    +1
000174:
000175: 13,2134           62747        COMPOS             AD       -COMMAX                               #  COMMAX = MAX NUMBER OF PULSES ALLOWED
000176: 13,2135           00006                           EXTEND                                         #    MINUS ONE
000177: 13,2136           62216                           BZMF     COMZERO
000178: 13,2137           51454                           INDEX    CDUIND
000179: 13,2140           55451                           TS       COMMAND                               #  REDUCE COMMAND BY MAX NUMBER OF PULSES
000180: 13,2141           42750                           CS       -COMMAX-                              #    ALLOWED
000181:
000182: 13,2142           24065        NEXTCDU            INCR     ITEMP1
000183: 13,2143           51454                           INDEX    CDUIND
000184: 13,2144           54050                           TS       CDUXCMD                               #  SET UP COMMAND REGISTER.
000185:
000186: 13,2145           11454                           CCS      CDUIND
000187: 13,2146           02125                           TC       COARS2     +3
000188:
000189: 13,2147           10065                           CCS      ITEMP1                                #  SEE IF ANY PULSES TO GO OUT.
000190: 13,2150           12222                           TCF      SENDPULS
000191:
000192: 13,2151           04554                           TC       FIXDELAY                              #  WAIT FOR GIMBALS TO SETTLE.
000193: 13,2152           00226                           DEC      150        B-14
000194:


000196: 13,2153           37656                           CAF      TWO                                   #  AT END OF COMMAND, CHECK TO SEE THAT
000197: 13,2154           54065        CHKCORS            TS       ITEMP1                                #  GIMBALS ARE WITHIN 2 DEGREES OF THETAD.
000198: 13,2155           50000                           INDEX    A
000199: 13,2156           30032                           CA       CDUX
000200: 13,2157           00006                           EXTEND
000201: 13,2160           50065                           INDEX    ITEMP1
000202: 13,2161           20400                           MSU      THETAD
000203: 13,2162           10000                           CCS      A
000204: 13,2163           12177                           TCF      COARSERR
000205: 13,2164           12166                           TCF      CORSCHK2
000206: 13,2165           12177                           TCF      COARSERR
000207:
000208: 13,2166           10065        CORSCHK2           CCS      ITEMP1
000209: 13,2167           12154                           TCF      CHKCORS
000210: 13,2170           55451                           TS       GCOMP                                 #  ZERO GYRO COMPENSATION REGISTERS IN
000211: 13,2171           55452                           TS       GCOMP      +1                         #  PREPARATION FOR COMPENSATION.
000212: 13,2172           55453                           TS       GCOMP      +2
000213: 13,2173           55454                           TS       GCOMP      +3
000214: 13,2174           55455                           TS       GCOMP      +4
000215: 13,2175           55456                           TS       GCOMP      +5
000216:
000217: 13,2176           12633                           TCF      ENDIMU                                #  END OF COARSE ALIGNMENT.
000218:
000219: 13,2177           62205        COARSERR           AD       COARSTOL                              #  2 DEGREES.
000220: 13,2200           00006                           EXTEND
000221: 13,2201           62166                           BZMF     CORSCHK2
000222:
000223: 13,2202           05413                           TC       ALARM                                 #  COARSE ALIGN ERROR.
000224: 13,2203           00211                           OCT      211
000225:
000226: 13,2204           12641                           TCF      IMUBAD
000227:
000228: 13,2205           77511        COARSTOL           DEC      -.01111                               #  2 DEGREES SCALED AT HALF-REVOLUTIONS.
000229:


000231: 13,2206           62747        COMNEG             AD       -COMMAX
000232: 13,2207           00006                           EXTEND
000233: 13,2210           62216                           BZMF     COMZERO
000234: 13,2211           40000                           COM
000235: 13,2212           51454                           INDEX    CDUIND
000236: 13,2213           55451                           TS       COMMAND
000237: 13,2214           32750                           CA       -COMMAX-
000238: 13,2215           02142                           TC       NEXTCDU
000239:
000240: 13,2216           37665        COMZERO            CAF      ZERO
000241: 13,2217           51454                           INDEX    CDUIND
000242: 13,2220           57451                           XCH      COMMAND
000243: 13,2221           02142                           TC       NEXTCDU
000244:
000245: 13,2222           32746        SENDPULS           CAF      13,14,15
000246: 13,2223           00006                           EXTEND
000247: 13,2224           05014                           WOR      CHAN14
000248: 13,2225           32751                           CAF      600MS
000249: 13,2226           12121                           TCF      COARS2     -1                         #  AND THEN TO VARDELAY.
000250:


000252:                                                                                                  #  IMU FINE ALIGN MODE SWITCH.
000253:
000254: 13,2227           00004        IMUFINE            INHINT
000255: 13,2230           02655                           TC       CAGETSTJ                              #  SEE IF IMU BEING CAGED.
000256:
000257: 13,2231           42745                           CS       BITS4-6                               #  RESET ZERO, COARSE, AND ECTR ENABLE.
000258: 13,2232           00006                           EXTEND
000259: 13,2233           03012                           WAND     12
000260:
000261: 13,2234           37646                           CAF      BIT10                                 #  IMU FAIL WAS INHIBITED DURING THE
000262: 13,2235           04536                           TC       WAITLIST                              #  PRESUMABLY PRECEDING COARSE ALIGN.  LEAVE
000263: 13,2236           02247 26003                     2CADR    IFAILOK                               #  IT ON FOR THE FIRST 5 SECS OF FINE ALIGN
000264:
000265: 13,2240           32752                           CAF      90SEC                                 #  GYRO RE-CENTERING TIME.
000266: 13,2241           04536                           TC       WAITLIST
000267: 13,2242           02245 26003                     2CADR    IMUFINED
000268:
000269: 13,2244           12033                           TCF      MODEEXIT
000270:
000271: 13,2245           02643        IMUFINED           TC       CAGETEST                              #  SEE THAT NO ONE HAS CAGED THE IMU.
000272: 13,2246           12633                           TCF      ENDIMU
000273:
000274: 13,2247           02650        IFAILOK            TC       CAGETSTQ                              #  ENABLE IMU FAIL UNLESS IMU BEING CAGED.
000275: 13,2250           14602                           TCF      TASKOVER                              #  IT IS.
000276:
000277: 13,2251           37654                           CAF      BIT4                                  #  DONT RESET IMU FAIL INHIBIT IF SOMEONE
000278: 13,2252           00006                           EXTEND                                         #  HAS GONE INTO COARSE ALIGN.
000279: 13,2253           02012                           RAND     12
000280: 13,2254           10000                           CCS      A
000281: 13,2255           14602                           TCF      TASKOVER
000282:
000283: 13,2256           47654                           CS       BIT4
000284: 13,2257           70367        PFAILOK2           MASK     IMODES30
000285: 13,2260           54367                           TS       IMODES30
000286: 13,2261           14602                           TCF      TASKOVER
000287:
000288: 13,2262           02650        PFAILOK            TC       CAGETSTQ                              #  ENABLE PIP FAIL PROG ALARM.
000289: 13,2263           14602                           TCF      TASKOVER
000290:
000291: 13,2264           47653                           CS       BIT5
000292: 13,2265           12257                           TCF      PFAILOK2
000293:


000295:                                                                                                  #  ROUTINES TO INITIATE AND TERMINATE PROGRAM USE OF THE PIPAS. NO IMUSTALL REQUIRED IN EITHER CASE.
000296:
000297: 13,2266           02650        PIPUSE             TC       CAGETSTQ                              #  DONT ENABLE PIPA FAIL IF IMU BEING CAGED
000298: 13,2267           14076                           TCF      SWRETURN
000299:
000300: 13,2270           00004                           INHINT
000301: 13,2271           37665                           CAF      ZERO                                  #  ZERO COUNTERS.
000302: 13,2272           54037                           TS       PIPAX
000303: 13,2273           54040                           TS       PIPAY
000304: 13,2274           54041                           TS       PIPAZ
000305:
000306: 13,2275           47657                           CS       BIT1                                  #  IF PIPA FAILS FROM NOW ON (UNTIL
000307: 13,2276           70367                           MASK     IMODES30                              #  PIPFREE), LIGHT ISS WARNING.
000308: 13,2277           54367                           TS       IMODES30
000309:
000310: 13,2300           04156        PIPFREE2           TC       IBNKCALL                              #  ISS WARNING MIGHT COME ON NOW.
000311: 13,2301           25344                           CADR     SETISSW                               #  (OR GO OFF ON PIPFREE).
000312:
000313: 13,2302           12033                           TCF      MODEEXIT
000314:
000315: 13,2303           00004        PIPFREE            INHINT                                         #  PROGRAM DONE WITH PIPAS. DONT LIGHT
000316: 13,2304           47657                           CS       BIT1                                  #  ISS WARNING.
000317: 13,2305           70367                           MASK     IMODES30
000318: 13,2306           67657                           AD       BIT1
000319: 13,2307           54367                           TS       IMODES30
000320:
000321: 13,2310           77646                           MASK     BIT10                                 #  IF PIP FAIL ON, DO PROG ALSRM AND RESET
000322: 13,2311           10000                           CCS      A                                     #  ISS WARNING.
000323: 13,2312           12033                           TCF      MODEEXIT
000324:
000325: 13,2313           05413                           TC       ALARM
000326: 13,2314           00212                           OCT      212
000327:
000328: 13,2315           00004                           INHINT
000329:
000330: 13,2316           12300                           TCF      PIPFREE2
000331:


000333:                                                                                                  #           THE FOLLOWING ROUTINE TORQUES THE IRIGS ACCORDING TO DOUBLE PRECISION INPUTS IN THE SIX REGISTERS
000334:                                                                                                  #  BEGINNING AT THE ECADR ARRIVING IN A. THE MINIMUM SIZE OF ANY PULSE TRAIN IS 16 PULSES (.25 CDU COUNTS). THE
000335:                                                                                                  #  UNSENT PORTION OF THE COMMAND IS LEFT INTACT IN THE INPUT COMMAND REGISTERS.
000336:
000337: 13,2317  E3,1400                                  EBANK=   1400                                  #  VARIABLE, ACTUALLY.
000338:
000339: 13,2317           54145        IMUPULSE           TS       MPAC       +5                         #  SAVE ARRIVING ECADR.
000340: 13,2320           02655                           TC       CAGETSTJ                              #  DONT PROCEED IF IMU BEING CAGED.
000341:
000342: 13,2321           10357                           CCS      LGYRO                                 #  SEE IF GYROS BUSY.
000343: 13,2322           02364                           TC       GYROBUSY                              #  SLEEP.
000344:
000345: 13,2323           54142                           TS       MPAC       +2
000346: 13,2324           37652                           CAF      BIT6                                  #  ENABLE THE POWER SUPPLY.
000347: 13,2325           00006                           EXTEND
000348: 13,2326           05014                           WOR      14
000349:
000350: 13,2327           37655                           CAF      FOUR
000351: 13,2330           00004        GWAKE2             INHINT                                         #  (IF A JOB WAS PUT TO SLEEP, THE POWER
000352: 13,2331           04536                           TC       WAITLIST                              #  SUPPLY IS LEFT ON BY THE WAKING JOB).
000353: 13,2332           02402 26003                     2CADR    STRTGYRO
000354:
000355: 13,2334           30145                           CA       MPAC       +5                         #  SET UP EBANK, SAVING CALLER'S EBANK FOR
000356: 13,2335           56003                           XCH      EBANK                                 #  RESTORATION ON RETURN.
000357: 13,2336           56145                           XCH      MPAC       +5
000358: 13,2337           54357                           TS       LGYRO                                 #  RESERVES GYROS.
000359: 13,2340           75235                           MASK     LOW8
000360: 13,2341           54065                           TS       ITEMP1
000361:
000362: 13,2342           37656                           CAF      TWO                                   #  FORCE SIGN AGREEMENT ON INPUTS.
000363: 13,2343           54143        GYROAGRE           TS       MPAC       +3
000364: 13,2344           60000                           DOUBLE
000365: 13,2345           60065                           AD       ITEMP1
000366: 13,2346           54144                           TS       MPAC       +4
000367: 13,2347           00006                           EXTEND
000368: 13,2350           50000                           INDEX    A
000369: 13,2351           31401                           DCA      1400
000370: 13,2352           52141                           DXCH     MPAC
000371: 13,2353           07235                           TC       TPAGREE
000372: 13,2354           52141                           DXCH     MPAC
000373: 13,2355           50144                           INDEX    MPAC       +4
000374: 13,2356           53401                           DXCH     1400
000375:
000376: 13,2357           10143                           CCS      MPAC       +3
000377: 13,2360           12343                           TCF      GYROAGRE
000378:
000379: 13,2361           30145                           CA       MPAC       +5                         #  RESTORE CALLER'S EBANK.
000380: 13,2362           54003                           TS       EBANK
000381: 13,2363           12033                           TCF      MODEEXIT
000382:


000384:                                                                                                  #  ROUTINES TO ALLOW TORQUING BY ONLY ONE JOB AT A TIME.
000385:
000386: 13,2364           00006        GYROBUSY           EXTEND                                         #  SAVE RETURN 2FCADR.
000387: 13,2365           30120                           DCA      BUF2
000388: 13,2366           52141                           DXCH     MPAC
000389: 13,2367           32401        REGSLEEP           CAF      LGWAKE
000390: 13,2370           14416                           TCF      JOBSLEEP
000391:
000392: 13,2371           10357        GWAKE              CCS      LGYRO                                 #  WHEN AWAKENED, SEE IF GYROS STILL BUSY.
000393: 13,2372           12367                           TCF      REGSLEEP                              #  IF SO, SLEEP SOME MORE.
000394:
000395: 13,2373           54142                           TS       MPAC       +2
000396: 13,2374           00006                           EXTEND
000397: 13,2375           30141                           DCA      MPAC
000398: 13,2376           52120                           DXCH     BUF2                                  #  RESTORE SWRETURN INFO.
000399: 13,2377           37657                           CAF      ONE
000400: 13,2400           12330                           TCF      GWAKE2
000401:
000402: 13,2401           26371        LGWAKE             CADR     GWAKE
000403:


000405:                                                                                                  #  GYRO-TORQUING WAITLIST TASKS.
000406:
000407: 13,2402           42630        STRTGYRO           CS       GDESELCT                              #  DE-SELECT LAST GYRO.
000408: 13,2403           00006                           EXTEND
000409: 13,2404           03014                           WAND     14
000410:
000411: 13,2405           02643                           TC       CAGETEST
000412:
000413: 13,2406           30357        STRTGYR2           CA       LGYRO                                 #  JUMP ON PHASE COUNTER IN BITS 13-14.
000414: 13,2407           00006                           EXTEND
000415: 13,2410           77654                           MP       BIT4
000416: 13,2411           50000                           INDEX    A
000417: 13,2412           12413                           TCF      +1
000418: 13,2413           02442                           TC       GSELECT                               #  =0. DO Y GYRO.
000419: 13,2414           00202                           OCT      00202
000420:
000421: 13,2415           02442                           TC       GSELECT                               #  =1. DO Z GYRO.
000422: 13,2416           00302                           OCT      00302
000423:
000424: 13,2417           02440                           TC       GSELECT    -2                         #  =2. DO X GYRO.
000425: 13,2420           00100                           OCT      00100
000426:
000427: 13,2421           37665                           CAF      ZERO                                  #  =3. DONE
000428: 13,2422           54357                           TS       LGYRO
000429: 13,2423           32401                           CAF      LGWAKE                                #  WAKE A POSSIBLE SLEEPING JOB.
000430: 13,2424           04422                           TC       JOBWAKE
000431:
000432: 13,2425           37656                           CAF      BIT2                                  #  DONT RESET POWER SUPPLY IF BIT SET
000433: 13,2426           70370                           MASK     IMODES33                              #  (ONLY DURING GYRO TORQUE SCALE FACTOR
000434: 13,2427           10000                           CCS      A                                     #  TEST).
000435: 13,2430           12437                           TCF      NORESET
000436:
000437: 13,2431           10071                           CCS      LOCCTR                                #  IF A JOB WAS AWAKENED, DONT RESET GYRO
000438: 13,2432           12437                           TCF      NORESET                               #  ENABLE.
000439:
000440: 13,2433           12437                           TCF      NORESET
000441:
000442: 13,2434           47652                           CS       BIT6                                  #  IF NO JOB AWAKENED, RESET GYRO ENABLE.
000443: 13,2435           00006                           EXTEND
000444: 13,2436           03014                           WAND     14
000445:
000446: 13,2437           12245        NORESET            TCF      IMUFINED
000447:


000449: 13,2440           47655                 -2        CS       FOUR                                  #  SPECIAL ENTRY TO REGRESS LGYRO FOR X.
000450: 13,2441           26357                           ADS      LGYRO
000451:
000452: 13,2442           50002        GSELECT            INDEX    Q                                     #  SELECT GYRO.
000453: 13,2443           30000                           CAF      0                                     #  PACKED WORD CONTAINS GYRO SELECT BITS
000454: 13,2444           54071                           TS       ITEMP4                                #  AND INCREMENT TO LGYRO.
000455: 13,2445           77663                           MASK     SEVEN
000456: 13,2446           67643                           AD       BIT13
000457: 13,2447           26357                           ADS      LGYRO
000458: 13,2450           54003                           TS       EBANK
000459: 13,2451           75235                           MASK     LOW8
000460: 13,2452           54065                           TS       ITEMP1
000461:
000462: 13,2453           47663                           CS       SEVEN
000463: 13,2454           70071                           MASK     ITEMP4
000464: 13,2455           54071                           TS       ITEMP4
000465:
000466: 13,2456           00006                           EXTEND                                         #  MOVE DP COMMAND TO RUPTREGS FOR TESTING.
000467: 13,2457           50065                           INDEX    ITEMP1
000468: 13,2460           31401                           DCA      1400
000469: 13,2461           52075                           DXCH     RUPTREG1
000470:
000471: 13,2462           10074                           CCS      RUPTREG1
000472: 13,2463           12476                           TCF      MAJ+
000473: 13,2464           12466                           TCF      +2
000474: 13,2465           12611                           TCF      MAJ-
000475:
000476: 13,2466           10075                           CCS      RUPTREG2
000477: 13,2467           12473                           TCF      MIN+
000478: 13,2470           12406                           TCF      STRTGYR2
000479: 13,2471           12606                           TCF      MIN-
000480: 13,2472           12406                           TCF      STRTGYR2
000481:


000483: 13,2473           62527        MIN+               AD       -GYROMIN                              #  SMALL POSITIVE COMMAND. SEE IF AT LEAST
000484: 13,2474           00006                           EXTEND                                         #  16 GYRO PULSES.
000485: 13,2475           62406                           BZMF     STRTGYR2
000486:
000487: 13,2476           00006        MAJ+               EXTEND                                         #  DEFINITE POSITIVE OUTPUT.
000488: 13,2477           32632                           DCA      GYROFRAC
000489: 13,2500           20075                           DAS      RUPTREG1
000490:
000491: 13,2501           30071                           CA       ITEMP4                                #  SELECT POSITIVE TORQUING FOR THIS GYRO.
000492: 13,2502           00006                           EXTEND
000493: 13,2503           05014                           WOR      14
000494:
000495: 13,2504           36027                           CAF      LOW7                                  #  LEAVE NUMBER OF POSSIBLE 8192 AUGMENTS
000496: 13,2505           70075                           MASK     RUPTREG2                              #  TO INITIAL COMMAND IN MAJOR PART OF LONG
000497: 13,2506           56075                           XCH      RUPTREG2                              #  TERM STORAGE AND TRUNCATED FRACTION
000498: 13,2507           00006        GMERGE             EXTEND                                         #  IN MINOR PART. THE MAJOR PART WILL BE
000499: 13,2510           77650                           MP       BIT8                                  #  COUNTED DOWN TO ZERO IN THE COURSE OF
000500: 13,2511           54066                           TS       ITEMP2                                #  PUTTING OUT THE ENTIRE COMMAND.
000501: 13,2512           30074                           CA       RUPTREG1
000502: 13,2513           00006                           EXTEND
000503: 13,2514           77647                           MP       BIT9
000504: 13,2515           54074                           TS       RUPTREG1
000505: 13,2516           30001                           CA       L
000506: 13,2517           00006                           EXTEND
000507: 13,2520           77642                           MP       BIT14
000508: 13,2521           26066                           ADS      ITEMP2                                #  INITIAL COMMAND.
000509:
000510: 13,2522           00006                           EXTEND                                         #  SEE IF MORE THAN ONE PULSE TRAIN NEEDED
000511: 13,2523           30075                           DCA      RUPTREG1                              #  (MORE THAN 16383 PULSES).
000512: 13,2524           67667                           AD       MINUS1
000513: 13,2525           10000                           CCS      A
000514: 13,2526           12552                           TCF      LONGGYRO
000515: 13,2527           77600        -GYROMIN           OCT      -177                                  #  MAY BE ADJUSTED TO SPECIFY MINIMUM CMD.
000516:
000517: 13,2530           12534                           TCF      +4
000518:
000519: 13,2531           37642                           CAF      BIT14
000520: 13,2532           26066                           ADS      ITEMP2
000521: 13,2533           37665                           CAF      ZERO
000522:
000523: 13,2534           50065                 +4        INDEX    ITEMP1
000524: 13,2535           53401                           DXCH     1400


000526: 13,2536           30066                           CA       ITEMP2                                #  ENTIRE COMMAND.
000527: 13,2537           54047        LASTSEG            TS       GYROCMD
000528: 13,2540           00006                           EXTEND
000529: 13,2541           77646                           MP       BIT10                                 #  WAITLIST DT
000530: 13,2542           66165                           AD       THREE                                 #  TRUNCATION AND PHASE UNCERTAINTIES.
000531: 13,2543           04536                           TC       WAITLIST
000532: 13,2544           02402 26003                     2CADR    STRTGYRO
000533:
000534: 13,2546           37646        GYROEXIT           CAF      BIT10                                 #  TURN ON GYRO ACTIVITY TO START TRAIN.
000535: 13,2547           00006                           EXTEND
000536: 13,2550           05014                           WOR      14
000537: 13,2551           14602                           TCF      TASKOVER
000538:
000539: 13,2552           50065        LONGGYRO           INDEX    ITEMP1
000540: 13,2553           53401                           DXCH     1400                                  #  INITIAL COMMAND OUT PLUS N AUGMENTS OF
000541: 13,2554           37642                           CAF      BIT14                                 #  8192. INITIAL COMMAND IS AT LEAST 8192.
000542: 13,2555           60066                           AD       ITEMP2
000543: 13,2556           54047                           TS       GYROCMD
000544:
000545: 13,2557           00006        AUG3               EXTEND                                         #  GET WAITLIST DT TO TIME WHEN TRAIN IS
000546: 13,2560           77646                           MP       BIT10                                 #  ALMOST OUT.
000547: 13,2561           67671                           AD       NEG3
000548: 13,2562           04536                           TC       WAITLIST
000549: 13,2563           02566 26003                     2CADR    8192AUG
000550:
000551: 13,2565           12546                           TCF      GYROEXIT
000552:
000553: 13,2566           02643        8192AUG            TC       CAGETEST
000554:
000555: 13,2567           30357                           CA       LGYRO                                 #  ADD 8192 PULSES TO GYROCMD
000556: 13,2570           54003                           TS       EBANK
000557: 13,2571           75235                           MASK     LOW8
000558: 13,2572           54065                           TS       ITEMP1
000559:
000560: 13,2573           50065                           INDEX    ITEMP1                                #  SEE IF THIS IS THE LAST AUG.
000561: 13,2574           11400                           CCS      1400
000562: 13,2575           12601                           TCF      AUG2                                  #  MORE TO COME.
000563:
000564: 13,2576           37642                           CAF      BIT14
000565: 13,2577           26047                           ADS      GYROCMD
000566: 13,2600           12540                           TCF      LASTSEG    +1
000567:
000568: 13,2601           50065        AUG2               INDEX    ITEMP1
000569: 13,2602           55400                           TS       1400
000570: 13,2603           37642                           CAF      BIT14
000571: 13,2604           26047                           ADS      GYROCMD
000572: 13,2605           12557                           TCF      AUG3                                  #  COMPUTE DT.
000573:


000575: 13,2606           62527        MIN-               AD       -GYROMIN                              #  POSSIBLE NEGATIVE OUTPUT.
000576: 13,2607           00006                           EXTEND
000577: 13,2610           62406                           BZMF     STRTGYR2
000578:
000579: 13,2611           00006        MAJ-               EXTEND                                         #  DEFINITE NEGATIVE OUTPUT.
000580: 13,2612           42632                           DCS      GYROFRAC
000581: 13,2613           20075                           DAS      RUPTREG1
000582:
000583: 13,2614           30071                           CA       ITEMP4                                #  SELECT NEGATIVE TORQUING FOR THIS GYRO.
000584: 13,2615           67647                           AD       BIT9
000585: 13,2616           00006                           EXTEND
000586: 13,2617           05014                           WOR      14
000587:
000588: 13,2620           40074                           CS       RUPTREG1                              #  SET UP RUPTREGS TO FALL INTO GMERGE.
000589: 13,2621           54074                           TS       RUPTREG1                              #  ALL NUMBERS PUT INTO GYROCMD ARE
000590: 13,2622           40075                           CS       RUPTREG2                              #  POSITIVE - BIT9 OF CHAN 14 DETERMINES
000591: 13,2623           76027                           MASK     LOW7                                  #  THE SIGN OF THE COMMAND.
000592: 13,2624           40000                           COM
000593: 13,2625           56075                           XCH      RUPTREG2
000594: 13,2626           40000                           COM
000595: 13,2627           12507                           TCF      GMERGE
000596:
000597: 13,2630           01700        GDESELCT           OCT      1700                                  #  TURN OFF SELECT AND ACTIVITY BITS.
000598:
000599: 13,2631           00000 00034  GYROFRAC           2DEC     .215       B-21
000600:


000602:                                                                                                  #  IMU MODE SWITCHING ROUTINES COME HERE WHEN ACTION COMPLETE.
000603:
000604: 13,2633           00006        ENDIMU             EXTEND                                         #  MODE IS BAD IF CAGE HAS OCCURED OR IF
000605: 13,2634           00011                           READ     11                                    #  ISS WARNING IS ON.
000606: 13,2635           77657                           MASK     BIT1
000607: 13,2636           10000                           CCS      A
000608: 13,2637           12641                           TCF      IMUBAD
000609:
000610: 13,2640           12667        IMUGOOD            TCF      GOODEND                               #  WITH C(A) = 0.
000611:
000612: 13,2641           37665        IMUBAD             CAF      ZERO
000613: 13,2642           12664                           TCF      BADEND
000614:
000615: 13,2643           37652        CAGETEST           CAF      BIT6                                  #  SUBROUTINE TO TERMINATE IMU MODE
000616: 13,2644           70367                           MASK     IMODES30                              #  SWITCH IF IMU HAS BEEN CAGED.
000617: 13,2645           10000                           CCS      A
000618: 13,2646           12641                           TCF      IMUBAD                                #  DIRECTLY.
000619: 13,2647           00002                           TC       Q                                     #  WITH C(A) = +0.
000620:
000621: 13,2650           40367        CAGETSTQ           CS       IMODES30                              #  SKIP IF IMU NOT BEING CAGED.
000622: 13,2651           77652                           MASK     BIT6
000623: 13,2652           10000                           CCS      A
000624: 13,2653           24002                           INCR     Q
000625: 13,2654           00002                           TC       Q
000626:
000627: 13,2655           40367        CAGETSTJ           CS       IMODES30                              #  IF DURING MODE SWITCH INITIALIZATION
000628: 13,2656           77652                           MASK     BIT6                                  #  IT IS FOUND THAT THE IMU IS BEING CAGED,
000629: 13,2657           10000                           CCS      A                                     #  SET IMUCADR TO -0 TO INDICATE OPERATION
000630: 13,2660           00002                           TC       Q                                     #  COMPLETE BUT FAILED. RETURN IMMEDIATELY
000631:
000632: 13,2661           47665                           CS       ZERO                                  #  TO SWRETURN.
000633: 13,2662           54371                           TS       IMUCADR
000634: 13,2663           12033                           TCF      MODEEXIT
000635:


000637:                                                                                                  #           GENERALIZED MODE SWITCHING TERMINATION. ENTER AT GOODEND FOR SUCCESSFUL COMPLETION OF AN I/O OPERATION
000638:                                                                                                  #  OR AT BADEND FOR A N UNSUCCESSFUL ONE. C(A) OR ARRIVAL =0 FOR IMU, 1 FOR AOT, AND 2 FOR RADARS.
000639:
000640: 13,2664           54075        BADEND             TS       RUPTREG2                              #  DEVICE INDEX.
000641: 13,2665           47665                           CS       ZERO                                  #  FOR FAILURE.
000642: 13,2666           12671                           TCF      GOODEND    +2
000643:
000644: 13,2667           54075        GOODEND            TS       RUPTREG2
000645: 13,2670           47657                           CS       ONE                                   #  FOR SUCCESS.
000646:
000647: 13,2671           54076                           TS       RUPTREG3
000648: 13,2672           50075                           INDEX    RUPTREG2                              #  SEE IF USING PROGRAM ASLEEP.
000649: 13,2673           10371                           CCS      MODECADR
000650: 13,2674           12676                           TCF      +2                                    #  YES - WAKE IT UP.
000651: 13,2675           12706                           TCF      ENDMODE                               #  IF 0, PROGRAM NOT IN YET.
000652:
000653: 13,2676           37665                           CAF      ZERO                                  #  WAKE SLEEPING PROGRAM.
000654: 13,2677           50075                           INDEX    RUPTREG2
000655: 13,2700           56371                           XCH      MODECADR
000656: 13,2701           04422                           TC       JOBWAKE
000657:
000658: 13,2702           40076                           CS       RUPTREG3                              #  ADVANCE LOC IF SUCCESSFUL.
000659: 13,2703           50071                           INDEX    LOCCTR
000660: 13,2704           26150                           ADS      LOC
000661:
000662: 13,2705           14602                           TCF      TASKOVER
000663:
000664: 13,2706           30076        ENDMODE            CA       RUPTREG3                              #  -0 INDICATES OPERATION COMPLETE BUT
000665: 13,2707           50075                           INDEX    RUPTREG2                              #  UNSUCCESSFUL - -1 INDICATES COMPLETE AND
000666: 13,2710           54371                           TS       MODECADR                              #  SUCCESSFUL.
000667: 13,2711           14602                           TCF      TASKOVER
000668:


000670:                                                                                                  #  GENERAL STALLING ROUTINE. USING PROGRAMS COME HERE TO WAIT FOR I/O COMPLETION.
000671:
000672: 13,2712           37656        RADSTALL           CAF      TWO                                   #  RR AND LR STALL.
000673: 13,2713           12717                           TCF      STALL
000674:
000675: 13,2714           37657        AOTSTALL           CAF      ONE                                   #  AOT.
000676: 13,2715           02717                           TC       STALL
000677:
000678: 13,2716  13,2714               OPTSTALL           EQUALS   AOTSTALL
000679:
000680: 13,2716  13,2712               LOTSTALL           EQUALS   RADSTALL
000681: 13,2716           37665        IMUSTALL           CAF      ZERO                                  #  IMU.
000682:
000683: 13,2717           00004        STALL              INHINT
000684: 13,2720           54075                           TS       RUPTREG2                              #  SAVE DEVICE INDEX.
000685: 13,2721           50000                           INDEX    A                                     #  SEE IF OPERATION COMPLETE.
000686: 13,2722           10371                           CCS      MODECADR
000687: 13,2723           12741                           TCF      MODABORT                              #  ALLOWABLE STATES ARE +0, -1, AND -0.
000688: 13,2724           12735                           TCF      MODESLP                               #  OPERATION INCOMPLETE.
000689: 13,2725           12731                           TCF      MODEGOOD                              #  COMPLETE AND GOOD IF = -1.
000690:
000691: 13,2726           50075        MG2                INDEX    RUPTREG2                              #  COMPLETE AND FAILED IF -0. RESET TO +0.
000692: 13,2727           54371                           TS       MODECADR                              #  RETURN TO CALLER.
000693: 13,2730           12033                           TCF      MODEEXIT
000694:
000695: 13,2731           10000        MODEGOOD           CCS      A                                     #  MAKE SURE INITIAL STATE -1.
000696: 13,2732           12741                           TCF      MODABORT
000697:
000698: 13,2733           24117                           INCR     BUF2                                  #  IF SO, INCREMENT RETURN ADDRESS AND
000699: 13,2734           12726                           TCF      MG2                                   #  RETURN IMMEDIATELY, SETTING CADR = +0.
000700:
000701: 13,2735           04112        MODESLP            TC       MAKECADR                              #  CALL FROM SWITCHABLE FIXED ONLY.
000702: 13,2736           50075                           INDEX    RUPTREG2
000703: 13,2737           54371                           TS       MODECADR
000704: 13,2740           14416                           TCF      JOBSLEEP
000705:
000706: 13,2741           05446        MODABORT           TC       ABORT                                 #  TWO PROGRAMS USING SAME DEVICE.
000707: 13,2742           01210                           OCT      1210
000708:


000710:                                                                                                  #  CONSTANTS FOR MODE SWITCHING ROUTINES
000711:
000712: 13,2743           00014        BITS3&4            OCT      14
000713: 13,2744           00050        BITS4&6            OCT      00050
000714: 13,2745           00070        BITS4-6            OCT      00070
000715: 13,2746     7650               IMUSEFLG           EQUALS   BIT8                                  #  INTERPRETER SWITCH 7.
000716: 13,2746           70000        13,14,15           OCT      70000
000717:
000718: 13,2747           77500        -COMMAX            DEC      -191       B-14
000719: 13,2750           77477        -COMMAX-           DEC      -192       B-14
000720: 13,2751           00074        600MS              DEC      60         B-14
000721: 13,2752     4762               3SECSM             EQUALS   3SECS
000722: 13,2752           21450        90SEC              DEC      9000       B-14
000723:
000724: 13,2753                        ENDIMODS           EQUALS

End of include-file IMU_MODE_SWITCHING_ROUTINES.agc.  Parent file is MAIN.agc


