
Source Code


000002:                                                                                                  ## Copyright:   Public domain.
000003:                                                                                                  ## Filename:    IMU_MODE_SWITCHING_ROUTINES.agc
000004:                                                                                                  ## Purpose:     Part of the source code for Aurora (revision 12).
000005:                                                                                                  ## Assembler:   yaYUL
000006:                                                                                                  ## Contact:     Ron Burkey <info@sandroid.org>.
000007:                                                                                                  ## Website:     https://www.ibiblio.org/apollo.
000008:                                                                                                  ## Pages:       189-208
000009:                                                                                                  ## Mod history: 2016-09-20 JL   Created.
000010:                                                                                                  ##              2016-09-28 MAS  Began.
000011:                                                                                                  ##              2016-09-30 MAS  Finished transcription.
000012:                                                                                                  ##              2016-12-08 RSB  Proofed comments with octopus/ProoferComments
000013:                                                                                                  ##                              and fixed the errors found.
000014:                                                                                                  ##              2017-03-13 RSB  Comment-text fixes noted in proofing Luminary 116.
000015:
000016:                                                                                                  ## This source code has been transcribed or otherwise adapted from
000017:                                                                                                  ## digitized images of a hardcopy from the private collection of
000018:                                                                                                  ## Don Eyles.  The digitization was performed by archive.org.
000019:
000020:                                                                                                  ## Notations on the hardcopy document read, in part:
000021:
000022:                                                                                                  ##       473423A YUL SYSTEM FOR BLK2: REVISION 12 of PROGRAM AURORA BY DAP GROUP
000023:                                                                                                  ##       NOV 10, 1966
000024:
000025:                                                                                                  ##       [Note that this is the date the hardcopy was made, not the
000026:                                                                                                  ##       date of the program revision or the assembly.]
000027:
000028:                                                                                                  ## The scan images (with suitable reduction in storage size and consequent
000029:                                                                                                  ## reduction in image quality) are available online at
000030:                                                                                                  ##       https://www.ibiblio.org/apollo.
000031:                                                                                                  ## The original high-quality digital images are available at archive.org:
000032:                                                                                                  ##       https://archive.org/details/aurora00dapg
000033:


000035:    4755                                           SETLOC   ENDT4FF
000036:    4755  E3,1451                                  EBANK=   COMMAND
000037:
000038:                                                                                                  #  FIXED-FIXED ROUTINES.
000039:    4755           37665        ZEROICDU           CAF      ZERO                                  #  ZERO ICDU COUNTERS.
000040:    4756           54032                           TS       CDUX
000041:    4757           54033                           TS       CDUY
000042:    4760           54034                           TS       CDUZ
000043:    4761           00002                           TC       Q
000044:
000045:    4762           00454        3SECS              DEC      300        B-14
000046:
000047:    4763                        ENDIMODF           EQUALS
000048:


000050:                                                                                                  #  IMU ZEROING ROUTINE.
000051:
000052: 13,2000                                           BANK     13
000053:
000054: 13,2000           00004        IMUZERO            INHINT                                         #  ROUTINE TO ZERO ICDUS.
000055: 13,2001           47650                           CS       IMUSEFLG                              #  SET INDICATION THAT A MISSION OR TEST
000056: 13,2002           70061                           MASK     STATE                                 #  PROGRAM IS USING THE IMU.
000057: 13,2003           67650                           AD       IMUSEFLG
000058: 13,2004           54061                           TS       STATE
000059:
000060: 13,2005           02650                           TC       CAGETSTQ                              #  IF IMU COMING UP, TURN-ON PROGRAM WILL
000061: 13,2006           12033                           TCF      MODEEXIT                              #  DO ALL THE WORK.
000062:
000063: 13,2007           42743                           CS       BITS3&4                               #  INHIBIT ICDUFAIL AND IMUFAIL (IN CASE WE
000064: 13,2010           70367                           MASK     IMODES30                              #  JUST CAME OUT OF COARSE ALIGN).
000065: 13,2011           62743                           AD       BITS3&4
000066: 13,2012           54367                           TS       IMODES30
000067:
000068: 13,2013           42744                           CS       BITS4&6                               #  SEND ZERO ENCODE WITH COARSE AND ERROR
000069: 13,2014           00006                           EXTEND                                         #  COUNTER DISABLED.
000070: 13,2015           03012                           WAND     12
000071:
000072: 13,2016           37653                           CAF      BIT5
000073: 13,2017           00006                           EXTEND
000074: 13,2020           05012                           WOR      12
000075:
000076: 13,2021           37652                           CAF      BIT6                                  #  WAIT 320 MS TO GIVE AGS ADEQUATE TIME TO
000077: 13,2022           04536                           TC       WAITLIST                              #  RECEIVE ITS PULSE TRAIN.
000078: 13,2023           02035 26003                     2CADR    IMUZERO2
000079:
000080: 13,2025           40367                           CS       IMODES30                              #  SEE IF IMU OPERATING AND ALARM IF NOT.
000081: 13,2026           77647                           MASK     BIT9
000082: 13,2027           10000                           CCS      A
000083: 13,2030           12033                           TCF      MODEEXIT
000084:
000085: 13,2031           05413                           TC       ALARM
000086: 13,2032           00210                           OCT      210
000087:
000088: 13,2033           00003        MODEEXIT           RELINT                                         #  GENERAL MODE-SWITCHING EXIT.
000089: 13,2034           14076                           TCF      SWRETURN
000090:


000092: 13,2035           02650        IMUZERO2           TC       CAGETSTQ                              #  POSSIBLY SWITCH TO TURN-ON PROGRAM.
000093: 13,2036           14602                           TCF      TASKOVER
000094:
000095: 13,2037           04755                           TC       ZEROICDU                              #  ZERO COUNTERS.
000096: 13,2040           47653                           CS       BIT5                                  #  REMOVE ZERO DISCRETE.
000097: 13,2041           00006                           EXTEND
000098: 13,2042           03012                           WAND     12
000099:
000100: 13,2043           34762                           CAF      3SECSM                                #  WAIT FOR COUNTERS TO SYNCRONIZE.
000101: 13,2044           04557                           TC       VARDELAY
000102:
000103: 13,2045           02650        IMUZERO3           TC       CAGETSTQ
000104: 13,2046           14602                           TCF      TASKOVER
000105:
000106: 13,2047           42743                           CS       BITS3&4                               #  REMOVE IMUFAIL AND ICDUFAIL INHIBIT.
000107: 13,2050           70367                           MASK     IMODES30
000108: 13,2051           54367                           TS       IMODES30
000109:
000110: 13,2052           04156                           TC       IBNKCALL                              #  SET ISS WARNING IF EITHER OF ABOVE ARE
000111: 13,2053           25344                           CADR     SETISSW                               #  PRESENT.
000112:
000113: 13,2054           12633                           TCF      ENDIMU
000114:


000116:                                                                                                  #  IMU COARSE ALIGN MODE.
000117:
000118: 13,2055           37654        IMUCOARS           CAF      BIT4                                  #  SEND COARSE ALIGN ENABLE DISCRETE
000119: 13,2056           00004                           INHINT
000120: 13,2057           00006                           EXTEND
000121: 13,2060           05012                           WOR      CHAN12
000122:
000123: 13,2061           47654                           CS       BIT4                                  #  INHIBIT IMU FAIL.
000124: 13,2062           70367                           MASK     IMODES30
000125: 13,2063           67654                           AD       BIT4
000126: 13,2064           54367                           TS       IMODES30
000127:
000128: 13,2065           36162                           CAF      SIX
000129: 13,2066           04536                           TC       WAITLIST
000130: 13,2067           02072 26003                     2CADR    COARS
000131:
000132: 13,2071           12033                           TCF      MODEEXIT
000133:
000134: 13,2072           02643        COARS              TC       CAGETEST
000135: 13,2073           37652                           CAF      BIT6                                  #  ENABLE ALL THREE ISS CDU ERROR COUNTERS
000136: 13,2074           00006                           EXTEND
000137: 13,2075           05012                           WOR      CHAN12
000138:
000139: 13,2076           37656                           CAF      TWO                                   #  SET CDU INDICATOR
000140: 13,2077           55454        COARS1             TS       CDUIND
000141:
000142: 13,2100           51454                           INDEX    CDUIND                                #  COMPUTE THETAD - THETAA IN 1:S
000143: 13,2101           30400                           CA       THETAD                                #    COMPLEMENT FORM
000144: 13,2102           00006                           EXTEND
000145: 13,2103           51454                           INDEX    CDUIND
000146: 13,2104           20032                           MSU      CDUX
000147: 13,2105           00006                           EXTEND
000148: 13,2106           77643                           MP       BIT13                                 #  SHIFT RIGHT 2
000149: 13,2107           56001                           XCH      L                                     #  ROUND
000150: 13,2110           60000                           DOUBLE
000151: 13,2111           54065                           TS       ITEMP1
000152: 13,2112           12114                           TCF      +2
000153: 13,2113           26001                           ADS      L
000154:
000155: 13,2114           51454                           INDEX    CDUIND                                #  DIFFERENCE TO BE COMPUTED
000156: 13,2115           23451                           LXCH     COMMAND
000157: 13,2116           11454                           CCS      CDUIND
000158: 13,2117           02077                           TC       COARS1
000159:
000160: 13,2120           37656                           CAF      TWO                                   #  MINIMUM OF 4 MS WAIT
000161: 13,2121           04557                           TC       VARDELAY
000162:


000164: 13,2122           02643        COARS2             TC       CAGETEST                              #  DONT CONTINUE IF CAGED.
000165: 13,2123           54065                           TS       ITEMP1                                #  SETS TO +0.
000166: 13,2124           37656                           CAF      TWO                                   #  SET CDU INDICATOR
000167: 13,2125           55454                 +3        TS       CDUIND
000168:
000169: 13,2126           51454                           INDEX    CDUIND
000170: 13,2127           11451                           CCS      COMMAND                               #  NUMBER OF PULSES REQUIRED
000171: 13,2130           02134                           TC       COMPOS                                #  GREATER THAN MAX ALLOWED
000172: 13,2131           02143                           TC       NEXTCDU    +1
000173: 13,2132           02206                           TC       COMNEG
000174: 13,2133           02143                           TC       NEXTCDU    +1
000175:
000176: 13,2134           62747        COMPOS             AD       -COMMAX                               #  COMMAX = MAX NUMBER OF PULSES ALLOWED
000177: 13,2135           00006                           EXTEND                                         #    MINUS ONE
000178: 13,2136           62216                           BZMF     COMZERO
000179: 13,2137           51454                           INDEX    CDUIND
000180: 13,2140           55451                           TS       COMMAND                               #  REDUCE COMMAND BY MAX NUMBER OF PULSES
000181: 13,2141           42750                           CS       -COMMAX-                              #    ALLOWED
000182:
000183: 13,2142           24065        NEXTCDU            INCR     ITEMP1
000184: 13,2143           51454                           INDEX    CDUIND
000185: 13,2144           54050                           TS       CDUXCMD                               #  SET UP COMMAND REGISTER.
000186:
000187: 13,2145           11454                           CCS      CDUIND
000188: 13,2146           02125                           TC       COARS2     +3
000189:
000190: 13,2147           10065                           CCS      ITEMP1                                #  SEE IF ANY PULSES TO GO OUT.
000191: 13,2150           12222                           TCF      SENDPULS
000192:
000193: 13,2151           04554                           TC       FIXDELAY                              #  WAIT FOR GIMBALS TO SETTLE.
000194: 13,2152           00226                           DEC      150        B-14
000195:


000197: 13,2153           37656                           CAF      TWO                                   #  AT END OF COMMAND, CHECK TO SEE THAT
000198: 13,2154           54065        CHKCORS            TS       ITEMP1                                #  GIMBALS ARE WITHIN 2 DEGREES OF THETAD.
000199: 13,2155           50000                           INDEX    A
000200: 13,2156           30032                           CA       CDUX
000201: 13,2157           00006                           EXTEND
000202: 13,2160           50065                           INDEX    ITEMP1
000203: 13,2161           20400                           MSU      THETAD
000204: 13,2162           10000                           CCS      A
000205: 13,2163           12177                           TCF      COARSERR
000206: 13,2164           12166                           TCF      CORSCHK2
000207: 13,2165           12177                           TCF      COARSERR
000208:
000209: 13,2166           10065        CORSCHK2           CCS      ITEMP1
000210: 13,2167           12154                           TCF      CHKCORS
000211: 13,2170           55451                           TS       GCOMP                                 #  ZERO GYRO COMPENSATION REGISTERS IN
000212: 13,2171           55452                           TS       GCOMP      +1                         #  PREPARATION FOR COMPENSATION.
000213: 13,2172           55453                           TS       GCOMP      +2
000214: 13,2173           55454                           TS       GCOMP      +3
000215: 13,2174           55455                           TS       GCOMP      +4
000216: 13,2175           55456                           TS       GCOMP      +5
000217:
000218: 13,2176           12633                           TCF      ENDIMU                                #  END OF COARSE ALIGNMENT.
000219:
000220: 13,2177           62205        COARSERR           AD       COARSTOL                              #  2 DEGREES.
000221: 13,2200           00006                           EXTEND
000222: 13,2201           62166                           BZMF     CORSCHK2
000223:
000224: 13,2202           05413                           TC       ALARM                                 #  COARSE ALIGN ERROR.
000225: 13,2203           00211                           OCT      211
000226:
000227: 13,2204           12641                           TCF      IMUBAD
000228:
000229: 13,2205           77511        COARSTOL           DEC      -.01111                               #  2 DEGREES SCALED AT HALF-REVOLUTIONS.
000230:


000232: 13,2206           62747        COMNEG             AD       -COMMAX
000233: 13,2207           00006                           EXTEND
000234: 13,2210           62216                           BZMF     COMZERO
000235: 13,2211           40000                           COM
000236: 13,2212           51454                           INDEX    CDUIND
000237: 13,2213           55451                           TS       COMMAND
000238: 13,2214           32750                           CA       -COMMAX-
000239: 13,2215           02142                           TC       NEXTCDU
000240:
000241: 13,2216           37665        COMZERO            CAF      ZERO
000242: 13,2217           51454                           INDEX    CDUIND
000243: 13,2220           57451                           XCH      COMMAND
000244: 13,2221           02142                           TC       NEXTCDU
000245:
000246: 13,2222           32746        SENDPULS           CAF      13,14,15
000247: 13,2223           00006                           EXTEND
000248: 13,2224           05014                           WOR      CHAN14
000249: 13,2225           32751                           CAF      600MS
000250: 13,2226           12121                           TCF      COARS2     -1                         #  AND THEN TO VARDELAY.
000251:


000253:                                                                                                  #  IMU FINE ALIGN MODE SWITCH.
000254:
000255: 13,2227           00004        IMUFINE            INHINT
000256: 13,2230           02655                           TC       CAGETSTJ                              #  SEE IF IMU BEING CAGED.
000257:
000258: 13,2231           42745                           CS       BITS4-6                               #  RESET ZERO, COARSE, AND ECTR ENABLE.
000259: 13,2232           00006                           EXTEND
000260: 13,2233           03012                           WAND     12
000261:
000262: 13,2234           37646                           CAF      BIT10                                 #  IMU FAIL WAS INHIBITED DURING THE
000263: 13,2235           04536                           TC       WAITLIST                              #  PRESUMABLY PRECEDING COARSE ALIGN.  LEAVE
000264: 13,2236           02247 26003                     2CADR    IFAILOK                               #  IT ON FOR THE FIRST 5 SECS OF FINE ALIGN
000265:
000266: 13,2240           32752                           CAF      90SEC                                 #  GYRO RE-CENTERING TIME.
000267: 13,2241           04536                           TC       WAITLIST
000268: 13,2242           02245 26003                     2CADR    IMUFINED
000269:
000270: 13,2244           12033                           TCF      MODEEXIT
000271:
000272: 13,2245           02643        IMUFINED           TC       CAGETEST                              #  SEE THAT NO ONE HAS CAGED THE IMU.
000273: 13,2246           12633                           TCF      ENDIMU
000274:
000275: 13,2247           02650        IFAILOK            TC       CAGETSTQ                              #  ENABLE IMU FAIL UNLESS IMU BEING CAGED.
000276: 13,2250           14602                           TCF      TASKOVER                              #  IT IS.
000277:
000278: 13,2251           37654                           CAF      BIT4                                  #  DONT RESET IMU FAIL INHIBIT IF SOMEONE
000279: 13,2252           00006                           EXTEND                                         #  HAS GONE INTO COARSE ALIGN.
000280: 13,2253           02012                           RAND     12
000281: 13,2254           10000                           CCS      A
000282: 13,2255           14602                           TCF      TASKOVER
000283:
000284: 13,2256           47654                           CS       BIT4
000285: 13,2257           70367        PFAILOK2           MASK     IMODES30
000286: 13,2260           54367                           TS       IMODES30
000287: 13,2261           14602                           TCF      TASKOVER
000288:
000289: 13,2262           02650        PFAILOK            TC       CAGETSTQ                              #  ENABLE PIP FAIL PROG ALARM.
000290: 13,2263           14602                           TCF      TASKOVER
000291:
000292: 13,2264           47653                           CS       BIT5
000293: 13,2265           12257                           TCF      PFAILOK2
000294:


000296:                                                                                                  #  ROUTINES TO INITIATE AND TERMINATE PROGRAM USE OF THE PIPAS. NO IMUSTALL REQUIRED IN EITHER CASE.
000297:
000298: 13,2266           02650        PIPUSE             TC       CAGETSTQ                              #  DONT ENABLE PIPA FAIL IF IMU BEING CAGED
000299: 13,2267           14076                           TCF      SWRETURN
000300:
000301: 13,2270           00004                           INHINT
000302: 13,2271           37665                           CAF      ZERO                                  #  ZERO COUNTERS.
000303: 13,2272           54037                           TS       PIPAX
000304: 13,2273           54040                           TS       PIPAY
000305: 13,2274           54041                           TS       PIPAZ
000306:
000307: 13,2275           47657                           CS       BIT1                                  #  IF PIPA FAILS FROM NOW ON (UNTIL
000308: 13,2276           70367                           MASK     IMODES30                              #  PIPFREE), LIGHT ISS WARNING.
000309: 13,2277           54367                           TS       IMODES30
000310:
000311: 13,2300           04156        PIPFREE2           TC       IBNKCALL                              #  ISS WARNING MIGHT COME ON NOW.
000312: 13,2301           25344                           CADR     SETISSW                               #  (OR GO OFF ON PIPFREE).
000313:
000314: 13,2302           12033                           TCF      MODEEXIT
000315:
000316: 13,2303           00004        PIPFREE            INHINT                                         #  PROGRAM DONE WITH PIPAS. DONT LIGHT
000317: 13,2304           47657                           CS       BIT1                                  #  ISS WARNING.
000318: 13,2305           70367                           MASK     IMODES30
000319: 13,2306           67657                           AD       BIT1
000320: 13,2307           54367                           TS       IMODES30
000321:
000322: 13,2310           77646                           MASK     BIT10                                 #  IF PIP FAIL ON, DO PROG ALSRM AND RESET
000323: 13,2311           10000                           CCS      A                                     #  ISS WARNING.
000324: 13,2312           12033                           TCF      MODEEXIT
000325:
000326: 13,2313           05413                           TC       ALARM
000327: 13,2314           00212                           OCT      212
000328:
000329: 13,2315           00004                           INHINT
000330:
000331: 13,2316           12300                           TCF      PIPFREE2
000332:


000334:                                                                                                  #           THE FOLLOWING ROUTINE TORQUES THE IRIGS ACCORDING TO DOUBLE PRECISION INPUTS IN THE SIX REGISTERS
000335:                                                                                                  #  BEGINNING AT THE ECADR ARRIVING IN A. THE MINIMUM SIZE OF ANY PULSE TRAIN IS 16 PULSES (.25 CDU COUNTS). THE
000336:                                                                                                  #  UNSENT PORTION OF THE COMMAND IS LEFT INTACT IN THE INPUT COMMAND REGISTERS.
000337:
000338: 13,2317  E3,1400                                  EBANK=   1400                                  #  VARIABLE, ACTUALLY.
000339:
000340: 13,2317           54145        IMUPULSE           TS       MPAC       +5                         #  SAVE ARRIVING ECADR.
000341: 13,2320           02655                           TC       CAGETSTJ                              #  DONT PROCEED IF IMU BEING CAGED.
000342:
000343: 13,2321           10357                           CCS      LGYRO                                 #  SEE IF GYROS BUSY.
000344: 13,2322           02364                           TC       GYROBUSY                              #  SLEEP.
000345:
000346: 13,2323           54142                           TS       MPAC       +2
000347: 13,2324           37652                           CAF      BIT6                                  #  ENABLE THE POWER SUPPLY.
000348: 13,2325           00006                           EXTEND
000349: 13,2326           05014                           WOR      14
000350:
000351: 13,2327           37655                           CAF      FOUR
000352: 13,2330           00004        GWAKE2             INHINT                                         #  (IF A JOB WAS PUT TO SLEEP, THE POWER
000353: 13,2331           04536                           TC       WAITLIST                              #  SUPPLY IS LEFT ON BY THE WAKING JOB).
000354: 13,2332           02402 26003                     2CADR    STRTGYRO
000355:
000356: 13,2334           30145                           CA       MPAC       +5                         #  SET UP EBANK, SAVING CALLER'S EBANK FOR
000357: 13,2335           56003                           XCH      EBANK                                 #  RESTORATION ON RETURN.
000358: 13,2336           56145                           XCH      MPAC       +5
000359: 13,2337           54357                           TS       LGYRO                                 #  RESERVES GYROS.
000360: 13,2340           75235                           MASK     LOW8
000361: 13,2341           54065                           TS       ITEMP1
000362:
000363: 13,2342           37656                           CAF      TWO                                   #  FORCE SIGN AGREEMENT ON INPUTS.
000364: 13,2343           54143        GYROAGRE           TS       MPAC       +3
000365: 13,2344           60000                           DOUBLE
000366: 13,2345           60065                           AD       ITEMP1
000367: 13,2346           54144                           TS       MPAC       +4
000368: 13,2347           00006                           EXTEND
000369: 13,2350           50000                           INDEX    A
000370: 13,2351           31401                           DCA      1400
000371: 13,2352           52141                           DXCH     MPAC
000372: 13,2353           07235                           TC       TPAGREE
000373: 13,2354           52141                           DXCH     MPAC
000374: 13,2355           50144                           INDEX    MPAC       +4
000375: 13,2356           53401                           DXCH     1400
000376:
000377: 13,2357           10143                           CCS      MPAC       +3
000378: 13,2360           12343                           TCF      GYROAGRE
000379:
000380: 13,2361           30145                           CA       MPAC       +5                         #  RESTORE CALLER'S EBANK.
000381: 13,2362           54003                           TS       EBANK
000382: 13,2363           12033                           TCF      MODEEXIT
000383:


000385:                                                                                                  #  ROUTINES TO ALLOW TORQUING BY ONLY ONE JOB AT A TIME.
000386:
000387: 13,2364           00006        GYROBUSY           EXTEND                                         #  SAVE RETURN 2FCADR.
000388: 13,2365           30120                           DCA      BUF2
000389: 13,2366           52141                           DXCH     MPAC
000390: 13,2367           32401        REGSLEEP           CAF      LGWAKE
000391: 13,2370           14416                           TCF      JOBSLEEP
000392:
000393: 13,2371           10357        GWAKE              CCS      LGYRO                                 #  WHEN AWAKENED, SEE IF GYROS STILL BUSY.
000394: 13,2372           12367                           TCF      REGSLEEP                              #  IF SO, SLEEP SOME MORE.
000395:
000396: 13,2373           54142                           TS       MPAC       +2
000397: 13,2374           00006                           EXTEND
000398: 13,2375           30141                           DCA      MPAC
000399: 13,2376           52120                           DXCH     BUF2                                  #  RESTORE SWRETURN INFO.
000400: 13,2377           37657                           CAF      ONE
000401: 13,2400           12330                           TCF      GWAKE2
000402:
000403: 13,2401           26371        LGWAKE             CADR     GWAKE
000404:


000406:                                                                                                  #  GYRO-TORQUING WAITLIST TASKS.
000407:
000408: 13,2402           42630        STRTGYRO           CS       GDESELCT                              #  DE-SELECT LAST GYRO.
000409: 13,2403           00006                           EXTEND
000410: 13,2404           03014                           WAND     14
000411:
000412: 13,2405           02643                           TC       CAGETEST
000413:
000414: 13,2406           30357        STRTGYR2           CA       LGYRO                                 #  JUMP ON PHASE COUNTER IN BITS 13-14.
000415: 13,2407           00006                           EXTEND
000416: 13,2410           77654                           MP       BIT4
000417: 13,2411           50000                           INDEX    A
000418: 13,2412           12413                           TCF      +1
000419: 13,2413           02442                           TC       GSELECT                               #  =0. DO Y GYRO.
000420: 13,2414           00202                           OCT      00202
000421:
000422: 13,2415           02442                           TC       GSELECT                               #  =1. DO Z GYRO.
000423: 13,2416           00302                           OCT      00302
000424:
000425: 13,2417           02440                           TC       GSELECT    -2                         #  =2. DO X GYRO.
000426: 13,2420           00100                           OCT      00100
000427:
000428: 13,2421           37665                           CAF      ZERO                                  #  =3. DONE
000429: 13,2422           54357                           TS       LGYRO
000430: 13,2423           32401                           CAF      LGWAKE                                #  WAKE A POSSIBLE SLEEPING JOB.
000431: 13,2424           04422                           TC       JOBWAKE
000432:
000433: 13,2425           37656                           CAF      BIT2                                  #  DONT RESET POWER SUPPLY IF BIT SET
000434: 13,2426           70370                           MASK     IMODES33                              #  (ONLY DURING GYRO TORQUE SCALE FACTOR
000435: 13,2427           10000                           CCS      A                                     #  TEST).
000436: 13,2430           12437                           TCF      NORESET
000437:
000438: 13,2431           10071                           CCS      LOCCTR                                #  IF A JOB WAS AWAKENED, DONT RESET GYRO
000439: 13,2432           12437                           TCF      NORESET                               #  ENABLE.
000440:
000441: 13,2433           12437                           TCF      NORESET
000442:
000443: 13,2434           47652                           CS       BIT6                                  #  IF NO JOB AWAKENED, RESET GYRO ENABLE.
000444: 13,2435           00006                           EXTEND
000445: 13,2436           03014                           WAND     14
000446:
000447: 13,2437           12245        NORESET            TCF      IMUFINED
000448:


000450: 13,2440           47655                 -2        CS       FOUR                                  #  SPECIAL ENTRY TO REGRESS LGYRO FOR X.
000451: 13,2441           26357                           ADS      LGYRO
000452:
000453: 13,2442           50002        GSELECT            INDEX    Q                                     #  SELECT GYRO.
000454: 13,2443           30000                           CAF      0                                     #  PACKED WORD CONTAINS GYRO SELECT BITS
000455: 13,2444           54071                           TS       ITEMP4                                #  AND INCREMENT TO LGYRO.
000456: 13,2445           77663                           MASK     SEVEN
000457: 13,2446           67643                           AD       BIT13
000458: 13,2447           26357                           ADS      LGYRO
000459: 13,2450           54003                           TS       EBANK
000460: 13,2451           75235                           MASK     LOW8
000461: 13,2452           54065                           TS       ITEMP1
000462:
000463: 13,2453           47663                           CS       SEVEN
000464: 13,2454           70071                           MASK     ITEMP4
000465: 13,2455           54071                           TS       ITEMP4
000466:
000467: 13,2456           00006                           EXTEND                                         #  MOVE DP COMMAND TO RUPTREGS FOR TESTING.
000468: 13,2457           50065                           INDEX    ITEMP1
000469: 13,2460           31401                           DCA      1400
000470: 13,2461           52075                           DXCH     RUPTREG1
000471:
000472: 13,2462           10074                           CCS      RUPTREG1
000473: 13,2463           12476                           TCF      MAJ+
000474: 13,2464           12466                           TCF      +2
000475: 13,2465           12611                           TCF      MAJ-
000476:
000477: 13,2466           10075                           CCS      RUPTREG2
000478: 13,2467           12473                           TCF      MIN+
000479: 13,2470           12406                           TCF      STRTGYR2
000480: 13,2471           12606                           TCF      MIN-
000481: 13,2472           12406                           TCF      STRTGYR2
000482:


000484: 13,2473           62527        MIN+               AD       -GYROMIN                              #  SMALL POSITIVE COMMAND. SEE IF AT LEAST
000485: 13,2474           00006                           EXTEND                                         #  16 GYRO PULSES.
000486: 13,2475           62406                           BZMF     STRTGYR2
000487:
000488: 13,2476           00006        MAJ+               EXTEND                                         #  DEFINITE POSITIVE OUTPUT.
000489: 13,2477           32632                           DCA      GYROFRAC
000490: 13,2500           20075                           DAS      RUPTREG1
000491:
000492: 13,2501           30071                           CA       ITEMP4                                #  SELECT POSITIVE TORQUING FOR THIS GYRO.
000493: 13,2502           00006                           EXTEND
000494: 13,2503           05014                           WOR      14
000495:
000496: 13,2504           36027                           CAF      LOW7                                  #  LEAVE NUMBER OF POSSIBLE 8192 AUGMENTS
000497: 13,2505           70075                           MASK     RUPTREG2                              #  TO INITIAL COMMAND IN MAJOR PART OF LONG
000498: 13,2506           56075                           XCH      RUPTREG2                              #  TERM STORAGE AND TRUNCATED FRACTION
000499: 13,2507           00006        GMERGE             EXTEND                                         #  IN MINOR PART. THE MAJOR PART WILL BE
000500: 13,2510           77650                           MP       BIT8                                  #  COUNTED DOWN TO ZERO IN THE COURSE OF
000501: 13,2511           54066                           TS       ITEMP2                                #  PUTTING OUT THE ENTIRE COMMAND.
000502: 13,2512           30074                           CA       RUPTREG1
000503: 13,2513           00006                           EXTEND
000504: 13,2514           77647                           MP       BIT9
000505: 13,2515           54074                           TS       RUPTREG1
000506: 13,2516           30001                           CA       L
000507: 13,2517           00006                           EXTEND
000508: 13,2520           77642                           MP       BIT14
000509: 13,2521           26066                           ADS      ITEMP2                                #  INITIAL COMMAND.
000510:
000511: 13,2522           00006                           EXTEND                                         #  SEE IF MORE THAN ONE PULSE TRAIN NEEDED
000512: 13,2523           30075                           DCA      RUPTREG1                              #  (MORE THAN 16383 PULSES).
000513: 13,2524           67667                           AD       MINUS1
000514: 13,2525           10000                           CCS      A
000515: 13,2526           12552                           TCF      LONGGYRO
000516: 13,2527           77600        -GYROMIN           OCT      -177                                  #  MAY BE ADJUSTED TO SPECIFY MINIMUM CMD.
000517:
000518: 13,2530           12534                           TCF      +4
000519:
000520: 13,2531           37642                           CAF      BIT14
000521: 13,2532           26066                           ADS      ITEMP2
000522: 13,2533           37665                           CAF      ZERO
000523:
000524: 13,2534           50065                 +4        INDEX    ITEMP1
000525: 13,2535           53401                           DXCH     1400


000527: 13,2536           30066                           CA       ITEMP2                                #  ENTIRE COMMAND.
000528: 13,2537           54047        LASTSEG            TS       GYROCMD
000529: 13,2540           00006                           EXTEND
000530: 13,2541           77646                           MP       BIT10                                 #  WAITLIST DT
000531: 13,2542           66165                           AD       THREE                                 #  TRUNCATION AND PHASE UNCERTAINTIES.
000532: 13,2543           04536                           TC       WAITLIST
000533: 13,2544           02402 26003                     2CADR    STRTGYRO
000534:
000535: 13,2546           37646        GYROEXIT           CAF      BIT10                                 #  TURN ON GYRO ACTIVITY TO START TRAIN.
000536: 13,2547           00006                           EXTEND
000537: 13,2550           05014                           WOR      14
000538: 13,2551           14602                           TCF      TASKOVER
000539:
000540: 13,2552           50065        LONGGYRO           INDEX    ITEMP1
000541: 13,2553           53401                           DXCH     1400                                  #  INITIAL COMMAND OUT PLUS N AUGMENTS OF
000542: 13,2554           37642                           CAF      BIT14                                 #  8192. INITIAL COMMAND IS AT LEAST 8192.
000543: 13,2555           60066                           AD       ITEMP2
000544: 13,2556           54047                           TS       GYROCMD
000545:
000546: 13,2557           00006        AUG3               EXTEND                                         #  GET WAITLIST DT TO TIME WHEN TRAIN IS
000547: 13,2560           77646                           MP       BIT10                                 #  ALMOST OUT.
000548: 13,2561           67671                           AD       NEG3
000549: 13,2562           04536                           TC       WAITLIST
000550: 13,2563           02566 26003                     2CADR    8192AUG
000551:
000552: 13,2565           12546                           TCF      GYROEXIT
000553:
000554: 13,2566           02643        8192AUG            TC       CAGETEST
000555:
000556: 13,2567           30357                           CA       LGYRO                                 #  ADD 8192 PULSES TO GYROCMD
000557: 13,2570           54003                           TS       EBANK
000558: 13,2571           75235                           MASK     LOW8
000559: 13,2572           54065                           TS       ITEMP1
000560:
000561: 13,2573           50065                           INDEX    ITEMP1                                #  SEE IF THIS IS THE LAST AUG.
000562: 13,2574           11400                           CCS      1400
000563: 13,2575           12601                           TCF      AUG2                                  #  MORE TO COME.
000564:
000565: 13,2576           37642                           CAF      BIT14
000566: 13,2577           26047                           ADS      GYROCMD
000567: 13,2600           12540                           TCF      LASTSEG    +1
000568:
000569: 13,2601           50065        AUG2               INDEX    ITEMP1
000570: 13,2602           55400                           TS       1400
000571: 13,2603           37642                           CAF      BIT14
000572: 13,2604           26047                           ADS      GYROCMD
000573: 13,2605           12557                           TCF      AUG3                                  #  COMPUTE DT.
000574:


000576: 13,2606           62527        MIN-               AD       -GYROMIN                              #  POSSIBLE NEGATIVE OUTPUT.
000577: 13,2607           00006                           EXTEND
000578: 13,2610           62406                           BZMF     STRTGYR2
000579:
000580: 13,2611           00006        MAJ-               EXTEND                                         #  DEFINITE NEGATIVE OUTPUT.
000581: 13,2612           42632                           DCS      GYROFRAC
000582: 13,2613           20075                           DAS      RUPTREG1
000583:
000584: 13,2614           30071                           CA       ITEMP4                                #  SELECT NEGATIVE TORQUING FOR THIS GYRO.
000585: 13,2615           67647                           AD       BIT9
000586: 13,2616           00006                           EXTEND
000587: 13,2617           05014                           WOR      14
000588:
000589: 13,2620           40074                           CS       RUPTREG1                              #  SET UP RUPTREGS TO FALL INTO GMERGE.
000590: 13,2621           54074                           TS       RUPTREG1                              #  ALL NUMBERS PUT INTO GYROCMD ARE
000591: 13,2622           40075                           CS       RUPTREG2                              #  POSITIVE - BIT9 OF CHAN 14 DETERMINES
000592: 13,2623           76027                           MASK     LOW7                                  #  THE SIGN OF THE COMMAND.
000593: 13,2624           40000                           COM
000594: 13,2625           56075                           XCH      RUPTREG2
000595: 13,2626           40000                           COM
000596: 13,2627           12507                           TCF      GMERGE
000597:
000598: 13,2630           01700        GDESELCT           OCT      1700                                  #  TURN OFF SELECT AND ACTIVITY BITS.
000599:
000600: 13,2631           00000 00034  GYROFRAC           2DEC     .215       B-21
000601:


000603:                                                                                                  #  IMU MODE SWITCHING ROUTINES COME HERE WHEN ACTION COMPLETE.
000604:
000605: 13,2633           00006        ENDIMU             EXTEND                                         #  MODE IS BAD IF CAGE HAS OCCURED OR IF
000606: 13,2634           00011                           READ     11                                    #  ISS WARNING IS ON.
000607: 13,2635           77657                           MASK     BIT1
000608: 13,2636           10000                           CCS      A
000609: 13,2637           12641                           TCF      IMUBAD
000610:
000611: 13,2640           12667        IMUGOOD            TCF      GOODEND                               #  WITH C(A) = 0.
000612:
000613: 13,2641           37665        IMUBAD             CAF      ZERO
000614: 13,2642           12664                           TCF      BADEND
000615:
000616: 13,2643           37652        CAGETEST           CAF      BIT6                                  #  SUBROUTINE TO TERMINATE IMU MODE
000617: 13,2644           70367                           MASK     IMODES30                              #  SWITCH IF IMU HAS BEEN CAGED.
000618: 13,2645           10000                           CCS      A
000619: 13,2646           12641                           TCF      IMUBAD                                #  DIRECTLY.
000620: 13,2647           00002                           TC       Q                                     #  WITH C(A) = +0.
000621:
000622: 13,2650           40367        CAGETSTQ           CS       IMODES30                              #  SKIP IF IMU NOT BEING CAGED.
000623: 13,2651           77652                           MASK     BIT6
000624: 13,2652           10000                           CCS      A
000625: 13,2653           24002                           INCR     Q
000626: 13,2654           00002                           TC       Q
000627:
000628: 13,2655           40367        CAGETSTJ           CS       IMODES30                              #  IF DURING MODE SWITCH INITIALIZATION
000629: 13,2656           77652                           MASK     BIT6                                  #  IT IS FOUND THAT THE IMU IS BEING CAGED,
000630: 13,2657           10000                           CCS      A                                     #  SET IMUCADR TO -0 TO INDICATE OPERATION
000631: 13,2660           00002                           TC       Q                                     #  COMPLETE BUT FAILED. RETURN IMMEDIATELY
000632:
000633: 13,2661           47665                           CS       ZERO                                  #  TO SWRETURN.
000634: 13,2662           54371                           TS       IMUCADR
000635: 13,2663           12033                           TCF      MODEEXIT
000636:


000638:                                                                                                  #           GENERALIZED MODE SWITCHING TERMINATION. ENTER AT GOODEND FOR SUCCESSFUL COMPLETION OF AN I/O OPERATION
000639:                                                                                                  #  OR AT BADEND FOR A N UNSUCCESSFUL ONE. C(A) OR ARRIVAL =0 FOR IMU, 1 FOR AOT, AND 2 FOR RADARS.
000640:
000641: 13,2664           54075        BADEND             TS       RUPTREG2                              #  DEVICE INDEX.
000642: 13,2665           47665                           CS       ZERO                                  #  FOR FAILURE.
000643: 13,2666           12671                           TCF      GOODEND    +2
000644:
000645: 13,2667           54075        GOODEND            TS       RUPTREG2
000646: 13,2670           47657                           CS       ONE                                   #  FOR SUCCESS.
000647:
000648: 13,2671           54076                           TS       RUPTREG3
000649: 13,2672           50075                           INDEX    RUPTREG2                              #  SEE IF USING PROGRAM ASLEEP.
000650: 13,2673           10371                           CCS      MODECADR
000651: 13,2674           12676                           TCF      +2                                    #  YES - WAKE IT UP.
000652: 13,2675           12706                           TCF      ENDMODE                               #  IF 0, PROGRAM NOT IN YET.
000653:
000654: 13,2676           37665                           CAF      ZERO                                  #  WAKE SLEEPING PROGRAM.
000655: 13,2677           50075                           INDEX    RUPTREG2
000656: 13,2700           56371                           XCH      MODECADR
000657: 13,2701           04422                           TC       JOBWAKE
000658:
000659: 13,2702           40076                           CS       RUPTREG3                              #  ADVANCE LOC IF SUCCESSFUL.
000660: 13,2703           50071                           INDEX    LOCCTR
000661: 13,2704           26150                           ADS      LOC
000662:
000663: 13,2705           14602                           TCF      TASKOVER
000664:
000665: 13,2706           30076        ENDMODE            CA       RUPTREG3                              #  -0 INDICATES OPERATION COMPLETE BUT
000666: 13,2707           50075                           INDEX    RUPTREG2                              #  UNSUCCESSFUL - -1 INDICATES COMPLETE AND
000667: 13,2710           54371                           TS       MODECADR                              #  SUCCESSFUL.
000668: 13,2711           14602                           TCF      TASKOVER
000669:


000671:                                                                                                  #  GENERAL STALLING ROUTINE. USING PROGRAMS COME HERE TO WAIT FOR I/O COMPLETION.
000672:
000673: 13,2712           37656        RADSTALL           CAF      TWO                                   #  RR AND LR STALL.
000674: 13,2713           12717                           TCF      STALL
000675:
000676: 13,2714           37657        AOTSTALL           CAF      ONE                                   #  AOT.
000677: 13,2715           02717                           TC       STALL
000678:
000679: 13,2716  13,2714               OPTSTALL           EQUALS   AOTSTALL
000680:
000681: 13,2716  13,2712               LOTSTALL           EQUALS   RADSTALL
000682: 13,2716           37665        IMUSTALL           CAF      ZERO                                  #  IMU.
000683:
000684: 13,2717           00004        STALL              INHINT
000685: 13,2720           54075                           TS       RUPTREG2                              #  SAVE DEVICE INDEX.
000686: 13,2721           50000                           INDEX    A                                     #  SEE IF OPERATION COMPLETE.
000687: 13,2722           10371                           CCS      MODECADR
000688: 13,2723           12741                           TCF      MODABORT                              #  ALLOWABLE STATES ARE +0, -1, AND -0.
000689: 13,2724           12735                           TCF      MODESLP                               #  OPERATION INCOMPLETE.
000690: 13,2725           12731                           TCF      MODEGOOD                              #  COMPLETE AND GOOD IF = -1.
000691:
000692: 13,2726           50075        MG2                INDEX    RUPTREG2                              #  COMPLETE AND FAILED IF -0. RESET TO +0.
000693: 13,2727           54371                           TS       MODECADR                              #  RETURN TO CALLER.
000694: 13,2730           12033                           TCF      MODEEXIT
000695:
000696: 13,2731           10000        MODEGOOD           CCS      A                                     #  MAKE SURE INITIAL STATE -1.
000697: 13,2732           12741                           TCF      MODABORT
000698:
000699: 13,2733           24117                           INCR     BUF2                                  #  IF SO, INCREMENT RETURN ADDRESS AND
000700: 13,2734           12726                           TCF      MG2                                   #  RETURN IMMEDIATELY, SETTING CADR = +0.
000701:
000702: 13,2735           04112        MODESLP            TC       MAKECADR                              #  CALL FROM SWITCHABLE FIXED ONLY.
000703: 13,2736           50075                           INDEX    RUPTREG2
000704: 13,2737           54371                           TS       MODECADR
000705: 13,2740           14416                           TCF      JOBSLEEP
000706:
000707: 13,2741           05446        MODABORT           TC       ABORT                                 #  TWO PROGRAMS USING SAME DEVICE.
000708: 13,2742           01210                           OCT      1210
000709:


000711:                                                                                                  #  CONSTANTS FOR MODE SWITCHING ROUTINES
000712:
000713: 13,2743           00014        BITS3&4            OCT      14
000714: 13,2744           00050        BITS4&6            OCT      00050
000715: 13,2745           00070        BITS4-6            OCT      00070
000716: 13,2746     7650               IMUSEFLG           EQUALS   BIT8                                  #  INTERPRETER SWITCH 7.
000717: 13,2746           70000        13,14,15           OCT      70000
000718:
000719: 13,2747           77500        -COMMAX            DEC      -191       B-14
000720: 13,2750           77477        -COMMAX-           DEC      -192       B-14
000721: 13,2751           00074        600MS              DEC      60         B-14
000722: 13,2752     4762               3SECSM             EQUALS   3SECS
000723: 13,2752           21450        90SEC              DEC      9000       B-14
000724:
000725: 13,2753                        ENDIMODS           EQUALS

End of include-file IMU_MODE_SWITCHING_ROUTINES.agc.  Parent file is MAIN.agc


