
Source Code


000002:                                                                                                  ## Copyright:    Public domain.
000003:                                                                                                  ## Filename:     IMU_PERFORMANCE_TESTS_1.agc
000004:                                                                                                  ## Purpose:      Part of the source code for Aurora (revision 12).
000005:                                                                                                  ## Assembler:    yaYUL
000006:                                                                                                  ## Contact:      Hartmuth Gutsche <hgutsche@xplornet.com>.
000007:                                                                                                  ## Website:      https://www.ibiblio.org/apollo.
000008:                                                                                                  ## Pages:        444-474
000009:                                                                                                  ## Mod history:  2016-09-20 JL   Created.
000010:                                                                                                  ##               2016-09-25 HG   Start transfer from scan
000011:                                                                                                  ##               2016-10-08 HG   Fix INPRET->INTPRET
000012:                                                                                                  ##               2016-10-11 HG   Fix PIPZ -> PIPAZ
000013:                                                                                                  ##                                   DSTEMP1 -> DSPTEM1
000014:                                                                                                  ##                                   DSTEM1  -> DSPTEM1
000015:                                                                                                  ##               2016-10-18 HG   Fix operand TAZEL -> TAZEL1
000016:
000017:                                                                                                  ## This source code has been transcribed or otherwise adapted from
000018:                                                                                                  ## digitized images of a hardcopy from the private collection of
000019:                                                                                                  ## Don Eyles.  The digitization was performed by archive.org.
000020:
000021:                                                                                                  ## Notations on the hardcopy document read, in part:
000022:
000023:                                                                                                  ##       473423A YUL SYSTEM FOR BLK2: REVISION 12 of PROGRAM AURORA BY DAP GROUP
000024:                                                                                                  ##       NOV 10, 1966
000025:
000026:                                                                                                  ##       [Note that this is the date the hardcopy was made, not the
000027:                                                                                                  ##       date of the program revision or the assembly.]
000028:
000029:                                                                                                  ## The scan images (with suitable reduction in storage size and consequent
000030:                                                                                                  ## reduction in image quality) are available online at
000031:                                                                                                  ##       https://www.ibiblio.org/apollo.
000032:                                                                                                  ## The original high-quality digital images are available at archive.org:
000033:                                                                                                  ##       https://archive.org/details/aurora00dapg
000034:


000036: 14,2000                                           BANK     14
000037: 14,2000  E5,1400                                  EBANK=   XSM
000038:
000039:
000040:
000041: 14,2000           37657        AOTNBIMU           CAF      ONE                                   #  AOT-NB-IMU FINE ALIGNMENT TEST
000042: 14,2001           55512                           TS       EROPTN                                #  ... TEST CAPABILITY ...
000043:
000044: 14,2002           04063                           TC       BANKCALL
000045: 14,2003           26000                           CADR     IMUZERO                               #  IMU ZERO ENCODER MODE
000046: 14,2004           06000                           TC       INTPRET
000047: 14,2005           77634                           CALL
000048: 14,2006           30530                                    LATAZCHK                              #  TO LOAD AZIMUTH (SM) AND LATITUDE
000049: 14,2007           77634                           CALL
000050: 14,2010           30325                                    MAKEXSMD                              #  TO SET UP A STABLE MEMBER DESIRED MATRIX
000051: 14,2011           47014                           SET      CALL
000052: 14,2012           00065                                    COAROFIN                              #  FOR COARSE OR FINE ALIGN MARKS
000053: 14,2013           30405                                    ERTHRVSE                              #  TO CALCULATE EARTH RATE VECTOR
000054: 14,2014           77776                           EXIT
000055:
000056: 14,2015           33655        POSLOAD            CAF      V24N30E                               #  R1  000X ENTER     POSITION 1,2, OR 3
000057: 14,2016           05332                           TC       NVSBWAIT                              #  R2  0000 ENTER     00001 FOR LAB OPTION
000058: 14,2017           05140                           TC       ENDIDLE
000059: 14,2020           12745                           TCF      ENDTEST
000060: 14,2021           12015                           TCF      -4
000061: 14,2022           56333                           XCH      DSPTEM1                               #  DO NOT USE POSITION 3 WITH NAV BASE AT
000062: 14,2023           55544                           TS       POSITON                               #     ZERO DEGREE TILT ANGLE. (GIMBAL LOCK)
000063:
000064: 14,2024           10334                           CCS      DSPTEM1    +1
000065: 14,2025           12760                           TCF      LEMLAB                                #  SPECIAL LAB TEST TO BYPASS MARKS
000066:
000067: 14,2026           02576                           TC       POSNJUMP                              #  SET UP STABLE MEMBER DESIRED COORDINATES
000068:
000069: 14,2027           02501                           TC       OPTDATA                               #  TARGETS 1,2 AZIMUTH AND ELEVATION
000070:
000071: 14,2030           02135                           TC       FINDNAVB                              #  COARSE ALIGN MARKS
000072:
000073: 14,2031           04063                           TC       BANKCALL
000074: 14,2032           26716                           CADR     IMUSTALL                              #  INSURE IMUZERO COMPLETION
000075: 14,2033           12745                           TCF      ENDTEST
000076:
000077: 14,2034           02247                           TC       PUTPOSX                               #  TO COARSE ALIGN STABLE MEMBER
000078:
000079: 14,2035           02737                           TC       GMLCKCHK                              #  CHECK FOR GIMABL LOCK BEFORE FINE ALIGN
000080: 14,2036           02727                           TC       OGCZERO                               #  FOR EARTH RATE COMPENSATION
000081:
000082: 14,2037           04063                           TC       BANKCALL
000083: 14,2040           26227                           CADR     IMUFINE                               #  FINE ALIGN MODE
000084: 14,2041           04063                           TC       BANKCALL
000085: 14,2042           26716                           CADR     IMUSTALL
000086: 14,2043           12745                           TCF      ENDTEST
000087:


000089: 14,2044           02135                           TC       FINDNAVB                              #  FINE ALIGN MARKS
000090:
000091: 14,2045           05401                           TC       FREEDSP                               #  FREE DISPLAY SYSTEM
000092:
000093: 14,2046           02263                           TC       SMDCALC                               #  TO FINE ALIGN STABLE MEMBER
000094:
000095: 14,2047           04063        ERFINAL            TC       BANKCALL                              #  LAST EARTH RATE SHOT
000096: 14,2050           30422                           CADR     EARTHR
000097: 14,2051           11512                           CCS      EROPTN                                #  IF DESIRED TO COMPENSATE CONTINUALLY
000098: 14,2052           12065                           TCF      MONSTART                              #      CHANGE BY V21 N02 E XXXXX E 00000 E
000099: 14,2053           12047                           TCF      ERFINAL
000100: 14,2054           12745                           TCF      ENDTEST
000101: 14,2055           55512                           TS       EROPTN
000102: 14,2056           00004                           INHINT
000103: 14,2057           34517                           CAF      PRIO21                                #  PRIORITY 1 HIGHER THAN SXTNBIMU
000104: 14,2060           04374                           TC       FINDVAC
000105: 14,2061           03062 30005                     2CADR    RDR37511
000106: 14,2063           00003                           RELINT
000107: 14,2064           02047                           TC       ERFINAL
000108:
000109: 14,2065           05470        MONSTART           TC       FINETIME                              #  TIME AT INITIAL MISALIGNMENT
000110: 14,2066           52141                           DXCH     MPAC
000111: 14,2067           00003                           RELINT
000112: 14,2070           37665                           CAF      ZERO                                  #  ZERO PIPA COUNTERS
000113: 14,2071           54037                           TS       PIPAX
000114: 14,2072           54040                           TS       PIPAY
000115: 14,2073           54041                           TS       PIPAZ
000116: 14,2074           55551                           TS       STOREPL
000117: 14,2075           55537                           TS       NDXCTR
000118: 14,2076           02454                           TC       STORRSLT                              #  STORE T(INITIAL) AND PIPAI = 0
000119:
000120: 14,2077           00004                           INHINT
000121: 14,2100           33666                           CAF      60SEC                                 #  INSURE PIPAI VARIES IN ONE DIRECTION
000122: 14,2101           04536                           TC       WAITLIST
000123: 14,2102           02106 30005                     2CADR    PIP1
000124:
000125: 14,2104           32134                           CAF      PIP2ADR
000126: 14,2105           04416                           TC       JOBSLEEP
000127:
000128: 14,2106           32134        PIP1               CAF      PIP2ADR
000129: 14,2107           04422                           TC       JOBWAKE
000130: 14,2110           04602                           TC       TASKOVER
000131:
000132: 14,2111           31542        PIP2               CAE      PIPNDX
000133: 14,2112           55541                           TS       PIPINDEX                              #  POS1 PIPAY     POS2 PIPAX     POS3 PIPAX
000134: 14,2113           04063                           TC       BANKCALL
000135: 14,2114           36771                           CADR     CHECKG                                #  SYNC ON PIPA PULSE
000136:
000137: 14,2115           00003                           RELINT
000138:


000140: 14,2116           02454                           TC       STORRSLT                              #  STORE TIME ANP PIPAI
000141:
000142: 14,2117           31543                           CAE      PIPNDX     +1
000143: 14,2120           55541                           TS       PIPINDEX                              #  POS1 PIPAZ    POS2 PIPAY    POS3 PIPAZ
000144: 14,2121           04063                           TC       BANKCALL
000145: 14,2122           36771                           CADR     CHECKG                                #  SYNC PIPA PULSE
000146:
000147: 14,2123           00003                           RELINT
000148: 14,2124           02454                           TC       STORRSLT                              #  STORE TIME AND PIPAI
000149:
000150: 14,2125           00004                           INHINT
000151: 14,2126           33665                           CAF      30SEC                                 #  MONITOR PIPAS AT 30 SECOND INTERVALS
000152: 14,2127           04536                           TC       WAITLIST
000153: 14,2130           02106 30005                     2CADR    PIP1
000154: 14,2132           32134                           CAF      PIP2ADR
000155: 14,2133           04416                           TC       JOBSLEEP
000156: 14,2134           30111        PIP2ADR            CADR     PIP2
000157:


000159: 14,2135           00006        FINDNAVB           EXTEND                                         #  MARKS * CLAC NB OR SM WRT EARTH REF
000160: 14,2136           23546                           QXCH     QPLACE
000161:
000162: 14,2137           04063                           TC       BANKCALL
000163: 14,2140           27014                           CADR     MKRELEAS                              #  RELEASE MARK SYSTEM
000164: 14,2141           37657                           CAF      ONE
000165: 14,2142           54333                           TS       DSPTEM1
000166: 14,2143           33651                           CAF      V01N30E                               #  DISPLY 00001 IN R1
000167: 14,2144           05332                           TC       NVSBWAIT
000168: 14,2145           37665                           CAF      ZERO                                  #  TO INDICATE GROUND MARKS
000169: 14,2146           04063                           TC       BANKCALL
000170: 14,2147           26753                           CADR     AOTMARK                               #  MARK ON TARGET 1
000171:
000172: 14,2150           04063                           TC       BANKCALL
000173: 14,2151           26714                           CADR     OPTSTALL                              #  INSURE SUCCESSFUL MARK
000174: 14,2152           12745                           TCF      ENDTEST
000175: 14,2153           00006                           EXTEND
000176: 14,2154           50374                           INDEX    MARKSTAT
000177: 14,2155           30001                           DCA      0
000178: 14,2156           53565                           DXCH     TMARK                                 #  TIME(PRES) FOR EARTH RATE COMPENSATION
000179:
000180: 14,2157           02242                           TC       GIMANGS1
000181:
000182: 14,2160           06000                           TC       INTPRET
000183: 14,2161           47140                           LXC,1    CALL
000184: 14,2162           00374                                    MARKSTAT                              #  BASE ADDRESS VAC AREA FOR AOTNB
000185: 14,2163           33051                                    AOTNB                                 #  OPTICS TO NAV BASE COORDINATE FRAME
000186: 14,2164           47014                           BON      CALL
000187: 14,2165           00305                                    COAROFIN                              #  COARSE MARKS = 0    FINE MARKS = 1
000188: 14,2166           30170                                    +2
000189: 14,2167           32517                                    NBSM                                  #  NAV BASE DIRECT TO STABLE MEMBER
000190: 14,2170           01445                           STORE    STARAD                                #  TARGET 1 WRT NAV BASE OR STABLE MEMBER
000191: 14,2171           01601                           STORE    LOS1                                  #  ...FOR K...
000192: 14,2172           77776                           EXIT
000193:
000194: 14,2173           04063                           TC       BANKCALL
000195: 14,2174           27014                           CADR     MKRELEAS                              #  RELEASE MARK SYSTEM
000196: 14,2175           37656                           CAF      TWO
000197: 14,2176           54333                           TS       DSPTEM1
000198: 14,2177           33651                           CAF      V01N30E                               #  DISPLAY 00002 IN R1
000199: 14,2200           05332                           TC       NVSBWAIT
000200: 14,2201           37665                           CAF      ZERO                                  #  TO INDICATE GROUND MARKS
000201: 14,2202           04063                           TC       BANKCALL
000202: 14,2203           26753                           CADR     AOTMARK                               #  MARK ON TARGET 2
000203:
000204: 14,2204           37646                           CAF      BIT10
000205: 14,2205           70061                           MASK     STATE                                 #  BIT10 = COAROFIN
000206: 14,2206           10000                           CCS      A
000207: 14,2207           12215                           TCF      EARRTCOM   +5                         #  IF COARSE ALIGN MARKS
000208:


000210: 14,2210           04063        EARRTCOM           TC       BANKCALL                              #  EARTH RATE COMPENSATION BEWTEEN MARKS
000211: 14,2211           30422                           CADR     EARTHR
000212: 14,2212           10372                           CCS      OPTCADR                               #  +0 IF MARK BUTTON NOT DEPRESSED
000213: 14,2213           12216                           TCF      +3
000214: 14,2214           12210                           TCF      EARRTCOM                              #  CONTINUE TO COMPENSATE FOR EARTH RATE
000215: 14,2215           12216                           TCF      +1
000216: 14,2216           04063                           TC       BANKCALL
000217: 14,2217           26714                           CADR     OPTSTALL                              #  INSURE SUCCESFUL MARK
000218: 14,2220           12745                           TCF      ENDTEST
000219:
000220: 14,2221           02242                           TC       GIMANGS1
000221:
000222: 14,2222           06000                           TC       INTPRET
000223: 14,2223           47140                           LXC,1    CALL
000224: 14,2224           00374                                    MARKSTAT                              #  BASE ADDRESS VAC AREA FOR AOTNB
000225: 14,2225           33051                                    AOTNB                                 #  OPTICS TO NAV BASE COORDINATE FRAME
000226: 14,2226           47014                           BONCLR   CALL                                  #  SET TO ZERO FOR FINE ALIGN MARKS
000227: 14,2227           00205                                    COAROFIN                              #  COARSE MARKS = 0    FINE MARKS = 1
000228: 14,2230           30232                                    +2
000229: 14,2231           32517                                    NBSM                                  #  NAV BASE DIRECT TO STABLE MEMBER
000230: 14,2232           01453                           STORE    STARAD     +6                         #  TARGET 2 WRT NAV BASE OR STABLE MEMBER
000231: 14,2233           01607                           STORE    LOS2                                  #  ...FOR K...
000232:
000233: 14,2234           77634        MAXDET             CALL
000234: 14,2235           30350                                    TAR/EREF                              #  TARGETS 1,2 WRT EARTH REF FRAME
000235: 14,2236           77634                           CALL
000236: 14,2237           32677                                    AXISGEN                               #  NAV BASE OR SM WRT EARTH REF FRAME
000237: 14,2240           77776                           EXIT
000238: 14,2241           01546                           TC       QPLACE
000239:
000240:
000241:
000242: 14,2242           37656        GIMANGS1           CAF      TWO                                   #  BASE ADDRESS GIMBAL ANGLES FOR NBSM
000243: 14,2243           60374                           AD       MARKSTAT
000244: 14,2244           50104                           INDEX    FIXLOC
000245: 14,2245           54050                           TS       S1
000246: 14,2246           00002                           TC       Q
000247:


000249: 14,2247           00006        PUTPOSX            EXTEND                                         #  COARSE ALIGNS STABLE MEMBER
000250: 14,2250           23546                           QXCH     QPLACE
000251:
000252: 14,2251           06000                           TC       INTPRET
000253: 14,2252           77634                           CALL
000254: 14,2253           32615                                    CALCGA                                #  CALCULATE COARSE ALIGN GIMBAL ANGLES
000255: 14,2254           77776                           EXIT
000256:
000257: 14,2255           04063                           TC       BANKCALL
000258: 14,2256           26055                           CADR     IMUCOARS                              #  COARSE ALIGN MODE
000259: 14,2257           04063                           TC       BANKCALL
000260: 14,2260           26716                           CADR     IMUSTALL
000261: 14,2261           12745                           TCF      ENDTEST
000262: 14,2262           01546                           TC       QPLACE
000263:
000264:
000265:
000266:
000267: 14,2263           00006        SMDCALC            EXTEND                                         #  FINE ALIGNS STABLE MEBER
000268: 14,2264           23546                           QXCH     QPLACE
000269:
000270: 14,2265           06000                           TC       INTPRET
000271: 14,2266           64375                           VLOAD    MXV
000272: 14,2267           01401                                    XSM                                   #  XSM DESIRED WRT EARTH REF FRAME
000273: 14,2270           01445                                    STARAD                                #  THEN TO SM PRESENT OR NAV BASE FRAME
000274: 14,2271           43172                           VSL1     BOFF
000275: 14,2272           00345                                    COAROFIN                              #  BIT10 FOR LEMLAB TEST
000276: 14,2273           30276                                    +3
000277: 14,2274           36041                           STCALL   32D
000278: 14,2275           32517                                    NBSM                                  #  THEN TO SM PRESENT FRAME
000279: 14,2276           23423                           STOVL    XDC
000280: 14,2277           01407                                    YSM                                   #  YSM DESIRED WRT EARTH REF FRAME
000281:
000282: 14,2300           76521                           MXV      VSL1
000283: 14,2301           01445                                    STARAD                                #  THEN TO SM PRESENT OR NAV BASE FRAME
000284: 14,2302           77614                           BOFF
000285: 14,2303           00345                                    COAROFIN                              #  BIT10 FOR LEMLAB TEST
000286: 14,2304           30307                                    +3
000287: 14,2305           36041                           STCALL   32D
000288: 14,2306           32517                                    NBSM                                  #  THEN TO SM PRESENT FRAME
000289: 14,2307           23431                           STOVL    YDC
000290: 14,2310           01423                                    XDC
000291:
000292: 14,2311           76435                           VXV      VSL1
000293: 14,2312           01431                                    YDC
000294: 14,2313           37437                           STCALL   ZDC                                   #  ZSM DESIRED WRT SM PRESENT FRAME
000295: 14,2314           32367                                    CALCGTA                               #  CALCULATE FINE ALIGN TORQUING ANGLES
000296:
000297: 14,2315           45170                           AXT,1    RTB
000298:


000300: 14,2316           02500                           ECADR    OGC                                   #  X1 = BASE ADDRESS OF TORQUING ANGLES
000301: 14,2317           33515                                    PULSEIMU                              #  TO PUT OUT GYRO TORQUING PULSES
000302: 14,2320           77776                           EXIT
000303:
000304: 14,2321           04063                           TC       BANKCALL
000305: 14,2322           26716                           CADR     IMUSTALL                              #  WAIT FOR PULSES TO GET OUT
000306: 14,2323           12745                           TCF      ENDTEST
000307: 14,2324           01546                           TC       QPLACE
000308:


000310: 14,2325           77776        MAKEXSMD           EXIT                                           #  XSM V   YSM SW   ZSM SE
000311: 14,2326           33660                           CAF      17DEC                                 #  ZERO XSM, YSM, AND ZSM
000312: 14,2327           55776                           TS       ZERONDX
000313: 14,2330           33676                           CAF      XSMADRX
000314: 14,2331           04063                           TC       BANKCALL
000315: 14,2332           37236                           CADR     ZEROING                               #          VERT       SOUTH      EAST
000316:
000317: 14,2333           37642                           CAF      HALF                                  #  XSM    * +1          0          0     *
000318: 14,2334           55400                           TS       XSM                                   #         *                              *
000319: 14,2335           06000                           TC       INTPRET                               #         *                              *
000320: 14,2336           73545                           DLOAD    SIN                                   #  YSM    *  0      +SIN(AZ)    +COS(AZ) *
000321: 14,2337           01507                                    AZIMUTH                               #         *                              *
000322: 14,2340           01411                           STORE    XSM        +8D                        #         *                              *
000323: 14,2341           07421                           STODL    XSM        +16D                       #  ZSM    *  0      -COS(AZ)    +SIN(AZ) *
000324: 14,2342           01507                                    AZIMUTH
000325: 14,2343           77746                           COS
000326: 14,2344           01413                           STORE    XSM        +10D
000327: 14,2345           77676                           DCOMP
000328: 14,2346           01417                           STORE    XSM        +14D
000329: 14,2347           77616                           RVQ
000330:
000331:
000332:
000333: 14,2350           77170        TAR/EREF           AXT,1    AXT,2                                 #                TARGET VECTOR
000334: 14,2351           00002                                    2                                     #  SIN(EL)  -COS(AZ)COS(EL)  SIN(AZ)COS(EL)
000335: 14,2352           00014                                    12D
000336: 14,2353           77731                           SSP
000337: 14,2354           00052                                    S2
000338: 14,2355           00006                                    6                                     #  TARGET 1                        TARGET 2
000339:
000340: 14,2356           60533        TAR1               SLOAD*   SR2                                   #  X1=2  X2=12  S2=6 . X1=0  X2=6  S2=6
000341: 14,2357           01557                                    TAZEL1     +3,1
000342: 14,2360           00001                           STORE    0                                     #  PD00           ELEVATION            PD00
000343: 14,2361           77756                           SIN
000344: 14,2362           12023                           STODL    18D,2                                 #  PD06  ***       SIN(EL)        ***  PD12
000345:
000346: 14,2363           00001                                    0
000347: 14,2364           41546                           COS      PUSH                                  #  PDOO            COS(EL)             PD00
000348: 14,2365           45133                           SLOAD*   RTB
000349: 14,2366           01556                                    TAZEL1     +2,1
000350: 14,2367           33345                                    CDULOGIC
000351: 14,2370           00003                           STORE    2                                     #  PD02            AZIMUTH             PD02
000352: 14,2371           41356                           SIN      DMP
000353: 14,2372           00001                                    0
000354: 14,2373           77752                           SL1
000355: 14,2374           12027                           STODL    22D,2                                 #  PD10  ***   +SIN(AZ)COS(EL)    ***  PD16
000356:
000357: 14,2375           00003                                    2
000358: 14,2376           41346                           COS      DMP


000360: 14,2377           57552                           SL1      DCOMP
000361: 14,2400           04025                           STORE    20D,2                                 #  PD08  ***   -COS(AZ)COS(EL)    ***  PD14
000362:
000363: 14,2401           61170                           AXT,1    TIX,2
000364: 14,2402           00000                                    0
000365: 14,2403           30356                                    TAR1
000366: 14,2404           77616                           RVQ
000367:


000369: 14,2405           65345        ERTHRVSE           DLOAD    PDDL
000370: 14,2406           33042                                    ZERODP                                #  PD24 = (SIN -COS  0)(OMEG/MS)
000371: 14,2407           01511                                    LATITUDE
000372: 14,2410           57546                           COS      DCOMP
000373: 14,2411           73525                           PDDL     SIN
000374: 14,2412           01511                                    LATITUDE                              #  EART RATE = .1504 ARCSEC / 10 MSEC
000375: 14,2413           74266                           VDEF     VXSC                                  #  1.618 GYRO PULSES = 1 ARCSEC
000376: 14,2414           31702                                    OMEG/MS                               #  OMEG/MS = .243... GYRO PULSES / 10 MSEC
000377: 14,2415           01514                           STORE    ERVECTOR
000378:
000379: 14,2416           77624                           RTB
000380: 14,2417           33342                                    LOADTIME
000381: 14,2420           01565                           STORE    TMARK                                 #  TIME FOR GYRO DRIFT - PIPA SCALE FACTOR
000382: 14,2421           77616                           RVQ
000383:
000384:
000385:
000386:
000387:
000388: 14,2422           04112        EARTHR             TC       MAKECADR                              #  CLACULATES AND COMPENSATES EARTH RATE
000389: 14,2423           55547                           TS       QPLACES
000390:
000391: 14,2424           06000                           TC       INTPRET
000392: 14,2425           77624                           RTB
000393: 14,2426           33342                                    LOADTIME                              #  T(PRESENT)
000394: 14,2427           01562                           STORE    TEMPTIME
000395: 14,2430           54225                           DSU      SL
000396: 14,2431           01565                                    TMARK                                 #  T(PRES) - T(PREV) = DT    SCALED 10 MSEC
000397: 14,2432           00212                                    9D                                    #  2 TO 21ST POWER = 1 REVOLUTION
000398: 14,2433           64361                           VXSC     MXV
000399: 14,2434           01514                                    ERVECTOR                              #  VT = (SIN  -COS  0)(OMEG/MS)(DT)
000400: 14,2435           01401                                    XSM                                   #  (XSM)(VT) = EARTH RATE COMPENSATION
000401: 14,2436           77655                           VAD
000402: 14,2437           01772                                    ERCOMP
000403: 14,2440           07772                           STODL    ERCOMP
000404: 14,2441           01562                                    TEMPTIME
000405: 14,2442           01565                           STORE    TMARK                                 #  T(PREVIOUS)
000406:
000407: 14,2443           45170                           AXT,1    RTB
000408: 14,2444           02771                           ECADR    ERCOMP
000409: 14,2445           33515                                    PULSEIMU                              #  TO PUT OUT GYRO TORQUING PULSES
000410: 14,2446           77776                           EXIT
000411:
000412: 14,2447           04063                           TC       BANKCALL
000413: 14,2450           26716                           CADR     IMUSTALL                              #  WAIT FOR PULSES TO GET OUT
000414: 14,2451           12745                           TCF      ENDTEST
000415: 14,2452           31547                           CAE      QPLACES
000416: 14,2453           14105                           TCF      BANKJUMP
000417:


000419: 14,2454           00006        STORRSLT           EXTEND
000420: 14,2455           23546                           QXCH     QPLACE
000421:
000422: 14,2456           06000                           TC       INTPRET                               #  DP TIME IN MPAC SCALED .312(5) MSEC
000423: 14,2457           54340                           LXC,1    SL
000424: 14,2460           01537                                    NDXCTR
000425: 14,2461           00204                                    3
000426: 14,2462           45005                           DMP      RTB
000427: 14,2463           31700                                    SCALFTR
000428: 14,2464           33406                                    SGNAGREE
000429: 14,2465           03571                           STORE    GENPL,1                               #  STORE DP TIME
000430: 14,2466           77776                           EXIT
000431:
000432: 14,2467           57551                           XCH      STOREPL                               #  CONTAINS C(PIPAI)
000433: 14,2470           51537                           INDEX    NDXCTR
000434: 14,2471           55572                           TS       GENPL      +2                         #  STORE PIPA COUNTER READING
000435: 14,2472           41537                           CS       NDXCTR
000436: 14,2473           63664                           AD       72DEC
000437: 14,2474           00006                           EXTEND
000438: 14,2475           63123                           BZMF     MISALIGN                              #  TO CALCULATE MISALIGNMENT
000439: 14,2476           36165                           CAF      THREE
000440: 14,2477           27537                           ADS      NDXCTR
000441: 14,2500           01546                           TC       QPLACE
000442:
000443: 14,2501           00006        OPTDATA            EXTEND                                         #  CALLS FOR AZIMUTH AND ELEVATION OF
000444: 14,2502           23546                           QXCH     QPLACE                                #     TARGET 1, THEN TARGET 2
000445:
000446: 14,2503           37657                           CAF      BIT1                                  #  AZIMUTH CLOCKWISE FROM NORTH TO TARGET
000447: 14,2504           22007                           ZL                                             #  ELEVATION MEASURED FROM HORIZONTAL
000448: 14,2505           23550                           LXCH     RUN
000449: 14,2506           54335                           TS       DSPTEM1    +2
000450: 14,2507           33652                           CAF      V05N30E                               #  DISPLAY TARGET NUMBER IN R3
000451: 14,2510           05332                           TC       NVSBWAIT
000452: 14,2511           51550                           INDEX    RUN
000453: 14,2512           53554                           DXCH     TAZEL1
000454: 14,2513           52334                           DXCH     DSPTEM1
000455:
000456: 14,2514           02554                           TC       CHECKLD                               #  R1  +- XXX.XX    AZIMUTH IN DEGREES
000457: 14,2515           00661                           OCT      00661                                 #  R2  +- XX.XXX    ELEVATION IN DEGREES
000458: 14,2516           12745                           TCF      ENDTEST                               #  R3      0000X    TARGET NUMBER 1 OR 2
000459:
000460: 14,2517           52334                           DXCH     DSPTEM1                               #  TAZEL1        TARGET 1 AZIMUTH
000461: 14,2520           51550                           INDEX    RUN
000462: 14,2521           53554                           DXCH     TAZEL1                                #  TAZEL1 +2     TARGET 2 AZIMUTH
000463: 14,2522           11550                           CCS      RUN
000464: 14,2523           12527                           TCF      +4
000465: 14,2524           37656        OPTRDRIN           CAF      TWO                                   #  SPECIAL ENTRY FOR RDR37511
000466: 14,2525           54001                           TS       L
000467: 14,2526           12505                           TCF      OPTDATA    +4                         #  MPAC    1ST PASS = 0    2ND PASS = 2
000468: 14,2527           01546                           TC       QPLACE
000469:


000471: 14,2530           62545        LATAZCHK           DLOAD    SL2                                   #  CALLS FOR AZIMUTH (SM) AND LATITUDE
000472: 14,2531           01511                                    LATITUDE
000473: 14,2532           06335                           STODL    DSPTEM1    +1
000474: 14,2533           01507                                    AZIMUTH                               #  ...NOT REALLY...
000475:
000476: 14,2534           77424                           RTB      EXIT
000477: 14,2535           33410                                    1STO2S                                #  FRACTION OF REVOLUTION TO 2S COMPLEMENT
000478:
000479: 14,2536           56140                           XCH      MPAC                                  #  AZIMUTH MUST BE 135 DEGREES R1 = .13500
000480: 14,2537           54333                           TS       DSPTEM1                               #     FOR SXT-NB-IMU FINE ALIGNMENT TEST
000481: 14,2540           02554                           TC       CHECKLD                               #  R1  +- XXX.XX    AZIMUTH IN DEGREES (SM)
000482: 14,2541           00661                           OCT      00661                                 #  R2  +- XX.XXX    LATITUDE IN DEGREES
000483: 14,2542           12745                           TCF      ENDTEST                               #  R3               NOT USED
000484:
000485: 14,2543           06000                           TC       INTPRET
000486: 14,2544           45135                           SLOAD    RTB
000487: 14,2545           00334                                    DSPTEM1
000488: 14,2546           33345                                    CDULOGIC                              #  BACK TO FRACTION OF REVOLUTION
000489: 14,2547           01507                           STORE    AZIMUTH
000490:
000491: 14,2550           60535                           SLOAD    SR2
000492: 14,2551           00335                                    DSPTEM1    +1
000493: 14,2552           01511                           STORE    LATITUDE
000494: 14,2553           77616                           RVQ
000495:
000496:
000497: 14,2554           00006        CHECKLD            EXTEND
000498: 14,2555           23545                           QXCH     QPLAC
000499:
000500: 14,2556           51545                           INDEX    QPLAC
000501: 14,2557           30000                           CA       A
000502: 14,2560           05107                           TC       NVSUB
000503: 14,2561           12573                           TCF      CHECKLD1
000504:
000505: 14,2562           05274                           TC       FLASHON
000506:
000507: 14,2563           05140                           TC       ENDIDLE                               #  CHANGE R1  V21 N61 E  +- XXX.XX E
000508: 14,2564           12567                           TCF      +3                                    #  CHANGE R2  V22 N61 E  +- XX.XXX E
000509: 14,2565           12571                           TCF      +4                                    #  VERIFY, THEN PROCEED WITH VERB 33 ENTER
000510: 14,2566           12556                           TCF      CHECKLD    +2
000511: 14,2567           51545                           INDEX    QPLAC
000512: 14,2570           00001                           TC       1
000513: 14,2571           51545                           INDEX    QPLAC
000514: 14,2572           00002                           TC       2
000515:
000516: 14,2573           32575        CHECKLD1           CAF      CHECKLD2
000517: 14,2574           05327                           TC       NVSUBUSY
000518: 14,2575           30556        CHECKLD2           CADR     CHECKLD    +2
000519:


000521: 14,2576           00006        POSNJUMP           EXTEND                                         #  POSITIONS FOR SXTNBIMU
000522: 14,2577           23546                           QXCH     QPLACE
000523:
000524: 14,2600           51544                           INDEX    POSITON
000525: 14,2601           12602                           TCF      +1
000526: 14,2602           12745                           TCF      ENDTEST
000527: 14,2603           12610                           TCF      POS1
000528: 14,2604           12615                           TCF      POS2
000529: 14,2605           12633                           TCF      POS3
000530: 14,2606           12654                           TCF      POS4
000531: 14,2607           12706                           TCF      POS5
000532:
000533:
000534:
000535: 14,2610           37657        POS1               CAF      ONE                                   #  XSM = V    YSM = SW    ZSM = SE
000536: 14,2611           55542                           TS       PIPNDX
000537: 14,2612           37656                           CAF      TWO
000538: 14,2613           55543                           TS       PIPNDX     +1                         #  MONITOR PIPAY AND PIPAZ
000539: 14,2614           01546                           TC       QPLACE
000540:
000541:
000542:
000543: 14,2615           06000        POS2               TC       INTPRET                               #  XSM = SE   YSM = SW    ZSM = -V
000544: 14,2616           57575                           VLOAD    VCOMP
000545: 14,2617           01401                                    XSM
000546: 14,2620           77715                           PDVL
000547: 14,2621           01415                                    ZSM
000548: 14,2622           23401                           STOVL    XSM
000549: 14,2623           77626                           STADR
000550: 14,2624           76362                           STORE    ZSM
000551: 14,2625           77776                           EXIT
000552: 14,2626           37665                           CAF      ZERO
000553: 14,2627           55542                           TS       PIPNDX
000554: 14,2630           37657                           CAF      ONE
000555: 14,2631           55543                           TS       PIPNDX     +1                         #  MONITOR PIPAX AND PIPAY
000556: 14,2632           01546                           TC       QPLACE
000557:
000558:
000559:
000560: 14,2633           06000        POS3               TC       INTPRET                               #  XSM = SE    YSM = V    ZSM = SW
000561: 14,2634           63375                           VLOAD    PDVL
000562: 14,2635           01401                                    XSM
000563: 14,2636           01407                                    YSM
000564: 14,2637           77715                           PDVL
000565: 14,2640           01415                                    ZSM
000566: 14,2641           23401                           STOVL    XSM
000567:
000568: 14,2642           77626                           STADR
000569: 14,2643           54362                           STOVL    ZSM
000570:


000572: 14,2644           77626                           STADR
000573: 14,2645           76370                           STORE    YSM
000574: 14,2646           77776                           EXIT
000575: 14,2647           37665                           CAF      ZERO
000576: 14,2650           55542                           TS       PIPNDX
000577: 14,2651           37656                           CAF      TWO
000578: 14,2652           55543                           TS       PIPNDX     +1                         #  MONITOR PIPAX AND PIPAZ
000579: 14,2653           01546                           TC       QPLACE
000580:
000581:
000582:
000583: 14,2654           37653        POS4               CAF      BIT5                                  #  OPTION TO ALIGN SM TO SPECIFIED ANGLES
000584: 14,2655           60104                           AD       FIXLOC
000585: 14,2656           50104                           INDEX    FIXLOC
000586: 14,2657           54050                           TS       S1                                    #  BASE ADDRESS GIMBAL ANGLES
000587: 14,2660           33656                           CAF      V25N22E                               #  R1  +- XXX.XX   OUTER GIMBAL ANGLE
000588: 14,2661           05332                           TC       NVSBWAIT                              #  R2  +- XXX.XX   INNER GIMBAL ANGLE
000589: 14,2662           05140                           TC       ENDIDLE                               #  R3  +- XXX.XX   MIDDLE GIMBAL ANGLE
000590: 14,2663           12745                           TCF      ENDTEST
000591: 14,2664           12660                           TCF      -4
000592: 14,2665           30400                           CA       THETAD                                #  SET UP ANLES FOR SMNB
000593: 14,2666           50104                           INDEX    FIXLOC
000594: 14,2667           54024                           TS       24
000595: 14,2670           30401                           CA       THETAD     +1
000596: 14,2671           50104                           INDEX    FIXLOC
000597: 14,2672           54020                           TS       20
000598: 14,2673           30402                           CA       THETAD     +2
000599: 14,2674           50104                           INDEX    FIXLOC
000600: 14,2675           54022                           TS       22
000601:
000602: 14,2676           06000                           TC       INTPRET
000603: 14,2677           47024                           RTB      CALL
000604: 14,2700           32766                                    TRANSPSE                              #  EARH REF WRT NAV BASE
000605: 14,2701           33000                                    SMD/EREF                              #  STABLE MEMBER DESIRED WRT EARTH REF
000606: 14,2702           77624                           RTB
000607: 14,2703           32766                                    TRANSPSE                              #  BACK TO NAV BASE WRT TO EARTH REF
000608: 14,2704           77776                           EXIT
000609: 14,2705           01546                           TC       QPLACE
000610:


000612: 14,2706           31546        POS5               CA       QPLACE                                #  OPTION TO ALIGN SM TO ANY ORIENTATION
000613: 14,2707           55551                           TS       STOREPL                               #    WRT EARTH REFERENCE FRAME
000614:
000615: 14,2710           02501                           TC       OPTDATA                               #  LOAD YSM AND ZSM AZIMUTH AND ELEVATION
000616:
000617: 14,2711           06000                           TC       INTPRET
000618: 14,2712           77634                           CALL
000619: 14,2713           30350                                    TAR/EREF                              #  CALC YSM AND ZSM WRT EARTH REF. FRAME
000620: 14,2714           41575                           VLOAD    PUSH
000621: 14,2715           00007                                    6D
000622: 14,2716           01407                           STORE    YSM
000623: 14,2717           76435                           VXV      VSL1
000624: 14,2720           00015                                    12D
000625: 14,2721           01401                           STORE    XSM                                   #  XSM = (YSM) X (ZSM)
000626: 14,2722           76435                           VXV      VSL1
000627: 14,2723           77626                           STADR
000628: 14,2724           76362                           STORE    ZSM                                   #  ZSM = (XSM) X (YSM)
000629: 14,2725           77776                           EXIT
000630:
000631: 14,2726           01551                           TC       STOREPL


000633: 14,2727           00006        OGCZERO            EXTEND                                         #  ZERO EARTH RATE TORQUING ANGLES
000634: 14,2730           23546                           QXCH     QPLACE
000635:
000636: 14,2731           06000                           TC       INTPRET
000637: 14,2732           77775                           VLOAD
000638: 14,2733           33042                                    ZERODP                                #  VECTOR IN THIS CASE
000639: 14,2734           01772                           STORE    ERCOMP
000640: 14,2735           77776                           EXIT
000641: 14,2736           01546                           TC       QPLACE
000642:
000643:
000644:
000645:
000646:
000647: 14,2737           37652        GMLCKCHK           CAF      BIT6                                  #  CHECK FOR GIMBAL LOCK  (MGA GREATER 70)
000648: 14,2740           70322                           MASK     DSPTAB     +11D
000649: 14,2741           00006                           EXTEND
000650: 14,2742           12744                           BZF      +2
000651: 14,2743           12745                           TCF      ENDTEST
000652: 14,2744           00002                           TC       Q
000653:
000654:
000655:
000656:
000657:
000658: 14,2745           37650        ENDTEST            CA       IMUSEFLG                              #  BIT8
000659: 14,2746           67651                           AD       RRUSEFLG                              #  BIT7
000660: 14,2747           40000                           CS       A
000661: 14,2750           00004                           INHINT
000662: 14,2751           70061                           MASK     STATE
000663: 14,2752           54061                           TS       STATE
000664:
000665: 14,2753           04667                           TC       NEWMODEX
000666: 14,2754           00000                           OCT      00000
000667:
000668: 14,2755           04063                           TC       BANKCALL
000669: 14,2756           27014                           CADR     MKRELEAS                              #  RELEASE MARK SYSTEM
000670: 14,2757           04437                           TC       EJFREE
000671:


000673: 14,2760           06000        LEMLAB             TC       INTPRET
000674: 14,2761           57575                           VLOAD    VCOMP
000675: 14,2762           33036                                    YUNIT
000676:
000677: 14,2763           01437                           STORE    ZNB                                   #  XNB MATRIX USED IN CALCGA
000678: 14,2764           23461                           STOVL    STARAD     +12D                       #  STARAD MATRIX USED IN AXISGEN * SMDCALC
000679: 14,2765           33040                                    XUNIT
000680:
000681: 14,2766           01423                           STORE    XNB                                   #  *XNB*   *1    0    0* *V*
000682: 14,2767           23445                           STOVL    STARAD                                #  *   *   *           * * *
000683: 14,2770           33034                                    ZUNIT                                 #  *YNB* = *0    0    1* *S*
000684: 14,2771           01431                           STORE    YNB                                   #  *   *   *           * * *
000685: 14,2772           01453                           STORE    STARAD     +6                         #  *ZNB*   *0   -1    0* *E*
000686: 14,2773           77776                           EXIT
000687:
000688: 14,2774           41544                           CS       POSITON
000689: 14,2775           66165                           AD       THREE
000690: 14,2776           00006                           EXTEND
000691: 14,2777           13001                           BZF      +2
000692: 14,3000           13014                           TCF      LEMLAB1
000693:
000694: 14,3001           06000                           TC       INTPRET
000695: 14,3002           57575                           VLOAD    VCOMP
000696: 14,3003           01423                                    XNB
000697: 14,3004           77715                           PDVL                                           #  *XNB*   * 0   -1    0* *V*
000698: 14,3005           01437                                    ZNB                                   #  *   *   *            * * *
000699: 14,3006           01423                           STORE    XNB                                   #  *YNB* = * 0    0    1* *S*
000700: 14,3007           23445                           STOVL    STARAD                                #  *   *   *            * * *
000701: 14,3010           77626                           STADR                                          #  *ZNB*   *-1    0    0* * *
000702: 14,3011           76340                           STORE    ZNB
000703: 14,3012           01461                           STORE    STARAD     +12D
000704: 14,3013           77776                           EXIT
000705:
000706: 14,3014           04063        LEMLAB1            TC       BANKCALL
000707: 14,3015           26716                           CADR     IMUSTALL                              #  INSURE IMUZERO COMPLETION
000708:
000709: 14,3016           12745                           TCF      ENDTEST
000710:
000711: 14,3017           02576                           TC       POSNJUMP                              #  SET UP STABLE MEMBER DESIRED COORDINATES
000712: 14,3020           05401                           TC       FREEDSP                               #  FREE DISPLAY SYSTEM
000713: 14,3021           02247                           TC       PUTPOSX                               #  TO COARSE ALIGN STABLE MEMBER
000714:
000715: 14,3022           02737                           TC       GMLCKCHK
000716:
000717: 14,3023           04063                           TC       BANKCALL
000718: 14,3024           26227                           CADR     IMUFINE                               #  FINE ALIGN MODE
000719: 14,3025           04063                           TC       BANKCALL
000720: 14,3026           26716                           CADR     IMUSTALL
000721: 14,3027           12745                           TCF      ENDTEST
000722:


000724: 14,3030           30032                           CA       CDUX
000725: 14,3031           50104                           INDEX    FIXLOC
000726: 14,3032           54024                           TS       24
000727: 14,3033           30033                           CA       CDUY
000728: 14,3034           50104                           INDEX    FIXLOC
000729: 14,3035           54020                           TS       20
000730: 14,3036           30034                           CA       CDUZ
000731: 14,3037           50104                           INDEX    FIXLOC
000732: 14,3040           54022                           TS       22
000733:
000734: 14,3041           37653                           CAF      BIT5
000735: 14,3042           60104                           AD       FIXLOC
000736: 14,3043           50104                           INDEX    FIXLOC
000737: 14,3044           54050                           TS       S1
000738:
000739: 14,3045           02263                           TC       SMDCALC                               #  TO FINE ALIGN STABLE MEMBER
000740:
000741: 14,3046           06000                           TC       INTPRET                               #  IF EARTH RATE COMPENSATION DESIRED
000742: 14,3047           77624                           RTB
000743: 14,3050           33342                                    LOADTIME
000744: 14,3051           01565                           STORE    TMARK
000745: 14,3052           77776                           EXIT
000746:
000747: 14,3053           41512                           CS       EROPTN
000748: 14,3054           67656                           AD       TWO
000749: 14,3055           00006                           EXTEND
000750: 14,3056           13060                           BZF      +2
000751:
000752: 14,3057           12051                           TCF      ERFINAL    +2
000753:
000754: 14,3060           04063                           TC       BANKCALL
000755: 14,3061           35235                           CADR     SAMODRTN                              #  RETURN TO SEMI-AUTOMATIC MODING TEST
000756:


000758: 14,3062           33674        RDR37511           CAF      RDRRETN                               #  RENDEZVOUS RADAR AND ANTENNA TRACKING
000759: 14,3063           55546                           TS       QPLACE                                #  TO RETURN FROM OPTDATA
000760:
000761: 14,3064           04063                           TC       BANKCALL
000762: 14,3065           20247                           CADR     RRZERO
000763:
000764: 14,3066           04063                           TC       BANKCALL
000765: 14,3067           23001                           CADR     AURLOKON                              #  OPERATOR DECISION TO LOCK ON OR NOT
000766:
000767: 14,3070           12524        RDR1               TCF      OPTRDRIN                              #  CALL FOR AZIMUTH AND ELEVATION
000768:
000769: 14,3071           04063                           TC       BANKCALL
000770: 14,3072           26712                           CADR     RADSTALL
000771: 14,3073           14440                           TCF      ENDOFJOB
000772:
000773: 14,3074           06000                           TC       INTPRET
000774: 14,3075           77170                           AXT,1    AXT,2                                 #  SET UP X1 AND X2 FOR TAR/EREF
000775: 14,3076           00000                                    0
000776: 14,3077           00006                                    6
000777: 14,3100           77634                           CALL
000778: 14,3101           30353                                    TAR/EREF   +3                         #  LINE-OF-SIGHT WRT EARTH REF FRAME
000779: 14,3102           64375                           VLOAD    MXV
000780: 14,3103           00015                                    12D                                   #  LINE-OF-SIGHT WRT EARTH REF FRAME
000781: 14,3104           01401                                    XSM                                   #  TO STABLE MEMBER PRESENT FRAME
000782: 14,3105           77772                           VSL1
000783: 14,3106           36416                           STCALL   RRTARGET
000784: 14,3107           20306                                    RRDESSM
000785:
000786: 14,3110           13115                           TCF      37511ALM
000787: 14,3111           04063                           TC       BANKCALL
000788: 14,3112           26712                           CADR     RADSTALL
000789: 14,3113           14440                           TCF      ENDOFJOB
000790: 14,3114           14440                           TCF      ENDOFJOB
000791:
000792:
000793:
000794:
000795:
000796: 14,3115           05413        37511ALM           TC       ALARM
000797: 14,3116           00524                           OCT      524
000798: 14,3117           14440                           TCF      ENDOFJOB
000799:
000800:
000801:
000802:
000803:
000804: 14,3120           47665        RDRINIT            CS       ZERO
000805: 14,3121           55512                           TS       EROPTN
000806: 14,3122           12002                           TCF      AOTNBIMU   +2
000807:


000809: 14,3123           05317        MISALIGN           TC       GRABWAIT                              #  DISPLAY SYSTEM WAS FREED
000810: 14,3124           37665                           CAF      ZERO
000811: 14,3125           55537                           TS       NDXCTR
000812: 14,3126           51537        BBBB               INDEX    NDXCTR
000813: 14,3127           41674                           CS       GENPL      +68D
000814: 14,3130           51537                           INDEX    NDXCTR
000815: 14,3131           27702                           ADS      GENPL      +74D
000816: 14,3132           33662                           CAF      63DEC
000817: 14,3133           61537                           AD       NDXCTR
000818: 14,3134           10000                           CCS      A
000819: 14,3135           46165                           CS       THREE
000820: 14,3136           27537                           ADS      NDXCTR
000821: 14,3137           13126                           TCF      BBBB
000822: 14,3140           55537                           TS       NDXCTR
000823:
000824:
000825:
000826: 14,3141           06000        CCCC               TC       INTPRET
000827: 14,3142           70750                           LXA,1    DLOAD*
000828: 14,3143           01537                                    NDXCTR
000829: 14,3144           01701                                    GENPL      +72D,1
000830: 14,3145           77625                           DSU
000831: 14,3146           01571                                    GENPL
000832: 14,3147           03701                           STORE    GENPL      +72D,1
000833: 14,3150           77776                           EXIT
000834: 14,3151           41537                           CS       NDXCTR
000835: 14,3152           63663                           AD       69DEC
000836: 14,3153           10000                           CCS      A
000837: 14,3154           36165                           CAF      THREE
000838: 14,3155           27537                           ADS      NDXCTR
000839: 14,3156           13141                           TCF      CCCC
000840: 14,3157           55550                           TS       RUN
000841: 14,3160           36165                           CAF      THREE
000842: 14,3161           55537                           TS       NDXCTR
000843:
000844:
000845:
000846: 14,3162           06000        DDDD               TC       INTPRET
000847: 14,3163           77775                           VLOAD
000848: 14,3164           33042                                    ZERODP
000849: 14,3165           00031                           STORE    24D
000850: 14,3166           00037                           STORE    30D
000851: 14,3167           77735                           SLOAD
000852: 14,3170           31660                                    11DEC
000853: 14,3171           00041                           STORE    32D
000854: 14,3172           77776                           EXIT
000855:
000856: 14,3173           06000        DDDD1              TC       INTPRET
000857: 14,3174           70750                           LXA,1    DLOAD*
000858: 14,3175           01537                                    NDXCTR
000859:


000861: 14,3176           01701                                    GENPL      +72D,1
000862: 14,3177           41423                           DSU*     PUSH
000863: 14,3200           01673                                    GENPL      +66D,1
000864: 14,3201           42742                           SR1      DAD*
000865: 14,3202           01673                                    GENPL      +66D,1
000866: 14,3203           03701                           STORE    GENPL      +72D,1
000867:
000868: 14,3204           43312                           SL2      DAD
000869: 14,3205           00031                                    24D
000870: 14,3206           14031                           STODL*   24D
000871: 14,3207           01701                                    GENPL      +72D,1
000872: 14,3210           63412                           SL4      DSQ
000873: 14,3211           77615                           DAD
000874: 14,3212           00033                                    26D
000875: 14,3213           00033                           STORE    26D
000876: 14,3214           77776                           EXIT
000877: 14,3215           31550                           CAE      RUN
000878: 14,3216           61537                           AD       NDXCTR
000879: 14,3217           40000                           COM
000880: 14,3220           63662                           AD       63DEC
000881: 14,3221           10000                           CCS      A
000882: 14,3222           36162                           CAF      SIX
000883: 14,3223           27537                           ADS      NDXCTR
000884: 14,3224           13173                           TCF      DDDD1
000885: 14,3225           61550                           AD       RUN
000886: 14,3226           55537                           TS       NDXCTR
000887:
000888:
000889:
000890: 14,3227           06000        EEEE               TC       INTPRET
000891: 14,3230           66740                           LXC,1    SLOAD*
000892: 14,3231           01537                                    NDXCTR
000893: 14,3232           01604                                    GENPL      +11D,1
000894: 14,3233           00043                           STORE    34D
000895: 14,3234           77745                           DLOAD
000896: 14,3235           54206                           PUSH     SL
000897: 14,3236           00211                                    8D
000898: 14,3237           43265                           BDDV     DAD
000899: 14,3240           00043                                    34D
000900: 14,3241           00035                                    28D
000901: 14,3242           06035                           STODL    28D
000902: 14,3243           55261                           SL       BDDV
000903: 14,3244           00207                                    6
000904: 14,3245           00043                                    34D
000905: 14,3246           42523                           PDDL*    SL4
000906: 14,3247           01602                                    GENPL      +9D,1
000907: 14,3250           77605                           DMP
000908: 14,3251           77615                           DAD
000909: 14,3252           00037                                    30D
000910: 14,3253           00037                           STORE    30D
000911:


000913: 14,3254           77776                           EXIT
000914: 14,3255           41537                           CS       NDXCTR
000915: 14,3256           63661                           AD       60DEC
000916: 14,3257           61550                           AD       RUN
000917: 14,3260           10000                           CCS      A
000918: 14,3261           36162                           CAF      SIX
000919: 14,3262           27537                           ADS      NDXCTR
000920: 14,3263           13227                           TCF      EEEE
000921:
000922:
000923:
000924: 14,3264           06000                           TC       INTPRET
000925: 14,3265           41345                           DLOAD    DMP
000926: 14,3266           00031                                    24D
000927: 14,3267           00037                                    30D
000928: 14,3270           41325                           PDDL     DMP
000929: 14,3271           00033                                    26D
000930: 14,3272           00035                                    28D
000931: 14,3273           77625                           DSU
000932: 14,3274           63525                           PDDL     DSQ
000933: 14,3275           00031                                    24D
000934: 14,3276           65342                           SR1      PDDL
000935: 14,3277           00041                                    32D
000936: 14,3300           41261                           SL       DMP
000937: 14,3301           00212                                    11
000938: 14,3302           00033                                    26D
000939: 14,3303           55225                           DSU      BDDV
000940: 14,3304           54205                           DMP      SL
000941: 14,3305           31673                                    KKKK
000942: 14,3306           00204                                    3
000943: 14,3307           00337                           STORE    DSPTEM2
000944: 14,3310           77776                           EXIT
000945:
000946: 14,3311           31544                           CA       POSITON
000947: 14,3312           54340                           TS       DSPTEM2    +2
000948:
000949: 14,3313           33654                           CAF      V06N66E
000950: 14,3314           05332                           TC       NVSBWAIT
000951: 14,3315           05274                           TC       FLASHON
000952: 14,3316           05140                           TC       ENDIDLE
000953: 14,3317           12745                           TCF      ENDTEST
000954: 14,3320           36165                           CAF      THREE
000955: 14,3321           55550                           TS       RUN
000956: 14,3322           37665                           CAF      ZERO
000957: 14,3323           13161                           TCF      DDDD       -1
000958:


000960:                                                                                                  #  THIS REVISION REFLECTS CHANGES AS OF
000961:                                                                                                  #   1/31/66
000962:                                                                                                  #  ENGINE ON/OFF NOW IN CHANNEL ELEVEN.  THE BITS FOR EACH CHANNEL GET TURNED ON ALL AT ONCE.  THEY STAY ON UNTIL
000963:                                                                                                  #   :ENTER:IS PUSHED.  THEN THEY ALL GO OUT AND THE NEXT CHANNEL:S BITS ARE TURNED ON.
000964:                                                                                                  #  CHANNEL 5  BITS 1-8
000965:                                                                                                  #  CHANNEL 6  BITS 1-8
000966:                                                                                                  #  CHANNEL 11 BITS  13,14
000967:                                                                                                  #  CHANNEL 12 BITS 9-14
000968:                                                                                                  #  FOLLOWING THE CHANNEL 12 TESTS ENTER IS PRESSED.  CHANNEL 12 IS SET TO ZERO AND THE NEXT TEST BEGUN. LOW9
000969:                                                                                                  #  GOES IN LOCATION (COUNTER) 55.
000970:                                                                                                  #  INCREASE THROTTLE RATE DESCENT ENGINE
000971:                                                                                                  #  :ENTER: NOW CAUSES THE CONTENTS OF 55 TO BE MADE NEGATIVE
000972:                                                                                                  #  DECREASE THROTTLE RATE DESCENT ENGINE
000973:                                                                                                  #  THE NEXT :ENTER: ZEROS THE REGISTER AND SENDS A PULSE TRAIN (HERE ALTERN
000974:                                                                                                  #  ZEROS FOR CALRITY) TO THE ALTITUDE METER.
000975:                                                                                                  #  THE NEXT :ENTER: WILL ADVANCE THE TEST TO THE ALTITUDE RATE METER TEST.
000976:                                                                                                  #  THE NEXT :ENTER : WILL TERMINATE THE TEST.
000977:
000978:
000979:
000980: 14,3324           37637        SAUTOIFS           CA       POSMAX
000981: 14,3325           55576                           TS       NOBITS
000982: 14,3326           37665                           CA       ZERO
000983: 14,3327           55577                           TS       CHAN
000984: 14,3330           55575                           TS       TEMP
000985: 14,3331           03333                           TC       DINO
000986: 14,3332           25577        BACK1              INCR     CHAN
000987:
000988: 14,3333           51577        DINO               INDEX    CHAN
000989: 14,3334           33336                           CA       SAUTLOCS
000990: 14,3335           14067                           TCF      SWCALL
000991: 14,3336           31352        SAUTLOCS           CADR     CHAN5D
000992: 14,3337           31370                           CADR     CHAN6D
000993: 14,3340           31376                           CADR     CHAN11D
000994: 14,3341           31410                           CADR     CHAN12D
000995: 14,3342           31422                           CADR     PTITRDE
000996: 14,3343           31447                           CADR     PTDTRDE
000997: 14,3344           31524                           CADR     ALTMET
000998: 14,3345           31551                           CADR     ALTRMET
000999: 14,3346           30745                           CADR     ENDTEST
001000: 14,3347           31454        THROTADD           CADR     PTDTRDE    +5
001001: 14,3350           31527        METERADD           CADR     ALTMET     +3
001002: 14,3351           31554        MRATEADD           CADR     ALTRMET    +3
001003: 14,3352           37664        CHAN5D             CA       FIVE
001004: 14,3353           54333                           TS       DSPTEM1
001005: 14,3354           35235        2ENTRY             CA       LOW8                                  #  CHANNEL 6 RETURNS HERE
001006: 14,3355           54334                           TS       DSPTEM1    +1
001007: 14,3356           00006                           EXTEND
001008: 14,3357           51575                           INDEX    TEMP
001009: 14,3360           01005                           WRITE    5
001010:


001012: 14,3361           33643        3ENTRY             CA       V04N30D                               #  CH11,12 RETURN HERE TO USE THE DISPLAY
001013: 14,3362           05332                           TC       NVSBWAIT
001014: 14,3363           33650        4ENTRY             CAF      WAITER                                #  WAITER IS 03300
001015: 14,3364           05332                           TC       NVSBWAIT
001016: 14,3365           05140                           TC       ENDIDLE
001017: 14,3366           02745                           TC       ENDTEST
001018: 14,3367           03332                           TC       BACK1
001019:
001020: 14,3370           25575        CHAN6D             INCR     TEMP
001021: 14,3371           24333                           INCR     DSPTEM1
001022: 14,3372           37665                           CAF      ZERO
001023: 14,3373           00006                           EXTEND
001024: 14,3374           01005                           WRITE    5                                     #  GET RID OF CHANNEL 5 BITS
001025: 14,3375           03354                           TC       2ENTRY
001026: 14,3376           37662        CHAN11D            CA       OCT11
001027: 14,3377           54333                           TS       DSPTEM1
001028: 14,3400           37700                           CA       BIT13-14
001029: 14,3401           54334                           TS       DSPTEM1    +1
001030: 14,3402           00006                           EXTEND
001031: 14,3403           05011                           WOR      11                                    #  WOR IS NON EXCLUSIVE OR
001032: 14,3404           37665                           CAF      ZERO
001033: 14,3405           00006                           EXTEND
001034: 14,3406           01006                           WRITE    6
001035: 14,3407           03361                           TC       3ENTRY
001036: 14,3410           37661        CHAN12D            CA       OCT12
001037: 14,3411           54333                           TS       DSPTEM1
001038: 14,3412           47700                           CS       BIT13-14
001039: 14,3413           00006                           EXTEND
001040: 14,3414           03011                           WAND     11
001041: 14,3415           33646                           CA       CH12BITS
001042: 14,3416           54334                           TS       DSPTEM1    +1
001043: 14,3417           00006                           EXTEND
001044: 14,3420           05012                           WOR      12
001045: 14,3421           03361                           TC       3ENTRY
001046: 14,3422           43646        PTITRDE            CS       CH12BITS
001047: 14,3423           00006                           EXTEND
001048: 14,3424           03012                           WAND     12
001049: 14,3425           37665                           CA       ZERO
001050: 14,3426           54333                           TS       DSPTEM1
001051: 14,3427           54334                           TS       DSPTEM1    +1
001052: 14,3430           55575                           TS       TEMP
001053: 14,3431           37657                           CA       BIT1
001054: 14,3432           55576                           TS       NOBITS
001055: 14,3433           00004        PIT                INHINT
001056: 14,3434           04536                           TC       WAITLIST
001057: 14,3435           03460 30005                     2CADR    THROTASK
001058:
001059: 14,3437           00003                           RELINT
001060: 14,3440           33650                           CA       WAITER
001061: 14,3441           05332                           TC       NVSBWAIT
001062:


001064: 14,3442           05140                           TC       ENDIDLE
001065: 14,3443           02745                           TC       ENDTEST
001066: 14,3444           37665                           CA       ZERO
001067: 14,3445           55576                           TS       NOBITS
001068: 14,3446           03332                           TC       BACK1
001069:
001070: 14,3447           37665        PTDTRDE            CA       ZERO
001071: 14,3450           54055                           TS       THRUST
001072: 14,3451           33347                           CA       THROTADD
001073: 14,3452           55574                           TS       TEMPADD
001074: 14,3453           04416                           TC       JOBSLEEP                              #  THIS INHIBITS THE NEXT TASK UNTIL
001075:                                                                                                  #  CURRENT TASK HAS BEEN COMPLETED
001076: 14,3454           37637                           CA       POSMAX
001077: 14,3455           55575                           TS       TEMP
001078: 14,3456           37651                           CA       BIT7
001079: 14,3457           03433                           TC       PIT
001080: 14,3460           11576        THROTASK           CCS      NOBITS                                #  IS THIS TASK STILL REQ
001081: 14,3461           03466                           TC       +5                                    #  YES
001082: 14,3462           31574                           CA       TEMPADD                               #  NO
001083: 14,3463           55576                           TS       NOBITS
001084: 14,3464           04422                           TC       JOBWAKE
001085: 14,3465           04602                           TC       TASKOVER
001086: 14,3466           11575                           CCS      TEMP
001087: 14,3467           03502                           TC       SOMETIME
001088: 14,3470           35234                           CA       LOW11
001089: 14,3471           54055        ALWAYS             TS       THRUST
001090: 14,3472           37654                           CA       BIT4
001091: 14,3473           00006                           EXTEND                                         #  A SMERZH FIX.
001092: 14,3474           05014                           WOR      14
001093: 14,3475           37652                           CA       BIT6                                  #  320 MS.DELAY
001094: 14,3476           04536                           TC       WAITLIST
001095: 14,3477           03460 30005                     2CADR    THROTASK
001096: 14,3501           04602                           TC       TASKOVER
001097: 14,3502           45234        SOMETIME           CS       LOW11
001098: 14,3503           03471                           TC       ALWAYS
001099: 14,3504           11576        ALTASK             CCS      NOBITS                                #  IS TASK STILL REQ
001100: 14,3505           03512                           TC       +5
001101: 14,3506           31574                           CA       TEMPADD                               #  NO
001102: 14,3507           55576                           TS       NOBITS                                #  ENABLES NEXT TASK
001103: 14,3510           04422                           TC       JOBWAKE
001104: 14,3511           04602                           TC       TASKOVER
001105: 14,3512           33644                           CA       ALBITS                                #  ACTUAL TASK STARTS HERE
001106: 14,3513           54060                           TS       ALTM
001107: 14,3514           37655                           CA       BIT3
001108: 14,3515           00006                           EXTEND
001109: 14,3516           05014                           WOR      14
001110: 14,3517           37652                           CA       BIT6                                  #  320 MS. DELAY
001111: 14,3520           04536                           TC       WAITLIST
001112: 14,3521           03504 30005                     2CADR    ALTASK
001113:


001115: 14,3523           04602                           TC       TASKOVER
001116: 14,3524           33350        ALTMET             CA       METERADD
001117: 14,3525           55574                           TS       TEMPADD
001118: 14,3526           04416                           TC       JOBSLEEP
001119: 14,3527           37665                           CA       ZERO
001120: 14,3530           55575                           TS       TEMP
001121: 14,3531           47654                           CS       BIT4
001122: 14,3532           00006                           EXTEND
001123: 14,3533           03014                           WAND     14
001124: 14,3534           00004                           INHINT
001125: 14,3535           37657                           CA       ONE
001126: 14,3536           04536                           TC       WAITLIST
001127: 14,3537           03504 30005                     2CADR    ALTASK
001128: 14,3541           00003                           RELINT
001129: 14,3542           33650                           CA       WAITER
001130: 14,3543           05332                           TC       NVSBWAIT
001131: 14,3544           05140                           TC       ENDIDLE
001132: 14,3545           02745                           TC       ENDTEST
001133: 14,3546           37665                           CA       ZERO
001134: 14,3547           55576                           TS       NOBITS
001135: 14,3550           03332                           TC       BACK1
001136:
001137: 14,3551           33351        ALTRMET            CA       MRATEADD
001138: 14,3552           55574                           TS       TEMPADD
001139: 14,3553           04416                           TC       JOBSLEEP
001140: 14,3554           37657                           CA       ONE
001141: 14,3555           55575                           TS       TEMP                                  #  TEMP WILL BE INDEXED TO ACQUIRE BIT2 INS
001142:                                                                                                  #  TEAD OF BIT3
001143: 14,3556           37656                           CA       BIT2
001144: 14,3557           00006                           EXTEND
001145: 14,3560           05014                           WOR      14
001146: 14,3561           03534                           TC       ALTMET     +8D
001147:


001149:                                                                                                  #       THE AOT ANGLE CHECKING PROGRAM PROVIDES A SIMPLE VERIFICATION OF THE ACCURACY OF THE AOT,  THE IDEA IS TO
001150:                                                                                                  #  COMPUTE THE ANGLE BETWEEN TWO LINES OF SIGHT AS INDICATED BY THE AOT, WHICH IS WHAT THIS PROGRAM DOES.
001151:                                                                                                  #  INDEPENDENT KNOWLEDGE OF THE INCLUDED ANGLE PROVIDES A COMPARISON AND THUS A MEASURE OF THE AOT ACCURACY.
001152:                                                                                                  #        THE ISS NEED NOT BE ON TO RUN THIS PROGRAM.
001153:
001154:
001155:
001156: 14,3562           06000        AOTANGCK           TC       INTPRET
001157: 14,3563           77414                           SET      EXIT                                  #  IN CASE THE ISS IS OFF.
001158: 14,3564           00065                                    COAROFIN
001159: 14,3565           02135                           TC       FINDNAVB                              #  FOR LOS1 AND LOS2.
001160: 14,3566           06000                           TC       INTPRET
001161: 14,3567           47375                           VLOAD    VXV
001162: 14,3570           01601                                    LOS1
001163: 14,3571           01607                                    LOS2
001164: 14,3572           77646                           ABVAL
001165: 14,3573           22023                           STOVL    SINTH                                 #  SINTH = ABVAL (VXV ).
001166: 14,3574           01601                                    LOS1
001167: 14,3575           77641                           DOT
001168: 14,3576           01607                                    LOS2
001169: 14,3577           36021                           STCALL   COSTH                                 #  COSTH = V.V
001170: 14,3600           32440                                    ARCTRIG
001171: 14,3601           77624                           RTB
001172: 14,3602           33410                                    1STO2S                                #  DP 1S COMP SP 2S COMP.
001173: 14,3603           00025                           STORE    THETA
001174: 14,3604           77776                           EXIT
001175: 14,3605           33675                           CAF      THETAADR
001176: 14,3606           60104                           AD       FIXLOC
001177: 14,3607           54142                           TS       MPAC       +2
001178: 14,3610           33653                           CAF      V06N03E                               #  XXX.XX DEGREES IN R1.
001179: 14,3611           05332                           TC       NVSBWAIT
001180: 14,3612           12745                           TCF      ENDTEST
001181:


001183: 14,3613  E3,1400                                  EBANK=   1400
001184: 14,3613           00004        ZEROERAS           INHINT                                         #  PROGRAM BY MUNTZ TO ZERO ERASEABLE
001185: 14,3614           37665                           CAF      ZERO
001186: 14,3615           54026                           TS       TIME3
001187: 14,3616           33642                           CAF      OCT27
001188: 14,3617           54003                           TS       EBANK
001189: 14,3620           22007        ZEROLP             ZL
001190: 14,3621           50000                           INDEX    A
001191: 14,3622           23401                           LXCH     1401
001192: 14,3623           67656                           AD       TWO
001193: 14,3624           26003                           ADS      EBANK
001194: 14,3625           75235                           MASK     LOW8
001195: 14,3626           10000                           CCS      A
001196: 14,3627           13620                           TCF      ZEROLP
001197: 14,3630           10003                           CCS      EBANK
001198: 14,3631           13634                           TCF      ZEROLP1
001199: 14,3632           04102                           TC       POSTJUMP
001200: 14,3633           24000                           CADR     SLAP1
001201: 14,3634           00003        ZEROLP1            RELINT
001202: 14,3635           37665                           CAF      ZERO                                  #  KEEP T4RUPT GOING, BUT NOT CYCLING
001203: 14,3636           54350                           TS       DSRUPTSW
001204: 14,3637           00004                           INHINT
001205: 14,3640           47657                           CS       ONE
001206: 14,3641           13620                           TCF      ZEROLP
001207: 14,3642           00027        OCT27              OCT      27
001208:


001210: 14,3643  E5,1500                                  EBANK=   OGC
001211: 14,3643           00430        V04N30D            OCT      00430
001212: 14,3644           52525        ALBITS             OCT      52525
001213: 14,3645           70707        THRSBITS           OCT      70707
001214: 14,3646     7661               OCT12              =        TEN
001215: 14,3646     7662               OCT11              =        NINE
001216: 14,3646           37400        CH12BITS           OCT      37400
001217: 14,3647           00130        V01N30D            OCT      00130
001218: 14,3650           03300        WAITER             OCT      03300
001219:
001220:
001221:
001222:
001223:
001224: 14,3651           00130        V01N30E            OCT      00130                                 #  FOR FINDNAVB
001225: 14,3652           00530        V05N30E            OCT      00530                                 #  FOR OPTDATA
001226: 14,3653           00603        V06N03E            OCT      00603
001227: 14,3654           00666        V06N66E            OCT      00666
001228: 14,3655           02430        V24N30E            OCT      02430                                 #  FOR POSITION LOAD
001229: 14,3656           02522        V25N22E            OCT      02522                                 #  FOR POS4
001230:
001231: 14,3657           00013        11DEC              DEC      11         B-14
001232: 14,3660           00021        17DEC              DEC      17         B-14
001233: 14,3661           00074        60DEC              DEC      60         B-14
001234: 14,3662           00077        63DEC              DEC      63         B-14
001235: 14,3663           00105        69DEC              DEC      69         B-14                       #  FOR MISALIGN
001236: 14,3664           00110        72DEC              DEC      72         B-14                       #  FOR STORRSLT
001237:
001238: 14,3665           05670        30SEC              DEC      3000       B-14                       #  3000 X 10 MSEC
001239: 14,3666           13560        60SEC              DEC      6000       B-14                       #  6000 X 10 MSEC
001240:
001241: 14,3667           01500        OGCADR             ADRES    OGC                                   #  FOR ZEROING
001242: 14,3670           01570        GENPLAD1           ADRES    GENPL
001243: 14,3671           02570        GENPLADR           ECADR    GENPL                                 #  FOR POS4
001244: 14,3672           00322 14366  KKKK               2DEC     210.39     B-14                       #  1230 B-14 FOR CSM
001245:
001246: 14,3674           03071        RDRRETN            ADRES    RDR1       +1                         #  FOR RDR37511
001247: 14,3675           00024        THETAADR           ECADR    THETA
001248: 14,3676           01400        XSMADRX            ADRES    XSM                                   #  FOR MAKEXSMD
001249:
001250: 14,3677           24365 30244  SCALFTR            2DEC     .64                                   #  FOR STORRSLT
001251:
001252: 14,3701           07623 26552  OMEG/MS            2DEC     .24339048                             #  GYRO PULSES / 10 MSEC
001253:


001255:                                                                                                  #           THE FOLOWING ROUTINE READS THE CLOCK AND SCALAR (CHANNEL 3 AND 4) INTO A AND L, INSURING THAT THE
001256:                                                                                                  #  DATA WAS NOT IN TRANSITION WHEN IT WAS READ.
001257:    5470                                           SETLOC   ENDFAILF
001258:    5470           00004        FINETIME           INHINT                                         #  RETURNS WITH INTERRUPT INHIBITED.
001259:    5471           00006                           EXTEND
001260:    5472           00004                           READ     LOSCALAR
001261:    5473           54001                           TS       L
001262:
001263:    5474           00006                           EXTEND                                         #  SEE IF 2 READINGS AGREE. IF NOT, READ
001264:    5475           06004                           RXOR     LOSCALAR                              #  LOSCALAR AGAIN.
001265:    5476           00006                           EXTEND
001266:    5477           15503                           BZF      +4
001267:
001268:    5500           00006                           EXTEND                                         #  IF CLOCK RIPPLED BEFORE, IT WONT NOW.
001269:    5501           00004                           READ     LOSCALAR
001270:    5502           54001                           TS       L
001271:
001272:    5503           47637                 +4        CS       POSMAX                                #  IF LOW PART CONTAINS SOMETHING LESS THAN
001273:    5504           60001                           AD       L                                     #  POSMAX, THE HIGH PART CAN BE READ SAFELY
001274:    5505           00006                           EXTEND
001275:    5506           15471                           BZF      FINETIME   +1                         #  TRY AGAIN - CONDITION WILL DISAPPEAR
001276:
001277:    5507           00006                           EXTEND
001278:    5510           00003                           READ     HISCALAR
001279:    5511           00002                           TC       Q
001280:
001281:    5512                        ENDIMUF            =
001282:


001284: 14,3703                                           SETLOC   OMEG/MS    +2
001285: 14,3703           04063        REDYTORK           TC       BANKCALL
001286: 14,3704           26716                           CADR     IMUSTALL
001287: 14,3705           12745                           TCF      ENDTEST
001288:
001289: 14,3706           02727                           TC       OGCZERO
001290:
001291: 14,3707           06000                           TC       INTPRET
001292: 14,3710           77634                           CALL
001293: 14,3711           30405                                    ERTHRVSE                              #  SETS UP EARTHRATE ANGLES AND TIME
001294: 14,3712           77776                           EXIT
001295: 14,3713           31617                           CA       OPTNREG                               #  INITIALIZE CDUNDX FOR PULSE CATCHING
001296: 14,3714           67670                           AD       NEG2                                  #  C(K) WAS 4 2 1 NOW C(A) IS 2 0 -1
001297: 14,3715           55616                           TS       GYTOBETQ                              #  C(K) = 2,0,-1 FOR  X,Y,Z
001298: 14,3716           00006                           EXTEND
001299: 14,3717           13722                           BZF      +3
001300: 14,3720           37656                           CAF      TWO
001301: 14,3721           03723                           TC       +2
001302: 14,3722           37657                           CAF      ONE
001303: 14,3723           55672                           TS       CDUNDX                                #  C(K) = 1 FOR Y, 2 FOR Z CDU SELECT
001304: 14,3724           04063                           TC       BANKCALL
001305: 14,3725           36545                           CADR     ENABLE
001306: 14,3726                        ENDIMUS1           EQUALS
001307:

End of include-file IMU_PERFORMANCE_TESTS_1.agc.  Parent file is MAIN.agc


