
Source Code


000002:                                                                                                  ## Copyright:    Public domain.
000003:                                                                                                  ## Filename:     INFLIGHT_ALIGNMENT_ROUTINES.agc
000004:                                                                                                  ## Purpose:      Part of the source code for Aurora (revision 12).
000005:                                                                                                  ## Assembler:    yaYUL
000006:                                                                                                  ## Contact:      Ron Burkey <info@sandroid.org>.
000007:                                                                                                  ## Website:      https://www.ibiblio.org/apollo.
000008:                                                                                                  ## Pages:        404-424
000009:                                                                                                  ## Mod history:  2016-09-20 JL   Created.
000010:                                                                                                  ##               2016-10-15 MC   Completed.
000011:                                                                                                  ##               2016-10-16 HG   Fix label AXISROT -> AXISROT1 (Duplicate label)
000012:                                                                                                  ##                               Fix operand RADMODE -> RADMODES
000013:                                                                                                  ##               2016-10-18 HG   Add missing interpretive operand ZPRIME
000014:                                                                                                  ##                                                                8D,1
000015:                                                                                                  ##                               Fix opcode STODL -> STCALL
000016:                                                                                                  ##              2016-10-23 RSB  All of the interpretive operands were
000017:                                                                                                  ##                              mis-aligned.  (Possibly the file had once been
000018:                                                                                                  ##                              processed "yaYUL --format" was buggy with
000019:                                                                                                  ##                              respect to interpretive-operand alignment.)
000020:
000021:                                                                                                  ## This source code has been transcribed or otherwise adapted from
000022:                                                                                                  ## digitized images of a hardcopy from the private collection of
000023:                                                                                                  ## Don Eyles.  The digitization was performed by archive.org.
000024:
000025:                                                                                                  ## Notations on the hardcopy document read, in part:
000026:
000027:                                                                                                  ##       473423A YUL SYSTEM FOR BLK2: REVISION 12 of PROGRAM AURORA BY DAP GROUP
000028:                                                                                                  ##       NOV 10, 1966
000029:
000030:                                                                                                  ##       [Note that this is the date the hardcopy was made, not the
000031:                                                                                                  ##       date of the program revision or the assembly.]
000032:
000033:                                                                                                  ## The scan images (with suitable reduction in storage size and consequent
000034:                                                                                                  ## reduction in image quality) are available online at
000035:                                                                                                  ##       https://www.ibiblio.org/apollo.
000036:                                                                                                  ## The original high-quality digital images are available at archive.org:
000037:                                                                                                  ##       https://archive.org/details/aurora00dapg
000038:


000040:
000041: 15,2367                                           SETLOC   ENDDNTMS
000042: 15,2367  E5,1400                                  EBANK=   XSM
000043:
000044:
000045:
000046:                                                                                                  #  CALCGTA COMPUTES THE GYRO TORQUE ANGLES REQUIRED TO BRING THE STABLE MEMBER INTO THE DESIRED ORIENTATION.
000047:
000048:                                                                                                  #  THE INPUT IS THE DESIRED STABLE MEMBER COORDINATES REFERRED TO PRESENT STABLE MEMBER COORDINATES. THE THREE
000049:                                                                                                  #  HALF-UNIT VECTORS ARE STORED AT XDC, YDC, AND ZDC.
000050:
000051:                                                                                                  #  THE OUTPUTS ARE THE THREE GYRO TORQUING ANGLES TO BE APPLIED TO THE Y, Z, AND X GYROS AND ARE STORED DP AT IGC,
000052:                                                                                                  #  MGC, AND OGC RESPECTIVELY. ANGLES ARE SCALED PROPERLY FOR IMUPULSE.
000053:
000054:
000055:
000056: 15,2367           71230        CALCGTA            ITA      DLOAD                                 #  PUSHDOWN 00,02,16D,18D,22D-26D,32D-36D
000057: 15,2370           00051                                    S2                                    #  XDC = (XD1 XD2 XD3)
000058: 15,2371           01423                                    XDC                                   #  YDC = (YD1 YD2 YD3)
000059: 15,2372           65325                           PDDL     PDDL                                  #  ZDC = (ZD1 ZD2 ZD3)
000060: 15,2373           33042                                    ZERODP
000061: 15,2374           01427                                    XDC        +4
000062: 15,2375           55476                           DCOMP    VDEF
000063: 15,2376           77656                           UNIT
000064: 15,2377           06027                           STODL    ZPRIME                                #  ZP = UNIT(-XD3 O XD1) = (ZP1 ZP2 ZP3)
000065: 15,2400           00027                                    ZPRIME
000066:
000067: 15,2401           77742                           SR1
000068: 15,2402           06023                           STODL    SINTH                                 #  SIN(IGC) = ZP1
000069: 15,2403           00033                                    ZPRIME     +4
000070: 15,2404           77742                           SR1
000071: 15,2405           36021                           STCALL   COSTH                                 #  COS(IGC) = ZP3
000072: 15,2406           32440                                    ARCTRIG
000073:
000074: 15,2407           07503                           STODL    IGC                                   #  Y GYRO TORQUING ANGLE  FRACTION OF REV.
000075: 15,2410           01425                                    XDC        +2
000076: 15,2411           77742                           SR1
000077: 15,2412           06023                           STODL    SINTH                                 #  SIN(MGC) = XD2
000078: 15,2413           00027                                    ZPRIME
000079:
000080: 15,2414           65205                           DMP      PDDL
000081: 15,2415           01427                                    XDC        +4                         #  PD00 = (ZP1)(XD3)
000082: 15,2416           00033                                    ZPRIME     +4
000083:
000084: 15,2417           45205                           DMP      DSU
000085: 15,2420           01423                                    XDC                                   #  MPAC = (ZP3)(XD1)
000086: 15,2421           77626                           STADR
000087: 15,2422           41756                           STCALL   COSTH                                 #  COS(MGC) = MPAC - PD00
000088: 15,2423           32440                                    ARCTRIG
000089:
000090: 15,2424           23505                           STOVL    MGC                                   #  Z GYRO TORQUING ANGLE  FRACTION OF REV.
000091: 15,2425           00027                                    ZPRIME


000093: 15,2426           77641                           DOT
000094: 15,2427           01437                                    ZDC
000095: 15,2430           22021                           STOVL    COSTH                                 #  COS(OGC) = ZP . ZDC
000096: 15,2431           00027                                    ZPRIME
000097: 15,2432           77641                           DOT
000098: 15,2433           01431                                    YDC
000099: 15,2434           36023                           STCALL   SINTH                                 #  SIN(OGC) = ZP . YDC
000100: 15,2435           32440                                    ARCTRIG
000101:
000102: 15,2436           37501                           STCALL   OGC                                   #  X GYRO TORQUING ANGLE  FRACTION OF REV.
000103: 15,2437           00051                                    S2


000105:
000106:                                                                                                  #  ARCTRIG COMPUTES AN ANGLE GIVEN THE SINE AND COSINE OF THIS ANGLE.
000107:
000108:                                                                                                  #  THE INPUTS ARE SIN/4 AND COS/4 STORED DP AT SINTH AND COSTH.
000109:
000110:                                                                                                  #  THE OUTPUT IS THE CALCULATED ANGLE BETWEEN +.5 AND -.5 REVOLUTIONS AND STORED AT THETA. THE OUTPUT IS ALSO
000111:                                                                                                  #  AVAILABLE AT MPAC.
000112:
000113:
000114:
000115: 15,2440           51545        ARCTRIG            DLOAD    ABS                                   #  PUSHDOWN 16D,18D,20D,22D-26D
000116: 15,2441           00023                                    SINTH
000117: 15,2442           50025                           DSU      BMN
000118: 15,2443           33030                                    QTSN45                                #  ABS(SIN/4) - SIN(45)/4
000119: 15,2444           32453                                    TRIG1                                 #  IF (-45,45) OR (135,-135)
000120:
000121:
000122:
000123: 15,2445           72545                           DLOAD    SL1                                   #  (45,135) OR (-135,-45)
000124: 15,2446           00021                                    COSTH
000125: 15,2447           75326                           ACOS     SIGN
000126: 15,2450           00023                                    SINTH
000127: 15,2451           00025                           STORE    THETA                                 #  X = ARCCOS(COS) WITH SIGN(SIN)
000128: 15,2452           77616                           RVQ
000129:
000130:
000131:
000132: 15,2453           72545        TRIG1              DLOAD    SL1                                   #  (-45,45) OR (135,-135)
000133: 15,2454           00023                                    SINTH
000134: 15,2455           77736                           ASIN
000135: 15,2456           06025                           STODL    THETA                                 #  X = ARCSIN(SIN) WITH SIGN(SIN)
000136: 15,2457           00021                                    COSTH
000137: 15,2460           77640                           BMN
000138: 15,2461           32464                                    TRIG2                                 #  IF (135,-135)
000139:
000140: 15,2462           43545                           DLOAD    RVQ
000141: 15,2463           00025                                    THETA                                 #  X = ARCSIN(SIN)   (-45,45)
000142:
000143:
000144:
000145: 15,2464           75345        TRIG2              DLOAD    SIGN                                  #  (135,-135)
000146: 15,2465           33032                                    HALFDP
000147: 15,2466           00023                                    SINTH
000148: 15,2467           77625                           DSU
000149: 15,2470           00025                                    THETA
000150: 15,2471           00025                           STORE    THETA                                 #  X = .5 WITH SIGN(SIN) - ARCSIN(SIN)
000151: 15,2472           77616                           RVQ                                            #                   (+) - (+) OR (-) - (-)


000153:
000154:                                                                                                  #  SMNB TRANSFORMS A STAR DIRECTION FROM STABLE MEMBER TO NAVIGATION BASE COORDINATES.
000155:
000156:                                                                                                  #  THE INPUTS ARE 1) THE STAR VECTOR REFERRED TO PRESENT STABLE MEMBER COORDINATES STORED AT LOCATION 32D OF THE
000157:                                                                                                  #  VAC AREA. 2) THE GIMBAL ANGLES (CDUY,CDUZ,CDUX) STORED AT ALTERNATING LOCATIONS RESPECTIVELY. THE ANGLES ARE
000158:                                                                                                  #  USUALLY STORED AT LOCATIONS 2,4, AND 6 OF THE MARK VAC AREA. THEY CAN BE STORED AT LOCATIONS 20,22, AND 24 OF
000159:                                                                                                  #  YOUR JOB VAC AREA. 3) THE BASE ADDRESS OF THE GIMBAL ANGLES STORED SP AT LOCATION S1 OF yOUR JOB VAC AREA.
000160:
000161:                                                                                                  #  THE OUTPUT IS THE STAR VECTOR REFERRED TO NAVIGATION BASE COORDINATES STORED AT 32D OF THE VAC AREA. THE OUTPUT
000162:                                                                                                  #  IS ALSO AVAILABLE AT MPAC.
000163:
000164:
000165:
000166: 15,2473           43030        SMNB               ITA      CLEAR                                 #  PUSHDOWN 00,02,04-10D,30D,32D-36D
000167: 15,2474           00051                                    S2
000168: 15,2475           00264                                    NBSMBIT                               #  SET NBSMBIT = 0
000169:
000170: 15,2476           77170        SMNB1              AXT,1    AXT,2                                 #  ROTATE X,Z, ABOUT Y
000171: 15,2477           00004                                    4
000172: 15,2500           00000                                    0
000173: 15,2501           77634                           CALL
000174: 15,2502           32543                                    AXISROT
000175:
000176: 15,2503           77170                           AXT,1    AXT,2                                 #  ROTATE Y,X ABOUT Z
000177: 15,2504           00002                                    2
000178: 15,2505           00004                                    4
000179: 15,2506           77634                           CALL
000180: 15,2507           32543                                    AXISROT
000181:
000182: 15,2510           77170                           AXT,1    AXT,2                                 #  ROTATE Z,Y ABOUT X
000183: 15,2511           00000                                    0
000184: 15,2512           00002                                    2
000185: 15,2513           77634                           CALL
000186: 15,2514           32543                                    AXISROT
000187:
000188: 15,2515           77650                           GOTO
000189: 15,2516           00051                                    S2


000191:
000192:                                                                                                  #  NBSM TRANSFORMS A STAR DIRECTION FROM NAVIGATION BASE TO STABLE MEMBER COORDINATES.
000193:
000194:                                                                                                  #  THE INPUTS ARE 1) THE SGAR VECTOR REFERRED TO NAVIGATION BASE COORDINATES STORED AT LOCATION 32D OF THE VAC
000195:                                                                                                  #  AREA. 2) THE GIMBAL ANGLES (CDUY,CDUZ,CDUX) STORED AT ALTERNATING LOCATIONS RESPECTIVELY. THE ANGLES ARE
000196:                                                                                                  #  USUALLY STORED AT LOCATIONS 2,4, AND 6 OF THE MARK VAC AREA. THEY CAN BE STORED AT LOCATIONS 20,22, AND 24 OF
000197:                                                                                                  #  YOUR JOB VAC AREA. 3) THE BASE ADDRESS OF THE GIMBAL ANGLES STORED SP AT LOCATION S1 OF YOUR JOB VAC AREA.
000198:
000199:                                                                                                  #  THE OUTPUT IS THE STAR VECTOR REFERRED TO PRESENT STABLE MEMBER COORDINATES STORED AT LOCATION 32D OF THE VAC
000200:                                                                                                  #  AREA. THE OUTPUT IS ALSO AVAILABLE AT MPAC.
000201:
000202:
000203:
000204: 15,2517           43030        NBSM               ITA      SET                                   #  PUSHDOWN 00,02,04-10D,30D,32D-36D
000205: 15,2520           00051                                    S2
000206: 15,2521           00064                                    NBSMBIT                               #  SET NBSMBIT = 1
000207:
000208: 15,2522           77170        NBSM2              AXT,1    AXT,2                                 #  ROTATE Z,Y ABOUT X
000209: 15,2523           00000                                    0
000210: 15,2524           00002                                    2
000211: 15,2525           77634                           CALL
000212: 15,2526           32543                                    AXISROT
000213:
000214: 15,2527           77170                           AXT,1    AXT,2                                 #  ROTATE Y,X ABOUT Z
000215: 15,2530           00002                                    2
000216: 15,2531           00004                                    4
000217: 15,2532           77634                           CALL
000218: 15,2533           32543                                    AXISROT
000219:
000220: 15,2534           77170                           AXT,1    AXT,2                                 #  ROTATE X,Z, ABOUT Y
000221: 15,2535           00004                                    4
000222: 15,2536           00000                                    0
000223: 15,2537           77634                           CALL
000224: 15,2540           32543                                    AXISROT
000225:
000226: 15,2541           77650                           GOTO
000227: 15,2542           00051                                    S2


000229:
000230:                                                                                                  #  AXISROT IS UTILIZED BY THE SMNB AND NBSM ROUTINES. SEE REMARKS ON THESE ROUTINES FOR INPUTS AND OUTPUTS.
000231:
000232:
000233:
000234: 15,2543           66660        AXISROT            XSU,1    SLOAD*
000235: 15,2544           00050                                    S1                                    #       SMNB         .       NBSM
000236: 15,2545           00005                                    4,1                                   #  IG    MG    OG    .  OG    MG    IG
000237: 15,2546           56024                           RTB      XAD,1
000238: 15,2547           33345                                    CDULOGIC
000239: 15,2550           00050                                    S1
000240: 15,2551           00037                           STORE    30D
000241:
000242: 15,2552           77746        ACCUROT            COS
000243: 15,2553           10011                           STODL    8D,1                                  #               COS(ANGLE)
000244: 15,2554           00037                                    30D
000245: 15,2555           77756                           SIN
000246: 15,2556           02013                           STORE    10D,1                                 #               SIN(ANGLE)
000247:
000248: 15,2557           72403                           DMP*     SL1
000249: 15,2560           77732                                    32D        +4,2
000250: 15,2561           40723                           PDDL*    DMP*                                  #                   PD0
000251: 15,2562           00011                                    8D,1                                  #  S3SIN S1SIN S2SIN . S2SIN S1SIN S3SIN
000252: 15,2563           77732                                    32D        +4,2
000253:
000254: 15,2564           64752                           SL1      PDDL*                                 #                   PD2
000255: 15,2565           00013                                    10D,1                                 #  S3COS S1COS S2COS . S2COS S1COS S3COS
000256:
000257: 15,2566           72403                           DMP*     SL1                                   #                  MPAC
000258: 15,2567           00045                                    32D        +4,1                       #  S1SIN S2SIN S3SIN . S3SIN S2SIN S1SIN
000259:
000260: 15,2570           77614                           BOFF
000261: 15,2571           00344                                    NBSMBIT
000262: 15,2572           32604                                    AXISROT1
000263:
000264: 15,2573           45421                           BDSU     STADR                                 #                    .   PD2 - MPAC
000265: 15,2574           57732                           STODL*   32D        +4,2                       #                    . S2    S1    S3
000266: 15,2575           00011                                    8D,1
000267:
000268: 15,2576           72403                           DMP*     SL1                                   #                    .      MPAC
000269: 15,2577           00045                                    32D        +4,1                       #                    . S3COS S2COS S1COS
000270:
000271: 15,2600           45415                           DAD      STADR                                 #                    .   PD0 + MPAC
000272: 15,2601           53732                           STOVL    32D        +4,1                       #                    . S3    S2    S1
000273: 15,2602           00041                                    32D
000274: 15,2603           77616                           RVQ
000275:
000276: 15,2604           45415        AXISROT1           DAD      STADR                                 #    MPAC + PD2      .
000277: 15,2605           57732                           STODL*   32D        +4,2                       #  S3    S1    S2    .
000278: 15,2606           00011                                    8D,1


000280: 15,2607           72403                           DMP*     SL1                                   #       MPAC         .
000281: 15,2610           00045                                    32D        +4,1                       #  S1COS S2COS S3COS .
000282:
000283: 15,2611           45425                           DSU      STADR                                 #    MPAC - PD0      .
000284: 15,2612           53732                           STOVL    32D        +4,1                       #  S1    S2    S3    .
000285: 15,2613           00041                                    32D
000286: 15,2614           77616                           RVQ


000288:
000289:                                                                                                  #  CALCGA COMPUTES THE CDU DRIVING ANGLES REQUIRED TO BRING THE STABLE MEMBER INTO THE DESIRED ORIENTATION.
000290:
000291:                                                                                                  #  THE INPUTS ARE  1) THE NAVIGATION BASE COORDINATES REFERRED TO ANY COORDINATE SYSTEM.  THE THREE HALF-UNIT
000292:                                                                                                  #  VECTORS ARE STORED AT XNB, YNB, AND ZNB.  2) THE DESIRED STABLE MEMBER COORDINATES REFERRED TO THE SAME
000293:                                                                                                  #  COORDINATE SYSTEM ARE STORED AT XSM, YSM, AND ZSM.
000294:
000295:                                                                                                  #  THE OUTPUTS ARE THE THREE CDU DRIVING ANGLES AND ARE STORED SP AT THETAD, THETAD +1, AND THETAD +2.
000296:
000297: 15,2615           47375        CALCGA             VLOAD    VXV                                   #  PUSHDONW 00-04,16D,18D
000298: 15,2616           01423                                    XNB                                   #  XNB = OGA (OUTER GIMBAL AXIS)
000299: 15,2617           01407                                    YSM                                   #  YSM = IGA (INNER GIMBAL AXIS)
000300: 15,2620           41456                           UNIT     PUSH                                  #  PD0 = UNIT(OGA X IGA) = MGA
000301:
000302: 15,2621           46041                           DOT      ITA
000303: 15,2622           01437                                    ZNB
000304: 15,2623           00051                                    S2
000305: 15,2624           22021                           STOVL    COSTH                                 #  COS(OG) = MGA . ZNB
000306: 15,2625           00001                                    0
000307: 15,2626           77641                           DOT
000308: 15,2627           01431                                    YNB
000309: 15,2630           36023                           STCALL   SINTH                                 #  SIN(OG) = MGA . YNB
000310: 15,2631           32440                                    ARCTRIG
000311: 15,2632           23501                           STOVL    OGC
000312: 15,2633           00001                                    0
000313:
000314: 15,2634           50235                           VXV      DOT                                   #  PROVISION FOR MG ANGLE OF 90 DEGREES
000315: 15,2635           01423                                    XNB
000316: 15,2636           01407                                    YSM
000317: 15,2637           77752                           SL1
000318: 15,2640           22021                           STOVL    COSTH                                 #  COS(MG) = IGA . (MGA X OGA)
000319: 15,2641           01407                                    YSM
000320: 15,2642           77641                           DOT
000321: 15,2643           01423                                    XNB
000322: 15,2644           36023                           STCALL   SINTH                                 #  SIN(MG) = IGA . OGA
000323: 15,2645           32440                                    ARCTRIG
000324: 15,2646           01505                           STORE    MGC
000325:
000326: 15,2647           45246                           ABS      DSU
000327: 15,2650           33050                                    .166...
000328: 15,2651           77644                           BPL
000329: 15,2652           32671                                    GIMLOCK1                              #  IF ANGLE GREATER THAN 60 DEGREES
000330:
000331: 15,2653           50375        CALCGA1            VLOAD    DOT
000332: 15,2654           01415                                    ZSM
000333: 15,2655           00001                                    0
000334: 15,2656           22021                           STOVL    COSTH                                 #  COS(IG) = ZSM . MGA
000335: 15,2657           01401                                    XSM


000337: 15,2660           45441                           DOT      STADR
000338: 15,2661           41754                           STCALL   SINTH                                 #  SIN(IG) = XSM . MGA
000339: 15,2662           32440                                    ARCTRIG
000340:
000341: 15,2663           23503                           STOVL    IGC
000342: 15,2664           01501                                    OGC
000343: 15,2665           77624                           RTB
000344: 15,2666           33414                                    V1STO2S
000345: 15,2667           36401                           STCALL   THETAD
000346: 15,2670           00051                                    S2
000347:
000348: 15,2671           77776        GIMLOCK1           EXIT
000349: 15,2672           05413                           TC       ALARM
000350: 15,2673           00401                           OCT      00401
000351: 15,2674           06000                           TC       INTPRET
000352: 15,2675           77650                           GOTO
000353: 15,2676           32653                                    CALCGA1


000355:
000356:                                                                                                  #  AXISGEN COMPUTES THE COORDINATES OF ONE COORDINATE SYSTEM REFERRED TO ANOTHER COORDINATE SYSTEM.
000357:
000358:                                                                                                  #  THE INPUTS ARE  1) THE STAR1 VECTOR REFERRED TO COORDINATE SYSTEM A STORED AT STARAD.  2) THE STAR2 VECTOR
000359:                                                                                                  #  REFERRED TO COORDINATE SYSTEM A STORED AT STARAD +6.  3) THE STAR1 VECTOR REFERRED TO COORDINATE SYSTEM B STORED
000360:                                                                                                  #  AT LOCATION 6 OF THE VAC AREA.  4) THE STAR2 VECTOR REFERRED TO COORDINATE SYSTEM B STORED AT LOCATION 12D OF
000361:                                                                                                  #  THE VAC AREA.
000362:
000363:                                                                                                  #  THE OUTPUT DEFINES COORDINATE SYSTEM A REFERRED TO COORDINATE SYSTEM B.  THE THREE HALF-UNIT VECTORS ARE STORED
000364:                                                                                                  #  AT LOCATIONS XDC, XDC +6, XDC +12D, AND STARAD, STARAD +6, STARAD +12D.
000365:
000366: 15,2677           66370        AXISGEN            AXT,1    SSP                                   #  PUSHDOWN 00-22D,24-28D,30D
000367: 15,2700           01452                                    STARAD     +6
000368: 15,2701           00051                                    S1
000369: 15,2702           01436                                    STARAD     -6
000370:
000371: 15,2703           46773        AXISGEN1           VLOAD*   VXV*                                  #  06D   UA = S1
000372: 15,2704           01461                                    STARAD     +12D,1                     #        STARAD +00D     UB = S1
000373: 15,2705           01467                                    STARAD     +18D,1
000374: 15,2706           77656                           UNIT                                           #  12D   VA = UNIT(S1 X S2)
000375: 15,2707           33467                           STOVL*   STARAD     +18D,1                     #        STARAD +06D     VB = UNIT(S1 X S2)
000376: 15,2710           01461                                    STARAD     +12D,1
000377:
000378: 15,2711           76433                           VXV*     VSL1
000379: 15,2712           01467                                    STARAD     +18D,1                     #  18D   WA = UA X VA
000380: 15,2713           03475                           STORE    STARAD     +24D,1                     #        STARAD +12D     WB = UB X VB
000381:
000382: 15,2714           77700                           TIX,1
000383: 15,2715           32703                                    AXISGEN1
000384:
000385: 15,2716           66160                           AXC,1    SXA,1
000386: 15,2717           00006                                    6
000387: 15,2720           00036                                    30D
000388:
000389: 15,2721           66370                           AXT,1    SSP
000390: 15,2722           00022                                    18D
000391: 15,2723           00051                                    S1
000392: 15,2724           00006                                    6
000393:
000394: 15,2725           66374                           AXT,2    SSP
000395: 15,2726           00006                                    6
000396: 15,2727           00052                                    S2
000397: 15,2730           00002                                    2
000398:
000399: 15,2731           76720        AXISGEN2           XCHX,1   VLOAD*
000400: 15,2732           00036                                    30D                                   #  X1=-6 X2=+6   X1=-6 X2=+4     X1=-6 X2=+2
000401: 15,2733           00001                                    0,1
000402: 15,2734           62757                           VXSC*    PDVL*                                 #  J=(UA)(UB1)   J=(UA)(UB2)     J=(UA)(UB3)
000403: 15,2735           76324                                    STARAD     +6,2


000405: 15,2736           00007                                    6,1
000406: 15,2737           77757                           VXSC*
000407: 15,2740           76316                                    STARAD     +12D,2
000408: 15,2741           30031                           STOVL*   24D                                   #  K=(VA)(VB1)   J=(VA)(VB2)     J=(VA)(VB3)
000409: 15,2742           00015                                    12D,1
000410:
000411: 15,2743           53357                           VXSC*    VAD
000412: 15,2744           76310                                    STARAD     +18D,2                     #  L=(WA)(WB1)   J=(WA)(WB2)     J=(WA)(WB3)
000413: 15,2745           76455                           VAD      VSL1
000414: 15,2746           00031                                    24D
000415: 15,2747           77720                           XCHX,1
000416: 15,2750           00036                                    30D
000417: 15,2751           03445                           STORE    XDC        +18D,1                     #  XDC = L+J+K   YDC = L+J+K     ZDC = L+J+K
000418:
000419: 15,2752           77700                           TIX,1
000420: 15,2753           32754                                    AXISGEN3
000421:
000422: 15,2754           77704        AXISGEN3           TIX,2
000423: 15,2755           32731                                    AXISGEN2
000424:
000425: 15,2756           77775                           VLOAD
000426: 15,2757           01423                                    XDC
000427: 15,2760           23445                           STOVL    STARAD
000428: 15,2761           01431                                    YDC
000429: 15,2762           23453                           STOVL    STARAD     +6
000430: 15,2763           01437                                    ZDC
000431: 15,2764           01461                           STORE    STARAD     +12D
000432:
000433: 15,2765           77616                           RVQ
000434:


000436:
000437:                                                                                                  #  TRANSPSE COMPUTES THE TRANSPOSE OF A MATRIX (TRANSPOSE = INVERSE OF ORTHOGONAL TRANSOFRMATION).
000438:
000439:                                                                                                  #  THE INPUT IS A MATRIX DEFINING COORDINATE SYSTEM A WITH RESPECT TO COORDINATE SYSTEM B STORED IN STARAD THRU
000440:                                                                                                  #  STARAD +17D.
000441:
000442:                                                                                                  #  THE OUTPUT IS A MATRIX DEFINING COORDINATE SYSTEM B WITH RESPECT TO COORDINATE SYSTEM A STORED IN STARAD THRU
000443:                                                                                                  #  STARAD +17D.
000444:
000445: 15,2766           53447        TRANSPSE           DXCH     STARAD     +2                         #  PUSHDOWN NONE
000446: 15,2767           53453                           DXCH     STARAD     +6
000447: 15,2770           53447                           DXCH     STARAD     +2
000448:
000449: 15,2771           53451                           DXCH     STARAD     +4
000450: 15,2772           53461                           DXCH     STARAD     +12D
000451: 15,2773           53451                           DXCH     STARAD     +4
000452:
000453: 15,2774           53457                           DXCH     STARAD     +10D
000454: 15,2775           53463                           DXCH     STARAD     +14D
000455: 15,2776           53457                           DXCH     STARAD     +10D
000456: 15,2777           16014                           TCF      DANZIG
000457:
000458:
000459:
000460:                                                                                                  #  SMD/EREF TRANSFORMS STABLE MEMBER DESIRED COORDINATES FROM STABLE MEMBER DESIRED (DESIRED = PRESENT HERE) TO
000461:                                                                                                  #  EARTH REFERENCE COORDINATES TO ALIGN THE STABLE MEMBER TO SPECIFIED GIMBAL ANGLES.
000462:
000463:                                                                                                  #  THE INPUTS ARE 1) THE MATRIX DEFINING THE EARTH REFERENCE COORDINATE FRAME WITH RESPECT TO THE NAVIGATION BASE
000464:                                                                                                  #  COORDINATE FRAME. 2) SAME AS 3) AND 3) of SMNB.
000465:
000466:                                                                                                  #  THE OUTPUT IS THE DESIRED STABLE MEMBER COORDINATES WITH RESPECT TO THE EARTH REFERENCE COORDINATE FRAME. THE
000467:                                                                                                  #  THREE UNIT VECTORS ARE STORED AT XSM, YSM, AND ZSM.
000468:
000469: 15,3000           77230        SMD/EREF           ITA      VLOAD                                 #  PUSHDOWN 00,02,04-10D,30D,32D-36D
000470: 15,3001           00014                                    12D
000471: 15,3002           33040                                    XUNIT
000472: 15,3003           36041                           STCALL   32D
000473: 15,3004           32473                                    SMNB                                  #  STABLE MEMBER TO NAVIGATION BASE
000474: 15,3005           76521                           MXV      VSL1
000475: 15,3006           01445                                    STARAD                                #  THEN TO EARTH REFERENCE
000476: 15,3007           23401                           STOVL    XSM
000477: 15,3010           33036                                    YUNIT
000478:
000479: 15,3011           36041                           STCALL   32D
000480: 15,3012           32473                                    SMNB                                  #  STABLE MEMBER TO NAVIGATION BASE
000481: 15,3013           76521                           MXV      VSL1
000482: 15,3014           01445                                    STARAD                                #  THEN TO EARTH REFERENCE
000483: 15,3015           23407                           STOVL    YSM
000484: 15,3016           33034                                    ZUNIT
000485:
000486: 15,3017           36041                           STCALL   32D


000488: 15,3020           32473                                    SMNB                                  #  STABLE MEMBER TO NAVIGATION BASE
000489: 15,3021           76521                           MXV      VSL1
000490: 15,3022           01445                                    STARAD                                #  THEN TO EARTH REFERENCE
000491: 15,3023           37415                           STCALL   ZSM
000492: 15,3024           00014                                    12D
000493:
000494: 15,3025           67777 77777  270DEG             2DEC     -.25
000495:
000496: 15,3027           05520 26075  QTSN45             2DEC     .1768
000497:
000498: 15,3031           20000 00000  HALFDP             2DEC     .5
000499:
000500: 15,3033           00000 00000  ZUNIT              2DEC     0          B-28
000501:
000502: 15,3035           00000 00000  YUNIT              2DEC     0          B-28
000503:
000504: 15,3037           20000 00000  XUNIT              2DEC     0.5
000505:
000506: 15,3041           00000 00000  ZERODP             2DEC     0          B-28
000507:
000508: 15,3043           00000 00000                     2DEC     0          B-28
000509:
000510: 15,3045           00000 00000                     2DEC     0          B-28
000511:
000512: 15,3047           05252 25253  .166...            2DEC     .1666666667
000513:


000515:
000516:                                                                                                  #  AOTNB CONVERTS THE TWO RETICLE ROTATION ANGLES (YROT AND SROT) AND
000517:                                                                                                  #  THE DETENT SETTING TO A HALF UNIT STAR VECTOR REFERRED TO THE
000518:                                                                                                  #  NAVIGATION BASE.
000519:
000520:                                                                                                  #  THE INPUTS ARE
000521:
000522:                                                                                                  #     Y RET. LINE RATATION S(YROT) STORED IN LOC 3 OF THE MARK VAC AREA
000523:                                                                                                  #     SPIRAL ROTATION ANGLE S(SROT) STORED IN LOC 5 OF MARC VAC AREA
000524:                                                                                                  #     ANGLE OF CENTER OF FIELD OF VIEW S(ELV) STORED IN LOC 9 OF MARK VAC
000525:                                                                                                  #     AOT ASZIMUTH ANGLE S(DET) STORED IN LOC 8 OF MARK VAC AREA
000526:                                                                                                  #     THE COMPLEMENT OF BASE ADDRESS OF MARK VAC IS STORED AT X1
000527:
000528:                                                                                                  #  THE OUTPUT IS A HALF UNIT STAR VECTOR IN NB COORDINATES STORED
000529:                                                                                                  #  AT 32D AND AVAILABLE IN VAC ON RETURN TO THE CALLING PROGRAM
000530:
000531: 15,3051           66601        AOTNB              SETPD    SLOAD*
000532: 15,3052           00001                                    0
000533: 15,3053           00004                                    3,1
000534: 15,3054           41424                           RTB      PUSH
000535: 15,3055           33345                                    CDULOGIC
000536: 15,3056           00017                           STORE    14D
000537: 15,3057           65346                           COS      PDDL
000538: 15,3060           41556                           SIN      PUSH
000539: 15,3061           45133                           SLOAD*   RTB
000540: 15,3062           00006                                    5,1
000541: 15,3063           33345                                    CDULOGIC
000542: 15,3064           00021                           STORE    16D                                   #  STORE S IF S AND Y ARE ZERO, S=0
000543: 15,3065           52054                           BZE      GOTO                                  #  S NOT ZERO
000544: 15,3066           33070                                    SISZ                                  #  S=0
000545: 15,3067           33100                                    SCOMP
000546: 15,3070           53145        SISZ               DLOAD    BZE                                   #  IS Y ZERO
000547: 15,3071           00017                                    14D
000548: 15,3072           33075                                    YISZ                                  #  Y=0
000549: 15,3073           77650                           GOTO
000550: 15,3074           33100                                    SCOMP
000551: 15,3075           52145        YISZ               DLOAD    GOTO
000552: 15,3076           33042                                    ZERODP
000553: 15,3077           33105                                    SGOT
000554: 15,3100           45345        SCOMP              DLOAD    DSU
000555: 15,3101           00017                                    14D
000556: 15,3102           00021                                    16D                                   #  Y=S
000557: 15,3103           77621                           BDSU
000558: 15,3104           33172                                    NEARONE                               #  S=360-(Y-S)
000559: 15,3105           41405        SGOT               DMP      PUSH
000560: 15,3106           33170                                    DP1/12
000561: 15,3107           65346                           COS      PDDL
000562: 15,3110           41556                           SIN      PUSH
000563: 15,3111           72405                           DMP      SL1
000564: 15,3112           00001                                    0
000565: 15,3113           06001                           STODL    0


000567: 15,3114           00003                                    2
000568: 15,3115           45405                           DMP      STADR
000569: 15,3116           77774                           STORE    2
000570:
000571: 15,3117           45133                           SLOAD*   RTB
000572: 15,3120           00012                                    9D,1
000573: 15,3121           33345                                    CDULOGIC
000574: 15,3122           73406                           PUSH     SIN
000575: 15,3123           71525                           PDDL     COS
000576: 15,3124           41206                           PUSH     DMP
000577: 15,3125           00001                                    0
000578: 15,3126           41325                           PDDL     DMP
000579: 15,3127           00005                                    4
000580: 15,3130           00007                                    6
000581: 15,3131           72415                           DAD      SL1
000582: 15,3132           77626                           STADR
000583: 15,3133           71736                           STODL    32D
000584:
000585: 15,3134           77605                           DMP
000586: 15,3135           00005                                    4
000587: 15,3136           06005                           STODL    4
000588:
000589: 15,3137           44205                           DMP      BDSU
000590: 15,3140           00001                                    0
000591: 15,3141           66606                           PUSH     SLOAD*
000592: 15,3142           00011                                    8D,1
000593: 15,3143           41424                           RTB      PUSH
000594: 15,3144           33345                                    CDULOGIC
000595: 15,3145           65346                           COS      PDDL
000596: 15,3146           77756                           SIN
000597: 15,3147           00001                           STORE    0
000598:
000599: 15,3150           65205                           DMP      PDDL
000600: 15,3151           00005                                    4
000601: 15,3152           00007                                    6
000602: 15,3153           43205                           DMP      DAD
000603: 15,3154           00003                                    2
000604: 15,3155           77712                           SL2
000605: 15,3156           06043                           STODL    34D
000606:
000607: 15,3157           45405                           DMP      STADR
000608: 15,3160           71732                           STODL    36D
000609:
000610: 15,3161           77605                           DMP
000611: 15,3162           62421                           BDSU     SL2
000612: 15,3163           00045                                    36D
000613: 15,3164           22045                           STOVL    36D
000614: 15,3165           00041                                    32D
000615: 15,3166           77616                           RVQ


000617: 15,3167           02525 12525  DP1/12             2DEC     .0833333333
000618:
000619: 15,3171           37777 37777  NEARONE            2DEC     .999999999
000620:


000622:
000623:                                                                                                  #  AOTSM CALCULATES A HALF UNIT STAR VECTOR IN STABLE MEMBER COORDINATES
000624:                                                                                                  #  FROM TWO PLANES CONTAINING THE STAR REFERRED TO NB
000625:
000626:                                                                                                  #  THE INPUTS ARE
000627:
000628:                                                                                                  #     AOT AZIMUTH AND ELEVATION STORED IN 8D AND 9D RESP. OF VAC AREA
000629:                                                                                                  #     CDUY, CDUZ AND CDUX FROM A YMARK STORED AT 3, 5, AND 7 OF VAC AREA
000630:                                                                                                  #     CDUY, CDUZ AND CDUX FROM A XMARK STORED AT 2, 4, AND 6 OF VAC AREA
000631:                                                                                                  #  THE BASE ADDRESS OF THE CDUS IS STORED AT LOCATION S1
000632:
000633:                                                                                                  #  THE OUTPUT IS A STAR VECTOR REFERRED TO STABLE MEMBER AT LOC 32D
000634:                                                                                                  #  AND AVAILABLE IN MPAC
000635:
000636:
000637: 15,3173           77630        AOTSM              ITA
000638: 15,3174           00035                                    29D
000639: 15,3175           70001                           SETPD    LXC,1                                 #  PUT BASE ADR OF VAC AREA IN X1
000640: 15,3176           00015                                    12D
000641: 15,3177           00050                                    S1
000642: 15,3200           41545                           DLOAD    PUSH                                  #  ZERO 12 - 13
000643: 15,3201           33042                                    ZERODP
000644: 15,3202           45133                           SLOAD*   RTB                                   #  LOAD AZIMUTH ANGLE (D)
000645: 15,3203           00007                                    6,1
000646: 15,3204           33345                                    CDULOGIC
000647: 15,3205           71406                           PUSH     COS
000648: 15,3206           73525                           PDDL     SIN                                   #  1/2 COSD 14-15
000649: 15,3207           41476                           DCOMP    PUSH                                  #  -1/2 SIND 16-17
000650: 15,3210           45133                           SLOAD*   RTB                                   #  LOAD ELEVATION ANGLE (E)
000651: 15,3211           00010                                    7,1
000652: 15,3212           33345                                    CDULOGIC
000653: 15,3213           71406                           PUSH     COS
000654: 15,3214           06041                           STODL    32D                                   #  1/2COSE
000655: 15,3215           41556                           SIN      PUSH                                  #  1/2 SINE 18-19
000656: 15,3216           72405                           DMP      SL1
000657: 15,3217           00021                                    16D
000658: 15,3220           06043                           STODL    34D                                   #  -1/2 SINE SIND UP 18-19
000659: 15,3221           57405                           DMP      DCOMP
000660: 15,3222           00017                                    14D
000661: 15,3223           77752                           SL1
000662: 15,3224           36045                           STCALL   36D                                   #  -1/2SINE COSD
000663: 15,3225           32517                                    NBSM                                  #  GET X PLANE IN SM
000664: 15,3226           45515                           PDVL     STADR                                 #  X PLANE IN SM IN 12-17
000665: 15,3227           77736                           STORE    32D                                   #  Y PLANE IN NB
000666: 15,3230           62120                           XCHX,1   INCR,1
000667: 15,3231           00050                                    S1                                    #  ADD ONE TO BASE ADR OF VAC AREA
000668: 15,3232           00001                                    1
000669: 15,3233           47120                           XCHX,1   CALL
000670: 15,3234           00050                                    S1                                    #  PUT NEW BASE ADR BACK IN S1
000671: 15,3235           32517                                    NBSM                                  #  GET Y PLANE IN SM
000672: 15,3236           76435                           VXV      VSL1
000673: 15,3237           77676                           VCOMP


000675: 15,3240           00041                           STORE    32D                                   #  STORE STAR VEC REFERRED TO SM
000676: 15,3241           77650                           GOTO
000677: 15,3242           00035                                    29D
000678:


000680:
000681:                                                                                                  #           GIVEN RR TRUNION AND SHAFT (T,S) IN TANG,+1, FINAD THE ASSOCIATED LINE OF SIGNT IN NAV BASE AXES.
000682:                                                                                                  #  THE HALF UNIT VECTOR, .5( SIN(S)COS(T),-SIN(T),COS(S)COS(T) ) IS LEFT IN MPAC AND 32D.
000683:
000684: 15,3243           45135        RRNB               SLOAD    RTB
000685: 15,3244           00424                                    TANG
000686: 15,3245           33345                                    CDULOGIC
000687: 15,3246           41401                           SETPD    PUSH                                  #  TRUNNION ANGLE TO 0.
000688: 15,3247           00001                                    0
000689: 15,3250           57556                           SIN      DCOMP
000690: 15,3251           06043                           STODL    34D                                   #  Y COMPONENT.
000691:
000692: 15,3252           41546                           COS      PUSH                                  #  .5 COS(T) TO 0.
000693: 15,3253           45135                           SLOAD    RTB
000694: 15,3254           00425                                    TANG       +1
000695: 15,3255           33345                                    CDULOGIC
000696: 15,3256           71406                           PUSH     COS                                   #  SHAFT ANGLE TO 2.
000697: 15,3257           72405                           DMP      SL1
000698: 15,3260           00001                                    0
000699: 15,3261           06045                           STODL    36D                                   #  Z COMPONENT
000700:
000701: 15,3262           41356                           SIN      DMP
000702: 15,3263           77752                           SL1
000703: 15,3264           22041                           STOVL    32D
000704: 15,3265           00041                                    32D
000705: 15,3266           77616                           RVQ
000706:


000708:
000709:                                                                                                  #            THE FOLLOWING ROUTINE TAKES A HALF UNIT TARGET VECTOR REFERRED TO NAV BASE COORDINATES AND FINDS BOTH
000710:                                                                                                  #  GIMBAL ORIENTATION AT WHICH THE RR MIGHT SIGHT THE TARGET. THE GIMBAL ANGLES CORRESPONDING TO THE PRESENT MODE
000711:                                                                                                  #  ARE LEFT IN MODEA AND THOSE WHICH WOULD BE USED AFTER A REMODE IN MODEB. THIS ROUTINE ASSUMES MODE 1 IS TRUNNION
000712:                                                                                                  #  ANGLE LESS THAN 90 DEGS IN ABS VALUE WITH ARBITRARY SHAFT, WITH A CORRESPONDING DEFINITION FOR MODE 2. MODE
000713:                                                                                                  #  SELECTION AND LIMIT CHECKING ARE DONE ELSEWHERE.
000714:
000715:                                                                                                  #            THE MODE 1 CONFIGURATION IS CALCULATED FROM THE VECTOR AND THEN MODE 2 IS FOUND USING THE RELATIONS
000716:
000717:                                                                                                  #            S(2) = 180 + S(1)
000718:                                                                                                  #            T(2) = 180 - T(1)
000719:
000720: 15,3267           57545        RRANGLES           DLOAD    DCOMP                                 #  SINCE WE WILL FIND THE MODE 1 SHAFT
000721: 15,3270           00043                                    34D                                   #  ANGLE LATER, WE CAN FIND THE MODE 1
000722: 15,3271           67401                           SETPD    ASIN                                  #  TRUNNION BY SIMPLY TAKING THE ARCSIN OF
000723: 15,3272           00001                                    0                                     #  THE Y COMPONENT, THE ASIN GIVING AN
000724: 15,3273           44206                           PUSH     BDSU                                  #  ANSWER WHOSE ABS VAL IS LES THAN 90 DEG
000725: 15,3274           33032                                    HALFDP
000726: 15,3275           06005                           STODL    4                                     #  MODE 2 TRUNNION TO 4.
000727:
000728: 15,3276           33042                                    ZERODP
000729: 15,3277           22043                           STOVL    34D                                   #  UNIT THE PROJECTION OF THE VECTOR IN THE
000730: 15,3300           00041                                    32D                                   #  X-Z PLANE.
000731: 15,3301           41056                           UNIT     BOVB                                  #  CALL FOR S/C MANEUVER ON GIMBAL LOCK.
000732: 15,3302           20346                                    DESRETRN   +1
000733: 15,3303           06041                           STODL    32D                                   #  PROJECTION VECTOR.
000734: 15,3304           00041                                    32D
000735: 15,3305           46142                           SR1      STQ
000736: 15,3306           00051                                    S2
000737: 15,3307           06023                           STODL    SINTH                                 #  USE ARCTRIG SINCE SHAFT COULD BE ARB.
000738: 15,3310           00045                                    36D
000739: 15,3311           77742                           SR1
000740: 15,3312           36021                           STCALL   COSTH
000741: 15,3313           32440                                    ARCTRIG


000743: 15,3314           43206                           PUSH     DAD                                   #  MODE 1 SHAFT TO 2.
000744: 15,3315           33032                                    HALFDP                                #  (OVERFLOW DOESNT MATTER SINCE SCALED REV
000745: 15,3316           22007                           STOVL    6
000746: 15,3317           00005                                    4
000747: 15,3320           77624                           RTB                                            #  FIND MODE 2 CDU ANGLES.
000748: 15,3321           33431                                    2V1STO2S
000749: 15,3322           22426                           STOVL    MODEB
000750: 15,3323           00001                                    0
000751: 15,3324           77624                           RTB                                            #  MODE 1 ANGLES TO MODE A.
000752: 15,3325           33431                                    2V1STO2S
000753: 15,3326           00424                           STORE    MODEA
000754: 15,3327           77776                           EXIT
000755:
000756: 15,3330           40413                           CS       RADMODES                              #  SWAP MODEA AND MODEB IF RR IN MODE2.
000757: 15,3331           77644                           MASK     BIT12
000758: 15,3332           10000                           CCS      A
000759: 15,3333           13337                           TCF      +4
000760:
000761: 15,3334           52424                           DXCH     MODEA
000762: 15,3335           52426                           DXCH     MODEB
000763: 15,3336           52424                           DXCH     MODEA
000764:
000765: 15,3337           06000                           TC       INTPRET
000766: 15,3340           77650                           GOTO
000767: 15,3341           00051                                    S2
000768:
000769: 15,3342                        ENDINFSS           EQUALS

End of include-file INFLIGHT_ALIGNMENT_ROUTINES.agc.  Parent file is MAIN.agc


