
Source Code


000002:                                                                                                  ## Copyright:    Public domain.
000003:                                                                                                  ## Filename:     INTERRUPT_LEAD_INS.agc
000004:                                                                                                  ## Purpose:      Part of the source code for Aurora (revision 12).
000005:                                                                                                  ## Assembler:    yaYUL
000006:                                                                                                  ## Contact:      Ron Burkey <info@sandroid.org>.
000007:                                                                                                  ## Website:      https://www.ibiblio.org/apollo.
000008:                                                                                                  ## Pages:        27-28
000009:                                                                                                  ## Mod history:  2016-09-20 JL   Created.
000010:                                                                                                  ##               2016-10-04 hg   Fix instruction argument, label
000011:
000012:                                                                                                  ## This source code has been transcribed or otherwise adapted from
000013:                                                                                                  ## digitized images of a hardcopy from the private collection of
000014:                                                                                                  ## Don Eyles.  The digitization was performed by archive.org.
000015:
000016:                                                                                                  ## Notations on the hardcopy document read, in part:
000017:
000018:                                                                                                  ##       473423A YUL SYSTEM FOR BLK2: REVISION 12 of PROGRAM AURORA BY DAP GROUP
000019:                                                                                                  ##       NOV 10, 1966
000020:
000021:                                                                                                  ##       [Note that this is the date the hardcopy was made, not the
000022:                                                                                                  ##       date of the program revision or the assembly.]
000023:
000024:                                                                                                  ## The scan images (with suitable reduction in storage size and consequent
000025:                                                                                                  ## reduction in image quality) are available online at
000026:                                                                                                  ##       https://www.ibiblio.org/apollo.
000027:                                                                                                  ## The original high-quality digital images are available at archive.org:
000028:                                                                                                  ##       https://archive.org/details/aurora00dapg
000029:


000031:    4000                                           SETLOC   4000
000032:
000033:    4000           00004                           INHINT                                         #  GO
000034:    4001           34054                           CAF      GOBB
000035:    4002           56006                           XCH      BBANK
000036:    4003           12072                           TCF      GOPROG
000037:
000038:    4004           52011                           DXCH     ARUPT                                 #  HERE ON A T6RUPT
000039:    4005           00006                           EXTEND
000040:    4006           22012                           QXCH     QRUPT
000041:    4007           14175                           TCF      DOT6RUPT                              #  DOT6RUPT IS IN FIX-FIXED.(INTR-BANK COM)
000042:
000043:    4010           52011                           DXCH     ARUPT                                 #  T5RUPT
000044:    4011           00006                           EXTEND
000045:    4012           30346                           DCA      T5LOC                                 #  T5LOC EQUALS T5ADR
000046:    4013           52006                           DTCB
000047:
000048:    4014           52011                           DXCH     ARUPT                                 #  T3RUPT
000049:    4015           34056                           CAF      T3RPTBB
000050:    4016           56006                           XCH      BBANK
000051:    4017           12736                           TCF      T3RUPT
000052:
000053:    4020           52011                           DXCH     ARUPT                                 #  T4RUPT
000054:    4021           37665                           CAF      ZERO
000055:    4022           14713                           TCF      T4RUPT
000056:    4023  E6,1404                                  EBANK=   M11
000057:    4023           24006        T4RPTBB            BBCON    T4RUPTA
000058:
000059:    4024           52011                           DXCH     ARUPT                                 #  KEYRUPT1
000060:    4025           34057                           CAF      KEYRPTBB
000061:    4026           56006                           XCH      BBANK
000062:    4027           12362                           TCF      KEYRUPT1
000063:
000064:    4030           52011                           DXCH     ARUPT                                 #  KEYRUPT2
000065:    4031           34060                           CAF      MKRUPTBB
000066:    4032           56006                           XCH      BBANK
000067:    4033           13161                           TCF      MARKRUPT
000068:
000069:    4034           52011                           DXCH     ARUPT                                 #  UPRUPT
000070:    4035           34057                           CAF      UPRPTBB
000071:    4036           56006                           XCH      BBANK
000072:    4037           12402                           TCF      UPRUPT
000073:
000074:    4040           52011                           DXCH     ARUPT                                 #  DOWNRUPT
000075:    4041           34061                           CAF      DWNRPTBB
000076:    4042           56006                           XCH      BBANK
000077:    4043           12047                           TCF      DODOWNTM
000078:
000079:    4044           52011                           DXCH     ARUPT                                 #  RADAR RUPT
000080:    4045           34062                           CAF      RDRPTBB


000082:    4046           56006                           XCH      BBANK
000083:    4047           12707                           TCF      RADAREAD
000084:
000085:                                                                                                  #  TRAPS 31B AND 32 SHOULD NEVER BE SET. THEREFORE-
000086:                                                                                                  #  RUPT 10 WILL ALWAYS REFER TO THE HAND CONTROLLER LPD OR MINIMUM IMPULSE
000087:                                                                                                  #  USE. SEE GEORGE CHERRY FOR RATIONALE REGARDING THE AFORESAID.
000088:
000089:    4050           52011                           DXCH     ARUPT                                 #  RUPT 10 USED FOR RHC MINIMP MODE ONLY.
000090:    4051           37656                           CAF      TWO
000091:    4052           54773                           TS       DELAYCTR
000092:    4053           14610                           TCF      NOQRSM
000093:
000094:    4054  E3,1400                                  EBANK=   LST1                                  #  RESTART USES E0, E3
000095:    4054           24003        GOBB               BBCON    GOPROG
000096:
000097:    4055     0025                                  EBANK=   TIME1
000098:    4055           04000        T6RPTBB            BBCON    RESUME                                #  ***FIX LATER***
000099:
000100:    4056  E3,1400                                  EBANK=   LST1
000101:    4056           02003        T3RPTBB            BBCON    T3RUPT
000102:
000103:    4057     0077                                  EBANK=   KEYTEMP1
000104:    4057           16000        KEYRPTBB           BBCON    KEYRUPT1
000105:
000106:    4060  E3,1463                                  EBANK=   AOTAZ
000107:    4060           26003        MKRUPTBB           BBCON    MARKRUPT
000108:
000109:    4061     4057               UPRPTBB            =        KEYRPTBB
000110:
000111:    4061  E7,1403                                  EBANK=   DNTMBUFF
000112:    4061           32007        DWNRPTBB           BBCON    DODOWNTM
000113:
000114:    4062     0413                                  EBANK=   RADMODES
000115:    4062           20001        RDRPTBB            BBCON    RADAREAD
000116:
000117:    4063                        ENDINTFF           EQUALS

End of include-file INTERRUPT_LEAD_INS.agc.  Parent file is MAIN.agc


