
Source Code


000002:                                                                                                  ## Copyright:    Public domain.
000003:                                                                                                  ## Filename:     INTER-BANK_COMMUNICATION.agc
000004:                                                                                                  ## Purpose:      Part of the source code for Aurora (revision 12).
000005:                                                                                                  ## Assembler:    yaYUL
000006:                                                                                                  ## Contact:      Ron Burkey <info@sandroid.org>.
000007:                                                                                                  ## Website:      https://www.ibiblio.org/apollo.
000008:                                                                                                  ## Pages:        29-33
000009:                                                                                                  ## Mod history:  2016-09-20 JL   Created.
000010:                                                                                                  ##               2016-09-21 MAS  Filled out.
000011:                                                                                                  ##               2016-10-15 HG   Fix label ISWCALLL -> ISWCALL
000012:                                                                                                  ##               2016-12-07 RSB  Proofed the comments, mostly with
000013:                                                                                                  ##                               octopus/ProoferComments, but some pages
000014:                                                                                                  ##                               needed to be done manually.  Only some
000015:                                                                                                  ##                               column alignments were changed.
000016:
000017:                                                                                                  ## This source code has been transcribed or otherwise adapted from
000018:                                                                                                  ## digitized images of a hardcopy from the private collection of
000019:                                                                                                  ## Don Eyles.  The digitization was performed by archive.org.
000020:
000021:                                                                                                  ## Notations on the hardcopy document read, in part:
000022:
000023:                                                                                                  ##       473423A YUL SYSTEM FOR BLK2: REVISION 12 of PROGRAM AURORA BY DAP GROUP
000024:                                                                                                  ##       NOV 10, 1966
000025:
000026:                                                                                                  ##       [Note that this is the date the hardcopy was made, not the
000027:                                                                                                  ##       date of the program revision or the assembly.]
000028:
000029:                                                                                                  ## The scan images (with suitable reduction in storage size and consequent
000030:                                                                                                  ## reduction in image quality) are available online at
000031:                                                                                                  ##       https://www.ibiblio.org/apollo.
000032:                                                                                                  ## The original high-quality digital images are available at archive.org:
000033:                                                                                                  ##       https://archive.org/details/aurora00dapg
000034:


000036:                                                                                                  #           THE FOLLOWING ROUTINE CAN BE USED TO CALL A SUBROUTINE IN ANOTHER BANK. IN THE BANKCALL VERSION, THE
000037:                                                                                                  #  CADR OF THE SUBROUTINE IMMEDIATELY FOLLOWS THE  TC BANKCALL  INSTRUCTION, WITH C(A) AND C(L) PRESERVED.
000038:
000039:    4063                                           SETLOC   ENDINTFF
000040:    4063           52120        BANKCALL           DXCH     BUF2                                  #  SAVE INCOMING A,L.
000041:    4064           50002                           INDEX    Q                                     #  PICK UP CADR.
000042:    4065           30000                           CA       0
000043:    4066           24002                           INCR     Q                                     #  SO WE RETURN TO THE LOC. AFTER THE CADR.
000044:
000045:                                                                                                  #           SWCALL IS IDENTICAL TO BANKCALL, EXCEPT THAT THE CADR ARRIVES IN A.
000046:
000047:    4067           54001        SWCALL             TS       L
000048:    4070           22004                           LXCH     FBANK                                 #  SWITCH BANKS, SAVING RETURN.
000049:    4071           76426                           MASK     LOW10                                 #  GET SUB-ADDRESS OF CADR.
000050:    4072           56002                           XCH      Q                                     #  A,L NOW CONTAINS DP RETURN.
000051:    4073           52120                           DXCH     BUF2                                  #  RESTORING INPUTS IF THIS IS A BANKCALL.
000052:    4074           50002                           INDEX    Q
000053:    4075           02000                           TC       10000                                 #  SETTING Q TO SWRETURN.
000054:
000055:    4076           56120        SWRETURN           XCH      BUF2       +1                         #  COMES HERE TO RETURN TO CALLER. C(A,L)
000056:    4077           56004                           XCH      FBANK                                 #  ARE PRESERVED FOR RETURN.
000057:    4100           56120                           XCH      BUF2       +1
000058:    4101           00117                           TC       BUF2
000059:
000060:                                                                                                  #           THE FOLLOWING ROUTINE CAN BE USED AS A UNILATERAL JUMP WITH C(A,L) PRESERVED AND THE CADR IMMEDIATELY
000061:                                                                                                  #  FOLLOWING THE TC POSTJUMP INSTRUCTION.
000062:
000063:    4102           56002        POSTJUMP           XCH      Q                                     #  SAVE INCOMING C(A).
000064:    4103           50000                           INDEX    A                                     #  GET CADR.
000065:    4104           30000                           CA       0
000066:
000067:                                                                                                  #           BANKJUMP IS THE SAME AS POSTJUMP, EXCEPT THAT THE CADR ARRIVES IN A.
000068:
000069:    4105           54004        BANKJUMP           TS       FBANK
000070:    4106           76426                           MASK     LOW10
000071:    4107           56002                           XCH      Q                                     #  RESTORING INPUT C(A) IF THIS WAS A
000072:    4110           50002                           INDEX    Q                                     #  POSTJUMP.
000073:    4111           12000                           TCF      10000
000074:


000076:                                                                                                  #  THE FOLLOWING ROUTINE GETS THE RETURN CADR SAVED BY SWCALL OR BANKCALL AND LEAVES IT IN A.
000077:
000078:    4112           36426        MAKECADR           CAF      LOW10
000079:    4113           70117                           MASK     BUF2
000080:    4114           60120                           AD       BUF2       +1
000081:    4115           00002                           TC       Q
000082:
000083:                                                                                                  #  THE FOLLOWING ROUTINE OBTAINS THE TWO WORDS BEGINNING AT THE ADDRESS ARRIVING IN A, AND LEAVES THEM IN
000084:                                                                                                  #  A,L.
000085:
000086:    4116           54001        DATACALL           TS       L
000087:    4117           22004                           LXCH     FBANK
000088:    4120           22121                           LXCH     MPTEMP                                #  SAVE FORMER BANK.
000089:    4121           76426                           MASK     LOW10
000090:    4122           00006                           EXTEND
000091:    4123           50000                           INDEX    A
000092:    4124           32001                           DCA      10000
000093:
000094:    4125           56121                           XCH      MPTEMP
000095:    4126           54004                           TS       FBANK                                 #  RESTORE FBANK.
000096:    4127           30121                           CA       MPTEMP
000097:    4130           00002                           TC       Q
000098:


000100:                                                                                                  #  THE FOLLOWING SUBROUTINES PROVIDE TO THE BASIC PROGRAMMER ENTRY INTO AND RETURN FROM ANY INTERPRETIVE
000101:                                                                                                  #  CODING WHICH DOES NOT USE THE ENTERING CONTENTS OF Q AND WHICH RETURNS VIA DANZIG. C(A) AND C(L) ARE SAVED.
000102:
000103:                                                                                                  #  USER'S RESPONSIBILITY TO FILL IN ADVANCE THE APPROPRIATE OPERAND AND ADDRESS REGISTERS USED BY THE
000104:                                                                                                  #  INTERPRETIVE CODING SUCH AS MPAC, BUF, ADDRWD, ETC.; AND TO CONFIRM THAT THE INTERPRETIVE CODING MEETS THE
000105:                                                                                                  #  ABOVE RESTRICTIONS WITH RESPECT TO Q AND DANZIG.
000106:
000107:                                                                                                  #  USEPRET AND USPRCADR MUST NOT BE USED IN INTERRUPT.
000108:
000109:                                                                                                  #  1. USEPRET ACCESSES INTERPRETIVE CODING WHICH CAN BE ENTERED WITHOUT CHANGING FBANK.
000110:                                                                                                  #     THE CALLING SEQUENCE IS AS FOLLOWS:
000111:
000112:                                                                                                  #  L             TC              USEPRET
000113:                                                                                                  #  L+1           TC,TCF          INTPRETX                        TC,TCF MEANS TC OR TCF
000114:                                                                                                  #                                                                INTPRETX IS THE INTERPRETIVE CODING
000115:                                                                                                  #                                                                RETURN IS TO L+2
000116:
000117:                                                                                                  #  2. USPRCADR ACCESSES INTERPRETIVE CODING IN OTHER THAN THE USER'S FBANK. THE CALLING SEQUENCE IS AS FOLLOWS:
000118:
000119:                                                                                                  #  L             TC              USPRCADR
000120:                                                                                                  #  L+1           CADR            INTPRETX                        INTPRETX IS THE INTERPRETIVE CODING
000121:                                                                                                  #                                                                RETURN IS TO L+2
000122:
000123:    4131           56002        USEPRET            XCH      Q                                     #  FETCH Q, SAVING A
000124:    4132           54150                           TS       LOC                                   #  L+1 TO LOC
000125:    4133           30004                           CA       FBANK
000126:    4134           54151                           TS       BANKSET                               #  USERS BANK TO BANKSET
000127:    4135           37650                           CA       BIT8
000128:    4136           54023                           TS       EDOP                                  #  EXIT INSTRUCTION TO EDOP
000129:    4137           30002                           CA       Q                                     #  RETRIEVE ORIGINAL A
000130:    4140           00150                           TC       LOC
000131:
000132:    4141           54150        USPRCADR           TS       LOC                                   #  SAVE A
000133:    4142           37650                           CA       BIT8
000134:    4143           54023                           TS       EDOP                                  #  EXIT INSTRUCTION TO EDOP
000135:    4144           30004                           CA       FBANK
000136:    4145           54151                           TS       BANKSET                               #  USERS BANK TO BANKSET
000137:    4146           50002                           INDEX    Q
000138:    4147           30000                           CA       0
000139:    4150           54004                           TS       FBANK                                 #  INTERPRETIVE BANK TO FBANK
000140:    4151           76426                           MASK     LOW10                                 #  YIELDS INTERPRETIVE RELATIVE ADDRESS
000141:    4152           56002                           XCH      Q                                     #  INTERPRETIVE ADDRESS TO Q, FETCHING L+1
000142:    4153           56150                           XCH      LOC                                   #  L+1 TO LOC, RETRIEVING ORIGINAL A
000143:    4154           50002                           INDEX    Q
000144:    4155           12000                           TCF      10000
000145:


000147:                                                                                                  #  THE FOLLOWING ROUTINES ARE IDENTICAL TO BANKCALL AND SWCALL EXCEPT THAT THEY ARE USED IN INTERRUPT.
000148:
000149:    4156           52077        IBNKCALL           DXCH     RUPTREG3                              #  USES RUPTREG3,4 FOR DP RETURN ADDRESS.
000150:    4157           50002                           INDEX    Q
000151:    4160           30000                           CAF      0
000152:    4161           24002                           INCR     Q
000153:
000154:    4162           54001        ISWCALL            TS       L
000155:    4163           22004                           LXCH     FBANK
000156:    4164           76426                           MASK     LOW10
000157:    4165           56002                           XCH      Q
000158:    4166           52077                           DXCH     RUPTREG3
000159:    4167           50002                           INDEX    Q
000160:    4170           02000                           TC       10000
000161:
000162:    4171           56077        ISWRETRN           XCH      RUPTREG4
000163:    4172           56004                           XCH      FBANK
000164:    4173           56077                           XCH      RUPTREG4
000165:    4174           00076                           TC       RUPTREG3
000166:


000168:                                                                                                  #  T6-RUPT PROGRAMS.
000169:
000170:                                                                                                  #  ENTER HERE AFTER A T6-RUPT.DETERMINE IF IT IS A GENUINE RUPT.
000171:
000172:    4175           04177        DOT6RUPT           TC       T6JOBCHK
000173:    4176           14606                           TCF      RESUME
000174:
000175:                                                                                                  #  T6JOBCHK DETERMINES IF T6 = -0 ( A T6RUPT HAS OCCURRED ) OR IF T6
000176:                                                                                                  #  EQUALS +0 ( T6 NOT COUNTING DOWN ) OR =SOME POS.OR NEG. NUMBER ( T6
000177:                                                                                                  #  BEING DECREMENTED AND NO RUPT IS NEEDED ).
000178:
000179:    4177           10031        T6JOBCHK           CCS      TIME6
000180:    4200           00002                           TC       Q
000181:    4201           00002                           TC       Q
000182:    4202           00002                           TC       Q
000183:                                                                                                  #  T6JOB EXECUTES A JET STATE CHANGE AND SETS UP ANY ADDITIONAL T6 RUPTS
000184:                                                                                                  #  WHICH MIGHT BE NECESSARY.
000185:
000186:    4203           37665        T6JOB              CA       ZERO
000187:    4204           56767                           XCH      T6NEXT     +1
000188:    4205           56766                           XCH      T6NEXT
000189:    4206           54031                           TS       TIME6
000190:    4207           00006                           EXTEND
000191:    4210           14230                           BZF      T6ZERO
000192:    4211           37641                           CA       BIT15
000193:    4212           00006                           EXTEND
000194:    4213           05013                           WOR      13
000195:    4214           37665                           CA       ZERO
000196:    4215           56772                           XCH      T6NEXTJT   +2
000197:    4216           56771                           XCH      T6NEXTJT   +1
000198:    4217           56770                           XCH      T6NEXTJT
000199:    4220           00006        WRITEJTS           EXTEND
000200:    4221           64225                           BZMF     WRITEQR
000201:    4222           00006                           EXTEND
000202:    4223           01006                           WRITE    6
000203:    4224           00002                           TC       Q
000204:    4225           00006        WRITEQR            EXTEND
000205:    4226           01005                           WRITE    5
000206:    4227           00002                           TC       Q
000207:    4230           30770        T6ZERO             CA       T6NEXTJT
000208:    4231           14220                           TCF      WRITEJTS
000209:    4232                        ENDIBNKF           EQUALS

End of include-file INTER-BANK_COMMUNICATION.agc.  Parent file is MAIN.agc


