
Source Code


000002:                                                                                                  ## Copyright:    Public domain.
000003:                                                                                                  ## Filename:     INTER-BANK_COMMUNICATION.agc
000004:                                                                                                  ## Purpose:      Part of the source code for Aurora (revision 12).
000005:                                                                                                  ## Assembler:    yaYUL
000006:                                                                                                  ## Contact:      Ron Burkey <info@sandroid.org>.
000007:                                                                                                  ## Website:      https://www.ibiblio.org/apollo.
000008:                                                                                                  ## Pages:        29-33
000009:                                                                                                  ## Mod history:  2016-09-20 JL   Created.
000010:                                                                                                  ##               2016-09-21 MAS  Filled out.
000011:                                                                                                  ##               2016-10-15 HG   Fix label ISWCALLL -> ISWCALL
000012:
000013:                                                                                                  ## This source code has been transcribed or otherwise adapted from
000014:                                                                                                  ## digitized images of a hardcopy from the private collection of
000015:                                                                                                  ## Don Eyles.  The digitization was performed by archive.org.
000016:
000017:                                                                                                  ## Notations on the hardcopy document read, in part:
000018:
000019:                                                                                                  ##       473423A YUL SYSTEM FOR BLK2: REVISION 12 of PROGRAM AURORA BY DAP GROUP
000020:                                                                                                  ##       NOV 10, 1966
000021:
000022:                                                                                                  ##       [Note that this is the date the hardcopy was made, not the
000023:                                                                                                  ##       date of the program revision or the assembly.]
000024:
000025:                                                                                                  ## The scan images (with suitable reduction in storage size and consequent
000026:                                                                                                  ## reduction in image quality) are available online at
000027:                                                                                                  ##       https://www.ibiblio.org/apollo.
000028:                                                                                                  ## The original high-quality digital images are available at archive.org:
000029:                                                                                                  ##       https://archive.org/details/aurora00dapg
000030:


000032:                                                                                                  #  THE FOLLOWING ROUTINE CAN BE USED TO CALL A SUBROUTINE IN ANOTHER BANK. IN THE BANKCALL VERSION, THE
000033:                                                                                                  #  CADR OF THE SUBROUTINE IMMEDIATELY FOLLOWS THE TC BANKCALL INSTRUCTION, WITH C(A) AND C(L) PRESERVED.
000034:
000035:    4063                                           SETLOC   ENDINTFF
000036:    4063           52120        BANKCALL           DXCH     BUF2                                  #  SAVE INCOMING A,L.
000037:    4064           50002                           INDEX    Q                                     #  PICK UP CADR.
000038:    4065           30000                           CA       0
000039:    4066           24002                           INCR     Q                                     #  SO WE RETURN TO THE LOC. AFTER THE CADR.
000040:
000041:                                                                                                  #  SWCALL IS IDENTICAL TO BANKCALL, EXCEPT THAT THE CADR ARRIVES IN A.
000042:
000043:    4067           54001        SWCALL             TS       L
000044:    4070           22004                           LXCH     FBANK                                 #  SWITCH BANKS, SAVING RETURN.
000045:    4071           76426                           MASK     LOW10                                 #  GET SUB-ADDRESS OF CADR.
000046:    4072           56002                           XCH      Q                                     #  A,L NOW CONTAINS DP RETURN.
000047:    4073           52120                           DXCH     BUF2                                  #  RESTORING INPUTS IF THIS IS A BANKCALL.
000048:    4074           50002                           INDEX    Q
000049:    4075           02000                           TC       10000                                 #  SETTING Q TO SWRETURN.
000050:
000051:    4076           56120        SWRETURN           XCH      BUF2       +1                         #  COMES HERE TO RETURN TO CALLER. C(A,L)
000052:    4077           56004                           XCH      FBANK                                 #  ARE PRESERVED FOR RETURN.
000053:    4100           56120                           XCH      BUF2       +1
000054:    4101           00117                           TC       BUF2
000055:
000056:                                                                                                  #  THE FOLLOWING ROUTINE CAN BE USED AS A UNILATERAL JUMP WITH C(A,L) PRESERVED AND THE CADR IMMEDIATELY
000057:                                                                                                  #  FOLLOWING THE TC POSTJUMP INSTRUCTION.
000058:
000059:    4102           56002        POSTJUMP           XCH      Q                                     #  SAVE INCOMING C(A).
000060:    4103           50000                           INDEX    A                                     #  GET CADR.
000061:    4104           30000                           CA       0
000062:
000063:                                                                                                  #  BANKJUMP IS THE SAME AS POSTJUMP, EXCEPT THAT THE CADR ARRIVES IN A.
000064:
000065:    4105           54004        BANKJUMP           TS       FBANK
000066:    4106           76426                           MASK     LOW10
000067:    4107           56002                           XCH      Q                                     #  RESTORING INPUT C(A) IF THIS WAS A
000068:    4110           50002                           INDEX    Q                                     #  POSTJUMP.
000069:    4111           12000                           TCF      10000
000070:


000072:                                                                                                  #  THE FOLLOWING ROUTINE GETS THE RETURN CADR SAVED BY SWCALL OR BANKCALL AND LEAVES IT IN A.
000073:
000074:    4112           36426        MAKECADR           CAF      LOW10
000075:    4113           70117                           MASK     BUF2
000076:    4114           60120                           AD       BUF2       +1
000077:    4115           00002                           TC       Q
000078:
000079:                                                                                                  #  THE FOLLOWING ROUTINE OBTAINS THE TWO WORDS BEGINNING AT THE ADDRESS ARRIVING IN A, AND LEAVES THEM IN
000080:                                                                                                  #  A,L.
000081:
000082:    4116           54001        DATACALL           TS       L
000083:    4117           22004                           LXCH     FBANK
000084:    4120           22121                           LXCH     MPTEMP                                #  SAVE FORMER BANK.
000085:    4121           76426                           MASK     LOW10
000086:    4122           00006                           EXTEND
000087:    4123           50000                           INDEX    A
000088:    4124           32001                           DCA      10000
000089:
000090:    4125           56121                           XCH      MPTEMP
000091:    4126           54004                           TS       FBANK                                 #  RESTORE FBANK.
000092:    4127           30121                           CA       MPTEMP
000093:    4130           00002                           TC       Q
000094:


000096:                                                                                                  #  THE FOLLOWING SUBROUTINES PROVIDE TO THE BASIC PROGRAMMER ENTRY INTO AND RETURN FROM ANY INTERPRETIVE
000097:                                                                                                  #  CODING WHICH DOES NOT USE THE ENTERING CONTENTS OF Q AND WHICH RETURNS VIA DANZIG. C(A) AND C(L) ARE SAVED.
000098:
000099:                                                                                                  #  USER'S RESPONSIBILITY TO FILL IN ADVANCE THE APPROPRIATE OPERAND AND ADDRESS REGISTERS USED BY THE
000100:                                                                                                  #  INTERPRETIVE CODING SUCH AS MPAC, BUF, ADDRWD, ETC.; AND TO CONFIRM THAT THE INTERPRETIVE CODING MEETS THE
000101:                                                                                                  #  ABOVE RESTRICTIONS WITH RESPECT TO Q AND DANZIG.
000102:
000103:                                                                                                  #  USEPRET AND USPRCADR MUST NOT BE USED IN INTERRUPT.
000104:
000105:                                                                                                  #  1. USEPRET ACCESSES INTERPRETIVE CODING WHICH CAN BE ENTERED WITHOUT CHANGING FBANK.
000106:                                                                                                  #     THE CALLING SEQUENCE IS AS FOLLOWS:
000107:
000108:                                                                                                  #  L             TC              USEPRET
000109:                                                                                                  #  L+1           TC,TCF          INTPRETX                        TC,TCF MEANS TC OR TCF
000110:                                                                                                  #                                                                INTPRETX IS THE INTERPRETIVE CODING
000111:                                                                                                  #                                                                RETURN IS TO L+2
000112:
000113:                                                                                                  #  2. USPRCADR ACCESSES INTERPRETIVE CODING IN OTHER THAN THE USER'S FBANK. THE CALLING SEQUENCE IS AS FOLLOWS:
000114:
000115:                                                                                                  #  L             TC              USPRCADR
000116:                                                                                                  #  L+1           CADR            INTPRETX                        INTPRETX IS THE INTERPRETIVE CODING
000117:                                                                                                  #                                                                RETURN IS TO L+2
000118:
000119:    4131           56002        USEPRET            XCH      Q                                     #  FETCH Q, SAVING A
000120:    4132           54150                           TS       LOC                                   #  L+1 TO LOC
000121:    4133           30004                           CA       FBANK
000122:    4134           54151                           TS       BANKSET                               #  USERS BANK TO BANKSET
000123:    4135           37650                           CA       BIT8
000124:    4136           54023                           TS       EDOP                                  #  EXIT INSTRUCTION TO EDOP
000125:    4137           30002                           CA       Q                                     #  RETRIEVE ORIGINAL A
000126:    4140           00150                           TC       LOC
000127:
000128:    4141           54150        USPRCADR           TS       LOC                                   #  SAVE A
000129:    4142           37650                           CA       BIT8
000130:    4143           54023                           TS       EDOP                                  #  EXIT INSTRUCTION TO EDOP
000131:    4144           30004                           CA       FBANK
000132:    4145           54151                           TS       BANKSET                               #  USERS BANK TO BANKSET
000133:    4146           50002                           INDEX    Q
000134:    4147           30000                           CA       0
000135:    4150           54004                           TS       FBANK                                 #  INTERPRETIVE BANK TO FBANK
000136:    4151           76426                           MASK     LOW10                                 #  YIELDS INTERPRETIVE RELATIVE ADDRESS
000137:    4152           56002                           XCH      Q                                     #  INTERPRETIVE ADDRESS TO Q, FETCHING L+1
000138:    4153           56150                           XCH      LOC                                   #  L+1 TO LOC, RETRIEVING ORIGINAL A
000139:    4154           50002                           INDEX    Q
000140:    4155           12000                           TCF      10000
000141:


000143:                                                                                                  #  THE FOLLOWING ROUTINES ARE IDENTICAL TO BANKCALL AND SWCALL EXCEPT THAT THEY ARE USED IN INTERRUPT.
000144:
000145:    4156           52077        IBNKCALL           DXCH     RUPTREG3                              #  USES RUPTREG3,4 FOR DP RETURN ADDRESS.
000146:    4157           50002                           INDEX    Q
000147:    4160           30000                           CAF      0
000148:    4161           24002                           INCR     Q
000149:
000150:    4162           54001        ISWCALL            TS       L
000151:    4163           22004                           LXCH     FBANK
000152:    4164           76426                           MASK     LOW10
000153:    4165           56002                           XCH      Q
000154:    4166           52077                           DXCH     RUPTREG3
000155:    4167           50002                           INDEX    Q
000156:    4170           02000                           TC       10000
000157:
000158:    4171           56077        ISWRETRN           XCH      RUPTREG4
000159:    4172           56004                           XCH      FBANK
000160:    4173           56077                           XCH      RUPTREG4
000161:    4174           00076                           TC       RUPTREG3
000162:


000164:                                                                                                  #  T6-RUPT PROGRAMS.
000165:
000166:                                                                                                  #  ENTER HERE AFTER A T6-RUPT.DETERMINE IF IT IS A GENUINE RUPT.
000167:
000168:    4175           04177        DOT6RUPT           TC       T6JOBCHK
000169:    4176           14606                           TCF      RESUME
000170:
000171:                                                                                                  #  T6JOBCHK DETERMINES IF T6 = -0 ( A T6RUPT HAS OCCURRED ) OR IF T6
000172:                                                                                                  #  EQUALS +0 ( T6 NOT COUNTING DOWN ) OR =SOME POS.OR NEG. NUMBER ( T6
000173:                                                                                                  #  BEING DECREMENTED AND NO RUPT IS NEEDED ).
000174:
000175:    4177           10031        T6JOBCHK           CCS      TIME6
000176:    4200           00002                           TC       Q
000177:    4201           00002                           TC       Q
000178:    4202           00002                           TC       Q
000179:                                                                                                  #  T6JOB EXECUTES A JET STATE CHANGE AND SETS UP ANY ADDITIONAL T6 RUPTS
000180:                                                                                                  #  WHICH MIGHT BE NECESSARY.
000181:
000182:    4203           37665        T6JOB              CA       ZERO
000183:    4204           56767                           XCH      T6NEXT     +1
000184:    4205           56766                           XCH      T6NEXT
000185:    4206           54031                           TS       TIME6
000186:    4207           00006                           EXTEND
000187:    4210           14230                           BZF      T6ZERO
000188:    4211           37641                           CA       BIT15
000189:    4212           00006                           EXTEND
000190:    4213           05013                           WOR      13
000191:    4214           37665                           CA       ZERO
000192:    4215           56772                           XCH      T6NEXTJT   +2
000193:    4216           56771                           XCH      T6NEXTJT   +1
000194:    4217           56770                           XCH      T6NEXTJT
000195:    4220           00006        WRITEJTS           EXTEND
000196:    4221           64225                           BZMF     WRITEQR
000197:    4222           00006                           EXTEND
000198:    4223           01006                           WRITE    6
000199:    4224           00002                           TC       Q
000200:    4225           00006        WRITEQR            EXTEND
000201:    4226           01005                           WRITE    5
000202:    4227           00002                           TC       Q
000203:    4230           30770        T6ZERO             CA       T6NEXTJT
000204:    4231           14220                           TCF      WRITEJTS
000205:    4232                        ENDIBNKF           EQUALS

End of include-file INTER-BANK_COMMUNICATION.agc.  Parent file is MAIN.agc


