
Source Code


000002:                                                                                                  ## Copyright:    Public domain.
000003:                                                                                                  ## Filename:     LEM_FLIGHT_CONTROL_SYSTEM_TEST.agc
000004:                                                                                                  ## Purpose:      Part of the source code for Aurora (revision 12).
000005:                                                                                                  ## Assembler:    yaYUL
000006:                                                                                                  ## Contact:      Ron Burkey <info@sandroid.org>.
000007:                                                                                                  ## Website:      https://www.ibiblio.org/apollo.
000008:                                                                                                  ## Pages:        431-443
000009:                                                                                                  ## Mod history:  2016-09-20 JL   Created.
000010:                                                                                                  ##               2016-09-27 MAS  Filled out.
000011:
000012:                                                                                                  ## This source code has been transcribed or otherwise adapted from
000013:                                                                                                  ## digitized images of a hardcopy from the private collection of
000014:                                                                                                  ## Don Eyles.  The digitization was performed by archive.org.
000015:
000016:                                                                                                  ## Notations on the hardcopy document read, in part:
000017:
000018:                                                                                                  ##       473423A YUL SYSTEM FOR BLK2: REVISION 12 of PROGRAM AURORA BY DAP GROUP
000019:                                                                                                  ##       NOV 10, 1966
000020:
000021:                                                                                                  ##       [Note that this is the date the hardcopy was made, not the
000022:                                                                                                  ##       date of the program revision or the assembly.]
000023:
000024:                                                                                                  ## The scan images (with suitable reduction in storage size and consequent
000025:                                                                                                  ## reduction in image quality) are available online at
000026:                                                                                                  ##       https://www.ibiblio.org/apollo.
000027:                                                                                                  ## The original high-quality digital images are available at archive.org:
000028:                                                                                                  ##       https://archive.org/details/aurora00dapg
000029:


000031: 06,2000                                           BANK     6
000032: 06,2000  E4,1407                                  EBANK=   JETSTEP
000033:
000034:                                                                                                  #  LEM FCS TEST  ENTRY AND INITIALIZATION JOB.
000035:
000036:                                                                                                  #        THIS JOB INITIALIZES THE ERASABLE TABLES FOR THE FCS TEST AND PUTS THE FOLLOWING PROGRAMS UNDER
000037:                                                                                                  #  WAITLIST CONTROL.
000038:                                                                                                  #             (1) RCS JET SET TASK
000039:                                                                                                  #             (2) ENGINE ON - OFF TASK
000040:                                                                                                  #             (3) DESCENT ENGINE GIMBAL TRIM TASK
000041:                                                                                                  #             (4) DESCENT ENGINE THROTTLE TASK
000042:                                                                                                  #             (5) INTERFACE CONTROL CHANNEL LOOK TASK
000043:
000044:
000045: 06,2000           05317        FCSSTART           TC       GRABWAIT                              #  SO NOTHING DISRUPTS THE LOAD.
000046: 06,2001           32054                           CAF      JSTEPADR                              #  THE START OF THE LIST.
000047: 06,2002           10000        FCS3               CCS      A
000048: 06,2003           54142                           TS       MPAC       +2
000049: 06,2004           32057        FCS2               CAF      V04N01K                               #  DISPLAY PRESENT CONTENTS IN R2.
000050: 06,2005           05332                           TC       NVSBWAIT
000051: 06,2006           24142                           INCR     MPAC       +2
000052: 06,2007           32055                           CAF      V21N02K
000053: 06,2010           05332                           TC       NVSBWAIT                              #  IN CASE IT'S BUSY BUT IT SHOULDN'T BE.
000054: 06,2011           05140                           TC       ENDIDLE                               #  WHILE LOADING.
000055: 06,2012           02015                           TC       +3                                    #  V34E. TERMINATE LOAD OF THIS LIST
000056:                                                                                                  #  SECTION, GO TO NEW SECTION OR TO TEST.
000057: 06,2013           02014                           TC       +1                                    #  V33E. PRESENT CONTENTS OK, PROCEED TO
000058:                                                                                                  #  NEXT LOCATION IN LIST.
000059: 06,2014           02004                           TC       FCS2
000060: 06,2015           32056                           CAF      V21N30K
000061: 06,2016           05332                           TC       NVSBWAIT
000062: 06,2017           05140                           TC       ENDIDLE
000063: 06,2020           04437                           TC       EJFREE
000064: 06,2021           02024                           TC       FCSTEST1                              #  PROCEED TO TEST.
000065: 06,2022           30333                           CAE      DSPTEM1                               #  NEW ADDRESS.
000066: 06,2023           02002                           TC       FCS3
000067: 06,2024           32060        FCSTEST1           CAF      V47K
000068: 06,2025           05332                           TC       NVSBWAIT                              #  OUR VERB IN THE LIGHTS.
000069: 06,2026           00004        FCSTEST            INHINT
000070: 06,2027  E4,1407                                  EBANK=   JETSTEP
000071: 06,2027           37656                           CAF      TWO                                   #  20MS.
000072: 06,2030           04536                           TC       WAITLIST
000073: 06,2031  E4,1407                                  EBANK=   JETSTEP
000074: 06,2031           02065 14004                     2CADR    JETSTART
000075:
000076: 06,2033           37657                           CAF      BIT1                                  #  10MS.
000077: 06,2034           04536                           TC       WAITLIST
000078: 06,2035  E4,1407                                  EBANK=   JETSTEP


000080: 06,2035           02220 14004                     2CADR    ENGSTART
000081:
000082: 06,2037           36165                           CAF      THREE                                 #  30MS.
000083: 06,2040  E4,1407                                  EBANK=   JETSTEP
000084: 06,2040           04536                           TC       WAITLIST
000085: 06,2041           02315 14004                     2CADR    TRIMTOP
000086:
000087: 06,2043           37655                           CAF      FOUR                                  #  40MS.
000088: 06,2044           04536                           TC       WAITLIST
000089: 06,2045  E4,1407                                  EBANK=   JETSTEP
000090: 06,2045           02435 14004                     2CADR    THRSTART
000091:
000092: 06,2047           37664                           CAF      FIVE                                  #  50MS.
000093: 06,2050           04536                           TC       WAITLIST
000094: 06,2051  E4,1407                                  EBANK=   JETSTEP
000095: 06,2051           02523 14004                     2CADR    LOOKTOP
000096:
000097: 06,2053           04437                           TC       EJFREE                                #  NOW THEY START.
000098:
000099: 06,2054           02007        JSTEPADR           ECADR    JETSTEP
000100: 06,2055           02102        V21N02K            OCT      02102
000101: 06,2056           02130        V21N30K            OCT      02130
000102: 06,2057           00401        V04N01K            OCT      00401
000103: 06,2060           04700        V47K               OCT      04700
000104:


000106:                                                                                                  #  LEM FCS TEST   RCS JETSET TASK
000107:                                                                                                  #      THIS JOB ISSUES A PROFILE OF  JET ON-OFF SIGNALS AS DETERMINED BY THE CONSTANTS IN A SET OF SIX REGISTERS.
000108:                                                                                                  #  THE SIX REGISTERS ARE, (1) NTIMES, THE NUMBER OF TIMES A PARTICULAR STEP WILL BE PERFORMED. (2) NEXTTIME, THE
000109:                                                                                                  #  TIME BETWEEN STEPS, A MAXIMUM OF 2 MINUTES, (3) JETONTM, THE TIME TO TURN THE JETS ON, SCALED FOR T3, (4) JET-
000110:                                                                                                  #  OFFTM, THE TIME AFTER ONTM TO TURN THE JETS OFF, (5) XJETS, THE PARTICULAR X JETS TO BE TURNED ON AND OFF
000111:                                                                                                  #  DURING EACH REPEAT OF A STEP, AND (6) YZJETS,, THE Y AND Z JETS TO BE TURNED ON AND OFF DURING EACH REPEAT OF A
000112:                                                                                                  #  STEP.  XJETS AND YZJETS MUST BE IN THE SAME FORMAT AS CHANNELS 5 AND6 RESPECTIVELY.  THERE ARE EIGHT SETS OF
000113:                                                                                                  #  THESE SIX REGISTERS.
000114:                                                                                                  #      THE REGISTER JETSTEP IS USED TO INDEX THE 8 SETS OF REGISTERS, THE ALLOWABLE VALUES OF JETSTEP ARE +0 THRU 7
000115:                                                                                                  #      THIS JOB WILL BE ENTERED BUT IMMEDIATELY ENDED IF THE INITIAL VALUES OF JETSTEP AND NTIMES ARE +0.
000116:
000117:
000118: 06,2061           11407        NEXTSET            CCS      JETSTEP                               #  IT MAY BE ZERO.
000119: 06,2062           02064                           TC       +2                                    #  NOPE
000120: 06,2063           04602                           TC       TASKOVER                              #  IT IS SO WE ARE DONE WITH THIS TASK.
000121: 06,2064           55407                           TS       JETSTEP
000122:
000123: 06,2065           51407        JETSTART           NDX      JETSTEP                               #  ENTER HERE.
000124: 06,2066           11410                           CCS      NTIMES                                #  SEE IF THIS STEP IS FINISHED.
000125: 06,2067           02071                           TC       +2                                    #  NO
000126: 06,2070           02061                           TC       NEXTSET                               #  YES
000127: 06,2071           51407                           NDX      JETSTEP
000128: 06,2072           31420                           CAE      NEXTTIME                              #  MUST BE SCALED FOR T3.  REMEMBER TO BIAS
000129:                                                                                                  #  THIS FOR ON TIME.
000130: 06,2073           04536                           TC       WAITLIST
000131: 06,2074  E4,1407                                  EBANK=   JETSTEP
000132: 06,2074           02110 14004                     2CADR    JTOP
000133:
000134: 06,2076           04602                           TC       TASKOVER
000135:
000136: 06,2077           37665        JETOFF             CAF      ZERO
000137: 06,2100           00006                           EXTEND
000138: 06,2101           01005                           WRITE    5
000139: 06,2102           00006                           EXTEND
000140: 06,2103           01006                           WRITE    6
000141: 06,2104           51407                           NDX      JETSTEP
000142: 06,2105           11410                           CCS      NTIMES
000143: 06,2106           51407                           NDX      JETSTEP
000144: 06,2107           55410                           TS       NTIMES                                #  ONE LESS TIME.
000145: 06,2110           51407        JTOP               NDX      JETSTEP
000146: 06,2111           11410                           CCS      NTIMES                                #  FOR LOOPING.
000147: 06,2112           02114                           TC       +2
000148: 06,2113           02061                           TC       NEXTSET
000149: 06,2114           51407                           NDX      JETSTEP
000150: 06,2115           31430                           CAE      JETONTM                               #  SCALED FOR T3.  TIME FOR JETS ON.
000151: 06,2116           04536                           TC       WAITLIST
000152: 06,2117  E4,1407                                  EBANK=   JETSTEP
000153: 06,2117           02122 14004                     2CADR    JETON
000154:


000156: 06,2121           04602                           TC       TASKOVER
000157:
000158: 06,2122           51407        JETON              NDX      JETSTEP
000159: 06,2123           31440                           CAE      XJETS                                 #  MUST BE IN CHANNEL 5 FORMAT.
000160: 06,2124           55401                           TS       XJBUF
000161: 06,2125           51407                           NDX      JETSTEP
000162: 06,2126           31450                           CAE      YZJETS                                #  MUST BE IN CHANNEL 6 FORMAT.
000163: 06,2127           55402                           TS       YZJBUF
000164: 06,2130           00006        JFAILCK            EXTEND                                         #  THIS ROUTINE EXAMINES EACH JETFAIL BIT
000165: 06,2131           00032                           READ     32                                    #  AND IF A FAILURE IS INDICATED THE CORRES
000166: 06,2132           40000                           COM                                            #  PONDING COMMANDS ARE MASKED OUT .
000167: 06,2133           55403                           TS       JFBUF                                 #  SAVE 32 REINVERTED.
000168: 06,2134           37663                           CAF      SEVEN
000169: 06,2135           55404        JF3                TS       FCNTR
000170: 06,2136           31403                           CAE      JFBUF
000171: 06,2137           51404                           NDX      FCNTR
000172: 06,2140           77650                           MASK     BIT8
000173: 06,2141           10000                           CCS      A
000174: 06,2142           02161                           TC       JFAIL
000175: 06,2143           11404        JFAIL1             CCS      FCNTR
000176: 06,2144           02135                           TC       JF3
000177: 06,2145           31401                           CAE      XJBUF
000178: 06,2146           00006                           EXTEND
000179: 06,2147           01005                           WRITE    5                                     #  XJETS GO ON.
000180: 06,2150           31402                           CAE      YZJBUF
000181: 06,2151           00006                           EXTEND
000182: 06,2152           01006                           WRITE    6                                     #  YZJETS GO ON.
000183: 06,2153           51407                           NDX      JETSTEP
000184: 06,2154           31460                           CAE      JETOFFTM                              #  JET OFF TIME SCALED FOR T3.
000185: 06,2155           04536                           TC       WAITLIST
000186: 06,2156  E4,1407                                  EBANK=   JETSTEP
000187: 06,2156           02077 14004                     2CADR    JETOFF
000188:
000189: 06,2160           04602                           TC       TASKOVER
000190:
000191: 06,2161           51404        JFAIL              NDX      FCNTR
000192: 06,2162           42204                           CS       XJETMASK
000193: 06,2163           71401                           MASK     XJBUF
000194: 06,2164           55401                           TS       XJBUF
000195: 06,2165           51404                           NDX      FCNTR
000196: 06,2166           42174                           CS       YZJETMSK
000197: 06,2167           71402                           MASK     YZJBUF
000198: 06,2170           55402                           TS       YZJBUF
000199: 06,2171           05413                           TC       ALARM
000200: 06,2172           01410                           OCT      01410                                 #  TEMPORARY JET FAIL ALARM CODE.
000201: 06,2173           02143                           TC       JFAIL1
000202:


000204: 06,2174           00010        YZJETMSK           OCT      00010                                 #  JET 11
000205: 06,2175           00020                           OCT      00020                                 #  JET 12
000206: 06,2176           00004                           OCT      00004                                 #  JET 15
000207: 06,2177           00200                           OCT      00200                                 #  JET 16
000208: 06,2200           00001                           OCT      00001                                 #  JET 7
000209: 06,2201           00002                           OCT      00002                                 #  JET 3
000210: 06,2202           00040                           OCT      00040                                 #  JET 8
000211: 06,2203           00100                           OCT      00100                                 #  JET 4
000212:
000213: 06,2204           00040        XJETMASK           OCT      00040                                 #  JET 10
000214: 06,2205           00020                           OCT      00020                                 #  JET 9
000215: 06,2206           00100                           OCT      00100                                 #  JET 13
000216: 06,2207           00200                           OCT      00200                                 #  JET 14
000217: 06,2210           00010                           OCT      00010                                 #  JET 6
000218: 06,2211           00001                           OCT      00001                                 #  JET 1
000219: 06,2212           00004                           OCT      00004                                 #  JET 5
000220: 06,2213           00002                           OCT      00002                                 #  JET 2
000221:


000223:                                                                                                  #  LEM FCS TEST  ENGINE ON - OFF TASK
000224:                                                                                                  #  THIS TASK TURNS THE LEM ASCENT OR DESCENT ENGINE ON AND OFF ACCORDING TOTHE CONSTANTS STORED IN THE FIVE SETS OF
000225:                                                                                                  #  REGISTERS, (1) CYLTIMES, WHICH CONTAINS THE NUMBER OF TIMES A PARTICULARSTEP WILL BE REPEATED, (2) NEXTCYLT,
000226:                                                                                                  #   WHICH CONTAINS THE TIME BETWEEN STEPS SCALED FOR T3, (3) ONTIME, WHICH CONTAINS THE TIME TO TURN THE ENGINE ON
000227:                                                                                                  #  WHICH ALSO DETERMINES THE LENGTH OF TIME THE ENGINE WILL BE OFF WITHIN A SERIES OF ON:OFF CYCLES, (4) OFFTIME,
000228:                                                                                                  #   WHICH CONTAINS THE NUMBER OF 2 MINUTES BEFORE THE ENGINE WILL BE TURNED OFF, AND (5) OFFTIMER, WHICH
000229:                                                                                                  #  CONTAINS THE RESIDUAL TIME BEFORE THE ENGINE WILL BE TURNED OFF.  OFFTIME AND OFFTIMER DETERMINE THE LENGTH
000230:                                                                                                  #  OF TIME THE ENGINE WILL BE ON IN ANY ONE CYCLE. THERE ARE THREE SETS OF THESE REGISTERS.
000231:                                                                                                  #      THE ENGSTEP REGISTER IS USED AS AN INDEX TO PICK UP A PARTICULAR SET  OF THE ABOVE 5 REGISTERS.  THIS TASK
000232:                                                                                                  #  WILL BE ENTERED BUT IMMEDIATELY ENDED IF ENGSTEP AND CYLTIMES = +0.     THE ALLOWABLE VALUES OF ENGSTEP ARE +0,
000233:                                                                                                  #  1 AND 2.
000234:
000235: 06,2214           11470        NXTONOFF           CCS      ENGSTEP
000236: 06,2215           02217                           TC       +2
000237: 06,2216           04602                           TC       TASKOVER                              #  EXIT HERE WHEN STEP AND CYL ARE +0.
000238: 06,2217           55470                           TS       ENGSTEP                               #  ONE LESS.
000239:
000240: 06,2220           51470        ENGSTART           NDX      ENGSTEP                               #  ENTER HERE.
000241: 06,2221           11471                           CCS      CYLTIMES                              #  NUM OF EACH  ON/OFF SET
000242: 06,2222           02224                           TC       +2
000243: 06,2223           02214                           TC       NXTONOFF                              #  NO MORE OF THIS SET
000244: 06,2224           51470                           NDX      ENGSTEP
000245: 06,2225           31474                           CAE      NEXTCYLT                              #  START OF NEXT CYCLE.
000246: 06,2226           04536                           TC       WAITLIST
000247: 06,2227  E4,1470                                  EBANK=   ENGSTEP
000248: 06,2227           02250 14004                     2CADR    ENGONTM
000249:
000250: 06,2231           04602                           TC       TASKOVER
000251:
000252: 06,2232           44526        ENGRESET           CS       PRIO30                                #  BITS 13 AND 14.
000253: 06,2233           00006                           EXTEND
000254: 06,2234           02011                           RAND     11
000255: 06,2235           67642                           AD       BIT14
000256: 06,2236           00006                           EXTEND
000257: 06,2237           01011                           WRITE    11                                    #  ENG ON = 0, ENG OFF = 1.
000258: 06,2240           51470                           NDX      ENGSTEP
000259: 06,2241           11471                           CCS      CYLTIMES
000260: 06,2242           10000                           CCS      A
000261: 06,2243           02245                           TC       +2
000262: 06,2244           02214                           TC       NXTONOFF                              #  WAS ONE.
000263: 06,2245           67657                           AD       ONE                                   #  WAS MORE THAN ONE.
000264: 06,2246           51470                           NDX      ENGSTEP
000265: 06,2247           55471                           TS       CYLTIMES
000266:
000267: 06,2250           51470        ENGONTM            NDX      ENGSTEP
000268: 06,2251           31502                           CAE      OFFTIME
000269: 06,2252           55406                           TS       OFFTMBUF
000270: 06,2253           51470                           NDX      ENGSTEP


000272: 06,2254           31477                           CAE      ONTIME
000273: 06,2255           04536                           TC       WAITLIST
000274: 06,2256  E4,1470                                  EBANK=   ENGSTEP
000275: 06,2256           02261 14004                     2CADR    ENGSET
000276:
000277: 06,2260           04602                           TC       TASKOVER
000278:
000279: 06,2261           44526        ENGSET             CS       PRIO30
000280: 06,2262           00006                           EXTEND
000281: 06,2263           02011                           RAND     11
000282: 06,2264           67643                           AD       BIT13
000283: 06,2265           00006                           EXTEND
000284: 06,2266           01011                           WRITE    11                                    #  ENG ON = 1, ENG OFF = 0.
000285: 06,2267           11406        ENGRST             CCS      OFFTMBUF
000286: 06,2270           02277                           TC       LTIMEON                               #  AT LEAST 2MIN. BEFORE ENGINE OFF.
000287: 06,2271           51470                           NDX      ENGSTEP
000288: 06,2272           31505                           CAE      OFFTIMER                              #  LESS THAN 2MIN. TO ENGINE OFF.
000289: 06,2273           04536                           TC       WAITLIST
000290: 06,2274  E4,1470                                  EBANK=   ENGSTEP
000291: 06,2274           02232 14004                     2CADR    ENGRESET
000292:
000293: 06,2276           04602                           TC       TASKOVER
000294:
000295: 06,2277           11406        LTIMEON            CCS      OFFTMBUF                              #  IS THERE ANY MORE.
000296: 06,2300           02302                           TC       +2                                    #  YES.
000297: 06,2301           02267                           TC       ENGRST                                #  NO.
000298: 06,2302           55406                           TS       OFFTMBUF
000299: 06,2303           32310                           CAF      2MIN
000300: 06,2304           04536                           TC       WAITLIST
000301: 06,2305  E4,1470                                  EBANK=   ENGSTEP
000302: 06,2305           02277 14004                     2CADR    LTIMEON
000303:
000304: 06,2307           04602                           TC       TASKOVER
000305:
000306: 06,2310           27340        2MIN               DEC      12000      B-14
000307:


000309:                                                                                                  #  LEM FCS TEST  TRIM TASK
000310:                                                                                                  #  THIS PROGRAM ISSUES A PROFILE OF PITCH AND ROLL TRIM COMMANDS TO THE LEM DESCENT ENGINE GIMBAL IN ACCORDANCEWITH
000311:                                                                                                  #  THE VALUE S IN THE TRIMSTEP REGISTER AND THE 12 SETS OF 5 REGISTERS CALLED NUMTIMES, STEPDLYT, TRIMONT, TRIMOFFT
000312:                                                                                                  #  AND TRIMIND.  TRIMSTEP IS USED TO PICK UP A PARTICULAR SET OF THE 5 REGISTERS AND HAS ALLOWABLE VALUES FROM +0
000313:                                                                                                  #  THROUGH +11 DECIMAL.  THE 5 REGISTERS IN EACH SET ARE DEFINED AS FOLLOWS
000314:                                                                                                  #      (1) NUMTIMES DETERMINES THE NUMBER OF TIMES THE COMMAND IN TRIMIND  WILL BE ISSUED.  VALUES FROM +0 TO
000315:                                                                                                  #  OCT 37777 ARE PERMITTED.
000316:                                                                                                  #      (2) STEPDLYT DETERMINES THE TIME BETWEEN THE START OF A STEP AND THE BEGINNING OF TRIMONT.  STEPDLYT MUST BE
000317:                                                                                                  #  FORMATTED FOR T3, ITS MAXIMUM VALUE IS 2 MINUTES.
000318:                                                                                                  #      (3) TRIMONT DETERMINES THE TIME BETWEEN THE END OF STEPDLYT OR TRIMOFFT AND THE TIME THE TRIM COMMANDS ARE
000319:                                                                                                  #  ISSUED.  IT MUST BE FORMATTED FOR T3.
000320:                                                                                                  #      (4) TRIMOFFT DETERMINES THE LENGTH OF TIME THE TRIM COMMAND WILL BE ON, FORMATTED FOR T3.
000321:                                                                                                  #      (5) TRIMIND DETERMINES THE PITCH AND ROLL COMMAND TO BE ISSUED.  THE FORMAT IS, BIT9=1=+ PITCH COMMAND,
000322:                                                                                                  #  BIT10=1=-PITCH, BIT11=1= +ROLL, BIT12=1= -ROLL.  A BIT=0 INDICATES NO COMMAND.  ANY COMBINATION OF COMMANDS IS
000323:                                                                                                  #  PERMITTED.
000324:                                                                                                  #     THIS TASK WILL BE ENTERED BUT IMMEDIATELY ENDED IF TRIMSTEP AND NUMTIMES = +0.
000325:
000326:
000327: 06,2311           11510        NEXTTRIM           CCS      TRIMSTEP
000328: 06,2312           02314                           TC       +2
000329: 06,2313           04602                           TC       TASKOVER                              #  EXIT HERE.
000330: 06,2314           55510                           TS       TRIMSTEP                              #  LESS ONE.
000331:
000332: 06,2315           51510        TRIMTOP            NDX      TRIMSTEP                              #  ENTER HERE.
000333: 06,2316           11511                           CCS      NUMTIMES
000334: 06,2317           02321                           TC       +2
000335: 06,2320           02311                           TC       NEXTTRIM
000336: 06,2321           51510                           NDX      TRIMSTEP
000337: 06,2322           31525                           CAE      STEPDLYT
000338: 06,2323           04536                           TC       WAITLIST
000339: 06,2324  E4,1510                                  EBANK=   TRIMSTEP
000340: 06,2324           02342 14004                     2CADR    TRIMSET
000341:
000342: 06,2326           04602                           TC       TASKOVER
000343:
000344: 06,2327           42426        TRIMOFF            CS       TRIMMASK
000345: 06,2330           00006                           EXTEND
000346: 06,2331           03012                           WAND     12                                    #  TRIM GOES OFF.
000347: 06,2332           51510        NUMSTEP            NDX      TRIMSTEP
000348: 06,2333           11511                           CCS      NUMTIMES
000349: 06,2334           10000                           CCS      A
000350: 06,2335           02337                           TC       +2
000351: 06,2336           02311                           TC       NEXTTRIM                              #  WAS ONE.
000352: 06,2337           67657                           AD       ONE
000353: 06,2340           51510                           NDX      TRIMSTEP
000354: 06,2341           55511                           TS       NUMTIMES
000355: 06,2342           51510        TRIMSET            NDX      TRIMSTEP
000356: 06,2343           31541                           CAE      TRIMONT
000357: 06,2344           04536                           TC       WAITLIST


000359: 06,2345  E4,1510                                  EBANK=   TRIMSTEP
000360: 06,2345           02350 14004                     2CADR    TRIMON
000361:
000362: 06,2347           04602                           TC       TASKOVER
000363:
000364: 06,2350           32425        TRIMON             CAF      BITS9,10                              #  CHECK PITCH AND ROLL TRIM FAIL BITS.
000365: 06,2351           00006                           EXTEND
000366: 06,2352           06032                           RXOR     32
000367: 06,2353           72425                           MASK     BITS9,10
000368: 06,2354           00006                           EXTEND
000369: 06,2355           12363                           BZF      TRIMON1
000370: 06,2356           34533                           CAF      PRIO35                                #  FAIL IS ON. FLASH FAIL CODE (01400) AND
000371: 06,2357           04363                           TC       NOVAC                                 #  IDLE UNTIL SOMEONE RESETS IT, TERMINATES
000372: 06,2360           02376 14004                     2CADR    PERFORM                               #  THE TASK, OR DECIDES TO PROCEED WITH IT.
000373:
000374: 06,2362           04602                           TC       TASKOVER
000375:
000376: 06,2363           51510        TRIMON1            NDX      TRIMSTEP
000377: 06,2364           31571                           CAE      TRIMIND
000378: 06,2365           72426                           MASK     TRIMMASK                              #  SAFETY PLAY
000379: 06,2366           00006                           EXTEND
000380: 06,2367           05012                           WOR      12                                    #  TRIM STARTS.
000381: 06,2370           51510                           NDX      TRIMSTEP
000382: 06,2371           31555                           CAE      TRIMOFFT
000383: 06,2372           04536                           TC       WAITLIST
000384: 06,2373  E4,1510                                  EBANK=   TRIMSTEP
000385: 06,2373           02327 14004                     2CADR    TRIMOFF
000386:
000387: 06,2375           04602                           TC       TASKOVER
000388:
000389: 06,2376           05317        PERFORM            TC       GRABWAIT                              #  KEY RELEASE MAY COME ON.
000390: 06,2377           32425                           CAF      TRIMCODE                              #  01400
000391: 06,2400           54333                           TS       DSPTEM1
000392: 06,2401           32427                           CAF      V01N25K
000393: 06,2402           05332                           TC       NVSBWAIT
000394: 06,2403           32430                           CAF      V50K                                  #  PLEASE PERFORM.
000395: 06,2404           05332                           TC       NVSBWAIT
000396: 06,2405           05274                           TC       FLASHON                               #  ANY RESPONSE TURNS IT OFF.
000397: 06,2406           05140                           TC       ENDIDLE                               #  WAIT FOR SOMEONE TO DO SOMETHING.
000398: 06,2407           04437                           TC       EJFREE                                #  V34E. TERMINATE THE TASK.
000399: 06,2410           02417                           TC       TR1                                   #  V33E. PROCEED WITH THE FAIL ON.
000400: 06,2411           00004                           INHINT                                         #  ENTER. THE FAIL HAS BEEN RESET.
000401: 06,2412           37656                           CAF      BIT2                                  #  20MS.
000402: 06,2413           04536                           TC       WAITLIST
000403: 06,2414           02350 14004                     2CADR    TRIMON                                #  CHECK AGAIN TO BE SURE, THEN PROCEED..
000404:
000405: 06,2416           04437                           TC       EJFREE
000406:
000407: 06,2417           00004        TR1                INHINT                                         #  PROCEED WITH THE FAIL.
000408: 06,2420           37656                           CAF      BIT2                                  #  20MS.


000410: 06,2421           04536                           TC       WAITLIST
000411: 06,2422           02363 14004                     2CADR    TRIMON1                               #  BYPASS THE RECHECK.
000412:
000413: 06,2424           04437                           TC       EJFREE
000414:
000415: 06,2425           01400        BITS9,10           OCT      01400
000416: 06,2426  06,2425               TRIMCODE           EQUALS   BITS9,10
000417: 06,2426           07400        TRIMMASK           OCT      07400
000418: 06,2427           00125        V01N25K            OCT      00125
000419: 06,2430           05000        V50K               OCT      05000
000420:


000422:                                                                                                  #  LEM FCS TEST  THROTTLE TASK
000423:                                                                                                  #     THIS PROGRAM ISSUES A PROFILE OF THROTTLE COMMANDS TO THE LEM DESCENT ENGINE.  THE PROFILE IS DETERMINED BY
000424:                                                                                                  #  THE VALUES IN THE THRTSTEP REGISTER AND THE 6  SETS OF REGISTERS, 5 PER SET, CALLED  DOTIMES, DELAY, THR1TIME,
000425:                                                                                                  #  THCOMM1 AND THCOMM2.  THE THRTSTEP REGISTER VALUE IS USED TO INDEX THE  6  SETS OF 5 REGISTERS AND HAS ALLOWABLE
000426:                                                                                                  #  VALUES OF +0 THROUGH +5.  THE 5 REGISTERS PER SET ARE DEFINED AS FOLLOWS
000427:                                                                                                  #      (1) DOTIMES DETERMINES THE NUMBER OF TIMES THE THROTTLE WILL BE EXERCISED AS PER THE VALUES OF THR1TIME,
000428:                                                                                                  #  THCOMM1 AND THCOMM2 OF THE CURRENT STEP.  IT HAS ALLOWABLE VALUES OF +0 THROUGH 37777 OCT.
000429:                                                                                                  #      (2) DELAY DETERMINES THE TIME BETWEEN THE START OF A STEP AND THE BE GINNING OF THR1TIME. ITIS CALLED ONLY
000430:                                                                                                  #  ONCE PER STEP,I.E., REPEATS OF THE SAME THCOMM1 AND THCOMM2 START AT THR1TIME.  DELAY MUST BE FORMATTED FOR T3
000431:                                                                                                  #  AND HENCE HAS A MAXIMUM VALUE OF 2 MINUTES.
000432:                                                                                                  #      (3) THR1TIME DETERMINES THE TIME BETWEEN THE END OF DELAY OR THE END   OF THCOMM2 AND THE START OF
000433:                                                                                                  #  THCOMM1.  IT MUST BE FORMATTED FOR T3.
000434:                                                                                                  #      (4) THCOMM1 AND (5) THCOMM2 DETERMINE THE NUMBER OF THRUST INCREASE  OR DECREASE PULSES TOBE ISSUED AT A
000435:                                                                                                  #  3.2KPPS RATE.  THE RANGE OF POSSIBLE VALUES OF EITHER IS FROM POSMAX (OCT 37777) TO NEGMAX (OCT 40000) ALTHOUGH
000436:                                                                                                  #  THE ACTUAL THROTTLE RANGE IS FROM OCT 6116 TO OCT 71661 (+,- 3150 DEC).
000437:                                                                                                  #     THIS TASK WILL BE ENTERED BUT IMMEDIATELY ENDED IF THE INITIAL VALUES OF THRTSTEP AND DOTIMES ARE +0.
000438:
000439:
000440: 06,2431           11605        NEXTTHRT           CCS      THRTSTEP
000441: 06,2432           02434                           TC       +2
000442: 06,2433           04602                           TC       TASKOVER                              #  EXIT HERE.
000443: 06,2434           55605                           TS       THRTSTEP
000444:
000445: 06,2435           51605        THRSTART           NDX      THRTSTEP                              #  ENTER HERE.
000446: 06,2436           11606                           CCS      DOTIMES                               #  NUMBER OF TIMES COMMANDS 1 AND 2 DONE.
000447: 06,2437           02441                           TC       +2
000448: 06,2440           02431                           TC       NEXTTHRT
000449: 06,2441           51605                           NDX      THRTSTEP
000450: 06,2442           31614                           CAE      DELAY                                 #  TIME BETWEEN STEPS.  BIAS FOR THR1TIME.
000451:                                                                                                  #  MUST BE SCALED FOR T3.
000452: 06,2443           04536                           TC       WAITLIST
000453: 06,2444  E4,1605                                  EBANK=   THRTSTEP
000454: 06,2444           02467 14004                     2CADR    THROTON1
000455:
000456: 06,2446           04602                           TC       TASKOVER
000457:
000458: 06,2447           51605        THR2COMM           NDX      THRTSTEP
000459: 06,2450           31636                           CAE      THCOMM2                               #  SAME REMARKS AS FOR THCOMM1
000460: 06,2451           02505                           TC       THROTON
000461: 06,2452           67657                           AD       BIT1                                  #  10MS IN CASE OF NO THCOMM2.
000462: 06,2453           04536                           TC       WAITLIST
000463: 06,2454  E4,1605                                  EBANK=   THRTSTEP
000464: 06,2454           02457 14004                     2CADR    CKDOTIME
000465:
000466: 06,2456           04602                           TC       TASKOVER
000467:
000468: 06,2457           51605        CKDOTIME           NDX      THRTSTEP
000469: 06,2460           11606                           CCS      DOTIMES
000470: 06,2461           10000                           CCS      A


000472: 06,2462           02464                           TC       +2
000473: 06,2463           02431                           TC       NEXTTHRT                              #  WAS ONE.
000474: 06,2464           67657                           AD       ONE
000475: 06,2465           51605                           NDX      THRTSTEP
000476: 06,2466           55606                           TS       DOTIMES
000477: 06,2467           51605        THROTON1           NDX      THRTSTEP
000478: 06,2470           31622                           CAE      THR1TIME                              #  TIME BETWEEN DOTIMES.  SCALED FOR T3.
000479: 06,2471           04536                           TC       WAITLIST
000480: 06,2472  E4,1605                                  EBANK=   THRTSTEP
000481: 06,2472           02475 14004                     2CADR    THR1COMM
000482:
000483: 06,2474           04602                           TC       TASKOVER
000484:
000485: 06,2475           51605        THR1COMM           NDX      THRTSTEP
000486: 06,2476           31630                           CAE      THCOMM1                               #  SHOULD BE NO LARGER THAN 3150DEC.
000487: 06,2477           02505                           TC       THROTON
000488: 06,2500           62522                           AD       250MS                                 #  SO ACE CAN SAMPLE.
000489: 06,2501           04536                           TC       WAITLIST
000490: 06,2502  E4,1605                                  EBANK=   THRTSTEP
000491: 06,2502           02447 14004                     2CADR    THR2COMM
000492:
000493: 06,2504           04602                           TC       TASKOVER
000494:
000495: 06,2505           54055        THROTON            TS       THRUST                                #  THROTTLE OUTPUT COUNTER.
000496: 06,2506           55405                           TS       THBUF                                 #  SAVE FOR BZMF.
000497: 06,2507           37654                           CAF      BIT4
000498: 06,2510           00006                           EXTEND
000499: 06,2511           05014                           WOR      14                                    #  ENABLE THRUST DRIVE.  COMMAND STARTS NOW
000500: 06,2512           31405                           CAE      THBUF
000501: 06,2513           00006                           EXTEND
000502: 06,2514           62516                           BZMF     +2
000503: 06,2515           40000                           COM
000504: 06,2516           40000                           COM
000505: 06,2517           00006                           EXTEND
000506: 06,2520           77646                           MP       BIT10                                 #  SCALES FOR T3.
000507: 06,2521           00002                           TC       Q
000508:
000509: 06,2522           00031        250MS              OCT      00031
000510:


000512:                                                                                                  #  LEM FCS TEST  INTERFACE LOOK TASK.
000513:
000514:                                                                                                  #      THIS PROGRAM KEEPS A RUNNING HISTORY OF THE STATE OF ALL THE BITS IN INPUT CHANNELS 30, 31, 32 AND 33.
000515:                                                                                                  #  IT DOES THIS BY DETECTING A CHANGE OF AN INPUT BIT FROM AN INITIAL ONE STATE TO A ZERO STATE OR FROM AN INITIAL
000516:                                                                                                  #  ZERO TO A ONE.  THE HISTORY IS MAINTAINED IN TWO BUFFER REGISTERS FOR EACH CHANNEL, ONE FOR STORING ONE TO ZERO
000517:                                                                                                  #  CHANGES (30BUF1, +1, +2, AND +3) AND ONE FOR ZERO TO ONE CHANGES (30BUF0, +1 +2 AND +3).  THE OPERATOR MUST
000518:                                                                                                  #  LOAD THE INITIAL STATES OF THE INPUT CHANNELS INTO THEIR RESPECTIVE BUFFER REGISTERS BEFORE THIS PROGRAM IS IN-
000519:                                                                                                  #  ITIATED.
000520:                                                                                                  #      TO ALLOW THIS PROGRAM TO RUN C(QUITLOOK) MUST BE SET GREATER THAN +0 BEFORE IT IS STARTED.  IF THE OPERATOR
000521:                                                                                                  #  DOES NOT DESIRE THIS PROGRAM TO RUN HE SHOULD SET C(QUITLOOK)=+0 BEFORE STARTING THE FCS TEST.  AFTER THIS TASK
000522:                                                                                                  #  IS RUNNING THE OPERATOR CAN STOP IT BY SETTING C(QUITLOOK) = +0.
000523:                                                                                                  #      NO DISPLAYS OF EITHER THE BUFFER REGISTERS OR CHANNELS ARE INCORPORATED INTO THIS PROGRAM.  THIS WAS DONE TO
000524:                                                                                                  #  ALLOW THE TEST OPERATOR MONITORING FLEXIBILITY.  FOR REAL TIME MONITORING IT IS SUGGESTED THAT THE BUFFER
000525:                                                                                                  #  REGISTERS BE DISPLAYED WITH THE MONITOR VERBS (11 THROUGH 15).  ON THE OTHER HAND, THE OPERATOR MAY ELECT TO
000526:                                                                                                  #  PERFORM NO REAL TIME MONITORING UNTIL THE TEST IS COMPLETED, WHEN THE BUFFER REGISTERS WOULD BE CALLED FOR
000527:                                                                                                  #  DISPLAY (VERB 01) AND RECORDED.
000528:                                                                                                  #      THIS PROGRAM IS PRIMARILY INTENDED FOR INTERFACE MONITORING DURING THE LEM VIBRATION TEST AT BETHPAGE, N.Y.,
000529:                                                                                                  #  ALTHOUGH IT MAY ALSO BE USEFUL DURING VEHICAL LEVEL EMI TESTS.
000530:
000531: 06,2523           11654        LOOKTOP            CCS      QUITLOOK                              #  IS THIS TASK WANTED.
000532: 06,2524           02526                           TC       +2                                    #  YES.
000533: 06,2525           04602                           TC       TASKOVER                              #  NO.
000534: 06,2526           36165                           CAF      THREE                                 #  START SCAN OF CHANNELS.
000535: 06,2527           55655        LOOKLOOP           TS       CHCNTR                                #  3, 2, 1, 0.
000536: 06,2530           51655                           NDX      CHCNTR
000537: 06,2531           31644                           CAE      30BUF1
000538: 06,2532           00006                           EXTEND
000539: 06,2533           51655                           NDX      CHCNTR
000540: 06,2534           02030                           RAND     30                                    #  DETECTS CHANGES FROM 1 TO 0.
000541: 06,2535           51655                           NDX      CHCNTR
000542: 06,2536           57644                           XCH      30BUF1                                #  STORE NEW ZEROS.
000543: 06,2537           51655                           NDX      CHCNTR
000544: 06,2540           31650                           CAE      30BUF0
000545: 06,2541           00006                           EXTEND
000546: 06,2542           51655                           NDX      CHCNTR
000547: 06,2543           04030                           ROR      30                                    #  DETECTS CHANGES FROM 0 TO 1.
000548: 06,2544           51655                           NDX      CHCNTR
000549: 06,2545           57650                           XCH      30BUF0                                #  STORE NEW ONES.
000550: 06,2546           11655                           CCS      CHCNTR                                #  IS THIS SCAN DONE.
000551: 06,2547           02527                           TC       LOOKLOOP                              #  NO.
000552: 06,2550           37661                           CAF      TEN                                   #  YES.  100MS RECALL.
000553: 06,2551           04536                           TC       WAITLIST
000554: 06,2552  E4,1654                                  EBANK=   QUITLOOK
000555: 06,2552           02523 14004                     2CADR    LOOKTOP
000556:
000557: 06,2554           04602                           TC       TASKOVER
000558: 06,2555                        ENDLFCSS           =

End of include-file LEM_FLIGHT_CONTROL_SYSTEM_TEST.agc.  Parent file is MAIN.agc


