
Source Code


000002:                                                                                                  ## Copyright:   Public domain.
000003:                                                                                                  ## Filename:    LIST_PROCESSING_INTERPRETER.agc
000004:                                                                                                  ## Purpose:     Part of the source code for Aurora (revision 12).
000005:                                                                                                  ## Assembler:   yaYUL
000006:                                                                                                  ## Contact:     Hartmuth Gutsche <hgutsche@xplornet.com>.
000007:                                                                                                  ## Website:     https://www.ibiblio.org/apollo.
000008:                                                                                                  ## Pages:       34-122
000009:                                                                                                  ## Mod history: 2016-09-20 JL   Created.
000010:                                                                                                  ##              2016-09-22 HG   Start trancription from scans using Luminary099\INTERPRETER.agc as base
000011:                                                                                                  ##              2016-10-04 HG   Fix FBBANK -> FBANK
000012:                                                                                                  ##              2016-10-12 HG   Fix operand MAPC +1  -> MPAC +1
000013:                                                                                                  ##              2016-10-15 HG   fix label EIHGT -> EIGHT
000014:                                                                                                  ##                              fix operand BIT14 -> BIT4
000015:                                                                                                  ##              2016-10-16      fix label NEGO -> NEG0
000016:                                                                                                  ##              2016-12-07 RSB  Proofed comments with octopus/ProoferComments
000017:                                                                                                  ##                              and made changes.
000018:                                                                                                  ##              2017-02-05 RSB  Back-ported comment corrections
000019:                                                                                                  ##                              identified while proofing Artemis 072.
000020:                                                                                                  ##              2017-03-13 RSB  Comment-text fixes noted in proofing Luminary 116.
000021:                                                                                                  ##              2017-03-15 RSB  Comment-text fixes identified in 5-way
000022:                                                                                                  ##                              side-by-side diff of Luminary 69/99/116/131/210.
000023:                                                                                                  ##              2021-05-30 ABS  B5TOBB -> B5TOB8
000024:
000025:                                                                                                  ## This source code has been transcribed or otherwise adapted from
000026:                                                                                                  ## digitized images of a hardcopy from the private collection of
000027:                                                                                                  ## Don Eyles.  The digitization was performed by archive.org.
000028:
000029:                                                                                                  ## Notations on the hardcopy document read, in part:
000030:
000031:                                                                                                  ##       473423A YUL SYSTEM FOR BLK2: REVISION 12 of PROGRAM AURORA BY DAP GROUP
000032:                                                                                                  ##       NOV 10, 1966
000033:
000034:                                                                                                  ##       [Note that this is the date the hardcopy was made, not the
000035:                                                                                                  ##       date of the program revision or the assembly.]
000036:
000037:                                                                                                  ## The scan images (with suitable reduction in storage size and consequent
000038:                                                                                                  ## reduction in image quality) are available online at
000039:                                                                                                  ##       https://www.ibiblio.org/apollo.
000040:                                                                                                  ## The original high-quality digital images are available at archive.org:
000041:                                                                                                  ##       https://archive.org/details/aurora00dapg
000042:
000043:


000045:                                                                                                  #  SECTION 1  DISPATCHER
000046:
000047:                                                                                                  #           ENTRY TO THE INTERPRETER. INTPRET SETS LOC TO THE FIRST INSTRUCTION, BANKSET TO THE FBANK OF THE
000048:                                                                                                  #  OBJECT INTERPRETIVE PROGRAM, AND INTBIT15 TO THE BIT15 CONTENTS OF FBANK. INTERPRETIVE PROGRAMS MAY BE IN
000049:                                                                                                  #  VIRTUALLY ALL BANKS PRESENT UNDER ANY SUPER-BANK SETTING, WITH THE RESTRICTION THAT PROGRAMS IN HIGH BANKS
000050:                                                                                                  #  (BIT15 OF FBANK = 1) DO NOT REFER TO LOWBANKS, AND VICE-VERSA. THE INTERPRETER DOES NOT SWITCH SUPER-BANK,
000051:                                                                                                  #  NOR DOES IT SWITCH EBANKS. MOST EBANK SWITCHING IS DONE BY THE EXECUTIVE PROGRAM.
000052:
000053:    6000                                           SETLOC   6000
000054:
000055:    6000           00006        INTPRET            EXTEND                                         #  SET LOC TO THE WORD FOLLOWING THE TC.
000056:    6001           22150                           QXCH     LOC
000057:
000058:    6002           30004                 +2        CA       FBANK                                 #  INTERPRETIVE BRANCHES FINISH HERE.
000059:    6003           54151                           TS       BANKSET
000060:    6004           77641                           MASK     BIT15                                 #  GET 15TH BIT FOR INDEXABLE ADDRESSES.
000061:    6005           54101                           TS       INTBIT15
000062:    6006           66426                           AD       LOW10                                 #  THIS VERSION IS USED IN PROCESSING
000063:    6007           54100                           TS       INTB15+                               #  INDEXABLE FIXED-BANK ADDRESSES.
000064:
000065:    6010           16023                           TCF      NEWOPS                                #  PICK UP OP CODE PAIR AND BEGIN.
000066:
000067:    6011           22006        INTRSM             LXCH     BBANK                                 #  RESUME SUSPENDED INTERPRETIVE JOB
000068:    6012           16003                           TCF      INTPRET    +3                         #  (ACTUALLY PART OF THE EXECUTIVE).
000069:


000071:                                                                                                  #        AT THE END OF MOST INSTRUCTIONS, CONTROL IS GIVEN TO DANZIG TO DISPATCH THE NEXT OPERATION.
000072:    6013           54147        NEWMODE            TS       MODE                                  #  PROLOGUE FOR MODE-CHANGING INSTRUCTIONS.
000073:
000074:    6014           30151        DANZIG             CA       BANKSET                               #  SET BBANK BEFORE TESTING NEWJOB SO THAT
000075:    6015           54004                           TS       FBANK                                 #  BBANK MAY BE SAVED DIRECTLY BY CHANJOB.
000076:
000077:    6016           10023        NOIBNKSW           CCS      EDOP                                  #  SEE IF AN ORDER CODE IS LEFT OVER FROM
000078:    6017           16032                           TCF      OPJUMP                                #  THE LAST PAIR RETRIEVED. IF SO, EXECUTE.
000079:                                                                                                  #  EDOP IS SET TO ZERO ON ITS RE-EDITING.
000080:
000081:    6020           10067                           CCS      NEWJOB                                #  SEE IF A JOB OF HIGHER PRIORITY IS
000082:    6021           14412                           TCF      CHANG2                                #  PRESENT, AND IF SO, CHANGE JOBS.
000083:
000084:    6022           24150                           INCR     LOC                                   #  ADVANCE THE LOCATION COUNTER.
000085:    6023           50150        NEWOPS             INDEX    LOC                                   #  ENTRY TO BEGIN BY PICKING OP CODE PAIR.
000086:    6024           30000                           CA       0                                     #  MAY BE AN OPCODE PAIR OR A STORE CODE.
000087:    6025           10000                           CCS      A                                     #  TEST SIGN AND GET DABS(A).
000088:    6026           16342                           TCF      DOSTORE                               #  PROCESS STORE CODE.
000089:
000090:    6027           00177        LOW7               OCT      177
000091:
000092:    6030           54023                           TS       EDOP                                  #  OP CODE PAIR.  LEAVE THE OTHER IN EDOP
000093:    6031           76027                           MASK     LOW7                                  #  WHERE CCS EDOP WILL HONOR IT NEXT.
000094:
000095:    6032           54020        OPJUMP             TS       CYR                                   #  LOWWD ENTERS HERE IF A RIGHT-HAND OP
000096:    6033           10020                           CCS      CYR                                   #  CODE IS TO BE PROCESSED. TEST PREFICES.
000097:    6034           16167                           TCF      OPJUMP2                               #  TEST SECOND PREFIX BIT.
000098:
000099:    6035           16731                           TCF      EXIT                                  #  +0 OP CODE IS EXIT.
000100:


000102:                                                                                                  #        PROCESS ADDRESSES WHICH MAY BE DIRECT, INDEXED, OR REFERENCE THE PUSHDOWN LIST.
000103:
000104:    6036           77657        ADDRESS            MASK     BIT1                                  #  SEE IF ADDRESS IS INDEXED.  CYR CONTAINED
000105:    6037           10000                           CCS      A                                     #  400XX, SO BIT 1 IS NOW AS IT WAS IN CYR.
000106:    6040           16073                           TCF      INDEX                                 #  FORM INDEXED ADDRESS.
000107:
000108:    6041           50150        DIRADRES           INDEX    LOC                                   #  LOOK AHEAD TO NEXT WORD TO SEE IF
000109:    6042           40001        OCT40001           CS       1                                     #  ADDRESS IS GIVEN.
000110:    6043           10000                           CCS      A
000111:    6044           16135                           TCF      PUSHUP                                #  IF NOT.
000112:
000113:    6045           77773        NEG4               DEC      -4         B-14
000114:
000115:    6046           24150                           INCR     LOC                                   #  IF SO, TO SHOW WE PICKED UP A WORD.
000116:    6047           54102                           TS       ADDRWD
000117:


000119:                                                                                                  #           FINAL DIGESTION OF DIRECT ADDRESSES OF OP CODES WITH 01 PREFIX IS DONE HERE. IN EACH CASE, THE
000120:                                                                                                  #  REQUIRED 12 BIT SUB-ADDRESS IS LEFT IN ADDRWD, WITH ANY REQUIRED BANK SWITCHING DONE (F ONLY). ADDRESSES LESS
000121:                                                                                                  #  THAN 45D ARE TAKEN TO BE RELATIVE TO THE WORK AREA. THE OP CODE IS NOW IN BITS 1-5 OF CYR WITH BIT 14 = 1.
000122:
000123:
000124:
000125:    6050           66171                           AD       -ENDVAC                               #  SEE IF ADDRESS RELATIVE TO WORK AREA.
000126:    6051           10000                           CCS      A
000127:    6052           66234                           AD       -ENDERAS                              #  IF NOT, SEE IF IN GENERAL ERASABLE.
000128:    6053           16060                           TCF      IERASTST
000129:
000130:    6054           30104        NETZERO            CA       FIXLOC                                #  IF SO, LEAVE THE MODIFIED ADDRESS IN
000131:    6055           26102                           ADS      ADDRWD                                #  ADDRWD AND DISPATCH.
000132:    6056           50020                 +2        INDEX    CYR                                   #  THIS INDEX MAKES THE NEXT INSTRUCTION
000133:    6057           76234                           7        INDJUMP    -1                         #  TCF INDJUMP + OP, EDITING CYR.
000134:
000135:    6060           00006        IERASTST           EXTEND
000136:    6061           66056                           BZMF     NETZERO    +2                         #  GENERAL ERASABLE - DISPATCH IMMEDIATELY.
000137:
000138:    6062           60100        FIXEDADR           AD       INTB15+                               #  FIXED BANK ADDRESS. RESTORE AND ADD B15.
000139:    6063           54004                 +1        TS       FBANK                                 #  SWITCH BANKS AND LEAVE SUB-ADDRESS IN
000140:    6064           76426                           MASK     LOW10                                 #  ADDRWD FOR OPERAND RETRIEVAL.
000141:    6065           67645                           AD       2K
000142:    6066           54102                           TS       ADDRWD
000143:    6067           50020                           INDEX    CYR
000144:    6070           76234                           7        INDJUMP    -1
000145:


000147:                                                                                                  #           THE FOLLOWING ROUTINE PROCESSES INTERPRETIVE INDEXED ADDRESSES. AN INTERPRETER INDEX REGISTER MAY
000148:                                                                                                  #  CONTAIN THE ADDRESS OF ANY ERASABLE REGISTER (0-42 BEING RELATIVE TO THE VAC AREA) OR ANY INTERPRETIVE PROGRAM
000149:                                                                                                  #  BANK, OR ANY INTEGER IN THAT RANGE.
000150:
000151:    6071           37676        DODLOAD*           CAF      DLOAD*                                #  STODL* COMES HERE TO PROCESS LOAD ADR.
000152:    6072           54020                           TS       CYR                                   #  (STOVL* ENTERS HERE).
000153:
000154:    6073           30104        INDEX              CA       FIXLOC                                #  SET UP INDEX LOCATION.
000155:    6074           54114                           TS       INDEXLOC
000156:    6075           24150                           INCR     LOC                                   #  (ADDRESS ALWAYS GIVEN).
000157:    6076           50150                           INDEX    LOC
000158:    6077           40000                           CS       0
000159:    6100           10000                           CCS      A                                     #  INDEX 2 IF ADDRESS STORED COMPLEMENTED.
000160:    6101           24114                           INCR     INDEXLOC
000161:    6102           16103                           NOOP
000162:
000163:    6103           54102                           TS       ADDRWD                                #  14 BIT ADDRESS TO ADDRWD.
000164:    6104           76232                           MASK     BANKMASK                              #  IF ADDRESS GREATER THAN 1K, ADD INTBIT15
000165:    6105           00006                           EXTEND
000166:    6106           16111                           BZF      INDEX2
000167:    6107           30101                           CA       INTBIT15
000168:    6110           26102                           ADS      ADDRWD
000169:
000170:    6111           50114        INDEX2             INDEX    INDEXLOC
000171:    6112           40046                           CS       X1
000172:    6113           26102                           ADS      ADDRWD                                #  DO AUGMENT, IGNORING AND CORRECTING OVF.
000173:
000174:    6114           76231                           MASK     HIGH9                                 #  SEE IF ADDRESS IS IN WORK AREA.
000175:    6115           00006                           EXTEND
000176:    6116           16131                           BZF      INDWORK
000177:    6117           76232                           MASK     BANKMASK                              #  SEE IF IN FIXED BANK.
000178:    6120           00006                           EXTEND
000179:    6121           16133                           BZF      INDERASE
000180:
000181:    6122           30102                           CA       ADDRWD                                #  IN FIXED - SWITCH BANKS AND CREATE
000182:    6123           54004                           TS       FBANK                                 #  SUB-ADDRESS.
000183:    6124           76426                           MASK     LOW10
000184:    6125           67645                           AD       2K
000185:    6126           54102                           TS       ADDRWD
000186:    6127           50020                           INDEX    CYR
000187:    6130           36234                           3        INDJUMP    -1
000188:
000189:    6131           30104        INDWORK            CA       FIXLOC                                #  MAKE ADDRWD RELATIVE TO WORK AREA.
000190:    6132           26102                           ADS      ADDRWD
000191:
000192:    6133           50020        INDERASE           INDEX    CYR
000193:    6134           36234                           3        INDJUMP    -1
000194:


000196:                                                                                                  #           PUSH-UP ROUTINES. WHEN NO OPERAND ADDRESS IS GIVEN, THE APPROPRIATE OPERAND IS TAKEN FROM THE PUSH-DOWN
000197:                                                                                                  #  LIST. IN MOST CASES THE MODE OF THE RESULT (VECTOR OR SCALAR) OF THE LAST ARITHMETIC OPERATION PERFORMED
000198:                                                                                                  #  IS THE SAME AS THE TYPE OF OPERAND DESIRED (ALL ADD/SUBTRACT ETC.). EXCEPTIONS TO THIS GENERAL RULE ARE LISTED
000199:                                                                                                  #  BELOW (NOTE THAT IN EVERY CASE THE MODE REGISTER IS LEFT INTACT):
000200:
000201:                                                                                                  #           1.  VXSC AND V/SC WANT THE OPPOSITE TYPE OF OPERAND, E.G., IF THE LAST OPERATION YIELDED A VECTOR
000202:                                                                                                  #  RESULT, VXSC WANTS A SCALAR.
000203:
000204:                                                                                                  #           2.  THE LOAD CODES SHOULD LOAD THE ACCUMULATOR INDEPENDENT OF THE RESULT OF THE LAST OPERATION. THIS
000205:                                                                                                  #  INCLUDES VLOAD, DLOAD, TLOAD, PDDL, AND PDVL (NO PUSHUP WITH SLOAD).
000206:
000207:                                                                                                  #           3.  SOME ARITHMETIC OPERATIONS REQUIRE A STANDARD TYPE OF OPERAND REGARDLESS OF THE PREVIOUS OPERATION.
000208:                                                                                                  #  THIS INCLUDES SIGN WANTING DP AND TAD REQUIRING TP.
000209:
000210:    6135           36227        PUSHUP             CAF      OCT23                                 #  IF THE LOW 5 BITS OF CYR ARE LESS THAN
000211:    6136           70020                           MASK     CYR                                   #  20, THIS OP REQUIRES SPECIAL ATTENTION.
000212:    6137           66142                           AD       -OCT10                                #  (NO -0).
000213:    6140           10000                           CCS      A
000214:    6141           16153                           TCF      REGUP                                 #  FOR ALL CODES GREATER THAN OCT 7.
000215:
000216:    6142           77767        -OCT10             OCT      -10
000217:
000218:    6143           66045                           AD       NEG4                                  #  WE NOW HAVE 7 - OP CODE (MOD4). SEE IF
000219:    6144           10000                           CCS      A                                     #  THE OP CODE (MOD4) IS THREE (REVERSE).
000220:    6145           50000                           INDEX    A                                     #  NO - THE MODE IS DEFINITE.  PICK UP THE
000221:    6146           46164                           CS       NO.WDS
000222:    6147           16155                           TCF      REGUP      +2
000223:
000224:    6150           50147                           INDEX    MODE                                  #  FOR VXSC AND V/SC WE WANT THE REQUIRED
000225:    6151           46162                           CS       REVCNT                                #  PUSHLOC DECREMENT WITHOUT CHANGING THE
000226:    6152           16155                           TCF      REGUP      +2                         #  MODE AT THIS TIME.
000227:
000228:    6153           50147        REGUP              INDEX    MODE                                  #  MOST ALL OP CODES PUSHUP HERE.
000229:    6154           46164                           CS       NO.WDS
000230:    6155           26152                 +2        ADS      PUSHLOC
000231:    6156           54102                           TS       ADDRWD
000232:    6157           50020                           INDEX    CYR
000233:    6160           76234                           7        INDJUMP    -1                         #  (THE INDEX MAKES THIS A TCF.)
000234:
000235:    6161           00002                           OCT      2                                     #  REVERSE PUSHUP DECREMENT. VECTOR TAKES 2
000236:    6162           00006        REVCNT             OCT      6                                     #  WORDS, SCALAR TAKES 6.
000237:    6163           00006                           OCT      6
000238:    6164           00002        NO.WDS             OCT      2                                     #  CONVENTIONAL DECREMENT IS 6 WORDS VECTOR
000239:    6165           00003                           OCT      3                                     #  2 IN DP, AND 3 IN TP.
000240:    6166           00006                           OCT      6
000241:


000243:                                                                                                  #           TEST THE SECOND PREFIX BIT TO SEE IF THIS IS A MISCELLANEOUS OR A UNARY/SHORT SHIFT OPERATION.
000244:
000245:    6167           10020        OPJUMP2            CCS      CYR                                   #  TEST SECOND PREFIX BIT.
000246:    6170           16217                           TCF      OPJUMP3                               #  TEST THIRD BIT TO SEE IF UNARY OR SHIFT.
000247:
000248:    6171           77722        -ENDVAC            DEC      -45        B-14
000249:
000250:                                                                                                  #           THE FOLLOWING ROUTINE PROCESSES ADDRESSES OF SUFFIX CLASS 10. THEY ARE BASICALLY WORK AREA ADDRESSES
000251:                                                                                                  #  IN THE RANGE 0 - 52, ERASABLE ADRES CONSTANTS FROM 100 - 1777, AND FCADRS ABOVE THAT. ALL 15 BITS ARE AVAILABLE
000252:                                                                                                  #  IN CONTRAST TO SUFFIX 1, IN WHICH ONLY THE LOW ORDER 14 ARE AVAILABLE.
000253:
000254:    6172           24150        15BITADR           INCR     LOC                                   #  (ENTRY HERE FROM STCALL).
000255:    6173           50150                           INDEX    LOC                                   #  PICK UP ADDRESS WORD.
000256:    6174           30000                           CA       0
000257:    6175           54103                           TS       POLISH                                #  THE ABSOLUTE ADDRESS WILL BE LEFT IN
000258:    6176           54102                           TS       ADDRWD                                #  POLISH WITH AN ERASABLE SUBADDRESS IN
000259:                                                                                                  #  ADDRWD.
000260:    6177           76231                           MASK     HIGH9                                 #  SEE IF RELATIVE TO THE WORK AREA.
000261:    6200           10000                           CCS      A
000262:    6201           16203                           TCF      +2
000263:    6202           16210                           TCF      RELWORK                               #  ONLY IF ZERO.
000264:
000265:    6203           36230                           CAF      LOW7+2K                               #  THESE INSTRUCTIONS ARE IN BANK 1.
000266:    6204           54004                           TS       FBANK
000267:    6205           70020                           MASK     CYR
000268:    6206           50000                           INDEX    A
000269:    6207           16275                           TCF      MISCJUMP
000270:
000271:    6210           30104        RELWORK            CA       FIXLOC                                #  MAKE ADDRWD RELATIVE TO FIXLOC, LEAVING
000272:    6211           26102                           ADS      ADDRWD                                #  POLISH ABSOLUTE IN CASE THIS WAS AN
000273:    6212           36230                           CAF      LOW7+2K                               #  AXT, ETC.
000274:    6213           54004                           TS       FBANK
000275:    6214           70020                           MASK     CYR
000276:    6215           50000                           INDEX    A
000277:    6216           16275                           TCF      MISCJUMP
000278:


000280:                                                                                                  #           COMPLETE THE DISPATCHING OF UNARY AND SHORT SHIFT OPERATIONS.
000281:
000282:    6217           54004        OPJUMP3            TS       FBANK                                 #  CALL IN BANK 0 (BITS 11-15 OF A ARE 0.)
000283:    6220           10020                           CCS      CYR                                   #  TEST THIRD PREFIX BIT.
000284:    6221           50000                           INDEX    A                                     #  THE DECREMENTED UNARY CODE IS IN BITS
000285:    6222           16315                           TCF      UNAJUMP                               #  1-4 OF A (ZERO, EXIT, HAS BEEN DETECTED)
000286:
000287:    6223           10147                           CCS      MODE                                  #  ITS A SHORT SHIFT CODE. SEE IF PRESENT
000288:    6224           12000                           TCF      SHORTT                                #  SCALAR OR VECTOR.
000289:    6225           12000                           TCF      SHORTT
000290:    6226           12102                           TCF      SHORTV                                #  CALLS THE APPROPRIATE ROUTINE.
000291:
000292:
000293:    6227           00023        OCT23              OCT      23                                    #  MASK USED BY PUSH-UP ROUTINE.
000294:    6230           02177        LOW7+2K            OCT      2177                                  #  OP CODE MASK + BANK 1 FBANK SETTING.
000295:    6231           77700        HIGH9              OCT      77700
000296:    6232           76000        BANKMASK           OCT      76000                                 #  FBANK MASK.
000297:    6233     6232               FBANKMSK           EQUALS   BANKMASK
000298:    6233           36000        B11T14             OCT      36000                                 #  USED IN PROCESSING STORE CODES.
000299:    6234           76056        -ENDERAS           DEC      -977       B-14
000300:


000302:                                                                                                  #           THE FOLLOWING IS THE JUMP TABLE FOR OP CODES WHICH MAY HAVE INDEXABLE ADDRESSES OR MAY PUSH UP.
000303:
000304:    6235           16511        INDJUMP            TCF      VLOAD                                 #  00 - LOAD MPAC WITH A VECTOR.
000305:    6236           17050                           TCF      TAD                                   #  01 - TRIPLE PRECISION ADD TO MPAC.
000306:    6237           17603                           TCF      SIGN                                  #  02 - COMPLEMENT MPAC (V OR SC) IF X NEG.
000307:    6240           17354                           TCF      VXSC                                  #  03 - VECTOR TIMES SCALAR.
000308:    6241           16672                           TCF      CGOTO                                 #  04 - COMPUTED GO TO.
000309:    6242           16474                           TCF      TLOAD                                 #  05 - LOAD MPAC WITH TRIPLE PRECISION.
000310:    6243           16465                           TCF      DLOAD                                 #  06 - LOAD MPAC WITH A DP SCALAR.
000311:    6244           17552                           TCF      V/SC                                  #  07 - VECTOR DIVIDED BY SCALAR.
000312:
000313:    6245           16505                           TCF      SLOAD                                 #  10 - LOAD MPAC IN SINGLE PRECISION.
000314:    6246           16624                           TCF      SSP                                   #  11 - SET SINGLE PRECISION INTO X.
000315:    6247           16527                           TCF      PDDL                                  #  12 - PUSH DOWN MPAC AND RE-LOAD IN DP.
000316:    6250           17307                           TCF      MXV                                   #  13 - MATRIX POST-MULTIPLIED BY VECTOR.
000317:    6251           16563                           TCF      PDVL                                  #  14 - PUSH DOWN AND VECTOR LOAD.
000318:    6252           16632                           TCF      CCALL                                 #  15 - COMPUTED CALL.
000319:    6253           17312                           TCF      VXM                                   #  16 - MATRIX PRE-MULTIPLIED BY VECTOR.
000320:    6254           17544                           TCF      TSLC                                  #  17 - NORMALIZE MPAC (SCALAR ONLY).
000321:
000322:    6255           17522                           TCF      DMPR                                  #  20 - DP MULTIPLY AND ROUND.
000323:    6256           17525                           TCF      DDV                                   #  21 - DP DIVIDE BY.
000324:    6257           17531                           TCF      BDDV                                  #  22 - DP DIVIDE INTO.
000325:    6260           17547                           TCF      GSHIFT                                #  23 - GENERAL SHIFT INSTRUCTION.
000326:    6261           16733                           TCF      VAD                                   #  24 - VECTOR ADD.
000327:    6262           16761                           TCF      VSU                                   #  25 - VECTOR SUBTRACT.
000328:    6263           17011                           TCF      BVSU                                  #  26 - VECTOR SUBTRACT FROM.
000329:    6264           17304                           TCF      DOT                                   #  27 - VECTOR DOT PRODUCT.
000330:
000331:    6265           17434                           TCF      VXV                                   #  30 - VECTOR CROSS PRODUCT.
000332:    6266           17400                           TCF      VPROJ                                 #  31 - VECTOR PROJECTION.
000333:    6267           16777                           TCF      DSU                                   #  32 - DP SUBTRACT.
000334:    6270           17035                           TCF      BDSU                                  #  33 - DP SUBTRACT FROM.
000335:    6271           16751                           TCF      DAD                                   #  34 - DP ADD.
000336:    6272           16272                           TCF      +0                                    #  35 - AVAILABLE
000337:    6273           17520                           TCF      DMP1                                  #  36 - DP MULTIPLY.
000338:    6274           17541                           TCF      SETPD                                 #  37 - SET PUSH DOWN POINTER (DIRECT ONLY)
000339:
000340:                                                                                                  #  CODES 10 AND 14 MUST NOT PUSH UP. CODE 04 MAY BE USED FOR VECTOR DECLARE BEFORE PUSHUP IF DESIRED.
000341:


000343:                                                                                                  #           THE FOLLOWING JUMP TABLE APPLIES TO INDEX, BRANCH, AND MISCELLANEOUS INSTRUCTIONS.
000344:
000345:    6275           12000        MISCJUMP           TCF      AXT                                   #  00 - ADDRESS TO INDEX TRUE.
000346:    6276           12005                           TCF      AXC                                   #  01 - ADDRESS TO INDEX COMPLEMENTED.
000347:    6277           12010                           TCF      LXA                                   #  02 - LOAD INDEX FROM ERASABLE.
000348:    6300           12014                           TCF      LXC                                   #  03 - LOAD INDEX FROM COMPLEMENT OF ERAS.
000349:    6301           12020                           TCF      SXA                                   #  04 - STORE INDEX IN ERASABLE.
000350:    6302           12024                           TCF      XCHX                                  #  05 - EXCHANGE INDEX WITH ERASABLE.
000351:    6303           12040                           TCF      INCR                                  #  06 - INCREMENT INDEX REGISTER.
000352:    6304           12047                           TCF      TIX                                   #  07 - TRANSFER ON INDEX.
000353:
000354:    6305           12032                           TCF      XAD                                   #  10 - INDEX REGISTER ADD FROM ERASABLE.
000355:    6306           12043                           TCF      XSU                                   #  11 - INDEX SUBTRACT FROM ERASABLE.
000356:    6307           12107                           TCF      BZE/GOTO                              #  12 - BRANCH ZERO AND GOTO.
000357:    6310           12114                           TCF      BPL/BMN                               #  13 - BRANCH PLUS AND BRANCH MINUS.
000358:    6311           12127                           TCF      CALL/ITA                              #  14 - CALL AND STORE QPRET.
000359:    6312           12067                           TCF      RTB/BHIZ                              #  15 - RETURN TO BASIC AND BRANCH HI ZERO.
000360:    6313           12135                           TCF      SW/                                   #  16 - SWITCH INSTRUCTIONS AND AVAILABLE.
000361:    6314           12077                           TCF      BOV(B)                                #  17 - BRANCH ON OVERFLOW TO BASIC OR INT.
000362:


000364:                                                                                                  #           THE FOLLOWING JUMP TABLE APPIES TO UNARY INSTRUCTIONS.
000365:
000366:                                                                                                  #  00 - EXIT - DETECTED EARLIER.
000367:    6315           13135        UNAJUMP            TCF      SQRT                                  #  01 - SQUARE ROOT.
000368:    6316           13456                           TCF      SINE                                  #  02 - SIN.
000369:    6317           13445                           TCF      COSINE                                #  03 - COS.
000370:    6320           13536                           TCF      ARCSIN                                #  04 - ARC SIN.
000371:    6321           13540                           TCF      ARCCOS                                #  05 - ARC COS.
000372:    6322           13122                           TCF      DSQ                                   #  06 - DP SQUARE.
000373:    6323           12077                           TCF      ROUND                                 #  07 - ROUND TO DP.
000374:
000375:    6324           17616                           TCF      COMP                                  #  10 - COMPLEMENT VECTOR OR SCALAR.
000376:    6325           13160                           TCF      VDEF                                  #  11 - VECTOR DEFINE.
000377:    6326           12750                           TCF      UNIT                                  #  12 - UNIT VECTOR.
000378:    6327           13124                           TCF      ABVALABS                              #  13 - LENGTH OF VECTOR OR MAG OF SCALAR.
000379:    6330           13174                           TCF      VSQ                                   #  14 - SQUARE OF LENGTH OF VECTOR.
000380:    6331           16334                           TCF      STADR                                 #  15 - PUSH UP ON STORE CODE.
000381:    6332           13224                           TCF      RVQ                                   #  16 - RETURN VIA QPRET.
000382:    6333           13177                           TCF      PUSH                                  #  17 - PUSH MPAC DOWN.
000383:


000385:                                                                                                  #  SECTION 2  LOAD AND STORE PACKAGE.
000386:
000387:                                                                                                  #           A SET OF SIXTEEN STORE CODES ARE PROVIDED AS THE PRIMARY METHOD OF STORING THE MULTI-PURPOSE
000388:                                                                                                  #  ACCUMULATOR (MPAC). IF IN THE DANZIG SECTION LOC REFERS TO AN ALGEBRAICALLY POSITIVE WORD, IT IS TAKEN AS A
000389:                                                                                                  #  STORE CODE WITH A CORRESPONDING ERASABLE ADDRESS. MOST OF THESE CODES ARE TWO ADDRESS, SPECIFYING THAT THE WORD
000390:                                                                                                  #  FOLLOWING THE STORE CODE IS TO BE USED AS AN ADDRESS FROM WHICH TO RE-LOAD MPAC. FOUR OPTIONS ARE AVAILABLE:
000391:
000392:                                                                                                  #           1. STORE               STORE MPAC. THE E ADDRESS MAY BE INDEXED.
000393:                                                                                                  #           2. STODL               STORE MPAC AND RE-LOAD IT IN DP WITH THE NEXT ADDRESS (EITHER MAY BE INDEXED).
000394:                                                                                                  #           3. STOVL               STORE MPAC AND RE-LOAD A VECTOR (AS ABOVE).
000395:                                                                                                  #           4. STCALL              STORE AND DO A CALL (BOTH ADDRESSES MUST BE DIRECT HERE).
000396:
000397:                                                                                                  #           STODL AND STOVL WILL TAKE FROM THE PUSH-DOWN LIST IF NO LOAD ADDRESS IS GIVEN.
000398:
000399:
000400:
000401:    6334           30151        STADR              CA       BANKSET                               #  THE STADR CODE (PUSHUP UP ON STORE
000402:    6335           54004                           TS       FBANK                                 #  ADDRESS) ENTERS HERE.
000403:    6336           24150                           INCR     LOC
000404:    6337           50150                           INDEX    LOC                                   #  THE STORE CODE WAS STORE COMPLEMENTED TO
000405:    6340           40000                           CS       0                                     #  MAKE IT LOOK LIKE AN OPCODE PAIR.
000406:    6341           67667                           AD       NEGONE                                #  (YUL CANT REMOVE 1 BECAUSE OF EARLY CCS)
000407:
000408:    6342           54102        DOSTORE            TS       ADDRWD
000409:    6343           76426                           MASK     LOW10                                 #  ENTRY FROM DISPATCHER. SAVE THE ERASABLE
000410:    6344           56102                           XCH      ADDRWD                                #  ADDRESS AND JUMP ON THE STORE CODE NO.
000411:    6345           76233                           MASK     B11T14
000412:    6346           00006                           EXTEND
000413:    6347           77652                           MP       BIT6                                  #  EACH TRANSFER VECTOR ENTRY IS TWO WORDS.
000414:    6350           50000                           INDEX    A
000415:    6351           16352                           TCF      STORJUMP
000416:


000418:                                                                                                  #           STORE CODE JUMP TABLE. CALLS THE APPROPRIATE STORING ROUTINE AND EXITS TO DANZIG OR TO ADDRESS WITH
000419:                                                                                                  #  A SUPPLIED OPERATION CODE.
000420:
000421:    6352           06422        STORJUMP           TC       STORE                                 #  STORE.
000422:    6353           16022                           TCF      NEWOPS     -1                         #  PICK UP NEW OP CODE(S).
000423:    6354           06414                           TC       STORE,1
000424:    6355           16022                           TCF      NEWOPS     -1
000425:    6356           06417                           TC       STORE,2
000426:    6357           16022                           TCF      NEWOPS     -1
000427:
000428:    6360           06422                           TC       STORE                                 #  STODL.
000429:    6361           16455                           TCF      DODLOAD
000430:    6362           06414                           TC       STORE,1
000431:    6363           16455                           TCF      DODLOAD
000432:    6364           06417                           TC       STORE,2
000433:    6365           16455                           TCF      DODLOAD
000434:
000435:    6366           06422                           TC       STORE                                 #  STODL WITH INDEXED LOAD ADDRESS.
000436:    6367           16071                           TCF      DODLOAD*
000437:    6370           06414                           TC       STORE,1
000438:    6371           16071                           TCF      DODLOAD*
000439:    6372           06417                           TC       STORE,2
000440:    6373           16071                           TCF      DODLOAD*
000441:
000442:    6374           06422                           TC       STORE                                 #  STOVL.
000443:    6375           16460                           TCF      DOVLOAD
000444:    6376           06414                           TC       STORE,1
000445:    6377           16460                           TCF      DOVLOAD
000446:    6400           06417                           TC       STORE,2
000447:    6401           16460                           TCF      DOVLOAD
000448:
000449:    6402           06422                           TC       STORE                                 #  STOVL WITH INDEXED LOAD ADDRESS.
000450:    6403           16463                           TCF      DOVLOAD*
000451:    6404           06414                           TC       STORE,1
000452:    6405           16463                           TCF      DOVLOAD*
000453:    6406           06417                           TC       STORE,2
000454:    6407           16463                           TCF      DOVLOAD*
000455:
000456:    6410           06422                           TC       STORE                                 #  STOTC.
000457:    6411           37674                           CAF      CALLCODE
000458:    6412           54020                           TS       CYR
000459:    6413           16172                           TCF      15BITADR                              #  GET A 15 BIT ADDRESS.
000460:


000462:                                                                                                  #           STORE CODE ADDRESS PROCESSOR.
000463:
000464:    6414           50104        STORE,1            INDEX    FIXLOC
000465:    6415           40046                           CS       X1
000466:    6416           16421                           TCF      PRESTORE
000467:
000468:    6417           50104        STORE,2            INDEX    FIXLOC
000469:    6420           40047                           CS       X2
000470:    6421           26102        PRESTORE           ADS      ADDRWD                                #  RESULTANT ADDRESS IS IN ERASABLE.
000471:
000472:    6422           30102        STORE              CA       ADDRWD                                #  SEE IF ADDRESS RELATIVE TO WORK AREA.
000473:    6423           66171                           AD       -ENDVAC
000474:    6424           10000                           CCS      A
000475:    6425           16431                           TCF      STARTSTO                              #  ADDRESS OK AS IS.
000476:
000477:    6426           01777        LOW10              OCT      1777
000478:
000479:    6427           30104                           CA       FIXLOC                                #  GIVEN ADDRESS IS RELATIVE TO WORK AREA.
000480:    6430           26102                           ADS      ADDRWD
000481:


000483:                                                                                                  #           STORING ROUTINES. STORE DP, TP, OR VECTOR AS INDICATED BY MODE.
000484:
000485:    6431           00006        STARTSTO           EXTEND                                         #  MPAC,+1 MUST BE STORED IN ANY EVENT.
000486:    6432           30141                           DCA      MPAC
000487:    6433           50102                           INDEX    ADDRWD
000488:    6434           52001                           DXCH     0
000489:
000490:    6435           10147                           CCS      MODE
000491:    6436           16451                           TCF      TSTORE
000492:    6437           00002                           TC       Q
000493:
000494:    6440           00006        VSTORE             EXTEND
000495:    6441           30144                           DCA      MPAC       +3
000496:    6442           50102                           INDEX    ADDRWD
000497:    6443           52003                           DXCH     2
000498:
000499:    6444           00006                           EXTEND
000500:    6445           30146                           DCA      MPAC       +5
000501:    6446           50102                           INDEX    ADDRWD
000502:    6447           52005                           DXCH     4
000503:    6450           00002                           TC       Q
000504:
000505:    6451           30142        TSTORE             CA       MPAC       +2
000506:    6452           50102                           INDEX    ADDRWD
000507:    6453           54002                           TS       2
000508:    6454           00002                           TC       Q
000509:


000511:                                                                                                  #           ROUTINES TO BEGIN PROCESSING OF THE SECOND ADDRESS ASSOCIATED WITH ALL STORE-TYPE CODES EXCEPT STORE
000512:                                                                                                  #  ITSELF.
000513:
000514:    6455           37675        DODLOAD            CAF      DLOADCOD
000515:    6456           54020                           TS       CYR
000516:    6457           16041                           TCF      DIRADRES                              #  GO GET A DIRECT ADDRESS.
000517:
000518:    6460           37641        DOVLOAD            CAF      VLOADCOD
000519:    6461           54020                           TS       CYR
000520:    6462           16041                           TCF      DIRADRES
000521:
000522:    6463           36042        DOVLOAD*           CAF      VLOAD*
000523:    6464           16072                           TCF      DODLOAD*   +1                         #  PROLOGUE TO INDEX ROUTINE.
000524:


000526:                                                                                                  #           THE FOLLOWING LOAD INSTRUCTIONS ARE PROVIDED FOR LOADING THE MULTI-PURPOSE ACCUMULATOR MPAC.
000527:
000528:    6465           00006        DLOAD              EXTEND
000529:    6466           50102                           INDEX    ADDRWD
000530:    6467           30001                           DCA      0                                     #  PICK UP DP ARGUMENT AND LEAVE IT IN
000531:    6470           52141        SLOAD2             DXCH     MPAC                                  #  MPAC,+1, SETTING MPAC +2 TO ZERO. THE
000532:    6471           37665                           CAF      ZERO                                  #  CONTENTS OF THE OTHER FOUR REGISTERS OF
000533:    6472           54142                           TS       MPAC       +2                         #  MPAC ARE IRRELEVANT.
000534:    6473           16013                           TCF      NEWMODE                               #  DECLARE DOUBLE PRECISION MODE.
000535:
000536:    6474           50102        TLOAD              INDEX    ADDRWD
000537:    6475           30002                           CA       2                                     #  LOAD A TRIPLE PRECISION ARGUMENT INTO
000538:    6476           54142                           TS       MPAC       +2                         #  THE FIRST THREE MPAC REGISTERS, WITH THE
000539:    6477           00006                           EXTEND                                         #  CONTENTS OF THE OTHER FOUR IRRELEVANT.
000540:    6500           50102                           INDEX    ADDRWD
000541:    6501           30001                           DCA      0
000542:    6502           52141                           DXCH     MPAC
000543:    6503           37657                           CAF      ONE
000544:    6504           16013                           TCF      NEWMODE                               #  DECLARE TRIPLE PRECISION MODE.
000545:
000546:    6505           22007        SLOAD              ZL                                             #  LOAD A SINGLE PRECISION NUMBER INTO
000547:    6506           50102                           INDEX    ADDRWD                                #  MPAC, SETTING MPAC+1,2 TO ZERO. THE
000548:    6507           30000                           CA       0                                     #  CONTENTS OF THE REMAINING MPAC REGISTERS
000549:    6510           16470                           TCF      SLOAD2                                #  ARE IRRELEVANT.
000550:
000551:    6511           00006        VLOAD              EXTEND                                         #  LOAD A DOUBLE PRECISION VECTOR INTO
000552:    6512           50102                           INDEX    ADDRWD                                #  MPAC,+1, MPAC+3,4, AND MPAC+5,6. THE
000553:    6513           30001                           DCA      0                                     #  CONTENTS OF MPAC +2 ARE IRRELEVANT.
000554:    6514           52141                           DXCH     MPAC
000555:
000556:    6515           00006        ENDVLOAD           EXTEND                                         #  PDVL COMES HERE TO FINISH UP FOR DP, TP.
000557:    6516           50102                           INDEX    ADDRWD
000558:    6517           30003                           DCA      2
000559:    6520           52144                           DXCH     MPAC       +3
000560:
000561:    6521           00006                 +4        EXTEND                                         #  TPDVL FINISHES HERE.
000562:    6522           50102                           INDEX    ADDRWD
000563:    6523           30005                           DCA      4
000564:    6524           52146                           DXCH     MPAC       +5
000565:
000566:    6525           47657                           CS       ONE                                   #  DECLARE VECTOR MODE.
000567:    6526           16013                           TCF      NEWMODE
000568:


000570:                                                                                                  #           THE FOLLOWING INSTRUCTIONS ARE PROVIDED FOR STORING OPERANDS IN THE PUSHDOWN LIST:
000571:
000572:                                                                                                  #           1.  PUSH               PUSHDOWN AND NO LOAD.
000573:                                                                                                  #           2.  PDDL               PUSHDOWN AND DOUBLE PRECISION LOAD.
000574:                                                                                                  #           3.  PDVL               PUSHDOWN AND VECTOR LOAD.
000575:
000576:    6527           00006        PDDL               EXTEND
000577:    6530           50102                           INDEX    ADDRWD                                #  LOAD MPAC,+1, PUSHING THE FORMER
000578:    6531           30001                           DCA      0                                     #  CONTENTS DOWN.
000579:    6532           52141                           DXCH     MPAC
000580:    6533           50152                           INDEX    PUSHLOC
000581:    6534           52001                           DXCH     0
000582:
000583:    6535           50147                           INDEX    MODE                                  #  ADVANCE THE PUSHDOWN POINTER APPRO-
000584:    6536           36164                           CAF      NO.WDS                                #  PRIATELY.
000585:    6537           26152                           ADS      PUSHLOC
000586:
000587:    6540           10147                           CCS      MODE
000588:    6541           16556                           TCF      ENDTPUSH
000589:    6542           16554                           TCF      ENDDPUSH
000590:
000591:    6543           54147                           TS       MODE                                  #  NOW DP.
000592:    6544           54142        ENDVPUSH           TS       MPAC       +2
000593:    6545           52144                           DXCH     MPAC       +3                         #  PUSH DOWN THE REST OF THE VECTOR HERE.
000594:    6546           50152                           INDEX    PUSHLOC
000595:    6547           51775                           DXCH     0          -4
000596:
000597:    6550           52146                           DXCH     MPAC       +5
000598:    6551           50152                           INDEX    PUSHLOC
000599:    6552           51777                           DXCH     0          -2
000600:
000601:    6553           16014                           TCF      DANZIG
000602:
000603:    6554           54142        ENDDPUSH           TS       MPAC       +2                         #  SET MPAC +2 TO ZERO AND EXIT ON DP.
000604:    6555           16014                           TCF      DANZIG
000605:
000606:    6556           54147        ENDTPUSH           TS       MODE
000607:    6557           56142                           XCH      MPAC       +2                         #  ON TRIPLE, SET MPAC +2 TO ZERO, PUSHING
000608:    6560           50152                 +2        INDEX    PUSHLOC                               #  DOWN THE OLD CONTENTS
000609:    6561           53777                           TS       0          -1
000610:    6562           16014                           TCF      DANZIG
000611:


000613:                                                                                                  #           PDVL - PUSHDOWN AND VECTOR LOAD.
000614:
000615:    6563           00006        PDVL               EXTEND                                         #  RELOAD MPAC AND PUSH DOWN ITS CONTENTS.
000616:    6564           50102                           INDEX    ADDRWD
000617:    6565           30001                           DCA      0
000618:    6566           52141                           DXCH     MPAC
000619:    6567           50152                           INDEX    PUSHLOC
000620:    6570           52001                           DXCH     0
000621:
000622:    6571           50147                           INDEX    MODE                                  #  ADVANCE THE PUSHDOWN POINTER.
000623:    6572           36164                           CAF      NO.WDS
000624:    6573           26152                           ADS      PUSHLOC
000625:
000626:    6574           10147                           CCS      MODE                                  #  TEST PAST MODE.
000627:    6575           16614                           TCF      TPDVL
000628:    6576           16515                           TCF      ENDVLOAD                              #  JUST LOAD LAST FOUR REGISTERS ON DP.
000629:
000630:    6577           00006        VPDVL              EXTEND                                         #  PUSHDOWN AND RE-LOAD LAST TWO COMPONENTS
000631:    6600           50102                           INDEX    ADDRWD
000632:    6601           30003                           DCA      2
000633:    6602           52144                           DXCH     MPAC       +3
000634:    6603           50152                           INDEX    PUSHLOC
000635:    6604           51775                           DXCH     0          -4
000636:
000637:    6605           00006                           EXTEND
000638:    6606           50102                           INDEX    ADDRWD
000639:    6607           30005                           DCA      4
000640:    6610           52146                           DXCH     MPAC       +5
000641:    6611           50152                           INDEX    PUSHLOC
000642:    6612           51777                           DXCH     0          -2
000643:
000644:    6613           16014                           TCF      DANZIG
000645:
000646:    6614           00006        TPDVL              EXTEND                                         #  ON TP, WE MUST LOAD THE Y COMPONENT
000647:    6615           50102                           INDEX    ADDRWD                                #  BEFORE STORING MPAC +2 IN CASE THIS IS A
000648:    6616           30003                           DCA      2                                     #  PUSHUP.
000649:    6617           52144                           DXCH     MPAC       +3
000650:
000651:    6620           30142                           CA       MPAC       +2
000652:    6621           50152                           INDEX    PUSHLOC                               #  IN DP.
000653:    6622           53777                           TS       0          -1
000654:    6623           16521                           TCF      ENDVLOAD   +4
000655:
000656:                                                                                                  #           SSP (STORE SINGLE PRECISION) IS EXECUTED HERE.
000657:
000658:    6624           24150        SSP                INCR     LOC                                   #  PICK UP THE WORD FOLLOWING THE GIVEN
000659:    6625           50150                           INDEX    LOC                                   #  ADDRESS AND STORE IT AT X.
000660:    6626           30000                           CA       0
000661:    6627           50102        STORE1             INDEX    ADDRWD                                #  SOME INDEX AND MISCELLANEOUS OPS END
000662:    6630           54000                           TS       0                                     #  HERE.
000663:


000665:    6631           16014                           TCF      DANZIG
000666:


000668:                                                                                                  #  SEQUENCE CHANGING AND SUBROUTINE CALLING OPTIONS.
000669:
000670:                                                                                                  #           THE FOLLOWING OPERATIONS ARE AVAILABLE FOR SEQUENCING CHANGING, BRANCHING, AND CALLING SUBROUTINES:
000671:
000672:                                                                                                  #           1. GOTO                GO TO.
000673:                                                                                                  #           2. CALL                CALL SUBROUTINE SETTING QPRET.
000674:                                                                                                  #           3. CGOTO               COMPUTED GO TO.
000675:                                                                                                  #           4. CCALL               COMPUTED CALL.
000676:                                                                                                  #           7. BPL                 BRANCH IF MPAC POSITIVE OR ZERO.
000677:                                                                                                  #           8. BZE                 BRANCH IF MPAC ZERO.
000678:                                                                                                  #           9. BMN                 BRANCH IF MPAC NEGATIVE NON-ZERO.
000679:
000680:    6632           24150        CCALL              INCR     LOC                                   #  MAINTAIN LOC FOR QPRET COMPUTATION.
000681:    6633           50150                           INDEX    LOC
000682:    6634           30000                           CAF      0                                     #  GET BASE ADDRESS OF CADR LIST.
000683:    6635           50102                           INDEX    ADDRWD
000684:    6636           60000                           AD       0                                     #  ADD INCREMENT.
000685:    6637           54004                           TS       FBANK                                 #  SELECT DESIRED CADR.
000686:    6640           76426                           MASK     LOW10
000687:    6641           50000                           INDEX    A
000688:    6642           32000                           CAF      10000
000689:    6643           54103                 -1        TS       POLISH
000690:
000691:    6644           46426        CALL               CS       LOW10                                 #  FOR ANY OF THE CALL OPTIONS, MAKE UP THE
000692:    6645           60150                           AD       LOC                                   #  ADDRESS OF THE NEXT OP-CODE PAIR/STORE
000693:    6646           60151                           AD       BANKSET                               #  CODE AND LEAVE IT IN QPRET. NOTE THAT
000694:    6647           50104                           INDEX    FIXLOC                                #  LOW10 = 2000 - 1.
000695:    6650           54052                           TS       QPRET
000696:
000697:    6651           30103        GOTO               CA       POLISH                                #  BASIC BRANCHING SEQUENCE.
000698:    6652           54004                           TS       FBANK
000699:    6653           76426                           MASK     LOW10                                 #  MAKE UP 12 BIT SUB-ADDRESS AND FALL INTO
000700:    6654           67645                           AD       2K                                    #  FALL INTO THE INTPRET ENTRY UNLESS THE
000701:    6655           54150                           TS       LOC                                   #  GIVEN ADDRESS WAS IN ERASABLE, IN WHICH
000702:    6656           10004                           CCS      FBANK                                 #  CASE IT IS USED AS THE ADDRESS OF THE
000703:    6657           16002                           TCF      INTPRET    +2                         #  BRANCH ADDRESS.
000704:    6660           16662                           TCF      +2
000705:    6661           16002                           TCF      INTPRET    +2
000706:


000708:    6662           40150                           CS       LOC                                   #  THE GIVEN ADDRESS IS IN ERASABLE - SEE
000709:    6663           66710                           AD       EVAC+2K                               #  IF RELATIVE TO THE WORK AREA.
000710:    6664           10000                           CCS      A
000711:    6665           30104                           CA       FIXLOC                                #  ADD FIXLOC IF SO.
000712:    6666           26150                           ADS      LOC
000713:
000714:    6667           50150                           INDEX    LOC
000715:    6670           26000                           CA       0          -2000                      #  (ADDRESS HAD BEEN AUGMENTED BY 2000.)
000716:    6671           16652                           TCF      GOTO       +1                         #  ALLOWS ARBITRARY INDIRECTNESS.
000717:
000718:    6672           50150        CGOTO              INDEX    LOC                                   #  COMPUTED GO TO. PICK UP ADDRESS OF CADR
000719:    6673           30001                           CA       1                                     #  LIST.
000720:    6674           50102                           INDEX    ADDRWD                                #  ADD MODIFIER.
000721:    6675           60000                           AD       0
000722:    6676           54004                           TS       FBANK                                 #  SELECT GOTO ADDRESS.
000723:    6677           76426                           MASK     LOW10
000724:    6700           50000                           INDEX    A
000725:    6701           32000                           CA       10000
000726:    6702           16652                           TCF      GOTO       +1                         #  WITH ADDRESS IN A.
000727:
000728:    6703           30151        SWBRANCH           CA       BANKSET                               #  SWITCH INSTRUCTIONS WHICH ELECT TO
000729:    6704           54004                           TS       FBANK                                 #  BRANCH COME HERE TO DO SO.
000730:    6705           50150                           INDEX    LOC
000731:    6706           30001                           CA       1
000732:    6707           16652                           TCF      GOTO       +1
000733:
000734:    6710           02055        EVAC+2K            DEC      1069       B-14                       #  =1024+45
000735:


000737:                                                                                                  #           TRIPLE PRECISION BRANCHING ROUTINE. IF CALLING TC IS AT L, RETURN IS AS FOLLOWS:
000738:                                                                                                  #           L+1  IF MPAC IS GREATER THAN ZERO.
000739:                                                                                                  #           L+2  IF MPAC IS EQUAL TO +0 OR -0.
000740:                                                                                                  #           L+3  IF MPAC IS LESS THAN ZERO.
000741:
000742:
000743:
000744:    6711           10140        BRANCH             CCS      MPAC
000745:    6712           00002                           TC       Q
000746:    6713           16715                           TCF      +2                                    #  ON ZERO.
000747:    6714           16727                           TCF      NEG
000748:
000749:    6715           10141                           CCS      MPAC       +1
000750:    6716           00002                           TC       Q
000751:    6717           16721                           TCF      +2
000752:    6720           16727                           TCF      NEG
000753:
000754:    6721           10142                           CCS      MPAC       +2
000755:    6722           00002                           TC       Q
000756:    6723           16725                           TCF      +2
000757:    6724           16727                           TCF      NEG
000758:
000759:    6725           50002                           INDEX    Q                                     #  IF ALL THREE REGISTERS WERE +-0.
000760:    6726           00001                           TC       1
000761:
000762:    6727           50002        NEG                INDEX    Q                                     #  IF FIRST NON-ZERO REGISTER WAS NEGATIVE.
000763:    6730           00002                           TC       2
000764:
000765:
000766:
000767:    6731           50150        EXIT               INDEX    LOC                                   #  LEAVE INTERPRETIVE MODE.
000768:    6732           10001                           TCF      1
000769:


000771:                                                                                                  #  SECTION 3 - ADD/SUBTRACT PACKAGE.
000772:
000773:                                                                                                  #           THE FOLLOWING OPERATIONS ARE PROVIDED FOR ADDING TO AND SUBTRACTING FROM THE MULTI-PURPOSE ACCUMULATOR
000774:                                                                                                  #  MPAC:
000775:
000776:                                                                                                  #           1. DAD                 DOUBLE PRECISION ADD.
000777:                                                                                                  #           2. DSU                 DOUBLE PRECISION SUBTRACT.
000778:                                                                                                  #           3. BDSU                DOUBLE PRECISION SUBTRACT FROM.
000779:
000780:                                                                                                  #           4. TAD                 TRIPLE PRECISION ADD.
000781:
000782:                                                                                                  #           5. VAD                 VECTOR ADD.
000783:                                                                                                  #           6. VSU                 VECTOR SUBTRACT.
000784:                                                                                                  #           7. BVSU                VECTOR SUBTRACT FROM.
000785:
000786:                                                                                                  #  THE INTERPRETIVE OVERFLOW INDICATOR OVFIND IS SET NON-ZERO IF OVERFLOW OCCURS IN ANY OF THE ABOVE.
000787:
000788:
000789:
000790:    6733           00006        VAD                EXTEND
000791:    6734           50102                           INDEX    ADDRWD
000792:    6735           30003                           DCA      2
000793:    6736           20144                           DAS      MPAC       +3
000794:    6737           00006                           EXTEND                                         #  CHECK OVERFLOW.
000795:    6740           16742                           BZF      +2
000796:    6741           07007                           TC       OVERFLOW
000797:
000798:    6742           00006                           EXTEND
000799:    6743           50102                           INDEX    ADDRWD
000800:    6744           30005                           DCA      4
000801:    6745           20146                           DAS      MPAC       +5
000802:    6746           00006                           EXTEND
000803:    6747           16751                           BZF      +2
000804:    6750           07007                           TC       OVERFLOW
000805:
000806:    6751           00006        DAD                EXTEND
000807:    6752           50102                           INDEX    ADDRWD
000808:    6753           30001                           DCA      0
000809:    6754           20141        ENDVXV             DAS      MPAC                                  #  VXV FINISHES HERE.
000810:    6755           00006                           EXTEND
000811:    6756           16014                           BZF      DANZIG
000812:    6757           07007                           TC       OVERFLOW
000813:    6760           16014                           TCF      DANZIG
000814:


000816:    6761           00006        VSU                EXTEND
000817:    6762           50102                           INDEX    ADDRWD
000818:    6763           40003                           DCS      2
000819:    6764           20144                           DAS      MPAC       +3
000820:    6765           00006                           EXTEND
000821:    6766           16770                           BZF      +2
000822:    6767           07007                           TC       OVERFLOW
000823:
000824:    6770           00006                           EXTEND
000825:    6771           50102                           INDEX    ADDRWD
000826:    6772           40005                           DCS      4
000827:    6773           20146                           DAS      MPAC       +5
000828:    6774           00006                           EXTEND
000829:    6775           16777                           BZF      +2
000830:    6776           07007                           TC       OVERFLOW
000831:
000832:    6777           00006        DSU                EXTEND
000833:    7000           50102                           INDEX    ADDRWD
000834:    7001           40001                           DCS      0
000835:    7002           20141                           DAS      MPAC
000836:    7003           00006                           EXTEND
000837:    7004           16014                           BZF      DANZIG
000838:    7005           07007                           TC       OVERFLOW
000839:    7006           16014                           TCF      DANZIG
000840:
000841:    7007           37657        OVERFLOW           CAF      ONE                                   #  SUBROUTINE TO TURN OVFIND ON.
000842:    7010           17132                           TCF      SETOVF2
000843:


000845:    7011           00006        BVSU               EXTEND
000846:    7012           50102                           INDEX    ADDRWD
000847:    7013           30003                           DCA      2
000848:    7014           52144                           DXCH     MPAC       +3
000849:    7015           00006                           EXTEND
000850:    7016           40001                           DCOM
000851:    7017           20144                           DAS      MPAC       +3
000852:    7020           00006                           EXTEND
000853:    7021           17023                           BZF      +2
000854:    7022           07007                           TC       OVERFLOW
000855:
000856:    7023           00006                           EXTEND
000857:    7024           50102                           INDEX    ADDRWD
000858:    7025           30005                           DCA      4
000859:    7026           52146                           DXCH     MPAC       +5
000860:    7027           00006                           EXTEND
000861:    7030           40001                           DCOM
000862:    7031           20146                           DAS      MPAC       +5
000863:    7032           00006                           EXTEND
000864:    7033           17035                           BZF      +2
000865:    7034           07007                           TC       OVERFLOW
000866:
000867:    7035           00006        BDSU               EXTEND
000868:    7036           50102                           INDEX    ADDRWD
000869:    7037           30001                           DCA      0
000870:    7040           52141                           DXCH     MPAC
000871:    7041           00006                           EXTEND
000872:    7042           40001                           DCOM
000873:    7043           20141                           DAS      MPAC
000874:    7044           00006                           EXTEND
000875:    7045           16014                           BZF      DANZIG
000876:    7046           07007                           TC       OVERFLOW
000877:    7047           16014                           TCF      DANZIG
000878:


000880:                                                                                                  #           TRIPLE PRECISION ADD ROUTINE.
000881:
000882:    7050           00006        TAD                EXTEND
000883:    7051           50102                           INDEX    ADDRWD
000884:    7052           30002                           DCA      1                                     #  ADD MINOR PARTS FIRST.
000885:    7053           20142                           DAS      MPAC       +1
000886:    7054           50102                           INDEX    ADDRWD
000887:    7055           60000                           AD       0
000888:    7056           60140                           AD       MPAC
000889:    7057           54140                           TS       MPAC
000890:    7060           16014                           TCF      DANZIG
000891:
000892:    7061           54105        SETOVF             TS       OVFIND                                #  SET OVFIND IF SUCH OCCURS.
000893:    7062           16014                           TCF      DANZIG
000894:


000896:                                                                                                  #  ARITHMETIC SUBROUTINES REQUIRED IN FIXED-FIXED.
000897:
000898:                                                                                                  #           1.  DMPSUB     DOUBLE PRECISION MULTIPLY. MULTIPLY THE CONTENTS OF MPAC,+1 BY THE DP WORD WHOSE ADDRESS
000899:                                                                                                  #                          IS IN ADDRWD AND LEAVE A TRIPLE PRECISION RESULT IN MPAC.
000900:                                                                                                  #           2.  ROUNDSUB   ROUND THE TRIPLE PRECISON CONTENTS OF MPAC TO DOUBLE PRECISION.
000901:                                                                                                  #           3.  DOTSUB     TAKE THE DOT PRODUCT OF THE VECTOR IN MPAC AND THE VECTOR WHOSE ADDRESS IS IN ADDRWD
000902:                                                                                                  #                          AND LEAVE THE TRIPLE PRECISION RESULT IN MPAC.
000903:                                                                                                  #           4.  POLY       USING THE CONTENTS OF MPAC AS A DP ARGUMENT, EVALUATE THE POLYNOMIAL WHOSE DEGREE AND
000904:                                                                                                  #                          COEFFICIENTS IMMEDIATELY FOLLOW THE TC POLY INSTRUCTION (SEE ROUTINE FOR DETAILS).
000905:
000906:
000907:
000908:    7063           50002        DMP                INDEX    Q                                     #  BASIC SUBROUTINE FOR USE BY PINBALL, ETC
000909:    7064           30000                           CAF      0                                     #  ADRES OF ARGUMENT FOLLOWS  TC DMP  .
000910:    7065           24002                           INCR     Q
000911:    7066           54102                 -1        TS       ADDRWD                                #  (PROLOGUE FOR SETTING ADDRWD.)
000912:
000913:    7067           50102        DMPSUB             INDEX    ADDRWD                                #  GET MINOR PART OF OPERAND AT C(ADDRWD).
000914:    7070           30001                           CA       1
000915:    7071           54142                           TS       MPAC       +2                         #  THIS WORKS FOR SQUARING MPAC AS WELL.
000916:    7072           37665                           CAF      ZERO                                  #  SET MPAC +1 TO ZERO SO WE CAN ACCUMULATE
000917:    7073           56141                           XCH      MPAC       +1                         #  THE PARTIAL PRODUCTS WITH DAS
000918:    7074           54121                           TS       MPTEMP                                #  INSTRUCTIONS.
000919:    7075           00006                           EXTEND
000920:    7076           70142                           MP       MPAC       +2                         #  MINOR OF MPAC X MINOR OF C(ADDRWD).
000921:
000922:    7077           56142                           XCH      MPAC       +2                         #  DISCARD MINOR PART OF ABOVE RESULT AND
000923:    7100           00006                           EXTEND                                         #  FORM MAJOR OF MPAC X MINOR OF C(ADDRWD).
000924:    7101           70140                           MP       MPAC
000925:    7102           20142                           DAS      MPAC       +1                         #  GUARANTEED NO OVERFLOW.
000926:
000927:    7103           50102                           INDEX    ADDRWD                                #  GET MAJOR PART OF ARGUMENT AT C(ADDRWD).
000928:    7104           30000                           CA       0
000929:    7105           56121                           XCH      MPTEMP                                #  SAVE AND BRING OUT MINOR OF MPAC.
000930:    7106           00006                           EXTEND
000931:    7107           70121                           MP       MPTEMP                                #  MAJOR OF C(ADDRWD) X MINOR OF MPAC.
000932:    7110           20142                           DAS      MPAC       +1                         #  ACCUMULATE, SETTING A TO NET OVERFLOW.
000933:
000934:    7111           56140                           XCH      MPAC                                  #  SETTING MPAC TO 0 OR +-1.
000935:    7112           00006                           EXTEND
000936:    7113           70121                           MP       MPTEMP                                #  MAJOR OF MPAC X MAJOR OF C(ADDRWD).
000937:    7114           20141                           DAS      MPAC                                  #  GUARANTEED NO OVERFLOW.
000938:    7115           00002                           TC       Q                                     #  49 MCT = .573 MS. INCLUDING RETURN.
000939:


000941:                                                                                                  #           ROUND MPAC TO DOUBLE PRECISION, SETTING OVFIND ON THE RARE EVENT OF OVERFLOW.
000942:
000943:    7116           37665        ROUNDSUB           CAF      ZERO                                  #  SET MPAC +2 = 0 FOR SCALARS AND CHANGE
000944:    7117           54147                 +1        TS       MODE                                  #  MODE TO DP.
000945:
000946:    7120           56142        VROUND             XCH      MPAC       +2                         #  BUT WE NEEDNT TAKE THE TIME FOR VECTORS.
000947:    7121           60000                           DOUBLE
000948:    7122           54001                           TS       L
000949:    7123           00002                           TC       Q
000950:
000951:    7124           60141                           AD       MPAC       +1                         #  ADD ROUNDING BIT IF MPAC +2 WAS GREATER
000952:    7125           54141                           TS       MPAC       +1                         #  THAN .5 IN MAGNITUDE.
000953:    7126           00002                           TC       Q
000954:
000955:    7127           60140                           AD       MPAC                                  #  PROPAGATE INTERFLOW.
000956:    7130           54140                           TS       MPAC
000957:    7131           00002                           TC       Q
000958:
000959:    7132           54105        SETOVF2            TS       OVFIND                                #  (RARE).
000960:    7133           00002                           TC       Q
000961:


000963:                                                                                                  #           THE DOT PRODUCT SUBROUTINE USUALLY FORMS THE DOT PRODUCT OF THE VECTOR IN MPAC WITH A STANDARD SIX
000964:                                                                                                  #  REGISTER VECTOR WHOSE ADDRESS IS IN ADDRWD. IN THIS CASE C(DOTINC) ARE SET TO 2. VXM, HOWEVER, SETS C(DOTINC) TO
000965:                                                                                                  #  6 SO THAT DOTSUB DOTS MPAC WITH A COLUMN VECTOR OF THE MATRIX IN QUESTION IN THIS CASE.
000966:
000967:
000968:
000969:    7134           37656        PREDOT             CAF      TWO                                   #  PROLOGUE TO SET DOTINC TO 2.
000970:    7135           54122                           TS       DOTINC
000971:
000972:    7136           00006        DOTSUB             EXTEND
000973:    7137           22123                           QXCH     DOTRET                                #  SAVE RETURN.
000974:    7140           07067                           TC       DMPSUB                                #  DOT X COMPONENTS.
000975:    7141           52144                           DXCH     MPAC       +3                         #  POSITION Y COMPONENT OF MPAC FOR
000976:    7142           52141                           DXCH     MPAC                                  #  MULTIPLICATION WHILE SAVING RESULT IN
000977:    7143           52115                           DXCH     BUF                                   #  THREE WORD BUFFER, BUF.
000978:    7144           30142                           CA       MPAC       +2
000979:    7145           54116                           TS       BUF        +2
000980:
000981:    7146           30122                           CA       DOTINC                                #  ADVANCE ADDRWD TO Y COMPONENT OF
000982:    7147           26102                           ADS      ADDRWD                                #  OTHER ARGUMENT.
000983:    7150           07067                           TC       DMPSUB
000984:    7151           52142                           DXCH     MPAC       +1                         #  ACCUMULATE PARTIAL PRODUCTS.
000985:    7152           20116                           DAS      BUF        +1
000986:    7153           60140                           AD       MPAC
000987:    7154           60114                           AD       BUF
000988:    7155           54114                           TS       BUF
000989:    7156           17160                           TCF      +2
000990:    7157           54105                           TS       OVFIND                                #  IF OVERFLOW OCCURS.
000991:
000992:    7160           52146                           DXCH     MPAC       +5                         #  MULTIPLY Z COMPONENTS.
000993:    7161           52141                           DXCH     MPAC
000994:    7162           30122                           CA       DOTINC
000995:    7163           26102                           ADS      ADDRWD
000996:    7164           07067                           TC       DMPSUB
000997:    7165           52116        ENDDOT             DXCH     BUF        +1                         #  LEAVE FINAL ACCUMULATION IN MPAC.
000998:    7166           20142                           DAS      MPAC       +1
000999:    7167           60140                           AD       MPAC
001000:    7170           60114                           AD       BUF
001001:    7171           54140                           TS       MPAC
001002:    7172           00123                           TC       DOTRET
001003:
001004:    7173           54105                           TS       OVFIND                                #  ON OVERFLOW HERE.
001005:    7174           00123                           TC       DOTRET
001006:


001008:                                                                                                  #  DOUBLE PRECISION POLYNOMIAL EVALUATOR
001009:
001010:                                                                                                  #                                     N        N-1
001011:                                                                                                  #           THIS ROUTINE EVALUATES A X  + A   X    + ... + A  X + A  LEAVING THE DP RESULT IN MPAC ON EXIT.
001012:                                                                                                  #                                   N      N-1              1      0
001013:
001014:                                                                                                  #  THE ROUTINE HAS TWO ENTRIES
001015:
001016:                                                                                                  #           1. ENTRY THRU POWRSERS. THE COEFFICIENTS MAY BE EITHER IN FIXED OR ERASABLE, THE CALL IS BY
001017:                                                                                                  #              TC POWRSERS, AND THE RETURN IS TO LOC(TC POWRSERS)+1. THE ENTERING DATA MUST BE AS FOLLOWS
001018:
001019:                                                                                                  #                                          A        SP     LOC-3           ADDRESS FOR REFERENCING COEF TABLE
001020:                                                                                                  #                                          L        SP     N-1             N IS THE DEGREE OF THE POWER SERIES
001021:                                                                                                  #                                          MPAC     DP     X               ARGUMENT
001022:
001023:                                                                                                  #                                          LOC-2N   DP     A(0)
001024:                                                                                                  #                                                   ...
001025:                                                                                                  #                                          LOC      DP     A(N)
001026:
001027:                                                                                                  #           2. ENTRY THRU POLY. THE CALL TO POLY AND THE ENTERING DATA MUST BE AS FOLLOWS
001028:
001029:                                                                                                  #                                          MPAC     DP     X               ARGUMENT
001030:
001031:                                                                                                  #                                          LOC      TC     POLY
001032:                                                                                                  #                                          LOC+1    SP     N-1
001033:                                                                                                  #                                          LOC+2    DP     A(0)
001034:                                                                                                  #                                                   ...
001035:                                                                                                  #                                          LOC+2N+2 DP     A(N)            RETURN IS TO LOC+2N+4
001036:
001037:    7175           00006        POWRSERS           EXTEND
001038:    7176           22125                           QXCH     POLYRET                               #  RETURN ADDRESS
001039:    7177           54103                           TS       POLISH                                #  POWER SERIES ADDRESS
001040:    7200           22124                           LXCH     POLYCNT                               #  N-1 TO COUNTER
001041:    7201           17212                           TCF      POLYCOM                               #  SKIP SET UP BY POLY
001042:
001043:    7202           50002        POLY               INDEX    Q
001044:    7203           30000                           CAF      0
001045:    7204           54124                           TS       POLYCNT                               #  N-1 TO COUNTER
001046:    7205           60000                           DOUBLE
001047:    7206           60002                           AD       Q
001048:    7207           54103                           TS       POLISH                                #  L(A(N))-3 TO POLISH
001049:    7210           67664                           AD       FIVE
001050:    7211           54125                           TS       POLYRET                               #  STORE RETURN ADDRESS
001051:
001052:    7212           37677        POLYCOM            CAF      LVBUF                                 #  INCOMING X WILL BE MOVED TO VBUF, SO
001053:    7213           54102                           TS       ADDRWD                                #  SET ADDRWD SO DMPSUB WILL MPY BY VBUF.
001054:
001055:    7214           00006                           EXTEND
001056:    7215           50103                           INDEX    POLISH
001057:    7216           30004                           DCA      3
001058:


001060:    7217           52141                           DXCH     MPAC                                  #  LOAD A(N) INTO MPAC.
001061:    7220           52107                           DXCH     VBUF                                  #  SAVING X IN VBUF
001062:    7221           17225                           TCF      POLY2
001063:
001064:    7222           54124        POLYLOOP           TS       POLYCNT                               #  SAVE DECREMENTED LOOP COUNTER
001065:    7223           47656                           CS       TWO
001066:    7224           26103                           ADS      POLISH                                #  REGRESS COEFFICIENT POINTER
001067:
001068:    7225           07067        POLY2              TC       DMPSUB                                #  MULTIPLY BY X
001069:    7226           00006                           EXTEND
001070:    7227           50103                           INDEX    POLISH
001071:    7230           30002                           DCA      1                                     #  ADD IN NEXT COEFFICIENT
001072:    7231           20141                           DAS      MPAC                                  #  USERS RESPONSIBILITY TO ASSURE NO OVFLOW
001073:
001074:    7232           10124                           CCS      POLYCNT
001075:    7233           17222                           TCF      POLYLOOP
001076:    7234           00125                           TC       POLYRET                               #  RETURN CALLER
001077:


001079:                                                                                                  #           MISCELLANEOUS MULTI-PRECISION ROUTINES REQUIRED IN FIXED-FIXED BUT NOT USED BY THE INTERPRETER.
001080:
001081:    7235           00006        TPAGREE            EXTEND                                         #  FORCE SIGN AGREEMENT AMONG THE TRIPLE-
001082:    7236           22114                           QXCH     BUF                                   #  PRECISION CONTENTS OF MPAC, RETURNING
001083:    7237           06711                           TC       BRANCH                                #  WITH THE SIGNUM OF THE INPUT IN A.
001084:    7240           17244                           TCF      ARG+
001085:    7241           17264                           TCF      ARGZERO
001086:
001087:    7242           47637                           CS       POSMAX                                #  IF NEGATIVE.
001088:    7243           17245                           TCF      +2
001089:
001090:    7244           37637        ARG+               CAF      POSMAX
001091:    7245           54115                 +2        TS       BUF        +1
001092:    7246           00006                           EXTEND
001093:    7247           24000                           AUG      A                                     #  FORMS +-1.0.
001094:    7250           60142                           AD       MPAC       +2
001095:    7251           54142                           TS       MPAC       +2
001096:    7252           37665                           CAF      ZERO
001097:    7253           60115                           AD       BUF        +1
001098:    7254           60141                           AD       MPAC       +1
001099:    7255           54141                           TS       MPAC       +1
001100:    7256           37665                           CAF      ZERO
001101:    7257           60115                           AD       BUF        +1
001102:    7260           60140                           AD       MPAC
001103:    7261           54140        ARGZERO2           TS       MPAC                                  #  ALWAYS SKIPPING UNLESS ARGZERO.
001104:    7262           54141                           TS       MPAC       +1
001105:    7263           00114                           TC       BUF                                   #  RETURN.
001106:
001107:    7264           54142        ARGZERO            TS       MPAC       +2                         #  SET ALL THREE MPAC REGISTERS TO ZERO.
001108:    7265           17261                           TCF      ARGZERO2
001109:
001110:                                                                                                  #           SHORTMP MULTIPLIES THE TP CONTENTS OF MPAC BY THE SINGLE PRECISION NUMBER ARRIVING IN A.
001111:
001112:    7266           54121        SHORTMP            TS       MPTEMP
001113:    7267           00006                           EXTEND
001114:    7270           70142                           MP       MPAC       +2
001115:    7271           54142                           TS       MPAC       +2
001116:    7272           37665                           CAF      ZERO                                  #  SO SUBSEQUENT DAS WILL WORK.
001117:    7273           56141                           XCH      MPAC       +1
001118:    7274           00006                           EXTEND
001119:    7275           70121                           MP       MPTEMP
001120:    7276           20142                           DAS      MPAC       +1
001121:    7277           56140                           XCH      MPAC                                  #  SETTING MPAC TO 0.
001122:    7300           00006                           EXTEND
001123:    7301           70121                           MP       MPTEMP
001124:    7302           20141                           DAS      MPAC
001125:    7303           00002                           TC       Q
001126:


001128:                                                                                                  #  MISCELLANEOUS VECTOR OPERATIONS. INCLUDED HERE ARE THE FOLLOWING:
001129:
001130:                                                                                                  #           1.  DOT                DP VECTOR DOT PRODUCT.
001131:                                                                                                  #           2.  VXV                DP VECTOR CROSS PRODUCT.
001132:                                                                                                  #           3.  VXSC               DP VECTOR TIMES SCALAR.
001133:                                                                                                  #           4.  V/SC               DP VECTOR DIVIDED BY SCALAR.
001134:                                                                                                  #           5.  VPROJ              DP VECTOR PROJECTION. ( (MPAC.X)MPAC ).
001135:                                                                                                  #           6.  VXM                DP VECTOR POST-MULTIPLIED BY MATRIX.
001136:                                                                                                  #           7.  MXV                DP VECTOR PRE-MULTIPLIED BY MATRIX.
001137:
001138:    7304           07134        DOT                TC       PREDOT                                #  DO THE DOT PRODUCT AND EXIT, CHANGING
001139:    7305           37665                           CAF      ZERO                                  #  THE MODE TO DP SCALAR.
001140:    7306           16013                           TCF      NEWMODE
001141:
001142:
001143:
001144:    7307           37656        MXV                CAF      TWO                                   #  SET UP MATINC AND DOTINC FOR ROW
001145:    7310           54124                           TS       MATINC                                #  VECTORS.
001146:    7311           17315                           TCF      VXM/MXV                               #  GO TO COMMON PORTION.
001147:
001148:    7312           47661        VXM                CS       TEN                                   #  SET MATINC AND DOTINC TO REFER TO MATRIX
001149:    7313           54124                           TS       MATINC                                #  AS THREE COLUMN VECTORS.
001150:    7314           36162                           CAF      SIX
001151:


001153:                                                                                                  #           COMMON PORTION OF MXV AND VXM.
001154:
001155:    7315           54122        VXM/MXV            TS       DOTINC
001156:    7316           07506                           TC       MPACVBUF                              #  SAVE VECTOR IN MPAC FOR FURTHER USE.
001157:
001158:    7317           07136                           TC       DOTSUB                                #  GO DOT TO GET X COMPONENT OF ANSWER.
001159:    7320           00006                           EXTEND
001160:    7321           30107                           DCA      VBUF                                  #  MOVE MPAC VECTOR BACK INTO MPAC, SAVING
001161:    7322           52141                           DXCH     MPAC                                  #  NEW X COMPONENT IN BUF2.
001162:    7323           52120                           DXCH     BUF2
001163:    7324           00006                           EXTEND
001164:    7325           30111                           DCA      VBUF       +2
001165:    7326           52144                           DXCH     MPAC       +3
001166:    7327           00006                           EXTEND
001167:    7330           30113                           DCA      VBUF       +4
001168:    7331           52146                           DXCH     MPAC       +5
001169:    7332           30124                           CA       MATINC                                #  INITIALIZE ADDRWD FOR NEXT DOT PRODUCT.
001170:    7333           26102                           ADS      ADDRWD                                #  FORMS BASE ADDRESS OF NEXT COLUMN(ROW).
001171:
001172:    7334           07136                           TC       DOTSUB
001173:    7335           52107                           DXCH     VBUF                                  #  MOVE GIVEN VECTOR BACK TO MPAC, SAVING Y
001174:    7336           52141                           DXCH     MPAC                                  #  COMPONENT OF ANSWER IN VBUF +2.
001175:    7337           52111                           DXCH     VBUF       +2
001176:    7340           52144                           DXCH     MPAC       +3
001177:    7341           52113                           DXCH     VBUF       +4
001178:    7342           52146                           DXCH     MPAC       +5
001179:    7343           30124                           CA       MATINC                                #  FORM ADDRESS OF LAST COLUMN OR ROW.
001180:    7344           26102                           ADS      ADDRWD
001181:
001182:    7345           07136                           TC       DOTSUB
001183:    7346           52120                           DXCH     BUF2                                  #  ANSWER NOW COMPLETE. PUT COMPONENTS INTO
001184:    7347           52141                           DXCH     MPAC                                  #  PROPER MPAC REGISTERS.
001185:    7350           52146                           DXCH     MPAC       +5
001186:    7351           52111                           DXCH     VBUF       +2
001187:    7352           52144                           DXCH     MPAC       +3
001188:    7353           16014                           TCF      DANZIG                                #  EXIT.
001189:


001191:                                                                                                  #           VXSC - VECTOR TIMES SCALAR.
001192:
001193:    7354           10147        VXSC               CCS      MODE                                  #  TEST PRESENT MODE.
001194:    7355           17403                           TCF      DVXSC                                 #  SEPARATE ROUTINE WHEN SCALAR IS IN MPAC.
001195:    7356           17403                           TCF      DVXSC
001196:
001197:    7357           07067        VVXSC              TC       DMPSUB                                #  COMPUTE X COMPONENT
001198:    7360           07120                           TC       VROUND                                #  AND ROUND IT.
001199:    7361           52144                           DXCH     MPAC       +3                         #  PUT Y COMPONENT INTO MPAC SAVING MPAC IN
001200:    7362           52141                           DXCH     MPAC                                  #  MPAC +3.
001201:    7363           52144                           DXCH     MPAC       +3
001202:
001203:    7364           07067                           TC       DMPSUB                                #  DO SAME FOR Y AND Z COMPONENTS.
001204:    7365           07120                           TC       VROUND
001205:    7366           52146                           DXCH     MPAC       +5
001206:    7367           52141                           DXCH     MPAC
001207:    7370           52146                           DXCH     MPAC       +5
001208:
001209:    7371           07067                           TC       DMPSUB
001210:    7372           07120                           TC       VROUND
001211:    7373           52141        VROTATEX           DXCH     MPAC                                  #  EXIT USED TO RESTORE MPAC AFTER THIS
001212:    7374           52146                           DXCH     MPAC       +5                         #  TYPE OF ROTATION. CALLED BY VECTOR SHIFT
001213:    7375           52144                           DXCH     MPAC       +3                         #  RIGHT, V/SC, ETC.
001214:    7376           52141                           DXCH     MPAC
001215:    7377           16014                           TCF      DANZIG
001216:


001218:                                                                                                  #           DP VECTOR PROJECTION ROUTINE.
001219:
001220:
001221:
001222:    7400           07134        VPROJ              TC       PREDOT                                #  (MPAC.X)MPAC IS COMPUTED AND LEFT IN
001223:    7401           47655                           CS       FOUR                                  #  MPAC. DO DOT AND FALL INTO DVXSC.
001224:    7402           26102                           ADS      ADDRWD
001225:
001226:                                                                                                  #           VXSC WHEN SCALAR ARRIVES IN MPAC AND VECTOR IS AT X.
001227:
001228:    7403           00006        DVXSC              EXTEND                                         #  SAVE SCALAR IN MPAC +3 AND GET X
001229:    7404           30141                           DCA      MPAC                                  #  COMPONENT OF ANSWER.
001230:    7405           52144                           DXCH     MPAC       +3
001231:    7406           07067                           TC       DMPSUB
001232:    7407           07120                           TC       VROUND
001233:
001234:    7410           37656                           CAF      TWO                                   #  ADVANCE ADDRWD TO Y COMPONENT OF X.
001235:    7411           26102                           ADS      ADDRWD
001236:    7412           00006                           EXTEND
001237:    7413           30144                           DCA      MPAC       +3                         #  PUT SCALAR BACK INTO MPAC AND SAVE
001238:    7414           52141                           DXCH     MPAC                                  #  X RESULT IN MPAC +5.
001239:    7415           52146                           DXCH     MPAC       +5
001240:    7416           07067                           TC       DMPSUB
001241:    7417           07120                           TC       VROUND
001242:
001243:    7420           37656                           CAF      TWO
001244:    7421           26102                           ADS      ADDRWD                                #  TO Z COMPONENT.
001245:    7422           52144                           DXCH     MPAC       +3                         #  BRING SCALAR BACK, PUTTING Y RESULT IN
001246:    7423           52141                           DXCH     MPAC                                  #  THE PROPER PLACE.
001247:    7424           52144                           DXCH     MPAC       +3
001248:    7425           07067                           TC       DMPSUB
001249:    7426           07120                           TC       VROUND
001250:
001251:    7427           52141                           DXCH     MPAC                                  #  PUT Z COMPONENT IN PROPER PLACE, ALSO
001252:    7430           52146                           DXCH     MPAC       +5                         #  POSITIONING X.
001253:    7431           52141                           DXCH     MPAC
001254:
001255:    7432           47657                           CS       ONE                                   #  MODE HAS CHANGED TO VECTOR.
001256:    7433           16013                           TCF      NEWMODE
001257:


001259:                                                                                                  #           THE VECTOR CROSS PRODUCT ROUTINE CALCULATES (X M -X M ,X M -X M ,X M -X M ) WHERE M IS THE VECTOR IN
001260:                                                                                                  #                                                         3 2  2 3  1 3  3 1  2 1  1 2
001261:                                                                                                  #  MPAC AND X THE VECTOR AT THE GIVEN ADDRESS.
001262:
001263:
001264:
001265:    7434           00006        VXV                EXTEND
001266:    7435           30146                           DCA      MPAC       +5                         #  FORM UP M3X1, LEAVING M1 IN VBUF.
001267:    7436           52141                           DXCH     MPAC
001268:    7437           52107                           DXCH     VBUF
001269:    7440           07067                           TC       DMPSUB                                #  BY X1.
001270:
001271:    7441           00006                           EXTEND
001272:    7442           40144                           DCS      MPAC       +3                         #  CALCULATE -X1M2, SAVING X1M3 IN VBUF +2.
001273:    7443           52141                           DXCH     MPAC
001274:    7444           52111                           DXCH     VBUF       +2
001275:    7445           07067                           TC       DMPSUB
001276:
001277:    7446           37656                           CAF      TWO                                   #  ADVANCE ADDRWD TO X2.
001278:    7447           26102                           ADS      ADDRWD
001279:    7450           00006                           EXTEND
001280:    7451           40146                           DCS      MPAC       +5                         #  PREPARE TO GET -X2M3, SAVING -X1M2 IN
001281:    7452           52141                           DXCH     MPAC                                  #  MPAC +5.
001282:    7453           52146                           DXCH     MPAC       +5
001283:    7454           07067                           TC       DMPSUB
001284:
001285:    7455           00006                           EXTEND
001286:    7456           30107                           DCA      VBUF                                  #  GET X2M1, SAVING -X2M3 IN VBUF +4.
001287:    7457           52141                           DXCH     MPAC
001288:    7460           52113                           DXCH     VBUF       +4
001289:    7461           07067                           TC       DMPSUB
001290:
001291:    7462           37656                           CAF      TWO                                   #  ADVANCE ADDRWD TO X3.
001292:    7463           26102                           ADS      ADDRWD
001293:    7464           00006                           EXTEND
001294:    7465           40107                           DCS      VBUF                                  #  GET -X3M1, ADDING X2M1 TO MPAC +5 TO
001295:    7466           52141                           DXCH     MPAC                                  #  COMPLETE THE Z COMPONENT OF THE ANSWER.
001296:    7467           20146                           DAS      MPAC       +5
001297:
001298:    7470           00006                           EXTEND
001299:    7471           17473                           BZF      +2
001300:    7472           07007                           TC       OVERFLOW
001301:


001303:    7473           07067                           TC       DMPSUB
001304:    7474           52111                           DXCH     VBUF       +2                         #  MOVE X1M3 TO MPAC +3 SETTING UP FOR X3M2
001305:    7475           52144                           DXCH     MPAC       +3                         #  AND ADD -X3M1 TO MPAC +3 TO COMPLETE THE
001306:    7476           52141                           DXCH     MPAC                                  #  Y COMPONENT OF THE RESULT.
001307:    7477           20144                           DAS      MPAC       +3
001308:
001309:    7500           00006                           EXTEND
001310:    7501           17503                           BZF      +2
001311:    7502           07007                           TC       OVERFLOW
001312:
001313:    7503           07067                           TC       DMPSUB
001314:    7504           52113                           DXCH     VBUF       +4                         #  GO ADD -X2M3 TO X3M2 TO COMPLETE THE X
001315:    7505           16754                           TCF      ENDVXV                                #  COMPONENT (TAIL END OF DAD).
001316:
001317:                                                                                                  #           THE MPACVBUF SUBROUTINE SAVES THE VECTOR IN MPAC IN VBUF WITHOUT CLOBBERING MPAC.
001318:
001319:    7506           00006        MPACVBUF           EXTEND                                         #  CALLED BY MXV, VXM, AND UNIT.
001320:    7507           30141                           DCA      MPAC
001321:    7510           52107                           DXCH     VBUF
001322:    7511           00006                           EXTEND
001323:    7512           30144                           DCA      MPAC       +3
001324:    7513           52111                           DXCH     VBUF       +2
001325:    7514           00006                           EXTEND
001326:    7515           30146                           DCA      MPAC       +5
001327:    7516           52113                           DXCH     VBUF       +4
001328:    7517           00002                           TC       Q                                     #  RETURN TO CALLER.
001329:


001331:                                                                                                  #           INTERPRETIVE INSTRUCTIONS WHOSE EXECUTION CONSISTS OF PRINCIPALLY CALLING SUBROUTINES.
001332:
001333:    7520           07067        DMP1               TC       DMPSUB                                #  DMP INSTRUCTION.
001334:    7521           16014                           TCF      DANZIG
001335:
001336:    7522           07067        DMPR               TC       DMPSUB
001337:    7523           07117                           TC       ROUNDSUB   +1                         #  (C(A) = +0).
001338:    7524           16014                           TCF      DANZIG
001339:
001340:    7525           00006        DDV                EXTEND
001341:    7526           50102                           INDEX    ADDRWD                                #  MOVE DIVIDEND INTO BUF.
001342:    7527           30001                           DCA      0
001343:    7530           17535                           TCF      BDDV       +4
001344:
001345:    7531           00006        BDDV               EXTEND                                         #  MOVE DIVISOR INTO MPAC SAVING MPAC, THE
001346:    7532           50102                           INDEX    ADDRWD                                #  DIVIDEND, IN BUF.
001347:    7533           30001                           DCA      0
001348:    7534           52141                           DXCH     MPAC
001349:    7535           52115                 +4        DXCH     BUF
001350:    7536           37665                           CAF      ZERO                                  #  DIVIDE ROUTINES IN BANK 0.
001351:    7537           54004                           TS       FBANK
001352:    7540           12332                           TCF      DDV/BDDV
001353:
001354:    7541           30102        SETPD              CA       ADDRWD                                #  ANYWHERE IN ERASABLE IN GENERAL, BUT
001355:    7542           54152                           TS       PUSHLOC                               #  ALMOST ALWAYS IN THE WORK AREA.
001356:    7543           16016                           TCF      NOIBNKSW                              #  NO FBANK SWITCH REQUIRED.
001357:
001358:    7544           37665        TSLC               CAF      ZERO                                  #  SHIFTING ROUTINES LOCATED IN BANK 00.
001359:    7545           54004                           TS       FBANK
001360:    7546           12153                           TCF      TSLC2
001361:
001362:    7547           36027        GSHIFT             CAF      LOW7                                  #  USED AS MASK AT GENSHIFT. THIS PROCESSES
001363:    7550           54004                           TS       FBANK                                 #  ANY SHIFT INSTRUCTION (EXCEPT TSLC) WITH
001364:    7551           12174                           TCF      GENSHIFT                              #  AN ADDRESS (ROUTINES IN BANK 0).
001365:


001367:                                                                                                  #           THE FOLLOWING IS THE PROLOGUE TO V/SC. IF THE PRESENT MODE IS VECTOR, IT SAVES THE SCALAR AT X IN BUF
001368:                                                                                                  #  AND CALLS THE V/SC ROUTINE IN BANK 0. IF THE PRESENT MODE IS SCALAR, IT MOVES THE VECTOR AT X INTO MPAC, SAVING
001369:                                                                                                  #  THE SCALAR IN MPAC IN BUF BEFORE CALLING THE V/SC ROUTINE IN BANK 0.
001370:
001371:    7552           10147        V/SC               CCS      MODE
001372:    7553           17564                           TCF      DV/SC                                 #  MOVE VECTOR INTO MPAC.
001373:    7554           17564                           TCF      DV/SC
001374:
001375:    7555           00006        VV/SC              EXTEND
001376:    7556           50102                           INDEX    ADDRWD
001377:    7557           30001                           DCA      0
001378:    7560           52115        V/SC1              DXCH     BUF                                   #  IN BOTH CASES, VECTOR IS NOW IN MPAC AND
001379:    7561           37665                           CAF      ZERO                                  #  SCALAR IN BUF.
001380:    7562           54004                           TS       FBANK
001381:    7563           12576                           TCF      V/SC2
001382:
001383:    7564           00006        DV/SC              EXTEND
001384:    7565           50102                           INDEX    ADDRWD
001385:    7566           30003                           DCA      2
001386:    7567           52144                           DXCH     MPAC       +3
001387:    7570           00006                           EXTEND
001388:    7571           50102                           INDEX    ADDRWD
001389:    7572           30005                           DCA      4
001390:    7573           52146                           DXCH     MPAC       +5
001391:
001392:    7574           47657                           CS       ONE                                   #  CHANGE MODE TO VECTOR.
001393:    7575           54147                           TS       MODE
001394:
001395:    7576           00006                           EXTEND
001396:    7577           50102                           INDEX    ADDRWD
001397:    7600           30001                           DCA      0
001398:    7601           52141                           DXCH     MPAC
001399:    7602           17560                           TCF      V/SC1                                 #  FINISH PROLOGUE AT COMMON SECTION.
001400:


001402:                                                                                                  #           SIGN AND COMPLEMENT INSTRUCTIONS.
001403:
001404:    7603           50102        SIGN               INDEX    ADDRWD                                #  CALL COMP INSTRUCTION IF WORD AT X IS
001405:    7604           10000                           CCS      0                                     #  NEGATIVE NON-ZERO.
001406:    7605           16016                           TCF      NOIBNKSW                              #  NO FBANK SWITCH REQUIRED.
001407:    7606           17610                           TCF      +2
001408:    7607           17616                           TCF      COMP                                  #  DO THE COMPLEMENT.
001409:
001410:    7610           50102                           INDEX    ADDRWD
001411:    7611           10001                           CCS      1
001412:    7612           16016                           TCF      NOIBNKSW                              #  NO FBANK SWITCH REQUIRED.
001413:    7613           16016                           TCF      NOIBNKSW                              #  NO FBANK SWITCH REQUIRED.
001414:    7614           17616                           TCF      COMP
001415:    7615           16016                           TCF      NOIBNKSW                              #  NO FBANK SWITCH REQUIRED.
001416:
001417:
001418:
001419:    7616           00006        COMP               EXTEND                                         #  COMPLEMENT DP MPAC IN EVERY CASE.
001420:    7617           40141                           DCS      MPAC
001421:    7620           52141                           DXCH     MPAC
001422:
001423:    7621           10147                           CCS      MODE                                  #  EITHER COMPLEMENT MPAC +3 OR THE REST OF
001424:    7622           17633                           TCF      DCOMP                                 #  THE VECTOR ACCUMULATOR.
001425:    7623           17633                           TCF      DCOMP
001426:
001427:    7624           00006                           EXTEND                                         #  VECTOR COMPLEMENT.
001428:    7625           40144                           DCS      MPAC       +3
001429:    7626           52144                           DXCH     MPAC       +3
001430:    7627           00006                           EXTEND
001431:    7630           40146                           DCS      MPAC       +5
001432:    7631           52146                           DXCH     MPAC       +5
001433:    7632           16014                           TCF      DANZIG
001434:
001435:    7633           40142        DCOMP              CS       MPAC       +2
001436:    7634           54142                           TS       MPAC       +2
001437:    7635           16014                           TCF      DANZIG
001438:


001440:                                                                                                  #           CONSTANTS REQUIRED IN FIXED-FIXED.
001441:
001442:    7636           37777        DPOSMAX            OCT      37777
001443:    7637           37777        POSMAX             OCT      37777
001444:    7640     7640               LIMITS             EQUALS   POSMAX     +1
001445:    7640           57777        NEG1/2             OCT      -20000                                #  MUST BE TWO LOCATIONS AHEAD OF POS1/2.
001446:
001447:    7641           40000        BIT15              OCT      40000                                 #  BIT TABLE FOLLOWS.
001448:    7642           20000        BIT14              OCT      20000
001449:    7643           10000        BIT13              OCT      10000
001450:    7644           04000        BIT12              OCT      04000
001451:    7645           02000        BIT11              OCT      02000
001452:    7646           01000        BIT10              OCT      01000
001453:    7647           00400        BIT9               OCT      00400
001454:    7650           00200        BIT8               OCT      00200
001455:    7651           00100        BIT7               OCT      00100
001456:    7652           00040        BIT6               OCT      00040
001457:    7653           00020        BIT5               OCT      00020
001458:    7654           00010        BIT4               OCT      00010
001459:    7655           00004        BIT3               OCT      00004
001460:    7656           00002        BIT2               OCT      00002
001461:    7657           00001        BIT1               OCT      00001
001462:
001463:    7660     7641               NEGMAX             EQUALS   BIT15
001464:    7660     7642               HALF               EQUALS   BIT14
001465:    7660     7642               POS1/2             EQUALS   HALF
001466:    7660     7643               QUARTER            EQUALS   BIT13
001467:    7660     7645               2K                 EQUALS   BIT11
001468:    7660           00013        ELEVEN             DEC      11         B-14
001469:    7661     7660               NOUTCON            =        ELEVEN
001470:    7661           00012        TEN                DEC      10         B-14
001471:    7662           00011        NINE               DEC      9          B-14
001472:    7663     7654               EIGHT              EQUALS   BIT4
001473:    7663           00007        SEVEN              OCT      7
001474:    7664     6162               SIX                EQUALS   REVCNT
001475:    7664           00005        FIVE               OCT      5
001476:    7665     7655               FOUR               EQUALS   BIT3
001477:    7665     6165               THREE              EQUALS   NO.WDS     +1
001478:    7665     7656               TWO                EQUALS   BIT2
001479:    7665     7657               ONE                EQUALS   BIT1
001480:    7665           00000        ZERO               OCT      0
001481:    7666           77777        NEG0               OCT      77777
001482:    7667           77776        NEGONE             DEC      -1         B-14
001483:
001484:    7670     7667               NEG1               =        NEGONE
001485:    7670     7667               MINUS1             EQUALS   NEG1
001486:    7670           77775        NEG2               OCT      77775
001487:    7671           77774        NEG3               DEC      -3         B-14
001488:    7672           00777        LOW9               OCT      777
001489:    7673           00017        LOW4               OCT      17
001490:


001492:    7674     7663               LOW3               EQUALS   SEVEN
001493:    7674     6165               LOW2               EQUALS   THREE
001494:
001495:    7674           00030        CALLCODE           OCT      00030
001496:    7675           40014        DLOADCOD           OCT      40014
001497:    7676     7641               VLOADCOD           EQUALS   BIT15
001498:    7676           40015        DLOAD*             OCT      40015
001499:    7677     6042               VLOAD*             EQUALS   OCT40001
001500:    7677           00106        LVBUF              ADRES    VBUF
001501:    7700           30000        BIT13-14           OCTAL    30000
001502:    7701                        ENDINTF            EQUALS
001503:


001505:                                                                                                  #  SHIFTING AND ROUNDING PACKAGE.
001506:
001507:                                                                                                  #           THE FOLLOWING SHORT SHIFT CODES REQUIRE NO ADDRESS WORD:
001508:
001509:                                                                                                  #           1.  SR1 TO SR4         SCALAR SHIFT RIGHT.
001510:                                                                                                  #           2.  SR1R TO SR4R       SCALAR SHIFT RIGHT AND ROUND.
001511:                                                                                                  #           3.  SL1 TO SL4         SCALAR SHIFT LEFT.
001512:                                                                                                  #           4.  SL1R TO SL4R       SCALAR SHIFT LEFT AND ROUND.
001513:
001514:                                                                                                  #           5.  VSR1 TO VSR8       VECTOR SHIFT RIGHT (ALWAYS ROUNDS).
001515:                                                                                                  #           6.  VSL1 TO VSL8       VECTOR SHIFT LEFT (NEVER ROUNDS).
001516:
001517:                                                                                                  #           THE FOLLOWING CODES REQUIRE AN ADDRESS WHICH MAY BE INDEXED:*
001518:
001519:                                                                                                  #           1.  SR                 SCALAR SHIFT RIGHT.
001520:                                                                                                  #           2.  SRR                SCALAR SHIFT RIGHT AND ROUND.
001521:                                                                                                  #           3.  SL                 SCALAR SHIFT LEFT.
001522:                                                                                                  #           4.  SLR                SCALAR SHIFT LEFT AND ROUND.
001523:
001524:                                                                                                  #           5.  VSR                VECTOR SHIFT RIGHT.
001525:                                                                                                  #           6.  VSL                VECTOR SHIFT LEFT.
001526:
001527:                                                                                                  #  *  IF THE ADDRESS IS INDEXED, AND THE INDEX MODIFICATION RESULTS IN A NEGATIVE SHIFT COUNT, A SHIFT OF THE
001528:                                                                                                  #  ABSOLUTE VALUE OF THE COUNT IS DONE IN THE OPPOSITE DIRECTION.
001529:
001530:
001531: 00,2000                                           SETLOC   10000                                 #  BANK 0 PORTION FOLLOWS.
001532:
001533: 00,2000           36162        SHORTT             CAF      SIX                                   #  SCALAR SHORT SHIFTS COME HERE. THE SHIFT
001534: 00,2001           70020                           MASK     CYR                                   #  COUNT-1 IS NOW IN BITS 2-3 OF CYR. THE
001535: 00,2002           54021                           TS       SR                                    #  ROUNDING BIT IS IN BIT1 AT THIS POINT.
001536:
001537: 00,2003           10020                           CCS      CYR                                   #  SEE IF RIGHT OR LEFT SHIFT DESIRED.
001538: 00,2004           12062                           TCF      TSSL                                  #  SHIFT LEFT.
001539:
001540: 00,2005           00024        SRDDV              DEC      20         B-14                       #  MPTEMP SETTING FOR SR BEFORE DDV.
001541:
001542: 00,2006           50021        TSSR               INDEX    SR                                    #  GET SHIFTING BIT.
001543: 00,2007           37642                           CAF      BIT14
001544: 00,2010           54121                           TS       MPTEMP
001545:
001546: 00,2011           10020                           CCS      CYR                                   #  SEE IF A ROUND IS DESIRED.
001547: 00,2012           02031        RIGHTR             TC       MPACSRND                              #  YES - SHIFT RIGHT AND ROUND.
001548: 00,2013           16013                           TCF      NEWMODE                               #  SET MODE TO DP (C(A) = 0).
001549: 00,2014           30121        MPACSHR            CA       MPTEMP                                #  DO A TRIPLE PRECISION SHIFT RIGHT.
001550: 00,2015           00006                           EXTEND
001551: 00,2016           70142                           MP       MPAC       +2
001552: 00,2017           54142                 +3        TS       MPAC       +2                         #  (EXIT FROM SQRT AND ABVAL).
001553: 00,2020           30121                           CA       MPTEMP
001554:


001556: 00,2021           00006                           EXTEND
001557: 00,2022           70140                           MP       MPAC                                  #  SHIFT MAJOR PART INTO A,L AND PLACE IN
001558: 00,2023           52141                           DXCH     MPAC                                  #  MPAC,+1.
001559: 00,2024           30121                           CA       MPTEMP
001560: 00,2025           00006                           EXTEND
001561: 00,2026           70001                           MP       L                                     #  ORIGINAL C(MPAC +1).
001562: 00,2027           20142                           DAS      MPAC       +1                         #  GUARANTEED NO OVERFLOW.
001563: 00,2030           16014                           TCF      DANZIG
001564:
001565:                                                                                                  #           MPAC SHIFT RIGHT AND ROUND SUBROUTINES.
001566:
001567: 00,2031           30142        MPACSRND           CA       MPAC       +2                         #  WE HAVE TO DO ALL THREE MULTIPLIES SINCE
001568: 00,2032           00006                           EXTEND                                         #  MPAC +1 AND MPAC +2 MIGHT HAVE SIGN
001569: 00,2033           70121                           MP       MPTEMP                                #  DISAGREEMENT WITH A SHIFT RIGHT OF 1.
001570: 00,2034           56141                           XCH      MPAC       +1
001571: 00,2035           00006                           EXTEND
001572: 00,2036           70121                           MP       MPTEMP
001573: 00,2037           56141                           XCH      MPAC       +1                         #  TRIAL MINOR PART.
001574: 00,2040           60001                           AD       L
001575:
001576: 00,2041           60000        VSHR2              DOUBLE                                         #  (FINISH VECTOR COMPONENT SHIFT RIGHT
001577: 00,2042           54142                           TS       MPAC       +2                         #  AND ROUND.
001578: 00,2043           12045                           TCF      +2
001579: 00,2044           26141                           ADS      MPAC       +1                         #  GUARANTEED NO OVERFLOW.
001580:
001581: 00,2045           37665                           CAF      ZERO
001582: 00,2046           54142                           TS       MPAC       +2
001583: 00,2047           56140                           XCH      MPAC                                  #  SETTING TO ZERO SO FOLLOWING DAS WORKS.
001584: 00,2050           00006                           EXTEND
001585: 00,2051           70121                           MP       MPTEMP
001586: 00,2052           20141                           DAS      MPAC                                  #  AGAIN NO OVERFLOW.
001587: 00,2053           00002                           TC       Q
001588:
001589: 00,2054           30121        VSHRRND            CA       MPTEMP                                #  ENTRY TO SHIFT RIGHT AND ROUND MPAC WHEN
001590: 00,2055           00006                           EXTEND                                         #  MPAC CONTAINS A VECTOR COMPONENT.
001591: 00,2056           70141                           MP       MPAC       +1
001592: 00,2057           54141                           TS       MPAC       +1
001593: 00,2060           56001                           XCH      L
001594: 00,2061           12041                           TCF      VSHR2                                 #  GO ADD ONE IF NECESSARY AND FINISH.
001595:


001597:                                                                                                  #           ROUTINE FOR SHORT SCALAR SHIFT LEFT (AND MAYBE ROUND).
001598:
001599: 00,2062           30021        TSSL               CA       SR                                    #  GET SHIFT COUNT FOR SR.
001600: 00,2063           54121                 +1        TS       MPTEMP
001601:
001602: 00,2064           00006                 +2        EXTEND                                         #  ENTRY HERE FROM SL FOR SCALARS.
001603: 00,2065           30142                           DCA      MPAC       +1                         #  SHIFTING LEFT ONE PLACE AT A TIME IS
001604: 00,2066           20142                           DAS      MPAC       +1                         #  FASTER THAN DOING THE WHOLE SHIFT WITH
001605: 00,2067           60140                           AD       MPAC                                  #  MULTIPLIES ASSUMING THAT FREQUENCY OF
001606: 00,2070           60140                           AD       MPAC                                  #  SHIFT COUNTS GOES DOWN RAPIDLY AS A
001607: 00,2071           54140                           TS       MPAC                                  #  FUNCTION OF THEIR MAGNITUDE.
001608: 00,2072           12074                           TCF      +2
001609: 00,2073           54105                           TS       OVFIND                                #  OVERFLOW. (LEAVES OVERFLOW-CORRECTED
001610:                                                                                                  #  RESULT ANYWAY).
001611: 00,2074           10121                           CCS      MPTEMP                                #  LOOP ON DECREMENTED SHIFT COUNT.
001612: 00,2075           12063                           TCF      TSSL       +1
001613:
001614: 00,2076           10020                           CCS      CYR                                   #  SEE IF ROUND WANTED.
001615: 00,2077           07116        ROUND              TC       ROUNDSUB                              #  YES - ROUND AND EXIT.
001616: 00,2100           16014                           TCF      DANZIG                                #  SL LEAVES A ZERO IN CYR FOR NO ROUND.
001617: 00,2101           16014                           TCF      DANZIG                                #  NO - EXIT IMMEDIATL
001618:


001620:                                                                                                  #  VECTOR SHIFTING ROUTINES.
001621:
001622: 00,2102           37663        SHORTV             CAF      LOW3                                  #  SAVE 3 BIT SHIFT COUNT - 1 WITHOUT
001623: 00,2103           70020                           MASK     CYR                                   #  EDITING CYR.
001624: 00,2104           54121                           TS       MPTEMP
001625: 00,2105           10020                           CCS      CYR                                   #  SEE IF LEFT OR RIGHT SHIFT.
001626: 00,2106           12126                           TCF      VSSL                                  #  VECTOR SHIFT LEFT.
001627: 00,2107           00176        OCT176             OCT      176                                   #  USED IN PROCESSED SHIFTS WITH - COUNT.
001628:
001629: 00,2110           50121        VSSR               INDEX    MPTEMP                                #  (ENTRY FROM SR). PICK UP SHIFTING BIT.
001630: 00,2111           37642                           CAF      BIT14                                 #  MPTEMP CONTAINS THE SHIFT COUNT - 1.
001631: 00,2112           54121                           TS       MPTEMP
001632: 00,2113           02054                           TC       VSHRRND                               #  SHIFT X COMPONENT.
001633:
001634: 00,2114           52141                           DXCH     MPAC                                  #  SWAP X AND Y COMPONENTS.
001635: 00,2115           52144                           DXCH     MPAC       +3
001636: 00,2116           52141                           DXCH     MPAC
001637: 00,2117           02054                           TC       VSHRRND                               #  SHIFT Y COMPONENT.
001638:
001639: 00,2120           52141                           DXCH     MPAC                                  #  SWAP Y AND Z COMPONENTS.
001640: 00,2121           52146                           DXCH     MPAC       +5
001641: 00,2122           52141                           DXCH     MPAC
001642: 00,2123           02054                           TC       VSHRRND                               #  SHIFT Z COMPONENT.
001643:
001644: 00,2124           17373                           TCF      VROTATEX                              #  RESTORE COMPONENTS TO PROPER PLACES.
001645:


001647:                                                                                                  #  VECTOR SHIFT LEFT - DONE ONE PLACE AT A TIME.
001648:
001649: 00,2125           54121                 -1        TS       MPTEMP                                #  SHIFTING LOOP.
001650:
001651: 00,2126           00006        VSSL               EXTEND
001652: 00,2127           30141                           DCA      MPAC
001653: 00,2130           20141                           DAS      MPAC
001654: 00,2131           00006                           EXTEND
001655: 00,2132           12134                           BZF      +2
001656: 00,2133           07007                           TC       OVERFLOW
001657:
001658: 00,2134           00006                           EXTEND
001659: 00,2135           30144                           DCA      MPAC       +3
001660: 00,2136           20144                           DAS      MPAC       +3
001661: 00,2137           00006                           EXTEND
001662: 00,2140           12142                           BZF      +2
001663: 00,2141           07007                           TC       OVERFLOW
001664:
001665: 00,2142           00006                           EXTEND
001666: 00,2143           30146                           DCA      MPAC       +5
001667: 00,2144           20146                           DAS      MPAC       +5
001668: 00,2145           00006                           EXTEND
001669: 00,2146           12150                           BZF      +2
001670: 00,2147           07007                           TC       OVERFLOW
001671:
001672: 00,2150           10121                           CCS      MPTEMP                                #  LOOP ON DECREMENTED SHIFT COUNTER.
001673: 00,2151           12125                           TCF      VSSL       -1
001674: 00,2152           16014                           TCF      DANZIG                                #  EXIT.
001675:


001677:                                                                                                  #           TSLC - TRIPLE SHIFT LEFT AND COUNT. SHIFTS MPAC LEFT UNTIL GREATER THAN .5 IN MAGNITUDE, LEAVING
001678:                                                                                                  #  THE COMPLEMENT OF THE NUMBER OF SHIFTS REQUIRED IN X.
001679:
001680: 00,2153           54121        TSLC2              TS       MPTEMP                                #  START BY ZEROING SHIFT COUNT (IN A NOW).
001681: 00,2154           06711                           TC       BRANCH                                #  EXIT WITH NO SHIFTING IF ARGUMENT ZERO.
001682: 00,2155           12157                           TCF      +2
001683: 00,2156           12172                           TCF      ENDTSLC                               #  STORES ZERO SHIFT COUNT IN THIS CASE.
001684:
001685: 00,2157           30140                           CA       MPAC                                  #  BEGIN NORMALIZATION LOOP.
001686: 00,2160           12167                           TCF      TSLCTEST
001687:
001688: 00,2161           24121        TSLCLOOP           INCR     MPTEMP                                #  INCREMENT SHIFT COUNTER.
001689: 00,2162           00006                           EXTEND
001690: 00,2163           30142                           DCA      MPAC       +1
001691: 00,2164           20142                           DAS      MPAC       +1
001692: 00,2165           60140                           AD       MPAC
001693: 00,2166           26140                           ADS      MPAC
001694: 00,2167           60000        TSLCTEST           DOUBLE                                         #  SEE IF (ANOTHER) SHIFT IS REQUIRED.
001695: 00,2170           54000                           OVSK
001696: 00,2171           12161                           TCF      TSLCLOOP                              #  YES - INCREMENT COUNT AND SHIFT AGAIN.
001697:
001698: 00,2172           40121        ENDTSLC            CS       MPTEMP
001699: 00,2173           16627                           TCF      STORE1                                #  STORE SHIFT COUNT AND RETURN TO DANZIG.
001700:


001702:                                                                                                  #           THE FOLLOWING ROUTINES PROCESSES THE GENERAL SHIFT INSTRUCTIONS SR, SRR, SL, AND SLR.
001703:                                                                                                  #  THE GIVEN ADDRESS IS DECODED AS FOLLOWS:
001704:
001705:                                                                                                  #           BITS 1-7        SHIFT COUNT (SUBADDRESS) LESS THAN 125 DECIMAL.
001706:                                                                                                  #           BIT 8           PSEUDO SIGN BIT (DETECTS CHANGE IN SIGN IN INDEXED SHIFTS).
001707:                                                                                                  #           BIT 9           0 FOR LEFT SHIFT, AND 1 FOR RIGHT SHIFT.
001708:                                                                                                  #           BIT 10          1 FOR TERMINAL ROUND ON SCALAR SHIFTS, 0 OTHERWISE.
001709:                                                                                                  #           BITS 11-15      0.
001710:
001711:                                                                                                  #  THE ABOVE ENCODING IS DONE BY THE YUL SYSTEM.
001712:
001713:
001714:
001715: 00,2174           70102        GENSHIFT           MASK     ADDRWD                                #  GET SHIFT COUNT, TESTING FOR ZERO.
001716: 00,2175           10000                           CCS      A                                     #  (ARRIVES WITH C(A) = LOW7).
001717: 00,2176           12204                           TCF      GENSHFT2                              #  IF NON-ZERO, PROCEED WITH DECREMENTED CT
001718:
001719: 00,2177           37646                           CAF      BIT10                                 #  ZERO SHIFT COUNT. NO SHIFTS NEEDED BUT
001720: 00,2200           70102                           MASK     ADDRWD                                #  WE MIGHT HAVE TO ROUND MPAC ON SLR AND
001721: 00,2201           10000                           CCS      A                                     #  SRR (SCALAR ONLY).
001722: 00,2202           07116                           TC       ROUNDSUB
001723: 00,2203           16014                           TCF      DANZIG
001724:
001725: 00,2204           54121        GENSHFT2           TS       MPTEMP                                #  DECREMENTED SHIFT COUNT TO MPTEMP.
001726: 00,2205           37650                           CAF      BIT8                                  #  TEST MEANING OF LOW SEVEN BIT COUNT IN
001727: 00,2206           00006                           EXTEND                                         #  MPTEMP NOW.
001728: 00,2207           70102                           MP       ADDRWD
001729: 00,2210           76165                           MASK     LOW2                                  #  JUMPS ON SHIFT DIRECTION (BIT8) AND
001730: 00,2211           50000                           INDEX    A
001731: 00,2212           12213                           TCF      +1                                    #  ORIGINAL SHIFT DIRECTION (BIT 9).
001732: 00,2213           12312                           TCF      RIGHT-                                #  NEGATIVE SHIFT COUNT FOR SL OR SLR.
001733: 00,2214           12321                           TCF      LEFT                                  #  SL OR SLR.
001734: 00,2215           12316                           TCF      LEFT-                                 #  NEGATIVE SHIFT COUNT WITH SR OR SRR.
001735:


001737:                                                                                                  #           GENERAL SHIFT RIGHT.
001738:
001739: 00,2216           10147        RIGHT              CCS      MODE                                  #  SEE IF VECTOR OR SCALAR.
001740: 00,2217           12257                           TCF      GENSCR
001741: 00,2220           12257                           TCF      GENSCR
001742:
001743: 00,2221           30121                           CA       MPTEMP                                #  SEE IF SHIFT COUNT GREATER THAN 13D.
001744: 00,2222           62273        VRIGHT2            AD       NEG12
001745: 00,2223           00006                           EXTEND
001746: 00,2224           62110                           BZMF     VSSR                                  #  IF SO, BRANCH AND SHIFT IMMEDIATELY.
001747:
001748: 00,2225           67667                           AD       NEGONE                                #  IF NOT, REDUCE MPTEMP BY A TOTAL OF 14,
001749: 00,2226           54121                           TS       MPTEMP                                #  AND DO A SHIFT RIGHT AND ROUND BY 14.
001750: 00,2227           37665                           CAF      ZERO                                  #  THE ROUND AT THIS STAGE MAY INTRODUCE A
001751: 00,2230           54001                           TS       L                                     #  ONE BIT ERROR IN A SHIFT RIGHT 15D.
001752: 00,2231           56140                           XCH      MPAC
001753: 00,2232           56141                           XCH      MPAC       +1
001754: 00,2233           02252                           TC       SETROUND                              #  X COMPONENT NOW SHIFTED, SO MAKE UP THE
001755: 00,2234           20141                           DAS      MPAC                                  #  ROUNDING QUANTITY (0 IN A AND 0 OR +-1
001756:                                                                                                  #  IN L).
001757: 00,2235           56143                           XCH      MPAC       +3                         #  REPEAT THE ABOVE PROCESS FOR Y AND Z.
001758: 00,2236           56144                           XCH      MPAC       +4
001759: 00,2237           02252                           TC       SETROUND
001760: 00,2240           20144                           DAS      MPAC       +3                         #  NO OVERFLOW ON THESE ADDS.
001761:
001762: 00,2241           56145                           XCH      MPAC       +5
001763: 00,2242           56146                           XCH      MPAC       +6
001764: 00,2243           02252                           TC       SETROUND
001765: 00,2244           20146                           DAS      MPAC       +5
001766:
001767: 00,2245           10121                           CCS      MPTEMP                                #  SEE IF DONE, DOING FINAL DECREMENT.
001768: 00,2246           12222                           TCF      VRIGHT2
001769: 00,2247           13630        TCSUBTR            TCF      SUBTR
001770: 00,2250           04604        BIASLO             DEC      .2974      B-1                        #  SQRT CONSTANT
001771:
001772: 00,2251           16014                           TCF      DANZIG
001773:
001774:
001775:
001776: 00,2252           60000        SETROUND           DOUBLE                                         #  MAKES UP ROUNDING QUANTITY FROM ARRIVING
001777: 00,2253           54142                           TS       MPAC       +2                         #  C(A). L IS ZERO INITIALLY.
001778: 00,2254           37665                           CAF      ZERO
001779: 00,2255           56001                           XCH      L
001780: 00,2256           00002                           TC       Q                                     #  RETURN AND DO THE DAS, RESETTING L TO 0.
001781:


001783:                                                                                                  #           PROCESS SR AND SRR FOR SCALARS.
001784:
001785: 00,2257           30121        GENSCR             CA       MPTEMP                                #  SEE IF THE ORIGINAL SHIFT COUNT WAS LESS
001786: 00,2260           62273                 +1        AD       NEG12                                 #  THAN 14D.
001787: 00,2261           00006                           EXTEND
001788: 00,2262           62302                           BZMF     DOSSHFT                               #  DO THE SHIFT IMMEDIATELY IF SO.
001789:
001790: 00,2263           67667                 +4        AD       NEGONE                                #  IF NOT, DECREMENT SHIFT COUNT BY 14D AND
001791: 00,2264           54121                           TS       MPTEMP                                #  SHIFT MPAC RIGHT 14 PLACES.
001792: 00,2265           37665                           CAF      ZERO
001793: 00,2266           56140                           XCH      MPAC
001794: 00,2267           56141                           XCH      MPAC       +1
001795: 00,2270           54142                           TS       MPAC       +2
001796: 00,2271           10121                           CCS      MPTEMP                                #  SEE IF FINISHED, DO FINAL DECREMENT.
001797: 00,2272           02260                           TC       GENSCR     +1
001798: 00,2273           77763        NEG12              DEC      -12        B-14
001799: 00,2274           22650        SLOPEHI            DEC      .5884                                 #  SQRT CONSTANT.
001800: 00,2275           37646                           CAF      BIT10                                 #  FINISHED WITH SHIFT. SEE IF ROUND
001801: 00,2276           70102                           MASK     ADDRWD                                #  WANTED.
001802: 00,2277           10000                           CCS      A
001803: 00,2300           07116                           TC       ROUNDSUB
001804: 00,2301           16014                           TCF      DANZIG                                #  DO SO AND/OR EXIT.
001805:
001806: 00,2302           50121        DOSSHFT            INDEX    MPTEMP                                #  PICK UP SHIFTING BIT.
001807: 00,2303           37642                           CAF      BIT14
001808: 00,2304           54121                           TS       MPTEMP
001809: 00,2305           37646                           CAF      BIT10                                 #  SEE IF TERMINAL ROUND DESIRED.
001810: 00,2306           70102                           MASK     ADDRWD
001811: 00,2307           10000                           CCS      A
001812: 00,2310           12012                           TCF      RIGHTR                                #  YES.
001813: 00,2311           12014                           TCF      MPACSHR                               #  JUST SHIFT RIGHT.
001814:


001816:                                                                                                  #           PROCESS THE RIGHT- (SL(R) WITH A NEGATIVE COUNT), LEFT-, AND LEFT OPTIONS.
001817:
001818: 00,2312           40121        RIGHT-             CS       MPTEMP                                #  GET ABSOLUTE VALUE - 1 OF SHIFT COUNT
001819: 00,2313           62107                           AD       OCT176                                #  UNDERSTANDING THAT BIT8 (PSEUDO-SIGN)
001820: 00,2314           54121                           TS       MPTEMP                                #  WAS 1 INITIALLY.
001821: 00,2315           12216                           TCF      RIGHT                                 #  DO NORMAL SHIFT RIGHT.
001822:
001823: 00,2316           40121        LEFT-              CS       MPTEMP                                #  SAME PROLOGUE TO LEFT FOR INDEXED RIGHT
001824: 00,2317           62107                           AD       OCT176                                #  SHIFTS WHOSE NET SHIFT COUNT IS NEGATIVE
001825: 00,2320           54121                           TS       MPTEMP
001826:
001827: 00,2321           10147        LEFT               CCS      MODE                                  #  SINCE LEFT SHIFTING IS SONE ONE PLACE AT
001828: 00,2322           12325                           TCF      GENSCL                                #  A TIME, NO COMPARISON WITH 14 NEED BE
001829: 00,2323           12325                           TCF      GENSCL                                #  DONE. FOR SCALARS, SEE IF TERMINAL ROUND
001830: 00,2324           12126                           TCF      VSSL                                  #  DESIRED. FOR VECTORS, SHIFT IMMEDIATELY.
001831:
001832: 00,2325           37652        GENSCL             CAF      BIT6                                  #  PUT ROUNDING BIT (BIT10 OF ADDRWD) INTO
001833: 00,2326           00006                           EXTEND                                         #  BIT 15 OF CYR WHERE THE ROUNDING BIT OF
001834: 00,2327           70102                           MP       ADDRWD                                #  A SHORT SHIFT LEFT WOULD BE.
001835: 00,2330           54020                           TS       CYR
001836: 00,2331           12064                           TCF      TSSL       +2                         #  DO THE SHIFT.
001837:


001839:                                                                                                  #           SCALAR DIVISION INSTRUCTIONS, DDV AND BDDV, ARE EXECUTED HERE. AT THIS POINT, THE DIVIDEND IS IN MPAC
001840:                                                                                                  #  AND THE DIVISOR IN BUF.
001841:
001842: 00,2332           47657        DDV/BDDV           CS       ONE                                   #  INITIALIZATION.
001843: 00,2333           54122                           TS       DVSIGN                                #  +-1 FOR POSITIVE QUOTIENT - -0 FOR NEG.
001844: 00,2334           54123                           TS       DVNORMCT                              #  DIVIDEND NORMALIZATION COUNT.
001845: 00,2335           54124                           TS       MAXDVSW                               #  NEAR-ONE DIVIDE FLAG.
001846:
001847: 00,2336           10114                           CCS      BUF                                   #  FORCE BUF POSITIVE WITH THE MAJOR PART
001848: 00,2337           12366                           TCF      BUF+                                  #  NON-ZERO.
001849: 00,2340           12342                           TCF      +2
001850: 00,2341           12362                           TCF      BUF-
001851:
001852: 00,2342           56115                           XCH      BUF        +1                         #  SHIFT DIVIDEND AND DIVISOR LEFT 14.
001853: 00,2343           56114                           XCH      BUF
001854: 00,2344           56141                           XCH      MPAC       +1
001855: 00,2345           56140                           XCH      MPAC
001856: 00,2346           00006                           EXTEND                                         #  CHECK FOR OVERFLOW.
001857: 00,2347           12351                           BZF      +2
001858: 00,2350           12355                           TCF      DVOVF
001859:
001860: 00,2351           10114                           CCS      BUF                                   #  TRY AGAIN ON FORMER MINOR PART.
001861: 00,2352           12366                           TCF      BUF+
001862: 00,2353           12355                           TCF      DVOVF                                 #  OVERFLOW ON ZERO DIVISOR.
001863: 00,2354           12362                           TCF      BUF-
001864:
001865: 00,2355           37637        DVOVF              CAF      POSMAX                                #  ON DIVISION OVERFLOW OF ANY SORT, SET
001866: 00,2356           54140                           TS       MPAC                                  #  SET DP MPAC TO +-POSMAX.
001867: 00,2357           02552                           TC       FINALDV    +3
001868: 00,2360           37657                           CAF      ONE                                   #  SET OVERFLOW INDICATOR AND EXIT.
001869: 00,2361           17061                           TCF      SETOVF
001870:
001871: 00,2362           00006        BUF-               EXTEND                                         #  IF BUF IS NEGATIVE, COMPLEMENT IT AND
001872: 00,2363           40115                           DCS      BUF                                   #  MAINTAIN DVSIGN FOR FINAL QUOTIENT SIGN.
001873: 00,2364           52115                           DXCH     BUF
001874: 00,2365           24122                           INCR     DVSIGN                                #  NOW -0.
001875:
001876: 00,2366           10140        BUF+               CCS      MPAC                                  #  FORCE MPAC POSITIVE, CHECKING FOR ZERO
001877: 00,2367           12403                           TCF      MPAC+                                 #  DIVIDEND IN THE PROCESS.
001878: 00,2370           12372                           TCF      +2
001879: 00,2371           12377                           TCF      MPAC-
001880: 00,2372           10141                           CCS      MPAC       +1
001881: 00,2373           12403                           TCF      MPAC+
001882: 00,2374           16014                           TCF      DANZIG                                #  EXIT IMMEDIATELY ON ZERO DIVIDEND.
001883: 00,2375           12377                           TCF      MPAC-
001884: 00,2376           16014                           TCF      DANZIG
001885:
001886: 00,2377           00006        MPAC-              EXTEND                                         #  FORCE MPAC POSITIVE AS BUF IN BUF-.
001887: 00,2400           40141                           DCS      MPAC
001888: 00,2401           52141                           DXCH     MPAC
001889:


001891: 00,2402           24122                           INCR     DVSIGN                                #  NOW +1 OR -0.
001892:


001894: 00,2403           40140        MPAC+              CS       MPAC                                  #  CHECK FOR DIVISION OVERFLOW. IF THE
001895: 00,2404           67667                           AD       NEGONE                                #  MAJOR PART OF THE DIVIDEND IS LESS THAN
001896: 00,2405           60114                           AD       BUF                                   #  THE MAJOR PART OF THE DIVISOR BY AT
001897: 00,2406           10000                           CCS      A                                     #  LEAST TWO, WE CAN PROCEED IMMEDIATELY
001898: 00,2407           12451                           TCF      DVNORM                                #  WITHOUT NORMALIZATION PRODUCING A DVMAX.
001899: 00,2410           60001        -1/2+2             OCT      60001                                 #  USED IN SQRTSUB.
001900:
001901: 00,2411           12412                           TCF      +1                                    #  IF THE ABOVE DOES NOT HOLD, FORCE SIGN
001902: 00,2412           37642                           CAF      HALF                                  #  AGREEMENT IN NUMERATOR AND DENOMINATOR
001903: 00,2413           60000                           DOUBLE                                         #  TO FACILITATE OVERFLOW AND NEAR-ONE
001904: 00,2414           60141                           AD       MPAC       +1                         #  CHECKING.
001905: 00,2415           54141                           TS       MPAC       +1
001906: 00,2416           37665                           CAF      ZERO
001907: 00,2417           67637                           AD       POSMAX
001908: 00,2420           26140                           ADS      MPAC
001909:
001910: 00,2421           37642                           CAF      HALF                                  #  SAME FOR BUF.
001911: 00,2422           60000                           DOUBLE
001912: 00,2423           60115                           AD       BUF        +1
001913: 00,2424           54115                           TS       BUF        +1
001914: 00,2425           37665                           CAF      ZERO
001915: 00,2426           67637                           AD       POSMAX
001916: 00,2427           26114                           ADS      BUF
001917:
001918: 00,2430           40140                           CS       MPAC                                  #  CHECK MAGNITUDE OF SIGN-CORRECTED
001919: 00,2431           60114                           AD       BUF                                   #  OPERANDS.
001920: 00,2432           10000                           CCS      A
001921: 00,2433           12451                           TCF      DVNORM                                #  DIVIDE OK - WILL NOT BECOME MAXDV CASE.
001922: 00,2434           00117        LBUF2              ADRES    BUF2
001923: 00,2435           12355                           TCF      DVOVF                                 #  DIVISOR NOT LESS THAN DIVIDEND - OVF.
001924:
001925: 00,2436           54124                           TS       MAXDVSW                               #  IF THE MAJOR PARTS OF THE DIVIDEND AND
001926: 00,2437           40141                           CS       MPAC       +1                         #  DIVISOR ARE EQUAL, A SPECIAL APPROXIMA-
001927: 00,2440           60115                           AD       BUF        +1                         #  TION IS USED (PROVIDED THE DIVISION IS
001928: 00,2441           00006                           EXTEND                                         #  POSSIBLE, OF COURSE).
001929: 00,2442           62355                           BZMF     DVOVF
001930: 00,2443           12451                           TCF      DVNORM                                #  IF NO OVERFLOW.
001931:


001933: 00,2444           00006        BUFNORM            EXTEND                                         #  ADD -1 TO AUGMENT SHIFT COUNT AND SHIFT
001934: 00,2445           24123                           AUG      DVNORMCT                              #  LEFT ONE PLACE.
001935: 00,2446           00006                           EXTEND
001936: 00,2447           30115                           DCA      BUF
001937: 00,2450           20115                           DAS      BUF
001938:
001939: 00,2451           30114        DVNORM             CA       BUF                                   #  SEE IF DIVISOR NORMALIZED YET.
001940: 00,2452           60000                           DOUBLE
001941: 00,2453           54000                           OVSK
001942: 00,2454           12444                           TCF      BUFNORM                               #  NO - SHIFT LEFT ONE AND TRY AGAIN.
001943:
001944: 00,2455           52141                           DXCH     MPAC                                  #  CALL DIVIDEND NORMALIZATION SEQUENCE
001945: 00,2456           50123                           INDEX    DVNORMCT                              #  PRIOR TO DOING THE DIVIDE.
001946: 00,2457           02507                           TC       MAXTEST
001947:
001948: 00,2460           54142                           TS       MPAC       +2                         #  RETURNS WITH DIVISION DONE AND C(A) = 0.
001949: 00,2461           16014                           TCF      DANZIG
001950:


001952:                                                                                                  #           THE FOLLOWING ARE PROLOGUES TO SHIFT THE DIVIDEND ARRIVING IN A AND L BEFORE THE DIVIDE.
001953:
001954: 00,2462           22021                 -21D      LXCH     SR                                    #  SPECIAL PROLOGUE FOR UNIT WHEN THE
001955: 00,2463           00006                           EXTEND                                         #  LENGTH OF THE ARGUMENT WAS NOT LESS THAN
001956: 00,2464           77642                           MP       HALF                                  #  .5.  IN THIS CASE, EACH COMPONENT MUST BE
001957: 00,2465           56001                           XCH      L                                     #  SHIFTED RIGHT ONE TO PRODUCE A HALF-UNIT
001958: 00,2466           60021                           AD       SR                                    #  VECTOR.
001959: 00,2467           56001                           XCH      L
001960: 00,2470           12513                           TCF      GENDDV     +1                         #  WITH DP DIVIDEND IN A,L.
001961:
001962: 00,2471           20001                           DDOUBL                                         #  PROLOGUE WHICH NORMALIZES THE DIVIDEND
001963: 00,2472           20001                           DDOUBL                                         #  WHEN IT IS KNOWN THAT NO DIVISION
001964: 00,2473           20001                           DDOUBL                                         #  OVERFLOW WILL OCCUR.
001965: 00,2474           20001                           DDOUBL
001966: 00,2475           20001                           DDOUBL
001967: 00,2476           20001                           DDOUBL
001968: 00,2477           20001                           DDOUBL
001969: 00,2500           20001                           DDOUBL
001970: 00,2501           20001                           DDOUBL
001971: 00,2502           20001                           DDOUBL
001972: 00,2503           20001                           DDOUBL
001973: 00,2504           20001                           DDOUBL
001974: 00,2505           20001                           DDOUBL
001975: 00,2506           52141                           DXCH     MPAC
001976:
001977: 00,2507           10124        MAXTEST            CCS      MAXDVSW                               #  0 IF MAJORS MIGHT BE =, -1 OTHERWISE.
001978: 00,2510           06552        BIASHI             DEC      .4192      B-1                        #  SQRT CONSTANTS
001979:
001980: 00,2511           12564                           TCF      MAXDV                                 #  CHECK TO SEE IF THEY ARE NOW EQUAL.
001981:


001983:                                                                                                  #           THE FOLLOWING IS A GENERAL PURPOSE DOUBLE PRECISION DIVISION ROUTINE. IT DIVIDES MPAC BY BUF AND LEAVES
001984:                                                                                                  #  THE RESULT IN MPAC. THE FOLLOWING CONDITIONS MUST BE SATISFIED:
001985:
001986:                                                                                                  #           1.  THE DIVISOR (BUF) MUST BE POSITIVE AND NOT LESS THAN .5.
001987:
001988:                                                                                                  #           2.  THE DIVIDEND (MPAC) MUST BE POSITIVE WITH THE MAJOR PART OF MPAC STRICTLY LESS THAN THAT OF BUF
001989:                                                                                                  #  (A SPECIAL APPROXIMATION, MAXDV, IS USED WHEN THE MAJOR PARTS ARE EQUAL).
001990:
001991:                                                                                                  #           UNDERSTANDING THAT A/B = Q + S(R/B) WHERE S = 2(-14) AND Q AND R ARE QUOTIENT AND REMAINDER, RESPEC-
001992:                                                                                                  #  TIVELY, THE FOLLOWING APPROXIMATION IS OBTAINED BY MULTIPLYING ABOVE AND BELOW BY C - SD AND NEGLECTING TERMS OF
001993:                                                                                                  #  ORDER S-SQUARED (POSSIBLY INTRODUCING ERROR INTO THE LOW TWO BITS OF THE RESULT). SIGN AGREEMENT IS UNNECESSARY.
001994:
001995:                                                                                                  #           A + SB .      (R - QD)                                             A + SB
001996:                                                                                                  #           ------ = Q + S(------) WHERE Q AND R ARE QUOTIENT AND REMAINDER OF ------ RESPECTIVELY.
001997:                                                                                                  #           C + SD        (  C   )                                               C
001998:
001999: 00,2512           52141        GENDDV             DXCH     MPAC                                  #  WE NEED A AND B ONLY FOR FIRST DV.
002000: 00,2513           00006                 +1        EXTEND                                         #  (SPECIAL UNIT PROLOGUE ENTERS HERE).
002001: 00,2514           10114                           DV       BUF                                   #  A NOW CONTAINS Q AND L, R.
002002: 00,2515           52141                           DXCH     MPAC
002003:
002004: 00,2516           40140                           CS       MPAC                                  #  FORM DIVIDEND FOR MINOR PART OF RESULT.
002005: 00,2517           00006                           EXTEND
002006: 00,2520           70115                           MP       BUF        +1
002007: 00,2521           60141                           AD       MPAC       +1                         #  OVERFLOW AT THIS POINT IS POSITIVE SINCE
002008: 00,2522           54000                           OVSK                                           #  R IS POSITIVE IN EVERY CASE.
002009: 00,2523           12530                           TCF      +5
002010:
002011: 00,2524           00006                           EXTEND                                         #  OVERFLOW CAN BE REMOVED BY SUBTRACTING C
002012: 00,2525           60114                           SU       BUF                                   #  (BUF) ONCE SINCE R IS ALWAYS LESS THAN C
002013: 00,2526           24140                           INCR     MPAC                                  #  IN THIS CASE. INCR COMPENSATES SUBTRACT.
002014: 00,2527           12532                           TCF      +DOWN                                 #  (SINCE C(A) IS STILL POSITIVE).
002015:
002016: 00,2530           00006                 +5        EXTEND                                         #  C(A) CAN BE MADE LESS THAN C IN MAGNI-
002017: 00,2531           62542                           BZMF     -UP                                   #  TUDE BY DIMINISHING IT BY C (SINCE C IS
002018:                                                                                                  #  NOT LESS THAN .5) UNLESS C(A) = 0.
002019:


002021: 00,2532           00006        +DOWN              EXTEND
002022: 00,2533           60114                           SU       BUF                                   #  IF POSITIVE, REDUCE ONLY IF NECESSARY
002023: 00,2534           00006                           EXTEND                                         #  SINCE THE COMPENSATING INCR MIGHT CAUSE
002024: 00,2535           12540                           BZF      +3                                    #  OVERFLOW.
002025: 00,2536           00006                           EXTEND                                         #  DONT SUBTRACT UNLESS RESULT IS POSITIVE
002026: 00,2537           62546                           BZMF     ENDMAXDV                              #  OR ZERO.
002027:
002028: 00,2540           24140                 +3        INCR     MPAC                                  #  KEEP SUBTRACT HERE AND COMPENSATE.
002029: 00,2541           12547                           TCF      FINALDV
002030:
002031: 00,2542           00006        -UP                EXTEND                                         #  IF ZERO, SET MINOR PART OF RESULT TO
002032: 00,2543           12552                           BZF      FINALDV    +3                         #  ZERO.
002033:
002034: 00,2544           00006                           EXTEND                                         #  IF NEGATIVE, ADD C TO A, SUBTRACTING ONE
002035: 00,2545           26140                           DIM      MPAC                                  #  TO COMPENSATE. DIM IS OK HERE SINCE THE
002036: 00,2546           60114        ENDMAXDV           AD       BUF                                   #  MAJOR PART NEVER GOES NEGATIVE.
002037:


002039: 00,2547           22007        FINALDV            ZL                                             #  DO DV TO OBTAIN MINOR PART OF RESULT.
002040: 00,2550           00006                           EXTEND
002041: 00,2551           10114                           DV       BUF
002042: 00,2552           54141                 +3        TS       MPAC       +1
002043:
002044: 00,2553           10122                           CCS      DVSIGN                                #  LEAVE RESULT POSITIVE UNLESS C(DVSIGN)=
002045: 00,2554           00002                           TC       Q                                     #  -0.
002046: 00,2555           00002                           TC       Q
002047: 00,2556           00002                           TC       Q
002048:
002049: 00,2557           00006                           EXTEND
002050: 00,2560           40141                           DCS      MPAC
002051: 00,2561           52141                           DXCH     MPAC
002052: 00,2562           37665                           CAF      ZERO                                  #  SO WE ALWAYS RETURN WITH C(A) = 0.
002053: 00,2563           00002                           TC       Q
002054:


002056:                                                                                                  #           IF THE MAJOR PARTS OF THE DIVISOR AND DIVIDEND ARE EQUAL, BUT THE MINOR PARTS ARE SUCH THAT THE
002057:                                                                                                  #  DIVIDEND IS STRICTLY LESS THAN THE DIVISOR IN MAGNITUDE, THE FOLLOWING APPROXIMATION IS USED. THE ASSUMPTIONS
002058:                                                                                                  #  ARE THE SAME AS THE GENERAL ROUTINE WITH THE ADDITION THAT SIGN AGREEMENT IS NECESSARY (B, C, & D POSITIVE).
002059:
002060:                                                                                                  #                  C + SB .          (C + B - D)
002061:                                                                                                  #                  ------ = 37777 + S(---------)
002062:                                                                                                  #                  C + SD            (    C    )
002063:
002064:                                                                                                  #           THE DIVISION MAY BE PERFORMED IMMEDIATELY SINCE B IS STRICTLY LESS THAN D AND C IS NOT LESS THAN .5.
002065:
002066:
002067:
002068: 00,2564           40140        MAXDV              CS       MPAC                                  #  SEE IF MAXDV CASE STILL HOLDS AFTER
002069: 00,2565           60114                           AD       BUF                                   #  NORMALIZATION.
002070: 00,2566           00006                           EXTEND
002071: 00,2567           12571                           BZF      +2
002072: 00,2570           12512                           TCF      GENDDV                                #  MPAC NOW LESS THAN BUF - DIVIDE AS USUAL
002073:
002074: 00,2571           37637                 +2        CAF      POSMAX                                #  SET MAJOR PART OF RESULT.
002075: 00,2572           54140                           TS       MPAC
002076:
002077: 00,2573           40115                           CS       BUF        +1                         #  FORM DIVIDEND OF MINOR PART OF RESULT.
002078: 00,2574           60141                           AD       MPAC       +1
002079: 00,2575           12546                           TCF      ENDMAXDV                              #  GO ADD C AND DO DIVIDE, ATTACHING SIGN
002080:                                                                                                  #  BEFORE EXITING.
002081:


002083:                                                                                                  #        VECTOR DIVIDED BY SCALAR, V/SC, IS EXECUTED HERE. THE VECTOR IS NOW IN MPAC WITH SCALAR IN BUF.
002084:
002085: 00,2576           47657        V/SC2              CS       ONE                                   #  INITIALIZE DIVIDEND NORMALIZATION COUNT
002086: 00,2577           54123                           TS       DVNORMCT                              #  AND DIVISION SIGN REGISTER.
002087: 00,2600           54113                           TS       VBUF       +5
002088:
002089: 00,2601           10114                           CCS      BUF                                   #  FORCE DIVISOR POSITIVE WITH MAJOR PART
002090: 00,2602           12637                           TCF      /BUF+                                 #  NON-ZERO (IF POSSIBLE).
002091: 00,2603           12605                           TCF      +2
002092: 00,2604           12633                           TCF      /BUF-
002093:
002094: 00,2605           56115                           XCH      BUF        +1                         #  SHIFT VECTOR AND SCALAR LEFT 14.
002095: 00,2606           56114                           XCH      BUF
002096: 00,2607           56141                           XCH      MPAC       +1
002097: 00,2610           56140                           XCH      MPAC
002098: 00,2611           00006                           EXTEND                                         #  CHECK FOR OVERFLOW IN EACH CASE.
002099: 00,2612           12614                           BZF      +2
002100: 00,2613           12355                           TCF      DVOVF
002101:
002102: 00,2614           56144                           XCH      MPAC       +4
002103: 00,2615           56143                           XCH      MPAC       +3
002104: 00,2616           00006                           EXTEND
002105: 00,2617           12621                           BZF      +2
002106: 00,2620           12355                           TCF      DVOVF
002107:
002108: 00,2621           56146                           XCH      MPAC       +6
002109: 00,2622           56145                           XCH      MPAC       +5
002110: 00,2623           00006                           EXTEND
002111: 00,2624           12626                           BZF      +2
002112: 00,2625           12355                           TCF      DVOVF
002113:
002114: 00,2626           10114                           CCS      BUF
002115: 00,2627           12637                           TCF      /BUF+
002116: 00,2630           12355                           TCF      DVOVF                                 #  ZERO DIVISOR - OVERFLOW.
002117: 00,2631           12633                           TCF      /BUF-
002118: 00,2632           12355                           TCF      DVOVF
002119:
002120: 00,2633           00006        /BUF-              EXTEND                                         #  ON NEGATIVE, COMPLEMENT BUF AND MAINTAIN
002121: 00,2634           40115                           DCS      BUF                                   #  DVSIGN IN VBUF +5.
002122: 00,2635           52115                           DXCH     BUF
002123: 00,2636           24113                           INCR     VBUF       +5
002124:


002126: 00,2637           37642        /BUF+              CAF      HALF                                  #  FORCE SIGN AGREEMENT IN DIVISOR.
002127: 00,2640           60000                           DOUBLE
002128: 00,2641           60115                           AD       BUF        +1
002129: 00,2642           54115                           TS       BUF        +1
002130: 00,2643           37665                           CAF      ZERO
002131: 00,2644           67637                           AD       POSMAX
002132: 00,2645           26114                           ADS      BUF
002133:
002134: 00,2646           56117                           XCH      BUF2                                  #  LEAVE ABS(ORIGINAL DIVISOR) IN BUF2 FOR
002135: 00,2647           30115                           CA       BUF        +1                         #  OVERFLOW TESTING.
002136: 00,2650           54120                           TS       BUF2       +1
002137: 00,2651           12657                           TCF      /NORM                                 #  NORMALIZE DIVISOR IN BUF.
002138:
002139: 00,2652           00006        /NORM2             EXTEND                                         #  IF LESS THAN .5, AUGMENT DVNORMCT AND
002140: 00,2653           24123                           AUG      DVNORMCT                              #  DOUBLE DIVISOR.
002141: 00,2654           00006                           EXTEND
002142: 00,2655           30115                           DCA      BUF
002143: 00,2656           20115                           DAS      BUF
002144:
002145: 00,2657           30114        /NORM              CA       BUF                                   #  SEE IF DIVISOR NORMALIZED.
002146: 00,2660           60000                           DOUBLE
002147: 00,2661           54000                           OVSK
002148: 00,2662           12652                           TCF      /NORM2                                #  DOUBLE AND TRY AGAIN IF NOT.
002149:
002150: 00,2663           02675                           TC       V/SCDV                                #  DO X COMPONENT DIVIDE.
002151: 00,2664           52144                           DXCH     MPAC       +3                         #  SUPPLY ARGUMENTS IN USUAL SEQUENCE.
002152: 00,2665           52141                           DXCH     MPAC
002153: 00,2666           52144                           DXCH     MPAC       +3
002154:
002155: 00,2667           02675                           TC       V/SCDV                                #  Y COMPONENT.
002156: 00,2670           52146                           DXCH     MPAC       +5
002157: 00,2671           52141                           DXCH     MPAC
002158: 00,2672           52146                           DXCH     MPAC       +5
002159:
002160: 00,2673           02675                           TC       V/SCDV                                #  Z COMPONENT.
002161: 00,2674           17373                           TCF      VROTATEX                              #  GO RE-ARRANGE COMPONENTS BEFORE EXIT.
002162:


002164:                                                                                                  #           SUBROUTINE USED BY V/SC TO DIVIDE VECTOR COMPONENT IN MPAC,+1 BY THE SCALAR GIVEN IN BUF.
002165:
002166: 00,2675           30113        V/SCDV             CA       VBUF       +5                         #  REFLECTS SIGN OF SCALAR.
002167: 00,2676           54122                           TS       DVSIGN
002168:
002169: 00,2677           10140                           CCS      MPAC                                  #  FORCE MPAC POSITIVE, EXITING ON ZERO.
002170: 00,2700           12714                           TCF      /MPAC+
002171: 00,2701           12703                           TCF      +2
002172: 00,2702           12710                           TCF      /MPAC-
002173:
002174: 00,2703           10141                           CCS      MPAC       +1
002175: 00,2704           12714                           TCF      /MPAC+
002176: 00,2705           00002                           TC       Q
002177: 00,2706           12710                           TCF      /MPAC-
002178: 00,2707           00002                           TC       Q
002179:
002180: 00,2710           00006        /MPAC-             EXTEND                                         #  USUAL COMPLEMENTING AND SETTING OF SIGN.
002181: 00,2711           40141                           DCS      MPAC
002182: 00,2712           52141                           DXCH     MPAC
002183: 00,2713           24122                           INCR     DVSIGN
002184:
002185: 00,2714           47657        /MPAC+             CS       ONE                                   #  INITIALIZE NEAR-ONE SWITCH.
002186: 00,2715           54124                           TS       MAXDVSW
002187:
002188: 00,2716           40140                           CS       MPAC                                  #  CHECK POSSIBLE OVERFLOW.
002189: 00,2717           60117                           AD       BUF2                                  #  UNNORMALIZED INPUT DIVISOR.
002190: 00,2720           00006                           EXTEND
002191: 00,2721           62725                           BZMF     /AGREE                                #  CHECK FOR NEAR-ONE OR OVERFLOW.
002192:
002193: 00,2722           52141        DDVCALL            DXCH     MPAC                                  #  CALL PRE-DIVIDE NORMALIZATION.
002194: 00,2723           50123                           INDEX    DVNORMCT
002195: 00,2724           12507                           TCF      MAXTEST
002196:


002198: 00,2725           37642        /AGREE             CAF      HALF                                  #  FORCE SIGN AGREEMENT IN DIVIDEND
002199: 00,2726           60000                           DOUBLE                                         #  (ALREADY DONE FOR DIVISOR).
002200: 00,2727           60141                           AD       MPAC       +1
002201: 00,2730           54141                           TS       MPAC       +1
002202: 00,2731           37665                           CAF      ZERO
002203: 00,2732           67637                           AD       POSMAX
002204: 00,2733           26140                           ADS      MPAC
002205:
002206: 00,2734           40140                           CS       MPAC                                  #  CHECK TO SEE IF OVERFLOW GONE OR IF
002207: 00,2735           60117                           AD       BUF2                                  #  NEAR-ONE CASE IS PRESENT.
002208: 00,2736           10000                           CCS      A
002209: 00,2737           12722                           TCF      DDVCALL                               #  NOT NEAR-ONE.
002210: 00,2740           32506        SLOPELO            DEC      .8324
002211: 00,2741           12355                           TCF      DVOVF                                 #  NO HOPE.
002212:
002213: 00,2742           54124                           TS       MAXDVSW                               #  SIGNAL POSSIBLE NEAR-ONE CASE.
002214: 00,2743           40141                           CS       MPAC       +1                         #  SEE IF DIVISION CAN BE DONE.
002215: 00,2744           60120                           AD       BUF2       +1
002216: 00,2745           00006                           EXTEND
002217: 00,2746           62355                           BZMF     DVOVF
002218: 00,2747           12722                           TCF      DDVCALL                               #  GOING TO MAXDV.
002219:


002221:                                                                                                  #           THE FOLLOWING ROUTINE EXECUTES THE UNIT INSTRUCTION, WHICH TAKES THE UNIT OF THE VECTOR IN MPAC.
002222:
002223: 00,2750           07506        UNIT               TC       MPACVBUF                              #  SAVE THE ARGUMENT IN VBUF.
002224: 00,2751           37665                           CAF      ZERO                                  #  MUST SENSE OVERFLOW IN FOLLOWING DOT.
002225: 00,2752           56105                           XCH      OVFIND
002226: 00,2753           54125                           TS       TEM1
002227: 00,2754           03246                           TC       VSQSUB                                #  DOT MPAC WITH ITSELF.
002228: 00,2755           30125                           CA       TEM1
002229: 00,2756           56105                           XCH      OVFIND
002230: 00,2757           00006                           EXTEND
002231: 00,2760           12762                           BZF      +2
002232: 00,2761           12355                           TCF      DVOVF
002233: 00,2762           00006                           EXTEND
002234: 00,2763           30141                           DCA      MPAC                                  #  LEAVE THE SQUARE OF THE LENGTH OF THE
002235: 00,2764           50104                           INDEX    FIXLOC                                #  ARGUMENT IN LVSQUARE.
002236: 00,2765           52043                           DXCH     LVSQUARE
002237:
002238: 00,2766           03272                           TC       SQRTSUB                               #  GO TAKE THE NORMALIZED SQUARE ROOT.
002239:
002240: 00,2767           10140                           CCS      MPAC                                  #  CHECK FOR UNIT OVERFLOW.
002241: 00,2770           12775                           TCF      +5                                    #  MPAC IS NOT LESS THAN .5 UNLESS
002242: 00,2771           54001                           TS       L
002243: 00,2772           50104                           INDEX    FIXLOC
002244: 00,2773           52045                           DXCH     LV
002245: 00,2774           12355                           TCF      DVOVF                                 #  INPUT TO SQRTSUB WAS 0.
002246:
002247: 00,2775           43076                           CS       FOURTEEN                              #  SEE IF THE INPUT WAS SO SMALL THE THE
002248: 00,2776           60121                           AD       MPTEMP                                #  FIRST TWO REGISTERS OF THE SQUARE WERE 0
002249: 00,2777           10000                           CCS      A
002250: 00,3000           40000                           COM                                            #  IF SO, SAVE THE NEGATIVE OF THE SHIFT
002251: 00,3001           13057                           TCF      SMALL                                 #  COUNT -15D.
002252:
002253: 00,3002           13011                           TCF      LARGE                                 #  (THIS IS USUALLY THE CASE.)
002254:
002255: 00,3003           43075                           CS       THIRTEEN                              #  IF THE SHIFT COUNT WAS EXACTLY 14, SET
002256: 00,3004           54121                           TS       MPTEMP                                #  THE PRE-DIVIDE NORM COUNT TO -13D.
002257:
002258: 00,3005           30140                           CA       MPAC                                  #  SHIFT THE LENGTH RIGHT 14 BEFORE STORING
002259: 00,3006           54001        SMALL2             TS       L                                     #  (SMALL EXITS TO THIS POINT).
002260: 00,3007           37665                           CAF      ZERO
002261: 00,3010           13036                           TCF      LARGE2                                #  GO TO STORE LENGTH AND PROCEED.
002262:
002263: 00,3011           10121        LARGE              CCS      MPTEMP                                #  MOST ALL CASES COME HERE.
002264: 00,3012           13020                           TCF      LARGE3                                #  SEE IF NO NORMALIZATION WAS REQUIRED BY
002265:
002266: 00,3013           42005                           CS       SRDDV                                 #  SQRT, AND IF SO, SET UP FOR A SHIFT
002267: 00,3014           54121                           TS       MPTEMP                                #  RIGHT 1 BEFORE DIVIDING TO PRODUCE
002268: 00,3015           00006                           EXTEND                                         #  THE DESIRED HALF UNIT VECTOR.
002269: 00,3016           30141                           DCA      MPAC
002270: 00,3017           13036                           TCF      LARGE2
002271:


002273: 00,3020           40000        LARGE3             COM                                            #  LEAVE NEGATIVE OF SHIFT COUNT-1 FOR
002274: 00,3021           54121                           TS       MPTEMP                                #  PREDIVIDE LEFT SHIFT.
002275:
002276: 00,3022           40000                           COM                                            #  PICK UP REQUIRED SHIFTING BIT TO UNNORM-
002277: 00,3023           50000                           INDEX    A                                     #  ALIZE THE SQRT RESULT.
002278: 00,3024           37642                           CAF      BIT14
002279: 00,3025           54114                           TS       BUF
002280: 00,3026           00006                           EXTEND
002281: 00,3027           70141                           MP       MPAC       +1
002282: 00,3030           56114                           XCH      BUF
002283: 00,3031           00006                           EXTEND                                         #  (UNNORMALIZE THE SQRT FOR LV).
002284: 00,3032           70140                           MP       MPAC
002285: 00,3033           56001                           XCH      L
002286: 00,3034           60114                           AD       BUF
002287: 00,3035           56001                           XCH      L
002288:
002289: 00,3036           50104        LARGE2             INDEX    FIXLOC
002290: 00,3037           52045                           DXCH     LV                                    #  LENGTH NOW STORED IN WORK AREA.
002291:
002292: 00,3040           47657                           CS       ONE
002293: 00,3041           54124                           TS       MAXDVSW                               #  NO MAXDV CASES IN UNIT.
002294:
002295: 00,3042           52107                           DXCH     VBUF                                  #  PREPARE X COMPONENT FOR DIVIDE, SETTING
002296: 00,3043           52141                           DXCH     MPAC                                  #  LENGTH OF VECTOR AS DIVISOR IN BUF.
002297: 00,3044           52115                           DXCH     BUF
002298: 00,3045           03077                           TC       UNITDV
002299:
002300: 00,3046           52111                           DXCH     VBUF       +2                         #  DO Y AND Z IN USUAL FASHION SO WE CAN
002301: 00,3047           52141                           DXCH     MPAC                                  #  EXIT THROUGH VROTATEX.
002302: 00,3050           52144                           DXCH     MPAC       +3
002303: 00,3051           03077                           TC       UNITDV
002304:
002305: 00,3052           52113                           DXCH     VBUF       +4
002306: 00,3053           52141                           DXCH     MPAC
002307: 00,3054           52146                           DXCH     MPAC       +5
002308: 00,3055           03077                           TC       UNITDV
002309: 00,3056           17373                           TCF      VROTATEX                              #  AND EXIT.
002310:


002312:                                                                                                  #           IF THE LENGTH OF THE ARGUMENT VECTOR WAS LESS THAN 2(-28), EACH COMPONENT MUST BE SHIFTED LEFT AT LEAST
002313:                                                                                                  #  14 PLACES BEFORE THE DIVIDE. NOTE THAT IN THIS CASE, THE MAJOR PART OF EACH COMPONENT IS ZERO.
002314:
002315: 00,3057           54121        SMALL              TS       MPTEMP                                #  NEGATIVE OF PRE-DIVIDE SHIFT COUNT.
002316:
002317: 00,3060           37665                           CAF      ZERO                                  #  SHIFT EACH COMPONENT LEFT 14.
002318: 00,3061           56107                           XCH      VBUF       +1
002319: 00,3062           56106                           XCH      VBUF
002320: 00,3063           56111                           XCH      VBUF       +3
002321: 00,3064           56110                           XCH      VBUF       +2
002322: 00,3065           56113                           XCH      VBUF       +5
002323: 00,3066           56112                           XCH      VBUF       +4
002324:
002325: 00,3067           40121                           CS       MPTEMP
002326: 00,3070           50000                           INDEX    A
002327: 00,3071           37642                           CAF      BIT14
002328: 00,3072           00006                           EXTEND
002329: 00,3073           70140                           MP       MPAC
002330: 00,3074           13006                           TCF      SMALL2
002331:
002332: 00,3075           00015        THIRTEEN           DEC      13         B-14
002333: 00,3076           00016        FOURTEEN           DEC      14         B-14
002334:


002336:                                                                                                  #           THE FOLLOWING ROUTINE SETS UP THE CALL TO THE DIVIDE ROUTINES.
002337:
002338: 00,3077           10140        UNITDV             CCS      MPAC                                  #  FORCE MPAC POSITIVE IF POSSIBLE, SETTING
002339: 00,3100           13116                           TCF      UMPAC+                                #  DVSIGN ACCORDING TO THE SIGN OF MPAC
002340: 00,3101           13103                           TCF      +2                                    #  SINCE THE DIVISOR IS ALWAYS POSITIVE
002341: 00,3102           13110                           TCF      UMPAC-                                #  HERE.
002342:
002343: 00,3103           10141                           CCS      MPAC       +1
002344: 00,3104           13116                           TCF      UMPAC+
002345: 00,3105           00002                           TC       Q                                     #  EXIT IMMEDIATELY ON ZERO.
002346: 00,3106           13110                           TCF      UMPAC-
002347: 00,3107           00002                           TC       Q
002348:
002349: 00,3110           47665        UMPAC-             CS       ZERO                                  #  IF NEGATIVE, SET -0 IN DVSIGN FOR FINAL
002350: 00,3111           54122                           TS       DVSIGN                                #  COMPLEMENT.
002351: 00,3112           00006                           EXTEND
002352: 00,3113           40141                           DCS      MPAC                                  #  PICK UP ABSOLUTE VALUE OF ARG AND JUMP.
002353: 00,3114           50121                           INDEX    MPTEMP
002354: 00,3115           12506                           TCF      MAXTEST    -1
002355:
002356: 00,3116           54122        UMPAC+             TS       DVSIGN                                #  SET DVSIGN FOR POSITIVE QUOTIENT.
002357: 00,3117           52141                           DXCH     MPAC
002358: 00,3120           50121                           INDEX    MPTEMP
002359: 00,3121           12506                           TCF      MAXTEST    -1
002360:


002362:                                                                                                  #           MISCELLANEOUS UNARY OPERATIONS.
002363:
002364: 00,3122           03227        DSQ                TC       DSQSUB                                #  SQUARE THE DP CONTENTS OF MPAC.
002365: 00,3123           16014                           TCF      DANZIG
002366:
002367: 00,3124           10147        ABVALABS           CCS      MODE                                  #  ABVAL OR ABS INSTRUCTION.
002368: 00,3125           13154                           TCF      ABS                                   #  DO ABS ON SCALAR.
002369: 00,3126           13154                           TCF      ABS
002370:
002371: 00,3127           03246        ABVAL              TC       VSQSUB                                #  DOT MPAC WITH ITSELF.
002372: 00,3130           22147                           LXCH     MODE                                  #  MODE IS NOW DP (L ZERO AFTER DAS).
002373:
002374: 00,3131           00006                           EXTEND                                         #  STORE SQUARE OF LENGTH IN WORK AREA.
002375: 00,3132           30141                           DCA      MPAC
002376: 00,3133           50104                           INDEX    FIXLOC
002377: 00,3134           52043                           DXCH     LVSQUARE
002378:
002379: 00,3135           03272        SQRT               TC       SQRTSUB                               #  TAKE THE SQUARE ROOT OF MPAC.
002380: 00,3136           10121                           CCS      MPTEMP                                #  RETURNED NORMALIZED SQUARE ROOT. SEE IF
002381: 00,3137           13141                           TCF      +2                                    #  ANY UN-NORMALIZATION REQUIRED AND EXIT
002382: 00,3140           16014                           TCF      DANZIG                                #  IF NOT.
002383:
002384: 00,3141           62273                           AD       NEG12                                 #  A RIGHT SHIFT OF MORE THAN 13 COULD BE
002385: 00,3142           00006                           EXTEND                                         #  REQUIRED IF INPUT WAS ZERO IN MPAC,+1.
002386: 00,3143           63147                           BZMF     SQRTSHFT                              #  GOES HERE IN MOST CASES.
002387: 00,3144           22007                           ZL                                             #  IF A LONG SHIFT IS REQUIRED, GO TO
002388: 00,3145           22102                           LXCH     ADDRWD                                #  GENERAL RIGHT SHIFT ROUTINES.
002389: 00,3146           12263                           TCF      GENSCR     +4                         #  ADDRWD WAS ZERO TO PREVENT ROUND.
002390:
002391: 00,3147           50121        SQRTSHFT           INDEX    MPTEMP                                #  SELECT SHIFTING BIT AND EXIT THROUGH
002392: 00,3150           37641                           CAF      BIT15                                 #  SHIFT ROUTINES.
002393: 00,3151           54121                           TS       MPTEMP
002394: 00,3152           37665                           CAF      ZERO                                  #  TO ZERO MPAC +2 IN THE PROCESS.
002395: 00,3153           12017                           TCF      MPACSHR    +3
002396:
002397: 00,3154           06711        ABS                TC       BRANCH                                #  TEST SIGN OF MPAC AND COMPLEMENT IF
002398: 00,3155           16014                           TCF      DANZIG
002399: 00,3156           16014                           TCF      DANZIG
002400: 00,3157           17616                           TCF      COMP
002401:


002403: 00,3160           47655        VDEF               CS       FOUR                                  #  VECTOR DEFINE - ESSENTIALLY TREATS
002404: 00,3161           26152                           ADS      PUSHLOC                               #  SCALAR IN MPAC AS X COMPONENT, PUSHES UP
002405: 00,3162           00006                           EXTEND                                         #  FOR Y AND THEN AGAIN FOR Z.
002406: 00,3163           50000                           INDEX    A
002407: 00,3164           30003                           DCA      2
002408: 00,3165           52144                           DXCH     MPAC       +3
002409: 00,3166           00006                           EXTEND
002410: 00,3167           50152                           INDEX    PUSHLOC
002411: 00,3170           30001                           DCA      0
002412: 00,3171           52146                           DXCH     MPAC       +5
002413: 00,3172           47657                           CS       ONE                                   #  MODE IS NOW VECTOR.
002414: 00,3173           16013                           TCF      NEWMODE
002415:
002416: 00,3174           03246        VSQ                TC       VSQSUB                                #  DOT MPAC WITH ITSELF.
002417: 00,3175           37665                           CAF      ZERO
002418: 00,3176           16013                           TCF      NEWMODE                               #  MODE IS NOW DP.
002419:
002420: 00,3177           00006        PUSH               EXTEND                                         #  PUSH DOWN MPAC LEAVING IT LOADED.
002421: 00,3200           30141                           DCA      MPAC
002422: 00,3201           50152                           INDEX    PUSHLOC                               #  PUSH DOWN FIRST TWO REGISTERS IN EACH
002423: 00,3202           52001                           DXCH     0
002424:
002425: 00,3203           50147                           INDEX    MODE                                  #  INCREMENT PUSHDOWN POINTER.
002426: 00,3204           36164                           CAF      NO.WDS
002427: 00,3205           26152                           ADS      PUSHLOC
002428:
002429: 00,3206           10147                           CCS      MODE
002430: 00,3207           13222                           TCF      TPUSH                                 #  PUSH DOWN MPAC +2.
002431: 00,3210           16014                           TCF      DANZIG                                #  DONE FOR DP.
002432:
002433: 00,3211           00006                           EXTEND                                         #  ON VECTOR, PUSH DOWN Y AND Z COMPONENTS.
002434: 00,3212           30144                           DCA      MPAC       +3
002435: 00,3213           50152                           INDEX    PUSHLOC
002436: 00,3214           51775                           DXCH     0          -4
002437: 00,3215           00006                           EXTEND
002438: 00,3216           30146                           DCA      MPAC       +5
002439: 00,3217           50152                           INDEX    PUSHLOC
002440: 00,3220           51777                           DXCH     0          -2
002441: 00,3221           16014                           TCF      DANZIG
002442:
002443: 00,3222           30142        TPUSH              CA       MPAC       +2
002444: 00,3223           16560                           TCF      ENDTPUSH   +2
002445:
002446: 00,3224           50104        RVQ                INDEX    FIXLOC                                #  RVQ - RETURN IVA QPRET.
002447: 00,3225           30052                           CA       QPRET
002448: 00,3226           16652                           TCF      GOTO       +1
002449:


002451:                                                                                                  #           THE FOLLOWING SUBROUTINES ARE USED IN SQUARING MPAC, IN BOTH THE SCALAR AND VECTOR SENSE. THEY ARE
002452:                                                                                                  #  SPECIAL CASES OF DMPSUB AND DOTSUB, PUT IN TO SAVE SOME TIME.
002453:
002454: 00,3227           30141        DSQSUB             CA       MPAC       +1                         #  SQUARES THE SCALAR CONTENTS OF MPAC.
002455: 00,3230           00006                           EXTEND
002456: 00,3231           70000                           SQUARE
002457: 00,3232           54142                           TS       MPAC       +2
002458: 00,3233           37665                           CAF      ZERO                                  #  FORM 2(CROSS TERM).
002459: 00,3234           56141                           XCH      MPAC       +1
002460: 00,3235           00006                           EXTEND
002461: 00,3236           70140                           MP       MPAC
002462: 00,3237           20001                           DDOUBL                                         #  AND MAYBE OVERFLOW.
002463: 00,3240           20142                           DAS      MPAC       +1                         #  AND SET A TO NET OVERFLOW.
002464: 00,3241           56140                           XCH      MPAC
002465: 00,3242           00006                           EXTEND
002466: 00,3243           70000                           SQUARE
002467: 00,3244           20141                           DAS      MPAC
002468: 00,3245           00002                           TC       Q
002469:
002470: 00,3246           00006        VSQSUB             EXTEND                                         #  DOTS THE VECTOR IN MPAC WITH ITSELF.
002471: 00,3247           22123                           QXCH     DOTRET
002472: 00,3250           03227                           TC       DSQSUB                                #  SQUARE THE X COMPONENT.
002473: 00,3251           52144                           DXCH     MPAC       +3
002474: 00,3252           52141                           DXCH     MPAC
002475: 00,3253           52115                           DXCH     BUF                                   #  SO WE CAN END IN DOTSUB.
002476: 00,3254           30142                           CA       MPAC       +2
002477: 00,3255           54116                           TS       BUF        +2
002478:
002479: 00,3256           03227                           TC       DSQSUB                                #  SQUARE Y COMPONENT.
002480: 00,3257           52142                           DXCH     MPAC       +1
002481: 00,3260           20116                           DAS      BUF        +1
002482: 00,3261           60140                           AD       MPAC
002483: 00,3262           60114                           AD       BUF
002484: 00,3263           54114                           TS       BUF
002485: 00,3264           13266                           TCF      +2
002486: 00,3265           54105                           TS       OVFIND                                #  IF OVERFLOW.
002487:
002488: 00,3266           52146                           DXCH     MPAC       +5
002489: 00,3267           52141                           DXCH     MPAC
002490: 00,3270           03227                           TC       DSQSUB                                #  SQUARE Z COMPONENT.
002491: 00,3271           17165                           TCF      ENDDOT                                #  END AS IN DOTSUB.
002492:


002494:                                                                                                  #           DOUBLE PRECISION SQUARE ROOT ROUTINE. TAKE THE SQUARE ROOT OF THE TRIPLE PRECISION (MPAC +2 USED ONLY
002495:                                                                                                  #  IN NORMALIZATION) CONTENTS OF MPAC AND LEAVE THE NORMALIZED RESULT IN MPAC (C(MPAC) GREATER THAN OR EQUAL TO
002496:                                                                                                  #  .5).  THE RIGHT SHIFT COUNT (TO UNNORMALIZE) IS LEFT IN MPTEMP.
002497:
002498:
002499:
002500: 00,3272           37665        SQRTSUB            CAF      ZERO                                  #  START BY ZEROING RIGHT SHIFT COUNT.
002501: 00,3273           54121                           TS       MPTEMP
002502:
002503: 00,3274           10140                           CCS      MPAC                                  #  CHECK FOR POSITIVE ARGUMENT, SHIFTING
002504: 00,3275           13333                           TCF      SMPAC+                                #  FIRST SIGNIFICANT MPAC REGISTER INTO
002505: 00,3276           13300                           TCF      +2                                    #  MPAC ITSELF.
002506: 00,3277           13322                           TCF      SQRTNEG                               #  SEE IF MAG OF ARGUMENT LESS THAN 10(-4).
002507:
002508: 00,3300           56142                           XCH      MPAC       +2                         #  MPAC IS ZERO - SHIFT LEFT 14.
002509: 00,3301           56141                           XCH      MPAC       +1
002510: 00,3302           54140                           TS       MPAC
002511: 00,3303           37663                           CAF      SEVEN                                 #  AUGMENT RIGHT SHIFT COUNTER.
002512: 00,3304           54121                           TS       MPTEMP
002513:
002514: 00,3305           10140                           CCS      MPAC                                  #  SEE IF MPAC NOW PNZ.
002515: 00,3306           13333                           TCF      SMPAC+
002516: 00,3307           13311                           TCF      +2
002517: 00,3310           13325                           TCF      ZEROANS                               #  NEGATIVE BUT LESS THAN 10(-4) IN MAG.
002518:
002519: 00,3311           56141                           XCH      MPAC       +1                         #  ZERO - SHIFT LEFT 14 AGAIN.
002520: 00,3312           54140                           TS       MPAC
002521: 00,3313           37663                           CAF      SEVEN                                 #  AUGMENT RIGHT SHIFT COUNTER.
002522: 00,3314           26121                           ADS      MPTEMP
002523:
002524: 00,3315           10140                           CCS      MPAC
002525: 00,3316           13333                           TCF      SMPAC+
002526: 00,3317           00002                           TC       Q                                     #  SQRT(0) = 0.
002527: 00,3320           13325                           TCF      ZEROANS
002528: 00,3321           00002                           TC       Q
002529:
002530:
002531:
002532: 00,3322           10000        SQRTNEG            CCS      A                                     #  ARGUMENT IS NEGATIVE, BUT SEE IF SIGN-
002533: 00,3323           13331                           TCF      SQRTABRT                              #  CORRECTED ARGUMENT IS LESS THAN 10(-4)
002534:
002535: 00,3324           10141                           CCS      MPAC       +1                         #  IN MAGNITUDE. IF SO, CALL ANSWER ZERO.
002536: 00,3325           37665        ZEROANS            CAF      ZERO                                  #  FORCE ANSWER TO ZERO HERE.
002537: 00,3326           13401                           TCF      FIXROOT
002538: 00,3327           13331                           TCF      SQRTABRT
002539: 00,3330           13401                           TCF      FIXROOT
002540:
002541: 00,3331           05446        SQRTABRT           TC       ABORT
002542: 00,3332           01302                           OCT      1302
002543:


002545: 00,3333           62410        SMPAC+             AD       -1/2+2                                #  SEE IF ARGUMENT GREATER THAN OR EQUAL TO
002546: 00,3334           00006                           EXTEND                                         #  .5.
002547: 00,3335           63404                           BZMF     SRTEST                                #  IF SO, SEE IF LESS THAN .25.
002548:
002549: 00,3336           52141                           DXCH     MPAC                                  #  WE WILL TAKE THE SQUARE ROOT OF MPAC/2.
002550: 00,3337           22021                           LXCH     SR                                    #  SHIFT RIGHT 1 AND GO TO THE SQRT ROUTINE
002551: 00,3340           00006                           EXTEND
002552: 00,3341           77642                           MP       HALF
002553: 00,3342           52141                           DXCH     MPAC
002554: 00,3343           56021                           XCH      SR
002555: 00,3344           26141                           ADS      MPAC       +1                         #  GUARANTEED NO OVERFLOW.
002556:
002557: 00,3345           32274        ARGHI              CAF      SLOPEHI                               #  ARGUMENT BETWEEN .25 AND .5. GET A
002558: 00,3346           00006                           EXTEND                                         #  LINEAR APPROXIMATION FOR THIS RANGE.
002559: 00,3347           70140                           MP       MPAC
002560: 00,3350           62510                           AD       BIASHI                                #  X0/2 = (MPAC/2)(SLOPEHI) + BIASHI/2.
002561:
002562: 00,3351           54114                 +4        TS       BUF                                   #  X0/2 (ARGLO ENTERS HERE).
002563: 00,3352           30140                           CA       MPAC                                  #  SINGLE-PRECISION THROUGHOUT.
002564: 00,3353           22007                           ZL
002565: 00,3354           00006                           EXTEND
002566: 00,3355           10114                           DV       BUF                                   #  (MPAC/2)/(X0/2)
002567: 00,3356           00006                           EXTEND
002568: 00,3357           77642                           MP       HALF
002569: 00,3360           26114                           ADS      BUF                                   #  X1 = X0/2 + .5(MPAC/2)/(X0/2).
002570:
002571: 00,3361           00006                           EXTEND
002572: 00,3362           77642                           MP       HALF                                  #  FORM UP X1/2.
002573: 00,3363           52141                           DXCH     MPAC                                  #  SAVE AND BRING OUT ARGUMENT.
002574: 00,3364           00006                           EXTEND                                         #  TAKE DP QUOTIENT WITH X1.
002575: 00,3365           10114                           DV       BUF
002576: 00,3366           54115                           TS       BUF        +1                         #  SAVE MAJOR PART OF QUOTIENT.
002577: 00,3367           37665                           CAF      ZERO                                  #  FORM MINOR PART OF QUOTIENT USING
002578: 00,3370           56001                           XCH      L                                     #  (REMAINDER,0).
002579: 00,3371           00006                           EXTEND
002580: 00,3372           10114                           DV       BUF
002581: 00,3373           54001                           TS       L                                     #  IN PREPARATION FOR DAS.
002582: 00,3374           30115                           CA       BUF        +1
002583: 00,3375           20141                           DAS      MPAC                                  #  X2 = X1/2 + (MPAC/2)X1
002584:
002585: 00,3376           00006                           EXTEND                                         #  OVERFLOWS IF ARG. NEAR POSMAX.
002586: 00,3377           13403                           BZF      TCQBNK00
002587: 00,3400           37637                           CAF      POSMAX
002588: 00,3401           54140        FIXROOT            TS       MPAC
002589: 00,3402           54141                           TS       MPAC       +1
002590: 00,3403           00002        TCQBNK00           TC       Q                                     #  RETURN TO CALLER TO UNNORMALIZE, ETC.
002591:


002593: 00,3404           67643        SRTEST             AD       QUARTER                               #  ARGUMENT WAS LESS THAN .5, SEE IF LESS
002594: 00,3405           00006                           EXTEND                                         #  THAN .25.
002595: 00,3406           63430                           BZMF     SQRTNORM                              #  IF SO, BEGIN NORMALIZATION.
002596:
002597: 00,3407           52141                           DXCH     MPAC                                  #  IF BETWEEN .5 AND .25, SHIFT RIGHT 1 AND
002598: 00,3410           22021                           LXCH     SR                                    #  START AT ARGLO.
002599: 00,3411           00006                           EXTEND
002600: 00,3412           77642                           MP       HALF
002601: 00,3413           52141                           DXCH     MPAC
002602: 00,3414           56021                           XCH      SR
002603: 00,3415           26141                           ADS      MPAC       +1                         #  NO OVERFLOW.
002604:
002605: 00,3416           32740        ARGLO              CAF      SLOPELO                               #  (NORMALIZED) ARGUMENT BETWEEN .125 AND
002606: 00,3417           00006                           EXTEND                                         #  .25
002607: 00,3420           70140                           MP       MPAC
002608: 00,3421           62250                           AD       BIASLO
002609: 00,3422           13351                           TCF      ARGHI      +4                         #  BEGIN SQUARE ROOT.
002610:
002611: 00,3423           00006        SQRTNM2            EXTEND                                         #  SHIFT LEFT 2 AND INCREMENT RIGHT SHIFT
002612: 00,3424           30142                           DCA      MPAC       +1                         #  COUNT (FOR TERMINAL UNNORMALIZATION).
002613: 00,3425           20142                           DAS      MPAC       +1
002614: 00,3426           60140                           AD       MPAC
002615: 00,3427           26140                           ADS      MPAC                                  #  (NO OVERFLOW).
002616:
002617: 00,3430           24121        SQRTNORM           INCR     MPTEMP                                #  FIRST TIME THROUGH, JUST SHIFT LEFT 1
002618: 00,3431           00006                           EXTEND                                         #  (PUTS IN EFFECTIVE RIGHT SHIFT SINCE
002619: 00,3432           30142                           DCA      MPAC       +1                         #  WE WANT MPAC/2).
002620: 00,3433           20142                           DAS      MPAC       +1
002621: 00,3434           60140                           AD       MPAC
002622: 00,3435           26140                           ADS      MPAC                                  #  (AGAIN NO OVERFLOW).
002623: 00,3436           60000                           DOUBLE
002624: 00,3437           54022                           TS       CYL
002625:
002626: 00,3440           10022        NORMTEST           CCS      CYL                                   #  SEE IF ARGUMENT NOW NORMALIZED AT
002627: 00,3441           10022                           CCS      CYL                                   #  GREATER THAN .125.
002628: 00,3442           13423                           TCF      SQRTNM2                               #  NO - SHIFT LEFT 2 MORE AND TRY AGAIN.
002629: 00,3443           13345                           TCF      ARGHI                                 #  YES - NOW BETWEEN .5 AND .25.
002630: 00,3444           13416                           TCF      ARGLO                                 #  ARGUMENT NOW BETWEEN .25 AND .125.
002631:


002633:                                                                                                  #  TRIGONOMETRIC FUNCTION PACKAGE.
002634:
002635:                                                                                                  #           THE FOLLOWING TRIGONOMETRIC FUNCTIONS ARE AVAILABLE AS INTERPRETIVE OPERATIONS:
002636:
002637:                                                                                                  #           1.      SIN            COMPUTES (1/2)SINE(2 PI MPAC).
002638:                                                                                                  #           2.      COS            COMPUTES (1/2)COSINE(2 PI MPAC).
002639:
002640:                                                                                                  #           3.      ASIN           COMPUTES (1/2PI)ARCSINE(2 MPAC).
002641:                                                                                                  #           4.      ACOS           COMPUTES (1/2PI)ARCCOSINE(2 MPAC).
002642:
002643:                                                                                                  #  SIN-ASIN AND COS-ACOS ARE MUTUALLY INVERSE, IE SIN(ASIN(X)) = X.
002644:
002645: 00,3445           06711        COSINE             TC       BRANCH                                #  FINDS COSINE USING THE IDENTITY
002646: 00,3446           13451                           TCF      +3                                    #  COS(X) = SIN(PI/2 - ABS(X)).
002647: 00,3447           13454                           TCF      PRESINE
002648: 00,3450           13454                           TCF      PRESINE
002649:
002650: 00,3451           00006                 +3        EXTEND
002651: 00,3452           40141                           DCS      MPAC
002652: 00,3453           52141                           DXCH     MPAC
002653:
002654: 00,3454           37643        PRESINE            CAF      QUARTER                               #  PI/2 SCALED.
002655: 00,3455           26140                           ADS      MPAC
002656:
002657:
002658:
002659: 00,3456           52141        SINE               DXCH     MPAC                                  #  DOUBLE ARGUMENT.
002660: 00,3457           20001                           DDOUBL
002661: 00,3460           54000                           OVSK                                           #  SEE IF OVERFLOW PRESENT.
002662: 00,3461           13464                           TCF      +3                                    #  IF NOT, ARGUMENT OK AS IS.
002663:
002664: 00,3462           00006                           EXTEND                                         #  IF SO, WE LOST (OR GAINED) PI, SO
002665: 00,3463           40001                           DCOM                                           #  COMPLEMENT MPAC USING THE IDENTITY
002666:                                                                                                  #  SIN(X-(+)PI) = SIN(-X).
002667: 00,3464           52141                 +3        DXCH     MPAC
002668: 00,3465           30140                           CA       MPAC                                  #  SEE IF ARGUMENT GREATER THAN .5 IN
002669: 00,3466           60000                           DOUBLE                                         #  MAGNITUDE. IF SO, REDUCE IT TO LESS THAN
002670: 00,3467           54001                           TS       L                                     #  .5 (+-PI/2 SCALED) AS FOLLOWS:
002671: 00,3470           13501                           TCF      SN1
002672:
002673: 00,3471           50000                           INDEX    A                                     #  IF POSITIVE, FORM PI - X, IF NEGATIVE
002674: 00,3472           37641                           CAF      NEG1/2     +1                         #  USE -PI - X.
002675: 00,3473           60000                           DOUBLE
002676: 00,3474           00006                           EXTEND
002677: 00,3475           60140                           SU       MPAC                                  #  GUARANTEED NO OVERFLOW.
002678: 00,3476           54140                           TS       MPAC
002679: 00,3477           40141                           CS       MPAC       +1
002680: 00,3500           54141                           TS       MPAC       +1
002681:


002683: 00,3501           00006        SN1                EXTEND                                         #  SET UP TO EVALUATE HASTINGS POLYNOMIAL
002684: 00,3502           30141                           DCA      MPAC
002685: 00,3503           52120                           DXCH     BUF2
002686: 00,3504           03227                           TC       DSQSUB                                #  SQUARE MPAC.
002687:
002688: 00,3505           07202                           TC       POLY                                  #  EVALUATE FOURTH ORDER POLYNOMIAL.
002689: 00,3506           00003                           DEC      3          B-14
002690: 00,3507           14441 37325                     2DEC     +.3926990796
002691:
002692: 00,3511           53250 60764                     2DEC     -.6459637111
002693:
002694: 00,3513           12146 21276                     2DEC     +.318758717
002695:
002696: 00,3515           75466 71471                     2DEC     -.074780249
002697:
002698: 00,3517           00236 32757                     2DEC     +.009694988
002699:
002700: 00,3521           32434                           CAF      LBUF2                                 #  MULTIPLY BY ARGUMENT AND SHIFT LEFT 2.
002701: 00,3522           07066                           TC       DMPSUB     -1
002702:
002703: 00,3523           00006                           EXTEND
002704: 00,3524           30142                           DCA      MPAC       +1
002705: 00,3525           20142                           DAS      MPAC       +1
002706: 00,3526           60140                           AD       MPAC
002707: 00,3527           26140                           ADS      MPAC                                  #  NEITHER SHIFT OVERFLOWS.
002708: 00,3530           00006                           EXTEND
002709: 00,3531           30142                           DCA      MPAC       +1
002710: 00,3532           20142                           DAS      MPAC       +1
002711: 00,3533           60140                           AD       MPAC
002712: 00,3534           26140                           ADS      MPAC
002713: 00,3535           16014                           TCF      DANZIG
002714:


002716:                                                                                                  #           ARCSIN/ARCCOS ROUTINE.
002717:
002718: 00,3536           33557        ARCSIN             CAF      LASINEX                               #  COMPUTE ARCSIN BY USING THE IDENTITY
002719: 00,3537           13541                           TCF      +2                                    #  ARCSIN(X) = PI/2 - ARCCOS(X).
002720:
002721: 00,3540           33641        ARCCOS             CAF      LDANZIG                               #  (EXITS IMMEDIATELY).
002722: 00,3541           54122                           TS       ESCAPE
002723: 00,3542           06711                           TC       BRANCH                                #  TEST SIGN OF INPUT.
002724: 00,3543           13553                           TCF      ACOSST                                #  START IMMEDIATELY IF POSITIVE.
002725: 00,3544           13655                           TCF      ACOSZERO                              #  ARCCOS(0) = PI/2 = .25.
002726: 00,3545           00006                           EXTEND                                         #  IF NEGATIVE, USE THE IDENTITY
002727: 00,3546           40141                           DCS      MPAC                                  #  ARCCOS(X) = PI - ARCCOS(-X), FORCING
002728: 00,3547           52141                           DXCH     MPAC                                  #  ARGUMENT POSITIVE.
002729: 00,3550           32247                           CAF      TCSUBTR                               #  SET EXIT TO DO ABOVE BEFORE
002730: 00,3551           56122                           XCH      ESCAPE                                #  ARCSIN/ARCCOS CONSIDERATIONS.
002731: 00,3552           54123                           TS       ESCAPE2
002732:
002733: 00,3553           47642        ACOSST             CS       HALF                                  #  TEST MAGNITUDE OF INPUT.
002734: 00,3554           60140                           AD       MPAC
002735: 00,3555           10000                           CCS      A
002736: 00,3556           13647                           TCF      ACOSOVF                               #  THIS IS PROBABLY AN OVERFLOW CASE.
002737:
002738: 00,3557           13635        LASINEX            TCF      ASINEX
002739:
002740: 00,3560           13570                           TCF      ACOSST2                               #  NO OVERFLOW - PROCEED.
002741:
002742: 00,3561           10141                           CCS      MPAC       +1                         #  IF MAJOR PART IS .5, CALL ANSWER 0
002743: 00,3562           37665                           CAF      ZERO                                  #  UNLESS MINOR PART NEGATIVE.
002744: 00,3563           13565                           TCF      ACOS=0
002745:
002746: 00,3564           13570                           TCF      ACOSST2
002747:
002748: 00,3565           54141        ACOS=0             TS       MPAC       +1
002749: 00,3566           54140                           TS       MPAC
002750: 00,3567           00122                           TC       ESCAPE
002751:
002752: 00,3570           00006        ACOSST2            EXTEND                                         #  NOW THAT ARGUMENT IS IN PROPER RANGE,
002753: 00,3571           40141                           DCS      MPAC                                  #  BEGIN COMPUTATION. USE HASTINGS
002754: 00,3572           67642                           AD       HALF                                  #  APPROXIMATION ARCCOS(X) = SQRT(1-X)P(X)
002755: 00,3573           52141                           DXCH     MPAC                                  #  IN A SCALED VERSION WHERE P(X) IS A
002756: 00,3574           52120                           DXCH     BUF2                                  #  SEVENTH ORDER POLYNOMIAL.
002757:
002758: 00,3575           03272                           TC       SQRTSUB                               #  RETURNS WITH NORMALIZED SQUARE ROOT.
002759:
002760: 00,3576           10121                           CCS      MPTEMP                                #  SEE IF UN-NORMALIZATION REQUIRED.
002761: 00,3577           13642                           TCF      ACOSSHR                               #  IF SO.
002762:


002764: 00,3600           52141        ACOS3              DXCH     MPAC                                  #  SET UP FOR POLYNOMIAL EVALUATION.
002765: 00,3601           52120                           DXCH     BUF2
002766: 00,3602           52141                           DXCH     MPAC
002767:
002768: 00,3603           07202                           TC       POLY
002769: 00,3604           00006                           DEC      6          B-14
002770: 00,3605           13240 23630                     2DEC     +.353553385                            #  COEFFICIENTS ARE C 2(+I)/PISQRT(2) WHERE
002771:
002772: 00,3607           74721 47775                     2DEC*    -.0483017006 B+1*                       #                  I
002773:
002774: 00,3611           02440 20237                     2DEC*    +.0200273085 B+2*                       #       WHERE C STANDS FOR ORIGINAL COEFFS.
002775:
002776: 00,3613           75067 70742                     2DEC*    -.0112931863 B+3*
002777:
002778: 00,3615           03436 26756                     2DEC*    +.00695311612 B+4*
002779:
002780: 00,3617           74037 57640                     2DEC*    -.00384617957 B+5*
002781:
002782: 00,3621           03046 07143                     2DEC*    +.001501297736 B+6*
002783:
002784: 00,3623           76654 42244                     2DEC*    -.000284160334 B+7*
002785:
002786: 00,3625           32434                           CAF      LBUF2                                 #  DO FINAL MULTIPLY AND GO TO ANY
002787: 00,3626           07066                           TC       DMPSUB     -1                         #  EPILOGUE SEQUENCES.
002788: 00,3627           00122                           TC       ESCAPE
002789:
002790: 00,3630           00006        SUBTR              EXTEND                                         #  EPILOGUE FOR NEGATIVE INPUTS TO ARCCOS.
002791: 00,3631           40141                           DCS      MPAC
002792: 00,3632           67642                           AD       HALF                                  #  FORMS PI - ARCCOS(-X) = ARCCOS(X).
002793: 00,3633           52141                           DXCH     MPAC
002794: 00,3634           00123                           TC       ESCAPE2                               #  GO TO POSSIBLE ARCSIN EPILOGUE.
002795:
002796: 00,3635           00006        ASINEX             EXTEND
002797: 00,3636           40141                           DCS      MPAC                                  #  ARCSIN EPILOGUE - GET ARCSIN(X)
002798: 00,3637           67643                           AD       QUARTER                               #  = PI/2 - ARCCOS(X).
002799: 00,3640           52141                           DXCH     MPAC
002800: 00,3641           16014        LDANZIG            TCF      DANZIG
002801:


002803: 00,3642           50000        ACOSSHR            INDEX    A                                     #  THE SHIFT RIGHT IS LESS THAN 14 SINCE
002804: 00,3643           37642                           CAF      BIT14                                 #  THE INPUT WAS NON-ZERO DP.
002805: 00,3644           54121                           TS       MPTEMP
002806: 00,3645           02054                           TC       VSHRRND                               #  DP SHIFT RIGHT AND ROUND.
002807: 00,3646           13600                           TCF      ACOS3                                 #  PROCEED.
002808:
002809: 00,3647           10000        ACOSOVF            CCS      A                                     #  IF MAJOR PART WAS ONLY 1 MORE THAN .5,
002810: 00,3650           13652                           TCF      +2                                    #  CALL ANSWER 0.
002811: 00,3651           13565                           TCF      ACOS=0
002812: 00,3652           13565                           TCF      ACOS=0
002813:
002814: 00,3653           05446        ACOSABRT           TC       ABORT
002815: 00,3654           01301                           OCT      1301
002816:
002817: 00,3655           37643        ACOSZERO           CAF      QUARTER                               #  ACOS(0) = PI/2.
002818: 00,3656           13566                           TCF      ACOS=0     +1                         #  SET MPAC AND EXIT VIA ESCAPE.
002819:
002820: 00,3657                        ENDINTS0           EQUALS
002821:


002823:                                                                                                  #           THE FOLLOWING INSTRUCTIONS ARE AVAILABLE FOR SETTING, MODIFYING, AND BRANCHING ON INDEX REGISTERS:
002824:                                                                                                  #           1.  AXT                ADDRESS TO INDEX TRUE.
002825:                                                                                                  #           1.  AXC                ADDRESS TO INDEX COMPLEMENTED.
002826:                                                                                                  #           3.  LXA                LOAD INDEX FROM ERASABLE.
002827:                                                                                                  #           4.  LXC                LOAD INDEX COMPLEMENTED FROM ERASABLE.
002828:                                                                                                  #           5.  SXA                STORE INDEX IN ERASABLE.
002829:                                                                                                  #           6.  XCHX               EXCHANGE INDEX REIGSTER WITH ERASABLE.
002830:
002831:                                                                                                  #           7.  INCR               INCREMENT INDEX REGISTER.
002832:                                                                                                  #           8.  XAD                ERASABLE ADD TO INDEX REGISTER.
002833:                                                                                                  #           9.  XSU                ERASABLE SUBTRACT FROM INDEX REGISTER.
002834:
002835:                                                                                                  #          10.  TIX                BRANCH ON INDEX REGISTER AND DECREMENT.
002836:
002837:
002838:
002839: 01,2000                                           SETLOC   12000                                 #  SUFFIX CLASS 01 IS IN BANK 1.
002840:
002841: 01,2000           02061        AXT                TC       TAGSUB                                #  SELECT APPROPRIATE INDEX REGISTER.
002842: 01,2001           30103                           CA       POLISH
002843: 01,2002           50114        XSTORE             INDEX    INDEXLOC                              #  CONTAINS C(FIXLOC) OR C(FIXLOC)+1.
002844: 01,2003           54046                           TS       X1
002845: 01,2004           16014                           TCF      DANZIG
002846:
002847: 01,2005           02061        AXC                TC       TAGSUB
002848: 01,2006           40103                           CS       POLISH
002849: 01,2007           02002                           TC       XSTORE
002850:
002851: 01,2010           02061        LXA                TC       TAGSUB                                #  LOAD INDEX FROM ERASABLE.
002852: 01,2011           50102                           INDEX    ADDRWD
002853: 01,2012           30000                           CA       0
002854: 01,2013           12002                           TCF      XSTORE
002855:
002856: 01,2014           02061        LXC                TC       TAGSUB                                #  LOAD INDEX FROM ERASABLE COMPLEMENTED.
002857: 01,2015           50102                           INDEX    ADDRWD
002858: 01,2016           40000                           CS       0
002859: 01,2017           12002                           TCF      XSTORE
002860:
002861: 01,2020           02061        SXA                TC       TAGSUB                                #  STORE INDEX IN ERASABLE.
002862: 01,2021           50114                           INDEX    INDEXLOC
002863: 01,2022           30046                           CA       X1
002864: 01,2023           16627                           TCF      STORE1                                # (STORE SINGLE PRECISION BEFORE EXIT).
002865:
002866: 01,2024           02061        XCHX               TC       TAGSUB                                #  EXCHANGE INDEX REGISTER WITH ERASABLE.
002867: 01,2025           50102                           INDEX    ADDRWD
002868: 01,2026           30000                           CA       0
002869: 01,2027           50114                           INDEX    INDEXLOC
002870: 01,2030           56046                           XCH      X1
002871: 01,2031           16627                           TCF      STORE1
002872:


002874: 01,2032           02061        XAD                TC       TAGSUB                                #  ERASABLE ADD TO INDEX.
002875: 01,2033           50102                           INDEX    ADDRWD
002876: 01,2034           30000                           CA       0
002877: 01,2035           50114        XAD2               INDEX    INDEXLOC
002878: 01,2036           26046                           ADS      X1                                    #  IGNORING OVERFLOWS.
002879: 01,2037           16014                           TCF      DANZIG
002880:
002881: 01,2040           02061        INCR               TC       TAGSUB                                #  INCREMENT INDEX REGISTER.
002882: 01,2041           30103                           CA       POLISH
002883: 01,2042           12035                           TCF      XAD2
002884:
002885: 01,2043           02061        XSU                TC       TAGSUB                                #  ERASABLE SUBTRACT FROM INDEX.
002886: 01,2044           50102                           INDEX    ADDRWD
002887: 01,2045           40000                           CS       0
002888: 01,2046           12035                           TCF      XAD2
002889:
002890:
002891:
002892: 01,2047           02061        TIX                TC       TAGSUB                                #  BRANCH AND DECREMENT ON INDEX.
002893: 01,2050           50114                           INDEX    INDEXLOC
002894: 01,2051           40050                           CS       S1
002895: 01,2052           50114                           INDEX    INDEXLOC
002896: 01,2053           60046                           AD       X1
002897: 01,2054           00006                           EXTEND                                         #  NO OPERATION IF DECREMENTED INDEX IS
002898: 01,2055           66014                           BZMF     DANZIG                                #  NEGATIVE OR ZERO.
002899:
002900: 01,2056           50114        DOTIXBR            INDEX    INDEXLOC
002901: 01,2057           56046                           XCH      X1                                    #  IGNORING OVERFLOWS.
002902:
002903: 01,2060           16651                           TCF      GOTO                                  #  DO THE BRANCH USING THE CADR IN POLISH.
002904:
002905:
002906:
002907:                                                                                                  #           SUBROUTINE WHICH SETS THE ADDRESS OF THE SPECIFIED INDEX IN INDEXLOC. (ACTUALLY, THE ADDRESS -38D.)
002908:
002909: 01,2061           30104        TAGSUB             CA       FIXLOC
002910: 01,2062           54114                           TS       INDEXLOC
002911:
002912: 01,2063           10020                           CCS      CYR                                   #  BIT 15 SPECIFIES INDEX.
002913: 01,2064           24114                           INCR     INDEXLOC                              #  0 MEANS USE X2.
002914: 01,2065           00002                           TC       Q
002915: 01,2066           00002                           TC       Q                                     #  1 FOR X1.
002916:


002918:                                                                                                  #           MISCELLANEOUS OPERATION CODES WITH DIRECT ADDRESSES. INCLUDED HERE ARE:
002919:
002920:                                                                                                  #           1.  ITA                STORE QPRET (RETURN ADDRESS) IN ERASABLE.
002921:                                                                                                  #           2.  CALL               CALL A SUBROUTINE, LEAVING RETURN IN QPRET.
002922:                                                                                                  #           3.  RTB                RETURN TO BASIC LANGUAGE AT THE GIVEN ADDRESS.
002923:                                                                                                  #           4.  BHIZ               BRANCH IF THE HIGH ORDER OF MPAC IS ZERO (SINGLE PRECISION).
002924:                                                                                                  #           5.  BOV                BRANCH ON OVERFLOW.
002925:                                                                                                  #           6.  GOTO               SIMPLE SEQUENCE CHANGE.
002926:
002927: 01,2067           10020        RTB/BHIZ           CCS      CYR
002928: 01,2070           30103        RTB                CA       POLISH
002929: 01,2071           14105                           TCF      BANKJUMP                              #  CALL BASIC ROUTINE.


002933:
002934: 01,2072           10140        BHIZ               CCS      MPAC


002936: 01,2073           16014                           TCF      DANZIG


002939: 01,2074           16651                           TCF      GOTO
002940: 01,2075           16014                           TCF      DANZIG
002941: 01,2076           16651                           TCF      GOTO
002942:
002943: 01,2077           10105        BOV(B)             CCS      OVFIND                                #  BRANCH ON OVERFLOW TO BASIC OR INTERP.
002944: 01,2100           12102                           TCF      +2
002945: 01,2101           16014                           TCF      DANZIG
002946: 01,2102           54105                           TS       OVFIND
002947: 01,2103           10020                           CCS      CYR
002948: 01,2104           12070                           TCF      RTB                                   #  IF BASIC.
002949: 01,2105           00360        B5TOB8             OCT      360
002950: 01,2106           16651                           TCF      GOTO
002951:


002953: 01,2107           10020        BZE/GOTO           CCS      CYR                                   #  SEE WHICH OP-CODE IS DESIRED.
002954: 01,2110           06711                           TC       BRANCH                                #  DO BZE.
002955: 01,2111           16014                           TCF      DANZIG
002956: 01,2112           16651                           TCF      GOTO                                  #  DO GOTO.
002957: 01,2113           16014                           TCF      DANZIG
002958:
002959: 01,2114           10020        BPL/BMN            CCS      CYR
002960: 01,2115           12123                           TCF      BPL
002961: 01,2116           12000        5B10               DEC      5          B+10                       #  SHIFTS OP CODE IN SWITCH INSTRUCTION ADR
002962:
002963: 01,2117           06711                           TC       BRANCH                                #  DO BMN.
002964: 01,2120           16014                           TCF      DANZIG
002965: 01,2121           16014                           TCF      DANZIG
002966: 01,2122           16651                           TCF      GOTO                                  #  ONLY IF NNZ.
002967:
002968: 01,2123           06711        BPL                TC       BRANCH
002969: 01,2124           16651                           TCF      GOTO                                  #  IF POSITIVE OR ZERO.
002970: 01,2125           16651                           TCF      GOTO
002971: 01,2126           16014                           TCF      DANZIG
002972:
002973: 01,2127           10020        CALL/ITA           CCS      CYR
002974: 01,2130           16644                           TCF      CALL
002975:
002976: 01,2131           05464                           TC       CCSHOLE
002977: 01,2132           50104                           INDEX    FIXLOC                                #  STORE QPRET.
002978: 01,2133           30052                           CA       QPRET
002979: 01,2134           16627                           TCF      STORE1
002980:


002982:                                                                                                  #           THE FOLLOWING OPERATIONS ARE AVAILABLE FOR ALTERING AND TESTING INTERPRETIVE SWITCHES:
002983:
002984:                                                                                                  #  00       BONSET                 SET A SWITCH AND DO A GOTO IF IT WAS ON.
002985:                                                                                                  #  01       SETGO                  SET A SWITCH AND DO A GOTO.
002986:                                                                                                  #  02       BOFSET                 SET A SWITCH AND DO A GOTO IF IT WAS OFF
002987:                                                                                                  #  03       SET                    SET A SWITCH.
002988:
002989:                                                                                                  #  04       BONINV                 INVERT A SWITCH AND BRANCH IF IT WAS ON.
002990:                                                                                                  #  05       INVGO                  INVERT A SWITCH AND DO A GOTO.
002991:                                                                                                  #  06       BOFINV                 INVERT A SWITCH AND BRANCH IF IT WAS OFF
002992:                                                                                                  #  07       INVERT                 INVERT A SWITCH.
002993:
002994:                                                                                                  #  10       BONCLR                 CLEAR A SWITCH AND BRANCH IF IT WAS ON.
002995:                                                                                                  #  11       CLRGO                  CLEAR A SWITCH AND DO A GOTO.
002996:                                                                                                  #  12       BOFCLR                 CLEAR A SWITCH AND BRANCH IF IT WAS OFF.
002997:                                                                                                  #  13       CLEAR                  CLEAR A SWITCH.
002998:
002999:                                                                                                  #  14       BON                    BRANCH IF A SWITCH WAS ON.
003000:                                                                                                  #  16       BOFF                   BRANCH IF A SWITCH WAS OFF.
003001:
003002:
003003:
003004:                                                                                                  #           THE ADDRESS SUPPLIED WITH THE SWITCH INSTRUCTION IS INTERPRETED AS FOLLOWS:
003005:
003006:                                                                                                  #           BITS 1-4    SWITCH BIT NUMBER (1-15).
003007:                                                                                                  #           BITS 5-8    SWITCH OPERATION NUMBER.
003008:                                                                                                  #           BITS 9-     SWITCH WORD NUMBER (UP TO 64 SWITCH WORDS).
003009:
003010:                                                                                                  #           THE ADDRESS ITSELF IS MADE UP BY THE YUL SYSTEM ASSEMBLER. THE BRANCH INSTRUCTIONS REQUIRE TWO
003011:                                                                                                  #  ADDRESSES, THE SECOND TAKEN AS THE DIRECT (OR INDIRECT IF IN ERASABLE) ADDRESS OF THE BRANCH.
003012:
003013:
003014:
003015: 01,2135           37673        SWITCHES           CAF      LOW4                                  #  LEAVE THE SWITCH BIT IN SWBIT  .
003016: 01,2136           70103                           MASK     POLISH
003017: 01,2137           50000                           INDEX    A
003018: 01,2140           37641                           CAF      BIT15                                 #  (NUMBER FROM LEFT TO RIGHT.)
003019: 01,2141           54115                           TS       SWBIT
003020:
003021: 01,2142           37651                           CAF      BIT7                                  #  LEAVE THE SWITCH NUMBER IN SWWORD.
003022: 01,2143           00006                           EXTEND
003023: 01,2144           70103                           MP       POLISH
003024: 01,2145           54114                           TS       SWWORD
003025:
003026: 01,2146           00004                           INHINT                                         #  DURING SWITCH CHANGE SO RUPT CAN USE TOO
003027: 01,2147           50000                           INDEX    A                                     #  LEAVE THE SWITCH WORD ITSELF IN L.
003028: 01,2150           30061                           CA       STATE
003029: 01,2151           54002                           TS       Q                                     #  Q WILL BE USED AS A CHANNEL.
003030:
003031:


003033: 01,2152           37645                           CAF      BIT11
003034: 01,2153           00006                           EXTEND                                         #  DISPATCH SWITCH BIT OPERATION AS IN BITS
003035: 01,2154           70103                           MP       POLISH                                #  7-8 OF POLISH.
003036: 01,2155           72215                           MASK     B3TOB4                                #  GETS 4X2-BIT CODE.
003037: 01,2156           50000                           INDEX    A
003038: 01,2157           12160                           TCF      +1
003039:
003040: 01,2160           30115                 +1        CA       SWBIT                                 #  00 - SET SWITCH IN QUESTION.
003041: 01,2161           00006                           EXTEND
003042: 01,2162           04002                           ROR      Q
003043: 01,2163           12172                           TCF      SWSTORE
003044:
003045: 01,2164           30115                 +5        CA       SWBIT                                 #  01 - INVERT SWITCH.
003046: 01,2165           00006                           EXTEND
003047: 01,2166           06002                           RXOR     Q
003048: 01,2167           12172                           TCF      SWSTORE
003049:
003050: 01,2170           40115                 +9D       CS       SWBIT                                 #  10 - CLEAR.
003051: 01,2171           70002                           MASK     Q
003052: 01,2172           50114        SWSTORE            INDEX    SWWORD
003053: 01,2173           54061                           TS       STATE                                 #  NEW SWITCH WORD.
003054:


003056: 01,2174           00003                 +13D      RELINT                                         #  11 - NOOP.
003057: 01,2175           37643                           CAF      BIT13
003058: 01,2176           00006                           EXTEND                                         #  DISPATCH SEQUCE CHANGING OR BRANCHING
003059: 01,2177           70103                           MP       POLISH                                #  CODE.
003060: 01,2200           72215                           MASK     B3TOB4
003061: 01,2201           50000                           INDEX    A
003062: 01,2202           12203                           TCF      +1                                    #  ORIGINALLY STORED IN BITS 5-6.
003063:
003064: 01,2203           40002                 +1        CS       Q                                     #  00 - BRANCH IF ON.
003065: 01,2204           70115        TEST               MASK     SWBIT
003066: 01,2205           10000                           CCS      A
003067: 01,2206           12216                           TCF      SWSKIP
003068:
003069: 01,2207           16703                 +5        TCF      SWBRANCH                              #  01 - GO TO.
003070:
003071: 01,2210           12216                           TCF      SWSKIP                                #  HERE ONLY ON BIT 15.
003072:
003073: 01,2211           05464                           TC       CCSHOLE
003074: 01,2212           05464                           TC       CCSHOLE
003075:
003076: 01,2213           30002                 +9D       CA       Q                                     #  10 - BRANCH IF OFF.
003077: 01,2214           12204                           TCF      TEST
003078:
003079: 01,2215           00014        B3TOB4             OCT      14
003080: 01,2216           24150        SWSKIP             INCR     LOC
003081:
003082: 01,2217  01,2135               SW/                EQUALS   SWITCHES
003083:
003084: 01,2217           16014                 +13D      TCF      DANZIG                                #  11 - NOOP.
003085: 01,2220                        ENDINTS1           EQUALS

End of include-file LIST_PROCESSING_INTERPRETER.agc.  Parent file is MAIN.agc


