
Source Code


000002:                                                                                                  #  Copyright:    Public domain.
000003:                                                                                                  #  Filename:     LIST_PROCESSING_INTERPRETER.agc
000004:                                                                                                  #  Purpose:      Part of the source code for Aurora (revision 12).
000005:                                                                                                  #  Assembler:    yaYUL
000006:                                                                                                  #  Contact:      Hartmuth Gutsche <hgutsche@xplornet.com>.
000007:                                                                                                  #  Website:      https://www.ibiblio.org/apollo.
000008:                                                                                                  #  Pages:        34-122
000009:                                                                                                  #  Mod history:  2016-09-20 JL   Created.
000010:                                                                                                  #                2016-09-22 HG   Start trancription from scans using Luminary099\INTERPRETER.agc as base
000011:                                                                                                  #                2016-10-04 HG   Fix FBBANK -> FBANK
000012:                                                                                                  #                2016-10-12 HG   Fix operand MAPC +1  -> MPAC +1
000013:                                                                                                  #                2016-10-15 HG   fix label EIHGT -> EIGHT
000014:                                                                                                  #                                fix operand BIT14 -> BIT4
000015:                                                                                                  #                2016-10-16      fix label NEGO -> NEG0
000016:
000017:                                                                                                  #  This source code has been transcribed or otherwise adapted from
000018:                                                                                                  #  digitized images of a hardcopy from the private collection of
000019:                                                                                                  #  Don Eyles.  The digitization was performed by archive.org.
000020:
000021:                                                                                                  #  Notations on the hardcopy document read, in part:
000022:
000023:                                                                                                  #        473423A YUL SYSTEM FOR BLK2: REVISION 12 of PROGRAM AURORA BY DAP GROUP
000024:                                                                                                  #        NOV 10, 1966
000025:
000026:                                                                                                  #        [Note that this is the date the hardcopy was made, not the
000027:                                                                                                  #        date of the program revision or the assembly.]
000028:
000029:                                                                                                  #  The scan images (with suitable reduction in storage size and consequent
000030:                                                                                                  #  reduction in image quality) are available online at
000031:                                                                                                  #        https://www.ibiblio.org/apollo.
000032:                                                                                                  #  The original high-quality digital images are available at archive.org:
000033:                                                                                                  #        https://archive.org/details/aurora00dapg
000034:
000035:


000037:                                                                                                  #  SECTION 1:  DISPATCHER
000038:
000039:                                                                                                  #           ENTRY TO THE INTERPRETER. INTPRET SETS LOC TO THE FIRST INSTRUCTION, BANKSET TO THE FBANK OF THE
000040:                                                                                                  #  OBJECT INTERPRETIVE PROGRAM, AND INTBIT15 TO THE BIT15 CONTENTS OF FBANK. INTERPRETIVE PROGRAMS MAY BE IN
000041:                                                                                                  #  VIRTUALLY ALL BANKS PRESENT UNDER ANY SUPER-BANK SETTING, WITH THE RESTRICTION THAT PROGRAMS IN HIGH BANKS
000042:                                                                                                  #  (BIT15 OF FBANK = 1) DO NOT REFER TO LOWBANKS, AND VICE-VERSA. THE INTERPRETER DOES NOT SWITCH SUPER-BANK,
000043:                                                                                                  #  NOR DOES IT SWITCH EBANKS. MOST EBANK SWITCHING IS DONE BY THE EXECUTIVE PROGRAM.
000044:
000045:    6000                                           SETLOC   6000
000046:
000047:    6000           00006        INTPRET            EXTEND                                         #  SET LOC TO THE WORD FOLLOWING THE TC.
000048:    6001           22150                           QXCH     LOC
000049:
000050:    6002           30004                 +2        CA       FBANK                                 #  INTERPRETIVE BRANCHES FINISH HERE.
000051:    6003           54151                           TS       BANKSET
000052:    6004           77641                           MASK     BIT15                                 #  GET 15TH BIT FOR INDEXABLE ADDRESSES.
000053:    6005           54101                           TS       INTBIT15
000054:    6006           66426                           AD       LOW10                                 #  THIS VERSION IS USED IN PROCESSING
000055:    6007           54100                           TS       INTB15+                               #  INDEXABLE FIXED-BANK ADDRESSES.
000056:
000057:    6010           16023                           TCF      NEWOPS                                #  PICK UP OP CODE PAIR AND BEGIN.
000058:
000059:    6011           22006        INTRSM             LXCH     BBANK                                 #  RESUME SUSPENDED INTERPRETIVE JOB
000060:    6012           16003                           TCF      INTPRET    +3                         #  (ACTUALLY PART OF THE EXECUTIVE).
000061:


000063:                                                                                                  #        AT THE END OF MOST INSTRUCTIONS, CONTROL IS GIVEN TO DANZIG TO DISPATCH THE NEXT OPERATION.
000064:    6013           54147        NEWMODE            TS       MODE                                  #  PROLOGUE FOR MODE-CHANGING INSTRUCTIONS.
000065:
000066:    6014           30151        DANZIG             CA       BANKSET                               #  SET BBANK BEFORE TESTING NEWJOB SO THAT
000067:    6015           54004                           TS       FBANK                                 #  BBANK MAY BE SAVED DIRECTLY BY CHANJOB.
000068:
000069:    6016           10023        NOIBNKSW           CCS      EDOP                                  #  SEE IF AN ORDER CODE IS LEFT OVER FROM
000070:    6017           16032                           TCF      OPJUMP                                #  THE LAST PAIR RETRIEVED. IF SO, EXECUTE.
000071:                                                                                                  #  EDOP IS SET TO ZERO ON ITS RE-EDITIING.
000072:
000073:    6020           10067                           CCS      NEWJOB                                #  SEE IF A JOB OF HIGHER PRIORITY IS
000074:    6021           14412                           TCF      CHANG2                                #  PRESENT, AND IF SO, CHANGE JOBS.
000075:
000076:    6022           24150                           INCR     LOC                                   #  ADVANCE THE LOCATION COUNTER.
000077:    6023           50150        NEWOPS             INDEX    LOC                                   #  ENTRY TO BEGIN BY PICKING OP CODE PAIR.
000078:    6024           30000                           CA       0                                     #  MAY BE AN OPCODE PAIR OR A STORE CODE.
000079:    6025           10000                           CCS      A                                     #  TEST SIGN AND GET DABS(A).
000080:    6026           16342                           TCF      DOSTORE                               #  PROCESS STORE CODE.
000081:
000082:    6027           00177        LOW7               OCT      177
000083:
000084:    6030           54023                           TS       EDOP                                  #  OP CODE PAIR.  LEAVE THE OTHER IN EDOP
000085:    6031           76027                           MASK     LOW7                                  #  WHERE CCS EDOP WILL HONOR IT NEXT.
000086:
000087:    6032           54020        OPJUMP             TS       CYR                                   #  LOWWD ENTERS HERE IF A RIGHT-HAND OP
000088:    6033           10020                           CCS      CYR                                   #  CODE IS TO BE PROCESSED. TEST PREFICES.
000089:    6034           16167                           TCF      OPJUMP2                               #  TEST SECOND PREFIX BIT.
000090:
000091:    6035           16731                           TCF      EXIT                                  #  +0 OP CODE IS EXIT
000092:


000094:                                                                                                  #        PROCESS ADDRESSES WHICH MAY BE DIRECT, INDEXED, OR REFERENCE THE PUSHDOWN LIST.
000095:
000096:    6036           77657        ADDRESS            MASK     BIT1                                  #  SEE IF ADDRESS IS INDEXED.  CYR CONTAINED
000097:    6037           10000                           CCS      A                                     #  400XX, SO BIT 1 IS NOW AS IT WAS IN CYR.
000098:    6040           16073                           TCF      INDEX                                 #  FORM INDEXED ADDRESS.
000099:
000100:    6041           50150        DIRADRES           INDEX    LOC                                   #  LOOK AHEAD TO NEXT WORD TO SEE IF
000101:    6042           40001        OCT40001           CS       1                                     #  ADDRESS IS GIVEN.
000102:    6043           10000                           CCS      A
000103:    6044           16135                           TCF      PUSHUP                                #  IF NOT.
000104:
000105:    6045           77773        NEG4               DEC      -4         B-14
000106:
000107:    6046           24150                           INCR     LOC                                   #  IF SO, TO SHOW WE PICKED UP A WORD.
000108:    6047           54102                           TS       ADDRWD
000109:


000111:                                                                                                  #           FINAL DIGESTION OF DIRECT ADDRESSES OF OP CODES WITH 01 PREFIX IS DONE HERE. IN EACH CASE, THE
000112:                                                                                                  #  REQUIRED 12-BIT SUB-ADDRESS IS LEFT IN ADDRWD, WITH ANY REQUIRED BANK SWITCHING DONE (F ONLY). ADDRESSES LESS
000113:                                                                                                  #  THAN 45D ARE TAKEN TO BE RELATIVE TO THE WORK AREA. THE OP CODE IS NOW IN BITS 1-5 OF CYR WITH BIT 14 = 1.
000114:
000115:
000116:
000117:    6050           66171                           AD       -ENDVAC                               #  SEE IF ADDRESS RELATIVE TO WORK AREA.
000118:    6051           10000                           CCS      A
000119:    6052           66234                           AD       -ENDERAS                              #  IF NOT, SEE IF IN GENERAL ERASABLE.
000120:    6053           16060                           TCF      IERASTST
000121:
000122:    6054           30104        NETZERO            CA       FIXLOC                                #  IF SO, LEAVE THE MODIFIED ADDRESS IN
000123:    6055           26102                           ADS      ADDRWD                                #  ADDRWD AND DISPATCH.
000124:    6056           50020                 +2        INDEX    CYR                                   #  THIS INDEX MAKES THE NEXT INSTRUCTION
000125:    6057           76234                           7        INDJUMP    -1                         #  TCF INDJUMP + OP, EDITING CYR.
000126:
000127:    6060           00006        IERASTST           EXTEND
000128:    6061           66056                           BZMF     NETZERO    +2                         #  GENERAL ERASABLE - DISPATCH IMMEDIATELY
000129:
000130:    6062           60100        FIXEDADR           AD       INTB15+                               #  FIXED BANK ADDRESS. RESTORE AND ADD B15.
000131:    6063           54004                 +1        TS       FBANK                                 #  SWITCH BANKS AND LEAVE SUB-ADDRESS IN
000132:    6064           76426                           MASK     LOW10                                 #  ADDRWD FOR OPERAND RETRIEVAL.
000133:    6065           67645                           AD       2K
000134:    6066           54102                           TS       ADDRWD
000135:    6067           50020                           INDEX    CYR
000136:    6070           76234                           7        INDJUMP    -1
000137:


000139:                                                                                                  #           THE FOLLOWING ROUTINE PROCESSES INTERPRETIVE INDEXED ADDRESSES. AN INTERPRETER INDEX REGISTER MAY
000140:                                                                                                  #  CONTAIN THE ADDRESS OF ANY ERASABLE REGISTER (0-42 BEING RELATIVE TO THE VAC AREA) OR ANY INTERPRETIVE PROGRAM
000141:                                                                                                  #  BANK, OR ANY INTEGER IN THAT RANGE.
000142:
000143:    6071           37676        DODLOAD*           CAF      DLOAD*                                #  STODL* COMES HERE TO PROCESS LOAD ADR.
000144:    6072           54020                           TS       CYR                                   #  (STOVL* ENTERS HERE).
000145:
000146:    6073           30104        INDEX              CA       FIXLOC                                #  SET UP INDEX LOCATION.
000147:    6074           54114                           TS       INDEXLOC
000148:    6075           24150                           INCR     LOC                                   #  (ADDRESS ALWAYS GIVEN).
000149:    6076           50150                           INDEX    LOC
000150:    6077           40000                           CS       0
000151:    6100           10000                           CCS      A                                     #  INDEX 2 IF ADDRESS STORED COMPLEMENTED.
000152:    6101           24114                           INCR     INDEXLOC
000153:    6102           16103                           NOOP
000154:
000155:    6103           54102                           TS       ADDRWD                                #  14 BIT ADDRESS TO ADDRWD.
000156:    6104           76232                           MASK     BANKMASK                              #  IF ADDRESS GREATER THAN 1K, ADD INTBIT15
000157:    6105           00006                           EXTEND
000158:    6106           16111                           BZF      INDEX2
000159:    6107           30101                           CA       INTBIT15
000160:    6110           26102                           ADS      ADDRWD
000161:
000162:    6111           50114        INDEX2             INDEX    INDEXLOC
000163:    6112           40046                           CS       X1
000164:    6113           26102                           ADS      ADDRWD                                #  DO AUGMENT, IGNORING AND CORRECTING OVF.
000165:
000166:    6114           76231                           MASK     HIGH9                                 #  SEE IF ADDRESS IS IN WORK AREA.
000167:    6115           00006                           EXTEND
000168:    6116           16131                           BZF      INDWORK
000169:    6117           76232                           MASK     BANKMASK                              #  SEE IF IN FIXED BANK.
000170:    6120           00006                           EXTEND
000171:    6121           16133                           BZF      INDERASE
000172:
000173:    6122           30102                           CA       ADDRWD                                #  IN FIXED - SWITCH BANKS AND CREATE
000174:    6123           54004                           TS       FBANK                                 #  SUB-ADDRESS.
000175:    6124           76426                           MASK     LOW10
000176:    6125           67645                           AD       2K
000177:    6126           54102                           TS       ADDRWD
000178:    6127           50020                           INDEX    CYR
000179:    6130           36234                           3        INDJUMP    -1
000180:
000181:    6131           30104        INDWORK            CA       FIXLOC                                #  MAKE ADDRWD RELATIVE TO WORK AREA.
000182:    6132           26102                           ADS      ADDRWD
000183:
000184:    6133           50020        INDERASE           INDEX    CYR
000185:    6134           36234                           3        INDJUMP    -1
000186:


000188:                                                                                                  #           PUSH-UP ROUTINES. WHEN NO OPERAND ADDRESS IS GIVEN, THE APPROPRIATE OPERAND IS TAKEN FROM THE PUSH-DOWN
000189:                                                                                                  #  LIST. IN MOST CASES THE MODE OF THE RESULT (VECTOR OR SCALAR) OF THE LAST ARITHMETIC OPERATION PERFORMED
000190:                                                                                                  #  IS THE SAME AS THE TYPE OF OPERAND DESIRED (ALL ADD/SUBTRACT ETC.). EXCEPTIONS TO THIS GENERAL RULE ARE LISTED
000191:                                                                                                  #  BELOW (NOTE THAT IN EVERY CASE THE MODE REGISTER IS LEFT INTACT):
000192:
000193:                                                                                                  #           1.  VXSC AND V/SC WANT THE OPPOSITE TYPE OF OPERAND, E.G., IF THE LAST OPERATION YIELDED A VECTOR
000194:                                                                                                  #  RESULT, VXSC WANTS A SCALAR.
000195:
000196:                                                                                                  #           2.  THE LOAD CODES SHOULD LOAD THE ACCUMULATOR INDEPENDENT OF THE RESULT OF THE LAST OPERATION. THIS
000197:                                                                                                  #  INCLUDES VLOAD, DLOAD, TLOAD, PDDL, AND PDVL (NO PUSHUP WITH SLOAD).
000198:
000199:                                                                                                  #           3.  SOME ARITHMETIC OPERATIONS REQUIRE A STANDARD TYPE OF OPERAND REGARDLESS OF THE PREVIOUS OPERATION.
000200:                                                                                                  #  THIS INCLUDES SIGN WANTING DP AND TAD REQUIRING TP.
000201:
000202:    6135           36227        PUSHUP             CAF      OCT23                                 #  IF THE LOW 5 BITS OF CYR ARE LESS THAN
000203:    6136           70020                           MASK     CYR                                   #  20, THIS OP REQUIRES SPECIAL ATTENTION.
000204:    6137           66142                           AD       -OCT10                                #  (NO -0).
000205:    6140           10000                           CCS      A
000206:    6141           16153                           TCF      REGUP                                 #  FOR ALL CODES GREATEER THAN OCT 7.
000207:
000208:    6142           77767        -OCT10             OCT      -10
000209:
000210:    6143           66045                           AD       NEG4                                  #  WE NOW HAVE 7 - OP CODE (MOD4). SEE IF
000211:    6144           10000                           CCS      A                                     #  THE OP CODE (MOD4) IS THREE (REVERSE).
000212:    6145           50000                           INDEX    A                                     #  NO - THE MODE IS DEFINITE.  PICK UP THE
000213:    6146           46164                           CS       NO.WDS
000214:    6147           16155                           TCF      REGUP      +2
000215:
000216:    6150           50147                           INDEX    MODE                                  #  FOR VXSC AND V/SC WE WANT THE REQUIRED
000217:    6151           46162                           CS       REVCNT                                #  PUSHLOC DECREMENT WITHOUT CHANGING THE
000218:    6152           16155                           TCF      REGUP      +2                         #  MODE AT THIS TIME.
000219:
000220:    6153           50147        REGUP              INDEX    MODE                                  #  MOST ALL OP CODES PUSHUP HERE.
000221:    6154           46164                           CS       NO.WDS
000222:    6155           26152                 +2        ADS      PUSHLOC
000223:    6156           54102                           TS       ADDRWD
000224:    6157           50020                           INDEX    CYR
000225:    6160           76234                           7        INDJUMP    -1                         #  (THE INDEX MAKES THIS A TCF.)
000226:
000227:    6161           00002                           OCT      2                                     #  REVERSE PUSHUP DECREMENT. VECTOR TAKES 2
000228:    6162           00006        REVCNT             OCT      6                                     #  WORDS, SCALAR TAKES 6.
000229:    6163           00006                           OCT      6
000230:    6164           00002        NO.WDS             OCT      2                                     #  CONVENTIONAL DECREMENT IS 6 WORDS VECTOR
000231:    6165           00003                           OCT      3                                     #  2 IN DP, AND 3 IN TP.
000232:    6166           00006                           OCT      6
000233:


000235:                                                                                                  #           TEST THE SECOND PREFIX BIT TO SEE IF THIS IS A MISCELLANEOUS OR A UNARY/SHORT SHIFT OPERATION.
000236:
000237:    6167           10020        OPJUMP2            CCS      CYR                                   #  TEST SECOND PREFIX BIT.
000238:    6170           16217                           TCF      OPJUMP3                               #  TEST THIRD BIT TO SEE IF UNARY OR SHIFT
000239:
000240:    6171           77722        -ENDVAC            DEC      -45        B-14
000241:
000242:                                                                                                  #           THE FOLLOWING ROUTINE PROCESSES ADDRESSES OF SUFFIX CLASS 10. THEY ARE BASICALLY WORK AREA ADDRESSES
000243:                                                                                                  #  IN THE RANGE 0 - 52, ERASABLE ADRES CONSTANTS FROM 100 - 1777, AND FCADRS ABOVE THAT. ALL 15 BITS ARE AVAILABLE
000244:                                                                                                  #  IN CONTRAST TO SUFFIX 1, IN WHICH ONLY THE LOW ORDER 14 ARE AVAILABLE.
000245:
000246:    6172           24150        15BITADR           INCR     LOC                                   #  (ENTRY HERE FROM STCALL).
000247:    6173           50150                           INDEX    LOC                                   #  PICK UP ADDRESS WORD.
000248:    6174           30000                           CA       0
000249:    6175           54103                           TS       POLISH                                #  THE ABSOLUTE ADDRESS WILL BE LEFT IN
000250:    6176           54102                           TS       ADDRWD                                #  POLISH WITH AN EERASABLE SUBADDRESS IN
000251:                                                                                                  #  ADDRWD
000252:    6177           76231                           MASK     HIGH9                                 #  SEE IF RELATIVE TO WORK AREA
000253:    6200           10000                           CCS      A
000254:    6201           16203                           TCF      +2
000255:    6202           16210                           TCF      RELWORK                               #  ONLY IF ZERO
000256:
000257:    6203           36230                           CAF      LOW7+2K                               #  THESE INSTRUCTIONS ARE IN BANK 1.
000258:    6204           54004                           TS       FBANK
000259:    6205           70020                           MASK     CYR
000260:    6206           50000                           INDEX    A
000261:    6207           16275                           TCF      MISCJUMP
000262:
000263:    6210           30104        RELWORK            CA       FIXLOC                                #  MAKE ADDRWD RELATIVE TO FIXLOC, LEAVING
000264:    6211           26102                           ADS      ADDRWD                                #  POLISH ABSOLUTE IN CASE THIS WAS AN
000265:    6212           36230                           CAF      LOW7+2K                               #  AXT, ETC.
000266:    6213           54004                           TS       FBANK
000267:    6214           70020                           MASK     CYR
000268:    6215           50000                           INDEX    A
000269:    6216           16275                           TCF      MISCJUMP
000270:


000272:                                                                                                  #           COMPLETE THE DISPATCHING OF UNARY AND SHORT SHIFT OPERATIONS.
000273:
000274:    6217           54004        OPJUMP3            TS       FBANK                                 #  CALL IN BANK 0 (BITS 11-15 OF A ARE 0.)
000275:    6220           10020                           CCS      CYR                                   #  TEST THIRD PREFIX BIT.
000276:    6221           50000                           INDEX    A                                     #  THE DECREMENTED UNARY CODE IS IN BITS
000277:    6222           16315                           TCF      UNAJUMP                               #  1-4 OF A (ZERO, EXIT, HAS BEEN DETECTED)
000278:
000279:    6223           10147                           CCS      MODE                                  #  ITS A SHORT SHIFT CODE. SEE IF PRESENT
000280:    6224           12000                           TCF      SHORTT                                #  SCALAR OR VECTOR.
000281:    6225           12000                           TCF      SHORTT
000282:    6226           12102                           TCF      SHORTV                                #  CALLS THE APPROPRIATE ROUTINE.
000283:
000284:
000285:    6227           00023        OCT23              OCT      23                                    #  MASK USED BY PUSH-UP ROUTINE.
000286:    6230           02177        LOW7+2K            OCT      2177                                  #  OP CODE MASK + BANK 1 FBANK SETTING.
000287:    6231           77700        HIGH9              OCT      77700
000288:    6232           76000        BANKMASK           OCT      76000                                 #  FBANK MASK.
000289:    6233     6232               FBANKMSK           EQUALS   BANKMASK
000290:    6233           36000        B11T14             OCT      36000                                 #  USED IN PROCESSING STORE CODES.
000291:    6234           76056        -ENDERAS           DEC      -977       B-14
000292:


000294:                                                                                                  #           THE FOLLOWING IS THE JUMP TABLE FOR OP CODES WHICH MAY HAVE INDEXABLE ADDRESSES OR MAY PUSH UP.
000295:
000296:    6235           16511        INDJUMP            TCF      VLOAD                                 #  00 - LOAD MPAC WITH A VECTOR.
000297:    6236           17050                           TCF      TAD                                   #  01 - TRIPLE PRECISION ADD TO MPAC.
000298:    6237           17603                           TCF      SIGN                                  #  02 - COMPLEMENT MPAC (V OR SC) IF X NEG.
000299:    6240           17354                           TCF      VXSC                                  #  03 - VECTOR TIMES SCALAR.
000300:    6241           16672                           TCF      CGOTO                                 #  04 - COMPUTED GO TO.
000301:    6242           16474                           TCF      TLOAD                                 #  05 - LOAD MPAC WITH TRIPLE PRECISION.
000302:    6243           16465                           TCF      DLOAD                                 #  06 - LOAD MPAC WITH A DP SCALAR.
000303:    6244           17552                           TCF      V/SC                                  #  07 - VECTOR DIVIDED BY A SCALAR.
000304:
000305:    6245           16505                           TCF      SLOAD                                 #  10 - LOAD MPAC IN SINGLE PRECISION.
000306:    6246           16624                           TCF      SSP                                   #  11 - SET SINGLE PRECISION INTO X.
000307:    6247           16527                           TCF      PDDL                                  #  12 - PUSH DOWN MPAC AND RE-LOAD IN DP.
000308:    6250           17307                           TCF      MXV                                   #  13 - MATRIX POST-MULTIPLIED BY VECTOR.
000309:    6251           16563                           TCF      PDVL                                  #  14 - PUSH DOWN AND VECTOR LOAD.
000310:    6252           16632                           TCF      CCALL                                 #  15 - COMPUTED CALL.
000311:    6253           17312                           TCF      VXM                                   #  16 - MATRIX PRE-MULTIPLIED BY VECTOR.
000312:    6254           17544                           TCF      TSLC                                  #  17 - NORMALIZE MPAC (SCALAR ONLY).
000313:
000314:    6255           17522                           TCF      DMPR                                  #  20 - DP MULTIPLY AND ROUND.
000315:    6256           17525                           TCF      DDV                                   #  21 - DP DIVIDE BY.
000316:    6257           17531                           TCF      BDDV                                  #  22 - DP DIVIDE INTO.
000317:    6260           17547                           TCF      GSHIFT                                #  23 - GENERAL SHIFT INSTRUCTION
000318:    6261           16733                           TCF      VAD                                   #  24 - VECTOR ADD.
000319:    6262           16761                           TCF      VSU                                   #  25 - VECTOR SUBTRACT.
000320:    6263           17011                           TCF      BVSU                                  #  26 - VECTOR SUBTRACT FROM.
000321:    6264           17304                           TCF      DOT                                   #  27 - VECTOR DOT PRODUCT.
000322:
000323:    6265           17434                           TCF      VXV                                   #  30 - VECTOR CROSS PRODUCT.
000324:    6266           17400                           TCF      VPROJ                                 #  31 - VECTOR PROJECTION.
000325:    6267           16777                           TCF      DSU                                   #  32 - DP SUBTRACT.
000326:    6270           17035                           TCF      BDSU                                  #  33 - DP SUBTRACT FROM.
000327:    6271           16751                           TCF      DAD                                   #  34 - DP ADD.
000328:    6272           16272                           TCF      +0                                    #  35 - AVAILABLE
000329:    6273           17520                           TCF      DMP1                                  #  36 - DP MULTIPLY.
000330:    6274           17541                           TCF      SETPD                                 #  37 - SET PUSH DOWN POINTER (DIRECT ONLY)
000331:
000332:                                                                                                  #  CODES 10 AND 14 MUST NOT PUSH UP. CODE 04 MAY BE USED FOR VECTOR DECLARE BEFORE PUSHUP IF DESIRED.
000333:


000335:                                                                                                  #           THE FOLLOWING JUMP TABLE APPLIES TO INDEX, BRANCH, AND MISCELLANEOUS INSTRUCTIONS.
000336:
000337:    6275           12000        MISCJUMP           TCF      AXT                                   #  00 - ADDRESS TO INDEX TRUE.
000338:    6276           12005                           TCF      AXC                                   #  01 - ADDRESS TO INDEX COMPLEMENTED.
000339:    6277           12010                           TCF      LXA                                   #  02 - LOAD INDEX FROM ERASABLE.
000340:    6300           12014                           TCF      LXC                                   #  03 - LOAD INDEX FROM COMPLEMENT OF ERAS.
000341:    6301           12020                           TCF      SXA                                   #  04 - STORE INDEX IN ERASABLE.
000342:    6302           12024                           TCF      XCHX                                  #  05 - EXCHANGE INDEX WITH ERASABLE.
000343:    6303           12040                           TCF      INCR                                  #  06 - INCREMENT INDEX REGISTER.
000344:    6304           12047                           TCF      TIX                                   #  07 - TRANSFER ON INDEX.
000345:
000346:    6305           12032                           TCF      XAD                                   #  10 - INDEX REGISTER ADD FROM ERASABLE.
000347:    6306           12043                           TCF      XSU                                   #  11 - INDEX SUBTRACT FROM ERASABLE.
000348:    6307           12107                           TCF      BZE/GOTO                              #  12 - BRANCH ZERO AND GOTO
000349:    6310           12114                           TCF      BPL/BMN                               #  13 - BRANCH PLUS AND BRANCH MINUS.
000350:    6311           12127                           TCF      CALL/ITA                              #  14 - CALL AND STORE QPRET.
000351:    6312           12067                           TCF      RTB/BHIZ                              #  15 - RETURN TO BASIC AND BRANCH HI ZERO.
000352:    6313           12135                           TCF      SW/                                   #  16 - SWITCH INSTRUCTIONS AND AVAILABLE.
000353:    6314           12077                           TCF      BOV(B)                                #  17 - BRANCH ON OVERFLOW TO BASIC OR INT.
000354:


000356:                                                                                                  #           THE FOLLOWING JUMP TABLE APPLIES TO UNARY INSTRUCTIONS.
000357:
000358:                                                                                                  #  00 - EXIT -- DETECTED EARLIER.
000359:    6315           13135        UNAJUMP            TCF      SQRT                                  #  01 - SQUARE ROOT.
000360:    6316           13456                           TCF      SINE                                  #  02 - SIN.
000361:    6317           13445                           TCF      COSINE                                #  03 - COS.
000362:    6320           13536                           TCF      ARCSIN                                #  04 - ARC SIN.
000363:    6321           13540                           TCF      ARCCOS                                #  05 - ARC COS.
000364:    6322           13122                           TCF      DSQ                                   #  06 - DP SQUARE.
000365:    6323           12077                           TCF      ROUND                                 #  07 - ROUND TO DP.
000366:
000367:    6324           17616                           TCF      COMP                                  #  10 - COMPLEMENT VECTOR OR SCALAR
000368:    6325           13160                           TCF      VDEF                                  #  11 - VECTOR DEFINE.
000369:    6326           12750                           TCF      UNIT                                  #  12 - UNIT VECTOR.
000370:    6327           13124                           TCF      ABVALABS                              #  13 - LENGTH OF VECTOR OR MAG OF SCALAR.
000371:    6330           13174                           TCF      VSQ                                   #  14 - SQUARE OF LENGTH OF VECTOR.
000372:    6331           16334                           TCF      STADR                                 #  15 - PUSH UP ON STORE CODE.
000373:    6332           13224                           TCF      RVQ                                   #  16 - RETURN VIA QPRET.
000374:    6333           13177                           TCF      PUSH                                  #  17 - PUSH MPAC DOWN.
000375:


000377:                                                                                                  #  SECTION 2  LOAD AND STORE PACKAGE.
000378:
000379:                                                                                                  #           A SET OF SIXTEEN STORE CODES ARE PROVIDED AS THE PRIMARY METHOD OF STORING THE MULTI-PURPOSE
000380:                                                                                                  #  ACCUMULATOR (MPAC). IF IN THE DANZIG SECTION LOC REFERS TO AN ALGEBRAICALLY POSITIVE WORD, IT IS TAKEN AS A
000381:                                                                                                  #  STORE CODE WITH A CORRESPONDING ERASABLE ADDRESS. MOST OF THESE CODES ARE TWO ADDRESS, SPECIFYING THAT THE WORD
000382:                                                                                                  #  FOLLOWING THE STORE CODE IS TO BE USED AS AN ADDRESS FROM WHICH TO RE-LOAD MPAC. FOUR OPTIONS ARE AVAILABLE:
000383:
000384:                                                                                                  #           1. STORE               STORE MPAC. THE E ADDRESS MAY BE INDEXED.
000385:                                                                                                  #           2. STODL               STORE MPAC AND RE-LOAD IT IN DP WITH THE NEXT ADDRESS (THE LOAD MAY BE INDEXED).
000386:                                                                                                  #           3. STOVL               STORE MPAC AND RE-LOAD A VECTOR (AS ABOVE).
000387:                                                                                                  #           4. STCALL              STORE AND DO A CALL (BOTH ADDRESSES MUST BE DIRECT HERE).
000388:
000389:                                                                                                  #           STODL AND STOVL WILL TAKE FROM THE PUSH-DOWN LIST IF NO LOAD ADDRESS IS GIVEN.
000390:
000391:
000392:
000393:    6334           30151        STADR              CA       BANKSET                               #  THE STADR CODE (PUSHUP UP ON STORE
000394:    6335           54004                           TS       FBANK                                 #  ADDRESS) ENTERS HERE.
000395:    6336           24150                           INCR     LOC
000396:    6337           50150                           INDEX    LOC                                   #  THE STORE CODE WAS STORE COMPLEMENTED TO
000397:    6340           40000                           CS       0                                     #  MAKE IT LOOK LIKE AN OPCODE PAIR.
000398:    6341           67667                           AD       NEGONE                                #  (YUL CANT REMOVE 1 BECAUSE OF EARLY CCS)
000399:
000400:    6342           54102        DOSTORE            TS       ADDRWD
000401:    6343           76426                           MASK     LOW10                                 #  ENTRY FROM DISPATCHER. SAVE THE ERASABLE
000402:    6344           56102                           XCH      ADDRWD                                #  ADDRESS AND JUMP ON THE STORE CODE NO.
000403:    6345           76233                           MASK     B11T14
000404:    6346           00006                           EXTEND
000405:    6347           77652                           MP       BIT6                                  #  EACH TRANSFER VECTOR ENTRY IS TWO WORDS.
000406:    6350           50000                           INDEX    A
000407:    6351           16352                           TCF      STORJUMP
000408:


000410:                                                                                                  #           STORE CODE JUMP TABLE. CALLS THE APPROPRIATE STORING ROUTINE AND EXITS TO DANZIG OR TO ADDRESS WITH
000411:                                                                                                  #  A SUPPLIED OPERATION CODE.
000412:
000413:    6352           06422        STORJUMP           TC       STORE                                 #  STORE.
000414:    6353           16022                           TCF      NEWOPS     -1                         #  PICK UP NEW OP CODE(S).
000415:    6354           06414                           TC       STORE,1
000416:    6355           16022                           TCF      NEWOPS     -1
000417:    6356           06417                           TC       STORE,2
000418:    6357           16022                           TCF      NEWOPS     -1
000419:
000420:    6360           06422                           TC       STORE                                 #  STODL.
000421:    6361           16455                           TCF      DODLOAD
000422:    6362           06414                           TC       STORE,1
000423:    6363           16455                           TCF      DODLOAD
000424:    6364           06417                           TC       STORE,2
000425:    6365           16455                           TCF      DODLOAD
000426:
000427:    6366           06422                           TC       STORE                                 #  STODL WITH INDEXED LOAD ADDRESS.
000428:    6367           16071                           TCF      DODLOAD*
000429:    6370           06414                           TC       STORE,1
000430:    6371           16071                           TCF      DODLOAD*
000431:    6372           06417                           TC       STORE,2
000432:    6373           16071                           TCF      DODLOAD*
000433:
000434:    6374           06422                           TC       STORE                                 #  STOVL.
000435:    6375           16460                           TCF      DOVLOAD
000436:    6376           06414                           TC       STORE,1
000437:    6377           16460                           TCF      DOVLOAD
000438:    6400           06417                           TC       STORE,2
000439:    6401           16460                           TCF      DOVLOAD
000440:
000441:    6402           06422                           TC       STORE                                 #  STOVL WITH INDEXED LOAD ADDRESS.
000442:    6403           16463                           TCF      DOVLOAD*
000443:    6404           06414                           TC       STORE,1
000444:    6405           16463                           TCF      DOVLOAD*
000445:    6406           06417                           TC       STORE,2
000446:    6407           16463                           TCF      DOVLOAD*
000447:
000448:    6410           06422                           TC       STORE                                 #  STOTC.
000449:    6411           37674                           CAF      CALLCODE
000450:    6412           54020                           TS       CYR
000451:    6413           16172                           TCF      15BITADR                              #  GET A 15 BIT ADDRESS.
000452:


000454:                                                                                                  #           STORE CODE ADDRESS PROCESSOR.
000455:
000456:    6414           50104        STORE,1            INDEX    FIXLOC
000457:    6415           40046                           CS       X1
000458:    6416           16421                           TCF      PRESTORE
000459:
000460:    6417           50104        STORE,2            INDEX    FIXLOC
000461:    6420           40047                           CS       X2
000462:    6421           26102        PRESTORE           ADS      ADDRWD                                #  RESULTANT ADDRESS IS IN ERASABLE.
000463:
000464:    6422           30102        STORE              CA       ADDRWD                                #  SEE IF ADDRESS REALTIVE TO WORK AREA.
000465:    6423           66171                           AD       -ENDVAC
000466:    6424           10000                           CCS      A
000467:    6425           16431                           TCF      STARTSTO                              #  ADDRESS OK AS IS.
000468:
000469:    6426           01777        LOW10              OCT      1777
000470:
000471:    6427           30104                           CA       FIXLOC                                #  GIVEN ADDRESS IS RELATIVE TO WORK AREA.
000472:    6430           26102                           ADS      ADDRWD
000473:


000475:                                                                                                  #           STORING ROUTINES. STORE DP, TP, OR VECTOR AS INDICATED BY MODE.
000476:
000477:    6431           00006        STARTSTO           EXTEND                                         #  MPAC,+1 MUST BE STORED IN ANY EVENT.
000478:    6432           30141                           DCA      MPAC
000479:    6433           50102                           INDEX    ADDRWD
000480:    6434           52001                           DXCH     0
000481:
000482:    6435           10147                           CCS      MODE
000483:    6436           16451                           TCF      TSTORE
000484:    6437           00002                           TC       Q
000485:
000486:    6440           00006        VSTORE             EXTEND
000487:    6441           30144                           DCA      MPAC       +3
000488:    6442           50102                           INDEX    ADDRWD
000489:    6443           52003                           DXCH     2
000490:
000491:    6444           00006                           EXTEND
000492:    6445           30146                           DCA      MPAC       +5
000493:    6446           50102                           INDEX    ADDRWD
000494:    6447           52005                           DXCH     4
000495:    6450           00002                           TC       Q
000496:
000497:    6451           30142        TSTORE             CA       MPAC       +2
000498:    6452           50102                           INDEX    ADDRWD
000499:    6453           54002                           TS       2
000500:    6454           00002                           TC       Q
000501:


000503:                                                                                                  #           ROUTINES TO BEGIN PROCESSING OF THE SECOND ADDRES ASSOCIATED WITH ALL STORE-TYPE CODES EXCEPT STORE
000504:                                                                                                  #  ITSELF.
000505:
000506:    6455           37675        DODLOAD            CAF      DLOADCOD
000507:    6456           54020                           TS       CYR
000508:    6457           16041                           TCF      DIRADRES                              #  GO GET A DIRECT ADDRESS.
000509:
000510:    6460           37641        DOVLOAD            CAF      VLOADCOD
000511:    6461           54020                           TS       CYR
000512:    6462           16041                           TCF      DIRADRES
000513:
000514:    6463           36042        DOVLOAD*           CAF      VLOAD*
000515:    6464           16072                           TCF      DODLOAD*   +1                         #  PROLOGUE TO INDEX ROUTINE.
000516:


000518:                                                                                                  #           THE FOLLOWING LOAD INSTRUCTIONS ARE PROVIDED FOR LOADING THE MULTI-PURPOSE ACCUMULATOR MPAC.
000519:
000520:    6465           00006        DLOAD              EXTEND
000521:    6466           50102                           INDEX    ADDRWD
000522:    6467           30001                           DCA      0                                     #  PICK UP DP ARGUMENT AND LEAVE IT IN
000523:    6470           52141        SLOAD2             DXCH     MPAC                                  #  MPAC,+1, SETTING MPAC +2 TO ZERO. THE
000524:    6471           37665                           CAF      ZERO                                  #  CONTENTS OF THE OTHER FOUR REGISTERS OF
000525:    6472           54142                           TS       MPAC       +2                         #  MPAC ARE IRRELEVANT
000526:    6473           16013                           TCF      NEWMODE                               #  DECLARE DOUBLE PRECISION MODE.
000527:
000528:    6474           50102        TLOAD              INDEX    ADDRWD
000529:    6475           30002                           CA       2                                     #  LOAD A TRIPLE PRECISION ARGUMENT INTO
000530:    6476           54142                           TS       MPAC       +2                         #  THE FIRST THREE MPAC REGISTERS, WITH THE
000531:    6477           00006                           EXTEND                                         #  CONTENTS OF THE OTHER FOUR IRRELEVANT.
000532:    6500           50102                           INDEX    ADDRWD
000533:    6501           30001                           DCA      0
000534:    6502           52141                           DXCH     MPAC
000535:    6503           37657                           CAF      ONE
000536:    6504           16013                           TCF      NEWMODE                               #  DECLARE TRIPLE PRECISION MODE.
000537:
000538:    6505           22007        SLOAD              ZL                                             #  LOAD A SINGLE PRECISION NUMBER INTO
000539:    6506           50102                           INDEX    ADDRWD                                #  MPAC, SETTING MPAC+1,2 TO ZERO. THE
000540:    6507           30000                           CA       0                                     #  CONTENTS OF THE REMAINING MPAC REGISTERS
000541:    6510           16470                           TCF      SLOAD2                                #  ARE IRRELEVANT.
000542:
000543:    6511           00006        VLOAD              EXTEND                                         #  LOAD A DOUBLE PRECISION VECTOR INTO
000544:    6512           50102                           INDEX    ADDRWD                                #  MPAC,+1, MPAC+3,4, AND MPAC+5,6. THE
000545:    6513           30001                           DCA      0                                     #  CONTENTS OF MPAC +2 ARE IRRELEVANT.
000546:    6514           52141                           DXCH     MPAC
000547:
000548:    6515           00006        ENDVLOAD           EXTEND                                         #  PDVL COMES HERE TO FINISH UP FOR DP, TP.
000549:    6516           50102                           INDEX    ADDRWD
000550:    6517           30003                           DCA      2
000551:    6520           52144                           DXCH     MPAC       +3
000552:
000553:    6521           00006                 +4        EXTEND                                         #  TPDVL FINISHES HERE.
000554:    6522           50102                           INDEX    ADDRWD
000555:    6523           30005                           DCA      4
000556:    6524           52146                           DXCH     MPAC       +5
000557:
000558:    6525           47657                           CS       ONE                                   #  DECLARE VECTOR MODE.
000559:    6526           16013                           TCF      NEWMODE
000560:


000562:                                                                                                  #           THE FOLLOWING INSTRUCTIONS ARE PROVIDED FOR STORING OPERANDS IN THE PUSHDOWN LIST:
000563:
000564:                                                                                                  #           1.  PUSH               PUSHDOWN AND NO LOAD.
000565:                                                                                                  #           2.  PDDL               PUSHDOWN AND DOUBLE PRECISION LOAD.
000566:                                                                                                  #           3.  PDVL               PUSHDOWN AND VECTOR LOAD.
000567:
000568:    6527           00006        PDDL               EXTEND
000569:    6530           50102                           INDEX    ADDRWD                                #  LOAD MPAC,+1, PUSHING THE FORMER
000570:    6531           30001                           DCA      0                                     #  CONTENTS DOWN.
000571:    6532           52141                           DXCH     MPAC
000572:    6533           50152                           INDEX    PUSHLOC
000573:    6534           52001                           DXCH     0
000574:
000575:    6535           50147                           INDEX    MODE                                  #  ADVANCE THE PUSHDOWN POINTER APPRO-
000576:    6536           36164                           CAF      NO.WDS                                #  PRIATELY.
000577:    6537           26152                           ADS      PUSHLOC
000578:
000579:    6540           10147                           CCS      MODE
000580:    6541           16556                           TCF      ENDTPUSH
000581:    6542           16554                           TCF      ENDDPUSH
000582:
000583:    6543           54147                           TS       MODE                                  #  NOW DP.
000584:    6544           54142        ENDVPUSH           TS       MPAC       +2
000585:    6545           52144                           DXCH     MPAC       +3                         #  PUSH DOWN THE REST OF THE VECTOR HERE.
000586:    6546           50152                           INDEX    PUSHLOC
000587:    6547           51775                           DXCH     0          -4
000588:
000589:    6550           52146                           DXCH     MPAC       +5
000590:    6551           50152                           INDEX    PUSHLOC
000591:    6552           51777                           DXCH     0          -2
000592:
000593:    6553           16014                           TCF      DANZIG
000594:
000595:    6554           54142        ENDDPUSH           TS       MPAC       +2                         #  SET MPAC +2 TO ZERO AND EXIT ON DP.
000596:    6555           16014                           TCF      DANZIG
000597:
000598:    6556           54147        ENDTPUSH           TS       MODE
000599:    6557           56142                           XCH      MPAC       +2                         #  ON TRIPLE, SET MPAC +2 TO ZERO, PUSHING
000600:    6560           50152                 +2        INDEX    PUSHLOC                               #  DOWN THE OLD CONTENTS
000601:    6561           53777                           TS       0          -1
000602:    6562           16014                           TCF      DANZIG
000603:


000605:                                                                                                  #           PDVL - PUSHDOWN AND VECTOR LOAD.
000606:
000607:    6563           00006        PDVL               EXTEND                                         #  RELOAD MPAC AND PUSH DOWN ITS CONTENTS.
000608:    6564           50102                           INDEX    ADDRWD
000609:    6565           30001                           DCA      0
000610:    6566           52141                           DXCH     MPAC
000611:    6567           50152                           INDEX    PUSHLOC
000612:    6570           52001                           DXCH     0
000613:
000614:    6571           50147                           INDEX    MODE                                  #  ADVANCE THE PUSHDOWN POINTER.
000615:    6572           36164                           CAF      NO.WDS
000616:    6573           26152                           ADS      PUSHLOC
000617:
000618:    6574           10147                           CCS      MODE                                  #  TEST PAST MODE.
000619:    6575           16614                           TCF      TPDVL
000620:    6576           16515                           TCF      ENDVLOAD                              #  JUST LOAD LAST FOUR REGISTERS ON DP.
000621:
000622:    6577           00006        VPDVL              EXTEND                                         #  PUSHDOWN AND RE-LOAD LAST TWO COMPONENTS
000623:    6600           50102                           INDEX    ADDRWD
000624:    6601           30003                           DCA      2
000625:    6602           52144                           DXCH     MPAC       +3
000626:    6603           50152                           INDEX    PUSHLOC
000627:    6604           51775                           DXCH     0          -4
000628:
000629:    6605           00006                           EXTEND
000630:    6606           50102                           INDEX    ADDRWD
000631:    6607           30005                           DCA      4
000632:    6610           52146                           DXCH     MPAC       +5
000633:    6611           50152                           INDEX    PUSHLOC
000634:    6612           51777                           DXCH     0          -2
000635:
000636:    6613           16014                           TCF      DANZIG
000637:
000638:    6614           00006        TPDVL              EXTEND                                         #  ON TP, WE MUST LOAD THE Y COMPONENT
000639:    6615           50102                           INDEX    ADDRWD                                #  BEFORE STORING MPAC +2 IN CASE THIS IS A
000640:    6616           30003                           DCA      2                                     #  PUSHUP.
000641:    6617           52144                           DXCH     MPAC       +3
000642:
000643:    6620           30142                           CA       MPAC       +2
000644:    6621           50152                           INDEX    PUSHLOC                               #  IN DP.
000645:    6622           53777                           TS       0          -1
000646:    6623           16521                           TCF      ENDVLOAD   +4
000647:
000648:                                                                                                  #           SSP (STORE SINGLE PRECISION) IS EXECUTED HERE.
000649:
000650:    6624           24150        SSP                INCR     LOC                                   #  PICK UP THE WORD FOLLOWING THE GIVEN
000651:    6625           50150                           INDEX    LOC                                   #  ADDRESS AND STORE IT AT X.
000652:    6626           30000                           CA       0
000653:    6627           50102        STORE1             INDEX    ADDRWD                                #  SOME INDEX AND MISCELLANEOUS OPS END
000654:    6630           54000                           TS       0                                     #  HERE.
000655:


000657:    6631           16014                           TCF      DANZIG
000658:


000660:                                                                                                  #  SEQUENCE CHANGING AND SUBROUTINE CALLING OPTIONS.
000661:
000662:                                                                                                  #           THE FOLLOWING OPERATIONS ARE AVAILABLE FOR SEQUENCING CHANGING, BRANCHING, AND CALLING SUBROUTINES:
000663:
000664:                                                                                                  #           1. GOTO                GO TO.
000665:                                                                                                  #           2. CALL                CALL SUBROUTINE SETTING QPRET.
000666:                                                                                                  #           3. CGOTO               COMPUTED GO TO.
000667:                                                                                                  #           4. CCALL               COMPUTED CALL.
000668:                                                                                                  #           7. BPL                 BRANCH IF MPAC POSITIVE OR ZERO.
000669:                                                                                                  #           8. BZE                 BRANCH IF MPAC ZERO.
000670:                                                                                                  #           9. BMN                 BRANCH IF MPAC NEGATIVE NON-ZERO.
000671:
000672:    6632           24150        CCALL              INCR     LOC                                   #  MAINTAIN LOC FOR QPRET COMPUTATION
000673:    6633           50150                           INDEX    LOC
000674:    6634           30000                           CAF      0                                     #  GET BASE ADDRESS OF CADR LIST.
000675:    6635           50102                           INDEX    ADDRWD
000676:    6636           60000                           AD       0                                     #  ADD INCREMENT.
000677:    6637           54004                           TS       FBANK                                 #  SELECT DESIRED CADR.
000678:    6640           76426                           MASK     LOW10
000679:    6641           50000                           INDEX    A
000680:    6642           32000                           CAF      10000
000681:    6643           54103                 -1        TS       POLISH
000682:
000683:    6644           46426        CALL               CS       LOW10                                 #  FOR ANY OF THE CALL OPTIONS, MAKE UP THE
000684:    6645           60150                           AD       LOC                                   #  ADDRESS OF THE NEXT OP-CODE PAIR/STORE
000685:    6646           60151                           AD       BANKSET                               #  CODE AND LEAVE IT IN QPRET. NOTE THAT
000686:    6647           50104                           INDEX    FIXLOC                                #  LOW10 = 2000 - 1.
000687:    6650           54052                           TS       QPRET
000688:
000689:    6651           30103        GOTO               CA       POLISH                                #  BASIC BRANCHING SEQUENCE.
000690:    6652           54004                           TS       FBANK
000691:    6653           76426                           MASK     LOW10                                 #  MAKE UP 12 BIT SUB-ADDRESS AND FALL INTO
000692:    6654           67645                           AD       2K                                    #  FALL INTO THE INTPRET ENTRY UNLESS THE
000693:    6655           54150                           TS       LOC                                   #  GIVEN ADDRESS WAS IN ERASABLE, IN WHICH
000694:    6656           10004                           CCS      FBANK                                 #  CASE IT IS USED AS THE ADDRESS OF THE
000695:    6657           16002                           TCF      INTPRET    +2                         #  BRANCH ADDRESS.
000696:    6660           16662                           TCF      +2
000697:    6661           16002                           TCF      INTPRET    +2
000698:


000700:    6662           40150                           CS       LOC                                   #  THE GIVEN ADDRESS IS IN ERASABLE - SEE
000701:    6663           66710                           AD       EVAC+2K                               #  IF RELATIVE TO THE WORK AREA.
000702:    6664           10000                           CCS      A
000703:    6665           30104                           CA       FIXLOC                                #  ADD FIXLOC IF SO.
000704:    6666           26150                           ADS      LOC
000705:
000706:    6667           50150                           INDEX    LOC
000707:    6670           26000                           CA       0          -2000                      #  (ADDRESS HAD BEEN AUGMENTED BY 2000.)
000708:    6671           16652                           TCF      GOTO       +1                         #  ALLOWS ARBITRARY INDICRECTNESS.
000709:
000710:    6672           50150        CGOTO              INDEX    LOC                                   #  COMPUTED GO TO. PICK UP ADDRESS OF CADR
000711:    6673           30001                           CA       1                                     #  LIST.
000712:    6674           50102                           INDEX    ADDRWD                                #  ADD MODIFIER.
000713:    6675           60000                           AD       0
000714:    6676           54004                           TS       FBANK                                 #  SELECT GOTO ADDRESS.
000715:    6677           76426                           MASK     LOW10
000716:    6700           50000                           INDEX    A
000717:    6701           32000                           CA       10000
000718:    6702           16652                           TCF      GOTO       +1                         #  WITH ADDRESS IN A.
000719:
000720:    6703           30151        SWBRANCH           CA       BANKSET                               #  SWITCH INSTRUCTIONS WHICH ELECT TO
000721:    6704           54004                           TS       FBANK                                 #  BRANCH COME HERE TO DO SO.
000722:    6705           50150                           INDEX    LOC
000723:    6706           30001                           CA       1
000724:    6707           16652                           TCF      GOTO       +1
000725:
000726:    6710           02055        EVAC+2K            DEC      1069       B-14                       #  =1024+45
000727:


000729:                                                                                                  #           TRIPLE PRECISION BRANCHING ROUTINE. IF CALLING TC IS AT L, RETURN IS AS FOLLOWS:
000730:                                                                                                  #           L+1  IF MPAC IS GREATER THAN ZERO.
000731:                                                                                                  #           L+2  IF MPAC IS EQUAL TO +0 OR -0.
000732:                                                                                                  #           L+3  IF MPAC IS LESS THAN ZERO.
000733:
000734:
000735:
000736:    6711           10140        BRANCH             CCS      MPAC
000737:    6712           00002                           TC       Q
000738:    6713           16715                           TCF      +2                                    #  ON ZERO.
000739:    6714           16727                           TCF      NEG
000740:
000741:    6715           10141                           CCS      MPAC       +1
000742:    6716           00002                           TC       Q
000743:    6717           16721                           TCF      +2
000744:    6720           16727                           TCF      NEG
000745:
000746:    6721           10142                           CCS      MPAC       +2
000747:    6722           00002                           TC       Q
000748:    6723           16725                           TCF      +2
000749:    6724           16727                           TCF      NEG
000750:
000751:    6725           50002                           INDEX    Q                                     #  IF ALL THREE REGISTERS WHERE +-0.
000752:    6726           00001                           TC       1
000753:
000754:    6727           50002        NEG                INDEX    Q                                     #  IF FIRST NON-ZERO REGISTER WAS NEGATIVE.
000755:    6730           00002                           TC       2
000756:
000757:
000758:
000759:    6731           50150        EXIT               INDEX    LOC                                   #  LEAVE INTERPRETIVE MODE.
000760:    6732           10001                           TCF      1
000761:


000763:                                                                                                  #  SECTION 3 - ADD/SUBTRACT PACKAGE.
000764:
000765:                                                                                                  #           THE FOLLOWING OPERATIONS ARE PROVIDED FOR ADDING TO AND SUBTRACTING FROM THE MULTI-PURPOSE ACCUMULATOR
000766:                                                                                                  #  MPAC:
000767:
000768:                                                                                                  #           1. DAD                 DOUBLE PRECISION ADD.
000769:                                                                                                  #           2. DSU                 DOUBLE PRECISION SUBTRACT.
000770:                                                                                                  #           3. BDSU                DOUBLE PRECISION SUBTRACT FROM.
000771:
000772:                                                                                                  #           4. TAD                 TRIPLE PRECISION ADD.
000773:
000774:                                                                                                  #           5. VAD                 VECTOR ADD.
000775:                                                                                                  #           6. VSU                 VECTOR SUBTRACT.
000776:                                                                                                  #           7. BVSU                VECTOR SUBTRACT FROM.
000777:
000778:                                                                                                  #  THE INTERPRETIVE OVERFLOW INDICATOR OVFIND IS SET NON-ZERO IF OVERFLOW OCCURS IN ANY OF THE ABOVE.
000779:
000780:
000781:
000782:    6733           00006        VAD                EXTEND
000783:    6734           50102                           INDEX    ADDRWD
000784:    6735           30003                           DCA      2
000785:    6736           20144                           DAS      MPAC       +3
000786:    6737           00006                           EXTEND                                         #  CHECK OVERFLOW.
000787:    6740           16742                           BZF      +2
000788:    6741           07007                           TC       OVERFLOW
000789:
000790:    6742           00006                           EXTEND
000791:    6743           50102                           INDEX    ADDRWD
000792:    6744           30005                           DCA      4
000793:    6745           20146                           DAS      MPAC       +5
000794:    6746           00006                           EXTEND
000795:    6747           16751                           BZF      +2
000796:    6750           07007                           TC       OVERFLOW
000797:
000798:    6751           00006        DAD                EXTEND
000799:    6752           50102                           INDEX    ADDRWD
000800:    6753           30001                           DCA      0
000801:    6754           20141        ENDVXV             DAS      MPAC                                  #  VXV FINISHES HERE.
000802:    6755           00006                           EXTEND
000803:    6756           16014                           BZF      DANZIG
000804:    6757           07007                           TC       OVERFLOW
000805:    6760           16014                           TCF      DANZIG
000806:


000808:    6761           00006        VSU                EXTEND
000809:    6762           50102                           INDEX    ADDRWD
000810:    6763           40003                           DCS      2
000811:    6764           20144                           DAS      MPAC       +3
000812:    6765           00006                           EXTEND
000813:    6766           16770                           BZF      +2
000814:    6767           07007                           TC       OVERFLOW
000815:
000816:    6770           00006                           EXTEND
000817:    6771           50102                           INDEX    ADDRWD
000818:    6772           40005                           DCS      4
000819:    6773           20146                           DAS      MPAC       +5
000820:    6774           00006                           EXTEND
000821:    6775           16777                           BZF      +2
000822:    6776           07007                           TC       OVERFLOW
000823:
000824:    6777           00006        DSU                EXTEND
000825:    7000           50102                           INDEX    ADDRWD
000826:    7001           40001                           DCS      0
000827:    7002           20141                           DAS      MPAC
000828:    7003           00006                           EXTEND
000829:    7004           16014                           BZF      DANZIG
000830:    7005           07007                           TC       OVERFLOW
000831:    7006           16014                           TCF      DANZIG
000832:
000833:    7007           37657        OVERFLOW           CAF      ONE                                   #  SUBROUTINE TO TURN OVFIND ON.
000834:    7010           17132                           TCF      SETOVF2
000835:


000837:    7011           00006        BVSU               EXTEND
000838:    7012           50102                           INDEX    ADDRWD
000839:    7013           30003                           DCA      2
000840:    7014           52144                           DXCH     MPAC       +3
000841:    7015           00006                           EXTEND
000842:    7016           40001                           DCOM
000843:    7017           20144                           DAS      MPAC       +3
000844:    7020           00006                           EXTEND
000845:    7021           17023                           BZF      +2
000846:    7022           07007                           TC       OVERFLOW
000847:
000848:    7023           00006                           EXTEND
000849:    7024           50102                           INDEX    ADDRWD
000850:    7025           30005                           DCA      4
000851:    7026           52146                           DXCH     MPAC       +5
000852:    7027           00006                           EXTEND
000853:    7030           40001                           DCOM
000854:    7031           20146                           DAS      MPAC       +5
000855:    7032           00006                           EXTEND
000856:    7033           17035                           BZF      +2
000857:    7034           07007                           TC       OVERFLOW
000858:
000859:    7035           00006        BDSU               EXTEND
000860:    7036           50102                           INDEX    ADDRWD
000861:    7037           30001                           DCA      0
000862:    7040           52141                           DXCH     MPAC
000863:    7041           00006                           EXTEND
000864:    7042           40001                           DCOM
000865:    7043           20141                           DAS      MPAC
000866:    7044           00006                           EXTEND
000867:    7045           16014                           BZF      DANZIG
000868:    7046           07007                           TC       OVERFLOW
000869:    7047           16014                           TCF      DANZIG
000870:


000872:                                                                                                  #           TRIPLE PRECISION ADD ROUTINE.
000873:
000874:    7050           00006        TAD                EXTEND
000875:    7051           50102                           INDEX    ADDRWD
000876:    7052           30002                           DCA      1                                     #  ADD MINOR PARTS FIRST.
000877:    7053           20142                           DAS      MPAC       +1
000878:    7054           50102                           INDEX    ADDRWD
000879:    7055           60000                           AD       0
000880:    7056           60140                           AD       MPAC
000881:    7057           54140                           TS       MPAC
000882:    7060           16014                           TCF      DANZIG
000883:
000884:    7061           54105        SETOVF             TS       OVFIND                                #  SET OVFIND IF SUCH OCCURS.
000885:    7062           16014                           TCF      DANZIG
000886:


000888:                                                                                                  #  ARITHMETIC SUBROUTINES REQUIRED IN FIXED-FIXED.
000889:
000890:                                                                                                  #           1.  DMPSUB     DOUBLE PRECISION MULTIPLY, MULTIPLY THE CONTENTS OF MPAC,+1 BY THE DP WORD WHOSE ADDRESS
000891:                                                                                                  #                          IS IN ADDRWD AND LEAVE A TRIPLE PRECISION RESULT IN MPAC.
000892:                                                                                                  #           2.  ROUNDSUB   ROUND THE TRIPLE PRECISON CONTENTS OF MPAC TO DOUBLE PRECISION.
000893:                                                                                                  #           3.  DOTSUB     TAKE THE DOT PRODUCT OF THE VECTOR IN MPAC AND THE VECTOR WHOSE ADDRESS IS IN ADDRWD
000894:                                                                                                  #                          AND LEAVE THE TRIPLE PRECISION RESULT IN MPAC.
000895:                                                                                                  #           4.  POLY       USING THE CONTENTS OF MPAC AS A DP ARGUMENT, EVALUATE THE POLYNOMIAL WHOSE DEGREE AND
000896:                                                                                                  #                          COEFFICIENTS IMMEDIATELY FOLLOW THE TC POLY INSTRUCTION (SEE ROUTINE FOR DETAILS).
000897:
000898:
000899:
000900:    7063           50002        DMP                INDEX    Q                                     #  BASIC SUBROUTINE FOR USE BY PINBALL, ETC
000901:    7064           30000                           CAF      0                                     #  ADRES OF ARGUMENT FOLLOWS  TC DMP  .
000902:    7065           24002                           INCR     Q
000903:    7066           54102                 -1        TS       ADDRWD                                #  (PROLOGUE FOR SETTING ADDRWD.)
000904:
000905:    7067           50102        DMPSUB             INDEX    ADDRWD                                #  GET MINOR PART OF OPERAND AT C(ADDRWD).
000906:    7070           30001                           CA       1
000907:    7071           54142                           TS       MPAC       +2                         #  THIS WORKS FOR SQUARING MPAC AS WELL.
000908:    7072           37665                           CAF      ZERO                                  #  SET MPAC +1 TO ZERO SO WE CAN ACCUMULATE
000909:    7073           56141                           XCH      MPAC       +1                         #  THE PARTIAL PRODUCTS WITH DAS
000910:    7074           54121                           TS       MPTEMP                                #  INSTRUCTIONS.
000911:    7075           00006                           EXTEND
000912:    7076           70142                           MP       MPAC       +2                         #  MINOR OF MPAC X MINOR OF C(ADDRWD).
000913:
000914:    7077           56142                           XCH      MPAC       +2                         #  DISCARD MINOR PART OF ABOVE RESULT AND
000915:    7100           00006                           EXTEND                                         #  FORM MAJOR OF MPAC X MINOR OF C(ADDRWD).
000916:    7101           70140                           MP       MPAC
000917:    7102           20142                           DAS      MPAC       +1                         #  GUARANTEED NO OVERFLOW.
000918:
000919:    7103           50102                           INDEX    ADDRWD                                #  GET MAJOR PART OF ARGUMENT AT C(ADDRWD).
000920:    7104           30000                           CA       0
000921:    7105           56121                           XCH      MPTEMP                                #  SAVE AND BRING OUT MINOR OF MPAC.
000922:    7106           00006                           EXTEND
000923:    7107           70121                           MP       MPTEMP                                #  MAJOR OF C(ADDRWD) X MINOR OF MPAC.
000924:    7110           20142                           DAS      MPAC       +1                         #  ACCUMULATE, SETTING A TO NET OVERFLOW.
000925:
000926:    7111           56140                           XCH      MPAC                                  #  SETTING MPAC TO 0 OR +-1.
000927:    7112           00006                           EXTEND
000928:    7113           70121                           MP       MPTEMP                                #  MAJOR OF MPAC X MAJOR OF C(ADDRWD).
000929:    7114           20141                           DAS      MPAC                                  #  GUARANTEED NO OVERFLOW.
000930:    7115           00002                           TC       Q                                     #  49 MCT = .573 MS. INCLUDING RETURN.
000931:


000933:                                                                                                  #           ROUND MPAC TO DOUBLE PRECISION, SETTING OVFIND ON THE RARE EVENT OF OVERFLOW.
000934:
000935:    7116           37665        ROUNDSUB           CAF      ZERO                                  #  SET MPAC +2 = 0 FOR SCALARS AND CHANGE
000936:    7117           54147                 +1        TS       MODE                                  #  MODE TO DP.
000937:
000938:    7120           56142        VROUND             XCH      MPAC       +2                         #  BUT WE NEEDNT TAKE THE TIME FOR VECTORS.
000939:    7121           60000                           DOUBLE
000940:    7122           54001                           TS       L
000941:    7123           00002                           TC       Q
000942:
000943:    7124           60141                           AD       MPAC       +1                         #  ADD ROUNDING BIT IF MPAC +2 WAS GREATER
000944:    7125           54141                           TS       MPAC       +1                         #  THAN .5 IN MAGNITUDE.
000945:    7126           00002                           TC       Q
000946:
000947:    7127           60140                           AD       MPAC                                  #  PROPAGATE INTERFLOW.
000948:    7130           54140                           TS       MPAC
000949:    7131           00002                           TC       Q
000950:
000951:    7132           54105        SETOVF2            TS       OVFIND                                #  (RARE).
000952:    7133           00002                           TC       Q
000953:


000955:                                                                                                  #           THE DOT PRODUCT SUBROUTINE USUALLY FORMS THE DOT PRODUCT OF THE VECTOR IN MPAC WITH A STANDARD SIX
000956:                                                                                                  #  REGISTER VECTOR WHOSE ADDRESS IS IN ADDRWD. IN THIS CASE C(DOTINC) ARE SET TO 2. VXM, HOWEVER, SETS C(DOTINC) TO
000957:                                                                                                  #  6 SO THAT DOTSUB DOTS MPAC WITH A COLUMN VECTOR OF THE MATRIX IN QUESTION IN THIS CASE.
000958:
000959:
000960:
000961:    7134           37656        PREDOT             CAF      TWO                                   #  PROLOGUE TO SET DOTINC TO 2.
000962:    7135           54122                           TS       DOTINC
000963:
000964:    7136           00006        DOTSUB             EXTEND
000965:    7137           22123                           QXCH     DOTRET                                #  SAVE RETURN.
000966:    7140           07067                           TC       DMPSUB                                #  DOT X COMPONENTS.
000967:    7141           52144                           DXCH     MPAC       +3                         #  POSITION Y COMPONENT OF MPAC FOR
000968:    7142           52141                           DXCH     MPAC                                  #  MULTIPLICATION WHILE SAVING RESULT IN
000969:    7143           52115                           DXCH     BUF                                   #  THREE WORD BUFFER, BUF.
000970:    7144           30142                           CA       MPAC       +2
000971:    7145           54116                           TS       BUF        +2
000972:
000973:    7146           30122                           CA       DOTINC                                #  ADVANCE ADDRWD TO Y COMPONENT OF
000974:    7147           26102                           ADS      ADDRWD                                #  OTHER ARGUMENT.
000975:    7150           07067                           TC       DMPSUB
000976:    7151           52142                           DXCH     MPAC       +1                         #  ACCUMULATE PARTIAL PRODUCTS.
000977:    7152           20116                           DAS      BUF        +1
000978:    7153           60140                           AD       MPAC
000979:    7154           60114                           AD       BUF
000980:    7155           54114                           TS       BUF
000981:    7156           17160                           TCF      +2
000982:    7157           54105                           TS       OVFIND                                #  IF OVERFLOW OCCURS.
000983:
000984:    7160           52146                           DXCH     MPAC       +5                         #  MULTIPLY Z COMPONENTS.
000985:    7161           52141                           DXCH     MPAC
000986:    7162           30122                           CA       DOTINC
000987:    7163           26102                           ADS      ADDRWD
000988:    7164           07067                           TC       DMPSUB
000989:    7165           52116        ENDDOT             DXCH     BUF        +1                         #  LEAVE FINAL ACCUMULATION IN MPAC.
000990:    7166           20142                           DAS      MPAC       +1
000991:    7167           60140                           AD       MPAC
000992:    7170           60114                           AD       BUF
000993:    7171           54140                           TS       MPAC
000994:    7172           00123                           TC       DOTRET
000995:
000996:    7173           54105                           TS       OVFIND                                #  ON OVERFLOW HERE.
000997:    7174           00123                           TC       DOTRET
000998:


001000:                                                                                                  #  DOUBLE PRECISION POLYNOMIAL EVALUATOR
001001:
001002:                                                                                                  #                                     N        N-1
001003:                                                                                                  #           THIS ROUTINE EVALUATES A X  + A   X    + ... + A  X + A  LEAVING THE DP RESULT IN MPAC ON EXIT.
001004:                                                                                                  #                                   N      N-1              1      0
001005:
001006:                                                                                                  #  THE ROUTINE HAS TWO ENTRIES
001007:
001008:                                                                                                  #           1. ENTRY THRU POWRSERS. THE COEFFICIENTS MAY BE EITHER IN FIXED OR ERASABLE, THE CALL IS BY
001009:                                                                                                  #              TC POWRSERS, AND THE RETURN IS TO LOC(TC POWRSERS)+1. THE ENTERING DATA MUST BE AS FOLLOWS
001010:
001011:                                                                                                  #                                          A        SP     LOC-3           ADDRESS FOR REFERENCING COEF TABLE
001012:                                                                                                  #                                          L        SP     N-1             N IS THE DEGREE OF THE POWER SERIES
001013:                                                                                                  #                                          MPAC     DP     X               ARGUMENT
001014:
001015:                                                                                                  #                                          LOC-2N   DP     A(0)
001016:                                                                                                  #                                                   ...
001017:                                                                                                  #                                          LOC      DP     A(N)
001018:
001019:                                                                                                  #           2. ENTRY THRU POLY. THE CALL TO POLY AND THE ENTERING DATA MUST BE AS FOLLOWS
001020:
001021:                                                                                                  #                                          MPAC     DP     X               ARGUMENT
001022:
001023:                                                                                                  #                                          LOC      TC     POLY
001024:                                                                                                  #                                          LOC+1    SP     N-1
001025:                                                                                                  #                                          LOC+2    DP     A(0)
001026:                                                                                                  #                                                   ...
001027:                                                                                                  #                                          LOC+2N+2 DP     A(N)            RETURN IS TO LOC+2N+4
001028:
001029:    7175           00006        POWRSERS           EXTEND
001030:    7176           22125                           QXCH     POLYRET                               #  RETURN ADDRESS
001031:    7177           54103                           TS       POLISH                                #  POWER SERIES ADDRESS
001032:    7200           22124                           LXCH     POLYCNT                               #  N-1 TO COUNTER
001033:    7201           17212                           TCF      POLYCOM                               #  SKIP SET UP BY POLY
001034:
001035:    7202           50002        POLY               INDEX    Q
001036:    7203           30000                           CAF      0
001037:    7204           54124                           TS       POLYCNT                               #  N-1 TO COUNTER
001038:    7205           60000                           DOUBLE
001039:    7206           60002                           AD       Q
001040:    7207           54103                           TS       POLISH                                #  L(A(N))-3 TO POLISH
001041:    7210           67664                           AD       FIVE
001042:    7211           54125                           TS       POLYRET                               #  STORE RETURN ADDRESS
001043:
001044:    7212           37677        POLYCOM            CAF      LVBUF                                 #  INCOMING X WILL BE MOVED TO VBUF, SO
001045:    7213           54102                           TS       ADDRWD                                #  SET ADDRWD SO DMPSUB WILL MPY BY VBUF.
001046:
001047:    7214           00006                           EXTEND
001048:    7215           50103                           INDEX    POLISH
001049:    7216           30004                           DCA      3
001050:


001052:    7217           52141                           DXCH     MPAC                                  #  LOAD A(N) INTO MPAC.
001053:    7220           52107                           DXCH     VBUF                                  #  SAVING X IN VBUF
001054:    7221           17225                           TCF      POLY2
001055:
001056:    7222           54124        POLYLOOP           TS       POLYCNT                               #  SAVE DECREMENTED LOOP COUNTER
001057:    7223           47656                           CS       TWO
001058:    7224           26103                           ADS      POLISH                                #  REGRESS COEFFICIENT POINTER
001059:
001060:    7225           07067        POLY2              TC       DMPSUB                                #  MULTIPLY BY X
001061:    7226           00006                           EXTEND
001062:    7227           50103                           INDEX    POLISH
001063:    7230           30002                           DCA      1                                     #  ADD IN NEXT COEFFICIENT
001064:    7231           20141                           DAS      MPAC                                  #  USER'S RESPONSIBILITY TO ASSURE NO OVFLOW
001065:
001066:    7232           10124                           CCS      POLYCNT
001067:    7233           17222                           TCF      POLYLOOP
001068:    7234           00125                           TC       POLYRET                               #  RETURN CALLER
001069:


001071:                                                                                                  #           MISCELLANEOUS MULTI-PRECISION ROUTINES REQUIRED IN FIXED-FIXED BUT NOT USED BY THE INTERPRETER.
001072:
001073:    7235           00006        TPAGREE            EXTEND                                         #  FORCE SIGN AGREEMENT AMONG THE TRIPLE-
001074:    7236           22114                           QXCH     BUF                                   #  PRECISION CONTENTS OF MPAC, RETURNING
001075:    7237           06711                           TC       BRANCH                                #  WITH SIGNUM OF THE INPUT IN A.
001076:    7240           17244                           TCF      ARG+
001077:    7241           17264                           TCF      ARGZERO
001078:
001079:    7242           47637                           CS       POSMAX                                #  IF NEGATIVE.
001080:    7243           17245                           TCF      +2
001081:
001082:    7244           37637        ARG+               CAF      POSMAX
001083:    7245           54115                 +2        TS       BUF        +1
001084:    7246           00006                           EXTEND
001085:    7247           24000                           AUG      A                                     #  FORMS +-1.0.
001086:    7250           60142                           AD       MPAC       +2
001087:    7251           54142                           TS       MPAC       +2
001088:    7252           37665                           CAF      ZERO
001089:    7253           60115                           AD       BUF        +1
001090:    7254           60141                           AD       MPAC       +1
001091:    7255           54141                           TS       MPAC       +1
001092:    7256           37665                           CAF      ZERO
001093:    7257           60115                           AD       BUF        +1
001094:    7260           60140                           AD       MPAC
001095:    7261           54140        ARGZERO2           TS       MPAC                                  #  ALWAYS SKIPPING UNLESS ARGZERO.
001096:    7262           54141                           TS       MPAC       +1
001097:    7263           00114                           TC       BUF                                   #  RETURN.
001098:
001099:    7264           54142        ARGZERO            TS       MPAC       +2                         #  SET ALL THREE MPAC REGISTERS TO ZERO.
001100:    7265           17261                           TCF      ARGZERO2
001101:
001102:                                                                                                  #           SHORTMP MULTIPLIES THE TP CONTENTS OF MPAC BY THE SINGLE PRECISION NUMBER ARRIVING IN A.
001103:
001104:    7266           54121        SHORTMP            TS       MPTEMP
001105:    7267           00006                           EXTEND
001106:    7270           70142                           MP       MPAC       +2
001107:    7271           54142                           TS       MPAC       +2
001108:    7272           37665                           CAF      ZERO                                  #  SO SUBSEQUENT DAS WILL WORK.
001109:    7273           56141                           XCH      MPAC       +1
001110:    7274           00006                           EXTEND
001111:    7275           70121                           MP       MPTEMP
001112:    7276           20142                           DAS      MPAC       +1
001113:    7277           56140                           XCH      MPAC                                  #  SETTING MAPC TO 0.
001114:    7300           00006                           EXTEND
001115:    7301           70121                           MP       MPTEMP
001116:    7302           20141                           DAS      MPAC
001117:    7303           00002                           TC       Q
001118:


001120:                                                                                                  #  MISCELLANEOUS VECTOR OPERATIONS. INCLUDED HERE ARE THE FOLLOWING.
001121:
001122:                                                                                                  #           1.  DOT                DP VECTOR DOT PRODUCT.
001123:                                                                                                  #           2.  VXV                DP VECTOR CROSS PRODUCT.
001124:                                                                                                  #           3.  VXSC               DP VECTOR TIMES SCALAR.
001125:                                                                                                  #           4.  V/SC               DP VECTOR DIVIDED BY SCALAR.
001126:                                                                                                  #           5.  VPROJ              DP VECTOR PROJECTION. ( (MPAC.X)MPAC ).
001127:                                                                                                  #           6.  VXM                DP VECTOR POST-MULTIPLIED BY MATRIX.
001128:                                                                                                  #           7.  MXV                DP VECTOR PRE-MULTIPLIED BY MATRIX.
001129:
001130:    7304           07134        DOT                TC       PREDOT                                #  DO THE DOT PRODUCT AND EXIT, CHANGING
001131:    7305           37665                           CAF      ZERO                                  #  THE MODE TO DP SCALAR.
001132:    7306           16013                           TCF      NEWMODE
001133:
001134:
001135:
001136:    7307           37656        MXV                CAF      TWO                                   #  SET UP MATINC AND DOTINC FOR ROW
001137:    7310           54124                           TS       MATINC                                #  VECTORS.
001138:    7311           17315                           TCF      VXM/MXV                               #  GO TO COMMON PORTION.
001139:
001140:    7312           47661        VXM                CS       TEN                                   #  SET MATINC AND DOTINC TO REFER TO MATRIX
001141:    7313           54124                           TS       MATINC                                #  AS THREE COLUMN VECTORS.
001142:    7314           36162                           CAF      SIX
001143:


001145:                                                                                                  #           COMMON PORTION OF MXV AND VXM.
001146:
001147:    7315           54122        VXM/MXV            TS       DOTINC
001148:    7316           07506                           TC       MPACVBUF                              #  SAVE VECTOR IN MPAC FOR FURTHER USE.
001149:
001150:    7317           07136                           TC       DOTSUB                                #  GO DOT TO GET X COMPONENT OF ANSWER.
001151:    7320           00006                           EXTEND
001152:    7321           30107                           DCA      VBUF                                  #  MOVE MPAC VECTOR BACK INTO MPAC, SAVING
001153:    7322           52141                           DXCH     MPAC                                  #  NEW X COMPONENT IN BUF2.
001154:    7323           52120                           DXCH     BUF2
001155:    7324           00006                           EXTEND
001156:    7325           30111                           DCA      VBUF       +2
001157:    7326           52144                           DXCH     MPAC       +3
001158:    7327           00006                           EXTEND
001159:    7330           30113                           DCA      VBUF       +4
001160:    7331           52146                           DXCH     MPAC       +5
001161:    7332           30124                           CA       MATINC                                #  INITIALIZE ADDRWD FOR NEXT DOT PRODUCT.
001162:    7333           26102                           ADS      ADDRWD                                #  FORMS BASE ADDRESS OF NEXT COLUMN(ROW).
001163:
001164:    7334           07136                           TC       DOTSUB
001165:    7335           52107                           DXCH     VBUF                                  #  MORE GIVEN VECTOR BACK TO MPAC, SAVING Y
001166:    7336           52141                           DXCH     MPAC                                  #  COMPONENT OF ANSWER IN VBUF +2.
001167:    7337           52111                           DXCH     VBUF       +2
001168:    7340           52144                           DXCH     MPAC       +3
001169:    7341           52113                           DXCH     VBUF       +4
001170:    7342           52146                           DXCH     MPAC       +5
001171:    7343           30124                           CA       MATINC                                #  FORM ADDRESS OF LAST COLUMN OR ROW.
001172:    7344           26102                           ADS      ADDRWD
001173:
001174:    7345           07136                           TC       DOTSUB
001175:    7346           52120                           DXCH     BUF2                                  #  ANSWER NOW COMPLETE. PUT COMPONENTS INTO
001176:    7347           52141                           DXCH     MPAC                                  #  PROPER MPAC REGISTERS.
001177:    7350           52146                           DXCH     MPAC       +5
001178:    7351           52111                           DXCH     VBUF       +2
001179:    7352           52144                           DXCH     MPAC       +3
001180:    7353           16014                           TCF      DANZIG                                #  EXIT.
001181:


001183:                                                                                                  #           VXSC - VECTOR TIMES SCALAR.
001184:
001185:    7354           10147        VXSC               CCS      MODE                                  #  TEST PRESENT MODE.
001186:    7355           17403                           TCF      DVXSC                                 #  SEPARATE ROUTINE WHEN SCALAR IS IN MPAC.
001187:    7356           17403                           TCF      DVXSC
001188:
001189:    7357           07067        VVXSC              TC       DMPSUB                                #  COMPUTE X COMPONENT
001190:    7360           07120                           TC       VROUND                                #  AND ROUND IT.
001191:    7361           52144                           DXCH     MPAC       +3                         #  PUT Y COMPONENT INTO MPAC SAVING MPAC IN
001192:    7362           52141                           DXCH     MPAC                                  #  MPAC +3.
001193:    7363           52144                           DXCH     MPAC       +3
001194:
001195:    7364           07067                           TC       DMPSUB                                #  DO SAME FOR Y AND Z COMPONENTS.
001196:    7365           07120                           TC       VROUND
001197:    7366           52146                           DXCH     MPAC       +5
001198:    7367           52141                           DXCH     MPAC
001199:    7370           52146                           DXCH     MPAC       +5
001200:
001201:    7371           07067                           TC       DMPSUB
001202:    7372           07120                           TC       VROUND
001203:    7373           52141        VROTATEX           DXCH     MPAC                                  #  EXIT USED TO RESTORE MPAC AFTER THIS
001204:    7374           52146                           DXCH     MPAC       +5                         #  TYPE OF ROTATION. CALLED BY VECTOR SHIFT
001205:    7375           52144                           DXCH     MPAC       +3                         #  RIGHT, V/SC, ETC.
001206:    7376           52141                           DXCH     MPAC
001207:    7377           16014                           TCF      DANZIG
001208:


001210:                                                                                                  #           DP VECTOR PROJECTION ROUTINE.
001211:
001212:
001213:
001214:    7400           07134        VPROJ              TC       PREDOT                                #  (MPAC.X)MPAC IS COMPUTED AND LEFT IN
001215:    7401           47655                           CS       FOUR                                  #  MPAC. DO DOT AND FALL INTO DVXSC.
001216:    7402           26102                           ADS      ADDRWD
001217:
001218:                                                                                                  #           VXSC WHEN SCALAR ARRIVES IN MPAC AND VECTOR IS AT X.
001219:
001220:    7403           00006        DVXSC              EXTEND                                         #  SAVE SCALAR IN MPAC +3 AND GET X
001221:    7404           30141                           DCA      MPAC                                  #  COMPONENT OF ANSWER.
001222:    7405           52144                           DXCH     MPAC       +3
001223:    7406           07067                           TC       DMPSUB
001224:    7407           07120                           TC       VROUND
001225:
001226:    7410           37656                           CAF      TWO                                   #  ADVANCE ADDRWD TO Y COMPONENT OF X.
001227:    7411           26102                           ADS      ADDRWD
001228:    7412           00006                           EXTEND
001229:    7413           30144                           DCA      MPAC       +3                         #  PUT SCALAR BACK INTO MPAC AND SAVE
001230:    7414           52141                           DXCH     MPAC                                  #  X RESULT IN MPAC +5.
001231:    7415           52146                           DXCH     MPAC       +5
001232:    7416           07067                           TC       DMPSUB
001233:    7417           07120                           TC       VROUND
001234:
001235:    7420           37656                           CAF      TWO
001236:    7421           26102                           ADS      ADDRWD                                #  TO Z COMPONENT.
001237:    7422           52144                           DXCH     MPAC       +3                         #  BRING SCALAR BACK, PUTTING Y RESULT IN
001238:    7423           52141                           DXCH     MPAC                                  #  THE PROPER PLACE.
001239:    7424           52144                           DXCH     MPAC       +3
001240:    7425           07067                           TC       DMPSUB
001241:    7426           07120                           TC       VROUND
001242:
001243:    7427           52141                           DXCH     MPAC                                  #  PUT Z COMPONENT IN PROPER PLACE, ALSO
001244:    7430           52146                           DXCH     MPAC       +5                         #  POSITIONING X.
001245:    7431           52141                           DXCH     MPAC
001246:
001247:    7432           47657                           CS       ONE                                   #  MODE HAS CHANGED TO VECTOR.
001248:    7433           16013                           TCF      NEWMODE
001249:


001251:                                                                                                  #           VECTOR CROSS PRODUCT ROUTINE CALCULATES (X M -X M ,X M -X M ,X M -X M ) WHERE M IS THE VECTOR IN
001252:                                                                                                  #                                                     3 2  2 3  1 3  3 1  2 1  1 2
001253:                                                                                                  #  MPAC AND X THE VECTOR AT THE GIVEN ADDRESS.
001254:
001255:
001256:
001257:    7434           00006        VXV                EXTEND
001258:    7435           30146                           DCA      MPAC       +5                         #  FORM UP M3X1, LEAVING M1 IN VBUF.
001259:    7436           52141                           DXCH     MPAC
001260:    7437           52107                           DXCH     VBUF
001261:    7440           07067                           TC       DMPSUB                                #  BY X1.
001262:
001263:    7441           00006                           EXTEND
001264:    7442           40144                           DCS      MPAC       +3                         #  CALCULATE -X1M2, SAVING X1M3 IN VBUF +2.
001265:    7443           52141                           DXCH     MPAC
001266:    7444           52111                           DXCH     VBUF       +2
001267:    7445           07067                           TC       DMPSUB
001268:
001269:    7446           37656                           CAF      TWO                                   #  ADVANCE ADDRWD TO X2.
001270:    7447           26102                           ADS      ADDRWD
001271:    7450           00006                           EXTEND
001272:    7451           40146                           DCS      MPAC       +5                         #  PREPARE TO GET -X2M3, SAVING -X1M2 IN
001273:    7452           52141                           DXCH     MPAC                                  #  MPAC +5.
001274:    7453           52146                           DXCH     MPAC       +5
001275:    7454           07067                           TC       DMPSUB
001276:
001277:    7455           00006                           EXTEND
001278:    7456           30107                           DCA      VBUF                                  #  GET X2M1, SAVING -X2M3 IN VBUF +4.
001279:    7457           52141                           DXCH     MPAC
001280:    7460           52113                           DXCH     VBUF       +4
001281:    7461           07067                           TC       DMPSUB
001282:
001283:    7462           37656                           CAF      TWO                                   #  ADVANCE ADDRWD TO X3.
001284:    7463           26102                           ADS      ADDRWD
001285:    7464           00006                           EXTEND
001286:    7465           40107                           DCS      VBUF                                  #  GET -X3M1, ADDING X2M1 TO MPAC +5 TO
001287:    7466           52141                           DXCH     MPAC                                  #  COMPLETE THE Z COMPONENT OF THE ANSWER.
001288:    7467           20146                           DAS      MPAC       +5
001289:
001290:    7470           00006                           EXTEND
001291:    7471           17473                           BZF      +2
001292:    7472           07007                           TC       OVERFLOW
001293:


001295:    7473           07067                           TC       DMPSUB
001296:    7474           52111                           DXCH     VBUF       +2                         #  MOVE X1M3 TO MPAC +3 SETTING UP FOR X3M2
001297:    7475           52144                           DXCH     MPAC       +3                         #  AND ADD -X3M1 TO MPAC +3 TO COMPLETE THE
001298:    7476           52141                           DXCH     MPAC                                  #  Y COMPONENT OF THE RESULT.
001299:    7477           20144                           DAS      MPAC       +3
001300:
001301:    7500           00006                           EXTEND
001302:    7501           17503                           BZF      +2
001303:    7502           07007                           TC       OVERFLOW
001304:
001305:    7503           07067                           TC       DMPSUB
001306:    7504           52113                           DXCH     VBUF       +4                         #  GO ADD -X2M3 TO X3M2 TO COMPLETE THE X
001307:    7505           16754                           TCF      ENDVXV                                #  COMPONENT (TAIL END OF DAD).
001308:
001309:                                                                                                  #           THE MPACVBUF SUBROUTINE SAVES THE VECTOR IN MPAC IN VBUF WITHOUT CLOBBERING MPAC.
001310:
001311:    7506           00006        MPACVBUF           EXTEND                                         #  CALLED BY MXV, VXM, AND UNIT.
001312:    7507           30141                           DCA      MPAC
001313:    7510           52107                           DXCH     VBUF
001314:    7511           00006                           EXTEND
001315:    7512           30144                           DCA      MPAC       +3
001316:    7513           52111                           DXCH     VBUF       +2
001317:    7514           00006                           EXTEND
001318:    7515           30146                           DCA      MPAC       +5
001319:    7516           52113                           DXCH     VBUF       +4
001320:    7517           00002                           TC       Q                                     #  RETURN TO CALLER.
001321:


001323:                                                                                                  #           INTERPRETIVE INSTRUCTIONS WHOSE EXECUTION CONSISTS OF PRINCIPALLY CALLING SUBROUTINES.
001324:
001325:    7520           07067        DMP1               TC       DMPSUB                                #  DMP INSTRUCTIONS
001326:    7521           16014                           TCF      DANZIG
001327:
001328:    7522           07067        DMPR               TC       DMPSUB
001329:    7523           07117                           TC       ROUNDSUB   +1                         #  (C(A) = +0).
001330:    7524           16014                           TCF      DANZIG
001331:
001332:    7525           00006        DDV                EXTEND
001333:    7526           50102                           INDEX    ADDRWD                                #  MOVE DIVIDEND INTO BUF.
001334:    7527           30001                           DCA      0
001335:    7530           17535                           TCF      BDDV       +4
001336:
001337:    7531           00006        BDDV               EXTEND                                         #  MOVE DIVISOR INTO MPAC SAVING MPAC, THE
001338:    7532           50102                           INDEX    ADDRWD                                #  DIVIDEND, IN BUF.
001339:    7533           30001                           DCA      0
001340:    7534           52141                           DXCH     MPAC
001341:    7535           52115                 +4        DXCH     BUF
001342:    7536           37665                           CAF      ZERO                                  #  DIVIDE ROUTINES IN BANK 0.
001343:    7537           54004                           TS       FBANK
001344:    7540           12332                           TCF      DDV/BDDV
001345:
001346:    7541           30102        SETPD              CA       ADDRWD                                #  ANYWHERE IN ERASABLE IN GENERAL, BUT
001347:    7542           54152                           TS       PUSHLOC                               #  ALMOST ALWAYS IN THE WORK AREA.
001348:    7543           16016                           TCF      NOIBNKSW                              #  NO FBANK SWITCH REQUIRED.
001349:
001350:    7544           37665        TSLC               CAF      ZERO                                  #  SHIFTING ROUTINES LOCATED IN BANK 00.
001351:    7545           54004                           TS       FBANK
001352:    7546           12153                           TCF      TSLC2
001353:
001354:    7547           36027        GSHIFT             CAF      LOW7                                  #  USED AS MASK AT GENSHIFT. THIS PROCESSES
001355:    7550           54004                           TS       FBANK                                 #  ANY SHIFT INSTRUCTION (EXCEPT TSLC) WITH
001356:    7551           12174                           TCF      GENSHIFT                              #  AN ADDRESS (ROUTINES IN BANK 0).
001357:


001359:                                                                                                  #           THE FOLLOWING IS THE PROLOGUE TO V/SC. IF THE PRESENT MODE IS VECTOR, IT SAVES THE SCALAR AT X IN BUF
001360:                                                                                                  #  AND CALLS THE V/SC ROUTINE IN BANK 0. IF THE PRESENT MODE IS SCALAR, IT MOVES THE VECTOR AT X INTO MPAC, SAVING
001361:                                                                                                  #  THE SCALAR IN MPAC IN BUF BEFORE CALLING THE V/SC ROUTINE IN BANK 0.
001362:
001363:    7552           10147        V/SC               CCS      MODE
001364:    7553           17564                           TCF      DV/SC                                 #  MOVE VECTOR INTO MPAC.
001365:    7554           17564                           TCF      DV/SC
001366:
001367:    7555           00006        VV/SC              EXTEND
001368:    7556           50102                           INDEX    ADDRWD
001369:    7557           30001                           DCA      0
001370:    7560           52115        V/SC1              DXCH     BUF                                   #  IN BOTH CASES, VECTOR IS NOW IN MPAC AND
001371:    7561           37665                           CAF      ZERO                                  #  SCALAR IN BUF.
001372:    7562           54004                           TS       FBANK
001373:    7563           12576                           TCF      V/SC2
001374:
001375:    7564           00006        DV/SC              EXTEND
001376:    7565           50102                           INDEX    ADDRWD
001377:    7566           30003                           DCA      2
001378:    7567           52144                           DXCH     MPAC       +3
001379:    7570           00006                           EXTEND
001380:    7571           50102                           INDEX    ADDRWD
001381:    7572           30005                           DCA      4
001382:    7573           52146                           DXCH     MPAC       +5
001383:
001384:    7574           47657                           CS       ONE                                   #  CHANGE MODE TO VECTOR.
001385:    7575           54147                           TS       MODE
001386:
001387:    7576           00006                           EXTEND
001388:    7577           50102                           INDEX    ADDRWD
001389:    7600           30001                           DCA      0
001390:    7601           52141                           DXCH     MPAC
001391:    7602           17560                           TCF      V/SC1                                 #  FINISH PROLOGUE AT COMMON SECTION.
001392:


001394:                                                                                                  #           SIGN AND COMPLEMENT INSTRUCTIONS.
001395:
001396:    7603           50102        SIGN               INDEX    ADDRWD                                #  CALL COMP INSTRUCTION IF WORD AT X IS
001397:    7604           10000                           CCS      0                                     #  NEGATIVE NON-ZERO.
001398:    7605           16016                           TCF      NOIBNKSW
001399:    7606           17610                           TCF      +2
001400:    7607           17616                           TCF      COMP                                  #  DO THE COMPLEMENT.
001401:
001402:    7610           50102                           INDEX    ADDRWD
001403:    7611           10001                           CCS      1
001404:    7612           16016                           TCF      NOIBNKSW                              #  NO FBANK SWITCH REQIURED.
001405:    7613           16016                           TCF      NOIBNKSW                              #  NO FBANK SWITCH REQUIRED.
001406:    7614           17616                           TCF      COMP
001407:    7615           16016                           TCF      NOIBNKSW                              #  NO FBANK SWITCH REQUIRED.
001408:
001409:
001410:
001411:    7616           00006        COMP               EXTEND                                         #  COMPLEMENT DP MPAC IN EVERY CASE.
001412:    7617           40141                           DCS      MPAC
001413:    7620           52141                           DXCH     MPAC
001414:
001415:    7621           10147                           CCS      MODE                                  #  EITHER COMPLEMENT MPAC +3 OR THE REST OF
001416:    7622           17633                           TCF      DCOMP                                 #  THE VECTOR ACCUMULATOR.
001417:    7623           17633                           TCF      DCOMP
001418:
001419:    7624           00006                           EXTEND                                         #  VECTOR COMPLEMENT.
001420:    7625           40144                           DCS      MPAC       +3
001421:    7626           52144                           DXCH     MPAC       +3
001422:    7627           00006                           EXTEND
001423:    7630           40146                           DCS      MPAC       +5
001424:    7631           52146                           DXCH     MPAC       +5
001425:    7632           16014                           TCF      DANZIG
001426:
001427:    7633           40142        DCOMP              CS       MPAC       +2
001428:    7634           54142                           TS       MPAC       +2
001429:    7635           16014                           TCF      DANZIG
001430:


001432:                                                                                                  #           CONSTANTS REQUIRED IN FIXED-FIXED
001433:
001434:    7636           37777        DPOSMAX            OCT      37777
001435:    7637           37777        POSMAX             OCT      37777
001436:    7640     7640               LIMITS             EQUALS   POSMAX     +1
001437:    7640           57777        NEG1/2             OCT      -20000                                #  MUST BE TWO LOCATIONS AHEAD OF POS1/2.
001438:
001439:    7641           40000        BIT15              OCT      40000                                 #  BIT TABLE FOLLOWS.
001440:    7642           20000        BIT14              OCT      20000
001441:    7643           10000        BIT13              OCT      10000
001442:    7644           04000        BIT12              OCT      04000
001443:    7645           02000        BIT11              OCT      02000
001444:    7646           01000        BIT10              OCT      01000
001445:    7647           00400        BIT9               OCT      00400
001446:    7650           00200        BIT8               OCT      00200
001447:    7651           00100        BIT7               OCT      00100
001448:    7652           00040        BIT6               OCT      00040
001449:    7653           00020        BIT5               OCT      00020
001450:    7654           00010        BIT4               OCT      00010
001451:    7655           00004        BIT3               OCT      00004
001452:    7656           00002        BIT2               OCT      00002
001453:    7657           00001        BIT1               OCT      00001
001454:
001455:    7660     7641               NEGMAX             EQUALS   BIT15
001456:    7660     7642               HALF               EQUALS   BIT14
001457:    7660     7642               POS1/2             EQUALS   HALF
001458:    7660     7643               QUARTER            EQUALS   BIT13
001459:    7660     7645               2K                 EQUALS   BIT11
001460:    7660           00013        ELEVEN             DEC      11         B-14
001461:    7661     7660               NOUTCON            =        ELEVEN
001462:    7661           00012        TEN                DEC      10         B-14
001463:    7662           00011        NINE               DEC      9          B-14
001464:    7663     7654               EIGHT              EQUALS   BIT4
001465:    7663           00007        SEVEN              OCT      7
001466:    7664     6162               SIX                EQUALS   REVCNT
001467:    7664           00005        FIVE               OCT      5
001468:    7665     7655               FOUR               EQUALS   BIT3
001469:    7665     6165               THREE              EQUALS   NO.WDS     +1
001470:    7665     7656               TWO                EQUALS   BIT2
001471:    7665     7657               ONE                EQUALS   BIT1
001472:    7665           00000        ZERO               OCT      0
001473:    7666           77777        NEG0               OCT      77777
001474:    7667           77776        NEGONE             DEC      -1         B-14
001475:
001476:    7670     7667               NEG1               =        NEGONE
001477:    7670     7667               MINUS1             EQUALS   NEG1
001478:    7670           77775        NEG2               OCT      77775
001479:    7671           77774        NEG3               DEC      -3         B-14
001480:    7672           00777        LOW9               OCT      777
001481:    7673           00017        LOW4               OCT      17
001482:


001484:    7674     7663               LOW3               EQUALS   SEVEN
001485:    7674     6165               LOW2               EQUALS   THREE
001486:
001487:    7674           00030        CALLCODE           OCT      00030
001488:    7675           40014        DLOADCOD           OCT      40014
001489:    7676     7641               VLOADCOD           EQUALS   BIT15
001490:    7676           40015        DLOAD*             OCT      40015
001491:    7677     6042               VLOAD*             EQUALS   OCT40001
001492:    7677           00106        LVBUF              ADRES    VBUF
001493:    7700           30000        BIT13-14           OCTAL    30000
001494:    7701                        ENDINTF            EQUALS
001495:


001497:                                                                                                  #  SHIFTING AND ROUNDING PACKAGE.
001498:
001499:                                                                                                  #           THE FOLLOWING SHORT SHIFT CODES REQUIRE NO ADDRESS WORD:
001500:
001501:                                                                                                  #           1.  SR1 TO SR4         SCALAR SHIFT RIGHT.
001502:                                                                                                  #           2.  SR1R TO SR4R       SCALAR SHIFT RIGHT AND ROUND.
001503:                                                                                                  #           3.  SL1 TO SL4         SCALAR SHIFT LEFT.
001504:                                                                                                  #           4.  SL1R TO SL4R       SCALAR SHIFT LEFT AND ROUND.
001505:
001506:                                                                                                  #           5.  VSR1 TO VSR8       VECTOR SHIFT RIGHT (ALWAYS ROUNDS).
001507:                                                                                                  #           6.  VSL1 TO VSL8       VECTOR SHIFT LEFT (NEVER ROUNDS).
001508:
001509:                                                                                                  #           THE FOLLOWING CODES REQUIRE AND ADDRESS WHICH MAY BE INDEXED:*
001510:
001511:                                                                                                  #           1.  SR                 SCALAR SHIFT RIGHT.
001512:                                                                                                  #           2.  SRR                SCALAR SHIFT RIGHT AND ROUND.
001513:                                                                                                  #           3.  SL                 SCALAR SHIFT LEFT.
001514:                                                                                                  #           4.  SLR                SCALAR SHIFT LEFT AND ROUND.
001515:
001516:                                                                                                  #           5.  VSR                VECTOR SHIFT RIGHT.
001517:                                                                                                  #           6.  VSL                VECTOR SHIFT LEFT.
001518:
001519:                                                                                                  #  *  IF THE ADDRESS IS INDEXED, AND THE INDEX MODIFICATION RESULTS IN A NEGATIVE SHIFT COUNT, A SHIFT OF THE
001520:                                                                                                  #  ABSOLUTE VALUE OF THE COUNT IS DONE IN THE OPPOSITE DIRECTION.
001521:
001522:
001523: 00,2000                                           SETLOC   10000                                 #  BANK 0 PORTION FOLLOWS.
001524:
001525: 00,2000           36162        SHORTT             CAF      SIX                                   #  SCALAR SHORT SHIFTS COME HERE. THE SHIFT
001526: 00,2001           70020                           MASK     CYR                                   #  COUNT-1 IS NOW IN BITS 2-3 OF CYR. THE
001527: 00,2002           54021                           TS       SR                                    #  ROUNDING BIT IS IN BIT1 AT THIS POINT.
001528:
001529: 00,2003           10020                           CCS      CYR                                   #  SEE IF RIGHT OR LEFT SHIFT DESIRED.
001530: 00,2004           12062                           TCF      TSSL                                  #  SHIFT LEFT.
001531:
001532: 00,2005           00024        SRDDV              DEC      20         B-14                       #  MPTEMP SETTING FOR SR BEFORE DDV.
001533:
001534: 00,2006           50021        TSSR               INDEX    SR                                    #  GET SHIFTING BIT.
001535: 00,2007           37642                           CAF      BIT14
001536: 00,2010           54121                           TS       MPTEMP
001537:
001538: 00,2011           10020                           CCS      CYR                                   #  SEE IF A ROUND IS DESIRED.
001539: 00,2012           02031        RIGHTR             TC       MPACSRND                              #  YES - SHIFT RIGHT AND ROUND.
001540: 00,2013           16013                           TCF      NEWMODE                               #  SET MODE TO DP (C(A) = 0).
001541: 00,2014           30121        MPACSHR            CA       MPTEMP                                #  DO A TRIPLE PRECISION SHIFT RIGHT.
001542: 00,2015           00006                           EXTEND
001543: 00,2016           70142                           MP       MPAC       +2
001544: 00,2017           54142                 +3        TS       MPAC       +2                         #  (EXIT FROM SQRT AND ABVAL).
001545: 00,2020           30121                           CA       MPTEMP
001546:


001548: 00,2021           00006                           EXTEND
001549: 00,2022           70140                           MP       MPAC                                  #  SHIFT MAJOR PART INTO A,L AND PLACE IN
001550: 00,2023           52141                           DXCH     MPAC                                  #  MPAC,+1.
001551: 00,2024           30121                           CA       MPTEMP
001552: 00,2025           00006                           EXTEND
001553: 00,2026           70001                           MP       L                                     #  ORIGINAL C(MPAC +1).
001554: 00,2027           20142                           DAS      MPAC       +1                         #  GUARANTEED NO OVERFLOW.
001555: 00,2030           16014                           TCF      DANZIG
001556:
001557:                                                                                                  #           MPAC SHIFT RIGHT AND ROUND SUBROUTINES
001558:
001559: 00,2031           30142        MPACSRND           CA       MPAC       +2                         #  WE HAVE TO DO ALL THREE MULTIPLIES SINCE
001560: 00,2032           00006                           EXTEND                                         #  MPAC +1 AND MPAC +2 MIGHT HAVE SIGN
001561: 00,2033           70121                           MP       MPTEMP                                #  DISAGREEMENT WITH A SHIFT RIGHT OF 1.
001562: 00,2034           56141                           XCH      MPAC       +1
001563: 00,2035           00006                           EXTEND
001564: 00,2036           70121                           MP       MPTEMP
001565: 00,2037           56141                           XCH      MPAC       +1                         #  TRIAL MINOR PART.
001566: 00,2040           60001                           AD       L
001567:
001568: 00,2041           60000        VSHR2              DOUBLE                                         #  (FINISH VECTOR COMPONENT SHIFT RIGHT
001569: 00,2042           54142                           TS       MPAC       +2                         #  AND ROUND.
001570: 00,2043           12045                           TCF      +2
001571: 00,2044           26141                           ADS      MPAC       +1                         #  GUARANTEED NO OVERFLOW.
001572:
001573: 00,2045           37665                           CAF      ZERO
001574: 00,2046           54142                           TS       MPAC       +2
001575: 00,2047           56140                           XCH      MPAC                                  #  SETTING TO ZERO SO FOLLOWING DAS WORKS.
001576: 00,2050           00006                           EXTEND
001577: 00,2051           70121                           MP       MPTEMP
001578: 00,2052           20141                           DAS      MPAC                                  #  AGAIN NO OVERFLOW.
001579: 00,2053           00002                           TC       Q
001580:
001581: 00,2054           30121        VSHRRND            CA       MPTEMP                                #  ENTRY TO SHIFT RIGHT AND ROUND MPAC WHEN
001582: 00,2055           00006                           EXTEND                                         #  MPAC CONTAINS A VECTOR COMPONENT.
001583: 00,2056           70141                           MP       MPAC       +1
001584: 00,2057           54141                           TS       MPAC       +1
001585: 00,2060           56001                           XCH      L
001586: 00,2061           12041                           TCF      VSHR2                                 #  GO ADD ONE IF NECESSARY AND FINISH.
001587:


001589:                                                                                                  #           ROUTINE FOR SHORT SCALAR SHIFT LEFT (AND MAYBE ROUND).
001590:
001591: 00,2062           30021        TSSL               CA       SR                                    #  GET SHIFT COUNT FOR SR.
001592: 00,2063           54121                 +1        TS       MPTEMP
001593:
001594: 00,2064           00006                 +2        EXTEND                                         #  ENTRY HERE FROM SL FOR SCALARS.
001595: 00,2065           30142                           DCA      MPAC       +1                         #  SHIFTING LEFT ONE PLACE AT A TIME IS
001596: 00,2066           20142                           DAS      MPAC       +1                         #  FASTER THAN DOING THE WHOLE SHIFT WITH
001597: 00,2067           60140                           AD       MPAC                                  #  MULTIPLIES ASSUMING THAT FREQUENCY OF
001598: 00,2070           60140                           AD       MPAC                                  #  SHIFT COUNTS GOES DOWN RAPIDLY AS A
001599: 00,2071           54140                           TS       MPAC                                  #  FUNCTION OF THEIR MAGNITUDE.
001600: 00,2072           12074                           TCF      +2
001601: 00,2073           54105                           TS       OVFIND                                #  OVERFLOW. (LEAVES OVERFLOW-CORRECTED
001602:                                                                                                  #  RESULT ANYWAY).
001603: 00,2074           10121                           CCS      MPTEMP                                #  LOOP ON DECREMENTED SHIFT COUNT.
001604: 00,2075           12063                           TCF      TSSL       +1
001605:
001606: 00,2076           10020                           CCS      CYR                                   #  SEE IF ROUND WANTED.
001607: 00,2077           07116        ROUND              TC       ROUNDSUB                              #  YES - ROUND AND EXIT.
001608: 00,2100           16014                           TCF      DANZIG                                #  SL LEAVES A ZERO IN CYR FOR NO ROUND.
001609: 00,2101           16014                           TCF      DANZIG                                #  NO - EXIT IMMEDIATELY
001610:


001612:                                                                                                  #  VECTOR SHIFTING ROUTINES.
001613:
001614: 00,2102           37663        SHORTV             CAF      LOW3                                  #  SAVE 3 BIT SHIFT COUNT - 1 WITHOUT
001615: 00,2103           70020                           MASK     CYR                                   #  EDITING CYR.
001616: 00,2104           54121                           TS       MPTEMP
001617: 00,2105           10020                           CCS      CYR                                   #  SEE IF LEFT OR RIGHT SHIFT.
001618: 00,2106           12126                           TCF      VSSL                                  #  VECTOR SHIFT LEFT.
001619: 00,2107           00176        OCT176             OCT      176                                   #  USED IN PROCESSED SHIFTS WITH - COUNT.
001620:
001621: 00,2110           50121        VSSR               INDEX    MPTEMP                                #  (ENTRY FROM SR). PICK UP SHIFTING BIT.
001622: 00,2111           37642                           CAF      BIT14                                 #  MPTEMP CONTAINS THE SHIFT COUNT - 1.
001623: 00,2112           54121                           TS       MPTEMP
001624: 00,2113           02054                           TC       VSHRRND                               #  SHIFT X COMPONENT.
001625:
001626: 00,2114           52141                           DXCH     MPAC                                  #  SWAP X AND Y COMPONENTS.
001627: 00,2115           52144                           DXCH     MPAC       +3
001628: 00,2116           52141                           DXCH     MPAC
001629: 00,2117           02054                           TC       VSHRRND                               #  SHIFT Y COMPONENT.
001630:
001631: 00,2120           52141                           DXCH     MPAC                                  #  SWAP Y AND Z COMPONENTS.
001632: 00,2121           52146                           DXCH     MPAC       +5
001633: 00,2122           52141                           DXCH     MPAC
001634: 00,2123           02054                           TC       VSHRRND                               #  SHIFT Z COMPONENT.
001635:
001636: 00,2124           17373                           TCF      VROTATEX                              #  RESTORE COMPONENTS TO PROPER PLACES.
001637:


001639:                                                                                                  #  VECTOR SHIFT LEFT - DONE ONE PLACE AT A TIME.
001640:
001641: 00,2125           54121                 -1        TS       MPTEMP                                #  SHIFTING LOOP.
001642:
001643: 00,2126           00006        VSSL               EXTEND
001644: 00,2127           30141                           DCA      MPAC
001645: 00,2130           20141                           DAS      MPAC
001646: 00,2131           00006                           EXTEND
001647: 00,2132           12134                           BZF      +2
001648: 00,2133           07007                           TC       OVERFLOW
001649:
001650: 00,2134           00006                           EXTEND
001651: 00,2135           30144                           DCA      MPAC       +3
001652: 00,2136           20144                           DAS      MPAC       +3
001653: 00,2137           00006                           EXTEND
001654: 00,2140           12142                           BZF      +2
001655: 00,2141           07007                           TC       OVERFLOW
001656:
001657: 00,2142           00006                           EXTEND
001658: 00,2143           30146                           DCA      MPAC       +5
001659: 00,2144           20146                           DAS      MPAC       +5
001660: 00,2145           00006                           EXTEND
001661: 00,2146           12150                           BZF      +2
001662: 00,2147           07007                           TC       OVERFLOW
001663:
001664: 00,2150           10121                           CCS      MPTEMP                                #  LOOP ON DECREMENTED SHIFT COUNTER.
001665: 00,2151           12125                           TCF      VSSL       -1
001666: 00,2152           16014                           TCF      DANZIG                                #  EXIT.
001667:


001669:                                                                                                  #           TSLC - TRIPLE SHIFT LEFT AND COUNT. SHIFTS MPAC LEFT UNTIL GREATER THAN .5 IN MAGNITUDE, LEAVING
001670:                                                                                                  #  THE COMPLEMENT OF THE NUMBER OF SHIFTS REQUIRED IN X.
001671:
001672: 00,2153           54121        TSLC2              TS       MPTEMP                                #  START BY ZEROING SHIFT COUNT (IN A NOW).
001673: 00,2154           06711                           TC       BRANCH                                #  EXIT WITH NO SHIFTING IF ARGUMENT ZERO.
001674: 00,2155           12157                           TCF      +2
001675: 00,2156           12172                           TCF      ENDTSLC                               #  STORES ZERO SHIFT COUNT IN THIS CASE.
001676:
001677: 00,2157           30140                           CA       MPAC                                  #  BEGIN NORMALIZATION LOOP.
001678: 00,2160           12167                           TCF      TSLCTEST
001679:
001680: 00,2161           24121        TSLCLOOP           INCR     MPTEMP                                #  INCREMENT SHIFT COUNTER.
001681: 00,2162           00006                           EXTEND
001682: 00,2163           30142                           DCA      MPAC       +1
001683: 00,2164           20142                           DAS      MPAC       +1
001684: 00,2165           60140                           AD       MPAC
001685: 00,2166           26140                           ADS      MPAC
001686: 00,2167           60000        TSLCTEST           DOUBLE                                         #  SEE IF (ANOTHER) SHIFT IS REQUIRED
001687: 00,2170           54000                           OVSK
001688: 00,2171           12161                           TCF      TSLCLOOP                              #  YES - INCREMENT COUNT AND SHIFT AGAIN.
001689:
001690: 00,2172           40121        ENDTSLC            CS       MPTEMP
001691: 00,2173           16627                           TCF      STORE1                                #  STORE SHIFT COUNT AND RETURN TO DANZIG.
001692:


001694:                                                                                                  #           THE FOLLOWING ROUTINES PROCESSES THE GENERAL SHIFT INSTRUCTIONS SR, SRR, SL, AND SLR.
001695:                                                                                                  #  THE GIVEN ADDRESS IS DECODED AS FOLLOWS:
001696:
001697:                                                                                                  #           BITS 1-7        SHIFT COUNT (SUBADDRESS) LESS THAN 125 DECIMAL.
001698:                                                                                                  #           BIT 8           PSEUDO SIGN BIT (DETECTS CHANGE IN SIGN IN INDEXED SHIFTS).
001699:                                                                                                  #           BIT 9           0 FOR LEFT SHIFT, AND 1 FOR RIGHT SHIFT.
001700:                                                                                                  #           BIT 10          1 FOR TERMINAL ROUND ON SCALAR SHIFTS, 0 OTHERWISE
001701:                                                                                                  #           BITS 11-15      0.
001702:
001703:                                                                                                  #  THE ABOVE ENCODING IS DONE BY THE YUL SYSTEM.
001704:
001705:
001706:
001707: 00,2174           70102        GENSHIFT           MASK     ADDRWD                                #  GET SHIFT COUNT, TESTING FOR ZERO.
001708: 00,2175           10000                           CCS      A                                     #  (ARRIVES WITH C(A) = LOW7).
001709: 00,2176           12204                           TCF      GENSHFT2                              #  IF NON-ZERO, PROCEED WITH DECREMENTED CT
001710:
001711: 00,2177           37646                           CAF      BIT10                                 #  ZERO SHIFT COUNT. NO SHIFTS NEEDED BUT
001712: 00,2200           70102                           MASK     ADDRWD                                #  WE MIGHT HAVE TO ROUND MPAC ON SLR AND
001713: 00,2201           10000                           CCS      A                                     #  SRR (SCALAR ONLY).
001714: 00,2202           07116                           TC       ROUNDSUB
001715: 00,2203           16014                           TCF      DANZIG
001716:
001717: 00,2204           54121        GENSHFT2           TS       MPTEMP                                #  DECREMENTED SHIFT COUNT TO MPTEMP.
001718: 00,2205           37650                           CAF      BIT8                                  #  TEST MEANING OF LOW SEVEN BIT COUNT IN
001719: 00,2206           00006                           EXTEND                                         #  MPTEMP NOW.
001720: 00,2207           70102                           MP       ADDRWD
001721: 00,2210           76165                           MASK     LOW2                                  #  JUMPS ON SHIFT DIRECTION (BIT8) AND
001722: 00,2211           50000                           INDEX    A
001723: 00,2212           12213                           TCF      +1                                    #  ORIGINAL SHIFT DIRECTION (BIT 9)
001724: 00,2213           12312                           TCF      RIGHT-                                #  NEGATIVE SHIFT COUNT FOR SL OR SLR.
001725: 00,2214           12321                           TCF      LEFT                                  #  SL OR SLR.
001726: 00,2215           12316                           TCF      LEFT-                                 #  NEGATIVE SHIFT COUNT WITH SR OR SRR.
001727:


001729:                                                                                                  #           GENERAL SHIFT RIGHT
001730:
001731: 00,2216           10147        RIGHT              CCS      MODE                                  #  SET IF VECTOR OR SCALAR.
001732: 00,2217           12257                           TCF      GENSCR
001733: 00,2220           12257                           TCF      GENSCR
001734:
001735: 00,2221           30121                           CA       MPTEMP                                #  SEE IF SHIFT COUNT LESS THAN 13D.
001736: 00,2222           62273        VRIGHT2            AD       NEG12
001737: 00,2223           00006                           EXTEND
001738: 00,2224           62110                           BZMF     VSSR                                  #  IF SO, BRANCH AND SHIFT IMMEDIATELY.
001739:
001740: 00,2225           67667                           AD       NEGONE                                #  IF NOT, REDUCE MPTEMP BY A TOTAL OF 14.
001741: 00,2226           54121                           TS       MPTEMP                                #  AND DO A SHIFT RIGHT AND ROUND BY 14.
001742: 00,2227           37665                           CAF      ZERO                                  #  THE ROUND AT THIS STAGE MAY INTRODUCE A
001743: 00,2230           54001                           TS       L                                     #  ONE BIT ERROR IN A SHIFT RIGHT 15D.
001744: 00,2231           56140                           XCH      MPAC
001745: 00,2232           56141                           XCH      MPAC       +1
001746: 00,2233           02252                           TC       SETROUND                              #  X COMPONENT NOW SHIFTED, SO MAKE UP THE
001747: 00,2234           20141                           DAS      MPAC                                  #  ROUNDING QUANTITY (0 IN A AND 0 OR +-1
001748:                                                                                                  #  IN L).
001749: 00,2235           56143                           XCH      MPAC       +3                         #  REPEAT THE ABOVE PROCESS FOR Y AND Z.
001750: 00,2236           56144                           XCH      MPAC       +4
001751: 00,2237           02252                           TC       SETROUND
001752: 00,2240           20144                           DAS      MPAC       +3                         #  NO OVERFLOW ON THESE ADDS.
001753:
001754: 00,2241           56145                           XCH      MPAC       +5
001755: 00,2242           56146                           XCH      MPAC       +6
001756: 00,2243           02252                           TC       SETROUND
001757: 00,2244           20146                           DAS      MPAC       +5
001758:
001759: 00,2245           10121                           CCS      MPTEMP                                #  SEE IF DONE, DOING FINAL DECREMENT.
001760: 00,2246           12222                           TCF      VRIGHT2
001761: 00,2247           13630        TCSUBTR            TCF      SUBTR
001762: 00,2250           04604        BIASLO             DEC      .2974      B-1                        #  SQRT CONSTANT
001763:
001764: 00,2251           16014                           TCF      DANZIG
001765:
001766:
001767:
001768: 00,2252           60000        SETROUND           DOUBLE                                         #  MAKES UP ROUNDING QUANTITY FROM ARRIVING
001769: 00,2253           54142                           TS       MPAC       +2                         #  C(A). L IS ZERO INITIALLY.
001770: 00,2254           37665                           CAF      ZERO
001771: 00,2255           56001                           XCH      L
001772: 00,2256           00002                           TC       Q                                     #  RETURN AND DO THE DAS, RESETTING L TO 0.
001773:


001775:                                                                                                  #           PROCESS SR AND SRR FOR SCALARS.
001776:
001777: 00,2257           30121        GENSCR             CA       MPTEMP                                #  SEE IF THE ORIGINAL SHIFT COUNT WAS LESS
001778: 00,2260           62273                 +1        AD       NEG12                                 #  THAN 14D.
001779: 00,2261           00006                           EXTEND
001780: 00,2262           62302                           BZMF     DOSSHFT                               #  DO THE SHIFT IMMEDIATELY IF SO.
001781:
001782: 00,2263           67667                 +4        AD       NEGONE                                #  IF NOT, DECREMENT SHIFT COUNT BY 14D AND
001783: 00,2264           54121                           TS       MPTEMP                                #  SHIFT MPAC RIGHT 14 PLACES.
001784: 00,2265           37665                           CAF      ZERO
001785: 00,2266           56140                           XCH      MPAC
001786: 00,2267           56141                           XCH      MPAC       +1
001787: 00,2270           54142                           TS       MPAC       +2
001788: 00,2271           10121                           CCS      MPTEMP                                #  SEE IF FINISHED, DO FINAL DECREMENT.
001789: 00,2272           02260                           TC       GENSCR     +1
001790: 00,2273           77763        NEG12              DEC      -12        B-14
001791: 00,2274           22650        SLOPEHI            DEC      .5884                                 #  SQRT CONSTANT.
001792: 00,2275           37646                           CAF      BIT10                                 #  FINISHED WITH SHIFT. SEE IF ROUND
001793: 00,2276           70102                           MASK     ADDRWD                                #  WANTED.
001794: 00,2277           10000                           CCS      A
001795: 00,2300           07116                           TC       ROUNDSUB
001796: 00,2301           16014                           TCF      DANZIG                                #  DO SO AND/OR EXIT.
001797:
001798: 00,2302           50121        DOSSHFT            INDEX    MPTEMP                                #  PICK UP SHIFTING BIT.
001799: 00,2303           37642                           CAF      BIT14
001800: 00,2304           54121                           TS       MPTEMP
001801: 00,2305           37646                           CAF      BIT10                                 #  SEE IF TERMINAL ROUND DESIRED.
001802: 00,2306           70102                           MASK     ADDRWD
001803: 00,2307           10000                           CCS      A
001804: 00,2310           12012                           TCF      RIGHTR                                #  YES.
001805: 00,2311           12014                           TCF      MPACSHR                               #  JUST SHIFT RIGHT.
001806:


001808:                                                                                                  #           PROCESS THE RIGHT- (SL(R) WITH A NEGATIVE COUNT), LEFT-, AND LEFT OPTIONS.
001809:
001810: 00,2312           40121        RIGHT-             CS       MPTEMP                                #  GET ABSOLUTE VALUE - 1 OF SHIFT COUNT
001811: 00,2313           62107                           AD       OCT176                                #  UNDERSTANDING THAT BIT8 (PSEUDO-SIGN)
001812: 00,2314           54121                           TS       MPTEMP                                #  WAS 1 INITIALLY.
001813: 00,2315           12216                           TCF      RIGHT                                 #  DO NORMAL SHIFT RIGHT.
001814:
001815: 00,2316           40121        LEFT-              CS       MPTEMP                                #  SAME PROLOGUE TO LEFT FOR INDEXED RIGHT
001816: 00,2317           62107                           AD       OCT176                                #  SHIFTS WHOSE NET SHIFT COUNT IS NEGATIVE
001817: 00,2320           54121                           TS       MPTEMP
001818:
001819: 00,2321           10147        LEFT               CCS      MODE                                  #  SINCE LEFT SHIFTING IS SONE ONE PLACE AT
001820: 00,2322           12325                           TCF      GENSCL                                #  A TIME, NO COMPARISON WITH 14 NEED BE
001821: 00,2323           12325                           TCF      GENSCL                                #  DONE. FOR SCALARS, SEE IF TERMINAL ROUND
001822: 00,2324           12126                           TCF      VSSL                                  #  DESIRED. FOR VECTORS, SHIFT IMMEDIATELY.
001823:
001824: 00,2325           37652        GENSCL             CAF      BIT6                                  #  PUT ROUNDING BIT (BIT10 OF ADDRWD) INTO
001825: 00,2326           00006                           EXTEND                                         #  BIT 15 OF CYR WHERE THE ROUNDING BIT OF
001826: 00,2327           70102                           MP       ADDRWD                                #  A SHORT SHIFT LEFT WOULD BE.
001827: 00,2330           54020                           TS       CYR
001828: 00,2331           12064                           TCF      TSSL       +2                         #  DO THE SHIFT.
001829:


001831:                                                                                                  #           SCALAR DIVISION INSTRUCTIONS, DDV AND BDDV, ARE EXECUTED HERE. AT THIS POINT, THE DIVIDEND IS IN MPAC
001832:                                                                                                  #  AND THE DIVISOR IS IN BUF.
001833:
001834: 00,2332           47657        DDV/BDDV           CS       ONE                                   #  INITIALIZATION
001835: 00,2333           54122                           TS       DVSIGN                                #  +-1 FOR POSITIVE QUOTIENT - -0 FOR NEG.
001836: 00,2334           54123                           TS       DVNORMCT                              #  DIVIDEND NORMALIZATION COUNT.
001837: 00,2335           54124                           TS       MAXDVSW                               #  NEAR-ONE DIVIDE FLAG.
001838:
001839: 00,2336           10114                           CCS      BUF                                   #  FORCE BUF POSITIVE WITH THE MAJOR PART
001840: 00,2337           12366                           TCF      BUF+                                  #  NON-ZERO.
001841: 00,2340           12342                           TCF      +2
001842: 00,2341           12362                           TCF      BUF-
001843:
001844: 00,2342           56115                           XCH      BUF        +1                         #  SHIFT DIVIDEND AND DIVISOR LEFT 14
001845: 00,2343           56114                           XCH      BUF
001846: 00,2344           56141                           XCH      MPAC       +1
001847: 00,2345           56140                           XCH      MPAC
001848: 00,2346           00006                           EXTEND                                         #  CHECK FOR OVERFLOW
001849: 00,2347           12351                           BZF      +2
001850: 00,2350           12355                           TCF      DVOVF
001851:
001852: 00,2351           10114                           CCS      BUF                                   #  TRY AGAIN ON FORMER MINOR PART.
001853: 00,2352           12366                           TCF      BUF+
001854: 00,2353           12355                           TCF      DVOVF                                 #  OVERFLOW ON ZERO DIVISOR.
001855: 00,2354           12362                           TCF      BUF-
001856:
001857: 00,2355           37637        DVOVF              CAF      POSMAX                                #  ON DIVISION OVERFLOW OF ANY SORT, SET
001858: 00,2356           54140                           TS       MPAC                                  #  SET DP MPAC TO +-POSMAX.
001859: 00,2357           02552                           TC       FINALDV    +3
001860: 00,2360           37657                           CAF      ONE                                   #  SET OVERFLOW INDICATOR AND EXIT.
001861: 00,2361           17061                           TCF      SETOVF
001862:
001863: 00,2362           00006        BUF-               EXTEND                                         #  IF BUF IS NEGATIVE, COMPLEMENT IT AND
001864: 00,2363           40115                           DCS      BUF                                   #  MAINTAIN DVSIGN FOR FINAL QUOTIENT SIGN.
001865: 00,2364           52115                           DXCH     BUF
001866: 00,2365           24122                           INCR     DVSIGN                                #  NOW -0.
001867:
001868: 00,2366           10140        BUF+               CCS      MPAC                                  #  FORCE MPAC POSITIVE, CHECKING FOR ZERO
001869: 00,2367           12403                           TCF      MPAC+                                 #  DIVIDEND IN THE PROCESS.
001870: 00,2370           12372                           TCF      +2
001871: 00,2371           12377                           TCF      MPAC-
001872: 00,2372           10141                           CCS      MPAC       +1
001873: 00,2373           12403                           TCF      MPAC+
001874: 00,2374           16014                           TCF      DANZIG                                #  EXIT IMMEDIATELY ON ZERO DIVIDEND.
001875: 00,2375           12377                           TCF      MPAC-
001876: 00,2376           16014                           TCF      DANZIG
001877:
001878: 00,2377           00006        MPAC-              EXTEND                                         #  FORCE MPAC POSITIVE AS BUF IN BUF-.
001879: 00,2400           40141                           DCS      MPAC
001880: 00,2401           52141                           DXCH     MPAC
001881:


001883: 00,2402           24122                           INCR     DVSIGN                                #  NOW +1 OR -0.
001884:


001886: 00,2403           40140        MPAC+              CS       MPAC                                  #  CHECK FOR DIVISION OVERFLOW. IF THE
001887: 00,2404           67667                           AD       NEGONE                                #  MAJOR PART OF THE DIVIDEND IS LESS THAN
001888: 00,2405           60114                           AD       BUF                                   #  THE MAJOR PART OF THE DIVISOR BY AT
001889: 00,2406           10000                           CCS      A                                     #  LEAST TWO, WE CAN PROCEED IMMEDIATELY
001890: 00,2407           12451                           TCF      DVNORM                                #  WITHOUT NORMALIZATION PRODUCING A DVMAX.
001891: 00,2410           60001        -1/2+2             OCT      60001                                 #  USED IN SQRTSUB.
001892:
001893: 00,2411           12412                           TCF      +1                                    #  IF THE ABOVE DOES NOT HOLD, FORCE SIGN
001894: 00,2412           37642                           CAF      HALF                                  #  AGREEMENT IN NUMERATOR AND DENOMINATOR
001895: 00,2413           60000                           DOUBLE                                         #  TO FACILITATE OVERFLOW AND NEAR-ONE
001896: 00,2414           60141                           AD       MPAC       +1                         #  CHECKING.
001897: 00,2415           54141                           TS       MPAC       +1
001898: 00,2416           37665                           CAF      ZERO
001899: 00,2417           67637                           AD       POSMAX
001900: 00,2420           26140                           ADS      MPAC
001901:
001902: 00,2421           37642                           CAF      HALF                                  #  SAME FOR BUF.
001903: 00,2422           60000                           DOUBLE
001904: 00,2423           60115                           AD       BUF        +1
001905: 00,2424           54115                           TS       BUF        +1
001906: 00,2425           37665                           CAF      ZERO
001907: 00,2426           67637                           AD       POSMAX
001908: 00,2427           26114                           ADS      BUF
001909:
001910: 00,2430           40140                           CS       MPAC                                  #  CHECK MAGNITUDE OF SIGN-CORRECTED
001911: 00,2431           60114                           AD       BUF                                   #  OPERANDS.
001912: 00,2432           10000                           CCS      A
001913: 00,2433           12451                           TCF      DVNORM                                #  DIVIDE OK - WILL NOT BECOME MAXOV CASE.
001914: 00,2434           00117        LBUF2              ADRES    BUF2
001915: 00,2435           12355                           TCF      DVOVF                                 #  DIVISOR NOT LESS THAN DIVIDEND - OVF.
001916:
001917: 00,2436           54124                           TS       MAXDVSW                               #  IF THE MAJOR PARTS OF THE DIVIDEND AND
001918: 00,2437           40141                           CS       MPAC       +1                         #  DIVISOR ARE EQUAL, A SPECIAL APPROXIMA-
001919: 00,2440           60115                           AD       BUF        +1                         #  TION IS USED (PROVIDED THE DIVISION IS
001920: 00,2441           00006                           EXTEND                                         #  POSSIBLE, OF COURSE).
001921: 00,2442           62355                           BZMF     DVOVF
001922: 00,2443           12451                           TCF      DVNORM                                #  IF NO OVERFLOW.
001923:


001925: 00,2444           00006        BUFNORM            EXTEND                                         #  ADD -1 TO AUGMENT SHIFT COUNT AND SHIFT
001926: 00,2445           24123                           AUG      DVNORMCT                              #  LEFT ONE PLACE.
001927: 00,2446           00006                           EXTEND
001928: 00,2447           30115                           DCA      BUF
001929: 00,2450           20115                           DAS      BUF
001930:
001931: 00,2451           30114        DVNORM             CA       BUF                                   #  SEE IF DIVISOR NORMALIZED YET.
001932: 00,2452           60000                           DOUBLE
001933: 00,2453           54000                           OVSK
001934: 00,2454           12444                           TCF      BUFNORM                               #  NO - SHIFT LEFT ONE AND TRY AGAIN.
001935:
001936: 00,2455           52141                           DXCH     MPAC                                  #  CALL DIVIDEND NORMALIZATION SEQUENCE
001937: 00,2456           50123                           INDEX    DVNORMCT                              #  PRIOR TO DOING THE DIVIDE.
001938: 00,2457           02507                           TC       MAXTEST
001939:
001940: 00,2460           54142                           TS       MPAC       +2                         #  RETURNS WITH DIVISION DONE AND C(A) = 0.
001941: 00,2461           16014                           TCF      DANZIG
001942:


001944:                                                                                                  #           THE FOLLOWING ARE PROLOGUES TO SHIFT THE DIVIDEND ARRIVING IN A AND L BEFORE THE DIVIDE.
001945:
001946: 00,2462           22021                 -21D      LXCH     SR                                    #  SPECIAL PROLOGUE FOR UNIT WHEN THE
001947: 00,2463           00006                           EXTEND                                         #  LENGTH OF THE ARGUMENT WAS NOT LESS THAN
001948: 00,2464           77642                           MP       HALF                                  #  .5.  IN THIS CASE, EACH COMPONENT MUST BE
001949: 00,2465           56001                           XCH      L                                     #  SHIFTED RIGHT ONE TO PRODUCE A HALF-UNIT
001950: 00,2466           60021                           AD       SR                                    #  VECTOR.
001951: 00,2467           56001                           XCH      L
001952: 00,2470           12513                           TCF      GENDDV     +1                         #  WITH DP DIVIDEND IN A,L.
001953:
001954: 00,2471           20001                           DDOUBL                                         #  PROLOGUE WHICH NORMALIZES THE DIVIDEND
001955: 00,2472           20001                           DDOUBL                                         #  WHEN IT IS KNOWN THAT NO DIVISION
001956: 00,2473           20001                           DDOUBL                                         #  OVEFLOW WILL OCCUR.
001957: 00,2474           20001                           DDOUBL
001958: 00,2475           20001                           DDOUBL
001959: 00,2476           20001                           DDOUBL
001960: 00,2477           20001                           DDOUBL
001961: 00,2500           20001                           DDOUBL
001962: 00,2501           20001                           DDOUBL
001963: 00,2502           20001                           DDOUBL
001964: 00,2503           20001                           DDOUBL
001965: 00,2504           20001                           DDOUBL
001966: 00,2505           20001                           DDOUBL
001967: 00,2506           52141                           DXCH     MPAC
001968:
001969: 00,2507           10124        MAXTEST            CCS      MAXDVSW                               #  0 IF MAJORS MIGHT BE =, -1 OTHERWISE.
001970: 00,2510           06552        BIASHI             DEC      .4192      B-1                        #  SQRT CONSTANTS.
001971:
001972: 00,2511           12564                           TCF      MAXDV                                 #  CHECK TO SEE IF THAY ARE NOW EQUAL.
001973:


001975:                                                                                                  #           THE FOLLOWING IS A GENERAL PURPOSE DOUBLE PRECISION DIVISION ROUTINE. IT DIVIDES MPAC BY BUF AND LEAVES
001976:                                                                                                  #  THE RESULT IN MPAC. THE FOLLOWING CONDITIONS MUST BE SATISFIED:
001977:
001978:                                                                                                  #           1.  THE DIVISOR (BUF) MUST BE POSITIVE AND NOT LESS THAN .5.
001979:
001980:                                                                                                  #           2.  THE DIVIDEND (MPAC) MUST BE POSITIVE WITH THE MAJOR PART OF MPAC STRICTLY LESS THAN THAT OF BUF
001981:                                                                                                  #  (A SPECIAL APPROXIMATION, MAXDV, IS USED WHEN THE MAJOR PARTS ARE EQUAL).
001982:
001983:                                                                                                  #           UNDERSTANDING THAT A/B = Q + S(R/B) WHERE S = 2(-14) AND Q AND R ARE QUOTIENT AND REMAINDER, RESPEC-
001984:                                                                                                  #  TIVELY, THE FOLLOWING APPROXIMATION IS OBTAINED BY MULTIPLYING ABOVE AND BELOW BY C - SD AND NEGLECTING TERMS OF
001985:                                                                                                  #  ORDER S-SQUARED (POSSIBLY INTRODUCING ERROR INTO THE LOW TWO BITS OF THE RESULT). SIGN AGREEMENT IS UNNECESSARY.
001986:
001987:                                                                                                  #           A + SB .      (R - QD)                                             A + SB
001988:                                                                                                  #           ------ = Q + S(------) WHERE Q AND R ARE QUOTIENT AND REMAINDER OF ------ RESPECTIVELY.
001989:                                                                                                  #           C + SD        (  C   }                                               C
001990:
001991: 00,2512           52141        GENDDV             DXCH     MPAC                                  #  WE NEED A AND B ONLY FOR FIRST DV.
001992: 00,2513           00006                 +1        EXTEND                                         #  (SPECIAL UNIT PROLOGUE ENTERS HERE).
001993: 00,2514           10114                           DV       BUF                                   #  A NOW CONTAINS Q AND L, R.
001994: 00,2515           52141                           DXCH     MPAC
001995:
001996: 00,2516           40140                           CS       MPAC                                  #  FORM DIVIDEND FOR MINOR PART OF RESULT.
001997: 00,2517           00006                           EXTEND
001998: 00,2520           70115                           MP       BUF        +1
001999: 00,2521           60141                           AD       MPAC       +1                         #  OVERFLOW AT THIS POINT IS POSITIVE SINCE
002000: 00,2522           54000                           OVSK                                           #  R IS POSITIVE IN EVERY CASE.
002001: 00,2523           12530                           TCF      +5
002002:
002003: 00,2524           00006                           EXTEND                                         #  OVERFLOW CAN BE REMOVED BY SUBTRACTING C
002004: 00,2525           60114                           SU       BUF                                   #  (BUF) ONCE SINCE R IS ALWAYS LESS THAN C
002005: 00,2526           24140                           INCR     MPAC                                  #  IN THIS CASE. INCR COMPENSATES SUBTRACT.
002006: 00,2527           12532                           TCF      +DOWN                                 #  (SINCE C(A) IS STILL POSITIVE).
002007:
002008: 00,2530           00006                 +5        EXTEND                                         #  C(A) CAN BE MADE LESS THAN C IN MAGNI-
002009: 00,2531           62542                           BZMF     -UP                                   #  TUDE BY DIMINISHING IT BY C (SINCE C IS
002010:                                                                                                  #  NOT LESS THAN .5) UNLESS C(A) = 0.
002011:


002013: 00,2532           00006        +DOWN              EXTEND
002014: 00,2533           60114                           SU       BUF                                   #  IF POSITIVE, REDUCE ONLY IF NECESSARY
002015: 00,2534           00006                           EXTEND                                         #  SINCE THE COMPENSATING INCR MIGHT CAUSE
002016: 00,2535           12540                           BZF      +3                                    #  OVERFLOW.
002017: 00,2536           00006                           EXTEND                                         #  DONT SUBTRACT UNLESS RESULT IS POSITIVE
002018: 00,2537           62546                           BZMF     ENDMAXDV                              #  OR ZERO.
002019:
002020: 00,2540           24140                 +3        INCR     MPAC                                  #  KEEP SUBTRACT HERE AND COMPENSATE.
002021: 00,2541           12547                           TCF      FINALDV
002022:
002023: 00,2542           00006        -UP                EXTEND                                         #  IF ZERO, SET MINOR PART OF RESULT TO
002024: 00,2543           12552                           BZF      FINALDV    +3                         #  ZERO.
002025:
002026: 00,2544           00006                           EXTEND                                         #  IF NEGATIVE, ADD C TO A, SUBTRACTING ONE
002027: 00,2545           26140                           DIM      MPAC                                  #  TO COMPENSATE. DIM IS OK HERE SINCE THE
002028: 00,2546           60114        ENDMAXDV           AD       BUF                                   #  MAJOR PART NEVER GOES NEGATIVE.
002029:


002031: 00,2547           22007        FINALDV            ZL                                             #  DO DV TO OBTAIN MINOR PART OF RESULT.
002032: 00,2550           00006                           EXTEND
002033: 00,2551           10114                           DV       BUF
002034: 00,2552           54141                 +3        TS       MPAC       +1
002035:
002036: 00,2553           10122                           CCS      DVSIGN                                #  LEAVE RESULT POSITIVE UNLESS C(DVSIGN)=
002037: 00,2554           00002                           TC       Q                                     #  -0.
002038: 00,2555           00002                           TC       Q
002039: 00,2556           00002                           TC       Q
002040:
002041: 00,2557           00006                           EXTEND
002042: 00,2560           40141                           DCS      MPAC
002043: 00,2561           52141                           DXCH     MPAC
002044: 00,2562           37665                           CAF      ZERO                                  #  SO WE ALWAYS RETURN WITH C(A) = 0.
002045: 00,2563           00002                           TC       Q
002046:


002048:                                                                                                  #           IF THE MAJOR PARTS OF THE DIVISOR AND DIVIDEND ARE EQUAL, BUT THE MINOR PARTS ARE SUCH THAT THE
002049:                                                                                                  #  DIVIDEND IS STRICTLY LESS THAN THE DIVISOR IN MAGNITUDE, THE FOLLOWING APPROXIMATION IS USED. THE ASSUMPTIONS
002050:                                                                                                  #  ARE THE SAME AS THE GENERAL ROUTINE WITH THE ADDITION THAT SIGN AGREEMENT IS NECESSARY (B, C, & D POSITIVE).
002051:
002052:                                                                                                  #                  C + SB .          (C + B - D)
002053:                                                                                                  #                  ------ = 37777 + S(---------)
002054:                                                                                                  #                  C + SD            (    C    )
002055:
002056:                                                                                                  #           THE DIVISION MAY BE PERFORMED IMMEDIATELY SINCE B IS STRICTLY LESS THAN D AND C IS NOT LESS THAN .5.
002057:
002058:
002059:
002060: 00,2564           40140        MAXDV              CS       MPAC                                  #  SEE IF MAXDV CASE STILL HOLDS AFTER
002061: 00,2565           60114                           AD       BUF                                   #  NORMALIZATION.
002062: 00,2566           00006                           EXTEND
002063: 00,2567           12571                           BZF      +2
002064: 00,2570           12512                           TCF      GENDDV                                #  MPAC NOW LESS THAN BUFF - DIVIDE AS USUAL.
002065:
002066: 00,2571           37637                 +2        CAF      POSMAX                                #  SET MAJOR PART OF RESULT.
002067: 00,2572           54140                           TS       MPAC
002068:
002069: 00,2573           40115                           CS       BUF        +1                         #  FORM DIVIDEND OF MINOR PART OF RESULT.
002070: 00,2574           60141                           AD       MPAC       +1
002071: 00,2575           12546                           TCF      ENDMAXDV                              #  GO ADD C AND DO DIVIDE, ATTACHING SIGN
002072:                                                                                                  #  BEFORE EXITING.
002073:


002075:                                                                                                  #        VECTOR DIVIDED BY SCALAR, V/SC, IS EXECUTED HERE. THE VECTOR IS NOW IN MPAC WITH SCALAR IN BUF.
002076:
002077: 00,2576           47657        V/SC2              CS       ONE                                   #  INITIALIZE DIVIDEND NORMALIZATION COUNT
002078: 00,2577           54123                           TS       DVNORMCT                              #  AND DIVISION SIGN REGISTER.
002079: 00,2600           54113                           TS       VBUF       +5
002080:
002081: 00,2601           10114                           CCS      BUF                                   #  FORCE DIVISOR POSITIVE WITH MAJOR PART
002082: 00,2602           12637                           TCF      /BUF+                                 #  NON-ZERO (IF POSSIBLE).
002083: 00,2603           12605                           TCF      +2
002084: 00,2604           12633                           TCF      /BUF-
002085:
002086: 00,2605           56115                           XCH      BUF        +1                         #  SHIFT VECTOR AND SCALAR LEFT 14.
002087: 00,2606           56114                           XCH      BUF
002088: 00,2607           56141                           XCH      MPAC       +1
002089: 00,2610           56140                           XCH      MPAC
002090: 00,2611           00006                           EXTEND                                         #  CHECK FOR OVERFLOW IN EACH CASE.
002091: 00,2612           12614                           BZF      +2
002092: 00,2613           12355                           TCF      DVOVF
002093:
002094: 00,2614           56144                           XCH      MPAC       +4
002095: 00,2615           56143                           XCH      MPAC       +3
002096: 00,2616           00006                           EXTEND
002097: 00,2617           12621                           BZF      +2
002098: 00,2620           12355                           TCF      DVOVF
002099:
002100: 00,2621           56146                           XCH      MPAC       +6
002101: 00,2622           56145                           XCH      MPAC       +5
002102: 00,2623           00006                           EXTEND
002103: 00,2624           12626                           BZF      +2
002104: 00,2625           12355                           TCF      DVOVF
002105:
002106: 00,2626           10114                           CCS      BUF
002107: 00,2627           12637                           TCF      /BUF+
002108: 00,2630           12355                           TCF      DVOVF                                 #  ZERO DIVISOR - OVERFLOW.
002109: 00,2631           12633                           TCF      /BUF-
002110: 00,2632           12355                           TCF      DVOVF
002111:
002112: 00,2633           00006        /BUF-              EXTEND                                         #  ON NEGATIVE, COMPLEMENT BUF AND MAINTAIN
002113: 00,2634           40115                           DCS      BUF                                   #  DVSIGN IN VBUF +5.
002114: 00,2635           52115                           DXCH     BUF
002115: 00,2636           24113                           INCR     VBUF       +5
002116:


002118: 00,2637           37642        /BUF+              CAF      HALF                                  #  FORCE SIGN AGREEMENT IN DIVISOR.
002119: 00,2640           60000                           DOUBLE
002120: 00,2641           60115                           AD       BUF        +1
002121: 00,2642           54115                           TS       BUF        +1
002122: 00,2643           37665                           CAF      ZERO
002123: 00,2644           67637                           AD       POSMAX
002124: 00,2645           26114                           ADS      BUF
002125:
002126: 00,2646           56117                           XCH      BUF2                                  #  LEAVE ABS(ORIGINAL DIVISOR) IN BUF2 FOR
002127: 00,2647           30115                           CA       BUF        +1                         #  OVERFLOW TESTING.
002128: 00,2650           54120                           TS       BUF2       +1
002129: 00,2651           12657                           TCF      /NORM                                 #  NORMALIZE DIVISOR IN BUF.
002130:
002131: 00,2652           00006        /NORM2             EXTEND                                         #  IF LESS THAN .5, AUGMENT DVNORMCT AND
002132: 00,2653           24123                           AUG      DVNORMCT                              #  DOUBLE DIVISOR.
002133: 00,2654           00006                           EXTEND
002134: 00,2655           30115                           DCA      BUF
002135: 00,2656           20115                           DAS      BUF
002136:
002137: 00,2657           30114        /NORM              CA       BUF                                   #  SEE IF DIVISOR NORMALIZED.
002138: 00,2660           60000                           DOUBLE
002139: 00,2661           54000                           OVSK
002140: 00,2662           12652                           TCF      /NORM2                                #  DOUBLE AND TRY AGAIN IF NOT.
002141:
002142: 00,2663           02675                           TC       V/SCDV                                #  DO X COMPONENT DIVIDE.
002143: 00,2664           52144                           DXCH     MPAC       +3                         #  SUPPLY ARGUMENTS IN USUAL SEQUENCE.
002144: 00,2665           52141                           DXCH     MPAC
002145: 00,2666           52144                           DXCH     MPAC       +3
002146:
002147: 00,2667           02675                           TC       V/SCDV                                #  Y COMPONENT.
002148: 00,2670           52146                           DXCH     MPAC       +5
002149: 00,2671           52141                           DXCH     MPAC
002150: 00,2672           52146                           DXCH     MPAC       +5
002151:
002152: 00,2673           02675                           TC       V/SCDV                                #  Z COMPONENT.
002153: 00,2674           17373                           TCF      VROTATEX                              #  GO RE-ARRANGE COMPONENTS BEFORE EXIT.
002154:


002156:                                                                                                  #           SUBROUTINE USED BY V/SC TO DIVIDE VECTOR COMPONENT IN MPAC,+1 BY THE SCALAR GIVEN IN BUF.
002157:
002158: 00,2675           30113        V/SCDV             CA       VBUF       +5                         #  REFLECTS SIGN OF SCALAR.
002159: 00,2676           54122                           TS       DVSIGN
002160:
002161: 00,2677           10140                           CCS      MPAC                                  #  FORCE MPAC POSITIVE, EXITING ON ZERO.
002162: 00,2700           12714                           TCF      /MPAC+
002163: 00,2701           12703                           TCF      +2
002164: 00,2702           12710                           TCF      /MPAC-
002165:
002166: 00,2703           10141                           CCS      MPAC       +1
002167: 00,2704           12714                           TCF      /MPAC+
002168: 00,2705           00002                           TC       Q
002169: 00,2706           12710                           TCF      /MPAC-
002170: 00,2707           00002                           TC       Q
002171:
002172: 00,2710           00006        /MPAC-             EXTEND                                         #  USUAL COMPLEMENTING AND SETTING OF SIGN.
002173: 00,2711           40141                           DCS      MPAC
002174: 00,2712           52141                           DXCH     MPAC
002175: 00,2713           24122                           INCR     DVSIGN
002176:
002177: 00,2714           47657        /MPAC+             CS       ONE                                   #  INITIALIZE NEAR-ONE SWITCH.
002178: 00,2715           54124                           TS       MAXDVSW
002179:
002180: 00,2716           40140                           CS       MPAC                                  #  CHECK POSSIBLE OVERFLOW.
002181: 00,2717           60117                           AD       BUF2                                  #  UNNORMALIZED INPUT DIVISOR.
002182: 00,2720           00006                           EXTEND
002183: 00,2721           62725                           BZMF     /AGREE                                #  CHECK FOR NEAR-ONE OR OVERFLOW.
002184:
002185: 00,2722           52141        DDVCALL            DXCH     MPAC                                  #  CALL PRE-DIVIDE NORMALIZATION.
002186: 00,2723           50123                           INDEX    DVNORMCT
002187: 00,2724           12507                           TCF      MAXTEST
002188:


002190: 00,2725           37642        /AGREE             CAF      HALF                                  #  FORCE SIGN AGREEMENT IN DIVIDEND
002191: 00,2726           60000                           DOUBLE                                         #  (ALREADY DONE FOR DIVISOR).
002192: 00,2727           60141                           AD       MPAC       +1
002193: 00,2730           54141                           TS       MPAC       +1
002194: 00,2731           37665                           CAF      ZERO
002195: 00,2732           67637                           AD       POSMAX
002196: 00,2733           26140                           ADS      MPAC
002197:
002198: 00,2734           40140                           CS       MPAC                                  #  CHECK TO SEE IF OVERFLOW GONE OR IF
002199: 00,2735           60117                           AD       BUF2                                  #  NEAR-ONE CASE IS PRESENT.
002200: 00,2736           10000                           CCS      A
002201: 00,2737           12722                           TCF      DDVCALL                               #  NOT NEAR-ONE.
002202: 00,2740           32506        SLOPELO            DEC      .8324
002203: 00,2741           12355                           TCF      DVOVF                                 #  NO HOPE.
002204:
002205: 00,2742           54124                           TS       MAXDVSW                               #  SIGNAL POSSIBLE NEAR-ONE CASE.
002206: 00,2743           40141                           CS       MPAC       +1                         #  SEE IF DIVISION CAN BE DONE.
002207: 00,2744           60120                           AD       BUF2       +1
002208: 00,2745           00006                           EXTEND
002209: 00,2746           62355                           BZMF     DVOVF
002210: 00,2747           12722                           TCF      DDVCALL                               #  GOING TO MAXDV.
002211:


002213:                                                                                                  #           THE FOLLOWING ROUTINE EXECUTES THE UNIT INSTRUCTION, WHICH TAKES THE UNIT OF THE VECTOR IN MPAC.
002214:
002215: 00,2750           07506        UNIT               TC       MPACVBUF                              #  SAVE ARGUMENT IN VBUF
002216: 00,2751           37665                           CAF      ZERO                                  #  MUST SENSE OVERFLOW IN FOLLOWING DOT.
002217: 00,2752           56105                           XCH      OVFIND
002218: 00,2753           54125                           TS       TEM1
002219: 00,2754           03246                           TC       VSQSUB                                #  DOT MPAC WITH ITSELF.
002220: 00,2755           30125                           CA       TEM1
002221: 00,2756           56105                           XCH      OVFIND
002222: 00,2757           00006                           EXTEND
002223: 00,2760           12762                           BZF      +2
002224: 00,2761           12355                           TCF      DVOVF
002225: 00,2762           00006                           EXTEND
002226: 00,2763           30141                           DCA      MPAC                                  #  LEAVE THE SQUARE OF THE LENGTH OF THE
002227: 00,2764           50104                           INDEX    FIXLOC                                #  ARGUMENT IN LVSQUARE.
002228: 00,2765           52043                           DXCH     LVSQUARE
002229:
002230: 00,2766           03272                           TC       SQRTSUB                               #  GO TAKE THE NORMALIZED SQUARE ROOT.
002231:
002232: 00,2767           10140                           CCS      MPAC                                  #  CHECK FOR UNIT OVERFLOW.
002233: 00,2770           12775                           TCF      +5                                    #  MPAC IS NOT LESS THAN .5 UNLESS
002234: 00,2771           54001                           TS       L
002235: 00,2772           50104                           INDEX    FIXLOC
002236: 00,2773           52045                           DXCH     LV
002237: 00,2774           12355                           TCF      DVOVF                                 #  INPUT TO SQRTSUB WAS 0.
002238:
002239: 00,2775           43076                           CS       FOURTEEN                              #  SEE IF THE INPUT WAS SO SMALL THE THE
002240: 00,2776           60121                           AD       MPTEMP                                #  FIRST TWO REGISTERS OF THE SQUARE WERE 0
002241: 00,2777           10000                           CCS      A
002242: 00,3000           40000                           COM                                            #  IF SO, SAVE THE NEGATIVE OF THE SHIFT
002243: 00,3001           13057                           TCF      SMALL                                 #  COUNT -15D.
002244:
002245: 00,3002           13011                           TCF      LARGE                                 #  (THIS IS USUALLY THE CASE.)
002246:
002247: 00,3003           43075                           CS       THIRTEEN                              #  IF THE SHIFT COUNT WAS EXACTLY 14, SET
002248: 00,3004           54121                           TS       MPTEMP                                #  THE PRE-DIVIDE NORM COUNT TO -13D.
002249:
002250: 00,3005           30140                           CA       MPAC                                  #  SHIFT THE LENGTH RIGHT 14 BEFORE STORING
002251: 00,3006           54001        SMALL2             TS       L                                     #  (SMALL EXITS TO THIS POINT).
002252: 00,3007           37665                           CAF      ZERO
002253: 00,3010           13036                           TCF      LARGE2                                #  GO TO STORE LENGTH AND PROCEED.
002254:
002255: 00,3011           10121        LARGE              CCS      MPTEMP                                #  MOST ALL CASES COME HERE.
002256: 00,3012           13020                           TCF      LARGE3                                #  SEE IF NO NORMALIZATION WAS REQUIRED BY
002257:
002258: 00,3013           42005                           CS       SRDDV                                 #  SQRT, AND IF SO, SET UP FOR A SHIFT
002259: 00,3014           54121                           TS       MPTEMP                                #  RIGHT 1 BEFORE DIVIDING TO PRODUCE
002260: 00,3015           00006                           EXTEND                                         #  THE DESIRED HALF UNIT VECTOR.
002261: 00,3016           30141                           DCA      MPAC
002262: 00,3017           13036                           TCF      LARGE2
002263:


002265: 00,3020           40000        LARGE3             COM                                            #  LEAVE NEGATIVE OF SHIFT COUNT-1 FOR
002266: 00,3021           54121                           TS       MPTEMP                                #  PREDIVIDE LEFT SHIFT.
002267:
002268: 00,3022           40000                           COM                                            #  PICK UP REQUIRED SHIFTING BIT TO UNNORM-
002269: 00,3023           50000                           INDEX    A                                     #  ALIZE THE SQRT RESULT.
002270: 00,3024           37642                           CAF      BIT14
002271: 00,3025           54114                           TS       BUF
002272: 00,3026           00006                           EXTEND
002273: 00,3027           70141                           MP       MPAC       +1
002274: 00,3030           56114                           XCH      BUF
002275: 00,3031           00006                           EXTEND                                         #  (UNNORMALIZE THE SQRT FOR LV).
002276: 00,3032           70140                           MP       MPAC
002277: 00,3033           56001                           XCH      L
002278: 00,3034           60114                           AD       BUF
002279: 00,3035           56001                           XCH      L
002280:
002281: 00,3036           50104        LARGE2             INDEX    FIXLOC
002282: 00,3037           52045                           DXCH     LV                                    #  LENGTH NOW STORED IN WORK AREA.
002283:
002284: 00,3040           47657                           CS       ONE
002285: 00,3041           54124                           TS       MAXDVSW                               #  NO MAXDV CASES IN UNIT.
002286:
002287: 00,3042           52107                           DXCH     VBUF                                  #  PREPARE X COMPONENT FOR DIVIDE, SETTING
002288: 00,3043           52141                           DXCH     MPAC                                  #  LENGTH OF VECTOR AS DIVISOR IN BUF.
002289: 00,3044           52115                           DXCH     BUF
002290: 00,3045           03077                           TC       UNITDV
002291:
002292: 00,3046           52111                           DXCH     VBUF       +2                         #  DO Y AND Z IN USUAL FASHION SO WE CAN
002293: 00,3047           52141                           DXCH     MPAC                                  #  EXIT THROUGH VROTATEX.
002294: 00,3050           52144                           DXCH     MPAC       +3
002295: 00,3051           03077                           TC       UNITDV
002296:
002297: 00,3052           52113                           DXCH     VBUF       +4
002298: 00,3053           52141                           DXCH     MPAC
002299: 00,3054           52146                           DXCH     MPAC       +5
002300: 00,3055           03077                           TC       UNITDV
002301: 00,3056           17373                           TCF      VROTATEX                              #  AND EXIT.
002302:


002304:                                                                                                  #           IF THE LENGTH OF THE ARGUMENT VECTOR WAS LESS THAN 2(-28), EACH COMPONENT MUST BE SHIFTED LEFT AT LEAST
002305:                                                                                                  #  14 PLACES BEFORE THE DIVIDE. NOTE THAT IN THIS CASE, THE MAJOR PART OF EACH COMPONENT IS ZERO.
002306:
002307: 00,3057           54121        SMALL              TS       MPTEMP                                #  NEGATIVE OF PRE-DIVIDE SHIFT COUNT.
002308:
002309: 00,3060           37665                           CAF      ZERO                                  #  SHIFT EACH COMPONENT LEFT 14.
002310: 00,3061           56107                           XCH      VBUF       +1
002311: 00,3062           56106                           XCH      VBUF
002312: 00,3063           56111                           XCH      VBUF       +3
002313: 00,3064           56110                           XCH      VBUF       +2
002314: 00,3065           56113                           XCH      VBUF       +5
002315: 00,3066           56112                           XCH      VBUF       +4
002316:
002317: 00,3067           40121                           CS       MPTEMP
002318: 00,3070           50000                           INDEX    A
002319: 00,3071           37642                           CAF      BIT14
002320: 00,3072           00006                           EXTEND
002321: 00,3073           70140                           MP       MPAC
002322: 00,3074           13006                           TCF      SMALL2
002323:
002324: 00,3075           00015        THIRTEEN           DEC      13         B-14
002325: 00,3076           00016        FOURTEEN           DEC      14         B-14
002326:


002328:                                                                                                  #           THE FOLLOWING ROUTINE SETS UP THE CALL TO THE DIVIDE ROUTINES.
002329:
002330: 00,3077           10140        UNITDV             CCS      MPAC                                  #  FORCE MPAC POSITIVE IF POSSIBLE, SETTING
002331: 00,3100           13116                           TCF      UMPAC+                                #  DVSIGN ACCORDING TO THE SIGN OF MPAC
002332: 00,3101           13103                           TCF      +2                                    #  SINCE THE DIVISOR IS ALWAYS POSITIVE
002333: 00,3102           13110                           TCF      UMPAC-                                #  HERE.
002334:
002335: 00,3103           10141                           CCS      MPAC       +1
002336: 00,3104           13116                           TCF      UMPAC+
002337: 00,3105           00002                           TC       Q                                     #  EXIT IMMEDIATELY ON ZERO.
002338: 00,3106           13110                           TCF      UMPAC-
002339: 00,3107           00002                           TC       Q
002340:
002341: 00,3110           47665        UMPAC-             CS       ZERO                                  #  IF NEGATIVE, SET -0 IN DVSIGN FOR FINAL
002342: 00,3111           54122                           TS       DVSIGN                                #  COMPLEMENT.
002343: 00,3112           00006                           EXTEND
002344: 00,3113           40141                           DCS      MPAC                                  #  PICK UP ABSOLUTE VALUE OF ARG AND JUMP.
002345: 00,3114           50121                           INDEX    MPTEMP
002346: 00,3115           12506                           TCF      MAXTEST    -1
002347:
002348: 00,3116           54122        UMPAC+             TS       DVSIGN                                #  SET DVSIGN FOR POSITIVE QUOTIENT.
002349: 00,3117           52141                           DXCH     MPAC
002350: 00,3120           50121                           INDEX    MPTEMP
002351: 00,3121           12506                           TCF      MAXTEST    -1
002352:


002354:                                                                                                  #           MISCELLANEOUS UNARY OPERATIONS.
002355:
002356: 00,3122           03227        DSQ                TC       DSQSUB                                #  SQUARE THE DP CONTENTS OF MPAC.
002357: 00,3123           16014                           TCF      DANZIG
002358:
002359: 00,3124           10147        ABVALABS           CCS      MODE                                  #  ABVAL OR ABS INSTRUCTION.
002360: 00,3125           13154                           TCF      ABS                                   #  DO ABS ON SCALAR.
002361: 00,3126           13154                           TCF      ABS
002362:
002363: 00,3127           03246        ABVAL              TC       VSQSUB                                #  DOT MPAC WITH ITSELF.
002364: 00,3130           22147                           LXCH     MODE                                  #  MODE IS NOW DP (L ZERO AFTER DAS).
002365:
002366: 00,3131           00006                           EXTEND                                         #  STORE SQUARE OF LENGTH IN WORK AREA.
002367: 00,3132           30141                           DCA      MPAC
002368: 00,3133           50104                           INDEX    FIXLOC
002369: 00,3134           52043                           DXCH     LVSQUARE
002370:
002371: 00,3135           03272        SQRT               TC       SQRTSUB                               #  TAKE THE SQUARE ROOT OF MPAC.
002372: 00,3136           10121                           CCS      MPTEMP                                #  RETURNED NORMALIZED SQUARE ROOT. SEE IF
002373: 00,3137           13141                           TCF      +2                                    #  ANY UN-NORMALIZATION REQUIRED AND EXIT
002374: 00,3140           16014                           TCF      DANZIG                                #  IF NOT.
002375:
002376: 00,3141           62273                           AD       NEG12                                 #  A RIGHT SHIFT OF MORE THAN 13 COULD BE
002377: 00,3142           00006                           EXTEND                                         #  REQUIRED IF INPUT WAS ZERO IN MPAC,+1.
002378: 00,3143           63147                           BZMF     SQRTSHFT                              #  GOES HERE IN MOST CASES.
002379: 00,3144           22007                           ZL                                             #  IF A LONG SHIFT IS REQUIRED, GO TO
002380: 00,3145           22102                           LXCH     ADDRWD                                #  GENERAL RIGHT SHIFT ROUTINES.
002381: 00,3146           12263                           TCF      GENSCR     +4                         #  ADDRWD WAS ZERO TO PREVENT ROUND.
002382:
002383: 00,3147           50121        SQRTSHFT           INDEX    MPTEMP                                #  SELECT SHIFTING BIT AND EXIT THROUGH
002384: 00,3150           37641                           CAF      BIT15                                 #  SHIFT ROUTINES.
002385: 00,3151           54121                           TS       MPTEMP
002386: 00,3152           37665                           CAF      ZERO                                  #  TO ZERO MPAC +2 IN THE PROCESS.
002387: 00,3153           12017                           TCF      MPACSHR    +3
002388:
002389: 00,3154           06711        ABS                TC       BRANCH                                #  TEST SIGN OF MPAC AND COMPLEMENT IF
002390: 00,3155           16014                           TCF      DANZIG
002391: 00,3156           16014                           TCF      DANZIG
002392: 00,3157           17616                           TCF      COMP
002393:


002395: 00,3160           47655        VDEF               CS       FOUR                                  #  VECTOR DEFINE - ESSENTIALLY TREATS
002396: 00,3161           26152                           ADS      PUSHLOC                               #  SCALAR IN MPAC AS X COMPONENT, PUSHES UP
002397: 00,3162           00006                           EXTEND                                         #  FOR Y AND THEN AGAIN FOR Z.
002398: 00,3163           50000                           INDEX    A
002399: 00,3164           30003                           DCA      2
002400: 00,3165           52144                           DXCH     MPAC       +3
002401: 00,3166           00006                           EXTEND
002402: 00,3167           50152                           INDEX    PUSHLOC
002403: 00,3170           30001                           DCA      0
002404: 00,3171           52146                           DXCH     MPAC       +5
002405: 00,3172           47657                           CS       ONE                                   #  MODE IS NOW VECTOR.
002406: 00,3173           16013                           TCF      NEWMODE
002407:
002408: 00,3174           03246        VSQ                TC       VSQSUB                                #  DOT MPAC WITH ITSELF.
002409: 00,3175           37665                           CAF      ZERO
002410: 00,3176           16013                           TCF      NEWMODE                               #  MODE IS NOW DP.
002411:
002412: 00,3177           00006        PUSH               EXTEND                                         #  PUSH DOWN MPAC LEAVING IT LOADED.
002413: 00,3200           30141                           DCA      MPAC
002414: 00,3201           50152                           INDEX    PUSHLOC                               #  PUSH DOWN FIRST TWO REGISTERS IN EACH
002415: 00,3202           52001                           DXCH     0
002416:
002417: 00,3203           50147                           INDEX    MODE                                  #  INCREMENT PUSHDOWN POINTER.
002418: 00,3204           36164                           CAF      NO.WDS
002419: 00,3205           26152                           ADS      PUSHLOC
002420:
002421: 00,3206           10147                           CCS      MODE
002422: 00,3207           13222                           TCF      TPUSH                                 #  PUSH DOWN MPAC +2.
002423: 00,3210           16014                           TCF      DANZIG                                #  DONE FOR DP.
002424:
002425: 00,3211           00006                           EXTEND                                         #  ON VECTOR, PUSH DOWN Y AND Z COMPONENTS.
002426: 00,3212           30144                           DCA      MPAC       +3
002427: 00,3213           50152                           INDEX    PUSHLOC
002428: 00,3214           51775                           DXCH     0          -4
002429: 00,3215           00006                           EXTEND
002430: 00,3216           30146                           DCA      MPAC       +5
002431: 00,3217           50152                           INDEX    PUSHLOC
002432: 00,3220           51777                           DXCH     0          -2
002433: 00,3221           16014                           TCF      DANZIG
002434:
002435: 00,3222           30142        TPUSH              CA       MPAC       +2
002436: 00,3223           16560                           TCF      ENDTPUSH   +2
002437:
002438: 00,3224           50104        RVQ                INDEX    FIXLOC                                #  RVQ - RETURN IVA QPRET.
002439: 00,3225           30052                           CA       QPRET
002440: 00,3226           16652                           TCF      GOTO       +1
002441:


002443:                                                                                                  #           THE FOLLOWING SUBROUTINES ARE USED IN SQUARING MPAC, IN BOTH THE SCALAR AND VECTOR SENSE.  THEY ARE
002444:                                                                                                  #  SPECIAL CASES OF DMPSUB AND DOTSUB, PUT IN TO SAVE SOME TIME.
002445:
002446: 00,3227           30141        DSQSUB             CA       MPAC       +1                         #  SQUARES THE SCALAR CONTENTS OF MPAC.
002447: 00,3230           00006                           EXTEND
002448: 00,3231           70000                           SQUARE
002449: 00,3232           54142                           TS       MPAC       +2
002450: 00,3233           37665                           CAF      ZERO                                  #  FORM 2(CROSS TERM).
002451: 00,3234           56141                           XCH      MPAC       +1
002452: 00,3235           00006                           EXTEND
002453: 00,3236           70140                           MP       MPAC
002454: 00,3237           20001                           DDOUBL                                         #  AND MAYBE OVEFLOW.
002455: 00,3240           20142                           DAS      MPAC       +1                         #  AND SET A TO NET OVERFLOW.
002456: 00,3241           56140                           XCH      MPAC
002457: 00,3242           00006                           EXTEND
002458: 00,3243           70000                           SQUARE
002459: 00,3244           20141                           DAS      MPAC
002460: 00,3245           00002                           TC       Q
002461:
002462: 00,3246           00006        VSQSUB             EXTEND                                         #  DOTS THE VECTOR IN MPAC WITH ITSELF.
002463: 00,3247           22123                           QXCH     DOTRET
002464: 00,3250           03227                           TC       DSQSUB                                #  SQUARE THE X COMPONENT.
002465: 00,3251           52144                           DXCH     MPAC       +3
002466: 00,3252           52141                           DXCH     MPAC
002467: 00,3253           52115                           DXCH     BUF                                   #  SO WE CAN END IN DOTSUB.
002468: 00,3254           30142                           CA       MPAC       +2
002469: 00,3255           54116                           TS       BUF        +2
002470:
002471: 00,3256           03227                           TC       DSQSUB                                #  SQUARE Y COMPONENT.
002472: 00,3257           52142                           DXCH     MPAC       +1
002473: 00,3260           20116                           DAS      BUF        +1
002474: 00,3261           60140                           AD       MPAC
002475: 00,3262           60114                           AD       BUF
002476: 00,3263           54114                           TS       BUF
002477: 00,3264           13266                           TCF      +2
002478: 00,3265           54105                           TS       OVFIND                                #  IF OVERFLOW.
002479:
002480: 00,3266           52146                           DXCH     MPAC       +5
002481: 00,3267           52141                           DXCH     MPAC
002482: 00,3270           03227                           TC       DSQSUB                                #  SQUARE Z COMPONENT.
002483: 00,3271           17165                           TCF      ENDDOT                                #  END AS IN DOTSUB.
002484:


002486:                                                                                                  #           DOUBLE PRECISION SQUARE ROOT ROUTINE. TAKE THE SQUARE ROOT OF THE TRIPLE PRECISION (MPAC +2 USED ONLY
002487:                                                                                                  #  IN NORMALIZATION) CONTENTS OF MPAC AND LEAVE THE NORMALIZED RESULT IN MPAC (C(MPAC) GREATER THAN OR EQUAL TO
002488:                                                                                                  #  .5).  THE RIGHT SHIFT COUNT (TC UNNORMALIZE) IS LEFT IN MPTEMP.
002489:
002490:
002491:
002492: 00,3272           37665        SQRTSUB            CAF      ZERO                                  #  START BY ZEROING RIGHT SHIFT COUNT.
002493: 00,3273           54121                           TS       MPTEMP
002494:
002495: 00,3274           10140                           CCS      MPAC                                  #  CHECK FOR POSITIVE ARGUMENT, SHIFTING
002496: 00,3275           13333                           TCF      SMPAC+                                #  FIRST SIGNIFICANT MPAC REGISTER INTO
002497: 00,3276           13300                           TCF      +2                                    #  MPAC ITSELF.
002498: 00,3277           13322                           TCF      SQRTNEG                               #  SEE IF MAG OF ARGUMENT LESS THAN 10(-4).
002499:
002500: 00,3300           56142                           XCH      MPAC       +2                         #  MPAC IS ZERO - SHIFT LEFT 14.
002501: 00,3301           56141                           XCH      MPAC       +1
002502: 00,3302           54140                           TS       MPAC
002503: 00,3303           37663                           CAF      SEVEN                                 #  AUGMENT RIGHT SHIFT COUNTER.
002504: 00,3304           54121                           TS       MPTEMP
002505:
002506: 00,3305           10140                           CCS      MPAC                                  #  SEE IF MPAC NOW PNZ.
002507: 00,3306           13333                           TCF      SMPAC+
002508: 00,3307           13311                           TCF      +2
002509: 00,3310           13325                           TCF      ZEROANS                               #  NEGATIVE BUT LESS THAN 10(-4) IN MAG.
002510:
002511: 00,3311           56141                           XCH      MPAC       +1                         #  ZERO - SHIFT LEFT 14 AGAIN.
002512: 00,3312           54140                           TS       MPAC
002513: 00,3313           37663                           CAF      SEVEN                                 #  AUGMENT RIGHT SHIFT COUNTER.
002514: 00,3314           26121                           ADS      MPTEMP
002515:
002516: 00,3315           10140                           CCS      MPAC
002517: 00,3316           13333                           TCF      SMPAC+
002518: 00,3317           00002                           TC       Q                                     #  SQRT(0) = 0.
002519: 00,3320           13325                           TCF      ZEROANS
002520: 00,3321           00002                           TC       Q
002521:
002522:
002523:
002524: 00,3322           10000        SQRTNEG            CCS      A                                     #  ARGUMENT IS NEGATIVE, BUT SEE IF SIGN-
002525: 00,3323           13331                           TCF      SQRTABRT                              #  CORRECTED ARGUMENT IS LESS THAN 10(-4)
002526:
002527: 00,3324           10141                           CCS      MPAC       +1                         #  IN MAGNITUDE. IF SO, CALL ANSWER ZERO.
002528: 00,3325           37665        ZEROANS            CAF      ZERO                                  #  FORCE ANSWER TO ZERO HERE.
002529: 00,3326           13401                           TCF      FIXROOT
002530: 00,3327           13331                           TCF      SQRTABRT
002531: 00,3330           13401                           TCF      FIXROOT
002532:
002533: 00,3331           05446        SQRTABRT           TC       ABORT
002534: 00,3332           01302                           OCT      1302
002535:


002537: 00,3333           62410        SMPAC+             AD       -1/2+2                                #  SEE IF ARGUMENT GREATER THAN OR EQUAL TO
002538: 00,3334           00006                           EXTEND                                         #  .5.
002539: 00,3335           63404                           BZMF     SRTEST                                #  IF SO, SEE IF LESS THAN .25.
002540:
002541: 00,3336           52141                           DXCH     MPAC                                  #  WE WILL TAKE THE SQUARE ROOT OF MPAC/2.
002542: 00,3337           22021                           LXCH     SR                                    #  SHIFT RIGHT 1 AND GO TO THE SQRT ROUTINE
002543: 00,3340           00006                           EXTEND
002544: 00,3341           77642                           MP       HALF
002545: 00,3342           52141                           DXCH     MPAC
002546: 00,3343           56021                           XCH      SR
002547: 00,3344           26141                           ADS      MPAC       +1                         #  GUARANTEED NO OVERFLOW.
002548:
002549: 00,3345           32274        ARGHI              CAF      SLOPEHI                               #  ARGUMENT BETWEEN .25 AND .5, GET A
002550: 00,3346           00006                           EXTEND                                         #  LINEAR APPROXIMATION FOR THIS RANGE.
002551: 00,3347           70140                           MP       MPAC
002552: 00,3350           62510                           AD       BIASHI                                #  X0/2 = (MPAC/2)(SLOPEHI) + BIASHI/2.
002553:
002554: 00,3351           54114                 +4        TS       BUF                                   #  X0/2 (ARGLO ENTERS HERE).
002555: 00,3352           30140                           CA       MPAC                                  #  SINGLE-PRECISION THROUGHOUT.
002556: 00,3353           22007                           ZL
002557: 00,3354           00006                           EXTEND
002558: 00,3355           10114                           DV       BUF                                   #  (MPAC/2)/(X0/2)
002559: 00,3356           00006                           EXTEND
002560: 00,3357           77642                           MP       HALF
002561: 00,3360           26114                           ADS      BUF                                   #  X1 = X0/2 + .5(MPAX/2)/(X0/2).
002562:
002563: 00,3361           00006                           EXTEND
002564: 00,3362           77642                           MP       HALF                                  #  FORM UP X1/2.
002565: 00,3363           52141                           DXCH     MPAC                                  #  SAVE AND BRING OUT ARGUMENT.
002566: 00,3364           00006                           EXTEND                                         #  TAKE DP QUOTIENT WITH X1.
002567: 00,3365           10114                           DV       BUF
002568: 00,3366           54115                           TS       BUF        +1                         #  SAVE MAJOR PART OF QUOTIENT.
002569: 00,3367           37665                           CAF      ZERO                                  #  FORM MINOR PART OF QUOTIENT USING
002570: 00,3370           56001                           XCH      L                                     #  (REMAINDER,0).
002571: 00,3371           00006                           EXTEND
002572: 00,3372           10114                           DV       BUF
002573: 00,3373           54001                           TS       L                                     #  IN PREPARATION FOR DAS.
002574: 00,3374           30115                           CA       BUF        +1
002575: 00,3375           20141                           DAS      MPAC                                  #  X2 = X1/2 + (MPAC/2)X1
002576:
002577: 00,3376           00006                           EXTEND                                         #  OVERFLOWS IF ARG. NEAR POSMAX.
002578: 00,3377           13403                           BZF      TCQBNK00
002579: 00,3400           37637                           CAF      POSMAX
002580: 00,3401           54140        FIXROOT            TS       MPAC
002581: 00,3402           54141                           TS       MPAC       +1
002582: 00,3403           00002        TCQBNK00           TC       Q                                     #  RETURN TO CALLER TO UNNORMALIZE, ETC.
002583:


002585: 00,3404           67643        SRTEST             AD       QUARTER                               #  ARGUMENT WAS LESS THAN .5, SEE IF LESS
002586: 00,3405           00006                           EXTEND                                         #  THAN .25.
002587: 00,3406           63430                           BZMF     SQRTNORM                              #  IF SO, BEGIN NORMALIZATION.
002588:
002589: 00,3407           52141                           DXCH     MPAC                                  #  IF BETWEEN .5 AND .25, SHIFT RIGHT 1 AND
002590: 00,3410           22021                           LXCH     SR                                    #  START AT ARGLO.
002591: 00,3411           00006                           EXTEND
002592: 00,3412           77642                           MP       HALF
002593: 00,3413           52141                           DXCH     MPAC
002594: 00,3414           56021                           XCH      SR
002595: 00,3415           26141                           ADS      MPAC       +1                         #  NO OVERFLOW.
002596:
002597: 00,3416           32740        ARGLO              CAF      SLOPELO                               #  (NORMALIZED) ARGUMENT BETWEEN .125 AND
002598: 00,3417           00006                           EXTEND                                         #  .25
002599: 00,3420           70140                           MP       MPAC
002600: 00,3421           62250                           AD       BIASLO
002601: 00,3422           13351                           TCF      ARGHI      +4                         #  BEGIN SQUARE ROOT.
002602:
002603: 00,3423           00006        SQRTNM2            EXTEND                                         #  SHIFT LEFT 2 AND INCREMENT RIGHT SHIFT
002604: 00,3424           30142                           DCA      MPAC       +1                         #  COUNT (FOR TERMINAL UNNORMALIZATION).
002605: 00,3425           20142                           DAS      MPAC       +1
002606: 00,3426           60140                           AD       MPAC
002607: 00,3427           26140                           ADS      MPAC                                  #  (NO OVERFLOW).
002608:
002609: 00,3430           24121        SQRTNORM           INCR     MPTEMP                                #  FIRST TIME THROUGH, JUST SHIFT LEFT 1
002610: 00,3431           00006                           EXTEND                                         #  (PUTS IN EFFECTIVE RIGHT SHIFT SINCE
002611: 00,3432           30142                           DCA      MPAC       +1                         #  WE WANT MPAC/2).
002612: 00,3433           20142                           DAS      MPAC       +1
002613: 00,3434           60140                           AD       MPAC
002614: 00,3435           26140                           ADS      MPAC                                  #  (AGAIN NO OVERFLOW).
002615: 00,3436           60000                           DOUBLE
002616: 00,3437           54022                           TS       CYL
002617:
002618: 00,3440           10022        NORMTEST           CCS      CYL                                   #  SEE IF ARGUMENT NOW NORMALIZED AT
002619: 00,3441           10022                           CCS      CYL                                   #  GREATER THAN .125.
002620: 00,3442           13423                           TCF      SQRTNM2                               #  NO - SHIFT LEFT 2 MORE AND TRY AGAIN.
002621: 00,3443           13345                           TCF      ARGHI                                 #  YES - NOW BETWEEN .5 AND .25.
002622: 00,3444           13416                           TCF      ARGLO                                 #  ARGUMENT NOW BETWEEN .25 AND .125.
002623:


002625:                                                                                                  #  TRIGONOMETRIC FUNCTION PACKAGE.
002626:
002627:                                                                                                  #           THE FOLLOWING TRIGONOMETRIC FUNCTIONS ARE AVAIALABLE AS INTERPRETIVE OPERATIONS:
002628:
002629:                                                                                                  #           1.      SIN            COMPUTES (1/2)SINE(2 PI MPAC).
002630:                                                                                                  #           2.      COS            COMPUTES (1/2)COSINE(2 PI MPAC).
002631:
002632:                                                                                                  #           3.      ASIN           COMPUTES (1/2PI)ARCSINE(2 MPAC).
002633:                                                                                                  #           4.      ACOS           COMPUTES (1/2PI)ARCCOSINE(2 MPAC).
002634:
002635:                                                                                                  #  SIN-ASIN AND COS-ACOS ARE MUTUALLY INVERSE, I.E., SIN(ASIN(X)) = X.
002636:
002637: 00,3445           06711        COSINE             TC       BRANCH                                #  FINDS COSINE USING THE IDENTITY
002638: 00,3446           13451                           TCF      +3                                    #  COS(X) = SIN(PI/2 - ABS(X)).
002639: 00,3447           13454                           TCF      PRESINE
002640: 00,3450           13454                           TCF      PRESINE
002641:
002642: 00,3451           00006                 +3        EXTEND
002643: 00,3452           40141                           DCS      MPAC
002644: 00,3453           52141                           DXCH     MPAC
002645:
002646: 00,3454           37643        PRESINE            CAF      QUARTER                               #  PI/2 SCALED.
002647: 00,3455           26140                           ADS      MPAC
002648:
002649:
002650:
002651: 00,3456           52141        SINE               DXCH     MPAC                                  #  DOUBLE ARGUMENT.
002652: 00,3457           20001                           DDOUBL
002653: 00,3460           54000                           OVSK                                           #  SEE IF OVERFLOW PRESENT.
002654: 00,3461           13464                           TCF      +3                                    #  IF NOT, ARGUMENT OK AS IS.
002655:
002656: 00,3462           00006                           EXTEND                                         #  IF SO, WE LOST (OR GAINED) PI, SO
002657: 00,3463           40001                           DCOM                                           #  COMPLEMENT MPAC USING THE IDENTITY
002658:                                                                                                  #  SIN(X-(+)PI) = SIN(-X).
002659: 00,3464           52141                 +3        DXCH     MPAC
002660: 00,3465           30140                           CA       MPAC                                  #  SEE IF ARGUMENT GREATER THAN .5 IN
002661: 00,3466           60000                           DOUBLE                                         #  MAGNITUDE. IF SO, REDUCE IT TO LESS THAN
002662: 00,3467           54001                           TS       L                                     #  .5 (+-PI/2 SCALED) AS FOLLOWS:
002663: 00,3470           13501                           TCF      SN1
002664:
002665: 00,3471           50000                           INDEX    A                                     #  IF POSITIVE, FORM PI - X, IF NEGATIVE
002666: 00,3472           37641                           CAF      NEG1/2     +1                         #  USE -PI - X.
002667: 00,3473           60000                           DOUBLE
002668: 00,3474           00006                           EXTEND
002669: 00,3475           60140                           SU       MPAC                                  #  GUARANTEED NO OVERFLOW.
002670: 00,3476           54140                           TS       MPAC
002671: 00,3477           40141                           CS       MPAC       +1
002672: 00,3500           54141                           TS       MPAC       +1
002673:


002675: 00,3501           00006        SN1                EXTEND                                         #  SET UP TO EVALUATE HASTINGS POLYNOMIAL
002676: 00,3502           30141                           DCA      MPAC
002677: 00,3503           52120                           DXCH     BUF2
002678: 00,3504           03227                           TC       DSQSUB                                #  SQUARE MPAC.
002679:
002680: 00,3505           07202                           TC       POLY                                  #  EVALUATE FOURTH ORDER POLYNOMIAL.
002681: 00,3506           00003                           DEC      3          B-14
002682: 00,3507           14441 37325                     2DEC     +.3926990796
002683:
002684: 00,3511           53250 60764                     2DEC     -.6459637111
002685:
002686: 00,3513           12146 21276                     2DEC     +.318758717
002687:
002688: 00,3515           75466 71471                     2DEC     -.074780249
002689:
002690: 00,3517           00236 32757                     2DEC     +.009694988
002691:
002692: 00,3521           32434                           CAF      LBUF2                                 #  MULTIPLY BY ARGUMENT AND SHIFT LEFT 2.
002693: 00,3522           07066                           TC       DMPSUB     -1
002694:
002695: 00,3523           00006                           EXTEND
002696: 00,3524           30142                           DCA      MPAC       +1
002697: 00,3525           20142                           DAS      MPAC       +1
002698: 00,3526           60140                           AD       MPAC
002699: 00,3527           26140                           ADS      MPAC                                  #  NEITHER SHIFT OVERFLOWS.
002700: 00,3530           00006                           EXTEND
002701: 00,3531           30142                           DCA      MPAC       +1
002702: 00,3532           20142                           DAS      MPAC       +1
002703: 00,3533           60140                           AD       MPAC
002704: 00,3534           26140                           ADS      MPAC
002705: 00,3535           16014                           TCF      DANZIG
002706:


002708:                                                                                                  #           ARCSIN/ARCCOS ROUTINE.
002709:
002710: 00,3536           33557        ARCSIN             CAF      LASINEX                               #  COMPUTE ARCSIN BY USING THE IDENTITY
002711: 00,3537           13541                           TCF      +2                                    #  ARCSIN(X) = PI/2 - ARCCOS(X).
002712:
002713: 00,3540           33641        ARCCOS             CAF      LDANZIG                               #  (EXITS IMMEDIATELY).
002714: 00,3541           54122                           TS       ESCAPE
002715: 00,3542           06711                           TC       BRANCH                                #  TEST SIGN OF INPUT.
002716: 00,3543           13553                           TCF      ACOSST                                #  START IMMEDIATELY IF POSITIVE.
002717: 00,3544           13655                           TCF      ACOSZERO                              #  ARCCOS(0) = PI/2 = .25.
002718: 00,3545           00006                           EXTEND                                         #  IF NEGATIVE, USE THE IDENTITY
002719: 00,3546           40141                           DCS      MPAC                                  #  ARCCOS(X) = PI - ARCCOS(-X), FORCING
002720: 00,3547           52141                           DXCH     MPAC                                  #  ARGUMENT POSITIVE.
002721: 00,3550           32247                           CAF      TCSUBTR                               #  SET EXIT TO DO ABOVE BEFORE
002722: 00,3551           56122                           XCH      ESCAPE                                #  ARCSIN/ARCCOS CONSIDERATIONS.
002723: 00,3552           54123                           TS       ESCAPE2
002724:
002725: 00,3553           47642        ACOSST             CS       HALF                                  #  TEST MAGNITUDE OF INPUT.
002726: 00,3554           60140                           AD       MPAC
002727: 00,3555           10000                           CCS      A
002728: 00,3556           13647                           TCF      ACOSOVF                               #  THIS IS PROBABLY AN OVERFLOW CASE.
002729:
002730: 00,3557           13635        LASINEX            TCF      ASINEX
002731:
002732: 00,3560           13570                           TCF      ACOSST2                               #  NO OVERFLOW - PROCEED.
002733:
002734: 00,3561           10141                           CCS      MPAC       +1                         #  IF MAJOR PART IS .5, CALL ANSWER 0
002735: 00,3562           37665                           CAF      ZERO                                  #  UNLESS MINOR PART NEGATIVE.
002736: 00,3563           13565                           TCF      ACOS=0
002737:
002738: 00,3564           13570                           TCF      ACOSST2
002739:
002740: 00,3565           54141        ACOS=0             TS       MPAC       +1
002741: 00,3566           54140                           TS       MPAC
002742: 00,3567           00122                           TC       ESCAPE
002743:
002744: 00,3570           00006        ACOSST2            EXTEND                                         #  NOW THAT ARGUMENT IS IN PROPER RANGE,
002745: 00,3571           40141                           DCS      MPAC                                  #  BEGIN COMPUTATION. USE HASTINGS
002746: 00,3572           67642                           AD       HALF                                  #  APPROXIMATION ARCCOS(X) = SQRT(1-X)P(X)
002747: 00,3573           52141                           DXCH     MPAC                                  #  IN A SCALED VERSION WHERE P(X) IS A
002748: 00,3574           52120                           DXCH     BUF2                                  #  SEVENTH ORDER POLYNOMIAL.
002749:
002750: 00,3575           03272                           TC       SQRTSUB                               #  RETURNS WITH NORMALIZED SQUARE ROOT.
002751:
002752: 00,3576           10121                           CCS      MPTEMP                                #  SEE IF UN-NORMALIZATION REQUIRED.
002753: 00,3577           13642                           TCF      ACOSSHR                               #  IF SO.
002754:


002756: 00,3600           52141        ACOS3              DXCH     MPAC                                  #  SET UP FOR POLYNOMIAL EVALUATION.
002757: 00,3601           52120                           DXCH     BUF2
002758: 00,3602           52141                           DXCH     MPAC
002759:
002760: 00,3603           07202                           TC       POLY
002761: 00,3604           00006                           DEC      6          B-14
002762: 00,3605           13240 23630                     2DEC     +.353553385                            #  COEFFICIENTS ARE C 2(+I)/PISQRT(2) WHERE
002763:
002764: 00,3607           74721 47775                     2DEC*    -.0483017006 B+1*                       #                  I
002765:
002766: 00,3611           02440 20237                     2DEC*    +.0200273085 B+2*                       #       WHERE C STANDS FOR ORIGINAL COEFFS.
002767:
002768: 00,3613           75067 70742                     2DEC*    -.0112931863 B+3*
002769:
002770: 00,3615           03436 26756                     2DEC*    +.00695311612 B+4*
002771:
002772: 00,3617           74037 57640                     2DEC*    -.00384617957 B+5*
002773:
002774: 00,3621           03046 07143                     2DEC*    +.001501297736 B+6*
002775:
002776: 00,3623           76654 42244                     2DEC*    -.000284160334 B+7*
002777:
002778: 00,3625           32434                           CAF      LBUF2                                 #  DO FINAL MULTIPLY AND GO TO ANY
002779: 00,3626           07066                           TC       DMPSUB     -1                         #  EPILOGUE SEQUENCES.
002780: 00,3627           00122                           TC       ESCAPE
002781:
002782: 00,3630           00006        SUBTR              EXTEND                                         #  EPILOGUE FOR NEGATIVE INPUTS TO ARCCOS.
002783: 00,3631           40141                           DCS      MPAC
002784: 00,3632           67642                           AD       HALF                                  #  FORMS PI - ARCCOS(-X) = ARCCOS(X).
002785: 00,3633           52141                           DXCH     MPAC
002786: 00,3634           00123                           TC       ESCAPE2                               #  GO TO POSSIBLE ARCSIN EPILOGUE.
002787:
002788: 00,3635           00006        ASINEX             EXTEND
002789: 00,3636           40141                           DCS      MPAC                                  #  ARCSIN EPILOGUE - GET ARCSIN(X)
002790: 00,3637           67643                           AD       QUARTER                               #  = PI/2 - ARCCOS(X).
002791: 00,3640           52141                           DXCH     MPAC
002792: 00,3641           16014        LDANZIG            TCF      DANZIG
002793:


002795: 00,3642           50000        ACOSSHR            INDEX    A                                     #  THE SHIFT RIGHT IS LESS THAN 14 SINCE
002796: 00,3643           37642                           CAF      BIT14                                 #  THE INPUT WAS NON-ZERO DP.
002797: 00,3644           54121                           TS       MPTEMP
002798: 00,3645           02054                           TC       VSHRRND                               #  DP SHIFT RIGHT AND ROUND.
002799: 00,3646           13600                           TCF      ACOS3                                 #  PROCEED.
002800:
002801: 00,3647           10000        ACOSOVF            CCS      A                                     #  IF MAJOR PART WAS ONLY 1 MORE THAN .5,
002802: 00,3650           13652                           TCF      +2                                    #  CALL ANSWER 0.
002803: 00,3651           13565                           TCF      ACOS=0
002804: 00,3652           13565                           TCF      ACOS=0
002805:
002806: 00,3653           05446        ACOSABRT           TC       ABORT
002807: 00,3654           01301                           OCT      1301
002808:
002809: 00,3655           37643        ACOSZERO           CAF      QUARTER                               #  ACOS(0) = PI/2.
002810: 00,3656           13566                           TCF      ACOS=0     +1                         #  SET MPAC AND EXIT VIA ESCAPE.
002811:
002812: 00,3657                        ENDINTS0           EQUALS
002813:


002815:                                                                                                  #           THE FOLLOWING INSTRUCTIONS ARE AVAILABLE FOR SETTING, MODIFYING, AND BRANCHING ON INDEX REGISTERS:
002816:                                                                                                  #           1.  AXT                ADDRESS TO INDEX TRUE.
002817:                                                                                                  #           1.  AXC                ADDRESS TO INDEX COMPLEMENTED.
002818:                                                                                                  #           3.  LXA                LOAD INDEX FROM ERASABLE.
002819:                                                                                                  #           4.  LXC                LOAD INDEX COMPLEMENTED FROM ERASABLE.
002820:                                                                                                  #           5.  SXA                STORE INDEX IN ERASABLE.
002821:                                                                                                  #           6.  XCHX               EXCHANGE INDEX REGISTER WITH ERASABLE.
002822:
002823:                                                                                                  #           7.  INCR               INCREMENT INDEX REGISTER.
002824:                                                                                                  #           8.  XAD                ERASABLE ADD TO INDEX REGISTER.
002825:                                                                                                  #           9.  XSU                ERASABLE SUBTRACT FROM INDEX REGISTER.
002826:
002827:                                                                                                  #          10.  TIX                BRANCH ON INDEX REGISTER AND DECREMENT.
002828:
002829:
002830:
002831: 01,2000                                           SETLOC   12000                                 #  SUFFIX CLASS 01 IS IN BANK 1.
002832:
002833: 01,2000           02061        AXT                TC       TAGSUB                                #  SELECT APPROPRIATE INDEX REGISTER.
002834: 01,2001           30103                           CA       POLISH
002835: 01,2002           50114        XSTORE             INDEX    INDEXLOC                              #  CONTAINS C(FIXLOC) OR C(FIXLOC)+1.
002836: 01,2003           54046                           TS       X1
002837: 01,2004           16014                           TCF      DANZIG
002838:
002839: 01,2005           02061        AXC                TC       TAGSUB
002840: 01,2006           40103                           CS       POLISH
002841: 01,2007           02002                           TC       XSTORE
002842:
002843: 01,2010           02061        LXA                TC       TAGSUB                                #  LOAD INDEX REGISTER FROM ERASABLE.
002844: 01,2011           50102                           INDEX    ADDRWD
002845: 01,2012           30000                           CA       0
002846: 01,2013           12002                           TCF      XSTORE
002847:
002848: 01,2014           02061        LXC                TC       TAGSUB                                #  LOAD INDEX FROM ERASABLE COMPLEMENTED.
002849: 01,2015           50102                           INDEX    ADDRWD
002850: 01,2016           40000                           CS       0
002851: 01,2017           12002                           TCF      XSTORE
002852:
002853: 01,2020           02061        SXA                TC       TAGSUB                                #  STORE INDEX IN ERASABLE.
002854: 01,2021           50114                           INDEX    INDEXLOC
002855: 01,2022           30046                           CA       X1
002856: 01,2023           16627                           TCF      STORE1                                # (STORE SINGLE PRECISION BEFORE EXIT).
002857:
002858: 01,2024           02061        XCHX               TC       TAGSUB                                #  EXCHANGE INDEX REGISTER WITH ERASABLE.
002859: 01,2025           50102                           INDEX    ADDRWD
002860: 01,2026           30000                           CA       0
002861: 01,2027           50114                           INDEX    INDEXLOC
002862: 01,2030           56046                           XCH      X1
002863: 01,2031           16627                           TCF      STORE1
002864:


002866: 01,2032           02061        XAD                TC       TAGSUB                                #  ERASABLE ADD TO INDEX.
002867: 01,2033           50102                           INDEX    ADDRWD
002868: 01,2034           30000                           CA       0
002869: 01,2035           50114        XAD2               INDEX    INDEXLOC
002870: 01,2036           26046                           ADS      X1                                    #  IGNORING OVERFLOWS.
002871: 01,2037           16014                           TCF      DANZIG
002872:
002873: 01,2040           02061        INCR               TC       TAGSUB                                #  INCREMENT INDEX REGISTER.
002874: 01,2041           30103                           CA       POLISH
002875: 01,2042           12035                           TCF      XAD2
002876:
002877: 01,2043           02061        XSU                TC       TAGSUB                                #  ERASABLE SUBTRACT FROM INDEX.
002878: 01,2044           50102                           INDEX    ADDRWD
002879: 01,2045           40000                           CS       0
002880: 01,2046           12035                           TCF      XAD2
002881:
002882:
002883:
002884: 01,2047           02061        TIX                TC       TAGSUB                                #  BRANCH AND DECREMENT ON INDEX.
002885: 01,2050           50114                           INDEX    INDEXLOC
002886: 01,2051           40050                           CS       S1
002887: 01,2052           50114                           INDEX    INDEXLOC
002888: 01,2053           60046                           AD       X1
002889: 01,2054           00006                           EXTEND                                         #  NO OPERATION IF DECREMENTED INDEX IS
002890: 01,2055           66014                           BZMF     DANZIG                                #  NEGATIVE OR ZERO.
002891:
002892: 01,2056           50114        DOTIXBR            INDEX    INDEXLOC
002893: 01,2057           56046                           XCH      X1                                    #  IGNORING OVERFLOWS.
002894:
002895: 01,2060           16651                           TCF      GOTO                                  #  DO THE BRANCH USING THE CADR IN POLISH.
002896:
002897:
002898:
002899:                                                                                                  #           SUBROUTINE WHICH SETS THE ADDRESS OF THE SPECIFIED INDEX IN INDEXLOC. (ACTUALLY, THE ADDRESS -38D.)
002900:
002901: 01,2061           30104        TAGSUB             CA       FIXLOC
002902: 01,2062           54114                           TS       INDEXLOC
002903:
002904: 01,2063           10020                           CCS      CYR                                   #  BIT 15 SPECIFIES INDEX.
002905: 01,2064           24114                           INCR     INDEXLOC                              #  0 MEANS USE X2.
002906: 01,2065           00002                           TC       Q
002907: 01,2066           00002                           TC       Q                                     #  1 FOR X1.
002908:


002910:                                                                                                  #           MISCELLANEOUS OPERATION CODES WITH DIRECT ADDRESSES. INCLUDED HERE ARE:
002911:
002912:                                                                                                  #           1.  ITA                STORE QPRET (RETURN ADDRESS) IN ERASABLE.
002913:                                                                                                  #           2.  CALL               CALL A SUBROUTINE, LEAVING RETURN IN QPRET.
002914:                                                                                                  #           3.  RTB                RETURN TO BASIC LANGUAGE AT THE GIVEN ADDRESS.
002915:                                                                                                  #           4.  BHIZ               BRANCH IF THE HIGH ORDER OF MPAC IS ZERO (SINGLE PRECISION).
002916:                                                                                                  #           5.  BOV                BRANCH ON OVERFLOW.
002917:                                                                                                  #           6.  GOTO               SIMPLE SEQUENCE CHANGE.
002918:
002919: 01,2067           10020        RTB/BHIZ           CCS      CYR
002920: 01,2070           30103        RTB                CA       POLISH
002921: 01,2071           14105                           TCF      BANKJUMP                              #  CALL BASIC ROUTINE.


002925:
002926: 01,2072           10140        BHIZ               CCS      MPAC


002928: 01,2073           16014                           TCF      DANZIG


002931: 01,2074           16651                           TCF      GOTO
002932: 01,2075           16014                           TCF      DANZIG
002933: 01,2076           16651                           TCF      GOTO
002934:
002935: 01,2077           10105        BOV(B)             CCS      OVFIND                                #  BRANCH ON OVERFLOW TO BASIC OR INTERP.
002936: 01,2100           12102                           TCF      +2
002937: 01,2101           16014                           TCF      DANZIG
002938: 01,2102           54105                           TS       OVFIND
002939: 01,2103           10020                           CCS      CYR
002940: 01,2104           12070                           TCF      RTB                                   #  IF BASIC.
002941: 01,2105           00360        B5TOBB             OCT      360
002942: 01,2106           16651                           TCF      GOTO
002943:


002945: 01,2107           10020        BZE/GOTO           CCS      CYR                                   #  SEE WHICH OP-CODE IS DESIRED.
002946: 01,2110           06711                           TC       BRANCH                                #  DO BZE.
002947: 01,2111           16014                           TCF      DANZIG
002948: 01,2112           16651                           TCF      GOTO                                  #  DO GOTO.
002949: 01,2113           16014                           TCF      DANZIG
002950:
002951: 01,2114           10020        BPL/BMN            CCS      CYR
002952: 01,2115           12123                           TCF      BPL
002953: 01,2116           12000        5B10               DEC      5          B+10                       #  SHIFTS OP CODE IN SWITCH INSTRUCTION ADR
002954:
002955: 01,2117           06711                           TC       BRANCH                                #  DO BMN
002956: 01,2120           16014                           TCF      DANZIG
002957: 01,2121           16014                           TCF      DANZIG
002958: 01,2122           16651                           TCF      GOTO                                  #  ONLY IF NNZ.
002959:
002960: 01,2123           06711        BPL                TC       BRANCH
002961: 01,2124           16651                           TCF      GOTO                                  #  IF POSITIVE OR ZERO.
002962: 01,2125           16651                           TCF      GOTO
002963: 01,2126           16014                           TCF      DANZIG
002964:
002965: 01,2127           10020        CALL/ITA           CCS      CYR
002966: 01,2130           16644                           TCF      CALL
002967:
002968: 01,2131           05464                           TC       CCSHOLE
002969: 01,2132           50104                           INDEX    FIXLOC                                #  STORE QPRET.
002970: 01,2133           30052                           CA       QPRET
002971: 01,2134           16627                           TCF      STORE1
002972:


002974:                                                                                                  #           THE FOLLOWING OPERATIONS ARE AVAILABLE FOR ALTERING AND TESTING INTERPRETIVE SWITCHES:
002975:
002976:                                                                                                  #  00       BONSET                 SET A SWITCH AND DO A GOTO IF IT WAS ON.
002977:                                                                                                  #  01       SETGO                  SET A SWITCH AND DO A GOTO.
002978:                                                                                                  #  02       BOFSET                 SET A SWITCH AND DO A GOTO IF IT WAS OFF
002979:                                                                                                  #  03       SET                    SET A SWITCH.
002980:
002981:                                                                                                  #  04       BONINV                 INVERT A SWITCH AND BRANCH IF IT WAS ON.
002982:                                                                                                  #  05       INVGO                  INVERT A SWITCH AND DO A GOTO.
002983:                                                                                                  #  06       BOFINV                 INVERT A SWITCH AND BRANCH IF IT WAS OFF
002984:                                                                                                  #  07       INVERT                 INVERT A SWITCH.
002985:
002986:                                                                                                  #  10       BONCLR                 CLEAR A SWITCH AND BRANCH IF IT WAS ON.
002987:                                                                                                  #  11       CLRGO                  CLEAR A SWITCH AND DO A GOTO.
002988:                                                                                                  #  12       BOFCLR                 CLEAR A SWITCH AND BRANCH IF IT WAS OFF.
002989:                                                                                                  #  13       CLEAR                  CLEAR A SWITCH.
002990:
002991:                                                                                                  #  14       BON                    BRANCH IF A SWITCH WAS ON.
002992:                                                                                                  #  16       BOFF                   BRANCH IF A SWITCH WAS OFF.
002993:
002994:
002995:
002996:                                                                                                  #           THE ADDRESS SUPPLIED WITH THE SWITCH INSTRUCTION IS INTERPRETED AS FOLLOWS:
002997:
002998:                                                                                                  #           BITS 1-4    SWITCH BIT NUMBER (1-15).
002999:                                                                                                  #           BITS 5-8    SWITCH OPERATION NUMBER.
003000:                                                                                                  #           BITS 9-     SWITCH WORD NUMBER (UP TO 64 SWITCH WORDS).
003001:
003002:                                                                                                  #           THE ADDRESS ITSELF IS MADE UP BY THE YUL SYSTEM ASSEMBLER. THE BRANCH INSTRUCTIONS REQUIRE TWO
003003:                                                                                                  #  ADDRESSES, THE SECOND TAKEN AS THE DIRECT (OR INDIRECT IF IN ERASABLE) ADDRESS OF THE BRANCH.
003004:
003005:
003006:
003007: 01,2135           37673        SWITCHES           CAF      LOW4                                  #  LEAVE THE SWITCH BIT IN SWBIT  .
003008: 01,2136           70103                           MASK     POLISH
003009: 01,2137           50000                           INDEX    A
003010: 01,2140           37641                           CAF      BIT15                                 #  (NUMBER FROM LEFT TO RIGHT.)
003011: 01,2141           54115                           TS       SWBIT
003012:
003013: 01,2142           37651                           CAF      BIT7                                  #  LEAVE THE SWITCH NUMBER IN SWWORD.
003014: 01,2143           00006                           EXTEND
003015: 01,2144           70103                           MP       POLISH
003016: 01,2145           54114                           TS       SWWORD
003017:
003018: 01,2146           00004                           INHINT                                         #  DURING SWITCH CHANGE SO RUPT CAN USE TOO
003019: 01,2147           50000                           INDEX    A                                     #  LEAVE THE SWITCH WORD ITSELF IN L.
003020: 01,2150           30061                           CA       STATE
003021: 01,2151           54002                           TS       Q                                     #  Q WILL BE USED AS A CHANNEL.
003022:
003023:


003025: 01,2152           37645                           CAF      BIT11
003026: 01,2153           00006                           EXTEND                                         #  DISPATCH SWITCH BIT OPERATION AS IN BITS
003027: 01,2154           70103                           MP       POLISH                                #  7-8 OF POLISH.
003028: 01,2155           72215                           MASK     B3TOB4                                #  GETS 4X2-BIT CODE.
003029: 01,2156           50000                           INDEX    A
003030: 01,2157           12160                           TCF      +1
003031:
003032: 01,2160           30115                 +1        CA       SWBIT                                 #  00 - SET SWITCH IN QUESTION.
003033: 01,2161           00006                           EXTEND
003034: 01,2162           04002                           ROR      Q
003035: 01,2163           12172                           TCF      SWSTORE
003036:
003037: 01,2164           30115                 +5        CA       SWBIT                                 #  01 - INVERT SWITCH.
003038: 01,2165           00006                           EXTEND
003039: 01,2166           06002                           RXOR     Q
003040: 01,2167           12172                           TCF      SWSTORE
003041:
003042: 01,2170           40115                 +9D       CS       SWBIT                                 #  10 - CLEAR.
003043: 01,2171           70002                           MASK     Q
003044: 01,2172           50114        SWSTORE            INDEX    SWWORD
003045: 01,2173           54061                           TS       STATE                                 #  NEW SWITCH WORD.
003046:


003048: 01,2174           00003                 +13D      RELINT                                         #  11 - NOOP.
003049: 01,2175           37643                           CAF      BIT13
003050: 01,2176           00006                           EXTEND                                         #  DISPATCH SEQUENCE CHANGING OR BRANCHING
003051: 01,2177           70103                           MP       POLISH                                #  CODE.
003052: 01,2200           72215                           MASK     B3TOB4
003053: 01,2201           50000                           INDEX    A
003054: 01,2202           12203                           TCF      +1                                    #  ORIGINALLY STORED IN BITS 5-6
003055:
003056: 01,2203           40002                 +1        CS       Q                                     #  00 - BRANCH IF ON.
003057: 01,2204           70115        TEST               MASK     SWBIT
003058: 01,2205           10000                           CCS      A
003059: 01,2206           12216                           TCF      SWSKIP
003060:
003061: 01,2207           16703                 +5        TCF      SWBRANCH                              #  01 - GO TO.
003062:
003063: 01,2210           12216                           TCF      SWSKIP                                #  HERE ONLY ON BIT 15.
003064:
003065: 01,2211           05464                           TC       CCSHOLE
003066: 01,2212           05464                           TC       CCSHOLE
003067:
003068: 01,2213           30002                 +9D       CA       Q                                     #  10 - BRANCH IF OFF.
003069: 01,2214           12204                           TCF      TEST
003070:
003071: 01,2215           00014        B3TOB4             OCT      14
003072: 01,2216           24150        SWSKIP             INCR     LOC
003073:
003074: 01,2217  01,2135               SW/                EQUALS   SWITCHES
003075:
003076: 01,2217           16014                 +13D      TCF      DANZIG                                #  11 - NOOP.
003077: 01,2220                        ENDINTS1           EQUALS

End of include-file LIST_PROCESSING_INTERPRETER.agc.  Parent file is MAIN.agc


