
Source Code


000002:                                                                                                  ## Copyright:   Public domain.
000003:                                                                                                  ## Filename:    LIST_PROCESSING_INTERPRETER.agc
000004:                                                                                                  ## Purpose:     Part of the source code for Aurora (revision 12).
000005:                                                                                                  ## Assembler:   yaYUL
000006:                                                                                                  ## Contact:     Hartmuth Gutsche <hgutsche@xplornet.com>.
000007:                                                                                                  ## Website:     https://www.ibiblio.org/apollo.
000008:                                                                                                  ## Pages:       34-122
000009:                                                                                                  ## Mod history: 2016-09-20 JL   Created.
000010:                                                                                                  ##              2016-09-22 HG   Start trancription from scans using Luminary099\INTERPRETER.agc as base
000011:                                                                                                  ##              2016-10-04 HG   Fix FBBANK -> FBANK
000012:                                                                                                  ##              2016-10-12 HG   Fix operand MAPC +1  -> MPAC +1
000013:                                                                                                  ##              2016-10-15 HG   fix label EIHGT -> EIGHT
000014:                                                                                                  ##                              fix operand BIT14 -> BIT4
000015:                                                                                                  ##              2016-10-16      fix label NEGO -> NEG0
000016:                                                                                                  ##              2016-12-07 RSB  Proofed comments with octopus/ProoferComments
000017:                                                                                                  ##                              and made changes.
000018:                                                                                                  ##              2017-02-05 RSB  Back-ported comment corrections
000019:                                                                                                  ##                              identified while proofing Artemis 072.
000020:                                                                                                  ##              2017-03-13 RSB  Comment-text fixes noted in proofing Luminary 116.
000021:                                                                                                  ##              2017-03-15 RSB  Comment-text fixes identified in 5-way
000022:                                                                                                  ##                              side-by-side diff of Luminary 69/99/116/131/210.
000023:
000024:                                                                                                  ## This source code has been transcribed or otherwise adapted from
000025:                                                                                                  ## digitized images of a hardcopy from the private collection of
000026:                                                                                                  ## Don Eyles.  The digitization was performed by archive.org.
000027:
000028:                                                                                                  ## Notations on the hardcopy document read, in part:
000029:
000030:                                                                                                  ##       473423A YUL SYSTEM FOR BLK2: REVISION 12 of PROGRAM AURORA BY DAP GROUP
000031:                                                                                                  ##       NOV 10, 1966
000032:
000033:                                                                                                  ##       [Note that this is the date the hardcopy was made, not the
000034:                                                                                                  ##       date of the program revision or the assembly.]
000035:
000036:                                                                                                  ## The scan images (with suitable reduction in storage size and consequent
000037:                                                                                                  ## reduction in image quality) are available online at
000038:                                                                                                  ##       https://www.ibiblio.org/apollo.
000039:                                                                                                  ## The original high-quality digital images are available at archive.org:
000040:                                                                                                  ##       https://archive.org/details/aurora00dapg
000041:
000042:


000044:                                                                                                  #  SECTION 1  DISPATCHER
000045:
000046:                                                                                                  #           ENTRY TO THE INTERPRETER. INTPRET SETS LOC TO THE FIRST INSTRUCTION, BANKSET TO THE FBANK OF THE
000047:                                                                                                  #  OBJECT INTERPRETIVE PROGRAM, AND INTBIT15 TO THE BIT15 CONTENTS OF FBANK. INTERPRETIVE PROGRAMS MAY BE IN
000048:                                                                                                  #  VIRTUALLY ALL BANKS PRESENT UNDER ANY SUPER-BANK SETTING, WITH THE RESTRICTION THAT PROGRAMS IN HIGH BANKS
000049:                                                                                                  #  (BIT15 OF FBANK = 1) DO NOT REFER TO LOWBANKS, AND VICE-VERSA. THE INTERPRETER DOES NOT SWITCH SUPER-BANK,
000050:                                                                                                  #  NOR DOES IT SWITCH EBANKS. MOST EBANK SWITCHING IS DONE BY THE EXECUTIVE PROGRAM.
000051:
000052:    6000                                           SETLOC   6000
000053:
000054:    6000           00006        INTPRET            EXTEND                                         #  SET LOC TO THE WORD FOLLOWING THE TC.
000055:    6001           22150                           QXCH     LOC
000056:
000057:    6002           30004                 +2        CA       FBANK                                 #  INTERPRETIVE BRANCHES FINISH HERE.
000058:    6003           54151                           TS       BANKSET
000059:    6004           77641                           MASK     BIT15                                 #  GET 15TH BIT FOR INDEXABLE ADDRESSES.
000060:    6005           54101                           TS       INTBIT15
000061:    6006           66426                           AD       LOW10                                 #  THIS VERSION IS USED IN PROCESSING
000062:    6007           54100                           TS       INTB15+                               #  INDEXABLE FIXED-BANK ADDRESSES.
000063:
000064:    6010           16023                           TCF      NEWOPS                                #  PICK UP OP CODE PAIR AND BEGIN.
000065:
000066:    6011           22006        INTRSM             LXCH     BBANK                                 #  RESUME SUSPENDED INTERPRETIVE JOB
000067:    6012           16003                           TCF      INTPRET    +3                         #  (ACTUALLY PART OF THE EXECUTIVE).
000068:


000070:                                                                                                  #        AT THE END OF MOST INSTRUCTIONS, CONTROL IS GIVEN TO DANZIG TO DISPATCH THE NEXT OPERATION.
000071:    6013           54147        NEWMODE            TS       MODE                                  #  PROLOGUE FOR MODE-CHANGING INSTRUCTIONS.
000072:
000073:    6014           30151        DANZIG             CA       BANKSET                               #  SET BBANK BEFORE TESTING NEWJOB SO THAT
000074:    6015           54004                           TS       FBANK                                 #  BBANK MAY BE SAVED DIRECTLY BY CHANJOB.
000075:
000076:    6016           10023        NOIBNKSW           CCS      EDOP                                  #  SEE IF AN ORDER CODE IS LEFT OVER FROM
000077:    6017           16032                           TCF      OPJUMP                                #  THE LAST PAIR RETRIEVED. IF SO, EXECUTE.
000078:                                                                                                  #  EDOP IS SET TO ZERO ON ITS RE-EDITING.
000079:
000080:    6020           10067                           CCS      NEWJOB                                #  SEE IF A JOB OF HIGHER PRIORITY IS
000081:    6021           14412                           TCF      CHANG2                                #  PRESENT, AND IF SO, CHANGE JOBS.
000082:
000083:    6022           24150                           INCR     LOC                                   #  ADVANCE THE LOCATION COUNTER.
000084:    6023           50150        NEWOPS             INDEX    LOC                                   #  ENTRY TO BEGIN BY PICKING OP CODE PAIR.
000085:    6024           30000                           CA       0                                     #  MAY BE AN OPCODE PAIR OR A STORE CODE.
000086:    6025           10000                           CCS      A                                     #  TEST SIGN AND GET DABS(A).
000087:    6026           16342                           TCF      DOSTORE                               #  PROCESS STORE CODE.
000088:
000089:    6027           00177        LOW7               OCT      177
000090:
000091:    6030           54023                           TS       EDOP                                  #  OP CODE PAIR.  LEAVE THE OTHER IN EDOP
000092:    6031           76027                           MASK     LOW7                                  #  WHERE CCS EDOP WILL HONOR IT NEXT.
000093:
000094:    6032           54020        OPJUMP             TS       CYR                                   #  LOWWD ENTERS HERE IF A RIGHT-HAND OP
000095:    6033           10020                           CCS      CYR                                   #  CODE IS TO BE PROCESSED. TEST PREFICES.
000096:    6034           16167                           TCF      OPJUMP2                               #  TEST SECOND PREFIX BIT.
000097:
000098:    6035           16731                           TCF      EXIT                                  #  +0 OP CODE IS EXIT.
000099:


000101:                                                                                                  #        PROCESS ADDRESSES WHICH MAY BE DIRECT, INDEXED, OR REFERENCE THE PUSHDOWN LIST.
000102:
000103:    6036           77657        ADDRESS            MASK     BIT1                                  #  SEE IF ADDRESS IS INDEXED.  CYR CONTAINED
000104:    6037           10000                           CCS      A                                     #  400XX, SO BIT 1 IS NOW AS IT WAS IN CYR.
000105:    6040           16073                           TCF      INDEX                                 #  FORM INDEXED ADDRESS.
000106:
000107:    6041           50150        DIRADRES           INDEX    LOC                                   #  LOOK AHEAD TO NEXT WORD TO SEE IF
000108:    6042           40001        OCT40001           CS       1                                     #  ADDRESS IS GIVEN.
000109:    6043           10000                           CCS      A
000110:    6044           16135                           TCF      PUSHUP                                #  IF NOT.
000111:
000112:    6045           77773        NEG4               DEC      -4         B-14
000113:
000114:    6046           24150                           INCR     LOC                                   #  IF SO, TO SHOW WE PICKED UP A WORD.
000115:    6047           54102                           TS       ADDRWD
000116:


000118:                                                                                                  #           FINAL DIGESTION OF DIRECT ADDRESSES OF OP CODES WITH 01 PREFIX IS DONE HERE. IN EACH CASE, THE
000119:                                                                                                  #  REQUIRED 12 BIT SUB-ADDRESS IS LEFT IN ADDRWD, WITH ANY REQUIRED BANK SWITCHING DONE (F ONLY). ADDRESSES LESS
000120:                                                                                                  #  THAN 45D ARE TAKEN TO BE RELATIVE TO THE WORK AREA. THE OP CODE IS NOW IN BITS 1-5 OF CYR WITH BIT 14 = 1.
000121:
000122:
000123:
000124:    6050           66171                           AD       -ENDVAC                               #  SEE IF ADDRESS RELATIVE TO WORK AREA.
000125:    6051           10000                           CCS      A
000126:    6052           66234                           AD       -ENDERAS                              #  IF NOT, SEE IF IN GENERAL ERASABLE.
000127:    6053           16060                           TCF      IERASTST
000128:
000129:    6054           30104        NETZERO            CA       FIXLOC                                #  IF SO, LEAVE THE MODIFIED ADDRESS IN
000130:    6055           26102                           ADS      ADDRWD                                #  ADDRWD AND DISPATCH.
000131:    6056           50020                 +2        INDEX    CYR                                   #  THIS INDEX MAKES THE NEXT INSTRUCTION
000132:    6057           76234                           7        INDJUMP    -1                         #  TCF INDJUMP + OP, EDITING CYR.
000133:
000134:    6060           00006        IERASTST           EXTEND
000135:    6061           66056                           BZMF     NETZERO    +2                         #  GENERAL ERASABLE - DISPATCH IMMEDIATELY.
000136:
000137:    6062           60100        FIXEDADR           AD       INTB15+                               #  FIXED BANK ADDRESS. RESTORE AND ADD B15.
000138:    6063           54004                 +1        TS       FBANK                                 #  SWITCH BANKS AND LEAVE SUB-ADDRESS IN
000139:    6064           76426                           MASK     LOW10                                 #  ADDRWD FOR OPERAND RETRIEVAL.
000140:    6065           67645                           AD       2K
000141:    6066           54102                           TS       ADDRWD
000142:    6067           50020                           INDEX    CYR
000143:    6070           76234                           7        INDJUMP    -1
000144:


000146:                                                                                                  #           THE FOLLOWING ROUTINE PROCESSES INTERPRETIVE INDEXED ADDRESSES. AN INTERPRETER INDEX REGISTER MAY
000147:                                                                                                  #  CONTAIN THE ADDRESS OF ANY ERASABLE REGISTER (0-42 BEING RELATIVE TO THE VAC AREA) OR ANY INTERPRETIVE PROGRAM
000148:                                                                                                  #  BANK, OR ANY INTEGER IN THAT RANGE.
000149:
000150:    6071           37676        DODLOAD*           CAF      DLOAD*                                #  STODL* COMES HERE TO PROCESS LOAD ADR.
000151:    6072           54020                           TS       CYR                                   #  (STOVL* ENTERS HERE).
000152:
000153:    6073           30104        INDEX              CA       FIXLOC                                #  SET UP INDEX LOCATION.
000154:    6074           54114                           TS       INDEXLOC
000155:    6075           24150                           INCR     LOC                                   #  (ADDRESS ALWAYS GIVEN).
000156:    6076           50150                           INDEX    LOC
000157:    6077           40000                           CS       0
000158:    6100           10000                           CCS      A                                     #  INDEX 2 IF ADDRESS STORED COMPLEMENTED.
000159:    6101           24114                           INCR     INDEXLOC
000160:    6102           16103                           NOOP
000161:
000162:    6103           54102                           TS       ADDRWD                                #  14 BIT ADDRESS TO ADDRWD.
000163:    6104           76232                           MASK     BANKMASK                              #  IF ADDRESS GREATER THAN 1K, ADD INTBIT15
000164:    6105           00006                           EXTEND
000165:    6106           16111                           BZF      INDEX2
000166:    6107           30101                           CA       INTBIT15
000167:    6110           26102                           ADS      ADDRWD
000168:
000169:    6111           50114        INDEX2             INDEX    INDEXLOC
000170:    6112           40046                           CS       X1
000171:    6113           26102                           ADS      ADDRWD                                #  DO AUGMENT, IGNORING AND CORRECTING OVF.
000172:
000173:    6114           76231                           MASK     HIGH9                                 #  SEE IF ADDRESS IS IN WORK AREA.
000174:    6115           00006                           EXTEND
000175:    6116           16131                           BZF      INDWORK
000176:    6117           76232                           MASK     BANKMASK                              #  SEE IF IN FIXED BANK.
000177:    6120           00006                           EXTEND
000178:    6121           16133                           BZF      INDERASE
000179:
000180:    6122           30102                           CA       ADDRWD                                #  IN FIXED - SWITCH BANKS AND CREATE
000181:    6123           54004                           TS       FBANK                                 #  SUB-ADDRESS.
000182:    6124           76426                           MASK     LOW10
000183:    6125           67645                           AD       2K
000184:    6126           54102                           TS       ADDRWD
000185:    6127           50020                           INDEX    CYR
000186:    6130           36234                           3        INDJUMP    -1
000187:
000188:    6131           30104        INDWORK            CA       FIXLOC                                #  MAKE ADDRWD RELATIVE TO WORK AREA.
000189:    6132           26102                           ADS      ADDRWD
000190:
000191:    6133           50020        INDERASE           INDEX    CYR
000192:    6134           36234                           3        INDJUMP    -1
000193:


000195:                                                                                                  #           PUSH-UP ROUTINES. WHEN NO OPERAND ADDRESS IS GIVEN, THE APPROPRIATE OPERAND IS TAKEN FROM THE PUSH-DOWN
000196:                                                                                                  #  LIST. IN MOST CASES THE MODE OF THE RESULT (VECTOR OR SCALAR) OF THE LAST ARITHMETIC OPERATION PERFORMED
000197:                                                                                                  #  IS THE SAME AS THE TYPE OF OPERAND DESIRED (ALL ADD/SUBTRACT ETC.). EXCEPTIONS TO THIS GENERAL RULE ARE LISTED
000198:                                                                                                  #  BELOW (NOTE THAT IN EVERY CASE THE MODE REGISTER IS LEFT INTACT):
000199:
000200:                                                                                                  #           1.  VXSC AND V/SC WANT THE OPPOSITE TYPE OF OPERAND, E.G., IF THE LAST OPERATION YIELDED A VECTOR
000201:                                                                                                  #  RESULT, VXSC WANTS A SCALAR.
000202:
000203:                                                                                                  #           2.  THE LOAD CODES SHOULD LOAD THE ACCUMULATOR INDEPENDENT OF THE RESULT OF THE LAST OPERATION. THIS
000204:                                                                                                  #  INCLUDES VLOAD, DLOAD, TLOAD, PDDL, AND PDVL (NO PUSHUP WITH SLOAD).
000205:
000206:                                                                                                  #           3.  SOME ARITHMETIC OPERATIONS REQUIRE A STANDARD TYPE OF OPERAND REGARDLESS OF THE PREVIOUS OPERATION.
000207:                                                                                                  #  THIS INCLUDES SIGN WANTING DP AND TAD REQUIRING TP.
000208:
000209:    6135           36227        PUSHUP             CAF      OCT23                                 #  IF THE LOW 5 BITS OF CYR ARE LESS THAN
000210:    6136           70020                           MASK     CYR                                   #  20, THIS OP REQUIRES SPECIAL ATTENTION.
000211:    6137           66142                           AD       -OCT10                                #  (NO -0).
000212:    6140           10000                           CCS      A
000213:    6141           16153                           TCF      REGUP                                 #  FOR ALL CODES GREATER THAN OCT 7.
000214:
000215:    6142           77767        -OCT10             OCT      -10
000216:
000217:    6143           66045                           AD       NEG4                                  #  WE NOW HAVE 7 - OP CODE (MOD4). SEE IF
000218:    6144           10000                           CCS      A                                     #  THE OP CODE (MOD4) IS THREE (REVERSE).
000219:    6145           50000                           INDEX    A                                     #  NO - THE MODE IS DEFINITE.  PICK UP THE
000220:    6146           46164                           CS       NO.WDS
000221:    6147           16155                           TCF      REGUP      +2
000222:
000223:    6150           50147                           INDEX    MODE                                  #  FOR VXSC AND V/SC WE WANT THE REQUIRED
000224:    6151           46162                           CS       REVCNT                                #  PUSHLOC DECREMENT WITHOUT CHANGING THE
000225:    6152           16155                           TCF      REGUP      +2                         #  MODE AT THIS TIME.
000226:
000227:    6153           50147        REGUP              INDEX    MODE                                  #  MOST ALL OP CODES PUSHUP HERE.
000228:    6154           46164                           CS       NO.WDS
000229:    6155           26152                 +2        ADS      PUSHLOC
000230:    6156           54102                           TS       ADDRWD
000231:    6157           50020                           INDEX    CYR
000232:    6160           76234                           7        INDJUMP    -1                         #  (THE INDEX MAKES THIS A TCF.)
000233:
000234:    6161           00002                           OCT      2                                     #  REVERSE PUSHUP DECREMENT. VECTOR TAKES 2
000235:    6162           00006        REVCNT             OCT      6                                     #  WORDS, SCALAR TAKES 6.
000236:    6163           00006                           OCT      6
000237:    6164           00002        NO.WDS             OCT      2                                     #  CONVENTIONAL DECREMENT IS 6 WORDS VECTOR
000238:    6165           00003                           OCT      3                                     #  2 IN DP, AND 3 IN TP.
000239:    6166           00006                           OCT      6
000240:


000242:                                                                                                  #           TEST THE SECOND PREFIX BIT TO SEE IF THIS IS A MISCELLANEOUS OR A UNARY/SHORT SHIFT OPERATION.
000243:
000244:    6167           10020        OPJUMP2            CCS      CYR                                   #  TEST SECOND PREFIX BIT.
000245:    6170           16217                           TCF      OPJUMP3                               #  TEST THIRD BIT TO SEE IF UNARY OR SHIFT.
000246:
000247:    6171           77722        -ENDVAC            DEC      -45        B-14
000248:
000249:                                                                                                  #           THE FOLLOWING ROUTINE PROCESSES ADDRESSES OF SUFFIX CLASS 10. THEY ARE BASICALLY WORK AREA ADDRESSES
000250:                                                                                                  #  IN THE RANGE 0 - 52, ERASABLE ADRES CONSTANTS FROM 100 - 1777, AND FCADRS ABOVE THAT. ALL 15 BITS ARE AVAILABLE
000251:                                                                                                  #  IN CONTRAST TO SUFFIX 1, IN WHICH ONLY THE LOW ORDER 14 ARE AVAILABLE.
000252:
000253:    6172           24150        15BITADR           INCR     LOC                                   #  (ENTRY HERE FROM STCALL).
000254:    6173           50150                           INDEX    LOC                                   #  PICK UP ADDRESS WORD.
000255:    6174           30000                           CA       0
000256:    6175           54103                           TS       POLISH                                #  THE ABSOLUTE ADDRESS WILL BE LEFT IN
000257:    6176           54102                           TS       ADDRWD                                #  POLISH WITH AN ERASABLE SUBADDRESS IN
000258:                                                                                                  #  ADDRWD.
000259:    6177           76231                           MASK     HIGH9                                 #  SEE IF RELATIVE TO THE WORK AREA.
000260:    6200           10000                           CCS      A
000261:    6201           16203                           TCF      +2
000262:    6202           16210                           TCF      RELWORK                               #  ONLY IF ZERO.
000263:
000264:    6203           36230                           CAF      LOW7+2K                               #  THESE INSTRUCTIONS ARE IN BANK 1.
000265:    6204           54004                           TS       FBANK
000266:    6205           70020                           MASK     CYR
000267:    6206           50000                           INDEX    A
000268:    6207           16275                           TCF      MISCJUMP
000269:
000270:    6210           30104        RELWORK            CA       FIXLOC                                #  MAKE ADDRWD RELATIVE TO FIXLOC, LEAVING
000271:    6211           26102                           ADS      ADDRWD                                #  POLISH ABSOLUTE IN CASE THIS WAS AN
000272:    6212           36230                           CAF      LOW7+2K                               #  AXT, ETC.
000273:    6213           54004                           TS       FBANK
000274:    6214           70020                           MASK     CYR
000275:    6215           50000                           INDEX    A
000276:    6216           16275                           TCF      MISCJUMP
000277:


000279:                                                                                                  #           COMPLETE THE DISPATCHING OF UNARY AND SHORT SHIFT OPERATIONS.
000280:
000281:    6217           54004        OPJUMP3            TS       FBANK                                 #  CALL IN BANK 0 (BITS 11-15 OF A ARE 0.)
000282:    6220           10020                           CCS      CYR                                   #  TEST THIRD PREFIX BIT.
000283:    6221           50000                           INDEX    A                                     #  THE DECREMENTED UNARY CODE IS IN BITS
000284:    6222           16315                           TCF      UNAJUMP                               #  1-4 OF A (ZERO, EXIT, HAS BEEN DETECTED)
000285:
000286:    6223           10147                           CCS      MODE                                  #  ITS A SHORT SHIFT CODE. SEE IF PRESENT
000287:    6224           12000                           TCF      SHORTT                                #  SCALAR OR VECTOR.
000288:    6225           12000                           TCF      SHORTT
000289:    6226           12102                           TCF      SHORTV                                #  CALLS THE APPROPRIATE ROUTINE.
000290:
000291:
000292:    6227           00023        OCT23              OCT      23                                    #  MASK USED BY PUSH-UP ROUTINE.
000293:    6230           02177        LOW7+2K            OCT      2177                                  #  OP CODE MASK + BANK 1 FBANK SETTING.
000294:    6231           77700        HIGH9              OCT      77700
000295:    6232           76000        BANKMASK           OCT      76000                                 #  FBANK MASK.
000296:    6233     6232               FBANKMSK           EQUALS   BANKMASK
000297:    6233           36000        B11T14             OCT      36000                                 #  USED IN PROCESSING STORE CODES.
000298:    6234           76056        -ENDERAS           DEC      -977       B-14
000299:


000301:                                                                                                  #           THE FOLLOWING IS THE JUMP TABLE FOR OP CODES WHICH MAY HAVE INDEXABLE ADDRESSES OR MAY PUSH UP.
000302:
000303:    6235           16511        INDJUMP            TCF      VLOAD                                 #  00 - LOAD MPAC WITH A VECTOR.
000304:    6236           17050                           TCF      TAD                                   #  01 - TRIPLE PRECISION ADD TO MPAC.
000305:    6237           17603                           TCF      SIGN                                  #  02 - COMPLEMENT MPAC (V OR SC) IF X NEG.
000306:    6240           17354                           TCF      VXSC                                  #  03 - VECTOR TIMES SCALAR.
000307:    6241           16672                           TCF      CGOTO                                 #  04 - COMPUTED GO TO.
000308:    6242           16474                           TCF      TLOAD                                 #  05 - LOAD MPAC WITH TRIPLE PRECISION.
000309:    6243           16465                           TCF      DLOAD                                 #  06 - LOAD MPAC WITH A DP SCALAR.
000310:    6244           17552                           TCF      V/SC                                  #  07 - VECTOR DIVIDED BY SCALAR.
000311:
000312:    6245           16505                           TCF      SLOAD                                 #  10 - LOAD MPAC IN SINGLE PRECISION.
000313:    6246           16624                           TCF      SSP                                   #  11 - SET SINGLE PRECISION INTO X.
000314:    6247           16527                           TCF      PDDL                                  #  12 - PUSH DOWN MPAC AND RE-LOAD IN DP.
000315:    6250           17307                           TCF      MXV                                   #  13 - MATRIX POST-MULTIPLIED BY VECTOR.
000316:    6251           16563                           TCF      PDVL                                  #  14 - PUSH DOWN AND VECTOR LOAD.
000317:    6252           16632                           TCF      CCALL                                 #  15 - COMPUTED CALL.
000318:    6253           17312                           TCF      VXM                                   #  16 - MATRIX PRE-MULTIPLIED BY VECTOR.
000319:    6254           17544                           TCF      TSLC                                  #  17 - NORMALIZE MPAC (SCALAR ONLY).
000320:
000321:    6255           17522                           TCF      DMPR                                  #  20 - DP MULTIPLY AND ROUND.
000322:    6256           17525                           TCF      DDV                                   #  21 - DP DIVIDE BY.
000323:    6257           17531                           TCF      BDDV                                  #  22 - DP DIVIDE INTO.
000324:    6260           17547                           TCF      GSHIFT                                #  23 - GENERAL SHIFT INSTRUCTION.
000325:    6261           16733                           TCF      VAD                                   #  24 - VECTOR ADD.
000326:    6262           16761                           TCF      VSU                                   #  25 - VECTOR SUBTRACT.
000327:    6263           17011                           TCF      BVSU                                  #  26 - VECTOR SUBTRACT FROM.
000328:    6264           17304                           TCF      DOT                                   #  27 - VECTOR DOT PRODUCT.
000329:
000330:    6265           17434                           TCF      VXV                                   #  30 - VECTOR CROSS PRODUCT.
000331:    6266           17400                           TCF      VPROJ                                 #  31 - VECTOR PROJECTION.
000332:    6267           16777                           TCF      DSU                                   #  32 - DP SUBTRACT.
000333:    6270           17035                           TCF      BDSU                                  #  33 - DP SUBTRACT FROM.
000334:    6271           16751                           TCF      DAD                                   #  34 - DP ADD.
000335:    6272           16272                           TCF      +0                                    #  35 - AVAILABLE
000336:    6273           17520                           TCF      DMP1                                  #  36 - DP MULTIPLY.
000337:    6274           17541                           TCF      SETPD                                 #  37 - SET PUSH DOWN POINTER (DIRECT ONLY)
000338:
000339:                                                                                                  #  CODES 10 AND 14 MUST NOT PUSH UP. CODE 04 MAY BE USED FOR VECTOR DECLARE BEFORE PUSHUP IF DESIRED.
000340:


000342:                                                                                                  #           THE FOLLOWING JUMP TABLE APPLIES TO INDEX, BRANCH, AND MISCELLANEOUS INSTRUCTIONS.
000343:
000344:    6275           12000        MISCJUMP           TCF      AXT                                   #  00 - ADDRESS TO INDEX TRUE.
000345:    6276           12005                           TCF      AXC                                   #  01 - ADDRESS TO INDEX COMPLEMENTED.
000346:    6277           12010                           TCF      LXA                                   #  02 - LOAD INDEX FROM ERASABLE.
000347:    6300           12014                           TCF      LXC                                   #  03 - LOAD INDEX FROM COMPLEMENT OF ERAS.
000348:    6301           12020                           TCF      SXA                                   #  04 - STORE INDEX IN ERASABLE.
000349:    6302           12024                           TCF      XCHX                                  #  05 - EXCHANGE INDEX WITH ERASABLE.
000350:    6303           12040                           TCF      INCR                                  #  06 - INCREMENT INDEX REGISTER.
000351:    6304           12047                           TCF      TIX                                   #  07 - TRANSFER ON INDEX.
000352:
000353:    6305           12032                           TCF      XAD                                   #  10 - INDEX REGISTER ADD FROM ERASABLE.
000354:    6306           12043                           TCF      XSU                                   #  11 - INDEX SUBTRACT FROM ERASABLE.
000355:    6307           12107                           TCF      BZE/GOTO                              #  12 - BRANCH ZERO AND GOTO.
000356:    6310           12114                           TCF      BPL/BMN                               #  13 - BRANCH PLUS AND BRANCH MINUS.
000357:    6311           12127                           TCF      CALL/ITA                              #  14 - CALL AND STORE QPRET.
000358:    6312           12067                           TCF      RTB/BHIZ                              #  15 - RETURN TO BASIC AND BRANCH HI ZERO.
000359:    6313           12135                           TCF      SW/                                   #  16 - SWITCH INSTRUCTIONS AND AVAILABLE.
000360:    6314           12077                           TCF      BOV(B)                                #  17 - BRANCH ON OVERFLOW TO BASIC OR INT.
000361:


000363:                                                                                                  #           THE FOLLOWING JUMP TABLE APPIES TO UNARY INSTRUCTIONS.
000364:
000365:                                                                                                  #  00 - EXIT - DETECTED EARLIER.
000366:    6315           13135        UNAJUMP            TCF      SQRT                                  #  01 - SQUARE ROOT.
000367:    6316           13456                           TCF      SINE                                  #  02 - SIN.
000368:    6317           13445                           TCF      COSINE                                #  03 - COS.
000369:    6320           13536                           TCF      ARCSIN                                #  04 - ARC SIN.
000370:    6321           13540                           TCF      ARCCOS                                #  05 - ARC COS.
000371:    6322           13122                           TCF      DSQ                                   #  06 - DP SQUARE.
000372:    6323           12077                           TCF      ROUND                                 #  07 - ROUND TO DP.
000373:
000374:    6324           17616                           TCF      COMP                                  #  10 - COMPLEMENT VECTOR OR SCALAR.
000375:    6325           13160                           TCF      VDEF                                  #  11 - VECTOR DEFINE.
000376:    6326           12750                           TCF      UNIT                                  #  12 - UNIT VECTOR.
000377:    6327           13124                           TCF      ABVALABS                              #  13 - LENGTH OF VECTOR OR MAG OF SCALAR.
000378:    6330           13174                           TCF      VSQ                                   #  14 - SQUARE OF LENGTH OF VECTOR.
000379:    6331           16334                           TCF      STADR                                 #  15 - PUSH UP ON STORE CODE.
000380:    6332           13224                           TCF      RVQ                                   #  16 - RETURN VIA QPRET.
000381:    6333           13177                           TCF      PUSH                                  #  17 - PUSH MPAC DOWN.
000382:


000384:                                                                                                  #  SECTION 2  LOAD AND STORE PACKAGE.
000385:
000386:                                                                                                  #           A SET OF SIXTEEN STORE CODES ARE PROVIDED AS THE PRIMARY METHOD OF STORING THE MULTI-PURPOSE
000387:                                                                                                  #  ACCUMULATOR (MPAC). IF IN THE DANZIG SECTION LOC REFERS TO AN ALGEBRAICALLY POSITIVE WORD, IT IS TAKEN AS A
000388:                                                                                                  #  STORE CODE WITH A CORRESPONDING ERASABLE ADDRESS. MOST OF THESE CODES ARE TWO ADDRESS, SPECIFYING THAT THE WORD
000389:                                                                                                  #  FOLLOWING THE STORE CODE IS TO BE USED AS AN ADDRESS FROM WHICH TO RE-LOAD MPAC. FOUR OPTIONS ARE AVAILABLE:
000390:
000391:                                                                                                  #           1. STORE               STORE MPAC. THE E ADDRESS MAY BE INDEXED.
000392:                                                                                                  #           2. STODL               STORE MPAC AND RE-LOAD IT IN DP WITH THE NEXT ADDRESS (EITHER MAY BE INDEXED).
000393:                                                                                                  #           3. STOVL               STORE MPAC AND RE-LOAD A VECTOR (AS ABOVE).
000394:                                                                                                  #           4. STCALL              STORE AND DO A CALL (BOTH ADDRESSES MUST BE DIRECT HERE).
000395:
000396:                                                                                                  #           STODL AND STOVL WILL TAKE FROM THE PUSH-DOWN LIST IF NO LOAD ADDRESS IS GIVEN.
000397:
000398:
000399:
000400:    6334           30151        STADR              CA       BANKSET                               #  THE STADR CODE (PUSHUP UP ON STORE
000401:    6335           54004                           TS       FBANK                                 #  ADDRESS) ENTERS HERE.
000402:    6336           24150                           INCR     LOC
000403:    6337           50150                           INDEX    LOC                                   #  THE STORE CODE WAS STORE COMPLEMENTED TO
000404:    6340           40000                           CS       0                                     #  MAKE IT LOOK LIKE AN OPCODE PAIR.
000405:    6341           67667                           AD       NEGONE                                #  (YUL CANT REMOVE 1 BECAUSE OF EARLY CCS)
000406:
000407:    6342           54102        DOSTORE            TS       ADDRWD
000408:    6343           76426                           MASK     LOW10                                 #  ENTRY FROM DISPATCHER. SAVE THE ERASABLE
000409:    6344           56102                           XCH      ADDRWD                                #  ADDRESS AND JUMP ON THE STORE CODE NO.
000410:    6345           76233                           MASK     B11T14
000411:    6346           00006                           EXTEND
000412:    6347           77652                           MP       BIT6                                  #  EACH TRANSFER VECTOR ENTRY IS TWO WORDS.
000413:    6350           50000                           INDEX    A
000414:    6351           16352                           TCF      STORJUMP
000415:


000417:                                                                                                  #           STORE CODE JUMP TABLE. CALLS THE APPROPRIATE STORING ROUTINE AND EXITS TO DANZIG OR TO ADDRESS WITH
000418:                                                                                                  #  A SUPPLIED OPERATION CODE.
000419:
000420:    6352           06422        STORJUMP           TC       STORE                                 #  STORE.
000421:    6353           16022                           TCF      NEWOPS     -1                         #  PICK UP NEW OP CODE(S).
000422:    6354           06414                           TC       STORE,1
000423:    6355           16022                           TCF      NEWOPS     -1
000424:    6356           06417                           TC       STORE,2
000425:    6357           16022                           TCF      NEWOPS     -1
000426:
000427:    6360           06422                           TC       STORE                                 #  STODL.
000428:    6361           16455                           TCF      DODLOAD
000429:    6362           06414                           TC       STORE,1
000430:    6363           16455                           TCF      DODLOAD
000431:    6364           06417                           TC       STORE,2
000432:    6365           16455                           TCF      DODLOAD
000433:
000434:    6366           06422                           TC       STORE                                 #  STODL WITH INDEXED LOAD ADDRESS.
000435:    6367           16071                           TCF      DODLOAD*
000436:    6370           06414                           TC       STORE,1
000437:    6371           16071                           TCF      DODLOAD*
000438:    6372           06417                           TC       STORE,2
000439:    6373           16071                           TCF      DODLOAD*
000440:
000441:    6374           06422                           TC       STORE                                 #  STOVL.
000442:    6375           16460                           TCF      DOVLOAD
000443:    6376           06414                           TC       STORE,1
000444:    6377           16460                           TCF      DOVLOAD
000445:    6400           06417                           TC       STORE,2
000446:    6401           16460                           TCF      DOVLOAD
000447:
000448:    6402           06422                           TC       STORE                                 #  STOVL WITH INDEXED LOAD ADDRESS.
000449:    6403           16463                           TCF      DOVLOAD*
000450:    6404           06414                           TC       STORE,1
000451:    6405           16463                           TCF      DOVLOAD*
000452:    6406           06417                           TC       STORE,2
000453:    6407           16463                           TCF      DOVLOAD*
000454:
000455:    6410           06422                           TC       STORE                                 #  STOTC.
000456:    6411           37674                           CAF      CALLCODE
000457:    6412           54020                           TS       CYR
000458:    6413           16172                           TCF      15BITADR                              #  GET A 15 BIT ADDRESS.
000459:


000461:                                                                                                  #           STORE CODE ADDRESS PROCESSOR.
000462:
000463:    6414           50104        STORE,1            INDEX    FIXLOC
000464:    6415           40046                           CS       X1
000465:    6416           16421                           TCF      PRESTORE
000466:
000467:    6417           50104        STORE,2            INDEX    FIXLOC
000468:    6420           40047                           CS       X2
000469:    6421           26102        PRESTORE           ADS      ADDRWD                                #  RESULTANT ADDRESS IS IN ERASABLE.
000470:
000471:    6422           30102        STORE              CA       ADDRWD                                #  SEE IF ADDRESS RELATIVE TO WORK AREA.
000472:    6423           66171                           AD       -ENDVAC
000473:    6424           10000                           CCS      A
000474:    6425           16431                           TCF      STARTSTO                              #  ADDRESS OK AS IS.
000475:
000476:    6426           01777        LOW10              OCT      1777
000477:
000478:    6427           30104                           CA       FIXLOC                                #  GIVEN ADDRESS IS RELATIVE TO WORK AREA.
000479:    6430           26102                           ADS      ADDRWD
000480:


000482:                                                                                                  #           STORING ROUTINES. STORE DP, TP, OR VECTOR AS INDICATED BY MODE.
000483:
000484:    6431           00006        STARTSTO           EXTEND                                         #  MPAC,+1 MUST BE STORED IN ANY EVENT.
000485:    6432           30141                           DCA      MPAC
000486:    6433           50102                           INDEX    ADDRWD
000487:    6434           52001                           DXCH     0
000488:
000489:    6435           10147                           CCS      MODE
000490:    6436           16451                           TCF      TSTORE
000491:    6437           00002                           TC       Q
000492:
000493:    6440           00006        VSTORE             EXTEND
000494:    6441           30144                           DCA      MPAC       +3
000495:    6442           50102                           INDEX    ADDRWD
000496:    6443           52003                           DXCH     2
000497:
000498:    6444           00006                           EXTEND
000499:    6445           30146                           DCA      MPAC       +5
000500:    6446           50102                           INDEX    ADDRWD
000501:    6447           52005                           DXCH     4
000502:    6450           00002                           TC       Q
000503:
000504:    6451           30142        TSTORE             CA       MPAC       +2
000505:    6452           50102                           INDEX    ADDRWD
000506:    6453           54002                           TS       2
000507:    6454           00002                           TC       Q
000508:


000510:                                                                                                  #           ROUTINES TO BEGIN PROCESSING OF THE SECOND ADDRESS ASSOCIATED WITH ALL STORE-TYPE CODES EXCEPT STORE
000511:                                                                                                  #  ITSELF.
000512:
000513:    6455           37675        DODLOAD            CAF      DLOADCOD
000514:    6456           54020                           TS       CYR
000515:    6457           16041                           TCF      DIRADRES                              #  GO GET A DIRECT ADDRESS.
000516:
000517:    6460           37641        DOVLOAD            CAF      VLOADCOD
000518:    6461           54020                           TS       CYR
000519:    6462           16041                           TCF      DIRADRES
000520:
000521:    6463           36042        DOVLOAD*           CAF      VLOAD*
000522:    6464           16072                           TCF      DODLOAD*   +1                         #  PROLOGUE TO INDEX ROUTINE.
000523:


000525:                                                                                                  #           THE FOLLOWING LOAD INSTRUCTIONS ARE PROVIDED FOR LOADING THE MULTI-PURPOSE ACCUMULATOR MPAC.
000526:
000527:    6465           00006        DLOAD              EXTEND
000528:    6466           50102                           INDEX    ADDRWD
000529:    6467           30001                           DCA      0                                     #  PICK UP DP ARGUMENT AND LEAVE IT IN
000530:    6470           52141        SLOAD2             DXCH     MPAC                                  #  MPAC,+1, SETTING MPAC +2 TO ZERO. THE
000531:    6471           37665                           CAF      ZERO                                  #  CONTENTS OF THE OTHER FOUR REGISTERS OF
000532:    6472           54142                           TS       MPAC       +2                         #  MPAC ARE IRRELEVANT.
000533:    6473           16013                           TCF      NEWMODE                               #  DECLARE DOUBLE PRECISION MODE.
000534:
000535:    6474           50102        TLOAD              INDEX    ADDRWD
000536:    6475           30002                           CA       2                                     #  LOAD A TRIPLE PRECISION ARGUMENT INTO
000537:    6476           54142                           TS       MPAC       +2                         #  THE FIRST THREE MPAC REGISTERS, WITH THE
000538:    6477           00006                           EXTEND                                         #  CONTENTS OF THE OTHER FOUR IRRELEVANT.
000539:    6500           50102                           INDEX    ADDRWD
000540:    6501           30001                           DCA      0
000541:    6502           52141                           DXCH     MPAC
000542:    6503           37657                           CAF      ONE
000543:    6504           16013                           TCF      NEWMODE                               #  DECLARE TRIPLE PRECISION MODE.
000544:
000545:    6505           22007        SLOAD              ZL                                             #  LOAD A SINGLE PRECISION NUMBER INTO
000546:    6506           50102                           INDEX    ADDRWD                                #  MPAC, SETTING MPAC+1,2 TO ZERO. THE
000547:    6507           30000                           CA       0                                     #  CONTENTS OF THE REMAINING MPAC REGISTERS
000548:    6510           16470                           TCF      SLOAD2                                #  ARE IRRELEVANT.
000549:
000550:    6511           00006        VLOAD              EXTEND                                         #  LOAD A DOUBLE PRECISION VECTOR INTO
000551:    6512           50102                           INDEX    ADDRWD                                #  MPAC,+1, MPAC+3,4, AND MPAC+5,6. THE
000552:    6513           30001                           DCA      0                                     #  CONTENTS OF MPAC +2 ARE IRRELEVANT.
000553:    6514           52141                           DXCH     MPAC
000554:
000555:    6515           00006        ENDVLOAD           EXTEND                                         #  PDVL COMES HERE TO FINISH UP FOR DP, TP.
000556:    6516           50102                           INDEX    ADDRWD
000557:    6517           30003                           DCA      2
000558:    6520           52144                           DXCH     MPAC       +3
000559:
000560:    6521           00006                 +4        EXTEND                                         #  TPDVL FINISHES HERE.
000561:    6522           50102                           INDEX    ADDRWD
000562:    6523           30005                           DCA      4
000563:    6524           52146                           DXCH     MPAC       +5
000564:
000565:    6525           47657                           CS       ONE                                   #  DECLARE VECTOR MODE.
000566:    6526           16013                           TCF      NEWMODE
000567:


000569:                                                                                                  #           THE FOLLOWING INSTRUCTIONS ARE PROVIDED FOR STORING OPERANDS IN THE PUSHDOWN LIST:
000570:
000571:                                                                                                  #           1.  PUSH               PUSHDOWN AND NO LOAD.
000572:                                                                                                  #           2.  PDDL               PUSHDOWN AND DOUBLE PRECISION LOAD.
000573:                                                                                                  #           3.  PDVL               PUSHDOWN AND VECTOR LOAD.
000574:
000575:    6527           00006        PDDL               EXTEND
000576:    6530           50102                           INDEX    ADDRWD                                #  LOAD MPAC,+1, PUSHING THE FORMER
000577:    6531           30001                           DCA      0                                     #  CONTENTS DOWN.
000578:    6532           52141                           DXCH     MPAC
000579:    6533           50152                           INDEX    PUSHLOC
000580:    6534           52001                           DXCH     0
000581:
000582:    6535           50147                           INDEX    MODE                                  #  ADVANCE THE PUSHDOWN POINTER APPRO-
000583:    6536           36164                           CAF      NO.WDS                                #  PRIATELY.
000584:    6537           26152                           ADS      PUSHLOC
000585:
000586:    6540           10147                           CCS      MODE
000587:    6541           16556                           TCF      ENDTPUSH
000588:    6542           16554                           TCF      ENDDPUSH
000589:
000590:    6543           54147                           TS       MODE                                  #  NOW DP.
000591:    6544           54142        ENDVPUSH           TS       MPAC       +2
000592:    6545           52144                           DXCH     MPAC       +3                         #  PUSH DOWN THE REST OF THE VECTOR HERE.
000593:    6546           50152                           INDEX    PUSHLOC
000594:    6547           51775                           DXCH     0          -4
000595:
000596:    6550           52146                           DXCH     MPAC       +5
000597:    6551           50152                           INDEX    PUSHLOC
000598:    6552           51777                           DXCH     0          -2
000599:
000600:    6553           16014                           TCF      DANZIG
000601:
000602:    6554           54142        ENDDPUSH           TS       MPAC       +2                         #  SET MPAC +2 TO ZERO AND EXIT ON DP.
000603:    6555           16014                           TCF      DANZIG
000604:
000605:    6556           54147        ENDTPUSH           TS       MODE
000606:    6557           56142                           XCH      MPAC       +2                         #  ON TRIPLE, SET MPAC +2 TO ZERO, PUSHING
000607:    6560           50152                 +2        INDEX    PUSHLOC                               #  DOWN THE OLD CONTENTS
000608:    6561           53777                           TS       0          -1
000609:    6562           16014                           TCF      DANZIG
000610:


000612:                                                                                                  #           PDVL - PUSHDOWN AND VECTOR LOAD.
000613:
000614:    6563           00006        PDVL               EXTEND                                         #  RELOAD MPAC AND PUSH DOWN ITS CONTENTS.
000615:    6564           50102                           INDEX    ADDRWD
000616:    6565           30001                           DCA      0
000617:    6566           52141                           DXCH     MPAC
000618:    6567           50152                           INDEX    PUSHLOC
000619:    6570           52001                           DXCH     0
000620:
000621:    6571           50147                           INDEX    MODE                                  #  ADVANCE THE PUSHDOWN POINTER.
000622:    6572           36164                           CAF      NO.WDS
000623:    6573           26152                           ADS      PUSHLOC
000624:
000625:    6574           10147                           CCS      MODE                                  #  TEST PAST MODE.
000626:    6575           16614                           TCF      TPDVL
000627:    6576           16515                           TCF      ENDVLOAD                              #  JUST LOAD LAST FOUR REGISTERS ON DP.
000628:
000629:    6577           00006        VPDVL              EXTEND                                         #  PUSHDOWN AND RE-LOAD LAST TWO COMPONENTS
000630:    6600           50102                           INDEX    ADDRWD
000631:    6601           30003                           DCA      2
000632:    6602           52144                           DXCH     MPAC       +3
000633:    6603           50152                           INDEX    PUSHLOC
000634:    6604           51775                           DXCH     0          -4
000635:
000636:    6605           00006                           EXTEND
000637:    6606           50102                           INDEX    ADDRWD
000638:    6607           30005                           DCA      4
000639:    6610           52146                           DXCH     MPAC       +5
000640:    6611           50152                           INDEX    PUSHLOC
000641:    6612           51777                           DXCH     0          -2
000642:
000643:    6613           16014                           TCF      DANZIG
000644:
000645:    6614           00006        TPDVL              EXTEND                                         #  ON TP, WE MUST LOAD THE Y COMPONENT
000646:    6615           50102                           INDEX    ADDRWD                                #  BEFORE STORING MPAC +2 IN CASE THIS IS A
000647:    6616           30003                           DCA      2                                     #  PUSHUP.
000648:    6617           52144                           DXCH     MPAC       +3
000649:
000650:    6620           30142                           CA       MPAC       +2
000651:    6621           50152                           INDEX    PUSHLOC                               #  IN DP.
000652:    6622           53777                           TS       0          -1
000653:    6623           16521                           TCF      ENDVLOAD   +4
000654:
000655:                                                                                                  #           SSP (STORE SINGLE PRECISION) IS EXECUTED HERE.
000656:
000657:    6624           24150        SSP                INCR     LOC                                   #  PICK UP THE WORD FOLLOWING THE GIVEN
000658:    6625           50150                           INDEX    LOC                                   #  ADDRESS AND STORE IT AT X.
000659:    6626           30000                           CA       0
000660:    6627           50102        STORE1             INDEX    ADDRWD                                #  SOME INDEX AND MISCELLANEOUS OPS END
000661:    6630           54000                           TS       0                                     #  HERE.
000662:


000664:    6631           16014                           TCF      DANZIG
000665:


000667:                                                                                                  #  SEQUENCE CHANGING AND SUBROUTINE CALLING OPTIONS.
000668:
000669:                                                                                                  #           THE FOLLOWING OPERATIONS ARE AVAILABLE FOR SEQUENCING CHANGING, BRANCHING, AND CALLING SUBROUTINES:
000670:
000671:                                                                                                  #           1. GOTO                GO TO.
000672:                                                                                                  #           2. CALL                CALL SUBROUTINE SETTING QPRET.
000673:                                                                                                  #           3. CGOTO               COMPUTED GO TO.
000674:                                                                                                  #           4. CCALL               COMPUTED CALL.
000675:                                                                                                  #           7. BPL                 BRANCH IF MPAC POSITIVE OR ZERO.
000676:                                                                                                  #           8. BZE                 BRANCH IF MPAC ZERO.
000677:                                                                                                  #           9. BMN                 BRANCH IF MPAC NEGATIVE NON-ZERO.
000678:
000679:    6632           24150        CCALL              INCR     LOC                                   #  MAINTAIN LOC FOR QPRET COMPUTATION.
000680:    6633           50150                           INDEX    LOC
000681:    6634           30000                           CAF      0                                     #  GET BASE ADDRESS OF CADR LIST.
000682:    6635           50102                           INDEX    ADDRWD
000683:    6636           60000                           AD       0                                     #  ADD INCREMENT.
000684:    6637           54004                           TS       FBANK                                 #  SELECT DESIRED CADR.
000685:    6640           76426                           MASK     LOW10
000686:    6641           50000                           INDEX    A
000687:    6642           32000                           CAF      10000
000688:    6643           54103                 -1        TS       POLISH
000689:
000690:    6644           46426        CALL               CS       LOW10                                 #  FOR ANY OF THE CALL OPTIONS, MAKE UP THE
000691:    6645           60150                           AD       LOC                                   #  ADDRESS OF THE NEXT OP-CODE PAIR/STORE
000692:    6646           60151                           AD       BANKSET                               #  CODE AND LEAVE IT IN QPRET. NOTE THAT
000693:    6647           50104                           INDEX    FIXLOC                                #  LOW10 = 2000 - 1.
000694:    6650           54052                           TS       QPRET
000695:
000696:    6651           30103        GOTO               CA       POLISH                                #  BASIC BRANCHING SEQUENCE.
000697:    6652           54004                           TS       FBANK
000698:    6653           76426                           MASK     LOW10                                 #  MAKE UP 12 BIT SUB-ADDRESS AND FALL INTO
000699:    6654           67645                           AD       2K                                    #  FALL INTO THE INTPRET ENTRY UNLESS THE
000700:    6655           54150                           TS       LOC                                   #  GIVEN ADDRESS WAS IN ERASABLE, IN WHICH
000701:    6656           10004                           CCS      FBANK                                 #  CASE IT IS USED AS THE ADDRESS OF THE
000702:    6657           16002                           TCF      INTPRET    +2                         #  BRANCH ADDRESS.
000703:    6660           16662                           TCF      +2
000704:    6661           16002                           TCF      INTPRET    +2
000705:


000707:    6662           40150                           CS       LOC                                   #  THE GIVEN ADDRESS IS IN ERASABLE - SEE
000708:    6663           66710                           AD       EVAC+2K                               #  IF RELATIVE TO THE WORK AREA.
000709:    6664           10000                           CCS      A
000710:    6665           30104                           CA       FIXLOC                                #  ADD FIXLOC IF SO.
000711:    6666           26150                           ADS      LOC
000712:
000713:    6667           50150                           INDEX    LOC
000714:    6670           26000                           CA       0          -2000                      #  (ADDRESS HAD BEEN AUGMENTED BY 2000.)
000715:    6671           16652                           TCF      GOTO       +1                         #  ALLOWS ARBITRARY INDIRECTNESS.
000716:
000717:    6672           50150        CGOTO              INDEX    LOC                                   #  COMPUTED GO TO. PICK UP ADDRESS OF CADR
000718:    6673           30001                           CA       1                                     #  LIST.
000719:    6674           50102                           INDEX    ADDRWD                                #  ADD MODIFIER.
000720:    6675           60000                           AD       0
000721:    6676           54004                           TS       FBANK                                 #  SELECT GOTO ADDRESS.
000722:    6677           76426                           MASK     LOW10
000723:    6700           50000                           INDEX    A
000724:    6701           32000                           CA       10000
000725:    6702           16652                           TCF      GOTO       +1                         #  WITH ADDRESS IN A.
000726:
000727:    6703           30151        SWBRANCH           CA       BANKSET                               #  SWITCH INSTRUCTIONS WHICH ELECT TO
000728:    6704           54004                           TS       FBANK                                 #  BRANCH COME HERE TO DO SO.
000729:    6705           50150                           INDEX    LOC
000730:    6706           30001                           CA       1
000731:    6707           16652                           TCF      GOTO       +1
000732:
000733:    6710           02055        EVAC+2K            DEC      1069       B-14                       #  =1024+45
000734:


000736:                                                                                                  #           TRIPLE PRECISION BRANCHING ROUTINE. IF CALLING TC IS AT L, RETURN IS AS FOLLOWS:
000737:                                                                                                  #           L+1  IF MPAC IS GREATER THAN ZERO.
000738:                                                                                                  #           L+2  IF MPAC IS EQUAL TO +0 OR -0.
000739:                                                                                                  #           L+3  IF MPAC IS LESS THAN ZERO.
000740:
000741:
000742:
000743:    6711           10140        BRANCH             CCS      MPAC
000744:    6712           00002                           TC       Q
000745:    6713           16715                           TCF      +2                                    #  ON ZERO.
000746:    6714           16727                           TCF      NEG
000747:
000748:    6715           10141                           CCS      MPAC       +1
000749:    6716           00002                           TC       Q
000750:    6717           16721                           TCF      +2
000751:    6720           16727                           TCF      NEG
000752:
000753:    6721           10142                           CCS      MPAC       +2
000754:    6722           00002                           TC       Q
000755:    6723           16725                           TCF      +2
000756:    6724           16727                           TCF      NEG
000757:
000758:    6725           50002                           INDEX    Q                                     #  IF ALL THREE REGISTERS WERE +-0.
000759:    6726           00001                           TC       1
000760:
000761:    6727           50002        NEG                INDEX    Q                                     #  IF FIRST NON-ZERO REGISTER WAS NEGATIVE.
000762:    6730           00002                           TC       2
000763:
000764:
000765:
000766:    6731           50150        EXIT               INDEX    LOC                                   #  LEAVE INTERPRETIVE MODE.
000767:    6732           10001                           TCF      1
000768:


000770:                                                                                                  #  SECTION 3 - ADD/SUBTRACT PACKAGE.
000771:
000772:                                                                                                  #           THE FOLLOWING OPERATIONS ARE PROVIDED FOR ADDING TO AND SUBTRACTING FROM THE MULTI-PURPOSE ACCUMULATOR
000773:                                                                                                  #  MPAC:
000774:
000775:                                                                                                  #           1. DAD                 DOUBLE PRECISION ADD.
000776:                                                                                                  #           2. DSU                 DOUBLE PRECISION SUBTRACT.
000777:                                                                                                  #           3. BDSU                DOUBLE PRECISION SUBTRACT FROM.
000778:
000779:                                                                                                  #           4. TAD                 TRIPLE PRECISION ADD.
000780:
000781:                                                                                                  #           5. VAD                 VECTOR ADD.
000782:                                                                                                  #           6. VSU                 VECTOR SUBTRACT.
000783:                                                                                                  #           7. BVSU                VECTOR SUBTRACT FROM.
000784:
000785:                                                                                                  #  THE INTERPRETIVE OVERFLOW INDICATOR OVFIND IS SET NON-ZERO IF OVERFLOW OCCURS IN ANY OF THE ABOVE.
000786:
000787:
000788:
000789:    6733           00006        VAD                EXTEND
000790:    6734           50102                           INDEX    ADDRWD
000791:    6735           30003                           DCA      2
000792:    6736           20144                           DAS      MPAC       +3
000793:    6737           00006                           EXTEND                                         #  CHECK OVERFLOW.
000794:    6740           16742                           BZF      +2
000795:    6741           07007                           TC       OVERFLOW
000796:
000797:    6742           00006                           EXTEND
000798:    6743           50102                           INDEX    ADDRWD
000799:    6744           30005                           DCA      4
000800:    6745           20146                           DAS      MPAC       +5
000801:    6746           00006                           EXTEND
000802:    6747           16751                           BZF      +2
000803:    6750           07007                           TC       OVERFLOW
000804:
000805:    6751           00006        DAD                EXTEND
000806:    6752           50102                           INDEX    ADDRWD
000807:    6753           30001                           DCA      0
000808:    6754           20141        ENDVXV             DAS      MPAC                                  #  VXV FINISHES HERE.
000809:    6755           00006                           EXTEND
000810:    6756           16014                           BZF      DANZIG
000811:    6757           07007                           TC       OVERFLOW
000812:    6760           16014                           TCF      DANZIG
000813:


000815:    6761           00006        VSU                EXTEND
000816:    6762           50102                           INDEX    ADDRWD
000817:    6763           40003                           DCS      2
000818:    6764           20144                           DAS      MPAC       +3
000819:    6765           00006                           EXTEND
000820:    6766           16770                           BZF      +2
000821:    6767           07007                           TC       OVERFLOW
000822:
000823:    6770           00006                           EXTEND
000824:    6771           50102                           INDEX    ADDRWD
000825:    6772           40005                           DCS      4
000826:    6773           20146                           DAS      MPAC       +5
000827:    6774           00006                           EXTEND
000828:    6775           16777                           BZF      +2
000829:    6776           07007                           TC       OVERFLOW
000830:
000831:    6777           00006        DSU                EXTEND
000832:    7000           50102                           INDEX    ADDRWD
000833:    7001           40001                           DCS      0
000834:    7002           20141                           DAS      MPAC
000835:    7003           00006                           EXTEND
000836:    7004           16014                           BZF      DANZIG
000837:    7005           07007                           TC       OVERFLOW
000838:    7006           16014                           TCF      DANZIG
000839:
000840:    7007           37657        OVERFLOW           CAF      ONE                                   #  SUBROUTINE TO TURN OVFIND ON.
000841:    7010           17132                           TCF      SETOVF2
000842:


000844:    7011           00006        BVSU               EXTEND
000845:    7012           50102                           INDEX    ADDRWD
000846:    7013           30003                           DCA      2
000847:    7014           52144                           DXCH     MPAC       +3
000848:    7015           00006                           EXTEND
000849:    7016           40001                           DCOM
000850:    7017           20144                           DAS      MPAC       +3
000851:    7020           00006                           EXTEND
000852:    7021           17023                           BZF      +2
000853:    7022           07007                           TC       OVERFLOW
000854:
000855:    7023           00006                           EXTEND
000856:    7024           50102                           INDEX    ADDRWD
000857:    7025           30005                           DCA      4
000858:    7026           52146                           DXCH     MPAC       +5
000859:    7027           00006                           EXTEND
000860:    7030           40001                           DCOM
000861:    7031           20146                           DAS      MPAC       +5
000862:    7032           00006                           EXTEND
000863:    7033           17035                           BZF      +2
000864:    7034           07007                           TC       OVERFLOW
000865:
000866:    7035           00006        BDSU               EXTEND
000867:    7036           50102                           INDEX    ADDRWD
000868:    7037           30001                           DCA      0
000869:    7040           52141                           DXCH     MPAC
000870:    7041           00006                           EXTEND
000871:    7042           40001                           DCOM
000872:    7043           20141                           DAS      MPAC
000873:    7044           00006                           EXTEND
000874:    7045           16014                           BZF      DANZIG
000875:    7046           07007                           TC       OVERFLOW
000876:    7047           16014                           TCF      DANZIG
000877:


000879:                                                                                                  #           TRIPLE PRECISION ADD ROUTINE.
000880:
000881:    7050           00006        TAD                EXTEND
000882:    7051           50102                           INDEX    ADDRWD
000883:    7052           30002                           DCA      1                                     #  ADD MINOR PARTS FIRST.
000884:    7053           20142                           DAS      MPAC       +1
000885:    7054           50102                           INDEX    ADDRWD
000886:    7055           60000                           AD       0
000887:    7056           60140                           AD       MPAC
000888:    7057           54140                           TS       MPAC
000889:    7060           16014                           TCF      DANZIG
000890:
000891:    7061           54105        SETOVF             TS       OVFIND                                #  SET OVFIND IF SUCH OCCURS.
000892:    7062           16014                           TCF      DANZIG
000893:


000895:                                                                                                  #  ARITHMETIC SUBROUTINES REQUIRED IN FIXED-FIXED.
000896:
000897:                                                                                                  #           1.  DMPSUB     DOUBLE PRECISION MULTIPLY. MULTIPLY THE CONTENTS OF MPAC,+1 BY THE DP WORD WHOSE ADDRESS
000898:                                                                                                  #                          IS IN ADDRWD AND LEAVE A TRIPLE PRECISION RESULT IN MPAC.
000899:                                                                                                  #           2.  ROUNDSUB   ROUND THE TRIPLE PRECISON CONTENTS OF MPAC TO DOUBLE PRECISION.
000900:                                                                                                  #           3.  DOTSUB     TAKE THE DOT PRODUCT OF THE VECTOR IN MPAC AND THE VECTOR WHOSE ADDRESS IS IN ADDRWD
000901:                                                                                                  #                          AND LEAVE THE TRIPLE PRECISION RESULT IN MPAC.
000902:                                                                                                  #           4.  POLY       USING THE CONTENTS OF MPAC AS A DP ARGUMENT, EVALUATE THE POLYNOMIAL WHOSE DEGREE AND
000903:                                                                                                  #                          COEFFICIENTS IMMEDIATELY FOLLOW THE TC POLY INSTRUCTION (SEE ROUTINE FOR DETAILS).
000904:
000905:
000906:
000907:    7063           50002        DMP                INDEX    Q                                     #  BASIC SUBROUTINE FOR USE BY PINBALL, ETC
000908:    7064           30000                           CAF      0                                     #  ADRES OF ARGUMENT FOLLOWS  TC DMP  .
000909:    7065           24002                           INCR     Q
000910:    7066           54102                 -1        TS       ADDRWD                                #  (PROLOGUE FOR SETTING ADDRWD.)
000911:
000912:    7067           50102        DMPSUB             INDEX    ADDRWD                                #  GET MINOR PART OF OPERAND AT C(ADDRWD).
000913:    7070           30001                           CA       1
000914:    7071           54142                           TS       MPAC       +2                         #  THIS WORKS FOR SQUARING MPAC AS WELL.
000915:    7072           37665                           CAF      ZERO                                  #  SET MPAC +1 TO ZERO SO WE CAN ACCUMULATE
000916:    7073           56141                           XCH      MPAC       +1                         #  THE PARTIAL PRODUCTS WITH DAS
000917:    7074           54121                           TS       MPTEMP                                #  INSTRUCTIONS.
000918:    7075           00006                           EXTEND
000919:    7076           70142                           MP       MPAC       +2                         #  MINOR OF MPAC X MINOR OF C(ADDRWD).
000920:
000921:    7077           56142                           XCH      MPAC       +2                         #  DISCARD MINOR PART OF ABOVE RESULT AND
000922:    7100           00006                           EXTEND                                         #  FORM MAJOR OF MPAC X MINOR OF C(ADDRWD).
000923:    7101           70140                           MP       MPAC
000924:    7102           20142                           DAS      MPAC       +1                         #  GUARANTEED NO OVERFLOW.
000925:
000926:    7103           50102                           INDEX    ADDRWD                                #  GET MAJOR PART OF ARGUMENT AT C(ADDRWD).
000927:    7104           30000                           CA       0
000928:    7105           56121                           XCH      MPTEMP                                #  SAVE AND BRING OUT MINOR OF MPAC.
000929:    7106           00006                           EXTEND
000930:    7107           70121                           MP       MPTEMP                                #  MAJOR OF C(ADDRWD) X MINOR OF MPAC.
000931:    7110           20142                           DAS      MPAC       +1                         #  ACCUMULATE, SETTING A TO NET OVERFLOW.
000932:
000933:    7111           56140                           XCH      MPAC                                  #  SETTING MPAC TO 0 OR +-1.
000934:    7112           00006                           EXTEND
000935:    7113           70121                           MP       MPTEMP                                #  MAJOR OF MPAC X MAJOR OF C(ADDRWD).
000936:    7114           20141                           DAS      MPAC                                  #  GUARANTEED NO OVERFLOW.
000937:    7115           00002                           TC       Q                                     #  49 MCT = .573 MS. INCLUDING RETURN.
000938:


000940:                                                                                                  #           ROUND MPAC TO DOUBLE PRECISION, SETTING OVFIND ON THE RARE EVENT OF OVERFLOW.
000941:
000942:    7116           37665        ROUNDSUB           CAF      ZERO                                  #  SET MPAC +2 = 0 FOR SCALARS AND CHANGE
000943:    7117           54147                 +1        TS       MODE                                  #  MODE TO DP.
000944:
000945:    7120           56142        VROUND             XCH      MPAC       +2                         #  BUT WE NEEDNT TAKE THE TIME FOR VECTORS.
000946:    7121           60000                           DOUBLE
000947:    7122           54001                           TS       L
000948:    7123           00002                           TC       Q
000949:
000950:    7124           60141                           AD       MPAC       +1                         #  ADD ROUNDING BIT IF MPAC +2 WAS GREATER
000951:    7125           54141                           TS       MPAC       +1                         #  THAN .5 IN MAGNITUDE.
000952:    7126           00002                           TC       Q
000953:
000954:    7127           60140                           AD       MPAC                                  #  PROPAGATE INTERFLOW.
000955:    7130           54140                           TS       MPAC
000956:    7131           00002                           TC       Q
000957:
000958:    7132           54105        SETOVF2            TS       OVFIND                                #  (RARE).
000959:    7133           00002                           TC       Q
000960:


000962:                                                                                                  #           THE DOT PRODUCT SUBROUTINE USUALLY FORMS THE DOT PRODUCT OF THE VECTOR IN MPAC WITH A STANDARD SIX
000963:                                                                                                  #  REGISTER VECTOR WHOSE ADDRESS IS IN ADDRWD. IN THIS CASE C(DOTINC) ARE SET TO 2. VXM, HOWEVER, SETS C(DOTINC) TO
000964:                                                                                                  #  6 SO THAT DOTSUB DOTS MPAC WITH A COLUMN VECTOR OF THE MATRIX IN QUESTION IN THIS CASE.
000965:
000966:
000967:
000968:    7134           37656        PREDOT             CAF      TWO                                   #  PROLOGUE TO SET DOTINC TO 2.
000969:    7135           54122                           TS       DOTINC
000970:
000971:    7136           00006        DOTSUB             EXTEND
000972:    7137           22123                           QXCH     DOTRET                                #  SAVE RETURN.
000973:    7140           07067                           TC       DMPSUB                                #  DOT X COMPONENTS.
000974:    7141           52144                           DXCH     MPAC       +3                         #  POSITION Y COMPONENT OF MPAC FOR
000975:    7142           52141                           DXCH     MPAC                                  #  MULTIPLICATION WHILE SAVING RESULT IN
000976:    7143           52115                           DXCH     BUF                                   #  THREE WORD BUFFER, BUF.
000977:    7144           30142                           CA       MPAC       +2
000978:    7145           54116                           TS       BUF        +2
000979:
000980:    7146           30122                           CA       DOTINC                                #  ADVANCE ADDRWD TO Y COMPONENT OF
000981:    7147           26102                           ADS      ADDRWD                                #  OTHER ARGUMENT.
000982:    7150           07067                           TC       DMPSUB
000983:    7151           52142                           DXCH     MPAC       +1                         #  ACCUMULATE PARTIAL PRODUCTS.
000984:    7152           20116                           DAS      BUF        +1
000985:    7153           60140                           AD       MPAC
000986:    7154           60114                           AD       BUF
000987:    7155           54114                           TS       BUF
000988:    7156           17160                           TCF      +2
000989:    7157           54105                           TS       OVFIND                                #  IF OVERFLOW OCCURS.
000990:
000991:    7160           52146                           DXCH     MPAC       +5                         #  MULTIPLY Z COMPONENTS.
000992:    7161           52141                           DXCH     MPAC
000993:    7162           30122                           CA       DOTINC
000994:    7163           26102                           ADS      ADDRWD
000995:    7164           07067                           TC       DMPSUB
000996:    7165           52116        ENDDOT             DXCH     BUF        +1                         #  LEAVE FINAL ACCUMULATION IN MPAC.
000997:    7166           20142                           DAS      MPAC       +1
000998:    7167           60140                           AD       MPAC
000999:    7170           60114                           AD       BUF
001000:    7171           54140                           TS       MPAC
001001:    7172           00123                           TC       DOTRET
001002:
001003:    7173           54105                           TS       OVFIND                                #  ON OVERFLOW HERE.
001004:    7174           00123                           TC       DOTRET
001005:


001007:                                                                                                  #  DOUBLE PRECISION POLYNOMIAL EVALUATOR
001008:
001009:                                                                                                  #                                     N        N-1
001010:                                                                                                  #           THIS ROUTINE EVALUATES A X  + A   X    + ... + A  X + A  LEAVING THE DP RESULT IN MPAC ON EXIT.
001011:                                                                                                  #                                   N      N-1              1      0
001012:
001013:                                                                                                  #  THE ROUTINE HAS TWO ENTRIES
001014:
001015:                                                                                                  #           1. ENTRY THRU POWRSERS. THE COEFFICIENTS MAY BE EITHER IN FIXED OR ERASABLE, THE CALL IS BY
001016:                                                                                                  #              TC POWRSERS, AND THE RETURN IS TO LOC(TC POWRSERS)+1. THE ENTERING DATA MUST BE AS FOLLOWS
001017:
001018:                                                                                                  #                                          A        SP     LOC-3           ADDRESS FOR REFERENCING COEF TABLE
001019:                                                                                                  #                                          L        SP     N-1             N IS THE DEGREE OF THE POWER SERIES
001020:                                                                                                  #                                          MPAC     DP     X               ARGUMENT
001021:
001022:                                                                                                  #                                          LOC-2N   DP     A(0)
001023:                                                                                                  #                                                   ...
001024:                                                                                                  #                                          LOC      DP     A(N)
001025:
001026:                                                                                                  #           2. ENTRY THRU POLY. THE CALL TO POLY AND THE ENTERING DATA MUST BE AS FOLLOWS
001027:
001028:                                                                                                  #                                          MPAC     DP     X               ARGUMENT
001029:
001030:                                                                                                  #                                          LOC      TC     POLY
001031:                                                                                                  #                                          LOC+1    SP     N-1
001032:                                                                                                  #                                          LOC+2    DP     A(0)
001033:                                                                                                  #                                                   ...
001034:                                                                                                  #                                          LOC+2N+2 DP     A(N)            RETURN IS TO LOC+2N+4
001035:
001036:    7175           00006        POWRSERS           EXTEND
001037:    7176           22125                           QXCH     POLYRET                               #  RETURN ADDRESS
001038:    7177           54103                           TS       POLISH                                #  POWER SERIES ADDRESS
001039:    7200           22124                           LXCH     POLYCNT                               #  N-1 TO COUNTER
001040:    7201           17212                           TCF      POLYCOM                               #  SKIP SET UP BY POLY
001041:
001042:    7202           50002        POLY               INDEX    Q
001043:    7203           30000                           CAF      0
001044:    7204           54124                           TS       POLYCNT                               #  N-1 TO COUNTER
001045:    7205           60000                           DOUBLE
001046:    7206           60002                           AD       Q
001047:    7207           54103                           TS       POLISH                                #  L(A(N))-3 TO POLISH
001048:    7210           67664                           AD       FIVE
001049:    7211           54125                           TS       POLYRET                               #  STORE RETURN ADDRESS
001050:
001051:    7212           37677        POLYCOM            CAF      LVBUF                                 #  INCOMING X WILL BE MOVED TO VBUF, SO
001052:    7213           54102                           TS       ADDRWD                                #  SET ADDRWD SO DMPSUB WILL MPY BY VBUF.
001053:
001054:    7214           00006                           EXTEND
001055:    7215           50103                           INDEX    POLISH
001056:    7216           30004                           DCA      3
001057:


001059:    7217           52141                           DXCH     MPAC                                  #  LOAD A(N) INTO MPAC.
001060:    7220           52107                           DXCH     VBUF                                  #  SAVING X IN VBUF
001061:    7221           17225                           TCF      POLY2
001062:
001063:    7222           54124        POLYLOOP           TS       POLYCNT                               #  SAVE DECREMENTED LOOP COUNTER
001064:    7223           47656                           CS       TWO
001065:    7224           26103                           ADS      POLISH                                #  REGRESS COEFFICIENT POINTER
001066:
001067:    7225           07067        POLY2              TC       DMPSUB                                #  MULTIPLY BY X
001068:    7226           00006                           EXTEND
001069:    7227           50103                           INDEX    POLISH
001070:    7230           30002                           DCA      1                                     #  ADD IN NEXT COEFFICIENT
001071:    7231           20141                           DAS      MPAC                                  #  USERS RESPONSIBILITY TO ASSURE NO OVFLOW
001072:
001073:    7232           10124                           CCS      POLYCNT
001074:    7233           17222                           TCF      POLYLOOP
001075:    7234           00125                           TC       POLYRET                               #  RETURN CALLER
001076:


001078:                                                                                                  #           MISCELLANEOUS MULTI-PRECISION ROUTINES REQUIRED IN FIXED-FIXED BUT NOT USED BY THE INTERPRETER.
001079:
001080:    7235           00006        TPAGREE            EXTEND                                         #  FORCE SIGN AGREEMENT AMONG THE TRIPLE-
001081:    7236           22114                           QXCH     BUF                                   #  PRECISION CONTENTS OF MPAC, RETURNING
001082:    7237           06711                           TC       BRANCH                                #  WITH THE SIGNUM OF THE INPUT IN A.
001083:    7240           17244                           TCF      ARG+
001084:    7241           17264                           TCF      ARGZERO
001085:
001086:    7242           47637                           CS       POSMAX                                #  IF NEGATIVE.
001087:    7243           17245                           TCF      +2
001088:
001089:    7244           37637        ARG+               CAF      POSMAX
001090:    7245           54115                 +2        TS       BUF        +1
001091:    7246           00006                           EXTEND
001092:    7247           24000                           AUG      A                                     #  FORMS +-1.0.
001093:    7250           60142                           AD       MPAC       +2
001094:    7251           54142                           TS       MPAC       +2
001095:    7252           37665                           CAF      ZERO
001096:    7253           60115                           AD       BUF        +1
001097:    7254           60141                           AD       MPAC       +1
001098:    7255           54141                           TS       MPAC       +1
001099:    7256           37665                           CAF      ZERO
001100:    7257           60115                           AD       BUF        +1
001101:    7260           60140                           AD       MPAC
001102:    7261           54140        ARGZERO2           TS       MPAC                                  #  ALWAYS SKIPPING UNLESS ARGZERO.
001103:    7262           54141                           TS       MPAC       +1
001104:    7263           00114                           TC       BUF                                   #  RETURN.
001105:
001106:    7264           54142        ARGZERO            TS       MPAC       +2                         #  SET ALL THREE MPAC REGISTERS TO ZERO.
001107:    7265           17261                           TCF      ARGZERO2
001108:
001109:                                                                                                  #           SHORTMP MULTIPLIES THE TP CONTENTS OF MPAC BY THE SINGLE PRECISION NUMBER ARRIVING IN A.
001110:
001111:    7266           54121        SHORTMP            TS       MPTEMP
001112:    7267           00006                           EXTEND
001113:    7270           70142                           MP       MPAC       +2
001114:    7271           54142                           TS       MPAC       +2
001115:    7272           37665                           CAF      ZERO                                  #  SO SUBSEQUENT DAS WILL WORK.
001116:    7273           56141                           XCH      MPAC       +1
001117:    7274           00006                           EXTEND
001118:    7275           70121                           MP       MPTEMP
001119:    7276           20142                           DAS      MPAC       +1
001120:    7277           56140                           XCH      MPAC                                  #  SETTING MPAC TO 0.
001121:    7300           00006                           EXTEND
001122:    7301           70121                           MP       MPTEMP
001123:    7302           20141                           DAS      MPAC
001124:    7303           00002                           TC       Q
001125:


001127:                                                                                                  #  MISCELLANEOUS VECTOR OPERATIONS. INCLUDED HERE ARE THE FOLLOWING:
001128:
001129:                                                                                                  #           1.  DOT                DP VECTOR DOT PRODUCT.
001130:                                                                                                  #           2.  VXV                DP VECTOR CROSS PRODUCT.
001131:                                                                                                  #           3.  VXSC               DP VECTOR TIMES SCALAR.
001132:                                                                                                  #           4.  V/SC               DP VECTOR DIVIDED BY SCALAR.
001133:                                                                                                  #           5.  VPROJ              DP VECTOR PROJECTION. ( (MPAC.X)MPAC ).
001134:                                                                                                  #           6.  VXM                DP VECTOR POST-MULTIPLIED BY MATRIX.
001135:                                                                                                  #           7.  MXV                DP VECTOR PRE-MULTIPLIED BY MATRIX.
001136:
001137:    7304           07134        DOT                TC       PREDOT                                #  DO THE DOT PRODUCT AND EXIT, CHANGING
001138:    7305           37665                           CAF      ZERO                                  #  THE MODE TO DP SCALAR.
001139:    7306           16013                           TCF      NEWMODE
001140:
001141:
001142:
001143:    7307           37656        MXV                CAF      TWO                                   #  SET UP MATINC AND DOTINC FOR ROW
001144:    7310           54124                           TS       MATINC                                #  VECTORS.
001145:    7311           17315                           TCF      VXM/MXV                               #  GO TO COMMON PORTION.
001146:
001147:    7312           47661        VXM                CS       TEN                                   #  SET MATINC AND DOTINC TO REFER TO MATRIX
001148:    7313           54124                           TS       MATINC                                #  AS THREE COLUMN VECTORS.
001149:    7314           36162                           CAF      SIX
001150:


001152:                                                                                                  #           COMMON PORTION OF MXV AND VXM.
001153:
001154:    7315           54122        VXM/MXV            TS       DOTINC
001155:    7316           07506                           TC       MPACVBUF                              #  SAVE VECTOR IN MPAC FOR FURTHER USE.
001156:
001157:    7317           07136                           TC       DOTSUB                                #  GO DOT TO GET X COMPONENT OF ANSWER.
001158:    7320           00006                           EXTEND
001159:    7321           30107                           DCA      VBUF                                  #  MOVE MPAC VECTOR BACK INTO MPAC, SAVING
001160:    7322           52141                           DXCH     MPAC                                  #  NEW X COMPONENT IN BUF2.
001161:    7323           52120                           DXCH     BUF2
001162:    7324           00006                           EXTEND
001163:    7325           30111                           DCA      VBUF       +2
001164:    7326           52144                           DXCH     MPAC       +3
001165:    7327           00006                           EXTEND
001166:    7330           30113                           DCA      VBUF       +4
001167:    7331           52146                           DXCH     MPAC       +5
001168:    7332           30124                           CA       MATINC                                #  INITIALIZE ADDRWD FOR NEXT DOT PRODUCT.
001169:    7333           26102                           ADS      ADDRWD                                #  FORMS BASE ADDRESS OF NEXT COLUMN(ROW).
001170:
001171:    7334           07136                           TC       DOTSUB
001172:    7335           52107                           DXCH     VBUF                                  #  MOVE GIVEN VECTOR BACK TO MPAC, SAVING Y
001173:    7336           52141                           DXCH     MPAC                                  #  COMPONENT OF ANSWER IN VBUF +2.
001174:    7337           52111                           DXCH     VBUF       +2
001175:    7340           52144                           DXCH     MPAC       +3
001176:    7341           52113                           DXCH     VBUF       +4
001177:    7342           52146                           DXCH     MPAC       +5
001178:    7343           30124                           CA       MATINC                                #  FORM ADDRESS OF LAST COLUMN OR ROW.
001179:    7344           26102                           ADS      ADDRWD
001180:
001181:    7345           07136                           TC       DOTSUB
001182:    7346           52120                           DXCH     BUF2                                  #  ANSWER NOW COMPLETE. PUT COMPONENTS INTO
001183:    7347           52141                           DXCH     MPAC                                  #  PROPER MPAC REGISTERS.
001184:    7350           52146                           DXCH     MPAC       +5
001185:    7351           52111                           DXCH     VBUF       +2
001186:    7352           52144                           DXCH     MPAC       +3
001187:    7353           16014                           TCF      DANZIG                                #  EXIT.
001188:


001190:                                                                                                  #           VXSC - VECTOR TIMES SCALAR.
001191:
001192:    7354           10147        VXSC               CCS      MODE                                  #  TEST PRESENT MODE.
001193:    7355           17403                           TCF      DVXSC                                 #  SEPARATE ROUTINE WHEN SCALAR IS IN MPAC.
001194:    7356           17403                           TCF      DVXSC
001195:
001196:    7357           07067        VVXSC              TC       DMPSUB                                #  COMPUTE X COMPONENT
001197:    7360           07120                           TC       VROUND                                #  AND ROUND IT.
001198:    7361           52144                           DXCH     MPAC       +3                         #  PUT Y COMPONENT INTO MPAC SAVING MPAC IN
001199:    7362           52141                           DXCH     MPAC                                  #  MPAC +3.
001200:    7363           52144                           DXCH     MPAC       +3
001201:
001202:    7364           07067                           TC       DMPSUB                                #  DO SAME FOR Y AND Z COMPONENTS.
001203:    7365           07120                           TC       VROUND
001204:    7366           52146                           DXCH     MPAC       +5
001205:    7367           52141                           DXCH     MPAC
001206:    7370           52146                           DXCH     MPAC       +5
001207:
001208:    7371           07067                           TC       DMPSUB
001209:    7372           07120                           TC       VROUND
001210:    7373           52141        VROTATEX           DXCH     MPAC                                  #  EXIT USED TO RESTORE MPAC AFTER THIS
001211:    7374           52146                           DXCH     MPAC       +5                         #  TYPE OF ROTATION. CALLED BY VECTOR SHIFT
001212:    7375           52144                           DXCH     MPAC       +3                         #  RIGHT, V/SC, ETC.
001213:    7376           52141                           DXCH     MPAC
001214:    7377           16014                           TCF      DANZIG
001215:


001217:                                                                                                  #           DP VECTOR PROJECTION ROUTINE.
001218:
001219:
001220:
001221:    7400           07134        VPROJ              TC       PREDOT                                #  (MPAC.X)MPAC IS COMPUTED AND LEFT IN
001222:    7401           47655                           CS       FOUR                                  #  MPAC. DO DOT AND FALL INTO DVXSC.
001223:    7402           26102                           ADS      ADDRWD
001224:
001225:                                                                                                  #           VXSC WHEN SCALAR ARRIVES IN MPAC AND VECTOR IS AT X.
001226:
001227:    7403           00006        DVXSC              EXTEND                                         #  SAVE SCALAR IN MPAC +3 AND GET X
001228:    7404           30141                           DCA      MPAC                                  #  COMPONENT OF ANSWER.
001229:    7405           52144                           DXCH     MPAC       +3
001230:    7406           07067                           TC       DMPSUB
001231:    7407           07120                           TC       VROUND
001232:
001233:    7410           37656                           CAF      TWO                                   #  ADVANCE ADDRWD TO Y COMPONENT OF X.
001234:    7411           26102                           ADS      ADDRWD
001235:    7412           00006                           EXTEND
001236:    7413           30144                           DCA      MPAC       +3                         #  PUT SCALAR BACK INTO MPAC AND SAVE
001237:    7414           52141                           DXCH     MPAC                                  #  X RESULT IN MPAC +5.
001238:    7415           52146                           DXCH     MPAC       +5
001239:    7416           07067                           TC       DMPSUB
001240:    7417           07120                           TC       VROUND
001241:
001242:    7420           37656                           CAF      TWO
001243:    7421           26102                           ADS      ADDRWD                                #  TO Z COMPONENT.
001244:    7422           52144                           DXCH     MPAC       +3                         #  BRING SCALAR BACK, PUTTING Y RESULT IN
001245:    7423           52141                           DXCH     MPAC                                  #  THE PROPER PLACE.
001246:    7424           52144                           DXCH     MPAC       +3
001247:    7425           07067                           TC       DMPSUB
001248:    7426           07120                           TC       VROUND
001249:
001250:    7427           52141                           DXCH     MPAC                                  #  PUT Z COMPONENT IN PROPER PLACE, ALSO
001251:    7430           52146                           DXCH     MPAC       +5                         #  POSITIONING X.
001252:    7431           52141                           DXCH     MPAC
001253:
001254:    7432           47657                           CS       ONE                                   #  MODE HAS CHANGED TO VECTOR.
001255:    7433           16013                           TCF      NEWMODE
001256:


001258:                                                                                                  #           THE VECTOR CROSS PRODUCT ROUTINE CALCULATES (X M -X M ,X M -X M ,X M -X M ) WHERE M IS THE VECTOR IN
001259:                                                                                                  #                                                         3 2  2 3  1 3  3 1  2 1  1 2
001260:                                                                                                  #  MPAC AND X THE VECTOR AT THE GIVEN ADDRESS.
001261:
001262:
001263:
001264:    7434           00006        VXV                EXTEND
001265:    7435           30146                           DCA      MPAC       +5                         #  FORM UP M3X1, LEAVING M1 IN VBUF.
001266:    7436           52141                           DXCH     MPAC
001267:    7437           52107                           DXCH     VBUF
001268:    7440           07067                           TC       DMPSUB                                #  BY X1.
001269:
001270:    7441           00006                           EXTEND
001271:    7442           40144                           DCS      MPAC       +3                         #  CALCULATE -X1M2, SAVING X1M3 IN VBUF +2.
001272:    7443           52141                           DXCH     MPAC
001273:    7444           52111                           DXCH     VBUF       +2
001274:    7445           07067                           TC       DMPSUB
001275:
001276:    7446           37656                           CAF      TWO                                   #  ADVANCE ADDRWD TO X2.
001277:    7447           26102                           ADS      ADDRWD
001278:    7450           00006                           EXTEND
001279:    7451           40146                           DCS      MPAC       +5                         #  PREPARE TO GET -X2M3, SAVING -X1M2 IN
001280:    7452           52141                           DXCH     MPAC                                  #  MPAC +5.
001281:    7453           52146                           DXCH     MPAC       +5
001282:    7454           07067                           TC       DMPSUB
001283:
001284:    7455           00006                           EXTEND
001285:    7456           30107                           DCA      VBUF                                  #  GET X2M1, SAVING -X2M3 IN VBUF +4.
001286:    7457           52141                           DXCH     MPAC
001287:    7460           52113                           DXCH     VBUF       +4
001288:    7461           07067                           TC       DMPSUB
001289:
001290:    7462           37656                           CAF      TWO                                   #  ADVANCE ADDRWD TO X3.
001291:    7463           26102                           ADS      ADDRWD
001292:    7464           00006                           EXTEND
001293:    7465           40107                           DCS      VBUF                                  #  GET -X3M1, ADDING X2M1 TO MPAC +5 TO
001294:    7466           52141                           DXCH     MPAC                                  #  COMPLETE THE Z COMPONENT OF THE ANSWER.
001295:    7467           20146                           DAS      MPAC       +5
001296:
001297:    7470           00006                           EXTEND
001298:    7471           17473                           BZF      +2
001299:    7472           07007                           TC       OVERFLOW
001300:


001302:    7473           07067                           TC       DMPSUB
001303:    7474           52111                           DXCH     VBUF       +2                         #  MOVE X1M3 TO MPAC +3 SETTING UP FOR X3M2
001304:    7475           52144                           DXCH     MPAC       +3                         #  AND ADD -X3M1 TO MPAC +3 TO COMPLETE THE
001305:    7476           52141                           DXCH     MPAC                                  #  Y COMPONENT OF THE RESULT.
001306:    7477           20144                           DAS      MPAC       +3
001307:
001308:    7500           00006                           EXTEND
001309:    7501           17503                           BZF      +2
001310:    7502           07007                           TC       OVERFLOW
001311:
001312:    7503           07067                           TC       DMPSUB
001313:    7504           52113                           DXCH     VBUF       +4                         #  GO ADD -X2M3 TO X3M2 TO COMPLETE THE X
001314:    7505           16754                           TCF      ENDVXV                                #  COMPONENT (TAIL END OF DAD).
001315:
001316:                                                                                                  #           THE MPACVBUF SUBROUTINE SAVES THE VECTOR IN MPAC IN VBUF WITHOUT CLOBBERING MPAC.
001317:
001318:    7506           00006        MPACVBUF           EXTEND                                         #  CALLED BY MXV, VXM, AND UNIT.
001319:    7507           30141                           DCA      MPAC
001320:    7510           52107                           DXCH     VBUF
001321:    7511           00006                           EXTEND
001322:    7512           30144                           DCA      MPAC       +3
001323:    7513           52111                           DXCH     VBUF       +2
001324:    7514           00006                           EXTEND
001325:    7515           30146                           DCA      MPAC       +5
001326:    7516           52113                           DXCH     VBUF       +4
001327:    7517           00002                           TC       Q                                     #  RETURN TO CALLER.
001328:


001330:                                                                                                  #           INTERPRETIVE INSTRUCTIONS WHOSE EXECUTION CONSISTS OF PRINCIPALLY CALLING SUBROUTINES.
001331:
001332:    7520           07067        DMP1               TC       DMPSUB                                #  DMP INSTRUCTION.
001333:    7521           16014                           TCF      DANZIG
001334:
001335:    7522           07067        DMPR               TC       DMPSUB
001336:    7523           07117                           TC       ROUNDSUB   +1                         #  (C(A) = +0).
001337:    7524           16014                           TCF      DANZIG
001338:
001339:    7525           00006        DDV                EXTEND
001340:    7526           50102                           INDEX    ADDRWD                                #  MOVE DIVIDEND INTO BUF.
001341:    7527           30001                           DCA      0
001342:    7530           17535                           TCF      BDDV       +4
001343:
001344:    7531           00006        BDDV               EXTEND                                         #  MOVE DIVISOR INTO MPAC SAVING MPAC, THE
001345:    7532           50102                           INDEX    ADDRWD                                #  DIVIDEND, IN BUF.
001346:    7533           30001                           DCA      0
001347:    7534           52141                           DXCH     MPAC
001348:    7535           52115                 +4        DXCH     BUF
001349:    7536           37665                           CAF      ZERO                                  #  DIVIDE ROUTINES IN BANK 0.
001350:    7537           54004                           TS       FBANK
001351:    7540           12332                           TCF      DDV/BDDV
001352:
001353:    7541           30102        SETPD              CA       ADDRWD                                #  ANYWHERE IN ERASABLE IN GENERAL, BUT
001354:    7542           54152                           TS       PUSHLOC                               #  ALMOST ALWAYS IN THE WORK AREA.
001355:    7543           16016                           TCF      NOIBNKSW                              #  NO FBANK SWITCH REQUIRED.
001356:
001357:    7544           37665        TSLC               CAF      ZERO                                  #  SHIFTING ROUTINES LOCATED IN BANK 00.
001358:    7545           54004                           TS       FBANK
001359:    7546           12153                           TCF      TSLC2
001360:
001361:    7547           36027        GSHIFT             CAF      LOW7                                  #  USED AS MASK AT GENSHIFT. THIS PROCESSES
001362:    7550           54004                           TS       FBANK                                 #  ANY SHIFT INSTRUCTION (EXCEPT TSLC) WITH
001363:    7551           12174                           TCF      GENSHIFT                              #  AN ADDRESS (ROUTINES IN BANK 0).
001364:


001366:                                                                                                  #           THE FOLLOWING IS THE PROLOGUE TO V/SC. IF THE PRESENT MODE IS VECTOR, IT SAVES THE SCALAR AT X IN BUF
001367:                                                                                                  #  AND CALLS THE V/SC ROUTINE IN BANK 0. IF THE PRESENT MODE IS SCALAR, IT MOVES THE VECTOR AT X INTO MPAC, SAVING
001368:                                                                                                  #  THE SCALAR IN MPAC IN BUF BEFORE CALLING THE V/SC ROUTINE IN BANK 0.
001369:
001370:    7552           10147        V/SC               CCS      MODE
001371:    7553           17564                           TCF      DV/SC                                 #  MOVE VECTOR INTO MPAC.
001372:    7554           17564                           TCF      DV/SC
001373:
001374:    7555           00006        VV/SC              EXTEND
001375:    7556           50102                           INDEX    ADDRWD
001376:    7557           30001                           DCA      0
001377:    7560           52115        V/SC1              DXCH     BUF                                   #  IN BOTH CASES, VECTOR IS NOW IN MPAC AND
001378:    7561           37665                           CAF      ZERO                                  #  SCALAR IN BUF.
001379:    7562           54004                           TS       FBANK
001380:    7563           12576                           TCF      V/SC2
001381:
001382:    7564           00006        DV/SC              EXTEND
001383:    7565           50102                           INDEX    ADDRWD
001384:    7566           30003                           DCA      2
001385:    7567           52144                           DXCH     MPAC       +3
001386:    7570           00006                           EXTEND
001387:    7571           50102                           INDEX    ADDRWD
001388:    7572           30005                           DCA      4
001389:    7573           52146                           DXCH     MPAC       +5
001390:
001391:    7574           47657                           CS       ONE                                   #  CHANGE MODE TO VECTOR.
001392:    7575           54147                           TS       MODE
001393:
001394:    7576           00006                           EXTEND
001395:    7577           50102                           INDEX    ADDRWD
001396:    7600           30001                           DCA      0
001397:    7601           52141                           DXCH     MPAC
001398:    7602           17560                           TCF      V/SC1                                 #  FINISH PROLOGUE AT COMMON SECTION.
001399:


001401:                                                                                                  #           SIGN AND COMPLEMENT INSTRUCTIONS.
001402:
001403:    7603           50102        SIGN               INDEX    ADDRWD                                #  CALL COMP INSTRUCTION IF WORD AT X IS
001404:    7604           10000                           CCS      0                                     #  NEGATIVE NON-ZERO.
001405:    7605           16016                           TCF      NOIBNKSW                              #  NO FBANK SWITCH REQUIRED.
001406:    7606           17610                           TCF      +2
001407:    7607           17616                           TCF      COMP                                  #  DO THE COMPLEMENT.
001408:
001409:    7610           50102                           INDEX    ADDRWD
001410:    7611           10001                           CCS      1
001411:    7612           16016                           TCF      NOIBNKSW                              #  NO FBANK SWITCH REQUIRED.
001412:    7613           16016                           TCF      NOIBNKSW                              #  NO FBANK SWITCH REQUIRED.
001413:    7614           17616                           TCF      COMP
001414:    7615           16016                           TCF      NOIBNKSW                              #  NO FBANK SWITCH REQUIRED.
001415:
001416:
001417:
001418:    7616           00006        COMP               EXTEND                                         #  COMPLEMENT DP MPAC IN EVERY CASE.
001419:    7617           40141                           DCS      MPAC
001420:    7620           52141                           DXCH     MPAC
001421:
001422:    7621           10147                           CCS      MODE                                  #  EITHER COMPLEMENT MPAC +3 OR THE REST OF
001423:    7622           17633                           TCF      DCOMP                                 #  THE VECTOR ACCUMULATOR.
001424:    7623           17633                           TCF      DCOMP
001425:
001426:    7624           00006                           EXTEND                                         #  VECTOR COMPLEMENT.
001427:    7625           40144                           DCS      MPAC       +3
001428:    7626           52144                           DXCH     MPAC       +3
001429:    7627           00006                           EXTEND
001430:    7630           40146                           DCS      MPAC       +5
001431:    7631           52146                           DXCH     MPAC       +5
001432:    7632           16014                           TCF      DANZIG
001433:
001434:    7633           40142        DCOMP              CS       MPAC       +2
001435:    7634           54142                           TS       MPAC       +2
001436:    7635           16014                           TCF      DANZIG
001437:


001439:                                                                                                  #           CONSTANTS REQUIRED IN FIXED-FIXED.
001440:
001441:    7636           37777        DPOSMAX            OCT      37777
001442:    7637           37777        POSMAX             OCT      37777
001443:    7640     7640               LIMITS             EQUALS   POSMAX     +1
001444:    7640           57777        NEG1/2             OCT      -20000                                #  MUST BE TWO LOCATIONS AHEAD OF POS1/2.
001445:
001446:    7641           40000        BIT15              OCT      40000                                 #  BIT TABLE FOLLOWS.
001447:    7642           20000        BIT14              OCT      20000
001448:    7643           10000        BIT13              OCT      10000
001449:    7644           04000        BIT12              OCT      04000
001450:    7645           02000        BIT11              OCT      02000
001451:    7646           01000        BIT10              OCT      01000
001452:    7647           00400        BIT9               OCT      00400
001453:    7650           00200        BIT8               OCT      00200
001454:    7651           00100        BIT7               OCT      00100
001455:    7652           00040        BIT6               OCT      00040
001456:    7653           00020        BIT5               OCT      00020
001457:    7654           00010        BIT4               OCT      00010
001458:    7655           00004        BIT3               OCT      00004
001459:    7656           00002        BIT2               OCT      00002
001460:    7657           00001        BIT1               OCT      00001
001461:
001462:    7660     7641               NEGMAX             EQUALS   BIT15
001463:    7660     7642               HALF               EQUALS   BIT14
001464:    7660     7642               POS1/2             EQUALS   HALF
001465:    7660     7643               QUARTER            EQUALS   BIT13
001466:    7660     7645               2K                 EQUALS   BIT11
001467:    7660           00013        ELEVEN             DEC      11         B-14
001468:    7661     7660               NOUTCON            =        ELEVEN
001469:    7661           00012        TEN                DEC      10         B-14
001470:    7662           00011        NINE               DEC      9          B-14
001471:    7663     7654               EIGHT              EQUALS   BIT4
001472:    7663           00007        SEVEN              OCT      7
001473:    7664     6162               SIX                EQUALS   REVCNT
001474:    7664           00005        FIVE               OCT      5
001475:    7665     7655               FOUR               EQUALS   BIT3
001476:    7665     6165               THREE              EQUALS   NO.WDS     +1
001477:    7665     7656               TWO                EQUALS   BIT2
001478:    7665     7657               ONE                EQUALS   BIT1
001479:    7665           00000        ZERO               OCT      0
001480:    7666           77777        NEG0               OCT      77777
001481:    7667           77776        NEGONE             DEC      -1         B-14
001482:
001483:    7670     7667               NEG1               =        NEGONE
001484:    7670     7667               MINUS1             EQUALS   NEG1
001485:    7670           77775        NEG2               OCT      77775
001486:    7671           77774        NEG3               DEC      -3         B-14
001487:    7672           00777        LOW9               OCT      777
001488:    7673           00017        LOW4               OCT      17
001489:


001491:    7674     7663               LOW3               EQUALS   SEVEN
001492:    7674     6165               LOW2               EQUALS   THREE
001493:
001494:    7674           00030        CALLCODE           OCT      00030
001495:    7675           40014        DLOADCOD           OCT      40014
001496:    7676     7641               VLOADCOD           EQUALS   BIT15
001497:    7676           40015        DLOAD*             OCT      40015
001498:    7677     6042               VLOAD*             EQUALS   OCT40001
001499:    7677           00106        LVBUF              ADRES    VBUF
001500:    7700           30000        BIT13-14           OCTAL    30000
001501:    7701                        ENDINTF            EQUALS
001502:


001504:                                                                                                  #  SHIFTING AND ROUNDING PACKAGE.
001505:
001506:                                                                                                  #           THE FOLLOWING SHORT SHIFT CODES REQUIRE NO ADDRESS WORD:
001507:
001508:                                                                                                  #           1.  SR1 TO SR4         SCALAR SHIFT RIGHT.
001509:                                                                                                  #           2.  SR1R TO SR4R       SCALAR SHIFT RIGHT AND ROUND.
001510:                                                                                                  #           3.  SL1 TO SL4         SCALAR SHIFT LEFT.
001511:                                                                                                  #           4.  SL1R TO SL4R       SCALAR SHIFT LEFT AND ROUND.
001512:
001513:                                                                                                  #           5.  VSR1 TO VSR8       VECTOR SHIFT RIGHT (ALWAYS ROUNDS).
001514:                                                                                                  #           6.  VSL1 TO VSL8       VECTOR SHIFT LEFT (NEVER ROUNDS).
001515:
001516:                                                                                                  #           THE FOLLOWING CODES REQUIRE AN ADDRESS WHICH MAY BE INDEXED:*
001517:
001518:                                                                                                  #           1.  SR                 SCALAR SHIFT RIGHT.
001519:                                                                                                  #           2.  SRR                SCALAR SHIFT RIGHT AND ROUND.
001520:                                                                                                  #           3.  SL                 SCALAR SHIFT LEFT.
001521:                                                                                                  #           4.  SLR                SCALAR SHIFT LEFT AND ROUND.
001522:
001523:                                                                                                  #           5.  VSR                VECTOR SHIFT RIGHT.
001524:                                                                                                  #           6.  VSL                VECTOR SHIFT LEFT.
001525:
001526:                                                                                                  #  *  IF THE ADDRESS IS INDEXED, AND THE INDEX MODIFICATION RESULTS IN A NEGATIVE SHIFT COUNT, A SHIFT OF THE
001527:                                                                                                  #  ABSOLUTE VALUE OF THE COUNT IS DONE IN THE OPPOSITE DIRECTION.
001528:
001529:
001530: 00,2000                                           SETLOC   10000                                 #  BANK 0 PORTION FOLLOWS.
001531:
001532: 00,2000           36162        SHORTT             CAF      SIX                                   #  SCALAR SHORT SHIFTS COME HERE. THE SHIFT
001533: 00,2001           70020                           MASK     CYR                                   #  COUNT-1 IS NOW IN BITS 2-3 OF CYR. THE
001534: 00,2002           54021                           TS       SR                                    #  ROUNDING BIT IS IN BIT1 AT THIS POINT.
001535:
001536: 00,2003           10020                           CCS      CYR                                   #  SEE IF RIGHT OR LEFT SHIFT DESIRED.
001537: 00,2004           12062                           TCF      TSSL                                  #  SHIFT LEFT.
001538:
001539: 00,2005           00024        SRDDV              DEC      20         B-14                       #  MPTEMP SETTING FOR SR BEFORE DDV.
001540:
001541: 00,2006           50021        TSSR               INDEX    SR                                    #  GET SHIFTING BIT.
001542: 00,2007           37642                           CAF      BIT14
001543: 00,2010           54121                           TS       MPTEMP
001544:
001545: 00,2011           10020                           CCS      CYR                                   #  SEE IF A ROUND IS DESIRED.
001546: 00,2012           02031        RIGHTR             TC       MPACSRND                              #  YES - SHIFT RIGHT AND ROUND.
001547: 00,2013           16013                           TCF      NEWMODE                               #  SET MODE TO DP (C(A) = 0).
001548: 00,2014           30121        MPACSHR            CA       MPTEMP                                #  DO A TRIPLE PRECISION SHIFT RIGHT.
001549: 00,2015           00006                           EXTEND
001550: 00,2016           70142                           MP       MPAC       +2
001551: 00,2017           54142                 +3        TS       MPAC       +2                         #  (EXIT FROM SQRT AND ABVAL).
001552: 00,2020           30121                           CA       MPTEMP
001553:


001555: 00,2021           00006                           EXTEND
001556: 00,2022           70140                           MP       MPAC                                  #  SHIFT MAJOR PART INTO A,L AND PLACE IN
001557: 00,2023           52141                           DXCH     MPAC                                  #  MPAC,+1.
001558: 00,2024           30121                           CA       MPTEMP
001559: 00,2025           00006                           EXTEND
001560: 00,2026           70001                           MP       L                                     #  ORIGINAL C(MPAC +1).
001561: 00,2027           20142                           DAS      MPAC       +1                         #  GUARANTEED NO OVERFLOW.
001562: 00,2030           16014                           TCF      DANZIG
001563:
001564:                                                                                                  #           MPAC SHIFT RIGHT AND ROUND SUBROUTINES.
001565:
001566: 00,2031           30142        MPACSRND           CA       MPAC       +2                         #  WE HAVE TO DO ALL THREE MULTIPLIES SINCE
001567: 00,2032           00006                           EXTEND                                         #  MPAC +1 AND MPAC +2 MIGHT HAVE SIGN
001568: 00,2033           70121                           MP       MPTEMP                                #  DISAGREEMENT WITH A SHIFT RIGHT OF 1.
001569: 00,2034           56141                           XCH      MPAC       +1
001570: 00,2035           00006                           EXTEND
001571: 00,2036           70121                           MP       MPTEMP
001572: 00,2037           56141                           XCH      MPAC       +1                         #  TRIAL MINOR PART.
001573: 00,2040           60001                           AD       L
001574:
001575: 00,2041           60000        VSHR2              DOUBLE                                         #  (FINISH VECTOR COMPONENT SHIFT RIGHT
001576: 00,2042           54142                           TS       MPAC       +2                         #  AND ROUND.
001577: 00,2043           12045                           TCF      +2
001578: 00,2044           26141                           ADS      MPAC       +1                         #  GUARANTEED NO OVERFLOW.
001579:
001580: 00,2045           37665                           CAF      ZERO
001581: 00,2046           54142                           TS       MPAC       +2
001582: 00,2047           56140                           XCH      MPAC                                  #  SETTING TO ZERO SO FOLLOWING DAS WORKS.
001583: 00,2050           00006                           EXTEND
001584: 00,2051           70121                           MP       MPTEMP
001585: 00,2052           20141                           DAS      MPAC                                  #  AGAIN NO OVERFLOW.
001586: 00,2053           00002                           TC       Q
001587:
001588: 00,2054           30121        VSHRRND            CA       MPTEMP                                #  ENTRY TO SHIFT RIGHT AND ROUND MPAC WHEN
001589: 00,2055           00006                           EXTEND                                         #  MPAC CONTAINS A VECTOR COMPONENT.
001590: 00,2056           70141                           MP       MPAC       +1
001591: 00,2057           54141                           TS       MPAC       +1
001592: 00,2060           56001                           XCH      L
001593: 00,2061           12041                           TCF      VSHR2                                 #  GO ADD ONE IF NECESSARY AND FINISH.
001594:


001596:                                                                                                  #           ROUTINE FOR SHORT SCALAR SHIFT LEFT (AND MAYBE ROUND).
001597:
001598: 00,2062           30021        TSSL               CA       SR                                    #  GET SHIFT COUNT FOR SR.
001599: 00,2063           54121                 +1        TS       MPTEMP
001600:
001601: 00,2064           00006                 +2        EXTEND                                         #  ENTRY HERE FROM SL FOR SCALARS.
001602: 00,2065           30142                           DCA      MPAC       +1                         #  SHIFTING LEFT ONE PLACE AT A TIME IS
001603: 00,2066           20142                           DAS      MPAC       +1                         #  FASTER THAN DOING THE WHOLE SHIFT WITH
001604: 00,2067           60140                           AD       MPAC                                  #  MULTIPLIES ASSUMING THAT FREQUENCY OF
001605: 00,2070           60140                           AD       MPAC                                  #  SHIFT COUNTS GOES DOWN RAPIDLY AS A
001606: 00,2071           54140                           TS       MPAC                                  #  FUNCTION OF THEIR MAGNITUDE.
001607: 00,2072           12074                           TCF      +2
001608: 00,2073           54105                           TS       OVFIND                                #  OVERFLOW. (LEAVES OVERFLOW-CORRECTED
001609:                                                                                                  #  RESULT ANYWAY).
001610: 00,2074           10121                           CCS      MPTEMP                                #  LOOP ON DECREMENTED SHIFT COUNT.
001611: 00,2075           12063                           TCF      TSSL       +1
001612:
001613: 00,2076           10020                           CCS      CYR                                   #  SEE IF ROUND WANTED.
001614: 00,2077           07116        ROUND              TC       ROUNDSUB                              #  YES - ROUND AND EXIT.
001615: 00,2100           16014                           TCF      DANZIG                                #  SL LEAVES A ZERO IN CYR FOR NO ROUND.
001616: 00,2101           16014                           TCF      DANZIG                                #  NO - EXIT IMMEDIATL
001617:


001619:                                                                                                  #  VECTOR SHIFTING ROUTINES.
001620:
001621: 00,2102           37663        SHORTV             CAF      LOW3                                  #  SAVE 3 BIT SHIFT COUNT - 1 WITHOUT
001622: 00,2103           70020                           MASK     CYR                                   #  EDITING CYR.
001623: 00,2104           54121                           TS       MPTEMP
001624: 00,2105           10020                           CCS      CYR                                   #  SEE IF LEFT OR RIGHT SHIFT.
001625: 00,2106           12126                           TCF      VSSL                                  #  VECTOR SHIFT LEFT.
001626: 00,2107           00176        OCT176             OCT      176                                   #  USED IN PROCESSED SHIFTS WITH - COUNT.
001627:
001628: 00,2110           50121        VSSR               INDEX    MPTEMP                                #  (ENTRY FROM SR). PICK UP SHIFTING BIT.
001629: 00,2111           37642                           CAF      BIT14                                 #  MPTEMP CONTAINS THE SHIFT COUNT - 1.
001630: 00,2112           54121                           TS       MPTEMP
001631: 00,2113           02054                           TC       VSHRRND                               #  SHIFT X COMPONENT.
001632:
001633: 00,2114           52141                           DXCH     MPAC                                  #  SWAP X AND Y COMPONENTS.
001634: 00,2115           52144                           DXCH     MPAC       +3
001635: 00,2116           52141                           DXCH     MPAC
001636: 00,2117           02054                           TC       VSHRRND                               #  SHIFT Y COMPONENT.
001637:
001638: 00,2120           52141                           DXCH     MPAC                                  #  SWAP Y AND Z COMPONENTS.
001639: 00,2121           52146                           DXCH     MPAC       +5
001640: 00,2122           52141                           DXCH     MPAC
001641: 00,2123           02054                           TC       VSHRRND                               #  SHIFT Z COMPONENT.
001642:
001643: 00,2124           17373                           TCF      VROTATEX                              #  RESTORE COMPONENTS TO PROPER PLACES.
001644:


001646:                                                                                                  #  VECTOR SHIFT LEFT - DONE ONE PLACE AT A TIME.
001647:
001648: 00,2125           54121                 -1        TS       MPTEMP                                #  SHIFTING LOOP.
001649:
001650: 00,2126           00006        VSSL               EXTEND
001651: 00,2127           30141                           DCA      MPAC
001652: 00,2130           20141                           DAS      MPAC
001653: 00,2131           00006                           EXTEND
001654: 00,2132           12134                           BZF      +2
001655: 00,2133           07007                           TC       OVERFLOW
001656:
001657: 00,2134           00006                           EXTEND
001658: 00,2135           30144                           DCA      MPAC       +3
001659: 00,2136           20144                           DAS      MPAC       +3
001660: 00,2137           00006                           EXTEND
001661: 00,2140           12142                           BZF      +2
001662: 00,2141           07007                           TC       OVERFLOW
001663:
001664: 00,2142           00006                           EXTEND
001665: 00,2143           30146                           DCA      MPAC       +5
001666: 00,2144           20146                           DAS      MPAC       +5
001667: 00,2145           00006                           EXTEND
001668: 00,2146           12150                           BZF      +2
001669: 00,2147           07007                           TC       OVERFLOW
001670:
001671: 00,2150           10121                           CCS      MPTEMP                                #  LOOP ON DECREMENTED SHIFT COUNTER.
001672: 00,2151           12125                           TCF      VSSL       -1
001673: 00,2152           16014                           TCF      DANZIG                                #  EXIT.
001674:


001676:                                                                                                  #           TSLC - TRIPLE SHIFT LEFT AND COUNT. SHIFTS MPAC LEFT UNTIL GREATER THAN .5 IN MAGNITUDE, LEAVING
001677:                                                                                                  #  THE COMPLEMENT OF THE NUMBER OF SHIFTS REQUIRED IN X.
001678:
001679: 00,2153           54121        TSLC2              TS       MPTEMP                                #  START BY ZEROING SHIFT COUNT (IN A NOW).
001680: 00,2154           06711                           TC       BRANCH                                #  EXIT WITH NO SHIFTING IF ARGUMENT ZERO.
001681: 00,2155           12157                           TCF      +2
001682: 00,2156           12172                           TCF      ENDTSLC                               #  STORES ZERO SHIFT COUNT IN THIS CASE.
001683:
001684: 00,2157           30140                           CA       MPAC                                  #  BEGIN NORMALIZATION LOOP.
001685: 00,2160           12167                           TCF      TSLCTEST
001686:
001687: 00,2161           24121        TSLCLOOP           INCR     MPTEMP                                #  INCREMENT SHIFT COUNTER.
001688: 00,2162           00006                           EXTEND
001689: 00,2163           30142                           DCA      MPAC       +1
001690: 00,2164           20142                           DAS      MPAC       +1
001691: 00,2165           60140                           AD       MPAC
001692: 00,2166           26140                           ADS      MPAC
001693: 00,2167           60000        TSLCTEST           DOUBLE                                         #  SEE IF (ANOTHER) SHIFT IS REQUIRED.
001694: 00,2170           54000                           OVSK
001695: 00,2171           12161                           TCF      TSLCLOOP                              #  YES - INCREMENT COUNT AND SHIFT AGAIN.
001696:
001697: 00,2172           40121        ENDTSLC            CS       MPTEMP
001698: 00,2173           16627                           TCF      STORE1                                #  STORE SHIFT COUNT AND RETURN TO DANZIG.
001699:


001701:                                                                                                  #           THE FOLLOWING ROUTINES PROCESSES THE GENERAL SHIFT INSTRUCTIONS SR, SRR, SL, AND SLR.
001702:                                                                                                  #  THE GIVEN ADDRESS IS DECODED AS FOLLOWS:
001703:
001704:                                                                                                  #           BITS 1-7        SHIFT COUNT (SUBADDRESS) LESS THAN 125 DECIMAL.
001705:                                                                                                  #           BIT 8           PSEUDO SIGN BIT (DETECTS CHANGE IN SIGN IN INDEXED SHIFTS).
001706:                                                                                                  #           BIT 9           0 FOR LEFT SHIFT, AND 1 FOR RIGHT SHIFT.
001707:                                                                                                  #           BIT 10          1 FOR TERMINAL ROUND ON SCALAR SHIFTS, 0 OTHERWISE.
001708:                                                                                                  #           BITS 11-15      0.
001709:
001710:                                                                                                  #  THE ABOVE ENCODING IS DONE BY THE YUL SYSTEM.
001711:
001712:
001713:
001714: 00,2174           70102        GENSHIFT           MASK     ADDRWD                                #  GET SHIFT COUNT, TESTING FOR ZERO.
001715: 00,2175           10000                           CCS      A                                     #  (ARRIVES WITH C(A) = LOW7).
001716: 00,2176           12204                           TCF      GENSHFT2                              #  IF NON-ZERO, PROCEED WITH DECREMENTED CT
001717:
001718: 00,2177           37646                           CAF      BIT10                                 #  ZERO SHIFT COUNT. NO SHIFTS NEEDED BUT
001719: 00,2200           70102                           MASK     ADDRWD                                #  WE MIGHT HAVE TO ROUND MPAC ON SLR AND
001720: 00,2201           10000                           CCS      A                                     #  SRR (SCALAR ONLY).
001721: 00,2202           07116                           TC       ROUNDSUB
001722: 00,2203           16014                           TCF      DANZIG
001723:
001724: 00,2204           54121        GENSHFT2           TS       MPTEMP                                #  DECREMENTED SHIFT COUNT TO MPTEMP.
001725: 00,2205           37650                           CAF      BIT8                                  #  TEST MEANING OF LOW SEVEN BIT COUNT IN
001726: 00,2206           00006                           EXTEND                                         #  MPTEMP NOW.
001727: 00,2207           70102                           MP       ADDRWD
001728: 00,2210           76165                           MASK     LOW2                                  #  JUMPS ON SHIFT DIRECTION (BIT8) AND
001729: 00,2211           50000                           INDEX    A
001730: 00,2212           12213                           TCF      +1                                    #  ORIGINAL SHIFT DIRECTION (BIT 9).
001731: 00,2213           12312                           TCF      RIGHT-                                #  NEGATIVE SHIFT COUNT FOR SL OR SLR.
001732: 00,2214           12321                           TCF      LEFT                                  #  SL OR SLR.
001733: 00,2215           12316                           TCF      LEFT-                                 #  NEGATIVE SHIFT COUNT WITH SR OR SRR.
001734:


001736:                                                                                                  #           GENERAL SHIFT RIGHT.
001737:
001738: 00,2216           10147        RIGHT              CCS      MODE                                  #  SEE IF VECTOR OR SCALAR.
001739: 00,2217           12257                           TCF      GENSCR
001740: 00,2220           12257                           TCF      GENSCR
001741:
001742: 00,2221           30121                           CA       MPTEMP                                #  SEE IF SHIFT COUNT GREATER THAN 13D.
001743: 00,2222           62273        VRIGHT2            AD       NEG12
001744: 00,2223           00006                           EXTEND
001745: 00,2224           62110                           BZMF     VSSR                                  #  IF SO, BRANCH AND SHIFT IMMEDIATELY.
001746:
001747: 00,2225           67667                           AD       NEGONE                                #  IF NOT, REDUCE MPTEMP BY A TOTAL OF 14,
001748: 00,2226           54121                           TS       MPTEMP                                #  AND DO A SHIFT RIGHT AND ROUND BY 14.
001749: 00,2227           37665                           CAF      ZERO                                  #  THE ROUND AT THIS STAGE MAY INTRODUCE A
001750: 00,2230           54001                           TS       L                                     #  ONE BIT ERROR IN A SHIFT RIGHT 15D.
001751: 00,2231           56140                           XCH      MPAC
001752: 00,2232           56141                           XCH      MPAC       +1
001753: 00,2233           02252                           TC       SETROUND                              #  X COMPONENT NOW SHIFTED, SO MAKE UP THE
001754: 00,2234           20141                           DAS      MPAC                                  #  ROUNDING QUANTITY (0 IN A AND 0 OR +-1
001755:                                                                                                  #  IN L).
001756: 00,2235           56143                           XCH      MPAC       +3                         #  REPEAT THE ABOVE PROCESS FOR Y AND Z.
001757: 00,2236           56144                           XCH      MPAC       +4
001758: 00,2237           02252                           TC       SETROUND
001759: 00,2240           20144                           DAS      MPAC       +3                         #  NO OVERFLOW ON THESE ADDS.
001760:
001761: 00,2241           56145                           XCH      MPAC       +5
001762: 00,2242           56146                           XCH      MPAC       +6
001763: 00,2243           02252                           TC       SETROUND
001764: 00,2244           20146                           DAS      MPAC       +5
001765:
001766: 00,2245           10121                           CCS      MPTEMP                                #  SEE IF DONE, DOING FINAL DECREMENT.
001767: 00,2246           12222                           TCF      VRIGHT2
001768: 00,2247           13630        TCSUBTR            TCF      SUBTR
001769: 00,2250           04604        BIASLO             DEC      .2974      B-1                        #  SQRT CONSTANT
001770:
001771: 00,2251           16014                           TCF      DANZIG
001772:
001773:
001774:
001775: 00,2252           60000        SETROUND           DOUBLE                                         #  MAKES UP ROUNDING QUANTITY FROM ARRIVING
001776: 00,2253           54142                           TS       MPAC       +2                         #  C(A). L IS ZERO INITIALLY.
001777: 00,2254           37665                           CAF      ZERO
001778: 00,2255           56001                           XCH      L
001779: 00,2256           00002                           TC       Q                                     #  RETURN AND DO THE DAS, RESETTING L TO 0.
001780:


001782:                                                                                                  #           PROCESS SR AND SRR FOR SCALARS.
001783:
001784: 00,2257           30121        GENSCR             CA       MPTEMP                                #  SEE IF THE ORIGINAL SHIFT COUNT WAS LESS
001785: 00,2260           62273                 +1        AD       NEG12                                 #  THAN 14D.
001786: 00,2261           00006                           EXTEND
001787: 00,2262           62302                           BZMF     DOSSHFT                               #  DO THE SHIFT IMMEDIATELY IF SO.
001788:
001789: 00,2263           67667                 +4        AD       NEGONE                                #  IF NOT, DECREMENT SHIFT COUNT BY 14D AND
001790: 00,2264           54121                           TS       MPTEMP                                #  SHIFT MPAC RIGHT 14 PLACES.
001791: 00,2265           37665                           CAF      ZERO
001792: 00,2266           56140                           XCH      MPAC
001793: 00,2267           56141                           XCH      MPAC       +1
001794: 00,2270           54142                           TS       MPAC       +2
001795: 00,2271           10121                           CCS      MPTEMP                                #  SEE IF FINISHED, DO FINAL DECREMENT.
001796: 00,2272           02260                           TC       GENSCR     +1
001797: 00,2273           77763        NEG12              DEC      -12        B-14
001798: 00,2274           22650        SLOPEHI            DEC      .5884                                 #  SQRT CONSTANT.
001799: 00,2275           37646                           CAF      BIT10                                 #  FINISHED WITH SHIFT. SEE IF ROUND
001800: 00,2276           70102                           MASK     ADDRWD                                #  WANTED.
001801: 00,2277           10000                           CCS      A
001802: 00,2300           07116                           TC       ROUNDSUB
001803: 00,2301           16014                           TCF      DANZIG                                #  DO SO AND/OR EXIT.
001804:
001805: 00,2302           50121        DOSSHFT            INDEX    MPTEMP                                #  PICK UP SHIFTING BIT.
001806: 00,2303           37642                           CAF      BIT14
001807: 00,2304           54121                           TS       MPTEMP
001808: 00,2305           37646                           CAF      BIT10                                 #  SEE IF TERMINAL ROUND DESIRED.
001809: 00,2306           70102                           MASK     ADDRWD
001810: 00,2307           10000                           CCS      A
001811: 00,2310           12012                           TCF      RIGHTR                                #  YES.
001812: 00,2311           12014                           TCF      MPACSHR                               #  JUST SHIFT RIGHT.
001813:


001815:                                                                                                  #           PROCESS THE RIGHT- (SL(R) WITH A NEGATIVE COUNT), LEFT-, AND LEFT OPTIONS.
001816:
001817: 00,2312           40121        RIGHT-             CS       MPTEMP                                #  GET ABSOLUTE VALUE - 1 OF SHIFT COUNT
001818: 00,2313           62107                           AD       OCT176                                #  UNDERSTANDING THAT BIT8 (PSEUDO-SIGN)
001819: 00,2314           54121                           TS       MPTEMP                                #  WAS 1 INITIALLY.
001820: 00,2315           12216                           TCF      RIGHT                                 #  DO NORMAL SHIFT RIGHT.
001821:
001822: 00,2316           40121        LEFT-              CS       MPTEMP                                #  SAME PROLOGUE TO LEFT FOR INDEXED RIGHT
001823: 00,2317           62107                           AD       OCT176                                #  SHIFTS WHOSE NET SHIFT COUNT IS NEGATIVE
001824: 00,2320           54121                           TS       MPTEMP
001825:
001826: 00,2321           10147        LEFT               CCS      MODE                                  #  SINCE LEFT SHIFTING IS SONE ONE PLACE AT
001827: 00,2322           12325                           TCF      GENSCL                                #  A TIME, NO COMPARISON WITH 14 NEED BE
001828: 00,2323           12325                           TCF      GENSCL                                #  DONE. FOR SCALARS, SEE IF TERMINAL ROUND
001829: 00,2324           12126                           TCF      VSSL                                  #  DESIRED. FOR VECTORS, SHIFT IMMEDIATELY.
001830:
001831: 00,2325           37652        GENSCL             CAF      BIT6                                  #  PUT ROUNDING BIT (BIT10 OF ADDRWD) INTO
001832: 00,2326           00006                           EXTEND                                         #  BIT 15 OF CYR WHERE THE ROUNDING BIT OF
001833: 00,2327           70102                           MP       ADDRWD                                #  A SHORT SHIFT LEFT WOULD BE.
001834: 00,2330           54020                           TS       CYR
001835: 00,2331           12064                           TCF      TSSL       +2                         #  DO THE SHIFT.
001836:


001838:                                                                                                  #           SCALAR DIVISION INSTRUCTIONS, DDV AND BDDV, ARE EXECUTED HERE. AT THIS POINT, THE DIVIDEND IS IN MPAC
001839:                                                                                                  #  AND THE DIVISOR IN BUF.
001840:
001841: 00,2332           47657        DDV/BDDV           CS       ONE                                   #  INITIALIZATION.
001842: 00,2333           54122                           TS       DVSIGN                                #  +-1 FOR POSITIVE QUOTIENT - -0 FOR NEG.
001843: 00,2334           54123                           TS       DVNORMCT                              #  DIVIDEND NORMALIZATION COUNT.
001844: 00,2335           54124                           TS       MAXDVSW                               #  NEAR-ONE DIVIDE FLAG.
001845:
001846: 00,2336           10114                           CCS      BUF                                   #  FORCE BUF POSITIVE WITH THE MAJOR PART
001847: 00,2337           12366                           TCF      BUF+                                  #  NON-ZERO.
001848: 00,2340           12342                           TCF      +2
001849: 00,2341           12362                           TCF      BUF-
001850:
001851: 00,2342           56115                           XCH      BUF        +1                         #  SHIFT DIVIDEND AND DIVISOR LEFT 14.
001852: 00,2343           56114                           XCH      BUF
001853: 00,2344           56141                           XCH      MPAC       +1
001854: 00,2345           56140                           XCH      MPAC
001855: 00,2346           00006                           EXTEND                                         #  CHECK FOR OVERFLOW.
001856: 00,2347           12351                           BZF      +2
001857: 00,2350           12355                           TCF      DVOVF
001858:
001859: 00,2351           10114                           CCS      BUF                                   #  TRY AGAIN ON FORMER MINOR PART.
001860: 00,2352           12366                           TCF      BUF+
001861: 00,2353           12355                           TCF      DVOVF                                 #  OVERFLOW ON ZERO DIVISOR.
001862: 00,2354           12362                           TCF      BUF-
001863:
001864: 00,2355           37637        DVOVF              CAF      POSMAX                                #  ON DIVISION OVERFLOW OF ANY SORT, SET
001865: 00,2356           54140                           TS       MPAC                                  #  SET DP MPAC TO +-POSMAX.
001866: 00,2357           02552                           TC       FINALDV    +3
001867: 00,2360           37657                           CAF      ONE                                   #  SET OVERFLOW INDICATOR AND EXIT.
001868: 00,2361           17061                           TCF      SETOVF
001869:
001870: 00,2362           00006        BUF-               EXTEND                                         #  IF BUF IS NEGATIVE, COMPLEMENT IT AND
001871: 00,2363           40115                           DCS      BUF                                   #  MAINTAIN DVSIGN FOR FINAL QUOTIENT SIGN.
001872: 00,2364           52115                           DXCH     BUF
001873: 00,2365           24122                           INCR     DVSIGN                                #  NOW -0.
001874:
001875: 00,2366           10140        BUF+               CCS      MPAC                                  #  FORCE MPAC POSITIVE, CHECKING FOR ZERO
001876: 00,2367           12403                           TCF      MPAC+                                 #  DIVIDEND IN THE PROCESS.
001877: 00,2370           12372                           TCF      +2
001878: 00,2371           12377                           TCF      MPAC-
001879: 00,2372           10141                           CCS      MPAC       +1
001880: 00,2373           12403                           TCF      MPAC+
001881: 00,2374           16014                           TCF      DANZIG                                #  EXIT IMMEDIATELY ON ZERO DIVIDEND.
001882: 00,2375           12377                           TCF      MPAC-
001883: 00,2376           16014                           TCF      DANZIG
001884:
001885: 00,2377           00006        MPAC-              EXTEND                                         #  FORCE MPAC POSITIVE AS BUF IN BUF-.
001886: 00,2400           40141                           DCS      MPAC
001887: 00,2401           52141                           DXCH     MPAC
001888:


001890: 00,2402           24122                           INCR     DVSIGN                                #  NOW +1 OR -0.
001891:


001893: 00,2403           40140        MPAC+              CS       MPAC                                  #  CHECK FOR DIVISION OVERFLOW. IF THE
001894: 00,2404           67667                           AD       NEGONE                                #  MAJOR PART OF THE DIVIDEND IS LESS THAN
001895: 00,2405           60114                           AD       BUF                                   #  THE MAJOR PART OF THE DIVISOR BY AT
001896: 00,2406           10000                           CCS      A                                     #  LEAST TWO, WE CAN PROCEED IMMEDIATELY
001897: 00,2407           12451                           TCF      DVNORM                                #  WITHOUT NORMALIZATION PRODUCING A DVMAX.
001898: 00,2410           60001        -1/2+2             OCT      60001                                 #  USED IN SQRTSUB.
001899:
001900: 00,2411           12412                           TCF      +1                                    #  IF THE ABOVE DOES NOT HOLD, FORCE SIGN
001901: 00,2412           37642                           CAF      HALF                                  #  AGREEMENT IN NUMERATOR AND DENOMINATOR
001902: 00,2413           60000                           DOUBLE                                         #  TO FACILITATE OVERFLOW AND NEAR-ONE
001903: 00,2414           60141                           AD       MPAC       +1                         #  CHECKING.
001904: 00,2415           54141                           TS       MPAC       +1
001905: 00,2416           37665                           CAF      ZERO
001906: 00,2417           67637                           AD       POSMAX
001907: 00,2420           26140                           ADS      MPAC
001908:
001909: 00,2421           37642                           CAF      HALF                                  #  SAME FOR BUF.
001910: 00,2422           60000                           DOUBLE
001911: 00,2423           60115                           AD       BUF        +1
001912: 00,2424           54115                           TS       BUF        +1
001913: 00,2425           37665                           CAF      ZERO
001914: 00,2426           67637                           AD       POSMAX
001915: 00,2427           26114                           ADS      BUF
001916:
001917: 00,2430           40140                           CS       MPAC                                  #  CHECK MAGNITUDE OF SIGN-CORRECTED
001918: 00,2431           60114                           AD       BUF                                   #  OPERANDS.
001919: 00,2432           10000                           CCS      A
001920: 00,2433           12451                           TCF      DVNORM                                #  DIVIDE OK - WILL NOT BECOME MAXDV CASE.
001921: 00,2434           00117        LBUF2              ADRES    BUF2
001922: 00,2435           12355                           TCF      DVOVF                                 #  DIVISOR NOT LESS THAN DIVIDEND - OVF.
001923:
001924: 00,2436           54124                           TS       MAXDVSW                               #  IF THE MAJOR PARTS OF THE DIVIDEND AND
001925: 00,2437           40141                           CS       MPAC       +1                         #  DIVISOR ARE EQUAL, A SPECIAL APPROXIMA-
001926: 00,2440           60115                           AD       BUF        +1                         #  TION IS USED (PROVIDED THE DIVISION IS
001927: 00,2441           00006                           EXTEND                                         #  POSSIBLE, OF COURSE).
001928: 00,2442           62355                           BZMF     DVOVF
001929: 00,2443           12451                           TCF      DVNORM                                #  IF NO OVERFLOW.
001930:


001932: 00,2444           00006        BUFNORM            EXTEND                                         #  ADD -1 TO AUGMENT SHIFT COUNT AND SHIFT
001933: 00,2445           24123                           AUG      DVNORMCT                              #  LEFT ONE PLACE.
001934: 00,2446           00006                           EXTEND
001935: 00,2447           30115                           DCA      BUF
001936: 00,2450           20115                           DAS      BUF
001937:
001938: 00,2451           30114        DVNORM             CA       BUF                                   #  SEE IF DIVISOR NORMALIZED YET.
001939: 00,2452           60000                           DOUBLE
001940: 00,2453           54000                           OVSK
001941: 00,2454           12444                           TCF      BUFNORM                               #  NO - SHIFT LEFT ONE AND TRY AGAIN.
001942:
001943: 00,2455           52141                           DXCH     MPAC                                  #  CALL DIVIDEND NORMALIZATION SEQUENCE
001944: 00,2456           50123                           INDEX    DVNORMCT                              #  PRIOR TO DOING THE DIVIDE.
001945: 00,2457           02507                           TC       MAXTEST
001946:
001947: 00,2460           54142                           TS       MPAC       +2                         #  RETURNS WITH DIVISION DONE AND C(A) = 0.
001948: 00,2461           16014                           TCF      DANZIG
001949:


001951:                                                                                                  #           THE FOLLOWING ARE PROLOGUES TO SHIFT THE DIVIDEND ARRIVING IN A AND L BEFORE THE DIVIDE.
001952:
001953: 00,2462           22021                 -21D      LXCH     SR                                    #  SPECIAL PROLOGUE FOR UNIT WHEN THE
001954: 00,2463           00006                           EXTEND                                         #  LENGTH OF THE ARGUMENT WAS NOT LESS THAN
001955: 00,2464           77642                           MP       HALF                                  #  .5.  IN THIS CASE, EACH COMPONENT MUST BE
001956: 00,2465           56001                           XCH      L                                     #  SHIFTED RIGHT ONE TO PRODUCE A HALF-UNIT
001957: 00,2466           60021                           AD       SR                                    #  VECTOR.
001958: 00,2467           56001                           XCH      L
001959: 00,2470           12513                           TCF      GENDDV     +1                         #  WITH DP DIVIDEND IN A,L.
001960:
001961: 00,2471           20001                           DDOUBL                                         #  PROLOGUE WHICH NORMALIZES THE DIVIDEND
001962: 00,2472           20001                           DDOUBL                                         #  WHEN IT IS KNOWN THAT NO DIVISION
001963: 00,2473           20001                           DDOUBL                                         #  OVERFLOW WILL OCCUR.
001964: 00,2474           20001                           DDOUBL
001965: 00,2475           20001                           DDOUBL
001966: 00,2476           20001                           DDOUBL
001967: 00,2477           20001                           DDOUBL
001968: 00,2500           20001                           DDOUBL
001969: 00,2501           20001                           DDOUBL
001970: 00,2502           20001                           DDOUBL
001971: 00,2503           20001                           DDOUBL
001972: 00,2504           20001                           DDOUBL
001973: 00,2505           20001                           DDOUBL
001974: 00,2506           52141                           DXCH     MPAC
001975:
001976: 00,2507           10124        MAXTEST            CCS      MAXDVSW                               #  0 IF MAJORS MIGHT BE =, -1 OTHERWISE.
001977: 00,2510           06552        BIASHI             DEC      .4192      B-1                        #  SQRT CONSTANTS
001978:
001979: 00,2511           12564                           TCF      MAXDV                                 #  CHECK TO SEE IF THEY ARE NOW EQUAL.
001980:


001982:                                                                                                  #           THE FOLLOWING IS A GENERAL PURPOSE DOUBLE PRECISION DIVISION ROUTINE. IT DIVIDES MPAC BY BUF AND LEAVES
001983:                                                                                                  #  THE RESULT IN MPAC. THE FOLLOWING CONDITIONS MUST BE SATISFIED:
001984:
001985:                                                                                                  #           1.  THE DIVISOR (BUF) MUST BE POSITIVE AND NOT LESS THAN .5.
001986:
001987:                                                                                                  #           2.  THE DIVIDEND (MPAC) MUST BE POSITIVE WITH THE MAJOR PART OF MPAC STRICTLY LESS THAN THAT OF BUF
001988:                                                                                                  #  (A SPECIAL APPROXIMATION, MAXDV, IS USED WHEN THE MAJOR PARTS ARE EQUAL).
001989:
001990:                                                                                                  #           UNDERSTANDING THAT A/B = Q + S(R/B) WHERE S = 2(-14) AND Q AND R ARE QUOTIENT AND REMAINDER, RESPEC-
001991:                                                                                                  #  TIVELY, THE FOLLOWING APPROXIMATION IS OBTAINED BY MULTIPLYING ABOVE AND BELOW BY C - SD AND NEGLECTING TERMS OF
001992:                                                                                                  #  ORDER S-SQUARED (POSSIBLY INTRODUCING ERROR INTO THE LOW TWO BITS OF THE RESULT). SIGN AGREEMENT IS UNNECESSARY.
001993:
001994:                                                                                                  #           A + SB .      (R - QD)                                             A + SB
001995:                                                                                                  #           ------ = Q + S(------) WHERE Q AND R ARE QUOTIENT AND REMAINDER OF ------ RESPECTIVELY.
001996:                                                                                                  #           C + SD        (  C   )                                               C
001997:
001998: 00,2512           52141        GENDDV             DXCH     MPAC                                  #  WE NEED A AND B ONLY FOR FIRST DV.
001999: 00,2513           00006                 +1        EXTEND                                         #  (SPECIAL UNIT PROLOGUE ENTERS HERE).
002000: 00,2514           10114                           DV       BUF                                   #  A NOW CONTAINS Q AND L, R.
002001: 00,2515           52141                           DXCH     MPAC
002002:
002003: 00,2516           40140                           CS       MPAC                                  #  FORM DIVIDEND FOR MINOR PART OF RESULT.
002004: 00,2517           00006                           EXTEND
002005: 00,2520           70115                           MP       BUF        +1
002006: 00,2521           60141                           AD       MPAC       +1                         #  OVERFLOW AT THIS POINT IS POSITIVE SINCE
002007: 00,2522           54000                           OVSK                                           #  R IS POSITIVE IN EVERY CASE.
002008: 00,2523           12530                           TCF      +5
002009:
002010: 00,2524           00006                           EXTEND                                         #  OVERFLOW CAN BE REMOVED BY SUBTRACTING C
002011: 00,2525           60114                           SU       BUF                                   #  (BUF) ONCE SINCE R IS ALWAYS LESS THAN C
002012: 00,2526           24140                           INCR     MPAC                                  #  IN THIS CASE. INCR COMPENSATES SUBTRACT.
002013: 00,2527           12532                           TCF      +DOWN                                 #  (SINCE C(A) IS STILL POSITIVE).
002014:
002015: 00,2530           00006                 +5        EXTEND                                         #  C(A) CAN BE MADE LESS THAN C IN MAGNI-
002016: 00,2531           62542                           BZMF     -UP                                   #  TUDE BY DIMINISHING IT BY C (SINCE C IS
002017:                                                                                                  #  NOT LESS THAN .5) UNLESS C(A) = 0.
002018:


002020: 00,2532           00006        +DOWN              EXTEND
002021: 00,2533           60114                           SU       BUF                                   #  IF POSITIVE, REDUCE ONLY IF NECESSARY
002022: 00,2534           00006                           EXTEND                                         #  SINCE THE COMPENSATING INCR MIGHT CAUSE
002023: 00,2535           12540                           BZF      +3                                    #  OVERFLOW.
002024: 00,2536           00006                           EXTEND                                         #  DONT SUBTRACT UNLESS RESULT IS POSITIVE
002025: 00,2537           62546                           BZMF     ENDMAXDV                              #  OR ZERO.
002026:
002027: 00,2540           24140                 +3        INCR     MPAC                                  #  KEEP SUBTRACT HERE AND COMPENSATE.
002028: 00,2541           12547                           TCF      FINALDV
002029:
002030: 00,2542           00006        -UP                EXTEND                                         #  IF ZERO, SET MINOR PART OF RESULT TO
002031: 00,2543           12552                           BZF      FINALDV    +3                         #  ZERO.
002032:
002033: 00,2544           00006                           EXTEND                                         #  IF NEGATIVE, ADD C TO A, SUBTRACTING ONE
002034: 00,2545           26140                           DIM      MPAC                                  #  TO COMPENSATE. DIM IS OK HERE SINCE THE
002035: 00,2546           60114        ENDMAXDV           AD       BUF                                   #  MAJOR PART NEVER GOES NEGATIVE.
002036:


002038: 00,2547           22007        FINALDV            ZL                                             #  DO DV TO OBTAIN MINOR PART OF RESULT.
002039: 00,2550           00006                           EXTEND
002040: 00,2551           10114                           DV       BUF
002041: 00,2552           54141                 +3        TS       MPAC       +1
002042:
002043: 00,2553           10122                           CCS      DVSIGN                                #  LEAVE RESULT POSITIVE UNLESS C(DVSIGN)=
002044: 00,2554           00002                           TC       Q                                     #  -0.
002045: 00,2555           00002                           TC       Q
002046: 00,2556           00002                           TC       Q
002047:
002048: 00,2557           00006                           EXTEND
002049: 00,2560           40141                           DCS      MPAC
002050: 00,2561           52141                           DXCH     MPAC
002051: 00,2562           37665                           CAF      ZERO                                  #  SO WE ALWAYS RETURN WITH C(A) = 0.
002052: 00,2563           00002                           TC       Q
002053:


002055:                                                                                                  #           IF THE MAJOR PARTS OF THE DIVISOR AND DIVIDEND ARE EQUAL, BUT THE MINOR PARTS ARE SUCH THAT THE
002056:                                                                                                  #  DIVIDEND IS STRICTLY LESS THAN THE DIVISOR IN MAGNITUDE, THE FOLLOWING APPROXIMATION IS USED. THE ASSUMPTIONS
002057:                                                                                                  #  ARE THE SAME AS THE GENERAL ROUTINE WITH THE ADDITION THAT SIGN AGREEMENT IS NECESSARY (B, C, & D POSITIVE).
002058:
002059:                                                                                                  #                  C + SB .          (C + B - D)
002060:                                                                                                  #                  ------ = 37777 + S(---------)
002061:                                                                                                  #                  C + SD            (    C    )
002062:
002063:                                                                                                  #           THE DIVISION MAY BE PERFORMED IMMEDIATELY SINCE B IS STRICTLY LESS THAN D AND C IS NOT LESS THAN .5.
002064:
002065:
002066:
002067: 00,2564           40140        MAXDV              CS       MPAC                                  #  SEE IF MAXDV CASE STILL HOLDS AFTER
002068: 00,2565           60114                           AD       BUF                                   #  NORMALIZATION.
002069: 00,2566           00006                           EXTEND
002070: 00,2567           12571                           BZF      +2
002071: 00,2570           12512                           TCF      GENDDV                                #  MPAC NOW LESS THAN BUF - DIVIDE AS USUAL
002072:
002073: 00,2571           37637                 +2        CAF      POSMAX                                #  SET MAJOR PART OF RESULT.
002074: 00,2572           54140                           TS       MPAC
002075:
002076: 00,2573           40115                           CS       BUF        +1                         #  FORM DIVIDEND OF MINOR PART OF RESULT.
002077: 00,2574           60141                           AD       MPAC       +1
002078: 00,2575           12546                           TCF      ENDMAXDV                              #  GO ADD C AND DO DIVIDE, ATTACHING SIGN
002079:                                                                                                  #  BEFORE EXITING.
002080:


002082:                                                                                                  #        VECTOR DIVIDED BY SCALAR, V/SC, IS EXECUTED HERE. THE VECTOR IS NOW IN MPAC WITH SCALAR IN BUF.
002083:
002084: 00,2576           47657        V/SC2              CS       ONE                                   #  INITIALIZE DIVIDEND NORMALIZATION COUNT
002085: 00,2577           54123                           TS       DVNORMCT                              #  AND DIVISION SIGN REGISTER.
002086: 00,2600           54113                           TS       VBUF       +5
002087:
002088: 00,2601           10114                           CCS      BUF                                   #  FORCE DIVISOR POSITIVE WITH MAJOR PART
002089: 00,2602           12637                           TCF      /BUF+                                 #  NON-ZERO (IF POSSIBLE).
002090: 00,2603           12605                           TCF      +2
002091: 00,2604           12633                           TCF      /BUF-
002092:
002093: 00,2605           56115                           XCH      BUF        +1                         #  SHIFT VECTOR AND SCALAR LEFT 14.
002094: 00,2606           56114                           XCH      BUF
002095: 00,2607           56141                           XCH      MPAC       +1
002096: 00,2610           56140                           XCH      MPAC
002097: 00,2611           00006                           EXTEND                                         #  CHECK FOR OVERFLOW IN EACH CASE.
002098: 00,2612           12614                           BZF      +2
002099: 00,2613           12355                           TCF      DVOVF
002100:
002101: 00,2614           56144                           XCH      MPAC       +4
002102: 00,2615           56143                           XCH      MPAC       +3
002103: 00,2616           00006                           EXTEND
002104: 00,2617           12621                           BZF      +2
002105: 00,2620           12355                           TCF      DVOVF
002106:
002107: 00,2621           56146                           XCH      MPAC       +6
002108: 00,2622           56145                           XCH      MPAC       +5
002109: 00,2623           00006                           EXTEND
002110: 00,2624           12626                           BZF      +2
002111: 00,2625           12355                           TCF      DVOVF
002112:
002113: 00,2626           10114                           CCS      BUF
002114: 00,2627           12637                           TCF      /BUF+
002115: 00,2630           12355                           TCF      DVOVF                                 #  ZERO DIVISOR - OVERFLOW.
002116: 00,2631           12633                           TCF      /BUF-
002117: 00,2632           12355                           TCF      DVOVF
002118:
002119: 00,2633           00006        /BUF-              EXTEND                                         #  ON NEGATIVE, COMPLEMENT BUF AND MAINTAIN
002120: 00,2634           40115                           DCS      BUF                                   #  DVSIGN IN VBUF +5.
002121: 00,2635           52115                           DXCH     BUF
002122: 00,2636           24113                           INCR     VBUF       +5
002123:


002125: 00,2637           37642        /BUF+              CAF      HALF                                  #  FORCE SIGN AGREEMENT IN DIVISOR.
002126: 00,2640           60000                           DOUBLE
002127: 00,2641           60115                           AD       BUF        +1
002128: 00,2642           54115                           TS       BUF        +1
002129: 00,2643           37665                           CAF      ZERO
002130: 00,2644           67637                           AD       POSMAX
002131: 00,2645           26114                           ADS      BUF
002132:
002133: 00,2646           56117                           XCH      BUF2                                  #  LEAVE ABS(ORIGINAL DIVISOR) IN BUF2 FOR
002134: 00,2647           30115                           CA       BUF        +1                         #  OVERFLOW TESTING.
002135: 00,2650           54120                           TS       BUF2       +1
002136: 00,2651           12657                           TCF      /NORM                                 #  NORMALIZE DIVISOR IN BUF.
002137:
002138: 00,2652           00006        /NORM2             EXTEND                                         #  IF LESS THAN .5, AUGMENT DVNORMCT AND
002139: 00,2653           24123                           AUG      DVNORMCT                              #  DOUBLE DIVISOR.
002140: 00,2654           00006                           EXTEND
002141: 00,2655           30115                           DCA      BUF
002142: 00,2656           20115                           DAS      BUF
002143:
002144: 00,2657           30114        /NORM              CA       BUF                                   #  SEE IF DIVISOR NORMALIZED.
002145: 00,2660           60000                           DOUBLE
002146: 00,2661           54000                           OVSK
002147: 00,2662           12652                           TCF      /NORM2                                #  DOUBLE AND TRY AGAIN IF NOT.
002148:
002149: 00,2663           02675                           TC       V/SCDV                                #  DO X COMPONENT DIVIDE.
002150: 00,2664           52144                           DXCH     MPAC       +3                         #  SUPPLY ARGUMENTS IN USUAL SEQUENCE.
002151: 00,2665           52141                           DXCH     MPAC
002152: 00,2666           52144                           DXCH     MPAC       +3
002153:
002154: 00,2667           02675                           TC       V/SCDV                                #  Y COMPONENT.
002155: 00,2670           52146                           DXCH     MPAC       +5
002156: 00,2671           52141                           DXCH     MPAC
002157: 00,2672           52146                           DXCH     MPAC       +5
002158:
002159: 00,2673           02675                           TC       V/SCDV                                #  Z COMPONENT.
002160: 00,2674           17373                           TCF      VROTATEX                              #  GO RE-ARRANGE COMPONENTS BEFORE EXIT.
002161:


002163:                                                                                                  #           SUBROUTINE USED BY V/SC TO DIVIDE VECTOR COMPONENT IN MPAC,+1 BY THE SCALAR GIVEN IN BUF.
002164:
002165: 00,2675           30113        V/SCDV             CA       VBUF       +5                         #  REFLECTS SIGN OF SCALAR.
002166: 00,2676           54122                           TS       DVSIGN
002167:
002168: 00,2677           10140                           CCS      MPAC                                  #  FORCE MPAC POSITIVE, EXITING ON ZERO.
002169: 00,2700           12714                           TCF      /MPAC+
002170: 00,2701           12703                           TCF      +2
002171: 00,2702           12710                           TCF      /MPAC-
002172:
002173: 00,2703           10141                           CCS      MPAC       +1
002174: 00,2704           12714                           TCF      /MPAC+
002175: 00,2705           00002                           TC       Q
002176: 00,2706           12710                           TCF      /MPAC-
002177: 00,2707           00002                           TC       Q
002178:
002179: 00,2710           00006        /MPAC-             EXTEND                                         #  USUAL COMPLEMENTING AND SETTING OF SIGN.
002180: 00,2711           40141                           DCS      MPAC
002181: 00,2712           52141                           DXCH     MPAC
002182: 00,2713           24122                           INCR     DVSIGN
002183:
002184: 00,2714           47657        /MPAC+             CS       ONE                                   #  INITIALIZE NEAR-ONE SWITCH.
002185: 00,2715           54124                           TS       MAXDVSW
002186:
002187: 00,2716           40140                           CS       MPAC                                  #  CHECK POSSIBLE OVERFLOW.
002188: 00,2717           60117                           AD       BUF2                                  #  UNNORMALIZED INPUT DIVISOR.
002189: 00,2720           00006                           EXTEND
002190: 00,2721           62725                           BZMF     /AGREE                                #  CHECK FOR NEAR-ONE OR OVERFLOW.
002191:
002192: 00,2722           52141        DDVCALL            DXCH     MPAC                                  #  CALL PRE-DIVIDE NORMALIZATION.
002193: 00,2723           50123                           INDEX    DVNORMCT
002194: 00,2724           12507                           TCF      MAXTEST
002195:


002197: 00,2725           37642        /AGREE             CAF      HALF                                  #  FORCE SIGN AGREEMENT IN DIVIDEND
002198: 00,2726           60000                           DOUBLE                                         #  (ALREADY DONE FOR DIVISOR).
002199: 00,2727           60141                           AD       MPAC       +1
002200: 00,2730           54141                           TS       MPAC       +1
002201: 00,2731           37665                           CAF      ZERO
002202: 00,2732           67637                           AD       POSMAX
002203: 00,2733           26140                           ADS      MPAC
002204:
002205: 00,2734           40140                           CS       MPAC                                  #  CHECK TO SEE IF OVERFLOW GONE OR IF
002206: 00,2735           60117                           AD       BUF2                                  #  NEAR-ONE CASE IS PRESENT.
002207: 00,2736           10000                           CCS      A
002208: 00,2737           12722                           TCF      DDVCALL                               #  NOT NEAR-ONE.
002209: 00,2740           32506        SLOPELO            DEC      .8324
002210: 00,2741           12355                           TCF      DVOVF                                 #  NO HOPE.
002211:
002212: 00,2742           54124                           TS       MAXDVSW                               #  SIGNAL POSSIBLE NEAR-ONE CASE.
002213: 00,2743           40141                           CS       MPAC       +1                         #  SEE IF DIVISION CAN BE DONE.
002214: 00,2744           60120                           AD       BUF2       +1
002215: 00,2745           00006                           EXTEND
002216: 00,2746           62355                           BZMF     DVOVF
002217: 00,2747           12722                           TCF      DDVCALL                               #  GOING TO MAXDV.
002218:


002220:                                                                                                  #           THE FOLLOWING ROUTINE EXECUTES THE UNIT INSTRUCTION, WHICH TAKES THE UNIT OF THE VECTOR IN MPAC.
002221:
002222: 00,2750           07506        UNIT               TC       MPACVBUF                              #  SAVE THE ARGUMENT IN VBUF.
002223: 00,2751           37665                           CAF      ZERO                                  #  MUST SENSE OVERFLOW IN FOLLOWING DOT.
002224: 00,2752           56105                           XCH      OVFIND
002225: 00,2753           54125                           TS       TEM1
002226: 00,2754           03246                           TC       VSQSUB                                #  DOT MPAC WITH ITSELF.
002227: 00,2755           30125                           CA       TEM1
002228: 00,2756           56105                           XCH      OVFIND
002229: 00,2757           00006                           EXTEND
002230: 00,2760           12762                           BZF      +2
002231: 00,2761           12355                           TCF      DVOVF
002232: 00,2762           00006                           EXTEND
002233: 00,2763           30141                           DCA      MPAC                                  #  LEAVE THE SQUARE OF THE LENGTH OF THE
002234: 00,2764           50104                           INDEX    FIXLOC                                #  ARGUMENT IN LVSQUARE.
002235: 00,2765           52043                           DXCH     LVSQUARE
002236:
002237: 00,2766           03272                           TC       SQRTSUB                               #  GO TAKE THE NORMALIZED SQUARE ROOT.
002238:
002239: 00,2767           10140                           CCS      MPAC                                  #  CHECK FOR UNIT OVERFLOW.
002240: 00,2770           12775                           TCF      +5                                    #  MPAC IS NOT LESS THAN .5 UNLESS
002241: 00,2771           54001                           TS       L
002242: 00,2772           50104                           INDEX    FIXLOC
002243: 00,2773           52045                           DXCH     LV
002244: 00,2774           12355                           TCF      DVOVF                                 #  INPUT TO SQRTSUB WAS 0.
002245:
002246: 00,2775           43076                           CS       FOURTEEN                              #  SEE IF THE INPUT WAS SO SMALL THE THE
002247: 00,2776           60121                           AD       MPTEMP                                #  FIRST TWO REGISTERS OF THE SQUARE WERE 0
002248: 00,2777           10000                           CCS      A
002249: 00,3000           40000                           COM                                            #  IF SO, SAVE THE NEGATIVE OF THE SHIFT
002250: 00,3001           13057                           TCF      SMALL                                 #  COUNT -15D.
002251:
002252: 00,3002           13011                           TCF      LARGE                                 #  (THIS IS USUALLY THE CASE.)
002253:
002254: 00,3003           43075                           CS       THIRTEEN                              #  IF THE SHIFT COUNT WAS EXACTLY 14, SET
002255: 00,3004           54121                           TS       MPTEMP                                #  THE PRE-DIVIDE NORM COUNT TO -13D.
002256:
002257: 00,3005           30140                           CA       MPAC                                  #  SHIFT THE LENGTH RIGHT 14 BEFORE STORING
002258: 00,3006           54001        SMALL2             TS       L                                     #  (SMALL EXITS TO THIS POINT).
002259: 00,3007           37665                           CAF      ZERO
002260: 00,3010           13036                           TCF      LARGE2                                #  GO TO STORE LENGTH AND PROCEED.
002261:
002262: 00,3011           10121        LARGE              CCS      MPTEMP                                #  MOST ALL CASES COME HERE.
002263: 00,3012           13020                           TCF      LARGE3                                #  SEE IF NO NORMALIZATION WAS REQUIRED BY
002264:
002265: 00,3013           42005                           CS       SRDDV                                 #  SQRT, AND IF SO, SET UP FOR A SHIFT
002266: 00,3014           54121                           TS       MPTEMP                                #  RIGHT 1 BEFORE DIVIDING TO PRODUCE
002267: 00,3015           00006                           EXTEND                                         #  THE DESIRED HALF UNIT VECTOR.
002268: 00,3016           30141                           DCA      MPAC
002269: 00,3017           13036                           TCF      LARGE2
002270:


002272: 00,3020           40000        LARGE3             COM                                            #  LEAVE NEGATIVE OF SHIFT COUNT-1 FOR
002273: 00,3021           54121                           TS       MPTEMP                                #  PREDIVIDE LEFT SHIFT.
002274:
002275: 00,3022           40000                           COM                                            #  PICK UP REQUIRED SHIFTING BIT TO UNNORM-
002276: 00,3023           50000                           INDEX    A                                     #  ALIZE THE SQRT RESULT.
002277: 00,3024           37642                           CAF      BIT14
002278: 00,3025           54114                           TS       BUF
002279: 00,3026           00006                           EXTEND
002280: 00,3027           70141                           MP       MPAC       +1
002281: 00,3030           56114                           XCH      BUF
002282: 00,3031           00006                           EXTEND                                         #  (UNNORMALIZE THE SQRT FOR LV).
002283: 00,3032           70140                           MP       MPAC
002284: 00,3033           56001                           XCH      L
002285: 00,3034           60114                           AD       BUF
002286: 00,3035           56001                           XCH      L
002287:
002288: 00,3036           50104        LARGE2             INDEX    FIXLOC
002289: 00,3037           52045                           DXCH     LV                                    #  LENGTH NOW STORED IN WORK AREA.
002290:
002291: 00,3040           47657                           CS       ONE
002292: 00,3041           54124                           TS       MAXDVSW                               #  NO MAXDV CASES IN UNIT.
002293:
002294: 00,3042           52107                           DXCH     VBUF                                  #  PREPARE X COMPONENT FOR DIVIDE, SETTING
002295: 00,3043           52141                           DXCH     MPAC                                  #  LENGTH OF VECTOR AS DIVISOR IN BUF.
002296: 00,3044           52115                           DXCH     BUF
002297: 00,3045           03077                           TC       UNITDV
002298:
002299: 00,3046           52111                           DXCH     VBUF       +2                         #  DO Y AND Z IN USUAL FASHION SO WE CAN
002300: 00,3047           52141                           DXCH     MPAC                                  #  EXIT THROUGH VROTATEX.
002301: 00,3050           52144                           DXCH     MPAC       +3
002302: 00,3051           03077                           TC       UNITDV
002303:
002304: 00,3052           52113                           DXCH     VBUF       +4
002305: 00,3053           52141                           DXCH     MPAC
002306: 00,3054           52146                           DXCH     MPAC       +5
002307: 00,3055           03077                           TC       UNITDV
002308: 00,3056           17373                           TCF      VROTATEX                              #  AND EXIT.
002309:


002311:                                                                                                  #           IF THE LENGTH OF THE ARGUMENT VECTOR WAS LESS THAN 2(-28), EACH COMPONENT MUST BE SHIFTED LEFT AT LEAST
002312:                                                                                                  #  14 PLACES BEFORE THE DIVIDE. NOTE THAT IN THIS CASE, THE MAJOR PART OF EACH COMPONENT IS ZERO.
002313:
002314: 00,3057           54121        SMALL              TS       MPTEMP                                #  NEGATIVE OF PRE-DIVIDE SHIFT COUNT.
002315:
002316: 00,3060           37665                           CAF      ZERO                                  #  SHIFT EACH COMPONENT LEFT 14.
002317: 00,3061           56107                           XCH      VBUF       +1
002318: 00,3062           56106                           XCH      VBUF
002319: 00,3063           56111                           XCH      VBUF       +3
002320: 00,3064           56110                           XCH      VBUF       +2
002321: 00,3065           56113                           XCH      VBUF       +5
002322: 00,3066           56112                           XCH      VBUF       +4
002323:
002324: 00,3067           40121                           CS       MPTEMP
002325: 00,3070           50000                           INDEX    A
002326: 00,3071           37642                           CAF      BIT14
002327: 00,3072           00006                           EXTEND
002328: 00,3073           70140                           MP       MPAC
002329: 00,3074           13006                           TCF      SMALL2
002330:
002331: 00,3075           00015        THIRTEEN           DEC      13         B-14
002332: 00,3076           00016        FOURTEEN           DEC      14         B-14
002333:


002335:                                                                                                  #           THE FOLLOWING ROUTINE SETS UP THE CALL TO THE DIVIDE ROUTINES.
002336:
002337: 00,3077           10140        UNITDV             CCS      MPAC                                  #  FORCE MPAC POSITIVE IF POSSIBLE, SETTING
002338: 00,3100           13116                           TCF      UMPAC+                                #  DVSIGN ACCORDING TO THE SIGN OF MPAC
002339: 00,3101           13103                           TCF      +2                                    #  SINCE THE DIVISOR IS ALWAYS POSITIVE
002340: 00,3102           13110                           TCF      UMPAC-                                #  HERE.
002341:
002342: 00,3103           10141                           CCS      MPAC       +1
002343: 00,3104           13116                           TCF      UMPAC+
002344: 00,3105           00002                           TC       Q                                     #  EXIT IMMEDIATELY ON ZERO.
002345: 00,3106           13110                           TCF      UMPAC-
002346: 00,3107           00002                           TC       Q
002347:
002348: 00,3110           47665        UMPAC-             CS       ZERO                                  #  IF NEGATIVE, SET -0 IN DVSIGN FOR FINAL
002349: 00,3111           54122                           TS       DVSIGN                                #  COMPLEMENT.
002350: 00,3112           00006                           EXTEND
002351: 00,3113           40141                           DCS      MPAC                                  #  PICK UP ABSOLUTE VALUE OF ARG AND JUMP.
002352: 00,3114           50121                           INDEX    MPTEMP
002353: 00,3115           12506                           TCF      MAXTEST    -1
002354:
002355: 00,3116           54122        UMPAC+             TS       DVSIGN                                #  SET DVSIGN FOR POSITIVE QUOTIENT.
002356: 00,3117           52141                           DXCH     MPAC
002357: 00,3120           50121                           INDEX    MPTEMP
002358: 00,3121           12506                           TCF      MAXTEST    -1
002359:


002361:                                                                                                  #           MISCELLANEOUS UNARY OPERATIONS.
002362:
002363: 00,3122           03227        DSQ                TC       DSQSUB                                #  SQUARE THE DP CONTENTS OF MPAC.
002364: 00,3123           16014                           TCF      DANZIG
002365:
002366: 00,3124           10147        ABVALABS           CCS      MODE                                  #  ABVAL OR ABS INSTRUCTION.
002367: 00,3125           13154                           TCF      ABS                                   #  DO ABS ON SCALAR.
002368: 00,3126           13154                           TCF      ABS
002369:
002370: 00,3127           03246        ABVAL              TC       VSQSUB                                #  DOT MPAC WITH ITSELF.
002371: 00,3130           22147                           LXCH     MODE                                  #  MODE IS NOW DP (L ZERO AFTER DAS).
002372:
002373: 00,3131           00006                           EXTEND                                         #  STORE SQUARE OF LENGTH IN WORK AREA.
002374: 00,3132           30141                           DCA      MPAC
002375: 00,3133           50104                           INDEX    FIXLOC
002376: 00,3134           52043                           DXCH     LVSQUARE
002377:
002378: 00,3135           03272        SQRT               TC       SQRTSUB                               #  TAKE THE SQUARE ROOT OF MPAC.
002379: 00,3136           10121                           CCS      MPTEMP                                #  RETURNED NORMALIZED SQUARE ROOT. SEE IF
002380: 00,3137           13141                           TCF      +2                                    #  ANY UN-NORMALIZATION REQUIRED AND EXIT
002381: 00,3140           16014                           TCF      DANZIG                                #  IF NOT.
002382:
002383: 00,3141           62273                           AD       NEG12                                 #  A RIGHT SHIFT OF MORE THAN 13 COULD BE
002384: 00,3142           00006                           EXTEND                                         #  REQUIRED IF INPUT WAS ZERO IN MPAC,+1.
002385: 00,3143           63147                           BZMF     SQRTSHFT                              #  GOES HERE IN MOST CASES.
002386: 00,3144           22007                           ZL                                             #  IF A LONG SHIFT IS REQUIRED, GO TO
002387: 00,3145           22102                           LXCH     ADDRWD                                #  GENERAL RIGHT SHIFT ROUTINES.
002388: 00,3146           12263                           TCF      GENSCR     +4                         #  ADDRWD WAS ZERO TO PREVENT ROUND.
002389:
002390: 00,3147           50121        SQRTSHFT           INDEX    MPTEMP                                #  SELECT SHIFTING BIT AND EXIT THROUGH
002391: 00,3150           37641                           CAF      BIT15                                 #  SHIFT ROUTINES.
002392: 00,3151           54121                           TS       MPTEMP
002393: 00,3152           37665                           CAF      ZERO                                  #  TO ZERO MPAC +2 IN THE PROCESS.
002394: 00,3153           12017                           TCF      MPACSHR    +3
002395:
002396: 00,3154           06711        ABS                TC       BRANCH                                #  TEST SIGN OF MPAC AND COMPLEMENT IF
002397: 00,3155           16014                           TCF      DANZIG
002398: 00,3156           16014                           TCF      DANZIG
002399: 00,3157           17616                           TCF      COMP
002400:


002402: 00,3160           47655        VDEF               CS       FOUR                                  #  VECTOR DEFINE - ESSENTIALLY TREATS
002403: 00,3161           26152                           ADS      PUSHLOC                               #  SCALAR IN MPAC AS X COMPONENT, PUSHES UP
002404: 00,3162           00006                           EXTEND                                         #  FOR Y AND THEN AGAIN FOR Z.
002405: 00,3163           50000                           INDEX    A
002406: 00,3164           30003                           DCA      2
002407: 00,3165           52144                           DXCH     MPAC       +3
002408: 00,3166           00006                           EXTEND
002409: 00,3167           50152                           INDEX    PUSHLOC
002410: 00,3170           30001                           DCA      0
002411: 00,3171           52146                           DXCH     MPAC       +5
002412: 00,3172           47657                           CS       ONE                                   #  MODE IS NOW VECTOR.
002413: 00,3173           16013                           TCF      NEWMODE
002414:
002415: 00,3174           03246        VSQ                TC       VSQSUB                                #  DOT MPAC WITH ITSELF.
002416: 00,3175           37665                           CAF      ZERO
002417: 00,3176           16013                           TCF      NEWMODE                               #  MODE IS NOW DP.
002418:
002419: 00,3177           00006        PUSH               EXTEND                                         #  PUSH DOWN MPAC LEAVING IT LOADED.
002420: 00,3200           30141                           DCA      MPAC
002421: 00,3201           50152                           INDEX    PUSHLOC                               #  PUSH DOWN FIRST TWO REGISTERS IN EACH
002422: 00,3202           52001                           DXCH     0
002423:
002424: 00,3203           50147                           INDEX    MODE                                  #  INCREMENT PUSHDOWN POINTER.
002425: 00,3204           36164                           CAF      NO.WDS
002426: 00,3205           26152                           ADS      PUSHLOC
002427:
002428: 00,3206           10147                           CCS      MODE
002429: 00,3207           13222                           TCF      TPUSH                                 #  PUSH DOWN MPAC +2.
002430: 00,3210           16014                           TCF      DANZIG                                #  DONE FOR DP.
002431:
002432: 00,3211           00006                           EXTEND                                         #  ON VECTOR, PUSH DOWN Y AND Z COMPONENTS.
002433: 00,3212           30144                           DCA      MPAC       +3
002434: 00,3213           50152                           INDEX    PUSHLOC
002435: 00,3214           51775                           DXCH     0          -4
002436: 00,3215           00006                           EXTEND
002437: 00,3216           30146                           DCA      MPAC       +5
002438: 00,3217           50152                           INDEX    PUSHLOC
002439: 00,3220           51777                           DXCH     0          -2
002440: 00,3221           16014                           TCF      DANZIG
002441:
002442: 00,3222           30142        TPUSH              CA       MPAC       +2
002443: 00,3223           16560                           TCF      ENDTPUSH   +2
002444:
002445: 00,3224           50104        RVQ                INDEX    FIXLOC                                #  RVQ - RETURN IVA QPRET.
002446: 00,3225           30052                           CA       QPRET
002447: 00,3226           16652                           TCF      GOTO       +1
002448:


002450:                                                                                                  #           THE FOLLOWING SUBROUTINES ARE USED IN SQUARING MPAC, IN BOTH THE SCALAR AND VECTOR SENSE. THEY ARE
002451:                                                                                                  #  SPECIAL CASES OF DMPSUB AND DOTSUB, PUT IN TO SAVE SOME TIME.
002452:
002453: 00,3227           30141        DSQSUB             CA       MPAC       +1                         #  SQUARES THE SCALAR CONTENTS OF MPAC.
002454: 00,3230           00006                           EXTEND
002455: 00,3231           70000                           SQUARE
002456: 00,3232           54142                           TS       MPAC       +2
002457: 00,3233           37665                           CAF      ZERO                                  #  FORM 2(CROSS TERM).
002458: 00,3234           56141                           XCH      MPAC       +1
002459: 00,3235           00006                           EXTEND
002460: 00,3236           70140                           MP       MPAC
002461: 00,3237           20001                           DDOUBL                                         #  AND MAYBE OVERFLOW.
002462: 00,3240           20142                           DAS      MPAC       +1                         #  AND SET A TO NET OVERFLOW.
002463: 00,3241           56140                           XCH      MPAC
002464: 00,3242           00006                           EXTEND
002465: 00,3243           70000                           SQUARE
002466: 00,3244           20141                           DAS      MPAC
002467: 00,3245           00002                           TC       Q
002468:
002469: 00,3246           00006        VSQSUB             EXTEND                                         #  DOTS THE VECTOR IN MPAC WITH ITSELF.
002470: 00,3247           22123                           QXCH     DOTRET
002471: 00,3250           03227                           TC       DSQSUB                                #  SQUARE THE X COMPONENT.
002472: 00,3251           52144                           DXCH     MPAC       +3
002473: 00,3252           52141                           DXCH     MPAC
002474: 00,3253           52115                           DXCH     BUF                                   #  SO WE CAN END IN DOTSUB.
002475: 00,3254           30142                           CA       MPAC       +2
002476: 00,3255           54116                           TS       BUF        +2
002477:
002478: 00,3256           03227                           TC       DSQSUB                                #  SQUARE Y COMPONENT.
002479: 00,3257           52142                           DXCH     MPAC       +1
002480: 00,3260           20116                           DAS      BUF        +1
002481: 00,3261           60140                           AD       MPAC
002482: 00,3262           60114                           AD       BUF
002483: 00,3263           54114                           TS       BUF
002484: 00,3264           13266                           TCF      +2
002485: 00,3265           54105                           TS       OVFIND                                #  IF OVERFLOW.
002486:
002487: 00,3266           52146                           DXCH     MPAC       +5
002488: 00,3267           52141                           DXCH     MPAC
002489: 00,3270           03227                           TC       DSQSUB                                #  SQUARE Z COMPONENT.
002490: 00,3271           17165                           TCF      ENDDOT                                #  END AS IN DOTSUB.
002491:


002493:                                                                                                  #           DOUBLE PRECISION SQUARE ROOT ROUTINE. TAKE THE SQUARE ROOT OF THE TRIPLE PRECISION (MPAC +2 USED ONLY
002494:                                                                                                  #  IN NORMALIZATION) CONTENTS OF MPAC AND LEAVE THE NORMALIZED RESULT IN MPAC (C(MPAC) GREATER THAN OR EQUAL TO
002495:                                                                                                  #  .5).  THE RIGHT SHIFT COUNT (TO UNNORMALIZE) IS LEFT IN MPTEMP.
002496:
002497:
002498:
002499: 00,3272           37665        SQRTSUB            CAF      ZERO                                  #  START BY ZEROING RIGHT SHIFT COUNT.
002500: 00,3273           54121                           TS       MPTEMP
002501:
002502: 00,3274           10140                           CCS      MPAC                                  #  CHECK FOR POSITIVE ARGUMENT, SHIFTING
002503: 00,3275           13333                           TCF      SMPAC+                                #  FIRST SIGNIFICANT MPAC REGISTER INTO
002504: 00,3276           13300                           TCF      +2                                    #  MPAC ITSELF.
002505: 00,3277           13322                           TCF      SQRTNEG                               #  SEE IF MAG OF ARGUMENT LESS THAN 10(-4).
002506:
002507: 00,3300           56142                           XCH      MPAC       +2                         #  MPAC IS ZERO - SHIFT LEFT 14.
002508: 00,3301           56141                           XCH      MPAC       +1
002509: 00,3302           54140                           TS       MPAC
002510: 00,3303           37663                           CAF      SEVEN                                 #  AUGMENT RIGHT SHIFT COUNTER.
002511: 00,3304           54121                           TS       MPTEMP
002512:
002513: 00,3305           10140                           CCS      MPAC                                  #  SEE IF MPAC NOW PNZ.
002514: 00,3306           13333                           TCF      SMPAC+
002515: 00,3307           13311                           TCF      +2
002516: 00,3310           13325                           TCF      ZEROANS                               #  NEGATIVE BUT LESS THAN 10(-4) IN MAG.
002517:
002518: 00,3311           56141                           XCH      MPAC       +1                         #  ZERO - SHIFT LEFT 14 AGAIN.
002519: 00,3312           54140                           TS       MPAC
002520: 00,3313           37663                           CAF      SEVEN                                 #  AUGMENT RIGHT SHIFT COUNTER.
002521: 00,3314           26121                           ADS      MPTEMP
002522:
002523: 00,3315           10140                           CCS      MPAC
002524: 00,3316           13333                           TCF      SMPAC+
002525: 00,3317           00002                           TC       Q                                     #  SQRT(0) = 0.
002526: 00,3320           13325                           TCF      ZEROANS
002527: 00,3321           00002                           TC       Q
002528:
002529:
002530:
002531: 00,3322           10000        SQRTNEG            CCS      A                                     #  ARGUMENT IS NEGATIVE, BUT SEE IF SIGN-
002532: 00,3323           13331                           TCF      SQRTABRT                              #  CORRECTED ARGUMENT IS LESS THAN 10(-4)
002533:
002534: 00,3324           10141                           CCS      MPAC       +1                         #  IN MAGNITUDE. IF SO, CALL ANSWER ZERO.
002535: 00,3325           37665        ZEROANS            CAF      ZERO                                  #  FORCE ANSWER TO ZERO HERE.
002536: 00,3326           13401                           TCF      FIXROOT
002537: 00,3327           13331                           TCF      SQRTABRT
002538: 00,3330           13401                           TCF      FIXROOT
002539:
002540: 00,3331           05446        SQRTABRT           TC       ABORT
002541: 00,3332           01302                           OCT      1302
002542:


002544: 00,3333           62410        SMPAC+             AD       -1/2+2                                #  SEE IF ARGUMENT GREATER THAN OR EQUAL TO
002545: 00,3334           00006                           EXTEND                                         #  .5.
002546: 00,3335           63404                           BZMF     SRTEST                                #  IF SO, SEE IF LESS THAN .25.
002547:
002548: 00,3336           52141                           DXCH     MPAC                                  #  WE WILL TAKE THE SQUARE ROOT OF MPAC/2.
002549: 00,3337           22021                           LXCH     SR                                    #  SHIFT RIGHT 1 AND GO TO THE SQRT ROUTINE
002550: 00,3340           00006                           EXTEND
002551: 00,3341           77642                           MP       HALF
002552: 00,3342           52141                           DXCH     MPAC
002553: 00,3343           56021                           XCH      SR
002554: 00,3344           26141                           ADS      MPAC       +1                         #  GUARANTEED NO OVERFLOW.
002555:
002556: 00,3345           32274        ARGHI              CAF      SLOPEHI                               #  ARGUMENT BETWEEN .25 AND .5. GET A
002557: 00,3346           00006                           EXTEND                                         #  LINEAR APPROXIMATION FOR THIS RANGE.
002558: 00,3347           70140                           MP       MPAC
002559: 00,3350           62510                           AD       BIASHI                                #  X0/2 = (MPAC/2)(SLOPEHI) + BIASHI/2.
002560:
002561: 00,3351           54114                 +4        TS       BUF                                   #  X0/2 (ARGLO ENTERS HERE).
002562: 00,3352           30140                           CA       MPAC                                  #  SINGLE-PRECISION THROUGHOUT.
002563: 00,3353           22007                           ZL
002564: 00,3354           00006                           EXTEND
002565: 00,3355           10114                           DV       BUF                                   #  (MPAC/2)/(X0/2)
002566: 00,3356           00006                           EXTEND
002567: 00,3357           77642                           MP       HALF
002568: 00,3360           26114                           ADS      BUF                                   #  X1 = X0/2 + .5(MPAC/2)/(X0/2).
002569:
002570: 00,3361           00006                           EXTEND
002571: 00,3362           77642                           MP       HALF                                  #  FORM UP X1/2.
002572: 00,3363           52141                           DXCH     MPAC                                  #  SAVE AND BRING OUT ARGUMENT.
002573: 00,3364           00006                           EXTEND                                         #  TAKE DP QUOTIENT WITH X1.
002574: 00,3365           10114                           DV       BUF
002575: 00,3366           54115                           TS       BUF        +1                         #  SAVE MAJOR PART OF QUOTIENT.
002576: 00,3367           37665                           CAF      ZERO                                  #  FORM MINOR PART OF QUOTIENT USING
002577: 00,3370           56001                           XCH      L                                     #  (REMAINDER,0).
002578: 00,3371           00006                           EXTEND
002579: 00,3372           10114                           DV       BUF
002580: 00,3373           54001                           TS       L                                     #  IN PREPARATION FOR DAS.
002581: 00,3374           30115                           CA       BUF        +1
002582: 00,3375           20141                           DAS      MPAC                                  #  X2 = X1/2 + (MPAC/2)X1
002583:
002584: 00,3376           00006                           EXTEND                                         #  OVERFLOWS IF ARG. NEAR POSMAX.
002585: 00,3377           13403                           BZF      TCQBNK00
002586: 00,3400           37637                           CAF      POSMAX
002587: 00,3401           54140        FIXROOT            TS       MPAC
002588: 00,3402           54141                           TS       MPAC       +1
002589: 00,3403           00002        TCQBNK00           TC       Q                                     #  RETURN TO CALLER TO UNNORMALIZE, ETC.
002590:


002592: 00,3404           67643        SRTEST             AD       QUARTER                               #  ARGUMENT WAS LESS THAN .5, SEE IF LESS
002593: 00,3405           00006                           EXTEND                                         #  THAN .25.
002594: 00,3406           63430                           BZMF     SQRTNORM                              #  IF SO, BEGIN NORMALIZATION.
002595:
002596: 00,3407           52141                           DXCH     MPAC                                  #  IF BETWEEN .5 AND .25, SHIFT RIGHT 1 AND
002597: 00,3410           22021                           LXCH     SR                                    #  START AT ARGLO.
002598: 00,3411           00006                           EXTEND
002599: 00,3412           77642                           MP       HALF
002600: 00,3413           52141                           DXCH     MPAC
002601: 00,3414           56021                           XCH      SR
002602: 00,3415           26141                           ADS      MPAC       +1                         #  NO OVERFLOW.
002603:
002604: 00,3416           32740        ARGLO              CAF      SLOPELO                               #  (NORMALIZED) ARGUMENT BETWEEN .125 AND
002605: 00,3417           00006                           EXTEND                                         #  .25
002606: 00,3420           70140                           MP       MPAC
002607: 00,3421           62250                           AD       BIASLO
002608: 00,3422           13351                           TCF      ARGHI      +4                         #  BEGIN SQUARE ROOT.
002609:
002610: 00,3423           00006        SQRTNM2            EXTEND                                         #  SHIFT LEFT 2 AND INCREMENT RIGHT SHIFT
002611: 00,3424           30142                           DCA      MPAC       +1                         #  COUNT (FOR TERMINAL UNNORMALIZATION).
002612: 00,3425           20142                           DAS      MPAC       +1
002613: 00,3426           60140                           AD       MPAC
002614: 00,3427           26140                           ADS      MPAC                                  #  (NO OVERFLOW).
002615:
002616: 00,3430           24121        SQRTNORM           INCR     MPTEMP                                #  FIRST TIME THROUGH, JUST SHIFT LEFT 1
002617: 00,3431           00006                           EXTEND                                         #  (PUTS IN EFFECTIVE RIGHT SHIFT SINCE
002618: 00,3432           30142                           DCA      MPAC       +1                         #  WE WANT MPAC/2).
002619: 00,3433           20142                           DAS      MPAC       +1
002620: 00,3434           60140                           AD       MPAC
002621: 00,3435           26140                           ADS      MPAC                                  #  (AGAIN NO OVERFLOW).
002622: 00,3436           60000                           DOUBLE
002623: 00,3437           54022                           TS       CYL
002624:
002625: 00,3440           10022        NORMTEST           CCS      CYL                                   #  SEE IF ARGUMENT NOW NORMALIZED AT
002626: 00,3441           10022                           CCS      CYL                                   #  GREATER THAN .125.
002627: 00,3442           13423                           TCF      SQRTNM2                               #  NO - SHIFT LEFT 2 MORE AND TRY AGAIN.
002628: 00,3443           13345                           TCF      ARGHI                                 #  YES - NOW BETWEEN .5 AND .25.
002629: 00,3444           13416                           TCF      ARGLO                                 #  ARGUMENT NOW BETWEEN .25 AND .125.
002630:


002632:                                                                                                  #  TRIGONOMETRIC FUNCTION PACKAGE.
002633:
002634:                                                                                                  #           THE FOLLOWING TRIGONOMETRIC FUNCTIONS ARE AVAILABLE AS INTERPRETIVE OPERATIONS:
002635:
002636:                                                                                                  #           1.      SIN            COMPUTES (1/2)SINE(2 PI MPAC).
002637:                                                                                                  #           2.      COS            COMPUTES (1/2)COSINE(2 PI MPAC).
002638:
002639:                                                                                                  #           3.      ASIN           COMPUTES (1/2PI)ARCSINE(2 MPAC).
002640:                                                                                                  #           4.      ACOS           COMPUTES (1/2PI)ARCCOSINE(2 MPAC).
002641:
002642:                                                                                                  #  SIN-ASIN AND COS-ACOS ARE MUTUALLY INVERSE, IE SIN(ASIN(X)) = X.
002643:
002644: 00,3445           06711        COSINE             TC       BRANCH                                #  FINDS COSINE USING THE IDENTITY
002645: 00,3446           13451                           TCF      +3                                    #  COS(X) = SIN(PI/2 - ABS(X)).
002646: 00,3447           13454                           TCF      PRESINE
002647: 00,3450           13454                           TCF      PRESINE
002648:
002649: 00,3451           00006                 +3        EXTEND
002650: 00,3452           40141                           DCS      MPAC
002651: 00,3453           52141                           DXCH     MPAC
002652:
002653: 00,3454           37643        PRESINE            CAF      QUARTER                               #  PI/2 SCALED.
002654: 00,3455           26140                           ADS      MPAC
002655:
002656:
002657:
002658: 00,3456           52141        SINE               DXCH     MPAC                                  #  DOUBLE ARGUMENT.
002659: 00,3457           20001                           DDOUBL
002660: 00,3460           54000                           OVSK                                           #  SEE IF OVERFLOW PRESENT.
002661: 00,3461           13464                           TCF      +3                                    #  IF NOT, ARGUMENT OK AS IS.
002662:
002663: 00,3462           00006                           EXTEND                                         #  IF SO, WE LOST (OR GAINED) PI, SO
002664: 00,3463           40001                           DCOM                                           #  COMPLEMENT MPAC USING THE IDENTITY
002665:                                                                                                  #  SIN(X-(+)PI) = SIN(-X).
002666: 00,3464           52141                 +3        DXCH     MPAC
002667: 00,3465           30140                           CA       MPAC                                  #  SEE IF ARGUMENT GREATER THAN .5 IN
002668: 00,3466           60000                           DOUBLE                                         #  MAGNITUDE. IF SO, REDUCE IT TO LESS THAN
002669: 00,3467           54001                           TS       L                                     #  .5 (+-PI/2 SCALED) AS FOLLOWS:
002670: 00,3470           13501                           TCF      SN1
002671:
002672: 00,3471           50000                           INDEX    A                                     #  IF POSITIVE, FORM PI - X, IF NEGATIVE
002673: 00,3472           37641                           CAF      NEG1/2     +1                         #  USE -PI - X.
002674: 00,3473           60000                           DOUBLE
002675: 00,3474           00006                           EXTEND
002676: 00,3475           60140                           SU       MPAC                                  #  GUARANTEED NO OVERFLOW.
002677: 00,3476           54140                           TS       MPAC
002678: 00,3477           40141                           CS       MPAC       +1
002679: 00,3500           54141                           TS       MPAC       +1
002680:


002682: 00,3501           00006        SN1                EXTEND                                         #  SET UP TO EVALUATE HASTINGS POLYNOMIAL
002683: 00,3502           30141                           DCA      MPAC
002684: 00,3503           52120                           DXCH     BUF2
002685: 00,3504           03227                           TC       DSQSUB                                #  SQUARE MPAC.
002686:
002687: 00,3505           07202                           TC       POLY                                  #  EVALUATE FOURTH ORDER POLYNOMIAL.
002688: 00,3506           00003                           DEC      3          B-14
002689: 00,3507           14441 37325                     2DEC     +.3926990796
002690:
002691: 00,3511           53250 60764                     2DEC     -.6459637111
002692:
002693: 00,3513           12146 21276                     2DEC     +.318758717
002694:
002695: 00,3515           75466 71471                     2DEC     -.074780249
002696:
002697: 00,3517           00236 32757                     2DEC     +.009694988
002698:
002699: 00,3521           32434                           CAF      LBUF2                                 #  MULTIPLY BY ARGUMENT AND SHIFT LEFT 2.
002700: 00,3522           07066                           TC       DMPSUB     -1
002701:
002702: 00,3523           00006                           EXTEND
002703: 00,3524           30142                           DCA      MPAC       +1
002704: 00,3525           20142                           DAS      MPAC       +1
002705: 00,3526           60140                           AD       MPAC
002706: 00,3527           26140                           ADS      MPAC                                  #  NEITHER SHIFT OVERFLOWS.
002707: 00,3530           00006                           EXTEND
002708: 00,3531           30142                           DCA      MPAC       +1
002709: 00,3532           20142                           DAS      MPAC       +1
002710: 00,3533           60140                           AD       MPAC
002711: 00,3534           26140                           ADS      MPAC
002712: 00,3535           16014                           TCF      DANZIG
002713:


002715:                                                                                                  #           ARCSIN/ARCCOS ROUTINE.
002716:
002717: 00,3536           33557        ARCSIN             CAF      LASINEX                               #  COMPUTE ARCSIN BY USING THE IDENTITY
002718: 00,3537           13541                           TCF      +2                                    #  ARCSIN(X) = PI/2 - ARCCOS(X).
002719:
002720: 00,3540           33641        ARCCOS             CAF      LDANZIG                               #  (EXITS IMMEDIATELY).
002721: 00,3541           54122                           TS       ESCAPE
002722: 00,3542           06711                           TC       BRANCH                                #  TEST SIGN OF INPUT.
002723: 00,3543           13553                           TCF      ACOSST                                #  START IMMEDIATELY IF POSITIVE.
002724: 00,3544           13655                           TCF      ACOSZERO                              #  ARCCOS(0) = PI/2 = .25.
002725: 00,3545           00006                           EXTEND                                         #  IF NEGATIVE, USE THE IDENTITY
002726: 00,3546           40141                           DCS      MPAC                                  #  ARCCOS(X) = PI - ARCCOS(-X), FORCING
002727: 00,3547           52141                           DXCH     MPAC                                  #  ARGUMENT POSITIVE.
002728: 00,3550           32247                           CAF      TCSUBTR                               #  SET EXIT TO DO ABOVE BEFORE
002729: 00,3551           56122                           XCH      ESCAPE                                #  ARCSIN/ARCCOS CONSIDERATIONS.
002730: 00,3552           54123                           TS       ESCAPE2
002731:
002732: 00,3553           47642        ACOSST             CS       HALF                                  #  TEST MAGNITUDE OF INPUT.
002733: 00,3554           60140                           AD       MPAC
002734: 00,3555           10000                           CCS      A
002735: 00,3556           13647                           TCF      ACOSOVF                               #  THIS IS PROBABLY AN OVERFLOW CASE.
002736:
002737: 00,3557           13635        LASINEX            TCF      ASINEX
002738:
002739: 00,3560           13570                           TCF      ACOSST2                               #  NO OVERFLOW - PROCEED.
002740:
002741: 00,3561           10141                           CCS      MPAC       +1                         #  IF MAJOR PART IS .5, CALL ANSWER 0
002742: 00,3562           37665                           CAF      ZERO                                  #  UNLESS MINOR PART NEGATIVE.
002743: 00,3563           13565                           TCF      ACOS=0
002744:
002745: 00,3564           13570                           TCF      ACOSST2
002746:
002747: 00,3565           54141        ACOS=0             TS       MPAC       +1
002748: 00,3566           54140                           TS       MPAC
002749: 00,3567           00122                           TC       ESCAPE
002750:
002751: 00,3570           00006        ACOSST2            EXTEND                                         #  NOW THAT ARGUMENT IS IN PROPER RANGE,
002752: 00,3571           40141                           DCS      MPAC                                  #  BEGIN COMPUTATION. USE HASTINGS
002753: 00,3572           67642                           AD       HALF                                  #  APPROXIMATION ARCCOS(X) = SQRT(1-X)P(X)
002754: 00,3573           52141                           DXCH     MPAC                                  #  IN A SCALED VERSION WHERE P(X) IS A
002755: 00,3574           52120                           DXCH     BUF2                                  #  SEVENTH ORDER POLYNOMIAL.
002756:
002757: 00,3575           03272                           TC       SQRTSUB                               #  RETURNS WITH NORMALIZED SQUARE ROOT.
002758:
002759: 00,3576           10121                           CCS      MPTEMP                                #  SEE IF UN-NORMALIZATION REQUIRED.
002760: 00,3577           13642                           TCF      ACOSSHR                               #  IF SO.
002761:


002763: 00,3600           52141        ACOS3              DXCH     MPAC                                  #  SET UP FOR POLYNOMIAL EVALUATION.
002764: 00,3601           52120                           DXCH     BUF2
002765: 00,3602           52141                           DXCH     MPAC
002766:
002767: 00,3603           07202                           TC       POLY
002768: 00,3604           00006                           DEC      6          B-14
002769: 00,3605           13240 23630                     2DEC     +.353553385                            #  COEFFICIENTS ARE C 2(+I)/PISQRT(2) WHERE
002770:
002771: 00,3607           74721 47775                     2DEC*    -.0483017006 B+1*                       #                  I
002772:
002773: 00,3611           02440 20237                     2DEC*    +.0200273085 B+2*                       #       WHERE C STANDS FOR ORIGINAL COEFFS.
002774:
002775: 00,3613           75067 70742                     2DEC*    -.0112931863 B+3*
002776:
002777: 00,3615           03436 26756                     2DEC*    +.00695311612 B+4*
002778:
002779: 00,3617           74037 57640                     2DEC*    -.00384617957 B+5*
002780:
002781: 00,3621           03046 07143                     2DEC*    +.001501297736 B+6*
002782:
002783: 00,3623           76654 42244                     2DEC*    -.000284160334 B+7*
002784:
002785: 00,3625           32434                           CAF      LBUF2                                 #  DO FINAL MULTIPLY AND GO TO ANY
002786: 00,3626           07066                           TC       DMPSUB     -1                         #  EPILOGUE SEQUENCES.
002787: 00,3627           00122                           TC       ESCAPE
002788:
002789: 00,3630           00006        SUBTR              EXTEND                                         #  EPILOGUE FOR NEGATIVE INPUTS TO ARCCOS.
002790: 00,3631           40141                           DCS      MPAC
002791: 00,3632           67642                           AD       HALF                                  #  FORMS PI - ARCCOS(-X) = ARCCOS(X).
002792: 00,3633           52141                           DXCH     MPAC
002793: 00,3634           00123                           TC       ESCAPE2                               #  GO TO POSSIBLE ARCSIN EPILOGUE.
002794:
002795: 00,3635           00006        ASINEX             EXTEND
002796: 00,3636           40141                           DCS      MPAC                                  #  ARCSIN EPILOGUE - GET ARCSIN(X)
002797: 00,3637           67643                           AD       QUARTER                               #  = PI/2 - ARCCOS(X).
002798: 00,3640           52141                           DXCH     MPAC
002799: 00,3641           16014        LDANZIG            TCF      DANZIG
002800:


002802: 00,3642           50000        ACOSSHR            INDEX    A                                     #  THE SHIFT RIGHT IS LESS THAN 14 SINCE
002803: 00,3643           37642                           CAF      BIT14                                 #  THE INPUT WAS NON-ZERO DP.
002804: 00,3644           54121                           TS       MPTEMP
002805: 00,3645           02054                           TC       VSHRRND                               #  DP SHIFT RIGHT AND ROUND.
002806: 00,3646           13600                           TCF      ACOS3                                 #  PROCEED.
002807:
002808: 00,3647           10000        ACOSOVF            CCS      A                                     #  IF MAJOR PART WAS ONLY 1 MORE THAN .5,
002809: 00,3650           13652                           TCF      +2                                    #  CALL ANSWER 0.
002810: 00,3651           13565                           TCF      ACOS=0
002811: 00,3652           13565                           TCF      ACOS=0
002812:
002813: 00,3653           05446        ACOSABRT           TC       ABORT
002814: 00,3654           01301                           OCT      1301
002815:
002816: 00,3655           37643        ACOSZERO           CAF      QUARTER                               #  ACOS(0) = PI/2.
002817: 00,3656           13566                           TCF      ACOS=0     +1                         #  SET MPAC AND EXIT VIA ESCAPE.
002818:
002819: 00,3657                        ENDINTS0           EQUALS
002820:


002822:                                                                                                  #           THE FOLLOWING INSTRUCTIONS ARE AVAILABLE FOR SETTING, MODIFYING, AND BRANCHING ON INDEX REGISTERS:
002823:                                                                                                  #           1.  AXT                ADDRESS TO INDEX TRUE.
002824:                                                                                                  #           1.  AXC                ADDRESS TO INDEX COMPLEMENTED.
002825:                                                                                                  #           3.  LXA                LOAD INDEX FROM ERASABLE.
002826:                                                                                                  #           4.  LXC                LOAD INDEX COMPLEMENTED FROM ERASABLE.
002827:                                                                                                  #           5.  SXA                STORE INDEX IN ERASABLE.
002828:                                                                                                  #           6.  XCHX               EXCHANGE INDEX REIGSTER WITH ERASABLE.
002829:
002830:                                                                                                  #           7.  INCR               INCREMENT INDEX REGISTER.
002831:                                                                                                  #           8.  XAD                ERASABLE ADD TO INDEX REGISTER.
002832:                                                                                                  #           9.  XSU                ERASABLE SUBTRACT FROM INDEX REGISTER.
002833:
002834:                                                                                                  #          10.  TIX                BRANCH ON INDEX REGISTER AND DECREMENT.
002835:
002836:
002837:
002838: 01,2000                                           SETLOC   12000                                 #  SUFFIX CLASS 01 IS IN BANK 1.
002839:
002840: 01,2000           02061        AXT                TC       TAGSUB                                #  SELECT APPROPRIATE INDEX REGISTER.
002841: 01,2001           30103                           CA       POLISH
002842: 01,2002           50114        XSTORE             INDEX    INDEXLOC                              #  CONTAINS C(FIXLOC) OR C(FIXLOC)+1.
002843: 01,2003           54046                           TS       X1
002844: 01,2004           16014                           TCF      DANZIG
002845:
002846: 01,2005           02061        AXC                TC       TAGSUB
002847: 01,2006           40103                           CS       POLISH
002848: 01,2007           02002                           TC       XSTORE
002849:
002850: 01,2010           02061        LXA                TC       TAGSUB                                #  LOAD INDEX FROM ERASABLE.
002851: 01,2011           50102                           INDEX    ADDRWD
002852: 01,2012           30000                           CA       0
002853: 01,2013           12002                           TCF      XSTORE
002854:
002855: 01,2014           02061        LXC                TC       TAGSUB                                #  LOAD INDEX FROM ERASABLE COMPLEMENTED.
002856: 01,2015           50102                           INDEX    ADDRWD
002857: 01,2016           40000                           CS       0
002858: 01,2017           12002                           TCF      XSTORE
002859:
002860: 01,2020           02061        SXA                TC       TAGSUB                                #  STORE INDEX IN ERASABLE.
002861: 01,2021           50114                           INDEX    INDEXLOC
002862: 01,2022           30046                           CA       X1
002863: 01,2023           16627                           TCF      STORE1                                # (STORE SINGLE PRECISION BEFORE EXIT).
002864:
002865: 01,2024           02061        XCHX               TC       TAGSUB                                #  EXCHANGE INDEX REGISTER WITH ERASABLE.
002866: 01,2025           50102                           INDEX    ADDRWD
002867: 01,2026           30000                           CA       0
002868: 01,2027           50114                           INDEX    INDEXLOC
002869: 01,2030           56046                           XCH      X1
002870: 01,2031           16627                           TCF      STORE1
002871:


002873: 01,2032           02061        XAD                TC       TAGSUB                                #  ERASABLE ADD TO INDEX.
002874: 01,2033           50102                           INDEX    ADDRWD
002875: 01,2034           30000                           CA       0
002876: 01,2035           50114        XAD2               INDEX    INDEXLOC
002877: 01,2036           26046                           ADS      X1                                    #  IGNORING OVERFLOWS.
002878: 01,2037           16014                           TCF      DANZIG
002879:
002880: 01,2040           02061        INCR               TC       TAGSUB                                #  INCREMENT INDEX REGISTER.
002881: 01,2041           30103                           CA       POLISH
002882: 01,2042           12035                           TCF      XAD2
002883:
002884: 01,2043           02061        XSU                TC       TAGSUB                                #  ERASABLE SUBTRACT FROM INDEX.
002885: 01,2044           50102                           INDEX    ADDRWD
002886: 01,2045           40000                           CS       0
002887: 01,2046           12035                           TCF      XAD2
002888:
002889:
002890:
002891: 01,2047           02061        TIX                TC       TAGSUB                                #  BRANCH AND DECREMENT ON INDEX.
002892: 01,2050           50114                           INDEX    INDEXLOC
002893: 01,2051           40050                           CS       S1
002894: 01,2052           50114                           INDEX    INDEXLOC
002895: 01,2053           60046                           AD       X1
002896: 01,2054           00006                           EXTEND                                         #  NO OPERATION IF DECREMENTED INDEX IS
002897: 01,2055           66014                           BZMF     DANZIG                                #  NEGATIVE OR ZERO.
002898:
002899: 01,2056           50114        DOTIXBR            INDEX    INDEXLOC
002900: 01,2057           56046                           XCH      X1                                    #  IGNORING OVERFLOWS.
002901:
002902: 01,2060           16651                           TCF      GOTO                                  #  DO THE BRANCH USING THE CADR IN POLISH.
002903:
002904:
002905:
002906:                                                                                                  #           SUBROUTINE WHICH SETS THE ADDRESS OF THE SPECIFIED INDEX IN INDEXLOC. (ACTUALLY, THE ADDRESS -38D.)
002907:
002908: 01,2061           30104        TAGSUB             CA       FIXLOC
002909: 01,2062           54114                           TS       INDEXLOC
002910:
002911: 01,2063           10020                           CCS      CYR                                   #  BIT 15 SPECIFIES INDEX.
002912: 01,2064           24114                           INCR     INDEXLOC                              #  0 MEANS USE X2.
002913: 01,2065           00002                           TC       Q
002914: 01,2066           00002                           TC       Q                                     #  1 FOR X1.
002915:


002917:                                                                                                  #           MISCELLANEOUS OPERATION CODES WITH DIRECT ADDRESSES. INCLUDED HERE ARE:
002918:
002919:                                                                                                  #           1.  ITA                STORE QPRET (RETURN ADDRESS) IN ERASABLE.
002920:                                                                                                  #           2.  CALL               CALL A SUBROUTINE, LEAVING RETURN IN QPRET.
002921:                                                                                                  #           3.  RTB                RETURN TO BASIC LANGUAGE AT THE GIVEN ADDRESS.
002922:                                                                                                  #           4.  BHIZ               BRANCH IF THE HIGH ORDER OF MPAC IS ZERO (SINGLE PRECISION).
002923:                                                                                                  #           5.  BOV                BRANCH ON OVERFLOW.
002924:                                                                                                  #           6.  GOTO               SIMPLE SEQUENCE CHANGE.
002925:
002926: 01,2067           10020        RTB/BHIZ           CCS      CYR
002927: 01,2070           30103        RTB                CA       POLISH
002928: 01,2071           14105                           TCF      BANKJUMP                              #  CALL BASIC ROUTINE.


002932:
002933: 01,2072           10140        BHIZ               CCS      MPAC


002935: 01,2073           16014                           TCF      DANZIG


002938: 01,2074           16651                           TCF      GOTO
002939: 01,2075           16014                           TCF      DANZIG
002940: 01,2076           16651                           TCF      GOTO
002941:
002942: 01,2077           10105        BOV(B)             CCS      OVFIND                                #  BRANCH ON OVERFLOW TO BASIC OR INTERP.
002943: 01,2100           12102                           TCF      +2
002944: 01,2101           16014                           TCF      DANZIG
002945: 01,2102           54105                           TS       OVFIND
002946: 01,2103           10020                           CCS      CYR
002947: 01,2104           12070                           TCF      RTB                                   #  IF BASIC.
002948: 01,2105           00360        B5TOBB             OCT      360
002949: 01,2106           16651                           TCF      GOTO
002950:


002952: 01,2107           10020        BZE/GOTO           CCS      CYR                                   #  SEE WHICH OP-CODE IS DESIRED.
002953: 01,2110           06711                           TC       BRANCH                                #  DO BZE.
002954: 01,2111           16014                           TCF      DANZIG
002955: 01,2112           16651                           TCF      GOTO                                  #  DO GOTO.
002956: 01,2113           16014                           TCF      DANZIG
002957:
002958: 01,2114           10020        BPL/BMN            CCS      CYR
002959: 01,2115           12123                           TCF      BPL
002960: 01,2116           12000        5B10               DEC      5          B+10                       #  SHIFTS OP CODE IN SWITCH INSTRUCTION ADR
002961:
002962: 01,2117           06711                           TC       BRANCH                                #  DO BMN.
002963: 01,2120           16014                           TCF      DANZIG
002964: 01,2121           16014                           TCF      DANZIG
002965: 01,2122           16651                           TCF      GOTO                                  #  ONLY IF NNZ.
002966:
002967: 01,2123           06711        BPL                TC       BRANCH
002968: 01,2124           16651                           TCF      GOTO                                  #  IF POSITIVE OR ZERO.
002969: 01,2125           16651                           TCF      GOTO
002970: 01,2126           16014                           TCF      DANZIG
002971:
002972: 01,2127           10020        CALL/ITA           CCS      CYR
002973: 01,2130           16644                           TCF      CALL
002974:
002975: 01,2131           05464                           TC       CCSHOLE
002976: 01,2132           50104                           INDEX    FIXLOC                                #  STORE QPRET.
002977: 01,2133           30052                           CA       QPRET
002978: 01,2134           16627                           TCF      STORE1
002979:


002981:                                                                                                  #           THE FOLLOWING OPERATIONS ARE AVAILABLE FOR ALTERING AND TESTING INTERPRETIVE SWITCHES:
002982:
002983:                                                                                                  #  00       BONSET                 SET A SWITCH AND DO A GOTO IF IT WAS ON.
002984:                                                                                                  #  01       SETGO                  SET A SWITCH AND DO A GOTO.
002985:                                                                                                  #  02       BOFSET                 SET A SWITCH AND DO A GOTO IF IT WAS OFF
002986:                                                                                                  #  03       SET                    SET A SWITCH.
002987:
002988:                                                                                                  #  04       BONINV                 INVERT A SWITCH AND BRANCH IF IT WAS ON.
002989:                                                                                                  #  05       INVGO                  INVERT A SWITCH AND DO A GOTO.
002990:                                                                                                  #  06       BOFINV                 INVERT A SWITCH AND BRANCH IF IT WAS OFF
002991:                                                                                                  #  07       INVERT                 INVERT A SWITCH.
002992:
002993:                                                                                                  #  10       BONCLR                 CLEAR A SWITCH AND BRANCH IF IT WAS ON.
002994:                                                                                                  #  11       CLRGO                  CLEAR A SWITCH AND DO A GOTO.
002995:                                                                                                  #  12       BOFCLR                 CLEAR A SWITCH AND BRANCH IF IT WAS OFF.
002996:                                                                                                  #  13       CLEAR                  CLEAR A SWITCH.
002997:
002998:                                                                                                  #  14       BON                    BRANCH IF A SWITCH WAS ON.
002999:                                                                                                  #  16       BOFF                   BRANCH IF A SWITCH WAS OFF.
003000:
003001:
003002:
003003:                                                                                                  #           THE ADDRESS SUPPLIED WITH THE SWITCH INSTRUCTION IS INTERPRETED AS FOLLOWS:
003004:
003005:                                                                                                  #           BITS 1-4    SWITCH BIT NUMBER (1-15).
003006:                                                                                                  #           BITS 5-8    SWITCH OPERATION NUMBER.
003007:                                                                                                  #           BITS 9-     SWITCH WORD NUMBER (UP TO 64 SWITCH WORDS).
003008:
003009:                                                                                                  #           THE ADDRESS ITSELF IS MADE UP BY THE YUL SYSTEM ASSEMBLER. THE BRANCH INSTRUCTIONS REQUIRE TWO
003010:                                                                                                  #  ADDRESSES, THE SECOND TAKEN AS THE DIRECT (OR INDIRECT IF IN ERASABLE) ADDRESS OF THE BRANCH.
003011:
003012:
003013:
003014: 01,2135           37673        SWITCHES           CAF      LOW4                                  #  LEAVE THE SWITCH BIT IN SWBIT  .
003015: 01,2136           70103                           MASK     POLISH
003016: 01,2137           50000                           INDEX    A
003017: 01,2140           37641                           CAF      BIT15                                 #  (NUMBER FROM LEFT TO RIGHT.)
003018: 01,2141           54115                           TS       SWBIT
003019:
003020: 01,2142           37651                           CAF      BIT7                                  #  LEAVE THE SWITCH NUMBER IN SWWORD.
003021: 01,2143           00006                           EXTEND
003022: 01,2144           70103                           MP       POLISH
003023: 01,2145           54114                           TS       SWWORD
003024:
003025: 01,2146           00004                           INHINT                                         #  DURING SWITCH CHANGE SO RUPT CAN USE TOO
003026: 01,2147           50000                           INDEX    A                                     #  LEAVE THE SWITCH WORD ITSELF IN L.
003027: 01,2150           30061                           CA       STATE
003028: 01,2151           54002                           TS       Q                                     #  Q WILL BE USED AS A CHANNEL.
003029:
003030:


003032: 01,2152           37645                           CAF      BIT11
003033: 01,2153           00006                           EXTEND                                         #  DISPATCH SWITCH BIT OPERATION AS IN BITS
003034: 01,2154           70103                           MP       POLISH                                #  7-8 OF POLISH.
003035: 01,2155           72215                           MASK     B3TOB4                                #  GETS 4X2-BIT CODE.
003036: 01,2156           50000                           INDEX    A
003037: 01,2157           12160                           TCF      +1
003038:
003039: 01,2160           30115                 +1        CA       SWBIT                                 #  00 - SET SWITCH IN QUESTION.
003040: 01,2161           00006                           EXTEND
003041: 01,2162           04002                           ROR      Q
003042: 01,2163           12172                           TCF      SWSTORE
003043:
003044: 01,2164           30115                 +5        CA       SWBIT                                 #  01 - INVERT SWITCH.
003045: 01,2165           00006                           EXTEND
003046: 01,2166           06002                           RXOR     Q
003047: 01,2167           12172                           TCF      SWSTORE
003048:
003049: 01,2170           40115                 +9D       CS       SWBIT                                 #  10 - CLEAR.
003050: 01,2171           70002                           MASK     Q
003051: 01,2172           50114        SWSTORE            INDEX    SWWORD
003052: 01,2173           54061                           TS       STATE                                 #  NEW SWITCH WORD.
003053:


003055: 01,2174           00003                 +13D      RELINT                                         #  11 - NOOP.
003056: 01,2175           37643                           CAF      BIT13
003057: 01,2176           00006                           EXTEND                                         #  DISPATCH SEQUCE CHANGING OR BRANCHING
003058: 01,2177           70103                           MP       POLISH                                #  CODE.
003059: 01,2200           72215                           MASK     B3TOB4
003060: 01,2201           50000                           INDEX    A
003061: 01,2202           12203                           TCF      +1                                    #  ORIGINALLY STORED IN BITS 5-6.
003062:
003063: 01,2203           40002                 +1        CS       Q                                     #  00 - BRANCH IF ON.
003064: 01,2204           70115        TEST               MASK     SWBIT
003065: 01,2205           10000                           CCS      A
003066: 01,2206           12216                           TCF      SWSKIP
003067:
003068: 01,2207           16703                 +5        TCF      SWBRANCH                              #  01 - GO TO.
003069:
003070: 01,2210           12216                           TCF      SWSKIP                                #  HERE ONLY ON BIT 15.
003071:
003072: 01,2211           05464                           TC       CCSHOLE
003073: 01,2212           05464                           TC       CCSHOLE
003074:
003075: 01,2213           30002                 +9D       CA       Q                                     #  10 - BRANCH IF OFF.
003076: 01,2214           12204                           TCF      TEST
003077:
003078: 01,2215           00014        B3TOB4             OCT      14
003079: 01,2216           24150        SWSKIP             INCR     LOC
003080:
003081: 01,2217  01,2135               SW/                EQUALS   SWITCHES
003082:
003083: 01,2217           16014                 +13D      TCF      DANZIG                                #  11 - NOOP.
003084: 01,2220                        ENDINTS1           EQUALS

End of include-file LIST_PROCESSING_INTERPRETER.agc.  Parent file is MAIN.agc


