
Source Code


000002:                                                                                                  ## Copyright:    Public domain.
000003:                                                                                                  ## Filename:     PHASE_TABLE_MAINTENANCE.agc
000004:                                                                                                  ## Purpose:      Part of the source code for Aurora (revision 12).
000005:                                                                                                  ## Assembler:    yaYUL
000006:                                                                                                  ## Contact:      Ron Burkey <info@sandroid.org>.
000007:                                                                                                  ## Website:      https://www.ibiblio.org/apollo.
000008:                                                                                                  ## Pages:        148-150
000009:                                                                                                  ## Mod history:  2016-09-20 JL   Created.
000010:                                                                                                  ##               2016-10-03 JL   Transcribed pages 148-150.
000011:                                                                                                  ##               2016-10-08 HG   change TS LXCH -> TS L
000012:                                                                                                  ##               2016-12-08 RSB  Proofed comments with octopus/ProoferComments
000013:                                                                                                  ##                               and fixed the errors found.
000014:
000015:                                                                                                  ## This source code has been transcribed or otherwise adapted from
000016:                                                                                                  ## digitized images of a hardcopy from the private collection of
000017:                                                                                                  ## Don Eyles.  The digitization was performed by archive.org.
000018:
000019:                                                                                                  ## Notations on the hardcopy document read, in part:
000020:
000021:                                                                                                  ##       473423A YUL SYSTEM FOR BLK2: REVISION 12 of PROGRAM AURORA BY DAP GROUP
000022:                                                                                                  ##       NOV 10, 1966
000023:
000024:                                                                                                  ##       [Note that this is the date the hardcopy was made, not the
000025:                                                                                                  ##       date of the program revision or the assembly.]
000026:
000027:                                                                                                  ## The scan images (with suitable reduction in storage size and consequent
000028:                                                                                                  ## reduction in image quality) are available online at
000029:                                                                                                  ##       https://www.ibiblio.org/apollo.
000030:                                                                                                  ## The original high-quality digital images are available at archive.org:
000031:                                                                                                  ##       https://archive.org/details/aurora00dapg
000032:


000034:                                                                                                  #        THE FOLLOWING ROUTINES ARE PROVIDED TO MAINTAIN THE PHASE TABLE. TWO ROUTINES ARE AVAILABLE:
000035:
000036:                                                                                                  #                TC      PHASCHNG        SLOWER BUT LESS STORAGE.
000037:                                                                                                  #                OCT     PPPGG           CHANGE RESTART GROUP GG TO PHASE PPP
000038:                                                                                                  #                                        (PPP IS A SIGNED 8 BIT NUMBER).
000039:
000040:                                                                                                  #                CA      PPPPP           NEW PHASE ARRIVES IN A.
000041:                                                                                                  #                TC      NEWPHASE
000042:                                                                                                  #                OCT     000GG           UPDATES GG.
000043:
000044:                                                                                                  #        IN ALL CASES THE OLD PHASE RETURNS IN A. IF THE OLD PHASE WAS NEGATIVE, CALL A ROUTINE USING THE
000045:                                                                                                  #  CORRESPONDING TERMCADR.
000046:
000047:    4614                                           SETLOC   ENDWAITF
000048:
000049:    4614           00004        PHASCHNG           INHINT
000050:    4615           50002                           INDEX    Q
000051:    4616           30000                           CAF      0                                     #  GET PARAMETER WORD.
000052:    4617           54077                           TS       RUPTREG4
000053:    4620           75224                           MASK     LOW5                                  #  GROUP NUMBER 0 - 37.
000054:    4621           60000                           DOUBLE
000055:    4622           56077                           XCH      RUPTREG4
000056:    4623           00006                           EXTEND
000057:    4624           77647                           MP       BIT9                                  #  SIGNED NEW PHASE.
000058:    4625           14634                           TCF      PHASCH2
000059:
000060:    4626           00004        NEWPHASE           INHINT                                         #  NEW PHASE ARRIVES IN A.
000061:    4627           54077                           TS       RUPTREG4
000062:    4630           50002                           INDEX    Q
000063:    4631           30000                           CAF      0                                     #  GROUP NUMBER.
000064:    4632           60000                           DOUBLE
000065:    4633           56077                           XCH      RUPTREG4
000066:
000067:    4634           54001        PHASCH2            TS       L                                     #  DIRECT VERSION.
000068:    4635           40000                           COM                                            #  COMPLEMENTED VERSION IMMEDIATELY PRE-
000069:    4636           50077                           INDEX    RUPTREG4                              #  CEDES THE DIRECT ONE.
000070:    4637           53072                           DXCH     -PHASE0                               #  COPIES DISAGREE FOR MINIMUM TIME.
000071:    4640           00006                           EXTEND
000072:    4641           64655                           BZMF     PHASEXIT                              #  IF NO DERAIL.
000073:


000075:    4642           54074                           TS       RUPTREG1                              #  IF NEGATIVE, SAVE ABSOLUTE VALUE OF
000076:    4643           00006                           EXTEND                                         #  OLD PHASE AND RETURN Q.
000077:    4644           22075                           QXCH     RUPTREG2
000078:    4645           30077                           CA       RUPTREG4                              #  GET BACK GROUP NUMBER.
000079:    4646           00006                           EXTEND
000080:    4647           77642                           MP       HALF
000081:    4650           50000                           INDEX    A                                     #  SELECT TERMCADR.
000082:    4651           34661                           CAF      TERMCADR
000083:    4652           04162                           TC       ISWCALL
000084:
000085:    4653           52075                           DXCH     RUPTREG1                              #  -OLD PHASE BITS TO A - RETURN -1 TO L.
000086:    4654           22002                           LXCH     Q
000087:
000088:    4655           40000        PHASEXIT           COM                                            #  RETURN OLD PHASE IN A.
000089:    4656           00003                           RELINT
000090:    4657           50002                           INDEX    Q
000091:    4660           00001                           TC       1
000092:
000093:    4661           00000        TERMCADR           CADR     10000                                 #  FILLED IN AS NEEDED.
000094:    4662           00000                           CADR     10000
000095:    4663           00000                           CADR     10000
000096:    4664           00000                           CADR     10000
000097:    4665           00000                           CADR     10000
000098:    4666           00000                           CADR     10000
000099:


000101:                                                                                                  #        SUBROUTINE TO UPDATE THE PROGRAM NUMBER DISPLAY ON THE DSKY.
000102:
000103:    4667           50002        NEWMODEX           INDEX    Q                                     #  UPDATE MODREG.
000104:    4670           30000                           CAF      0
000105:    4671           24002                           INCR     Q
000106:    4672           56276                           XCH      MODREG
000107:    4673           40000                           COM                                            #  IF NO CHANGE IN MODE, RETURN IMMEDIATELY
000108:    4674           60276                           AD       MODREG
000109:    4675           00006                           EXTEND
000110:    4676           14712                           BZF      TCQ
000111:
000112:    4677           34701                           CAF      +2                                    #  CALL PINBALL SUBROUTINE.
000113:    4700           14067                           TCF      SWCALL                                #  WITH Q SET TO CALLERS RETURN.
000114:
000115:    4701           12001                           CADR     DSPMM
000116:
000117:                                                                                                  #        RETURN TO CALLER +3 IF MODE = THAT AT CALLER +1. OTHERWISE RETURN TO CALLER +2.
000118:
000119:    4702           50002        CHECKMM            INDEX    Q
000120:    4703           40000                           CS       0
000121:    4704           60276                           AD       MODREG
000122:    4705           00006                           EXTEND
000123:    4706           14711                           BZF      +3
000124:
000125:    4707           50002                           INDEX    Q
000126:    4710           00001                           TC       1                                     #  NO MATCH.
000127:
000128:    4711           50002                           INDEX    Q
000129:    4712           00002        TCQ                TC       2                                     #  (ALWAYS AVAILABLE TO BZF & BZMF)
000130:
000131:    4713                        ENDPHMNF           EQUALS

End of include-file PHASE_TABLE_MAINTENANCE.agc.  Parent file is MAIN.agc


