
Source Code


000002:                                                                                                  #  Copyright:    Public domain.
000003:                                                                                                  #  Filename:     PHASE_TABLE_MAINTENANCE.agc
000004:                                                                                                  #  Purpose:      Part of the source code for Aurora (revision 12).
000005:                                                                                                  #  Assembler:    yaYUL
000006:                                                                                                  #  Contact:      Ron Burkey <info@sandroid.org>.
000007:                                                                                                  #  Website:      https://www.ibiblio.org/apollo.
000008:                                                                                                  #  Pages:        148-150
000009:                                                                                                  #  Mod history:  2016-09-20 JL   Created.
000010:                                                                                                  #                2016-10-03 JL   Transcribed pages 148-150.
000011:                                                                                                  #                2016-10-08 HG   change TS LXCH -> TS L
000012:
000013:                                                                                                  #  This source code has been transcribed or otherwise adapted from
000014:                                                                                                  #  digitized images of a hardcopy from the private collection of
000015:                                                                                                  #  Don Eyles.  The digitization was performed by archive.org.
000016:
000017:                                                                                                  #  Notations on the hardcopy document read, in part:
000018:
000019:                                                                                                  #        473423A YUL SYSTEM FOR BLK2: REVISION 12 of PROGRAM AURORA BY DAP GROUP
000020:                                                                                                  #        NOV 10, 1966
000021:
000022:                                                                                                  #        [Note that this is the date the hardcopy was made, not the
000023:                                                                                                  #        date of the program revision or the assembly.]
000024:
000025:                                                                                                  #  The scan images (with suitable reduction in storage size and consequent
000026:                                                                                                  #  reduction in image quality) are available online at
000027:                                                                                                  #        https://www.ibiblio.org/apollo.
000028:                                                                                                  #  The original high-quality digital images are available at archive.org:
000029:                                                                                                  #        https://archive.org/details/aurora00dapg
000030:


000032:                                                                                                  #        THE FOLLOWING ROUTINES ARE PROVIDED TO MAINTAIN THE PHASE TABLE. TWO ROUTINES ARE AVILABLE:
000033:
000034:                                                                                                  #                TC      PHASCHNG        SLOWER BUT LESS STORAGE.
000035:                                                                                                  #                OCT     PPPGG           CHANGE RESTART GROUP GG TO PHASE PPP
000036:                                                                                                  #                                        (PPP IS A SIGNED 8 BIT NUMBER).
000037:
000038:                                                                                                  #                CA      PPPPP           NEW PHASE ARRIVES IN A.
000039:                                                                                                  #                TC      NEWPHASE
000040:                                                                                                  #                OCT     000GG           UPDATES GG.
000041:
000042:                                                                                                  #        IN ALL CASES THE OLD PHASE RETURNS IN A. IF THE OLD PHASE WAS NEGATIVE, CALL A ROUTINE USING THE
000043:                                                                                                  #  CORRESPONDING TERMCADR.
000044:
000045:    4614                                           SETLOC   ENDWAITF
000046:
000047:    4614           00004        PHASCHNG           INHINT
000048:    4615           50002                           INDEX    Q
000049:    4616           30000                           CAF      0                                     #  GET PARAMETER WORD.
000050:    4617           54077                           TS       RUPTREG4
000051:    4620           75224                           MASK     LOW5                                  #  GROUP NUMBER 0 - 37.
000052:    4621           60000                           DOUBLE
000053:    4622           56077                           XCH      RUPTREG4
000054:    4623           00006                           EXTEND
000055:    4624           77647                           MP       BIT9                                  #  SIGNED NEW PHASE.
000056:    4625           14634                           TCF      PHASCH2
000057:
000058:    4626           00004        NEWPHASE           INHINT                                         #  NEW PHASE ARRIVES IN A.
000059:    4627           54077                           TS       RUPTREG4
000060:    4630           50002                           INDEX    Q
000061:    4631           30000                           CAF      0                                     #  GROUP NUMBER.
000062:    4632           60000                           DOUBLE
000063:    4633           56077                           XCH      RUPTREG4
000064:
000065:    4634           54001        PHASCH2            TS       L                                     #  DIRECT VERSION.
000066:    4635           40000                           COM                                            #  COMPLEMENTED VERSION IMMEDIATELY PRE-
000067:    4636           50077                           INDEX    RUPTREG4                              #  CEDES THE DIRECT ONE.
000068:    4637           53072                           DXCH     -PHASE0                               #  COPIES DISAGREE FOR MINIMUM TIME.
000069:    4640           00006                           EXTEND
000070:    4641           64655                           BZMF     PHASEXIT                              #  IF NO DERAIL.
000071:


000073:    4642           54074                           TS       RUPTREG1                              #  IF NEGATIVE, SAVE ABSOLUTE VALUE OF
000074:    4643           00006                           EXTEND                                         #  OLD PHASE AND RETURN Q.
000075:    4644           22075                           QXCH     RUPTREG2
000076:    4645           30077                           CA       RUPTREG4                              #  GET BACK GROUP NUMBER.
000077:    4646           00006                           EXTEND
000078:    4647           77642                           MP       HALF
000079:    4650           50000                           INDEX    A                                     #  SELECT TERMCADR.
000080:    4651           34661                           CAF      TERMCADR
000081:    4652           04162                           TC       ISWCALL
000082:
000083:    4653           52075                           DXCH     RUPTREG1                              #  -OLD PHASE BITS TO A - RETURN -1 TO L.
000084:    4654           22002                           LXCH     Q
000085:
000086:    4655           40000        PHASEXIT           COM                                            #  RETURN OLD PHASE IN A.
000087:    4656           00003                           RELINT
000088:    4657           50002                           INDEX    Q
000089:    4660           00001                           TC       1
000090:
000091:    4661           00000        TERMCADR           CADR     10000                                 #  FILLED IN AS NEEDED.
000092:    4662           00000                           CADR     10000
000093:    4663           00000                           CADR     10000
000094:    4664           00000                           CADR     10000
000095:    4665           00000                           CADR     10000
000096:    4666           00000                           CADR     10000
000097:


000099:                                                                                                  #        SUBROUTINE TO UPDATE THE PROGRAM NUMBER DISPLAY ON THE DSKY.
000100:
000101:    4667           50002        NEWMODEX           INDEX    Q                                     #  UPDATE MODREG.
000102:    4670           30000                           CAF      0
000103:    4671           24002                           INCR     Q
000104:    4672           56276                           XCH      MODREG
000105:    4673           40000                           COM                                            #  IF NO CHANGE IN MODE, RETURN IMMEDIATELY
000106:    4674           60276                           AD       MODREG
000107:    4675           00006                           EXTEND
000108:    4676           14712                           BZF      TCQ
000109:
000110:    4677           34701                           CAF      +2                                    #  CALL PINBALL SUBROUTINE.
000111:    4700           14067                           TCF      SWCALL                                #  WITH Q SET TO CALLERS RETURN.
000112:
000113:    4701           12001                           CADR     DSPMM
000114:
000115:                                                                                                  #        RETURN TO CALLER +3 IF MODE = THAT AT CALLER +1. OTHERWISE RETURN TO CALLER +2.
000116:
000117:    4702           50002        CHECKMM            INDEX    Q
000118:    4703           40000                           CS       0
000119:    4704           60276                           AD       MODREG
000120:    4705           00006                           EXTEND
000121:    4706           14711                           BZF      +3
000122:
000123:    4707           50002                           INDEX    Q
000124:    4710           00001                           TC       1                                     #  NO MATCH.
000125:
000126:    4711           50002                           INDEX    Q
000127:    4712           00002        TCQ                TC       2                                     #  (ALWAYS AVAILABLE TO BZF & BZMF)
000128:
000129:    4713                        ENDPHMNF           EQUALS

End of include-file PHASE_TABLE_MAINTENANCE.agc.  Parent file is MAIN.agc


