
Source Code


000002:                                                                                                  ## Copyright:    Public domain.
000003:                                                                                                  ## Filename:     PINBALL_GAME__BUTTONS_AND_LIGHTS.agc
000004:                                                                                                  ## Purpose:      Part of the source code for Aurora (revision 12).
000005:                                                                                                  ## Assembler:    yaYUL
000006:                                                                                                  ## Contact:      Hartmuth Gutsche Burkey <info@sandroid.org>.
000007:                                                                                                  ## Website:      https://www.ibiblio.org/apollo.
000008:                                                                                                  ## Pages:        289-355
000009:                                                                                                  ## Mod history:  2016-09-20 JL   Created.
000010:                                                                                                  ##               2016-10-19 HG   Transcribed
000011:                                                                                                  ##               2016-12-08 RSB  Proofed comments with octopus/ProoferComments
000012:                                                                                                  ##                               and fixed the errors found.
000013:                                                                                                  ##              2017-01-28 RSB  WTIH -> WITH.
000014:
000015:                                                                                                  ## This source code has been transcribed or otherwise adapted from
000016:                                                                                                  ## digitized images of a hardcopy from the private collection of
000017:                                                                                                  ## Don Eyles.  The digitization was performed by archive.org.
000018:
000019:                                                                                                  ## Notations on the hardcopy document read, in part:
000020:
000021:                                                                                                  ##       473423A YUL SYSTEM FOR BLK2: REVISION 12 of PROGRAM AURORA BY DAP GROUP
000022:                                                                                                  ##       NOV 10, 1966
000023:
000024:                                                                                                  ##       [Note that this is the date the hardcopy was made, not the
000025:                                                                                                  ##       date of the program revision or the assembly.]
000026:
000027:                                                                                                  ## The scan images (with suitable reduction in storage size and consequent
000028:                                                                                                  ## reduction in image quality) are available online at
000029:                                                                                                  ##       https://www.ibiblio.org/apollo.
000030:                                                                                                  ## The original high-quality digital images are available at archive.org:
000031:                                                                                                  ##       https://archive.org/details/aurora00dapg
000032:


000034:                                                                                                  #  KEYBOARD AND DISPLAY PROGRAM
000035:
000036:
000037:
000038:                                                                                                  #  THE FOLLOWING QUOTATION IS PROVIDED THROUGH THE COUTESY OF THE AUTHORS.
000039:
000040:                                                                                                  #        ::IT WILL BE PROVED TO THY FACE THAT THOU HAST MEN ABOUT THEE THAT
000041:                                                                                                  #  USUALLY TALK OF A NOUN AND A VERB, AND SUCH ABOMINABLE WORDS AS NO
000042:                                                                                                  #  CHRISTIAN EAR CAN ENDURE TO HEAR.::
000043:
000044:                                                                                                  #                       HENRY 6, ACT 2, SCENE 4


000047:
000048:
000049:
000050:                                                                                                  #  THE FOLLOWING ASSIGNMENTS FOR PINBALL ARE MADE ELSEWHERE
000051:
000052:
000053:
000054:                                                                                                  #  RESERVED FOR PINBALL EXECUTIVE ACTION
000055:
000056:                                                                                                  #  DSPCOUNT      ERASE                   DISPLAY POSITION INDICATOR
000057:                                                                                                  #  DECBRNCH      ERASE                   +DEC, -DEC, OCT INDICATOR
000058:                                                                                                  #  VERBREG       ERASE                   VERB CODE
000059:                                                                                                  #  NOUNREG       ERASE                   NOUN CODE
000060:                                                                                                  #  XREG          ERASE                   R1 INPUT BUFFER
000061:                                                                                                  #  YREG          ERASE                   R2 INPUT BUFFER
000062:                                                                                                  #  ZREG          ERASE                   R3 INPUT BUFFER
000063:                                                                                                  #  XREGLP        ERASE                   LO PART OF XREG (FOR DEC CONV ONLY)
000064:                                                                                                  #  YREGLP        ERASE                   LO PART OF YREG (FOR DEC CONV ONLY)
000065:                                                                                                  #  ZREGLP        ERASE                   LO PART OF ZREG (FOR DEC CONV ONLY)
000066:                                                                                                  #  MODREG        ERASE                   MODE CODE
000067:                                                                                                  #  DSPLOCK       ERASE                   KEYBOARD/SUBROUTINE CALL INTERLOCK
000068:                                                                                                  #  REQRET        ERASE                   RETURN REGISTER FOR LOAD
000069:                                                                                                  #  LOADSTAT      ERASE                   STATUS INDICATOR FOR LOADTST
000070:                                                                                                  #  CLPASS        ERASE                   PASS INDICATOR CLEAR
000071:                                                                                                  #  NOUT          ERASE                   ACTIVITY COUNTER FOR DSPTAB
000072:                                                                                                  #  NOUNCADR      ERASE                   MACHINE CADR FOR NOUN
000073:                                                                                                  #  MONSAVE       ERASE                   N/V CODE FOR MONITOR. (= MONSAVE1-1)
000074:                                                                                                  #  MONSAVE1      ERASE                   NOUNCADR FOR MONITOR(MATBS) =MONSAVE +1
000075:                                                                                                  #  DSPTAB        ERASE           +13D    0-10,DISPLAY PANEL BUFFER.11-13,C RELAYS
000076:                                                                                                  #  CADRSTOR      ERASE                   ENDIDLE STORAGE
000077:                                                                                                  #  GRABLOCK      ERASE                   INTERNAL INTERLOCK FOR DISPLAY SYSTEM
000078:                                                                                                  #  NVQTEM        ERASE                   NVSUB STORAGE FOR CALLING ADDRESS
000079:                                                                                                  #                                        MUST = NVBNKTEM-1
000080:                                                                                                  #  NVBNKTEM      ERASE                   NVSUB STORAGE FOR CALLING BANK
000081:                                                                                                  #                                        MUST = NVQTEM+1
000082:                                                                                                  #  DSPLIST       ERASE           +2      WAITING LIST FOR DSP SYST INTERNAL USE
000083:                                                                                                  #  EXTVBACT      REASE                   EXTENDED VERB ACTIVITY INTERLOCK
000084:                                                                                                  #  DSPTEM1       ERASE           +2      BUFFER STORAGE AREA 1 (MOSTLY FOR TIME)
000085:                                                                                                  #  DSPTEM2       ERASE           +2      BUFFER STORAGE AREA 2 (MOSTLY FOR DEG)
000086:
000087:


000089:                                                                                                  #  END OF ERASABLES RESERVED FOR PINBALL EXECUTIVE ACTION
000090:
000091:
000092:
000093:                                                                                                  #  TEMPORARIES FOR PINBALL EXECUTIVE ACTION
000094:
000095:                                                                                                  #  DSEXIT   =      INTB15+         RETURN FOR DSPIN
000096:                                                                                                  #  EXITEM   =      INTB15+         RETURN FOR SCALE FACTOR ROUTINE SELECT
000097:                                                                                                  #  BLANKRET =      INTB15+         RETURN FOR 2BLANK
000098:
000099:                                                                                                  #  WRDRET   =      INTBIT15        RETURN FOR 5BLANK
000100:                                                                                                  #  WDRET    =      INTBIT15        RETURN FOR DSPWD
000101:                                                                                                  #  DECRET   =      INTBIT15        RETURN FOR PUTCOM(DEC LOAD)
000102:                                                                                                  #  21/22REG =      INTBIT15        TEMP FOR CHARIN
000103:
000104:                                                                                                  #  UPDATRET =      POLISH          RETURN FOR UPDATNN, UPDATVB
000105:                                                                                                  #  CHAR     =      POLISH          TEMP FOR CHARIN
000106:                                                                                                  #  ERCNT    =      POLISH          COUNTER FOR ERROR LIGHT RESET
000107:                                                                                                  #  DECOUNT  =      POLISH          COUNTER FOR SCALING AND DISPLAY (DEC)
000108:
000109:                                                                                                  #  SGNON    =      VBUF            TEMP FOR +,- ON
000110:                                                                                                  #  NOUNTEM  =      VBUF            COUNTER FOR MIXNOUN FETCH
000111:                                                                                                  #  DISTEM   =      VBUF            COUNTER FOR OCTAL DISPLAY VERBS
000112:                                                                                                  #  DECTEM   =      VBUF            COUNTER FOR FETCH (DEC DISPLAY VERBS)
000113:
000114:                                                                                                  #  SGNOFF   =       VBUF   +1      TEMP FOR +,- ON
000115:                                                                                                  #  NVTEMP   =       VBUF   +1      TEMP FOR NVSUB
000116:                                                                                                  #  SFTEMP1  =       VBUF   +1      STORAGE FOR SF CONST HI PART (=SFTEMP2-1)
000117:
000118:                                                                                                  #  CODE     =       VBUF   +2      FOR DSPIN
000119:                                                                                                  #  SFTEMP2  =       VBUF   +2      STORAGE FOR SF CONST LO PART (=SFTEMP1+1)
000120:
000121:                                                                                                  #  MIXTEMP  =       VBUF   +3      FOR MIXNOUN DATA
000122:                                                                                                  #  SIGNRET  =       VBUF   +3      RETURN FOR +,- ON
000123:
000124:                                                                                                  #  ALSO MIXTEMP+1 = VBUF+4, MIXTEMP+2 = VBUF+5.
000125:
000126:                                                                                                  #  ENTRET   =       DOTINC          EXIT FROM ENTER
000127:
000128:                                                                                                  #  WDCNT    =       DOTRET          CHAR COUNTER FOR DSPWD
000129:                                                                                                  #  INREL    =       DOTRET          INPUT BUFFER SELECTOR ( X, Y, Z, REG )
000130:
000131:                                                                                                  #  DSPMMTEM =       MATINC          DSPCOUNT SAVE FOR DSPMM
000132:                                                                                                  #  MIXBR    =       MATINC          INDICATOR FOR MIXED OR NORMAL NOUN
000133:
000134:                                                                                                  #  TEM1     ERASE                   EXEC TEMP
000135:                                                                                                  #  DSREL    =       TEM1            REL ADDRESS FOR DSPIN
000136:
000137:                                                                                                  #  TEM2     ERASE                   EXEC TEMP
000138:                                                                                                  #  DSMAG    =       TEM2            MAGNITUDE STORE FOR DSPIN
000139:


000141:                                                                                                  #  IDADDTEM =       TEM2            MIXNOUN INDIRECT ADDRESS STORAGE
000142:
000143:                                                                                                  #  TEM3     ERASE                   EXEC TEMP
000144:                                                                                                  #  COUNT    =       TEM3            FOR DSPIN
000145:
000146:                                                                                                  #  TEM4     ERASE                   EXEC TEMP
000147:                                                                                                  #  LSTPTR   =       TEM4            LIST POINTER FOR GRABUSY
000148:                                                                                                  #  RELRET   =       TEM4            RETURN FOR RELDSP
000149:                                                                                                  #  FREERET  =       TEM4            RETURN FOR FREEDSP
000150:
000151:                                                                                                  #  TEM5     ERASE                   EXEC TEMP
000152:                                                                                                  #  NOUNADD  =       TEM5            TEMP STORAGE FOR NOUN ADDRESS
000153:
000154:                                                                                                  #  NNADTEM  ERASE                   TEMP FOR NOUN ADDRESS TABLE ENTRY
000155:                                                                                                  #  NNTYPTEM ERASE                   TEMP FOR NOUN TYPE TABLE ENTRY
000156:                                                                                                  #  IDAD1TEM ERASE                   TEMP FOR INDIR ADRESS TABLE ENTRY(MIXNN)
000157:                                                                                                  #                                   MUST = IDAD2TEM-1, = IDAD3TEM-2.
000158:                                                                                                  #  IDAD2TEM ERASE                   TEMP FOR INDIR ADRESS TABLE ENTRY(MIXNN)
000159:                                                                                                  #                                   MUST = IDAD1TEM+1, = IDAD3TEM-1.
000160:                                                                                                  #  IDAD3TEM ERASE                   TEMP FOR INDIR ADRESS TABLE ENTRY(MIXNN)
000161:                                                                                                  #                                   MUST = IDAD1TEM+2,  = IDAD2TEM+1.
000162:                                                                                                  #  RUTMXTEM ERASE                   TEMP FOR SF ROUT TABLE ENTRY(MIXNN ONLY)
000163:                                                                                                  #  END OF TEMPORARIES FOR PINBALL EXECUTIVE ACTION
000164:
000165:
000166:
000167:                                                                                                  #  RESERVED FOR PINBALL INTERRUPT ACTION
000168:
000169:                                                                                                  #  DSPCNT   ERASE                   COUNTER FOR DSPOUT
000170:                                                                                                  #  UPLOCK   ERASE                   BIT1 = UPLINK INTERLOCK (ACTIVATED BY
000171:                                                                                                  #                                                                            RECEPTION OF A BAD MESSAGE IN UPLINK)
000172:                                                                                                  #  END OF ERASABLES RESERVED FOR PINBALL INTERRUPT ACTION
000173:
000174:
000175:
000176:                                                                                                  #  TEMPORARIES FOR PINBALL INTERRUPT ACTION
000177:
000178:                                                                                                  #  KEYTEMP1 =       WAITEXIT        TEMP FOR KEYRUPT, UPRUPT
000179:                                                                                                  #  DSRUPTEM =       WAITEXIT        TEMP FOR DSPOUT
000180:                                                                                                  #  KEYTEMP2 =       RUPTAGN         TEMP FOR KEYRUPT, UPRUPT
000181:                                                                                                  #  END OF TEMPORARIES FOR PINBALL INTERRUPT ACTION
000182:
000183:


000185:                                                                                                  #  THE INPUT CODES ASSUMED FOR THE KEYBOARD ARE,
000186:                                                                                                  #  0        10000
000187:                                                                                                  #  1        00001
000188:                                                                                                  #  9        01001
000189:                                                                                                  #  VERB     10001
000190:                                                                                                  #  ERROR RES10010
000191:                                                                                                  #  KEY RLSE 11001
000192:                                                                                                  #  +        11010
000193:                                                                                                  #  -        11011
000194:                                                                                                  #  ENTER    11100
000195:                                                                                                  #  CLEAR    11110
000196:                                                                                                  #  NOUN     11111
000197:
000198:
000199:
000200:                                                                                                  #  OUTPUT FORMAT FOR DISPLAY PANEL. SET OUT0 TO AAAABCCCCCDDDDD.
000201:                                                                                                  #  A-S SELECT A RELAYWORD. THIS DETERMINES WHICH PAIR OF CHARACTERS ARE
000202:                                                                                                  #  ENERGIZED.
000203:                                                                                                  #  B FOR SPECIAL RELAYS SUCH AS SIGNS ETC.
000204:                                                                                                  #  C-S  5 BIT RELAY CODE FOR LEFT CHAR OF PAIR SELECTED BY RELAYWORD
000205:                                                                                                  #  D-S  5 BIT RELAY CODE FOR RIGHT CHAR OF PAIR SELECTED BY RELAYWORD.
000206:
000207:                                                                                                  #  THE PANEL APPEARS AS FOLLOWS,
000208:                                                                                                  #  MD1    MD2                         (MAJOR MODE)
000209:                                                                                                  #  VD1    VD2 (VERB)    ND1    ND2    (NOUN)
000210:                                                                                                  #  R1D1   R1D2   R1D3   R1D4   R1D5   (R1)
000211:                                                                                                  #  R2D1   R2D2   R2D3   R2D4   R2D5   (R2)
000212:                                                                                                  #  R3D1   R3D2   R3D3   R3D4   R3D5   (R3)
000213:
000214:                                                                                                  #  EACH OF THESE IS GIVEN A DSPCOUNT NUMBER FOR USE WITHIN COMPUTATION ONLY
000215:                                                                                                  #  MD1   25     R2D1  11         ALL ARE OCTAL
000216:                                                                                                  #  MD2   24     R2D2  10
000217:                                                                                                  #  VD1   23     R2D3   7
000218:                                                                                                  #  VD2   22     R2D4   6
000219:                                                                                                  #  ND1   21     R2D5   5
000220:                                                                                                  #  ND2   20     R3D1   4
000221:                                                                                                  #  R1D1  16     R3D2   3
000222:                                                                                                  #  R1D2  15     R3D3   2
000223:                                                                                                  #  R1D3  14     R3D4   1
000224:                                                                                                  #  R1D4  13     R3D5   0
000225:                                                                                                  #  R1D5  12
000226:
000227:
000228:
000229:                                                                                                  #  THERE IS AN 11 REGISTER TABLE (DSPTAB) FOR THE DISPLAY PANEL.
000230:
000231:                                                                                                  #  DSPTAB RELAYWD       BIT11     BITS 10-6     BITS 5-1
000232:                                                                                                  #  RELADD
000233:                                                                                                  #  10     1011                    MD1 (25)      MD2 (24)
000234:                                                                                                  #  9      1010                    VD1 (23)      VD2 (22)
000235:


000237:                                                                                                  #  8      1001                    ND1 (21)      ND2 (20)
000238:                                                                                                  #  7      1000                                  R1D1 (16)
000239:                                                                                                  #  6      0111          +R1       R1D2 (15)     R1D3 (14)
000240:                                                                                                  #  5      0110          -R1       R1D4 (13)     R1D5 (12)
000241:                                                                                                  #  4      0101          +R2       R2D1 (11)     R2D2 (10)
000242:                                                                                                  #  3      0100          -R2       R2D3 (7)      R2D4 (6)
000243:                                                                                                  #  2      0011                    R2D5 (5)      R3D1 (4)
000244:                                                                                                  #  1      0010          +R3       R3D2 (3)      R3D3 (2)
000245:                                                                                                  #  0      0001          -R3       R3D4 (1)      R3D5 (0)
000246:                                                                                                  #         0000   NO RELAYWORD
000247:
000248:
000249:
000250:                                                                                                  #  THE 5 BIT RELAY CODES ARE,
000251:                                                                                                  #  BLANK      00000
000252:                                                                                                  #  0          10101
000253:                                                                                                  #  1          00011
000254:                                                                                                  #  2          11001
000255:                                                                                                  #  3          11011
000256:                                                                                                  #  4          01111
000257:                                                                                                  #  5          11110
000258:                                                                                                  #  6          11100
000259:                                                                                                  #  7          10011
000260:                                                                                                  #  8          11101
000261:                                                                                                  #  9          11111
000262:
000263:


000265:                                                                                                  #  START OF EXECUTIVE SECTION OF PINBALL
000266:
000267:
000268:
000269: 04,2000                                           SETLOC   20000
000270:
000271: 04,2000           03454        GRABUSYB           TC       GRABUSY1                              #  STANDARD LEAD INS. DONT MOVE.
000272: 04,2001           03476        NVSUBSYB           TC       NVSUBSY1
000273:
000274: 04,2002           37657        CHARIN             CAF      ONE                                   #  BLOCK DISPLAY SYST
000275: 04,2003           56277                           XCH      DSPLOCK                               #  MAKE DSP SYST BUSY, BUT SAVE OLD
000276: 04,2004           54101                           TS       21/22REG                              #  C(DSPLOCK) FOR ERROR LIGHT RESET.
000277: 04,2005           56140                           XCH      MPAC
000278: 04,2006           54103                           TS       CHAR
000279: 04,2007           50000                           INDEX    A
000280: 04,2010           02011                           TC       +1                                    #  INPUT CODE     FUNCTION
000281: 04,2011           03275                           TC       CHARALRM                              #  0
000282: 04,2012           02062                           TC       NUM                                   #  1
000283: 04,2013           02062                           TC       NUM                                   #  2
000284: 04,2014           02062                           TC       NUM                                   #  3
000285: 04,2015           02062                           TC       NUM                                   #  4
000286: 04,2016           02062                           TC       NUM                                   #  5
000287: 04,2017           02062                           TC       NUM                                   #  6
000288: 04,2020           02062                           TC       NUM                                   #  7
000289: 04,2021           02053                           TC       89TEST                                #  10                 8
000290: 04,2022           02053                           TC       89TEST                                #  11                 9
000291: 04,2023           03275                           TC       CHARALRM                              #  12
000292: 04,2024           03275                           TC       CHARALRM                              #  13
000293: 04,2025           03275                           TC       CHARALRM                              #  14
000294: 04,2026           03275                           TC       CHARALRM                              #  15
000295: 04,2027           03275                           TC       CHARALRM                              #  16
000296: 04,2030           03275                           TC       CHARALRM                              #  17
000297: 04,2031           02060                           TC       NUM        -2                         #  20                 0
000298: 04,2032           02235                           TC       VERB                                  #  21                 VERB
000299: 04,2033           02343                           TC       ERROR                                 #  22                 ERROR LIGHT RESET
000300: 04,2034           03275                           TC       CHARALRM                              #  23
000301: 04,2035           03275                           TC       CHARALRM                              #  24
000302: 04,2036           03275                           TC       CHARALRM                              #  25
000303: 04,2037           03275                           TC       CHARALRM                              #  26
000304: 04,2040           03275                           TC       CHARALRM                              #  27
000305: 04,2041           03275                           TC       CHARALRM                              #  30
000306: 04,2042           03320                           TC       VBRELDSP                              #  31                 KEY RELEASE
000307: 04,2043           02267                           TC       POSGN                                 #  32                 +
000308: 04,2044           02254                           TC       NEGSGN                                #  33                 -
000309: 04,2045           02051                           TC       ENTERJMP                              #  34                 ENTER
000310: 04,2046           03275                           TC       CHARALRM                              #  35
000311: 04,2047           02431                           TC       CLEAR                                 #  36                 CLEAR
000312: 04,2050           02250                           TC       NOUN                                  #  37                 NOUN
000313:


000315: 04,2051           04102        ENTERJMP           TC       POSTJUMP
000316: 04,2052           12003                           CADR     ENTER
000317:
000318: 04,2053           36165        89TEST             CAF      THREE
000319: 04,2054           70265                           MASK     DECBRNCH
000320: 04,2055           10000                           CCS      A
000321: 04,2056           02062                           TC       NUM                                   #  IF DECBRNCH IS +, 8 OR 9 OK
000322: 04,2057           03275                           TC       CHARALRM                              #  IF DECBRNCH IS +0, REJECT 8 OR 9
000323:
000324:
000325:
000326:                                                                                                  #  NUM ASSEMBLES OCTAL 3 BITS AT A TIME. FOR DECIMAL IT CONVERTS INCOMING
000327:                                                                                                  #  WORD AS A FRACTION, KEEPING RESULTS TO DP.
000328:                                                                                                  #  OCTAL RESULTS ARE LEFT IN XREG, YREG, OR ZREG. HI PART OF DEC IN XREG,
000329:                                                                                                  #  YREG, ZREG. THE LOW PARTS IN XREGLP, YREGLP, OR ZREGLP)
000330:                                                                                                  #  DECBRNCH IS LEFT AT +0 FOR OCT, +1 FOR + DEC, +2 FOR - DEC.
000331:                                                                                                  #  IF DSPCOUNT WAS LEFT -, NO MORE DATA IS ACCEPTED.
000332:
000333: 04,2060           37665                           CAF      ZERO
000334: 04,2061           54103                           TS       CHAR
000335: 04,2062           10264        NUM                CCS      DSPCOUNT
000336: 04,2063           02067                           TC       +4                                    #  +
000337: 04,2064           02067                           TC       +3                                    #  +0
000338: 04,2065           02066                           TC       +1                                    #  -BLOCK DATA IN IF DSPCOUNT IS -
000339: 04,2066           04440                           TC       ENDOFJOB                              #  -0
000340: 04,2067           02205                           TC       GETINREL
000341: 04,2070           10302                           CCS      CLPASS                                #  IF CLPASS IS + OR +0, MAKE IT +0.
000342: 04,2071           37665                           CAF      ZERO
000343: 04,2072           54302                           TS       CLPASS
000344: 04,2073           02074                           TC       +1
000345: 04,2074           50103                           INDEX    CHAR
000346: 04,2075           34741                           CAF      RELTAB
000347: 04,2076           75224                           MASK     LOW5
000348: 04,2077           54110                           TS       CODE
000349: 04,2100           30264                           CA       DSPCOUNT
000350: 04,2101           54127                           TS       COUNT
000351: 04,2102           03201                           TC       DSPIN
000352: 04,2103           36165                           CAF      THREE
000353: 04,2104           70265                           MASK     DECBRNCH
000354: 04,2105           10000                           CCS      A                                     #  +0, OCTAL.  +1, + DEC.  +2, - DEC.
000355: 04,2106           02117                           TC       DECTOBIN                              #  +
000356: 04,2107           50123                           INDEX    INREL                                 #  +0 OCTAL
000357: 04,2110           56266                           XCH      VERBREG
000358: 04,2111           54022                           TS       CYL
000359: 04,2112           40022                           CS       CYL
000360: 04,2113           40022                           CS       CYL
000361: 04,2114           56022                           XCH      CYL
000362: 04,2115           60103                           AD       CHAR
000363: 04,2116           02134                           TC       ENDNMTST
000364: 04,2117           50123        DECTOBIN           INDEX    INREL
000365:
000366:


000368: 04,2120           56266                           XCH      VERBREG
000369: 04,2121           54140                           TS       MPAC                                  #  SUM X 2EXP-14 IN MPAC
000370: 04,2122           37665                           CAF      ZERO
000371: 04,2123           54141                           TS       MPAC       +1
000372: 04,2124           37661                           CAF      TEN                                   #  10 X 2EXP-14
000373: 04,2125           07266                           TC       SHORTMP                               #  10SUM X 2EXP-28 IN MPAC, MPAC+1
000374: 04,2126           56141                           XCH      MPAC       +1
000375: 04,2127           60103                           AD       CHAR
000376: 04,2130           54141                           TS       MPAC       +1
000377: 04,2131           02134                           TC       ENDNMTST                              #  NO OF
000378: 04,2132           26140                           ADS      MPAC                                  #  OF MUST BE 5TH CHAR
000379: 04,2133           02152                           TC       DECEND
000380: 04,2134           50123        ENDNMTST           INDEX    INREL
000381: 04,2135           54266                           TS       VERBREG
000382: 04,2136           40264                           CS       DSPCOUNT
000383: 04,2137           50123                           INDEX    INREL
000384: 04,2140           62176                           AD       CRITCON
000385: 04,2141           00006                           EXTEND
000386: 04,2142           12144                           BZF      ENDNUM                                #  -0, DSPCOUNT = CRITCON
000387: 04,2143           02173                           TC       MORNUM                                #  - , DSPCOUNT G/ CRITCON
000388: 04,2144           36165        ENDNUM             CAF      THREE
000389: 04,2145           70265                           MASK     DECBRNCH
000390: 04,2146           10000                           CCS      A
000391: 04,2147           02152                           TC       DECEND
000392: 04,2150           40264        ENDALL             CS       DSPCOUNT                              #  BLOCK NUMIN BY PLACING DSPCOUNT
000393: 04,2151           02174                           TC       MORNUM     +1                         #  NEGATIVELY
000394: 04,2152           07063        DECEND             TC       DMP                                   #  MULT SUM X 2EXP-28 IN MPAC, MPAC+1 BY
000395: 04,2153           02203                           ADRES    DECON                                 #  2EXP14/10EXP5. GIVES(SUM/10EXP5)X2EXP-14
000396: 04,2154           36165                           CAF      THREE                                 #  IN MPAC, +1, +2.
000397: 04,2155           70265                           MASK     DECBRNCH
000398: 04,2156           50000                           INDEX    A
000399: 04,2157           02157                           TC       +0
000400: 04,2160           02164                           TC       +DECSGN
000401: 04,2161           00006                           EXTEND                                         #  - CASE
000402: 04,2162           40142                           DCS      MPAC       +1
000403: 04,2163           52142                           DXCH     MPAC       +1
000404: 04,2164           56142        +DECSGN            XCH      MPAC       +2
000405: 04,2165           50123                           INDEX    INREL
000406: 04,2166           54271                           TS       XREGLP     -2
000407: 04,2167           56141                           XCH      MPAC       +1
000408: 04,2170           50123                           INDEX    INREL
000409: 04,2171           54266                           TS       VERBREG
000410: 04,2172           02150                           TC       ENDALL
000411: 04,2173           10264        MORNUM             CCS      DSPCOUNT                              #  DECREMENT DSPCOUNT
000412: 04,2174           54264                           TS       DSPCOUNT
000413: 04,2175           04440                           TC       ENDOFJOB
000414:
000415: 04,2176           00022        CRITCON            OCT      22                                    #  (DEC 18)
000416: 04,2177           00020                           OCT      20                                    #  (DEC 16)
000417: 04,2200           00012                           OCT      12                                    #  (DEC 10)
000418:


000420: 04,2201           00005                           OCT      5
000421: 04,2202           00000                           OCT      0
000422:
000423: 04,2203           05174 13261  DECON              2DEC     E-5        B14                        #  2EXP14/10EXP5 = .16384 DEC
000424:
000425:
000426:                                                                                                  #  GETINREL GETS PROPER DATA REG REL ADDRESS FOR CURRENT C(DSPCOUNT) AND
000427:                                                                                                  #  PUTS IN INTO INREL. +0 VERBREG, 1 NOUNREG, 2 XREG, 3 YREG, 4 ZREG.
000428:
000429: 04,2205           50264        GETINREL           INDEX    DSPCOUNT
000430: 04,2206           32211                           CAF      INRELTAB
000431: 04,2207           54123                           TS       INREL                                 #  (A TEMP. REG)
000432: 04,2210           00002                           TC       Q
000433:
000434: 04,2211           00004        INRELTAB           OCT      4                                     #  R3D5 (DSPCOUNT = 0)
000435: 04,2212           00004                           OCT      4                                     #  R3D4           =(1)
000436: 04,2213           00004                           OCT      4                                     #  R3D3           =(2)
000437: 04,2214           00004                           OCT      4                                     #  R3D2           =(3)
000438: 04,2215           00004                           OCT      4                                     #  R3D1           =(4)
000439: 04,2216           00003                           OCT      3                                     #  R2D5           =(5)
000440: 04,2217           00003                           OCT      3                                     #  R2D4           =(6)
000441: 04,2220           00003                           OCT      3                                     #  R2D3           =(7)
000442: 04,2221           00003                           OCT      3                                     #  R2D2           =(8D)
000443: 04,2222           00003                           OCT      3                                     #  R2D1           =(9D)
000444: 04,2223           00002                           OCT      2                                     #  R1D5           =(10D)
000445: 04,2224           00002                           OCT      2                                     #  R1D4           =(11D)
000446: 04,2225           00002                           OCT      2                                     #  R1D3           =(12D)
000447: 04,2226           00002                           OCT      2                                     #  R1D2           =(13D)
000448: 04,2227           00002                           OCT      2                                     #  R1D1           =(14D)
000449: 04,2230           05464                           TC       CCSHOLE                               #  NO DSPCOUNT NUMBER = 15D
000450: 04,2231           00001                           OCT      1                                     #  ND2            =(16D)
000451: 04,2232           00001                           OCT      1                                     #  ND1            =(17D)
000452: 04,2233           00000                           OCT      0                                     #  VD2            =(18D)
000453: 04,2234           00000                           OCT      0                                     #  VD1            =(19D)
000454:
000455: 04,2235           37665        VERB               CAF      ZERO
000456: 04,2236           54266                           TS       VERBREG
000457: 04,2237           35237                           CAF      VD1
000458: 04,2240           54264        NVCOM              TS       DSPCOUNT
000459: 04,2241           02541                           TC       2BLANK
000460: 04,2242           37665                           CAF      ZERO
000461: 04,2243           54265                           TS       DECBRNCH
000462: 04,2244           54300                           TS       REQRET                                #  SET FOR ENTPAS0
000463: 04,2245           35150                           CAF      ENDINST                               #  IF DSPALARM OCCURS BEFORE FIRST ENTPAS0
000464: 04,2246           54122                           TS       ENTRET                                #  OR NVSUB, ENTRET MUST ALREADY BE SET
000465:                                                                                                  #  TO TC ENDOFJOB
000466: 04,2247           04440                           TC       ENDOFJOB
000467:


000469: 04,2250           37665        NOUN               CAF      ZERO
000470: 04,2251           54267                           TS       NOUNREG
000471: 04,2252           35240                           CAF      ND1                                   #  ND1, OCT 21 (DEC 17)
000472: 04,2253           02240                           TC       NVCOM
000473:
000474:
000475:
000476: 04,2254           02326        NEGSGN             TC       SIGNTEST
000477: 04,2255           02313                           TC       -ON
000478: 04,2256           37656                           CAF      TWO
000479: 04,2257           50123        BOTHSGN            INDEX    INREL                                 #  SET DEC COMP BIT TO 1 (IN DECBRNCH)
000480: 04,2260           67651                           AD       BIT7                                  #  BIT 5 FOR R1.  BIT 4 FOR R2.
000481: 04,2261           26265                           ADS      DECBRNCH                              #  BIT 3 FOR R3.
000482: 04,2262           10302        FIXCLPAS           CCS      CLPASS                                #  IF CLPASS IS + OR +0, MAKE IT +0.
000483: 04,2263           37665                           CAF      ZERO
000484: 04,2264           54302                           TS       CLPASS
000485: 04,2265           02266                           TC       +1
000486: 04,2266           04440                           TC       ENDOFJOB
000487:
000488: 04,2267           02326        POSGN              TC       SIGNTEST
000489: 04,2270           02273                           TC       +ON
000490: 04,2271           37657                           CAF      ONE
000491: 04,2272           02257                           TC       BOTHSGN
000492:
000493: 04,2273           22002        +ON                LXCH     Q
000494: 04,2274           02205                           TC       GETINREL
000495: 04,2275           50123                           INDEX    INREL
000496: 04,2276           32321                           CAF      SGNTAB     -2
000497: 04,2277           54107                           TS       SGNOFF
000498: 04,2300           67657                           AD       ONE
000499: 04,2301           54106                           TS       SGNON
000500: 04,2302           37665        SGNCOM             CAF      ZERO
000501: 04,2303           54110                           TS       CODE
000502: 04,2304           56107                           XCH      SGNOFF
000503: 04,2305           03263                           TC       11DSPIN
000504: 04,2306           37645                           CAF      BIT11
000505: 04,2307           54110                           TS       CODE
000506: 04,2310           56106                           XCH      SGNON
000507: 04,2311           03263                           TC       11DSPIN
000508: 04,2312           00001                           TC       L
000509: 04,2313           22002        -ON                LXCH     Q
000510: 04,2314           02205                           TC       GETINREL
000511: 04,2315           50123                           INDEX    INREL
000512: 04,2316           32321                           CAF      SGNTAB     -2
000513: 04,2317           54106                           TS       SGNON
000514: 04,2320           67657                           AD       ONE
000515: 04,2321           54107                           TS       SGNOFF
000516: 04,2322           02302                           TC       SGNCOM
000517:
000518: 04,2323           00005        SGNTAB             OCT      5                                     #  -R1
000519:


000521: 04,2324           00003                           OCT      3                                     #  -R2
000522: 04,2325           00000                           OCT      0                                     #  -R3
000523:
000524:
000525:
000526: 04,2326           22002        SIGNTEST           LXCH     Q                                     #  ALLOWS +,- ONLY WHEN DSPCOUNT=R1D1,
000527: 04,2327           45175                           CS       R1D1                                  #  R2D1, OR R3D1.
000528: 04,2330           02336                           TC       SGNTST1
000529: 04,2331           45176                           CS       R2D1
000530: 04,2332           02336                           TC       SGNTST1
000531: 04,2333           45177                           CS       R3D1
000532: 04,2334           02336                           TC       SGNTST1
000533: 04,2335           04440                           TC       ENDOFJOB                              #  NO MATCH FOUND. SIGN ILLEGAL
000534: 04,2336           60264        SGNTST1            AD       DSPCOUNT
000535: 04,2337           00006                           EXTEND
000536: 04,2340           12342                           BZF      +2                                    #  MATCH FOUND
000537: 04,2341           00002                           TC       Q
000538: 04,2342           00001                           TC       L                                     #  SIGN LEGAL
000539:
000540:
000541:
000542:                                                                                                  #  ERROR LIGHT RESET (RSET) TURNS OFF,
000543:                                                                                                  #  UPLINK ACTIVITY, AUTO, HOLD, FREE, NO ATT, OPERATOR ERROR,
000544:                                                                                                  #  PROG ALM, TRACKER FAIL.
000545:                                                                                                  #  LEAVES GIMBAL LOCK ALONE.
000546:                                                                                                  #  IT ALSO ZEROES THE :TEST ALARM: OUT BIT, WHICH TURNS OFF STBY,RESTART.
000547:                                                                                                  #  IT ALSO SETS :CAUTION RESET: TO 1.
000548:                                                                                                  #  IT ALSO FORCES BIT 12 OF ALL DSPTAB ENTRIES TO 1.
000549:
000550: 04,2343           56101        ERROR              XCH      21/22REG                              #  RESTORE ORIGINAL C(DSPLOCK). THUS ERROR
000551: 04,2344           54277                           TS       DSPLOCK                               #  LIGHT RESET LEAVES DSPLOCK UNCHANGED.
000552: 04,2345           00004                           INHINT
000553: 04,2346           37646                           CAF      BIT10                                 #  TURN ON :CAUTION RESET: OUTBIT
000554: 04,2347           00006                           EXTEND
000555: 04,2350           05011                           WOR      DSALMOUT                              #  BIT10 CHAN 11
000556: 04,2351           37652                           CAF      BIT6                                  #  LEAVE GIMBAL LOCK LAMP INTACT,
000557: 04,2352           70322                           MASK     DSPTAB     +11D                       #  TURNING OFF, AUTO, HOLD, FREE, NO ATT.,
000558: 04,2353           67641                           AD       BIT15                                 #  PROG ALARM, AND TRACKER.
000559: 04,2354           54322                           TS       DSPTAB     +11D
000560: 04,2355           44515                           CS       PRIO16                                #  RESET FAIL BITS WHICH GENERATE PROG
000561: 04,2356           70370                           MASK     IMODES33                              #  ALARM SO THAT IF THE FAILURE STILL
000562: 04,2357           64515                           AD       PRIO16                                #  EXISTS, THE ALARM WILL COME BACK.
000563: 04,2360           54370                           TS       IMODES33
000564: 04,2361           47646                           CS       BIT10
000565: 04,2362           70367                           MASK     IMODES30
000566: 04,2363           67646                           AD       BIT10
000567: 04,2364           54367                           TS       IMODES30
000568:
000569: 04,2365           42427                           CS       RFAILS
000570: 04,2366           70413                           MASK     RADMODES
000571:
000572:


000574: 04,2367           67651                           AD       BIT7
000575: 04,2370           54413                           TS       RADMODES
000576:
000577: 04,2371           47646                           CS       BIT10                                 #  TURN OFF :TEST ALARM: OUTBIT.
000578: 04,2372           00006                           EXTEND
000579: 04,2373           03013                           WAND     CHAN13
000580: 04,2374           42426                           CS       ERCON                                 #  TURN OFF UPLINK ACTIVITY,
000581: 04,2375           00006                           EXTEND                                         #  OPERATOR ERROR.
000582: 04,2376           03011                           WAND     DSALMOUT
000583: 04,2377           35242        TSTAB              CAF      BINCON                                #  (DEC 10)
000584: 04,2400           54103                           TS       ERCNT                                 #  ERCNT = COUNT
000585: 04,2401           00004                           INHINT
000586: 04,2402           50103                           INDEX    ERCNT
000587: 04,2403           10307                           CCS      DSPTAB
000588: 04,2404           67657                           AD       ONE
000589: 04,2405           02412                           TC       ERPLUS
000590: 04,2406           67657                           AD       ONE
000591: 04,2407           40000        ERMINUS            CS       A
000592: 04,2410           72430                           MASK     NOTBIT12
000593: 04,2411           02415                           TC       ERCOM
000594: 04,2412           40000        ERPLUS             CS       A
000595: 04,2413           72430                           MASK     NOTBIT12
000596: 04,2414           40000                           CS       A                                     #  MIGHT WANT TO RESET CLPASS, DECBRNCH,
000597: 04,2415           50103        ERCOM              INDEX    ERCNT                                 #  ETC.
000598: 04,2416           54307                           TS       DSPTAB
000599: 04,2417           00003                           RELINT
000600: 04,2420           10103                           CCS      ERCNT
000601: 04,2421           02400                           TC       TSTAB      +1
000602: 04,2422           37665                           CAF      ZERO
000603: 04,2423           55363                           TS       FAILREG
000604: 04,2424           55364                           TS       SFAIL
000605: 04,2425           04440                           TC       ENDOFJOB
000606:
000607: 04,2426           00104        ERCON              OCT      104                                   #  CHAN 11 BITS 3,7.
000608:                                                                                                  #  UPLINK ACTIVITY, AND OPERATOR ERROR.
000609: 04,2427           00330        RFAILS             OCT      330                                   #  RADAR CDU AND DATA FAIL FLAGS.
000610: 04,2430           73777        NOTBIT12           OCT      73777
000611:
000612:
000613:
000614:                                                                                                  #  CLEAR BLANKS WHICH R1, R2, R3 IS CURRENT OR LAST TO BE DISPLAYED(PERTINE
000615:                                                                                                  #  NT XREG,YREG,ZREG IS CLEARED). SUCCESSIVE CLEARS TAKE CARE OF EACH RX
000616:                                                                                                  #  L/ RC UNTIL R1 IS DONE. THEN NO FURTHER ACTION
000617:
000618:                                                                                                  #  THE SINGLE COMPONENT LOAD VERBS ALLOW ONLY THE SINGLE RC THAT IS
000619:                                                                                                  #  APPROPRIATE TO BE CLEARED.
000620:
000621:                                                                                                  #  CLPASS      +0 PASS0, CAN BE BACKED UP
000622:                                                                                                  #              +NZ HIPASS, CAN BE BACKED UP
000623:                                                                                                  #              -NZ PASS0, CANNOT BE BACKED UP
000624:
000625:


000627: 04,2431           10264        CLEAR              CCS      DSPCOUNT
000628: 04,2432           67657                           AD       ONE
000629: 04,2433           02435                           TC       +2
000630: 04,2434           67657                           AD       ONE
000631: 04,2435           54264                           TS       DSPCOUNT                              #  MAG OF DSPCOUNT
000632: 04,2436           02205                           TC       GETINREL                              #  MUST SET INREL, EVEN FOR HIPASS
000633: 04,2437           10302                           CCS      CLPASS
000634: 04,2440           02446                           TC       CLPASHI                               #  +
000635: 04,2441           02443                           TC       +2                                    #  +0    IF CLPASS IS +0 OR -, IT IS PASS0
000636: 04,2442           02443                           TC       +1                                    #  -
000637: 04,2443           30123                           CA       INREL
000638: 04,2444           02470                           TC       LEGALTST
000639: 04,2445           02463                           TC       CLEAR1
000640: 04,2446           10123        CLPASHI            CCS      INREL
000641: 04,2447           54123                           TS       INREL
000642: 04,2450           02470                           TC       LEGALTST
000643: 04,2451           32537                           CAF      DOUBLK     +2                         #  +3 TO - NUMBER, BACKS DATA REQUESTS.
000644: 04,2452           26300                           ADS      REQRET
000645: 04,2453           30123                           CA       INREL
000646: 04,2454           54111                           TS       MIXTEMP                               #  TEMP STORAGE FOR INREL
000647: 04,2455           00006                           EXTEND
000648: 04,2456           26266                           DIM      VERBREG                               #  DECREMENT VERB AND RE-DISPLAY
000649: 04,2457           04063                           TC       BANKCALL
000650: 04,2460           12315                           CADR     UPDATVB
000651: 04,2461           30111                           CA       MIXTEMP
000652: 04,2462           54123                           TS       INREL                                 #  RESTORE INREL
000653: 04,2463           02466        CLEAR1             TC       CLR5
000654: 04,2464           24302                           INCR     CLPASS                                #  ONLY IF CLPASS IS + OR +0.
000655: 04,2465           04440                           TC       ENDOFJOB                              #  SET FOR HIGHER PASS.
000656: 04,2466           22002        CLR5               LXCH     Q                                     #  USES 5BLANK BUT AVOIDS ITS TC GETINREL
000657: 04,2467           02500                           TC       5BLANK     +2
000658: 04,2470           67670        LEGALTST           AD       NEG2
000659: 04,2471           10000                           CCS      A
000660: 04,2472           00002                           TC       Q                                     #  LEGAL         INREL G/ 2
000661: 04,2473           05464                           TC       CCSHOLE
000662: 04,2474           04440                           TC       ENDOFJOB                              #  ILLEGAL       INREL= 0,1
000663: 04,2475           00002                           TC       Q                                     #  LEGAL        INREL = 2
000664:
000665:
000666:
000667:                                                                                                  #  5BLANK BLANKS 5 CHAR DISPLAY WORD IN R1, R2, OR R3. IT ALSO ZEROES XREG,
000668:                                                                                                  #  YREG, OR ZREG.PLACE ANY + DSPCOUNT NUMBER FOR PERTINENT RC INTO DSPCOUNT
000669:                                                                                                  #  DSPCOUNT IS LEFT SET TO LEFT MOST DSP NUMB FOR RC JUST BLANKED.
000670:
000671: 04,2476           22002        5BLANK             LXCH     Q
000672: 04,2477           02205                           TC       GETINREL
000673: 04,2500           37665                           CAF      ZERO
000674: 04,2501           50123                           INDEX    INREL
000675: 04,2502           54266                           TS       VERBREG                               #  ZERO X, Y, Z REG.
000676: 04,2503           50123                           INDEX    INREL
000677:
000678:


000680: 04,2504           54271                           TS       XREGLP     -2
000681: 04,2505           54110                           TS       CODE
000682: 04,2506           50123                           INDEX    INREL                                 #  ZERO PERTINENT DEC COMP BIT.
000683: 04,2507           47651                           CS       BIT7                                  #  PROTECT OTHERS
000684: 04,2510           70265                           MASK     DECBRNCH
000685: 04,2511           72540                           MASK     BRNCHCON                              #  ZERO LOW 2 BITS.
000686: 04,2512           54265                           TS       DECBRNCH
000687: 04,2513           50123                           INDEX    INREL
000688: 04,2514           32530                           CAF      SINBLANK   -2                         #  BLANK ISOLATED CHAR SEPARATELY
000689: 04,2515           54127                           TS       COUNT
000690: 04,2516           03201                           TC       DSPIN
000691: 04,2517           50123        5BLANK1            INDEX    INREL
000692: 04,2520           32533                           CAF      DOUBLK     -2
000693: 04,2521           54264                           TS       DSPCOUNT
000694: 04,2522           02541                           TC       2BLANK
000695: 04,2523           47656                           CS       TWO
000696: 04,2524           26264                           ADS      DSPCOUNT
000697: 04,2525           02541                           TC       2BLANK
000698: 04,2526           50123                           INDEX    INREL
000699: 04,2527           35173                           CAF      R1D1       -2
000700: 04,2530           54264                           TS       DSPCOUNT                              #  SET DSPCOUNT TO LEFT MOST DSP NUMBER
000701: 04,2531           00001                           TC       L                                     #  OF REG. JUST BLANKED
000702:
000703: 04,2532           00016        SINBLANK           OCT      16                                    #  DEC 14
000704: 04,2533           00005                           OCT      5
000705: 04,2534           00004                           OCT      4
000706: 04,2535           00015        DOUBLK             OCT      15                                    #  DEC 13
000707: 04,2536           00011                           OCT      11                                    #  DEC 9
000708: 04,2537           00003                           OCT      3
000709:
000710: 04,2540           77774        BRNCHCON           OCT      77774
000711:
000712:                                                                                                  #  2BLANK BLANKS TWO CHAR. PLACE DSP NUMBER OF LEFT CHAR  OF THE PAIR INTO
000713:                                                                                                  #  DSPCOUNT. THIS NUMBER IS LEFT IN DSPCOUNT
000714:
000715: 04,2541           30264        2BLANK             CA       DSPCOUNT
000716: 04,2542           54021                           TS       SR
000717: 04,2543           42554                           CS       BLANKCON
000718: 04,2544           00004                           INHINT
000719: 04,2545           50021                           INDEX    SR
000720: 04,2546           56307                           XCH      DSPTAB
000721: 04,2547           00006                           EXTEND
000722: 04,2550           62552                           BZMF     +2                                    #  IF OLD CONTENTS -, NOUT OK
000723: 04,2551           24303                           INCR     NOUT                                  #  IF OLD CONTENTS +, +1 TO NOUT
000724: 04,2552           00003                           RELINT                                         #  IF -, NOUT OK
000725: 04,2553           00002                           TC       Q
000726: 04,2554           04000        BLANKCON           OCT      4000
000727:
000728:


000730:                                                                                                  #  ENTER PASS 0 IS THE EXECUTE FUNCTION. HIGHER ORDER ENTERS ARE TO LOAD
000731:                                                                                                  #  DATA. THE SIGN OF REQRET DETERMINES THE PASS, + FOR PASS 0,- FOR HIGHER
000732:                                                                                                  #  PASSES.
000733:
000734:
000735:
000736:                                                                                                  #  MACHINE CADR TO BE SPECIFIED (MCTBS) NOUNS DESIRE AN ECADR TO BE LOADED
000737:                                                                                                  #  WHEN USED WITH LOAD VERBS, MONITOR VERBS, OR DISPLAY VERBS (EXCEPT
000738:                                                                                                  #  VERB = FIXED MEMORY DISPLAY, WHICH REQUIRES AN FCADR).
000739:
000740:
000741:
000742: 05,2000                                           SETLOC   22000
000743:
000744: 05,2000           03344        NVSUBB             TC       NVSUB1                                #  STANDARD LEAD INS. DONT MOVE.
000745: 05,2001           13403        DSPMM              TCF      DSPMM1
000746: 05,2002           02663        LOADLV1            TC       LOADLV
000747:                                                                                                  #  END OF STANDARD LEAD INS.
000748:
000749:
000750:
000751: 05,2003           37665        ENTER              CAF      ZERO
000752: 05,2004           54302                           TS       CLPASS
000753: 05,2005           35150                           CAF      ENDINST
000754: 05,2006           54122                           TS       ENTRET
000755: 05,2007           10300                           CCS      REQRET
000756: 05,2010           02031                           TC       ENTPAS0                               #  IF +, PASS 0
000757: 05,2011           02031                           TC       ENTPAS0                               #  IF +, PASS 0
000758: 05,2012           02013                           TC       +1                                    #  IF -, NOT PASS 0
000759: 05,2013           36165                           CAF      THREE                                 #  IF DEC, ALARM IF LESS THAN 5 CHAR IN,
000760: 05,2014           70265                           MASK     DECBRNCH                              #  BUT LEAVE REQRET - AND FLASH ON, SO
000761: 05,2015           10000                           CCS      A                                     #  OPERATOR CAN SUPPLY MISSING NUMERICAL
000762: 05,2016           02020                           TC       +2                                    #  CHARACTERS AND CONTINUE.
000763: 05,2017           02024                           TC       ACCEPTWD                              #  OCTAL. ANY NUMBER OF CHAR OK.
000764: 05,2020           10264                           CCS      DSPCOUNT
000765: 05,2021           02324                           TC       GODSPALM                              #  LESS THAN 5 CHAR DEC(DSPCOUNT IS +)
000766: 05,2022           02324                           TC       GODSPALM                              #  LESS THAN 5 CHAR DEC(DSPCOUNT IS +)
000767: 05,2023           02024                           TC       +1                                    #  5 CHAR IN (DSPCOUNT IS -)
000768: 05,2024           40300        ACCEPTWD           CS       REQRET                                #  5 CHAR IN (DSPCOUNT IS -)
000769: 05,2025           54300                           TS       REQRET                                #  SET REQRET +.
000770: 05,2026           05300                           TC       FLASHOFF
000771: 05,2027           00300                           TC       REQRET
000772:
000773: 05,2030     0122               ENTEXIT            =        ENTRET
000774:
000775: 05,2030           00030        LOWVERB            OCT      30                                    #  LOWER VERB THAT AVOIDS NOUN TEST
000776:
000777: 05,2031           37665        ENTPAS0            CAF      ZERO                                  #   NOUN VERB SUB ENTERS HERE
000778: 05,2032           54265                           TS       DECBRNCH
000779: 05,2033           40266        TESTVB             CS       VERBREG                               #  IF VERB IS 30-77, SKIP NOUN TEST
000780:
000781:


000783: 05,2034           62030                           AD       LOWVERB                               #  30-VB
000784: 05,2035           00006                           EXTEND
000785: 05,2036           62116                           BZMF     VERBFAN                               #  VERB G/ E 30
000786: 05,2037           00006        TESTNN             EXTEND                                         #  VERB L/ 30
000787: 05,2040           32076                           DCA      LODNNLOC                              #  SWITCH BANKS TO NOUN TABLE READING
000788: 05,2041           52006                           DXCH     Z                                     #  ROUTINE.
000789: 05,2042           50124                           INDEX    MIXBR
000790: 05,2043           02043                           TC       +0
000791: 05,2044           02046                           TC       +2                                    #  NORMAL
000792: 05,2045           02176                           TC       MIXNOUN                               #  MIXED
000793: 05,2046           10132                           CCS      NNADTEM                               #  NORMAL
000794: 05,2047           02114                           TC       VERBFAN    -2                         #        NORMAL  IF +
000795: 05,2050           02324                           TC       GODSPALM                              #  NOT IN USE     IF +0
000796: 05,2051           02055                           TC       REQADD                                #  SPECIFY MACHINE CADR IF -
000797: 05,2052           24304                           INCR     NOUNCADR                              #  AUGMENT MACHINE CADR IF -0
000798: 05,2053           05167                           TC       SETNADD                               #  ECADR FROM NOUNCADR, SETS EB, NOUNADD.
000799: 05,2054           02102                           TC       INTMCTBS   +2
000800: 05,2055           37641        REQADD             CAF      BIT15                                 #  SET CLPASS FOR PASS0 ONLY
000801: 05,2056           54302                           TS       CLPASS
000802: 05,2057           45150                           CS       ENDINST                               #  TEST IF REACHED HERE FROM INTERNAL OR
000803: 05,2060           60122                           AD       ENTEXIT                               #              FROM EXTERNAL
000804: 05,2061           00006                           EXTEND
000805: 05,2062           12064                           BZF      +2                                    #  EXTERNAL MACH CADR TO BE SPECIFIED
000806: 05,2063           02100                           TC       INTMCTBS
000807: 05,2064           02256                           TC       REQDATZ                               #  EXTERNAL MACH CADR TO BE SPECIFIED
000808: 05,2065           10265                           CCS      DECBRNCH
000809: 05,2066           02324                           TC       GODSPALM                              #  ALARM IF DECIMAL USED FOR MCTBS
000810: 05,2067           56272                           XCH      ZREG                                  #  OCTAL USED    OK
000811: 05,2070           05161                           TC       SETNCADR                              #  ECADR INTO NOUNCADR. SET EB, NOUNADD.
000812: 05,2071           00006                           EXTEND
000813: 05,2072           32076                           DCA      LODNNLOC                              #  SWITCH BANKS TO NOUN TABLE READING
000814: 05,2073           52006                           DXCH     Z                                     #  ROUTINE.
000815: 05,2074           02116                           TC       VERBFAN
000816:
000817: 05,2075     0264                                  EBANK=   DSPCOUNT
000818: 05,2075           02000 34000  LODNNLOC           2CADR    LODNNTAB
000819:
000820: 05,2077           77772        NEG5               OCT      77772
000821:
000822: 05,2100           30142        INTMCTBS           CA       MPAC       +2                         #  INTERNAL MACH CADR TO BE SPECIFIED.
000823: 05,2101           05161                           TC       SETNCADR                              #  ECADR INTO NOUNCADR. SET EB, NOUNADD.
000824: 05,2102           47654                           CS       BIT4                                  #  NVSUB CALL LEFT CADR IN MPAC+2 FOR MACH
000825: 05,2103           70266                           MASK     VERBREG                               #  CADR TO BE SPECIFIED.
000826: 05,2104           62077                           AD       NEG5                                  #  MASKING MAKES VB15 LOOK LIKE VB05.
000827: 05,2105           00006                           EXTEND
000828: 05,2106           12116                           BZF      VERBFAN                               #  VB = 05 OR 15, DO NOT DISPLAY CADR.
000829: 05,2107           35177                           CAF      R3D1                                  #  VB NOT = 05 OR 15, DISPLAY CADR.
000830: 05,2110           54264                           TS       DSPCOUNT
000831: 05,2111           30304                           CA       NOUNCADR
000832: 05,2112           03222                           TC       DSPOCTWD
000833:
000834:


000836: 05,2113           02116                           TC       VERBFAN
000837:
000838: 05,2114           67657                           AD       ONE
000839: 05,2115           05161                           TC       SETNCADR                              #  ECADR INTO NOUNCADR. SETS EB, NOUNADD.
000840: 05,2116           42131        VERBFAN            CS       LST2CON
000841: 05,2117           60266                           AD       VERBREG                               #  VERB-LST2CON
000842: 05,2120           10000                           CCS      A
000843: 05,2121           67657                           AD       ONE                                   #  VERB G/ LST2CON
000844: 05,2122           02124                           TC       +2
000845: 05,2123           02133                           TC       VBFANDIR                              #  VERB L/ LST2CON
000846: 05,2124           54140                           TS       MPAC
000847: 05,2125           05341                           TC       RELDSP                                #  RELEASE DISPLAY SYST
000848: 05,2126           56140                           XCH      MPAC                                  #  ALSO TURN OFF RELEASE DISPLAY SYST LIGHT
000849: 05,2127           62132                           AD       LST2CADR
000850: 05,2130           04105                           TC       BANKJUMP
000851: 05,2131           00040        LST2CON            OCT      40                                    #  FIRST LST2 VERB
000852: 05,2132           22000        LST2CADR           CADR     LST2FAN
000853:
000854: 05,2133           50266        VBFANDIR           INDEX    VERBREG
000855: 05,2134           32136                           CAF      VERBTAB
000856: 05,2135           04105                           TC       BANKJUMP
000857:
000858: 05,2136           12324        VERBTAB            CADR     GODSPALM                              #  VB00 ILLEGAL
000859: 05,2137           12340                           CADR     DSPA                                  #  VB01 DISPLAY OCT COMP 1 (R1)
000860: 05,2140           12345                           CADR     DSPB                                  #  VB02 DISPLAY OCT COMP 2 (R1)
000861: 05,2141           12352                           CADR     DSPC                                  #  VB03 DISPLAY OCT COMP 3 (R1)
000862: 05,2142           12333                           CADR     DSPAB                                 #  VB04 DISPLAY OCT COMP 1,2 (R1,R2)
000863: 05,2143           12326                           CADR     DSPABC                                #  VB05 DISPLAY OCT COMP 1,2,3 (R1,R2,R3)
000864: 05,2144           12445                           CADR     DECDSP                                #  VB06 DECIMAL DISPLAY
000865: 05,2145           10704                           CADR     DSPDPDEC                              #  VB07 DP DECIMAL DISPLAY (R1,R2)
000866: 05,2146           11277                           CADR     DSPALARM                              #  VB10 SPARE
000867: 05,2147           13077                           CADR     MONITOR                               #  VB11 MONITOR OCT COMP 1 (R1)
000868: 05,2150           13077                           CADR     MONITOR                               #  VB12 MONITOR OCT COMP 2 (R1)
000869: 05,2151           13077                           CADR     MONITOR                               #  VB13 MONITOR OCT COMP 3 (R1)
000870: 05,2152           13077                           CADR     MONITOR                               #  VB14 MONITOR OCT COMP 1,2 (R1,R2)
000871: 05,2153           13077                           CADR     MONITOR                               #  VB15 MONITOR OCT COMP 1,2,3 (R1,R2,R3)
000872: 05,2154           13077                           CADR     MONITOR                               #  VB16 MONITOR DECIMAL
000873: 05,2155           13077                           CADR     MONITOR                               #  VB17 MONITOR DP DEC (R1,R2)
000874: 05,2156           12324                           CADR     GODSPALM                              #  VB20 SPARE
000875: 05,2157           12620                           CADR     ALOAD                                 #  VB21 LOAD COMP 1 (R1)
000876: 05,2160           12631                           CADR     BLOAD                                 #  VB22 LOAD COMP 2 (R2)
000877: 05,2161           12646                           CADR     CLOAD                                 #  VB23 LOAD COMP 3 (R3)
000878: 05,2162           12572                           CADR     ABLOAD                                #  VB24 LOAD COMP 1,2 (R1,R2)
000879: 05,2163           12535                           CADR     ABCLOAD                               #  VB25 LOAD COMP 1,2,3 (R1,R2,R3)
000880: 05,2164           12324                           CADR     GODSPALM                              #  VB26 SPARE
000881: 05,2165           13214                           CADR     DSPFMEM                               #  VB27 FIXED MEMORY DISPLAY
000882:                                                                                                  #  THE FOLLOWING VERBS MAKE NO NOUN TEST
000883: 05,2166           13314        REQEXLOC           CADR     VBRQEXEC                              #  VB30 REQUEST EXECUTIVE
000884: 05,2167           13340                           CADR     VBRQWAIT                              #  VB31 REQUEST WAITLIST
000885: 05,2170           11325                           CADR     BUMP                                  #  VB32 C(R2) INTO R3, C(R1) INTO R2
000886:
000887:


000889: 05,2171           11310                           CADR     VBPROC                                #  VB33 PROCEED WITHOUT DATA
000890: 05,2172           11315                           CADR     VBTERM                                #  VB34 TERMINATE CURRENT TEST OR LOAD REQ
000891: 05,2173           13414                           CADR     VBTSTLTS                              #  VB35 TEST LIGHTS
000892: 05,2174           24000                           CADR     SLAP1                                 #  VB36 FRESH START
000893: 05,2175           13267        ENDVBFAN           CADR     MMCHANG                               #  VB37 CHANGE MAJOR MODE
000894:
000895:
000896:
000897:                                                                                                  #  THE LIST2 VERBFAN IS LOCATED IN THE EXTENDED VERB BANK.
000898:
000899:
000900:


000902:                                                                                                  #  NNADTAB CONTAINS A RELATIVE ADDRESS, IDADDREL(IN LOW 10 BITS), REFERRING
000903:                                                                                                  #  TO WHERE 3 CONSECUTIVE ADDRESSES ARE STORED (IN IDADDTAB).
000904:                                                                                                  #  MIXNOUN GETS DATA AND STORES IN MIXTEMP,+1,+2. IT SETS NOUNADD FOR
000905:                                                                                                  #   MIXTEMP.
000906:
000907: 05,2176           10132        MIXNOUN            CCS      NNADTEM
000908: 05,2177           02203                           TC       +4                                    #  + IN USE
000909: 05,2200           02324                           TC       GODSPALM                              #  +0 NOT IN USE
000910: 05,2201           02203                           TC       +2                                    #  - IN USE
000911: 05,2202           02203                           TC       +1                                    #  -0 IN USE
000912: 05,2203           46162                           CS       SIX
000913: 05,2204           60266                           AD       VERBREG
000914: 05,2205           00006                           EXTEND
000915: 05,2206           62210                           BZMF     +2                                    #  VERB L/E 6
000916: 05,2207           02116                           TC       VERBFAN                               #  AVOID MIXNOUN SWAP IF VB NOT = DISPLAY
000917: 05,2210           37656                           CAF      TWO
000918: 05,2211           54103        MIXNN1             TS       DECOUNT
000919: 05,2212           62235                           AD       MIXAD
000920: 05,2213           54131                           TS       NOUNADD                               #  SET NOUNADD TO MIXTEMP + K
000921: 05,2214           50103                           INDEX    DECOUNT                               #  GET IDADDTAB ENTRY FOR COMPONENT K
000922: 05,2215           30134                           CA       IDAD1TEM                              #  OF NOUN.
000923: 05,2216           54106                           TS       NOUNTEM
000924:                                                                                                  #  TEST FOR DP (FOR OCT DISPLAY). IF SO, GET
000925:                                                                                                  #    MINOR PART ONLY.
000926: 05,2217           02721                           TC       SFRUTMIX                              #  GET SF ROUT NUMBER IN A
000927: 05,2220           02236                           TC       DPTEST
000928: 05,2221           02223                           TC       MIXNN2                                #  NO DP
000929: 05,2222           24106                           INCR     NOUNTEM                               #  DP GET MINOR PART
000930: 05,2223           30106        MIXNN2             CA       NOUNTEM
000931: 05,2224           75234                           MASK     LOW11                                 #  ESUBK (NO DP) OR (ESUBK)+1     FOR DP
000932: 05,2225           05171                           TC       SETEBANK                              #  SET EBANK, LEAVE EADRES IN A.
000933: 05,2226           50000                           INDEX    A                                     #  PICK UP C(ESUBK)  NOT DP
000934: 05,2227           30000                           CA       0                                     #  OR C((ESUBK)+1)  FOR DP MINOR PART
000935: 05,2230           50131                           INDEX    NOUNADD
000936: 05,2231           56000                           XCH      0                                     #  STORE IN MIXTEM + K
000937: 05,2232           10103                           CCS      DECOUNT
000938: 05,2233           02211                           TC       MIXNN1
000939: 05,2234           02116                           TC       VERBFAN
000940:
000941: 05,2235           00111        MIXAD              TC       MIXTEMP
000942:
000943:
000944:
000945:                                                                                                  #  DPTEST   ENTER WITH SF ROUT NUMBER IN A.
000946:                                                                                                  #           RETURNS TO L+1 IF NO DP.
000947:                                                                                                  #           RETURNS TO L+2 IF DP.
000948:
000949: 05,2236           50000        DPTEST             INDEX    A
000950: 05,2237           12240                           TCF      +1
000951: 05,2240           00002                           TC       Q                                     #  OCTAL ONLY NO DP
000952:
000953:


000955: 05,2241           00002                           TC       Q                                     #  FRACT NO DP
000956: 05,2242           00002                           TC       Q                                     #  DEG  NO DP
000957: 05,2243           00002                           TC       Q                                     #  ARITH  NO DP
000958: 05,2244           12250                           TCF      DPTEST1                               #  DP1OUT
000959: 05,2245           12250                           TCF      DPTEST1                               #  DP2OUT
000960: 05,2246           00002                           TC       Q                                     #  OPDEG  NO DP
000961: 05,2247           12250                           TCF      DPTEST1                               #  DP3OUT
000962: 05,2250           50002        DPTEST1            INDEX    Q
000963: 05,2251           00001                           TC       1                                     #  RETURN TO L+2
000964:
000965:
000966:
000967: 05,2252           35175        REQDATX            CAF      R1D1
000968: 05,2253           12257                           TCF      REQCOM
000969: 05,2254           35176        REQDATY            CAF      R2D1
000970: 05,2255           12257                           TCF      REQCOM
000971: 05,2256           35177        REQDATZ            CAF      R3D1
000972: 05,2257           54264        REQCOM             TS       DSPCOUNT
000973: 05,2260           40002                           CS       Q
000974: 05,2261           54300                           TS       REQRET
000975: 05,2262           04063                           TC       BANKCALL
000976: 05,2263           10476                           CADR     5BLANK
000977: 05,2264           05274                           TC       FLASHON
000978: 05,2265           45150                           CS       ENDINST
000979: 05,2266           60122                           AD       ENTEXIT
000980: 05,2267           00006                           EXTEND
000981: 05,2270           12273                           BZF      ENDRQDAT                              #  ENTEXIT = ENDOFJOB. EXTERNALLY INITIATED
000982: 05,2271           47665                           CS       ZERO                                  #  ENTEXIT NOT ENDOFJOB. NVSUB INITIATED
000983: 05,2272           54323                           TS       CADRSTOR                              #  NVSUB INITIATED LOAD. SET CADRSTOR TO -0
000984: 05,2273           00122        ENDRQDAT           TC       ENTEXIT
000985:
000986:                                                                                                  #  IF NVSUB INITIATED LOAD, SET CADRSTOR TO -0 TO TELL RECALTST TO RELEASE
000987:                                                                                                  #  DISPLAY IF ENDIDLE WAS NOT USED. (NECESSARY FOR DATAWAIT)
000988:
000989:
000990: 05,2274           54267                           TS       NOUNREG
000991: 05,2275           56002        UPDATNN            XCH      Q
000992: 05,2276           54103                           TS       UPDATRET
000993: 05,2277           00006                           EXTEND
000994: 05,2300           32076                           DCA      LODNNLOC                              #  SWITCH BANKS TO NOUN TABLE READING
000995: 05,2301           52006                           DXCH     Z                                     #  ROUTINE.
000996: 05,2302           10132                           CCS      NNADTEM
000997: 05,2303           67657                           AD       ONE                                   #  NORMAL
000998: 05,2304           12307                           TCF      PUTADD
000999: 05,2305           12310                           TCF      PUTADD     +1                         #  MCTBS  DONT CHANGE NOUNADD
001000: 05,2306           12310                           TCF      PUTADD     +1                         #  MCTBI  DONT CHANGE NOUNADD
001001: 05,2307           05161        PUTADD             TC       SETNCADR                              #  ECADR INTO NOUNCADR. SETS EB, NOUNADD.
001002: 05,2310           35240                           CAF      ND1
001003: 05,2311           54264                           TS       DSPCOUNT
001004:
001005:


001007: 05,2312           30267                           CA       NOUNREG
001008: 05,2313           12322                           TCF      UPDAT1
001009:
001010: 05,2314           54266                           TS       VERBREG
001011: 05,2315           56002        UPDATVB            XCH      Q
001012: 05,2316           54103                           TS       UPDATRET
001013: 05,2317           35237                           CAF      VD1
001014: 05,2320           54264                           TS       DSPCOUNT
001015: 05,2321           30266                           CA       VERBREG
001016: 05,2322           03255        UPDAT1             TC       DSP2BIT
001017: 05,2323           00103                           TC       UPDATRET
001018:
001019:
001020:
001021: 05,2324           04102        GODSPALM           TC       POSTJUMP
001022: 05,2325           11277                           CADR     DSPALARM
001023:
001024:


001026:                                                                                                  #           NOUN TABLES
001027:                                                                                                  #  NOUN CODE L/55, NORMAL CASE.  NOUN CODE G/E 55, MIXED NOUN CASE.
001028:                                                                                                  #  FOR NORMAL CASE, NNADTAB CONTAINS ONE       ECADR    FOR EACH NOUN.
001029:                                                                                                  #  +0 INDICATES NOUN NOT USED.   - ENTRY INDICATES MACHINE CADR(E OR F) TO
001030:                                                                                                  #  BE SPECIFIED. -1 INDICATES CHANNEL TO BE SPECIFIED. -0 INDICATES AUGMENT
001031:                                                                                                  #  OF LAST MACHINE CADR SUPPLIED.
001032:
001033:                                                                                                  #  FOR MIXED CASE, NNADTAB CONTAINS ONE INDIRECT ADDRESS(IDADDREL) IN LOW
001034:                                                                                                  #  10 BITS, AND THE COMPONENT CODE NUMBER IN THE HIGH 5 BITS.
001035:
001036:                                                                                                  #  NNTYPTAB IS A PACKED TABLE OF THE FORM MMMMMNNNNNPPPPP.
001037:
001038:                                                                                                  #  FOR THE NORMAL CASE, M-S ARE THE COMPONENT CODE NUMBER.
001039:                                                                                                  #                       N-S ARE THE SF ROUTINE CODE NUMBER.
001040:                                                                                                  #                       P-S ARE THE SF CONSTANT CODE NUMBER.
001041:
001042:                                                                                                  #  MIXED CASE,M-S ARE THE SF CONSTANT3 CODE NUMBER     3 COMPONENT CASE
001043:                                                                                                  #             N-S ARE THE SF CONSTANT2 CODE NUMBER
001044:                                                                                                  #             P-S ARE THE SF CONSTANT1 CODE NUMBER
001045:                                                                                                  #             N-S ARE THE SF CONSTANT2 CODE NUMBER     2 COMPONENT CASE
001046:                                                                                                  #             P-S ARE THE SF CONSTANT1 CODE NUMBER
001047:                                                                                                  #             P-S ARE THE SF CONSTANT1 CODE NUMBER      1 COMPONENT CASE
001048:
001049:                                                                                                  #  THERE IS ALSO AN INDIRECT ADDRESS TABLE(IDADDTAB) FOR MIXED CASE ONLY.
001050:                                                                                                  #  EACH ENTRY CONTAINS ONE ECADR.    IDADDREL IS THE RELATIVE ADDRESS OF
001051:                                                                                                  #  THE FIRST OF THESE ENTRIES.
001052:                                                                                                  #  THERE IS ONE ENTRY IN THIS TABLE FOR EACH COMPONENT OF A MIXED NOUN
001053:                                                                                                  #  THEY ARE LISTED IN ORDER OF ASCENDING K.
001054:
001055:                                                                                                  #  THERE IS ALSO A SCALE FACTOR ROUTINE NUMBER TABLE( RUTMXTAB ) FOR MIXED
001056:                                                                                                  #  CASE ONLY. THERE IS ONE ENTRY PER MIXED NOUN. THE FORM IS,
001057:                                                                                                  #        QQQQQRRRRRSSSSS
001058:                                                                                                  #  Q-S ARE THE SF ROUTINE 3 CODE NUMBER     3 COMPONENT CASE
001059:                                                                                                  #  R-S ARE THE SF ROUTINE 2 CODE NUMBER
001060:                                                                                                  #  S-S ARE THE SF ROUTINE 1 CODE NUMBER
001061:                                                                                                  #  R-S ARE THE SF ROUTINE 2 CODE NUMBER     2 COMPONENT CASE
001062:                                                                                                  #  S-S ARE THE SF ROUTINE 1 CODE NUMBER
001063:
001064:                                                                                                  #  IN OCTAL DISPLAY AND LOAD (OCT OR DEC) VERBS, EXCLUDE USE OF VERBS WHOSE
001065:                                                                                                  #  COMPONENT NUMBER IS GREATER THAN THE NUMBER OF COMPONENTS IN NOUN.
001066:                                                                                                  #  ALL MACHINE ADDRESS TO BE SPECIFIED NOUNS ARE 1 COMPONENT.
001067:                                                                                                  #  ONLY EXCEPTION IS NOUN 01 TO ALLOW OCTAL DISPLAYS AND LOADS OF
001068:                                                                                                  #  AN UNCONTOLLED NUMBER OF COMPONENTS.
001069:
001070:
001071:
001072:                                                                                                  #  IN MULTI-COMPONENT LOAD VERBS, NO MIXING OF OCTAL AND DECIMAL DATA
001073:                                                                                                  #  COMPONENT WORDS IS ALLOWED. ALARM IF VIOLATION.
001074:
001075:


001077:                                                                                                  #  IN DECIMAL LOADS OF DATA, 5 NUMERICAL CHARACTERS MUST BE KEYED IN
001078:                                                                                                  #  BEFORE EACH ENTER. IF NOT, ALARM.
001079:
001080:


001082:                                                                                                  #           DISPLAY VERBS
001083: 05,2326           47656        DSPABC             CS       TWO
001084: 05,2327           02376                           TC       COMPTEST
001085: 05,2330           50131                           INDEX    NOUNADD
001086: 05,2331           40002                           CS       2
001087: 05,2332           56116                           XCH      BUF        +2
001088: 05,2333           47657        DSPAB              CS       ONE
001089: 05,2334           02376                           TC       COMPTEST
001090: 05,2335           50131                           INDEX    NOUNADD
001091: 05,2336           40001                           CS       1
001092: 05,2337           56115                           XCH      BUF        +1
001093: 05,2340           02420        DSPA               TC       TSTFORDP
001094: 05,2341           50131                           INDEX    NOUNADD
001095: 05,2342           40000                           CS       0
001096: 05,2343           56114        DSPCOM1            XCH      BUF
001097: 05,2344           02357                           TC       DSPCOM2
001098: 05,2345           47657        DSPB               CS       ONE
001099: 05,2346           02376                           TC       COMPTEST
001100: 05,2347           50131                           INDEX    NOUNADD
001101: 05,2350           40001                           CS       1
001102: 05,2351           02343                           TC       DSPCOM1
001103: 05,2352           47656        DSPC               CS       TWO
001104: 05,2353           02376                           TC       COMPTEST
001105: 05,2354           50131                           INDEX    NOUNADD
001106: 05,2355           40002                           CS       2
001107: 05,2356           02343                           TC       DSPCOM1
001108: 05,2357           47656        DSPCOM2            CS       TWO                                   #  A  B  C  AB ABC
001109: 05,2360           60266                           AD       VERBREG                               #  -1 -0 +1 +2 +3   IN A
001110: 05,2361           10000                           CCS      A                                     #  +0 +0 +0 +1 +2    IN A AFTER CCS
001111: 05,2362           02365                           TC       DSPCOM3
001112: 05,2363           00122                           TC       ENTEXIT
001113: 05,2364           02365                           TC       +1
001114: 05,2365           54106        DSPCOM3            TS       DISTEM                                #  +0,+1,+2 INTO DISTEM
001115: 05,2366           50000                           INDEX    A
001116: 05,2367           35175                           CAF      R1D1
001117: 05,2370           54264                           TS       DSPCOUNT
001118: 05,2371           50106                           INDEX    DISTEM
001119: 05,2372           40114                           CS       BUF
001120: 05,2373           03222                           TC       DSPOCTWD
001121: 05,2374           56106                           XCH      DISTEM
001122: 05,2375           02361                           TC       DSPCOM2    +2
001123:
001124:                                                                                                  #  COMPTEST ALARMS IF COMPONENT NUMBER OF VERB(LOAD OR OCT DISPLAY) IS
001125:                                                                                                  #  GREATER THAN THE HIGHEST COMPONENT NUMBER OF NOUN.
001126:                                                                                                  #  NOUN 01 IS EXCLUDED FROM TEST.
001127: 05,2376           54107        COMPTEST           TS       SFTEMP1                               #  - VERB COMP
001128: 05,2377           22002                           LXCH     Q
001129: 05,2400           47657        COMPTST1           CS       ONE
001130: 05,2401           60267                           AD       NOUNREG
001131: 05,2402           00006                           EXTEND
001132:
001133:


001135: 05,2403           12417                           BZF      NDCMPTST                              #  NOUN = 01, ANY COMP OK
001136: 05,2404           50124                           INDEX    MIXBR                                 #  NOUN NOT = 01.
001137: 05,2405           32442                           CAF      COMPICK    -1
001138: 05,2406           50000                           INDEX    A
001139: 05,2407           30000                           CA       0
001140: 05,2410           75226                           MASK     HI5
001141: 05,2411           05207                           TC       LEFT5                                 #  NOUN COMP
001142: 05,2412           60107                           AD       SFTEMP1                               #  NOUN COMP - VERB COMP
001143: 05,2413           10000                           CCS      A
001144: 05,2414           00001                           TC       L                                     #  NOUN COMP G/ VERB COMP
001145: 05,2415           05464                           TC       CCSHOLE
001146: 05,2416           02324                           TC       GODSPALM                              #  NOUN COMP L/ VERB COMP
001147: 05,2417           00001        NDCMPTST           TC       L                                     #  NOUN COMP = VERB COMP
001148:
001149:
001150:
001151: 05,2420           22002        TSTFORDP           LXCH     Q                                     #  TEST FOR DP. IF SO, GET MINOR PART ONLY.
001152: 05,2421           30132                           CA       NNADTEM
001153: 05,2422           67657                           AD       ONE                                   #  IF NNADTEM = -1, CHANNEL TO BE SPECIFIED
001154: 05,2423           00006                           EXTEND
001155: 05,2424           12436                           BZF      CHANDSP
001156: 05,2425           50124                           INDEX    MIXBR
001157: 05,2426           02426                           TC       +0
001158: 05,2427           02431                           TC       +2                                    #  NORMAL
001159: 05,2430           00001                           TC       L                                     #  MIXED CASE ALREADY HANDLED IN MIXNOUN
001160: 05,2431           02713                           TC       SFRUTNOR
001161: 05,2432           02236                           TC       DPTEST
001162: 05,2433           00001                           TC       L                                     #  NO DP
001163: 05,2434           24131                           INCR     NOUNADD                               #  DP    E+1 INTO NOUNADD FOR MINOR PART.
001164: 05,2435           00001                           TC       L
001165:
001166:
001167:
001168: 05,2436           00006        CHANDSP            EXTEND
001169: 05,2437           50304                           INDEX    NOUNCADR
001170: 05,2440           00000                           READ     0
001171: 05,2441           40000                           CS       A
001172: 05,2442           12343                           TCF      DSPCOM1
001173:
001174:
001175:
001176: 05,2443           00133        COMPICK            ADRES    NNTYPTEM
001177: 05,2444           00132                           ADRES    NNADTEM
001178:
001179: 05,2445           50124        DECDSP             INDEX    MIXBR                                 #  NORMAL                MIXED
001180: 05,2446           32442                           CAF      COMPICK    -1                         #  ADRES NNTYPTEM        ADRES NNADTEM
001181: 05,2447           50000                           INDEX    A
001182: 05,2450           30000                           CA       0                                     #  C(NNTYPTEM)           C(NNADTEM)
001183: 05,2451           75226                           MASK     HI5                                   #  GET HI5 OF NNTYPTAB(NORM)OF NNADTAB(MIX)
001184: 05,2452           05207                           TC       LEFT5
001185:
001186:


001188: 05,2453           54103                           TS       DECOUNT                               #  COMP NUMBER INTO DECOUNT
001189: 05,2454           54106        DSPDCGET           TS       DECTEM                                #  PICKS UP DATA
001190: 05,2455           60131                           AD       NOUNADD                               #  DECTEM 1COMP +0, 2COMP +1, 3COMP +2
001191: 05,2456           50000                           INDEX    A
001192: 05,2457           40000                           CS       0
001193: 05,2460           50106                           INDEX    DECTEM
001194: 05,2461           56270                           XCH      XREG                                  #  CANT USE BUF SINCE DMP USES IT.
001195: 05,2462           10106                           CCS      DECTEM
001196: 05,2463           02454                           TC       DSPDCGET                              #  MORE TO GET
001197: 05,2464           37665        DSPDCPUT           CAF      ZERO                                  #  DISPLAYS DATA
001198: 05,2465           54141                           TS       MPAC       +1                         #  DECOUNT 1COMP +0, 2COMP +1, 3COMP +2
001199: 05,2466           54142                           TS       MPAC       +2
001200: 05,2467           50103                           INDEX    DECOUNT
001201: 05,2470           35175                           CAF      R1D1
001202: 05,2471           54264                           TS       DSPCOUNT
001203: 05,2472           50103                           INDEX    DECOUNT
001204: 05,2473           40270                           CS       XREG
001205: 05,2474           54140                           TS       MPAC
001206: 05,2475           02734                           TC       SFCONUM                               #  2X ( SF CON NUMB ) IN A
001207: 05,2476           54107                           TS       SFTEMP1
001208: 05,2477           00006                           EXTEND                                         #  SWITCH BANKS TO SF CONSTANT TABLE
001209: 05,2500           32512                           DCA      GTSFOUTL                              #     READING ROUTINE.
001210: 05,2501           52006                           DXCH     Z                                     #  LOADS SFTEMP1, SFTEMP2.
001211: 05,2502           50124                           INDEX    MIXBR
001212: 05,2503           02503                           TC       +0
001213: 05,2504           02507                           TC       DSPSFNOR
001214: 05,2505           02721                           TC       SFRUTMIX
001215: 05,2506           02522                           TC       DECDSP3
001216:
001217: 05,2507           02713        DSPSFNOR           TC       SFRUTNOR
001218: 05,2510           02522                           TC       DECDSP3
001219:
001220: 05,2511     0264                                  EBANK=   DSPCOUNT
001221: 05,2511           02037 34000  GTSFOUTL           2CADR    GTSFOUT
001222:
001223: 05,2513           04063        DSPDCEND           TC       BANKCALL                              #  ALL SFOUT ROUTINES END HERE
001224: 05,2514           11101                           CADR     DSPDECWD
001225: 05,2515           10103                           CCS      DECOUNT
001226: 05,2516           02520                           TC       +2
001227: 05,2517           00122                           TC       ENTEXIT
001228: 05,2520           54103                           TS       DECOUNT
001229: 05,2521           02464                           TC       DSPDCPUT                              #  MORE TO DISPLAY
001230:
001231: 05,2522           50000        DECDSP3            INDEX    A
001232: 05,2523           32525                           CAF      SFOUTABR
001233: 05,2524           04105                           TC       BANKJUMP
001234:
001235:


001237: 05,2525           11277        SFOUTABR           CADR     DSPALARM                              #  ALARM IF DEC DISP WITH OCTAL ONLY NOUN
001238: 05,2526           12513                           CADR     DSPDCEND
001239: 05,2527           10555                           CADR     DEGOUTSF
001240: 05,2530           10642                           CADR     ARTOUTSF
001241: 05,2531           10647                           CADR     DP1OUTSF
001242: 05,2532           10654                           CADR     DP2OUTSF
001243: 05,2533           10563                           CADR     OPDEGOUT
001244: 05,2534           10656                           CADR     DP3OUTSF
001245: 05,2535                        ENDRTOUT           EQUALS
001246:
001247:
001248:
001249:                                                                                                  #          THE FOLLOWING IS ATYPICAL SF ROUTINE. IT USES MPAC. LEAVES RESU
001250:                                                                                                  #  LTS IN MPAC, MPAC+1. ENDS WITH TC DSPDCEND
001251:
001252:
001253:
001254: 04,2555                                           SETLOC   BLANKCON   +1
001255:
001256:                                                                                                  #     DEGOUTSF SCALES BY .18 THE LOW 14 BITS OF ANGLE, ADDING .18 FOR
001257:                                                                                                  #  NUMBERS IN THE NEGATIVE (AGC) RANGE.
001258:
001259: 04,2555           37665        DEGOUTSF           CAF      ZERO
001260: 04,2556           54142                           TS       MPAC       +2                         #  SET INDEX FOR FULL SCALE
001261: 04,2557           02614                           TC       FIXRANGE
001262: 04,2560           02562                           TC       +2                                    #  NO AUGMENT NEEDED (SFTEMP1 AND 2 ARE 0)
001263: 04,2561           02607                           TC       SETAUG                                #  SET AUGMENTER ACCORDING TO C(MPAC +2)
001264: 04,2562           02625                           TC       DEGCOM
001265:
001266:                                                                                                  #  OPDEGOUT SCALES BY .45 (THE RANGE IS 90 DEGREES) AND ADDS A 20 DEG BIAS.
001267:
001268: 04,2563           10140        OPDEGOUT           CCS      MPAC                                  #  RANGE IS 90 DEG
001269: 04,2564           56140                           XCH      MPAC                                  #  IF POS OR POS 0 THEN ADD BIAS AND
001270: 04,2565           02570                           TC       +3                                    #  CORRECT FOR POSSIBLE OVERFLOW
001271: 04,2566           02577                           TC       NEGOPT                                #  IF NEG NON ZERO
001272: 04,2567           67667                           AD       NEG1                                  #  IF NEG ZERO SUBTRACT 1
001273: 04,2570           62641                           AD       20BIAS
001274: 04,2571           54140        BIASCOM            TS       MPAC                                  #  TEST FOR OVERFLOW
001275: 04,2572           02575                           TC       +3                                    #  NO OVFLOW
001276: 04,2573           37641                           CAF      BIT15                                 #  IF OVFLOW
001277: 04,2574           26140                           ADS      MPAC
001278: 04,2575           37656                           CAF      TWO                                   #  SET MULTIPLIER TO .45
001279: 04,2576           02556                           TC       DEGOUTSF   +1
001280:
001281: 04,2577           56140        NEGOPT             XCH      MPAC                                  #  NEGATIVE CASE
001282: 04,2600           62641                           AD       20BIAS
001283: 04,2601           10000                           CCS      A
001284: 04,2602           02571                           TC       BIASCOM                               #  IF POS THEN SUBTRACT 1 BECAUSE OF 2SCOM
001285: 04,2603           05464                           TC       CCSHOLE
001286: 04,2604           67657                           AD       ONE                                   #  IF NEG RESTORE SUM
001287:
001288:


001290: 04,2605           40000                           COM                                            #  IF NEG 0 LEAVE NEG 0
001291: 04,2606           02571                           TC       BIASCOM
001292:
001293: 04,2607           00006        SETAUG             EXTEND                                         #  LOADS SFTEMP1 AND SFTEMP2 WITH THE
001294: 04,2610           50142                           INDEX    MPAC       +2                         #  DP AUGMENTER CONSTANT
001295: 04,2611           32636                           DCA      DEGTAB
001296: 04,2612           52110                           DXCH     SFTEMP1
001297: 04,2613           00002                           TC       Q
001298:
001299: 04,2614           10140        FIXRANGE           CCS      MPAC                                  #  IF MPAC IS + RETURN TO L+1
001300: 04,2615           00002                           TC       Q                                     #  IF MPAC IS - RETURN TO L+2 AFTER
001301: 04,2616           00002                           TC       Q                                     #  MASKING OUT THE SIGN BIT
001302: 04,2617           12620                           TCF      +1
001303: 04,2620           47641                           CS       BIT15
001304: 04,2621           70140                           MASK     MPAC
001305: 04,2622           54140                           TS       MPAC
001306: 04,2623           50002                           INDEX    Q
001307: 04,2624           00001                           TC       1
001308:
001309: 04,2625           00006        DEGCOM             EXTEND                                         #  LOADS MULTIPLIER, DOES SHORTMP, AND
001310: 04,2626           50142                           INDEX    MPAC       +2                         #  ADDS AUGMENTER.
001311: 04,2627           32636                           DCA      DEGTAB
001312: 04,2630           52141                           DXCH     MPAC                                  #  ADJUSTED ANGLE IN A
001313: 04,2631           07266                           TC       SHORTMP
001314: 04,2632           52110                           DXCH     SFTEMP1
001315: 04,2633           20141                           DAS      MPAC
001316: 04,2634           02645                           TC       SCOUTEND
001317:
001318: 04,2635           05605        DEGTAB             OCT      05605                                 #  HI PART OF    .18
001319: 04,2636           03656                           OCT      03656                                 #  LOW PART OF   .18
001320: 04,2637           16314                           OCT      16314                                 #  HI PART OF    .45
001321: 04,2640           31463                           OCT      31463                                 #  LO PART OF    .45
001322:
001323: 04,2641           16040        20BIAS             OCT      16040                                 #  20 DEG BIAS FOR OPTICS
001324:
001325: 04,2642           52110        ARTOUTSF           DXCH     SFTEMP1                               #  ASSUMES POINT AT LEFT OF DP SFCON
001326: 04,2643           52141                           DXCH     MPAC
001327: 04,2644           07266                           TC       SHORTMP
001328: 04,2645           04102        SCOUTEND           TC       POSTJUMP
001329: 04,2646           12513                           CADR     DSPDCEND
001330:
001331: 04,2647           02661        DP1OUTSF           TC       DPOUT                                 #  SCALES MPAC, MPAC +1 BY DP SCALE FACTOR
001332: 04,2650           56142                           XCH      MPAC       +2                         #  IN SFTEMP1, SFTEMP2.  THEN SCALE RESULT
001333: 04,2651           56141                           XCH      MPAC       +1                         #  BY B14.
001334: 04,2652           54140                           TS       MPAC
001335: 04,2653           02645                           TC       SCOUTEND
001336:
001337:


001339: 04,2654           02661        DP2OUTSF           TC       DPOUT                                 #  SCALES MPAC, MPAC +1 BY DP SCALE FACTOR
001340: 04,2655           02645                           TC       SCOUTEND
001341:
001342:
001343:
001344: 04,2656           02661        DP3OUTSF           TC       DPOUT                                 #  ASSUMES POINT BETWEEN BITS 7-8 OF HIGH
001345: 04,2657           03054                           TC       TPLEFT7                               #  PART OF SFCON. SHIFTS RESULTS LEFT 7.
001346: 04,2660           02645                           TC       SCOUTEND
001347:
001348:
001349:
001350:                                                                                                  #  DPOUT PICKS UP FRESH DATA FOR BOTH HI AND LO COMPONENTS.
001351:                                                                                                  #  THIS IS NEEDED FOR TIME DISPLAY.
001352:
001353: 04,2661           56002        DPOUT              XCH      Q
001354: 04,2662           54105                           TS       OVFIND
001355: 04,2663           50124                           INDEX    MIXBR
001356: 04,2664           02664                           TC       +0
001357: 04,2665           02702                           TC       DPOUTNOR
001358: 04,2666           50103                           INDEX    DECOUNT                               #  GET IDADDTAB ENTRY FOR COMPONENT K
001359: 04,2667           30134                           CA       IDAD1TEM                              #      OF NOUN.
001360: 04,2670           75234                           MASK     LOW11                                 #  E SUBK
001361: 04,2671           05171                           TC       SETEBANK                              #  SET EB, LEAVE EADRES IN A.
001362: 04,2672           00006        DPOUTCOM           EXTEND
001363: 04,2673           50000                           INDEX    A                                     #  MIXED         NORMAL
001364: 04,2674           30001                           DCA      0                                     #  C(ESUBK)      C(E)
001365: 04,2675           52141                           DXCH     MPAC                                  #  C((E SUBK)+1)      C(E+1)
001366: 04,2676           07235                           TC       TPAGREE
001367: 04,2677           07063                           TC       DMP
001368: 04,2700           00107                           ADRES    SFTEMP1
001369: 04,2701           00105                           TC       OVFIND
001370:
001371: 04,2702           30131        DPOUTNOR           CA       NOUNADD                               #  E
001372: 04,2703           02672                           TC       DPOUTCOM
001373:
001374:
001375:
001376:                                                                                                  #  THIS IS A SPECIAL PURPOSE VERB FOR DISPLAYING A DOUBLE PRECISION AGC
001377:                                                                                                  #  WORD AS 10 DECIMAL DIGITS ON THE AGC DISPLAY PANEL.  IT CAN BE USED WITH
001378:                                                                                                  #  ANY NOUN, EXCEPT MIXED NOUNS. IT DISPLAYS THE CONTENTS
001379:                                                                                                  #  OF THE REGISTER NOUNADD IS POINTING TO .  IF USED WITH NOUNS WHICH ARE
001380:                                                                                                  #  INHERENTLY NOT DP SUCH AS THE CDU COUNTERS THE DISPLAY WILL BE GARBAGE.
001381:                                                                                                  #  DISPLAY IS IN R1 AND R2 ONLY WITH THE SIGN IN R1.
001382:
001383:
001384:
001385: 04,2704           50124        DSPDPDEC           INDEX    MIXBR
001386: 04,2705           02705                           TC       +0
001387: 04,2706           02710                           TC       +2                                    #  NORMAL NOUN
001388: 04,2707           03277                           TC       DSPALARM
001389:


001391: 04,2710           00006                           EXTEND
001392: 04,2711           50131                           INDEX    NOUNADD
001393: 04,2712           30001                           DCA      0
001394: 04,2713           52141                           DXCH     MPAC
001395: 04,2714           35175                           CAF      R1D1
001396: 04,2715           54264                           TS       DSPCOUNT
001397: 04,2716           37665                           CAF      ZERO
001398: 04,2717           54142                           TS       MPAC       +2
001399: 04,2720           07235                           TC       TPAGREE
001400: 04,2721           03155                           TC       DSP2DEC
001401: 04,2722           00122        ENDDPDEC           TC       ENTEXIT
001402:


001404:                                                                                                  #           LOAD VERBS
001405:
001406:
001407:
001408: 05,2535                                           SETLOC   ENDRTOUT
001409:
001410: 05,2535           47656        ABCLOAD            CS       TWO
001411: 05,2536           02376                           TC       COMPTEST
001412: 05,2537           32673                           CAF      VBSP1LD
001413: 05,2540           02314                           TC       UPDATVB    -1
001414: 05,2541           02252                           TC       REQDATX
001415: 05,2542           32674                           CAF      VBSP2LD
001416: 05,2543           02314                           TC       UPDATVB    -1
001417: 05,2544           02254                           TC       REQDATY
001418: 05,2545           32675                           CAF      VBSP3LD
001419: 05,2546           02314                           TC       UPDATVB    -1
001420: 05,2547           02256                           TC       REQDATZ
001421:
001422:
001423:
001424: 05,2550           46162        PUTXYZ             CS       SIX                                   #  TEST THAT THE 3 DATA WORDS LOADED ARE
001425: 05,2551           02676                           TC       ALLDC/OC                              #  ALL DEC OR ALL OCT.
001426: 05,2552           00006                           EXTEND
001427: 05,2553           32076                           DCA      LODNNLOC                              #  SWITCH BANKS TO NOUN TABLE READING
001428: 05,2554           52006                           DXCH     Z                                     #  ROUTINE.
001429: 05,2555           37665                           CAF      ZERO                                  #  X COMP
001430: 05,2556           02762                           TC       PUTCOM
001431: 05,2557           50131                           INDEX    NOUNADD
001432: 05,2560           54000                           TS       0
001433: 05,2561           37657                           CAF      ONE                                   #  Y COMP
001434: 05,2562           02762                           TC       PUTCOM
001435: 05,2563           50131                           INDEX    NOUNADD
001436: 05,2564           54001                           TS       1
001437: 05,2565           37656                           CAF      TWO                                   #  Z COMP
001438: 05,2566           02762                           TC       PUTCOM
001439: 05,2567           50131                           INDEX    NOUNADD
001440: 05,2570           54002                           TS       2
001441: 05,2571           02663                           TC       LOADLV
001442:
001443: 05,2572           47657        ABLOAD             CS       ONE
001444: 05,2573           02376                           TC       COMPTEST
001445: 05,2574           32673                           CAF      VBSP1LD
001446: 05,2575           02314                           TC       UPDATVB    -1
001447: 05,2576           02252                           TC       REQDATX
001448: 05,2577           32674                           CAF      VBSP2LD
001449: 05,2600           02314                           TC       UPDATVB    -1
001450: 05,2601           02254                           TC       REQDATY
001451: 05,2602           47664        PUTXY              CS       FIVE                                  #  TEST THAT THE 2 DATA WORDS LOADED ARE
001452: 05,2603           02676                           TC       ALLDC/OC                              #  ALL DEC OR ALL OCT.
001453: 05,2604           00006                           EXTEND
001454:


001456: 05,2605           32076                           DCA      LODNNLOC                              #  SWITCH BANKS TO NOUN TABLE READING
001457: 05,2606           52006                           DXCH     Z                                     #  ROUTINE.
001458: 05,2607           37665                           CAF      ZERO                                  #  X COMP
001459: 05,2610           02762                           TC       PUTCOM
001460: 05,2611           50131                           INDEX    NOUNADD
001461: 05,2612           54000                           TS       0
001462: 05,2613           37657                           CAF      ONE                                   #  Y COMP
001463: 05,2614           02762                           TC       PUTCOM
001464: 05,2615           50131                           INDEX    NOUNADD
001465: 05,2616           54001                           TS       1
001466: 05,2617           02663                           TC       LOADLV
001467:
001468: 05,2620           02252        ALOAD              TC       REQDATX
001469: 05,2621           00006                           EXTEND
001470: 05,2622           32076                           DCA      LODNNLOC                              #  SWITCH BANKS TO NOUN TABLE READING
001471: 05,2623           52006                           DXCH     Z                                     #  ROUTINE.
001472: 05,2624           37665                           CAF      ZERO                                  #  X COMP
001473: 05,2625           02762                           TC       PUTCOM
001474: 05,2626           50131                           INDEX    NOUNADD
001475: 05,2627           54000                           TS       0
001476: 05,2630           02663                           TC       LOADLV
001477:
001478: 05,2631           47657        BLOAD              CS       ONE
001479: 05,2632           02376                           TC       COMPTEST
001480: 05,2633           37641                           CAF      BIT15                                 #  SET CLPASS FOR PASS0 ONLY
001481: 05,2634           54302                           TS       CLPASS
001482: 05,2635           02254                           TC       REQDATY
001483: 05,2636           00006                           EXTEND
001484: 05,2637           32076                           DCA      LODNNLOC                              #  SWITCH BANKS TO NOUN TABLE READING
001485: 05,2640           52006                           DXCH     Z                                     #  ROUTINE.
001486: 05,2641           37657                           CAF      ONE
001487: 05,2642           02762                           TC       PUTCOM
001488: 05,2643           50131                           INDEX    NOUNADD
001489: 05,2644           54001                           TS       1
001490: 05,2645           02663                           TC       LOADLV
001491:
001492: 05,2646           47656        CLOAD              CS       TWO
001493: 05,2647           02376                           TC       COMPTEST
001494: 05,2650           37641                           CAF      BIT15                                 #  SET CLPASS FOR PASS0 ONLY
001495: 05,2651           54302                           TS       CLPASS
001496: 05,2652           02256                           TC       REQDATZ
001497: 05,2653           00006                           EXTEND
001498: 05,2654           32076                           DCA      LODNNLOC                              #  SWITCH BANKS TO NOUN TABLE READING
001499: 05,2655           52006                           DXCH     Z                                     #  ROUTINE.
001500: 05,2656           37656                           CAF      TWO
001501: 05,2657           02762                           TC       PUTCOM
001502: 05,2660           50131                           INDEX    NOUNADD
001503: 05,2661           54002                           TS       2
001504: 05,2662           02663                           TC       LOADLV
001505:


001507: 05,2663           37665        LOADLV             CAF      ZERO
001508: 05,2664           54265                           TS       DECBRNCH
001509: 05,2665           47665                           CS       ZERO
001510: 05,2666           54301                           TS       LOADSTAT
001511: 05,2667           45237                           CS       VD1                                   #  TO BLOCK NUMERICAL CHARACTERS AND
001512: 05,2670           54264                           TS       DSPCOUNT                              #  CLEARS AFTER A COMPLETED LOAD
001513: 05,2671           04102                           TC       POSTJUMP                              #  AFTER COMPLETED LOAD, GO TO RECALTST
001514: 05,2672           11422                           CADR     RECALTST                              #  TO SEE IF THERE IS RECALL FROM ENDIDLE.
001515:
001516: 05,2673           00021        VBSP1LD            OCT      21                                    #  VB21 = ALOAD
001517: 05,2674           00022        VBSP2LD            OCT      22                                    #  VB22 = BLOAD
001518: 05,2675           00023        VBSP3LD            OCT      23                                    #  VB23 = CLOAD
001519:
001520:
001521:
001522: 05,2676           54103        ALLDC/OC           TS       DECOUNT                               #  TESTS THAT DATA WORDS LOADED ARE EITHER
001523: 05,2677           40265                           CS       DECBRNCH                              #  ALL DEC OR ALL OCT. ALARMS IF NOT.
001524: 05,2700           54021                           TS       SR
001525: 05,2701           40021                           CS       SR
001526: 05,2702           40021                           CS       SR                                    #  SHIFTED RIGHT 2
001527: 05,2703           10000                           CCS      A                                     #  DEC COMP BITS IN LOW 3
001528: 05,2704           12706                           TCF      +2                                    #  SOME ONES IN LOW 3
001529: 05,2705           00002                           TC       Q                                     #  ALL ZEROS. ALL OCTAL.  OK
001530: 05,2706           60103                           AD       DECOUNT                               #  DEC COMP = 7 FOR 3COMP, =6 FOR 2COMP
001531: 05,2707           00006                           EXTEND                                         #  (BUT IT HAS BEEN DECREMENTED BY CCS)
001532: 05,2710           12712                           BZF      +2                                    #  MUST MATCH 6 FOR 3COMP, 5 FOR 2COMP.
001533: 05,2711           02324                           TC       GODSPALM
001534: 05,2712           00002        GOQ                TC       Q                                     #  ALL REQUIRED ARE DEC. OK
001535:
001536:
001537:
001538: 05,2713           56002        SFRUTNOR           XCH      Q                                     #  GETS SF ROUTINE NUMBER FOR NORMAL CASE
001539: 05,2714           54100                           TS       EXITEM                                #  CANT USE L FOR RETURN. TSTFORDP USES L.
001540: 05,2715           35225                           CAF      MID5
001541: 05,2716           70133                           MASK     NNTYPTEM
001542: 05,2717           05200                           TC       RIGHT5
001543: 05,2720           00100                           TC       EXITEM                                #  SF ROUTINE NUMBER IN A
001544:
001545: 05,2721           56002        SFRUTMIX           XCH      Q                                     #  GETS SF ROUTINE NUMBER FOR MIXED CASE
001546: 05,2722           54100                           TS       EXITEM
001547: 05,2723           50103                           INDEX    DECOUNT
001548: 05,2724           32753                           CAF      DISPLACE                              #  PUT TC GOQ, TC RIGHT5, OR TC LEFT5 IN L
001549: 05,2725           54001                           TS       L
001550: 05,2726           50103                           INDEX    DECOUNT
001551: 05,2727           35224                           CAF      LOW5                                  #  LOW5, MID5, OR HI5 IN A
001552: 05,2730           70137                           MASK     RUTMXTEM                              #  GET HI5, MID5, OR LOW5 OF RUTMXTAB ENTRY
001553: 05,2731           50001                           INDEX    L
001554: 05,2732           00000                           TC       0
001555:                                                                                                  #  DO TC GOQ(DECOUNT=0), DO TC RIGHT5(DECOUNT=1), DO TC LEFT5(DECOUNT=2).
001556: 05,2733           00100        SFRET1             TC       EXITEM                                #  SF ROUTINE NUMBER IN A
001557:


001559: 05,2734           56002        SFCONUM            XCH      Q                                     #  GETS 2X( SF CONSTANT NUMBER)
001560: 05,2735           54100                           TS       EXITEM
001561: 05,2736           50124                           INDEX    MIXBR
001562: 05,2737           02737                           TC       +0
001563: 05,2740           02756                           TC       CONUMNOR                              #  NORMAL NOUN
001564: 05,2741           50103                           INDEX    DECOUNT                               #  MIXED NOUN
001565: 05,2742           32753                           CAF      DISPLACE
001566: 05,2743           54001                           TS       L                                     #  PUT TC GOQ, TC RIGHT5, OR TC LEFT5 IN L
001567: 05,2744           50103                           INDEX    DECOUNT
001568: 05,2745           35224                           CAF      LOW5
001569: 05,2746           70133                           MASK     NNTYPTEM
001570: 05,2747           50001                           INDEX    L
001571: 05,2750           00000                           TC       0
001572:                                                                                                  #  DO TC GOQ(DECOUNT=0), DO TC RIGHT5(DECOUNT=1), DO TC LEFT5(DECOUNT=2).
001573: 05,2751           60000        SFRET              DOUBLE                                         #  2X(SF CONSTANT NUMBER ) IN A
001574: 05,2752           00100                           TC       EXITEM
001575:
001576: 05,2753           02712        DISPLACE           TC       GOQ
001577: 05,2754           05200                           TC       RIGHT5
001578: 05,2755           05207                           TC       LEFT5
001579:
001580: 05,2756           35224        CONUMNOR           CAF      LOW5                                  #  NORMAL NOUN ALWAYS GETS LOW 5 OF
001581: 05,2757           70133                           MASK     NNTYPTEM                              #  NNTYPTAB FOR SF CONUM.
001582: 05,2760           60000                           DOUBLE
001583: 05,2761           00100                           TC       EXITEM                                #  2X( SF CONSTANT NUMBER) IN A
001584:
001585:
001586:
001587: 05,2762           54103        PUTCOM             TS       DECOUNT
001588: 05,2763           56002                           XCH      Q
001589: 05,2764           54101                           TS       DECRET
001590: 05,2765           37665                           CAF      ZERO
001591: 05,2766           54105                           TS       OVFIND
001592: 05,2767           50103                           INDEX    DECOUNT
001593: 05,2770           56273                           XCH      XREGLP
001594: 05,2771           54141                           TS       MPAC       +1
001595: 05,2772           50103                           INDEX    DECOUNT
001596: 05,2773           56270                           XCH      XREG
001597: 05,2774           54140                           TS       MPAC
001598: 05,2775           50124                           INDEX    MIXBR
001599: 05,2776           02776                           TC       +0
001600: 05,2777           03023                           TC       PUTNORM                               #  NORMAL NOUN
001601:                                                                                                  #  IF MIXNOUN, PLACE ADDRESS FOR COMPONENT K INTO NOUNADD, SET EBANK BITS.
001602: 05,3000           50103                           INDEX    DECOUNT                               #  GET IDADDTAB ENTRY FOR COMPONENT K
001603: 05,3001           30134                           CA       IDAD1TEM                              #          OF NOUN.
001604: 05,3002           75234                           MASK     LOW11                                 #  (ECADR)SUBK FOR CURRENT COMP OF NOUN
001605: 05,3003           05161                           TC       SETNCADR                              #  ECADR INTO NOUNCADR. SETS EB, NOUNADD.
001606: 05,3004           00006                           EXTEND                                         #  C(NOUNADD) IN A UPON RETURN
001607: 05,3005           60103                           SU       DECOUNT                               #  PLACE (ESUBK)-K INTO NOUNADD
001608: 05,3006           54131                           TS       NOUNADD
001609:


001611: 05,3007           10265                           CCS      DECBRNCH
001612: 05,3010           03051                           TC       PUTDECSF                              #  +  DEC
001613: 05,3011           02721                           TC       SFRUTMIX                              #  +0  OCTAL
001614: 05,3012           02236                           TC       DPTEST
001615: 05,3013           03040                           TC       PUTCOM2                               #  NO DP
001616:                                                                                                  #  TEST FOR DP SCALE FOR OCT LOAD. IF SO,
001617:                                                                                                  #  +0 INTO MAJOR PART. SET NOUNADD FOR
001618:                                                                                                  #  LOADING OCTAL WORD INTO MINOR PART.
001619: 05,3014           24131        PUTDPCOM           INCR     NOUNADD                               #  DP  (ESUBK)-K+1  OR  E+1
001620: 05,3015           30131                           CA       NOUNADD                               #  NOUNADD NOW SET FOR MINOR PART
001621: 05,3016           26103                           ADS      DECOUNT                               #  (ESUBK)+1  OR  E+1  INTO DECOUNT
001622: 05,3017           37665                           CAF      ZERO                                  #  NOUNADD SET FOR MINOR PART
001623: 05,3020           50103                           INDEX    DECOUNT
001624: 05,3021           53777                           TS       0          -1                         #  ZERO MAJOR PART(ESUBK OR E)
001625: 05,3022           03040                           TC       PUTCOM2
001626:
001627: 05,3023           05167        PUTNORM            TC       SETNADD                               #  ECADR FROM NOUNCADR. SETS EB, NOUNADD.
001628: 05,3024           10265                           CCS      DECBRNCH
001629: 05,3025           03051                           TC       PUTDECSF                              #  +  DEC
001630: 05,3026           02713                           TC       SFRUTNOR                              #  +0  OCTAL
001631: 05,3027           02236                           TC       DPTEST
001632: 05,3030           03034                           TC       PUTCOM2    -4                         #  NO DP
001633: 05,3031           37665                           CAF      ZERO                                  #  DP
001634: 05,3032           54103                           TS       DECOUNT
001635: 05,3033           03014                           TC       PUTDPCOM
001636:
001637: 05,3034           30132                           CA       NNADTEM
001638: 05,3035           67657                           AD       ONE                                   #  IF NNADTEM = -1, CHANNEL TO BE SPECIFIED
001639: 05,3036           00006                           EXTEND
001640: 05,3037           13044                           BZF      CHANLOAD
001641: 05,3040           56140        PUTCOM2            XCH      MPAC
001642: 05,3041           00101                           TC       DECRET
001643:
001644: 05,3042     0264                                  EBANK=   DSPCOUNT
001645: 05,3042           02045 34000  GTSFINLC           2CADR    GTSFIN
001646:
001647: 05,3044           56140        CHANLOAD           XCH      MPAC
001648: 05,3045           00006                           EXTEND
001649: 05,3046           50304                           INDEX    NOUNCADR
001650: 05,3047           01000                           WRITE    0
001651: 05,3050           02663                           TC       LOADLV
001652:
001653:
001654:
001655:                                                                                                  #  PUTDECSF FINDS MIXBR AND DECOUNT STILL SET FROM PUTCOM
001656:
001657: 05,3051           02734        PUTDECSF           TC       SFCONUM                               #  2X(SF CON NUMB) IN A
001658: 05,3052           54107                           TS       SFTEMP1
001659:


001661: 05,3053           00006                           EXTEND                                         #  SWITCH BANKS TO SF CONSTANT TABLE
001662: 05,3054           33043                           DCA      GTSFINLC                              #  READING ROUTINE.
001663: 05,3055           52006                           DXCH     Z                                     #  LOADS SFTEMP1, SFTEMP2.
001664: 05,3056           50124                           INDEX    MIXBR
001665: 05,3057           03057                           TC       +0
001666: 05,3060           03063                           TC       PUTSFNOR
001667: 05,3061           02721                           TC       SFRUTMIX
001668: 05,3062           03064                           TC       PUTDCSF2
001669: 05,3063           02713        PUTSFNOR           TC       SFRUTNOR
001670:
001671: 05,3064           50000        PUTDCSF2           INDEX    A
001672: 05,3065           33067                           CAF      SFINTABR
001673: 05,3066           04105                           TC       BANKJUMP                              #  SWITCH BANKS FOR EXPANSHION ROOM
001674: 05,3067           11277        SFINTABR           CADR     DSPALARM                              #  ALARM IF DEC LOAD WITH OCTAL ONLY NOUN
001675:
001676: 05,3070           11003                           CADR     BINROUND
001677: 05,3071           10723                           CADR     DEGINSF
001678: 05,3072           10773                           CADR     ARTHINSF
001679: 05,3073           11023                           CADR     DPINSF
001680: 05,3074           11050                           CADR     DPINSF2
001681: 05,3075           11006                           CADR     OPTDEGIN
001682: 05,3076           11023                           CADR     DPINSF                                #  SAME AS ARITHDP1
001683: 05,3077                        ENDRUTIN           EQUALS
001684:
001685:
001686:
001687:                                                                                                  #  SCALE FACTORS FOR THOSE ROUTINES NEEDING THEM ARE AVAILABLE IN SFTEMP1.
001688:                                                                                                  #  ALL SFIN ROUTINES USE MPAC MPAC+1. LEAVE RESULT IN A. END WITH TC DECRET
001689:
001690:
001691:
001692: 04,2723                                           SETLOC   ENDDPDEC   +1
001693:
001694:                                                                                                  #  DEGINSF APPLIES 1000/180 = 5.55555(10) = 5.43434(8)
001695:
001696: 04,2723           07063        DEGINSF            TC       DMP                                   #  SF ROUTINE FOR DEC DEGREES
001697: 04,2724           02766                           ADRES    DEGCON1                               #  MULT BY 5.5 5(10)X2EXP-3
001698: 04,2725           10141                           CCS      MPAC       +1                         #  THIS ROUNDS OFF MPAC+1 BEFORE SHIFT
001699: 04,2726           37645                           CAF      BIT11                                 #  LEFT 3, AND CAUSES 360.00 TO OF/UF
001700: 04,2727           02731                           TC       +2                                    #  WHEN SHIFTED LEFT AND ALARM.
001701: 04,2730           47645                           CS       BIT11
001702: 04,2731           60141                           AD       MPAC       +1
001703: 04,2732           03066                           TC       2ROUND     +2
001704: 04,2733           05263                           TC       TPSL1                                 #  LEFT 1
001705: 04,2734           05263        DEGINSF2           TC       TPSL1                                 #  LEFT 2
001706: 04,2735           03075                           TC       TESTOFUF
001707: 04,2736           05263                           TC       TPSL1                                 #  RETURNS IF NO OF/UF (LEFT3)
001708: 04,2737           10140                           CCS      MPAC
001709: 04,2740           02744                           TC       SIGNFIX                               #  IF +, GO TO SIGNFIX
001710: 04,2741           02744                           TC       SIGNFIX                               #  IF +0, GO TO SIGNFIX
001711: 04,2742           40000                           COM                                            #  IF -, USE -MAGNITUDE +1
001712:


001714: 04,2743           54140                           TS       MPAC                                  #  IF -0, USE +0
001715: 04,2744           10105        SIGNFIX            CCS      OVFIND
001716: 04,2745           02762                           TC       SGNTO1                                #  IF OVERFLOW
001717: 04,2746           02756                           TC       ENDSCALE                              #  NO OVERFLOW/UNDERFLOW
001718: 04,2747           10140                           CCS      MPAC                                  #  IF UF FORCE SIGN TO 0 EXCEPT -180
001719: 04,2750           05464                           TC       CCSHOLE
001720: 04,2751           02760                           TC       NEG180
001721: 04,2752           02753                           TC       +1
001722: 04,2753           56140                           XCH      MPAC
001723: 04,2754           77637                           MASK     POSMAX
001724: 04,2755           54140                           TS       MPAC
001725: 04,2756           04102        ENDSCALE           TC       POSTJUMP
001726: 04,2757           13040                           CADR     PUTCOM2
001727:
001728: 04,2760           47637        NEG180             CS       POSMAX
001729: 04,2761           02755                           TC       ENDSCALE   -1
001730:
001731: 04,2762           40140        SGNTO1             CS       MPAC                                  #  IF OF FORCE SIGN TO 1
001732: 04,2763           77637                           MASK     POSMAX
001733: 04,2764           40000                           CS       A
001734: 04,2765           02755                           TC       ENDSCALE   -1
001735:
001736: 04,2766           26161 30707  DEGCON1            2DEC     5.555555555 B-3
001737:
001738: 04,2770           21616 07071  DEGCON2            2DEC     2.222222222 B-2
001739:
001740: 04,2772           71527        NEG.2              OCT      -06250                                #  = .197753906  I.E. THE BIAS SCALED
001741:
001742: 04,2773           07063        ARTHINSF           TC       DMP                                   #  SCALES MPAC, +1 BY SFTEMP1, SFTEMP2.
001743: 04,2774           00107                           ADRES    SFTEMP1                               #  ASSUMES POINT BETWEEN HI AND LO PARTS
001744: 04,2775           56142                           XCH      MPAC       +2                         #  OF SFCON. SHIFTS RESULTS LEFT BY 14.
001745: 04,2776           56141                           XCH      MPAC       +1                         #  (BY TAKING RESULTS FROM MPAC+1, MPAC+2)
001746: 04,2777           56140                           XCH      MPAC
001747: 04,3000           00006                           EXTEND
001748: 04,3001           13003                           BZF      BINROUND
001749: 04,3002           03277                           TC       DSPALARM                              #  TOO LARGE A LOAD
001750: 04,3003           03064        BINROUND           TC       2ROUND
001751: 04,3004           03075                           TC       TESTOFUF
001752: 04,3005           02756                           TC       ENDSCALE                              #  RETURNS IF NO OF/UF
001753:
001754:
001755:
001756: 04,3006           10140        OPTDEGIN           CCS      MPAC                                  #  OPTICS SCALING ROUTINE
001757: 04,3007           03013                           TC       +4
001758: 04,3010           03013                           TC       +3
001759: 04,3011           03277                           TC       DSPALARM                              #  REJECT NEGATIVE INPUT
001760: 04,3012           03277                           TC       DSPALARM                              #          DITTO
001761: 04,3013           32772        OPDEGIN2           CAF      NEG.2                                 #  RANGE IS 90 DEG
001762: 04,3014           26140                           ADS      MPAC                                  #  SUBTRACT BIAS
001763: 04,3015           07063                           TC       DMP                                   #  MULT BY 100 / 45  B-2
001764:


001766: 04,3016           02770                           ADRES    DEGCON2
001767: 04,3017           37644                           CAF      BIT12                                 #  ROUND AS IN DEGINSF
001768: 04,3020           60141                           AD       MPAC       +1
001769: 04,3021           03066                           TC       2ROUND     +2
001770: 04,3022           02734                           TC       DEGINSF2
001771:
001772: 04,3023           07063        DPINSF             TC       DMP                                   #  SCALES MPAC, MPAC +1 BY SFTEMP1,
001773: 04,3024           00107                           ADRES    SFTEMP1                               #  SFTEMP2.  STORES LOW PART OF RESULT
001774: 04,3025           56142                           XCH      MPAC       +2                         #  IN (E SUBK) +1 OR E+1
001775: 04,3026           60000                           DOUBLE
001776: 04,3027           54142                           TS       MPAC       +2
001777: 04,3030           37665                           CAF      ZERO
001778: 04,3031           60141                           AD       MPAC       +1
001779: 04,3032           03066                           TC       2ROUND     +2
001780: 04,3033           03075                           TC       TESTOFUF
001781: 04,3034           50124                           INDEX    MIXBR                                 #  RETURNS IF NO OF/UF
001782: 04,3035           03035                           TC       +0
001783: 04,3036           03046                           TC       DPINORM
001784: 04,3037           30103                           CA       DECOUNT                               #  MIXEDNOUN
001785: 04,3040           60131        DPINCOM            AD       NOUNADD                               #      MIXED                NORMAL
001786: 04,3041           54002                           TS       Q                                     #    E SUBK             E
001787: 04,3042           56141                           XCH      MPAC       +1
001788: 04,3043           50002                           INDEX    Q
001789: 04,3044           54001                           TS       1                                     #  PLACE LOW PART IN
001790: 04,3045           02756                           TC       ENDSCALE                              #  (E SUBK) +1    MIXED
001791: 04,3046           37665        DPINORM            CAF      ZERO                                  #  E +1         NORMAL
001792: 04,3047           03040                           TC       DPINCOM
001793:
001794:
001795:
001796: 04,3050           07063        DPINSF2            TC       DMP                                   #  ASSUMES POINT BETWEEN BITS 7-8 OF HIGH
001797: 04,3051           00107                           ADRES    SFTEMP1                               #  PART OF SF CONST. DPINSF2 SHIFTS RESULTS
001798: 04,3052           03054                           TC       TPLEFT7                               #  LEFT BY 7, ROUNDS MPAC+2 INTO MPAC+1.
001799: 04,3053           03025                           TC       DPINSF     +2
001800:
001801:
001802:
001803: 04,3054           56002        TPLEFT7            XCH      Q                                     #  OPERATES ON MPAC, MPAC+1, MPAC+2
001804: 04,3055           54110                           TS       SFTEMP2                               #  CANT USE L FOR RETURN. TPSL1 USES L.
001805: 04,3056           36162                           CAF      SIX                                   #  LEFT BY 7
001806: 04,3057           54107        LEFT7COM           TS       SFTEMP1
001807: 04,3060           05263                           TC       TPSL1
001808: 04,3061           10107                           CCS      SFTEMP1
001809: 04,3062           03057                           TC       LEFT7COM
001810: 04,3063           00110                           TC       SFTEMP2
001811:
001812: 04,3064           56141        2ROUND             XCH      MPAC       +1
001813: 04,3065           60000                           DOUBLE
001814:


001816: 04,3066           54141                           TS       MPAC       +1
001817: 04,3067           00002                           TC       Q                                     #  IF MPAC+1 DOES NOT OF/UF
001818: 04,3070           60140                           AD       MPAC
001819: 04,3071           54140                           TS       MPAC
001820: 04,3072           00002                           TC       Q                                     #  IF MPAC DOES NOT OF/UF
001821: 04,3073           54105                           TS       OVFIND
001822: 04,3074           00002        2RNDEND            TC       Q
001823:
001824:
001825:
001826: 04,3075           10105        TESTOFUF           CCS      OVFIND                                #  RETURNS IF NO OF/UF
001827: 04,3076           03277                           TC       DSPALARM                              #  OF
001828: 04,3077           00002                           TC       Q
001829: 04,3100           03277                           TC       DSPALARM                              #  UF
001830:


001832:                                                                                                  #  MONITOR ALLOWS OTHER KEYBOARD ACTIVITY. IT IS ENDED BY VERB TERMINATE,
001833:                                                                                                  #  ANY NVSUB CALL THAT PASSES THE DSPLOCK, OR ANOTHER MONITOR.
001834:
001835:                                                                                                  #  MONITOR ACTION IS SUSPENDED, BUT NOT ENDED, BY ANY KEYBOARD ACTION,
001836:                                                                                                  #  EXCEPT ERROR LIGHT RESET. IT BEGINS AGAIN WHEN KEY RELEASE IS PERFORMED.
001837:                                                                                                  #  MONITOR SAVES THE NOUN AND APPROPRIATE DISPLAY VERB IN MONSAVE. IT SAVES
001838:                                                                                                  #  NOUNCADR IN MONSAVE1, IF NOUN = MACHINE CADR TO BE SPECIFIED. BIT 15 OF
001839:                                                                                                  #  MONSAVE1 IS THE KILL MONITOR SIGNAL (KILLER BIT).
001840:
001841:                                                                                                  #  MONSAVE INDICATES IF MONITOR IS ON (+=ON, +0=OFF)
001842:                                                                                                  #  IF MONSAVE IS +, MONITOR ENTERS NO REQUEST, BUT TURNS KILLER BIT OFF.
001843:                                                                                                  #  IF MONSAVE IS +0, MONITOR ENTERS REQUEST AND TURNS KILLER BIT OFF.
001844:
001845:                                                                                                  #  NVSUB  AND VB=TERMINATE TURN KILL MONITOR BIT ON.
001846:
001847:                                                                                                  #  IF KILLER BIT IS ON, MONREQ ENTERS NO FURTHER REQUESTS, ZEROS MONSAVE
001848:                                                                                                  #  AND MONSAVE1 (TURNING OFF KILLER BIT).
001849:
001850:                                                                                                  #  MONITOR DOSENT TEST FOR MATBS SINCE NVSUB CAN HANDLE INTERNAL MATBS NOW
001851: 05,3077                                           SETLOC   ENDRUTIN
001852:
001853: 05,3077           47641        MONITOR            CS       BIT15
001854: 05,3100           70304                           MASK     NOUNCADR
001855: 05,3101           54141        MONIT1             TS       MPAC       +1                         #  TEMP STORAGE
001856: 05,3102           33401                           CAF      LOW6
001857: 05,3103           70266                           MASK     VERBREG
001858: 05,3104           05207                           TC       LEFT5
001859: 05,3105           54022                           TS       CYL
001860: 05,3106           56022                           XCH      CYL
001861: 05,3107           60267                           AD       NOUNREG
001862: 05,3110           54140                           TS       MPAC                                  #  TEMP STORAGE
001863: 05,3111           40324                           CS       GRABLOCK                              #  NEITHER CASE SEARCHES LIST.
001864: 05,3112           67656                           AD       TWO
001865: 05,3113           10000                           CCS      A
001866: 05,3114           05364                           TC       RELDSP1                               #  GRABLOCK=0,1, +0 INTO DSPLOCK AND
001867: 05,3115           03121                           TC       +4                                    #  TURN OFF KEY RLSE LIGHT.
001868: 05,3116           05464                           TC       CCSHOLE
001869: 05,3117           37665                           CAF      ZERO                                  #  GRABLOCK=2, +0 INTO DSPLOCK AND
001870: 05,3120           54277                           TS       DSPLOCK                               #  LEAVE KEY RLSE LIGHT ALONE
001871: 05,3121           00004                           INHINT
001872: 05,3122           10305                           CCS      MONSAVE
001873: 05,3123           03130                           TC       +5                                    #  IF MONSAVE WAS +, NO REQUEST
001874: 05,3124           37657                           CAF      ONE                                   #  IF MONSAVE WAS 0, REQUEST MONREQ
001875: 05,3125           04536                           TC       WAITLIST
001876: 05,3126     0264                                  EBANK=   DSPCOUNT
001877: 05,3126           03134 12000                     2CADR    MONREQ
001878:
001879: 05,3130           52141                           DXCH     MPAC                                  #  PLACE MONITOR VERB AND NOUN INTO MONSAVE
001880:


001882: 05,3131           52306                           DXCH     MONSAVE                               #  ZERO THE KILL MONITOR BIT
001883: 05,3132           00003                           RELINT
001884: 05,3133           00122                           TC       ENTRET
001885:
001886:
001887:
001888: 05,3134           05257        MONREQ             TC       LODSAMPT                              #  CALLED BY WAITLIST
001889: 05,3135           10306                           CCS      MONSAVE1                              #  TIME IS SNATCHED IN RUPT FOR NOUN 65
001890: 05,3136           03142                           TC       +4                                    #  IF KILLER BIT = 0, ENTER REQUESTS
001891: 05,3137           03142                           TC       +3                                    #  IF KILLER BIT = 0, ENTER REQUESTS
001892: 05,3140           03153                           TC       KILLMON                               #  IF KILLER BIT = 1, NO REQUESTS
001893: 05,3141           03153                           TC       KILLMON                               #  IF KILLER BIT = 1, NO REQUESTS
001894: 05,3142           33157                           CAF      MONDEL
001895: 05,3143           04536                           TC       WAITLIST                              #  ENTER WAITLIST REQUEST FOR MONREQ
001896: 05,3144     0264                                  EBANK=   DSPCOUNT
001897: 05,3144           03134 12000                     2CADR    MONREQ
001898: 05,3146           35233                           CAF      CHRPRIO
001899: 05,3147           04363                           TC       NOVAC                                 #  ENTER EXEC REQUEST FOR MONDO
001900: 05,3150     0264                                  EBANK=   DSPCOUNT
001901: 05,3150           03160 12000                     2CADR    MONDO
001902:
001903: 05,3152           04602                           TC       TASKOVER
001904:
001905: 05,3153           37665        KILLMON            CAF      ZERO                                  #  ZERO MONSAVE AND TURN KILLER BIT OFF
001906: 05,3154           54305                           TS       MONSAVE
001907: 05,3155           54306                           TS       MONSAVE1                              #  TURN OFF KILL MONITOR BIT.
001908: 05,3156           04602                           TC       TASKOVER
001909:
001910:
001911:
001912: 05,3157           00144        MONDEL             OCT      144                                   #  FOR 1 SEC MONITOR INTERVALS
001913:
001914:
001915:
001916: 05,3160           10306        MONDO              CCS      MONSAVE1                              #  CALLED BY EXEC
001917: 05,3161           03165                           TC       +4                                    #  IF KILLER BIT = 0, CONTINUE
001918: 05,3162           03165                           TC       +3                                    #  IF KILLER BIT = 0, CONTINUE
001919: 05,3163           04440                           TC       ENDOFJOB                              #  IN CASE TERMINATE CAME SINCE LAST MONREQ
001920: 05,3164           04440                           TC       ENDOFJOB                              #  IN CASE TERMINATE CAME SINCE LAST MONREQ
001921: 05,3165           10277                           CCS      DSPLOCK
001922: 05,3166           03212                           TC       MONBUSY                               #  NVSUB IS BUSY
001923: 05,3167           33401                           CAF      LOW6                                  #  NVSUB IS AVAILABLE
001924: 05,3170           70305                           MASK     MONSAVE
001925: 05,3171           54107                           TS       NVTEMP
001926: 05,3172           05123                           TC       NVSUBMON                              #  PLACE NOUN INTO NOUNREG AND DISPLAY IT
001927: 05,3173           04440                           TC       ENDOFJOB                              #  IN CASE OF ALARM DURING DISPLAY
001928: 05,3174           33210                           CAF      MONMASK
001929: 05,3175           70305                           MASK     MONSAVE                               #  CHANGE MONITOR VERB TO DISPLAY VERB
001930: 05,3176           05200                           TC       RIGHT5
001931:


001933: 05,3177           54020                           TS       CYR
001934: 05,3200           56020                           XCH      CYR
001935: 05,3201           54266                           TS       VERBREG
001936: 05,3202           33211                           CAF      MONBACK                               #  SET RETURN TO PASTEVB AFTER DATA DISPLAY
001937: 05,3203           54122                           TS       ENTRET
001938: 05,3204           47641                           CS       BIT15
001939: 05,3205           70306                           MASK     MONSAVE1                              #  PUT ECADR INTO MPAC +2.  INTMCTBS WILL
001940: 05,3206           54142                           TS       MPAC       +2                         #  DISPLAY IT AND SET NOUNCADR, NOUNADD,
001941: 05,3207           02037        ENDMONDO           TC       TESTNN                                #  EBANK.
001942:
001943:    5100                                           SETLOC   ENDRMODF
001944:
001945:    5100           35106        PASTEVB            CAF      MIDSIX
001946:    5101           70305                           MASK     MONSAVE
001947:    5102           54107                           TS       NVTEMP                                #  PLACE MONITOR VERB INTO VERBREG AND
001948:    5103           05123                           TC       NVSUBMON                              #       DISPLAY IT.
001949:    5104           05105                           TC       +1                                    #  IN CASE OF ALARM DURING DISPLAY
001950:    5105           04440        ENDPASTE           TC       ENDOFJOB
001951:
001952:    5106           07700        MIDSIX             OCT      07700
001953:
001954:
001955:
001956: 05,3210                                           SETLOC   ENDMONDO   +1
001957: 05,3210           00700        MONMASK            OCT      700
001958: 05,3211           05100        MONBACK            ADRES    PASTEVB
001959:
001960: 05,3212           05253        MONBUSY            TC       RELDSPON                              #  TURN KEY RELEASE LIGHT
001961: 05,3213           04440                           TC       ENDOFJOB
001962:
001963:
001964:
001965:                                                                                                  #  DSPFMEM IS USED TO DISPLAY (IN OCTAL) ANY FIXED REGISTER.
001966:                                                                                                  #  IT IS USED WITH NOUN = MACHINE CADR TO BE SPECIFIED. THE FCADR OF THE
001967:                                                                                                  #  DESIRED LOCATION IS THEN PUNCHED IN. IT HANDLES F/F ( FCADR 4000-7777)
001968:
001969: 05,3214           35175        DSPFMEM            CAF      R1D1                                  #  IF F/F, DATACALL USES BANK 02 OR 03.
001970: 05,3215           54264                           TS       DSPCOUNT
001971: 05,3216           30304                           CA       NOUNCADR                              #  ORIGINAL FCADR LOADED STILL IN NOUNCADR.
001972: 05,3217           04116                           TC       DATACALL
001973: 05,3220           03222                           TC       DSPOCTWD
001974: 05,3221           04440        ENDSPF             TC       ENDOFJOB
001975:


001977:                                                                                                  #   DSPDECWD CONVERTS C(MPAC) AND C(MPAC+1) TO A SIGN AND 5 CHAR DECIMAL
001978:                                                                                                  #  STARTING IN LOC SPECIFIED IN DSPCOUNT
001979:
001980: 04,3101                                           SETLOC   TESTOFUF   +4
001981: 04,3101           56002        DSPDECWD           XCH      Q                                     #  USES SHORTMP THROUGHOUT
001982: 04,3102           54101                           TS       WDRET                                 #  CANT USE L FOR RETURN.+ON USES L.
001983: 04,3103           10140                           CCS      MPAC
001984: 04,3104           03113                           TC       +7
001985: 04,3105           03113                           TC       +6
001986: 04,3106           67657                           AD       ONE
001987: 04,3107           54140                           TS       MPAC
001988: 04,3110           02313                           TC       -ON
001989: 04,3111           40141                           CS       MPAC       +1
001990: 04,3112           03115                           TC       +3
001991: 04,3113           02273                           TC       +ON
001992: 04,3114           56141                           XCH      MPAC       +1
001993: 04,3115           63154                           AD       DECROUND
001994: 04,3116           54141                           TS       MPAC       +1
001995: 04,3117           37665                           CAF      ZERO
001996: 04,3120           60140                           AD       MPAC
001997: 04,3121           54140                           TS       MPAC
001998: 04,3122           03126                           TC       +4
001999: 04,3123           37637                           CAF      POSMAX
002000: 04,3124           54140                           TS       MPAC
002001: 04,3125           54141                           TS       MPAC       +1
002002: 04,3126           37655                           CAF      FOUR
002003: 04,3127           54123        DSPDCWD1           TS       WDCNT
002004: 04,3130           35242                           CAF      BINCON
002005: 04,3131           07266                           TC       SHORTMP
002006: 04,3132           50140        TRACE1             INDEX    MPAC
002007: 04,3133           34741                           CAF      RELTAB
002008: 04,3134           75224                           MASK     LOW5
002009: 04,3135           54110                           TS       CODE
002010: 04,3136           37665                           CAF      ZERO
002011: 04,3137           56142                           XCH      MPAC       +2
002012: 04,3140           56141                           XCH      MPAC       +1
002013: 04,3141           54140                           TS       MPAC
002014: 04,3142           56264                           XCH      DSPCOUNT
002015: 04,3143           54127        TRACE1S            TS       COUNT
002016: 04,3144           10000                           CCS      A                                     #  DECREMENT DSPCOUNT EXCEPT AT +0
002017: 04,3145           54264                           TS       DSPCOUNT
002018: 04,3146           03201                           TC       DSPIN
002019: 04,3147           10123                           CCS      WDCNT
002020: 04,3150           03127                           TC       DSPDCWD1
002021: 04,3151           45237                           CS       VD1
002022: 04,3152           54264                           TS       DSPCOUNT
002023: 04,3153           00101                           TC       WDRET
002024:
002025: 04,3154           02476        DECROUND           OCT      02476
002026:


002028:                                                                                                  #  DSP2DEC CONVERTS C(MPAC) AND C(MPAC+1) INTO A SIGN AND 10 CHAR DECIMAL
002029:                                                                                                  #  STARTING IN THE LOC SPECIFIED IN DSPCOUNT.
002030:
002031: 04,3155           56002        DSP2DEC            XCH      Q                                     #  MUST USE SAME RETURN AS DSPDECWD
002032: 04,3156           54101                           TS       WDRET
002033: 04,3157           37665                           CAF      ZERO
002034: 04,3160           54110                           TS       CODE
002035: 04,3161           36165                           CAF      THREE
002036: 04,3162           03263                           TC       11DSPIN                               #  -R2 OFF
002037: 04,3163           37655                           CAF      FOUR
002038: 04,3164           03263                           TC       11DSPIN                               #  +R2 OFF
002039: 04,3165           10140                           CCS      MPAC
002040: 04,3166           03176                           TC       +8D
002041: 04,3167           03176                           TC       +7
002042: 04,3170           67657                           AD       ONE
002043: 04,3171           54140                           TS       MPAC
002044: 04,3172           02313                           TC       -ON
002045: 04,3173           40141                           CS       MPAC       +1
002046: 04,3174           54141                           TS       MPAC       +1
002047: 04,3175           03177                           TC       +2
002048: 04,3176           02273                           TC       +ON
002049: 04,3177           35176                           CAF      R2D1
002050: 04,3200           03127        END2DEC            TC       DSPDCWD1
002051:
002052:
002053:
002054: 05,3222                                           SETLOC   DSPFMEM    +6
002055:                                                                                                  #  DSPOCTWD DISPLAYS C(A) UPON ENTRY AS A 5 CHAR OCT STARTING IN THE DSP
002056:                                                                                                  #  CHAR SPECIFIED IN DSPCOUNT. IT STOPS AFTER 5 CHAR HAVE BEEN DISPLAYED.
002057:
002058: 05,3222           54022        DSPOCTWD           TS       CYL
002059: 05,3223           56002                           XCH      Q
002060: 05,3224           54101                           TS       WDRET                                 #  MUST USE SAME RETURN AS DSP2BIT.
002061: 05,3225           37642                           CAF      BIT14                                 #  TO BLANK SIGNS
002062: 05,3226           26264                           ADS      DSPCOUNT
002063: 05,3227           37655                           CAF      FOUR
002064: 05,3230           54123        WDAGAIN            TS       WDCNT
002065: 05,3231           40022                           CS       CYL
002066: 05,3232           40022                           CS       CYL
002067: 05,3233           40022                           CS       CYL
002068: 05,3234           40000                           CS       A
002069: 05,3235           77663                           MASK     DSPMSK
002070: 05,3236           50000                           INDEX    A
002071: 05,3237           34741                           CAF      RELTAB
002072: 05,3240           75224                           MASK     LOW5
002073: 05,3241           54110                           TS       CODE
002074: 05,3242           56264                           XCH      DSPCOUNT
002075: 05,3243           54127                           TS       COUNT
002076: 05,3244           10000                           CCS      A                                     #  DECREMENT DSPCOUNT EXCEPT AT +0
002077: 05,3245           54264                           TS       DSPCOUNT
002078:


002080: 05,3246           04102                           TC       POSTJUMP
002081: 05,3247           11271                           CADR     DSPOCTIN
002082: 05,3250           10123        OCTBACK            CCS      WDCNT
002083: 05,3251           03230                           TC       WDAGAIN                               #  +
002084: 05,3252           45237        DSPLV              CS       VD1                                   #  TO BLOCK NUMERICAL CHARACTERS, CLEARS,
002085: 05,3253           54264                           TS       DSPCOUNT                              #  AND SIGNS AFTER A COMPLETED DISPLAY.
002086: 05,3254           00101                           TC       WDRET
002087:
002088: 05,3255     7663               DSPMSK             =        SEVEN
002089:
002090:
002091:
002092:                                                                                                  #  DSP2BIT DISPLAYS C(A) UPON ENTRY AS A 2 CHAR OCT BEGINNING IN THE DSP
002093:                                                                                                  #  LOC SPECIFIED IN DSPCOUNT BY PRE CYCLING RIGHT C(A) AND USING THE LOGIC
002094:                                                                                                  #  OF THE 5 CHAR OCTAL DISPLAY
002095:
002096: 05,3255           54020        DSP2BIT            TS       CYR
002097: 05,3256           56002                           XCH      Q
002098: 05,3257           54101                           TS       WDRET                                 #  CANT USE L AS RETURN. UPDATNN USES L.
002099: 05,3260           37657                           CAF      ONE
002100: 05,3261           54123                           TS       WDCNT
002101: 05,3262           40020                           CS       CYR
002102: 05,3263           40020                           CS       CYR
002103: 05,3264           56020                           XCH      CYR
002104: 05,3265           54022                           TS       CYL
002105: 05,3266           03235                           TC       WDAGAIN    +5
002106:
002107:
002108:
002109:                                                                                                  #  FOR DSPIN PLACE 0/25 OCT INTO COUNT, 5 BIT RELAY CODE INTO CODE. BOTH
002110:                                                                                                  #  ARE DESTROYED. IF BIT14 OF COUNT IS 1, SIGN IS BLANKED WITH LEFT CHAR.
002111:                                                                                                  #  FOR DSPIN1 PLACE 0,1 INTO BIT11 OF CODE, 2 INTO COUNT, REL ADDRESS OF
002112:                                                                                                  #  DSPTAB ENTRY INTO DSREL.
002113:
002114: 04,3201                                           SETLOC   END2DEC    +1
002115:
002116: 04,3201           56002        DSPIN              XCH      Q                                     #  CANT USE L FOR RETURN, SINCE MANY OF THE
002117: 04,3202           54100                           TS       DSEXIT                                #  ROUTINES CALLING DSPIN USE L AS RETURN.
002118: 04,3203           35224                           CAF      LOW5
002119: 04,3204           70127                           MASK     COUNT
002120: 04,3205           54021                           TS       SR
002121: 04,3206           56021                           XCH      SR
002122: 04,3207           54125                           TS       DSREL
002123: 04,3210           37657                           CAF      BIT1
002124: 04,3211           70127                           MASK     COUNT
002125: 04,3212           10000                           CCS      A
002126: 04,3213           03215                           TC       +2                                    #  LEFT IF COUNT IS ODD
002127: 04,3214           03225                           TC       DSPIN1     -1                         #  RIGHT IF COUNT IS EVEN
002128: 04,3215           56110                           XCH      CODE
002129: 04,3216           05216                           TC       SLEFT5                                #  DOES NOT USE CYL
002130:


002132: 04,3217           54110                           TS       CODE
002133: 04,3220           37642                           CAF      BIT14
002134: 04,3221           70127                           MASK     COUNT
002135: 04,3222           10000                           CCS      A
002136: 04,3223           37656                           CAF      TWO                                   #  BIT14 = 1, BLANK SIGN
002137: 04,3224           67657                           AD       ONE                                   #  BIT14 = 0, LEAVE SIGN ALONE
002138: 04,3225           54127                           TS       COUNT                                 #  +0 INTO COUNT FOR RIGHT
002139:                                                                                                  #  +1 INTO COUNT FOR LEFT (SIGN LEFT ALONE)
002140:                                                                                                  #  +3 INTO COUNT FOR LEFT (TO BLANK SIGN)
002141: 04,3226           00004        DSPIN1             INHINT
002142: 04,3227           50125                           INDEX    DSREL
002143: 04,3230           10307                           CCS      DSPTAB
002144: 04,3231           03233                           TC       +2                                    #  IF +
002145: 04,3232           05464                           TC       CCSHOLE
002146: 04,3233           67657                           AD       ONE                                   #  IF -
002147: 04,3234           54126                           TS       DSMAG
002148: 04,3235           50127                           INDEX    COUNT
002149: 04,3236           73257                           MASK     DSMSK
002150: 04,3237           00006                           EXTEND
002151: 04,3240           60110                           SU       CODE
002152: 04,3241           00006                           EXTEND
002153: 04,3242           13255                           BZF      DSLV                                  #  SAME
002154: 04,3243           50127        DFRNT              INDEX    COUNT
002155: 04,3244           43257                           CS       DSMSK                                 #  MASK WITH 77740,76037, OR 75777
002156: 04,3245           70126                           MASK     DSMAG
002157: 04,3246           60110                           AD       CODE
002158: 04,3247           40000                           CS       A
002159: 04,3250           50125                           INDEX    DSREL
002160: 04,3251           56307                           XCH      DSPTAB
002161: 04,3252           00006                           EXTEND
002162: 04,3253           63255                           BZMF     DSLV                                  #  DSPTAB ENTRY WAS -
002163: 04,3254           24303                           INCR     NOUT                                  #  DSPTAB ENTRY WAS +
002164: 04,3255           00003        DSLV               RELINT
002165: 04,3256           00100                           TC       DSEXIT
002166:
002167: 04,3257           00037        DSMSK              OCT      37
002168: 04,3260           01740                           OCT      1740
002169: 04,3261           02000                           OCT      2000
002170: 04,3262           03740                           OCT      3740
002171:
002172:
002173:
002174:                                                                                                  #  FOR 11DSPIN, PUT REL ADDRESSS OF DSPTAB ENTRY INTO A, 1 IN BIT11 OR 0 IN
002175:                                                                                                  #  BIT11 OF CODE.
002176:
002177: 04,3263           54125        11DSPIN            TS       DSREL
002178: 04,3264           37656                           CAF      TWO
002179: 04,3265           54127                           TS       COUNT
002180: 04,3266           56002                           XCH      Q                                     #  MUST USE SAME RETURN AS DSPIN
002181: 04,3267           54100                           TS       DSEXIT
002182:


002184: 04,3270           03226                           TC       DSPIN1
002185:
002186:
002187:
002188: 04,3271           03201        DSPOCTIN           TC       DSPIN                                 #  SO DSPOCTWO DOESNT USE SWCALL
002189: 04,3272           33274                           CAF      +2
002190: 04,3273           04105                           TC       BANKJUMP
002191: 04,3274           13250        ENDSPOCT           CADR     OCTBACK
002192:
002193:
002194:
002195:                                                                                                  #  DSPALARM FINDS TC NVSUBEND IN ENTRET FOR NVSUB INITIATED ROUTINES.
002196:                                                                                                  #  ABORT WITH 01501.
002197:                                                                                                  #  DSPALARM FINDS TC ENDOFJOB IN ENTRET FOR KEYBOARD INITIATED ROUTINES.
002198:                                                                                                  #  DC TC ENTRET.
002199:
002200: 04,3275           35150        CHARALRM           CAF      ENDINST                               #  ALARMS WHICH MUST DO ENDOFJOBS COME
002201: 04,3276           54122                           TS       ENTRET                                #  HERE. ALLOWS ENTRET TO BE TEMP ERASABLE
002202:
002203: 04,3277           05243        DSPALARM           TC       FALTON                                #  TURN ON OPERATOR ERROR LIGHT
002204: 04,3300           43307                           CS       NVSBENDL
002205: 04,3301           60122                           AD       ENTEXIT
002206: 04,3302           00006                           EXTEND
002207: 04,3303           13305                           BZF      +2                                    #  NVSUB INITIATED. ABORT
002208: 04,3304           00122                           TC       ENTEXIT                               #  NOT NVSUB INITIATED.
002209: 04,3305           05446                           TC       ABORT
002210: 04,3306           01501                           OCT      01501
002211: 04,3307           05127        NVSBENDL           TC       NVSUBEND
002212:
002213:
002214:
002215:                                                                                                  #  MMCHANG USES NOUN DISPLAY UNTIL ENTER. THEN IT USES MODE DISP.
002216:                                                                                                  #  IT GOES TO MODROUT WITH THE NEW M M CODE IN A, BUT NOT DISPLAYED IN
002217:                                                                                                  #  M M LIGHTS.
002218:
002219: 05,3267                                           SETLOC   DSP2BIT    +10D
002220:
002221: 05,3267           03302        MMCHANG            TC       REQMM
002222: 05,3270           37665                           CAF      ZERO
002223: 05,3271           56267                           XCH      NOUNREG
002224: 05,3272           54140                           TS       MPAC
002225: 05,3273           35240                           CAF      ND1
002226: 05,3274           54264                           TS       DSPCOUNT
002227: 05,3275           04063                           TC       BANKCALL
002228: 05,3276           10541                           CADR     2BLANK
002229: 05,3277           30140                           CA       MPAC
002230: 05,3300           04102                           TC       POSTJUMP
002231: 05,3301           11277                           CADR     MODROUTB                              #  GO THRU STANDARD LOC.
002232:


002234: 05,3302  04,3277               MODROUTB           =        DSPALARM                              #  **FIX LATER**
002235: 05,3302           40002        REQMM              CS       Q
002236: 05,3303           54300                           TS       REQRET
002237: 05,3304           35240                           CAF      ND1
002238: 05,3305           54264                           TS       DSPCOUNT
002239: 05,3306           37665                           CAF      ZERO
002240: 05,3307           54267                           TS       NOUNREG
002241: 05,3310           04063                           TC       BANKCALL
002242: 05,3311           10541                           CADR     2BLANK
002243: 05,3312           05274                           TC       FLASHON
002244: 05,3313           00122                           TC       ENTEXIT
002245:
002246:
002247:
002248:                                                                                                  #  VBRQEXEC ENTERS REQUEST TO EXEC     FOR ANY ADDRESS WITH ANY PRIORITY.
002249:                                                                                                  #  IT DOES ENDOFJOB AFTER ENTERING REQUEST. DISPLAY SYST IS RELEASED.
002250:                                                                                                  #  IT ASSUMES NOUN 26 HAS BEEN PRELOADED WITH
002251:                                                                                                  #  COMPONENT 1  PRIORITY(BITS 10-14) BIT1=0 FOR NOVAC, BIT1=1 FOR FINDVAC.
002252:                                                                                                  #  COMPONENT 2  JOB ADRES (12 BIT )
002253:                                                                                                  #  COMPONENT 3  BBCON
002254:
002255: 05,3314           37657        VBRQEXEC           CAF      BIT1
002256: 05,3315           70333                           MASK     DSPTEM1
002257: 05,3316           10000                           CCS      A
002258: 05,3317           03336                           TC       SETVAC                                #  IF BIT1 = 1, FINDVAC
002259: 05,3320           35227                           CAF      TCNOVAC                               #  IF BIT1 = 0, NOVAC
002260: 05,3321           54140        REQEX1             TS       MPAC                                  #  TC NOVAC OR TC FINDVAC INTO MPAC
002261: 05,3322           47657                           CS       BIT1
002262: 05,3323           70333                           MASK     DSPTEM1
002263: 05,3324           54144                           TS       MPAC       +4                         #  PRIO INTO MPAC+4 AS A TEMP
002264: 05,3325           05341        REQUESTC           TC       RELDSP
002265: 05,3326           35150                           CA       ENDINST
002266: 05,3327           54143                           TS       MPAC       +3                         #  TC ENDOFJOB INTO MPAC+3
002267: 05,3330           00006                           EXTEND
002268: 05,3331           30335                           DCA      DSPTEM1    +1                         #  JOB ADRES INTO MPAC+1
002269: 05,3332           52142                           DXCH     MPAC       +1                         #  BBCON INTO MPAC+2
002270: 05,3333           30144                           CA       MPAC       +4                         #  PRIO IN A
002271: 05,3334           00004                           INHINT
002272: 05,3335           00140                           TC       MPAC
002273:
002274: 05,3336           35232        SETVAC             CAF      TCFINDVC
002275: 05,3337           03321                           TC       REQEX1
002276:
002277:                                                                                                  #  VBRQWAIT ENTERS REQUEST TO WAITLIST FOR ANY ADDRESS WITH ANY DELAY.
002278:                                                                                                  #  IT DOES ENDOFJOB AFTER ENTERING REQUEST.DISPLAY SYST IS RELEASED.
002279:                                                                                                  #  IT ASSUMES NOUN 26 HAS BEEN PRELOADED WITH
002280:                                                                                                  #  COMPONENT 1  DELAY (LOW BITS)
002281:                                                                                                  #  COMPONENT 2  TASK ADRES (12 BIT)
002282:                                                                                                  #  COMPONENT 3  BBCON
002283:


002285: 05,3340           35230        VBRQWAIT           CAF      TCWAIT
002286: 05,3341           54140                           TS       MPAC                                  #  TC WAITLIST INTO MPAC
002287: 05,3342           30333                           CA       DSPTEM1                               #  TIME DELAY
002288: 05,3343           03324        ENDRQWT            TC       REQUESTC   -1
002289:
002290:                                                                                                  #  REQUESTC WILL PUT TASK ADRES INTO MPAC+1, BBCON INTO MPAC+2,
002291:                                                                                                  #  TC ENDOFJOB INTO MPAC+3. IT WILL TAKE TIME DELAY OUT OF MPAC+4 AND
002292:                                                                                                  #  LEAVE IT IN A, INHINT AND TC MPAC.
002293:
002294:
002295:
002296: 04,3310                                           SETLOC   NVSBENDL   +1
002297: 04,3310           37657        VBPROC             CAF      ONE                                   #  PROCEED WITHOUT DATA
002298: 04,3311           54301                           TS       LOADSTAT
002299: 04,3312           05341                           TC       RELDSP
002300: 04,3313           05300                           TC       FLASHOFF
002301: 04,3314           03422                           TC       RECALTST                              #  SEE IF THERE IS ANY RECALL FROM ENDIDLE
002302:
002303:
002304:
002305: 04,3315           05131        VBTERM             TC       KILMONON                              #  TURN ON KILL MONITOR BIT
002306: 04,3316           47657                           CS       ONE
002307: 04,3317           03311                           TC       VBPROC     +1                         #  TERM VERB SETS LOADSTAT NEG
002308:
002309:
002310:
002311:                                                                                                  #  FLASH IS TURNED OFF ONLY BY PROCEED WITHOUT DATA, TERMINATE, END OF LOAD
002312:
002313:
002314:
002315:                                                                                                  #  VBRELDSP TURNS OFF RELEASE DISPLAY SYSTEM LIGHT(AND SEARCHES LIST ONLY
002316:                                                                                                  #  IF THIS LIGHT WAS TURNED ON BY NVSUBUSY), AND TURNS OFF UPACT LIGHT.
002317:
002318: 04,3320           47655        VBRELDSP           CS       BIT3
002319: 04,3321           00006                           EXTEND
002320: 04,3322           03011                           WAND     DSALMOUT                              #  TURN OFF UPACT LIGHT
002321: 04,3323           05341                           TC       RELDSP                                #  SEARCHES LIST
002322: 04,3324           04440                           TC       ENDOFJOB
002323:
002324:
002325:
002326:                                                                                                  #  BUMP SHIFTS WORD DISPLAYED IN R2 TO R3, R1 TO R2. IT BLANKS R1.
002327:
002328: 04,3325           37664        BUMP               CAF      FIVE                                  #  R2D5
002329: 04,3326           54264                           TS       DSPCOUNT
002330: 04,3327           54127                           TS       COUNT
002331: 04,3330           37657                           CAF      ONE                                   #  SHIFT DATA OF R2 TO R3, R1 TO R2
002332: 04,3331           70127                           MASK     COUNT
002333: 04,3332           56127                           XCH      COUNT                                 #  +0 INTO COUNT IF EVEN (RIGHT)
002334: 04,3333           54021                           TS       SR                                    #  +1 INTO COUNT IF ODD (LEFT)
002335:


002337: 04,3334           56021                           XCH      SR                                    #  DSREL IN A
002338: 04,3335           50000                           INDEX    A
002339: 04,3336           10307                           CCS      DSPTAB
002340: 04,3337           03341                           TC       +2
002341: 04,3340           05464                           TC       CCSHOLE
002342: 04,3341           67657                           AD       ONE                                   #  DSMAG IN A
002343: 04,3342           50127                           INDEX    COUNT
002344: 04,3343           73257                           MASK     DSMSK
002345: 04,3344           50127                           INDEX    COUNT
002346: 04,3345           03346                           TC       +1
002347: 04,3346           03350                           TC       +2                                    #  EVEN(RIGHT)  OK
002348: 04,3347           05200                           TC       RIGHT5                                #  ODD(LEFT)  SHIFT RIGHT
002349: 04,3350           54110                           TS       CODE
002350: 04,3351           47664                           CS       FIVE
002351: 04,3352           60264                           AD       DSPCOUNT                              #  DSPCOUNT-5
002352: 04,3353           10000                           CCS      A                                     #  TO PREVENT -0
002353: 04,3354           67657                           AD       ONE
002354: 04,3355           03357                           TC       +2
002355: 04,3356           05464                           TC       CCSHOLE
002356: 04,3357           54127                           TS       COUNT
002357: 04,3360           03201                           TC       DSPIN                                 #  CODE ALREADY IN CODE
002358: 04,3361           40264                           CS       DSPCOUNT
002359: 04,3362           65175                           AD       R1D1                                  #  OCT 16
002360: 04,3363           10000                           CCS      A
002361: 04,3364           56264                           XCH      DSPCOUNT                              #  +, DSPCOUNT L/ OCT 16
002362: 04,3365           67657                           AD       ONE                                   #  INCREMENT DSPCOUNT
002363: 04,3366           03326                           TC       BUMP       +1
002364:
002365: 04,3367           37665        SWSGN              CAF      ZERO                                  #  -0, DSPCOUNT= OCT 16. DO SIGN SHIFT
002366: 04,3370           54264                           TS       DSPCOUNT
002367: 04,3371           63420                           AD       SWTAB      +2                         #  OCT 3
002368: 04,3372           50000                           INDEX    A                                     #  PICKUP ORDER , DSREL=3,4,5,6.
002369: 04,3373           10307                           CCS      DSPTAB                                #                   (-R2,+R2,-R1,+R1)
002370: 04,3374           03376                           TC       +2
002371: 04,3375           05464                           TC       CCSHOLE
002372: 04,3376           67657                           AD       ONE
002373: 04,3377           77645                           MASK     BIT11
002374: 04,3400           54110                           TS       CODE
002375: 04,3401           50264                           INDEX    DSPCOUNT
002376: 04,3402           33416                           CAF      SWTAB                                 #  PUT AWAY ORDER, DSREL= 0,1,3,4.
002377: 04,3403           03263                           TC       11DSPIN                               #                   (-R3,+R3,-R2,+R2.)
002378: 04,3404           40264                           CS       DSPCOUNT
002379: 04,3405           63420                           AD       SWTAB      +2                         #  OCT 3
002380: 04,3406           10000                           CCS      A
002381: 04,3407           56264                           XCH      DSPCOUNT                              #  +, DSPCOUNT L/ 3
002382: 04,3410           67657                           AD       ONE                                   #  INCREMENT DSPCOUNT
002383: 04,3411           03370                           TC       SWSGN      +1
002384: 04,3412           35175                           CAF      R1D1                                  #  -0,       DSPCOUNT = 3
002385: 04,3413           54264                           TS       DSPCOUNT
002386: 04,3414           02476                           TC       5BLANK                                #  BLANKS R1
002387:


002389: 04,3415           00122                           TC       ENTEXIT
002390:
002391: 04,3416           00000        SWTAB              OCT      0                                     #  -R3
002392: 04,3417           00001                           OCT      1                                     #  +R3
002393: 04,3420           00003                           OCT      3                                     #  -R2
002394: 04,3421           00004                           OCT      4                                     #  +R2
002395:


002397:                                                                                                  #  NVSUB IS USED FOR SUBROUTINE CALLS FROM WITHIN COMPUTER. IT CAN BE
002398:                                                                                                  #  USED TO DO ANY THING THE KEYBOARD CAN CALL. PLACE ...VVVVVVNNNNNN
002399:                                                                                                  #  INTO A.      V-S ARE 6BIT VERB CODE. N-S , 6 BIT NOUN CODE.
002400:
002401:                                                                                                  #  NVSUB CAN BE USED WITH MACH CADR TO BE SPEC BY PLACING THE CADR INTO
002402:                                                                                                  #  MPAC+2 BEFORE THE STANDARD NVSUB CALL.
002403:
002404:                                                                                                  #   NVSUB RETURNS TO 2+ CALLING LOC AFTER PERFORMING TASK, IF DISPLAY
002405:                                                                                                  #  SYSTEM IS AVAILABLE. THE NEW NOUN AND VERB CODES ARE DISPLAYED.
002406:                                                                                                  #  IF V:S =0, THE NEW NOUN CODE IS DISPLAYED ONLY(RETURN WITH NO FURTHER
002407:                                                                                                  #  ACTION). IF N-S =0, THE NEW VERB CODE IS DISPLAYED ONLY(RETURN WITH NO
002408:                                                                                                  #  FURTHER ACTION).
002409:
002410:                                                                                                  #  IT RETURNS TO 1+ CALLING LOC WITHOUT PERFORMING TASK, IF DISPLAY
002411:                                                                                                  #  SYSTEM IS BLOCKED (NOTHING IS DISPLAYED IN THIS CASE).
002412:                                                                                                  #  IT DOES TC ABORT (WITH OCT 01501) IF IT ENCOUNTERS A DISPLAY PROGRAM
002413:                                                                                                  #  ALARM CONDITION BEFORE RETURN TO CALLER.
002414:
002415:                                                                                                  #  THE DISPLAY SYSTEM IS BLOCKED BY THE DEPRESSION OF ANY
002416:                                                                                                  #  KEY, EXCEPT ERROR LIGHT RESET. ALSO BY ENDIDLE.
002417:                                                                                                  #       IT IS RELEASED BY SPECIAL VERB = RELEASE DISPLAY, ALL GO TO VERBS.
002418:                                                                                                  #  PROCEED WITHOUT DATA, TERMINATE, INITIALIZE EXECUTIVE,
002419:                                                                                                  #  RECALL PART OF RECALTST IF ENDIDLE WAS USED,
002420:                                                                                                  #  IN RECALTST IF NVSUB INITIATED LOAD AND ENDIDLE WAS NOT USED,
002421:                                                                                                  #  VB = REQUEST EXECUTIVE, VB = REQUEST WAITLIST,
002422:                                                                                                  #  MONITOR SET UP.
002423:
002424:                                                                                                  #  A NVSUB CALL THAT PASSES DSPLOCK ENDS OLD MONITOR.
002425:
002426:                                                                                                  #  DSPLOCK IS THE INTERLOCK FOR USE OF KEYBOARD AND DISPLAY SYSTEM WHICH
002427:                                                                                                  #  LOCKS OUT INTERNAL USE WHENEVER THERE IS EXTERNAL KEYBOARD ACTION.
002428:
002429:                                                                                                  #  NVSUB IN FIXED-FIXED PLACES 2+CALLING LOC INTO NVQTEM, TC NVSUBEND INTO
002430:                                                                                                  #  ENTRET. (THIS WILL RESTORE OLD CALLING BANK BITS)
002431:
002432:    5107                                           SETLOC   MIDSIX     +1
002433:    5107           54107        NVSUB              TS       NVTEMP                                #  IN FIXED FIXED
002434:    5110           10277                           CCS      DSPLOCK
002435:    5111           00002                           TC       Q                                     #  DSP SYST BLOCKED, RET TO 1+ CALLING LOC
002436:    5112           30002                           CA       Q                                     #  DSP SYST AVAILABLE
002437:    5113           67657                           AD       ONE
002438:    5114           54325                           TS       NVQTEM                                #  2+ CALLING LOC INTO NVQTEM
002439:    5115           05131                           TC       KILMONON                              #  TURN ON KILL MONITOR BIT
002440:    5116           35122        NVSUBCOM           CAF      NVSBBBNK
002441:
002442:    5117           56006                           XCH      BBANK
002443:    5120           54326                           TS       NVBNKTEM
002444:    5121           02000                           TC       NVSUBB                                #  GO TO NVSUB1 THRU STANDARD LOC
002445:    5122     0264                                  EBANK=   DSPCOUNT
002446:    5122           12000        NVSBBBNK           BBCON    NVSUB1
002447:


002449:    5123           30002        NVSUBMON           CA       Q                                     #  MONDO COMES HERE
002450:    5124           67657                           AD       ONE
002451:    5125           54325                           TS       NVQTEM                                #  2 + CALLING LOC INTO NVQTEM
002452:    5126           05116                           TC       NVSUBCOM
002453:
002454:    5127           52326        NVSUBEND           DXCH     NVQTEM                                #  NVBNKTEM MUST = NVQTEM+1
002455:    5130           52006                           DXCH     Z                                     #  DTCB
002456:
002457: 05,3344                                           SETLOC   ENDRQWT    +1
002458:
002459: 05,3344           33363        NVSUB1             CAF      ENTSET                                #  IN BANK
002460: 05,3345           54122                           TS       ENTRET                                #  SET RETURN TO NVSUBEND
002461: 05,3346           33401                           CAF      LOW6
002462: 05,3347           70107                           MASK     NVTEMP
002463: 05,3350           54140                           TS       MPAC                                  #  TEMP STORAGE
002464: 05,3351           33402                           CAF      MID6
002465: 05,3352           70107                           MASK     NVTEMP
002466: 05,3353           05200                           TC       RIGHT5
002467: 05,3354           54020                           TS       CYR
002468: 05,3355           56020                           XCH      CYR
002469: 05,3356           54141                           TS       MPAC       +1                         #  TEMP STORAGE
002470: 05,3357           10140                           CCS      MPAC                                  #  TEST NOUN
002471: 05,3360           03364                           TC       +4                                    #  IF NOUN NOT +0, GO ON
002472: 05,3361           56141                           XCH      MPAC       +1
002473: 05,3362           02314                           TC       UPDATVB    -1                         #  IF NOUN = +0, DISPLAY VERB, THEN RETURN
002474: 05,3363           05127        ENTSET             TC       NVSUBEND
002475: 05,3364           10141                           CCS      MPAC       +1                         #  TEST VERB
002476: 05,3365           03371                           TC       +4                                    #  IF VERB NOT +0, GO ON
002477: 05,3366           56140                           XCH      MPAC
002478: 05,3367           02274                           TC       UPDATNN    -1                         #  IF VERB = +0, DISPLAY NOUN. THEN RETURN
002479: 05,3370           05127                           TC       NVSUBEND
002480: 05,3371           56141                           XCH      MPAC       +1
002481: 05,3372           02314                           TC       UPDATVB    -1                         #  IF BOTH NOUN AND VERB NOT +0, DISPLAY
002482: 05,3373           56140                           XCH      MPAC                                  #  BOTH AND GO TO ENTPAS0
002483: 05,3374           02274                           TC       UPDATNN    -1
002484: 05,3375           37665                           CAF      ZERO
002485: 05,3376           54301                           TS       LOADSTAT                              #  SET FOR WAITING FOR DATA CONDITION
002486: 05,3377           54302                           TS       CLPASS
002487: 05,3400           02031                           TC       ENTPAS0
002488:
002489:                                                                                                  #  IF INTERNAL MACH CADR TO BE SPECIFIED, MPAC+2 WILL BE PLACED INTO
002490:                                                                                                  #  NOUNCADR IN ENTPAS0 (INTMCTBS ).
002491:
002492:
002493:
002494: 05,3401           00077        LOW6               OCT      77
002495: 05,3402           07700        MID6               OCT      7700
002496:


002498:    5131                                           SETLOC   NVSUBEND   +2
002499:    5131           47641        KILMONON           CS       BIT15                                 #  FORCE BIT 15 OF MONSAVE1 TO 1.
002500:    5132           00004                           INHINT                                         #          THIS IS THE KILL MONITOR BIT.
002501:    5133           70306                           MASK     MONSAVE1
002502:    5134           67641                           AD       BIT15
002503:    5135           54306                           TS       MONSAVE1
002504:    5136           00003                           RELINT
002505:    5137           00002                           TC       Q
002506:
002507:
002508:
002509:                                                                                                  #  LOADSTAT  +0 INACTIVE (WAITING FOR DATA). SET BY NVSUB
002510:                                                                                                  #            +1  PROCEED NO DATA. SET BY SPECIAL VERB
002511:                                                                                                  #           -1 TERMINATE   SET BY SPECIAL VERB
002512:                                                                                                  #           -0 DATA IN   SET BY END OF LOAD ROUTINE
002513:
002514:
002515:
002516:                                                                                                  #  L  TC ENDIDLE  (FIXED FIXED)
002517:                                                                                                  #  ROUTINES THAT REQUEST LOADS THROUGH NVSUB SHOULD USE ENDIDLE WHILE
002518:                                                                                                  #  WAITING FOR THE DATA TO BE LOADED. ENDIDLE PUTS CURRENT JOB TO SLEEP.
002519:                                                                                                  #  ENDIDLE CANNOT BE CALLED FROM ERASABLE MEMORY, SINCE JOBSLEEP AND
002520:                                                                                                  #  JOBWAKE CAN HANDLE ONLY FIXED MEMORY.
002521:                                                                                                  #  RECALTST TESTS LOADSTAT AND WAKES JOB UP TO,
002522:                                                                                                  #  L+1      FOR TERMINATE
002523:                                                                                                  #  L+2      FOR PROCEED WITHOUT DATA
002524:                                                                                                  #  L+3      FOR DATA IN
002525:                                                                                                  #  IT DOES NOTHING     IF LOADSTAT INDICATES WAITING FOR DATA.
002526:
002527:    5140           37657        ENDIDLE            CAF      ONE
002528:    5141           54277                           TS       DSPLOCK
002529:    5142           22004                           LXCH     FBANK
002530:    5143           56002                           XCH      Q
002531:    5144           52120                           DXCH     BUF2
002532:    5145           04112                           TC       MAKECADR
002533:    5146           54323                           TS       CADRSTOR
002534:    5147           04416                           TC       JOBSLEEP
002535:
002536:
002537:
002538:    5150           04440        ENDINST            TC       ENDOFJOB
002539:
002540:                                                                                                  #  DATAWAIT IS AN ALTERNATIVE TO ENDIDLE, IT RETURNS IMMEDIATELY IF
002541:                                                                                                  #  LOADSTAT INDICATES THAT DATA IS ALREADY IN, OR PROCEED OR TERMINATE HAS
002542:                                                                                                  #  BEEN EXECUTED. RETURN FORMAT IS SAME AS FOR ENDIDLE.
002543:                                                                                                  #  DATAWAIT CANNOT BE CALLED FROM ERASABLE MEMORY, SINCE JOBSLEEP
002544:                                                                                                  #  AND JOBWAKE CAN HANDLE ONLY FIXED MEMORY.
002545:                                                                                                  #  DATAWAIT SHOULD BE USED ONLY AFTER REQUESTING A LOAD VERB.
002546:
002547:    5151           10301        DATAWAIT           CCS      LOADSTAT
002548:


002550:    5152           15157                           TCF      DATWAIT1                              #  PROCEED. RETURN TO L+2.
002551:    5153           15140                           TCF      ENDIDLE                               #  STILL WAITING. GO TO SLEEP.
002552:    5154           00002                           TC       Q                                     #  TERMINATE. RETURN TO L+1.
002553:    5155           50002                           INDEX    Q                                     #  DATA IN. RETURN TO L+3.
002554:    5156           00002                           TC       2
002555:    5157           50002        DATWAIT1           INDEX    Q                                     #  RETURN TO L+2.
002556:    5160           00001                           TC       1
002557:
002558:                                                                                                  #  DATAWAIT DOES NOT RELEASE DISPLAY SYST. IT IS RELEASED AT END OF NVSUB
002559:                                                                                                  #  INITIATED LOAD, IF ENDIDLE WAS NOT USED.
002560:
002561:
002562:
002563: 05,3403                                           SETLOC   MID6       +1
002564:                                                                                                  #  DSPMM PLACE MAJOR MODE CODE INTO MODREG
002565:
002566: 05,3403           35241        DSPMM1             CAF      MD1                                   #  GETS HERE THRU DSPMM (STANDARD LEAD IN)
002567: 05,3404           56264                           XCH      DSPCOUNT
002568: 05,3405           54124                           TS       DSPMMTEM                              #  SAVE DSPCOUNT
002569: 05,3406           30276                           CA       MODREG
002570: 05,3407           22002                           LXCH     Q
002571: 05,3410           03255                           TC       DSP2BIT
002572: 05,3411           56124                           XCH      DSPMMTEM                              #  RESTORE DSPCOUNT
002573: 05,3412           54264                           TS       DSPCOUNT
002574: 05,3413           00001        DSPMMEND           TC       L
002575:
002576:
002577:
002578:                                                                                                  #  RECALTST IS ENTERED DIRECTLY AFTER DATA IS
002579:                                                                                                  #  LOADED, TERMINATE VERB IS EXECUTED, OR THE PROCEED WITHOUT DATA VERB IS
002580:                                                                                                  #  EXECUTED. IT WAKES UP JOB THAT DID TC ENDIDLE.
002581:
002582:                                                                                                  #  IF NVSUB INITIATED LOAD, AND ENDIDLE WAS NOT USED, THEN IT RELEASES
002583:                                                                                                  #  DISPLAY SYST. (NEEDED FOR DATAWAIT)
002584:
002585: 04,3422                                           SETLOC   SWTAB      +4
002586:
002587: 04,3422           10323        RECALTST           CCS      CADRSTOR
002588: 04,3423           03430                           TC       RECAL1
002589: 04,3424           04440                           TC       ENDOFJOB                              #  NORMAL EXIT IF KEYBOARD INITIATED
002590: 04,3425           03430                           TC       RECAL1
002591: 04,3426           54323                           TS       CADRSTOR                              #  -0. CONCLUSION OF NVSUB INITIATED LOAD.
002592: 04,3427           03446                           TC       RECAL3                                #  +0 INTO CADRSTOR. RELEASE DISPLAY,
002593:                                                                                                  #     AND ENDOFJOB. NEEDED FOR DATAWAIT.
002594: 04,3430           37665        RECAL1             CAF      ZERO
002595: 04,3431           56323                           XCH      CADRSTOR
002596: 04,3432           00004                           INHINT
002597: 04,3433           04422                           TC       JOBWAKE
002598: 04,3434           10301                           CCS      LOADSTAT
002599: 04,3435           03452                           TC       DOPROC                                #  + PROCEED WITHOUT DATA
002600:


002602: 04,3436           04440                           TC       ENDOFJOB                              #  PATHALOGICAL CASE EXIT
002603: 04,3437           03450                           TC       DOTERM                                #  -   TERMINATE
002604: 04,3440           37656                           CAF      TWO
002605: 04,3441           50071        RECAL2             INDEX    LOCCTR
002606: 04,3442           60150                           AD       LOC                                   #  LOC IS + FOR BASIC JOBS
002607: 04,3443           50071                           INDEX    LOCCTR
002608: 04,3444           54150                           TS       LOC
002609: 04,3445           00003                           RELINT
002610: 04,3446           05364        RECAL3             TC       RELDSP1                               #  DOES NOT SEARCH LIST
002611: 04,3447           04440                           TC       ENDOFJOB
002612:
002613: 04,3450           37665        DOTERM             CAF      ZERO
002614: 04,3451           03441                           TC       RECAL2
002615:
002616: 04,3452           37657        DOPROC             CAF      ONE
002617: 04,3453           03441                           TC       RECAL2
002618:


002620:                                                                                                  #  THE FOLLOWING REFERS TO THE NOUN TABLES
002621:
002622:
002623:
002624:                                                                                                  #  COMPONENT CODE NUMBER           INTERPRETATION
002625:
002626:                                                                                                  #  00000                           1 COMPONENT
002627:                                                                                                  #  00001                           2 COMPONENT (EACH S P)
002628:                                                                                                  #  00010                           3 COMPONENT (EACH SP)
002629:
002630:
002631:
002632:                                                                                                  #  SF ROUTINE CODE NUMBER          INTERPRETATION
002633:
002634:                                                                                                  #  00000    OCTAL ONLY
002635:                                                                                                  #  00001    STRAIGHT FRACTIONAL
002636:                                                                                                  #  00010    DEGREES (XXX.XX)
002637:                                                                                                  #  00011    ARITHMETIC SF
002638:                                                                                                  #  00100    ARITH DP1   OUT(MULT BY 2/14 AT END)     IN (STRAIGHT)
002639:                                                                                                  #  00101    ARITH DP2   OUT (STRAIGHT)               IN (SL 7 AT END)
002640:                                                                                                  #  00110    OPTICS DEGREES(XX.XXX MAX 89.999) OR (XXX.XX MAX 179.99)
002641:                                                                                                  #  00111    ARITH DP3   OUT (SL 7 AT END)        IN ( STRAIGHT)
002642:                                                                                                  #  END OF SF ROUTINE CODE NUMBERS
002643:
002644:                                                                                                  #  SF CONSTANT CODE NUMBER         INTERPRETATION
002645:
002646:                                                                                                  #  00000                           WHOLE
002647:                                                                                                  #  00000                           TIME SEC(XXX.XX)SAME AS WHOLE(ARITH DP1)
002648:                                                                                                  #  00001                           TIME HOURS(XXX.XX) USE ARITH DP2
002649:                                                                                                  #  00010                           DEGREES
002650:                                                                                                  #  00010                           OPTICS DEGREES
002651:                                                                                                  #  00011                           GYRO DEGREES (XX.XXX)  USE ARITHDP3
002652:                                                                                                  #  00100                           GYRO BIAS DRIFT .BBXXXXX MILLIRAD/SEC
002653:                                                                                                  #  00101                           GYRO AXIS ACCEL. DRIFT
002654:                                                                                                  #                                  .BBXXXXX (MILLIRAD/SEC) / (CM/SEC SEC)
002655:                                                                                                  #  00110                           PIPA BIAS X.XXXX CM/SEC SEC
002656:                                                                                                  #  00111                           PIPA SCALE FACTOR ERROR
002657:                                                                                                  #                                      XXXXX. PARTS/MILLION
002658:                                                                                                  #  01000                           POSITION(XXXX.X KILOMETERS) USE ARITHDP3
002659:                                                                                                  #  01001                           VELOCITY(XXXX.X METERS/SEC) USE ARITHDP2
002660:                                                                                                  #  01010                           TIME HOURS(XXX.XX)WEEKS INSIDE(ARITHDP2)
002661:                                                                                                  #  01011                           ELEVATION DEGREES(89.999MAX) USE ARITH
002662:                                                                                                  #  01100                           RENDEZVOUS RADAR RANGE(XXXXXB.FEET)
002663:                                                                                                  #                                                              USE ARITHDP1
002664:                                                                                                  # 01101                            RENDEZVOUS RADAR RANGE RATE(XXXXX.FT/SEC
002665:                                                                                                  #                                                              USE ARITHDP1
002666:                                                                                                  # 01110                            LANDING RADAR ALTITUDE(XXXXX.FEET)
002667:                                                                                                  #                                                               USE ARITHDP1
002668:


002670:                                                                                                  #  01111                           INITIAL/FINAL ALTITUDE(XXXXX.FEET)
002671:                                                                                                  #                                                              USE ARITHDP1
002672:                                                                                                  #  10000                           ALTITUDE RATE(XXXXX.FEET)      USE ARITH
002673:                                                                                                  #  10001                           FORWARD/LATERAL VELOCITY(XXXXX.FEET/SEC)
002674:                                                                                                  #                                                                 USE ARITH
002675:                                                                                                  #  10010                           ROTATIONAL HAND CONTROLLER ANGLE RATES
002676:                                                                                                  #                                        XXXXX.DEG/SEC            USE ARITH
002677:                                                                                                  #  10011                           LANDING RADAR VELX(XXXXX.FEET/SEC)
002678:                                                                                                  #                                                              USE ARITHDP1
002679:                                                                                                  #  10100                           LANDING RADAR VELY(XXXXX.FEET/SEC)
002680:                                                                                                  #                                                              USE ARITHDP1
002681:                                                                                                  #  10101                           LANDING RADAR VELZ(XXXXX.FEET/SEC)
002682:                                                                                                  #                                                              USE ARITHDP1
002683:                                                                                                  #  10110                           OPTICAL TRACKER AZIMUTH ANGLE(XXX.XXDEG)
002684:                                                                                                  #                                                              USE ARITHDP1
002685:                                                                                                  #  END OF SF CONSTANT CODE NUMBERS
002686:
002687:
002688:
002689:                                                                                                  #  FOR GREATER THAN SINGLE PRECISION SCALES, PUT ADDRESS OF MAJOR PART INTO
002690:                                                                                                  #  NOUN TABLES.
002691:                                                                                                  #  OCTAL LOADS PLACE +0 INTO MAJOR PART, DATA INTO MINOR PART.
002692:                                                                                                  #  OCTAL DISPLAYS SHOW MINOR PART ONLY.
002693:                                                                                                  #  TO GET AT BOTH MAJOR AND MINOR PARTS (IN OCTAL), USE NOUN 01.
002694:


002696:                                                                                                  #  THE FOLLOWING ROUTINES ARE FOR READING THE NOUN TABLES AND THE SF TABLES
002697:                                                                                                  #  (WHICH ARE IN A SEPARATE BANK FROM THE REST OF PINBALL). THESE READING
002698:                                                                                                  #  ROUTINES ARE IN THE SAME BANK AS THE TABLES. THEY ARE CALLED BY DXCH Z.
002699:
002700:
002701:
002702:                                                                                                  #  LODNNTAB LOADS NNADTEM WITH THE NNADTAB ENTRY, NNTYPTEM WITH THE
002703:                                                                                                  #  NNTYPTAB ENTRY. IF THE NOUN IS MIXED, IDADITEM IS LOADED WITH THE FIRST
002704:                                                                                                  #  IDADDTAB ENTRY, IDAD2TEM THE SECOND IDADDTAB ENTRY, IDAD3TEM THE THIRD
002705:                                                                                                  #  IDADDTAB ENTRY, RUTMXTEM WITH THE RUTMXTAB ENTRY. MIXBR IS SET FOR
002706:                                                                                                  #  MIXED OR NORMAL NOUN.
002707:
002708: 16,2000                                           BANK     16
002709:
002710: 16,2000           52136        LODNNTAB           DXCH     IDAD2TEM                              #  SAVE RETURN INFO IN IDAD2TEM, IDAD3TEM.
002711: 16,2001           50267                           INDEX    NOUNREG
002712: 16,2002           32052                           CAF      NNADTAB
002713: 16,2003           54132                           TS       NNADTEM
002714: 16,2004           50267                           INDEX    NOUNREG
002715: 16,2005           32152                           CAF      NNTYPTAB
002716: 16,2006           54133                           TS       NNTYPTEM
002717: 16,2007           40267                           CS       NOUNREG
002718: 16,2010           62036                           AD       MIXCON
002719: 16,2011           00006                           EXTEND
002720: 16,2012           62016                           BZMF     LODMIXNN                              #  NOUN NUMBER G/E FIRST MIXED NOUN
002721: 16,2013           37657                           CAF      ONE                                   #  NOUN NUMBER L/ FIRST MIXED NOUN
002722: 16,2014           54124                           TS       MIXBR                                 #  NORMAL.  +1 INTO MIXBR.
002723: 16,2015           02034                           TC       LODNLV
002724: 16,2016           37656        LODMIXNN           CAF      TWO                                   #  MIXED.  +2 INTO MIXBR.
002725: 16,2017           54124                           TS       MIXBR
002726: 16,2020           50267                           INDEX    NOUNREG
002727: 16,2021           32420                           CAF      RUTMXTAB   -55
002728: 16,2022           54137                           TS       RUTMXTEM
002729: 16,2023           36426                           CAF      LOW10
002730: 16,2024           70132                           MASK     NNADTEM
002731: 16,2025           54002                           TS       Q                                     #  TEMP
002732: 16,2026           50000                           INDEX    A
002733: 16,2027           32406                           CAF      IDADDTAB
002734: 16,2030           54134                           TS       IDAD1TEM                              #  LOAD IDAD1TEM WITH FIRST IDADDTAB ENTRY
002735: 16,2031           00006                           EXTEND
002736: 16,2032           50002                           INDEX    Q                                     #  LOAD IDAD2TEM WITH 2ND IDADDTAB ENTRY
002737: 16,2033           32410                           DCA      IDADDTAB   +1                         #  LOAD IDAD3TEM WITH 3RD IDADDTAB ENTRY.
002738: 16,2034           52136        LODNLV             DXCH     IDAD2TEM                              #  PUT RETURN INFO INTO A, L.
002739: 16,2035           52006                           DXCH     Z
002740:
002741: 16,2036           00055        MIXCON             OCT      55                                    #  FIRST MIXED NOUN = 55.
002742:
002743:
002744:
002745:                                                                                                  #  GTSFOUT LOADS SFTEMP1, SFTEMP2 WITH THE DP SFOUTAB ENTRIES.
002746:


002748: 16,2037           52110        GTSFOUT            DXCH     SFTEMP1                               #  2X(SFCONUM) ARRIVES IN SFTEMP1.
002749: 16,2040           00006                           EXTEND
002750: 16,2041           50000                           INDEX    A
002751: 16,2042           32331                           DCA      SFOUTAB
002752: 16,2043           52110        SFCOM              DXCH     SFTEMP1
002753: 16,2044           52006                           DXCH     Z
002754:
002755:
002756:
002757:                                                                                                  #  GTSFIN LOADS SFTEMP1, SFTEMP2 WITH THE DP SFINTAB ENTRIES.
002758:
002759: 16,2045           52110        GTSFIN             DXCH     SFTEMP1                               #  2X(SFCONUM) ARRIVES IN SFTEMP1.
002760: 16,2046           00006                           EXTEND
002761: 16,2047           50000                           INDEX    A
002762: 16,2050           32253                           DCA      SFINTAB
002763: 16,2051           12043                           TCF      SFCOM
002764:
002765:
002766:
002767:                                                                                                  #  NN  NORMAL NOUNS
002768: 16,2052           00000        NNADTAB            OCT      00000                                 #  00 NOT IN USE
002769: 16,2053           40000                           OCT      40000                                 #  01 SPECIFY MACHINE ADDRESS (FRACTIONAL)
002770: 16,2054           40000                           OCT      40000                                 #  02 SPECIFY MACHINE ADDRESS (WHOLE)
002771: 16,2055           40000                           OCT      40000                                 #  03 SPECIFY MACHINE ADDRESS (DEGREES)
002772: 16,2056           40000                           OCT      40000                                 #  04 SPECIFY MACHINE ADDRESS (HOURS)
002773: 16,2057           40000                           OCT      40000                                 #  05 SPECIFY MACHINE ADDRESS (SECONDS)
002774: 16,2060           40000                           OCT      40000                                 #  06 SPECIFY MACHINE ADDRESS (GYRO DEG)
002775: 16,2061           00000                           OCT      00000                                 #  07 SPARE
002776: 16,2062           77776                           OCT      77776                                 #  10 CHANNEL TO BE SPECIFIED
002777: 16,2063           00000                           OCT      00000                                 #  11 SPARE
002778: 16,2064           00000                           OCT      00000                                 #  12 SPARE
002779: 16,2065           00000                           OCT      00000                                 #  13 SPARE
002780: 16,2066           00000                           OCT      00000                                 #  14 SPARE
002781: 16,2067           77777                           OCT      77777                                 #  15 INCREMENT MACHINE ADDRESS
002782: 16,2070           00024                           ECADR    TIME2                                 #  16 TIME SECONDS
002783: 16,2071           00024                           ECADR    TIME2                                 #  17 TIME HOURS
002784: 16,2072           00032                           ECADR    CDUX                                  #  20 ICDU
002785: 16,2073           00037                           ECADR    PIPAX                                 #  21 PIPAS
002786: 16,2074           00400                           ECADR    THETAD                                #  22 NEW ANGLES I
002787: 16,2075           00336                           ECADR    DSPTEM2                               #  23 DELTA ANGLES I
002788: 16,2076           00333                           ECADR    DSPTEM1                               #  24 DELTA TIME (SEC)
002789: 16,2077           00333                           ECADR    DSPTEM1                               #  25 CHECKLIST
002790: 16,2100           00333                           ECADR    DSPTEM1                               #  26 PRIO/DELAY, ADRES, BBCON
002791: 16,2101           01361                           ECADR    SMODE                                 #  27 SELF TEST ON/OFF SWITCH
002792: 16,2102           00333                           ECADR    DSPTEM1                               #  30 STAR NUMBERS
002793: 16,2103           01363                           ECADR    FAILREG                               #  31 FAILREG
002794: 16,2104           02166                           ECADR    TDEC                                  #  32 DECISION TIME (MIDCOURSE)
002795: 16,2105           02046                           ECADR    TET                                   #  33 EPHEMERIS TIME (MIDCOURSE)
002796: 16,2106           02174                           ECADR    MEASQ                                 #  34 MEASURED QUANTITY (MIDCOURSE)
002797: 16,2107           00333                           ECADR    DSPTEM1                               #  35 INBIT MESSAGE
002798:


002800: 16,2110           01474                           ECADR    LANDMARK                              #  36 LANDMARK DATA 1
002801: 16,2111           01477                           ECADR    LANDMARK   +3                         #  37 LANDMARK DATA 2
002802: 16,2112           00035                           ECADR    OPTY                                  #  40 RENDEZVOUS RADAR ANGLES (TRUN, SHAFT)
002803: 16,2113           00423                           ECADR    TANG                                  #  41 NEW REND. RADAR ANGLES (TRUN, SHAFT)
002804: 16,2114           00336                           ECADR    DSPTEM2                               #  42 AOT ROTATION ANGLES
002805: 16,2115           00375                           ECADR    XYMARK                                #  43 AOT DETENT CODE
002806: 16,2116           00360                           ECADR    FORVEL                                #  44 FORWARD VELOCITY, LATERAL VELOCITY
002807: 16,2117           03035                           ECADR    PCOM                                  #  45 ROTATIONAL HAND CONTROLLER ANGLE RATE
002808: 16,2120           00000                           OCT      00000                                 #  46 SPARE
002809: 16,2121           00000                           OCT      00000                                 #  47 SPARE
002810: 16,2122           00000                           OCT      00000                                 #  50 SPARE
002811: 16,2123           00000                           OCT      00000                                 #  51 SPARE
002812: 16,2124           01440                           ECADR    GBIASX                                #  52 GYRO BIAS DRIFT
002813: 16,2125           01443                           ECADR    ADIAX                                 #  53 GYRO INPUT AXIS ACCELERATION DRIFT
002814: 16,2126           01446                           ECADR    ADSRAX                                #  54 GYRO SPIN AXIS ACCELERATION DRIFT
002815:
002816:                                                                                                  #  NN  MIXED NOUNS
002817: 16,2127           02000                           OCT      02000                                 #  55 LANDING RADAR ALTITUDE, TIME(SEC)
002818: 16,2130           02002                           OCT      02002                                 #  56 LANDING RADAR VELX, TIME(SEC)
002819: 16,2131           02004                           OCT      02004                                 #  57 LANDING RADAR VELY, TIME(SEC)
002820: 16,2132           02006                           OCT      02006                                 #  60 LANDING RADAR VELZ, TIME(SEC)
002821: 16,2133           02010                           OCT      02010                                 #  61 TARGET AZIMUTH AND ELEVATION
002822: 16,2134           04012                           OCT      04012                                 #  62 RENDEZVOUS RADAR RANGE, TRUN, SHAFT
002823: 16,2135           04015                           OCT      04015                                 #  63 REND. RADAR RANGE RATE, TRUN, SHAFT
002824: 16,2136           04020                           OCT      04020                                 #  64 INITIAL ALT, FINAL ALT, ALT RATE
002825: 16,2137           02023                           OCT      02023                                 #  65 SAMPLED TIME (HOURS AND SECONDS)
002826:                                                                                                  #       (FETCHED IN INTERRUPT)
002827: 16,2140           04025                           OCT      04025                                 #  66 SYSTEM TEST RESULTS
002828: 16,2141           04030                           OCT      04030                                 #  67 DELTA GYRO ANGLES
002829: 16,2142           02033                           OCT      02033                                 #  70 OPTICAL TRACKER ANGLES (AZIMUTH,ELEV)
002830: 16,2143           02035                           OCT      02035                                 #  71 DESIRED OPT. TRACK. ANGLES (AZ, ELEV)
002831: 16,2144           04037                           OCT      04037                                 #  72 DELTA POSITION
002832: 16,2145           04042                           OCT      04042                                 #  73 DELTA VELOCITY
002833: 16,2146           04045                           OCT      04045                                 #  74 MEASUREMENT DATA (MIDCOURSE)
002834: 16,2147           04050                           OCT      04050                                 #  75 MEASUREMENT DEVIATIONS (MIDCOURSE)
002835: 16,2150           04053                           OCT      04053                                 #  76 POSITION VECTOR
002836: 16,2151           04056                           OCT      04056                                 #  77 VELOCITY VECTOR
002837:
002838:
002839:
002840:                                                                                                  #  NN        NORMAL NOUNS
002841: 16,2152           00000        NNTYPTAB           OCT      00000                                 #  00 NOT IN USE
002842: 16,2153           00040                           OCT      00040                                 #  01 1COMP FRACTIONAL
002843: 16,2154           00140                           OCT      00140                                 #  02 1COMP WHOLE
002844: 16,2155           00102                           OCT      00102                                 #  03 1COMP DEGREES
002845: 16,2156           00241                           OCT      00241                                 #  04 1COMP HOURS
002846: 16,2157           00200                           OCT      00200                                 #  05 1COMP SECONDS
002847: 16,2160           00343                           OCT      00343                                 #  06 1COMP GYRO DEGREES
002848: 16,2161           00000                           OCT      00000                                 #  07       SPARE
002849: 16,2162           00000                           OCT      00000                                 #  10 1COMP OCTAL ONLY
002850:


002852: 16,2163           00000                           OCT      00000                                 #  11        SPARE
002853: 16,2164           00000                           OCT      00000                                 #  12        SPARE
002854: 16,2165           00000                           OCT      00000                                 #  13        SPARE
002855: 16,2166           00000                           OCT      00000                                 #  14        SPARE
002856: 16,2167           00000                           OCT      00000                                 #  15 1COMP  OCTAL ONLY
002857: 16,2170           00200                           OCT      00200                                 #  16 1COMP  SECONDS
002858: 16,2171           00241                           OCT      00241                                 #  17 1COMP  HOURS
002859: 16,2172           04102                           OCT      04102                                 #  20 3COMP  DEGREES
002860: 16,2173           04140                           OCT      04140                                 #  21 3COMP  WHOLE
002861: 16,2174           04102                           OCT      04102                                 #  22 3COMP  DEGREES
002862: 16,2175           04102                           OCT      04102                                 #  23 3COMP  DEGREES
002863: 16,2176           00200                           OCT      00200                                 #  24 1COMP  SECONDS
002864: 16,2177           00140                           OCT      00140                                 #  25 1COMP  WHOLE
002865: 16,2200           04000                           OCT      04000                                 #  26 3COMP  OCTAL ONLY
002866: 16,2201           00140                           OCT      00140                                 #  27 1COMP  WHOLE
002867: 16,2202           04140                           OCT      04140                                 #  30 3COMP  WHOLE
002868: 16,2203           04000                           OCT      04000                                 #  31 3COMP  OCTAL ONLY
002869: 16,2204           00252                           OCT      00252                                 #  32 1COMP  TIME WEEKS
002870: 16,2205           00252                           OCT      00252                                 #  33 1COMP  TIME WEEKS
002871: 16,2206           00350                           OCT      00350                                 #  34 1COMP  POISTION
002872: 16,2207           04000                           OCT      04000                                 #  35 3COMP  OCTAL ONLY
002873: 16,2210           04000                           OCT      04000                                 #  36 3COMP  OCTAL ONLY
002874: 16,2211           04000                           OCT      04000                                 #  37 3COMP  OCTAL ONLY
002875: 16,2212           02102                           OCT      02102                                 #  40 2COMP  DEGREES
002876: 16,2213           02102                           OCT      02102                                 #  41 2COMP  DEGREES
002877: 16,2214           02102                           OCT      02102                                 #  42 2COMP  DEGREES
002878: 16,2215           00140                           OCT      00140                                 #  43 1COMP  WHOLE
002879: 16,2216           02161                           OCT      02161                                 #  44 2COMP  FORWARD/LATERAL VELOCITY
002880: 16,2217           04162                           OCT      04162                                 #  45 3COMP  ROT HAND CONT ANGLE RATE
002881: 16,2220           00000                           OCT      00000                                 #  46        SPARE
002882: 16,2221           00000                           OCT      00000                                 #  47        SPARE
002883: 16,2222           00000                           OCT      00000                                 #  50        SPARE
002884: 16,2223           00000                           OCT      00000                                 #  51        SPARE
002885: 16,2224           04144                           OCT      04144                                 #  52 3COMP  GYRO BIAS DRIFT
002886: 16,2225           04145                           OCT      04145                                 #  53 3COMP  GYRO AXIS ACCEL. DRIFT
002887: 16,2226           04145                           OCT      04145                                 #  54 3COMP  GYRO AXIS ACCEL. DRIFT
002888:
002889:                                                                                                  #  NN        MIXED NOUNS
002890: 16,2227           00016                           OCT      00016                                 #  55 2COMP  LANDING RADAR ALT, SECONDS
002891: 16,2230           00023                           OCT      00023                                 #  56 2COMP  LANDING RADAR VELX, SECONDS
002892: 16,2231           00024                           OCT      00024                                 #  57 2COMP  LANDING RADAR VELY, SECONDS
002893: 16,2232           00025                           OCT      00025                                 #  60 2COMP  LANDING RADAR VELZ, SECONDS
002894: 16,2233           00542                           OCT      00542                                 #  61 2COMP  DEGREES, ELEVATION DEGREES
002895: 16,2234           04114                           OCT      04114                                 #  62 3COMP  REND. RADAR RANGE, DEG, DEG
002896: 16,2235           04115                           OCT      04115                                 #  63 3COMP  REND. RAD. RANGE RATE, DEG,DEG
002897: 16,2236           40757                           OCT      40757                                 #  64 3COMP  IN/FN ALT, IN/FN ALT, ALT RATE
002898: 16,2237           00001                           OCT      00001                                 #  65 2COMP  HOURS, SECONDS
002899: 16,2240           00000                           OCT      00000                                 #  66 3COMP  WHOLE, FRACTIONAL, WHOLE
002900: 16,2241           06143                           OCT      06143                                 #  67 3COMP  GYRO DEGREES FOR EACH
002901: 16,2242           00126                           OCT      00126                                 #  70 2COMP  OPT TRACK AZIMUTH, DEGREES
002902:


002904: 16,2243           00126                           OCT      00126                                 #  71 2COMP  OPT TRACK AZIMUTH, DEGREES
002905: 16,2244           20410                           OCT      20410                                 #  72 3COMP  POSITION FOR EACH
002906: 16,2245           22451                           OCT      22451                                 #  73 3COMP  VELOCITY FOR EACH
002907: 16,2246           00412                           OCT      00412                                 #  74 3COMP  TIME WEEKS, POSITION, WHOLE
002908: 16,2247           20450                           OCT      20450                                 #  75 3COMP  POSITION, VELOCITY, POSITION
002909: 16,2250           20410                           OCT      20410                                 #  76 3COMP  POSITION FOR EACH
002910: 16,2251           22451                           OCT      22451                                 #  77 3COMP  VELOCITY FOR EACH
002911:
002912:
002913:
002914: 16,2252           00006        SFINTAB            OCT      00006                                 #  WHOLE,TIME(SEC)
002915: 16,2253           03240                           OCT      03240
002916: 16,2254           00253                           OCT      00253                                 #  TIME HOURS ( = 1.3..... )
002917: 16,2255           25124                           OCT      25124                                 #    (POINT BETWEEN BITS 7-8 )
002918: 16,2256           00000                           OCT      0                                     #  DEGREES (SFCON IN DEGINSF)
002919: 16,2257           00000                           OCT      0
002920: 16,2260           10707                           OCT      10707                                 #  GYRO DEGREES
002921: 16,2261           03435                           OCT      03435                                 #              UPPED BY 1
002922: 16,2262           00001                           OCT      00001                                 #  GYRO BIAS DRIFT
002923: 16,2263           02133                           OCT      02133
002924: 16,2264           00011                           OCT      00011                                 #  GYRO AXIS ACCEL. DRIFT
002925: 16,2265           30322                           OCT      30322
002926: 16,2266           00004                           OCT      00004                                 #  PIPA BIAS
002927: 16,2267           14021                           OCT      14021
002928: 16,2270           00314                           OCT      00314                                 #  PIPA SCALE ERROR.
002929: 16,2271           31463                           OCT      31463
002930: 16,2272           23420                           OCT      23420                                 #  POSITION
002931: 16,2273           00000                           OCT      00000
002932: 16,2274           00201                           OCT      00201                                 #  VELOCITY
002933: 16,2275           30327                           OCT      30327                                 #  ( POINT BETWEEN BITS 7-8 )
002934: 16,2276           01371                           OCT      01371                                 #  TIME WEEKS
002935: 16,2277           34750                           OCT      34750                                 #  ( POINT BETWEEN BITS 7-8 )
002936: 16,2300           00001                           OCT      00001                                 #  ELEVATION DEGREES
002937: 16,2301           03434                           OCT      03434
002938: 16,2302           00006                           OCT      00006                                 #  RENDEZVOUS RADAR RANGE
002939: 16,2303           20162                           OCT      20162
002940: 16,2304           00011                           OCT      00011                                 #  RENDEZVOUS RADAR RANGE RATE
002941: 16,2305           27066                           OCT      27066
002942: 16,2306           00016                           OCT      00016                                 #  LANDING RADAR ALTITUDE
002943: 16,2307           04245                           OCT      04245
002944: 16,2310           00002                           OCT      00002                                 #  INITIAL/FINAL ALTITUDE
002945: 16,2311           23224                           OCT      23224
002946: 16,2312           00014                           OCT      00014                                 #  ALTITUDE RATE
002947: 16,2313           06500                           OCT      06500
002948: 16,2314           00012                           OCT      00012                                 #  FORWARD/LATERAL VELOCITY
002949: 16,2315           36455                           OCT      36455
002950: 16,2316           04256                           OCT      04256                                 #  ROT HAND CONT ANGLE RATE
002951: 16,2317           07071                           OCT      07071
002952: 16,2320           77766                           OCT      77766                                 #  LANDING RADAR VELX (NEG TO SWITCH SIGNS)
002953: 16,2321           60044                           OCT      60044
002954:


002956: 16,2322           00004                           OCT      00004                                 #  LANDING RADAR VELY
002957: 16,2323           34055                           OCT      34055
002958: 16,2324           00007                           OCT      00007                                 #  LANDING RADAR VELZ
002959: 16,2325           04147                           OCT      04147
002960: 16,2326           00005                           OCT      00005                                 #  OPTICAL AZIMUTH TRACKER ANGLE
002961: 16,2327           21616                           OCT      21616
002962:                                                                                                  #  END OF SFINTAB
002963:
002964:
002965:
002966: 16,2330           05174        SFOUTAB            OCT      05174                                 #  WHOLE, TIME(SEC)
002967: 16,2331           13261                           OCT      13261
002968: 16,2332           27670                           OCT      27670                                 #  TIME HOURS
002969: 16,2333           31357                           OCT      31357
002970: 16,2334           00000                           OCT      0                                     #  DEGREES
002971: 16,2335           00000                           OCT      0
002972: 16,2336           00714                           OCT      00714                                 #  GYRO DEGREES
002973: 16,2337           31463                           OCT      31463                                 #  (POINT BETWEEN BITS 7-8)
002974: 16,2340           35753                           OCT      35753                                 #  GYRO BIAS DRIFT
002975: 16,2341           32323                           OCT      32323
002976: 16,2342           03216                           OCT      03216                                 #  GYRO AXIS ACCEL. DRIFT
002977: 16,2343           06400                           OCT      06400
002978: 16,2344           07237                           OCT      07237                                 #  PIPA BIAS
002979: 16,2345           37776                           OCT      37776
002980: 16,2346           00120                           OCT      00120                                 #  PIPA SCALE ERROR
002981: 16,2347           00000                           OCT      00000
002982: 16,2350           00321                           OCT      00321                                 #  POSITION
002983: 16,2351           26706                           OCT      26706                                 #  ( POINT BETWEEN BITS 7-8 )
002984: 16,2352           37441                           OCT      37441                                 #  VELOCITY
002985: 16,2353           14247                           OCT      14247
002986: 16,2354           05300                           OCT      05300                                 #  TIME WEEKS
002987: 16,2355           20305                           OCT      20305
002988: 16,2356           34631                           OCT      34631                                 #  ELEVATION DEGREES
002989: 16,2357           23146                           OCT      23146
002990: 16,2360           04725                           OCT      04725                                 #  RENDEZVOUS RADAR RANGE
002991: 16,2361           35454                           OCT      35454
002992: 16,2362           03225                           OCT      03225                                 #  RENDEZVOUS RADAR RANGE RATE
002993: 16,2363           07470                           OCT      07470
002994: 16,2364           02207                           OCT      02207                                 #  LANDING RADAR ALTITUDE
002995: 16,2365           03255                           OCT      03255
002996: 16,2366           14226                           OCT      14226                                 #  INITIAL/FINAL ALTITUDE
002997: 16,2367           31757                           OCT      31757
002998: 16,2370           02476                           OCT      02476                                 #  ALTITUDE RATE
002999: 16,2371           05531                           OCT      05531
003000: 16,2372           02727                           OCT      02727                                 #  FORWARD/LATERAL VELOCITY
003001: 16,2373           16415                           OCT      16415
003002: 16,2374           00007                           OCT      00007                                 #  ROT HAND CONT ANGLE RATE
003003: 16,2375           13734                           OCT      13734
003004: 16,2376           74502                           OCT      74502                                 #  LANDING RADAR VELX (NEG TO SWITCH SIGNS)
003005: 16,2377           76401                           OCT      76401
003006:


003008: 16,2400           06436                           OCT      06436                                 #  LANDING RADAR VELY
003009: 16,2401           35664                           OCT      35664
003010: 16,2402           04371                           OCT      04371                                 #  LANDING RADAR VELZ
003011: 16,2403           17420                           OCT      17420
003012: 16,2404           05605                           OCT      05605                                 #  OPTICAL TRACKER AZIMUTH ANGLE
003013: 16,2405           03656                           OCT      03656
003014:                                                                                                  #  END OF SFOUTAB
003015:
003016:
003017:                                                                                                  #  MIXNOUN   SF ROUT
003018: 16,2406           03461        IDADDTAB           ECADR    RSTACK     +18D                       #  01        LANDING RADAR ALTITUDE
003019: 16,2407           03465                           ECADR    RSTACK     +22D                       #  01        SECONDS
003020: 16,2410           03437                           ECADR    RSTACK                                #  02        LANDING RADAR VELX
003021: 16,2411           03443                           ECADR    RSTACK     +4                         #  02        SECONDS
003022: 16,2412           03445                           ECADR    RSTACK     +6                         #  03        LANDING RADAR VELY
003023: 16,2413           03451                           ECADR    RSTACK     +10D                       #  03        SECONDS
003024: 16,2414           03453                           ECADR    RSTACK     +12D                       #  04        LANDING RADAR VELY
003025: 16,2415           03457                           ECADR    RSTACK     +16D                       #  04        SECONDS
003026: 16,2416           00333                           ECADR    DSPTEM1                               #  05        DEGREES
003027: 16,2417           00334                           ECADR    DSPTEM1    +1                         #  05        ELEVATION DEGREES
003028: 16,2420           03437                           ECADR    RSTACK                                #  06        RENDEZVOUS RADAR RANGE
003029: 16,2421           03441                           ECADR    RSTACK     +2                         #  06        DEGREES
003030: 16,2422           03442                           ECADR    RSTACK     +3                         #  06        DEGREES
003031: 16,2423           03445                           ECADR    RSTACK     +6                         #  07        RENDEZVOUS RADAR RANGE RATE
003032: 16,2424           03447                           ECADR    RSTACK     +8D                        #  07        DEGREES
003033: 16,2425           03450                           ECADR    RSTACK     +9D                        #  07        DEGREES
003034: 16,2426           00352                           ECADR    ALT                                   #  10        INITIAL/FINAL ALTITUDE
003035: 16,2427           00355                           ECADR    FINALT                                #  10        INITIAL/FINAL ALTITUDE
003036: 16,2430           00354                           ECADR    ALTRATE                               #  10        ALTITUDE RATE
003037: 16,2431           00013                           ECADR    SAMPTIME                              #  11        HOURS
003038: 16,2432           00013                           ECADR    SAMPTIME                              #  11        SECONDS
003039: 16,2433           00336                           ECADR    DSPTEM2                               #  11        WHOLE
003040: 16,2434           00337                           ECADR    DSPTEM2    +1                         #  12        FRACTIONAL
003041: 16,2435           00340                           ECADR    DSPTEM2    +2                         #  12        WHOLE
003042: 16,2436           00403                           ECADR    DELVX                                 #  13        GYRO DEGREES
003043: 16,2437           00405                           ECADR    DELVX      +2                         #  13        GYRO DEGREES
003044: 16,2440           00407                           ECADR    DELVX      +4                         #  13        GYRO DEGREES
003045: 16,2441           01471                           ECADR    AZANG                                 #  14        OPT TRACK AZIMUTH ANGLE
003046: 16,2442           01471                           ECADR    ELANG                                 #  14        DEGREES
003047: 16,2443           01471                           ECADR    DESLOTSY                              #  15        OPT TRACK AZIMUTH ANGLE
003048: 16,2444           01471                           ECADR    DESLOTSX                              #  15        DEGREES
003049: 16,2445           02052                           ECADR    DELR                                  #  16        POSITION
003050: 16,2446           02054                           ECADR    DELR       +2                         #  16        POSITION
003051: 16,2447           02056                           ECADR    DELR       +4                         #  16        POSITION
003052: 16,2450           02060                           ECADR    DELVEL                                #  17        VELOCITY
003053: 16,2451           02062                           ECADR    DELVEL     +2                         #  17        VELOCITY
003054: 16,2452           02064                           ECADR    DELVEL     +4                         #  17        VELOCITY
003055: 16,2453           02166                           ECADR    TDEC                                  #  20        TIME WEEKS
003056: 16,2454           02174                           ECADR    MEASQ                                 #  20        POSITION
003057:


003059: 16,2455           02200                           ECADR    MEASMODE                              #  20        WHOLE
003060: 16,2456           00333                           ECADR    DSPTEM1                               #  21        POSITION
003061: 16,2457           00335                           ECADR    DSPTEM1    +2                         #  21        VELOCITY
003062: 16,2460           02176                           ECADR    DELTAQ                                #  21        POSITION
003063: 16,2461           00333                           ECADR    DSPTEM1                               #  22        POSITION
003064: 16,2462           00335                           ECADR    DSPTEM1    +2                         #  22        POSITION
003065: 16,2463           00337                           ECADR    DSPTEM1    +4                         #  22        POSITION
003066: 16,2464           00333                           ECADR    DSPTEM1                               #  23        VELOCITY
003067: 16,2465           00335                           ECADR    DSPTEM1    +2                         #  23        VELOCITY
003068: 16,2466           00337                           ECADR    DSPTEM1    +4                         #  23        VELOCITY
003069: 16,2467           00000                           OCT      00000                                 #            SPARE
003070: 16,2470           00000                           OCT      00000                                 #            SPARE
003071: 16,2471           00000                           OCT      00000                                 #            SPARE
003072: 16,2472           00000                           OCT      00000                                 #            SPARE
003073: 16,2473           00000                           OCT      00000                                 #            SPARE
003074: 16,2474           00000                           OCT      00000                                 #            SPARE
003075:                                                                                                  #  END OF IDADDTAB
003076:
003077:
003078:
003079:                                                                                                  #  MIXNOUN  SF ROUT
003080: 16,2475           00204        RUTMXTAB           OCT      00204                                 #  01  LANDING RADAR ALTITUDE, SECONDS
003081: 16,2476           00204                           OCT      00204                                 #  02  LANDING RADAR VELX, SECONDS
003082: 16,2477           00204                           OCT      00204                                 #  03  LANDING RADAR VELY, SECONDS
003083: 16,2500           00204                           OCT      00204                                 #  04  LANDING RADAR VELZ, SECONDS
003084: 16,2501           00142                           OCT      00142                                 #  05  DEGREES, ELEVATION DEGREES
003085: 16,2502           04104                           OCT      04104                                 #  06  RENDEZVOUS RADAR RANGE, DEG, DEG
003086: 16,2503           04104                           OCT      04104                                 #  07  REND. RADAR RANGE RATE, DEG, DEG
003087: 16,2504           06204                           OCT      06204                                 #  10  INIT/FIN ALT, INIT/FIN ALT, ALT RATE
003088: 16,2505           00205                           OCT      00205                                 #  11  HOURS, SECONDS
003089: 16,2506           06043                           OCT      06043                                 #  12  WHOLE, FRACTIONAL, WHOLE
003090: 16,2507           16347                           OCT      16347                                 #  13  GYRO DEGREES (FOR EACH)
003091: 16,2510           00104                           OCT      00104                                 #  14  OPT TRACK AZIMUTH ANGLE, DEGREES
003092: 16,2511           00104                           OCT      00104                                 #  15  OPT TRACK AZIMUTH ANGLE, DEGREES
003093: 16,2512           16347                           OCT      16347                                 #  16  POSITION (FOR EACH)
003094: 16,2513           12245                           OCT      12245                                 #  17  VELOCITY (FOR EACH)
003095: 16,2514           06345                           OCT      06345                                 #  20  TIME WEEKS, POSITION, WHOLE
003096: 16,2515           16247                           OCT      16247                                 #  21  POSITION , VELOCITY, POSITION
003097: 16,2516           16347                           OCT      16347                                 #  22  POSITION (FOR EACH)
003098: 16,2517           12245                           OCT      12245                                 #  23  VELOCITY (FOR EACH)
003099:                                                                                                  #  END OF RUTMXTAB
003100:
003101:
003102:
003103: 16,2520                        ENDPINS3           EQUALS
003104:


003106:
003107:                                                                                                  #  MISCELLANEOUS SERVICE ROUTINES IN FIXED/FIXED
003108:
003109:
003110:
003111:    5161                                           SETLOC   DATWAIT1   +2
003112:
003113:                                                                                                  #  SETNCADR      E CADR ARRIVES IN A. IT IS STORED IN NOUNCADR. EBANK BITS
003114:                                                                                                  #                ARE SET.  E ADRES IS DERIVED AND PUT INTO NOUNADD.
003115:
003116:    5161           54304        SETNCADR           TS       NOUNCADR                              #  STORE ECADR
003117:    5162           54003                           TS       EBANK                                 #  SET EBANK BITS
003118:    5163           75235                           MASK     LOW8
003119:    5164           65236                           AD       OCT1400
003120:    5165           54131                           TS       NOUNADD                               #  PUT E ADRES INTO NOUNADD
003121:    5166           00002                           TC       Q
003122:
003123:
003124:
003125:                                                                                                  #  SETNADD       GETS E CADR FROM NOUNCADR, SETS EBANK BITS, DERIVES
003126:                                                                                                  #                E ADRES AND PUTS IT INTO NOUNADD.
003127:
003128:    5167           30304        SETNADD            CA       NOUNCADR
003129:    5170           15162                           TCF      SETNCADR   +1
003130:
003131:
003132:
003133:                                                                                                  #  SETEBANK      E CADR ARRIVES IN A. EBANK BITS ARE SET. E ADRES IS
003134:                                                                                                  #                DERIVED AND LEFT IN A.
003135:
003136:    5171           54003        SETEBANK           TS       EBANK                                 #  SET EBANK BITS
003137:    5172           75235                           MASK     LOW8
003138:    5173           65236                           AD       OCT1400                               #  E ADRES LEFT IN A
003139:    5174           00002                           TC       Q
003140:
003141:
003142:
003143:    5175           00016        R1D1               OCT      16
003144:    5176           00011        R2D1               OCT      11
003145:    5177           00004        R3D1               OCT      4
003146:
003147:    5200           54020        RIGHT5             TS       CYR
003148:    5201           40020                           CS       CYR
003149:    5202           40020                           CS       CYR
003150:    5203           40020                           CS       CYR
003151:    5204           40020                           CS       CYR
003152:    5205           56020                           XCH      CYR
003153:    5206           00002                           TC       Q
003154:
003155:    5207           54022        LEFT5              TS       CYL
003156:    5210           40022                           CS       CYL
003157:


003159:    5211           40022                           CS       CYL
003160:    5212           40022                           CS       CYL
003161:    5213           40022                           CS       CYL
003162:    5214           56022                           XCH      CYL
003163:    5215           00002                           TC       Q
003164:
003165:    5216           60000        SLEFT5             DOUBLE
003166:    5217           60000                           DOUBLE
003167:    5220           60000                           DOUBLE
003168:    5221           60000                           DOUBLE
003169:    5222           60000                           DOUBLE
003170:    5223           00002                           TC       Q
003171:
003172:
003173:
003174:    5224           00037        LOW5               OCT      37
003175:    5225           01740        MID5               OCT      1740
003176:    5226           76000        HI5                OCT      76000                                 #  MUST STAY HERE
003177:
003178:    5227           04363        TCNOVAC            TC       NOVAC
003179:    5230           04536        TCWAIT             TC       WAITLIST
003180:    5231           04602        TCTSKOVR           TC       TASKOVER
003181:    5232           04374        TCFINDVC           TC       FINDVAC
003182:
003183:
003184:
003185:    5233           30000        CHRPRIO            OCT      30000                                 #  EXEC PRIORITY OF CHARIN
003186:
003187:
003188:
003189:    5234           03777        LOW11              OCT      3777
003190:    5235     5234               B12-1              EQUALS   LOW11
003191:    5235           00377        LOW8               OCT      377
003192:    5236           01400        OCT1400            OCT      1400
003193:
003194:
003195:
003196:    5237           00023        VD1                OCT      23
003197:    5240           00021        ND1                OCT      21
003198:    5241           00025        MD1                OCT      25
003199:
003200:    5242           00012        BINCON             DEC      10         B-14
003201:
003202:    5243           37651        FALTON             CA       BIT7                                  #  TURN ON OPERATOR ERROR LIGHT
003203:    5244           00006                           EXTEND
003204:    5245           05011                           WOR      DSALMOUT                              #  BIT 7 OF CHANNEL 11
003205:    5246           00002                           TC       Q
003206:
003207:    5247           47651        FALTOF             CS       BIT7                                  #  TURN OFF OPERATOR ERROR LIGHT
003208:    5250           00006                           EXTEND
003209:


003211:    5251           03011                           WAND     DSALMOUT                              #  BIT 7 OF CHANNEL 11
003212:    5252           00002                           TC       Q
003213:
003214:    5253           37653        RELDSPON           CAF      BIT5                                  #  TURN ON KEY RELEASE LIGHT
003215:    5254           00006                           EXTEND
003216:    5255           05011                           WOR      DSALMOUT                              #  BIT 5 OF CHANNEL 11
003217:    5256           00002                           TC       Q
003218:
003219:    5257           00006        LODSAMPT           EXTEND
003220:    5260           30025                           DCA      TIME2
003221:    5261           52014                           DXCH     SAMPTIME
003222:    5262           00002                           TC       Q
003223:
003224:
003225:
003226:    5263           00006        TPSL1              EXTEND                                         #  SHIFTS MPAC, +1, +2 LEFT 1
003227:    5264           30142                           DCA      MPAC       +1                         #  LEAVES OVFIND SET TO +/- 1 FOR OF/UF
003228:    5265           20142                           DAS      MPAC       +1
003229:    5266           60140                           AD       MPAC
003230:    5267           26140                           ADS      MPAC
003231:    5270           54007                           TS       7                                     #  TS A DOES NOT CHANGE A ON OF/UF.
003232:    5271           00002                           TC       Q                                     #  NO NET OF/UF
003233:    5272           54105                           TS       OVFIND                                #  OVFIND SET TO +/- 1 FOR OF/UF
003234:    5273           00002                           TC       Q
003235:
003236:
003237:
003238:    5274           37652        FLASHON            CAF      BIT6                                  #  TURN ON V/N FLASH
003239:    5275           00006                           EXTEND                                         #  BIT 6 OF CHANNEL 11
003240:    5276           05011                           WOR      DSALMOUT
003241:    5277           00002                           TC       Q
003242:
003243:
003244:
003245:    5300           47652        FLASHOFF           CS       BIT6                                  #  TURN OFF V/N FLASH
003246:    5301           00006                           EXTEND
003247:    5302           03011                           WAND     DSALMOUT                              #  BIT 6 OF CHANNEL 11
003248:    5303           00002                           TC       Q
003249:


003251:                                                                                                  #  INTERNAL ROUTINES THAT USE THE KEYBOARD AND DISPLAY SYSTEM(THRU
003252:                                                                                                  #  NVSUB) MUST  TC GRABDSP  BEFOREHAND , TO GRAB THE DISPLAY SYSTEM AND
003253:                                                                                                  #  MAKE IT BUSY TO OTHER INTERNAL USERS.
003254:
003255:                                                                                                  #        WHEN FINISHED , THERE MUST BE A TC FREEDSP , TO RELEASE THE
003256:                                                                                                  #  SYSTEM FOR OTHER INTERNAL USERS.
003257:
003258:                                                                                                  #        THE CALLING SEQUENCES ARE
003259:                                                                                                  #  L        TC     GRABDSP
003260:                                                                                                  #  L+1      RETURN HERE WHEN SYSTEM IS ALREADY GRABBED
003261:                                                                                                  #  L+2      RETURN HERE MEANS YOU HAVE IT
003262:
003263:                                                                                                  #  L        TC     NVSUB
003264:                                                                                                  #  L+1      RETURN HERE IF OPERATOR HAS INTERVENED
003265:                                                                                                  #  L+2      RETURN HERE AFTER EXECUTION
003266:
003267:
003268:
003269:                                                                                                  #        A ROUTINE CALLED GRABUSY IS PROVIDED (USE IS OPTIONAL) TO PUT YOUR
003270:                                                                                                  #  JOB TO SLEEP UNTIL THE SYSTEM IS FREED BY THE JOB HOLDING IT.
003271:                                                                                                  #  GRABUSY CANNOT BE CALLED FROM E MEMORY, SINCE JOBSLEEP AND JOBWAKE
003272:                                                                                                  #  HANDLE ONLY FIXED MEMORY.
003273:                                                                                                  #  YOUR CADR IS PUT AT FIRST AVAILABLE SLOT IN A WAITING LIST (FIFO).
003274:
003275:                                                                                                  #        THE CALLING SEQUENCE IS
003276:                                                                                                  #           CAF    WAKEFCADR
003277:                                                                                                  #           TC     GRABUSY
003278:
003279:                                                                                                  #        A ROUTINE CALLED NVSUBUSY IS PROVIDED (USE IS OPTIONAL)  TO PUT
003280:                                                                                                  #  YOUR JOB TO SLEEP UNTIL THE OPERATOR RELEASES IT.
003281:                                                                                                  #  NVSUBUSY CANNOT BE CALLED FROM E MEMORY, SINCE JOBSLEEP AND JOBWAKE
003282:                                                                                                  #  HANDLE ONLY FIXED MEMORY.
003283:                                                                                                  #                                              YOUR CADR IS PUT
003284:                                                                                                  #  ON TOP OF A WAITING LIST (FIFO). IT ALSO TURNS ON KEY RELEASE LIGHT.
003285:
003286:                                                                                                  #         THE CALLING SEQUENCE IS
003287:                                                                                                  #           CAF    WAKEFCADR
003288:                                                                                                  #           TC     NVSUBUSY
003289:
003290:
003291:                                                                                                  #  AFTER A TC FREEDSP, THE INTERNAL INTERLOCK IS KEPT BUSY FOR 10 SECONDS,
003292:                                                                                                  #  AFTER WHICH A CADR IS CALLED FROM THE LIST. THIS INSURES THAT ALL
003293:                                                                                                  #  DISPLAYS WAITING WILL BE VISIBLE.
003294:
003295:
003296:
003297:                                                                                                  #  GRABLOCK IS THE INTERNAL INTERLOCK FOR THE USE OF THE KEYBOARD
003298:                                                                                                  #  AND DISPLAY SYSTEM.
003299:                                                                                                  #  +0  FREE
003300:


003302:                                                                                                  #  +1  SOME INTERNAL ROUTINE HAS GRABBED DSP SYST
003303:                                                                                                  #  +2  SOME INTERNAL ROUTINE HAS GONE TO NVSUBUSY
003304:
003305:
003306:
003307:    5304           10324        GRABDSP            CCS      GRABLOCK
003308:    5305           00002                           TC       Q                                     #  ALREADY GRABBED, RETURN TO L+1
003309:    5306           37657                           CAF      ONE                                   #  NOT GRABBED, SET TO +1
003310:    5307           54324                           TS       GRABLOCK                              #  AND RETURN TO L+2
003311:    5310           50002                           INDEX    Q
003312:    5311           00001                           TC       1
003313:
003314:
003315:
003316:    5312           36426        PREGBSY            CAF      LOW10                                 #  SPECIAL ENTRANCE FOR ROUTINES IN FIXED
003317:    5313           70002                           MASK     Q                                     #  BANKS ONLY DESIRING THE FCADR OF
003318:    5314           60004                           AD       FBANK                                 #  1 + (LOC FROM WHICH TC PREGBSY WAS DONE)
003319:    5315           04102        GRABUSY            TC       POSTJUMP                              #  TO BE ENTERED.
003320:    5316           10000                           CADR     GRABUSYB
003321: 04,3454                                           SETLOC   DOPROC     +2
003322: 04,3454           54001        GRABUSY1           TS       L
003323: 04,3455           10324                           CCS      GRABLOCK
003324: 04,3456           03461                           TC       +3                                    #  STILL GRABBED
003325: 04,3457           30001                           CA       L                                     #  NOT GRABBED SO DO DIRECT CALL
003326: 04,3460           04105                           TC       BANKJUMP
003327: 04,3461           37656                           CAF      TWO
003328: 04,3462           54130                           TS       LSTPTR
003329: 04,3463           50130                           INDEX    LSTPTR                                #  SEARCH LIST FOR FIRST AVAILABLE SPACE
003330: 04,3464           10327                           CCS      DSPLIST                               #  FROM BOTTOM.
003331: 04,3465           03467                           TC       +2
003332: 04,3466           03472                           TC       PUTINLST                              #  SPACE FOUND
003333: 04,3467           10130                           CCS      LSTPTR                                #  DECREMENT POINTER
003334: 04,3470           03462                           TC       -6
003335: 04,3471           03536                           TC       LSTFULL
003336: 04,3472           30001        PUTINLST           CA       L
003337: 04,3473           50130                           INDEX    LSTPTR
003338: 04,3474           54327                           TS       DSPLIST
003339: 04,3475           04416                           TC       JOBSLEEP
003340:
003341:
003342:                                                                                                  #  GRABWAIT IS A SPECIAL ENTRANCE FOR ROUTINES IN FIXED BANKS ONLY. IF
003343:                                                                                                  #  SYSTEM IS NOT GRABBED, IT GRABS IT AND RETURNS TO L+1 ( L = LOC FROM
003344:                                                                                                  #  WHICH THE TC GRABWAIT WAS DONE). IF SYSTEM IS GRABBED, IT PUTS CALLING
003345:                                                                                                  #  JOB TO SLEEP WITH L+1 GOING INTO LIST FOR EVENTUAL WAKING UP WHEN
003346:                                                                                                  #  SYSTEM IS FREED.
003347:
003348:    5317                                           SETLOC   GRABUSY    +2
003349:    5317           10324        GRABWAIT           CCS      GRABLOCK
003350:    5320           15312                           TCF      PREGBSY                               #  GRABBED. PUT L+1 INTO LIST. GO TO SLEEP.
003351:


003353:    5321           37657                           CAF      ONE                                   #  NOT GRABBED. GRAB AND RETURN TO L+1.
003354:    5322           54324                           TS       GRABLOCK
003355:    5323           00002                           TC       Q
003356:
003357:
003358:
003359:    5324           45331        PRENVBSY           CS       2K+3                                  #  SPECIAL ENTRANCE FOR ROUTINES IN FIXED
003360:    5325           60002                           AD       Q                                     #  BANKS ONLY DESIRING THE FCADR OF(LOC
003361:    5326           60004                           AD       FBANK                                 #  FROM WHICH THE TC PRENVBSY WAS DONE) -2
003362:    5327           04102        NVSUBUSY           TC       POSTJUMP                              #  TO BE ENTERED.
003363:    5330           10001                           CADR     NVSUBSYB
003364:    5331           02003        2K+3               OCT      2003
003365:
003366: 04,3476                                           SETLOC   PUTINLST   +4
003367: 04,3476           54001        NVSUBSY1           TS       L
003368: 04,3477           10277                           CCS      DSPLOCK                               #  TEST IF REALLY LOCKED OUT
003369: 04,3500           03503                           TC       +3                                    #  STILL BUSY
003370: 04,3501           30001                           CA       L                                     #  DSPLOCK = +0 SO RETURN DIRECTLY
003371: 04,3502           04105                           TC       BANKJUMP
003372: 04,3503           37656                           CAF      TWO                                   #  SET FOR GRABBED STATE AND NVSUBUSY USE
003373: 04,3504           54324                           TS       GRABLOCK
003374: 04,3505           30001                           CA       L
003375: 04,3506           56331                           XCH      DSPLIST    +2                         #  ENTER CADR INTO FIRST POSITION OF LIST
003376: 04,3507           56330                           XCH      DSPLIST    +1                         #          (BOTTOM)
003377: 04,3510           56327                           XCH      DSPLIST
003378: 04,3511           10000                           CCS      A
003379: 04,3512           03536                           TC       LSTFULL
003380: 04,3513           03515                           TC       +2
003381: 04,3514           03536                           TC       LSTFULL
003382: 04,3515           05253                           TC       RELDSPON
003383: 04,3516           30001                           CA       L
003384: 04,3517           04416        ENDNVBSY           TC       JOBSLEEP
003385:
003386:
003387:
003388:                                                                                                  #  NVSBWAIT IS A SPECIAL ENTRANCE FOR ROUTINES IN FIXED BANKS ONLY. IF
003389:                                                                                                  #  SYSTEM IS NOT BUSY, IT EXECUTES V/N AND RETURNS TO L+1 (L= LOC FROM
003390:                                                                                                  #  WHICH THE TC NVSBWAIT WAS DONE). IF SYSTEM IS BUSY, IT PUTS CALLING JOB
003391:                                                                                                  #  TO SLEEP WITH L-1 GOING INTO LIST FOR EVENTUAL WAKING UP WHEN SYSTEM
003392:                                                                                                  #  IS NOT BUSY.
003393:
003394:    5332                                           SETLOC   NVSUBUSY   +3
003395:    5332           54107        NVSBWAIT           TS       NVTEMP
003396:    5333           10277                           CCS      DSPLOCK
003397:    5334           15337                           TCF      NVSBWT1                               #  BUSY
003398:    5335           30002                           CA       Q                                     #  FREE. NVSUB WILL SAVE L+1 FOR RETURN
003399:    5336           15114                           TCF      NVSUB      +5                         #  AFTER EXECUTION.
003400:    5337           24002        NVSBWT1            INCR     Q                                     #  L+2. PRENVBSY WILL PUT L-1 INTO LIST AND
003401:    5340           15324                           TCF      PRENVBSY                              #  GO TO SLEEP.
003402:


003404:    5341           56002        RELDSP             XCH      Q                                     #  SET DSPLOCK TO +0, TURN RELDSP LIGHT
003405:    5342           54130                           TS       RELRET                                #  OFF, SEARCH DSPLIST
003406:    5343           37667                           CAF      NEG1
003407:    5344           60324                           AD       GRABLOCK
003408:    5345           00006                           EXTEND                                         #  SEARCH LIST ONLY IF GRABLOCK = +2
003409:    5346           65354                           BZMF     RELDSP2                               #    (SOMEONE USED NVSUBUSY)
003410:    5347           05367                           TC       WKSEARCH
003411:    5350           05354                           TC       RELDSP2                               #  LIST EMPTY
003412:    5351           04422                           TC       JOBWAKE                               #  LIST NOT EMPTY
003413:    5352           37657                           CAF      ONE
003414:    5353           54324                           TS       GRABLOCK
003415:    5354           00004        RELDSP2            INHINT
003416:    5355           47653                           CS       BIT5                                  #  TURN OFF KEY RELEASE LIGHT
003417:    5356           00006                           EXTEND                                         #  (BIT 5 OF CHANNEL 11)
003418:    5357           03011                           WAND     DSALMOUT
003419:    5360           37665                           CAF      ZERO
003420:    5361           54277                           TS       DSPLOCK
003421:    5362           00003                           RELINT
003422:    5363           00130                           TC       RELRET
003423:    5364           56002        RELDSP1            XCH      Q                                     #  SET DSPLOCK TO +0. RELDSP LIGHT OFF.
003424:    5365           54130                           TS       RELRET                                #  NO LIST SEARCH
003425:    5366           05354                           TC       RELDSP2
003426:
003427:
003428:
003429:    5367           37665        WKSEARCH           CAF      ZERO                                  #  SEARCHES LIST. LEAVES RESULT IN A.
003430:    5370           56327                           XCH      DSPLIST                               #  IF EMPTY, RETURN TO L+1.
003431:    5371           56330                           XCH      DSPLIST    +1                         #  IF NOT EMPTY, INHINT AND RETURN TO L+2.
003432:    5372           56331                           XCH      DSPLIST    +2
003433:    5373           00006                           EXTEND
003434:    5374           15400                           BZF      +4                                    #  EMPTY
003435:    5375           00004                           INHINT                                         #  NOT EMPTY
003436:    5376           50002                           INDEX    Q                                     #  RETURN TO L+2
003437:    5377           00001                           TC       1
003438:    5400           00002                           TC       Q                                     #  RETURN TO L+1
003439:
003440:
003441:
003442:    5401           56002        FREEDSP            XCH      Q
003443:    5402           54130                           TS       FREERET
003444:    5403           00004                           INHINT
003445:    5404           35412                           CAF      SHOTIME
003446:    5405           04536                           TC       WAITLIST
003447:    5406     0264                                  EBANK=   DSPCOUNT
003448:    5406           03520 10000                     2CADR    FREEWAIT
003449:    5410           00003                           RELINT
003450:    5411           00130                           TC       FREERET
003451:
003452:    5412           01130        SHOTIME            DEC      600        B-14                       #  6 SECOND WAITING PERIOD.
003453:


003455:    5413                        ENDPINBF           EQUALS
003456:
003457: 04,3520                                           SETLOC   ENDNVBSY   +1
003458:
003459: 04,3520           35233        FREEWAIT           CAF      CHRPRIO                               #  CALLED BY T3RUPT
003460: 04,3521           04363                           TC       NOVAC
003461: 04,3522     0264                                  EBANK=   DSPCOUNT
003462: 04,3522           03525 10000                     2CADR    FREDSPD0
003463: 04,3524           04602                           TC       TASKOVER
003464:
003465:
003466:
003467: 04,3525           05367        FREDSPD0           TC       WKSEARCH                              #  CALLED BY EXECUTIVE
003468: 04,3526           03534                           TC       LSTEMPTY                              #  LIST EMPTY
003469: 04,3527           04422                           TC       JOBWAKE                               #  LIST NOT EMPTY
003470: 04,3530           00003                           RELINT
003471: 04,3531           37657                           CAF      ONE                                   #  SET FOR GRABBED CONDITION
003472: 04,3532           54324                           TS       GRABLOCK
003473: 04,3533           04440                           TC       ENDOFJOB
003474: 04,3534           37665        LSTEMPTY           CAF      ZERO                                  #  SET FOR FREE CONDITION
003475: 04,3535           03532                           TC       -3
003476:
003477:
003478:
003479: 04,3536           05446        LSTFULL            TC       ABORT
003480: 04,3537           01206                           OCT      01206                                 #  PINBALL WAITING LINE FULL.
003481:
003482: 04,3540                        ENDPINS1           EQUALS
003483:


003485:                                                                                                  #  VBTSTLTS TURNS ON ALL DISPLAY PANEL LIGHTS. AFTER 5 SEC, IT TURNS
003486:                                                                                                  #  OFF THE CAUTION AND STATUS LIGHTS.
003487:
003488: 05,3414                                           SETLOC   DSPMMEND   +1
003489:
003490: 05,3414           00004        VBTSTLTS           INHINT
003491: 05,3415           47657                           CS       BIT1                                  #  SET BIT 1 OF IMODES33 SO IMUMON WONT
003492: 05,3416           70370                           MASK     IMODES33                              #  TURN OUT ANY LAMPS.
003493: 05,3417           67657                           AD       BIT1
003494: 05,3420           54370                           TS       IMODES33
003495:
003496: 05,3421           33457                           CAF      TSTCON1                               #  TURN ON UPLINK ACTIVITY, TEMP, KEY RLSE,
003497: 05,3422           00006                           EXTEND                                         #  V/N FLASH, OPERATOR ERROR.
003498: 05,3423           05011                           WOR      DSALMOUT
003499: 05,3424           33460                           CAF      TSTCON2                               #  TURN ON NO ATT, GIMBAL LOCK, TRACKER,
003500: 05,3425           54322                           TS       DSPTAB     +11D                       #  PROG ALM.
003501: 05,3426           37646                           CAF      BIT10                                 #  TURN ON TEST ALARM OUTBIT
003502: 05,3427           00006                           EXTEND
003503: 05,3430           05013                           WOR      CHAN13
003504: 05,3431           37661                           CAF      TEN
003505: 05,3432           54103        TSTLTS1            TS       ERCNT
003506: 05,3433           43455                           CS       FULLDSP
003507: 05,3434           50103                           INDEX    ERCNT
003508: 05,3435           54307                           TS       DSPTAB
003509: 05,3436           10103                           CCS      ERCNT
003510: 05,3437           03432                           TC       TSTLTS1
003511: 05,3440           43456                           CS       FULLDSP1
003512: 05,3441           54310                           TS       DSPTAB     +1                         #  TURN ON 3 PLUS SIGNS
003513: 05,3442           54313                           TS       DSPTAB     +4
003514: 05,3443           54315                           TS       DSPTAB     +6
003515: 05,3444           37660                           CAF      ELEVEN
003516: 05,3445           54303                           TS       NOUT
003517: 05,3446           00003                           RELINT
003518: 05,3447           33462                           CAF      SHOLTS
003519: 05,3450           00004                           INHINT
003520: 05,3451           04536                           TC       WAITLIST
003521: 05,3452     0307                                  EBANK=   DSPTAB
003522: 05,3452           03463 12000                     2CADR    TSTLTS2
003523:
003524: 05,3454           04440                           TC       ENDOFJOB                              #  DSPLOCK IS LEFT BUSY (FROM KEYBOARD
003525:                                                                                                  #  ACTION) UNTIL TSTLTS3 TO INSURE THAT
003526:                                                                                                  #  LIGHTS TEST WILL BE SEEN.
003527:
003528:
003529:
003530: 05,3455           05675        FULLDSP            OCT      05675                                 #  DISPLAY ALL 8:S
003531: 05,3456           07675        FULLDSP1           OCT      07675                                 #  DISPLAY ALL 8:S AND +
003532: 05,3457           00175        TSTCON1            OCT      00175
003533:                                                                                                  #  UPLINK ACTIVITY, TEMP, KEY RLSE,
003534:                                                                                                  #  V/N FLASH, OPERATOR ERROR.
003535:


003537: 05,3460           40650        TSTCON2            OCT      40650                                 #  DSPTAB+11D BITS 4,6,8,9.
003538:                                                                                                  #  NO ATT, GIMBAL LOCK, TRACKER, PROG ALM.
003539: 05,3461           00115        TSTCON3            OCT      00115                                 #  CHAN 11 BITS 1, 3, 4, 7.
003540:                                                                                                  #  UPLINK ACTIVITY, TEMP, OPERATOR ERROR.
003541: 05,3462           00764        SHOLTS             OCT      764                                   #  5 SEC
003542:
003543:
003544:
003545: 05,3463           35233        TSTLTS2            CAF      CHRPRIO                               #  CALLED BY WAITLIST
003546: 05,3464           04363                           TC       NOVAC
003547: 05,3465     0307                                  EBANK=   DSPTAB
003548: 05,3465           03470 12000                     2CADR    TSTLTS3
003549:
003550: 05,3467           04602                           TC       TASKOVER
003551:
003552:
003553:
003554: 05,3470           43461        TSTLTS3            CS       TSTCON3                               #  CALLED BY EXECUTIVE
003555: 05,3471           00004                           INHINT
003556: 05,3472           00006                           EXTEND                                         #  TURN OFF  UPLINK ACTIVITY, TEMP,
003557: 05,3473           03011                           WAND     DSALMOUT                              #  OPERATOR ERROR.
003558: 05,3474           47646                           CS       BIT10                                 #  TURN OFF  TEST ALARM OUTBIT
003559: 05,3475           00006                           EXTEND
003560: 05,3476           03013                           WAND     CHAN13
003561: 05,3477           37641                           CAF      BIT15                                 #  TURN OFF AUTO, HOLD, FREE, NO ATT, SPARE
003562: 05,3500           54322                           TS       DSPTAB     +11D                       #  GIMBAL LOCK, SPARE, TRACKER, PROG ALM
003563: 05,3501           43521                           CS       13-11,1                               #  SET BITS TO INDICATE ALL LAMPS OUT. TEST
003564: 05,3502           70370                           MASK     IMODES33                              #  LIGHTS COMPLETE.
003565: 05,3503           64515                           AD       PRIO16
003566: 05,3504           54370                           TS       IMODES33
003567:
003568: 05,3505           43523                           CS       OCT55000
003569: 05,3506           70367                           MASK     IMODES30
003570: 05,3507           64514                           AD       PRIO15                                #  15000.
003571: 05,3510           54367                           TS       IMODES30
003572:
003573: 05,3511           43522                           CS       RFAILS2
003574: 05,3512           70413                           MASK     RADMODES
003575: 05,3513           67651                           AD       BIT7
003576: 05,3514           54413                           TS       RADMODES
003577:
003578: 05,3515           00003                           RELINT
003579:
003580: 05,3516           02001                           TC       DSPMM                                 #  REDISPLAY C(MODREG)
003581: 05,3517           04102                           TC       POSTJUMP                              #  TURN OFF KEY RLSE LIGHT ( AND SEARCH LIST
003582: 05,3520           11315                           CADR     VBTERM                                #  IF APPROPRIATE).
003583:                                                                                                  #  TURN OFF V/N FLASH, SET LOADSTAT FOR
003584:                                                                                                  #  FOR TERMINATE CONDITION, AND GO TO
003585:                                                                                                  #  RECALTST. FINALLY DO TC ENDOFJOB.
003586:


003588: 05,3521           16001        13-11,1            OCT      16001
003589: 05,3522           00330        RFAILS2            OCT      330                                   #  RADAR CDU AND DATA FAIL FLAGS.
003590: 05,3523           55000        OCT55000           OCT      55000
003591: 05,3524                        ENDPINS2           EQUALS

End of include-file PINBALL_GAME__BUTTONS_AND_LIGHTS.agc.  Parent file is MAIN.agc


