
Source Code


000002:                                                                                                  ## Copyright:    Public domain.
000003:                                                                                                  ## Filename:     PINBALL_GAME__BUTTONS_AND_LIGHTS.agc
000004:                                                                                                  ## Purpose:      Part of the source code for Aurora (revision 12).
000005:                                                                                                  ## Assembler:    yaYUL
000006:                                                                                                  ## Contact:      Hartmuth Gutsche Burkey <info@sandroid.org>.
000007:                                                                                                  ## Website:      https://www.ibiblio.org/apollo.
000008:                                                                                                  ## Pages:        289-355
000009:                                                                                                  ## Mod history:  2016-09-20 JL   Created.
000010:                                                                                                  ##               2016-10-19 HG   Transcribed
000011:                                                                                                  ##               2016-12-08 RSB  Proofed comments with octopus/ProoferComments
000012:                                                                                                  ##                               and fixed the errors found.
000013:                                                                                                  ##              2017-01-28 RSB  WTIH -> WITH.
000014:                                                                                                  ##              2017-02-08 RSB  Comment-text fixes noted while proofing Artemis 72.
000015:                                                                                                  ##              2017-03-08 RSB  Changed DSPOCTWO to DSPOCTWD.
000016:                                                                                                  ##              2017-03-08 RSB  Comment-text fixes noted in proofing Luminary 116.
000017:                                                                                                  ##              2017-03-17 RSB  Comment-text fixes identified in diff'ing
000018:                                                                                                  ##                              Luminary 99 vs Comanche 55.
000019:
000020:                                                                                                  ## This source code has been transcribed or otherwise adapted from
000021:                                                                                                  ## digitized images of a hardcopy from the private collection of
000022:                                                                                                  ## Don Eyles.  The digitization was performed by archive.org.
000023:
000024:                                                                                                  ## Notations on the hardcopy document read, in part:
000025:
000026:                                                                                                  ##       473423A YUL SYSTEM FOR BLK2: REVISION 12 of PROGRAM AURORA BY DAP GROUP
000027:                                                                                                  ##       NOV 10, 1966
000028:
000029:                                                                                                  ##       [Note that this is the date the hardcopy was made, not the
000030:                                                                                                  ##       date of the program revision or the assembly.]
000031:
000032:                                                                                                  ## The scan images (with suitable reduction in storage size and consequent
000033:                                                                                                  ## reduction in image quality) are available online at
000034:                                                                                                  ##       https://www.ibiblio.org/apollo.
000035:                                                                                                  ## The original high-quality digital images are available at archive.org:
000036:                                                                                                  ##       https://archive.org/details/aurora00dapg
000037:


000039:                                                                                                  #  KEYBOARD AND DISPLAY PROGRAM
000040:
000041:
000042:
000043:                                                                                                  #  THE FOLLOWING QUOTATION IS PROVIDED THROUGH THE COUTESY OF THE AUTHORS.
000044:
000045:                                                                                                  #        ::IT WILL BE PROVED TO THY FACE THAT THOU HAST MEN ABOUT THEE THAT
000046:                                                                                                  #  USUALLY TALK OF A NOUN AND A VERB, AND SUCH ABOMINABLE WORDS AS NO
000047:                                                                                                  #  CHRISTIAN EAR CAN ENDURE TO HEAR.::
000048:
000049:                                                                                                  #                       HENRY 6, ACT 2, SCENE 4


000052:
000053:
000054:
000055:                                                                                                  #  THE FOLLOWING ASSIGNMENTS FOR PINBALL ARE MADE ELSEWHERE
000056:
000057:
000058:
000059:                                                                                                  #  RESERVED FOR PINBALL EXECUTIVE ACTION
000060:
000061:                                                                                                  #  DSPCOUNT      ERASE                   DISPLAY POSITION INDICATOR
000062:                                                                                                  #  DECBRNCH      ERASE                   +DEC, -DEC, OCT INDICATOR
000063:                                                                                                  #  VERBREG       ERASE                   VERB CODE
000064:                                                                                                  #  NOUNREG       ERASE                   NOUN CODE
000065:                                                                                                  #  XREG          ERASE                   R1 INPUT BUFFER
000066:                                                                                                  #  YREG          ERASE                   R2 INPUT BUFFER
000067:                                                                                                  #  ZREG          ERASE                   R3 INPUT BUFFER
000068:                                                                                                  #  XREGLP        ERASE                   LO PART OF XREG (FOR DEC CONV ONLY)
000069:                                                                                                  #  YREGLP        ERASE                   LO PART OF YREG (FOR DEC CONV ONLY)
000070:                                                                                                  #  ZREGLP        ERASE                   LO PART OF ZREG (FOR DEC CONV ONLY)
000071:                                                                                                  #  MODREG        ERASE                   MODE CODE
000072:                                                                                                  #  DSPLOCK       ERASE                   KEYBOARD/SUBROUTINE CALL INTERLOCK
000073:                                                                                                  #  REQRET        ERASE                   RETURN REGISTER FOR LOAD
000074:                                                                                                  #  LOADSTAT      ERASE                   STATUS INDICATOR FOR LOADTST
000075:                                                                                                  #  CLPASS        ERASE                   PASS INDICATOR CLEAR
000076:                                                                                                  #  NOUT          ERASE                   ACTIVITY COUNTER FOR DSPTAB
000077:                                                                                                  #  NOUNCADR      ERASE                   MACHINE CADR FOR NOUN
000078:                                                                                                  #  MONSAVE       ERASE                   N/V CODE FOR MONITOR. (= MONSAVE1-1)
000079:                                                                                                  #  MONSAVE1      ERASE                   NOUNCADR FOR MONITOR(MATBS) =MONSAVE +1
000080:                                                                                                  #  DSPTAB        ERASE           +13D    0-10,DISPLAY PANEL BUFFER.11-13,C RELAYS
000081:                                                                                                  #  CADRSTOR      ERASE                   ENDIDLE STORAGE
000082:                                                                                                  #  GRABLOCK      ERASE                   INTERNAL INTERLOCK FOR DISPLAY SYSTEM
000083:                                                                                                  #  NVQTEM        ERASE                   NVSUB STORAGE FOR CALLING ADDRESS
000084:                                                                                                  #                                        MUST = NVBNKTEM-1
000085:                                                                                                  #  NVBNKTEM      ERASE                   NVSUB STORAGE FOR CALLING BANK
000086:                                                                                                  #                                        MUST = NVQTEM+1
000087:                                                                                                  #  DSPLIST       ERASE           +2      WAITING LIST FOR DSP SYST INTERNAL USE
000088:                                                                                                  #  EXTVBACT      REASE                   EXTENDED VERB ACTIVITY INTERLOCK
000089:                                                                                                  #  DSPTEM1       ERASE           +2      BUFFER STORAGE AREA 1 (MOSTLY FOR TIME)
000090:                                                                                                  #  DSPTEM2       ERASE           +2      BUFFER STORAGE AREA 2 (MOSTLY FOR DEG)
000091:
000092:


000094:                                                                                                  #  END OF ERASABLES RESERVED FOR PINBALL EXECUTIVE ACTION
000095:
000096:
000097:
000098:                                                                                                  #  TEMPORARIES FOR PINBALL EXECUTIVE ACTION
000099:
000100:                                                                                                  #  DSEXIT   =      INTB15+         RETURN FOR DSPIN
000101:                                                                                                  #  EXITEM   =      INTB15+         RETURN FOR SCALE FACTOR ROUTINE SELECT
000102:                                                                                                  #  BLANKRET =      INTB15+         RETURN FOR 2BLANK
000103:
000104:                                                                                                  #  WRDRET   =      INTBIT15        RETURN FOR 5BLANK
000105:                                                                                                  #  WDRET    =      INTBIT15        RETURN FOR DSPWD
000106:                                                                                                  #  DECRET   =      INTBIT15        RETURN FOR PUTCOM(DEC LOAD)
000107:                                                                                                  #  21/22REG =      INTBIT15        TEMP FOR CHARIN
000108:
000109:                                                                                                  #  UPDATRET =      POLISH          RETURN FOR UPDATNN, UPDATVB
000110:                                                                                                  #  CHAR     =      POLISH          TEMP FOR CHARIN
000111:                                                                                                  #  ERCNT    =      POLISH          COUNTER FOR ERROR LIGHT RESET
000112:                                                                                                  #  DECOUNT  =      POLISH          COUNTER FOR SCALING AND DISPLAY (DEC)
000113:
000114:                                                                                                  #  SGNON    =      VBUF            TEMP FOR +,- ON
000115:                                                                                                  #  NOUNTEM  =      VBUF            COUNTER FOR MIXNOUN FETCH
000116:                                                                                                  #  DISTEM   =      VBUF            COUNTER FOR OCTAL DISPLAY VERBS
000117:                                                                                                  #  DECTEM   =      VBUF            COUNTER FOR FETCH (DEC DISPLAY VERBS)
000118:
000119:                                                                                                  #  SGNOFF   =       VBUF   +1      TEMP FOR +,- ON
000120:                                                                                                  #  NVTEMP   =       VBUF   +1      TEMP FOR NVSUB
000121:                                                                                                  #  SFTEMP1  =       VBUF   +1      STORAGE FOR SF CONST HI PART (=SFTEMP2-1)
000122:
000123:                                                                                                  #  CODE     =       VBUF   +2      FOR DSPIN
000124:                                                                                                  #  SFTEMP2  =       VBUF   +2      STORAGE FOR SF CONST LO PART (=SFTEMP1+1)
000125:
000126:                                                                                                  #  MIXTEMP  =       VBUF   +3      FOR MIXNOUN DATA
000127:                                                                                                  #  SIGNRET  =       VBUF   +3      RETURN FOR +,- ON
000128:
000129:                                                                                                  #  ALSO MIXTEMP+1 = VBUF+4, MIXTEMP+2 = VBUF+5.
000130:
000131:                                                                                                  #  ENTRET   =       DOTINC          EXIT FROM ENTER
000132:
000133:                                                                                                  #  WDCNT    =       DOTRET          CHAR COUNTER FOR DSPWD
000134:                                                                                                  #  INREL    =       DOTRET          INPUT BUFFER SELECTOR ( X, Y, Z, REG )
000135:
000136:                                                                                                  #  DSPMMTEM =       MATINC          DSPCOUNT SAVE FOR DSPMM
000137:                                                                                                  #  MIXBR    =       MATINC          INDICATOR FOR MIXED OR NORMAL NOUN
000138:
000139:                                                                                                  #  TEM1     ERASE                   EXEC TEMP
000140:                                                                                                  #  DSREL    =       TEM1            REL ADDRESS FOR DSPIN
000141:
000142:                                                                                                  #  TEM2     ERASE                   EXEC TEMP
000143:                                                                                                  #  DSMAG    =       TEM2            MAGNITUDE STORE FOR DSPIN
000144:


000146:                                                                                                  #  IDADDTEM =       TEM2            MIXNOUN INDIRECT ADDRESS STORAGE
000147:
000148:                                                                                                  #  TEM3     ERASE                   EXEC TEMP
000149:                                                                                                  #  COUNT    =       TEM3            FOR DSPIN
000150:
000151:                                                                                                  #  TEM4     ERASE                   EXEC TEMP
000152:                                                                                                  #  LSTPTR   =       TEM4            LIST POINTER FOR GRABUSY
000153:                                                                                                  #  RELRET   =       TEM4            RETURN FOR RELDSP
000154:                                                                                                  #  FREERET  =       TEM4            RETURN FOR FREEDSP
000155:
000156:                                                                                                  #  TEM5     ERASE                   EXEC TEMP
000157:                                                                                                  #  NOUNADD  =       TEM5            TEMP STORAGE FOR NOUN ADDRESS
000158:
000159:                                                                                                  #  NNADTEM  ERASE                   TEMP FOR NOUN ADDRESS TABLE ENTRY
000160:                                                                                                  #  NNTYPTEM ERASE                   TEMP FOR NOUN TYPE TABLE ENTRY
000161:                                                                                                  #  IDAD1TEM ERASE                   TEMP FOR INDIR ADRESS TABLE ENTRY(MIXNN)
000162:                                                                                                  #                                   MUST = IDAD2TEM-1, = IDAD3TEM-2.
000163:                                                                                                  #  IDAD2TEM ERASE                   TEMP FOR INDIR ADRESS TABLE ENTRY(MIXNN)
000164:                                                                                                  #                                   MUST = IDAD1TEM+1, = IDAD3TEM-1.
000165:                                                                                                  #  IDAD3TEM ERASE                   TEMP FOR INDIR ADRESS TABLE ENTRY(MIXNN)
000166:                                                                                                  #                                   MUST = IDAD1TEM+2,  = IDAD2TEM+1.
000167:                                                                                                  #  RUTMXTEM ERASE                   TEMP FOR SF ROUT TABLE ENTRY(MIXNN ONLY)
000168:                                                                                                  #  END OF TEMPORARIES FOR PINBALL EXECUTIVE ACTION
000169:
000170:
000171:
000172:                                                                                                  #  RESERVED FOR PINBALL INTERRUPT ACTION
000173:
000174:                                                                                                  #  DSPCNT   ERASE                   COUNTER FOR DSPOUT
000175:                                                                                                  #  UPLOCK   ERASE                   BIT1 = UPLINK INTERLOCK (ACTIVATED BY
000176:                                                                                                  #                                                                            RECEPTION OF A BAD MESSAGE IN UPLINK)
000177:                                                                                                  #  END OF ERASABLES RESERVED FOR PINBALL INTERRUPT ACTION
000178:
000179:
000180:
000181:                                                                                                  #  TEMPORARIES FOR PINBALL INTERRUPT ACTION
000182:
000183:                                                                                                  #  KEYTEMP1 =       WAITEXIT        TEMP FOR KEYRUPT, UPRUPT
000184:                                                                                                  #  DSRUPTEM =       WAITEXIT        TEMP FOR DSPOUT
000185:                                                                                                  #  KEYTEMP2 =       RUPTAGN         TEMP FOR KEYRUPT, UPRUPT
000186:                                                                                                  #  END OF TEMPORARIES FOR PINBALL INTERRUPT ACTION
000187:
000188:


000190:                                                                                                  #  THE INPUT CODES ASSUMED FOR THE KEYBOARD ARE,
000191:                                                                                                  #  0        10000
000192:                                                                                                  #  1        00001
000193:                                                                                                  #  9        01001
000194:                                                                                                  #  VERB     10001
000195:                                                                                                  #  ERROR RES10010
000196:                                                                                                  #  KEY RLSE 11001
000197:                                                                                                  #  +        11010
000198:                                                                                                  #  -        11011
000199:                                                                                                  #  ENTER    11100
000200:                                                                                                  #  CLEAR    11110
000201:                                                                                                  #  NOUN     11111
000202:
000203:
000204:
000205:                                                                                                  #  OUTPUT FORMAT FOR DISPLAY PANEL. SET OUT0 TO AAAABCCCCCDDDDD.
000206:                                                                                                  #  A-S SELECT A RELAYWORD. THIS DETERMINES WHICH PAIR OF CHARACTERS ARE
000207:                                                                                                  #  ENERGIZED.
000208:                                                                                                  #  B FOR SPECIAL RELAYS SUCH AS SIGNS ETC.
000209:                                                                                                  #  C-S  5 BIT RELAY CODE FOR LEFT CHAR OF PAIR SELECTED BY RELAYWORD
000210:                                                                                                  #  D-S  5 BIT RELAY CODE FOR RIGHT CHAR OF PAIR SELECTED BY RELAYWORD.
000211:
000212:                                                                                                  #  THE PANEL APPEARS AS FOLLOWS,
000213:                                                                                                  #  MD1    MD2                         (MAJOR MODE)
000214:                                                                                                  #  VD1    VD2 (VERB)    ND1    ND2    (NOUN)
000215:                                                                                                  #  R1D1   R1D2   R1D3   R1D4   R1D5   (R1)
000216:                                                                                                  #  R2D1   R2D2   R2D3   R2D4   R2D5   (R2)
000217:                                                                                                  #  R3D1   R3D2   R3D3   R3D4   R3D5   (R3)
000218:
000219:                                                                                                  #  EACH OF THESE IS GIVEN A DSPCOUNT NUMBER FOR USE WITHIN COMPUTATION ONLY
000220:                                                                                                  #  MD1   25     R2D1  11         ALL ARE OCTAL
000221:                                                                                                  #  MD2   24     R2D2  10
000222:                                                                                                  #  VD1   23     R2D3   7
000223:                                                                                                  #  VD2   22     R2D4   6
000224:                                                                                                  #  ND1   21     R2D5   5
000225:                                                                                                  #  ND2   20     R3D1   4
000226:                                                                                                  #  R1D1  16     R3D2   3
000227:                                                                                                  #  R1D2  15     R3D3   2
000228:                                                                                                  #  R1D3  14     R3D4   1
000229:                                                                                                  #  R1D4  13     R3D5   0
000230:                                                                                                  #  R1D5  12
000231:
000232:
000233:
000234:                                                                                                  #  THERE IS AN 11 REGISTER TABLE (DSPTAB) FOR THE DISPLAY PANEL.
000235:
000236:                                                                                                  #  DSPTAB RELAYWD       BIT11     BITS 10-6     BITS 5-1
000237:                                                                                                  #  RELADD
000238:                                                                                                  #  10     1011                    MD1 (25)      MD2 (24)
000239:                                                                                                  #  9      1010                    VD1 (23)      VD2 (22)
000240:


000242:                                                                                                  #  8      1001                    ND1 (21)      ND2 (20)
000243:                                                                                                  #  7      1000                                  R1D1 (16)
000244:                                                                                                  #  6      0111          +R1       R1D2 (15)     R1D3 (14)
000245:                                                                                                  #  5      0110          -R1       R1D4 (13)     R1D5 (12)
000246:                                                                                                  #  4      0101          +R2       R2D1 (11)     R2D2 (10)
000247:                                                                                                  #  3      0100          -R2       R2D3 (7)      R2D4 (6)
000248:                                                                                                  #  2      0011                    R2D5 (5)      R3D1 (4)
000249:                                                                                                  #  1      0010          +R3       R3D2 (3)      R3D3 (2)
000250:                                                                                                  #  0      0001          -R3       R3D4 (1)      R3D5 (0)
000251:                                                                                                  #         0000   NO RELAYWORD
000252:
000253:
000254:
000255:                                                                                                  #  THE 5 BIT RELAY CODES ARE,
000256:                                                                                                  #  BLANK      00000
000257:                                                                                                  #  0          10101
000258:                                                                                                  #  1          00011
000259:                                                                                                  #  2          11001
000260:                                                                                                  #  3          11011
000261:                                                                                                  #  4          01111
000262:                                                                                                  #  5          11110
000263:                                                                                                  #  6          11100
000264:                                                                                                  #  7          10011
000265:                                                                                                  #  8          11101
000266:                                                                                                  #  9          11111
000267:
000268:


000270:                                                                                                  #  START OF EXECUTIVE SECTION OF PINBALL
000271:
000272:
000273:
000274: 04,2000                                           SETLOC   20000
000275:
000276: 04,2000           03454        GRABUSYB           TC       GRABUSY1                              #  STANDARD LEAD INS. DONT MOVE.
000277: 04,2001           03476        NVSUBSYB           TC       NVSUBSY1
000278:
000279: 04,2002           37657        CHARIN             CAF      ONE                                   #  BLOCK DISPLAY SYST
000280: 04,2003           56277                           XCH      DSPLOCK                               #  MAKE DSP SYST BUSY, BUT SAVE OLD
000281: 04,2004           54101                           TS       21/22REG                              #  C(DSPLOCK) FOR ERROR LIGHT RESET.
000282: 04,2005           56140                           XCH      MPAC
000283: 04,2006           54103                           TS       CHAR
000284: 04,2007           50000                           INDEX    A
000285: 04,2010           02011                           TC       +1                                    #  INPUT CODE     FUNCTION
000286: 04,2011           03275                           TC       CHARALRM                              #  0
000287: 04,2012           02062                           TC       NUM                                   #  1
000288: 04,2013           02062                           TC       NUM                                   #  2
000289: 04,2014           02062                           TC       NUM                                   #  3
000290: 04,2015           02062                           TC       NUM                                   #  4
000291: 04,2016           02062                           TC       NUM                                   #  5
000292: 04,2017           02062                           TC       NUM                                   #  6
000293: 04,2020           02062                           TC       NUM                                   #  7
000294: 04,2021           02053                           TC       89TEST                                #  10                 8
000295: 04,2022           02053                           TC       89TEST                                #  11                 9
000296: 04,2023           03275                           TC       CHARALRM                              #  12
000297: 04,2024           03275                           TC       CHARALRM                              #  13
000298: 04,2025           03275                           TC       CHARALRM                              #  14
000299: 04,2026           03275                           TC       CHARALRM                              #  15
000300: 04,2027           03275                           TC       CHARALRM                              #  16
000301: 04,2030           03275                           TC       CHARALRM                              #  17
000302: 04,2031           02060                           TC       NUM        -2                         #  20                 0
000303: 04,2032           02235                           TC       VERB                                  #  21                 VERB
000304: 04,2033           02343                           TC       ERROR                                 #  22                 ERROR LIGHT RESET
000305: 04,2034           03275                           TC       CHARALRM                              #  23
000306: 04,2035           03275                           TC       CHARALRM                              #  24
000307: 04,2036           03275                           TC       CHARALRM                              #  25
000308: 04,2037           03275                           TC       CHARALRM                              #  26
000309: 04,2040           03275                           TC       CHARALRM                              #  27
000310: 04,2041           03275                           TC       CHARALRM                              #  30
000311: 04,2042           03320                           TC       VBRELDSP                              #  31                 KEY RELEASE
000312: 04,2043           02267                           TC       POSGN                                 #  32                 +
000313: 04,2044           02254                           TC       NEGSGN                                #  33                 -
000314: 04,2045           02051                           TC       ENTERJMP                              #  34                 ENTER
000315: 04,2046           03275                           TC       CHARALRM                              #  35
000316: 04,2047           02431                           TC       CLEAR                                 #  36                 CLEAR
000317: 04,2050           02250                           TC       NOUN                                  #  37                 NOUN
000318:


000320: 04,2051           04102        ENTERJMP           TC       POSTJUMP
000321: 04,2052           12003                           CADR     ENTER
000322:
000323: 04,2053           36165        89TEST             CAF      THREE
000324: 04,2054           70265                           MASK     DECBRNCH
000325: 04,2055           10000                           CCS      A
000326: 04,2056           02062                           TC       NUM                                   #  IF DECBRNCH IS +, 8 OR 9 OK
000327: 04,2057           03275                           TC       CHARALRM                              #  IF DECBRNCH IS +0, REJECT 8 OR 9
000328:
000329:
000330:
000331:                                                                                                  #  NUM ASSEMBLES OCTAL 3 BITS AT A TIME. FOR DECIMAL IT CONVERTS INCOMING
000332:                                                                                                  #  WORD AS A FRACTION, KEEPING RESULTS TO DP.
000333:                                                                                                  #  OCTAL RESULTS ARE LEFT IN XREG, YREG, OR ZREG. HI PART OF DEC IN XREG,
000334:                                                                                                  #  YREG, ZREG. THE LOW PARTS IN XREGLP, YREGLP, OR ZREGLP)
000335:                                                                                                  #  DECBRNCH IS LEFT AT +0 FOR OCT, +1 FOR + DEC, +2 FOR - DEC.
000336:                                                                                                  #  IF DSPCOUNT WAS LEFT -, NO MORE DATA IS ACCEPTED.
000337:
000338: 04,2060           37665                           CAF      ZERO
000339: 04,2061           54103                           TS       CHAR
000340: 04,2062           10264        NUM                CCS      DSPCOUNT
000341: 04,2063           02067                           TC       +4                                    #  +
000342: 04,2064           02067                           TC       +3                                    #  +0
000343: 04,2065           02066                           TC       +1                                    #  -BLOCK DATA IN IF DSPCOUNT IS -
000344: 04,2066           04440                           TC       ENDOFJOB                              #  -0
000345: 04,2067           02205                           TC       GETINREL
000346: 04,2070           10302                           CCS      CLPASS                                #  IF CLPASS IS + OR +0, MAKE IT +0.
000347: 04,2071           37665                           CAF      ZERO
000348: 04,2072           54302                           TS       CLPASS
000349: 04,2073           02074                           TC       +1
000350: 04,2074           50103                           INDEX    CHAR
000351: 04,2075           34741                           CAF      RELTAB
000352: 04,2076           75224                           MASK     LOW5
000353: 04,2077           54110                           TS       CODE
000354: 04,2100           30264                           CA       DSPCOUNT
000355: 04,2101           54127                           TS       COUNT
000356: 04,2102           03201                           TC       DSPIN
000357: 04,2103           36165                           CAF      THREE
000358: 04,2104           70265                           MASK     DECBRNCH
000359: 04,2105           10000                           CCS      A                                     #  +0, OCTAL.  +1, + DEC.  +2, - DEC.
000360: 04,2106           02117                           TC       DECTOBIN                              #  +
000361: 04,2107           50123                           INDEX    INREL                                 #  +0 OCTAL
000362: 04,2110           56266                           XCH      VERBREG
000363: 04,2111           54022                           TS       CYL
000364: 04,2112           40022                           CS       CYL
000365: 04,2113           40022                           CS       CYL
000366: 04,2114           56022                           XCH      CYL
000367: 04,2115           60103                           AD       CHAR
000368: 04,2116           02134                           TC       ENDNMTST
000369: 04,2117           50123        DECTOBIN           INDEX    INREL
000370:
000371:


000373: 04,2120           56266                           XCH      VERBREG
000374: 04,2121           54140                           TS       MPAC                                  #  SUM X 2EXP-14 IN MPAC
000375: 04,2122           37665                           CAF      ZERO
000376: 04,2123           54141                           TS       MPAC       +1
000377: 04,2124           37661                           CAF      TEN                                   #  10 X 2EXP-14
000378: 04,2125           07266                           TC       SHORTMP                               #  10SUM X 2EXP-28 IN MPAC, MPAC+1
000379: 04,2126           56141                           XCH      MPAC       +1
000380: 04,2127           60103                           AD       CHAR
000381: 04,2130           54141                           TS       MPAC       +1
000382: 04,2131           02134                           TC       ENDNMTST                              #  NO OF
000383: 04,2132           26140                           ADS      MPAC                                  #  OF MUST BE 5TH CHAR
000384: 04,2133           02152                           TC       DECEND
000385: 04,2134           50123        ENDNMTST           INDEX    INREL
000386: 04,2135           54266                           TS       VERBREG
000387: 04,2136           40264                           CS       DSPCOUNT
000388: 04,2137           50123                           INDEX    INREL
000389: 04,2140           62176                           AD       CRITCON
000390: 04,2141           00006                           EXTEND
000391: 04,2142           12144                           BZF      ENDNUM                                #  -0, DSPCOUNT = CRITCON
000392: 04,2143           02173                           TC       MORNUM                                #  - , DSPCOUNT G/ CRITCON
000393: 04,2144           36165        ENDNUM             CAF      THREE
000394: 04,2145           70265                           MASK     DECBRNCH
000395: 04,2146           10000                           CCS      A
000396: 04,2147           02152                           TC       DECEND
000397: 04,2150           40264        ENDALL             CS       DSPCOUNT                              #  BLOCK NUMIN BY PLACING DSPCOUNT
000398: 04,2151           02174                           TC       MORNUM     +1                         #  NEGATIVELY
000399: 04,2152           07063        DECEND             TC       DMP                                   #  MULT SUM X 2EXP-28 IN MPAC, MPAC+1 BY
000400: 04,2153           02203                           ADRES    DECON                                 #  2EXP14/10EXP5. GIVES(SUM/10EXP5)X2EXP-14
000401: 04,2154           36165                           CAF      THREE                                 #  IN MPAC, +1, +2.
000402: 04,2155           70265                           MASK     DECBRNCH
000403: 04,2156           50000                           INDEX    A
000404: 04,2157           02157                           TC       +0
000405: 04,2160           02164                           TC       +DECSGN
000406: 04,2161           00006                           EXTEND                                         #  - CASE
000407: 04,2162           40142                           DCS      MPAC       +1
000408: 04,2163           52142                           DXCH     MPAC       +1
000409: 04,2164           56142        +DECSGN            XCH      MPAC       +2
000410: 04,2165           50123                           INDEX    INREL
000411: 04,2166           54271                           TS       XREGLP     -2
000412: 04,2167           56141                           XCH      MPAC       +1
000413: 04,2170           50123                           INDEX    INREL
000414: 04,2171           54266                           TS       VERBREG
000415: 04,2172           02150                           TC       ENDALL
000416: 04,2173           10264        MORNUM             CCS      DSPCOUNT                              #  DECREMENT DSPCOUNT
000417: 04,2174           54264                           TS       DSPCOUNT
000418: 04,2175           04440                           TC       ENDOFJOB
000419:
000420: 04,2176           00022        CRITCON            OCT      22                                    #  (DEC 18)
000421: 04,2177           00020                           OCT      20                                    #  (DEC 16)
000422: 04,2200           00012                           OCT      12                                    #  (DEC 10)
000423:


000425: 04,2201           00005                           OCT      5
000426: 04,2202           00000                           OCT      0
000427:
000428: 04,2203           05174 13261  DECON              2DEC     E-5        B14                        #  2EXP14/10EXP5 = .16384 DEC
000429:
000430:
000431:                                                                                                  #  GETINREL GETS PROPER DATA REG REL ADDRESS FOR CURRENT C(DSPCOUNT) AND
000432:                                                                                                  #  PUTS IN INTO INREL. +0 VERBREG, 1 NOUNREG, 2 XREG, 3 YREG, 4 ZREG.
000433:
000434: 04,2205           50264        GETINREL           INDEX    DSPCOUNT
000435: 04,2206           32211                           CAF      INRELTAB
000436: 04,2207           54123                           TS       INREL                                 #  (A TEMP, REG)
000437: 04,2210           00002                           TC       Q
000438:
000439: 04,2211           00004        INRELTAB           OCT      4                                     #  R3D5 (DSPCOUNT = 0)
000440: 04,2212           00004                           OCT      4                                     #  R3D4           =(1)
000441: 04,2213           00004                           OCT      4                                     #  R3D3           =(2)
000442: 04,2214           00004                           OCT      4                                     #  R3D2           =(3)
000443: 04,2215           00004                           OCT      4                                     #  R3D1           =(4)
000444: 04,2216           00003                           OCT      3                                     #  R2D5           =(5)
000445: 04,2217           00003                           OCT      3                                     #  R2D4           =(6)
000446: 04,2220           00003                           OCT      3                                     #  R2D3           =(7)
000447: 04,2221           00003                           OCT      3                                     #  R2D2           =(8D)
000448: 04,2222           00003                           OCT      3                                     #  R2D1           =(9D)
000449: 04,2223           00002                           OCT      2                                     #  R1D5           =(10D)
000450: 04,2224           00002                           OCT      2                                     #  R1D4           =(11D)
000451: 04,2225           00002                           OCT      2                                     #  R1D3           =(12D)
000452: 04,2226           00002                           OCT      2                                     #  R1D2           =(13D)
000453: 04,2227           00002                           OCT      2                                     #  R1D1           =(14D)
000454: 04,2230           05464                           TC       CCSHOLE                               #  NO DSPCOUNT NUMBER = 15D
000455: 04,2231           00001                           OCT      1                                     #  ND2            =(16D)
000456: 04,2232           00001                           OCT      1                                     #  ND1            =(17D)
000457: 04,2233           00000                           OCT      0                                     #  VD2            =(18D)
000458: 04,2234           00000                           OCT      0                                     #  VD1            =(19D)
000459:
000460: 04,2235           37665        VERB               CAF      ZERO
000461: 04,2236           54266                           TS       VERBREG
000462: 04,2237           35237                           CAF      VD1
000463: 04,2240           54264        NVCOM              TS       DSPCOUNT
000464: 04,2241           02541                           TC       2BLANK
000465: 04,2242           37665                           CAF      ZERO
000466: 04,2243           54265                           TS       DECBRNCH
000467: 04,2244           54300                           TS       REQRET                                #  SET FOR ENTPAS0
000468: 04,2245           35150                           CAF      ENDINST                               #  IF DSPALARM OCCURS BEFORE FIRST ENTPAS0
000469: 04,2246           54122                           TS       ENTRET                                #  OR NVSUB, ENTRET MUST ALREADY BE SET
000470:                                                                                                  #  TO TC ENDOFJOB
000471: 04,2247           04440                           TC       ENDOFJOB
000472:


000474: 04,2250           37665        NOUN               CAF      ZERO
000475: 04,2251           54267                           TS       NOUNREG
000476: 04,2252           35240                           CAF      ND1                                   #  ND1, OCT 21 (DEC 17)
000477: 04,2253           02240                           TC       NVCOM
000478:
000479:
000480:
000481: 04,2254           02326        NEGSGN             TC       SIGNTEST
000482: 04,2255           02313                           TC       -ON
000483: 04,2256           37656                           CAF      TWO
000484: 04,2257           50123        BOTHSGN            INDEX    INREL                                 #  SET DEC COMP BIT TO 1 (IN DECBRNCH)
000485: 04,2260           67651                           AD       BIT7                                  #  BIT 5 FOR R1, BIT 4 FOR R2,
000486: 04,2261           26265                           ADS      DECBRNCH                              #  BIT 3 FOR R3.
000487: 04,2262           10302        FIXCLPAS           CCS      CLPASS                                #  IF CLPASS IS + OR +0, MAKE IT +0.
000488: 04,2263           37665                           CAF      ZERO
000489: 04,2264           54302                           TS       CLPASS
000490: 04,2265           02266                           TC       +1
000491: 04,2266           04440                           TC       ENDOFJOB
000492:
000493: 04,2267           02326        POSGN              TC       SIGNTEST
000494: 04,2270           02273                           TC       +ON
000495: 04,2271           37657                           CAF      ONE
000496: 04,2272           02257                           TC       BOTHSGN
000497:
000498: 04,2273           22002        +ON                LXCH     Q
000499: 04,2274           02205                           TC       GETINREL
000500: 04,2275           50123                           INDEX    INREL
000501: 04,2276           32321                           CAF      SGNTAB     -2
000502: 04,2277           54107                           TS       SGNOFF
000503: 04,2300           67657                           AD       ONE
000504: 04,2301           54106                           TS       SGNON
000505: 04,2302           37665        SGNCOM             CAF      ZERO
000506: 04,2303           54110                           TS       CODE
000507: 04,2304           56107                           XCH      SGNOFF
000508: 04,2305           03263                           TC       11DSPIN
000509: 04,2306           37645                           CAF      BIT11
000510: 04,2307           54110                           TS       CODE
000511: 04,2310           56106                           XCH      SGNON
000512: 04,2311           03263                           TC       11DSPIN
000513: 04,2312           00001                           TC       L
000514: 04,2313           22002        -ON                LXCH     Q
000515: 04,2314           02205                           TC       GETINREL
000516: 04,2315           50123                           INDEX    INREL
000517: 04,2316           32321                           CAF      SGNTAB     -2
000518: 04,2317           54106                           TS       SGNON
000519: 04,2320           67657                           AD       ONE
000520: 04,2321           54107                           TS       SGNOFF
000521: 04,2322           02302                           TC       SGNCOM
000522:
000523: 04,2323           00005        SGNTAB             OCT      5                                     #  -R1
000524:


000526: 04,2324           00003                           OCT      3                                     #  -R2
000527: 04,2325           00000                           OCT      0                                     #  -R3
000528:
000529:
000530:
000531: 04,2326           22002        SIGNTEST           LXCH     Q                                     #  ALLOWS +,- ONLY WHEN DSPCOUNT=R1D1,
000532: 04,2327           45175                           CS       R1D1                                  #  R2D1, OR R3D1.
000533: 04,2330           02336                           TC       SGNTST1
000534: 04,2331           45176                           CS       R2D1
000535: 04,2332           02336                           TC       SGNTST1
000536: 04,2333           45177                           CS       R3D1
000537: 04,2334           02336                           TC       SGNTST1
000538: 04,2335           04440                           TC       ENDOFJOB                              #  NO MATCH FOUND. SIGN ILLEGAL
000539: 04,2336           60264        SGNTST1            AD       DSPCOUNT
000540: 04,2337           00006                           EXTEND
000541: 04,2340           12342                           BZF      +2                                    #  MATCH FOUND
000542: 04,2341           00002                           TC       Q
000543: 04,2342           00001                           TC       L                                     #  SIGN LEGAL
000544:
000545:
000546:
000547:                                                                                                  #  ERROR LIGHT RESET (RSET) TURNS OFF,
000548:                                                                                                  #  UPLINK ACTIVITY, AUTO, HOLD, FREE, NO ATT, OPERATOR ERROR,
000549:                                                                                                  #  PROG ALM, TRACKER FAIL.
000550:                                                                                                  #  LEAVES GIMBAL LOCK ALONE.
000551:                                                                                                  #  IT ALSO ZEROES THE :TEST ALARM: OUT BIT, WHICH TURNS OFF STBY,RESTART.
000552:                                                                                                  #  IT ALSO SETS :CAUTION RESET: TO 1.
000553:                                                                                                  #  IT ALSO FORCES BIT 12 OF ALL DSPTAB ENTRIES TO 1.
000554:
000555: 04,2343           56101        ERROR              XCH      21/22REG                              #  RESTORE ORIGINAL C(DSPLOCK). THUS ERROR
000556: 04,2344           54277                           TS       DSPLOCK                               #  LIGHT RESET LEAVES DSPLOCK UNCHANGED.
000557: 04,2345           00004                           INHINT
000558: 04,2346           37646                           CAF      BIT10                                 #  TURN ON :CAUTION RESET: OUTBIT
000559: 04,2347           00006                           EXTEND
000560: 04,2350           05011                           WOR      DSALMOUT                              #  BIT10 CHAN 11
000561: 04,2351           37652                           CAF      BIT6                                  #  LEAVE GIMBAL LOCK LAMP INTACT,
000562: 04,2352           70322                           MASK     DSPTAB     +11D                       #  TURNING OFF, AUTO, HOLD, FREE, NO ATT.,
000563: 04,2353           67641                           AD       BIT15                                 #  PROG ALARM, AND TRACKER.
000564: 04,2354           54322                           TS       DSPTAB     +11D
000565: 04,2355           44515                           CS       PRIO16                                #  RESET FAIL BITS WHICH GENERATE PROG
000566: 04,2356           70370                           MASK     IMODES33                              #  ALARM SO THAT IF THE FAILURE STILL
000567: 04,2357           64515                           AD       PRIO16                                #  EXISTS, THE ALARM WILL COME BACK.
000568: 04,2360           54370                           TS       IMODES33
000569: 04,2361           47646                           CS       BIT10
000570: 04,2362           70367                           MASK     IMODES30
000571: 04,2363           67646                           AD       BIT10
000572: 04,2364           54367                           TS       IMODES30
000573:
000574: 04,2365           42427                           CS       RFAILS
000575: 04,2366           70413                           MASK     RADMODES
000576:
000577:


000579: 04,2367           67651                           AD       BIT7
000580: 04,2370           54413                           TS       RADMODES
000581:
000582: 04,2371           47646                           CS       BIT10                                 #  TURN OFF :TEST ALARM: OUTBIT.
000583: 04,2372           00006                           EXTEND
000584: 04,2373           03013                           WAND     CHAN13
000585: 04,2374           42426                           CS       ERCON                                 #  TURN OFF UPLINK ACTIVITY,
000586: 04,2375           00006                           EXTEND                                         #  OPERATOR ERROR.
000587: 04,2376           03011                           WAND     DSALMOUT
000588: 04,2377           35242        TSTAB              CAF      BINCON                                #  (DEC 10)
000589: 04,2400           54103                           TS       ERCNT                                 #  ERCNT = COUNT
000590: 04,2401           00004                           INHINT
000591: 04,2402           50103                           INDEX    ERCNT
000592: 04,2403           10307                           CCS      DSPTAB
000593: 04,2404           67657                           AD       ONE
000594: 04,2405           02412                           TC       ERPLUS
000595: 04,2406           67657                           AD       ONE
000596: 04,2407           40000        ERMINUS            CS       A
000597: 04,2410           72430                           MASK     NOTBIT12
000598: 04,2411           02415                           TC       ERCOM
000599: 04,2412           40000        ERPLUS             CS       A
000600: 04,2413           72430                           MASK     NOTBIT12
000601: 04,2414           40000                           CS       A                                     #  MIGHT WANT TO RESET CLPASS, DECBRNCH,
000602: 04,2415           50103        ERCOM              INDEX    ERCNT                                 #  ETC.
000603: 04,2416           54307                           TS       DSPTAB
000604: 04,2417           00003                           RELINT
000605: 04,2420           10103                           CCS      ERCNT
000606: 04,2421           02400                           TC       TSTAB      +1
000607: 04,2422           37665                           CAF      ZERO
000608: 04,2423           55363                           TS       FAILREG
000609: 04,2424           55364                           TS       SFAIL
000610: 04,2425           04440                           TC       ENDOFJOB
000611:
000612: 04,2426           00104        ERCON              OCT      104                                   #  CHAN 11 BITS 3,7.
000613:                                                                                                  #  UPLINK ACTIVITY, AND OPERATOR ERROR.
000614: 04,2427           00330        RFAILS             OCT      330                                   #  RADAR CDU AND DATA FAIL FLAGS.
000615: 04,2430           73777        NOTBIT12           OCT      73777
000616:
000617:
000618:
000619:                                                                                                  #  CLEAR BLANKS WHICH R1, R2, R3 IS CURRENT OR LAST TO BE DISPLAYED(PERTINE
000620:                                                                                                  #  NT XREG,YREG,ZREG IS CLEARED). SUCCESSIVE CLEARS TAKE CARE OF EACH RX
000621:                                                                                                  #  L/ RC UNTIL R1 IS DONE. THEN NO FURTHER ACTION
000622:
000623:                                                                                                  #  THE SINGLE COMPONENT LOAD VERBS ALLOW ONLY THE SINGLE RC THAT IS
000624:                                                                                                  #  APPROPRIATE TO BE CLEARED.
000625:
000626:                                                                                                  #  CLPASS      +0 PASS0, CAN BE BACKED UP
000627:                                                                                                  #              +NZ HIPASS, CAN BE BACKED UP
000628:                                                                                                  #              -NZ PASS0, CANNOT BE BACKED UP
000629:
000630:


000632: 04,2431           10264        CLEAR              CCS      DSPCOUNT
000633: 04,2432           67657                           AD       ONE
000634: 04,2433           02435                           TC       +2
000635: 04,2434           67657                           AD       ONE
000636: 04,2435           54264                           TS       DSPCOUNT                              #  MAG OF DSPCOUNT
000637: 04,2436           02205                           TC       GETINREL                              #  MUST SET INREL, EVEN FOR HIPASS
000638: 04,2437           10302                           CCS      CLPASS
000639: 04,2440           02446                           TC       CLPASHI                               #  +
000640: 04,2441           02443                           TC       +2                                    #  +0    IF CLPASS IS +0 OR -, IT IS PASS0
000641: 04,2442           02443                           TC       +1                                    #  -
000642: 04,2443           30123                           CA       INREL
000643: 04,2444           02470                           TC       LEGALTST
000644: 04,2445           02463                           TC       CLEAR1
000645: 04,2446           10123        CLPASHI            CCS      INREL
000646: 04,2447           54123                           TS       INREL
000647: 04,2450           02470                           TC       LEGALTST
000648: 04,2451           32537                           CAF      DOUBLK     +2                         #  +3 TO - NUMBER. BACKS DATA REQUESTS.
000649: 04,2452           26300                           ADS      REQRET
000650: 04,2453           30123                           CA       INREL
000651: 04,2454           54111                           TS       MIXTEMP                               #  TEMP STORAGE FOR INREL
000652: 04,2455           00006                           EXTEND
000653: 04,2456           26266                           DIM      VERBREG                               #  DECREMENT VERB AND RE-DISPLAY
000654: 04,2457           04063                           TC       BANKCALL
000655: 04,2460           12315                           CADR     UPDATVB
000656: 04,2461           30111                           CA       MIXTEMP
000657: 04,2462           54123                           TS       INREL                                 #  RESTORE INREL
000658: 04,2463           02466        CLEAR1             TC       CLR5
000659: 04,2464           24302                           INCR     CLPASS                                #  ONLY IF CLPASS IS + OR +0,
000660: 04,2465           04440                           TC       ENDOFJOB                              #  SET FOR HIGHER PASS.
000661: 04,2466           22002        CLR5               LXCH     Q                                     #  USES 5BLANK BUT AVOIDS ITS TC GETINREL
000662: 04,2467           02500                           TC       5BLANK     +2
000663: 04,2470           67670        LEGALTST           AD       NEG2
000664: 04,2471           10000                           CCS      A
000665: 04,2472           00002                           TC       Q                                     #  LEGAL         INREL G/ 2
000666: 04,2473           05464                           TC       CCSHOLE
000667: 04,2474           04440                           TC       ENDOFJOB                              #  ILLEGAL       INREL= 0,1
000668: 04,2475           00002                           TC       Q                                     #  LEGAL        INREL = 2
000669:
000670:
000671:
000672:                                                                                                  #  5BLANK BLANKS 5 CHAR DISPLAY WORD IN R1, R2, OR R3. IT ALSO ZEROES XREG,
000673:                                                                                                  #  YREG, OR ZREG.PLACE ANY + DSPCOUNT NUMBER FOR PERTINENT RC INTO DSPCOUNT
000674:                                                                                                  #  DSPCOUNT IS LEFT SET TO LEFT MOST DSP NUMB FOR RC JUST BLANKED.
000675:
000676: 04,2476           22002        5BLANK             LXCH     Q
000677: 04,2477           02205                           TC       GETINREL
000678: 04,2500           37665                           CAF      ZERO
000679: 04,2501           50123                           INDEX    INREL
000680: 04,2502           54266                           TS       VERBREG                               #  ZERO X, Y, Z REG.
000681: 04,2503           50123                           INDEX    INREL
000682:
000683:


000685: 04,2504           54271                           TS       XREGLP     -2
000686: 04,2505           54110                           TS       CODE
000687: 04,2506           50123                           INDEX    INREL                                 #  ZERO PERTINENT DEC COMP BIT.
000688: 04,2507           47651                           CS       BIT7                                  #  PROTECT OTHERS
000689: 04,2510           70265                           MASK     DECBRNCH
000690: 04,2511           72540                           MASK     BRNCHCON                              #  ZERO LOW 2 BITS.
000691: 04,2512           54265                           TS       DECBRNCH
000692: 04,2513           50123                           INDEX    INREL
000693: 04,2514           32530                           CAF      SINBLANK   -2                         #  BLANK ISOLATED CHAR SEPARATELY
000694: 04,2515           54127                           TS       COUNT
000695: 04,2516           03201                           TC       DSPIN
000696: 04,2517           50123        5BLANK1            INDEX    INREL
000697: 04,2520           32533                           CAF      DOUBLK     -2
000698: 04,2521           54264                           TS       DSPCOUNT
000699: 04,2522           02541                           TC       2BLANK
000700: 04,2523           47656                           CS       TWO
000701: 04,2524           26264                           ADS      DSPCOUNT
000702: 04,2525           02541                           TC       2BLANK
000703: 04,2526           50123                           INDEX    INREL
000704: 04,2527           35173                           CAF      R1D1       -2
000705: 04,2530           54264                           TS       DSPCOUNT                              #  SET DSPCOUNT TO LEFT MOST DSP NUMBER
000706: 04,2531           00001                           TC       L                                     #  OF REG. JUST BLANKED
000707:
000708: 04,2532           00016        SINBLANK           OCT      16                                    #  DEC 14
000709: 04,2533           00005                           OCT      5
000710: 04,2534           00004                           OCT      4
000711: 04,2535           00015        DOUBLK             OCT      15                                    #  DEC 13
000712: 04,2536           00011                           OCT      11                                    #  DEC 9
000713: 04,2537           00003                           OCT      3
000714:
000715: 04,2540           77774        BRNCHCON           OCT      77774
000716:
000717:                                                                                                  #  2BLANK BLANKS TWO CHAR. PLACE DSP NUMBER OF LEFT CHAR  OF THE PAIR INTO
000718:                                                                                                  #  DSPCOUNT. THIS NUMBER IS LEFT IN DSPCOUNT
000719:
000720: 04,2541           30264        2BLANK             CA       DSPCOUNT
000721: 04,2542           54021                           TS       SR
000722: 04,2543           42554                           CS       BLANKCON
000723: 04,2544           00004                           INHINT
000724: 04,2545           50021                           INDEX    SR
000725: 04,2546           56307                           XCH      DSPTAB
000726: 04,2547           00006                           EXTEND
000727: 04,2550           62552                           BZMF     +2                                    #  IF OLD CONTENTS -, NOUT OK
000728: 04,2551           24303                           INCR     NOUT                                  #  IF OLD CONTENTS +, +1 TO NOUT
000729: 04,2552           00003                           RELINT                                         #  IF -, NOUT OK
000730: 04,2553           00002                           TC       Q
000731: 04,2554           04000        BLANKCON           OCT      4000
000732:
000733:


000735:                                                                                                  #  ENTER PASS 0 IS THE EXECUTE FUNCTION. HIGHER ORDER ENTERS ARE TO LOAD
000736:                                                                                                  #  DATA. THE SIGN OF REQRET DETERMINES THE PASS, + FOR PASS 0,- FOR HIGHER
000737:                                                                                                  #  PASSES.
000738:
000739:
000740:
000741:                                                                                                  #  MACHINE CADR TO BE SPECIFIED (MCTBS) NOUNS DESIRE AN ECADR TO BE LOADED
000742:                                                                                                  #  WHEN USED WITH LOAD VERBS, MONITOR VERBS, OR DISPLAY VERBS (EXCEPT
000743:                                                                                                  #  VERB = FIXED MEMORY DISPLAY, WHICH REQUIRES AN FCADR).
000744:
000745:
000746:
000747: 05,2000                                           SETLOC   22000
000748:
000749: 05,2000           03344        NVSUBB             TC       NVSUB1                                #  STANDARD LEAD INS. DONT MOVE.
000750: 05,2001           13403        DSPMM              TCF      DSPMM1
000751: 05,2002           02663        LOADLV1            TC       LOADLV
000752:                                                                                                  #  END OF STANDARD LEAD INS.
000753:
000754:
000755:
000756: 05,2003           37665        ENTER              CAF      ZERO
000757: 05,2004           54302                           TS       CLPASS
000758: 05,2005           35150                           CAF      ENDINST
000759: 05,2006           54122                           TS       ENTRET
000760: 05,2007           10300                           CCS      REQRET
000761: 05,2010           02031                           TC       ENTPAS0                               #  IF +, PASS 0
000762: 05,2011           02031                           TC       ENTPAS0                               #  IF +, PASS 0
000763: 05,2012           02013                           TC       +1                                    #  IF -, NOT PASS 0
000764: 05,2013           36165                           CAF      THREE                                 #  IF DEC, ALARM IF LESS THAN 5 CHAR IN,
000765: 05,2014           70265                           MASK     DECBRNCH                              #  BUT LEAVE REQRET - AND FLASH ON, SO
000766: 05,2015           10000                           CCS      A                                     #  OPERATOR CAN SUPPLY MISSING NUMERICAL
000767: 05,2016           02020                           TC       +2                                    #  CHARACTERS AND CONTINUE.
000768: 05,2017           02024                           TC       ACCEPTWD                              #  OCTAL. ANY NUMBER OF CHAR OK.
000769: 05,2020           10264                           CCS      DSPCOUNT
000770: 05,2021           02324                           TC       GODSPALM                              #  LESS THAN 5 CHAR DEC(DSPCOUNT IS +)
000771: 05,2022           02324                           TC       GODSPALM                              #  LESS THAN 5 CHAR DEC(DSPCOUNT IS +)
000772: 05,2023           02024                           TC       +1                                    #  5 CHAR IN (DSPCOUNT IS -)
000773: 05,2024           40300        ACCEPTWD           CS       REQRET                                #  5 CHAR IN (DSPCOUNT IS -)
000774: 05,2025           54300                           TS       REQRET                                #  SET REQRET +.
000775: 05,2026           05300                           TC       FLASHOFF
000776: 05,2027           00300                           TC       REQRET
000777:
000778: 05,2030     0122               ENTEXIT            =        ENTRET
000779:
000780: 05,2030           00030        LOWVERB            OCT      30                                    #  LOWER VERB THAT AVOIDS NOUN TEST
000781:
000782: 05,2031           37665        ENTPAS0            CAF      ZERO                                  #   NOUN VERB SUB ENTERS HERE
000783: 05,2032           54265                           TS       DECBRNCH
000784: 05,2033           40266        TESTVB             CS       VERBREG                               #  IF VERB IS 30-77, SKIP NOUN TEST
000785:
000786:


000788: 05,2034           62030                           AD       LOWVERB                               #  30-VB
000789: 05,2035           00006                           EXTEND
000790: 05,2036           62116                           BZMF     VERBFAN                               #  VERB G/ E 30
000791: 05,2037           00006        TESTNN             EXTEND                                         #  VERB L/ 30
000792: 05,2040           32076                           DCA      LODNNLOC                              #  SWITCH BANKS TO NOUN TABLE READING
000793: 05,2041           52006                           DXCH     Z                                     #  ROUTINE.
000794: 05,2042           50124                           INDEX    MIXBR
000795: 05,2043           02043                           TC       +0
000796: 05,2044           02046                           TC       +2                                    #  NORMAL
000797: 05,2045           02176                           TC       MIXNOUN                               #  MIXED
000798: 05,2046           10132                           CCS      NNADTEM                               #  NORMAL
000799: 05,2047           02114                           TC       VERBFAN    -2                         #        NORMAL  IF +
000800: 05,2050           02324                           TC       GODSPALM                              #  NOT IN USE     IF +0
000801: 05,2051           02055                           TC       REQADD                                #  SPECIFY MACHINE CADR IF -
000802: 05,2052           24304                           INCR     NOUNCADR                              #  AUGMENT MACHINE CADR IF -0
000803: 05,2053           05167                           TC       SETNADD                               #  ECADR FROM NOUNCADR. SETS EB, NOUNADD.
000804: 05,2054           02102                           TC       INTMCTBS   +2
000805: 05,2055           37641        REQADD             CAF      BIT15                                 #  SET CLPASS FOR PASS0 ONLY
000806: 05,2056           54302                           TS       CLPASS
000807: 05,2057           45150                           CS       ENDINST                               #  TEST IF REACHED HERE FROM INTERNAL OR
000808: 05,2060           60122                           AD       ENTEXIT                               #              FROM EXTERNAL
000809: 05,2061           00006                           EXTEND
000810: 05,2062           12064                           BZF      +2                                    #  EXTERNAL MACH CADR TO BE SPECIFIED
000811: 05,2063           02100                           TC       INTMCTBS
000812: 05,2064           02256                           TC       REQDATZ                               #  EXTERNAL MACH CADR TO BE SPECIFIED
000813: 05,2065           10265                           CCS      DECBRNCH
000814: 05,2066           02324                           TC       GODSPALM                              #  ALARM IF DECIMAL USED FOR MCTBS
000815: 05,2067           56272                           XCH      ZREG                                  #  OCTAL USED    OK
000816: 05,2070           05161                           TC       SETNCADR                              #  ECADR INTO NOUNCADR. SET EB, NOUNADD.
000817: 05,2071           00006                           EXTEND
000818: 05,2072           32076                           DCA      LODNNLOC                              #  SWITCH BANKS TO NOUN TABLE READING
000819: 05,2073           52006                           DXCH     Z                                     #  ROUTINE.
000820: 05,2074           02116                           TC       VERBFAN
000821:
000822: 05,2075     0264                                  EBANK=   DSPCOUNT
000823: 05,2075           02000 34000  LODNNLOC           2CADR    LODNNTAB
000824:
000825: 05,2077           77772        NEG5               OCT      77772
000826:
000827: 05,2100           30142        INTMCTBS           CA       MPAC       +2                         #  INTERNAL MACH CADR TO BE SPECIFIED.
000828: 05,2101           05161                           TC       SETNCADR                              #  ECADR INTO NOUNCADR. SET EB, NOUNADD.
000829: 05,2102           47654                           CS       BIT4                                  #  NVSUB CALL LEFT CADR IN MPAC+2 FOR MACH
000830: 05,2103           70266                           MASK     VERBREG                               #  CADR TO BE SPECIFIED.
000831: 05,2104           62077                           AD       NEG5                                  #  MASKING MAKES VB15 LOOK LIKE VB05.
000832: 05,2105           00006                           EXTEND
000833: 05,2106           12116                           BZF      VERBFAN                               #  VB = 05 OR 15, DO NOT DISPLAY CADR.
000834: 05,2107           35177                           CAF      R3D1                                  #  VB NOT = 05 OR 15, DISPLAY CADR.
000835: 05,2110           54264                           TS       DSPCOUNT
000836: 05,2111           30304                           CA       NOUNCADR
000837: 05,2112           03222                           TC       DSPOCTWD
000838:
000839:


000841: 05,2113           02116                           TC       VERBFAN
000842:
000843: 05,2114           67657                           AD       ONE
000844: 05,2115           05161                           TC       SETNCADR                              #  ECADR INTO NOUNCADR. SETS EB, NOUNADD.
000845: 05,2116           42131        VERBFAN            CS       LST2CON
000846: 05,2117           60266                           AD       VERBREG                               #  VERB-LST2CON
000847: 05,2120           10000                           CCS      A
000848: 05,2121           67657                           AD       ONE                                   #  VERB G/ LST2CON
000849: 05,2122           02124                           TC       +2
000850: 05,2123           02133                           TC       VBFANDIR                              #  VERB L/ LST2CON
000851: 05,2124           54140                           TS       MPAC
000852: 05,2125           05341                           TC       RELDSP                                #  RELEASE DISPLAY SYST
000853: 05,2126           56140                           XCH      MPAC                                  #  ALSO TURN OFF RELEASE DISPLAY SYST LIGHT
000854: 05,2127           62132                           AD       LST2CADR
000855: 05,2130           04105                           TC       BANKJUMP
000856: 05,2131           00040        LST2CON            OCT      40                                    #  FIRST LST2 VERB
000857: 05,2132           22000        LST2CADR           CADR     LST2FAN
000858:
000859: 05,2133           50266        VBFANDIR           INDEX    VERBREG
000860: 05,2134           32136                           CAF      VERBTAB
000861: 05,2135           04105                           TC       BANKJUMP
000862:
000863: 05,2136           12324        VERBTAB            CADR     GODSPALM                              #  VB00 ILLEGAL
000864: 05,2137           12340                           CADR     DSPA                                  #  VB01 DISPLAY OCT COMP 1 (R1)
000865: 05,2140           12345                           CADR     DSPB                                  #  VB02 DISPLAY OCT COMP 2 (R1)
000866: 05,2141           12352                           CADR     DSPC                                  #  VB03 DISPLAY OCT COMP 3 (R1)
000867: 05,2142           12333                           CADR     DSPAB                                 #  VB04 DISPLAY OCT COMP 1,2 (R1,R2)
000868: 05,2143           12326                           CADR     DSPABC                                #  VB05 DISPLAY OCT COMP 1,2,3 (R1,R2,R3)
000869: 05,2144           12445                           CADR     DECDSP                                #  VB06 DECIMAL DISPLAY
000870: 05,2145           10704                           CADR     DSPDPDEC                              #  VB07 DP DECIMAL DISPLAY (R1,R2)
000871: 05,2146           11277                           CADR     DSPALARM                              #  VB10 SPARE
000872: 05,2147           13077                           CADR     MONITOR                               #  VB11 MONITOR OCT COMP 1 (R1)
000873: 05,2150           13077                           CADR     MONITOR                               #  VB12 MONITOR OCT COMP 2 (R1)
000874: 05,2151           13077                           CADR     MONITOR                               #  VB13 MONITOR OCT COMP 3 (R1)
000875: 05,2152           13077                           CADR     MONITOR                               #  VB14 MONITOR OCT COMP 1,2 (R1,R2)
000876: 05,2153           13077                           CADR     MONITOR                               #  VB15 MONITOR OCT COMP 1,2,3 (R1,R2,R3)
000877: 05,2154           13077                           CADR     MONITOR                               #  VB16 MONITOR DECIMAL
000878: 05,2155           13077                           CADR     MONITOR                               #  VB17 MONITOR DP DEC (R1,R2)
000879: 05,2156           12324                           CADR     GODSPALM                              #  VB20 SPARE
000880: 05,2157           12620                           CADR     ALOAD                                 #  VB21 LOAD COMP 1 (R1)
000881: 05,2160           12631                           CADR     BLOAD                                 #  VB22 LOAD COMP 2 (R2)
000882: 05,2161           12646                           CADR     CLOAD                                 #  VB23 LOAD COMP 3 (R3)
000883: 05,2162           12572                           CADR     ABLOAD                                #  VB24 LOAD COMP 1,2 (R1,R2)
000884: 05,2163           12535                           CADR     ABCLOAD                               #  VB25 LOAD COMP 1,2,3 (R1,R2,R3)
000885: 05,2164           12324                           CADR     GODSPALM                              #  VB26 SPARE
000886: 05,2165           13214                           CADR     DSPFMEM                               #  VB27 FIXED MEMORY DISPLAY
000887:                                                                                                  #  THE FOLLOWING VERBS MAKE NO NOUN TEST
000888: 05,2166           13314        REQEXLOC           CADR     VBRQEXEC                              #  VB30 REQUEST EXECUTIVE
000889: 05,2167           13340                           CADR     VBRQWAIT                              #  VB31 REQUEST WAITLIST
000890: 05,2170           11325                           CADR     BUMP                                  #  VB32 C(R2) INTO R3, C(R1) INTO R2
000891:
000892:


000894: 05,2171           11310                           CADR     VBPROC                                #  VB33 PROCEED WITHOUT DATA
000895: 05,2172           11315                           CADR     VBTERM                                #  VB34 TERMINATE CURRENT TEST OR LOAD REQ
000896: 05,2173           13414                           CADR     VBTSTLTS                              #  VB35 TEST LIGHTS
000897: 05,2174           24000                           CADR     SLAP1                                 #  VB36 FRESH START
000898: 05,2175           13267        ENDVBFAN           CADR     MMCHANG                               #  VB37 CHANGE MAJOR MODE
000899:
000900:
000901:
000902:                                                                                                  #  THE LIST2 VERBFAN IS LOCATED IN THE EXTENDED VERB BANK.
000903:
000904:
000905:


000907:                                                                                                  #  NNADTAB CONTAINS A RELATIVE ADDRESS, IDADDREL(IN LOW 10 BITS), REFERRING
000908:                                                                                                  #  TO WHERE 3 CONSECUTIVE ADDRESSES ARE STORED (IN IDADDTAB).
000909:                                                                                                  #  MIXNOUN GETS DATA AND STORES IN MIXTEMP,+1,+2. IT SETS NOUNADD FOR
000910:                                                                                                  #   MIXTEMP.
000911:
000912: 05,2176           10132        MIXNOUN            CCS      NNADTEM
000913: 05,2177           02203                           TC       +4                                    #  + IN USE
000914: 05,2200           02324                           TC       GODSPALM                              #  +0 NOT IN USE
000915: 05,2201           02203                           TC       +2                                    #  - IN USE
000916: 05,2202           02203                           TC       +1                                    #  -0 IN USE
000917: 05,2203           46162                           CS       SIX
000918: 05,2204           60266                           AD       VERBREG
000919: 05,2205           00006                           EXTEND
000920: 05,2206           62210                           BZMF     +2                                    #  VERB L/E 6
000921: 05,2207           02116                           TC       VERBFAN                               #  AVOID MIXNOUN SWAP IF VB NOT = DISPLAY
000922: 05,2210           37656                           CAF      TWO
000923: 05,2211           54103        MIXNN1             TS       DECOUNT
000924: 05,2212           62235                           AD       MIXAD
000925: 05,2213           54131                           TS       NOUNADD                               #  SET NOUNADD TO MIXTEMP + K
000926: 05,2214           50103                           INDEX    DECOUNT                               #  GET IDADDTAB ENTRY FOR COMPONENT K
000927: 05,2215           30134                           CA       IDAD1TEM                              #  OF NOUN.
000928: 05,2216           54106                           TS       NOUNTEM
000929:                                                                                                  #  TEST FOR DP (FOR OCT DISPLAY). IF SO, GET
000930:                                                                                                  #    MINOR PART ONLY.
000931: 05,2217           02721                           TC       SFRUTMIX                              #  GET SF ROUT NUMBER IN A
000932: 05,2220           02236                           TC       DPTEST
000933: 05,2221           02223                           TC       MIXNN2                                #  NO DP
000934: 05,2222           24106                           INCR     NOUNTEM                               #  DP GET MINOR PART
000935: 05,2223           30106        MIXNN2             CA       NOUNTEM
000936: 05,2224           75234                           MASK     LOW11                                 #  ESUBK (NO DP) OR (ESUBK)+1     FOR DP
000937: 05,2225           05171                           TC       SETEBANK                              #  SET EBANK, LEAVE EADRES IN A.
000938: 05,2226           50000                           INDEX    A                                     #  PICK UP C(ESUBK)  NOT DP
000939: 05,2227           30000                           CA       0                                     #  OR C((ESUBK)+1)  FOR DP MINOR PART
000940: 05,2230           50131                           INDEX    NOUNADD
000941: 05,2231           56000                           XCH      0                                     #  STORE IN MIXTEM + K
000942: 05,2232           10103                           CCS      DECOUNT
000943: 05,2233           02211                           TC       MIXNN1
000944: 05,2234           02116                           TC       VERBFAN
000945:
000946: 05,2235           00111        MIXAD              TC       MIXTEMP
000947:
000948:
000949:
000950:                                                                                                  #  DPTEST   ENTER WITH SF ROUT NUMBER IN A.
000951:                                                                                                  #           RETURNS TO L+1 IF NO DP.
000952:                                                                                                  #           RETURNS TO L+2 IF DP.
000953:
000954: 05,2236           50000        DPTEST             INDEX    A
000955: 05,2237           12240                           TCF      +1
000956: 05,2240           00002                           TC       Q                                     #  OCTAL ONLY NO DP
000957:
000958:


000960: 05,2241           00002                           TC       Q                                     #  FRACT NO DP
000961: 05,2242           00002                           TC       Q                                     #  DEG  NO DP
000962: 05,2243           00002                           TC       Q                                     #  ARITH  NO DP
000963: 05,2244           12250                           TCF      DPTEST1                               #  DP1OUT
000964: 05,2245           12250                           TCF      DPTEST1                               #  DP2OUT
000965: 05,2246           00002                           TC       Q                                     #  OPDEG  NO DP
000966: 05,2247           12250                           TCF      DPTEST1                               #  DP3OUT
000967: 05,2250           50002        DPTEST1            INDEX    Q
000968: 05,2251           00001                           TC       1                                     #  RETURN TO L+2
000969:
000970:
000971:
000972: 05,2252           35175        REQDATX            CAF      R1D1
000973: 05,2253           12257                           TCF      REQCOM
000974: 05,2254           35176        REQDATY            CAF      R2D1
000975: 05,2255           12257                           TCF      REQCOM
000976: 05,2256           35177        REQDATZ            CAF      R3D1
000977: 05,2257           54264        REQCOM             TS       DSPCOUNT
000978: 05,2260           40002                           CS       Q
000979: 05,2261           54300                           TS       REQRET
000980: 05,2262           04063                           TC       BANKCALL
000981: 05,2263           10476                           CADR     5BLANK
000982: 05,2264           05274                           TC       FLASHON
000983: 05,2265           45150                           CS       ENDINST
000984: 05,2266           60122                           AD       ENTEXIT
000985: 05,2267           00006                           EXTEND
000986: 05,2270           12273                           BZF      ENDRQDAT                              #  ENTEXIT = ENDOFJOB. EXTERNALLY INITIATED
000987: 05,2271           47665                           CS       ZERO                                  #  ENTEXIT NOT ENDOFJOB. NVSUB INITIATED
000988: 05,2272           54323                           TS       CADRSTOR                              #  NVSUB INITIATED LOAD. SET CADRSTOR TO -0
000989: 05,2273           00122        ENDRQDAT           TC       ENTEXIT
000990:
000991:                                                                                                  #  IF NVSUB INITIATED LOAD, SET CADRSTOR TO -0 TO TELL RECALTST TO RELEASE
000992:                                                                                                  #  DISPLAY IF ENDIDLE WAS NOT USED. (NECESSARY FOR DATAWAIT)
000993:
000994:
000995: 05,2274           54267                           TS       NOUNREG
000996: 05,2275           56002        UPDATNN            XCH      Q
000997: 05,2276           54103                           TS       UPDATRET
000998: 05,2277           00006                           EXTEND
000999: 05,2300           32076                           DCA      LODNNLOC                              #  SWITCH BANKS TO NOUN TABLE READING
001000: 05,2301           52006                           DXCH     Z                                     #  ROUTINE.
001001: 05,2302           10132                           CCS      NNADTEM
001002: 05,2303           67657                           AD       ONE                                   #  NORMAL
001003: 05,2304           12307                           TCF      PUTADD
001004: 05,2305           12310                           TCF      PUTADD     +1                         #  MCTBS  DONT CHANGE NOUNADD
001005: 05,2306           12310                           TCF      PUTADD     +1                         #  MCTBI  DONT CHANGE NOUNADD
001006: 05,2307           05161        PUTADD             TC       SETNCADR                              #  ECADR INTO NOUNCADR. SETS EB, NOUNADD.
001007: 05,2310           35240                           CAF      ND1
001008: 05,2311           54264                           TS       DSPCOUNT
001009:
001010:


001012: 05,2312           30267                           CA       NOUNREG
001013: 05,2313           12322                           TCF      UPDAT1
001014:
001015: 05,2314           54266                           TS       VERBREG
001016: 05,2315           56002        UPDATVB            XCH      Q
001017: 05,2316           54103                           TS       UPDATRET
001018: 05,2317           35237                           CAF      VD1
001019: 05,2320           54264                           TS       DSPCOUNT
001020: 05,2321           30266                           CA       VERBREG
001021: 05,2322           03255        UPDAT1             TC       DSP2BIT
001022: 05,2323           00103                           TC       UPDATRET
001023:
001024:
001025:
001026: 05,2324           04102        GODSPALM           TC       POSTJUMP
001027: 05,2325           11277                           CADR     DSPALARM
001028:
001029:


001031:                                                                                                  #           NOUN TABLES
001032:                                                                                                  #  NOUN CODE L/55, NORMAL CASE.  NOUN CODE G/E 55, MIXED NOUN CASE.
001033:                                                                                                  #  FOR NORMAL CASE, NNADTAB CONTAINS ONE       ECADR    FOR EACH NOUN.
001034:                                                                                                  #  +0 INDICATES NOUN NOT USED.   - ENTRY INDICATES MACHINE CADR(E OR F) TO
001035:                                                                                                  #  BE SPECIFIED. -1 INDICATES CHANNEL TO BE SPECIFIED. -0 INDICATES AUGMENT
001036:                                                                                                  #  OF LAST MACHINE CADR SUPPLIED.
001037:
001038:                                                                                                  #  FOR MIXED CASE, NNADTAB CONTAINS ONE INDIRECT ADDRESS(IDADDREL) IN LOW
001039:                                                                                                  #  10 BITS, AND THE COMPONENT CODE NUMBER IN THE HIGH 5 BITS.
001040:
001041:                                                                                                  #  NNTYPTAB IS A PACKED TABLE OF THE FORM MMMMMNNNNNPPPPP.
001042:
001043:                                                                                                  #  FOR THE NORMAL CASE, M-S ARE THE COMPONENT CODE NUMBER.
001044:                                                                                                  #                       N-S ARE THE SF ROUTINE CODE NUMBER.
001045:                                                                                                  #                       P-S ARE THE SF CONSTANT CODE NUMBER.
001046:
001047:                                                                                                  #  MIXED CASE,M-S ARE THE SF CONSTANT3 CODE NUMBER     3 COMPONENT CASE
001048:                                                                                                  #             N-S ARE THE SF CONSTANT2 CODE NUMBER
001049:                                                                                                  #             P-S ARE THE SF CONSTANT1 CODE NUMBER
001050:                                                                                                  #             N-S ARE THE SF CONSTANT2 CODE NUMBER     2 COMPONENT CASE
001051:                                                                                                  #             P-S ARE THE SF CONSTANT1 CODE NUMBER
001052:                                                                                                  #             P-S ARE THE SF CONSTANT1 CODE NUMBER      1 COMPONENT CASE
001053:
001054:                                                                                                  #  THERE IS ALSO AN INDIRECT ADDRESS TABLE(IDADDTAB) FOR MIXED CASE ONLY.
001055:                                                                                                  #  EACH ENTRY CONTAINS ONE ECADR.    IDADDREL IS THE RELATIVE ADDRESS OF
001056:                                                                                                  #  THE FIRST OF THESE ENTRIES.
001057:                                                                                                  #  THERE IS ONE ENTRY IN THIS TABLE FOR EACH COMPONENT OF A MIXED NOUN
001058:                                                                                                  #  THEY ARE LISTED IN ORDER OF ASCENDING K.
001059:
001060:                                                                                                  #  THERE IS ALSO A SCALE FACTOR ROUTINE NUMBER TABLE( RUTMXTAB ) FOR MIXED
001061:                                                                                                  #  CASE ONLY. THERE IS ONE ENTRY PER MIXED NOUN. THE FORM IS,
001062:                                                                                                  #        QQQQQRRRRRSSSSS
001063:                                                                                                  #  Q-S ARE THE SF ROUTINE 3 CODE NUMBER     3 COMPONENT CASE
001064:                                                                                                  #  R-S ARE THE SF ROUTINE 2 CODE NUMBER
001065:                                                                                                  #  S-S ARE THE SF ROUTINE 1 CODE NUMBER
001066:                                                                                                  #  R-S ARE THE SF ROUTINE 2 CODE NUMBER     2 COMPONENT CASE
001067:                                                                                                  #  S-S ARE THE SF ROUTINE 1 CODE NUMBER
001068:
001069:                                                                                                  #  IN OCTAL DISPLAY AND LOAD (OCT OR DEC) VERBS, EXCLUDE USE OF VERBS WHOSE
001070:                                                                                                  #  COMPONENT NUMBER IS GREATER THAN THE NUMBER OF COMPONENTS IN NOUN.
001071:                                                                                                  #  ALL MACHINE ADDRESS TO BE SPECIFIED NOUNS ARE 1 COMPONENT.
001072:                                                                                                  #  ONLY EXCEPTION IS NOUN 01 TO ALLOW OCTAL DISPLAYS AND LOADS OF
001073:                                                                                                  #  AN UNCONTOLLED NUMBER OF COMPONENTS.
001074:
001075:
001076:
001077:                                                                                                  #  IN MULTI-COMPONENT LOAD VERBS, NO MIXING OF OCTAL AND DECIMAL DATA
001078:                                                                                                  #  COMPONENT WORDS IS ALLOWED. ALARM IF VIOLATION.
001079:
001080:


001082:                                                                                                  #  IN DECIMAL LOADS OF DATA, 5 NUMERICAL CHARACTERS MUST BE KEYED IN
001083:                                                                                                  #  BEFORE EACH ENTER. IF NOT, ALARM.
001084:
001085:


001087:                                                                                                  #           DISPLAY VERBS
001088: 05,2326           47656        DSPABC             CS       TWO
001089: 05,2327           02376                           TC       COMPTEST
001090: 05,2330           50131                           INDEX    NOUNADD
001091: 05,2331           40002                           CS       2
001092: 05,2332           56116                           XCH      BUF        +2
001093: 05,2333           47657        DSPAB              CS       ONE
001094: 05,2334           02376                           TC       COMPTEST
001095: 05,2335           50131                           INDEX    NOUNADD
001096: 05,2336           40001                           CS       1
001097: 05,2337           56115                           XCH      BUF        +1
001098: 05,2340           02420        DSPA               TC       TSTFORDP
001099: 05,2341           50131                           INDEX    NOUNADD
001100: 05,2342           40000                           CS       0
001101: 05,2343           56114        DSPCOM1            XCH      BUF
001102: 05,2344           02357                           TC       DSPCOM2
001103: 05,2345           47657        DSPB               CS       ONE
001104: 05,2346           02376                           TC       COMPTEST
001105: 05,2347           50131                           INDEX    NOUNADD
001106: 05,2350           40001                           CS       1
001107: 05,2351           02343                           TC       DSPCOM1
001108: 05,2352           47656        DSPC               CS       TWO
001109: 05,2353           02376                           TC       COMPTEST
001110: 05,2354           50131                           INDEX    NOUNADD
001111: 05,2355           40002                           CS       2
001112: 05,2356           02343                           TC       DSPCOM1
001113: 05,2357           47656        DSPCOM2            CS       TWO                                   #  A  B  C  AB ABC
001114: 05,2360           60266                           AD       VERBREG                               #  -1 -0 +1 +2 +3   IN A
001115: 05,2361           10000                           CCS      A                                     #  +0 +0 +0 +1 +2    IN A AFTER CCS
001116: 05,2362           02365                           TC       DSPCOM3
001117: 05,2363           00122                           TC       ENTEXIT
001118: 05,2364           02365                           TC       +1
001119: 05,2365           54106        DSPCOM3            TS       DISTEM                                #  +0,+1,+2 INTO DISTEM
001120: 05,2366           50000                           INDEX    A
001121: 05,2367           35175                           CAF      R1D1
001122: 05,2370           54264                           TS       DSPCOUNT
001123: 05,2371           50106                           INDEX    DISTEM
001124: 05,2372           40114                           CS       BUF
001125: 05,2373           03222                           TC       DSPOCTWD
001126: 05,2374           56106                           XCH      DISTEM
001127: 05,2375           02361                           TC       DSPCOM2    +2
001128:
001129:                                                                                                  #  COMPTEST ALARMS IF COMPONENT NUMBER OF VERB(LOAD OR OCT DISPLAY) IS
001130:                                                                                                  #  GREATER THAN THE HIGHEST COMPONENT NUMBER OF NOUN.
001131:                                                                                                  #  NOUN 01 IS EXCLUDED FROM TEST.
001132: 05,2376           54107        COMPTEST           TS       SFTEMP1                               #  - VERB COMP
001133: 05,2377           22002                           LXCH     Q
001134: 05,2400           47657        COMPTST1           CS       ONE
001135: 05,2401           60267                           AD       NOUNREG
001136: 05,2402           00006                           EXTEND
001137:
001138:


001140: 05,2403           12417                           BZF      NDCMPTST                              #  NOUN = 01, ANY COMP OK
001141: 05,2404           50124                           INDEX    MIXBR                                 #  NOUN NOT = 01.
001142: 05,2405           32442                           CAF      COMPICK    -1
001143: 05,2406           50000                           INDEX    A
001144: 05,2407           30000                           CA       0
001145: 05,2410           75226                           MASK     HI5
001146: 05,2411           05207                           TC       LEFT5                                 #  NOUN COMP
001147: 05,2412           60107                           AD       SFTEMP1                               #  NOUN COMP - VERB COMP
001148: 05,2413           10000                           CCS      A
001149: 05,2414           00001                           TC       L                                     #  NOUN COMP G/ VERB COMP
001150: 05,2415           05464                           TC       CCSHOLE
001151: 05,2416           02324                           TC       GODSPALM                              #  NOUN COMP L/ VERB COMP
001152: 05,2417           00001        NDCMPTST           TC       L                                     #  NOUN COMP = VERB COMP
001153:
001154:
001155:
001156: 05,2420           22002        TSTFORDP           LXCH     Q                                     #  TEST FOR DP. IF SO, GET MINOR PART ONLY.
001157: 05,2421           30132                           CA       NNADTEM
001158: 05,2422           67657                           AD       ONE                                   #  IF NNADTEM = -1, CHANNEL TO BE SPECIFIED
001159: 05,2423           00006                           EXTEND
001160: 05,2424           12436                           BZF      CHANDSP
001161: 05,2425           50124                           INDEX    MIXBR
001162: 05,2426           02426                           TC       +0
001163: 05,2427           02431                           TC       +2                                    #  NORMAL
001164: 05,2430           00001                           TC       L                                     #  MIXED CASE ALREADY HANDLED IN MIXNOUN
001165: 05,2431           02713                           TC       SFRUTNOR
001166: 05,2432           02236                           TC       DPTEST
001167: 05,2433           00001                           TC       L                                     #  NO DP
001168: 05,2434           24131                           INCR     NOUNADD                               #  DP    E+1 INTO NOUNADD FOR MINOR PART.
001169: 05,2435           00001                           TC       L
001170:
001171:
001172:
001173: 05,2436           00006        CHANDSP            EXTEND
001174: 05,2437           50304                           INDEX    NOUNCADR
001175: 05,2440           00000                           READ     0
001176: 05,2441           40000                           CS       A
001177: 05,2442           12343                           TCF      DSPCOM1
001178:
001179:
001180:
001181: 05,2443           00133        COMPICK            ADRES    NNTYPTEM
001182: 05,2444           00132                           ADRES    NNADTEM
001183:
001184: 05,2445           50124        DECDSP             INDEX    MIXBR                                 #  NORMAL                MIXED
001185: 05,2446           32442                           CAF      COMPICK    -1                         #  ADRES NNTYPTEM        ADRES NNADTEM
001186: 05,2447           50000                           INDEX    A
001187: 05,2450           30000                           CA       0                                     #  C(NNTYPTEM)           C(NNADTEM)
001188: 05,2451           75226                           MASK     HI5                                   #  GET HI5 OF NNTYPTAB(NORM)OF NNADTAB(MIX)
001189: 05,2452           05207                           TC       LEFT5
001190:
001191:


001193: 05,2453           54103                           TS       DECOUNT                               #  COMP NUMBER INTO DECOUNT
001194: 05,2454           54106        DSPDCGET           TS       DECTEM                                #  PICKS UP DATA
001195: 05,2455           60131                           AD       NOUNADD                               #  DECTEM 1COMP +0, 2COMP +1, 3COMP +2
001196: 05,2456           50000                           INDEX    A
001197: 05,2457           40000                           CS       0
001198: 05,2460           50106                           INDEX    DECTEM
001199: 05,2461           56270                           XCH      XREG                                  #  CANT USE BUF SINCE DMP USES IT.
001200: 05,2462           10106                           CCS      DECTEM
001201: 05,2463           02454                           TC       DSPDCGET                              #  MORE TO GET
001202: 05,2464           37665        DSPDCPUT           CAF      ZERO                                  #  DISPLAYS DATA
001203: 05,2465           54141                           TS       MPAC       +1                         #  DECOUNT 1COMP +0, 2COMP +1, 3COMP +2
001204: 05,2466           54142                           TS       MPAC       +2
001205: 05,2467           50103                           INDEX    DECOUNT
001206: 05,2470           35175                           CAF      R1D1
001207: 05,2471           54264                           TS       DSPCOUNT
001208: 05,2472           50103                           INDEX    DECOUNT
001209: 05,2473           40270                           CS       XREG
001210: 05,2474           54140                           TS       MPAC
001211: 05,2475           02734                           TC       SFCONUM                               #  2X ( SF CON NUMB ) IN A
001212: 05,2476           54107                           TS       SFTEMP1
001213: 05,2477           00006                           EXTEND                                         #  SWITCH BANKS TO SF CONSTANT TABLE
001214: 05,2500           32512                           DCA      GTSFOUTL                              #     READING ROUTINE.
001215: 05,2501           52006                           DXCH     Z                                     #  LOADS SFTEMP1, SFTEMP2.
001216: 05,2502           50124                           INDEX    MIXBR
001217: 05,2503           02503                           TC       +0
001218: 05,2504           02507                           TC       DSPSFNOR
001219: 05,2505           02721                           TC       SFRUTMIX
001220: 05,2506           02522                           TC       DECDSP3
001221:
001222: 05,2507           02713        DSPSFNOR           TC       SFRUTNOR
001223: 05,2510           02522                           TC       DECDSP3
001224:
001225: 05,2511     0264                                  EBANK=   DSPCOUNT
001226: 05,2511           02037 34000  GTSFOUTL           2CADR    GTSFOUT
001227:
001228: 05,2513           04063        DSPDCEND           TC       BANKCALL                              #  ALL SFOUT ROUTINES END HERE
001229: 05,2514           11101                           CADR     DSPDECWD
001230: 05,2515           10103                           CCS      DECOUNT
001231: 05,2516           02520                           TC       +2
001232: 05,2517           00122                           TC       ENTEXIT
001233: 05,2520           54103                           TS       DECOUNT
001234: 05,2521           02464                           TC       DSPDCPUT                              #  MORE TO DISPLAY
001235:
001236: 05,2522           50000        DECDSP3            INDEX    A
001237: 05,2523           32525                           CAF      SFOUTABR
001238: 05,2524           04105                           TC       BANKJUMP
001239:
001240:


001242: 05,2525           11277        SFOUTABR           CADR     DSPALARM                              #  ALARM IF DEC DISP WITH OCTAL ONLY NOUN
001243: 05,2526           12513                           CADR     DSPDCEND
001244: 05,2527           10555                           CADR     DEGOUTSF
001245: 05,2530           10642                           CADR     ARTOUTSF
001246: 05,2531           10647                           CADR     DP1OUTSF
001247: 05,2532           10654                           CADR     DP2OUTSF
001248: 05,2533           10563                           CADR     OPDEGOUT
001249: 05,2534           10656                           CADR     DP3OUTSF
001250: 05,2535                        ENDRTOUT           EQUALS
001251:
001252:
001253:
001254:                                                                                                  #          THE FOLLOWING IS ATYPICAL SF ROUTINE. IT USES MPAC. LEAVES RESU
001255:                                                                                                  #  LTS IN MPAC, MPAC+1. ENDS WITH TC DSPDCEND
001256:
001257:
001258:
001259: 04,2555                                           SETLOC   BLANKCON   +1
001260:
001261:                                                                                                  #     DEGOUTSF SCALES BY .18 THE LOW 14 BITS OF ANGLE, ADDING .18 FOR
001262:                                                                                                  #  NUMBERS IN THE NEGATIVE (AGC) RANGE.
001263:
001264: 04,2555           37665        DEGOUTSF           CAF      ZERO
001265: 04,2556           54142                           TS       MPAC       +2                         #  SET INDEX FOR FULL SCALE
001266: 04,2557           02614                           TC       FIXRANGE
001267: 04,2560           02562                           TC       +2                                    #  NO AUGMENT NEEDED (SFTEMP1 AND 2 ARE 0)
001268: 04,2561           02607                           TC       SETAUG                                #  SET AUGMENTER ACCORDING TO C(MPAC +2)
001269: 04,2562           02625                           TC       DEGCOM
001270:
001271:                                                                                                  #  OPDEGOUT SCALES BY .45 (THE RANGE IS 90 DEGREES) AND ADDS A 20 DEG BIAS.
001272:
001273: 04,2563           10140        OPDEGOUT           CCS      MPAC                                  #  RANGE IS 90 DEG
001274: 04,2564           56140                           XCH      MPAC                                  #  IF POS OR POS 0 THEN ADD BIAS AND
001275: 04,2565           02570                           TC       +3                                    #  CORRECT FOR POSSIBLE OVERFLOW
001276: 04,2566           02577                           TC       NEGOPT                                #  IF NEG NON ZERO
001277: 04,2567           67667                           AD       NEG1                                  #  IF NEG ZERO SUBTRACT 1
001278: 04,2570           62641                           AD       20BIAS
001279: 04,2571           54140        BIASCOM            TS       MPAC                                  #  TEST FOR OVERFLOW
001280: 04,2572           02575                           TC       +3                                    #  NO OVFLOW
001281: 04,2573           37641                           CAF      BIT15                                 #  IF OVFLOW
001282: 04,2574           26140                           ADS      MPAC
001283: 04,2575           37656                           CAF      TWO                                   #  SET MULTIPLIER TO .45
001284: 04,2576           02556                           TC       DEGOUTSF   +1
001285:
001286: 04,2577           56140        NEGOPT             XCH      MPAC                                  #  NEGATIVE CASE
001287: 04,2600           62641                           AD       20BIAS
001288: 04,2601           10000                           CCS      A
001289: 04,2602           02571                           TC       BIASCOM                               #  IF POS THEN SUBTRACT 1 BECAUSE OF 2SCOM
001290: 04,2603           05464                           TC       CCSHOLE
001291: 04,2604           67657                           AD       ONE                                   #  IF NEG RESTORE SUM
001292:
001293:


001295: 04,2605           40000                           COM                                            #  IF NEG 0 LEAVE NEG 0
001296: 04,2606           02571                           TC       BIASCOM
001297:
001298: 04,2607           00006        SETAUG             EXTEND                                         #  LOADS SFTEMP1 AND SFTEMP2 WITH THE
001299: 04,2610           50142                           INDEX    MPAC       +2                         #  DP AUGMENTER CONSTANT
001300: 04,2611           32636                           DCA      DEGTAB
001301: 04,2612           52110                           DXCH     SFTEMP1
001302: 04,2613           00002                           TC       Q
001303:
001304: 04,2614           10140        FIXRANGE           CCS      MPAC                                  #  IF MPAC IS + RETURN TO L+1
001305: 04,2615           00002                           TC       Q                                     #  IF MPAC IS - RETURN TO L+2 AFTER
001306: 04,2616           00002                           TC       Q                                     #  MASKING OUT THE SIGN BIT
001307: 04,2617           12620                           TCF      +1
001308: 04,2620           47641                           CS       BIT15
001309: 04,2621           70140                           MASK     MPAC
001310: 04,2622           54140                           TS       MPAC
001311: 04,2623           50002                           INDEX    Q
001312: 04,2624           00001                           TC       1
001313:
001314: 04,2625           00006        DEGCOM             EXTEND                                         #  LOADS MULTIPLIER, DOES SHORTMP, AND
001315: 04,2626           50142                           INDEX    MPAC       +2                         #  ADDS AUGMENTER.
001316: 04,2627           32636                           DCA      DEGTAB
001317: 04,2630           52141                           DXCH     MPAC                                  #  ADJUSTED ANGLE IN A
001318: 04,2631           07266                           TC       SHORTMP
001319: 04,2632           52110                           DXCH     SFTEMP1
001320: 04,2633           20141                           DAS      MPAC
001321: 04,2634           02645                           TC       SCOUTEND
001322:
001323: 04,2635           05605        DEGTAB             OCT      05605                                 #  HI PART OF    .18
001324: 04,2636           03656                           OCT      03656                                 #  LOW PART OF   .18
001325: 04,2637           16314                           OCT      16314                                 #  HI PART OF    .45
001326: 04,2640           31463                           OCT      31463                                 #  LO PART OF    .45
001327:
001328: 04,2641           16040        20BIAS             OCT      16040                                 #  20 DEG BIAS FOR OPTICS
001329:
001330: 04,2642           52110        ARTOUTSF           DXCH     SFTEMP1                               #  ASSUMES POINT AT LEFT OF DP SFCON
001331: 04,2643           52141                           DXCH     MPAC
001332: 04,2644           07266                           TC       SHORTMP
001333: 04,2645           04102        SCOUTEND           TC       POSTJUMP
001334: 04,2646           12513                           CADR     DSPDCEND
001335:
001336: 04,2647           02661        DP1OUTSF           TC       DPOUT                                 #  SCALES MPAC, MPAC +1 BY DP SCALE FACTOR
001337: 04,2650           56142                           XCH      MPAC       +2                         #  IN SFTEMP1, SFTEMP2.  THEN SCALE RESULT
001338: 04,2651           56141                           XCH      MPAC       +1                         #  BY B14.
001339: 04,2652           54140                           TS       MPAC
001340: 04,2653           02645                           TC       SCOUTEND
001341:
001342:


001344: 04,2654           02661        DP2OUTSF           TC       DPOUT                                 #  SCALES MPAC, MPAC +1 BY DP SCALE FACTOR
001345: 04,2655           02645                           TC       SCOUTEND
001346:
001347:
001348:
001349: 04,2656           02661        DP3OUTSF           TC       DPOUT                                 #  ASSUMES POINT BETWEEN BITS 7-8 OF HIGH
001350: 04,2657           03054                           TC       TPLEFT7                               #  PART OF SFCON. SHIFTS RESULTS LEFT 7.
001351: 04,2660           02645                           TC       SCOUTEND
001352:
001353:
001354:
001355:                                                                                                  #  DPOUT PICKS UP FRESH DATA FOR BOTH HI AND LO COMPONENTS.
001356:                                                                                                  #  THIS IS NEEDED FOR TIME DISPLAY.
001357:
001358: 04,2661           56002        DPOUT              XCH      Q
001359: 04,2662           54105                           TS       OVFIND
001360: 04,2663           50124                           INDEX    MIXBR
001361: 04,2664           02664                           TC       +0
001362: 04,2665           02702                           TC       DPOUTNOR
001363: 04,2666           50103                           INDEX    DECOUNT                               #  GET IDADDTAB ENTRY FOR COMPONENT K
001364: 04,2667           30134                           CA       IDAD1TEM                              #      OF NOUN.
001365: 04,2670           75234                           MASK     LOW11                                 #  E SUBK
001366: 04,2671           05171                           TC       SETEBANK                              #  SET EB, LEAVE EADRES IN A.
001367: 04,2672           00006        DPOUTCOM           EXTEND
001368: 04,2673           50000                           INDEX    A                                     #  MIXED         NORMAL
001369: 04,2674           30001                           DCA      0                                     #  C(ESUBK)      C(E)
001370: 04,2675           52141                           DXCH     MPAC                                  #  C((E SUBK)+1)      C(E+1)
001371: 04,2676           07235                           TC       TPAGREE
001372: 04,2677           07063                           TC       DMP
001373: 04,2700           00107                           ADRES    SFTEMP1
001374: 04,2701           00105                           TC       OVFIND
001375:
001376: 04,2702           30131        DPOUTNOR           CA       NOUNADD                               #  E
001377: 04,2703           02672                           TC       DPOUTCOM
001378:
001379:
001380:
001381:                                                                                                  #  THIS IS A SPECIAL PURPOSE VERB FOR DISPLAYING A DOUBLE PRECISION AGC
001382:                                                                                                  #  WORD AS 10 DECIMAL DIGITS ON THE AGC DISPLAY PANEL.  IT CAN BE USED WITH
001383:                                                                                                  #  ANY NOUN, EXCEPT MIXED NOUNS. IT DISPLAYS THE CONTENTS
001384:                                                                                                  #  OF THE REGISTER NOUNADD IS POINTING TO .  IF USED WITH NOUNS WHICH ARE
001385:                                                                                                  #  INHERENTLY NOT DP SUCH AS THE CDU COUNTERS THE DISPLAY WILL BE GARBAGE.
001386:                                                                                                  #  DISPLAY IS IN R1 AND R2 ONLY WITH THE SIGN IN R1.
001387:
001388:
001389:
001390: 04,2704           50124        DSPDPDEC           INDEX    MIXBR
001391: 04,2705           02705                           TC       +0
001392: 04,2706           02710                           TC       +2                                    #  NORMAL NOUN
001393: 04,2707           03277                           TC       DSPALARM
001394:


001396: 04,2710           00006                           EXTEND
001397: 04,2711           50131                           INDEX    NOUNADD
001398: 04,2712           30001                           DCA      0
001399: 04,2713           52141                           DXCH     MPAC
001400: 04,2714           35175                           CAF      R1D1
001401: 04,2715           54264                           TS       DSPCOUNT
001402: 04,2716           37665                           CAF      ZERO
001403: 04,2717           54142                           TS       MPAC       +2
001404: 04,2720           07235                           TC       TPAGREE
001405: 04,2721           03155                           TC       DSP2DEC
001406: 04,2722           00122        ENDDPDEC           TC       ENTEXIT
001407:


001409:                                                                                                  #           LOAD VERBS
001410:
001411:
001412:
001413: 05,2535                                           SETLOC   ENDRTOUT
001414:
001415: 05,2535           47656        ABCLOAD            CS       TWO
001416: 05,2536           02376                           TC       COMPTEST
001417: 05,2537           32673                           CAF      VBSP1LD
001418: 05,2540           02314                           TC       UPDATVB    -1
001419: 05,2541           02252                           TC       REQDATX
001420: 05,2542           32674                           CAF      VBSP2LD
001421: 05,2543           02314                           TC       UPDATVB    -1
001422: 05,2544           02254                           TC       REQDATY
001423: 05,2545           32675                           CAF      VBSP3LD
001424: 05,2546           02314                           TC       UPDATVB    -1
001425: 05,2547           02256                           TC       REQDATZ
001426:
001427:
001428:
001429: 05,2550           46162        PUTXYZ             CS       SIX                                   #  TEST THAT THE 3 DATA WORDS LOADED ARE
001430: 05,2551           02676                           TC       ALLDC/OC                              #  ALL DEC OR ALL OCT.
001431: 05,2552           00006                           EXTEND
001432: 05,2553           32076                           DCA      LODNNLOC                              #  SWITCH BANKS TO NOUN TABLE READING
001433: 05,2554           52006                           DXCH     Z                                     #  ROUTINE.
001434: 05,2555           37665                           CAF      ZERO                                  #  X COMP
001435: 05,2556           02762                           TC       PUTCOM
001436: 05,2557           50131                           INDEX    NOUNADD
001437: 05,2560           54000                           TS       0
001438: 05,2561           37657                           CAF      ONE                                   #  Y COMP
001439: 05,2562           02762                           TC       PUTCOM
001440: 05,2563           50131                           INDEX    NOUNADD
001441: 05,2564           54001                           TS       1
001442: 05,2565           37656                           CAF      TWO                                   #  Z COMP
001443: 05,2566           02762                           TC       PUTCOM
001444: 05,2567           50131                           INDEX    NOUNADD
001445: 05,2570           54002                           TS       2
001446: 05,2571           02663                           TC       LOADLV
001447:
001448: 05,2572           47657        ABLOAD             CS       ONE
001449: 05,2573           02376                           TC       COMPTEST
001450: 05,2574           32673                           CAF      VBSP1LD
001451: 05,2575           02314                           TC       UPDATVB    -1
001452: 05,2576           02252                           TC       REQDATX
001453: 05,2577           32674                           CAF      VBSP2LD
001454: 05,2600           02314                           TC       UPDATVB    -1
001455: 05,2601           02254                           TC       REQDATY
001456: 05,2602           47664        PUTXY              CS       FIVE                                  #  TEST THAT THE 2 DATA WORDS LOADED ARE
001457: 05,2603           02676                           TC       ALLDC/OC                              #  ALL DEC OR ALL OCT.
001458: 05,2604           00006                           EXTEND
001459:


001461: 05,2605           32076                           DCA      LODNNLOC                              #  SWITCH BANKS TO NOUN TABLE READING
001462: 05,2606           52006                           DXCH     Z                                     #  ROUTINE.
001463: 05,2607           37665                           CAF      ZERO                                  #  X COMP
001464: 05,2610           02762                           TC       PUTCOM
001465: 05,2611           50131                           INDEX    NOUNADD
001466: 05,2612           54000                           TS       0
001467: 05,2613           37657                           CAF      ONE                                   #  Y COMP
001468: 05,2614           02762                           TC       PUTCOM
001469: 05,2615           50131                           INDEX    NOUNADD
001470: 05,2616           54001                           TS       1
001471: 05,2617           02663                           TC       LOADLV
001472:
001473: 05,2620           02252        ALOAD              TC       REQDATX
001474: 05,2621           00006                           EXTEND
001475: 05,2622           32076                           DCA      LODNNLOC                              #  SWITCH BANKS TO NOUN TABLE READING
001476: 05,2623           52006                           DXCH     Z                                     #  ROUTINE.
001477: 05,2624           37665                           CAF      ZERO                                  #  X COMP
001478: 05,2625           02762                           TC       PUTCOM
001479: 05,2626           50131                           INDEX    NOUNADD
001480: 05,2627           54000                           TS       0
001481: 05,2630           02663                           TC       LOADLV
001482:
001483: 05,2631           47657        BLOAD              CS       ONE
001484: 05,2632           02376                           TC       COMPTEST
001485: 05,2633           37641                           CAF      BIT15                                 #  SET CLPASS FOR PASS0 ONLY
001486: 05,2634           54302                           TS       CLPASS
001487: 05,2635           02254                           TC       REQDATY
001488: 05,2636           00006                           EXTEND
001489: 05,2637           32076                           DCA      LODNNLOC                              #  SWITCH BANKS TO NOUN TABLE READING
001490: 05,2640           52006                           DXCH     Z                                     #  ROUTINE.
001491: 05,2641           37657                           CAF      ONE
001492: 05,2642           02762                           TC       PUTCOM
001493: 05,2643           50131                           INDEX    NOUNADD
001494: 05,2644           54001                           TS       1
001495: 05,2645           02663                           TC       LOADLV
001496:
001497: 05,2646           47656        CLOAD              CS       TWO
001498: 05,2647           02376                           TC       COMPTEST
001499: 05,2650           37641                           CAF      BIT15                                 #  SET CLPASS FOR PASS0 ONLY
001500: 05,2651           54302                           TS       CLPASS
001501: 05,2652           02256                           TC       REQDATZ
001502: 05,2653           00006                           EXTEND
001503: 05,2654           32076                           DCA      LODNNLOC                              #  SWITCH BANKS TO NOUN TABLE READING
001504: 05,2655           52006                           DXCH     Z                                     #  ROUTINE.
001505: 05,2656           37656                           CAF      TWO
001506: 05,2657           02762                           TC       PUTCOM
001507: 05,2660           50131                           INDEX    NOUNADD
001508: 05,2661           54002                           TS       2
001509: 05,2662           02663                           TC       LOADLV
001510:


001512: 05,2663           37665        LOADLV             CAF      ZERO
001513: 05,2664           54265                           TS       DECBRNCH
001514: 05,2665           47665                           CS       ZERO
001515: 05,2666           54301                           TS       LOADSTAT
001516: 05,2667           45237                           CS       VD1                                   #  TO BLOCK NUMERICAL CHARACTERS AND
001517: 05,2670           54264                           TS       DSPCOUNT                              #  CLEARS AFTER A COMPLETED LOAD
001518: 05,2671           04102                           TC       POSTJUMP                              #  AFTER COMPLETED LOAD, GO TO RECALTST
001519: 05,2672           11422                           CADR     RECALTST                              #  TO SEE IF THERE IS RECALL FROM ENDIDLE.
001520:
001521: 05,2673           00021        VBSP1LD            OCT      21                                    #  VB21 = ALOAD
001522: 05,2674           00022        VBSP2LD            OCT      22                                    #  VB22 = BLOAD
001523: 05,2675           00023        VBSP3LD            OCT      23                                    #  VB23 = CLOAD
001524:
001525:
001526:
001527: 05,2676           54103        ALLDC/OC           TS       DECOUNT                               #  TESTS THAT DATA WORDS LOADED ARE EITHER
001528: 05,2677           40265                           CS       DECBRNCH                              #  ALL DEC OR ALL OCT. ALARMS IF NOT.
001529: 05,2700           54021                           TS       SR
001530: 05,2701           40021                           CS       SR
001531: 05,2702           40021                           CS       SR                                    #  SHIFTED RIGHT 2
001532: 05,2703           10000                           CCS      A                                     #  DEC COMP BITS IN LOW 3
001533: 05,2704           12706                           TCF      +2                                    #  SOME ONES IN LOW 3
001534: 05,2705           00002                           TC       Q                                     #  ALL ZEROS. ALL OCTAL.  OK
001535: 05,2706           60103                           AD       DECOUNT                               #  DEC COMP = 7 FOR 3COMP, =6 FOR 2COMP
001536: 05,2707           00006                           EXTEND                                         #  (BUT IT HAS BEEN DECREMENTED BY CCS)
001537: 05,2710           12712                           BZF      +2                                    #  MUST MATCH 6 FOR 3COMP, 5 FOR 2COMP.
001538: 05,2711           02324                           TC       GODSPALM
001539: 05,2712           00002        GOQ                TC       Q                                     #  ALL REQUIRED ARE DEC. OK
001540:
001541:
001542:
001543: 05,2713           56002        SFRUTNOR           XCH      Q                                     #  GETS SF ROUTINE NUMBER FOR NORMAL CASE
001544: 05,2714           54100                           TS       EXITEM                                #  CANT USE L FOR RETURN. TSTFORDP USES L.
001545: 05,2715           35225                           CAF      MID5
001546: 05,2716           70133                           MASK     NNTYPTEM
001547: 05,2717           05200                           TC       RIGHT5
001548: 05,2720           00100                           TC       EXITEM                                #  SF ROUTINE NUMBER IN A
001549:
001550: 05,2721           56002        SFRUTMIX           XCH      Q                                     #  GETS SF ROUTINE NUMBER FOR MIXED CASE
001551: 05,2722           54100                           TS       EXITEM
001552: 05,2723           50103                           INDEX    DECOUNT
001553: 05,2724           32753                           CAF      DISPLACE                              #  PUT TC GOQ, TC RIGHT5, OR TC LEFT5 IN L
001554: 05,2725           54001                           TS       L
001555: 05,2726           50103                           INDEX    DECOUNT
001556: 05,2727           35224                           CAF      LOW5                                  #  LOW5, MID5, OR HI5 IN A
001557: 05,2730           70137                           MASK     RUTMXTEM                              #  GET HI5, MID5, OR LOW5 OF RUTMXTAB ENTRY
001558: 05,2731           50001                           INDEX    L
001559: 05,2732           00000                           TC       0
001560:                                                                                                  #  DO TC GOQ(DECOUNT=0), DO TC RIGHT5(DECOUNT=1), DO TC LEFT5(DECOUNT=2).
001561: 05,2733           00100        SFRET1             TC       EXITEM                                #  SF ROUTINE NUMBER IN A
001562:


001564: 05,2734           56002        SFCONUM            XCH      Q                                     #  GETS 2X( SF CONSTANT NUMBER)
001565: 05,2735           54100                           TS       EXITEM
001566: 05,2736           50124                           INDEX    MIXBR
001567: 05,2737           02737                           TC       +0
001568: 05,2740           02756                           TC       CONUMNOR                              #  NORMAL NOUN
001569: 05,2741           50103                           INDEX    DECOUNT                               #  MIXED NOUN
001570: 05,2742           32753                           CAF      DISPLACE
001571: 05,2743           54001                           TS       L                                     #  PUT TC GOQ, TC RIGHT5, OR TC LEFT5 IN L
001572: 05,2744           50103                           INDEX    DECOUNT
001573: 05,2745           35224                           CAF      LOW5
001574: 05,2746           70133                           MASK     NNTYPTEM
001575: 05,2747           50001                           INDEX    L
001576: 05,2750           00000                           TC       0
001577:                                                                                                  #  DO TC GOQ(DECOUNT=0), DO TC RIGHT5(DECOUNT=1), DO TC LEFT5(DECOUNT=2).
001578: 05,2751           60000        SFRET              DOUBLE                                         #  2X(SF CONSTANT NUMBER ) IN A
001579: 05,2752           00100                           TC       EXITEM
001580:
001581: 05,2753           02712        DISPLACE           TC       GOQ
001582: 05,2754           05200                           TC       RIGHT5
001583: 05,2755           05207                           TC       LEFT5
001584:
001585: 05,2756           35224        CONUMNOR           CAF      LOW5                                  #  NORMAL NOUN ALWAYS GETS LOW 5 OF
001586: 05,2757           70133                           MASK     NNTYPTEM                              #  NNTYPTAB FOR SF CONUM.
001587: 05,2760           60000                           DOUBLE
001588: 05,2761           00100                           TC       EXITEM                                #  2X( SF CONSTANT NUMBER) IN A
001589:
001590:
001591:
001592: 05,2762           54103        PUTCOM             TS       DECOUNT
001593: 05,2763           56002                           XCH      Q
001594: 05,2764           54101                           TS       DECRET
001595: 05,2765           37665                           CAF      ZERO
001596: 05,2766           54105                           TS       OVFIND
001597: 05,2767           50103                           INDEX    DECOUNT
001598: 05,2770           56273                           XCH      XREGLP
001599: 05,2771           54141                           TS       MPAC       +1
001600: 05,2772           50103                           INDEX    DECOUNT
001601: 05,2773           56270                           XCH      XREG
001602: 05,2774           54140                           TS       MPAC
001603: 05,2775           50124                           INDEX    MIXBR
001604: 05,2776           02776                           TC       +0
001605: 05,2777           03023                           TC       PUTNORM                               #  NORMAL NOUN
001606:                                                                                                  #  IF MIXNOUN, PLACE ADDRESS FOR COMPONENT K INTO NOUNADD, SET EBANK BITS.
001607: 05,3000           50103                           INDEX    DECOUNT                               #  GET IDADDTAB ENTRY FOR COMPONENT K
001608: 05,3001           30134                           CA       IDAD1TEM                              #          OF NOUN.
001609: 05,3002           75234                           MASK     LOW11                                 #  (ECADR)SUBK FOR CURRENT COMP OF NOUN
001610: 05,3003           05161                           TC       SETNCADR                              #  ECADR INTO NOUNCADR. SETS EB, NOUNADD.
001611: 05,3004           00006                           EXTEND                                         #  C(NOUNADD) IN A UPON RETURN
001612: 05,3005           60103                           SU       DECOUNT                               #  PLACE (ESUBK)-K INTO NOUNADD
001613: 05,3006           54131                           TS       NOUNADD
001614:


001616: 05,3007           10265                           CCS      DECBRNCH
001617: 05,3010           03051                           TC       PUTDECSF                              #  +  DEC
001618: 05,3011           02721                           TC       SFRUTMIX                              #  +0  OCTAL
001619: 05,3012           02236                           TC       DPTEST
001620: 05,3013           03040                           TC       PUTCOM2                               #  NO DP
001621:                                                                                                  #  TEST FOR DP SCALE FOR OCT LOAD. IF SO,
001622:                                                                                                  #  +0 INTO MAJOR PART. SET NOUNADD FOR
001623:                                                                                                  #  LOADING OCTAL WORD INTO MINOR PART.
001624: 05,3014           24131        PUTDPCOM           INCR     NOUNADD                               #  DP  (ESUBK)-K+1  OR  E+1
001625: 05,3015           30131                           CA       NOUNADD                               #  NOUNADD NOW SET FOR MINOR PART
001626: 05,3016           26103                           ADS      DECOUNT                               #  (ESUBK)+1  OR  E+1  INTO DECOUNT
001627: 05,3017           37665                           CAF      ZERO                                  #  NOUNADD SET FOR MINOR PART
001628: 05,3020           50103                           INDEX    DECOUNT
001629: 05,3021           53777                           TS       0          -1                         #  ZERO MAJOR PART(ESUBK OR E)
001630: 05,3022           03040                           TC       PUTCOM2
001631:
001632: 05,3023           05167        PUTNORM            TC       SETNADD                               #  ECADR FROM NOUNCADR. SETS EB, NOUNADD.
001633: 05,3024           10265                           CCS      DECBRNCH
001634: 05,3025           03051                           TC       PUTDECSF                              #  +  DEC
001635: 05,3026           02713                           TC       SFRUTNOR                              #  +0  OCTAL
001636: 05,3027           02236                           TC       DPTEST
001637: 05,3030           03034                           TC       PUTCOM2    -4                         #  NO DP
001638: 05,3031           37665                           CAF      ZERO                                  #  DP
001639: 05,3032           54103                           TS       DECOUNT
001640: 05,3033           03014                           TC       PUTDPCOM
001641:
001642: 05,3034           30132                           CA       NNADTEM
001643: 05,3035           67657                           AD       ONE                                   #  IF NNADTEM = -1, CHANNEL TO BE SPECIFIED
001644: 05,3036           00006                           EXTEND
001645: 05,3037           13044                           BZF      CHANLOAD
001646: 05,3040           56140        PUTCOM2            XCH      MPAC
001647: 05,3041           00101                           TC       DECRET
001648:
001649: 05,3042     0264                                  EBANK=   DSPCOUNT
001650: 05,3042           02045 34000  GTSFINLC           2CADR    GTSFIN
001651:
001652: 05,3044           56140        CHANLOAD           XCH      MPAC
001653: 05,3045           00006                           EXTEND
001654: 05,3046           50304                           INDEX    NOUNCADR
001655: 05,3047           01000                           WRITE    0
001656: 05,3050           02663                           TC       LOADLV
001657:
001658:
001659:
001660:                                                                                                  #  PUTDECSF FINDS MIXBR AND DECOUNT STILL SET FROM PUTCOM
001661:
001662: 05,3051           02734        PUTDECSF           TC       SFCONUM                               #  2X(SF CON NUMB) IN A
001663: 05,3052           54107                           TS       SFTEMP1
001664:


001666: 05,3053           00006                           EXTEND                                         #  SWITCH BANKS TO SF CONSTANT TABLE
001667: 05,3054           33043                           DCA      GTSFINLC                              #  READING ROUTINE.
001668: 05,3055           52006                           DXCH     Z                                     #  LOADS SFTEMP1, SFTEMP2.
001669: 05,3056           50124                           INDEX    MIXBR
001670: 05,3057           03057                           TC       +0
001671: 05,3060           03063                           TC       PUTSFNOR
001672: 05,3061           02721                           TC       SFRUTMIX
001673: 05,3062           03064                           TC       PUTDCSF2
001674: 05,3063           02713        PUTSFNOR           TC       SFRUTNOR
001675:
001676: 05,3064           50000        PUTDCSF2           INDEX    A
001677: 05,3065           33067                           CAF      SFINTABR
001678: 05,3066           04105                           TC       BANKJUMP                              #  SWITCH BANKS FOR EXPANSHION ROOM
001679: 05,3067           11277        SFINTABR           CADR     DSPALARM                              #  ALARM IF DEC LOAD WITH OCTAL ONLY NOUN
001680:
001681: 05,3070           11003                           CADR     BINROUND
001682: 05,3071           10723                           CADR     DEGINSF
001683: 05,3072           10773                           CADR     ARTHINSF
001684: 05,3073           11023                           CADR     DPINSF
001685: 05,3074           11050                           CADR     DPINSF2
001686: 05,3075           11006                           CADR     OPTDEGIN
001687: 05,3076           11023                           CADR     DPINSF                                #  SAME AS ARITHDP1
001688: 05,3077                        ENDRUTIN           EQUALS
001689:
001690:
001691:
001692:                                                                                                  #  SCALE FACTORS FOR THOSE ROUTINES NEEDING THEM ARE AVAILABLE IN SFTEMP1.
001693:                                                                                                  #  ALL SFIN ROUTINES USE MPAC MPAC+1. LEAVE RESULT IN A. END WITH TC DECRET
001694:
001695:
001696:
001697: 04,2723                                           SETLOC   ENDDPDEC   +1
001698:
001699:                                                                                                  #  DEGINSF APPLIES 1000/180 = 5.55555(10) = 5.43434(8)
001700:
001701: 04,2723           07063        DEGINSF            TC       DMP                                   #  SF ROUTINE FOR DEC DEGREES
001702: 04,2724           02766                           ADRES    DEGCON1                               #  MULT BY 5.5 5(10)X2EXP-3
001703: 04,2725           10141                           CCS      MPAC       +1                         #  THIS ROUNDS OFF MPAC+1 BEFORE SHIFT
001704: 04,2726           37645                           CAF      BIT11                                 #  LEFT 3, AND CAUSES 360.00 TO OF/UF
001705: 04,2727           02731                           TC       +2                                    #  WHEN SHIFTED LEFT AND ALARM.
001706: 04,2730           47645                           CS       BIT11
001707: 04,2731           60141                           AD       MPAC       +1
001708: 04,2732           03066                           TC       2ROUND     +2
001709: 04,2733           05263                           TC       TPSL1                                 #  LEFT 1
001710: 04,2734           05263        DEGINSF2           TC       TPSL1                                 #  LEFT 2
001711: 04,2735           03075                           TC       TESTOFUF
001712: 04,2736           05263                           TC       TPSL1                                 #  RETURNS IF NO OF/UF (LEFT3)
001713: 04,2737           10140                           CCS      MPAC
001714: 04,2740           02744                           TC       SIGNFIX                               #  IF +, GO TO SIGNFIX
001715: 04,2741           02744                           TC       SIGNFIX                               #  IF +0, GO TO SIGNFIX
001716: 04,2742           40000                           COM                                            #  IF -, USE -MAGNITUDE +1
001717:


001719: 04,2743           54140                           TS       MPAC                                  #  IF -0, USE +0
001720: 04,2744           10105        SIGNFIX            CCS      OVFIND
001721: 04,2745           02762                           TC       SGNTO1                                #  IF OVERFLOW
001722: 04,2746           02756                           TC       ENDSCALE                              #  NO OVERFLOW/UNDERFLOW
001723: 04,2747           10140                           CCS      MPAC                                  #  IF UF FORCE SIGN TO 0 EXCEPT -180
001724: 04,2750           05464                           TC       CCSHOLE
001725: 04,2751           02760                           TC       NEG180
001726: 04,2752           02753                           TC       +1
001727: 04,2753           56140                           XCH      MPAC
001728: 04,2754           77637                           MASK     POSMAX
001729: 04,2755           54140                           TS       MPAC
001730: 04,2756           04102        ENDSCALE           TC       POSTJUMP
001731: 04,2757           13040                           CADR     PUTCOM2
001732:
001733: 04,2760           47637        NEG180             CS       POSMAX
001734: 04,2761           02755                           TC       ENDSCALE   -1
001735:
001736: 04,2762           40140        SGNTO1             CS       MPAC                                  #  IF OF FORCE SIGN TO 1
001737: 04,2763           77637                           MASK     POSMAX
001738: 04,2764           40000                           CS       A
001739: 04,2765           02755                           TC       ENDSCALE   -1
001740:
001741: 04,2766           26161 30707  DEGCON1            2DEC     5.555555555 B-3
001742:
001743: 04,2770           21616 07071  DEGCON2            2DEC     2.222222222 B-2
001744:
001745: 04,2772           71527        NEG.2              OCT      -06250                                #  = .197753906  I.E. THE BIAS SCALED
001746:
001747: 04,2773           07063        ARTHINSF           TC       DMP                                   #  SCALES MPAC, +1 BY SFTEMP1, SFTEMP2.
001748: 04,2774           00107                           ADRES    SFTEMP1                               #  ASSUMES POINT BETWEEN HI AND LO PARTS
001749: 04,2775           56142                           XCH      MPAC       +2                         #  OF SFCON. SHIFTS RESULTS LEFT BY 14.
001750: 04,2776           56141                           XCH      MPAC       +1                         #  (BY TAKING RESULTS FROM MPAC+1, MPAC+2)
001751: 04,2777           56140                           XCH      MPAC
001752: 04,3000           00006                           EXTEND
001753: 04,3001           13003                           BZF      BINROUND
001754: 04,3002           03277                           TC       DSPALARM                              #  TOO LARGE A LOAD
001755: 04,3003           03064        BINROUND           TC       2ROUND
001756: 04,3004           03075                           TC       TESTOFUF
001757: 04,3005           02756                           TC       ENDSCALE                              #  RETURNS IF NO OF/UF
001758:
001759:
001760:
001761: 04,3006           10140        OPTDEGIN           CCS      MPAC                                  #  OPTICS SCALING ROUTINE
001762: 04,3007           03013                           TC       +4
001763: 04,3010           03013                           TC       +3
001764: 04,3011           03277                           TC       DSPALARM                              #  REJECT NEGATIVE INPUT
001765: 04,3012           03277                           TC       DSPALARM                              #          DITTO
001766: 04,3013           32772        OPDEGIN2           CAF      NEG.2                                 #  RANGE IS 90 DEG
001767: 04,3014           26140                           ADS      MPAC                                  #  SUBTRACT BIAS
001768: 04,3015           07063                           TC       DMP                                   #  MULT BY 100 / 45  B-2
001769:


001771: 04,3016           02770                           ADRES    DEGCON2
001772: 04,3017           37644                           CAF      BIT12                                 #  ROUND AS IN DEGINSF
001773: 04,3020           60141                           AD       MPAC       +1
001774: 04,3021           03066                           TC       2ROUND     +2
001775: 04,3022           02734                           TC       DEGINSF2
001776:
001777: 04,3023           07063        DPINSF             TC       DMP                                   #  SCALES MPAC, MPAC +1 BY SFTEMP1,
001778: 04,3024           00107                           ADRES    SFTEMP1                               #  SFTEMP2.  STORES LOW PART OF RESULT
001779: 04,3025           56142                           XCH      MPAC       +2                         #  IN (E SUBK) +1 OR E+1
001780: 04,3026           60000                           DOUBLE
001781: 04,3027           54142                           TS       MPAC       +2
001782: 04,3030           37665                           CAF      ZERO
001783: 04,3031           60141                           AD       MPAC       +1
001784: 04,3032           03066                           TC       2ROUND     +2
001785: 04,3033           03075                           TC       TESTOFUF
001786: 04,3034           50124                           INDEX    MIXBR                                 #  RETURNS IF NO OF/UF
001787: 04,3035           03035                           TC       +0
001788: 04,3036           03046                           TC       DPINORM
001789: 04,3037           30103                           CA       DECOUNT                               #  MIXEDNOUN
001790: 04,3040           60131        DPINCOM            AD       NOUNADD                               #      MIXED                NORMAL
001791: 04,3041           54002                           TS       Q                                     #    E SUBK             E
001792: 04,3042           56141                           XCH      MPAC       +1
001793: 04,3043           50002                           INDEX    Q
001794: 04,3044           54001                           TS       1                                     #  PLACE LOW PART IN
001795: 04,3045           02756                           TC       ENDSCALE                              #  (E SUBK) +1    MIXED
001796: 04,3046           37665        DPINORM            CAF      ZERO                                  #  E +1         NORMAL
001797: 04,3047           03040                           TC       DPINCOM
001798:
001799:
001800:
001801: 04,3050           07063        DPINSF2            TC       DMP                                   #  ASSUMES POINT BETWEEN BITS 7-8 OF HIGH
001802: 04,3051           00107                           ADRES    SFTEMP1                               #  PART OF SF CONST. DPINSF2 SHIFTS RESULTS
001803: 04,3052           03054                           TC       TPLEFT7                               #  LEFT BY 7, ROUNDS MPAC+2 INTO MPAC+1.
001804: 04,3053           03025                           TC       DPINSF     +2
001805:
001806:
001807:
001808: 04,3054           56002        TPLEFT7            XCH      Q                                     #  OPERATES ON MPAC, MPAC+1, MPAC+2
001809: 04,3055           54110                           TS       SFTEMP2                               #  CANT USE L FOR RETURN. TPSL1 USES L.
001810: 04,3056           36162                           CAF      SIX                                   #  LEFT BY 7
001811: 04,3057           54107        LEFT7COM           TS       SFTEMP1
001812: 04,3060           05263                           TC       TPSL1
001813: 04,3061           10107                           CCS      SFTEMP1
001814: 04,3062           03057                           TC       LEFT7COM
001815: 04,3063           00110                           TC       SFTEMP2
001816:
001817: 04,3064           56141        2ROUND             XCH      MPAC       +1
001818: 04,3065           60000                           DOUBLE
001819:


001821: 04,3066           54141                           TS       MPAC       +1
001822: 04,3067           00002                           TC       Q                                     #  IF MPAC+1 DOES NOT OF/UF
001823: 04,3070           60140                           AD       MPAC
001824: 04,3071           54140                           TS       MPAC
001825: 04,3072           00002                           TC       Q                                     #  IF MPAC DOES NOT OF/UF
001826: 04,3073           54105                           TS       OVFIND
001827: 04,3074           00002        2RNDEND            TC       Q
001828:
001829:
001830:
001831: 04,3075           10105        TESTOFUF           CCS      OVFIND                                #  RETURNS IF NO OF/UF
001832: 04,3076           03277                           TC       DSPALARM                              #  OF
001833: 04,3077           00002                           TC       Q
001834: 04,3100           03277                           TC       DSPALARM                              #  UF
001835:


001837:                                                                                                  #  MONITOR ALLOWS OTHER KEYBOARD ACTIVITY. IT IS ENDED BY VERB TERMINATE,
001838:                                                                                                  #  ANY NVSUB CALL THAT PASSES THE DSPLOCK, OR ANOTHER MONITOR.
001839:
001840:                                                                                                  #  MONITOR ACTION IS SUSPENDED, BUT NOT ENDED, BY ANY KEYBOARD ACTION,
001841:                                                                                                  #  EXCEPT ERROR LIGHT RESET. IT BEGINS AGAIN WHEN KEY RELEASE IS PERFORMED.
001842:                                                                                                  #  MONITOR SAVES THE NOUN AND APPROPRIATE DISPLAY VERB IN MONSAVE. IT SAVES
001843:                                                                                                  #  NOUNCADR IN MONSAVE1, IF NOUN = MACHINE CADR TO BE SPECIFIED. BIT 15 OF
001844:                                                                                                  #  MONSAVE1 IS THE KILL MONITOR SIGNAL (KILLER BIT).
001845:
001846:                                                                                                  #  MONSAVE INDICATES IF MONITOR IS ON (+=ON, +0=OFF)
001847:                                                                                                  #  IF MONSAVE IS +, MONITOR ENTERS NO REQUEST, BUT TURNS KILLER BIT OFF.
001848:                                                                                                  #  IF MONSAVE IS +0, MONITOR ENTERS REQUEST AND TURNS KILLER BIT OFF.
001849:
001850:                                                                                                  #  NVSUB  AND VB=TERMINATE TURN KILL MONITOR BIT ON.
001851:
001852:                                                                                                  #  IF KILLER BIT IS ON, MONREQ ENTERS NO FURTHER REQUESTS, ZEROS MONSAVE
001853:                                                                                                  #  AND MONSAVE1 (TURNING OFF KILLER BIT).
001854:
001855:                                                                                                  #  MONITOR DOSENT TEST FOR MATBS SINCE NVSUB CAN HANDLE INTERNAL MATBS NOW
001856: 05,3077                                           SETLOC   ENDRUTIN
001857:
001858: 05,3077           47641        MONITOR            CS       BIT15
001859: 05,3100           70304                           MASK     NOUNCADR
001860: 05,3101           54141        MONIT1             TS       MPAC       +1                         #  TEMP STORAGE
001861: 05,3102           33401                           CAF      LOW6
001862: 05,3103           70266                           MASK     VERBREG
001863: 05,3104           05207                           TC       LEFT5
001864: 05,3105           54022                           TS       CYL
001865: 05,3106           56022                           XCH      CYL
001866: 05,3107           60267                           AD       NOUNREG
001867: 05,3110           54140                           TS       MPAC                                  #  TEMP STORAGE
001868: 05,3111           40324                           CS       GRABLOCK                              #  NEITHER CASE SEARCHES LIST.
001869: 05,3112           67656                           AD       TWO
001870: 05,3113           10000                           CCS      A
001871: 05,3114           05364                           TC       RELDSP1                               #  GRABLOCK=0,1, +0 INTO DSPLOCK AND
001872: 05,3115           03121                           TC       +4                                    #  TURN OFF KEY RLSE LIGHT.
001873: 05,3116           05464                           TC       CCSHOLE
001874: 05,3117           37665                           CAF      ZERO                                  #  GRABLOCK=2, +0 INTO DSPLOCK AND
001875: 05,3120           54277                           TS       DSPLOCK                               #  LEAVE KEY RLSE LIGHT ALONE
001876: 05,3121           00004                           INHINT
001877: 05,3122           10305                           CCS      MONSAVE
001878: 05,3123           03130                           TC       +5                                    #  IF MONSAVE WAS +, NO REQUEST
001879: 05,3124           37657                           CAF      ONE                                   #  IF MONSAVE WAS 0, REQUEST MONREQ
001880: 05,3125           04536                           TC       WAITLIST
001881: 05,3126     0264                                  EBANK=   DSPCOUNT
001882: 05,3126           03134 12000                     2CADR    MONREQ
001883:
001884: 05,3130           52141                           DXCH     MPAC                                  #  PLACE MONITOR VERB AND NOUN INTO MONSAVE
001885:


001887: 05,3131           52306                           DXCH     MONSAVE                               #  ZERO THE KILL MONITOR BIT
001888: 05,3132           00003                           RELINT
001889: 05,3133           00122                           TC       ENTRET
001890:
001891:
001892:
001893: 05,3134           05257        MONREQ             TC       LODSAMPT                              #  CALLED BY WAITLIST
001894: 05,3135           10306                           CCS      MONSAVE1                              #  TIME IS SNATCHED IN RUPT FOR NOUN 65
001895: 05,3136           03142                           TC       +4                                    #  IF KILLER BIT = 0, ENTER REQUESTS
001896: 05,3137           03142                           TC       +3                                    #  IF KILLER BIT = 0, ENTER REQUESTS
001897: 05,3140           03153                           TC       KILLMON                               #  IF KILLER BIT = 1, NO REQUESTS
001898: 05,3141           03153                           TC       KILLMON                               #  IF KILLER BIT = 1, NO REQUESTS
001899: 05,3142           33157                           CAF      MONDEL
001900: 05,3143           04536                           TC       WAITLIST                              #  ENTER WAITLIST REQUEST FOR MONREQ
001901: 05,3144     0264                                  EBANK=   DSPCOUNT
001902: 05,3144           03134 12000                     2CADR    MONREQ
001903: 05,3146           35233                           CAF      CHRPRIO
001904: 05,3147           04363                           TC       NOVAC                                 #  ENTER EXEC REQUEST FOR MONDO
001905: 05,3150     0264                                  EBANK=   DSPCOUNT
001906: 05,3150           03160 12000                     2CADR    MONDO
001907:
001908: 05,3152           04602                           TC       TASKOVER
001909:
001910: 05,3153           37665        KILLMON            CAF      ZERO                                  #  ZERO MONSAVE AND TURN KILLER BIT OFF
001911: 05,3154           54305                           TS       MONSAVE
001912: 05,3155           54306                           TS       MONSAVE1                              #  TURN OFF KILL MONITOR BIT.
001913: 05,3156           04602                           TC       TASKOVER
001914:
001915:
001916:
001917: 05,3157           00144        MONDEL             OCT      144                                   #  FOR 1 SEC MONITOR INTERVALS
001918:
001919:
001920:
001921: 05,3160           10306        MONDO              CCS      MONSAVE1                              #  CALLED BY EXEC
001922: 05,3161           03165                           TC       +4                                    #  IF KILLER BIT = 0, CONTINUE
001923: 05,3162           03165                           TC       +3                                    #  IF KILLER BIT = 0, CONTINUE
001924: 05,3163           04440                           TC       ENDOFJOB                              #  IN CASE TERMINATE CAME SINCE LAST MONREQ
001925: 05,3164           04440                           TC       ENDOFJOB                              #  IN CASE TERMINATE CAME SINCE LAST MONREQ
001926: 05,3165           10277                           CCS      DSPLOCK
001927: 05,3166           03212                           TC       MONBUSY                               #  NVSUB IS BUSY
001928: 05,3167           33401                           CAF      LOW6                                  #  NVSUB IS AVAILABLE
001929: 05,3170           70305                           MASK     MONSAVE
001930: 05,3171           54107                           TS       NVTEMP
001931: 05,3172           05123                           TC       NVSUBMON                              #  PLACE NOUN INTO NOUNREG AND DISPLAY IT
001932: 05,3173           04440                           TC       ENDOFJOB                              #  IN CASE OF ALARM DURING DISPLAY
001933: 05,3174           33210                           CAF      MONMASK
001934: 05,3175           70305                           MASK     MONSAVE                               #  CHANGE MONITOR VERB TO DISPLAY VERB
001935: 05,3176           05200                           TC       RIGHT5
001936:


001938: 05,3177           54020                           TS       CYR
001939: 05,3200           56020                           XCH      CYR
001940: 05,3201           54266                           TS       VERBREG
001941: 05,3202           33211                           CAF      MONBACK                               #  SET RETURN TO PASTEVB AFTER DATA DISPLAY
001942: 05,3203           54122                           TS       ENTRET
001943: 05,3204           47641                           CS       BIT15
001944: 05,3205           70306                           MASK     MONSAVE1                              #  PUT ECADR INTO MPAC +2.  INTMCTBS WILL
001945: 05,3206           54142                           TS       MPAC       +2                         #  DISPLAY IT AND SET NOUNCADR, NOUNADD,
001946: 05,3207           02037        ENDMONDO           TC       TESTNN                                #  EBANK.
001947:
001948:    5100                                           SETLOC   ENDRMODF
001949:
001950:    5100           35106        PASTEVB            CAF      MIDSIX
001951:    5101           70305                           MASK     MONSAVE
001952:    5102           54107                           TS       NVTEMP                                #  PLACE MONITOR VERB INTO VERBREG AND
001953:    5103           05123                           TC       NVSUBMON                              #       DISPLAY IT.
001954:    5104           05105                           TC       +1                                    #  IN CASE OF ALARM DURING DISPLAY
001955:    5105           04440        ENDPASTE           TC       ENDOFJOB
001956:
001957:    5106           07700        MIDSIX             OCT      07700
001958:
001959:
001960:
001961: 05,3210                                           SETLOC   ENDMONDO   +1
001962: 05,3210           00700        MONMASK            OCT      700
001963: 05,3211           05100        MONBACK            ADRES    PASTEVB
001964:
001965: 05,3212           05253        MONBUSY            TC       RELDSPON                              #  TURN KEY RELEASE LIGHT
001966: 05,3213           04440                           TC       ENDOFJOB
001967:
001968:
001969:
001970:                                                                                                  #  DSPFMEM IS USED TO DISPLAY (IN OCTAL) ANY FIXED REGISTER.
001971:                                                                                                  #  IT IS USED WITH NOUN = MACHINE CADR TO BE SPECIFIED. THE FCADR OF THE
001972:                                                                                                  #  DESIRED LOCATION IS THEN PUNCHED IN. IT HANDLES F/F ( FCADR 4000-7777)
001973:
001974: 05,3214           35175        DSPFMEM            CAF      R1D1                                  #  IF F/F, DATACALL USES BANK 02 OR 03.
001975: 05,3215           54264                           TS       DSPCOUNT
001976: 05,3216           30304                           CA       NOUNCADR                              #  ORIGINAL FCADR LOADED STILL IN NOUNCADR.
001977: 05,3217           04116                           TC       DATACALL
001978: 05,3220           03222                           TC       DSPOCTWD
001979: 05,3221           04440        ENDSPF             TC       ENDOFJOB
001980:


001982:                                                                                                  #   DSPDECWD CONVERTS C(MPAC) AND C(MPAC+1) TO A SIGN AND 5 CHAR DECIMAL
001983:                                                                                                  #  STARTING IN LOC SPECIFIED IN DSPCOUNT
001984:
001985: 04,3101                                           SETLOC   TESTOFUF   +4
001986: 04,3101           56002        DSPDECWD           XCH      Q                                     #  USES SHORTMP THROUGHOUT
001987: 04,3102           54101                           TS       WDRET                                 #  CANT USE L FOR RETURN.+ON USES L.
001988: 04,3103           10140                           CCS      MPAC
001989: 04,3104           03113                           TC       +7
001990: 04,3105           03113                           TC       +6
001991: 04,3106           67657                           AD       ONE
001992: 04,3107           54140                           TS       MPAC
001993: 04,3110           02313                           TC       -ON
001994: 04,3111           40141                           CS       MPAC       +1
001995: 04,3112           03115                           TC       +3
001996: 04,3113           02273                           TC       +ON
001997: 04,3114           56141                           XCH      MPAC       +1
001998: 04,3115           63154                           AD       DECROUND
001999: 04,3116           54141                           TS       MPAC       +1
002000: 04,3117           37665                           CAF      ZERO
002001: 04,3120           60140                           AD       MPAC
002002: 04,3121           54140                           TS       MPAC
002003: 04,3122           03126                           TC       +4
002004: 04,3123           37637                           CAF      POSMAX
002005: 04,3124           54140                           TS       MPAC
002006: 04,3125           54141                           TS       MPAC       +1
002007: 04,3126           37655                           CAF      FOUR
002008: 04,3127           54123        DSPDCWD1           TS       WDCNT
002009: 04,3130           35242                           CAF      BINCON
002010: 04,3131           07266                           TC       SHORTMP
002011: 04,3132           50140        TRACE1             INDEX    MPAC
002012: 04,3133           34741                           CAF      RELTAB
002013: 04,3134           75224                           MASK     LOW5
002014: 04,3135           54110                           TS       CODE
002015: 04,3136           37665                           CAF      ZERO
002016: 04,3137           56142                           XCH      MPAC       +2
002017: 04,3140           56141                           XCH      MPAC       +1
002018: 04,3141           54140                           TS       MPAC
002019: 04,3142           56264                           XCH      DSPCOUNT
002020: 04,3143           54127        TRACE1S            TS       COUNT
002021: 04,3144           10000                           CCS      A                                     #  DECREMENT DSPCOUNT EXCEPT AT +0
002022: 04,3145           54264                           TS       DSPCOUNT
002023: 04,3146           03201                           TC       DSPIN
002024: 04,3147           10123                           CCS      WDCNT
002025: 04,3150           03127                           TC       DSPDCWD1
002026: 04,3151           45237                           CS       VD1
002027: 04,3152           54264                           TS       DSPCOUNT
002028: 04,3153           00101                           TC       WDRET
002029:
002030: 04,3154           02476        DECROUND           OCT      02476
002031:


002033:                                                                                                  #  DSP2DEC CONVERTS C(MPAC) AND C(MPAC+1) INTO A SIGN AND 10 CHAR DECIMAL
002034:                                                                                                  #  STARTING IN THE LOC SPECIFIED IN DSPCOUNT.
002035:
002036: 04,3155           56002        DSP2DEC            XCH      Q                                     #  MUST USE SAME RETURN AS DSPDECWD
002037: 04,3156           54101                           TS       WDRET
002038: 04,3157           37665                           CAF      ZERO
002039: 04,3160           54110                           TS       CODE
002040: 04,3161           36165                           CAF      THREE
002041: 04,3162           03263                           TC       11DSPIN                               #  -R2 OFF
002042: 04,3163           37655                           CAF      FOUR
002043: 04,3164           03263                           TC       11DSPIN                               #  +R2 OFF
002044: 04,3165           10140                           CCS      MPAC
002045: 04,3166           03176                           TC       +8D
002046: 04,3167           03176                           TC       +7
002047: 04,3170           67657                           AD       ONE
002048: 04,3171           54140                           TS       MPAC
002049: 04,3172           02313                           TC       -ON
002050: 04,3173           40141                           CS       MPAC       +1
002051: 04,3174           54141                           TS       MPAC       +1
002052: 04,3175           03177                           TC       +2
002053: 04,3176           02273                           TC       +ON
002054: 04,3177           35176                           CAF      R2D1
002055: 04,3200           03127        END2DEC            TC       DSPDCWD1
002056:
002057:
002058:
002059: 05,3222                                           SETLOC   DSPFMEM    +6
002060:                                                                                                  #  DSPOCTWD DISPLAYS C(A) UPON ENTRY AS A 5 CHAR OCT STARTING IN THE DSP
002061:                                                                                                  #  CHAR SPECIFIED IN DSPCOUNT. IT STOPS AFTER 5 CHAR HAVE BEEN DISPLAYED.
002062:
002063: 05,3222           54022        DSPOCTWD           TS       CYL
002064: 05,3223           56002                           XCH      Q
002065: 05,3224           54101                           TS       WDRET                                 #  MUST USE SAME RETURN AS DSP2BIT.
002066: 05,3225           37642                           CAF      BIT14                                 #  TO BLANK SIGNS
002067: 05,3226           26264                           ADS      DSPCOUNT
002068: 05,3227           37655                           CAF      FOUR
002069: 05,3230           54123        WDAGAIN            TS       WDCNT
002070: 05,3231           40022                           CS       CYL
002071: 05,3232           40022                           CS       CYL
002072: 05,3233           40022                           CS       CYL
002073: 05,3234           40000                           CS       A
002074: 05,3235           77663                           MASK     DSPMSK
002075: 05,3236           50000                           INDEX    A
002076: 05,3237           34741                           CAF      RELTAB
002077: 05,3240           75224                           MASK     LOW5
002078: 05,3241           54110                           TS       CODE
002079: 05,3242           56264                           XCH      DSPCOUNT
002080: 05,3243           54127                           TS       COUNT
002081: 05,3244           10000                           CCS      A                                     #  DECREMENT DSPCOUNT EXCEPT AT +0
002082: 05,3245           54264                           TS       DSPCOUNT
002083:


002085: 05,3246           04102                           TC       POSTJUMP
002086: 05,3247           11271                           CADR     DSPOCTIN
002087: 05,3250           10123        OCTBACK            CCS      WDCNT
002088: 05,3251           03230                           TC       WDAGAIN                               #  +
002089: 05,3252           45237        DSPLV              CS       VD1                                   #  TO BLOCK NUMERICAL CHARACTERS, CLEARS,
002090: 05,3253           54264                           TS       DSPCOUNT                              #  AND SIGNS AFTER A COMPLETED DISPLAY.
002091: 05,3254           00101                           TC       WDRET
002092:
002093: 05,3255     7663               DSPMSK             =        SEVEN
002094:
002095:
002096:
002097:                                                                                                  #  DSP2BIT DISPLAYS C(A) UPON ENTRY AS A 2 CHAR OCT BEGINNING IN THE DSP
002098:                                                                                                  #  LOC SPECIFIED IN DSPCOUNT BY PRE CYCLING RIGHT C(A) AND USING THE LOGIC
002099:                                                                                                  #  OF THE 5 CHAR OCTAL DISPLAY
002100:
002101: 05,3255           54020        DSP2BIT            TS       CYR
002102: 05,3256           56002                           XCH      Q
002103: 05,3257           54101                           TS       WDRET                                 #  CANT USE L AS RETURN. UPDATNN USES L.
002104: 05,3260           37657                           CAF      ONE
002105: 05,3261           54123                           TS       WDCNT
002106: 05,3262           40020                           CS       CYR
002107: 05,3263           40020                           CS       CYR
002108: 05,3264           56020                           XCH      CYR
002109: 05,3265           54022                           TS       CYL
002110: 05,3266           03235                           TC       WDAGAIN    +5
002111:
002112:
002113:
002114:                                                                                                  #  FOR DSPIN PLACE 0/25 OCT INTO COUNT, 5 BIT RELAY CODE INTO CODE. BOTH
002115:                                                                                                  #  ARE DESTROYED. IF BIT14 OF COUNT IS 1, SIGN IS BLANKED WITH LEFT CHAR.
002116:                                                                                                  #  FOR DSPIN1 PLACE 0,1 INTO BIT11 OF CODE, 2 INTO COUNT, REL ADDRESS OF
002117:                                                                                                  #  DSPTAB ENTRY INTO DSREL.
002118:
002119: 04,3201                                           SETLOC   END2DEC    +1
002120:
002121: 04,3201           56002        DSPIN              XCH      Q                                     #  CANT USE L FOR RETURN, SINCE MANY OF THE
002122: 04,3202           54100                           TS       DSEXIT                                #  ROUTINES CALLING DSPIN USE L AS RETURN.
002123: 04,3203           35224                           CAF      LOW5
002124: 04,3204           70127                           MASK     COUNT
002125: 04,3205           54021                           TS       SR
002126: 04,3206           56021                           XCH      SR
002127: 04,3207           54125                           TS       DSREL
002128: 04,3210           37657                           CAF      BIT1
002129: 04,3211           70127                           MASK     COUNT
002130: 04,3212           10000                           CCS      A
002131: 04,3213           03215                           TC       +2                                    #  LEFT IF COUNT IS ODD
002132: 04,3214           03225                           TC       DSPIN1     -1                         #  RIGHT IF COUNT IS EVEN
002133: 04,3215           56110                           XCH      CODE
002134: 04,3216           05216                           TC       SLEFT5                                #  DOES NOT USE CYL
002135:


002137: 04,3217           54110                           TS       CODE
002138: 04,3220           37642                           CAF      BIT14
002139: 04,3221           70127                           MASK     COUNT
002140: 04,3222           10000                           CCS      A
002141: 04,3223           37656                           CAF      TWO                                   #  BIT14 = 1, BLANK SIGN
002142: 04,3224           67657                           AD       ONE                                   #  BIT14 = 0, LEAVE SIGN ALONE
002143: 04,3225           54127                           TS       COUNT                                 #  +0 INTO COUNT FOR RIGHT
002144:                                                                                                  #  +1 INTO COUNT FOR LEFT (SIGN LEFT ALONE)
002145:                                                                                                  #  +3 INTO COUNT FOR LEFT (TO BLANK SIGN)
002146: 04,3226           00004        DSPIN1             INHINT
002147: 04,3227           50125                           INDEX    DSREL
002148: 04,3230           10307                           CCS      DSPTAB
002149: 04,3231           03233                           TC       +2                                    #  IF +
002150: 04,3232           05464                           TC       CCSHOLE
002151: 04,3233           67657                           AD       ONE                                   #  IF -
002152: 04,3234           54126                           TS       DSMAG
002153: 04,3235           50127                           INDEX    COUNT
002154: 04,3236           73257                           MASK     DSMSK
002155: 04,3237           00006                           EXTEND
002156: 04,3240           60110                           SU       CODE
002157: 04,3241           00006                           EXTEND
002158: 04,3242           13255                           BZF      DSLV                                  #  SAME
002159: 04,3243           50127        DFRNT              INDEX    COUNT
002160: 04,3244           43257                           CS       DSMSK                                 #  MASK WITH 77740,76037, OR 75777
002161: 04,3245           70126                           MASK     DSMAG
002162: 04,3246           60110                           AD       CODE
002163: 04,3247           40000                           CS       A
002164: 04,3250           50125                           INDEX    DSREL
002165: 04,3251           56307                           XCH      DSPTAB
002166: 04,3252           00006                           EXTEND
002167: 04,3253           63255                           BZMF     DSLV                                  #  DSPTAB ENTRY WAS -
002168: 04,3254           24303                           INCR     NOUT                                  #  DSPTAB ENTRY WAS +
002169: 04,3255           00003        DSLV               RELINT
002170: 04,3256           00100                           TC       DSEXIT
002171:
002172: 04,3257           00037        DSMSK              OCT      37
002173: 04,3260           01740                           OCT      1740
002174: 04,3261           02000                           OCT      2000
002175: 04,3262           03740                           OCT      3740
002176:
002177:
002178:
002179:                                                                                                  #  FOR 11DSPIN, PUT REL ADDRESSS OF DSPTAB ENTRY INTO A, 1 IN BIT11 OR 0 IN
002180:                                                                                                  #  BIT11 OF CODE.
002181:
002182: 04,3263           54125        11DSPIN            TS       DSREL
002183: 04,3264           37656                           CAF      TWO
002184: 04,3265           54127                           TS       COUNT
002185: 04,3266           56002                           XCH      Q                                     #  MUST USE SAME RETURN AS DSPIN
002186: 04,3267           54100                           TS       DSEXIT
002187:


002189: 04,3270           03226                           TC       DSPIN1
002190:
002191:
002192:
002193: 04,3271           03201        DSPOCTIN           TC       DSPIN                                 #  SO DSPOCTWD DOESNT USE SWCALL
002194: 04,3272           33274                           CAF      +2
002195: 04,3273           04105                           TC       BANKJUMP
002196: 04,3274           13250        ENDSPOCT           CADR     OCTBACK
002197:
002198:
002199:
002200:                                                                                                  #  DSPALARM FINDS TC NVSUBEND IN ENTRET FOR NVSUB INITIATED ROUTINES.
002201:                                                                                                  #  ABORT WITH 01501.
002202:                                                                                                  #  DSPALARM FINDS TC ENDOFJOB IN ENTRET FOR KEYBOARD INITIATED ROUTINES.
002203:                                                                                                  #  DO TC ENTRET.
002204:
002205: 04,3275           35150        CHARALRM           CAF      ENDINST                               #  ALARMS WHICH MUST DO ENDOFJOBS COME
002206: 04,3276           54122                           TS       ENTRET                                #  HERE. ALLOWS ENTRET TO BE TEMP ERASABLE
002207:
002208: 04,3277           05243        DSPALARM           TC       FALTON                                #  TURN ON OPERATOR ERROR LIGHT
002209: 04,3300           43307                           CS       NVSBENDL
002210: 04,3301           60122                           AD       ENTEXIT
002211: 04,3302           00006                           EXTEND
002212: 04,3303           13305                           BZF      +2                                    #  NVSUB INITIATED. ABORT
002213: 04,3304           00122                           TC       ENTEXIT                               #  NOT NVSUB INITIATED.
002214: 04,3305           05446                           TC       ABORT
002215: 04,3306           01501                           OCT      01501
002216: 04,3307           05127        NVSBENDL           TC       NVSUBEND
002217:
002218:
002219:
002220:                                                                                                  #  MMCHANG USES NOUN DISPLAY UNTIL ENTER. THEN IT USES MODE DISP.
002221:                                                                                                  #  IT GOES TO MODROUT WITH THE NEW M M CODE IN A, BUT NOT DISPLAYED IN
002222:                                                                                                  #  M M LIGHTS.
002223:
002224: 05,3267                                           SETLOC   DSP2BIT    +10D
002225:
002226: 05,3267           03302        MMCHANG            TC       REQMM
002227: 05,3270           37665                           CAF      ZERO
002228: 05,3271           56267                           XCH      NOUNREG
002229: 05,3272           54140                           TS       MPAC
002230: 05,3273           35240                           CAF      ND1
002231: 05,3274           54264                           TS       DSPCOUNT
002232: 05,3275           04063                           TC       BANKCALL
002233: 05,3276           10541                           CADR     2BLANK
002234: 05,3277           30140                           CA       MPAC
002235: 05,3300           04102                           TC       POSTJUMP
002236: 05,3301           11277                           CADR     MODROUTB                              #  GO THRU STANDARD LOC.
002237:


002239: 05,3302  04,3277               MODROUTB           =        DSPALARM                              #  **FIX LATER**
002240: 05,3302           40002        REQMM              CS       Q
002241: 05,3303           54300                           TS       REQRET
002242: 05,3304           35240                           CAF      ND1
002243: 05,3305           54264                           TS       DSPCOUNT
002244: 05,3306           37665                           CAF      ZERO
002245: 05,3307           54267                           TS       NOUNREG
002246: 05,3310           04063                           TC       BANKCALL
002247: 05,3311           10541                           CADR     2BLANK
002248: 05,3312           05274                           TC       FLASHON
002249: 05,3313           00122                           TC       ENTEXIT
002250:
002251:
002252:
002253:                                                                                                  #  VBRQEXEC ENTERS REQUEST TO EXEC     FOR ANY ADDRESS WITH ANY PRIORITY.
002254:                                                                                                  #  IT DOES ENDOFJOB AFTER ENTERING REQUEST. DISPLAY SYST IS RELEASED.
002255:                                                                                                  #  IT ASSUMES NOUN 26 HAS BEEN PRELOADED WITH
002256:                                                                                                  #  COMPONENT 1  PRIORITY(BITS 10-14) BIT1=0 FOR NOVAC, BIT1=1 FOR FINDVAC.
002257:                                                                                                  #  COMPONENT 2  JOB ADRES (12 BIT )
002258:                                                                                                  #  COMPONENT 3  BBCON
002259:
002260: 05,3314           37657        VBRQEXEC           CAF      BIT1
002261: 05,3315           70333                           MASK     DSPTEM1
002262: 05,3316           10000                           CCS      A
002263: 05,3317           03336                           TC       SETVAC                                #  IF BIT1 = 1, FINDVAC
002264: 05,3320           35227                           CAF      TCNOVAC                               #  IF BIT1 = 0, NOVAC
002265: 05,3321           54140        REQEX1             TS       MPAC                                  #  TC NOVAC OR TC FINDVAC INTO MPAC
002266: 05,3322           47657                           CS       BIT1
002267: 05,3323           70333                           MASK     DSPTEM1
002268: 05,3324           54144                           TS       MPAC       +4                         #  PRIO INTO MPAC+4 AS A TEMP
002269: 05,3325           05341        REQUESTC           TC       RELDSP
002270: 05,3326           35150                           CA       ENDINST
002271: 05,3327           54143                           TS       MPAC       +3                         #  TC ENDOFJOB INTO MPAC+3
002272: 05,3330           00006                           EXTEND
002273: 05,3331           30335                           DCA      DSPTEM1    +1                         #  JOB ADRES INTO MPAC+1
002274: 05,3332           52142                           DXCH     MPAC       +1                         #  BBCON INTO MPAC+2
002275: 05,3333           30144                           CA       MPAC       +4                         #  PRIO IN A
002276: 05,3334           00004                           INHINT
002277: 05,3335           00140                           TC       MPAC
002278:
002279: 05,3336           35232        SETVAC             CAF      TCFINDVC
002280: 05,3337           03321                           TC       REQEX1
002281:
002282:                                                                                                  #  VBRQWAIT ENTERS REQUEST TO WAITLIST FOR ANY ADDRESS WITH ANY DELAY.
002283:                                                                                                  #  IT DOES ENDOFJOB AFTER ENTERING REQUEST.DISPLAY SYST IS RELEASED.
002284:                                                                                                  #  IT ASSUMES NOUN 26 HAS BEEN PRELOADED WITH
002285:                                                                                                  #  COMPONENT 1  DELAY (LOW BITS)
002286:                                                                                                  #  COMPONENT 2  TASK ADRES (12 BIT)
002287:                                                                                                  #  COMPONENT 3  BBCON
002288:


002290: 05,3340           35230        VBRQWAIT           CAF      TCWAIT
002291: 05,3341           54140                           TS       MPAC                                  #  TC WAITLIST INTO MPAC
002292: 05,3342           30333                           CA       DSPTEM1                               #  TIME DELAY
002293: 05,3343           03324        ENDRQWT            TC       REQUESTC   -1
002294:
002295:                                                                                                  #  REQUESTC WILL PUT TASK ADRES INTO MPAC+1, BBCON INTO MPAC+2,
002296:                                                                                                  #  TC ENDOFJOB INTO MPAC+3. IT WILL TAKE TIME DELAY OUT OF MPAC+4 AND
002297:                                                                                                  #  LEAVE IT IN A, INHINT AND TC MPAC.
002298:
002299:
002300:
002301: 04,3310                                           SETLOC   NVSBENDL   +1
002302: 04,3310           37657        VBPROC             CAF      ONE                                   #  PROCEED WITHOUT DATA
002303: 04,3311           54301                           TS       LOADSTAT
002304: 04,3312           05341                           TC       RELDSP
002305: 04,3313           05300                           TC       FLASHOFF
002306: 04,3314           03422                           TC       RECALTST                              #  SEE IF THERE IS ANY RECALL FROM ENDIDLE
002307:
002308:
002309:
002310: 04,3315           05131        VBTERM             TC       KILMONON                              #  TURN ON KILL MONITOR BIT
002311: 04,3316           47657                           CS       ONE
002312: 04,3317           03311                           TC       VBPROC     +1                         #  TERM VERB SETS LOADSTAT NEG
002313:
002314:
002315:
002316:                                                                                                  #  FLASH IS TURNED OFF ONLY BY PROCEED WITHOUT DATA, TERMINATE, END OF LOAD
002317:
002318:
002319:
002320:                                                                                                  #  VBRELDSP TURNS OFF RELEASE DISPLAY SYSTEM LIGHT(AND SEARCHES LIST ONLY
002321:                                                                                                  #  IF THIS LIGHT WAS TURNED ON BY NVSUBUSY), AND TURNS OFF UPACT LIGHT.
002322:
002323: 04,3320           47655        VBRELDSP           CS       BIT3
002324: 04,3321           00006                           EXTEND
002325: 04,3322           03011                           WAND     DSALMOUT                              #  TURN OFF UPACT LIGHT
002326: 04,3323           05341                           TC       RELDSP                                #  SEARCHES LIST
002327: 04,3324           04440                           TC       ENDOFJOB
002328:
002329:
002330:
002331:                                                                                                  #  BUMP SHIFTS WORD DISPLAYED IN R2 TO R3, R1 TO R2. IT BLANKS R1.
002332:
002333: 04,3325           37664        BUMP               CAF      FIVE                                  #  R2D5
002334: 04,3326           54264                           TS       DSPCOUNT
002335: 04,3327           54127                           TS       COUNT
002336: 04,3330           37657                           CAF      ONE                                   #  SHIFT DATA OF R2 TO R3, R1 TO R2
002337: 04,3331           70127                           MASK     COUNT
002338: 04,3332           56127                           XCH      COUNT                                 #  +0 INTO COUNT IF EVEN (RIGHT)
002339: 04,3333           54021                           TS       SR                                    #  +1 INTO COUNT IF ODD (LEFT)
002340:


002342: 04,3334           56021                           XCH      SR                                    #  DSREL IN A
002343: 04,3335           50000                           INDEX    A
002344: 04,3336           10307                           CCS      DSPTAB
002345: 04,3337           03341                           TC       +2
002346: 04,3340           05464                           TC       CCSHOLE
002347: 04,3341           67657                           AD       ONE                                   #  DSMAG IN A
002348: 04,3342           50127                           INDEX    COUNT
002349: 04,3343           73257                           MASK     DSMSK
002350: 04,3344           50127                           INDEX    COUNT
002351: 04,3345           03346                           TC       +1
002352: 04,3346           03350                           TC       +2                                    #  EVEN(RIGHT)  OK
002353: 04,3347           05200                           TC       RIGHT5                                #  ODD(LEFT)  SHIFT RIGHT
002354: 04,3350           54110                           TS       CODE
002355: 04,3351           47664                           CS       FIVE
002356: 04,3352           60264                           AD       DSPCOUNT                              #  DSPCOUNT-5
002357: 04,3353           10000                           CCS      A                                     #  TO PREVENT -0
002358: 04,3354           67657                           AD       ONE
002359: 04,3355           03357                           TC       +2
002360: 04,3356           05464                           TC       CCSHOLE
002361: 04,3357           54127                           TS       COUNT
002362: 04,3360           03201                           TC       DSPIN                                 #  CODE ALREADY IN CODE
002363: 04,3361           40264                           CS       DSPCOUNT
002364: 04,3362           65175                           AD       R1D1                                  #  OCT 16
002365: 04,3363           10000                           CCS      A
002366: 04,3364           56264                           XCH      DSPCOUNT                              #  +, DSPCOUNT L/ OCT 16
002367: 04,3365           67657                           AD       ONE                                   #  INCREMENT DSPCOUNT
002368: 04,3366           03326                           TC       BUMP       +1
002369:
002370: 04,3367           37665        SWSGN              CAF      ZERO                                  #  -0, DSPCOUNT= OCT 16. DO SIGN SHIFT
002371: 04,3370           54264                           TS       DSPCOUNT
002372: 04,3371           63420                           AD       SWTAB      +2                         #  OCT 3
002373: 04,3372           50000                           INDEX    A                                     #  PICKUP ORDER , DSREL=3,4,5,6.
002374: 04,3373           10307                           CCS      DSPTAB                                #                   (-R2,+R2,-R1,+R1)
002375: 04,3374           03376                           TC       +2
002376: 04,3375           05464                           TC       CCSHOLE
002377: 04,3376           67657                           AD       ONE
002378: 04,3377           77645                           MASK     BIT11
002379: 04,3400           54110                           TS       CODE
002380: 04,3401           50264                           INDEX    DSPCOUNT
002381: 04,3402           33416                           CAF      SWTAB                                 #  PUT AWAY ORDER, DSREL= 0,1,3,4.
002382: 04,3403           03263                           TC       11DSPIN                               #                   (-R3,+R3,-R2,+R2.)
002383: 04,3404           40264                           CS       DSPCOUNT
002384: 04,3405           63420                           AD       SWTAB      +2                         #  OCT 3
002385: 04,3406           10000                           CCS      A
002386: 04,3407           56264                           XCH      DSPCOUNT                              #  +, DSPCOUNT L/ 3
002387: 04,3410           67657                           AD       ONE                                   #  INCREMENT DSPCOUNT
002388: 04,3411           03370                           TC       SWSGN      +1
002389: 04,3412           35175                           CAF      R1D1                                  #  -0,       DSPCOUNT = 3
002390: 04,3413           54264                           TS       DSPCOUNT
002391: 04,3414           02476                           TC       5BLANK                                #  BLANKS R1
002392:


002394: 04,3415           00122                           TC       ENTEXIT
002395:
002396: 04,3416           00000        SWTAB              OCT      0                                     #  -R3
002397: 04,3417           00001                           OCT      1                                     #  +R3
002398: 04,3420           00003                           OCT      3                                     #  -R2
002399: 04,3421           00004                           OCT      4                                     #  +R2
002400:


002402:                                                                                                  #  NVSUB IS USED FOR SUBROUTINE CALLS FROM WITHIN COMPUTER. IT CAN BE
002403:                                                                                                  #  USED TO DO ANY THING THE KEYBOARD CAN CALL. PLACE ...VVVVVVNNNNNN
002404:                                                                                                  #  INTO A.      V-S ARE 6BIT VERB CODE. N-S , 6 BIT NOUN CODE.
002405:
002406:                                                                                                  #  NVSUB CAN BE USED WITH MACH CADR TO BE SPEC BY PLACING THE CADR INTO
002407:                                                                                                  #  MPAC+2 BEFORE THE STANDARD NVSUB CALL.
002408:
002409:                                                                                                  #   NVSUB RETURNS TO 2+ CALLING LOC AFTER PERFORMING TASK, IF DISPLAY
002410:                                                                                                  #  SYSTEM IS AVAILABLE. THE NEW NOUN AND VERB CODES ARE DISPLAYED.
002411:                                                                                                  #  IF V:S =0, THE NEW NOUN CODE IS DISPLAYED ONLY(RETURN WITH NO FURTHER
002412:                                                                                                  #  ACTION). IF N-S =0, THE NEW VERB CODE IS DISPLAYED ONLY(RETURN WITH NO
002413:                                                                                                  #  FURTHER ACTION).
002414:
002415:                                                                                                  #  IT RETURNS TO 1+ CALLING LOC WITHOUT PERFORMING TASK, IF DISPLAY
002416:                                                                                                  #  SYSTEM IS BLOCKED (NOTHING IS DISPLAYED IN THIS CASE).
002417:                                                                                                  #  IT DOES TC ABORT (WITH OCT 01501) IF IT ENCOUNTERS A DISPLAY PROGRAM
002418:                                                                                                  #  ALARM CONDITION BEFORE RETURN TO CALLER.
002419:
002420:                                                                                                  #  THE DISPLAY SYSTEM IS BLOCKED BY THE DEPRESSION OF ANY
002421:                                                                                                  #  KEY, EXCEPT ERROR LIGHT RESET. ALSO BY ENDIDLE.
002422:                                                                                                  #       IT IS RELEASED BY SPECIAL VERB = RELEASE DISPLAY, ALL GO TO VERBS.
002423:                                                                                                  #  PROCEED WITHOUT DATA, TERMINATE, INITIALIZE EXECUTIVE,
002424:                                                                                                  #  RECALL PART OF RECALTST IF ENDIDLE WAS USED,
002425:                                                                                                  #  IN RECALTST IF NVSUB INITIATED LOAD AND ENDIDLE WAS NOT USED,
002426:                                                                                                  #  VB = REQUEST EXECUTIVE, VB = REQUEST WAITLIST,
002427:                                                                                                  #  MONITOR SET UP.
002428:
002429:                                                                                                  #  A NVSUB CALL THAT PASSES DSPLOCK ENDS OLD MONITOR.
002430:
002431:                                                                                                  #  DSPLOCK IS THE INTERLOCK FOR USE OF KEYBOARD AND DISPLAY SYSTEM WHICH
002432:                                                                                                  #  LOCKS OUT INTERNAL USE WHENEVER THERE IS EXTERNAL KEYBOARD ACTION.
002433:
002434:                                                                                                  #  NVSUB IN FIXED-FIXED PLACES 2+CALLING LOC INTO NVQTEM, TC NVSUBEND INTO
002435:                                                                                                  #  ENTRET. (THIS WILL RESTORE OLD CALLING BANK BITS)
002436:
002437:    5107                                           SETLOC   MIDSIX     +1
002438:    5107           54107        NVSUB              TS       NVTEMP                                #  IN FIXED FIXED
002439:    5110           10277                           CCS      DSPLOCK
002440:    5111           00002                           TC       Q                                     #  DSP SYST BLOCKED. RET TO 1+ CALLING LOC
002441:    5112           30002                           CA       Q                                     #  DSP SYST AVAILABLE
002442:    5113           67657                           AD       ONE
002443:    5114           54325                           TS       NVQTEM                                #  2+ CALLING LOC INTO NVQTEM
002444:    5115           05131                           TC       KILMONON                              #  TURN ON KILL MONITOR BIT
002445:    5116           35122        NVSUBCOM           CAF      NVSBBBNK
002446:
002447:    5117           56006                           XCH      BBANK
002448:    5120           54326                           TS       NVBNKTEM
002449:    5121           02000                           TC       NVSUBB                                #  GO TO NVSUB1 THRU STANDARD LOC
002450:    5122     0264                                  EBANK=   DSPCOUNT
002451:    5122           12000        NVSBBBNK           BBCON    NVSUB1
002452:


002454:    5123           30002        NVSUBMON           CA       Q                                     #  MONDO COMES HERE
002455:    5124           67657                           AD       ONE
002456:    5125           54325                           TS       NVQTEM                                #  2 + CALLING LOC INTO NVQTEM
002457:    5126           05116                           TC       NVSUBCOM
002458:
002459:    5127           52326        NVSUBEND           DXCH     NVQTEM                                #  NVBNKTEM MUST = NVQTEM+1
002460:    5130           52006                           DXCH     Z                                     #  DTCB
002461:
002462: 05,3344                                           SETLOC   ENDRQWT    +1
002463:
002464: 05,3344           33363        NVSUB1             CAF      ENTSET                                #  IN BANK
002465: 05,3345           54122                           TS       ENTRET                                #  SET RETURN TO NVSUBEND
002466: 05,3346           33401                           CAF      LOW6
002467: 05,3347           70107                           MASK     NVTEMP
002468: 05,3350           54140                           TS       MPAC                                  #  TEMP STORAGE
002469: 05,3351           33402                           CAF      MID6
002470: 05,3352           70107                           MASK     NVTEMP
002471: 05,3353           05200                           TC       RIGHT5
002472: 05,3354           54020                           TS       CYR
002473: 05,3355           56020                           XCH      CYR
002474: 05,3356           54141                           TS       MPAC       +1                         #  TEMP STORAGE
002475: 05,3357           10140                           CCS      MPAC                                  #  TEST NOUN
002476: 05,3360           03364                           TC       +4                                    #  IF NOUN NOT +0, GO ON
002477: 05,3361           56141                           XCH      MPAC       +1
002478: 05,3362           02314                           TC       UPDATVB    -1                         #  IF NOUN = +0, DISPLAY VERB, THEN RETURN
002479: 05,3363           05127        ENTSET             TC       NVSUBEND
002480: 05,3364           10141                           CCS      MPAC       +1                         #  TEST VERB
002481: 05,3365           03371                           TC       +4                                    #  IF VERB NOT +0, GO ON
002482: 05,3366           56140                           XCH      MPAC
002483: 05,3367           02274                           TC       UPDATNN    -1                         #  IF VERB = +0, DISPLAY NOUN. THEN RETURN
002484: 05,3370           05127                           TC       NVSUBEND
002485: 05,3371           56141                           XCH      MPAC       +1
002486: 05,3372           02314                           TC       UPDATVB    -1                         #  IF BOTH NOUN AND VERB NOT +0, DISPLAY
002487: 05,3373           56140                           XCH      MPAC                                  #  BOTH AND GO TO ENTPAS0
002488: 05,3374           02274                           TC       UPDATNN    -1
002489: 05,3375           37665                           CAF      ZERO
002490: 05,3376           54301                           TS       LOADSTAT                              #  SET FOR WAITING FOR DATA CONDITION
002491: 05,3377           54302                           TS       CLPASS
002492: 05,3400           02031                           TC       ENTPAS0
002493:
002494:                                                                                                  #  IF INTERNAL MACH CADR TO BE SPECIFIED, MPAC+2 WILL BE PLACED INTO
002495:                                                                                                  #  NOUNCADR IN ENTPAS0 (INTMCTBS ).
002496:
002497:
002498:
002499: 05,3401           00077        LOW6               OCT      77
002500: 05,3402           07700        MID6               OCT      7700
002501:


002503:    5131                                           SETLOC   NVSUBEND   +2
002504:    5131           47641        KILMONON           CS       BIT15                                 #  FORCE BIT 15 OF MONSAVE1 TO 1.
002505:    5132           00004                           INHINT                                         #          THIS IS THE KILL MONITOR BIT.
002506:    5133           70306                           MASK     MONSAVE1
002507:    5134           67641                           AD       BIT15
002508:    5135           54306                           TS       MONSAVE1
002509:    5136           00003                           RELINT
002510:    5137           00002                           TC       Q
002511:
002512:
002513:
002514:                                                                                                  #  LOADSTAT  +0 INACTIVE (WAITING FOR DATA). SET BY NVSUB
002515:                                                                                                  #            +1  PROCEED NO DATA. SET BY SPECIAL VERB
002516:                                                                                                  #           -1 TERMINATE   SET BY SPECIAL VERB
002517:                                                                                                  #           -0 DATA IN   SET BY END OF LOAD ROUTINE
002518:
002519:
002520:
002521:                                                                                                  #  L  TC ENDIDLE  (FIXED FIXED)
002522:                                                                                                  #  ROUTINES THAT REQUEST LOADS THROUGH NVSUB SHOULD USE ENDIDLE WHILE
002523:                                                                                                  #  WAITING FOR THE DATA TO BE LOADED. ENDIDLE PUTS CURRENT JOB TO SLEEP.
002524:                                                                                                  #  ENDIDLE CANNOT BE CALLED FROM ERASABLE MEMORY, SINCE JOBSLEEP AND
002525:                                                                                                  #  JOBWAKE CAN HANDLE ONLY FIXED MEMORY.
002526:                                                                                                  #  RECALTST TESTS LOADSTAT AND WAKES JOB UP TO,
002527:                                                                                                  #  L+1      FOR TERMINATE
002528:                                                                                                  #  L+2      FOR PROCEED WITHOUT DATA
002529:                                                                                                  #  L+3      FOR DATA IN
002530:                                                                                                  #  IT DOES NOTHING     IF LOADSTAT INDICATES WAITING FOR DATA.
002531:
002532:    5140           37657        ENDIDLE            CAF      ONE
002533:    5141           54277                           TS       DSPLOCK
002534:    5142           22004                           LXCH     FBANK
002535:    5143           56002                           XCH      Q
002536:    5144           52120                           DXCH     BUF2
002537:    5145           04112                           TC       MAKECADR
002538:    5146           54323                           TS       CADRSTOR
002539:    5147           04416                           TC       JOBSLEEP
002540:
002541:
002542:
002543:    5150           04440        ENDINST            TC       ENDOFJOB
002544:
002545:                                                                                                  #  DATAWAIT IS AN ALTERNATIVE TO ENDIDLE, IT RETURNS IMMEDIATELY IF
002546:                                                                                                  #  LOADSTAT INDICATES THAT DATA IS ALREADY IN, OR PROCEED OR TERMINATE HAS
002547:                                                                                                  #  BEEN EXECUTED. RETURN FORMAT IS SAME AS FOR ENDIDLE.
002548:                                                                                                  #  DATAWAIT CANNOT BE CALLED FROM ERASABLE MEMORY, SINCE JOBSLEEP
002549:                                                                                                  #  AND JOBWAKE CAN HANDLE ONLY FIXED MEMORY.
002550:                                                                                                  #  DATAWAIT SHOULD BE USED ONLY AFTER REQUESTING A LOAD VERB.
002551:
002552:    5151           10301        DATAWAIT           CCS      LOADSTAT
002553:


002555:    5152           15157                           TCF      DATWAIT1                              #  PROCEED. RETURN TO L+2.
002556:    5153           15140                           TCF      ENDIDLE                               #  STILL WAITING. GO TO SLEEP.
002557:    5154           00002                           TC       Q                                     #  TERMINATE. RETURN TO L+1.
002558:    5155           50002                           INDEX    Q                                     #  DATA IN. RETURN TO L+3.
002559:    5156           00002                           TC       2
002560:    5157           50002        DATWAIT1           INDEX    Q                                     #  RETURN TO L+2.
002561:    5160           00001                           TC       1
002562:
002563:                                                                                                  #  DATAWAIT DOES NOT RELEASE DISPLAY SYST. IT IS RELEASED AT END OF NVSUB
002564:                                                                                                  #  INITIATED LOAD, IF ENDIDLE WAS NOT USED.
002565:
002566:
002567:
002568: 05,3403                                           SETLOC   MID6       +1
002569:                                                                                                  #  DSPMM PLACE MAJOR MODE CODE INTO MODREG
002570:
002571: 05,3403           35241        DSPMM1             CAF      MD1                                   #  GETS HERE THRU DSPMM (STANDARD LEAD IN)
002572: 05,3404           56264                           XCH      DSPCOUNT
002573: 05,3405           54124                           TS       DSPMMTEM                              #  SAVE DSPCOUNT
002574: 05,3406           30276                           CA       MODREG
002575: 05,3407           22002                           LXCH     Q
002576: 05,3410           03255                           TC       DSP2BIT
002577: 05,3411           56124                           XCH      DSPMMTEM                              #  RESTORE DSPCOUNT
002578: 05,3412           54264                           TS       DSPCOUNT
002579: 05,3413           00001        DSPMMEND           TC       L
002580:
002581:
002582:
002583:                                                                                                  #  RECALTST IS ENTERED DIRECTLY AFTER DATA IS
002584:                                                                                                  #  LOADED, TERMINATE VERB IS EXECUTED, OR THE PROCEED WITHOUT DATA VERB IS
002585:                                                                                                  #  EXECUTED. IT WAKES UP JOB THAT DID TC ENDIDLE.
002586:
002587:                                                                                                  #  IF NVSUB INITIATED LOAD, AND ENDIDLE WAS NOT USED, THEN IT RELEASES
002588:                                                                                                  #  DISPLAY SYST. (NEEDED FOR DATAWAIT)
002589:
002590: 04,3422                                           SETLOC   SWTAB      +4
002591:
002592: 04,3422           10323        RECALTST           CCS      CADRSTOR
002593: 04,3423           03430                           TC       RECAL1
002594: 04,3424           04440                           TC       ENDOFJOB                              #  NORMAL EXIT IF KEYBOARD INITIATED
002595: 04,3425           03430                           TC       RECAL1
002596: 04,3426           54323                           TS       CADRSTOR                              #  -0. CONCLUSION OF NVSUB INITIATED LOAD.
002597: 04,3427           03446                           TC       RECAL3                                #  +0 INTO CADRSTOR. RELEASE DISPLAY,
002598:                                                                                                  #     AND ENDOFJOB. NEEDED FOR DATAWAIT.
002599: 04,3430           37665        RECAL1             CAF      ZERO
002600: 04,3431           56323                           XCH      CADRSTOR
002601: 04,3432           00004                           INHINT
002602: 04,3433           04422                           TC       JOBWAKE
002603: 04,3434           10301                           CCS      LOADSTAT
002604: 04,3435           03452                           TC       DOPROC                                #  + PROCEED WITHOUT DATA
002605:


002607: 04,3436           04440                           TC       ENDOFJOB                              #  PATHALOGICAL CASE EXIT
002608: 04,3437           03450                           TC       DOTERM                                #  -   TERMINATE
002609: 04,3440           37656                           CAF      TWO
002610: 04,3441           50071        RECAL2             INDEX    LOCCTR
002611: 04,3442           60150                           AD       LOC                                   #  LOC IS + FOR BASIC JOBS
002612: 04,3443           50071                           INDEX    LOCCTR
002613: 04,3444           54150                           TS       LOC
002614: 04,3445           00003                           RELINT
002615: 04,3446           05364        RECAL3             TC       RELDSP1                               #  DOES NOT SEARCH LIST
002616: 04,3447           04440                           TC       ENDOFJOB
002617:
002618: 04,3450           37665        DOTERM             CAF      ZERO
002619: 04,3451           03441                           TC       RECAL2
002620:
002621: 04,3452           37657        DOPROC             CAF      ONE
002622: 04,3453           03441                           TC       RECAL2
002623:


002625:                                                                                                  #  THE FOLLOWING REFERS TO THE NOUN TABLES
002626:
002627:
002628:
002629:                                                                                                  #  COMPONENT CODE NUMBER           INTERPRETATION
002630:
002631:                                                                                                  #  00000                           1 COMPONENT
002632:                                                                                                  #  00001                           2 COMPONENT (EACH S P)
002633:                                                                                                  #  00010                           3 COMPONENT (EACH SP)
002634:
002635:
002636:
002637:                                                                                                  #  SF ROUTINE CODE NUMBER          INTERPRETATION
002638:
002639:                                                                                                  #  00000    OCTAL ONLY
002640:                                                                                                  #  00001    STRAIGHT FRACTIONAL
002641:                                                                                                  #  00010    DEGREES (XXX.XX)
002642:                                                                                                  #  00011    ARITHMETIC SF
002643:                                                                                                  #  00100    ARITH DP1   OUT(MULT BY 2/14 AT END)     IN (STRAIGHT)
002644:                                                                                                  #  00101    ARITH DP2   OUT (STRAIGHT)               IN (SL 7 AT END)
002645:                                                                                                  #  00110    OPTICS DEGREES(XX.XXX MAX 89.999) OR (XXX.XX MAX 179.99)
002646:                                                                                                  #  00111    ARITH DP3   OUT (SL 7 AT END)        IN ( STRAIGHT)
002647:                                                                                                  #  END OF SF ROUTINE CODE NUMBERS
002648:
002649:                                                                                                  #  SF CONSTANT CODE NUMBER         INTERPRETATION
002650:
002651:                                                                                                  #  00000                           WHOLE
002652:                                                                                                  #  00000                           TIME SEC(XXX.XX)SAME AS WHOLE(ARITH DP1)
002653:                                                                                                  #  00001                           TIME HOURS(XXX.XX) USE ARITH DP2
002654:                                                                                                  #  00010                           DEGREES
002655:                                                                                                  #  00010                           OPTICS DEGREES
002656:                                                                                                  #  00011                           GYRO DEGREES (XX.XXX)  USE ARITHDP3
002657:                                                                                                  #  00100                           GYRO BIAS DRIFT .BBXXXXX MILLIRAD/SEC
002658:                                                                                                  #  00101                           GYRO AXIS ACCEL. DRIFT
002659:                                                                                                  #                                  .BBXXXXX (MILLIRAD/SEC) / (CM/SEC SEC)
002660:                                                                                                  #  00110                           PIPA BIAS X.XXXX CM/SEC SEC
002661:                                                                                                  #  00111                           PIPA SCALE FACTOR ERROR
002662:                                                                                                  #                                      XXXXX. PARTS/MILLION
002663:                                                                                                  #  01000                           POSITION(XXXX.X KILOMETERS) USE ARITHDP3
002664:                                                                                                  #  01001                           VELOCITY(XXXX.X METERS/SEC) USE ARITHDP2
002665:                                                                                                  #  01010                           TIME HOURS(XXX.XX)WEEKS INSIDE(ARITHDP2)
002666:                                                                                                  #  01011                           ELEVATION DEGREES(89.999MAX) USE ARITH
002667:                                                                                                  #  01100                           RENDEZVOUS RADAR RANGE(XXXXXB.FEET)
002668:                                                                                                  #                                                              USE ARITHDP1
002669:                                                                                                  # 01101                            RENDEZVOUS RADAR RANGE RATE(XXXXX.FT/SEC
002670:                                                                                                  #                                                              USE ARITHDP1
002671:                                                                                                  # 01110                            LANDING RADAR ALTITUDE(XXXXX.FEET)
002672:                                                                                                  #                                                               USE ARITHDP1
002673:


002675:                                                                                                  #  01111                           INITIAL/FINAL ALTITUDE(XXXXX.FEET)
002676:                                                                                                  #                                                              USE ARITHDP1
002677:                                                                                                  #  10000                           ALTITUDE RATE(XXXXX.FEET)      USE ARITH
002678:                                                                                                  #  10001                           FORWARD/LATERAL VELOCITY(XXXXX.FEET/SEC)
002679:                                                                                                  #                                                                 USE ARITH
002680:                                                                                                  #  10010                           ROTATIONAL HAND CONTROLLER ANGLE RATES
002681:                                                                                                  #                                        XXXXX.DEG/SEC            USE ARITH
002682:                                                                                                  #  10011                           LANDING RADAR VELX(XXXXX.FEET/SEC)
002683:                                                                                                  #                                                              USE ARITHDP1
002684:                                                                                                  #  10100                           LANDING RADAR VELY(XXXXX.FEET/SEC)
002685:                                                                                                  #                                                              USE ARITHDP1
002686:                                                                                                  #  10101                           LANDING RADAR VELZ(XXXXX.FEET/SEC)
002687:                                                                                                  #                                                              USE ARITHDP1
002688:                                                                                                  #  10110                           OPTICAL TRACKER AZIMUTH ANGLE(XXX.XXDEG)
002689:                                                                                                  #                                                              USE ARITHDP1
002690:                                                                                                  #  END OF SF CONSTANT CODE NUMBERS
002691:
002692:
002693:
002694:                                                                                                  #  FOR GREATER THAN SINGLE PRECISION SCALES, PUT ADDRESS OF MAJOR PART INTO
002695:                                                                                                  #  NOUN TABLES.
002696:                                                                                                  #  OCTAL LOADS PLACE +0 INTO MAJOR PART, DATA INTO MINOR PART.
002697:                                                                                                  #  OCTAL DISPLAYS SHOW MINOR PART ONLY.
002698:                                                                                                  #  TO GET AT BOTH MAJOR AND MINOR PARTS (IN OCTAL), USE NOUN 01.
002699:


002701:                                                                                                  #  THE FOLLOWING ROUTINES ARE FOR READING THE NOUN TABLES AND THE SF TABLES
002702:                                                                                                  #  (WHICH ARE IN A SEPARATE BANK FROM THE REST OF PINBALL). THESE READING
002703:                                                                                                  #  ROUTINES ARE IN THE SAME BANK AS THE TABLES. THEY ARE CALLED BY DXCH Z.
002704:
002705:
002706:
002707:                                                                                                  #  LODNNTAB LOADS NNADTEM WITH THE NNADTAB ENTRY, NNTYPTEM WITH THE
002708:                                                                                                  #  NNTYPTAB ENTRY. IF THE NOUN IS MIXED, IDAD1TEM IS LOADED WITH THE FIRST
002709:                                                                                                  #  IDADDTAB ENTRY, IDAD2TEM THE SECOND IDADDTAB ENTRY, IDAD3TEM THE THIRD
002710:                                                                                                  #  IDADDTAB ENTRY, RUTMXTEM WITH THE RUTMXTAB ENTRY. MIXBR IS SET FOR
002711:                                                                                                  #  MIXED OR NORMAL NOUN.
002712:
002713: 16,2000                                           BANK     16
002714:
002715: 16,2000           52136        LODNNTAB           DXCH     IDAD2TEM                              #  SAVE RETURN INFO IN IDAD2TEM, IDAD3TEM.
002716: 16,2001           50267                           INDEX    NOUNREG
002717: 16,2002           32052                           CAF      NNADTAB
002718: 16,2003           54132                           TS       NNADTEM
002719: 16,2004           50267                           INDEX    NOUNREG
002720: 16,2005           32152                           CAF      NNTYPTAB
002721: 16,2006           54133                           TS       NNTYPTEM
002722: 16,2007           40267                           CS       NOUNREG
002723: 16,2010           62036                           AD       MIXCON
002724: 16,2011           00006                           EXTEND
002725: 16,2012           62016                           BZMF     LODMIXNN                              #  NOUN NUMBER G/E FIRST MIXED NOUN
002726: 16,2013           37657                           CAF      ONE                                   #  NOUN NUMBER L/ FIRST MIXED NOUN
002727: 16,2014           54124                           TS       MIXBR                                 #  NORMAL.  +1 INTO MIXBR.
002728: 16,2015           02034                           TC       LODNLV
002729: 16,2016           37656        LODMIXNN           CAF      TWO                                   #  MIXED.  +2 INTO MIXBR.
002730: 16,2017           54124                           TS       MIXBR
002731: 16,2020           50267                           INDEX    NOUNREG
002732: 16,2021           32420                           CAF      RUTMXTAB   -55
002733: 16,2022           54137                           TS       RUTMXTEM
002734: 16,2023           36426                           CAF      LOW10
002735: 16,2024           70132                           MASK     NNADTEM
002736: 16,2025           54002                           TS       Q                                     #  TEMP
002737: 16,2026           50000                           INDEX    A
002738: 16,2027           32406                           CAF      IDADDTAB
002739: 16,2030           54134                           TS       IDAD1TEM                              #  LOAD IDAD1TEM WITH FIRST IDADDTAB ENTRY
002740: 16,2031           00006                           EXTEND
002741: 16,2032           50002                           INDEX    Q                                     #  LOAD IDAD2TEM WITH 2ND IDADDTAB ENTRY
002742: 16,2033           32410                           DCA      IDADDTAB   +1                         #  LOAD IDAD3TEM WITH 3RD IDADDTAB ENTRY.
002743: 16,2034           52136        LODNLV             DXCH     IDAD2TEM                              #  PUT RETURN INFO INTO A, L.
002744: 16,2035           52006                           DXCH     Z
002745:
002746: 16,2036           00055        MIXCON             OCT      55                                    #  FIRST MIXED NOUN = 55.
002747:
002748:
002749:
002750:                                                                                                  #  GTSFOUT LOADS SFTEMP1, SFTEMP2 WITH THE DP SFOUTAB ENTRIES.
002751:


002753: 16,2037           52110        GTSFOUT            DXCH     SFTEMP1                               #  2X(SFCONUM) ARRIVES IN SFTEMP1.
002754: 16,2040           00006                           EXTEND
002755: 16,2041           50000                           INDEX    A
002756: 16,2042           32331                           DCA      SFOUTAB
002757: 16,2043           52110        SFCOM              DXCH     SFTEMP1
002758: 16,2044           52006                           DXCH     Z
002759:
002760:
002761:
002762:                                                                                                  #  GTSFIN LOADS SFTEMP1, SFTEMP2 WITH THE DP SFINTAB ENTRIES.
002763:
002764: 16,2045           52110        GTSFIN             DXCH     SFTEMP1                               #  2X(SFCONUM) ARRIVES IN SFTEMP1.
002765: 16,2046           00006                           EXTEND
002766: 16,2047           50000                           INDEX    A
002767: 16,2050           32253                           DCA      SFINTAB
002768: 16,2051           12043                           TCF      SFCOM
002769:
002770:
002771:
002772:                                                                                                  #  NN  NORMAL NOUNS
002773: 16,2052           00000        NNADTAB            OCT      00000                                 #  00 NOT IN USE
002774: 16,2053           40000                           OCT      40000                                 #  01 SPECIFY MACHINE ADDRESS (FRACTIONAL)
002775: 16,2054           40000                           OCT      40000                                 #  02 SPECIFY MACHINE ADDRESS (WHOLE)
002776: 16,2055           40000                           OCT      40000                                 #  03 SPECIFY MACHINE ADDRESS (DEGREES)
002777: 16,2056           40000                           OCT      40000                                 #  04 SPECIFY MACHINE ADDRESS (HOURS)
002778: 16,2057           40000                           OCT      40000                                 #  05 SPECIFY MACHINE ADDRESS (SECONDS)
002779: 16,2060           40000                           OCT      40000                                 #  06 SPECIFY MACHINE ADDRESS (GYRO DEG)
002780: 16,2061           00000                           OCT      00000                                 #  07 SPARE
002781: 16,2062           77776                           OCT      77776                                 #  10 CHANNEL TO BE SPECIFIED
002782: 16,2063           00000                           OCT      00000                                 #  11 SPARE
002783: 16,2064           00000                           OCT      00000                                 #  12 SPARE
002784: 16,2065           00000                           OCT      00000                                 #  13 SPARE
002785: 16,2066           00000                           OCT      00000                                 #  14 SPARE
002786: 16,2067           77777                           OCT      77777                                 #  15 INCREMENT MACHINE ADDRESS
002787: 16,2070           00024                           ECADR    TIME2                                 #  16 TIME SECONDS
002788: 16,2071           00024                           ECADR    TIME2                                 #  17 TIME HOURS
002789: 16,2072           00032                           ECADR    CDUX                                  #  20 ICDU
002790: 16,2073           00037                           ECADR    PIPAX                                 #  21 PIPAS
002791: 16,2074           00400                           ECADR    THETAD                                #  22 NEW ANGLES I
002792: 16,2075           00336                           ECADR    DSPTEM2                               #  23 DELTA ANGLES I
002793: 16,2076           00333                           ECADR    DSPTEM1                               #  24 DELTA TIME (SEC)
002794: 16,2077           00333                           ECADR    DSPTEM1                               #  25 CHECKLIST
002795: 16,2100           00333                           ECADR    DSPTEM1                               #  26 PRIO/DELAY, ADRES, BBCON
002796: 16,2101           01361                           ECADR    SMODE                                 #  27 SELF TEST ON/OFF SWITCH
002797: 16,2102           00333                           ECADR    DSPTEM1                               #  30 STAR NUMBERS
002798: 16,2103           01363                           ECADR    FAILREG                               #  31 FAILREG
002799: 16,2104           02166                           ECADR    TDEC                                  #  32 DECISION TIME (MIDCOURSE)
002800: 16,2105           02046                           ECADR    TET                                   #  33 EPHEMERIS TIME (MIDCOURSE)
002801: 16,2106           02174                           ECADR    MEASQ                                 #  34 MEASURED QUANTITY (MIDCOURSE)
002802: 16,2107           00333                           ECADR    DSPTEM1                               #  35 INBIT MESSAGE
002803:


002805: 16,2110           01474                           ECADR    LANDMARK                              #  36 LANDMARK DATA 1
002806: 16,2111           01477                           ECADR    LANDMARK   +3                         #  37 LANDMARK DATA 2
002807: 16,2112           00035                           ECADR    OPTY                                  #  40 RENDEZVOUS RADAR ANGLES (TRUN, SHAFT)
002808: 16,2113           00423                           ECADR    TANG                                  #  41 NEW REND. RADAR ANGLES (TRUN, SHAFT)
002809: 16,2114           00336                           ECADR    DSPTEM2                               #  42 AOT ROTATION ANGLES
002810: 16,2115           00375                           ECADR    XYMARK                                #  43 AOT DETENT CODE
002811: 16,2116           00360                           ECADR    FORVEL                                #  44 FORWARD VELOCITY, LATERAL VELOCITY
002812: 16,2117           03035                           ECADR    PCOM                                  #  45 ROTATIONAL HAND CONTROLLER ANGLE RATE
002813: 16,2120           00000                           OCT      00000                                 #  46 SPARE
002814: 16,2121           00000                           OCT      00000                                 #  47 SPARE
002815: 16,2122           00000                           OCT      00000                                 #  50 SPARE
002816: 16,2123           00000                           OCT      00000                                 #  51 SPARE
002817: 16,2124           01440                           ECADR    GBIASX                                #  52 GYRO BIAS DRIFT
002818: 16,2125           01443                           ECADR    ADIAX                                 #  53 GYRO INPUT AXIS ACCELERATION DRIFT
002819: 16,2126           01446                           ECADR    ADSRAX                                #  54 GYRO SPIN AXIS ACCELERATION DRIFT
002820:
002821:                                                                                                  #  NN  MIXED NOUNS
002822: 16,2127           02000                           OCT      02000                                 #  55 LANDING RADAR ALTITUDE, TIME(SEC)
002823: 16,2130           02002                           OCT      02002                                 #  56 LANDING RADAR VELX, TIME(SEC)
002824: 16,2131           02004                           OCT      02004                                 #  57 LANDING RADAR VELY, TIME(SEC)
002825: 16,2132           02006                           OCT      02006                                 #  60 LANDING RADAR VELZ, TIME(SEC)
002826: 16,2133           02010                           OCT      02010                                 #  61 TARGET AZIMUTH AND ELEVATION
002827: 16,2134           04012                           OCT      04012                                 #  62 RENDEZVOUS RADAR RANGE, TRUN, SHAFT
002828: 16,2135           04015                           OCT      04015                                 #  63 REND. RADAR RANGE RATE, TRUN, SHAFT
002829: 16,2136           04020                           OCT      04020                                 #  64 INITIAL ALT, FINAL ALT, ALT RATE
002830: 16,2137           02023                           OCT      02023                                 #  65 SAMPLED TIME (HOURS AND SECONDS)
002831:                                                                                                  #       (FETCHED IN INTERRUPT)
002832: 16,2140           04025                           OCT      04025                                 #  66 SYSTEM TEST RESULTS
002833: 16,2141           04030                           OCT      04030                                 #  67 DELTA GYRO ANGLES
002834: 16,2142           02033                           OCT      02033                                 #  70 OPTICAL TRACKER ANGLES (AZIMUTH,ELEV)
002835: 16,2143           02035                           OCT      02035                                 #  71 DESIRED OPT. TRACK. ANGLES (AZ, ELEV)
002836: 16,2144           04037                           OCT      04037                                 #  72 DELTA POSITION
002837: 16,2145           04042                           OCT      04042                                 #  73 DELTA VELOCITY
002838: 16,2146           04045                           OCT      04045                                 #  74 MEASUREMENT DATA (MIDCOURSE)
002839: 16,2147           04050                           OCT      04050                                 #  75 MEASUREMENT DEVIATIONS (MIDCOURSE)
002840: 16,2150           04053                           OCT      04053                                 #  76 POSITION VECTOR
002841: 16,2151           04056                           OCT      04056                                 #  77 VELOCITY VECTOR
002842:
002843:
002844:
002845:                                                                                                  #  NN        NORMAL NOUNS
002846: 16,2152           00000        NNTYPTAB           OCT      00000                                 #  00 NOT IN USE
002847: 16,2153           00040                           OCT      00040                                 #  01 1COMP FRACTIONAL
002848: 16,2154           00140                           OCT      00140                                 #  02 1COMP WHOLE
002849: 16,2155           00102                           OCT      00102                                 #  03 1COMP DEGREES
002850: 16,2156           00241                           OCT      00241                                 #  04 1COMP HOURS
002851: 16,2157           00200                           OCT      00200                                 #  05 1COMP SECONDS
002852: 16,2160           00343                           OCT      00343                                 #  06 1COMP GYRO DEGREES
002853: 16,2161           00000                           OCT      00000                                 #  07       SPARE
002854: 16,2162           00000                           OCT      00000                                 #  10 1COMP OCTAL ONLY
002855:


002857: 16,2163           00000                           OCT      00000                                 #  11        SPARE
002858: 16,2164           00000                           OCT      00000                                 #  12        SPARE
002859: 16,2165           00000                           OCT      00000                                 #  13        SPARE
002860: 16,2166           00000                           OCT      00000                                 #  14        SPARE
002861: 16,2167           00000                           OCT      00000                                 #  15 1COMP  OCTAL ONLY
002862: 16,2170           00200                           OCT      00200                                 #  16 1COMP  SECONDS
002863: 16,2171           00241                           OCT      00241                                 #  17 1COMP  HOURS
002864: 16,2172           04102                           OCT      04102                                 #  20 3COMP  DEGREES
002865: 16,2173           04140                           OCT      04140                                 #  21 3COMP  WHOLE
002866: 16,2174           04102                           OCT      04102                                 #  22 3COMP  DEGREES
002867: 16,2175           04102                           OCT      04102                                 #  23 3COMP  DEGREES
002868: 16,2176           00200                           OCT      00200                                 #  24 1COMP  SECONDS
002869: 16,2177           00140                           OCT      00140                                 #  25 1COMP  WHOLE
002870: 16,2200           04000                           OCT      04000                                 #  26 3COMP  OCTAL ONLY
002871: 16,2201           00140                           OCT      00140                                 #  27 1COMP  WHOLE
002872: 16,2202           04140                           OCT      04140                                 #  30 3COMP  WHOLE
002873: 16,2203           04000                           OCT      04000                                 #  31 3COMP  OCTAL ONLY
002874: 16,2204           00252                           OCT      00252                                 #  32 1COMP  TIME WEEKS
002875: 16,2205           00252                           OCT      00252                                 #  33 1COMP  TIME WEEKS
002876: 16,2206           00350                           OCT      00350                                 #  34 1COMP  POISTION
002877: 16,2207           04000                           OCT      04000                                 #  35 3COMP  OCTAL ONLY
002878: 16,2210           04000                           OCT      04000                                 #  36 3COMP  OCTAL ONLY
002879: 16,2211           04000                           OCT      04000                                 #  37 3COMP  OCTAL ONLY
002880: 16,2212           02102                           OCT      02102                                 #  40 2COMP  DEGREES
002881: 16,2213           02102                           OCT      02102                                 #  41 2COMP  DEGREES
002882: 16,2214           02102                           OCT      02102                                 #  42 2COMP  DEGREES
002883: 16,2215           00140                           OCT      00140                                 #  43 1COMP  WHOLE
002884: 16,2216           02161                           OCT      02161                                 #  44 2COMP  FORWARD/LATERAL VELOCITY
002885: 16,2217           04162                           OCT      04162                                 #  45 3COMP  ROT HAND CONT ANGLE RATE
002886: 16,2220           00000                           OCT      00000                                 #  46        SPARE
002887: 16,2221           00000                           OCT      00000                                 #  47        SPARE
002888: 16,2222           00000                           OCT      00000                                 #  50        SPARE
002889: 16,2223           00000                           OCT      00000                                 #  51        SPARE
002890: 16,2224           04144                           OCT      04144                                 #  52 3COMP  GYRO BIAS DRIFT
002891: 16,2225           04145                           OCT      04145                                 #  53 3COMP  GYRO AXIS ACCEL. DRIFT
002892: 16,2226           04145                           OCT      04145                                 #  54 3COMP  GYRO AXIS ACCEL. DRIFT
002893:
002894:                                                                                                  #  NN        MIXED NOUNS
002895: 16,2227           00016                           OCT      00016                                 #  55 2COMP  LANDING RADAR ALT, SECONDS
002896: 16,2230           00023                           OCT      00023                                 #  56 2COMP  LANDING RADAR VELX, SECONDS
002897: 16,2231           00024                           OCT      00024                                 #  57 2COMP  LANDING RADAR VELY, SECONDS
002898: 16,2232           00025                           OCT      00025                                 #  60 2COMP  LANDING RADAR VELZ, SECONDS
002899: 16,2233           00542                           OCT      00542                                 #  61 2COMP  DEGREES, ELEVATION DEGREES
002900: 16,2234           04114                           OCT      04114                                 #  62 3COMP  REND. RADAR RANGE, DEG, DEG
002901: 16,2235           04115                           OCT      04115                                 #  63 3COMP  REND. RAD. RANGE RATE, DEG,DEG
002902: 16,2236           40757                           OCT      40757                                 #  64 3COMP  IN/FN ALT, IN/FN ALT, ALT RATE
002903: 16,2237           00001                           OCT      00001                                 #  65 2COMP  HOURS, SECONDS
002904: 16,2240           00000                           OCT      00000                                 #  66 3COMP  WHOLE, FRACTIONAL, WHOLE
002905: 16,2241           06143                           OCT      06143                                 #  67 3COMP  GYRO DEGREES FOR EACH
002906: 16,2242           00126                           OCT      00126                                 #  70 2COMP  OPT TRACK AZIMUTH, DEGREES
002907:


002909: 16,2243           00126                           OCT      00126                                 #  71 2COMP  OPT TRACK AZIMUTH, DEGREES
002910: 16,2244           20410                           OCT      20410                                 #  72 3COMP  POSITION FOR EACH
002911: 16,2245           22451                           OCT      22451                                 #  73 3COMP  VELOCITY FOR EACH
002912: 16,2246           00412                           OCT      00412                                 #  74 3COMP  TIME WEEKS, POSITION, WHOLE
002913: 16,2247           20450                           OCT      20450                                 #  75 3COMP  POSITION, VELOCITY, POSITION
002914: 16,2250           20410                           OCT      20410                                 #  76 3COMP  POSITION FOR EACH
002915: 16,2251           22451                           OCT      22451                                 #  77 3COMP  VELOCITY FOR EACH
002916:
002917:
002918:
002919: 16,2252           00006        SFINTAB            OCT      00006                                 #  WHOLE,TIME(SEC)
002920: 16,2253           03240                           OCT      03240
002921: 16,2254           00253                           OCT      00253                                 #  TIME HOURS ( = 1.3..... )
002922: 16,2255           25124                           OCT      25124                                 #    (POINT BETWEEN BITS 7-8 )
002923: 16,2256           00000                           OCT      0                                     #  DEGREES (SFCON IN DEGINSF)
002924: 16,2257           00000                           OCT      0
002925: 16,2260           10707                           OCT      10707                                 #  GYRO DEGREES
002926: 16,2261           03435                           OCT      03435                                 #              UPPED BY 1
002927: 16,2262           00001                           OCT      00001                                 #  GYRO BIAS DRIFT
002928: 16,2263           02133                           OCT      02133
002929: 16,2264           00011                           OCT      00011                                 #  GYRO AXIS ACCEL. DRIFT
002930: 16,2265           30322                           OCT      30322
002931: 16,2266           00004                           OCT      00004                                 #  PIPA BIAS
002932: 16,2267           14021                           OCT      14021
002933: 16,2270           00314                           OCT      00314                                 #  PIPA SCALE ERROR.
002934: 16,2271           31463                           OCT      31463
002935: 16,2272           23420                           OCT      23420                                 #  POSITION
002936: 16,2273           00000                           OCT      00000
002937: 16,2274           00201                           OCT      00201                                 #  VELOCITY
002938: 16,2275           30327                           OCT      30327                                 #  ( POINT BETWEEN BITS 7-8 )
002939: 16,2276           01371                           OCT      01371                                 #  TIME WEEKS
002940: 16,2277           34750                           OCT      34750                                 #  ( POINT BETWEEN BITS 7-8 )
002941: 16,2300           00001                           OCT      00001                                 #  ELEVATION DEGREES
002942: 16,2301           03434                           OCT      03434
002943: 16,2302           00006                           OCT      00006                                 #  RENDEZVOUS RADAR RANGE
002944: 16,2303           20162                           OCT      20162
002945: 16,2304           00011                           OCT      00011                                 #  RENDEZVOUS RADAR RANGE RATE
002946: 16,2305           27066                           OCT      27066
002947: 16,2306           00016                           OCT      00016                                 #  LANDING RADAR ALTITUDE
002948: 16,2307           04245                           OCT      04245
002949: 16,2310           00002                           OCT      00002                                 #  INITIAL/FINAL ALTITUDE
002950: 16,2311           23224                           OCT      23224
002951: 16,2312           00014                           OCT      00014                                 #  ALTITUDE RATE
002952: 16,2313           06500                           OCT      06500
002953: 16,2314           00012                           OCT      00012                                 #  FORWARD/LATERAL VELOCITY
002954: 16,2315           36455                           OCT      36455
002955: 16,2316           04256                           OCT      04256                                 #  ROT HAND CONT ANGLE RATE
002956: 16,2317           07071                           OCT      07071
002957: 16,2320           77766                           OCT      77766                                 #  LANDING RADAR VELX (NEG TO SWITCH SIGNS)
002958: 16,2321           60044                           OCT      60044
002959:


002961: 16,2322           00004                           OCT      00004                                 #  LANDING RADAR VELY
002962: 16,2323           34055                           OCT      34055
002963: 16,2324           00007                           OCT      00007                                 #  LANDING RADAR VELZ
002964: 16,2325           04147                           OCT      04147
002965: 16,2326           00005                           OCT      00005                                 #  OPTICAL AZIMUTH TRACKER ANGLE
002966: 16,2327           21616                           OCT      21616
002967:                                                                                                  #  END OF SFINTAB
002968:
002969:
002970:
002971: 16,2330           05174        SFOUTAB            OCT      05174                                 #  WHOLE, TIME(SEC)
002972: 16,2331           13261                           OCT      13261
002973: 16,2332           27670                           OCT      27670                                 #  TIME HOURS
002974: 16,2333           31357                           OCT      31357
002975: 16,2334           00000                           OCT      0                                     #  DEGREES
002976: 16,2335           00000                           OCT      0
002977: 16,2336           00714                           OCT      00714                                 #  GYRO DEGREES
002978: 16,2337           31463                           OCT      31463                                 #  (POINT BETWEEN BITS 7-8)
002979: 16,2340           35753                           OCT      35753                                 #  GYRO BIAS DRIFT
002980: 16,2341           32323                           OCT      32323
002981: 16,2342           03216                           OCT      03216                                 #  GYRO AXIS ACCEL. DRIFT
002982: 16,2343           06400                           OCT      06400
002983: 16,2344           07237                           OCT      07237                                 #  PIPA BIAS
002984: 16,2345           37776                           OCT      37776
002985: 16,2346           00120                           OCT      00120                                 #  PIPA SCALE ERROR
002986: 16,2347           00000                           OCT      00000
002987: 16,2350           00321                           OCT      00321                                 #  POSITION
002988: 16,2351           26706                           OCT      26706                                 #  ( POINT BETWEEN BITS 7-8 )
002989: 16,2352           37441                           OCT      37441                                 #  VELOCITY
002990: 16,2353           14247                           OCT      14247
002991: 16,2354           05300                           OCT      05300                                 #  TIME WEEKS
002992: 16,2355           20305                           OCT      20305
002993: 16,2356           34631                           OCT      34631                                 #  ELEVATION DEGREES
002994: 16,2357           23146                           OCT      23146
002995: 16,2360           04725                           OCT      04725                                 #  RENDEZVOUS RADAR RANGE
002996: 16,2361           35454                           OCT      35454
002997: 16,2362           03225                           OCT      03225                                 #  RENDEZVOUS RADAR RANGE RATE
002998: 16,2363           07470                           OCT      07470
002999: 16,2364           02207                           OCT      02207                                 #  LANDING RADAR ALTITUDE
003000: 16,2365           03255                           OCT      03255
003001: 16,2366           14226                           OCT      14226                                 #  INITIAL/FINAL ALTITUDE
003002: 16,2367           31757                           OCT      31757
003003: 16,2370           02476                           OCT      02476                                 #  ALTITUDE RATE
003004: 16,2371           05531                           OCT      05531
003005: 16,2372           02727                           OCT      02727                                 #  FORWARD/LATERAL VELOCITY
003006: 16,2373           16415                           OCT      16415
003007: 16,2374           00007                           OCT      00007                                 #  ROT HAND CONT ANGLE RATE
003008: 16,2375           13734                           OCT      13734
003009: 16,2376           74502                           OCT      74502                                 #  LANDING RADAR VELX (NEG TO SWITCH SIGNS)
003010: 16,2377           76401                           OCT      76401
003011:


003013: 16,2400           06436                           OCT      06436                                 #  LANDING RADAR VELY
003014: 16,2401           35664                           OCT      35664
003015: 16,2402           04371                           OCT      04371                                 #  LANDING RADAR VELZ
003016: 16,2403           17420                           OCT      17420
003017: 16,2404           05605                           OCT      05605                                 #  OPTICAL TRACKER AZIMUTH ANGLE
003018: 16,2405           03656                           OCT      03656
003019:                                                                                                  #  END OF SFOUTAB
003020:
003021:
003022:                                                                                                  #  MIXNOUN   SF ROUT
003023: 16,2406           03461        IDADDTAB           ECADR    RSTACK     +18D                       #  01        LANDING RADAR ALTITUDE
003024: 16,2407           03465                           ECADR    RSTACK     +22D                       #  01        SECONDS
003025: 16,2410           03437                           ECADR    RSTACK                                #  02        LANDING RADAR VELX
003026: 16,2411           03443                           ECADR    RSTACK     +4                         #  02        SECONDS
003027: 16,2412           03445                           ECADR    RSTACK     +6                         #  03        LANDING RADAR VELY
003028: 16,2413           03451                           ECADR    RSTACK     +10D                       #  03        SECONDS
003029: 16,2414           03453                           ECADR    RSTACK     +12D                       #  04        LANDING RADAR VELY
003030: 16,2415           03457                           ECADR    RSTACK     +16D                       #  04        SECONDS
003031: 16,2416           00333                           ECADR    DSPTEM1                               #  05        DEGREES
003032: 16,2417           00334                           ECADR    DSPTEM1    +1                         #  05        ELEVATION DEGREES
003033: 16,2420           03437                           ECADR    RSTACK                                #  06        RENDEZVOUS RADAR RANGE
003034: 16,2421           03441                           ECADR    RSTACK     +2                         #  06        DEGREES
003035: 16,2422           03442                           ECADR    RSTACK     +3                         #  06        DEGREES
003036: 16,2423           03445                           ECADR    RSTACK     +6                         #  07        RENDEZVOUS RADAR RANGE RATE
003037: 16,2424           03447                           ECADR    RSTACK     +8D                        #  07        DEGREES
003038: 16,2425           03450                           ECADR    RSTACK     +9D                        #  07        DEGREES
003039: 16,2426           00352                           ECADR    ALT                                   #  10        INITIAL/FINAL ALTITUDE
003040: 16,2427           00355                           ECADR    FINALT                                #  10        INITIAL/FINAL ALTITUDE
003041: 16,2430           00354                           ECADR    ALTRATE                               #  10        ALTITUDE RATE
003042: 16,2431           00013                           ECADR    SAMPTIME                              #  11        HOURS
003043: 16,2432           00013                           ECADR    SAMPTIME                              #  11        SECONDS
003044: 16,2433           00336                           ECADR    DSPTEM2                               #  11        WHOLE
003045: 16,2434           00337                           ECADR    DSPTEM2    +1                         #  12        FRACTIONAL
003046: 16,2435           00340                           ECADR    DSPTEM2    +2                         #  12        WHOLE
003047: 16,2436           00403                           ECADR    DELVX                                 #  13        GYRO DEGREES
003048: 16,2437           00405                           ECADR    DELVX      +2                         #  13        GYRO DEGREES
003049: 16,2440           00407                           ECADR    DELVX      +4                         #  13        GYRO DEGREES
003050: 16,2441           01471                           ECADR    AZANG                                 #  14        OPT TRACK AZIMUTH ANGLE
003051: 16,2442           01471                           ECADR    ELANG                                 #  14        DEGREES
003052: 16,2443           01471                           ECADR    DESLOTSY                              #  15        OPT TRACK AZIMUTH ANGLE
003053: 16,2444           01471                           ECADR    DESLOTSX                              #  15        DEGREES
003054: 16,2445           02052                           ECADR    DELR                                  #  16        POSITION
003055: 16,2446           02054                           ECADR    DELR       +2                         #  16        POSITION
003056: 16,2447           02056                           ECADR    DELR       +4                         #  16        POSITION
003057: 16,2450           02060                           ECADR    DELVEL                                #  17        VELOCITY
003058: 16,2451           02062                           ECADR    DELVEL     +2                         #  17        VELOCITY
003059: 16,2452           02064                           ECADR    DELVEL     +4                         #  17        VELOCITY
003060: 16,2453           02166                           ECADR    TDEC                                  #  20        TIME WEEKS
003061: 16,2454           02174                           ECADR    MEASQ                                 #  20        POSITION
003062:


003064: 16,2455           02200                           ECADR    MEASMODE                              #  20        WHOLE
003065: 16,2456           00333                           ECADR    DSPTEM1                               #  21        POSITION
003066: 16,2457           00335                           ECADR    DSPTEM1    +2                         #  21        VELOCITY
003067: 16,2460           02176                           ECADR    DELTAQ                                #  21        POSITION
003068: 16,2461           00333                           ECADR    DSPTEM1                               #  22        POSITION
003069: 16,2462           00335                           ECADR    DSPTEM1    +2                         #  22        POSITION
003070: 16,2463           00337                           ECADR    DSPTEM1    +4                         #  22        POSITION
003071: 16,2464           00333                           ECADR    DSPTEM1                               #  23        VELOCITY
003072: 16,2465           00335                           ECADR    DSPTEM1    +2                         #  23        VELOCITY
003073: 16,2466           00337                           ECADR    DSPTEM1    +4                         #  23        VELOCITY
003074: 16,2467           00000                           OCT      00000                                 #            SPARE
003075: 16,2470           00000                           OCT      00000                                 #            SPARE
003076: 16,2471           00000                           OCT      00000                                 #            SPARE
003077: 16,2472           00000                           OCT      00000                                 #            SPARE
003078: 16,2473           00000                           OCT      00000                                 #            SPARE
003079: 16,2474           00000                           OCT      00000                                 #            SPARE
003080:                                                                                                  #  END OF IDADDTAB
003081:
003082:
003083:
003084:                                                                                                  #  MIXNOUN  SF ROUT
003085: 16,2475           00204        RUTMXTAB           OCT      00204                                 #  01  LANDING RADAR ALTITUDE, SECONDS
003086: 16,2476           00204                           OCT      00204                                 #  02  LANDING RADAR VELX, SECONDS
003087: 16,2477           00204                           OCT      00204                                 #  03  LANDING RADAR VELY, SECONDS
003088: 16,2500           00204                           OCT      00204                                 #  04  LANDING RADAR VELZ, SECONDS
003089: 16,2501           00142                           OCT      00142                                 #  05  DEGREES, ELEVATION DEGREES
003090: 16,2502           04104                           OCT      04104                                 #  06  RENDEZVOUS RADAR RANGE, DEG, DEG
003091: 16,2503           04104                           OCT      04104                                 #  07  REND. RADAR RANGE RATE, DEG, DEG
003092: 16,2504           06204                           OCT      06204                                 #  10  INIT/FIN ALT, INIT/FIN ALT, ALT RATE
003093: 16,2505           00205                           OCT      00205                                 #  11  HOURS, SECONDS
003094: 16,2506           06043                           OCT      06043                                 #  12  WHOLE, FRACTIONAL, WHOLE
003095: 16,2507           16347                           OCT      16347                                 #  13  GYRO DEGREES (FOR EACH)
003096: 16,2510           00104                           OCT      00104                                 #  14  OPT TRACK AZIMUTH ANGLE, DEGREES
003097: 16,2511           00104                           OCT      00104                                 #  15  OPT TRACK AZIMUTH ANGLE, DEGREES
003098: 16,2512           16347                           OCT      16347                                 #  16  POSITION (FOR EACH)
003099: 16,2513           12245                           OCT      12245                                 #  17  VELOCITY (FOR EACH)
003100: 16,2514           06345                           OCT      06345                                 #  20  TIME WEEKS, POSITION, WHOLE
003101: 16,2515           16247                           OCT      16247                                 #  21  POSITION , VELOCITY, POSITION
003102: 16,2516           16347                           OCT      16347                                 #  22  POSITION (FOR EACH)
003103: 16,2517           12245                           OCT      12245                                 #  23  VELOCITY (FOR EACH)
003104:                                                                                                  #  END OF RUTMXTAB
003105:
003106:
003107:
003108: 16,2520                        ENDPINS3           EQUALS
003109:


003111:
003112:                                                                                                  #  MISCELLANEOUS SERVICE ROUTINES IN FIXED/FIXED
003113:
003114:
003115:
003116:    5161                                           SETLOC   DATWAIT1   +2
003117:
003118:                                                                                                  #  SETNCADR      E CADR ARRIVES IN A. IT IS STORED IN NOUNCADR. EBANK BITS
003119:                                                                                                  #                ARE SET.  E ADRES IS DERIVED AND PUT INTO NOUNADD.
003120:
003121:    5161           54304        SETNCADR           TS       NOUNCADR                              #  STORE ECADR
003122:    5162           54003                           TS       EBANK                                 #  SET EBANK BITS
003123:    5163           75235                           MASK     LOW8
003124:    5164           65236                           AD       OCT1400
003125:    5165           54131                           TS       NOUNADD                               #  PUT E ADRES INTO NOUNADD
003126:    5166           00002                           TC       Q
003127:
003128:
003129:
003130:                                                                                                  #  SETNADD       GETS E CADR FROM NOUNCADR, SETS EBANK BITS, DERIVES
003131:                                                                                                  #                E ADRES AND PUTS IT INTO NOUNADD.
003132:
003133:    5167           30304        SETNADD            CA       NOUNCADR
003134:    5170           15162                           TCF      SETNCADR   +1
003135:
003136:
003137:
003138:                                                                                                  #  SETEBANK      E CADR ARRIVES IN A. EBANK BITS ARE SET. E ADRES IS
003139:                                                                                                  #                DERIVED AND LEFT IN A.
003140:
003141:    5171           54003        SETEBANK           TS       EBANK                                 #  SET EBANK BITS
003142:    5172           75235                           MASK     LOW8
003143:    5173           65236                           AD       OCT1400                               #  E ADRES LEFT IN A
003144:    5174           00002                           TC       Q
003145:
003146:
003147:
003148:    5175           00016        R1D1               OCT      16
003149:    5176           00011        R2D1               OCT      11
003150:    5177           00004        R3D1               OCT      4
003151:
003152:    5200           54020        RIGHT5             TS       CYR
003153:    5201           40020                           CS       CYR
003154:    5202           40020                           CS       CYR
003155:    5203           40020                           CS       CYR
003156:    5204           40020                           CS       CYR
003157:    5205           56020                           XCH      CYR
003158:    5206           00002                           TC       Q
003159:
003160:    5207           54022        LEFT5              TS       CYL
003161:    5210           40022                           CS       CYL
003162:


003164:    5211           40022                           CS       CYL
003165:    5212           40022                           CS       CYL
003166:    5213           40022                           CS       CYL
003167:    5214           56022                           XCH      CYL
003168:    5215           00002                           TC       Q
003169:
003170:    5216           60000        SLEFT5             DOUBLE
003171:    5217           60000                           DOUBLE
003172:    5220           60000                           DOUBLE
003173:    5221           60000                           DOUBLE
003174:    5222           60000                           DOUBLE
003175:    5223           00002                           TC       Q
003176:
003177:
003178:
003179:    5224           00037        LOW5               OCT      37
003180:    5225           01740        MID5               OCT      1740
003181:    5226           76000        HI5                OCT      76000                                 #  MUST STAY HERE
003182:
003183:    5227           04363        TCNOVAC            TC       NOVAC
003184:    5230           04536        TCWAIT             TC       WAITLIST
003185:    5231           04602        TCTSKOVR           TC       TASKOVER
003186:    5232           04374        TCFINDVC           TC       FINDVAC
003187:
003188:
003189:
003190:    5233           30000        CHRPRIO            OCT      30000                                 #  EXEC PRIORITY OF CHARIN
003191:
003192:
003193:
003194:    5234           03777        LOW11              OCT      3777
003195:    5235     5234               B12-1              EQUALS   LOW11
003196:    5235           00377        LOW8               OCT      377
003197:    5236           01400        OCT1400            OCT      1400
003198:
003199:
003200:
003201:    5237           00023        VD1                OCT      23
003202:    5240           00021        ND1                OCT      21
003203:    5241           00025        MD1                OCT      25
003204:
003205:    5242           00012        BINCON             DEC      10         B-14
003206:
003207:    5243           37651        FALTON             CA       BIT7                                  #  TURN ON OPERATOR ERROR LIGHT
003208:    5244           00006                           EXTEND
003209:    5245           05011                           WOR      DSALMOUT                              #  BIT 7 OF CHANNEL 11
003210:    5246           00002                           TC       Q
003211:
003212:    5247           47651        FALTOF             CS       BIT7                                  #  TURN OFF OPERATOR ERROR LIGHT
003213:    5250           00006                           EXTEND
003214:


003216:    5251           03011                           WAND     DSALMOUT                              #  BIT 7 OF CHANNEL 11
003217:    5252           00002                           TC       Q
003218:
003219:    5253           37653        RELDSPON           CAF      BIT5                                  #  TURN ON KEY RELEASE LIGHT
003220:    5254           00006                           EXTEND
003221:    5255           05011                           WOR      DSALMOUT                              #  BIT 5 OF CHANNEL 11
003222:    5256           00002                           TC       Q
003223:
003224:    5257           00006        LODSAMPT           EXTEND
003225:    5260           30025                           DCA      TIME2
003226:    5261           52014                           DXCH     SAMPTIME
003227:    5262           00002                           TC       Q
003228:
003229:
003230:
003231:    5263           00006        TPSL1              EXTEND                                         #  SHIFTS MPAC, +1, +2 LEFT 1
003232:    5264           30142                           DCA      MPAC       +1                         #  LEAVES OVFIND SET TO +/- 1 FOR OF/UF
003233:    5265           20142                           DAS      MPAC       +1
003234:    5266           60140                           AD       MPAC
003235:    5267           26140                           ADS      MPAC
003236:    5270           54007                           TS       7                                     #  TS A DOES NOT CHANGE A ON OF/UF.
003237:    5271           00002                           TC       Q                                     #  NO NET OF/UF
003238:    5272           54105                           TS       OVFIND                                #  OVFIND SET TO +/- 1 FOR OF/UF
003239:    5273           00002                           TC       Q
003240:
003241:
003242:
003243:    5274           37652        FLASHON            CAF      BIT6                                  #  TURN ON V/N FLASH
003244:    5275           00006                           EXTEND                                         #  BIT 6 OF CHANNEL 11
003245:    5276           05011                           WOR      DSALMOUT
003246:    5277           00002                           TC       Q
003247:
003248:
003249:
003250:    5300           47652        FLASHOFF           CS       BIT6                                  #  TURN OFF V/N FLASH
003251:    5301           00006                           EXTEND
003252:    5302           03011                           WAND     DSALMOUT                              #  BIT 6 OF CHANNEL 11
003253:    5303           00002                           TC       Q
003254:


003256:                                                                                                  #  INTERNAL ROUTINES THAT USE THE KEYBOARD AND DISPLAY SYSTEM(THRU
003257:                                                                                                  #  NVSUB) MUST  TC GRABDSP  BEFOREHAND , TO GRAB THE DISPLAY SYSTEM AND
003258:                                                                                                  #  MAKE IT BUSY TO OTHER INTERNAL USERS.
003259:
003260:                                                                                                  #        WHEN FINISHED , THERE MUST BE A TC FREEDSP , TO RELEASE THE
003261:                                                                                                  #  SYSTEM FOR OTHER INTERNAL USERS.
003262:
003263:                                                                                                  #        THE CALLING SEQUENCES ARE
003264:                                                                                                  #  L        TC     GRABDSP
003265:                                                                                                  #  L+1      RETURN HERE WHEN SYSTEM IS ALREADY GRABBED
003266:                                                                                                  #  L+2      RETURN HERE MEANS YOU HAVE IT
003267:
003268:                                                                                                  #  L        TC     NVSUB
003269:                                                                                                  #  L+1      RETURN HERE IF OPERATOR HAS INTERVENED
003270:                                                                                                  #  L+2      RETURN HERE AFTER EXECUTION
003271:
003272:
003273:
003274:                                                                                                  #        A ROUTINE CALLED GRABUSY IS PROVIDED (USE IS OPTIONAL) TO PUT YOUR
003275:                                                                                                  #  JOB TO SLEEP UNTIL THE SYSTEM IS FREED BY THE JOB HOLDING IT.
003276:                                                                                                  #  GRABUSY CANNOT BE CALLED FROM E MEMORY, SINCE JOBSLEEP AND JOBWAKE
003277:                                                                                                  #  HANDLE ONLY FIXED MEMORY.
003278:                                                                                                  #  YOUR CADR IS PUT AT FIRST AVAILABLE SLOT IN A WAITING LIST (FIFO).
003279:
003280:                                                                                                  #        THE CALLING SEQUENCE IS
003281:                                                                                                  #           CAF    WAKEFCADR
003282:                                                                                                  #           TC     GRABUSY
003283:
003284:                                                                                                  #        A ROUTINE CALLED NVSUBUSY IS PROVIDED (USE IS OPTIONAL)  TO PUT
003285:                                                                                                  #  YOUR JOB TO SLEEP UNTIL THE OPERATOR RELEASES IT.
003286:                                                                                                  #  NVSUBUSY CANNOT BE CALLED FROM E MEMORY, SINCE JOBSLEEP AND JOBWAKE
003287:                                                                                                  #  HANDLE ONLY FIXED MEMORY.
003288:                                                                                                  #                                              YOUR CADR IS PUT
003289:                                                                                                  #  ON TOP OF A WAITING LIST (FIFO). IT ALSO TURNS ON KEY RELEASE LIGHT.
003290:
003291:                                                                                                  #         THE CALLING SEQUENCE IS
003292:                                                                                                  #           CAF    WAKEFCADR
003293:                                                                                                  #           TC     NVSUBUSY
003294:
003295:
003296:                                                                                                  #  AFTER A TC FREEDSP, THE INTERNAL INTERLOCK IS KEPT BUSY FOR 10 SECONDS,
003297:                                                                                                  #  AFTER WHICH A CADR IS CALLED FROM THE LIST. THIS INSURES THAT ALL
003298:                                                                                                  #  DISPLAYS WAITING WILL BE VISIBLE.
003299:
003300:
003301:
003302:                                                                                                  #  GRABLOCK IS THE INTERNAL INTERLOCK FOR THE USE OF THE KEYBOARD
003303:                                                                                                  #  AND DISPLAY SYSTEM.
003304:                                                                                                  #  +0  FREE
003305:


003307:                                                                                                  #  +1  SOME INTERNAL ROUTINE HAS GRABBED DSP SYST
003308:                                                                                                  #  +2  SOME INTERNAL ROUTINE HAS GONE TO NVSUBUSY
003309:
003310:
003311:
003312:    5304           10324        GRABDSP            CCS      GRABLOCK
003313:    5305           00002                           TC       Q                                     #  ALREADY GRABBED, RETURN TO L+1
003314:    5306           37657                           CAF      ONE                                   #  NOT GRABBED, SET TO +1
003315:    5307           54324                           TS       GRABLOCK                              #  AND RETURN TO L+2
003316:    5310           50002                           INDEX    Q
003317:    5311           00001                           TC       1
003318:
003319:
003320:
003321:    5312           36426        PREGBSY            CAF      LOW10                                 #  SPECIAL ENTRANCE FOR ROUTINES IN FIXED
003322:    5313           70002                           MASK     Q                                     #  BANKS ONLY DESIRING THE FCADR OF
003323:    5314           60004                           AD       FBANK                                 #  1 + (LOC FROM WHICH TC PREGBSY WAS DONE)
003324:    5315           04102        GRABUSY            TC       POSTJUMP                              #  TO BE ENTERED.
003325:    5316           10000                           CADR     GRABUSYB
003326: 04,3454                                           SETLOC   DOPROC     +2
003327: 04,3454           54001        GRABUSY1           TS       L
003328: 04,3455           10324                           CCS      GRABLOCK
003329: 04,3456           03461                           TC       +3                                    #  STILL GRABBED
003330: 04,3457           30001                           CA       L                                     #  NOT GRABBED SO DO DIRECT CALL
003331: 04,3460           04105                           TC       BANKJUMP
003332: 04,3461           37656                           CAF      TWO
003333: 04,3462           54130                           TS       LSTPTR
003334: 04,3463           50130                           INDEX    LSTPTR                                #  SEARCH LIST FOR FIRST AVAILABLE SPACE
003335: 04,3464           10327                           CCS      DSPLIST                               #  FROM BOTTOM.
003336: 04,3465           03467                           TC       +2
003337: 04,3466           03472                           TC       PUTINLST                              #  SPACE FOUND
003338: 04,3467           10130                           CCS      LSTPTR                                #  DECREMENT POINTER
003339: 04,3470           03462                           TC       -6
003340: 04,3471           03536                           TC       LSTFULL
003341: 04,3472           30001        PUTINLST           CA       L
003342: 04,3473           50130                           INDEX    LSTPTR
003343: 04,3474           54327                           TS       DSPLIST
003344: 04,3475           04416                           TC       JOBSLEEP
003345:
003346:
003347:                                                                                                  #  GRABWAIT IS A SPECIAL ENTRANCE FOR ROUTINES IN FIXED BANKS ONLY. IF
003348:                                                                                                  #  SYSTEM IS NOT GRABBED, IT GRABS IT AND RETURNS TO L+1 ( L = LOC FROM
003349:                                                                                                  #  WHICH THE TC GRABWAIT WAS DONE). IF SYSTEM IS GRABBED, IT PUTS CALLING
003350:                                                                                                  #  JOB TO SLEEP WITH L+1 GOING INTO LIST FOR EVENTUAL WAKING UP WHEN
003351:                                                                                                  #  SYSTEM IS FREED.
003352:
003353:    5317                                           SETLOC   GRABUSY    +2
003354:    5317           10324        GRABWAIT           CCS      GRABLOCK
003355:    5320           15312                           TCF      PREGBSY                               #  GRABBED. PUT L+1 INTO LIST. GO TO SLEEP.
003356:


003358:    5321           37657                           CAF      ONE                                   #  NOT GRABBED. GRAB AND RETURN TO L+1.
003359:    5322           54324                           TS       GRABLOCK
003360:    5323           00002                           TC       Q
003361:
003362:
003363:
003364:    5324           45331        PRENVBSY           CS       2K+3                                  #  SPECIAL ENTRANCE FOR ROUTINES IN FIXED
003365:    5325           60002                           AD       Q                                     #  BANKS ONLY DESIRING THE FCADR OF(LOC
003366:    5326           60004                           AD       FBANK                                 #  FROM WHICH THE TC PRENVBSY WAS DONE) -2
003367:    5327           04102        NVSUBUSY           TC       POSTJUMP                              #  TO BE ENTERED.
003368:    5330           10001                           CADR     NVSUBSYB
003369:    5331           02003        2K+3               OCT      2003
003370:
003371: 04,3476                                           SETLOC   PUTINLST   +4
003372: 04,3476           54001        NVSUBSY1           TS       L
003373: 04,3477           10277                           CCS      DSPLOCK                               #  TEST IF REALLY LOCKED OUT
003374: 04,3500           03503                           TC       +3                                    #  STILL BUSY
003375: 04,3501           30001                           CA       L                                     #  DSPLOCK = +0 SO RETURN DIRECTLY
003376: 04,3502           04105                           TC       BANKJUMP
003377: 04,3503           37656                           CAF      TWO                                   #  SET FOR GRABBED STATE AND NVSUBUSY USE
003378: 04,3504           54324                           TS       GRABLOCK
003379: 04,3505           30001                           CA       L
003380: 04,3506           56331                           XCH      DSPLIST    +2                         #  ENTER CADR INTO FIRST POSITION OF LIST
003381: 04,3507           56330                           XCH      DSPLIST    +1                         #          (BOTTOM)
003382: 04,3510           56327                           XCH      DSPLIST
003383: 04,3511           10000                           CCS      A
003384: 04,3512           03536                           TC       LSTFULL
003385: 04,3513           03515                           TC       +2
003386: 04,3514           03536                           TC       LSTFULL
003387: 04,3515           05253                           TC       RELDSPON
003388: 04,3516           30001                           CA       L
003389: 04,3517           04416        ENDNVBSY           TC       JOBSLEEP
003390:
003391:
003392:
003393:                                                                                                  #  NVSBWAIT IS A SPECIAL ENTRANCE FOR ROUTINES IN FIXED BANKS ONLY. IF
003394:                                                                                                  #  SYSTEM IS NOT BUSY, IT EXECUTES V/N AND RETURNS TO L+1 (L= LOC FROM
003395:                                                                                                  #  WHICH THE TC NVSBWAIT WAS DONE). IF SYSTEM IS BUSY, IT PUTS CALLING JOB
003396:                                                                                                  #  TO SLEEP WITH L-1 GOING INTO LIST FOR EVENTUAL WAKING UP WHEN SYSTEM
003397:                                                                                                  #  IS NOT BUSY.
003398:
003399:    5332                                           SETLOC   NVSUBUSY   +3
003400:    5332           54107        NVSBWAIT           TS       NVTEMP
003401:    5333           10277                           CCS      DSPLOCK
003402:    5334           15337                           TCF      NVSBWT1                               #  BUSY
003403:    5335           30002                           CA       Q                                     #  FREE. NVSUB WILL SAVE L+1 FOR RETURN
003404:    5336           15114                           TCF      NVSUB      +5                         #  AFTER EXECUTION.
003405:    5337           24002        NVSBWT1            INCR     Q                                     #  L+2. PRENVBSY WILL PUT L-1 INTO LIST AND
003406:    5340           15324                           TCF      PRENVBSY                              #  GO TO SLEEP.
003407:


003409:    5341           56002        RELDSP             XCH      Q                                     #  SET DSPLOCK TO +0, TURN RELDSP LIGHT
003410:    5342           54130                           TS       RELRET                                #  OFF, SEARCH DSPLIST
003411:    5343           37667                           CAF      NEG1
003412:    5344           60324                           AD       GRABLOCK
003413:    5345           00006                           EXTEND                                         #  SEARCH LIST ONLY IF GRABLOCK = +2
003414:    5346           65354                           BZMF     RELDSP2                               #    (SOMEONE USED NVSUBUSY)
003415:    5347           05367                           TC       WKSEARCH
003416:    5350           05354                           TC       RELDSP2                               #  LIST EMPTY
003417:    5351           04422                           TC       JOBWAKE                               #  LIST NOT EMPTY
003418:    5352           37657                           CAF      ONE
003419:    5353           54324                           TS       GRABLOCK
003420:    5354           00004        RELDSP2            INHINT
003421:    5355           47653                           CS       BIT5                                  #  TURN OFF KEY RELEASE LIGHT
003422:    5356           00006                           EXTEND                                         #  (BIT 5 OF CHANNEL 11)
003423:    5357           03011                           WAND     DSALMOUT
003424:    5360           37665                           CAF      ZERO
003425:    5361           54277                           TS       DSPLOCK
003426:    5362           00003                           RELINT
003427:    5363           00130                           TC       RELRET
003428:    5364           56002        RELDSP1            XCH      Q                                     #  SET DSPLOCK TO +0. RELDSP LIGHT OFF.
003429:    5365           54130                           TS       RELRET                                #  NO LIST SEARCH
003430:    5366           05354                           TC       RELDSP2
003431:
003432:
003433:
003434:    5367           37665        WKSEARCH           CAF      ZERO                                  #  SEARCHES LIST. LEAVES RESULT IN A.
003435:    5370           56327                           XCH      DSPLIST                               #  IF EMPTY, RETURN TO L+1.
003436:    5371           56330                           XCH      DSPLIST    +1                         #  IF NOT EMPTY, INHINT AND RETURN TO L+2.
003437:    5372           56331                           XCH      DSPLIST    +2
003438:    5373           00006                           EXTEND
003439:    5374           15400                           BZF      +4                                    #  EMPTY
003440:    5375           00004                           INHINT                                         #  NOT EMPTY
003441:    5376           50002                           INDEX    Q                                     #  RETURN TO L+2
003442:    5377           00001                           TC       1
003443:    5400           00002                           TC       Q                                     #  RETURN TO L+1
003444:
003445:
003446:
003447:    5401           56002        FREEDSP            XCH      Q
003448:    5402           54130                           TS       FREERET
003449:    5403           00004                           INHINT
003450:    5404           35412                           CAF      SHOTIME
003451:    5405           04536                           TC       WAITLIST
003452:    5406     0264                                  EBANK=   DSPCOUNT
003453:    5406           03520 10000                     2CADR    FREEWAIT
003454:    5410           00003                           RELINT
003455:    5411           00130                           TC       FREERET
003456:
003457:    5412           01130        SHOTIME            DEC      600        B-14                       #  6 SECOND WAITING PERIOD.
003458:


003460:    5413                        ENDPINBF           EQUALS
003461:
003462: 04,3520                                           SETLOC   ENDNVBSY   +1
003463:
003464: 04,3520           35233        FREEWAIT           CAF      CHRPRIO                               #  CALLED BY T3RUPT
003465: 04,3521           04363                           TC       NOVAC
003466: 04,3522     0264                                  EBANK=   DSPCOUNT
003467: 04,3522           03525 10000                     2CADR    FREDSPD0
003468: 04,3524           04602                           TC       TASKOVER
003469:
003470:
003471:
003472: 04,3525           05367        FREDSPD0           TC       WKSEARCH                              #  CALLED BY EXECUTIVE
003473: 04,3526           03534                           TC       LSTEMPTY                              #  LIST EMPTY
003474: 04,3527           04422                           TC       JOBWAKE                               #  LIST NOT EMPTY
003475: 04,3530           00003                           RELINT
003476: 04,3531           37657                           CAF      ONE                                   #  SET FOR GRABBED CONDITION
003477: 04,3532           54324                           TS       GRABLOCK
003478: 04,3533           04440                           TC       ENDOFJOB
003479: 04,3534           37665        LSTEMPTY           CAF      ZERO                                  #  SET FOR FREE CONDITION
003480: 04,3535           03532                           TC       -3
003481:
003482:
003483:
003484: 04,3536           05446        LSTFULL            TC       ABORT
003485: 04,3537           01206                           OCT      01206                                 #  PINBALL WAITING LINE FULL.
003486:
003487: 04,3540                        ENDPINS1           EQUALS
003488:


003490:                                                                                                  #  VBTSTLTS TURNS ON ALL DISPLAY PANEL LIGHTS. AFTER 5 SEC, IT TURNS
003491:                                                                                                  #  OFF THE CAUTION AND STATUS LIGHTS.
003492:
003493: 05,3414                                           SETLOC   DSPMMEND   +1
003494:
003495: 05,3414           00004        VBTSTLTS           INHINT
003496: 05,3415           47657                           CS       BIT1                                  #  SET BIT 1 OF IMODES33 SO IMUMON WONT
003497: 05,3416           70370                           MASK     IMODES33                              #  TURN OUT ANY LAMPS.
003498: 05,3417           67657                           AD       BIT1
003499: 05,3420           54370                           TS       IMODES33
003500:
003501: 05,3421           33457                           CAF      TSTCON1                               #  TURN ON UPLINK ACTIVITY, TEMP, KEY RLSE,
003502: 05,3422           00006                           EXTEND                                         #  V/N FLASH, OPERATOR ERROR.
003503: 05,3423           05011                           WOR      DSALMOUT
003504: 05,3424           33460                           CAF      TSTCON2                               #  TURN ON NO ATT, GIMBAL LOCK, TRACKER,
003505: 05,3425           54322                           TS       DSPTAB     +11D                       #  PROG ALM.
003506: 05,3426           37646                           CAF      BIT10                                 #  TURN ON TEST ALARM OUTBIT
003507: 05,3427           00006                           EXTEND
003508: 05,3430           05013                           WOR      CHAN13
003509: 05,3431           37661                           CAF      TEN
003510: 05,3432           54103        TSTLTS1            TS       ERCNT
003511: 05,3433           43455                           CS       FULLDSP
003512: 05,3434           50103                           INDEX    ERCNT
003513: 05,3435           54307                           TS       DSPTAB
003514: 05,3436           10103                           CCS      ERCNT
003515: 05,3437           03432                           TC       TSTLTS1
003516: 05,3440           43456                           CS       FULLDSP1
003517: 05,3441           54310                           TS       DSPTAB     +1                         #  TURN ON 3 PLUS SIGNS
003518: 05,3442           54313                           TS       DSPTAB     +4
003519: 05,3443           54315                           TS       DSPTAB     +6
003520: 05,3444           37660                           CAF      ELEVEN
003521: 05,3445           54303                           TS       NOUT
003522: 05,3446           00003                           RELINT
003523: 05,3447           33462                           CAF      SHOLTS
003524: 05,3450           00004                           INHINT
003525: 05,3451           04536                           TC       WAITLIST
003526: 05,3452     0307                                  EBANK=   DSPTAB
003527: 05,3452           03463 12000                     2CADR    TSTLTS2
003528:
003529: 05,3454           04440                           TC       ENDOFJOB                              #  DSPLOCK IS LEFT BUSY (FROM KEYBOARD
003530:                                                                                                  #  ACTION) UNTIL TSTLTS3 TO INSURE THAT
003531:                                                                                                  #  LIGHTS TEST WILL BE SEEN.
003532:
003533:
003534:
003535: 05,3455           05675        FULLDSP            OCT      05675                                 #  DISPLAY ALL 8:S
003536: 05,3456           07675        FULLDSP1           OCT      07675                                 #  DISPLAY ALL 8:S AND +
003537: 05,3457           00175        TSTCON1            OCT      00175
003538:                                                                                                  #  UPLINK ACTIVITY, TEMP, KEY RLSE,
003539:                                                                                                  #  V/N FLASH, OPERATOR ERROR.
003540:


003542: 05,3460           40650        TSTCON2            OCT      40650                                 #  DSPTAB+11D BITS 4,6,8,9.
003543:                                                                                                  #  NO ATT, GIMBAL LOCK, TRACKER, PROG ALM.
003544: 05,3461           00115        TSTCON3            OCT      00115                                 #  CHAN 11 BITS 1, 3, 4, 7.
003545:                                                                                                  #  UPLINK ACTIVITY, TEMP, OPERATOR ERROR.
003546: 05,3462           00764        SHOLTS             OCT      764                                   #  5 SEC
003547:
003548:
003549:
003550: 05,3463           35233        TSTLTS2            CAF      CHRPRIO                               #  CALLED BY WAITLIST
003551: 05,3464           04363                           TC       NOVAC
003552: 05,3465     0307                                  EBANK=   DSPTAB
003553: 05,3465           03470 12000                     2CADR    TSTLTS3
003554:
003555: 05,3467           04602                           TC       TASKOVER
003556:
003557:
003558:
003559: 05,3470           43461        TSTLTS3            CS       TSTCON3                               #  CALLED BY EXECUTIVE
003560: 05,3471           00004                           INHINT
003561: 05,3472           00006                           EXTEND                                         #  TURN OFF  UPLINK ACTIVITY, TEMP,
003562: 05,3473           03011                           WAND     DSALMOUT                              #  OPERATOR ERROR.
003563: 05,3474           47646                           CS       BIT10                                 #  TURN OFF  TEST ALARM OUTBIT
003564: 05,3475           00006                           EXTEND
003565: 05,3476           03013                           WAND     CHAN13
003566: 05,3477           37641                           CAF      BIT15                                 #  TURN OFF AUTO, HOLD, FREE, NO ATT, SPARE
003567: 05,3500           54322                           TS       DSPTAB     +11D                       #  GIMBAL LOCK, SPARE, TRACKER, PROG ALM
003568: 05,3501           43521                           CS       13-11,1                               #  SET BITS TO INDICATE ALL LAMPS OUT. TEST
003569: 05,3502           70370                           MASK     IMODES33                              #  LIGHTS COMPLETE.
003570: 05,3503           64515                           AD       PRIO16
003571: 05,3504           54370                           TS       IMODES33
003572:
003573: 05,3505           43523                           CS       OCT55000
003574: 05,3506           70367                           MASK     IMODES30
003575: 05,3507           64514                           AD       PRIO15                                #  15000.
003576: 05,3510           54367                           TS       IMODES30
003577:
003578: 05,3511           43522                           CS       RFAILS2
003579: 05,3512           70413                           MASK     RADMODES
003580: 05,3513           67651                           AD       BIT7
003581: 05,3514           54413                           TS       RADMODES
003582:
003583: 05,3515           00003                           RELINT
003584:
003585: 05,3516           02001                           TC       DSPMM                                 #  REDISPLAY C(MODREG)
003586: 05,3517           04102                           TC       POSTJUMP                              #  TURN OFF KEY RLSE LIGHT ( AND SEARCH LIST
003587: 05,3520           11315                           CADR     VBTERM                                #  IF APPROPRIATE).
003588:                                                                                                  #  TURN OFF V/N FLASH, SET LOADSTAT FOR
003589:                                                                                                  #  FOR TERMINATE CONDITION, AND GO TO
003590:                                                                                                  #  RECALTST. FINALLY DO TC ENDOFJOB.
003591:


003593: 05,3521           16001        13-11,1            OCT      16001
003594: 05,3522           00330        RFAILS2            OCT      330                                   #  RADAR CDU AND DATA FAIL FLAGS.
003595: 05,3523           55000        OCT55000           OCT      55000
003596: 05,3524                        ENDPINS2           EQUALS

End of include-file PINBALL_GAME__BUTTONS_AND_LIGHTS.agc.  Parent file is MAIN.agc


