
Source Code


000002:                                                                                                  #  Copyright:    Public domain.
000003:                                                                                                  #  Filename:     Q,R-AXES_REACTION_CONTROL_SYSTEM_AUTOPILOT.agc
000004:                                                                                                  #  Purpose:      Part of the source code for Aurora (revision 12).
000005:                                                                                                  #  Assembler:    yaYUL
000006:                                                                                                  #  Contact:      Hartmuth Gutsche <hgutsche@xplornet.com>.
000007:                                                                                                  #  Website:      https://www.ibiblio.org/apollo.
000008:                                                                                                  #  Pages:        562-593
000009:                                                                                                  #  Mod history:  2016-09-20 JL   Created.
000010:                                                                                                  #                2016-09-30 HG   Started transcribing from scan
000011:                                                                                                  #                2016-10-08 HG   Change TS  Q -> TC  Q (p. 584)
000012:                                                                                                  #                2016-10-15 HG   fix label  MAXJET -> MAXTJET
000013:                                                                                                  #                                           ORGTOA -> URGTOA
000014:                                                                                                  #                                           TQRGTTM1 -> TQRGTTMI
000015:                                                                                                  #                                           NEGQERROR -> NEGQEROR
000016:                                                                                                  #                                fix operand NEGSCP -> NEGCSP
000017:                                                                                                  #                                            UREGNCYQ -> URGENCYQ
000018:                                                                                                  #                                            .5ACCMNS -> .5ACCMNE
000019:                                                                                                  #                                            25,32.QR -> 25/32.QR
000020:                                                                                                  #                                            Q-NORTJS -> Q-NORJTS
000021:                                                                                                  #                                            -RATDEB -> -RATEDB
000022:                                                                                                  #                                            CHECKSTIK -> CHEKSTIK
000023:
000024:                                                                                                  #  This source code has been transcribed or otherwise adapted from
000025:                                                                                                  #  digitized images of a hardcopy from the private collection of
000026:                                                                                                  #  Don Eyles.  The digitization was performed by archive.org.
000027:
000028:                                                                                                  #  Notations on the hardcopy document read, in part:
000029:
000030:                                                                                                  #        473423A YUL SYSTEM FOR BLK2: REVISION 12 of PROGRAM AURORA BY DAP GROUP
000031:                                                                                                  #        NOV 10, 1966
000032:
000033:                                                                                                  #        [Note that this is the date the hardcopy was made, not the
000034:                                                                                                  #        date of the program revision or the assembly.]
000035:
000036:                                                                                                  #  The scan images (with suitable reduction in storage size and consequent
000037:                                                                                                  #  reduction in image quality) are available online at
000038:                                                                                                  #        https://www.ibiblio.org/apollo.
000039:                                                                                                  #  The original high-quality digital images are available at archive.org:
000040:                                                                                                  #        https://archive.org/details/aurora00dapg
000041:


000043: 24,2000                                           BANK     24
000044: 24,2000  E6,1551                                  EBANK=   DT
000045:                                                                                                  #  THE FOLLOWING T5RUPT ENTRY BEGINS THE PROGRAM WHICH CONTROLS THE Q,R-AXIS ACTION OF THE LEM USING THE RCS JETS.
000046:                                                                                                  #  THE NOMINAL TIME BETWEEN THE Q,R-AXIS RUPTS IS 100 MS (UNLESS THE TRIM GIMBAL CONTROL SYSTEM IS USED, IN WHICH
000047:                                                                                                  #  CASE THIS PROGRAM IS IDLE).
000048:
000049: 24,2000           02555 54006  NULLFILT           2CADR    FILDUMMY
000050:
000051: 24,2002           32705        QRAXIS             CAF      MS30QR                                #  RESET TIME IMMEDIATELY: DT = 30 MS
000052: 24,2003           54030                           TS       TIME5
000053:
000054: 24,2004           22016                           LXCH     BANKRUPT                              #  INTERRUPT LEAD IN (CONTINUED)
000055: 24,2005           00006                           EXTEND
000056: 24,2006           22012                           QXCH     QRUPT
000057:
000058:                                                                                                  #  SET UP DUMMY KALMAN FILTER T5RUPT.  (THIS MAY BE RESET TO THE KALMAN FILTER INITIALIZATION PASS, IF THE TRIM
000059:                                                                                                  #  GIMBAL CONTROL SYSTEM SHOULD BE USED.)
000060:
000061: 24,2007           00006                           EXTEND
000062: 24,2010           32001                           DCA      NULLFILT
000063: 24,2011           52346                           DXCH     T5ADR
000064:
000065:                                                                                                  #  CALCULATE LEM BODY RATES FOR Q AND R AXES:
000066:
000067:                                                                                                  #  THIS COMPUTATION IS VALID FOR BOTH ASCENT ADN DESCENT SINCE THE OFFSET ACCELERATION TERM IS INCLUDED ALWAYS,
000068:                                                                                                  #  BUT HAS VALUE ZERO IN DESCENT, AND SINCE THE WEIGHTING FACTORS ARE IN ERASABLE AND DISTINCT.
000069:
000070:                                                                                                  #  FIRST, CONSTRUCT Y AND Z CDU INCREMENTS:
000071:
000072: 24,2012           30033                           CAE      CDUY                                  #  2'S COMPLEMENT MEASUREMENT SCALED AT PI
000073: 24,2013           54001                           TS       L                                     #  (SAVE FOR UPDATING OF OLDYFORQ)
000074: 24,2014           00006                           EXTEND                                         #  FORM INCREMENT IN CDUY FOR LAST 100 MS
000075: 24,2015           21433                           MSU      OLDYFORQ                              #  (100 MS OLD CDUY SAVED FROM LAST PASS)
000076: 24,2016           23433                           LXCH     OLDYFORQ                              #  UPDATE OLDYFORQ WITH NEW CDUY VALUE
000077: 24,2017           00006                           EXTEND                                         #  RESCALE DELTA CDUY FROM PI RADIANS TO
000078: 24,2020           77651                           MP       BIT7                                  #  PI/2(6) RADIANS BY MULTIPLYING BY 64
000079: 24,2021           22065                           LXCH     ITEMP1                                #  SAVE 1'S COMPLEMENT VALUE TEMPORARILY
000080: 24,2022           30034                           CAE      CDUZ                                  #  2'S COMPLEMENT MEASUREMENT SCALED AT PI
000081: 24,2023           54001                           TS       L                                     #  (SAVE FOR UPDATING OF OLDZFORQ)
000082: 24,2024           00006                           EXTEND                                         #  FORM INCREMENT IN CDUZ FOR LAST 100 MS
000083: 24,2025           21434                           MSU      OLDZFORQ                              #  (100 MS OLD CDUZ SAVED FROM LAST PASS)
000084: 24,2026           23434                           LXCH     OLDZFORQ                              #  UPDATE OLDZFORQ WITH NEW CDUZ VALUE
000085: 24,2027           00006                           EXTEND                                         #  RESCALE DELTA CDUZ FROM PI RADIANS TO
000086: 24,2030           77651                           MP       BIT7                                  #  PI/2(6) RADIANS BY MULTIPLYING BY 64
000087: 24,2031           22066                           LXCH     ITEMP2                                #  SVAE 1'S COMPLEMENT VALUE TEMPORARILY
000088:


000090:
000091:                                                                                                  #  SECOND TRANSFORM CPU INCREMENTS TO BODY-ANGLE INCREMENTS:
000092: 24,2032           31406                           CAE      M31                                   #  MATRIX*VECTOR(WITH x COMPONENT ZERO)
000093: 24,2033           00006                           EXTEND
000094: 24,2034           70065                           MP       ITEMP1                                #  M31 * ITEMP1 = M31 * DELTA CDUY
000095: 24,2035           54070                           TS       ITEMP3
000096: 24,2036           31403                           CAE      M32                                   #  M32 * ITEMP2 = M32 * DELTA CDUZ
000097: 24,2037           00006                           EXTEND
000098: 24,2040           70066                           MP       ITEMP2                                #  DELTAR = M31*(DEL CDUY) + M32*(DEL CDUZ)
000099: 24,2041           26070                           ADS      ITEMP3                                #  R-BODY-ANGLE INCREMENT SCALED AT PI/2(6)
000100:
000101: 24,2042           31405                           CAE      M21                                   #  MATRIX*VECTOR(WITH X COMPONENT ZERO)
000102: 24,2043           00006                           EXTEND                                         #  CLOBBERS ITEMP2=DEL CDUZ, FOR EFFICIENCY
000103: 24,2044           70065                           MP       ITEMP1                                #  M21 * ITEMP1 = M21 * DELTA CDUY
000104: 24,2045           56066                           XCH      ITEMP2                                #  M22 * ITEMP2 = M22 * DELTA CDUZ
000105: 24,2046           00006                           EXTEND
000106: 24,2047           71401                           MP       M22                                   #  DELTAQ = M21*(DEL CDUY) + M22*(DEL CDUZ)
000107: 24,2050           26066                           ADS      ITEMP2                                #  Q-BODY-ANGLE INCREMENT SCALED AT PI/2(6)
000108:
000109:                                                                                                  #  FINALLY, DERIVE Q AND R BODY ANGULAR RATES:
000110:
000111: 24,2051           00006                           EXTEND                                         #  WFORQR IS K/(NOMINAL DT) SCALED AT 16
000112: 24,2052           71656                           MP       WFORQR                                #  FORM WEIGHTED VALUE OF MEASURED DATA
000113: 24,2053           57417                           XCH      OMEGAQ                                #  SAVE AND BEGIN TO WEIGHT VALUE OF OLD W
000114: 24,2054           00006                           EXTEND                                         #  (1-K) IS SCALED AT 1 FOR EFFICIENT CALC
000115: 24,2055           71657                           MP       (1-K)QR                               #  (K CHANGES EVERY 2 SECS IN ASCENT)
000116: 24,2056           61616                           AD       JETRATEQ                              #  WEIGHTED TERM DUE TO JET ACCELERATION
000117: 24,2057           61642                           AD       AOSQTERM                              #  TERM DUE TO ASCENT OFFSET ACCELERATION
000118: 24,2060           27417                           ADS      OMEGAQ                                #  TOTAL RATE ESTIMATE SCALED AT PI/4
000119:
000120: 24,2061           30070                           CAE      ITEMP3                                #  GET DELTAR
000121: 24,2062           00006                           EXTEND                                         #  WFORQR IS K/(NOMINAL DT) SCALED AT 16
000122: 24,2063           71656                           MP       WFORQR                                #  FORM WEIGHTED VALUE OF MEASURED DATA
000123: 24,2064           57421                           XCH      OMEGAR                                #  SAVE AND BEGIN TO WEIGHT VALUE OF OLD W
000124: 24,2065           00006                           EXTEND                                         #  (1-K) IS SCALED AT 1 FOR EFFICIENT CALC
000125: 24,2066           71657                           MP       (1-K)QR                               #  (K CHANGES EVERY 2 SECS IN ASCENT)
000126: 24,2067           61617                           AD       JETRATER                              #  WEIGHTED TERM DUE TO JET ACCELERATION
000127: 24,2070           61643                           AD       AOSRTERM                              #  TERM DUE TO ASCENT OFFSET ACCELERATION
000128: 24,2071           27421                           ADS      OMEGAR                                #  TOTAL RATE ESTIMATE SCALED AT PI/4
000129:
000130: 24,2072           01614                           TC       QJUMPADR
000131: 24,2073           32164        SKIPQRAX           CA       NORMQADR
000132: 24,2074           55614                           TS       QJUMPADR
000133: 24,2075           37665                           CA       ZERO
000134: 24,2076           55616                           TS       JETRATEQ
000135: 24,2077           55617                           TS       JETRATER
000136: 24,2100           31626                           CA       TQR
000137: 24,2101           62721                           AD       NEGCSP2
000138: 24,2102           10000                           CCS      A
000139: 24,2103           02113                           TC       QRTORQUE
000140:


000142: 24,2104           14606                           TCF      RESUME
000143: 24,2105           02113                           TC       QRTORQUE
000144: 24,2106           41616                           CS       JETRATEQ
000145: 24,2107           27417                           ADS      OMEGAQ
000146: 24,2110           41617                           CS       JETRATER
000147: 24,2111           27421                           ADS      OMEGAR
000148: 24,2112           14606                           TCF      RESUME
000149: 24,2113           67657        QRTORQUE           AD       ONE
000150: 24,2114           00006                           EXTEND
000151: 24,2115           77653                           MP       BIT5
000152: 24,2116           30001                           CA       L
000153: 24,2117           00006                           EXTEND
000154: 24,2120           72722                           MP       16/25QR
000155: 24,2121           55626                           TS       TQR
000156: 24,2122           00006                           EXTEND
000157: 24,2123           71620                           MP       NO.QJETS
000158: 24,2124           30001                           CAE      L
000159: 24,2125           00006                           EXTEND
000160: 24,2126           71630                           MP       1JACCQ
000161: 24,2127           55616                           TS       JETRATEQ
000162: 24,2130           27640                           ADS      SUMRATEQ
000163: 24,2131           31626                           CAE      TQR
000164: 24,2132           00006                           EXTEND
000165: 24,2133           71621                           MP       NO.RJETS
000166: 24,2134           30001                           CAE      L
000167: 24,2135           00006                           EXTEND
000168: 24,2136           71631                           MP       1JACCR
000169: 24,2137           55617                           TS       JETRATER
000170: 24,2140           27641                           ADS      SUMRATER
000171: 24,2141           31656                           CAE      WFORQR
000172: 24,2142           00006                           EXTEND
000173: 24,2143           71626                           MP       TQR
000174: 24,2144           61660                           AD       (1-K)/8
000175: 24,2145           00006                           EXTEND
000176: 24,2146           77654                           MP       BIT4
000177: 24,2147           22065                           LXCH     ITEMP1
000178: 24,2150           31616                           CAE      JETRATEQ
000179: 24,2151           00006                           EXTEND
000180: 24,2152           70065                           MP       ITEMP1
000181: 24,2153           55616                           TS       JETRATEQ
000182: 24,2154           31617                           CAE      JETRATER
000183: 24,2155           00006                           EXTEND
000184: 24,2156           70065                           MP       ITEMP1
000185: 24,2157           55617                           TS       JETRATER
000186: 24,2160           37665                           CA       ZERO
000187: 24,2161           55620                           TS       NO.QJETS
000188: 24,2162           55621                           TS       NO.RJETS
000189: 24,2163           00002                           TC       Q
000190: 24,2164           02165        NORMQADR           GENADR   NORMALQ
000191: 24,2165           37643        NORMALQ            CAF      BIT13                                 #  CHECKING ATTITUDE HOLD BIT
000192:


000194: 24,2166           00006                           EXTEND
000195: 24,2167           02031                           RAND     31                                    #  BITS INVERTED
000196: 24,2170           00006                           EXTEND
000197: 24,2171           12205                           BZF      CHKBIT10
000198: 24,2172           37642                           CAF      BIT14                                 #  ATT HOLD BIT NOT PRESENT. CHECK FOR AUTO
000199: 24,2173           00006                           EXTEND
000200: 24,2174           02031                           RAND     31
000201: 24,2175           00006                           EXTEND
000202: 24,2176           12743                           BZF      ATTSTEER                              #  AUTOMATIC STEERING, CHECK FOR RATE HOLD
000203: 24,2177           00006                           EXTEND                                         #  IF MODE SELECT SW OFF DO DAPIDLER NEXT
000204: 24,2200           32204                           DCA      IDLEADRQ
000205: 24,2201           52346                           DXCH     T5ADR
000206: 24,2202           14606                           TCF      RESUME
000207:
000208: 24,2203           03141 46006  IDLEADRQ           2CADR    DAPIDLER
000209:
000210: 24,2205           37646        CHKBIT10           CAF      BIT10                                 #  BIT10=1 FOR MIN IMP USE OF RHC
000211: 24,2206           70765                           MASK     DAPBOOLS
000212: 24,2207           00006                           EXTEND
000213: 24,2210           12250                           BZF      CHEKSTIK                              #  IN ATT-HOLD/RATE-COMMAND IF BIT10=0
000214:
000215: 24,2211           30773                           CAE      DELAYCTR                              #  SET TO 2 BY RUPT 10
000216: 24,2212           00006                           EXTEND
000217: 24,2213           12504                           BZF      XTRANS
000218:
000219: 24,2214           32713                           CA       MINTADR
000220: 24,2215           55514                           TS       TJETADR
000221:
000222: 24,2216           37657                           CA       BIT1
000223: 24,2217           00006                           EXTEND
000224: 24,2220           02031                           RAND     31
000225: 24,2221           00006                           EXTEND
000226: 24,2222           13453                           BZF      2JETS+Q
000227:
000228: 24,2223           37656                           CA       BIT2
000229: 24,2224           00006                           EXTEND
000230: 24,2225           02031                           RAND     31
000231: 24,2226           00006                           EXTEND
000232: 24,2227           13271                           BZF      2JETS-Q
000233:
000234: 24,2230           37653                           CA       BIT5
000235: 24,2231           00006                           EXTEND
000236: 24,2232           02031                           RAND     31
000237: 24,2233           00006                           EXTEND
000238: 24,2234           13433                           BZF      2JETS+R
000239:
000240: 24,2235           37652                           CA       BIT6
000241: 24,2236           00006                           EXTEND
000242: 24,2237           02031                           RAND     31
000243: 24,2240           00006                           EXTEND
000244:


000246: 24,2241           13224                           BZF      2JETS-R
000247:
000248: 24,2242           12504                           TCF      XTRANS
000249:
000250: 24,2243           32702        MINTJET            CAF      +T6TJMIN
000251: 24,2244           55626                           TS       TQR
000252: 24,2245           37665                           CA       ZERO
000253: 24,2246           54773                           TS       DELAYCTR
000254: 24,2247           12554                           TCF      TORQUEV
000255:
000256: 24,2250           37641        CHEKSTIK           CAF      BIT15                                 #  OUT-OF-DETENT BIT
000257: 24,2251           00006                           EXTEND
000258: 24,2252           02031                           RAND     31                                    #  BITS INVERTED
000259:
000260: 24,2253           00006                           EXTEND
000261: 24,2254           12317                           BZF      RHCACTIV                              #  BRANCH IF OUT OF DETENT
000262: 24,2255           37657                           CA       BIT1                                  #  OUR RATE COMMAND BIT
000263: 24,2256           70765                           MASK     DAPBOOLS
000264:
000265: 24,2257           00006                           EXTEND
000266: 24,2260           62743                           BZMF     ATTSTEER                              #  AUTOMATIC STEERING, CHECK FOR RATE HOLD
000267:                                                                                                  #  WE WERE IN RATE COMMAND AND RATES MUST BE MADE SMALLER
000268:
000269:                                                                                                  #   ARE RATES SMALL ENOUGH NOW
000270: 24,2261           31416                           CA       OMEGAP
000271: 24,2262           00006                           EXTEND
000272: 24,2263           70000                           SQUARE
000273: 24,2264           52066                           DXCH     ITEMP1
000274:
000275: 24,2265           31417                           CA       OMEGAQ
000276: 24,2266           00006                           EXTEND
000277: 24,2267           70000                           SQUARE
000278: 24,2270           20066                           DAS      ITEMP1
000279:
000280: 24,2271           31421                           CA       OMEGAR
000281: 24,2272           00006                           EXTEND
000282: 24,2273           70000                           SQUARE
000283: 24,2274           20066                           DAS      ITEMP1
000284:
000285:                                                                                                  #  WE NOW HAVE SQUARED MAGNITUDE OF RATE VECTOR IN ITEMP1
000286: 24,2275           42707                           CS       16/32400                              #  1DEG/SEC SCALED AT PI.PI/16
000287: 24,2276           60065                           AD       ITEMP1
000288: 24,2277           00006                           EXTEND
000289: 24,2300           62306                           BZMF     RATESMAL
000290:
000291:                                                                                                  #           THE RATE IS NOT SMALL ENOUGH YET.
000292:
000293: 24,2301           31417                           CA       OMEGAQ
000294: 24,2302           55424                           TS       QRATEDIF
000295: 24,2303           31421                           CA       OMEGAR
000296:


000298: 24,2304           55425                           TS       RRATEDIF
000299: 24,2305           12352                           TCF      OBEYQRRC
000300:
000301: 24,2306           47657        RATESMAL           CS       BIT1
000302: 24,2307           70765                           MASK     DAPBOOLS                              #  RATE COMMAND BIT SET TO ZERO
000303: 24,2310           54765                           TS       DAPBOOLS
000304:
000305: 24,2311           30032                           CAE      CDUX
000306: 24,2312           54774                           TS       CDUXD
000307: 24,2313           30033                           CAE      CDUY
000308: 24,2314           54775                           TS       CDUYD
000309: 24,2315           30034                           CAE      CDUZ
000310: 24,2316           54776                           TS       CDUZD
000311:
000312: 24,2317           37657        RHCACTIV           CAF      BIT1
000313: 24,2320           70765                           MASK     DAPBOOLS
000314: 24,2321           00006                           EXTEND
000315: 24,2322           12504                           BZF      XTRANS                                #  LET P AXIS SET THE RATE COMMAND BIT
000316:                                                                                                  #  COMPUTE RATE ERRORS
000317: 24,2323           30042                           CAE      Q-RHCCTR
000318: 24,2324           00006                           EXTEND
000319: 24,2325           77647                           MP       BIT9
000320: 24,2326           32714                           CA       -.88975
000321: 24,2327           00006                           EXTEND
000322: 24,2330           70001                           MP       L                                     #  -Q RATE COMMAND SCALED AT PI/4
000323: 24,2331           61417                           AD       OMEGAQ
000324: 24,2332           55424                           TS       QRATEDIF
000325:
000326: 24,2333           30044                           CAE      R-RHCCTR
000327: 24,2334           00006                           EXTEND
000328: 24,2335           77647                           MP       BIT9
000329: 24,2336           32714                           CA       -.88975
000330: 24,2337           00006                           EXTEND
000331: 24,2340           70001                           MP       L                                     #  -R RATE COMMAND SCALED AT PI/4
000332: 24,2341           61421                           AD       OMEGAR
000333: 24,2342           55425                           TS       RRATEDIF
000334:
000335:                                                                                                  #  ZERO,ENABLE,AND START COUNTERS
000336: 24,2343           37665                           CAF      ZERO
000337: 24,2344           54043                           TS       P-RHCCTR
000338: 24,2345           54042                           TS       Q-RHCCTR
000339: 24,2346           54044                           TS       R-RHCCTR
000340: 24,2347           32710                           CAF      BIT8,9
000341: 24,2350           00006                           EXTEND
000342: 24,2351           05013                           WOR      13
000343:
000344: 24,2352           32734        OBEYQRRC           CA       RTJETADR
000345: 24,2353           55514                           TS       TJETADR
000346:
000347: 24,2354           11424                           CCS      QRATEDIF
000348:


000350: 24,2355           12416                           TCF      POSQEROR
000351: 24,2356           12360                           TCF      NOQJETS
000352: 24,2357           12365                           TCF      NEGQEROR
000353:
000354: 24,2360           11425        NOQJETS            CCS      RRATEDIF                              #  CHECK SIGN OF RATE ERROR AND GET ABVAL
000355: 24,2361           12445                           TCF      R+,CHKDB
000356: 24,2362           12504                           TCF      XTRANS
000357: 24,2363           12456                           TCF      R-,CHKDB
000358: 24,2364           12504                           TCF      XTRANS
000359:
000360: 24,2365           61506        NEGQEROR           AD       -RATEDB
000361: 24,2366           00006                           EXTEND
000362: 24,2367           62360                           BZMF     NOQJETS
000363:
000364: 24,2370           11425                           CCS      RRATEDIF
000365: 24,2371           12402                           TCF      R+Q-CHKR
000366: 24,2372           12374                           TCF      Q-NORJTS
000367: 24,2373           12407                           TCF      R-Q-CHKR
000368:
000369: 24,2374           41424        Q-NORJTS           CS       QRATEDIF
000370: 24,2375           55443                           TS       RATEDIF
000371: 24,2376           61507                           AD       -2JETLIM
000372: 24,2377           00006                           EXTEND
000373: 24,2400           63453                           BZMF     2JETS+Q
000374: 24,2401           13447                           TCF      4JETS+Q
000375:
000376: 24,2402           61506        R+Q-CHKR           AD       -RATEDB
000377: 24,2403           00006                           EXTEND
000378: 24,2404           62374                           BZMF     Q-NORJTS
000379: 24,2405           03656                           TC       EDOTVGEN
000380: 24,2406           13360                           TCF      2-V.RATE
000381:
000382: 24,2407           61506        R-Q-CHKR           AD       -RATEDB
000383: 24,2410           00006                           EXTEND
000384: 24,2411           62374                           BZMF     Q-NORJTS
000385: 24,2412           03652                           TC       EDOTUGEN
000386: 24,2413           00006                           EXTEND
000387: 24,2414           61425                           SU       RRATEDIF
000388: 24,2415           13405                           TCF      2+U.RATE
000389:
000390: 24,2416           61506        POSQEROR           AD       -RATEDB
000391: 24,2417           00006                           EXTEND
000392: 24,2420           62360                           BZMF     NOQJETS
000393:
000394: 24,2421           11425                           CCS      RRATEDIF
000395: 24,2422           12433                           TCF      R+Q+CHKR
000396: 24,2423           12425                           TCF      Q+NORJTS
000397: 24,2424           12440                           TCF      R-Q+CHKR
000398:
000399: 24,2425           31424        Q+NORJTS           CA       QRATEDIF
000400:


000402: 24,2426           55443                           TS       RATEDIF
000403: 24,2427           61507                           AD       -2JETLIM
000404: 24,2430           00006                           EXTEND
000405: 24,2431           63271                           BZMF     2JETS-Q
000406: 24,2432           13265                           TCF      4JETS-Q
000407:
000408: 24,2433           61506        R+Q+CHKR           AD       -RATEDB
000409: 24,2434           00006                           EXTEND
000410: 24,2435           62425                           BZMF     Q+NORJTS
000411: 24,2436           03652                           TC       EDOTUGEN
000412: 24,2437           13245                           TCF      2-U.RATE
000413:
000414: 24,2440           61506        R-Q+CHKR           AD       -RATEDB
000415: 24,2441           00006                           EXTEND
000416: 24,2442           62425                           BZMF     Q+NORJTS
000417: 24,2443           03656                           TC       EDOTVGEN
000418: 24,2444           13312                           TCF      2+V.RATE
000419:
000420: 24,2445           61506        R+,CHKDB           AD       -RATEDB
000421: 24,2446           00006                           EXTEND
000422: 24,2447           62504                           BZMF     XTRANS
000423: 24,2450           31425                           CA       RRATEDIF
000424: 24,2451           55443                           TS       RATEDIF
000425: 24,2452           61507                           AD       -2JETLIM
000426: 24,2453           00006                           EXTEND
000427: 24,2454           63224                           BZMF     2JETS-R
000428: 24,2455           13220                           TCF      4JETS-R
000429:
000430: 24,2456           61506        R-,CHKDB           AD       -RATEDB
000431: 24,2457           00006                           EXTEND
000432: 24,2460           62504                           BZMF     XTRANS
000433: 24,2461           41425                           CS       RRATEDIF
000434: 24,2462           55443                           TS       RATEDIF
000435: 24,2463           61507                           AD       -2JETLIM
000436: 24,2464           00006                           EXTEND
000437: 24,2465           63433                           BZMF     2JETS+R
000438: 24,2466           13427                           TCF      4JETS+R
000439:
000440: 24,2467           11443        RTJETIME           CCS      RATEDIF                               #  SCALED AT PI/4 RADIANS/SECOND
000441: 24,2470           67657                           AD       ONE
000442: 24,2471           12473                           TCF      +2
000443: 24,2472           67657                           AD       ONE                                   #  ABS(RATEDIF)
000444: 24,2473           00006                           EXTEND
000445: 24,2474           71471                           MP       1/NJETAC                              #  SCALED AT 2(8)/PI SECONDS(2)/RADIANS
000446: 24,2475           00006                           EXTEND
000447: 24,2476           77654                           MP       BIT4                                  #  SCALED AT 2(3) SECONDS
000448: 24,2477           30001                           CAE      L
000449: 24,2500           00006                           EXTEND
000450: 24,2501           72703                           MP       25/32.QR                              #  TJET NOW PROPERLY SCALED IN A
000451: 24,2502           55626                           TS       TQR                                   #  AT 2(4)16/25 SECONDS
000452:


000454: 24,2503           12554                           TCF      TORQUEV
000455:
000456:
000457:
000458:                                                                                                  #  TRANSLATION WITHOUT ROTATION IS ACCOMPLISHED IN XTRANS SECTION
000459:
000460: 24,2504           37665        XTRANS             CA       ZERO
000461: 24,2505           55504                           TS       ADDTLT6
000462: 24,2506           55503                           TS       ADDT6JTS
000463: 24,2507           37652                           CA       BIT6
000464: 24,2510           70765                           MASK     DAPBOOLS                              #  CHECKING THE ULLAGE BIT
000465:
000466: 24,2511           00006                           EXTEND
000467: 24,2512           12516                           BZF      +4
000468: 24,2513           32723                           CA       ALL+XJTS                              #  ULLAGE JETS
000469: 24,2514           04225        WRITEON            TC       WRITEQR
000470: 24,2515           14606                           TCF      RESUME
000471: 24,2516           37651                 +4        CAF      BIT7
000472: 24,2517           00006                           EXTEND
000473: 24,2520           02031                           RAND     31
000474: 24,2521           00006                           EXTEND
000475: 24,2522           12532                           BZF      +XTRANS
000476:
000477: 24,2523           37650                           CA       BIT8                                  #  -X TRANS BIT.INVERTED
000478: 24,2524           00006                           EXTEND
000479: 24,2525           02031                           RAND     31
000480: 24,2526           00006                           EXTEND
000481: 24,2527           12543                           BZF      -XTRANS
000482: 24,2530           37665        NOTORQUE           CA       ZERO
000483: 24,2531           12514                           TCF      WRITEON
000484: 24,2532           32724        +XTRANS            CAF      2,10-OUT                              #  CHECK FOR FAILURE OF 2 OR 10
000485: 24,2533           00006                           EXTEND
000486: 24,2534           06032                           RXOR     32
000487: 24,2535           00006                           EXTEND
000488: 24,2536           12541                           BZF      +3                                    #  2 AND 10 GOOD
000489: 24,2537           32726                           CA       +X,B                                  #  SINCE 2 OR 10 FAILED, USE 6 AND 14 OF B
000490: 24,2540           12514                           TCF      WRITEON
000491: 24,2541           32725                 +3        CA       +X,A                                  #  2 AND 10 SYSTEM A
000492: 24,2542           12514                           TCF      WRITEON
000493: 24,2543           32727        -XTRANS            CAF      1,9-OUT                               #  CHECK FOR FAILURE OF 1 OR 9
000494: 24,2544           00006                           EXTEND
000495: 24,2545           06032                           RXOR     32
000496: 24,2546           00006                           EXTEND
000497: 24,2547           12552                           BZF      +3                                    #  1 AND 9 GOOD
000498: 24,2550           32730                           CA       -X,A                                  #  SINCE 1 OR 9 FAILED, USE 5 AND 13 OF A
000499: 24,2551           12514                           TCF      WRITEON
000500: 24,2552           32731                 +3        CA       -X,B                                  #  1 AND 9 SYSTEM B
000501: 24,2553           12514                           TCF      WRITEON
000502:


000504:                                                                                                  #  DO NECESSARY PARTS OF Q,R-AXES TORQUE VECTOR RECONSTRUCTION HERE AND NOW.  FOR OTHER PARTS WAIT UNTIL THE NEXT
000505:                                                                                                  #  P-AXIS RCS DAP T5RUPT.
000506:
000507: 24,2554           41626        TORQUEV            CS       TQR                                   #  CALCULATED Q,R JET TIME (AS IN TIME6)
000508: 24,2555           62702                           AD       +T6TJMIN
000509: 24,2556           00006                           EXTEND                                         #    CORRECT BRANCH.
000510: 24,2557           62567                           BZMF     TQRGTTMI                              #  BRANCH FOR TQR = OR GREATER THAN MINIMP.
000511: 24,2560           37665                           CA       ZERO
000512: 24,2561           55505                           TS       TOFJTCHG                              #  SINCE TQR LESS THAN A MINIMUM IMPULSE,
000513: 24,2562           55616                           TS       JETRATEQ                              #    ZERO ALL OF THESE REGISTERS AND GO TO
000514: 24,2563           55617                           TS       JETRATER                              #    JET LIST.
000515: 24,2564           31502                           CA       JTSATCHG
000516: 24,2565           04225                           TC       WRITEQR
000517: 24,2566           14606                           TCF      RESUME
000518: 24,2567           31626        TQRGTTMI           CA       TQR
000519: 24,2570           55505                           TS       TOFJTCHG
000520: 24,2571           62701                           AD       -1.5CSP
000521: 24,2572           00006                           EXTEND
000522: 24,2573           62630                           BZMF     DOQRSKIP
000523: 24,2574           31630                           CA       1JACCQ
000524: 24,2575           00006                           EXTEND
000525: 24,2576           71620                           MP       NO.QJETS
000526: 24,2577           30001                           CA       L
000527: 24,2600           54065                           TS       ITEMP1
000528: 24,2601           00006                           EXTEND
000529: 24,2602           71623                           MP       QR.1STOQ


000535: 24,2603           55616                           TS       JETRATEQ
000536: 24,2604           30065                           CA       ITEMP1
000537: 24,2605           00006                           EXTEND
000538: 24,2606           72627                           MP       0.1AT1
000539: 24,2607           27640                           ADS      SUMRATEQ
000540: 24,2610           31631                           CA       1JACCR
000541: 24,2611           00006                           EXTEND
000542: 24,2612           71621                           MP       NO.RJETS
000543: 24,2613           30001                           CA       L
000544: 24,2614           54065                           TS       ITEMP1
000545: 24,2615           00006                           EXTEND
000546: 24,2616           71623                           MP       QR.1STOQ


000549: 24,2617           55617                           TS       JETRATER
000550: 24,2620           30065                           CA       ITEMP1
000551: 24,2621           00006                           EXTEND
000552: 24,2622           72627                           MP       0.1AT1
000553: 24,2623           27641                           ADS      SUMRATER
000554: 24,2624           31501                           CA       JTSONNOW
000555: 24,2625           12514                           TCF      WRITEON
000556: 24,2626           02073        SKIPQRAD           GENADR   SKIPQRAX
000557: 24,2627           03146        0.1AT1             DEC      +0.10000
000558: 24,2630           32626        DOQRSKIP           CA       SKIPQRAD
000559: 24,2631           55614                           TS       QJUMPADR
000560:                                                                                                  #  CHANGE JET ON AND OFF BITS TO ACCOUNT FOR PRESENT STATE OF THE
000561:


000563:                                                                                                  #  CHANNEL. THE CHANGES ACCOUNT FOR PURE ROTATON ONLY- NOT TRANSLATION.
000564: 24,2632           31501                           CA       JTSONNOW                              #  = JETS WHICH ARE TO GO ON NOW.
000565: 24,2633           00006                           EXTEND
000566: 24,2634           02005                           RAND     5                                     #  MASK THE CHANNEL WITH THE DESIRED STATE.
000567: 24,2635           00006                           EXTEND
000568: 24,2636           12663                           BZF      NOQRON                                #  A IS ZERO IF NO JETS TO GO ON ARE ON.
000569: 24,2637           67641                           AD       BIT15                                 #  MAKE DIFFERENCE CORRESPOND TO A QR JET.
000570: 24,2640           00006                           EXTEND
000571: 24,2641           61501                           SU       JTSONNOW                              #  RESULT IS COMPLEMENT OF JET BITS WHICH
000572: 24,2642           54001                           TS       L                                     #    ARE TO BE ON FOR 6.5MS MORE THAN CALC.
000573: 24,2643           00006                           EXTEND
000574: 24,2644           12670                           BZF      JTSAREON                              #  A=0,THUS AL JETS TO GO ON ARE NOW ON.
000575: 24,2645           31502        TRSLTMN2           CAE      JTSATCHG
000576: 24,2646           77637                           MASK     POSMAX                                #  REMOVE BIT15 FROM JSATCHG
000577: 24,2647           00006                           EXTEND
000578: 24,2650           12654                           BZF      NOTRANS                               #  IF JFSTACHG = 0 THEN NO TRANSLATION NOW.
000579: 24,2651           32712                           CA       14-TQRMN
000580: 24,2652           27505                           ADS      TOFJTCHG                              #  INSURE T GREATER THAN 14 MS.
000581: 24,2653           12674                           TCF      TOJTLST
000582: 24,2654           40001        NOTRANS            CS       L
000583: 24,2655           67641                           AD       BIT15                                 #  MAKE JET BITS CORRESPOND TO QR AXIS.
000584: 24,2656           57502                           XCH      JTSATCHG                              #  JTSONNOW - L = JETS ON AT TOFJTCHG.
000585: 24,2657           55503                           TS       ADDT6JTS                              #  JTS ON AT TOFJTCHG +ONDELAY.
000586: 24,2660           32712                           CA       14-TQRMN
000587: 24,2661           55504                           TS       ADDTLT6
000588: 24,2662           12674                           TCF      TOJTLST
000589: 24,2663           32712        NOQRON             CA       14-TQRMN
000590: 24,2664           27505                           ADS      TOFJTCHG
000591: 24,2665           37665                           CA       ZERO
000592: 24,2666           55504                           TS       ADDTLT6
000593: 24,2667           12674                           TCF      TOJTLST
000594: 24,2670           32711        JTSAREON           CA       MCOMPTQR
000595: 24,2671           27505                           ADS      TOFJTCHG
000596: 24,2672           37665                           CA       ZERO
000597: 24,2673           55504                           TS       ADDTLT6
000598: 24,2674           31501        TOJTLST            CA       JTSONNOW
000599: 24,2675           04225                           TC       WRITEQR
000600: 24,2676           00006                           EXTEND
000601: 24,2677           32733                           DCA      JTLSTADR
000602: 24,2700           52006                           DTCB
000603: 24,2701           77417        -1.5CSP            DEC      -0.01465
000604: 24,2702           00014        +T6TJMIN           DEC      +.00073
000605: 24,2703           31000        25/32.QR           DEC      0.78125
000606: 24,2704           37776        MS20QR             OCTAL    37776
000607: 24,2705           37775        MS30QR             OCTAL    37775
000608: 24,2706           37773        MS50QR             OCTAL    37773
000609: 24,2707           00010        16/32400           DEC      0.00049
000610: 24,2710           00600        BIT8,9             OCTAL    00600
000611: 24,2711           77765        MCOMPTQR           OCTAL    77765                                 #  -10 MS COMPUATAION TIME
000612: 24,2712           00013        14-TQRMN           DEC      11         B-14
000613:


000615: 24,2713           02243        MINTADR            GENADR   MINTJET
000616: 24,2714           43415        -.88975            DEC      -.88975
000617: 24,2715           20000        (1-K),QR           DEC      0.50000                               #  K = 1/2
000618: 24,2716           02000        (1-KQ)/8           DEC      0.06250
000619: 24,2717           77557        -90MS              DEC      -.00879
000620: 24,2720           00220        +90MS              DEC      0.00879
000621: 24,2721           77537        NEGCSP2            DEC      -.00977
000622: 24,2722           24366        16/25QR            DEC      0.64000
000623: 24,2723           40252        ALL+XJTS           OCTAL    40252
000624: 24,2724           00201        2,10-OUT           OCTAL    00201
000625: 24,2725           40042        +X,A               OCTAL    40042
000626: 24,2726           40210        +X,B               OCTAL    40210
000627: 24,2727           00104        1,9-OUT            OCTAL    00104
000628: 24,2730           40104        -X,A               OCTAL    40104
000629: 24,2731           40021        -X,B               OCTAL    40021
000630: 24,2732           02716 46006  JTLSTADR           2CADR    JTLST
000631:
000632: 24,2734           02467        RTJETADR           GENADR   RTJETIME
000633:


000635:                                                                                                  #  Q,R-AXES ATTITUDE STEERING CALCULATIONS:
000636:
000637:                                                                                                  #  (EXECUTED WHEN LGC IS IN AUTOMATIC SCSMODE OR IF SCSMODE IS ATTITUDE HOLD AND THE ROTATIONAL HAND CONTROLLER IS
000638:                                                                                                  #  NEITHER OUT OF DETENT NOR IS THE RATE COMMAND BIT SET IN DAPBOOLS)
000639:
000640:                                                                                                  #  IMMEDIATELY AFTER CALCULATING THE ATTITUDE ERRORS, THE FOLLOWING TESTS ARE MADE TO DETERMINE WHETHER THE DESCENT
000641:                                                                                                  #  ENGINE TRIM GIMBAL SHOULD BE USED TO CONTROL THE LEM ATTITUDE RATHER THAN TEH RCS JETS:
000642:
000643:                                                                                                  #           1) IS THE TRIM GIMBAL FUNCTIONALLY OPERATIVE?
000644:                                                                                                  #           2) ARE THE Q,R-AXES RCS JETS OFF?
000645:                                                                                                  #           3) ARE BOTH TRIM GIMBAL DRIVES OFF?
000646:                                                                                                  #           4) IS THE LEM RATE LESS THAN .5 DEG/SEC ABOUT BOTH AXES?
000647:
000648: 24,2735           32742        GOTOGTS            CAF      INITFILT                              #  ERRORS NOW CONTROLLABLE BY TRIM GIMBAL
000649: 24,2736           54345                           TS       T5ADR                                 #  SET T5RUPT TO GO TO FILTER INITIALIZING
000650: 24,2737           14606                           TCF      RESUME                                #  PROGRAM
000651:
000652: 24,2740           07400        BGIM24             OCTAL    07400
000653: 24,2741           03644        DESCADR            GENADR   TJET-LAW                              #  RETURN ADDRESS FOR JET SELECT LOGIC
000654: 24,2742           02000        INITFILT           GENADR   FILTINIT                              #  ADDRESS OF FILTER INITIALIZATION RUPT
000655:
000656:                                                                                                  #  "ATTSTEER" IS THE NOMINAL ENTRY POINT FOR REACTION CONTROL SYSTEM ATTITUDE STEERING:
000657:                                                                                                  #  BEGIN ATTSTEER BY CHECKING IF RATE HOLD MODE(CURRENTLY USED ONLY AT SIVB
000658:                                                                                                  #  -LEM SEPARATION-206 MISSION PHASE 6) IS REQUESTED(BIT 14 OF DAPBOOLS ON)
000659:                                                                                                  #  IF BIT 14 IS OFF, BRANCH TO QERRCALC DIRECTLY AND BEGIN AUTOMATIC
000660:                                                                                                  #  STEERING.  IF BIT 14 IS ON, TEST BIT 3 OF DAPBOOLS TO SEE IF THE DESIRED
000661:                                                                                                  #  RATE HAS BEEN SAVED YET.  IF IT IS ON, THIS IS NOT THE FIRST PASS AND
000662:                                                                                                  #  THE RATE HAS BEEN SAVED.  GO DIRECTLY TO QERRCALC FOR AUTOMATIC STEERING
000663:                                                                                                  #  IF THE BIT IS OFF, THE RATE MUST BE SAVED.  TRANSFER TO SAVERATE(BANK25)
000664:                                                                                                  #  AND RETURN AFTER FIRST PASS TO RESUME AND DAPIDLER.
000665:
000666:                                                                                                  #  IN ORDER TO USE RATE HOLD, THE MISSION PROGRAMMER MUST SET BIT 14 OF
000667:                                                                                                  #  DAPBOOLS ON AND SET BIT 3 OF DAPBOOLS TO ZERO.  UPON RETURNING FROM THE
000668:                                                                                                  #  FIRST PASS AT LEAST THROUGH RATE HOLD, THE MISSION PROGRAMMER MUST RESET
000669:                                                                                                  #  BIT 3 TO ITS PREVIOUS VALUE IF THIS IS NOT 1, BECASUE SAVERATE SETS BIT3
000670:                                                                                                  #  TO 1 FOR ALL PASSES AFTER THE FIRST IN ORDER NOT TO SAVE THE RATE AGAIN.
000671:
000672:                                                                                                  #  IN ADDITION TO NON-RATE HOLD MODE AND NON-FIRST PASS RATE HOLD MODE
000673:                                                                                                  #  EXITS TO QERRCALC, THE FIRST PASS EXITS TO RESUME, IE. OUT OF INTERRUPT
000674:                                                                                                  #  AND BACK TO DAPIDLER TO AWAIT THE NEXT CALL TO DAP.
000675:
000676:                                                                                                  #  RATE HOLD PRODUCES THE FOLLOWING OUTPUT IN ERASABLE --
000677:
000678:                                                                                                  #     CDUD - SCALED AT +/-PI, DESIRED GIMBAL ANGLE
000679:
000680:                                                                                                  #     DELCDU - SCALED AT +/-PI, INCREMENT TO CDUD EVERY 100 MS.
000681:
000682:                                                                                                  #     OMEGAPD, QD, RD - SCALED AT +/-PI/4, BODY AXIS RATES
000683:
000684:                                                                                                  #  ALL THESE ARE USED BY AUTOMATIC STEERING MODE EQUATIONS.
000685:


000687:                                                                                                  #  RATE HOLD REQUIRES OMEGAP, Q, R EVERY .25 SEC, AND ALSO REQUIRES PILOT-
000688:                                                                                                  #  TO-GIMBAL AXIS MATRIX ELEMENTS, MR12, 22, 13, 23 TO BE LOCATED IN THAT
000689:                                                                                                  #  ORDER.
000690:
000691:                                                                                                  #  FINALLY, RATE HOLD LEAVES DEBRIS IN --
000692:
000693:                                                                                                  #     DLCDUIDX - LOOP INDEX USED IN COMPUTING DELCDUS, = 1, 0
000694:
000695:                                                                                                  #     ITEMP1 - STORES TEMPORARY PRODUCTS AND SUMS, LEFT WITH DELCDUY IN 1S.
000696:
000697:
000698:
000699: 24,2743           40765        ATTSTEER           CS       DAPBOOLS                              #  DOES BIT14 OF DAPBOOLS REQUEST RATE HOLD
000700: 24,2744           77642                           MASK     BIT14                                 #  (SIVB-LEM SEPARATION)
000701: 24,2745           10000                           CCS      A
000702: 24,2746           13025                           TCF      QERRCALC                              #  NO, GO DIRECTLY TO AUTOMATIC STEERING
000703:
000704:                                                                                                  #  CHECK DAPBOOLS, BIT3, TO SEE IF DESIRED RATE HAS BEEN SAVED YET
000705:
000706: 24,2747           30765                           CAE      DAPBOOLS                              #  DOES BIT3 SHOW THAT THE DESIRED RATE HAS
000707: 24,2750           77655                           MASK     BIT3                                  #  BEEN SAVED(NOT FIRST PASS).  IF NOT, GO
000708: 24,2751           10000                           CCS      A                                     #  SAVE DESIRED RATES IN OMEGADS
000709: 24,2752           12771                           TCF      NEXDLCDU   -1                         #  YES, COMPUTE THE DELCDUS.
000710:
000711:                                                                                                  #  SAVERATE IS ENTERED ONLY DURING THE FIRST PASS THROUGH RATE HOLD.  IT
000712:                                                                                                  #  SAVES THE CURRENT CDUS FIRST IN CDUDS AND THEN SAVES THE BODY RATES,
000713:                                                                                                  #  OMEGAP, Q, R IN OMEGAPD, QD, RD.  NEXT, WE SET BIT 3 OF DAPBOOLS TO 1.
000714:
000715: 24,2753           00006        SAVERATE           EXTEND                                         #  COME HERE FIRST TIME INTO RATE HOLD IN
000716: 24,2754           30034                           DCA      CDUY
000717: 24,2755           52776                           DXCH     CDUYD                                 #  ORDER TO SET UP RATES, CDUS, AND DELCDUS
000718: 24,2756           30032                           CAE      CDUX
000719: 24,2757           54774                           TS       CDUXD                                 #  FIRST, CDUDS = CDUS AT SIVB SEPARATION
000720:
000721: 24,2760           00006                           EXTEND                                         #  NEXT, SAVE CURRENT SIVB SEPARATION RATES
000722: 24,2761           31417                           DCA      OMEGAP
000723: 24,2762           53427                           DXCH     OMEGAPD                               #  OMEGAP AND OMEGAR, IN OMEGAPD AND
000724: 24,2763           31421                           CAE      OMEGAR
000725: 24,2764           55430                           TS       OMEGARD                               #  OMEGARD.  LEM HELD TO RATES FOR 13 SECS.
000726:
000727: 24,2765           37655                           CAF      BIT3                                  #  RESET BIT 3 = 1 SO THAT RATES NOT SAVED
000728: 24,2766           26765                           ADS      DAPBOOLS                              #  AGAIN IN RATE HOLD PASSES
000729: 24,2767           14606                           TCF      RESUME                                #  RETURN TO IDLE AFTER SAVING RATE
000730:
000731: 24,2770           00632        100MSCAL           DEC      .025                                  #  100 MS. SACLED AT 4 SEC.  RATE HOLD DELT
000732:
000733:                                                                                                  #  TO COMPUTE TEH DELCDUS, Y AND Z, WE SET UP A LOOP AND SOLVE THE EQUATION
000734:
000735:                                                                                                  #  C(DELCDUY+DLCDUIDX)=(OMEGAQD.C(MR12+DLCDUIDX)+OMEGARD.C(MR13+DLCDUIDX))
000736:                                                                                                  #                        .(100MS) SCALED AT PI IN 2S COMPLEMENT(LIKE CDUS)
000737:


000739:                                                                                                  #  DURING THIS COMPUTATION, ITEMP1 IS USED TO STORE THE PARTIAL SUMS AND
000740:                                                                                                  #  PRODUCTS.  DELCDUY IS RESCALED TO 1 AS MR12 AND MR13 ARE SCALED AT 2.
000741:                                                                                                  #  AFTER CONVERTING TO TWOS COMPLEMENT, WE SET DELCDUX TO ZERO TO AVOID ANY
000742:                                                                                                  #  ROLL DURING RATE HOLD MODE.  NOTE THAT DELCDUS ARE COMPUTED IN THE NEGA-
000743:                                                                                                  #  TIVE TO ALLOW 2S COMP. MOD. SUBTRACT LATER ON (CDU-(-DELCDU))
000744:
000745: 24,2771           37657                           CAF      ONE                                   #  SET UP LOOP INDEX TO COMPUTE DELCDUS.
000746: 24,2772           55672        NEXDLCDU           TS       DLCDUIDX                              #  DLCDUIDX = C(A)
000747:
000748: 24,2773           41427                           CS       OMEGAQD                               #  DLCDUIDX = 1              DLCDUIDX = 0
000749: 24,2774           00006                           EXTEND                                         #  ITEMP1=-OMEGAQD.MR22
000750: 24,2775           51672                           INDEX    DLCDUIDX
000751: 24,2776           71400                           MP       MR12                                  #  MR22 SCALED AT 1       MR12 SCALED AT 2
000752: 24,2777           54065                           TS       ITEMP1                                #                      ITEMP1=-OMEGAQD.MR12
000753:
000754: 24,3000           41430                           CS       OMEGARD                               #  C(A)=ITEMP1 -OMEGARD.MR23
000755: 24,3001           00006                           EXTEND
000756: 24,3002           51672                           INDEX    DLCDUIDX                              #                 C(A)=ITEMP1 -OMEGARD.MR13
000757: 24,3003           71402                           MP       MR13                                  #  MR23 SCALED AT 1        MR13 SCALED AT 2
000758: 24,3004           60065                           AD       ITEMP1
000759: 24,3005           00006                           EXTEND                                         #  DELT = 100 MS. SCALED AT 4 SEC.
000760: 24,3006           72770                           MP       100MSCAL
000761: 24,3007           54065                           TS       ITEMP1                                #  ITEMP1 = C(A) . DELT
000762:
000763: 24,3010           11672                           CCS      DLCDUIDX                              #  CHECK INDEX FOR RESCALING
000764: 24,3011           13014                           TCF      +3                                    #  DELCDUZ SCALED AT PI/4, RESCALE UNNEEDED
000765: 24,3012           30065                           CAE      ITEMP1                                #  DELCDUY SCALED AT PI/2, RESCALE BY
000766: 24,3013           26065                           ADS      ITEMP1                                #  ADDING TO ITSELF
000767:
000768: 24,3014           10065                           CCS      ITEMP1                                #  CONVERT DELCDUS TO TWOS COMPLEMENT (SAME
000769: 24,3015           67657                           AD       ONE                                   #  AS CDUS).  ADD ONE TO RESTORE PRE-CCS A
000770: 24,3016           13020                           TCF      STODLCDU                              #  STORE DIRECT IF POSITIVE ZERO
000771: 24,3017           40000                           COM                                            #  COMPLEMENT IF NEGATIVE, CCS INCREMENTS
000772: 24,3020           51672        STODLCDU           INDEX    DLCDUIDX                              #  IF NEGATIVE ZERO, STORE POSTIVE ZERO
000773: 24,3021           55674                           TS       DELCDUY                               #  STORE FINAL DELCDUZ OR DELCDUY
000774:
000775: 24,3022           11672                           CCS      DLCDUIDX                              #  TEST INDEX DLCDUIDX, EITHER 1 OR 0
000776: 24,3023           12772                           TCF      NEXDLCDU                              #  IF 1, DO DELCDUY
000777: 24,3024           55673                           TS       DELCDUX                               #  DELCDUZ,Y DONE, 0 TO DELCDUX-NO ROLL
000778:
000779: 24,3025           30033        QERRCALC           CAE      CDUY                                  #  Q-ERROR CALCULATION
000780: 24,3026           00006                           EXTEND
000781: 24,3027           20775                           MSU      CDUYD                                 #  CDU ANGLE - ANGLE DESIRED (Y-AXIS)
000782: 24,3030           54065                           TS       ITEMP1                                #  SAVE FOR RERRCALC
000783: 24,3031           00006                           EXTEND
000784: 24,3032           71405                           MP       M21                                   #  (CDUY-CDUYD)*M21 SCALED AT PI RADIANS
000785: 24,3033           57413                           XCH      ER                                    #  SAVE FIRST TERM (OF TWO) IN OPP.AXIS REG
000786: 24,3034           30034                           CAE      CDUZ                                  #  SECOND TERM CALCULATION:
000787: 24,3035           00006                           EXTEND
000788: 24,3036           20776                           MSU      CDUZD                                 #  CDU ANGLE -ANGLE DESIRED (Z-AXIS)
000789:


000791: 24,3037           54066                           TS       ITEMP2                                #  SAVE FOR RERRCALC
000792: 24,3040           00006                           EXTEND
000793: 24,3041           71401                           MP       M22                                   #  (CDUZ-CDUZD)*M22 SCALED AT PI RADIANS
000794: 24,3042           27413                           ADS      ER                                    #  SAVE SUM OF TERMS, NO OVERFLOW EVER
000795: 24,3043           55477                           TS       QERROR                                #  SAVE QERROR FOR EIGHT-BALL DISPLAY
000796:
000797: 24,3044           30065        RERRCALC           CAE      ITEMP1                                #  R-ERROR CALCULATION:
000798: 24,3045           00006                           EXTEND                                         #  CDU ANGLE -ANGLE DESIRED (Y-AXIS)
000799: 24,3046           71406                           MP       M31                                   #  (CDUY-CDUYD)*M31 SCALED AT PI RADIANS
000800: 24,3047           57411                           XCH      E                                     #  SAVE FIRST TERM (OF TWO) IN OPP.AXIS REG
000801: 24,3050           30066                           CAE      ITEMP2                                #  SECOND TERM CALCULATION:
000802: 24,3051           00006                           EXTEND                                         #  CDU ANGLE -ANGLE DESIRED (Z-AXIS)
000803: 24,3052           71403                           MP       M32                                   #  (CDUZ-CDUZD)*M32 SCALED AT PI RADIANS
000804: 24,3053           27411                           ADS      E                                     #  SAVE SUM OF TERMS, NO OVERFLOW EVER
000805: 24,3054           55500                           TS       RERROR                                #  SAVE R-ERROR FOR EIGHT-BALL DISPLAY
000806:
000807:                                                                                                  #  TEST (1): IS THE TRIM GIMBAL FUNCTIONALLY OPERATIVE?
000808:
000809: 24,3055           37656                           CAF      BIT2                                  #  TEST TO SEE IF LEM AND DAP MODES ALLOW
000810: 24,3056           70765                           MASK     DAPBOOLS                              #  USE OF TRIM GIMBAL CONTROL SYSTEM:
000811: 24,3057           10000                           CCS      A                                     #  BIT2 = 0 MEANS THAT TRIM GIMBAL CONTROL
000812: 24,3060           13122                           TCF      STILLRCS                              #  IS POSSIBLE, SO TEST OTHER TG CONDITIONS
000813:
000814:                                                                                                  #  TEST (2): ARE THE Q,R-AXES RCS JETS OFF?
000815: 24,3061           00006                           EXTEND                                         #  BUT, IF JETS ARE OFF AND TRIM GIMBAL MAY
000816: 24,3062           00005                           READ     5                                     #  POSSIBLY BE USED: BEING IN THE JET COAST
000817: 24,3063           10000                           CCS      A                                     #  REGION OF THE PHASE PLANE IS A NECESSARY
000818: 24,3064           13122                           TCF      STILLRCS                              #  BUT INSUFFICIENT REASON FOR GTS USE
000819:
000820:                                                                                                  #  TEST (3): ARE BOTH TRIM GIMBAL DRIVES OFF?
000821:
000822: 24,3065           00006                           EXTEND                                         #  BITS 9-12 OF CHANNEL 12 ARE THE SIGNALS
000823: 24,3066           00012                           READ     12                                    #  WHICH DRIVE THE TRIM GIMBAL ENGINE:
000824: 24,3067           72740                           MASK     BGIM24                                #  IF NONE OF THESE BITS ARE ON, THEN BOTH
000825: 24,3070           10000                           CCS      A                                     #  WAITLIST TASKS TO TURN OFF THE DRIVES
000826: 24,3071           13122                           TCF      STILLRCS                              #  HAVE BEEN DONE AND GTS CONTROL CAN OCCUR
000827:
000828:                                                                                                  #  TEST (4): IS THE LEM RATE LESS THAN .5 DEG/SEC ABOUT BOTH AXES?
000829:
000830: 24,3072           37657                           CA       BIT1
000831: 24,3073           54073        LOOPTOP            TS       QRCNTR
000832: 24,3074           60000                           DOUBLE
000833: 24,3075           50000                           INDEX    A
000834: 24,3076           11417                           CCS      OMEGAQ                                #  IS ERROR RATE SMALL ENOUGH FOR GTS.
000835: 24,3077           63120                           AD       -RATLM+1                              #  -.5 DEG/SEC SCALED AT PI/4 + 1 BIT
000836: 24,3100           13102                           TCF      +2
000837: 24,3101           63120                           AD       -RATLM+1
000838: 24,3102           00006                           EXTEND
000839: 24,3103           63105                           BZMF     +2                                    #  IS RATE LESS,EQUAL .5 DEG/SEC.
000840: 24,3104           13122                           TCF      STILLRCS                              #  NO.      SO USE RCS.
000841:


000843: 24,3105           50073                           INDEX    QRCNTR                                #  YES.     TRY THE ERROR MAGNITUDE.
000844: 24,3106           11477                           CCS      QDIFF                                 #  IS ERROR SMALL ENOUGH FOR GTS.
000845: 24,3107           63121                           AD       -XBND+1                               #  -1.4 DEG SCALED AT PI    + 1 BIT
000846: 24,3110           13112                           TCF      +2
000847: 24,3111           63121                           AD       -XBND+1
000848: 24,3112           00006                           EXTEND
000849: 24,3113           63115                           BZMF     +2                                    #  IS ERROR LESS,EQUAL 1.4 DEG.
000850: 24,3114           13122                           TCF      STILLRCS                              #  NO.      USE RCS CONTROL.
000851: 24,3115           10073                           CCS      QRCNTR                                #  THIS AXIS IS FINE.   ARE BOTH DONE.
000852: 24,3116           13073                           TCF      LOOPTOP                               #  NOW TRY THE Q AXIS.
000853: 24,3117           12735                           TCF      GOTOGTS                               #  TRANSFER TO TRIM GIMBAL CONTROL
000854: 24,3120           77512        -RATLM+1           OCT      77512                                 #  -.5 DEG/SEC SCALED AT PI/4  + 1 BIT.
000855: 24,3121           77601        -XBND+1            OCT      77601                                 #  -1.4 DEG SCALED AT PI. + 1 BIT.
000856:                                                                                                  #  "STILLRCS" IS THE ENTRY POINT TO RCS ATTITUDE STEERING WHENEVER IT IS FOUND THAT THE TRIM GIMBAL CONTROL
000857:                                                                                                  #  SYSTEM SHOULD NOT BE USED:
000858:
000859: 24,3122           32741        STILLRCS           CAF      DESCADR                               #  SET JET SELECT LOGIC RETURN ADDRESS TO
000860: 24,3123           55514                           TS       TJETADR                               #  SET Q,R-AXIS TJETLAW CALCULATION
000861:
000862: 24,3124           04177                           TC       T6JOBCHK                              #  CHECK T6 CLOCK RUPT BEFORE SUBROUTINE
000863:
000864: 24,3125           31662        RURGENCY           CAE      1/NJTSR                               #  SET-UP URGENCY SUBROUTINE
000865: 24,3126           55471                           TS       1/NJETAC


000867: 24,3127           41430                           CS       OMEGARD                               #  EDOTR = OMEGAR - OMEGARD
000868: 24,3130           61421                           AD       OMEGAR
000869: 24,3131           55425                           TS       EDOTR                                 #  SCALED AT PI/4 RADIANS
000870: 24,3132           03525                           TC       URGROUTN                              #  *** SUBROUTINE CALL ***
000871: 24,3133           55516                           TS       URGENCYR                              #  URGENCY LEFT IN A SCALED AT 2(4) SECS
000872:
000873: 24,3134           53412                           DXCH     E                                     #  MOVE R-AXIS VARIABLES TO R-AXIS ERASABLE
000874: 24,3135           53414                           DXCH     ER                                    #  FROM Q-XIS (COMMON) ERASABLE
000875: 24,3136           55411                           TS       E
000876: 24,3137           31407                           CAE      EDOT                                  #  (LLOK AT REORG FOR EFFIC: JDA 7/17/66)
000877: 24,3140           55410                           TS       EDOT(R)
000878:
000879: 24,3141           31661        QURGENCY           CAE      1/NJTSQ                               #  SET-UP URGENCY SUBROUTINE
000880: 24,3142           55471                           TS       1/NJETAC
000881: 24,3143           41427                           CS       OMEGAQD                               #  EDOTQ = OMEGAQ - OMEGAQD
000882: 24,3144           61417                           AD       OMEGAQ
000883: 24,3145           55424                           TS       EDOTQ                                 #  SCALED AT PI/4 RADIANS
000884: 24,3146           03525                           TC       URGROUTN                              #  *** SUBROUTINE CALL ***
000885:
000886: 24,3147           55515                           TS       URGENCYQ                              #  URGENCY LEFT IN A SCALED AT 2(4) SECS


000890:                                                                                                  ##


000907:                                                                                                  ##
000908:
000909: 24,3150           00006                           EXTEND
000910: 24,3151           13321                           BZF      BURGZERO                              #  TEST FOR BOTH URGENCIES ZERO
000911:
000912: 24,3152           00006                           EXTEND
000913: 24,3153           73336                           MP       -TAN22.5
000914: 24,3154           61516                           AD       URGENCYR
000915: 24,3155           00006                           EXTEND
000916:


000918: 24,3156           73334                           MP       COS22.5
000919: 24,3157           55521                           TS       TERMA                                 #  UR.COS(22.5)-UQ.SIN(22.5)
000920:
000921: 24,3160           41516                           CS       URGENCYR
000922: 24,3161           00006                           EXTEND
000923: 24,3162           73336                           MP       -TAN22.5
000924: 24,3163           61515                           AD       URGENCYQ
000925: 24,3164           00006                           EXTEND
000926: 24,3165           73334                           MP       COS22.5
000927: 24,3166           55522                           TS       TERMB                                 #  UR.SIN(22.5)+UQ.COS(22.5)
000928:
000929: 24,3167           61521        A+B/A-B            AD       TERMA
000930: 24,3170           55517                           TS       A+B
000931: 24,3171           41522        A-B/ONLY           CS       TERMB
000932: 24,3172           61521                           AD       TERMA
000933: 24,3173           55520                           TS       A-B
000934:
000935:                                                                                                  #  AXIS AND MODE SELECTION
000936:
000937: 24,3174           31522                           CAE      TERMB                                 #  B URGENCY TEST
000938: 24,3175           00006                           EXTEND
000939: 24,3176           63337                           BZMF     NEGBURG
000940:
000941: 24,3177           31521        POSBURG            CAE      TERMA                                 #  A URGENCY TEST
000942: 24,3200           00006                           EXTEND
000943: 24,3201           63254                           BZMF     NEGAPOSB
000944:
000945: 24,3202           31520        POSAPOSB           CA       A-B
000946: 24,3203           00006                           EXTEND
000947: 24,3204           63232                           BZMF     MINUSU                                #  NEGATIVE U-AXIS SELECTED
000948:
000949: 24,3205           00006        2/4JET-R           EXTEND
000950: 24,3206           31414                           DCA      ER
000951: 24,3207           53412                           DXCH     E
000952: 24,3210           31410                           CAE      EDOT(R)
000953: 24,3211           55407                           TS       EDOT
000954: 24,3212           31652                           CAE      .5ACCMNR
000955: 24,3213           55650                           TS       .5ACCMNE
000956: 24,3214           33524                           CAF      URM                                   #  2/4 JET URGENCY TEST -R AXIS
000957: 24,3215           61516                           AD       URGENCYR
000958: 24,3216           00006                           EXTEND
000959: 24,3217           63224                           BZMF     2JETS-R
000960:
000961: 24,3220           31446        4JETS-R            CAE      1/2JTSR                               #  MOVE 1/NJETAC UNMODIFIED
000962: 24,3221           55471                           TS       1/NJETAC
000963: 24,3222           47663                           CS       SEVEN
000964: 24,3223           13460                           TCF      POLTYPE                               #  GO FIND BEST POLICY
000965:
000966: 24,3224           11666        2JETS-R            CCS      RMANDACC                              #  ASCENT 4-JET OVER-RIDE TEST
000967: 24,3225           13220                           TCF      4JETS-R
000968:


000970: 24,3226           31446                           CAE      1/2JTSR
000971: 24,3227           55471                           TS       1/NJETAC
000972: 24,3230           46162                           CS       SIX
000973: 24,3231           13460                           TCF      POLTYPE                               #  GO FIND BEST POLICY
000974:
000975: 24,3232           31653        MINUSU             CAE      .5ACCMNU
000976: 24,3233           55650                           TS       .5ACCMNE
000977: 24,3234           31515                           CAE      URGENCYQ                              #  2 JET OPT/MAND TEST: -U AXIS
000978: 24,3235           61516                           AD       URGENCYR
000979: 24,3236           10000                           CCS      A
000980: 24,3237           63524                           AD       NEGURGUM
000981: 24,3240           13242                           TCF      +2
000982: 24,3241           63524                           AD       NEGURGUM
000983: 24,3242           00006                           EXTEND
000984: 24,3243           63247                           BZMF     2JETS-U
000985:
000986: 24,3244           03474        2JETSM-U           TC       UXFORM
000987: 24,3245           47664        2-U.RATE           CS       FIVE
000988: 24,3246           13460                           TCF      POLTYPE                               #  GO FIND BEST POLICY
000989:
000990: 24,3247           11667        2JETS-U            CCS      UMANDACC                              #  ASCENT 2-JET MANDATORY OVER-RIDE TEST
000991: 24,3250           13244                           TCF      2JETSM-U
000992: 24,3251           03474                           TC       UXFORM
000993: 24,3252           47655                           CS       FOUR
000994: 24,3253           13460                           TCF      POLTYPE                               #  GO FIND BEST POLICY
000995:
000996: 24,3254           31517        NEGAPOSB           CAE      A+B
000997: 24,3255           00006                           EXTEND
000998: 24,3256           63277                           BZMF     PLUSV
000999:
001000: 24,3257           31651        2/4JET-Q           CAE      .5ACCMNQ
001001: 24,3260           55650                           TS       .5ACCMNE
001002: 24,3261           33524                           CAF      UQM                                   #  204 JET URGENCY TEST: -Q AXIS
001003: 24,3262           61515                           AD       URGENCYQ
001004: 24,3263           00006                           EXTEND
001005: 24,3264           63273                           BZMF     2JETS-Q    +2                         #  (FIRST TWO INSTRUCTIONS UNNECESSARY)
001006:
001007: 24,3265           31445        4JETS-Q            CAE      1/2JTSQ                               #  MOVE 1/NJETAC UNMODIFIED
001008: 24,3266           55471                           TS       1/NJETAC
001009: 24,3267           46165                           CS       THREE
001010: 24,3270           13460                           TCF      POLTYPE                               #  GO FIND BEST POLICY
001011:
001012: 24,3271           11665        2JETS-Q            CCS      QMANDACC                              #  ASCENT 4-JET OVER-RIDE TEST
001013: 24,3272           13265                           TCF      4JETS-Q
001014: 24,3273           31445                           CAE      1/2JTSQ
001015: 24,3274           55471                           TS       1/NJETAC
001016: 24,3275           47656                           CS       TWO
001017: 24,3276           13460                           TCF      POLTYPE                               #  GO FIND BEST POLICY
001018:
001019: 24,3277           31654        PLUSV              CAE      .5ACCMNV
001020:


001022: 24,3300           55650                           TS       .5ACCMNE
001023: 24,3301           41515                           CS       URGENCYQ                              #  2 JET OPT/MAND TEST" +V AXIS
001024: 24,3302           61516                           AD       URGENCYR
001025: 24,3303           10000                           CCS      A
001026: 24,3304           63524                           AD       NEGURGVM
001027: 24,3305           13307                           TCF      +2
001028: 24,3306           63524                           AD       NEGURGVM
001029: 24,3307           00006                           EXTEND
001030: 24,3310           63314                           BZMF     2JETS+V
001031:
001032: 24,3311           03466        2JETSM+V           TC       VXFORM
001033: 24,3312           47657        2+V.RATE           CS       ONE
001034: 24,3313           13460                           TCF      POLTYPE                               #  GO FIND BEST POLICY
001035:
001036: 24,3314           11670        2JETS+V            CCS      VMANDACC                              #  ASCENT 2-JET MANDATORY OVER-RIDE TEST
001037: 24,3315           13311                           TCF      2JETSM+V
001038: 24,3316           03466                           TC       VXFORM
001039: 24,3317           37665                           CAF      ZERO
001040: 24,3320           13460                           TCF      POLTYPE                               #  GO FIND BEST POLICY
001041:
001042: 24,3321           31516        BURGZERO           CAE      URGENCYR                              #  TEST FOR SECOND URGENCY ALSO ZERO
001043: 24,3322           00006                           EXTEND
001044: 24,3323           12504                           BZF      XTRANS                                #  NO ROTATION NEEDED NOW
001045:
001046: 24,3324           00006                           EXTEND                                         #  TIME SAVING A+B CALCULATION
001047: 24,3325           73335                           MP       SIN22.5
001048: 24,3326           55522                           TS       TERMB                                 #  US.SIN(22.5)
001049: 24,3327           31516                           CAE      URGENCYR
001050: 24,3330           00006                           EXTEND
001051: 24,3331           73334                           MP       COS22.5
001052: 24,3332           55521                           TS       TERMA                                 #  UR.COS(22.5)
001053: 24,3333           13171                           TCF      A-B/ONLY
001054: 24,3334           35441        COS22.5            DEC      0.92388                               #  COSINE OF 22.5 DEGREES
001055: 24,3335           14176        SIN22.5            DEC      0.38268                               #  SINE OF 22.5 DEGREES
001056: 24,3336           62575        -TAN22.5           DEC      -.41421                               #  NEGATIVE OF TANGENT OF 22.5 DEGREES
001057:
001058: 24,3337           31521        NEGBURG            CAE      TERMA                                 #  A URGENCY TEST
001059: 24,3340           00006                           EXTEND
001060: 24,3341           63367                           BZMF     NEGANEGB
001061:
001062: 24,3342           31517        POSANEGB           CAE      A+B
001063: 24,3343           00006                           EXTEND
001064: 24,3344           63441                           BZMF     2/4JET+Q
001065:
001066: 24,3345           31654        MINUSV             CAE      .5ACCMNV
001067: 24,3346           55650                           TS       .5ACCMNE
001068: 24,3347           41515                           CS       URGENCYQ                              #  2 JET OPT/MAND TEST: -V AXIS
001069: 24,3350           61516                           AD       URGENCYR
001070: 24,3351           10000                           CCS      A
001071: 24,3352           63524                           AD       NEGURGVM
001072:


001074: 24,3353           13355                           TCF      +2
001075: 24,3354           63524                           AD       NEGURGVM
001076: 24,3355           00006                           EXTEND
001077: 24,3356           63362                           BZMF     2JETS-V
001078:
001079: 24,3357           03466        2JETSM-V           TC       VXFORM
001080: 24,3360           37657        2-V.RATE           CAF      ONE
001081: 24,3361           13460                           TCF      POLTYPE                               #  GO FIND BEST POLICY
001082:
001083: 24,3362           11670        2JETS-V            CCS      VMANDACC                              #  ASCENT 2-JET MANDATORY OVER-RIDE TEST
001084: 24,3363           13357                           TCF      2JETSM-V
001085: 24,3364           03466                           TC       VXFORM
001086: 24,3365           37656                           CAF      TWO
001087: 24,3366           13460                           TCF      POLTYPE                               #  GO FIND BEST POLICY
001088:
001089: 24,3367           31520        NEGANEGB           CAE      A-B
001090: 24,3370           00006                           EXTEND
001091: 24,3371           63414                           BZMF     2/4JET+R
001092:
001093: 24,3372           31653        PLUSU              CAE      .5ACCMNU
001094: 24,3373           55650                           TS       .5ACCMNE
001095: 24,3374           31515                           CAE      URGENCYQ                              #  2 JET OPT/MAND TEST: +U AXIS
001096: 24,3375           61516                           AD       URGENCYR
001097: 24,3376           10000                           CCS      A
001098: 24,3377           63524                           AD       NEGURGUM
001099: 24,3400           13402                           TCF      +2
001100: 24,3401           63524                           AD       NEGURGUM
001101: 24,3402           00006                           EXTEND
001102: 24,3403           63407                           BZMF     2JETS+U
001103:
001104: 24,3404           03474        2JETSM+U           TC       UXFORM
001105: 24,3405           36165        2+U.RATE           CAF      THREE
001106: 24,3406           13460                           TCF      POLTYPE                               #  GO FIND BEST POLICY
001107:
001108: 24,3407           11667        2JETS+U            CCS      UMANDACC                              #  ASCENT 2-JET MANADTORY OVER-RIDE TEST
001109: 24,3410           13404                           TCF      2JETSM+U
001110: 24,3411           03474                           TC       UXFORM
001111: 24,3412           37655                           CAF      FOUR
001112: 24,3413           13460                           TCF      POLTYPE                               #  GO FIND BEST POLICY
001113:
001114: 24,3414           00006        2/4JET+R           EXTEND
001115: 24,3415           31414                           DCA      ER
001116: 24,3416           53412                           DXCH     E
001117: 24,3417           31410                           CAE      EDOT(R)
001118: 24,3420           55407                           TS       EDOT
001119: 24,3421           31652                           CAE      .5ACCMNR
001120: 24,3422           55650                           TS       .5ACCMNE
001121: 24,3423           33524                           CAF      URM                                   #  2/4 JET URGENCY TETS +R AXIS
001122: 24,3424           61516                           AD       URGENCYR
001123: 24,3425           00006                           EXTEND
001124:


001126: 24,3426           63433                           BZMF     2JETS+R
001127:
001128: 24,3427           31446        4JETS+R            CAE      1/2JTSR                               #  MOVE 1/NJETAC UNMODIFIED
001129: 24,3430           55471                           TS       1/NJETAC
001130: 24,3431           37664                           CAF      FIVE
001131: 24,3432           13460                           TCF      POLTYPE                               #  GO FIND BEST POLICY
001132:
001133: 24,3433           11666        2JETS+R            CCS      RMANDACC                              #  ASCENT 4-JET OVER-RIDE TEST
001134: 24,3434           13427                           TCF      4JETS+R
001135: 24,3435           31446                           CAE      1/2JTSR
001136: 24,3436           55471                           TS       1/NJETAC
001137: 24,3437           36162                           CAF      SIX
001138: 24,3440           13460                           TCF      POLTYPE                               #  GO FIND BEST POLICY
001139:
001140: 24,3441           31651        2/4JET+Q           CAE      .5ACCMNQ
001141: 24,3442           55650                           TS       .5ACCMNE
001142: 24,3443           33524                           CAF      UQM                                   #  2/4 JET URGENCY TEST: + Q AXIS
001143: 24,3444           61515                           AD       URGENCYQ
001144: 24,3445           00006                           EXTEND
001145: 24,3446           63455                           BZMF     2JETS+Q    +2                         #  (FIRST TWO INSTRUCTIONS UNNECESSARY)
001146:
001147: 24,3447           31445        4JETS+Q            CAE      1/2JTSQ                               #  MOVE 1/NJETAC UNMODIFIED
001148: 24,3450           55471                           TS       1/NJETAC
001149: 24,3451           37663                           CAF      SEVEN
001150: 24,3452           13460                           TCF      POLTYPE                               #  GO FIND BEST POLICY
001151:
001152: 24,3453           11665        2JETS+Q            CCS      QMANDACC                              #  ASCENT 4-JET OVER-RIDE TEST
001153: 24,3454           13447                           TCF      4JETS+Q
001154: 24,3455           31445                           CAE      1/2JTSQ
001155: 24,3456           55471                           TS       1/NJETAC
001156: 24,3457           37654                           CAF      EIGHT
001157:
001158: 24,3460           55523        POLTYPE            TS       POLRELOC
001159: 24,3461           00006                           EXTEND
001160: 24,3462           33465                           DCA      POLADR
001161: 24,3463           52006                           DTCB
001162: 24,3464           02216 52006  POLADR             2CADR    POLTYPEP
001163:


001165:                                                                                                  #  SUBROUTINES UXFORM AND VXFORM CALCULATE NEEDED VALUES FOR T-JET LAW
001166:                                                                                                  #  (THEY GO OFF TO REDUCE RATE, IF NECESSARY, AND THEN DO NOT RETURN)
001167:
001168: 24,3466           31450        VXFORM             CAE      1/2JETSV                              #  GET INVERSE OF V-JET ACCELERATION
001169: 24,3467           55471                           TS       1/NJETAC
001170: 24,3470           41411                           CS       EQ                                    #  COMPLEMENT FOR TRANSFORMATION
001171: 24,3471           55411                           TS       EQ
001172: 24,3472           41424                           CS       EDOTQ
001173: 24,3473           13477                           TCF      UVXFORM    +1
001174: 24,3474           31447        UXFORM             CAE      1/2JETSU                              #  SET INVERSE OF U-JET ACCELERATION
001175: 24,3475           55471                           TS       1/NJETAC
001176:
001177: 24,3476           31424        UVXFORM            CAE      EDOTQ                                 #  TRANSFORM ANGULAR RATE TO U/V-AXIS
001178: 24,3477           61425                           AD       EDOTR
001179: 24,3500           00006                           EXTEND
001180: 24,3501           73523                           MP       .707
001181: 24,3502           55407                           TS       EDOT                                  #  SAVE FOR REDUCEUV
001182: 24,3503           00006                           EXTEND
001183: 24,3504           77655                           MP       BIT3
001184: 24,3505           00006                           EXTEND
001185: 24,3506           13510                           BZF      +2                                    #  CHECK FOR VALUE BEYOND SCALING RANGE
001186: 24,3507           13672                           TCF      REDUCEQR                              #  SAME AS REDUCEUV
001187: 24,3510           30001                           CAE      L
001188: 24,3511           55407                           TS       EDOT                                  #  SAVE RATE SCALED AT PI/16
001189: 24,3512           00006                           EXTEND
001190: 24,3513           70000                           SQUARE
001191: 24,3514           55412                           TS       EDOT(2)                               #  SAVE RATE SQUARED SCALED AT PI(2)/2(8)
001192:
001193: 24,3515           31411                           CAE      EQ                                    #  TRANSFORM ANGULAR ERROR TO U/V-AXIS
001194: 24,3516           61413                           AD       ER
001195: 24,3517           00006                           EXTEND
001196: 24,3520           73523                           MP       .707
001197: 24,3521           55411                           TS       E                                     #  SAVE ERROR SCALED AT PI
001198: 24,3522           00002                           TC       Q
001199:
001200: 24,3523           26501        .707               DEC      0.70711                               #  SQRT(1/2)
001201:
001202:
001203:
001204: 24,3524           71777        NEGURGUM           DEC      -.18750
001205: 24,3525  24,3524               NEGURGVM           EQUALS   NEGURGUM
001206: 24,3525  24,3524               UQM                EQUALS   NEGURGUM
001207: 24,3525  24,3524               URM                EQUALS   NEGURGUM
001208:
001209:


001211:                                                                                                  #  GENERALIZED URGENCY SUBROUTINE FOR USE ON ALL PILOT AXES (P,Q,R)...
001212:
001213:                                                                                                  #  DEPENDING ON THE AXIS PROBLEM, EDOTP,EDOTQ,EDOTR IS EXPECTED TO ARRIVE IN A AND 1/2JTSP,1/2JTSQ,1/2JTSR IN
001214:                                                                                                  #  1/NJETAC.  NOTE THAT THE Q,R-AXIS PROBLEM IS EXPECTED TO DO THE R-AXIS PROBLEM FIRST (FOR EFFICIENT USE OF
001215:                                                                                                  #  ERASABLE) AND THE Q,R-AXIS PROBLEM DOES NOT USE TPSIG.
001216:                                                                                                  #  (THIS ROUTINE SHOULD BE IN THE FIXED BANK OF THE Q,R-AXIS PROBLEM SINCE IT IS CALLED ONLY ONCE FROM THE P-AXIS.)
001217:
001218: 24,3525           55407        URGROUTN           TS       EDOT                                  #  SAVE FOR REDUCER
001219: 24,3526           00006                           EXTEND                                         #  EXPECT EDOT IN A SCALED AT PI/4 RAD/SEC
001220: 24,3527           77655                           MP       BIT3                                  #  TRY TO RESCALE TO PI/16 RADIANS/SECOND
001221: 24,3530           00006                           EXTEND
001222: 24,3531           13533                           BZF      +2                                    #  OVERFLOW CHECK ON NEW SCALING
001223: 24,3532           13666                           TCF      REDUCERA                              #  DISTINGUISH BETWEEN P AND Q,R
001224: 24,3533           10001                 +2        CCS      L                                     #  INSURE NON-ZERO EDOT (TPSIG FLAG)
001225: 24,3534           67656                           AD       TWO
001226: 24,3535           13537                           TCF      +2
001227: 24,3536           40000                           COM
001228: 24,3537           67667                 +2        AD       NEG1
001229: 24,3540           55440                           TS       TPSIG                                 #  (FOR P-AXIS PROBLEM ONLY)
001230: 24,3541           55407                           TS       EDOT                                  #  SAVE FOR T-JET LAW SCALED AT PI/16
001231:
001232: 24,3542           00006                           EXTEND
001233: 24,3543           70000                           SQUARE
001234: 24,3544           55412                           TS       EDOT(2)                               #  SCALED AT PI(2)/2(8) RAD(2)/SEC(2)
001235:
001236: 24,3545           00006                           EXTEND                                         #  1/2JTSP,1/2JTSQ,1/2JTSR IN 1/NJETAC
001237: 24,3546           71471                           MP       1/NJETAC                              #  SCALED AT 2(8)/PI SEC(2)/RAD
001238: 24,3547           00006                           EXTEND
001239: 24,3550           61415                           SU       DB                                    #  DEADBAND SCALED AT PI RADIANS
001240: 24,3551           55451                           TS       FPQR                                  #  .5(1/ACC)EDOT(2) - DB SCALED AT PI RADS
001241:
001242: 24,3552           31412                           CAE      EDOT(2)                               #  SCALED AT PI(2)/2(8) RAD(2)/SEC(2)
001243: 24,3553           00006                           EXTEND
001244: 24,3554           71650                           MP       .5ACCMNE                              #  .5(1/ACCMIN) AT 2(8)/PI SEC(2)/RAD
001245: 24,3555           61415                           AD       DB                                    #  SCALED AT PI RADIANS
001246: 24,3556           55467                           TS       FPQRMIN                               #  .5(1/ACCMIN)EDOT(2) + DB AT PI RADIANS
001247:
001248: 24,3557           11407                           CCS      EDOT                                  #  EDOT TEST ON SIGN
001249: 24,3560           31411                           CAE      E                                     #  P,Q,R-AXIS ERROR SCALED AT PI RADIANS
001250: 24,3561           13563                           TCF      +2
001251: 24,3562           13602                           TCF      EDOTNEG
001252: 24,3563           27451                 +2        ADS      FPQR                                  #  E + .5(1/ACC)EDOT(2) - DB AT PI RADIANS
001253:
001254: 24,3564           11407        FTEST              CCS      EDOT                                  #  EDOT GUARANTEED NOT +0 OR -0
001255: 24,3565           11451                           CCS      FPQR                                  #  FPQR GUARANTEED NOT +0
001256: 24,3566           13573                           TCF      TPSIGCHG                              #  EDOT.G.+0, FPQR.G.+0
001257: 24,3567           11451                           CCS      FPQR                                  #  EDOT.L.-0
001258: 24,3570           13606                           TCF      FPMINCAL                              #  EDOT.L.-0,FPQR.G.+0/EDOT.G.+0,FPQR.L.-0
001259: 24,3571           13606                           TCF      FPMINCAL                              #  EDOT.G.+0, FPQR.E.-0 (FROM FIRST CCS)
001260: 24,3572           13573                           TCF      TPSIGCHG                              #  EDOT.L.-0, FPQR.L.-0
001261:


001263: 24,3573           41440        TPSIGCHG           CS       TPSIG                                 #  EDOT.L.-0, FPQR.E.-0 (FROM 2ND CSS)
001264: 24,3574           55440                           TS       TPSIG                                 #  (SIGN OF P-AXIS JETS IF NEEDED)
001265: 24,3575           31407                           CAE      EDOT                                  #  SCALED AT PI/16 RADIANS/SECOND
001266: 24,3576           00006                           EXTEND
001267: 24,3577           77645                           MP       BIT11                                 #  SCALE TO PI RADIANS/SECOND
001268: 24,3600           61451                           AD       FPQR                                  #  (IMPLICIT MULT OF FPQR BY 1/SEC)
001269: 24,3601           13626                           TCF      URGMULT                               #  THIS URGENCY = (1/ACC)(FPQR+EDOT)
001270:
001271: 24,3602           41451        EDOTNEG            CS       FPQR                                  #  SCALED AT PI RADIANS
001272: 24,3603           61411                           AD       E
001273: 24,3604           55451                           TS       FPQR                                  #  E - .5(1/ACC)EDOT(2) + DB
001274: 24,3605           13564                           TCF      FTEST
001275:
001276: 24,3606           11451        FPMINCAL           CCS      FPQR                                  #  NECESSARY RETEST ON FPQR
001277: 24,3607           41467                           CS       FPQRMIN
001278: 24,3610           13612                           TCF      +2                                    #  E - .5(1/ACCMIN)EDOT(2) - DB
001279: 24,3611           31467                           CAE      FPQRMIN
001280: 24,3612           61411                           AD       E                                     #  E + .5(1/ACCMIN)EDOT(2) + DB
001281: 24,3613           55467                           TS       FPQRMIN                               #  (SCALED AT PI RADIANS)
001282:
001283: 24,3614           11407                           CCS      EDOT                                  #  EDOT    GUARANTEED NOT +0 OR -0
001284: 24,3615           11467                           CCS      FPQRMIN                               #  FPQRMIN GUARANTEED NOT +0 (CALL IT F)
001285: 24,3616           13623                           TCF      ZEROURG                               #  EDOT.G.+0, F.G.+0
001286: 24,3617           11467                           CCS      FPQRMIN                               #  EDOT.L.-0
001287: 24,3620           13625                           TCF      NORMURG                               #  EDOT.L.-0, F.G.+0 / EDOT.G.+0, F.L.-0
001288: 24,3621           13625                           TCF      NORMURG                               #  EDOT.G.+0, F.E.-0 (FROM FIRST CCS)
001289: 24,3622           13623                           TCF      ZEROURG                               #  EDOT.L.-0, F.L.-0
001290: 24,3623           37665        ZEROURG            CAF      ZERO                                  #  EDOT.L.-0, F.E.-0 (FROM SECOND CCS)
001291: 24,3624           13642                           TCF      URGSTORE                              #  THIS URGENCY ZERO (IN COAST REGIAN)
001292:
001293: 24,3625           31467        NORMURG            CAE      FPQRMIN                               #  THIS URGENCY FPQRMIN(1/ACC)
001294: 24,3626           00006        URGMULT            EXTEND
001295: 24,3627           71471                           MP       1/NJETAC
001296: 24,3630           00006                           EXTEND                                         #  SCALE FROM 2(9) TO 2(4) SECONDS
001297: 24,3631           77652                           MP       BIT6                                  #  1/NJETAC = 1/2JETAC, WANT 1/1JETAC
001298: 24,3632           00006                           EXTEND
001299: 24,3633           13641                           BZF      URGTOA
001300: 24,3634           10000                           CCS      A
001301: 24,3635           37637                           CA       POSMAX
001302: 24,3636           13642                           TCF      URGSTORE
001303: 24,3637           47637                           CS       POSMAX
001304: 24,3640           13642                           TCF      URGSTORE
001305: 24,3641           30001        URGTOA             CA       L
001306: 24,3642           00002        URGSTORE           TC       Q                                     #  *** RETURN ***
001307:


001309:                                                                                                  #  GENERALIZED T-JET LAW SUBROUTINE FOR USE BY BOTH THE P-AXIS AND THE Q,R-AXIS PROBLEMS (ONCE EACH)...
001310:
001311:                                                                                                  #  DEPENDING ON THE AXIS ABOUT WHICH ROTATION IS DEEMED MOST URGETN, 1/JACC FOR THAT AXIS IS EPXECTED IN 1/NJETAC
001312:                                                                                                  #  AND THE CORRESPONDING VALUES FOR E, EDOT, AND EDOT(2) ARE ALSO EXPECTED TO BE SET UP IN ADVANCE.
001313:                                                                                                  #  (THIS ROUTINE MAY RESIDE IN THE FIXED BANK OF EITHER THE P-AXIS OR Q,R-AXIS PROBLEM.)
001314:
001315:                                                                                                  #  ***** IMPORTANT NOTICE *****
001316:
001317:                                                                                                  #      NOTE THAT TJETLOC IS THE LOCAL ENTRY POINT FOR THIS PROGRAM AND TJETLAW IS THE CROSS-BANK ENTRY.  SEE BELOW
001318:                                                                                                  #  FOR THE TWO CALLING SEQUENCES FOR OPTIMAL USE AND BE ASSURED THAT FOR EITHER CASE ISWRETRN MUST BE USED AND
001319:                                                                                                  #  RUPTREG3 CONTAINS THE EVENTUAL RETURN ADDRESS.
001320:
001321:                                                                                                  #  LOCAL CALL:
001322:                                                                                                  #           TC     TJETLOC
001323:                                                                                                  #           TCF    NO ROTATION JETS
001324:                                                                                                  #           TS     TIME CALCULATED
001325:
001326:                                                                                                  #  CROSS-BANK CALL:
001327:                                                                                                  #           CAF    TJETLAWCADR
001328:                                                                                                  #           TC     ISWCALL
001329:                                                                                                  #           TCF    NO ROTATION JETS
001330:                                                                                                  #           TS     TIME CALCULATED
001331:
001332:
001333:
001334:                                                                                                  #  ***** VERY IMPORTANT NOTICE *****
001335:
001336:                                                                                                  #  SINCE THE Q,R-AXES SWITCHED FIXED BANK BECAME VERY FULL (DUE TO THE ADDITION OF RATE-HOLD MODE AND A BETTER
001337:                                                                                                  #  RCS-GTS INTERFACE), THE LOCAL CALL AND LOCAL ENTRY POINT FOR THE T-JET LAW HAVE BEEN DELETED AS OF REVISION  7
001338:                                                                                                  #  OF AURORA (BY JON ADDLESTON 10/24/66).
001339:
001340:
001341:
001342:                                                                                                  #  FOR CONVENIENCE, WE INCLUDE HERE THE CALL FROM THE Q,R-AXIS PROBLEM:
001343:
001344: 24,3643                                           BANK     24
001345: 24,3643           51644        QR-JETLW           CADR     TJET-LAW                              #  CADR OF Q,R-ENTRY TO TJETLAW SUBROUTINE
001346:
001347: 24,3644           04177        TJET-LAW           TC       T6JOBCHK                              #  CHECK T6 CLOCK RUPT BEFORE SUBROUTINE
001348:
001349: 24,3645           33643                           CAF      QR-JETLW                              #  T-JETLAW CALLING SEQUENCE (LIKE P-AXIS)
001350: 24,3646           04162                           TC       ISWCALL                               #  (IN INTERBANK COMMUNICATION LOG SECTION)
001351: 24,3647           12504                           TCF      XTRANS                                #  GO TO XTRANS SINCE NO ROTATION IS USED
001352: 24,3650           55626                           TS       TQR                                   #  SAVE CALCULATED TIME FOR THE TORQUE
001353: 24,3651           12554                           TCF      TORQUEV                               #  VECTOR RECONSTRUCTION PROBLEM
001354:
001355:


001357:                                                                                                  #     24,1000   0 0006 1  TJETLOC         EXTEND                   LOCAL ENTRY FAKES CROSS-BANK IN SMALL DT
001358:


001360:                                                                                                  #     24,1001   22 076 0  QXCH            RUPTREG                  SAVE RETURN WHERE  ISWCALL DOES
001361:                                                                                                  #     24,1002   3 4174 1  CAF             ISWRETRN        +3       GET CADR OF RUPTREG3 FROM TC INSTRUCTION
001362:                                                                                                  #     24,1003   54 002 1  TS              Q                        SO TC Q GOES TO RUPTREG3 FOR RETURN
001363:
001364: 25,2000                                           BANK     25
001365:
001366: 25,2000           41407        TJETLAW            CS       EDOT                                  #  TEST EDOT SIGN
001367: 25,2001           00006                           EXTEND
001368: 25,2002           62006                           BZMF     +4
001369: 25,2003           55407                           TS       EDOT                                  #  SIGNS OF E AND EDOT CHANGED IF EDOT NEG
001370: 25,2004           41411                           CS       E                                     #  TO CONSIDER FUNCTIONS IN UPPER HALF OF
001371: 25,2005           55411                           TS       E                                     #  THE E,EDOT PHASE PLANE
001372:
001373: 25,2006           31412                           CAE      EDOT(2)                               #  SCALED AT PI(2)/2(8) RAD(2)/SEC(2)
001374: 25,2007           00006                           EXTEND                                         #  (1/NJETAC HAS BEEN SET FOR N JETS)
001375: 25,2010           71471                           MP       1/NJETAC                              #  SCALED AT 2(8)/PI SEC(2)/RAD
001376: 25,2011           00006                           EXTEND
001377: 25,2012           77642                           MP       BIT14                                 #  .5EDOT(2)/NJETACC SCALED AT PI RADIANS
001378: 25,2013           61411                           AD       E                                     #  SCALED AT PI RADIANS (ERROR)
001379: 25,2014           00006                           EXTEND
001380: 25,2015           61415                           SU       DB                                    #  SCALED AT PI RADIANS (DEADBAND)
001381: 25,2016           55454                           TS       HDAP                                  #  E + .5EDOT(2)/NJETACC - DB
001382:
001383: 25,2017           00006                           EXTEND
001384: 25,2020           62070                           BZMF     NEGHDAP
001385:
001386: 25,2021           31407                           CAE      EDOT                                  #  SCALED AT PI/16 RAD/SEC (RATE)
001387: 25,2022           00006                           EXTEND
001388: 25,2023           71471                           MP       1/NJETAC                              #  SCALED AT 2(8)/PI SEC(2)/RAD (ACC) (-1)
001389: 25,2024           55521                           TS       TERMA                                 #  SCALED AT 2(4) SEC (CNTRL SMPL PERIOD)
001390: 25,2025           62205                           AD       NEGCSP                                #  EDOT/NJETACC - CSP SCALED AT 16 SECONDS
001391:
001392: 25,2026           00006                           EXTEND
001393: 25,2027           62032                           BZMF     +3
001394:
001395: 25,2030           37642        MAXTJET            CAF      BIT14                                 #  (1/2) IS LIKE POSMAX AT THIS SCALING
001396: 25,2031           12057                           TCF      NORMRETN                              #  (OVERFLOW IS THUS PREVENTED)
001397:
001398: 25,2032           41454                           CS       HDAP                                  #  -DBMINIMP + E + EDOT(2)/NJETACC - DB
001399: 25,2033           61647                           AD       MINIMPDB                              #  SCALED AT PI RADIANS
001400: 25,2034           00006                           EXTEND
001401: 25,2035           62116                           BZMF     MAINBRCH
001402:
001403: 25,2036           31521                           CAE      TERMA                                 #  EDOT/NJETACC - .5TJMIN SCALED AT 16 SECS
001404: 25,2037           62211                           AD       -20MS                                 #  - 20 MS SCALED AT 16.
001405: 25,2040           00006                           EXTEND
001406: 25,2041           62044                           BZMF     TJMIN
001407:
001408: 25,2042           62210                           AD       23.75MS                               #  WE GET TERMA + 3.75 MS.
001409: 25,2043           12164                           TCF      TJETSCAL
001410:


001412: 25,2044           42067        TJMIN              CS       PAXCALL                               #  WE KNOW WE DO P AXIS SINCE WE HAVE RUPT-
001413: 25,2045           60076                           AD       RUPTREG3                              #   REG3 = T-JETLAW +3(Q-AXIS CALL NOT AT
001414: 25,2046           00006                           EXTEND                                         #   SAME LOCATION-- WE HOPE - AND INSURE.).
001415: 25,2047           12061                           BZF      WEDOP
001416: 25,2050           31620                           CAE      NO.QJETS                              #  NO. OF Q JETS ON
001417: 25,2051           00006                           EXTEND
001418: 25,2052           12063                           BZF      WEDOR
001419: 25,2053           31621                           CAE      NO.RJETS                              #  NO. OF R JETS ON
001420: 25,2054           00006                           EXTEND
001421: 25,2055           12065                           BZF      WEDOQ
001422: 25,2056           32206        DOTJMIN            CAF      +TJMINT6
001423: 25,2057           24076        NORMRETN           INCR     RUPTREG3                              #  *** RETURN +1 ***
001424: 25,2060           00002                           TC       Q                                     #  BACK TO ISWRETRN
001425: 25,2061           55416        WEDOP              TS       OMEGAP
001426: 25,2062           12056                           TCF      DOTJMIN
001427: 25,2063           55421        WEDOR              TS       OMEGAR
001428: 25,2064           12056                           TCF      DOTJMIN
001429: 25,2065           55417        WEDOQ              TS       OMEGAQ
001430: 25,2066           12056                           TCF      DOTJMIN
001431: 25,2067           02666        PAXCALL            GENADR   T-JETLAW   +3
001432: 25,2070           31412        NEGHDAP            CAE      EDOT(2)                               #  SCALED AT PI(2)/2(8) RAD(2)/SEC(2)
001433: 25,2071           00006                           EXTEND
001434: 25,2072           71650                           MP       .5ACCMNE                              #  .5(1/ACCMIN) AT 2(8)/PI SEC(2)/RAD
001435: 25,2073           61411                           AD       E                                     #  SCALED AT PI RADIANS (ERROR)
001436: 25,2074           61415                           AD       DB                                    #  SCALED AT PI RADIANS  (DEADBAND)
001437: 25,2075           61646                           AD       DBMINIMP
001438: 25,2076           00006                           EXTEND
001439: 25,2077           62101                           BZMF     +2
001440: 25,2100           00002                           TC       Q                                     #  *** RETURN *** (NO JETS)
001441:
001442: 25,2101           42212                 +2        CS       MAXRATE                               #  10 DEG/SEC SCALED AT PI/16 RAD/SEC
001443: 25,2102           61407                           AD       EDOT                                  #  EDOT - MAXRATE
001444: 25,2103           00006                           EXTEND
001445: 25,2104           62106                           BZMF     +2
001446: 25,2105           00002                           TC       Q                                     #  *** RETURN *** (NO JETS)
001447:
001448: 25,2106           41407                 +2        CS       EDOT                                  #  SCALED AT PI/16 RAD/SEC (RATE)
001449: 25,2107           00006                           EXTEND
001450: 25,2110           71471                           MP       1/NJETAC                              #  SCALED AT 2(8)/PI SEC(2)/RAD (ACC)(-1)
001451: 25,2111           55521                           TS       TERMA                                 #  -EDOT/NJETACC SCALED AT 2(4) SECONDS
001452:
001453: 25,2112           41454                           CS       HDAP                                  #  - E + .5EDOT(2)/NJETACC + DB
001454: 25,2113           61411                           AD       E
001455: 25,2114           61411                           AD       E                                     #  TWICE ERROR NEGATES E OF HDAP(OLD)
001456: 25,2115           61647                           AD       MINIMPDB
001457: 25,2116           55454        MAINBRCH           TS       HDAP                                  #  -HDAP(OLD) + 2E + DBMINIMP AT PI RADS
001458:
001459: 25,2117           31471                           CAE      1/NJETAC                              #  SCALED AT 2(8)/PI SEC(2)/RAD
001460: 25,2120           00006                           EXTEND
001461: 25,2121           77642                           MP       BIT14                                 #  (1/2)(1/NJETAC)
001462:


001464: 25,2122           61650                           AD       .5ACCMNE
001465: 25,2123           55456                           TS       DENOM                                 #  .5(1/NJETACC) + .5(1/ACCMIN) AT 2(8)/PI
001466:
001467: 25,2124           00006                           EXTEND
001468: 25,2125           72213                           MP       MAXRATE2                              #  SCALED AT PI(2)/2(8) RAD(2)/SEC(2)
001469: 25,2126           61454                           AD       HDAP                                  #  DENOM.MAXRATE(2) + HDAP AT PI RADIANS
001470: 25,2127           00006                           EXTEND
001471: 25,2130           62170                           BZMF     NOROOT
001472:
001473: 25,2131           31454                           CAE      HDAP                                  #  SCALED AT PI RADIANS
001474: 25,2132           00006                           EXTEND
001475: 25,2133           11456                           DV       DENOM                                 #  SCALED AT 2(8)/PI SEC(2)/RAD(2)
001476: 25,2134           00006                           EXTEND
001477: 25,2135           71471                           MP       1/NJETAC
001478: 25,2136           00006                           EXTEND
001479: 25,2137           71471                           MP       1/NJETAC
001480: 25,2140           55522                           TS       TERMB                                 #  -(HDAP/DENOM)(1/NJETACC)(2) AT 2(8) SECS
001481:
001482: 25,2141           32205                           CAF      NEGCSP                                #  SCALED AT 2(4) SECONDS
001483: 25,2142           61521                           AD       TERMA
001484: 25,2143           00006                           EXTEND
001485: 25,2144           70000                           SQUARE                                         #  SCALED AT 2(8) SECONDS
001486: 25,2145           61522                           AD       TERMB
001487: 25,2146           00006                           EXTEND                                         #  (TERMA - CSP)(2) + TERMB
001488: 25,2147           62030                           BZMF     MAXTJET
001489: 25,2150           32207                           CAF      -TJMIN16
001490: 25,2151           61521                           AD       TERMA                                 #  TERMA - TJMIN SCALED AT 2(4) SECONDS
001491: 25,2152           00006                           EXTEND
001492: 25,2153           62175                           BZMF     MAYNOJET
001493:
001494: 25,2154           00006        PREROOT            EXTEND                                         #  MUST SAVE Q .
001495:
001496: 25,2155           23517                           QXCH     A+B
001497: 25,2156           04177                           TC       T6JOBCHK
001498: 25,2157           41522                           CS       TERMB
001499: 25,2160           04275                           TC       SPROOT                                #  SQRT(-TERMB) SCALED AT 2(4) SECONDS
001500:
001501: 25,2161           00006                           EXTEND                                         #  MUST RESTORE OLD Q AFTER SPROOT
001502: 25,2162           23517                           QXCH     A+B
001503:
001504: 25,2163           61521        TJSUM              AD       TERMA                                 #  TERMA + SQRT(-TERMB)
001505: 25,2164           60000        TJETSCAL           DOUBLE                                         #  NOW SCALED AT 2(3) SECONDS
001506: 25,2165           00006                           EXTEND
001507: 25,2166           72215                           MP       25/32QR                               #  SCALED T TO 16/25 2(4) SECONDS.
001508: 25,2167           12057                           TCF      NORMRETN                              #  *** RETURN +1 ***
001509:
001510: 25,2170           32212        NOROOT             CAF      MAXRATE
001511: 25,2171           62214                           AD       .6DEG/SC                              #  MAXRATE + DEL SCALED AT PI/16 RAD/SEC
001512: 25,2172           00006                           EXTEND
001513: 25,2173           71471                           MP       1/NJETAC                              #  SCALED 2(8)/PI SEC(2)/RAD
001514:


001516: 25,2174           12163                           TCF      TJSUM                                 #  SCALED AT 2(4) RADIANS
001517:
001518: 25,2175           32207        MAYNOJET           CAF      -TJMIN16
001519: 25,2176           61521                           AD       TERMA                                 #  TERMA - TJMIN SCALED AT 2(4) SECONDS
001520: 25,2177           00006                           EXTEND
001521: 25,2200           70000                           SQUARE                                         #  SCALED AT 2(8) SEC(2)
001522: 25,2201           61522                           AD       TERMB
001523: 25,2202           00006                           EXTEND
001524: 25,2203           62154                           BZMF     PREROOT                               #  (TERMA - TJMIN)(2) + TERMB AT 2(8)
001525: 25,2204           00002                           TC       Q                                     #  *** RETURN *** (NO JETS)
001526:
001527: 25,2205           77631        NEGCSP             DEC      -.00625                               #  100 MS SCALED AT 2(4) SECONDS
001528: 25,2206           00014        +TJMINT6           DEC      +.00073
001529: 25,2207           77767        -TJMIN16           DEC      -.00047
001530: 25,2210  25,2207               -TJMINQR           EQUALS   -TJMIN16
001531: 25,2210           00030        23.75MS            DEC      0.00148                               #  23.75 MS SCALED AT 16 SECONDS.
001532: 25,2211           77753        -20MS              DEC      -.00125                               #  - 20 MS SCALED AT 16 SECONDS.
001533: 25,2212           34344        MAXRATE            DEC      0.88889                               #  10 DEGREES/SECOND SCALED AT PI/16
001534: 25,2213           31221        MAXRATE2           DEC      0.79012                               #  100 DEG(2)/SEC(2) SCALED AT PI(2)/2(8)
001535: 25,2214           01552        .6DEG/SC           DEC      0.05333                               #  6/10 DEGREES/SECOND SACLED AT PI/16
001536: 25,2215           31000        25/32QR            DEC      0.78125
001537:


001539:                                                                                                  #  THESE TWO SUBROUTINES TRANSFORM EDOTQ,EDOTR INTO THE U/V-AXIS (RESPECTIVELY) FOR THE RATE COMMAND MODE (ONLY).
001540:                                                                                                  #  VALUE IS STORED IN EDOTGEN SCALED AT PI/4 RADIANS/SECOND.
001541:
001542: 24,3652                                           BANK     24
001543:
001544: 24,3652           31447        EDOTUGEN           CAE      1/2JETSU                              #  FOR U-AXIS TRANSFORMATION
001545: 24,3653           55471                           TS       1/NJETAC
001546: 24,3654           31424                           CAE      EDOTQ
001547: 24,3655           13661                           TCF      +4
001548: 24,3656           31450        EDOTVGEN           CAE      1/2JETSV                              #  FOR V-AXIS TRANSFORMATION
001549: 24,3657           55471                           TS       1/NJETAC
001550: 24,3660           41424                           CS       EDOTQ
001551: 24,3661           61425                           AD       EDOTR
001552: 24,3662           00006                           EXTEND
001553: 24,3663           73523                           MP       .707
001554: 24,3664           55443                           TS       RATEDIF
001555: 24,3665           00002                           TC       Q
001556:
001557:
001558:
001559:                                                                                                  #  THESE PROGRAMS REDUCE THE RATE ERROR TO 10.6 DEGREES/SECOND.
001560:
001561: 24,3666           41407        REDUCERA           CS       EDOT                                  #  TEST FRO P-AXIS PROBLEM
001562: 24,3667           61423                           AD       EDOTP                                 #  EXACT MATCH MEANS P-AXIS
001563: 24,3670           00006                           EXTEND
001564: 24,3671           13703                           BZF      REDUCEP                               #  P-AXIS SUM IS ALWAYS MINUS ZERO
001565:
001566: 24,3672           03715        REDUCEQR           TC       REDUCESC                              #  GET SHRINK FACTOR
001567: 24,3673           00006                           EXTEND                                         #  SHRINK Q-AXIS COMPONENT
001568: 24,3674           71424                           MP       EDOTQ
001569: 24,3675           55424                           TS       QRATEDIF
001570:
001571: 24,3676           31425                           CAE      EDOTR                                 #  SHRINK R-AXIS COMPONENT
001572: 24,3677           00006                           EXTEND
001573: 24,3700           71407                           MP       EDOT
001574: 24,3701           55425                           TS       RRATEDIF
001575:
001576: 24,3702           12352                           TCF      OBEYQRRC
001577:
001578: 24,3703           03715        REDUCEP            TC       REDUCESC                              #  GET SHRINK FACTOR
001579: 24,3704           00006                           EXTEND                                         #  SHRINK P-AXIS COMPONENT
001580: 24,3705           71423                           MP       EDOTP
001581: 24,3706           55423                           TS       EDOTP
001582: 24,3707           55440                           TS       TPSIG
001583:
001584: 24,3710           00006                           EXTEND
001585: 24,3711           33714                           DCA      +2
001586: 24,3712           52006                           DTCB
001587: 24,3713           02424 46006                     2CADR    OBEYRAPE
001588:


001590: 24,3715           33722        REDUCESC           CAF      10.6D/S                               #  SCALED AT PI/4
001591: 24,3716           00006                           EXTEND
001592: 24,3717           11407                           DV       EDOT                                  #  RESULT SCALED AT 1
001593: 24,3720           55407                           TS       EDOT                                  #  SAVE FACTOR IN EDOT FOR R SHRINKAGE
001594: 24,3721           00002                           TC       Q                                     #  *** RETURN ***
001595:
001596: 24,3722           07313        10.6D/S            DEC      0.23111                               #  10.6 DEGRESS/SECOND SCALED AT PI/4
001597:
001598:
001599:
001600: 24,3723                        ENDDAP24           EQUALS

End of include-file Q,R-AXES_REACTION_CONTROL_SYSTEM_AUTOPILOT.agc.  Parent file is MAIN.agc


