
Source Code


000002:                                                                                                  ## Copyright:    Public domain.
000003:                                                                                                  ## Filename:     RADAR_LEAD-IN_ROUTINES.agc
000004:                                                                                                  ## Purpose:      Part of the source code for Aurora (revision 12).
000005:                                                                                                  ## Assembler:    yaYUL
000006:                                                                                                  ## Contact:      Ron Burkey <info@sandroid.org>.
000007:                                                                                                  ## Website:      https://www.ibiblio.org/apollo.
000008:                                                                                                  ## Pages:        227-255
000009:                                                                                                  ## Mod history:  2016-09-20 JL   Created.
000010:                                                                                                  ##               2016-10-20 HG   finished transcription
000011:                                                                                                  ##               2016-12-08 RSB  Proofed comments with octopus/ProoferComments
000012:                                                                                                  ##                               and fixed the errors found.
000013:
000014:                                                                                                  ## This source code has been transcribed or otherwise adapted from
000015:                                                                                                  ## digitized images of a hardcopy from the private collection of
000016:                                                                                                  ## Don Eyles.  The digitization was performed by archive.org.
000017:
000018:                                                                                                  ## Notations on the hardcopy document read, in part:
000019:
000020:                                                                                                  ##       473423A YUL SYSTEM FOR BLK2: REVISION 12 of PROGRAM AURORA BY DAP GROUP
000021:                                                                                                  ##       NOV 10, 1966
000022:
000023:                                                                                                  ##       [Note that this is the date the hardcopy was made, not the
000024:                                                                                                  ##       date of the program revision or the assembly.]
000025:
000026:                                                                                                  ## The scan images (with suitable reduction in storage size and consequent
000027:                                                                                                  ## reduction in image quality) are available online at
000028:                                                                                                  ##       https://www.ibiblio.org/apollo.
000029:                                                                                                  ## The original high-quality digital images are available at archive.org:
000030:                                                                                                  ##       https://archive.org/details/aurora00dapg
000031:
000032:


000034:    4763                                           SETLOC   ENDIMODF
000035:    4763  E3,1460                                  EBANK=   RRRET
000036:
000037:                                                                                                  #           THE FOLLOWING SUBROUTINE RETURNS TO CALLER + 2 IF THE ABSOLUTE VALUE OF C(A) IS GREATER THAN THE
000038:                                                                                                  #  NEGATIVE OF THE NUMBER AT CALLER +1. OTHERWISE IT RETURNS TO CALLER +3. MAY BE CALLED IN RUPT OR UNDER EXEC.
000039:
000040:    4763           00006        MAGSUB             EXTEND
000041:    4764           64766                           BZMF     +2
000042:    4765           14767                           TCF      +2
000043:    4766           40000                           COM
000044:
000045:    4767           50002                           INDEX    Q
000046:    4770           60000                           AD       0
000047:    4771           00006                           EXTEND
000048:    4772           64775                           BZMF     +3                                    #  ABS(A) G CONST
000049:    4773           50002                           INDEX    Q
000050:    4774           00001                           TC       1                                     #  ABS(A) LEQ CONST
000051:
000052:    4775           50002        MAGLESS            INDEX    Q
000053:    4776           00002                           TC       2
000054:


000056:                                                                                                  #           THE FOLLOWING SUBROUTINE CHECKS RR GIMBAL ANGLES TO SEE IF THEY ARE IN THE LIMITS OF THE CURRENT MODE.
000057:                                                                                                  #  CALLING SEQUENCE IS AS FOLLOWS:
000058:
000059:                                                                                                  #                                                   TC     RRLIMCHK        (WITH INTERRUPT INHIBITED).
000060:                                                                                                  #                                                   ADRES  T,S             (IN UNSWITCHED E OR CURRENT EBANK).
000061:
000062:                                                                                                  #           RETURN IS TO CALLER +2 IF NOT IN LIMITS AND TO CALLER +3 IF SO.
000063:
000064:    4777           50002        RRLIMCHK           INDEX    Q                                     #  READ GIMBAL ANGLES INTO ITEMP STORAGE.
000065:    5000           30000                           CAF      0
000066:    5001           24002                           INCR     Q
000067:    5002           00006                           EXTEND
000068:    5003           50000                           INDEX    A
000069:    5004           30001                           DCA      0
000070:    5005           52066                           DXCH     ITEMP1
000071:    5006           22002                           LXCH     Q                                     #  L(CALLER +2) TO L.
000072:
000073:    5007           37644                           CAF      BIT12                                 #  SEE WHICH MODE RR IS IN.
000074:    5010           70413                           MASK     RADMODES
000075:    5011           10000                           CCS      A
000076:    5012           15025                           TCF      MODE2CHK
000077:
000078:    5013           30065                           CA       ITEMP1                                #  MODE 1 IS DEFINED AS
000079:    5014           04763                           TC       MAGSUB                                #      1. ABS(T) L 70 DEGS.
000080:    5015           66161                           DEC      -.30555                               #      2. ABS(S + 5.5 DEGS) L 64.5 DEGS
000081:    5016           00001                           TC       L                                     #          (SHAFT LIMITS AT +59, -70 DEGS)
000082:
000083:    5017           35037                           CAF      5.5DEGS
000084:    5020           60066                           AD       ITEMP2                                #  S
000085:    5021           04763                           TC       MAGSUB
000086:    5022           64420                           DEC      -.35833                               #  64.5 DEGS
000087:    5023           00001                           TC       L
000088:    5024           05035                           TC       RRLIMOK                               #  IN LIMITS.
000089:
000090:    5025           35041        MODE2CHK           CAF      82DEGS                                #  MODE 2 IS DEFINED AS
000091:    5026           60066                           AD       ITEMP2                                #      1. ABS(T) G 110 DEGS
000092:    5027           04763                           TC       MAGSUB                                #      2. ABS(S + 82 DEGS) L 57 DEGS
000093:    5030           65673                           DEC      -.31667                               #          (SHAFT LIMITS AT -25, -139 DEGS)
000094:    5031           00001                           TC       L
000095:
000096:    5032           30065                           CA       ITEMP1
000097:    5033           04763                           TC       MAGSUB
000098:    5034           54343                           DEC      -.61111                               #  110 DEGS
000099:
000100:    5035           50001        RRLIMOK            INDEX    L
000101:    5036           00001                           TC       L                                     #  ( = TC 1)
000102:
000103:    5037           00765        5.5DEGS            DEC      .03056
000104:    5040           00707        5DEGS              DEC      .02777                                #  SCALED IN HALF-REVOLUTIONS.
000105:    5041           16450        82DEGS             DEC      .45556
000106:


000108:                                                                                                  #           THE FOLLOWING ROUTINE UPDATES THE TRACKER FAIL LAMP ON THE DSKY, IF EITHER:
000109:
000110:                                                                                                  #           1. N SAMPLES OF RR DATA COULD NOT BE OBTAINED FROM 2N TRIES
000111:                                                                                                  #           2. N SAMPLES OF LR DATA COULD NOT BE TAKEN IN 2N TRIES WITH EITHER THE ALT OR VEL INFORMATION.
000112:                                                                                                  #           3. RR CDU FAILED WITH RR IN AUTO MODE AND RR CDU NOT BEING ZEROED.
000113:
000114:    5042           37657        SETTRKF            CAF      BIT1                                  #  NO ACTION IF DURING LAMP TEST.
000115:    5043           70370                           MASK     IMODES33
000116:    5044           10000                           CCS      A
000117:    5045           00002                           TC       Q
000118:
000119:    5046           35076                           CAF      13,7,2                                #  SEE IF CDU FAILED.
000120:    5047           70413                           MASK     RADMODES
000121:    5050           00006                           EXTEND
000122:    5051           15061                           BZF      TRKFLON                               #  CONDITION 3 ABOVE.
000123:
000124:    5052           40413                           CS       RADMODES                              #  SEE IF LR FAILED.
000125:    5053           75077                           MASK     8,5
000126:    5054           00006                           EXTEND
000127:    5055           15061                           BZF      TRKFLON                               #  CONDITION 2 ABOVE.
000128:
000129:    5056           37654                           CAF      BIT4                                  #  SEE IF RR DATA FAILED.
000130:    5057           70413                           MASK     RADMODES
000131:    5060           10000                           CCS      A
000132:    5061           37650        TRKFLON            CAF      BIT8
000133:    5062           60322                           AD       DSPTAB     +11D                       #  HALF ADD DESIRED AND PRESENT STATES.
000134:    5063           77650                           MASK     BIT8
000135:    5064           00006                           EXTEND
000136:    5065           14712                           BZF      TCQ                                   #  NO CHANGE.
000137:
000138:    5066           54001                           TS       L                                     #  INVERT BIT 8 AND SET BIT 15.
000139:    5067           30322                           CA       DSPTAB     +11D                       #  CANT USE LXCH DSPTAB +11D (RESTART PROB)
000140:    5070           00006                           EXTEND
000141:    5071           06001                           RXOR     L
000142:    5072           77637                           MASK     POSMAX
000143:    5073           67641                           AD       BIT15
000144:    5074           54322                           TS       DSPTAB     +11D
000145:    5075           00002                           TC       Q
000146:
000147:    5076           10102        13,7,2             OCT      10102
000148:    5077           00220        8,5                OCT      00220
000149:
000150:    5100                        ENDRMODF           EQUALS
000151:


000153:                                                                                                  #           TURNON SEQUENCE TO ZERO THE CDUS AND DETERMINE THE RR MODE.
000154:
000155: 10,2000                                           BANK     10
000156:
000157: 10,2000           02013        RRTURNON           TC       RRZEROSB
000158: 10,2001           04554                           TC       FIXDELAY                              #  WAIT 1 SEC BEFORE REMOVING TURN ON FLAG
000159: 10,2002           00144                           DEC      100        B-14                       #  SO A MONITOR REPOSITION WONT ALARM.
000160: 10,2003           47657                           CS       BIT1
000161: 10,2004           70413                           MASK     RADMODES
000162: 10,2005           54413                           TS       RADMODES
000163: 10,2006           40061                           CS       STATE                                 #  SEE IF SOMEONE IS WAITING TO USE THE RR.
000164: 10,2007           77651                           MASK     RRUSEFLG
000165: 10,2010           10000                           CCS      A
000166: 10,2011           14602                           TCF      TASKOVER
000167:
000168: 10,2012           13235                           TCF      ENDRADAR                              #  CHECK RR CDU FAIL BEFORE EXIT.
000169:


000171:                                                                                                  #           CLOSED SUBROUTINE TO ZERO THE RR CDUS.
000172:
000173: 10,2013           00006        RRZEROSB           EXTEND
000174: 10,2014           23460                           QXCH     RRRET
000175: 10,2015           37657                           CAF      BIT1                                  #  BIT 13 OF RADMODES MUST BE SET BEFORE
000176: 10,2016           00006                           EXTEND                                         #  COMING HERE.
000177: 10,2017           05012                           WOR      12
000178: 10,2020           04554                           TC       FIXDELAY
000179: 10,2021           00002                           DEC      2          B-14
000180:
000181: 10,2022           37665                           CAF      ZERO
000182: 10,2023           54035                           TS       OPTY
000183: 10,2024           54036                           TS       OPTX
000184: 10,2025           47657                           CS       ONE                                   #  REMOVE ZEROING BIT.
000185: 10,2026           00006                           EXTEND
000186: 10,2027           03012                           WAND     12
000187: 10,2030           04554                           TC       FIXDELAY
000188: 10,2031           00454                           DEC      300        B-14
000189:
000190: 10,2032           47643                           CS       BIT13                                 #  REMOVE ZEROING IN PROCESS BIT.
000191: 10,2033           70413                           MASK     RADMODES
000192: 10,2034           54413                           TS       RADMODES
000193:
000194: 10,2035           30035                           CA       OPTY
000195: 10,2036           04763                           TC       MAGSUB
000196: 10,2037           57777                           DEC      -.5
000197: 10,2040           12043                           TCF      +3                                    #  IF MODE 2.
000198:
000199: 10,2041           37665                           CAF      ZERO
000200: 10,2042           12044                           TCF      +2
000201: 10,2043           37644                           CAF      BIT12
000202: 10,2044           56413                           XCH      RADMODES
000203: 10,2045           74360                           MASK     -BIT12
000204: 10,2046           26413                           ADS      RADMODES
000205:
000206: 10,2047           05042                           TC       SETTRKF                               #  TRACKER LAMP MIGHT GO ON NOW.
000207:
000208: 10,2050           01460                           TC       RRRET                                 #  DONE.
000209:
000210: 10,2051     4360               -BIT12             EQUALS   -1/8                                  #  IN SPROOT
000211:


000213:                                                                                                  #           SEQUENCE OF TASKS TO DRIVE THE RR TO A SAFE POSITION.
000214:
000215: 10,2051           02106        DORREPOS           TC       SETRRECR                              #  SET UP RR CDU ERROR COUNTERS.
000216:
000217: 10,2052           37657                           CAF      BIT1                                  #  DO AN ALARM UNLESS RR JUST TURNED ON.
000218: 10,2053           70413                           MASK     RADMODES
000219: 10,2054           10000                           CCS      A
000220: 10,2055           12060                           TCF      +3
000221:
000222: 10,2056           05413                           TC       ALARM
000223: 10,2057           00501                           OCT      501
000224: 10,2060           04554                           TC       FIXDELAY
000225: 10,2061           00002                           DEC      2          B-14
000226:
000227: 10,2062           37644                           CAF      BIT12                                 #  MANEUVER TRUNNION ANGLE TO NOMINAL POS.
000228: 10,2063           70413                           MASK     RADMODES
000229: 10,2064           10000                           CCS      A
000230: 10,2065           37641                           CAF      BIT15                                 #  0 FOR MODE 1 AND 180 FOR MODE 2.
000231: 10,2066           02150                           TC       RRTONLY
000232:
000233: 10,2067           37644                           CAF      BIT12                                 #  NOW PUT SHAFT IN RIGHT POSITION.
000234: 10,2070           70413                           MASK     RADMODES
000235: 10,2071           10000                           CCS      A
000236: 10,2072           47642                           CS       HALF                                  #  -90 FOR MODE 2.
000237: 10,2073           02153                           TC       RRSONLY
000238:
000239: 10,2074           47645        REPOSRPT           CS       BIT11                                 #  RETURNS HERE FROM RR1AXIS IF REMODE
000240:                                                                                                  #  REQUESTED DURING REPOSITION.
000241: 10,2075           70413                           MASK     RADMODES                              #  REMOVE REPOSITION BIT.
000242: 10,2076           54413                           TS       RADMODES
000243: 10,2077           77646                           MASK     BIT10                                 #  SEE IF SOMEONE IS WAITING TO DESIGNATE.
000244: 10,2100           10000                           CCS      A
000245: 10,2101           12422                           TCF      BEGDES
000246: 10,2102           47656                           CS       BIT2                                  #  IF NO FURTHER ANTENNA CONTROL REQUIRED,
000247: 10,2103           00006                           EXTEND                                         #  REMOVE ERROR COUNTER ENABLE.
000248: 10,2104           03012                           WAND     12
000249: 10,2105           14602                           TCF      TASKOVER
000250:
000251: 10,2106           37656        SETRRECR           CAF      BIT2                                  #  SET UP RR ERROR COUNTERS.
000252: 10,2107           00006                           EXTEND
000253: 10,2110           05012                           WOR      12
000254:
000255: 10,2111           37665                           CAF      ZERO
000256: 10,2112           54362                           TS       LASTYCMD
000257: 10,2113           54363                           TS       LASTXCMD
000258: 10,2114           00002                           TC       Q
000259:


000261:                                                                                                  #           GENERAL REMODING SUBROUTINE. DRIVES TRUNION TO 0 (180), THEN DRIVES SHAFT TO -45, AND FINALLY DRIVES
000262:                                                                                                  #  TRUNNION TO -130 (-50) BEFORE INITIATING 2-AXIS CONTROL. ALL RE-MODING IONE WITH SINGLE AXIS ROTATIONS (RR1AXIS)
000263: 10,2115           37644        REMODE             CAF      BIT12                                 #  DRIVE TRUNNION TO 0 (180).
000264: 10,2116           70413                           MASK     RADMODES                              #  (ERROR COUNTER ALREADY ENABLED)
000265: 10,2117           10000                           CCS      A
000266: 10,2120           37641                           CAF      BIT15
000267: 10,2121           02150                           TC       RRTONLY
000268:
000269: 10,2122           32137                           CAF      -45DEGSR
000270: 10,2123           02153                           TC       RRSONLY
000271:
000272: 10,2124           40413                           CS       RADMODES
000273: 10,2125           77644                           MASK     BIT12
000274: 10,2126           10000                           CCS      A
000275: 10,2127           32141                           CAF      -80DEGSR                              #  GO TO T = -130 (-50).
000276: 10,2130           62141                           AD       -80DEGSR
000277: 10,2131           02150                           TC       RRTONLY
000278:
000279: 10,2132           02142                           TC       RMODINV
000280:
000281: 10,2133           47642                           CS       BIT14                                 #  END OF REMODE.
000282: 10,2134           70413                           MASK     RADMODES
000283: 10,2135           54413                           TS       RADMODES
000284:
000285: 10,2136           02431                           TC       STDESIG                               #  BEGIN 2-AXIS CONTROL.
000286:
000287: 10,2137           70000        -45DEGSR           OCT      70000
000288: 10,2140           67070        -50DEGSR           DEC      -.27778
000289: 10,2141           61615        -80DEGSR           DEC      -.44444
000290:
000291: 10,2142           22413        RMODINV            LXCH     RADMODES                              #  INVERT THE MODE STATUS.
000292: 10,2143           37644                           CAF      BIT12
000293: 10,2144           00006                           EXTEND
000294: 10,2145           06001                           RXOR     L
000295: 10,2146           54413                           TS       RADMODES
000296: 10,2147           00002                           TC       Q
000297:


000299:                                                                                                  #           SUBROUTINES FOR DOING SINGLE AXIS RR MANEUVERS FOR REMODE AND REPOSITION. DRIVES TO WITHIN 1 DEGREE.
000300:
000301: 10,2150           55461        RRTONLY            TS       RDES                                  #  DESIRED TRUNION ANGLE.
000302: 10,2151           37665                           CAF      ZERO
000303: 10,2152           12155                           TCF      RR1AXIS
000304:
000305: 10,2153           55461        RRSONLY            TS       RDES                                  #  SHAFT COMMANDS ARE UNRESOLVED SINCE THIS
000306: 10,2154           37657                           CAF      ONE                                   #  ROUTINE ENTERED ONLY WHEN T = 0 OR 180.
000307:
000308: 10,2155           55462        RR1AXIS            TS       RRINDEX
000309: 10,2156           00006                           EXTEND
000310: 10,2157           23460                           QXCH     RRRET
000311: 10,2160           12163                           TCF      RR1AX2
000312:
000313: 10,2161           04554        NXTRR1AX           TC       FIXDELAY
000314: 10,2162           00062                           DEC      50         B-14                       #  2 SAMPLES PER SECOND.
000315:
000316: 10,2163           40413        RR1AX2             CS       RADMODES                              #  IF SOMEONE REQUESTES AS DESIGNATE WHICH
000317: 10,2164           74520                           MASK     PRIO22                                #  REQUIRES A REMODE AND A REPOSITION IS IN
000318: 10,2165           00006                           EXTEND                                         #  PROGRESS, INTERRUPT IT AND START THE
000319: 10,2166           12074                           BZF      REPOSRPT                              #  REMODE IMMEDIATELY.
000320:
000321: 10,2167           31461                           CA       RDES
000322: 10,2170           00006                           EXTEND
000323: 10,2171           51462                           INDEX    RRINDEX
000324: 10,2172           20035                           MSU      OPTY
000325: 10,2173           54002                           TS       Q                                     #  SAVE ERROR SIGNAL.
000326: 10,2174           00006                           EXTEND
000327: 10,2175           72212                           MP       RRSPGAIN                              #  TRIES TO NULL .7 OF ERROR OVER NEXT .5
000328: 10,2176           54001                           TS       L
000329: 10,2177           30002                           CA       Q                                     #  SEE IF WITHIN 1 DEGREE.
000330: 10,2200           04763                           TC       MAGSUB
000331: 10,2201           77644                           DEC      -.00555                               #  SCALED IN HALF-REVS.
000332:
000333: 10,2202           12204                           TCF      +2                                    #  NO.
000334: 10,2203           01460                           TC       RRRET                                 #  RETURN TO CALLER.
000335:
000336: 10,2204           11462                           CCS      RRINDEX                               #  COMMAND FOR OTHER AXIS IS ZERO.
000337: 10,2205           12207                           TCF      +2                                    #  SETTING A TO 0.
000338: 10,2206           56001                           XCH      L
000339: 10,2207           52424                           DXCH     TANG
000340:
000341: 10,2210           02213                           TC       RROUT
000342:
000343: 10,2211           12161                           TCF      NXTRR1AX                              #  COME BACK IN .5 SECONDS.
000344:
000345: 10,2212           22715        RRSPGAIN           DEC      .59062                                #  NULL .7 ERROR IN .5 SEC.
000346:


000348:                                                                                                  #           THE FOLLOWING ROUTINE RECEIVES RR GYRO COMMANDS IN TANG,+1 IN ERROR COUNTER SCALING. RROUT LIMITS THEM
000349:                                                                                                  #  AND GENERATES COMMANDS TO THE CDU TO ADJUST THE ERROR COUNTERS TO THE DESIRED VALUES. RUPT MUST BE INHIBITED.
000350:
000351: 10,2213           22002        RROUT              LXCH     Q                                     #  SAVE RETURN.
000352: 10,2214           37657                           CAF      ONE                                   #  LOOP TWICE.
000353: 10,2215           54066        RROUT2             TS       ITEMP2
000354: 10,2216           50000                           INDEX    A
000355: 10,2217           30423                           CA       TANG
000356: 10,2220           54065                           TS       ITEMP1                                #  SAVE SIGN OF COMMAND FOR LIMITING.
000357:
000358: 10,2221           04763                           TC       MAGSUB                                #  SEE IF WITHIN LMITS.
000359: 10,2222           77177        -RRLIMIT           DEC      -384       B-14
000360: 10,2223           12241                           TCF      RROUTLIM                              #  LIMIT COMMAND TO MAG OF 384.
000361:
000362: 10,2224           30065        SETRRCTR           CA       ITEMP1                                #  COUNT OUT DIFFERENCE BETWEEN DESIRED
000363: 10,2225           50066                           INDEX    ITEMP2                                #  STATE AND PRESENT STATE AS RECORDED IN
000364: 10,2226           56362                           XCH      LASTYCMD                              #  LASTYCMD AND LASTXCMD
000365: 10,2227           40000                           COM
000366: 10,2230           60065                           AD       ITEMP1
000367: 10,2231           50066                           INDEX    ITEMP2
000368: 10,2232           54053                           TS       OPTYCMD
000369:
000370: 10,2233           10066                           CCS      ITEMP2                                #  PROCESS BOTH INPUTS.
000371: 10,2234           12215                           TCF      RROUT2
000372:
000373: 10,2235           34506                           CAF      PRIO6                                 #  ENABLE COUNTERS.
000374: 10,2236           00006                           EXTEND
000375: 10,2237           05014                           WOR      14
000376:
000377: 10,2240           00001                           TC       L                                     #  RETURN.
000378:
000379: 10,2241           10065        RROUTLIM           CCS      ITEMP1                                #  LIMIT COMMAND TO ABS VAL OF 384.
000380: 10,2242           42222                           CS       -RRLIMIT
000381: 10,2243           12245                           TCF      +2
000382: 10,2244           32222                           CA       -RRLIMIT
000383: 10,2245           54065                           TS       ITEMP1
000384: 10,2246           12225                           TCF      SETRRCTR   +1
000385:


000387:                                                                                                  #           ROUTINE TO ZERO THE RR CDUS AND DETERMINE THE ANTENNA MODE.
000388:
000389: 10,2247           00004        RRZERO             INHINT
000390: 10,2250           47651                           CS       RRUSEFLG                              #  SET FLAG TO SHOW SOMEONE USING THE RR.
000391: 10,2251           70061                           MASK     STATE
000392: 10,2252           67651                           AD       RRUSEFLG
000393: 10,2253           54061                           TS       STATE
000394:
000395: 10,2254           37657                           CAF      BIT1                                  #  SEE IF RR COMING UP. IF SO, TURNON
000396: 10,2255           70413                           MASK     RADMODES                              #  PROGRAM WILL DO THE WORK.
000397: 10,2256           10000                           CCS      A
000398: 10,2257           12302                           TCF      ROADBACK
000399:
000400: 10,2260           37645                           CAF      BIT11                                 #  SEE IF MONITOR REPOSITION IN PROGRESS.
000401: 10,2261           70413                           MASK     RADMODES                              #  IF SO, DONT RE-ZERO CDUS.
000402: 10,2262           10000                           CCS      A
000403: 10,2263           13227                           TCF      RADNOOP                               #  (IMMEDIATE TASK TO RGOODEND).
000404:
000405: 10,2264           47643                           CS       BIT13                                 #  SET FLAG TO SHOW ZEROING IN PROGRESS.
000406: 10,2265           70413                           MASK     RADMODES
000407: 10,2266           67643                           AD       BIT13
000408: 10,2267           54413                           TS       RADMODES
000409:
000410: 10,2270           37657                           CAF      ONE
000411: 10,2271           04536                           TC       WAITLIST
000412: 10,2272           02304 20003                     2CADR    RRZ2
000413:
000414: 10,2274           40413                           CS       RADMODES                              #  SEE IF IN AUTO MODE.
000415: 10,2275           77656                           MASK     BIT2
000416: 10,2276           10000                           CCS      A
000417: 10,2277           12302                           TCF      ROADBACK
000418: 10,2300           05413                           TC       ALARM                                 #  AUTO DISCRETE NOT PRESENT - TRYING
000419: 10,2301           00510                           OCT      510
000420: 10,2302           00003        ROADBACK           RELINT
000421: 10,2303           14076                           TCF      SWRETURN
000422:
000423: 10,2304           02013        RRZ2               TC       RRZEROSB                              #  COMMON TO TURNON AND RRZERO.
000424: 10,2305           13235                           TCF      ENDRADAR
000425:
000426: 10,2306     7651               RRUSEFLG           EQUALS   BIT7
000427: 10,2306     7653               LOKONFLG           EQUALS   BIT5
000428:


000430:                                                                                                  #           STABLE-MEMBER RR DESIGNATE ROUTINE. DESIGNATE TO A SM LOS VECTOR (HALF-UNIT) IN RRTARGET. REMODES IF
000431:                                                                                                  #  REQUIRED. RETURNS TO CALLER IF MANEUVER REQUIRED FOR DES AND SKIPS IF IT CAN BE DONE IN PRESENT VEH ATTITUDE.
000432:
000433: 10,2306           43030        RRDESSM            STQ      CLEAR
000434: 10,2307           00427                                    DESRET
000435: 10,2310           00271                                    RRNBSW
000436: 10,2311           66224                           RTB      SSP                                   #  READ CDUS FOR SMNB.
000437: 10,2312           33361                                    READCDUS
000438: 10,2313           00051                                    S1
000439: 10,2314           00024                                    20D
000440: 10,2315           22025                           STOVL    20D
000441: 10,2316           00416                                    RRTARGET
000442: 10,2317           36041                           STCALL   32D
000443: 10,2320           32473                                    SMNB
000444:
000445: 10,2321           77634                           CALL                                           #  GET RR GIMBAL ANGLES IN PRESENT AND
000446: 10,2322           33267                                    RRANGLES                              #  ALTERNATE MODE.
000447: 10,2323           77776                           EXIT
000448:
000449: 10,2324           00004                           INHINT
000450: 10,2325           04777                           TC       RRLIMCHK
000451: 10,2326           00423                           ADRES    MODEA                                 #  CONFIGURATION FOR CURRENT MODE.
000452: 10,2327           12351                           TCF      TRYSWS
000453:
000454: 10,2330           24427        OKDESSM            INCR     DESRET                                #  INCREMENT SAYS NO VEHICLE MANEUVER REQ.
000455:


000457:                                                                                                  #           AT THIS POINT WE ARE READY TO BEGIN DESIGNATION. THE TARGET IS STORED AS A HALF-UNIT VECTOR IN RRTARGET
000458:                                                                                                  #  WITH RRNBSW SET IF IT IS REFERRED TO NAV BASE AXES. LOKONSW IS SET IF LOCKON IS DESIRED. BIT14 OF RADMODES IS
000459:                                                                                                  #  SET IF A REMODE IS REQUIRED. AT THIS TIME, THE ANTENNA MAY BE IN A MONITOR REPOSITION OPERATION. IN THIS
000460:                                                                                                  #  CASE, IF A REMODE IS REQUIRED IT MAY HAVE ALREADY BEGUN BUT IT ANY CASE THE REPOSITION WILL BE INTERRUPTED.
000461:                                                                                                  #  OTHERWISE, THE REPOSITION WILL BE COMPLETED BEFORE 2-AXIS DESIGNATION BEGINS.
000462:
000463: 10,2331           32350        STARTDES           CAF      MAXTRIES                              #  ALLOW 30 SECS.
000464: 10,2332           54430                           TS       DESCOUNT
000465:
000466: 10,2333           37646                           CAF      BIT10                                 #  SHOW DESIGNATE REQUIRED.
000467: 10,2334           26413                           ADS      RADMODES
000468: 10,2335           77645                           MASK     BIT11                                 #  SEE IF REPOSITION IN PROGRESS.
000469: 10,2336           10000                           CCS      A
000470: 10,2337           12345                           TCF      DESRETRN                              #  ECTR ALREADY SET UP.
000471:
000472: 10,2340           02106                           TC       SETRRECR                              #  SET UP ERROR COUNTERS.
000473:
000474: 10,2341           37656                           CAF      TWO
000475: 10,2342           04536                           TC       WAITLIST
000476: 10,2343           02422 20003                     2CADR    BEGDES
000477:
000478: 10,2345           00003        DESRETRN           RELINT                                         #  RETURN VIA DESRET
000479: 10,2346           30427                 +1        CA       DESRET
000480: 10,2347           14105                           TCF      BANKJUMP
000481:
000482: 10,2350           00074        MAXTRIES           DEC      60         B-14
000483:


000485:                                                                                                  #           SEE IF RRDESSM CAN BE ACCOMPLISHED AFTER A REMODE.
000486:
000487: 10,2351           02142        TRYSWS             TC       RMODINV                               #  (NOTE RUPT INHIBIT)
000488: 10,2352           04777                           TC       RRLIMCHK                              #  TRY DIFFERENT MODE.
000489: 10,2353           00425                           ADRES    MODEB
000490: 10,2354           12361                           TCF      NODESSM                               #  VEHICLE MANEUVER REQUIRED.
000491:
000492: 10,2355           02142                           TC       RMODINV                               #  RESET BIT12
000493: 10,2356           37642                           CAF      BIT14                                 #  SET FLAG FOR REMODE.
000494: 10,2357           26413                           ADS      RADMODES
000495:
000496: 10,2360           12330                           TCF      OKDESSM
000497:
000498: 10,2361           02142        NODESSM            TC       RMODINV                               #  RE-INVERT MODE AND RETURN WITHOUT IN-
000499: 10,2362           12345                           TCF      DESRETRN                              #  CREMENTING DESRET
000500:


000502:                                                                                                  #           DESIGNATE TO SPECIFIC RR GIMBAL ANGLES (INDEPENDENT OF VEHICLE MOTION).  ENTER WITH DESIRED ANGLES IN
000503:                                                                                                  #  TANG AND TANG +1.
000504:
000505: 10,2363           77430        RRDESNB            STQ      EXIT                                  #  ENTER IN INTERP. - EXIT IN BASIC.
000506: 10,2364           00427                                    DESRET
000507:
000508: 10,2365           00004                           INHINT                                         #  SEE IF CURRENT MODE OK.
000509: 10,2366           04777                           TC       RRLIMCHK
000510: 10,2367           00423                           ADRES    TANG
000511: 10,2370           12402                           TCF      TRYSWN                                #  SEE IF IN OTHER MODE.
000512:
000513: 10,2371           00003        OKDESNB            RELINT
000514: 10,2372           06000                           TC       INTPRET
000515:
000516: 10,2373           77634                           CALL                                           #  GET LOS IN NB COORDS.
000517: 10,2374           33243                                    RRNB
000518: 10,2375           00416                           STORE    RRTARGET
000519:
000520: 10,2376           77414                           SET      EXIT
000521: 10,2377           00071                                    RRNBSW
000522:
000523: 10,2400           00004                           INHINT
000524: 10,2401           12331                           TCF      STARTDES
000525:
000526: 10,2402           02142        TRYSWN             TC       RMODINV                               #  SEE IF OTHER MODE WILL DO.
000527: 10,2403           04777                           TC       RRLIMCHK
000528: 10,2404           00423                           ADRES    TANG
000529: 10,2405           12412                           TCF      NODESNB                               #  NOT POSSIBLE.
000530:
000531: 10,2406           02142                           TC       RMODINV
000532: 10,2407           37642                           CAF      BIT14                                 #  CALL FOR REMODE.
000533: 10,2410           26413                           ADS      RADMODES
000534: 10,2411           12371                           TCF      OKDESNB
000535:
000536: 10,2412           37657        NODESNB            CAF      BIT1                                  #  CALL FOR ERROR RETURN.
000537: 10,2413           04536                           TC       WAITLIST
000538: 10,2414           03251 20003                     2CADR    RDBADEND
000539:
000540: 10,2416           02142                           TC       RMODINV
000541: 10,2417           05413                           TC       ALARM                                 #  BAD GIMBAL ANGLE INPUTS.
000542: 10,2420           00502                           OCT      502
000543: 10,2421           12346                           TCF      DESRETRN   +1                         #  ALARM DID A RELINT.
000544:


000546:                                                                                                  #           WAITLIST TASKS TO RUN RR DESIGNATION.
000547:
000548: 10,2422           37642        BEGDES             CAF      BIT14                                 #  ENTER HERE FROM STARTDES OR REPOSRPT.
000549: 10,2423           70413                           MASK     RADMODES                              #  SEE IF REMODE REQUIRED.
000550: 10,2424           10000                           CCS      A
000551: 10,2425           12115                           TCF      REMODE
000552: 10,2426           12431                           TCF      STDESIG
000553:
000554: 10,2427           04554        DESLOOP            TC       FIXDELAY                              #  2 SAMPLES PER SECOND.
000555: 10,2430           00062                           DEC      50         B-14
000556:
000557: 10,2431           37645        STDESIG            CAF      BIT11                                 #  ENTRY FROM BEGDES AND REMODE.
000558: 10,2432           70413                           MASK     RADMODES                              #  SEE IF GIMBAL LIMIT MONITOR HAS FOUND US
000559: 10,2433           10000                           CCS      A                                     #  OUT OF BOUNDS. IF SO, THIS BIT SHOWS A
000560: 10,2434           12454                           TCF      BADDES                                #  REPOSITION TO BE IN PROGRESS.
000561:
000562: 10,2435           10413                           CCS      RADMODES                              #  SEE IF CONTINUOUS DESIGNATE WANTED.
000563: 10,2436           12441                           TCF      +3                                    #  IF SO, DONT CHECK BIT 10 TO SEE IF IN
000564: 10,2437           12441                           TCF      +2                                    #  LIMITS BUT GO RIGHT TO FINDVAC ENTRY.
000565: 10,2440           12461                           TCF      MOREDES    +1
000566:
000567: 10,2441           40413                           CS       RADMODES                              #  IF NON-CONTINUOUS, SEE IF END OF
000568: 10,2442           77646                           MASK     BIT10                                 #  PROBLEM (DATA GOOD IF LOCK-ON WANTED OR
000569: 10,2443           10000                           CCS      A                                     #  WITHIN LIMITS IF NOT). IF SO, EXIT AFTER
000570: 10,2444           13235                           TCF      ENDRADAR                              #  CHECKING RR CDU FAIL.
000571:
000572: 10,2445           10430                           CCS      DESCOUNT                              #  SEE IF TIME LIMIT HAS EXPIRED.
000573: 10,2446           12460                           TCF      MOREDES
000574:
000575: 10,2447           05413                           TC       ALARM                                 #  OUT OF TIME.
000576: 10,2450           00503                           OCT      503
000577: 10,2451           42466                           CS       B14+B2                                #  IF OUT OF TIME, REMOVE ECR ENABLE + TRKR
000578: 10,2452           00006                           EXTEND
000579: 10,2453           03012                           WAND     12
000580: 10,2454           47646        BADDES             CS       BIT10                                 #  REMOVE DESIGNATE FLAG.
000581: 10,2455           70413                           MASK     RADMODES
000582: 10,2456           54413                           TS       RADMODES
000583: 10,2457           13251                           TCF      RDBADEND
000584:
000585: 10,2460           54430        MOREDES            TS       DESCOUNT
000586: 10,2461           34524                           CAF      PRIO26                                #  UPDATE GYRO TORQUE COMMANDS.
000587: 10,2462           04374                           TC       FINDVAC
000588: 10,2463           02467 20003                     2CADR    DODES
000589:
000590: 10,2465           12427                           TCF      DESLOOP
000591:
000592: 10,2466           20002        B14+B2             OCT      20002
000593:


000595:                                                                                                  #           CALCULATE GYRO TORQUE COMMANDS.
000596:
000597: 10,2467           00006        DODES              EXTEND
000598: 10,2470           30036                           DCA      OPTY
000599: 10,2471           52424                           DXCH     TANG
000600:
000601: 10,2472           06000                           TC       INTPRET
000602:
000603: 10,2473           77775                           VLOAD                                          #  MOVE TARGET VECTOR TO 32D.
000604: 10,2474           00416                                    RRTARGET
000605: 10,2475           00041                           STORE    32D
000606:
000607: 10,2476           45014                           BON      RTB                                   #  DO STABLE-MEMBER TO NAVBASE TRANSFORMA-
000608: 10,2477           00311                                    RRNBSW                                #  TION IF TARGET IN SM COORDS. OTHERWISE,
000609: 10,2500           20507                                    DONBRD                                #  IN NB COORDS ALREADY.
000610: 10,2501           33361                                    READCDUS
000611:
000612: 10,2502           77731                           SSP
000613: 10,2503           00051                                    S1
000614: 10,2504           00024                                    20D                                   #  LOC OF ICDUS.
000615: 10,2505           36025                           STCALL   20D
000616: 10,2506           32473                                    SMNB
000617:


000619: 10,2507           67201        DONBRD             SETPD    SLOAD                                 #  DO NAVBASE TO RADAR DISH TRANSFORMATION.
000620: 10,2510           00001                                    0
000621: 10,2511           00425                                    TANG       +1
000622: 10,2512           41424                           RTB      PUSH                                  #  SHAFT COMMAND = V(32D).(COS(S), 0,
000623: 10,2513           33345                                    CDULOGIC                              #        (-SIN(S)).
000624: 10,2514           65356                           SIN      PDDL                                  #  SIN(S) TO 0 AND COS(S) TO 2.
000625: 10,2515           41546                           COS      PUSH
000626: 10,2516           65205                           DMP      PDDL
000627: 10,2517           00041                                    32D
000628: 10,2520           00045                                    36D
000629: 10,2521           44205                           DMP      BDSU
000630: 10,2522           00001                                    0
000631: 10,2523           77626                           STADR
000632: 10,2524           77352                           STORE    TANG       +1                         #  SHAFT COMMAND
000633:
000634: 10,2525           45135                           SLOAD    RTB
000635: 10,2526           00424                                    TANG
000636: 10,2527           33345                                    CDULOGIC
000637: 10,2530           71406                           PUSH     COS                                   #  COS(T) TO 4.
000638: 10,2531           73525                           PDDL     SIN
000639: 10,2532           41206                           PUSH     DMP                                   #  SIN(T) TO 6.
000640: 10,2533           00003                                    2
000641: 10,2534           65352                           SL1      PDDL                                  #  DEFINE VECTOR U =     (SIN(T)SIN(S))
000642: 10,2535           00005                                    4                                     #                        (   COS(T)   )
000643: 10,2536           41325                           PDDL     DMP                                   #                        (SIN(T)COS(S))
000644: 10,2537           00007                                    6
000645: 10,2540           00001                                    0
000646: 10,2541           55552                           SL1      VDEF
000647: 10,2542           77441                           DOT      EXIT                                  #  DOT U WITH LOS TO GET TRUNNION COMMAND.
000648: 10,2543           00041                                    32D
000649:


000651:                                                                                                  #           AT THIS POINT WE HAVE A ROTATION VECTOR IN DISH AXES LYING IN THE TS PLANE. CONVERT THIS TO A
000652:                                                                                                  #  COMMANDED RATE AND ENABLE THE TRACKER IF WE ARE WITHIN 1 DEGREE OF THE TARGET.
000653:
000654: 10,2544           40140                           CS       MPAC                                  #  DOT WAS NEGATIVE OF DESIRED ANGLE.
000655: 10,2545           54423                           TS       TANG
000656:
000657: 10,2546           40413                           CS       RADMODES                              #  A RELAY IN THE RR REVERSES POLARITY OF
000658: 10,2547           77644                           MASK     BIT12                                 #  THE SHAFT COMMANDS IN MODE 2 SO THAT A
000659: 10,2550           10000                           CCS      A                                     #  POSITIVE TORQUE APPLIED TO THE SHAFT
000660: 10,2551           12554                           TCF      +3                                    #  GYRO CAUSES A POSITIVE CHANGE IN THE
000661:
000662: 10,2552           40424                           CS       TANG       +1                         #  SHAFT ANGLE.  COMPENSATE FOR THIS SWITCH
000663: 10,2553           54424                           TS       TANG       +1                         #  BY CHANGING THE POLARITY OF OUR COMMAND.
000664:
000665: 10,2554           37665                           CAF      ZERO
000666: 10,2555           54141                           TS       MPAC       +1
000667: 10,2556           37657                           CAF      ONE
000668:
000669: 10,2557           54140        RRSCALUP           TS       MPAC
000670: 10,2560           50000                           INDEX    A
000671: 10,2561           30423                           CA       TANG                                  #  TRUNNION COMPONENT OF ROTATION.
000672: 10,2562           00006                           EXTEND
000673: 10,2563           72635                           MP       RDESGAIN                              #  SCALING ON INPUT ANGLE WAS 4 RADIANS.
000674: 10,2564           50140                           INDEX    MPAC
000675: 10,2565           56423                           XCH      TANG                                  #  MAKE EACH COMPONENT LESS THAN .7 DEGREES
000676: 10,2566           04763                           TC       MAGSUB                                #  BEFORE SENDING TRACK ENABLE.
000677: 10,2567           77715                           DEC      -.00305
000678: 10,2570           24141                           INCR     MPAC       +1                         #  IF OUT OF BOUNDS.
000679:
000680: 10,2571           10140                           CCS      MPAC
000681: 10,2572           12557                           TCF      RRSCALUP
000682:


000684:                                                                                                  #           SEE IF TRACKER SHOULD BE ENABLED OR DISABLED.
000685:
000686: 10,2573           00004                           INHINT
000687:
000688: 10,2574           10413                           CCS      RADMODES                              #  IF CONTINUOUS DESIGNATE WANTED, PUT OUT
000689: 10,2575           12600                           TCF      +3                                    #  COMMANDS WITHOUT CHECKING MAGNITUDE OF
000690: 10,2576           12600                           TCF      +2                                    #  ERROR SIGNALS.
000691: 10,2577           12625                           TCF      TRKOFF
000692:
000693: 10,2600           10141                           CCS      MPAC       +1                         #  SEE IF BOTH AXES WERE WITHIN .7 DEGS.
000694: 10,2601           12625                           TCF      TRKOFF
000695:
000696: 10,2602           40061                           CS       STATE                                 #  IF WITHIN LIMITS AND NO LOCK-ON WANTED,
000697: 10,2603           77653                           MASK     LOKONFLG                              #  PROBLEM IS FINISHED.
000698: 10,2604           10000                           CCS      A
000699: 10,2605           12616                           TCF      RRDESDUN
000700:
000701: 10,2606           37642                           CAF      BIT14                                 #  ENABLE THE TRACKER.
000702: 10,2607           00006                           EXTEND
000703: 10,2610           05012                           WOR      12
000704:
000705: 10,2611           37654                           CAF      BIT4                                  #  SEE IF DATA GOOD RECEIVED YET.
000706: 10,2612           00006                           EXTEND
000707: 10,2613           02033                           RAND     33
000708: 10,2614           10000                           CCS      A
000709: 10,2615           12630                           TCF      DORROUT
000710:
000711: 10,2616           47646        RRDESDUN           CS       BIT10                                 #  WHEN PROBLEM DONE, REMOVE BIT 10 SO NEXT
000712: 10,2617           70413                           MASK     RADMODES                              #  WAITLIST TASK WE WILL GO TO RGOODEND.
000713: 10,2620           54413                           TS       RADMODES
000714:
000715: 10,2621           47656                           CS       BIT2
000716: 10,2622           00006                           EXTEND
000717: 10,2623           03012                           WAND     12
000718: 10,2624           14440                           TCF      ENDOFJOB                              #  WITH ECTR DISABLED.
000719:
000720: 10,2625           47642        TRKOFF             CS       BIT14
000721: 10,2626           00006                           EXTEND
000722: 10,2627           03012                           WAND     12
000723:
000724: 10,2630           40413        DORROUT            CS       RADMODES                              #  PUT OUT COMMAND UNLESS MONITOR
000725: 10,2631           77645                           MASK     BIT11                                 #  REPOSITION HAS TAKEN OVER.
000726: 10,2632           10000                           CCS      A
000727: 10,2633           02213                           TC       RROUT
000728:
000729: 10,2634           14440                           TCF      ENDOFJOB
000730:
000731: 10,2635           21122        RDESGAIN           DEC      .53624                                #  TRIES TO NULL .5 ERROR IN .5 SEC.
000732:


000734:                                                                                                  #  RADAR READ INITIALIZATION
000735:
000736:                                                                                                  #  RADAR DATA ARE READ BY A BANKCALL FOR THE APPROPRIATE LEAD-IN BELOW.
000737:
000738:
000739:
000740: 10,2636           02652        LRALT              TC       INITREAD   -1                         #  ONE SAMPLE PER READING.
000741: 10,2637           00017        ALLREAD            OCT      17
000742:
000743: 10,2640           02653        LRVELZ             TC       INITREAD
000744: 10,2641           00016                           OCT      16
000745:
000746: 10,2642           02653        LRVELY             TC       INITREAD
000747: 10,2643           00015                           OCT      15
000748:
000749: 10,2644           02653        LRVELX             TC       INITREAD
000750: 10,2645           00014                           OCT      14
000751:
000752: 10,2646           02652        RRRDOT             TC       INITREAD   -1
000753: 10,2647           00012                           OCT      12
000754:
000755: 10,2650           02652        RRRANGE            TC       INITREAD   -1
000756: 10,2651           00011                           OCT      11
000757:


000759: 10,2652           37657                 -1        CAF      ONE                                   #  ENTRY TO TAKE ONLY 1 SAMPLE.
000760: 10,2653           00004        INITREAD           INHINT
000761:
000762: 10,2654           54421                           TS       TIMEHOLD                              #  GET DT OF MIDPOINT OF NOMINAL SAMPLING
000763: 10,2655           00006                           EXTEND                                         #  INTERVAL (ASSUMES NO BAD SAMPLES WILL BE
000764: 10,2656           77655                           MP       BIT3                                  #  ENCOUNTERED).
000765: 10,2657           52422                           DXCH     TIMEHOLD
000766:
000767: 10,2660           10000                           CCS      A
000768: 10,2661           54425                           TS       NSAMP
000769: 10,2662           67657                           AD       ONE
000770:                                                                                                  #           INSERT FOLLOWING INSTRUCTION TO GET 2N TRIES FOR N SAMPLES.
000771:                                                                                                  #                DOUBLE
000772: 10,2663           54414                           TS       SAMPLIM
000773:
000774: 10,2664           32706                           CAF      DGBITS                                #  READ CURRENT VALUE OF DATA GOOD BITS.
000775: 10,2665           00006                           EXTEND
000776: 10,2666           02033                           RAND     33
000777: 10,2667           54427                           TS       OLDATAGD
000778:
000779: 10,2670           42637                           CS       ALLREAD
000780: 10,2671           00006                           EXTEND
000781: 10,2672           03013                           WAND     13                                    #  REMOVE ALL RADAR BITS
000782:
000783: 10,2673           50002                           INDEX    Q
000784: 10,2674           30000                           CAF      0
000785: 10,2675           00006                           EXTEND
000786: 10,2676           05013                           WOR      13                                    #  SET NEW RADAR BITS
000787:
000788: 10,2677           00006                           EXTEND
000789: 10,2700           30025                           DCA      TIME2
000790: 10,2701           20422                           DAS      TIMEHOLD                              #  TIME OF NOMINAL MIDPOINT.
000791:
000792: 10,2702           37665                           CAF      ZERO
000793: 10,2703           54001                           TS       L
000794: 10,2704           52416                           DXCH     SAMPLSUM
000795: 10,2705           12302                           TCF      ROADBACK
000796:
000797: 10,2706           00230        DGBITS             OCT      230
000798:


000800:                                                                                                  #  RADAR RUPT READER
000801:
000802:                                                                                                  #  THIS ROUTINE STARTS FROM A RADARUPT. IT READS THE DATA $ LOTS MORE.
000803:
000804: 10,2707           54016        RADAREAD           TS       BANKRUPT
000805: 10,2710           00006                           EXTEND
000806: 10,2711           22012                           QXCH     QRUPT
000807:
000808: 10,2712           00006        ANGLREAD           EXTEND
000809: 10,2713           30036                           DCA      OPTY
000810: 10,2714           52420                           DXCH     OPTYHOLD                              #  SAVE RAW CDU ANGLES
000811:
000812: 10,2715           10414        TRYCOUNT           CCS      SAMPLIM
000813: 10,2716           12730                           TCF      PLENTY
000814: 10,2717           12723                           TCF      NOMORE
000815: 10,2720           05413                           TC       ALARM
000816: 10,2721           00520                           OCT      520
000817: 10,2722           04606                           TC       RESUME
000818:
000819: 10,2723           05413        NOMORE             TC       ALARM
000820: 10,2724           00521                           OCT      521
000821: 10,2725           47657        BADRAD             CS       ONE
000822: 10,2726           54414                           TS       SAMPLIM
000823: 10,2727           03247                           TC       RDBADEND   -2
000824:
000825: 10,2730           54414        PLENTY             TS       SAMPLIM
000826: 10,2731           37655                           CAF      BIT3
000827: 10,2732           00006                           EXTEND
000828: 10,2733           02013                           RAND     13                                    #  TO FIND OUT WHICH RADAR
000829: 10,2734           00006                           EXTEND
000830: 10,2735           13014                           BZF      RENDRAD
000831:
000832: 10,2736           30413        LRPOSCHK           CA       RADMODES                              #  SEE IF LR IN DESIRED POSITION.
000833: 10,2737           00006                           EXTEND
000834: 10,2740           06033                           RXOR     33
000835: 10,2741           77652                           MASK     BIT6
000836: 10,2742           00006                           EXTEND
000837: 10,2743           12747                           BZF      VELCHK
000838:
000839: 10,2744           05413                           TC       ALARM
000840: 10,2745           00522                           OCT      522
000841: 10,2746           02725                           TC       BADRAD
000842:
000843: 10,2747           36165        VELCHK             CAF      BIN3                                  #  = 00003 OCT
000844: 10,2750           00006                           EXTEND
000845: 10,2751           06013                           RXOR     13
000846: 10,2752           76165                           MASK     BIN3
000847: 10,2753           00006                           EXTEND
000848: 10,2754           13010                           BZF      LRHEIGHT                              #  TAKE A LR RANGE READING
000849:


000851: 10,2755           37637                           CAF      POSMAX
000852: 10,2756           70046                           MASK     RNRAD
000853: 10,2757           63167                           AD       LVELBIAS
000854: 10,2760           54001                           TS       L
000855: 10,2761           30046                           CAE      RNRAD
000856: 10,2762           60000                           DOUBLE
000857: 10,2763           77657                           MASK     BIT1
000858: 10,2764           52071                           DXCH     ITEMP3
000859:
000860: 10,2765           37650                           CAF      BIT8                                  #  DATA GOOD ISNT CHECKED UNTIL AFTER READ-
000861: 10,2766           03137                           TC       DGCHECK                               #  ING DATA SO SOME RADAR TESTS WILL WORK
000862:                                                                                                  #  INDEPENDENT OF DATA GOOD.
000863:
000864: 10,2767           10425                           CCS      NSAMP
000865: 10,2770           03000                           TC       NOEND
000866: 10,2771           47657        GOODRAD            CS       ONE
000867: 10,2772           54414                           TS       SAMPLIM
000868: 10,2773           40065                           CS       ITEMP1                                #  WHEN ENOUGH GOOD DATA HAS BEEN GATHERED,
000869: 10,2774           70413                           MASK     RADMODES                              #  RESET DATA FAIL FLAGS FOR SETTRKF.
000870: 10,2775           54413                           TS       RADMODES
000871: 10,2776           05042                           TC       SETTRKF                               #  LAMP MIGHT GO OFF IF DATA JUST GOOD.
000872: 10,2777           03242                           TC       RGOODEND   -2
000873:
000874: 10,3000           54425        NOEND              TS       NSAMP
000875: 10,3001           10414        RESAMPLE           CCS      SAMPLIM                               #  SEE IF ANY MORE TRIES SHOULD BE MADE.
000876: 10,3002           13004                           TCF      +2
000877: 10,3003           13156                           TCF      DATAFAIL                              #  N SAMPLES NOT AVAILABLE.
000878: 10,3004           37654                           CAF      BIT4                                  #  RESET ACTIVITY BIT.
000879: 10,3005           00006                           EXTEND
000880: 10,3006           05013                           WOR      13                                    #  RESET ACTIVITY BIT
000881: 10,3007           04606                           TC       RESUME
000882:
000883:
000884: 10,3010           37653        LRHEIGHT           CAF      BIT5
000885: 10,3011           54065                           TS       ITEMP1                                #  (POSITION OF DATA GOOD BIT IN CHAN 33)
000886:
000887: 10,3012           37647                           CAF      BIT9
000888: 10,3013           03047                           TC       SCALECHK   -1
000889:
000890: 10,3014           37645        RENDRAD            CAF      BIT11                                 #  MAKE SURE ANTENNA HAS NOT GONE OUT OF
000891: 10,3015           70413                           MASK     RADMODES                              #  LIMITS.
000892: 10,3016           10000                           CCS      A
000893: 10,3017           12725                           TCF      BADRAD
000894:
000895: 10,3020           40413                           CS       RADMODES                              #  BE SURE RR CDU HASNT FAILED.
000896: 10,3021           77651                           MASK     BIT7
000897: 10,3022           10000                           CCS      A
000898: 10,3023           12725                           TCF      BADRAD
000899:


000901: 10,3024           37644                           CAF      BIT12                                 #  DONT ACCEPT RR DATA IF TRUNNION MORE
000902: 10,3025           70413                           MASK     RADMODES                              #  THAN 55 DEGREES FROM NOMINAL POSITION.
000903: 10,3026           10000                           CCS      A
000904: 10,3027           37641                           CAF      BIT15                                 #  180 FOR MODE 2 - 0 FOR MODE 1.
000905: 10,3030           00006                           EXTEND
000906: 10,3031           20035                           MSU      OPTY
000907: 10,3032           04763                           TC       MAGSUB
000908: 10,3033           66161                           DEC      -.30555                               #  55 DEGS AT HALF-REVS.
000909: 10,3034           12725                           TCF      BADRAD
000910:
000911: 10,3035           37654                           CAF      BIT4                                  #  SEE IF DATA HAS BEEN GOOD.
000912: 10,3036           54065                           TS       ITEMP1                                #  (POSITION OF DATA GOOD BIT IN CHAN 33)
000913:
000914: 10,3037           37657                           CAF      BIT1                                  #  SEE IF RR RDOT.
000915: 10,3040           00006                           EXTEND
000916: 10,3041           02013                           RAND     13
000917: 10,3042           54002                           TS       Q                                     #  FOR LATER TESTING.
000918: 10,3043           10000                           CCS      A
000919: 10,3044           13046                           TCF      +2
000920: 10,3045           13060                           TCF      RADIN                                 #  NO SCALE CHECK FOR RR RDOT.
000921: 10,3046           37655                           CAF      BIT3
000922: 10,3047           54001                           TS       L
000923:
000924: 10,3050           00006        SCALECHK           EXTEND
000925: 10,3051           02033                           RAND     33                                    #  SCALE STATUS NOW
000926: 10,3052           56001                           XCH      L
000927: 10,3053           70413                           MASK     RADMODES                              #  SCALE STATUS BEFORE
000928: 10,3054           00006                           EXTEND
000929: 10,3055           06001                           RXOR     01                                    #  SEE IF THEY DIFFER
000930: 10,3056           10000                           CCS      A
000931: 10,3057           03077                           TC       SCALCHNG                              #  THEY DIFFER
000932:
000933: 10,3060           37637        RADIN              CAF      POSMAX
000934: 10,3061           70046                           MASK     RNRAD
000935: 10,3062           54071                           TS       ITEMP4
000936:
000937: 10,3063           30046                           CAE      RNRAD
000938: 10,3064           60000                           DOUBLE
000939: 10,3065           77657                           MASK     BIT1
000940: 10,3066           54070                           TS       ITEMP3
000941:
000942: 10,3067           10002                           CCS      Q                                     #  SEE IF RR RDOT.
000943: 10,3070           13111                           TCF      SCALADJ                               #  NO, BUT SCALE CHANGING MAY BE NEEDED.
000944:
000945: 10,3071           00006                           EXTEND                                         #  IF RR RANGE RATE, THROW OUT BIAS.
000946: 10,3072           43171                           DCS      RDOTBIAS
000947: 10,3073           20071        DASAMPL            DAS      ITEMP3
000948: 10,3074           30065        DGCHECK2           CA       ITEMP1                                #  SEE THAT DATA HAS BEEN GOOD BEFORE AND
000949: 10,3075           03140                           TC       DGCHECK    +1                         #  AFTER TAKING SAMPLE.
000950: 10,3076           02771                           TC       GOODRAD
000951:


000953: 10,3077           22413        SCALCHNG           LXCH     RADMODES
000954: 10,3100           67657                           AD       BIT1
000955: 10,3101           00006                           EXTEND
000956: 10,3102           06001                           RXOR     01
000957: 10,3103           54413                           TS       RADMODES
000958: 10,3104           32706                           CAF      DGBITS                                #  UPDATE LAST VALUE OF DATA GOOD BITS.
000959: 10,3105           00006                           EXTEND
000960: 10,3106           02033                           RAND     33
000961: 10,3107           54427                           TS       OLDATAGD
000962: 10,3110           12725                           TCF      BADRAD
000963:


000965:                                                                                                  #           THE FOLLOWING ROUTINE INCORPORATES RR RANGE AND LR ALT SCALE INFORMATION AND LEAVES DATA AT LO SCALE.
000966:
000967: 10,3111           10001        SCALADJ            CCS      L                                     #  L HAS SCALE INBIT FOR THIS RADAR.
000968: 10,3112           13114                           TCF      +2                                    #  ON HIGH SCALE.
000969: 10,3113           13074                           TCF      DGCHECK2
000970:
000971: 10,3114           52071                           DXCH     ITEMP3
000972: 10,3115           20001                           DDOUBL
000973: 10,3116           20001                           DDOUBL
000974: 10,3117           20001                           DDOUBL
000975: 10,3120           52071                           DXCH     ITEMP3
000976:
000977: 10,3121           37655                           CAF      BIT3                                  #  SEE IF LR OR RR.
000978: 10,3122           00006                           EXTEND
000979: 10,3123           02013                           RAND     13
000980: 10,3124           00006                           EXTEND                                         #  IF RR, NO MORE ACTION REQUIRED.
000981: 10,3125           13074                           BZF      DGCHECK2
000982:
000983: 10,3126           33166                           CAF      LRRATIO                               #  IF LR, CONVERT TO LO SCALING.
000984: 10,3127           00006                           EXTEND
000985: 10,3130           70071                           MP       ITEMP4
000986: 10,3131           54071                           TS       ITEMP4
000987: 10,3132           37665                           CAF      ZERO                                  #  (SO SUBSEQUENT DAS WILL BE OK)
000988: 10,3133           56070                           XCH      ITEMP3
000989: 10,3134           00006                           EXTEND
000990: 10,3135           73166                           MP       LRRATIO
000991: 10,3136           13073                           TCF      DASAMPL
000992:


000994: 10,3137           54065        DGCHECK            TS       ITEMP1                                #  UPDATE DATA GOOD BIT IN OLDATAGD AND
000995: 10,3140           00006                           EXTEND                                         #  MAKE SURE IT WAS ON BEFORE AND AFTER THE
000996: 10,3141           02033                           RAND     33                                    #  SAMPLE WAS TAKEN BEFORE RETURNING. IF
000997: 10,3142           54001                           TS       L                                     #  NOT, GOES TO RESAMPLE TO TRY AGAIN. IF
000998: 10,3143           40065                           CS       ITEMP1                                #  MAX NUMBER OF TRIES HAS BEEN REACHED,
000999: 10,3144           70427                           MASK     OLDATAGD                              #  THE BIT CORRESPONDING TO THE DATA GOOD
001000: 10,3145           60001                           AD       L                                     #  WHICH FAILED TO APPEAR IS IN ITEMP1 AND
001001: 10,3146           56427                           XCH      OLDATAGD                              #  CAN BE USED TO SET RADMODES WHICH VIA
001002: 10,3147           70065                           MASK     ITEMP1                                #  SETTRKF SETS THE TRACKER FAIL LAMP.
001003: 10,3150           60001                           AD       L
001004: 10,3151           10000                           CCS      A                                     #  SHOULD BOTH BE ZERO.
001005: 10,3152           03001                           TC       RESAMPLE
001006: 10,3153           52071                           DXCH     ITEMP3                                #  IF DATA GOOD BEFORE AND AFTER, ADD TO
001007: 10,3154           20416                           DAS      SAMPLSUM                              #  ACCUMULATION.
001008: 10,3155           00002                           TC       Q
001009:
001010: 10,3156           40065        DATAFAIL           CS       ITEMP1                                #  IN THE ABOVE CASE, SET RADMODES BIT
001011: 10,3157           70413                           MASK     RADMODES                              #  SHOWING SOME RADAR DATA FAILED.
001012: 10,3160           60065                           AD       ITEMP1
001013: 10,3161           54413                           TS       RADMODES
001014:
001015: 10,3162           52071                           DXCH     ITEMP3                                #  IF WE HAVE BEEN UNABLE TO GATHER N
001016: 10,3163           52416                           DXCH     SAMPLSUM                              #  SAMPLES, USE LAST ONE ONLY.
001017:
001018: 10,3164           05042                           TC       SETTRKF
001019:
001020: 10,3165           12723                           TCF      NOMORE
001021:
001022: 10,3166           23773        LRRATIO            DEC      4.9977     B-3
001023: 10,3167           50437        LVELBIAS           DEC      -12000     B-14                       #  LANDING RADAR VELOCITY BIAS.
001024: 10,3170           00001 01150  RDOTBIAS           2DEC     17000      B-28                       #  BIAS COUNT FOR RR RANGE RATE
001025:


001027:                                                                                                  #  THIS ROUTINE CHANGES THE LR POSITION, AND CHECKS THAT IT GOT THERE.
001028:
001029: 10,3172           00004        LRPOS2             INHINT
001030:
001031: 10,3173           47652                           CS       BIT6                                  #  DESIRED LR POSITION IS NOW 2.
001032: 10,3174           70413                           MASK     RADMODES
001033: 10,3175           67652                           AD       BIT6
001034: 10,3176           54413                           TS       RADMODES
001035:
001036: 10,3177           37651                           CAF      BIT7
001037: 10,3200           00006                           EXTEND
001038: 10,3201           02033                           RAND     33                                    #  SEE IF ALREADY THERE.
001039: 10,3202           00006                           EXTEND
001040: 10,3203           13227                           BZF      RADNOOP
001041:
001042: 10,3204           37643                           CAF      BIT13
001043: 10,3205           00006                           EXTEND
001044: 10,3206           05012                           WOR      12                                    #  COMMAND TO POSITION 2
001045:
001046: 10,3207           33234                           CAF      5SECS
001047: 10,3210           04536                           TC       WAITLIST
001048: 10,3211           03214 20003                     2CADR    MAKESURE
001049:
001050: 10,3213           02302                           TC       ROADBACK
001051:
001052: 10,3214           47643        MAKESURE           CS       BIT13                                 #  REMOVE LR POSITION COMMAND OUTBIT.
001053: 10,3215           00006                           EXTEND
001054: 10,3216           03012                           WAND     12
001055:
001056: 10,3217           37651                           CAF      BIT7
001057: 10,3220           00006                           EXTEND
001058: 10,3221           02033                           RAND     33
001059: 10,3222           00006                           EXTEND
001060: 10,3223           13244                           BZF      RGOODEND
001061:
001062: 10,3224           05413                           TC       ALARM                                 #  LR ANTENNA DIDNT MAKE IT.
001063: 10,3225           00523                           OCT      523
001064: 10,3226           13251                           TCF      RDBADEND
001065:
001066: 10,3227           37657        RADNOOP            CAF      ONE                                   #  NO FURTHER ACTION REQUESTED.
001067: 10,3230           04536                           TC       WAITLIST
001068: 10,3231           03244 20003                     2CADR    RGOODEND
001069:
001070: 10,3233           02302                           TC       ROADBACK
001071:
001072: 10,3234           00764        5SECS              DEC      5          E2
001073:


001075:                                                                                                  #           SEQUENCES TO TERMINATE RR OPERATIONS.
001076:
001077: 10,3235           37651        ENDRADAR           CAF      BIT7                                  #  PROLOG TO CHECK RR CDU FAIL BEFORE END.
001078: 10,3236           70413                           MASK     RADMODES
001079: 10,3237           10000                           CCS      A
001080: 10,3240           13244                           TCF      RGOODEND
001081: 10,3241           13251                           TCF      RDBADEND
001082: 10,3242           47665                 -2        CS       ZERO                                  #  RGOODEND WHEN NOT UNDER WAITLIST CONTROL
001083: 10,3243           55070                           TS       RUPTAGN
001084:
001085: 10,3244           37656        RGOODEND           CAF      TWO
001086: 10,3245           04102                           TC       POSTJUMP
001087: 10,3246           26667                           CADR     GOODEND
001088:
001089: 10,3247           47665                 -2        CS       ZERO                                  #  RDBADEND WHEN NOT UNDER WAITLIST.
001090: 10,3250           55070                           TS       RUPTAGN
001091: 10,3251           37656        RDBADEND           CAF      TWO
001092: 10,3252           04102                           TC       POSTJUMP
001093: 10,3253           26664                           CADR     BADEND
001094:
001095: 10,3254     6165               BIN3               EQUALS   THREE
001096: 10,3254                        ENDRMODS           EQUALS

End of include-file RADAR_LEAD-IN_ROUTINES.agc.  Parent file is MAIN.agc


