
Source Code


000002:                                                                                                  ## Copyright:    Public domain.
000003:                                                                                                  ## Filename:     RADAR_TEST_PROGRAMS.agc
000004:                                                                                                  ## Purpose:      Part of the source code for Aurora (revision 12).
000005:                                                                                                  ## Assembler:    yaYUL
000006:                                                                                                  ## Contact:      Ron Burkey <info@sandroid.org>.
000007:                                                                                                  ## Website:      https://www.ibiblio.org/apollo.
000008:                                                                                                  ## Pages:        256-257
000009:                                                                                                  ## Mod history:  2016-09-20 JL   Created.
000010:                                                                                                  ##               2016-10-18 MAS  Adapted from Sunburst 120.
000011:                                                                                                  ##               2016-12-08 RSB  Proofed comments with octopus/ProoferComments
000012:                                                                                                  ##                               but no errors found.
000013:
000014:                                                                                                  ## This source code has been transcribed or otherwise adapted from
000015:                                                                                                  ## digitized images of a hardcopy from the private collection of
000016:                                                                                                  ## Don Eyles.  The digitization was performed by archive.org.
000017:
000018:                                                                                                  ## Notations on the hardcopy document read, in part:
000019:
000020:                                                                                                  ##       473423A YUL SYSTEM FOR BLK2: REVISION 12 of PROGRAM AURORA BY DAP GROUP
000021:                                                                                                  ##       NOV 10, 1966
000022:
000023:                                                                                                  ##       [Note that this is the date the hardcopy was made, not the
000024:                                                                                                  ##       date of the program revision or the assembly.]
000025:
000026:                                                                                                  ## The scan images (with suitable reduction in storage size and consequent
000027:                                                                                                  ## reduction in image quality) are available online at
000028:                                                                                                  ##       https://www.ibiblio.org/apollo.
000029:                                                                                                  ## The original high-quality digital images are available at archive.org:
000030:                                                                                                  ##       https://archive.org/details/aurora00dapg
000031:


000033: 10,3254                                           SETLOC   ENDRMODS
000034: 10,3254  E7,1434                                  EBANK=   RSTKLOC
000035:
000036:                                                                                                  #  RADAR SAMPLING LOOP.
000037:
000038: 10,3254           11435        RADSAMP            CCS      RSAMPDT                               #  TIMES NORMAL ONCE-PER-SECOND SAMPLING.
000039: 10,3255           13257                           TCF      +2
000040:
000041: 10,3256           14602                           TCF      TASKOVER                              #  +0 INSERTED MANUALLY TERMINATES TEST.
000042:
000043: 10,3257           04536                           TC       WAITLIST
000044: 10,3260           03254 20007                     2CADR    RADSAMP
000045:
000046: 10,3262           34523                           CAF      PRIO25
000047: 10,3263           04363                           TC       NOVAC
000048: 10,3264           03274 20007                     2CADR    DORSAMP
000049:
000050: 10,3266           33325                           CAF      1/6                                   #  FOR CYCLIC SAMPLING, RTSTDEX =
000051: 10,3267           00006                           EXTEND                                         #  RTSTLOC/6 + RTSTBASE.
000052: 10,3270           71434                           MP       RTSTLOC
000053: 10,3271           61433                           AD       RTSTBASE                              #  0 FOR RR, 2 FOR LR.
000054: 10,3272           55431                           TS       RTSTDEX
000055:
000056: 10,3273           14602                           TCF      TASKOVER
000057:
000058:                                                                                                  #  DO THE ACTUAL RADAR SAMPLE.
000059:
000060: 10,3274           03326        DORSAMP            TC       VARADAR                               #  SELECTS VARIABLE RADAR CHANNEL.
000061: 10,3275           04063                           TC       BANKCALL
000062: 10,3276           26712                           CADR     RADSTALL
000063: 10,3277           25436                           INCR     RFAILCNT                              #  ADVANCE FAIL COUNTER BUT ACCEPT BAD DATA
000064:
000065: 10,3300           00004        DORSAMP2           INHINT                                         #  YES - UPDATE TM BUFFER.
000066: 10,3301           52416                           DXCH     SAMPLSUM
000067: 10,3302           51434                           INDEX    RSTKLOC
000068: 10,3303           53440                           DXCH     RSTACK
000069:
000070: 10,3304           52420                           DXCH     OPTYHOLD
000071: 10,3305           51434                           INDEX    RSTKLOC
000072: 10,3306           53442                           DXCH     RSTACK     +2
000073:
000074: 10,3307           52422                           DXCH     TIMEHOLD
000075: 10,3310           51434                           INDEX    RSTKLOC
000076: 10,3311           53444                           DXCH     RSTACK     +4
000077:
000078: 10,3312           41434                           CS       RTSTLOC                               #  CYCLE RTSTLOC.
000079: 10,3313           61432                           AD       RTSTMAX
000080: 10,3314           00006                           EXTEND
000081: 10,3315           13320                           BZF      +3
000082: 10,3316           31434                           CA       RSTKLOC


000084: 10,3317           66162                           AD       SIX
000085: 10,3320           55434                           TS       RSTKLOC
000086:
000087: 10,3321           11435                           CCS      RSAMPDT                               #  SEE IF TIME TO RE-SAMPLE.
000088: 10,3322           14440                           TCF      ENDOFJOB                              #  NO - WAIT FOR T3 (REGULAR SAMPLING).
000089:
000090: 10,3323           14440                           TCF      ENDOFJOB                              #  TEST TERMINATED.
000091: 10,3324           13274                           TCF      DORSAMP                               #  JUMP RIGHT BACK AND GET ANOTHER SAMPLE.
000092:
000093: 10,3325           05341        1/6                DEC      .17
000094:
000095:                                                                                                  #  VARIABLE RADAR DATA CALLER FOR ONE MEASUREMENT ONLY.
000096:
000097: 10,3326           37657        VARADAR            CAF      ONE                                   #  WILL BE SENT TO RADAR ROUTINE IN A BY
000098: 10,3327           54117                           TS       BUF2                                  #  SWCALL.
000099: 10,3330           51431                           INDEX    RTSTDEX
000100: 10,3331           33333                           CAF      RDRLOCS
000101: 10,3332           14067                           TCF      SWCALL                                #  NOT TOUCHING Q.
000102:
000103: 10,3333           20650        RDRLOCS            CADR     RRRANGE                               #  =0
000104: 10,3334           20646                           CADR     RRRDOT                                #  =1
000105: 10,3335           20644                           CADR     LRVELX                                #  =2
000106: 10,3336           20642                           CADR     LRVELY                                #  =3
000107: 10,3337           20640                           CADR     LRVELZ                                #  =4
000108: 10,3340           20636                           CADR     LRALT                                 #  =5
000109:
000110: 10,3341                        ENDRTSTS           EQUALS

End of include-file RADAR_TEST_PROGRAMS.agc.  Parent file is MAIN.agc


