
Source Code


000002:                                                                                                  #  Copyright:    Public domain.
000003:                                                                                                  #  Filename:     RADAR_LEAD-IN_ROUTINES.agc
000004:                                                                                                  #  Purpose:      Part of the source code for Aurora (revision 12).
000005:                                                                                                  #  Assembler:    yaYUL
000006:                                                                                                  #  Contact:      Ron Burkey <info@sandroid.org>.
000007:                                                                                                  #  Website:      https://www.ibiblio.org/apollo.
000008:                                                                                                  #  Pages:        227-255
000009:                                                                                                  #  Mod history:  2016-09-20 JL   Created.
000010:                                                                                                  #                2016-10-20 HG   finished transcription
000011:
000012:                                                                                                  #  This source code has been transcribed or otherwise adapted from
000013:                                                                                                  #  digitized images of a hardcopy from the private collection of
000014:                                                                                                  #  Don Eyles.  The digitization was performed by archive.org.
000015:
000016:                                                                                                  #  Notations on the hardcopy document read, in part:
000017:
000018:                                                                                                  #        473423A YUL SYSTEM FOR BLK2: REVISION 12 of PROGRAM AURORA BY DAP GROUP
000019:                                                                                                  #        NOV 10, 1966
000020:
000021:                                                                                                  #        [Note that this is the date the hardcopy was made, not the
000022:                                                                                                  #        date of the program revision or the assembly.]
000023:
000024:                                                                                                  #  The scan images (with suitable reduction in storage size and consequent
000025:                                                                                                  #  reduction in image quality) are available online at
000026:                                                                                                  #        https://www.ibiblio.org/apollo.
000027:                                                                                                  #  The original high-quality digital images are available at archive.org:
000028:                                                                                                  #        https://archive.org/details/aurora00dapg
000029:
000030:


000032:    4763                                           SETLOC   ENDIMODF
000033:    4763  E3,1460                                  EBANK=   RRRET
000034:
000035:                                                                                                  #           THE FOLLOWING SUBROUTINE RETURNS TO CALLER + 2 IF THE ABSOLUTE VALUE OF C(A) IS GREATER THAN THE
000036:                                                                                                  #  NEGATIVE OF THE NUMBER AT CALLER +1. OTHERWISE IT RETURNS TO CALLER +3. MAY BE CALLED IN RUPT OR UNDER EXEC.
000037:
000038:    4763           00006        MAGSUB             EXTEND
000039:    4764           64766                           BZMF     +2
000040:    4765           14767                           TCF      +2
000041:    4766           40000                           COM
000042:
000043:    4767           50002                           INDEX    Q
000044:    4770           60000                           AD       0
000045:    4771           00006                           EXTEND
000046:    4772           64775                           BZMF     +3                                    #  ABS(A) LEQ CONSTANT
000047:    4773           50002                           INDEX    Q
000048:    4774           00001                           TC       1                                     #  ABS(A) G CONSTANT
000049:
000050:    4775           50002        MAGLESS            INDEX    Q
000051:    4776           00002                           TC       2
000052:


000054:                                                                                                  #           THE FOLLOWING SUBROUTINE CHECKS RR GIMBAL ANGLES TO SEE IF THEY ARE IN THE LIMITS OF THE CURRENT MODE.
000055:                                                                                                  #  CALLING SEQUENCE IS AS FOLLOWS:
000056:
000057:                                                                                                  #                                                   TC     RRLIMCHK        (WITH INTERRUPT INHIBITED).
000058:                                                                                                  #                                                   ADRES  T,S             (IN UNSWITCHED E OR CURRENT EBANK).
000059:
000060:                                                                                                  #           RETURN IS TO CALLER +2 IF NOT IN LIMITS AND TO CALLER +3 IF SO.
000061:
000062:    4777           50002        RRLIMCHK           INDEX    Q                                     #  READ GIMBAL ANGLES INTO ITEMP STORAGE.
000063:    5000           30000                           CAF      0
000064:    5001           24002                           INCR     Q
000065:    5002           00006                           EXTEND
000066:    5003           50000                           INDEX    A
000067:    5004           30001                           DCA      0
000068:    5005           52066                           DXCH     ITEMP1
000069:    5006           22002                           LXCH     Q                                     #  L(CALLER +2) TO L.
000070:
000071:    5007           37644                           CAF      BIT12                                 #  SEE WHICH MODE RR IS IN.
000072:    5010           70413                           MASK     RADMODES
000073:    5011           10000                           CCS      A
000074:    5012           15025                           TCF      MODE2CHK
000075:
000076:    5013           30065                           CA       ITEMP1                                #  MODE 1 IS DEFINED AS
000077:    5014           04763                           TC       MAGSUB                                #      1. ABS(T) L 70 DEGS.
000078:    5015           66161                           DEC      -.30555                               #      2. ABS(S + 5.5 DEGS) L 64.5 DEGS
000079:    5016           00001                           TC       L                                     #          (SHAFT LIMITS AT +59, -70 DEGS)
000080:
000081:    5017           35037                           CAF      5.5DEGS
000082:    5020           60066                           AD       ITEMP2                                #  S
000083:    5021           04763                           TC       MAGSUB
000084:    5022           64420                           DEC      -.35833                               #  64.5 DEGS
000085:    5023           00001                           TC       L
000086:    5024           05035                           TC       RRLIMOK                               #  IN LIMITS.
000087:
000088:    5025           35041        MODE2CHK           CAF      82DEGS                                #  MODE 2 IS DEFINED AS
000089:    5026           60066                           AD       ITEMP2                                #      1. ABS(T) G 110 DEGS.
000090:    5027           04763                           TC       MAGSUB                                #      2. ABS(S + 82 DEGS) L 57 DEGS
000091:    5030           65673                           DEC      -.31667                               #          (SHAFT LIMITS AT -25, -139 DEGS)
000092:    5031           00001                           TC       L
000093:
000094:    5032           30065                           CA       ITEMP1
000095:    5033           04763                           TC       MAGSUB
000096:    5034           54343                           DEC      -.61111                               #  110 DEGS
000097:
000098:    5035           50001        RRLIMOK            INDEX    L
000099:    5036           00001                           TC       L                                     #  ( = TC 1)
000100:
000101:    5037           00765        5.5DEGS            DEC      .03056
000102:    5040           00707        5DEGS              DEC      .02777                                #  SCALED IN HALF-REVOLUTIONS.
000103:    5041           16450        82DEGS             DEC      .45556
000104:


000106:                                                                                                  #           THE FOLLOWING ROUTINE UPDATES THE TRACKER FAIL LAMP ON THE DSKY, IF EITHER:
000107:
000108:                                                                                                  #           1. N SAMPLES OF RR DATA COULD NOT BE OBTAINS FROM 2N TRIES.
000109:                                                                                                  #           2. N SAMPLES OF LR DATA COULD NOT BE TAKEN IN 2N TRIES WITH EITHER THE ALT OR VEL INFORMATION.
000110:                                                                                                  #           3. RR CDU FAILED WITH RR IN AUTO MODE AND RR CDU NOT BEING ZEROED.
000111:
000112:    5042           37657        SETTRKF            CAF      BIT1                                  #  NO ACTION IF DURING LAMP TEST.
000113:    5043           70370                           MASK     IMODES33
000114:    5044           10000                           CCS      A
000115:    5045           00002                           TC       Q
000116:
000117:    5046           35076                           CAF      13,7,2                                #  SEE IF CDU FAILED.
000118:    5047           70413                           MASK     RADMODES
000119:    5050           00006                           EXTEND
000120:    5051           15061                           BZF      TRKFLON                               #  CONDITION 3 ABOVE.
000121:
000122:    5052           40413                           CS       RADMODES                              #  SEE IF LR FAILED
000123:    5053           75077                           MASK     8,5
000124:    5054           00006                           EXTEND
000125:    5055           15061                           BZF      TRKFLON                               #  CONDITION 2 ABOVE
000126:
000127:    5056           37654                           CAF      BIT4                                  #  SEE IF RR DATA FAILED.
000128:    5057           70413                           MASK     RADMODES
000129:    5060           10000                           CCS      A
000130:    5061           37650        TRKFLON            CAF      BIT8
000131:    5062           60322                           AD       DSPTAB     +11D                       #  HALF ADD DESIRED AND PRESENT STATES.
000132:    5063           77650                           MASK     BIT8
000133:    5064           00006                           EXTEND
000134:    5065           14712                           BZF      TCQ                                   #  NO CHANGE.
000135:
000136:    5066           54001                           TS       L                                     #  INVERT BIT 8 AND SET BIT 15.
000137:    5067           30322                           CA       DSPTAB     +11D                       #  CAN'T USE LXCH DSPTAB +11D (RESTART PROB)
000138:    5070           00006                           EXTEND
000139:    5071           06001                           RXOR     L
000140:    5072           77637                           MASK     POSMAX
000141:    5073           67641                           AD       BIT15
000142:    5074           54322                           TS       DSPTAB     +11D
000143:    5075           00002                           TC       Q
000144:
000145:    5076           10102        13,7,2             OCT      10102
000146:    5077           00220        8,5                OCT      00220
000147:
000148:    5100                        ENDRMODF           EQUALS
000149:


000151:                                                                                                  #           TURNON SEQUENCE TO ZERO THE CDUS AND DETERMINE THE RR MODE.
000152:
000153: 10,2000                                           BANK     10
000154:
000155: 10,2000           02013        RRTURNON           TC       RRZEROSB
000156: 10,2001           04554                           TC       FIXDELAY                              #  WAIT 1 SEC BEFORE REMOVING TURN ON FLAG
000157: 10,2002           00144                           DEC      100        B-14                       #  SO A MONITOR REPOSITION WON'T ALARM.
000158: 10,2003           47657                           CS       BIT1
000159: 10,2004           70413                           MASK     RADMODES
000160: 10,2005           54413                           TS       RADMODES
000161: 10,2006           40061                           CS       STATE                                 #  SEE IF SOMEONE IS WAITING TO USE THE RR.
000162: 10,2007           77651                           MASK     RRUSEFLG
000163: 10,2010           10000                           CCS      A
000164: 10,2011           14602                           TCF      TASKOVER
000165:
000166: 10,2012           13235                           TCF      ENDRADAR                              #  CHECK RR CDU FAIL BEFORE EXIT.
000167:


000169:                                                                                                  #           CLOSED SUBROUTINE TO ZERO THE RR CDUS.
000170:
000171: 10,2013           00006        RRZEROSB           EXTEND
000172: 10,2014           23460                           QXCH     RRRET
000173: 10,2015           37657                           CAF      BIT1                                  #  BIT 13 OF RADMODES MUST BE SET BEFORE
000174: 10,2016           00006                           EXTEND                                         #  COMING HERE.
000175: 10,2017           05012                           WOR      12
000176: 10,2020           04554                           TC       FIXDELAY
000177: 10,2021           00002                           DEC      2          B-14
000178:
000179: 10,2022           37665                           CAF      ZERO
000180: 10,2023           54035                           TS       OPTY
000181: 10,2024           54036                           TS       OPTX
000182: 10,2025           47657                           CS       ONE                                   #  REMOVE ZEROING BIT.
000183: 10,2026           00006                           EXTEND
000184: 10,2027           03012                           WAND     12
000185: 10,2030           04554                           TC       FIXDELAY
000186: 10,2031           00454                           DEC      300        B-14
000187:
000188: 10,2032           47643                           CS       BIT13                                 #  REMOVE ZEROING IN PROCESS BIT.
000189: 10,2033           70413                           MASK     RADMODES
000190: 10,2034           54413                           TS       RADMODES
000191:
000192: 10,2035           30035                           CA       OPTY
000193: 10,2036           04763                           TC       MAGSUB
000194: 10,2037           57777                           DEC      -.5
000195: 10,2040           12043                           TCF      +3                                    #  IF MODE 2.
000196:
000197: 10,2041           37665                           CAF      ZERO
000198: 10,2042           12044                           TCF      +2
000199: 10,2043           37644                           CAF      BIT12
000200: 10,2044           56413                           XCH      RADMODES
000201: 10,2045           74360                           MASK     -BIT12
000202: 10,2046           26413                           ADS      RADMODES
000203:
000204: 10,2047           05042                           TC       SETTRKF                               #  TRACKER LAMP MIGHT GO ON NOW.
000205:
000206: 10,2050           01460                           TC       RRRET                                 #  DONE.
000207:
000208: 10,2051     4360               -BIT12             EQUALS   -1/8                                  #  IN SPROOT
000209:


000211:                                                                                                  #           SEQUENCE OF TASKS TO DRIVE THE RR TO A SAFE POSITION.
000212:
000213: 10,2051           02106        DORREPOS           TC       SETRRECR                              #  SET UP RR CDU ERROR COUNTERS.
000214:
000215: 10,2052           37657                           CAF      BIT1                                  #  DO AN ALARM UNLESS RR JUST TURNED ON.
000216: 10,2053           70413                           MASK     RADMODES
000217: 10,2054           10000                           CCS      A
000218: 10,2055           12060                           TCF      +3
000219:
000220: 10,2056           05413                           TC       ALARM
000221: 10,2057           00501                           OCT      501
000222: 10,2060           04554                           TC       FIXDELAY
000223: 10,2061           00002                           DEC      2          B-14
000224:
000225: 10,2062           37644                           CAF      BIT12                                 #  MANEUVER TRUNNION ANGLE TO NOMINAL POS.
000226: 10,2063           70413                           MASK     RADMODES
000227: 10,2064           10000                           CCS      A
000228: 10,2065           37641                           CAF      BIT15                                 #  0 FOR MODE 1 AND 180 FOR MODE 2.
000229: 10,2066           02150                           TC       RRTONLY
000230:
000231: 10,2067           37644                           CAF      BIT12                                 #  NOW PUT SHAFT IN RIGHT POSITION
000232: 10,2070           70413                           MASK     RADMODES
000233: 10,2071           10000                           CCS      A
000234: 10,2072           47642                           CS       HALF                                  #  -90 FOR MODE 2.
000235: 10,2073           02153                           TC       RRSONLY
000236:
000237: 10,2074           47645        REPOSRPT           CS       BIT11                                 #  RETURNS HERE FROM RR1AXIS IN REMODE
000238:                                                                                                  #  REQUESTED DURING REPOSITION.
000239: 10,2075           70413                           MASK     RADMODES                              #  REMOVE REPOSITION BIT.
000240: 10,2076           54413                           TS       RADMODES
000241: 10,2077           77646                           MASK     BIT10                                 #  SEE IF SOMEONE IS WAITING TO DESIGNATE.
000242: 10,2100           10000                           CCS      A
000243: 10,2101           12422                           TCF      BEGDES
000244: 10,2102           47656                           CS       BIT2                                  #  IF NO FURTHER ANTENNA CONTROL REQUIRED,
000245: 10,2103           00006                           EXTEND                                         #  REMOVE ERROR COUNTER ENABLE.
000246: 10,2104           03012                           WAND     12
000247: 10,2105           14602                           TCF      TASKOVER
000248:
000249: 10,2106           37656        SETRRECR           CAF      BIT2                                  #  SET UP RR ERROR COUNTERS
000250: 10,2107           00006                           EXTEND
000251: 10,2110           05012                           WOR      12
000252:
000253: 10,2111           37665                           CAF      ZERO
000254: 10,2112           54362                           TS       LASTYCMD
000255: 10,2113           54363                           TS       LASTXCMD
000256: 10,2114           00002                           TC       Q
000257:


000259:                                                                                                  #           GENERAL REMODING SUBROUTINE. DRIVES TRUNION TO 0 (180), THEN DRIVES SHAFT TO -45, AND FINALLY DRIVES
000260:                                                                                                  #  TRUNNION TO -130 (-50) BEFORE INITIATING 2-AXIS CONTROL. ALL RE-MODING IONE WITH SINGLE AXIS ROTATIONS (RR1AXIS)
000261: 10,2115           37644        REMODE             CAF      BIT12                                 #  DRIVE TRUNNION TO 0 (180).
000262: 10,2116           70413                           MASK     RADMODES                              #  (ERROR COUNTER ALREADY ENABLED)
000263: 10,2117           10000                           CCS      A
000264: 10,2120           37641                           CAF      BIT15
000265: 10,2121           02150                           TC       RRTONLY
000266:
000267: 10,2122           32137                           CAF      -45DEGSR
000268: 10,2123           02153                           TC       RRSONLY
000269:
000270: 10,2124           40413                           CS       RADMODES
000271: 10,2125           77644                           MASK     BIT12
000272: 10,2126           10000                           CCS      A
000273: 10,2127           32141                           CAF      -80DEGSR                              #  GO TO T = -130 (-50).
000274: 10,2130           62141                           AD       -80DEGSR
000275: 10,2131           02150                           TC       RRTONLY
000276:
000277: 10,2132           02142                           TC       RMODINV
000278:
000279: 10,2133           47642                           CS       BIT14                                 #  END OF REMODE.
000280: 10,2134           70413                           MASK     RADMODES
000281: 10,2135           54413                           TS       RADMODES
000282:
000283: 10,2136           02431                           TC       STDESIG                               #  BEGIN 2-AXIS CONTROL.
000284:
000285: 10,2137           70000        -45DEGSR           OCT      70000
000286: 10,2140           67070        -50DEGSR           DEC      -.27778
000287: 10,2141           61615        -80DEGSR           DEC      -.44444
000288:
000289: 10,2142           22413        RMODINV            LXCH     RADMODES                              #  INVERT THE MODE STATUS.
000290: 10,2143           37644                           CAF      BIT12
000291: 10,2144           00006                           EXTEND
000292: 10,2145           06001                           RXOR     L
000293: 10,2146           54413                           TS       RADMODES
000294: 10,2147           00002                           TC       Q
000295:


000297:                                                                                                  #           SUBROUTINES FOR DOING SINGLE AXIS RR MANEUVERS FOR REMODE AND REPOSITION. DRIVES TO WITHIN 1 DEGREE.
000298:
000299: 10,2150           55461        RRTONLY            TS       RDES                                  #  DESIRED TRUNNION ANGLE.
000300: 10,2151           37665                           CAF      ZERO
000301: 10,2152           12155                           TCF      RR1AXIS
000302:
000303: 10,2153           55461        RRSONLY            TS       RDES                                  #  SHAFT COMMANDS ARE UNRESOLVED SINCE THIS
000304: 10,2154           37657                           CAF      ONE                                   #  ROUTINE ENTERED ONLY WHEN T = 0 OR 180.
000305:
000306: 10,2155           55462        RR1AXIS            TS       RRINDEX
000307: 10,2156           00006                           EXTEND
000308: 10,2157           23460                           QXCH     RRRET
000309: 10,2160           12163                           TCF      RR1AX2
000310:
000311: 10,2161           04554        NXTRR1AX           TC       FIXDELAY
000312: 10,2162           00062                           DEC      50         B-14                       #  2 SAMPLES PER SECOND.
000313:
000314: 10,2163           40413        RR1AX2             CS       RADMODES                              #  IF SOMEONE REQUESTES AS DESIGNATE WHICH
000315: 10,2164           74520                           MASK     PRIO22                                #  REQUIRES A REMODE AND A REPOSITION IS IN
000316: 10,2165           00006                           EXTEND                                         #  PROGRESS, INTERRUPT IT AND START THE
000317: 10,2166           12074                           BZF      REPOSRPT                              #  REMODE IMMEDIATELY.
000318:
000319: 10,2167           31461                           CA       RDES
000320: 10,2170           00006                           EXTEND
000321: 10,2171           51462                           INDEX    RRINDEX
000322: 10,2172           20035                           MSU      OPTY
000323: 10,2173           54002                           TS       Q                                     #  SAVE ERROR SIGNAL.
000324: 10,2174           00006                           EXTEND
000325: 10,2175           72212                           MP       RRSPGAIN                              #  TRIES TO NULL .7 OF ERROR OVER NEXT .5
000326: 10,2176           54001                           TS       L
000327: 10,2177           30002                           CA       Q                                     #  SEE IF WITHIN 1 DEGREE
000328: 10,2200           04763                           TC       MAGSUB
000329: 10,2201           77644                           DEC      -.00555                               #  SCALED IN HALF-REVS.
000330:
000331: 10,2202           12204                           TCF      +2                                    #  NO.
000332: 10,2203           01460                           TC       RRRET                                 #  RETURN TO CALLER.
000333:
000334: 10,2204           11462                           CCS      RRINDEX                               #  COMMAND FOR OTHER AXIS IS ZERO.
000335: 10,2205           12207                           TCF      +2                                    #  SETTING A TO 0.
000336: 10,2206           56001                           XCH      L
000337: 10,2207           52424                           DXCH     TANG
000338:
000339: 10,2210           02213                           TC       RROUT
000340:
000341: 10,2211           12161                           TCF      NXTRR1AX                              #  COME BACK IN .5 SECONDS.
000342:
000343: 10,2212           22715        RRSPGAIN           DEC      .59062                                #  NULL .7 ERROR IN .5 SEC.
000344:


000346:                                                                                                  #           THE FOLLOWING ROUTINE RECEIVES RR GYRO COMMANDS IN TANG,+1 IN ERROR COUNTER SCALING. RROUT LIMITS THEM
000347:                                                                                                  #  AND GENERATES COMMANDS TO THE CDU TO ADJUST THE ERROR COUNTERS TO THE DESIRED VALUES. RUPT MUST BE INHIBITED.
000348:
000349: 10,2213           22002        RROUT              LXCH     Q                                     #  SAVE RETURN
000350: 10,2214           37657                           CAF      ONE                                   #  LOOP TWICE.
000351: 10,2215           54066        RROUT2             TS       ITEMP2
000352: 10,2216           50000                           INDEX    A
000353: 10,2217           30423                           CA       TANG
000354: 10,2220           54065                           TS       ITEMP1                                #  SAVE SIGN COMMAND FOR LIMITING.
000355:
000356: 10,2221           04763                           TC       MAGSUB                                #  SEE IF WITHIN LIMITS.
000357: 10,2222           77177        -RRLIMIT           DEC      -384       B-14
000358: 10,2223           12241                           TCF      RROUTLIM                              #  LIMIT COMMAND TO MAG OF 384.
000359:
000360: 10,2224           30065        SETRRCTR           CA       ITEMP1                                #  COUNT OUT DIFFERENCE BETWEEN DESIRED
000361: 10,2225           50066                           INDEX    ITEMP2                                #  STATE AND PRESENT STATE AS RECORDED IN
000362: 10,2226           56362                           XCH      LASTYCMD                              #  LASTYCMD AND LASTXCMD
000363: 10,2227           40000                           COM
000364: 10,2230           60065                           AD       ITEMP1
000365: 10,2231           50066                           INDEX    ITEMP2
000366: 10,2232           54053                           TS       OPTYCMD
000367:
000368: 10,2233           10066                           CCS      ITEMP2                                #  PROCESS BOTH INPUTS.
000369: 10,2234           12215                           TCF      RROUT2
000370:
000371: 10,2235           34506                           CAF      PRIO6                                 #  ENABLE COUNTERS.
000372: 10,2236           00006                           EXTEND
000373: 10,2237           05014                           WOR      14
000374:
000375: 10,2240           00001                           TC       L                                     #  RETURN.
000376:
000377: 10,2241           10065        RROUTLIM           CCS      ITEMP1                                #  LIMIT COMMAND TO ABS VAL OF 384.
000378: 10,2242           42222                           CS       -RRLIMIT
000379: 10,2243           12245                           TCF      +2
000380: 10,2244           32222                           CA       -RRLIMIT
000381: 10,2245           54065                           TS       ITEMP1
000382: 10,2246           12225                           TCF      SETRRCTR   +1
000383:


000385:                                                                                                  #           ROUTINE TO ZERO THE RR CDUS AND DETERMINE THE ANTENNA MODE.
000386:
000387: 10,2247           00004        RRZERO             INHINT
000388: 10,2250           47651                           CS       RRUSEFLG                              #  SET FLAG TO SHOW SOMEONE USING THE RR.
000389: 10,2251           70061                           MASK     STATE
000390: 10,2252           67651                           AD       RRUSEFLG
000391: 10,2253           54061                           TS       STATE
000392:
000393: 10,2254           37657                           CAF      BIT1                                  #  SEE IF RR COMING UP. IF SO, TURNON
000394: 10,2255           70413                           MASK     RADMODES                              #  PROGRAM WILL DO THE WORK.
000395: 10,2256           10000                           CCS      A
000396: 10,2257           12302                           TCF      ROADBACK
000397:
000398: 10,2260           37645                           CAF      BIT11                                 #  SEE IF MONITOR REPOSITION IN PROGRESS.
000399: 10,2261           70413                           MASK     RADMODES                              #  IF SO, DON'T RE-ZERO CDUS.
000400: 10,2262           10000                           CCS      A
000401: 10,2263           13227                           TCF      RADNOOP                               #  (IMMEDIATE TASK TO RGOODEND).
000402:
000403: 10,2264           47643                           CS       BIT13                                 #  SET FLAG TO SHOW ZEROING IN PROGRESS.
000404: 10,2265           70413                           MASK     RADMODES
000405: 10,2266           67643                           AD       BIT13
000406: 10,2267           54413                           TS       RADMODES
000407:
000408: 10,2270           37657                           CAF      ONE
000409: 10,2271           04536                           TC       WAITLIST
000410: 10,2272           02304 20003                     2CADR    RRZ2
000411:
000412: 10,2274           40413                           CS       RADMODES                              #  SEE IF IN AUTO MODE.
000413: 10,2275           77656                           MASK     BIT2
000414: 10,2276           10000                           CCS      A
000415: 10,2277           12302                           TCF      ROADBACK
000416: 10,2300           05413                           TC       ALARM                                 #  AUTO DISCRETE NOT PRESENT - TRYING
000417: 10,2301           00510                           OCT      510
000418: 10,2302           00003        ROADBACK           RELINT
000419: 10,2303           14076                           TCF      SWRETURN
000420:
000421: 10,2304           02013        RRZ2               TC       RRZEROSB                              #  COMMON TO TURNON AND RRZERO.
000422: 10,2305           13235                           TCF      ENDRADAR
000423:
000424: 10,2306     7651               RRUSEFLG           EQUALS   BIT7
000425: 10,2306     7653               LOKONFLG           EQUALS   BIT5
000426:


000428:                                                                                                  #           STABLE-MEMBER RR DESIGNATE ROUTINE. DESIGNATE TO A SM LOS VECTOR (HALF-UNIT) IN RRTARGET. REMODES IF
000429:                                                                                                  #  REQUIRED. RETURNS TO CALLER IF MANEUVER REQUIRED FOR DES AND SKIPS IF IT CAN BE DONE IN PRESENT VEH ATTITUDE.
000430:
000431: 10,2306           43030        RRDESSM            STQ      CLEAR
000432: 10,2307           00427                                    DESRET
000433: 10,2310           00271                                    RRNBSW
000434: 10,2311           66224                           RTB      SSP                                   #  READ CDUS FOR SMNB.
000435: 10,2312           33361                                    READCDUS
000436: 10,2313           00051                                    S1
000437: 10,2314           00024                                    20D
000438: 10,2315           22025                           STOVL    20D
000439: 10,2316           00416                                    RRTARGET
000440: 10,2317           36041                           STCALL   32D
000441: 10,2320           32473                                    SMNB
000442:
000443: 10,2321           77634                           CALL                                           #  GET RR GIMBAL ANGLES IN PRESENT AND
000444: 10,2322           33267                                    RRANGLES                              #  ALTERNATE MODE.
000445: 10,2323           77776                           EXIT
000446:
000447: 10,2324           00004                           INHINT
000448: 10,2325           04777                           TC       RRLIMCHK
000449: 10,2326           00423                           ADRES    MODEA                                 #  CONFIGURATION FOR CURRENT MODE.
000450: 10,2327           12351                           TCF      TRYSWS
000451:
000452: 10,2330           24427        OKDESSM            INCR     DESRET                                #  INCREMENT SAYS NO VEHICLE MANEUVER REQ.
000453:


000455:                                                                                                  #           AT THIS POINT WE ARE READY TO BEGIN DESIGNATION. THE TARGET IS STORED AS A HALF-UNIT VECTOR IN RRTARGET
000456:                                                                                                  #  WITH RRNBSW SET IF IT IS REFERRED TO NAV BASE AXES. LOKONSW IS SET IF LOCKON IS DESIRED. BIT14 OF RADMODES IS
000457:                                                                                                  #  SET IF A REMODE IS REQUIRED. AT THIS TIME, THE ANTENNA MAY BE IN A MONITOR REPOSITION OPERATION. IN THIS
000458:                                                                                                  #  CASE, IF A REMODE IS REQUIRED IT MAY HAVE ALREADY BEGUN BUT IT ANY CASE THE REPOSITION WILL BE INTERRUPTED.
000459:                                                                                                  #  OTHERWISE, THE REPOSITION WILL BE COMPLETED BEFORE 2-AXIS DESIGNATION BEGINS.
000460:
000461: 10,2331           32350        STARTDES           CAF      MAXTRIES                              #  ALLOW 30 SECS.
000462: 10,2332           54430                           TS       DESCOUNT
000463:
000464: 10,2333           37646                           CAF      BIT10                                 #  SHOW DESIGNATE REQUIRED.
000465: 10,2334           26413                           ADS      RADMODES
000466: 10,2335           77645                           MASK     BIT11                                 #  SEE IF REPOSITION IN PROGRESS.
000467: 10,2336           10000                           CCS      A
000468: 10,2337           12345                           TCF      DESRETRN                              #  ECTR ALREADY SET UP.
000469:
000470: 10,2340           02106                           TC       SETRRECR                              #  SET UP ERROR COUNTERS.
000471:
000472: 10,2341           37656                           CAF      TWO
000473: 10,2342           04536                           TC       WAITLIST
000474: 10,2343           02422 20003                     2CADR    BEGDES
000475:
000476: 10,2345           00003        DESRETRN           RELINT                                         #  RETURN VIA DESRET
000477: 10,2346           30427                 +1        CA       DESRET
000478: 10,2347           14105                           TCF      BANKJUMP
000479:
000480: 10,2350           00074        MAXTRIES           DEC      60         B-14
000481:


000483:                                                                                                  #           SEE IF RRDESSM CAN BE ACCOMPLISHED AFTER A REMODE.
000484:
000485: 10,2351           02142        TRYSWS             TC       RMODINV                               #  (NOTE RUPT INHIBIT)
000486: 10,2352           04777                           TC       RRLIMCHK                              #  TRY DIFFERENT MODE.
000487: 10,2353           00425                           ADRES    MODEB
000488: 10,2354           12361                           TCF      NODESSM                               #  VEHICLE MANEUVER REQUIRED.
000489:
000490: 10,2355           02142                           TC       RMODINV                               #  RESET BIT12
000491: 10,2356           37642                           CAF      BIT14                                 #  SET FLAG FOR REMODE.
000492: 10,2357           26413                           ADS      RADMODES
000493:
000494: 10,2360           12330                           TCF      OKDESSM
000495:
000496: 10,2361           02142        NODESSM            TC       RMODINV                               #  RE-INVERT MODE AND RETURN WITHOUT IN-
000497: 10,2362           12345                           TCF      DESRETRN                              #  CREMENTING DESRET
000498:


000500:                                                                                                  #           DESIGNATE TO SPECIFIC RR GIMBAL ANGLES (INDEPENDENT OF VEHICLE MOTION).  ENTER WITH DESIRED ANGLES IN
000501:                                                                                                  #  TANG AND TANG +1.
000502:
000503: 10,2363           77430        RRDESNB            STQ      EXIT                                  #  ENTER IN INTERP. - EXIT IN BASIC
000504: 10,2364           00427                                    DESRET
000505:
000506: 10,2365           00004                           INHINT                                         #  SEE IF CURRENT MODE OK.
000507: 10,2366           04777                           TC       RRLIMCHK
000508: 10,2367           00423                           ADRES    TANG
000509: 10,2370           12402                           TCF      TRYSWN                                #  SEE IF IN OTHER MODE.
000510:
000511: 10,2371           00003        OKDESNB            RELINT
000512: 10,2372           06000                           TC       INTPRET
000513:
000514: 10,2373           77634                           CALL                                           #  GET LOS IN NB COORDS.
000515: 10,2374           33243                                    RRNB
000516: 10,2375           00416                           STORE    RRTARGET
000517:
000518: 10,2376           77414                           SET      EXIT
000519: 10,2377           00071                                    RRNBSW
000520:
000521: 10,2400           00004                           INHINT
000522: 10,2401           12331                           TCF      STARTDES
000523:
000524: 10,2402           02142        TRYSWN             TC       RMODINV                               #  SEE IF OTHER MODE WILL DO.
000525: 10,2403           04777                           TC       RRLIMCHK
000526: 10,2404           00423                           ADRES    TANG
000527: 10,2405           12412                           TCF      NODESNB                               #  NOT POSSIBLE.
000528:
000529: 10,2406           02142                           TC       RMODINV
000530: 10,2407           37642                           CAF      BIT14                                 #  CALL FOR REMODE.
000531: 10,2410           26413                           ADS      RADMODES
000532: 10,2411           12371                           TCF      OKDESNB
000533:
000534: 10,2412           37657        NODESNB            CAF      BIT1                                  #  CALL FOR ERROR RETURN
000535: 10,2413           04536                           TC       WAITLIST
000536: 10,2414           03251 20003                     2CADR    RDBADEND
000537:
000538: 10,2416           02142                           TC       RMODINV
000539: 10,2417           05413                           TC       ALARM                                 #  BAD GIMBAL ANGLE INPUTS.
000540: 10,2420           00502                           OCT      502
000541: 10,2421           12346                           TCF      DESRETRN   +1                         #  ALARM DID A RELINT.
000542:


000544:                                                                                                  #           WAITLIST TASKS TO RUN RR DESIGNATION.
000545:
000546: 10,2422           37642        BEGDES             CAF      BIT14                                 #  ENTER HERE FROM STARTDES OR REPOSRPT.
000547: 10,2423           70413                           MASK     RADMODES                              #  SEE IF REMODE REQUIRED.
000548: 10,2424           10000                           CCS      A
000549: 10,2425           12115                           TCF      REMODE
000550: 10,2426           12431                           TCF      STDESIG
000551:
000552: 10,2427           04554        DESLOOP            TC       FIXDELAY                              #  2 SAMPLES PER SECOND.
000553: 10,2430           00062                           DEC      50         B-14
000554:
000555: 10,2431           37645        STDESIG            CAF      BIT11                                 #  ENTRY FROM BEGDES AND REMODE.
000556: 10,2432           70413                           MASK     RADMODES                              #  SEE IF GIMBAL LIMIT MONITOR HAS FOUND US
000557: 10,2433           10000                           CCS      A                                     #  OUT OF BOUNDS. IF SO, THIS BIT SHOWS A
000558: 10,2434           12454                           TCF      BADDES                                #  REPOSITION TO BE IN PROGRESS.
000559:
000560: 10,2435           10413                           CCS      RADMODES                              #  SEE IF CONTINUOUS DESIGNATE WANTED.
000561: 10,2436           12441                           TCF      +3                                    #  IF SO, DON'T CHECK BIT 10 TO SEE IF IN
000562: 10,2437           12441                           TCF      +2                                    #  LIMITS BUT GO RIGHT TO FINDVAC ENTRY.
000563: 10,2440           12461                           TCF      MOREDES    +1
000564:
000565: 10,2441           40413                           CS       RADMODES                              #  IF NON-CONTINUOUS, SEE IF END OF
000566: 10,2442           77646                           MASK     BIT10                                 #  PROBLEM (DATA GOOD IF LOCK-ON WANTED OR
000567: 10,2443           10000                           CCS      A                                     #  WITHIN LIMITS IF NOT). IF SO, EXIT AFTER
000568: 10,2444           13235                           TCF      ENDRADAR                              #  CHECKING RR CDU FAIL.
000569:
000570: 10,2445           10430                           CCS      DESCOUNT                              #  SEE IF THE TIME LIMIT HAS EXPIRED.
000571: 10,2446           12460                           TCF      MOREDES
000572:
000573: 10,2447           05413                           TC       ALARM                                 #  OUT OF TIME.
000574: 10,2450           00503                           OCT      503
000575: 10,2451           42466                           CS       B14+B2                                #  IF OUT OF TIME, REMOVE ECR ENABLE + TRKR
000576: 10,2452           00006                           EXTEND
000577: 10,2453           03012                           WAND     12
000578: 10,2454           47646        BADDES             CS       BIT10                                 #  REMOVE DESIGNATE FLAG
000579: 10,2455           70413                           MASK     RADMODES
000580: 10,2456           54413                           TS       RADMODES
000581: 10,2457           13251                           TCF      RDBADEND
000582:
000583: 10,2460           54430        MOREDES            TS       DESCOUNT
000584: 10,2461           34524                           CAF      PRIO26                                #  UPDATE GYRO TORQUE COMMANDS.
000585: 10,2462           04374                           TC       FINDVAC
000586: 10,2463           02467 20003                     2CADR    DODES
000587:
000588: 10,2465           12427                           TCF      DESLOOP
000589:
000590: 10,2466           20002        B14+B2             OCT      20002
000591:


000593:                                                                                                  #           CALCULATE GYRO TORQUE COMMANDS.
000594:
000595: 10,2467           00006        DODES              EXTEND
000596: 10,2470           30036                           DCA      OPTY
000597: 10,2471           52424                           DXCH     TANG
000598:
000599: 10,2472           06000                           TC       INTPRET
000600:
000601: 10,2473           77775                           VLOAD                                          #  MOVE TARGET VECTOR TO 32D.
000602: 10,2474           00416                                    RRTARGET
000603: 10,2475           00041                           STORE    32D
000604:
000605: 10,2476           45014                           BON      RTB                                   #  DO STABLE-MEMBER TO NAVBASE TRANSFORMA-
000606: 10,2477           00311                                    RRNBSW                                #  TION IF TARGET IN SM COORDS. OTHERWISE,
000607: 10,2500           20507                                    DONBRD                                #  IN NB COORDS ALREADY.
000608: 10,2501           33361                                    READCDUS
000609:
000610: 10,2502           77731                           SSP
000611: 10,2503           00051                                    S1
000612: 10,2504           00024                                    20D                                   #  LOC OF ICDUS.
000613: 10,2505           36025                           STCALL   20D
000614: 10,2506           32473                                    SMNB
000615:


000617: 10,2507           67201        DONBRD             SETPD    SLOAD                                 #  DO NAVBASE TO RADAR DISH TRANSFORMATION.
000618: 10,2510           00001                                    0
000619: 10,2511           00425                                    TANG       +1
000620: 10,2512           41424                           RTB      PUSH                                  #  SHAFT COMMAND = V(32D).(COS(S), 0,
000621: 10,2513           33345                                    CDULOGIC                              #        -SIN(S)).
000622: 10,2514           65356                           SIN      PDDL                                  #  SIN(S) TO 0 AND COS(S) TO 2.
000623: 10,2515           41546                           COS      PUSH
000624: 10,2516           65205                           DMP      PDDL
000625: 10,2517           00041                                    32D
000626: 10,2520           00045                                    36D
000627: 10,2521           44205                           DMP      BDSU
000628: 10,2522           00001                                    0
000629: 10,2523           77626                           STADR
000630: 10,2524           77352                           STORE    TANG       +1                         #  SHAFT COMMAND
000631:
000632: 10,2525           45135                           SLOAD    RTB
000633: 10,2526           00424                                    TANG
000634: 10,2527           33345                                    CDULOGIC
000635: 10,2530           71406                           PUSH     COS                                   #  COS(T) TO 4.
000636: 10,2531           73525                           PDDL     SIN
000637: 10,2532           41206                           PUSH     DMP                                   #  SIN(T) TO 6.
000638: 10,2533           00003                                    2
000639: 10,2534           65352                           SL1      PDDL                                  #  DEFINE VECTOR U =     (SIN(T)SIN(S))
000640: 10,2535           00005                                    4                                     #                        (   COS(T)   )
000641: 10,2536           41325                           PDDL     DMP                                   #                        (SIN(T)COS(S))
000642: 10,2537           00007                                    6
000643: 10,2540           00001                                    0
000644: 10,2541           55552                           SL1      VDEF
000645: 10,2542           77441                           DOT      EXIT                                  #  DOT U WITH LOS TO GET TRUNNION COMMAND.
000646: 10,2543           00041                                    32D
000647:


000649:                                                                                                  #           AT THIS POINT WE HAVE A ROTATION VECTOR IN DISH AXES LYING IN THE TS PLANE. CONVERT THIS TO A
000650:                                                                                                  #  COMMANDED RATE AND ENABLE THE TRACKER IF WE ARE WITHIN 1 DEGREE OF THE TARGET.
000651:
000652: 10,2544           40140                           CS       MPAC                                  #  DOT WAS NEGATIVE OF DESIRED ANGLE.
000653: 10,2545           54423                           TS       TANG
000654:
000655: 10,2546           40413                           CS       RADMODES                              #  A RELAY IN THE RR REVERSES POLARITY OF
000656: 10,2547           77644                           MASK     BIT12                                 #  THE SHAFT COMMANDS IN MODE 2 SO THAT A
000657: 10,2550           10000                           CCS      A                                     #  POSITIVE TORQUE APPLIED TO THE SHAFT
000658: 10,2551           12554                           TCF      +3                                    #  GYRO CAUSES A POSITIVE CHANGE IN THE
000659:
000660: 10,2552           40424                           CS       TANG       +1                         #  SHAFT ANGLE.  COMPENSATE FOR THIS SWITCH
000661: 10,2553           54424                           TS       TANG       +1                         #  BY CHANGING THE POLARITY FOR OUR COMMAND.
000662:
000663: 10,2554           37665                           CAF      ZERO
000664: 10,2555           54141                           TS       MPAC       +1
000665: 10,2556           37657                           CAF      ONE
000666:
000667: 10,2557           54140        RRSCALUP           TS       MPAC
000668: 10,2560           50000                           INDEX    A
000669: 10,2561           30423                           CA       TANG                                  #  TRUNNION COMPONENT OF ROTATION.
000670: 10,2562           00006                           EXTEND
000671: 10,2563           72635                           MP       RDESGAIN                              #  SCALING ON INPUT ANGLE WAS 4 RADIANS.
000672: 10,2564           50140                           INDEX    MPAC
000673: 10,2565           56423                           XCH      TANG                                  #  MAKE EACH COMPONENT LESS THAN .7 DEGREES
000674: 10,2566           04763                           TC       MAGSUB                                #  BEFORE SENDING TRACK ENABLE.
000675: 10,2567           77715                           DEC      -.00305
000676: 10,2570           24141                           INCR     MPAC       +1                         #  IF OUT OF BOUNDS.
000677:
000678: 10,2571           10140                           CCS      MPAC
000679: 10,2572           12557                           TCF      RRSCALUP
000680:


000682:                                                                                                  #           SEE IF TRACKER SHOULD BE ENABLED OR DISABLED.
000683:
000684: 10,2573           00004                           INHINT
000685:
000686: 10,2574           10413                           CCS      RADMODES                              #  IF CONTINUOUS DESIGNATE WANTED, PUT OUT
000687: 10,2575           12600                           TCF      +3                                    #  COMMANDS WITHOUT CHECKING MAGNITUDE OF
000688: 10,2576           12600                           TCF      +2                                    #  ERROR SIGNALS.
000689: 10,2577           12625                           TCF      TRKOFF
000690:
000691: 10,2600           10141                           CCS      MPAC       +1                         #  SEE IF BOTH AXES WERE WITHIN .7 DEGS.
000692: 10,2601           12625                           TCF      TRKOFF
000693:
000694: 10,2602           40061                           CS       STATE                                 #  IF WITHIN LIMITS AND NO LOCK-ON WANTED,
000695: 10,2603           77653                           MASK     LOKONFLG                              #  PROBLEM IS FINISHED.
000696: 10,2604           10000                           CCS      A
000697: 10,2605           12616                           TCF      RRDESDUN
000698:
000699: 10,2606           37642                           CAF      BIT14                                 #  ENABLE THE TRACKER.
000700: 10,2607           00006                           EXTEND
000701: 10,2610           05012                           WOR      12
000702:
000703: 10,2611           37654                           CAF      BIT4                                  #  SEE IF DATA GOOD RECEIVED YET.
000704: 10,2612           00006                           EXTEND
000705: 10,2613           02033                           RAND     33
000706: 10,2614           10000                           CCS      A
000707: 10,2615           12630                           TCF      DORROUT
000708:
000709: 10,2616           47646        RRDESDUN           CS       BIT10                                 #  WHEN PROBLEM DONE, REMOVE BIT 10 SO NEXT
000710: 10,2617           70413                           MASK     RADMODES                              #  WAITLIST TASK WE WILL GO TO RGOODEND.
000711: 10,2620           54413                           TS       RADMODES
000712:
000713: 10,2621           47656                           CS       BIT2
000714: 10,2622           00006                           EXTEND
000715: 10,2623           03012                           WAND     12
000716: 10,2624           14440                           TCF      ENDOFJOB                              #  WITH ECTR DISABLED.
000717:
000718: 10,2625           47642        TRKOFF             CS       BIT14
000719: 10,2626           00006                           EXTEND
000720: 10,2627           03012                           WAND     12
000721:
000722: 10,2630           40413        DORROUT            CS       RADMODES                              #  PUT OUT COMMAND UNLESS MONITOR
000723: 10,2631           77645                           MASK     BIT11                                 #  REPOSITION HAS TAKEN OVER.
000724: 10,2632           10000                           CCS      A
000725: 10,2633           02213                           TC       RROUT
000726:
000727: 10,2634           14440                           TCF      ENDOFJOB
000728:
000729: 10,2635           21122        RDESGAIN           DEC      .53624                                #  TRIES TO NULL .5 ERROR IN .5 SEC.
000730:


000732:                                                                                                  #  RADAR READ INITIALIZATION
000733:
000734:                                                                                                  #  RADAR DATA READ BY A BANKCALL FOR THE APPROPRIATE LEAD-IN BELOW.
000735:
000736:
000737:
000738: 10,2636           02652        LRALT              TC       INITREAD   -1                         #  ONE SAMPLE PER READING.
000739: 10,2637           00017        ALLREAD            OCT      17
000740:
000741: 10,2640           02653        LRVELZ             TC       INITREAD
000742: 10,2641           00016                           OCT      16
000743:
000744: 10,2642           02653        LRVELY             TC       INITREAD
000745: 10,2643           00015                           OCT      15
000746:
000747: 10,2644           02653        LRVELX             TC       INITREAD
000748: 10,2645           00014                           OCT      14
000749:
000750: 10,2646           02652        RRRDOT             TC       INITREAD   -1
000751: 10,2647           00012                           OCT      12
000752:
000753: 10,2650           02652        RRRANGE            TC       INITREAD   -1
000754: 10,2651           00011                           OCT      11
000755:


000757: 10,2652           37657                 -1        CAF      ONE                                   #  ENTRY TO TAKE ONLY 1 SAMPLE.
000758: 10,2653           00004        INITREAD           INHINT
000759:
000760: 10,2654           54421                           TS       TIMEHOLD                              #  GET DT OF MIDPOINT OF NOMINAL SAMPLING
000761: 10,2655           00006                           EXTEND                                         #  INTERVAL (ASSUMES NO BAD SAMPLES WILL BE
000762: 10,2656           77655                           MP       BIT3                                  #  ENCOUNTERED).
000763: 10,2657           52422                           DXCH     TIMEHOLD
000764:
000765: 10,2660           10000                           CCS      A
000766: 10,2661           54425                           TS       NSAMP
000767: 10,2662           67657                           AD       ONE
000768:                                                                                                  #           INSERT FOLLOWING INSTRUCTION TO GET 2N TRIES FOR N SAMPLES.
000769:                                                                                                  #                DOUBLE
000770: 10,2663           54414                           TS       SAMPLIM
000771:
000772: 10,2664           32706                           CAF      DGBITS                                #  READ CURRENT VALUE OF DATA GOOD BITS.
000773: 10,2665           00006                           EXTEND
000774: 10,2666           02033                           RAND     33
000775: 10,2667           54427                           TS       OLDATAGD
000776:
000777: 10,2670           42637                           CS       ALLREAD
000778: 10,2671           00006                           EXTEND
000779: 10,2672           03013                           WAND     13                                    #  REMOVE ALL RADAR BITS
000780:
000781: 10,2673           50002                           INDEX    Q
000782: 10,2674           30000                           CAF      0
000783: 10,2675           00006                           EXTEND
000784: 10,2676           05013                           WOR      13                                    #  SET NEW RADAR BITS
000785:
000786: 10,2677           00006                           EXTEND
000787: 10,2700           30025                           DCA      TIME2
000788: 10,2701           20422                           DAS      TIMEHOLD                              #  TIME OF NOMINAL MIDPOINT.
000789:
000790: 10,2702           37665                           CAF      ZERO
000791: 10,2703           54001                           TS       L
000792: 10,2704           52416                           DXCH     SAMPLSUM
000793: 10,2705           12302                           TCF      ROADBACK
000794:
000795: 10,2706           00230        DGBITS             OCT      230
000796:


000798:                                                                                                  #  RADAR RUPT READER
000799:
000800:                                                                                                  #  THIS ROUTINE STARTS FROM A RADARUPT. IT READS THE DATA $ LOTS MORE.
000801:
000802: 10,2707           54016        RADAREAD           TS       BANKRUPT
000803: 10,2710           00006                           EXTEND
000804: 10,2711           22012                           QXCH     QRUPT
000805:
000806: 10,2712           00006        ANGLREAD           EXTEND
000807: 10,2713           30036                           DCA      OPTY
000808: 10,2714           52420                           DXCH     OPTYHOLD                              #  SAVE RAW CDU ANGLES
000809:
000810: 10,2715           10414        TRYCOUNT           CCS      SAMPLIM
000811: 10,2716           12730                           TCF      PLENTY
000812: 10,2717           12723                           TCF      NOMORE
000813: 10,2720           05413                           TC       ALARM
000814: 10,2721           00520                           OCT      520
000815: 10,2722           04606                           TC       RESUME
000816:
000817: 10,2723           05413        NOMORE             TC       ALARM
000818: 10,2724           00521                           OCT      521
000819: 10,2725           47657        BADRAD             CS       ONE
000820: 10,2726           54414                           TS       SAMPLIM
000821: 10,2727           03247                           TC       RDBADEND   -2
000822:
000823: 10,2730           54414        PLENTY             TS       SAMPLIM
000824: 10,2731           37655                           CAF      BIT3
000825: 10,2732           00006                           EXTEND
000826: 10,2733           02013                           RAND     13                                    #  TO FIND OUT WHICH RADAR
000827: 10,2734           00006                           EXTEND
000828: 10,2735           13014                           BZF      RENDRAD
000829:
000830: 10,2736           30413        LRPOSCHK           CA       RADMODES                              #  SEE IF LR IN DESIRED POSITION.
000831: 10,2737           00006                           EXTEND
000832: 10,2740           06033                           RXOR     33
000833: 10,2741           77652                           MASK     BIT6
000834: 10,2742           00006                           EXTEND
000835: 10,2743           12747                           BZF      VELCHK
000836:
000837: 10,2744           05413                           TC       ALARM
000838: 10,2745           00522                           OCT      522
000839: 10,2746           02725                           TC       BADRAD
000840:
000841: 10,2747           36165        VELCHK             CAF      BIN3                                  #  = 00003 OCT
000842: 10,2750           00006                           EXTEND
000843: 10,2751           06013                           RXOR     13
000844: 10,2752           76165                           MASK     BIN3
000845: 10,2753           00006                           EXTEND
000846: 10,2754           13010                           BZF      LRHEIGHT                              #  TAKE A LR RANGE READING
000847:


000849: 10,2755           37637                           CAF      POSMAX
000850: 10,2756           70046                           MASK     RNRAD
000851: 10,2757           63167                           AD       LVELBIAS
000852: 10,2760           54001                           TS       L
000853: 10,2761           30046                           CAE      RNRAD
000854: 10,2762           60000                           DOUBLE
000855: 10,2763           77657                           MASK     BIT1
000856: 10,2764           52071                           DXCH     ITEMP3
000857:
000858: 10,2765           37650                           CAF      BIT8                                  #  DATA GOOD ISN'T CHECKED UNTIL AFTER READ-
000859: 10,2766           03137                           TC       DGCHECK                               #  ING DATA SO SOME RADAR TESTS WILL WORK
000860:                                                                                                  #  INDEPENDENT OF DATA GOOD.
000861:
000862: 10,2767           10425                           CCS      NSAMP
000863: 10,2770           03000                           TC       NOEND
000864: 10,2771           47657        GOODRAD            CS       ONE
000865: 10,2772           54414                           TS       SAMPLIM
000866: 10,2773           40065                           CS       ITEMP1                                #  WHEN ENOUGH GOOD DATA HAS BEEN GATHERED,
000867: 10,2774           70413                           MASK     RADMODES                              #  RESET DATA FAIL FLAGS FOR SETTRKF.
000868: 10,2775           54413                           TS       RADMODES
000869: 10,2776           05042                           TC       SETTRKF                               #  LAMPS MIGHT GO OFF IF DATA JUST GOOD.
000870: 10,2777           03242                           TC       RGOODEND   -2
000871:
000872: 10,3000           54425        NOEND              TS       NSAMP
000873: 10,3001           10414        RESAMPLE           CCS      SAMPLIM                               #  SEE IF ANY MORE TRIES SHOULD BE MADE.
000874: 10,3002           13004                           TCF      +2
000875: 10,3003           13156                           TCF      DATAFAIL                              #  N SAMPLES NOT AVAILABLE.
000876: 10,3004           37654                           CAF      BIT4                                  #  RESET ACTIVITY BIT.
000877: 10,3005           00006                           EXTEND
000878: 10,3006           05013                           WOR      13                                    #  RESET ACTIVITY BIT
000879: 10,3007           04606                           TC       RESUME
000880:
000881:
000882: 10,3010           37653        LRHEIGHT           CAF      BIT5
000883: 10,3011           54065                           TS       ITEMP1                                #  (POSITION OF DATA GOOD BIT IN CHAN 33)
000884:
000885: 10,3012           37647                           CAF      BIT9
000886: 10,3013           03047                           TC       SCALECHK   -1
000887:
000888: 10,3014           37645        RENDRAD            CAF      BIT11                                 #  MAKE SURE ANTENNA HAS NOT GONE OUT OF
000889: 10,3015           70413                           MASK     RADMODES                              #  LIMITS.
000890: 10,3016           10000                           CCS      A
000891: 10,3017           12725                           TCF      BADRAD
000892:
000893: 10,3020           40413                           CS       RADMODES                              #  BE SURE RR CDU HASN'T FAILED.
000894: 10,3021           77651                           MASK     BIT7
000895: 10,3022           10000                           CCS      A
000896: 10,3023           12725                           TCF      BADRAD
000897:


000899: 10,3024           37644                           CAF      BIT12                                 #  DONT ACCEPT RR DATA IF TRUNION MORE
000900: 10,3025           70413                           MASK     RADMODES                              #  THAN 55 DEGREES FROM NOMINAL POSITION.
000901: 10,3026           10000                           CCS      A
000902: 10,3027           37641                           CAF      BIT15                                 #  180 FOR MODE 2 - 0 FRO MODE 1.
000903: 10,3030           00006                           EXTEND
000904: 10,3031           20035                           MSU      OPTY
000905: 10,3032           04763                           TC       MAGSUB
000906: 10,3033           66161                           DEC      -.30555                               #  55 DEGS AT HALF-REVS.
000907: 10,3034           12725                           TCF      BADRAD
000908:
000909: 10,3035           37654                           CAF      BIT4                                  #  SEE IF DATA HAS BEEN GOOD.
000910: 10,3036           54065                           TS       ITEMP1                                #  (POSITION OF DATA GOOD BIT IN CHAN 33)
000911:
000912: 10,3037           37657                           CAF      BIT1                                  #  SEE IF RR RDOT.
000913: 10,3040           00006                           EXTEND
000914: 10,3041           02013                           RAND     13
000915: 10,3042           54002                           TS       Q                                     #  FOR LATER TESTING.
000916: 10,3043           10000                           CCS      A
000917: 10,3044           13046                           TCF      +2
000918: 10,3045           13060                           TCF      RADIN                                 #  NO SCALE CHECK FOR RR RDOT.
000919: 10,3046           37655                           CAF      BIT3
000920: 10,3047           54001                           TS       L
000921:
000922: 10,3050           00006        SCALECHK           EXTEND
000923: 10,3051           02033                           RAND     33                                    #  SCALE STATUS NOW
000924: 10,3052           56001                           XCH      L
000925: 10,3053           70413                           MASK     RADMODES                              #  SCALE STATUS BEFORE
000926: 10,3054           00006                           EXTEND
000927: 10,3055           06001                           RXOR     01                                    #  SEE IF THEY DIFFER
000928: 10,3056           10000                           CCS      A
000929: 10,3057           03077                           TC       SCALCHNG                              #  THEY DIFFER.
000930:
000931: 10,3060           37637        RADIN              CAF      POSMAX
000932: 10,3061           70046                           MASK     RNRAD
000933: 10,3062           54071                           TS       ITEMP4
000934:
000935: 10,3063           30046                           CAE      RNRAD
000936: 10,3064           60000                           DOUBLE
000937: 10,3065           77657                           MASK     BIT1
000938: 10,3066           54070                           TS       ITEMP3
000939:
000940: 10,3067           10002                           CCS      Q                                     #  SEE IF RR RDOT.
000941: 10,3070           13111                           TCF      SCALADJ                               #  NO, BUT SCALE CHANGING MAY BE NEEDED.
000942:
000943: 10,3071           00006                           EXTEND                                         #  IF RR RANGE RATE, THROW OUT BIAS.
000944: 10,3072           43171                           DCS      RDOTBIAS
000945: 10,3073           20071        DASAMPL            DAS      ITEMP3
000946: 10,3074           30065        DGCHECK2           CA       ITEMP1                                #  SEE THAT DATA HAS BEEN GOOD BEFORE AND
000947: 10,3075           03140                           TC       DGCHECK    +1                         #  AFTER TAKING SAMPLE.
000948: 10,3076           02771                           TC       GOODRAD
000949:


000951: 10,3077           22413        SCALCHNG           LXCH     RADMODES
000952: 10,3100           67657                           AD       BIT1
000953: 10,3101           00006                           EXTEND
000954: 10,3102           06001                           RXOR     01
000955: 10,3103           54413                           TS       RADMODES
000956: 10,3104           32706                           CAF      DGBITS                                #  UPDATE LAST VALUE OF DATA GOOD BITS.
000957: 10,3105           00006                           EXTEND
000958: 10,3106           02033                           RAND     33
000959: 10,3107           54427                           TS       OLDATAGD
000960: 10,3110           12725                           TCF      BADRAD
000961:


000963:                                                                                                  #           THE FOLLOWING ROUTINE INCORPORATES RR RANGE AND LR ALT SCALE INFORMATION AND LEAVES DATA LO SCALE.
000964:
000965: 10,3111           10001        SCALADJ            CCS      L                                     #  L HAS SCALE INHIBIT FOR THIS RADAR.
000966: 10,3112           13114                           TCF      +2                                    #  ON HIGH SCALE.
000967: 10,3113           13074                           TCF      DGCHECK2
000968:
000969: 10,3114           52071                           DXCH     ITEMP3
000970: 10,3115           20001                           DDOUBL
000971: 10,3116           20001                           DDOUBL
000972: 10,3117           20001                           DDOUBL
000973: 10,3120           52071                           DXCH     ITEMP3
000974:
000975: 10,3121           37655                           CAF      BIT3                                  #  SEE IF LR OR RR.
000976: 10,3122           00006                           EXTEND
000977: 10,3123           02013                           RAND     13
000978: 10,3124           00006                           EXTEND                                         #  IF RR, NO MORE ACTION REQUIRED.
000979: 10,3125           13074                           BZF      DGCHECK2
000980:
000981: 10,3126           33166                           CAF      LRRATIO                               #  IF LR, CONVERT TO LO SCALING.
000982: 10,3127           00006                           EXTEND
000983: 10,3130           70071                           MP       ITEMP4
000984: 10,3131           54071                           TS       ITEMP4
000985: 10,3132           37665                           CAF      ZERO                                  #  (SO SUBSEQUENT DAS WILL BE OK)
000986: 10,3133           56070                           XCH      ITEMP3
000987: 10,3134           00006                           EXTEND
000988: 10,3135           73166                           MP       LRRATIO
000989: 10,3136           13073                           TCF      DASAMPL
000990:


000992: 10,3137           54065        DGCHECK            TS       ITEMP1                                #  UPDATE DATA GOOD BIT IN OLDATAGD AND
000993: 10,3140           00006                           EXTEND                                         #  MAKE SURE IT WAS ON BEFORE AND AFTER THE
000994: 10,3141           02033                           RAND     33                                    #  SAMPLE WAS TAKEN BEFORE RETURNING. IF
000995: 10,3142           54001                           TS       L                                     #  NOT, GOES TO RESAMPLE TO TRY AGAIN. IF
000996: 10,3143           40065                           CS       ITEMP1                                #  MAX NUMBER OF TRIES HAS BEEN REACHED,
000997: 10,3144           70427                           MASK     OLDATAGD                              #  THE BIT CORRESPONDING TO THE DATA GOOD
000998: 10,3145           60001                           AD       L                                     #  WHICH FAILED TO APPEAR IS IN ITEMP1 AND
000999: 10,3146           56427                           XCH      OLDATAGD                              #  CAN BE USED TO SET RADMODES WHICH VIA
001000: 10,3147           70065                           MASK     ITEMP1                                #  SETTRKF SETS THE TRACKER FAIL LAMP.
001001: 10,3150           60001                           AD       L
001002: 10,3151           10000                           CCS      A                                     #  SHOULD BOTH BE ZERO.
001003: 10,3152           03001                           TC       RESAMPLE
001004: 10,3153           52071                           DXCH     ITEMP3                                #  IF DATA GOOD BEFORE AND AFTER, ADD TO
001005: 10,3154           20416                           DAS      SAMPLSUM                              #  ACCUMULATION.
001006: 10,3155           00002                           TC       Q
001007:
001008: 10,3156           40065        DATAFAIL           CS       ITEMP1                                #  IN THE ABOVE CASE, SET RADMODES BIT
001009: 10,3157           70413                           MASK     RADMODES                              #  SHOWING SOME RADAR DATA FAILED.
001010: 10,3160           60065                           AD       ITEMP1
001011: 10,3161           54413                           TS       RADMODES
001012:
001013: 10,3162           52071                           DXCH     ITEMP3                                #  IF WE HAVE BEEN UNABLE TO GATHER N
001014: 10,3163           52416                           DXCH     SAMPLSUM                              #  SAMPLES, USE LAST ONE ONLY.
001015:
001016: 10,3164           05042                           TC       SETTRKF
001017:
001018: 10,3165           12723                           TCF      NOMORE
001019:
001020: 10,3166           23773        LRRATIO            DEC      4.9977     B-3
001021: 10,3167           50437        LVELBIAS           DEC      -12000     B-14                       #  LANDING RADAR BIAS.
001022: 10,3170           00001 01150  RDOTBIAS           2DEC     17000      B-28                       #  BIAS COUNT FOR RR RANGE RATE
001023:


001025:                                                                                                  #  THIS ROUTINE CHANGES THE LR POSITION, AND CHECKS THAT IT GOT THERE.
001026:
001027: 10,3172           00004        LRPOS2             INHINT
001028:
001029: 10,3173           47652                           CS       BIT6                                  #  SHOW DESIRED LR POSITION IS NOW 2.
001030: 10,3174           70413                           MASK     RADMODES
001031: 10,3175           67652                           AD       BIT6
001032: 10,3176           54413                           TS       RADMODES
001033:
001034: 10,3177           37651                           CAF      BIT7
001035: 10,3200           00006                           EXTEND
001036: 10,3201           02033                           RAND     33                                    #  SEE IF ALREADY THERE.
001037: 10,3202           00006                           EXTEND
001038: 10,3203           13227                           BZF      RADNOOP
001039:
001040: 10,3204           37643                           CAF      BIT13
001041: 10,3205           00006                           EXTEND
001042: 10,3206           05012                           WOR      12                                    #  COMMAND TO POSITION 2
001043:
001044: 10,3207           33234                           CAF      5SECS
001045: 10,3210           04536                           TC       WAITLIST
001046: 10,3211           03214 20003                     2CADR    MAKESURE
001047:
001048: 10,3213           02302                           TC       ROADBACK
001049:
001050: 10,3214           47643        MAKESURE           CS       BIT13                                 #  REMOVE LR POSITION COMMAND OUTBIT
001051: 10,3215           00006                           EXTEND
001052: 10,3216           03012                           WAND     12
001053:
001054: 10,3217           37651                           CAF      BIT7
001055: 10,3220           00006                           EXTEND
001056: 10,3221           02033                           RAND     33
001057: 10,3222           00006                           EXTEND
001058: 10,3223           13244                           BZF      RGOODEND
001059:
001060: 10,3224           05413                           TC       ALARM                                 #  LR ANTENNA DIDNT MAKE IT.
001061: 10,3225           00523                           OCT      523
001062: 10,3226           13251                           TCF      RDBADEND
001063:
001064: 10,3227           37657        RADNOOP            CAF      ONE                                   #  NO FURTHER ACTION REQUESTED.
001065: 10,3230           04536                           TC       WAITLIST
001066: 10,3231           03244 20003                     2CADR    RGOODEND
001067:
001068: 10,3233           02302                           TC       ROADBACK
001069:
001070: 10,3234           00764        5SECS              DEC      5          E2
001071:


001073:                                                                                                  #           SEQUENCES TO TERMINATE RR OPERATIONS.
001074:
001075: 10,3235           37651        ENDRADAR           CAF      BIT7                                  #  PROLOG TO CHECK RR CDU FAIL BEFORE END.
001076: 10,3236           70413                           MASK     RADMODES
001077: 10,3237           10000                           CCS      A
001078: 10,3240           13244                           TCF      RGOODEND
001079: 10,3241           13251                           TCF      RDBADEND
001080: 10,3242           47665                 -2        CS       ZERO                                  #  RGOODEND WHEN NOT UNDER WAITLIST CONTROL
001081: 10,3243           55070                           TS       RUPTAGN
001082:
001083: 10,3244           37656        RGOODEND           CAF      TWO
001084: 10,3245           04102                           TC       POSTJUMP
001085: 10,3246           26667                           CADR     GOODEND
001086:
001087: 10,3247           47665                 -2        CS       ZERO                                  #  RDBADEND WHEN NOT UNDER WAITLIST.
001088: 10,3250           55070                           TS       RUPTAGN
001089: 10,3251           37656        RDBADEND           CAF      TWO
001090: 10,3252           04102                           TC       POSTJUMP
001091: 10,3253           26664                           CADR     BADEND
001092:
001093: 10,3254     6165               BIN3               EQUALS   THREE
001094: 10,3254                        ENDRMODS           EQUALS

End of include-file RADAR_LEAD-IN_ROUTINES.agc.  Parent file is MAIN.agc


