
Source Code


000002:                                                                                                  ## Copyright:    Public domain.
000003:                                                                                                  ## Filename:     RCS_FAILURE_MONITOR.agc
000004:                                                                                                  ## Purpose:      Part of the source code for Aurora (revision 12).
000005:                                                                                                  ## Assembler:    yaYUL
000006:                                                                                                  ## Contact:      Ron Burkey <info@sandroid.org>.
000007:                                                                                                  ## Website:      https://www.ibiblio.org/apollo.
000008:                                                                                                  ## Pages:        0635-0638
000009:                                                                                                  ## Mod history:  2016-09-20 JL   Created.
000010:                                                                                                  ##               2016-09-21 OH   Initial Transcription
000011:                                                                                                  ##               2016-10-08 HG   fix BANK 20 -> BANK 12  (p.0635)
000012:                                                                                                  ##               2016-10-16 HG   add missed label RCSMNTR
000013:                                                                                                  ##               2016-12-08 RSB  Proofed comments with octopus/ProoferComments
000014:                                                                                                  ##                               but no errors found.
000015:
000016:                                                                                                  ## This source code has been transcribed or otherwise adapted from
000017:                                                                                                  ## digitized images of a hardcopy from the private collection of
000018:                                                                                                  ## Don Eyles.  The digitization was performed by archive.org.
000019:
000020:                                                                                                  ## Notations on the hardcopy document read, in part:
000021:
000022:                                                                                                  ##       473423A YUL SYSTEM FOR BLK2: REVISION 12 of PROGRAM AURORA BY DAP GROUP
000023:                                                                                                  ##       NOV 10, 1966
000024:
000025:                                                                                                  ##       [Note that this is the date the hardcopy was made, not the
000026:                                                                                                  ##       date of the program revision or the assembly.]
000027:
000028:                                                                                                  ## The scan images (with suitable reduction in storage size and consequent
000029:                                                                                                  ## reduction in image quality) are available online at
000030:                                                                                                  ##       https://www.ibiblio.org/apollo.
000031:                                                                                                  ## The original high-quality digital images are available at archive.org:
000032:                                                                                                  ##       https://archive.org/details/aurora00dapg
000033:


000035:
000036: 12,3752                                           BANK     12
000037:


000039:                                                                                                  #  FAILURE MONITOR FOR LEM RCS JETS (4 TIMES/SECOND)
000040:
000041:                                                                                                  #  *** FAILSW CAPABILITY FOR CHECKOUT ONLY ***
000042:
000043: 12,3752           11510        RCSMONIT           CCS      FAILSW
000044: 12,3753           14606                           TCF      ENDRCSFL                              #  DO NOTHING IF POSITIVE
000045:
000046: 12,3754           31511                           CA       LASTFAIL                              #  LAST FAILURE CHANNEL VALUE
000047: 12,3755           00006                           EXTEND
000048: 12,3756           06032                           RXOR     32
000049: 12,3757           75235                           MASK     LOW8
000050: 12,3760           00006                           EXTEND
000051: 12,3761           14606                           BZF      NOSTCHG                               #  NO STATUS CHANGE, FINISHED
000052:
000053: 12,3762           00006                           EXTEND
000054: 12,3763           33766                           DCA      MNTRCS
000055: 12,3764           52006                           DTCB
000056: 12,3765           03416 52006  MNTRCS             2CADR    RCSMNTR
000057:
000058: 12,3767                        ENDT4S             EQUALS
000059:
000060:
000061:
000062: 25,3416                                           BANK     25
000063: 25,3416           37665        RCSMNTR            CA       ZERO                                  #  THERE IS A DIFFERENCE, CLEAR MASKS
000064: 25,3417           55512                           TS       CH5MASK
000065: 25,3420           55513                           TS       CH6MASK
000066:
000067: 25,3421           00006                           EXTEND                                         #  READ PRESENT FAILURES
000068: 25,3422           00032                           READ     32
000069: 25,3423           55511                           TS       LASTFAIL                              #  SAVE FOR NEXT PASS
000070:
000071: 25,3424           40000                           COM                                            #  FAILURES NOW ONES
000072: 25,3425           00006                           EXTEND
000073: 25,3426           77651                           MP       BIT7                                  #  SHIFT TO TEST LOW 8 BITS
000074: 25,3427           37665                           CA       ZERO
000075: 25,3430           54065                           TS       FAILCTR                               #  INITIALIZE COUNTER
000076: 25,3431           30001                           CA       L
000077: 25,3432           13435                           TCF      NXTRCSPR   +1
000078:
000079: 25,3433           67657                 -1        AD       BIT1
000080: 25,3434           24065        NXTRCSPR           INCR     FAILCTR
000081: 25,3435           60000                 +1        DOUBLE
000082: 25,3436           54066                           TS       FAILTEMP                              #  OVERFLOW CHECK
000083: 25,3437           13434                           TCF      NXTRCSPR
000084:
000085: 25,3440           50065                           INDEX    FAILCTR
000086: 25,3441           03445                           TC       RCSFJUMP                              #  GO THROUGH JUMP TABLE
000087:
000088: 25,3442           10066                           CCS      FAILTEMP


000090:
000091: 25,3443           13433                           TCF      NXTRCSPR   -1                         #  FINISH EARLY, OR MORE TO DO
000092: 25,3444           14606                           TCF      ENDRCSFL
000093: 25,3445           13455        RCSFJUMP           TCF      FM10/11
000094: 25,3446           13462                           TCF      FM9/12
000095: 25,3447           13467                           TCF      FM13/15
000096: 25,3450           13474                           TCF      FM14/16
000097: 25,3451           13501                           TCF      FM6/7
000098: 25,3452           13506                           TCF      FM1/3
000099: 25,3453           13513                           TCF      FM5/8
000100: 25,3454           13520                           TCF      FM2/4
000101:
000102: 25,3455           37652        FM10/11            CA       BIT6
000103: 25,3456           27512                           ADS      CH5MASK
000104: 25,3457           37654                           CA       BIT4
000105: 25,3460           27513                           ADS      CH6MASK
000106: 25,3461           00002                           TC       Q
000107:
000108: 25,3462           37653        FM9/12             CA       BIT5
000109: 25,3463           27512                           ADS      CH5MASK
000110: 25,3464           37653                           CA       BIT5
000111: 25,3465           27513                           ADS      CH6MASK
000112: 25,3466           00002                           TC       Q
000113:
000114: 25,3467           37651        FM13/15            CA       BIT7
000115: 25,3470           27512                           ADS      CH5MASK
000116: 25,3471           37655                           CA       BIT3
000117: 25,3472           27513                           ADS      CH6MASK
000118: 25,3473           00002                           TC       Q
000119:
000120: 25,3474           37650        FM14/16            CA       BIT8
000121: 25,3475           27512                           ADS      CH5MASK
000122: 25,3476           37650                           CA       BIT8
000123: 25,3477           27513                           ADS      CH6MASK
000124: 25,3500           00002                           TC       Q
000125:
000126: 25,3501           37654        FM6/7              CA       BIT4
000127: 25,3502           27512                           ADS      CH5MASK
000128: 25,3503           37657                           CA       BIT1
000129: 25,3504           27513                           ADS      CH6MASK
000130: 25,3505           00002                           TC       Q
000131:
000132: 25,3506           37657        FM1/3              CA       BIT1
000133: 25,3507           27512                           ADS      CH5MASK
000134: 25,3510           37656                           CA       BIT2
000135: 25,3511           27513                           ADS      CH6MASK
000136: 25,3512           00002                           TC       Q
000137:
000138: 25,3513           37655        FM5/8              CA       BIT3
000139: 25,3514           27512                           ADS      CH5MASK


000141: 25,3515           37652                           CA       BIT6
000142: 25,3516           27513                           ADS      CH6MASK
000143: 25,3517           00002                           TC       Q
000144:
000145: 25,3520           37656        FM2/4              CA       BIT2
000146: 25,3521           27512                           ADS      CH5MASK
000147: 25,3522           37651                           CA       BIT7
000148: 25,3523           27513                           ADS      CH6MASK
000149: 25,3524           00002                           TC       Q
000150:
000151: 25,3525     4606               ENDRCSFL           EQUALS   RESUME
000152: 25,3525     4606               NOSTCHG            EQUALS   RESUME

End of include-file RCS_FAILURE_MONITOR.agc.  Parent file is MAIN.agc


