
Source Code


000002:                                                                                                  #  Copyright:    Public domain.
000003:                                                                                                  #  Filename:     RTB_OP_CODES.agc
000004:                                                                                                  #  Purpose:      Part of the source code for Aurora (revision 12).
000005:                                                                                                  #  Assembler:    yaYUL
000006:                                                                                                  #  Contact:      Ron Burkey <info@sandroid.org>.
000007:                                                                                                  #  Website:      https://www.ibiblio.org/apollo.
000008:                                                                                                  #  Pages:        425-430
000009:                                                                                                  #  Mod history:  2016-09-20 JL   Created.
000010:                                                                                                  #                2016-10-03 JL   Transcribed pages 425-430.
000011:                                                                                                  #                2016-10-16 HG   Fix operand LASTXMCD -> LASTXCMD
000012:                                                                                                  #                                            RUPTREG12 -> RUPTREG2
000013:
000014:                                                                                                  #  This source code has been transcribed or otherwise adapted from
000015:                                                                                                  #  digitized images of a hardcopy from the private collection of
000016:                                                                                                  #  Don Eyles.  The digitization was performed by archive.org.
000017:
000018:                                                                                                  #  Notations on the hardcopy document read, in part:
000019:
000020:                                                                                                  #        473423A YUL SYSTEM FOR BLK2: REVISION 12 of PROGRAM AURORA BY DAP GROUP
000021:                                                                                                  #        NOV 10, 1966
000022:
000023:                                                                                                  #        [Note that this is the date the hardcopy was made, not the
000024:                                                                                                  #        date of the program revision or the assembly.]
000025:
000026:                                                                                                  #  The scan images (with suitable reduction in storage size and consequent
000027:                                                                                                  #  reduction in image quality) are available online at
000028:                                                                                                  #        https://www.ibiblio.org/apollo.
000029:                                                                                                  #  The original high-quality digital images are available at archive.org:
000030:                                                                                                  #        https://archive.org/details/aurora00dapg
000031:


000033: 15,3342                                           SETLOC   ENDINFSS
000034:
000035:                                                                                                  #           LOAD TIME2, TIME1 INTO MPAC:
000036:
000037: 15,3342           00006        LOADTIME           EXTEND
000038: 15,3343           30025                           DCA      TIME2
000039: 15,3344           16470                           TCF      SLOAD2
000040:
000041:                                                                                                  #           CONVERT THE SINGLE PRECISION 2'S COMPLEMENT NUMBER ARRIVING IN MPAC (SCALED IN HALF-REVOLUTIONS) TO A
000042:                                                                                                  #  DP 1'S COMPLEMENT NUMBER SCALED IN REVOLUTIONS.
000043:
000044: 15,3345           10140        CDULOGIC           CCS      MPAC
000045: 15,3346           37665                           CAF      ZERO
000046: 15,3347           13352                           TCF      +3
000047: 15,3350           13351                           NOOP
000048: 15,3351           47642                           CS       HALF
000049:
000050: 15,3352           54141                           TS       MPAC       +1
000051: 15,3353           37665                           CAF      ZERO
000052: 15,3354           56140                           XCH      MPAC
000053: 15,3355           00006                           EXTEND
000054: 15,3356           77642                           MP       HALF
000055: 15,3357           20141                           DAS      MPAC
000056: 15,3360           16472                           TCF      SLOAD2     +2                         #  C(A) = +0.
000057:
000058:                                                                                                  #           READ IMU CDUS INTO MPAC AS A VECTOR. ESPECIALLY USEFUL IN CONNECTION WITH SMNB, ETC.
000059:
000060: 15,3361           00004        READCDUS           INHINT
000061: 15,3362           30033                           CA       CDUY                                  #  IN ORDER Y Z X
000062: 15,3363           54140                           TS       MPAC
000063: 15,3364           30034                           CA       CDUZ
000064: 15,3365           54143                           TS       MPAC       +3
000065: 15,3366           30032                           CA       CDUX
000066: 15,3367           13376                           TCF      READPIPS   +6                         #  COMMON CODING.
000067:
000068:                                                                                                  #           READ THE PIPS INTO MPAC WITHOUT CHANGING THEM:
000069:
000070: 15,3370           00004        READPIPS           INHINT
000071: 15,3371           30037                           CA       PIPAX
000072: 15,3372           54140                           TS       MPAC
000073: 15,3373           30040                           CA       PIPAY
000074: 15,3374           54143                           TS       MPAC       +3
000075: 15,3375           30041                           CA       PIPAZ
000076: 15,3376           00003                           RELINT
000077: 15,3377           54145                           TS       MPAC       +5
000078:
000079: 15,3400           37665                           CAF      ZERO
000080: 15,3401           54141                           TS       MPAC       +1
000081: 15,3402           54144                           TS       MPAC       +4
000082: 15,3403           54146                           TS       MPAC       +6
000083:


000085: 15,3404           47657        VECMODE            CS       ONE
000086: 15,3405           16013                           TCF      NEWMODE
000087:
000088:                                                                                                  #           FORCE TP SIGN AGREEMENT IN MPAC:
000089:
000090: 15,3406           07235        SGNAGREE           TC       TPAGREE
000091: 15,3407           16014                           TCF      DANZIG
000092:
000093:                                                                                                  #           CONVERT THE DP 1'S COMPLEMENT ANGLE SCALED IN REVOLUTIONS TO A SINGLE PRECISION 2'S COMPLEMENT ANGLE
000094:                                                                                                  #  SCALED IN HALF-REVOLUTIONS.
000095:
000096: 15,3410           03440        1STO2S             TC       1TO2SUB
000097: 15,3411           37665                           CAF      ZERO
000098: 15,3412           54141                           TS       MPAC       +1
000099: 15,3413           16013                           TCF      NEWMODE
000100:
000101:                                                                                                  #           DO 1STO2S ON A VECTOR OF ANGLES:
000102:
000103: 15,3414           03440        V1STO2S            TC       1TO2SUB                               #  ANSWER ARRIVES IN A AND MPAC.
000104:
000105: 15,3415           52146                           DXCH     MPAC       +5
000106: 15,3416           52141                           DXCH     MPAC
000107: 15,3417           03440                           TC       1TO2SUB
000108: 15,3420           54142                           TS       MPAC       +2
000109:
000110: 15,3421           52144                           DXCH     MPAC       +3
000111: 15,3422           52141                           DXCH     MPAC
000112: 15,3423           03440                           TC       1TO2SUB
000113: 15,3424           54141                           TS       MPAC       +1
000114:
000115: 15,3425           30145                           CA       MPAC       +5
000116: 15,3426           54140                           TS       MPAC
000117:
000118: 15,3427           37657                           CAF      ONE                                   #  MODE IS TP.
000119: 15,3430           16013                           TCF      NEWMODE
000120:
000121:                                                                                                  #           V1STO2S FOR 2 COMPONENT VECTOR, USED BY RR.
000122:
000123: 15,3431           03440        2V1STO2S           TC       1TO2SUB
000124: 15,3432           52144                           DXCH     MPAC       +3
000125: 15,3433           52141                           DXCH     MPAC
000126: 15,3434           03440                           TC       1TO2SUB
000127: 15,3435           54001                           TS       L
000128: 15,3436           30143                           CA       MPAC       +3
000129: 15,3437           16470                           TCF      SLOAD2
000130:
000131:                                                                                                  #           SUBROUTINE TO DO DOUBLING AND 1'S TO 2'S COMVERSION:
000132:
000133: 15,3440           52141        1TO2SUB            DXCH     MPAC                                  #  FINAL MPAC +1 UNSPECIFIED.
000134: 15,3441           20001                           DDOUBL


000136: 15,3442           10000                           CCS      A
000137: 15,3443           67657                           AD       ONE
000138: 15,3444           13446                           TCF      +2
000139: 15,3445           40000                           COM                                            #  THIS WAS REVERSE OF MSU.
000140:
000141: 15,3446           54140                           TS       MPAC                                  #  AND SKIP ON OVERFLOW.
000142: 15,3447           00002                           TC       Q
000143:
000144: 15,3450           50000                           INDEX    A                                     #  OVERFLOW UNCORRECT AND IN MSU.
000145: 15,3451           37640                           CAF      LIMITS
000146: 15,3452           26140                           ADS      MPAC
000147: 15,3453           00002                           TC       Q
000148:


000150:                                                                                                  #           SUBROUTINE TO INCREMENT CDUS
000151: 15,3454           33467        INCRCDUS           CAF      LOCTHETA
000152: 15,3455           54114                           TS       BUF                                   #  PLACE ADRES(THETA) IN BUF.
000153: 15,3456           30140                           CAE      MPAC                                  #  INCREMENT IN 1S COMPL.
000154: 15,3457           03470                           TC       CDUINC
000155:
000156: 15,3460           24114                           INCR     BUF
000157: 15,3461           30143                           CAE      MPAC       +3
000158: 15,3462           03470                           TC       CDUINC
000159:
000160: 15,3463           24114                           INCR     BUF
000161: 15,3464           30145                           CAE      MPAC       +5
000162: 15,3465           03470                           TC       CDUINC
000163:
000164: 15,3466           13404                           TCF      VECMODE
000165:
000166: 15,3467           00400        LOCTHETA           ADRES    THETAD
000167:
000168:                                                                                                  #           THE FOLLOWING ROUTINE INCREMENTS IN 2S COMPLEMENT THE REGISTER WHOSE ADDRESS IS IN BUF BY THE 1S COMPL.
000169:                                                                                                  #  QUANTITY FOUND IN TEM2. THIS MAY BE USED TO INCREMENT DESIRED IMU AND OPTICS CDU ANGLES OR ANY OTHER 2S COMPL.
000170:                                                                                                  #  (+0 UNEQUAL TO -0) QUANTITY. MAY BE CALLED BY BANKCALL/SWCALL.
000171:
000172: 15,3470           54126        CDUINC             TS       TEM2                                  #  1S COMPL.QUANT. ARRIVES IN ACC. STORE IT
000173: 15,3471           50114                           INDEX    BUF
000174: 15,3472           10000                           CCS      0                                     #  CHANGE 2S COMPL. ANGLE(IN BUF)INTO 1S
000175: 15,3473           67657                           AD       ONE
000176: 15,3474           13500                           TCF      +4
000177: 15,3475           67657                           AD       ONE
000178: 15,3476           67657                           AD       ONE                                   #  OVEFLOW HERE IF 2S COMPL. IS 180 DEG.
000179: 15,3477           40000                           COM
000180:
000181: 15,3500           60126                           AD       TEM2                                  #  ADD IN INCREMENT. WILL OVERFLOW IF RE-
000182:                                                                                                  #  SULT MOVES FROM 2ND TO 3D QUAD.(OR BACK)
000183: 15,3501           10000                           CCS      A                                     #  BACK TO 2S COMPL.
000184: 15,3502           67657                           AD       ONE
000185: 15,3503           13505                           TCF      +2
000186: 15,3504           40000                           COM
000187: 15,3505           54126                           TS       TEM2                                  #  STORE 14BIT QUANTITY WITH PRESENT SIGN
000188: 15,3506           13512                           TCF      +4
000189: 15,3507           50000                           INDEX    A                                     #  OVERFLOW MEANS CORRECT 14BIT VALUE,WRONG
000190:                                                                                                  #   SIGN.
000191: 15,3510           37640                           CAF      LIMITS                                #  FIX IT,BY ADDING IN 37777 OR 40000
000192: 15,3511           60126                           AD       TEM2
000193:
000194: 15,3512           50114                           INDEX    BUF
000195: 15,3513           54000                           TS       0                                     #  STORE NEW ANGLE IN 2S COMPLEMENT.
000196: 15,3514           00002                           TC       Q
000197:


000199:                                                                                                  #           RTB TO TORQUE GYROS, EXCEPT FOR THE CALL TO IMUSTALL. ECADR OF COMMANDS ARRIVES IN X1.
000200:
000201: 15,3515           50104        PULSEIMU           INDEX    FIXLOC                                #  ADDRESS OF GYRO COMMANDS SHOULD BE IN X1
000202: 15,3516           30046                           CA       X1
000203: 15,3517           04063                           TC       BANKCALL
000204: 15,3520           26317                           CADR     IMUPULSE
000205: 15,3521           16014                           TCF      DANZIG
000206:


000208:                                                                                                  #           THE FOLLOWING ROUTINE IS USED ONLY IN BENCH TESTING THE RR.
000209:
000210: 15,3522           04554        RRSIM              TC       FIXDELAY
000211: 15,3523           00062                           DEC      50         B-14
000212:
000213: 15,3524           37656        RRSIM2             CAF      BIT2                                  #  SEE IF RR ECTR ENABLED.
000214: 15,3525           00006                           EXTEND
000215: 15,3526           02012                           RAND     12
000216: 15,3527           00006                           EXTEND
000217: 15,3530           13522                           BZF      RRSIM
000218:
000219: 15,3531           30126                           CA       TEM2                                  #  SAVE EXEC TEMPS SINCE IN RUPT.
000220: 15,3532           54074                           TS       RUPTREG1
000221: 15,3533           33573                           CAF      LOPTY
000222: 15,3534           56114                           XCH      BUF
000223: 15,3535           54075                           TS       RUPTREG2
000224: 15,3536           30362                           CA       LASTYCMD                              #  ECTR.
000225: 15,3537           60000                           DOUBLE
000226: 15,3540           00006                           EXTEND
000227: 15,3541           73574                           MP       RRSIMG
000228: 15,3542           03470                           TC       CDUINC
000229: 15,3543           24114                           INCR     BUF
000230: 15,3544           30035                           CA       OPTY                                  #  SHAFT CMD IS DIVIDED BY THE ABS VALUE OF
000231: 15,3545           00006                           EXTEND                                         #  THE COS OF THE TRUNNION ANGLE.
000232: 15,3546           20007                           MSU      7                                     #  TO 1S COMPLEMENT.
000233: 15,3547           04232                           TC       SPCOS                                 #                                  *
000234: 15,3550           00006                           EXTEND                                         #  SPCOS NOW GIVES COS SCALED AT 1 *
000235: 15,3551           77642                           MP       BIT14                                 #                                  *
000236: 15,3552           10000                           CCS      A
000237: 15,3553           13556                           TCF      +3
000238: 15,3554           13556                           TCF      +2
000239: 15,3555           13556                           TCF      +1
000240: 15,3556           67657                           AD       ONE
000241: 15,3557           54065                           TS       ITEMP1
000242:
000243: 15,3560           30363                           CA       LASTXCMD                              #  SHAFT RATE DEPENDS ON TRUNNION.
000244: 15,3561           00006                           EXTEND
000245: 15,3562           73574                           MP       RRSIMG
000246: 15,3563           00006                           EXTEND
000247: 15,3564           10065                           DV       ITEMP1
000248: 15,3565           03470                           TC       CDUINC
000249: 15,3566           30074                           CA       RUPTREG1
000250: 15,3567           54126                           TS       TEM2
000251: 15,3570           30075                           CA       RUPTREG2
000252: 15,3571           54114                           TS       BUF
000253: 15,3572           13522                           TCF      RRSIM
000254:
000255: 15,3573           00035        LOPTY              ADRES    OPTY
000256: 15,3574           22755        RRSIMG             DEC      .59259
000257: 15,3575                        ENDRTBSS           EQUALS

End of include-file RTB_OP_CODES.agc.  Parent file is MAIN.agc


