
Source Code


000002:                                                                                                  ## Copyright:    Public domain.
000003:                                                                                                  ## Filename:     SINGLE_PRECISION_SUBROUTINES.agc
000004:                                                                                                  ## Purpose:      Part of the source code for Aurora (revision 12).
000005:                                                                                                  ## Assembler:    yaYUL
000006:                                                                                                  ## Contact:      Ron Burkey <info@sandroid.org>.
000007:                                                                                                  ## Website:      https://www.ibiblio.org/apollo.
000008:                                                                                                  ## Pages:        123-125
000009:                                                                                                  ## Mod history:  2016-09-20 JL   Created.
000010:                                                                                                  ##               2016-12-08 RSB  Proofed comments with octopus/ProoferComments
000011:                                                                                                  ##                               but no errors found.
000012:
000013:                                                                                                  ## This source code has been transcribed or otherwise adapted from
000014:                                                                                                  ## digitized images of a hardcopy from the private collection of
000015:                                                                                                  ## Don Eyles.  The digitization was performed by archive.org.
000016:
000017:                                                                                                  ## Notations on the hardcopy document read, in part:
000018:
000019:                                                                                                  ##       473423A YUL SYSTEM FOR BLK2: REVISION 12 of PROGRAM AURORA BY DAP GROUP
000020:                                                                                                  ##       NOV 10, 1966
000021:
000022:                                                                                                  ##       [Note that this is the date the hardcopy was made, not the
000023:                                                                                                  ##       date of the program revision or the assembly.]
000024:
000025:                                                                                                  ## The scan images (with suitable reduction in storage size and consequent
000026:                                                                                                  ## reduction in image quality) are available online at
000027:                                                                                                  ##       https://www.ibiblio.org/apollo.
000028:                                                                                                  ## The original high-quality digital images are available at archive.org:
000029:                                                                                                  ##       https://archive.org/details/aurora00dapg
000030:


000032:    4232                                           SETLOC   ENDIBNKF
000033:
000034:                                                                                                  #  SINGLE PRECISION SINE AND COSINE
000035:
000036:    4232           67642        SPCOS              AD       HALF                                  #  ARGUMENTS SCALED AT PI
000037:    4233           55105        SPSIN              TS       TEMK
000038:    4234           14236                           TCF      SPT
000039:    4235           41105                           CS       TEMK
000040:    4236           60000        SPT                DOUBLE
000041:    4237           55105                           TS       TEMK
000042:    4240           14251                           TCF      POLLEY
000043:    4241           57105                           XCH      TEMK
000044:    4242           51105                           INDEX    TEMK
000045:    4243           67640                           AD       LIMITS
000046:    4244           40000                           COM
000047:    4245           61105                           AD       TEMK
000048:    4246           55105                           TS       TEMK
000049:    4247           14251                           TCF      POLLEY
000050:    4250           14267                           TCF      ARG90
000051:    4251           00006        POLLEY             EXTEND
000052:    4252           71105                           MP       TEMK
000053:    4253           55106                           TS       SQ
000054:    4254           00006                           EXTEND
000055:    4255           74274                           MP       C5/2
000056:    4256           64273                           AD       C3/2
000057:    4257           00006                           EXTEND
000058:    4260           71106                           MP       SQ
000059:    4261           64272                           AD       C1/2
000060:    4262           00006                           EXTEND
000061:    4263           71105                           MP       TEMK
000062:    4264           20001                           DDOUBL
000063:    4265           55105                           TS       TEMK
000064:    4266           00002                           TC       Q
000065:    4267           50000        ARG90              INDEX    A
000066:    4270           47640                           CS       LIMITS
000067:    4271           00002                           TC       Q                                     #  RESULT SCALED AT 1
000068:    4272           31103        C1/2               DEC      .7853134
000069:    4273           65552        C3/2               DEC      -.3216146
000070:    4274           01124        C5/2               DEC      .0363551


000072:                                                                                                  #  ENTER WITH ARGUMENT IN A, EXIT WITH ROOT IN A.  IF GIVEN A NEGATIVE ARGUMENT, THE RETURN SKIPS WITH CCS RESULT.
000073:                                                                                                  #  MINUS ZERO RETURNS LIKE PLUS ZERO.
000074:                                                                                                  #  MAXIMUM ERROR IN ANSWER IS NO GREATER THAN 2 BITS.
000075:                                                                                                  #  INTERRUPT PROGRAMS USING SPROOT MUST SAVE AND RESTORE SR.
000076:
000077:
000078:
000079:    4275           55107        SPROOT             TS       SQRARG                                #  ENTER WITH C(A) = Y
000080:    4276           10000                           CCS      A
000081:    4277           14303                           TCF      POSARG                                #  IF PNZ, CONTINUE
000082:    4300           00002                           TC       Q                                     #  RETURN WITH 0 FOR +0
000083:    4301           24002                           INCR     Q
000084:    4302           00002                           TC       Q                                     #  RETURN WITH 0 FOR -0
000085:
000086:    4303           00006        POSARG             EXTEND
000087:    4304           23106                           QXCH     ROOTRET                               #  WILL BE CALLING SPROOT1
000088:    4305           64362                           AD       63/64+1                               #  B(A) = Y - 1
000089:    4306           54000                           OVSK
000090:    4307           14351                           TCF      SPROOT2
000091:    4310           57107                           XCH      SQRARG                                #  ARG JUGGLING
000092:
000093:    4311           55107        SPROOT3            TS       SQRARG
000094:    4312           54021                           TS       SR                                    #  C(A) = Y
000095:    4313           56021                           XCH      SR                                    #  (LOSE 1 BIT)
000096:    4314           55105                           TS       HALFY                                 #  HALFY = Y/2
000097:    4315           64360                           AD       -1/8                                  #  FORM Y/2 - 1/8
000098:    4316           10000                           CCS      A                                     #  TEST FOR FIRST GUESS
000099:    4317           64361                           AD       5/8+1                                 #  Y .G. 1/4, X = Y/2 + 1/2
000100:    4320           04325                           TC       HIGUESS                               #  +0 IMPOSSIBLE FROM ADDITION
000101:    4321           14322                           NOOP                                           #  Y .LE. 1/4, X/2 = Y + 1/16
000102:    4322           37645                           CAF      BIT11                                 #  1/16
000103:    4323           61107                           AD       SQRARG                                #  SQRARG = Y
000104:    4324           60000                           DOUBLE                                         #  X FROM X/2
000105:    4325           04340        HIGUESS            TC       SPROOT1
000106:    4326           04340                           TC       SPROOT1                               #  ITERATE TWICE
000107:    4327           57106                           XCH      ROOTRET                               #  SAVE ANSWER AND GET Q
000108:    4330           10000                           CCS      A
000109:    4331           57106                           XCH      ROOTRET                               #  NO SHIFT NEEDED
000110:    4332           04336                           TC       ROOTBCK
000111:    4333           57106                           XCH      ROOTRET                               #  Q NEG, SHIFT RIGHT THREE
000112:    4334           00006                           EXTEND
000113:    4335           77644                           MP       BIT12                                 #  EXP -3
000114:    4336           51106        ROOTBCK            INDEX    ROOTRET                               #  ROOTRET = Q - 1
000115:    4337           00001                           TC       1                                     #  RETURN, C(A) = SQRT(Y)
000116:
000117:    4340           56021        SPROOT1            XCH      SR                                    #  SR = X/2
000118:    4341           41105                           CS       HALFY                                 #  NEWTON ITER  X = X/2 + (Y/2 / X/2) / 2
000119:    4342           22007                           ZL
000120:    4343           00006                           EXTEND
000121:    4344           10021                           DV       SR                                    #  C(SR) = X/2 DV DOES NOT EDIT


000123:    4345           56021                           XCH      SR
000124:    4346           00006                           EXTEND
000125:    4347           60021                           SU       SR
000126:    4350           00002                           TC       Q                                     #  C(A) = X (NEXT)
000127:
000128:    4351           41106        SPROOT2            CS       ROOTRET                               #  SET RETURN Q NEG, AS FLAG
000129:    4352           55106                           TS       ROOTRET
000130:    4353           37651                           CAF      BIT7                                  #  SHIFT FOR SIGNIFCANCE
000131:    4354           00006                           EXTEND
000132:    4355           71107                           MP       SQRARG
000133:    4356           30001                           CA       L                                     #  B(A) = 0
000134:    4357           04311                           TC       SPROOT3
000135:
000136:    4360           73777        -1/8               OCTAL    73777
000137:    4361           24001        5/8+1              OCTAL    24001
000138:    4362           37401        63/64+1            OCTAL    37401
000139:
000140:
000141:
000142:    4363                        ENDSUBSF           EQUALS

End of include-file SINGLE_PRECISION_SUBROUTINES.agc.  Parent file is MAIN.agc


