
Source Code


000002:                                                                                                  #  Copyright:    Public domain.
000003:                                                                                                  #  Filename:     SUM_CHECK_END_OF_BANK_MARKERS.agc
000004:                                                                                                  #  Purpose:      Part of the source code for Aurora (revision 12).
000005:                                                                                                  #  Assembler:    yaYUL
000006:                                                                                                  #  Contact:      Ron Burkey <info@sandroid.org>.
000007:                                                                                                  #  Website:      https://www.ibiblio.org/apollo.
000008:                                                                                                  #  Pages:        0642-0643
000009:                                                                                                  #  Mod history:  2016-09-20 JL   Created.
000010:                                                                                                  #                2016-10-09 OH   Transcribed.
000011:                                                                                                  #                2016-10-16 HG   Fix operand ENDT45 -> ENDT4S
000012:
000013:                                                                                                  #  This source code has been transcribed or otherwise adapted from
000014:                                                                                                  #  digitized images of a hardcopy from the private collection of
000015:                                                                                                  #  Don Eyles.  The digitization was performed by archive.org.
000016:
000017:                                                                                                  #  Notations on the hardcopy document read, in part:
000018:
000019:                                                                                                  #        473423A YUL SYSTEM FOR BLK2: REVISION 12 of PROGRAM AURORA BY DAP GROUP
000020:                                                                                                  #        NOV 10, 1966
000021:
000022:                                                                                                  #        [Note that this is the date the hardcopy was made, not the
000023:                                                                                                  #        date of the program revision or the assembly.]
000024:
000025:                                                                                                  #  The scan images (with suitable reduction in storage size and consequent
000026:                                                                                                  #  reduction in image quality) are available online at
000027:                                                                                                  #        https://www.ibiblio.org/apollo.
000028:                                                                                                  #  The original high-quality digital images are available at archive.org:
000029:                                                                                                  #        https://archive.org/details/aurora00dapg
000030:


000032:
000033:    5512                                           SETLOC   ENDIMUF
000034:    5512           05512                           TC       -0
000035:    5513           05513                           TC       -0
000036:
000037:    7701                                           SETLOC   ENDINTF
000038:    7701           07701                           TC       -0
000039:    7702           07702                           TC       -0
000040:
000041: 00,3657                                           SETLOC   ENDINTS0
000042: 00,3657           03657                           TC       -0
000043: 00,3660           03660                           TC       -0
000044:
000045: 01,3145                                           SETLOC   ENDSLFS2
000046: 01,3145           03145                           TC       -0
000047: 01,3146           03146                           TC       -0
000048:
000049: 04,3540                                           SETLOC   ENDPINS1
000050: 04,3540           03540                           TC       -0
000051: 04,3541           03541                           TC       -0
000052:
000053: 05,3524                                           SETLOC   ENDPINS2
000054: 05,3524           03524                           TC       -0
000055: 05,3525           03525                           TC       -0
000056:
000057: 06,2555                                           BANK     06
000058: 06,2555           02555                           TC       -0
000059: 06,2556           02556                           TC       -0
000060:
000061: 07,2502                                           BANK     07
000062: 07,2502           02502                           TC       -0
000063: 07,2503           02503                           TC       -0
000064:
000065: 10,3341                                           SETLOC   ENDRTSTS
000066: 10,3341           03341                           TC       -0
000067: 10,3342           03342                           TC       -0
000068:
000069: 11,3361                                           SETLOC   ENDCMS
000070: 11,3361           03361                           TC       -0
000071: 11,3362           03362                           TC       -0
000072:
000073: 12,3767                                           SETLOC   ENDT4S
000074: 12,3767           03767                           TC       -0
000075: 12,3770           03770                           TC       -0
000076:
000077: 13,3434                                           SETLOC   ENDAMODS
000078: 13,3434           03434                           TC       -0
000079: 13,3435           03435                           TC       -0
000080:
000081: 14,3726                                           SETLOC   ENDIMUS1
000082: 14,3726           03726                           TC       -0


000084: 14,3727           03727                           TC       -0
000085:
000086: 15,3575                                           SETLOC   ENDRTBSS
000087: 15,3575           03575                           TC       -0
000088: 15,3576           03576                           TC       -0
000089:
000090: 16,3362                                           SETLOC   ENDIMUS3
000091: 16,3362           03362                           TC       -0
000092: 16,3363           03363                           TC       -0
000093:
000094: 17,3730                                           SETLOC   ENDIMUS2
000095: 17,3730           03730                           TC       -0
000096: 17,3731           03731                           TC       -0
000097:
000098: 20,3756                                           SETLOC   ENDSLFS1
000099: 20,3756           03756                           TC       -0
000100: 20,3757           03757                           TC       -0
000101:
000102: 21,3427                                           SETLOC   ENDPREL1
000103: 21,3427           03427                           TC       -0
000104: 21,3430           03430                           TC       -0
000105:
000106: 23,3411                                           SETLOC   ENDDAP23
000107: 23,3411           03411                           TC       -0
000108: 23,3412           03412                           TC       -0
000109:
000110: 24,3723                                           SETLOC   ENDDAP24
000111: 24,3723           03723                           TC       -0
000112: 24,3724           03724                           TC       -0
000113:
000114: 25,3663                                           SETLOC   ENDDAP25
000115: 25,3663           03663                           TC       -0
000116: 25,3664           03664                           TC       -0
000117:
000118: 26,3521                                           SETLOC   ENDDAP26
000119: 26,3521           03521                           TC       -0
000120: 26,3522           03522                           TC       -0
000121:
000122:
000123:

End of include-file SUM_CHECK_END_OF_BANK_MARKERS.agc.  Parent file is MAIN.agc


