
Source Code


000002:                                                                                                  ## Copyright:    Public domain.
000003:                                                                                                  ## Filename:     SUM_CHECK_END_OF_BANK_MARKERS.agc
000004:                                                                                                  ## Purpose:      Part of the source code for Aurora (revision 12).
000005:                                                                                                  ## Assembler:    yaYUL
000006:                                                                                                  ## Contact:      Ron Burkey <info@sandroid.org>.
000007:                                                                                                  ## Website:      https://www.ibiblio.org/apollo.
000008:                                                                                                  ## Pages:        0642-0643
000009:                                                                                                  ## Mod history:  2016-09-20 JL   Created.
000010:                                                                                                  ##               2016-10-09 OH   Transcribed.
000011:                                                                                                  ##               2016-10-16 HG   Fix operand ENDT45 -> ENDT4S
000012:                                                                                                  ##               2016-12-08 RSB  Proofed comments with octopus/ProoferComments
000013:                                                                                                  ##                               but no errors found.
000014:
000015:                                                                                                  ## This source code has been transcribed or otherwise adapted from
000016:                                                                                                  ## digitized images of a hardcopy from the private collection of
000017:                                                                                                  ## Don Eyles.  The digitization was performed by archive.org.
000018:
000019:                                                                                                  ## Notations on the hardcopy document read, in part:
000020:
000021:                                                                                                  ##       473423A YUL SYSTEM FOR BLK2: REVISION 12 of PROGRAM AURORA BY DAP GROUP
000022:                                                                                                  ##       NOV 10, 1966
000023:
000024:                                                                                                  ##       [Note that this is the date the hardcopy was made, not the
000025:                                                                                                  ##       date of the program revision or the assembly.]
000026:
000027:                                                                                                  ## The scan images (with suitable reduction in storage size and consequent
000028:                                                                                                  ## reduction in image quality) are available online at
000029:                                                                                                  ##       https://www.ibiblio.org/apollo.
000030:                                                                                                  ## The original high-quality digital images are available at archive.org:
000031:                                                                                                  ##       https://archive.org/details/aurora00dapg
000032:


000034:
000035:    5512                                           SETLOC   ENDIMUF
000036:    5512           05512                           TC       -0
000037:    5513           05513                           TC       -0
000038:
000039:    7701                                           SETLOC   ENDINTF
000040:    7701           07701                           TC       -0
000041:    7702           07702                           TC       -0
000042:
000043: 00,3657                                           SETLOC   ENDINTS0
000044: 00,3657           03657                           TC       -0
000045: 00,3660           03660                           TC       -0
000046:
000047: 01,3145                                           SETLOC   ENDSLFS2
000048: 01,3145           03145                           TC       -0
000049: 01,3146           03146                           TC       -0
000050:
000051: 04,3540                                           SETLOC   ENDPINS1
000052: 04,3540           03540                           TC       -0
000053: 04,3541           03541                           TC       -0
000054:
000055: 05,3524                                           SETLOC   ENDPINS2
000056: 05,3524           03524                           TC       -0
000057: 05,3525           03525                           TC       -0
000058:
000059: 06,2555                                           BANK     06
000060: 06,2555           02555                           TC       -0
000061: 06,2556           02556                           TC       -0
000062:
000063: 07,2502                                           BANK     07
000064: 07,2502           02502                           TC       -0
000065: 07,2503           02503                           TC       -0
000066:
000067: 10,3341                                           SETLOC   ENDRTSTS
000068: 10,3341           03341                           TC       -0
000069: 10,3342           03342                           TC       -0
000070:
000071: 11,3361                                           SETLOC   ENDCMS
000072: 11,3361           03361                           TC       -0
000073: 11,3362           03362                           TC       -0
000074:
000075: 12,3767                                           SETLOC   ENDT4S
000076: 12,3767           03767                           TC       -0
000077: 12,3770           03770                           TC       -0
000078:
000079: 13,3434                                           SETLOC   ENDAMODS
000080: 13,3434           03434                           TC       -0
000081: 13,3435           03435                           TC       -0
000082:
000083: 14,3726                                           SETLOC   ENDIMUS1
000084: 14,3726           03726                           TC       -0


000086: 14,3727           03727                           TC       -0
000087:
000088: 15,3575                                           SETLOC   ENDRTBSS
000089: 15,3575           03575                           TC       -0
000090: 15,3576           03576                           TC       -0
000091:
000092: 16,3362                                           SETLOC   ENDIMUS3
000093: 16,3362           03362                           TC       -0
000094: 16,3363           03363                           TC       -0
000095:
000096: 17,3730                                           SETLOC   ENDIMUS2
000097: 17,3730           03730                           TC       -0
000098: 17,3731           03731                           TC       -0
000099:
000100: 20,3756                                           SETLOC   ENDSLFS1
000101: 20,3756           03756                           TC       -0
000102: 20,3757           03757                           TC       -0
000103:
000104: 21,3427                                           SETLOC   ENDPREL1
000105: 21,3427           03427                           TC       -0
000106: 21,3430           03430                           TC       -0
000107:
000108: 23,3411                                           SETLOC   ENDDAP23
000109: 23,3411           03411                           TC       -0
000110: 23,3412           03412                           TC       -0
000111:
000112: 24,3723                                           SETLOC   ENDDAP24
000113: 24,3723           03723                           TC       -0
000114: 24,3724           03724                           TC       -0
000115:
000116: 25,3663                                           SETLOC   ENDDAP25
000117: 25,3663           03663                           TC       -0
000118: 25,3664           03664                           TC       -0
000119:
000120: 26,3521                                           SETLOC   ENDDAP26
000121: 26,3521           03521                           TC       -0
000122: 26,3522           03522                           TC       -0
000123:
000124:
000125:

End of include-file SUM_CHECK_END_OF_BANK_MARKERS.agc.  Parent file is MAIN.agc


