
Source Code


000002:                                                                                                  ## Copyright:    Public domain.
000003:                                                                                                  ## Filename:     T4RUPT_PROGRAM.agc
000004:                                                                                                  ## Purpose:      Part of the source code for Aurora (revision 12).
000005:                                                                                                  ## Assembler:    yaYUL
000006:                                                                                                  ## Contact:      Ron Burkey <info@sandroid.org>.
000007:                                                                                                  ## Website:      https://www.ibiblio.org/apollo.
000008:                                                                                                  ## Pages:        160-188
000009:                                                                                                  ## Mod history:  2016-09-20 JL   Created.
000010:                                                                                                  ##               2016-10-12 HG   fix operand  DSPRUPTSW -> DSRUPTSW
000011:                                                                                                  ##               2016-10-15 HG   fix operand  DSPRUPTEM -> DSRUPTEM
000012:                                                                                                  ##                                            SEDTISSW  -> SETISSW
000013:                                                                                                  ##                                            GLOCKKOK  -> GLOCKOK
000014:                                                                                                  ##                                            NCTFL33   -> NXTFL33
000015:                                                                                                  ##                                            BITS56&15 -> BITS6&15
000016:                                                                                                  ##                                            COSMSG    -> COSMG
000017:                                                                                                  ##                               fix label and operand
000018:                                                                                                  ##                                            NXTIBIT   -> NTXIBT
000019:                                                                                                  ##                                            GLOCKON   -> GLOCKOK
000020:                                                                                                  ##               2016-12-08 RSB  Proofed comments with octopus/ProoferComments
000021:                                                                                                  ##                               and fixed the errors found.
000022:
000023:                                                                                                  ## This source code has been transcribed or otherwise adapted from
000024:                                                                                                  ## digitized images of a hardcopy from the private collection of
000025:                                                                                                  ## Don Eyles.  The digitization was performed by archive.org.
000026:
000027:                                                                                                  ## Notations on the hardcopy document read, in part:
000028:
000029:                                                                                                  ##       473423A YUL SYSTEM FOR BLK2: REVISION 12 of PROGRAM AURORA BY DAP GROUP
000030:                                                                                                  ##       NOV 10, 1966
000031:
000032:                                                                                                  ##       [Note that this is the date the hardcopy was made, not the
000033:                                                                                                  ##       date of the program revision or the assembly.]
000034:
000035:                                                                                                  ## The scan images (with suitable reduction in storage size and consequent
000036:                                                                                                  ## reduction in image quality) are available online at
000037:                                                                                                  ##       https://www.ibiblio.org/apollo.
000038:                                                                                                  ## The original high-quality digital images are available at archive.org:
000039:                                                                                                  ##       https://archive.org/details/aurora00dapg
000040:


000042:    4713                                           SETLOC   ENDPHMNF
000043:    4713  E6,1404                                  EBANK=   M11
000044:    4713           00006        T4RUPT             EXTEND                                         #  ZERO OUT0 EVERY T4RUPT.
000045:    4714           01010                           WRITE    OUT0                                  #  (COMES HERE WITH +0 IN A)
000046:
000047:    4715           50347                           INDEX    T4LOC                                 #  NORMALLY TO NORMT4, BUT TO LMPRESET OR
000048:    4716           10000                           TCF      0                                     #  DSKYRSET AFTER OUT0 COMMAND.
000049:
000050:    4717           10350        NORMT4             CCS      DSRUPTSW                              #  GOES 7(-1)0.
000051:    4720           14722                           TCF      +2
000052:    4721           37663                           CAF      SEVEN
000053:    4722           54350                           TS       DSRUPTSW
000054:
000055:    4723           34023                           CAF      T4RPTBB                               #  OFF TO SWITCHED BANK
000056:    4724           56006                           XCH      BBANK
000057:    4725           12451                           TCF      T4RUPTA
000058:
000059:    4726           34735        LMPRESET           CAF      90MRUPT                               #  30 MS ON / 90 MS OFF.
000060:    4727           14731                           TCF      +2
000061:
000062:    4730           34736        DSKYRSET           CAF      100MRUPT                              #  20 MS ON / 100 MS OFF.
000063:    4731           54027                           TS       TIME4
000064:    4732           34737                           CAF      LNORMT4
000065:    4733           54347                           TS       T4LOC
000066:    4734           14612                           TCF      NOQBRSM
000067:
000068:    4735           37767        90MRUPT            DEC      16375      B-14
000069:    4736           37766        100MRUPT           DEC      16374      B-14
000070:    4737           04717        LNORMT4            ADRES    NORMT4
000071:    4740           74000        74K                OCT      74000
000072:
000073:                                                                                                  #  RELTAB IS A PACKED TABLE. RELAYWORD CODE IN UPPER 4 BITS, RELAY CODE
000074:                                                                                                  #  IN LOWER 5 BITS.
000075:
000076:    4741           04025        RELTAB             OCT      04025
000077:    4742           10003                           OCT      10003
000078:    4743           14031                           OCT      14031
000079:    4744           20033                           OCT      20033
000080:    4745           24017                           OCT      24017
000081:    4746           30036                           OCT      30036
000082:    4747           34034                           OCT      34034
000083:    4750           40023                           OCT      40023
000084:    4751           44035                           OCT      44035
000085:    4752           50037                           OCT      50037
000086:    4753           54000                           OCT      54000
000087:    4754           60000        RELTAB11           OCT      60000


000089:    4755                        ENDT4FF            EQUALS
000090:


000092:                                                                                                  #           SWITCHED-BANK PORTION.
000093:
000094: 12,2451                                           SETLOC   ENDFRESS
000095:
000096: 12,2451           54016        T4RUPTA            TS       BANKRUPT
000097: 12,2452           00006                           EXTEND
000098: 12,2453           22012                           QXCH     QRUPT
000099:
000100: 12,2454           10366        LMPOUT             CCS      LMPCMD                                #  SEE IF LMP COMMAND TO BE SENT. IF SO,
000101: 12,2455           12471                           TCF      CDRVE                                 #  BIT 15 = 1 AND (UP TO) BITS 1 - 11
000102: 12,2456           12471                           TCF      CDRVE                                 #  CONTAIN THE COMMAND.
000103:
000104: 12,2457           35234                           CAF      LOW11
000105: 12,2460           70366                           MASK     LMPCMD                                #  LEAVE COMMAND PORTION INTACT.
000106: 12,2461           54366                           TS       LMPCMD
000107: 12,2462           64740                           AD       74K
000108: 12,2463           00006                           EXTEND
000109: 12,2464           01010                           WRITE    OUT0
000110:
000111: 12,2465           32562                           CAF      LLMPRS
000112: 12,2466           54347                           TS       T4LOC
000113: 12,2467           32563                           CAF      30MRUPT
000114: 12,2470           12546                           TCF      SETTIME4
000115:
000116: 12,2471           10322        CDRVE              CCS      DSPTAB     +11D
000117: 12,2472           02501                           TC       DSPOUT
000118: 12,2473           02501                           TC       DSPOUT
000119:
000120: 12,2474           56322                           XCH      DSPTAB     +11D
000121: 12,2475           75234                           MASK     LOW11
000122: 12,2476           54322                           TS       DSPTAB     +11D
000123: 12,2477           64754                           AD       RELTAB11
000124: 12,2500           02541                           TC       DSPLAYC
000125:


000127:                                                                                                  #  DSPOUT PROGRAM. PUTS OUT DISPLAYS.
000128:
000129: 12,2501           10303        DSPOUT             CCS      NOUT                                  #  DRIVE DISPLAY SYSTEM RELAYS.
000130: 12,2502           12505                           TCF      +3
000131:
000132: 12,2503           32522        NODSPOUT           CAF      120MRUPT                              #  SET FOR RUPT IN 120 MS IF NO RELAYS.
000133: 12,2504           12546                           TCF      SETTIME4
000134:
000135: 12,2505           54303                           TS       NOUT
000136: 12,2506           47665                           CS       ZERO
000137: 12,2507           54077                           TS       DSRUPTEM                              #  SET TO -0 FOR 1ST PASS THRU DSPTAB
000138: 12,2510           56341                           XCH      DSPCNT
000139: 12,2511           67666                           AD       NEG0                                  #  TO PREVENT +0
000140: 12,2512           54341                           TS       DSPCNT
000141: 12,2513           50341        DSPSCAN            INDEX    DSPCNT
000142: 12,2514           10307                           CCS      DSPTAB
000143: 12,2515           10341                           CCS      DSPCNT                                #  IF DSPTAB ENTRY +, SKIP
000144: 12,2516           02511                           TC       DSPSCAN    -2                         #  IF DSPCNT +, AGAIN
000145: 12,2517           02530                           TC       DSPLAY                                #  IF DSPTAB ENTRY -, DISPLAY
000146: 12,2520           00012        TABLNTH            OCT      12                                    #  DEC 10   LENGTH OF DSPTAB
000147: 12,2521           10077                           CCS      DSRUPTEM                              #  IF DSRUPTEM=+0,2ND PASS THRU DSPTAB
000148: 12,2522           37764        120MRUPT           DEC      16372      B-14                       #  (DSPCNT = 0). +0 INTO NOUT.
000149: 12,2523           54303                           TS       NOUT
000150: 12,2524           12503                           TCF      NODSPOUT
000151: 12,2525           54077                           TS       DSRUPTEM                              #  IF DSRUPTEM=-0,1ST PASS THRU DSPTAB
000152: 12,2526           32520                           CAF      TABLNTH                               #  (DSPCNT=0). +0 INTO DSRUPTEM. PASS AGAIN
000153: 12,2527           02512                           TC       DSPSCAN    -1
000154:
000155: 12,2530           67657        DSPLAY             AD       ONE
000156: 12,2531           50341                           INDEX    DSPCNT
000157: 12,2532           54307                           TS       DSPTAB                                #  REPLACE POSITIVELY
000158: 12,2533           75234                           MASK     LOW11                                 #  REMOVE BITS 12 TO 15
000159: 12,2534           54077                           TS       DSRUPTEM
000160: 12,2535           35226                           CAF      HI5
000161: 12,2536           50341                           INDEX    DSPCNT
000162: 12,2537           74741                           MASK     RELTAB                                #  PICK UP BITS 12 TO 15 OF RELTAB ENTRY
000163: 12,2540           60077                           AD       DSRUPTEM
000164: 12,2541           00006        DSPLAYC            EXTEND
000165: 12,2542           01010                           WRITE    OUT0
000166:
000167: 12,2543           32561                           CAF      LDSKYRS
000168: 12,2544           54347                           TS       T4LOC
000169: 12,2545           32564                           CAF      20MRUPT
000170:
000171: 12,2546           54027        SETTIME4           TS       TIME4


000173:                                                                                                  #  JUMP TO APPROPRIATE ONCE-PER SECOND (.96 SEC ACTUALLY) ACTIVITY
000174:
000175: 12,2547           50350        T4JUMP             INDEX    DSRUPTSW
000176: 12,2550           12551                           TCF      +1
000177:
000178: 12,2551           02565                           TC       ALTOUT
000179:
000180: 12,2552           13440                           TCF      RRAUTCHK
000181: 12,2553           12720                           TCF      IMUMON
000182: 12,2554           13545                           TCF      GPMATRIX
000183: 12,2555           02632                           TC       ALTROUT
000184: 12,2556           13440                           TCF      RRAUTCHK
000185: 12,2557           12720                           TCF      IMUMON
000186: 12,2560           13545                           TCF      GPMATRIX
000187: 12,2561           04730        LDSKYRS            ADRES    DSKYRSET
000188: 12,2562           04726        LLMPRS             ADRES    LMPRESET
000189:
000190: 12,2563           37775        30MRUPT            DEC      16381      B-14
000191: 12,2564           37776        20MRUPT            DEC      16382      B-14


000193:                                                                                                  #  THIS ROUTINE SERVICES THE METER OUTPUTS.
000194:
000195:
000196:                                                                                                  #  DIDFLG INDICATES THE STATE OF THE PROGRAM..............
000197:                                                                                                  #  IF GREATER THAN ZERO, THEN UNABLE TO DISPLAY DATA
000198:                                                                                                  #  IF EQUAL TO ZERO, THEN THE PROGRAM IS IN USE
000199:                                                                                                  #  IF LESS THAN ZERO, THEN THE PROGRAM IS ABLE TO BE USED............
000200:
000201: 12,2565           02640        ALTOUT             TC       DISINDAT
000202: 12,2566           47656                           CS       BIT2
000203: 12,2567           00006                           EXTEND
000204: 12,2570           03014                           WAND     14                                    #  SET UP OUTPUT FOR ALTITUDE
000205: 12,2571           10352                           CCS      ALT                                   #  -1 IF OLD DATA TO BE EXTRAPOLATED.
000206: 12,2572           12576                           TCF      +4                                    #  NEW DATA.
000207: 12,2573           12576                           TCF      +3
000208: 12,2574           12602                           TCF      OLDDATA
000209:
000210: 12,2575           54352                           TS       ALT                                   #  CHANGE -0 IN ALT TO +0.
000211: 12,2576           47657                           CS       ONE                                   #  RESET ALTSAVE.
000212: 12,2577           52353                           DXCH     ALT
000213: 12,2600           52365        ZDATA2             DXCH     ALTSAVE
000214: 12,2601           12622                           TCF      NEWDATA
000215:
000216: 12,2602           30354        OLDDATA            CA       ALTRATE                               #  USE ALTRATE TO EXTRAPOLATE.
000217: 12,2603           00006                           EXTEND
000218: 12,2604           72715                           MP       ARTOA                                 #  RATE APPLIES FOR .96 SEC.
000219: 12,2605           60365                           AD       ALTSAVE    +1
000220: 12,2606           54365                           TS       ALTSAVE    +1                         #  AND MAYBE SKIP.
000221: 12,2607           37665                           CAF      ZERO
000222: 12,2610           26364                           ADS      ALTSAVE
000223:
000224: 12,2611           37637                           CAF      POSMAX                                #  FORCE SIGN AGREEMENT ASSUMING ALTSAVE IS
000225: 12,2612           67657                           AD       ONE                                   #  NOT NEGATIVE. IF IT IS, THE FINAL TS
000226: 12,2613           60365                           AD       ALTSAVE    +1                         #  WILL NOT SKIP AND WE CAN SET ALTSAVE TO
000227: 12,2614           54365                           TS       ALTSAVE    +1                         #  ZERO IN THAT CASE.
000228: 12,2615           37665                           CAF      ZERO
000229: 12,2616           67637                           AD       POSMAX
000230: 12,2617           60364                           AD       ALTSAVE
000231: 12,2620           54364                           TS       ALTSAVE
000232: 12,2621           12712                           TCF      ZERODATA                              #  ALTSAVE NEGATIVE - SET TO ZERO.
000233:
000234: 12,2622           10364        NEWDATA            CCS      ALTSAVE                               #  MAKE UP 15 BIT UNSIGNED OUTPUT.
000235: 12,2623           37641                           CAF      BIT15                                 #  MAJOR PART +1 OR +0.
000236: 12,2624           60365                           AD       ALTSAVE    +1
000237: 12,2625           54060        METEROUT           TS       ALTM
000238: 12,2626           32716                           CAF      BITSET
000239: 12,2627           00006                           EXTEND
000240: 12,2630           05014                           WOR      14
000241: 12,2631           12711                           TCF      DONEDID


000243: 12,2632           02640        ALTROUT            TC       DISINDAT
000244: 12,2633           37656                           CAF      BIT2
000245: 12,2634           00006                           EXTEND
000246: 12,2635           05014                           WOR      14                                    #  SET UP OUTPUT FOR ALT. RATE
000247: 12,2636           30354                           CA       ALTRATE
000248: 12,2637           12625                           TCF      METEROUT
000249:
000250: 12,2640           10351        DISINDAT           CCS      DIDFLG
000251: 12,2641           12711                           TCF      DONEDID
000252: 12,2642           12643                           NOOP
000253: 12,2643           37652                           CAF      BIT6
000254: 12,2644           00006                           EXTEND
000255: 12,2645           02030                           RAND     30                                    #  CHECK DISPLAY INERTIAL DATA BIT
000256: 12,2646           10000                           CCS      A
000257: 12,2647           12706                           TCF      ALLDONE
000258: 12,2650           10351                           CCS      DIDFLG
000259: 12,2651           12652                           NOOP
000260: 12,2652           12673                           TCF      GOAGN
000261:
000262: 12,2653           37650        FIRSTIME           CAF      BIT8
000263: 12,2654           00006                           EXTEND
000264: 12,2655           05012                           WOR      12                                    #  ENABLE DISPLAY INERTIAL DATA
000265: 12,2656           37665                           CAF      ZERO
000266: 12,2657           54351                           TS       DIDFLG
000267: 12,2660           54363                           TS       LASTXCMD
000268: 12,2661           54362                           TS       LASTYCMD
000269: 12,2662           36162                           CAF      SIX
000270: 12,2663           04536                           TC       WAITLIST
000271: 12,2664           02667 24006                     2CADR    INTLZE
000272:
000273: 12,2666           02711                           TC       DONEDID
000274:
000275: 12,2667           37656        INTLZE             CAF      BIT2
000276: 12,2670           00006                           EXTEND
000277: 12,2671           05012                           WOR      12                                    #  ENABLE RR ERROR COUNTER
000278: 12,2672           04602                           TC       TASKOVER
000279:
000280: 12,2673           40363        GOAGN              CS       LASTXCMD
000281: 12,2674           60360                           AD       FORVEL
000282: 12,2675           54054                           TS       OPTXCMD
000283: 12,2676           30360                           CA       FORVEL
000284: 12,2677           54363                           TS       LASTXCMD
000285: 12,2700           40362                           CS       LASTYCMD
000286: 12,2701           60361                           AD       LATVEL
000287: 12,2702           54053                           TS       OPTYCMD
000288: 12,2703           30361                           CA       LATVEL
000289: 12,2704           54362                           TS       LASTYCMD
000290: 12,2705           00002                           TC       Q
000291:
000292: 12,2706           42717        ALLDONE            CS       DIDRESET                              #  REMOVE DISPLAY INERTIAL DATA AND ECTR.


000294: 12,2707           00006                           EXTEND
000295: 12,2710           03012                           WAND     12                                    #  RESET RR ERROR COUNTER
000296: 12,2711           13752        DONEDID            TCF      RCSMONIT
000297: 12,2712           37665        ZERODATA           CAF      ZERO
000298: 12,2713           54001                           TS       L
000299: 12,2714           12600                           TCF      ZDATA2
000300:
000301: 12,2715           06432        ARTOA              DEC      .20469                                #  ALT DUE TO ALTRATE FOR .96 SEC.
000302: 12,2716           06004        BITSET             OCT      6004
000303:
000304: 12,2717           00202        DIDRESET           OCT      202


000306:                                                                                                  #  IMU INBIT MONITOR - ENTERED EVERY 480 MS BY T4RUPT.
000307:
000308: 12,2720           30367        IMUMON             CA       IMODES30                              #  SEE IF THERE HAS BEEN A CHANGE IN THE
000309: 12,2721           00006                           EXTEND                                         #  RELEVENT BITS OF CHAN 30.
000310: 12,2722           06030                           RXOR     30
000311: 12,2723           73412                           MASK     30RDMSK
000312: 12,2724           00006                           EXTEND
000313: 12,2725           12755                           BZF      TNONTEST                              #  NO CHANGE IN STATUS.
000314:
000315: 12,2726           54074                           TS       RUPTREG1                              #  SAVE BITS WHICH HAVE CHANGED.
000316: 12,2727           22367                           LXCH     IMODES30                              #  UPDATE IMODES30.
000317: 12,2730           00006                           EXTEND
000318: 12,2731           06001                           RXOR     L
000319: 12,2732           54367                           TS       IMODES30
000320:
000321: 12,2733           47657                           CS       ONE
000322: 12,2734           56074                           XCH      RUPTREG1
000323: 12,2735           00006                           EXTEND
000324: 12,2736           63205                           BZMF     TLIM                                  #  CHANGE IN IMU TEMP.
000325: 12,2737           12741                           TCF      NXTIFBIT                              #  BEGIN BIT SCAN.
000326:
000327: 12,2740           67657                 -1        AD       ONE                                   #  (RE-ENTERS HERE FROM NXTIFAIL.)
000328: 12,2741           24074        NXTIFBIT           INCR     RUPTREG1                              #  ADVANCE BIT POSITION NUMBER.
000329: 12,2742           60000                 +1        DOUBLE
000330: 12,2743           54000                           TS       A                                     #  SKIP IF OVERFLOW.
000331: 12,2744           12741                           TCF      NXTIFBIT                              #  LOOK FOR BIT.
000332:
000333: 12,2745           56075                           XCH      RUPTREG2                              #  SAVE OVERFLOW-CORRECTED DATA.
000334: 12,2746           50074                           INDEX    RUPTREG1                              #  SELECT NEW VALUE OF THIS BIT.
000335: 12,2747           37642                           CAF      BIT14
000336: 12,2750           70367                           MASK     IMODES30
000337: 12,2751           50074                           INDEX    RUPTREG1
000338: 12,2752           03406                           TC       IFAILJMP
000339:
000340: 12,2753           10075        NXTIFAIL           CCS      RUPTREG2                              #  PROCESS ANY ADDITIONAL CHANGES.
000341: 12,2754           12740                           TCF      NXTIFBIT   -1
000342:
000343: 12,2755           40367        TNONTEST           CS       IMODES30                              #  AFTER PROCESSING ALL CHANGES, SEE IF IT
000344: 12,2756           77651                           MASK     BIT7                                  #  IS TIME TO ACT ON A TURN-ON SEQUENCE.
000345: 12,2757           10000                           CCS      A
000346: 12,2760           13103                           TCF      C33TEST                               #  NO - EXAMINE CHANNEL 33.
000347:
000348: 12,2761           37650                           CAF      BIT8                                  #  SEE IF FIRST SAMPLE OR SECOND.
000349: 12,2762           70367                           MASK     IMODES30
000350: 12,2763           10000                           CCS      A
000351: 12,2764           12770                           TCF      PROCTNON                              #  REACT AFTER SECOND SAMPLE.
000352:
000353: 12,2765           37650                           CAF      BIT8                                  #  IF FIRST SAMPLE, SET BIT TO REACT NEXT
000354: 12,2766           26367                           ADS      IMODES30                              #  TIME.
000355: 12,2767           13103                           TCF      C33TEST


000357:                                                                                                  #  PROCESS IMU TURN-ON REQUESTS AFTER WAITING 1 SAMPLE FOR ALL SIGNALS TO ARRIVE.
000358:
000359: 12,2770           43430        PROCTNON           CS       BITS7&8
000360: 12,2771           70367                           MASK     IMODES30
000361: 12,2772           54367                           TS       IMODES30
000362: 12,2773           77642                           MASK     BIT14                                 #  SEE IF TURN-ON REQUEST.
000363: 12,2774           10000                           CCS      A
000364: 12,2775           13066                           TCF      OPONLY                                #  OPERATE ON ONLY.
000365:
000366: 12,2776           40367                           CS       IMODES30                              #  IF TURN-ON REQUEST, WE SHOULD HAVE IMU
000367: 12,2777           77647                           MASK     BIT9                                  #  OPERATE.
000368: 12,3000           10000                           CCS      A
000369: 12,3001           13004                           TCF      +3
000370:
000371: 12,3002           05413                           TC       ALARM                                 #  ALARM IF NOT.
000372: 12,3003           00213                           OCT      213
000373:
000374: 12,3004           03373                 +3        TC       CAGESUB
000375: 12,3005           33436                           CAF      90SECS
000376: 12,3006           04536                           TC       WAITLIST
000377: 12,3007           03014 24006                     2CADR    ENDTNON
000378: 12,3011           13103                           TCF      C33TEST
000379:
000380: 12,3012           33436        RETNON             CAF      90SECS
000381: 12,3013           04557                           TC       VARDELAY
000382:
000383: 12,3014           47656        ENDTNON            CS       BIT2                                  #  RESET TURN-ON REQUEST FAIL BIT.
000384: 12,3015           70367                           MASK     IMODES30
000385: 12,3016           56367                           XCH      IMODES30
000386: 12,3017           77656                           MASK     BIT2                                  #  IF IT WAS OFF, SEND ISS DELAY COMPLETE.
000387: 12,3020           00006                           EXTEND
000388: 12,3021           13034                           BZF      ENDTNON2
000389:
000390: 12,3022           37642                           CAF      BIT14                                 #  IF IT WAS ON AND TURN-ON REQUEST NOW
000391: 12,3023           70367                           MASK     IMODES30                              #  PRESENT, RE-ENTER 90 SEC DELAY IN WL.
000392: 12,3024           00006                           EXTEND
000393: 12,3025           13012                           BZF      RETNON
000394:
000395: 12,3026           40061                           CS       STATE                                 #  IF IT IS NOT ON NOW, SEE IF A PROG WAS
000396: 12,3027           77650                           MASK     IMUSEFLG                              #  WAITING.
000397: 12,3030           10000                           CCS      A
000398: 12,3031           14602                           TCF      TASKOVER
000399: 12,3032           04102                           TC       POSTJUMP
000400: 12,3033           26641                           CADR     IMUBAD                                #  UNSUCCESSFUL TURN-ON.
000401:
000402: 12,3034           37641        ENDTNON2           CAF      BIT15                                 #  SEND ISS DELAY COMPLETE.
000403: 12,3035           00006                           EXTEND
000404: 12,3036           05012                           WOR      12


000406: 12,3037           04755        UNZ2               TC       ZEROICDU
000407:
000408: 12,3040           43425                           CS       BITS4&5                               #  REMOVE ZERO AND COARSE.
000409: 12,3041           00006                           EXTEND
000410: 12,3042           03012                           WAND     12
000411:
000412: 12,3043           34762                           CAF      3SECS                                 #  ALLOW 3 SECS FOR COUNTER TO FIND GIMBAL.
000413: 12,3044           04557                           TC       VARDELAY
000414:
000415: 12,3045           43426        ISSUP              CS       OCT54                                 #  REMOVE CAGING, IMU FAIL INHIBIT, AND
000416: 12,3046           70367                           MASK     IMODES30                              #  ICDUFAIL INHIBIT FLAGS.
000417: 12,3047           54367                           TS       IMODES30
000418:
000419: 12,3050           03344                           TC       SETISSW                               #  ISS WARNING MIGHT HAVE BEEN INHIBITED.
000420:
000421: 12,3051           47641                           CS       BIT15                                 #  REMOVE IMU DELAY COMPLETE DISCRETE.
000422: 12,3052           00006                           EXTEND
000423: 12,3053           03012                           WAND     12
000424:
000425: 12,3054           37645                           CAF      BIT11                                 #  DONT ENABLE PROG ALARM ON PIP FAIL FOR
000426: 12,3055           04536                           TC       WAITLIST                              #  ANOTHER 10 SECS.
000427: 12,3056           02262 26006                     2CADR    PFAILOK
000428: 12,3060           40061                           CS       STATE                                 #  SEE IF ANYONE IS WAITING FOR THE IMU AT
000429: 12,3061           77650                           MASK     IMUSEFLG                              #  IMUZERO. IF SO, WAKE THEM UP.
000430: 12,3062           10000                           CCS      A
000431: 12,3063           14602                           TCF      TASKOVER
000432:
000433: 12,3064           04102                           TC       POSTJUMP
000434: 12,3065           26633                           CADR     ENDIMU
000435:
000436: 12,3066           37650        OPONLY             CAF      IMUSEFLG                              #  IF OPERATE ON ONLY, ZERO THE COUNTERS
000437: 12,3067           70061                           MASK     STATE                                 #  UNLESS SOMEONE IS USING THE IMU.
000438: 12,3070           10000                           CCS      A
000439: 12,3071           13103                           TCF      C33TEST
000440:
000441: 12,3072           03401                           TC       CAGESUB2                              #  SET TURNON FLAGS.
000442:
000443: 12,3073           37653                           CAF      BIT5
000444: 12,3074           00006                           EXTEND
000445: 12,3075           05012                           WOR      12
000446:
000447: 12,3076           37652                           CAF      BIT6                                  #  WAIT 300 MS FOR AGS TO RECEIVE SIGNAL.
000448: 12,3077           04536                           TC       WAITLIST
000449: 12,3100           03037 24006                     2CADR    UNZ2
000450: 12,3102           13103                           TCF      C33TEST


000452:                                                                                                  #  MONITOR CHANNEL 33 FLIP-FLOP INPUTS.
000453:
000454: 12,3103           30370        C33TEST            CA       IMODES33                              #  SEE IF RELEVENT CHAN33 BITS HAVE
000455: 12,3104           74515                           MASK     33RDMSK
000456: 12,3105           54001                           TS       L                                     #  CHANGED.
000457: 12,3106           34515                           CAF      33RDMSK
000458: 12,3107           00006                           EXTEND
000459: 12,3110           03033                           WAND     33                                    #  RESETS FLIP-FLOP INPUTS.
000460: 12,3111           00006                           EXTEND
000461: 12,3112           06001                           RXOR     L
000462: 12,3113           00006                           EXTEND
000463: 12,3114           13143                           BZF      GLOCKMON                              #  ON NO CHANGE.
000464:
000465: 12,3115           54074                           TS       RUPTREG1                              #  SAVE BITS WHICH HAVE CHANGED.
000466: 12,3116           22370                           LXCH     IMODES33
000467: 12,3117           00006                           EXTEND
000468: 12,3120           06001                           RXOR     L
000469: 12,3121           54370                           TS       IMODES33                              #  UPDATED IMODES33.
000470:
000471: 12,3122           37665                           CAF      ZERO
000472: 12,3123           56074                           XCH      RUPTREG1
000473: 12,3124           60000                           DOUBLE
000474: 12,3125           13130                           TCF      NXTIBT     +1                         #  SCAN FOR BIT CHANGES.
000475:
000476: 12,3126           67657                 -1        AD       ONE
000477: 12,3127           24074        NXTIBT             INCR     RUPTREG1
000478: 12,3130           60000                 +1        DOUBLE
000479: 12,3131           54000                           TS       A                                     #  (CODING IDENTICAL TO CHAN 30).
000480: 12,3132           13127                           TCF      NXTIBT
000481:
000482: 12,3133           56075                           XCH      RUPTREG2
000483: 12,3134           50074                           INDEX    RUPTREG1                              #  GET NEW VALUE OF BIT WHICH CHANGED.
000484: 12,3135           37643                           CAF      BIT13
000485: 12,3136           70370                           MASK     IMODES33
000486: 12,3137           50074                           INDEX    RUPTREG1
000487: 12,3140           03414                           TC       C33JMP
000488:
000489: 12,3141           10075        NXTFL33            CCS      RUPTREG2                              #  PROCESS POSSIBLE ADDITIONAL CHANGES.
000490: 12,3142           13126                           TCF      NXTIBT     -1


000492:                                                                                                  #  MONITOR FOR GIMBAL LOCK.
000493:
000494: 12,3143           10034        GLOCKMON           CCS      CDUZ
000495: 12,3144           13150                           TCF      GLOCKCHK                              #  SEE IF MAGNITUDE OF MGA IS GREATER THAN
000496: 12,3145           13156                           TCF      SETGLOCK                              #  70 DEGREES.
000497: 12,3146           13150                           TCF      GLOCKCHK
000498: 12,3147           13156                           TCF      SETGLOCK
000499:
000500: 12,3150           63203        GLOCKCHK           AD       -70DEGS
000501: 12,3151           00006                           EXTEND
000502: 12,3152           63155                           BZMF     SETGLOCK   -1                         #  NO LOCK.
000503:
000504: 12,3153           37652                           CAF      BIT6                                  #  GIMAL LOCK.
000505: 12,3154           13156                           TCF      SETGLOCK
000506:
000507: 12,3155           37665                 -1        CAF      ZERO
000508: 12,3156           60322        SETGLOCK           AD       DSPTAB     +11D                       #  SEE IF PRESENT STATE OF GIMBAL LOCK LAMP
000509: 12,3157           77652                           MASK     BIT6                                  #  AGREES WITH DESIRED STATE BY HALF ADDING
000510: 12,3160           00006                           EXTEND                                         #  THE TWO.
000511: 12,3161           13752                           BZF      GLOCKOK                               #  OK AS IS.
000512:
000513: 12,3162           70322                           MASK     DSPTAB     +11D                       #  IF OFF, DONT TURN ON IF IMU BEING CAGED.
000514: 12,3163           10000                           CCS      A
000515: 12,3164           13200                           TCF      GLAMPTST                              #  TURN OFF UNLESS LAMP TEST IN PROGRESS.
000516:
000517: 12,3165           37652                           CAF      BIT6
000518: 12,3166           70367                           MASK     IMODES30
000519: 12,3167           10000                           CCS      A
000520: 12,3170           13752                           TCF      GLOCKOK
000521:
000522: 12,3171           40322        GLINVERT           CS       DSPTAB     +11D                       #  INVERT GIMBAL LOCK LAMP.
000523: 12,3172           77652                           MASK     BIT6
000524: 12,3173           67641                           AD       BIT15                                 #  TO INDICATE CHANGE IN DSPTAB +11D.
000525: 12,3174           56322                           XCH      DSPTAB     +11D
000526: 12,3175           73204                           MASK     OCT37737
000527: 12,3176           26322                           ADS      DSPTAB     +11D
000528: 12,3177           13752                           TCF      GLOCKOK
000529:
000530: 12,3200           03417        GLAMPTST           TC       LAMPTEST                              #  TURN OFF UNLESS LAMP TEST IN PROGRESS.
000531: 12,3201           13752                           TCF      GLOCKOK
000532: 12,3202           13171                           TCF      GLINVERT
000533:
000534: 12,3203           63434        -70DEGS            DEC      -.38888                               #  -70 DEGREES SCALED IN HALF-REVOLUTIONS.
000535: 12,3204           37737        OCT37737           OCT      37737


000537:                                                                                                  #  SUBROUTINES TO PROCESS INBIT CHANGES. NEW VALUE OF BIT ARRIVES IN A, EXCEPT FOR TLIM.
000538:
000539: 12,3205           77637        TLIM               MASK     POSMAX                                #  REMOVE BIT FROM WORD OF CHANGES AND SET
000540: 12,3206           54075                           TS       RUPTREG2                              #  DSKY TEMP LAMP ACCORDINGLY.
000541:
000542: 12,3207           10367                           CCS      IMODES30
000543: 12,3210           13216                           TCF      TEMPOK
000544: 12,3211           13216                           TCF      TEMPOK
000545:
000546: 12,3212           37654                           CAF      BIT4                                  #  TURN ON LAMP.
000547: 12,3213           00006                           EXTEND
000548: 12,3214           05011                           WOR      11
000549: 12,3215           12753                           TCF      NXTIFAIL
000550:
000551: 12,3216           03417        TEMPOK             TC       LAMPTEST                              #  IF TEMP NOW OK, DONT TURN OFF LAMP IF
000552: 12,3217           12753                           TCF      NXTIFAIL                              #  LAMP TEST IN PROGRESS.
000553:
000554: 12,3220           47654                           CS       BIT4
000555: 12,3221           00006                           EXTEND
000556: 12,3222           03011                           WAND     11
000557: 12,3223           12753                           TCF      NXTIFAIL
000558:
000559: 12,3224           37656        ITURNON            CAF      BIT2                                  #  IF DELAY REQUEST HAS GONE OFF
000560: 12,3225           70367                           MASK     IMODES30                              #  PREMATURELY, DO NOT PROCESS ANY CHANGES
000561: 12,3226           10000                           CCS      A                                     #  UNTIL THE CURRENT 90 SEC WAIT EXPIRES.
000562: 12,3227           12753                           TCF      NXTIFAIL
000563:
000564: 12,3230           37642                           CAF      BIT14                                 #  SEE IF JUST ON OR OFF.
000565: 12,3231           70367                           MASK     IMODES30
000566: 12,3232           00006                           EXTEND
000567: 12,3233           13247                           BZF      ITURNON2                              #  IF JUST ON.
000568:
000569: 12,3234           37641                           CAF      BIT15
000570: 12,3235           00006                           EXTEND                                         #  SEE IF DELAY PRESENT DISCRETE HAS BEEN
000571: 12,3236           02012                           RAND     12                                    #  SENT. IF SO, ACTION COMPLETE.
000572: 12,3237           00006                           EXTEND
000573: 12,3240           13242                           BZF      +2
000574: 12,3241           12753                           TCF      NXTIFAIL
000575:
000576: 12,3242           37656                           CAF      BIT2                                  #  IF NOT, SET BIT TO INDICATE REQUEST NOT
000577: 12,3243           26367                           ADS      IMODES30                              #  PRESENT FOR FULL DURATION.
000578: 12,3244           05413                           TC       ALARM
000579: 12,3245           00207                           OCTAL    207
000580: 12,3246           12753                           TCF      NXTIFAIL
000581:
000582: 12,3247           47651        ITURNON2           CS       BIT7                                  #  SET BIT 7 TO INITIATE WAIT OF 1 SAMPLE.
000583: 12,3250           70367                           MASK     IMODES30
000584: 12,3251           67651                           AD       BIT7
000585: 12,3252           54367                           TS       IMODES30
000586: 12,3253           12753                           TCF      NXTIFAIL


000588: 12,3254           10000        IMUCAGE            CCS      A                                     #  NO ACTION IF GOING OFF.
000589: 12,3255           12753                           TCF      NXTIFAIL
000590:
000591: 12,3256           43433                           CS       OCT71000                              #  TERMINATE ICDU AND GYRO PULSE TRAINS.
000592: 12,3257           00006                           EXTEND
000593: 12,3260           03014                           WAND     14
000594:
000595: 12,3261           03373                           TC       CAGESUB
000596:
000597: 12,3262           37665                           CAF      ZERO                                  #  ZERO COMMAND OUT-COUNTERS.
000598: 12,3263           54050                           TS       CDUXCMD
000599: 12,3264           54051                           TS       CDUYCMD
000600: 12,3265           54052                           TS       CDUZCMD
000601: 12,3266           54047                           TS       GYROCMD
000602:
000603: 12,3267           43432                           CS       OCT1700                               #  HAVING WAITED AT LEAST 27 MCT FROM
000604: 12,3270           00006                           EXTEND                                         #  GYRO PULSE TRAIN TERMINATION, WE CAN
000605: 12,3271           03014                           WAND     14                                    #  DE-SELECT THE GYROS.
000606:
000607: 12,3272           12753                           TCF      NXTIFAIL
000608:
000609: 12,3273           00006        IMUOP              EXTEND
000610: 12,3274           13304                           BZF      IMUOP2
000611:
000612: 12,3275           40061                           CS       STATE                                 #  IF GOING OFF, ALARM IF PROG USING IMU.
000613: 12,3276           77650                           MASK     IMUSEFLG
000614: 12,3277           10000                           CCS      A
000615: 12,3300           12753                           TCF      NXTIFAIL
000616:
000617: 12,3301           05413                           TC       ALARM
000618: 12,3302           00214                           OCT      214
000619: 12,3303           12753                           TCF      NXTIFAIL
000620:
000621: 12,3304           37656        IMUOP2             CAF      BIT2                                  #  SEE IF FAILED ISS TURN-ON SEQ IN PROG.
000622: 12,3305           70367                           MASK     IMODES30
000623: 12,3306           10000                           CCS      A
000624: 12,3307           12753                           TCF      NXTIFAIL                              #  IF SO, DONT PROCESS UNTIL PRESENT 90
000625: 12,3310           13247                           TCF      ITURNON2                              #  SECONDS EXPIRES.
000626:
000627: 12,3311           10000        PIPFAIL            CCS      A                                     #  SET BIT10 IN IMODES30 SO ALL ISS WARNING
000628: 12,3312           37646                           CAF      BIT10                                 #  INFO IS IN ONE REGISTER.
000629: 12,3313           56367                           XCH      IMODES30
000630: 12,3314           73435                           MASK     -BIT10
000631: 12,3315           26367                           ADS      IMODES30
000632:
000633: 12,3316           03344                           TC       SETISSW
000634:
000635: 12,3317           40367                           CS       IMODES30                              #  IF PIP FAIL DOESNT LIGHT ISS WARNING, DO
000636: 12,3320           77657                           MASK     BIT1                                  #  A PROGRAM ALARM IF IMU OPERATING BUT NOT
000637: 12,3321           10000                           CCS      A                                     #  CAGED OR BEING TURNED ON.


000639: 12,3322           13141                           TCF      NXTFL33
000640:
000641: 12,3323           30367                           CA       IMODES30
000642: 12,3324           73431                           MASK     OCT1720
000643: 12,3325           10000                           CCS      A
000644: 12,3326           13141                           TCF      NXTFL33                               #  ABOVE CONDITION NOT MET.
000645:
000646: 12,3327           05413                           TC       ALARM
000647: 12,3330           00212                           OCT      212
000648: 12,3331           13141                           TCF      NXTFL33
000649:
000650: 12,3332           10000        DNTMFAST           CCS      A                                     #  DO PROG ALARM IF TM TOO FAST.
000651: 12,3333           13141                           TCF      NXTFL33
000652:
000653: 12,3334           05413                           TC       ALARM
000654: 12,3335           01105                           OCT      1105
000655: 12,3336           13141                           TCF      NXTFL33
000656:
000657: 12,3337           10000        UPTMFAST           CCS      A                                     #  SAME AS DNLINK TOO FAST WITH DIFFERENT
000658: 12,3340           13141                           TCF      NXTFL33                               #  ALARM CODE.
000659:
000660: 12,3341           05413                           TC       ALARM
000661: 12,3342           01106                           OCT      1106
000662: 12,3343           13141                           TCF      NXTFL33


000664:                                                                                                  #  CLOSED SUBROUTINES FOR IMU MONITORING.
000665: 12,3344           33424        SETISSW            CAF      OCT15                                 #  SET ISS WARNING USING THE FAIL BITS IN
000666: 12,3345           70367                           MASK     IMODES30                              #  BITS 13, 12, AND 10 OF IMODES30 AND THE
000667: 12,3346           00006                           EXTEND                                         #  FAILURE INHIBIT BITS IN POSITIONS
000668: 12,3347           77646                           MP       BIT10                                 #  4, 3, AND 1.
000669: 12,3350           30367                           CA       IMODES30
000670: 12,3351           00006                           EXTEND
000671: 12,3352           04001                           ROR      L                                     #  0 INDICATES FAILURE.
000672: 12,3353           40000                           COM
000673: 12,3354           74514                           MASK     OCT15000
000674: 12,3355           10000                           CCS      A
000675: 12,3356           13367                           TCF      ISSWON                                #  FAILURE.
000676:
000677: 12,3357           37657        ISSWOFF            CAF      BIT1                                  #  DONT TURN OFF ISS WARNING IF LAMP TEST
000678: 12,3360           70370                           MASK     IMODES33                              #  IN PROGRESS.
000679: 12,3361           10000                           CCS      A
000680: 12,3362           00002                           TC       Q
000681:
000682: 12,3363           47657                           CS       BIT1
000683: 12,3364           00006                           EXTEND
000684: 12,3365           03011                           WAND     11
000685: 12,3366           00002                           TC       Q
000686:
000687: 12,3367           37657        ISSWON             CAF      BIT1
000688: 12,3370           00006                           EXTEND
000689: 12,3371           05011                           WOR      11
000690: 12,3372           00002                           TC       Q
000691:
000692: 12,3373           43434        CAGESUB            CS       BITS6&15                              #  SET OUTBITS AND INTERNAL FLAGS FOR
000693: 12,3374           00006                           EXTEND                                         #  SYSTEM TURN-ON OR CAGE. DISABLE THE
000694: 12,3375           03012                           WAND     12                                    #  ERROR COUNTER AND REMOVE IMU DELAY COMP.
000695: 12,3376           33425                           CAF      BITS4&5                               #  SEND ZERO AND COARSE.
000696: 12,3377           00006                           EXTEND
000697: 12,3400           05012                           WOR      12
000698:
000699: 12,3401           43427        CAGESUB2           CS       OCT75                                 #  SET FLAGS TO INDICATE CAGING OR TURN-ON,
000700: 12,3402           70367                           MASK     IMODES30                              #  AND TO INHIBIT ALL ISS WARNING INFO.
000701: 12,3403           63427                           AD       OCT75
000702: 12,3404           54367                           TS       IMODES30
000703:
000704: 12,3405           00002                           TC       Q
000705:
000706: 12,3406  12,3344               IMUFAIL            EQUALS   SETISSW
000707: 12,3406  12,3344               ICDUFAIL           EQUALS   SETISSW


000709:                                                                                                  #  JUMP TABLES AND CONSTANTS.
000710: 12,3406           13224        IFAILJMP           TCF      ITURNON                               #  CHANNEL 30 DISPATCH.
000711: 12,3407           13344                           TCF      IMUFAIL
000712: 12,3410           13344                           TCF      ICDUFAIL
000713: 12,3411           13254                           TCF      IMUCAGE
000714: 12,3412           76400        30RDMSK            OCT      76400                                 #  (BIT 10 NOT SAMPLED HERE).
000715: 12,3413           13273                           TCF      IMUOP
000716:
000717: 12,3414           13311        C33JMP             TCF      PIPFAIL                               #  CHANNEL 33 DISPATCH.
000718: 12,3415           13332                           TCF      DNTMFAST
000719: 12,3416           13337                           TCF      UPTMFAST
000720:
000721:                                                                                                  #  SUBROUTINE TO SKIP IF LAMP TEST NOT IN PROGRESS.
000722: 12,3417           40370        LAMPTEST           CS       IMODES33                              #  BIT1 OF IMODES33 = 1 IF LAMP TEST IN
000723: 12,3420           77657                           MASK     BIT1                                  #  PROGRESS.
000724: 12,3421           10000                           CCS      A
000725: 12,3422           24002                           INCR     Q
000726: 12,3423           00002                           TC       Q
000727:
000728: 12,3424     4515               33RDMSK            EQUALS   PRIO16
000729: 12,3424           00015        OCT15              OCT      15
000730: 12,3425           00030        BITS4&5            OCT      30
000731: 12,3426           00054        OCT54              OCT      54
000732: 12,3427           00075        OCT75              OCT      75
000733: 12,3430           00300        BITS7&8            OCT      300
000734: 12,3431           01720        OCT1720            OCT      1720
000735: 12,3432           01700        OCT1700            OCT      1700
000736: 12,3433     4514               OCT15000           EQUALS   PRIO15
000737: 12,3433           71000        OCT71000           OCT      71000
000738: 12,3434           40040        BITS6&15           OCT      40040
000739: 12,3435           76777        -BIT10             OCT      -1000
000740:
000741: 12,3436           21450        90SECS             DEC      9000       B-14
000742: 12,3437           00014        120MS              DEC      12         B-14
000743:
000744: 12,3440  12,3752               GLOCKOK            EQUALS   RCSMONIT
000745: 12,3440  12,3752               NOIMUMON           EQUALS   GLOCKOK


000747:                                                                                                  #  RR INBIT MONITOR.
000748: 12,3440           30413        RRAUTCHK           CA       RADMODES                              #  SEE IF CHANGE IN RR AUTO MODE BIT.
000749: 12,3441           00006                           EXTEND
000750: 12,3442           06033                           RXOR     33
000751: 12,3443           77656                           MASK     BIT2
000752: 12,3444           00006                           EXTEND
000753: 12,3445           13501                           BZF      RRCDUCHK
000754:
000755: 12,3446           22413                           LXCH     RADMODES                              #  UPDATE RADMODES.
000756: 12,3447           00006                           EXTEND
000757: 12,3450           06001                           RXOR     L
000758: 12,3451           54413                           TS       RADMODES
000759: 12,3452           77656                           MASK     BIT2                                  #  SEE IF JUST ON.
000760: 12,3453           10000                           CCS      A
000761: 12,3454           13473                           TCF      RROFF                                 #  OFF.
000762:
000763: 12,3455           37651                           CAF      BIT7                                  #  IF JUST ON AND SOME PROGRAM IS USING THE
000764: 12,3456           70061                           MASK     STATE                                 #  RR, DONT ZERO THE CDUS.
000765: 12,3457           10000                           CCS      A
000766: 12,3460           13501                           TCF      RRCDUCHK
000767:
000768: 12,3461           43472                           CS       OCT10001                              #  SET BITS TO INDICATE ZERO AND TURNON
000769: 12,3462           70413                           MASK     RADMODES                              #  IN PROGRESS.
000770: 12,3463           63472                           AD       OCT10001
000771: 12,3464           54413                           TS       RADMODES
000772:
000773: 12,3465           37657                           CAF      ONE
000774: 12,3466           04536                           TC       WAITLIST
000775: 12,3467           02000 20006                     2CADR    RRTURNON
000776: 12,3471           13545                           TCF      NORRGMON
000777:
000778: 12,3472           10001        OCT10001           OCT      10001
000779:
000780: 12,3473           40061        RROFF              CS       STATE                                 #  IF SOMEONE WAS USING THE RR, DISPLAY AN
000781: 12,3474           77651                           MASK     BIT7                                  #  ALARM IF THE RR GOES OUT OF AUTO MODE.
000782: 12,3475           10000                           CCS      A
000783: 12,3476           13501                           TCF      RRCDUCHK
000784:
000785: 12,3477           05413                           TC       ALARM
000786: 12,3500           00514                           OCT      514


000788:                                                                                                  #  CHECK FOR RR CDU FAIL.
000789: 12,3501           30413        RRCDUCHK           CA       RADMODES                              #  LAST SAMPLED BIT IN RADMODES.
000790: 12,3502           00006                           EXTEND
000791: 12,3503           06030                           RXOR     30
000792: 12,3504           77651                           MASK     BIT7
000793: 12,3505           00006                           EXTEND
000794: 12,3506           13521                           BZF      RRGIMON
000795:
000796: 12,3507           37656                           CAF      BIT2                                  #  IF RR NOT IN AUTO MODE, DONT CHANGE BIT
000797: 12,3510           70413                           MASK     RADMODES                              #  7 OF RADMODES. IF THIS WERE NOT DONE,
000798: 12,3511           10000                           CCS      A                                     #  THE TRACKER FAIL MIGHT COME ON WHEN
000799: 12,3512           13545                           TCF      NORRGMON                              #  JUST READING LR DATA.
000800:
000801: 12,3513           37651                           CAF      BIT7                                  #  SET BIT 7 OF RADMODES FOR SETTRKF.
000802: 12,3514           22413                           LXCH     RADMODES                              #  UPDATE RADMODES.
000803: 12,3515           00006                           EXTEND
000804: 12,3516           06001                           RXOR     L
000805: 12,3517           54413                           TS       RADMODES
000806:
000807: 12,3520           05042        TRKFLCDU           TC       SETTRKF                               #  UPDATE TRACKER FAIL LAMP ON DSKY.


000809:                                                                                                  #  THE RR GIMBAL LIMIT MONITOR IS ENABLED WHENEVER THE RR IS IN THE AUTO MODE EXCEPT WHEN THE RR CDUS ARE
000810:                                                                                                  #  BEING ZEROED, OR DURING A REMODE OR MONITOR REPOSITION OPERATION. THE LATTER IS INITIATED BY THIS MONITOR WHEN
000811:                                                                                                  #  THE GIMBALS EXCEED THE LIMITS FOR THE CURRENT MODE. A ROUTINE IS INITIATED TO DRIVE THE GIMBALS TO T = 0 AND
000812:                                                                                                  #  S = 0 IF IN MODE 1 AND T = 180 WITH S = -90 FOR MODE 2.
000813:
000814: 12,3521           33543        RRGIMON            CAF      OCT32002                              #  INHIBITED BY REMODE, ZEROING, MONITOR,
000815: 12,3522           70413                           MASK     RADMODES                              #  OR RR NOT IN AUTO.
000816: 12,3523           10000                           CCS      A
000817: 12,3524           13545                           TCF      NORRGMON
000818:
000819: 12,3525           04777                           TC       RRLIMCHK                              #  SEE IF ANGLES IN LIMITS.
000820: 12,3526           00035                           ADRES    OPTY
000821:
000822: 12,3527           13531                           TCF      MONREPOS
000823:
000824: 12,3530           13545                           TCF      NORRGMON                              #  (ADDITIONAL CODING MAY GO HERE).
000825:
000826: 12,3531           37645        MONREPOS           CAF      BIT11                                 #  SET FLAG TO SHOW REPOSITION IN PROGRESS.
000827: 12,3532           26413                           ADS      RADMODES
000828:
000829: 12,3533           43544                           CS       OCT20002                              #  DISABLE TRACKER AND ERROR COUNTER.
000830: 12,3534           00006                           EXTEND
000831: 12,3535           03012                           WAND     12
000832:
000833: 12,3536           37656                           CAF      TWO
000834: 12,3537           04536                           TC       WAITLIST
000835: 12,3540           02051 20006                     2CADR    DORREPOS
000836: 12,3542           13545                           TCF      NORRGMON
000837:
000838: 12,3543           32002        OCT32002           OCT      32002
000839: 12,3544           20002        OCT20002           OCT      20002


000841:                                                                                                  #  PROGRAM NAME: GPMATRIX          MOD. NO. 0  DATE: OCTOBER 20, 1966
000842:
000843:                                                                                                  #  AUTHOR: JONATHAN D. ADDELSTON (ADAMS ASSOCIATES)
000844:
000845:                                                                                                  #  THIS PROGRAM CALCULATES ALL THE SINGLE-PRECISION MATRIX ELEMENTS WHICH ARE USED BY LEM DAP TO TRANSFORM VECTORS
000846:                                                                                                  #  FROM GIMBAL TO PILOT (BODY) AXES AND BACK AGAIN.  THESE ELEMENTS ARE USED EXCLUSIVELY BY BASIC LANGUAGE ROUTINES
000847:                                                                                                  #  AND THEREFORE ARE NOT ARRAYED FOR USE BY INTERPRETIVE PROGRAMS.
000848:
000849:                                                                                                  #  CALLING SEQUENCE: GPMATRIX IS ALWAYS EXECUTED 4 TIMES A SECOND BY T4RUPT PROGRAM.  IT IS LISTED EXPLICITLY TWICE
000850:                                                                                                  #  IN THE T4JUMP TABLE, BUT IT ALSO OCCURS AFTER RRAUTCHK (TWICE).
000851:
000852:                                                                                                  #  SUBROUTINES CALLED: SPSIN, SPCOS.
000853:
000854:                                                                                                  #  NORMAL EXIT MODE: CONTROL IS ALWAYS TRANSFERRED TO DBSELECT.
000855:
000856:                                                                                                  #  ALARM/ABORT MODE: THERE ARE NO REAL ALARMS OR ABORTS.  HOWEVER, WHEN THE MIDDLE GIMBAL ANGLE NEARS GIMBAL LOCK,
000857:                                                                                                  #  A DIVISION BY COS(MG) WILL CAUSE OVERFLOW (I.E. A BAD QUOTIENT).  THIS CONDITION IS PREVENTED BY TESTING COS(MG)
000858:                                                                                                  #  AND SUBSTITUTING POSMAX/NEGMAX FOR THE INCALCULABLE QUANTITITIES.
000859:
000860:                                                                                                  #  INPUT: CDUX,CDUY,CDUZ.          OUTPUT: M11,M21,M31,M22,M32,MR12,MR13.
000861:                                                                                                  #                                          (ALSO MR22=M22,MR23=M32)        AM DOES NOT DETECT IT.
000862:
000863:                                                                                                  #  *** WARNING ** IT DIES ON DV OVERFLOW.
000864:
000865:                                                                                                  #  AOG = CDUX, AIG = CDUY, AMG = CDUZ: MNEMONIC IS: OIM = XYZ
000866:
000867:                                                                                                  #     *       *    SIN(MG)        0         1  *
000868:                                                                                                  #     M   =   *    COS(MG)COS(OG) SIN(OG)   0  *
000869:                                                                                                  #      GP     *   -COS(MG)SIN(OG) COS(OG)   0  *
000870:
000871:                                                                                                  #     *       *  0    COS(OG)/COS(MG)        -SIN(OG)/COS(MG)         *
000872:                                                                                                  #     M   =   *  0    SIN(OG)                 COS(OG)                 *
000873:                                                                                                  #      PG     *  1   -SIN(MG)COS(OG)/COS(MG)  SIN(MG)SIN(OG)/COS(MG)  *
000874:
000875: 12,3545           30034        GPMATRIX           CAE      CDUZ                                  #  SINGLE ENTRY POINT
000876: 12,3546           04233                           TC       SPSIN                                 #  SIN(CDUZ) = SIN(MG)
000877: 12,3547           55404                           TS       M11                                   #  SCALED AT 1
000878:
000879: 12,3550           30034                           CAE      CDUZ
000880: 12,3551           04232                           TC       SPCOS                                 #  COS(CDUZ) = COS(MG)
000881: 12,3552           55466                           TS       COSMG                                 #  SCALED AT 1 (ONLY A FACTOR)
000882:
000883: 12,3553           30032                           CAE      CDUX
000884: 12,3554           04233                           TC       SPSIN                                 #  SIN(CDUX) = SIN(OG)
000885: 12,3555           55401                           TS       M22                                   #  SCALED AT 1 (ALSO IS MR22)
000886:
000887: 12,3556           41401                           CS       M22
000888: 12,3557           00006                           EXTEND
000889: 12,3560           71466                           MP       COSMG                                 #  -SIN(OG)COS(MG)
000890: 12,3561           55406                           TS       M31                                   #  SCALED AT 1


000892: 12,3562           30032                           CAE      CDUX
000893: 12,3563           04232                           TC       SPCOS                                 #  COS(CDUX) = COS(OG)
000894: 12,3564           55403                           TS       M32                                   #  SCALED AT 1 (ALSO IS MR23)
000895:
000896: 12,3565           00006                           EXTEND
000897: 12,3566           71466                           MP       COSMG                                 #  COS(OG)COS(MG)
000898: 12,3567           55405                           TS       M21                                   #  SCALED AT 1
000899:
000900: 12,3570           31466                           CAE      COSMG                                 #  TEST FOR GIMBAL LOCK (OVERFLOW) REGION
000901: 12,3571           67640                           AD       NEG1/2                                #  BY TESTING MIDDLE GIMBAL ANGLE FOR
000902: 12,3572           00006                           EXTEND                                         #  VALUES EQUAL TO OR GREATER THAN 60 DEGS.
000903: 12,3573           63610                           BZMF     GPGLOCK
000904:
000905: 12,3574           31403                           CAE      M32
000906: 12,3575           00006                           EXTEND
000907: 12,3576           77642                           MP       BIT14                                 #  SCALE FOR DIVISION
000908: 12,3577           00006                           EXTEND
000909: 12,3600           11466                           DV       COSMG                                 #  COS(OG)/COS(MG)
000910: 12,3601           55400                           TS       MR12                                  #  SCALED AT 2
000911:
000912: 12,3602           41401                           CS       M22
000913: 12,3603           00006                           EXTEND
000914: 12,3604           77642                           MP       BIT14                                 #  SCALE FOR DIVISION
000915: 12,3605           00006                           EXTEND
000916: 12,3606           11466                           DV       COSMG                                 #  -SIN(OG)/COS(MG)
000917: 12,3607           13621                           TCF      MR13STOR
000918:
000919: 12,3610           11403        GPGLOCK            CCS      M32                                   #  SINCE DIVISION BY COS(MG) MIGHT CREATE
000920: 12,3611           37637                           CAF      POSMAX
000921: 12,3612           13614                           TCF      +2                                    #  OVERFLOW (I.E. A NUMBER GREATER THAN 2)
000922: 12,3613           37641                           CAF      NEGMAX
000923: 12,3614           55400                           TS       MR12                                  #  USE THE VALUE SGN(NUMERATOR)*POSMAX AS
000924:
000925: 12,3615           11401                           CCS      M22
000926: 12,3616           37637                           CAF      POSMAX                                #  THE CLOSEST APPROXIMATION
000927: 12,3617           13621                           TCF      +2
000928: 12,3620           37641                           CAF      NEGMAX
000929: 12,3621           55402        MR13STOR           TS       MR13                                  #  SCALED AT 2


000931:                                                                                                  #  THE FOLLOWING SECTION TESTS THE ATTITUDE HOLD BIT TO DETERMINE WHICH DEA


000933:                                                                                                  #  PROGRAM NAME: DB SELECT         MOD. NO. 1  DATE: OCTOBER 24, 1966
000934:
000935:                                                                                                  #  AUTHOR: JONATHAN D. ADDELSTON (ADAMS ASSOCIATES)
000936:
000937:                                                                                                  #  THIS PROGRAM SETS THE ERASABLE REGISTER DB TO ONE OF THE THREE VALUES:
000938:                                                                                                  #           1) O.3 DEGREES IF IN ATTITUDE HOLD MODE OR IF IN AUTO WITH THE DEADBAND SELECT BIT OF DAPBOOLS SET
000939:                                                                                                  #              TO MINIMUM.
000940:                                                                                                  #           2) 5.0 DEGREES IF IN AUTO WITH DEADBAND SELECT BIT SET TO MAXIMUM.
000941:                                                                                                  #           3) 1.0 DEGREES IF IN POWERED FLIGHT (ASCENT OR DESCENT) AND OVERRIDING ANY SETTITING OF SCSMODE OR THE
000942:                                                                                                  #              DEADBAND SELECT BIT.  (*** SEE COMMENT AFTER CODING. ***)
000943:
000944:                                                                                                  #  ***** NOTICE *****
000945:
000946:                                                                                                  #  THE ABOVE CAPABILITY FULFILLS ALL THE KNOWN DEADBAND REQUIREMENTS FOR AS206, AS208B, AND AS278 (GIVEN THE
000947:                                                                                                  #  APPROPRIATE MISSION PROGRAMS).
000948:
000949:                                                                                                  #  (ALSO FOR MANNED FLIGHTS A DSKY ENTRY MUST BE SET UP TO SET THE DEADBAND SELECT BIT OF DAPBOOLS. - NOT DONE AS
000950:                                                                                                  #  OF 10/24/66.)
000951:
000952:                                                                                                  #  ***** DEADBAND SELECT BIT IS BIT13 OF DAPBOOLS. *****
000953:                                                                                                  #           0: MEANS MINIMUM DEADBAND
000954:                                                                                                  #           1: MEANS MAXIMUM DEADBAND
000955:
000956:                                                                                                  #  CALLING SEQUENCE: CONTROL FALLS THROUGH FROM GPMATRIX. (4 TIMES/SECOND)
000957:
000958:                                                                                                  #  SUBROUTINES CALLED: NONE.
000959:
000960:                                                                                                  #  NORMAL EXIT MODE: CONTROL IS ALWAYS TRANSFERRED TO UP/DOWN.
000961:
000962:                                                                                                  #  ALARM/ABORT MODE: NONE.
000963:
000964:                                                                                                  #  INPUT: BIT13/CHNL11,BIT13/CHNL31,BIT13/DAPBOOLS.  (SPOOKY, ISN'T IT?)
000965:
000966:                                                                                                  #  OUTPUT: DB (SCALED AT PI RADIANS).     (NO DEBRIS EXCEPT A)
000967:
000968: 12,3622           37643        DBSELECT           CAF      BIT13                                 #  ATTITUDE HOLD BIT OF CHANNEL 31
000969: 12,3623           00006                           EXTEND                                         #  0 MEANS ATTITUDE HOLD
000970: 12,3624           02031                           RAND     31                                    #  1 MEANS EITHER OFF OR AUTO
000971: 12,3625           00006                           EXTEND
000972: 12,3626           13635                           BZF      ATTHLDDB                              #  (ATTITUDE HOLD BRANCH)
000973:
000974: 12,3627           40765                           CS       DAPBOOLS                              #  DEADBAND SELECT BIT OF DAPBOOLS
000975: 12,3630           77643                           MASK     BIT13                                 #  0 MEANS MINIMUM DEADBAND
000976: 12,3631           10000                           CCS      A                                     #  1 MEANS MAXIMUM DEADBAND
000977: 12,3632           13635                           TCF      ATTHLDDB                              #  (MINIMUM DEADBAND BRANCH)
000978:
000979: 12,3633           33747                           CAF      DBMAXUM                               #  SET MAXIMUM DEADBAND
000980: 12,3634           13636                           TCF      +2
000981:
000982: 12,3635           33751        ATTHLDDB           CAF      DBATTHLD                              #  SET MINUMUM (ATTITUDE HOLD) DEADBAND


000984: 12,3636           55415                           TS       DB
000985:
000986:                                                                                                  #  ***** IMPORTANT NOTICE *****
000987:
000988:                                                                                                  #  FOR EFFICIENCY, THE OVERRIDING 1 DEGREE DEADBAND DURING POWERED FLIGHT IS NOT TESTED FOR ABOVE. THE PROGRAM
000989:                                                                                                  #  FOLLOWING (I.E. UP/DOWN) PERFORMS THIS FUNCTION AFTER THE APPROPRIATE TESTS. THEREFORE, DB MAY TRANSIENTLY BEP
000990:                                                                                                  #  INVALID, BUT THE DAP CANNOT USE IT THEN DUE TO T4RUPT MODE.


000992:                                                                                                  #  PROGRAM NAME: UP/DOWN           MOD. NO. 1  DATE: OCTOBER 25, 1966
000993:
000994:                                                                                                  #  AUTHOR: JONATHAN D. ADDELSTON (ADAMS ASSOCIATES)
000995:
000996:                                                                                                  #  THIS PROGRAM MONITORS THE STAGE OF THE LEM AND THE ENGINE ON BIT IN ORDER TO DETERMINE WHEN ASCENT, DESCENT, AND
000997:                                                                                                  #  COAST PHASES MUST BE SET UP FOR THE DAP. (DONE 4 TIMES A SECOND.)
000998:
000999:                                                                                                  #  CALLING SEQUENCE: NONE.         SUBROUTINES CALLED: WAITLIST.
001000:
001001:                                                                                                  #  NORMAL EXIT MODE: CONTROL IS ALWAYS TRANSFERRED TO ENDDAPT4.
001002:
001003:                                                                                                  #  ALARM/ABORT MODE: NONE.
001004:
001005:                                                                                                  #  INPUT:BIT2/CHNL30,BIT13/CHNL11,BIT8/DAPBOOLS.
001006:
001007:                                                                                                  #  OUTPUT:  A) ASCENT COAST:
001008:                                                                                                  #                  1) BIT8/DAPBOOLS SET TO ZERO, MEANING COAST.
001009:                                                                                                  #                  2) MINIMPDB AND DBMINIMP SET TO 0.3 DEGREES.
001010:                                                                                                  #           B) ASCENT BURN:
001011:                                                                                                  #                  1) INITIALIZATION PASS:
001012:                                                                                                  #                         I) BIT8/DAPBOOLS SET FROM 0 TO 1, MEANING THAT THE AOSTASK HAS BEEN STARTED UP AND THAT
001013:                                                                                                  #                            INITIALIZATION HAS OCCURRED.
001014:                                                                                                  #                        II) MINIMPDB SET TO -DB.
001015:                                                                                                  #                       III) DBMINIMP SET TO ZERO.
001016:                                                                                                  #                        IV) SUMRATEQ AND SUMRATER ZEROED FOR FIRST TWO SECOND AOSTASK SAMPLE PERIOD.
001017:                                                                                                  #                         V) KCOEFCTR ZEROED TO RECORD INITIAL TIME.
001018:                                                                                                  #                        VI) OMEGAQ AND OMEGAR RECORDED IN OLDWFORQ AND OLDWFORR AS LAST OMEGA VECTOR FOR AOSTASK.
001019:                                                                                                  #                       VII) AOSTASK SET IN WAITLIST FOR TWO SECONDS.
001020:                                                                                                  #                      VIII) DB SET TO DBAUTO.
001021:                                                                                                  #                        IX) ****** CHECKOUT ONLY **** IXXTASK, IYYTASK, AND IZZTASK SET IN WAITLIST FOR TEN MS.
001022:                                                                                                  #                  2) NORMAL PASS VOID.
001023:                                                                                                  #           C) DESCENT COAST:
001024:                                                                                                  #                  1) BIT2/DAPBOOLS SET TO 1, MEANING THAT TRIM GIMBAL CONTROL OF DESCENT IS IMPOSSIBLE SINCE
001025:                                                                                                  #                     DESCENT ENGINE OFF.
001026:                                                                                                  #                  2) AOSQTERM AND AOSRTERM ZEROED.
001027:                                                                                                  #           D) DESCENT BURN:
001028:                                                                                                  #                  1) DB SET TO DBAUTO.
001029:                                                                                                  #                  2) BIT2/DAPBOOLS CANNOT NOW BE ZEROED (EVEN THOUGH THE DESCENT ENGINE IS ON), SINCE IT IS NOT
001030:                                                                                                  #                     NECESSARILY TRUE THAT THIS IMPLIES AN OPERATIVE TRIM GIMBAL SYSTEM.
001031:
001032: 12,3637           37656        UP/DOWN            CAF      BIT2                                  #  STAGE VERIFY BIT OF CHANNEL 30: INVERTED
001033: 12,3640           00006                           EXTEND                                         #  0 MEANS ASCENT STAGE
001034: 12,3641           02030                           RAND     30                                    #  1 MEANS DESCENT STAGE
001035: 12,3642           10000                           CCS      A
001036: 12,3643           13725                           TCF      DESCLEM                               #  (DESCENT STAGE BRANCH)
001037:
001038: 12,3644           37643        ASCLEM             CAF      BIT13                                 #  ENGINE ON BIT OF CHANNEL 11
001039: 12,3645           00006                           EXTEND                                         #  0 MEANS OFF
001040: 12,3646           02011                           RAND     11                                    #  1 MEANS ON
001041: 12,3647           10000                           CCS      A


001043: 12,3650           13660                           TCF      ASCDAP                                #  (ASCENT BURN BRANCH)
001044:
001045: 12,3651           47650        ASCCOAST           CS       BIT8                                  #  SET BIT8 OF DAPBOOLS TO COAST DAP LOGIC
001046: 12,3652           70765                           MASK     DAPBOOLS                              #  LEM IS STAGED FOR ASCENT, BUT THE ASCENT
001047: 12,3653           54765                           TS       DAPBOOLS                              #  ENGINE IS NOT ON.
001048:
001049: 12,3654           33751                           CAF      DBATTHLD                              #  FOR ASCENT COAST SET BOTH MINIMUM PULSE
001050: 12,3655           55647                           TS       MINIMPDB                              #  DEADBANDS TO THE DESCENT PHASE VALUE OF
001051: 12,3656           55646                           TS       DBMINIMP                              #  0.3 DEGREES SCALED AT PI RADIANS.
001052:
001053: 12,3657           14606                           TCF      ENDDAPT4                              #  (END OF UP/DOWN)
001054:
001055: 12,3660           37650        ASCDAP             CAF      BIT8                                  #  CHECK AOSTASK BIT OF DAPBOOLS
001056: 12,3661           70765                           MASK     DAPBOOLS                              #  IF 0, SET BIT AND INITIATE WAITLIST TASK
001057: 12,3662           10000                           CCS      A                                     #  IF 1, THEN TASK LOOP ALREADY BEGUN
001058: 12,3663           14606                           TCF      ENDDAPT4                              #  (END OF UP/DOWN)
001059:
001060: 12,3664           33750                           CAF      DBAUTO                                #  SINCE ASCENT ENGINE IS ON -
001061: 12,3665           55415                           TS       DB                                    #  SET DEADBAND TO 1.0 DEGREES
001062:
001063: 12,3666           37650                           CAF      BIT8                                  #  SET BIT TO INDICATE AOSTASK SET UP AND
001064: 12,3667           26765                           ADS      DAPBOOLS                              #  ASCENT LOGIC.  BIT CLEARLY NOT SET YET.
001065:
001066: 12,3670           41415                           CS       DB                                    #  MODIFY THE TJETLAW FOR ASCENT:
001067: 12,3671           55647                           TS       MINIMPDB                              #  (IN ONE EQUATION DELETE MINIMPDB AND
001068: 12,3672           37665                           CAF      ZERO                                  #  SHIFT THE SWITCHING CURVE TO THE ORIGIN)
001069: 12,3673           55646                           TS       DBMINIMP                              #  MINIMPDB = -DB, DBMINIMP = 0
001070:
001071: 12,3674           37665                           CAF      ZERO                                  #  INITIALIZE SUM RATES
001072: 12,3675           55640                           TS       SUMRATEQ
001073: 12,3676           55641                           TS       SUMRATER
001074: 12,3677           55671                           TS       KCOEFCTR                              #  INITIALIZE TIME COUNTER
001075: 12,3700           31417                           CAE      OMEGAQ                                #  CREATE OLD OMEGAQ
001076: 12,3701           55644                           TS       OLDWFORQ
001077: 12,3702           31421                           CAE      OMEGAR                                #  CREATE OLD OMEGAR
001078: 12,3703           55645                           TS       OLDWFORR
001079:
001080:                                                                                                  #  ***** EVENTUALLY, USE 2SECWLT4 FROMM FIXED-FIXED AND NEW NAME. *****
001081:
001082: 12,3704           33746                           CAF      2SECWLT4                              #  SET UP AOSTASK TO BEGIN IN 2 SECONDS
001083: 12,3705           04536                           TC       WAITLIST                              #  IT THEN SETS UP A LOOP ON WAITLIST FOR
001084: 12,3706           03064 52006                     2CADR    AOSTASK                               #  2 SECOND INTERVALS AND CHECKS FOR THE
001085:                                                                                                  #  SHUTDOWN CONDITION IN BIT8 OF DAPBOOLS
001086:
001087:                                                                                                  #  ****************************************************************************************************************
001088:
001089:                                                                                                  #  REMOVE THIS AND THE TASKS WHEN THE INERTIA ESTIMATOR WORKS.
001090:
001091: 12,3710           37657                           CAF      ONE                                   #  *** SPECIAL DAP CHECKOUT SEQUENCE ***
001092: 12,3711           04536                           TC       WAITLIST                              #  THESE THREE CALLS TO WAITLIST BEGIN A


001094: 12,3712           03525 52006                     2CADR    IXXTASK                               #  COMPLICATED PROCEDURE TO DECREMENT THE
001095: 12,3714           37657                           CAF      ONE                                   #  INERTIA MATRIX DIAGONAL ELEMENTS (EACH
001096: 12,3715           04536                           TC       WAITLIST                              #  SCALED AT 2(+18) SLUG FEET(2) ) BY ONE
001097: 12,3716           03536 52006                     2CADR    IYYTASK                               #  BIT AS SOON AS APPROPRIATE BY A NOMINAL
001098: 12,3720           37657                           CAF      ONE                                   #  LINEAR APPROXIMATION TO INERTIAL CHANGE.
001099: 12,3721           04536                           TC       WAITLIST
001100: 12,3722           03547 52006                     2CADR    IZZTASK                               #  *** NOT TO BE USED IN MISSIONS ***
001101:                                                                                                  #  ****************************************************************************************************************
001102:
001103: 12,3724           14606                           TCF      ENDDAPT4                              #  (END OF UP/DOWN)
001104:
001105: 12,3725           37643        DESCLEM            CAF      BIT13                                 #  ENGINE ON BIT OF CHANNEL 11
001106: 12,3726           00006                           EXTEND                                         #  0 MEANS OFF
001107: 12,3727           02011                           RAND     11                                    #  1 MEANS ON
001108: 12,3730           10000                           CCS      A
001109: 12,3731           13742                           TCF      DESCDAP                               #  (DESCENT BURN BRANCH)
001110:
001111: 12,3732           47656        DESCOAST           CS       BIT2                                  #  SET BIT2 OF DAPBOOLS TO INDICATE THAT
001112: 12,3733           70765                           MASK     DAPBOOLS                              #  TRIM GIMBAL CANNOT BE USED SINCE THE
001113: 12,3734           67656                           AD       BIT2                                  #  STAGE IS DESCENT, BUT THE ENGINE IS NOT
001114: 12,3735           54765                           TS       DAPBOOLS                              #  ON.
001115:
001116: 12,3736           37665                           CAF      ZERO                                  #  ZERO TRIM GIMBAL OFFSET ACCELERATION
001117: 12,3737           55642                           TS       AOSQTERM                              #  TERMS IN THE DESCENT RATE DERIVATION
001118: 12,3740           55643                           TS       AOSRTERM                              #  SINCE THE THRUST IS ZERO (ENGINE OFF).
001119:
001120: 12,3741           14606                           TCF      ENDDAPT4                              #  (END OF UP/DOWN)
001121:
001122: 12,3742           33750        DESCDAP            CAF      DBAUTO                                #  SINCE DESCENT ENGINE IS ON -
001123: 12,3743           55415                           TS       DB                                    #  SET DEADBAND TO 1.0 DEGREES
001124:
001125: 12,3744           14606                           TCF      ENDDAPT4                              #  (END OF UP/DOWN)
001126:
001127: 12,3745           14606                           TCF      ENDDAPT4
001128:
001129:
001130: 12,3746           00310        2SECWLT4           DEC      200        B-14                       #  2 SECONDS WAITLIST DT
001131: 12,3747           00707        DBMAXUM            DEC      0.02778                               #  5.0 DEGREES SCALED AT PI RADIANS
001132: 12,3750           00133        DBAUTO             DEC      0.00555                               #  1.0 DEGREES SCALED AT PI RADIANS
001133: 12,3751           00033        DBATTHLD           DEC      0.00167                               #  0.3 DEGREES SCALED AT PI RADIANS
001134:
001135:
001136:
001137: 12,3752  12,3545               NORRGMON           EQUALS   GPMATRIX
001138: 12,3752     4606               ENDDAPT4           EQUALS   RESUME

End of include-file T4RUPT_PROGRAM.agc.  Parent file is MAIN.agc


