
Source Code


000002:                                                                                                  ## Copyright:    Public domain.
000003:                                                                                                  ## Filename:     TRIM_GIMBAL_CONTROL_SYSTEM.agc
000004:                                                                                                  ## Purpose:      Part of the source code for Aurora (revision 12).
000005:                                                                                                  ## Assembler:    yaYUL
000006:                                                                                                  ## Contact:      Ron Burkey <info@sandroid.org>.
000007:                                                                                                  ## Website:      https://www.ibiblio.org/apollo.
000008:                                                                                                  ## Pages:        615-629
000009:                                                                                                  ## Mod history:  2016-09-20 JL   Created.
000010:                                                                                                  ##               2016-10-02 MAS  Transcribed.
000011:                                                                                                  ##               2016-10-04 HG   Change 'code' to comments. Looks like code in the scans
000012:                                                                                                  ##                               but is actually documentation
000013:                                                                                                  ##               2016-10-08 HG   Change THEATA -> ETHETA
000014:                                                                                                  ##                                      KCENTRAL -> K2CNTRAL   (p. 621)
000015:                                                                                                  ##               2016-10-15 HG   fix label CHECKDRIV -> CHEKDRIV
000016:                                                                                                  ##                                         QRUPFILT  -> QRJPFILT
000017:                                                                                                  ##                                         -TGNBD+1  -> -TGBND+1
000018:
000019:                                                                                                  ## This source code has been transcribed or otherwise adapted from
000020:                                                                                                  ## digitized images of a hardcopy from the private collection of
000021:                                                                                                  ## Don Eyles.  The digitization was performed by archive.org.
000022:
000023:                                                                                                  ## Notations on the hardcopy document read, in part:
000024:
000025:                                                                                                  ##       473423A YUL SYSTEM FOR BLK2: REVISION 12 of PROGRAM AURORA BY DAP GROUP
000026:                                                                                                  ##       NOV 10, 1966
000027:
000028:                                                                                                  ##       [Note that this is the date the hardcopy was made, not the
000029:                                                                                                  ##       date of the program revision or the assembly.]
000030:
000031:                                                                                                  ## The scan images (with suitable reduction in storage size and consequent
000032:                                                                                                  ## reduction in image quality) are available online at
000033:                                                                                                  ##       https://www.ibiblio.org/apollo.
000034:                                                                                                  ## The original high-quality digital images are available at archive.org:
000035:                                                                                                  ##       https://archive.org/details/aurora00dapg
000036:


000038:                                                                                                  #  CONTROL REACHES THIS POINT UNDER EITHER OF THE FOLLOWING TWO CONDITIONS ONCE THE DESCENT ENGINE AND THE DIGITAL
000039:                                                                                                  #  AUTOPILOT ARE BOTH ON:
000040:                                                                                                  #           A) THE TRIM GIMBAL CONTROL LAW WAS ON DURING THE PREVIOUS Q,R-AXIS TIME5 INTERRUPT (OR THE DAPIDLER
000041:                                                                                                  #              INITIALIZATION WAS SET FOR TRIM GIMBAL CONTROL AND THIS IS THE FIRST PASS), OR
000042:                                                                                                  #           B) THE Q,R-AXES RCS JET CONTROL LAW ATTITUDE STEERING MODE REDUCED THE ATTITUDE ERROR TO LESS THAN
000043:                                                                                                  #  1DEGREE ON EACH AXIS ON ITS LAST TIME5 INTERRUPT.
000044:
000045:                                                                                                  #  THE FOLLOWING T5RUPT ENTRY BEGINS THE TRIM GIMBAL CONTROL LAW.  SINCE IT IS ASSUMED THAT THE LEM WILL REMAIN
000046:                                                                                                  #  UNDER TRIM GIMBAL CONTROL, A KALMAN FILTER RUPT IS SET UP TO BEGIN 30 MS FROM THE TRIM GIMBAL RUPT.
000047:
000048: 26,2564           32373        GTS                CAF      MS30F                                 #  RESET TIMER IMMEDIATELY: DT = 30 MS
000049: 26,2565           54030                           TS       TIME5
000050:
000051: 26,2566           22016                           LXCH     BANKRUPT                              #  INTERRUPT LEAD IN (CONTINUED)
000052: 26,2567           00006                           EXTEND
000053: 26,2570           22012                           QXCH     QRUPT
000054:
000055: 26,2571           00006                           EXTEND
000056: 26,2572           32402                           DCA      POSTPFIL
000057: 26,2573           52346                           DXCH     T5ADR
000058:
000059: 26,2574           12666                           TCF      GTSTEST                               #  SKIP OVER XFORMS UNTIL REORGANIZATION
000060:
000061: 26,2575           00006        GIMBAL             EXTEND                                         #  GET D.P. FILTERED CDUY VALUE (ONES COMP)
000062: 26,2576           31563                           DCA      CDUYFIL                               #  SCALED AT 2PI RADIANS
000063: 26,2577           02302                           TC       ONETOTWO                              #  FORM S.P. VALUE IN TWOS COMPLEMENT AT PI
000064: 26,2600           00006                           EXTEND
000065: 26,2601           20775                           MSU      CDUYD                                 #  FORM Y-AXIS ERROR IN ONES COMPLEMENT
000066: 26,2602           55477                           TS       QDIFF                                 #  (SAVE IN Q-AXIS ERROR LOC: EFFICIENCY)
000067:
000068: 26,2603           00006                           EXTEND                                         #  GET D.P. FILTERED CDUZ VALUE (ONES COMP)
000069: 26,2604           31565                           DCA      CDUZFIL                               #  SCALED AT 2PI RADIANS
000070: 26,2605           02302                           TC       ONETOTWO                              #  FORM S.P. VALUE IN TWOS COMPLEMENT AT PI
000071: 26,2606           00006                           EXTEND
000072: 26,2607           20776                           MSU      CDUZD                                 #  FORM Z-AXIS ERROR IN ONES COMPLEMENT
000073: 26,2610           55500                           TS       RDIFF                                 #  (SAVE IN R-AXIS ERROR LOC: EFFICIENCY)
000074:
000075:                                                                                                  #  TRANSFORM Y,Z CDU ERRORS TO THE Q,R-AXES.
000076:
000077: 26,2611           00006                           EXTEND                                         #  GET BOTH Y AND Z CDU ERRORS AT PI RAD
000078: 26,2612           31500                           DCA      QDIFF
000079: 26,2613           03421                           TC       QTRANSF                               #  FORM Q-ERROR IN A (SCALED AT PI RAD)
000080: 26,2614           53500                           DXCH     QDIFF                                 #  STORE Q-ERROR, GET BOTH Y,Z CDU ERRORS
000081: 26,2615           03431                           TC       RTRANSF                               #  FORM R-ERROR IN A (SCALED AT PI RAD)
000082: 26,2616           57500                           XCH      RDIFF                                 #  STORE R-ERROR
000083:
000084:                                                                                                  #  TRANSFORM THE FILTERED Y,Z RATES TO THE Q,R-AXES.
000085:                                                                                                  #  (THESE MAY BE NEEDED FOR THE RATE DERIVATION FOR THE JETS IF THEY MUST BE USED.)
000086:
000087: 26,2617           31570                           CAE      DCDUZFIL                              #  GET FILTERED Y,Z RATES


000089: 26,2620           54001                           TS       L                                     #  SCALED AT PI/4 RADIANS/SECOND
000090: 26,2621           31566                           CAE      DCDUYFIL
000091: 26,2622           03421                           TC       QTRANSF                               #  FOR Q-AXIS RATE
000092: 26,2623           55417                           TS       OMEGAQ                                #  STORED SCALED AT PI/4 RADIANS/SECOND
000093:
000094: 26,2624           31570                           CAE      DCDUZFIL                              #  GET FILTERED Y,Z RATES
000095: 26,2625           54001                           TS       L                                     #  SCALED AT PI/4 RADIANS/SECOND
000096: 26,2626           31566                           CAE      DCDUYFIL
000097: 26,2627           03431                           TC       RTRANSF                               #  FOR R-AXIS RATE
000098: 26,2630           55421                           TS       OMEGAR                                #  STORED SCALED AT PI/4 RADIANS/SECOND
000099:
000100:                                                                                                  #  TRANSFORM THE FILTERED Y,Z ACCELERATIONS TO THE Q,R-AXES.
000101:                                                                                                  #  (THESE MAY BE NEEDED TO CALCULATE TRIM GIMBAL OFF-TIMES IF ATTITUDE ERROR HAS GONE BEYOND TRIM GIMBAL CONTROL.)
000102:
000103: 26,2631           31574                           CAE      D2CDUZFL                              #  GET FILTERED Y,Z ACCELERATIONS
000104: 26,2632           54001                           TS       L                                     #  SCALED AT PI/8 RADIANS/SECOND(2)
000105: 26,2633           31572                           CAE      D2CDUYFL
000106: 26,2634           03421                           TC       QTRANSF                               #  FORM Q-AXIS ACCELERATION
000107: 26,2635           55420                           TS       ALPHAQ                                #  STORE AT PI/8 RADIANS/SECOND(2)
000108:
000109: 26,2636           31574                           CAE      D2CDUZFL                              #  GET FILTERED Y,Z ACCELERATIONS
000110: 26,2637           54001                           TS       L                                     #  SCALED AT PI/8 RADIANS/SECOND(2)
000111: 26,2640           31572                           CAE      D2CDUYFL
000112: 26,2641           03431                           TC       RTRANSF                               #  FORM R-AXIS ACCELERATION
000113: 26,2642           55422                           TS       ALPHAR                                #  STORE AT PI/8 RADIANS/SECOND(2)
000114:
000115:                                                                                                  #  EXTRAPOLATE THETA AND OMEGA OVER THE 20 MS DELAY BETWEEN THE KALMAN FILTER AND THE TRIM GIMBAL CONTROL.
000116:
000117: 26,2643           31417                           CAE      OMEGAQ
000118: 26,2644           00006                           EXTEND
000119: 26,2645           72664                           MP       DTW
000120: 26,2646           27477                           ADS      QDIFF
000121:
000122: 26,2647           31421                           CAE      OMEGAR
000123: 26,2650           00006                           EXTEND
000124: 26,2651           72664                           MP       DTW
000125: 26,2652           27500                           ADS      RDIFF
000126:
000127: 26,2653           31420                           CAE      ALPHAQ
000128: 26,2654           00006                           EXTEND
000129: 26,2655           72665                           MP       DTA
000130: 26,2656           27417                           ADS      OMEGAQ
000131:
000132: 26,2657           31422                           CAE      ALPHAR
000133: 26,2660           00006                           EXTEND
000134: 26,2661           72665                           MP       DTA
000135: 26,2662           27421                           ADS      OMEGAR
000136:
000137: 26,2663           14606                           TCF      RESUME
000138:


000140: 26,2664           00122        DTW                DEC      .005
000141: 26,2665           00051        DTA                DEC      .0025
000142:
000143:                                                                                                  #  TEST TO SEE IF TRIM GIMBAL CONTROL LAW HAS KEPT BOTH ATTITUDE ERRORS BELOW THE 1 DEGREE BOUNDARY WITH THE REGION
000144:                                                                                                  #  OF RCS CONTROL LAW DOMINANCE OR IS STILL REDUCING THE ERROR.
000145:
000146: 26,2666           37656        GTSTEST            CAF      BIT2                                  #  VERIFY THAT GTS IS STILL OPERATIVE
000147: 26,2667           70765                           MASK     DAPBOOLS
000148: 26,2670           10000                           CCS      A
000149: 26,2671           12723                           TCF      RCSCNTRL                              #  GTS NOT OPERATIVE
000150: 26,2672           37657                           CAF      BIT1
000151: 26,2673           54073        LOOPTEST           TS       QRCNTR
000152: 26,2674           50073                           INDEX    QRCNTR
000153: 26,2675           11477                           CCS      QDIFF                                 #  SCALED AT PI.
000154: 26,2676           62721                           AD       -TGBND+1                              #  -2 DEG SCALED AT PI, + 1 BIT.
000155: 26,2677           12701                           TCF      +2
000156: 26,2700           62721                           AD       -TGBND+1
000157: 26,2701           00006                           EXTEND
000158: 26,2702           62704                           BZMF     +2                                    #  IS ERROR MAG LESS,EQUAL 2 DEG.
000159: 26,2703           12723                           TCF      RCSCNTRL                              #  NO.   GO TO JETS.
000160: 26,2704           30073                           CA       QRCNTR                                #  YES.  TRY RATE MAGNITUDE.
000161: 26,2705           60000                           DOUBLE
000162: 26,2706           50000                           INDEX    A
000163: 26,2707           11417                           CCS      OMEGAQ                                #  SCALED AT PI/4.
000164: 26,2710           62722                           AD       -RATBD+1                              #  -.65 DEC/SEC SCALED AT PI/4  + 1 BIT
000165: 26,2711           12713                           TCF      +2
000166: 26,2712           62722                           AD       -RATBD+1
000167: 26,2713           00006                           EXTEND
000168: 26,2714           62716                           BZMF     +2                                    #  IS RATE MAG LESS,EQUAL .65 DEG/SEC.
000169: 26,2715           12723                           TCF      RCSCNTRL                              #  NO.    GO TO JETS.
000170: 26,2716           10073                           CCS      QRCNTR                                #  YES.  THIS AXIS IS FINE. ARE BOTH DONE.
000171: 26,2717           12673                           TCF      LOOPTEST                              #  TRY THE Q AXIS NOW.
000172: 26,2720           12766                           TCF      GTSRAXIS                              #  USE TRIM GIMBAL CONTROL.
000173: 26,2721           77512        -TGBND+1           OCT      77512                                 #  -2 DEG SCALED AT PI, + 1 BIT.
000174: 26,2722           77423        -RATBD+1           OCT      77423                                 #  -.65 DEG/SEC SCALED AT PI/4  + 1 BIT
000175:                                                                                                  #  ATTITUDE ERROR IS BEYOND TRIM GIMBAL CONTROL LAW RANGE.  SET UP FOR RCS CONTROL LAW (Q,R-AXIS) AND CALCULATE
000176:                                                                                                  #  TIMES TO TURN OFF THE GIMBAL DRIVES.
000177:
000178: 26,2723           32745        RCSCNTRL           CAF      POSTQRFL                              #  CHANGE LOCATION OF NEXT T5RUPT FROM
000179: 26,2724           54345                           TS       T5ADR                                 #  FILTER TO FILDUMMY
000180:
000181: 26,2725           32746                           CAF      QRJPFILT                              #  SET UP POST P-AXIS T5RUPT TO GO TO
000182: 26,2726           55601                           TS       PFILTADR                              #  DUMMYFIL INSTEAD OF FILTER
000183:


000185: 26,2727           00006                           EXTEND                                         #  PREPARE FOR SEQUENCED RESUMPTION OF
000186: 26,2730           30034                           DCA      CDUY                                  #  Q,R-AXIS RCS CONTROL RATE DERIVATION
000187: 26,2731           53434                           DXCH     OLDYFORQ                              #  BY PROVIDING OLD CDU READINGS
000188:
000189: 26,2732           00006                           EXTEND                                         #  MOVE FILTERED AND TRANSFORMED ATTITUDE


000191: 26,2733           31500                           DCA      QDIFF                                 #  ERRORS INTO ERASABLE FOR Q,R-AXIS RCS
000192: 26,2734           57500                           XCH      RERROR                                #  CONTROL: NOTE THAT THE AXES SEEM TO BE
000193: 26,2735           23477                           LXCH     QERROR                                #  INTERCHANGED BUT ARE NOT CONFUSED
000194:
000195: 26,2736           37657                           CAF      ONE
000196: 26,2737           04536                           TC       WAITLIST
000197: 26,2740           02751 54006                     2CADR    CHEKDRIV                              #  DO TGOFF CALCULATION IN WAITLIST TASK
000198:
000199: 26,2742           00006                           EXTEND                                         #  GO TO Q,R-AXES CONTROL IMMEDIATELY
000200: 26,2743           32750                           DCA      TGENTRY
000201: 26,2744           52006                           DTCB
000202:


000204: 26,2745           02555        POSTQRFL           GENADR   FILDUMMY
000205: 26,2746           02544        QRJPFILT           GENADR   DUMMYFIL
000206: 26,2747           03122 50006  TGENTRY            2CADR    STILLRCS
000207:
000208:
000209: 26,2751           37665        CHEKDRIV           CAF      ZERO                                  #  CALCULATE Q-AXIS GIMBAL DRIVE SHUTDOWN T
000210: 26,2752           03442                           TC       TGOFFCAL
000211: 26,2753           04536                           TC       WAITLIST
000212: 26,2754           03370 54006                     2CADR    OFFGIMQ
000213:
000214: 26,2756           37656                           CAF      TWO                                   #  CALCULATE R-AXIS GIMBAL DRIVE SHUTDOWN T
000215: 26,2757           03442                           TC       TGOFFCAL
000216: 26,2760           04536                           TC       WAITLIST
000217: 26,2761           03373 54006                     2CADR    OFFGIMR
000218:
000219: 26,2763           03400                           TC       WRCHN12                               #  SET UP NEW DRIVES AS OF NOW
000220:
000221: 26,2764           14602                           TCF      TASKOVER
000222:


000224:                                                                                                  #  THE DRIVE SETTING ALGORITHM
000225:                                                                                                  #  DEL = SGN(OMEGA.K + SGN(ALPHA)ALPHA(2)/2)    ONLY +1/-1
000226:
000227:                                                                                                  #  NEGUSUM = ERROR.K(2) + DEL((OMEGA.K.DEL + ALPHA(2)/2)(3/2) + (OMEGA.K.DEL + ALPHA(2)/3)ALPHA
000228:
000229:                                                                                                  #  DRIVE = -SGN(NEGUSUM)
000230: 26,2765           76504        -.04266            DEC      -.04266
000231: 26,2766           37656        GTSRAXIS           CAF      TWO                                   #  SET INDEXER FOR R-AXIS CALCULATIONS
000232: 26,2767           54073                           TS       QRCNTR
000233: 26,2770           12773                           TCF      GTSQAXIS
000234:
000235: 26,2771           37665        GOQTRIMG           CAF      ZERO                                  #  SET INDEXER FOR Q-AXIS CALCULATIONS
000236: 26,2772           54073                           TS       QRCNTR
000237:
000238: 26,2773           00006        GTSQAXIS           EXTEND
000239: 26,2774           50073                           INDEX    QRCNTR                                #  PICK UP K AND K(2) FOR THIS AXIS
000240: 26,2775           31536                           DCA      KQ
000241: 26,2776           52066                           DXCH     KCENTRAL
000242:
000243: 26,2777           00006                           EXTEND
000244: 26,3000           50073                           INDEX    QRCNTR                                #  PICK UP OMEGA AND ALPHA FOR THIS AXIS
000245: 26,3001           31420                           DCA      OMEGAQ
000246: 26,3002           52071                           DXCH     WCENTRAL
000247:
000248: 26,3003           30073                           CAE      QRCNTR
000249: 26,3004           00006                           EXTEND
000250: 26,3005           13010                           BZF      +3
000251: 26,3006           31500                           CAE      RDIFF
000252: 26,3007           13011                           TCF      +2
000253: 26,3010           31477                           CAE      QDIFF
000254:
000255: 26,3011           00006                           EXTEND                                         #  RESCALE DIFFERENCE BY MULTIPLYING BY
000256: 26,3012           77651                           MP       BIT7                                  #  2(6)
000257: 26,3013           22075                           LXCH     ETHETA
000258:
000259: 26,3014           30065                           CAE      KCENTRAL                              #  TEST ON MAGNITUDE OF ACCDOT
000260: 26,3015           62765                           AD       -.04266
000261: 26,3016           00006                           EXTEND
000262: 26,3017           63033                           BZMF     ACCDOTSM                              #  BRANCH IF ACCDOT IS SMALL
000263:
000264: 26,3020           37642        ACCDOTLG           CAF      BIT14                                 #  ACCDOT IS COMPARATIVELY LARGE
000265: 26,3021           54076                           TS       SF1                                   #  SET UP SCALE FACTORS
000266: 26,3022           37644                           CAF      BIT12
000267: 26,3023           54077        WSFTEST            TS       SF2
000268:
000269: 26,3024           10070                           CCS      WCENTRAL                              #  TEST ON MAGNITUDE OF OMEGA
000270: 26,3025           63056                           AD       -.04438
000271: 26,3026           13030                           TCF      +2
000272: 26,3027           63056                           AD       -.04438


000274: 26,3030           00006                           EXTEND
000275: 26,3031           63047                           BZMF     ASFTEST                               #  IF SMALL, GO TO ALPHA TEST
000276:
000277: 26,3032           13071                           TCF      WLARGE
000278:
000279: 26,3033           30065        ACCDOTSM           CAE      KCENTRAL                              #  RESCALE IF ACCDOT IS SMALL
000280: 26,3034           00006                           EXTEND
000281: 26,3035           77653                           MP       BIT5                                  #  RESCALE K BY MULTIPLYING BY 2(4)
000282: 26,3036           22065                           LXCH     KCENTRAL
000283: 26,3037           30065                           CAE      KCENTRAL
000284: 26,3040           00006                           EXTEND
000285: 26,3041           70000                           SQUARE
000286: 26,3042           54066                           TS       K2CNTRAL
000287: 26,3043           37646                           CAF      BIT10                                 #  SET UP VARIABLE SCALE FACTORS
000288: 26,3044           54076                           TS       SF1
000289: 26,3045           37654                           CAF      BIT4
000290: 26,3046           13023                           TCF      WSFTEST                               #  GO TEST ON MAGNITUDE OF OMEGA
000291:
000292: 26,3047           10071        ASFTEST            CCS      ACENTRAL                              #  TEST ON MAGNITUDE OF ALPHA
000293: 26,3050           63057                           AD       -.08882
000294: 26,3051           13053                           TCF      +2
000295: 26,3052           63057                           AD       -.08882
000296: 26,3053           00006                           EXTEND
000297: 26,3054           63060                           BZMF     WARESCAL                              #  IF SMALL, GO TO W,A RESCALING
000298: 26,3055           13071                           TCF      WLARGE                                #  IF LARGE, DO SAME AS IF W LARGE
000299:
000300: 26,3056           76450        -.04438            DEC      -.04438
000301: 26,3057           75120        -.08882            DEC      -.08882
000302:
000303: 26,3060           30070        WARESCAL           CAE      WCENTRAL                              #  RESCALE OMEGA BY MULTIPLYING BY 2(4)
000304: 26,3061           00006                           EXTEND
000305: 26,3062           77653                           MP       BIT5
000306: 26,3063           22070                           LXCH     WCENTRAL
000307:
000308: 26,3064           30071                           CAE      ACENTRAL                              #  RESCALE ALPHA BY MULTIPLYING BY 2(3)
000309: 26,3065           00006                           EXTEND
000310: 26,3066           77654                           MP       BIT4
000311: 26,3067           22071                           LXCH     ACENTRAL
000312:
000313: 26,3070           13101                           TCF      ALGORTHM
000314:
000315: 26,3071           30076        WLARGE             CAE      SF1                                   #  RESCALE VARIABLE SCALE FACTORS
000316: 26,3072           00006                           EXTEND
000317: 26,3073           77643                           MP       BIT13                                 #  SF1 = SF1*2(-2)
000318: 26,3074           54076                           TS       SF1
000319: 26,3075           30077                           CAE      SF2
000320: 26,3076           00006                           EXTEND
000321: 26,3077           77652                           MP       BIT6                                  #  SF2 = SF2*2(-9)
000322: 26,3100           54077                           TS       SF2
000323:


000325: 26,3101           30075        ALGORTHM           CAE      ETHETA                                #  GET RESCALED ERROR THETA
000326: 26,3102           00006                           EXTEND
000327: 26,3103           70066                           MP       K2CNTRAL                              #  FORM K(2)*THETA IN D.P.
000328: 26,3104           22074                           LXCH     K2THETA
000329: 26,3105           00006                           EXTEND                                         #  FORM K(2)*THETA*SF2 IN D.P.
000330: 26,3106           70077                           MP       SF2
000331: 26,3107           52075                           DXCH     K2THETA
000332: 26,3110           00006                           EXTEND
000333: 26,3111           70077                           MP       SF2
000334: 26,3112           26075                           ADS      K2THETA    +1
000335:
000336: 26,3113           30070                           CAE      WCENTRAL                              #  GET OMEGA
000337: 26,3114           00006                           EXTEND
000338: 26,3115           70065                           MP       KCENTRAL                              #  FORM K*OMEGA IN D.P.
000339: 26,3116           22065                           LXCH     OMEGA.K
000340: 26,3117           00006                           EXTEND                                         #  FORM OMEGA*K*SF1 IN D.P.
000341: 26,3120           70076                           MP       SF1
000342: 26,3121           52066                           DXCH     OMEGA.K
000343: 26,3122           00006                           EXTEND
000344: 26,3123           70076                           MP       SF1
000345: 26,3124           26066                           ADS      OMEGA.K    +1
000346:
000347: 26,3125           30071                           CAE      ACENTRAL                              #  FORM ALPHA(2) IN D.P.
000348: 26,3126           00006                           EXTEND
000349: 26,3127           70000                           SQUARE
000350: 26,3130           52077                           DXCH     A2CNTRAL
000351:
000352: 26,3131           30071                           CAE      ACENTRAL                              #  GET SGN(ALPHA)
000353: 26,3132           00006                           EXTEND
000354: 26,3133           63137                           BZMF     +4
000355: 26,3134           00006                           EXTEND
000356: 26,3135           30077                           DCA      A2CNTRAL
000357: 26,3136           13141                           TCF      +3
000358: 26,3137           00006                           EXTEND
000359: 26,3140           40077                           DCS      A2CNTRAL
000360: 26,3141           53531                           DXCH     FUNCTION                              #  SAVE AS SGN(ALPHA)ALPHA(2)
000361: 26,3142           00006                           EXTEND
000362: 26,3143           30066                           DCA      OMEGA.K
000363: 26,3144           21531                           DAS      FUNCTION                              #  FORM FUNCT1
000364:
000365: 26,3145           11530                           CCS      FUNCTION                              #  DEL = SGN(FUNCT1)
000366: 26,3146           13152                           TCF      POSFNCT1
000367: 26,3147           13151                           TCF      +2
000368: 26,3150           13154                           TCF      NEGFNCT1
000369:
000370: 26,3151           11531                           CCS      FUNCTION   +1                         #  USE LOW ORDER WORD SINCE HIGH IS ZERO
000371: 26,3152           37656        POSFNCT1           CAF      TWO
000372: 26,3153           13155                           TCF      +2
000373: 26,3154           37665        NEGFNCT1           CAF      ZERO
000374: 26,3155           67667                           AD       NEG1


000376: 26,3156           54072                           TS       DEL
000377:
000378: 26,3157           10072                           CCS      DEL                                   #  MAKE OMEGA*K REALLY DEL*OMEGA*K
000379: 26,3160           13165                           TCF      FUNCT2                                #  (NOTHING NEED BE DONE)
000380: 26,3161           25253        .66667             DEC      .66667
000381: 26,3162           00006                           EXTEND
000382: 26,3163           40066                           DCS      OMEGA.K
000383: 26,3164           52066                           DXCH     OMEGA.K                               #  CHANGE SIGN OF OMEGA*K
000384:
000385: 26,3165           00006        FUNCT2             EXTEND
000386: 26,3166           30066                           DCA      OMEGA.K
000387: 26,3167           53531                           DXCH     FUNCTION                              #  DEL*OMEGA*K
000388: 26,3170           00006                           EXTEND
000389: 26,3171           30077                           DCA      A2CNTRAL
000390: 26,3172           21531                           DAS      FUNCTION                              #  DEL*OMEGA*K + SGN(ALPHA)ALPHA(2)
000391:
000392: 26,3173           30076        FUNCT3             CAE      A2CNTRAL                              #  CALCULATE (2/3)SGN(ALPHA)ALPHA(2)
000393: 26,3174           00006                           EXTEND
000394: 26,3175           73161                           MP       .66667
000395: 26,3176           52077                           DXCH     A2CNTRAL
000396: 26,3177           56001                           XCH      L
000397: 26,3200           00006                           EXTEND
000398: 26,3201           73161                           MP       .66667
000399: 26,3202           26077                           ADS      A2CNTRAL   +1
000400: 26,3203           54001                           TS       L
000401: 26,3204           13206                           TCF      +2
000402: 26,3205           60076                           AD       A2CNTRAL
000403:
000404: 26,3206           52066                           DXCH     OMEGA.K                               #  DEL*OMEGA*K+
000405: 26,3207           20077                           DAS      A2CNTRAL                              #  (2/3)SGN(ALPHA)ALPHA(2)=G
000406:
000407: 26,3210           30076                           CAE      A2CNTRAL                              #  G*ALPHA IN D.P.
000408: 26,3211           00006                           EXTEND
000409: 26,3212           70071                           MP       ACENTRAL
000410: 26,3213           52077                           DXCH     A2CNTRAL
000411: 26,3214           56001                           XCH      L
000412: 26,3215           00006                           EXTEND
000413: 26,3216           70071                           MP       ACENTRAL
000414: 26,3217           26077                           ADS      A2CNTRAL   +1
000415: 26,3220           54001                           TS       L
000416: 26,3221           13223                           TCF      +2
000417: 26,3222           26076                           ADS      A2CNTRAL
000418:
000419: 26,3223           52077                           DXCH     A2CNTRAL                              #  FIRST AND THIRD TERMS
000420: 26,3224           20075                           DAS      K2THETA                               #  SUMMED IN D.P.
000421:
000422:                                                                                                  #  THE FOLLOWING SECTION CALCULATES .707*DEL*FUNCTION(3/2) AND ADDS IT TO THE OTHER TWO TERMS OF NEGUSUM.
000423:
000424: 26,3225           11530                           CCS      FUNCTION                              #  TEST FOR HIGH ORDER WORD NON-ZERO
000425: 26,3226           13273                           TCF      FMAGTEST                              #  YES, SEE IF RESCALING IS NECESSARY


000427: 26,3227           13231                           TCF      +2                                    #  NO, USE LOW ORDER WORD ONLY
000428: 26,3230           26501        .707GTS            DEC      .70711                                #  (CCS HOLE USED FOR DATA)
000429: 26,3231           04177                           TC       T6JOBCHK
000430:
000431: 26,3232           31531                           CAE      FUNCTION   +1                         #  USE LOW ORDER WORD ONLY
000432: 26,3233           04275                           TC       SPROOT                                #  SQUARE ROOT SUBROUTINE CALL
000433: 26,3234           00006                           EXTEND                                         #          3/2
000434: 26,3235           71531                           MP       FUNCTION   +1                         #  FUNCTION
000435: 26,3236           00006                           EXTEND                                         #  (needs to be shifted right 21 places)
000436: 26,3237           77650                           MP       BIT8
000437: 26,3240           56001                           XCH      L
000438: 26,3241           37665                           CAF      ZERO                                  #               3/2
000439: 26,3242           53531                           DXCH     FUNCTION                              #  SAVE FUNCTION    IN FUNCTION LOCATION
000440: 26,3243           13260                           TCF      DELTEST
000441:
000442: 26,3244           31530        SQRESCAL           CAE      FUNCTION                              #  HIGH ORDER WORD OF FUNCTION NEEDS TO BE
000443: 26,3245           00006                           EXTEND                                         #  RESCALED FOR ACCURACY, SO MULTIPLY D.P.
000444: 26,3246           77651                           MP       BIT7                                  #  VALUE BY 2(6)
000445: 26,3247           23530                           LXCH     FUNCTION
000446: 26,3250           37665                           CAF      ZERO
000447: 26,3251           57531                           XCH      FUNCTION   +1
000448: 26,3252           00006                           EXTEND
000449: 26,3253           77651                           MP       BIT7
000450: 26,3254           21531                           DAS      FUNCTION
000451:
000452: 26,3255           37665                           CAF      ZERO                                  #  SET FLAG TO GO TO RESCALE, AND GO TO DO
000453: 26,3256           55527                           TS       MULTFLAG                              #  SQUARE ROOT AND FUNCTION(3/2)
000454: 26,3257           13300                           TCF      DOSPROOT                              #  CALCULATION
000455:
000456: 26,3260           47637        DELTEST            CS       POSMAX                                #  SET FLAG TO GO TO NEGUSUM
000457: 26,3261           55527                           TS       MULTFLAG
000458: 26,3262           10072                           CCS      DEL                                   #  GET DEL*.707
000459: 26,3263           33230                           CAF      .707GTS
000460: 26,3264           13266                           TCF      +2
000461: 26,3265           43230                           CS       .707GTS
000462: 26,3266           13302                           TCF      SPDPMULT                              #  GO TO MULTIPLY ROUTINE
000463:
000464: 26,3267           37637        RESHIFT            CAF      POSMAX                                #  SET FLAG TO GO TO DELTEST
000465: 26,3270           55527                           TS       MULTFLAG
000466: 26,3271           37652                           CAF      BIT6
000467: 26,3272           13302                           TCF      SPDPMULT                              #  GO TO MULTIPLY ROUTINE
000468:
000469: 26,3273           64362        FMAGTEST           AD       63/64+1                               #  IF MAGNITUDE OF HIGH ORDER WORD IS LESS
000470: 26,3274           54000                           OVSK                                           #  THAN 1/64 RESCALE WHOLE D.P. WORD
000471: 26,3275           13244                           TCF      SQRESCAL
000472:
000473: 26,3276           37637                           CAF      POSMAX
000474: 26,3277           55527                           TS       MULTFLAG
000475:
000476: 26,3300           31530        DOSPROOT           CAE      FUNCTION                              #  USE HIGH ORDER WORD ONLY


000478: 26,3301           04275                           TC       SPROOT                                #  SQUARE ROOT SUBROUTINE CALL
000479:
000480: 26,3302           57530        SPDPMULT           XCH      FUNCTION                              #  THIS IS AN OPEN SUBROUTINE WHICH USES
000481: 26,3303           00006                           EXTEND                                         #  MULTFLAG AS A RETURN SWITCH.
000482: 26,3304           71530                           MP       FUNCTION                              #  IT MULTIPLIES FUNCTION (D.P.) BY C(A)
000483: 26,3305           53531                           DXCH     FUNCTION                              #  AND LEAVES THE RESULT IN FUNCTION (D.P.)
000484: 26,3306           00006                           EXTEND                                         #  IT IS USED FOR-
000485: 26,3307           70001                           MP       L                                     #  1) F(1/2)*F
000486: 26,3310           27531                           ADS      FUNCTION   +1                         #  2) (.707*DEL)*F
000487: 26,3311           54001                           TS       L                                     #  3) 2(-9)*F
000488: 26,3312           13314                           TCF      +2
000489: 26,3313           27530                           ADS      FUNCTION
000490:
000491: 26,3314           11527                           CCS      MULTFLAG                              #  POSMAX MEANS GO TO DELTEST
000492: 26,3315           13260                           TCF      DELTEST                               #  ZERO   MEANS GO TO RESHIFT
000493: 26,3316           13267                           TCF      RESHIFT                               #  NEGMAX MEANS GO TO NEGUSUM
000494:
000495: 26,3317           00006        NEGUSUM            EXTEND                                         #  FORM FINAL SUM FOR NEGUSUM
000496: 26,3320           31531                           DCA      FUNCTION
000497: 26,3321           20075                           DAS      K2THETA
000498:
000499: 26,3322           10074                           CCS      K2THETA                               #  TEST FOR ZERO HIGH ORDER PART
000500: 26,3323           13327                           TCF      NEGDRIVE
000501: 26,3324           13326                           TCF      +2
000502: 26,3325           13331                           TCF      POSDRIVE
000503:
000504: 26,3326           10075                           CCS      K2THETA    +1                         #  SIGN TEST ON LOW ORDER PART
000505: 26,3327           37656        NEGDRIVE           CAF      TWO
000506: 26,3330           13332                           TCF      +2
000507: 26,3331           37665        POSDRIVE           CAF      ZERO
000508: 26,3332           67667                           AD       NEG1
000509: 26,3333           50073                           INDEX    ITEMP6                                #  SET NEGUQ,R TO NEG DRIVE
000510: 26,3334           55532                           TS       NEGUQ
000511:
000512: 26,3335           40000                           COM
000513: 26,3336           00006                           EXTEND                                         #  SEND BACK JERK TERM
000514: 26,3337           50073                           INDEX    ITEMP6
000515: 26,3340           71541                           MP       ACCDOTQ
000516: 26,3341           50073                           INDEX    ITEMP6
000517: 26,3342           23542                           LXCH     QACCDOT
000518:
000519: 26,3343           10073                           CCS      QRCNTR                                #  LOOP COUNTER
000520: 26,3344           12771                           TCF      GOQTRIMG
000521:
000522:                                                                                                  #  TRANSFORM JERKS BACK TO GIMBAL AXES.
000523:
000524: 26,3345           31542                           CAE      QACCDOT                               #  SCALED AT PI/2(7)
000525: 26,3346           00006                           EXTEND
000526: 26,3347           71400                           MP       MR12                                  #  SCALED AT 2
000527: 26,3350           55576                           TS       Y3DOT


000529: 26,3351           31544                           CAE      RACCDOT                               #  SCALED AT PI/2(7)
000530: 26,3352           00006                           EXTEND
000531: 26,3353           71402                           MP       MR13                                  #  SCALED AT 2
000532: 26,3354           27576                           ADS      Y3DOT
000533: 26,3355           27576                           ADS      Y3DOT                                 #  SCALED AT PI/2(7)
000534:
000535: 26,3356           31542                           CAE      QACCDOT                               #  SCALED AT PI/2(7)
000536: 26,3357           00006                           EXTEND
000537: 26,3360           71401                           MP       MR22                                  #  SCALED AT 1
000538: 26,3361           55600                           TS       Z3DOT
000539: 26,3362           31544                           CAE      RACCDOT                               #  SCALED AT PI/2(7)
000540: 26,3363           00006                           EXTEND
000541: 26,3364           71403                           MP       MR23                                  #  SCALED AT 1
000542: 26,3365           27600                           ADS      Z3DOT                                 #  SCALED AT PI/2(7)
000543:
000544: 26,3366           03400                           TC       WRCHN12                               #  SEND GIMBAL DRIVES TO SERVOS
000545: 26,3367           14606                           TCF      RESUME                                #  WAIT UNTIL NEXT TRIM GIMBAL RUPT
000546:
000547:                                                                                                  #  WAITLIST TASKS TO SET TRIM GIMBAL TURN OFF BITS.
000548:
000549: 26,3370           37665        OFFGIMQ            CAF      ZERO                                  #  SET Q-AXIS FLAG TO ZERO
000550: 26,3371           55532                           TS       NEGUQ
000551: 26,3372           13375                           TCF      +3
000552: 26,3373           37665        OFFGIMR            CAF      ZERO                                  #  SET R-AXIS FLAG TO ZERO
000553: 26,3374           55534                           TS       NEGUR
000554: 26,3375           03400                           TC       WRCHN12                               #  FLAGS TO CHANNEL BITS
000555: 26,3376           14602                           TCF      TASKOVER
000556:
000557:                                                                                                  #  THE WRCHN12 SUBROUTINE SETS BITS 9,10,11,12 OF CHANNEL 12 ON THE BASIS OF THE CONTENTS OF NEGUQ,NEGUR WHICH ARE
000558:                                                                                                  #  THE NEGATIVES OF THE TRIM GIMBAL DESIRED DRIVES.
000559:
000560: 26,3377           07400        BGIM               OCTAL    07400
000561: 26,3400     0073               CHNL12             EQUALS   ITEMP6
000562:
000563: 26,3400           43377        WRCHN12            CS       BGIM                                  #  SAVE THE REST OF CHANNEL 12 DURING TESTS
000564: 26,3401           00006                           EXTEND
000565: 26,3402           02012                           RAND     12
000566: 26,3403           54073                           TS       CHNL12                                #  (TEMPORARY STORAGE)
000567:
000568: 26,3404           11532                           CCS      NEGUQ
000569: 26,3405           37647                           CAF      BIT9
000570: 26,3406           13410                           TCF      +2
000571: 26,3407           37646                           CAF      BIT10
000572: 26,3410           26073                           ADS      CHNL12
000573:
000574: 26,3411           11534                           CCS      NEGUR
000575: 26,3412           37645                           CAF      BIT11
000576: 26,3413           13415                           TCF      +2
000577: 26,3414           37644                           CAF      BIT12
000578: 26,3415           26073                           ADS      CHNL12                                #  (STORED RESULT NOT USED AT PRESENT)


000580: 26,3416           00006                           EXTEND
000581: 26,3417           01012                           WRITE    12
000582:
000583: 26,3420           00002                           TC       Q                                     #  SIMPLE RETURN ALWAYS
000584:
000585:                                                                                                  #  Q,R-TRANSF TRANSFORMS A Y,Z GIMBAL COORDINATE VARIABLE PAIR (IN A,L) TO PILOT COORDINATES (Q/R), RETURNED IN A.
000586:                                                                                                  #  (THE MATRIX M FROM GIMBAL TO PILOT AXES IS ASSUMED TO BE DONE BY T4RUPT AND SCALED AT +1.)
000587:
000588: 26,3421     0073               QRERAS             EQUALS   ITEMP6
000589:
000590: 26,3421           22073        QTRANSF            LXCH     QRERAS                                #  SAVE Z-AXIS VARIABLE
000591: 26,3422           00006                           EXTEND
000592: 26,3423           71405                           MP       M21                                   #  (Y-AXIS)*M21
000593: 26,3424           56073                           XCH      QRERAS                                #  SAVE, GET Z-AXIS VARIABLE
000594: 26,3425           00006                           EXTEND
000595: 26,3426           71401                           MP       M22                                   #  (Z-AXIS)*M22
000596: 26,3427           60073                           AD       QRERAS                                #  SUM = (Y-AXIS)*M21 + (Z-AXIS)*M22
000597: 26,3430           00002                           TC       Q                                     #  RETURN WITH SUM IN A
000598:
000599: 26,3431           22073        RTRANSF            LXCH     QRERAS                                #  SAVE Z-AXIS VARIABLE
000600: 26,3432           00006                           EXTEND
000601: 26,3433           71406                           MP       M31                                   #  (Y-AXIS)*M31
000602: 26,3434           56073                           XCH      QRERAS                                #  SAVE, GET Z-AXIS VARIABLE
000603: 26,3435           00006                           EXTEND
000604: 26,3436           71403                           MP       M32                                   #  (Z-AXIS)*M32
000605: 26,3437           60073                           AD       QRERAS                                #  SUM = (Y-AXIS)*M31 + (Z-AXIS)*M32
000606: 26,3440           00002                           TC       Q                                     #  RETURN WITH SUM IN A
000607:
000608: 26,3441           25253        (2/3)              DEC      0.66667
000609:


000611:                                                                                                  #  SUBROUTINE: TGOFFCAL            MOD. NO. 1  DATE: AUGUST 22, 1966
000612:
000613:                                                                                                  #  PROGRAM DESIGN BY: RICHARD D. GOSS (MIT/IL)
000614:
000615:                                                                                                  #  PROGRAM IMPLEMENTATION BY: JONATHAN D. ADDELSTON (ADAMS ASSOCIATES)
000616:
000617:                                                                                                  #  THIS SUBROUTINE CALCULATES THE TRIM GIMBAL SHUTDOWN TIME FOR EITHER THE Q OR THE R AXIS (DEPENDING ON THE
000618:                                                                                                  #  CALLING SEQUENCE).  THIS TIME IS SCALED FOR IMMEDIATE USE BY A WAITLIST CALL AS SHOWN IN THE CALLING SEQUENCES.
000619:                                                                                                  #  IF THE TIME-TO-GO IS MORE THAN TWO MINUTES, IT IS LIMITED TO TWO MINUTES DUE TO THE WAITLIST SPECIFICATION.  IF
000620:                                                                                                  #  THE TIME-TO-GO IS LESS THAN TEN MILLISECONDS, THE SHUTDOWN IS PERFORMED IMMEDIATELY AND THE WAITLIST CALL IS
000621:                                                                                                  #  BY-PASSED.  FINALLY, IF THE TRIM GIMBAL SHOULD HAPPEN TO BE MOVING IN A DIRECTION WHICH INCREASES THE ANGULAR
000622:                                                                                                  #  ACCELERATION ABOUT THE GIVEN AXIS, THEN THE NEGATIVE GIMBAL DRIVE FLAG IS IMMEDIATELY COMPLEMENTED AND THE
000623:                                                                                                  #  NORMAL CALCULATIONS ARE RESUMED.
000624:
000625:                                                                                                  #  THESE TIME-TO-GO CALCULATIONS ARE DESIGNED TO DRIVE THE TRIM GIMBAL TO A POSITION WHERE THE DESCENT ENGINE WILL
000626:                                                                                                  #  CAUSE NO ANGULAR ACCELERATION.  THIS SUBROUTINE IS CALLED ONLY FROM THE WAITLIST TASK CHEKDRIV WHICH IS
000627:                                                                                                  #  INITIATED ONLY WHEN THE TRIM GIMBAL CONTROL LAW HAS LOST CONTROL OF THE LEM VEHICLE ATTITUDE AND MUST RETURN TO
000628:                                                                                                  #  THE USE OF REACTION CONTROL SYSTEM JETS.
000629:
000630:                                                                                                  #  CALLING SEQUENCES:
000631:
000632:                                                                                                  #                      26,1000  3 7657 1            CAF    ZERO           Q-AXIS INDEXER
000633:                                                                                                  #                      26,1001  0 $$$$ $            TC     TGOFFCAL       CALL TGOFFCAL (*** REPLACE $S ***)
000634:                                                                                                  #                      26,1002  0 4511 0            TC     WAITLIST       CALL WAITLIST WITH CALCULATED TIME
000635:                                                                                                  #                      26,1003   0$$$$ $            2CADR  OFFGIMQ        2CADR OF Q-AXIS SHUTDOWN PROGRAM
000636:                                                                                                  #                      26,1004   54006 1
000637:
000638:                                                                                                  #                      26,1005  3 7657 1            CAF    TWO            R-AXIS INDEXER
000639:                                                                                                  #                      26,1006  0 $$$$ $            TC     TGOFFCAL       CALL TGOFFCAL (*** REPLACE $S ***)
000640:                                                                                                  #                      26,1007  0 4511 0            TC     WAITLIST       CALL WAITLIST WITH CALCULATED TIME
000641:                                                                                                  #                      26,1010   0$$$$ $            2CADR  OFFGIMR        2CADR OF R-AXIS SHUTDOWN PROGRAM
000642:                                                                                                  #                      26,1011   54006 1
000643:
000644:                                                                                                  #  SUBROUTINES CALLED: NONE, BUT WRCHNL12 IS CALLED AFTER BOTH TGOFFCALL CALLS.
000645:
000646:                                                                                                  #  NORMAL EXITS: TO WAITLIST CALL OR BEYOND 2CADR IN CALLING SEQUENCE AS SPECIFIED ABOVE.
000647:
000648:                                                                                                  #  ALARM OR ABORT EXIT MODES: NONE
000649:
000650:                                                                                                  #  INPUT: 1. THE AXIS INDEXER: 0 FOR Q, 2 FOR R (SEE CALLING SEQUENCES)
000651:                                                                                                  #         2. THE SIGNED TIME DERIVATIVE OF ACCELERATION (QACCDOT OR RACCDOT) SCALED AT PI/2(7) RAD/SEC(3).
000652:                                                                                                  #         3. THE ACCELERATION APPROXIMATION FROM THE DESCENT KALMAN FILTER TRANSFORMED TO PILOT AXES (ALPHAQ OR
000653:                                                                                                  #  ALPHAR) SCALED AT PI/8 RAD/SEC(2).
000654:                                                                                                  #         4. THE NEGATIVE GIMBAL DRIVE FLAG (NEGUQ AND NEGUR) WHERE +1 BIT INDICATES A GIMBAL DRIVE DIRECTION WHICH
000655:                                                                                                  #  DECREASES THE SIGNED GIMBAL ANGLE, WHERE -1 BIT INDICATES A GIMBAL DRIVE DIRECTION WHICH INCREASES THE SIGNED
000656:                                                                                                  #  GIMBAL ANGLE, AND WHERE ZERO INDICATES NO DRIVE.
000657:                                                                                                  #         5. CHANNEL 12 CONTAINS THE TRIM GIMBAL DRIVES AND OTHER BITS.
000658:
000659:                                                                                                  #  ERASEABLE STORAGE CONFIGURATION (NEEDED BY THE INDEXING METHODS):


000661:                                                                                                  #                NEGUQ           ERASE           +2                              # NEGATIVE OF Q-AXIS GIMBAL DRIVE
000662:                                                                                                  #                (SPWORD)        EQUALS          NEGUQ           +1              # ANY S.P. ERASABLE NUMBER, NOW THRSTCMD
000663:                                                                                                  #                NEGUR           EQUALS          NEGUQ           +2              # NEGATIVE OF R-AXIS GIMBAL DRIVE
000664:
000665:                                                                                                  #                QACCDOT         ERASE           +2                              # Q-JERK SCALED AT PI/2(7) RAD/SEC(3) +SGN
000666:                                                                                                  #                (SPWORD)        EQUALS          QACCDOT         +1              # ANY S.P. ERASABLE NUMBER, NOW ACCDOTR
000667:                                                                                                  #                RACCDOT         EQUALS          QACCDOT         +2              # R-JERK SCALED AT PI/2(7) RAD/SEC(3) +SGN
000668:                                                                                                  #  NOTE: NOW ACCDOTQ MUST PRECEDE QACCDOT
000669:
000670:                                                                                                  #                ALPHAQ          ERASE           +2                              # Q-AXIS ACCELERATION SCALED AT PI/8 R/S2
000671:                                                                                                  #                (SPWORD)        EQUALS          ALPHAQ          +1              # ANY S.P. ERASABLE NUMBER, NOW OMEGAR
000672:                                                                                                  #                ALPHAR          EQUALS          ALPHAQ          +2              # R-AXIS ACCELERATION SCALED AT PI/8 R/S2
000673:                                                                                                  #  NOTE: NOW OMEGAP,OMEGAQ PRECEDE ALPHAQ
000674:
000675:                                                                                                  #  DEBRIS: L, Q, ITEMP1, ITEMP2, ITEMP6
000676:
000677:
000678: 26,3442           54065        TGOFFCAL           TS       QRNDXER                               #  Q OR R AXIS INDEXER
000679: 26,3443           50065                           INDEX    QRNDXER                               #  GET SIGNED JERK TERM SCALED AT PI/2(7)
000680: 26,3444           31542                           CAE      QACCDOT                               #  IN RADIANS/SECOND(3)
000681: 26,3445           00006                           EXTEND                                         #  IF THETA TRIPLE-DOT IS ZERO, THEN RESET
000682: 26,3446           13511                           BZF      TGOFFNOW                              #  DRIVE TO ZERO (SHOULD BE REDUNDANT)
000683: 26,3447           54066                           TS       NZACCDOT                              #  SAVE NON-ZERO JERK FOR DENOMINATOR
000684: 26,3450           00006                           EXTEND                                         #  TEST FOR REDUCING ACCELERATION IS SAME
000685: 26,3451           50065                           INDEX    QRNDXER                               #  AS TEST FOR SAME SIGN IN -ACC AND ACCDOT
000686: 26,3452           71420                           MP       ALPHAQ                                #  IF POSITIVE PRODUCT, THEN GIMBAL DRIVE
000687: 26,3453           10000                           CCS      A                                     #  SHOULD BE REVERSED: NOTE THAT A SIMPLE
000688: 26,3454           13460                           TCF      NEGTIME                               #  BZMF TEST WILL NOT WORK WHEN THE MP
000689: 26,3455           13460                           TCF      NEGTIME                               #  INSTRUCTION RESULTS IN ZERO IN A
000690: 26,3456           13466                           TCF      POSTIME                               #  AT POSTIME IT IS INSURED THAT A POSITIVE
000691: 26,3457           13466                           TCF      POSTIME                               #  TIME WILL RESULT AND ACC WILL GO TO ZERO
000692:
000693: 26,3460           50065        NEGTIME            INDEX    QRNDXER                               #  COMPLEMENT THE DRIVE DIRECTION FLAG
000694: 26,3461           41532                           CS       NEGUQ
000695: 26,3462           50065                           INDEX    QRNDXER
000696: 26,3463           55532                           TS       NEGUQ
000697: 26,3464           40066                           CS       NZACCDOT                              #  COMPLEMENT ACCDOT TO GET A GUARANTEED
000698: 26,3465           54066                           TS       NZACCDOT                              #  POSITIVE TIME FROM QUOTIENT
000699:
000700: 26,3466           50065        POSTIME            INDEX    QRNDXER                               #  TIME = -ACC/ACCDOT (POSITIVE VALUE)
000701: 26,3467           41420                           CS       ALPHAQ                                #  SCALED AT PI/8 RADIANS/SECOND(2)
000702: 26,3470           00006                           EXTEND                                         #  MULTIPLY 1/16
000703: 26,3471           77645                           MP       BIT11                                 #  TO CHANGE SCALING TO 2PI RAD/SEC(2)
000704: 26,3472           00006                           EXTEND                                         #  ACCDOT SCALED AT PI/2(7) IN DENOMINATOR
000705: 26,3473           10066                           DV       NZACCDOT                              #  YIELDS TIME SCALED AT 256 SECONDS
000706: 26,3474           63517                           AD       -2MIN256                              #  COMPARE WITH MAXIMUM 2 MINUTE DELAY OF
000707: 26,3475           10000                           CCS      A                                     #  WAITLIST ACTION (TIMES AT 256 SECONDS)
000708: 26,3476           43516                           CS       -2MINWL                               #  MORE THAN TWO MINUTES, USE 2 MINUTES
000709: 26,3477           00002                           TC       Q                                     #  RETURN WL CALL WITH 2 MIN AT 1BIT=10MS


000711: 26,3500           67657                           AD       ONE                                   #  (CORRECT FOR CCS BIT)
000712: 26,3501           00006                           EXTEND                                         #  CALCULATE DT = ABS(T-2MIN)
000713: 26,3502           73520                           MP       128/164                               #  AND RESCALE DT TO WAITLIST SCALING
000714: 26,3503           20001                           DDOUBL
000715: 26,3504           63516                           AD       -2MINWL                               #  -T = DT + 2MIN (IN WAITLIST SCALING)
000716: 26,3505           40000                           COM                                            #  MAKE T POSITIVE FOR WAITLIST
000717: 26,3506           00006                           EXTEND                                         #  MAKE FINAL CHECK TO INSURE T .G. 10MS
000718: 26,3507           63511                           BZMF     TGOFFNOW                              #  DO SHUTDOWN NOW (COULD USE BZF)
000719: 26,3510           00002                           TC       Q                                     #  RETURN TO WAITLIST CALL WITH WL TIME
000720:
000721: 26,3511           37665        TGOFFNOW           CAF      ZERO                                  #  MAKE SURE PLUS ZERO FOR DRIVE FLAG
000722: 26,3512           50065                           INDEX    QRNDXER                               #  TURN OFF DRIVE FLAG NOW
000723: 26,3513           55532                           TS       NEGUQ
000724: 26,3514           50002                           INDEX    Q
000725: 26,3515           00003                           TC       3                                     #  SKIP WAITLIST CALL AND 2CADR
000726:
000727:
000728: 26,3516     0065               QRNDXER            EQUALS   ITEMP1                                #  INDEXER FOR Q OR R AXIS
000729: 26,3516     0066               NZACCDOT           EQUALS   ITEMP2                                #  TEMPORARY STORAGE FOR NON-ZERO ACCDOT
000730: 26,3516           50437        -2MINWL            DEC      -12000     B-14                       #  - 2 MINUTES SCALED FOR WAITLIST
000731: 26,3517           60777        -2MIN256           DEC      -.46875                               #  - 2 MINUTES SCALED AT 256
000732: 26,3520           31000        128/164            OCTAL    31000                                 #  128/163.84 CONVERTING 256 TO WAITLIST/2
000733: 26,3521                        ENDDAP26           EQUALS

End of include-file TRIM_GIMBAL_CONTROL_SYSTEM.agc.  Parent file is MAIN.agc


