
Source Code


000002:                                                                                                  ## Copyright:    Public domain.
000003:                                                                                                  ## Filename:     WAITLIST.agc
000004:                                                                                                  ## Purpose:      Part of the source code for Aurora (revision 12).
000005:                                                                                                  ## Assembler:    yaYUL
000006:                                                                                                  ## Contact:      Ron Burkey <info@sandroid.org>.
000007:                                                                                                  ## Website:      https://www.ibiblio.org/apollo.
000008:                                                                                                  ## Pages:        139-147
000009:                                                                                                  ## Mod history:  2016-09-20 JL   Created.
000010:                                                                                                  ##               2016-12-08 RSB  Proofed comments with octopus/ProoferComments
000011:                                                                                                  ##                               and fixed the errors found.
000012:
000013:                                                                                                  ## This source code has been transcribed or otherwise adapted from
000014:                                                                                                  ## digitized images of a hardcopy from the private collection of
000015:                                                                                                  ## Don Eyles.  The digitization was performed by archive.org.
000016:
000017:                                                                                                  ## Notations on the hardcopy document read, in part:
000018:
000019:                                                                                                  ##       473423A YUL SYSTEM FOR BLK2: REVISION 12 of PROGRAM AURORA BY DAP GROUP
000020:                                                                                                  ##       NOV 10, 1966
000021:
000022:                                                                                                  ##       [Note that this is the date the hardcopy was made, not the
000023:                                                                                                  ##       date of the program revision or the assembly.]
000024:
000025:                                                                                                  ## The scan images (with suitable reduction in storage size and consequent
000026:                                                                                                  ## reduction in image quality) are available online at
000027:                                                                                                  ##       https://www.ibiblio.org/apollo.
000028:                                                                                                  ## The original high-quality digital images are available at archive.org:
000029:                                                                                                  ##       https://archive.org/details/aurora00dapg
000030:


000032:
000033:                                                                                                  #  GROUNDRULE....DELTA T SHOULD NOT EXCEED 12000 (= 2 MINUTES)
000034:
000035:    4536                                           SETLOC   ENDEXECF
000036:
000037:    4536  E3,1400                                  EBANK=   LST1                                  #  TASK LISTS IN SWITCHED E BANK.
000038:
000039:    4536           56002        WAITLIST           XCH      Q                                     #  SAVE DELTA T IN Q AND RETURN IN
000040:    4537           54065                           TS       WAITEXIT                              #  WAITEXIT.
000041:    4540           00006                           EXTEND
000042:    4541           50000                           INDEX    A
000043:    4542           30001                           DCA      0                                     #  PICK UP 2CADR OF TASK.
000044:    4543           54070                           TS       WAITADR                               #  BBCON WILL REMAIN IN L.
000045:    4544           34553        DLY2               CAF      WAITBB                                #  ENTRY FROM FIXDELAY AND VARDELAY.
000046:    4545           56006                           XCH      BBANK
000047:    4546           12566                           TCF      WAIT2
000048:
000049:                                                                                                  #  RETURN TO CALLER AFTER TASK INSERTION:
000050:
000051:    4547           30066        LVWTLIST           CA       WAITBANK
000052:    4550           54006                           TS       BBANK
000053:    4551           50065                           INDEX    WAITEXIT
000054:    4552           00002                           TC       2
000055:
000056:    4553           02003        WAITBB             BBCON    WAIT2
000057:
000058:                                                                                                  #  RETURN TO CALLER +2 AFTER WAITING DT SPECIFIED AT CALLER +1.
000059:
000060:    4554           50002        FIXDELAY           INDEX    Q                                     #  BOTH ROUTINES MUST BE CALLED UNDER
000061:    4555           30000                           CAF      0                                     #  WAITLIST CONTROL AND TERMINATE THE TASK
000062:    4556           24002                           INCR     Q                                     #  IN WHICH THEY WERE CALLED.
000063:
000064:                                                                                                  #  RETURN TO CALLER +1 AFTER WAITING THE DT AS ARRIVING IN A.
000065:
000066:    4557           56002        VARDELAY           XCH      Q                                     #  DT TO Q.  TASK ADRES TO WAITADR.
000067:    4560           54070                           TS       WAITADR
000068:    4561           30006                           CA       BBANK                                 #  BBANK IS SAVED DURING DELAY.
000069:    4562           54001                           TS       L
000070:    4563           34566                           CAF      DELAYEX
000071:    4564           54065                           TS       WAITEXIT                              #  GO TO TASKOVER AFTER TASK ENTRY.
000072:    4565           14544                           TCF      DLY2
000073:
000074:    4566           14600        DELAYEX            TCF      TASKOVER   -2                         #  RETURNS TO TASKOVER
000075:


000077:
000078:                                                                                                  #  ENDTASK MUST BE ENTERED IN FIXED-FIXED SO IT IS DISTINGUISHABLE BY ITS ADRES ALONE.
000079:
000080:    4567           73206 73774  ENDTASK            -2CADR   SVCT3
000081:
000082:    4571           10063        SVCT3              CCS      STATE      +2                         #  DRIFT FLAG
000083:    4572           14602                           TCF      TASKOVER
000084:    4573           14602                           TCF      TASKOVER
000085:    4574           14575                           TCF      +1
000086:
000087:    4575           34533                           CAF      PRIO35                                #  COMPENSATE FOR NBD COEFFICIENTS ONLY
000088:    4576           04363                           TC       NOVAC                                 #      ENABLE EVERY 81.93 SECONDS
000089:    4577           02257 16003                     2CADR    NBDONLY                               #  EBANK IS SET TO 3
000090:
000091:    4601           14602                           TCF      TASKOVER
000092:


000094:
000095:                                                                                                  #  BEGIN TASK INSERTION.
000096:
000097: 01,2566                                           SETLOC   ENDEXECS
000098:
000099: 01,2566           54066        WAIT2              TS       WAITBANK                              #  BBANK OF CALLING PROGRAM.
000100: 01,2567           40026                           CS       TIME3
000101: 01,2570           62571                           AD       +1                                    #  CCS  A  = + 1/4
000102: 01,2571           10000                           CCS      A                                     #  TEST  1/4 - C(TIME3).  IF POSITIVE,
000103:                                                                                                  #  IT MEANS THAT TIME3 OVERFLOW HAS OCCURRED PRIOR TO CS  TIME3 AND THAT
000104:                                                                                                  #  C(TIME3) = T - T1, INSTEAD OF 1.0 - (T1 - T).  THE FOLLOWING FOUR
000105:                                                                                                  #  ORDERS SET C(A) = TD - T1 + 1 IN EITHER CASE.
000106:
000107: 01,2572           66042                           AD       OCT40001                              #  OVERFLOW HAS OCCURRED.  SET C(A) =
000108: 01,2573           40000                           CS       A                                     #  T - T1 + 3/4 - 1
000109:
000110:                                                                                                  #  NORMAL CASE (C(A) MINUS) YIELDS SAME C(A)  -(-(1.0-(T1 - T))+1/4)-1
000111:
000112: 01,2574           62722                           AD       OCT50001
000113: 01,2575           60002                           AD       Q                                     #  RESULT = TD - T1 + 1.
000114:
000115: 01,2576           10000                           CCS      A                                     #  TEST TD - T1 + 1
000116:
000117: 01,2577           61400                           AD       LST1                                  #  IF TD - T1 POS, GO TO WTLST5 WITH
000118: 01,2600           12642                           TCF      WTLST5                                #  C(A) = (TD - T1) + C(LST1) = TD-T2+1
000119:
000120: 01,2601           12602                           NOOP
000121: 01,2602           40002                           CS       Q
000122:
000123:                                                                                                  #  NOTE THAT THIS PROGRAM SECTION IS NEVER ENTERED WHEN T-T1 G/E -1,
000124:                                                                                                  #  SINCE TD-T1+1 = (TD-T) + (T-T1+1), AND DELTA T = TD-T G/E +1 .  (G/E
000125:                                                                                                  #  SYMBOL MEANS GREATER THAN OR EQUAL TO).  THUS THERE NEED BE NO CON-
000126:                                                                                                  #  CERN OVER A PREVIOUS OR IMMINENT OVERFLOW OF TIME3 HERE.
000127:
000128: 01,2603           67642                           AD       POS1/2                                #  WHEN TD IS NEXT, FORM QUANTITY
000129: 01,2604           67642                           AD       POS1/2                                #    1.0 - DELTA T = 1.0 - (TD - T)
000130: 01,2605           56026                           XCH      TIME3
000131: 01,2606           67641                           AD       NEGMAX
000132: 01,2607           60002                           AD       Q                                     #  1.0 - DELTAT T NOW COMPLETE.
000133: 01,2610           00006                           EXTEND                                         #  ZERO INDEX Q.
000134: 01,2611           22007                           QXCH     7                                     #  (ZQ)
000135:


000137:
000138: 01,2612           57400        WTLST4             XCH      LST1
000139: 01,2613           57401                           XCH      LST1       +1
000140: 01,2614           57402                           XCH      LST1       +2
000141: 01,2615           57403                           XCH      LST1       +3
000142: 01,2616           57404                           XCH      LST1       +4
000143: 01,2617           57405                           XCH      LST1       +5
000144: 01,2620           57406                           XCH      LST1       +6
000145: 01,2621           57407                           XCH      LST1       +7
000146:
000147: 01,2622           30070                           CA       WAITADR                               #  (MINOR PART OF TASK CADR HAS BEEN IN L.)
000148: 01,2623           50002                           INDEX    Q
000149: 01,2624           12625                           TCF      +1
000150:
000151: 01,2625           53411                           DXCH     LST2
000152: 01,2626           53413                           DXCH     LST2       +2
000153: 01,2627           53415                           DXCH     LST2       +4
000154: 01,2630           53417                           DXCH     LST2       +6
000155: 01,2631           53421                           DXCH     LST2       +8D
000156: 01,2632           53423                           DXCH     LST2       +10D                       #  AT END, CHECK THAT C(LST2 +10) IS STD
000157: 01,2633           53425                           DXCH     LST2       +12D
000158: 01,2634           53427                           DXCH     LST2       +14D
000159: 01,2635           53431                           DXCH     LST2       +16D
000160: 01,2636           64567                           AD       ENDTASK                               #    END ITEM, AS CHECK FOR EXCEEDING
000161:                                                                                                  #    THE LENGTH OF THE LIST.
000162: 01,2637           00006                           EXTEND                                         #  DUMMY TASK ADRES SHOULD BE IN FIXED-
000163: 01,2640           14547                           BZF      LVWTLIST                              #  FIXED SO ITS ADRES ALONE DISTINGUISHES
000164: 01,2641           12715                           TCF      WTABORT                               #  IT.
000165:


000167:
000168: 01,2642           10000        WTLST5             CCS      A                                     #  TEST TD - T2 + 1
000169: 01,2643           61401                           AD       LST1       +1
000170: 01,2644           12650                           TCF      +4
000171: 01,2645           67657                           AD       ONE
000172: 01,2646           02723                           TC       WTLST2
000173: 01,2647           00001                           OCT      1
000174:
000175: 01,2650           10000                 +4        CCS      A                                     #  TEST TD - T3 + 1
000176: 01,2651           61402                           AD       LST1       +2
000177: 01,2652           12656                           TCF      +4
000178: 01,2653           67657                           AD       ONE
000179: 01,2654           02723                           TC       WTLST2
000180: 01,2655           00002                           OCT      2
000181:
000182: 01,2656           10000                 +4        CCS      A                                     #  TEST TD - T4 + 1
000183: 01,2657           61403                           AD       LST1       +3
000184: 01,2660           12664                           TCF      +4
000185: 01,2661           67657                           AD       ONE
000186: 01,2662           02723                           TC       WTLST2
000187: 01,2663           00003                           OCT      3
000188:
000189: 01,2664           10000                 +4        CCS      A                                     #  TEST TD - T5 + 1
000190: 01,2665           61404                           AD       LST1       +4
000191: 01,2666           12672                           TCF      +4
000192: 01,2667           67657                           AD       ONE
000193: 01,2670           02723                           TC       WTLST2
000194: 01,2671           00004                           OCT      4
000195:
000196: 01,2672           10000                 +4        CCS      A                                     #  TEST TD - T6 + 1
000197: 01,2673           61405                           AD       LST1       +5
000198: 01,2674           12700                           TCF      +4
000199: 01,2675           67657                           AD       ONE
000200: 01,2676           02723                           TC       WTLST2
000201: 01,2677           00005                           OCT      5
000202:
000203: 01,2700           10000                 +4        CCS      A                                     #  TEST TD - T7 + 1
000204: 01,2701           61406                           AD       LST1       +6
000205: 01,2702           12706                           TCF      +4
000206: 01,2703           67657                           AD       ONE
000207: 01,2704           02723                           TC       WTLST2
000208: 01,2705           00006                           OCT      6
000209:


000211:
000212: 01,2706           10000                 +4        CCS      A
000213: 01,2707           61407                           AD       LST1       +7
000214: 01,2710           12714                           TCF      +4
000215: 01,2711           67657                           AD       ONE
000216: 01,2712           02723                           TC       WTLST2
000217: 01,2713           00007                           OCT      7
000218:
000219: 01,2714           10000                 +4        CCS      A
000220: 01,2715           05446        WTABORT            TC       ABORT                                 #  NO ROOM IN THE INN.
000221: 01,2716           01203                           OCT      1203
000222:
000223: 01,2717           67657                           AD       ONE
000224: 01,2720           02723                           TC       WTLST2
000225: 01,2721           00010                           OCT      10
000226:
000227: 01,2722           50001        OCT50001           OCT      50001
000228:


000230:
000231:                                                                                                  #  THE ENTRY TC WTLST2 JUST PRECEDING OCT  N  IS FOR T  LE TD LE T   -1.
000232:                                                                                                  #                                                     N           N+1
000233:
000234:                                                                                                  #  (LE MEANS LESS THAN OR EQUAL TO).  AT ENTRY, C(A) = -(TD - T   + 1)
000235:                                                                                                  #                                                              N+1
000236:
000237:                                                                                                  #  THE LST1 ENTRY -(T   - T +1) IS TO BE REPLACED BY -(TD - T  + 1), AND
000238:                                                                                                  #                    N+1   N                                 N
000239:
000240:                                                                                                  #  THE ENTRY -(T   - TD + 1) IS TO BE INSERTED IMMEDIATELY FOLLOWING.
000241:                                                                                                  #               N+1
000242:
000243: 01,2723           54071        WTLST2             TS       WAITTEMP                              #      C(A) = -(TD - T   + 1)
000244: 01,2724           50002                           INDEX    Q
000245: 01,2725           30000                           CAF      0
000246: 01,2726           54002                           TS       Q                                     #  INDEX VALUE INTO Q.
000247:
000248: 01,2727           37657                           CAF      ONE
000249: 01,2730           60071                           AD       WAITTEMP
000250: 01,2731           50002                           INDEX    Q                                     #  C(A) = -(TD - T ) + 1.
000251: 01,2732           27377                           ADS      LST1       -1                         #                 N
000252:
000253: 01,2733           40071                           CS       WAITTEMP
000254: 01,2734           50002                           INDEX    Q
000255: 01,2735           12612                           TCF      WTLST4
000256:
000257:                                                                                                  #  C(TIME3)  = 1.0 - (T1 - T)
000258:
000259:                                                                                                  #  C(LST1  ) = - (T2 - T1) + 1
000260:                                                                                                  #  C(LST1+1) = - (T3 - T2) + 1
000261:                                                                                                  #  C(LST1+2) = - (T4 - T3) + 1
000262:                                                                                                  #  C(LST1+3) = - (T5 - T4) + 1
000263:                                                                                                  #  C(LST1+4) = - (T6 - T5) + 1
000264:
000265:                                                                                                  #  C(LST2   ) = 2CADR  TASK1
000266:                                                                                                  #  C(LST2+2 ) = 2CADR  TASK2
000267:                                                                                                  #  C(LST2+4 ) = 2CADR  TASK3
000268:                                                                                                  #  C(LST2+6 ) = 2CADR  TASK4
000269:                                                                                                  #  C(LST2+8 ) = 2CADR  TASK5
000270:                                                                                                  #  C(LST2+10) = 2CADR  TASK6
000271:


000273:
000274:                                                                                                  #  ENTERS HERE ON T3 RUPT TO DISPATCH WAITLISTED TASK.
000275:
000276: 01,2736           54016        T3RUPT             TS       BANKRUPT
000277: 01,2737           00006                           EXTEND
000278: 01,2740           22012                           QXCH     QRUPT
000279:
000280: 01,2741           37640        T3RUPT2            CAF      NEG1/2                                #  DISPATCH WAITLIST TASK.
000281: 01,2742           57407                           XCH      LST1       +7
000282: 01,2743           57406                           XCH      LST1       +6
000283: 01,2744           57405                           XCH      LST1       +5
000284: 01,2745           57404                           XCH      LST1       +4                         #  1.  MOVE UP LST1 CONTENTS, ENTERING
000285: 01,2746           57403                           XCH      LST1       +3                         #      A VALUE OF 1/2 +1 AT THE BOTTOM
000286: 01,2747           57402                           XCH      LST1       +2                         #      FOR T6-T5, CORRESPONDING TO THE
000287: 01,2750           57401                           XCH      LST1       +1                         #      INTERVAL 81.91 SEC FOR ENDTASK.
000288: 01,2751           57400                           XCH      LST1
000289: 01,2752           67637                           AD       POSMAX                                #  2. SET T3 = 1.0 - T2 -T USING LIST 1.
000290: 01,2753           26026                           ADS      TIME3                                 #  SO T3 WONT TICK DURING UPDATE.
000291: 01,2754           55070                           TS       RUPTAGN
000292: 01,2755           47665                           CS       ZERO
000293: 01,2756           55070                           TS       RUPTAGN                               #  SETS RUPTAGN TO +1 ON OVERFLOW.
000294:
000295: 01,2757           00006                           EXTEND                                         #  DISPATCH TASK.
000296: 01,2760           44570                           DCS      ENDTASK
000297: 01,2761           53431                           DXCH     LST2       +16D
000298: 01,2762           53427                           DXCH     LST2       +14D
000299: 01,2763           53425                           DXCH     LST2       +12D
000300: 01,2764           53423                           DXCH     LST2       +10D
000301: 01,2765           53421                           DXCH     LST2       +8D
000302: 01,2766           53417                           DXCH     LST2       +6
000303: 01,2767           53415                           DXCH     LST2       +4
000304: 01,2770           53413                           DXCH     LST2       +2
000305: 01,2771           53411                           DXCH     LST2
000306:
000307: 01,2772           52006                           DTCB
000308:
000309: 01,2773                        ENDWAITS           EQUALS
000310:


000312:
000313:                                                                                                  #  RETURN, AFTER EXECUTION OF T3 OVERFLOW TASK:
000314:
000315:    4602                                           BLOCK    02
000316:
000317:    4602           11070        TASKOVER           CCS      RUPTAGN                               #  IF +1 RETURN TO T3RUPT, IF -0 RESUME.
000318:    4603           34553                           CAF      WAITBB
000319:    4604           54006                           TS       BBANK
000320:    4605           12741                           TCF      T3RUPT2                               #  DISPATCH NEXT TASK IF IT WAS DUE.
000321:
000322:    4606           00006        RESUME             EXTEND
000323:    4607           22012                           QXCH     QRUPT
000324:    4610           30016        NOQRSM             CA       BANKRUPT
000325:    4611           54006                           TS       BBANK
000326:    4612           52011        NOQBRSM            DXCH     ARUPT
000327:    4613           50017                           RESUME
000328:
000329:    4614                        ENDWAITF           EQUALS                                         #  LAST FIXED-FIXED LOCATION OF T3RUPT.

End of include-file WAITLIST.agc.  Parent file is MAIN.agc


