
Source Code


000002:                                                                                                  #  Copyright:    Public domain.
000003:                                                                                                  #  Filename:     WAITLIST.agc
000004:                                                                                                  #  Purpose:      Part of the source code for Aurora (revision 12).
000005:                                                                                                  #  Assembler:    yaYUL
000006:                                                                                                  #  Contact:      Ron Burkey <info@sandroid.org>.
000007:                                                                                                  #  Website:      https://www.ibiblio.org/apollo.
000008:                                                                                                  #  Pages:        139-147
000009:                                                                                                  #  Mod history:  2016-09-20 JL   Created.
000010:
000011:                                                                                                  #  This source code has been transcribed or otherwise adapted from
000012:                                                                                                  #  digitized images of a hardcopy from the private collection of
000013:                                                                                                  #  Don Eyles.  The digitization was performed by archive.org.
000014:
000015:                                                                                                  #  Notations on the hardcopy document read, in part:
000016:
000017:                                                                                                  #        473423A YUL SYSTEM FOR BLK2: REVISION 12 of PROGRAM AURORA BY DAP GROUP
000018:                                                                                                  #        NOV 10, 1966
000019:
000020:                                                                                                  #        [Note that this is the date the hardcopy was made, not the
000021:                                                                                                  #        date of the program revision or the assembly.]
000022:
000023:                                                                                                  #  The scan images (with suitable reduction in storage size and consequent
000024:                                                                                                  #  reduction in image quality) are available online at
000025:                                                                                                  #        https://www.ibiblio.org/apollo.
000026:                                                                                                  #  The original high-quality digital images are available at archive.org:
000027:                                                                                                  #        https://archive.org/details/aurora00dapg
000028:


000030:
000031:                                                                                                  #  GROUNDRULE....DELTA T SHOULD NOT EXCEED 12000 (= 2 MINUTES)
000032:
000033:    4536                                           SETLOC   ENDEXECF
000034:
000035:    4536  E3,1400                                  EBANK=   LST1                                  #  TASK LISTS IN SWITCHED E BANK.
000036:
000037:    4536           56002        WAITLIST           XCH      Q                                     #  SAVE DELTA T IN Q AND RETURN IN
000038:    4537           54065                           TS       WAITEXIT                              #  WAITEXIT.
000039:    4540           00006                           EXTEND
000040:    4541           50000                           INDEX    A
000041:    4542           30001                           DCA      0                                     #  PICK UP 2CADR OF TASK.
000042:    4543           54070                           TS       WAITADR                               #  BBCON WILL REMAIN IN L.
000043:    4544           34553        DLY2               CAF      WAITBB                                #  ENTRY FROM FIXDELAY AND VARDELAY.
000044:    4545           56006                           XCH      BBANK
000045:    4546           12566                           TCF      WAIT2
000046:
000047:                                                                                                  #  RETURN TO CALLER AFTER TASK INSERTION:
000048:
000049:    4547           30066        LVWTLIST           CA       WAITBANK
000050:    4550           54006                           TS       BBANK
000051:    4551           50065                           INDEX    WAITEXIT
000052:    4552           00002                           TC       2
000053:
000054:    4553           02003        WAITBB             BBCON    WAIT2
000055:
000056:                                                                                                  #  RETURN TO CALLER +2 AFTER WAITING DT SPECIFIED AT CALLER +1.
000057:
000058:    4554           50002        FIXDELAY           INDEX    Q                                     #  BOTH ROUTINES MUST BE CALLED UNDER
000059:    4555           30000                           CAF      0                                     #  WAITLIST CONTROL AND TERMINATE THE TASK
000060:    4556           24002                           INCR     Q                                     #  IN WHICH THEY WERE CALLED.
000061:
000062:                                                                                                  #  RETURN TO CALLER +1 AFTER WAITING THE DT AS ARRIVING IN A.
000063:
000064:    4557           56002        VARDELAY           XCH      Q                                     #  DT TO Q.  TASK ADRES TO WAITADR.
000065:    4560           54070                           TS       WAITADR
000066:    4561           30006                           CA       BBANK                                 #  BBANK IS SAVED DURING DELAY.
000067:    4562           54001                           TS       L
000068:    4563           34566                           CAF      DELAYEX
000069:    4564           54065                           TS       WAITEXIT                              #  GO TO TASKOVER AFTER TASK ENTRY.
000070:    4565           14544                           TCF      DLY2
000071:
000072:    4566           14600        DELAYEX            TCF      TASKOVER   -2                         #  RETURNS TO TASKOVER
000073:


000075:
000076:                                                                                                  #  ENDTASK MUST ENTERED IN FIXED-FIXED SO IT IS DISTINGUISHABLE BY ITS ADRES ALONE.
000077:
000078:    4567           73206 73774  ENDTASK            -2CADR   SVCT3
000079:
000080:    4571           10063        SVCT3              CCS      STATE      +2                         #  DRIFT FLAG
000081:    4572           14602                           TCF      TASKOVER
000082:    4573           14602                           TCF      TASKOVER
000083:    4574           14575                           TCF      +1
000084:
000085:    4575           34533                           CAF      PRIO35                                #  COMPENSATE FOR NBD COEFFICIENTS ONLY.
000086:    4576           04363                           TC       NOVAC                                 #      ENABLE EVERY 81.93 SECONDS
000087:    4577           02257 16003                     2CADR    NBDONLY                               #  EBANK IS SET TO 3
000088:
000089:    4601           14602                           TCF      TASKOVER
000090:


000092:
000093:                                                                                                  #  BEGIN TASK INSERTION.
000094:
000095: 01,2566                                           SETLOC   ENDEXECS
000096:
000097: 01,2566           54066        WAIT2              TS       WAITBANK                              #  BBANK OF CALLING PROGRAM.
000098: 01,2567           40026                           CS       TIME3
000099: 01,2570           62571                           AD       +1                                    #  CCS  A  = + 1/4
000100: 01,2571           10000                           CCS      A                                     #  TEST  1/4 - C(TIME3).  IF POSITIVE,
000101:                                                                                                  #  IT MEANS THAT TIME3 OVERFLOW HAS OCCURED PRIOR TO CS  TIME3 AND THAT
000102:                                                                                                  #  C(TIME3) = T - T1, INSTEAD OF 1.0 - (T1 - T).  THE FOLLOWING FOUR
000103:                                                                                                  #  ORDERS SET C(A) = TD - T1 + 1 IN EITHER CASE.
000104:
000105: 01,2572           66042                           AD       OCT40001                              #  OVERFLOW HAS OCCURRED.  SET C(A) =
000106: 01,2573           40000                           CS       A                                     #  T - T1 + 3/4 - 1
000107:
000108:                                                                                                  #  NORMAL CASE (C(A) MINUS) YIELDS SAME C(A)  -(-(1.0-(T1 - T))+1/4)-1
000109:
000110: 01,2574           62722                           AD       OCT50001
000111: 01,2575           60002                           AD       Q                                     #  RESULT = TD - T1 + 1.
000112:
000113: 01,2576           10000                           CCS      A                                     #  TEST TD - T1 + 1
000114:
000115: 01,2577           61400                           AD       LST1                                  #  IF TD - T1 POS, GO TO WTLST5 WITH
000116: 01,2600           12642                           TCF      WTLST5                                #  C(A) = (TD - T1) + C(LIST1) = TD-T2+1
000117:
000118: 01,2601           12602                           NOOP
000119: 01,2602           40002                           CS       Q
000120:
000121:                                                                                                  #  NOTE THAT THIS PROGRAM SECTION IS NEVER ENTERED WHEN T-T1 G/E -1,
000122:                                                                                                  #  SINCE TD-T1+1 = (TD-T) + (T-T1+1), AND DELTA T = TD-T G/E +1 .  (G/E
000123:                                                                                                  #  SYMBOL MEANS GREATER THAN OR EQUAL TO).  THUS THERE NEED BE NO CON-
000124:                                                                                                  #  CERN OVER A PREVIOUS OR IMMINENT OVEFLOW OF TIME3 HERE.
000125:
000126: 01,2603           67642                           AD       POS1/2                                #  WHEN TD IS NEXT, FORM QUANTITY
000127: 01,2604           67642                           AD       POS1/2                                #    1.0 - DELTA T = 1.0 - (TD - T)
000128: 01,2605           56026                           XCH      TIME3
000129: 01,2606           67641                           AD       NEGMAX
000130: 01,2607           60002                           AD       Q                                     #  1.0 - DELTAT T NOW COMPLETE.
000131: 01,2610           00006                           EXTEND                                         #  ZERO INDEX Q.
000132: 01,2611           22007                           QXCH     7                                     #  (ZQ)
000133:


000135:
000136: 01,2612           57400        WTLST4             XCH      LST1
000137: 01,2613           57401                           XCH      LST1       +1
000138: 01,2614           57402                           XCH      LST1       +2
000139: 01,2615           57403                           XCH      LST1       +3
000140: 01,2616           57404                           XCH      LST1       +4
000141: 01,2617           57405                           XCH      LST1       +5
000142: 01,2620           57406                           XCH      LST1       +6
000143: 01,2621           57407                           XCH      LST1       +7
000144:
000145: 01,2622           30070                           CA       WAITADR                               #  (MINOR PART OF TASK CADR HAS BEEN IN L.)
000146: 01,2623           50002                           INDEX    Q
000147: 01,2624           12625                           TCF      +1
000148:
000149: 01,2625           53411                           DXCH     LST2
000150: 01,2626           53413                           DXCH     LST2       +2
000151: 01,2627           53415                           DXCH     LST2       +4
000152: 01,2630           53417                           DXCH     LST2       +6
000153: 01,2631           53421                           DXCH     LST2       +8D
000154: 01,2632           53423                           DXCH     LST2       +10D                       #  AT END, CHECK THAT C(LST2 +10) IS STD
000155: 01,2633           53425                           DXCH     LST2       +12D
000156: 01,2634           53427                           DXCH     LST2       +14D
000157: 01,2635           53431                           DXCH     LST2       +16D
000158: 01,2636           64567                           AD       ENDTASK                               #    END ITEM, AS CHECK FOR EXCEEDING
000159:                                                                                                  #    THE LENGTH OF THE LIST.
000160: 01,2637           00006                           EXTEND                                         #  DUMMY TASK ADRES SHOULD BE IN FIXED-
000161: 01,2640           14547                           BZF      LVWTLIST                              #  FIXED SO ITS ADRES ALONE DISTINGUISHES
000162: 01,2641           12715                           TCF      WTABORT                               #  IT.
000163:


000165:
000166: 01,2642           10000        WTLST5             CCS      A                                     #  TEST TD - T2 + 1
000167: 01,2643           61401                           AD       LST1       +1
000168: 01,2644           12650                           TCF      +4
000169: 01,2645           67657                           AD       ONE
000170: 01,2646           02723                           TC       WTLST2
000171: 01,2647           00001                           OCT      1
000172:
000173: 01,2650           10000                 +4        CCS      A                                     #  TEST TD - T3 + 1
000174: 01,2651           61402                           AD       LST1       +2
000175: 01,2652           12656                           TCF      +4
000176: 01,2653           67657                           AD       ONE
000177: 01,2654           02723                           TC       WTLST2
000178: 01,2655           00002                           OCT      2
000179:
000180: 01,2656           10000                 +4        CCS      A                                     #  TEST TD - T4 + 1
000181: 01,2657           61403                           AD       LST1       +3
000182: 01,2660           12664                           TCF      +4
000183: 01,2661           67657                           AD       ONE
000184: 01,2662           02723                           TC       WTLST2
000185: 01,2663           00003                           OCT      3
000186:
000187: 01,2664           10000                 +4        CCS      A                                     #  TEST TD - T5 + 1
000188: 01,2665           61404                           AD       LST1       +4
000189: 01,2666           12672                           TCF      +4
000190: 01,2667           67657                           AD       ONE
000191: 01,2670           02723                           TC       WTLST2
000192: 01,2671           00004                           OCT      4
000193:
000194: 01,2672           10000                 +4        CCS      A                                     #  TEST TD - T6 + 1
000195: 01,2673           61405                           AD       LST1       +5
000196: 01,2674           12700                           TCF      +4
000197: 01,2675           67657                           AD       ONE
000198: 01,2676           02723                           TC       WTLST2
000199: 01,2677           00005                           OCT      5
000200:
000201: 01,2700           10000                 +4        CCS      A                                     #  TEST TD - T7 + 1
000202: 01,2701           61406                           AD       LST1       +6
000203: 01,2702           12706                           TCF      +4
000204: 01,2703           67657                           AD       ONE
000205: 01,2704           02723                           TC       WTLST2
000206: 01,2705           00006                           OCT      6
000207:


000209:
000210: 01,2706           10000                 +4        CCS      A
000211: 01,2707           61407                           AD       LST1       +7
000212: 01,2710           12714                           TCF      +4
000213: 01,2711           67657                           AD       ONE
000214: 01,2712           02723                           TC       WTLST2
000215: 01,2713           00007                           OCT      7
000216:
000217: 01,2714           10000                 +4        CCS      A
000218: 01,2715           05446        WTABORT            TC       ABORT                                 #  NO ROOM IN THE INN.
000219: 01,2716           01203                           OCT      1203
000220:
000221: 01,2717           67657                           AD       ONE
000222: 01,2720           02723                           TC       WTLST2
000223: 01,2721           00010                           OCT      10
000224:
000225: 01,2722           50001        OCT50001           OCT      50001
000226:


000228:
000229:                                                                                                  #  THE ENTRY TC WTLST2 JUST PRECEDING OCT  N  IS FOR T  LE TD LE T   -1.
000230:                                                                                                  #                                                     N           N+1
000231:
000232:                                                                                                  #  (LE MEANS LESS THAN OR EQUAL TO).  AT ENTRY, C(A) = -(TD - T   + 1)
000233:                                                                                                  #                                                              N+1
000234:
000235:                                                                                                  #  THE LST1 ENTRY -(T   - T +1) IS TO BE REPLACED BY -(TD - T  + 1), AND
000236:                                                                                                  #                    N+1   N                                 N
000237:
000238:                                                                                                  #  THE ENTRY -(T   - TD + 1) IS TO BE INSERTED IMMEDIATELY FOLLOWING.
000239:                                                                                                  #               N+1
000240:
000241: 01,2723           54071        WTLST2             TS       WAITTEMP                              #      C(A) = -(TD - T   + 1)
000242: 01,2724           50002                           INDEX    Q
000243: 01,2725           30000                           CAF      0
000244: 01,2726           54002                           TS       Q                                     #  INDEX VALUE INTO Q.
000245:
000246: 01,2727           37657                           CAF      ONE
000247: 01,2730           60071                           AD       WAITTEMP
000248: 01,2731           50002                           INDEX    Q                                     #  C(A) = -(TD - T ) + 1.
000249: 01,2732           27377                           ADS      LST1       -1                         #                 N
000250:
000251: 01,2733           40071                           CS       WAITTEMP
000252: 01,2734           50002                           INDEX    Q
000253: 01,2735           12612                           TCF      WTLST4
000254:
000255:                                                                                                  #  C(TIME3)  = 1.0 - (T1 - T)
000256:
000257:                                                                                                  #  C(LST1  ) = - (T2 - T1) + 1
000258:                                                                                                  #  C(LST1+1) = - (T3 - T2) + 1
000259:                                                                                                  #  C(LST1+2) = - (T4 - T3) + 1
000260:                                                                                                  #  C(LST1+3) = - (T5 - T4) + 1
000261:                                                                                                  #  C(LST1+4) = - (T6 - T5) + 1
000262:
000263:                                                                                                  #  C(LST2   ) = 2CADR  TASK1
000264:                                                                                                  #  C(LST2+2 ) = 2CADR  TASK2
000265:                                                                                                  #  C(LST2+4 ) = 2CADR  TASK3
000266:                                                                                                  #  C(LST2+6 ) = 2CADR  TASK4
000267:                                                                                                  #  C(LST2+8 ) = 2CADR  TASK5
000268:                                                                                                  #  C(LST2+10) = 2CADR  TASK6
000269:


000271:
000272:                                                                                                  #  ENTERS HERE ON T3 RUPT TO DISPATCH WAITLISTED TASK.
000273:
000274: 01,2736           54016        T3RUPT             TS       BANKRUPT
000275: 01,2737           00006                           EXTEND
000276: 01,2740           22012                           QXCH     QRUPT
000277:
000278: 01,2741           37640        T3RUPT2            CAF      NEG1/2                                #  DISPATCH WAITLIST TASK.
000279: 01,2742           57407                           XCH      LST1       +7
000280: 01,2743           57406                           XCH      LST1       +6
000281: 01,2744           57405                           XCH      LST1       +5
000282: 01,2745           57404                           XCH      LST1       +4                         #  1.  MOVE UP LST1 CONTENTS, ENTERING
000283: 01,2746           57403                           XCH      LST1       +3                         #      A VALUE OF 1/2 +1 AT THE BOTTOM
000284: 01,2747           57402                           XCH      LST1       +2                         #      FOR T6-T5, CORRESPONDING TO THE
000285: 01,2750           57401                           XCH      LST1       +1                         #      INTERVAL 81.91 SEC FOR ENDTASK.
000286: 01,2751           57400                           XCH      LST1
000287: 01,2752           67637                           AD       POSMAX                                #  2. SET T3 = 1.0 - T2 -T USING LIST 1.
000288: 01,2753           26026                           ADS      TIME3                                 #  SO T3 WONT TICK DURING UPDATE.
000289: 01,2754           55070                           TS       RUPTAGN
000290: 01,2755           47665                           CS       ZERO
000291: 01,2756           55070                           TS       RUPTAGN                               #  SETS RUPTAGN TO +1 ON OVERFLOW.
000292:
000293: 01,2757           00006                           EXTEND                                         #  DISPATCH TASK.
000294: 01,2760           44570                           DCS      ENDTASK
000295: 01,2761           53431                           DXCH     LST2       +16D
000296: 01,2762           53427                           DXCH     LST2       +14D
000297: 01,2763           53425                           DXCH     LST2       +12D
000298: 01,2764           53423                           DXCH     LST2       +10D
000299: 01,2765           53421                           DXCH     LST2       +8D
000300: 01,2766           53417                           DXCH     LST2       +6
000301: 01,2767           53415                           DXCH     LST2       +4
000302: 01,2770           53413                           DXCH     LST2       +2
000303: 01,2771           53411                           DXCH     LST2
000304:
000305: 01,2772           52006                           DTCB
000306:
000307: 01,2773                        ENDWAITS           EQUALS
000308:


000310:
000311:                                                                                                  #  RETURN, AFTER EXECUTION OF T3 OVERFLOW TASK:
000312:
000313:    4602                                           BLOCK    02
000314:
000315:    4602           11070        TASKOVER           CCS      RUPTAGN                               #  IF +1 RETURN TO T3RUPT, IF -0 RESUME.
000316:    4603           34553                           CAF      WAITBB
000317:    4604           54006                           TS       BBANK
000318:    4605           12741                           TCF      T3RUPT2                               #  DISPATCH NEXT TASK IF IT WAS DUE.
000319:
000320:    4606           00006        RESUME             EXTEND
000321:    4607           22012                           QXCH     QRUPT
000322:    4610           30016        NOQRSM             CA       BANKRUPT
000323:    4611           54006                           TS       BBANK
000324:    4612           52011        NOQBRSM            DXCH     ARUPT
000325:    4613           50017                           RESUME
000326:
000327:    4614                        ENDWAITF           EQUALS                                         #  LAST FIXED-FIXED LOCATION OF T3RUPT.

End of include-file WAITLIST.agc.  Parent file is MAIN.agc


