
Source Code


000002:                                                                                                  ## Copyright:   Public domain.
000003:                                                                                                  ## Filename:    ALARM_AND_ABORT.agc
000004:                                                                                                  ## Purpose:     A section of Luminary revision 163.
000005:                                                                                                  ##              It is part of the reconstructed source code for the first
000006:                                                                                                  ##              (unflown) release of the flight software for the Lunar
000007:                                                                                                  ##              Module's (LM) Apollo Guidance Computer (AGC) for Apollo 14.
000008:                                                                                                  ##              The code has been recreated from a reconstructed copy of
000009:                                                                                                  ##              Luminary 173, as well as Luminary memos 157 amd 158.
000010:                                                                                                  ##              It has been adapted such that the resulting bugger words
000011:                                                                                                  ##              exactly match those specified for Luminary 163 in NASA
000012:                                                                                                  ##              drawing 2021152N, which gives relatively high confidence
000013:                                                                                                  ##              that the reconstruction is correct.
000014:                                                                                                  ## Reference:   pp. 1369-1373
000015:                                                                                                  ## Assembler:   yaYUL
000016:                                                                                                  ## Contact:     Ron Burkey <info@sandroid.org>.
000017:                                                                                                  ## Website:     www.ibiblio.org/apollo/index.html
000018:                                                                                                  ## Mod history: 2019-08-21 MAS  Created from Luminary 173.
000019:


000021:                                                                                                  #           THE FOLLOWING SUBROUTINE MAY BE CALLED TO DISPLAY A NON-ABORTIVE ALARM CONDITION. IT MAY BE CALLED
000022:                                                                                                  #  EITHER IN INTERRUPT OR UNDER EXECUTIVE CONTROL.
000023:
000024:                                                                                                  #           CALLING SEQUENCE IS AS FOLLOWS:
000025:
000026:                                                                                                  #           TC     ALARM
000027:                                                                                                  #           OCT    AAANN           ALARM NO. NN IN GENERAL AREA AAA.
000028:                                                                                                  #                                  (RETURNS HERE)
000029:
000030:    5600                                           BLOCK    02
000031:    4000                                           SETLOC   FFTAG7
000032:    4000                                           BANK
000033:
000034:    5600     0375                                  EBANK=   FAILREG
000035:
000036:    5600                                           COUNT*   $$/ALARM
000037:                                                                                                  #  ALARM TURNS ON THE PROGRAM ALARM LIGHT, BUT DOES NOT DISPLAY.
000038:
000039:    5600           00004        ALARM              INHINT
000040:
000041:    5601           30002                           CA       Q
000042:    5602           55363        ALARM2             TS       ALMCADR
000043:    5603           50002                           INDEX    Q
000044:    5604           30000                           CA       0
000045:    5605           54001        BORTENT            TS       L
000046:
000047:    5606           30006        PRIOENT            CA       BBANK
000048:    5607           00006                 +1        EXTEND
000049:    5610           04007                           ROR      SUPERBNK                              #  ADD SUPER BITS.
000050:    5611           55364                           TS       ALMCADR    +1
000051:
000052:    5612           30002        LARMENT            CA       Q                                     #  STORE RETURN FOR ALARM
000053:    5613           54061                           TS       ITEMP1
000054:
000055:    5614           10375        CHKFAIL1           CCS      FAILREG                               #  IS ANYTHING IN FAILREG
000056:    5615           15621                           TCF      CHKFAIL2                              #  YES TRY NEXT REG
000057:    5616           30001                           CA       L
000058:    5617           54375                           TS       FAILREG
000059:    5620           15625                           TCF      PROGLARM                              #  TURN ALARM LIGHT ON FOR FIRST ALARM
000060:
000061:    5621           10376        CHKFAIL2           CCS      FAILREG    +1
000062:    5622           15625                           TCF      PROGLARM
000063:    5623           30001                           CA       L
000064:    5624           54376                           TS       FAILREG    +1
000065:
000066:    5625           22377        PROGLARM           LXCH     FAILREG    +2                         #  STORE AS "MOST RECENT" ALARM CODE
000067:
000068:    5626           41035                           CS       DSPTAB     +11D                       #  TURN ON PROGRAM ALARM IF OFF
000069:    5627           75643                           MASK     OCT40400
000070:    5630           27035                           ADS      DSPTAB     +11D
000071:


000073:    5631           56061        MULTEXIT           XCH      ITEMP1                                #  OBTAIN RETURN ADDRESS IN A
000074:    5632           00003                           RELINT
000075:    5633           50000                           INDEX    A
000076:    5634           00001                           TC       1
000077:
000078:                                                                                                  #  PRIOLARM DISPLAYS V05N09 VIA PRIODSPR WITH 3 RETURNS TO THE USER FROM THE ASTRONAUT AT CALL LOC +1,+2,+3 AND
000079:                                                                                                  #  AN IMMEDIATE RETURN TO THE USER AT CALL LOC +4. EXAMPLE FOLLOWS,
000080:                                                                                                  #                                                   CAF    OCTXX           ALARM CODE
000081:                                                                                                  #                                                   TC     BANKCALL
000082:                                                                                                  #                                                   CADR   PRIOLARM
000083:
000084:                                                                                                  #                                                   ...    ...
000085:                                                                                                  #                                                   ...    ...
000086:                                                                                                  #                                                   ...    ...             ASTRONAUT RETURN
000087:                                                                                                  #                                                   TC     PHASCHNG        IMMEDIATE RETURN TO USER. RESTART
000088:                                                                                                  #                                                   OCT    X.1             PHASE CHANGE FOR PRIO DISPLAY
000089:
000090: 10,3563                                           BANK     10
000091: 10,2000                                           SETLOC   DISPLAYS
000092: 10,2000                                           BANK
000093:
000094: 10,3563                                           COUNT*   $$/DSPLA
000095: 10,3563           00004        PRIOLARM           INHINT                                         #  * * * KEEP IN DISPLAY ROUTINES BANK
000096: 10,3564           54001                           TS       L                                     #  SAVE ALARM CODE
000097:
000098: 10,3565           30133                           CA       BUF2                                  #  2 CADR OF PRIOLARM USER
000099: 10,3566           55363                           TS       ALMCADR
000100: 10,3567           30134                           CA       BUF2       +1
000101: 10,3570           05607                           TC       PRIOENT    +1                         #  * LEAVE L ALONE
000102: 10,3571           77467        -2SEC              DEC      -200       B-14                       #  *** DONT MOVE
000103: 10,3572           35006                           CAF      V05N09
000104: 10,3573           12505                           TCF      PRIODSPR
000105:
000106:    5635                                           BLOCK    02
000107:    4000                                           SETLOC   FFTAG7
000108:    4000                                           BANK
000109:
000110:    5635                                           COUNT*   $$/ALARM
000111:    5635           00004        BAILOUT            INHINT
000112:    5636           30002                           CA       Q
000113:    5637           55363                           TS       ALMCADR
000114:
000115:    5640           50002                           INDEX    Q
000116:    5641           30000                           CAF      0
000117:    5642           05605                           TC       BORTENT
000118:    5643           40400        OCT40400           OCT      40400
000119:
000120:    5644           00004                           INHINT
000121:    5645           34752        WHIMPER            CA       TWO
000122:    5646           60005                           AD       Z


000124:    5647           54017                           TS       BRUPT
000125:    5650           50017                           RESUME
000126:    5651           04635                           TC       POSTJUMP                              #  RESUME SENDS CONTROL HERE
000127:    5652           12777                           CADR     ENEMA
000128:    5653           00004        POODOO             INHINT
000129:    5654           30002                           CA       Q
000130:    5655           55363        ABORT2             TS       ALMCADR
000131:    5656           50002                           INDEX    Q
000132:    5657           30000                           CAF      0
000133:    5660           05605                           TC       BORTENT
000134:    5661           77770        OCT77770           OCT      77770                                 #  DON'T MOVE
000135:
000136:    5662           34765                           CAF      OCT35                                 #  4.35SPOT FOR GOPOODOO
000137:    5663           54001                           TS       L
000138:    5664           40000                           COM
000139:    5665           52760                           DXCH     -PHASE4
000140:    5666           00004        GOPOODOO           INHINT
000141:    5667           04616                           TC       BANKCALL                              #  RESET STATEFLG, REINTFLG, AND NODOFLAG.
000142:    5670           27746                           CADR     FLAGS
000143:    5671           30103                           CA       FLAGWRD7                              #  IS SERVICER CURRENTLY IN OPERATION?
000144:    5672           74746                           MASK     V37FLBIT
000145:    5673           10000                           CCS      A
000146:    5674           15702                           TCF      STRTIDLE
000147:    5675           04616                           TC       BANKCALL                              #  TERMINATE GRPS 1, 3, 5, AND 6
000148:    5676           12664                           CADR     V37KLEAN
000149:    5677           04616                           TC       BANKCALL                              #  TERMINATE GRPS 2, 4, 1, 3, 5, AND 6
000150:    5700           12655                           CADR     MR.KLEAN                              #        (I.E., GRP 4 LAST)
000151:    5701           15645                           TCF      WHIMPER
000152:    5702           35744        STRTIDLE           CAF      BBSERVDL
000153:    5703           04727                           TC       SUPERSW
000154:    5704           04616                           TC       BANKCALL                              #  PUT SERVICER INTO ITS "GROUND" STATE
000155:    5705           57326                           CADR     SERVIDLE                              #  AND PROCEED TO GOTOPOOH.
000156:    5706           00004        CCSHOLE            INHINT
000157:    5707           30002                           CA       Q
000158:    5710           05655                           TC       ABORT2
000159:    5711           21103        OCT21103           OCT      21103
000160:    5712           00004        CURTAINS           INHINT
000161:    5713           30002                           CA       Q
000162:    5714           05602                           TC       ALARM2
000163:    5715           00217        OCT217             OCT      00217
000164:    5716           01363                           TC       ALMCADR                               #  RETURN TO USER
000165:
000166:    5717           00004        BAILOUT1           INHINT
000167:    5720           53364                           DXCH     ALMCADR
000168:    5721           35743                           CAF      ADR40400
000169:    5722           54061        BOTHABRT           TS       ITEMP1
000170:    5723           50002                           INDEX    Q
000171:    5724           30000                           CAF      0
000172:    5725           54001                           TS       L
000173:    5726           15614                           TCF      CHKFAIL1
000174:


000176:    5727           00004        POODOO1            INHINT
000177:    5730           53364                           DXCH     ALMCADR
000178:    5731           35742                           CAF      ADR77770
000179:    5732           15722                           TCF      BOTHABRT
000180:
000181:    5733           00004        ALARM1             INHINT
000182:    5734           53364                           DXCH     ALMCADR
000183:    5735           00004        ALMNCADR           INHINT
000184:    5736           50002                           INDEX    Q
000185:    5737           30000                           CA       0
000186:    5740           54001                           TS       L
000187:    5741           15612                           TCF      LARMENT
000188:
000189:    5742           15661        ADR77770           TCF      OCT77770
000190:    5743           15643        ADR40400           TCF      OCT40400
000191:    5744     5155               DOALARM            EQUALS   ENDOFJOB
000192:    5744  E7,1515                                  EBANK=   DVCNTR
000193:    5744           56067        BBSERVDL           BBCON    SERVIDLE
000194:                                                                                                  #  CALLING SEQUENCE FOR VARALARM
000195:
000196:                                                                                                  #                                                   CAF    (ALARM)
000197:                                                                                                  #                                                   TC     VARALARM
000198:
000199:                                                                                                  #  VARALARM TURNS ON PROGRAM ALARM LIGHT BUT DOES NOT DISPLAY
000200:    5745           00004        VARALARM           INHINT
000201:
000202:    5746           54001                           TS       L                                     #  SAVE USERS ALARM CODE
000203:
000204:    5747           30002                           CA       Q                                     #  SAVE USERS Q
000205:    5750           55363                           TS       ALMCADR
000206:
000207:    5751           05606                           TC       PRIOENT
000208:    5752           00014        OCT14              OCT      14                                    #  DONT MOVE
000209:
000210:    5753           01363                           TC       ALMCADR                               #  RETURN TO USER
000211:
000212:    5754     5645               ABORT              EQUALS   WHIMPER
000213: 13,3746                                           BANK     13
000214: 13,2000                                           SETLOC   ABTFLGS
000215: 13,2000                                           BANK
000216: 13,3746                                           COUNT*   $$/ALARM
000217:
000218: 13,3746           44747        FLAGS              CS       STATEBIT
000219: 13,3747           70077                           MASK     FLAGWRD3
000220: 13,3750           54077                           TS       FLAGWRD3
000221: 13,3751           44745                           CS       REINTBIT
000222: 13,3752           70106                           MASK     FLGWRD10
000223: 13,3753           54106                           TS       FLGWRD10
000224: 13,3754           44753                           CS       NODOBIT
000225: 13,3755           70076                           MASK     FLAGWRD2


000227: 13,3756           54076                           TS       FLAGWRD2
000228: 13,3757           00002                           TC       Q

End of include-file ALARM_AND_ABORT.agc.  Parent file is MAIN.agc


