
Source Code


000002:                                                                                                  ## Copyright:   Public domain.
000003:                                                                                                  ## Filename:    BURN,_BABY,_BURN_--_MASTER_IGNITION_ROUTINE.agc
000004:                                                                                                  ## Purpose:     A section of Luminary revision 163.
000005:                                                                                                  ##              It is part of the reconstructed source code for the first
000006:                                                                                                  ##              (unflown) release of the flight software for the Lunar
000007:                                                                                                  ##              Module's (LM) Apollo Guidance Computer (AGC) for Apollo 14.
000008:                                                                                                  ##              The code has been recreated from a reconstructed copy of
000009:                                                                                                  ##              Luminary 173, as well as Luminary memos 157 amd 158.
000010:                                                                                                  ##              It has been adapted such that the resulting bugger words
000011:                                                                                                  ##              exactly match those specified for Luminary 163 in NASA
000012:                                                                                                  ##              drawing 2021152N, which gives relatively high confidence
000013:                                                                                                  ##              that the reconstruction is correct.
000014:                                                                                                  ## Reference:   pp. 717-737
000015:                                                                                                  ## Assembler:   yaYUL
000016:                                                                                                  ## Contact:     Ron Burkey <info@sandroid.org>.
000017:                                                                                                  ## Website:     www.ibiblio.org/apollo/index.html
000018:                                                                                                  ## Mod history: 2019-08-21 MAS  Created from Luminary 173.
000019:


000021: 36,2024                                           BANK     36
000022: 36,2000                                           SETLOC   P40S
000023: 36,2000                                           BANK
000024: 36,2024  E7,1455                                  EBANK=   WHICH
000025: 36,2024                                           COUNT*   $$/P40
000026:                                                                                                  #      THE MASTER IGNITION ROUTINE IS DESIGNED FOR USE BY THE FOLLOWING LEM PROGRAMS:  P12, P40, P42, P61, P63.
000027:                                                                                                  #  IT PERFORMS ALL FUNCTIONS IMMEDIATELY ASSOCIATED WITH APS OR DPS IGNITION:  IN PARTICULAR, EVERYTHING LYING
000028:                                                                                                  #  BETWEEN THE PRE-IGNITION TIME CHECK -- ARE WE WITHIN 45 SECONDS OF TIG? -- AND TIG + 26 SECONDS, WHEN DPS
000029:                                                                                                  #  PROGRAMS THROTTLE UP.
000030:
000031:                                                                                                  #      VARIATIONS AMONG PROGRAMS ARE ACCOMODATED BY MEANS OF TABLES CONTAINING CONSTANTS (FOR AVEGEXIT, FOR
000032:                                                                                                  #  WAITLIST, FOR PINBALL) AND TCF INSTRUCTIONS.   USERS PLACE THE ADRES OF THE HEAD OF THE APPROPRIATE TABLE
000033:                                                                                                  #  (OF P61TABLE FOR P61LM, FOR EXAMPLE) IN ERASABLE REGISTER 'WHICH' (E4).   THE IGNITION ROUTINE THEN INDEXES BY
000034:                                                                                                  #  WHICH TO OBTAIN OR EXECUTE THE PROPER TABLE ENTRY.   THE IGNITION ROUTINE IS INITIATED BY A TCF BURNBABY,
000035:                                                                                                  #  THROUGH BANKJUMP IF NECESSARY.   THERE IS NO RETURN.
000036:
000037:                                                                                                  #      THE MASTER IGNITION ROUTINE WAS CONCEIVED AND EXECUTED, AND (NOTA BENE) IS MAINTAINED BY ADLER AND EYLES.
000038:
000039:
000040:                                                                                                  #                                         HONI SOIT QUI MAL Y PENSE
000041:
000042:
000043:                                                                                                  #                                  ****************************************
000044:                                                                                                  #                                  TABLES FOR THE IGNITION ROUTINE
000045:                                                                                                  #                                  ****************************************
000046:
000047:                                                                                                  #                                              NOLI SE TANGERE
000048:
000049: 36,2024           01512        P12TABLE           VN       0674                                  #  (0)
000050: 36,2025           12327                           TCF      ULLGNOT                               #  (1)
000051: 36,2026           12617                           TCF      COMFAIL3                              #  (2)
000052: 36,2027           13067                           TCF      GOCUTOFF                              #  (3)
000053: 36,2030           15272                           TCF      TASKOVER                              #  (4)
000054: 36,2031           12150                           TCF      P12SPOT                               #  (5)
000055: 36,2032           00000                           DEC      0          B-14                       #  (6)       NO ULLAGE
000056: 36,2033  E7,1455                                  EBANK=   WHICH
000057: 36,2033           03636 64067                     2CADR    SERVEXIT                              #  (7)
000058:
000059: 36,2035           12402                           TCF      DISPCHNG                              #  (11)
000060: 36,2036           12570                           TCF      WAITABIT                              #  (12)
000061: 36,2037           12526                           TCF      P12IGN                                #  (13)
000062:
000063:
000064:
000065: 36,2040           01450        P40TABLE           VN       0640                                  #  (0)
000066: 36,2041           12327                           TCF      ULLGNOT                               #  (1)
000067: 36,2042           12621                           TCF      COMFAIL4                              #  (2)
000068: 36,2043           13054                           TCF      GOPOST                                #  (3)
000069: 36,2044           15272                           TCF      TASKOVER                              #  (4)
000070: 36,2045           12150                           TCF      P40SPOT                               #  (5)


000072: 36,2046           04300                           DEC      2240       B-14                       #  (6)
000073: 36,2047  E6,1422                                  EBANK=   OMEGAQ
000074: 36,2047           03675 74066                     2CADR    STEERING                              #  (7)
000075:
000076: 36,2051           12372                           TCF      P40SJUNK                              #  (11)
000077: 36,2052           12570                           TCF      WAITABIT                              #  (12)
000078: 36,2053           12511                           TCF      P40IGN                                #  (13)
000079: 36,2054           13130                           TCF      REP40ALM                              #  (14)
000080:
000081:
000082:
000083: 36,2055           12153        P41TABLE           TCF      P41SPOT                               #  (5)
000084: 36,2056           77776                           DEC      -1         B-14                       #  (6)
000085: 36,2057  E6,1422                                  EBANK=   OMEGAQ
000086: 36,2057           02550 64066                     2CADR    CALCN85                               #  (7)
000087:
000088: 36,2061           12404                           TCF      COMMON                                #  (11)
000089: 36,2062           12574                           TCF      TIGTASK                               #  (12)
000090:
000091:
000092:
000093: 36,2063           01450        P42TABLE           VN       0640                                  #  (0)
000094: 36,2064           12324                           TCF      WANTAPS                               #  (1)
000095: 36,2065           12621                           TCF      COMFAIL4                              #  (2)
000096: 36,2066           13054                           TCF      GOPOST                                #  (3)
000097: 36,2067           15272                           TCF      TASKOVER                              #  (4)
000098: 36,2070           12150                           TCF      P42SPOT                               #  (5)
000099: 36,2071           05120                           DEC      2640       B-14                       #  (6)
000100: 36,2072  E6,1422                                  EBANK=   OMEGAQ
000101: 36,2072           03675 74066                     2CADR    STEERING                              #  (7)
000102:
000103: 36,2074           12372                           TCF      P40SJUNK                              #  (11)
000104: 36,2075           12570                           TCF      WAITABIT                              #  (12)
000105: 36,2076           12546                           TCF      P42IGN                                #  (13)
000106: 36,2077           13427                           TCF      P42STAGE                              #  (14)
000107:
000108:
000109:
000110: 36,2100           01476        P63TABLE           VN       0662                                  #  (0)
000111: 36,2101           12327                           TCF      ULLGNOT                               #  (1)
000112: 36,2102           12617                           TCF      COMFAIL3                              #  (2)
000113: 36,2103           13004                           TCF      V99RECYC                              #  (3)
000114: 36,2104           15272                           TCF      TASKOVER                              #  (4)
000115: 36,2105           12153                           TCF      P63SPOT                               #  (5)
000116: 36,2106           04300                           DEC      2240       B-14                       #  (6)
000117: 36,2107  E7,1455                                  EBANK=   WHICH
000118: 36,2107           03636 64067                     2CADR    SERVEXIT                              #  (7)
000119:
000120: 36,2111           12402                           TCF      DISPCHNG                              #  (11)
000121: 36,2112           12570                           TCF      WAITABIT                              #  (12)


000123: 36,2113           12465                           TCF      P63IGN                                #  (13)
000124:
000125:
000126:
000127: 36,2114           01477        ABRTABLE           VN       0663                                  #  (0)
000128: 36,2115           12327                           TCF      ULLGNOT                               #  (1)
000129: 36,2116           12617                           TCF      COMFAIL3                              #  (2)
000130: 36,2117           13067                           TCF      GOCUTOFF                              #  (3)
000131: 36,2120           15272                           TCF      TASKOVER                              #  (4)
000132: 36,2121           12122                           NOOP                                           #  (5)
000133: 36,2122           12123                           NOOP                                           #  (6)
000134: 36,2123           12124                           NOOP                                           #  (7)
000135: 36,2124           12125                           NOOP
000136: 36,2125           12402                           TCF      DISPCHNG                              #  (11)
000137: 36,2126           12570                           TCF      WAITABIT                              #  (12)
000138: 36,2127           12536                           TCF      ABRTIGN                               #  (13)
000139:
000140:
000141:
000142:                                                                                                  #                                  ****************************************
000143:                                                                                                  #                                  GENERAL PURPOSE IGNITION ROUTINES
000144:                                                                                                  #                                  ****************************************
000145:
000146: 36,2130           05364        BURNBABY           TC       PHASCHNG                              #  GROUP 4 RESTARTS HERE
000147: 36,2131           04024                           OCT      04024
000148:
000149: 36,2132           34755                           CAF      ZERO                                  #  EXTIRPATE JUNK LEFT IN DVTOTAL
000150: 36,2133           55507                           TS       DVTOTAL
000151: 36,2134           55510                           TS       DVTOTAL    +1
000152:
000153: 36,2135           04616                           TC       BANKCALL                              #  P40AUTO MUST BE BANKCALLED EVEN FROM ITS
000154: 36,2136           73707                           CADR     P40AUTO                               #    OWN BANK TO SET UP RETURN PROPERLY
000155:
000156: 36,2137           00006        B*RNB*B*           EXTEND
000157: 36,2140           31442                           DCA      TIG                                   #  STORE NOMINAL TIG FOR OBLATENESS COMP.
000158: 36,2141           53512                           DXCH     GOBLTIME                              #  AND FOR P70 OR P71.
000159:
000160: 36,2142           00004                           INHINT
000161: 36,2143           04674                           TC       IBNKCALL
000162: 36,2144           75573                           CADR     ENGINOF3
000163: 36,2145           00003                           RELINT
000164:
000165: 36,2146           51455                           INDEX    WHICH
000166: 36,2147           00005                           TC       5
000167:
000168: 36,2150  36,2150               P42SPOT            =        P40SPOT                               #  (5)
000169: 36,2150  36,2150               P12SPOT            =        P40SPOT                               #  (5)
000170: 36,2150  36,2153               P63SPOT            =        P41SPOT                               #  (5)      IN P63 CLOKTASK ALREADY GOING
000171: 36,2150           44762        P40SPOT            CS       CNTDNDEX                              #  (5)
000172: 36,2151           04616                           TC       BANKCALL                              #  MUST BE BANKCALLED FOR GENERALIZED


000174: 36,2152           74671                           CADR     STCLOK2                               #         RETURN
000175: 36,2153           06042        P41SPOT            TC       INTPRET                               #  (5)
000176: 36,2154           45345                           DLOAD    DSU
000177: 36,2155           03442                                    TIG
000178: 36,2156           35150                                    D29.9SEC
000179: 36,2157           34041                           STCALL   TDEC1
000180: 36,2160           61063                                    INITCDUW
000181: 36,2161           45014                           BOFF     CALL
000182: 36,2162           03347                                    MUNFLAG
000183: 36,2163           74202                                    GOMIDAV
000184: 36,2164           27042                                    CSMPREC
000185: 36,2165           64375                           VLOAD    MXV
000186: 36,2166           00025                                    VATT1
000187: 36,2167           01732                                    REFSMMAT
000188: 36,2170           77762                           VSR1
000189: 36,2171           25724                           STOVL    V(CSM)                                #  CSM VELOCITY - M/CS*2(7)
000190: 36,2172           00017                                    RATT1
000191: 36,2173           64312                           VSL4     MXV
000192: 36,2174           01732                                    REFSMMAT
000193: 36,2175           35716                           STCALL   R(CSM)                                #  CSM POSITION - M*2(24)
000194: 36,2176           67000                                    MUNGRAV
000195: 36,2177           16265                           STODL    G(CSM)                                #  CSM GRAVITY VEC. - M/CS*2(7)
000196: 36,2200           00015                                    TAT
000197: 36,2201           00041                           STORE    TDEC1                                 #  RELOAD TDEC1 FOR MIDTOAV.
000198: 36,2202           77624        GOMIDAV            CALRB
000199: 36,2203           27553                                    MIDTOAV1
000200: 36,2204           12213                           TCF      CALLT-35                              #  MADE IT IN TIME.
000201:
000202: 36,2205           00006                           EXTEND                                         #  TIG WAS SLIPPED, SO RESET TIG TO 29.9
000203: 36,2206           31561                           DCA      PIPTIME1                              #  SECONDS AFTER THE TIME TO WHICH WE DID
000204: 36,2207           53442                           DXCH     TIG                                   #  INTEGRATE.
000205: 36,2210           00006                           EXTEND
000206: 36,2211           33150                           DCA      D29.9SEC
000207: 36,2212           21442                           DAS      TIG
000208:
000209: 36,2213           52155        CALLT-35           DXCH     MPAC
000210: 36,2214           53500                           DXCH     SAVET-30                              #  DELTA-T UNTIL TIG-30
000211: 36,2215           00006                           EXTEND
000212: 36,2216           43757                           DCS      5SECDP
000213: 36,2217           21500                           DAS      SAVET-30                              #  DELTA-T UNTIL TIG-35
000214: 36,2220           00006                           EXTEND
000215: 36,2221           31500                           DCA      SAVET-30
000216: 36,2222           05310                           TC       LONGCALL
000217: 36,2223  E7,1453                                  EBANK=   TTOGO
000218: 36,2223           02242 74067                     2CADR    TIG-35
000219:
000220: 36,2225           05364                           TC       PHASCHNG
000221: 36,2226           20254                           OCT      20254                                 #  4.25SPOT FOR TIG-35 RESTART.
000222:
000223: 36,2227           05332                           TC       CHECKMM


000225: 36,2230           00077                           DEC      63         B-14
000226: 36,2231           15155                           TCF      ENDOFJOB                              #  NOT P63
000227: 36,2232           44762                           CS       CNTDNDEX                              #  P63 CAN START DISPLAYING NOW.
000228: 36,2233           55162                           TS       DISPDEX
000229: 36,2234           06042                           TC       INTPRET
000230: 36,2235           51575                           VLOAD    ABVAL
000231: 36,2236           03553                                    VN1
000232: 36,2237           03472                           STORE    ABVEL                                 #  INITIALIZE ABVEL FOR P63 DISPLAY
000233: 36,2240           77776                           EXIT
000234: 36,2241           15155                           TCF      ENDOFJOB
000235:
000236:                                                                                                  #                                  ****************************************
000237:
000238: 36,2242           33757        TIG-35             CAF      5SEC
000239: 36,2243           05204                           TC       TWIDDLE
000240: 36,2244           02300                           ADRES    TIG-30
000241:
000242: 36,2245           05364                           TC       PHASCHNG
000243: 36,2246           40154                           OCT      40154                                 #  4.15SPOT FOR TIG-30 RESTART
000244:
000245: 36,2247           44752                           CS       BLANKDEX                              #  BLANK DSKY FOR 5 SECONDS
000246: 36,2250           55162                           TS       DISPDEX
000247:
000248: 36,2251           51455                           INDEX    WHICH
000249: 36,2252           40006                           CS       6                                     #  CHECK ULLAGE TIME.
000250: 36,2253           00006                           EXTEND
000251: 36,2254           65272                           BZMF     TASKOVER
000252: 36,2255           33152                           CAF      4.9SEC                                #  SET UP TASK TO RESTORE DISPLAY AT TIG-30
000253: 36,2256           05204                           TC       TWIDDLE
000254: 36,2257           02270                           ADRES    TIG-30.1
000255:
000256: 36,2260           35027                           CAF      PRIO17                                #  A NEGATIVE ULLAGE TIME INDICATES P41, IN
000257: 36,2261           05072                           TC       NOVAC                                 #  WHICH CASE WE HAVE TO SET UP A JOB TO
000258: 36,2262  E7,1453                                  EBANK=   TTOGO                                 #  BLANK THE DSKY FOR FIVE SECONDS, SINCE
000259: 36,2262           02265 74067                     2CADR    P41BLANK                              #  CLOKJOB IS NOT RUNNING DURING P41.
000260:
000261: 36,2264           15272                           TCF      TASKOVER
000262:
000263: 36,2265           04616        P41BLANK           TC       BANKCALL                              #  BLANK DSKY.
000264: 36,2266           20457                           CADR     CLEANDSP
000265: 36,2267           15155                           TCF      ENDOFJOB
000266:
000267: 36,2270           35027        TIG-30.1           CAF      PRIO17                                #  SET UP JOB TO RESTORE DISPLAY AT TIG-30
000268: 36,2271           05072                           TC       NOVAC
000269: 36,2272  E7,1453                                  EBANK=   TTOGO
000270: 36,2272           02275 74067                     2CADR    TIG-30A
000271:
000272: 36,2274           15272                           TCF      TASKOVER
000273:


000275: 36,2275           33761        TIG-30A            CAF      V16N85B
000276: 36,2276           04616                           TC       BANKCALL                              #  RESTORE DISPLAY.
000277: 36,2277           20466                           CADR     REGODSP                               #  REGODSP DOES A TCF ENDOFJOB
000278:
000279:                                                                                                  #                                  *****************************************
000280:
000281: 36,2300           33151        TIG-30             CAF      S24.9SEC
000282: 36,2301           05204                           TC       TWIDDLE
000283: 36,2302           02354                           ADRES    TIG-5
000284:
000285: 36,2303           44762                           CS       CNTDNDEX                              #  START UP CLOKTASK AGAIN
000286: 36,2304           55162                           TS       DISPDEX
000287:
000288: 36,2305           51455                           INDEX    WHICH                                 #  PICK UP APPROPRIATE ULLAGE-ON TIME
000289: 36,2306           30006                           CAF      6
000290: 36,2307           00006                           EXTEND
000291: 36,2310           62327                           BZMF     ULLGNOT                               #  DON'T SET UP ULLAGE IF DT IS NEG OR ZERO
000292: 36,2311           55477                           TS       SAVET-30                              #  SAVE DELTA-T FOR RESTART
000293: 36,2312           05204                           TC       TWIDDLE
000294: 36,2313           02350                           ADRES    ULLGTASK
000295:
000296: 36,2314           36250                           CA       THREE                                 #  RESTART PROTECT ULLGTASK (1.3SPOT)
000297: 36,2315           54001                           TS       L
000298: 36,2316           46250                           CS       THREE
000299: 36,2317           52752                           DXCH     -PHASE1
000300: 36,2320           40025                           CS       TIME1
000301: 36,2321           55052                           TS       TBASE1
000302:
000303: 36,2322           51455                           INDEX    WHICH
000304: 36,2323           00001                           TC       1
000305:
000306: 36,2324           40106        WANTAPS            CS       FLGWRD10                              #  (1) FOR P42 ENSURE APSFLAG IS SET. IF IT
000307: 36,2325           74737                           MASK     APSFLBIT                              #  WASN'T SET, DAP WILL BE INITIALIZED TO
000308: 36,2326           26106                           ADS      FLGWRD10                              #  ASCENT VALUES BY 1/ACCS IN 2 SECONDS.
000309:
000310: 36,2327           00006        ULLGNOT            EXTEND                                         #  (1)
000311: 36,2330           51455                           INDEX    WHICH
000312: 36,2331           30010                           DCA      7                                     #  LOAD AVEGEXIT WITH APPROPRIATE 2CADR
000313: 36,2332           53252                           DXCH     AVEGEXIT
000314:
000315: 36,2333           34752                           CAF      TWO                                   #  4.2SPOT RESTARTS IMMEDIATELY AT REDO4.2
000316: 36,2334           54001                           TS       L
000317: 36,2335           44752                           CS       TWO                                   #  AND ALSO AT TIG-5 AT THE CORRECT TIME.
000318: 36,2336           52760                           DXCH     -PHASE4
000319:
000320: 36,2337           40025                           CS       TIME1
000321: 36,2340           55060                           TS       TBASE4                                #  SET TBASE4 FOR TIG-5 RESTART
000322:
000323: 36,2341           00006        REDO2.17           EXTEND


000325: 36,2342           34755                           DCA      NEG0                                  #  CLEAR OUT GROUP 2 SO LAMBERT CAN START
000326: 36,2343           52754                           DXCH     -PHASE2                               #        IF NEEDED.
000327:
000328: 36,2344           10762        REDO4.2            CCS      PHASE5                                #  IS SERVICER GOING?
000329: 36,2345           15272                           TCF      TASKOVER                              #  YES, DON'T START IT UP AGAIN.
000330:
000331: 36,2346           04635                           TC       POSTJUMP
000332: 36,2347           77401                           CADR     PREREAD                               #  PREREAD ENDS THIS TASK
000333:
000334:
000335:                                                                                                  #                                  ****************************************
000336:
000337: 36,2350           02664        ULLGTASK           TC       ONULLAGE                              #  THIS COMES AT TIG-7.5 OR TIG-3.5
000338: 36,2351           05364                           TC       PHASCHNG
000339: 36,2352           00001                           OCT      1
000340: 36,2353           15272                           TCF      TASKOVER
000341:
000342:
000343:                                                                                                  #                                  ****************************************
000344:
000345: 36,2354           00006        TIG-5              EXTEND
000346: 36,2355           34755                           DCA      NEG0                                  #  INSURE THAT GROUP 3 IS INACTIVE.
000347: 36,2356           52756                           DXCH     -PHASE3
000348:
000349: 36,2357           33757                           CAF      5SEC
000350: 36,2360           05204                           TC       TWIDDLE
000351: 36,2361           02407                           ADRES    TIG-0
000352:
000353: 36,2362           05527                           TC       DOWNFLAG                              #  RESET IGNFLAG AND ASTNFLAG
000354: 36,2363           00153                           ADRES    IGNFLAG                               #    FOR LIGHT-UP LOGIC
000355: 36,2364           05527                           TC       DOWNFLAG
000356: 36,2365           00154                           ADRES    ASTNFLAG
000357: 36,2366           05527                           TC       DOWNFLAG
000358: 36,2367           00122                           ADRES    ZOOMFLAG
000359:
000360: 36,2370           51455                           INDEX    WHICH
000361: 36,2371           00011                           TC       11
000362:
000363: 36,2372           10756        P40SJUNK           CCS      PHASE3                                #  (11) P40 AND P42.  S40.13 IN PROGRESS?
000364: 36,2373           12402                           TCF      DISPCHNG                              #  YES
000365:
000366: 36,2374           34736                           CAF      PRIO20
000367: 36,2375           05105                           TC       FINDVAC
000368: 36,2376  E7,1453                                  EBANK=   TTOGO
000369: 36,2376           02544 56067                     2CADR    S40.13
000370:
000371:
000372:
000373: 36,2400           05364                           TC       PHASCHNG                              #  3.5SPOT FOR S40.13
000374: 36,2401           00053                           OCT      00053
000375:


000377: 36,2402           44760        DISPCHNG           CS       VB99DEX                               #  (11)
000378: 36,2403           55162                           TS       DISPDEX
000379: 36,2404           05364        COMMON             TC       PHASCHNG                              #  RESTART TIG-0 (4.7SPOT)
000380: 36,2405           40074                           OCT      40074
000381: 36,2406           15272                           TCF      TASKOVER
000382:
000383:
000384:                                                                                                  #                                  ****************************************
000385:
000386: 36,2407           40103        TIG-0              CS       FLAGWRD7                              #  SET IGNFLAG SINCE TIG HAS ARRIVED
000387: 36,2410           74737                           MASK     IGNFLBIT
000388: 36,2411           26103                           ADS      FLAGWRD7
000389:
000390: 36,2412           05332                           TC       CHECKMM                               #  IN P63 CASE, THROTTLE-UP IS ZOOMTIME
000391: 36,2413           00077                           DEC      63         B-14                       #    AFTER NOMINAL IGNITION, NOT ACTUAL
000392: 36,2414           12425                           TCF      IGNYET?
000393: 36,2415           31422                           CA       ZOOMTIME
000394: 36,2416           05214                           TC       WAITLIST
000395: 36,2417  E7,1515                                  EBANK=   DVCNTR
000396: 36,2417           03667 72067                     2CADR    ZOOM
000397:
000398: 36,2421           05340                           TC       2PHSCHNG
000399: 36,2422           40033                           OCT      40033
000400:
000401: 36,2423           05014                           OCT      05014
000402: 36,2424           77777                           OCT      77777
000403:
000404: 36,2425           34740        IGNYET?            CAF      ASTNBIT                               #  CHECK ASTNFLAG:  HAS ASTRONAUT RESPONDED
000405: 36,2426           70103                           MASK     FLAGWRD7                              #    TO OUR ENGINE ENABLE REQUEST?
000406: 36,2427           10000                           CCS      A
000407: 36,2430           12433                           TCF      IGNITION
000408: 36,2431           51455                           INDEX    WHICH
000409: 36,2432           00012                           TC       12
000410:
000411: 36,2433           40101        IGNITION           CS       FLAGWRD5                              #  INSURE ENGONFLG IS SET.
000412: 36,2434           74745                           MASK     ENGONBIT
000413: 36,2435           26101                           ADS      FLAGWRD5
000414: 36,2436           44355                           CS       PRIO30                                #  TURN ON THE ENGINE.
000415: 36,2437           00006                           EXTEND
000416: 36,2440           02011                           RAND     DSALMOUT
000417: 36,2441           64737                           AD       BIT13
000418: 36,2442           00006                           EXTEND
000419: 36,2443           01011                           WRITE    DSALMOUT
000420: 36,2444           00006                           EXTEND                                         #  SET TEVENT FOR DOWNLINK
000421: 36,2445           30025                           DCA      TIME2
000422: 36,2446           53342                           DXCH     TEVENT
000423:
000424: 36,2447           44735                           CS       PULSES                                #  MAKE SURE THAT DAP IS NOT IN MINIMUM
000425: 36,2450           70111                           MASK     DAPBOOLS                              #  IMPULSE MODE IN P12,P40,P42,AND P63
000426: 36,2451           54111                           TS       DAPBOOLS
000427:


000429: 36,2452           00006                           EXTEND                                         #  UPDATE TIG USING TGO FROM S40.13
000430: 36,2453           31517                           DCA      TGO
000431: 36,2454           53442                           DXCH     TIG
000432: 36,2455           00006                           EXTEND
000433: 36,2456           30025                           DCA      TIME2
000434: 36,2457           21442                           DAS      TIG
000435:
000436: 36,2460           44742                           CS       FLUNDBIT                              #  PERMIT GUIDANCE LOOP DISPLAYS
000437: 36,2461           70104                           MASK     FLAGWRD8
000438: 36,2462           54104                           TS       FLAGWRD8
000439:
000440: 36,2463           51455                           INDEX    WHICH
000441: 36,2464           00013                           TC       13
000442:
000443: 36,2465           00006        P63IGN             EXTEND                                         #  (13)      INITIATE BURN DISPLAYS
000444: 36,2466           33144                           DCA      LUNLANAD
000445: 36,2467           53252                           DXCH     AVGEXIT
000446:
000447: 36,2470           30005                           CA       Z                                     #  ASSASSINATE CLOKTASK
000448: 36,2471           55162                           TS       DISPDEX
000449:
000450: 36,2472           40105                           CS       FLAGWRD9                              #  SET FLAG FOR P70-P71
000451: 36,2473           74743                           MASK     LETABBIT
000452: 36,2474           26105                           ADS      FLAGWRD9
000453:
000454: 36,2475           40103                           CS       FLAGWRD7                              #  SET SWANDISP TO ENABLE R10.
000455: 36,2476           74741                           MASK     SWANDBIT
000456: 36,2477           26103                           ADS      FLAGWRD7
000457:
000458: 36,2500           00006                           EXTEND                                         #  INITIALIZE TIG FOR P70 AND P71.
000459: 36,2501           30025                           DCA      TIME2
000460: 36,2502           53442                           DXCH     TIG
000461:
000462: 36,2503           34755                           CAF      ZERO                                  #  INITIALIZE WCHPHASE AND FLPASSO
000463: 36,2504           55346                           TS       WCHPHASE
000464: 36,2505           55621                           TS       WCHPHOLD                              #  ALSO WHCPHOLD
000465: 36,2506           34752                           CA       TWO
000466: 36,2507           55623                           TS       FLPASS0
000467:
000468: 36,2510           12546                           TCF      P42IGN
000469: 36,2511           40101        P40IGN             CS       FLAGWRD5                              #  (13)
000470: 36,2512           74740                           MASK     NOTHRBIT
000471: 36,2513           00006                           EXTEND
000472: 36,2514           12546                           BZF      P42IGN
000473: 36,2515           31422                           CA       ZOOMTIME
000474: 36,2516           05214                           TC       WAITLIST
000475: 36,2517  E7,1515                                  EBANK=   DVCNTR
000476: 36,2517           03667 72067                     2CADR    ZOOM
000477:
000478: 36,2521           05340        P63IGN1            TC       2PHSCHNG
000479: 36,2522           40033                           OCT      40033                                 #  3.3SPOT FOR ZOOM RESTART.
000480: 36,2523           05014                           OCT      05014                                 #  TYPE C   RESTARTS HERE IMMEDIATELY
000481: 36,2524           77777                           OCT      77777
000482:


000484: 36,2525           12546                           TCF      P42IGN
000485: 36,2526           35015        P12IGN             CAF      EBANK6
000486: 36,2527           54003                           TS       EBANK
000487: 36,2530  E6,1536                                  EBANK=   AOSQ
000488:
000489: 36,2530           31412                           CA       IGNAOSQ                               #  INITIALIZE DAP BIAS ACCELERATION
000490: 36,2531           55536                           TS       AOSQ                                  #       ESTIMATES AT P12 IGNITION.
000491: 36,2532           31413                           CA       IGNAOSR
000492: 36,2533           55540                           TS       AOSR
000493:
000494: 36,2534           35016                           CAF      EBANK7
000495: 36,2535           54003                           TS       EBANK
000496: 36,2536  E7,1515                                  EBANK=   DVCNTR
000497:
000498: 36,2536           30005        ABRTIGN            CA       Z                                     #  (13) KILL CLOKTASK
000499: 36,2537           55162                           TS       DISPDEX
000500:
000501: 36,2540           00006                           EXTEND                                         #  CONNECT ASCENT GYIDANCE TO SERVICER.
000502: 36,2541           33146                           DCA      ATMAGADR
000503: 36,2542           53252                           DXCH     AVGEXIT
000504:
000505: 36,2543           40103                           CS       FLAGWRD7                              #  ENABLE R10.
000506: 36,2544           74741                           MASK     SWANDBIT
000507: 36,2545           26103                           ADS      FLAGWRD7
000508:
000509: 36,2546           44744        P42IGN             CS       DRIFTBIT                              #  ENSURE THAT POWERED-FLIGHT SWITCHING
000510: 36,2547           70111                           MASK     DAPBOOLS                              #    CURVES ARE USED.
000511: 36,2550           54111                           TS       DAPBOOLS
000512: 36,2551           34743                           CAF      IMPULBIT                              #  EXAMINE IMPULSE SWITCH
000513: 36,2552           70076                           MASK     FLAGWRD2
000514: 36,2553           10000                           CCS      A
000515: 36,2554           13531                           TCF      IMPLBURN
000516:
000517: 36,2555           05527        DVMONCON           TC       DOWNFLAG
000518: 36,2556           00153                           ADRES    IGNFLAG                               #  CONNECT DVMON
000519: 36,2557           05527                           TC       DOWNFLAG
000520: 36,2560           00154                           ADRES    ASTNFLAG
000521: 36,2561           05527                           TC       DOWNFLAG
000522: 36,2562           00161                           ADRES    IDLEFLAG
000523:
000524: 36,2563           05364                           TC       PHASCHNG
000525: 36,2564           40054                           OCT      40054
000526:
000527: 36,2565           05232                           TC       FIXDELAY                              #  TURN ULLAGE OFF HALF A SECOND AFTER
000528: 36,2566           00062                           DEC      50         B-14                       #  LIGHT UP.
000529:
000530: 36,2567           02660        ULLAGOFF           TC       NOULLAGE
000531:
000532: 36,2570           00006        WAITABIT           EXTEND                                         #  KILL GROUP 4
000533: 36,2571           34755                           DCA      NEG0
000534: 36,2572           52760                           DXCH     -PHASE4
000535:
000536: 36,2573           15272                           TCF      TASKOVER
000537:


000539: 36,2574           04635        TIGTASK            TC       POSTJUMP                              #  (12)
000540: 36,2575           73656                           CADR     TIGTASK1
000541:
000542:                                                                                                  #                                  ****************************************
000543:
000544: 31,2144                                           BANK     31
000545: 35,2000                                           SETLOC   P40S3
000546: 35,2000                                           BANK
000547: 35,3656                                           COUNT*   $$/P40
000548:
000549: 35,3656           35026        TIGTASK1           CAF      PRIO16
000550: 35,3657           05072                           TC       NOVAC
000551: 35,3660  E7,1462                                  EBANK=   TRKMKCNT
000552: 35,3660           03246 74067                     2CADR    TIGNOW
000553:
000554: 35,3662           05527                           TC       DOWNFLAG
000555: 35,3663           00303                           ADRES    PULSEFLG
000556:
000557: 35,3664           05364                           TC       PHASCHNG
000558: 35,3665           00006                           OCT      6                                     #  KILL GROUP 6.
000559:
000560: 35,3666           15272                           TCF      TASKOVER
000561:
000562:
000563:                                                                                                  #                                  ****************************************
000564:
000565: 35,3667           05332        ZOOM               TC       CHECKMM                               #  P40 OR P63?
000566: 35,3670           00077                           DEC      63         B-14
000567: 35,3671           13677                           TCF      P40ZOOM
000568:
000569: 35,3672           05515        P63ZOOM            TC       UPFLAG                                #  INDICATE THAT THROTTLE-UP HAS COME
000570: 35,3673           00122                           ADRES    ZOOMFLAG
000571:
000572: 35,3674           04674                           TC       IBNKCALL
000573: 35,3675           62334                           CADR     FLATOUT
000574: 35,3676           13704                           TCF      P40ZOOMA
000575:
000576: 35,3677           34737        P40ZOOM            CAF      BIT13
000577: 35,3700           54055                           TS       THRUST
000578: 35,3701           34750                           CAF      BIT4
000579:
000580: 35,3702           00006                           EXTEND
000581: 35,3703           05014                           WOR      CHAN14
000582:
000583: 35,3704           05364        P40ZOOMA           TC       PHASCHNG
000584: 35,3705           00003                           OCT      3
000585: 35,3706           15272                           TCF      TASKOVER
000586:
000587:
000588: 36,2576                                           BANK     36


000590: 36,2000                                           SETLOC   P40S
000591: 36,2000                                           BANK
000592: 36,2576                                           COUNT*   $$/P40
000593:
000594:                                                                                                  #                                  ****************************************
000595:
000596: 36,2576           05515        COMFAIL            TC       UPFLAG                                #  (15)
000597: 36,2577           00161                           ADRES    IDLEFLAG
000598: 36,2600           05515                           TC       UPFLAG                                #  SET FLAG TO SUPPRESS CONFLICTING DISPLAY
000599: 36,2601           00175                           ADRES    FLUNDISP
000600: 36,2602           34751                           CAF      FOUR                                  #  RESET DVMON
000601: 36,2603           55515                           TS       DVCNTR
000602: 36,2604           10764                           CCS      PHASE6                                #  CLOCKTASK ACTIVE?
000603: 36,2605           12610                           TCF      +3                                    #  YES
000604: 36,2606           04616                           TC       BANKCALL                              #  OTHERWISE, START IT UP
000605: 36,2607           74670                           CADR     STCLOK1
000606: 36,2610           44765                 +3        CS       VB97DEX
000607: 36,2611           55162                           TS       DISPDEX
000608: 36,2612           05364                           TC       PHASCHNG                              #  TURN OFF GROUP 4.
000609: 36,2613           00004                           OCT      00004
000610: 36,2614           15155                           TCF      ENDOFJOB
000611:
000612: 36,2615           51455        COMFAIL1           INDEX    WHICH
000613: 36,2616           00002                           TC       2
000614:
000615: 36,2617           30005        COMFAIL3           CA       Z                                     #  (15)       KILL CLOKTASK USING Z
000616: 36,2620           12622                           TCF      +2
000617:
000618: 36,2621           44762        COMFAIL4           CS       CNTDNDEX
000619: 36,2622           55162                           TS       DISPDEX
000620:
000621: 36,2623           05527                           TC       DOWNFLAG                              #  RECONNECT DV MONITOR
000622: 36,2624           00161                           ADRES    IDLEFLAG
000623: 36,2625           05527                           TC       DOWNFLAG                              #  PERMIT GUIDANCE LOOP DISPLAYS
000624: 36,2626           00175                           ADRES    FLUNDISP
000625: 36,2627           15155                           TCF      ENDOFJOB
000626:
000627:
000628: 36,2630           05364        COMFAIL2           TC       PHASCHNG                              #  KILL ZOOM RESTART PROTECTION
000629: 36,2631           00003                           OCT      00003
000630:
000631: 36,2632           00004                           INHINT
000632: 36,2633           06032                           TC       KILLTASK                              #  KILL ZOOM, IN CASE IT'S STILL TO COME
000633: 36,2634           73667                           CADR     ZOOM
000634: 36,2635           04674                           TC       IBNKCALL                              #  COMMAND ENGINE OFF
000635: 36,2636           75570                           CADR     ENGINOF4
000636: 36,2637           05515                           TC       UPFLAG                                #  SET THE DRIFT BIT FOR THE DAP.
000637: 36,2640           00312                           ADRES    DRIFTDFL
000638: 36,2641           02652                           TC       INVFLAG                               #  USE OTHER RCS SYSTEM
000639: 36,2642           00310                           ADRES    AORBTFLG


000641: 36,2643           05515                           TC       UPFLAG                                #  TURN ON ULLAGE
000642: 36,2644           00314                           ADRES    ULLAGFLG
000643: 36,2645           34753                           CAF      BIT1
000644: 36,2646           00004                           INHINT
000645: 36,2647           05204                           TC       TWIDDLE
000646: 36,2650           02354                           ADRES    TIG-5
000647: 36,2651           15155                           TCF      ENDOFJOB
000648:
000649:
000650:                                                                                                  #                                  ****************************************
000651:                                                                                                  #                                  SUBROUTINES OF THE IGNITION ROUTINE
000652:                                                                                                  #                                  ****************************************
000653:
000654: 36,2652           30002        INVFLAG            CA       Q
000655: 36,2653           05533                           TC       DEBIT
000656: 36,2654           40000                           COM
000657: 36,2655           00006                           EXTEND
000658: 36,2656           06001                           RXOR     LCHAN
000659: 36,2657           15522                           TCF      COMFLAG
000660:
000661:
000662:                                                                                                  #                                  ****************************************
000663:
000664: 36,2660           44746        NOULLAGE           CS       ULLAGER                               #  MUST BE CALLED IN A TASK OR UNDER INHINT
000665: 36,2661           70111                           MASK     DAPBOOLS
000666: 36,2662           54111                           TS       DAPBOOLS
000667: 36,2663           00002                           TC       Q
000668:
000669:
000670:                                                                                                  #                                  ****************************************
000671:
000672: 36,2664           40111        ONULLAGE           CS       DAPBOOLS                              #  TURN ON ULLAGE.  MUST BE CALLED IN
000673: 36,2665           74746                           MASK     ULLAGER                               #  A TASK OR WHILE INHINTED.
000674: 36,2666           26111                           ADS      DAPBOOLS
000675: 36,2667           00002                           TC       Q
000676:
000677:
000678:                                                                                                  #                                  ****************************************
000679:
000680: 36,2670           34755        STCLOK1            CA       ZERO                                  #  THIS ROUTINE STARTS THE COUNT-DOWN
000681: 36,2671           55162        STCLOK2            TS       DISPDEX                               #    (CLOKTASK AND CLOKJOB).   SETTING
000682: 36,2672           04645        STCLOK3            TC       MAKECADR                              #  SETTING DISPDEX POSITIVE KILLS IT.
000683: 36,2673           55060                           TS       TBASE4                                #  RETURN SAVE (NOT FOR RESTARTS)
000684: 36,2674           00006                           EXTEND
000685: 36,2675           31442                           DCA      TIG
000686: 36,2676           52155                           DXCH     MPAC
000687: 36,2677           00006                           EXTEND
000688: 36,2700           40025                           DCS      TIME2
000689: 36,2701           20155                           DAS      MPAC                                  #  HAVE TIG - TIME2, UNDOUBTEDLY A + NUMBER
000690: 36,2702           07262                           TC       TPAGREE                               #  POSITIVE, SINCE WE PASSED THE


000692: 36,2703           34777                           CAF      1SEC                                  #    45 SECOND CHECK
000693: 36,2704           54002                           TS       Q
000694: 36,2705           52155                           DXCH     MPAC
000695: 36,2706           74346                           MASK     LOW5                                  #  RESTRICT MAGNITUDE OF NUMBER IN A
000696: 36,2707           00006                           EXTEND
000697: 36,2710           10002                           DV       Q
000698: 36,2711           30001                           CA       L                                     #  GET REMAINDER
000699: 36,2712           64752                           AD       TWO
000700: 36,2713           00004                           INHINT
000701: 36,2714           05204                           TC       TWIDDLE
000702: 36,2715           02724                           ADRES    CLOKTASK
000703: 36,2716           05340                           TC       2PHSCHNG
000704: 36,2717           40036                           OCT      40036                                 #  6.3SPOT FOR CLOKTASK
000705: 36,2720           05024                           OCT      05024
000706: 36,2721           13000                           OCT      13000
000707:
000708: 36,2722           31060                           CA       TBASE4
000709: 36,2723           04640                           TC       BANKJUMP
000710:
000711:
000712: 36,2724           40025        CLOKTASK           CS       TIME1                                 #  SET TBASE6 FOR GROUP 6 RESTART
000713: 36,2725           55064                           TS       TBASE6
000714:
000715: 36,2726           11162                           CCS      DISPDEX
000716: 36,2727           12740                           TCF      KILLCLOK
000717: 36,2730           12731                           NOOP
000718: 36,2731           37720                           CAF      PRIO27
000719: 36,2732           05072                           TC       NOVAC
000720: 36,2733  E7,1453                                  EBANK=   TTOGO
000721: 36,2733           02744 74067                     2CADR    CLOKJOB
000722:
000723:
000724:
000725: 36,2735           05232                           TC       FIXDELAY                              #  WAIT A SECOND BEFORE STARTING OVER
000726: 36,2736           00144                           DEC      100        B-14
000727: 36,2737           12724                           TCF      CLOKTASK
000728:
000729:
000730: 36,2740           00006        KILLCLOK           EXTEND                                         #  KILL RESTART
000731: 36,2741           34755                           DCA      NEG0
000732: 36,2742           52764                           DXCH     -PHASE6
000733: 36,2743           15272                           TCF      TASKOVER
000734:
000735:
000736: 36,2744           00006        CLOKJOB            EXTEND
000737: 36,2745           41442                           DCS      TIG
000738: 36,2746           53454                           DXCH     TTOGO
000739: 36,2747           00006                           EXTEND
000740: 36,2750           30025                           DCA      TIME2
000741: 36,2751           21454                           DAS      TTOGO


000743: 36,2752           00004                           INHINT
000744: 36,2753           11162                           CCS      DISPDEX                               #  IF DISPDEX HAS BEEN SET POSITIVE BY A
000745: 36,2754           15155                           TCF      ENDOFJOB                              #  TASK OR A HIGHER PRIORITY JOB SINCE THE
000746: 36,2755           15155                           TCF      ENDOFJOB                              #  LAST CLOKTASK, AVOID USING IT AS AN
000747: 36,2756           40000                           COM                                            #  INDEX.
000748: 36,2757           00003                           RELINT                                         #  *****  DISPDEX MUST NEVER BE -0  *****
000749: 36,2760           50000                           INDEX    A
000750: 36,2761           13016                           TCF      DISPNOT    -1                         #  ( -1 DUE TO EFFECT OF CCS )
000751:
000752: 36,2762     4765               VB97DEX            =        OCT35                                 #  NEGATIVE OF THIS IS PROPER FOR DISPDEX
000753:
000754: 36,2762           44755                 -35       CS       ZERO                                  #  INDICATE VERB 97 PASTE
000755: 36,2763           55066                           TS       NVWORD1
000756: 36,2764           30371                           CA       NVWORD     +2                         #  NVWROD+2 CONTAINS V06 & APPROPRIATE NOUN
000757: 36,2765           04616                           TC       BANKCALL
000758: 36,2766           20474                           CADR     CLOCPLAY
000759: 36,2767           13020                           TCF      STOPCLOK                              #  TERMINATE CLOKTASK ON THE WAY TO P00H
000760: 36,2770           12615                           TCF      COMFAIL1
000761: 36,2771           12630                           TCF      COMFAIL2
000762:
000763:                                                                                                  #  THIS DISPLAY IS CALLED VIA ASTNCLOK
000764: 36,2772           33153                 -25       CAF      V06N61                                #  IT IS PRIMARILY USED BY THE CREW IN P63
000765: 36,2773           04616                           TC       BANKCALL                              #  TO RESET HIS EVENT TIMER TO AGREE WITH
000766: 36,2774           20460                           CADR     REFLASH                               #  TIG.
000767: 36,2775           13020                           TCF      STOPCLOK
000768: 36,2776           13035                           TCF      ASTNRETN
000769: 36,2777           12772                           TCF      -5
000770:
000771: 36,3000     4762               CNTDNDEX           =        LOW4                                  #  OCT17: NEGATIVE PROPER FOR DISPDEX
000772:
000773: 36,3000           51455                 -17       INDEX    WHICH                                 #  THIS DISPLAY COMES UP AT ONE SECOND
000774: 36,3001           30000                           CAF      0                                     #  INTERVALS. IT IS NORMALLY OPERATED
000775: 36,3002           04616                           TC       BANKCALL                              #  BETWEEN TIG-30 SECONDS AND TIG-5 SECONDS
000776: 36,3003           20466                           CADR     REGODSP                               #  REGODSP DOES ITS OWN TCF ENDOFJOB
000777:
000778: 36,3004     4760               VB99DEX            =        ELEVEN                                #  OCT13: NEGATIVE PROPER FOR DISPDEX
000779:
000780: 36,3004                        V99RECYC           EQUALS
000781:
000782: 36,3004           44743                 -13       CS       BIT9                                  #  INDICATE VERB 99 PASTE
000783: 36,3005           55066                           TS       NVWORD1
000784: 36,3006           51455                           INDEX    WHICH                                 #  THIS IS THE "PLEASE ENABLE ENGINE"
000785: 36,3007           30000                           CAF      0                                     #  DISPLAY; IT IS INITIATED AT TIG-5 SEC.
000786: 36,3010           04616                           TC       BANKCALL                              #  THE DISPLAY IS A V99NXX, WHERE XX IS THE
000787: 36,3011           20474                           CADR     CLOCPLAY                              #  NOUN THAT HAD PREVIOUSLY BEEN DISPLAYED
000788: 36,3012           13020                           TCF      STOPCLOK                              #  TERMINATE GOTOPOOH TURNS OFF ULLAGE.
000789: 36,3013           13046                           TCF      *PROCEED
000790: 36,3014           13051                           TCF      *ENTER
000791:
000792: 36,3015     4752               BLANKDEX           =        TWO                                   #  NEGATIVE OF THIS IS PROPER FOR DISPDEX
000793:


000795: 36,3015           04616                 -2        TC       BANKCALL                              #  BLANK DSKY.  THE DSKY IS BLANKED FOR
000796: 36,3016           20457                           CADR     CLEANDSP                              #  5 SECONDS AT TIG-35 TO INDICATE THAT
000797: 36,3017           15155        DISPNOT            TCF      ENDOFJOB                              #  AVERAGE G IS STARTING.
000798:
000799:
000800: 36,3020           03022        STOPCLOK           TC       NULLCLOK                              #  STOP CLOKTASK & TURN OFF ULLAGE ON THE
000801: 36,3021           16001                           TCF      GOTOPOOH                              #      WAY TO P00  (GOTOPOOH RELINTS)
000802:
000803: 36,3022           00004        NULLCLOK           INHINT
000804: 36,3023           00006                           EXTEND
000805: 36,3024           23141                           QXCH     P40/RET
000806: 36,3025           02660                           TC       NOULLAGE                              #  TURN OFF ULLAGE...
000807: 36,3026           06032                           TC       KILLTASK                              #     DON'T LET IT COME ON, EITHER...
000808: 36,3027           74350                           CADR     ULLGTASK
000809: 36,3030           05364                           TC       PHASCHNG                              #           NOT EVEN IF THERE'S A RESTART.
000810: 36,3031           00001                           OCT      1
000811: 36,3032           30005                           CA       Z                                     #  KILL CLOKTASK
000812: 36,3033           55162                           TS       DISPDEX
000813: 36,3034           01141                           TC       P40/RET
000814:
000815:
000816: 36,3035           05364        ASTNRETN           TC       PHASCHNG
000817: 36,3036           04024                           OCT      04024
000818: 36,3037           34755                           CAF      ZERO                                  #  STOP DISPLAYING BUT KEEP RUNNING.
000819: 36,3040           55162                           TS       DISPDEX
000820: 36,3041           35023                           CAF      PRIO13
000821: 36,3042           05105                           TC       FINDVAC
000822: 36,3043  E5,1757                                  EBANK=   STARIND
000823: 36,3043           03000 64065                     2CADR    ASTNRET
000824:
000825: 36,3045           15155                           TCF      ENDOFJOB
000826:
000827:
000828: 36,3046           05515        *PROCEED           TC       UPFLAG
000829: 36,3047           00154                           ADRES    ASTNFLAG
000830:
000831: 36,3050           13107                           TCF      IGNITE
000832:
000833:
000834: 36,3051           00004        *ENTER             INHINT
000835: 36,3052           51455                           INDEX    WHICH
000836: 36,3053           00003                           TC       3
000837:
000838: 36,3054           34644        GOPOST             CAF      PRIO12                                #  (3)  MUST BE LOWER PRIORITY THAN CLOKJOB
000839: 36,3055           05105                           TC       FINDVAC
000840: 36,3056  E7,1453                                  EBANK=   TTOGO
000841: 36,3056           03230 74067                     2CADR    POSTBURN
000842: 36,3060           00004                           INHINT                                         #  SET UP THE DAP FOR COASTING FLIGHT.
000843: 36,3061           04674                           TC       IBNKCALL


000845: 36,3062           40205                           CADR     ALLCOAST
000846: 36,3063           03022                           TC       NULLCLOK
000847: 36,3064           05364                           TC       PHASCHNG                              #  4.13 RESTART FOR POSTBURN
000848: 36,3065           00134                           OCT      00134
000849:
000850: 36,3066           15155                           TCF      ENDOFJOB
000851:
000852:
000853: 36,3067           35027        GOCUTOFF           CAF      PRIO17                                #  (3)
000854: 36,3070           05105                           TC       FINDVAC
000855: 36,3071  E7,1516                                  EBANK=   TGO
000856: 36,3071           02416 30067                     2CADR    CUTOFF
000857:
000858: 36,3073           05527                           TC       DOWNFLAG
000859: 36,3074           00175                           ADRES    FLUNDISP
000860:
000861: 36,3075           00004                           INHINT                                         #  SET UP THE DAP FOR COASTING FLIGHT.
000862: 36,3076           04674                           TC       IBNKCALL
000863: 36,3077           40205                           CADR     ALLCOAST
000864: 36,3100           03022                           TC       NULLCLOK
000865: 36,3101           05364                           TC       PHASCHNG
000866: 36,3102           07024                           OCT      07024
000867: 36,3103           17000                           OCT      17000
000868: 36,3104  E7,1516                                  EBANK=   TGO
000869: 36,3104           02416 30067                     2CADR    CUTOFF
000870:
000871: 36,3106           15155                           TCF      ENDOFJOB
000872:
000873:
000874: 36,3107           40103        IGNITE             CS       FLAGWRD7                              #  (2)
000875: 36,3110           74737                           MASK     IGNFLBIT
000876: 36,3111           10000                           CCS      A
000877: 36,3112           13123                           TCF      IGNITE1
000878: 36,3113           34753                           CAF      BIT1
000879: 36,3114           00004                           INHINT
000880: 36,3115           05204                           TC       TWIDDLE
000881: 36,3116           02433                           ADRES    IGNITION
000882:
000883: 36,3117           34360                           CAF      OCT23                                 #  IMMEDIATE RESTART AT IGNITION.
000884: 36,3120           54001                           TS       L
000885: 36,3121           40000                           COM
000886: 36,3122           52760                           DXCH     -PHASE4
000887:
000888: 36,3123           44762        IGNITE1            CS       CNTDNDEX                              #  RESTORE OLD DISPLAY.
000889: 36,3124           55162                           TS       DISPDEX
000890:
000891: 36,3125           15155                           TCF      ENDOFJOB
000892:
000893:                                                                                                  #                                  ****************************************
000894:


000896: 36,3126           05600        P40ALM             TC       ALARM                                 #  PROGRAM SELECTION NOT CONSISTENT WITH
000897: 36,3127           01706                           OCT      1706                                  #  VEHICLE CONFIGURATION
000898:
000899: 36,3130           35006        REP40ALM           CAF      V05N09                                #  (14)
000900: 36,3131           04616                           TC       BANKCALL
000901: 36,3132           20477                           CADR     GOFLASH
000902:
000903: 36,3133           16001                           TCF      GOTOPOOH                              #  V34E  TERMINATE
000904: 36,3134           13136                           TCF      +2                                    #  PROCEED  CHECK FOR P42
000905: 36,3135           13130                           TCF      REP40ALM                              #  V32E  REDISPLAY ALARM
000906:
000907: 36,3136           51455                           INDEX    WHICH                                 #  FOR P42, ALLOW CREW TO PROCEED EVEN
000908: 36,3137           00014                           TC       14                                    #  THOUGH VEHICLE IS UNSTAGED.
000909:
000910:                                                                                                  #                                  ****************************************
000911:
000912:
000913: 31,2144                                           BANK     31
000914: 35,2000                                           SETLOC   P40S2
000915: 35,2000                                           BANK
000916:
000917: 35,3707                                           COUNT*   $$/P40
000918:
000919: 35,3707           04645        P40AUTO            TC       MAKECADR                              #  HELLO THERE.
000920: 35,3710           55163                           TS       TEMPR60                               #  FOR GENERALIZED RETURN TO OTHER BANKS.
000921: 35,3711           04616        P40A/P             TC       BANKCALL                              #  SUBROUTINE TO CHECK PGNCS CONTROL
000922: 35,3712           54263                           CADR     G+N,AUTO                              #  AND AUTO STABILIZATION MODES
000923: 35,3713           10000                           CCS      A                                     #  +0  INDICATES IN PGNCS, IN AUTO
000924: 35,3714           13726                           TCF      TURNITON                              #  + INDICATES NOT IN PGNCS AND/OR AUTO
000925: 35,3715           34737                           CAF      APSFLBIT                              #  ARE WE ON THE DESCENT STAGE?
000926: 35,3716           70106                           MASK     FLGWRD10
000927: 35,3717           10000                           CCS      A
000928: 35,3720           13733                           TCF      GOBACK                                #  RETURN
000929: 35,3721           34747                           CAF      BIT5                                  #  YES, CHECK FOR AUTOTHROTTLE MODE
000930: 35,3722           00006                           EXTEND
000931: 35,3723           02030                           RAND     CHAN30
000932: 35,3724           00006                           EXTEND
000933: 35,3725           13733                           BZF      GOBACK                                #  IN AUTOTHROTTLE MODE -- RETURN
000934: 35,3726           33735        TURNITON           CAF      P40A/PMD                              #  DISPLAY V50N25 R1=203  PLEASE PERFORM
000935: 35,3727           04616                           TC       BANKCALL                              #  CHECKLIST  203 TURN ON PGNCS ETC.
000936: 35,3730           20624                           CADR     GOPERF1
000937: 35,3731           16001                           TCF      GOTOPOOH                              #  V34E  TERMINATE
000938: 35,3732           13711                           TCF      P40A/P                                #  RECYCLE
000939: 35,3733           31163        GOBACK             CA       TEMPR60
000940: 35,3734           04640                           TC       BANKJUMP                              #  GOODBYE.  COME AGAIN SOON.
000941:
000942:
000943: 35,3735           00203        P40A/PMD           OCT      00203
000944:
000945: 36,3140                                           BANK     36


000947: 36,2000                                           SETLOC   P40S
000948: 36,2000                                           BANK
000949:
000950: 36,3140                                           COUNT*   $$/P40
000951:
000952:                                                                                                  #                                  ****************************************
000953:                                                                                                  #                                  CONSTANTS FOR THE IGNITION ROUTINE
000954:                                                                                                  #                                  ****************************************
000955:
000956: 36,3140  36,2107               SERVCADR           =        P63TABLE   +7
000957:
000958: 36,3140           02040        P40ADRES           ADRES    P40TABLE
000959:
000960: 36,3141           02050        P41ADRES           ADRES    P41TABLE   -5
000961:
000962: 36,3142           02063        P42ADRES           ADRES    P42TABLE
000963:
000964: 36,3143  E7,1515                                  EBANK=   DVCNTR
000965: 36,3143           02425 62067  LUNLANAD           2CADR    LUNLAND
000966:
000967:
000968:
000969: 36,3145  E7,1515                                  EBANK=   DVCNTR
000970: 36,3145           03375 70067  ATMAGADR           2CADR    ATMAG
000971:
000972: 36,3147     6001               ?                  =        GOTOPOOH
000973:
000974: 36,3147           00000 05656  D29.9SEC           2DEC     2990       B-28
000975:
000976:
000977:
000978: 36,3151           04672        S24.9SEC           DEC      2490       B-14
000979:
000980:
000981: 36,3152           00752        4.9SEC             DEC      490        B-14
000982:
000983: 36,3153     4747               OCT20              =        BIT5
000984:
000985: 36,3153           01475        V06N61             VN       0661
000986:


000988:                                                                                                  #           KILLTASK
000989:                                                                                                  #  MOD NO: NEW PROGRAM
000990:                                                                                                  #  MOD BY: COVELLI
000991:
000992:
000993:                                                                                                  #  FUNCTIONAL DESCRIPTION:
000994:
000995:                                                                                                  #     KILLTASK IS USED TO REMOVE A TASK FROM THE WAITLIST BY SUBSTITUTING ANULL TASK CALLED 'NULLTASK' (OF COURSE),
000996:                                                                                                  #  WHICH MERELY DOES A TC TASKOVER. IF THE SAME TASK IS SCHEDULED MORE THAN ONCE, ONLY THE ONE WHICH WILL OCCUR
000997:                                                                                                  #  FIRST IS REMOVED. IF THE TASK IS NOT SCHEDULED, KILLTASK TAKES NO ACTION AND RETURNS WITH NO ALARM. KILLTASK
000998:                                                                                                  #  LEAVES INTERRUPTS INHIBITED SO CALLER MUST RELINT
000999:
001000:                                                                                                  #  CALLING SEQUENCE:
001001:
001002:                                                                                                  #                                          L        TC     KILLTASK        IN FIXED-FIXED
001003:                                                                                                  #                                          L+1      CADR   ????????        CADR (NOT 2CADR) OF TASK TO BE REMOVED.
001004:                                                                                                  #                                          L+2     (RELINT)                RETURN
001005:
001006:                                                                                                  #  EXIT MODE:  AT L+2 OF CALLING SEQUENCE.
001007:
001008:                                                                                                  #  ERASABLE INITIALIZATION=  NONE.
001009:
001010:                                                                                                  #  OUTPUT:  2CADR OF NULLTASK IN LST2
001011:
001012:                                                                                                  #  DEBRIS:  ITEMP1 - ITEMP4, A,L,Q.
001013:
001014: 36,3154  E3,1410                                  EBANK=   LST2
001015:    6032                                           BLOCK    3                                     #  KILLTASK MUST BE IN FIXED-FIXED.
001016:    6000                                           SETLOC   FFTAG6
001017:    6000                                           BANK
001018:    6032                                           COUNT*   $$/KILL
001019:    6032           36041        KILLTASK           CA       KILLBB
001020:    6033           00004                           INHINT
001021:    6034           22000                           LXCH     A
001022:    6035           50002                           INDEX    Q
001023:    6036           30000                           CA       0                                     #  GET CADR.
001024:    6037           22006                           LXCH     BBANK
001025:    6040           12200                           TCF      KILLTSK2                              #  CONTINUE IN SWITCHED FIXED
001026:
001027:    6041  E3,1410                                  EBANK=   LST2
001028:    6041           56063        KILLBB             BBCON    KILLTSK2
001029:
001030:
001031: 27,2200                                           BANK     27
001032:
001033: 27,2000                                           SETLOC   P40S1
001034: 27,2000                                           BANK
001035: 27,2200                                           COUNT*   $$/KILL
001036:
001037: 27,2200           22062        KILLTSK2           LXCH     ITEMP2                                #  SAVE CALLER'S BBANK


001039: 27,2201           24002                           INCR     Q
001040: 27,2202           00006                           EXTEND
001041: 27,2203           22061                           QXCH     ITEMP1                                #  RETURN 2CADR IN ITEMP1,ITEMP2
001042:
001043: 27,2204           54063                           TS       ITEMP3                                #  CADR IS IN A
001044: 27,2205           75012                           MASK     LOW10
001045: 27,2206           64741                           AD       BIT11
001046: 27,2207           54064                           TS       ITEMP4                                #  GENADR OF TASK
001047:
001048: 27,2210           45012                           CS       LOW10
001049: 27,2211           70063                           MASK     ITEMP3
001050: 27,2212           54063                           TS       ITEMP3                                #  FBANK OF TASK
001051:
001052: 27,2213           22007                           ZL
001053: 27,2214           50001        ADRSCAN            INDEX    L
001054: 27,2215           41410                           CS       LST2
001055: 27,2216           60064                           AD       ITEMP4                                #  COMPARE GENADRS
001056: 27,2217           00006                           EXTEND
001057: 27,2220           12232                           BZF      TSTFBANK                              #  IF THEY MATCH, COMPARE FBANKS
001058: 27,2221           44747        LETITLIV           CS       LSTLIM
001059: 27,2222           60001                           AD       L
001060: 27,2223           00006                           EXTEND                                         #  ARE WE DONE?
001061: 27,2224           12230                           BZF      DEAD                                  #  YES - DONE, SO RETURN
001062: 27,2225           24001                           INCR     L
001063: 27,2226           24001                           INCR     L
001064: 27,2227           12214                           TCF      ADRSCAN                               #  CONTINUE LOOP.
001065:
001066: 27,2230           52062        DEAD               DXCH     ITEMP1
001067: 27,2231           52006                           DTCB
001068:
001069: 27,2232           45012        TSTFBANK           CS       LOW10
001070: 27,2233           50001                           INDEX    L
001071: 27,2234           71411                           MASK     LST2       +1                         #  COMPARE FBANKS ONLY.
001072: 27,2235           00006                           EXTEND
001073: 27,2236           60063                           SU       ITEMP3
001074: 27,2237           00006                           EXTEND
001075: 27,2240           12242                           BZF      KILLDEAD                              #  MATCH - KILL IT.
001076: 27,2241           12221                           TCF      LETITLIV                              #  NO MATCH - CONTINUE.
001077:
001078: 27,2242           34353        KILLDEAD           CA       TCTSKOVR
001079: 27,2243           50001                           INDEX    L
001080: 27,2244           55410                           TS       LST2                                  #  REMOVE TASK BY INSERTING TASKOVER
001081: 27,2245           12230                           TCF      DEAD
001082:
001083: 27,2246     4747               LSTLIM             EQUALS   BIT5                                  #  DEC 16

End of include-file BURN,_BABY,_BURN_--_MASTER_IGNITION_ROUTINE.agc.  Parent file is MAIN.agc


