
Source Code


000002:                                                                                                  ## Copyright:   Public domain.
000003:                                                                                                  ## Filename:    CONTROLLED_CONSTANTS.agc
000004:                                                                                                  ## Purpose:     A section of Luminary revision 163.
000005:                                                                                                  ##              It is part of the reconstructed source code for the first
000006:                                                                                                  ##              (unflown) release of the flight software for the Lunar
000007:                                                                                                  ##              Module's (LM) Apollo Guidance Computer (AGC) for Apollo 14.
000008:                                                                                                  ##              The code has been recreated from a reconstructed copy of
000009:                                                                                                  ##              Luminary 173, as well as Luminary memos 157 amd 158.
000010:                                                                                                  ##              It has been adapted such that the resulting bugger words
000011:                                                                                                  ##              exactly match those specified for Luminary 163 in NASA
000012:                                                                                                  ##              drawing 2021152N, which gives relatively high confidence
000013:                                                                                                  ##              that the reconstruction is correct.
000014:                                                                                                  ## Reference:   pp. 38-54
000015:                                                                                                  ## Assembler:   yaYUL
000016:                                                                                                  ## Contact:     Ron Burkey <info@sandroid.org>.
000017:                                                                                                  ## Website:     www.ibiblio.org/apollo/index.html
000018:                                                                                                  ## Mod history: 2019-08-21 MAS  Created from Luminary 173.
000019:                                                                                                  ##              2021-05-30 ABS  DEC -> DEC* for extended address fields.
000020:


000022:                                                                                                  #  DPS AND APS ENGINE PARAMETERS
000023:
000024: 36,2000                                           SETLOC   P40S
000025: 36,2000                                           BANK
000026: 36,2000                                           COUNT*   $$/P40
000027:
000028:                                                                                                  #  *** THE ORDER OF THE FOLLOWING SIX CONSTANTS MUST NOT BE CHANGED ***
000029:
000030: 36,2000           01056 37167  FDPS               2DEC     4.3670     B-7                        #  9817.5 LBS FORCE IN NEWTONS
000031:
000032: 36,2002           00457 03250  MDOTDPS            2DEC     0.1480     B-3                        #  32.62 LBS/SEC IN KGS/CS.
000033:
000034: 36,2004           77777 77731  DTDECAY            2DEC     -38        B-28                       #  40 PERCENT FTP-DPS TAILOFF FOR P40
000035:
000036: 36,2006           00307 11040  FAPS               2DEC     1.5569     B-7                        #  3500 LBS FORCE IN NEWTONS
000037:
000038: 36,2010           00151 05214  MDOTAPS            2DEC     0.05135    B-3                        #  11.32 LBS/SEC IN KGS/CS
000039:
000040: 36,2012           77777 77755  ATDECAY            2DEC     -18        B-28                       #  618 LB-SEC  TAILOFF FOR APS
000041:
000042:                                                                                                  #  ************************************************************************
000043:
000044: 36,2014           00003 00000  100PCTTO           2DEC     24         B-17                       #  100 PERCENT FTP-DPS TAILOFF FOR P70
000045:
000046:                                                                                                  #  ************************************************************************
000047:
000048: 36,2016           00026 30605  FRCS4              2DEC     0.17792    B-7                        #  400 LBS FORCE IN NEWTONS
000049:
000050: 36,2020           00013 14303  FRCS2              2DEC     0.08896    B-7                        #  200 LBS FORCE IN NEWTONS
000051:
000052: 27,2000                                           SETLOC   P40S1
000053: 27,2000                                           BANK
000054: 27,2000                                           COUNT*   $$/P40
000055:
000056:                                                                                                  #  *** APS IMPULSE DATA FOR P42 *******************************************
000057:
000058: 27,2000           00000 07622  K1VAL              2DEC     124.55     B-23                       #  2800 LB-SEC
000059:
000060: 27,2002           00000 00762  K2VAL              2DEC     31.138     B-24                       #  700  LB-SEC
000061:
000062: 27,2004           00030 35104  K3VAL              2DEC     1.5569     B-10                       #  FAPS ( 3500 LBS THRUST)
000063:
000064:                                                                                                  #  ************************************************************************
000065:
000066: 27,2006           00016 36237  S40.136            2DEC     .4671      B-9                        #  .4671 M NEWTONS (DPS)
000067:
000068: 27,2010           35711 35663  S40.136_           2DEC     .4671      B+1                        #  S40.136 SHIFTED LEFT 10.
000069:
000070: 27,2000                                           SETLOC   ASENT1


000072: 27,2000                                           BANK
000073: 27,2012                                           COUNT*   $$/P70
000074:
000075: 27,2012           03631 23146  (1/DV)A            2DEC     15.20      B-7                        #  2 SECONDS WORTH OF INITIAL ASCENT
000076:
000077:                                                                                                  #  STAGE ACCELERATION -- INVERTED (M/CS)
000078:                                                                                                  #  1) PREDICATED ON A LIFTOFF MASS OF
000079:                                                                                                  #     4869.9 KG (SNA-8-D-027 7/11/68)
000080:                                                                                                  #  2) PREDICATED ON A CONTRIBUTION TO VEH-
000081:                                                                                                  #     ICLE ACCELERATION FROM RCS THRUSTERS
000082:                                                                                                  #     EQUIV. TO 1 JET ON CONTINUOUSLY.
000083: 27,2014           33226 14632  K(1/DV)            2DEC     436.70     B-9                        #  DPS ENGINE THRUST IN NEWTONS / 100 CS.
000084:
000085: 27,2016           05306 15503  (AT)A              2DEC     3.2883     E-4        B9              #  INITIAL ASC. STG. ACCELERATION ** M/CS.
000086:
000087:                                                                                                  #  ASSUMPTIONS SAME AS FOR (1/DV)A.
000088: 27,2020           26337 30000  (TBUP)A            2DEC     91902      B-17                       #  ESTIMATED BURN-UP TIME OF THE ASCENT STG
000089:
000090:                                                                                                  #  ASSUMPTIONS SAME AS FOR (1/DV)A WITH THE
000091:                                                                                                  #  ADDITIONAL ASSUMPTION THAT NET MASS-FLOW
000092:                                                                                                  #  RATE = 5.299 KG/SEC = 5.135 (APS) +
000093:                                                                                                  #  .164 (1 RCS JET).
000094: 30,2000                                           SETLOC   ASENT
000095: 30,2000                                           BANK
000096: 30,2000                                           COUNT*   $$/ASENT
000097: 30,2000           02445 00274  AT/RCS             2DEC     .0000785   B+10                       #  4 JETS IN A DRY LEM
000098:
000099: 33,2000                                           SETLOC   SERVICES
000100: 33,2000                                           BANK
000101: 33,2000                                           COUNT*   $$/SERV
000102:
000103:                                                                                                  #  *** THE ORDER OF THE FOLLOWING TWO CONSTANTS MUST NOT BE CHANGED *******
000104:
000105: 33,2000           41545        APSVEX             DEC      -3030      E-2        B-5             #  9942 FT/SEC IN M/CS.
000106: 33,2001           42341        DPSVEX             DEC*     -2.95588868 E+1        B-05*           #          VE (DPS) +2.95588868E+ 3
000107:                                                                                                  #  ************************************************************************
000108:
000109: 31,2000                                           SETLOC   F2DPS*31
000110: 31,2000                                           BANK
000111: 31,2000                                           COUNT*   $$/F2DPS
000112:
000113: 31,2000           00222 33316  TRIMACCL           2DEC*    +3.50132708 E-5        B+08*           #          A (T)    +3.50132708E- 1
000114:


000116:                                                                                                  #  THROTTLING AND THRUST DETECTION PARAMETERS
000117:
000118: 36,2000                                           SETLOC   P40S
000119: 36,2000                                           BANK
000120: 36,2022                                           COUNT*   $$/P40
000121:
000122: 36,2022           00030        THRESH1            DEC      24         B-14
000123:
000124: 36,2023           00014        THRESH3            DEC      12         B-14
000125:
000126: 36,2024     4737               HIRTHROT           =        BIT13
000127:
000128:    6000                                           SETLOC   FFTAG5
000129:    6000                                           BANK
000130:    6000                                           COUNT*   $$/P40
000131:
000132:    6000           00464        THRESH2            DEC      308        B-14
000133:
000134: 31,2000                                           SETLOC   FTHROT
000135: 31,2000                                           BANK
000136: 31,2002                                           COUNT*   $$/THROT
000137:
000138: 31,2002           07401        FMAXODD            DEC      +3841      B-14                       #  FSAT          +4.81454413 E+ 4
000139:
000140: 31,2003           06613        FMAXPOS            DEC      +3467      B-14                       #  FMAX          +4.34546769 E+ 4
000141:
000142: 31,2004           00024        THROTLAG           DEC      +20        B-14                       #  TAU (TH)      +1.99999999 E-1
000143: 31,2005           00307 17534  SCALEFAC           2DEC*    +7.97959872 E+2        B-16*           #  BITPERF       +7.97959872E- 2
000144:
000145: 32,2000                                           SETLOC   F2DPS*32
000146: 32,2000                                           BANK
000147: 32,2000                                           COUNT*   $$/F2DPS
000148:
000149: 32,2000           00044        DPSTHRSH           DEC      36         B-14                       #  (THRESH1 + THRESH3 FOR P63)
000150:


000152:                                                                                                  #  LM HARDWARE-RELATED PARAMETERS
000153:
000154: 25,2000                                           SETLOC   RADARUPT
000155: 25,2000                                           BANK
000156: 25,2000                                           COUNT*   $$/RRUPT
000157:
000158: 25,2000           47777        LVELBIAS           DEC      -12288     B-14                       #  LANDING RADAR BIAS FOR 153.6 KC.
000159:
000160: 25,2001           00001 01150  RDOTBIAS           2DEC     17000      B-28                       #  BIAS COUNT FOR RR RANGE RATE.
000161:
000162: 32,2000                                           SETLOC   LRS22
000163: 32,2000                                           BANK
000164: 32,2001                                           COUNT*   $$/LRS22
000165:
000166: 32,2001           70123 40702  RDOTCONV           2DEC     -.0019135344 B7                         #  CONVERTS RR RDOT READING TO M/CS AT 2(7)
000167:
000168: 32,2003           13337 10776  RANGCONV           2DEC     2.859024   B-3                        #  CONVERTS RR RANGE READING TO M. AT 2(-29
000169:
000170: 33,2000                                           SETLOC   SERVICES
000171: 33,2000                                           BANK
000172: 33,2002                                           COUNT*   $$/SERV
000173:
000174: 33,2002           51102 42414  HBEAMNB            2DEC     -0.7147168647                            #  POS 1 ALT BEAM IN NAV BASE COORDINATES
000175:
000176: 33,2004           75522 46002                     2DEC     -0.0731086602
000177:
000178: 33,2006           51573 62362                     2DEC     -0.6955824372
000179:
000180:
000181: 33,2010           62770 40667  VZBEAMNB           2DEC     -0.4067366430                            #  POS 1 VZ  BEAM
000182:
000183: 33,2012           03034 21031                     2DEC     +0.0954915028
000184:
000185: 33,2014           35045 21077                     2DEC     +0.9085409600
000186:
000187:
000188: 33,2016           00000 00000  VYBEAMNB           2DEC     +0.0                                  #  POS 1 VY  BEAM
000189:
000190: 33,2020           37646 07712                     2DEC     +0.9945218954
000191:
000192: 33,2022           74517 54765                     2DEC     -0.1045284632
000193:
000194:
000195: 33,2024           35167 20727  VXBEAMNB           2DEC     +0.9135454576                            #  POS 1 VX  BEAM
000196:
000197: 33,2026           01270 22313                     2DEC     +0.0425155563
000198:
000199: 33,2030           14743 16747                     2DEC     +0.4045084971
000200:
000201:


000203: 33,2032           42001 62422                     2DEC     -0.9374036070                            #  POS 2 ALT BEAM
000204:
000205: 33,2034           76653 63102                     2DEC     -0.0364014993
000206:
000207: 33,2036           64725 63461                     2DEC     -0.3463371311
000208:
000209:
000210: 33,2040           00000 00000                     2DEC     +0.0                                  #  POS 2 VZ  BEAM
000211:
000212: 33,2042           03260 23012                     2DEC     +0.1045284632
000213:
000214: 33,2044           37646 07712                     2DEC     +0.9945218954
000215:
000216:
000217: 33,2046           00000 00000                     2DEC     +0.0                                  #  POS 2 VY  BEAM
000218:
000219: 33,2050           37646 07712                     2DEC     +0.9945218954
000220:
000221: 33,2052           74517 54765                     2DEC     -0.1045284632
000222:
000223:
000224: 33,2054           37777 37777                     2DEC     +0.9999999999                            #  POS 2 VX  BEAM
000225:
000226: 33,2056           00000 00000                     2DEC     +0.0
000227:
000228: 33,2060           00000 00000                     2DEC     +0.0
000229:
000230:
000231: 33,2062           65363 64451  HSCAL              2DEC     -.3288792                             #  SCALES 1.079 FT/BIT TO 2(22)M.
000232:
000233:                                                                                                  #  ***** THE SEQUENCE OF THE FOLLOWING CONSTANTS MUST BE PRESERVED ********
000234:
000235: 33,2064           21241 03216  VZSCAL             2DEC     +.5410829105                            #  SCALES .8668 FT/SEC/BIT TO 2(18) M/CS.
000236:
000237: 33,2066           30153 23101  VYSCAL             2DEC     +.7565672446                            #  SCALES 1.212 FT/SEC/BIT TO 2(18) M/CS.
000238:
000239: 33,2070           63105 61733  VXSCAL             2DEC     -.4020043770                            #  SCALES -.644 FT/SEC/BIT TO 2(18) M/CS.
000240:
000241:
000242:                                                                                                  #  ************************************************************************
000243:
000244: 33,2072           01507        KPIP               DEC      .0512                                 #  SCALES DELV TO UNITS OF 2(5) M/CS.
000245: 33,2073           00321 26706  KPIP1              2DEC     .0128                                 #  SCALES DELV TO UNITS OF 2(7) M/CS.
000246:


000248: 33,2075           00150 33343  KPIP2              2DEC     .0064                                 #  SCALES DELV TO UNITS OF 2(8) M/CS.
000249:
000250: 33,2077           02630 25010  ALTCONV            2DEC     1.399078846 B-4                        #  CONVERTS M*2(-24) TO BIT UNITS *2(-28).
000251: 33,2101           24402 26003  ARCONV1            2DEC     656.167979 B-10                       #  CONV. ALTRATE COMP. TO BIT UNITS<
000252:
000253: 21,2000                                           SETLOC   R10
000254: 21,2000                                           BANK
000255: 21,2000                                           COUNT*   $$/R10
000256:
000257: 21,2000           24402        ARCONV             OCT      24402                                 #  656.1679798B-10 CONV ALTRATE TO BIT UNIT
000258:
000259: 21,2001           01551        ARTOA              DEC      .1066098   B-1                        #  .25/2.345 B-1 4X/SEC CYCLE RATE.
000260:
000261: 21,2002           21357        ARTOA2             DEC      .0021322   B8                         #  (.5)/(2.345)(100)
000262:
000263: 21,2003           22316        VELCONV            OCT      22316                                 #  588.914 B-10 CONV VEL. TO BIT UNITS.
000264:
000265: 21,2004           01507        KPIP1(5)           DEC      .0512                                 #  SCALES DELV TO M/CS*2(-5).
000266:
000267: 21,2005           00547        MAXVBITS           OCT      00547                                 #  MAX. DISPLAYED VELOCITY 199.9989 FT/SEC.
000268:
000269:
000270: 20,2000                                           SETLOC   DAPS3
000271: 20,2000                                           BANK
000272: 20,2000                                           COUNT*   $$/DAPAO
000273:
000274: 20,2000           01150        TORKJET1           DEC      .03757                                #  550 / .2 SCALED AT (+16) 64 / 180
000275:


000277:                                                                                                  #  PARAMETERS RELATING TO MASS, INERTIA, AND VEHICLE DIMENSTIONS
000278:
000279:
000280: 05,2000                                           SETLOC   FRANDRES
000281: 05,2000                                           BANK
000282: 05,2000                                           COUNT*   $$/START
000283:
000284: 05,2000           02357        FULLAPS            DEC      5050       B-16                       #  NOMINAL FULL ASCENT MASS -- 2(16) KG.
000285:
000286: 01,2000                                           SETLOC   LOADDAP1
000287: 01,2000                                           BANK
000288: 01,2000                                           COUNT*   $$/R03
000289:
000290: 01,2000           76466        MINLMD             DEC      -2850      B-16                       #  MIN. DESCENT STAGE MASS -- 2(16) KG.
000291:
000292: 01,2001           76731        MINMINLM           DEC      -2200      B-16                       #  MIN ASCENT STAGE MASS -- 2(16) KG.
000293:
000294: 01,2002     4741               MINCSM             =        BIT11                                 #  MIN CSM MASS (OK FOR 1/ACCS) = 9050 LBS
000295:
000296: 20,2000                                           SETLOC   DAPS3
000297: 20,2000                                           BANK
000298: 20,2001                                           COUNT*   $$/DAPAO
000299:
000300: 20,2001           01046        LOASCENT           DEC      2200       B-16                       #  MIN ASCENT LEM MASS -- 2(16) KG.
000301:
000302: 20,2002           10117        HIDESCNT           DEC      16700      B-16                       #  MAX DESCENT LEM MASS -- 2(16) KG.
000303: 20,2003           00666        LODESCNT           DEC      1750       B-16                       #  MIN DESCENT STAGE (ALONE) -- 2(16) KG
000304:


000306:                                                                                                  #  PHYSICAL CONSTANTS ( TIME - INVARIANT )
000307:
000308: 37,2000                                           SETLOC   IMU2
000309: 37,2000                                           BANK
000310: 37,2000                                           COUNT*   $$/P07
000311:
000312: 37,2000           07623 26552  OMEG/MS            2DEC     .24339048
000313:
000314: 22,2000                                           SETLOC   R30LOC
000315: 22,2000                                           BANK
000316: 22,2000                                           COUNT*   $$/R30
000317:
000318:                                                                                                  #  *** THE ORDER OF THE FOLLOWING TWO CONSTANTS MUST BE PRESERVED *********
000319:
000320: 22,2000           27533 07571  1/RTMUM            2DEC*    .45162595  E-4        B14*
000321:
000322: 22,2002           25004 06702  1/RTMUE            2DEC*    .50087529  E-5        B17*
000323:
000324:                                                                                                  #  ************************************************************************
000325:
000326: 27,2000                                           SETLOC   P40S1
000327: 27,2000                                           BANK
000328: 27,2022                                           COUNT*   $$/S40.9
000329:
000330: 27,2022           55340 61710  EARTHMU            2DEC*    -3.986032  E10        B-36*           #  M(3)/CS(2)
000331:
000332: 27,2000                                           SETLOC   ASENT1
000333: 27,2000                                           BANK
000334: 27,2024                                           COUNT*   $$/P12
000335:
000336: 27,2024           00072 16206  MUM(-37)           2DEC*    4.9027780  E8         B-37*
000337:
000338: 27,2026           00344 24331  MOONRATE           2DEC*    .26616994890062991 E-7        B+19*           #  RAD/CS.
000339:
000340: 33,2000                                           SETLOC   SERVICES
000341: 33,2000                                           BANK
000342: 33,2103                                           COUNT*   $$/SERV
000343:
000344:                                                                                                  #  *** THE ORDER OF THE FOLLOWING TWO CONSTANTS MUST BE PRESERVED *********
000345:
000346: 33,2103           61377 55754  -MUDT              2DEC*    -7.9720645 E+12       B-44*
000347: 33,2105           77644 65556  -MUDT1             2DEC*    -9.8055560 E+10       B-44*
000348:                                                                                                  #  ************************************************************************
000349:


000351: 33,2107           64453 55670  -MUDTMUN           2DEC*    -9.8055560 E+10       B-38*
000352: 33,2111           00002 11777  RESQ               2DEC*    40.6809913 E12        B-58*
000353:
000354: 33,2113           01023 37155  20J                2DEC     3.24692010 E-2
000355:
000356: 33,2115           00065 06244  2J                 2DEC     3.24692010 E-3
000357:
000358: 14,2000                                           SETLOC   P50S1
000359: 14,2000                                           BANK
000360: 14,2000                                           COUNT*   $$/LOSAM
000361:
000362: 14,2000           26723 00450  RSUBEM             2DEC     384402000  B-29
000363:
000364: 14,2002           00065 01265  RSUBM              2DEC     1738090    B-29
000365:
000366: 14,2004           00302 24533  RSUBE              2DEC     6378166    B-29
000367:
000368: 14,2006           00052 04047  ROE                2DEC     .00257125
000369:
000370: 04,2000                                           SETLOC   CONICS1
000371: 04,2000                                           BANK
000372: 04,2000                                           COUNT*   $$/LT-LG
000373:
000374: 04,2000           00302 17755  ERAD               2DEC     6373338    B-29                       #  PAD RADIUS
000375:
000376: 04,2002           00065 01265  504RM              2DEC     1738090    B-29                       #  METERS B-29 (EQUATORIAL MOON RADIUS)
000377:
000378: 04,2000                                           SETLOC   CONICS1
000379: 04,2000                                           BANK
000380: 04,2004                                           COUNT*   $$/CONIC
000381:
000382:                                                                                                  #  *** THE ORDER OF THE FOLLOWING CONSTANTS MUST BE PRESERVED *************
000383:
000384: 04,2004           22437 16067  MUTABLE            2DEC*    3.986032   E10        B-36*           #  MUE
000385:
000386: 04,2006           15625 21042                     2DEC*    .25087606  E-10       B+34*           #  1/MUE
000387:
000388: 04,2010           30276 04773                     2DEC*    1.99650495 E5         B-18*           #  SQRT(MUE)
000389:
000390: 04,2012           25004 06702                     2DEC*    .50087529  E-5        B+17*           #  1/SQRT(MUE)
000391:
000392:
000393:
000394: 04,2014           16471 01352                     2DEC*    4.902778   E8         B-30*           #  MUM
000395:
000396: 04,2016           21412 20500                     2DEC*    .203966    E-8        B+28*           #  1/MUM
000397:
000398: 04,2020           25477 03367                     2DEC*    2.21422176 E4         B-15*           #  SQRT(MUM)
000399:
000400: 04,2022           27533 07571                     2DEC*    .45162595  E-4        B+14*           #  1/SQRT(MUM)
000401:
000402:                                                                                                  #  ************************************************************************


000404: 13,2000                                           SETLOC   INTINIT
000405: 13,2000                                           BANK
000406: 13,2000                                           COUNT*   $$/INTIN
000407:
000408: 13,2000           07112 06620  OMEGMOON           2DEC*    2.66169947 E-8        B+23*
000409:
000410: 13,2000                                           SETLOC   ORBITAL2
000411: 13,2000                                           BANK
000412: 13,2002                                           COUNT*   $$/ORBIT
000413:
000414:                                                                                                  #  *** THE ORDER OF THE FOLLOWING CONSTANTS MUST NOT BE CHANGED ***********
000415:
000416: 13,2002           27446 14620                     2DEC*    1.32715445 E16        B-54*           #  S
000417:
000418: 13,2004           16471 01352  MUM                2DEC*    4.9027780  E8         B-30*           #  M
000419:
000420: 13,2006           22437 16067  MUEARTH            2DEC*    3.986032   E10        B-36*
000421:
000422: 13,2010           00000 00000                     2DEC     0          B-28
000423:
000424: 13,2012           02302 24736  J4REQ/J3           2DEC*    .4991607391 E7         B-26*
000425:
000426: 13,2014           77651 76237                     2DEC     -176236.02 B-25
000427:
000428: 13,2016           77776 53032  2J3RE/J2           2DEC*    -.1355426363 E5         B-27*
000429:
000430: 13,2020           10407 05344                     2DEC*    .3067493316 E18        B-60*
000431:
000432: 13,2022           13710 35320  J2REQSQ            2DEC*    1.75501139 E21        B-72*
000433:
000434: 13,2024           12160 12124  3J22R2MU           2DEC*    9.20479048 E16        B-58*
000435:
000436:                                                                                                  #  ************************************************************************
000437:
000438: 27,2000                                           SETLOC   TOF-FF1
000439: 27,2000                                           BANK
000440: 27,2030                                           COUNT*   $$/TFF
000441:
000442: 27,2030           24775 30424  1/RTMU             2DEC*    .5005750271 E-5        B17*            #  MODIFIED EARTH MU
000443:
000444: 42,2000                                           SETLOC   SBAND
000445: 42,2000                                           BANK
000446: 42,2000                                           COUNT*   $$/R05
000447:
000448: 42,2000           26723 00450  REMDIST            2DEC     384402000  B-29                       #  MEAN DISTANCE BETWEEN EARTH AND MOON.
000449:


000451:                                                                                                  #  PHYSICAL CONSTANTS (TIME - VARIANT)
000452:
000453: 14,2000                                           SETLOC   STARTAB
000454: 14,2000                                           BANK
000455: 14,2010                                           COUNT*   $$/STARS
000456:
000457: 14,2010           15263 14526                     2DEC     +.8343989109 B-1                        #  STAR 37       X
000458:
000459: 14,2012           74131 63662                     2DEC     -.2390600205 B-1                        #  STAR 37       Y
000460:
000461: 14,2014           70033 66576                     2DEC     -.4966173214 B-1                        #  STAR 37       Z
000462:
000463: 14,2016           15015 01060                     2DEC     +.8140910890 B-1                        #  STAR 36       X
000464:
000465: 14,2020           67070 77733                     2DEC     -.5555422636 B-1                        #  STAR 36       Y
000466:
000467: 14,2022           02552 02515                     2DEC     +.1691995627 B-1                        #  STAR 36       Z
000468:
000469: 14,2024           07210 17302                     2DEC     +.4541602263 B-1                        #  STAR 35       X
000470:
000471: 14,2026           67277 54722                     2DEC     -.5391353124 B-1                        #  STAR 35       Y
000472:
000473: 14,2030           13262 14226                     2DEC     +.7092754074 B-1                        #  STAR 35       Z
000474:
000475: 14,2032           05100 14770                     2DEC     +.3203620343 B-1                        #  STAR 34       X
000476:
000477: 14,2034           70716 63142                     2DEC     -.4435303001 B-1                        #  STAR 34       Y
000478:
000479: 14,2036           62466 74737                     2DEC     -.8370478121 B-1                        #  STAR 34       Z
000480:
000481: 14,2040           10653 31305                     2DEC     +.5522208574 B-1                        #  STAR 33       X
000482:
000483: 14,2042           63236 44502                     2DEC     -.7931952248 B-1                        #  STAR 33       Y
000484:
000485: 14,2044           73711 44272                     2DEC     -.2566972144 B-1                        #  STAR 33       Z
000486:
000487: 14,2046           07206 14007                     2DEC     +.4539032479 B-1                        #  STAR 32       X
000488:
000489: 14,2050           61750 65323                     2DEC     -.8778479991 B-1                        #  STAR 32       Y
000490:
000491: 14,2052           02343 35410                     2DEC     +.1528225504 B-1                        #  STAR 32       Z
000492:
000493: 14,2054           03241 11616                     2DEC     +.2071906196 B-1                        #  STAR 31       X
000494:
000495: 14,2056           62031 41460                     2DEC     -.8719421540 B-1                        #  STAR 31       Y
000496:
000497: 14,2060           70715 76442                     2DEC     -.4436089799 B-1                        #  STAR 31       Z
000498:
000499: 14,2062           01746 04017                     2DEC     +.1218415406 B-1                        #  STAR 30       X
000500:
000501: 14,2064           63532 44700                     2DEC     -.7702450672 B-1                        #  STAR 30       Y
000502:


000504: 14,2066           12010 06310                     2DEC     +.6260009387 B-1                        #  STAR 30       Z
000505:
000506: 14,2070           76150 62332                     2DEC     -.1122343912 B-1                        #  STAR 29       X
000507:
000508: 14,2072           60371 66347                     2DEC     -.9695188377 B-1                        #  STAR 29       Y
000509:
000510: 14,2074           03370 06667                     2DEC     +.2177995974 B-1                        #  STAR 29       Z
000511:
000512: 14,2076           76126 53632                     2DEC     -.1144569328 B-1                        #  STAR 28       X
000513:
000514: 14,2100           72436 70326                     2DEC     -.3399947346 B-1                        #  STAR 28       Y
000515:
000516: 14,2102           61041 51225                     2DEC     -.9334362275 B-1                        #  STAR 28       Z
000517:
000518: 14,2104           72301 44526                     2DEC     -.3514226152 B-1                        #  STAR 27       X
000519:
000520: 14,2106           62640 61020                     2DEC     -.8241537737 B-1                        #  STAR 27       Y
000521:
000522: 14,2110           70711 57555                     2DEC     -.4441539178 B-1                        #  STAR 27       Z
000523:
000524: 14,2112           67365 45532                     2DEC     -.5325711148 B-1                        #  STAR 26       X
000525:
000526: 14,2114           64425 40516                     2DEC     -.7161840263 B-1                        #  STAR 26       Y
000527:
000528: 14,2116           07157 00567                     2DEC     +.4510526000 B-1                        #  STAR 26       Z
000529:
000530: 14,2120           63330 51176                     2DEC     -.7860975319 B-1                        #  STAR 25       X
000531:
000532: 14,2122           67513 77771                     2DEC     -.5219727016 B-1                        #  STAR 25       Y
000533:
000534: 14,2124           05227 37143                     2DEC     +.3310516106 B-1                        #  STAR 25       Z
000535:
000536: 14,2126           64756 42240                     2DEC     -.6896884364 B-1                        #  STAR 24       X
000537:
000538: 14,2130           71234 63041                     2DEC     -.4183842954 B-1                        #  STAR 24       Y
000539:
000540: 14,2132           66426 60103                     2DEC     -.5910029120 B-1                        #  STAR 24       Z
000541:
000542: 14,2134           66546 66454                     2DEC     -.5812126603 B-1                        #  STAR 23       X
000543:
000544: 14,2136           73257 67711                     2DEC     -.2910465457 B-1                        #  STAR 23       Y
000545:
000546: 14,2140           14121 11310                     2DEC     +.7599235169 B-1                        #  STAR 23       Z
000547:
000548: 14,2142           61250 64612                     2DEC     -.9169129501 B-1                        #  STAR 22       X
000549:
000550: 14,2144           72311 53514                     2DEC     -.3504194263 B-1                        #  STAR 22       Y
000551:
000552: 14,2146           74743 55251                     2DEC     -.1909891817 B-1                        #  STAR 22       Z
000553:


000555: 14,2150           70607 46251                     2DEC     -.4522463508 B-1                        #  STAR 21       X
000556:
000557: 14,2152           77152 67164                     2DEC     -.0494719393 B-1                        #  STAR 21       Y
000558:
000559: 14,2154           61600 73424                     2DEC     -.8905199410 B-1                        #  STAR 21       Z
000560:
000561: 14,2156           60605 51271                     2DEC     -.9524789319 B-1                        #  STAR 20       X
000562:
000563: 14,2160           77030 43666                     2DEC     -.0595555999 B-1                        #  STAR 20       Y
000564:
000565: 14,2162           73160 72671                     2DEC     -.2987256513 B-1                        #  STAR 20       Z
000566:
000567: 14,2164           60431 40244                     2DEC     -.9656970164 B-1                        #  STAR 19       X
000568:
000569: 14,2166           00655 03043                     2DEC     +.0523798707 B-1                        #  STAR 19       Y
000570:
000571: 14,2170           04043 20031                     2DEC     +.2543336816 B-1                        #  STAR 19       Z
000572:
000573: 14,2172           62163 44553                     2DEC     -.8609439465 B-1                        #  STAR 18       X
000574:
000575: 14,2174           07324 15316                     2DEC     +.4634300302 B-1                        #  STAR 18       Y
000576:
000577: 14,2176           03266 20674                     2DEC     +.2097811430 B-1                        #  STAR 18       Z
000578:
000579: 14,2200           63470 50263                     2DEC     -.7743822014 B-1                        #  STAR 17       X
000580:
000581: 14,2202           11656 26664                     2DEC     +.6150774086 B-1                        #  STAR 17       Y
000582:
000583: 14,2204           75500 63126                     2DEC     -.1483643740 B-1                        #  STAR 17       Z
000584:
000585: 14,2206           70426 67766                     2DEC     -.4659729684 B-1                        #  STAR 16       X
000586:
000587: 14,2210           07506 25305                     2DEC     +.4773764969 B-1                        #  STAR 16       Y
000588:
000589: 14,2212           13726 31410                     2DEC     +.7449703838 B-1                        #  STAR 16       Z
000590:
000591: 14,2214           72160 45226                     2DEC     -.3613079259 B-1                        #  STAR 15       X
000592:
000593: 14,2216           11143 20062                     2DEC     +.5746463708 B-1                        #  STAR 15       Y
000594:
000595: 14,2220           64200 54164                     2DEC     -.7343283537 B-1                        #  STAR 15       Z
000596:
000597: 14,2222           71320 52744                     2DEC     -.4120676148 B-1                        #  STAR 14       X
000598:
000599: 14,2224           16401 26465                     2DEC     +.9064582964 B-1                        #  STAR 14       Y
000600:
000601: 14,2226           01364 30204                     2DEC     +.0923776901 B-1                        #  STAR 14       Z
000602:
000603: 14,2230           75052 77025                     2DEC     -.1822546265 B-1                        #  STAR 13       X
000604:


000606: 14,2232           17030 04652                     2DEC     +.9404481198 B-1                        #  STAR 13       Y
000607:
000608: 14,2234           73321 51514                     2DEC     -.2869504922 B-1                        #  STAR 13       Z
000609:
000610: 14,2236           77007 70532                     2DEC     -.0615513667 B-1                        #  STAR 12       X
000611:
000612: 14,2240           11514 36162                     2DEC     +.6031426337 B-1                        #  STAR 12       Y
000613:
000614: 14,2242           63215 50542                     2DEC     -.7952549230 B-1                        #  STAR 12       Z
000615:
000616: 14,2244           02141 34546                     2DEC     +.1369502971 B-1                        #  STAR 11       X
000617:
000618: 14,2246           12716 02026                     2DEC     +.6814042795 B-1                        #  STAR 11       Y
000619:
000620: 14,2250           13401 34315                     2DEC     +.7189804058 B-1                        #  STAR 11       Z
000621:
000622: 14,2252           03156 02376                     2DEC     +.2009372589 B-1                        #  STAR 10       X
000623:
000624: 14,2254           17402 26132                     2DEC     +.9690787331 B-1                        #  STAR 10       Y
000625:
000626: 14,2256           75552 70755                     2DEC     -.1432153163 B-1                        #  STAR 10       Z
000627:
000628: 14,2260           05467 12453                     2DEC     +.3505042402 B-1                        #  STAR 9        X
000629:
000630: 14,2262           16221 03071                     2DEC     +.8927120666 B-1                        #  STAR 9        Y
000631:
000632: 14,2264           04420 03530                     2DEC     +.2832171316 B-1                        #  STAR 9        Z
000633:
000634: 14,2266           06441 32064                     2DEC     +.4103778920 B-1                        #  STAR 8        X
000635:
000636: 14,2270           07767 00316                     2DEC     +.4989028983 B-1                        #  STAR 8        Y
000637:
000638: 14,2272           14155 10512                     2DEC     +.7633386428 B-1                        #  STAR 8        Z
000639:
000640: 14,2274           13177 16474                     2DEC     +.7030586868 B-1                        #  STAR 7        X
000641:
000642: 14,2276           13245 32202                     2DEC     +.7077417542 B-1                        #  STAR 7        Y
000643:
000644: 14,2300           01070 04747                     2DEC     +.0693548283 B-1                        #  STAR 7        Z
000645:
000646: 14,2302           10560 10564                     2DEC     +.5449551668 B-1                        #  STAR 6        X
000647:
000648: 14,2304           10403 00211                     2DEC     +.5316172328 B-1                        #  STAR 6        Y
000649:
000650: 14,2306           65500 54764                     2DEC     -.6483879887 B-1                        #  STAR 6        Z
000651:
000652: 14,2310           00152 17317                     2DEC     +.0129982160 B-1                        #  STAR 5        X
000653:
000654: 14,2312           00077 36650                     2DEC     +.0078080287 B-1                        #  STAR 5        Y
000655:


000657: 14,2314           17777 01672                     2DEC     +.9998850339 B-1                        #  STAR 5        Z
000658:
000659: 14,2316           07674 32337                     2DEC     +.4918000631 B-1                        #  STAR 4        X
000660:
000661: 14,2320           03417 04547                     2DEC     +.2205989850 B-1                        #  STAR 4        Y
000662:
000663: 14,2322           62413 74137                     2DEC     -.8422997006 B-1                        #  STAR 4        Z
000664:
000665: 14,2324           07507 11400                     2DEC     +.4774532337 B-1                        #  STAR 3        X
000666:
000667: 14,2326           01674 02073                     2DEC     +.1167072881 B-1                        #  STAR 3        Y
000668:
000669: 14,2330           15736 05654                     2DEC     +.8708718726 B-1                        #  STAR 3        Z
000670:
000671: 14,2332           16745 15337                     2DEC     +.9342553544 B-1                        #  STAR 2        X
000672:
000673: 14,2334           02617 02736                     2DEC     +.1737172460 B-1                        #  STAR 2        Y
000674:
000675: 14,2336           73010 70171                     2DEC     -.3114309732 B-1                        #  STAR 2        Z
000676:
000677: 14,2340           15776 17053                     2DEC     +.8748133997 B-1                        #  STAR 1        X
000678:
000679: 14,2342           00327 12164                     2DEC     +.0262841262 B-1                        #  STAR 1        Y
000680:
000681: 14,2344           07572 33172                     2DEC     +.4837464836 B-1                        #  STAR 1        Z
000682:
000683: 14,2346           15637        CATLOG             DEC      7071       B-14
000684:                                                                                                  #  ************************************************************************
000685:
000686:
000687: 05,2000                                           SETLOC   EPHEM1
000688: 05,2000                                           BANK
000689: 05,2001                                           COUNT*   $$/EPHEM
000690:
000691: 05,2001           20000 00000  KONMAT             2DEC     1.0        B-1                        #         *************
000692:
000693: 05,2003           00000 00000                     2DEC     0          B-28                       #                     *
000694:
000695: 05,2005           00000 00000                     2DEC     0          B-28                       #                     *
000696:
000697: 05,2007           00000 00000                     2DEC     0          B-28                       #                     *
000698:
000699: 05,2011           16533 32505                     2DEC*    .91746     B-1*                       #  K1 COS (OBL)
000700:
000701: 05,2013           77333 56446                     2DEC*    -.035711   B-1*                       #  K2 SIN (OBL) SIN (IM)
000702:
000703: 05,2015           00000 00000                     2DEC     0          B-28                       #                     *
000704:
000705: 05,2017           06273 03275                     2DEC*    .39784     B-1*                       #  K3 SIN (OBL)
000706:


000708: 05,2021           01242 24467                     2DEC*    .082354    B-1*                       #  K4 COS (OBL) SIN (IM)
000709:
000710: 05,2023           00020 17260  CSTODAY            2DEC     8640000    B-33                       #                     * NOTE           *
000711:
000712: 05,2025           00002        RCB-13             OCT      00002                                 #                     * TABLES CONTAIN *
000713: 05,2026           00000                           OCT      00000                                 #                     * CONSTANTS FOR  *
000714: 05,2027           22572 27267  RATESP             2DEC*    .03660099  B+4*                       #  LOMR
000715:
000716: 05,2031           01315 26251                     2DEC*    .00273780  B+4*                       #  LOSR
000717:
000718: 05,2033           77731 55144                     2DEC*    -.00014720 B+4*                       #  LONR
000719:
000720: 05,2035           05456 01204                     2DEC     .174685017                            #  LOMO
000721:
000722: 05,2037           10611 15113                     2DEC     .274011893                            #  LOSO
000723:
000724: 05,2041           35656 15121                     2DEC     .932520213                            #  LONO
000725:
000726: 05,2043           01076 16550  VAL67              2DEC*    .017531111 B+1*                       #  AMOD
000727:
000728: 05,2045           70645 74553                     2DEC     -.224249436                            #  AARG
000729:
000730: 05,2047           02245 06475                     2DEC*    .036291713 B+1*                       #  1/27
000731:
000732: 05,2051           00162 05550                     2DEC*    .003484442 B+1*                       #  BMOD
000733:
000734: 05,2053           01671 37406                     2DEC     .058226609                            #  BARG
000735:
000736: 05,2055           01000 00000                     2DEC     .031250000                            #  1/32
000737:
000738: 05,2057           00256 24654                     2DEC*    .005329930 B+1*                       #  CMOD
000739:
000740: 05,2061           77523 76354                     2DEC     -.010500980                            #  CARG
000741:
000742: 05,2063           00131 26730                     2DEC*    .002737925 B+1*                       #  1/365
000743:
000744:                                                                                                  #  ************************************************************************
000745:
000746:
000747: 26,2000                                           SETLOC   PLANTIN2
000748: 26,2000                                           BANK
000749: 26,2000                                           COUNT*   $$/LUROT
000750:
000751: 26,2000           17775 02052  COSI               2DEC*    9.996417320 E-1        B-1*            #  COS (5521.5 SEC.)
000752:
000753: 26,2002           00333 10374  SINI               2DEC*    2.676579050 E-2        B-1*            #  SIN (5521.5 SEC.)
000754:
000755: 26,2004           77665 42175  NODDOT             2DEC*    -1.703706159 E-11       B28*            #  REV/CSEC
000756:
000757: 26,2006           22211 00636  FDOT               2DEC*    4.253263471 E-9        B27*            #  REV/CSEC
000758:


000760: 26,2010           77777 77767  BDOT               2DEC*    -1.145530402 E-16       B28*            #  REV/CSEC
000761:
000762: 26,2012           35656 15077  NODIO              2DEC*    9.325201471 E-1        B               #  REV
000763:
000764: 26,2014           07577 35124  FSUBO              2DEC*    2.421820916 E-1        B               #  REV
000765:
000766: 26,2016           02052 35411  BSUBO              2DEC*    6.511977813 E-2        B               #  REV
000767:
000768: 26,2020           37116 32631  WEARTH             2DEC*    1.160576171 E-7        B23*            #  REV/CSEC
000769:
000770: 26,2022           30611 04040  AZO                2DEC*    7.739945637 E-1        B               #  REVS
000771:

End of include-file CONTROLLED_CONSTANTS.agc.  Parent file is MAIN.agc


