
Source Code


000002:                                                                                                  ## Copyright:   Public domain.
000003:                                                                                                  ## Filename:    EXTENDED_VERBS.agc
000004:                                                                                                  ## Purpose:     A section of Luminary revision 163.
000005:                                                                                                  ##              It is part of the reconstructed source code for the first
000006:                                                                                                  ##              (unflown) release of the flight software for the Lunar
000007:                                                                                                  ##              Module's (LM) Apollo Guidance Computer (AGC) for Apollo 14.
000008:                                                                                                  ##              The code has been recreated from a reconstructed copy of
000009:                                                                                                  ##              Luminary 173, as well as Luminary memos 157 amd 158.
000010:                                                                                                  ##              It has been adapted such that the resulting bugger words
000011:                                                                                                  ##              exactly match those specified for Luminary 163 in NASA
000012:                                                                                                  ##              drawing 2021152N, which gives relatively high confidence
000013:                                                                                                  ##              that the reconstruction is correct.
000014:                                                                                                  ## Reference:   pp. 268-305
000015:                                                                                                  ## Assembler:   yaYUL
000016:                                                                                                  ## Contact:     Ron Burkey <info@sandroid.org>.
000017:                                                                                                  ## Website:     www.ibiblio.org/apollo/index.html
000018:                                                                                                  ## Mod history: 2019-08-21 MAS  Created from Luminary 173.
000019:


000021: 07,2661                                           BANK     7
000022: 43,2000                                           SETLOC   EXTVERBS
000023: 43,2000                                           BANK
000024:
000025: 43,2000  E5,1737                                  EBANK=   OGC
000026:
000027: 43,2000                                           COUNT*   $$/EXTVB
000028:                                                                                                  #  FAN-OUT
000029:
000030: 43,2000           50154        GOEXTVB            INDEX    MPAC                                  #  VERB-40 IS IN MPAC
000031: 43,2001           02002                           TC       LST2FAN                               #  FAN AS BEFORE.
000032:
000033: 43,2002           02126        LST2FAN            TC       VBZERO                                #  VB40 ZERO (USED WITH NOUN 20 OR 72 ONLY)
000034: 43,2003           02177                           TC       VBCOARK                               #  VB41 COARSE ALIGN (USED WITH NOUN 20 OR
000035:                                                                                                  #                                  72 ONLY)
000036: 43,2004           02373                           TC       IMUFINEK                              #  VB42 FINE ALIGN IMU
000037: 43,2005           02731                           TC       IMUATTCK                              #  VB43  LOAD IMU ATTITUDE ERROR METERS.
000038: 43,2006           02301                           TC       RRDESEND                              #  VB44 TERMINATE CONTINUOUS DESIGNATE
000039: 43,2007           02116                           TC       ALM/END                               #  VB45 SPARE
000040: 43,2010           02116                           TC       ALM/END                               #  VB46 SPARE
000041: 43,2011           02432                           TC       V47TXACT                              #  VB47 AGS INITIALIZATION
000042: 43,2012           03164                           TC       DAPDISP                               #  VB48  LOAD A/P DATA
000043: 43,2013           13040                           TCF      CREWMANU                              #  VB49 START AUTOMATIC ATTITUDE MANEUVER
000044: 43,2014           02424                           TC       GOLOADLV                              #  VB50 PLEASE PERFORM
000045: 43,2015           02116                           TC       ALM/END                               #  VB51 SPARE
000046: 43,2016           02424                           TC       GOLOADLV                              #  VB52 PLEASE MARK X - RETICLE.
000047: 43,2017           02424                           TC       GOLOADLV                              #  VB53 PLEASE MARK Y - RETICLE.
000048: 43,2020           02424                           TC       GOLOADLV                              #  VB54 PLEASE MARK X OR Y - RETICLE
000049: 43,2021           02444                           TC       ALINTIME                              #  VB55 ALIGN TIME
000050: 43,2022           03047                           TC       TRMTRACK                              #  VB56 TERMINATE TRACKING - P20 + P25
000051: 43,2023           02324                           TC       LRON                                  #  VB57 PERMIT  LANDING RADAR UPDATES
000052: 43,2024           02365                           TC       LROFF                                 #  VB58 INHIBIT LANDING RADAR UPDATES
000053: 43,2025           02147                           TC       LRPOS2K                               #  VB59 COMMAND LR TO POSITION 2.
000054: 43,2026           02174                           TC       RATEDISP                              #  VB60 DISPLAY DAP ESTIMATED RATES
000055: 43,2027           02164                           TC       DAPATTER                              #  VB61 DISPLAY DAP ATTITUDE ERROR
000056: 43,2030           02167                           TC       TOTATTER                              #  VB62 DISPLAY TOTAL ATTITUDE ERROR
000057: 43,2031           02457                           TC       R04                                   #  VB63 SAMPLE RADAR ONCE PER SECOND
000058: 43,2032           02723                           TC       VB64                                  #  VB64 CALCULATE,DISPLAY S-BAND ANT ANGLES
000059: 43,2033           03254                           TC       SNUFFOUT                              #  VB65 DISABLE U,V JETS DURING DPS BURNS.
000060: 43,2034           03171                           TC       ATTACHED                              #  VB66 ATTACHED   MOVE THIS TO OTHER STATE
000061: 43,2035           03246                           TC       V67                                   #  VB67 W MATRIX MONITOR
000062: 43,2036           02370                           TC       TEROFF                                #  VB68 TAKE OUT TERRAIN MODEL IN DESCENT
000063: 43,2037           02037        VERB69             TC       VERB69                                #  VB69 FORCE A HARDWARE RESTART
000064: 43,2040           03757                           TC       V70UPDAT                              #  VB70 UPDATE LIFTOFF TIME.
000065: 43,2041           03761                           TC       V71UPDAT                              #  VB71 UNIVERSAL UPDATE - BLOCK ADDRESS.
000066: 43,2042           03763                           TC       V72UPDAT                              #  VB72 UNIVERSAL UPDATE - SINGLE ADDRESS.
000067: 43,2043           03765                           TC       V73UPDAT                              #  VB73 UPDATE AGC TIME (OCTAL).
000068: 43,2044           03070                           TC       DNEDUMP                               #  VB74 INITIALIZE DOWN-TELEMETRY PROGRAM
000069:                                                                                                  #         FOR ERASABLE DUMP.
000070: 43,2045           03257                           TC       OUTSNUFF                              #  VB75 ENABLE U,V JETS DURING DPS BURNS.


000072: 43,2046           03027                           TC       MINIMP                                #  VB76 MINIMUM IMPULSE MODE
000073: 43,2047           03032                           TC       NOMINIMP                              #  VB77 RATE COMMAND MODE
000074: 43,2050           02447                           TC       R77                                   #  VB78 START LR SPURIOUS RETURN TEST
000075: 43,2051           02657                           TC       R77END                                #  VB79 TERMINATE LR SPURIOUS RETURN TEST
000076: 43,2052           03074                           TC       LEMVEC                                #  VB80 UPDATE LEM STATE VECTOR
000077: 43,2053           03077                           TC       CSMVEC                                #  VB81 UPDATE CSM STATE VECTOR
000078: 43,2054           02770                           TC       V82PERF                               #  VB82 REQUEST ORBIT PARAM DISPLAY (R30)
000079: 43,2055           03000                           TC       V83PERF                               #  VB83 REQUEST REND PARAM DISPLAY (R31)
000080: 43,2056           02116                           TC       ALM/END                               #  VB84 SPARE
000081: 43,2057           03262                           TC       VERB85                                #  VB85 DISPLAY RR LOS AZ AND ELEV
000082: 43,2060           02116                           TC       ALM/END                               #  VB86 SPARE
000083: 43,2061           02116                           TC       ALM/END                               #  VB87 SPARE
000084: 43,2062           02116                           TC       ALM/END                               #  VB88 SPARE
000085: 43,2063           03006                           TC       V89PERF                               #  VB89 ALIGN XORZ LEM AXIS ALONG LOS (R63)
000086: 43,2064           03015                           TC       V90PERF                               #  VB90 OUT OF PLANE RENDEZVOUS DISPLAY
000087: 43,2065           03127                           TC       GOSHOSUM                              #  VB91 DISPLAY BANK SUM.
000088: 43,2066           03107                           TC       SYSTEST                               #  VB92 OPERATE IMU PERFORMANCE TEST.
000089: 43,2067           03122                           TC       WMATRXNG                              #  VB93 CLEAR RENDWFLG
000090: 43,2070           02116                           TC       ALM/END                               #  VB94 SPARE
000091: 43,2071           03104                           TC       UPDATOFF                              #  VB95 NO STATE VECTOR UPDATE ALLOWED
000092: 43,2072           03241                           TC       VERB96                                #  VB96 INTERRUPT INTEGRATION AND GO TO POO
000093: 43,2073           02424                           TC       GOLOADLV                              #  VB97 PLEASE VERIFY ENGINE FAILURE
000094: 43,2074           02116                           TC       ALM/END                               #  VB98 SPARE
000095: 43,2075           02424                           TC       GOLOADLV                              #  VB99 PLEASE ENABLE ENGINE
000096:
000097:                                                                                                  #  END OF EXTENDED VERB FAN
000098:
000099:
000100: 43,2076           11043        TESTXACT           CCS      EXTVBACT                              #  ARE EXTENDED VERBS BUSY
000101: 43,2077           02116                           TC       ALM/END                               #  YES, TURN ON OPERATOR LIGHT
000102: 43,2100           30100                           CA       FLAGWRD4                              #  ARE PRIORITY DISPLAYS USING DSKY
000103: 43,2101           72125                           MASK     OC24100
000104: 43,2102           10000                           CCS      A
000105: 43,2103           02116                           TC       ALM/END                               #  YES
000106: 43,2104           34362                           CAF      OCT25                                 #  SET BITS 1, 3, AND 5
000107: 43,2105           55043        SETXTACT           TS       EXTVBACT                              #  NO. SET FLAG TO SHOW EXT VERB DISPLAY
000108:                                                                                                  #  SYSTEM BUSY
000109:
000110: 43,2106           30002                           CA       Q
000111: 43,2107           54155                           TS       MPAC       +1
000112:
000113: 43,2110           44752                           CS       TWO                                   #  BLANK EVERYTHING EXCEPT MM AND VERB
000114: 43,2111           04154                           TC       NVSUB
000115: 43,2112           02113                           TC       +1
000116: 43,2113           10067                           CCS      NEWJOB
000117: 43,2114           05122                           TC       CHANG1
000118:
000119: 43,2115           00155                           TC       MPAC       +1
000120:
000121: 43,2116     5503               TERMEXTV           EQUALS   ENDEXT


000123: 43,2116     5503               ENDEXTVB           EQUALS   ENDEXT
000124:
000125: 43,2116           04364        ALM/END            TC       FALTON                                #  TURN ON OPERATOR ERROR LIGHT
000126: 43,2117           04635        GOPIN              TC       POSTJUMP
000127: 43,2120           21051                           CADR     PINBRNCH
000128:
000129: 43,2121           31010        CHKPOOH            CA       MODREG                                #  CHECK FOR POO OR POO-.
000130: 43,2122           00006                           EXTEND
000131: 43,2123           16745                           BZF      TCQ
000132: 43,2124           02116                           TC       ALM/END
000133:
000134: 43,2125           24100        OC24100            OCT      24100
000135:


000137:                                                                                                  #           VBZERO       VERB 40            DESCRIPTION
000138:
000139:                                                                                                  #               1. REQUIRE NOUN 20 (ICDU ANGLES) OR NOUN 72 (RCDU ANGLES).
000140:                                                                                                  #              2. FOR N20, CHECK IMUCADR IN AN EFFORT TO AVOID A 1210 RESTART.
000141:                                                                                                  #                 FOR N72, CHECK IF EITHER RADAR IS IN USE.
000142:                                                                                                  #               3. EXECUTE THE CDU ZERO.
000143:                                                                                                  #               4. STALL UNTILL THE ZERO IS DONE.
000144:                                                                                                  #               5. DON'T DIFFERENIATE BETWEEN A BAD OR GOOD RETURN.
000145:                                                                                                  #               6. EXIT, RE-ESTABLISHING THE INTERRUPTED DISPLAY (IF ANY).
000146:
000147: 43,2126           02202        VBZERO             TC       OP/INERT
000148: 43,2127           02131                           TC       IMUZEROK                              #  RETURN HERE IF NOUN = ICDU(20)
000149: 43,2130           02140                           TC       RRZEROK                               #  RETURN HERE IF NOUN = RCDU(72)
000150: 43,2131           02440        IMUZEROK           TC       CKMODCAD
000151: 43,2132           04616                           TC       BANKCALL                              #  KEYBOARD REQ FOR ISS CDUZERO
000152: 43,2133           16700                           CADR     IMUZERO
000153:
000154: 43,2134           04616                           TC       BANKCALL                              #  STALL
000155: 43,2135           17722                           CADR     IMUSTALL
000156: 43,2136           02137                           TC       +1
000157:
000158: 43,2137           02117                           TC       GOPIN                                 #  IMUZERO
000159:
000160: 43,2140           02702        RRZEROK            TC       RDRUSECK
000161: 43,2141           04616                           TC       BANKCALL
000162: 43,2142           52354                           CADR     RRZERO
000163:
000164: 43,2143           04616        RWAITK             TC       BANKCALL
000165: 43,2144           17720                           CADR     RADSTALL
000166: 43,2145           12146                           TCF      +1
000167: 43,2146           02117                           TC       GOPIN                                 #  RRZERO
000168:
000169:                                                                                                  #           LRPOS2K          VERB 59            DESCRIPTION
000170:                                                                                                  #               COMMAND LANDING RADAR TO POSITION 2
000171:                                                                                                  #              1. EXIT WITH OP ERROR IF SOMEONE IS USING EITHER RADAR.
000172:                                                                                                  #               2. ALARM WITH CODE 523 IF POS 2 IS NOT INDICATED WITHIN
000173:                                                                                                  #                  THE PRESCRIBED TIME.
000174:                                                                                                  #               3. RE-ESTABLISH THE DISPLAYS.
000175:
000176: 43,2147           30103        LRPOS2K            CA       FLAGWRD7
000177: 43,2150           74747                           MASK     AVEGFBIT
000178: 43,2151           00006                           EXTEND
000179: 43,2152           12161                           BZF      LRPOS2K1                              #  AVERAGE G NOT ON
000180: 43,2153           40107                           CS       FLGWRD11
000181: 43,2154           74735                           MASK     LRBYBIT
000182: 43,2155           00006                           EXTEND
000183: 43,2156           12116                           BZF      ALM/END                               #  IF AVE G ON AND NOT R12- OPERATOR ERROR
000184: 43,2157           04635                           TC       POSTJUMP
000185: 43,2160           53611                           CADR     V59GP63
000186: 43,2161           02702        LRPOS2K1           TC       RDRUSECK


000188: 43,2162           04616                           TC       BANKCALL
000189: 43,2163           53600                           CADR     LRP2COMM                              #  COMMAND LR TO POS2
000190:                                                                                                  #  V61      VERB 61, DISPLAY DAP ATTITUDE ERRORS ON FDAI ATTITUDE ERROR NEEDLES.
000191:
000192: 43,2164           05527        DAPATTER           TC       DOWNFLAG
000193: 43,2165           00013                           ADRES    NEEDLFLG
000194: 43,2166           12171                           TCF      TOTATTER   +2
000195:
000196:                                                                                                  #  V62      VERB 62, DISPLAY TOTAL ATTITUDE ERRORS ON FDAI ATTITUDE ERROR NEEDLES.
000197:
000198: 43,2167           05515        TOTATTER           TC       UPFLAG
000199: 43,2170           00013                           ADRES    NEEDLFLG
000200: 43,2171           05527                 +2        TC       DOWNFLAG
000201: 43,2172           00000                           ADRES    NEED2FLG
000202: 43,2173           02117                           TC       GOPIN
000203:
000204:                                                                                                  #  V60      VERB 60, DISPLAY DAP ESTIMATED RATES ON FDAI ATTITUDE ERROR NEEDLES.
000205:
000206: 43,2174           05515        RATEDISP           TC       UPFLAG
000207: 43,2175           00000                           ADRES    NEED2FLG
000208: 43,2176           02117                           TC       GOPIN
000209:
000210:
000211:


000213:                                                                                                  #           VBCOARK      VERB 41            DESCRIPTION
000214:                                                                                                  #               COARSE ALIGN IMU OR RADAR
000215:                                                                                                  #              1. REQUIRE NOUN 20 OR NOUN 72 OR TURN ON OPERATOR ERROR.
000216:                                                                                                  #               2. REQUIRE EXT VERB DISPLAY SYS AVAILABLE OR TURN ON OPERATOR ERROR LIGHT AND GO TO PINBRNCH.
000217:                                                                                                  #               CASE 1     NOUN 20     (ICDU ANGLES)
000218:                                                                                                  #               3. SET EXT VERB DISPLAY ACTIVE FLAG.
000219:                                                                                                  #               4. DISPLAY FLASHING V25,N22 (LOAD NEW ICDU ANGLES).
000220:                                                                                                  #                  RESPONSES
000221:                                                                                                  #                    A. TERMINATE
000222:                                                                                                  #                       1. RELEASE EXT VERB DISPLAY SYSTEM
000223:                                                                                                  #                    B. PROCEED
000224:                                                                                                  #                      1. COARSE ALIGN TO THE EXISTING THETAD'S (ICORK2).
000225:                                                                                                  #                    C. ENTER
000226:                                                                                                  #                      1. COARSE ALIGN TO THE LOADED THETAD'S (ICORK2).
000227:                                                                                                  #               ICORK2
000228:                                                                                                  #                  1. RE-DISPLAY VERB 41.
000229:                                                                                                  #                  2. EXECUTE IMUCOARS (IMU COARSE ALIGN).
000230:                                                                                                  #                  3. EXECUTE IMUSTALL (ALLOW TIME FOR DATA TRANSFER).
000231:                                                                                                  #                  4. RELEASE EXT VERB DISPLAY SYSTEM.
000232:                                                                                                  #               CASE 2     NOUN 72     (RCDU ANGLES)
000233:                                                                                                  #                 EXIT WITH OP ERROR IF SOMEONE IS USING EITHER RADAD.
000234:                                                                                                  #               5. DISPLAY FLASHING V24,N73 (LOAD NEW RR TRUNION ANGLE AND NEW SHAFT ANGLE).
000235:                                                                                                  #                  RESPONSES
000236:                                                                                                  #                  A. TERMINATE
000237:                                                                                                  #                     1. RELEASE EXT VERB DISPLAY SYS.
000238:                                                                                                  #                  B. PROCEED OR ENTER
000239:                                                                                                  #                     1. EXECUTE AURLOKON (ASK OPERATOR FOR LOCK-ON REQUIREMENTS).
000240:                                                                                                  #                     2. RE-DISPLAY VERB 41.
000241:                                                                                                  #                     3. SCHEDULE RRDESK2 WITH PRIORITY 20.
000242:                                                                                                  #                     4. RELEASE EXT VERB DISPLAY SYS.
000243:
000244:                                                                                                  #                  AURLOKON
000245:
000246:                                                                                                  #                 1. FLASH V04 N12 R1 = 00006 R2 = 00002
000247:                                                                                                  #                     RESPONSES
000248:                                                                                                  #                     A. TERMINATE
000249:                                                                                                  #                     B. PROCEED
000250:                                                                                                  #                       1. RESET LOCK-ON SWITCH
000251:                                                                                                  #                       2. SET CONTINUOUS DESIGNATE FLAG
000252:                                                                                                  #                       3. DISABLE R25
000253:                                                                                                  #                    C. V22 E 1 E, R1 = 00001, PROCEED
000254:                                                                                                  #                       1. SET LOCK-ON SWITCH
000255: 43,2177           02202        VBCOARK            TC       OP/INERT
000256: 43,2200           02213                           TC       IMUCOARK                              #  RETURN HERE IF NOUN = ICDU(20)
000257: 43,2201           02235                           TC       RRDESNBK                              #  RETURN HERE IF NOUN = RCDU(72)
000258:                                                                                                  #           RETURNS TO L+1 IF IMU OR L+2 IF RR.
000259:
000260: 43,2202           46007        OP/INERT           CS       OCT24
000261: 43,2203           61001                           AD       NOUNREG
000262: 43,2204           00006                           EXTEND


000264: 43,2205           16745                           BZF      TCQ                                   #  IF = 20.
000265:
000266: 43,2206           62212                           AD       RRIMUDIF                              #  -52
000267: 43,2207           00006                           EXTEND
000268: 43,2210           16742                           BZF      Q+1
000269:
000270: 43,2211           02116                           TC       ALM/END                               #  ILLEGAL.
000271:
000272: 43,2212           77713        RRIMUDIF           DEC      -52        B-14                       #  THE IMU
000273: 43,2213           02440        IMUCOARK           TC       CKMODCAD
000274: 43,2214           02076                           TC       TESTXACT                              #  COARSE ALIGN FROM KEYBOARD.
000275: 43,2215           32233                           CAF      VNLODCDU                              #  CALL FOR THETAD LOAD
000276: 43,2216           04616                           TC       BANKCALL
000277: 43,2217           20334                           CADR     GOXDSPF
000278: 43,2220           05503                           TC       TERMEXTV
000279: 43,2221           12222                           TCF      +1
000280:
000281: 43,2222           32234        ICORK2             CAF      IMUCOARV                              #  RE-DISPLAY COARSE ALIGN VERB.
000282: 43,2223           04616                           TC       BANKCALL
000283: 43,2224           20621                           CADR     EXDSPRET
000284:
000285: 43,2225           04616                           TC       BANKCALL                              #  CALL MODE SWITCHING PROG
000286: 43,2226           16764                           CADR     IMUCOARS
000287:
000288: 43,2227           04616                           TC       BANKCALL                              #  STALL
000289: 43,2230           17722                           CADR     IMUSTALL
000290: 43,2231           05503                           TC       ENDEXTVB
000291: 43,2232           05503                           TC       ENDEXTVB
000292:
000293: 43,2233           06226        VNLODCDU           VN       2522
000294: 43,2234           12200        IMUCOARV           VN       4100
000295:


000297:                                                                                                  #           DESIGNATE TO DESIRED GIMBAL ANGLES.
000298:
000299: 43,2235           02702        RRDESNBK           TC       RDRUSECK
000300: 43,2236           02076                           TC       TESTXACT
000301: 43,2237           06011                           TC       CLRADMOD
000302: 43,2240           32257                           CAF      VNLDRCDU                              #  ASK FOR GIMBAL ANGLES.
000303: 43,2241           04616                           TC       BANKCALL
000304: 43,2242           20334                           CADR     GOXDSPF
000305: 43,2243           05503                           TC       TERMEXTV
000306: 43,2244           12240                           TCF      -4                                    #  V33
000307:
000308: 43,2245           04616                           TC       BANKCALL                              #  ASK OP FOR LOCK ON REQUIREMENTS.
000309: 43,2246           46000                           CADR     AURLOKON
000310:
000311: 43,2247           32234                           CAF      OPTCOARV                              #  RE-DISPLAY OUR OWN VERB
000312: 43,2250           04616                           TC       BANKCALL
000313: 43,2251           20621                           CADR     EXDSPRET
000314:
000315: 43,2252           34736                           CAF      PRIO20
000316: 43,2253           05105                           TC       FINDVAC
000317: 43,2254  E7,1456                                  EBANK=   LOSCOUNT
000318: 43,2254           02260 66107                     2CADR    RRDESK2
000319:
000320:
000321: 43,2256           15503                           TCF      TERMEXTV                              #  FREES DISPLAY.
000322:
000323: 43,2257           06111        VNLDRCDU           VN       2473
000324: 43,2260  43,2234               OPTCOARV           EQUALS   IMUCOARV                              #  DIFFERENT NOUNS.
000325:
000326: 43,2260           04616        RRDESK2            TC       BANKCALL
000327: 43,2261           52506                           CADR     RRDESNB
000328:
000329: 43,2262           02263                           TC       +1                                    #  DUMMY NEEDED SINCE DESRETRN DOES INCR
000330: 43,2263           30167                           CA       PRIORITY
000331: 43,2264           75004                           MASK     LOW9
000332: 43,2265           10000                           CCS      A
000333: 43,2266           50000                           INDEX    A
000334: 43,2267           54000                           TS       A                                     #  RELEASE THIS JOBS VAC AREA.
000335: 43,2270           40000                           COM                                            #  INSURE ENDOFJOB DOES A NOVAC END (BZMF).
000336: 43,2271           26167                           ADS      PRIORITY
000337: 43,2272           04616                           TC       BANKCALL                              #  WAIT FOR COMPLETION OF DESIGNATE
000338: 43,2273           17720                           CADR     RADSTALL
000339: 43,2274           02276                           TC       +2                                    #  BADEND-NO LOCKON OR OUT OF LIMITS
000340: 43,2275           05155                           TC       ENDOFJOB                              #  GOODEND-LOCKON ACHIEVED


000342: 43,2276           05600                           TC       ALARM
000343: 43,2277           00503                           OCT      503                                   #  TURN ON ALARM LIGHT -503 DESIGNATE FAIL
000344: 43,2300           05155                           TC       ENDOFJOB
000345:
000346:
000347: 43,2301           10110        RRDESEND           CCS      RADMODES                              #  TERMINATE CONTINUOUS DESIGNATE ONLY
000348: 43,2302           12117                           TCF      GOPIN
000349: 43,2303           12117                           TCF      GOPIN
000350: 43,2304           12305                           TCF      +1
000351: 43,2305           40110        REMODCHK           CS       RADMODES                              #  CHECK FOR REMODE
000352: 43,2306           74736                           MASK     REMODBIT
000353: 43,2307           10000                           CCS      A
000354: 43,2310           12315                           TCF      NOREMODE                              #  NO
000355: 43,2311           34777                           CAF      1SEC                                  #  YES- WAIT 1 SECOND AND CHECK AGAIN
000356: 43,2312           04616                           TC       BANKCALL
000357: 43,2313           01736                           CADR     DELAYJOB
000358: 43,2314           02305                           TC       REMODCHK
000359: 43,2315           06011        NOREMODE           TC       CLRADMOD
000360: 43,2316           34777                           CAF      1SEC
000361: 43,2317           04616                           TC       BANKCALL
000362: 43,2320           01736                           CADR     DELAYJOB
000363: 43,2321           05527                           TC       DOWNFLAG                              #  ENABLE R25 GIMBAL MONITOR
000364: 43,2322           00126                           ADRES    NORRMON
000365: 43,2323           12117                           TCF      GOPIN
000366: 23,2000                                           BANK     23
000367: 23,2000                                           SETLOC   EXTVB1
000368: 23,2000                                           BANK
000369: 23,2000                                           COUNT*   $$/EXTVB
000370:
000371: 23,2000           04645        AURLOKON           TC       MAKECADR
000372: 23,2001           55112                           TS       DESRET
000373: 23,2002           34752                           CAF      TWO
000374: 23,2003           55051                           TS       OPTIONX    +1
000375: 23,2004           36245                           CAF      SIX                                   #  OPTION CODE FOR V04N12
000376: 23,2005           55050                           TS       OPTIONX
000377:
000378: 23,2006           32037                 -5        CAF      V04N1272
000379: 23,2007           04616                           TC       BANKCALL                              #       R2   00001  LOCK-ON
000380: 23,2010           20353                           CADR     GOMARKFR
000381: 23,2011           15503                           TCF      ENDEXT                                #  V34
000382: 23,2012           12017                           TCF      +5                                    #  V33
000383: 23,2013           12006                           TCF      -5                                    #  V32
000384: 23,2014           34751                           CAF      BIT3
000385: 23,2015           05475                           TC       BLANKET
000386: 23,2016           05155                           TC       ENDOFJOB
000387:
000388: 23,2017           31051                 +5        CA       OPTIONX    +1
000389: 23,2020           74752                           MASK     BIT2


000391: 23,2021           10000                           CCS      A
000392: 23,2022           12026                           TCF      NOLOKON
000393: 23,2023           05515                           TC       UPFLAG
000394: 23,2024           00012                           ADRES    LOKONSW
000395: 23,2025           12034                           TCF      AURLKON1
000396:
000397: 23,2026           05527        NOLOKON            TC       DOWNFLAG                              #  IF NO LOCK-ON, SET BIT15 OF RADMODES TO
000398: 23,2027           00012                           ADRES    LOKONSW                               #  INDICATE THAT CONTINUOUS DESIGNATION IS
000399: 23,2030           05515                           TC       UPFLAG                                #  WANTED (TO BE TERMINATED BY V44.)
000400: 23,2031           00264                           ADRES    CDESFLAG
000401: 23,2032           05515                           TC       UPFLAG                                #  SET NO RR ANGLE MONITOR FLAG.
000402: 23,2033           00126                           ADRES    NORRMON                               #  (DISABLE R25 RR GIMBAL MONITOR IN T4RUPT
000403: 23,2034           00003        AURLKON1           RELINT
000404: 23,2035           31112                           CA       DESRET
000405: 23,2036           14640                           TCF      BANKJUMP
000406:
000407:
000408: 23,2037           01014        V04N1272           VN       412
000409: 23,2040           77757        -LOKONFG           OCT      -20
000410:
000411: 43,2324                                           BANK     43
000412: 43,2000                                           SETLOC   EXTVERBS
000413: 43,2000                                           BANK
000414: 43,2324                                           COUNT*   $$/EXTVB
000415:
000416: 43,2324           02076        LRON               TC       TESTXACT
000417:
000418: 43,2325           32364        DSP68              CAF      V06N68
000419: 43,2326           04616                           TC       BANKCALL
000420: 43,2327           20353                           CADR     GOMARKFR
000421: 43,2330           02362                           TC       B1+5OFF
000422: 43,2331           02353                           TC       SET57
000423: 43,2332           05155                           TC       ENDOFJOB
000424:
000425: 43,2333           04616        WAIT68             TC       BANKCALL
000426: 43,2334           01735                           CADR     2SECDELY
000427:
000428: 43,2335           34361                           CAF      OCT21
000429: 43,2336           71043                           MASK     EXTVBACT
000430: 43,2337           00006                           EXTEND
000431: 43,2340           15503                           BZF      ENDEXT
000432:
000433: 43,2341           74747                           MASK     BIT5
000434: 43,2342           10000                           CCS      A
000435: 43,2343           12325                           TCF      DSP68
000436:
000437: 43,2344           32364        DSP5068            CAF      V50N68
000438: 43,2345           04616                           TC       BANKCALL
000439: 43,2346           20361                           CADR     GOMARK3R   -1
000440: 43,2347           12362                           TCF      B1+5OFF
000441: 43,2350           12362                           TCF      B1+5OFF
000442: 43,2351           12356                           TCF      RESET57
000443:
000444: 43,2352           12333                           TCF      WAIT68
000445:
000446: 43,2353           05515        SET57              TC       UPFLAG
000447: 43,2354           00254                           ADRES    LRINH
000448:
000449: 43,2355           15574                           TCF      B5OFF
000450:
000451: 43,2356           05527        RESET57            TC       DOWNFLAG
000452: 43,2357           00254                           ADRES    LRINH
000453:
000454: 43,2360           34362                           CAF      OCT25
000455: 43,2361           05576                           TC       B5OFF      +2
000456:
000457: 43,2362           44361        B1+5OFF            CS       OCT21
000458: 43,2363           15575                           TCF      B5OFF      +1
000459:
000460: 43,2364     4361               OCT21              EQUALS   ND1
000461:
000462: 43,2364           01504        V06N68             VN       0668
000463: 43,2365  43,2364               V50N68             =        V06N68
000464:
000465:
000466: 43,2365           05527        LROFF              TC       DOWNFLAG                              #  INHIBIT INCORPORATION OF LR DATA     V58
000467: 43,2366           00254                           ADRES    LRINH
000468: 43,2367           02117                           TC       GOPIN
000469:
000470: 43,2370           05515        TEROFF             TC       UPFLAG                                #  BYPASS TERRAIN MODEL
000471: 43,2371           00023                           ADRES    NOTERFLG
000472: 43,2372           12117                           TCF      GOPIN
000473:
000474:
000475: 43,2373  E5,1737                                  EBANK=   OGC
000476:


000478:                                                                                                  #           IMUFINEK     VERB 42            DESCRIPTION
000479:                                                                                                  #               FINE ALIGN IMU
000480:                                                                                                  #               1. REQUIRE EXT VERB DISPLAY AVAILABLE AND SET BUSY FLAG OR TURN ON OPER ERROR AND GO TO PINBRNCH.
000481:                                                                                                  #               2. DISPLAY FLASHING V25,N93....LOAD DELTA GYRO ANGLES....
000482:                                                                                                  #                  RESPONSES
000483:                                                                                                  #                  A. TERMINATE
000484:                                                                                                  #                     1. RELEASE EXT VERB DISPLAY SYSTEM.
000485:                                                                                                  #                  B. PROCEED OR ENTER
000486:                                                                                                  #                     1. RE-DISPLAY VERB 42
000487:                                                                                                  #                     2. EXECUTE IMUFINE (IMU FIVE ALIGN MODE SWITCHING).
000488:                                                                                                  #                     3. EXECUTE IMUSTALL (ALLOW FOR DATA TRANSFER)
000489:                                                                                                  #                        A. FAILED
000490:                                                                                                  #                           1. RELEASE EXT VERB DISPLAY SYSTEM.
000491:                                                                                                  #                        B. GOOD
000492:                                                                                                  #                           1. EXECUTE IMUPULSE (TORQUE IRIGS).
000493:                                                                                                  #                           2. EXECUTE IMUSTALL AND RELEASE EXT VERB DISPLAY SYSTEM.
000494:
000495: 43,2373           02440        IMUFINEK           TC       CKMODCAD
000496: 43,2374           02076                           TC       TESTXACT                              #  FINE ALIGN WITH GYRO TORQUING.
000497: 43,2375           32422                           CAF      VNLODGYR                              #  CALL FOR LOAD OF GYRO COMMANDS
000498: 43,2376           04616                           TC       BANKCALL
000499: 43,2377           20334                           CADR     GOXDSPF
000500: 43,2400           05503                           TC       TERMEXTV
000501: 43,2401           02402                           TC       +1                                    #  PROCEED WITHOUT A LOAD
000502:
000503: 43,2402           32423                           CAF      IMUFINEV                              #  RE-DISPLAY OUR OWN VERB
000504: 43,2403           04616                           TC       BANKCALL
000505: 43,2404           20621                           CADR     EXDSPRET
000506:
000507: 43,2405           04616                           TC       BANKCALL                              #  CALL MODE SWITCH PROG
000508: 43,2406           17174                           CADR     IMUFINE
000509:
000510: 43,2407           04616                           TC       BANKCALL                              #  HIBERNATION
000511: 43,2410           17722                           CADR     IMUSTALL
000512: 43,2411           05503                           TC       ENDEXTVB
000513:
000514: 43,2412           32421        FINEK2             CAF      LGYROBIN                              #  PINBALL LEFT COMMANDS IN OGC REGIST5RS
000515: 43,2413           04616                           TC       BANKCALL
000516: 43,2414           17307                           CADR     IMUPULSE
000517:
000518: 43,2415           04616                           TC       BANKCALL                              #  WAIT FOR PULSES TO GET OUT.
000519: 43,2416           17722                           CADR     IMUSTALL
000520: 43,2417           05503                           TC       ENDEXTVB
000521: 43,2420           05503                           TC       ENDEXTVB
000522:
000523: 43,2421           02737        LGYROBIN           ECADR    OGC
000524: 43,2422           06335        VNLODGYR           VN       2593
000525: 43,2423           12400        IMUFINEV           VN       4200
000526:                                                                                                  #           GOLOADLV     VERB 50            DESCRIPTION
000527:                                                                                                  #                        AND OTHER PLEASE


000529:                                                                                                  #                        DO SOMETHING VERBS
000530:                                                                                                  #               PLEASE PERFORM, MARK, CALIBRATE, ETC.
000531:                                                                                                  #               1. PRESSING ENTER ON DSKY INDICATES REQUESTED ACTION HAS BEEN  PERFORMED, AND THE PROGRAM DOES THE
000532:                                                                                                  #                  SAME RECALL AS A COMPLETED LOAD.
000533:                                                                                                  #               2. THE EXECUTION OF A VERB 33 (PROCEED WITHOUT DATA) INDICATES THE REQUESTED ACTION IS NOT DESIRED.
000534:
000535: 43,2424  40,2000                                  SBANK=   PINSUPER                              #  FOR LOADLV1 AND SHOWSUM CADR'S.
000536:
000537: 43,2424           04433        GOLOADLV           TC       FLASHOFF
000538:
000539: 43,2425           34201                           CAF      PINSUPBT
000540: 43,2426           00006                           EXTEND
000541: 43,2427           01007                           WRITE    SUPERBNK
000542: 43,2430           04635                           TC       POSTJUMP
000543: 43,2431           62001                           CADR     LOADLV1
000544:                                                                                                  #  VERB 47 - AGS INITIALIZATION - R47.
000545:
000546:                                                                                                  #           SEE LOG SECTION AGS INITIALIZATION FOR OTHER PERTINENT REMARKS.
000547:
000548: 43,2432           02076        V47TXACT           TC       TESTXACT                              #  NO OTHER EXTVERB.
000549: 43,2433           34740                           CAF      PRIO4
000550: 43,2434           05105                           TC       FINDVAC
000551: 43,2435  E6,1771                                  EBANK=   AGSK
000552: 43,2435           02005 64066                     2CADR    AGSINIT
000553:
000554: 43,2437           05155                           TC       ENDOFJOB
000555:
000556: 43,2440           31301        CKMODCAD           CA       MODECADR
000557: 43,2441           00006                           EXTEND
000558: 43,2442           16745                           BZF      TCQ
000559: 43,2443           02116                           TC       ALM/END                               #  SOMEBODY IS USING MODECADR SO EXIT
000560:


000562:                                                                                                  #           ALINTIME     VERB 55            DESCRIPTION
000563:                                                                                                  #                  REQUIRE POO OR POO-.
000564:                                                                                                  #               1. SET EXT VERB DISPLAY BUSY FLAG.
000565:                                                                                                  #               2. DISPLAY FLASHING V25,N24 (LOAD DELTA TIME FOR AGC CLOCK.
000566:                                                                                                  #               3. REQUIRE EXECUTION OF VERB 23.
000567:                                                                                                  #               4. ADD DELTA TIME, RECEIVED FROM INPUT REGISTER, TO THE COMPUTER TIME.
000568:                                                                                                  #               5. RELEASE EXT VERB DISPLAY SYSTEM
000569:
000570: 43,2444           02076        ALINTIME           TC       TESTXACT
000571: 43,2445           04635                           TC       POSTJUMP                              #  NO ROOM IN 43
000572: 43,2446           64002                           CADR     R33
000573:
000574: 42,2002                                           BANK     42
000575: 42,2000                                           SETLOC   SBAND
000576: 42,2000                                           BANK
000577: 42,2002                                           COUNT*   $$/R33
000578:
000579: 42,2002           35021        R33                CAF      PRIO7
000580: 42,2003           05146                           TC       PRIOCHNG
000581: 42,2004           32034                           CAF      VNLODDT
000582: 42,2005           04616                           TC       BANKCALL
000583: 42,2006           20334                           CADR     GOXDSPF
000584: 42,2007           05503                           TC       ENDEXT                                #  TERMINATE
000585: 42,2010           05503                           TC       ENDEXT                                #  PROCEED
000586: 42,2011           42033                           CS       DEC23                                 #  DATA IN OR RESEQUENCE(UNLIKELY)
000587: 42,2012           60154                           AD       MPAC                                  #  RECALL LEFT VERB IN MPAC
000588: 42,2013           00006                           EXTEND
000589: 42,2014           12016                           BZF      UPDATIME                              #  GO AHEAD WITH UPDATE ONLY IF RECALL
000590: 42,2015           05503                           TC       ENDEXT                                #    WITH V23 (DATA IN).
000591:
000592: 42,2016           00004        UPDATIME           INHINT                                         #  DELTA TIME IS IN DSPTEM1, +1.
000593: 42,2017           34755                           CAF      ZERO
000594: 42,2020           54156                           TS       MPAC       +2                         #  NEEDED FOR TP AGREE
000595: 42,2021           54001                           TS       L                                     #  ZERO T1 + 2 WHILE ALIGNING.
000596: 42,2022           52025                           DXCH     TIME2
000597: 42,2023           52155                           DXCH     MPAC
000598: 42,2024           53051                           DXCH     DSPTEM2    +1                         #  INCREMENT
000599: 42,2025           20155                           DAS      MPAC
000600:
000601: 42,2026           07262                           TC       TPAGREE                               #  FORCE SIGN AGREEMENT.
000602: 42,2027           52155                           DXCH     MPAC                                  #  NEW CLOCK.
000603: 42,2030           20025                           DAS      TIME2
000604: 42,2031           00003                           RELINT
000605: 42,2032           05503        UPDTMEND           TC       ENDEXT
000606:
000607: 42,2033           00027        DEC23              DEC      23         B-14                       #  V 23
000608:
000609: 42,2034           06230        VNLODDT            VN       2524                                  #  V25N24 FOR LOAD DELTA TIME
000610:


000612:                                                                                                  #           SET UP FOR RADAR SAMPLING.
000613:
000614: 42,2035                                           BANK     42
000615: 43,2000                                           SETLOC   EXTVERBS
000616: 43,2000                                           BANK
000617:
000618: 43,2447  E4,1600                                  EBANK=   RSTACK
000619:
000620: 43,2447                                           COUNT*   $$/R0477
000621:
000622: 43,2447           02702        R77                TC       RDRUSECK                              #  TRY TO AVOID THE 1210.
000623: 43,2450           30077                           CA       FLAGWRD3                              #  IS R04 RUNNING?
000624: 43,2451           74743                           MASK     R04FLBIT
000625: 43,2452           10000                           CCS      A
000626: 43,2453           02116                           TC       ALM/END                               #  YES.
000627: 43,2454           05515                           TC       UPFLAG
000628: 43,2455           00117                           ADRES    R77FLAG
000629: 43,2456           12463                           TCF      R04Z
000630:
000631: 43,2457           02702        R04                TC       RDRUSECK                              #  TRY TO AVOID THE 1210.
000632: 43,2460           02076                           TC       TESTXACT
000633: 43,2461           05515                           TC       UPFLAG
000634: 43,2462           00063                           ADRES    R04FLAG                               #  SET R04FLAG FOR ALARMS
000635:
000636: 43,2463           34741        R04Z               CAF      EBANK4
000637: 43,2464           54003                           TS       EBANK
000638: 43,2465           32700                           CAF      1SEC+1                                #  SAMPLE ONCE PER SECOND
000639: 43,2466           55777                           TS       RSAMPDT
000640: 43,2467           34755                           CAF      ZERO
000641: 43,2470           55776                           TS       RTSTLOC
000642: 43,2471           55575                           TS       RFAILCNT                              #  ZERO BAD SAMPLE COUNTER
000643:
000644: 43,2472           00004                           INHINT
000645: 43,2473           42701                           CS       LRPOSCAL                              #  INITIALIZE
000646: 43,2474           70110                           MASK     RADMODES                              #      BIT9   LR RANGE  LOW SCALE =0
000647: 43,2475           54110                           TS       RADMODES                              #      BIT6   LR POS 1 =0
000648: 43,2476           32701                           CAF      LRPOSCAL                              #      BIT3   RR RANGE  LOW SCALE =0
000649: 43,2477           00006                           EXTEND
000650: 43,2500           02033                           RAND     CHAN33
000651: 43,2501           26110                           ADS      RADMODES
000652: 43,2502           00003                           RELINT
000653:
000654: 43,2503           40077                           CS       FLAGWRD3                              #  CHECK R04FLAG      R04 =1    R77 =0
000655: 43,2504           74743                           MASK     R04FLBIT
000656: 43,2505           10000                           CCS      A
000657: 43,2506           12635                           TCF      R04K
000658:
000659: 43,2507           34753                           CAF      ONE                                   #  INDICATES RENDEZVOUS DESIRED
000660: 43,2510           55051                           TS       OPTIONX    +1
000661: 43,2511           34751        R04A               CAF      BIT3                                  #  OPTION CODE FOR V04N12
000662:


000664: 43,2512           55050                           TS       OPTIONX
000665: 43,2513           32675                           CAF      V04N12X
000666: 43,2514           04616                           TC       BANKCALL                              #      R2   00001  RENDEZVOUS RADAR
000667: 43,2515           20353                           CADR     GOMARKFR                              #           00002  LANDING RADAR
000668: 43,2516           12643                           TCF      R04END                                #  V34
000669: 43,2517           12524                           TCF      +5                                    #  V33
000670: 43,2520           12513                           TCF      R04A       +2                         #  R2
000671: 43,2521           34751                           CAF      BIT3
000672: 43,2522           05475                           TC       BLANKET
000673: 43,2523           05155                           TC       ENDOFJOB
000674:
000675: 43,2524           31051                           CA       OPTIONX    +1                         #  SAVE DESIRED OPTION     RR =1     LR =2
000676: 43,2525           55773                           TS       RTSTDEX
000677:
000678: 43,2526           36245        R04X               CAF      SIX                                   #  RR OR LR DESIRED
000679: 43,2527           71773                           MASK     RTSTDEX
000680: 43,2530           10000                           CCS      A
000681: 43,2531           12637                           TCF      R04L                                  #  LANDING RADAR
000682: 43,2532           55775                           TS       RTSTBASE                              #  FOR RR   BASE = 0, MAX = 1
000683:
000684: 43,2533           34752        R04B               CAF      BIT2                                  #  IS RR AUTO MODE DISCRETE PRESENT
000685: 43,2534           00006                           EXTEND
000686: 43,2535           02033                           RAND     CHAN33
000687: 43,2536           00006                           EXTEND
000688: 43,2537           12550                           BZF      R04C                                  #  YES
000689:
000690: 43,2540           32677                           CAF      201R04                                #  REQUEST SELECTION OF RR AUTO MODE
000691: 43,2541           55044                           TS       DSPTEM1
000692: 43,2542           32676                           CAF      V50N25X
000693: 43,2543           04616                           TC       BANKCALL
000694: 43,2544           20345                           CADR     GOMARK4
000695: 43,2545           12643                           TCF      R04END                                #  V34
000696: 43,2546           12533                           TCF      R04B                                  #  V33
000697: 43,2547           12540                           TCF      -7                                    #  E
000698:
000699: 43,2550           34736        R04C               CAF      BIT14                                 #  ENABLE RR AUTO TRACKER
000700: 43,2551           00006                           EXTEND
000701: 43,2552           05012                           WOR      CHAN12
000702:
000703: 43,2553           34752                           CAF      TWO
000704: 43,2554           55774                           TS       RTSTMAX                               #  FOR SEQUENTIAL STORAGE
000705:
000706: 43,2555           05214                           TC       WAITLIST
000707: 43,2556  E4,1600                                  EBANK=   RSTACK
000708: 43,2556           02003 52104                     2CADR    RADSAMP
000709:
000710: 43,2560           00003                           RELINT
000711:
000712: 43,2561           40077                           CS       FLAGWRD3                              #  CHECK R04FLAG      R04 =1    R77 =0
000713: 43,2562           74743                           MASK     R04FLBIT


000715: 43,2563           10000                           CCS      A
000716: 43,2564           12117                           TCF      GOPIN                                 #  R77
000717:
000718: 43,2565           36245                           CAF      SIX                                   #  RR OR LR
000719: 43,2566           71773                           MASK     RTSTDEX
000720: 43,2567           10000                           CCS      A
000721: 43,2570           12605                           TCF      R04LR                                 #  LR
000722:
000723: 43,2571           32671        R04RR              CAF      V16N72                                #  DISPLAY RR CDU ANGLES (1/SEC)
000724: 43,2572           04616                           TC       BANKCALL                              #           R1  +  XXX.XX DEG   TRUNNION
000725: 43,2573           20334                           CADR     GOMARKF                               #           R2  +  XXX.XX DEG   SHAFT
000726: 43,2574           12643                           TCF      R04END                                #  V34      R3     BLANK
000727: 43,2575           12577                           TCF      +2                                    #  V33
000728: 43,2576           12571                           TCF      R04RR                                 #  V32
000729:
000730: 43,2577           32672                           CAF      V16N78                                #  DISPLAY RR RANGE AND RANGE RATE (1/SEC)
000731: 43,2600           04616                           TC       BANKCALL                              #           R1  +- XXX.XX NM    RANGE
000732: 43,2601           20334                           CADR     GOMARKF                               #           R2  +- XXXXX. FPS   RANGE RATE
000733: 43,2602           12643                           TCF      R04END                                #  V34      R3     BLANK
000734: 43,2603           12621                           TCF      R04Y                                  #  V33
000735: 43,2604           12571                           TCF      R04RR                                 #  V32
000736:
000737: 43,2605           32673        R04LR              CAF      V16N66                                #  DISPLAY LR RANGE AND POSITION (1/SEC)
000738: 43,2606           04616                           TC       BANKCALL                              #           R1  +- XXXXX. FT    LR RANGE
000739: 43,2607           20334                           CADR     GOMARKF                               #           R2  +  0000X.       POS. NO.
000740: 43,2610           12643                           TCF      R04END                                #  V34      R3     BLANK
000741: 43,2611           12613                           TCF      +2                                    #  V33
000742: 43,2612           12605                           TCF      R04LR                                 #  V32
000743:
000744: 43,2613           32674                           CAF      V16N67                                #  DISPLAY LR VELX, VELY, VELZ (1/SEC)
000745: 43,2614           04616                           TC       BANKCALL                              #           R1  +- XXXXX. FPS   LR V(X)
000746: 43,2615           20334                           CADR     GOMARKF                               #           R2  +- XXXXX. FPS   LR V(Y)
000747: 43,2616           12643                           TCF      R04END                                #  V34      R3  +- XXXXX. FPS   LR V(Z)
000748: 43,2617           12621                           TCF      R04Y                                  #  V33
000749: 43,2620           12605                           TCF      R04LR                                 #  V32
000750:
000751: 43,2621           34755        R04Y               CAF      ZERO                                  #  TO TERMINATE SAMPLING
000752: 43,2622           55777                           TS       RSAMPDT
000753: 43,2623           04616                           TC       BANKCALL
000754: 43,2624           01735                           CADR     2SECDELY                              #  WAIT FOR LAST RADARUPT
000755: 43,2625           32700                           CAF      1SEC+1                                #  SAMPLE ONCE PER SECOND
000756: 43,2626           55777                           TS       RSAMPDT
000757: 43,2627           34755                           CAF      ZERO                                  #  FOR STORING RESULTS
000758: 43,2630           55776                           TS       RTSTLOC
000759: 43,2631           11775                           CCS      RTSTBASE                              #   CHECK WHICH RADAR HAD BEEN SAMPLED
000760: 43,2632           44753                           CS       ONE                                   #  WAS LR
000761: 43,2633           64752                           AD       TWO                                   #  WAS RR
000762: 43,2634           12525                           TCF      R04X       -1
000763:
000764: 43,2635           34766        R04K               CAF      250MS+1                               #  SAMPLE 4 LR COMPONENTS PER SECOND.


000766: 43,2636           55777                           TS       RSAMPDT
000767:
000768: 43,2637           34752        R04L               CAF      TWO
000769: 43,2640           55775                           TS       RTSTBASE                              #  FOR LR   BASE = 2, MAX = 3
000770: 43,2641           36245                           CAF      SIX
000771: 43,2642           12554                           TCF      R04C       +4
000772: 43,2643           34755        R04END             CAF      ZERO                                  #  ZERO RSAMPDT
000773: 43,2644           55777                           TS       RSAMPDT                               #  TO TERMINATE SAMPLING
000774: 43,2645           34744                           CAF      BIT8                                  #  WAIT 1.28 SECONDS FOR POSSIBLE
000775: 43,2646           04616                           TC       BANKCALL                              #  PENDING RUPT.
000776: 43,2647           01736                           CADR     DELAYJOB
000777:
000778: 43,2650           00004                           INHINT
000779: 43,2651           44736                           CS       BIT14                                 #  DISABLE RR AUTO TRACKER
000780: 43,2652           00006                           EXTEND
000781: 43,2653           03012                           WAND     CHAN12
000782:
000783: 43,2654           05527                           TC       DOWNFLAG
000784: 43,2655           00063                           ADRES    R04FLAG                               #  SIGNAL END OF R04.
000785:
000786: 43,2656           05503                           TC       ENDEXT
000787:
000788: 43,2657           34741        R77END             CAF      EBANK4                                #  TO TERMINATE SAMPLING
000789: 43,2660           54003                           TS       EBANK
000790: 43,2661           34755                           CAF      ZERO
000791: 43,2662           55777                           TS       RSAMPDT
000792: 43,2663           34746                           CAF      BIT6                                  #  WAIT 320 MS FOR POSSIBLE
000793: 43,2664           04616                           TC       BANKCALL                              #  PENDING RUPT.
000794: 43,2665           01736                           CADR     DELAYJOB
000795:
000796: 43,2666           05527                           TC       DOWNFLAG
000797: 43,2667           00117                           ADRES    R77FLAG
000798: 43,2670           12117                           TCF      GOPIN
000799:
000800: 43,2671           04110        V16N72             VN       1672
000801: 43,2672           04116        V16N78             VN       1678
000802: 43,2673           04102        V16N66             VN       1666
000803: 43,2674           04103        V16N67             VN       1667
000804: 43,2675           01014        V04N12X            VN       412
000805: 43,2676           14431        V50N25X            VN       5025
000806: 43,2677           00201        201R04             OCT      00201
000807: 43,2700           00145        1SEC+1             DEC      101        B-14
000808: 43,2701     4766               250MS+1            EQUALS   CALLCODE
000809: 43,2701           00444        LRPOSCAL           OCT      444
000810:


000812: 43,2702           30101        RDRUSECK           CA       FLAGWRD5                              #  IS R77 RUNNING?
000813: 43,2703           74741                           MASK     R77FLBIT
000814: 43,2704           10000                           CCS      A
000815: 43,2705           02116                           TC       ALM/END                               #  YES.
000816: 43,2706           40103                           CS       FLAGWRD7                              #  IS SERVICER RUNNING AND HENCE POSSIBLY
000817: 43,2707           74746                           MASK     V37FLBIT                              #  R12 USING THE LR?
000818: 43,2710           10000                           CCS      A
000819: 43,2711           12716                           TCF      CHECKRR                               #  NO
000820: 43,2712           30107                           CA       FLGWRD11                              #  YES, IS R12 ON?
000821: 43,2713           74735                           MASK     LRBYBIT                               #  BIT 15
000822: 43,2714           00006                           EXTEND
000823: 43,2715           12116                           BZF      ALM/END                               #  YES
000824: 43,2716           40075        CHECKRR            CS       FLAGWRD1                              #  IS THE TRACK FLAG SET AND HENCE POSSIBLY
000825: 43,2717           74747                           MASK     TRACKBIT                              #  P20 USING THE RR?
000826: 43,2720           10000                           CCS      A
000827: 43,2721           00002                           TC       Q                                     #  NOT ALLOWED DURING P20
000828: 43,2722           02116                           TC       ALM/END                               #  P22 OR P25,  (R65)
000829: 43,2723                                           COUNT*   $$/EXTVB
000830:
000831: 43,2723           02076        VB64               TC       TESTXACT                              #  IF DISPLAY SYS. NOT BUSY,MAKE IT BUSY.
000832: 43,2724           34740                           CAF      PRIO4
000833: 43,2725           05105                           TC       FINDVAC
000834: 43,2726  E4,1600                                  EBANK=   ALPHASB
000835: 43,2726           03606 64104                     2CADR    SBANDANT                              #  CALC.,DISPLAY S-BAND ANTENNA ANGLES.
000836:
000837: 43,2730           05155                           TC       ENDOFJOB
000838:


000840:                                                                                                  #           IMUATTCK     VERB 43            DESCRIPTION
000841:                                                                                                  #               LOAD IMU ATTITUDE ERROR METERS
000842:                                                                                                  #                  1. REQUIRE POO OR FRESH START.
000843:                                                                                                  #                  2. REQUIRE COARSE ALIGN ENABLE AND ZERO ICDU BITS OFF.
000844:                                                                                                  #                  3. REQUIRE THAT NEEDLES BE OFF.
000845:                                                                                                  #                  4. REQUEST LOAD OF N22  (VAUES TO BE DISPLAYED).
000846:                                                                                                  #                  5. ON PROCEED OR ENTER RE-DISPLAY V43 AND SEND PULSES.
000847:
000848: 43,2731           02121        IMUATTCK           TC       CHKPOOH                               #  VB 76 - LOAD IMU ATT. ERROR METERS
000849:
000850: 43,2732           34763                           CAF      BITS4&5                               #  SEE IF COARSE ALIGN ENABLE AND ZERO IMU
000851: 43,2733           00006                           EXTEND                                         #  CDUS BITS ARE ON
000852: 43,2734           02012                           RAND     CHAN12
000853: 43,2735           10000                           CCS      A
000854: 43,2736           12116                           TCF      ALM/END                               #  NOT ALLOWED IF IMU COARSE OR IMU ZERO ON
000855:
000856: 43,2737           34355                           CAF      BIT13-14                              #  BOTH BITS 13 AND 14 MUST BE 1
000857: 43,2740           00006                           EXTEND                                         #  INDICATING THE MODE SELECTED IS OFF.
000858: 43,2741           06031                           RXOR     CHAN31
000859: 43,2742           74355                           MASK     BIT13-14
000860: 43,2743           00006                           EXTEND
000861: 43,2744           12746                           BZF      +2                                    #  NEEDLES IS OFF.
000862: 43,2745           12116                           TCF      ALM/END                               #  EXIT.  NEEDLES IS ON.
000863:
000864: 43,2746           02076                           TC       TESTXACT
000865:
000866: 43,2747           32233                           CAF      VNLODCDU
000867: 43,2750           04616                           TC       BANKCALL
000868: 43,2751           20334                           CADR     GOXDSPF
000869: 43,2752           05503                           TC       ENDEXT                                #  V34
000870: 43,2753           02754                           TC       +1
000871: 43,2754           32767                           CAF      V43K                                  #  REDISPLAY OUR VERB.
000872: 43,2755           04616                           TC       BANKCALL
000873: 43,2756           20621                           CADR     EXDSPRET
000874: 43,2757           34746                           CAF      BIT6
000875: 43,2760           00006                           EXTEND
000876: 43,2761           05012                           WOR      CHAN12                                #  ENABLE ERROR COUNTERS.
000877: 43,2762           34752                           CAF      TWO
000878: 43,2763           05214                           TC       WAITLIST                              #  PUT OUT COMMANDS IN .32 SECONDS.
000879: 43,2764     0321                                  EBANK=   THETAD
000880: 43,2764           02035 64100                     2CADR    ATTCK2
000881:
000882: 43,2766           15503                           TCF      ENDEXT
000883:
000884: 42,2035                                           BANK     42
000885: 42,2000                                           SETLOC   PINBALL3                              #  SOMETHING IN B42.
000886: 42,2000                                           BANK
000887:
000888: 42,2035                                           COUNT*   $$/EXTVB


000890: 42,2035           34752        ATTCK2             CAF      TWO                                   #  PUT OUT COMMANDS.
000891: 42,2036           54002                 +1        TS       Q                                     #  CDU WILL LIMIT EXCESS DATA.
000892: 42,2037           50000                           INDEX    A
000893: 42,2040           30321                           CA       THETAD
000894: 42,2041           00006                           EXTEND
000895: 42,2042           72053                           MP       ATTSCALE
000896: 42,2043           50002                           INDEX    Q
000897: 42,2044           56050                           XCH      CDUXCMD
000898: 42,2045           10002                           CCS      Q
000899: 42,2046           12036                           TCF      ATTCK2     +1
000900:
000901: 42,2047           37743                           CAF      13,14,15
000902: 42,2050           00006                           EXTEND
000903: 42,2051           05014                           WOR      CHAN14
000904: 42,2052           15272                           TCF      TASKOVER                              #  LEAVE ERROR COUNTERS ENABLED.
000905:
000906: 42,2053           03146        ATTSCALE           DEC      0.1
000907:
000908: 07,2661                                           BANK     7
000909: 43,2000                                           SETLOC   EXTVERBS
000910: 43,2000                                           BANK
000911:
000912: 43,2767                                           COUNT*   $$/EXTVB
000913:
000914: 43,2767           12600        V43K               VN       4300
000915:                                                                                                  #           V82PERF     VERB 82             DESCRIPTION
000916:                                                                                                  #               REQUEST ORBIT PARAMETERS DISPLAY (R30)
000917:                                                                                                  #  1. IF AVERAGE G IS OFF:
000918:                                                                                                  #           FLASH DISPLAY V04N06. R2 INDICATES WHICH SHIP'S STATE VECTOR IS
000919:                                                                                                  #            TO BE UPDATED. INITIAL CHOICE IS THIS SHIP (R2=1). ASTRONAUT
000920:                                                                                                  #            CAN CHANGE TO OTHER SHIP BY V22EXE, WHERE X NOT EQ 1.
000921:                                                                                                  #           SELECTED STATE VECTOR UPDATED BY THISPREC (OTHPREC).
000922:                                                                                                  #           CALLS SR30.1 (WHICH CALLS TFFCONMU + TFFRP/RA) TO CALCULATE
000923:                                                                                                  #            RPER (PERIGEE RADIUS), RAPO (APOGEE RADIUS), HPER (PERIGEE
000924:                                                                                                  #            HEIGHT ABOVE LAUNCH PAD OR LUNAR LANDING SITE), HAPO (APOGEE
000925:                                                                                                  #            HEIGHT AS ABOVE), TPER (TIME TO PERIGEE), TFF (TIME TO
000926:                                                                                                  #            INTERSECT 300 KFT ABOVE PAD OR 35KFT ABOVE LANDING SITE).
000927:                                                                                                  #           FLASH MONITOR V16N44 (HAPO, HPER, TFF).TFF IS -59M59S IF IT WAS
000928:                                                                                                  #            NOT COMPUTABLE, OTHERWISE IT INCREMENTS ONCE PER SECOND.
000929:                                                                                                  #            ASTRONAUT HAS OPTION TO MONITOR TPER BY KEYING IN N 32 E.
000930:                                                                                                  #            DISPLAY IS IN HMS, IS NEGATIVE (AS WAS TFF), AND INCREMENTS
000931:                                                                                                  #            ONCE PER SECOND ONLY IF TFF DISPLAY WAS -59M59S.
000932:
000933:                                                                                                  #  2. IF AVERAGE G IS ON:
000934:                                                                                                  #           CALLS SR30.1 APPROX EVERY TWO SECS.  STATE VECTOR IS ALWAYS
000935:                                                                                                  #            FOR THIS VEHICLE. V82 DOES NOT DISTURB STATE VECTOR.  RESULTS
000936:                                                                                                  #            OF SR30.1 ARE RAPO, RPER, HAPO, HPER, TPER, TFF.
000937:                                                                                                  #           FLASH MONITOR V16N44 (HAPO, HPER, TFF).
000938:                                                                                                  #           IF MODE IS P11, THEN CALL DELRSPL SO ASTRONAUT CAN MONITOR
000939:                                                                                                  #            RESULTS BY N50E. SPLASH COMPUTATION DONE ONCE PER TWO SECS.
000940:


000942: 43,2770           02076        V82PERF            TC       TESTXACT
000943:
000944: 43,2771           35021                           CAF      PRIO7                                 #  LESS THAN LAMBERT.  R30,V82
000945: 43,2772           05146                           TC       PRIOCHNG
000946: 43,2773           00006                           EXTEND
000947: 43,2774           32777                           DCA      V82CON
000948: 43,2775           05176                           TC       SUPDXCHZ                              #  V82CALL IN DIFF SUPERBANK FROM V82PERF
000949:
000950: 43,2776  E4,1716                                  EBANK=   HAPO
000951: 43,2776           03242 44104  V82CON             2CADR    V82CALL
000952:
000953:                                                                                                  #           VB83PERF     VERB 83            DESCRIPTION
000954:                                                                                                  #               REQUEST RENDEZVOUS PARAMETER DISPLAY (R31)
000955:                                                                                                  #               1. SET EXT VERB DISPLAY BUSY FLAG.
000956:                                                                                                  #               2. SCHEDULE R31CALL WITH PRIORITY 5.
000957:                                                                                                  #                  A. DISPLAY
000958:                                                                                                  #                      R1  RANGE
000959:                                                                                                  #                      R2  RANGE RATE
000960:                                                                                                  #                      R3  THETA
000961:
000962: 43,3000           02076        V83PERF            TC       TESTXACT
000963:
000964: 43,3001           34752                           CAF      BIT2
000965: 43,3002           05214                           TC       WAITLIST
000966: 43,3003  E7,1611                                  EBANK=   TSTRT
000967: 43,3003           03746 60107                     2CADR    R31CALL
000968:
000969: 43,3005           05155                           TC       ENDOFJOB
000970:
000971:                                                                                                  #  VERB 89 DESCRIPTION     RENDEZVOUS FINAL ATTITUDE ROUTINE (R63)
000972:
000973:                                                                                                  #  CALLED BY VERB 89 ENTER DURING P00. PRIO 10 USED.  CALCULATES AND
000974:                                                                                                  #  DISPLAYS FINAL FDAI BALL ANGLES TO POINT LM +X OR +Z AXIS AT CSM.
000975:
000976:                                                                                                  #  1. KEY IN V 89 E ONLY IF IN PROG 00. IF NOT IN P00, OPERATOR ERROR AND
000977:                                                                                                  #  EXIT R63, OTHERWISE CONTINUE.
000978:
000979:                                                                                                  #  2. IF IN P00, DO IMU STATUS CHECK ROUTINE (R02BOTH). IF IMU ON AND ITS
000980:                                                                                                  #  ORIENTATION KNOWN TO LGC, CONTINUE.
000981:
000982:                                                                                                  #  3. FLASH DISPLAY V 04 N 06.  R2 INDICATES WHICH SPACECRAFT AXIS IS TO
000983:                                                                                                  #  BE POINTED AT CSM.  INITIAL CHOICE IS PREFERRED (+Z) AXIS (R2=1).
000984:                                                                                                  #  ASTRONAUT CAN CHANGE TO (+X) AXIS (R2 NOT = 1) BY V 22 E 2 E.  CONTINUE
000985:                                                                                                  #  AFTER KEYING IN PROCEED.
000986:
000987:                                                                                                  #  4. BOTH VEHICLE STATE VECTORS UPDATED BY CONIC EQS.
000988:
000989:                                                                                                  #  5. HALF MAGNITUDE UNIT LOS VECTOR (IN STABLE MEMBER COORDINATES) AND


000991:                                                                                                  #  HALF MAGNITUDE UNIT SPACECRAFT AXIS VECTOR (IN BODY COORDINATES)
000992:                                                                                                  #  PREPARED FOR VECPOINT.
000993:
000994:                                                                                                  #  6. GIMBAL ANGLES FROM VECPOINT TRANSFORMED INTO FDAI BALL ANGLES BY
000995:                                                                                                  #  BALLANGS. FLASH DISPLAY V 06 N 18 AND AWAIT RESPONSE.
000996:
000997:                                                                                                  #  7. RECYCLE - RETURN TO STEP 4.
000998:                                                                                                  #     TERMINATE - EXIT R63.
000999:                                                                                                  #     PROCEED - RESET 3AXISFLG AND CALL R60LEM FOR ATTITUDE MANEUVER.
001000:
001001:
001002: 43,3006           02121        V89PERF            TC       CHKPOOH
001003: 43,3007           02076                           TC       TESTXACT
001004: 43,3010           34737                           CAF      PRIO10
001005: 43,3011           05105                           TC       FINDVAC
001006: 43,3012  E4,1606                                  EBANK=   RONE
001007: 43,3012           02024 54104                     2CADR    V89CALL
001008:
001009: 43,3014           05155                           TC       ENDOFJOB
001010:
001011:                                                                                                  #           V90PERF     VERB 90             DESCRIPTION
001012:                                                                                                  #               REQUEST RENDEZVOUS OUT-OF-PLANE DISPLAY (R36)
001013:                                                                                                  #               1. SET EXT VERB DISPLAY BUSY FLAG.
001014:                                                                                                  #               2. SCHEDULE R36 CALL WITH PRIORITY 10
001015:                                                                                                  #                  A. DISPLAY
001016:                                                                                                  #                      TIME OF EVENT - HOURS , MINUTES , SECONDS
001017:                                                                                                  #                      Y  OUT-OF-PLANE POSITION - NAUTICAL MILES
001018:                                                                                                  #                      YDOT  OUT-OF-PLANE VELOCITY - FEET/SECOND
001019:                                                                                                  #                      PSI  ANGLE BTW LINE OF SIGHT AND FORWARD
001020:                                                                                                  #                           DIRECTION VECTOR IN HORIZONTAL PLANE - DEGREES
001021:
001022: 43,3015           40103        V90PERF            CS       FLAGWRD7
001023: 43,3016           74746                           MASK     V37FLBIT
001024: 43,3017           00006                           EXTEND
001025: 43,3020           12116                           BZF      ALM/END                               #  AVERAGE G ON: ILL EAGLE
001026: 43,3021           02076                           TC       TESTXACT
001027: 43,3022           35021                           CAF      PRIO7                                 #  R36,V90
001028: 43,3023           05105                           TC       FINDVAC
001029: 43,3024  E7,1441                                  EBANK=   TIG
001030: 43,3024           02650 10107                     2CADR    R36
001031:
001032: 43,3026           15155                           TCF      ENDOFJOB
001033:                                                                                                  #           MINIMP     VERB 76              DESCRIPTION
001034:                                                                                                  #               MINIMUM IMPULSE MODE
001035:                                                                                                  #               1. SET MINIMUM IMPULSE RHC MODE FLAG TO 1.
001036:
001037: 43,3027           05515        MINIMP             TC       UPFLAG                                #  SET PULSES = 1 (MIN. IMPULSE MODE)
001038: 43,3030           00303                           ADRES    PULSEFLG
001039: 43,3031           12117                           TCF      GOPIN                                 #  RETURN VIA PINBRNCH
001040:


001042:                                                                                                  #           NOMINIMP     VERB 77            DESCRIPTION
001043:                                                                                                  #               RATE COMMAND MODE
001044:                                                                                                  #               1. SET MINIMUM IMPULSE RHC MODE FLAG TO 0. (ZERO INDICATES NOT MINIMUM IMPULSE MODE.).
001045:                                                                                                  #               2. MOVE CDUX,CDUY,CDUZ INTO CDUXD,CDUYD,CDUZD.
001046:
001047: 43,3032           05527        NOMINIMP           TC       DOWNFLAG                              #  SET PULSES = 0 (NOT MINIMUM IMPULSE MODE
001048: 43,3033           00303                           ADRES    PULSEFLG
001049: 43,3034           00004                           INHINT
001050: 43,3035           04674                           TC       IBNKCALL
001051: 43,3036           40154                           CADR     ZATTEROR
001052: 43,3037           02117                           TC       GOPIN
001053:


001055:                                                                                                  #           CREWMANU     VERB 49            DESCRIPTION
001056:                                                                                                  #               START AUTOMATIC ATTITUDE MANEUVER
001057:                                                                                                  #               1. REQUIRE PROGRAM 00 ACTIVE.
001058:                                                                                                  #               2. SET EXT VERB DISPLAY BUSY FLAG.
001059:                                                                                                  #               3. SCHEDULE R62DISP WITH PRIORITY 10.
001060:                                                                                                  #               4. RELEASE EXT VERB DISPLAY.
001061:
001062:                                                                                                  #             R62DISP
001063:                                                                                                  #               1. DISPLAY FLASHING V06,N22.
001064:                                                                                                  #                  RESPONSES
001065:                                                                                                  #                  A. TERMINATE
001066:                                                                                                  #                     1. GO TO GOTOPOOH.
001067:                                                                                                  #                  B. PROCEED
001068:                                                                                                  #                     1. SET 3AXISFLG TO INDICATE MANEUVER IS SPECIFIED BY 3 AXIS.
001069:                                                                                                  #                     2. EXECUTE R60LEM (ATTITUDE MANEUVER).
001070:                                                                                                  #                  C. ENTER
001071:                                                                                                  #                     1. REPEAT FLASHING V06,N22.
001072:
001073: 43,3040           02121        CREWMANU           TC       CHKPOOH                               #  DEMAND POO
001074:
001075: 43,3041           02076                           TC       TESTXACT
001076:
001077: 43,3042           34737                           CAF      PRIO10
001078: 43,3043           05105                           TC       FINDVAC
001079: 43,3044  E6,1675                                  EBANK=   BCDU
001080: 43,3044           02103 46106                     2CADR    R62DISP
001081:
001082: 43,3046           05155                           TC       ENDOFJOB
001083:


001085:                                                                                                  #  TRMTRACK     VERB 56                     DESCRIPTION
001086:                                                                                                  #               TERMINATE TRACKING (P20 AND P25).
001087:                                                                                                  #               1. KNOCK DOWN RENDEZVOUS, TRACK, AND UPDATE FLAGS.
001088:                                                                                                  #               2. REQUIRE P20 OR  P25 NOT RUNNING ALONE OR GO TO GOTOPOOH (REQUEST PROGRAM 00).
001089:                                                                                                  #               3. SCHEDULE V56TOVAC WITH PRIORITY 30.
001090:
001091:                                                                                                  #               V56TOVAC
001092:                                                                                                  #               1. EXECUTE INTSTALL (IF INTEGRATION IS RUNNING, STALL UNTIL IT IS FINISHED.).
001093:                                                                                                  #               2. ZERO GROUP 2 TO HALT P20.
001094:                                                                                                  #               3. TRANSFER CONTROL TO GOPROG2 (SOFTWARE RESTART).
001095:
001096: 43,3047           33067        TRMTRACK           CA       BITS9+7                               #  IS REND OR P25 FLAG ON
001097: 43,3050           70074                           MASK     FLAGWRD0
001098: 43,3051           00006                           EXTEND
001099: 43,3052           12117                           BZF      GOPIN                                 #  NO
001100:
001101: 43,3053           05527                           TC       DOWNFLAG
001102: 43,3054           00010                           ADRES    RNDVZFLG
001103:
001104: 43,3055           05527                           TC       DOWNFLAG
001105: 43,3056           00006                           ADRES    P25FLAG
001106:
001107: 43,3057           05527                           TC       DOWNFLAG                              #  ENSURE SEARCH FLAG IS OFF
001108: 43,3060           00037                           ADRES    SRCHOPTN
001109:
001110: 43,3061           34747                           CA       TRACKBIT                              #  IS TRACK FLAG ON?
001111: 43,3062           70075                           MASK     FLAGWRD1
001112: 43,3063           00006                           EXTEND
001113: 43,3064           12117                           BZF      GOPIN
001114:
001115: 43,3065           04635                           TC       POSTJUMP
001116: 43,3066           64054                           CADR     TRMTRAK1
001117:
001118: 43,3067           00500        BITS9+7            OCT      500
001119:
001120: 42,2000                                           SETLOC   SBAND                                 #  BANK 42
001121: 42,2000                                           BANK
001122:
001123: 42,2054                                           COUNT*   $$/EXTVB
001124:
001125: 42,2054           05527        TRMTRAK1           TC       DOWNFLAG
001126: 42,2055           00027                           ADRES    UPDATFLG                              #  UPDATE FLAG DOWN
001127: 42,2056           05527                           TC       DOWNFLAG
001128: 42,2057           00031                           ADRES    TRACKFLG                              #  TRACK FLAG DOWN
001129: 42,2060           05527                           TC       DOWNFLAG
001130: 42,2061           00007                           ADRES    IMUSE
001131:
001132: 42,2062           06042                           TC       INTPRET
001133: 42,2063           77624                           CALL
001134: 42,2064           27410                                    INTSTALL                              #  DONT INTERRUPT INTEGRATION
001135: 42,2065           77776                           EXIT
001136:
001137: 42,2066           05364                           TC       PHASCHNG


001139: 42,2067           00002                           OCT      2                                     #  KILL GROUP 2 TO HALT P20 ACTIVITY
001140:
001141: 42,2070           00004                           INHINT
001142: 42,2071           04674                           TC       IBNKCALL                              #  ZERO THE COMMANDED RATES TO STOP
001143: 42,2072           40166                           CADR     STOPRATE                              #  MANEUVER
001144:
001145: 42,2073           04674                           TC       IBNKCALL
001146: 42,2074           40115                           CADR     RESTORDB
001147:
001148: 42,2075           06011                           TC       CLRADMOD                              #  CLEAR BITS 10 + 15 OF RADMODES.
001149:
001150: 42,2076           44736                           CS       BIT14                                 #  DISABLE LOCKON
001151: 42,2077           00006                           EXTEND
001152: 42,2100           03012                           WAND     CHAN12
001153: 42,2101           04635                           TC       POSTJUMP
001154: 42,2102           13002                           CADR     GOPROG2                               #  CAUSE RESTART.
001155:
001156:                                                                                                  #           DNEDUMP     VERB 74             DESCRIPTION
001157:                                                                                                  #               INITIALIZE DOWN-TELEMETRY PROGRAM FOR ERASABLE MEMORY DUMP.
001158:                                                                                                  #               1. SET EXT VERB DISPLAY BUSY FLAG.
001159:                                                                                                  #               2. REPLACE CURRENT DOWNLIST WITH ERASABLE MEMORY.
001160:                                                                                                  #               3. RELEASE EXT VERB DISPLAY.
001161:
001162: 43,2000                                           SETLOC   EXTVERBS
001163: 43,2000                                           BANK
001164:
001165: 43,3070                                           COUNT*   $$/EXTVB
001166:
001167: 43,3070     0400                                  EBANK=   400
001168: 43,3070           33073        DNEDUMP            CAF      LDNDUMPI
001169: 43,3071           54335                           TS       DNTMGOTO
001170: 43,3072           02117                           TC       GOPIN
001171:
001172: 43,3073  43,3070               V74                EQUALS   DNEDUMP
001173: 43,3073           03724        LDNDUMPI           REMADR   DNDUMPI
001174:
001175:                                                                                                  #           LEMVEC     VERB 80              DESCRIPTION
001176:                                                                                                  #               UPDATE LEM STATE VECTOR
001177:                                                                                                  #                  RESET VEHUPFLG TO 0
001178:
001179: 43,3074           05527        LEMVEC             TC       DOWNFLAG
001180: 43,3075           00026                           ADRES    VEHUPFLG                              #  VB 80 - VEHUPFLG DOWN INDICATES LEM
001181:
001182: 43,3076           03101                           TC       NOUPDOWN
001183:                                                                                                  #           CSMVEC     VERB 81              DESCRIPTION
001184:                                                                                                  #               UPDATE CSM STATE VECTOR
001185:                                                                                                  #                  SET   VEHUPFLG TO 1
001186:
001187: 43,3077           05515        CSMVEC             TC       UPFLAG


001189: 43,3100           00026                           ADRES    VEHUPFLG                              #  VB 81 - VEHUPFLG UP INDICATES CSM
001190:
001191: 43,3101           05527        NOUPDOWN           TC       DOWNFLAG
001192: 43,3102           00030                           ADRES    NOUPFLAG
001193:
001194: 43,3103           12117                           TCF      GOPIN
001195:
001196:                                                                                                  #           UPDATOFF   VERB 95      DESCRIPTION
001197:                                                                                                  #               INHIBIT STATE VECTOR UPDATES BY INCORP
001198:                                                                                                  #                  SET NOUPFLAG TO 1
001199:
001200: 43,3104           05515        UPDATOFF           TC       UPFLAG                                #  VB 95 SET NOUPFLAG
001201: 43,3105           00030                           ADRES    NOUPFLAG
001202:
001203: 43,3106           02117                           TC       GOPIN
001204:


001206:                                                                                                  #           SYSTEST     VERB 92             DESCRIPTION
001207:                                                                                                  #             OPERATE IMU PERFORMANCE TEST.
001208:                                                                                                  #               1. REQUIRE PROGRAM 00 OR TURN ON OPERATOR ERROR.
001209:                                                                                                  #               2. SET EXT VERB BUSY FLAG.
001210: 43,3107  E5,1417                                  EBANK=   QPLACE
001211:
001212: 43,3107           02121        SYSTEST            TC       CHKPOOH                               #  DEMAND POO
001213:
001214: 43,3110           40077                           CS       FLAGWRD3                              #  DO NOT ALLOW P07 IN FLIGHT
001215: 43,3111           74741                           MASK     NOP07BIT                              #  IF FLAG IS SET, TURN ON OE LITE AND EXIT
001216: 43,3112           00006                           EXTEND
001217: 43,3113           12116                           BZF      ALM/END
001218: 43,3114           02076                           TC       TESTXACT
001219:
001220: 43,3115           37713                           CAF      PRIO22
001221: 43,3116           05105                           TC       FINDVAC
001222: 43,3117  E5,1417                                  EBANK=   QPLACE
001223: 43,3117  37,2000                                  SBANK=   IMUSUPER
001224: 43,3117           02002 76065                     2CADR    REDO
001225:
001226: 43,3121           05155                           TC       ENDOFJOB
001227:
001228:                                                                                                  #  VERB 93         CLEAR RENDWFLG, CAUSES W-MATRIX TO BE RE-INITIALIZED.
001229:
001230: 43,3122           00004        WMATRXNG           INHINT
001231: 43,3123           44753                           CS       RENDWBIT
001232: 43,3124           70101                           MASK     FLAGWRD5
001233: 43,3125           54101                           TS       FLAGWRD5
001234:
001235: 43,3126           02117                           TC       GOPIN
001236:
001237: 43,3127  43,3127               GOSHOSUM           EQUALS   SHOWSUM
001238:
001239: 43,3127           02121        SHOWSUM            TC       CHKPOOH                               #  *
001240: 43,3130           02076                           TC       TESTXACT                              #  *
001241: 43,3131           35021                           CAF      PRIO7                                 #  ALLOW OTHER CHARINS.
001242: 43,3132           05146                           TC       PRIOCHNG
001243: 43,3133           34753                           CAF      S+1                                   #  *
001244: 43,3134           55376                           TS       SKEEP6                                #  * SHOWSUM OPTION
001245: 43,3135           34755                           CAF      S+ZERO                                #  *
001246: 43,3136           55362                           TS       SMODE                                 #  * TURN OFF SELF-CHECK
001247: 43,3137           33300                           CA       SELFADRS                              #  *
001248: 43,3140           55361                           TS       SELFRET                               #  *
001249: 43,3141           03555                           TC       STSHOSUM                              #  * ENTER ROPECHK
001250:
001251: 43,3142           23372        SDISPLAY           LXCH     SKEEP2                                #  * BANK # FOR DISPLAY
001252: 43,3143           23373                           LXCH     SKEEP3                                #  * BUGGER WORD FOR DISPLAY
001253: 43,3144           33277        NOKILL             CA       ADRS1                                 #  *
001254: 43,3145           54156                           TS       MPAC       +2                         #  *
001255: 43,3146           33157                           CA       VNCON                                 #  * 0501


001257: 43,3147           04616                           TC       BANKCALL                              #  *
001258: 43,3150           20334                           CADR     GOXDSPF                               #  *
001259: 43,3151           03154                           TC       +3                                    #  *
001260: 43,3152           03666                           TC       NXTBNK                                #  *
001261: 43,3153           03144                           TC       NOKILL                                #  *
001262: 43,3154           33300                           CA       SELFADRS
001263: 43,3155           55371                           TS       SKEEP1
001264:
001265: 43,3156           05503                           TC       ENDEXT                                #  *
001266:
001267: 43,3157           01201        VNCON              VN       501                                   #  *
001268:
001269: 43,3160           31376        ENDSUMS            CA       SKEEP6                                #  *
001270: 43,3161           00006                           EXTEND                                         #  *
001271: 43,3162           13371                           BZF      SELFCHK                               #  * ROPECHK, START SELFCHK AGAIN.
001272: 43,3163           03555                           TC       STSHOSUM                              #  * START SHOWSUM AGAIN.
001273:


001275:                                                                                                  #           DAPDISP     VERB 48             DESCRIPTION
001276:                                                                                                  #               LOAD AUTO PILOT  DATA
001277:                                                                                                  #               1. REQUIRE EXT VERB DISPLAY AVAILABLE AND SET BUSY FLAG.
001278:                                                                                                  #               2. EXECUTE DAPDATA1, DAPDATA2, AND DAPDATA3.
001279:                                                                                                  #               3. RELEASE EXT VERB DISPLAY SYSTEM.
001280:                                                                                                  #  KEY
001281:                                                                                                  #  THE FOLLOWING IS A KEY TO THE 5 DIGITS OF THE DAP DATA CODE (N46)
001282:
001283:                                                                                                  #  DIGIT A - VEHICLE CONFIGURATION
001284:                                                                                                  #           1 - LM ALONE, ASCENT
001285:                                                                                                  #           2 - LM ALONE, DESCENT
001286:                                                                                                  #           3 - CSM AND LM DOCKED
001287:
001288:                                                                                                  #  DIGIT B - ACCELERATION CODE
001289:                                                                                                  #           0 - 2 JET TRANSLATION, RCS SYSTEM A PREFERRED
001290:                                                                                                  #           1 - 2 JET TRANSLATION, RCS SYSTEM B PREFERRED
001291:                                                                                                  #           2 - 4 JET TRANSLATION, RCS SYSTEM A PREFERRED (NOT MEANINGFUL)
001292:                                                                                                  #           3 - 4 JET TRANSLATION, RCS SYSTEM B PREFERRED (NOT MEANINGFUL)
001293:
001294:                                                                                                  #  DIGIT C - ACA SCALING
001295:                                                                                                  #           0 - FINE
001296:                                                                                                  #           1 - NORMAL
001297:
001298:                                                                                                  #  DIGIT D - DEADBAND
001299:                                                                                                  #           0 - 0.3 DEG
001300:                                                                                                  #           1 - 1.0 DEG
001301:                                                                                                  #           2 - 5.0 DEG
001302:                                                                                                  #          (3 - 5.0 DEG BY DEFAULT)
001303:
001304:                                                                                                  #  DIGIT E - MANEUVER RATE
001305:                                                                                                  #           0 - 0.2 DEG/SEC
001306:                                                                                                  #           1 - 0.5 DEG/SEC
001307:                                                                                                  #           2 - 2.0 DEG/SEC
001308:                                                                                                  #           3 -10.0 DEG/SEC
001309:
001310: 43,3164           02076        DAPDISP            TC       TESTXACT
001311: 43,3165           35021                           CAF      PRIO7                                 #  R03
001312: 43,3166           05146                           TC       PRIOCHNG
001313: 43,3167           04635                           TC       POSTJUMP
001314: 43,3170           40004                           CADR     DAPDATA1
001315: 34,2000                                           BANK     34
001316: 20,2000                                           SETLOC   LOADDAP
001317: 20,2000                                           BANK
001318:
001319: 20,2004                                           COUNT*   $$/R03
001320:
001321: 20,2004  30,2000                                  SBANK=   LOWSUPER                              #  FOR SUBSEQUENT LOW 2CADR'S.
001322:
001323: 20,2004           32114        DAPDATA1           CAF      BOOLSMSK                              #  SET DISPLAY ACCORDING TO DAPBOOLS BITS.
001324: 20,2005           70111                           MASK     DAPBOOLS                              #  LM


001326: 20,2006           55340                           TS       DAPDATR1                              #  LM
001327: 20,2007           40106                           CS       FLGWRD10                              #  SET BIT 14 TO BE COMPLEMENT OF APSFLAG.
001328: 20,2010           74737                           MASK     APSFLBIT
001329: 20,2011           10000                           CCS      A
001330: 20,2012           34736                           CAF      BIT14
001331: 20,2013           27340                           ADS      DAPDATR1
001332: 20,2014           31340        CHKDATA1           CAE      DAPDATR1                              #  IF BITS 13 AND 14 ARE BOTH ZERO, FORCE
001333: 20,2015           74355                           MASK     BIT13-14                              #    A ONE INTO BIT 13.
001334: 20,2016           00006                           EXTEND
001335: 20,2017           12034                           BZF      FORCEONE
001336: 20,2020           31340                           CAE      DAPDATR1                              #  ENSURE THAT NO ILLEGAL BITS SET BY CREW.
001337: 20,2021           72113        MSKDATR1           MASK     DSPLYMSK
001338: 20,2022           55340                           TS       DAPDATR1
001339: 20,2023           32112                           CAF      V01N46                                #  LM
001340: 20,2024           04616                           TC       BANKCALL
001341: 20,2025           20353                           CADR     GOXDSPFR
001342: 20,2026           15503                           TCF      ENDEXT                                #  V34E  TERMINATE
001343: 20,2027           12037                           TCF      DPDAT1                                #  V33E  PROCEED
001344: 20,2030           12014                           TCF      CHKDATA1                              #  E     NEW DATA    CHECK AND REDISPLAY
001345: 20,2031           36245                           CAF      REVCNT                                #  BITS 2 & 3:  BLANKS R2 & R3.
001346: 20,2032           05475                           TC       BLANKET
001347: 20,2033           15155                           TCF      ENDOFJOB
001348: 20,2034           34737        FORCEONE           CAF      BIT13
001349: 20,2035           27340                           ADS      DAPDATR1
001350: 20,2036           12021                           TCF      MSKDATR1
001351:
001352: 20,2037           00004        DPDAT1             INHINT                                         #  INHINT FOR SETTING OF FLAG BITS AND MASS
001353: 20,2040           44737                           CS       APSFLBIT                              #    ON BASIS OF DISPLAYED DAPDATR1.
001354: 20,2041           70106                           MASK     FLGWRD10
001355: 20,2042           54001                           TS       L                                     #  SET APSFLAG TO BE COMPLEMENT OF BIT 14.
001356: 20,2043           41340                           CS       DAPDATR1
001357: 20,2044           74736                           MASK     BIT14
001358: 20,2045           10000                           CCS      A
001359: 20,2046           34737                           CAF      APSFLBIT
001360: 20,2047           60001                           AD       L
001361: 20,2050           54106                           TS       FLGWRD10
001362: 20,2051           41340                           CS       DAPDATR1                              #  SET BITS OF DAPBOOLS ON BASIS OF DISPLAY
001363: 20,2052           74355                           MASK     BIT13-14                              #    MASK OUT CSMDOCKD (BIT 13) UNLESS BOTH
001364: 20,2053           10000                           CCS      A                                     #    13 AND 14 ARE SET.
001365: 20,2054           44737                           CS       CSMDOCKD
001366: 20,2055           62114                           AD       BOOLSMSK
001367: 20,2056           71340                           MASK     DAPDATR1
001368: 20,2057           54001                           TS       L
001369: 20,2060           42114                           CS       BOOLSMSK
001370: 20,2061           70111                           MASK     DAPBOOLS
001371: 20,2062           60001                           AD       L
001372: 20,2063           54111                           TS       DAPBOOLS
001373: 20,2064           74737                           MASK     CSMDOCKD                              #  LOAD MASS IN ACCORDANCE WITH CSMDOCKD.
001374: 20,2065           10000                           CCS      A                                     #    MASS IS USUALLY ALREADY OKAY, SO DO
001375: 20,2066           31327                           CAE      CSMMASS                               #    NOT TOUCH ITS LOW-ORDER PART.


001377: 20,2067           61326                           AD       LEMMASS
001378: 20,2070           55243                           TS       MASS
001379: 20,2071           30111                           CAE      DAPBOOLS
001380: 20,2072           74741                           MASK     ACC4OR2X                              #  2 OR 4 JET X-TRANSLATION
001381: 20,2073           00006                           EXTEND                                         #  (BIT ACC4OR2X = 1 FOR 4 JETS)
001382: 20,2074           12101                           BZF      +5
001383: 20,2075           44735                           CS       BIT15
001384: 20,2076           70075                           MASK     FLAGWRD1                              #  CLEAR NJTSFLAG TO 0 FOR 4 JETS
001385: 20,2077           54075                           TS       FLAGWRD1
001386: 20,2100           12104                           TCF      +4
001387: 20,2101           40075                           CS       FLAGWRD1                              #  SET NJTSFLAG TO 1 FOR 2 JETS
001388: 20,2102           74735                           MASK     BIT15
001389: 20,2103           26075                           ADS      FLAGWRD1
001390: 20,2104           30111                           CA       DAPBOOLS                              #  SELECT DESIRED KALCMANU AUTOMATIC
001391: 20,2105           76250                           MASK     THREE                                 #  MANEUVER RATE
001392: 20,2106           60000                           DOUBLE                                         #  RATEINDX HAS TO BE 0,2,4,6 SINCE RATES
001393: 20,2107           55322                           TS       RATEINDX                              #  ARE DP
001394: 20,2110           04635                           TC       POSTJUMP
001395: 20,2111           02214                           CADR     STIKLOAD
001396:
001397: 20,2112           00256        V01N46             VN       0146
001398: 20,2113           33133        DSPLYMSK           OCT      33133
001399: 20,2114           13133        BOOLSMSK           OCT      13133
001400: 01,2214                                           BANK     01
001401: 01,2000                                           SETLOC   LOADDAP1
001402: 01,2000                                           BANK
001403:
001404: 01,2214                                           COUNT*   $$/R03
001405:
001406: 01,2214           35015        STIKLOAD           CAF      EBANK6
001407: 01,2215           54003                           TS       EBANK
001408: 01,2216  E6,1444                                  EBANK=   STIKSENS
001409: 01,2216           34745                           CA       RHCSCALE                              #  SET STICK SENSITIVITY TO CORRESPOND TO A
001410: 01,2217           70111                           MASK     DAPBOOLS                              #  MAXIMUM COMMANDED RATE (AT 42 COUNTS) OF
001411: 01,2220           10000                           CCS      A                                     #  20 D/S(NORMAL) OR 4 D/S(FINE), SCALED
001412: 01,2221           32343                           CA       NORMAL                                #  AT 45 D/S.
001413: 01,2222           62344                           AD       FINE
001414: 01,2223           55444                           TS       STIKSENS
001415: 01,2224           32346                           CA       -0.6D/S
001416: 01,2225           55476                           TS       -RATEDB                               #  LM-ONLY BREAKOUT LEVEL IS .6 D/S.
001417: 01,2226           34737                           CA       CSMDOCKD                              #  IF CSM-DOCKED, DIVIDE STICK SENSITIVITY
001418: 01,2227           70111                           MASK     DAPBOOLS                              #  BY 10. NORMAL SCALING IS THEN 2 D/S AND
001419: 01,2230           00006                           EXTEND                                         #  FINE SCALING IS 0.4 D/S
001420: 01,2231           12240                           BZF      +7                                    #  BRANCH IF CSM IS NOT DOCKED.
001421: 01,2232           31444                           CA       STIKSENS
001422: 01,2233           00006                           EXTEND
001423: 01,2234           72345                           MP       1/10
001424: 01,2235           55444                           TS       STIKSENS
001425: 01,2236           32347                           CA       -0.3D/S                               #  CSM-DOCKED BREAKOUT LEVEL IS .3 D/S.
001426: 01,2237           55476                           TS       -RATEDB


001428: 01,2240           00003                           RELINT                                         #  PROCEED TO NOUN 47, MASS LOAD,
001429:
001430: 01,2241           32341        DAPDATA2           CAF      V0647
001431: 01,2242           04616                           TC       BANKCALL
001432: 01,2243           20353                           CADR     GOXDSPFR
001433: 01,2244           12252                           TCF      ENDR03                                #  V34E  TERMINATE. FIRST SET DB, DO 1/ACCS
001434: 01,2245           12256                           TCF      DAPDAT2                               #  V33E  PROCEED
001435: 01,2246           12241                           TCF      DAPDATA2                              #        LOAD NEW DATA AND RECYCLE
001436: 01,2247           34751                           CAF      BIT3                                  #  BLANKS R3
001437: 01,2250           05475                           TC       BLANKET                               #             LM
001438: 01,2251           15155                           TCF      ENDOFJOB
001439: 01,2252           00004        ENDR03             INHINT
001440: 01,2253           04674                           TC       IBNKCALL
001441: 01,2254           40115                           CADR     RESTORDB
001442: 01,2255           15503                           TCF      ENDEXT                                #  DOES RELINT
001443:
001444: 01,2256           40106        DAPDAT2            CS       FLGWRD10                              #  DETERMINE STAGE FROM APSFLAG
001445: 01,2257           74737                           MASK     APSFLBIT
001446: 01,2260           10000                           CCS      A
001447: 01,2261           32000                           CA       MINLMD
001448: 01,2262           62001                           AD       MINMINLM
001449: 01,2263           61326                           AD       LEMMASS                               #  LEMMASS MUST BE GREATER THAN EMPTY LEM
001450: 01,2264           00006                           EXTEND
001451: 01,2265           62241                           BZMF     DAPDATA2                              #  ASK FOR NEW MASSES
001452: 01,2266           30111                           CAE      DAPBOOLS
001453: 01,2267           74737                           MASK     CSMDOCKD
001454: 01,2270           00006                           EXTEND
001455: 01,2271           12277                           BZF      LEMALONE                              #  SKIP TEST ON CSMMASS IF NOT DOCKED.
001456: 01,2272           44741                           CS       MINCSM                                #  TEST CSM MASS
001457: 01,2273           61327                           AD       CSMMASS                               #  CSMMASS MUST BE GREATER THAN EMPTY CSM
001458: 01,2274           00006                           EXTEND
001459: 01,2275           62241                           BZMF     DAPDATA2                              #  ASK FOR NEW MASSES
001460: 01,2276           31327                           CAE      CSMMASS                               #  DOCKED:  MASS = CSMMASS + LEMMASS
001461: 01,2277           61326        LEMALONE           AD       LEMMASS                               #  LEM ALONE:  MASS = LEMMASS
001462: 01,2300           22007                           ZL
001463: 01,2301           53244                           DXCH     MASS
001464: 01,2302           00004                           INHINT
001465: 01,2303           04674                           TC       IBNKCALL                              #  SET DEADBANK AND COMPUTE MOMENTS OF
001466: 01,2304           40115                           CADR     RESTORDB                              #    INERTIA.
001467: 01,2305           00003                           RELINT                                         #  PROCEED TO NOUN 48 (OR END).
001468:
001469: 01,2306           40106        DAPDATA3           CS       FLGWRD10
001470: 01,2307           74737                           MASK     APSFLBIT
001471: 01,2310           00006                           EXTEND                                         #  END ROUTINE IF LEM HAS STAGED,
001472: 01,2311           15503                           BZF      ENDEXT
001473: 01,2312           32342                           CAF      V06N48                                #  DISPLAY TRIM ANGLES AND REQUEST RESPONSE
001474: 01,2313           04616                           TC       BANKCALL
001475: 01,2314           20353                           CADR     GOXDSPFR
001476: 01,2315           05503                           TC       ENDEXT
001477: 01,2316           12323                           TCF      DPDAT3                                #  V33E GO DO TRIM (WAITLIST TO TRIMGIMB)
001478:


001480: 01,2317           12312                           TCF      -5                                    #       LOAD NEW DATA AND RECYCLE
001481: 01,2320           34751                           CAF      BIT3
001482: 01,2321           05475                           TC       BLANKET                               #  BLANK R3
001483: 01,2322           15155                           TCF      ENDOFJOB
001484: 01,2323           34753        DPDAT3             CAF      BIT1
001485: 01,2324           05214                           TC       WAITLIST
001486: 01,2325  E6,1401                                  EBANK=   ROLLTIME
001487: 01,2325           03223 56066                     2CADR    TRIMGIMB
001488:
001489: 01,2327           15155                           TCF      ENDOFJOB                              #  DOES A RELINT
001490: 01,2330           32342        TRIMDONE           CAF      V50N48
001491: 01,2331           04616                           TC       BANKCALL                              #  TRIM IS FINISHED; PLEASE TERMINATE R03
001492: 01,2332           20361                           CADR     GOMARK3R   -1
001493: 01,2333           05503                           TC       ENDEXT                                #  V34E TERMINATE
001494: 01,2334           05503                           TC       ENDEXT
001495: 01,2335           05503                           TC       ENDEXT
001496: 01,2336           36007                           CAF      OCT24                                 #  BIT5 TO CHANGE TO PERFORM, 3 TO BLANK R3
001497: 01,2337           05475                           TC       BLANKET
001498: 01,2340           15155                           TCF      ENDOFJOB
001499:
001500: 01,2341           01457        V0647              VN       0647
001501: 01,2342           01460        V06N48             VN       0648
001502:
001503: 01,2343  01,2342               V50N48             =        V06N48
001504:
001505: 01,2343           25101        NORMAL             DEC      .660214
001506:                                                                                                  #  NORMAL SCALING IS 20 D/S
001507: 01,2344           05220        FINE               DEC      .165054                               #  FINE STICK SCALING (4 D/S).
001508: 01,2345           03146        1/10               DEC      .1                                    #  FACTOR FOR CSM-DOCKED SCALING
001509: 01,2346           77445        -0.6D/S            DEC      -218       B-14
001510: 01,2347           77622        -0.3D/S            DEC      -109       B-14
001511:


001513:                                                                                                  #  VERB 66.  VEHICLES ARE ATTACHED.  MOVE THIS VEHICLE STATE VECTOR TO
001514:                                                                                                  #            OTHER VEHICLE STATE VECTOR.
001515:
001516:                                                                                                  #      USE SUBROUTINE GENTRAN.
001517:
001518: 07,2661                                           BANK     7
001519: 43,2000                                           SETLOC   EXTVERBS
001520: 43,2000                                           BANK
001521:
001522: 43,3171                                           COUNT*   $$/EXTVB
001523:
001524: 43,3171  E3,1626                                  EBANK=   RRECTHIS
001525:
001526: 43,3171           40104        ATTACHED           CS       FLAGWRD8
001527: 43,3172           74744                           MASK     SURFFBIT
001528: 43,3173           00006                           EXTEND
001529: 43,3174           12116                           BZF      ALM/END                               #  TURN ON OE AND EXIT IF SURFFLAG SET.
001530: 43,3175           34737                           CAF      PRIO10
001531: 43,3176           05105                           TC       FINDVAC
001532: 43,3177  E3,1626                                  EBANK=   RRECTHIS
001533:
001534: 43,3177           03202 66103                     2CADR    ATTACHIT
001535:
001536: 43,3201           05155                           TC       ENDOFJOB
001537:
001538: 43,3202           06042        ATTACHIT           TC       INTPRET
001539: 43,3203           77624                           CALL
001540: 43,3204           27410                                    INTSTALL
001541: 43,3205           43014                           SET      BON
001542: 43,3206           04063                                    MOONOTH
001543: 43,3207           04304                                    MOONTHIS
001544: 43,3210           67213                                    +3
001545: 43,3211           77614                           CLEAR
001546: 43,3212           04263                                    MOONOTH
001547: 43,3213           77776                           EXIT
001548: 43,3214           33237                           CAF      OCT51
001549: 43,3215           05555                           TC       GENTRAN
001550: 43,3216           01626                           ADRES    RRECTHIS                              #  OUR STATE VECTOR INTO OTHER VIA GENTRAN
001551: 43,3217           01554                           ADRES    RRECTOTH
001552:
001553: 43,3220           00003                           RELINT
001554: 43,3221           06042                           TC       INTPRET
001555: 43,3222           77624                           CALL                                           #  UPDATE R-OTHER, V-OTHER
001556: 43,3223           26757                                    PTOALEM
001557: 43,3224           45154                           LXA,2    CALL
001558: 43,3225           02030                                    PBODY
001559: 43,3226           26114                                    SVDWN1
001560: 43,3227           77776                           EXIT
001561:
001562: 43,3230           33240                           CAF      TCPINAD


001564: 43,3231           50120                           INDEX    FIXLOC
001565: 43,3232           54052                           TS       QPRET
001566: 43,3233           04635                           TC       POSTJUMP
001567: 43,3234           27421                           CADR     INTWAKE                               #  FREE INTEGRATION AND EXIT.
001568:
001569: 43,3235           77634        TCPIN              RTB
001570: 43,3236           21051                                    PINBRNCH
001571:
001572: 43,3237           00051        OCT51              OCT      51
001573: 43,3240           67235        TCPINAD            CADR     TCPIN
001574:
001575:                                                                                                  #  VERB 96  SET QUITFLAG TO STOP INTEGRATION.
001576:
001577:                                                                                                  #           GO TO V37 WITH ZERO TO CAUSE POO.
001578:                                                                                                  #           STATEINT WILL CHECK QUITFLAG AND SKIP 1ST PASS,
001579:                                                                                                  #                  THUS ALLOWING A 10 MINUTE PERIOD WITHOUT INTEGRATION.
001580:
001581: 43,3241           05515        VERB96             TC       UPFLAG                                #  QUITFLAG WILL CAUSE INTEGRATION TO EXIT
001582: 43,3242           00221                           ADRES    QUITFLAG                              #     AT NEXT TIMESTEP
001583:
001584: 43,3243           34755                           CAF      ZERO
001585: 43,3244           04635                           TC       POSTJUMP
001586: 43,3245           10040                           CADR     V37                                   #  GO TO POO
001587:
001588:
001589:                                                                                                  #  VERB 67 :   DISPLAY OF W MATRIX
001590:
001591: 43,3246           02076        V67                TC       TESTXACT
001592: 43,3247           35017                           CAF      PRIO5
001593: 43,3250           05105                           TC       FINDVAC
001594: 43,3251  E4,1600                                  EBANK=   WWPOS
001595: 43,3251           02007 62064                     2CADR    V67CALL
001596:
001597: 43,3253           05155                           TC       ENDOFJOB
001598:
001599:                                                                                                  #  VERB 65         DISABLE U,V JETS DURING DPS BURNS
001600:
001601: 43,3254           05515        SNUFFOUT           TC       UPFLAG
001602: 43,3255           00115                           ADRES    SNUFFER
001603: 43,3256           02117                           TC       GOPIN
001604:
001605:                                                                                                  #  VERB 75         ENABLE U,V JETS DURING DPS BURNS
001606:
001607: 43,3257           05527        OUTSNUFF           TC       DOWNFLAG
001608: 43,3260           00115                           ADRES    SNUFFER
001609: 43,3261           02117                           TC       GOPIN
001610:                                                                                                  #  VERB 85         DISPLAY RR LOS AZIMUTH AND ELEVATION.
001611:
001612:                                                                                                  #           AZIMUTH IS THE ANGLE BETWEEN THE LOS AND THE X-Z NB PLANE, 0 - 90 DEG IN THE +Y HEMISPHERE,
001613:                                                                                                  #  360 - 270 DEG IN THE -Y HEMISPHERE.
001614:


001616:                                                                                                  #           ELEVATION IS THE ANGLE BETWEEN +ZNB AND THE PROJECTION OF THE LOS INTO THE X-Z PLANE, 0 - 360 ABOUT +Y.
001617:
001618: 43,3262  E4,1600                                  EBANK=   RR-AZ
001619: 43,3262           02076        VERB85             TC       TESTXACT
001620: 43,3263           04635                           TC       POSTJUMP
001621: 43,3264           60000                           CADR     DSPRRLOS
001622:
001623: 40,2000                                           SETLOC   PINBALL1
001624: 40,2000                                           BANK
001625:
001626: 40,2000                                           COUNT*   $$/EXTVB
001627:
001628: 40,2000           35017        DSPRRLOS           CAF      PRIO5
001629: 40,2001           05105                           TC       FINDVAC
001630: 40,2002  E4,1600                                  EBANK=   RR-AZ
001631: 40,2002           02017 60104                     2CADR    RRLOSDSP
001632:
001633: 40,2004           34740                           CAF      PRIO4
001634: 40,2005           05146                           TC       PRIOCHNG
001635: 40,2006           32076                           CAF      V16N56
001636: 40,2007           04616                           TC       BANKCALL
001637: 40,2010           20353                           CADR     GOMARKFR
001638: 40,2011           05574                           TC       B5OFF
001639: 40,2012           05574                           TC       B5OFF
001640: 40,2013           05574                           TC       B5OFF
001641:
001642: 40,2014           34751                           CAF      BIT3
001643: 40,2015           05475                           TC       BLANKET
001644: 40,2016           05155                           TC       ENDOFJOB
001645:
001646:
001647: 40,2017           00006        RRLOSDSP           EXTEND
001648: 40,2020           30036                           DCA      CDUT
001649: 40,2021           52155                           DXCH     MPAC
001650: 40,2022           06042                           TC       INTPRET
001651: 40,2023           77624                           CALL
001652: 40,2024           46065                                    RRNBMPAC                              #  GET RR LOS IN BODY AXIS.
001653: 40,2025           00001                           STORE    0D                                    #  UNIT LOS
001654: 40,2026           14007                           STODL    6D
001655: 40,2027           06520                                    HI6ZEROS
001656: 40,2030           24011                           STOVL    8D
001657: 40,2031           00007                                    6D
001658: 40,2032           77656                           UNIT
001659: 40,2033           00007                           STORE    6D                                    #  UNIT OF LOS PROJ IN X-Z PLANE
001660: 40,2034           77641                           DOT


001662: 40,2035           06512                                    UNITZ
001663: 40,2036           24021                           STOVL    COSTH                                 #  16D
001664: 40,2037           06516                                    UNITX
001665: 40,2040           77641                           DOT
001666: 40,2041           00007                                    6D
001667: 40,2042           34023                           STCALL   SINTH                                 #  18D
001668: 40,2043           47316                                    ARCTRIG
001669: 40,2044           43244                           BPL      DAD                                   #  INSURE DISPLAY OF 0 - 360 DEG.
001670: 40,2045           60047                                    +2
001671: 40,2046           06526                                    DPPOSMAX                              #  INTRODUCES AN ERROR OF B-28 REVS.
001672: 40,2047           26203                           STOVL    RR-ELEV
001673: 40,2050           00001                                    0D
001674: 40,2051           77641                           DOT
001675: 40,2052           06514                                    UNITY
001676: 40,2053           24023                           STOVL    SINTH
001677: 40,2054           00001                                    0D
001678: 40,2055           77641                           DOT
001679: 40,2056           00007                                    6D
001680: 40,2057           34021                           STCALL   COSTH
001681: 40,2060           47316                                    ARCTRIG
001682: 40,2061           43244                           BPL      DAD                                   #  INSURE DISPLAY OF 0 - 360 DEG.
001683: 40,2062           60064                                    +2
001684: 40,2063           06526                                    DPPOSMAX                              #  INTRODUCES AN ERROR OF B-28 REVS.
001685: 40,2064           02201                           STORE    RR-AZ
001686: 40,2065           77776                           EXIT
001687: 40,2066           34777                           CA       1SEC
001688: 40,2067           04616                           TC       BANKCALL
001689: 40,2070           01736                           CADR     DELAYJOB
001690:
001691: 40,2071           34747                           CA       BIT5
001692: 40,2072           71043                           MASK     EXTVBACT
001693: 40,2073           10000                           CCS      A
001694: 40,2074           02017                           TC       RRLOSDSP
001695: 40,2075           05503                           TC       ENDEXT
001696:
001697: 40,2076           04070        V16N56             VN       1656

End of include-file EXTENDED_VERBS.agc.  Parent file is MAIN.agc


