
Source Code


000002:                                                                                                  ## Copyright:   Public domain.
000003:                                                                                                  ## Filename:    FIXED-FIXED_CONSTANT_POOL.agc
000004:                                                                                                  ## Purpose:     A section of Luminary revision 163.
000005:                                                                                                  ##              It is part of the reconstructed source code for the first
000006:                                                                                                  ##              (unflown) release of the flight software for the Lunar
000007:                                                                                                  ##              Module's (LM) Apollo Guidance Computer (AGC) for Apollo 14.
000008:                                                                                                  ##              The code has been recreated from a reconstructed copy of
000009:                                                                                                  ##              Luminary 173, as well as Luminary memos 157 amd 158.
000010:                                                                                                  ##              It has been adapted such that the resulting bugger words
000011:                                                                                                  ##              exactly match those specified for Luminary 163 in NASA
000012:                                                                                                  ##              drawing 2021152N, which gives relatively high confidence
000013:                                                                                                  ##              that the reconstruction is correct.
000014:                                                                                                  ## Reference:   pp. 1086-1090
000015:                                                                                                  ## Assembler:   yaYUL
000016:                                                                                                  ## Contact:     Ron Burkey <info@sandroid.org>.
000017:                                                                                                  ## Website:     www.ibiblio.org/apollo/index.html
000018:                                                                                                  ## Mod history: 2019-08-21 MAS  Created from Luminary 173.
000019:


000021:    4732                                           BLOCK    02
000022:
000023:    4732                                           COUNT*   $$/FCONS
000024:                                                                                                  #   THE FOLLOWING TABLE OF 18 VALUES IS INDEXED. DO NOT INSERT OR REMOVE ANY QUANTITIES.
000025:
000026:    4732           37777        DPOSMAX            OCT      37777                                 #  MUST PRECEDE POSMAX
000027:    4733           37777        POSMAX             OCT      37777
000028:
000029:    4734     4734               LIMITS             =        NEG1/2
000030:
000031:    4734           57777        NEG1/2             OCT      -20000                                #  USED BY SIN ROUTINE (MUST BE TWO
000032:                                                                                                  #  LOCATIONS IN FRONT OF BIT14)
000033:                                                                                                  #  BIT TABLE
000034:
000035:    4735           40000        BIT15              OCT      40000
000036:    4736           20000        BIT14              OCT      20000
000037:    4737           10000        BIT13              OCT      10000
000038:    4740           04000        BIT12              OCT      04000
000039:    4741           02000        BIT11              OCT      02000
000040:    4742           01000        BIT10              OCT      01000
000041:    4743           00400        BIT9               OCT      00400
000042:    4744           00200        BIT8               OCT      00200
000043:    4745           00100        BIT7               OCT      00100
000044:    4746           00040        BIT6               OCT      00040
000045:    4747           00020        BIT5               OCT      00020
000046:    4750           00010        BIT4               OCT      00010
000047:    4751           00004        BIT3               OCT      00004
000048:    4752           00002        BIT2               OCT      00002
000049:    4753           00001        BIT1               OCT      00001
000050:
000051:
000052:                                                                                                  #  DO NOT DESTROY THIS COMBINATION, SINCE IT IS USED IN DOUBLE PRECISION INSTRUCTIONS.
000053:    4754           77777        NEG0               OCT      -0                                    #  MUST PRECEDE ZERO
000054:    4755           00000        ZERO               OCT      0                                     #  MUST FOLLOW NEG0
000055:                                                                                                  #  BIT1          OCT     00001
000056:                                                                                                  #  NO.WDS        OCT     2               INTERPRETER
000057:                                                                                                  #  OCTAL3        OCT     3               INTERPRETER
000058:                                                                                                  #  R3D1          OCT     4               PINBALL
000059:    4756           00005        FIVE               OCT      5
000060:                                                                                                  #  REVCNT        OCT     6               INTERPRETER
000061:    4757           00007        SEVEN              OCT      7
000062:                                                                                                  #  BIT4          OCT     00010
000063:                                                                                                  #  R2D1          OCT     11              PINBALL
000064:    4760     4320               OCT11              =        R2D1                                  #  P20S
000065:                                                                                                  #  BINCON        DEC     10              PINBALL            (OCTAL 12)
000066:    4760           00013        ELEVEN             DEC      11         B-14
000067:                                                                                                  #  OCT14         OCT     14              ALARM AND ABORT (FILLER)
000068:    4761           00015        OCT15              OCT      15
000069:                                                                                                  #  R1D1          OCT     16              PINBALL
000070:    4762           00017        LOW4               OCT      17


000072:                                                                                                  #  BIT5          OCT     00020
000073:                                                                                                  #  ND1           OCT     21              PINBALL
000074:                                                                                                  #  VD1           OCT     23              PINBALL
000075:                                                                                                  #  OCT24         OCT     24              SERVICE ROUTINES
000076:                                                                                                  #  MD1           OCT     25              PINBALL
000077:    4763           00030        BITS4&5            OCT      30
000078:                                                                                                  #  OCT31         OCT     31              SERVICE ROUTINES
000079:    4764           00033        OCT33              OCT      33
000080:    4765     4764               DEC27              =        OCT33
000081:    4765           00035        OCT35              OCT      35
000082:    4766     4765               DEC29              =        OCT35
000083:    4766           00032        CALLCODE           OCT      00032
000084:                                                                                                  #  LOW5          OCT     37              PINBALL
000085:                                                                                                  #  33DEC         DEC     33              PINBALL            (OCTAL 41)
000086:                                                                                                  #  34DEC         DEC     34              PINBALL            (OCTAL 42)
000087:    4767           00045        TBUILDFX           DEC      37         B-14                       #  BUILDUP FOR CONVIENCE IN DAPTESTING
000088:    4770           00046        TDECAYFX           DEC      38         B-14                       #  CONVENIENCE FOR DAPTESTING
000089:                                                                                                  #  BIT6          OCT     00040
000090:    4771           00050        OCT50              OCT      50
000091:    4772           00055        DEC45              DEC      45         B-14
000092:    4773           00060        SUPER011           OCT      60                                    #  BITS FOR SUPERBNK SETTING 011.
000093:    4774           00062        .5SEC              DEC      50         B-14
000094:                                                                                                  #  BIT7          OCT     00100
000095:
000096:    4775     4745               SUPER100           =        BIT7                                  #  BITS FOR SUPERBNK SETTING 100
000097:                                                                                                  #  (LAST 4K OF ROPE)
000098:    4775           00120        SUPER101           OCT      120                                   #  BITS FOR SUPERBNK SETTING 101
000099:                                                                                                  #  OCT121        OCT     121             SERVICE ROUTINES
000100:                                                                                                  #  (FIRST 8K OF ACM)
000101:    4776           00140        SUPER110           OCT      140                                   #  BITS FOR SUPERBNK SETTING 110.
000102:                                                                                                  #  (LAST 8K OF ACM)
000103:    4777           00144        1SEC               DEC      100        B-14
000104:                                                                                                  #  LOW7          OCT     177             INTERPRETER
000105:                                                                                                  #  BIT8          OCT     00200
000106:                                                                                                  #  OT215         OCT     215             ALARM AND ABORT
000107:                                                                                                  #  8,5           OCT     00220           P20-P25 SUNDANCE
000108:    5000           00310        2SECS              DEC      200        B-14
000109:                                                                                                  #  LOW8          OCT     377             PINBALL
000110:                                                                                                  #  BIT9          OCT     00400
000111:    5001           00401        GN/CCODE           OCT      00401                                 #  SET S/C CONTROL SWITCH TO G/N
000112:    5002           00454        3SECS              DEC      300        B-14
000113:    5003           00620        4SECS              DEC      400        B-14
000114:    5004           00777        LOW9               OCT      777
000115:                                                                                                  #  BIT10         OCT     01000
000116:                                                                                                  #  5.5DEGS       DEC     .03056          P20-P25 SUNDANCE   (OCTAL 00765)
000117:                                                                                                  #  OCT1103       OCT     1103            ALARM AND ABORT
000118:    5005           01124        C5/2               DEC      .0363551                              #                     (OCTAL 01124)
000119:    5006           01211        V05N09             VN       0509                                  #  (SAME AS OCTAL 1211)
000120:    5007           01400        OCT1400            OCT      01400
000121:    5010           01426        V06N22             VN       0622


000123:                                                                                                  #  MID5          OCT     1740            PINBALL
000124:    5011           01776        BITS2-10           OCT      1776
000125:    5012           01777        LOW10              OCT      1777
000126:                                                                                                  #  BIT11         OCT     02000
000127:                                                                                                  #  2K+3          OCT     2003            PINBALL
000128:    5013           02177        LOW7+2K            OCT      2177                                  #  OP CODE MASK + BANK 1 FBANK SETTING.
000129:    5014           02400        EBANK5             OCT      02400
000130:    5015           03000        PRIO3              OCT      03000
000131:    5016           03400        EBANK7             OCT      03400
000132:                                                                                                  #  LOW11         OCT     3777            PINBALL
000133:                                                                                                  #  BIT12         OCT     04000
000134:                                                                                                  #  RELTAB        OCT     04025           T4RUPT
000135:    5017           05000        PRIO5              OCT      05000
000136:    5020           06000        PRIO6              OCT      06000
000137:    5021           07000        PRIO7              OCT      07000
000138:
000139:                                                                                                  #  BIT13         OCT     10000
000140:                                                                                                  #                OCT     10003           T4RUPT     RELTAB +1D
000141:                                                                                                  #  13,7,2        OCT     10102           P20-P25 SUNDANCE
000142:    5022           11000        PRIO11             OCT      11000
000143:                                                                                                  #  PRIO12        OCT     12000           BANKCALL
000144:    5023           13000        PRIO13             OCT      13000
000145:    5024           14000        PRIO14             OCT      14000
000146:                                                                                                  #                OCT     14031           T4RUPT     RELTAB +2D
000147:    5025           15000        PRIO15             OCT      15000
000148:    5026           16000        PRIO16             OCT      16000
000149:                                                                                                  #  85DEGS        DEC     .45556          P20-P25 SUNDANCE   (OCTAL 16450)
000150:    5027           17000        PRIO17             OCT      17000
000151:    5030           17770        OCT17770           OCT      17770
000152:                                                                                                  #  BIT14         OCT     20000
000153:                                                                                                  #                OCT     20033           T4RUPT     RELTAB +3D
000154:    5031           21000        PRIO21             OCT      21000
000155:    7713                                           BLOCK    03
000156:    7713                                           COUNT*   $$/FCONS
000157:    7713           22000        PRIO22             OCT      22000                                 #  SERVICE ROUTINES
000158:    7714           23000        PRIO23             OCT      23000
000159:    7715           24000        PRIO24             OCT      24000
000160:                                                                                                  #  5/8+1         OCT     24001           SINGLE PRECISION SUBROUTINES
000161:                                                                                                  #                OCT     24017           T4RUPT     RELTAB +4D
000162:    7716           25000        PRIO25             OCT      25000
000163:    7717           26000        PRIO26             OCT      26000
000164:    7720           27000        PRIO27             OCT      27000
000165:                                                                                                  #  CHRPRIO       OCT     30000           PINBALL
000166:                                                                                                  #                OCT     30036           T4RUPT     RELTAB +5D
000167:    7721           31000        PRIO31             OCT      31000
000168:    7722           31103        C1/2               DEC      .7853134                              #                   (OCTAL 31103)
000169:    7723           32000        PRIO32             OCT      32000
000170:    7724           33000        PRIO33             OCT      33000
000171:    7725           34000        PRIO34             OCT      34000
000172:                                                                                                  #                OCT     34034           T4RUPT     RELTAB +6D


000174:    7726           35000        PRIO35             OCT      35000
000175:    7727           36000        PRIO36             OCT      36000
000176:    7730           37000        PRIO37             OCT      37000
000177:    7731           37401        63/64+1            OCT      37401
000178:                                                                                                  #  MID7          OCT     37600           PINBALL
000179:    7732           37766        OCT37766           OCT      37766
000180:    7733           37774        OCT37774           OCT      37774
000181:    7734           37776        OCT37776           OCT      37776
000182:                                                                                                  #  DPOSMAX       OCT     37777
000183:                                                                                                  #  BIT15         OCT     40000
000184:                                                                                                  #  OCT40001      OCT     40001           INTERPRETER  ( CS   1   INSTRUCTION)
000185:    7735           40014        DLOADCOD           OCT      40014
000186:    7736           40015        DLOAD*             OCT      40015
000187:                                                                                                  #                OCT     40023           T4RUPT     RELTAB +7D
000188:    7737           40040        BIT15+6            OCT      40040
000189:    7740           40200        OCT40200           OCT      40200
000190:                                                                                                  #                OCT     44035           T4RUPT    RELTAB +8D
000191:                                                                                                  #                OCT     50037           T4RUPT     RELTAB +9D
000192:                                                                                                  #                OCT     54000           T4RUPT     RELTAB +10D
000193:    7741           57777        -BIT14             OCT      57777
000194:                                                                                                  #  RELTAB11      OCT     60000           T4RUPT
000195:    7742           65552        C3/2               DEC      -.3216147                             #                   (OCTAL 65552)
000196:    7743           70000        13,14,15           OCT      70000
000197:    7744           73777        -1/8               OCT      73777
000198:    7745           74000        HIGH4              OCT      74000
000199:    7746           74056        -ENDERAS           DEC      -2001      B-14                       #                   (OCTAL 74056)
000200:                                                                                                  #  HI5           OCT     76000           PINBALL
000201:    7747           77700        HIGH9              OCT      77700
000202:                                                                                                  #  -ENDVAC       DEC     -45             INTERPRETER        (OCTAL 77722)
000203:                                                                                                  #  -OCT10        OCT     -10                                 (OCT 77767)
000204:                                                                                                  #  NEG4          DEC     -4                                 (OCTAL 77773)
000205:    7750           77774        NEG3               DEC      -3         B-14
000206:    7751           77775        NEG2               OCT      77775
000207:    7752           77776        NEGONE             DEC      -1         B-14
000208:


000210:


000212:                                                                                                  #  DEFINED BY EQUALS
000213:
000214:                                                                                                  #  IT WOULD BE TO THE USERS ADVANTAGE TO OCCASIONALLY CHECK ANY OF THESE SYMBOLS IN ORDER TO PREVENT ANY
000215:                                                                                                  #  ACCIDENTAL DEFINITION CHANGES.
000216:
000217:    7753     7752               MINUS1             =        NEG1
000218:    7753     7752               NEG1               =        NEGONE
000219:    7753     4753               ONE                =        BIT1
000220:    7753     4752               TWO                =        BIT2
000221:    7753     6250               THREE              =        OCTAL3
000222:    7753     6250               LOW2               =        THREE
000223:    7753     4751               FOUR               =        BIT3
000224:    7753     6245               SIX                =        REVCNT
000225:    7753     4757               LOW3               =        SEVEN
000226:    7753     4750               EIGHT              =        BIT4
000227:    7753     4320               NINE               =        R2D1
000228:    7753     4363               TEN                =        BINCON
000229:    7753     4760               NOUTCON            =        ELEVEN
000230:    7753     4360               OCT23              =        VD1
000231:    7753     4362               OCT25              =        MD1
000232:    7753     4742               PRIO1              =        BIT10
000233:    7753     5007               EBANK3             =        OCT1400
000234:    7753     4741               PRIO2              =        BIT11
000235:    7753     4775               OCT120             =        SUPER101
000236:    7753     4776               OCT140             =        SUPER110
000237:    7753     4741               2K                 =        BIT11
000238:    7753     4741               EBANK4             =        BIT11
000239:    7753     4740               PRIO4              =        BIT12
000240:    7753     5015               EBANK6             =        PRIO3
000241:    7753     4737               QUARTER            =        BIT13
000242:    7753     4737               PRIO10             =        BIT13
000243:    7753     7666               OCT10001           =        CCSL
000244:    7753     4736               POS1/2             =        HALF
000245:    7753     4736               PRIO20             =        BIT14
000246:    7753     4736               HALF               =        BIT14
000247:    7753     4355               PRIO30             =        CHRPRIO
000248:    7753     4355               BIT13-14           =        PRIO30                                #  INTERPRETER USES IN PROCESSING STORECODE
000249:    7753     6474               OCT30002           =        TLOAD      +1
000250:    7753     7725               B12T14             =        PRIO34
000251:    7753     4735               NEGMAX             =        BIT15
000252:    7753     4735               VLOADCOD           =        BIT15
000253:    7753     6112               VLOAD*             =        OCT40001
000254:    7753     4101               OCT60000           =        RELTAB11
000255:    7753     4350               BANKMASK           =        HI5

End of include-file FIXED-FIXED_CONSTANT_POOL.agc.  Parent file is MAIN.agc


