
Source Code


000002:                                                                                                  ## Copyright:   Public domain.
000003:                                                                                                  ## Filename:    FLAGWORD_ASSIGNMENTS.agc
000004:                                                                                                  ## Purpose:     A section of Luminary revision 163.
000005:                                                                                                  ##              It is part of the reconstructed source code for the first
000006:                                                                                                  ##              (unflown) release of the flight software for the Lunar
000007:                                                                                                  ##              Module's (LM) Apollo Guidance Computer (AGC) for Apollo 14.
000008:                                                                                                  ##              The code has been recreated from a reconstructed copy of
000009:                                                                                                  ##              Luminary 173, as well as Luminary memos 157 amd 158.
000010:                                                                                                  ##              It has been adapted such that the resulting bugger words
000011:                                                                                                  ##              exactly match those specified for Luminary 163 in NASA
000012:                                                                                                  ##              drawing 2021152N, which gives relatively high confidence
000013:                                                                                                  ##              that the reconstruction is correct.
000014:                                                                                                  ## Reference:   pp. 62-89
000015:                                                                                                  ## Assembler:   yaYUL
000016:                                                                                                  ## Contact:     Ron Burkey <info@sandroid.org>.
000017:                                                                                                  ## Website:     www.ibiblio.org/apollo/index.html
000018:                                                                                                  ## Mod history: 2019-08-21 MAS  Created from Luminary 173. Removed the
000019:                                                                                                  ##                              definition of R12RDFLG.
000020:


000022:                                                                                                  #          FLAGWORDS 0-11 ARE DOWNLINKED AND CAN BE SET AND CLEARED BY UP-FLAG AND DOWN-FLAG INSTRUCTIONS IN THE
000023:                                                                                                  #                         INTERPRETER. THESE WERE PREVIOUSLY LISTED UNDER "INTERPRETIVE SWITCH BIT ASSIGNMENTS" IN
000024:                                                                                                  #                         THE ERASABLE LOG SECTION. FLAGWORDS 12 & 13 WEREPREVIOUSLY RADMODES AND DAPBOOLS AND
000025:                                                                                                  #                         ARE STILL DOWNLINKED UNDER THOSE NAMES.
000026:
000027:
000028:
000029:
000030:                                                                                                  #          ALPHABETICAL LIST OF FLAGWORDS
000031:
000032:
000033:                                                                                                  #  9             25              41                      61        COLUMN NO.
000034:                                                                                                  #  FLAGWORD      DEC. NUMBER     BIT AND FLAG            BIT NAME
000035:
000036:                                                                                                  #  ABTTGFLG      143             BIT 7 FLAG 9            ABTTGBIT
000037:                                                                                                  #  ACCOKFLG      207             BIT 3  FLAG 13          ACCSOKAY
000038:                                                                                                  #  ACC4-2FL      199             BIT 11 FLAG 13          ACC4OR2X
000039:                                                                                                  #  ACMODFLG      032             BIT 13 FLAG 2           ACMODBIT
000040:                                                                                                  #  ALTSCALE      186             BIT 9  FLAG 12          ALTSCBIT
000041:                                                                                                  #  ANTENFLG      183             BIT 12 FLAG 12          ANTENBIT
000042:                                                                                                  #  AORBSFLG      085             BIT 5 FLAG 5            AORBSYST
000043:                                                                                                  #  AORBTFLG      200             BIT 10 FLAG 13          AORBTRAN
000044:                                                                                                  #  APSESW        130             BIT 5  FLAG 8           APSESBIT
000045:                                                                                                  #  APSFLAG       152             BIT 13 FLAG 10          APSFLBIT
000046:                                                                                                  #  ASTNFLAG      108             BIT 12 FLAG 7           ASTNBIT
000047:                                                                                                  #  ATTFLAG       104             BIT 1  FLAG 6           ATTFLBIT
000048:                                                                                                  #  AUTOMODE      193             BIT 2  FLAG 12          AUTOMBIT
000049:                                                                                                  #  AUTR1FLG      209             BIT 1  FLAG 13          AUTRATE1
000050:                                                                                                  #  AUTR2FLG      208             BIT 2  FLAG 13          AUTRATE2
000051:                                                                                                  #  AUXFLAG       103             BIT 2  FLAG 6           AUXFLBIT
000052:                                                                                                  #  AVEGFLAG      115             BIT 5  FLAG 7           AVEGFBIT
000053:                                                                                                  #  AVEMIDSW      149             BIT 1  FLAG 9           AVEMDBIT
000054:                                                                                                  #  AVFLAG        040             BIT 5  FLAG 2           AVFLBIT
000055:                                                                                                  #  CALCMAN2      043             BIT 2  FLAG 2           CALC2BIT
000056:                                                                                                  #  CALCMAN3      042             BIT 3  FLAG 2           CALC3BIT
000057:                                                                                                  #  CDESFLAG      180             BIT 15 FLAG 12          CDESBIT
000058:                                                                                                  #  CMOONFLG      123             BIT 12 FLAG 8           CMOONBIT
000059:                                                                                                  #  COGAFLAG      131             BIT 4  FLAG 8           COGAFBIT
000060:                                                                                                  #  CSMDKFLG      197             BIT 13 FLAG 13          CSMDOCKD
000061:                                                                                                  #  CULTFLAG      053             BIT 7  FLAG 3           CULTBIT
000062:                                                                                                  #  DAPBOOLS                      FLGWRD13
000063:                                                                                                  #  DBSELFLG      206             BIT 4  FLAG 13          DBSELECT
000064:                                                                                                  #  DBSL2FLG      205             BIT 5 FLAG 13           DBSLECT2
000065:                                                                                                  #  DESIGFLG      185             BIT 10 FLAG 12          DESIGBIT
000066:                                                                                                  #  DIDFLAG       016             BIT 14 FLAG 1           DIDFLBIT
000067:                                                                                                  #  DIMOFLAG      059             BIT 1  FLAG 3           DIMOBIT


000069:                                                                                                  #  DMENFLG       081             BIT 9  FLAG 5           DMENFBIT
000070:                                                                                                  #  DRIFTDFL      202             BIT 8  FLAG 13          DRIFTBIT
000071:                                                                                                  #  DRIFTFLG      030             BIT 15 FLAG 2           DRFTBIT
000072:                                                                                                  #  DSKYFLAG      075             BIT 15 FLAG 5           DSKYFBIT
000073:                                                                                                  #  D6OR9FLG      058             BIT 2  FLAG 3           D6OR9BIT
000074:                                                                                                  #  ENGONFLG      083             BIT 7  FLAG 5           ENGONBIT
000075:                                                                                                  #  ERADFLAG      017             BIT 13 FLAG 1           ERADFBIT
000076:                                                                                                  #  ETPIFLAG      038             BIT 7  FLAG 2           ETPIBIT
000077:                                                                                                  #  FINALFLG      039             BIT 6  FLAG 2           FINALBIT
000078:                                                                                                  #  FLAGWRD0      (000-014)       (STATE +0)
000079:                                                                                                  #  FLAGWRD1      (015-029)       (STATE +1)
000080:                                                                                                  #  FLAGWRD2      (030-044)       (STATE +2)
000081:                                                                                                  #  FLAGWRD3      (045-059)       (STATE +3)
000082:                                                                                                  #  FLAGWRD4      (060-074)       (STATE +4)
000083:                                                                                                  #  FLAGWRD5      (075-089)       (STATE +5)
000084:                                                                                                  #  FLAGWRD6      (090-104)       (STATE +6)
000085:                                                                                                  #  FLAGWRD7      (105-119)       (STATE +7)
000086:                                                                                                  #  FLAGWRD8      (120-134)       (STATE +8D)
000087:                                                                                                  #  FLAGWRD9      (135-149)       (STATE +9D)
000088:                                                                                                  #  FLAP          142             BIT 8  FLAG 9           FLAPBIT
000089:                                                                                                  #  FLGWRD10      (150-164)       (STATE +10D)
000090:                                                                                                  #  FLGWRD11      (165-179)       (STATE +11D)
000091:                                                                                                  #  FLGWRD12      (180-194)       (STATE +12D)
000092:                                                                                                  #  FLGWRD13      (195-209)       (STATE +13D)
000093:                                                                                                  #  FLPC          138             BIT 12 FLAG 9           FLPCBIT
000094:                                                                                                  #  FLPI          139             BIT 11 FLAG 9           FLPIBIT
000095:                                                                                                  #  FLRCS         149             BIT 10 FLAG 9           FLRCSBIT
000096:                                                                                                  #  FLUNDISP      125             BIT 10 FLAG 8           FLUNDBIT
000097:                                                                                                  #  FLVR          136             BIT 14 FLAG 9           FLVRBIT
000098:                                                                                                  #  FREEFLAG      012             BIT 3  FLAG 0           FREEFBIT
000099:                                                                                                  #  FSPASFLG      005             BIT 10 FLAG 0           FSPASBIT
000100:                                                                                                  #  GLOKFAIL      046             BIT 14 FLAG 3           GLOKFBIT
000101:                                                                                                  #  GMBDRVSW      095             BIT 10 FLAG 6           GMBDRBIT
000102:                                                                                                  #  GUESSW        028             BIT 2  FLAG 1           GUESSBIT
000103:                                                                                                  #  HFAILFLG      167             BIT 13 FLAG 11          HFAILBIT
000104:                                                                                                  #  HFLSHFLG      179             BIT 1  FLAG 11          HFLSHBIT
000105:                                                                                                  #  IDLEFLAG      113             BIT 7  FLAG 7           IDLEFBIT
000106:                                                                                                  #  IGNFLAG       107             BIT 13 FLAG 7           IGNFLBIT
000107:                                                                                                  #  IMPULSW       036             BIT 9  FLAG 2           IMPULBIT
000108:                                                                                                  #  IMUSE         007             BIT 8  FLAG 0           IMUSEBIT
000109:                                                                                                  #  INFINFLG      128             BIT 7  FLAG 8           INFINBIT
000110:                                                                                                  #  INITALGN      133             BIT 2  FLAG 8           INITABIT
000111:                                                                                                  #  INTFLAG       151             BIT 14 FLAG 10          INTFLBIT
000112:                                                                                                  #  INTYPFLG      056             BIT 4  FLAG 3           INTYPBIT
000113:                                                                                                  #  ITSWICH       105             BIT 15 FLAG 7           ITSWBIT
000114:                                                                                                  #  JSWITCH       001             BIT 14 FLAG 0           JSWCHBIT
000115:                                                                                                  #  LETABORT      141             BIT 9  FLAG 9           LETABBIT
000116:                                                                                                  #  LMOONFLG      124             BIT 11 FLAG 8           LMOONBIT
000117:                                                                                                  #  LOKONSW       010             BIT 5  FLAG 0           LOKONBIT
000118:                                                                                                  #  LOSCMFLG      033             BIT 12 FLAG 2           LOSCMBIT


000120:                                                                                                  #  LRALTFLG      190             BIT 5  FLAG 12          LRALTBIT
000121:                                                                                                  #  LRBYPASS      165             BIT 15 FLAG 11          LRBYBIT
000122:                                                                                                  #  LRINH         172             BIT 8  FLAG 11          LRINHBIT
000123:                                                                                                  #  LRPOSFLG      189             BIT 6  FLAG 12          LRPOSBIT
000124:                                                                                                  #  LRVELFLG      187             BIT 8  FLAG 12          LRVELBIT
000125:                                                                                                  #  LUNAFLAG      048             BIT 12 FLAG 3           LUNABIT
000126:                                                                                                  #  MANUFLAG      106             BIT 14 FLAG 7           MANUFBIT
000127:                                                                                                  #  MGLVFLAG      088             BIT 2  FLAG 5           MGLVFBIT
000128:                                                                                                  #  MIDAVFLG      148             BIT 2  FLAG 9           MIDAVBIT
000129:                                                                                                  #  MIDFLAG       002             BIT 13 FLAG 0           MIDFLBIT
000130:                                                                                                  #  MID1FLAG      147             BIT 3  FLAG 9           MID1BIT
000131:                                                                                                  #  MKOVFLAG      072             BIT 3  FLAG 4           MKOVBIT
000132:                                                                                                  #  MOONFLAG      003             BIT 12 FLAG 0           MOONBIT
000133:                                                                                                  #  MRKIDFLG      060             BIT 15 FLAG 4           MRKIDBIT
000134:                                                                                                  #  MRKNVFLG      066             BIT 9  FLAG 4           MRKNVBIT
000135:                                                                                                  #  MRUPTFLG      070             BIT 5 FLAG 4            MRUPTBIT
000136:                                                                                                  #  MUNFLAG       097             BIT 8 FLAG 6            MUNFLBIT
000137:                                                                                                  #  MWAITFLG      064             BIT 11 FLAG 4           MWAITBIT
000138:                                                                                                  #  NEEDLFLG      011             BIT 4  FLAG 0           NEEDLBIT
000139:                                                                                                  #  NEED2FLG      000             BIT 15 FLAG 0           NEED2BIT
000140:                                                                                                  #  NEWIFLG       122             BIT 13 FLAG 8           NEWIBIT
000141:                                                                                                  #  NJETSFLG      015             BIT 15 FLAG 1           NJETSBIT
000142:                                                                                                  #  NODOFLAG      044             BIT 1  FLAG 2           NODOBIT
000143:                                                                                                  #  NODOP07       049             BIT 11 FLAG 3           NOP07BIT
000144:                                                                                                  #  NOLRREAD      170             BIT 10 FLAG 11          NOLRRBIT
000145:                                                                                                  #  NORMSW        110             BIT 10 FLAG 7           NORMSBIT
000146:                                                                                                  #  NORRMON       086             BIT 4  FLAG 5           NORRMBIT
000147:                                                                                                  #  NOTERFLG      019             BIT 11 FLAG 1           NOTERBIT
000148:                                                                                                  #  NOTHROTL      078             BIT 12 FLAG 5           NOTHRBIT
000149:                                                                                                  #  NOUPFLAG      024             BIT 6  FLAG 1           NOUPFBIT
000150:                                                                                                  #  NRMNVFLG      067             BIT 8  FLAG 4           NRMNVBIT
000151:                                                                                                  #  NRMIDFLG      062             BIT 13 FLAG 4           NRMIDBIT
000152:                                                                                                  #  NRUPTFLG      071             BIT 4  FLAG 4           NRUPTBIT
000153:                                                                                                  #  NTARGFLG      102             BIT 3  FLAG 6           NTARGBIT
000154:                                                                                                  #  NWAITFLG      065             BIT 10 FLAG 4           NWAITBIT
000155:                                                                                                  #  ORBWFLAG      054             BIT 6  FLAG 3           ORBWFBIT
000156:                                                                                                  #  ORDERSW       129             BIT 6  FLAG 8           ORDERBIT
000157:                                                                                                  #  OURRCFLG      198             BIT 12 FLAG 13          OURRCBIT
000158:                                                                                                  #  PDSPFLAG      063             BIT 12 FLAG 4           PDSPFBIT
000159:                                                                                                  #  PFRATFLG      041             BIT 4  FLAG 2           PFRATBIT
000160:                                                                                                  #  PINBRFLG      069             BIT 6  FLAG 4           PINBRBIT
000161:                                                                                                  #  POOHFLAG      045             BIT 15 FLAG 3           POOHBIT
000162:                                                                                                  #  PRECIFLG      052             BIT 8  FLAG 3           PRECIBIT
000163:                                                                                                  #  PRIODFLG      061             BIT 14 FLAG 4           PRIODBIT
000164:                                                                                                  #  PRONVFLG      068             BIT 7  FLAG 4           PRONVBIT
000165:                                                                                                  #  PSTHIGAT      169             BIT 11 FLAG 11          PSTHIBIT
000166:                                                                                                  #  PULSEFLG      195             BIT 15 FLAG 13          PULSES
000167:                                                                                                  #  P21FLAG       004             BIT 11 FLAG 0           P21FLBIT
000168:                                                                                                  #  P25FLAG       006             BIT 9  FLAG 0           P25FLBIT


000170:                                                                                                  #  P66PROFL      014D            BIT 1 FLAG 0            P66PROBT
000171:                                                                                                  #  P7071FLG      137             BIT 13 FLAG 9           P7071BIT
000172:                                                                                                  #  QUITFLAG      145             BIT 5  FLAG 9           QUITBIT
000173:                                                                                                  #  RADMODES                      FLGWRD12
000174:                                                                                                  #  RASFLAG                       FLGWRD10
000175:                                                                                                  #  RCDUFAIL      188             BIT 7  FLAG 12          RCDUFBIT
000176:                                                                                                  #  RCDU0FLG      182             BIT 13 FLAG 12          RCDU0BIT
000177:                                                                                                  #  REDFLAG       099             BIT 6  FLAG 6           REDFLBIT
000178:                                                                                                  #  REFSMFLG      047             BIT 13 FLAG 3           REFSMBIT
000179:                                                                                                  #  REINTFLG      158             BIT 7  FLAG 10          REINTBIT
000180:                                                                                                  #  REMODFLG      181             BIT 14 FLAG 12          REMODBIT
000181:                                                                                                  #  RENDWFLG      089             BIT 1  FLAG 5           RENDWBIT
000182:                                                                                                  #  REPOSMON      184             BIT 11 FLAG 12          REPOSBIT
000183:                                                                                                  #  RHCSCFLG      203             BIT 7  FLAG 13          RHCSCALE
000184:                                                                                                  #  RNDVZFLG      008             BIT 7  FLAG 0           RNDVZBIT
000185:                                                                                                  #  RNGEDATA      176             BIT 4  FLAG 11          RNGEDBIT
000186:                                                                                                  #  RNGSCFLG      080             BIT 10 FLAG 5           RNGSCBIT
000187:                                                                                                  #  RODFLAG       018             BIT 12 FLAG 1           RODFLBIT
000188:                                                                                                  #  ROTFLAG       144             BIT  6 FLAG 9           ROTFLBIT
000189:                                                                                                  #  RPQFLAG       120             BIT 15 FLAG 8           RPQFLBIT
000190:                                                                                                  #  RRDATAFL      191             BIT 4  FLAG 12          RRDATABT
000191:                                                                                                  #  RRNBSW        009             BIT 6 FLAG 0            RRNBBIT
000192:                                                                                                  #  RRRSFLAG      192             BIT 3  FLAG 12          RRRSBIT
000193:                                                                                                  #  RVSW          111             BIT 9  FLAG 7           RVSWBIT
000194:                                                                                                  #  R04FLAG       051             BIT 9  FLAG 3           R04FLBIT
000195:                                                                                                  #  R10FLAG       013             BIT 2  FLAG 0           R10FLBIT
000196:                                                                                                  #  R61FLAG       020             BIT 10 FLAG 1           R61FLBIT
000197:                                                                                                  #  R77FLAG       079             BIT 11 FLAG 5           R77FLBIT
000198:                                                                                                  #  SLOPESW       027             BIT 3  FLAG 1           SLOPEBIT
000199:                                                                                                  #  SNUFFER       077             BIT 13 FLAG 5           SNUFFBIT
000200:                                                                                                  #  SOLNSW        087             BIT 3  FLAG 5           SOLNSBIT
000201:                                                                                                  #  SRCHOPTN      031             BIT 14 FLAG 2           SRCHOBIT
000202:                                                                                                  #  STATEFLG      055             BIT 5  FLAG 3           STATEBIT
000203:                                                                                                  #  STEERSW       034             BIT 11 FLAG 2           STEERBIT
000204:                                                                                                  #  SURFFLAG      127             BIT 8  FLAG 8           SURFFBIT
000205:                                                                                                  #  SWANDISP      109             BIT 11 FLAG 7           SWANDBIT
000206:                                                                                                  #  S32.1F1       090             BIT 15 FLAG 6           S32BIT1
000207:                                                                                                  #  S32.1F2       092             BIT 14 FLAG 6           S32BIT2
000208:                                                                                                  #  S32.1F3A      092             BIT 13 FLAG 6           S32BIT3A
000209:                                                                                                  #  S32.1F3B      093             BIT 12 FLAG 6           S32BIT3B
000210:                                                                                                  #  TFFSW         119             BIT 1  FLAG 7           TFFSWBIT
000211:                                                                                                  #  TRACKFLG      025             BIT 5  FLAG 1           TRACKBIT
000212:                                                                                                  #  TURNONFL      194             BIT 1  FLAG 12          TURNONBT
000213:                                                                                                  #  ULLAGFLG      204             BIT 6  FLAG 13          ULLAGER
000214:                                                                                                  #  UPDATFLG      023             BIT 7  FLAG 1           UPDATBIT
000215:                                                                                                  #  UPLOCKFL      116             BIT 4  FLAG 7           UPLOCBIT
000216:                                                                                                  #  USEQRFLG      196             BIT 14 FLAG 13          USEQRJTS
000217:                                                                                                  #  VEHUPFLG      022             BIT 8  FLAG 1           VEHUPBIT
000218:                                                                                                  #  VELDATA       173             BIT 7  FLAG 11          VELDABIT


000220:                                                                                                  #  VERIFLAG      117             BIT 3  FLAG 7           VERIFBIT
000221:                                                                                                  #  VFAILFLG      166             BIT 14 FLAG 11          VFAILBIT
000222:                                                                                                  #  VFLAG         050             BIT 10 FLAG 3           VFLAGBIT
000223:                                                                                                  #  VFLSHFLG      178             BIT 2  FLAG 11          VFLSHBIT
000224:                                                                                                  #  VINTFLAG      057             BIT 3  FLAG 3           VINTFBIT
000225:                                                                                                  #  VXINH         168             BIT 12 FLAG 11          VXINHBIT
000226:                                                                                                  #  V37FLAG       114             BIT 6  FLAG 7           V37FLBIT
000227:                                                                                                  #  V67FLAG       112             BIT 8  FLAG 7           V67FLBIT
000228:                                                                                                  #  V82EMFLG      118             BIT 2  FLAG 7           V82EMBIT
000229:                                                                                                  #  XDELVFLG      037             BIT 8  FLAG 2           XDELVBIT
000230:                                                                                                  #  XDSPFLAG      074             BIT 1  FLAG 4           XDSPBIT
000231:                                                                                                  #  XORFLG        171             BIT 9  FLAG 11          XORFLBIT
000232:                                                                                                  #  XOVINFLG      201             BIT 9  FLAG 13          XOVINHIB
000233:                                                                                                  #  ZOOMFLAG      082             BIT 8  FLAG 5           ZOOMBIT
000234:                                                                                                  #  3AXISFLG      084             BIT 6 FLAG 5            3AXISBIT
000235:                                                                                                  #  360SW         134             BIT 1  FLAG 8           360SWBIT
000236:
000237:
000238:
000239:                                                                                                  #           ASSIGNMENT AND DESCRIPTION OF FLAGWORDS
000240:
000241:
000242: 26,2024     0074               FLAGWRD0           =        STATE      +0                         #  (000-014)
000243:
000244:                                                                                                  #  (SET)               (RESET)
000245:
000246:                                                                                                  #                                BIT 15 FLAG 0             (S)
000247: 26,2024                        NEED2FLG           =        000D                                  #  DISPLAY DAP RATES   CHECK BIT 4 OF THIS
000248: 26,2024     4735               NEED2BIT           =        BIT15                                 #  ON FDAI NEEDLES.    WORD FOR DISPLAY
000249:                                                                                                  #                      MODES (1 OR 2).
000250:
000251:                                                                                                  #                                BIT 14 FLAG 0             (S)
000252: 26,2024                        JSWITCH            =        001D                                  #  INTEGRATION OF W    INTEGRATION OF STATE
000253: 26,2024     4736               JSWCHBIT           =        BIT14                                 #  MATRIX              VECTOR
000254:
000255:
000256:                                                                                                  #                                BIT 13 FLAG 0             (S)
000257: 26,2024                        MIDFLAG            =        002D                                  #  INTEGRATION WITH    INTEGRATION WITHOUT
000258:                                                                                                  #  SECONDARY BODY AND  SOLAR PERTURBATIONS
000259: 26,2024     4737               MIDFLBIT           =        BIT13                                 #  SOLAR PERTURBATIONS
000260:
000261:
000262:                                                                                                  #                                BIT 12 FLAG 0             (L)
000263: 26,2024                        MOONFLAG           =        003D                                  #  MOON IS SPHERE OF   EARTH IS SPHERE OF
000264: 26,2024     4740               MOONBIT            =        BIT12                                 #  INFLUENCE           INFLUENCE
000265:
000266:
000267:                                                                                                  #                                BIT 11 FLAG 0
000268: 26,2024                        P21FLAG            =        004D                                  #  USE BASE VECTORS    1ST PASS -- CALC-
000269: 26,2024     4741               P21FLBIT           =        BIT11                                 #  ALREADY CALCULATED  ULATE BASE VECTORS


000271:
000272:
000273:                                                                                                  #                                BIT 10 FLAG 0
000274: 26,2024                        FSPASFLG           =        005D                                  #  FIRST PASS THROUGH  NOT FIRST PASS THRU
000275: 26,2024     4742               FSPASBIT           =        BIT10                                 #  REPOSITION ROUTINE  REPOSITION ROUTINE
000276:
000277:
000278:                                                                                                  #                                BIT 9 FLAG 0              (S)
000279: 26,2024                        P25FLAG            =        006D                                  #  P25 OPERATING       P25 NOT OPERATING
000280: 26,2024     4743               P25FLBIT           =        BIT9
000281:
000282:
000283:                                                                                                  #                                BIT 8 FLAG 0              (S)
000284: 26,2024                        IMUSE              =        007D                                  #  IMU IN USE          IMU NOT IN USE
000285: 26,2024     4744               IMUSEBIT           =        BIT8
000286:
000287:
000288:                                                                                                  #                                BIT 7 FLAG 0              (S)
000289: 26,2024                        RNDVZFLG           =        008D                                  #  P20 RUNNING (RADAR  P20 NOT RUNNING
000290: 26,2024     4745               RNDVZBIT           =        BIT7                                  #  IN USE)
000291:
000292:
000293:                                                                                                  #                                BIT 6 FLAG 0              (S)
000294: 26,2024                        RRNBSW             =        009D                                  #  RADAR TARGET IN     RADAR TARGET IN
000295: 26,2024     4746               RRNBBIT            =        BIT6                                  #  NB COORDINATES      SM COORDINATES
000296:
000297:
000298:                                                                                                  #                                BIT 5 FLAG 0              (S)
000299: 26,2024                        LOKONSW            =        010D                                  #  RADAR LOCK-ON       RADAR LOCK-ON NOT
000300: 26,2024     4747               LOKONBIT           =        BIT5                                  #  DESIRED             DESIRED
000301:
000302:
000303:                                                                                                  #                                BIT 4 FLAG 0              (S)
000304: 26,2024                        NEEDLFLG           =        011D                                  #  TOTAL ATTITUDE      A/P FOLLOWING
000305: 26,2024     4750               NEEDLBIT           =        BIT4                                  #  ERROR DISPLAYED     ERROR DISPLAYED
000306:
000307:
000308:                                                                                                  #                                BIT 3 FLAG 0
000309: 26,2024                        FREEFLAG           =        012D                                  #  (USED BY P51-53 TEMP IN MANY DIFFERENT
000310:                                                                                                  #  ROUTINES & BY LUNAR + SOLAR EPHEMERIDES)
000311: 26,2024     4751               FREEFBIT           =        BIT3
000312:
000313:
000314:                                                                                                  #                                BIT 2 FLAG 0
000315: 26,2024                        R10FLAG            =        013D                                  #  R10 OUTPUTS DATA TO BESIDES OUTPUT WHEN
000316: 26,2024     4752               R10FLBIT           =        BIT2                                  #  ALTITUDE & ALTITUDE SET, R10 ALSO OUTPUT
000317:                                                                                                  #  RATE METERS ONLY    TO FORWARD & LATERAL
000318:                                                                                                  #                      VELOCITY CROSSPOINTR
000319:
000320:


000322: 26,2024                        P66PROFL           =        014D                                  #  CONTINUE P66        STOP P66
000323: 26,2024     4753               P66PROBT           =        BIT1                                  #  HORIZONTAL          HORIZONTAL VEL
000324:                                                                                                  #  VELOCITY NULLING    NULLING
000325:
000326:
000327: 26,2024     0075               FLAGWRD1           =        STATE      +1                         #  (015-029)
000328:
000329:                                                                                                  #  (SET)               (RESET)
000330:
000331:                                                                                                  #                                BIT 15 FLAG 1             (S)
000332: 26,2024                        NJETSFLG           =        015D                                  #  TWO JET RCS BURN    FOUR JET RCS BURN
000333: 26,2024     4735               NJETSBIT           =        BIT15
000334:
000335:
000336:                                                                                                  #                                BIT 14 FLAG 1             (L)
000337: 26,2024                        DIDFLAG            =        016D                                  #  INERTIAL DATA IS    PERFORM DATA DISPLAY
000338: 26,2024     4736               DIDFLBIT           =        BIT14                                 #  AVAILABLE           INITIALIZATION FUNCS
000339:
000340:
000341:                                                                                                  #                                BIT 13 FLAG 1             (S)
000342: 26,2024                        ERADFLAG           =        017D                                  #  COMPUTE REARTH      USE CONSTANT REARTH
000343: 26,2024     4737               ERADFBIT           =        BIT13                                 #  FISCHER ELLIPSOID   PAD RADIUS
000344:
000345:
000346:                                                                                                  #                                BIT12 FLAG 1
000347: 26,2024                        RODFLAG            =        018D                                  #  IF IN P66, NORMAL   IF IN P66, RE-INIT-
000348: 26,2024     4740               RODFLBIT           =        BIT12                                 #  OPERATION CONTINUES. IALIZATION IS PER-
000349:                                                                                                  #  RESTART CLEARS FLAG  FORMED AND FLAG IS
000350:
000351:
000352:                                                                                                  #                                BIT 11 FLAG 1
000353: 26,2024                        NOTERFLG           =        019D                                  #  TERRAIN MODEL       TERRAIN MODEL
000354: 26,2024     4741               NOTERBIT           =        BIT11                                 #  INHIBITED           PERMITTED
000355:
000356:
000357:                                                                                                  #                                BIT 10 FLAG 1             (L)
000358: 26,2024                        R61FLAG            =        020D                                  #  RUN R61 LEM         RUN R65 LEM
000359: 26,2024     4742               R61FLBIT           =        BIT10
000360:
000361:
000362:                                                                                                  #                                BIT 9 FLAG 1
000363:                                                                                                  #                =               021D
000364:                                                                                                  #                =               BIT9
000365:
000366:                                                                                                  #                                BIT 8 FLAG 1              (S)
000367: 26,2024                        VEHUPFLG           =        022D                                  #  CSM STATE VECTOR    LEM STATE VECTOR
000368: 26,2024     4744               VEHUPBIT           =        BIT8                                  #  BEING UPDATED       BEING UPDATED
000369:
000370:


000372:                                                                                                  #                                BIT 7 FLAG 1              (S)
000373: 26,2024                        UPDATFLG           =        023D                                  #  UPDATING BY MARKS   UPDATING BY MARKS
000374: 26,2024     4745               UPDATBIT           =        BIT7                                  #  ALLOWED             NOT ALLOWED
000375:
000376:
000377:                                                                                                  #                                BIT 6 FLAG 1              (S)
000378: 26,2024                        NOUPFLAG           =        024D                                  #  NEITHER CSM         EITHER STATE
000379:                                                                                                  #  NOR LM STATE VECTOR VECTOR MAY BE
000380: 26,2024     4746               NOUPFBIT           =        BIT6                                  #  MAY BE UPDATED      UPDATED
000381:
000382:
000383:                                                                                                  #                                BIT 5 FLAG 1              (S)
000384: 26,2024                        TRACKFLG           =        025D                                  #  TRACKING ALLOWED    TRACKING NOT ALLOWED
000385: 26,2024     4747               TRACKBIT           =        BIT5
000386:
000387:
000388:                                                                                                  #                                BIT 4 FLAG 1
000389:                                                                                                  #                =               026D
000390:                                                                                                  #                =               BIT4
000391:
000392:
000393:                                                                                                  #                                BIT 3 FLAG 1              (S)
000394: 26,2024                        SLOPESW            =        027D                                  #  ITERATE WITH BIAS   ITERATE WITH REGULAR
000395:                                                                                                  #  METHOD IN ITERATOR  FALSI METHOD IN
000396: 26,2024     4751               SLOPEBIT           =        BIT3                                  #                      ITERATOR
000397:
000398:
000399:                                                                                                  #                                BIT 2 FLAG 1              (S)
000400: 26,2024                        GUESSW             =        028D                                  #  NO STARTING VALUE   STARTING VALUE FOR
000401: 26,2024     4752               GUESSBIT           =        BIT2                                  #  FOR ITERATION       ITERATION EXISTS
000402:
000403:
000404:                                                                                                  #                                BIT 1 FLAG 1
000405:                                                                                                  #                =               029D
000406:
000407:
000408: 26,2024     0076               FLAGWRD2           =        STATE      +2                         #  (030-044)
000409:
000410:                                                                                                  #  (SET)               (RESET)
000411:
000412:                                                                                                  #                                BIT 15 FLAG 2             (S)
000413: 26,2024                        DRIFTFLG           =        030D                                  #  T3RUPT CALLS GYRO   T3RUPT DOES NO GYRO
000414: 26,2024     4735               DRFTBIT            =        BIT15                                 #  COMPENSATION        COMPENSATION
000415:
000416:
000417:                                                                                                  #                                BIT 14 FLAG 2             (S)
000418: 26,2024                        SRCHOPTN           =        031D                                  #  RADAR IN AUTOMATIC  RADAR NOT IN AUTO-
000419: 26,2024     4736               SRCHOBIT           =        BIT14                                 #  SEARCH OPTION(R24)  MATIC SEARCH OPTION
000420:
000421:


000423:                                                                                                  #                                BIT 13 FLAG 2             (S)
000424: 26,2024                        ACMODFLG           =        032D                                  #  MANUAL ACQUISITION  AUTO ACQUISITION
000425: 26,2024     4737               ACMODBIT           =        BIT13                                 #  BY RENDESVOUS RADAR BY RENDESVOUS RADAR
000426:
000427:
000428:                                                                                                  #                                BIT 12 FLAG 2             (S)
000429: 26,2024                        LOSCMFLG           =        033D                                  #  LINE OF SIGHT BEING LINE OF SIGHT NOT
000430:                                                                                                  #  COMPUTED (R21)      BEING COMPUTED
000431: 26,2024     4740               LOSCMBIT           =        BIT12
000432:
000433:
000434:                                                                                                  #                                BIT 11 FLAG 2             (S)
000435: 26,2024                        STEERSW            =        034D                                  #  SUFFICIENT THRUST   INSUFFICIENT THRUST
000436: 26,2024     4741               STEERBIT           =        BIT11                                 #  IS PRESENT          IS PRESENT
000437:
000438:
000439:                                                                                                  #                                BIT 10 FLAG 2             (S)
000440:
000441:
000442:                                                                                                  #                                BIT 9 FLAG 2              (S)
000443: 26,2024                        IMPULSW            =        036D                                  #  MINIMUM IMPULSE     STEERING BURN (NO
000444:                                                                                                  #  BURN (CUTOFF TIME   CUTOFF TIME YET
000445: 26,2024     4743               IMPULBIT           =        BIT9                                  #  SPECIFIED)          AVAILABLE)
000446:
000447:
000448:                                                                                                  #                                BIT 8 FLAG 2              (S)
000449: 26,2024                        XDELVFLG           =        037D                                  #  EXTERNAL DELTAV VG  LAMBERT (AIMPOINT)
000450: 26,2024     4744               XDELVBIT           =        BIT8                                  #  COMPUTATION         VG COMPUTATION
000451:
000452:
000453:                                                                                                  #                                BIT 7 FLAG 2              (S)
000454: 26,2024                        ETPIFLAG           =        038D                                  #  ELEVATION ANGLE     TPI TIME SUPPLIED
000455:                                                                                                  #  SUPPLIED FOR        FOR P34,74 TO COMPUT
000456: 26,2024     4745               ETPIBIT            =        BIT7                                  #  P34,74              ELEVATION
000457:
000458:
000459:                                                                                                  #                                BIT 6 FLAG 2              (S)
000460: 26,2024                        FINALFLG           =        039D                                  #  LAST PASS THROUGH   INTERIM PASS THROUGH
000461:                                                                                                  #  RENDEZVOUS PROGRAM  RENDEZVOUS PROGRAM
000462: 26,2024     4746               FINALBIT           =        BIT6                                  #  COMPUTATIONS        COMPUTATIONS
000463:
000464:
000465:                                                                                                  #                                BIT 5 FLAG 2              (S)
000466: 26,2024                        AVFLAG             =        040D                                  #  LEM IS ACTIVE       CSM IS ACTIVE
000467: 26,2024     4747               AVFLBIT            =        BIT5                                  #  VEHICLE             VEHICLE
000468:
000469:


000471:                                                                                                  #                                BIT 4 FLAG 2              (S)
000472: 26,2024                        PFRATFLG           =        041D                                  #  PREFERRED ATTITUDE  PREFERRED ATTITUDE
000473: 26,2024     4750               PFRATBIT           =        BIT4                                  #  COMPUTED            NOT COMPUTED
000474:
000475:
000476:                                                                                                  #                                BIT 3 FLAG 2              (S)
000477: 26,2024                        CALCMAN3           =        042D                                  #  NO FINAL ROLL       FINAL ROLL IS
000478: 26,2024     4751               CALC3BIT           =        BIT3                                  #                      NECESSARY
000479:
000480:
000481:                                                                                                  #                                BIT 2 FLAG 2              (S)
000482: 26,2024                        CALCMAN2           =        043D                                  #  PERFORM MANEUVER    BYPASS STARTING
000483: 26,2024     4752               CALC2BIT           =        BIT2                                  #  STARTING PROCEDURE  PROCEDURE
000484:
000485:
000486:                                                                                                  #                                BIT 1 FLAG 2              (S)
000487: 26,2024                        NODOFLAG           =        044D                                  #  V37 NOT PERMITTED   V37 PERMITTED
000488: 26,2024     4753               NODOBIT            =        BIT1
000489:
000490:
000491: 26,2024     0077               FLAGWRD3           =        STATE      +3                         #  (045-059)
000492:
000493:                                                                                                  #  (SET)               (RESET)
000494:
000495:                                                                                                  #                                BIT 15 FLAG 3
000496: 26,2024                        POOHFLAG           =        045D                                  #  INHIBIT BACKWARDS   ALLOW BACKWARDS
000497: 26,2024     4735               POOHBIT            =        BIT15                                 #  INTEGRATION         INTEGRATION
000498:
000499:
000500:                                                                                                  #                                BIT 14 FLAG 3             (S)
000501: 26,2024                        GLOKFAIL           =        046D                                  #  GIMBAL LOCK HAS     NOT IN GIMBAL LOCK
000502: 26,2024     4736               GLOKFBIT           =        BIT14                                 #  OCCURRED
000503:
000504:                                                                                                  #                                BIT 13 FLAG 3             *** PROTECTED FROM FRESH START ***
000505: 26,2024                        REFSMFLG           =        047D                                  #  REFSMMAT GOOD       REFSMMAT NO GOOD
000506: 26,2024     4737               REFSMBIT           =        BIT13
000507:
000508:
000509:                                                                                                  #                                BIT 12 FLAG 3             (S)
000510: 26,2024                        LUNAFLAG           =        048D                                  #  LUNAR LAT-LONG      EARTH LAT-LONG
000511: 26,2024     4740               LUNABIT            =        BIT12
000512:
000513:
000514:                                                                                                  #                                BIT 11 FLAG 3             (L)
000515: 26,2024                        NODOP07            =        049D                                  #  SYSTEM TESTS        SYSTEM TESTS
000516: 26,2024     4741               NOP07BIT           =        BIT11                                 #  NOT ALLOWED         ALLOWED
000517:
000518:
000519:                                                                                                  #                                BIT 10 FLAG 3             (S)


000521: 26,2024                        VFLAG              =        050D                                  #  LESS THAN TWO STARS TWO STARS IN FIELD
000522: 26,2024     4742               VFLAGBIT           =        BIT10                                 #  IN FIELD OF VIEW    OF VIEW
000523:
000524:
000525:                                                                                                  #                                BIT 9 FLAG 3              (S)
000526: 26,2024                        R04FLAG            =        051D                                  #  R04 RUNNING         R04 NOT RUNNING
000527: 26,2024     4743               R04FLBIT           =        BIT9
000528:
000529:
000530:                                                                                                  #                                BIT 8 FLAG 3              (S)
000531: 26,2024                        PRECIFLG           =        052D                                  #  NORMAL INTEGRATION  ENGAGES 4-TIME STEP
000532:                                                                                                  #  IN POO              (POO) LOGIC IN INTE-
000533: 26,2024     4744               PRECIBIT           =        BIT8                                  #                      GRATION
000534:
000535:
000536:                                                                                                  #                                BIT 7 FLAG 3              (S)
000537: 26,2024                        CULTFLAG           =        053D                                  #  STAR OCCULTED       STAR NOT OCCULTED
000538: 26,2024     4745               CULTBIT            =        BIT7
000539:
000540:
000541:                                                                                                  #                                BIT 6 FLAG 3              (S)
000542: 26,2024                        ORBWFLAG           =        054D                                  #  W MATRIX VALID FOR  W MATRIX INVALID FOR
000543: 26,2024     4746               ORBWFBIT           =        BIT6                                  #  ORBITAL NAVIGATION  ORBITAL NAVIGATION
000544:
000545:
000546:                                                                                                  #                                BIT 5 FLAG 3              (S)
000547: 26,2024                        STATEFLG           =        055D                                  #  PERMANENT STATE     PERMANENT STATE
000548: 26,2024     4747               STATEBIT           =        BIT5                                  #  VECTOR UPDATED      VECTOR NOT UPDATED
000549:
000550:
000551:                                                                                                  #                                BIT 4 FLAG 3              (S)
000552: 26,2024                        INTYPFLG           =        056D                                  #  CONIC INTEGRATION   ENCKE INTEGRATION
000553: 26,2024     4750               INTYPBIT           =        BIT4
000554:
000555:
000556:                                                                                                  #                                BIT 3 FLAG 3              (S)
000557: 26,2024                        VINTFLAG           =        057D                                  #  CSM STATE VECTOR    LEM STATE VECTOR
000558: 26,2024     4751               VINTFBIT           =        BIT3                                  #  BEING INTEGRATED    BEING INTEGRATED
000559:
000560:
000561:                                                                                                  #                                BIT 2 FLAG 3              (S)
000562: 26,2024                        D6OR9FLG           =        058D                                  #  DIMENSION OF W IS 9 DIMENSION OF W IS 6
000563: 26,2024     4752               D6OR9BIT           =        BIT2                                  #  FOR INTEGRATION     FOR INTEGRATION
000564:
000565:
000566:                                                                                                  #                                BIT 1 FLAG 3              (S)
000567: 26,2024                        DIM0FLAG           =        059D                                  #  W MATRIX IS TO BE   W MATRIX IS NOT TO
000568: 26,2024     4753               DIM0BIT            =        BIT1                                  #  USED                BE USED
000569:
000570:


000572: 26,2024     0100               FLAGWRD4           =        STATE      +4                         #  (060-074)
000573:
000574:                                                                                                  #  (SET)               (RESET)
000575:
000576:                                                                                                  #                                BIT 15 FLAG 4             (S)
000577: 26,2024                        MRKIDFLG           =        060D                                  #  MARK DISPLAY IN     NO MARK DISPLAY IN
000578: 26,2024     4735               MRKIDBIT           =        BIT15                                 #  ENDIDLE             ENDIDLE
000579:
000580:
000581:                                                                                                  #                                BIT 14 FLAG 4             (S)
000582: 26,2024                        PRIODFLG           =        061D                                  #  PRIORITY DISPLAY IN NO PRIORITY DISPLAY
000583: 26,2024     4736               PRIODBIT           =        BIT14                                 #  ENDIDLE             IN ENDIDLE
000584:
000585:
000586:                                                                                                  #                                BIT 13 FLAG 4             (S)
000587: 26,2024                        NRMIDFLG           =        062D                                  #  NORMAL DISPLAY IN   NO NORMAL DISPLAY
000588: 26,2024     4737               NRMIDBIT           =        BIT13                                 #  ENDIDLE             IN ENDIDLE
000589:
000590:
000591:                                                                                                  #                                BIT 12 FLAG 4             (S)
000592: 26,2024                        PDSPFLAG           =        063D                                  #  P20 SETS SO AS TO   LEAVE AS NORMAL DISP
000593:                                                                                                  #  TURN A NORMAL DIS-
000594: 26,2024     4740               PDSPFBIT           =        BIT12                                 #  PLAY INTO A PRIORITY
000595:                                                                                                  #  DISPLAY IN R60
000596:
000597:
000598:                                                                                                  #                                BIT 11 FLAG 4             (S)
000599: 26,2024                        MWAITFLG           =        064D                                  #  HIGHER PRIORITY     NO HIGHER PRIORITY
000600:                                                                                                  #  DISPLAY OPERATING   DISPLAY OPERATING
000601: 26,2024     4741               MWAITBIT           =        BIT11                                 #  WHEN MARK DISPLAY   WHEN MARK DISPLAY
000602:                                                                                                  #  INITIATED           INITIATED
000603:
000604:                                                                                                  #                                BIT 10 FLAG 4             (S)
000605: 26,2024                        NWAITFLG           =        065D                                  #  HIGHER PRIORITY     NO HIGHER PRIORITY
000606:                                                                                                  #  DISPLAY OPERATING   DISPLAY OPERATING
000607: 26,2024     4742               NWAITBIT           =        BIT10                                 #  WHEN NORMAL         WHEN NORMAL DISPLAY
000608:                                                                                                  #  DISPLAY INITIATED   INITIATED
000609:
000610:                                                                                                  #                                BIT 9 FLAG 4              (S)
000611: 26,2024                        MRKNVFLG           =        066D                                  #  ASTRONAUT USING     ASTRONAUT NOT USING
000612:                                                                                                  #  KEYBOARD WHEN MARK  KEYBOARD WHEN MARK
000613: 26,2024     4743               MRKNVBIT           =        BIT9                                  #  DISPLAY INITIATED   DISPLAY INITIATED
000614:
000615:
000616:                                                                                                  #                                BIT 8 FLAG 4              (S)
000617: 26,2024                        NRMNVFLG           =        067D                                  #  ASTRONAUT USING     ASTRONAUT NOT USING
000618:                                                                                                  #  KEYBOARD WHEN       KEYBOARD WHEN
000619: 26,2024     4744               NRMNVBIT           =        BIT8                                  #  NORMAL DISPLAY      NORMAL DISPLAY
000620:                                                                                                  #  INITIATED           INITIATED
000621:


000623:                                                                                                  #                                BIT 7 FLAG 4              (S)
000624: 26,2024                        PRONVFLG           =        068D                                  #  ASTRONAUT USING     ASTRONAUT NOT USING
000625:                                                                                                  #  KEYBOARD WHEN       KEYBOARD WHEN
000626: 26,2024     4745               PRONVBIT           =        BIT7                                  #  PRIORITY DISPLAY    PRIORITY DISPLAY
000627:                                                                                                  #  INITIATED           INITIATED
000628:
000629:                                                                                                  #                                BIT 6 FLAG 4              (S)
000630: 26,2024                        PINBRFLG           =        069D                                  #  ASTRONAUT HAS       ASTRONAUT HAS NOT
000631:                                                                                                  #  INTERFERED WITH     INTERFERED WITH
000632: 26,2024     4746               PINBRBIT           =        BIT6                                  #  EXISTING DISPLAY    EXISTING DISPLAY
000633:
000634:
000635:                                                                                                  #                                BIT 5 FLAG 4              (S)
000636: 26,2024                        MRUPTFLG           =        070D                                  #  MARK DISPLAY        MARK DISPLAY NOT
000637:                                                                                                  #  INTERRUPTED BY      INTERRUPTED BY
000638: 26,2024     4747               MRUPTBIT           =        BIT5                                  #  PRIORITY DISPLAY    PRIORITY DISPLAY
000639:
000640:
000641:                                                                                                  #                                BIT 4 FLAG 4              (S)
000642: 26,2024                        NRUPTFLG           =        071D                                  #  NORMAL DISPLAY      NORMAL DISPLAY NOT
000643:                                                                                                  #  INTERRUPTED BY      INTERRUPTED BY
000644: 26,2024     4750               NRUPTBIT           =        BIT4                                  #  PRIORITY OR MARK    PRIORITY OR MARK
000645:                                                                                                  #  DISPLAY             DISPLAY
000646:
000647:                                                                                                  #                                BIT 3 FLAG 4              (S)
000648: 26,2024                        MKOVFLAG           =        072D                                  #  MARK DISPLAY OVER   NO MARK DISPLAY OVER
000649: 26,2024     4751               MKOVBIT            =        BIT3                                  #  NORMAL              NORMAL
000650:
000651:                                                                                                  #                                BIT 2 FLAG 4
000652:                                                                                                  #                =               073D
000653:
000654:
000655:
000656:                                                                                                  #                                BIT 1 FLAG 4              (S)
000657: 26,2024                        XDSPFLAG           =        074D                                  #  MARK DISPLAY NOT    NO SPECIAL MARK
000658: 26,2024     4753               XDSPBIT            =        BIT1                                  #  TO BE INTERRUPTED   INFORMATION
000659:
000660:
000661: 26,2024     0101               FLAGWRD5           =        STATE      +5                         #  (075-089)
000662:                                                                                                  #  (SET)               (RESET)
000663:
000664:                                                                                                  #                                BIT 15 FLAG 5             (S)
000665: 26,2024                        DSKYFLAG           =        075D                                  #  DISPLAYS SENT TO    NO DISPLAYS TO DSKY
000666: 26,2024     4735               DSKYFBIT           =        BIT15                                 #  DSKY
000667:
000668:
000669:                                                                                                  #                                BIT 14 FLAG 5
000670:                                                                                                  #                =               076D
000671:                                                                                                  #                =               BIT14


000673:
000674:
000675:                                                                                                  #                                BIT 13 FLAG 5             (S,L)
000676: 26,2024                        SNUFFER            =        077D                                  #  U,V JETS DISABLED   U,V JETS ENABLED
000677:                                                                                                  #  DURING DPS          DURING DPS
000678: 26,2024     4737               SNUFFBIT           =        BIT13                                 #  BURNS (V65)         BURNS (V75)
000679:
000680:
000681:                                                                                                  #                                BIT 12 FLAG 5             (S)
000682: 26,2024                        NOTHROTL           =        078D                                  #  INHIBIT FULL        PERMIT FULL THROTTLE
000683: 26,2024     4740               NOTHRBIT           =        BIT12                                 #  THROTTLE
000684:
000685:
000686:                                                                                                  #                                BIT 11 FLAG 5             (S,L)
000687: 26,2024                        R77FLAG            =        079D                                  #  R77 IS ON,          R77 IS NOT ON.
000688:                                                                                                  #  SUPPRESS ALL RADAR
000689:                                                                                                  #  ALARMS AND TRACKER
000690: 26,2024     4741               R77FLBIT           =        BIT11                                 #  FAILS
000691:
000692:
000693:                                                                                                  #                                BIT 10 FLAG 5             (S)
000694: 26,2024                        RNGSCFLG           =        080D                                  #  SCALE CHANGE HAS    NO SCALE CHANGE HAS
000695:                                                                                                  #  OCCURRED DURING     OCCURRED DURING
000696: 26,2024     4742               RNGSCBIT           =        BIT10                                 #  RR READING          RR READING
000697:
000698:
000699:                                                                                                  #                                BIT 9 FLAG 5              (S)
000700: 26,2024                        DMENFLG            =        081D                                  #  DIMENSION OF W IS 9 DIMENSION OF W IS 6
000701: 26,2024     4743               DMENFBIT           =        BIT9                                  #  FOR INCORPORATION   FOR INCORPORATION
000702:
000703:
000704:                                                                                                  #                                BIT 8 FLAG 5              (S)
000705: 26,2024                        ZOOMFLAG           =        082D                                  #  THROTTLE-UP HAS     THROTTLE-UP HAS NOT
000706: 26,2024     4744               ZOOMBIT            =        BIT8                                  #  OCCURRED IN P63.    YET OCCURRED IN P63.
000707:
000708:
000709:                                                                                                  #                                BIT 7 FLAG 5              (S)
000710: 26,2024                        ENGONFLG           =        083D                                  #  ENGINE TURNED ON    ENGINE TURNED OFF
000711: 26,2024     4745               ENGONBIT           =        BIT7
000712:
000713:
000714:                                                                                                  #                                BIT 6 FLAG 5              (S)
000715: 26,2024                        3AXISFLG           =        084D                                  #  MANEUVER SPECIFIED  MANEUVER SPECIFIED
000716:                                                                                                  #  BY THREE AXES       BY ONE AXIS; R60
000717: 26,2024     4746               3AXISBIT           =        BIT6                                  #                      CALLS VECPOINT.
000718:
000719:
000720:                                                                                                  #                                BIT 5 FLAG 5
000721: 26,2024                        AORBSFLG           =        085D                                  #  PREFER PAXIS JET    PREFER PAXIS JET
000722: 26,2024     4747               AORBSYST           =        BIT5                                  #  PAIRS 7,15 AND 8,16  PAIRS 4,12 AND 3,11


000724:
000725:
000726:                                                                                                  #                                BIT 4 FLAG 5              (S)
000727: 26,2024                        NORRMON            =        086D                                  #  BYPASS RR GIMBAL    PERFORM
000728: 26,2024     4750               NORRMBIT           =        BIT4                                  #  MONITOR             RR GIMBAL MONITOR
000729:
000730:
000731:                                                                                                  #                                BIT 3 FLAG 5              (S)
000732: 26,2024                        SOLNSW             =        087D                                  #  LAMBERT DOES NOT    LAMBERT CONVERGES OR
000733:                                                                                                  #  CONVERGE,OR TIME-RADTIME-RADIUS NON
000734: 26,2024     4751               SOLNSBIT           =        BIT3                                  #  NEARLY CIRCULAR     CIRCULAR
000735:
000736:
000737:                                                                                                  #                                BIT 2 FLAG 5              (S)
000738: 26,2024                        MGLVFLAG           =        088D                                  #  LOCAL VERTICAL      MIDDLE GIMBAL ANGLE
000739:                                                                                                  #  COORDINATES         COMPUTED
000740: 26,2024     4752               MGLVFBIT           =        BIT2                                  #  COMPUTED
000741:
000742:
000743:                                                                                                  #                                BIT 1 FLAG 5              (S)
000744: 26,2024                        RENDWFLG           =        089D                                  #  W MATRIX VALID      W MATRIX INVALID
000745:                                                                                                  #  FOR RENDEZVOUS      FOR RENDEZVOUS
000746: 26,2024     4753               RENDWBIT           =        BIT1                                  #  NAVIGATION          NAVIGATION
000747:
000748:
000749: 26,2024     0102               FLAGWRD6           =        STATE      +6                         #  (090-104)
000750:
000751:                                                                                                  #  (SET)               (RESET)
000752:
000753:                                                                                                  #                                BIT 15 FLAG 6             (S)
000754: 26,2024                        S32.1F1            =        090D                                  #  DELTA V AT CSI TIME  DVT1 LESS THEN MAX
000755: 26,2024     4735               S32BIT1            =        BIT15                                 #  ONE EXCEEDS MAX
000756:
000757:
000758:                                                                                                  #                                BIT 14 FLAG 6             (S)
000759: 26,2024                        S32.1F2            =        091D                                  #  FIRST PASS OF       REITERATION OF
000760: 26,2024     4736               S32BIT2            =        BIT14                                 #  NEWTON ITERATION    NEWTON
000761:
000762:
000763:                                                                                                  #                                BIT 13 FLAG 6 (S)
000764: 26,2024                        S32.1F3A           =        092D                                  #  BIT 13 AND BIT 12 FUNCTION AS AN ORDERED
000765: 26,2024     4737               S32BIT3A           =        BIT13                                 #  PAIR (13,12) INDICATING THE POSSIBLE OC-
000766:                                                                                                  #  CURRANCE OF 2NEWTON ITERATIONS FOR S32.1
000767:                                                                                                  #  IN THE PROGRAM IN THE FOLLOWING ORDER:
000768:                                                                                                  #                                BIT 12 FLAG 6             (0,1) (I.E.BIT 13 RESET,BIT 12 SET)
000769: 26,2024                        S32.1F3B           =        093D                                  #       = FIRST NEWTON ITERATION BEING DONE
000770: 26,2024     4740               S32BIT3B           =        BIT12                                 #  (0,0)= FIRST PASS OF SECOND NEWT.ITERAT.
000771:                                                                                                  #  (1,1)= 50 FT/SEC STAGE OF SEC. NEWT.ITER
000772:                                                                                                  #  (1,0)= REMAINDER OF SECOND NEWTON ITERA.
000773:
000774:


000776:                                                                                                  #                                BIT 11 FLAG 6             (S)
000777:
000778:
000779:                                                                                                  #                                BIT 10 FLAG 6             (S)
000780: 26,2024                        GMBDRVSW           =        095D                                  #  TRIMGIMB OVER       TRIMGIMB NOT OVER
000781: 26,2024     4742               GMBDRBIT           =        BIT10
000782:
000783:
000784:                                                                                                  #                                BIT 9 FLAG 6
000785:                                                                                                  #                =               096D
000786:                                                                                                  #                =               BIT9
000787:
000788:
000789:                                                                                                  #                                BIT 8 FLAG 6              (S)
000790: 26,2024                        MUNFLAG            =        097D                                  #  SERVICER CALLS      SERVICER CALLS
000791: 26,2024     4744               MUNFLBIT           =        BIT8                                  #  MUNRVG              CALCRVG
000792:
000793:
000794:                                                                                                  #                                BIT 7 FLAG 6              (L)
000795: 26,2024                                           =        098D
000796: 26,2024                                           =        BIT7
000797:
000798:
000799:                                                                                                  #                                BIT 6 FLAG 6              (L)
000800: 26,2024                        REDFLAG            =        099D                                  #  LANDING SITE        LANDING SITE
000801:                                                                                                  #  REDESIGNATION       REDESIGNATION NOT
000802: 26,2024     4746               REDFLBIT           =        BIT6                                  #  PERMITTED           PERMITTED
000803:
000804:
000805:                                                                                                  #                                BIT 5 FLAG 6
000806:                                                                                                  #                =               100D
000807:
000808:
000809:                                                                                                  #                                BIT 4 FLAG 6
000810:                                                                                                  #                =               101D
000811:
000812:                                                                                                  #                                BIT 3 FLAG 6              (S)
000813: 26,2024                        NTARGFLG           =        102D                                  #  ASTRONAUT DID       ASTRONAUT DID NOT
000814:                                                                                                  #  OVERWRITE DELTA     OVERWRITE DELTA
000815: 26,2024     4751               NTARGBIT           =        BIT3                                  #  VELOCITY AT TPI     VELOCITY
000816:                                                                                                  #  OR TPM (P34,35)
000817:
000818:                                                                                                  #                                BIT 2 FLAG 6
000819: 26,2024                        AUXFLAG            =        103D                                  #  PROVIDING IDLEFLAG  SERVICER WILL SKIP
000820: 26,2024     4752               AUXFLBIT           =        BIT2                                  #  IS NOT SET, SERV-   DVMON ON ITS NEXT
000821:                                                                                                  #  ICER WILL EXERCISE  PASS EVEN IF THE
000822:                                                                                                  #  DVMON ON ITS NEXT   IDLEFLAG IS NOT SET.
000823:                                                                                                  #  PASS.               IT WILL THEN SET
000824:                                                                                                  #                      AUXFLAG.
000825:


000827:                                                                                                  #                                BIT 1 FLAG 6              (L)
000828: 26,2024                        ATTFLAG            =        104D                                  #  LEM ATTITUDE EXISTS NO LEM ATTITUDE
000829:                                                                                                  #  IN MOON-FIXED       AVAILABLE IN MOON-
000830: 26,2024     4753               ATTFLBIT           =        BIT1                                  #  COORDINATES         FIXED COORDINATES
000831:
000832:
000833: 26,2024     0103               FLAGWRD7           =        STATE      +7                         #  (105-119)
000834:
000835:                                                                                                  #  (SET)               (RESET)
000836:
000837:                                                                                                  #                                BIT 15 FLAG 7             (S)
000838: 26,2024                        ITSWICH            =        105D                                  #  P34;TPI TIME TO BE  TPI HAS BEEN
000839: 26,2024     4735               ITSWBIT            =        BIT15                                 #  COMPUTED            COMPUTED
000840:
000841:
000842:                                                                                                  #                                BIT 14 FLAG 7             (S)
000843: 26,2024                        MANUFLAG           =        106D                                  #  ATTITUDE MANEUVER   NO ATTITUDE MANEUVER
000844:                                                                                                  #  GOING DURING RR     DURING RR SEARCH
000845: 26,2024     4736               MANUFBIT           =        BIT14                                 #  SEARCH
000846:
000847:
000848:                                                                                                  #                                BIT 13 FLAG 7             (S)
000849: 26,2024                        IGNFLAG            =        107D                                  #  TIG HAS ARRIVED     TIG HAS NOT ARRIVED
000850: 26,2024     4737               IGNFLBIT           =        BIT13
000851:
000852:
000853:                                                                                                  #                                BIT 12 FLAG 7             (S)
000854: 26,2024                        ASTNFLAG           =        108D                                  #  ASTRONAUT HAS       ASTRONAUT HAS NOT
000855: 26,2024     4740               ASTNBIT            =        BIT12                                 #  OKAYED IGNITION     OKAYED IGNITION
000856:
000857:
000858:                                                                                                  #                                BIT 11 FLAG 7             (L)
000859: 26,2024                        SWANDISP           =        109D                                  #  LANDING ANALOG      LANDING ANALOG
000860: 26,2024     4741               SWANDBIT           =        BIT11                                 #  DISPLAYS ENABLED    DISPLAYS SUPPRESSED
000861:
000862:
000863:                                                                                                  #                                BIT 10 FLAG 7             (S)
000864: 26,2024                        NORMSW             =        110D                                  #  UNIT NORMAL INPUT   LAMBERT COMPUTES ITS
000865: 26,2024     4742               NORMSBIT           =        BIT10                                 #  TO LAMBERT          OWN UNIT NORMAL
000866:
000867:
000868:                                                                                                  #                                BIT 9 FLAG 7              (S)
000869: 26,2024                        RVSW               =        111D                                  #  DO NOT COMPUTE      COMPUTE FINAL STATE
000870:                                                                                                  #  FINAL STATE VECTOR  VECTOR IN TIME-THETA
000871: 26,2024     4743               RVSWBIT            =        BIT9                                  #  IN TIME-THETA
000872:
000873:
000874:                                                                                                  #                                BIT 8 FLAG 7              (S)
000875: 26,2024                        V67FLAG            =        112D                                  #  ASTRONAUT OVERWRITE  ASTRONAUT DOES NOT
000876:                                                                                                  #  W-MATRIX INITIAL    OVERWRITE W-MATRIX


000878: 26,2024     4744               V67FLBIT           =        BIT8                                  #  VALUES              INITIAL VALUES
000879:
000880:
000881:                                                                                                  #                                BIT 7 FLAG 7              (S)
000882: 26,2024                        IDLEFLAG           =        113D                                  #  NO DV MONITOR       CONNECT DV MONITOR
000883: 26,2024     4745               IDLEFBIT           =        BIT7
000884:
000885:
000886:                                                                                                  #                                BIT 6 FLAG 7              (S)
000887: 26,2024                        V37FLAG            =        114D                                  #  AVERAGEG (SERVICER) AVERAGEG (SERVICER)
000888: 26,2024     4746               V37FLBIT           =        BIT6                                  #  RUNNING             OFF
000889:
000890:
000891:                                                                                                  #                                BIT 5 FLAG 7              (S)
000892: 26,2024                        AVEGFLAG           =        115D                                  #  AVERAGEG (SERVICER) AVERAGEG (SERVICER)
000893: 26,2024     4747               AVEGFBIT           =        BIT5                                  #  DESIRED             NOT DESIRED
000894:
000895:
000896:                                                                                                  #                                BIT 4 FLAG 7              (S)
000897: 26,2024                        UPLOCKFL           =        116D                                  #  K-KBAR-K FAIL       NO K-KBAR-K FAIL
000898: 26,2024     4750               UPLOCBIT           =        BIT4
000899:
000900:
000901:                                                                                                  #                                BIT 3 FLAG 7              (S)
000902: 26,2024                        VERIFLAG           =        117D                                  #  CHANGED WHEN V33E OCCURS AT END OF P27
000903: 26,2024     4751               VERIFBIT           =        BIT3
000904:
000905:
000906:                                                                                                  #                                BIT 2 FLAG 7              (L,C)
000907: 26,2024                        V82EMFLG           =        118D                                  #  MOON VICINITY       EARTH VICINITY
000908: 26,2024     4752               V82EMBIT           =        BIT2
000909:
000910:
000911:                                                                                                  #                                BIT 1 FLAG 7              (S)
000912: 26,2024                        TFFSW              =        119D                                  #  CALCULATE TPERIGEE  CALCULATE TFF
000913: 26,2024     4753               TFFSWBIT           =        BIT1
000914:
000915:
000916: 26,2024     0104               FLAGWRD8           =        STATE      +8D                        #  (120-134)
000917:
000918:                                                                                                  #  (SET)               (RESET)
000919:
000920:                                                                                                  #                                BIT 15 FLAG 8             (S)
000921: 26,2024                        RPQFLAG            =        120D                                  #  RPQ NOT COMPUTED    RPQ COMPUTED
000922:                                                                                                  #  (RPQ = VECTOR BE-
000923: 26,2024     4735               RPQFLBIT           =        BIT15                                 #  TWEEN SECONDARY BODY
000924:                                                                                                  #  AND PRIMARY BODY
000925:
000926:
000927:                                                                                                  #                                BIT 14 FLAG 8


000929:                                                                                                  #                =               121D
000930:                                                                                                  #                =               BIT14
000931:
000932:
000933:                                                                                                  #                                BIT 13 FLAG 8             (S)
000934: 26,2024                        NEWIFLG            =        122D                                  #  FIRST PASS THROUGH  SUCCEEDING ITERATION
000935: 26,2024     4737               NEWIBIT            =        BIT13                                 #  INTEGRATION         OF INTEGRATION
000936:
000937:
000938:                                                                                                  #                                BIT 12 FLAG 8             *** PROTECTED FROM FRESH START ***
000939: 26,2024                        CMOONFLG           =        123D                                  #  PERMANENT CSM STATE PERMANENT CSM STATE
000940: 26,2024     4740               CMOONBIT           =        BIT12                                 #  IN LUNAR SPHERE     IN EARTH SPHERE
000941:
000942:
000943:                                                                                                  #                                BIT 11 FLAG 8             *** PROTECTED FROM FRESH START ***
000944: 26,2024                        LMOONFLG           =        124D                                  #  PERMANENT LM STATE  PERMANENT LM STATE
000945: 26,2024     4741               LMOONBIT           =        BIT11                                 #  IN LUNAR SPHERE     IN EARTH SPHERE
000946:
000947:
000948:                                                                                                  #                                BIT 10 FLAG 8             (L)
000949: 26,2024                        FLUNDISP           =        125D                                  #  CURRENT GUIDANCE    CURRENT GUIDANCE
000950: 26,2024     4742               FLUNDBIT           =        BIT10                                 #  DISPLAYS INHIBITED  DISPLAYS PERMITTED
000951:
000952:
000953:                                                                                                  #                                BIT 9 FLAG 8              (L)
000954:                                                                                                  #                =               126D
000955:                                                                                                  #                =               BIT9
000956:
000957:
000958:                                                                                                  #                                BIT 8 FLAG 8              *** PROTECTED FROM FRESH START ***
000959: 26,2024                        SURFFLAG           =        127D                                  #  LM ON LUNAR SURFACE LM NOT ON LUNAR
000960: 26,2024     4744               SURFFBIT           =        BIT8                                  #                      SURFACE
000961:
000962:
000963:                                                                                                  #                                BIT 7 FLAG 8              (S)
000964: 26,2024                        INFINFLG           =        128D                                  #  NO CONIC SOLUTION   CONIC SOLUTION
000965:                                                                                                  #  (CLOSURE THROUGH    EXISTS
000966: 26,2024     4745               INFINBIT           =        BIT7                                  #  INFINITY REQUIRED)
000967:
000968:
000969:                                                                                                  #                                BIT 6 FLAG 8              (S)
000970: 26,2024                        ORDERSW            =        129D                                  #  ITERATOR USES 2ND   ITERATOR USES 1ST
000971: 26,2024     4746               ORDERBIT           =        BIT6                                  #  ORDER MINIMUM MODE  ORDER STANDARD MODE
000972:
000973:
000974:                                                                                                  #                                BIT 5 FLAG 8              (S)
000975: 26,2024                        APSESW             =        130D                                  #  RDESIRED OUTSIDE    RDESIRED INSIDE
000976:                                                                                                  #  PERICENTER-APOCENTERPERICENTER-APOCENTER
000977: 26,2024     4747               APSESBIT           =        BIT5                                  #  RANGE IN TIME-RADI  RANGE IN TIME-RADIUS
000978:
000979:


000981:                                                                                                  #                                BIT 4 FLAG 8              (S)
000982: 26,2024                        COGAFLAG           =        131D                                  #  NO CONIC SOLUTION - CONIC SOLUTION
000983:                                                                                                  #  TOO CLOSE TO RECTI- EXISTS(COGA DOES NOT
000984: 26,2024     4750               COGAFBIT           =        BIT4                                  #  LINEAR(COGA OVRFLWS) OVERFLOW)
000985:
000986:
000987:                                                                                                  #                                BIT 3 FLAG 8
000988:                                                                                                  #                =               132D
000989:
000990:                                                                                                  #                                BIT 2 FLAG 8              (L)
000991: 26,2024                        INITALGN           =        133D                                  #  INITIAL PASS THRU    SECOND PASS THRU P57
000992: 26,2024     4752               INITABIT           =        BIT2                                  #  P57                 (CHECK RESET-MILLARD)
000993:
000994:
000995:                                                                                                  #                                BIT 1 FLAG 8              (S)
000996: 26,2024                        360SW              =        134D                                  #  TRANSFER ANGLE NEAR TRANSFER ANGLE NOT
000997: 26,2024     4753               360SWBIT           =        BIT1                                  #  360 DEGREES         NEAR 360 DEGREES
000998:
000999:
001000: 26,2024     0105               FLAGWRD9           =        STATE      +9D                        #  (135 - 149)
001001:
001002:                                                                                                  #  (SET)               (RESET)
001003:
001004:
001005:                                                                                                  #                                BIT 15 FLAG 9
001006:                                                                                                  #                =               135D
001007:                                                                                                  #                =               BIT15
001008:
001009:                                                                                                  #                                BIT 14 FLAG 9             (L)
001010: 26,2024                        FLVR               =        136D                                  #  VERTICAL RISE       NON-VERTICAL RISE
001011: 26,2024     4736               FLVRBIT            =        BIT14                                 #  (ASCENT GUIDANCE)
001012:
001013:
001014:                                                                                                  #                                BIT 13 FLAG 9
001015: 26,2024                        P7071FLG           =        137D                                  #  P70 OR P71 IS USING  P12 IS USING THE
001016: 26,2024     4737               P7071BIT           =        BIT13                                 #  ASCENT GUID. EQS.   ASCENT GUID. EQS.
001017:
001018:
001019:                                                                                                  #                                BIT 12 FLAG 9             (L)
001020: 26,2024                        FLPC               =        138D                                  #  NO POSITION CONTROL  POSITION CONTROL
001021: 26,2024     4740               FLPCBIT            =        BIT12                                 #  (ASCENT GUIDANCE)
001022:
001023:
001024:                                                                                                  #                                BIT 11 FLAG 9             (L)
001025: 26,2024                        FLPI               =        139D                                  #  PRE-IGNITION PHASE  REGULAR GUIDANCE
001026: 26,2024     4741               FLPIBIT            =        BIT11                                 #  (ASCENT GUIDANCE)
001027:
001028:
001029:                                                                                                  #                                BIT 10 FLAG 9             (L)
001030: 26,2024                        FLRCS              =        140D                                  #  RCS INJECTION MODE  MAIN ENGINE MODE


001032: 26,2024     4742               FLRCSBIT           =        BIT10                                 #  (ASCENT GUIDANCE)
001033:
001034:
001035:                                                                                                  #                                BIT 9 FLAG 9              (L)
001036: 26,2024                        LETABORT           =        141D                                  #  ABORT PROGRAMS      ABORT PROGRAMS
001037: 26,2024     4743               LETABBIT           =        BIT9                                  #  ARE ENABLED         ARE NOT ENABLED
001038:
001039:
001040:                                                                                                  #                                BIT 8 FLAG 9              (L)
001041: 26,2024                        FLAP               =        142D                                  #  APS CONTINUED ABORT  APS ABORT IS NOT A
001042:                                                                                                  #  AFTER DPS STAGING   CONTINUATION
001043: 26,2024     4744               FLAPBIT            =        BIT8                                  #  (ASCENT GUIDANCE)
001044:
001045:
001046:                                                                                                  #                                BIT 7 FLAG 9              (L)
001047: 26,2024                        ABTTGFLG           =        143D                                  #  J2,K2 PARAMETERS    J1,K1 PARAMETERS
001048: 26,2024     4745               ABTTGBIT           =        BIT7                                  #  USED FOR ABORT      USED FOR ABORT
001049:                                                                                                  #  TARGETING           TARGETING
001050:
001051:                                                                                                  #                                BIT 6 FLAG 9              (L)
001052: 26,2024                        ROTFLAG            =        144D                                  #  P70 AND P71 WILL    P70 AND P71 WILL NOT
001053: 26,2024     4746               ROTFLBIT           =        BIT6                                  #  FORCE VEHICLE       FORCE VEHICLE
001054:                                                                                                  #  ROTATION IN THE     ROTATION IN THE
001055:                                                                                                  #  PREFERRED DIRECTION. PREFERRED DIRECTION
001056:
001057:                                                                                                  #                                BIT 5 FLAG 9              (S)
001058: 26,2024                        QUITFLAG           =        145D                                  #  DISCONTINUE INTEGR. CONTINUE INTEGRATION
001059: 26,2024     4747               QUITBIT            =        BIT5
001060:
001061:
001062:                                                                                                  #                                BIT 4 FLAG 9
001063:                                                                                                  #                =               146D
001064:                                                                                                  #                =               BIT4
001065:
001066:
001067:                                                                                                  #                                BIT 3 FLAG 9              (L)
001068: 26,2024                        MID1FLAG           =        147D                                  #  INTEGRATE TO TDEC   INTEGRATE TO THE
001069: 26,2024     4751               MID1FBIT           =        BIT3                                  #                      THEN-PRESENT TIME
001070:
001071:
001072:                                                                                                  #                                BIT 2 FLAG 9              (L)
001073: 26,2024                        MIDAVFLG           =        148D                                  #  INTEGRATION ENTERED INTEGRATION WAS
001074:                                                                                                  #  FROM ONE OF MIDTOAV NOT ENTERED VIA
001075: 26,2024     4752               MIDAVBIT           =        BIT2                                  #  PORTALS             MIDTOAV
001076:
001077:                                                                                                  #                                BIT 1 FLAG 9              (S)
001078: 26,2024                        AVEMIDSW           =        149D                                  #  AVETOMID CALLING    NO AVETOMID W INTEGR
001079:                                                                                                  #  FOR W.MATRIX INTEGR ALLOW SET UP RN,VN,
001080: 26,2024     4753               AVEMDBIT           =        BIT1                                  #  DONT WRITE OVER RN, PIPTIME
001081:                                                                                                  #  VN,PIPTIME


001083:
001084:
001085: 26,2024     0106               RASFLAG            EQUALS   FLGWRD10                              #  WAS ONLY AN INSTALL- ERASTALL FLAG
001086:
001087:
001088: 26,2024     0106               FLGWRD10           =        STATE      +10D                       #  (150 - 164)
001089:
001090:                                                                                                  #  (SET)               (RESET)
001091:
001092:                                                                                                  #                                BIT 15 FLAG 10
001093:                                                                                                  #                =               150D
001094:
001095:
001096:                                                                                                  #                                BIT 14 FLAG 10            (L,C)
001097: 26,2024                        INTFLAG            =        151D                                  #  INTEGRATION IN      INTEGRATION NOT IN
001098: 26,2024     4736               INTFLBIT           =        BIT14                                 #  PROGRESS            PROGRESS
001099:
001100:
001101:                                                                                                  #                                BIT 13 FLAG 10            (S,L)
001102: 26,2024                        APSFLAG            =        152D                                  #  ASCENT STAGE        DESCENT STAGE
001103: 26,2024     4737               APSFLBIT           =        BIT13                                 #  ***PROTECTED FROM FRESH START ***
001104:
001105:
001106:                                                                                                  #                                BIT 12 FLAG 10
001107:                                                                                                  #                =               153D
001108:
001109:
001110:                                                                                                  #                                BIT 11 FLAG 10
001111:                                                                                                  #                =               154D
001112:
001113:
001114:                                                                                                  #                                BIT 10 FLAG 10
001115:                                                                                                  #                =               155D
001116:
001117:
001118:                                                                                                  #                                BIT  9 FLAG 10
001119:                                                                                                  #                =               156D
001120:
001121:
001122:                                                                                                  #                                BIT  8 FLAG 10
001123:                                                                                                  #                =               157D
001124:
001125:
001126:                                                                                                  #                                BIT 7 FLAG 10             (L,C)
001127: 26,2024                        REINTFLG           =        158D                                  #  INTEGRATION ROUTINE INTEGRATION ROUTINE
001128: 26,2024     4745               REINTBIT           =        BIT7                                  #  TO BE RESTARTED     NOT TO BE RESTARTED
001129:
001130:
001131:                                                                                                  #                                BIT  6 FLAG 10
001132:                                                                                                  #                =               159D


001134:
001135:
001136:                                                                                                  #                                BIT  5 FLAG 10
001137:                                                                                                  #                =               160D
001138:
001139:
001140:                                                                                                  #                                BIT  4 FLAG 10
001141:                                                                                                  #                =               161D
001142:
001143:
001144:                                                                                                  #                                BIT  3 FLAG 10
001145:                                                                                                  #                =               162D
001146:
001147:
001148:                                                                                                  #                                BIT  2 FLAG 10
001149:                                                                                                  #                =               163D
001150:
001151:
001152:                                                                                                  #                                BIT 1 FLAG 10
001153:                                                                                                  #                =               164D
001154:
001155:
001156:
001157:
001158:
001159: 26,2024     0107               FLGWRD11           =        STATE      +11D                       #  (165 - 179)
001160:
001161:                                                                                                  #  (SET)               (RESET)
001162:
001163:                                                                                                  #                                BIT 15 FLAG 11            (L)(R12)
001164: 26,2024                        LRBYPASS           =        165D                                  #  BYPASS ALL LANDING  DO NOT BYPASS LR
001165: 26,2024     4735               LRBYBIT            =        BIT15                                 #  RADAR UPDATES       UPDATES
001166:
001167:
001168:                                                                                                  #                                BIT 14 FLAG 11
001169: 26,2024                        VFAILFLG           =        166D                                  #  LANDING RADAR VEL   LANDING RADAR VEL
001170: 26,2024     4736               VFAILBIT           =        BIT14                                 #  FAILED REAS TEST    PASS REAS TEST
001171:
001172:
001173:                                                                                                  #                                BIT 13 FLAG 11
001174: 26,2024                        HFAILFLG           =        167D                                  #  LANDING RADAR ALT   LANDING RADAR VEL
001175: 26,2024     4737               HFAILBIT           =        BIT13                                 #  FAILED REAS TEST    PASS REAS TEST
001176:
001177:
001178:                                                                                                  #                                BIT 12 FLAG 11            (L)(R12)
001179: 26,2024                        VXINH              =        168D                                  #  IF Z VELOCITY DATA  UPDATE X AXIS
001180:                                                                                                  #  UNREASONABLE,       VELOCITY
001181: 26,2024     4740               VXINHBIT           =        BIT12                                 #  BYPASS X VELOCITY
001182:                                                                                                  #  UPDATE ON NEXT PASS
001183:


001185:                                                                                                  #                                BIT 11 FLAG 11            (L)(R12)
001186: 26,2024                        PSTHIGAT           =        169D                                  #  PAST HIGATE         PREHIGATE
001187: 26,2024     4741               PSTHIBIT           =        BIT11
001188:
001189:
001190:                                                                                                  #                                BIT 10 FLAG 11            (L)(R12)
001191: 26,2024                        NOLRREAD           =        170D                                  #  LANDING RADAR       LR NOT REPOSITIONING
001192:                                                                                                  #  REPOSITIONING;
001193: 26,2024     4742               NOLRRBIT           =        BIT10                                 #  BYPASS UPDATE
001194:
001195:
001196:                                                                                                  #                                BIT 9 FLAG 11             (L)(R12)
001197: 26,2024                        XORFLG             =        171D                                  #  BELOW LIMIT         ABOVE LIMIT DO
001198:                                                                                                  #  INHIBIT X AXIS      NOT INHIBIT
001199: 26,2024     4743               XORFLBIT           =        BIT9                                  #  OVERRIDE
001200:
001201:
001202:                                                                                                  #                                BIT 8 FLAG 11
001203: 26,2024                        LRINH              =        172D                                  #  LANDING RADAR UP-   LR UPDATES INHIBITED
001204: 26,2024     4744               LRINHBIT           =        BIT8                                  #  DATES PERMITTED     BY ASTRONAUT
001205:                                                                                                  #  BY ASTRONAUT
001206:
001207:
001208:                                                                                                  #                                BIT 7 FLAG 11             (L)(R12)
001209: 26,2024                        VELDATA            =        173D                                  #  LR VELOCITY         LR VELOCITY MEASURE
001210: 26,2024     4745               VELDABIT           =        BIT7                                  #  MEASUREMENT MADE    NOT MADE
001211:
001212:
001213:                                                                                                  #                                BIT 6 FLAG 11
001214:                                                                                                  #                =               174D
001215:                                                                                                  #                =               BIT6
001216:
001217:
001218:                                                                                                  #                                BIT 5 FLAG 11
001219:                                                                                                  #                =               175D
001220:                                                                                                  #                =               BIT5
001221:
001222:
001223:                                                                                                  #                                BIT 4 FLAG 11             (L)(R12)
001224: 26,2024                        RNGEDATA           =        176D                                  #  LR ALTITUDE         LR ALTITUDE MEASURE
001225: 26,2024     4750               RNGEDBIT           =        BIT4                                  #  MEASUREMENT MADE    NOT MADE
001226:
001227:
001228:                                                                                                  #                                BIT 3 FLAG 11
001229:                                                                                                  #                =               177D
001230:                                                                                                  #                =               BIT3
001231:
001232:
001233:                                                                                                  #                                BIT 2 FLAG 11             (L)(R12)


001235: 26,2024                        VFLSHFLG           =        178D                                  #  LR VELOCITY FAIL    LR VEL FAIL LAMP
001236: 26,2024     4752               VFLSHBIT           =        BIT2                                  #  LAMP SHOULD BE      SHOULDN'T FLASH
001237:                                                                                                  #  FLASHING
001238:
001239:
001240:                                                                                                  #                                BIT 1 FLAG 11             (L)(R12)
001241: 26,2024                        HFLSHFLG           =        179D                                  #  LR ALTITUDE FAIL    LR ALTITUDE FAIL
001242: 26,2024     4753               HFLSHBIT           =        BIT1                                  #  LAMP SHOULD BE      LAMP SHOULD NOT BE
001243:                                                                                                  #  FLASHING            FLASHING
001244:
001245:
001246: 26,2024     0110               RADMODES           EQUALS   FLGWRD12                              #  RADAR FLAG WORD
001247:
001248:
001249: 26,2024     0110               FLGWRD12           =        STATE      +12D                       #  (180 - 194)     WAS RADMODES
001250:
001251:                                                                                                  #  (SET)               (RESET)
001252:
001253:                                                                                                  #                                BIT 15 FLAG 12
001254: 26,2024                        CDESFLAG           =        180D                                  #  CONTINUOUS DESIG-   LGC CHECKS FOR LOCK-
001255: 26,2024     4735               CDESBIT            =        BIT15                                 #  NATE. LGC COMMANDS  ON WHEN ANTENNA
001256:                                                                                                  #  RR REGARDLESS OF    BEING DESIGNATED
001257:                                                                                                  #  LOCK-ON
001258:
001259:
001260:                                                                                                  #                                BIT 14 FLAG 12
001261: 26,2024                        REMODFLG           =        181D                                  #  CHANGE IN ANTENNA   NO REMODE REQUESTED
001262: 26,2024     4736               REMODBIT           =        BIT14                                 #  MODE BEEN REQUESTED OR OCCURRING
001263:                                                                                                  #  I.E., REMODE
001264:
001265:
001266:                                                                                                  #                                BIT 13 FLAG 12
001267: 26,2024                        RCDU0FLG           =        182D                                  #  RR CDU'S BEING      RR CDU'S NOT BEING
001268: 26,2024     4737               RCDU0BIT           =        BIT13                                 #  ZEROED              ZEROED
001269:
001270:
001271:                                                                                                  #                                BIT 12 FLAG 12
001272: 26,2024                        ANTENFLG           =        183D                                  #  RR ANTENNA MODE IS  RR ANTENNA IN MODE 1
001273: 26,2024     4740               ANTENBIT           =        BIT12                                 #  MODE 2
001274:
001275:
001276:                                                                                                  #                                BIT 11 FLAG 12
001277: 26,2024                        REPOSMON           =        184D                                  #  REPOSITION MONITOR. NO REPOSITION TAKING
001278: 26,2024     4741               REPOSBIT           =        BIT11                                 #  RR REPOSITION IS    PLACE
001279:                                                                                                  #  TAKING PLACE
001280:
001281:
001282:                                                                                                  #                                BIT 10 FLAG 12
001283: 26,2024                        DESIGFLG           =        185D                                  #  RR DESIGNATE        RR DESIGNATE NOT
001284: 26,2024     4742               DESIGBIT           =        BIT10                                 #  REQUESTED OR IN     REQUESTED OR IN


001286:                                                                                                  #  PROGRESS            PROGRESS
001287:
001288:
001289:                                                                                                  #                                BIT 9 FLAG 12
001290: 26,2024                        ALTSCALE           =        186D                                  #  LR ALTITUDE READING LR ALTITUDE READING
001291: 26,2024     4743               ALTSCBIT           =        BIT9                                  #  IS ON HIGH SCALE    IS ON LOW SCALE
001292:
001293:
001294:                                                                                                  #                                BIT 8 FLAG 12
001295: 26,2024                        LRVELFLG           =        187D                                  #  LR VELOCITY DATA    NO LR VELOCITY DATA
001296: 26,2024     4744               LRVELBIT           =        BIT8                                  #  FAIL                FAIL
001297:
001298:
001299:                                                                                                  #                                BIT 7 FLAG 12
001300: 26,2024                        RCDUFAIL           =        188D                                  #  RR CDU FAIL HAS     RR CDU FAIL OCCURRED
001301: 26,2024     4745               RCDUFBIT           =        BIT7                                  #  NOT OCCURRED
001302:
001303:
001304:                                                                                                  #                                BIT 6 FLAG 12
001305: 26,2024                        LRPOSFLG           =        189D                                  #  LANDING RADAR       LR POSITION 1
001306: 26,2024     4746               LRPOSBIT           =        BIT6                                  #  POSITION 2
001307:
001308:
001309:                                                                                                  #                                BIT 5 FLAG 12
001310: 26,2024                        LRALTFLG           =        190D                                  #  LR ALTITUDE DATA    NO LR ALTITUDE DATA
001311: 26,2024     4747               LRALTBIT           =        BIT5                                  #  FAIL. COULD NOT BE  FAIL
001312:                                                                                                  #  READ SUCCESSFULLY.
001313:
001314:
001315:                                                                                                  #                                BIT 4 FLAG 12
001316: 26,2024                        RRDATAFL           =        191D                                  #  RR DATA FAIL.       NO RR DATA FAIL.
001317: 26,2024     4750               RRDATABT           =        BIT4                                  #  DATA COULD NOT BE
001318:                                                                                                  #  READ SUCCESSFULLY
001319:
001320:
001321:                                                                                                  #                                BIT 3 FLAG 12
001322: 26,2024                        RRRSFLAG           =        192D                                  #  RR RANGE READING    RR RANGE READING ON
001323: 26,2024     4751               RRRSBIT            =        BIT3                                  #  ON THE HIGH SCALE   THE LOW SCALE
001324:
001325:
001326:                                                                                                  #                                BIT 2 FLAG 12
001327: 26,2024                        AUTOMODE           =        193D                                  #  RR NOT IN AUTO MODE. RR IN AUTO MODE
001328: 26,2024     4752               AUTOMBIT           =        BIT2                                  #  AUTO MODE DISCRETE
001329:                                                                                                  #  IS NOT PRESENT
001330:
001331:
001332:                                                                                                  #                                BIT 1 FLAG 12
001333: 26,2024                        TURNONFL           =        194D                                  #  RR TURN-ON SEQUENCE NO RR TURN-ON
001334: 26,2024     4753               TURNONBT           =        BIT1                                  #  IN PROGRESS. (ZERO  SEQUENCE IN PROGRESS
001335:                                                                                                  #  CDU'S, FIX ANTENNA


001337:                                                                                                  #  MODE)
001338:
001339:
001340: 26,2024     0111               DAPBOOLS           EQUALS   FLGWRD13                              #  DIGITAL AUTOPILOT FLAGWORD
001341:
001342:
001343: 26,2024     0111               FLGWRD13           =        STATE      +13D                       #  (195 - 209)     WAS DAPBOOLS
001344:
001345:                                                                                                  #  (SET)               (RESET)
001346:
001347:                                                                                                  #                                BIT 15 FLAG 13
001348: 26,2024                        PULSEFLG           =        195D                                  #  MINIMUM IMPULSE     NOT IN MINIMUM
001349: 26,2024     4735               PULSES             =        BIT15                                 #  COMMAND MODE IN     IMPULSE COMMAND MODE
001350:                                                                                                  #  "ATT HOLD" (V76)    (V77)
001351:
001352:
001353:                                                                                                  #                                BIT 14 FLAG 13
001354: 26,2024                        USEQRFLG           =        196D                                  #  GIMBAL UNUSABLE.    TRIM GIMBAL MAY BE
001355: 26,2024     4736               USEQRJTS           =        BIT14                                 #  USE JETS ONLY.      USED.
001356:
001357:
001358:                                                                                                  #                                BIT 13 FLAG 13
001359: 26,2024                        CSMDKFLG           =        197D                                  #  CSM DOCKED. USE     CSM NOT DOCKED TO LM
001360: 26,2024     4737               CSMDOCKD           =        BIT13                                 #  BACKUP DAP
001361:
001362:
001363:                                                                                                  #                                BIT 12 FLAG 13
001364: 26,2024                        OURRCFLG           =        198D                                  #  CURRENT DAP PASS    CURRENT DAP PASS IS
001365: 26,2024     4740               OURRCBIT           =        BIT12                                 #  IS RATE COMMAND     NOT RATE COMMAND
001366:
001367:
001368:                                                                                                  #                                BIT 11 FLAG 13
001369: 26,2024                        ACC4-2FL           =        199D                                  #  4 JET X-AXIS TRANS- 2 JET X-AXIS TRANS-
001370: 26,2024     4741               ACC4OR2X           =        BIT11                                 #  LATION REQUESTED    LATION REQUESTED
001371:
001372:
001373:                                                                                                  #                                BIT 10 FLAG 13
001374: 26,2024                        AORBTFLG           =        200D                                  #  B SYSTEM FOR X-     A SYSTEM FOR X-
001375: 26,2024     4742               AORBTRAN           =        BIT10                                 #  TRANSLATION         TRANSLATION PREFER'D
001376:
001377:
001378:                                                                                                  #                                BIT 9 FLAG 13
001379: 26,2024                        XOVINFLG           =        201D                                  #  X-AXIS OVERRIDE     X-AXIS OVERRIDE OKAY
001380: 26,2024     4743               XOVINHIB           =        BIT9                                  #  LOCKED OUT
001381:
001382:
001383:                                                                                                  #                                BIT 8 FLAG 13
001384: 26,2024                        DRIFTDFL           =        202D                                  #  ASSUME 0 OFFSET     USE OFFSET ACCELERA-
001385: 26,2024     4744               DRIFTBIT           =        BIT8                                  #  DRIFTING FLIGHT.    TION ESTIMATE
001386:
001387:


001389:                                                                                                  #                                BIT 7 FLAG 13
001390: 26,2024                        RHCSCFLG           =        203D                                  #  NORMAL RHC SCALING  FINE RHC SCALING
001391: 26,2024     4745               RHCSCALE           =        BIT7                                  #  REQUESTED           REQUESTED
001392:
001393:
001394:                                                                                                  #                                BIT 6 FLAG 13
001395: 26,2024                        ULLAGFLG           =        204D                                  #  ULLAGE REQUEST BY   NO INTERNAL ULLAGE
001396: 26,2024     4746               ULLAGER            =        BIT6                                  #  MISSION PROGRAM     REQUEST
001397:
001398:
001399:                                                                                                  #                                BIT 5 FLAG 13
001400: 26,2024                        DBSL2FLG           =        205D                                  #  5 DEG DEADBAND      1 OR .3 DEG DEADBAND
001401: 26,2024     4747               DBSLECT2           =        BIT5                                  #  SELECTED BY CREW    SELECTED BY CREW
001402:                                                                                                  #                      (SEE BIT4 DAPBOOLS)
001403:
001404:
001405:                                                                                                  #                                BIT 4 FLAG 13
001406: 26,2024                        DBSELFLG           =        206D                                  #  1 DEG DEADBAND      MIN DB SELECTED BY
001407: 26,2024     4750               DBSELECT           =        BIT4                                  #  SELECTED BY CREW    CREW (0.3 DEG)
001408:
001409:
001410:                                                                                                  #                                BIT 3 FLAG 13
001411: 26,2024                        ACCOKFLG           =        207D                                  #  CONTROL AUTHORITY   RESTART OR FRESH ST.
001412: 26,2024     4751               ACCSOKAY           =        BIT3                                  #  VALUES FROM 1/ACCS  SINCE LAST 1/ACCS;
001413:                                                                                                  #  USABLE              OUTPUTS SUSPECT.
001414:
001415:
001416:                                                                                                  #                                BIT 2 FLAG 13
001417: 26,2024                        AUTR2FLG           =        208D                                  #  THESE FLAGS ARE USED TOGETHER TO INDICAT
001418: 26,2024     4752               AUTRATE2           =        BIT2                                  #  ASTRONAUT-CHOSEN KALCMANU MANEUVER RATES
001419:                                                                                                  #  (0,0)=(BIT2,BIT1)= 0.2 DEG/SEC
001420:                                                                                                  #  (0,1)=  0.5 DEG/SEC
001421:                                                                                                  #                                BIT 1 FLAG 13
001422: 26,2024                        AUTR1FLG           =        209D                                  #  (1,0)=  2.0 DEG/SEC
001423: 26,2024     4753               AUTRATE1           =        BIT1                                  #  (1,1)= 10.0 DEG/SEC
001424:

End of include-file FLAGWORD_ASSIGNMENTS.agc.  Parent file is MAIN.agc


