
Source Code


000002:                                                                                                  ## Copyright:   Public domain.
000003:                                                                                                  ## Filename:    LUNAR_LANDING_GUIDANCE_EQUATIONS.agc
000004:                                                                                                  ## Purpose:     A section of Luminary revision 163.
000005:                                                                                                  ##              It is part of the reconstructed source code for the first
000006:                                                                                                  ##              (unflown) release of the flight software for the Lunar
000007:                                                                                                  ##              Module's (LM) Apollo Guidance Computer (AGC) for Apollo 14.
000008:                                                                                                  ##              The code has been recreated from a reconstructed copy of
000009:                                                                                                  ##              Luminary 173, as well as Luminary memos 157 amd 158.
000010:                                                                                                  ##              It has been adapted such that the resulting bugger words
000011:                                                                                                  ##              exactly match those specified for Luminary 163 in NASA
000012:                                                                                                  ##              drawing 2021152N, which gives relatively high confidence
000013:                                                                                                  ##              that the reconstruction is correct.
000014:                                                                                                  ## Reference:   pp. 784-821
000015:                                                                                                  ## Assembler:   yaYUL
000016:                                                                                                  ## Contact:     Ron Burkey <info@sandroid.org>.
000017:                                                                                                  ## Website:     www.ibiblio.org/apollo/index.html
000018:                                                                                                  ## Mod history: 2019-08-21 MAS  Created from Luminary 173. Moved STRTP66A up
000019:                                                                                                  ##                              four instructions, per PCR 988. Removed the
000020:                                                                                                  ##                              DEIMUBOB subroutine and its constant RIMUZ.
000021:                                                                                                  ##                              Removed calls to that routine (and replaced
000022:                                                                                                  ##                              the one in RODCOMPA with a CA OLDPIPAX).
000023:                                                                                                  ##
000024:


000026: 31,2366  E7,1621                                  EBANK=   E2DPS
000027:
000028: 31,2366                                           COUNT*   $$/F2DPS
000029:
000030:                                                                                                  #  ****************************************************************************************************************
000031:                                                                                                  #  LUNAR LANDING FLIGHT SEQUENCE TABLES
000032:                                                                                                  #  ****************************************************************************************************************
000033:
000034:                                                                                                  #  FLIGHT SEQUENCE TABLES ARE ARRANGED BY FUNCTION.   THEY ARE REFERENCED USING AS AN INDEX THE REGISTER WCHPHASE:
000035:
000036:                                                                                                  #                                                      WCHPHASE  =  -1  --->  IGNALG
000037:                                                                                                  #                                                      WCHPHASE  =   0  --->  BRAKQUAD
000038:                                                                                                  #                                                      WCHPHASE  =   1  --->  APPRQUAD
000039:                                                                                                  #                                                      WCHPHASE  =   2  --->  VERTICAL
000040:
000041:                                                                                                  #  ***************************************************************************************************************
000042:
000043:                                                                                                  #  ROUTINES FOR STARTING NEW GUIDANCE PHASES:
000044:
000045: 31,2366           12575                           TCF      TTFINCR                               #  IGNALG
000046: 31,2367           12575        NEWPHASE           TCF      TTFINCR                               #  BRAKQUAD
000047: 31,2370           12556                           TCF      STARTP64                              #  APPRQUAD
000048: 31,2371           12452                           TCF      STARTP66                              #  VERTICAL
000049:
000050:
000051:                                                                                                  #  PRE-GUIDANCE COMPUTATIONS:
000052:
000053: 31,2372           12755                           TCF      CALCRGVG                              #  IGNALG
000054: 31,2373           12765        PREGUIDE           TCF      RGVGCALC                              #  BRAKQUAD
000055: 31,2374           12656                           TCF      REDESIG                               #  APPRQUAD
000056:
000057:
000058:                                                                                                  #  GUIDANCE EQUATIONS:
000059:
000060: 31,2375           13030                           TCF      TTF/8CL                               #  IGNALG
000061: 31,2376           13030        WHATGUID           TCF      TTF/8CL                               #  BRAKQUAD
000062: 31,2377           13030                           TCF      TTF/8CL                               #  APPRQUAD
000063:
000064:
000065:                                                                                                  #  POST GUIDANCE EQUATION COMPUTATIONS:
000066:
000067: 31,2400           13233                           TCF      CGCALC                                #  IGNALG
000068: 31,2401           13220        AFTRGUID           TCF      EXTLOGIC                              #  BRAKQUAD
000069: 31,2402           13220                           TCF      EXTLOGIC                              #  APPRQUAD
000070:


000072:                                                                                                  #  WINDOW VECTOR COMPUTATIONS:
000073:
000074: 31,2403           13303                           TCF      EXGSUB                                #  IGNALG
000075: 31,2404           13324        WHATEXIT           TCF      EXBRAK                                #  BRAKQUAD
000076: 31,2405           13332                           TCF      EXNORM                                #  APPRQUAD
000077:
000078:
000079:                                                                                                  #  DISPLAY ROUTINES:
000080:
000081: 31,2406           13443        WHATDISP           TCF      P63DISPS                              #  BRAKQUAD
000082: 31,2407           13447                           TCF      P64DISPS                              #  APPRQUAD
000083: 31,2410           13500                           TCF      VERTDISP                              #  VERTICAL
000084:
000085:
000086:                                                                                                  #  ALARM ROUTINE FOR TTF COMPUTATION:
000087:
000088: 31,2411           13727                           TCF      1406POO                               #  IGNALG
000089: 31,2412           13731        WHATALM            TCF      1406ALM                               #  BRAKQUAD
000090: 31,2413           13731                           TCF      1406ALM                               #  APPRQUAD
000091:
000092:
000093:                                                                                                  #  INDICES FOR REFERENCING TARGET PARAMETERS:
000094:
000095: 31,2414           00000                           OCT      0                                     #  IGNALG
000096: 31,2415           00000        TARGTDEX           OCT      0                                     #  BRAKQUAD
000097: 31,2416           00002                           OCT      2                                     #  APPRQUAD
000098:


000100:
000101:                                                                                                  #  ****************************************************************************************************************
000102:                                                                                                  #  ENTRY POINTS:  ?GUIDSUB FOR THE IGNITION ALGORITHM, LUNLAND FOR SERVOUT
000103:                                                                                                  #  ****************************************************************************************************************
000104:
000105:                                                                                                  #  IGNITION ALGORITHM ENTRY:  DELIVERS N PASSES OF QUADRATIC QUIDANCE
000106:
000107: 31,2417           77776        ?GUIDSUB           EXIT
000108: 31,2420           34752                           CAF      TWO                                   #  N = 3
000109: 31,2421           55647                           TS       NGUIDSUB
000110: 31,2422           12540                           TCF      GUILDRET   +2
000111:
000112: 31,2423           55647        GUIDSUB            TS       NGUIDSUB                              #  ON SUCEEDING PASSES SKIP TTFINCR
000113: 31,2424           12755                           TCF      CALCRGVG
000114:
000115:                                                                                                  #  NORMAL ENTRY:  CONTROL COMES HERE FROM SERVOUT
000116:
000117: 31,2425           05364        LUNLAND            TC       PHASCHNG
000118: 31,2426           00035                           OCT      00035                                 #  GROUP 5:  RETAIN ONLY PIPA TASK
000119: 31,2427           30101                           CA       FLAGWRD5                              #  HAS THROTTLE-UP COME YET?
000120: 31,2430           74744                           MASK     ZOOMBIT
000121: 31,2431           00006                           EXTEND
000122: 31,2432           13435                           BZF      DISPEXIT   +3                         #  NO:   DO DISPLAYS ONLY
000123:
000124: 31,2433           05364                           TC       PHASCHNG                              #  YES:  DO GUIDANCE
000125: 31,2434           05023                           OCT      05023
000126: 31,2435           20000                           OCT      20000
000127:


000129:                                                                                                  #  ****************************************************************************************************************
000130:                                                                                                  #  GUILDENSTERN:  AUTO-MODES MONITOR (R13)
000131:                                                                                                  #  ****************************************************************************************************************
000132:
000133: 31,2436                                           COUNT*   $$/R13
000134:
000135:                                                                                                  #  THE PHILOSOPHY OF GUILDENSTERN:  ON EVERY APPEARANCE OF THE ATTITUDE-HOLD DISCRETE CHECK TO SEE IF THE ROD SWITCH
000136:                                                                                                  #  HAS BEEN CLICKED.  IF SO, SELECT P66.  IF THE DAP IS IN AUTO AND THE                                     PRESENT
000137:                                                                                                  #  9PROGRAM IN PROGRESS IS P66, CHECK FOR A
000138:                                                                                                  #  RESTART. IF ONE HAS OCCURED RE-INITIALIZE P66 AND CONTINUE OTHERWISE YOUCONTINUE WITH PRESENT DATA IN P66.TO
000139:                                                                                                  #  SELECT P66 THE ATTITUDE-HOLD DISCRETE MUST BE PRESENT AND THE ROD SWITCH MUST HAVE BEEN CLICKED. OTHERWISE THE
000140:                                                                                                  #  AUTOMATIC LANDING WILL CONTINUE.
000141:
000142: 31,2436           41010        GUILDEN            CS       MODREG                                #  ARE WE IN P66?  (EVEN THO WE ARE IN AUTO
000143: 31,2437           62454                           AD       DEC66                                 #  DAP)
000144: 31,2440           00006                           EXTEND
000145: 31,2441           12531                           BZF      RESTART?                              #  YES:  GO SE IF THERE HAS BEEN A RESTART
000146:
000147: 31,2442           34737                           CAF      BIT13                                 #  NO:  IS UN-ATTITUDE-HOLD DISCRETE HERE?
000148: 31,2443           00006                           EXTEND
000149: 31,2444           02031                           RAND     CHAN31
000150: 31,2445           10000                           CCS      A
000151: 31,2446           12536                           TCF      GUILDRET                              #  YES:  ALL'S WELL, OR AT LEAST AUTOMATIC
000152:
000153: 31,2447           31746                           CA       RODCOUNT                              #  NO:  HAS ROD SWITCH BEEN CLICKED
000154: 31,2450           00006                           EXTEND
000155: 31,2451           12536                           BZF      GUILDRET                              #  NO:  CONTINUE WITH THE AUTOMATIC LANDING
000156:
000157: 31,2452           03747        STARTP66           TC       FASTCHNG                              #  YES
000158: 31,2453           05322                           TC       NEWMODEX
000159: 31,2454           00102        DEC66              DEC      66         B-14
000160:
000161: 31,2455           00006                           EXTEND
000162: 31,2456           31474                           DCA      HDOTDISP                              #  SET DESIRED ALTITUDE RATE = CURRENT
000163: 31,2457           53645                           DXCH     VDGVERT                               #        ALTITUDE RATE.
000164:
000165: 31,2460           05515        STRTP66A           TC       UPFLAG                                #  SET FLAG TO CONTINUE P66 HORIZONTAL
000166: 31,2461           00016                           ADRES    P66PROFL                              #     UNTIL 'PROCEED' AFTER TOUCHDOWN
000167:
000168: 31,2462           41464                           CS       TOOFEW                                #  INITIALIZE CNTTHROT TO -TOOFEW
000169: 31,2463           55623                           TS       CNTTHROT
000170:
000171: 31,2464           06042                           TC       INTPRET
000172: 31,2465           47375                           VLOAD    VXV                                   #  COMPUTE HORIZONTAL VELOCITY COMMAND
000173: 31,2466           02273                                    WM                                    #  MOON'S ANGULAR RATE IN 2(-17)RAD/CS
000174: 31,2467           03521                                    R                                     #  LM POSITION IN 2(24)M
000175: 31,2470           03434                           STORE    VHZC
000176: 31,2471           41535                           SLOAD    PUSH                                  #  COMPUTE PIPA BIAS VECTOR FOR USE BY
000177: 31,2472           01457                                    PBIASZ                                #    P66ROD AND LANDING ANALOG DISPLAYS
000178: 31,2473           41535                           SLOAD    PUSH
000179: 31,2474           01455                                    PBIASY
000180: 31,2475           55535                           SLOAD    VDEF
000181: 31,2476           01453                                    PBIASX
000182: 31,2477           43161                           VXSC     SET
000183: 31,2500           25422                                    BIASFACT
000184: 31,2501           00463                                    RODFLAG
000185: 31,2502           26616                           STOVL    VBIAS                                 #  ONE SECOND'S BIAS IN UNITS OF 2(7) M/CS
000186: 31,2503           01254                                    TEMX
000187: 31,2504           77676                           VCOMP
000188: 31,2505           27764                           STOVL    OLDPIPAX
000189: 31,2506           06520                                    ZEROVECS
000190: 31,2507           17767                           STODL    DELVROD
000191:


000193: 31,2510           02535                                    RODSCALE
000194: 31,2511           17757                           STODL    RODSCAL1
000195:
000196: 31,2512           01234                                    PIPTIME
000197: 31,2513           03760                           STORE    LASTTPIP
000198:
000199: 31,2514           77776                           EXIT
000200:
000201: 31,2515           34755                           CAF      ZERO
000202: 31,2516           55620                           TS       FCOLD
000203: 31,2517           55610                           TS       FWEIGHT
000204: 31,2520           55611                           TS       FWEIGHT    +1
000205:
000206: 31,2521           34752                           CAF      TWO                                   #  WCHPHOLD=2 --> VERTICAL  PHASE
000207: 31,2522           55621                           TS       WCHPHOLD
000208:
000209: 31,2523           55346                           TS       WCHPHASE
000210:
000211: 31,2524           05527                           TC       DOWNFLAG                              #  PERMIT X-AXIS OVERRIDE
000212: 31,2525           00311                           ADRES    XOVINFLG                              #  SHOULD DO INTERPRETIVELY TO SAVE A WORD
000213:
000214: 31,2526           05515                           TC       UPFLAG                                #  TERMINATE TERRAIN MODEL
000215: 31,2527           00023                           ADRES    NOTERFLG                              #  SHOULD DO INTERPRETIVELY TO SAVE A WORD
000216:
000217: 31,2530           13515                           TCF      P66
000218:
000219: 31,2531           30075        RESTART?           CA       FLAGWRD1                              #  HAS THERE BEEN A RESTART?
000220: 31,2532           74740                           MASK     RODFLBIT
000221: 31,2533           00006                           EXTEND
000222: 31,2534           12460                           BZF      STRTP66A                              #  Y
000223:                                                                                                  #  N
000224: 31,2535           13515                           TCF      P66
000225:


000227:                                                                                                  #  ****************************************************************************************************************
000228:                                                                                                  #  INITIALIZATION FOR THIS PASS
000229:                                                                                                  #  ****************************************************************************************************************
000230:
000231: 31,2536                                           COUNT*   $$/F2DPS
000232:
000233: 31,2536           34755        GUILDRET           CAF      ZERO
000234: 31,2537           55746                           TS       RODCOUNT
000235:
000236: 31,2540           00006                           EXTEND
000237: 31,2541           31625                           DCA      TPIP
000238: 31,2542           53574                           DXCH     TPIPOLD
000239:
000240: 31,2543           03747                           TC       FASTCHNG
000241:
000242: 31,2544           00006                           EXTEND
000243: 31,2545           31561                           DCA      PIPTIME1
000244: 31,2546           53625                           DXCH     TPIP
000245:
000246: 31,2547           00006                           EXTEND
000247: 31,2550           31643                           DCA      TTF/8
000248: 31,2551           53553                           DXCH     TTF/8TMP
000249:
000250: 31,2552           11623                           CCS      FLPASS0
000251: 31,2553           12575                           TCF      TTFINCR
000252:
000253: 31,2554           51346        BRSPOT1            INDEX    WCHPHASE
000254: 31,2555           12367                           TCF      NEWPHASE
000255:
000256:                                                                                                  #  ****************************************************************************************************************
000257:                                                                                                  #  ROUTINES TO START NEW PHASES
000258:                                                                                                  #  ****************************************************************************************************************
000259:
000260: 31,2556           05322        STARTP64           TC       NEWMODEX
000261: 31,2557           00100                           DEC      64         B-14
000262: 31,2560           31425                           CA       DELTTFAP                              #  AUGMENT TTF/8
000263: 31,2561           27552                           ADS      TTF/8TMP
000264: 31,2562           00004                           INHINT
000265: 31,2563           06022                           TC       C13STALL
000266: 31,2564           34740                           CA       BIT12                                 #  ENABLE RUPT10
000267: 31,2565           00006                           EXTEND
000268: 31,2566           05013                           WOR      CHAN13
000269: 31,2567           33757                           CAF      P64DB
000270: 31,2570           55343                           TS       DB
000271: 31,2571           05527                           TC       DOWNFLAG                              #  INITIALIZE REDESIGNATION FLAG
000272: 31,2572           00143                           ADRES    REDFLAG
000273:
000274: 31,2573           31756                           CA       LRWH1                                 #  PUT P64 LR WEIGHTING FUNCTION INTO
000275: 31,2574           55421                           TS       LRWH                                  #  LRWH SO LR UPDATES ARE DONE PROPERLY
000276:                                                                                                  #                (CONTINUE TO TTFINCR)
000277:
000278:                                                                                                  #  ****************************************************************************************************************
000279:                                                                                                  #  INCREMENT TTF/8, UPDATE LAND FOR LUNAR ROTATION, DO OTHER USEFUL THINGS
000280:                                                                                                  #  ****************************************************************************************************************
000281:


000283:
000284:                                                                                                  #           TTFINCR COMPUTATIONS ARE AS FOLLOWS:-
000285:
000286:                                                                                                  #                     TTF/8 UPDATED FOR TIME SINCE LAST PASS:
000287:
000288:                                                                                                  #                                TTF/8 = TTF/8 + (TPIP - TPIPOLD)/8
000289:
000290:                                                                                                  #                     LANDING SITE VECTOR UPDATED FOR LUNAR ROTATION:
000291:
000292:                                                                                                  #                                -                  -      -                      -
000293:                                                                                                  #                                LAND = /LAND/ UNIT(LAND - LAND(TPIP - TPIPOLD) * WM)
000294:
000295:                                                                                                  #                     SLANT RANGE TO LANDING SITE, FOR DISPLAY:
000296:
000297:                                                                                                  #                                                 -      -
000298:                                                                                                  #                                RANGEDSP = ABVAL(LAND - R)
000299:
000300: 31,2575           06042        TTFINCR            TC       INTPRET
000301: 31,2576           45345                           DLOAD    DSU
000302: 31,2577           03625                                    TPIP
000303: 31,2600           03574                                    TPIPOLD
000304: 31,2601           41461                           SLR      PUSH                                  #  SHIFT SCALES DELTA TIME TO 2(17) CSECS
000305: 31,2602           21214                                    11D
000306: 31,2603           47361                           VXSC     VXV
000307: 31,2604           03635                                    LAND
000308: 31,2605           02273                                    WM
000309: 31,2606           47045                           BVSU     RTB
000310: 31,2607           03635                                    LAND
000311: 31,2610           21727                                    NORMUNIT
000312: 31,2611           76561                           VXSC     VSL1
000313: 31,2612           02301                                    /LAND/
000314: 31,2613           17545                           STODL    LANDTEMP
000315: 31,2614           77776                           EXIT
000316:
000317: 31,2615           52155                           DXCH     MPAC
000318: 31,2616           21553                           DAS      TTF/8TMP                              #  NOW HAVE INCREMENTED TTF/8 IN TTF/8TMP
000319:
000320: 31,2617           03747                           TC       FASTCHNG
000321:
000322: 31,2620           00006                           EXTEND
000323: 31,2621           31553                           DCA      TTF/8TMP
000324: 31,2622           53643                           DXCH     TTF/8
000325:
000326: 31,2623           03700                           TC       TDISPSET
000327:
000328: 31,2624           37721                           CAF      PRIO31                                #  TEMPORARILY OVER-PRIO CHARIN
000329: 31,2625           05146                           TC       PRIOCHNG
000330:
000331: 31,2626           06042                           TC       INTPRET
000332: 31,2627           53375                           VLOAD    VAD                                   #  ADD IN CORRECTION FROM NOUN 69
000333: 31,2630           03545                                    LANDTEMP
000334:


000336: 31,2631           02632                                    DLAND
000337: 31,2632           03635                           STORE    LAND
000338: 31,2633           77646                           ABVAL                                          #  RECOMPUTE /LAND/
000339: 31,2634           02301                           STORE    /LAND/
000340: 31,2635           77776                           EXIT
000341:
000342: 31,2636           03747                           TC       FASTCHNG                              #  SINCE REDESIG MAY CHANGE LANDTEMP
000343:
000344: 31,2637           35014                           CAF      EBANK5
000345: 31,2640  E5,1631                                  EBANK=   DLAND
000346: 31,2640           54003                           TS       EBANK
000347: 31,2641           34755                           CAF      ZERO                                  #  ZERO N 69 REGISTERS
000348: 31,2642           55631                           TS       DLAND
000349: 31,2643           55632                           TS       DLAND      +1
000350: 31,2644           55633                           TS       DLAND      +2
000351: 31,2645           55634                           TS       DLAND      +3
000352: 31,2646           55635                           TS       DLAND      +4
000353: 31,2647           55636                           TS       DLAND      +5
000354: 31,2650           35016                           CAF      EBANK7
000355: 31,2651  E7,1666                                  EBANK=   TREDES
000356: 31,2651           54003                           TS       EBANK
000357:
000358: 31,2652           34736                           CAF      PRIO20
000359: 31,2653           05146                           TC       PRIOCHNG
000360:
000361: 31,2654           51346        BRSPOT2            INDEX    WCHPHASE
000362: 31,2655           12373                           TCF      PREGUIDE
000363:
000364:                                                                                                  #  ****************************************************************************************************************
000365:                                                                                                  #  LANDING SITE PERTURBATION EQUATIONS
000366:                                                                                                  #  ****************************************************************************************************************
000367:
000368: 31,2656           30102        REDESIG            CA       FLAGWRD6                              #  IS REDFLAG SET?
000369: 31,2657           74746                           MASK     REDFLBIT
000370: 31,2660           00006                           EXTEND
000371: 31,2661           12765                           BZF      RGVGCALC                              #  NO:   SKIP REDESIGNATION LOGIC
000372:
000373: 31,2662           31666                           CA       TREDES                                #  YES:  HAS TREDES REACHED ZERO?
000374: 31,2663           00006                           EXTEND
000375: 31,2664           12765                           BZF      RGVGCALC                              #  YES:  SKIP REDESIGNATION LOGIC
000376:
000377: 31,2665           00004                           INHINT
000378: 31,2666           31645                           CA       ELINCR1
000379: 31,2667           55554                           TS       ELINCR
000380: 31,2670           31644                           CA       AZINCR1
000381: 31,2671           55556                           TS       AZINCR
000382: 31,2672           03747                           TC       FASTCHNG
000383:
000384: 31,2673           34755                           CA       ZERO
000385: 31,2674           55645                           TS       ELINCR1
000386:


000388: 31,2675           55644                           TS       AZINCR1
000389: 31,2676           55555                           TS       ELINCR     +1
000390: 31,2677           55557                           TS       AZINCR     +1
000391:
000392: 31,2700           30120                           CA       FIXLOC                                #  SET PD TO 0
000393: 31,2701           54166                           TS       PUSHLOC
000394:
000395: 31,2702           06042                           TC       INTPRET
000396: 31,2703           52375                           VLOAD    VSU
000397: 31,2704           03635                                    LAND
000398: 31,2705           03521                                    R                                     #                  -      -
000399: 31,2706           41434                           RTB      PUSH                                  #  PUSH DOWN UNIT (LAND - R)
000400: 31,2707           21727                                    NORMUNIT
000401: 31,2710           76435                           VXV      VSL1
000402: 31,2711           02154                                    YNBPIP                                #                     -          -      -
000403: 31,2712           65361                           VXSC     PDDL                                  #  PUSH DOWN - ELINCR(YNB * UNIT(LAND - R))
000404: 31,2713           03555                                    ELINCR
000405: 31,2714           03557                                    AZINCR
000406: 31,2715           52361                           VXSC     VSU
000407: 31,2716           02154                                    YNBPIP
000408: 31,2717           41455                           VAD      PUSH                                  #  RESULTING VECTOR IS 1/2 REAL SIZE
000409:
000410: 31,2720           45345                           DLOAD    DSU                                   #  MAKE SURE REDESIGNATION IS NOT
000411: 31,2721           00001                                    0                                     #    TOO CLOSE TO THE HORIZON
000412: 31,2722           05660                                    DEPRCRIT
000413: 31,2723           71240                           BMN      DLOAD
000414: 31,2724           62727                                    REDES1
000415: 31,2725           05660                                    DEPRCRIT
000416: 31,2726           00001                           STORE    0
000417: 31,2727           45345        REDES1             DLOAD    DSU
000418: 31,2730           03635                                    LAND
000419: 31,2731           03521                                    R
000420: 31,2732           74271                           DDV      VXSC
000421: 31,2733           00001                                    0
000422: 31,2734           53455                           VAD      UNIT
000423: 31,2735           03521                                    R
000424: 31,2736           76561                           VXSC     VSL1
000425: 31,2737           02301                                    /LAND/
000426: 31,2740           03545                           STORE    LANDTEMP
000427: 31,2741           77776                           EXIT                                           #  LOOKANGL WILL BE COMPUTED AT RGVGCALC
000428:
000429: 31,2742           03747                           TC       FASTCHNG
000430:
000431: 31,2743           00006                           EXTEND
000432: 31,2744           31545                           DCA      LANDTEMP
000433: 31,2745           53635                           DXCH     LAND
000434: 31,2746           00006                           EXTEND
000435: 31,2747           31547                           DCA      LANDTEMP   +2
000436: 31,2750           53637                           DXCH     LAND       +2
000437: 31,2751           00006                           EXTEND
000438:


000440: 31,2752           31551                           DCA      LANDTEMP   +4
000441: 31,2753           53641                           DXCH     LAND       +4
000442:
000443: 31,2754           12765                           TCF      RGVGCALC
000444:
000445:                                                                                                  #  ****************************************************************************************************************
000446:                                                                                                  #  COMPUTE STATE IN GUIDANCE COORDINATES
000447:                                                                                                  #  ****************************************************************************************************************
000448:
000449:                                                                                                  #             RGVGCALC COMPUTATIONS ARE AS FOLLOWS:-
000450:
000451:                                                                                                  #                      VELOCITY RELATIVE TO THE SURFACE:
000452:
000453:                                                                                                  #                                  -         -   -   -
000454:                                                                                                  #                                  ANGTERM = V + R * WM
000455:
000456:                                                                                                  #                      STATE IN GUIDANCE COORDINATES:
000457:
000458:                                                                                                  #                                  -     *   -   -
000459:                                                                                                  #                                  RGU = CG (R - LAND)
000460:
000461:                                                                                                  #                                  -     *   -   -    -
000462:                                                                                                  #                                  VGU = CG (V - WM * R)
000463:
000464:                                                                                                  #                      DEPRESSION ANGLE FOR DISPLAY:
000465:
000466:                                                                                                  #                                                         -   -     -
000467:                                                                                                  #                                  LOOKANGL = ARCSIN(UNIT(R - LAND).XMBPIP)
000468:
000469: 31,2755           06042        CALCRGVG           TC       INTPRET                               #  IN IGNALG, COMPUTE V FROM INTEGRATION
000470: 31,2756           64375                           VLOAD    MXV                                   #    OUTPUT AND TRIM CORRECTION TERM
000471: 31,2757           00025                                    VATT1                                 #    COMPUTED LAST PASS AND LEFT IN UNFC/2
000472: 31,2760           01732                                    REFSMMAT
000473: 31,2761           53362                           VSR1     VAD
000474: 31,2762           03253                                    UNFC/2
000475: 31,2763           03527                           STORE    V
000476: 31,2764           77776                           EXIT
000477:
000478: 31,2765           06042        RGVGCALC           TC       INTPRET                               #  ENTER HERE TO RECOMPUTE RG AND VG
000479: 31,2766           47375                           VLOAD    VXV
000480: 31,2767           03521                                    R
000481: 31,2770           02273                                    WM
000482: 31,2771           70455                           VAD      VSR2                                  #  RESCALE TO UNITS OF 2(9) M/CS
000483: 31,2772           03527                                    V
000484: 31,2773           02231                           STORE    ANGTERM
000485: 31,2774           77721                           MXV
000486: 31,2775           02572                                    CG                                    #  NO SHIFT SINCE ANGTERM IS DOUBLE SIZED
000487: 31,2776           27627                           STOVL    VGU
000488: 31,2777           03521                                    R                                     #            -   -
000489: 31,3000           41451                           VSU      PUSH                                  #  PUSH DOWN R - LAND
000490:


000492: 31,3001           03635                                    LAND
000493: 31,3002           76521                           MXV      VSL1
000494: 31,3003           02572                                    CG
000495: 31,3004           02624                           STORE    RGU
000496: 31,3005           77646                           ABVAL
000497: 31,3006           26614                           STOVL    RANGEDSP                              #  SM Z-AXIS RANGE FOR DISPLAY IN N68
000498: 31,3007           50234                           RTB      DOT                                   #  NOW IN MPAC IS SINE(LOOKANGL)/4
000499: 31,3010           21727                                    NORMUNIT
000500: 31,3011           02146                                    XNBPIP
000501: 31,3012           77776                           EXIT
000502:
000503: 31,3013           30120                           CA       FIXLOC                                #  RESET PUSH DOWN POINTER
000504: 31,3014           54166                           TS       PUSHLOC
000505:
000506: 31,3015           30154                           CA       MPAC                                  #  COMPUTE LOOKANGL ITSELF
000507: 31,3016           60000                           DOUBLE
000508: 31,3017           04616                           TC       BANKCALL
000509: 31,3020           61655                           CADR     SPARCSIN   -1
000510: 31,3021           63763                           AD       1/2DEG
000511: 31,3022           61353                           AD       ELBIAS                                #  BIAS LPD ANGLE FOR WINDOW BENDING
000512: 31,3023           00006                           EXTEND
000513: 31,3024           73762                           MP       180DEGS
000514: 31,3025           55667                           TS       LOOKANGL                              #  LOOKANGL FOR DISPLAY DURING P64
000515:
000516: 31,3026           51346        BRSPOT3            INDEX    WCHPHASE
000517: 31,3027           12376                           TCF      WHATGUID
000518:
000519:                                                                                                  #  ****************************************************************************************************************
000520:                                                                                                  #  TTF/8 COMPUTATION
000521:                                                                                                  #  ****************************************************************************************************************
000522:
000523: 31,3030           03673        TTF/8CL            TC       INTPRETX
000524: 31,3031           77743                           DLOAD*
000525: 31,3032           02443                                    JDG2TTF,1
000526: 31,3033           23571                           STODL*   TABLTTF    +6                         #  A(3) = 8 JDG  TO TABLTTF
000527: 31,3034           02437                                    ADG2TTF,1                             #              2
000528: 31,3035           17567                           STODL    TABLTTF    +4                         #  A(2) = 6 ADG  TO TABLTTF
000529: 31,3036           03633                                    VGU        +4                         #              2
000530: 31,3037           42605                           DMP      DAD*
000531: 31,3040           05656                                    3/4DP
000532: 31,3041           02433                                    VDG2TTF,1
000533: 31,3042           23565                           STODL*   TABLTTF    +2                         #  A(1) = (6 VGU  + 18 VDG )/8 TO TABLTTF
000534: 31,3043           02407                                    RDG        +4,1                       #               2         2
000535: 31,3044           41225                           DSU      DMP
000536: 31,3045           02630                                    RGU        +4
000537: 31,3046           05654                                    3/8DP
000538: 31,3047           03563                           STORE    TABLTTF                               #  A(0) = -24 (RGU  - RDG )/64 TO TABLTTF
000539: 31,3050           77776                           EXIT                                           #                 2      2
000540:


000542:
000543: 31,3051           34744                           CA       BIT8
000544: 31,3052           55572                           TS       TABLTTF    +10                        #  FRACTIONAL PRECISION FOR TTF TO TABLE
000545:
000546: 31,3053           00006                           EXTEND
000547: 31,3054           31643                           DCA      TTF/8
000548: 31,3055           52155                           DXCH     MPAC                                  #  LOADS TTF/8 (INITIAL GUESS) INTO MPAC
000549: 31,3056           34752                           CAF      TWO                                   #  DEGREE - ONE
000550: 31,3057           54001                           TS       L
000551: 31,3060           33755                           CAF      TABLTTFL
000552: 31,3061           03543                           TC       ROOTPSRS                              #  YIELDS TTF/8 IN MPAC
000553: 31,3062           51346                           INDEX    WCHPHASE
000554: 31,3063           12412                           TCF      WHATALM
000555:
000556: 31,3064           00006                           EXTEND                                         #  GOOD RETURN
000557: 31,3065           30155                           DCA      MPAC                                  #  FETCH TTF/8 KEEPING IT IN MPAC
000558: 31,3066           53643                           DXCH     TTF/8                                 #  CORRECTED TTF/8
000559:
000560: 31,3067           03700                           TC       TDISPSET
000561:
000562:                                                                                                  #                (CONTINUE TO QUADGUID)
000563:
000564:                                                                                                  #  ****************************************************************************************************************
000565:                                                                                                  #  MAIN GUIDANCE EQUATION
000566:                                                                                                  #  ****************************************************************************************************************
000567:
000568:                                                                                                  #                       AS PUBLISHED:-
000569:
000570:                                                                                                  #                                                -     -        -     -
000571:                                                                                                  #                                  -     -     6(VDG + VG)   12(RDG - RG)
000572:                                                                                                  #                                  ACG = ADG + ----------- + ------------
000573:                                                                                                  #                                                  TTF        (TTF)(TTF)
000574:
000575:                                                                                                  #                       AS HERE PROGRAMMED:-
000576:
000577:                                                                                                  #                                              -     -
000578:                                                                                                  #                                       3 (1/4(RDG - RG)   -     - )
000579:                                                                                                  #                                       - (------------- + VDG + VG)
000580:                                                                                                  #                                 -     4 (    TTF/8               )   -
000581:                                                                                                  #                                 ACG = ---------------------------- + ADG
000582:                                                                                                  #                                                  TTF/8
000583:
000584: 31,3070           41642        QUADGUID           CS       TTF/8
000585: 31,3071           61426                           AD       LEADTIME                              #  LEADTIME IS A NEGATIVE NUMBER
000586: 31,3072           64733                           AD       POSMAX                                #  SAFEGUARD THE COMPUTATIONS THAT FOLLOW
000587: 31,3073           54001                           TS       L                                     #    BY FORCING -TTF+LEADTIME > OR = ZERO
000588: 31,3074           40001                           CS       L
000589: 31,3075           60001                           AD       L
000590: 31,3076           22007                           ZL
000591: 31,3077           00006                           EXTEND
000592:


000594: 31,3100           11642                           DV       TTF/8
000595: 31,3101           54130                           TS       BUF                                   #  - RATIO OF LAG-DIMINISHED TTF TO TTF
000596: 31,3102           00006                           EXTEND
000597: 31,3103           70000                           SQUARE
000598: 31,3104           54131                           TS       BUF        +1
000599: 31,3105           60130                           AD       BUF
000600: 31,3106           56131                           XCH      BUF        +1                         #  RATIO SQUARED - RATIO
000601: 31,3107           60131                           AD       BUF        +1
000602: 31,3110           54154                           TS       MPAC                                  #  COEFFICIENT FOR VGU TERM
000603: 31,3111           60131                           AD       BUF        +1
000604: 31,3112           50120                           INDEX    FIXLOC
000605: 31,3113           54032                           TS       26D                                   #  COEFFICIENT FOR RDG-RGU TERM
000606: 31,3114           60131                           AD       BUF        +1
000607: 31,3115           50120                           INDEX    FIXLOC
000608: 31,3116           54034                           TS       28D                                   #  COEFFICIENT FOR VDG TERM
000609: 31,3117           60130                           AD       BUF
000610: 31,3120           64733                           AD       POSMAX
000611: 31,3121           60131                           AD       BUF        +1
000612: 31,3122           60131                           AD       BUF        +1
000613: 31,3123           50120                           INDEX    FIXLOC
000614: 31,3124           54036                           TS       30D                                   #  COEFFICIENT FOR ADG TERM
000615:
000616: 31,3125           34755                           CAF      ZERO
000617: 31,3126           54163                           TS       MODE
000618:
000619: 31,3127           03673                           TC       INTPRETX
000620: 31,3130           65361                           VXSC     PDDL
000621: 31,3131           03627                                    VGU
000622: 31,3132           00035                                    28D
000623: 31,3133           47157                           VXSC*    RTB
000624: 31,3134           02413                                    VDG,1
000625: 31,3135           63667                                    ZEROMID
000626: 31,3136           47113                           PDVL*    RTB
000627: 31,3137           02403                                    RDG,1
000628: 31,3140           63667                                    ZEROMID
000629: 31,3141           70251                           VSU      V/SC
000630: 31,3142           02624                                    RGU
000631: 31,3143           03643                                    TTF/8
000632: 31,3144           74342                           VSR2     VXSC
000633: 31,3145           00033                                    26D
000634: 31,3146           53255                           VAD      VAD
000635: 31,3147           74341                           V/SC     VXSC
000636: 31,3150           03643                                    TTF/8
000637: 31,3151           05656                                    3/4DP
000638: 31,3152           73725                           PDDL     VXSC*
000639: 31,3153           00037                                    30D
000640: 31,3154           02423                                    ADG,1
000641: 31,3155           53234                           RTB      VAD
000642: 31,3156           63667                                    ZEROMID
000643:


000645: 31,3157           76505        AFCCALC1           VXM      VSL1                                  #  VERTGUID COMES HERE
000646: 31,3160           02572                                    CG
000647: 31,3161           70315                           PDVL     V/SC
000648: 31,3162           01236                                    GDT/2
000649: 31,3163           05652                                    GSCALE
000650: 31,3164           45445                           BVSU     STADR
000651: 31,3165           74524                           STORE    UNFC/2                                #  UNFC/2 NEED NOT BE UNITIZED
000652: 31,3166           77646                           ABVAL
000653: 31,3167           17464        AFCCALC2           STODL    /AFC/                                 #  MAGNITUDE OF AFC FOR THROTTLE
000654: 31,3170           03253                                    UNFC/2                                #  VERTICAL COMPONENT
000655: 31,3171           65316                           DSQ      PDDL
000656: 31,3172           03255                                    UNFC/2     +2                         #  OUT-OF-PLANE
000657: 31,3173           65316                           DSQ      PDDL
000658: 31,3174           05650                                    HIGHESTF
000659: 31,3175           63471                           DDV      DSQ
000660: 31,3176           01244                                    MASS                                  #                         2    2     2
000661: 31,3177           45225                           DSU      DSU                                   #  AMAXHORIZ = SQRT(ATOTAL - A  -  A  )
000662: 31,3200           71244                           BPL      DLOAD                                 #                             1     0
000663: 31,3201           63203                                    AFCCALC3
000664: 31,3202           06520                                    ZEROVECS
000665: 31,3203           43366        AFCCALC3           SQRT     DAD
000666: 31,3204           03257                                    UNFC/2     +4
000667: 31,3205           44244                           BPL      BDSU
000668: 31,3206           63211                                    AFCCLEND
000669: 31,3207           03257                                    UNFC/2     +4
000670: 31,3210           03257                           STORE    UNFC/2     +4
000671: 31,3211           77776        AFCCLEND           EXIT
000672: 31,3212           03747                           TC       FASTCHNG
000673:
000674: 31,3213           31346                           CA       WCHPHASE                              #  PREPARE FOR PHASE SWITCHING LOGIC
000675: 31,3214           55621                           TS       WCHPHOLD
000676: 31,3215           25623                           INCR     FLPASS0                               #  INCREMENT PASS COUNTER
000677:
000678: 31,3216           51346        BRSPOT4            INDEX    WCHPHASE
000679: 31,3217           12401                           TCF      AFTRGUID
000680:
000681:                                                                                                  #  ****************************************************************************************************************
000682:                                                                                                  #  NEW PHASE NOW?
000683:                                                                                                  #  ****************************************************************************************************************
000684:
000685: 31,3220           51346        EXTLOGIC           INDEX    WCHPHASE                              #  IS TTF NEARER ZERO THAN CRITERION?
000686: 31,3221           31423                           CA       TENDBRAK
000687: 31,3222           61642                           AD       TTF/8
000688: 31,3223           00006                           EXTEND
000689: 31,3224           63233                           BZMF     CGCALC                                #  NO
000690:
000691: 31,3225           03747                           TC       FASTCHNG                              #  YES:  INCREMENT WCHPHASE, ZERO FLPASS0
000692:
000693: 31,3226           31621                           CA       WCHPHOLD
000694: 31,3227           64753                           AD       ONE
000695:


000697: 31,3230           55346                           TS       WCHPHASE
000698: 31,3231           34755                           CAF      ZERO
000699: 31,3232           55623                           TS       FLPASS0
000700:
000701:                                                                                                  #                (CONTINUE TO CGCALC)
000702:
000703:                                                                                                  #  ***************************************************************************************************************
000704:                                                                                                  #  ERECT GUIDANCE-STABLE MEMBER TRANSFORMATION MATRIX
000705:                                                                                                  #  ***************************************************************************************************************
000706:
000707: 31,3233           35014        CGCALC             CAF      EBANK5
000708: 31,3234           54003                           TS       EBANK
000709: 31,3235  E5,1453                                  EBANK=   TCGIBRAK
000710: 31,3235           00006                           EXTEND
000711: 31,3236           51346                           INDEX    WCHPHASE
000712: 31,3237           52415                           INDEX    TARGTDEX
000713: 31,3240           31453                           DCA      TCGFBRAK
000714: 31,3241           24006                           INCR     BBANK
000715: 31,3242           24006                           INCR     BBANK
000716: 31,3243  E7,1642                                  EBANK=   TTF/8
000717: 31,3243           61642                           AD       TTF/8
000718: 31,3244           56001                           XCH      L
000719: 31,3245           61642                           AD       TTF/8
000720: 31,3246           10000                           CCS      A
000721: 31,3247           10001                           CCS      L
000722: 31,3250           13301                           TCF      EXITSPOT
000723: 31,3251           13301                           TCF      EXITSPOT
000724: 31,3252           13253                           NOOP
000725:
000726: 31,3253           03673                           TC       INTPRETX
000727: 31,3254           53575                           VLOAD    UNIT
000728: 31,3255           03635                                    LAND
000729: 31,3256           16572                           STODL    CG
000730: 31,3257           03643                                    TTF/8
000731: 31,3260           74203                           DMP*     VXSC
000732: 31,3261           02447                                    GAINBRAK,1                            #  NUMERO MYSTERIOSO
000733: 31,3262           02231                                    ANGTERM
000734: 31,3263           77655                           VAD
000735: 31,3264           03635                                    LAND
000736: 31,3265           47051                           VSU      RTB
000737: 31,3266           03521                                    R
000738: 31,3267           21727                                    NORMUNIT
000739: 31,3270           47035                           VXV      RTB
000740: 31,3271           03635                                    LAND
000741: 31,3272           21727                                    NORMUNIT
000742: 31,3273           26600                           STOVL    CG         +6                         #  SECOND ROW
000743: 31,3274           02572                                    CG
000744: 31,3275           76435                           VXV      VSL1
000745: 31,3276           02600                                    CG         +6
000746: 31,3277           02606                           STORE    CG         +14
000747: 31,3300           77776                           EXIT
000748:
000749: 31,3301           51621        EXITSPOT           INDEX    WCHPHOLD
000750: 31,3302           12404                           TCF      WHATEXIT
000751:
000752:                                                                                                  #  ****************************************************************************************************************
000753:


000755:                                                                                                  #  ROUTINES FOR EXITING FROM LANDING GUIDANCE
000756:                                                                                                  #  ****************************************************************************************************************
000757:
000758:                                                                                                  #  1.        EXGSUB IS THE RETURN WHEN GUIDSUB IS CALLED BY THE IGNITION ALGORITHM.
000759:
000760:                                                                                                  #  2.        EXBRAK IN THE EXIT USED DURING THE BRAKING PHASE.  IN THIS CASE UNIT(R) IS THE WINDOW POINTING VECTOR.
000761:
000762:                                                                                                  #  3.        EXNORM IS THE EXIT USED AT OTHER TIMES DURING THE BURN.
000763:
000764:                                                                                                  #           (EXOVFLOW IS A SUBROUTINE OF EXBRAK AND EXNORM CALLED WHEN OVERFLOW OCCURRED ANYWHERE IN GUIDANCE.)
000765:
000766: 31,3303           06042        EXGSUB             TC       INTPRET                               #  COMPUTE TRIM VELOCITY CORRECTION TERM
000767: 31,3304           47175                           VLOAD    RTB
000768: 31,3305           03253                                    UNFC/2
000769: 31,3306           21727                                    NORMUNIT
000770: 31,3307           74361                           VXSC     VXSC
000771: 31,3310           03423                                    ZOOMTIME
000772: 31,3311           22001                                    TRIMACCL
000773: 31,3312           03253                           STORE    UNFC/2
000774: 31,3313           77776                           EXIT
000775:
000776: 31,3314           11647                           CCS      NGUIDSUB
000777: 31,3315           12423                           TCF      GUIDSUB
000778: 31,3316           11646                           CCS      NIGNLOOP
000779: 31,3317           13322                           TCF      +3
000780: 31,3320           05600                           TC       ALARM
000781: 31,3321           01412                           OCT      01412
000782:
000783: 31,3322           04635                 +3        TC       POSTJUMP
000784: 31,3323           64672                           CADR     DDUMCALC
000785:
000786: 31,3324           06042        EXBRAK             TC       INTPRET
000787: 31,3325           77775                           VLOAD
000788: 31,3326           03537                                    UNIT/R/
000789: 31,3327           03261                           STORE    UNWC/2
000790: 31,3330           77776                           EXIT
000791: 31,3331           13406                           TCF      STEER?
000792:
000793: 31,3332           06042        EXNORM             TC       INTPRET
000794: 31,3333           52375                           VLOAD    VSU
000795: 31,3334           03635                                    LAND
000796: 31,3335           03521                                    R
000797: 31,3336           77634                           RTB
000798: 31,3337           21727                                    NORMUNIT
000799: 31,3340           03261                           STORE    UNWC/2                                #  UNIT(LAND - R) IS TENTATIVE CHOICE
000800: 31,3341           50235                           VXV      DOT
000801: 31,3342           02146                                    XNBPIP
000802: 31,3343           02600                                    CG         +6
000803: 31,3344           77776                           EXIT                                           #  WITH PROJ IN MPAC 1/8 REAL SIZE
000804:


000806:
000807: 31,3345           40154                           CS       MPAC                                  #  GET COEFFICIENT FOR CG +14
000808: 31,3346           63764                           AD       PROJMAX
000809: 31,3347           64733                           AD       POSMAX
000810: 31,3350           54130                           TS       BUF
000811: 31,3351           40130                           CS       BUF
000812: 31,3352           26130                           ADS      BUF                                   #  RESULT IS 0 IF PROJMAX - PROJ NEGATIVE
000813:
000814: 31,3353           43765                           CS       PROJMIN                               #  GET COEFFICIENT FOR UNIT(LAND - R)
000815: 31,3354           60154                           AD       MPAC
000816: 31,3355           64733                           AD       POSMAX
000817: 31,3356           54131                           TS       BUF        +1
000818: 31,3357           40131                           CS       BUF        +1
000819: 31,3360           26131                           ADS      BUF        +1                         #  RESULT IS 0 IF PROJ - PROJMIN NEGATIVE
000820:
000821: 31,3361           34751                           CAF      FOUR
000822: 31,3362           76245        UNWCLOOP           MASK     SIX
000823: 31,3363           54002                           TS       Q
000824: 31,3364           35014                           CA       EBANK5
000825: 31,3365           54003                           TS       EBANK
000826: 31,3366  E5,1571                                  EBANK=   CG
000827: 31,3366           30130                           CA       BUF
000828: 31,3367           00006                           EXTEND
000829: 31,3370           50002                           INDEX    Q
000830: 31,3371           71605                           MP       CG         +14
000831: 31,3372           24006                           INCR     BBANK
000832: 31,3373  E6,1660                                  EBANK=   UNWC/2
000833: 31,3373           50002                           INDEX    Q
000834: 31,3374           53661                           DXCH     UNWC/2
000835: 31,3375           00006                           EXTEND
000836: 31,3376           70131                           MP       BUF        +1
000837: 31,3377           50002                           INDEX    Q
000838: 31,3400           21661                           DAS      UNWC/2
000839: 31,3401           10002                           CCS      Q
000840: 31,3402           13362                           TCF      UNWCLOOP
000841:
000842: 31,3403           31773                           CA       AZBIAS                                #  SET OUTER GIMBAL
000843: 31,3404           55677                           TS       OGABIAS                               #    ANGLE BIAS FOR WINDOW BENDING
000844:
000845: 31,3405           24006                           INCR     BBANK
000846: 31,3406  E7,1612                                  EBANK=   PIF
000847:
000848: 31,3406           30121        STEER?             CA       OVFIND                                #  OVERFLOW?
000849: 31,3407           00006                           EXTEND
000850: 31,3410           13413                           BZF      STEERSW?                              #  N: CHECK STEERSW
000851:
000852: 31,3411           03734                           TC       OVFDESC                               #  Y: REMEDIAL ACTION AND
000853: 31,3412           13432                           TCF      DISPEXIT                              #     SKIP ISSUANCE OF CMDS. NO STEERSW CHK
000854:
000855: 31,3413           40076        STEERSW?           CS       FLAGWRD2                              #  IS STEERSW UP?
000856: 31,3414           74741                           MASK     STEERBIT
000857:


000859: 31,3415           00006                           EXTEND
000860: 31,3416           13424                           BZF      THRTCALL                              #  Y: ISSUE GUIDANCE CMDS
000861:
000862: 31,3417           00004        RATESTOP           INHINT                                         #  N: REMEDIAL ACTION
000863: 31,3420           04674                           TC       IBNKCALL                              #     AND
000864: 31,3421           40166                           FCADR    STOPRATE                              #     SKIP ISSUANCE OF CMDS
000865: 31,3422           00003                           RELINT
000866: 31,3423           13432                           TCF      DISPEXIT
000867:
000868: 31,3424  31,3424               GDUMP1             =        THRTCALL
000869: 31,3424           02144        THRTCALL           TC       THROTTLE
000870: 31,3425           03747                           TC       FASTCHNG
000871: 31,3426           06042                           TC       INTPRET
000872: 31,3427           77624                           CALL
000873: 31,3430           61072                                    FINDCDUW   -2
000874: 31,3431           77776                           EXIT
000875:
000876:                                                                                                  #                (CONTINUE TO DISPEXIT)
000877:
000878:                                                                                                  #  ****************************************************************************************************************
000879:                                                                                                  #  GUIDANCE LOOP DISPLAYS
000880:                                                                                                  #  ****************************************************************************************************************
000881:
000882: 31,3432           00006        DISPEXIT           EXTEND                                         #  KILL GROUP 3:   DISPLAYS WILL BE
000883: 31,3433           34755                           DCA      NEG0                                  #    RESTORED BY NEXT GUIDANCE CYCLE
000884: 31,3434           52756                           DXCH     -PHASE3
000885:
000886: 31,3435  31,3435               ENDLLJOB           =        DISPEXIT   +3
000887:
000888: 31,3435  31,3435               DISPEX66           =        DISPEXIT   +3
000889: 31,3435           40104                 +3        CS       FLAGWRD8                              #  IF FLUNDISP IS SET, NO DISPLAY THIS PASS
000890: 31,3436           74742                           MASK     FLUNDBIT
000891: 31,3437           00006                           EXTEND
000892: 31,3440           15155                           BZF      ENDOFJOB
000893:
000894: 31,3441           51621                           INDEX    WCHPHOLD
000895: 31,3442           12406                           TCF      WHATDISP
000896:
000897: 31,3443           05165        P63DISPS           TC       VACRLEAS
000898: 31,3444           33766                           CAF      V06N63
000899: 31,3445           04616        DISPCOMN           TC       BANKCALL
000900: 31,3446           20466                           CADR     REGODSP
000901:
000902: 31,3447           31666        P64DISPS           CA       TREDES                                #  HAS TREDES REACHED ZERO?
000903: 31,3450           00006                           EXTEND
000904: 31,3451           13473                           BZF      RED-OVER                              #  YES:  CLEAR REDESIGNATION FLAG
000905:
000906: 31,3452           40102                           CS       FLAGWRD6                              #  NO:   IS REDFLAG SET?
000907: 31,3453           74746                           MASK     REDFLBIT
000908: 31,3454           00006                           EXTEND
000909: 31,3455           13475                           BZF      REDES-OK                              #  YES:  DO STATIC DISPLAY
000910:
000911: 31,3456           05165                           TC       VACRLEAS
000912: 31,3457           33767                           CAF      V06N64                                #  OTHERWISE USE FLASHING DISPLAY
000913: 31,3460           04616                           TC       BANKCALL
000914: 31,3461           20460                           CADR     REFLASH
000915: 31,3462           16001                           TCF      GOTOPOOH                              #  TERMINATE
000916: 31,3463           13465                           TCF      P64CEED                               #  PROCEED     PERMIT REDESIGNATIONS
000917: 31,3464           13447                           TCF      P64DISPS                              #  RECYCLE
000918:
000919: 31,3465           34755        P64CEED            CAF      ZERO
000920: 31,3466           55645                           TS       ELINCR1
000921: 31,3467           55644                           TS       AZINCR1
000922:
000923: 31,3470           05515                           TC       UPFLAG                                #  ENABLE REDESIGNATION LOGIC
000924: 31,3471           00143                           ADRES    REDFLAG
000925:
000926: 31,3472           15155                           TCF      ENDOFJOB
000927:
000928: 31,3473           05527        RED-OVER           TC       DOWNFLAG
000929: 31,3474           00143                           ADRES    REDFLAG
000930: 31,3475           05165        REDES-OK           TC       VACRLEAS
000931: 31,3476           33767                           CAF      V06N64
000932: 31,3477           13445                           TCF      DISPCOMN
000933:
000934:
000935: 31,3500           05165        VERTDISP           TC       VACRLEAS
000936: 31,3501           33770                           CAF      V06N60
000937: 31,3502           04616                           TC       BANKCALL
000938: 31,3503           20460                           CADR     REFLASH
000939:


000941: 31,3504           16001                           TCF      GOTOPOOH                              #  TERMINATE
000942: 31,3505           13507                           TCF      STOPFIRE                              #  PROCEED
000943: 31,3506           13507                           TCF      STOPFIRE                              #  V32E
000944:
000945: 31,3507           05527        STOPFIRE           TC       DOWNFLAG
000946: 31,3510           00016                           ADRES    P66PROFL                              #  FLAG TO STOP P66 HORIZONTAL
000947: 31,3511           15155                           TCF      ENDOFJOB
000948:
000949: 31,3512           02147        THROT66            TC       THROTTLE   +3
000950: 31,3513           25623                           INCR     CNTTHROT                              #  COUNT ONE THROTTLE COMPLETION
000951:
000952: 31,3514           13435                           TCF      DISPEX66
000953:


000955:                                                                                                  #  ****************************************************************************************************************
000956:                                                                                                  #  GUIDANCE FOR P66
000957:                                                                                                  #  ****************************************************************************************************************
000958:
000959:                                                                                                  #           THE P66 HORIZONTAL (HZ) EQUATION IS:
000960:
000961:                                                                                                  #                  UNFC/2X = GHZ
000962:
000963:                                                                                                  #                  UNFC/2Y = (LIMIT AHZLIM)(-QHZ UNFC/2Y   -(VY-VHZCY)/TAUHZ)
000964:                                                                                                  #                                                       I-1
000965:
000966:                                                                                                  #                  UNFC/2Z = (LIMIT AHZLIM)(-QHZ UNFC/2Z   -(VZ-VHZCZ)/TAUHZ)
000967:                                                                                                  #                                                       I-1
000968:
000969:                                                                                                  #           WHERE  GHZ IS LUNAR GRAVITY
000970:                                                                                                  #                  QHZ AND 1/TAUHZ ARE GAIN CONSTANTS
000971:                                                                                                  #                  VHZCY AND VHZCZ ARE THE Y AND Z COMPONENTS OF COMMANDED
000972:                                                                                                  #                     VELOCITY, PLATFORM COORDINATES. THESE ARE INITIALIZED
000973:                                                                                                  #                     TO MOONRATE
000974:                                                                                                  #                  (LIMIT AHZLIM) INDICATES THE CONTENT OF THE SUBSEQUENT
000975:                                                                                                  #                     PARENTHESES IS MAGNITUDE LIMITED TO AHZLIM
000976:
000977: 31,3515           05364        P66                TC       PHASCHNG                              #  TERMINATE GROUP 3
000978: 31,3516           00003                           OCT      00003
000979:
000980: 31,3517           06042                           TC       INTPRET
000981: 31,3520           45234                           RTB      DSU                                   #  IS THERE TIME FOR P66?
000982: 31,3521           21574                                    LOADTIME
000983: 31,3522           01234                                    PIPTIME
000984: 31,3523           51021                           BDSU     BPL
000985: 31,3524           02500                                    2LATE466
000986: 31,3525           65067                                    P66HZ                                 #  Y: DOIT
000987: 31,3526           77414                           CLEAR    EXIT                                  #  N: OMIT
000988: 31,3527           00663                                    RODFLAG
000989:
000990: 31,3530           41464                           CS       TOOFEW                                #  INITIALIZE CNTTHROT TO TOOFEW AND LOAD
000991: 31,3531           57623                           XCH      CNTTHROT                              #  ACCUMULATOR WITH ITS PREVIOUS CONTENTS
000992: 31,3532           00006                           EXTEND                                         #  TOO FEW THROTTLINGS SINCE LAST OMISSION?
000993: 31,3533           63535                           BZMF     OMITWALM
000994:
000995: 31,3534           13435                           TCF      DISPEX66                              #  N: PERMIT OMISSION SANS ALARM
000996:
000997: 31,3535           00004        OMITWALM           INHINT
000998: 31,3536           04616                           TC       BANKCALL
000999: 31,3537           40166                           CADR     STOPRATE
001000: 31,3540           05600                           TC       ALARM                                 #  Y: PERMIT OMISSION WITH ALARM
001001: 31,3541           01466                           OCT      01466
001002:
001003: 31,3542           13435                           TCF      DISPEX66
001004:


001006:                                                                                                  #  ****************************************************************************************************************
001007:                                                                                                  #  GUIDANCE FOR P66
001008:                                                                                                  #  ****************************************************************************************************************
001009:
001010: 32,2000                                           SETLOC   P66LOC
001011: 32,2000                                           BANK
001012: 32,3067                                           COUNT*   $$/F2DPS
001013:
001014: 32,3067           74375        P66HZ              VLOAD    VXSC
001015: 32,3070           03253                                    UNFC/2                                #  P63, P64, & P66 UNITS 2(-4)M/CS/CS
001016: 32,3071           02476                                    QHZ
001017: 32,3072           52315                           PDVL     VSU
001018: 32,3073           03434                                    VHZC                                  #  IN 2(7)M/CS
001019: 32,3074           03527                                    V                                     #  IN 2(7)M/CS
001020: 32,3075           52341                           V/SC     VSU                                   #  YIELDS UNLIM HZ ACCEL CMD, 2(-4)M/CS/CS
001021: 32,3076           02475                                    TAUHZ                                 #  IN 2(1))CS
001022: 32,3077           77776                           EXIT
001023:
001024: 32,3100           35031                           CA       PRIO21                                #  ASSURE THIS SERVICER JOB ENDS
001025: 32,3101           05146                           TC       PRIOCHNG                              #  BEFORE NEXT SERVICER JOB BEGINS
001026:
001027: 32,3102           33415                           CA       GHZ
001028: 32,3103           54154                           TS       MPAC                                  #  X COMPONENT = G
001029:
001030: 32,3104           35014                           CA       EBANK5
001031: 32,3105           54003                           TS       EBANK
001032: 32,3106  E5,1774                                  EBANK=   END-E5
001033:
001034: 32,3106           22157                           LXCH     MPAC       +3
001035: 32,3107           31476                           CA       AHZLIM
001036: 32,3110           04616                           TC       BANKCALL
001037: 32,3111           61712                           FCADR    LIMITSUB
001038: 32,3112           54157                           TS       MPAC       +3                         #  Y COMPONENT LIMITED TO AHZLIM
001039:
001040: 32,3113           22161                           LXCH     MPAC       +5
001041: 32,3114           31476                           CA       AHZLIM
001042: 32,3115           04616                           TC       BANKCALL
001043: 32,3116           61712                           FCADR    LIMITSUB
001044: 32,3117           54161                           TS       MPAC       +5                         #  Z COMPONENT LIMITED TO AHZLIM
001045:
001046: 32,3120           35016                           CA       EBANK7
001047: 32,3121           54003                           TS       EBANK
001048: 32,3122  E7,1777                                  EBANK=   END-E7
001049:
001050: 32,3122           30121                           CA       OVFIND                                #  OVERFLOW?
001051: 32,3123           00006                           EXTEND
001052: 32,3124           13130                           BZF      ENGARM?                               #  N: KEEP CHECKING
001053: 32,3125           04616                           TC       BANKCALL                              #  Y: TAKE REMEDIAL ACTION
001054: 32,3126           63734                           FCADR    OVFDESC                               #     AND
001055: 32,3127           13157                           TCF      P66VERT                               #     SKIP ISSUANCE OF HZ CMDS
001056:


001058: 32,3130           34751        ENGARM?            CA       BIT3                                  #  IS ENGINE ARM SWITCH STILL ON?
001059: 32,3131           00006                           EXTEND
001060: 32,3132           02030                           RAND     CHAN30
001061: 32,3133           00006                           EXTEND
001062: 32,3134           13141                           BZF      CDUWHZ                                #  Y: ISSUE HZ CMDS
001063:
001064: 32,3135           30074                           CA       FLAGWRD0                              #  N: HAVE WE PROCEEDED AFTER TOUCHDOWN?
001065: 32,3136           74753                           MASK     P66PROBT
001066: 32,3137           00006                           EXTEND
001067: 32,3140           13147                           BZF      ASTROPRO                              #  Y: PREVENT RCS FIRINGS
001068: 32,3141           06042        CDUWHZ             TC       INTPRET                               #  N: ISSUE HZ CMDS
001069: 32,3142           03253                           STORE    UNFC/2                                #  MUST STORE FOR SUCCEEDING PASS
001070: 32,3143           77624                           CALL
001071: 32,3144           61074                                    FINDCDUW
001072: 32,3145           77776                           EXIT
001073:
001074: 32,3146           13157                           TCF      P66VERT
001075:
001076: 32,3147           33414        ASTROPRO           CA       IDLADR                                #  Y: PREVENT RCS JET FIRINGS
001077: 32,3150           55263                           TS       T5ADR                                 #     AND
001078: 32,3151           13157                           TCF      P66VERT                               #     SKIP HZ CMDS, BUT CONTINUE DISPLAYS
001079:
001080:                                                                                                  #  ***************************************************************************************************************
001081:                                                                                                  #  P66 VERTICAL CHANNEL
001082:                                                                                                  #  ***************************************************************************************************************
001083:
001084: 32,3152           37713        RODTASK            CA       PRIO22                                #  BUMPS ALL OF SERVICER JOB EXCEPT RODCOMP
001085: 32,3153           05105                           TC       FINDVAC
001086: 32,3154  E7,1515                                  EBANK=   DVCNTR
001087: 32,3154           03162 64067                     2CADR    RODCOMP
001088: 32,3156           15272                           TCF      TASKOVER
001089:
001090: 32,3157           34777        P66VERT            CA       1SEC
001091: 32,3160           05204                           TC       TWIDDLE
001092: 32,3161           03152                           ADRES    RODTASK
001093:
001094: 32,3162           37714        RODCOMP            CA       PRIO23                                #  LET ONLY ONE JOB THRU RODCOMP AT A TIME
001095: 32,3163           05146                           TC       PRIOCHNG
001096:
001097: 32,3164           00004                           INHINT
001098:
001099: 32,3165           34755                           CAF      ZERO
001100: 32,3166           57746                           XCH      RODCOUNT
001101: 32,3167           00006                           EXTEND
001102: 32,3170           71756                           MP       RODSCAL1
001103: 32,3171           21645                           DAS      VDGVERT                               #  UPDATE DESTRED ALTITUDE RATE.
001104:
001105: 32,3172           34747                           CAF      BIT5                                  #  ARE WE IN AUTO THROTTLE?
001106: 32,3173           00006                           EXTEND
001107: 32,3174           02030                           RAND     CHAN30
001108: 32,3175           00006                           EXTEND
001109: 32,3176           13202                           BZF      RODCOMPA                              #  Y: CONTINUE ROD
001110:
001111: 32,3177           00006                           EXTEND                                         #  N: RESET VDGVERT TO CURRENT HDOT
001112: 32,3200           31474                           DCA      HDOTDISP
001113: 32,3201           53645                           DXCH     VDGVERT
001114:
001115:                                                                                                  #  READ THE PIPAS FOR P66
001116:
001117: 32,3202           00006        RODCOMPA           EXTEND
001118: 32,3203           30040                           DCA      PIPAX
001119: 32,3204           53764                           DXCH     OLDPIPAX                              #  CURRENT PIPA READINGS INTO OLDPIPAX,Y,Z
001120: 32,3205           52071                           DXCH     RUPTREG1                              #  SAVE PRIOR READINGS IN RUPTREG1,2,3
001121: 32,3206           30041                           CA       PIPAZ
001122: 32,3207           57765                           XCH      OLDPIPAZ
001123: 32,3210           56072                           XCH      RUPTREG3
001124:
001125: 32,3211           00006                           EXTEND                                         #  SNAPSHOT TIME OF PIPA READING.
001126: 32,3212           30025                           DCA      TIME2
001127: 32,3213           53762                           DXCH     THISTPIP
001128:
001129: 32,3214           31763                           CA       OLDPIPAX
001130: 32,3215           61157                           AD       PIPATMPX
001131: 32,3216           54154                           TS       MPAC                                  #  MPAC(X) = PIPAX + PIPATMPX
001132: 32,3217           31764                           CA       OLDPIPAY
001133: 32,3220           61160                           AD       PIPATMPY
001134: 32,3221           54157                           TS       MPAC       +3                         #  MPAC(Y) = PIPAY + PIPATMPY
001135: 32,3222           31765                           CA       OLDPIPAZ
001136: 32,3223           61161                           AD       PIPATMPZ
001137: 32,3224           54161                           TS       MPAC       +5                         #  MPAC(Z) = PIPAZ + PIPATMPZ
001138:
001139:                                                                                                  #  COMPUTE DELV SINCE THE LAST P66 PASS
001140:
001141: 32,3225           41763                           CS       OLDPIPAX                              #  - CURRENT P66 PIPA
001142: 32,3226           61253                           AD       TEMX                                  #  - PIPA BY PIPASR IF INTERVENING, ELSE 0
001143: 32,3227           60070                           AD       RUPTREG1                              #  + PIPA BY P66 ON THE LAST P66 PASS
001144: 32,3230           55766                           TS       DELVROD                               #  = -DELV SINCE LAST P66 PASS, 2(14)CM/SEC
001145: 32,3231           41764                           CS       OLDPIPAY
001146: 32,3232           61254                           AD       TEMY
001147: 32,3233           60071                           AD       RUPTREG2
001148:


001150: 32,3234           55770                           TS       DELVROD    +2
001151: 32,3235           41765                           CS       OLDPIPAZ
001152: 32,3236           61255                           AD       TEMZ
001153: 32,3237           60072                           AD       RUPTREG3
001154: 32,3240           55772                           TS       DELVROD    +4
001155:
001156: 32,3241           34755                           CAF      ZERO
001157: 32,3242           54155                           TS       MPAC       +1                         #  ZERO LO-ORDER MPAC COMPONENTS
001158: 32,3243           54160                           TS       MPAC       +4
001159: 32,3244           54162                           TS       MPAC       +6
001160: 32,3245           55253                           TS       TEMX                                  #  ZERO TEMX, TEMY, AND TEMZ SO WE WILL
001161: 32,3246           55254                           TS       TEMY                                  #        KNOW WHEN READACCS CHANGES THEM.
001162: 32,3247           55255                           TS       TEMZ
001163: 32,3250           44753                           CS       ONE
001164: 32,3251           54163                           TS       MODE
001165:
001166: 32,3252           06042                           TC       INTPRET
001167: 32,3253           65361        ITRPNT1            VXSC     PDDL                                  #  SCALE MPAC TO M/CS *2(-7) AND PUSH   (6)
001168: 32,3254           26074                                    KPIP1
001169: 32,3255           03762                                    THISTPIP
001170: 32,3256           77625                           DSU
001171: 32,3257           01234                                    PIPTIME
001172: 32,3260           00037                           STORE    30D                                   #  30-31D CONTAINS TIME IN CS SINCE PIPTIME
001173: 32,3261           63271                           DDV      PDVL                                  #                                       (8)
001174: 32,3262           27020                                    4SEC(28)
001175: 32,3263           01236                                    GDT/2
001176: 32,3264           74251                           VSU      VXSC                                  #                                       (6)
001177: 32,3265           02616                                    VBIAS
001178: 32,3266           53352                           VSL2     VAD
001179: 32,3267           03527                                    V
001180: 32,3270           45455                           VAD      STADR                                 #                                       (0)
001181: 32,3271           53746                           STOVL    24D                                   #  STORE UPDATED VELOCITY IN 24-29D
001182: 32,3272           03521                                    R
001183: 32,3273           77656                           UNIT
001184: 32,3274           00017                           STORE    14D
001185: 32,3275           72441                           DOT      SL1
001186: 32,3276           00031                                    24D
001187: 32,3277           17474                           STODL    HDOTDISP                              #  UPDATE ALTITUDE RATE FOR NOUN 60
001188: 32,3300           00037                                    30D
001189: 32,3301           41261                           SL       DMP
001190: 32,3302           20214                                    11D
001191: 32,3303           03474                                    HDOTDISP
001192: 32,3304           45215                           DAD      DSU
001193: 32,3305           00045                                    36D
001194: 32,3306           02301                                    /LAND/
001195: 32,3307           17775                           STODL    HCALC1                                #  UPDATE ALTITUDE FOR NOUN 60


001197: 32,3310           03474                                    HDOTDISP
001198: 32,3311           56221                           BDSU     DDV
001199: 32,3312           03645                                    VDGVERT
001200: 32,3313           02536                                    TAUROD
001201: 32,3314           51515                           PDVL     ABVAL                                 #                                       (2)
001202: 32,3315           01236                                    GDT/2
001203: 32,3316           60471                           DDV      SR2
001204: 32,3317           05652                                    GSCALE
001205: 32,3320           00025                           STORE    20D
001206: 32,3321           43234                           RTB      DAD                                   #                                       (0)
001207: 32,3322           47613                                    QTPROLOG                              #  QUICTRIG PRESERVES MPAC
001208: 32,3323           45115                           PDVL     CALL                                  #                                       (2)
001209: 32,3324           06516                                    UNITX                                 #  X AXIS IN NB COORDS
001210: 32,3325           47700                                    *NBSM*                                #  TRANSFORMS TO SM COORDS
001211: 32,3326           77641                           DOT
001212: 32,3327           00017                                    14D
001213: 32,3330           00027                           STORE    22D
001214: 32,3331           45465                           BDDV     STADR                                 #                                       (0)
001215: 32,3332           50313                           STOVL    /AFC/
001216: 32,3333           03767                                    DELVROD
001217: 32,3334           53361                           VXSC     VAD
001218: 32,3335           26074                                    KPIP1
001219: 32,3336           02616                                    VBIAS
001220: 32,3337           65246                           ABVAL    PDDL                                  #                                       (2)
001221: 32,3340           03762                                    THISTPIP
001222: 32,3341           65225                           DSU      PDDL                                  #                                       (4)
001223: 32,3342           03760                                    LASTTPIP
001224: 32,3343           03762                                    THISTPIP
001225: 32,3344           17760                           STODL    LASTTPIP                              #                                        (2)
001226: 32,3345           55271                           DDV      BDDV                                  #                                        (0)
001227: 32,3346           25420                                    SHFTFACT
001228: 32,3347           41325                           PDDL     DMP                                   #                                        (2)
001229: 32,3350           03611                                    FWEIGHT
001230: 32,3351           25417                                    BIT1H
001231: 32,3352           56271                           DDV      DDV
001232: 32,3353           01244                                    MASS
001233: 32,3354           22006                                    SCALEFAC
001234: 32,3355           65215                           DAD      PDDL                                  #                                        (4)
001235: 32,3356           00001                                    0D
001236: 32,3357           00025                                    20D
001237: 32,3360           45271                           DDV      DSU                                   #                                        (2)
001238: 32,3361           00027                                    22D
001239:


001241: 32,3362           43205                           DMP      DAD
001242: 32,3363           02540                                    LAG/TAU
001243: 32,3364           03464                                    /AFC/
001244: 32,3365           56325                           PDDL     DDV                                   #                                        (4)
001245: 32,3366           02544                                    MAXFORCE
001246: 32,3367           01244                                    MASS
001247: 32,3370           56325                           PDDL     DDV                                   #                                        (6)
001248: 32,3371           02542                                    MINFORCE
001249: 32,3372           01244                                    MASS
001250: 32,3373           44206                           PUSH     BDSU                                  #                                        (8)
001251: 32,3374           00003                                    2D
001252: 32,3375           71240                           BMN      DLOAD                                 #                                        (6)
001253: 32,3376           65404                                    AFCSPOT
001254: 32,3377           41545                           DLOAD    PUSH                                  #                                        (6)
001255: 32,3400           51021                           BDSU     BPL
001256: 32,3401           00003                                    2D
001257: 32,3402           65404                                    AFCSPOT
001258: 32,3403           77745                           DLOAD                                          #                                        (4)
001259: 32,3404           77745        AFCSPOT            DLOAD                                          #                             (2),(4),OR (6)
001260: 32,3405           77601                           SETPD                                          #                                        (2)
001261: 32,3406           00003                                    2D
001262: 32,3407           17464                           STODL    /AFC/                                 #                                        (0)
001263: 32,3410           77776        ITRPNT2            EXIT
001264: 32,3411           52155                           DXCH     MPAC                                  #  MPAC = MEASURED ACCELERATION.
001265: 32,3412           04635                           TC       POSTJUMP
001266: 32,3413           63512                           FCADR    THROT66
001267:


001269:                                                                                                  #  CONSTANTS FOR P66
001270:
001271: 32,3414           02024        IDLADR             GENADR   DAPIDLER
001272: 32,3415           00053        GHZ                DEC      1.62292    E-4        B+4             #  GRAVITY IN 2(-4)M/CS/CS
001273:
001274: 32,3416           00001        BIT1H              OCT      00001                                 #  MUST PRECEDE A ZERO
001275: 32,3417           00000 04000  SHFTFACT           2DEC     1          B-17                       #  SCALES P66 PERIOD TO 2(1))CS
001276: 32,3421           00000 05075  BIASFACT           2DEC     655.36     B-26
001277:


001279:                                                                                                  #  ****************************************************************************************************************
001280:                                                                                                  #  REDESIGNATOR TRAP
001281:                                                                                                  #  ****************************************************************************************************************
001282:
001283:                                                                                                  #  END INSERT
001284: 11,2302                                           BANK     11
001285: 11,2000                                           SETLOC   F2DPS*11
001286: 11,2000                                           BANK
001287:
001288: 11,2302                                           COUNT*   $$/F2DPS
001289:
001290: 11,2302           56016        PITFALL            XCH      BANKRUPT
001291: 11,2303           00006                           EXTEND
001292: 11,2304           22012                           QXCH     QRUPT
001293:
001294: 11,2305           05332                           TC       CHECKMM                               #  IF NOT IN P64, NO REASON TO CONTINUE
001295: 11,2306           00100                           DEC      64         B-14
001296: 11,2307           15301                           TCF      RESUME
001297:
001298: 11,2310           00006                           EXTEND
001299: 11,2311           00031                           READ     CHAN31
001300: 11,2312           40000                           COM
001301: 11,2313           72401                           MASK     ALL4BITS
001302: 11,2314           55647                           TS       ELVIRA
001303: 11,2315           34752                           CAF      TWO
001304: 11,2316           55646                           TS       ZERLINA
001305: 11,2317           34756                           CAF      FIVE
001306: 11,2320           05204                           TC       TWIDDLE
001307: 11,2321           02326                           ADRES    REDESMON
001308: 11,2322           15301                           TCF      RESUME
001309:
001310:
001311:                                                                                                  #  REDESIGNATION MONITOR (INITIATED BY PITFALL)
001312:
001313:
001314: 11,2323           55646        PREMON1            TS       ZERLINA
001315: 11,2324           34757        PREMON2            CAF      SEVEN
001316: 11,2325           05235                           TC       VARDELAY
001317: 11,2326           00006        REDESMON           EXTEND
001318: 11,2327           00031                           READ     31
001319: 11,2330           40000                           COM
001320: 11,2331           72401                           MASK     ALL4BITS
001321: 11,2332           57647                           XCH      ELVIRA
001322: 11,2333           54001                           TS       L
001323: 11,2334           11647                           CCS      ELVIRA                                #  DO ANY BITS APPEAR THIS PASS?
001324: 11,2335           12324                           TCF      PREMON2                               #    Y: CONTINUE MONITOR
001325:
001326: 11,2336           10001                           CCS      L                                     #    N: ANY LAST PASS?
001327: 11,2337           12347                           TCF      COUNT'EM                              #       Y: COUNT 'EM, RESET RUPT, TERMINATE
001328: 11,2340           11646                           CCS      ZERLINA                               #       N: HAS ZERLINA REACHED ZERO YET?
001329:


001331: 11,2341           12323                           TCF      PREMON1                               #       N: DIMINISH ZERLINA, CONTINUE
001332: 11,2342           06022        RESETRPT           TC       C13STALL                              #       Y: RESET RUPT, TERMINATE
001333: 11,2343           34740                           CAF      BIT12
001334: 11,2344           00006                           EXTEND
001335: 11,2345           05013                           WOR      CHAN13
001336: 11,2346           15272                           TCF      TASKOVER
001337:
001338: 11,2347           34737        COUNT'EM           CAF      BIT13                                 #  ARE WE IN ATTITUDE-HOLD?
001339: 11,2350           00006                           EXTEND
001340: 11,2351           02031                           RAND     CHAN31
001341: 11,2352           00006                           EXTEND
001342: 11,2353           12342                           BZF      RESETRPT                              #  YES: SKIP REDESIGNATION LOGIC.
001343:
001344: 11,2354           30001                           CA       L                                     #  NO
001345: 11,2355           74746                           MASK     -AZBIT
001346: 11,2356           10000                           CCS      A
001347: 11,2357           42402        -AZ                CS       AZEACH
001348: 11,2360           27644                           ADS      AZINCR1
001349: 11,2361           30001                           CA       L
001350: 11,2362           74747                           MASK     +AZBIT
001351: 11,2363           10000                           CCS      A
001352: 11,2364           32402        +AZ                CA       AZEACH
001353: 11,2365           27644                           ADS      AZINCR1
001354: 11,2366           30001                           CA       L
001355: 11,2367           74753                           MASK     -ELBIT
001356: 11,2370           10000                           CCS      A
001357: 11,2371           42403        -EL                CS       ELEACH
001358: 11,2372           27645                           ADS      ELINCR1
001359: 11,2373           30001                           CA       L
001360: 11,2374           74752                           MASK     +ELBIT
001361: 11,2375           10000                           CCS      A
001362: 11,2376           32403        +EL                CA       ELEACH
001363: 11,2377           27645                           ADS      ELINCR1
001364: 11,2400           12342                           TCF      RESETRPT
001365:
001366:                                                                                                  #  THESE EQUIVALENCIES ARE BASED ON GSOP CHAPTER 4, REVISION 16 OF P64LM
001367:
001368: 11,2401     4752               +ELBIT             =        BIT2                                  #  -PITCH
001369:
001370:
001371: 11,2401     4753               -ELBIT             =        BIT1                                  #  +PITCH
001372:
001373:
001374: 11,2401     4747               +AZBIT             =        BIT5
001375:
001376:
001377: 11,2401     4746               -AZBIT             =        BIT6
001378:


001380:
001381: 11,2401           00063        ALL4BITS           OCT      00063
001382:
001383:
001384: 11,2402           01074        AZEACH             DEC      .03491                                #  2 DEGREES
001385:
001386:
001387: 11,2403           00217        ELEACH             DEC      .00873                                #  1/2 DEGREE
001388:
001389:                                                                                                  #  ****************************************************************************************************************
001390:                                                                                                  #  R.O.D. TRAP
001391:                                                                                                  #  ************************************************************************
001392:
001393: 23,2000                                           SETLOC   RODTRAP
001394: 23,2000                                           BANK
001395: 23,2451                                           COUNT*   $$/F2DPS                              #  ****************************************
001396:
001397: 23,2451           74745        DESCBITS           MASK     BIT7                                  #  COME HERE FROM MARKRUPT CODING WITH BIT
001398: 23,2452           10000                           CCS      A                                     #    7 OR 6 OF CHANNEL 16 IN A: BIT 7 MEANS
001399: 23,2453           44752                           CS       TWO                                   #    - RATE INCREMENT, BIT 6 + INCREMENT
001400: 23,2454           64753                           AD       ONE
001401: 23,2455           27746                           ADS      RODCOUNT
001402: 23,2456           15301                           TCF      RESUME                                #  TRAP IS RESET WHEN SWITCH IS RELEASED
001403:
001404:
001405: 31,3543                                           BANK     31
001406: 31,2000                                           SETLOC   F2DPS*31
001407: 31,2000                                           BANK
001408:
001409: 31,3543                                           COUNT*   $$/F2DPS
001410:
001411:                                                                                                  #  ****************************************************************************************************************
001412:                                                                                                  #  DOUBLE PRECISION ROOT FINDER SUBROUTINE (BY ALLAN KLUMPP)
001413:                                                                                                  #  ****************************************************************************************************************
001414:
001415:                                                                                                  #                                                          N        N-1
001416:                                                                                                  #           ROOTPSRS FINDS ONE ROOT OF THE POWER SERIES A X  + A   X    + ... + A X + A
001417:                                                                                                  #                                                        N      N-1              1     0
001418:
001419:                                                                                                  #  USING NEWTON'S METHOD STARTING WITH AN INITIAL GUESS FOR THE ROOT.  THE ENTERING DATA MUST BE AS FOLLOWS:
001420:
001421:                                                                                                  #                                          A        SP     LOC-3            ADRES FOR REFERENCING PWR COF TABL
001422:                                                                                                  #                                          L        SP     N-1              N IS THE DEGREE OF THE POWER SERIES
001423:                                                                                                  #                                          MPAC     DP     X                INITIAL GUESS FOR ROOT
001424:
001425:                                                                                                  #                                          LOC-2N   DP     A(0)
001426:                                                                                                  #                                                   ...
001427:                                                                                                  #                                          LOC      DP     A(N)
001428:                                                                                                  #                                          LOC+2    SP     PRECROOT         PREC RQD OF ROOT (AS FRACT OF 1ST GUESS)
001429:
001430:                                                                                                  #  THE DP RESULT IS LEFT IN MPAC UPON EXIT, AND A SP COUNT OF THE ITERATIONS TO CONVERGENCE IS LEFT IN MPAC+2.
001431:                                                                                                  #  RETURN IS NORMALLY TO LOC(TC ROOTPSRS)+3.   IF ROOTPSRS FAILS TO CONVERGE IN 8 PASSES, RETURN IS TO LOC+1 AND
001432:                                                                                                  #  OUTPUTS ARE NOT TO BE TRUSTED.
001433:
001434:                                                                                                  #           PRECAUTION: ROOTPSRS MAKES NO CHECKS FOR OVERFLOW OR FOR IMPROPER USAGE. IMPROPER USAGE COULD
001435:                                                                                                  #  PRECLUDE CONVERGENCE OR REQUIRE EXCESSIVE ITERATIONS. AS A SPECIFIC EXAMPLE, ROOTPSRS FORMS A DERIVATIVE
001436:                                                                                                  #  COEFFICIENT TABLE BY MULTIPLYING EACH A(I) BY I, WHERE I RANGES FROM 1 TO N. IF AN ELEMENT OF THE DERIVATIVE
001437:                                                                                                  #  COEFFICIENT TABLE = 1 OR > 1 IN MAGNITUDE, ONLY THE EXCESS IS RETAINED. ROOTPSRS MAY CONVERGE ON THE CORRECT
001438:                                                                                                  #  ROOT NONETHELESS, BUT IT MAY TAKE AN EXCESSIVE NUMBER OF ITERATIONS. THEREFORE THE USER SHOULD RECOGNIZE:
001439:
001440:                                                                                                  #  1. USER'S RESPONSIBILITY TO ASSURE THAT I X A(I) < 1 IN MAGNITUDE FOR ALL I.
001441:
001442:                                                                                                  #  2. USER'S RESPONSIBILITY TO ASSURE OVERFLOW WILL NOT OCCUR IN EVALUATING EITHER THE RESIDUAL OR THE DERIVATIVE
001443:                                                                                                  #     POWER SERIES.   THIS OVERFLOW WOULD BE PRODUCED BY SUBROUTINE POWRSERS, CALLED BY ROOTPSRS, AND MIGHT NOT
001444:                                                                                                  #     PRECLUDE EVENTUAL CONVERGENCE.
001445:


001447:                                                                                                  #  3. AT PRESENT, ERASABLE LOCATIONS ARE RESERVED ONLY FOR N UP TO 5.  AN N IN EXCESS OF 5 WILL PRODUCE CHAOS.
001448:                                                                                                  #     ALL ERASABLES USED BY ROOTPSRS ARE UNSWITCHED LOCATED IN THE REGION FROM MPAC-33 OCT TO MPAC+7.
001449:
001450:                                                                                                  #  4. THE ITERATION COUNT RETURNED IN MPAC+2 MAY BE USED TO DETECT ABNORMAL PERFORMANCE.
001451:
001452:                                                                                                  #  STORE ENTERING DATA, INITLIZE ERASABLES
001453:
001454: 31,3543           00006        ROOTPSRS           EXTEND
001455: 31,3544           22132                           QXCH     RETROOT                               #  RETURN ADRES
001456: 31,3545           54117                           TS       PWRPTR                                #  PWR TABL POINTER
001457: 31,3546           52160                           DXCH     MPAC       +3                         #  PWR TABL ADRES, N-1
001458: 31,3547           33666                           CA       DERTABLL
001459: 31,3550           54141                           TS       DERPTR                                #  DER TABL POINTER
001460: 31,3551           54161                           TS       MPAC       +5                         #  DER TABL ADRES
001461: 31,3552           10160                           CCS      MPAC       +4                         #  NO POWER SERIES OF DEGREE 1 OR LESS
001462: 31,3553           54162                           TS       MPAC       +6                         #  N-2
001463: 31,3554           34755                           CA       ZERO                                  #  MODE USED AS ITERATION COUNTER. MODE
001464: 31,3555           54163                           TS       MODE                                  #  MUST BE POS SO ABS WON'T COMP MPAC+3 ETC
001465:
001466:                                                                                                  #  COMPUTE CRITERION TO STOP ITERATING
001467:
001468: 31,3556           00006                           EXTEND
001469: 31,3557           30155                           DCA      MPAC                                  #  FETCH ROOT GUESS, KEEPING IT IN MPAC
001470: 31,3560           52127                           DXCH     ROOTPS                                #  AND IN ROOTPS
001471: 31,3561           50157                           INDEX    MPAC       +3                         #  PWR TABL ADRES
001472: 31,3562           30005                           CA       5                                     #  PRECROOT TO A
001473: 31,3563           07312                           TC       SHORTMP                               #  YIELDS DP PRODUCT IN MPAC
001474: 31,3564           04713                           TC       USPRCADR
001475: 31,3565           01226                           CADR     ABS                                   #  YIELDS ABVAL OF CRITERION ON DX IN MPAC
001476: 31,3566           52155                           DXCH     MPAC
001477: 31,3567           52125                           DXCH     DXCRIT                                #  CRITERION
001478:
001479:                                                                                                  #  SET UP DER COF TABL
001480:
001481: 31,3570           00006                           EXTEND
001482: 31,3571           50117                           INDEX    PWRPTR
001483: 31,3572           30004                           DCA      3
001484: 31,3573           52155                           DXCH     MPAC                                  #  A(N) TO MPAC
001485:
001486: 31,3574           30160                           CA       MPAC       +4                         #  N-1 TO A
001487:
001488: 31,3575           54140        DERCLOOP           TS       PWRCNT                                #  LOOP COUNTER
001489: 31,3576           64753                           AD       ONE
001490: 31,3577           07321                           TC       DMPNSUB                               #  YIELDS DERCOF = I X A(I) IN MPAC
001491: 31,3600           00006                           EXTEND
001492: 31,3601           50117                           INDEX    PWRPTR
001493: 31,3602           30002                           DCA      1
001494: 31,3603           52155                           DXCH     MPAC                                  #  A(I-1) TO MPAC, FETCHING DERCOF
001495: 31,3604           50141                           INDEX    DERPTR
001496: 31,3605           52004                           DXCH     3                                     #  DERCOF TO DER TABL
001497:


001499: 31,3606           44752                           CS       TWO
001500: 31,3607           26117                           ADS      PWRPTR                                #  DECREMENT PWR POINTER
001501: 31,3610           44752                           CS       TWO
001502: 31,3611           26141                           ADS      DERPTR                                #  DECREMENT DER POINTER
001503: 31,3612           10140                           CCS      PWRCNT
001504: 31,3613           13575                           TCF      DERCLOOP
001505:
001506:                                                                                                  #  CONVERGE ON ROOT
001507:
001508: 31,3614           00006        ROOTLOOP           EXTEND
001509: 31,3615           30127                           DCA      ROOTPS                                #  FETCH CURRENT ROOT
001510: 31,3616           52155                           DXCH     MPAC                                  #  LEAVE IN MPAC
001511: 31,3617           00006                           EXTEND
001512: 31,3620           30162                           DCA      MPAC       +5                         #  LOAD A, L WITH DER TABL ADRES, N-2
001513: 31,3621           07220                           TC       POWRSERS                              #  YIELDS DERIVATIVE IN MPAC
001514:
001515: 31,3622           00006                           EXTEND
001516: 31,3623           30127                           DCA      ROOTPS
001517: 31,3624           52155                           DXCH     MPAC                                  #  CURRENT ROOT TO MPAC, FETCHING DERIVTIVE
001518: 31,3625           52131                           DXCH     BUF                                   #  LEAVE DERIVATIVE IN BUF AS DIVISOR
001519: 31,3626           00006                           EXTEND
001520: 31,3627           30160                           DCA      MPAC       +3                         #  LOAD A, L WITH PWR TABL ADRES, N-1
001521: 31,3630           07220                           TC       POWRSERS                              #  YIELDS RESIDUAL IN MPAC
001522:
001523: 31,3631           04713                           TC       USPRCADR
001524: 31,3632           00353                           CADR     DDV/BDDV                              #  YIELDS -DX IN MPAC
001525:
001526: 31,3633           00006                           EXTEND
001527: 31,3634           40155                           DCS      MPAC                                  #  FETCH DX, LEAVING -DX IN MPAC
001528: 31,3635           20127                           DAS      ROOTPS                                #  CORRECTED ROOT NOW IN ROOTPS
001529:
001530: 31,3636           04713                           TC       USPRCADR
001531: 31,3637           01226                           CADR     ABS                                   #  YIELDS ABS(DX) IN MPAC
001532: 31,3640           00006                           EXTEND
001533: 31,3641           40125                           DCS      DXCRIT
001534: 31,3642           20155                           DAS      MPAC                                  #  ABS(DX)-ABS(DXCRIT) IN MPAC
001535:
001536: 31,3643           30163                           CA       MODE
001537: 31,3644           74750                           MASK     BIT4                                  #  KLUMPP SAYS GIVE UP AFTER EIGHT PASSES
001538: 31,3645           10000                           CCS      A
001539: 31,3646           00132        BADROOT            TC       RETROOT
001540:
001541: 31,3647           24163                           INCR     MODE                                  #  INCREMENT ITERATION COUNTER
001542: 31,3650           10154                           CCS      MPAC                                  #  TEST HI ORDER DX
001543: 31,3651           13614                           TCF      ROOTLOOP
001544: 31,3652           13654                           TCF      TESTLODX
001545: 31,3653           13660                           TCF      ROOTSTOR
001546: 31,3654           10155        TESTLODX           CCS      MPAC       +1                         #  TEST LO ORDER DX
001547: 31,3655           13614                           TCF      ROOTLOOP
001548: 31,3656           13660                           TCF      ROOTSTOR
001549:


001551: 31,3657           13660                           TCF      ROOTSTOR
001552: 31,3660           52127        ROOTSTOR           DXCH     ROOTPS
001553: 31,3661           52155                           DXCH     MPAC
001554: 31,3662           30163                           CA       MODE
001555: 31,3663           54156                           TS       MPAC       +2                         #  STORE SP ITERATION COUNT IN MPAC+2
001556: 31,3664           50132                           INDEX    RETROOT
001557: 31,3665           10002                           TCF      2
001558:
001559: 31,3666           00147        DERTABLL           ADRES    DERCOFN    -3
001560:
001561:
001562:                                                                                                  #  ****************************************************************************************************************
001563:                                                                                                  #  TRASHY LITTLE SUBROUTINES
001564:                                                                                                  #  ****************************************************************************************************************
001565:
001566: 31,3667           34755        ZEROMID            CAF      ZERO                                  #  ROUTINE TO ZERO THE MIDDLE COMPONENT
001567: 31,3670           54157                           TS       MPAC       +3                         #    OF A VECTOR IN MPAC.   "TCF DANZIG"
001568: 31,3671           54160                           TS       MPAC       +4                         #    COULD BE A "TC Q" AT THE EXPENSE OF
001569: 31,3672           16064                           TCF      DANZIG                                #    A TINY AMOUNT OF TIME.
001570:
001571:
001572: 31,3673           51346        INTPRETX           INDEX    WCHPHASE                              #  SET X1 ON THE WAY TO THE INTERPRETER
001573: 31,3674           42415                           CS       TARGTDEX
001574: 31,3675           50120                           INDEX    FIXLOC
001575: 31,3676           54046                           TS       X1
001576: 31,3677           16042                           TCF      INTPRET
001577:
001578: 31,3700           31642        TDISPSET           CA       TTF/8
001579: 31,3701           00006                           EXTEND
001580: 31,3702           74750                           MP       TSCALINV
001581: 31,3703           53476                           DXCH     TTFDISP
001582:
001583: 31,3704           35014                           CA       EBANK5                                #  TREDES BECOMES ZERO TWO PASSES
001584: 31,3705           54003                           TS       EBANK                                 #    BEFORE TCGFAPPR IS REACHED
001585: 31,3706  E5,1454                                  EBANK=   TCGFAPPR
001586: 31,3706           31454                           CA       TCGFAPPR
001587: 31,3707           24006                           INCR     BBANK
001588: 31,3710           24006                           INCR     BBANK
001589: 31,3711  E7,1642                                  EBANK=   TTF/8
001590: 31,3711           61642                           AD       TTF/8
001591: 31,3712           00006                           EXTEND
001592: 31,3713           73761                           MP       TREDESCL
001593: 31,3714           63756                           AD       -DEC103
001594: 31,3715           64735                           AD       NEGMAX
001595: 31,3716           54001                           TS       L
001596: 31,3717           40001                           CS       L
001597: 31,3720           60001                           AD       L
001598: 31,3721           63760                           AD       +DEC99
001599: 31,3722           64733                           AD       POSMAX
001600:


001602: 31,3723           55666                           TS       TREDES
001603: 31,3724           41666                           CS       TREDES
001604: 31,3725           27666                           ADS      TREDES
001605: 31,3726           00002                           TC       Q
001606:
001607:
001608: 31,3727           05653        1406POO            TC       POODOO
001609: 31,3730           21406                           OCT      21406
001610: 31,3731           05600        1406ALM            TC       ALARM
001611: 31,3732           01406                           OCT      01406
001612: 31,3733           13417                           TCF      RATESTOP
001613:
001614:                                                                                                  #  DESCENT OVERFLOW SUBROUTINE
001615: 31,3734           00006        OVFDESC            EXTEND
001616: 31,3735           23456                           QXCH     OVFRET
001617:
001618: 31,3736           05600                           TC       ALARM
001619: 31,3737           01410                           OCT      01410
001620:
001621: 31,3740           00004                           INHINT                                         #  MUST USE INHINT, IBNKCALL, RELINT
001622: 31,3741           04674                           TC       IBNKCALL                              #  BECAUSE DAP COULD INTERRUPT STOPRATE AND
001623: 31,3742           40166                           FCADR    STOPRATE                              #  BECAUSE WE COME FROM P66HZ VIA BANKCALL
001624: 31,3743           00003                           RELINT
001625:
001626: 31,3744           34755                           CA       ZERO
001627: 31,3745           54121                           TS       OVFIND
001628:
001629: 31,3746           01456                           TC       OVFRET
001630:


001632:
001633:                                                                                                  #  ****************************************************************************************************************
001634:                                                                                                  #  SPECIALIZED "PHASCHNG" SUBROUTINE
001635:                                                                                                  #  ****************************************************************************************************************
001636:
001637: 31,3747  E3,1440                                  EBANK=   PHSNAME2
001638: 31,3747           35007        FASTCHNG           CA       EBANK3                                #  SPECIALIZED 'PHASCHNG' ROUTINE
001639: 31,3750           56003                           XCH      EBANK
001640: 31,3751           52002                           DXCH     L
001641: 31,3752           55442                           TS       PHSNAME3
001642: 31,3753           22003                           LXCH     EBANK
001643: 31,3754  E7,1621                                  EBANK=   E2DPS
001644: 31,3754           00000                           TC       A
001645:
001646:                                                                                                  #  ****************************************************************************************************************
001647:                                                                                                  #  PARAMETER TABLE INDIRECT ADDRESSES
001648:                                                                                                  #  ****************************************************************************************************************
001649:
001650: 31,3755  E5,1402               RDG                =        RBRFGX
001651: 31,3755  E5,1412               VDG                =        VBRFGX
001652: 31,3755  E5,1422               ADG                =        ABRFGX
001653: 31,3755  E5,1432               VDG2TTF            =        VBRFG*
001654: 31,3755  E5,1436               ADG2TTF            =        ABRFG*
001655: 31,3755  E5,1442               JDG2TTF            =        JBRFG*
001656:
001657:                                                                                                  #  ****************************************************************************************************************
001658:                                                                                                  #  LUNAR LANDING CONSTANTS
001659:                                                                                                  #  ***************************************************************************************************************
001660:
001661: 31,3755           01565        TABLTTFL           ADRES    TABLTTF    +3                         #  ADDRESS FOR REFERENCING TTF TABLE
001662:
001663:
001664: 31,3756     4740               TTFSCALE           =        BIT12
001665:
001666:
001667: 31,3756     4750               TSCALINV           =        BIT4
001668:
001669:
001670: 31,3756           77630        -DEC103            DEC      -103       B-14
001671:
001672:
001673: 31,3757           00155        P64DB              OCT      00155                                 #  0.3 DEGREES SCALED AT CDU SCALING
001674:
001675:
001676: 31,3760           00143        +DEC99             DEC      +99        B-14
001677:
001678:
001679: 31,3761           75340        TREDESCL           DEC      -.08
001680:


001682: 31,3762           00264        180DEGS            DEC      +180       B-14
001683:
001684:
001685: 31,3763           00056        1/2DEG             DEC      +.00278
001686:
001687:
001688: 31,3764           01542        PROJMAX            DEC      .42262     B-3                        #  SIN(25')/8 TO COMPARE WITH PROJ
001689:
001690:
001691: 31,3765           01022        PROJMIN            DEC      .25882     B-3                        #  SIN(15')/8 TO COMPARE WITH PROJ
001692:
001693:
001694: 31,3766           01477        V06N63             VN       0663                                  #  P63
001695:
001696: 31,3767           01500        V06N64             VN       0664                                  #  P64
001697:
001698: 31,3770           01474        V06N60             VN       0660                                  #  P65, P66, P67
001699:
001700:
001701: 22,3647                                           BANK     22
001702: 22,2000                                           SETLOC   LANDCNST
001703: 22,2000                                           BANK
001704: 22,3647                                           COUNT*   $$/F2DPS
001705:
001706: 22,3647           00021 14161  HIGHESTF           2DEC     4.34546769 B-12
001707: 22,3651           01440 00000  GSCALE             2DEC     100        B-11
001708: 22,3653           14000 00000  3/8DP              2DEC     .375
001709: 22,3655           30000 00000  3/4DP              2DEC     .750
001710: 22,3657           77534 45074  DEPRCRIT           2DEC     -.02       B-1
001711:                                                                                                  #  ****************************************************************************************************************
001712:                                                                                                  #  ****************************************************************************************************************

End of include-file LUNAR_LANDING_GUIDANCE_EQUATIONS.agc.  Parent file is MAIN.agc


