
Source Code


000002:                                                                                                  ## Copyright:   Public domain.
000003:                                                                                                  ## Filename:    P30,P37.agc
000004:                                                                                                  ## Purpose:     A section of Luminary revision 163.
000005:                                                                                                  ##              It is part of the reconstructed source code for the first
000006:                                                                                                  ##              (unflown) release of the flight software for the Lunar
000007:                                                                                                  ##              Module's (LM) Apollo Guidance Computer (AGC) for Apollo 14.
000008:                                                                                                  ##              The code has been recreated from a reconstructed copy of
000009:                                                                                                  ##              Luminary 173, as well as Luminary memos 157 amd 158.
000010:                                                                                                  ##              It has been adapted such that the resulting bugger words
000011:                                                                                                  ##              exactly match those specified for Luminary 163 in NASA
000012:                                                                                                  ##              drawing 2021152N, which gives relatively high confidence
000013:                                                                                                  ##              that the reconstruction is correct.
000014:                                                                                                  ## Reference:   pp. 612-615
000015:                                                                                                  ## Assembler:   yaYUL
000016:                                                                                                  ## Contact:     Ron Burkey <info@sandroid.org>.
000017:                                                                                                  ## Website:     www.ibiblio.org/apollo/index.html
000018:                                                                                                  ## Mod history: 2019-08-21 MAS  Created from Luminary 173.
000019:


000021:                                                                                                  #  PROGRAM DESCRIPTION  P30    DATE 3-6-67
000022:
000023:                                                                                                  #  MOD.1  BY RAMA AIYAWAR
000024:                                                                                                  #  FUNCTIONAL DESCRIPTION
000025:                                                                                                  #     ACCEPT ASTRONAUT INPUTS OF TIG,DELV(LV)
000026:                                                                                                  #     CALL IMU STATUS CHECK ROUTINE (R02)
000027:                                                                                                  #     DISPLAY TIME TO GO, APOGEE, PERIGEE, DELV(MAG), MGA AT IGN
000028:                                                                                                  #     REQUEST BURN PROGRAM
000029:
000030:                                                                                                  #  CALLING SEQUENCE VIA JOB FROM V37
000031:
000032:                                                                                                  #  EXIT VIA V37 CALL OR TO GOTOPOOH (V34E)
000033:
000034:                                                                                                  #  SUBROUTINE CALLS-FLAGUP, PHASCHNG, BANKCALL, ENDOFJOB, GOFLASH, GOFLASHR
000035:                                                                                                  #                   GOPERF3R, INTPRET, BLANKET, GOTOPOOH, R02BOTH, S30.1,
000036:                                                                                                  #                   TTG/N35, MIDGIM, DISPMGA
000037:
000038:                                                                                                  #  ERASABLE INITIALIZATION- STATE VECTOR
000039:
000040:                                                                                                  #  OUTPUT-RINIT, VINIT, +MGA, VTIG, RTIG, DELVSIN, DELVSAB, DELVSLV, HAPO,
000041:                                                                                                  #         HPER, TTOGO
000042:
000043:                                                                                                  #  DEBRIS- A, L, MPAC, PUSHLIST
000044:
000045: 32,2550                                           BANK     32
000046: 35,2000                                           SETLOC   P30S
000047: 35,2000                                           BANK
000048: 35,2000  E4,1652                                  EBANK=   +MGA
000049: 35,2000                                           COUNT*   $$/P30
000050: 35,2000           05515        P30                TC       UPFLAG                                #  SET UPDATE FLAG
000051: 35,2001           00027                           ADRES    UPDATFLG
000052: 35,2002           05515                           TC       UPFLAG                                #  SET TRACK FLAG
000053: 35,2003           00031                           ADRES    TRACKFLG
000054:
000055: 35,2004           32032        P30N33             CAF      V06N33                                #  T OF IGN
000056: 35,2005           03621                           TC       VNPOOH                                #  RETURNS ON PROCEED, POOH ON TERMINATE
000057:
000058: 35,2006           33636                           CAF      V06N81                                #  DISPLAY DELTA V (LV)
000059: 35,2007           03621                           TC       VNPOOH                                #      REDISPLAY ON RECYCLE
000060:
000061: 35,2010           05527                           TC       DOWNFLAG                              #  RESET UPDATE FLAG
000062: 35,2011           00027                           ADRES    UPDATFLG
000063: 35,2012           06042                           TC       INTPRET
000064: 35,2013           77624                           CALL
000065: 35,2014           70000                                    S30.1
000066: 35,2015           43014                           SET      SET
000067: 35,2016           00470                                    UPDATFLG
000068: 35,2017           01067                                    XDELVFLG
000069: 35,2020           77776                           EXIT
000070: 35,2021           32033        PARAM30            CAF      V06N42                                #  DISPLAY APOGEE,PERIGEE ,DELTA V
000071:


000073: 35,2022           03621                           TC       VNPOOH
000074:
000075: 35,2023           06042                           TC       INTPRET
000076: 35,2024           77614                           SET
000077: 35,2025           01071                                    FINALFLG
000078: 35,2026           77624        REVN1645           CALL
000079: 35,2027           73515                                    VN1645
000080: 35,2030           77650                           GOTO                                           #  COMES HERE ON RECYCLE RESPONSE
000081: 35,2031           72026                                    REVN1645
000082:
000083: 35,2032           01441        V06N33             VN       0633
000084: 35,2033           01452        V06N42             VN       0642
000085:


000087:                                                                                                  #  PROGRAM DESCRIPTION S30.1      DATE 9NOV66
000088:
000089:                                                                                                  #  MOD NO 1        LOG SECTION  P30,P37
000090:                                                                                                  #  MOD  BY  RAMA AIYAWAR **
000091:                                                                                                  #  FUNCTIONAL DESCRIPTION
000092:                                                                                                  #           BASED ON STORED TARGET PARAMETERS(R OF IGNITION(RTIG),V OF
000093:                                                                                                  #           IGNITION(VTIG),TIME OF IGNITION (TIG)),COMPUTE PERIGEE ALTITUDE
000094:                                                                                                  #           APOGEE ALTITUDE AND DELTAV REQUIRED(DELVSIN).
000095:                                                                                                  #  CALLING SEQUENCE
000096:                                                                                                  #      L    CALL
000097:                                                                                                  #      L+1         S30.1
000098:                                                                                                  #  NORMAL EXIT MODE
000099:                                                                                                  #      AT L+2 OR CALLING SEQUENCE (GOTO L+2)
000100:                                                                                                  #  SUBROUTINES CALLED
000101:                                                                                                  #           LEMPREC
000102:                                                                                                  #           PERIAPO
000103:                                                                                                  #  ALARM OR ABORT EXIT MODES
000104:                                                                                                  #                  NONE
000105:                                                                                                  #  ERASABLE INITIALIZATION REQUIRED
000106:                                                                                                  #           TIG       TIME OF IGNITION                   DP     B28CS
000107:                                                                                                  #           DELVSLV   SPECIFIED DELTA-V IN LOCAL VERT.
000108:                                                                                                  #                     COORDS. OF ACTIVE VEHICLE AT
000109:                                                                                                  #                  TIME OF IGNITION      VECTOR  B+7  METERS/CS
000110:                                                                                                  #  OUTPUT
000111:                                                                                                  #           RTIG   POSITION AT TIG       VECTOR  B+29 METERS
000112:                                                                                                  #           VTIG   VELOCITY AT TIG       VECTOR  B+29 METERS/CS
000113:                                                                                                  #           PDL 4D APOGEE ALTITUDE       DP      B+29 M ,  B+27 METERS.
000114:                                                                                                  #           HAPO   APOGEE ALTITUDE       DP      B+29 METERS
000115:                                                                                                  #           PDL 8D PERIGEE ALTITUDE      DP      B+29 M ,  B+27 METERS.
000116:                                                                                                  #           HPER   PERIGEE ALTITUDE      DP      B+29 METERS
000117:                                                                                                  #           DELVSIN   SPECIFIED DELTA-V IN INERTIAL
000118:                                                                                                  #                     COORD. OF ACTIVE VEHICLE AT
000119:                                                                                                  #                  TIME OF IGNITION      VECTOR  B+7  METERS/CS
000120:                                                                                                  #           DELVSAB MAG. OF DELVSIN      VECTOR  B+7  METERS/CS
000121:                                                                                                  #  DEBRIS QTEMP    TEMP. ERASABLE
000122:                                                                                                  #         QPRET,MPAC
000123:                                                                                                  #         PUSHLIST
000124:
000125: 34,2000                                           SETLOC   P30S1
000126: 34,2000                                           BANK
000127:
000128: 34,2000                                           COUNT*   $$/S30S
000129:
000130: 34,2000           71220        S30.1              STQ      DLOAD
000131: 34,2001           03632                                    QTEMP
000132: 34,2002           03442                                    TIG                                   #  TIME IGNITION SCALED AT 2(+28)CS
000133: 34,2003           34041                           STCALL   TDEC1
000134: 34,2004           27056                                    LEMPREC                               #  ENCKE ROUTINE FOR LEM
000135:
000136: 34,2005           67175                           VLOAD    SXA,2
000137:


000139: 34,2006           00001                                    RATT
000140: 34,2007           02777                                    RTX2
000141: 34,2010           03642                           STORE    RTIG                                  #  RADIUS VECTOR AT IGNITION TIME
000142: 34,2011           57456                           UNIT     VCOMP
000143: 34,2012           27656                           STOVL    DELVSIN                               #  ZRF/LV IN DELVSIN SCALED AT 2
000144: 34,2013           00007                                    VATT                                  #  VELOCITY VECTOR AT TIG, SCALED 2(7) M/CS
000145: 34,2014           03650                           STORE    VTIG
000146: 34,2015           53435                           VXV      UNIT
000147: 34,2016           03642                                    RTIG
000148: 34,2017           66001                           SETPD    SXA,1
000149: 34,2020           00001                                    0
000150: 34,2021           02776                                    RTX1
000151: 34,2022           47206                           PUSH     VXV                                   #  YRF/LV PDL 0  SCALED AT 2
000152: 34,2023           03656                                    DELVSIN
000153: 34,2024           63372                           VSL1     PDVL
000154: 34,2025           63315                           PDVL     PDVL                                  #  YRF/LV PDL 6   SCALED AT 2
000155: 34,2026           03656                                    DELVSIN                               #  ZRF/LV PDL 12D SCALED AT 2
000156: 34,2027           03434                                    DELVSLV
000157: 34,2030           76505                           VXM      VSL1
000158: 34,2031           00001                                    0
000159: 34,2032           03656                           STORE    DELVSIN                               #  DELTAV IN INERT. COOR. SCALED TO B+7M/CS
000160: 34,2033           77646                           ABVAL
000161: 34,2034           27664                           STOVL    DELVSAB                               #  DELTA V MAG.
000162: 34,2035           03642                                    RTIG                                  #  (FOR PERIAPO)
000163: 34,2036           53315                           PDVL     VAD                                   #  VREQUIRED = VTIG + DELVSIN (FOR PERIAPO)
000164: 34,2037           03650                                    VTIG
000165: 34,2040           03656                                    DELVSIN
000166: 34,2041           77624                           CALL
000167: 34,2042           46335                                    PERIAPO1
000168: 34,2043           77624                           CALL
000169: 34,2044           46445                                    SHIFTR1                               #  RESCALE IF NEEDED
000170: 34,2045           77624                           CALL                                           #  LIMIT DISPLAY TO 9999.9 N. MI.
000171: 34,2046           45636                                    MAXCHK
000172: 34,2047           16321                           STODL    HPER                                  #  PERIGEE ALT 2(29) METERS, FOR DISPLAY
000173: 34,2050           00005                                    4D
000174: 34,2051           77624                           CALL
000175: 34,2052           46445                                    SHIFTR1                               #  RESCALE IF NEEDED
000176: 34,2053           77624                           CALL                                           #  LIMIT DISPLAY TO 9999.9 N. MI.
000177: 34,2054           45636                                    MAXCHK
000178: 34,2055           36317                           STCALL   HAPO                                  #  APOGEE  ALT 2(29) METERS, FOR DISPLAY
000179: 34,2056           03632                                    QTEMP

End of include-file P30,P37.agc.  Parent file is MAIN.agc


