
Source Code


000002:                                                                                                  ## Copyright:   Public domain.
000003:                                                                                                  ## Filename:    P34-P35,_P74-P75.agc
000004:                                                                                                  ## Purpose:     A section of Luminary revision 163.
000005:                                                                                                  ##              It is part of the reconstructed source code for the first
000006:                                                                                                  ##              (unflown) release of the flight software for the Lunar
000007:                                                                                                  ##              Module's (LM) Apollo Guidance Computer (AGC) for Apollo 14.
000008:                                                                                                  ##              The code has been recreated from a reconstructed copy of
000009:                                                                                                  ##              Luminary 173, as well as Luminary memos 157 amd 158.
000010:                                                                                                  ##              It has been adapted such that the resulting bugger words
000011:                                                                                                  ##              exactly match those specified for Luminary 163 in NASA
000012:                                                                                                  ##              drawing 2021152N, which gives relatively high confidence
000013:                                                                                                  ##              that the reconstruction is correct.
000014:                                                                                                  ## Reference:   pp. 653-697
000015:                                                                                                  ## Assembler:   yaYUL
000016:                                                                                                  ## Contact:     Ron Burkey <info@sandroid.org>.
000017:                                                                                                  ## Website:     www.ibiblio.org/apollo/index.html
000018:                                                                                                  ## Mod history: 2019-08-21 MAS  Created from Luminary 173. Removed zeroing of
000019:                                                                                                  ##                              ELEV from P34/P74A.
000020:


000022:                                                                                                  #  TRANSFER PHASE INITIATION (TPI) PROGRAMS (P34 AND P74)
000023:
000024:                                                                                                  #  MOD NO -1       LOG SECTION - P32-P35, P72-P75
000025:                                                                                                  #  MOD BY WHITE.P  DATE 1JUNE67
000026:
000027:                                                                                                  #  PURPOSE
000028:
000029:                                                                                                  #        (1) TO CALCULATE THE REQUIRED DELTA V AND OTHER INITIAL CONDITIONS
000030:                                                                                                  #            REQUIRED BY THE ACTIVE VEHICLE FOR EXECUTION OF THE TRANSFER
000031:                                                                                                  #            PHASE INITIATION (TPI) MANEUVER, GIVEN -
000032:
000033:                                                                                                  #            (A) TIME OF IGNITION TIG (TPI) OR THE ELEVATION ANGLE (E) OF
000034:                                                                                                  #                THE ACTIVE/PASSIVE VEHICLE LOS AT TIG (TPI).
000035:
000036:                                                                                                  #            (B) CENTRAL ANGLE OF TRANSFER (CENTANG) FROM TIG (TPI) TO
000037:                                                                                                  #                INTERCEPT TIME (TIG (TPF)).
000038:
000039:                                                                                                  #        (2) TO CALCULATE TIG (TPI) GIVEN E OR E GIVEN TIG (TPI).
000040:
000041:                                                                                                  #        (3) TO CALCULATE THESE PARAMETERS BASED UPON MANEUVER DATA
000042:                                                                                                  #            APPROVED AND KEYED INTO THE DSKY BY THE ASTRONAUT.
000043:
000044:                                                                                                  #        (4) TO DISPLAY TO THE ASTRONAUT AND THE GROUND CERTAIN DEPENDENT
000045:                                                                                                  #            VARIABLES ASSOCIATED WITH THE MANEUVER FOR APPROVAL BY THE
000046:                                                                                                  #            ASTRONAUT/GROUND.
000047:
000048:                                                                                                  #        (5) TO STORE THE TPI TARGET PARAMETERS FOR USE BY THE DESIRED
000049:                                                                                                  #            THRUSTING PROGRAM.
000050:
000051:                                                                                                  #  ASSUMPTIONS
000052:
000053:                                                                                                  #        (1) LM ONLY - THIS PROGRAM IS BASED UPON PREVIOUS COMPLETION OF
000054:                                                                                                  #            THE CONSTANT DELTA ALTITUDE (CDH) PROGRAM (P33/P73).
000055:                                                                                                  #            THEREFORE -
000056:
000057:                                                                                                  #            (A) AT A SELECTED TPI TIME (NOW IN STORAGE) THE LINE OF SIGHT
000058:                                                                                                  #                BETWEEN THE ACTIVE AND PASSIVE VEHICLES WAS SELECTED TO BE
000059:                                                                                                  #                A PRESCRIBED ANGLE (E) (NOW IN STORAGE) FROM THE
000060:                                                                                                  #                HORIZONTAL PLANE DEFINED BY THE ACTIVE VEHICLE POSITION.
000061:
000062:                                                                                                  #            (B) THE TIME BETWEEN CDH IGNITION AND TPI IGNITION WAS
000063:                                                                                                  #                COMPUTED TO BE GREATER THAN 10 MINUTES.
000064:
000065:                                                                                                  #            (C) THE VARIATION OF THE ALTITUDE DIFFERENCE BETWEEN THE
000066:                                                                                                  #                ORBITS WAS MINIMIZED.
000067:
000068:                                                                                                  #            (D) THE PERICENTER ALTITUDES OF ORBITS FOLLOWING CSI AND
000069:
000070:                                                                                                  #                CDH WERE COMPUTED TO BE GREATER THAN 35,000 FT FOR LUNAR


000072:                                                                                                  #                ORBIT OR 85 NM FOR EARTH ORBIT.
000073:
000074:                                                                                                  #            (E) THE CSI AND CDH MANEUVERS WERE ASSUMED TO BE PARALLEL TO
000075:                                                                                                  #                THE PLANE OF THE PASSIVE VEHICLE ORBIT.  HOWEVER, CREW
000076:                                                                                                  #                MODIFICATION OF DELTA V (LV) COMPONENTS MAY HAVE RESULTED
000077:                                                                                                  #                IN AN OUT-OF-PLANE MANEUVER.
000078:
000079:                                                                                                  #        (2) STATE VECTOR UPDATED BY P27 ARE DISALLOWED DURING AUTOMATIC
000080:                                                                                                  #            STATE VECTOR UPDATING INITIATED BY P20 (SEE ASSUMPTION (4)).
000081:
000082:                                                                                                  #        (3) THIS PROGRAM MUST BE DONE OVER A TRACKING STATION FOR REAL
000083:                                                                                                  #            TIME GROUND PARTICIPATION IN DATA INPUT AND OUTPUT.  COMPUTED
000084:                                                                                                  #            VARIABLES MAY BE STORED FOR LATER VERIFICATION BY THE GROUND.
000085:                                                                                                  #            THESE STORAGE CAPABILITIES ARE LIMITED ONLY TO THE PARAMETERS
000086:                                                                                                  #            FOR ONE THRUSTING MANEUVER AT A TIME EXCEPT FOR CONCENTRIC
000087:                                                                                                  #            FLIGHT PLAN MANEUVER SEQUENCES.
000088:
000089:                                                                                                  #        (4) THE RENDEZVOUS RADAR MAY OR MAY NOT BE USED TO UPDATE THE LM
000090:                                                                                                  #            OR CSM STATE VECTORS FOR THIS PROGRAM.  IF RADAR USE IS
000091:                                                                                                  #            DESIRED THE RADAR WAS TURNED ON AND LOCKED ON THE CSM BY
000092:                                                                                                  #            PREVIOUS SELECTION OF P20.  RADAR SIGHTING MARKS WILL BE MADE
000093:                                                                                                  #            AUTOMATICALLY APPROXIMATELY ONCE A MINUTE WHEN ENABLED BY THE
000094:                                                                                                  #            TRACK AND UPDATE FLAGS (SEE P20).  THE RENDEZVOUS TRACKING
000095:                                                                                                  #            MARK COUNTER IS ZEROED BY THE SELECTION OF P20 AND AFTER EACH
000096:                                                                                                  #            THRUSTING MANEUVER.
000097:
000098:                                                                                                  #        (5) THE ISS NEED NOT BE ON TO COMPLETE THIS PROGRAM.
000099:
000100:                                                                                                  #        (6) THE OPERATION OF THE PROGRAM UTILIZES THE FOLLOWING FLAGS -
000101:
000102:                                                                                                  #                ACTIVE VEHICLE FLAG - DESIGNATES THE VEHICLE WHICH IS
000103:                                                                                                  #                DOING RENDEZVOUS THRUSTING MANEUVERS TO THE PROGRAM WHICH
000104:                                                                                                  #                CALCULATES THE MANEUVER PARAMETERS.  SET AT THE START OF
000105:                                                                                                  #                EACH RENDEZVOUS PRE-THRUSTING PROGRAM.
000106:
000107:                                                                                                  #                FINAL FLAG - SELECTS FINAL PROGRAM DISPLAYS AFTER CREW HAS
000108:                                                                                                  #                SELECTED THE FINAL MANEUVER COMPUTATION CYCLE.
000109:
000110:                                                                                                  #                EXTERNAL DELTA V FLAG - DESIGNATES THE TYPE OF STEERING
000111:                                                                                                  #                REQUIRED FOR EXECUTION OF THIS MANEUVER BY THE THRUSTING
000112:                                                                                                  #                PROGRAM SELECTED AFTER COMPLETION OF THIS PROGRAM.
000113:
000114:                                                                                                  #        (7) ONCE THE PARAMETWRS REQUIRED FOR COMPUTION OF THE MANEUVER
000115:                                                                                                  #            HAVE BEEN COMPLETELY SPECIFIED, THE VALUE OF THE ACTIVE
000116:                                                                                                  #            VEHICLE CENTRAL ANGLE OF TRANSFER IS COMPUTED AND STORED.
000117:                                                                                                  #            THIS NUMBER WILL BE AVAILABLE FOR DISPLAY TO THE ASTRONAUT
000118:                                                                                                  #            THROUGH THE USE OF V06N52.
000119:
000120:                                                                                                  #            THE ASTRONAUT WILL CALL THIS DISPLAY TO VERIFY THAT THE
000121:                                                                                                  #            CENTRAL ANGLE OF TRANSFER OF THE ACTIVE VEHICLE IS NOT WITHIN


000123:                                                                                                  #            170 TO 190 DEGREES.  IF THE ANGLE IS WITHIN THIS ZONE THE
000124:                                                                                                  #            ASTRONAUT SHOULD REASSESS THE INPUT TARGETING PARAMETERS BASED
000125:                                                                                                  #            UPON DELTA V AND EXPECTED MANEUVER TIME.
000126:
000127:                                                                                                  #        (8) THIS PROGRAM IS SELECTED BY THE ASTRONAUT BY DSKY ENTRY -
000128:
000129:                                                                                                  #                P34 IF THIS VEHICLE IS ACTIVE VEHICLE.
000130:
000131:                                                                                                  #                P74 IF THIS VEHICLE IS PASSIVE VEHICLE.
000132:
000133:                                                                                                  #  INPUT
000134:
000135:                                                                                                  #        (1) TTPI     TIME OF THE TPI MANEUVER
000136:                                                                                                  #        (2) ELEV     DESIRED LOS ANGLE AT TPI
000137:                                                                                                  #        (3) CENTANG  ORBITAL CENTRAL ANGLE OF THE PASSIVE VEHICLE DURING
000138:                                                                                                  #                     TRANSFER FROM TPI TO TIME OF INTERCEPT
000139:
000140:                                                                                                  #  OUTPUT
000141:
000142:                                                                                                  #        (1) TRKMKCNT NUMBER OF MARKS
000143:                                                                                                  #        (2) TTOGO    TIME TO GO
000144:                                                                                                  #        (3) +MGA     MIDDLE GIMBAL ANGLE
000145:                                                                                                  #        (4) TTPI     COMPUTED TIME OF TPI MANEUVER
000146:                                                                                                  #             OR
000147:                                                                                                  #            ELEV     COMPUTED LOS ANGLE AT TPI
000148:                                                                                                  #        (5) POSTTPI  PERIGEE ALTITUDE AFTER THE TPI MANEUVER
000149:                                                                                                  #        (6) DELVTPI  MAGNITUDE OF DELTA V AT TPI
000150:                                                                                                  #        (7) DELVTPF  MAGNITUDE OF DELTA V AT INTERCEPT
000151:                                                                                                  #        (8) DVLOS    DELTA VELOCITY AT TPI - LINE OF SIGHT
000152:                                                                                                  #        (9) DELVLVC  DELTA VELOCITY AT TPI - LOCAL VERTICAL COORDINATES
000153:
000154:                                                                                                  #  DOWNLINK
000155:
000156:                                                                                                  #        (1) TTPI     TIME OF THE TPI MANEUVER
000157:                                                                                                  #        (2) TIG      TIME OF THE TPI MANEUVER
000158:                                                                                                  #        (3) ELEV     DESIRED LOS ANGLE AT TPI
000159:                                                                                                  #        (4) CENTANG  ORBITAL CENTRAL ANGLE OF THE PASSIVE VEHICLE DURING
000160:                                                                                                  #                     TRANSFER FROM TPI TO TIME OF INTERCEPT
000161:                                                                                                  #        (5) DELVEET3 DELTA VELOCITY AT TPI - REFERENCE COORDINATES
000162:                                                                                                  #        (6) TPASS4   TIME OF INTERCEPT
000163:                                                                                                  #  COMMUNICATION TO THRUSTING PROGRAMS
000164:
000165:                                                                                                  #        (1) TIG      TIME OF THE TPI MANEUVER
000166:                                                                                                  #        (2) RTARG    OFFSET TARGET POSITION
000167:                                                                                                  #        (3) TPASS4   TIME OF INTERCEPT
000168:                                                                                                  #        (4) XDELVFLG RESET TO INDICATE LAMBERT (AIMPOINT) VG COMPUTATION
000169:
000170:                                                                                                  #  SUBROUTINES USED
000171:
000172:                                                                                                  #        AVFLAGA


000174:                                                                                                  #        AVFLAGP
000175:                                                                                                  #        VNPOOH
000176:                                                                                                  #        DISPLAYE
000177:                                                                                                  #        SELECTMU
000178:                                                                                                  #        PRECSET
000179:                                                                                                  #        S33/34.1
000180:                                                                                                  #        ALARM
000181:                                                                                                  #        BANKCALL
000182:                                                                                                  #        GOFLASH
000183:                                                                                                  #        GOTOPOOH
000184:                                                                                                  #        TIMETHET
000185:                                                                                                  #        S34/35.2
000186:                                                                                                  #        PERIAPO1
000187:                                                                                                  #        SHIFTR1
000188:                                                                                                  #        S34/35.5
000189:                                                                                                  #        VN1645
000190:
000191: 35,2000                                           SETLOC   CSI/CDH
000192: 35,2000                                           BANK
000193: 35,2455  E7,1470                                  EBANK=   SUBEXIT
000194: 35,2455                                           COUNT*   $$/P3474
000195: 35,2455           02354        P34                TC       AVFLAGA
000196: 35,2456           02460                           TC       P34/P74A
000197: 35,2457           02361        P74                TC       AVFLAGP
000198: 35,2460           02366        P34/P74A           TC       P20FLGON                              #  SET UPDATFLG, TRACKFLG
000199: 35,2461           33632                           CAF      V06N37                                #  TTPI
000200: 35,2462           03621                           TC       VNPOOH
000201: 35,2463           00006                           EXTEND
000202: 35,2464           33655                           DCA      130DEG
000203: 35,2465           53621                           DXCH     CENTANG
000204: 35,2466           32424                           CAF      P30ZERO
000205: 35,2467           55466                           TS       NN
000206: 35,2470           03603                           TC       DISPLAYE                              #  ELEV AND CENTANG
000207: 35,2471           06042                           TC       INTPRET
000208: 35,2472           71214                           CLEAR    DLOAD
000209: 35,2473           01270                                    ETPIFLAG
000210: 35,2474           03636                                    TTPI
000211: 35,2475           17442                           STODL    TIG
000212: 35,2476           02257                                    ELEV
000213: 35,2477           43054                           BZE      SET
000214: 35,2500           72502                                    P34/P74B
000215: 35,2501           01070                                    ETPIFLAG
000216:


000218: 35,2502           77624        P34/P74B           CALL
000219: 35,2503           20000                                    SELECTMU
000220: 35,2504                        DELELO             EQUALS   26D
000221: 35,2504           43145        P34/P74C           DLOAD    SET
000222: 35,2505           06520                                    ZEROVECS
000223: 35,2506           03460                                    ITSWICH
000224: 35,2507           43014                           BON      CLEAR
000225: 35,2510           01310                                    ETPIFLAG
000226: 35,2511           72513                                    SWCHSET
000227: 35,2512           03660                                    ITSWICH
000228: 35,2513           02317        SWCHSET            STORE    NOMTPI
000229: 35,2514           43345        INTLOOP            DLOAD    DAD
000230: 35,2515           03636                                    TTPI
000231: 35,2516           02317                                    NOMTPI
000232: 35,2517           34041                           STCALL   TDEC1
000233: 35,2520           46377                                    PRECSET
000234: 35,2521           77624                           CALL
000235: 35,2522           72674                                    S33/34.1
000236: 35,2523           77454                           BZE      EXIT
000237: 35,2524           72535                                    SWCHCLR
000238: 35,2525           05600                           TC       ALARM
000239: 35,2526           00611                           OCT      611
000240: 35,2527           35006                           CAF      V05N09
000241: 35,2530           04616                           TC       BANKCALL
000242: 35,2531           20477                           CADR     GOFLASH
000243: 35,2532           06001                           TC       GOTOPOOH
000244: 35,2533           02460                           TC       P34/P74A                              #  PROCEED
000245: 35,2534           02525                           TC       -7                                    #  V32
000246:
000247: 35,2535           43014        SWCHCLR            BONCLR   BON
000248: 35,2536           03600                                    ITSWICH
000249: 35,2537           72514                                    INTLOOP
000250: 35,2540           01310                                    ETPIFLAG
000251: 35,2541           72545                                    P34/P74D                              #  DISPLAY TTPI
000252: 35,2542           77776                           EXIT
000253: 35,2543           03603                           TC       DISPLAYE                              #  DISPLAY ELEV AND CENTANG
000254: 35,2544           02550                           TC       P34/P74E
000255: 35,2545           77776        P34/P74D           EXIT
000256: 35,2546           33632                           CAF      V06N37                                #  TTPI
000257: 35,2547           03621                           TC       VNPOOH
000258: 35,2550           06042        P34/P74E           TC       INTPRET
000259: 35,2551           71201                           SETPD    DLOAD
000260: 35,2552           00001                                    0D
000261: 35,2553           02777                                    RTX1
000262: 35,2554           14047                           STODL    X1
000263: 35,2555           03621                                    CENTANG
000264: 35,2556           71406                           PUSH     COS
000265: 35,2557           16732                           STODL    CSTH
000266: 35,2560           77756                           SIN
000267: 35,2561           26730                           STOVL    SNTH


000269: 35,2562           03552                                    RPASS3
000270: 35,2563           77657                           VSR*
000271: 35,2564           57176                                    0,2
000272: 35,2565           26655                           STOVL    RVEC
000273: 35,2566           03560                                    VPASS3
000274: 35,2567           43057                           VSR*     SET
000275: 35,2570           57176                                    0,2
000276: 35,2571           03466                                    RVSW
000277: 35,2572           36744                           STCALL   VVEC
000278: 35,2573           24732                                    TIMETHET
000279: 35,2574           77745                           DLOAD
000280: 35,2575           03636                                    TTPI
000281: 35,2576           03610                           STORE    INTIME                                #  FOR INITVEL
000282: 35,2577           77615                           DAD
000283: 35,2600           00037                                    T                                     #  RENDEZVOUS TIME
000284: 35,2601           37631                           STCALL   TPASS4                                #  FOR INITVEL
000285: 35,2602           73216                                    S34/35.2
000286: 35,2603           51575                           VLOAD    ABVAL
000287: 35,2604           02366                                    DELVEET3
000288: 35,2605           27576                           STOVL    DELVTPI
000289: 35,2606           03506                                    VPASS4
000290: 35,2607           51451                           VSU      ABVAL
000291: 35,2610           03566                                    VTPRIME
000292: 35,2611           26350                           STOVL    DELVTPF
000293: 35,2612           03536                                    RACT3
000294: 35,2613           45115                           PDVL     CALL
000295: 35,2614           02337                                    VIPRIME
000296: 35,2615           46335                                    PERIAPO1
000297: 35,2616           77624                           CALL
000298: 35,2617           46445                                    SHIFTR1
000299: 35,2620           17606                           STODL    POSTTPI
000300: 35,2621           03636                                    TTPI
000301: 35,2622           03442                           STORE    TIG
000302: 35,2623           77776                           EXIT
000303: 35,2624           33634                           CAF      V06N58
000304: 35,2625           03621                           TC       VNPOOH
000305: 35,2626           06042                           TC       INTPRET
000306: 35,2627           77624                           CALL
000307: 35,2630           73432                                    S34/35.5
000308: 35,2631           77624                           CALL
000309: 35,2632           73515                                    VN1645
000310: 35,2633           77650                           GOTO
000311: 35,2634           72504                                    P34/P74C
000312:


000314:                                                                                                  #  RENDEZVOUS MID-COURSE MANEUVER PROGRAMS (P35 AND P75)
000315:
000316:                                                                                                  #  MOD NO -1       LOG SECTION - P32-P35, P72-P75
000317:                                                                                                  #  MOD BY WHITE.P  DATE  1JUNE67
000318:
000319:                                                                                                  #  PURPOSE
000320:
000321:                                                                                                  #        (1) TO CALCULATE THE REQUIRED DELTA V AND OTHER INITIAL CONDITIONS
000322:                                                                                                  #            REQUIRED BY THE ACTIVE VEHICLE FOR EXECUTION OF THE NEXT
000323:                                                                                                  #            MIDCOURSE CORRECTION OF THE TRANSFER PHASE OF AN ACTIVE
000324:                                                                                                  #            VEHICLE RENDEZVOUS.
000325:
000326:                                                                                                  #        (2) TO DISPLAY TO THE ASTRONAUT AND THE GROUND CERTAIN DEPENDENT
000327:                                                                                                  #            VARIABLES ASSOCIATED WITH THE MANEUVER FOR APPROVAL BY THE
000328:                                                                                                  #            ASTRONAUT/GROUND.
000329:
000330:                                                                                                  #        (3) TO STORE THE TPM TARGET PARAMETERS FOR USE BY THE DESIRED
000331:                                                                                                  #            THRUSTING PROGRAM.
000332:
000333:                                                                                                  #  ASSUMPTIONS
000334:
000335:                                                                                                  #        (1) THE ISS NEED NOT BE ON TO COMPLETE THIS PROGRAM.
000336:
000337:                                                                                                  #        (2) STATE VECTOR UPDATES BY P27 ARE DISALLOWED DURING AUTOMATIC
000338:                                                                                                  #            STATE VECTOR UPDATING INITIATED BY P20 (SEE ASSUMPTION (3)).
000339:
000340:                                                                                                  #        (3) THE RENDEZVOUS RADAR IS ON AND IS LOCKED ON THE CSM.  THIS WAS
000341:                                                                                                  #            DONE DURING PREVIOUS SELECTION OF P20.  RADAR SIGHTING MARKS
000342:                                                                                                  #            WILL BE MADE AUTOMATICALLY APPROXIMATELY ONCE A MINUTE WHEN
000343:                                                                                                  #            ENABLED BY THE TRACK AND UPDATE FLAGS (SEE P20). THE
000344:                                                                                                  #            RENDEZVOUS TRACKING MARK COUNTER IS ZEROED BY THE SELECTION OF
000345:                                                                                                  #            P20 AND AFTER EACH THRUSTING MANEUVER.
000346:
000347:                                                                                                  #        (4) THE OPERATION OF THE PROGRAM UTILIZES THE FOLLOWING FLAGS -
000348:
000349:                                                                                                  #                ACTIVE VEHICLE FLAG - DESIGNATES THE VEHICLE WHICH IS
000350:                                                                                                  #                DOING RENDEZVOUS THRUSTING MANEUVERS TO THE PROGRAM WHICH
000351:                                                                                                  #                CALCULATES THE MANEUVER PARAMETERS.  SET AT THE START OF
000352:                                                                                                  #                EACH RENDEZVOUS PRE-THRUSTING PROGRAM.
000353:
000354:                                                                                                  #                FINAL FLAG - SELECTS FINAL PROGRAM DISPLAYS AFTER CREW HAS
000355:                                                                                                  #                SELECTED THE FINAL MANEUVER COMPUTATION CYCLE.
000356:
000357:                                                                                                  #                EXTERNAL DELTA V FLAG - DESIGNATES THE TYPE OF STEERING
000358:                                                                                                  #                REQUIRED FOR EXECUTION OF THIS MANEUVER BY THE THRUSTING
000359:                                                                                                  #                PROGRAM SELECTED AFTER COMPLETION OF THIS PROGRAM.
000360:
000361:                                                                                                  #        (5) THE TIME OF INTERCEPT (T(INT)) WAS DEFINED BY PREVIOUS
000362:                                                                                                  #            COMPLETION OF THE TRANSFER PHASE INITIATION (TPI) PROGRAM
000363:                                                                                                  #            (P34/P74) AND IS PRESENTLY AVAILABLE IN STORAGE.
000364:


000366:                                                                                                  #        (6) ONCE THE PARAMETERS REQUIRED FOR COMPUTION OF THE MANEUVER
000367:                                                                                                  #            HAVE BEEN COMPLETELY SPECIFIED, THE VALUE OF THE ACTIVE
000368:                                                                                                  #            VEHICLE CENTRAL ANGLE OF TRANSFER IS COMPUTED AND STORED.
000369:                                                                                                  #            THIS NUMBER WILL BE AVAILABLE FOR DISPLAY TO THE ASTRONAUT
000370:                                                                                                  #            THROUGH THE USE OF V06N52.
000371:
000372:                                                                                                  #            THE ASTRONAUT WILL CALL THIS DISPLAY TO VERIFY THAT THE
000373:                                                                                                  #            CENTRAL ANGLE OF TRANSFER OF THE ACTIVE VEHICLE IS NOT WITHIN
000374:                                                                                                  #            170 TO 190 DEGREES.  IF THE ANGLE IS WITHIN THIS ZONE THE
000375:                                                                                                  #            ASTRONAUT SHOULD REASSESS THE INPUT TARGETING PARAMETERS BASED
000376:                                                                                                  #            UPON DELTA V AND EXPECTED MANEUVER TIME.
000377:
000378:                                                                                                  #        (7) THIS PROGRAM IS SELECTED BY THE ASTRONAUT BY DSKY ENTRY -
000379:
000380:                                                                                                  #                P35 IF THIS VEHICLE IS ACTIVE VEHICLE.
000381:
000382:                                                                                                  #                P75 IF THIS VEHICLE IS PASSIVE VEHICLE.
000383:
000384:                                                                                                  #  INPUT
000385:
000386:                                                                                                  #        (1) TPASS4   TIME OF INTERCEPT - SAVED FROM P34/P74
000387:                                                                                                  #  OUTPUT
000388:
000389:                                                                                                  #        (1) TRKMKCNT NUMBER OF MARKS
000390:                                                                                                  #        (2) TTOGO    TIME TO GO
000391:                                                                                                  #        (3) +MGA     MIDDLE GIMBAL ANGLE
000392:                                                                                                  #        (4) DVLOS    DELTA VELOCITY AT MID - LINE OF SIGHT
000393:                                                                                                  #        (5) DELVLVC  DELTA VELOCITY AT MID - LOCAL VERTICAL COORDINATES
000394:
000395:                                                                                                  #  DOWNLINK
000396:
000397:                                                                                                  #        (1) TIG      TIME OF THE TPM MANEUVER
000398:                                                                                                  #        (2) DELVEET3 DELTA VELOCITY AT TPM - REFERENCE COORDINATES
000399:                                                                                                  #        (3) TPASS4   TIME OF INTERCEPT
000400:                                                                                                  #  COMMUNICATION TO THRUSTING PROGRAMS
000401:
000402:                                                                                                  #        (1) TIG      TIME OF THE TPM MANEUVER
000403:                                                                                                  #        (2) RTARG    OFFSET TARGET POSITION
000404:                                                                                                  #        (3) TPASS4   TIME OF INTERCEPT
000405:                                                                                                  #        (4) XDELVFLG RESET TO INDICATE LAMBERT (AIMPOINT) VG COMPUTATION
000406:
000407:                                                                                                  #  SUBROUTINES USED
000408:
000409:                                                                                                  #        AVFLAGA
000410:                                                                                                  #        AVFLAGP
000411:                                                                                                  #        LOADTIME
000412:                                                                                                  #        SELECTMU
000413:                                                                                                  #        PRECSET
000414:                                                                                                  #        S34/35.1
000415:                                                                                                  #        S34/35.2


000417:                                                                                                  #        S34/35.5
000418:                                                                                                  #        VN1645
000419:
000420: 35,2635                                           COUNT*   $$/P3575
000421: 35,2635  E7,1575                                  EBANK=   KT
000422:
000423: 35,2635           02354        P35                TC       AVFLAGA
000424: 35,2636           00006                           EXTEND
000425: 35,2637           31401                           DCA      ATIGINC
000426: 35,2640           02644                           TC       P35/P75A
000427: 35,2641           02361        P75                TC       AVFLAGP
000428: 35,2642           00006                           EXTEND
000429: 35,2643           31403                           DCA      PTIGINC
000430: 35,2644           53576        P35/P75A           DXCH     KT
000431: 35,2645           02366                           TC       P20FLGON                              #  SET UPDATFLG, TRACKFLG
000432: 35,2646           06042                           TC       INTPRET
000433: 35,2647           77624                           CALL
000434: 35,2650           20000                                    SELECTMU
000435: 35,2651           77634        P35/P75B           RTB
000436: 35,2652           21574                                    LOADTIME
000437: 35,2653           03612                           STORE    TSTRT
000438: 35,2654           77615                           DAD
000439: 35,2655           03576                                    KT
000440: 35,2656           03442                           STORE    TIG
000441: 35,2657           03610                           STORE    INTIME                                #  FOR INITVEL
000442: 35,2660           34041                           STCALL   TDEC1
000443: 35,2661           46377                                    PRECSET                               #  ADVANCE BOTH VEHICLES
000444: 35,2662           77624                           CALL
000445: 35,2663           73204                                    S34/35.1                              #  GET NORM AND LOS FOR TRANSFORM
000446: 35,2664           77624                           CALL
000447: 35,2665           73216                                    S34/35.2                              #  GET DELTA V(LV)
000448: 35,2666           77624                           CALL
000449: 35,2667           73432                                    S34/35.5
000450: 35,2670           77624                           CALL
000451: 35,2671           73515                                    VN1645
000452: 35,2672           77650                           GOTO
000453: 35,2673           72651                                    P35/P75B
000454:


000456:                                                                                                  #  ..... S33/34.1  .....
000457:
000458: 35,2674           66220        S33/34.1           STQ      SSP
000459: 35,2675           03463                                    NORMEX
000460: 35,2676           03614                                    TITER
000461: 35,2677           40000                           OCT      40000
000462: 35,2700           40345                           DLOAD    SETPD
000463: 35,2701           33643                                    MAX250
000464: 35,2702           00001                                    0D
000465: 35,2703           27574                           STOVL    SECMAX
000466: 35,2704           03536                                    RACT3
000467: 35,2705           27500                           STOVL    RAPREC
000468: 35,2706           03544                                    VACT3
000469: 35,2707           27506                           STOVL    VAPREC
000470: 35,2710           03552                                    RPASS3
000471: 35,2711           27522                           STOVL    RPPREC
000472: 35,2712           03560                                    VPASS3
000473: 35,2713           03530                           STORE    VPPREC
000474: 35,2714           77624        ELCALC             CALL
000475: 35,2715           73204                                    S34/35.1                              #  NORMAL AND LOS
000476: 35,2716           63235                           VXV      PDVL
000477: 35,2717           03536                                    RACT3                                 #  (RA*VA)*RA 0D
000478: 35,2720           53515                           PDVL     UNIT                                  #  ULOS AT 6D
000479: 35,2721           03536                                    RACT3
000480: 35,2722           46315                           PDVL     VPROJ                                 #  XCHNJ AND UP
000481: 35,2723           51352                           VSL2     BVSU
000482: 35,2724           02311                                    ULOS
000483: 35,2725           63256                           UNIT     PDVL                                  #  UP AT 0D
000484: 35,2726           63241                           DOT      PDVL                                  #  UP.UN*RA AT 0D
000485: 35,2727           00001                                    0D                                    #  UP IN MPAC
000486: 35,2730           75241                           DOT      SIGN
000487: 35,2731           02311                                    ULOS
000488: 35,2732           65552                           SL1      ACOS
000489: 35,2733           50315                           PDVL     DOT                                   #  EA AT 0D
000490: 35,2734           02311                                    ULOS
000491: 35,2735           03536                                    RACT3
000492: 35,2736           71244                           BPL      DLOAD
000493: 35,2737           72742                                    TESTY
000494: 35,2740           06526                                    DPPOSMAX
000495: 35,2741           41425                           DSU      PUSH
000496: 35,2742           71214        TESTY              BOFF     DLOAD
000497: 35,2743           03740                                    ITSWICH
000498: 35,2744           73171                                    ELEX
000499: 35,2745           03576                                    DELEL
000500: 35,2746           14033                           STODL    DELELO
000501: 35,2747           77625                           DSU
000502: 35,2750           02257                                    ELEV
000503: 35,2751           03576                           STORE    DELEL
000504: 35,2752           45246                           ABS      DSU
000505: 35,2753           33647                                    ELEPS


000507: 35,2754           77640                           BMN
000508: 35,2755           73201                                    TIMEX                                 #  COMMERCIALS EVERYWHERE
000509: 35,2756           70535        FIGTIME            SLOAD    SR1
000510: 35,2757           03614                                    TITER
000511: 35,2760           72030                           BHIZ     LXA,1
000512: 35,2761           03463                                    NORMEX                                #  TOO MANY ITERATIONS
000513: 35,2762           00154                                    MPAC
000514: 35,2763           77330                           SXA,1    VLOAD
000515: 35,2764           03613                                    TITER
000516: 35,2765           03552                                    RPASS3
000517: 35,2766           65256                           UNIT     PDDL
000518: 35,2767           00045                                    36D
000519: 35,2770           53515                           PDVL     UNIT
000520: 35,2771           03536                                    RACT3
000521: 35,2772           77725                           PDDL
000522: 35,2773           41525                           PDDL     PUSH
000523: 35,2774           00045                                    36D
000524: 35,2775           77621                           BDSU
000525: 35,2776           00015                                    12D
000526: 35,2777           14037                           STODL    30D                                   #  RP - RA MAGNITUDES
000527: 35,3000           06516                                    DPHALF
000528: 35,3001           41425                           DSU      PUSH
000529: 35,3002           02257                                    ELEV
000530: 35,3003           50165                           SIGN     BMN
000531: 35,3004           00037                                    30D
000532: 35,3005           03463                                    NORMEX
000533: 35,3006           71545                           DLOAD    COS
000534: 35,3007           56205                           DMP      DDV
000535: 35,3010           00017                                    14D
000536: 35,3011           00015                                    12D
000537: 35,3012           77676                           DCOMP                                          #  SINCE COS(180-A)=-COS A
000538: 35,3013           00035                           STORE    28D
000539: 35,3014           44246                           ABS      BDSU
000540: 35,3015           06516                                    DPHALF
000541: 35,3016           77240                           BMN      VLOAD
000542: 35,3017           03463                                    NORMEX
000543: 35,3020           02261                                    UNRM
000544: 35,3021           53435                           VXV      UNIT
000545: 35,3022           00007                                    6D                                    #  UN*RA
000546: 35,3023           41241                           DOT      DMP
000547: 35,3024           03544                                    VACT3
000548: 35,3025           00015                                    12D
000549: 35,3026           47315                           PDVL     VXV
000550: 35,3027           00001                                    0D
000551: 35,3030           03560                                    VPASS3
000552: 35,3031           53435                           VXV      UNIT
000553: 35,3032           00001                                    0D                                    #  (RP*VP)*RP
000554: 35,3033           41241                           DOT      DMP
000555: 35,3034           03560                                    VPASS3
000556: 35,3035           00017                                    14D


000558: 35,3036           77621                           BDSU
000559: 35,3037           63301                           NORM     PDVL                                  #  NORMALIZED WA - WP 12D
000560: 35,3040           00047                                    X1
000561: 35,3041           00007                                    6D
000562: 35,3042           50235                           VXV      DOT
000563: 35,3043           00001                                    0D
000564: 35,3044           02261                                    UNRM                                  #  RA*RP.UN 14D
000565: 35,3045           50315                           PDVL     DOT
000566: 35,3046           00001                                    0D
000567: 35,3047           00007                                    6D
000568: 35,3050           65552                           SL1      ACOS
000569: 35,3051           77765                           SIGN
000570: 35,3052           43225                           DSU      DAD                                   #    ALPHA   PI
000571: 35,3053           06516                                    DPHALF
000572: 35,3054           02257                                    ELEV
000573: 35,3055           65525                           PDDL     ACOS
000574: 35,3056           00035                                    28D
000575: 35,3057           75221                           BDSU     SIGN
000576: 35,3060           06516                                    DPHALF
000577: 35,3061           00037                                    30D                                   #  CONTAINS RP-RA
000578: 35,3062           77615                           DAD
000579: 35,3063           56205                           DMP      DDV
000580: 35,3064           33641                                    TWOPI
000581: 35,3065           77605                           DMP
000582: 35,3066           41257                           SL*      DMP
000583: 35,3067           20176                                    0          -3,1
000584: 35,3070           51406                           PUSH     ABS
000585: 35,3071           50025                           DSU      BMN
000586: 35,3072           03574                                    SECMAX
000587: 35,3073           73077                                    OKMAX
000588: 35,3074           75345                           DLOAD    SIGN                                  #   REPLACE TIME WITH MAX TIME SIGNED
000589: 35,3075           03574                                    SECMAX
000590: 35,3076           77606                           PUSH
000591: 35,3077           51135        OKMAX              SLOAD    BPL                                   #  TEST FIRST ITERATION
000592: 35,3100           03614                                    TITER
000593: 35,3101           73107                                    REPETE
000594: 35,3102           71331                           SSP      DLOAD
000595: 35,3103           03614                                    TITER
000596: 35,3104           37777                           OCT      37777
000597: 35,3105           77650                           GOTO
000598: 35,3106           73145                                    STORDELT
000599: 35,3107           41345        REPETE             DLOAD    DMP
000600: 35,3110           03576                                    DELEL
000601: 35,3111           00033                                    DELELO
000602: 35,3112           71244                           BPL      DLOAD
000603: 35,3113           73123                                    NEXTES
000604: 35,3114           03574                                    SECMAX
000605: 35,3115           77605                           DMP
000606: 35,3116           33645                                    THIRD
000607: 35,3117           17574                           STODL    SECMAX


000609: 35,3120           70446                           ABS      SR1                                   #  CROSSED OVER SOLUTION
000610: 35,3121           52076                           DCOMP    GOTO                                  #  DT=(-SIGN(DTO)//DT//)/2
000611: 35,3122           73133                                    RESIGN
000612: 35,3123           51545        NEXTES             DLOAD    ABS
000613: 35,3124           03576                                    DELEL
000614: 35,3125           51525                           PDDL     ABS
000615: 35,3126           00033                                    DELELO
000616: 35,3127           77625                           DSU
000617: 35,3130           71240                           BMN      DLOAD
000618: 35,3131           73136                                    REVERS                                #  WRONG DIRECTION
000619: 35,3132           77646                           ABS
000620: 35,3133           52165        RESIGN             SIGN     GOTO
000621: 35,3134           03606                                    DELTEEO
000622: 35,3135           73145                                    STORDELT
000623: 35,3136           57545        REVERS             DLOAD    DCOMP
000624: 35,3137           03606                                    DELTEEO
000625: 35,3140           70406                           PUSH     SR1
000626: 35,3141           03606                           STORE    DELTEEO
000627: 35,3142           77615                           DAD
000628: 35,3143           77650                           GOTO
000629: 35,3144           73146                                    ADTIME
000630: 35,3145           03606        STORDELT           STORE    DELTEEO
000631: 35,3146           77615        ADTIME             DAD
000632: 35,3147           02317                                    NOMTPI                                #  SUM OF DELTA T:S
000633: 35,3150           02317                           STORE    NOMTPI
000634: 35,3151           63375                           VLOAD    PDVL
000635: 35,3152           03506                                    VAPREC
000636: 35,3153           03500                                    RAPREC
000637: 35,3154           77624                           CALL
000638: 35,3155           73372                                    GOINT
000639: 35,3156           77624                           CALL
000640: 35,3157           46421                                    ACTIVE                                #  STORE NEW RACT3 VACT3
000641: 35,3160           63375                           VLOAD    PDVL
000642: 35,3161           03530                                    VPPREC
000643: 35,3162           03522                                    RPPREC
000644: 35,3163           77624                           CALL
000645: 35,3164           73372                                    GOINT
000646: 35,3165           77624                           CALL
000647: 35,3166           46431                                    PASSIVE                               #  STORE NEW RPASS3 VPASS3
000648: 35,3167           77650                           GOTO
000649: 35,3170           72714                                    ELCALC
000650: 35,3171           43345        ELEX               DLOAD    DAD
000651: 35,3172           03636                                    TTPI
000652: 35,3173           02317                                    NOMTPI
000653: 35,3174           17636                           STODL    TTPI
000654: 35,3175           77614                           BON
000655: 35,3176           01310                                    ETPIFLAG
000656: 35,3177           73201                                    TIMEX
000657: 35,3200           02257                           STORE    ELEV
000658: 35,3201           52145        TIMEX              DLOAD    GOTO


000660: 35,3202           06520                                    ZEROVECS
000661: 35,3203           03463                                    NORMEX
000662:


000664:                                                                                                  #  ..... S34/35.1  .....
000665:
000666:                                                                                                  #  COMPUTE UNIT NORMAL AND LINE OF SIGHT VECTORS GIVEN THE ACTIVE AND
000667:                                                                                                  #  PASSIVE POS AND VEL AT TIME T3
000668: 35,3204           52375        S34/35.1           VLOAD    VSU
000669: 35,3205           03552                                    RPASS3
000670: 35,3206           03536                                    RACT3
000671: 35,3207           41456                           UNIT     PUSH
000672: 35,3210           26311                           STOVL    ULOS
000673: 35,3211           03536                                    RACT3
000674: 35,3212           53435                           VXV      UNIT
000675: 35,3213           03544                                    VACT3
000676: 35,3214           02261                           STORE    UNRM
000677: 35,3215           77616                           RVQ
000678:


000680:                                                                                                  #  ..... S34/35.2  .....
000681:
000682:                                                                                                  #  ADVANCE PASSIVE VEH TO RENDEZVOUS TIME AND GET REQ VEL FROM LAMBERT
000683: 35,3216           77220        S34/35.2           STQ      VLOAD
000684: 35,3217           03470                                    SUBEXIT
000685: 35,3220           03560                                    VPASS3
000686: 35,3221           65315                           PDVL     PDDL
000687: 35,3222           03552                                    RPASS3
000688: 35,3223           03610                                    INTIME
000689: 35,3224           65325                           PDDL     PDDL
000690: 35,3225           03631                                    TPASS4
000691: 35,3226           33641                                    TWOPI                                 #  CONIC
000692: 35,3227           46125                           PDDL     BHIZ
000693: 35,3230           03467                                    NN
000694: 35,3231           73235                                    S3435.23
000695: 35,3232           77745                           DLOAD
000696: 35,3233           41545                           DLOAD    PUSH
000697: 35,3234           06520                                    ZEROVECS                              #  PRECISION
000698: 35,3235           77624        S3435.23           CALL
000699: 35,3236           73376                                    INTINT                                #  GET TARGET VECTOR
000700: 35,3237           27444        S3435.25           STOVL    RTARG
000701: 35,3240           00007                                    VATT
000702: 35,3241           27506                           STOVL    VPASS4
000703: 35,3242           03444                                    RTARG
000704:                                                                                                  #  COMPUTE PHI = PI + (ACOS(UNIT RA.UNIT RP)-PI)SIGN(RA*RP.U)
000705: 35,3243           63256                           UNIT     PDVL                                  #  UNIT RP
000706: 35,3244           03536                                    RACT3
000707: 35,3245           41456                           UNIT     PUSH                                  #  UNIT RA
000708: 35,3246           50235                           VXV      DOT
000709: 35,3247           00001                                    0D
000710: 35,3250           02261                                    UNRM                                  #  RA*RP.U
000711: 35,3251           77715                           PDVL
000712: 35,3252           72441                           DOT      SL1                                   #  UNIT RA.UNIT RP
000713: 35,3253           00001                                    0D
000714: 35,3254           75326                           ACOS     SIGN
000715: 35,3255           43244                           BPL      DAD
000716: 35,3256           73260                                    NOPIE
000717: 35,3257           06526                                    DPPOSMAX                              #  REASONABLE TWO PI
000718: 35,3260           15754        NOPIE              STODL    ACTCENT
000719: 35,3261           03631                                    TPASS4
000720: 35,3262           77625                           DSU
000721: 35,3263           03610                                    INTIME
000722: 35,3264           03452                           STORE    DELLT4
000723: 35,3265           40335                           SLOAD    SETPD
000724: 35,3266           03467                                    NN                                    #  NUMBER OF OFFSETS
000725: 35,3267           00001                                    0D
000726: 35,3270           63325                           PDDL     PDVL
000727: 35,3271           33653                                    EPSFOUR
000728: 35,3272           03536                                    RACT3
000729: 35,3273           26323                           STOVL    RINIT


000731: 35,3274           03544                                    VACT3
000732: 35,3275           36331                           STCALL   VINIT
000733: 35,3276           22000                                    INITVEL
000734: 35,3277           77624                           CALL
000735: 35,3300           73357                                    LOMAT
000736: 35,3301           64375                           VLOAD    MXV
000737: 35,3302           02366                                    DELVEET3
000738: 35,3303           00001                                    0D
000739: 35,3304           77772                           VSL1
000740: 35,3305           37434                           STCALL   DELVLVC
000741: 35,3306           03470                                    SUBEXIT
000742:


000744:                                                                                                  #  ..... S34/35.3  .....
000745:
000746: 35,3307           45020        S34/35.3           STQ      CALL
000747: 35,3310           03463                                    NORMEX
000748: 35,3311           73357                                    LOMAT                                 #  GET MATRIX IN PUSH LIST
000749: 35,3312           61375                           VLOAD    VXM
000750: 35,3313           03434                                    DELVLVC                               #  NEW DEL V TPI
000751: 35,3314           00001                                    0D
000752: 35,3315           77772                           VSL1
000753: 35,3316           02366                           STORE    DELVEET3                              #  SAVE FOR TRANSFORM
000754: 35,3317           63255                           VAD      PDVL
000755: 35,3320           03544                                    VACT3                                 #  NEW V REQ
000756: 35,3321           03536                                    RACT3
000757: 35,3322           65325                           PDDL     PDDL
000758: 35,3323           03442                                    TIG
000759: 35,3324           03631                                    TPASS4
000760: 35,3325           41525                           PDDL     PUSH
000761: 35,3326           06526                                    DPPOSMAX
000762: 35,3327           77624                           CALL                                           #  INTEG. FOR NEW TARGET VEC
000763: 35,3330           73376                                    INTINT
000764: 35,3331           77775                           VLOAD
000765: 35,3332           00001                                    RATT
000766: 35,3333           03444                           STORE    RTARG
000767: 35,3334           41575        NOVRWRT            VLOAD    PUSH
000768: 35,3335           02311                                    ULOS
000769: 35,3336           57435                           VXV      VCOMP
000770: 35,3337           02261                                    UNRM
000771: 35,3340           41456                           UNIT     PUSH
000772: 35,3341           76435                           VXV      VSL1
000773: 35,3342           02311                                    ULOS
000774: 35,3343           77715                           PDVL
000775: 35,3344           64315                           PDVL     MXV
000776: 35,3345           02366                                    DELVEET3
000777: 35,3346           00001                                    0D
000778: 35,3347           77772                           VSL1
000779: 35,3350           36303                           STCALL   DVLOS
000780: 35,3351           03463                                    NORMEX
000781:


000783:                                                                                                  #  ..... S34/35.4  .....
000784:
000785: 35,3352           40220        S34/35.4           STQ      SETPD                                 #  NO ASTRONAUT OVERWRITE
000786: 35,3353           03463                                    NORMEX
000787: 35,3354           00001                                    0D
000788: 35,3355           77650                           GOTO
000789: 35,3356           73334                                    NOVRWRT
000790:


000792:                                                                                                  #  ..... LOMAT     .....
000793:
000794: 35,3357           57575        LOMAT              VLOAD    VCOMP
000795: 35,3360           02261                                    UNRM
000796: 35,3361           24007                           STOVL    6D                                    #  Y
000797: 35,3362           03536                                    RACT3
000798: 35,3363           57456                           UNIT     VCOMP
000799: 35,3364           00015                           STORE    12D
000800: 35,3365           76435                           VXV      VSL1
000801: 35,3366           02261                                    UNRM                                  #  Z*-Y
000802: 35,3367           00001                           STORE    0D
000803: 35,3370           43401                           SETPD    RVQ
000804: 35,3371           00023                                    18D
000805: 35,3372           65325        GOINT              PDDL     PDDL                                  #  DO
000806: 35,3373           06520                                    ZEROVECS                              #    NOT
000807: 35,3374           02317                                    NOMTPI
000808: 35,3375           41406                           PUSH     PUSH                                  #             ORDER OR INSERT BEFORE INTINT
000809: 35,3376           45020        INTINT             STQ      CALL
000810: 35,3377           03465                                    RTRN
000811: 35,3400           27410                                    INTSTALL
000812: 35,3401           71214                           CLEAR    DLOAD
000813: 35,3402           01673                                    INTYPFLG
000814: 35,3403           43054                           BZE      SET
000815: 35,3404           73406                                    +2
000816: 35,3405           01473                                    INTYPFLG
000817: 35,3406           45545                           DLOAD    STADR
000818: 35,3407           63736                           STODL    TDEC1
000819: 35,3410           73014                           SET      LXA,2
000820: 35,3411           00063                                    MOONFLAG
000821: 35,3412           02777                                    RTX2
000822: 35,3413           43014                           BON      CLEAR
000823: 35,3414           04303                                    CMOONFLG
000824: 35,3415           73417                                    ALLSET
000825: 35,3416           00263                                    MOONFLAG
000826: 35,3417           25517        ALLSET             STOVL    TET
000827: 35,3420           77657                           VSR*
000828: 35,3421           57176                                    0,2
000829: 35,3422           25535                           STOVL    RCV
000830: 35,3423           77657                           VSR*
000831: 35,3424           57176                                    0,2
000832: 35,3425           35543                           STCALL   VCV
000833: 35,3426           27106                                    INTEGRVS
000834: 35,3427           52175                           VLOAD    GOTO
000835: 35,3430           00001                                    RATT
000836: 35,3431           03465                                    RTRN
000837:


000839:                                                                                                  #  ..... S34/35.5  .....
000840:                                                                                                  #  SUBROUTINES USED
000841:
000842:                                                                                                  #        BANKCALL
000843:                                                                                                  #        GOFLASH
000844:                                                                                                  #        GOTOPOOH
000845:                                                                                                  #        S34/35.3
000846:                                                                                                  #        S34/35.4
000847:                                                                                                  #        VNPOOH
000848:
000849: 35,3432           43020        S34/35.5           STQ      BON
000850: 35,3433           03470                                    SUBEXIT
000851: 35,3434           01311                                    FINALFLG
000852: 35,3435           73441                                    FLAGON
000853: 35,3436           52014                           SET      GOTO
000854: 35,3437           00470                                    UPDATFLG
000855: 35,3440           73505                                    FLAGOFF
000856: 35,3441           77214        FLAGON             CLEAR    VLOAD
000857: 35,3442           03274                                    NTARGFLG
000858: 35,3443           03434                                    DELVLVC
000859: 35,3444           01236                           STORE    GDT/2                                 #  SAVE DV BEFORE DISPLAY
000860: 35,3445           77776                           EXIT
000861: 35,3446           33636                 +5        CAF      V06N81
000862: 35,3447           04616                           TC       BANKCALL
000863: 35,3450           20477                           CADR     GOFLASH
000864: 35,3451           06001                           TC       GOTOPOOH
000865: 35,3452           03454                           TC       +2                                    #  PRO
000866: 35,3453           03446                           TC       FLAGON     +5                         #  LOAD
000867: 35,3454           35016                 +2        CA       EBANK7
000868: 35,3455           54003                           TS       EBANK                                 #  TO BE SURE
000869:
000870: 35,3456           22007                           ZL
000871: 35,3457           34756                           CA       FIVE
000872: 35,3460           54002        NTARGCHK           TS       Q
000873: 35,3461           50002                           INDEX    Q
000874: 35,3462           41433                           CS       DELVLVC
000875: 35,3463           50002                           INDEX    Q
000876: 35,3464           61235                           AD       GDT/2
000877: 35,3465           26001                           ADS      L
000878: 35,3466           10002                           CCS      Q
000879: 35,3467           13460                           TCF      NTARGCHK
000880: 35,3470           22000                           LXCH     A
000881: 35,3471           00006                           EXTEND
000882: 35,3472           13475                           BZF      +3
000883: 35,3473           05515                           TC       UPFLAG
000884: 35,3474           00146                           ADRES    NTARGFLG
000885:
000886: 35,3475           06042                           TC       INTPRET
000887: 35,3476           45014                           BOFF     CALL
000888: 35,3477           03354                                    NTARGFLG


000890: 35,3500           73502                                    NOCHG
000891: 35,3501           73307                                    S34/35.3
000892: 35,3502           77775        NOCHG              VLOAD
000893: 35,3503           02366                                    DELVEET3
000894: 35,3504           03656                           STORE    DELVSIN
000895: 35,3505           77624        FLAGOFF            CALL
000896: 35,3506           73352                                    S34/35.4
000897: 35,3507           77776                           EXIT
000898: 35,3510           33635                           CAF      V06N59
000899: 35,3511           03621                           TC       VNPOOH
000900: 35,3512           06042                           TC       INTPRET
000901: 35,3513           77650                           GOTO
000902: 35,3514           03470                                    SUBEXIT
000903:


000905:                                                                                                  #  ..... VN1645    .....
000906:
000907:                                                                                                  #  SUBROUTINES USED
000908:
000909:                                                                                                  #        P3XORP7X
000910:                                                                                                  #        GET+MGA
000911:                                                                                                  #        BANKCALL
000912:                                                                                                  #        DELAYJOB
000913:                                                                                                  #        COMPTGO
000914:                                                                                                  #        GOFLASHR
000915:                                                                                                  #        GOTOPOOH
000916:                                                                                                  #        FLAGUP
000917:
000918: 35,3515           71220        VN1645             STQ      DLOAD
000919: 35,3516           03470                                    SUBEXIT
000920: 35,3517           33651                                    DP-.01
000921: 35,3520           02253                           STORE    +MGA                                  #  MGA = -.01
000922: 35,3521           71214                           BOFF     DLOAD
000923: 35,3522           01351                                    FINALFLG
000924: 35,3523           73543                                    GET45
000925: 35,3524           33651                                    DP-.01
000926: 35,3525           77615                           DAD
000927: 35,3526           33651                                    DP-.01
000928: 35,3527           02253                           STORE    +MGA                                  #  MGA = -.02
000929: 35,3530           77414                           BOFF     EXIT
000930: 35,3531           01742                                    REFSMFLG
000931: 35,3532           73543                                    GET45
000932: 35,3533           03613                           TC       P3XORP7X
000933: 35,3534           03536                           TC       +2                                    #  P3X
000934: 35,3535           03544                           TC       GET45      +1                         #  P7X
000935: 35,3536           06042                           TC       INTPRET
000936: 35,3537           41575                           VLOAD    PUSH
000937: 35,3540           03656                                    DELVSIN
000938: 35,3541           77624                           CALL                                           #  COMPUTE MGA
000939: 35,3542           15725                                    GET+MGA
000940: 35,3543           77776        GET45              EXIT
000941: 35,3544           02437                           TC       COMPTGO                               #  INITIATE TASK TO UPDATE TTOGO
000942: 35,3545           31470                           CA       SUBEXIT
000943: 35,3546           55464                           TS       QSAVED
000944: 35,3547           34777                           CAF      1SEC
000945: 35,3550           04616                           TC       BANKCALL
000946: 35,3551           01736                           CADR     DELAYJOB
000947: 35,3552           33637                           CAF      V16N45                                #  TRKMKCNT, TTOGO, +MGA
000948: 35,3553           04616                           TC       BANKCALL
000949: 35,3554           20477                           CADR     GOFLASH
000950: 35,3555           03560                           TC       KILCLOCK                              #  TERMINATE
000951: 35,3556           03563                           TC       N45PROC                               #  PROCEED
000952: 35,3557           03573                           TC       CLUPDATE                              #  RECYCLE - RETURN FOR INITIAL COMPUTATION
000953: 35,3560           30005        KILCLOCK           CA       Z
000954: 35,3561           55162                           TS       DISPDEX


000956: 35,3562           06001                           TC       GOTOPOOH
000957: 35,3563           40076        N45PROC            CS       FLAGWRD2
000958: 35,3564           74746                           MASK     BIT6
000959: 35,3565           00006                           EXTEND
000960: 35,3566           13560                           BZF      KILCLOCK                              #  FINALFLG IS SET-FLASH V37-AWAIT NEW PGM
000961: 35,3567           05364                           TC       PHASCHNG
000962: 35,3570           04024                           OCT      04024
000963: 35,3571           05515                           TC       UPFLAG                                #  SET
000964: 35,3572           00047                           ADRES    FINALFLG                              #  FINALFLG
000965: 35,3573           30005        CLUPDATE           CA       Z
000966: 35,3574           55162                           TS       DISPDEX
000967: 35,3575           05364                           TC       PHASCHNG
000968: 35,3576           04024                           OCT      04024
000969: 35,3577           06042                           TC       INTPRET
000970: 35,3600           52014                           CLEAR    GOTO
000971: 35,3601           00670                                    UPDATFLG
000972: 35,3602           03464                                    QSAVED
000973:


000975:                                                                                                  #  ..... DISPLAYE  .....
000976:
000977:                                                                                                  #  SUBROUTINES USED
000978:
000979:                                                                                                  #        BANKCALL
000980:                                                                                                  #        GOFLASHR
000981:                                                                                                  #        GOTOPOOH
000982:                                                                                                  #        BLANKET
000983:                                                                                                  #        ENDOFJOB
000984:
000985: 35,3603           00006        DISPLAYE           EXTEND
000986: 35,3604           23463                           QXCH     NORMEX
000987: 35,3605           33633                           CAF      V06N55
000988: 35,3606           04616                           TCR      BANKCALL
000989: 35,3607           20477                           CADR     GOFLASH
000990: 35,3610           16001                           TCF      GOTOPOOH
000991: 35,3611           01463                           TC       NORMEX
000992: 35,3612           13605                           TCF      -5
000993:


000995:                                                                                                  #  ..... P3XORP7X  .....
000996:
000997: 35,3613           37747        P3XORP7X           CAF      HIGH9
000998: 35,3614           71010                           MASK     MODREG
000999: 35,3615           00006                           EXTEND
001000: 35,3616           13620                           BZF      +2
001001: 35,3617           24002                           INCR     Q
001002: 35,3620           00002                           RETURN
001003:
001004:                                                                                                  #  ..... VNPOOH    .....
001005:
001006:                                                                                                  #  SUBROUTINES USED
001007:
001008:                                                                                                  #        BANKCALL
001009:                                                                                                  #        GOFLASH
001010:                                                                                                  #        GOTOPOOH
001011:
001012: 35,3621           00006        VNPOOH             EXTEND
001013: 35,3622           23465                           QXCH     RTRN
001014: 35,3623           55615                           TS       VERBNOUN
001015: 35,3624           31615                           CA       VERBNOUN
001016: 35,3625           04616                           TCR      BANKCALL
001017: 35,3626           20477                           CADR     GOFLASH
001018: 35,3627           16001                           TCF      GOTOPOOH
001019: 35,3630           01465                           TC       RTRN
001020: 35,3631           13624                           TCF      -5
001021:


001023:                                                                                                  #  ..... CONSTANTS .....
001024:
001025: 35,3632           01445        V06N37             VN       0637
001026: 35,3633           01467        V06N55             VN       0655
001027: 35,3634           01472        V06N58             VN       0658
001028: 35,3635           01473        V06N59             VN       0659
001029: 35,3636           01521        V06N81             VN       0681
001030: 35,3637           04055        V16N45             VN       1645
001031: 35,3640           14441 37325  TWOPI              2DEC     6.283185307 B-4
001032:
001033: 35,3642           00001 20650  MAX250             2DEC     25         E3
001034:
001035: 35,3644           12525 12525  THIRD              2DEC     .333333333
001036:
001037: 35,3646           00004 21505  ELEPS              2DEC     .27777777  E-3
001038:
001039: 35,3650           77777        DP-.01             OCT      77777                                 #  CONSTANTS
001040: 35,3651           61337                           OCT      61337                                 #  ADJACENT       -.01 FOR MGA DSP
001041: 35,3652           01252 25253  EPSFOUR            2DEC     .0416666666
001042:
001043: 35,3654           13434 16162  130DEG             2DEC     .3611111111
001044:


001046:                                                                                                  #  ..... INITVEL .....
001047:                                                                                                  #  MOD NO -1       LOG SECTION - P34-P35, P74-P75
001048:                                                                                                  #  MOD BY WHITE.P  DATE  21NOV67
001049:
001050:                                                                                                  #  FUNCTIONAL DESCRIPTION
001051:
001052:                                                                                                  #        THIS SUBROUTINE COMPUTES THE REQUIRED INITIAL VELOCITY VECTOR FOR
001053:                                                                                                  #        A TRAJECTORY OF SPECIFIED TRANSFER TIME BETWEEN SPECIFIED INITIAL
001054:                                                                                                  #        AND TARGET POSITIONS.  THE TRAJECTORY MAY BE EITHER CONIC OR
001055:                                                                                                  #        PRECISION DEPENDING ON AN INPUT PARAMETER (NAMELY, NUMBER OF
001056:                                                                                                  #        OFFSETS).  IN ADDITION, IN THE PRECISION TRAJECTORY CASE, THE
001057:                                                                                                  #        SUBROUTINE ALSO COMPUTES AN OFFSET TARGET VECTOR, TO BE USED
001058:                                                                                                  #        DURING PURE-CONIC CROSS-PRODUCT STEERING.  THE OFFSET TARGET
001059:                                                                                                  #        VECTOR IS THE TERMINAL POSITION VECTOR OF A CONIC TRAJECTORY WHICH
001060:                                                                                                  #        HAS THE SAME INITIAL STATE AS A PRECISION TRAJECTORY WHOSE
001061:                                                                                                  #        TERMINAL POSITION VECTOR IS THE SPECIFIED TARGET VECTOR.
001062:
001063:                                                                                                  #        IN ORDER TO AVOID THE INHERENT SINGULARITIES IN THE 180 DEGREE
001064:                                                                                                  #        TRANSFER CASE WHEN THE (TRUE OR OFFSET) TARGET VECTOR MAY BE
001065:                                                                                                  #        SLIGHTLY OUT OF THE ORBITAL PLANE, THIS SUBROUTINE ROTATES THIS
001066:                                                                                                  #        VECTOR INTO A PLANE DEFINED BY THE INPUT INITIAL POSITION VECTOR
001067:                                                                                                  #        AND ANOTHER INPUT VECTOR (USUALLY THE INITIAL VELOCITY VECTOR),
001068:                                                                                                  #        WHENEVER THE INPUT TARGET VECTOR LIES INSIDE A CONE WHOSE VERTEX
001069:                                                                                                  #        IS THE ORIGIN OF COORDINATES, WHOSE AXIS IS THE 180 DEGREE
001070:                                                                                                  #        TRANSFER DIRECTION, AND WHOSE CONE ANGLE IS SPECIFIED BY THE USER.
001071:
001072:                                                                                                  #        THE LAMBERT SUBROUTINE IS UTILIZED FOR THE CONIC COMPUTATIONS AND
001073:                                                                                                  #        THE COASTING INTEGRATION SUBROUTINE IS UTILIZED FOR THE PRECISION
001074:                                                                                                  #        TRAJECTORY COMPUTATIONS.
001075:
001076:                                                                                                  #  CALLING SEQUENCE
001077:
001078:                                                                                                  #        L         CALL
001079:                                                                                                  #        L+1               INITVEL
001080:                                                                                                  #        L+2       (RETURN - ALWAYS)
001081:
001082:                                                                                                  #  INPUT
001083:
001084:                                                                                                  #        (1) RINIT    INITIAL POSITION RADIUS VECTOR
001085:                                                                                                  #        (2) VINIT    INITIAL POSITION VELOCITY VECTOR
001086:                                                                                                  #        (3) RTARG    TARGET POSITION RADIUS VECTOR
001087:                                                                                                  #        (4) DELLT4   DESIRED TIME OF FLIGHT FROM RINIT TO RTARG
001088:                                                                                                  #        (5) INTIME   TIME OF RINIT
001089:                                                                                                  #        (6) 0D       NUMBER OF ITERATIONS OF LAMBERT/INTEGRVS
001090:                                                                                                  #        (7) 2D       ANGLE TO 180 DEGREES WHEN ROTATION STARTS
001091:                                                                                                  #        (8) RTX1     -2 FOR EARTH, -10D FOR LUNAR
001092:                                                                                                  #        (9) RTX2     COORDINATE SYSTEM ORIGIN - 0 FOR EARTH, 2 FOR LUNAR
001093:                                                                                                  #        PUSHLOC SET AT 4D
001094:


001096:                                                                                                  #  OUTPUT
001097:
001098:                                                                                                  #        (1) RTARG    OFFSET TARGET POSITION VECTOR
001099:                                                                                                  #        (2) VIPRIME  MANEUVER VELOCITY REQUIRED
001100:                                                                                                  #        (3) VTPRIME  VELOCITY AT TARGET AFTER MANEUVER
001101:                                                                                                  #        (4) DELVEET3 DELTA VELOCITY REQUIRED FOR MANEUVER
001102:
001103:                                                                                                  #  SUBROUTINES USED
001104:
001105:                                                                                                  #        LAMBERT
001106:                                                                                                  #        INTSTALL
001107:                                                                                                  #        INTEGRVS
001108:
001109: 11,2000                                           SETLOC   INTVEL
001110: 11,2000                                           BANK
001111:
001112: 11,2000                                           COUNT*   $$/INITV
001113: 11,2000           77614        INITVEL            SET                                            #  COGA GUESS NOT AVAILABLE
001114: 11,2001           00475                                    GUESSW
001115: 11,2002           44175        HAVEGUES           VLOAD    STQ
001116: 11,2003           03444                                    RTARG
001117: 11,2004           03463                                    NORMEX
001118: 11,2005           03472                           STORE    RTARG1
001119: 11,2006           77646                           ABVAL
001120: 11,2007           03723                           STORE    RTMAG
001121: 11,2010           46135                           SLOAD    BHIZ
001122: 11,2011           03000                                    RTX2
001123: 11,2012           22026                                    INITVEL1
001124: 11,2013           72575                           VLOAD    VSL2
001125: 11,2014           02323                                    RINIT                                 #  B29
001126: 11,2015           26323                           STOVL    RINIT                                 #  B27
001127: 11,2016           02331                                    VINIT                                 #  B7
001128: 11,2017           77752                           VSL2
001129: 11,2020           26331                           STOVL    VINIT                                 #  B5
001130: 11,2021           03472                                    RTARG1
001131: 11,2022           77752                           VSL2
001132: 11,2023           03472                           STORE    RTARG1
001133: 11,2024           77646                           ABVAL
001134: 11,2025           03723                           STORE    RTMAG
001135:                                                                                                  #       INITIALIZATION
001136:
001137: 11,2026           71331        INITVEL1           SSP      DLOAD                                 #  SET ITCTR TO -1,LOAD MPAC WITH E4(PL 2D)
001138: 11,2027           03617                                    ITCTR
001139: 11,2030           77776                                    0          -1
001140: 11,2031           70546                           COSINE   SR1                                   #  CALCULATE COSINE (E4)  (+2)
001141: 11,2032           17667                           STODL    COZY4                                 #  SET COZY4 TO COSINE(E4)          (PL 0D)
001142: 11,2033           67154                           LXA,2    SXA,2
001143: 11,2034           00154                                    MPAC
001144: 11,2035           02701                                    VTARGTAG                              #  SET VTARGTAG TO 0D (SP)
001145: 11,2036           77775                           VLOAD


001147: 11,2037           02323                                    RINIT
001148: 11,2040           26655                           STOVL    R1VEC                                 #  R1VEC EQ RINIT
001149: 11,2041           03472                                    RTARG1
001150: 11,2042           16663                           STODL    R2VEC                                 #  R2VEC EQ RTARG
001151: 11,2043           03452                                    DELLT4
001152: 11,2044           02671                           STORE    TDESIRED                              #  TDESIRED EQ DELLT4
001153: 11,2045           77201                           SETPD    VLOAD
001154: 11,2046           00001                                    0D                                    #  INITIALIZE PL TO 0D
001155: 11,2047           02323                                    RINIT                                 #  MPAC EQ RINIT (+29)
001156: 11,2050           41456                           UNIT     PUSH                                  #  UNIT(RI)  (+1)                   (PL 6D)
001157: 11,2051           53435                           VXV      UNIT
001158: 11,2052           02331                                    VINIT                                 #  MPAC EQ UNIT(RI) X VI   (+8)
001159: 11,2053           26674                           STOVL    UN
001160: 11,2054           03472                                    RTARG1
001161: 11,2055           50256                           UNIT     DOT                                   #  TEMP=URT.URI  (+2)               (PL 0D)
001162: 11,2056           43015                           DAD      CLEAR
001163: 11,2057           03667                                    COZY4
001164: 11,2060           03665                                    NORMSW
001165: 11,2061           03667                           STORE    COZY4
001166: 11,2062           43044        INITVEL2           BPL      SET
001167: 11,2063           22105                                    INITVEL3                              #  UN CALCULATED IN LAMBERT
001168: 11,2064           03465                                    NORMSW
001169:                                                                                                  #     ROTATE RC INTO YC PLANE - SET UNIT NORMAL TO YC
001170:
001171: 11,2065           41575                           VLOAD    PUSH                                  #                                   (PL 6D)
001172: 11,2066           02663                                    R2VEC                                 #  RC TO 6D  (+29)
001173: 11,2067           63246                           ABVAL    PDVL                                  #  RC TO MPAC, ABVAL(RC) (+29) TO OD(PL 2D)
001174: 11,2070           46206                           PUSH     VPROJ                                 #                                   (PL 8D)
001175: 11,2071           02674                                    UN
001176: 11,2072           51352                           VSL2     BVSU
001177: 11,2073           74256                           UNIT     VXSC                                  #                                   (PL 0D)
001178: 11,2074           77772                           VSL1
001179: 11,2075           02663                           STORE    R2VEC
001180: 11,2076           67351                           TLOAD    SLOAD
001181: 11,2077           24007                                    ZEROVEC
001182: 11,2100           03617                                    ITCTR
001183: 11,2101           77244                           BPL      VLOAD
001184: 11,2102           22105                                    INITVEL3
001185: 11,2103           02663                                    R2VEC
001186: 11,2104           03472                           STORE    RTARG1
001187: 11,2105           63345        INITVEL3           DLOAD    PDVL                                  #                                   (PL 2D)
001188: 11,2106           26007                                    MUEARTH                               #  POSITIVE VALUE
001189: 11,2107           02663                                    R2VEC
001190: 11,2110           63256                           UNIT     PDVL                                  #  2D = UNIT(R2VEC)                 (PL 8D)
001191: 11,2111           02655                                    R1VEC
001192: 11,2112           41456                           UNIT     PUSH                                  #  8D = UNIT(R1VEC)                 (PL14D)
001193: 11,2113           57435                           VXV      VCOMP                                 #  -N = UNIT(R2VEC) X UNIT(R1VEC)
001194: 11,2114           00003                                    2D
001195: 11,2115           77606                           PUSH                                           #                                   (PL20D)
001196: 11,2116           71350                           LXA,1    DLOAD


001198: 11,2117           02776                                    RTX1
001199: 11,2120           00023                                    18D
001200: 11,2121           62040                           BMN      INCR,1
001201: 11,2122           22124                                    +2
001202: 11,2123           77767                           DEC      -8         B-14
001203: 11,2124           67310                           INCR,1   SLOAD
001204: 11,2125           00012                                    10D
001205: 11,2126           00047                                    X1
001206: 11,2127           77230                           BHIZ     VLOAD                                 #                                   (PL14D)
001207: 11,2130           22132                                    +2
001208: 11,2131           41476                           VCOMP    PUSH                                  #                                   (PL20D)
001209: 11,2132           77775                           VLOAD                                          #                                   (PL14D)
001210: 11,2133           50235                           VXV      DOT                                   #                                   (PL 2D)
001211: 11,2134           71244                           BPL      DLOAD                                 #                                   (PL 0D)
001212: 11,2135           22137                                    INITVEL4
001213: 11,2136           41476                           DCOMP    PUSH                                  #                                   (PL 2D)
001214: 11,2137           67154        INITVEL4           LXA,2    SXA,2
001215: 11,2140           00000                                    0D
001216: 11,2141           02672                                    GEOMSGN
001217:                                                                                                  #    SET INPUTS UP FOR LAMBERT
001218:
001219: 11,2142           66350                           LXA,1    SSP
001220: 11,2143           02776                                    RTX1
001221: 11,2144           00027                                    ITERCTR
001222: 11,2145           00024                                    20D
001223:                                                                                                  #     OPERATE THE LAMBERT CONIC ROUTINE (COASTFLT SUBROUTINE)
001224:
001225: 11,2146           77624                           CALL
001226: 11,2147           25212                                    LAMBERT
001227:
001228:                                                                                                  #  ARRIVED AT SOLUTION IS GOOD ENOUGH ACCORDING TO SLIGHTLY WIDER BOUNDS.
001229:
001230: 11,2150           77214                           CLEAR    VLOAD
001231: 11,2151           00675                                    GUESSW
001232: 11,2152           02744                                    VVEC
001233:                                                                                                  #  STORE CALCULATED INITIAL VELOCITY REQUIRED IN VIPRIME
001234:
001235: 11,2153           16337                           STODL    VIPRIME                               #  INITIAL VELOCITY REQUIRED  (+7)
001236:
001237:                                                                                                  #     IF NUMIT IS ZERO, CONTINUE AT INITVELB, OTHERWISE
001238:                                                                                                  #  SET UP INPUTS FOR ENCKE INTEGRATION (INTEGRVS).
001239:
001240: 11,2154           02702                                    VTARGTAG
001241: 11,2155           45030                           BHIZ     CALL
001242: 11,2156           22233                                    INITVEL7
001243: 11,2157           27410                                    INTSTALL
001244: 11,2160           43135                           SLOAD    CLEAR
001245: 11,2161           03000                                    RTX2
001246: 11,2162           00263                                    MOONFLAG
001247: 11,2163           43030                           BHIZ     SET


001249: 11,2164           22166                                    INITVEL5
001250: 11,2165           00063                                    MOONFLAG
001251: 11,2166           77775        INITVEL5           VLOAD
001252: 11,2167           02323                                    RINIT
001253: 11,2170           02655                           STORE    R1VEC
001254: 11,2171           25535                           STOVL    RCV
001255: 11,2172           02337                                    VIPRIME
001256: 11,2173           15543                           STODL    VCV
001257: 11,2174           03610                                    INTIME
001258: 11,2175           01517                           STORE    TET
001259: 11,2176           43015                           DAD      CLEAR
001260: 11,2177           03452                                    DELLT4
001261: 11,2200           01673                                    INTYPFLG
001262: 11,2201           34041                           STCALL   TDEC1
001263: 11,2202           27106                                    INTEGRVS
001264: 11,2203           77775                           VLOAD
001265: 11,2204           00025                                    VATT1
001266: 11,2205           02703                           STORE    VTARGET
001267:
001268:                                                                                                  #   IF ITERATION COUNTER (ITCTR) EQ NO. ITERATIONS (NUMIT), CONTINUE AT
001269:                                                                                                  #  INITVELC, OTHERWISE REITERATE LAMBERT AND ENCKE
001270:
001271: 11,2206           63154                           LXA,2    INCR,2
001272: 11,2207           03616                                    ITCTR
001273: 11,2210           00001                                    1D                                    #  INCREMENT ITCTR
001274: 11,2211           55134                           SXA,2    XSU,2
001275: 11,2212           03616                                    ITCTR
001276: 11,2213           02701                                    VTARGTAG
001277: 11,2214           46135                           SLOAD    BHIZ                                  #  IF SP(MPAC) EQ 0, CONTINUE AT INITVELC
001278: 11,2215           00050                                    X2
001279: 11,2216           22230                                    INITVEL6
001280:
001281:                                                                                                  #    OFFSET CONIC TARGET VECTOR
001282:
001283: 11,2217           52375                           VLOAD    VSU
001284: 11,2220           03472                                    RTARG1
001285: 11,2221           00017                                    RATT1
001286: 11,2222           77655                           VAD
001287: 11,2223           02663                                    R2VEC
001288: 11,2224           16663                           STODL    R2VEC
001289: 11,2225           03667                                    COZY4
001290: 11,2226           77650                           GOTO
001291: 11,2227           22062                                    INITVEL2                              #  CONTINUE ITERATING AT INITVEL2
001292:                                                                                                  #  COMPUTE THE DELTA VELOCITY
001293:
001294: 11,2230           77775        INITVEL6           VLOAD
001295: 11,2231           02663                                    R2VEC
001296: 11,2232           03472                           STORE    RTARG1
001297: 11,2233           52375        INITVEL7           VLOAD    VSU
001298: 11,2234           02337                                    VIPRIME
001299: 11,2235           02331                                    VINIT


001301: 11,2236           26366                           STOVL    DELVEET3                              #  DELVEET3 = VIPRIME-VINIT  (+7)
001302: 11,2237           02703                                    VTARGET
001303: 11,2240           03566                           STORE    VTPRIME
001304: 11,2241           46135                           SLOAD    BHIZ
001305: 11,2242           03000                                    RTX2
001306: 11,2243           22260                                    INITVELX
001307: 11,2244           70575                           VLOAD    VSR2
001308: 11,2245           03566                                    VTPRIME
001309: 11,2246           27566                           STOVL    VTPRIME
001310: 11,2247           02337                                    VIPRIME
001311: 11,2250           77742                           VSR2
001312: 11,2251           26337                           STOVL    VIPRIME
001313: 11,2252           03472                                    RTARG1
001314: 11,2253           77742                           VSR2
001315: 11,2254           27472                           STOVL    RTARG1
001316: 11,2255           02366                                    DELVEET3
001317: 11,2256           77742                           VSR2
001318: 11,2257           02366                           STORE    DELVEET3
001319: 11,2260           70750        INITVELX           LXA,1    DLOAD*
001320: 11,2261           02776                                    RTX1
001321: 11,2262           10003                                    MUTABLE    -2,1
001322: 11,2263           41206                           PUSH     DMP
001323: 11,2264           02742                                    R1A
001324: 11,2265           56342                           SR1      DDV
001325: 11,2266           00041                                    R1
001326: 11,2267           17721                           STODL    MU/A
001327: 11,2270           77661                           SR
001328: 11,2271           20607                                    6
001329: 11,2272           03717                           STORE    MUASTEER
001330: 11,2273           77201                           SETPD    VLOAD
001331: 11,2274           00001                                    0D
001332: 11,2275           03472                                    RTARG1
001333: 11,2276           03444                           STORE    RTARG
001334: 11,2277           52014                           CLEAR    GOTO
001335: 11,2300           01267                                    XDELVFLG
001336: 11,2301           03463                                    NORMEX
001337:
001338:                                                                                                  #  ..... END OF INITVEL ROUTINE .....
001339:


001341:                                                                                                  #  ..... MIDGIM .....
001342:
001343:                                                                                                  #  MOD NO. 0, BY WILLMAN, SUBROUTINE RENDGUID, LOG P34-P35, P74-P75
001344:                                                                                                  #   REVISION 03, 17 FEB 67
001345:
001346:                                                                                                  #           IF THE ACTIVE VEHICLE IS DOING THE COMPUTATION, MIDGIM COMPUTES
001347:                                                                                                  #  THE POSITIVE MIDDLE GIMBAL ANGLE OF THE ACTIVE VEHICLE TO THE INPUT
001348:                                                                                                  #  DELTA VELOCITY VECTOR (0D IN PUSH LIST),  OTHERWISE
001349:                                                                                                  #  MIDGIM CONVERTS THE INPUT DELTA VELOCITY VECTOR FROM INERTIAL COORDIN-
001350:                                                                                                  #  ATES TO LOCAL VERTICAL COORDINATES OF THE ACTIVE VEHICLE.
001351:
001352:                                                                                                  #    .. INPUTS ..
001353:
001354:                                                                                                  #      NAME        MEANING                              UNITS/SCALING/MODE
001355:
001356:                                                                                                  #     AVFLAG  INT FLAG - 0 IS CSM ACTIVE, 1 IS LEM ACTIVE             BIT
001357:                                                                                                  #     RINIT   ACTIVE VEHICLE RADIUS VECTOR            METERS/CSEC (+7) VT
001358:                                                                                                  #     VINIT   ACTIVE VEHICLE VELOCITY VECTOR          METERS/CSEC (+7) VT
001359:                                                                                                  #     0D (PL) ACTIVE VEHICLE DELTA VELOCITY VECTOR    METERS/CSEC (+7) VT
001360:
001361:                                                                                                  #    .. OUTPUTS ..
001362:
001363:                                                                                                  #      NAME        MEANING                              UNITS/SCALING/MODE
001364:
001365:                                                                                                  #       +MGA  + MIDDLE GIMBAL ANGLE                  REVOLUTIONS (+0) DP
001366:                                                                                                  #     DELVLVC DELTA VELOCITY VECTOR IN LV COORD.     METERS/CSEC (+7) VT
001367:                                                                                                  #    MGLVFLAG INT FLAG - 0 IS +MGA COMPUTED, 1 IS DELVLVC COMP.  -   BIT
001368:
001369:                                                                                                  #   .. CALLING SEQUENCE ..
001370:
001371:                                                                                                  #  L       CALL
001372:                                                                                                  #  L+1            MIDGIM
001373:                                                                                                  #  L+2     (RETURN - ALWAYS)
001374:
001375:                                                                                                  #    .. NO SUBROUTINES CALLED ..
001376:
001377:                                                                                                  #    .. DEBRIS - ERASEABLE TEMPORARY USAGE
001378:
001379:                                                                                                  #         A,Q,L, PUSH LIST, MPAC.
001380:
001381:                                                                                                  #    .. ALARMS - NONE ..
001382:


001384:                                                                                                  #  MIDDLE GIMBAL ANGLE COMPUTATION.
001385:
001386: 06,2000                                           SETLOC   MIDDGIM
001387: 06,2000                                           BANK
001388:
001389: 06,3723                                           COUNT*   $$/MIDG
001390:
001391: 06,3723           20000 00000  HALFREV            2DEC     1          B-1
001392:
001393: 06,3725           53575        GET+MGA            VLOAD    UNIT                                  #  (PL 0D) V (+7) TO MPAC, UNITIZE  UV (+1)
001394: 06,3726           77656                           UNIT
001395: 06,3727           72441                           DOT      SL1                                   #  DOT UV WITH Y(STABLE MEMBER) AND RESCALE
001396: 06,3730           01740                                    REFSMMAT   +6                         #   FROM +2 TO +1 FOR ASIN ROUTINE
001397: 06,3731           51136                           ARCSIN   BPL
001398: 06,3732           15736                                    SETMGA
001399: 06,3733           43215                           DAD      DAD                                   #  CONVERT -MGA TO +MGA BY
001400: 06,3734           15724                                    HALFREV                               #  ADDING ONE REVOLUTION
001401: 06,3735           15724                                    HALFREV
001402: 06,3736           02253        SETMGA             STORE    +MGA
001403: 06,3737           43414                           CLR      RVQ                                   #  CLEAR MGLVFLAG TO INDICATE +MGA CALC
001404: 06,3740           02675                                    MGLVFLAG                              #      AND EXIT
001405: 06,3741           53575        GET.LVC            VLOAD    UNIT                                  #  (PL 6D)   R (+29) IN MPAC, UNITIZE UR
001406: 06,3742           02323                                    RINIT
001407: 06,3743           77676                           VCOMP                                          #  U(-R)
001408: 06,3744           00023                           STORE    18D                                   #  U(-R) TO 18D
001409: 06,3745           53435                           VXV      UNIT                                  #  U(-R)*V EQ V*U(R), U(V*R)
001410: 06,3746           02331                                    VINIT
001411: 06,3747           00015                           STORE    12D                                   #  U(V*R) TO 12D
001412: 06,3750           53435                           VXV      UNIT                                  #  U(V*R)*U(-R), U((V*R)*(-R))
001413: 06,3751           00023                                    18D
001414: 06,3752           24007                           STOVL    6D                                    #  TRANSFORMATION MATRIX IS IN 6D (+1)
001415: 06,3753           00001                                    0D                                    #  DELTA V (+7) IN 0D
001416: 06,3754           76521                           MXV      VSL1                                  #  CONVERT FROM INER COOR TO LV COOR (+8)
001417: 06,3755           00007                                    6D                                    #   AND SCALE +7 IN MPAC
001418: 06,3756           03434                           STORE    DELVLVC                               #  STORE IN DELVLVC (+7)
001419: 06,3757           43414                           SET      RVQ                                   #  SET MGLVFLAG TO INDICATE LVC CALC
001420: 06,3760           02475                                    MGLVFLAG                              #      AND EXIT
001421:                                                                                                  #     ..... END OF MIDGIM ROUTINE .....
001422:


001424: 10,2000                                           BANK     10
001425: 10,2000                                           SETLOC   SLCTMU
001426: 10,2000                                           BANK
001427: 10,2000                                           COUNT*   $$/MIDG
001428:
001429: 10,2000           77160        SELECTMU           AXC,1    AXT,2
001430: 10,2001           00002                                    2D
001431: 10,2002           00000                                    0D
001432: 10,2003           77614                           BOFF
001433: 10,2004           04343                                    CMOONFLG
001434: 10,2005           20011                                    SETMUER
001435: 10,2006           77160                           AXC,1    AXT,2
001436: 10,2007           00012                                    10D
001437: 10,2010           00002                                    2D
001438: 10,2011           66143        SETMUER            DLOAD*   SXA,1
001439: 10,2012           10011                                    MUTABLE    +4,1
001440: 10,2013           02776                                    RTX1
001441: 10,2014           22317                           STODL*   RTSR1/MU
001442: 10,2015           10003                                    MUTABLE    -2,1
001443: 10,2016           54214                           BOFF     SR
001444: 10,2017           04343                                    CMOONFLG
001445: 10,2020           20022                                    RTRNMU
001446: 10,2021           20607                                    6D
001447: 10,2022           02321        RTRNMU             STORE    RTMU
001448: 10,2023           43134                           SXA,2    CLEAR
001449: 10,2024           02777                                    RTX2
001450: 10,2025           01271                                    FINALFLG
001451: 10,2026           77650                           GOTO
001452: 10,2027           73515                                    VN1645
001453:


001455:                                                                                                  #  ..... PERIAPO .....
001456:
001457:                                                                                                  #  MOD NO -1       LOG SECTION - P34-P35, P74-P75
001458:                                                                                                  #  MOD BY WHITE.P  DATE  18JAN68
001459:
001460:                                                                                                  #  FUNCTIONAL DESCRIPTION
001461:
001462:                                                                                                  #        THIS SUBROUTINE COMPUTES THE TWO BODY APOCENTER AND PERICENTER
001463:                                                                                                  #        ALTITUDES GIVEN THE POSITION AND VELOCITY VECTORS FOR A POINT ON
001464:                                                                                                  #        THE TRAJECTORY AND THE PRIMARY BODY.
001465:
001466:                                                                                                  #        SETRAD IS CALLED TO  DETERMINE THE RADIUS OF THE PRIMARY BODY.
001467:
001468:                                                                                                  #        APSIDES IS CALLED TO SOLVE FOR THE TWO BODY RADII OF APOCENTER AND
001469:                                                                                                  #        PERICENTER AND THE ECCENTRICITY OF THE TRAJECTORY.
001470:
001471:                                                                                                  #  CALLING SEQUENCE
001472:
001473:                                                                                                  #        L         CALL
001474:                                                                                                  #        L+1               PERIAPO
001475:                                                                                                  #        L+2       (RETURN - ALWAYS)
001476:
001477:                                                                                                  #  INPUT
001478:
001479:                                                                                                  #        (1) RVEC     POSITION VECTOR IN METERS
001480:                                                                                                  #                     SCALE FACTOR - EARTH +29, MOON +27
001481:                                                                                                  #        (2) VVEC     VELOCITY VECTOR IN METERS/CENTISECOND
001482:                                                                                                  #                     SCALE FACTOR - EARTH +7, MOON +5
001483:                                                                                                  #        (3) X1       PRIMARY BODY INDICATOR
001484:                                                                                                  #                     EARTH -2, MOON -10
001485:
001486:                                                                                                  #  OUTPUT
001487:
001488:                                                                                                  #        (1) 2D       APOCENTER RADIUS IN METERS
001489:                                                                                                  #                     SCALE FACTOR - EARTH +29, MOON +27
001490:                                                                                                  #        (2) 4D       APOCENTER ALTITUDE IN METERS
001491:                                                                                                  #                     SCALE FACTOR - EARTH +29, MOON P27
001492:                                                                                                  #        (3) 6D       PERICENTER RADIUS IN METERS
001493:                                                                                                  #                     SCALE FACTOR - EARTH +29, MOON +27
001494:                                                                                                  #        (4) 8D       PERICENTER ALTITUDE IN METERS
001495:                                                                                                  #                     SCALE FACTOR - EARTH +29, MOON +27
001496:                                                                                                  #        (5) ECC      ECCENTRICITY OF CONIC TRAJECTORY
001497:                                                                                                  #                     SCALE FACTOR - +3
001498:                                                                                                  #        (6) XXXALT   RADIUS OF THE PRIMARY BODY IN METERS
001499:                                                                                                  #                     SCALE FACTOR - EARTH +29, MOON +27
001500:                                                                                                  #        (7) PUSHLOC  EQUALS 10D
001501:
001502:                                                                                                  #  SUBROUTINES USED
001503:
001504:                                                                                                  #        SETRAD


001506:                                                                                                  #        APSIDES
001507:
001508: 23,2000                                           SETLOC   APOPERI
001509: 23,2000                                           BANK
001510:
001511: 23,2333                                           COUNT*   $$/PERAP
001512:
001513: 23,2333           00302 17755  RPAD               2DEC     6373338    B-29                       #  STANDARD RADIUS  OF PAD 37-B.
001514:
001515:                                                                                                  #  = 20 909 901.57 FT
001516:
001517: 23,2335           53754        PERIAPO1           LXA,2    VSR*
001518: 23,2336           02777                                    RTX2
001519: 23,2337           57176                                    0,2
001520: 23,2340           26744                           STOVL    VVEC
001521: 23,2341           53750                           LXA,1    VSR*
001522: 23,2342           02776                                    RTX1
001523: 23,2343           57176                                    0,2
001524: 23,2344           02655                           STORE    RVEC
001525: 23,2345           45020        PERIAPO            STQ      CALL
001526: 23,2346           03463                                    NORMEX
001527: 23,2347           46363                                    SETRAD
001528: 23,2350           37671                           STCALL   XXXALT
001529: 23,2351           25704                                    APSIDES
001530: 23,2352           41401                           SETPD    PUSH                                  #  2D = APOCENTER RADIUS   B29 OR B27
001531: 23,2353           00003                                    2D
001532: 23,2354           65225                           DSU      PDDL                                  #  4D = APOGEE ALTITUDE    B29 OR B27
001533: 23,2355           03671                                    XXXALT
001534: 23,2356           00001                                    0D
001535: 23,2357           45206                           PUSH     DSU                                   #  6D = PERICENTER RADIUS  B29 OR B27
001536: 23,2360           03671                                    XXXALT
001537: 23,2361           52006                           PUSH     GOTO                                  #  8D = PERIGEE ALTITUDE   B29 OR B27
001538: 23,2362           03463                                    NORMEX
001539:


001541:                                                                                                  #  SETRAD
001542: 23,2363           41545        SETRAD             DLOAD    PUSH
001543: 23,2364           06334                                    RPAD
001544: 23,2365           63130                           SXA,1    INCR,2
001545: 23,2366           00047                                    X2
001546: 23,2367           00002                                    2D
001547: 23,2370           46135                           SLOAD    BHIZ
001548: 23,2371           00050                                    X2
001549: 23,2372           46376                                    SETRADX
001550: 23,2373           51575                           VLOAD    ABVAL
001551: 23,2374           02021                                    RLS
001552: 23,2375           77725                           PDDL
001553: 23,2376           43545        SETRADX            DLOAD    RVQ
001554:


001556:                                                                                                  #  PRECSET
001557: 23,2377           77620        PRECSET            STQ
001558: 23,2400           03463                                    NORMEX
001559: 23,2401           37574                           STCALL   TDEC2
001560: 23,2402           27056                                    LEMPREC
001561: 23,2403           77624                           CALL
001562: 23,2404           46415                                    LEMSTORE
001563: 23,2405           77745                           DLOAD
001564: 23,2406           03574                                    TDEC2
001565: 23,2407           34041                           STCALL   TDEC1
001566: 23,2410           27042                                    CSMPREC
001567: 23,2411           77624                           CALL
001568: 23,2412           46425                                    CSMSTORE
001569: 23,2413           77650                           GOTO
001570: 23,2414           03463                                    NORMEX
001571: 23,2415           43175        LEMSTORE           VLOAD    BOFF
001572: 23,2416           00001                                    RATT
001573: 23,2417           01352                                    AVFLAG
001574: 23,2420           46431                                    PASSIVE
001575: 23,2421           27536        ACTIVE             STOVL    RACT3
001576: 23,2422           00007                                    VATT
001577: 23,2423           03544                           STORE    VACT3
001578: 23,2424           77616                           RVQ
001579: 23,2425           43175        CSMSTORE           VLOAD    BOFF
001580: 23,2426           00001                                    RATT
001581: 23,2427           01352                                    AVFLAG
001582: 23,2430           46421                                    ACTIVE
001583: 23,2431           27552        PASSIVE            STOVL    RPASS3
001584: 23,2432           00007                                    VATT
001585: 23,2433           03560                           STORE    VPASS3
001586: 23,2434           77616                           RVQ
001587:


001589:                                                                                                  #  VECSHIFT
001590: 23,2435           53754        VECSHIFT           LXA,2    VSR*
001591: 23,2436           02777                                    RTX2
001592: 23,2437           57176                                    0,2
001593: 23,2440           63350                           LXA,1    PDVL
001594: 23,2441           02776                                    RTX1
001595: 23,2442           63257                           VSR*     PDVL
001596: 23,2443           57176                                    0,2
001597: 23,2444           77616                           RVQ
001598:


001600:                                                                                                  #  SHIFTR1
001601: 23,2445           53754        SHIFTR1            LXA,2    SL*
001602: 23,2446           02777                                    RTX2
001603: 23,2447           57576                                    0,2
001604: 23,2450           77616                           RVQ
001605:


001607:                                                                                                  #  PROGRAM DESCRIPTION
001608:                                                                                                  #  SUBROUTINE NAME       R36  OUT-OF-PLANE RENDEZVOUS ROUTINE
001609:                                                                                                  #  MOD NO.  0                      DATE      22 DECEMBER 67
001610:                                                                                                  #  MOD BY   N.M.NEVILLE            LOG SECTION  EXTENDED VERBS
001611:                                                                                                  #  FUNCTIONAL DESCRIPTION
001612:
001613:                                                                                                  #  TO DISPLAY AT ASTRONAUT REQUEST LGC CALCULATED RENDEZVOUS
001614:                                                                                                  #  OUT-OF-PLANE PARAMETERS (Y , YDOT , PSI). (REQUESTED BY DSKY).
001615:
001616:                                                                                                  #  CALLING SEQUENCE
001617:
001618:                                                                                                  #  ASTRONAUT REQUEST THROUGH DSKY  V 90 E
001619:
001620:                                                                                                  #  SUBROUTINES CALLED
001621:
001622:                                                                                                  #  EXDSPRET
001623:                                                                                                  #  GOMARKF
001624:                                                                                                  #  CSMPREC
001625:                                                                                                  #  LEMPREC
001626:                                                                                                  #  SGNAGREE
001627:                                                                                                  #  LOADTIME
001628:
001629:                                                                                                  #  NORMAL EXIT MODES
001630:
001631:                                                                                                  #  ASTRONAUT REQUEST THROUGH DSKY TO TERMINATE PROGRAM V 34 E
001632:
001633:                                                                                                  #  ALARM OR ABORT EXIT MODES
001634:
001635:                                                                                                  #  NONE
001636:
001637:                                                                                                  #  OUTPUT
001638:
001639:                                                                                                  #  DECIMAL DISPLAY OF TIME , Y , YDOT AND PSI
001640:
001641:                                                                                                  #  DISPLAYED VALUES Y , YDOT , AND PSI , ARE STORED IN ERASABLE
001642:                                                                                                  #  REGISTERS RANGE , RRATE AND RTHETA RESPECTIVELY.
001643:
001644:                                                                                                  #  ERASABLE INITIALIZATION REQUIRED
001645:
001646:                                                                                                  #  CSM AND LEM STATE VECTORS
001647:
001648:                                                                                                  #  DEBRIS
001649:
001650:                                                                                                  #  CENTRALS A,Q,L
001651:
001652:                                                                                                  #  OTHER THOSE USED BY THE ABOVE LISTED SUBROUTINES
001653:
001654: 20,2115                                           BANK     20
001655: 04,2000                                           SETLOC   R36LM
001656: 04,2000                                           BANK
001657:


001659: 04,2650  E7,1441                                  EBANK=   TIG
001660: 04,2650                                           COUNT*   $$/R36
001661:
001662: 04,2650           00006        R36                EXTEND
001663: 04,2651           31442                           DCA      TIG                                   #  SET TIME-OF-EVENT TO TIG FOR NOMINAL
001664: 04,2652           53051                           DXCH     DSPTEMX                               #  DISPLAY
001665: 04,2653           32763                           CAF      V06N16N
001666: 04,2654           04616                           TC       BANKCALL
001667: 04,2655           20334                           CADR     GOMARKF
001668: 04,2656           15503                           TCF      ENDEXT                                #  TERMINATE
001669: 04,2657           12661                           TCF      +2                                    #  PROCEED
001670: 04,2660           12653                           TCF      -5                                    #  RECYCLE FOR ASTRONAUT INPUT TIME
001671: 04,2661           06042                           TC       INTPRET
001672: 04,2662           53145                           DLOAD    BZE
001673: 04,2663           01051                                    DSPTEMX
001674: 04,2664           10760                                    GETNOW                                #  ASTOR-LOADED ZERO, GET PRES TIME
001675: 04,2665           34041        R36INT             STCALL   TDEC1
001676: 04,2666           27042                                    OTHPREC
001677: 04,2667           63375                           VLOAD    PDVL
001678: 04,2670           00007                                    VATT
001679: 04,2671           00001                                    RATT                                  #  -
001680: 04,2672           02207                           STORE    RPASS36                               #  R
001681: 04,2673           63256                           UNIT     PDVL                                  #   P
001682: 04,2674           53435                           VXV      UNIT                                  #  -
001683: 04,2675           77626                           STADR
001684: 04,2676           61562                           STODL    UNP36                                 #  U
001685: 04,2677           00015                                    TAT
001686: 04,2700           34041                           STCALL   TDEC1
001687: 04,2701           27056                                    THISPREC
001688: 04,2702           63375                           VLOAD    PDVL                                  #                   -
001689: 04,2703           00007                                    VATT                                  #  VELOCITY VECTOR  V               00D
001690: 04,2704           00001                                    RATT                                  #                    A
001691: 04,2705           41406                           PUSH     PUSH                                  #  POSITION VECTOR  R   IN  06D AND 12D
001692: 04,2706           63245                           BVSU     PDVL                                  #                    A  -   -
001693: 04,2707           02207                                    RPASS36                               #  LINE OF SIGHT VECTOR R - R       12D
001694: 04,2710           72441                           DOT      SL1                                   #                         P   A
001695: 04,2711           02215                                    UNP36                                 #      -   -
001696: 04,2712           26201                           STOVL    RANGE                                 #  Y = U . R
001697: 04,2713           00001                                    00D                                   #           A
001698: 04,2714           72441                           DOT      SL1
001699: 04,2715           02215                                    UNP36                                 #  .   -   -
001700: 04,2716           26203                           STOVL    RRATE                                 #  Y = U . V
001701: 04,2717           00007                                    06D                                   #  -        A  -
001702: 04,2720           41456                           UNIT     PUSH                                  #  U   = UNIT( R )                  18D
001703: 04,2721           47235                           VXV      VXV                                   #   RA          A
001704: 04,2722           00001                                    00D                                   #   -   -   -     -
001705: 04,2723           00023                                    18D                                   #  (U  XV )XU    =U
001706: 04,2724           53552                           VSL2     UNIT                                  #    RA  A   RA    A
001707: 04,2725           77656                           UNIT
001708: 04,2726           24001                           STOVL    00D                                   #  UNIT HORIZONTAL IN FORWARD DIR.  00D


001710: 04,2727           00023                                    18D
001711: 04,2730           74241                           DOT      VXSC                                  #  -
001712: 04,2731           00015                                    12D                                   #  U
001713: 04,2732           77752                           VSL2                                           #   L
001714: 04,2733           53445                           BVSU     UNIT
001715: 04,2734           77656                           UNIT
001716: 04,2735           50206                           PUSH     DOT                                   #  LOS PROJECTED INTO HORIZONTAL    12D
001717: 04,2736           00001                                    00D                                   #  PLANE
001718: 04,2737           65552                           SL1      ARCCOS                                #               -   -
001719: 04,2740           26205                           STOVL    RTHETA                                #  PSI = ARCCOS(U . U )
001720: 04,2741           50235                           VXV      DOT                                   #                A   L
001721: 04,2742           00001                                    00D
001722: 04,2743           71244                           BPL      DLOAD
001723: 04,2744           10751                                    R36TAG2
001724: 04,2745           24020                                    LODPMAX
001725: 04,2746           77625                           DSU
001726: 04,2747           02205                                    RTHETA
001727: 04,2750           02205                           STORE    RTHETA
001728: 04,2751           77776        R36TAG2            EXIT
001729: 04,2752           32764                           CAF      V06N90N                               #   DISPLAY Y , YDOT , AND PSI
001730: 04,2753           04616                           TC       BANKCALL
001731: 04,2754           20334                           CADR     GOMARKF
001732: 04,2755           15503                           TCF      ENDEXT                                #  TERMINATE
001733: 04,2756           15503                           TCF      ENDEXT                                #  PROCEED , END OF PROGRAM
001734: 04,2757           12650                           TCF      R36                                   #  RECYCLE, TIG OR ASTRO-OPTION
001735: 04,2760           52034        GETNOW             RTB      GOTO                                  #  ASTRO-SELECTED PRESENT TIME
001736: 04,2761           21574                                    LOADTIME
001737: 04,2762           10665                                    R36INT
001738: 04,2763           01420        V06N16N            VN       00616
001739: 04,2764           01532        V06N90N            VN       00690

End of include-file P34-P35,_P74-P75.agc.  Parent file is MAIN.agc


