
Source Code


000002:                                                                                                  ## Copyright:   Public domain.
000003:                                                                                                  ## Filename:    P40-P47.agc
000004:                                                                                                  ## Purpose:     A section of Luminary revision 163.
000005:                                                                                                  ##              It is part of the reconstructed source code for the first
000006:                                                                                                  ##              (unflown) release of the flight software for the Lunar
000007:                                                                                                  ##              Module's (LM) Apollo Guidance Computer (AGC) for Apollo 14.
000008:                                                                                                  ##              The code has been recreated from a reconstructed copy of
000009:                                                                                                  ##              Luminary 173, as well as Luminary memos 157 amd 158.
000010:                                                                                                  ##              It has been adapted such that the resulting bugger words
000011:                                                                                                  ##              exactly match those specified for Luminary 163 in NASA
000012:                                                                                                  ##              drawing 2021152N, which gives relatively high confidence
000013:                                                                                                  ##              that the reconstruction is correct.
000014:                                                                                                  ## Reference:   pp. 738-770
000015:                                                                                                  ## Assembler:   yaYUL
000016:                                                                                                  ## Contact:     Ron Burkey <info@sandroid.org>.
000017:                                                                                                  ## Website:     www.ibiblio.org/apollo/index.html
000018:                                                                                                  ## Mod history: 2019-08-21 MAS  Created from Luminary 173. Removed S40RET tag
000019:                                                                                                  ##                              in UPDATEVG. Changed references to S40RET to
000020:                                                                                                  ##                              QPRET. Removed GOFIND tag in ALARMIT, changed
000021:                                                                                                  ##                              the CALL FINDCDUW -2 to GOTO, and removed the
000022:                                                                                                  ##                              GOTO S40RET. Moved ALARMIT back to bank 27.
000023:                                                                                                  ##                              Changed reference to GOFIND to FINDCDUW -2.
000024:


000026:                                                                                                  #  PROGRAM DESCRIPTION  P40BOTH    DECEMBER 22, 1966
000027:                                                                                                  #  MOD 03 BY PETER ADLER           MARCH 3, 1967
000028:                                                                                                  #  CALLED VIA JOB FROM V37E
000029:
000030:                                                                                                  #  FUNCTIONAL DESCRIPTION
000031:
000032:                                                                                                  #           1)  TO COMPUTE A PREFERRED IMU ORIENTATION AND A PREFERRED VEHICLE ATTITUDE FOR A LM DPS
000033:                                                                                                  #               THRUSTING MANEUVER.
000034:


000036:
000037:                                                                                                  #           3)  TO DO THE VEHICLE MANEUVER TO THE THRUSTING ATTITUDE.
000038:
000039:                                                                                                  #           4)  TO CONTROL THE PGNCS DURING COUNTDOWN, IGNITION, THRUSTING, AND THRUST TERMINATION OF A
000040:                                                                                                  #               PGNCS CONTROLLED DPS MANEUVER.
000041:
000042:                                                                                                  #           5)  IN POSTBURN--ZERO RENDEZVOUS COUNTER, MAINTAIN VG CALCULATIONS FOR POSSIBLE RCS MANEUVER,
000043:                                                                                                  #                            SET MAXIMUM DEADBAND IN DAP, RESET STEERLAW CSTEER TO ZERO.
000044:
000045:                                                                                                  #           NOTE:  P42, WHICH IS IN THIS LOG SECTION, DOES THE SAME FOR AN APS BURN, AND P41 DOES 1-3 FOR
000046:                                                                                                  #                  RCS PLUS DISPLAYS PARAMETERS FOR MANUAL CONTROL.
000047:
000048:                                                                                                  #  SUBROUTINES USED
000049:
000050:                                                                                                  #           R02      IMU STATUS CHECK
000051:                                                                                                  #           S40.1    COMPUTATION OF THRUST DIRECTION
000052:                                                                                                  #           S40.13   LENGTH OF BURN
000053:                                                                                                  #           S40.2,3  PREFERRED IMU ORIENATTION
000054:                                                                                                  #           S40.8    X PRODUCT STEERING
000055:                                                                                                  #           S40.9    LAMBERT VTOGAIN
000056:                                                                                                  #           R60LEM   ATTITUDE MANEUVER
000057:                                                                                                  #           LEMPREC  EXTRAPOLATE STATE VECTOR
000058:                                                                                                  #           PREREAD  AVERAGE G, SERVICER
000059:                                                                                                  #           ALLCOAST DAP COASTING INITIALIZATION
000060:                                                                                                  #           CLOKTASK ERGO CLOCKJOB--COUNT DOWN
000061:                                                                                                  #           PHASCHNG, INTPRET, FLAGUP, FLAGDOWN, WAITLIST, LONGCALL, GOFLASH, GOFLASHR, GOPERF1, ALARM,
000062:                                                                                                  #           PRIOLARM, GOTOPOOH, ENDOFJOB, BANKCALL, SETMAXDB, SETMINDB, CHECKMM, FLATOUT, OUTFLAT,
000063:                                                                                                  #           KILLTASK, SGNAGREE, TPAGREE, ETC.
000064:
000065:                                                                                                  #  RESTARTS VIA GROUP 4
000066:
000067:                                                                                                  #  DISPLAYS
000068:
000069:                                                                                                  #           V50N25  203 A/P TO PGNCS, AUTO THROTTLE MODE, AUTO ATTITUDE CONTROL
000070:                                                                                                  #           V06N40  TTI, VG, DELTAVM (DISPLAYED ONCE/SECOND BY CLOKTASK)
000071:                                                                                                  #           V50N99  PLEASE PERFORM ENGINE ON ENABLE
000072:                                                                                                  #           V06N40  TG (TIME TO GO TO CUTOFF), VG, DELTAVM--ONCE/SECOND
000073:                                                                                                  #           V16N40  FINAL VALUES OF TG, VG, DELTAVM
000074:                                                                                                  #           V16N85  COMP OF VG (BODY AXES) FOR POSS. RCS MANUAL MANEUVER
000075:                                                                                                  #           V05N09  POSSIBLE ALARMS
000076:                                                                                                  #           V50N07  PLEASE SELECT P00
000077:


000079:                                                                                                  #           VIA R30
000080:
000081:                                                                                                  #           V06N44  HAPO, PERI, TFF
000082:                                                                                                  #           V06N35  TIME TO PERIGEE, HMS
000083:
000084:                                                                                                  #  ALARM OR ABORT EXIT MODES
000085:
000086:                                                                                                  #           PROGRAM ALARM, FLASHING DISPLAY OF ALARM CODE 1706 IF P40 SELECTED WITH DESCENT UNIT STAGED.
000087:                                                                                                  #           V34E (TERMINATE) IS THE ONLY RESPONSE ACCEPTED. TC GOTOPOOH.
000088:
000089:                                                                                                  #           PROGRAM ALARM, FLASH CODE 1703:  TIG LESS THAN 45 SECS AWAY.  V34E=  GOTOPOOH OR V33E=  SLIP
000090:                                                                                                  #           TIG BY 45 SECS.
000091:
000092:                                                                                                  #  ERASABLE INITIALIZATION
000093:                                                                                                  #  DEBRIS
000094:                                                                                                  #  OUTPUT
000095:
000096:                                                                                                  #           SEE SUBROUTINES E.G.:  S40.1, S40.2,3, S40.13, S40.8, S40.9, TRIMGIMB
000097:                                                                                                  #           XDELVFLG = 1 FOR EXT DELV COMPUTATION
000098:                                                                                                  #                    = 0 FOR AIMPT (LAMBERT) COMP
000099:
000100: 27,2246                                           COUNT*   $$/P40
000101: 27,2246  E7,1455                                  EBANK=   WHICH
000102:
000103: 36,3154                                           BANK     36
000104: 36,2000                                           SETLOC   P40S
000105: 36,2000                                           BANK
000106:
000107: 36,3154           05364        P40LM              TC       PHASCHNG
000108: 36,3155           04024                           OCT      04024
000109:
000110: 36,3156           33140                           CAF      P40ADRES                              #  INITIALIZATION FOR BURNBABY.
000111: 36,3157           55455                           TS       WHICH
000112:
000113: 36,3160           30106                           CA       FLGWRD10
000114: 36,3161           74737                           MASK     APSFLBIT
000115: 36,3162           10000                           CCS      A
000116: 36,3163           13126                           TCF      P40ALM
000117: 36,3164           04616                           TC       BANKCALL                              #  GO DO IMU STATUS CHECK ROUTINE.
000118: 36,3165           11241                           CADR     R02BOTH
000119:
000120: 36,3166           40111                           CS       DAPBOOLS                              #  INITIALIZE DVMON
000121: 36,3167           74737                           MASK     CSMDOCKD
000122: 36,3170           10000                           CCS      A
000123: 36,3171           32022                           CAF      THRESH1
000124: 36,3172           62023                           AD       THRESH3
000125: 36,3173           55250                           TS       DVTHRUSH
000126: 36,3174           34751                           CAF      FOUR
000127: 36,3175           55515                           TS       DVCNTR


000129: 36,3176           06042                           TC       INTPRET                               #  LOAD CONSTANTS FOR DPS BURN
000130: 36,3177           43175                           VLOAD    CLEAR                                 #  LOAD F, MDOT, TDECAY
000131: 36,3200           34001                                    FDPS
000132: 36,3201           02663                                    NOTHROTL
000133: 36,3202           03735                           STORE    F
000134: 36,3203           77735                           SLOAD
000135: 36,3204           26002                                    DPSVEX
000136: 36,3205           70476        P40IN              DCOMP    SR1
000137: 36,3206           37743                           STCALL   VEX                                   #  LOAD EXHAUST VELOCITY FOR TGO COMP.
000138: 36,3207           56246                                    S40.1                                 #  COMPUTES UT AND VGTIG
000139: 36,3210           77624                           CALL
000140: 36,3211           56413                                    S40.2,3                               #  COMPUTES PREFERRED IMU ORIENTATION
000141: 36,3212           77776                           EXIT
000142:
000143: 36,3213           00004                           INHINT
000144: 36,3214           04674                           TC       IBNKCALL
000145: 36,3215           40143                           CADR     PFLITEDB                              #  ZERO ATTITUDE ERRORS, SET DB TO ONE DEG.
000146:
000147: 36,3216           03220                           TC       P40SXT4
000148:
000149:                                                                                                  #                                               ***********************
000150: 36,3217           12130                           TCF      BURNBABY
000151:                                                                                                  #                                               ***********************
000152:
000153: 36,3220           00006        P40SXT4            EXTEND
000154: 36,3221           23141                           QXCH     P40/RET
000155: 36,3222           00003        P41MANU            RELINT
000156:
000157: 36,3223           05527                           TC       DOWNFLAG                              #  CLEAR 3AXISFLG -- R60 WILL USE VECPOINT.
000158: 36,3224           00124                           ADRES    3AXISFLG
000159:
000160: 36,3225           04616                           TC       BANKCALL
000161: 36,3226           54125                           CADR     R60LEM                                #  DO ATTITUDE MANEUVER ROUTINE
000162: 36,3227           01141                           TC       P40/RET
000163:
000164:
000165: 36,3230  E7,1462                                  EBANK=   TRKMKCNT
000166: 36,3230           30005        POSTBURN           CA       Z
000167: 36,3231           55162                           TS       DISPDEX
000168: 36,3232           00006                           EXTEND
000169: 36,3233           32060                           DCA      ACADN85
000170: 36,3234           53252                           DXCH     AVEGEXIT
000171: 36,3235           33760                           CAF      V16N40
000172: 36,3236           04616                           TC       BANKCALL
000173: 36,3237           20636                           CADR     GOFLASHR
000174: 36,3240           03263                           TC       TERM40
000175: 36,3241           13246                           TCF      TIGNOW
000176: 36,3242           03230                           TC       POSTBURN
000177:


000179: 36,3243           05364        P40PHS1            TC       PHASCHNG
000180: 36,3244           00014                           OCT      00014
000181: 36,3245           15155                           TCF      ENDOFJOB
000182:
000183: 36,3246           00004        TIGNOW             INHINT
000184: 36,3247           04674                           TC       IBNKCALL
000185: 36,3250           40154                           CADR     ZATTEROR
000186: 36,3251           04674                           TC       IBNKCALL
000187: 36,3252           40141                           CADR     SETMINDB
000188: 36,3253           00003                           RELINT
000189: 36,3254           33761                           CAF      V16N85B
000190: 36,3255           04616                           TC       BANKCALL
000191: 36,3256           20463                           CADR     REFLASHR
000192: 36,3257           03263                           TC       TERM40
000193: 36,3260           13263                           TCF      TERM40
000194: 36,3261           03254                           TC       -5
000195:
000196: 36,3262           13243                           TCF      P40PHS1
000197:
000198: 36,3263           00006        TERM40             EXTEND
000199: 36,3264           32110                           DCA      SERVCADR
000200: 36,3265           53252                           DXCH     AVEGEXIT
000201: 36,3266           34755                           CAF      ZERO
000202: 36,3267           55462                           TS       TRKMKCNT                              #       ZERO RENDZVS CNTERS
000203: 36,3270           30005                           CA       Z
000204: 36,3271           55162                           TS       DISPDEX
000205: 36,3272           00004                           INHINT
000206: 36,3273           04674                           TC       IBNKCALL
000207: 36,3274           40115                           CADR     RESTORDB
000208: 36,3275           00003                           RELINT
000209: 36,3276           06001                           TC       GOTOPOOH
000210:
000211: 36,3277  E7,1455                                  EBANK=   WHICH
000212: 36,3277                                           COUNT*   $$/P41
000213: 36,3277           33141        P41LM              CAF      P41ADRES                              #  INITIALIZATION FOR BURNBABY
000214: 36,3300           55455                           TS       WHICH
000215:
000216: 36,3301           04616                           TC       BANKCALL
000217: 36,3302           11241                           CADR     R02BOTH
000218:
000219: 36,3303           34755                           CA       ZERO                                  #  ZERO DVTOTAL FOR NOUN 40 DISPLAY
000220: 36,3304           55507                           TS       DVTOTAL
000221: 36,3305           55510                           TS       DVTOTAL    +1
000222: 36,3306           35017                           CAF      PRIO5
000223: 36,3307           55162                           TS       DISPDEX                               #  FOR SAFETY
000224: 36,3310           05105                           TC       FINDVAC
000225: 36,3311  E7,1700                                  EBANK=   VGPREV
000226: 36,3311           03374 74067                     2CADR    DYNMDISP
000227:
000228: 36,3313           05340                           TC       2PHSCHNG


000230: 36,3314           00116                           OCT      00116                                 #  GROUP 6 RESTART AT FKP5RST, PRIO 17
000231: 36,3315           04024                           OCT      04024                                 #  GROUP 4 RESTART HERE, PRIO 13
000232:
000233: 36,3316           06042                           TC       INTPRET                               #  BOTH LM
000234: 36,3317           71214                           BON      DLOAD                                 #  IF NJETSFLAG IS SET, LOAD 2 JET F
000235: 36,3320           00700                                    NJETSFLG
000236: 36,3321           75325                                    P41FJET1
000237: 36,3322           34017                                    FRCS4                                 #  IF NJETSFLAG IS CLEAR, LOAD 4 JET F
000238:
000239: 36,3323           37735        P41FJET            STCALL   F
000240: 36,3324           75330                                    P41IN
000241:
000242: 36,3325           77745        P41FJET1           DLOAD
000243: 36,3326           34021                                    FRCS2
000244: 36,3327           03735                           STORE    F
000245:
000246: 36,3330           77624        P41IN              CALL
000247: 36,3331           56246                                    S40.1                                 #  BOTH
000248: 36,3332           77624        P41NORM            CALL
000249: 36,3333           56413                                    S40.2,3                               #  CALCULATE PREFERRED IMU ORIENTATION AND
000250: 36,3334           77776                           EXIT                                           #  SET PFRATFLG.
000251:
000252: 36,3335           00004                           INHINT
000253: 36,3336           04674                           TC       IBNKCALL
000254: 36,3337           40154                           CADR     ZATTEROR                              #  ZERO ATTITUDE ERRORS
000255: 36,3340           04674                           TC       IBNKCALL
000256: 36,3341           40141                           CADR     SETMINDB                              #  SET 0.3 DEGREE DEADBAND
000257: 36,3342           03220                           TC       P40SXT4
000258:
000259: 36,3343           06042                           TC       INTPRET
000260: 36,3344           45175                           VLOAD    CALL                                  #  TRANSFORM VELOCITY-TO-BE-GAINED AT TIG
000261: 36,3345           03701                                    VGTIG                                 #  FROM REFERENCE COORDINATES TO LM BODY-
000262: 36,3346           57273                                    S41.1                                 #  AXIS COORDINATES FOR V16N85 DISPLAY.
000263: 36,3347           03502                           STORE    VGBODY                                #  (SCALED AT 2 (+7) METERS/CENTISECOND)
000264: 36,3350           77776                           EXIT
000265:
000266: 36,3351           33761                           CAF      V16N85B
000267: 36,3352           04616                           TC       BANKCALL
000268: 36,3353           20447                           CADR     GODSPRET
000269:
000270:
000271: 36,3354           05340                           TC       2PHSCHNG
000272: 36,3355           00076                           OCT      00076                                 #  GROUP 6 RESTARTS AT REDO6.7
000273: 36,3356           04024                           OCT      04024                                 #  GROUP 4 RESTARTS HERE
000274:
000275:                                                                                                  #                                               ***********************
000276: 36,3357           12137                           TCF      B*RNB*B*
000277:                                                                                                  #                                               ***********************
000278:


000280: 36,3360           34777        BLNKWAIT           CAF      1SEC
000281: 36,3361           04616                           TC       BANKCALL
000282: 36,3362           01736                           CADR     DELAYJOB
000283:
000284: 36,3363           31162        REDO6.7            CA       DISPDEX                               #  ON A RESTART, DO NOT PUT UP DISPLAY IF
000285: 36,3364           64752                           AD       TWO                                   #  BLANKING (BETWEEN TIG-35 AND TIG-30)
000286:                                                                                                  #                                               ***********************
000287:
000288: 36,3365           00006                           EXTEND
000289: 36,3366           13360                           BZF      BLNKWAIT
000290:
000291: 36,3367           33761                           CAF      V16N85B
000292: 36,3370           04616                           TC       BANKCALL
000293: 36,3371           20447                           CADR     GODSPRET
000294:
000295: 36,3372           35017        FKP5RST            CAF      PRIO5
000296: 36,3373           05146                           TC       PRIOCHNG
000297:
000298: 36,3374           31162        DYNMDISP           CA       DISPDEX                               #  A NON-POSITIVE DISPDEX INDICATES PAST
000299: 36,3375           00006                           EXTEND                                         #  TIG-35, SO SERVICER WILL BE DOING THE
000300: 36,3376           65155                           BZMF     ENDOFJOB                              #  UPDATING OF NOUN 85. STOP DYNMDISP.
000301: 36,3377           00006                           EXTEND
000302: 36,3400           41442                           DCS      TIG
000303: 36,3401           53454                           DXCH     TTOGO                                 #  UPDATE TFI DISPLAY (NOUN 40)
000304: 36,3402           00006                           EXTEND
000305: 36,3403           30025                           DCA      TIME2
000306: 36,3404           21454                           DAS      TTOGO
000307: 36,3405           06042                           TC       INTPRET
000308: 36,3406           45175                           VLOAD    CALL
000309: 36,3407           03701                                    VGPREV
000310: 36,3410           57273                                    S41.1                                 #  CONVERT VG FROM REF TO BODY
000311: 36,3411           03502                           STORE    VGBODY
000312: 36,3412           77776                           EXIT
000313: 36,3413           34777                           CAF      1SEC
000314: 36,3414           04616                           TC       BANKCALL
000315: 36,3415           01736                           CADR     DELAYJOB
000316: 36,3416           13374                           TCF      DYNMDISP                              #  RECYCLE ONCE A SECOND
000317:
000318:
000319: 36,3417                                           COUNT    $$/P41
000320: 32,2550                                           BANK     32
000321: 32,2000                                           SETLOC   P40S4
000322: 32,2000                                           BANK
000323:
000324: 32,2550           06042        CALCN85            TC       INTPRET
000325: 32,2551           77624                           CALL
000326: 32,2552           75620                                    UPDATEVG
000327: 32,2553           45175                           VLOAD    CALL
000328: 32,2554           03701                                    VGPREV


000330: 32,2555           57273                                    S41.1
000331: 32,2556           03502                           STORE    VGBODY
000332: 32,2557           77776                           EXIT
000333: 32,2560           04635                           TC       POSTJUMP
000334: 32,2561           65636                           CADR     SERVEXIT
000335:
000336: 36,3417                                           BANK     36
000337: 36,2000                                           SETLOC   P40S
000338: 36,2000                                           BANK
000339:
000340: 36,3417                                           COUNT*   $$/P42
000341: 36,3417  E7,1455                                  EBANK=   WHICH
000342:
000343: 36,3417           05364        P42LM              TC       PHASCHNG
000344: 36,3420           04024                           OCT      04024
000345:
000346: 36,3421           33142                           CAF      P42ADRES                              #  INITIALIZATION FOR BURNBABY.
000347: 36,3422           55455                           TS       WHICH
000348:
000349: 36,3423           40106                           CS       FLGWRD10
000350: 36,3424           74737                           MASK     APSFLBIT
000351: 36,3425           10000                           CCS      A
000352: 36,3426           03126                           TC       P40ALM
000353: 36,3427           04616        P42STAGE           TC       BANKCALL
000354: 36,3430           11241                           CADR     R02BOTH
000355: 36,3431           36000                           CAF      THRESH2                               #  INITIALIZE DVMON
000356: 36,3432           55250                           TS       DVTHRUSH
000357: 36,3433           34751                           CAF      FOUR
000358: 36,3434           55515                           TS       DVCNTR
000359:
000360: 36,3435           06042                           TC       INTPRET
000361: 36,3436           77214                           SET      VLOAD                                 #  LOAD FAPS, MDOTAPS, AND ATDECAY INTO
000362: 36,3437           01072                                    AVFLAG                                #  F, MDOT, AND TDECAY BY VECTOR LOAD.
000363: 36,3440           34007                                    FAPS
000364: 36,3441           03735                           STORE    F
000365: 36,3442           52135                           SLOAD    GOTO
000366: 36,3443           26001                                    APSVEX
000367: 36,3444           75205                                    P40IN
000368:
000369: 36,3445  E7,1455                                  EBANK=   WHICH
000370:
000371: 36,3445                                           COUNT*   $$/P47
000372: 36,3445           04616        P47LM              TC       BANKCALL
000373: 36,3446           11241                           CADR     R02BOTH
000374: 36,3447           06042                           TC       INTPRET
000375: 36,3450           77624                           CALRB
000376: 36,3451           27547                                    MIDTOAV2
000377:
000378: 36,3452           30155                           CA       MPAC       +1
000379: 36,3453           05204                           TC       TWIDDLE


000381: 36,3454           03456                           ADRES    STARTP47
000382:
000383: 36,3455           15155                           TCF      ENDOFJOB
000384:
000385: 36,3456           05364        STARTP47           TC       PHASCHNG
000386: 36,3457           05014                           OCT      05014
000387: 36,3460           77777                           OCT      77777
000388:
000389: 36,3461           00006                           EXTEND
000390: 36,3462           33764                           DCA      ACADN83
000391: 36,3463           53252                           DXCH     AVEGEXIT
000392: 36,3464           34736                           CAF      PRIO20
000393: 36,3465           05105                           TC       FINDVAC
000394: 36,3466  E7,1622                                  EBANK=   DELVIMU
000395: 36,3466           03522 74067                     2CADR    P47BODY
000396:
000397: 36,3470           12344                           TCF      REDO4.2                               #  CHECKS PHASE 5 AND GOES TO PREREAD
000398:                                                                                                  #  SEE TIG-30 IN BURNBABY.
000399:
000400: 36,3471           06042        CALCN83            TC       INTPRET
000401: 36,3472           53375                           VLOAD    VAD
000402: 36,3473           03502                                    DELVCTL
000403: 36,3474           03527                                    DELVREF
000404: 36,3475           03656                           STORE    DELVSIN                               #  TEMP STORAGE FOR RESTARTS
000405: 36,3476           77624                           CALL
000406: 36,3477           57273                                    S41.1
000407: 36,3500           03623                           STORE    DELVIMU
000408: 36,3501           77776                           EXIT
000409: 36,3502           05364                           TC       PHASCHNG
000410: 36,3503           10035                           OCT      10035                                 #  REREADAC AND HERE
000411:
000412: 36,3504           06042                           TC       INTPRET
000413: 36,3505           77775                           VLOAD
000414: 36,3506           03656                                    DELVSIN
000415: 36,3507           03502                           STORE    DELVCTL
000416: 36,3510           77776                           EXIT
000417:
000418: 36,3511           04635                           TC       POSTJUMP
000419: 36,3512           65636                           CADR     SERVEXIT
000420:
000421: 36,3513           33762        P47BOD             CAF      V1683
000422: 36,3514           04616                           TC       BANKCALL
000423: 36,3515           20636                           CADR     GOFLASHR
000424: 36,3516           06001                           TC       GOTOPOOH
000425: 36,3517           06001                           TC       GOTOPOOH
000426:
000427: 36,3520           13522                           TCF      P47BODY
000428:
000429: 36,3521           13243                           TCF      P40PHS1
000430:
000431: 36,3522           06042        P47BODY            TC       INTPRET
000432: 36,3523           77775                           VLOAD


000434: 36,3524           06520                                    HI6ZEROS
000435: 36,3525           03623                           STORE    DELVIMU
000436: 36,3526           03502                           STORE    DELVCTL
000437: 36,3527           77776                           EXIT
000438: 36,3530           03513                           TC       P47BOD
000439:
000440: 36,3531                                           COUNT*   $$/P40
000441: 36,3531           31517        IMPLBURN           CA       TGO        +1
000442: 36,3532           03744                           TC       GETDT
000443: 36,3533           05204                           TC       TWIDDLE
000444: 36,3534           03551                           ADRES    ENGOFTSK
000445: 36,3535           05527                           TC       DOWNFLAG                              #  TURN OFF IGNFLAG
000446: 36,3536           00153                           ADRES    IGNFLAG
000447: 36,3537           05527                           TC       DOWNFLAG                              #  TURN OFF ASTNFLG
000448: 36,3540           00154                           ADRES    ASTNFLAG
000449: 36,3541           05527                           TC       DOWNFLAG                              #  TURN OFF IMPULSW
000450: 36,3542           00044                           ADRES    IMPULSW
000451: 36,3543           05364                           TC       PHASCHNG                              #  RESTART PROTECT ENGOFTSK (ENGINOFF)
000452: 36,3544           40114                           OCT      40114
000453:
000454: 36,3545           05232                           TC       FIXDELAY                              #  WAIT HALF A SECOND
000455: 36,3546           00062                           DEC      50         B-14
000456:
000457: 36,3547           02660                           TC       NOULLAGE                              #  TURN OFF ULLAGE
000458:
000459: 36,3550           05272                           TC       TASKOVER
000460:
000461: 36,3551           04674        ENGOFTSK           TC       IBNKCALL                              #  THIS CODING ALLOWS ENGINOFF ET AL TO BE
000462: 36,3552           75554                           CADR     ENGINOFF                              #  USED BOTH BY WAITLIST AND BY TC IBNKCALL
000463: 36,3553           05272                           TC       TASKOVER
000464:
000465: 36,3554           34644        ENGINOFF           CAF      PRIO12                                #  MUST BE LOWER PRIO THAN CLOCKJOB
000466: 36,3555           05105                           TC       FINDVAC
000467: 36,3556  E7,1462                                  EBANK=   TRKMKCNT
000468: 36,3556           03230 74067                     2CADR    POSTBURN
000469:
000470:
000471: 36,3560           34753        ENGINOF2           CAF      BIT1
000472: 36,3561           05214                           TC       WAITLIST
000473: 36,3562  E6,1422                                  EBANK=   OMEGAQ
000474: 36,3562           03615 74066                     2CADR    COASTSET
000475:
000476: 36,3564           40103        ENGINOF1           CS       FLAGWRD7                              #  SET THE IDLE BIT.
000477: 36,3565           74745                           MASK     IDLEFBIT
000478: 36,3566           26103                           ADS      FLAGWRD7
000479:
000480: 36,3567           02660                           TC       NOULLAGE
000481:
000482: 36,3570           00006        ENGINOF4           EXTEND
000483: 36,3571           30025                           DCA      TIME2


000485: 36,3572           53342                           DXCH     TEVENT
000486:
000487: 36,3573           44745        ENGINOF3           CS       ENGONBIT                              #  INSURE ENGONFLG IS CLEAR.
000488: 36,3574           70101                           MASK     FLAGWRD5
000489: 36,3575           54101                           TS       FLAGWRD5
000490: 36,3576           44355                           CS       PRIO30                                #  ENGINOF3 IS USED AS A PRE-ENGINE ARM
000491: 36,3577           00006                           EXTEND                                         #  SUBROUTINE.
000492: 36,3600           02011                           RAND     DSALMOUT
000493: 36,3601           64736                           AD       PRIO20                                #  TURN OFF THE ENGINE - DPS OR APS
000494: 36,3602           00006                           EXTEND
000495: 36,3603           01011                           WRITE    DSALMOUT
000496:
000497: 36,3604           40111                           CS       DAPBOOLS                              #  TURN OFF TRIM GIMBAL
000498: 36,3605           74736                           MASK     USEQRJTS
000499: 36,3606           26111                           ADS      DAPBOOLS
000500:
000501: 36,3607           44737                           CS       HIRTHROT                              #  ZERO AUTO-THROTTLE WHENEVER THE ENGINE
000502: 36,3610           54055                           TS       THRUST                                #  IS TURNED OFF.
000503: 36,3611           34750                           CAF      BIT4                                  #  THE HARDWARE DOES SO ONLY WHEN THE
000504: 36,3612           00006                           EXTEND                                         #  ENGINE IS DISARMED.
000505: 36,3613           05014                           WOR      CHAN14
000506:
000507: 36,3614           04707                           TC       ISWRETRN
000508: 36,3615           04674        COASTSET           TC       IBNKCALL                              #  DO DAP COASTING INITIALIZATION
000509: 36,3616           40205                           CADR     ALLCOAST
000510: 36,3617           05272                           TC       TASKOVER
000511:
000512: 36,3620  E6,1422                                  EBANK=   OMEGAQ
000513: 36,3620           45020        UPDATEVG           STQ      CALL
000514: 36,3621           03665                                    QTEMP1
000515: 36,3622           56447                                    S40.8                                 #  X-PRODUCT STEERING
000516: 36,3623           43014                           BON      BON                                   #  WILL RETURN HERE FROM S40.8
000517: 36,3624           01307                                    XDELVFLG
000518: 36,3625           03665                                    QTEMP1
000519: 36,3626           03705                                    NORMSW
000520: 36,3627           75642                                    180SETUP
000521: 36,3630           45345                           DLOAD    DSU
000522: 36,3631           01234                                    PIPTIME
000523: 36,3632           03763                                    TIGSAVE
000524: 36,3633           50025                           DSU      BMN
000525: 36,3634           03432                                    TNEWA
000526: 36,3635           75665                                    GETRANS
000527: 36,3636           43345                           DLOAD    DAD
000528: 36,3637           03763                                    TIGSAVE
000529: 36,3640           03432                                    TNEWA
000530: 36,3641           03765                           STORE    TIGSAVEP
000531: 36,3642           77776        180SETUP           EXIT
000532: 36,3643           10754                           CCS      PHASE2
000533: 36,3644           13672                           TCF      NO.9
000534: 36,3645           34737                           CAF      PRIO10


000536: 36,3646           00004                           INHINT
000537: 36,3647           05105                           TC       FINDVAC
000538: 36,3650  E7,1706                                  EBANK=   VG
000539: 36,3650           02713 56067                     2CADR    S40.9                                 #  LAMBERT VTOGAIN
000540:
000541: 36,3652           05340                           TC       2PHSCHNG
000542: 36,3653           00172                           OCT      00172                                 #  2.17SPOT FOR S40.9
000543: 36,3654           10035                           OCT      10035                                 #  HERE AND REREADAC AFTER RESTART
000544:
000545: 36,3655           06042        ENDSTEER           TC       INTPRET
000546: 36,3656           77745                           DLOAD
000547: 36,3657           03765                                    TIGSAVEP
000548: 36,3660           27763                           STOVL    TIGSAVE
000549: 36,3661           01220                                    RN
000550: 36,3662           26323                           STOVL    RINIT
000551: 36,3663           01226                                    VN
000552: 36,3664           02331                           STORE    VINIT
000553: 36,3665           45345        GETRANS            DLOAD    DSU
000554: 36,3666           03631                                    TPASS4
000555: 36,3667           01234                                    PIPTIME
000556: 36,3670           37452                           STCALL   DELLT4
000557: 36,3671           03665                                    QTEMP1
000558:
000559: 36,3672           06042        NO.9               TC       INTPRET
000560: 36,3673           77650                           GOTO
000561: 36,3674           03665                                    QTEMP1
000562: 36,3675           06042        STEERING           TC       INTPRET
000563:
000564: 36,3676           77624                           CALL
000565: 36,3677           75620                                    UPDATEVG
000566: 36,3700           77776                           EXIT
000567:
000568: 36,3701  E7,1515                                  EBANK=   DVCNTR
000569: 36,3701           00004        NSTEER             INHINT
000570: 36,3702           35016                           CA       EBANK7
000571: 36,3703           54003                           TS       EBANK
000572: 36,3704           40076                           CS       FLAGWRD2                              #  CHECK IMPULSE SWITCH.  IT IS SET EITHER
000573: 36,3705           74743                           MASK     IMPULBIT                              #  BY S40.13 IF TBURN<6 SECS OR BY S40.8 IF
000574: 36,3706           10000                           CCS      A                                     #  STEERING IS ALMOST DONE.
000575:
000576: 36,3707           13714                           TCF      +5                                    #  IMPULSW = 0    EXIT
000577: 36,3710           40103                           CS       FLAGWRD7                              #  IMPULSW = 1    WHY?  CHECK IDLEFLAG
000578: 36,3711           74745                           MASK     IDLEFBIT                              #      (IDLEFLAG = 0 --> DVMON ON)
000579: 36,3712           10000                           CCS      A
000580: 36,3713           13716                           TCF      +3                                    #  DVMON ON-->THRUSTING-->IMPULSW VIA S40.8
000581: 36,3714           04635                           TC       POSTJUMP                              #  DVMON OFF-->IMPULSW ON VIA S40.13-->EXIT
000582: 36,3715           65636                           CADR     SERVEXIT
000583:
000584: 36,3716           04674                           TC       IBNKCALL
000585: 36,3717           40166                           CADR     STOPRATE
000586:


000588: 36,3720           05527                           TC       DOWNFLAG                              #  TURN OFF IMPULSW
000589: 36,3721           00044                           ADRES    IMPULSW
000590:
000591: 36,3722           05515                           TC       UPFLAG
000592: 36,3723           00161                           ADRES    IDLEFLAG                              #  TURN OFF DVMON
000593:
000594: 36,3724           00004                           INHINT
000595: 36,3725           00006                           EXTEND
000596: 36,3726           31442                           DCA      TIG
000597: 36,3727           52155                           DXCH     MPAC
000598: 36,3730           00006                           EXTEND
000599: 36,3731           40025                           DCS      TIME2
000600: 36,3732           20155                           DAS      MPAC
000601: 36,3733           07262                           TC       TPAGREE
000602: 36,3734           30155                           CAE      MPAC       +1
000603: 36,3735           03744                           TC       GETDT
000604: 36,3736           05204                           TC       TWIDDLE
000605: 36,3737           03551                           ADRES    ENGOFTSK
000606: 36,3740           05340                           TC       2PHSCHNG
000607: 36,3741           40114                           OCT      40114                                 #  ENGOFTSK (ENGINOFF)
000608: 36,3742           00035                           OCT      00035                                 #  SERVICER--REREADAC
000609: 36,3743           15155                           TCF      ENDOFJOB
000610:
000611: 36,3744           10000        GETDT              CCS      A
000612: 36,3745           13750                           TCF      +3
000613: 36,3746           13750                           TCF      +2
000614: 36,3747           34755                           CAF      ZERO
000615: 36,3750           64753                           AD       ONE
000616: 36,3751           56001                           XCH      L
000617: 36,3752           34755                           CAF      ZERO
000618: 36,3753           53517                           DXCH     TGO
000619: 36,3754           31517                           CA       TGO        +1
000620: 36,3755           00002                           TC       Q
000621:
000622:
000623:                                                                                                  #  ************************************************************************
000624:
000625: 36,3756           00000        5SECDP             OCT      00000                                 #  DON'T MOVE FROM JUST BEFORE 5SEC
000626: 36,3757           00764        5SEC               DEC      500        B-14
000627: 36,3760           04050        V16N40             VN       1640
000628: 36,3761           04125        V16N85B            VN       1685
000629: 36,3762           04123        V1683              VN       1683
000630: 36,3763     4777               SEC01              =        1SEC
000631: 36,3763  36,2057               ACADN85            =        P41TABLE   +2
000632:
000633: 36,3763  E7,1622                                  EBANK=   DELVIMU
000634: 36,3763           03471 74067  ACADN83            2CADR    CALCN83
000635:
000636:                                                                                                  #  *************************************************
000637:


000639:                                                                                                  #  PROGRAM DESCRIPTION S40.1       DATE15NOV66
000640:                                                                                                  #  MOD N02         LOG SECTION  P40-P47
000641:                                                                                                  #  MOD BY ZELDIN AND ADAPTED BY TALAYCO
000642:                                                                                                  #  FUNCTIONAL DESCRIPTION
000643:                                                                                                  #           COMPUTE INITIAL THRUST DIRECTION(UT) AND INITIAL VALUE OF VG
000644:                                                                                                  #           VECTOR(VGTIG).
000645:                                                                                                  #  CALLING SEQUENCE
000646:                                                                                                  #         L CALL
000647:                                                                                                  #       L+1        S40.1
000648:                                                                                                  #  NORMAL EXIT MODE
000649:                                                                                                  #           AT L+2 OF CALLING SEQUENCE (GOTO L+2)  NORMAL RETURN OR
000650:                                                                                                  #           ERROR RETURN IF NOSOFLAG =1
000651:                                                                                                  #  SUBROUTINES CALLED
000652:                                                                                                  #           LEMPREC
000653:                                                                                                  #           INITVEL
000654:                                                                                                  #           CALCGRAV
000655:                                                                                                  #           MIDGIM
000656:                                                                                                  #  ALARM OR ABORT EXIT MODES
000657:                                                                                                  #       L+2 OF CALLING SEQUENCE,UNSOLVABLE CONIC IF NOSOFLAG=1
000658:                                                                                                  #  ERASABLE INITIALIZATION REQUIRED
000659:                                                                                                  #                  WEIGHT/G  ANTICIPATED VEHICLE MASS         DP  B16KGM
000660:                                                                                                  #           XDELVFLG       1=DELTA-V MANEUVER,0=AIMPT STEER
000661:                                                                                                  #            F         THRUST FOR ENGINE USED
000662:                                                                                                  #        IF DELTA-V MANEUVER
000663:                                                                                                  #           DELVSIN   SPECIFIED DELTA-V REQUIRED IN
000664:                                                                                                  #                     INERTIAL COORDS. OF ACTIVE VEHICLE
000665:                                                                                                  #                     AT TIME OF IGNITION                 VECTOR B7M/CS
000666:                                                                                                  #           DELVSAB   MAG. OF DELVSIN                     DP     B7M/CS
000667:                                                                                                  #           RTIG      POSITION AT TIME OF IGNITION       VECTOR B29M
000668:                                                                                                  #           VTIG      VELOCITY AT TIME OF IGNITION       VECTOR B7M/CS
000669:                                                                                                  #        IF AIMPT STEER
000670:                                                                                                  #           TIG       TIME OF IGNITION                    DP     B28CS
000671:                                                                                                  #           RTARG     POSITION TARGET TIME               VECTOR B29M
000672:                                                                                                  #           CSTEER    C FOR STEER LAW                     DP     B2
000673:                                                                                                  #           DLTARG    TARGET TIME-IGNITION TIME          DP     B28CS
000674:                                                                                                  #  OUTPUT
000675:                                                                                                  #        UT           DESIRED THRUST DIRECTION            VECT. B2M/(CS.CS)
000676:                                                                                                  #        VGTIG        INITIAL VALUE OF VELOCITY
000677:                                                                                                  #                     TO BE GAINED (INERT. COORD.)        VECTOR B7M/CS
000678:                                                                                                  #        DELVLVC      VGTIG IN LOC. VERT. COORDS.                B7M/CS
000679:                                                                                                  #           BDT   V REQUIRED AT TIG -V REQUIRED AT (TIG-2SEC)
000680:                                                                                                  #           -GDT  FOR S40.13                                   VECT  B7M/CS
000681:                                                                                                  #        RTIG         CALC IN S40.1B(AIMPT) FOR S40.2,3  VECTOR B29M
000682:                                                                                                  #                     POSITION AT TIME OF IGNITION
000683:                                                                                                  #  DEBRIS      QTEMP1
000684:                                                                                                  #        MPAC, QPRET
000685:                                                                                                  #        PUSHLIST
000686: 14,2347                                           BANK     14
000687: 27,2000                                           SETLOC   P40S1
000688: 27,2000                                           BANK
000689:


000691: 27,2246                                           COUNT*   $$/S40.1
000692: 27,2246           71220        S40.1              STQ      DLOAD
000693: 27,2247           03632                                    QTEMP
000694: 27,2250           03442                                    TIG
000695: 27,2251           03763                           STORE    TIGSAVE
000696: 27,2252           77614        DELVTEST           BOFF
000697: 27,2253           01347                                    XDELVFLG
000698: 27,2254           56336                                    S40.1B
000699: 27,2255           77201        CALCTHET           SETPD    VLOAD
000700: 27,2256           00001                                    0
000701: 27,2257           03650                                    VTIG
000702: 27,2260           02331                           STORE    VINIT
000703: 27,2261           53435                           VXV      UNIT
000704: 27,2262           03642                                    RTIG
000705: 27,2263           27673                           STOVL    UT                                    #  UP IN UT
000706: 27,2264           03642                                    RTIG
000707: 27,2265           02323                           STORE    RINIT
000708: 27,2266           65236                           VSQ      PDDL
000709: 27,2267           00045                                    36D
000710: 27,2270           56205                           DMP      DDV
000711: 27,2271           16412                                    THETACON
000712: 27,2272           41205                           DMP      DMP
000713: 27,2273           03664                                    DELVSAB
000714: 27,2274           01244                                    WEIGHT/G
000715: 27,2275           77671                           DDV
000716: 27,2276           03735                                    F
000717: 27,2277           24017                           STOVL    14D
000718: 27,2300           03656                                    DELVSIN
000719:
000720: 27,2301           74241                           DOT      VXSC
000721: 27,2302           03673                                    UT
000722: 27,2303           03673                                    UT
000723: 27,2304           41552                           VSL2     PUSH                                  #  (DELTAV.UP)UP SCALED AT 2(+7) P.D.L. 0
000724: 27,2305           65245                           BVSU     PDDL                                  #  DELTA VP SCALED AT 2(+7) P.D.L. 6
000725: 27,2306           03656                                    DELVSIN
000726: 27,2307           00017                                    14D
000727: 27,2310           63356                           SIN      PDVL
000728: 27,2311           00007                                    6D
000729: 27,2312           53435                           VXV      UNIT
000730: 27,2313           03673                                    UT
000731: 27,2314           45561                           VXSC     STADR
000732: 27,2315           50076                           STOVL    VGTIG                                 #  UNIT(VPXUP)SIN(THETAT/2) IN VGTIG.
000733: 27,2316           65256                           UNIT     PDDL                                  #  UNIT(DELTA VP) IN P.D.L. 6
000734: 27,2317           00017                                    14D
000735: 27,2320           74346                           COS      VXSC
000736: 27,2321           74255                           VAD      VXSC
000737: 27,2322           03701                                    VGTIG
000738: 27,2323           00045                                    36D
000739: 27,2324           53352                           VSL2     VAD
000740: 27,2325           77626                           STADR


000742: 27,2326           74076                           STORE    VGTIG                                 #  VG IGNITION SCALED AT 2(+7)M/CS
000743:
000744: 27,2327           77656                           UNIT
000745: 27,2330           27673                           STOVL    UT                                    #  THRUST DIRECTION SCALED AT 2(+1)
000746: 27,2331           03701                                    VGTIG
000747: 27,2332           45006                           PUSH     CALL
000748: 27,2333           15741                                    GET.LVC                               #  VGTIG IN LV COOR AT 2(+7) M/CS IN DELVLVC
000749: 27,2334           77650                           GOTO
000750: 27,2335           03632                                    QTEMP
000751: 27,2336           77745        S40.1B             DLOAD
000752: 27,2337           03442                                    TIG
000753: 27,2340           00041                           STORE    TDEC1
000754: 27,2341           77621                           BDSU
000755: 27,2342           03631                                    TPASS4
000756: 27,2343           37452                           STCALL   DELLT4                                #  INTERCEPT TIME - TIG.
000757: 27,2344           27056                                    LEMPREC
000758: 27,2345           40375                           VLOAD    SETPD                                 #  LOAD STATE VECTOR AT TIG FOR INITVEL.
000759: 27,2346           00001                                    RATT
000760: 27,2347           00001                                    0
000761: 27,2350           03642                           STORE    RTIG
000762: 27,2351           02323                           STORE    RINIT
000763: 27,2352           77656                           UNIT
000764: 27,2353           27537                           STOVL    UNIT/R/
000765: 27,2354           00007                                    VATT
000766: 27,2355           03650                           STORE    VTIG
000767: 27,2356           02331                           STORE    VINIT
000768: 27,2357           65345                           DLOAD    PDDL                                  #  NUMIT = 0
000769: 27,2360           06520                                    ZEROVECS
000770: 27,2361           16406                                    EPS1
000771: 27,2362           43214                           BOFF     DAD
000772: 27,2363           03745                                    NORMSW
000773: 27,2364           56366                                    SMALLEPS
000774: 27,2365           16410                                    EPS2                                  #  EPSILON4 = 10 DEGREES OR 45 DEGREES.
000775: 27,2366           66006        SMALLEPS           PUSH     SXA,1
000776: 27,2367           02776                                    RTX1
000777: 27,2370           45134                           SXA,2    CALL
000778: 27,2371           02777                                    RTX2
000779: 27,2372           22000                                    INITVEL
000780: 27,2373           41575                           VLOAD    PUSH
000781: 27,2374           02366                                    DELVEET3                              #  VGTIG = VR - VN.
000782: 27,2375           03701                           STORE    VGTIG
000783: 27,2376           77656                           UNIT                                           #  UT = UNIT (VGTIG)
000784: 27,2377           17673                           STODL    UT
000785: 27,2400           00045                                    36D
000786: 27,2401           37664                           STCALL   VGDISP                                #  CONVERT VGTIG (IN PUSHLIST ) TO LOCAL
000787: 27,2402           15741                                    GET.LVC                               #  VERTICAL COORDINATES.
000788: 27,2403           77650                           GOTO
000789: 27,2404           03632                                    QTEMP
000790:
000791: 27,2405           00707 03434  EPS1               2DEC*    2.777777778 E-2*                       #  10 DEGREES AT 1 REVOLUTION.
000792:


000794: 27,2407           03070 34344  EPS2               2DEC*    9.722222222 E-2*                       #  35 DEGREES AT 1 REVOLUTION.
000795:
000796: 27,2411           00024 13714  THETACON           2DEC     .31830989  B-8
000797:


000799:                                                                                                  #  SUBROUTINE NAME: S40.2,3        MOD. NO. 3 DATE: APRIL 4, 1967
000800:
000801:                                                                                                  #  MODIFICATION BY: JONATHAN D. ADDELSTON (ADAMS ASSOCIATES)
000802:
000803:                                                                                                  #  MOD. NO. 4:  JULY 18, 1967:  PETER ADLER (MIT/IL)
000804:
000805:                                                                                                  #  MOD. NO. 5:  OCTOBER 18, 1967:  PETER ADLER (MIT/IL)
000806:
000807:                                                                                                  #  ORIGINALLY BY: SAYDEAN ZELDIN (MIT INSTRUMENTATION LAB) AND RICHARD TALAYCO (SYSTEM DEVELOPMENT CORP)
000808:
000809:                                                                                                  #  S40.2,3 COMPUTES "POINTVSM" WHICH IS THE HALF-UNIT DESIRED THRUST VECTOR IN STABLE-MEMBER COORDINATES FROM "UT"
000810:                                                                                                  #  WHICH IS THE SAME VECTOR IN REFERENCE COORDINATES.  IT DETERMINES THE CORRECT VALUES FOR "SCAXIS" USING THE +X
000811:                                                                                                  #  AXIS FOR DPS, APS, AND RCS BURNS.  THE "WINGS-LEVEL HEADS-UP" LM ORIENTATION IS THEN COMPUTED IN REFERENCE
000812:                                                                                                  #  COORDINATES.  THESE VECTORS ALSO DEFINE THE "PREFERRED IMU ORIENTATION".  UPON COMPLETION OF THIS CALCULATION,
000813:                                                                                                  #  THE "PREFERRED ATTITUDE COMPUTED" FLAG IS SET (PFRATFLG).
000814:
000815:
000816:                                                                                                  #  CALLING SEQUENCE:
000817:                                                                                                  #                                          L        CALL                   INTERPRETIVE CALL.
000818:                                                                                                  #                                          L +1            S40.2,3
000819:                                                                                                  #                                          L +2    (RETURN)                GIMBAL ANGLE VECTOR IN MPAC.
000820:
000821:                                                                                                  #  SUBROUTINES CALLED:  NONE.
000822:
000823:                                                                                                  #  NORMAL RETURN:  L +2 (SEE CALLING SEQUENCE ABOVE).
000824:
000825:                                                                                                  #  ALARM/ABORT MODES:  NONE.
000826:
000827:                                                                                                  #  INPUT:
000828:
000829:                                                                                                  #           1. REFSMMAT            MATRIX FROM REFERENCE TO STABLE-MEMBER COORDINATES SCALED AT 2.
000830:                                                                                                  #           2. UT                  HALF-UNIT DESIRED THRUST DIRECTION.
000831:                                                                                                  #           3. RTIG                POSITION AT TIG IN REFERENCE COORDINATES.
000832:
000833:                                                                                                  #  OUTPUT:
000834:
000835:                                                                                                  #           1. : XSCREF :          WINGS-LEVEL HEADS-UP LM ORIENTATION
000836:                                                                                                  #              : YSCREF :          IN REFERENCE COORDINATES
000837:                                                                                                  #              : ZSCREF :          (PREFERRED IMU ORIENTATION).
000838:                                                                                                  #           2. POINTVSM            DESIRED THRUST DIRECTION IN STABLE-MEMBER COORDINATES.
000839:                                                                                                  #           3. SCAXIS              HALF-UNIT OF AXIS TO ALIGN IN STABLE-MEMBER COORDINATES.
000840:                                                                                                  #           4. PFRATFLG            INTERPRETIVE FLAG.  ON:  PREFERRED ORIENTATION COMPUTED; OFF:  NOT COMPUTED.
000841:
000842:                                                                                                  #  DEBRIS:  NONE.
000843:


000845: 27,2413                                           COUNT*   $$/S40.2
000846: 27,2413           77775        S40.2,3            VLOAD                                          #  UT: DESIRED THRUST DIRECTION (HALF-UNIT)
000847: 27,2414           03673                                    UT                                    #  (PUT INTO TOP OF PUSH-DOWN-LIST.)
000848: 27,2415           76521                           MXV      VSL1                                  #  TRANSFORM THRUST DIRECTION TO STABLE-
000849: 27,2416           01732                                    REFSMMAT                              #  MEMBER FROM REFERENCE COORDS (RESCALE).
000850: 27,2417           27773                           STOVL    POINTVSM                              #  SAVE FOR "VECPOINT" ROUTINE (LEMMANU).
000851: 27,2420           06516                                    UNITX                                 #  SCAXIS SET TO +X, FOR P40 AND P42 AND
000852: 27,2421           27765                           STOVL    SCAXIS                                #  FOR P41 IF RCS NOT -X,+Y,-Y,+Z,-Z.
000853:
000854: 27,2422           03673                                    UT                                    #  ASSUME +X BURN ALWAYS, EVEN FOR RCS.
000855: 27,2423           03607        PLUSX              STORE    XSCREF                                #  XSCREF = UT (DESIRED THRUST DIRECTION.)
000856: 27,2424           53435                           VXV      UNIT                                  #  RTIG = POSITION AT TIME-OF-IGNITION.
000857: 27,2425           03642                                    RTIG                                  #  YSCREF = UNIT(UT X RTIG)
000858: 27,2426           46125                           PDDL     BHIZ
000859: 27,2427           00045                                    36D                                   #  TEST MAGNITUDE OF UT X RTIG
000860: 27,2430           56441                                    FIXY                                  #  IF SMALL, USE UT X VTIG AS YSC
000861: 27,2431           45575        STORY              VLOAD    STADR
000862: 27,2432           74162                           STORE    YSCREF
000863: 27,2433           76435                           VXV      VSL1                                  #  COMPUTE (YSCREF X XSCREF),BUT FOR A
000864: 27,2434           03607                                    XSCREF                                #  RIGHT HANDED SYSTEM, NEED (X CROSS Y).
000865: 27,2435           77676                           VCOMP                                          #  ZSCREF = - (YSCREF X XSCREF)
000866: 27,2436           03623                           STORE    ZSCREF                                #         = + (XSCREF X YSCREF)
000867:
000868: 27,2437           43414                           SET      RVQ
000869: 27,2440           01073                                    PFRATFLG
000870: 27,2441           47375        FIXY               VLOAD    VXV                                   #  IN THIS CASE,
000871: 27,2442           03607                                    XSCREF                                #  YSCREF = UNIT(XSCREF X VTIG)
000872: 27,2443           03650                                    VTIG
000873: 27,2444           41456                           UNIT     PUSH
000874: 27,2445           77650                           GOTO
000875: 27,2446           56431                                    STORY
000876:


000878:                                                                                                  #  SUBROUTINE S40.8
000879:
000880:                                                                                                  #  MODIFIED APRIL 3, 1968  BY  PETER ADLER   MIT/IL
000881:
000882:                                                                                                  #  DESCRIPTION
000883:
000884:                                                                                                  #       S40.8 UPDATES THE VELOCITY-TO-BE-GAINED VECTOR, VG, (AND FOR LAMBERT TARGETTED BURNS ALSO EXTRAPOLATES VG
000885:                                                                                                  #  USING THE BDT VECTOR)  COMPUTES THE TIME FOR ISSUING THE ENGINE OFF COMMAND, TGO, AND CALLS THE ROUTINE
000886:                                                                                                  #  "FINDCDUW", WHICH GENERATES THE STEERING COMMANDS FOR THE DAP.
000887:
000888:                                                                                                  #  CALLING SEQUENCE
000889:
000890:                                                                                                  #  L-1      CALL
000891:                                                                                                  #  L               S40.8
000892:                                                                                                  #  L+1                      INTERPRETIVE RETURN
000893:
000894:                                                                                                  #  ALARM
000895:
000896:                                                                                                  #       IF VG . DELVREF IS NEGATIVE (VG AND DELVREF OVER 90 DEGREES APART), BYPASS TGO AND STEERING COMPUTATIONS
000897:                                                                                                  #  AND SET ALARM 1407.  RETURN TO CALLER NORMALLY.
000898:
000899:                                                                                                  #  INPUT AND INITIALIZATION
000900:
000901:                                                                                                  #  VGPREV          REFERENCE       2(7) M/CS
000902:                                                                                                  #  DELVREF         REFERENCE       2(7) M/CS
000903:                                                                                                  #  BDT             REFERENCE       2(7) M/CS
000904:                                                                                                  #  TDECAY          TAIL-OFF TIME   2(28)  CS
000905:                                                                                                  #  XDELVFLG        1 = EXTERNAL DELTA-V;  0 = LAMBERT (AIMPOINT)
000906:                                                                                                  #  STEERSW         1 = DO STEERING AND TGO COMPUTATIONS; 0 = VG UPDATE ONLY
000907:                                                                                                  #  FIRSTFLG        1 = GONE TO LAMBERT AT LEAST ONCE;  0 = HAVEN'T GONE TO LAMBERT YET
000908:
000909:                                                                                                  #  NOTE:  VGTIG EQUALS VGPREV
000910:
000911:                                                                                                  #  OUTPUT
000912:
000913:                                                                                                  #  STEERSW         SEE INPUT
000914:                                                                                                  #  IMPULSW         1 = ENGINE OFF IN TGO CENTISECONDS;  0 = CONTINUE BURN
000915:                                                                                                  #  TGO             TIME TO CUT-OFF 2(28)   CS
000916:                                                                                                  #  SEE FINDCDUW FOR STEERING OUTPUTS.
000917:
000918:                                                                                                  #  SUBROUTINE CALLED
000919:
000920:                                                                                                  #       FINDCDUW
000921:
000922:                                                                                                  #  DEBRIS
000923:
000924:                                                                                                  #       MPACS, PUSHLIST
000925:
000926: 27,2447                                           COUNT*   $$/S40.8


000928: 27,2447           77614        S40.8              BOF                                            #  GENERATE VR IF NOT EXTERNAL DELTA-V BURN
000929: 27,2450           01347                                    XDELVFLG
000930: 27,2451           56735                                    RASTEER1
000931: 27,2452           52375                           VLOAD    VSU
000932: 27,2453           03701                                    VGPREV
000933: 27,2454           03527                                    DELVREF
000934: 27,2455           03707        VGAIN*             STORE    VG                                    #  VELOCITY TO BE GAINED SCALED AT (7)M/CS
000935: 27,2456           76521                           MXV      VSL1
000936: 27,2457           01732                                    REFSMMAT
000937: 27,2460           03253                           STORE    UNFC/2
000938: 27,2461           51575        BDTOK              VLOAD    ABVAL
000939: 27,2462           03707                                    VG
000940: 27,2463           03664                           STORE    VGDISP
000941: 27,2464           77776                           EXIT
000942: 27,2465           05364                           TC       PHASCHNG
000943: 27,2466           10035                           OCT      10035
000944: 27,2467           06042                           TC       INTPRET
000945: 27,2470           77201        TGDCALC            SETPD    VLOAD
000946: 27,2471           00001                                    0
000947: 27,2472           03707                                    VG
000948: 27,2473           27701                           STOVL    VGPREV
000949: 27,2474           03527                                    DELVREF
000950: 27,2475           57414                           BOFF     VCOMP
000951: 27,2476           01344                                    STEERSW
000952: 27,2477           00052                                    QPRET
000953: 27,2500           77656                           UNIT
000954: 27,2501           41441                           DOT      PUSH
000955: 27,2502           03707                                    VG
000956: 27,2503           56244                           BPL      DDV
000957: 27,2504           56532                                    ALARMIT                               #  DELV IS MORE THAN 90 DEGREES FROM VG.
000958: 27,2505           03743                                    VEX
000959: 27,2506           41215                           DAD      DMP
000960: 27,2507           06516                                    DPHALF
000961: 27,2510           56261                           SR       DDV
000962: 27,2511           20613                                    10D
000963: 27,2512           00045                                    36D
000964: 27,2513           43205                           DMP      DAD
000965: 27,2514           16541                                    -FOURDT
000966: 27,2515           03741                                    TDECAY
000967: 27,2516           03517                           STORE    TGO
000968: 27,2517           77615                           DAD
000969: 27,2520           01234                                    PIPTIME
000970: 27,2521           17442                           STODL    TIG
000971: 27,2522           03517                                    TGO
000972: 27,2523           51025                           DSU      BPL
000973: 27,2524           16543                                    FOURSECS                              #  400 CS
000974: 27,2525           61072                                    FINDCDUW   -2
000975: 27,2526           43014                           SET      CLRGO
000976: 27,2527           01066                                    IMPULSW
000977: 27,2530           01224                                    STEERSW
000978: 27,2531           00052                                    QPRET
000979:


000981: 27,2532           77776        ALARMIT            EXIT
000982: 27,2533           05600                           TC       ALARM
000983: 27,2534           01407                           OCT      01407
000984: 27,2535           06042                           TC       INTPRET
000985: 27,2536           77650                           GOTO
000986: 27,2537           61072                                    FINDCDUW   -2
000987:
000988: 27,2540           77715 77777  -FOURDT            2DEC     -800       B-18                       #  -4 (200 CS.)  B (-18)
000989:
000990: 27,2542           00000 00620  FOURSECS           2DEC     400        B-28                       #  400 CS SCALED AT 2(+28) CS
000991:
000992: 27,2544  E7,1742               2VEXHUST           =        VEX
000993:


000995:                                                                                                  #  NAME     S40.13 - TIMEBURN
000996:                                                                                                  #  FUNCTION        (1) DETERMINE WHETHER A GIVEN COMBINATION OF VELOCITY TO
000997:                                                                                                  #                  BE GAINED AND ENGINE CHOICE RESULT IN A BURN TIME
000998:                                                                                                  #                  SUFFICIENT TO ALLOW STEERING AT THE VEHICLE DURING THE
000999:                                                                                                  #                  BURN
001000:                                                                                                  #                  (2) THE MAGNITUDE OF THE RESULTING BURN TIME -- IF IT
001001:                                                                                                  #                  IS SHORT --  AND THE ASSOCIATED TIME OF THE ENGINE OFF
001002:                                                                                                  #                  SIGNAL
001003:                                                                                                  #  CALLING SEQUENCE  VIA FINDVAC AS A NEW JOB
001004:                                                                                                  #  INPUT           VGTIG VELOCITY TO BE GAINED VECTOR (METERS/CS) AT +7
001005:                                                                                                  #                  WEIGHT/G MASS OF VEHICLE IN KGM AT +16
001006:                                                                                                  #                  F  APS ENGINE THRUST IN M.NEWTONS AT +7
001007:                                                                                                  #                  AND ALSO FOR RCS ENGINE
001008:                                                                                                  #                  MDOT RATE OF DECREASE OF VEHICLE MASS DURING ENGINE
001009:                                                                                                  #                  BURN IN KILOGRAMS/CS  AT +3 . THIS SCALING MAY
001010:                                                                                                  #                  REQUIRE MODIFICATION FOR SATURN BURNS.
001011:                                                                                                  #           ENG1FLAG     SWITCH TO DECIDE WHETHER APS OR DPS ENGINE IS USED
001012:                                                                                                  #                   =0   DPS
001013:                                                                                                  #                   =1   APS
001014:                                                                                                  #  OUTPUT          IMPULSW  ZERO FOR STEERING
001015:                                                                                                  #                           ONE FOR ATTITUDE HOLD
001016:                                                                                                  #                  NOTHROTL  ZERO FOR THROTTLING
001017:                                                                                                  #                            ONE  TO INHIBIT THROTTLING
001018:                                                                                                  #                  TGO  TIME TO BURN IN CS
001019:                                                                                                  #           THE QUANTITY M.NEWTON = 10000 NEWTONS WILL BE USED TO EXPRESS
001020:                                                                                                  #                  FORCE
001021:
001022: 27,2544  E7,1516                                  EBANK=   TGO
001023: 27,2544                                           COUNT*   $$/40.13
001024: 27,2544           06042        S40.13             TC       INTPRET
001025: 27,2545           43001                           SETPD    CLEAR
001026: 27,2546           00001                                    00D
001027: 27,2547           01266                                    IMPULSW                               #  ASSUME NO STEERING UNTIL FOUND OTHERWISE
001028: 27,2550           51575                           VLOAD    ABVAL
001029: 27,2551           03701                                    VGTIG                                 #  VELOCITY TO BE GAINED AT +7
001030: 27,2552           41325                           PDDL     DMP                                   #  00D = MAG OF VGTIG AT +7
001031: 27,2553           21000                                    4SEC(17)                              #  CORRECT VG FOR 4 SECS OF 2 JET ULLAGE
001032: 27,2554           34021                                    FRCS2
001033: 27,2555           72471                           DDV      SL1                                   #  SCALE
001034: 27,2556           01244                                    WEIGHT/G
001035: 27,2557           41421                           BDSU     PUSH
001036: 27,2560           43014                           BOFF     SET
001037: 27,2561           05342                                    APSFLAG
001038: 27,2562           56632                                    S40.13D                               #  FOR DPS ENGINE
001039: 27,2563           02463                                    NOTHROTL
001040: 27,2564           56345                           DLOAD    DDV                                   #  00D = MAG OF VGTIG CORRECTED
001041: 27,2565           16001                                    K1VAL                                 #  M.NEWTONS-CS AT +24
001042: 27,2566           01244                                    WEIGHT/G
001043: 27,2567           50021                           BDSU     BMN


001045: 27,2570           00001                                    00D
001046: 27,2571           56614                                    S40.131                               #  TGO LESS THAN 100 CS
001047: 27,2572           41325                           PDDL     DMP                                   #  02D = TEMP1 AT +7
001048: 27,2573           03737                                    MDOT
001049:
001050:                                                                                                  #  MDOT REPRESENTS THE RATE OF DECREASE OF VEHICLE MASS DURING ENGINE
001051:                                                                                                  #  BURN IN KILOGRAMS/CS .  WHEN  SATURN IS USED , THE SCALING MAY
001052:                                                                                                  #  REQUIRE ADJUSTMENT
001053:
001054: 27,2574           16704                                    3.5SEC                                #  350 CS AT +14
001055: 27,2575           65221                           BDSU     PDDL
001056: 27,2576           01244                                    WEIGHT/G
001057: 27,2577           03735                                    F
001058: 27,2600           60405                           DMP      SR2                                   #  SCALE
001059: 27,2601           16706                                    5SECS
001060: 27,2602           41471                           DDV      PUSH                                  #  04D = TEMP2
001061: 27,2603           51021                           BDSU     BPL
001062: 27,2604           00003                                    02D
001063: 27,2605           56632                                    S40.13D
001064: 27,2606           55345                           DLOAD    BDDV
001065: 27,2607           43205                           DMP      DAD
001066: 27,2610           16706                                    5SECS
001067: 27,2611           16702                                    1SEC2D                                #  100 CS AT +14
001068: 27,2612           77650                           GOTO
001069: 27,2613           56622                                    S40.132
001070: 27,2614           41345        S40.131            DLOAD    DMP
001071: 27,2615           01244                                    WEIGHT/G
001072: 27,2616           41542                           SR1      PUSH
001073: 27,2617           56215                           DAD      DDV
001074: 27,2620           16003                                    K2VAL                                 #  M.NEWTON CS AT +24
001075: 27,2621           16005                                    K3VAL                                 #  M.NEWTON CS AT +10
001076: 27,2622           77414        S40.132            SET      EXIT
001077: 27,2623           01066                                    IMPULSW
001078: 27,2624           07262        S40.132*           TC       TPAGREE
001079: 27,2625           30154                           CA       MPAC
001080: 27,2626           56001                           XCH      L
001081: 27,2627           34755                           CA       ZERO
001082: 27,2630           53517                           DXCH     TGO
001083: 27,2631           12654                           TCF      S40.134
001084:
001085: 27,2632           41345        S40.13D            DLOAD    DMP                                   #  FOR DPS ENGINE
001086: 27,2633           00001                                    00D
001087: 27,2634           01244                                    WEIGHT/G
001088: 27,2635           43006                           PUSH     BON
001089: 27,2636           05302                                    APSFLAG
001090: 27,2637           56675                                    APSTGO
001091: 27,2640           43071                           DDV      CLEAR
001092: 27,2641           16007                                    S40.136
001093: 27,2642           02663                                    NOTHROTL
001094: 27,2643           41400                           BOV      PUSH


001096: 27,2644           56657                                    S40.130V
001097: 27,2645           51025        S40.137            DSU      BPL
001098: 27,2646           16710                                    6SEC                                  #  600.0 CS AT +14
001099: 27,2647           56665                                    S40.138
001100: 27,2650           52015                           DAD      GOTO
001101: 27,2651           16710                                    6SEC
001102: 27,2652           56622                                    S40.132
001103: 27,2653           77776        S40.133            EXIT
001104: 27,2654           05364        S40.134            TC       PHASCHNG
001105: 27,2655           00003                           OCT      00003
001106: 27,2656           05155                           TC       ENDOFJOB
001107: 27,2657           40545        S40.130V           DLOAD    SR4                                   #  RECOMPUTE TGO IN TIME2 UNITS
001108: 27,2660           77671                           DDV
001109: 27,2661           16011                                    S40.136_                              #  S40.136 SHIFTED LEFT 10
001110: 27,2662           03517                           STORE    TGO
001111: 27,2663           77776                           EXIT
001112: 27,2664           12654                           TCF      S40.134                               #  REJOIN COMMON CODING FOR RESTART PROTECT
001113:
001114: 27,2665           51025        S40.138            DSU      BPL
001115: 27,2666           16712                                    89SECS
001116: 27,2667           56672                                    STORETGO
001117: 27,2670           77614                           SET
001118: 27,2671           02463                                    NOTHROTL
001119: 27,2672           77745        STORETGO           DLOAD                                          #  LOAD TGO AT 2(14)
001120: 27,2673           77776                           EXIT
001121: 27,2674           12624                           TCF      S40.132*
001122:
001123: 27,2675           62471        APSTGO             DDV      SL2
001124: 27,2676           34007                                    FAPS
001125: 27,2677           77650                           GOTO
001126: 27,2700           56673                                    STORETGO   +1
001127: 27,2701           00144 00000  1SEC2D             2DEC     100.0      B-14                       #  100.0 CS AT +14
001128:
001129: 27,2703           01274 00000  3.5SEC             2DEC     350.0      B-13                       #  350 CS AT +13
001130:
001131: 27,2705           00764 00000  5SECS              2DEC     500.0      B-14                       #  500.0 CS AT +14
001132:
001133: 27,2707           01130 00000  6SEC               2DEC     600.0      B-14                       #  600.0 CS AT +14
001134:
001135: 27,2711           21304 00000  89SECS             2DEC     8900.0     B-14
001136:
001137:                                                                                                  #  FUNCTION    (1) GENERATES REQUIRED VELOCITY AND VELOCITY-TO-BE-GAINED
001138:                                                                                                  #              VECTORS FOR USE DURING AIMPOINT MANEUVERS EVERY TWO
001139:                                                                                                  #              COMPUTATION CYCLES (4 SECONDS).
001140:                                                                                                  #              (2) UPDATES THE B VECTOR WHICH IS USED IN THE FINAL
001141:                                                                                                  #              CALCULATION OF EXTRAPOLATING THE VELOCITY-TO-BE-GAINED
001142:                                                                                                  #              THROUGH ONE 2-SECOND INTERVAL INTO THE FUTURE.
001143:                                                                                                  #  CALLING SEQ VIA FINDVAC AS NEW JOB.


001145:                                                                                                  #  INPUT       RN       - ACTIVE VEHICLE RADIUS VECTOR IN METERS AT +29.
001146:                                                                                                  #              VN       - ACTIVE VEHICLE VELOCITY VECTOR IN METERS/CS AT +7
001147:                                                                                                  #              VRPREV   - LAST COMPUTED VELOCITY REQUIRED VECTOR IN
001148:                                                                                                  #                         METERS/CS AT +7.
001149:                                                                                                  #              TIG      - TIME OF IGNITION IN CS AT +28.
001150:                                                                                                  #              DLTARG   - COMPUTATION CYCLE INTERVAL = 200 CS AT +28.
001151:                                                                                                  #              PIPTIME  - TIME OF RN AND VN IN CS AT +28.
001152:                                                                                                  #              GDT/2    - HALF OF VELOCITY GAINED IN DELTA T TIME DUE TO
001153:                                                                                                  #                         ACCERERATION OF GRAVITY IN METERS/CS AT +7.
001154:                                                                                                  #              DELVREF  - CHANGE IN VELOCITY DURING LAST 2 SEC IN
001155:                                                                                                  #                         METERS/CS AT +7.
001156:                                                                                                  #  OUTPUT      VGPREV   - VELOCITY TO BE GAINED VECTOR IN METERS/CS AT +7.
001157:                                                                                                  #              VGDISP   - MAG OF VGPREV FOR DISPLAY PURPOSES.
001158:                                                                                                  #              VRPREV   - VELOCITY REQUIRED VECTOR IN METERS/CS AT +7.
001159:                                                                                                  #              BDT      - B VECTOR IN METERS/CS AT +7.
001160:                                                                                                  #  SUBROUTINES USED  -  INITVEL
001161: 27,2713  E7,1700                                  EBANK=   VGPREV
001162: 27,2713                                           COUNT*   $$/S40.9
001163: 27,2713           06042        S40.9              TC       INTPRET
001164: 27,2714           77601                           SETPD
001165: 27,2715           00001                                    00D
001166: 27,2716           71214                           SET      DLOAD
001167: 27,2717           01072                                    AVFLAG                                #  SET AVFLAG FOR LEM ACTIVE
001168: 27,2720           06520                                    HI6ZEROS
001169: 27,2721           77725                           PDDL
001170: 27,2722           16406                                    EPS1
001171: 27,2723           43214                           BOFF     DAD                                   #  EPSILON4 = 10 OR 45 DEGREES.
001172: 27,2724           03745                                    NORMSW
001173: 27,2725           56727                                    EPSSMALL
001174: 27,2726           16410                                    EPS2
001175: 27,2727           45006        EPSSMALL           PUSH     CALL
001176: 27,2730           22002                                    HAVEGUES
001177: 27,2731           77776        ENDS40.9           EXIT
001178: 27,2732           05364                           TC       PHASCHNG
001179: 27,2733           00002                           OCT      2
001180: 27,2734           15155                           TCF      ENDOFJOB
001181:
001182:
001183: 27,2735           51575        RASTEER1           VLOAD    ABVAL
001184: 27,2736           01220                                    RN
001185: 27,2737           53744                           LXC,2    SL*
001186: 27,2740           02777                                    RTX2
001187: 27,2741           57576                                    0,2
001188: 27,2742           27715                           STOVL    RMAG
001189: 27,2743           03444                                    RTARG
001190: 27,2744           47051                           VSU      RTB
001191: 27,2745           01220                                    RN
001192: 27,2746           21725                                    NORMUNX1
001193: 27,2747           17656                           STODL    IC
001194: 27,2750           00045                                    36D                                   #  C(36D) = ABVAL(C)


001196: 27,2751           53674                           XAD,2    SL*
001197: 27,2752           00046                                    X1
001198: 27,2753           57576                                    0,2
001199: 27,2754           00037                           STORE    30D
001200: 27,2755           41301                           NORM     DMP
001201: 27,2756           00050                                    X2
001202: 27,2757           03715                                    RMAG
001203: 27,2760           57101                           NORM     XAD,2
001204: 27,2761           00047                                    X1
001205: 27,2762           00046                                    X1
001206: 27,2763           77734                           SXA,2
001207: 27,2764           03766                                    MUSCALE
001208: 27,2765           17725                           STODL    R1C                                   #                          2(+58 -X)
001209: 27,2766           00037                                    30D
001210: 27,2767           65342                           SR1      PDDL
001211: 27,2770           03715                                    RMAG
001212: 27,2771           65342                           SR1      PDDL
001213: 27,2772           03723                                    RTMAG
001214: 27,2773           43342                           SR1      DAD
001215: 27,2774           45415                           DAD      STADR
001216: 27,2775           74044                           STORE    SS                                    #  SS = (R1 + R2 +C )/2
001217: 27,2776           41225                           DSU      DMP
001218: 27,2777           00037                                    30D
001219: 27,3000           03721                                    MU/A
001220: 27,3001           77621                           BDSU
001221: 27,3002           03717                                    MUASTEER
001222: 27,3003           45325                           PDDL     DSU
001223: 27,3004           03733                                    SS
001224: 27,3005           03715                                    RMAG
001225: 27,3006           70501                           NORM     SR1
001226: 27,3007           00047                                    X1
001227: 27,3010           41271                           DDV      DMP
001228: 27,3011           03725                                    R1C
001229: 27,3012           53664                           XSU,2    SL*
001230: 27,3013           00046                                    X1
001231: 27,3014           57575                                    1,2
001232: 27,3015           77754                           LXA,2
001233: 27,3016           03766                                    MUSCALE
001234: 27,3017           75366                           SQRT     SIGN
001235: 27,3020           02673                                    GEOMSGN
001236: 27,3021           00041                           STORE    32D                                   #  + OR - A
001237: 27,3022           41345                           DLOAD    DMP
001238: 27,3023           03733                                    SS
001239: 27,3024           03721                                    MU/A
001240: 27,3025           77621                           BDSU
001241: 27,3026           03717                                    MUASTEER
001242: 27,3027           45325                           PDDL     DSU
001243: 27,3030           03733                                    SS
001244: 27,3031           03723                                    RTMAG
001245: 27,3032           70501                           NORM     SR1


001247: 27,3033           00047                                    X1
001248: 27,3034           41271                           DDV      DMP
001249: 27,3035           03725                                    R1C
001250: 27,3036           53664                           XSU,2    SL*
001251: 27,3037           00046                                    X1
001252: 27,3040           57575                                    1,2
001253: 27,3041           65366                           SQRT     PDDL                                  #  -B (NO SIGN)
001254: 27,3042           03733                                    SS
001255: 27,3043           56225                           DSU      DDV
001256: 27,3044           00037                                    30D
001257: 27,3045           03733                                    SS
001258: 27,3046           41566                           SQRT     PUSH
001259: 27,3047           67542                           SR1      ASIN
001260: 27,3050           65205                           DMP      PDDL
001261: 27,3051           17222                                    2PI+3
001262: 27,3052           56325                           PDDL     DDV
001263: 27,3053           00037                                    30D
001264: 27,3054           03733                                    SS
001265: 27,3055           77600                           BOV
001266: 27,3056           57057                                    +1
001267: 27,3057           41366                           SQRT     DMP
001268: 27,3060           44242                           SR3      BDSU
001269: 27,3061           65365                           SIGN     PDDL
001270: 27,3062           02673                                    GEOMSGN
001271: 27,3063           17222                                    2PI+3
001272: 27,3064           45302                           SR2      DSU
001273: 27,3065           65205                           DMP      PDDL
001274: 27,3066           03733                                    SS
001275: 27,3067           03733                                    SS
001276: 27,3070           75442                           SR3      SQRT
001277: 27,3071           77605                           DMP
001278: 27,3072           52525                           PDDL     SL3
001279: 27,3073           03717                                    MUASTEER
001280: 27,3074           55366                           SQRT     BDDV
001281: 27,3075           43225                           DSU      DAD
001282: 27,3076           03631                                    TPASS4
001283: 27,3077           01234                                    PIPTIME
001284: 27,3100           14037                           STODL    30D
001285: 27,3101           77765                           SIGN
001286: 27,3102           00037                                    30D                                   #  B WITH SIGN
001287: 27,3103           00037                           STORE    30D
001288: 27,3104           77214                           BON      VLOAD
001289: 27,3105           03705                                    NORMSW
001290: 27,3106           57127                                    180MESS
001291: 27,3107           03656                                    IC
001292: 27,3110           53451                           VSU      UNIT
001293: 27,3111           03537                                    UNIT/R/
001294: 27,3112           63361                           VXSC     PDVL
001295: 27,3113           00037                                    30D
001296: 27,3114           03656                                    IC


001298: 27,3115           53455                           VAD      UNIT
001299: 27,3116           03537                                    UNIT/R/
001300: 27,3117           53361        GETVRVG1           VXSC     VAD
001301: 27,3120           00041                                    32D
001302: 27,3121           53744        GETVRVG2           LXC,2    VSR*
001303: 27,3122           02777                                    RTX2
001304: 27,3123           57177                                    0          -1,2
001305: 27,3124           02337                           STORE    VIPRIME
001306: 27,3125           77650                           GOTO
001307: 27,3126           57172                                    ASTREND    -2
001308: 27,3127           50375        180MESS            VLOAD    DOT
001309: 27,3130           03656                                    IC
001310: 27,3131           03537                                    UNIT/R/
001311: 27,3132           77240                           BMN      VLOAD
001312: 27,3133           57152                                    NEGPROD
001313: 27,3134           03656                                    IC
001314: 27,3135           63362                           VSR1     PDVL
001315: 27,3136           03537                                    UNIT/R/
001316: 27,3137           53362                           VSR1     VAD
001317: 27,3140           77656                           UNIT
001318: 27,3141           57406                           PUSH     VCOMP                                 #  FOR A
001319: 27,3142           75235                           VXV      SIGN
001320: 27,3143           02674                                    UN
001321: 27,3144           02673                                    GEOMSGN
001322: 27,3145           74256                           UNIT     VXSC
001323: 27,3146           00037                                    30D
001324: 27,3147           77715                           PDVL                                           #  UNIT(IC-IR)     +-B
001325: 27,3150           77650                           GOTO
001326: 27,3151           57117                                    GETVRVG1
001327: 27,3152           74575        NEGPROD            VLOAD    VSR1
001328: 27,3153           03537                                    UNIT/R/
001329: 27,3154           74515                           PDVL     VSR1
001330: 27,3155           03656                                    IC
001331: 27,3156           53451                           VSU      UNIT
001332: 27,3157           77606                           PUSH
001333: 27,3160           75235                           VXV      SIGN
001334: 27,3161           02674                                    UN                                    #  FOR B
001335: 27,3162           02673                                    GEOMSGN
001336: 27,3163           74256                           UNIT     VXSC
001337: 27,3164           00041                                    32D
001338: 27,3165           77715                           PDVL
001339: 27,3166           53361                           VXSC     VAD
001340: 27,3167           00037                                    30D
001341: 27,3170           77650                           GOTO
001342: 27,3171           57121                                    GETVRVG2
001343: 27,3172           77651                           VSU
001344: 27,3173           03553                                    VN1
001345: 27,3174           02366        ASTREND            STORE    DELVEET3
001346: 27,3175           53135        FIRSTTME           SLOAD    BZE
001347: 27,3176           03000                                    RTX2


001349: 27,3177           57203                                    GETGOBL
001350: 27,3200           52175                           VLOAD    GOTO                                  #  NO OBLATENESS COMP IF IN MOON SPHERE
001351: 27,3201           02366                                    DELVEET3
001352: 27,3202           57216                                    NOGOBL
001353: 27,3203           53575        GETGOBL            VLOAD    UNIT                                  #  CALCULATE OBLATENESS TERM.
001354: 27,3204           01220                                    RN
001355: 27,3205           45345                           DLOAD    DSU
001356: 27,3206           01234                                    PIPTIME                               #               2
001357: 27,3207           03512                                    GOBLTIME                              #  G    = -(MU/R )(UNITGOBL)(T - TIG)
001358: 27,3210           56205                           DMP      DDV                                   #   OBL
001359: 27,3211           16023                                    EARTHMU
001360: 27,3212           00043                                    34D                                   #  34D = /RN/ (2) FROM UNIT OPERATION.
001361: 27,3213           53361                           VXSC     VAD
001362: 27,3214           03521                                    UNITGOBL
001363: 27,3215           02366                                    DELVEET3                              #   OUTPUT FROM INITVEL  VG = VR - VN
001364: 27,3216           02366        NOGOBL             STORE    DELVEET3                              #  VG = VR + GOBL - VN
001365: 27,3217           77650                           GOTO
001366: 27,3220           56455                                    VGAIN*
001367:
001368:
001369: 27,3221           31103 36652  2PI+3              2DEC     3.141592653 B-2
001370:
001371:


001373:                                                                                                  #  TRIMGIMB      (FORMERLY S40.6)
001374:                                                                                                  #  MOD 0     24 FEB 67     PETER ADLER
001375:                                                                                                  #  FUNCTION:
001376:                                                                                                  #           TRIMS DPS ENGINE TO MINIMIZE THRUST/CG OFFSET. ENGINE IS GIMBALLED TO FULL + PITCH AND + ROLL (TO LOCK)
001377:                                                                                                  #           FOR REFERENCE AND IS THEN BROUGHT BACK TO TRIM POSITION BY RUNNING FOR THE PROPER TIMES (TO BE
001378:                                                                                                  #           SPECIFIED BY GAEC) IN - PITCH AND - ROLL.
001379:                                                                                                  #  CALLING SEQUENCE:
001380:                                                                                                  #           VIA WAITLIST FROM R03
001381:                                                                                                  #  INPUT:
001382:                                                                                                  #           PITTIME     TIME TO RUN FROM FULL + PITCH TO TRIM  (CS)
001383:                                                                                                  #           ROLLTIME    TIME TO RUN FROM FULL + ROLL  TO TRIM  (CS)
001384:                                                                                                  #  SUBROUTINES USED:
001385:                                                                                                  #           WAITLIST, FIXDELAY, VARDELAY, FLAGUP, FLAGDOWN, NOVAC
001386:
001387: 27,3223                                           COUNT*   $$/S40.6
001388: 27,3223  E6,1401                                  EBANK=   ROLLTIME                              #  OCTAL MASKS:  PRIO5=05000 EBANK5=02400
001389:
001390: 27,3223           05527        TRIMGIMB           TC       DOWNFLAG                              #  GMBDRVSW FLAG IS SET WHEN EITHER ROLL OR
001391: 27,3224           00137                           ADRES    GMBDRVSW                              #  PITCH IS COMPLETED, WHICHEVER IS FIRST.
001392:
001393: 27,3225           45017                           CS       PRIO5                                 #  TURN OFF - PITCH, - ROLL, IF ON.
001394: 27,3226           00006                           EXTEND
001395: 27,3227           03012                           WAND     CHAN12
001396: 27,3230           35014                           CAF      EBANK5                                #  TURN ON + PITCH, + ROLL.
001397: 27,3231           00006                           EXTEND
001398: 27,3232           05012                           WOR      CHAN12
001399: 27,3233           05232                           TC       FIXDELAY                              #  WAIT ONE MINUTE TO MAKE SURE ENGINE IS
001400: 27,3234           13560                           DEC      6000       B-14                       #  AT FULL + PITCH AND FULL + ROLL
001401: 27,3235           45014                           CS       EBANK5                                #  TURN OFF + PITCH, + ROLL.
001402: 27,3236           00006                           EXTEND
001403: 27,3237           03012                           WAND     CHAN12
001404: 27,3240           35017                           CAF      PRIO5                                 #  TURN ON - PITCH, - ROLL.
001405: 27,3241           00006                           EXTEND
001406: 27,3242           05012                           WOR      CHAN12
001407: 27,3243           31402                           CAE      PITTIME                               #  GET TIME TO SHUT OFF - PITCH AND SET UP
001408: 27,3244           05204                           TC       TWIDDLE                               #  TWIDDLE-TASK TO TURN IT OFF THEN
001409: 27,3245           03264                           ADRES    PITCHOFF
001410:
001411: 27,3246           31401                           CAE      ROLLTIME                              #  GET TIME TO SHUT OFF - ROLL AND GO AWAY
001412: 27,3247           05235                           TC       VARDELAY                              #  UNTIL THEN
001413: 27,3250           44740                           CS       BIT12
001414: 27,3251           00006                           EXTEND
001415: 27,3252           03012                           WAND     CHAN12                                #  SHUT OFF ROLL
001416: 27,3253           30102        ROLLOVER           CA       FLAGWRD6                              #  IF HERE INLINE (ROLL DONE) IS PITCH DONE
001417: 27,3254           74742                           MASK     GMBDRBIT                              #  IF HERE FROM PITCHOFF, IS ROLL DONE?
001418: 27,3255           00006                           EXTEND
001419: 27,3256           13270                           BZF      PITCHOFF   +4                         #  NO.  SET FLAG, ROLL OR PITCH DONE.
001420: 27,3257           34737                           CAF      PRIO10                                #  RETURN TO R03
001421: 27,3260           05072                           TC       NOVAC
001422: 27,3261  E7,1471                                  EBANK=   WHOCARES


001424: 27,3261           02330 02067                     2CADR    TRIMDONE
001425:
001426: 27,3263           05272                           TC       TASKOVER
001427: 27,3264           44742        PITCHOFF           CS       BIT10
001428: 27,3265           00006                           EXTEND
001429: 27,3266           03012                           WAND     CHAN12                                #  SHUT OFF PITCH
001430: 27,3267           13253                           TCF      ROLLOVER                              #  SEE IF ROLL HAS FINISHED ALSO.
001431: 27,3270           05515                           TC       UPFLAG                                #  ROLL DONE; OR PITCH DONE; BUT NOT BOTH.
001432: 27,3271           00137                           ADRES    GMBDRVSW
001433: 27,3272           05272                           TC       TASKOVER
001434:


001436:                                                                                                  #  SUBROUTINE NAME: S41.1          MOD. NO. 0  DATE: FEBRUARY 28, 1967
001437:
001438:                                                                                                  #                          MOD. NO. 1  DATE: JANUARY 23, 1968: BY PETER ADLER (MIT/IL)
001439:
001440:                                                                                                  #  AUTHOR: JONATHAN D. ADDELSTON (ADAMS ASSOCIATES)
001441:
001442:                                                                                                  #  S41.1 PERFORMS THE COORDINATE SYSTEM TRANFORMATION FROM THE REFERENCE FRAME TO THE BODY OF THE LM.
001443:                                                                                                  #  SPECIFICALLY, IT IS USED TO TRANSFORM A VELOCITY (SCALED AT 2(+7) METERS/CENTISECOND) FROM REFERENCE TO LM AXIS
001444:                                                                                                  #  COORDINATES.  FIRST THE VECTOR IS TRANSFORMED TO THE STABLE MEMBER COORDINATES BY THE MATRIX REFSMMAT.  THIS
001445:                                                                                                  #  LEAVES THE VECTOR IN MPAC, SCALED AT 2(+8) METERS/CENTISECOND.  THEN
001446:                                                                                                  #  THE SUBROUTINE CDUTRIG IS CALLED TO SET UP THE DOUBLE-PRECISION CDU VECTOR ALONG WITH ITS SINES AND COSINES.
001447:                                                                                                  #  THE VECTOR IS THEN TRANSFORMED FROM STABLE MEMBER COORDINATES TO SPACECRAFT (OR LM) COORDINATES BY THE
001448:                                                                                                  #  SUBROUTINE *SMNB*.  FINALLY( THE VECTOR IS RESCALED TO 2(+7) METERS/CENTISECOND, AND CONTROL IS RETURNED TO THE
001449:                                                                                                  #  CALLER WITH C(MPAC) = VELOCITY(LM).
001450:
001451:
001452:                                                                                                  #  CALLING SEQUENCE:
001453:                                                                                                  #                                          L        VLOAD  CALL
001454:                                                                                                  #                                          L +1            VELOCITY(REF)   SCALED AT 2(+7)M/CS IN REFERENCE COORDS.
001455:                                                                                                  #                                          L +2            S41.1
001456:                                                                                                  #                                          L +3     STORE  VELOCITY(LM)    SCALED AT 2(+7)M/CS IN LM BODY AXIS SYS.
001457:
001458:                                                                                                  #  SUBROUTINES CALLED:
001459:
001460:                                                                                                  #           1.  CDUTRIG,
001461:                                                                                                  #                  WHICH CALLS CDULOGIC.
001462:                                                                                                  #           2.  *SMNB*
001463:
001464:                                                                                                  #  NORMAL RETURN: L +3 (SEE CALLING SEQUENCE, ABOVE.)
001465:
001466:                                                                                                  #  ALARM/ABORT MODES: NONE.
001467:
001468:                                                                                                  #  RESTART PROTECTION: NONE.
001469:


001471:                                                                                                  #  INPUT:
001472:
001473:                                                                                                  #           1.  REFSMMAT.
001474:                                                                                                  #           2.  CDUX, CDUY, CDUZ.
001475:                                                                                                  #           3.  VELOCITY (REF) IN MPAC.
001476:
001477:                                                                                                  #  OUTPUT:
001478:
001479:                                                                                                  #           1.  CDUSPOT:  DOUBLE PRECISION CDU VECTOR, ORDERED Y,Z,X.
001480:                                                                                                  #           2.  SINCDU:   HALF SINES OF CDUSPOT COMPONENTS.
001481:                                                                                                  #           3.  COSCDU:   HALF COSINES OF CDUSPOT COMPONENTS.
001482:                                                                                                  #           4.  MPAC:     VELOCITY(LM) (SCALED AT 2(+7) METERS/CENTISECOND)
001483:
001484:                                                                                                  #  DEBRIS: NONE.
001485:
001486:                                                                                                  #  CHECKOUT STATUS:  CODED.
001487:
001488: 27,3273                                           COUNT*   $$/S41.1
001489: 27,3273           76521        S41.1              MXV      VSL1                                  #  CONVERT VECTOR IN MPAC FROM REF AT 2(+7)
001490: 27,3274           01732                                    REFSMMAT                              #  TO SM AND RESCALE DUE TO HALFUNIT MATRIX
001491: 27,3275           77650                           GOTO                                           #  CONVERT TO BODY AT 2(+7) USING PRESENT
001492: 27,3276           47653                                    CDU*SMNB                              #  CDU ANGLES.  CDU*SMNB WILL RETURN
001493:                                                                                                  #  VIA RVQ TO THE CALLER OF S41.1

End of include-file P40-P47.agc.  Parent file is MAIN.agc


