
Source Code


000002:                                                                                                  ## Copyright:   Public domain.
000003:                                                                                                  ## Filename:    P40-P47.agc
000004:                                                                                                  ## Purpose:     A section of Luminary revision 163.
000005:                                                                                                  ##              It is part of the reconstructed source code for the first
000006:                                                                                                  ##              (unflown) release of the flight software for the Lunar
000007:                                                                                                  ##              Module's (LM) Apollo Guidance Computer (AGC) for Apollo 14.
000008:                                                                                                  ##              The code has been recreated from a reconstructed copy of
000009:                                                                                                  ##              Luminary 173, as well as Luminary memos 157 amd 158.
000010:                                                                                                  ##              It has been adapted such that the resulting bugger words
000011:                                                                                                  ##              exactly match those specified for Luminary 163 in NASA
000012:                                                                                                  ##              drawing 2021152N, which gives relatively high confidence
000013:                                                                                                  ##              that the reconstruction is correct.
000014:                                                                                                  ## Reference:   pp. 738-770
000015:                                                                                                  ## Assembler:   yaYUL
000016:                                                                                                  ## Contact:     Ron Burkey <info@sandroid.org>.
000017:                                                                                                  ## Website:     www.ibiblio.org/apollo/index.html
000018:                                                                                                  ## Mod history: 2019-08-21 MAS  Created from Luminary 173. Removed S40RET tag
000019:                                                                                                  ##                              in UPDATEVG. Changed references to S40RET to
000020:                                                                                                  ##                              QPRET. Removed GOFIND tag in ALARMIT, changed
000021:                                                                                                  ##                              the CALL FINDCDUW -2 to GOTO, and removed the
000022:                                                                                                  ##                              GOTO S40RET. Moved ALARMIT back to bank 27.
000023:                                                                                                  ##                              Changed reference to GOFIND to FINDCDUW -2.
000024:                                                                                                  ##              2021-05-30 ABS  TGDCALC -> TGOCALC
000025:


000027:                                                                                                  #  PROGRAM DESCRIPTION  P40BOTH    DECEMBER 22, 1966
000028:                                                                                                  #  MOD 03 BY PETER ADLER           MARCH 3, 1967
000029:                                                                                                  #  CALLED VIA JOB FROM V37E
000030:
000031:                                                                                                  #  FUNCTIONAL DESCRIPTION
000032:
000033:                                                                                                  #           1)  TO COMPUTE A PREFERRED IMU ORIENTATION AND A PREFERRED VEHICLE ATTITUDE FOR A LM DPS
000034:                                                                                                  #               THRUSTING MANEUVER.
000035:


000037:
000038:                                                                                                  #           3)  TO DO THE VEHICLE MANEUVER TO THE THRUSTING ATTITUDE.
000039:
000040:                                                                                                  #           4)  TO CONTROL THE PGNCS DURING COUNTDOWN, IGNITION, THRUSTING, AND THRUST TERMINATION OF A
000041:                                                                                                  #               PGNCS CONTROLLED DPS MANEUVER.
000042:
000043:                                                                                                  #           5)  IN POSTBURN--ZERO RENDEZVOUS COUNTER, MAINTAIN VG CALCULATIONS FOR POSSIBLE RCS MANEUVER,
000044:                                                                                                  #                            SET MAXIMUM DEADBAND IN DAP, RESET STEERLAW CSTEER TO ZERO.
000045:
000046:                                                                                                  #           NOTE:  P42, WHICH IS IN THIS LOG SECTION, DOES THE SAME FOR AN APS BURN, AND P41 DOES 1-3 FOR
000047:                                                                                                  #                  RCS PLUS DISPLAYS PARAMETERS FOR MANUAL CONTROL.
000048:
000049:                                                                                                  #  SUBROUTINES USED
000050:
000051:                                                                                                  #           R02      IMU STATUS CHECK
000052:                                                                                                  #           S40.1    COMPUTATION OF THRUST DIRECTION
000053:                                                                                                  #           S40.13   LENGTH OF BURN
000054:                                                                                                  #           S40.2,3  PREFERRED IMU ORIENATTION
000055:                                                                                                  #           S40.8    X PRODUCT STEERING
000056:                                                                                                  #           S40.9    LAMBERT VTOGAIN
000057:                                                                                                  #           R60LEM   ATTITUDE MANEUVER
000058:                                                                                                  #           LEMPREC  EXTRAPOLATE STATE VECTOR
000059:                                                                                                  #           PREREAD  AVERAGE G, SERVICER
000060:                                                                                                  #           ALLCOAST DAP COASTING INITIALIZATION
000061:                                                                                                  #           CLOKTASK ERGO CLOCKJOB--COUNT DOWN
000062:                                                                                                  #           PHASCHNG, INTPRET, FLAGUP, FLAGDOWN, WAITLIST, LONGCALL, GOFLASH, GOFLASHR, GOPERF1, ALARM,
000063:                                                                                                  #           PRIOLARM, GOTOPOOH, ENDOFJOB, BANKCALL, SETMAXDB, SETMINDB, CHECKMM, FLATOUT, OUTFLAT,
000064:                                                                                                  #           KILLTASK, SGNAGREE, TPAGREE, ETC.
000065:
000066:                                                                                                  #  RESTARTS VIA GROUP 4
000067:
000068:                                                                                                  #  DISPLAYS
000069:
000070:                                                                                                  #           V50N25  203 A/P TO PGNCS, AUTO THROTTLE MODE, AUTO ATTITUDE CONTROL
000071:                                                                                                  #           V06N40  TTI, VG, DELTAVM (DISPLAYED ONCE/SECOND BY CLOKTASK)
000072:                                                                                                  #           V50N99  PLEASE PERFORM ENGINE ON ENABLE
000073:                                                                                                  #           V06N40  TG (TIME TO GO TO CUTOFF), VG, DELTAVM--ONCE/SECOND
000074:                                                                                                  #           V16N40  FINAL VALUES OF TG, VG, DELTAVM
000075:                                                                                                  #           V16N85  COMP OF VG (BODY AXES) FOR POSS. RCS MANUAL MANEUVER
000076:                                                                                                  #           V05N09  POSSIBLE ALARMS
000077:                                                                                                  #           V50N07  PLEASE SELECT P00
000078:


000080:                                                                                                  #           VIA R30
000081:
000082:                                                                                                  #           V06N44  HAPO, PERI, TFF
000083:                                                                                                  #           V06N35  TIME TO PERIGEE, HMS
000084:
000085:                                                                                                  #  ALARM OR ABORT EXIT MODES
000086:
000087:                                                                                                  #           PROGRAM ALARM, FLASHING DISPLAY OF ALARM CODE 1706 IF P40 SELECTED WITH DESCENT UNIT STAGED.
000088:                                                                                                  #           V34E (TERMINATE) IS THE ONLY RESPONSE ACCEPTED. TC GOTOPOOH.
000089:
000090:                                                                                                  #           PROGRAM ALARM, FLASH CODE 1703:  TIG LESS THAN 45 SECS AWAY.  V34E=  GOTOPOOH OR V33E=  SLIP
000091:                                                                                                  #           TIG BY 45 SECS.
000092:
000093:                                                                                                  #  ERASABLE INITIALIZATION
000094:                                                                                                  #  DEBRIS
000095:                                                                                                  #  OUTPUT
000096:
000097:                                                                                                  #           SEE SUBROUTINES E.G.:  S40.1, S40.2,3, S40.13, S40.8, S40.9, TRIMGIMB
000098:                                                                                                  #           XDELVFLG = 1 FOR EXT DELV COMPUTATION
000099:                                                                                                  #                    = 0 FOR AIMPT (LAMBERT) COMP
000100:
000101: 27,2246                                           COUNT*   $$/P40
000102: 27,2246  E7,1455                                  EBANK=   WHICH
000103:
000104: 36,3154                                           BANK     36
000105: 36,2000                                           SETLOC   P40S
000106: 36,2000                                           BANK
000107:
000108: 36,3154           05364        P40LM              TC       PHASCHNG
000109: 36,3155           04024                           OCT      04024
000110:
000111: 36,3156           33140                           CAF      P40ADRES                              #  INITIALIZATION FOR BURNBABY.
000112: 36,3157           55455                           TS       WHICH
000113:
000114: 36,3160           30106                           CA       FLGWRD10
000115: 36,3161           74737                           MASK     APSFLBIT
000116: 36,3162           10000                           CCS      A
000117: 36,3163           13126                           TCF      P40ALM
000118: 36,3164           04616                           TC       BANKCALL                              #  GO DO IMU STATUS CHECK ROUTINE.
000119: 36,3165           11241                           CADR     R02BOTH
000120:
000121: 36,3166           40111                           CS       DAPBOOLS                              #  INITIALIZE DVMON
000122: 36,3167           74737                           MASK     CSMDOCKD
000123: 36,3170           10000                           CCS      A
000124: 36,3171           32022                           CAF      THRESH1
000125: 36,3172           62023                           AD       THRESH3
000126: 36,3173           55250                           TS       DVTHRUSH
000127: 36,3174           34751                           CAF      FOUR
000128: 36,3175           55515                           TS       DVCNTR


000130: 36,3176           06042                           TC       INTPRET                               #  LOAD CONSTANTS FOR DPS BURN
000131: 36,3177           43175                           VLOAD    CLEAR                                 #  LOAD F, MDOT, TDECAY
000132: 36,3200           34001                                    FDPS
000133: 36,3201           02663                                    NOTHROTL
000134: 36,3202           03735                           STORE    F
000135: 36,3203           77735                           SLOAD
000136: 36,3204           26002                                    DPSVEX
000137: 36,3205           70476        P40IN              DCOMP    SR1
000138: 36,3206           37743                           STCALL   VEX                                   #  LOAD EXHAUST VELOCITY FOR TGO COMP.
000139: 36,3207           56246                                    S40.1                                 #  COMPUTES UT AND VGTIG
000140: 36,3210           77624                           CALL
000141: 36,3211           56413                                    S40.2,3                               #  COMPUTES PREFERRED IMU ORIENTATION
000142: 36,3212           77776                           EXIT
000143:
000144: 36,3213           00004                           INHINT
000145: 36,3214           04674                           TC       IBNKCALL
000146: 36,3215           40143                           CADR     PFLITEDB                              #  ZERO ATTITUDE ERRORS, SET DB TO ONE DEG.
000147:
000148: 36,3216           03220                           TC       P40SXT4
000149:
000150:                                                                                                  #                                               ***********************
000151: 36,3217           12130                           TCF      BURNBABY
000152:                                                                                                  #                                               ***********************
000153:
000154: 36,3220           00006        P40SXT4            EXTEND
000155: 36,3221           23141                           QXCH     P40/RET
000156: 36,3222           00003        P41MANU            RELINT
000157:
000158: 36,3223           05527                           TC       DOWNFLAG                              #  CLEAR 3AXISFLG -- R60 WILL USE VECPOINT.
000159: 36,3224           00124                           ADRES    3AXISFLG
000160:
000161: 36,3225           04616                           TC       BANKCALL
000162: 36,3226           54125                           CADR     R60LEM                                #  DO ATTITUDE MANEUVER ROUTINE
000163: 36,3227           01141                           TC       P40/RET
000164:
000165:
000166: 36,3230  E7,1462                                  EBANK=   TRKMKCNT
000167: 36,3230           30005        POSTBURN           CA       Z
000168: 36,3231           55162                           TS       DISPDEX
000169: 36,3232           00006                           EXTEND
000170: 36,3233           32060                           DCA      ACADN85
000171: 36,3234           53252                           DXCH     AVEGEXIT
000172: 36,3235           33760                           CAF      V16N40
000173: 36,3236           04616                           TC       BANKCALL
000174: 36,3237           20636                           CADR     GOFLASHR
000175: 36,3240           03263                           TC       TERM40
000176: 36,3241           13246                           TCF      TIGNOW
000177: 36,3242           03230                           TC       POSTBURN
000178:


000180: 36,3243           05364        P40PHS1            TC       PHASCHNG
000181: 36,3244           00014                           OCT      00014
000182: 36,3245           15155                           TCF      ENDOFJOB
000183:
000184: 36,3246           00004        TIGNOW             INHINT
000185: 36,3247           04674                           TC       IBNKCALL
000186: 36,3250           40154                           CADR     ZATTEROR
000187: 36,3251           04674                           TC       IBNKCALL
000188: 36,3252           40141                           CADR     SETMINDB
000189: 36,3253           00003                           RELINT
000190: 36,3254           33761                           CAF      V16N85B
000191: 36,3255           04616                           TC       BANKCALL
000192: 36,3256           20463                           CADR     REFLASHR
000193: 36,3257           03263                           TC       TERM40
000194: 36,3260           13263                           TCF      TERM40
000195: 36,3261           03254                           TC       -5
000196:
000197: 36,3262           13243                           TCF      P40PHS1
000198:
000199: 36,3263           00006        TERM40             EXTEND
000200: 36,3264           32110                           DCA      SERVCADR
000201: 36,3265           53252                           DXCH     AVEGEXIT
000202: 36,3266           34755                           CAF      ZERO
000203: 36,3267           55462                           TS       TRKMKCNT                              #       ZERO RENDZVS CNTERS
000204: 36,3270           30005                           CA       Z
000205: 36,3271           55162                           TS       DISPDEX
000206: 36,3272           00004                           INHINT
000207: 36,3273           04674                           TC       IBNKCALL
000208: 36,3274           40115                           CADR     RESTORDB
000209: 36,3275           00003                           RELINT
000210: 36,3276           06001                           TC       GOTOPOOH
000211:
000212: 36,3277  E7,1455                                  EBANK=   WHICH
000213: 36,3277                                           COUNT*   $$/P41
000214: 36,3277           33141        P41LM              CAF      P41ADRES                              #  INITIALIZATION FOR BURNBABY
000215: 36,3300           55455                           TS       WHICH
000216:
000217: 36,3301           04616                           TC       BANKCALL
000218: 36,3302           11241                           CADR     R02BOTH
000219:
000220: 36,3303           34755                           CA       ZERO                                  #  ZERO DVTOTAL FOR NOUN 40 DISPLAY
000221: 36,3304           55507                           TS       DVTOTAL
000222: 36,3305           55510                           TS       DVTOTAL    +1
000223: 36,3306           35017                           CAF      PRIO5
000224: 36,3307           55162                           TS       DISPDEX                               #  FOR SAFETY
000225: 36,3310           05105                           TC       FINDVAC
000226: 36,3311  E7,1700                                  EBANK=   VGPREV
000227: 36,3311           03374 74067                     2CADR    DYNMDISP
000228:
000229: 36,3313           05340                           TC       2PHSCHNG


000231: 36,3314           00116                           OCT      00116                                 #  GROUP 6 RESTART AT FKP5RST, PRIO 17
000232: 36,3315           04024                           OCT      04024                                 #  GROUP 4 RESTART HERE, PRIO 13
000233:
000234: 36,3316           06042                           TC       INTPRET                               #  BOTH LM
000235: 36,3317           71214                           BON      DLOAD                                 #  IF NJETSFLAG IS SET, LOAD 2 JET F
000236: 36,3320           00700                                    NJETSFLG
000237: 36,3321           75325                                    P41FJET1
000238: 36,3322           34017                                    FRCS4                                 #  IF NJETSFLAG IS CLEAR, LOAD 4 JET F
000239:
000240: 36,3323           37735        P41FJET            STCALL   F
000241: 36,3324           75330                                    P41IN
000242:
000243: 36,3325           77745        P41FJET1           DLOAD
000244: 36,3326           34021                                    FRCS2
000245: 36,3327           03735                           STORE    F
000246:
000247: 36,3330           77624        P41IN              CALL
000248: 36,3331           56246                                    S40.1                                 #  BOTH
000249: 36,3332           77624        P41NORM            CALL
000250: 36,3333           56413                                    S40.2,3                               #  CALCULATE PREFERRED IMU ORIENTATION AND
000251: 36,3334           77776                           EXIT                                           #  SET PFRATFLG.
000252:
000253: 36,3335           00004                           INHINT
000254: 36,3336           04674                           TC       IBNKCALL
000255: 36,3337           40154                           CADR     ZATTEROR                              #  ZERO ATTITUDE ERRORS
000256: 36,3340           04674                           TC       IBNKCALL
000257: 36,3341           40141                           CADR     SETMINDB                              #  SET 0.3 DEGREE DEADBAND
000258: 36,3342           03220                           TC       P40SXT4
000259:
000260: 36,3343           06042                           TC       INTPRET
000261: 36,3344           45175                           VLOAD    CALL                                  #  TRANSFORM VELOCITY-TO-BE-GAINED AT TIG
000262: 36,3345           03701                                    VGTIG                                 #  FROM REFERENCE COORDINATES TO LM BODY-
000263: 36,3346           57273                                    S41.1                                 #  AXIS COORDINATES FOR V16N85 DISPLAY.
000264: 36,3347           03502                           STORE    VGBODY                                #  (SCALED AT 2 (+7) METERS/CENTISECOND)
000265: 36,3350           77776                           EXIT
000266:
000267: 36,3351           33761                           CAF      V16N85B
000268: 36,3352           04616                           TC       BANKCALL
000269: 36,3353           20447                           CADR     GODSPRET
000270:
000271:
000272: 36,3354           05340                           TC       2PHSCHNG
000273: 36,3355           00076                           OCT      00076                                 #  GROUP 6 RESTARTS AT REDO6.7
000274: 36,3356           04024                           OCT      04024                                 #  GROUP 4 RESTARTS HERE
000275:
000276:                                                                                                  #                                               ***********************
000277: 36,3357           12137                           TCF      B*RNB*B*
000278:                                                                                                  #                                               ***********************
000279:


000281: 36,3360           34777        BLNKWAIT           CAF      1SEC
000282: 36,3361           04616                           TC       BANKCALL
000283: 36,3362           01736                           CADR     DELAYJOB
000284:
000285: 36,3363           31162        REDO6.7            CA       DISPDEX                               #  ON A RESTART, DO NOT PUT UP DISPLAY IF
000286: 36,3364           64752                           AD       TWO                                   #  BLANKING (BETWEEN TIG-35 AND TIG-30)
000287:                                                                                                  #                                               ***********************
000288:
000289: 36,3365           00006                           EXTEND
000290: 36,3366           13360                           BZF      BLNKWAIT
000291:
000292: 36,3367           33761                           CAF      V16N85B
000293: 36,3370           04616                           TC       BANKCALL
000294: 36,3371           20447                           CADR     GODSPRET
000295:
000296: 36,3372           35017        FKP5RST            CAF      PRIO5
000297: 36,3373           05146                           TC       PRIOCHNG
000298:
000299: 36,3374           31162        DYNMDISP           CA       DISPDEX                               #  A NON-POSITIVE DISPDEX INDICATES PAST
000300: 36,3375           00006                           EXTEND                                         #  TIG-35, SO SERVICER WILL BE DOING THE
000301: 36,3376           65155                           BZMF     ENDOFJOB                              #  UPDATING OF NOUN 85. STOP DYNMDISP.
000302: 36,3377           00006                           EXTEND
000303: 36,3400           41442                           DCS      TIG
000304: 36,3401           53454                           DXCH     TTOGO                                 #  UPDATE TFI DISPLAY (NOUN 40)
000305: 36,3402           00006                           EXTEND
000306: 36,3403           30025                           DCA      TIME2
000307: 36,3404           21454                           DAS      TTOGO
000308: 36,3405           06042                           TC       INTPRET
000309: 36,3406           45175                           VLOAD    CALL
000310: 36,3407           03701                                    VGPREV
000311: 36,3410           57273                                    S41.1                                 #  CONVERT VG FROM REF TO BODY
000312: 36,3411           03502                           STORE    VGBODY
000313: 36,3412           77776                           EXIT
000314: 36,3413           34777                           CAF      1SEC
000315: 36,3414           04616                           TC       BANKCALL
000316: 36,3415           01736                           CADR     DELAYJOB
000317: 36,3416           13374                           TCF      DYNMDISP                              #  RECYCLE ONCE A SECOND
000318:
000319:
000320: 36,3417                                           COUNT    $$/P41
000321: 32,2550                                           BANK     32
000322: 32,2000                                           SETLOC   P40S4
000323: 32,2000                                           BANK
000324:
000325: 32,2550           06042        CALCN85            TC       INTPRET
000326: 32,2551           77624                           CALL
000327: 32,2552           75620                                    UPDATEVG
000328: 32,2553           45175                           VLOAD    CALL
000329: 32,2554           03701                                    VGPREV


000331: 32,2555           57273                                    S41.1
000332: 32,2556           03502                           STORE    VGBODY
000333: 32,2557           77776                           EXIT
000334: 32,2560           04635                           TC       POSTJUMP
000335: 32,2561           65636                           CADR     SERVEXIT
000336:
000337: 36,3417                                           BANK     36
000338: 36,2000                                           SETLOC   P40S
000339: 36,2000                                           BANK
000340:
000341: 36,3417                                           COUNT*   $$/P42
000342: 36,3417  E7,1455                                  EBANK=   WHICH
000343:
000344: 36,3417           05364        P42LM              TC       PHASCHNG
000345: 36,3420           04024                           OCT      04024
000346:
000347: 36,3421           33142                           CAF      P42ADRES                              #  INITIALIZATION FOR BURNBABY.
000348: 36,3422           55455                           TS       WHICH
000349:
000350: 36,3423           40106                           CS       FLGWRD10
000351: 36,3424           74737                           MASK     APSFLBIT
000352: 36,3425           10000                           CCS      A
000353: 36,3426           03126                           TC       P40ALM
000354: 36,3427           04616        P42STAGE           TC       BANKCALL
000355: 36,3430           11241                           CADR     R02BOTH
000356: 36,3431           36000                           CAF      THRESH2                               #  INITIALIZE DVMON
000357: 36,3432           55250                           TS       DVTHRUSH
000358: 36,3433           34751                           CAF      FOUR
000359: 36,3434           55515                           TS       DVCNTR
000360:
000361: 36,3435           06042                           TC       INTPRET
000362: 36,3436           77214                           SET      VLOAD                                 #  LOAD FAPS, MDOTAPS, AND ATDECAY INTO
000363: 36,3437           01072                                    AVFLAG                                #  F, MDOT, AND TDECAY BY VECTOR LOAD.
000364: 36,3440           34007                                    FAPS
000365: 36,3441           03735                           STORE    F
000366: 36,3442           52135                           SLOAD    GOTO
000367: 36,3443           26001                                    APSVEX
000368: 36,3444           75205                                    P40IN
000369:
000370: 36,3445  E7,1455                                  EBANK=   WHICH
000371:
000372: 36,3445                                           COUNT*   $$/P47
000373: 36,3445           04616        P47LM              TC       BANKCALL
000374: 36,3446           11241                           CADR     R02BOTH
000375: 36,3447           06042                           TC       INTPRET
000376: 36,3450           77624                           CALRB
000377: 36,3451           27547                                    MIDTOAV2
000378:
000379: 36,3452           30155                           CA       MPAC       +1
000380: 36,3453           05204                           TC       TWIDDLE


000382: 36,3454           03456                           ADRES    STARTP47
000383:
000384: 36,3455           15155                           TCF      ENDOFJOB
000385:
000386: 36,3456           05364        STARTP47           TC       PHASCHNG
000387: 36,3457           05014                           OCT      05014
000388: 36,3460           77777                           OCT      77777
000389:
000390: 36,3461           00006                           EXTEND
000391: 36,3462           33764                           DCA      ACADN83
000392: 36,3463           53252                           DXCH     AVEGEXIT
000393: 36,3464           34736                           CAF      PRIO20
000394: 36,3465           05105                           TC       FINDVAC
000395: 36,3466  E7,1622                                  EBANK=   DELVIMU
000396: 36,3466           03522 74067                     2CADR    P47BODY
000397:
000398: 36,3470           12344                           TCF      REDO4.2                               #  CHECKS PHASE 5 AND GOES TO PREREAD
000399:                                                                                                  #  SEE TIG-30 IN BURNBABY.
000400:
000401: 36,3471           06042        CALCN83            TC       INTPRET
000402: 36,3472           53375                           VLOAD    VAD
000403: 36,3473           03502                                    DELVCTL
000404: 36,3474           03527                                    DELVREF
000405: 36,3475           03656                           STORE    DELVSIN                               #  TEMP STORAGE FOR RESTARTS
000406: 36,3476           77624                           CALL
000407: 36,3477           57273                                    S41.1
000408: 36,3500           03623                           STORE    DELVIMU
000409: 36,3501           77776                           EXIT
000410: 36,3502           05364                           TC       PHASCHNG
000411: 36,3503           10035                           OCT      10035                                 #  REREADAC AND HERE
000412:
000413: 36,3504           06042                           TC       INTPRET
000414: 36,3505           77775                           VLOAD
000415: 36,3506           03656                                    DELVSIN
000416: 36,3507           03502                           STORE    DELVCTL
000417: 36,3510           77776                           EXIT
000418:
000419: 36,3511           04635                           TC       POSTJUMP
000420: 36,3512           65636                           CADR     SERVEXIT
000421:
000422: 36,3513           33762        P47BOD             CAF      V1683
000423: 36,3514           04616                           TC       BANKCALL
000424: 36,3515           20636                           CADR     GOFLASHR
000425: 36,3516           06001                           TC       GOTOPOOH
000426: 36,3517           06001                           TC       GOTOPOOH
000427:
000428: 36,3520           13522                           TCF      P47BODY
000429:
000430: 36,3521           13243                           TCF      P40PHS1
000431:
000432: 36,3522           06042        P47BODY            TC       INTPRET
000433: 36,3523           77775                           VLOAD


000435: 36,3524           06520                                    HI6ZEROS
000436: 36,3525           03623                           STORE    DELVIMU
000437: 36,3526           03502                           STORE    DELVCTL
000438: 36,3527           77776                           EXIT
000439: 36,3530           03513                           TC       P47BOD
000440:
000441: 36,3531                                           COUNT*   $$/P40
000442: 36,3531           31517        IMPLBURN           CA       TGO        +1
000443: 36,3532           03744                           TC       GETDT
000444: 36,3533           05204                           TC       TWIDDLE
000445: 36,3534           03551                           ADRES    ENGOFTSK
000446: 36,3535           05527                           TC       DOWNFLAG                              #  TURN OFF IGNFLAG
000447: 36,3536           00153                           ADRES    IGNFLAG
000448: 36,3537           05527                           TC       DOWNFLAG                              #  TURN OFF ASTNFLG
000449: 36,3540           00154                           ADRES    ASTNFLAG
000450: 36,3541           05527                           TC       DOWNFLAG                              #  TURN OFF IMPULSW
000451: 36,3542           00044                           ADRES    IMPULSW
000452: 36,3543           05364                           TC       PHASCHNG                              #  RESTART PROTECT ENGOFTSK (ENGINOFF)
000453: 36,3544           40114                           OCT      40114
000454:
000455: 36,3545           05232                           TC       FIXDELAY                              #  WAIT HALF A SECOND
000456: 36,3546           00062                           DEC      50         B-14
000457:
000458: 36,3547           02660                           TC       NOULLAGE                              #  TURN OFF ULLAGE
000459:
000460: 36,3550           05272                           TC       TASKOVER
000461:
000462: 36,3551           04674        ENGOFTSK           TC       IBNKCALL                              #  THIS CODING ALLOWS ENGINOFF ET AL TO BE
000463: 36,3552           75554                           CADR     ENGINOFF                              #  USED BOTH BY WAITLIST AND BY TC IBNKCALL
000464: 36,3553           05272                           TC       TASKOVER
000465:
000466: 36,3554           34644        ENGINOFF           CAF      PRIO12                                #  MUST BE LOWER PRIO THAN CLOCKJOB
000467: 36,3555           05105                           TC       FINDVAC
000468: 36,3556  E7,1462                                  EBANK=   TRKMKCNT
000469: 36,3556           03230 74067                     2CADR    POSTBURN
000470:
000471:
000472: 36,3560           34753        ENGINOF2           CAF      BIT1
000473: 36,3561           05214                           TC       WAITLIST
000474: 36,3562  E6,1422                                  EBANK=   OMEGAQ
000475: 36,3562           03615 74066                     2CADR    COASTSET
000476:
000477: 36,3564           40103        ENGINOF1           CS       FLAGWRD7                              #  SET THE IDLE BIT.
000478: 36,3565           74745                           MASK     IDLEFBIT
000479: 36,3566           26103                           ADS      FLAGWRD7
000480:
000481: 36,3567           02660                           TC       NOULLAGE
000482:
000483: 36,3570           00006        ENGINOF4           EXTEND
000484: 36,3571           30025                           DCA      TIME2


000486: 36,3572           53342                           DXCH     TEVENT
000487:
000488: 36,3573           44745        ENGINOF3           CS       ENGONBIT                              #  INSURE ENGONFLG IS CLEAR.
000489: 36,3574           70101                           MASK     FLAGWRD5
000490: 36,3575           54101                           TS       FLAGWRD5
000491: 36,3576           44355                           CS       PRIO30                                #  ENGINOF3 IS USED AS A PRE-ENGINE ARM
000492: 36,3577           00006                           EXTEND                                         #  SUBROUTINE.
000493: 36,3600           02011                           RAND     DSALMOUT
000494: 36,3601           64736                           AD       PRIO20                                #  TURN OFF THE ENGINE - DPS OR APS
000495: 36,3602           00006                           EXTEND
000496: 36,3603           01011                           WRITE    DSALMOUT
000497:
000498: 36,3604           40111                           CS       DAPBOOLS                              #  TURN OFF TRIM GIMBAL
000499: 36,3605           74736                           MASK     USEQRJTS
000500: 36,3606           26111                           ADS      DAPBOOLS
000501:
000502: 36,3607           44737                           CS       HIRTHROT                              #  ZERO AUTO-THROTTLE WHENEVER THE ENGINE
000503: 36,3610           54055                           TS       THRUST                                #  IS TURNED OFF.
000504: 36,3611           34750                           CAF      BIT4                                  #  THE HARDWARE DOES SO ONLY WHEN THE
000505: 36,3612           00006                           EXTEND                                         #  ENGINE IS DISARMED.
000506: 36,3613           05014                           WOR      CHAN14
000507:
000508: 36,3614           04707                           TC       ISWRETRN
000509: 36,3615           04674        COASTSET           TC       IBNKCALL                              #  DO DAP COASTING INITIALIZATION
000510: 36,3616           40205                           CADR     ALLCOAST
000511: 36,3617           05272                           TC       TASKOVER
000512:
000513: 36,3620  E6,1422                                  EBANK=   OMEGAQ
000514: 36,3620           45020        UPDATEVG           STQ      CALL
000515: 36,3621           03665                                    QTEMP1
000516: 36,3622           56447                                    S40.8                                 #  X-PRODUCT STEERING
000517: 36,3623           43014                           BON      BON                                   #  WILL RETURN HERE FROM S40.8
000518: 36,3624           01307                                    XDELVFLG
000519: 36,3625           03665                                    QTEMP1
000520: 36,3626           03705                                    NORMSW
000521: 36,3627           75642                                    180SETUP
000522: 36,3630           45345                           DLOAD    DSU
000523: 36,3631           01234                                    PIPTIME
000524: 36,3632           03763                                    TIGSAVE
000525: 36,3633           50025                           DSU      BMN
000526: 36,3634           03432                                    TNEWA
000527: 36,3635           75665                                    GETRANS
000528: 36,3636           43345                           DLOAD    DAD
000529: 36,3637           03763                                    TIGSAVE
000530: 36,3640           03432                                    TNEWA
000531: 36,3641           03765                           STORE    TIGSAVEP
000532: 36,3642           77776        180SETUP           EXIT
000533: 36,3643           10754                           CCS      PHASE2
000534: 36,3644           13672                           TCF      NO.9
000535: 36,3645           34737                           CAF      PRIO10


000537: 36,3646           00004                           INHINT
000538: 36,3647           05105                           TC       FINDVAC
000539: 36,3650  E7,1706                                  EBANK=   VG
000540: 36,3650           02713 56067                     2CADR    S40.9                                 #  LAMBERT VTOGAIN
000541:
000542: 36,3652           05340                           TC       2PHSCHNG
000543: 36,3653           00172                           OCT      00172                                 #  2.17SPOT FOR S40.9
000544: 36,3654           10035                           OCT      10035                                 #  HERE AND REREADAC AFTER RESTART
000545:
000546: 36,3655           06042        ENDSTEER           TC       INTPRET
000547: 36,3656           77745                           DLOAD
000548: 36,3657           03765                                    TIGSAVEP
000549: 36,3660           27763                           STOVL    TIGSAVE
000550: 36,3661           01220                                    RN
000551: 36,3662           26323                           STOVL    RINIT
000552: 36,3663           01226                                    VN
000553: 36,3664           02331                           STORE    VINIT
000554: 36,3665           45345        GETRANS            DLOAD    DSU
000555: 36,3666           03631                                    TPASS4
000556: 36,3667           01234                                    PIPTIME
000557: 36,3670           37452                           STCALL   DELLT4
000558: 36,3671           03665                                    QTEMP1
000559:
000560: 36,3672           06042        NO.9               TC       INTPRET
000561: 36,3673           77650                           GOTO
000562: 36,3674           03665                                    QTEMP1
000563: 36,3675           06042        STEERING           TC       INTPRET
000564:
000565: 36,3676           77624                           CALL
000566: 36,3677           75620                                    UPDATEVG
000567: 36,3700           77776                           EXIT
000568:
000569: 36,3701  E7,1515                                  EBANK=   DVCNTR
000570: 36,3701           00004        NSTEER             INHINT
000571: 36,3702           35016                           CA       EBANK7
000572: 36,3703           54003                           TS       EBANK
000573: 36,3704           40076                           CS       FLAGWRD2                              #  CHECK IMPULSE SWITCH.  IT IS SET EITHER
000574: 36,3705           74743                           MASK     IMPULBIT                              #  BY S40.13 IF TBURN<6 SECS OR BY S40.8 IF
000575: 36,3706           10000                           CCS      A                                     #  STEERING IS ALMOST DONE.
000576:
000577: 36,3707           13714                           TCF      +5                                    #  IMPULSW = 0    EXIT
000578: 36,3710           40103                           CS       FLAGWRD7                              #  IMPULSW = 1    WHY?  CHECK IDLEFLAG
000579: 36,3711           74745                           MASK     IDLEFBIT                              #      (IDLEFLAG = 0 --> DVMON ON)
000580: 36,3712           10000                           CCS      A
000581: 36,3713           13716                           TCF      +3                                    #  DVMON ON-->THRUSTING-->IMPULSW VIA S40.8
000582: 36,3714           04635                           TC       POSTJUMP                              #  DVMON OFF-->IMPULSW ON VIA S40.13-->EXIT
000583: 36,3715           65636                           CADR     SERVEXIT
000584:
000585: 36,3716           04674                           TC       IBNKCALL
000586: 36,3717           40166                           CADR     STOPRATE
000587:


000589: 36,3720           05527                           TC       DOWNFLAG                              #  TURN OFF IMPULSW
000590: 36,3721           00044                           ADRES    IMPULSW
000591:
000592: 36,3722           05515                           TC       UPFLAG
000593: 36,3723           00161                           ADRES    IDLEFLAG                              #  TURN OFF DVMON
000594:
000595: 36,3724           00004                           INHINT
000596: 36,3725           00006                           EXTEND
000597: 36,3726           31442                           DCA      TIG
000598: 36,3727           52155                           DXCH     MPAC
000599: 36,3730           00006                           EXTEND
000600: 36,3731           40025                           DCS      TIME2
000601: 36,3732           20155                           DAS      MPAC
000602: 36,3733           07262                           TC       TPAGREE
000603: 36,3734           30155                           CAE      MPAC       +1
000604: 36,3735           03744                           TC       GETDT
000605: 36,3736           05204                           TC       TWIDDLE
000606: 36,3737           03551                           ADRES    ENGOFTSK
000607: 36,3740           05340                           TC       2PHSCHNG
000608: 36,3741           40114                           OCT      40114                                 #  ENGOFTSK (ENGINOFF)
000609: 36,3742           00035                           OCT      00035                                 #  SERVICER--REREADAC
000610: 36,3743           15155                           TCF      ENDOFJOB
000611:
000612: 36,3744           10000        GETDT              CCS      A
000613: 36,3745           13750                           TCF      +3
000614: 36,3746           13750                           TCF      +2
000615: 36,3747           34755                           CAF      ZERO
000616: 36,3750           64753                           AD       ONE
000617: 36,3751           56001                           XCH      L
000618: 36,3752           34755                           CAF      ZERO
000619: 36,3753           53517                           DXCH     TGO
000620: 36,3754           31517                           CA       TGO        +1
000621: 36,3755           00002                           TC       Q
000622:
000623:
000624:                                                                                                  #  ************************************************************************
000625:
000626: 36,3756           00000        5SECDP             OCT      00000                                 #  DON'T MOVE FROM JUST BEFORE 5SEC
000627: 36,3757           00764        5SEC               DEC      500        B-14
000628: 36,3760           04050        V16N40             VN       1640
000629: 36,3761           04125        V16N85B            VN       1685
000630: 36,3762           04123        V1683              VN       1683
000631: 36,3763     4777               SEC01              =        1SEC
000632: 36,3763  36,2057               ACADN85            =        P41TABLE   +2
000633:
000634: 36,3763  E7,1622                                  EBANK=   DELVIMU
000635: 36,3763           03471 74067  ACADN83            2CADR    CALCN83
000636:
000637:                                                                                                  #  *************************************************
000638:


000640:                                                                                                  #  PROGRAM DESCRIPTION S40.1       DATE15NOV66
000641:                                                                                                  #  MOD N02         LOG SECTION  P40-P47
000642:                                                                                                  #  MOD BY ZELDIN AND ADAPTED BY TALAYCO
000643:                                                                                                  #  FUNCTIONAL DESCRIPTION
000644:                                                                                                  #           COMPUTE INITIAL THRUST DIRECTION(UT) AND INITIAL VALUE OF VG
000645:                                                                                                  #           VECTOR(VGTIG).
000646:                                                                                                  #  CALLING SEQUENCE
000647:                                                                                                  #         L CALL
000648:                                                                                                  #       L+1        S40.1
000649:                                                                                                  #  NORMAL EXIT MODE
000650:                                                                                                  #           AT L+2 OF CALLING SEQUENCE (GOTO L+2)  NORMAL RETURN OR
000651:                                                                                                  #           ERROR RETURN IF NOSOFLAG =1
000652:                                                                                                  #  SUBROUTINES CALLED
000653:                                                                                                  #           LEMPREC
000654:                                                                                                  #           INITVEL
000655:                                                                                                  #           CALCGRAV
000656:                                                                                                  #           MIDGIM
000657:                                                                                                  #  ALARM OR ABORT EXIT MODES
000658:                                                                                                  #       L+2 OF CALLING SEQUENCE,UNSOLVABLE CONIC IF NOSOFLAG=1
000659:                                                                                                  #  ERASABLE INITIALIZATION REQUIRED
000660:                                                                                                  #                  WEIGHT/G  ANTICIPATED VEHICLE MASS         DP  B16KGM
000661:                                                                                                  #           XDELVFLG       1=DELTA-V MANEUVER,0=AIMPT STEER
000662:                                                                                                  #            F         THRUST FOR ENGINE USED
000663:                                                                                                  #        IF DELTA-V MANEUVER
000664:                                                                                                  #           DELVSIN   SPECIFIED DELTA-V REQUIRED IN
000665:                                                                                                  #                     INERTIAL COORDS. OF ACTIVE VEHICLE
000666:                                                                                                  #                     AT TIME OF IGNITION                 VECTOR B7M/CS
000667:                                                                                                  #           DELVSAB   MAG. OF DELVSIN                     DP     B7M/CS
000668:                                                                                                  #           RTIG      POSITION AT TIME OF IGNITION       VECTOR B29M
000669:                                                                                                  #           VTIG      VELOCITY AT TIME OF IGNITION       VECTOR B7M/CS
000670:                                                                                                  #        IF AIMPT STEER
000671:                                                                                                  #           TIG       TIME OF IGNITION                    DP     B28CS
000672:                                                                                                  #           RTARG     POSITION TARGET TIME               VECTOR B29M
000673:                                                                                                  #           CSTEER    C FOR STEER LAW                     DP     B2
000674:                                                                                                  #           DLTARG    TARGET TIME-IGNITION TIME          DP     B28CS
000675:                                                                                                  #  OUTPUT
000676:                                                                                                  #        UT           DESIRED THRUST DIRECTION            VECT. B2M/(CS.CS)
000677:                                                                                                  #        VGTIG        INITIAL VALUE OF VELOCITY
000678:                                                                                                  #                     TO BE GAINED (INERT. COORD.)        VECTOR B7M/CS
000679:                                                                                                  #        DELVLVC      VGTIG IN LOC. VERT. COORDS.                B7M/CS
000680:                                                                                                  #           BDT   V REQUIRED AT TIG -V REQUIRED AT (TIG-2SEC)
000681:                                                                                                  #           -GDT  FOR S40.13                                   VECT  B7M/CS
000682:                                                                                                  #        RTIG         CALC IN S40.1B(AIMPT) FOR S40.2,3  VECTOR B29M
000683:                                                                                                  #                     POSITION AT TIME OF IGNITION
000684:                                                                                                  #  DEBRIS      QTEMP1
000685:                                                                                                  #        MPAC, QPRET
000686:                                                                                                  #        PUSHLIST
000687: 14,2347                                           BANK     14
000688: 27,2000                                           SETLOC   P40S1
000689: 27,2000                                           BANK
000690:


000692: 27,2246                                           COUNT*   $$/S40.1
000693: 27,2246           71220        S40.1              STQ      DLOAD
000694: 27,2247           03632                                    QTEMP
000695: 27,2250           03442                                    TIG
000696: 27,2251           03763                           STORE    TIGSAVE
000697: 27,2252           77614        DELVTEST           BOFF
000698: 27,2253           01347                                    XDELVFLG
000699: 27,2254           56336                                    S40.1B
000700: 27,2255           77201        CALCTHET           SETPD    VLOAD
000701: 27,2256           00001                                    0
000702: 27,2257           03650                                    VTIG
000703: 27,2260           02331                           STORE    VINIT
000704: 27,2261           53435                           VXV      UNIT
000705: 27,2262           03642                                    RTIG
000706: 27,2263           27673                           STOVL    UT                                    #  UP IN UT
000707: 27,2264           03642                                    RTIG
000708: 27,2265           02323                           STORE    RINIT
000709: 27,2266           65236                           VSQ      PDDL
000710: 27,2267           00045                                    36D
000711: 27,2270           56205                           DMP      DDV
000712: 27,2271           16412                                    THETACON
000713: 27,2272           41205                           DMP      DMP
000714: 27,2273           03664                                    DELVSAB
000715: 27,2274           01244                                    WEIGHT/G
000716: 27,2275           77671                           DDV
000717: 27,2276           03735                                    F
000718: 27,2277           24017                           STOVL    14D
000719: 27,2300           03656                                    DELVSIN
000720:
000721: 27,2301           74241                           DOT      VXSC
000722: 27,2302           03673                                    UT
000723: 27,2303           03673                                    UT
000724: 27,2304           41552                           VSL2     PUSH                                  #  (DELTAV.UP)UP SCALED AT 2(+7) P.D.L. 0
000725: 27,2305           65245                           BVSU     PDDL                                  #  DELTA VP SCALED AT 2(+7) P.D.L. 6
000726: 27,2306           03656                                    DELVSIN
000727: 27,2307           00017                                    14D
000728: 27,2310           63356                           SIN      PDVL
000729: 27,2311           00007                                    6D
000730: 27,2312           53435                           VXV      UNIT
000731: 27,2313           03673                                    UT
000732: 27,2314           45561                           VXSC     STADR
000733: 27,2315           50076                           STOVL    VGTIG                                 #  UNIT(VPXUP)SIN(THETAT/2) IN VGTIG.
000734: 27,2316           65256                           UNIT     PDDL                                  #  UNIT(DELTA VP) IN P.D.L. 6
000735: 27,2317           00017                                    14D
000736: 27,2320           74346                           COS      VXSC
000737: 27,2321           74255                           VAD      VXSC
000738: 27,2322           03701                                    VGTIG
000739: 27,2323           00045                                    36D
000740: 27,2324           53352                           VSL2     VAD
000741: 27,2325           77626                           STADR


000743: 27,2326           74076                           STORE    VGTIG                                 #  VG IGNITION SCALED AT 2(+7)M/CS
000744:
000745: 27,2327           77656                           UNIT
000746: 27,2330           27673                           STOVL    UT                                    #  THRUST DIRECTION SCALED AT 2(+1)
000747: 27,2331           03701                                    VGTIG
000748: 27,2332           45006                           PUSH     CALL
000749: 27,2333           15741                                    GET.LVC                               #  VGTIG IN LV COOR AT 2(+7) M/CS IN DELVLVC
000750: 27,2334           77650                           GOTO
000751: 27,2335           03632                                    QTEMP
000752: 27,2336           77745        S40.1B             DLOAD
000753: 27,2337           03442                                    TIG
000754: 27,2340           00041                           STORE    TDEC1
000755: 27,2341           77621                           BDSU
000756: 27,2342           03631                                    TPASS4
000757: 27,2343           37452                           STCALL   DELLT4                                #  INTERCEPT TIME - TIG.
000758: 27,2344           27056                                    LEMPREC
000759: 27,2345           40375                           VLOAD    SETPD                                 #  LOAD STATE VECTOR AT TIG FOR INITVEL.
000760: 27,2346           00001                                    RATT
000761: 27,2347           00001                                    0
000762: 27,2350           03642                           STORE    RTIG
000763: 27,2351           02323                           STORE    RINIT
000764: 27,2352           77656                           UNIT
000765: 27,2353           27537                           STOVL    UNIT/R/
000766: 27,2354           00007                                    VATT
000767: 27,2355           03650                           STORE    VTIG
000768: 27,2356           02331                           STORE    VINIT
000769: 27,2357           65345                           DLOAD    PDDL                                  #  NUMIT = 0
000770: 27,2360           06520                                    ZEROVECS
000771: 27,2361           16406                                    EPS1
000772: 27,2362           43214                           BOFF     DAD
000773: 27,2363           03745                                    NORMSW
000774: 27,2364           56366                                    SMALLEPS
000775: 27,2365           16410                                    EPS2                                  #  EPSILON4 = 10 DEGREES OR 45 DEGREES.
000776: 27,2366           66006        SMALLEPS           PUSH     SXA,1
000777: 27,2367           02776                                    RTX1
000778: 27,2370           45134                           SXA,2    CALL
000779: 27,2371           02777                                    RTX2
000780: 27,2372           22000                                    INITVEL
000781: 27,2373           41575                           VLOAD    PUSH
000782: 27,2374           02366                                    DELVEET3                              #  VGTIG = VR - VN.
000783: 27,2375           03701                           STORE    VGTIG
000784: 27,2376           77656                           UNIT                                           #  UT = UNIT (VGTIG)
000785: 27,2377           17673                           STODL    UT
000786: 27,2400           00045                                    36D
000787: 27,2401           37664                           STCALL   VGDISP                                #  CONVERT VGTIG (IN PUSHLIST ) TO LOCAL
000788: 27,2402           15741                                    GET.LVC                               #  VERTICAL COORDINATES.
000789: 27,2403           77650                           GOTO
000790: 27,2404           03632                                    QTEMP
000791:
000792: 27,2405           00707 03434  EPS1               2DEC*    2.777777778 E-2*                       #  10 DEGREES AT 1 REVOLUTION.
000793:


000795: 27,2407           03070 34344  EPS2               2DEC*    9.722222222 E-2*                       #  35 DEGREES AT 1 REVOLUTION.
000796:
000797: 27,2411           00024 13714  THETACON           2DEC     .31830989  B-8
000798:


000800:                                                                                                  #  SUBROUTINE NAME: S40.2,3        MOD. NO. 3 DATE: APRIL 4, 1967
000801:
000802:                                                                                                  #  MODIFICATION BY: JONATHAN D. ADDELSTON (ADAMS ASSOCIATES)
000803:
000804:                                                                                                  #  MOD. NO. 4:  JULY 18, 1967:  PETER ADLER (MIT/IL)
000805:
000806:                                                                                                  #  MOD. NO. 5:  OCTOBER 18, 1967:  PETER ADLER (MIT/IL)
000807:
000808:                                                                                                  #  ORIGINALLY BY: SAYDEAN ZELDIN (MIT INSTRUMENTATION LAB) AND RICHARD TALAYCO (SYSTEM DEVELOPMENT CORP)
000809:
000810:                                                                                                  #  S40.2,3 COMPUTES "POINTVSM" WHICH IS THE HALF-UNIT DESIRED THRUST VECTOR IN STABLE-MEMBER COORDINATES FROM "UT"
000811:                                                                                                  #  WHICH IS THE SAME VECTOR IN REFERENCE COORDINATES.  IT DETERMINES THE CORRECT VALUES FOR "SCAXIS" USING THE +X
000812:                                                                                                  #  AXIS FOR DPS, APS, AND RCS BURNS.  THE "WINGS-LEVEL HEADS-UP" LM ORIENTATION IS THEN COMPUTED IN REFERENCE
000813:                                                                                                  #  COORDINATES.  THESE VECTORS ALSO DEFINE THE "PREFERRED IMU ORIENTATION".  UPON COMPLETION OF THIS CALCULATION,
000814:                                                                                                  #  THE "PREFERRED ATTITUDE COMPUTED" FLAG IS SET (PFRATFLG).
000815:
000816:
000817:                                                                                                  #  CALLING SEQUENCE:
000818:                                                                                                  #                                          L        CALL                   INTERPRETIVE CALL.
000819:                                                                                                  #                                          L +1            S40.2,3
000820:                                                                                                  #                                          L +2    (RETURN)                GIMBAL ANGLE VECTOR IN MPAC.
000821:
000822:                                                                                                  #  SUBROUTINES CALLED:  NONE.
000823:
000824:                                                                                                  #  NORMAL RETURN:  L +2 (SEE CALLING SEQUENCE ABOVE).
000825:
000826:                                                                                                  #  ALARM/ABORT MODES:  NONE.
000827:
000828:                                                                                                  #  INPUT:
000829:
000830:                                                                                                  #           1. REFSMMAT            MATRIX FROM REFERENCE TO STABLE-MEMBER COORDINATES SCALED AT 2.
000831:                                                                                                  #           2. UT                  HALF-UNIT DESIRED THRUST DIRECTION.
000832:                                                                                                  #           3. RTIG                POSITION AT TIG IN REFERENCE COORDINATES.
000833:
000834:                                                                                                  #  OUTPUT:
000835:
000836:                                                                                                  #           1. : XSCREF :          WINGS-LEVEL HEADS-UP LM ORIENTATION
000837:                                                                                                  #              : YSCREF :          IN REFERENCE COORDINATES
000838:                                                                                                  #              : ZSCREF :          (PREFERRED IMU ORIENTATION).
000839:                                                                                                  #           2. POINTVSM            DESIRED THRUST DIRECTION IN STABLE-MEMBER COORDINATES.
000840:                                                                                                  #           3. SCAXIS              HALF-UNIT OF AXIS TO ALIGN IN STABLE-MEMBER COORDINATES.
000841:                                                                                                  #           4. PFRATFLG            INTERPRETIVE FLAG.  ON:  PREFERRED ORIENTATION COMPUTED; OFF:  NOT COMPUTED.
000842:
000843:                                                                                                  #  DEBRIS:  NONE.
000844:


000846: 27,2413                                           COUNT*   $$/S40.2
000847: 27,2413           77775        S40.2,3            VLOAD                                          #  UT: DESIRED THRUST DIRECTION (HALF-UNIT)
000848: 27,2414           03673                                    UT                                    #  (PUT INTO TOP OF PUSH-DOWN-LIST.)
000849: 27,2415           76521                           MXV      VSL1                                  #  TRANSFORM THRUST DIRECTION TO STABLE-
000850: 27,2416           01732                                    REFSMMAT                              #  MEMBER FROM REFERENCE COORDS (RESCALE).
000851: 27,2417           27773                           STOVL    POINTVSM                              #  SAVE FOR "VECPOINT" ROUTINE (LEMMANU).
000852: 27,2420           06516                                    UNITX                                 #  SCAXIS SET TO +X, FOR P40 AND P42 AND
000853: 27,2421           27765                           STOVL    SCAXIS                                #  FOR P41 IF RCS NOT -X,+Y,-Y,+Z,-Z.
000854:
000855: 27,2422           03673                                    UT                                    #  ASSUME +X BURN ALWAYS, EVEN FOR RCS.
000856: 27,2423           03607        PLUSX              STORE    XSCREF                                #  XSCREF = UT (DESIRED THRUST DIRECTION.)
000857: 27,2424           53435                           VXV      UNIT                                  #  RTIG = POSITION AT TIME-OF-IGNITION.
000858: 27,2425           03642                                    RTIG                                  #  YSCREF = UNIT(UT X RTIG)
000859: 27,2426           46125                           PDDL     BHIZ
000860: 27,2427           00045                                    36D                                   #  TEST MAGNITUDE OF UT X RTIG
000861: 27,2430           56441                                    FIXY                                  #  IF SMALL, USE UT X VTIG AS YSC
000862: 27,2431           45575        STORY              VLOAD    STADR
000863: 27,2432           74162                           STORE    YSCREF
000864: 27,2433           76435                           VXV      VSL1                                  #  COMPUTE (YSCREF X XSCREF),BUT FOR A
000865: 27,2434           03607                                    XSCREF                                #  RIGHT HANDED SYSTEM, NEED (X CROSS Y).
000866: 27,2435           77676                           VCOMP                                          #  ZSCREF = - (YSCREF X XSCREF)
000867: 27,2436           03623                           STORE    ZSCREF                                #         = + (XSCREF X YSCREF)
000868:
000869: 27,2437           43414                           SET      RVQ
000870: 27,2440           01073                                    PFRATFLG
000871: 27,2441           47375        FIXY               VLOAD    VXV                                   #  IN THIS CASE,
000872: 27,2442           03607                                    XSCREF                                #  YSCREF = UNIT(XSCREF X VTIG)
000873: 27,2443           03650                                    VTIG
000874: 27,2444           41456                           UNIT     PUSH
000875: 27,2445           77650                           GOTO
000876: 27,2446           56431                                    STORY
000877:


000879:                                                                                                  #  SUBROUTINE S40.8
000880:
000881:                                                                                                  #  MODIFIED APRIL 3, 1968  BY  PETER ADLER   MIT/IL
000882:
000883:                                                                                                  #  DESCRIPTION
000884:
000885:                                                                                                  #       S40.8 UPDATES THE VELOCITY-TO-BE-GAINED VECTOR, VG, (AND FOR LAMBERT TARGETTED BURNS ALSO EXTRAPOLATES VG
000886:                                                                                                  #  USING THE BDT VECTOR)  COMPUTES THE TIME FOR ISSUING THE ENGINE OFF COMMAND, TGO, AND CALLS THE ROUTINE
000887:                                                                                                  #  "FINDCDUW", WHICH GENERATES THE STEERING COMMANDS FOR THE DAP.
000888:
000889:                                                                                                  #  CALLING SEQUENCE
000890:
000891:                                                                                                  #  L-1      CALL
000892:                                                                                                  #  L               S40.8
000893:                                                                                                  #  L+1                      INTERPRETIVE RETURN
000894:
000895:                                                                                                  #  ALARM
000896:
000897:                                                                                                  #       IF VG . DELVREF IS NEGATIVE (VG AND DELVREF OVER 90 DEGREES APART), BYPASS TGO AND STEERING COMPUTATIONS
000898:                                                                                                  #  AND SET ALARM 1407.  RETURN TO CALLER NORMALLY.
000899:
000900:                                                                                                  #  INPUT AND INITIALIZATION
000901:
000902:                                                                                                  #  VGPREV          REFERENCE       2(7) M/CS
000903:                                                                                                  #  DELVREF         REFERENCE       2(7) M/CS
000904:                                                                                                  #  BDT             REFERENCE       2(7) M/CS
000905:                                                                                                  #  TDECAY          TAIL-OFF TIME   2(28)  CS
000906:                                                                                                  #  XDELVFLG        1 = EXTERNAL DELTA-V;  0 = LAMBERT (AIMPOINT)
000907:                                                                                                  #  STEERSW         1 = DO STEERING AND TGO COMPUTATIONS; 0 = VG UPDATE ONLY
000908:                                                                                                  #  FIRSTFLG        1 = GONE TO LAMBERT AT LEAST ONCE;  0 = HAVEN'T GONE TO LAMBERT YET
000909:
000910:                                                                                                  #  NOTE:  VGTIG EQUALS VGPREV
000911:
000912:                                                                                                  #  OUTPUT
000913:
000914:                                                                                                  #  STEERSW         SEE INPUT
000915:                                                                                                  #  IMPULSW         1 = ENGINE OFF IN TGO CENTISECONDS;  0 = CONTINUE BURN
000916:                                                                                                  #  TGO             TIME TO CUT-OFF 2(28)   CS
000917:                                                                                                  #  SEE FINDCDUW FOR STEERING OUTPUTS.
000918:
000919:                                                                                                  #  SUBROUTINE CALLED
000920:
000921:                                                                                                  #       FINDCDUW
000922:
000923:                                                                                                  #  DEBRIS
000924:
000925:                                                                                                  #       MPACS, PUSHLIST
000926:
000927: 27,2447                                           COUNT*   $$/S40.8


000929: 27,2447           77614        S40.8              BOF                                            #  GENERATE VR IF NOT EXTERNAL DELTA-V BURN
000930: 27,2450           01347                                    XDELVFLG
000931: 27,2451           56735                                    RASTEER1
000932: 27,2452           52375                           VLOAD    VSU
000933: 27,2453           03701                                    VGPREV
000934: 27,2454           03527                                    DELVREF
000935: 27,2455           03707        VGAIN*             STORE    VG                                    #  VELOCITY TO BE GAINED SCALED AT (7)M/CS
000936: 27,2456           76521                           MXV      VSL1
000937: 27,2457           01732                                    REFSMMAT
000938: 27,2460           03253                           STORE    UNFC/2
000939: 27,2461           51575        BDTOK              VLOAD    ABVAL
000940: 27,2462           03707                                    VG
000941: 27,2463           03664                           STORE    VGDISP
000942: 27,2464           77776                           EXIT
000943: 27,2465           05364                           TC       PHASCHNG
000944: 27,2466           10035                           OCT      10035
000945: 27,2467           06042                           TC       INTPRET
000946: 27,2470           77201        TGOCALC            SETPD    VLOAD
000947: 27,2471           00001                                    0
000948: 27,2472           03707                                    VG
000949: 27,2473           27701                           STOVL    VGPREV
000950: 27,2474           03527                                    DELVREF
000951: 27,2475           57414                           BOFF     VCOMP
000952: 27,2476           01344                                    STEERSW
000953: 27,2477           00052                                    QPRET
000954: 27,2500           77656                           UNIT
000955: 27,2501           41441                           DOT      PUSH
000956: 27,2502           03707                                    VG
000957: 27,2503           56244                           BPL      DDV
000958: 27,2504           56532                                    ALARMIT                               #  DELV IS MORE THAN 90 DEGREES FROM VG.
000959: 27,2505           03743                                    VEX
000960: 27,2506           41215                           DAD      DMP
000961: 27,2507           06516                                    DPHALF
000962: 27,2510           56261                           SR       DDV
000963: 27,2511           20613                                    10D
000964: 27,2512           00045                                    36D
000965: 27,2513           43205                           DMP      DAD
000966: 27,2514           16541                                    -FOURDT
000967: 27,2515           03741                                    TDECAY
000968: 27,2516           03517                           STORE    TGO
000969: 27,2517           77615                           DAD
000970: 27,2520           01234                                    PIPTIME
000971: 27,2521           17442                           STODL    TIG
000972: 27,2522           03517                                    TGO
000973: 27,2523           51025                           DSU      BPL
000974: 27,2524           16543                                    FOURSECS                              #  400 CS
000975: 27,2525           61072                                    FINDCDUW   -2
000976: 27,2526           43014                           SET      CLRGO
000977: 27,2527           01066                                    IMPULSW
000978: 27,2530           01224                                    STEERSW
000979: 27,2531           00052                                    QPRET
000980:


000982: 27,2532           77776        ALARMIT            EXIT
000983: 27,2533           05600                           TC       ALARM
000984: 27,2534           01407                           OCT      01407
000985: 27,2535           06042                           TC       INTPRET
000986: 27,2536           77650                           GOTO
000987: 27,2537           61072                                    FINDCDUW   -2
000988:
000989: 27,2540           77715 77777  -FOURDT            2DEC     -800       B-18                       #  -4 (200 CS.)  B (-18)
000990:
000991: 27,2542           00000 00620  FOURSECS           2DEC     400        B-28                       #  400 CS SCALED AT 2(+28) CS
000992:
000993: 27,2544  E7,1742               2VEXHUST           =        VEX
000994:


000996:                                                                                                  #  NAME     S40.13 - TIMEBURN
000997:                                                                                                  #  FUNCTION        (1) DETERMINE WHETHER A GIVEN COMBINATION OF VELOCITY TO
000998:                                                                                                  #                  BE GAINED AND ENGINE CHOICE RESULT IN A BURN TIME
000999:                                                                                                  #                  SUFFICIENT TO ALLOW STEERING AT THE VEHICLE DURING THE
001000:                                                                                                  #                  BURN
001001:                                                                                                  #                  (2) THE MAGNITUDE OF THE RESULTING BURN TIME -- IF IT
001002:                                                                                                  #                  IS SHORT --  AND THE ASSOCIATED TIME OF THE ENGINE OFF
001003:                                                                                                  #                  SIGNAL
001004:                                                                                                  #  CALLING SEQUENCE  VIA FINDVAC AS A NEW JOB
001005:                                                                                                  #  INPUT           VGTIG VELOCITY TO BE GAINED VECTOR (METERS/CS) AT +7
001006:                                                                                                  #                  WEIGHT/G MASS OF VEHICLE IN KGM AT +16
001007:                                                                                                  #                  F  APS ENGINE THRUST IN M.NEWTONS AT +7
001008:                                                                                                  #                  AND ALSO FOR RCS ENGINE
001009:                                                                                                  #                  MDOT RATE OF DECREASE OF VEHICLE MASS DURING ENGINE
001010:                                                                                                  #                  BURN IN KILOGRAMS/CS  AT +3 . THIS SCALING MAY
001011:                                                                                                  #                  REQUIRE MODIFICATION FOR SATURN BURNS.
001012:                                                                                                  #           ENG1FLAG     SWITCH TO DECIDE WHETHER APS OR DPS ENGINE IS USED
001013:                                                                                                  #                   =0   DPS
001014:                                                                                                  #                   =1   APS
001015:                                                                                                  #  OUTPUT          IMPULSW  ZERO FOR STEERING
001016:                                                                                                  #                           ONE FOR ATTITUDE HOLD
001017:                                                                                                  #                  NOTHROTL  ZERO FOR THROTTLING
001018:                                                                                                  #                            ONE  TO INHIBIT THROTTLING
001019:                                                                                                  #                  TGO  TIME TO BURN IN CS
001020:                                                                                                  #           THE QUANTITY M.NEWTON = 10000 NEWTONS WILL BE USED TO EXPRESS
001021:                                                                                                  #                  FORCE
001022:
001023: 27,2544  E7,1516                                  EBANK=   TGO
001024: 27,2544                                           COUNT*   $$/40.13
001025: 27,2544           06042        S40.13             TC       INTPRET
001026: 27,2545           43001                           SETPD    CLEAR
001027: 27,2546           00001                                    00D
001028: 27,2547           01266                                    IMPULSW                               #  ASSUME NO STEERING UNTIL FOUND OTHERWISE
001029: 27,2550           51575                           VLOAD    ABVAL
001030: 27,2551           03701                                    VGTIG                                 #  VELOCITY TO BE GAINED AT +7
001031: 27,2552           41325                           PDDL     DMP                                   #  00D = MAG OF VGTIG AT +7
001032: 27,2553           21000                                    4SEC(17)                              #  CORRECT VG FOR 4 SECS OF 2 JET ULLAGE
001033: 27,2554           34021                                    FRCS2
001034: 27,2555           72471                           DDV      SL1                                   #  SCALE
001035: 27,2556           01244                                    WEIGHT/G
001036: 27,2557           41421                           BDSU     PUSH
001037: 27,2560           43014                           BOFF     SET
001038: 27,2561           05342                                    APSFLAG
001039: 27,2562           56632                                    S40.13D                               #  FOR DPS ENGINE
001040: 27,2563           02463                                    NOTHROTL
001041: 27,2564           56345                           DLOAD    DDV                                   #  00D = MAG OF VGTIG CORRECTED
001042: 27,2565           16001                                    K1VAL                                 #  M.NEWTONS-CS AT +24
001043: 27,2566           01244                                    WEIGHT/G
001044: 27,2567           50021                           BDSU     BMN


001046: 27,2570           00001                                    00D
001047: 27,2571           56614                                    S40.131                               #  TGO LESS THAN 100 CS
001048: 27,2572           41325                           PDDL     DMP                                   #  02D = TEMP1 AT +7
001049: 27,2573           03737                                    MDOT
001050:
001051:                                                                                                  #  MDOT REPRESENTS THE RATE OF DECREASE OF VEHICLE MASS DURING ENGINE
001052:                                                                                                  #  BURN IN KILOGRAMS/CS .  WHEN  SATURN IS USED , THE SCALING MAY
001053:                                                                                                  #  REQUIRE ADJUSTMENT
001054:
001055: 27,2574           16704                                    3.5SEC                                #  350 CS AT +14
001056: 27,2575           65221                           BDSU     PDDL
001057: 27,2576           01244                                    WEIGHT/G
001058: 27,2577           03735                                    F
001059: 27,2600           60405                           DMP      SR2                                   #  SCALE
001060: 27,2601           16706                                    5SECS
001061: 27,2602           41471                           DDV      PUSH                                  #  04D = TEMP2
001062: 27,2603           51021                           BDSU     BPL
001063: 27,2604           00003                                    02D
001064: 27,2605           56632                                    S40.13D
001065: 27,2606           55345                           DLOAD    BDDV
001066: 27,2607           43205                           DMP      DAD
001067: 27,2610           16706                                    5SECS
001068: 27,2611           16702                                    1SEC2D                                #  100 CS AT +14
001069: 27,2612           77650                           GOTO
001070: 27,2613           56622                                    S40.132
001071: 27,2614           41345        S40.131            DLOAD    DMP
001072: 27,2615           01244                                    WEIGHT/G
001073: 27,2616           41542                           SR1      PUSH
001074: 27,2617           56215                           DAD      DDV
001075: 27,2620           16003                                    K2VAL                                 #  M.NEWTON CS AT +24
001076: 27,2621           16005                                    K3VAL                                 #  M.NEWTON CS AT +10
001077: 27,2622           77414        S40.132            SET      EXIT
001078: 27,2623           01066                                    IMPULSW
001079: 27,2624           07262        S40.132*           TC       TPAGREE
001080: 27,2625           30154                           CA       MPAC
001081: 27,2626           56001                           XCH      L
001082: 27,2627           34755                           CA       ZERO
001083: 27,2630           53517                           DXCH     TGO
001084: 27,2631           12654                           TCF      S40.134
001085:
001086: 27,2632           41345        S40.13D            DLOAD    DMP                                   #  FOR DPS ENGINE
001087: 27,2633           00001                                    00D
001088: 27,2634           01244                                    WEIGHT/G
001089: 27,2635           43006                           PUSH     BON
001090: 27,2636           05302                                    APSFLAG
001091: 27,2637           56675                                    APSTGO
001092: 27,2640           43071                           DDV      CLEAR
001093: 27,2641           16007                                    S40.136
001094: 27,2642           02663                                    NOTHROTL
001095: 27,2643           41400                           BOV      PUSH


001097: 27,2644           56657                                    S40.130V
001098: 27,2645           51025        S40.137            DSU      BPL
001099: 27,2646           16710                                    6SEC                                  #  600.0 CS AT +14
001100: 27,2647           56665                                    S40.138
001101: 27,2650           52015                           DAD      GOTO
001102: 27,2651           16710                                    6SEC
001103: 27,2652           56622                                    S40.132
001104: 27,2653           77776        S40.133            EXIT
001105: 27,2654           05364        S40.134            TC       PHASCHNG
001106: 27,2655           00003                           OCT      00003
001107: 27,2656           05155                           TC       ENDOFJOB
001108: 27,2657           40545        S40.130V           DLOAD    SR4                                   #  RECOMPUTE TGO IN TIME2 UNITS
001109: 27,2660           77671                           DDV
001110: 27,2661           16011                                    S40.136_                              #  S40.136 SHIFTED LEFT 10
001111: 27,2662           03517                           STORE    TGO
001112: 27,2663           77776                           EXIT
001113: 27,2664           12654                           TCF      S40.134                               #  REJOIN COMMON CODING FOR RESTART PROTECT
001114:
001115: 27,2665           51025        S40.138            DSU      BPL
001116: 27,2666           16712                                    89SECS
001117: 27,2667           56672                                    STORETGO
001118: 27,2670           77614                           SET
001119: 27,2671           02463                                    NOTHROTL
001120: 27,2672           77745        STORETGO           DLOAD                                          #  LOAD TGO AT 2(14)
001121: 27,2673           77776                           EXIT
001122: 27,2674           12624                           TCF      S40.132*
001123:
001124: 27,2675           62471        APSTGO             DDV      SL2
001125: 27,2676           34007                                    FAPS
001126: 27,2677           77650                           GOTO
001127: 27,2700           56673                                    STORETGO   +1
001128: 27,2701           00144 00000  1SEC2D             2DEC     100.0      B-14                       #  100.0 CS AT +14
001129:
001130: 27,2703           01274 00000  3.5SEC             2DEC     350.0      B-13                       #  350 CS AT +13
001131:
001132: 27,2705           00764 00000  5SECS              2DEC     500.0      B-14                       #  500.0 CS AT +14
001133:
001134: 27,2707           01130 00000  6SEC               2DEC     600.0      B-14                       #  600.0 CS AT +14
001135:
001136: 27,2711           21304 00000  89SECS             2DEC     8900.0     B-14
001137:
001138:                                                                                                  #  FUNCTION    (1) GENERATES REQUIRED VELOCITY AND VELOCITY-TO-BE-GAINED
001139:                                                                                                  #              VECTORS FOR USE DURING AIMPOINT MANEUVERS EVERY TWO
001140:                                                                                                  #              COMPUTATION CYCLES (4 SECONDS).
001141:                                                                                                  #              (2) UPDATES THE B VECTOR WHICH IS USED IN THE FINAL
001142:                                                                                                  #              CALCULATION OF EXTRAPOLATING THE VELOCITY-TO-BE-GAINED
001143:                                                                                                  #              THROUGH ONE 2-SECOND INTERVAL INTO THE FUTURE.
001144:                                                                                                  #  CALLING SEQ VIA FINDVAC AS NEW JOB.


001146:                                                                                                  #  INPUT       RN       - ACTIVE VEHICLE RADIUS VECTOR IN METERS AT +29.
001147:                                                                                                  #              VN       - ACTIVE VEHICLE VELOCITY VECTOR IN METERS/CS AT +7
001148:                                                                                                  #              VRPREV   - LAST COMPUTED VELOCITY REQUIRED VECTOR IN
001149:                                                                                                  #                         METERS/CS AT +7.
001150:                                                                                                  #              TIG      - TIME OF IGNITION IN CS AT +28.
001151:                                                                                                  #              DLTARG   - COMPUTATION CYCLE INTERVAL = 200 CS AT +28.
001152:                                                                                                  #              PIPTIME  - TIME OF RN AND VN IN CS AT +28.
001153:                                                                                                  #              GDT/2    - HALF OF VELOCITY GAINED IN DELTA T TIME DUE TO
001154:                                                                                                  #                         ACCERERATION OF GRAVITY IN METERS/CS AT +7.
001155:                                                                                                  #              DELVREF  - CHANGE IN VELOCITY DURING LAST 2 SEC IN
001156:                                                                                                  #                         METERS/CS AT +7.
001157:                                                                                                  #  OUTPUT      VGPREV   - VELOCITY TO BE GAINED VECTOR IN METERS/CS AT +7.
001158:                                                                                                  #              VGDISP   - MAG OF VGPREV FOR DISPLAY PURPOSES.
001159:                                                                                                  #              VRPREV   - VELOCITY REQUIRED VECTOR IN METERS/CS AT +7.
001160:                                                                                                  #              BDT      - B VECTOR IN METERS/CS AT +7.
001161:                                                                                                  #  SUBROUTINES USED  -  INITVEL
001162: 27,2713  E7,1700                                  EBANK=   VGPREV
001163: 27,2713                                           COUNT*   $$/S40.9
001164: 27,2713           06042        S40.9              TC       INTPRET
001165: 27,2714           77601                           SETPD
001166: 27,2715           00001                                    00D
001167: 27,2716           71214                           SET      DLOAD
001168: 27,2717           01072                                    AVFLAG                                #  SET AVFLAG FOR LEM ACTIVE
001169: 27,2720           06520                                    HI6ZEROS
001170: 27,2721           77725                           PDDL
001171: 27,2722           16406                                    EPS1
001172: 27,2723           43214                           BOFF     DAD                                   #  EPSILON4 = 10 OR 45 DEGREES.
001173: 27,2724           03745                                    NORMSW
001174: 27,2725           56727                                    EPSSMALL
001175: 27,2726           16410                                    EPS2
001176: 27,2727           45006        EPSSMALL           PUSH     CALL
001177: 27,2730           22002                                    HAVEGUES
001178: 27,2731           77776        ENDS40.9           EXIT
001179: 27,2732           05364                           TC       PHASCHNG
001180: 27,2733           00002                           OCT      2
001181: 27,2734           15155                           TCF      ENDOFJOB
001182:
001183:
001184: 27,2735           51575        RASTEER1           VLOAD    ABVAL
001185: 27,2736           01220                                    RN
001186: 27,2737           53744                           LXC,2    SL*
001187: 27,2740           02777                                    RTX2
001188: 27,2741           57576                                    0,2
001189: 27,2742           27715                           STOVL    RMAG
001190: 27,2743           03444                                    RTARG
001191: 27,2744           47051                           VSU      RTB
001192: 27,2745           01220                                    RN
001193: 27,2746           21725                                    NORMUNX1
001194: 27,2747           17656                           STODL    IC
001195: 27,2750           00045                                    36D                                   #  C(36D) = ABVAL(C)


001197: 27,2751           53674                           XAD,2    SL*
001198: 27,2752           00046                                    X1
001199: 27,2753           57576                                    0,2
001200: 27,2754           00037                           STORE    30D
001201: 27,2755           41301                           NORM     DMP
001202: 27,2756           00050                                    X2
001203: 27,2757           03715                                    RMAG
001204: 27,2760           57101                           NORM     XAD,2
001205: 27,2761           00047                                    X1
001206: 27,2762           00046                                    X1
001207: 27,2763           77734                           SXA,2
001208: 27,2764           03766                                    MUSCALE
001209: 27,2765           17725                           STODL    R1C                                   #                          2(+58 -X)
001210: 27,2766           00037                                    30D
001211: 27,2767           65342                           SR1      PDDL
001212: 27,2770           03715                                    RMAG
001213: 27,2771           65342                           SR1      PDDL
001214: 27,2772           03723                                    RTMAG
001215: 27,2773           43342                           SR1      DAD
001216: 27,2774           45415                           DAD      STADR
001217: 27,2775           74044                           STORE    SS                                    #  SS = (R1 + R2 +C )/2
001218: 27,2776           41225                           DSU      DMP
001219: 27,2777           00037                                    30D
001220: 27,3000           03721                                    MU/A
001221: 27,3001           77621                           BDSU
001222: 27,3002           03717                                    MUASTEER
001223: 27,3003           45325                           PDDL     DSU
001224: 27,3004           03733                                    SS
001225: 27,3005           03715                                    RMAG
001226: 27,3006           70501                           NORM     SR1
001227: 27,3007           00047                                    X1
001228: 27,3010           41271                           DDV      DMP
001229: 27,3011           03725                                    R1C
001230: 27,3012           53664                           XSU,2    SL*
001231: 27,3013           00046                                    X1
001232: 27,3014           57575                                    1,2
001233: 27,3015           77754                           LXA,2
001234: 27,3016           03766                                    MUSCALE
001235: 27,3017           75366                           SQRT     SIGN
001236: 27,3020           02673                                    GEOMSGN
001237: 27,3021           00041                           STORE    32D                                   #  + OR - A
001238: 27,3022           41345                           DLOAD    DMP
001239: 27,3023           03733                                    SS
001240: 27,3024           03721                                    MU/A
001241: 27,3025           77621                           BDSU
001242: 27,3026           03717                                    MUASTEER
001243: 27,3027           45325                           PDDL     DSU
001244: 27,3030           03733                                    SS
001245: 27,3031           03723                                    RTMAG
001246: 27,3032           70501                           NORM     SR1


001248: 27,3033           00047                                    X1
001249: 27,3034           41271                           DDV      DMP
001250: 27,3035           03725                                    R1C
001251: 27,3036           53664                           XSU,2    SL*
001252: 27,3037           00046                                    X1
001253: 27,3040           57575                                    1,2
001254: 27,3041           65366                           SQRT     PDDL                                  #  -B (NO SIGN)
001255: 27,3042           03733                                    SS
001256: 27,3043           56225                           DSU      DDV
001257: 27,3044           00037                                    30D
001258: 27,3045           03733                                    SS
001259: 27,3046           41566                           SQRT     PUSH
001260: 27,3047           67542                           SR1      ASIN
001261: 27,3050           65205                           DMP      PDDL
001262: 27,3051           17222                                    2PI+3
001263: 27,3052           56325                           PDDL     DDV
001264: 27,3053           00037                                    30D
001265: 27,3054           03733                                    SS
001266: 27,3055           77600                           BOV
001267: 27,3056           57057                                    +1
001268: 27,3057           41366                           SQRT     DMP
001269: 27,3060           44242                           SR3      BDSU
001270: 27,3061           65365                           SIGN     PDDL
001271: 27,3062           02673                                    GEOMSGN
001272: 27,3063           17222                                    2PI+3
001273: 27,3064           45302                           SR2      DSU
001274: 27,3065           65205                           DMP      PDDL
001275: 27,3066           03733                                    SS
001276: 27,3067           03733                                    SS
001277: 27,3070           75442                           SR3      SQRT
001278: 27,3071           77605                           DMP
001279: 27,3072           52525                           PDDL     SL3
001280: 27,3073           03717                                    MUASTEER
001281: 27,3074           55366                           SQRT     BDDV
001282: 27,3075           43225                           DSU      DAD
001283: 27,3076           03631                                    TPASS4
001284: 27,3077           01234                                    PIPTIME
001285: 27,3100           14037                           STODL    30D
001286: 27,3101           77765                           SIGN
001287: 27,3102           00037                                    30D                                   #  B WITH SIGN
001288: 27,3103           00037                           STORE    30D
001289: 27,3104           77214                           BON      VLOAD
001290: 27,3105           03705                                    NORMSW
001291: 27,3106           57127                                    180MESS
001292: 27,3107           03656                                    IC
001293: 27,3110           53451                           VSU      UNIT
001294: 27,3111           03537                                    UNIT/R/
001295: 27,3112           63361                           VXSC     PDVL
001296: 27,3113           00037                                    30D
001297: 27,3114           03656                                    IC


001299: 27,3115           53455                           VAD      UNIT
001300: 27,3116           03537                                    UNIT/R/
001301: 27,3117           53361        GETVRVG1           VXSC     VAD
001302: 27,3120           00041                                    32D
001303: 27,3121           53744        GETVRVG2           LXC,2    VSR*
001304: 27,3122           02777                                    RTX2
001305: 27,3123           57177                                    0          -1,2
001306: 27,3124           02337                           STORE    VIPRIME
001307: 27,3125           77650                           GOTO
001308: 27,3126           57172                                    ASTREND    -2
001309: 27,3127           50375        180MESS            VLOAD    DOT
001310: 27,3130           03656                                    IC
001311: 27,3131           03537                                    UNIT/R/
001312: 27,3132           77240                           BMN      VLOAD
001313: 27,3133           57152                                    NEGPROD
001314: 27,3134           03656                                    IC
001315: 27,3135           63362                           VSR1     PDVL
001316: 27,3136           03537                                    UNIT/R/
001317: 27,3137           53362                           VSR1     VAD
001318: 27,3140           77656                           UNIT
001319: 27,3141           57406                           PUSH     VCOMP                                 #  FOR A
001320: 27,3142           75235                           VXV      SIGN
001321: 27,3143           02674                                    UN
001322: 27,3144           02673                                    GEOMSGN
001323: 27,3145           74256                           UNIT     VXSC
001324: 27,3146           00037                                    30D
001325: 27,3147           77715                           PDVL                                           #  UNIT(IC-IR)     +-B
001326: 27,3150           77650                           GOTO
001327: 27,3151           57117                                    GETVRVG1
001328: 27,3152           74575        NEGPROD            VLOAD    VSR1
001329: 27,3153           03537                                    UNIT/R/
001330: 27,3154           74515                           PDVL     VSR1
001331: 27,3155           03656                                    IC
001332: 27,3156           53451                           VSU      UNIT
001333: 27,3157           77606                           PUSH
001334: 27,3160           75235                           VXV      SIGN
001335: 27,3161           02674                                    UN                                    #  FOR B
001336: 27,3162           02673                                    GEOMSGN
001337: 27,3163           74256                           UNIT     VXSC
001338: 27,3164           00041                                    32D
001339: 27,3165           77715                           PDVL
001340: 27,3166           53361                           VXSC     VAD
001341: 27,3167           00037                                    30D
001342: 27,3170           77650                           GOTO
001343: 27,3171           57121                                    GETVRVG2
001344: 27,3172           77651                           VSU
001345: 27,3173           03553                                    VN1
001346: 27,3174           02366        ASTREND            STORE    DELVEET3
001347: 27,3175           53135        FIRSTTME           SLOAD    BZE
001348: 27,3176           03000                                    RTX2


001350: 27,3177           57203                                    GETGOBL
001351: 27,3200           52175                           VLOAD    GOTO                                  #  NO OBLATENESS COMP IF IN MOON SPHERE
001352: 27,3201           02366                                    DELVEET3
001353: 27,3202           57216                                    NOGOBL
001354: 27,3203           53575        GETGOBL            VLOAD    UNIT                                  #  CALCULATE OBLATENESS TERM.
001355: 27,3204           01220                                    RN
001356: 27,3205           45345                           DLOAD    DSU
001357: 27,3206           01234                                    PIPTIME                               #               2
001358: 27,3207           03512                                    GOBLTIME                              #  G    = -(MU/R )(UNITGOBL)(T - TIG)
001359: 27,3210           56205                           DMP      DDV                                   #   OBL
001360: 27,3211           16023                                    EARTHMU
001361: 27,3212           00043                                    34D                                   #  34D = /RN/ (2) FROM UNIT OPERATION.
001362: 27,3213           53361                           VXSC     VAD
001363: 27,3214           03521                                    UNITGOBL
001364: 27,3215           02366                                    DELVEET3                              #   OUTPUT FROM INITVEL  VG = VR - VN
001365: 27,3216           02366        NOGOBL             STORE    DELVEET3                              #  VG = VR + GOBL - VN
001366: 27,3217           77650                           GOTO
001367: 27,3220           56455                                    VGAIN*
001368:
001369:
001370: 27,3221           31103 36652  2PI+3              2DEC     3.141592653 B-2
001371:
001372:


001374:                                                                                                  #  TRIMGIMB      (FORMERLY S40.6)
001375:                                                                                                  #  MOD 0     24 FEB 67     PETER ADLER
001376:                                                                                                  #  FUNCTION:
001377:                                                                                                  #           TRIMS DPS ENGINE TO MINIMIZE THRUST/CG OFFSET. ENGINE IS GIMBALLED TO FULL + PITCH AND + ROLL (TO LOCK)
001378:                                                                                                  #           FOR REFERENCE AND IS THEN BROUGHT BACK TO TRIM POSITION BY RUNNING FOR THE PROPER TIMES (TO BE
001379:                                                                                                  #           SPECIFIED BY GAEC) IN - PITCH AND - ROLL.
001380:                                                                                                  #  CALLING SEQUENCE:
001381:                                                                                                  #           VIA WAITLIST FROM R03
001382:                                                                                                  #  INPUT:
001383:                                                                                                  #           PITTIME     TIME TO RUN FROM FULL + PITCH TO TRIM  (CS)
001384:                                                                                                  #           ROLLTIME    TIME TO RUN FROM FULL + ROLL  TO TRIM  (CS)
001385:                                                                                                  #  SUBROUTINES USED:
001386:                                                                                                  #           WAITLIST, FIXDELAY, VARDELAY, FLAGUP, FLAGDOWN, NOVAC
001387:
001388: 27,3223                                           COUNT*   $$/S40.6
001389: 27,3223  E6,1401                                  EBANK=   ROLLTIME                              #  OCTAL MASKS:  PRIO5=05000 EBANK5=02400
001390:
001391: 27,3223           05527        TRIMGIMB           TC       DOWNFLAG                              #  GMBDRVSW FLAG IS SET WHEN EITHER ROLL OR
001392: 27,3224           00137                           ADRES    GMBDRVSW                              #  PITCH IS COMPLETED, WHICHEVER IS FIRST.
001393:
001394: 27,3225           45017                           CS       PRIO5                                 #  TURN OFF - PITCH, - ROLL, IF ON.
001395: 27,3226           00006                           EXTEND
001396: 27,3227           03012                           WAND     CHAN12
001397: 27,3230           35014                           CAF      EBANK5                                #  TURN ON + PITCH, + ROLL.
001398: 27,3231           00006                           EXTEND
001399: 27,3232           05012                           WOR      CHAN12
001400: 27,3233           05232                           TC       FIXDELAY                              #  WAIT ONE MINUTE TO MAKE SURE ENGINE IS
001401: 27,3234           13560                           DEC      6000       B-14                       #  AT FULL + PITCH AND FULL + ROLL
001402: 27,3235           45014                           CS       EBANK5                                #  TURN OFF + PITCH, + ROLL.
001403: 27,3236           00006                           EXTEND
001404: 27,3237           03012                           WAND     CHAN12
001405: 27,3240           35017                           CAF      PRIO5                                 #  TURN ON - PITCH, - ROLL.
001406: 27,3241           00006                           EXTEND
001407: 27,3242           05012                           WOR      CHAN12
001408: 27,3243           31402                           CAE      PITTIME                               #  GET TIME TO SHUT OFF - PITCH AND SET UP
001409: 27,3244           05204                           TC       TWIDDLE                               #  TWIDDLE-TASK TO TURN IT OFF THEN
001410: 27,3245           03264                           ADRES    PITCHOFF
001411:
001412: 27,3246           31401                           CAE      ROLLTIME                              #  GET TIME TO SHUT OFF - ROLL AND GO AWAY
001413: 27,3247           05235                           TC       VARDELAY                              #  UNTIL THEN
001414: 27,3250           44740                           CS       BIT12
001415: 27,3251           00006                           EXTEND
001416: 27,3252           03012                           WAND     CHAN12                                #  SHUT OFF ROLL
001417: 27,3253           30102        ROLLOVER           CA       FLAGWRD6                              #  IF HERE INLINE (ROLL DONE) IS PITCH DONE
001418: 27,3254           74742                           MASK     GMBDRBIT                              #  IF HERE FROM PITCHOFF, IS ROLL DONE?
001419: 27,3255           00006                           EXTEND
001420: 27,3256           13270                           BZF      PITCHOFF   +4                         #  NO.  SET FLAG, ROLL OR PITCH DONE.
001421: 27,3257           34737                           CAF      PRIO10                                #  RETURN TO R03
001422: 27,3260           05072                           TC       NOVAC
001423: 27,3261  E7,1471                                  EBANK=   WHOCARES


001425: 27,3261           02330 02067                     2CADR    TRIMDONE
001426:
001427: 27,3263           05272                           TC       TASKOVER
001428: 27,3264           44742        PITCHOFF           CS       BIT10
001429: 27,3265           00006                           EXTEND
001430: 27,3266           03012                           WAND     CHAN12                                #  SHUT OFF PITCH
001431: 27,3267           13253                           TCF      ROLLOVER                              #  SEE IF ROLL HAS FINISHED ALSO.
001432: 27,3270           05515                           TC       UPFLAG                                #  ROLL DONE; OR PITCH DONE; BUT NOT BOTH.
001433: 27,3271           00137                           ADRES    GMBDRVSW
001434: 27,3272           05272                           TC       TASKOVER
001435:


001437:                                                                                                  #  SUBROUTINE NAME: S41.1          MOD. NO. 0  DATE: FEBRUARY 28, 1967
001438:
001439:                                                                                                  #                          MOD. NO. 1  DATE: JANUARY 23, 1968: BY PETER ADLER (MIT/IL)
001440:
001441:                                                                                                  #  AUTHOR: JONATHAN D. ADDELSTON (ADAMS ASSOCIATES)
001442:
001443:                                                                                                  #  S41.1 PERFORMS THE COORDINATE SYSTEM TRANFORMATION FROM THE REFERENCE FRAME TO THE BODY OF THE LM.
001444:                                                                                                  #  SPECIFICALLY, IT IS USED TO TRANSFORM A VELOCITY (SCALED AT 2(+7) METERS/CENTISECOND) FROM REFERENCE TO LM AXIS
001445:                                                                                                  #  COORDINATES.  FIRST THE VECTOR IS TRANSFORMED TO THE STABLE MEMBER COORDINATES BY THE MATRIX REFSMMAT.  THIS
001446:                                                                                                  #  LEAVES THE VECTOR IN MPAC, SCALED AT 2(+8) METERS/CENTISECOND.  THEN
001447:                                                                                                  #  THE SUBROUTINE CDUTRIG IS CALLED TO SET UP THE DOUBLE-PRECISION CDU VECTOR ALONG WITH ITS SINES AND COSINES.
001448:                                                                                                  #  THE VECTOR IS THEN TRANSFORMED FROM STABLE MEMBER COORDINATES TO SPACECRAFT (OR LM) COORDINATES BY THE
001449:                                                                                                  #  SUBROUTINE *SMNB*.  FINALLY( THE VECTOR IS RESCALED TO 2(+7) METERS/CENTISECOND, AND CONTROL IS RETURNED TO THE
001450:                                                                                                  #  CALLER WITH C(MPAC) = VELOCITY(LM).
001451:
001452:
001453:                                                                                                  #  CALLING SEQUENCE:
001454:                                                                                                  #                                          L        VLOAD  CALL
001455:                                                                                                  #                                          L +1            VELOCITY(REF)   SCALED AT 2(+7)M/CS IN REFERENCE COORDS.
001456:                                                                                                  #                                          L +2            S41.1
001457:                                                                                                  #                                          L +3     STORE  VELOCITY(LM)    SCALED AT 2(+7)M/CS IN LM BODY AXIS SYS.
001458:
001459:                                                                                                  #  SUBROUTINES CALLED:
001460:
001461:                                                                                                  #           1.  CDUTRIG,
001462:                                                                                                  #                  WHICH CALLS CDULOGIC.
001463:                                                                                                  #           2.  *SMNB*
001464:
001465:                                                                                                  #  NORMAL RETURN: L +3 (SEE CALLING SEQUENCE, ABOVE.)
001466:
001467:                                                                                                  #  ALARM/ABORT MODES: NONE.
001468:
001469:                                                                                                  #  RESTART PROTECTION: NONE.
001470:


001472:                                                                                                  #  INPUT:
001473:
001474:                                                                                                  #           1.  REFSMMAT.
001475:                                                                                                  #           2.  CDUX, CDUY, CDUZ.
001476:                                                                                                  #           3.  VELOCITY (REF) IN MPAC.
001477:
001478:                                                                                                  #  OUTPUT:
001479:
001480:                                                                                                  #           1.  CDUSPOT:  DOUBLE PRECISION CDU VECTOR, ORDERED Y,Z,X.
001481:                                                                                                  #           2.  SINCDU:   HALF SINES OF CDUSPOT COMPONENTS.
001482:                                                                                                  #           3.  COSCDU:   HALF COSINES OF CDUSPOT COMPONENTS.
001483:                                                                                                  #           4.  MPAC:     VELOCITY(LM) (SCALED AT 2(+7) METERS/CENTISECOND)
001484:
001485:                                                                                                  #  DEBRIS: NONE.
001486:
001487:                                                                                                  #  CHECKOUT STATUS:  CODED.
001488:
001489: 27,3273                                           COUNT*   $$/S41.1
001490: 27,3273           76521        S41.1              MXV      VSL1                                  #  CONVERT VECTOR IN MPAC FROM REF AT 2(+7)
001491: 27,3274           01732                                    REFSMMAT                              #  TO SM AND RESCALE DUE TO HALFUNIT MATRIX
001492: 27,3275           77650                           GOTO                                           #  CONVERT TO BODY AT 2(+7) USING PRESENT
001493: 27,3276           47653                                    CDU*SMNB                              #  CDU ANGLES.  CDU*SMNB WILL RETURN
001494:                                                                                                  #  VIA RVQ TO THE CALLER OF S41.1

End of include-file P40-P47.agc.  Parent file is MAIN.agc


