
Source Code


000002:                                                                                                  ## Copyright:   Public domain.
000003:                                                                                                  ## Filename:    P70-P71.agc
000004:                                                                                                  ## Purpose:     A section of Luminary revision 163.
000005:                                                                                                  ##              It is part of the reconstructed source code for the first
000006:                                                                                                  ##              (unflown) release of the flight software for the Lunar
000007:                                                                                                  ##              Module's (LM) Apollo Guidance Computer (AGC) for Apollo 14.
000008:                                                                                                  ##              The code has been recreated from a reconstructed copy of
000009:                                                                                                  ##              Luminary 173, as well as Luminary memos 157 amd 158.
000010:                                                                                                  ##              It has been adapted such that the resulting bugger words
000011:                                                                                                  ##              exactly match those specified for Luminary 163 in NASA
000012:                                                                                                  ##              drawing 2021152N, which gives relatively high confidence
000013:                                                                                                  ##              that the reconstruction is correct.
000014:                                                                                                  ## Reference:   pp. 822-828
000015:                                                                                                  ## Assembler:   yaYUL
000016:                                                                                                  ## Contact:     Ron Burkey <info@sandroid.org>.
000017:                                                                                                  ## Website:     www.ibiblio.org/apollo/index.html
000018:                                                                                                  ## Mod history: 2019-08-21 MAS  Created from Luminary 173.
000019:


000021: 21,2006                                           BANK     21
000022: 21,2000                                           SETLOC   R11
000023: 21,2000                                           BANK
000024:
000025: 21,2006  E7,1515                                  EBANK=   DVCNTR
000026: 21,2006                                           COUNT*   $$/R11
000027:
000028: 21,2006           40103        R10,R11            CS       FLAGWRD7                              #  IS SERVICER STILL RUNNING?
000029: 21,2007           74747                           MASK     AVEGFBIT
000030: 21,2010           10000                           CCS      A
000031: 21,2011           15272                           TCF      TASKOVER                              #  LET AVGEND TAKE CARE OF GROUP 2.
000032: 21,2012           11055                           CCS      PIPCTR
000033: 21,2013           12020                           TCF      STORPCTR
000034: 21,2014           00006                           EXTEND
000035: 21,2015           34755                           DCA      NEG0
000036: 21,2016           52754                           DXCH     -PHASE2
000037: 21,2017           12024                           TCF      R10,R11A
000038:
000039: 21,2020           55714        STORPCTR           TS       PIPCTR1
000040:
000041: 21,2021  E7,1714               PIPCTR1            =        LADQSAVE
000042: 21,2021     1055               PIPCTR             =        PHSPRDT2
000043: 21,2021           36010                           CAF      OCT31
000044: 21,2022           05204                           TC       TWIDDLE
000045: 21,2023           02006                           ADRES    R10,R11
000046: 21,2024           34753        R10,R11A           CAF      HFLSHBIT
000047: 21,2025           70107        FLASHH?            MASK     FLGWRD11
000048: 21,2026           00006                           EXTEND
000049: 21,2027           12033                           BZF      FLASHV?                               #  H FLASH OFF, SO LEAVE ALONE
000050:
000051: 21,2030           34747                           CA       HLITE
000052: 21,2031           54001                           TS       L
000053: 21,2032           04606                           TC       FLIP                                  #  FLIP H LITE
000054:
000055: 21,2033           34752        FLASHV?            CA       VFLSHBIT                              #  VFLASHBIT MUST BE BIT 2.
000056: 21,2034           70107                           MASK     FLGWRD11
000057: 21,2035           00006                           EXTEND
000058: 21,2036           12042                           BZF      10,11                                 #  VFLASH OFF
000059:
000060: 21,2037           34751                           CA       VLITE
000061: 21,2040           54001                           TS       L
000062: 21,2041           04606                           TC       FLIP                                  #  FLIP V LITE
000063:
000064:
000065: 21,2042           30105        10,11              CA       FLAGWRD9                              #  IS THE LETABORT FLAG SET ?
000066: 21,2043           74743                           MASK     LETABBIT
000067: 21,2044           00006                           EXTEND
000068: 21,2045           12130                           BZF      LANDISP                               #  NO. PROCEED TO R10.
000069:
000070: 21,2046           41010        P71NOW?            CS       MODREG                                #  YES.  ARE WE IN P71 NOW?
000071: 21,2047           62107                           AD       1DEC71
000072: 21,2050           00006                           EXTEND


000074: 21,2051           12130                           BZF      LANDISP                               #  YES.  PROCEED TO R10.
000075:
000076: 21,2052           00006                           EXTEND                                         #  NO. IS AN ABORT STAGE COMMANDED?
000077: 21,2053           00030                           READ     CHAN30
000078: 21,2054           40000                           COM
000079: 21,2055           54001                           TS       L
000080: 21,2056           74750                           MASK     BIT4
000081: 21,2057           10000                           CCS      A
000082: 21,2060           12076                           TCF      P71A                                  #  YES.
000083:
000084: 21,2061           41010        P70NOW?            CS       MODREG                                #  NO. ARE WE IN P70 NOW?
000085: 21,2062           62106                           AD       1DEC70
000086: 21,2063           00006                           EXTEND
000087: 21,2064           12130                           BZF      LANDISP                               #  YES.  PROCEED TO R10.
000088:
000089: 21,2065           30001                           CA       L                                     #  NO.  IS AN ABORT COMMANDED?
000090: 21,2066           74753                           MASK     BIT1
000091: 21,2067           10000                           CCS      A
000092: 21,2070           12073                           TCF      P70A                                  #  YES.
000093: 21,2071           12130                           TCF      LANDISP                               #  NO.  PROCEED TO R10.
000094:
000095: 21,2072                                           COUNT*   $$/P70
000096:
000097: 21,2072           02110        P70                TC       LEGAL?
000098: 21,2073           44755        P70A               CS       ZERO
000099: 21,2074           12077                           TCF      +3
000100: 21,2075           02110        P71                TC       LEGAL?
000101: 21,2076           34752        P71A               CAF      TWO
000102: 21,2077           54002                 +3        TS       Q
000103: 21,2100           00004                           INHINT
000104: 21,2101           00006                           EXTEND
000105: 21,2102           32105                           DCA      CNTABTAD
000106: 21,2103           52006                           DTCB
000107:
000108: 21,2104  E7,1515                                  EBANK=   DVCNTR
000109: 21,2104           03416 12067  CNTABTAD           2CADR    CONTABRT
000110:
000111: 21,2106           00106        1DEC70             DEC      70         B-14
000112: 21,2107           00107        1DEC71             DEC      71         B-14
000113:
000114: 05,3416                                           BANK     05
000115: 05,2000                                           SETLOC   ABORTS1
000116: 05,2000                                           BANK
000117: 05,3416                                           COUNT*   $$/P70
000118:


000120: 05,3416           33421        CONTABRT           CAF      ABRTJADR
000121: 05,3417           54017                           TS       BRUPT
000122: 05,3420           50017                           RESUME
000123:
000124: 05,3421           13422        ABRTJADR           TCF      ABRTJASK
000125:
000126: 05,3422           33502        ABRTJASK           CAF      OCTAL27
000127: 05,3423           60002                           AD       Q
000128: 05,3424           54001                           TS       L
000129: 05,3425           40000                           COM
000130: 05,3426           52760                           DXCH     -PHASE4
000131: 05,3427           50002                           INDEX    Q
000132: 05,3430           33501                           CAF      MODE70
000133: 05,3431           55010                           TS       MODREG
000134:
000135: 05,3432           55162                           TS       DISPDEX                               #  INSURE DISPDEX IS POSITIVE.
000136:
000137: 05,3433           10002                           CCS      Q                                     #  SET APSFLAG IF P71.
000138: 05,3434           40106                           CS       FLGWRD10                              #  SET APSFLAG PRIOR TO THE ENEMA.
000139: 05,3435           74737                           MASK     APSFLBIT
000140: 05,3436           26106                           ADS      FLGWRD10
000141: 05,3437           43504                           CS       DAPBITS                               #  DAPBITS = OCT 40640 = BITS 6,8,9,15
000142: 05,3440           70111                           MASK     DAPBOOLS                              #  RESET ULLAGE,DRIFT,XOVRIINH,AND PULSES
000143: 05,3441           54111                           TS       DAPBOOLS
000144:
000145: 05,3442           33505                           CAF      1DEGDB                                #  INSURE DAP DEADBAND IS SET TO 1 DEGREE
000146: 05,3443           55343                           TS       DB
000147:
000148: 05,3444           40101                           CS       FLAGWRD5                              #  SET ENGONFLG.
000149: 05,3445           74745                           MASK     ENGONBIT
000150: 05,3446           26101                           ADS      FLAGWRD5
000151:
000152: 05,3447           44355                           CS       PRIO30                                #  INSURE THAT THE ENGINE IS ON, IF ARMED.
000153: 05,3450           00006                           EXTEND
000154: 05,3451           02011                           RAND     DSALMOUT
000155: 05,3452           64737                           AD       BIT13
000156: 05,3453           00006                           EXTEND
000157: 05,3454           01011                           WRITE    DSALMOUT
000158:
000159: 05,3455           34735                           CAF      LRBYBIT                               #  TERMINATE R12.
000160: 05,3456           54107                           TS       FLGWRD11
000161:
000162: 05,3457           40074                           CS       FLAGWRD0                              #  SET R10FLAG TO SUPPRESS OUTPUTS TO THE
000163: 05,3460           74752                           MASK     R10FLBIT                              #  CROSS-POINTER DISPLAY.
000164: 05,3461           26074                           ADS      FLAGWRD0                              #  THE FOLLOWING ENEMA WILL REMOVE THE
000165:                                                                                                  #  DISPLAY INERTIAL DATA OUTBIT.
000166:
000167: 05,3462           00006                           EXTEND                                         #  LOAD TEVENT FOR THE DOWNLINK.
000168: 05,3463           30025                           DCA      TIME2
000169: 05,3464           53342                           DXCH     TEVENT
000170:


000172: 05,3465           00006                           EXTEND
000173: 05,3466           33500                           DCA      SVEXITAD
000174: 05,3467           53252                           DXCH     AVGEXIT
000175:
000176: 05,3470           02667                           TC       ABTKLEAN                              #  KILL GROUPS 1,3, AND 6.
000177:
000178: 05,3471           36250                           CAF      THREE                                 #  SET UP 4.3SPOT FOR GOABORT
000179: 05,3472           54001                           TS       L
000180: 05,3473           40000                           COM
000181: 05,3474           52760                           DXCH     -PHASE4
000182:
000183: 05,3475           04635                           TC       POSTJUMP
000184: 05,3476           12777                           CADR     ENEMA
000185:
000186: 05,3477  E7,1515                                  EBANK=   DVCNTR
000187: 05,3477           03636 64067  SVEXITAD           2CADR    SERVEXIT
000188:
000189: 05,3501           00106        MODE70             DEC      70         B-14
000190: 05,3502           00027        OCTAL27            OCT      27
000191: 05,3503           00107        MODE71             DEC      71         B-14
000192:
000193: 05,3504           40640        DAPBITS            OCT      40640
000194:
000195: 05,3505           00554        1DEGDB             OCT      00554
000196: 32,3423                                           BANK     32
000197: 32,2000                                           SETLOC   ABORTS
000198: 32,2000                                           BANK
000199:
000200: 32,3423                                           COUNT*   $$/P70
000201:
000202: 32,3423           34751        GOABORT            CAF      FOUR
000203: 32,3424           55515                           TS       DVCNTR
000204:
000205: 32,3425           33633                           CAF      WHICHADR
000206: 32,3426           55455                           TS       WHICH
000207:
000208: 32,3427           06042                           TC       INTPRET
000209: 32,3430           43014                           CLEAR    CLEAR
000210: 32,3431           04665                                    FLRCS
000211: 32,3432           04265                                    FLUNDISP
000212: 32,3433           43014                           CLEAR    SET
000213: 32,3434           03670                                    IDLEFLAG
000214: 32,3435           06464                                    ACC4-2FL
000215: 32,3436           45014                           SET      CALL
000216: 32,3437           04462                                    P7071FLG
000217: 32,3440           61063                                    INITCDUW
000218: 32,3441           77776                           EXIT
000219:
000220: 32,3442           05332                           TC       CHECKMM
000221: 32,3443           00106        70DEC              DEC      70         B-14


000223: 32,3444           13557                           TCF      P71RET
000224:
000225: 32,3445           06042        P70INIT            TC       INTPRET
000226: 32,3446           77624                           CALL
000227: 32,3447           65606                                    TGOCOMP
000228: 32,3450           54345                           DLOAD    SL
000229: 32,3451           34003                                    MDOTDPS
000230: 32,3452           20205                                    4D
000231: 32,3453           77665                           BDDV
000232: 32,3454           01244                                    MASS
000233: 32,3455           16237                           STODL    TBUP
000234: 32,3456           01244                                    MASS
000235: 32,3457           70471                           DDV      SR1
000236: 32,3460           16015                                    K(1/DV)
000237: 32,3461           03635                           STORE    1/DV1
000238: 32,3462           03637                           STORE    1/DV2
000239: 32,3463           03641                           STORE    1/DV3
000240: 32,3464           77665                           BDDV
000241: 32,3465           25632                                    K(AT)
000242: 32,3466           16231                           STODL    AT
000243: 32,3467           34015                                    100PCTTO
000244: 32,3470           02235                           STORE    TTO
000245: 32,3471           57535                           SLOAD    DCOMP
000246: 32,3472           26002                                    DPSVEX
000247: 32,3473           77702                           SR2
000248: 32,3474           36233                           STCALL   VE
000249: 32,3475           60272                                    COMMINIT
000250: 32,3476           77745        INJTARG            DLOAD
000251: 32,3477           02564                                    ABTRDOT
000252: 32,3500           36241                           STCALL   RDOTD                                 #  INITIALIZE RDOTD.
000253: 32,3501           57317                                    YCOMP                                 #  COMPUTE Y
000254: 32,3502           45246                           ABS      DSU
000255: 32,3503           02562                                    YLIM                                  #  /Y/-DYMAX
000256: 32,3504           75240                           BMN      SIGN                                  #  IF <0, XR<.5DEG, LEAVE YCO AT 0
000257: 32,3505           65510                                    YOK                                   #  IF >0, FIX SIGN OF DEFICIT, THIS IS YCO.
000258: 32,3506           02303                                    Y
000259: 32,3507           03633                           STORE    YCO
000260: 32,3510           45345        YOK                DLOAD    DSU
000261: 32,3511           03633                                    YCO
000262: 32,3512           02303                                    Y
000263: 32,3513           77661                           SR
000264: 32,3514           20606                                    5D
000265: 32,3515           03643                           STORE    XRANGE
000266: 32,3516           45014                           SET      CALL
000267: 32,3517           04461                                    FLVR
000268: 32,3520           71557                                    THETCOMP
000269: 32,3521           51025                           DSU      BPL
000270: 32,3522           02556                                    THETCRIT
000271: 32,3523           65527                                    +4
000272: 32,3524           52175                           VLOAD    GOTO


000274: 32,3525           02546                                    J1PARM
000275: 32,3526           65532                                    STORPARM
000276: 32,3527           43175                 +4        VLOAD    SET                                   #  IF J2 IS USED, SET THE
000277: 32,3530           02552                                    J2PARM                                #  ABORT TARGETING FLAG
000278: 32,3531           04470                                    ABTTGFLG
000279: 32,3532           16616        STORPARM           STODL    JPARM
000280: 32,3533           03631                                    RCO
000281: 32,3534           02622                           STORE    RP
000282: 32,3535           77414                           SET      EXIT
000283: 32,3536           04471                                    ROTFLAG
000284:
000285: 32,3537           03615        UPTHROT            TC       THROTUP
000286:
000287: 32,3540           05364                           TC       PHASCHNG
000288: 32,3541           04024                           OCT      04024
000289:
000290: 32,3542           05515                           TC       UPFLAG
000291: 32,3543           00216                           ADRES    FLAP
000292:
000293: 32,3544           04616        UPTHROT1           TC       BANKCALL                              #  VERIFY THAT THE PANEL SWITCHES
000294: 32,3545           73707                           CADR     P40AUTO                               #  ARE PROPERLY SET.
000295:
000296: 32,3546           03615                           TC       THROTUP
000297:
000298: 32,3547           35027                           CAF      PRIO17                                #  LET SERVICER FINISH BEFORE CONNECTING
000299: 32,3550           05146                           TC       PRIOCHNG                              #      ASCENT GUIDANCE EQUATIONS.
000300:
000301: 32,3551           00006                           EXTEND
000302: 32,3552           33635                           DCA      ATMAGAD
000303: 32,3553           53252                           DXCH     AVGEXIT
000304:
000305: 32,3554           05364        GRP4OFF            TC       PHASCHNG                              #  TERMINATE USE OF GROUP 4.
000306: 32,3555           00004                           OCT      00004
000307:
000308: 32,3556           15155                           TCF      ENDOFJOB
000309:
000310: 32,3557           05527        P71RET             TC       DOWNFLAG
000311: 32,3560           00215                           ADRES    LETABORT
000312:
000313: 32,3561           36000                           CAF      THRESH2                               #  SET DVMON THRESHOLD TO THE ASCENT VALUE.
000314: 32,3562           55250                           TS       DVTHRUSH
000315:
000316: 32,3563           06042                           TC       INTPRET
000317: 32,3564           77624                           CALL
000318: 32,3565           60246                                    P12INIT
000319: 32,3566           45014                           BON      CALL
000320: 32,3567           04707                                    FLAP
000321: 32,3570           65574                                    OLDTIME
000322: 32,3571           65606                                    TGOCOMP                               #  IF FLAP=0, TGO=T-TIG
000323: 32,3572           77650                           GOTO


000325: 32,3573           65476                                    INJTARG
000326: 32,3574           72545        OLDTIME            DLOAD    SL1                                   #  IF FLAP=1,TGO=2 TGO
000327: 32,3575           03517                                    TGO
000328: 32,3576           03502                           STORE    TGO1
000329: 32,3577           77776                           EXIT
000330:
000331: 32,3600           05364                           TC       PHASCHNG
000332: 32,3601           04024                           OCT      04024
000333:
000334: 32,3602           00006                           EXTEND
000335: 32,3603           31502                           DCA      TGO1
000336: 32,3604           53517                           DXCH     TGO
000337: 32,3605           13544                           TCF      UPTHROT1
000338:
000339: 32,3606  E7,1501               TGO1               =        VGBODY
000340:
000341:                                                                                                  #  ************************************************************************
000342:
000343: 21,2110                                           BANK     21
000344: 21,2000                                           SETLOC   R11
000345: 21,2000                                           BANK
000346:
000347: 21,2110                                           COUNT*   $$/P70
000348:
000349: 21,2110           40774        LEGAL?             CS       MMNUMBER                              #  IS THE DESIRED PGM ALREADY IN PROGRESS?
000350: 21,2111           61010                           AD       MODREG
000351: 21,2112           00006                           EXTEND
000352: 21,2113           12124                           BZF      ABORTALM
000353:
000354: 21,2114           40105                           CS       FLAGWRD9                              #  ARE THE ABORTS ENABLED?
000355: 21,2115           74743                           MASK     LETABBIT
000356: 21,2116           10000                           CCS      A
000357: 21,2117           12124                           TCF      ABORTALM
000358:
000359: 21,2120           30103                           CA       FLAGWRD7                              #  IS SERVICER ON THE AIR?
000360: 21,2121           74747                           MASK     AVEGFBIT
000361: 21,2122           10000                           CCS      A
000362: 21,2123           00002                           TC       Q                                     #  YES.  ALL IS WELL.
000363: 21,2124           04364        ABORTALM           TC       FALTON
000364: 21,2125           04457                           TC       RELDSP
000365: 21,2126           04635                           TC       POSTJUMP
000366: 21,2127           21051                           CADR     PINBRNCH
000367:
000368: 32,3606                                           BANK     32
000369: 32,2000                                           SETLOC   ABORTS
000370: 32,2000                                           BANK
000371:
000372: 32,3606                                           COUNT*   $$/P70
000373:
000374:                                                                                                  #  ************************************************************************
000375:
000376: 32,3606           45234        TGOCOMP            RTB      DSU


000378: 32,3607           21574                                    LOADTIME
000379: 32,3610           03442                                    TIG
000380: 32,3611           77661                           SL
000381: 32,3612           20214                                    11D
000382: 32,3613           03517                           STORE    TGO
000383: 32,3614           77616                           RVQ
000384:
000385:                                                                                                  #  ************************************************************************
000386:
000387: 32,3615           34737        THROTUP            CAF      BIT13
000388: 32,3616           54055                           TS       THRUST
000389: 32,3617           34750                           CAF      BIT4
000390: 32,3620           00006                           EXTEND
000391: 32,3621           05014                           WOR      CHAN14
000392: 32,3622           00002                           TC       Q
000393:
000394:                                                                                                  #  ************************************************************************
000395:
000396: 32,3623           00000 01750  10SECS             2DEC     1000       B-28
000397:
000398: 32,3625           00021 33400  HINJECT            2DEC     18288      B-24                       #  60,000 FEET EXPRESSED IN METERS.
000399:
000400: 32,3627           11021 00000  (TGO)A             2DEC     37000      B-17
000401:
000402: 32,3631           00507 25605  K(AT)              2DEC     .02                                   #  SCALING CONSTANT
000403:
000404: 32,3633           02114        WHICHADR           REMADR   ABRTABLE
000405:
000406:                                                                                                  #  ************************************************************************
000407:
000408: 32,3634  E7,1515                                  EBANK=   DVCNTR
000409: 32,3634           03375 70067  ATMAGAD            2CADR    ATMAG

End of include-file P70-P71.agc.  Parent file is MAIN.agc


