
Source Code


000002:                                                                                                  ## Copyright:   Public domain.
000003:                                                                                                  ## Filename:    PHASE_TABLE_MAINTENANCE.agc
000004:                                                                                                  ## Purpose:     A section of Luminary revision 163.
000005:                                                                                                  ##              It is part of the reconstructed source code for the first
000006:                                                                                                  ##              (unflown) release of the flight software for the Lunar
000007:                                                                                                  ##              Module's (LM) Apollo Guidance Computer (AGC) for Apollo 14.
000008:                                                                                                  ##              The code has been recreated from a reconstructed copy of
000009:                                                                                                  ##              Luminary 173, as well as Luminary memos 157 amd 158.
000010:                                                                                                  ##              It has been adapted such that the resulting bugger words
000011:                                                                                                  ##              exactly match those specified for Luminary 163 in NASA
000012:                                                                                                  ##              drawing 2021152N, which gives relatively high confidence
000013:                                                                                                  ##              that the reconstruction is correct.
000014:                                                                                                  ## Reference:   pp. 1283-1291
000015:                                                                                                  ## Assembler:   yaYUL
000016:                                                                                                  ## Contact:     Ron Burkey <info@sandroid.org>.
000017:                                                                                                  ## Website:     www.ibiblio.org/apollo/index.html
000018:                                                                                                  ## Mod history: 2019-08-21 MAS  Created from Luminary 173.
000019:


000021:                                                                                                  #           SUBROUTINE TO UPDATE THE PROGRAM NUMBER DISPLAY ON THE DSKY.
000022:
000023: 43,3757                                           COUNT*   $$/PHASE
000024:    5322                                           BLOCK    02
000025:    4000                                           SETLOC   FFTAG1
000026:    4000                                           BANK
000027:
000028:    5322           50002        NEWMODEX           INDEX    Q                                     #  UPDATE MODREG. ENTRY FOR MODE IN FIXED.
000029:    5323           30000                           CAF      0
000030:    5324           24002                           INCR     Q
000031:
000032:    5325           55010        NEWMODEA           TS       MODREG                                #  ENTRY FOR MODE IN A.
000033:    5326           35331        MMDSPLAY           CAF      +3                                    #  DISPLAY MAJOR MODE.
000034:    5327           22006        PREBJUMP           LXCH     BBANK                                 #  PUTS BBANK IN L
000035:    5330           14640                           TCF      BANKJUMP                              #  PUTS Q INTO A
000036:    5331           20213                           CADR     SETUPDSP
000037:
000038:                                                                                                  #           RETURN TO CALLER +3 IF MODE = THAT AT CALLER +1. OTHERWISE RETURN TO CALLER +2.
000039:
000040:    5332           50002        CHECKMM            INDEX    Q
000041:    5333           40000                           CS       0
000042:    5334           61010                           AD       MODREG
000043:    5335           00006                           EXTEND
000044:    5336           16744                           BZF      Q+2
000045:    5337           16742                           TCF      Q+1                                   #  NO MATCH
000046:
000047:    5340     6745               TCQ                =        Q+2        +1
000048:
000049: 14,3775                                           BANK     14
000050: 10,2000                                           SETLOC   PHASETAB
000051: 10,2000                                           BANK
000052:
000053: 10,2213                                           COUNT*   $$/PHASE
000054: 10,2213           00004        SETUPDSP           INHINT
000055: 10,2214           52071                           DXCH     RUPTREG1                              #  SAVE CALLER-S RETURN 2CADR
000056: 10,2215           34355                           CAF      PRIO30                                #    EITHER A TASK OR JOB CAN COME TO
000057: 10,2216           05072                           TC       NOVAC                                 #    NEWMODE X
000058: 10,2217     1010                                  EBANK=   MODREG
000059: 10,2217           03606 60102                     2CADR    DSPMMJOB
000060:
000061: 10,2221           52071                           DXCH     RUPTREG1
000062: 10,2222           00003                           RELINT
000063: 10,2223           52006                           DXCH     Z                                     #  RETURN
000064:
000065: 10,2224  40,3606               DSPMMJOB           EQUALS   DSPMMJB
000066:
000067:
000068:    5340                                           BLOCK    02
000069:    4000                                           SETLOC   FFTAG1
000070:    4000                                           BANK


000072:                                                                                                  #  PHASCHNG IS THE MAIN WAY OF MAKING PHASE CHANGES FOR RESTARTS.  THERE ARE THREE FORMS OF PHASCHNG, KNOWN AS TYPE
000073:                                                                                                  #  A, TYPE B, AND TYPE C. THEY ARE ALL CALLED AS FOLLOWS, WHERE OCT XXXXX   CONTAINS THE PHASE INFORMATION,
000074:
000075:                                                                                                  #                                                   TC     PHASCHNG
000076:                                                                                                  #                                                   OCT    XXXXX
000077:
000078:                                                                                                  #  TYPE A IS CONCERNED WITH FIXED PHASE CHANGES, THAT IS, PHASE INFORMATIONTHAT IS STORED PERMANENTLY.  THESE
000079:                                                                                                  #  OPTIONS ARE, WHERE G STANDS FOR A GROUP AND .X FOR THE PHASE,
000080:
000081:                                                                                                  #                  G.0             INACTIVE, WILLNOT PERMIT A GROUP G RESTART
000082:                                                                                                  #                  G.1             WILL CAUSE THE LAST DISPLAY TO BE REACTIVATED, USED MAINLY IN MANNED FLIGHTS
000083:                                                                                                  #                  G.EVEN          A DOUBLE TABLE RESTART, CAN CAUSE ANY COMBINATION OF TWO JOBS, TASKS, AND/OR
000084:                                                                                                  #                                  LONGCALL TO BE RESTARTED.
000085:                                                                                                  #                  G.ODD NOT .1    A SINGLE TABLE RESTART, CAN CAUSE EITHER A JOB, TASK, OR LONGCALL RESTART
000086:
000087:                                                                                                  #  THIS INFORMATION IS PUT INTO THE OCTAL WORD AFTER TC PHASCHNG AS FOLLOWS
000088:
000089:                                                                                                  #                  TL0 00P PPP PPP GGG                                     ,
000090:
000091:                                                                                                  #  WHERE EACH LETTER OR NUMBER STANDS FOR A BIT.  THE G:S STAND FOR THE GROUP, OCTAL 1 - 7, THE P:S FOR THE PHASE,
000092:                                                                                                  #  OCTAL 0 - 127.  0:S MUST BE 0.              IF ONE WISHES TO HAVE THE TBASE OF GROUP G TO BE SET AT THIS TIME,
000093:                                                                                                  #  T IS SET TO 1, OTHERWISE IT IS SET TO 0.  SIMIARLY IF ONE WISHES TO SET LONGBASE, THEN L IS SET TO 1, OTHERWISE
000094:                                                                                                  #  IT IS SET TO 0.  SOME EXAMPLES,
000095:
000096:                                                                                                  #                                                   TC     PHASCHNG        THIS WILL CAUSE GROUP 3 TOBE SET TO 0,
000097:                                                                                                  #                                                   OCT    00003           MAKING GROUP 3 INACTIVE
000098:
000099:                                                                                                  #                                                   TC     PHASCHNG        IF A RESTART OCCURS THIS WOULD CAUSE
000100:                                                                                                  #                                                   OCT    00012           GROUP 2 TO RESTART THE LAST DISPLAY
000101:
000102:                                                                                                  #                                                   TC     PHASCHNG        THIS SETS THE TBASE OF GROUP 4 AND IN
000103:                                                                                                  #                                                   OCT    40064           CASE OF A RESTART WOULD START UP THE TWO
000104:                                                                                                  #                                                                          THINGS LOCATED IN THE DOUBLE 4.6 RESTART
000105:                                                                                                  #                                                                          LOCATION
000106:                                                                                                  #                                                   TC     PHASCHNG        THIS SETS LONGBASE AND UPON A RESTART
000107:                                                                                                  #                                                   OCT    20135           CAUSES 5.13 TO BE RESTARTED  (SINCE
000108:                                                                                                  #                                                                          LONGBASE WAS SET THIS SINGLE ENTRY
000109:                                                                                                  #                                                                          SHOULD BE A LONGCALL)
000110:                                                                                                  #                                                   TC     PHASCHNG        SINCE BOTH TBASE4 AND LONGBASE ARE SET,
000111:                                                                                                  #                                                   OCT    60124           4.12 SHOULD CONTAIN BOTH A TASK AND A
000112:                                                                                                  #                                                                          LONGCALL TO BE RESTARTED
000113:
000114:                                                                                                  #  TYPE C PHASCHNG CONTAINS THE VARIABLE TYPE OF PHASCHNG INFORMATION. INSTEAD OF THE INFORMATION BEING IN A
000115:                                                                                                  #  PERMANENT FORM, ONE STORES THE DESIRED RESTART INFORMATION IN A VARIABKE LOCATION. THE BITS ARE AS FOLLOWS,
000116:
000117:                                                                                                  #                  TL0 1AD XXX CJW GGG
000118:
000119:                                                                                                  #  WHERE EACH LETTER OR NUMBER STANDS FOR A BIT.  THE G:S STAND FOR THE GROUP, OCTAL 1 - 7.  IF THE RESTART IS TO
000120:                                                                                                  #  BE BY WAITLIST, W IS SET TO 1, IF IT IS A JOB, J IS SET TO 1, IF IT IS A LONGCALL, C IS SET TO 1. ONLY ONE OF
000121:                                                                                                  #  THESE THREE BIT S MAY BE SET.  X:S ARE IGNORED  1 MUST BE 1, AND 0 MUST  BE 0.  AGAIN T STANDS FOR THE TBASE,


000123:                                                                                                  #  AND L FOR LONGBASE.  THE BITS A AND D ARE CONCERNED WITH THE VARIABLE INFORMATION. IF D IS SET TO 1, A PRIORITY
000124:                                                                                                  #  OR DELTA TIME WILL BE READ FROM THE NEXT LOCATION AFTER THE OCTAL INFORMATION, IF THIS IS TO BE INDIRECT, THAT
000125:                                                                                                  #  IS, THE NAME OF A LOCATION COMT+INING THE INFORMATION (DELTA TIME ONLY), THEN THIS IS GIVEN AS THE -GENADR OF
000126:                                                                                                  #  THAT LOCATION WHICH CONTAINS THE DELTA TIME.  IF THE OLD PRIORITY OR DELTA TIME IS TO BE USED, THAT WHICH IS
000127:                                                                                                  #  ALREADY IN THE VARIABLE STORAGE, THEN D IS SET TO 0. NEXT THE A BIT IS USED.  IF IT IS SET TO 0, THE ADDRESS
000128:                                                                                                  #  THAT WOULD BE RESTARTED DURING A RESTART IS THE NEXT LOCATION AFTER THE  PHASE INFORMATION, THAT IS, EITHER
000129:                                                                                                  #  (TC PHASCHNG) +2 OR +3, DEPENDING ON WHETHER D HAD BEEN SET OR NOT.  IF A IS SET TO 1, THEN THE ADDRESS THAT
000130:                                                                                                  #  WOULD BE RESTARTED IS THE 2CADR THAT IS READ FROM THE NEXT TWO LOCATIONS.  EXAMPLES,
000131:
000132:                                                                                                  #                                          AD       TC     PHASCHNG        THIS WOULD CAUSE LOCATION AD +3 TO BE
000133:                                                                                                  #                                          AD+1     OCT    05023           RESTARTED BY GROUP THREE WITHA PRIORITY
000134:                                                                                                  #                                          AD+2     OCT    23000           OF 23.  NOTE UPON RETURNING IT WOULD
000135:                                                                                                  #                                          AD+3                            ALSO GO TO AD+3
000136:
000137:                                                                                                  #                                          AD       TC     PHASCHNG        GROUP  1 WOULD CAUSE CAUSE CALLCALL TO
000138:                                                                                                  #                                          AD+1     OCT    27441           BE STARTED AS A LONGCALL FROM THE TIME
000139:                                                                                                  #                                          AD+2    -GENADR DELTIME         STORED IN LONGBASE (LONGBASE WAS SET) BY
000140:                                                                                                  #                                          AD+3     2CADR  CALLCALL        A DELTATIME STORED IN DELTIME.  THE
000141:                                                                                                  #                                          AD+4                            BBCON OF THE 2CADR SHOULD CONTAIN THE E
000142:                                                                                                  #                                          AD+5                            BANK OF DELTIME. PHASCHNG RETURNS TO
000143:                                                                                                  #                                                                          LOCATION AD+5
000144:
000145:                                                                                                  #  NOTE THAT IF A VARIABLE PRIORITY IS GIVEN FOR A JOB, THE JOB WILL BE RESTARTED AS A NOVAC IF THE PRIORITY IS
000146:                                                                                                  #  NEGATIVE, AS A FINDVAC IF THE PRIORITY IS POSITIVE.
000147:
000148:
000149:                                                                                                  #  TYPE B PHASCHNG IS A COMBINATION OF VARIABLE AND FIXED PHASE CHANGES. IT WILL START UP A JOB AS INDICATED
000150:                                                                                                  #  BELOW AND ALSO START UP ONE FIXED RESTART, THAT IS EITHER AN G.1 OR  A G.ODD OR THE FIRST ENTRY OF G.EVEN
000151:                                                                                                  #  DOUBLE ENTRY.  THE BIT INFORMATION IS AS FOLLOWS,
000152:
000153:                                                                                                  #                  TL1 DAP PPP PPP GGG
000154:
000155:                                                                                                  #  WHERE EACH LETTER OR NUMBER STANDS FOR A BIT.  THE G:S STAND FOR THE GROUP, OCTAL 1 - 7. THE P:S FOR THE FIXED
000156:                                                                                                  #  PHASE INFORMATION, OCTAL 0 - 127. 1 MUST BE 1.  AND AGAIN T STANDS FOR THE TBASE AND L FOR LONGBASE. D THIS
000157:                                                                                                  #  TIME STANDS ONLY FOR PRIORITY SINCE THIS WILL BE CONSIDERED A JOB, AND IT MUST BE GIVEN DIRECTLY IF GIVEN.
000158:                                                                                                  #  AGAIN A STANDS FOR THE ADDRESS OF THE LOCATION TO BE RESTARTED, 1 IF THE 2CADR IS GIVEN , OR 0 IF IT IS TO BE
000159:                                                                                                  #  THE NEXT LOCATION.(THE RETURN LOCATION OF PHASCHNG) EXAMPLES,
000160:
000161:                                                                                                  #                                          AD       TC     PHASCHNG        TBASE IS SET AND ARESTART CAUSE GROUP 3
000162:                                                                                                  #                                          AD+1     OCT    56043           TO START THE JOB AJOBAJOB WITH PRIORITY
000163:                                                                                                  #                                          AD+2     OCT    31000           31 AND THE FIRST ENTRY OF 3.4SPOT(WE CAN
000164:                                                                                                  #                                          AD+3     2CADR  AJOBAJOB        ASSUME IT IS A TASK SINCE WE SET TBASE3)
000165:                                                                                                  #                                          AD+4                            UPON RETURN FROM PHASCHNG CONTROL WOULD
000166:                                                                                                  #                                          AD+5                            GO TO AD+5
000167:
000168:                                                                                                  #                                          AD       TC     PHASCHNG        UPON A RESTART THE LAST DISPLAY WOULD BE
000169:                                                                                                  #                                          AD+1     OCT    10015           RESTARTED AND A JOB WITH THE PREVIOUSLY
000170:                                                                                                  #                                          AD+2                            STORED PRIORITY WOULD BE BEGUN AT AD+2
000171:                                                                                                  #                                                                          BY MEANS OF GROUP 5
000172:


000174:                                                                                                  #  THE NOVAC-FINDVAC CHOICE FOR JOBS HOLDS HERE ALSO - NEGATIVE PRIORITY CAUSES A NOVAC CALL, POSITIVE A FINDVAC.
000175:
000176:
000177:                                                                                                  #  SUMMARY OF BITS
000178:
000179:                                                                                                  #  TYPE A          TL0 00P PPP PPP GGG
000180:
000181:                                                                                                  #  TYPE B          TL1 DAP PPP PPP GGG
000182:
000183:                                                                                                  #  TYPE C          TL0 1AD XXX CJW GGG
000184:


000186:                                                                                                  #  2PHSCHNG IS USED WHEN ONE WISHES TO START UP A GROUP OR CHANGE A GROUP WHILE UNDER THE CONTROL OF A DIFFERENT
000187:                                                                                                  #  GROUP. FOR EXAMPLE, CHANGE THE PHASE OF GROUP 3 WHILE THE PORTION OF THE PROGRAM IS UNDER GROUP 5. ALL 2PHSCHNG
000188:                                                                                                  #  CALLS ARE MADE IN THE FOLLOWING MANNER,
000189:
000190:                                                                                                  #                                                   TC     2PHSCHNG
000191:                                                                                                  #                                                   OCT    XXXXX
000192:                                                                                                  #                                                   OCT    YYYYY
000193:
000194:                                                                                                  #  WHERE OCT XXXXX MUST BE OF TYPE A AND OCT YYYYY MAY BE OF EITHER TYPE A OR TYPE B OR TYPEC.  THERE IS ONE
000195:                                                                                                  #  DIFFERENCE --- NOTE- IF LONGBASE IS TO BE SET THIS INFORMATION IS GIVEN IN THE OCT YYYYY INFORMATION, IT WILL
000196:                                                                                                  #  BE DISREGARDED IF GIVEN WITH THE OCT XXXXX INFORMATION. A COUPLE OF EXAMPLES MAY HELP,
000197:
000198:                                                                                                  #                                          AD       TC     2PHSCHNG        SET TBASE3 AND IF A RESTART OCCURS START
000199:                                                                                                  #                                          AD+1     OCT    40083           THE TWO ENTRIES IN 3.8 TABLE LOCATION
000200:                                                                                                  #                                          AD+2     OCT    05025           THIS IS OF TYPE C, SET THE JOB TO BE
000201:                                                                                                  #                                          AD+3     OCT    18000           TO BE LOCATION AD+4, WITH A PRIORITY 18,
000202:                                                                                                  #                                          AD+4                            FOR GROUP 5 PHASE INFORMATION
000203:
000204:    5340                                           COUNT*   $$/PHASE
000205:    5340           00004        2PHSCHNG           INHINT                                         #  THE ENTRY FOR A DOUBLE PHASE CHANGE
000206:    5341           50002                           NDX      Q
000207:    5342           30000                           CA       0
000208:    5343           24002                           INCR     Q
000209:    5344           54072                           TS       TEMPP2
000210:
000211:    5345           74757                           MASK     OCT7
000212:    5346           60000                           DOUBLE
000213:    5347           54071                           TS       TEMPG2
000214:
000215:    5350           30072                           CA       TEMPP2
000216:    5351           75030                           MASK     OCT17770                              #  NEED ONLY 1770, BUT WHY GET A NEW CONST.
000217:    5352           00006                           EXTEND
000218:    5353           74740                           MP       BIT12
000219:    5354           56072                           XCH      TEMPP2
000220:
000221:    5355           74735                           MASK     BIT15
000222:    5356           54066                           TS       TEMPSW2                               #  INDICATES WHETHER TO SET TBASE OR NOT
000223:
000224:    5357           50002                           INDEX    Q
000225:    5360           30000                           CA       0
000226:    5361           24002                           INCR     Q
000227:    5362           54065                           TS       TEMPSW
000228:
000229:    5363           15374                           TCF      PHASJUMP
000230:
000231:    5364           00004        PHASCHNG           INHINT                                         #  NORMAL PHASCHNG ENTRY POINT.
000232:    5365           50002                           INDEX    Q
000233:    5366           30000                           CA       0
000234:    5367           24002                           INCR     Q
000235:    5370           00004        PHSCHNGA           INHINT                                         #  FIRST OCTAL PARAMETER IN A.


000237:    5371           54065                           TS       TEMPSW
000238:    5372           34753                           CA       ONE
000239:    5373           54066                           TS       TEMPSW2
000240:    5374           00006        PHASJUMP           EXTEND
000241:    5375           35400                           DCA      ADRPCHN2                              #  OFF TO SWITCHED BANK
000242:    5376           52006                           DTCB
000243:
000244:    5377  E3,1400                                  EBANK=   LST1
000245:    5377           02224 20103  ADRPCHN2           2CADR    PHSCHNG2
000246:
000247:
000248:
000249:    5401           22073        ONEORTWO           LXCH     TEMPBBCN
000250:    5402           22006                           LXCH     BBANK
000251:    5403           22073                           LXCH     TEMPBBCN
000252:
000253:    5404           75024                           MASK     OCT14000                              #  SEE WHAT KIND OF PHASE CHANGE IT IS
000254:    5405           10000                           CCS      A
000255:    5406           17753                           TCF      CHECKB                                #   IT IS OF TYPE :B:
000256:
000257:    5407           30062                           CA       TEMPP
000258:    5410           74745                           MASK     BIT7
000259:    5411           10000                           CCS      A                                     #   SHALL WE USE THE OLD PRIORITY
000260:    5412           15434                           TCF      GETPRIO                               #   NO GET A NEW PRIORITY (OR DELTA T)
000261:
000262:    5413           50061        OLDPRIO            NDX      TEMPG                                 #   USE THE OLD PRIORITY (OR DELTA T)
000263:    5414           31051                           CA       PHSPRDT1   -2
000264:    5415           54070                           TS       TEMPPR
000265:
000266:    5416           30062        CON1               CA       TEMPP                                 #  SEE IF A 2CADR IS GIVEN
000267:    5417           74744                           MASK     BIT8
000268:    5420           10000                           CCS      A
000269:    5421           15440                           TCF      GETNEWNM
000270:
000271:    5422           30002                           CA       Q
000272:    5423           54063                           TS       TEMPNM
000273:    5424           30006                           CA       BB
000274:    5425           00006                           EXTEND                                         #  PICK UP USERS SUPERBANK
000275:    5426           04007                           ROR      SUPERBNK
000276:    5427           54064                           TS       TEMPBB
000277:
000278:    5430           35433        TOCON2             CA       CON2ADR                               #  BACK TO SWITCHED BANK
000279:    5431           22073                           LXCH     TEMPBBCN
000280:    5432           52006                           DTCB
000281:
000282:    5433           02312        CON2ADR            GENADR   CON2
000283:
000284:    5434           50002        GETPRIO            NDX      Q                                     #  DON:T CARE IF DIRECT OR INDIRECT
000285:    5435           30000                           CA       0                                     #  LEAVE THAT DECISION TO RESTARTS
000286:    5436           24002                           INCR     Q                                     #  OBTAIN RETURN ADDRESS


000288:    5437           15415                           TCF      CON1       -1
000289:
000290:    5440           00006        GETNEWNM           EXTEND
000291:    5441           50002                           INDEX    Q
000292:    5442           30001                           DCA      0
000293:    5443           52064                           DXCH     TEMPNM
000294:    5444           34752                           CA       TWO
000295:    5445           26002                           ADS      Q                                     #  OBTAIN RETURN ADDRESS
000296:
000297:    5446           15430                           TCF      TOCON2
000298:
000299:    5447     5024               OCT14000           EQUALS   PRIO14
000300:    5447     0061               TEMPG              EQUALS   ITEMP1
000301:    5447     0062               TEMPP              EQUALS   ITEMP2
000302:    5447     0063               TEMPNM             EQUALS   ITEMP3
000303:    5447     0064               TEMPBB             EQUALS   ITEMP4
000304:    5447     0065               TEMPSW             EQUALS   ITEMP5
000305:    5447     0066               TEMPSW2            EQUALS   ITEMP6
000306:    5447     0070               TEMPPR             EQUALS   RUPTREG1
000307:    5447     0071               TEMPG2             EQUALS   RUPTREG2
000308:    5447     0072               TEMPP2             EQUALS   RUPTREG3
000309:
000310:    5447     0073               TEMPBBCN           EQUALS   RUPTREG4
000311:    5447  0000006               BB                 EQUALS   BBANK
000312:
000313:
000314: 14,3775                                           BANK     14
000315: 10,2000                                           SETLOC   PHASETAB
000316: 10,2000                                           BANK
000317:
000318: 10,2224  E3,1436                                  EBANK=   PHSNAME1
000319: 10,2224                                           COUNT*   $$/PHASE
000320: 10,2224           22073        PHSCHNG2           LXCH     TEMPBBCN
000321: 10,2225           30065                           CA       TEMPSW
000322: 10,2226           74757                           MASK     OCT7
000323: 10,2227           60000                           DOUBLE
000324: 10,2230           54061                           TS       TEMPG
000325:
000326: 10,2231           30065                           CA       TEMPSW
000327: 10,2232           75030                           MASK     OCT17770
000328: 10,2233           00006                           EXTEND
000329: 10,2234           74740                           MP       BIT12
000330: 10,2235           54062                           TS       TEMPP
000331:
000332: 10,2236           30065                           CA       TEMPSW
000333: 10,2237           74101                           MASK     OCT60000
000334: 10,2240           56065                           XCH      TEMPSW
000335: 10,2241           75024                           MASK     OCT14000
000336: 10,2242           10000                           CCS      A


000338: 10,2243           15401                           TCF      ONEORTWO
000339:
000340: 10,2244           30062                           CA       TEMPP                                 #  START STORING THE PHASE INFORMATION
000341: 10,2245           50061                           NDX      TEMPG
000342: 10,2246           54750                           TS       PHASE1     -2
000343:
000344: 10,2247           10066        BELOW1             CCS      TEMPSW2                               #  IS IT A PHASCHNG OR A 2PHSCHNG
000345: 10,2250           12264                           TCF      BELOW2                                #  IT:S A PHASCHNG
000346:
000347: 10,2251           12252                           TCF      +1                                    #  IT:S A 2PHSCHNG
000348: 10,2252           40072                           CS       TEMPP2
000349: 10,2253           22072                           LXCH     TEMPP2
000350: 10,2254           50071                           NDX      TEMPG2
000351: 10,2255           52750                           DXCH     -PHASE1    -2
000352:
000353: 10,2256           10066                           CCS      TEMPSW2
000354: 10,2257           12260                           NOOP                                           #  CAN:T GET HERE
000355: 10,2260           12264                           TCF      BELOW2
000356:
000357: 10,2261           40025                           CS       TIME1
000358: 10,2262           50071                           NDX      TEMPG2
000359: 10,2263           55050                           TS       TBASE1     -2
000360:
000361: 10,2264           10065        BELOW2             CCS      TEMPSW                                #  SEE IF WE SHOULD SET TBASE OR LONGBASE
000362: 10,2265           12300                           TCF      BELOW3                                #  SET LONGBASE ONLY
000363: 10,2266           12303                           TCF      BELOW4                                #  SET NEITHER
000364:
000365: 10,2267           40025                           CS       TIME1                                 #  SET TBASE TO BEGIN WITH
000366: 10,2270           50061                           NDX      TEMPG
000367: 10,2271           55050                           TS       TBASE1     -2
000368:
000369: 10,2272           30065                           CA       TEMPSW                                #   SHALL WE NOW SET LONGBASE
000370: 10,2273           62276                           AD       BIT14COM
000371: 10,2274           10000                           CCS      A
000372: 10,2275           12276                           NOOP                                           #  ***** CANT GET HERE *****
000373: 10,2276           17777        BIT14COM           OCT      17777                                 #  ***** CANT GET HERE *****
000374: 10,2277           12303                           TCF      BELOW4                                #  NO WE NEED ONLY SET TBASE
000375:
000376: 10,2300           00006        BELOW3             EXTEND                                         #  SET LONGBASE
000377: 10,2301           30025                           DCA      TIME2
000378: 10,2302           53151                           DXCH     LONGBASE
000379:
000380: 10,2303           40062        BELOW4             CS       TEMPP                                 #  AND STORE THE FINAL PART OF THE PHASE
000381: 10,2304           50061                           NDX      TEMPG
000382: 10,2305           54747                           TS       -PHASE1    -2
000383:
000384: 10,2306           30002                           CA       Q
000385: 10,2307           22073                           LXCH     TEMPBBCN
000386: 10,2310           00003                           RELINT
000387: 10,2311           52006                           DTCB


000389: 10,2312           22073        CON2               LXCH     TEMPBBCN
000390:
000391: 10,2313           30062                           CA       TEMPP
000392: 10,2314           50061                           NDX      TEMPG
000393: 10,2315           54750                           TS       PHASE1     -2
000394:
000395: 10,2316           30070                           CA       TEMPPR
000396: 10,2317           50061                           NDX      TEMPG
000397: 10,2320           55051                           TS       PHSPRDT1   -2
000398:
000399: 10,2321           00006                           EXTEND
000400: 10,2322           30064                           DCA      TEMPNM
000401: 10,2323           50061                           NDX      TEMPG
000402: 10,2324           53435                           DXCH     PHSNAME1   -2
000403:
000404: 10,2325           12247                           TCF      BELOW1
000405:
000406:    7753                                           BLOCK    03
000407:    6000                                           SETLOC   FFTAG6
000408:    6000                                           BANK
000409:
000410:    7753                                           COUNT*   $$/PHASE
000411:    7753           74740        CHECKB             MASK     BIT12                                 #  SINCE THIS IS OF TYPE B, THIS BIT SHOULD
000412:    7754           10000                           CCS      A                                     #   BE HERE IF WE ARE TO GET A NEW PRIORITY
000413:    7755           15434                           TCF      GETPRIO                               #  IT IS, SO GET NEW PRIORITY
000414:
000415:    7756           15413                           TCF      OLDPRIO                               #  IT ISN:T, USE THE OLD PRIORITY

End of include-file PHASE_TABLE_MAINTENANCE.agc.  Parent file is MAIN.agc


