
Source Code


000002:                                                                                                  ## Copyright:   Public domain.
000003:                                                                                                  ## Filename:    PINBALL_NOUN_TABLES.agc
000004:                                                                                                  ## Purpose:     A section of Luminary revision 163.
000005:                                                                                                  ##              It is part of the reconstructed source code for the first
000006:                                                                                                  ##              (unflown) release of the flight software for the Lunar
000007:                                                                                                  ##              Module's (LM) Apollo Guidance Computer (AGC) for Apollo 14.
000008:                                                                                                  ##              The code has been recreated from a reconstructed copy of
000009:                                                                                                  ##              Luminary 173, as well as Luminary memos 157 amd 158.
000010:                                                                                                  ##              It has been adapted such that the resulting bugger words
000011:                                                                                                  ##              exactly match those specified for Luminary 163 in NASA
000012:                                                                                                  ##              drawing 2021152N, which gives relatively high confidence
000013:                                                                                                  ##              that the reconstruction is correct.
000014:                                                                                                  ## Reference:   pp. 306-324
000015:                                                                                                  ## Assembler:   yaYUL
000016:                                                                                                  ## Contact:     Ron Burkey <info@sandroid.org>.
000017:                                                                                                  ## Website:     www.ibiblio.org/apollo/index.html
000018:                                                                                                  ## Mod history: 2019-08-21 MAS  Created from Luminary 173. Reintroduced a bug
000019:                                                                                                  ##                              in the original implementation of ACB L-20:
000020:                                                                                                  ##                              the SFINTAB entry for forward/lateral velocity
000021:                                                                                                  ##                              had been accidentally changed to 5.571 instead
000022:                                                                                                  ##                              of the SFOUTAB entry, which was wrongly 5.517.
000023:


000025:                                                                                                  #  THE FOLLOWING REFERS TO THE NOUN TABLES
000026:
000027:
000028:                                                                                                  #  COMPONENT CODE NUMBER           INTERPRETATION
000029:
000030:                                                                                                  #  00000                           1 COMPONENT
000031:                                                                                                  #  00001                           2 COMPONENT
000032:                                                                                                  #  00010                           3 COMPONENT
000033:                                                                                                  #  X1XXX                           BIT4 = 1. DECIMAL ONLY
000034:                                                                                                  #  1XXXX                           BIT5 = 1. NO LOAD
000035:                                                                                                  #  END OF COMPONENT CODE NUMBERS
000036:
000037:
000038:                                                                                                  #  SF ROUTINE CODE NUMBER          INTERPRETATION
000039:
000040:                                                                                                  #  00000    OCTAL ONLY
000041:                                                                                                  #  00001    STRAIGHT FRACTIONAL
000042:                                                                                                  #  00010    CDU DEGREES (XXX.XX)
000043:                                                                                                  #  00011    ARITHMETIC SF
000044:                                                                                                  #  00100    ARITH DP1   OUT(MULT BY 2EXP14 AT END)    IN(STRAIGHT)
000045:                                                                                                  #  00101    ARITH DP2   OUT(STRAIGHT)                 IN(SL 7 AT END)
000046:                                                                                                  #  00110    LANDING RADAR POSITION (+0000X)
000047:                                                                                                  #  00111    ARITH DP3   OUT ( SL 7 AT END)       IN ( STRAIGHT)
000048:                                                                                                  #  01000    WHOLE HOURS IN R1, WHOLE MINUTES (MOD 60) IN R2,
000049:                                                                                                  #              SECONDS (MOD 60) 0XX.XX IN R3. *** ALARMS IF USED WITH OCTAL
000050:                                                                                                  #  01001    MINUTES (MOD 60) IN D1D2, D3 BLANK, SECONDS (MOD 60) IN D4D5
000051:                                                                                                  #                          LIMITS TO 59B59 IF MAG EXCEEDS THIS VALUE.
000052:                                                                                                  #                          ALARMS IF USED WITH OCTAL  ********  IN (ALARM)
000053:                                                                                                  #  01010    ARITH DP4   OUT (STRAIGHT)                  IN (SL 3 AT END)
000054:                                                                                                  #  01011    ARITH1 SF   OUT(MULT BY 2EXP14 AT END)    IN(STRAIGHT)
000055:                                                                                                  #  01100    2 INTEGERS IN D1D2, D4D5, D3 BLANK.
000056:                                                                                                  #                          ALARMS IF USED WITH OCTAL  ********  IN (ALARM)
000057:                                                                                                  #  01101    360-CDU DEGREES (XXX.XX)
000058:                                                                                                  #  01110    RR RANGE       15 BIT MAG TO DP, THEN SCALE *******  IN (ALARM)
000059:                                                                                                  #  01111    RR RANGE RATE  15 BIT MAG TO DP, THEN SCALE *******  IN (ALARM)
000060:                                                                                                  #  END OF SF ROUTINE CODE NUMBERS
000061:
000062:
000063:                                                                                                  #  SF CONSTANT CODE NUMBER         INTERPRETATION
000064:
000065:                                                                                                  #  00000                           WHOLE                       USE ARITH
000066:                                                                                                  #  00000                           DP TIME SEC (XXX.XX SEC)    USE ARITHDP1
000067:                                                                                                  #  00000                           LR POSITION (+0000X)     USE LR POSITION
000068:                                                                                                  #  00001                           SPARE
000069:                                                                                                  #  00010                           CDU DEGREES              USE CDU DEGREES
000070:                                                                                                  #  00010                           360-CDU DEGREES      USE 360-CDU DEGREES
000071:                                                                                                  #  00011                           DP DEGREES (90) XX.XXX DEG  USE ARITHDP3
000072:                                                                                                  #  00100                           DP DEGREES (360) XXX.XX DEG USE ARITHDP4
000073:                                                                                                  #  00101                           DEGREES (180) XXX.XX DEG    USE ARITH
000074:                                                                                                  #  00101                           OPTICAL TRACKER AZIMUTH ANGLE(XXX.XXDEG)


000076:                                                                                                  #                                                              USE ARITHDP1
000077:                                                                                                  #  00110                           WEIGHT2 (XXXXX. LBS)        USE ARITH1
000078:                                                                                                  #  00111                           POSITION5 (XXX.XX NAUTICAL MILES)
000079:                                                                                                  #                                                              USE ARITHDP3
000080:                                                                                                  #  01000                           POSITION4 (XXXX.X NAUTICAL MILES)
000081:                                                                                                  #                                                              USE ARITHDP3
000082:                                                                                                  #  01001                           VELOCITY2 (XXXXX. FT/SEC)   USE ARITHDP4
000083:                                                                                                  #  01010                           VELOCITY3 (XXXX.X FT/SEC)   USE ARITHDP3
000084:                                                                                                  #  01011                           ELEVATION DEGREES(89.999MAX) USE ARITH
000085:                                                                                                  #  01100                           RENDEZVOUS RADAR RANGE (XXX.XX NAUT MI)
000086:                                                                                                  #                                                              USE RR RANGE
000087:                                                                                                  #  01101                           RENDEZVOUS RADAR RANGE RATE(XXXXX.FT/SEC
000088:                                                                                                  #                                                         USE RR RANGE RATE
000089:                                                                                                  #  01110                           LANDING RADAR ALTITUDE(XXXXX.FEET)
000090:                                                                                                  #                                                              USE ARITHDP1
000091:                                                                                                  #  01111                           INITIAL/FINAL ALTITUDE(XXXXX.FEET)
000092:                                                                                                  #                                                              USE ARITHDP1
000093:                                                                                                  #  10000                           ALTITUDE RATE (XXXXX.FT/SEC)   USE ARITH
000094:                                                                                                  #  10001                           FORWARD/LATERAL VELOCITY(XXXXX.FEET/SEC)
000095:                                                                                                  #                                                                 USE ARITH
000096:                                                                                                  #  10010                           ROTATIONAL HAND CONTROLLER ANGLE RATES
000097:                                                                                                  #                                        XXXXX.DEG/SEC            USE ARITH
000098:                                                                                                  #  10011                           LANDING RADAR VELX(XXXXX.FEET/SEC)
000099:                                                                                                  #                                                              USE ARITHDP1
000100:                                                                                                  #  10100                           LANDING RADAR VELY(XXXXX.FEET/SEC)
000101:                                                                                                  #                                                              USE ARITHDP1
000102:                                                                                                  #  10101                           LANDING RADAR VELZ(XXXXX.FEET/SEC)
000103:                                                                                                  #                                                              USE ARITHDP1
000104:                                                                                                  #  10110                           POSITION7 (XXXX.X NAUT MI)  USE ARITHDP4
000105:                                                                                                  #  10111                           TRIM DEGREES2 (XXX.XX DEG)  USE ARITH
000106:                                                                                                  #  11000                           COMPUTED ALTITUDE (XXXXX. FEET)
000107:                                                                                                  #                                                              USE ARITHDP1
000108:                                                                                                  #  11001                           DP DEGREES (XXXX.X DEG)     USE ARITHDP3
000109:                                                                                                  #  11010                           POSITION9 (XXXXX. FT)       USE ARITHDP3
000110:                                                                                                  #  11011                           VELOCITY4 (XXXX.X FT/SEC)   USE ARITHDP2
000111:                                                                                                  #  11100                           RADIANS (XX.XXX RADIANS)    USE ARITHDP4
000112:                                                                                                  #  END OF SF CONSTANT CODE NUMBERS
000113:
000114:
000115:                                                                                                  #  FOR GREATER THAN SINGLE PRECISION SCALES, PUT ADDRESS OF MAJOR PART INTO
000116:                                                                                                  #  NOUN TABLES.
000117:                                                                                                  #  OCTAL LOADS PLACE +0 INTO MAJOR PART, DATA INTO MINOR PART.
000118:                                                                                                  #  OCTAL DISPLAYS SHOW MINOR PART ONLY.
000119:                                                                                                  #  TO GET AT BOTH MAJOR AND MINOR PARTS(IN OCTAL), USE NOUN 01.
000120:
000121:
000122:                                                                                                  #  A NOUN MAY BE DECLARED :DECIMAL ONLY: BY MAKING BIT4=1 OF ITS COMPONENT


000124:                                                                                                  #  CODE NUMBER. IF THIS NOUN IS USED WITH ANY OCTAL DISPLAY VERB, OR IF
000125:                                                                                                  #  DATA IS LOADED IN OCTAL, IT ALARMS.
000126:
000127:                                                                                                  #  IN LOADING AN :HOURS, MINUTES, SECONDS: NOUN, ALL 3 WORDS MUST BE
000128:                                                                                                  #  LOADED, OR ALARM.
000129:                                                                                                  #  ALARM IF AN ATTEMPT IS MADE TO LOAD :SPLIT MINUTES/SECONDS: (MMBSS).
000130:                                                                                                  #  THIS IS USED FOR DISPLAY ONLY.
000131:


000133:                                                                                                  #  THE FOLLOWING ROUTINES ARE FOR READING THE NOUN TABLES AND THE SF TABLES
000134:                                                                                                  #  (WHICH ARE IN A SEPARATE BANK FROM THE REST OF PINBALL). THESE READING
000135:                                                                                                  #  ROUTINES ARE IN THE SAME BANK AS THE TABLES. THEY ARE CALLED BY DXCH Z.
000136:
000137:
000138:                                                                                                  #  LODNNTAB LOADS NNADTEM WITH THE NNADTAB ENTRY, NNTYPTEM WITH THE
000139:                                                                                                  #  NNTYPTAB ENTRY. IF THE NOUN IS MIXED, IDAD1TEM IS LOADED WITH THE FIRST
000140:                                                                                                  #  IDADDTAB ENTRY, IDAD2TEM THE SECOND IDADDTAB ENTRY, IDAD3TEM THE THIRD
000141:                                                                                                  #  IDADDTAB ENTRY, RUTMXTEM WITH THE RUTMXTAB ENTRY. MIXBR IS SET FOR
000142:                                                                                                  #  MIXED OR NORMAL NOUN.
000143:
000144: 06,3271                                           BANK     6
000145: 42,2000                                           SETLOC   PINBALL3
000146: 42,2000                                           BANK
000147: 42,2103                                           COUNT*   $$/NOUNS
000148: 42,2103           52152        LODNNTAB           DXCH     IDAD2TEM                              #  SAVE RETURN INFO IN IDAD2TEM, IDAD3TEM.
000149: 42,2104           51001                           INDEX    NOUNREG
000150: 42,2105           32154                           CAF      NNADTAB
000151: 42,2106           54146                           TS       NNADTEM
000152: 42,2107           51001                           INDEX    NOUNREG
000153: 42,2110           32320                           CAF      NNTYPTAB
000154: 42,2111           54147                           TS       NNTYPTEM
000155: 42,2112           41001                           CS       NOUNREG
000156: 42,2113           64771                           AD       MIXCON
000157: 42,2114           00006                           EXTEND
000158: 42,2115           62121                           BZMF     LODMIXNN                              #  NOUN NUMBER G/E FIRST MIXED NOUN
000159: 42,2116           34753                           CAF      ONE                                   #  NOUN NUMBER L/ FIRST MIXED NOUN
000160: 42,2117           54140                           TS       MIXBR                                 #  NORMAL.  +1 INTO MIXBR.
000161: 42,2120           02137                           TC       LODNLV
000162: 42,2121           34752        LODMIXNN           CAF      TWO                                   #  MIXED.  +2 INTO MIXBR.
000163: 42,2122           54140                           TS       MIXBR
000164: 42,2123           51001                           INDEX    NOUNREG
000165: 42,2124           33064                           CAF      RUTMXTAB   -40D                       #  FIRST MIXED NOUN = 40.
000166: 42,2125           54153                           TS       RUTMXTEM
000167: 42,2126           35012                           CAF      LOW10
000168: 42,2127           70146                           MASK     NNADTEM
000169: 42,2130           54002                           TS       Q                                     #  TEMP
000170: 42,2131           50000                           INDEX    A
000171: 42,2132           32650                           CAF      IDADDTAB
000172: 42,2133           54150                           TS       IDAD1TEM                              #  LOAD IDAD1TEM WITH FIRST IDADDTAB ENTRY
000173: 42,2134           00006                           EXTEND
000174: 42,2135           50002                           INDEX    Q                                     #  LOAD IDAD2TEM WITH 2ND IDADDTAB ENTRY
000175: 42,2136           32652                           DCA      IDADDTAB   +1                         #  LOAD IDAD3TEM WITH 3RD IDADDTAB ENTRY.
000176: 42,2137           52152        LODNLV             DXCH     IDAD2TEM                              #  PUT RETURN INFO INTO A, L.
000177: 42,2140           52006                           DXCH     Z
000178:
000179: 42,2141     4771               MIXCON             =        OCT50                                 #  (DEC 40)
000180:                                                                                                  #  GTSFOUT LOADS SFTEMP1, SFTEMP2 WITH THE DP SFOUTAB ENTRIES.
000181:
000182: 42,2141           52124        GTSFOUT            DXCH     SFTEMP1                               #  2X(SFCONUM) ARRIVES IN SFTEMP1.


000184: 42,2142           00006                           EXTEND
000185: 42,2143           50000                           INDEX    A
000186: 42,2144           32557                           DCA      SFOUTAB
000187: 42,2145           52124        SFCOM              DXCH     SFTEMP1
000188: 42,2146           52006                           DXCH     Z
000189:
000190:
000191:                                                                                                  #  GTSFIN LOADS SFTEMP1, SFTEMP2 WITH THE DP SFINTAB ENTRIES.
000192:
000193: 42,2147           52124        GTSFIN             DXCH     SFTEMP1                               #  2X(SFCONUM) ARRIVES IN SFTEMP1.
000194: 42,2150           00006                           EXTEND
000195: 42,2151           50000                           INDEX    A
000196: 42,2152           32465                           DCA      SFINTAB
000197: 42,2153           12145                           TCF      SFCOM
000198:
000199:
000200:                                                                                                  #  NN  NORMAL NOUNS
000201: 42,2154           00000        NNADTAB            OCT      00000                                 #  00 NOT IN USE
000202: 42,2155           40000                           OCT      40000                                 #  01 SPECIFY MACHINE ADDRESS (FRACTIONAL)
000203: 42,2156           40000                           OCT      40000                                 #  02 SPECIFY MACHINE ADDRESS (WHOLE)
000204: 42,2157           40000                           OCT      40000                                 #  03 SPECIFY MACHINE ADDRESS (DEGREES)
000205: 42,2160           01044                           ECADR    DSPTEM1                               #  04 ANGULAR ERROR/DIFFERENCE
000206: 42,2161           01044                           ECADR    DSPTEM1                               #  05 ANGULAR ERROR/DIFFERENCE
000207: 42,2162           01143                           ECADR    OPTION1                               #  06 OPTION CODE
000208: 42,2163           01002                           ECADR    XREG                                  #  07 ECADR OF WORD TO BE MODIFIED
000209:                                                                                                  #     ONES FOR BITS TO BE MODIFIED
000210:                                                                                                  #     1 TO SET OR 0 TO RESET SELECTED BITS
000211: 42,2164           01363                           ECADR    ALMCADR                               #  08 ALARM DATA
000212: 42,2165           00375                           ECADR    FAILREG                               #  09 ALARM CODES
000213: 42,2166           77776                           OCT      77776                                 #  10 CHANNEL TO BE SPECIFIED
000214: 42,2167           03633                           ECADR    TCSI                                  #  11 TIG OF CSI (HRS,MIN,SEC)
000215: 42,2170           01050                           ECADR    OPTIONX                               #  12 OPTION CODE
000216:                                                                                                  #        (USED BY EXTENDED VERBS ONLY)
000217: 42,2171           01774                           ECADR    TCDH                                  #  13 TIG OF CDH (HRS,MIN,SEC)
000218: 42,2172           01050                           ECADR    DSPTEMX                               #  14 CHECKLIST
000219:                                                                                                  #        (USED BY EXTENDED VERBS ONLY)
000220: 42,2173           77777                           OCT      77777                                 #  15 INCREMENT MACHINE ADDRESS
000221: 42,2174           01050                           ECADR    DSPTEMX                               #  16 TIME OF EVENT (HRS,MIN,SEC)
000222: 42,2175           00000                           OCT      00000                                 #  17 SPARE
000223: 42,2176           02344                           ECADR    FDAIX                                 #  18 AUTO MANEUVER BALL ANGLES
000224: 42,2177           00000                           OCT      00000                                 #  19 SPARE
000225: 42,2200           00032                           ECADR    CDUX                                  #  20 ICDU ANGLES
000226: 42,2201           00037                           ECADR    PIPAX                                 #  21 PIPAS
000227: 42,2202           00321                           ECADR    THETAD                                #  22 NEW ICDU ANGLES
000228: 42,2203           00000                           OCT      00000                                 #  23 SPARE
000229: 42,2204           01050                           ECADR    DSPTEM2    +1                         #  24 DELTA TIME FOR AGC CLOCK(HRS,MIN,SEC)
000230: 42,2205           01044                           ECADR    DSPTEM1                               #  25 CHECKLIST
000231:                                                                                                  #        (USED WITH PLEASE PERFORM ONLY)
000232: 42,2206           01044                           ECADR    DSPTEM1                               #  26 PRIO/DELAY, ADRES, BBCON
000233: 42,2207           01362                           ECADR    SMODE                                 #  27 SELF TEST ON/OFF SWITCH


000235: 42,2210           00000                           OCT      00000                                 #  28 SPARE
000236: 42,2211           00000                           OCT      00000                                 #  29 SPARE
000237: 42,2212           00000                           OCT      0                                     #  30 SPARE
000238: 42,2213           00000                           OCT      0                                     #  31 SPARE
000239: 42,2214           02142                           ECADR    -TPER                                 #  32 TIME TO PERIGEE (HRS,MIN,SEC)
000240: 42,2215           03441                           ECADR    TIG                                   #  33 TIME OF IGNITION (HRS,MIN(SEC)
000241: 42,2216           01044                           ECADR    DSPTEM1                               #  34 TIME OF EVENT (HRS,MIN,SEC)
000242: 42,2217           03453                           ECADR    TTOGO                                 #  35 TIME TO GO TO EVENT (HRS,MIN,SEC)
000243: 42,2220           00024                           ECADR    TIME2                                 #  36 TIME OF AGC CLOCK (HRS,MIN,SEC)
000244: 42,2221           03635                           ECADR    TTPI                                  #  37 TIG OF TPI (HRS,MIN,SEC)
000245: 42,2222           01516                           ECADR    TET                                   #  38 TIME OF STATE BEING INTEGRATED
000246: 42,2223           00000                           OCT      00000                                 #  39 SPARE
000247:                                                                                                  #  END OF NNADTAB FOR NORMAL NOUNS
000248:
000249:
000250:                                                                                                  #  NN  MIXED NOUNS
000251: 42,2224           64000                           OCT      64000                                 #  40 TIME TO IGNITION/CUTOFF
000252:                                                                                                  #     VG
000253:                                                                                                  #     DELTA V (ACCUMULATED)
000254: 42,2225           02003                           OCT      02003                                 #  41 TARGET  AZIMUTH
000255:                                                                                                  #             ELEVATION
000256: 42,2226           24006                           OCT      24006                                 #  42 APOGEE
000257:                                                                                                  #     PERIGEE
000258:                                                                                                  #     DELTA V (REQUIRED)
000259: 42,2227           24011                           OCT      24011                                 #  43 LATITUDE
000260:                                                                                                  #     LONGITUDE
000261:                                                                                                  #     ALTITUDE
000262: 42,2230           64014                           OCT      64014                                 #  44 APOGEE
000263:                                                                                                  #     PERIGEE
000264:                                                                                                  #     TFF
000265: 42,2231           64017                           OCT      64017                                 #  45 MARKS
000266:                                                                                                  #     TTI OF NEXT BURN
000267:                                                                                                  #     MGA
000268: 42,2232           00022                           OCT      00022                                 #  46 AUTOPILOT CONFIGURATION
000269: 42,2233           22025                           OCT      22025                                 #  47 LEM WEIGHT
000270:                                                                                                  #     CSM WEIGHT
000271: 42,2234           22030                           OCT      22030                                 #  48 GIMBAL PITCH TRIM
000272:                                                                                                  #     GIMBAL ROLL TRIM
000273: 42,2235           24033                           OCT      24033                                 #  49 DELTA R
000274:                                                                                                  #     DELTA V
000275:                                                                                                  #     RADAR DATA SOURCE CODE
000276: 42,2236           00000                           OCT      0                                     #  50 SPARE
000277: 42,2237           22041                           OCT      22041                                 #  51 S-BAND ANTENNA PITCH
000278:                                                                                                  #                    YAW
000279: 42,2240           00044                           OCT      00044                                 #  52 CENTRAL ANGLE OF ACTIVE VEHICLE
000280: 42,2241           00000                           OCT      00000                                 #  53 SPARE
000281: 42,2242           24052                           OCT      24052                                 #  54 RANGE
000282:                                                                                                  #     RANGE RATE
000283:                                                                                                  #     THETA
000284: 42,2243           24055                           OCT      24055                                 #  55 NO. OF APSIDAL CROSSINGS


000286:                                                                                                  #     ELEVATION ANGLE
000287:                                                                                                  #     CENTRAL ANGLE
000288: 42,2244           02060                           OCT      02060                                 #  56 RR LOS AZIMUTH
000289:                                                                                                  #            ELEVATION
000290: 42,2245           00000                           OCT      00000                                 #  57 SPARE
000291: 42,2246           24066                           OCT      24066                                 #  58 PERIGEE ALT
000292:                                                                                                  #     DELTA V TPI
000293:                                                                                                  #     DELTA V TPF
000294: 42,2247           24071                           OCT      24071                                 #  59 DELTA VELOCITY LOS
000295: 42,2250           24074                           OCT      24074                                 #  60 FORWARD VELOCITY
000296:                                                                                                  #     ALTITUDE RATE
000297:                                                                                                  #     COMPUTED ALTITUDE
000298: 42,2251           64077                           OCT      64077                                 #  61 TIME TO GO IN BRAKING PHASE
000299:                                                                                                  #     TIME TO IGNITION
000300:                                                                                                  #     CROSS RANGE DISTANCE
000301: 42,2252           64102                           OCT      64102                                 #  62 ABSOLUTE VALUE OF VELOCITY
000302:                                                                                                  #     TIME TO IGNITION
000303:                                                                                                  #     DELTA V (ACCUMULATED)
000304: 42,2253           24105                           OCT      24105                                 #  63 ABSOLUTE VALUE OF VELOCITY
000305:                                                                                                  #     ALTITUDE RATE
000306:                                                                                                  #     COMPUTED ALTITUDE
000307: 42,2254           64110                           OCT      64110                                 #  64 TIME LEFT FOR REDESIGNATION-LPD ANGLE
000308:                                                                                                  #     ALTITUDE RATE
000309:                                                                                                  #     COMPUTED ALTITUDE
000310: 42,2255           24113                           OCT      24113                                 #  65 SAMPLED AGC TIME (HRS,MIN,SEC)
000311:                                                                                                  #     (FETCHED IN INTERRUPT)
000312: 42,2256           62116                           OCT      62116                                 #  66 LR RANGE
000313:                                                                                                  #        POSITION
000314: 42,2257           04121                           OCT      04121                                 #  67 LRVX
000315:                                                                                                  #     LRVY
000316:                                                                                                  #     LRVZ
000317: 42,2260           64124                           OCT      64124                                 #  68 SLANT RANGE TO LANDING SIGHT
000318:                                                                                                  #     TIME TO GO IN BRAKING PHASE
000319:                                                                                                  #     LR ALTITUDE - COMPUTED ALTITUDE
000320: 42,2261           24127                           OCT      24127                                 #  69 LANDING SITE CORRECTION, Z-COMPONENT
000321:                                                                                                  #     LANDING SITE CORRECTION, Y-COMPONENT
000322:                                                                                                  #     LANDING SITE CORRECTION, X-COMPONENT
000323: 42,2262           04132                           OCT      04132                                 #  70 AOT DETENT CODE/STAR CODE
000324: 42,2263           04135                           OCT      04135                                 #  71 AOT DETENT CODE/STAR CODE
000325: 42,2264           02140                           OCT      02140                                 #  72 RR  360 - TRUNNION ANGLE
000326:                                                                                                  #         SHAFT ANGLE
000327: 42,2265           02143                           OCT      02143                                 #  73 NEW RR  360 - TRUNNION ANGLE
000328:                                                                                                  #                   SHAFT ANGLE
000329: 42,2266           64146                           OCT      64146                                 #  74 TIME TO IGNITION
000330:                                                                                                  #     YAWAFTER VEHICLE RISE
000331:                                                                                                  #     PITCH AFTER VEHICLE RISE
000332: 42,2267           64151                           OCT      64151                                 #  75 DELTA ALTITUDE CDH
000333:                                                                                                  #     DELTA TIME (CDH-CSI OR TPI-CDH)
000334:                                                                                                  #     DELTA TIME (TPI-CDH OR TPI-NOMTPI)
000335: 42,2270           24154                           OCT      24154                                 #  76 DESIRED HORIZONTAL VELOCITY


000337:                                                                                                  #     DESIRED RADIAL VELOCITY
000338:                                                                                                  #     CROSS-RANGE DISTANCE
000339: 42,2271           62157                           OCT      62157                                 #  77 TIME TO ENGINE CUTOFF
000340:                                                                                                  #     VELOCITY NORMAL TO CSM PLANE
000341: 42,2272           64162                           OCT      64162                                 #  78 RR RANGE
000342:                                                                                                  #        RANGE RATE
000343:                                                                                                  #     TIME FROM IGNITION
000344: 42,2273           24165                           OCT      24165                                 #  79 CURSOR ANGLE
000345:                                                                                                  #     SPIRAL ANGLE
000346:                                                                                                  #     POSITION CODE
000347: 42,2274           02170                           OCT      02170                                 #  80 DATA INDICATOR
000348:                                                                                                  #     OMEGA
000349: 42,2275           24173                           OCT      24173                                 #  81 DELTA V (LV)
000350: 42,2276           24176                           OCT      24176                                 #  82 DELTA V (LV)
000351: 42,2277           24201                           OCT      24201                                 #  83 DELTA V (BODY)
000352: 42,2300           24204                           OCT      24204                                 #  84 DELTA V (OTHER VEHICLE)
000353: 42,2301           24207                           OCT      24207                                 #  85 VG (BODY)
000354: 42,2302           24212                           OCT      24212                                 #  86 VG (LV)
000355: 42,2303           02215                           OCT      02215                                 #  87 BACKUP OPTICS LOS AZIMUTH
000356:                                                                                                  #                       ELEVATION
000357: 42,2304           24220                           OCT      24220                                 #  88 HALF UNIT SUN OR PLANET VECTOR
000358: 42,2305           24223                           OCT      24223                                 #  89 LANDMARK LATITUDE
000359:                                                                                                  #              LONGITUDE/2
000360:                                                                                                  #              ALTITUDE
000361: 42,2306           24226                           OCT      24226                                 #  90 Y
000362:                                                                                                  #     Y DOT
000363:                                                                                                  #     PSI
000364: 42,2307           04231                           OCT      04231                                 #  91 ALTITUDE
000365:                                                                                                  #     VELOCITY
000366:                                                                                                  #     FLIGHT PATH ANGLE
000367: 42,2310           04234                           OCT      04234                                 #  92 PCT FTP(10.5KLB) AT PRESENT THRUST
000368:                                                                                                  #     ALTITUDE RATE
000369:                                                                                                  #     COMPUTED ALTITUDE
000370: 42,2311           04237                           OCT      04237                                 #  93 DELTA GYRO ANGLES
000371: 42,2312           00000                           OCT      00000                                 #  94    SPARE
000372: 42,2313           00000                           OCT      0                                     #  95 SPARE
000373: 42,2314           00000                           OCT      0                                     #  96 SPARE
000374: 42,2315           04253                           OCT      04253                                 #  97 SYSTEM TEST INPUTS
000375: 42,2316           04256                           OCT      04256                                 #  98 SYSTEM TEST RESULTS
000376: 42,2317           24261                           OCT      24261                                 #  99 RMS IN POSITION
000377:                                                                                                  #     RMS IN VELOCITY
000378:                                                                                                  #     RMS IN BIAS
000379:                                                                                                  #  END OF NNADTAB FOR MIXED NOUNS
000380:
000381:
000382:                                                                                                  #  NN        NORMAL NOUNS
000383: 42,2320           00000        NNTYPTAB           OCT      00000                                 #  00 NOT IN USE
000384: 42,2321           04040                           OCT      04040                                 #  01 3COMP  FRACTIONAL


000386: 42,2322           04140                           OCT      04140                                 #  02 3COMP  WHOLE
000387: 42,2323           04102                           OCT      04102                                 #  03 3COMP  CDU DEGREES
000388: 42,2324           00504                           OCT      00504                                 #  04 1COMP  DPDEG(360)
000389: 42,2325           00504                           OCT      00504                                 #  05 1COMP  DPDEG(360)
000390: 42,2326           04000                           OCT      04000                                 #  06 3COMP  OCTAL ONLY
000391: 42,2327           04000                           OCT      04000                                 #  07 3COMP  OCTAL ONLY
000392: 42,2330           04000                           OCT      04000                                 #  08 3COMP  OCTAL ONLY
000393: 42,2331           04000                           OCT      04000                                 #  09 3COMP  OCTAL ONLY
000394: 42,2332           00000                           OCT      00000                                 #  10 1COMP  OCTAL ONLY
000395: 42,2333           24400                           OCT      24400                                 #  11 3COMP  HMS (DEC ONLY)
000396: 42,2334           02000                           OCT      02000                                 #  12 2COMP  OCTAL ONLY
000397: 42,2335           24400                           OCT      24400                                 #  13 3COMP  HMS (DEC ONLY)
000398: 42,2336           04140                           OCT      04140                                 #  14 3COMP  WHOLE
000399: 42,2337           00000                           OCT      00000                                 #  15 1COMP  OCTAL ONLY
000400: 42,2340           24400                           OCT      24400                                 #  16 3COMP  HMS (DEC ONLY)
000401: 42,2341           00000                           OCT      0                                     #  17       SPARE
000402: 42,2342           04102                           OCT      04102                                 #  18 3COMP  CDU DEG
000403: 42,2343           00000                           OCT      00000                                 #  19        SPARE
000404: 42,2344           04102                           OCT      04102                                 #  20 3COMP  CDU DEGREES
000405: 42,2345           04140                           OCT      04140                                 #  21 3COMP  WHOLE
000406: 42,2346           04102                           OCT      04102                                 #  22 3COMP  CDU DEGREES
000407: 42,2347           00000                           OCT      00000                                 #  23        SPARE
000408: 42,2350           24400                           OCT      24400                                 #  24 3COMP  HMS (DEC ONLY)
000409: 42,2351           04140                           OCT      04140                                 #  25 3COMP  WHOLE
000410: 42,2352           04000                           OCT      04000                                 #  26 3COMP  OCTAL ONLY
000411: 42,2353           00140                           OCT      00140                                 #  27 1COMP  WHOLE
000412: 42,2354           00000                           OCT      00000                                 #  28        SPARE
000413: 42,2355           00000                           OCT      00000                                 #  29        SPARE
000414: 42,2356           00000                           OCT      0                                     #  30 SPARE
000415: 42,2357           00000                           OCT      0                                     #  31 SPARE
000416: 42,2360           24400                           OCT      24400                                 #  32 3COMP  HMS (DEC ONLY)
000417: 42,2361           24400                           OCT      24400                                 #  33 3COMP  HMS (DEC ONLY)
000418: 42,2362           24400                           OCT      24400                                 #  34 3COMP  HMS (DEC ONLY)
000419: 42,2363           24400                           OCT      24400                                 #  35 3COMP  HMS (DEC ONLY)
000420: 42,2364           24400                           OCT      24400                                 #  36 3COMP  HMS (DEC ONLY)
000421: 42,2365           24400                           OCT      24400                                 #  37 3COMP  HMS (DEC ONLY)
000422: 42,2366           24400                           OCT      24400                                 #  38 3COMP  HMS (DEC ONLY)
000423: 42,2367           00000                           OCT      00000                                 #  39        SPARE
000424:                                                                                                  #  END OF NNTYPTAB FOR NORMAL NOUNS
000425:
000426:
000427:                                                                                                  #  NN   MIXED NOUNS
000428: 42,2370           24500                           OCT      24500                                 #  40 3COMP  MIN/SEC, VEL3, VEL3
000429:                                                                                                  #            (NO LOAD, DEC ONLY)
000430: 42,2371           00542                           OCT      00542                                 #  41 2COMP  CDU DEG, ELEV DEG
000431: 42,2372           24410                           OCT      24410                                 #  42 3COMP  POS4, POS4, VEL3
000432:                                                                                                  #            (DEC ONLY)
000433: 42,2373           20204                           OCT      20204                                 #  43 3COMP  DPDEG(360), DPDEG(360), POS4
000434:                                                                                                  #            (DEC ONLY)
000435: 42,2374           00410                           OCT      00410                                 #  44 3COMP  POS4, POS4, MIN/SEC


000437:                                                                                                  #            (NO LOAD, DEC ONLY)
000438: 42,2375           10000                           OCT      10000                                 #  45 3COMP  WHOLE, MIN/SEC, DPDEG(360)
000439:                                                                                                  #            (NO LOAD, DEC ONLY)
000440: 42,2376           00000                           OCT      00000                                 #  46 1COMP  OCTAL ONLY
000441: 42,2377           00306                           OCT      00306                                 #  47 2COMP WEIGHT2 FOR EACH
000442:                                                                                                  #            (DEC ONLY)
000443: 42,2400           01367                           OCT      01367                                 #  48 2COMP  TRIM DEG2 FOR EACH
000444:                                                                                                  #            (DEC ONLY)
000445: 42,2401           00510                           OCT      00510                                 #  49 3COMP  POS4, VEL3, WHOLE
000446:                                                                                                  #            (DEC ONLY)
000447: 42,2402           00000                           OCT      0                                     #  50        SPARE
000448: 42,2403           00204                           OCT      00204                                 #  51 2COMP  DPDEG(360), DPDEG(360)
000449:                                                                                                  #            (DEC ONLY)
000450: 42,2404           00004                           OCT      00004                                 #  52 1COMP  DPDEG(360)
000451: 42,2405           00000                           OCT      00000                                 #  53        SPARE
000452: 42,2406           10507                           OCT      10507                                 #  54 3COMP  POS5, VEL3, DPDEG(360)
000453:                                                                                                  #            (DEC ONLY)
000454: 42,2407           10200                           OCT      10200                                 #  55 3COMP  WHOLE, DPDEG(360), DPDEG(360)
000455:                                                                                                  #            (DEC ONLY)
000456: 42,2410           00204                           OCT      00204                                 #  56 2COMP  DPDEG(360), DPDEG(360)
000457: 42,2411           00000                           OCT      00000                                 #  57        SPARE
000458:                                                                                                  #            (DEC ONLY)
000459: 42,2412           24510                           OCT      24510                                 #  58 3COMP  POS4, VEL3, VEL3
000460:                                                                                                  #            (DEC ONLY)
000461: 42,2413           24512                           OCT      24512                                 #  59 3COMP  VEL3 FOR EACH
000462:                                                                                                  #            (DEC ONLY)
000463: 42,2414           60521                           OCT      60521                                 #  60 3COMP  FOR/LAT VEL, VEL3, COMP ALT
000464:                                                                                                  #            (DEC ONLY)
000465: 42,2415           54000                           OCT      54000                                 #  61 3COMP  MIN/SEC, MIN/SEC, POS7
000466:                                                                                                  #            (NO LOAD, DEC ONLY)
000467: 42,2416           24012                           OCT      24012                                 #  62 3COMP  VEL3, MIN/SEC, VEL3
000468:                                                                                                  #            (NO LOAD, DEC ONLY)
000469: 42,2417           60512                           OCT      60512                                 #  63 3COMP  VEL3, VEL3, COMP ALT
000470:                                                                                                  #            (DEC ONLY)
000471: 42,2420           60500                           OCT      60500                                 #  64 3COMP  2INT, VEL3, COMP ALT
000472:                                                                                                  #            (NO LOAD, DEC ONLY)
000473: 42,2421           00000                           OCT      00000                                 #  65 3COMP  HMS (DEC ONLY)
000474: 42,2422           00016                           OCT      00016                                 #  66 2COMP  LANDING RADAR ALT, POSITION
000475:                                                                                                  #            (NO LOAD, DEC ONLY)
000476: 42,2423           53223                           OCT      53223                                 #  67 3COMP LANDING RADAR VELX, Y, Z
000477: 42,2424           60026                           OCT      60026                                 #  68 3COMP  POS7, MIN/SEC, COMP ALT
000478:                                                                                                  #            (NO LOAD, DEC ONLY)
000479: 42,2425           61430                           OCT      61430                                 #  69 3COMP  COMP ALT, COMP ALT, COMP ALT
000480:                                                                                                  #            (DEC ONLY)
000481: 42,2426           00000                           OCT      0                                     #  70 3COMP  OCTAL ONLY FOR EACH
000482: 42,2427           00000                           OCT      0                                     #  71 3COMP  OCTAL ONLY FOR EACH
000483: 42,2430           00102                           OCT      00102                                 #  72 2COMP  360-CDU DEG, CDU DEG
000484: 42,2431           00102                           OCT      00102                                 #  73 2COMP  360-CDU DEG, CDU DEG
000485: 42,2432           10200                           OCT      10200                                 #  74 3COMP  MIN/SEC, DPDEG(360),DPDEG(360)
000486:                                                                                                  #            (NO LOAD, DEC ONLY)


000488: 42,2433           00010                           OCT      00010                                 #  75 3COMP  POS4, MIN/SEC, MIN/SEC
000489:                                                                                                  #            (NO LOAD, DEC ONLY)
000490: 42,2434           20512                           OCT      20512                                 #  76 3COMP  VEL3, VEL3, POS4
000491:                                                                                                  #            (DEC ONLY)
000492: 42,2435           00500                           OCT      00500                                 #  77 2COMP  MIN/SEC, VEL3
000493:                                                                                                  #            (NO LOAD, DEC ONLY)
000494: 42,2436           00654                           OCT      00654                                 #  78 3COMP  RR RANGE, RR RANGE RATE, M/S
000495:                                                                                                  #            (NO LOAD, DEC ONLY)
000496: 42,2437           00102                           OCT      00102                                 #  79 3COMP  CDU DEG, CDU DEG, WHOLE
000497:                                                                                                  #            (DEC ONLY)
000498: 42,2440           00200                           OCT      00200                                 #  80 2COMP  WHOLE, DPDEG(360)
000499: 42,2441           24512                           OCT      24512                                 #  81 3COMP  VEL3 FOR EACH
000500:                                                                                                  #            (DEC ONLY)
000501: 42,2442           24512                           OCT      24512                                 #  82 3COMP  VEL3 FOR EACH
000502:                                                                                                  #            (DEC ONLY)
000503: 42,2443           24512                           OCT      24512                                 #  83 3COMP  VEL3 FOR EACH
000504:                                                                                                  #            (DEC ONLY)
000505: 42,2444           24512                           OCT      24512                                 #  84 3COMP  VEL3 FOR EACH
000506:                                                                                                  #            (DEC ONLY)
000507: 42,2445           24512                           OCT      24512                                 #  85 3COMP  VEL3 FOR EACH
000508:                                                                                                  #            (DEC ONLY)
000509: 42,2446           24512                           OCT      24512                                 #  86 3COMP  VEL3 FOR EACH
000510:                                                                                                  #            (DEC ONLY)
000511: 42,2447           00102                           OCT      00102                                 #  87 2COMP  CDU DEG FOR EACH
000512: 42,2450           00000                           OCT      0                                     #  88 3COMP  FRAC FOR EACH
000513:                                                                                                  #             (DEC ONLY)
000514: 42,2451           16143                           OCT      16143                                 #  89 3COMP  DPDEG(90), DPDEG(90), POS5
000515:                                                                                                  #            (DEC ONLY)
000516: 42,2452           10507                           OCT      10507                                 #  90 3COMP  POS5, VEL3, DPDEG(360)
000517:                                                                                                  #            (DEC ONLY)
000518: 42,2453           10450                           OCT      10450                                 #  91 3COMP  POS4, VEL2, DPDEG(360)
000519: 42,2454           60500                           OCT      60500                                 #  92 3COMP  WHOLE, VEL3, COMP ALT
000520: 42,2455           06143                           OCT      06143                                 #  93 3COMP  DPDEG(90) FOR EACH
000521: 42,2456           00000                           OCT      00000                                 #  94        SPARE
000522: 42,2457           00000                           OCT      0                                     #  95        SPARE
000523: 42,2460           00000                           OCT      0                                     #  96        SPARE
000524: 42,2461           00000                           OCT      00000                                 #  97 3COMP  WHOLE FOR EACH
000525: 42,2462           00000                           OCT      00000                                 #  98 3COMP  WHOLE, FRAC, WHOLE
000526: 42,2463           71572                           OCT      71572                                 #  99 3COMP  POS9, VEL4, RADIANS
000527:                                                                                                  #            (DEC ONLY)
000528:                                                                                                  #  END OF NNTYPTAB FOR MIXED NOUNS
000529:
000530:
000531: 42,2464           00006        SFINTAB            OCT      00006                                 #  WHOLE, DP TIME (SEC)
000532: 42,2465           03240                           OCT      03240
000533: 42,2466           00000                           OCT      00000                                 #  SPARE
000534: 42,2467           00000                           OCT      00000
000535: 42,2470           00000                           OCT      00000                                 #  CDU DEGREES, 360-CDU DEGREES
000536: 42,2471           00000                           OCT      00000                                 #      (SFCONS IN DEGINSF)
000537: 42,2472           10707                           OCT      10707                                 #  DP DEGREES (90)


000539: 42,2473           03435                           OCT      03435                                 #          UPPED BY 1
000540: 42,2474           13070                           OCT      13070                                 #  DP DEGREES (360)(POINT BETWN BITS 11-12)
000541: 42,2475           34345                           OCT      34345                                 #          UPPED BY 1
000542: 42,2476           00005                           OCT      00005                                 #  DEGREES (180)
000543: 42,2477           21616                           OCT      21616
000544: 42,2500           26113                           OCT      26113                                 #  WEIGHT2
000545: 42,2501           31713                           OCT      31713
000546: 42,2502           00070                           OCT      00070                                 #  POSITION5
000547: 42,2503           20460                           OCT      20460
000548: 42,2504           01065                           OCT      01065                                 #  POSITION4
000549: 42,2505           05740                           OCT      05740
000550: 42,2506           11414                           OCT      11414                                 #  VELOCITY2       (POINT BETWN BITS 11-12)
000551: 42,2507           31463                           OCT      31463
000552: 42,2510           07475                           OCT      07475                                 #  VELOCITY3
000553: 42,2511           16051                           OCT      16051
000554: 42,2512           00001                           OCT      00001                                 #  ELEVATION DEGREES
000555: 42,2513           03434                           OCT      03434
000556: 42,2514           00047                           OCT      00047                                 #  RENDEZVOUS RADAR RANGE
000557: 42,2515           21135                           OCT      21135
000558: 42,2516           77766                           OCT      77766                                 #  RENDEZVOUS RADAR RANGE RATE
000559: 42,2517           50711                           OCT      50711
000560: 42,2520           00005 25006                     2DEC*    .9267840599 E5         B-28*           #  LANDING RADAR ALTITUDE
000561:
000562: 42,2522           00002                           OCT      00002                                 #  INITIAL/FINAL ALTITUDE
000563: 42,2523           23224                           OCT      23224
000564: 42,2524           00014                           OCT      00014                                 #  ALTITUDE RATE
000565: 42,2525           06500                           OCT      06500
000566: 42,2526           35152 21203                     2DEC     5.571      E-5        B14             #  FORWARD/LATERAL VELOCITY
000567:
000568: 42,2530           04256                           OCT      04256                                 #  ROT HAND CONT ANGLE RATE
000569: 42,2531           07071                           OCT      07071
000570: 42,2532           77766 60557                     2DEC*    -1.552795030 E5         B-28*           #  LANDING RADAR VELX
000571:
000572: 42,2534           00005 01114                     2DEC*    .8250825087 E5         B-28*           #  LANDING RADAR VELY
000573:
000574: 42,2536           00007 01247                     2DEC*    1.153668673 E5         B-28*           #  LANDING RADAR VELZ
000575:
000576: 42,2540           04324                           OCT      04324                                 #  POSITION7
000577: 42,2541           27600                           OCT      27600
000578: 42,2542           00036                           OCT      00036                                 #  TRIM DEGREES2
000579: 42,2543           20440                           OCT      20440
000580: 42,2544           00035                           OCT      00035                                 #  COMPUTED ALTITUDE
000581: 42,2545           30400                           OCT      30400
000582: 42,2546           23420                           OCT      23420                                 #  DP DEGREES
000583: 42,2547           00000                           OCT      00000
000584: 42,2550           01670 20000                     2DEC     30480      B-19                       #  POSITION 9
000585:
000586: 42,2552           07475 16051                     2DEC     30.48      B-7                        #  VELOCITY4
000587:
000588: 42,2554           14400 00000                     2DEC     100        B-8                        #  RADIANS
000589:


000591:                                                                                                  #  END OF SFINTAB
000592:
000593:
000594: 42,2556           05174        SFOUTAB            OCT      05174                                 #  WHOLE, DP TIME (SEC)
000595: 42,2557           13261                           OCT      13261
000596: 42,2560           00000                           OCT      00000                                 #  SPARE
000597: 42,2561           00000                           OCT      00000
000598: 42,2562           00000                           OCT      00000                                 #  CDU DEGREES, 360-CDU DEGREES
000599: 42,2563           00000                           OCT      00000                                 #      (SFCONS IN DEGOUTSF, 360-CDUO)
000600: 42,2564           00714                           OCT      00714                                 #  DP DEGREES (90) (POINT BETWN BITS 7-8)
000601: 42,2565           31463                           OCT      31463
000602: 42,2566           13412                           OCT      13412                                 #  DP DEGREES (360)
000603: 42,2567           07534                           OCT      07534
000604: 42,2570           05605                           OCT      05605                                 #  DEGREES (180)
000605: 42,2571           03656                           OCT      03656
000606: 42,2572           00001                           OCT      00001                                 #  WEIGHT2
000607: 42,2573           16170                           OCT      16170
000608: 42,2574           00441                           OCT      00441                                 #  POSITION5
000609: 42,2575           34306                           OCT      34306
000610: 42,2576           07176                           OCT      07176                                 #  POSITION4       (POINT BETWN BITS 7-8)
000611: 42,2577           21603                           OCT      21603
000612: 42,2600           15340                           OCT      15340                                 #  VELOCITY2
000613: 42,2601           15340                           OCT      15340
000614: 42,2602           01031                           OCT      01031                                 #  VELOCITY3       (POINT BETWN BITS 7-8)
000615: 42,2603           21032                           OCT      21032
000616: 42,2604           34631                           OCT      34631                                 #  ELEVATION DEGREES
000617: 42,2605           23146                           OCT      23146
000618: 42,2606           00636                           OCT      00636                                 #  RENDEZVOUS RADAR RANGE
000619: 42,2607           14552                           OCT      14552
000620: 42,2610           74552                           OCT      74552                                 #  RENDEZVOUS RADAR RANGE RATE
000621: 42,2611           70307                           OCT      70307
000622: 42,2612           05520 15312                     2DEC     1.079      E-5        B14             #  LANDING RADAR ALTITUDE
000623:
000624: 42,2614           14226                           OCT      14226                                 #  INITIAL/FINAL ALTITUDE
000625: 42,2615           31757                           OCT      31757
000626: 42,2616           02476                           OCT      02476                                 #  ALTITUDE RATE
000627: 42,2617           05531                           OCT      05531
000628: 42,2620           34731 22542                     2DEC     5.517      E-5        B14             #  FORWARD/LATERAL VELOCITY
000629:
000630: 42,2622           00007                           OCT      00007                                 #  ROT HAND CONT ANGLE RATE
000631: 42,2623           13734                           OCT      13734
000632: 42,2624           74477 50643                     2DEC     -.6440     E-5        B14             #  LANDING RADAR VELX
000633:
000634: 42,2626           06265 16004                     2DEC     1.212      E-5        B14             #  LANDING RADAR VELY
000635:
000636: 42,2630           04426 31433                     2DEC     .8668      E-5        B14             #  LANDING RADAR VELZ
000637:


000639: 42,2632           34772                           OCT      34772                                 #  POSITION7
000640: 42,2633           07016                           OCT      07016
000641: 42,2634           01030                           OCT      01030                                 #  TRIM DEGREES2
000642: 42,2635           33675                           OCT      33675
000643: 42,2636           01046                           OCT      01046                                 #  COMPUTED ALTITUDE
000644: 42,2637           15700                           OCT      15700
000645: 42,2640           00321                           OCT      00321                                 #  DP DEGREES
000646: 42,2641           26706                           OCT      26706
000647: 42,2642           04231 27400                     2DEC     17.2010499 B-7                        #  POSITION 9
000648:
000649: 42,2644           01031 21032                     2DEC     .032808399                            #  VELOCITY4
000650:
000651: 42,2646           12172 34122                     2DEC     .32                                   #  RADIANS
000652:
000653:                                                                                                  #  END OF SFOUTAB
000654:
000655:
000656:                                                                                                  #  NN  SF CONSTANT               SF ROUTINE
000657:
000658: 42,2650           03453        IDADDTAB           ECADR    TTOGO                                 #  40 MIN/SEC                          M/S
000659: 42,2651           03663                           ECADR    VGDISP                                #  40 VEL3                             DP3
000660: 42,2652           03507                           ECADR    DVTOTAL                               #  40 VEL3                             DP3
000661: 42,2653           01044                           ECADR    DSPTEM1                               #  41 CDU DEG                          CDU
000662: 42,2654           01045                           ECADR    DSPTEM1    +1                         #  41 ELEV DEG                         ARTH
000663: 42,2655           00000                           OCT      0                                     #  41 SPARE COMPONENT
000664: 42,2656           02316                           ECADR    HAPO                                  #  42 POS4                             DP3
000665: 42,2657           02320                           ECADR    HPER                                  #  42 POS4                             DP3
000666: 42,2660           03663                           ECADR    VGDISP                                #  42 VEL3                             DP3
000667: 42,2661           01117                           ECADR    LAT                                   #  43 DPDEG(360)                       DP4
000668: 42,2662           01121                           ECADR    LONG                                  #  43 DPDEG(360)                       DP4
000669: 42,2663           01123                           ECADR    ALT                                   #  43 POS4                             DP3
000670: 42,2664           02117                           ECADR    HAPOX                                 #  44 POS4                             DP3
000671: 42,2665           02121                           ECADR    HPERX                                 #  44 POS4                             DP3
000672: 42,2666           02140                           ECADR    TFF                                   #  44 MIN/SEC                          M/S
000673: 42,2667           03462                           ECADR    TRKMKCNT                              #  45 WHOLE                            ARTH
000674: 42,2670           03453                           ECADR    TTOGO                                 #  45 MIN/SEC                          M/S
000675: 42,2671           02252                           ECADR    +MGA                                  #  45 DPDEG(360)                       DP4
000676: 42,2672           01340                           ECADR    DAPDATR1                              #  46 OCTAL ONLY                       OCT
000677: 42,2673           00000                           OCT      0                                     #  46 SPARE COMPONENT
000678: 42,2674           00000                           OCT      0                                     #  46 SPARE COMPONENT
000679: 42,2675           01326                           ECADR    LEMMASS                               #  47 WEIGHT2                         ARTH1
000680: 42,2676           01327                           ECADR    CSMMASS                               #  47 WEIGHT2                         ARTH1
000681: 42,2677           00000                           OCT      0                                     #  47 SPARE COMPONENT
000682: 42,2700           03002                           ECADR    PITTIME                               #  48 TRIM DEG2                        ARTH
000683: 42,2701           03001                           ECADR    ROLLTIME                              #  48 TRIM DEG2                        ARTH
000684: 42,2702           00000                           OCT      0                                     #  48 SPARE COMPONENT


000686: 42,2703           00314                           ECADR    R22DISP                               #  49 POS4                             DP3
000687: 42,2704           00316                           ECADR    R22DISP    +2                         #  49 VEL3                             DP3
000688: 42,2705           01353                           ECADR    WHCHREAD                              #  49 WHOLE                            ARTH
000689: 42,2706           00000                           OCT      0                                     #  50 SPARE
000690: 42,2707           00000                           OCT      0                                     #  50 SPARE
000691: 42,2710           00000                           OCT      0                                     #  50 SPARE
000692: 42,2711           02200                           ECADR    ALPHASB                               #  51 DPDEG(360)                       DP4
000693: 42,2712           02202                           ECADR    BETASB                                #  51 DPDEG(360)                       DP4
000694: 42,2713           00000                           OCT      0                                     #  51 SPARE COMPONENT
000695: 42,2714           01753                           ECADR    ACTCENT                               #  52 DPDEG(360)                       DP4
000696: 42,2715           00000                           OCT      00000                                 #  52 SPARE COMPONENT
000697: 42,2716           00000                           OCT      00000                                 #  52 SPARE COMPONENT
000698: 42,2717           00000                           OCT      00000                                 #  53 SPARE
000699: 42,2720           00000                           OCT      00000                                 #  53
000700: 42,2721           00000                           OCT      00000                                 #  53
000701: 42,2722           02200                           ECADR    RANGE                                 #  54 POS5                             DP1
000702: 42,2723           02202                           ECADR    RRATE                                 #  54 VEL3                             DP3
000703: 42,2724           02204                           ECADR    RTHETA                                #  54 DPDEG(360)                       DP4
000704: 42,2725           03466                           ECADR    NN                                    #  55 WHOLE                            ARTH
000705: 42,2726           02256                           ECADR    ELEV                                  #  55 DPDEG(360)                       DP4
000706: 42,2727           03620                           ECADR    CENTANG                               #  55 DPDEG(360)                       DP4
000707: 42,2730           02200                           ECADR    RR-AZ                                 #  56 DPDEG(360)                       DP4
000708: 42,2731           02202                           ECADR    RR-ELEV                               #  56 DPDEG(360)                       DP4
000709: 42,2732           00000                           OCT      0                                     #  56 SPARE COMPONENT
000710: 42,2733           00000                           OCT      0                                     #  57 SPARE
000711: 42,2734           00000                           OCT      0                                     #  57 SPARE
000712: 42,2735           00000                           OCT      0                                     #  57 SPARE
000713: 42,2736           03605                           ECADR    POSTTPI                               #  58 POS4                             DP3
000714: 42,2737           03575                           ECADR    DELVTPI                               #  58 VEL3                             DP3
000715: 42,2740           02347                           ECADR    DELVTPF                               #  58 VEL3                             DP3
000716: 42,2741           02302                           ECADR    DVLOS                                 #  59 VEL3                             DP3
000717: 42,2742           02304                           ECADR    DVLOS      +2                         #  59 VEL3                             DP3
000718: 42,2743           02306                           ECADR    DVLOS      +4                         #  59 VEL3                             DP3
000719: 42,2744           03701                           ECADR    FORVEL                                #  60 FOR/LAT VEL                      ARTH
000720: 42,2745           03473                           ECADR    HDOTDISP                              #  60 VEL3                             DP3
000721: 42,2746           03774                           ECADR    HCALC1                                #  60 COMP ALT                         DP1
000722: 42,2747           03475                           ECADR    TTFDISP                               #  61 MIN/SEC                          M/S
000723: 42,2750           03453                           ECADR    TTOGO                                 #  61 MIN/SEC                          M/S
000724: 42,2751           02613                           ECADR    OUTOFPLN                              #  61 POS7                             DP4
000725: 42,2752           03471                           ECADR    ABVEL                                 #  62 VEL3                             DP3
000726: 42,2753           03453                           ECADR    TTOGO                                 #  62 MIN/SEC                          M/S
000727: 42,2754           03507                           ECADR    DVTOTAL                               #  62 VEL3                             DP3
000728: 42,2755           03471                           ECADR    ABVEL                                 #  63 VEL3                             DP3
000729: 42,2756           03473                           ECADR    HDOTDISP                              #  63 VEL3                             DP3
000730: 42,2757           03774                           ECADR    HCALC1                                #  63 COMP ALT                         DP1
000731: 42,2760           03666                           ECADR    FUNNYDSP                              #  64 2INT                             2INT
000732: 42,2761           03473                           ECADR    HDOTDISP                              #  64 VEL3                             DP3
000733: 42,2762           03534                           ECADR    HCALC                                 #  64 COMP ALT                         DP1
000734: 42,2763           00013                           ECADR    SAMPTIME                              #  65 HMS (MIXED ONLY TO KEEP CODE 65) HMS
000735: 42,2764           00013                           ECADR    SAMPTIME                              #  65 HMS                              HMS


000737: 42,2765           00013                           ECADR    SAMPTIME                              #  65 HMS                              HMS
000738: 42,2766           02206                           ECADR    RSTACK     +6                         #  66 LANDING RADAR ALT                DP1
000739: 42,2767           00000                           OCT      0                                     #  66 LR POSITION                     LRPOS
000740: 42,2770           00000                           OCT      0                                     #  66 SPARE COMPONENT
000741: 42,2771           02200                           ECADR    RSTACK                                #  67 LANDING RADAR VELX               DP1
000742: 42,2772           02202                           ECADR    RSTACK     +2                         #  67 LANDING RADAR VELY               DP1
000743: 42,2773           02204                           ECADR    RSTACK     +4                         #  67 LANDING RADAR VELZ               DP1
000744: 42,2774           02613                           ECADR    RANGEDSP                              #  68 POS7                             DP4
000745: 42,2775           03475                           ECADR    TTFDISP                               #  68 MIN/SEC                          M/S
000746: 42,2776           03664                           ECADR    DELTAH                                #  68 COMP ALT                         DP1
000747: 42,2777           02635                           ECADR    DLANDZ                                #  69 COMP ALT                         DP1
000748: 42,3000           02633                           ECADR    DLANDY                                #  69 COMP ALT                         DP1
000749: 42,3001           02631                           ECADR    DLANDX                                #  69 COMP ALT                         DP1
000750: 42,3002           00734                           ECADR    AOTCODE                               #  70 OCTAL ONLY                       OCT
000751: 42,3003           00735                           ECADR    AOTCODE    +1                         #  70 OCTAL ONLY                       OCT
000752: 42,3004           00736                           ECADR    AOTCODE    +2                         #  70 OCTAL ONLY                       OCT
000753: 42,3005           00734                           ECADR    AOTCODE                               #  71 OCTAL ONLY                       OCT
000754: 42,3006           00735                           ECADR    AOTCODE    +1                         #  71 OCTAL ONLY                       OCT
000755: 42,3007           00736                           ECADR    AOTCODE    +2                         #  71 OCTAL ONLY                       OCT
000756: 42,3010           00035                           ECADR    CDUT                                  #  72 360-CDU DEG                   360-CDU
000757: 42,3011           00036                           ECADR    CDUS                                  #  72 CDU DEG                          CDU
000758: 42,3012           00000                           OCT      0                                     #  72 SPARE COMPONENT
000759: 42,3013           01106                           ECADR    TANG                                  #  73 360-CDU DEG                   360-CDU
000760: 42,3014           01107                           ECADR    TANG       +1                         #  73 CDU DEG                          CDU
000761: 42,3015           00000                           OCT      0                                     #  73 SPARE COMPONENT
000762: 42,3016           03453                           ECADR    TTOGO                                 #  74 MIN/SEC                          M/S
000763: 42,3017           02330                           ECADR    YAW                                   #  74 DPDEG(360)                       DP4
000764: 42,3020           02332                           ECADR    PITCH                                 #  74 DPDEG(360)                       DP4
000765: 42,3021           03577                           ECADR    DIFFALT                               #  75 POS4                             DP3
000766: 42,3022           02252                           ECADR    T1TOT2                                #  75 MIN/SEC
000767: 42,3023           02254                           ECADR    T2TOT3                                #  75 MIN/SEC                          M/S
000768: 42,3024           02244                           ECADR    ZDOTD                                 #  76 VEL3                             DP3
000769: 42,3025           02240                           ECADR    RDOTD                                 #  76 VEL3                             DP3
000770: 42,3026           03642                           ECADR    XRANGE                                #  76 POS4                             DP3
000771: 42,3027           03453                           ECADR    TTOGO                                 #  77 MIN/SEC                          M/S
000772: 42,3030           02256                           ECADR    YDOT                                  #  77 VEL3                             DP3
000773: 42,3031           00000                           OCT      0                                     #  77 SPARE COMPONENT
000774: 42,3032           01330                           ECADR    DNRRANGE                              #  78 RR RANGE                     RR RANGE
000775: 42,3033           01331                           ECADR    DNRRDOT                               #  78 RR RANGE RATE           RR RANGE RATE
000776: 42,3034           01271                           ECADR    TTOTIG                                #  78 MIN/SEC                           M/S
000777: 42,3035           01235                           ECADR    CURSOR                                #  79 CDU DEG                          CDU
000778: 42,3036           01236                           ECADR    SPIRAL                                #  79 CDU DEG                          CDU
000779: 42,3037           01241                           ECADR    POSCODE                               #  79 WHOLE                            ARTH
000780: 42,3040           03733                           ECADR    DATAGOOD                              #  80 WHOLE                            ARTH
000781: 42,3041           03734                           ECADR    OMEGAD                                #  80 DPDEG(360)                       DP4
000782: 42,3042           00000                           OCT      0                                     #  80 SPARE COMPONENT
000783: 42,3043           03433                           ECADR    DELVLVC                               #  81 VEL3                             DP3
000784: 42,3044           03435                           ECADR    DELVLVC    +2                         #  81 VEL3                             DP3
000785: 42,3045           03437                           ECADR    DELVLVC    +4                         #  81 VEL3                             DP3
000786: 42,3046           03433                           ECADR    DELVLVC                               #  82 VEL3                             DP3


000788: 42,3047           03435                           ECADR    DELVLVC    +2                         #  82 VEL3                             DP3
000789: 42,3050           03437                           ECADR    DELVLVC    +4                         #  82 VEL3                             DP3
000790: 42,3051           03622                           ECADR    DELVIMU                               #  83 VEL3                             DP3
000791: 42,3052           03624                           ECADR    DELVIMU    +2                         #  83 VEL3                             DP3
000792: 42,3053           03626                           ECADR    DELVIMU    +4                         #  83 VEL3                             DP3
000793: 42,3054           02222                           ECADR    DELVOV                                #  84 VEL3                             DP3
000794: 42,3055           02224                           ECADR    DELVOV     +2                         #  84 VEL3                             DP3
000795: 42,3056           02226                           ECADR    DELVOV     +4                         #  84 VEL3                             DP3
000796: 42,3057           03501                           ECADR    VGBODY                                #  85 VEL3                             DP3
000797: 42,3060           03503                           ECADR    VGBODY     +2                         #  85 VEL3                             DP3
000798: 42,3061           03505                           ECADR    VGBODY     +4                         #  85 VEL3                             DP3
000799: 42,3062           03433                           ECADR    DELVLVC                               #  86 VEL3                             DP3
000800: 42,3063           03435                           ECADR    DELVLVC    +2                         #  86 VEL3                             DP3
000801: 42,3064           03437                           ECADR    DELVLVC    +4                         #  86 VEL3                             DP3
000802: 42,3065           01344                           ECADR    AZ                                    #  87 CDU DEG                          CDU
000803: 42,3066           01345                           ECADR    EL                                    #  87 CDU DEG                          CDU
000804: 42,3067           00000                           OCT      0                                     #  87 SPARE COMPONENT
000805: 42,3070           02706                           ECADR    STARAD                                #  88 FRAC                             FRAC
000806: 42,3071           02710                           ECADR    STARAD     +2                         #  88 FRAC                             FRAC
000807: 42,3072           02712                           ECADR    STARAD     +4                         #  88 FRAC                             FRAC
000808: 42,3073           02706                           ECADR    LANDLAT                               #  89 DPDEG(90)                        DP3
000809: 42,3074           02710                           ECADR    LANDLONG                              #  89 DPDEG(90)                        DP3
000810: 42,3075           02712                           ECADR    LANDALT                               #  89 POS5                             DP1
000811: 42,3076           02200                           ECADR    RANGE                                 #  90 POS5                              DP1
000812: 42,3077           02202                           ECADR    RRATE                                 #  90  VEL3                             DP3
000813: 42,3100           02204                           ECADR    RTHETA                                #  90 DPDEG(360)                        DP4
000814: 42,3101           03715                           ECADR    P21ALT                                #  91 POS4                             DP3
000815: 42,3102           03711                           ECADR    P21VEL                                #  91 VEL2                             DP4
000816: 42,3103           03713                           ECADR    P21GAM                                #  91 DPDEG(360)                       DP4
000817: 42,3104           03750                           ECADR    THRDISP                               #  92 WHOLE                            ARTH
000818: 42,3105           03473                           ECADR    HDOTDISP                              #  92 VEL3                             DP3
000819: 42,3106           03774                           ECADR    HCALC1                                #  92 COMP ALT                         DP1
000820: 42,3107           02737                           ECADR    OGC                                   #  93 DPDEG(90)                        DP3
000821: 42,3110           02741                           ECADR    OGC        +2                         #  93 DPDEG(90)                        DP3
000822: 42,3111           02743                           ECADR    OGC        +4                         #  93 DPDEG(90)                        DP3
000823: 42,3112           00000                           OCT      00000                                 #  94 SPARE
000824: 42,3113           00000                           OCT      00000                                 #  94
000825: 42,3114           00000                           OCT      00000                                 #  94
000826: 42,3115           00000                           OCT      0                                     #  95 SPARE
000827: 42,3116           00000                           OCT      0                                     #  95 SPARE
000828: 42,3117           00000                           OCT      0                                     #  95 SPARE
000829: 42,3120           00000                           OCT      0                                     #  96 SPARE
000830: 42,3121           00000                           OCT      0                                     #  96 SPARE
000831: 42,3122           00000                           OCT      0                                     #  96 SPARE
000832: 42,3123           01044                           ECADR    DSPTEM1                               #  97 WHOLE                            ARTH
000833: 42,3124           01045                           ECADR    DSPTEM1    +1                         #  97 WHOLE                            ARTH
000834: 42,3125           01046                           ECADR    DSPTEM1    +2                         #  97 WHOLE                            ARTH
000835: 42,3126           01047                           ECADR    DSPTEM2                               #  98 WHOLE                            ARTH
000836: 42,3127           01050                           ECADR    DSPTEM2    +1                         #  98 FRAC                             FRAC
000837: 42,3130           01051                           ECADR    DSPTEM2    +2                         #  98 WHOLE                            ARTH


000839: 42,3131           02200                           ECADR    WWPOS                                 #  99 POS9                             DP3
000840: 42,3132           02202                           ECADR    WWVEL                                 #  99 VEL4                             DP2
000841: 42,3133           02204                           ECADR    WWBIAS                                #  99 RADIANS                          DP4
000842:                                                                                                  #  END OF IDADDTAB
000843:
000844:
000845:                                                                                                  #  NN  SF ROUTINES
000846:
000847: 42,3134           16351        RUTMXTAB           OCT      16351                                 #  40 M/S, DP3, DP3
000848: 42,3135           00142                           OCT      00142                                 #  41 CDU, ARTH
000849: 42,3136           16347                           OCT      16347                                 #  42 DP3, DP3, DP3
000850: 42,3137           16512                           OCT      16512                                 #  43 DP4, DP4, DP3
000851: 42,3140           22347                           OCT      22347                                 #  44 DP3, DP3, M/S
000852: 42,3141           24443                           OCT      24443                                 #  45 ARTH, M/S, DP4
000853: 42,3142           00000                           OCT      00000                                 #  46 OCT
000854: 42,3143           00553                           OCT      00553                                 #  47 ARITH1, ARITH1
000855: 42,3144           00143                           OCT      00143                                 #  48 ARTH, ARTH
000856: 42,3145           06347                           OCT      06347                                 #  49 DP3, DP3, ARTH
000857: 42,3146           00000                           OCT      0                                     #  50 SPARE
000858: 42,3147           00512                           OCT      00512                                 #  51 DP4, DP4
000859: 42,3150           00012                           OCT      00012                                 #  52 DP4
000860: 42,3151           00000                           OCT      00000                                 #  53 SPARE
000861: 42,3152           24344                           OCT      24344                                 #  54 DP1, DP3, DP4
000862: 42,3153           24503                           OCT      24503                                 #  55 ARTH, DP4 , DP4
000863: 42,3154           00512                           OCT      00512                                 #  56 DP4, DP4
000864: 42,3155           00000                           OCT      0                                     #  57 SPARE
000865: 42,3156           16347                           OCT      16347                                 #  58 DP3, DP3, DP3
000866: 42,3157           16347                           OCT      16347                                 #  59 DP3, DP3, DP3
000867: 42,3160           10343                           OCT      10343                                 #  60 ARTH, DP3, DP1
000868: 42,3161           24451                           OCT      24451                                 #  61 M/S, M/S, DP4
000869: 42,3162           16447                           OCT      16447                                 #  62 DP3, M/S, DP3
000870: 42,3163           10347                           OCT      10347                                 #  63 DP3, DP3, DP1
000871: 42,3164           10354                           OCT      10354                                 #  64 2INT, DP3, DP1
000872: 42,3165           20410                           OCT      20410                                 #  65 HMS, HMS, HMS
000873: 42,3166           00304                           OCT      00304                                 #  66 DP1, LRPOS
000874: 42,3167           10204                           OCT      10204                                 #  67 DP1, DP1, DP1
000875: 42,3170           10452                           OCT      10452                                 #  68 DP4, M/S, DP1
000876: 42,3171           10204                           OCT      10204                                 #  69 DP1, DP1, DP1
000877: 42,3172           00000                           OCT      0                                     #  70 OCT, OCT, OCT
000878: 42,3173           00000                           OCT      0                                     #  71 OCT, OCT, OCT
000879: 42,3174           00115                           OCT      00115                                 #  72 360-CDU, CDU
000880: 42,3175           00115                           OCT      00115                                 #  73 360-CDU, CDU
000881: 42,3176           24511                           OCT      24511                                 #  74M/S, DP4,DP4
000882: 42,3177           22447                           OCT      22447                                 #  75 DP3, M/S, M/S
000883: 42,3200           16347                           OCT      16347                                 #  76 DP3, DP3, DP3
000884: 42,3201           00351                           OCT      00351                                 #  77 M/S, DP3
000885: 42,3202           22756                           OCT      22756                                 #  78 RR RANGE, RR RANGE RATE, M/S
000886: 42,3203           06102                           OCT      06102                                 #  79 CDU, CDU, ARTH
000887: 42,3204           00503                           OCT      00503                                 #  80 ARTH, DP4
000888: 42,3205           16347                           OCT      16347                                 #  81 DP3, DP3, DP3


000890: 42,3206           16347                           OCT      16347                                 #  82 DP3, DP3, DP3
000891: 42,3207           16347                           OCT      16347                                 #  83 DP3, DP3, DP3
000892: 42,3210           16347                           OCT      16347                                 #  84 DP3, DP3, DP3
000893: 42,3211           16347                           OCT      16347                                 #  85 DP3, DP3, DP3
000894: 42,3212           16347                           OCT      16347                                 #  86 DP3, DP3, DP3
000895: 42,3213           00102                           OCT      00102                                 #  87 CDU, CDU
000896: 42,3214           02041                           OCT      02041                                 #  88 FRAC FOR EACH
000897: 42,3215           10347                           OCT      10347                                 #  89 DP3, DP3, DP1
000898: 42,3216           24344                           OCT      24344                                 #  90 DP1, DP3, DP4
000899: 42,3217           24507                           OCT      24507                                 #  91 DP3, DP4, DP4
000900: 42,3220           10343                           OCT      10343                                 #  92 ARTH, DP3, DP1
000901: 42,3221           16347                           OCT      16347                                 #  93 DP3, DP3, DP3
000902: 42,3222           00000                           OCT      00000                                 #  94 SPARE
000903: 42,3223           00000                           OCT      0                                     #  95 SPARE
000904: 42,3224           00000                           OCT      0                                     #  96 SPARE
000905: 42,3225           06143                           OCT      06143                                 #  97 ARTH, ARTH, ARTH
000906: 42,3226           06043                           OCT      06043                                 #  98 ARTH, FRAC, ARTH
000907: 42,3227           24247                           OCT      24247                                 #  99 DP3, DP2, DP4
000908:                                                                                                  #  END OF RUTMXTAB
000909:
000910:
000911: 42,3230  30,2000                                  SBANK=   LOWSUPER

End of include-file PINBALL_NOUN_TABLES.agc.  Parent file is MAIN.agc


