
Source Code


000002:                                                                                                  ## Copyright:   Public domain.
000003:                                                                                                  ## Filename:    PINBALL_GAME__BUTTONS_AND_LIGHTS.agc
000004:                                                                                                  ## Purpose:     A section of Luminary revision 163.
000005:                                                                                                  ##              It is part of the reconstructed source code for the first
000006:                                                                                                  ##              (unflown) release of the flight software for the Lunar
000007:                                                                                                  ##              Module's (LM) Apollo Guidance Computer (AGC) for Apollo 14.
000008:                                                                                                  ##              The code has been recreated from a reconstructed copy of
000009:                                                                                                  ##              Luminary 173, as well as Luminary memos 157 amd 158.
000010:                                                                                                  ##              It has been adapted such that the resulting bugger words
000011:                                                                                                  ##              exactly match those specified for Luminary 163 in NASA
000012:                                                                                                  ##              drawing 2021152N, which gives relatively high confidence
000013:                                                                                                  ##              that the reconstruction is correct.
000014:                                                                                                  ## Reference:   pp. 395-479
000015:                                                                                                  ## Assembler:   yaYUL
000016:                                                                                                  ## Contact:     Ron Burkey <info@sandroid.org>.
000017:                                                                                                  ## Website:     www.ibiblio.org/apollo/index.html
000018:                                                                                                  ## Mod history: 2019-08-21 MAS  Created from Luminary 173.
000019:


000021:                                                                                                  #  PROGRAM NAME - KEYBOARD AND DISPLAY PROGRAM
000022:                                                                                                  #  MOD NO - 4      DATE - 27 APRIL 1967      ASSEMBLY - PINDANCE REV 18
000023:                                                                                                  #  MOD BY - FILENE
000024:                                                                                                  #  LOG SECTION - PINBALL GAME BUTTONS AND LIGHTS
000025:
000026:                                                                                                  #  FUNCTIONAL DESCRIPTION-
000027:
000028:                                                                                                  #     THE KEYBOARD AND DISPLAY SYSTEM PROGRAM OPERATES UNDER EXECUTIVE
000029:                                                                                                  #  CONTROL AND PROCESSES INFORMATION EXCHANGED BETWEEN THE AGC AND THE
000030:                                                                                                  #  COMPUTER OPERATOR.  THE INPUTS TO THE PROGRAM ARE FROM THE KEYBOARD,
000031:                                                                                                  #  FROM INTERNAL PROGRAMS, AND FROM THE UPLINK.
000032:                                                                                                  #     THE LANGUAGE OF COMMUNICATION WITH THE PROGRAM IS A PAIR OF WORDS
000033:                                                                                                  #  KNOWN AS VERB AND NOUN.  EACH OF THESE IS REPRESENTED BY A 2 CHARACTER
000034:                                                                                                  #  DECIMAL NUMBER.  THE VERB CODE INDICATES WHAT ACTION IS TO BE TAKEN, THE
000035:                                                                                                  #  NOUN CODE INDICATES TO WHAT THIS ACTION IS APPLIED.  NOUNS USUALLY
000036:                                                                                                  #  REFER TO A GROUP OF ERASABLE REGISTERS.
000037:
000038:                                                                                                  #  VERBS ARE GROUPED INTO DISPLAYS, LOADS, MONITORS (DISPLAYS THAT ARE
000039:                                                                                                  #  UPDATED ONCE PER SECOND), SPECIAL FUNCTIONS, AND EXTENDED VERBS(THESE
000040:                                                                                                  #  ARE OUTSIDE OF THE DOMAIN OF PINBALL AND CAN BE FOUND UNDER LOG SECTION
000041:                                                                                                  #  :EXTENDED VERBS:).
000042:                                                                                                  #  A LIST OF VERBS AND NOUNS IS GIVEN IN LOG SECTION :ASSEMBLY AND
000043:                                                                                                  #  OPERATION INFORMATION:.
000044:
000045:
000046:                                                                                                  #  CALLING SEQUENCES-
000047:
000048:                                                                                                  #  KEYBOARD:
000049:                                                                                                  #     EACH DEPRESSION OF A KEYBOARD BUTTON ACTIVATES INTERRUPT KEYRUPT1
000050:                                                                                                  #  AND PLACES THE 5 BIT KEY CODE INTO CHANNEL 15.  KEYRUPT1 PLACES THE KEY
000051:                                                                                                  #  CODE INTO MPAC, ENTERS AN EXECUTIVE REQUEST FOR THE KEYBOARD AND DISPLAY
000052:                                                                                                  #  PROGRAM (AT :CHARIN:), AND EXECUTES A RESUME.
000053:
000054:                                                                                                  #  UPLINK:
000055:                                                                                                  #     EACH WORD RECEIVED BY THE UPLINK ACTIVATES INTERRUPT UPRUPT WHICH
000056:                                                                                                  #  PLACES THE 5 BIT KEY CODE INTO MPAC, ENTERS AN EXECUTIVE REQUEST FOR THE
000057:                                                                                                  #  KEYBOARD AND DISPLAY PROGRAM (AT:CHARIN:) AND EXECUTES A RESUME.
000058:
000059:                                                                                                  #  INTERNAL PROGRAMS:
000060:                                                                                                  #     INTERNAL PROGRAMS CALL PINBALL AT :NVSUB: WITH THE DESIRED VERB/NOUN
000061:                                                                                                  #  CODE IN A (LOW 7 BITS FOR NOUN, NEXT 7 BITS FOR VERB).  DETAILS
000062:                                                                                                  #  DESCRIBED ON REMARKS CARDS JUST BEFORE :NVSUB: AND :NVSBWAIT: (SEE
000063:                                                                                                  #  SYMBOL TABLE FOR PAGE NUMBERS).
000064:
000065:
000066:                                                                                                  #  NORMAL EXIT MODES-
000067:
000068:                                                                                                  #     IF PINBALL WAS CALLED BY EXTERNAL ACTION, THERE ARE FOUR EXITS:
000069:                                                                                                  #           1) ALL BUT (2), (3), AND (4) EXIT DIRECTLY TO ENDOFJOB.
000070:                                                                                                  #           2) EXTENDED VERBS GO TO THE EXTENDED VERB FAN AS PART OF THE


000072:                                                                                                  #              PINBALL EXECUTIVE JOB WITH PRIORITY 30000.  IT IS THE
000073:                                                                                                  #              RESPONSIBILITY OF THE EXTENDED VERB CALLED TO EVENTUALLY
000074:                                                                                                  #              CHANGE PRIORITY (IF NECESSARY) AND DO AN ENDOFJOB.
000075:                                                                                                  #              ALSO PINBALL IS A NOVAC JOB. EBANK SET FOR COMMON.
000076:                                                                                                  #           3) VERB 37. CHANGE OF PROGRAM (MAJOR MODE) CALLS :V37: IN THE
000077:                                                                                                  #              SERVICE ROUTINES AS PART OF THE PINBALL EXEC JOB WITH PRIO
000078:                                                                                                  #              30000.  THE NEW PROGRAM CODE (MAJOR MODE) IS LEFT IN A.
000079:                                                                                                  #           4) KEY RELEASE BUTTON CALLS :PINBRNCH: IN THE DISPLAY INTERFACE
000080:                                                                                                  #              ROUTINES AS PART OF THE PINBALL EXEC JOB WITH PRIO 30000 IF
000081:                                                                                                  #              THE KEY RELEASE LIGHT IS OFF AND :CADRSTOR: IS NOT +0.
000082:
000083:                                                                                                  #     IF PINBALL WAS CALLED BY INTERNAL PROGRAMS, EXIT FROM PINBALL IS BACK
000084:                                                                                                  #  TO CALLING ROUTINE.  DETAILS DESCRIBED IN REMARKS CARDS JUST BEFORE
000085:                                                                                                  #  :NVSUB: AND :NVSBWAIT: (SEE SYMBOL TABLE FOR PAGE NUMBERS).
000086:
000087:
000088:                                                                                                  #  ALARM OR ABORT EXIT MODES-
000089:
000090:                                                                                                  #  EXTERNAL INITIATION:
000091:                                                                                                  #     IF SOME IMPROPER SEQUENCE OF KEY CODES IS DETECTED, THE OPERATOR
000092:                                                                                                  #  ERROR LIGHT IS TURNED ON AND EXIT IS TO :ENDOFJOB:.
000093:
000094:                                                                                                  #  INTERNAL PROGRAM INITIATION:
000095:                                                                                                  #     IF AN ILLEGAL V/N COMBINATION IS ATTEMPTED, AN ABORT IS CAUSED
000096:                                                                                                  #  (WITH OCTAL 01501).
000097:                                                                                                  #     IF A SECOND ATTEMPT IS MADE TO GO TO SLEEP IN PINBALL, AN ABORT IS
000098:                                                                                                  #  CAUSED (WITH OCTAL 01206). THERE ARE TWO WAYS TO GO TO SLEEP IN PINBALL:
000099:                                                                                                  #           1) ENDIDLE OR DATAWAIT.
000100:                                                                                                  #           2) NVSBWAIT, PRENVBSY, OR NVSUBUSY.
000101:
000102:                                                                                                  #  CONDITIONS LEADING TO THE ABOVE ARE DESCRIBED IN FORTHCOMING MIT/IL
000103:                                                                                                  #  E-REPORT DESCRIBING KEYBOARD AND DISPLAY OPERATION FOR 278.
000104:
000105:
000106:                                                                                                  #  OUTPUT-
000107:
000108:                                                                                                  #     INFORMATION TO BE SENT TO THE DISPLAY PANEL IS LEFT IN THE :DSPTAB:
000109:                                                                                                  #  BUFFERS REGISTERS (UNDER EXEC CONTROL).  :DSPOUT: (A PART OF T4RUPT)
000110:                                                                                                  #  HANDLES THE PLACING OF THE :DSPTAB: INFORMATION INTO OUTPUT CHANNEL 10
000111:                                                                                                  #  IN INTERRUPT.
000112:
000113:
000114:                                                                                                  #  ERASABLE INITIALIZATION-
000115:
000116:                                                                                                  #     FRESH START AND RESTART INITIALIZE THE NECESSARY E REGISTERS FOR
000117:                                                                                                  #  PINBALL IN :STARTSUB:.   REGISTERS ARE:  DSPTAB BUFFER, CADRSTOR,
000118:                                                                                                  #  REQRET, CLPASS, DSPLOCK, MONSAVE, MONSAVE1, VERBREG, NOUNREG, DSPLIST,
000119:                                                                                                  #  DSPCOUNT, NOUT.
000120:
000121:                                                                                                  #  A COMPLETE LIST OF ALL THE ERASABLES (BOTH RESERVED AND TEMPORARIES) FOR


000123:                                                                                                  #  PINBALL IS GIVEN BELOW.
000124:
000125:
000126:                                                                                                  #  THE FOLLOWING ARE OF GENERAL INTEREST-
000127:
000128:                                                                                                  #     REMARKS CARDS PRECEDE THE REFERENCED SYMBOL DEFINITION.  SEE SYMBOL
000129:                                                                                                  #  TABLE TO FIND APPROPRIATE PAGE NUMBERS.
000130:
000131:                                                                                                  #     NVSUB   CALLING POINT FOR INTERNAL USE OF PINBALL.
000132:                                                                                                  #               OF RELATED INTEREST   NVSBWAIT
000133:                                                                                                  #                                     NVSUBUSY
000134:                                                                                                  #                                     PRENVBSY
000135:
000136:                                                                                                  #     ENDIDLE   ROUTINE FOR INTERNAL PROGRAMS WISHING TO GO TO SLEEP WHILE
000137:                                                                                                  #               AWAITING OPERATORS RESPONSE.
000138:
000139:                                                                                                  #     DSPMM   ROUTINE BY WHICH AN INTERNAL PROGRAM MAY DISPLAY A DECIMAL
000140:                                                                                                  #             PROGRAM CODE (MAJOR MODE) IN THE PROGRAM (MAJOR MODE) LIGHTS.
000141:                                                                                                  #             (DSPMM DOES NOT DISPLAY DIRECTLY BUT ENTERS EXEC REQUEST
000142:                                                                                                  #             FOR DSPMMJB WITH PRIO 30000 AND RETURNS TO CALLER.)
000143:
000144:                                                                                                  #     BLANKSUB   ROUTINE BY WHICH AN INTERNAL PROGRAM MAY BLANK ANY
000145:                                                                                                  #                COMBINATION OF THE DISPLAY REGISTERS R1, R2, R3.
000146:
000147:                                                                                                  #     JAMTERM   ROUTINES BY WHICH AN INTERNAL PROGRAM MAY PERFORM THE
000148:                                                                                                  #     JAMPROC   TERMINATE (V 34) OR PROCEED (V 33) FUNCTION.
000149:
000150:                                                                                                  #     MONITOR   VERBS FOR PERIODIC ( 1 PER SEC) DISPLAY.
000151:
000152:                                                                                                  #     PLEASE PERFORM, PLEASE MARK SITUATIONS
000153:                                                                                                  #                  REMARKS DESCRIBING HOW AN INTERNAL ROUTINE SHOULD HANDLE
000154:                                                                                                  #                  THESE SITUATIONS CAN BE FOUND JUST BEFORE :NVSUB: (SEE
000155:                                                                                                  #                  SYMBOL TABLE FOR PAGE NUMBER).
000156:
000157:                                                                                                  #     THE NOUN TABLE FORMAT IS DESCRIBED ON A PAGE OF REMARKS CARDS JUST
000158:                                                                                                  #     BEFORE :DSPABC: (SEE SYMBOL TABLE FOR PAGE NUMBER).
000159:
000160:                                                                                                  #     THE NOUN TABLES THEMSELVES ARE FOUND IN LOG SECTION :PINBALL NOUN
000161:                                                                                                  #     TABLES:.
000162:
000163:
000164:                                                                                                  #  FOR FURTHER DETAILS ABOUT OPERATION OF THE KEYBOARD AND DISPLAY SYSTEM
000165:                                                                                                  #  PROGRAM, SEE THE MISSION PLAN AND/OR MIT/IL E-2129
000166:                                                                                                  #  DESCRIBING KEYBOARD AND DISPLAY OPERATION FOR 278.


000169:
000170:
000171:                                                                                                  #  THE FOLLOWING QUOTATION IS PROVIDED THROUGH THE COURTESY OF THE AUTHORS.
000172:
000173:                                                                                                  #        ::IT WILL BE PROVED TO THY FACE THAT THOU HAST MEN ABOUT THEE THAT
000174:                                                                                                  #  USUALLY TALK OF A NOUN AND A VERB, AND SUCH ABOMINABLE WORDS AS NO


000176:                                                                                                  #  CHRISTIAN EAR CAN ENDURE TO HEAR.::
000177:
000178:                                                                                                  #                       HENRY 6, ACT 2, SCENE 4
000179:
000180:
000181:                                                                                                  #  THE FOLLOWING ASSIGNMENTS FOR PINBALL ARE MADE ELSEWHERE
000182:
000183:
000184:                                                                                                  #  RESERVED FOR PINBALL EXECUTIVE ACTION
000185:
000186:                                                                                                  #  DSPCOUNT ERASE                  DISPLAY POSITION INDICATOR
000187:                                                                                                  #  DECBRNCH ERASE                  +DEC, - DEC, OCT INDICATOR
000188:                                                                                                  #  VERBREG  ERASE                  VERB CODE
000189:                                                                                                  #  NOUNREG  ERASE                  NOUN CODE
000190:                                                                                                  #  XREG     ERASE                  R1 INPUT BUFFER
000191:                                                                                                  #  YREG     ERASE                  R2 INPUT BUFFER
000192:                                                                                                  #  ZREG     ERASE                  R3 INPUT BUFFER
000193:                                                                                                  #  XREGLP   ERASE                  LO PART OF XREG (FOR DEC CONV ONLY)
000194:                                                                                                  #  YREGLP   ERASE                  LO PART OF YREG (FOR DEC CONV ONLY)
000195:                                                                                                  #  HITEMOUT =      YREGLP          TEMP FOR DISPLAY OF HRS, MIN, SEC
000196:                                                                                                  #                                           MUST = LOTEMOUT-1.
000197:                                                                                                  #  ZREGLP   ERASE                  LO PART OF ZREG (FOR DEC CONV ONLY)
000198:                                                                                                  #  LOTEMOUT =      ZREGLP          TEMP FOR DISPLAY OF HRS, MIN, SEC
000199:                                                                                                  #                                           MUST = HITEMOUT+1.
000200:                                                                                                  #  MODREG   ERASE                  MODE CODE
000201:                                                                                                  #  DSPLOCK  ERASE                  KEYBOARD/SUBROUTINE CALL INTERLOCK
000202:                                                                                                  #  REQRET   ERASE                  RETURN REGISTER FOR LOAD
000203:                                                                                                  #  LOADSTAT ERASE                  STATUS INDICATOR FOR LOADTST
000204:                                                                                                  #  CLPASS   ERASE                  PASS INDICATOR CLEAR
000205:                                                                                                  #  NOUT     ERASE                  ACTIVITY COUNTER FOR DSPTAB
000206:                                                                                                  #  NOUNCADR ERASE                  MACHINE CADR FOR NOUN
000207:                                                                                                  #  MONSAVE  ERASE                  N/V CODE FOR MONITOR. (= MONSAVE1-1)
000208:                                                                                                  #  MONSAVE1 ERASE                  NOUNCADR FOR MONITOR(MATBS) =MONSAVE +1
000209:                                                                                                  #  MONSAVE2 ERASE                  NVMONOPT OPTIONS
000210:                                                                                                  #  DSPTAB   ERASE          +13D    0-10,DISPLAY PANEL BUFFER.11-13,C RELAYS
000211:                                                                                                  #  CADRSTOR ERASE                  ENDIDLE STORAGE
000212:                                                                                                  #  NVQTEM   ERASE                  NVSUB STORAGE FOR CALLING ADDRESS
000213:                                                                                                  #                                  MUST = NVBNKTEM-1
000214:                                                                                                  #  NVBNKTEM ERASE                  NVSUB STORAGE FOR CALLING BANK
000215:                                                                                                  #                                  MUST = NVQTEM+1
000216:                                                                                                  #  VERBSAVE ERASE                  NEEDED FOR RECYCLE
000217:                                                                                                  #  DSPLIST  ERASE                  WAITING REG FOR DSP SYST INTERNAL USE
000218:                                                                                                  #  EXTVBACT REASE                  EXTENDED VERB ACTIVITY INTERLOCK
000219:                                                                                                  #  DSPTEM1  ERASE          +2      BUFFER STORAGE AREA 1 (MOSTLY FOR TIME)
000220:                                                                                                  #  DSPTEM2  ERASE          +2      BUFFER STORAGE AREA 2 (MOSTLY FOR DEG)
000221:                                                                                                  #  END OF ERASABLES RESERVED FOR PINBALL EXECUTIVE ACTION
000222:
000223:
000224:                                                                                                  #  TEMPORARIES FOR PINBALL EXECUTIVE ACTION


000226:                                                                                                  #  DSEXIT   =      INTB15+         RETURN FOR DSPIN
000227:                                                                                                  #  EXITEM   =      INTB15+         RETURN FOR SCALE FACTOR ROUTINE SELECT
000228:                                                                                                  #  BLANKRET =      INTB15+         RETURN FOR 2BLANK
000229:
000230:                                                                                                  #  WRDRET   =      INTBIT15        RETURN FOR 5BLANK
000231:                                                                                                  #  WDRET    =      INTBIT15        RETURN FOR DSPWD
000232:                                                                                                  #  DECRET   =      INTBIT15        RETURN FOR PUTCOM(DEC LOAD)
000233:                                                                                                  #  21/22REG =      INTBIT15        TEMP FOR CHARIN
000234:
000235:                                                                                                  #  UPDATRET =      POLISH          RETURN FOR UPDATNN, UPDATVB
000236:                                                                                                  #  CHAR     =      POLISH          TEMP FOR CHARIN
000237:                                                                                                  #  ERCNT    =      POLISH          COUNTER FOR ERROR LIGHT RESET
000238:                                                                                                  #  DECOUNT  =      POLISH          COUNTER FOR SCALING AND DISPLAY (DEC)
000239:
000240:                                                                                                  #  SGNON    =      VBUF            TEMP FOR +,- ON
000241:                                                                                                  #  NOUNTEM  =      VBUF            COUNTER FOR MIXNOUN FETCH
000242:                                                                                                  #  DISTEM   =      VBUF            COUNTER FOR OCTAL DISPLAY VERBS
000243:                                                                                                  #  DECTEM   =      VBUF            COUNTER FOR FETCH (DEC DISPLAY VERBS)
000244:
000245:                                                                                                  #  SGNOFF   =      VBUF    +1      TEMP FOR +,- ON
000246:                                                                                                  #  NVTEMP   =      VBUF    +1      TEMP FOR NVSUB
000247:                                                                                                  #  SFTEMP1  =      VBUF    +1      STORAGE FOR SF CONST HI PART(=SFTEMP2-1)
000248:                                                                                                  #  HITEMIN  =      VBUF    +1      TEMP FOR LOAD OF HRS, MIN, SEC
000249:                                                                                                  #                                           MUST = LOTEMIN-1.
000250:                                                                                                  #  CODE     =      VBUF    +2      FOR DSPIN
000251:                                                                                                  #  SFTEMP2  =      VBUF    +2      STORAGE FOR SF CONST LO PART(=SFTEMP1+1)
000252:                                                                                                  #  LOTEMIN  =      VBUF    +2      TEMP FOR LOAD OF HRS, MIN, SEC
000253:                                                                                                  #                                           MUST = HITEMIN+1.
000254:                                                                                                  #  MIXTEMP  =      VBUF    +3      FOR MIXNOUN DATA
000255:                                                                                                  #  SIGNRET  =      VBUF    +3      RETURN FOR +,- ON
000256:
000257:                                                                                                  #  ALSO MIXTEMP+1 = VBUF+4, MIXTEMP+2 = VBUF+5.
000258:
000259:                                                                                                  #  ENTRET   =      DOTINC          EXIT FROM ENTER
000260:
000261:                                                                                                  #  WDCNT    =      DOTRET          CHAR COUNTER FOR DSPWD
000262:                                                                                                  #  INREL    =      DOTRET          INPUT BUFFER SELECTOR ( X,Y,Z, REG )
000263:
000264:                                                                                                  #  DSPMMTEM =      MATINC          DSPCOUNT SAVE FOR DSPMM
000265:                                                                                                  #  MIXBR    =      MATINC          INDICATOR FOR MIXED OR NORMAL NOUN
000266:
000267:                                                                                                  #  TEM1     ERASE                  EXEC TEMP
000268:                                                                                                  #  DSREL    =      TEM1            REL ADDRESS FOR DSPIN
000269:
000270:                                                                                                  #  TEM2     ERASE                  EXEC TEMP
000271:                                                                                                  #  DSMAG    =      TEM2            MAGNITUDE STORE FOR DSPIN
000272:                                                                                                  #  IDADDTEM =      TEM2            MIXNOUN INDIRECT ADDRESS STORAGE
000273:
000274:                                                                                                  #  TEM3     ERASE                  EXEC TEMP
000275:                                                                                                  #  COUNT    =      TEM3            FOR DSPIN
000276:


000278:                                                                                                  #  TEM4     ERASE                  EXEC TEMP
000279:                                                                                                  #  LSTPTR   =      TEM4            LIST POINTER FOR GRABUSY
000280:                                                                                                  #  RELRET   =      TEM4            RETURN FOR RELDSP
000281:                                                                                                  #  FREERET  =      TEM4            RETURN FOR FREEDSP
000282:                                                                                                  #  DSPWDRET =      TEM4            RETURN FOR DSPSIGN
000283:                                                                                                  #  SEPSCRET =      TEM4            RETURN FOR SEPSEC
000284:                                                                                                  #  SEPMNRET =      TEM4            RETURN FOR SEPMIN
000285:
000286:                                                                                                  #  TEM5     ERASE                  EXEC TEMP
000287:                                                                                                  #  NOUNADD  =      TEM5            TEMP STORAGE FOR NOUN ADDRESS
000288:
000289:                                                                                                  #  NNADTEM  ERASE                  TEMP FOR NOUN ADDRESS TABLE ENTRY
000290:                                                                                                  #  NNTYPTEM ERASE                  TEMP FOR NOUN TYPE TABLE ENTRY
000291:                                                                                                  #  IDAD1TEM ERASE                  TEMP FOR INDIR ADRESS TABLE ENTRY(MIXNN)
000292:                                                                                                  #                                  MUST = IDAD2TEM-1, = IDAD3TEM-2.
000293:                                                                                                  #  IDAD2TEM ERASE                  TEMP FOR INDIR ADRESS TABLE ENTRY(MIXNN)
000294:                                                                                                  #                                  MUST = IDAD1TEM+1, = IDAD3TEM-1.
000295:                                                                                                  #  IDAD3TEM ERASE                  TEMP FOR INDIR ADRESS TABLE ENTRY(MIXNN)
000296:                                                                                                  #                                  MUST = IDAD1TEM+2, = IDAD2TEM+1.
000297:                                                                                                  #  RUTMXTEM ERASE                  TEMP FOR SF ROUT TABLE ENTRY(MIXNN ONLY)
000298:                                                                                                  #  END OF TEMPORARIES FOR PINBALL EXECUTIVE ACTION
000299:
000300:
000301:                                                                                                  #  ADDITIONAL TEMPORARIES FOR PINBALL EXECUTIVE ACTION
000302:
000303:                                                                                                  #  MPAC, THRU MPAC +6
000304:                                                                                                  #  BUF, +1, +2
000305:                                                                                                  #  BUF2, +1, +2
000306:                                                                                                  #  MPTEMP
000307:                                                                                                  #  ADDRWD
000308:                                                                                                  #    END OF ADDITIONAL TEMPS FOR PINBALL EXEC ACTION
000309:
000310:
000311:                                                                                                  #  RESERVED FOR PINBALL INTERRUPT ACTION
000312:
000313:                                                                                                  #  DSPCNT   ERASE                  COUNTER FOR DSPOUT
000314:                                                                                                  #  UPLOCK   ERASE                  BIT1 = UPLINK INTERLOCK (ACTIVATED BY
000315:                                                                                                  #                                                                          RECEPTION OF A BAD MESSAGE IN UPLINK)
000316:                                                                                                  #  END OF ERASABLES RESERVED FOR PINBALL INTERRUPT ACTION
000317:
000318:
000319:                                                                                                  #  TEMPORARIES FOR PINBALL INTERRUPT ACTION
000320:
000321:                                                                                                  #  KEYTEMP1 =      WAITEXIT        TEMP FOR KEYRUPT, UPRUPT
000322:                                                                                                  #  DSRUPTEM =      WAITEXIT        TEMP FOR DSPOUT
000323:                                                                                                  #  KEYTEMP2 =      RUPTAGN         TEMP FOR KEYRUPT, UPRUPT
000324:                                                                                                  #  END OF TEMPORARIES FOR PINBALL INTERRUPT ACTION
000325:


000327:                                                                                                  #  THE INPUT CODES ASSUMED FOR THE KEYBOARD ARE,
000328:                                                                                                  #  0        10000
000329:                                                                                                  #  1        00001
000330:                                                                                                  #  9        01001
000331:                                                                                                  #  VERB     10001
000332:                                                                                                  #  ERROR RES10010
000333:                                                                                                  #  KEY RLSE 11001
000334:                                                                                                  #  +        11010
000335:                                                                                                  #  -        11011
000336:                                                                                                  #  ENTER    11100
000337:                                                                                                  #  CLEAR    11110
000338:                                                                                                  #  NOUN     11111


000340:
000341:
000342:                                                                                                  #  OUTPUT FORMAT FOR DISPLAY PANEL. SET OUT0 TO  AAAABCCCCCDDDDD.
000343:                                                                                                  #  A-S SELECT A RELAYWORD. THIS DETERMINES WHICH PAIR OF CHARACTERS ARE
000344:                                                                                                  #  ENERGIZED.
000345:                                                                                                  #  B FOR SPECIAL RELAYS SUCH AS SIGNS ETC.
000346:                                                                                                  #  C-S  5 BIT RELAY CODE FOR LEFT CHAR OF PAIR SELECTED BY RELAYWORD
000347:                                                                                                  #  D-S  5 BIT RELAY CODE FOR RIGHTCHAR OF PAIR SELECTED BY RELAYWORD.
000348:
000349:                                                                                                  #  THE PANEL APPEARS AS FOLLOWS,
000350:                                                                                                  #  MD1    MD2                         (MAJOR MODE)
000351:                                                                                                  #  VD1    VD2 (VERB)    ND1    ND2    (NOUN)
000352:                                                                                                  #  R1D1   R1D2   R1D3   R1D4   R1D5   (R1)
000353:                                                                                                  #  R2D1   R2D2   R2D3   R2D4   R2D5   (R2)
000354:                                                                                                  #  R3D1   R3D2   R3D3   R3D4   R3D5   (R3)
000355:
000356:                                                                                                  #  EACH OF THESE IS GIVEN A DSPCOUNT NUMBER FOR USE WITHIN COMPUTATION ONLY
000357:                                                                                                  #  MD1   25     R2D1    11       ALL ARE OCTAL
000358:                                                                                                  #  MD2   24     R2D2    10
000359:                                                                                                  #  VD1   23     R2D3    7
000360:                                                                                                  #  VD2   22     R2D4    6
000361:                                                                                                  #  ND1   21     R2D5    5
000362:                                                                                                  #  ND2   20     R3D1    4
000363:                                                                                                  #  R1D1  16     R3D2    3
000364:                                                                                                  #  R1D2  15     R3D3    2
000365:                                                                                                  #  R1D3  14     R3D4    1
000366:                                                                                                  #  R1D4  13     R3D5    0
000367:                                                                                                  #  R1D5  12
000368:
000369:
000370:                                                                                                  #  THERE IS AN 11 REGISTER TABLE (DSPTAB) FOR THE DISPLAY PANEL.
000371:
000372:                                                                                                  #  DSPTAB RELAYWD       BIT11     BITS 10-6     BITS 5-1
000373:                                                                                                  #  RELADD
000374:                                                                                                  #  10     1011                    MD1  (25)     MD2  (24)
000375:                                                                                                  #  9      1010                    VD1  (23)     VD2  (22)
000376:                                                                                                  #  8      1001                    ND1  (21)     ND2  (20)
000377:                                                                                                  #  7      1000                                  R1D1 (16)


000379:                                                                                                  #  6      0111          +R1       R1D2 (15)     R1D3 (14)
000380:                                                                                                  #  5      0110          -R1       R1D4 (13)     R1D5 (12)
000381:                                                                                                  #  4      0101          +R2       R2D1 (11)     R2D2 (10)
000382:                                                                                                  #  3      0100          -R2       R2D3 (7)      R2D4 (6)
000383:                                                                                                  #  2      0011                    R2D5 (5)      R3D1 (4)
000384:                                                                                                  #  1      0010          +R3       R3D2 (3)      R3D3 (2)
000385:                                                                                                  #  0      0001          -R3       R3D4 (1)      R3D5 (0)
000386:                                                                                                  #         0000   NO RELAYWORD
000387:
000388:
000389:                                                                                                  #  THE 5 BIT OUTPUT RELAY CODES ARE:
000390:                                                                                                  #  BLANK      00000
000391:                                                                                                  #  0          10101
000392:                                                                                                  #  1          00011
000393:                                                                                                  #  2          11001
000394:                                                                                                  #  3          11011
000395:                                                                                                  #  4          01111
000396:                                                                                                  #  5          11110
000397:                                                                                                  #  6          11100
000398:                                                                                                  #  7          10011
000399:                                                                                                  #  8          11101
000400:                                                                                                  #  9          11111
000401:
000402:
000403:                                                                                                  #  OUTPUT BITS USED BY PINBALL:
000404:
000405:                                                                                                  #             KEY RELEASE LIGHT    - BIT 5 OF CHANNEL 11
000406:                                                                                                  #             VERB/NOUN FLASH      - BIT 6 OF CHANNEL 11
000407:                                                                                                  #             OPERATOR ERROR LIGHT - BIT 7 OF CHANNEL 11
000408:


000410:                                                                                                  #  START OF EXECUTIVE SECTION OF PINBALL
000411: 40,2077                                           BANK     40
000412: 40,2000                                           SETLOC   PINBALL1
000413: 40,2000                                           BANK
000414:
000415: 40,2077                                           COUNT*   $$/PIN
000416: 40,2077           34753        CHARIN             CAF      ONE                                   #  BLOCK DISPLAY SYST
000417: 40,2100           57011                           XCH      DSPLOCK                               #  MAKE DSP SYST BUSY, BUT SAVE OLD
000418: 40,2101           54115                           TS       21/22REG                              #  C(DSPLOCK) FOR ERROR LIGHT RESET.
000419: 40,2102           11041                           CCS      CADRSTOR                              #  ALL KEYS EXCEPT ER TURN ON KR LITE IF
000420: 40,2103           02105                           TC       +2                                    #  CADRSTOR IS FULL.  THIS REMINDS OPERATOR
000421: 40,2104           02112                           TC       CHARIN2                               #  TO RE-ESTABLISH A FLASHING DISPLAY
000422: 40,2105           42156                           CS       ELRCODE1                              #  WHICH HE HAS OBSCURED WITH DISPLAYS OF
000423: 40,2106           60154                           AD       MPAC                                  #  HIS OWN (SEE REMARKS PRECEDING ROUTINE
000424: 40,2107           00006                           EXTEND                                         #  VBRELDSP).
000425: 40,2110           12112                           BZF      CHARIN2
000426: 40,2111           04374                           TC       RELDSPON
000427: 40,2112           56154        CHARIN2            XCH      MPAC
000428: 40,2113           54117                           TS       CHAR
000429: 40,2114           50000                           INDEX    A
000430: 40,2115           02116                           TC       +1                                    #  INPUT CODE     FUNCTION
000431: 40,2116           03477                           TC       CHARALRM                              #  0
000432: 40,2117           02175                           TC       NUM                                   #  1
000433: 40,2120           02175                           TC       NUM                                   #  2
000434: 40,2121           02175                           TC       NUM                                   #  3
000435: 40,2122           02175                           TC       NUM                                   #  4
000436: 40,2123           02175                           TC       NUM                                   #  5
000437: 40,2124           02175                           TC       NUM                                   #  6
000438: 40,2125           02175                           TC       NUM                                   #  7
000439: 40,2126           02161                           TC       89TEST                                #  10                 8
000440: 40,2127           02161                           TC       89TEST                                #  11                 9
000441: 40,2130           03477                           TC       CHARALRM                              #  12
000442: 40,2131           03477                           TC       CHARALRM                              #  13
000443: 40,2132           03477                           TC       CHARALRM                              #  14
000444: 40,2133           03477                           TC       CHARALRM                              #  15
000445: 40,2134           03477                           TC       CHARALRM                              #  16
000446: 40,2135           03477                           TC       CHARALRM                              #  17
000447: 40,2136           02173                           TC       NUM        -2                         #  20                 0
000448: 40,2137           02363                           TC       VERB                                  #  21                 VERB
000449: 40,2140           03655                           TC       ERROR                                 #  22                 ERROR LIGHT RESET
000450: 40,2141           03477                           TC       CHARALRM                              #  23
000451: 40,2142           03477                           TC       CHARALRM                              #  24
000452: 40,2143           03477                           TC       CHARALRM                              #  25
000453: 40,2144           03477                           TC       CHARALRM                              #  26
000454: 40,2145           03477                           TC       CHARALRM                              #  27
000455: 40,2146           03477                           TC       CHARALRM                              #  30
000456: 40,2147           03533                           TC       VBRELDSP                              #  31                 KEY RELEASE
000457: 40,2150           02416                           TC       POSGN                                 #  32                 +


000459: 40,2151           02403                           TC       NEGSGN                                #  33                 -
000460: 40,2152           02157                           TC       ENTERJMP                              #  34                 ENTER
000461: 40,2153           03477                           TC       CHARALRM                              #  35
000462: 40,2154           02476                           TC       CLEAR                                 #  36                 CLEAR
000463: 40,2155           02377                           TC       NOUN                                  #  37                 NOUN
000464:
000465:
000466: 40,2156           00022        ELRCODE1           OCT      22
000467: 40,2157           04635        ENTERJMP           TC       POSTJUMP
000468: 40,2160           62002                           CADR     ENTER
000469:
000470: 40,2161           10776        89TEST             CCS      DSPCOUNT
000471: 40,2162           02166                           TC       +4                                    #  +
000472: 40,2163           02166                           TC       +3                                    #  +0
000473: 40,2164           05155                           TC       ENDOFJOB                              #  - BLOCK DATA IN IF DSPCOUNT IS - OR -0
000474: 40,2165           05155                           TC       ENDOFJOB                              #  -0
000475: 40,2166           36250                           CAF      THREE
000476: 40,2167           70777                           MASK     DECBRNCH
000477: 40,2170           10000                           CCS      A
000478: 40,2171           02175                           TC       NUM                                   #  IF DECBRNCH IS +, 8 OR 9 OK
000479: 40,2172           03477                           TC       CHARALRM                              #  IF DECBRNCH IS +0, REJECT 8 OR 9
000480:
000481:
000482:                                                                                                  #  NUM ASSEMBLES OCTAL 3 BITS AT A TIME. FOR DECIMAL IT CONVERTS INCOMING
000483:                                                                                                  #  WORD AS A FRACTION, KEEPING RESULTS TO DP.
000484:                                                                                                  #  OCTAL RESULTS ARE LEFT IN XREG, YREG, OR ZREG. HI PART OF DEC IN XREG,
000485:                                                                                                  #  YREG, ZREG. THE LOW PARTS IN XREGLP, YREGLP, OR ZREGLP)
000486:                                                                                                  #  DECBRNCH IS LEFT AT +0 FOR OCT, +1 FOR + DEC, +2 FOR - DEC.
000487:                                                                                                  #  IF DSPCOUNT WAS LEFT -, NO MORE DATA IS ACCEPTED.
000488:
000489: 40,2173           34755                           CAF      ZERO
000490: 40,2174           54117                           TS       CHAR
000491: 40,2175           10776        NUM                CCS      DSPCOUNT
000492: 40,2176           02202                           TC       +4                                    #  +
000493: 40,2177           02202                           TC       +3                                    #  +0
000494: 40,2200           02201                           TC       +1                                    #  -BLOCK DATA IN IF DSPCOUNT IS -
000495: 40,2201           05155                           TC       ENDOFJOB                              #  -0
000496: 40,2202           02333                           TC       GETINREL
000497: 40,2203           11014                           CCS      CLPASS                                #  IF CLPASS IS + OR +0, MAKE IT +0.
000498: 40,2204           34755                           CAF      ZERO
000499: 40,2205           55014                           TS       CLPASS
000500: 40,2206           02207                           TC       +1
000501: 40,2207           50117                           INDEX    CHAR
000502: 40,2210           34066                           CAF      RELTAB
000503: 40,2211           74346                           MASK     LOW5
000504: 40,2212           54124                           TS       CODE
000505: 40,2213           30776                           CA       DSPCOUNT
000506: 40,2214           54143                           TS       COUNT
000507: 40,2215           03365                           TC       DSPIN
000508: 40,2216           36250                           CAF      THREE


000510: 40,2217           70777                           MASK     DECBRNCH
000511: 40,2220           10000                           CCS      A                                     #  +0, OCTAL.  +1, + DEC.  +2, - DEC.
000512: 40,2221           02232                           TC       DECTOBIN                              #  +
000513: 40,2222           50137                           INDEX    INREL                                 #  +0 OCTAL
000514: 40,2223           57000                           XCH      VERBREG
000515: 40,2224           54022                           TS       CYL
000516: 40,2225           40022                           CS       CYL
000517: 40,2226           40022                           CS       CYL
000518: 40,2227           56022                           XCH      CYL
000519: 40,2230           60117                           AD       CHAR
000520: 40,2231           02247                           TC       ENDNMTST
000521: 40,2232           50137        DECTOBIN           INDEX    INREL
000522: 40,2233           57000                           XCH      VERBREG
000523: 40,2234           54154                           TS       MPAC                                  #  SUM X 2EXP-14 IN MPAC
000524: 40,2235           34755                           CAF      ZERO
000525: 40,2236           54155                           TS       MPAC       +1
000526: 40,2237           34363                           CAF      TEN                                   #  10 X 2EXP-14
000527: 40,2240           07312                           TC       SHORTMP                               #  10SUM X 2EXP-28 IN MPAC, MPAC+1
000528: 40,2241           56155                           XCH      MPAC       +1
000529: 40,2242           60117                           AD       CHAR
000530: 40,2243           54155                           TS       MPAC       +1
000531: 40,2244           02247                           TC       ENDNMTST                              #  NO OF
000532: 40,2245           26154                           ADS      MPAC                                  #  OF MUST BE 5TH CHAR
000533: 40,2246           02265                           TC       DECCEND
000534: 40,2247           50137        ENDNMTST           INDEX    INREL
000535: 40,2250           55000                           TS       VERBREG
000536: 40,2251           40776                           CS       DSPCOUNT
000537: 40,2252           50137                           INDEX    INREL
000538: 40,2253           62324                           AD       CRITCON
000539: 40,2254           00006                           EXTEND
000540: 40,2255           12257                           BZF      ENDNUM                                #  -0, DSPCOUNT = CRITCON
000541: 40,2256           02321                           TC       MORNUM                                #  - , DSPCOUNT G/ CRITCON
000542: 40,2257           36250        ENDNUM             CAF      THREE
000543: 40,2260           70777                           MASK     DECBRNCH
000544: 40,2261           10000                           CCS      A
000545: 40,2262           02265                           TC       DECCEND
000546: 40,2263           40776        ENDALL             CS       DSPCOUNT                              #  BLOCK NUMIN BY PLACING DSPCOUNT
000547: 40,2264           02322                           TC       MORNUM     +1                         #  NEGATIVELY
000548: 40,2265           04616        DECCEND            TC       BANKCALL
000549: 40,2266           60270                           CADR     DECEND
000550: 40,2267           02263                           TC       ENDALL
000551: 40,2270           44753        DECEND             CS       ONE
000552: 40,2271           60137                           AD       INREL
000553: 40,2272           00006                           EXTEND
000554: 40,2273           62263                           BZMF     ENDALL                                #  IF INREL=0,1(VBREG,NNREG), LEAVE WHOLE
000555: 40,2274           02333                           TC       GETINREL
000556: 40,2275           50137                           INDEX    INREL
000557: 40,2276           31000                           CA       VERBREG
000558: 40,2277           54155                           TS       MPAC       +1
000559: 40,2300           07106                           TC       DMP                                   #  IF INREL=2,3,4(R1,R2,R3),CONVERT TO FRAC


000561:                                                                                                  #  MULT SUM X 2EXP-28 IN MPAC, MPAC+1 BY
000562: 40,2301           02331                           ADRES    DECON                                 #  2EXP14/10EXP5. GIVES(SUM/10EXP5)X2EXP-14
000563: 40,2302           36250                           CAF      THREE                                 #  IN MPAC, +1, +2.
000564: 40,2303           70777                           MASK     DECBRNCH
000565: 40,2304           50000                           INDEX    A
000566: 40,2305           02305                           TC       +0
000567: 40,2306           02312                           TC       +DECSGN
000568: 40,2307           00006                           EXTEND                                         #  - CASE
000569: 40,2310           40156                           DCS      MPAC       +1
000570: 40,2311           52156                           DXCH     MPAC       +1
000571: 40,2312           56156        +DECSGN            XCH      MPAC       +2
000572: 40,2313           50137                           INDEX    INREL
000573: 40,2314           55003                           TS       XREGLP     -2
000574: 40,2315           56155                           XCH      MPAC       +1
000575: 40,2316           50137                           INDEX    INREL
000576: 40,2317           55000                           TS       VERBREG
000577: 40,2320           04631                           TC       SWRETURN
000578: 40,2321           10776        MORNUM             CCS      DSPCOUNT                              #  DECREMENT DSPCOUNT
000579: 40,2322           54776                           TS       DSPCOUNT
000580: 40,2323           05155                           TC       ENDOFJOB
000581:
000582: 40,2324           00022        CRITCON            OCT      22                                    #  (DEC 18)
000583: 40,2325           00020                           OCT      20                                    #  (DEC 16)
000584: 40,2326           00012                           OCT      12                                    #  (DEC 10)
000585: 40,2327           00005                           OCT      5
000586: 40,2330           00000                           OCT      0
000587:
000588: 40,2331           05174 13261  DECON              2DEC     E-5        B14                        #  2EXP14/10EXP5 = .16384 DEC
000589:
000590:
000591:
000592:                                                                                                  #  GETINREL GETS PROPER DATA REG REL ADDRESS FOR CURRENT C(DSPCOUNT) AND
000593:                                                                                                  #  PUTS IN INTO INREL. +0 VERBREG, 1 NOUNREG, 2 XREG, 3 YREG, 4 ZREG.
000594:
000595: 40,2333           50776        GETINREL           INDEX    DSPCOUNT
000596: 40,2334           32337                           CAF      INRELTAB
000597: 40,2335           54137                           TS       INREL                                 #  (A TEMP, REG)
000598: 40,2336           00002                           TC       Q
000599:
000600: 40,2337           00004        INRELTAB           OCT      4                                     #  R3D5 (DSPCOUNT = 0)
000601: 40,2340           00004                           OCT      4                                     #  R3D4           =(1)
000602: 40,2341           00004                           OCT      4                                     #  R3D3           =(2)
000603: 40,2342           00004                           OCT      4                                     #  R3D2           =(3)
000604: 40,2343           00004                           OCT      4                                     #  R3D1           =(4)
000605: 40,2344           00003                           OCT      3                                     #  R2D5           =(5)
000606: 40,2345           00003                           OCT      3                                     #  R2D4           =(6)
000607: 40,2346           00003                           OCT      3                                     #  R2D3           =(7)
000608: 40,2347           00003                           OCT      3                                     #  R2D2           =(8D)
000609: 40,2350           00003                           OCT      3                                     #  R2D1           =(9D)
000610: 40,2351           00002                           OCT      2                                     #  R1D5           =(10D)


000612: 40,2352           00002                           OCT      2                                     #  R1D4           =(11D)
000613: 40,2353           00002                           OCT      2                                     #  R1D3           =(12D)
000614: 40,2354           00002                           OCT      2                                     #  R1D2           =(13D)
000615: 40,2355           00002                           OCT      2                                     #  R1D1           =(14D)
000616: 40,2356           05706                           TC       CCSHOLE                               #  NO DSPCOUNT NUMBER = 15D
000617: 40,2357           00001                           OCT      1                                     #  ND2            =(16D)
000618: 40,2360           00001                           OCT      1                                     #  ND1            =(17D)
000619: 40,2361           00000                           OCT      0                                     #  VD2            =(18D)
000620: 40,2362           00000                           OCT      0                                     #  VD1            =(19D)
000621:
000622:
000623: 40,2363           34755        VERB               CAF      ZERO
000624: 40,2364           55000                           TS       VERBREG
000625: 40,2365           34360                           CAF      VD1
000626: 40,2366           54776        NVCOM              TS       DSPCOUNT
000627: 40,2367           02610                           TC       2BLANK
000628: 40,2370           34753                           CAF      ONE
000629: 40,2371           54777                           TS       DECBRNCH                              #  SET FOR DEC V/N CODE
000630: 40,2372           34755                           CAF      ZERO
000631: 40,2373           55012                           TS       REQRET                                #  SET FOR ENTPAS0
000632: 40,2374           34217                           CAF      ENDINST                               #  IF DSPALARM OCCURS BEFORE FIRST ENTPAS0
000633: 40,2375           54136                           TS       ENTRET                                #  OR NVSUB, ENTRET MUST ALREADY BE SET
000634:                                                                                                  #  TO TC ENDOFJOB
000635: 40,2376           05155                           TC       ENDOFJOB
000636: 40,2377           34755        NOUN               CAF      ZERO
000637: 40,2400           55001                           TS       NOUNREG
000638: 40,2401           34361                           CAF      ND1                                   #  ND1, OCT 21 (DEC 17)
000639: 40,2402           02366                           TC       NVCOM
000640:
000641:
000642: 40,2403           02455        NEGSGN             TC       SIGNTEST
000643: 40,2404           02442                           TC       -ON
000644: 40,2405           34752                           CAF      TWO
000645: 40,2406           50137        BOTHSGN            INDEX    INREL                                 #  SET DEC COMP BIT TO 1 (IN DECBRNCH)
000646: 40,2407           64745                           AD       BIT7                                  #  BIT 5 FOR R1,  BIT 4 FOR R2,
000647: 40,2410           26777                           ADS      DECBRNCH                              #  BIT 3 FOR R3.
000648: 40,2411           11014        FIXCLPAS           CCS      CLPASS                                #  IF CLPASS IS + OR +0, MAKE IT +0.
000649: 40,2412           34755                           CAF      ZERO
000650: 40,2413           55014                           TS       CLPASS
000651: 40,2414           02415                           TC       +1
000652: 40,2415           05155                           TC       ENDOFJOB
000653:
000654: 40,2416           02455        POSGN              TC       SIGNTEST
000655: 40,2417           02422                           TC       +ON
000656: 40,2420           34753                           CAF      ONE
000657: 40,2421           02406                           TC       BOTHSGN
000658:
000659: 40,2422           22002        +ON                LXCH     Q
000660: 40,2423           02333                           TC       GETINREL
000661: 40,2424           50137                           INDEX    INREL


000663: 40,2425           32450                           CAF      SGNTAB     -2
000664: 40,2426           54123                           TS       SGNOFF
000665: 40,2427           64753                           AD       ONE
000666: 40,2430           54122                           TS       SGNON
000667: 40,2431           34755        SGNCOM             CAF      ZERO
000668: 40,2432           54124                           TS       CODE
000669: 40,2433           56123                           XCH      SGNOFF
000670: 40,2434           03447                           TC       11DSPIN
000671: 40,2435           34741                           CAF      BIT11
000672: 40,2436           54124                           TS       CODE
000673: 40,2437           56122                           XCH      SGNON
000674: 40,2440           03447                           TC       11DSPIN
000675: 40,2441           00001                           TC       L
000676: 40,2442           22002        -ON                LXCH     Q
000677: 40,2443           02333                           TC       GETINREL
000678: 40,2444           50137                           INDEX    INREL
000679: 40,2445           32450                           CAF      SGNTAB     -2
000680: 40,2446           54122                           TS       SGNON
000681: 40,2447           64753                           AD       ONE
000682: 40,2450           54123                           TS       SGNOFF
000683: 40,2451           02431                           TC       SGNCOM
000684:
000685: 40,2452           00005        SGNTAB             OCT      5                                     #  -R1
000686: 40,2453           00003                           OCT      3                                     #  -R2
000687: 40,2454           00000                           OCT      0                                     #  -R3
000688:
000689:
000690: 40,2455           22002        SIGNTEST           LXCH     Q                                     #  ALLOWS +,- ONLY WHEN DSPCOUNT=R1D1,
000691: 40,2456           36250                           CAF      THREE                                 #  R2D1, OR R3D1. ALLOWS ONLY FIRST OF
000692: 40,2457           70777                           MASK     DECBRNCH                              #  CONSECUTIVE +/- CHARACTERS.
000693: 40,2460           10000                           CCS      A                                     #  IF LOW2 BITS OF DECBRNCH NOT= 0, SIGN
000694: 40,2461           05155                           TC       ENDOFJOB                              #  FOR THIS WORD ALREADY IN. REJECT.
000695: 40,2462           44317                           CS       R1D1
000696: 40,2463           02471                           TC       SGNTST1
000697: 40,2464           44320                           CS       R2D1
000698: 40,2465           02471                           TC       SGNTST1
000699: 40,2466           44321                           CS       R3D1
000700: 40,2467           02471                           TC       SGNTST1
000701: 40,2470           05155                           TC       ENDOFJOB                              #  NO MATCH FOUND. SIGN ILLEGAL
000702: 40,2471           60776        SGNTST1            AD       DSPCOUNT
000703: 40,2472           00006                           EXTEND
000704: 40,2473           12475                           BZF      +2                                    #  MATCH FOUND
000705: 40,2474           00002                           TC       Q
000706: 40,2475           00001                           TC       L                                     #  SIGN LEGAL
000707:
000708:
000709:                                                                                                  #  CLEAR BLANKS WHICH R1, R2, R3 IS CURRENT OR LAST TO BE DISPLAYED(PERTINE
000710:                                                                                                  #  NT XREG,YREG,ZREG IS CLEARED). SUCCESSIVE CLEARS TAKE CARE OF EACH RX
000711:                                                                                                  #  L/ RC UNTIL R1 IS DONE. THEN NO FURTHER ACTION


000713:                                                                                                  #  THE SINGLE COMPONENT LOAD VERBS ALLOW ONLY THE SINGLE RC THAT IS
000714:                                                                                                  #  APPROPRIATE TO BE CLEARED.
000715:
000716:                                                                                                  #  CLPASS   +0  PASS0, CAN BE BACKED UP
000717:                                                                                                  #           +NZ  HIPASS, CAN BE BACKED UP
000718:                                                                                                  #           -NZ  PASS0, CANNOT BE BACKED UP
000719:
000720: 40,2476           10776        CLEAR              CCS      DSPCOUNT
000721: 40,2477           64753                           AD       ONE
000722: 40,2500           02502                           TC       +2
000723: 40,2501           64753                           AD       ONE
000724: 40,2502           50000                           INDEX    A                                     #  DO NOT CHANGE DSPCOUNT BECAUSE MAY LATER
000725: 40,2503           32337                           CAF      INRELTAB                              #  FAIL LEGALTST.
000726: 40,2504           54137                           TS       INREL                                 #  MUST SET INREL, EVEN FOR HIPASS.
000727: 40,2505           11014                           CCS      CLPASS
000728: 40,2506           02514                           TC       CLPASHI                               #  +
000729: 40,2507           02511                           TC       +2                                    #  +0    IF CLPASS IS +0 OR -, IT IS PASS0
000730: 40,2510           02511                           TC       +1                                    #  -
000731: 40,2511           30137                           CA       INREL
000732: 40,2512           02536                           TC       LEGALTST
000733: 40,2513           02531                           TC       CLEAR1
000734: 40,2514           10137        CLPASHI            CCS      INREL
000735: 40,2515           54137                           TS       INREL
000736: 40,2516           02536                           TC       LEGALTST
000737: 40,2517           32606                           CAF      DOUBLK     +2                         #  +3 TO - NUMBER. BACKS DATA REQUESTS.
000738: 40,2520           27012                           ADS      REQRET
000739: 40,2521           30137                           CA       INREL
000740: 40,2522           54125                           TS       MIXTEMP                               #  TEMP STORAGE FOR INREL
000741: 40,2523           00006                           EXTEND
000742: 40,2524           27000                           DIM      VERBREG                               #  DECREMENT VERB AND RE-DISPLAY
000743: 40,2525           04616                           TC       BANKCALL
000744: 40,2526           62347                           CADR     UPDATVB
000745: 40,2527           30125                           CA       MIXTEMP
000746: 40,2530           54137                           TS       INREL                                 #  RESTORE INREL
000747: 40,2531           02534        CLEAR1             TC       CLR5
000748: 40,2532           25014                           INCR     CLPASS                                #  ONLY IF CLPASS IS + OR +0,
000749: 40,2533           05155                           TC       ENDOFJOB                              #  SET FOR HIGHER PASS.
000750: 40,2534           22002        CLR5               LXCH     Q                                     #  USES 5BLANK  BUT AVOIDS ITS TC GETINREL
000751: 40,2535           02547                           TC       5BLANK     +2
000752: 40,2536           67751        LEGALTST           AD       NEG2
000753: 40,2537           10000                           CCS      A
000754: 40,2540           00002                           TC       Q                                     #  LEGAL  INREL G/ 2
000755: 40,2541           05706                           TC       CCSHOLE
000756: 40,2542           05155                           TC       ENDOFJOB                              #  ILLEGAL   INREL= 0,1
000757: 40,2543           00002                           TC       Q                                     #  LEGAL    INREL = 2
000758:
000759:
000760:                                                                                                  #  5BLANK BLANKS 5 CHAR DISPLAY WORD IN R1, R2, OR R3. IT ALSO ZEROES XREG,
000761:                                                                                                  #  YREG, OR ZREG.PLACE ANY + DSPCOUNT NUMBER FOR PERTINENT RC INTO DSPCOUNT
000762:                                                                                                  #  DSPCOUNT IS LEFT SET TO LEFT MOST DSP NUMB FOR RC JUST BLANKED.
000763:


000765: 40,2544           54776                           TS       DSPCOUNT                              #  NEEDED FOR BLANKSUB
000766: 40,2545           22002        5BLANK             LXCH     Q
000767: 40,2546           02333                           TC       GETINREL
000768: 40,2547           34755                           CAF      ZERO
000769: 40,2550           50137                           INDEX    INREL
000770: 40,2551           55000                           TS       VERBREG                               #  ZERO X, Y, Z REG.
000771: 40,2552           50137                           INDEX    INREL
000772: 40,2553           55003                           TS       XREGLP     -2
000773: 40,2554           54124                           TS       CODE
000774: 40,2555           50137                           INDEX    INREL                                 #  ZERO PERTINENT DEC COMP BIT.
000775: 40,2556           44745                           CS       BIT7                                  #  PROTECT OTHERS
000776: 40,2557           70777                           MASK     DECBRNCH
000777: 40,2560           72607                           MASK     BRNCHCON                              #  ZERO LOW 2 BITS.
000778: 40,2561           54777                           TS       DECBRNCH
000779: 40,2562           50137                           INDEX    INREL
000780: 40,2563           32577                           CAF      SINBLANK   -2                         #  BLANK ISOLATED CHAR SEPARATELY
000781: 40,2564           54143                           TS       COUNT
000782: 40,2565           03365                           TC       DSPIN
000783: 40,2566           50137        5BLANK1            INDEX    INREL
000784: 40,2567           32602                           CAF      DOUBLK     -2
000785: 40,2570           54776                           TS       DSPCOUNT
000786: 40,2571           02610                           TC       2BLANK
000787: 40,2572           44752                           CS       TWO
000788: 40,2573           26776                           ADS      DSPCOUNT
000789: 40,2574           02610                           TC       2BLANK
000790: 40,2575           50137                           INDEX    INREL
000791: 40,2576           34315                           CAF      R1D1       -2
000792: 40,2577           54776                           TS       DSPCOUNT                              #  SET DSPCOUNT TO LEFT MOST DSP NUMBER
000793: 40,2600           00001                           TC       L                                     #  OF REG. JUST BLANKED
000794:
000795: 40,2601           00016        SINBLANK           OCT      16                                    #  DEC 14
000796: 40,2602           00005                           OCT      5
000797: 40,2603           00004                           OCT      4
000798: 40,2604           00015        DOUBLK             OCT      15                                    #  DEC 13
000799: 40,2605           00011                           OCT      11                                    #  DEC 9
000800: 40,2606           00003                           OCT      3
000801:
000802: 40,2607           77774        BRNCHCON           OCT      77774
000803:
000804:                                                                                                  #  2BLANK BLANKS TWO CHAR. PLACE DSP NUMBER OF LEFT CHAR  OF THE PAIR INTO
000805:                                                                                                  #  DSPCOUNT. THIS NUMBER IS LEFT IN DSPCOUNT
000806:
000807: 40,2610           30776        2BLANK             CA       DSPCOUNT
000808: 40,2611           54021                           TS       SR
000809: 40,2612           42623                           CS       BLANKCON
000810: 40,2613           00004                           INHINT
000811: 40,2614           50021                           INDEX    SR
000812: 40,2615           57022                           XCH      DSPTAB
000813: 40,2616           00006                           EXTEND
000814: 40,2617           62621                           BZMF     +2                                    #  IF OLD CONTENTS -, NOUT OK


000816: 40,2620           25015                           INCR     NOUT                                  #  IF OLD CONTENTS +, +1 TO NOUT
000817: 40,2621           00003                           RELINT                                         #  IF -,NOUT OK
000818: 40,2622           00002                           TC       Q
000819: 40,2623           04000        BLANKCON           OCT      4000
000820:


000822:                                                                                                  #  ENTER PASS 0 IS THE EXECUTE FUNCTION. HIGHER ORDER ENTERS ARE TO LOAD
000823:                                                                                                  #  DATA. THE SIGN OF REQRET DETERMINES THE PASS, + FOR PASS 0,- FOR HIGHER
000824:                                                                                                  #  PASSES.
000825:
000826:
000827:                                                                                                  #  MACHINE CADR TO BE SPECIFIED (MCTBS) NOUNS DESIRE AN ECADR TO BE LOADED
000828:                                                                                                  #  WHEN USED WITH LOAD VERBS, MONITOR VERBS, OR DISPLAY VERBS (EXCEPT
000829:                                                                                                  #  VERB = FIXED MEMORY DISPLAY, WHICH REQUIRES AN FCADR).
000830:
000831:
000832: 41,2000                                           BANK     41
000833: 41,2000                                           SETLOC   PINBALL2
000834: 41,2000                                           BANK
000835:
000836: 41,2000                                           COUNT*   $$/PIN
000837: 41,2000           03564        NVSUBB             TC       NVSUB1                                #  STANDARD LEAD INS. DONT MOVE.
000838: 41,2001           03025        LOADLV1            TC       LOADLV
000839:                                                                                                  #  END OF STANDARD LEAD INS.
000840:
000841:
000842: 41,2002           34755        ENTER              CAF      ZERO
000843: 41,2003           55014                           TS       CLPASS
000844: 41,2004           34217                           CAF      ENDINST
000845: 41,2005           54136                           TS       ENTRET
000846: 41,2006           11012                           CCS      REQRET
000847: 41,2007           02042                           TC       ENTPAS0                               #  IF +, PASS 0
000848: 41,2010           02042                           TC       ENTPAS0                               #  IF +, PASS 0
000849: 41,2011           02012                           TC       +1                                    #  IF -, NOT PASS 0
000850: 41,2012           32040        ENTPASHI           CAF      MMADREF
000851: 41,2013           61012                           AD       REQRET                                #  IF L/ 2 CHAR IN FOR MM CODE, ALARM
000852: 41,2014           00006                           EXTEND                                         #  AND RECYCLE(DECIDE AT MMCHANG+1).
000853: 41,2015           12027                           BZF      ACCEPTWD
000854: 41,2016           36250                           CAF      THREE                                 #  IF DEC, L/5 CHAR IN FOR DATA MUST BE
000855: 41,2017           70777                           MASK     DECBRNCH                              #  SCALED (DECEND); IF 5 CHAR IN, DATA
000856: 41,2020           10000                           CCS      A                                     #  HAS ALREADY BEEN SCALED. ANY NUMBER
000857: 41,2021           02023                           TC       +2                                    #  OF DECIMAL CHARACTERS ARE ACCEPTABLE.SCR
000858: 41,2022           02027                           TC       ACCEPTWD                              #  OCTAL. ANY NUMBER OF CHAR OK.
000859: 41,2023           10776                           CCS      DSPCOUNT
000860: 41,2024           02033                           TC       LT5
000861: 41,2025           02033                           TC       LT5
000862: 41,2026           02027                           TC       +1                                    #  5 CHAR IN (DSPCOUNT IS -)
000863: 41,2027           41012        ACCEPTWD           CS       REQRET                                #  5 CHAR IN (DSPCOUNT IS -)
000864: 41,2030           55012                           TS       REQRET                                #  SET REQRET +.
000865: 41,2031           04433                           TC       FLASHOFF
000866: 41,2032           01012                           TC       REQRET
000867:
000868: 41,2033           34755        LT5                CAF      ZERO
000869: 41,2034           54154                           TS       MPAC
000870: 41,2035           04616                           TC       BANKCALL
000871: 41,2036           60274                           CADR     DECEND     +4


000873: 41,2037           02027                           TC       ACCEPTWD
000874: 41,2040     0136               ENTEXIT            =        ENTRET
000875:
000876: 41,2040           03451        MMADREF            ADRES    MMCHANG    +1                         #  ASSUMES TC REQMM AT MMCHANG.
000877:
000878: 41,2041           00034        LOWVERB            DEC      28         B-14                       #  LOWER VERB THAT AVOIDS NOUN TEST.
000879:
000880: 41,2042           34755        ENTPAS0            CAF      ZERO                                  #   NOUN VERB SUB ENTERS HERE
000881: 41,2043           54777                           TS       DECBRNCH
000882: 41,2044           44360                           CS       VD1                                   #  BLOCK FURTHER NUM CHAR, SO THAT STRAY
000883: 41,2045           54776                           TS       DSPCOUNT                              #  CHAR DO NOT GET INTO VERB OR NOUN LTS.
000884: 41,2046           41000        TESTVB             CS       VERBREG                               #  IF VERB IS G/E LOWVB, SKIP NOUN TEST.
000885: 41,2047           55040                           TS       VERBSAVE                              #  SAVE VERB FOR POSSIBLE RECYCLE.
000886: 41,2050           62041                           AD       LOWVERB                               #  LOWVERB - VB
000887: 41,2051           00006                           EXTEND
000888: 41,2052           62140                           BZMF     VERBFAN                               #  VERB G/E LOWVERB
000889: 41,2053           00006        TESTNN             EXTEND                                         #  VERB L/ LOWVERB
000890: 41,2054           32121                           DCA      LODNNLOC                              #  SWITCH BANKS TO NOUN TABLE READING
000891: 41,2055           52006                           DXCH     Z                                     #  ROUTINE.
000892: 41,2056           50140                           INDEX    MIXBR
000893: 41,2057           02057                           TC       +0
000894: 41,2060           02062                           TC       +2                                    #  NORMAL
000895: 41,2061           02226                           TC       MIXNOUN                               #  MIXED
000896: 41,2062           10146                           CCS      NNADTEM                               #  NORMAL
000897: 41,2063           02136                           TC       VERBFAN    -2                         #       NORMAL IF +
000898: 41,2064           02360                           TC       GODSPALM                              #  NOT IN USE   IF +0
000899: 41,2065           02071                           TC       REQADD                                #  SPECIFY MACHINE CADR IF -
000900: 41,2066           25016                           INCR     NOUNCADR                              #  AUGMENT MACHINE CADR IF -0
000901: 41,2067           04311                           TC       SETNADD                               #  ECADR FROM NOUNCADR. SETS EB, NOUNADD.
000902: 41,2070           02125                           TC       INTMCTBS   +2
000903: 41,2071           34735        REQADD             CAF      BIT15                                 #  SET CLPASS FOR PASS0 ONLY
000904: 41,2072           55014                           TS       CLPASS
000905: 41,2073           44217                           CS       ENDINST                               #  TEST IF REACHED HERE FROM INTERNAL OR
000906: 41,2074           60136                           AD       ENTEXIT                               #              FROM EXTERNAL
000907: 41,2075           00006                           EXTEND
000908: 41,2076           12100                           BZF      +2                                    #  EXTERNAL MACH CADR TO BE SPECIFIED
000909: 41,2077           02123                           TC       INTMCTBS
000910: 41,2100           02316                           TC       REQDATZ                               #  EXTERNAL MACH CADR TO BE SPECIFIED
000911: 41,2101           10777                           CCS      DECBRNCH                              #  ALARM AND RECYCLE IF DECIMAL USED
000912: 41,2102           04145                           TC       ALMCYCLE                              #  FOR MCTBS.
000913: 41,2103           44360                           CS       VD1                                   #  OCTAL USED  OK
000914: 41,2104           54776                           TS       DSPCOUNT                              #  BLOCK NUM CHAR IN
000915: 41,2105           11041                           CCS      CADRSTOR
000916: 41,2106           02111                           TC       +3                                    #  EXTERNAL MCTBS DISPLAY WILL LEAVE FLASH
000917: 41,2107           02112                           TC       USEADD                                #  ON IF ENDIDLE NOT = +0.
000918: 41,2110           02111                           TC       +1
000919: 41,2111           04427                           TC       FLASHON
000920: 41,2112           57004        USEADD             XCH      ZREG
000921: 41,2113           04303                           TC       SETNCADR                              #  ECADR INTO NOUNCADR. SET EB, NOUNADD.
000922: 41,2114           00006                           EXTEND


000924: 41,2115           32121                           DCA      LODNNLOC                              #  SWITCH BANKS TO NOUN TABLE READING
000925: 41,2116           52006                           DXCH     Z                                     #  ROUTINE.
000926: 41,2117           02140                           TC       VERBFAN
000927:
000928: 41,2120     0776                                  EBANK=   DSPCOUNT
000929: 41,2120           02103 64101  LODNNLOC           2CADR    LODNNTAB
000930:
000931:
000932: 41,2122           77772        NEG5               OCT      77772
000933:
000934: 41,2123           30156        INTMCTBS           CA       MPAC       +2                         #  INTERNAL MACH CADR TO BE SPECIFIED.
000935: 41,2124           04303                           TC       SETNCADR                              #  ECADR INTO NOUNCADR. SET EB, NOUNADD.
000936: 41,2125           44756                           CS       FIVE                                  #  NVSUB CALL LEFT CADR IN MPAC+2 FOR MACH
000937: 41,2126           61000                           AD       VERBREG                               #  CADR TO BE SPECIFIED.
000938: 41,2127           00006                           EXTEND
000939: 41,2130           12140                           BZF      VERBFAN                               #  DONT DISPLAY CADR IF VB = 05.
000940: 41,2131           34321                           CAF      R3D1                                  #  VB NOT = 05. DISPLAY CADR.
000941: 41,2132           54776                           TS       DSPCOUNT
000942: 41,2133           31016                           CA       NOUNCADR
000943: 41,2134           03415                           TC       DSPOCTWD
000944: 41,2135           02140                           TC       VERBFAN
000945:
000946: 41,2136           64753                           AD       ONE
000947: 41,2137           04303                           TC       SETNCADR                              #  ECADR INTO NOUNCADR. SETS EB, NOUNADD.
000948: 41,2140           42152        VERBFAN            CS       LST2CON
000949: 41,2141           61000                           AD       VERBREG                               #  VERB-LST2CON
000950: 41,2142           10000                           CCS      A
000951: 41,2143           64753                           AD       ONE                                   #  VERB G/ LST2CON
000952: 41,2144           02146                           TC       +2
000953: 41,2145           02153                           TC       VBFANDIR                              #  VERB L/ LST2CON
000954: 41,2146           54154                           TS       MPAC
000955: 41,2147           04457                           TC       RELDSP                                #  RELEASE DISPLAY SYST
000956: 41,2150           04635                           TC       POSTJUMP                              #  GO TO GOEXTVB WITH VB-40 IN MPAC.
000957: 41,2151           66000                           CADR     GOEXTVB
000958: 41,2152           00050        LST2CON            DEC      40         B-14                       #  FIRST LIST2 VERB (EXTENDED VERB)
000959:
000960: 41,2153           51000        VBFANDIR           INDEX    VERBREG
000961: 41,2154           32156                           CAF      VERBTAB
000962: 41,2155           04640                           TC       BANKJUMP
000963:
000964: 41,2156           62360        VERBTAB            CADR     GODSPALM                              #  VB00 ILLEGAL
000965: 41,2157           62374                           CADR     DSPA                                  #  VB01 DISPLAY OCT COMP 1 (R1)
000966: 41,2160           62402                           CADR     DSPB                                  #  VB02 DISPLAY OCT COMP 2 (R1)
000967: 41,2161           62407                           CADR     DSPC                                  #  VB03 DISPLAY OCT COMP 3 (R1)
000968: 41,2162           62367                           CADR     DSPAB                                 #  VB04 DISPLAY OCT COMP 1,2 (R1,R2)
000969: 41,2163           62362                           CADR     DSPABC                                #  VB05 DISPLAY OCT COMP 1,2,3 (R1,R2,R3)
000970: 41,2164           62532                           CADR     DECDSP                                #  VB06 DECIMAL DISPLAY
000971: 41,2165           61034                           CADR     DSPDPDEC                              #  VB07 DP DECIMAL DISPLAY (R1,R2)
000972: 41,2166           62360                           CADR     GODSPALM                              #  VB08 SPARE
000973: 41,2167           62360                           CADR     GODSPALM                              #  VB09 SPARE


000975: 41,2170           61463                           CADR     DSPALARM                              #  VB10 SPARE
000976: 41,2171           63262                           CADR     MONITOR                               #  VB11 MONITOR OCT COMP 1 (R1)
000977: 41,2172           63262                           CADR     MONITOR                               #  VB12 MONITOR OCT COMP 2 (R1)
000978: 41,2173           63262                           CADR     MONITOR                               #  VB13 MONITOR OCT COMP 3 (R1)
000979: 41,2174           63262                           CADR     MONITOR                               #  VB14 MONITOR OCT COMP 1,2 (R1,R2)
000980: 41,2175           63262                           CADR     MONITOR                               #  VB15 MONITOR OCT COMP 1,2,3 (R1,R2,R3)
000981: 41,2176           63262                           CADR     MONITOR                               #  VB16 MONITOR DECIMAL
000982: 41,2177           63262                           CADR     MONITOR                               #  VB17 MONITOR DP DEC  (R1,R2)
000983: 41,2200           62360                           CADR     GODSPALM                              #  VB18 SPARE
000984: 41,2201           62360                           CADR     GODSPALM                              #  VB19 SPARE
000985: 41,2202           62360                           CADR     GODSPALM                              #  VB20 SPARE
000986: 41,2203           62762                           CADR     ALOAD                                 #  VB21 LOAD COMP 1 (R1)
000987: 41,2204           62773                           CADR     BLOAD                                 #  VB22 LOAD COMP 2 (R2)
000988: 41,2205           63010                           CADR     CLOAD                                 #  VB23 LOAD COMP 3 (R3)
000989: 41,2206           62733                           CADR     ABLOAD                                #  VB24 LOAD COMP 1,2 (R1,R2)
000990: 41,2207           62627                           CADR     ABCLOAD                               #  VB25 LOAD COMP 1,2,3 (R1,R2,R3)
000991: 41,2210           62360                           CADR     GODSPALM                              #  VB26 SPARE
000992: 41,2211           63405                           CADR     DSPFMEM                               #  VB27 FIXED MEMORY DISPLAY
000993:                                                                                                  #  THE FOLLOWING VERBS MAKE NO NOUN TEST
000994: 41,2212           62360                           CADR     GODSPALM                              #  VB28 SPARE
000995: 41,2213           62360                           CADR     GODSPALM                              #  VB29 SPARE
000996: 41,2214           63506        REQEXLOC           CADR     VBRQEXEC                              #  VB30 REQUEST EXECUTIVE
000997: 41,2215           63532                           CADR     VBRQWAIT                              #  VB31 REQUEST WAITLIST
000998: 41,2216           61530                           CADR     VBRESEQ                               #  VB32 RESEQUENCE
000999: 41,2217           61505                           CADR     VBPROC                                #  VB33 PROCEED WITHOUT DATA
001000: 41,2220           61513                           CADR     VBTERM                                #  VB34 TERMINATE CURRENT TEST OR LOAD REQ
001001: 41,2221           63633                           CADR     VBTSTLTS                              #  VB35 TEST LIGHTS
001002: 41,2222           12460                           CADR     SLAP1                                 #  VB36 FRESH START
001003: 41,2223           63450                           CADR     MMCHANG                               #  VB37 CHANGE MAJOR MODE
001004: 41,2224           62360                           CADR     GODSPALM                              #  VB38 SPARE
001005: 41,2225           62360                           CADR     GODSPALM                              #  VB39 SPARE
001006:
001007:
001008:                                                                                                  #  THE LIST2 VERBFAN IS LOCATED IN THE EXTENDED VERB BANK.
001009:


001011:                                                                                                  #  NNADTAB CONTAINS A RELATIVE ADDRESS, IDADDREL(IN LOW 10 BITS), REFERRING
001012:                                                                                                  #  TO WHERE 3 CONSECUTIVE ADDRESSES ARE STORED (IN IDADDTAB).
001013:                                                                                                  #  MIXNOUN GETS DATA AND STORES IN MIXTEMP,+1,+2. IT SETS NOUNADD FOR
001014:                                                                                                  #   MIXTEMP.
001015:
001016: 41,2226           10146        MIXNOUN            CCS      NNADTEM
001017: 41,2227           02233                           TC       +4                                    #  +  IN USE
001018: 41,2230           02360                           TC       GODSPALM                              #  +0  NOT IN USE
001019: 41,2231           02233                           TC       +2                                    #  -  IN USE
001020: 41,2232           02233                           TC       +1                                    #  -0  IN USE
001021: 41,2233           46245                           CS       SIX
001022: 41,2234           61000                           AD       VERBREG
001023: 41,2235           00006                           EXTEND
001024: 41,2236           62240                           BZMF     +2                                    #  VERB L/E 6
001025: 41,2237           02140                           TC       VERBFAN                               #  AVOID MIXNOUN SWAP IF VB NOT = DISPLAY
001026: 41,2240           34752                           CAF      TWO
001027: 41,2241           54117        MIXNN1             TS       DECOUNT
001028: 41,2242           62265                           AD       MIXAD
001029: 41,2243           54145                           TS       NOUNADD                               #  SET NOUNADD TO MIXTEMP + K
001030: 41,2244           50117                           INDEX    DECOUNT                               #  GET IDADDTAB ENTRY FOR COMPONENT K
001031: 41,2245           30150                           CA       IDAD1TEM                              #  OF NOUN.
001032: 41,2246           54122                           TS       NOUNTEM
001033:                                                                                                  #  TEST FOR DP(FOR OCT DISPLAY). IF SO, GET
001034:                                                                                                  #    MINOR PART ONLY.
001035: 41,2247           03064                           TC       SFRUTMIX                              #  GET SF ROUT NUMBER IN A
001036: 41,2250           02266                           TC       DPTEST
001037: 41,2251           02253                           TC       MIXNN2                                #  NO DP
001038: 41,2252           24122                           INCR     NOUNTEM                               #  DP  GET MINOR PART
001039: 41,2253           30122        MIXNN2             CA       NOUNTEM
001040: 41,2254           74356                           MASK     LOW11                                 #  ESUBK (NO DP)  OR (ESUBK)+1    FOR DP
001041: 41,2255           04313                           TC       SETEBANK                              #  SET EBANK, LEAVE EADRES IN A.
001042: 41,2256           50000                           INDEX    A                                     #  PICK UP C(ESUBK)  NOT DP
001043: 41,2257           30000                           CA       0                                     #  OR C((ESUBK)+1)  FOR DP MINOR PART
001044: 41,2260           50145                           INDEX    NOUNADD
001045: 41,2261           56000                           XCH      0                                     #  STORE IN MIXTEM + K
001046: 41,2262           10117                           CCS      DECOUNT
001047: 41,2263           02241                           TC       MIXNN1
001048: 41,2264           02140                           TC       VERBFAN
001049:
001050: 41,2265           00125        MIXAD              TC       MIXTEMP
001051:
001052:
001053:                                                                                                  #  DPTEST   ENTER WITH SF ROUT NUMBER IN A.
001054:                                                                                                  #           RETURNS TO L+1 IF NO DP.
001055:                                                                                                  #           RETURNS TO L+2 IF DP.
001056:
001057: 41,2266           50000        DPTEST             INDEX    A
001058: 41,2267           12270                           TCF      +1
001059: 41,2270           00002                           TC       Q                                     #  OCTAL ONLY  NO DP
001060: 41,2271           00002                           TC       Q                                     #  FRACT NO DP


001062: 41,2272           00002                           TC       Q                                     #  DEG  NO DP
001063: 41,2273           00002                           TC       Q                                     #  ARITH  NO DP
001064: 41,2274           12310                           TCF      DPTEST1                               #  DP1OUT
001065: 41,2275           12310                           TCF      DPTEST1                               #  DP2OUT
001066: 41,2276           00002                           TC       Q                                     #  LRPOSOUT  NO DP (DATA IN CHANNEL 33)
001067: 41,2277           12310                           TCF      DPTEST1                               #  DP3OUT
001068: 41,2300           00002                           TC       Q                                     #  HMS   NO DP
001069: 41,2301           00002                           TC       Q                                     #  M/S   NO DP
001070: 41,2302           12310                           TCF      DPTEST1                               #  DP4OUT
001071: 41,2303           00002                           TC       Q                                     #  ARITH1   NO DP
001072: 41,2304           00002                           TC       Q                                     #  2INTOUT  NO DP TO GET HI PART IN MPAC
001073: 41,2305           00002                           TC       Q                                     #  360-CDU   NO DP
001074: 41,2306           00002                           TC       Q                                     #  RRANGOUT  NO DP
001075: 41,2307           00002                           TC       Q                                     #  RRDOTOUT  NO DP
001076: 41,2310           50002        DPTEST1            INDEX    Q
001077: 41,2311           00001                           TC       1                                     #  RETURN TO L+2
001078:
001079:
001080: 41,2312           34317        REQDATX            CAF      R1D1
001081: 41,2313           12317                           TCF      REQCOM
001082: 41,2314           34320        REQDATY            CAF      R2D1
001083: 41,2315           12317                           TCF      REQCOM
001084: 41,2316           34321        REQDATZ            CAF      R3D1
001085: 41,2317           54776        REQCOM             TS       DSPCOUNT
001086: 41,2320           40002                           CS       Q
001087: 41,2321           55012                           TS       REQRET
001088: 41,2322           04616                           TC       BANKCALL
001089: 41,2323           60545                           CADR     5BLANK
001090: 41,2324           04427                           TC       FLASHON
001091: 41,2325           00136        ENDRQDAT           TC       ENTEXIT
001092:
001093: 41,2326           55001                           TS       NOUNREG
001094: 41,2327           56002        UPDATNN            XCH      Q
001095: 41,2330           54117                           TS       UPDATRET
001096: 41,2331           00006                           EXTEND
001097: 41,2332           32121                           DCA      LODNNLOC                              #  SWITCH BANKS TO NOUN TABLE READING
001098: 41,2333           52006                           DXCH     Z                                     #  ROUTINE.
001099: 41,2334           10146                           CCS      NNADTEM
001100: 41,2335           64753                           AD       ONE                                   #  NORMAL
001101: 41,2336           12341                           TCF      PUTADD
001102: 41,2337           12342                           TCF      PUTADD     +1                         #  MCTBS  DONT CHANGE NOUNADD
001103: 41,2340           12342                           TCF      PUTADD     +1                         #  MCTBI  DONT CHANGE NOUNADD
001104: 41,2341           04303        PUTADD             TC       SETNCADR                              #  ECADR INTO NOUNCADR. SETS EB, NOUNADD.
001105: 41,2342           34361                           CAF      ND1
001106: 41,2343           54776                           TS       DSPCOUNT
001107: 41,2344           31001                           CA       NOUNREG
001108: 41,2345           12354                           TCF      UPDAT1
001109:
001110: 41,2346           55000                           TS       VERBREG
001111: 41,2347           56002        UPDATVB            XCH      Q


001113: 41,2350           54117                           TS       UPDATRET
001114: 41,2351           34360                           CAF      VD1
001115: 41,2352           54776                           TS       DSPCOUNT
001116: 41,2353           31000                           CA       VERBREG
001117: 41,2354           04635        UPDAT1             TC       POSTJUMP                              #  CANT USE SWCALL TO GO TO DSPDECVN,SINCE
001118: 41,2355           61362                           CADR     GOVNUPDT                              #  UPDATVB CAN ITSELF BE CALLED BY SWCALL.
001119: 41,2356           00117                           TC       UPDATRET
001120:
001121:
001122: 41,2357           04145        GOALMCYC           TC       ALMCYCLE                              #  NEEDED BECAUSE BANKJUMP CANT HANDLE F/F.
001123:
001124:
001125: 41,2360           04635        GODSPALM           TC       POSTJUMP
001126: 41,2361           61463                           CADR     DSPALARM
001127:


001129:                                                                                                  #           NOUN   TABLES
001130:                                                                                                  #  NOUN CODE L/40, NORMAL NOUN CASE.  NOUN CODE G/E 40, MIXED NOUN CASE.
001131:                                                                                                  #  FOR NORMAL CASE, NNADTAB CONTAINS ONE       ECADR     FOR EACH NOUN.
001132:                                                                                                  #  +0 INDICATES NOUN NOT USED.   - ENTRY INDICATES MACHINE CADR(E OR F) TO
001133:                                                                                                  #  BE SPECIFIED. -1 INDICATES CHANNEL TO BE SPECIFIED. -0 INDICATES AUGMENT
001134:                                                                                                  #  OF LAST MACHINE CADR SUPPLIED.
001135:
001136:                                                                                                  #  FOR MIXED CASE, NNADTAB CONTAINS ONE INDIRECT ADDRESS(IDADDREL) IN LOW
001137:                                                                                                  #  10 BITS, AND THE COMPONENT CODE NUMBER IN THE HIGH 5 BITS.
001138:
001139:                                                                                                  #  NNTYPTAB IS A PACKED TABLE OF THE FORM MMMMMNNNNNPPPPP.
001140:
001141:                                                                                                  #  FOR THE NORMAL CASE, M-S ARE THE COMPONENT CODE NUMBER.
001142:                                                                                                  #                       N-S ARE THE SF ROUTINE CODE NUMBER.
001143:                                                                                                  #                       P-S ARE THE SF CONSTANT CODE NUMBER.
001144:
001145:                                                                                                  #  MIXED CASE,M-S ARE THE SF CONSTANT3 CODE NUMBER     3 COMPONENT CASE
001146:                                                                                                  #             N-S ARE THE SF CONSTANT2 CODE NUMBER
001147:                                                                                                  #             P-S ARE THE SF CONSTANT1 CODE NUMBER
001148:                                                                                                  #             N-S ARE THE SF CONSTANT2 CODE NUMBER     2 COMPONENT CASE
001149:                                                                                                  #             P-S ARE THE SF CONSTANT1 CODE NUMBER
001150:                                                                                                  #             P-S ARE THE SF CONSTANT1 CODE NUMBER      1 COMPONENT CASE
001151:
001152:                                                                                                  #  THERE IS ALSO AN INDIRECT ADDRESS TABLE(IDADDTAB) FOR MIXED CASE ONLY.
001153:                                                                                                  #  EACH ENTRY CONTAINS ONE ECADR.    IDADDREL IS THE RELATIVE ADDRESS OF
001154:                                                                                                  #  THE FIRST OF THESE ENTRIES.
001155:                                                                                                  #  THERE IS ONE ENTRY IN THIS TABLE FOR EACH COMPONENT OF A MIXED NOUN
001156:                                                                                                  #  THEY ARE LISTED IN ORDER OF ASCENDING K.
001157:
001158:                                                                                                  #  THERE IS ALSO A SCALE FACTOR ROUTINE NUMBER TABLE( RUTMXTAB ) FOR MIXED
001159:                                                                                                  #  CASE ONLY. THERE IS ONE ENTRY PER MIXED NOUN. THE FORM IS,
001160:                                                                                                  #        QQQQQRRRRRSSSSS
001161:                                                                                                  #  Q-S ARE THE SF ROUTINE 3 CODE NUMBER     3 COMPONENT CASE
001162:                                                                                                  #  R-S ARE THE SF ROUTINE 2 CODE NUMBER
001163:                                                                                                  #  S-S ARE THE SF ROUTINE 1 CODE NUMBER
001164:                                                                                                  #  R-S ARE THE SF ROUTINE 2 CODE NUMBER     2 COMPONENT CASE
001165:                                                                                                  #  S-S ARE THE SF ROUTINE 1 CODE NUMBER
001166:
001167:
001168:                                                                                                  #  IN OCTAL DISPLAY AND LOAD (OCT OR DEC) VERBS, EXCLUDE USE OF VERBS WHOSE
001169:                                                                                                  #  COMPONENT NUMBER IS GREATER THAN THE NUMBER OF COMPONENTS IN NOUN.
001170:                                                                                                  #  (ALL MACHINE ADDRESS TO BE SPECIFIED NOUNS ARE 3 COMPONENT.)
001171:
001172:
001173:                                                                                                  #  IN MULTI-COMPONENT LOAD VERBS, NO MIXING OF OCTAL AND DECIMAL DATA
001174:                                                                                                  #  COMPONENT WORDS IS ALLOWED. ALARM IF VIOLATION.
001175:
001176:                                                                                                  #  IN DECIMAL LOADS OF DATA, 5 NUMERICAL CHARACTERS MUST BE KEYED IN
001177:                                                                                                  #  BEFORE EACH ENTER. IF NOT, ALARM.
001178:


001180:                                                                                                  #           DISPLAY  VERBS
001181: 41,2362           44752        DSPABC             CS       TWO
001182: 41,2363           02433                           TC       COMPTEST
001183: 41,2364           50145                           INDEX    NOUNADD
001184: 41,2365           40002                           CS       2
001185: 41,2366           56132                           XCH      BUF        +2
001186: 41,2367           44753        DSPAB              CS       ONE
001187: 41,2370           02433                           TC       COMPTEST
001188: 41,2371           50145                           INDEX    NOUNADD
001189: 41,2372           40001                           CS       1
001190: 41,2373           56131                           XCH      BUF        +1
001191: 41,2374           02452        DSPA               TC       DECTEST
001192: 41,2375           02475                           TC       TSTFORDP
001193: 41,2376           50145                           INDEX    NOUNADD
001194: 41,2377           40000                           CS       0
001195: 41,2400           56130        DSPCOM1            XCH      BUF
001196: 41,2401           02414                           TC       DSPCOM2
001197: 41,2402           44753        DSPB               CS       ONE
001198: 41,2403           02446                           TC       DCOMPTST
001199: 41,2404           50145                           INDEX    NOUNADD
001200: 41,2405           40001                           CS       1
001201: 41,2406           02400                           TC       DSPCOM1
001202: 41,2407           44752        DSPC               CS       TWO
001203: 41,2410           02446                           TC       DCOMPTST
001204: 41,2411           50145                           INDEX    NOUNADD
001205: 41,2412           40002                           CS       2
001206: 41,2413           02400                           TC       DSPCOM1
001207: 41,2414           44752        DSPCOM2            CS       TWO                                   #  A  B  C  AB  ABC
001208: 41,2415           61000                           AD       VERBREG                               #  -1 -0 +1 +2  +3   IN A
001209: 41,2416           10000                           CCS      A                                     #  +0 +0 +0 +1  +2    IN A AFTER CCS
001210: 41,2417           02422                           TC       DSPCOM3
001211: 41,2420           00136                           TC       ENTEXIT
001212: 41,2421           02422                           TC       +1
001213: 41,2422           54122        DSPCOM3            TS       DISTEM                                #  +0,+1,+2 INTO DISTEM
001214: 41,2423           50000                           INDEX    A
001215: 41,2424           34317                           CAF      R1D1
001216: 41,2425           54776                           TS       DSPCOUNT
001217: 41,2426           50122                           INDEX    DISTEM
001218: 41,2427           40130                           CS       BUF
001219: 41,2430           03415                           TC       DSPOCTWD
001220: 41,2431           56122                           XCH      DISTEM
001221: 41,2432           02416                           TC       DSPCOM2    +2
001222:
001223:                                                                                                  #  COMPTEST ALARMS IF COMPONENT NUMBER OF VERB(LOAD OR OCT DISPLAY) IS
001224:                                                                                                  #  GREATER THAN THE HIGHEST COMPONENT NUMBER OF NOUN.
001225: 41,2433           54123        COMPTEST           TS       SFTEMP1                               #  - VERB COMP
001226: 41,2434           22002                           LXCH     Q
001227: 41,2435           02524        COMPTST1           TC       GETCOMP
001228: 41,2436           04331                           TC       LEFT5
001229: 41,2437           76250                           MASK     THREE                                 #  NOUN COMP


001231: 41,2440           60123                           AD       SFTEMP1                               #  NOUN COMP - VERB COMP
001232: 41,2441           10000                           CCS      A
001233: 41,2442           00001                           TC       L                                     #  NOUN COMP G/ VERB COMP
001234: 41,2443           05706                           TC       CCSHOLE
001235: 41,2444           02360                           TC       GODSPALM                              #  NOUN COMP L/ VERB COMP
001236: 41,2445           00001        NDCMPTST           TC       L                                     #  NOUN COMP = VERB COMP
001237:
001238:
001239:                                                                                                  #  DCOMPTST ALARMS IF DECIMAL ONLY BIT (BIT4 OF COMP CODE NUMBER) = 1.
001240:                                                                                                  #  IF NOT, IT PERFORMS REGULAR COMPTEST.
001241: 41,2446           54123        DCOMPTST           TS       SFTEMP1                               #  - VERB COMP
001242: 41,2447           22002                           LXCH     Q
001243: 41,2450           02452                           TC       DECTEST
001244: 41,2451           02435                           TC       COMPTST1
001245:
001246: 41,2452           00006        DECTEST            EXTEND                                         #  ALARMS IF DEC ONLY BIT = 1 (BIT4 OF COMP
001247: 41,2453           22156                           QXCH     MPAC       +2                         #  CODE NUMBER). RETURNS IF NOT.
001248: 41,2454           02524                           TC       GETCOMP
001249: 41,2455           74736                           MASK     BIT14
001250: 41,2456           10000                           CCS      A
001251: 41,2457           02360                           TC       GODSPALM
001252: 41,2460           00156                           TC       MPAC       +2
001253:
001254:
001255: 41,2461           22002        DCTSTCYC           LXCH     Q                                     #  ALARMS AND RECYCLES IF DEC ONLY BIT = 1
001256: 41,2462           02524                           TC       GETCOMP                               #  ( BIT4 OF COMP CODE NUMBER). RETURNS
001257: 41,2463           74736                           MASK     BIT14                                 #  IF NOT.  USED BY LOAD VERBS.
001258: 41,2464           10000                           CCS      A
001259: 41,2465           04145                           TC       ALMCYCLE
001260: 41,2466           00001                           TC       L
001261:
001262:
001263:                                                                                                  #  NOUNTEST ALARMS IF NO-LOAD BIT (BIT5 OF COMP CODE NUMBER) = 1.
001264:                                                                                                  #  IF NOT, IT RETURNS.
001265: 41,2467           22002        NOUNTEST           LXCH     Q
001266: 41,2470           02524                           TC       GETCOMP
001267: 41,2471           10000                           CCS      A
001268: 41,2472           00001                           TC       L
001269: 41,2473           00001                           TC       L
001270: 41,2474           02360                           TC       GODSPALM
001271:
001272:
001273: 41,2475           22002        TSTFORDP           LXCH     Q                                     #  TEST FOR DP. IF SO, GET MINOR PART ONLY.
001274: 41,2476           30146                           CA       NNADTEM
001275: 41,2477           64753                           AD       ONE                                   #  IF NNADTEM = -1, CHANNEL TO BE SPECIFIED
001276: 41,2500           00006                           EXTEND
001277: 41,2501           12513                           BZF      CHANDSP
001278: 41,2502           50140                           INDEX    MIXBR
001279: 41,2503           02503                           TC       +0
001280: 41,2504           02506                           TC       +2                                    #  NORMAL


001282: 41,2505           00001                           TC       L                                     #  MIXED CASE ALREADY HANDLED IN MIXNOUN
001283: 41,2506           03056                           TC       SFRUTNOR
001284: 41,2507           02266                           TC       DPTEST
001285: 41,2510           00001                           TC       L                                     #  NO DP
001286: 41,2511           24145                           INCR     NOUNADD                               #  DP    E+1 INTO NOUNADD FOR MINOR PART.
001287: 41,2512           00001                           TC       L
001288:
001289:
001290: 41,2513           31016        CHANDSP            CA       NOUNCADR
001291: 41,2514           75004                           MASK     LOW9
001292: 41,2515           00006                           EXTEND
001293: 41,2516           50000                           INDEX    A
001294: 41,2517           00000                           READ     0
001295: 41,2520           40000                           CS       A
001296: 41,2521           12400                           TCF      DSPCOM1
001297:
001298:
001299: 41,2522           00147        COMPICK            ADRES    NNTYPTEM
001300: 41,2523           00146                           ADRES    NNADTEM
001301:
001302: 41,2524           50140        GETCOMP            INDEX    MIXBR                                 #  NORMAL                MIXED
001303: 41,2525           32521                           CAF      COMPICK    -1                         #  ADRES NNTYPTEM        ADRES NNADTEM
001304: 41,2526           50000                           INDEX    A
001305: 41,2527           30000                           CA       0                                     #  C(NNTYPTEM)           C(NNADTEM)
001306: 41,2530           74350                           MASK     HI5                                   #  GET HI5 OF NNTYPTAB(NORM)OF NNADTAB(MIX)
001307: 41,2531           00002                           TC       Q
001308:
001309:
001310: 41,2532           02524        DECDSP             TC       GETCOMP
001311: 41,2533           04331                           TC       LEFT5
001312: 41,2534           76250                           MASK     THREE
001313: 41,2535           54117                           TS       DECOUNT                               #  COMP NUMBER INTO DECOUNT
001314: 41,2536           54122        DSPDCGET           TS       DECTEM                                #  PICKS UP DATA
001315: 41,2537           60145                           AD       NOUNADD                               #  DECTEM  1COMP +0, 2COMP +1, 3COMP +2
001316: 41,2540           50000                           INDEX    A
001317: 41,2541           40000                           CS       0
001318: 41,2542           50122                           INDEX    DECTEM
001319: 41,2543           57002                           XCH      XREG                                  #  CANT USE BUF SINCE DMP USES IT.
001320: 41,2544           10122                           CCS      DECTEM
001321: 41,2545           02536                           TC       DSPDCGET                              #  MORE TO GET
001322: 41,2546           34755        DSPDCPUT           CAF      ZERO                                  #  DISPLAYS DATA
001323: 41,2547           54155                           TS       MPAC       +1                         #  DECOUNT 1COMP +0, 2COMP +1, 3COMP +2
001324: 41,2550           54156                           TS       MPAC       +2
001325: 41,2551           50117                           INDEX    DECOUNT
001326: 41,2552           34317                           CAF      R1D1
001327: 41,2553           54776                           TS       DSPCOUNT
001328: 41,2554           50117                           INDEX    DECOUNT
001329: 41,2555           41002                           CS       XREG
001330: 41,2556           54154                           TS       MPAC
001331: 41,2557           03077                           TC       SFCONUM                               #  2X( SF CON NUMB ) IN A


001333: 41,2560           54123                           TS       SFTEMP1
001334: 41,2561           00006                           EXTEND                                         #  SWITCH BANKS TO SF CONSTANT TABLE
001335: 41,2562           32574                           DCA      GTSFOUTL                              #     READING ROUTINE.
001336: 41,2563           52006                           DXCH     Z                                     #  LOADS SFTEMP1, SFTEMP2.
001337: 41,2564           50140                           INDEX    MIXBR
001338: 41,2565           02565                           TC       +0
001339: 41,2566           02571                           TC       DSPSFNOR
001340: 41,2567           03064                           TC       SFRUTMIX
001341: 41,2570           02604                           TC       DECDSP3
001342:
001343: 41,2571           03056        DSPSFNOR           TC       SFRUTNOR
001344: 41,2572           02604                           TC       DECDSP3
001345:
001346: 41,2573     0776                                  EBANK=   DSPCOUNT
001347: 41,2573           02141 64101  GTSFOUTL           2CADR    GTSFOUT
001348:
001349:
001350:
001351: 41,2575           04616        DSPDCEND           TC       BANKCALL                              #  ALL SFOUT ROUTINES END HERE
001352: 41,2576           61271                           CADR     DSPDECWD
001353: 41,2577           10117                           CCS      DECOUNT
001354: 41,2600           02602                           TC       +2
001355: 41,2601           00136                           TC       ENTEXIT
001356: 41,2602           54117                           TS       DECOUNT
001357: 41,2603           02546                           TC       DSPDCPUT                              #  MORE TO DISPLAY
001358:
001359:
001360: 41,2604           50000        DECDSP3            INDEX    A
001361: 41,2605           32607                           CAF      SFOUTABR
001362: 41,2606           04640                           TC       BANKJUMP
001363:
001364: 41,2607           61461        SFOUTABR           CADR     PREDSPAL                              #  ALARM IF DEC DISP WITH OCTAL ONLY NOUN
001365: 41,2610           62575                           CADR     DSPDCEND
001366: 41,2611           60624                           CADR     DEGOUTSF
001367: 41,2612           60742                           CADR     ARTOUTSF
001368: 41,2613           60753                           CADR     DP1OUTSF
001369: 41,2614           60760                           CADR     DP2OUTSF
001370: 41,2615           60644                           CADR     LRPOSOUT
001371: 41,2616           60762                           CADR     DP3OUTSF
001372: 41,2617           65230                           CADR     HMSOUT
001373: 41,2620           65303                           CADR     M/SOUT
001374: 41,2621           60760                           CADR     DP2OUTSF
001375: 41,2622           60747                           CADR     AROUT1SF
001376: 41,2623           60775                           CADR     2INTOUT
001377: 41,2624           60632                           CADR     360-CDUO
001378: 41,2625           60654                           CADR     RRANGOUT
001379: 41,2626           60671                           CADR     RRDOTOUT
001380: 41,2627                        ENDRTOUT           EQUALS
001381:


001383:                                                                                                  #          THE FOLLOWING IS ATYPICAL SF ROUTINE . IT USES MPAC. LEAVES RESU
001384:                                                                                                  #  LTS IN MPAC, MPAC+1. ENDS WITH TC DSPDCEND
001385:
001386:
001387: 40,2624                                           SETLOC   BLANKCON   +1
001388:
001389: 40,2624                                           COUNT*   $$/PIN
001390:                                                                                                  #     DEGOUTSF SCALES BY .18 THE LOW 14 BITS OF ANGLE , ADDING .18 FOR
001391:                                                                                                  #  NUMBERS IN THE NEGATIVE (AGC) RANGE.
001392:
001393: 40,2624           34755        DEGOUTSF           CAF      ZERO
001394: 40,2625           54156                           TS       MPAC       +2                         #  SET INDEX FOR FULL SCALE
001395: 40,2626           02715                           TC       FIXRANGE
001396: 40,2627           02631                           TC       +2                                    #  NO AUGMENT NEEDED (SFTEMP1 AND 2 ARE 0)
001397: 40,2630           02710                           TC       SETAUG                                #  SET AUGMENTER ACCORDING TO C(MPAC +2)
001398: 40,2631           02726                           TC       DEGCOM
001399:
001400:                                                                                                  #  360-CDUO COMPUTES 360 - CDU ANGLE IN MPAC, STORES RESULT IN MPAC AND
001401:                                                                                                  #  GOES TO DEGOUTSF.
001402:
001403: 40,2632           02634        360-CDUO           TC       360-CDU
001404: 40,2633           02624                           TC       DEGOUTSF
001405:
001406: 40,2634           30154        360-CDU            CA       MPAC
001407: 40,2635           74733                           MASK     POSMAX                                #  IF ANGLE IS 0 OR 180 DEGREES, DO NOTHING
001408: 40,2636           00006                           EXTEND
001409: 40,2637           12643                           BZF      360-CDUE
001410: 40,2640           40154                           CS       MPAC                                  #  COMPUTE 360 DEGREES MINUS ANGLE
001411: 40,2641           64753                           AD       ONE
001412: 40,2642           54154                           TS       MPAC
001413: 40,2643           00002        360-CDUE           TC       Q
001414:
001415:                                                                                                  #  LRPOSOUT DISPLAYS +0,1,2,OR 3 (WHOLE) FOR CHANNEL 33,BITS 7-6 = 11,10,
001416:                                                                                                  #  01,00 RESPECTIVELY.
001417:
001418: 40,2644           00006        LRPOSOUT           EXTEND
001419: 40,2645           00033                           READ     CHAN33
001420: 40,2646           00006                           EXTEND
001421: 40,2647           74742                           MP       BIT10                                 #  BITS 7-6 TO BITS 2-1
001422: 40,2650           40000                           COM
001423: 40,2651           76250                           MASK     THREE
001424: 40,2652           54154                           TS       MPAC
001425: 40,2653           02742                           TC       ARTOUTSF                              #  DISPLAY AS WHOLE
001426:
001427:                                                                                                  #  RRANGOUT AND RRDOTOUT CONVERT RR RANGE AND RANGE RATE FROM SP 15 BIT
001428:                                                                                                  #  MAGNITUDE TO DP AND THEN SCALE FOR DISPLAY.
001429:
001430: 40,2654           02700        RRANGOUT           TC       RRSPTODP                              #  CONVERT TO DP.
001431: 40,2655           40110                           CS       RADMODES                              #  BIT 3 OF FLAG12 = HI SCALE
001432: 40,2656           74751                           MASK     BIT3


001434: 40,2657           10000                           CCS      A
001435: 40,2660           02666                           TC       SCALELO                               #  DATA IS IN LO SCALE.
001436: 40,2661           52155                           DXCH     MPAC                                  #  DATA IS IN HI SCALE, MP BY 8.
001437: 40,2662           20001                           DAS      A
001438: 40,2663           20001                           DAS      A
001439: 40,2664           20001                           DAS      A
001440: 40,2665           52155                           DXCH     MPAC
001441: 40,2666           07106        SCALELO            TC       DMP                                   #  SCALE FOR DISPLAY,
001442: 40,2667           00123                           ADRES    SFTEMP1
001443: 40,2670           02754                           TC       L14/OUT                               #  AND GO TO ARITHDP1.
001444:
001445: 40,2671           02700        RRDOTOUT           TC       RRSPTODP                              #  CONVERT TO DP.
001446: 40,2672           00006                           EXTEND
001447: 40,2673           42677                           DCS      BIASRDOT                              #  SUBTRACT BIAS OF 17000 COUNTS.
001448: 40,2674           20155                           DAS      MPAC
001449: 40,2675           02666                           TC       SCALELO                               #  SCALE FOR DISPLAY.
001450: 40,2676           00001 01150  BIASRDOT           2DEC     17000      B-28
001451:
001452:
001453: 40,2700           34733        RRSPTODP           CAF      POSMAX                                #  CONVERT SP 15 BIT MAG TO DP.
001454: 40,2701           70154                           MASK     MPAC
001455: 40,2702           54155                           TS       MPAC       +1
001456: 40,2703           30154                           CA       MPAC
001457: 40,2704           60000                           DOUBLE
001458: 40,2705           74753                           MASK     BIT1
001459: 40,2706           54154                           TS       MPAC
001460: 40,2707           00002                           TC       Q
001461:
001462: 40,2710           00006        SETAUG             EXTEND                                         #  LOADS SFTEMP1 AND SFTEMP2 WITH THE
001463: 40,2711           50156                           INDEX    MPAC       +2                         #  DP AUGMENTER CONSTANT
001464: 40,2712           32737                           DCA      DEGTAB
001465: 40,2713           52124                           DXCH     SFTEMP1
001466: 40,2714           00002                           TC       Q
001467:
001468: 40,2715           10154        FIXRANGE           CCS      MPAC                                  #  IF MPAC IS + RETURN TO L+1
001469: 40,2716           00002                           TC       Q                                     #  IF MPAC IS - RETURN TO L+2 AFTER
001470: 40,2717           00002                           TC       Q                                     #  MASKING OUT THE SIGN BIT
001471: 40,2720           12721                           TCF      +1
001472: 40,2721           44735                           CS       BIT15
001473: 40,2722           70154                           MASK     MPAC
001474: 40,2723           54154                           TS       MPAC
001475: 40,2724           50002                           INDEX    Q
001476: 40,2725           00001                           TC       1
001477:
001478: 40,2726           00006        DEGCOM             EXTEND                                         #  LOADS MULTIPLIER , DOES SHORTMP, AND
001479: 40,2727           50156                           INDEX    MPAC       +2                         #  ADDS AUGMENTER.


001481: 40,2730           32737                           DCA      DEGTAB
001482: 40,2731           52155                           DXCH     MPAC                                  #  ADJUSTED ANGLE IN A
001483: 40,2732           07312                           TC       SHORTMP
001484: 40,2733           52124                           DXCH     SFTEMP1
001485: 40,2734           20155                           DAS      MPAC
001486: 40,2735           02745                           TC       SCOUTEND
001487:
001488:
001489: 40,2736           05605        DEGTAB             OCT      05605                                 #  HI PART OF     .18
001490: 40,2737           03656                           OCT      03656                                 #  LOW PART OF    .18
001491: 40,2740           16314                           OCT      16314                                 #  HI PART OF     .45
001492: 40,2741           31463                           OCT      31463                                 #  LO PART OF     .45
001493:
001494: 40,2742           52124        ARTOUTSF           DXCH     SFTEMP1                               #  ASSUMES POINT AT LEFT OF DP SFCON
001495: 40,2743           52155                           DXCH     MPAC
001496: 40,2744           04415                           TC       PRSHRTMP                              #  IF C(A) = -0, SHORTMP FAILS TO GIVE -0.
001497: 40,2745           04635        SCOUTEND           TC       POSTJUMP
001498: 40,2746           62575                           CADR     DSPDCEND
001499:
001500: 40,2747           52124        AROUT1SF           DXCH     SFTEMP1                               #  ASSUMES POINT BETWEEN HI AND LO PARTS OF
001501: 40,2750           52155                           DXCH     MPAC                                  #  DP SFCON. SHIFTS RESULTS LEFT 14, BY
001502: 40,2751           04415                           TC       PRSHRTMP                              #  TAKING RESULTS FROM MPAC+1, MPAC+2.
001503: 40,2752           02754                           TC       L14/OUT
001504:
001505:
001506: 40,2753           02766        DP1OUTSF           TC       DPOUT                                 #  SCALES MPAC, MPAC +1 BY DP SCALE FACTOR
001507: 40,2754           56156        L14/OUT            XCH      MPAC       +2                         #  IN SFTEMP1, SFTEMP2. THEN SCALE RESULT
001508: 40,2755           56155                           XCH      MPAC       +1                         #  BY B14.
001509: 40,2756           54154                           TS       MPAC
001510: 40,2757           02745                           TC       SCOUTEND
001511:
001512:
001513: 40,2760           02766        DP2OUTSF           TC       DPOUT                                 #  SCALES MPAC , MPAC +1 BY DP SCALE FACTOR
001514: 40,2761           02745                           TC       SCOUTEND
001515:
001516:
001517: 40,2762           02766        DP3OUTSF           TC       DPOUT                                 #  ASSUMES POINT BETWEEN BITS 7-8 OF HIGH
001518: 40,2763           36245                           CAF      SIX                                   #  LEFT BY 7, ROUNDS MPAC+2 INTO MPAC+1.
001519: 40,2764           03216                           TC       TPLEFTN                               #  SHIFT LEFT 7.
001520: 40,2765           02745                           TC       SCOUTEND
001521:
001522:
001523: 40,2766     0162               MPAC+6             =        MPAC       +6                         #  USE MPAC +6 INSTEAD OF OVFIND
001524:
001525: 40,2766           56002        DPOUT              XCH      Q
001526: 40,2767           54162                           TS       MPAC+6
001527: 40,2770           03012                           TC       READLO                                #  GET FRESH DATA FOR BOTH HI AND LO.
001528: 40,2771           07262                           TC       TPAGREE                               #  MAKE DP DATA AGREE
001529: 40,2772           07106                           TC       DMP
001530: 40,2773           00123                           ADRES    SFTEMP1


001532: 40,2774           00162                           TC       MPAC+6
001533:                                                                                                  #  THE FOLLOWING ROUTINE DISPLAYS TWO CONTIGUOUS SP POSITIVE INTEGERS
001534:                                                                                                  #  AS TWO POSITIVE DECIMAL INTEGERS IN RXD1-RXD2 AND RXD4-RXD5 (RXD3 IS
001535:                                                                                                  #  BLANKED). THE INTEGER IN THE LOWER NUMBERED ADDRESS IS DISPLAYED IN
001536:                                                                                                  #  RXD1-RXD2.
001537:
001538: 40,2775           02545        2INTOUT            TC       5BLANK                                #  TO BLANK RXD3
001539: 40,2776           02422                           TC       +ON                                   #  TURN ON + SIGN
001540: 40,2777           30154                           CA       MPAC
001541: 40,3000           03351                           TC       DSPDECVN                              #  DISPLAY 1ST INTEGER (LIKE VERB AND NOUN)
001542: 40,3001           46250                           CS       THREE
001543: 40,3002           50117                           INDEX    DECOUNT
001544: 40,3003           64317                           AD       R1D1                                  #  RXD4
001545: 40,3004           54776                           TS       DSPCOUNT
001546: 40,3005           03012                           TC       READLO                                #  GET 2ND INTEGER
001547: 40,3006           30155                           CA       MPAC       +1
001548: 40,3007           03351                           TC       DSPDECVN                              #  DISPLAY 2ND INTEGER (LIKE VERB AND NOUN)
001549: 40,3010           04635                           TC       POSTJUMP
001550: 40,3011           62577                           CADR     DSPDCEND   +2
001551:
001552:
001553:                                                                                                  #  READLO PICKS UP FRESH DATA FOR BOTH HI AND LO AND LEAVES IT IN
001554:                                                                                                  #  MPAC, MPAC+1. THIS IS NEEDED FOR TIME DISPLAY. IT ZEROES MPAC+2, BUT
001555:                                                                                                  #  DOES NOT FORCE TPAGREE.
001556:
001557: 40,3012           56002        READLO             XCH      Q
001558: 40,3013           54144                           TS       TEM4
001559: 40,3014           50140                           INDEX    MIXBR
001560: 40,3015           03015                           TC       +0
001561: 40,3016           03032                           TC       RDLONOR
001562: 40,3017           50117                           INDEX    DECOUNT
001563: 40,3020           30150                           CA       IDAD1TEM                              #  GET IDADDTAB ENTRY FOR COMP K OF NOUN.
001564: 40,3021           74356                           MASK     LOW11                                 #  E SUBK
001565: 40,3022           04313                           TC       SETEBANK                              #  SET EB, LEAVE EADRES IN A.
001566: 40,3023           00006        READLO1            EXTEND                                         #  MIXED         NORMAL
001567: 40,3024           50000                           INDEX    A                                     #  C(ESUBK)      C(E)
001568: 40,3025           30001                           DCA      0                                     #  C((E SUBK)+1)      C(E+1)
001569: 40,3026           52155                           DXCH     MPAC
001570: 40,3027           34755                           CAF      ZERO
001571: 40,3030           54156                           TS       MPAC       +2
001572: 40,3031           00144                           TC       TEM4
001573:
001574: 40,3032           30145        RDLONOR            CA       NOUNADD                               #  E
001575: 40,3033           03023        ENDRDLO            TC       READLO1
001576:


001578: 42,3230                                           BANK     42
001579: 42,2000                                           SETLOC   PINBALL3
001580: 42,2000                                           BANK
001581:
001582: 42,3230                                           COUNT*   $$/PIN
001583: 42,3230           04616        HMSOUT             TC       BANKCALL                              #  READ FRESH DATA FOR HI AND LO INTO MPAC,
001584: 42,3231           61012                           CADR     READLO                                #  MPAC+1.
001585: 42,3232           07262                           TC       TPAGREE                               #  MAKE DP DATA AGREE
001586: 42,3233           03417                           TC       SEPSECNR                              #  LEAVE FRACT SEC/60 IN MPAC, MPAC+1.LEAVE
001587:                                                                                                  #  WHOLE MIN IN BIT13 OF LOTEMOUT AND ABOVE
001588: 42,3234           07106                           TC       DMP                                   #  USE ONLY FRACT SEC/60 MOD 60
001589: 42,3235           03271                           ADRES    SECON2                                #  MULT BY .06
001590: 42,3236           34321                           CAF      R3D1                                  #  GIVES CENTI-SEC/10EXP5 MOD 60
001591: 42,3237           54776                           TS       DSPCOUNT
001592: 42,3240           04616                           TC       BANKCALL                              #  DISPLAY SEC MOD 60
001593: 42,3241           61271                           CADR     DSPDECWD
001594: 42,3242           03435                           TC       SEPMIN                                #  REMOVE REST OF SECONDS
001595: 42,3243           33273                           CAF      MINCON2                               #  LEAVE FRACT MIN/60 IN MPAC+1. LEAVE
001596: 42,3244           56154                           XCH      MPAC                                  #  WHOLE HOURS IN MPAC.
001597: 42,3245           55006                           TS       HITEMOUT                              #  SAVE WHOLE HOURS.
001598: 42,3246           33274                           CAF      MINCON2    +1
001599: 42,3247           56155                           XCH      MPAC       +1                         #  USE ONLY FRACT MIN/60 MOD 60
001600: 42,3250           04415                           TC       PRSHRTMP                              #  IF C(A) = -0, SHORTMP FAILS TO GIVE -0.
001601:                                                                                                  #  MULT BY .0006
001602: 42,3251           34320                           CAF      R2D1                                  #  GIVES MIN/10EXP5 MOD 60
001603: 42,3252           54776                           TS       DSPCOUNT
001604: 42,3253           04616                           TC       BANKCALL                              #  DISPLAY MIN MOD 60
001605: 42,3254           61271                           CADR     DSPDECWD
001606: 42,3255           00006                           EXTEND                                         #  MINUTES, SECONDS HAVE BEEN REMOVED
001607: 42,3256           33300                           DCA      HRCON1
001608: 42,3257           52155                           DXCH     MPAC
001609: 42,3260           31006                           CA       HITEMOUT                              #  USE WHOLE HOURS
001610: 42,3261           04415                           TC       PRSHRTMP                              #  IF C(A) = -0, SHORTMP FAILS TO GIVE -0.
001611:                                                                                                  #  MULT BY .16384
001612: 42,3262           34317                           CAF      R1D1                                  #  GIVES HOURS/10EXP5
001613: 42,3263           54776                           TS       DSPCOUNT
001614: 42,3264           04616                           TC       BANKCALL                              #  USE REGULAR DSPDECWD, WITH ROUND OFF.
001615: 42,3265           61271                           CADR     DSPDECWD
001616: 42,3266           00136                           TC       ENTEXIT
001617:
001618: 42,3267           25660 31742  SECON1             2DEC*    1.666666666 E-4        B12*            #  2EXP12/6000
001619:
001620: 42,3271           01727        SECON2             OCT      01727                                 #  .06 FOR SECONDS DISPLAY
001621: 42,3272           01217                           OCT      01217
001622: 42,3273           00011        MINCON2            OCT      00011                                 #  .0006 FOR MINUTES DISLPAY
001623: 42,3274           32445                           OCT      32445
001624: 42,3275           02104        MINCON1            OCT      02104                                 #  .066..66 UPPED BY 2EXP-28
001625: 42,3276           10422                           OCT      10422
001626: 42,3277           05174 13261  HRCON1             2DEC     .16384
001627:


001629: 42,3301           00000                           OCT      00000
001630: 42,3302           00062        RNDCON             OCT      00062                                 #  .5 SEC
001631:
001632:
001633: 42,3303           04616        M/SOUT             TC       BANKCALL                              #  READ FRESH DATA FOR HI AND LO INTO MPAC,
001634: 42,3304           61012                           CADR     READLO                                #  MPAC+1.
001635: 42,3305           07262                           TC       TPAGREE                               #  MAKE DP DATA AGREE
001636: 42,3306           10154                           CCS      MPAC                                  #  IF MAG OF (MPAC, MPAC+1) G/ 59 M 59 S,
001637: 42,3307           03311                           TC       +2                                    #  DISPLAY 59B59, WITH PROPER SIGN.
001638: 42,3310           03342                           TC       M/SNORM                               #  MPAC = +0. L/ 59M58.5S
001639: 42,3311           63377                           AD       M/SCON1                               #  - HI PART OF (59M58.5S) +1  FOR CCS
001640: 42,3312           10000                           CCS      A                                     #  MAG OF MPAC - HI PART OF (59M58.5S)
001641: 42,3313           03326                           TC       M/SLIMIT                              #  G/ 59M58.5S
001642: 42,3314           03342                           TC       M/SNORM                               #  ORIGINAL MPAC = -0. L/ 59M58.5S
001643: 42,3315           03342                           TC       M/SNORM                               #  L/ 59M58.5S
001644: 42,3316           10155                           CCS      MPAC       +1                         #  MAG OF MPAC = HI PART OF 59M58.5S
001645: 42,3317           03321                           TC       +2
001646: 42,3320           03342                           TC       M/SNORM                               #  MPAC+1 = +0. L/ 59M58.5S
001647: 42,3321           63400                           AD       M/SCON2                               #  - LO PART OF (59M58.5S) +1  FOR CCS
001648: 42,3322           10000                           CCS      A                                     #  MAG OF MPAC+1 - LO PART OF (59M58.5S)
001649: 42,3323           03326                           TC       M/SLIMIT                              #  G/ 59M58.5S
001650: 42,3324           03342                           TC       M/SNORM                               #  ORIGINAL MPAC+1 = -0. L/ 59M58.5S
001651: 42,3325           03342                           TC       M/SNORM                               #  L/ 59M58.5S
001652: 42,3326           10154        M/SLIMIT           CCS      MPAC                                  #  = 59M58.5S    LIMIT
001653: 42,3327           33402                           CAF      M/SCON3                               #  MPAC CANNOT BE +/- 0 AT THIS POINT.
001654: 42,3330           03337                           TC       +LIMIT                                #  FORCE MPAC, MPAC+1 TO +/- 59M59.5S
001655: 42,3331           43402                           CS       M/SCON3
001656: 42,3332           54154                           TS       MPAC                                  #  WILL DISPLAY 59M59S IN DSPDECNR
001657: 42,3333           43403                           CS       M/SCON3    +1
001658: 42,3334           54155        LIMITCOM           TS       MPAC       +1
001659: 42,3335           33401                           CAF      NORMADR                               #  SET RETURN TO M/SNORM+1.
001660: 42,3336           03420                           TC       SEPSECNR   +1
001661: 42,3337           54154        +LIMIT             TS       MPAC
001662: 42,3340           33403                           CAF      M/SCON3    +1
001663: 42,3341           03334                           TC       LIMITCOM
001664: 42,3342           03404        M/SNORM            TC       SEPSEC                                #  LEAVE FRACT SEC/60 IN MPAC,MPAC+1. LEAVE
001665:                                                                                                  #  WHOLE MIN IN BIT13 OF LOTEMOUT AND ABOVE
001666: 42,3343           33375                           CAF      HISECON                               #  USE ONLY FRACT SEC/60 MOD 60
001667: 42,3344           07312                           TC       SHORTMP                               #  MULT BY .6 + 2EXP-14
001668: 42,3345           46250                           CS       THREE                                 #  GIVES SEC/100 MOD 60
001669: 42,3346           26776                           ADS      DSPCOUNT                              #  DSPCOUNT ALREADY SET TO RXD1
001670: 42,3347           04616                           TC       BANKCALL                              #  DISPLAY SEC MOD 60 IN D4D5.
001671: 42,3350           61331                           CADR     DSPDC2NR
001672: 42,3351           34755                           CAF      ZERO
001673: 42,3352           54124                           TS       CODE
001674: 42,3353           44752                           CS       TWO
001675: 42,3354           50117                           INDEX    DECOUNT
001676: 42,3355           64317                           AD       R1D1                                  #  RXD3
001677: 42,3356           54143                           TS       COUNT
001678: 42,3357           04616                           TC       BANKCALL                              #  BLANK MIDDLE CHAR


001680: 42,3360           61365                           CADR     DSPIN
001681: 42,3361           03435                           TC       SEPMIN                                #  REMOVE REST OF SECONDS
001682: 42,3362           56155                           XCH      MPAC       +1                         #  LEAVE FRACT MIN/60 IN MPAC+1
001683: 42,3363           00006                           EXTEND                                         #  USE ONLY FRACT MIN/60 MOD 60
001684: 42,3364           73376                           MP       HIMINCON                              #  MULT BY .6 + 2EXP-7
001685: 42,3365           52155                           DXCH     MPAC                                  #  GIVES MIN/100 MOD 60
001686: 42,3366           50117                           INDEX    DECOUNT
001687: 42,3367           34317                           CAF      R1D1                                  #  RXD1
001688: 42,3370           54776                           TS       DSPCOUNT
001689: 42,3371           04616                           TC       BANKCALL                              #  DISPLAY MIN MOD 60 IN D1D2.
001690: 42,3372           61331                           CADR     DSPDC2NR
001691: 42,3373           04635                           TC       POSTJUMP
001692: 42,3374           62577                           CADR     DSPDCEND   +2
001693:
001694: 42,3375           23147        HISECON            OCT      23147                                 #  .6 + 2EXP-14
001695: 42,3376           23346        HIMINCON           OCT      23346                                 #  .6 + 2EXP-7
001696:
001697: 42,3377           77753        M/SCON1            OCT      77753                                 #  - HI PART OF (59M58.5S) +1
001698: 42,3400           41126        M/SCON2            OCT      41126                                 #  - LO PART OF (59M58.5S) +1
001699: 42,3401           03343        NORMADR            ADRES    M/SNORM    +1
001700: 42,3402           00025        M/SCON3            OCT      00025                                 #  59M 59.5S
001701: 42,3403           37016                           OCT      37016
001702:
001703:
001704: 42,3404           10155        SEPSEC             CCS      MPAC       +1                         #  IF +, ROUND BY ADDING .5 SEC
001705: 42,3405           13414                           TCF      POSEC                                 #  IF -, ROUND BY SUBTRACTING .5 SEC
001706: 42,3406           13414                           TCF      POSEC                                 #  FINDS TIME IN MPAC, MPAC+1
001707: 42,3407           13410                           TCF      +1                                    #  ROUNDS OFF BY +/- .5 SEC
001708: 42,3410           00006                           EXTEND                                         #  LEAVES WHOLE MIN IN BIT13 OF
001709: 42,3411           43302                           DCS      RNDCON     -1                         #  LOTEMOUT AND ABOVE.
001710: 42,3412           20155        SEPSEC1            DAS      MPAC                                  #  LEAVES FRACT SEC/60 IN MPAC, MPAC+1.
001711: 42,3413           13417                           TCF      SEPSECNR
001712: 42,3414           00006        POSEC              EXTEND
001713: 42,3415           33302                           DCA      RNDCON     -1
001714: 42,3416           13412                           TCF      SEPSEC1
001715: 42,3417           56002        SEPSECNR           XCH      Q                                     #  THIS ENTRY AVOIDS ROUNDING BY .5 SEC
001716: 42,3420           54144                           TS       SEPSCRET
001717: 42,3421           07106                           TC       DMP                                   #  MULT BY 2EXP12/6000
001718: 42,3422           03267                           ADRES    SECON1                                #  GIVES FRACT SEC/60 IN BIT12 OF MPAC+1
001719: 42,3423           00006                           EXTEND                                         #  AND BELOW.
001720: 42,3424           30155                           DCA      MPAC                                  #  SAVE MINUTES AND HOURS
001721: 42,3425           53007                           DXCH     HITEMOUT
001722: 42,3426           04404                           TC       TPSL1
001723: 42,3427           04404                           TC       TPSL1                                 #  GIVES FRACT SEC/60 IN MPAC+1, MPAC+2.
001724: 42,3430           34755                           CAF      ZERO
001725: 42,3431           56156                           XCH      MPAC       +2                         #  LEAVE FRACT SEC/60 IN MPAC, MPAC+1.
001726: 42,3432           56155                           XCH      MPAC       +1
001727: 42,3433           56154                           XCH      MPAC
001728: 42,3434           00144                           TC       SEPSCRET
001729:


001731: 42,3435           56002        SEPMIN             XCH      Q                                     #  FINDS WHOLE MINUTES IN BIT13
001732: 42,3436           54144                           TS       SEPMNRET                              #  OF LOTEMOUT AND ABOVE.
001733: 42,3437           31007                           CA       LOTEMOUT                              #  REMOVES REST OF SECONDS.
001734: 42,3440           00006                           EXTEND                                         #  LEAVES FRACT MIN/60 IN MPAC+1.
001735: 42,3441           74751                           MP       BIT3                                  #  LEAVES WHOLE HOURS IN MPAC.
001736: 42,3442           00006                           EXTEND                                         #  SR 12, THROW AWAY LP.
001737: 42,3443           74737                           MP       BIT13                                 #  SR 2, TAKE FROM LP. = SL 12.
001738: 42,3444           22155                           LXCH     MPAC       +1                         #  THIS FORCES BITS 12-1 TO 0 IF +,
001739:                                                                                                  #  FORCES BITS 12-1 TO 1 IF -.
001740: 42,3445           31006                           CA       HITEMOUT
001741: 42,3446           54154                           TS       MPAC
001742: 42,3447           07106                           TC       DMP                                   #  MULT BY 1/15
001743: 42,3450           03275                           ADRES    MINCON1                               #  GIVES FRACT MIN/60 IN MPAC+1.
001744: 42,3451           00144        ENDSPMIN           TC       SEPMNRET                              #  GIVES WHOLE HOURS IN MPAC.
001745:
001746:
001747:                                                                                                  #  THIS IS A SPECIAL PURPOSE VERB FOR DISPLAYING A DOUBLE PRECISION AGC
001748:                                                                                                  #  WORD AS 10 DECIMAL DIGITS ON THE AGC DISPLAY PANEL.  IT CAN BE USED WITH
001749:                                                                                                  #  ANY NOUN, EXCEPT MIXED NOUNS. IT DISPLAYS THE CONTENTS
001750:                                                                                                  #  OF THE REGISTER NOUNADD IS POINTING TO .  IF USED WITH NOUNS WHICH ARE
001751:                                                                                                  #  INHERENTLY NOT DP SUCH AS THE CDU COUNTERS THE DISPLAY WILL BE GARBAGE.
001752:                                                                                                  #  DISPLAY IS IN R1 AND R2 ONLY WITH THE SIGN IN R1.
001753:
001754:
001755: 40,3034                                           SETLOC   ENDRDLO    +1
001756:
001757: 40,3034                                           COUNT*   $$/PIN
001758: 40,3034           50140        DSPDPDEC           INDEX    MIXBR
001759: 40,3035           03035                           TC       +0
001760: 40,3036           03040                           TC       +2                                    #  NORMAL NOUN
001761: 40,3037           03463                           TC       DSPALARM
001762: 40,3040           00006                           EXTEND
001763: 40,3041           50145                           INDEX    NOUNADD
001764: 40,3042           30001                           DCA      0
001765: 40,3043           52155                           DXCH     MPAC
001766: 40,3044           34317                           CAF      R1D1
001767: 40,3045           54776                           TS       DSPCOUNT
001768: 40,3046           34755                           CAF      ZERO
001769: 40,3047           54156                           TS       MPAC       +2
001770: 40,3050           07262                           TC       TPAGREE
001771: 40,3051           03336                           TC       DSP2DEC
001772: 40,3052           00136        ENDDPDEC           TC       ENTEXIT
001773:


001775:                                                                                                  #  LOAD VERBS           IF ALARM CONDITION IS DETECTED DURING EXECUTE,
001776:                                                                                                  #  CHECK FAIL LIGHT IS TURNED ON AND ENDOFJOB. IF ALARM CONDITION IS
001777:                                                                                                  #  DETECTED DURING ENTER OF DATA, CHECK FAIL IS TURNED ON AND IT RECYCLES
001778:                                                                                                  #  TO EXECUTE  OF ORIGINAL LOAD VERB. RECYCLE CAUSED BY  1) DECIMAL MACHINE
001779:                                                                                                  #  CADR  2) MIXTURE OF OCTAL/DECIMAL DATA  3) OCTAL DATA INTO DECIMAL
001780:                                                                                                  #  ONLY NOUN  4) DEC DATA INTO OCT ONLY NOUN  5) DATA TOO LARGE FOR SCALE
001781:                                                                                                  #  6) FEWER THAN 3 DATA WORDS LOADED FOR HRS, MIN, SEC NOUN.8(2)-(6) ALARM
001782:                                                                                                  #  AND RECYCLE OCCUR AT FINAL ENTER OF SET. (1) ALARM AND RECYCLE OCCUR AT
001783:                                                                                                  #  ENTER OF CADR.
001784:
001785:
001786: 41,2627                                           SETLOC   ENDRTOUT
001787:
001788: 41,2627                                           COUNT*   $$/PIN
001789: 41,2627           44752        ABCLOAD            CS       TWO
001790: 41,2630           02433                           TC       COMPTEST
001791: 41,2631           02467                           TC       NOUNTEST                              #  TEST IF NOUN CAN BE LOADED.
001792: 41,2632           33036                           CAF      VBSP1LD
001793: 41,2633           02346                           TC       UPDATVB    -1
001794: 41,2634           02312                           TC       REQDATX
001795: 41,2635           33037                           CAF      VBSP2LD
001796: 41,2636           02346                           TC       UPDATVB    -1
001797: 41,2637           02314                           TC       REQDATY
001798: 41,2640           33040                           CAF      VBSP3LD
001799: 41,2641           02346                           TC       UPDATVB    -1
001800: 41,2642           02316                           TC       REQDATZ
001801:
001802:
001803: 41,2643           46245        PUTXYZ             CS       SIX                                   #  TEST THAT THE 3 DATA WORDS LOADED ARE
001804: 41,2644           03041                           TC       ALLDC/OC                              #  ALL DEC OR ALL OCT.
001805: 41,2645           00006                           EXTEND
001806: 41,2646           32121                           DCA      LODNNLOC                              #  SWITCH BANKS TO NOUN TABLE READING
001807: 41,2647           52006                           DXCH     Z                                     #  ROUTINE.
001808: 41,2650           34755                           CAF      ZERO                                  #  X COMP
001809: 41,2651           03125                           TC       PUTCOM
001810: 41,2652           50145                           INDEX    NOUNADD
001811: 41,2653           54000                           TS       0
001812: 41,2654           34753                           CAF      ONE                                   #  Y COMP
001813: 41,2655           03125                           TC       PUTCOM
001814: 41,2656           50145                           INDEX    NOUNADD
001815: 41,2657           54001                           TS       1
001816: 41,2660           34752                           CAF      TWO                                   #  Z COMP
001817: 41,2661           03125                           TC       PUTCOM
001818: 41,2662           50145                           INDEX    NOUNADD
001819: 41,2663           54002                           TS       2
001820: 41,2664           44757                           CS       SEVEN                                 #  IF NOUN 7 HAS JUST BEEN LOADED, SET
001821: 41,2665           61001                           AD       NOUNREG                               #   FLAG BITS AS SPECIFIED.
001822: 41,2666           00006                           EXTEND
001823: 41,2667           12671                           BZF      +2
001824: 41,2670           03025                           TC       LOADLV


001826: 41,2671           00004                           INHINT
001827: 41,2672           44763                           CS       OCT30                                 #  IS IT A CHANNEL (30 OR UNDER)
001828: 41,2673           61002                           AD       XREG
001829: 41,2674           00006                           EXTEND
001830: 41,2675           62705                           BZMF     CHANBITS                              #  YES
001831:
001832: 41,2676           31002                           CA       XREG                                  #  ECADR OF ERASABLE CELL
001833: 41,2677           04304                           TC       SETNCADR   +1                         #  SET EBANK, NOUNADD
001834:
001835: 41,2700           50145                           INDEX    NOUNADD
001836: 41,2701           30000                           CA       0
001837: 41,2702           54001                           TS       L
001838: 41,2703           34753                           CAF      ONE
001839: 41,2704           55002                           TS       XREG                                  #  MAKE IT LOOK LIKE A CHANNEL FOR A WHILE
001840:
001841: 41,2705           64361        CHANBITS           AD       OCT21
001842: 41,2706           00006                           EXTEND
001843: 41,2707           12731                           BZF      BITSOFF2                              #  DONT TOUCH CHAN7 (SUPERBANK)
001844:
001845: 41,2710           31004                           CA       ZREG
001846: 41,2711           00006                           EXTEND
001847: 41,2712           62720                           BZMF     BITSOFF                               #  R3 IS ZERO FOR OFF, NONZERO FOR ON
001848:
001849: 41,2713           31003                           CA       YREG
001850: 41,2714           00006                           EXTEND
001851: 41,2715           51002                           INDEX    XREG
001852: 41,2716           05000                           WOR      0
001853: 41,2717           12724                           TCF      BITSOFF1
001854:
001855: 41,2720           41003        BITSOFF            CS       YREG
001856: 41,2721           00006                           EXTEND
001857: 41,2722           51002                           INDEX    XREG
001858: 41,2723           03000                           WAND     0
001859:
001860: 41,2724           11002        BITSOFF1           CCS      XREG                                  #  WAS IT REALLY A CHANNEL
001861: 41,2725           10000                           CCS      A
001862: 41,2726           12731                           TCF      BITSOFF2                              #  YES
001863:
001864: 41,2727           50145                           INDEX    NOUNADD
001865: 41,2730           22000                           LXCH     0
001866:
001867: 41,2731           00003        BITSOFF2           RELINT
001868: 41,2732           03025                           TC       LOADLV
001869:
001870: 41,2733     4763               OCT30              =        BITS4&5
001871: 41,2733           44753        ABLOAD             CS       ONE
001872: 41,2734           02433                           TC       COMPTEST
001873: 41,2735           02467                           TC       NOUNTEST                              #  TEST IF NOUN CAN BE LOADED.
001874: 41,2736           33036                           CAF      VBSP1LD
001875: 41,2737           02346                           TC       UPDATVB    -1


001877: 41,2740           02312                           TC       REQDATX
001878: 41,2741           33037                           CAF      VBSP2LD
001879: 41,2742           02346                           TC       UPDATVB    -1
001880: 41,2743           02314                           TC       REQDATY
001881: 41,2744           44756        PUTXY              CS       FIVE                                  #  TEST THAT THE 2 DATA WORDS LOADED ARE
001882: 41,2745           03041                           TC       ALLDC/OC                              #  ALL DEC OR ALL OCT.
001883: 41,2746           00006                           EXTEND
001884: 41,2747           32121                           DCA      LODNNLOC                              #  SWITCH BANKS TO NOUN TABLE READING
001885: 41,2750           52006                           DXCH     Z                                     #  ROUTINE.
001886: 41,2751           34755                           CAF      ZERO                                  #  X COMP
001887: 41,2752           03125                           TC       PUTCOM
001888: 41,2753           50145                           INDEX    NOUNADD
001889: 41,2754           54000                           TS       0
001890: 41,2755           34753                           CAF      ONE                                   #  Y COMP
001891: 41,2756           03125                           TC       PUTCOM
001892: 41,2757           50145                           INDEX    NOUNADD
001893: 41,2760           54001                           TS       1
001894: 41,2761           03025                           TC       LOADLV
001895:
001896: 41,2762           02312        ALOAD              TC       REQDATX
001897: 41,2763           00006                           EXTEND
001898: 41,2764           32121                           DCA      LODNNLOC                              #  SWITCH BANKS TO NOUN TABLE READING
001899: 41,2765           52006                           DXCH     Z                                     #  ROUTINE.
001900: 41,2766           34755                           CAF      ZERO                                  #  X COMP
001901: 41,2767           03125                           TC       PUTCOM
001902: 41,2770           50145                           INDEX    NOUNADD
001903: 41,2771           54000                           TS       0
001904: 41,2772           03025                           TC       LOADLV
001905:
001906: 41,2773           44753        BLOAD              CS       ONE
001907: 41,2774           02433                           TC       COMPTEST
001908: 41,2775           34735                           CAF      BIT15                                 #  SET CLPASS FOR PASS0 ONLY
001909: 41,2776           55014                           TS       CLPASS
001910: 41,2777           02314                           TC       REQDATY
001911: 41,3000           00006                           EXTEND
001912: 41,3001           32121                           DCA      LODNNLOC                              #  SWITCH BANKS TO NOUN TABLE READING
001913: 41,3002           52006                           DXCH     Z                                     #  ROUTINE.
001914: 41,3003           34753                           CAF      ONE
001915: 41,3004           03125                           TC       PUTCOM
001916: 41,3005           50145                           INDEX    NOUNADD
001917: 41,3006           54001                           TS       1
001918: 41,3007           03025                           TC       LOADLV
001919:
001920: 41,3010           44752        CLOAD              CS       TWO
001921: 41,3011           02433                           TC       COMPTEST
001922: 41,3012           34735                           CAF      BIT15                                 #  SET CLPASS FOR PASS0 ONLY
001923: 41,3013           55014                           TS       CLPASS
001924: 41,3014           02316                           TC       REQDATZ
001925: 41,3015           00006                           EXTEND
001926: 41,3016           32121                           DCA      LODNNLOC                              #  SWITCH BANKS TO NOUN TABLE READING


001928: 41,3017           52006                           DXCH     Z                                     #  ROUTINE.
001929: 41,3020           34752                           CAF      TWO
001930: 41,3021           03125                           TC       PUTCOM
001931: 41,3022           50145                           INDEX    NOUNADD
001932: 41,3023           54002                           TS       2
001933: 41,3024           03025                           TC       LOADLV
001934:
001935: 41,3025           34755        LOADLV             CAF      ZERO
001936: 41,3026           54777                           TS       DECBRNCH
001937: 41,3027           44755                           CS       ZERO
001938: 41,3030           55013                           TS       LOADSTAT
001939: 41,3031           04457                           TC       RELDSP                                #  RELEASE FOR PRIORITY DISPLAY PROBLEM.
001940: 41,3032           44360                           CS       VD1                                   #  TO BLOCK NUMERICAL CHARACTERS AND
001941: 41,3033           54776                           TS       DSPCOUNT                              #  CLEARS AFTER A COMPLETED LOAD
001942: 41,3034           04635                           TC       POSTJUMP                              #  AFTER COMPLETED LOAD, GO TO RECALTST
001943: 41,3035           61621                           CADR     RECALTST                              #  TO SEE IF THERE IS RECALL FROM ENDIDLE.
001944:
001945: 41,3036           00025        VBSP1LD            DEC      21         B-14                       #  VB21 = ALOAD
001946: 41,3037           00026        VBSP2LD            DEC      22         B-14                       #  VB22 = BLOAD
001947: 41,3040           00027        VBSP3LD            DEC      23         B-14                       #  VB23 = CLOAD
001948:
001949:
001950: 41,3041           54117        ALLDC/OC           TS       DECOUNT                               #  TESTS THAT DATA WORDS LOADED ARE EITHER
001951: 41,3042           40777                           CS       DECBRNCH                              #  ALL DEC OR ALL OCT. ALARMS IF NOT.
001952: 41,3043           54021                           TS       SR
001953: 41,3044           40021                           CS       SR
001954: 41,3045           40021                           CS       SR                                    #  SHIFTED RIGHT 2
001955: 41,3046           10000                           CCS      A                                     #  DEC COMP BITS IN LOW 3
001956: 41,3047           13051                           TCF      +2                                    #  SOME ONES IN LOW 3
001957: 41,3050           00002                           TC       Q                                     #  ALL ZEROS. ALL OCTAL.  OK
001958: 41,3051           60117                           AD       DECOUNT                               #  DEC COMP = 7 FOR 3COMP, =6 FOR 2COMP
001959: 41,3052           00006                           EXTEND                                         #  (BUT IT HAS BEEN DECREMENTED BY CCS)
001960: 41,3053           13055                           BZF      +2                                    #  MUST MATCH 6 FOR 3COMP, 5 FOR 2COMP.
001961: 41,3054           04145                           TC       ALMCYCLE                              #  ALARM AND RECYCLE.
001962: 41,3055           00002        GOQ                TC       Q                                     #  ALL REQUIRED ARE DEC. OK
001963:
001964:
001965: 41,3056           56002        SFRUTNOR           XCH      Q                                     #  GETS SF ROUTINE NUMBER FOR NORMAL CASE
001966: 41,3057           54114                           TS       EXITEM                                #  CANT USE L FOR RETURN. TSTFORDP USES L.
001967: 41,3060           34347                           CAF      MID5
001968: 41,3061           70147                           MASK     NNTYPTEM
001969: 41,3062           04322                           TC       RIGHT5
001970: 41,3063           00114                           TC       EXITEM                                #  SF ROUTINE NUMBER IN A
001971:
001972: 41,3064           56002        SFRUTMIX           XCH      Q                                     #  GETS SF ROUTINE NUMBER FOR MIXED CASE
001973: 41,3065           54114                           TS       EXITEM
001974: 41,3066           50117                           INDEX    DECOUNT
001975: 41,3067           33116                           CAF      DISPLACE                              #  PUT TC GOQ, TC RIGHT5, OR TC LEFT5 IN L
001976: 41,3070           54001                           TS       L
001977: 41,3071           50117                           INDEX    DECOUNT


001979: 41,3072           34346                           CAF      LOW5                                  #  LOW5, MID5, OR HI5 IN A
001980: 41,3073           70153                           MASK     RUTMXTEM                              #  GET HI5, MID5, OR LOW5 OF RUTMXTAB ENTRY
001981: 41,3074           50001                           INDEX    L
001982: 41,3075           00000                           TC       0
001983:                                                                                                  #  DO TC GOQ(DECOUNT=0), DO TC RIGHT5(DECOUNT=1), DO TC LEFT5(DECOUNT=2).
001984: 41,3076           00114        SFRET1             TC       EXITEM                                #  SF ROUTINE NUMBER IN A
001985:
001986: 41,3077           56002        SFCONUM            XCH      Q                                     #  GETS 2X( SF CONSTANT NUMBER)
001987: 41,3100           54114                           TS       EXITEM
001988: 41,3101           50140                           INDEX    MIXBR
001989: 41,3102           03102                           TC       +0
001990: 41,3103           03121                           TC       CONUMNOR                              #  NORMAL NOUN
001991: 41,3104           50117                           INDEX    DECOUNT                               #  MIXED NOUN
001992: 41,3105           33116                           CAF      DISPLACE
001993: 41,3106           54001                           TS       L                                     #  PUT TC GOQ, TC RIGHT5, OR TC LEFT5 IN L
001994: 41,3107           50117                           INDEX    DECOUNT
001995: 41,3110           34346                           CAF      LOW5
001996: 41,3111           70147                           MASK     NNTYPTEM
001997: 41,3112           50001                           INDEX    L
001998: 41,3113           00000                           TC       0
001999:                                                                                                  #  DO TC GOQ(DECOUNT=0), DO TC RIGHT5(DECOUNT=1), DO TC LEFT5(DECOUNT=2).
002000: 41,3114           60000        SFRET              DOUBLE                                         #  2X(SF CONSTANT NUMBER ) IN A
002001: 41,3115           00114                           TC       EXITEM
002002:
002003: 41,3116           03055        DISPLACE           TC       GOQ
002004: 41,3117           04322                           TC       RIGHT5
002005: 41,3120           04331                           TC       LEFT5
002006:
002007: 41,3121           34346        CONUMNOR           CAF      LOW5                                  #  NORMAL NOUN ALWAYS GETS LOW 5 OF
002008: 41,3122           70147                           MASK     NNTYPTEM                              #  NNTYPTAB FOR SF CONUM.
002009: 41,3123           60000                           DOUBLE
002010: 41,3124           00114                           TC       EXITEM                                #  2X( SF CONSTANT NUMBER) IN A
002011:
002012:
002013: 41,3125           54117        PUTCOM             TS       DECOUNT
002014: 41,3126           56002                           XCH      Q
002015: 41,3127           54115                           TS       DECRET
002016: 41,3130           34755                           CAF      ZERO
002017: 41,3131           54162                           TS       MPAC+6
002018: 41,3132           50117                           INDEX    DECOUNT
002019: 41,3133           57005                           XCH      XREGLP
002020: 41,3134           54155                           TS       MPAC       +1
002021: 41,3135           50117                           INDEX    DECOUNT
002022: 41,3136           57002                           XCH      XREG
002023: 41,3137           54154                           TS       MPAC
002024: 41,3140           50140                           INDEX    MIXBR
002025: 41,3141           03141                           TC       +0
002026: 41,3142           03167                           TC       PUTNORM                               #  NORMAL NOUN
002027:                                                                                                  #  IF MIXNOUN, PLACE ADDRESS FOR COMPONENT K INTO NOUNADD, SET EBANK BITS.
002028: 41,3143           50117                           INDEX    DECOUNT                               #  GET IDADDTAB ENTRY FOR COMPONENT K


002030: 41,3144           30150                           CA       IDAD1TEM                              #          OF NOUN.
002031: 41,3145           74356                           MASK     LOW11                                 #  (ECADR)SUBK FOR CURRENT COMP OF NOUN
002032: 41,3146           04303                           TC       SETNCADR                              #  ECADR INTO NOUNCADR. SETS EB, NOUNADD.
002033: 41,3147           00006                           EXTEND                                         #  C(NOUNADD) IN A UPON RETURN
002034: 41,3150           60117                           SU       DECOUNT                               #  PLACE (ESUBK)-K INTO NOUNADD
002035: 41,3151           54145                           TS       NOUNADD
002036: 41,3152           10777                           CCS      DECBRNCH
002037: 41,3153           03224                           TC       PUTDECSF                              #  +  DEC
002038: 41,3154           02461                           TC       DCTSTCYC                              #  +0 OCTAL
002039: 41,3155           03064                           TC       SFRUTMIX                              #  TEST IF DEC ONLY BIT = 1. IF SO,
002040: 41,3156           02266                           TC       DPTEST                                #  ALARM AND RECYCLE. IF NOT, CONTINUE.
002041: 41,3157           03205                           TC       PUTCOM2                               #  NO DP
002042:                                                                                                  #  TEST FOR DP SCALE FOR OCT LOAD. IF SO,
002043:                                                                                                  #  +0 INTO MAJOR PART. SET NOUNADD FOR
002044:                                                                                                  #  LOADING OCTAL WORD INTO MINOR PART.
002045: 41,3160           24145        PUTDPCOM           INCR     NOUNADD                               #  DP  (ESUBK)-K+1  OR  E+1
002046: 41,3161           30145                           CA       NOUNADD                               #  NOUNADD NOW SET FOR MINOR PART
002047: 41,3162           26117                           ADS      DECOUNT                               #  (ESUBK)+1  OR  E+1  INTO DECOUNT
002048: 41,3163           34755                           CAF      ZERO                                  #  NOUNADD SET FOR MINOR PART
002049: 41,3164           50117                           INDEX    DECOUNT
002050: 41,3165           53777                           TS       0          -1                         #  ZERO MAJOR PART(ESUBK OR E)
002051: 41,3166           03205                           TC       PUTCOM2
002052:
002053: 41,3167           04311        PUTNORM            TC       SETNADD                               #  ECADR FROM NOUNCADR. SETS EB, NOUNADD.
002054: 41,3170           10777                           CCS      DECBRNCH
002055: 41,3171           03224                           TC       PUTDECSF                              #  +  DEC
002056: 41,3172           02461                           TC       DCTSTCYC                              #  +0 OCTAL
002057: 41,3173           03056                           TC       SFRUTNOR                              #  TEST IF DEC ONLY BIT = 1. IF SO,
002058: 41,3174           02266                           TC       DPTEST                                #  ALARM AND RECYCLE. IF NOT, CONTINUE.
002059: 41,3175           03201                           TC       PUTCOM2    -4                         #  NO DP
002060: 41,3176           34755                           CAF      ZERO                                  #  DP
002061: 41,3177           54117                           TS       DECOUNT
002062: 41,3200           03160                           TC       PUTDPCOM
002063:
002064: 41,3201           30146                           CA       NNADTEM
002065: 41,3202           64753                           AD       ONE                                   #  IF NNADTEM = -1, CHANNEL TO BE SPECIFIED
002066: 41,3203           00006                           EXTEND
002067: 41,3204           13211                           BZF      CHANLOAD
002068: 41,3205           56154        PUTCOM2            XCH      MPAC
002069: 41,3206           00115                           TC       DECRET
002070:
002071: 41,3207     0776                                  EBANK=   DSPCOUNT
002072: 41,3207           02147 64101  GTSFINLC           2CADR    GTSFIN
002073:
002074:
002075:
002076: 41,3211           44757        CHANLOAD           CS       SEVEN                                 #  DONT LOAD CHAN 7. (IT = SUPERBANK).
002077: 41,3212           61016                           AD       NOUNCADR
002078: 41,3213           00006                           EXTEND
002079: 41,3214           13025                           BZF      LOADLV


002081: 41,3215           31016                           CA       NOUNCADR
002082: 41,3216           75004                           MASK     LOW9
002083: 41,3217           56154                           XCH      MPAC
002084: 41,3220           00006                           EXTEND
002085: 41,3221           50154                           INDEX    MPAC
002086: 41,3222           01000                           WRITE    0
002087: 41,3223           03025                           TC       LOADLV
002088:
002089:
002090:                                                                                                  #  PUTDECSF FINDS MIXBR AND DECOUNT STILL SET FROM PUTCOM
002091:
002092: 41,3224           03077        PUTDECSF           TC       SFCONUM                               #  2X(SF CON NUMB) IN A
002093: 41,3225           54123                           TS       SFTEMP1
002094: 41,3226           00006                           EXTEND                                         #  SWITCH BANKS TO SF CONSTANT TABLE
002095: 41,3227           33210                           DCA      GTSFINLC                              #  READING ROUTINE.
002096: 41,3230           52006                           DXCH     Z                                     #  LOADS SFTEMP1, SFTEMP2.
002097: 41,3231           50140                           INDEX    MIXBR
002098: 41,3232           03232                           TC       +0
002099: 41,3233           03236                           TC       PUTSFNOR
002100: 41,3234           03064                           TC       SFRUTMIX
002101: 41,3235           03237                           TC       PUTDCSF2
002102: 41,3236           03056        PUTSFNOR           TC       SFRUTNOR
002103:
002104: 41,3237           50000        PUTDCSF2           INDEX    A
002105: 41,3240           33242                           CAF      SFINTABR
002106: 41,3241           04640                           TC       BANKJUMP                              #  SWITCH BANKS FOR EXPANSHION ROOM
002107: 41,3242           62357        SFINTABR           CADR     GOALMCYC                              #  ALARM AND RECYCLE IF DEC LOAD
002108:                                                                                                  #  WITH OCTAL ONLY NOUN.
002109: 41,3243           61151                           CADR     BINROUND
002110: 41,3244           61053                           CADR     DEGINSF
002111: 41,3245           61141                           CADR     ARTHINSF
002112: 41,3246           61157                           CADR     DPINSF
002113: 41,3247           61204                           CADR     DPINSF2
002114: 41,3250           61463                           CADR     DSPALARM                              #  LRPOSOUT CANT BE LOADED.
002115: 41,3251           61157                           CADR     DPINSF                                #  SAME AS ARITHDP1
002116: 41,3252           65452                           CADR     HMSIN
002117: 41,3253           61463                           CADR     DSPALARM                              #  MIN/SEC CANT BE LOADED.
002118: 41,3254           61211                           CADR     DPINSF4
002119: 41,3255           61154                           CADR     ARTIN1SF
002120: 41,3256           61463                           CADR     DSPALARM                              #  2INTOUT CANT BE LOADED.
002121: 41,3257           61053                           CADR     DEGINSF                               #  TESTS AT END FOR 360-CDU
002122: 41,3260           61463                           CADR     DSPALARM                              #  RRANGOUT CANT BE LOADED.
002123: 41,3261           61463                           CADR     DSPALARM                              #  RRDOTOUT CANT BE LOADED.
002124: 41,3262                        ENDRUTIN           EQUALS
002125:
002126:                                                                                                  #  SCALE FACTORS FOR THOSE ROUTINES NEEDING THEM ARE AVAILABLE IN SFTEMP1.
002127:                                                                                                  #  ALL SFIN ROUTINES USE MPAC MPAC+1. LEAVE RESULT IN A. END WITH TC DECRET
002128:


002130: 40,3053                                           SETLOC   ENDDPDEC   +1
002131:
002132: 40,3053                                           COUNT*   $$/PIN
002133:                                                                                                  #  DEGINSF APPLIES 1000/180 = 5.55555(10) = 5.43434(8)
002134:
002135: 40,3053           07106        DEGINSF            TC       DMP                                   #  SF ROUTINE FOR DEC DEGREES
002136: 40,3054           03137                           ADRES    DEGCON1                               #  MULT BY 5.5  5(10)X2EXP-3
002137: 40,3055           10155                           CCS      MPAC       +1                         #  THIS ROUNDS OFF MPAC+1 BEFORE SHIFT
002138: 40,3056           34741                           CAF      BIT11                                 #  LEFT 3, AND CAUSES 360.00 TO OF/UF
002139: 40,3057           03061                           TC       +2                                    #  WHEN SHIFTED LEFT AND ALARM.
002140: 40,3060           44741                           CS       BIT11
002141: 40,3061           60155                           AD       MPAC       +1
002142: 40,3062           03230                           TC       2ROUND     +2
002143: 40,3063           04404                           TC       TPSL1                                 #  LEFT 1
002144: 40,3064           04404        DEGINSF2           TC       TPSL1                                 #  LEFT 2
002145: 40,3065           03237                           TC       TESTOFUF
002146: 40,3066           04404                           TC       TPSL1                                 #  RETURNS IF NO OF/UF (LEFT3)
002147: 40,3067           10154                           CCS      MPAC
002148: 40,3070           03074                           TC       SIGNFIX                               #  IF+, GO TO SIGNFIX
002149: 40,3071           03074                           TC       SIGNFIX                               #  IF +0, GO TO SIGNFIX
002150: 40,3072           40000                           COM                                            #  IF - , USE -MAGNITUDE +1
002151: 40,3073           54154                           TS       MPAC                                  #  IF -0, USE +0
002152: 40,3074           10162        SIGNFIX            CCS      MPAC+6
002153: 40,3075           03133                           TC       SGNTO1                                #  IF OVERFLOW
002154: 40,3076           03106                           TC       ENDSCALE                              #  NO OVERFLOW/UNDERFLOW
002155: 40,3077           10154                           CCS      MPAC                                  #  IF UF FORCE SIGN TO 0 EXCEPT -180
002156: 40,3100           05706                           TC       CCSHOLE
002157: 40,3101           03131                           TC       NEG180
002158: 40,3102           03103                           TC       +1
002159: 40,3103           56154                           XCH      MPAC
002160: 40,3104           74733                           MASK     POSMAX
002161: 40,3105           54154                           TS       MPAC
002162: 40,3106           50140        ENDSCALE           INDEX    MIXBR                                 #  IF ROUTINE NO. IS NOT CDU DEGREES,
002163: 40,3107           03107                           TC       +0                                    #   THEN THIS IS 360 - CDU DEGREES
002164: 40,3110           03113                           TC       +3                                    #   AND ANGLE IN MPAC MUST BE REPLACED
002165: 40,3111           03123                           TC       SFMIXCAL                              #   BY 360 DEGREES MINUS ITSELF.
002166: 40,3112           03114        MIXBACK            TC       +2
002167: 40,3113           03126                           TC       SFNORCAL
002168: 40,3114           40000        NORBACK            CS       A
002169: 40,3115           64752                           AD       BIT2
002170: 40,3116           00006                           EXTEND
002171: 40,3117           13121                           BZF      +2
002172: 40,3120           02634                           TC       360-CDU
002173: 40,3121           04635        ENDSCAL1           TC       POSTJUMP
002174: 40,3122           63205                           CADR     PUTCOM2
002175:
002176: 40,3123           04616        SFMIXCAL           TC       BANKCALL
002177: 40,3124           63064                           CADR     SFRUTMIX
002178: 40,3125           03112                           TC       MIXBACK
002179:


002181: 40,3126           04616        SFNORCAL           TC       BANKCALL
002182: 40,3127           63056                           CADR     SFRUTNOR
002183: 40,3130           03114                           TC       NORBACK
002184:
002185: 40,3131           44733        NEG180             CS       POSMAX
002186: 40,3132           03105                           TC       ENDSCALE   -1
002187:
002188: 40,3133           40154        SGNTO1             CS       MPAC                                  #  IF OF FORCE SIGN TO 1
002189: 40,3134           74733                           MASK     POSMAX
002190: 40,3135           40000                           CS       A
002191: 40,3136           03105                           TC       ENDSCALE   -1
002192:
002193: 40,3137           26161 30707  DEGCON1            2DEC     5.555555555 B-3
002194:
002195:
002196: 40,3141           07106        ARTHINSF           TC       DMP                                   #  SCALES MPAC, +1 BY SFTEMP1, SFTEMP2.
002197: 40,3142           00123                           ADRES    SFTEMP1                               #  ASSUMES POINT BETWEEN HI AND LO PARTS
002198: 40,3143           56156                           XCH      MPAC       +2                         #  OF SFCON. SHIFTS RESULTS LEFT BY 14.
002199: 40,3144           56155                           XCH      MPAC       +1                         #  (BY TAKING RESULTS FROM MPAC+1, MPAC+2)
002200: 40,3145           56154                           XCH      MPAC
002201: 40,3146           00006                           EXTEND
002202: 40,3147           13151                           BZF      BINROUND
002203: 40,3150           04145                           TC       ALMCYCLE                              #  TOO LARGE A LOAD. ALARM AND RECYCLE.
002204: 40,3151           03226        BINROUND           TC       2ROUND
002205: 40,3152           03237                           TC       TESTOFUF
002206: 40,3153           03121                           TC       ENDSCAL1                              #  RETURNS IF NO OF/UF
002207:
002208: 40,3154           07106        ARTIN1SF           TC       DMP                                   #  SCALES MPAC, +1 BY SFTEMP1, SFTEMP2.
002209: 40,3155           00123                           ADRES    SFTEMP1                               #  ROUNDS MPAC+1 INTO MPAC.
002210: 40,3156           03151                           TC       BINROUND
002211:
002212:
002213: 40,3157           07106        DPINSF             TC       DMP                                   #  SCALES MPAC, MPAC +1 BY SFTEMP1,
002214: 40,3160           00123                           ADRES    SFTEMP1                               #  SFTEMP2.  STORES LOW PART OF RESULT
002215: 40,3161           56156                           XCH      MPAC       +2                         #  IN (E SUBK) +1 OR E+1
002216: 40,3162           60000                           DOUBLE
002217: 40,3163           54156                           TS       MPAC       +2
002218: 40,3164           34755                           CAF      ZERO
002219: 40,3165           60155                           AD       MPAC       +1
002220: 40,3166           03230                           TC       2ROUND     +2
002221: 40,3167           03237                           TC       TESTOFUF
002222: 40,3170           50140                           INDEX    MIXBR                                 #  RETURNS IF NO OF/UF
002223: 40,3171           03171                           TC       +0
002224: 40,3172           03202                           TC       DPINORM
002225: 40,3173           30117                           CA       DECOUNT                               #  MIXEDNOUN
002226: 40,3174           60145        DPINCOM            AD       NOUNADD                               #      MIXED               NORMAL
002227: 40,3175           54002                           TS       Q                                     #    E SUBK            E
002228: 40,3176           56155                           XCH      MPAC       +1
002229: 40,3177           50002                           INDEX    Q
002230: 40,3200           54001                           TS       1                                     #  PLACE LOW PART IN


002232: 40,3201           03121                           TC       ENDSCAL1                              #  (E SUBK) +1    MIXED
002233:
002234: 40,3202           34755        DPINORM            CAF      ZERO                                  #  E +1         NORMAL
002235: 40,3203           03174                           TC       DPINCOM
002236:
002237:
002238: 40,3204           07106        DPINSF2            TC       DMP                                   #  ASSUMES POINT BETWEEN BITS 7-8 OF HIGH
002239: 40,3205           00123                           ADRES    SFTEMP1                               #  PART OF SF CONST. DPINSF2 SHIFTS RESULTS
002240: 40,3206           36245                           CAF      SIX                                   #  LEFT BY 7, ROUNDS MPAC+2 INTO MPAC+1
002241: 40,3207           03216                           TC       TPLEFTN                               #  SHIFT LEFT 7.
002242: 40,3210           03161                           TC       DPINSF     +2
002243:
002244:
002245: 40,3211           07106        DPINSF4            TC       DMP                                   #  ASSUMES POINT BETWEEN BITS 11-12 OF HIGH
002246: 40,3212           00123                           ADRES    SFTEMP1                               #  PART OF SF CONST. DPINSF2 SHIFTS RESULTS
002247: 40,3213           34752                           CAF      TWO                                   #  LEFT BY 3, ROUNDS MPAC+2 INTO MPAC+1.
002248: 40,3214           03216                           TC       TPLEFTN                               #  SHIFT LEFT 3.
002249: 40,3215           03161                           TC       DPINSF     +2
002250:
002251:
002252: 40,3216           56002        TPLEFTN            XCH      Q                                     #  SHIFTS MPAC, +1, +2 LEFT N. SETS OVFIND
002253: 40,3217           54124                           TS       SFTEMP2                               #  TO +1 FOR OF, -1 FOR UF.
002254: 40,3220           56002                           XCH      Q                                     #  CALL WITH N-1 IN A.
002255: 40,3221           54123        LEFTNCOM           TS       SFTEMP1                               #      LOOP TIME .37 MSEC.
002256: 40,3222           04404                           TC       TPSL1
002257: 40,3223           10123                           CCS      SFTEMP1
002258: 40,3224           03221                           TC       LEFTNCOM
002259: 40,3225           00124                           TC       SFTEMP2
002260:
002261:
002262: 40,3226           56155        2ROUND             XCH      MPAC       +1
002263: 40,3227           60000                           DOUBLE
002264: 40,3230           54155                           TS       MPAC       +1
002265: 40,3231           00002                           TC       Q                                     #  IF MPAC+1 DOES NOT OF/UF
002266: 40,3232           60154                           AD       MPAC
002267: 40,3233           54154                           TS       MPAC
002268: 40,3234           00002                           TC       Q                                     #  IF MPAC DOES NOT OF/UF
002269: 40,3235           54162                           TS       MPAC+6
002270: 40,3236           00002        2RNDEND            TC       Q
002271:
002272:
002273: 40,3237           10162        TESTOFUF           CCS      MPAC+6                                #  RETURNS IF NO OF/UF
002274: 40,3240           04145                           TC       ALMCYCLE                              #  OF   ALARM AND RECYCLE.
002275: 40,3241           00002                           TC       Q
002276: 40,3242           04145                           TC       ALMCYCLE                              #  UF   ALARM AND RECYCLE.
002277:
002278:
002279: 42,3452                                           SETLOC   ENDSPMIN   +1
002280:
002281: 42,3452                                           COUNT*   $$/PIN


002283: 42,3452           03573        HMSIN              TC       ALL3DEC                               #  IF ALL 3 WORDS WERE NOT LOADED, ALARM.
002284: 42,3453           07106                           TC       DMP                                   #  XREG, XREGLP (=HOURS) WERE ALREADY PUT
002285: 42,3454           03534                           ADRES    WHOLECON                              #  INTO MPAC, MPAC+1.
002286: 42,3455           03543                           TC       RND/TST                               #  ROUND OFF TO WHOLE HRS IN MPAC+1.
002287: 42,3456           34755                           CAF      ZERO                                  #  ALARM IF MPAC NON ZERO (G/ 16383 ).
002288: 42,3457           54156                           TS       MPAC       +2
002289: 42,3460           33536                           CAF      HRCON
002290: 42,3461           54154                           TS       MPAC
002291: 42,3462           33537                           CAF      HRCON      +1
002292: 42,3463           56155                           XCH      MPAC       +1
002293: 42,3464           07312                           TC       SHORTMP
002294: 42,3465           03554                           TC       MPACTST                               #  ALARM IF MPAC NON ZERO (G/ 745)
002295: 42,3466           52156                           DXCH     MPAC       +1                         #  STORE HOURS CONTRIBUTION
002296: 42,3467           52124                           DXCH     HITEMIN
002297: 42,3470           31003                           CA       YREG                                  #  PUT YREG, YREGLP INTO MPAC, +1.
002298: 42,3471           23006                           LXCH     YREGLP
002299: 42,3472           52155                           DXCH     MPAC
002300: 42,3473           07106                           TC       DMP
002301: 42,3474           03534                           ADRES    WHOLECON
002302: 42,3475           03543                           TC       RND/TST                               #  ROUND OFF TO WHOLE MIN IN MPAC+1
002303: 42,3476           43541                           CS       59MIN                                 #  ALARM IF MPAC NON ZERO (G/16383)
002304: 42,3477           03561                           TC       SIZETST                               #  ALARM IF MPAC+1 G/ 59MIN
002305: 42,3500           56155                           XCH      MPAC       +1
002306: 42,3501           00006                           EXTEND
002307: 42,3502           73540                           MP       MINCON                                #  LEAVES MINUTES CONTRIBUTION IN A,L
002308: 42,3503           20124                           DAS      HITEMIN                               #  ADD IN MINUTES CONTRIBUTION
002309: 42,3504           00006                           EXTEND                                         #  IF THIS DAS OVERFLOWS, G/ 745HR,39MIN
002310: 42,3505           13507                           BZF      +2
002311: 42,3506           04145                           TC       ALMCYCLE
002312: 42,3507           31004                           CA       ZREG                                  #  PUT ZREG, ZREGLP INTO MPAC, +1.
002313: 42,3510           23007                           LXCH     ZREGLP
002314: 42,3511           52155                           DXCH     MPAC
002315: 42,3512           07106                           TC       DMP
002316: 42,3513           03534                           ADRES    WHOLECON
002317: 42,3514           03543                           TC       RND/TST                               #  ROUND OFF TO WHOLE CENTI-SEC IN MPAC+1
002318: 42,3515           43542                           CS       59.99SEC                              #  ALARM IF MPAC NON ZERO (G/163.83 SEC)
002319: 42,3516           03561                           TC       SIZETST                               #  ALARM IF MPAC+1 G/59.99 SEC
002320: 42,3517           52124                           DXCH     HITEMIN                               #  ADD IN SECONDS CONTRIBUTION
002321: 42,3520           20155                           DAS      MPAC                                  #  IF THIS DAS OVERFLOWS,
002322: 42,3521           00006                           EXTEND                                         #  G/ 745 HR, 39 MIN, 14.55 SEC.
002323: 42,3522           13524                           BZF      +2
002324: 42,3523           04145                           TC       ALMCYCLE                              #  ALARM AND RECYCLE
002325: 42,3524           34755                           CAF      ZERO
002326: 42,3525           54156                           TS       MPAC       +2
002327: 42,3526           07262                           TC       TPAGREE
002328: 42,3527           52155                           DXCH     MPAC
002329: 42,3530           50145                           INDEX    NOUNADD
002330: 42,3531           52001                           DXCH     0
002331: 42,3532           04635                           TC       POSTJUMP
002332: 42,3533           63025                           CADR     LOADLV
002333:


002335: 42,3534           00006        WHOLECON           OCT      00006                                 #  (10EXP5/2EXP14)2EXP14
002336: 42,3535           03240                           OCT      03240
002337: 42,3536           00025        HRCON              OCT      00025                                 #  1 HOUR IN CENTI-SEC
002338: 42,3537           37100                           OCT      37100
002339: 42,3540           13560        MINCON             OCT      13560                                 #  1 MINUTE IN CENTI-SEC
002340: 42,3541           00073        59MIN              OCT      00073                                 #  59 AS WHOLE
002341: 42,3542           13557        59.99SEC           OCT      13557                                 #  5999 CENTI-SEC
002342:
002343:
002344: 42,3543           56156        RND/TST            XCH      MPAC       +2                         #  ROUNDS MPAC+2 INTO MPAC+1.
002345: 42,3544           60000                           DOUBLE                                         #  ALARMS IF MPAC NOT 0
002346: 42,3545           54156                           TS       MPAC       +2
002347: 42,3546           34755                           CAF      ZERO
002348: 42,3547           60155                           AD       MPAC       +1
002349: 42,3550           54155                           TS       MPAC       +1
002350: 42,3551           34755                           CAF      ZERO
002351: 42,3552           60154                           AD       MPAC                                  #  CANT OVFLOW
002352: 42,3553           56154                           XCH      MPAC
002353: 42,3554           10154        MPACTST            CCS      MPAC                                  #  ALARM IF MPAC NON ZERO
002354: 42,3555           04145                           TC       ALMCYCLE                              #  ALARM AND RECYCLE.
002355: 42,3556           00002                           TC       Q
002356: 42,3557           04145                           TC       ALMCYCLE                              #  ALARM AND RECYCLE.
002357: 42,3560           00002                           TC       Q
002358:
002359: 42,3561           54156        SIZETST            TS       MPAC       +2                         #  CALLED WITH - CON IN A
002360: 42,3562           10155                           CCS      MPAC       +1                         #  GET MAG OF MPAC+1
002361: 42,3563           64753                           AD       ONE
002362: 42,3564           13566                           TCF      +2
002363: 42,3565           64753                           AD       ONE
002364: 42,3566           60156                           AD       MPAC       +2
002365: 42,3567           00006                           EXTEND                                         #  MAG OF MPAC+1 - CON
002366: 42,3570           63572                           BZMF     +2
002367: 42,3571           04145                           TC       ALMCYCLE                              #  MAG OF MPAC+1 G/ CON. ALARM AND RECYCLE.
002368: 42,3572           00002                           TC       Q                                     #  MAG OF MPAC+1 L/= CON
002369:
002370:
002371:                                                                                                  #  ALL3DEC TESTS THAT ALL 3 WORDS ARE LOADED IN DEC (FOR HMSIN).
002372:                                                                                                  #  ALARM IF NOT.( TEST THAT BITS 3,4,5 OF DECBRNCH ARE ALL = 1)
002373: 42,3573           43600        ALL3DEC            CS       OCT34BAR                              #  GET BITS 3,4,5 IN A
002374: 42,3574           70777                           MASK     DECBRNCH                              #  GET BITS 3,4,5 OF DECBRNCH IN A
002375: 42,3575           63600                           AD       OCT34BAR                              #  BITS 3,4,5 OF DECBRNCH MUST ALL = 1
002376: 42,3576           10000                           CCS      A
002377: 42,3577           03603                           TC       FORCEV25
002378: 42,3600           77743        OCT34BAR           OCT      77743
002379: 42,3601           03603                           TC       FORCEV25
002380: 42,3602           00002                           TC       Q
002381:
002382:
002383: 42,3603           46010        FORCEV25           CS       OCT31                                 #  FORCE VERB 25 TO BE EXECUTED BY RECYCLE
002384: 42,3604           55040                           TS       VERBSAVE                              #   IN CASE OPERATOR EXECUTED A LOWER LOAD


002386: 42,3605           04145                           TC       ALMCYCLE                              #   VERB.  ALARM AND RECYCLE.
002387: 42,3606                        ENDHMSS            EQUALS
002388:


002390:                                                                                                  #  MONITOR ALLOWS OTHER KEYBOARD ACTIVITY. IT IS ENDED BY VERB TERMINATE,
002391:                                                                                                  #  VERB PROCEED WITHOUT DATA, VERB RESEQUENCE,
002392:                                                                                                  #  ANOTHER MONITOR, OR ANY NVSUB CALL THAT PASSES THE DSPLOCK (PROVIDED
002393:                                                                                                  #  THAT THE OPERATOR HAS SOMEHOW ALLOWED THE ENDING OF A MONITOR WHICH
002394:                                                                                                  #  HE HAS INITIATED THROUGH THE KEYBOARD).
002395:
002396:                                                                                                  #  MONITOR ACTION IS SUSPENDED, BUT NOT ENDED, BY ANY KEYBOARD ACTION,
002397:                                                                                                  #  EXCEPT ERROR LIGHT RESET. IT BEGINS AGAIN WHEN KEY RELEASE IS PERFORMED.
002398:                                                                                                  #  MONITOR SAVES THE NOUN AND APPROPRIATE DISPLAY VERB IN MONSAVE. IT SAVES
002399:                                                                                                  #  NOUNCADR IN MONSAVE1, IF NOUN = MACHINE CADR TO BE SPECIFIED. BIT 15 OF
002400:                                                                                                  #  MONSAVE1 IS THE KILL MONITOR SIGNAL (KILLER BIT). BIT 14 OF MONSAVE1
002401:                                                                                                  #  INDICATES THE CURRENT MONITOR WAS EXTERNALLY INITIATED (EXTERNAL
002402:                                                                                                  #  MONITOR BIT). IT IS TURNED OFF BY RELDSP AND KILMONON.
002403:
002404:                                                                                                  #  MONSAVE INDICATES IF MONITOR IS ON(+=ON, +0=OFF)
002405:                                                                                                  #  IF MONSAVE IS +, MONITOR ENTERS NO REQUEST, BUT TURNS KILLER BIT OFF.
002406:                                                                                                  #  IF MONSAVE IS +0, MONITOR ENTERS REQUEST AND TURNS KILLER BIT OFF.
002407:
002408:                                                                                                  #  NVSUB (IF EXTERNAL MONITOR BIT IS OFF), VB=PROCEED WITHOUT DATA,
002409:                                                                                                  #  VB=RESEQUENCE, AND VB=TERMINATE TURN KILL MONITOR BIT ON.
002410:
002411:                                                                                                  #  IF KILLER BIT IS ON, MONREQ ENTERS NO FURTHER REQUESTS, ZEROS MONSAVE
002412:                                                                                                  #  AND MONSAVE1 (TURNING OFF KILLER BIT AND EXTERNAL MONITOR BIT).
002413:
002414:                                                                                                  #  MONITOR DOSENT TEST FOR MATBS SINCE NVSUB CAN HANDLE INTERNAL MATBS NOW
002415: 41,3262                                           SETLOC   ENDRUTIN
002416:
002417: 41,3262                                           COUNT*   $$/PIN
002418: 41,3262           43271        MONITOR            CS       BIT15/14
002419: 41,3263           71016                           MASK     NOUNCADR
002420: 41,3264           54155        MONIT1             TS       MPAC       +1                         #  TEMP STORAGE
002421: 41,3265           40136                           CS       ENTEXIT
002422: 41,3266           64217                           AD       ENDINST
002423: 41,3267           10000                           CCS      A
002424: 41,3270           03277                           TC       MONIT2
002425: 41,3271           60000        BIT15/14           OCT      60000
002426: 41,3272           03277                           TC       MONIT2
002427: 41,3273           34736                           CAF      BIT14                                 #  EXTERNALLY INITIATED MONITOR,
002428: 41,3274           26155                           ADS      MPAC       +1                         #  SET BIT 14 FOR MONSAVE1.
002429: 41,3275           34755                           CAF      ZERO
002430: 41,3276           55021                           TS       MONSAVE2                              #  ZERO NVMONOPT OPTIONS
002431: 41,3277           36077        MONIT2             CAF      LOW7
002432: 41,3300           71000                           MASK     VERBREG
002433: 41,3301           04331                           TC       LEFT5
002434: 41,3302           54022                           TS       CYL
002435: 41,3303           40022                           CS       CYL
002436: 41,3304           56022                           XCH      CYL
002437: 41,3305           61001                           AD       NOUNREG
002438: 41,3306           54154                           TS       MPAC                                  #  TEMP STORAGE
002439: 41,3307           34755                           CAF      ZERO


002441: 41,3310           55011                           TS       DSPLOCK                               #  +0 INTO DSPLOCK SO MONITOR CAN RUN.
002442: 41,3311           11041                           CCS      CADRSTOR                              #  TURN OFF KR LITE IF CADRSTOR AND DSPLIST
002443: 41,3312           03314                           TC       +2                                    #  ARE BOTH EMPTY. (LITE COMES ON IF NEW
002444: 41,3313           04502                           TC       RELDSP1                               #  MONITOR IS KEYED IN OVER OLD MONITOR.)
002445: 41,3314           00004                           INHINT
002446: 41,3315           11017                           CCS      MONSAVE
002447: 41,3316           03323                           TC       +5                                    #  IF MONSAVE WAS +, NO REQUEST
002448: 41,3317           34753                           CAF      ONE                                   #  IF MONSAVE WAS 0, REQUEST MONREQ
002449: 41,3320           05214                           TC       WAITLIST
002450: 41,3321     0776                                  EBANK=   DSPCOUNT
002451: 41,3321           03327 62101                     2CADR    MONREQ
002452:
002453: 41,3323           52155                           DXCH     MPAC                                  #  PLACE MONITOR VERB AND NOUN INTO MONSAVE
002454: 41,3324           53020                           DXCH     MONSAVE                               #  ZERO THE KILL MONITOR BIT
002455: 41,3325           00003                           RELINT                                         #  SET UP EXTERNAL MONITOR BIT
002456: 41,3326           00136                           TC       ENTRET
002457:
002458:
002459: 41,3327           04400        MONREQ             TC       LODSAMPT                              #  CALLED BY WAITLIST
002460: 41,3330           11020                           CCS      MONSAVE1                              #  TIME IS SNATCHED IN RUPT FOR NOUN 65
002461: 41,3331           03335                           TC       +4                                    #  IF KILLER BIT = 0, ENTER REQUESTS
002462: 41,3332           03335                           TC       +3                                    #  IF KILLER BIT = 0, ENTER REQUESTS
002463: 41,3333           03346                           TC       KILLMON                               #  IF KILLER BIT = 1, NO REQUESTS
002464: 41,3334           03346                           TC       KILLMON                               #  IF KILLER BIT = 1, NO REQUESTS
002465: 41,3335           33352                           CAF      MONDEL
002466: 41,3336           05214                           TC       WAITLIST                              #  ENTER WAITLIST REQUEST FOR MONREQ
002467: 41,3337     0776                                  EBANK=   DSPCOUNT
002468: 41,3337           03327 62101                     2CADR    MONREQ
002469:
002470: 41,3341           34355                           CAF      CHRPRIO
002471: 41,3342           05072                           TC       NOVAC                                 #  ENTER EXEC REQUEST FOR MONDO
002472: 41,3343     0776                                  EBANK=   DSPCOUNT
002473: 41,3343           03353 62101                     2CADR    MONDO
002474:
002475: 41,3345           05272                           TC       TASKOVER
002476:
002477: 41,3346           34755        KILLMON            CAF      ZERO                                  #  ZERO MONSAVE AND TURN KILLER BIT OFF
002478: 41,3347           55017                           TS       MONSAVE
002479: 41,3350           55020                           TS       MONSAVE1                              #  TURN OFF KILL MONITOR BIT.
002480: 41,3351           05272                           TC       TASKOVER                              #  TURN OFF EXTERNAL MONITOR BIT.
002481: 41,3352           00144        MONDEL             OCT      144                                   #  FOR 1 SEC MONITOR INTERVALS
002482:
002483:
002484: 41,3353           11020        MONDO              CCS      MONSAVE1                              #  CALLED BY EXEC
002485: 41,3354           03360                           TC       +4                                    #  IF KILLER BIT = 0, CONTINUE
002486: 41,3355           03360                           TC       +3                                    #  IF KILLER BIT = 0, CONTINUE
002487: 41,3356           05155                           TC       ENDOFJOB                              #  IN CASE TERMINATE CAME SINCE LAST MONREQ
002488: 41,3357           05155                           TC       ENDOFJOB                              #  IN CASE TERMINATE CAME SINCE LAST MONREQ
002489: 41,3360           11011                           CCS      DSPLOCK
002490: 41,3361           03403                           TC       MONBUSY                               #  NVSUB IS BUSY


002492: 41,3362           36077                           CAF      LOW7
002493: 41,3363           71017                           MASK     MONSAVE
002494: 41,3364           02326                           TC       UPDATNN    -1                         #  PLACE NOUN INTO NOUNREG AND DISPLAY IT
002495: 41,3365           34144                           CAF      MID7
002496: 41,3366           71017                           MASK     MONSAVE                               #  CHANGE MONITOR VERB TO DISPLAY VERB
002497: 41,3367           63401                           AD       MONREF                                #  -DEC10, STARTING IN BIT8
002498: 41,3370           54023                           TS       EDOP                                  #  RIGHT 7
002499: 41,3371           30023                           CA       EDOP
002500: 41,3372           55000                           TS       VERBREG
002501: 41,3373           33402                           CAF      MONBACK                               #  SET RETURN TO PASTEVB AFTER DATA DISPLAY
002502: 41,3374           54136                           TS       ENTRET
002503: 41,3375           43271                           CS       BIT15/14
002504: 41,3376           71020                           MASK     MONSAVE1                              #  PUT ECADR INTO MPAC +2. INTMCTBS WILL
002505: 41,3377           54156                           TS       MPAC       +2                         #  DISPLAY IT AND SET NOUNCADR, NOUNADD,
002506: 41,3400           02053        ENDMONDO           TC       TESTNN                                #  EBANK.
002507:
002508:    4124                                           BLOCK    2
002509:
002510:    4000                                           SETLOC   FFTAG8
002511:    4000                                           BANK
002512:
002513:    4124                                           COUNT*   $$/PIN
002514:    4124           34144        PASTEVB            CAF      MID7
002515:    4125           71021                           MASK     MONSAVE2                              #  NVMONOPT PASTE OPTION
002516:    4126           00006                           EXTEND
002517:    4127           14131                           BZF      +2
002518:    4130           04132                           TC       PASTEOPT                              #  PASTE PLEASE VERB FOR NVMONOPT
002519:    4131           31017                           CA       MONSAVE                               #  PASTE MONITOR VERB - PASTE OPTION IS 0
002520:    4132           54023        PASTEOPT           TS       EDOP                                  #  RIGHT 7
002521:    4133           30023                           CA       EDOP                                  #  PLACE MONITOR VERB OR PLEASE VERB INTO
002522:    4134           04616                           TC       BANKCALL                              #   VERBREG AND DISPLAY IT.
002523:    4135           62346                           CADR     UPDATVB    -1
002524:    4136           34755                           CAF      ZERO                                  #  ZERO REQRET SO THAT PASTED VERBS CAN
002525:    4137           55012                           TS       REQRET                                #   BE EXECUTED BY OPERATOR.
002526:    4140           31021                           CA       MONSAVE2
002527:    4141           04255                           TC       BLANKSUB                              #  PROCESS NVMONOPT BLANK OPTION IF ANY
002528:    4142           04143                           TC       +1
002529:    4143           05155        ENDPASTE           TC       ENDOFJOB
002530:
002531:    4144           37600        MID7               OCT      37600
002532:
002533:
002534: 41,3401                                           SETLOC   ENDMONDO   +1
002535: 41,3401                                           COUNT*   $$/PIN
002536: 41,3401           75377        MONREF             OCT      75377                                 #  -DEC10, STARTING IN BIT8
002537: 41,3402           04124        MONBACK            ADRES    PASTEVB
002538:
002539: 41,3403           04374        MONBUSY            TC       RELDSPON                              #  TURN KEY RELEASE LIGHT
002540: 41,3404           05155                           TC       ENDOFJOB


002542:                                                                                                  #  DSPFMEM IS USED TO DISPLAY (IN OCTAL) ANY FIXED REGISTER.
002543:                                                                                                  #  IT IS USED WITH NOUN = MACHINE CADR TO BE SPECIFIED. THE FCADR OF THE
002544:                                                                                                  #  DESIRED LOCATION IS THEN PUNCHED IN. IT HANDLES F/F ( FCADR 4000-7777)
002545:
002546:                                                                                                  #  FOR BANKS L/E 27, THIS IS ENOUGH.
002547:
002548:                                                                                                  #  FOR BANKS G/E 30, THE THIRD COMPONENT OF NOUN 26 (PRIO, ADRES, BBCON)
002549:                                                                                                  #  MUST BE PRELOADED WITH THE DESIRED SUPERBANK BITS (BITS 5,6,7).
002550:                                                                                                  #           V23N26 SHOULD BE USED.
002551:
002552:                                                                                                  #  SUMMARY
002553:                                                                                                  #  FOR BANKS L/E 27,                          V27N01E(FCADR)E
002554:                                                                                                  #  FOR BANKS G/E 30,    V23N26E(SUPERBITS)E   V27N01E(FCADR)E
002555:
002556: 41,3405           34317        DSPFMEM            CAF      R1D1                                  #  IF F/F, DATACALL USES BANK 02 OR 03.
002557: 41,3406           54776                           TS       DSPCOUNT
002558: 41,3407           31046                           CA       DSPTEM1    +2                         #  SUPERBANK BITS WERE PRELOADED INTO
002559: 41,3410           54001                           TS       L                                     #  3RD COMPONENT OF NOUN 26.
002560: 41,3411           31016                           CA       NOUNCADR                              #  ORIGINAL FCADR LOADED STILL IN NOUNCADR.
002561: 41,3412           04651                           TC       SUPDACAL                              #  CALL WITH FCADR IN A, SUPERBITS IN L.
002562: 41,3413           03415                           TC       DSPOCTWD
002563: 41,3414           05155        ENDSPF             TC       ENDOFJOB
002564:


002566:                                                                                                  #  WORD DISPLAY ROUTINES
002567: 40,3243                                           SETLOC   TESTOFUF   +4
002568: 40,3243                                           COUNT*   $$/PIN
002569: 40,3243           56002        DSPSIGN            XCH      Q
002570: 40,3244           54144                           TS       DSPWDRET
002571: 40,3245           10154                           CCS      MPAC
002572: 40,3246           03256                           TC       +8D
002573: 40,3247           03256                           TC       +7
002574: 40,3250           64753                           AD       ONE
002575: 40,3251           54154                           TS       MPAC
002576: 40,3252           02442                           TC       -ON
002577: 40,3253           40155                           CS       MPAC       +1
002578: 40,3254           54155                           TS       MPAC       +1
002579: 40,3255           00144                           TC       DSPWDRET
002580: 40,3256           02422                           TC       +ON
002581: 40,3257           00144                           TC       DSPWDRET
002582:
002583: 40,3260           00006        DSPRND             EXTEND                                         #  ROUND BY 5 EXP-6
002584: 40,3261           33324                           DCA      DECROUND   -1
002585: 40,3262           20155                           DAS      MPAC
002586: 40,3263           00006                           EXTEND
002587: 40,3264           13270                           BZF      +4
002588: 40,3265           00006                           EXTEND
002589: 40,3266           34733                           DCA      DPOSMAX
002590: 40,3267           52155                           DXCH     MPAC
002591: 40,3270           00002                           TC       Q
002592:
002593:                                                                                                  #  DSPDECWD CONVERTS C( MPAC, MPAC+1) INTO A SIGN AND 5 CHAR DECIMAL
002594:                                                                                                  #  STARTING IN LOC SPECIFIED IN DSPCOUNT. IT ROUNDS BY 5 EXP-6.
002595:
002596: 40,3271           56002        DSPDECWD           XCH      Q
002597: 40,3272           54115                           TS       WDRET
002598: 40,3273           03243                           TC       DSPSIGN
002599: 40,3274           03260                           TC       DSPRND
002600: 40,3275           34751                           CAF      FOUR
002601: 40,3276           54137        DSPDCWD1           TS       WDCNT
002602: 40,3277           34363                           CAF      BINCON
002603: 40,3300           07312                           TC       SHORTMP
002604: 40,3301           50154        TRACE1             INDEX    MPAC
002605: 40,3302           34066                           CAF      RELTAB
002606: 40,3303           74346                           MASK     LOW5
002607: 40,3304           54124                           TS       CODE
002608: 40,3305           34755                           CAF      ZERO
002609: 40,3306           56156                           XCH      MPAC       +2
002610: 40,3307           56155                           XCH      MPAC       +1
002611: 40,3310           54154                           TS       MPAC
002612: 40,3311           56776                           XCH      DSPCOUNT
002613: 40,3312           54143        TRACE1S            TS       COUNT
002614: 40,3313           10000                           CCS      A                                     #  DECREMENT DSPCOUNT EXCEPT AT +0


002616: 40,3314           54776                           TS       DSPCOUNT
002617: 40,3315           03365                           TC       DSPIN
002618: 40,3316           10137                           CCS      WDCNT
002619: 40,3317           03276                           TC       DSPDCWD1
002620: 40,3320           44360                           CS       VD1
002621: 40,3321           54776                           TS       DSPCOUNT
002622: 40,3322           00115                           TC       WDRET
002623:
002624: 40,3323           00000                           OCT      00000
002625: 40,3324           02476        DECROUND           OCT      02476
002626:
002627:                                                                                                  #  DSPDECNR CONVERTS C( MPAC,MPAC+1) INTO A SIGN AND 5 CHAR DECIMAL
002628:                                                                                                  #  STARTING IN LOC SPECIFIED IN DSPCOUNT. IT DOES NOT ROUND
002629:
002630: 40,3325           56002        DSPDECNR           XCH      Q
002631: 40,3326           54115                           TS       WDRET
002632: 40,3327           03243                           TC       DSPSIGN
002633: 40,3330           03275                           TC       DSPDCWD1   -1
002634:
002635:                                                                                                  #  DSPDC2NR CONVERTS C( MPAC,MPAC+1) INTO A SIGN AND 2 CHAR DECIMAL
002636:                                                                                                  #  STARTING IN LOC SPECIFIED IN DSPCOUNT. IT DOES NOT ROUND
002637:
002638: 40,3331           56002        DSPDC2NR           XCH      Q
002639: 40,3332           54115                           TS       WDRET
002640: 40,3333           03243                           TC       DSPSIGN
002641: 40,3334           34753                           CAF      ONE
002642: 40,3335           03276                           TC       DSPDCWD1
002643:
002644:
002645:                                                                                                  #  DSP2DEC CONVERTS C(MPAC) AND C(MPAC+1) INTO A SIGN AND 10 CHAR DECIMAL
002646:                                                                                                  #  STARTING IN THE LOC SPECIFIED IN DSPCOUNT.
002647:
002648: 40,3336           56002        DSP2DEC            XCH      Q
002649: 40,3337           54115                           TS       WDRET
002650: 40,3340           34755                           CAF      ZERO
002651: 40,3341           54124                           TS       CODE
002652: 40,3342           36250                           CAF      THREE
002653: 40,3343           03447                           TC       11DSPIN                               #  -R2 OFF
002654: 40,3344           34751                           CAF      FOUR
002655: 40,3345           03447                           TC       11DSPIN                               #  +R2 OFF
002656: 40,3346           03243                           TC       DSPSIGN
002657: 40,3347           34320                           CAF      R2D1
002658: 40,3350           03276        END2DEC            TC       DSPDCWD1
002659:
002660:
002661:                                                                                                  #  DSPDECVN DISPLAYS C(A) UPON ENTRY AS A 2 CHAR DECIMAL BEGINNING IN THE
002662:                                                                                                  #  DSP LOC SPECIFIED IN DSPCOUNT.
002663:                                                                                                  #  C(A) SHOULD BE IN FORM N X 2EXP-14. THIS IS SCALED TO FORM N/100 BEFORE
002664:                                                                                                  #  DISPLAY CONVERSION.
002665:


002667: 40,3351           00006        DSPDECVN           EXTEND
002668: 40,3352           73361                           MP       VNDSPCON                              #  MULT BY .01
002669: 40,3353           22154                           LXCH     MPAC                                  #  TAKE RESULTS FROM L.(MULT BY 2EXP14).
002670: 40,3354           34755                           CAF      ZERO
002671: 40,3355           54155                           TS       MPAC       +1
002672: 40,3356           56002                           XCH      Q
002673: 40,3357           54115                           TS       WDRET
002674: 40,3360           03334                           TC       DSPDC2NR   +3                         #  NO SIGN, NO ROUND, 2 CHAR
002675:
002676: 40,3361           00244        VNDSPCON           OCT      00244                                 #  .01 ROUNDED UP
002677:
002678:
002679: 40,3362           03351        GOVNUPDT           TC       DSPDECVN                              #  THIS IS NOT FOR GENERAL USE. REALLY PART
002680: 40,3363           04635                           TC       POSTJUMP                              #  OF UPDATVB.
002681: 40,3364           62356                           CADR     UPDAT1     +2
002682:
002683: 40,3365                        ENDECVN            EQUALS
002684:
002685:
002686: 41,3415                                           SETLOC   ENDSPF     +1
002687: 41,3415                                           COUNT*   $$/PIN
002688:                                                                                                  #  DSPOCTWD DISPLAYS C(A) UPON ENTRY AS A 5 CHAR OCT STARTING IN THE DSP
002689:                                                                                                  #  CHAR SPECIFIED IN DSPCOUNT. IT STOPS AFTER 5 CHAR HAVE BEEN DISPLAYED.
002690:
002691: 41,3415           54022        DSPOCTWD           TS       CYL
002692: 41,3416           56002                           XCH      Q
002693: 41,3417           54115                           TS       WDRET                                 #  MUST USE SAME RETURN AS DSP2BIT.
002694: 41,3420           34736                           CAF      BIT14                                 #  TO BLANK SIGNS
002695: 41,3421           26776                           ADS      DSPCOUNT
002696: 41,3422           34751                           CAF      FOUR
002697: 41,3423           54137        WDAGAIN            TS       WDCNT
002698: 41,3424           40022                           CS       CYL
002699: 41,3425           40022                           CS       CYL
002700: 41,3426           40022                           CS       CYL
002701: 41,3427           40000                           CS       A
002702: 41,3430           74757                           MASK     DSPMSK
002703: 41,3431           50000                           INDEX    A
002704: 41,3432           34066                           CAF      RELTAB
002705: 41,3433           74346                           MASK     LOW5
002706: 41,3434           54124                           TS       CODE
002707: 41,3435           56776                           XCH      DSPCOUNT
002708: 41,3436           54143                           TS       COUNT
002709: 41,3437           10000                           CCS      A                                     #  DECREMENT DSPCOUNT EXCEPT AT +0
002710: 41,3440           54776                           TS       DSPCOUNT
002711: 41,3441           04635                           TC       POSTJUMP
002712: 41,3442           61455                           CADR     DSPOCTIN
002713: 41,3443           10137        OCTBACK            CCS      WDCNT
002714: 41,3444           03423                           TC       WDAGAIN                               #  +
002715: 41,3445           44360        DSPLV              CS       VD1                                   #  TO BLOCK NUMERICAL CHARACTERS, CLEARS,
002716: 41,3446           54776                           TS       DSPCOUNT                              #  AND SIGNS AFTER A COMPLETED DISPLAY.


002718: 41,3447           00115                           TC       WDRET
002719:
002720: 41,3450     4757               DSPMSK             =        SEVEN
002721:
002722:
002723:                                                                                                  #  FOR DSPIN PLACE 0/25 OCT INTO COUNT, 5 BIT RELAY CODE INTO CODE. BOTH
002724:                                                                                                  #  ARE DESTROYED. IF BIT14 OF COUNT IS 1, SIGN IS BLANKED WITH LEFT CHAR.
002725:                                                                                                  #  FOR DSPIN1 PLACE 0,1 INTO BIT11 OF CODE, 2 INTO COUNT, REL ADDRESS OF
002726:                                                                                                  #  DSPTAB ENTRY INTO DSREL.
002727:
002728: 40,3365                                           SETLOC   ENDECVN
002729:
002730: 40,3365                                           COUNT*   $$/PIN
002731: 40,3365           56002        DSPIN              XCH      Q                                     #  CANT USE L FOR RETURN, SINCE MANY OF THE
002732: 40,3366           54114                           TS       DSEXIT                                #  ROUTINES CALLING DSPIN USE L AS RETURN.
002733: 40,3367           34346                           CAF      LOW5
002734: 40,3370           70143                           MASK     COUNT
002735: 40,3371           54021                           TS       SR
002736: 40,3372           56021                           XCH      SR
002737: 40,3373           54141                           TS       DSREL
002738: 40,3374           34753                           CAF      BIT1
002739: 40,3375           70143                           MASK     COUNT
002740: 40,3376           10000                           CCS      A
002741: 40,3377           03401                           TC       +2                                    #  LEFT IF COUNT IS ODD
002742: 40,3400           03411                           TC       DSPIN1     -1                         #  RIGHT IF COUNT IS EVEN
002743: 40,3401           56124                           XCH      CODE
002744: 40,3402           04340                           TC       SLEFT5                                #  DOES NOT USE CYL
002745: 40,3403           54124                           TS       CODE
002746: 40,3404           34736                           CAF      BIT14
002747: 40,3405           70143                           MASK     COUNT
002748: 40,3406           10000                           CCS      A
002749: 40,3407           34752                           CAF      TWO                                   #  BIT14 = 1, BLANK SIGN
002750: 40,3410           64753                           AD       ONE                                   #  BIT14 = 0, LEAVE SIGN ALONE
002751: 40,3411           54143                           TS       COUNT                                 #  +0 INTO COUNT FOR RIGHT
002752:                                                                                                  #  +1 INTO COUNT FOR LEFT(SIGN LEFT ALONE)
002753:                                                                                                  #  +3 INTO COUNT FOR LEFT(TO BLANK SIGN)
002754: 40,3412           00004        DSPIN1             INHINT
002755: 40,3413           50141                           INDEX    DSREL
002756: 40,3414           11022                           CCS      DSPTAB
002757: 40,3415           03417                           TC       +2                                    #  IF +
002758: 40,3416           05706                           TC       CCSHOLE
002759: 40,3417           64753                           AD       ONE                                   #  IF-
002760: 40,3420           54142                           TS       DSMAG
002761: 40,3421           50143                           INDEX    COUNT
002762: 40,3422           73443                           MASK     DSMSK
002763: 40,3423           00006                           EXTEND
002764: 40,3424           60124                           SU       CODE
002765: 40,3425           00006                           EXTEND
002766: 40,3426           13441                           BZF      DSLV                                  #  SAME
002767: 40,3427           50143        DFRNT              INDEX    COUNT


002769: 40,3430           43443                           CS       DSMSK                                 #  MASK WITH 77740,76037,75777, OR 74037
002770: 40,3431           70142                           MASK     DSMAG
002771: 40,3432           60124                           AD       CODE
002772: 40,3433           40000                           CS       A
002773: 40,3434           50141                           INDEX    DSREL
002774: 40,3435           57022                           XCH      DSPTAB
002775: 40,3436           00006                           EXTEND
002776: 40,3437           63441                           BZMF     DSLV                                  #  DSPTAB ENTRY WAS -
002777: 40,3440           25015                           INCR     NOUT                                  #  DSPTAB ENTRY WAS +
002778: 40,3441           00003        DSLV               RELINT
002779: 40,3442           00114                           TC       DSEXIT
002780:
002781: 40,3443           00037        DSMSK              OCT      37
002782: 40,3444           01740                           OCT      1740
002783: 40,3445           02000                           OCT      2000
002784: 40,3446           03740                           OCT      3740
002785:
002786:
002787:                                                                                                  #  FOR 11DSPIN, PUT REL ADDRESSS OF DSPTAB ENTRY INTO A, 1 IN BIT11 OR 0 IN
002788:                                                                                                  #  BIT11 OF CODE.
002789:
002790: 40,3447           54141        11DSPIN            TS       DSREL
002791: 40,3450           34752                           CAF      TWO
002792: 40,3451           54143                           TS       COUNT
002793: 40,3452           56002                           XCH      Q                                     #  MUST USE SAME RETURN AS DSPIN
002794: 40,3453           54114                           TS       DSEXIT
002795: 40,3454           03412                           TC       DSPIN1
002796:
002797:
002798: 40,3455           03365        DSPOCTIN           TC       DSPIN                                 #  SO DSPOCTWD DOESNT USE SWCALL
002799: 40,3456           33460                           CAF      +2
002800: 40,3457           04640                           TC       BANKJUMP
002801: 40,3460           63443        ENDSPOCT           CADR     OCTBACK
002802:
002803:
002804:                                                                                                  #  DSPALARM FINDS TC NVSUBEND IN ENTRET FOR NVSUB INITIATED ROUTINES.
002805:                                                                                                  #  ABORT WITH 01501.
002806:                                                                                                  #  DSPALARM FINDS TC ENDOFJOB IN ENTRET FOR KEYBOARD INITIATED ROUTINES.
002807:                                                                                                  #  DO TC ENTRET.
002808:
002809: 40,3461           44360        PREDSPAL           CS       VD1
002810: 40,3462           54776                           TS       DSPCOUNT
002811: 40,3463           43504        DSPALARM           CS       NVSBENDL
002812: 40,3464           60136                           AD       ENTEXIT
002813: 40,3465           00006                           EXTEND
002814: 40,3466           13501                           BZF      CHARALRM   +2
002815: 40,3467           43503                           CS       MONADR                                #  IF THIS IS A MONITOR, KILL IT
002816: 40,3470           60136                           AD       ENTEXIT
002817: 40,3471           00006                           EXTEND
002818: 40,3472           13474                           BZF      +2


002820: 40,3473           03477                           TC       CHARALRM
002821: 40,3474           04204                           TC       KILMONON
002822: 40,3475           04364                           TC       FALTON
002823: 40,3476           04124                           TC       PASTEVB                               #  PUT MONITOR VERB BACK IN VERBREG
002824: 40,3477           04364        CHARALRM           TC       FALTON                                #  NOT NVSUB INITIATED. TURN ON OPR ERROR
002825: 40,3500           05155                           TC       ENDOFJOB
002826: 40,3501           05653                           TC       POODOO
002827: 40,3502           21501                           OCT      21501
002828: 40,3503           04124        MONADR             GENADR   PASTEVB
002829: 40,3504           04202        NVSBENDL           TC       NVSUBEND
002830:
002831:
002832:                                                                                                  #  ALMCYCLE TURNS ON CHECK FAIL LIGHT, REDISPLAYS THE ORIGINAL VERB THAT
002833:                                                                                                  #  WAS EXECUTED, AND RECYCLES TO EXECUTE THE ORIGINAL VERB/NOUN COMBINATION
002834:                                                                                                  #  THAT WAS LAST EXECUTED. USED FOR BAD DATA DURING LOAD VERBS AND BY
002835:                                                                                                  #  MCTBS. ALSO BY MMCHANG IF 2 NUMERICAL CHARACTERS WERE NOT PUNCHED IN
002836:                                                                                                  #  FOR MM CODE.
002837:
002838:    4145                                           SETLOC   MID7       +1
002839:    4145                                           COUNT*   $$/PIN
002840:    4145           04364        ALMCYCLE           TC       FALTON                                #  TURN ON CHECK FAIL LIGHT.
002841:    4146           41040                           CS       VERBSAVE                              #  GET ORIGINAL VERB THAT WAS EXECUTED
002842:    4147           55012                           TS       REQRET                                #  SET FOR ENTPAS0
002843:    4150           04616                           TC       BANKCALL                              #  PUTS ORIGINAL VERB INTO VERBREG AND
002844:    4151           62346                           CADR     UPDATVB    -1                         #  DISPLAYS IT IN VERB LIGHTS.
002845:    4152           04635                           TC       POSTJUMP
002846:    4153           62002        ENDALM             CADR     ENTER
002847:
002848:
002849:                                                                                                  #  MMCHANG USES NOUN DISPLAY UNTIL ENTER. THEN IT USES MODE DISP.
002850:                                                                                                  #  IT GOES TO MODROUT WITH THE NEW M M CODE IN A, BUT NOT DISPLAYED IN
002851:                                                                                                  #  MM LIGHTS.
002852:                                                                                                  #  IT DEMANDS 2 NUMERICAL CHARACTERS BE PUNCHED IN FOR NEW MM CODE.
002853:                                                                                                  #  IF NOT, IT RECYCLES.
002854:
002855: 41,3450                                           SETLOC   DSPLV      +3
002856: 41,3450                                           COUNT*   $$/PIN
002857: 41,3450           03472        MMCHANG            TC       REQMM                                 #  ENTPASHI ASSUMES THE TC REQMM AT MMCHANG
002858:                                                                                                  #  IF THIS MOVES AT ALL, MUST CHANGE
002859:                                                                                                  #  MMADREF AT ENTPASHI.
002860: 41,3451           34747                           CAF      BIT5                                  #  OCT20 = ND2.
002861: 41,3452           60776                           AD       DSPCOUNT                              #  DSPCOUNT MUST = -ND2.
002862: 41,3453           00006                           EXTEND                                         #  DEMAND THAT 2 NUM CHAR WERE PUNCHED IN.
002863: 41,3454           13456                           BZF      +2
002864: 41,3455           04145                           TC       ALMCYCLE                              #  DSPCOUNT NOT= -ND2. ALARM AND RECYCLE.
002865: 41,3456           34755                           CAF      ZERO                                  #  DSPCOUNT = -ND2.
002866: 41,3457           57001                           XCH      NOUNREG
002867: 41,3460           54154                           TS       MPAC
002868: 41,3461           34361                           CAF      ND1
002869: 41,3462           54776                           TS       DSPCOUNT


002871: 41,3463           04616                           TC       BANKCALL
002872: 41,3464           60610                           CADR     2BLANK
002873: 41,3465           44360                           CS       VD1                                   #  BLOCK NUM CHAR IN
002874: 41,3466           54776                           TS       DSPCOUNT
002875: 41,3467           30154                           CA       MPAC
002876: 41,3470           04635                           TC       POSTJUMP
002877: 41,3471           10040                           CADR     MODROUTB                              #  GO THRU STANDARD LOC.
002878:
002879:
002880: 41,3472  04,2040               MODROUTB           =        V37
002881: 41,3472           40002        REQMM              CS       Q
002882: 41,3473           55012                           TS       REQRET
002883: 41,3474           34361                           CAF      ND1
002884: 41,3475           54776                           TS       DSPCOUNT
002885: 41,3476           34755                           CAF      ZERO
002886: 41,3477           55001                           TS       NOUNREG
002887: 41,3500           04616                           TC       BANKCALL
002888: 41,3501           60610                           CADR     2BLANK
002889: 41,3502           04427                           TC       FLASHON
002890: 41,3503           34753                           CAF      ONE
002891: 41,3504           54777                           TS       DECBRNCH                              #  SET FOR DEC
002892: 41,3505           00136                           TC       ENTEXIT
002893:
002894:
002895:                                                                                                  #  VBRQEXEC ENTERS REQUEST TO EXEC     FOR ANY ADDRESS WITH ANY PRIORITY.
002896:                                                                                                  #  IT DOES ENDOFJOB AFTER ENTERING REQUEST. DISPLAY SYST IS RELEASED.
002897:                                                                                                  #  IT ASSUMES NOUN 26 HAS BEEN PRELOADED WITH
002898:                                                                                                  #  COMPONENT 1  PRIORITY(BITS 10-14) BIT1=0 FOR NOVAC, BIT1=1 FOR FINDVAC.
002899:                                                                                                  #  COMPONENT 2  JOB ADRES (12 BIT )
002900:                                                                                                  #  COMPONENT 3  BBCON
002901:
002902: 41,3506           34753        VBRQEXEC           CAF      BIT1
002903: 41,3507           71044                           MASK     DSPTEM1
002904: 41,3510           10000                           CCS      A
002905: 41,3511           03530                           TC       SETVAC                                #  IF BIT1 = 1, FINDVAC
002906: 41,3512           34351                           CAF      TCNOVAC                               #  IF BIT1 = 0, NOVAC
002907: 41,3513           54154        REQEX1             TS       MPAC                                  #  TC NOVAC  OR  TC FINDVAC INTO MPAC
002908: 41,3514           44753                           CS       BIT1
002909: 41,3515           71044                           MASK     DSPTEM1
002910: 41,3516           54160                           TS       MPAC       +4                         #  PRIO INTO MPAC+4 AS A TEMP
002911: 41,3517           04457        REQUESTC           TC       RELDSP
002912: 41,3520           34217                           CA       ENDINST
002913: 41,3521           54157                           TS       MPAC       +3                         #  TC ENDOFJOB INTO MPAC+3
002914: 41,3522           00006                           EXTEND
002915: 41,3523           31046                           DCA      DSPTEM1    +1                         #  JOB ADRES INTO MPAC+1
002916: 41,3524           52156                           DXCH     MPAC       +1                         #  BBCON INTO MPAC+2
002917: 41,3525           30160                           CA       MPAC       +4                         #  PRIO IN A
002918: 41,3526           00004                           INHINT
002919: 41,3527           00154                           TC       MPAC
002920:


002922: 41,3530           34354        SETVAC             CAF      TCFINDVC
002923: 41,3531           03513                           TC       REQEX1
002924:
002925:                                                                                                  #  VBRQWAIT ENTERS REQUEST TO WAITLIST FOR ANY ADDRESS WITH ANY DELAY.
002926:                                                                                                  #  IT DOES ENDOFJOB AFTER ENTERING REQUEST.DISPLAY SYST IS RELEASED.
002927:                                                                                                  #  IT ASSUMES NOUN 26 HAS BEEN PRELOADED WITH
002928:                                                                                                  #  COMPONENT 1  DELAY (LOW BITS)
002929:                                                                                                  #  COMPONENT 2  TASK ADRES (12 BIT)
002930:                                                                                                  #  COMPONENT 3  BBCON
002931:
002932: 41,3532           34352        VBRQWAIT           CAF      TCWAIT
002933: 41,3533           54154                           TS       MPAC                                  #  TC WAITLIST INTO MPAC
002934: 41,3534           31044                           CA       DSPTEM1                               #  TIME DELAY
002935: 41,3535           03516        ENDRQWT            TC       REQUESTC   -1
002936:
002937:                                                                                                  #  REQUESTC WILL PUT TASK ADRES INTO MPAC+1, BBCON INTO MPAC+2,
002938:                                                                                                  #  TC ENDOFJOB INTO MPAC+3. IT WILL TAKE TIME DELAY OUT OF MPAC+4 AND
002939:                                                                                                  #  LEAVE IT IN A, INHINT AND TC MPAC.
002940:
002941:
002942: 40,3505                                           SETLOC   NVSBENDL   +1
002943: 40,3505                                           COUNT*   $$/PIN
002944: 40,3505           34753        VBPROC             CAF      ONE                                   #  PROCEED WITHOUT DATA
002945: 40,3506           55013                           TS       LOADSTAT
002946: 40,3507           04204                           TC       KILMONON                              #  TURN ON KILL MONITOR BIT
002947: 40,3510           04457                           TC       RELDSP
002948: 40,3511           04433                           TC       FLASHOFF
002949: 40,3512           03621                           TC       RECALTST                              #  SEE IF THERE IS ANY RECALL FROM ENDIDLE
002950:
002951:
002952: 40,3513           44753        VBTERM             CS       ONE
002953: 40,3514           03506                           TC       VBPROC     +1                         #  TERM VERB SETS LOADSTAT NEG
002954:
002955:
002956:                                                                                                  #  PROCKEY PERFORMS THE SAME FUNCTION AS VBPROC.  IT MUST BE CALLED UNDER
002957:                                                                                                  #  EXECUTIVE CONTROL, WITH CHRPRIO.
002958: 40,3515           41000        PROCKEY            CS       VERBREG                               #  DONT ALLOW PROCEED DURING LOAD.
002959: 40,3516           63532                           AD       VBSP2LD*                              #  DEC 22
002960: 40,3517           00006                           EXTEND
002961: 40,3520           26000                           DIM      A
002962: 40,3521           00006                           EXTEND
002963: 40,3522           13477                           BZF      CHARALRM
002964: 40,3523           34755        PROCKEY1           CAF      ZERO                                  #  SET REQRET FOR ENTER PASS 0.
002965: 40,3524           55012                           TS       REQRET
002966: 40,3525           44360                           CS       VD1                                   #  BLOCK NUMERICAL CHARACTERS, SIGNS, CLEAR
002967: 40,3526           54776                           TS       DSPCOUNT
002968: 40,3527           03505                           TC       VBPROC
002969:
002970:
002971:                                                                                                  #  VBRESEQ WAKES ENDIDLE AT SAME LINE AS FINAL ENTER OF LOAD (L+3).


002973:                                                                                                  #  (MAIN USE IS INTENDED AS RESPONSE TO INTERNALLY INITIATED FLASHING
002974:                                                                                                  #   DISPLAYS IN ENDIDLE. SHOULD NOT BE USED WITH LOAD VERBS,PLEASE PERFORM,
002975:                                                                                                  #   OR PLEASE MARK VERBS BECAUSE THEY ALREADY USE L+3 IN ANOTHER CONTEXT.)
002976:
002977: 40,3530           44755        VBRESEQ            CS       ZERO                                  #  MAKE IT LOOK LIKE DATA IN.
002978: 40,3531           03506                           TC       VBPROC     +1
002979:
002980:
002981: 40,3532           00026        VBSP2LD*           DEC      22         B-14                       #  VB22 = BLOAD
002982:
002983:                                                                                                  #  FLASH IS TURNED OFF BY PROCEED WITHOUT DATA, TERMINATE, RESEQUENCE,
002984:                                                                                                  #  END OF LOAD.
002985:


002987:                                                                                                  #  KEY RELEASE ROUTINE
002988:
002989:                                                                                                  #  THIS ROUTINE ALWAYS TURNS OFF THE UPACT LIGHT AND ALWAYS CLEARS DSPLOCK.
002990:
002991:                                                                                                  #  THE HIGHEST PRIORITY FUNCTION OF THE KEY RELEASE BUTTON IS THE
002992:                                                                                                  #  UNSUSPENDING OF A SUSPENDED MONITOR WHICH WAS EXTERNALLY INITIATED.
002993:                                                                                                  #  THIS FUNCTION IS ACCOMPLISHED BY CLEARING DSPLOCK AND TURNING OFF
002994:                                                                                                  #  THE KEY RELEASE LIGHT IF BOTH DSPLIST AND CADRSTOR ARE EMPTY.
002995:
002996:                                                                                                  #  IF NO SUCH MONITOR EXISTS, THEN RELDSP IS EXECUTED TO CLEAR DSPLOCK
002997:                                                                                                  #  AND THE EXTERNAL MONITOR BIT (FREEING THE DISPLAY SYSTEM FOR INTERNAL
002998:                                                                                                  #  USE), TURN OFF THE KEY RELEASE LIGHT, AND WAKE UP ANY JOB IN DSPLIST.
002999:
003000:                                                                                                  #  IN ADDITION IF THERE IS A JOB IN ENDIDLE, THEN CONTROL IS TRANSFERRED
003001:                                                                                                  #  TO PINBRNCH (IN DISPLAY INTERFACE ROUTINE) TO RE-EXECUTE THE SERIES OF
003002:                                                                                                  #  NVSUB CALLS ETC. THAT PRECEDED THE ENDIDLE CALL STILL AWAITING RESPONSE.
003003:                                                                                                  #  THIS FEATURE IS INTENDED FOR USE WHEN THE OPERATOR HAS BEEN REQUESTED TO
003004:                                                                                                  #  RESPOND TO SOME INTERNAL ACTION THAT USED ENDIDLE, BUT HE HAS WRITTEN
003005:                                                                                                  #  OVER THE INFORMATION ON THE DISPLAY PANEL BY SOME DISPLAYS OF HIS OWN
003006:                                                                                                  #  INITIATION WHICH DO NOT SERVE AS RESPONSES. HITTING KEY RLSE WILL
003007:                                                                                                  #  RE-ESTABLISH THE DISPLAYS TO THE STATE THEY WERE IN BEFORE HE OBSCURED
003008:                                                                                                  #  THEM, SO THAT HE CAN SEE THE WAITING REQUEST.  THIS WORKS ONLY FOR
003009:                                                                                                  #  INTERNAL PROGRAMS THAT USED ENDIDLE THROUGH MARGARETS DISPLAY
003010:                                                                                                  #  SUBROUTINES.
003011:
003012: 40,3533           44751        VBRELDSP           CS       BIT3
003013: 40,3534           00006                           EXTEND
003014: 40,3535           03011                           WAND     DSALMOUT                              #  TURN OFF UPACT LITE
003015: 40,3536           10115                           CCS      21/22REG                              #  OLD DSPLOCK
003016: 40,3537           34736                           CAF      BIT14
003017: 40,3540           71020                           MASK     MONSAVE1                              #  EXTERNAL MONITOR BIT (EMB)
003018: 40,3541           10000                           CCS      A
003019: 40,3542           03551                           TC       UNSUSPEN                              #  OLD DSPLOCK AND EMB BOTH 1, UNSUSPEND.
003020: 40,3543           04457        TSTLTS4            TC       RELDSP                                #  NOT UNSUSPENDING EXTERNAL MONITOR,
003021: 40,3544           11041                           CCS      CADRSTOR                              #   RELEASE DISPLAY SYSTEM AND
003022: 40,3545           03547                           TC       +2                                    #   DO RE-ESTABLISH IF CADRSTOR IS FULL.
003023: 40,3546           05155                           TC       ENDOFJOB
003024: 40,3547           04635                           TC       POSTJUMP
003025: 40,3550           21051                           CADR     PINBRNCH
003026: 40,3551           34755        UNSUSPEN           CAF      ZERO                                  #  EXTERNAL MONITOR IS SUSPENDED,
003027: 40,3552           55011                           TS       DSPLOCK                               #   JUST UNSUSPEND IT BY CLEARING DSPLOCK.
003028: 40,3553           11041                           CCS      CADRSTOR                              #   TURN KEY RELEASE LIGHT OFF IF BOTH
003029: 40,3554           05155                           TC       ENDOFJOB                              #   CADRSTOR AND DSPLIST ARE EMPTY.
003030: 40,3555           04502                           TC       RELDSP1
003031: 40,3556           05155                           TC       ENDOFJOB
003032:
003033: 40,3557                        ENDRELDS           EQUALS
003034:


003036:                                                                                                  #  NVSUB IS USED FOR SUB ROUTINE CALLS FROM WITHIN COMPUTER. IT CAN BE
003037:                                                                                                  #  USED TO CALL THE COMBINATION OF ANY DISPLAY, LOAD, OR MONITOR VERB
003038:                                                                                                  #  TOGETHER WITH ANY NOUN AVAILABLE TO THE KEYBOARD.
003039:                                                                                                  #  PLACE 0VVVVVVVNNNNNNN INTO A.
003040:                                                                                                  #  V-S ARE THE 7 BIT VERB CODE.  N-S ARE THE 7 BIT NOUN CODE.
003041:
003042:                                                                                                  #  IF NVSUB IS CALLED WITH THE FOLLOWING NEGATIVE NUMBERS (RATHER THAN THE
003043:                                                                                                  #  VERB-NOUN CODE) IN A, THEN THE DISPLAY IS BLANKED AS FOLLOWS-
003044:                                                                                                  #   -4 FULL BLANK, -3 LEAVE MODE, -2 LEAVE MODE AND VERB, -1 BLANK R-S ONLY
003045:
003046:                                                                                                  #  NVSUB CAN BE USED WITH MACH CADR TO BE SPEC BY PLACING THE CADR INTO
003047:                                                                                                  #  MPAC+2 BEFORE THE STANDARD NVSUB CALL.
003048:
003049:                                                                                                  #   NVSUB RETURNS TO 2+ CALLING LOC AFTER PERFORMING TASK, IF DISPLAY
003050:                                                                                                  #  SYSTEM IS AVAILABLE. THE NEW NOUN AND VERB CODES ARE DISPLAYED.
003051:                                                                                                  #  IF V:S =0, THE NEW NOUN CODE IS DISPLAYED ONLY(RETURN WITH NO FURTHER
003052:                                                                                                  #  ACTION). IF N-S =0, THE NEW VERB CODE IS DISPLAYED ONLY(RETURN WITH NO
003053:                                                                                                  #  FURTHER ACTION).
003054:
003055:                                                                                                  #  IT RETURNS TO 1+ CALLING LOC WITHOUT PERFORMING TASK, IF DISPLAY
003056:                                                                                                  #  SYSTEM IS BLOCKED (NOTHING IS DISPLAYED IN THIS CASE).
003057:                                                                                                  #  IT DOES TC ABORT (WITH OCT 01501) IF IT ENCOUNTERS A DISPLAY PROGRAM
003058:                                                                                                  #  ALARM CONDITION BEFORE RETURN TO CALLER.
003059:
003060:                                                                                                  #  THE DISPLAY SYSTEM IS BLOCKED BY THE DEPRESSION OF ANY
003061:                                                                                                  #  KEY, EXCEPT ERROR LIGHT RESET
003062:                                                                                                  #  IT IS RELEASED BY THE KEY RELEASE BUTTON, ALL EXTENDED VERBS,
003063:                                                                                                  #  PROCEED WITHOUT DATA, TERMINATE, RESEQUENCE, INITIALIZE EXECUTIVE,
003064:                                                                                                  #  RECALL PART OF RECALTST IF ENDIDLE WAS USED,
003065:                                                                                                  #  VB = REQUEST EXECUTIVE, VB = REQUEST WAITLIST,
003066:                                                                                                  #  MONITOR SET UP.
003067:
003068:                                                                                                  #  THE DISPLAY SYSTEM IS ALSO BLOCKED BY THE EXTERNAL MONITOR BIT, WHICH
003069:                                                                                                  #  INDICATES AN EXTERNALLY INITIATED MONITOR IS RUNNING (SEE MONITOR)
003070:
003071:                                                                                                  #  A NVSUB CALL THAT PASSES DSPLOCK AND THE EXTERNAL MONITOR BIT ENDS OLD
003072:                                                                                                  #  MONITOR.
003073:
003074:                                                                                                  #  DSPLOCK IS THE INTERLOCK FOR USE OF KEYBOARD AND DISPLAY SYSTEM WHICH
003075:                                                                                                  #  LOCKS OUT INTERNAL USE WHENEVER THERE IS EXTERNAL KEYBOARD ACTION.
003076:
003077:                                                                                                  #  NVSUB SHOULD BE USED TWICE IN SUCCESSION FOR :PLEASE PERFORM: SITUATIONS
003078:                                                                                                  #  (SIMILARLY FOR PLEASE MARK). FIRST PLACE THE CODED NUMBER FOR WHAT
003079:                                                                                                  #  ACTION IS DESIRED OF OPERATOR INTO THE REGISTERS REFERRED TO BY THE
003080:                                                                                                  #  :CHECKLIST: NOUN. GO TO NVSUB WITH A DISPLAY VERB AND THE :CHECKLIST:
003081:                                                                                                  #  NOUN. GO TO NVSUB AGAIN WITH THE :PLEASE PERFORM: VERB AND ZEROS IN THE
003082:                                                                                                  #  LOW 7 BITS. THIS :PASTES UP: THE :PLEASE PERFORM: VERB INTO THE VERB
003083:                                                                                                  #  LIGHTS.
003084:
003085:                                                                                                  #  NVMONOPT IS AN ENTRY SIMILAR TO NVSUB, BUT REQUIRING AN ADDITIONAL


003087:                                                                                                  #  PARAMETER IN L. IT SHOULD BE USED ONLY WITH A MONITOR VERB-NOUN CODE IN
003088:                                                                                                  #  A. AFTER EACH MONITOR DISPLAY A *PLEASE* VERB WILL BE PASTED IN THE VERB
003089:                                                                                                  #  LIGHTS OR DATA WILL BE BLANKED (OR BOTH) ACCORDING TO THE OPTIONS
003090:                                                                                                  #  SPECIFIED IN L. IF BITS 8-14 OF L ARE OTHER THAN ZERO, THEN THEY WILL
003091:                                                                                                  #  BE INTERPRETED AS A VERB CODE AND PASTED IN THE VERB LIGHTS. (THIS VERB
003092:                                                                                                  #  CODE SHOULD DESIGNATE ONE OF THE *PLEASE* VERBS.) IF BITS 1-3 OF L ARE
003093:                                                                                                  #  OTHER THAN ZERO, THEN THEY WILL BE USED TO BLANK DATA BY BEING FED TO
003094:                                                                                                  #  BLANKSUB. IF NVMONOPT IS USED WITH A VERB OTHER THAN A MONITOR VERB,
003095:                                                                                                  #  THE PARAMETER IN L HAS NO EFFECT.
003096:
003097:                                                                                                  #  NVSUB IN FIXED-FIXED PLACES 2+CALLING LOC INTO NVQTEM, TC NVSUBEND INTO
003098:                                                                                                  #  ENTRET. (THIS WILL RESTORE OLD CALLING BANK BITS)
003099:
003100:    4154                                           SETLOC   ENDALM     +1
003101:
003102:    4154                                           COUNT*   $$/PIN
003103:    4154           22007        NVSUB              LXCH     7                                     #  ZERO NVMONOPT OPTIONS
003104:    4155           54123        NVMONOPT           TS       NVTEMP
003105:    4156           34736                           CAF      BIT14
003106:    4157           71020                           MASK     MONSAVE1                              #  EXTERNAL MONITOR BIT
003107:    4160           61011                           AD       DSPLOCK
003108:    4161           10000                           CCS      A
003109:    4162           00002                           TC       Q                                     #  DSP SYST BLOCKED. RET TO 1+ CALLING LOC
003110:    4163           34753                           CAF      ONE                                   #  DSP SYST AVAILABLE
003111:    4164           60002        NVSBCOM            AD       Q
003112:    4165           55036                           TS       NVQTEM                                #  2+ CALLING LOC INTO NVQTEM
003113:    4166           23021                           LXCH     MONSAVE2                              #  STORE NVMONOPT OPTIONS
003114:    4167           04204                           TC       KILMONON                              #  TURN ON KILL MONITOR BIT
003115:    4170           34201        NVSUBCOM           CAF      NVSBBBNK
003116:
003117:    4171           56006                           XCH      BBANK
003118:    4172           00006                           EXTEND                                         #  SAVE OLD SUPERBITS
003119:    4173           04007                           ROR      SUPERBNK
003120:    4174           55037                           TS       NVBNKTEM
003121:    4175           34201                           CAF      PINSUPBT
003122:    4176           00006                           EXTEND
003123:    4177           01007                           WRITE    SUPERBNK
003124:    4200           02000                           TC       NVSUBB                                #  GO TO NVSUB1 THRU STANDARD LOC
003125:    4201     0776                                  EBANK=   DSPCOUNT
003126:    4201           62101        NVSBBBNK           BBCON    NVSUB1
003127:
003128:    4202     4201               PINSUPBT           =        NVSBBBNK                              #  CONTAINS THE PINBALL SUPERBITS.
003129:
003130:    4202           53037        NVSUBEND           DXCH     NVQTEM                                #  NVBNKTEM MUST = NVQTEM+1
003131:    4203           05176                           TC       SUPDXCHZ                              #  DTCB WITH SUPERBIT SWITCHING
003132:
003133: 41,3536                                           SETLOC   ENDRQWT    +1
003134:
003135: 41,3536                                           COUNT*   $$/PIN
003136:                                                                                                  #  BLANKDSP BLANKS DISPLAY ACCORDING TO OPTION NUMBER IN NVTEMP AS FOLLOWS


003138:                                                                                                  #   -4 FULL BLANK, -3 LEAVE MODE, -2 LEAVE MODE AND VERB, -1 BLANK R-S ONLY
003139:
003140: 41,3536           64757        BLANKDSP           AD       SEVEN                                 #  7,8,9,OR 10 (A HAD 0,1,2,OR 3)
003141: 41,3537           00004                           INHINT
003142: 41,3540           54124                           TS       CODE                                  #  BLANK SPECIFIED DSPTABS
003143: 41,3541           44740                           CS       BIT12
003144: 41,3542           50124                           INDEX    CODE
003145: 41,3543           57022                           XCH      DSPTAB
003146: 41,3544           10000                           CCS      A
003147: 41,3545           25015                           INCR     NOUT
003148: 41,3546           03547                           TC       +1
003149: 41,3547           10124                           CCS      CODE
003150: 41,3550           03540                           TC       BLANKDSP   +2
003151: 41,3551           00003                           RELINT
003152: 41,3552           50123                           INDEX    NVTEMP
003153: 41,3553           03560                           TC       +5
003154: 41,3554           03555                           TC       +1                                    #  NVTEMP HAS -4 (NEVER TOUCH MODREG)
003155: 41,3555           55000                           TS       VERBREG                               #             -3
003156: 41,3556           55001                           TS       NOUNREG                               #             -2
003157: 41,3557           55014                           TS       CLPASS                                #             -1
003158: 41,3560           44360                           CS       VD1
003159: 41,3561           54776                           TS       DSPCOUNT
003160: 41,3562           04433                           TC       FLASHOFF                              #  PROTECT AGAINST INVISIBLE FLASH
003161: 41,3563           03606                           TC       ENTSET     -2                         #  ZEROS REQRET
003162:
003163: 41,3564           33610        NVSUB1             CAF      ENTSET                                #  IN BANK
003164: 41,3565           54136                           TS       ENTRET                                #  SET RETURN TO NVSUBEND
003165: 41,3566           10123                           CCS      NVTEMP                                #  WHAT NOW
003166: 41,3567           03573                           TC       +4                                    #  NORMAL NVSUB CALL (EXECUTE VN OR PASTE)
003167: 41,3570           02360                           TC       GODSPALM
003168: 41,3571           03536                           TC       BLANKDSP                              #  BLANK DISPLAY AS SPECIFIED
003169: 41,3572           02360                           TC       GODSPALM
003170: 41,3573           36077                           CAF      LOW7
003171: 41,3574           70123                           MASK     NVTEMP
003172: 41,3575           54157                           TS       MPAC       +3                         #  TEMP FOR NOUN (CANT USE MPAC. DSPDECVN
003173: 41,3576           30123                           CA       NVTEMP                                #                  USES MPAC, +1, +2
003174: 41,3577           54023                           TS       EDOP                                  #  RIGHT 7
003175: 41,3600           30023                           CA       EDOP
003176: 41,3601           54160                           TS       MPAC       +4                         #  TEMP FOR VERB (CANT USE MPAC+1. DSPDECVN
003177:                                                                                                  #                 USES MPAC, +1, +2).
003178: 41,3602           10157                           CCS      MPAC       +3                         #  TEST NOUN
003179: 41,3603           03611                           TC       NVSUB2                                #  IF NOUN NOT +0, GO ON
003180: 41,3604           30160                           CA       MPAC       +4
003181: 41,3605           02346                           TC       UPDATVB    -1                         #  IF NOUN = +0, DISPLAY VERB . THEN RETURN
003182: 41,3606           34755                           CAF      ZERO                                  #  ZERO REQRET SO THAT PASTED VERBS CAN
003183: 41,3607           55012                           TS       REQRET                                #  BE EXECUTED BY OPERATOR.
003184: 41,3610           04202        ENTSET             TC       NVSUBEND
003185: 41,3611           10160        NVSUB2             CCS      MPAC       +4                         #  TEST VERB
003186: 41,3612           03616                           TC       +4                                    #  IF VERB NOT +0, GO ON
003187: 41,3613           30157                           CA       MPAC       +3


003189: 41,3614           02326                           TC       UPDATNN    -1                         #  IF VERB = +0, DISPLAY NOUN. THEN RETURN
003190: 41,3615           04202                           TC       NVSUBEND
003191: 41,3616           30156                           CA       MPAC       +2                         #  TEMP FOR MACH CADR TO BE SPEC. (DSPDECVN
003192: 41,3617           54161                           TS       MPAC       +5                         #               USES MPAC, +1, +2)
003193: 41,3620           30160                           CA       MPAC       +4
003194: 41,3621           02346                           TC       UPDATVB    -1                         #  IF BOTH NOUN AND VERB NOT +0, DISPLAY
003195: 41,3622           30157                           CA       MPAC       +3                         #  BOTH AND GO TO ENTPAS0.
003196: 41,3623           02326                           TC       UPDATNN    -1
003197: 41,3624           34755                           CAF      ZERO
003198: 41,3625           55013                           TS       LOADSTAT                              #  SET FOR WAITING FOR DATA CONDITION
003199: 41,3626           55014                           TS       CLPASS
003200: 41,3627           55012                           TS       REQRET                                #  SET REQRET FOR PASS 0.
003201: 41,3630           30161                           CA       MPAC       +5                         #  RESTORES MACH CADR TO BE SPEC TO MPAC+2
003202: 41,3631           54156                           TS       MPAC       +2                         #  FOR USE IN INTMCTBS (IN ENTPAS0).
003203: 41,3632           02042        ENDNVSB1           TC       ENTPAS0
003204:
003205:
003206:                                                                                                  #  IF INTERNAL MACH CADR TO BE SPECIFIED, MPAC+2 WILL BE PLACED INTO
003207:                                                                                                  #  NOUNCADR IN ENTPAS0 (INTMCTBS ).
003208:
003209:
003210:    4204                                           SETLOC   NVSUBEND   +2
003211:    4204                                           COUNT*   $$/PIN
003212:                                                                                                  #  FORCE BIT 15 OF MONSAVE1 TO 1.
003213:    4204           34735        KILMONON           CAF      BIT15                                 #     THIS IS THE KILL MONITOR BIT.
003214:    4205           55020                           TS       MONSAVE1                              #  TURN OFF BIT 14, THE EXTERNAL
003215:                                                                                                  #   MONITOR BIT.
003216:    4206           00002                           TC       Q
003217:
003218:
003219:                                                                                                  #  LOADSTAT  +0 INACTIVE(WAITING FOR DATA). SET BY NVSUB
003220:                                                                                                  #            +1  PROCEED NO DATA. SET BY SPECIAL VERB
003221:                                                                                                  #           -1 TERMINATE   SET BY SPECIAL VERB
003222:                                                                                                  #           -0    DATA IN      SET BY END OF LOAD ROUTINE
003223:                                                                                                  #              OR RESEQUENCE   SET BY VERB 32
003224:
003225:
003226:                                                                                                  #  L  TC ENDIDLE  (FIXED FIXED)
003227:                                                                                                  #  ROUTINES THAT REQUEST LOADS THROUGH NVSUB SHOULD USE ENDIDLE WHILE
003228:                                                                                                  #  WAITING FOR THE DATA TO BE LOADED. ENDIDLE PUTS CURRENT JOB TO SLEEP.
003229:                                                                                                  #  ENDIDLE CANNOT BE CALLED FROM ERASABLE OR F/F MEMORY,
003230:                                                                                                  #  SINCE JOBSLEEP AND JOBWAKE CAN HANDLE ONLY FIXED BANKS.
003231:                                                                                                  #  RECALTST TESTS LOADSTAT AND WAKES JOB UP TO,
003232:                                                                                                  #  L+1      FOR TERMINATE
003233:                                                                                                  #  L+2      FOR PROCEED WITHOUT DATA
003234:                                                                                                  #  L+3      FOR DATA IN, OR RESEQUENCE
003235:                                                                                                  #  IT DOES NOTHING IF LOADSTAT INDICATES WAITING FOR DATA.
003236:
003237:
003238:                                                                                                  #  ENDIDLE ABORTS (WITH CODE 01206) IF A SECOND JOB ATTEMPTS TO GO TO SLEEP


003240:                                                                                                  #  IN PINBALL. IN PARTICULAR, IF AN ATTEMPT IS MADE TO GO TO ENDIDLE WHEN
003241:                                                                                                  #  1) CADRSTOR NOT= +0. THIS IS THE CASE WHERE THE CAPACITY OF ENDIDLE IS
003242:                                                                                                  #  EXCEEDED. (+-NZ INDICATE A JOB IS ALREADY ASLEEP DUE TO ENDIDLE.)
003243:                                                                                                  #  2) DSPLIST NOT= +0. THIS INDICATES A JOB IS ALREADY ASLEEP DUE TO
003244:                                                                                                  #  NVSUBUSY.
003245:
003246:    4207           22002        ENDIDLE            LXCH     Q                                     #  RETURN ADDRESS INTO L.
003247:    4210           04220                           TC       ISCADR+0                              #  ABORT IF CADRSTOR NOT= +0
003248:    4211           04224                           TC       ISLIST+0                              #  ABORT IF DSPLIST NOT= +0
003249:    4212           30001                           CA       L                                     #  DONT SET DSPLOCK TO 1 SO CAN USE
003250:    4213           75012                           MASK     LOW10                                 #  ENDIDLE WITH NVSUB INITIATED MONITOR.
003251:    4214           60004                           AD       FBANK                                 #  SAME STRATEGY FOR CADR AS MAKECADR.
003252:    4215           55041                           TS       CADRSTOR
003253:    4216           05133                           TC       JOBSLEEP
003254:
003255:
003256:    4217           05155        ENDINST            TC       ENDOFJOB
003257:
003258:
003259:    4220           11041        ISCADR+0           CCS      CADRSTOR                              #  ABORTS (CODE 01206) IF CADRSTOR NOT= +0.
003260:    4221           04227                           TC       DSPABORT                              #  RETURNS IF CADRSTOR = +0.
003261:    4222           00002                           TC       Q
003262:    4223           04227                           TC       DSPABORT
003263:
003264:    4224           11042        ISLIST+0           CCS      DSPLIST                               #  ABORTS (CODE 01206) IF DSPLIST NOT= +0.
003265:    4225           04227                           TC       DSPABORT                              #  RETURNS IF DSPLIST = +0.
003266:    4226           00002                           TC       Q
003267:    4227           05635        DSPABORT           TC       BAILOUT
003268:    4230           31206                           OCT      31206
003269:
003270:                                                                                                  #  JAMTERM ALLOWS PROGRAMS TO PERFORM THE TERMINATE FUNCTION.
003271:                                                                                                  #  IT DOES ENDOFJOB.
003272:
003273:    4231           34201        JAMTERM            CAF      PINSUPBT
003274:    4232           00006                           EXTEND
003275:    4233           01007                           WRITE    SUPERBNK
003276:    4234           34242                           CAF      34DEC
003277:    4235           55012                           TS       REQRET                                #  LEAVE ENTER SET FOR ENTPASS0.
003278:    4236           44360                           CS       VD1
003279:    4237           54776                           TS       DSPCOUNT
003280:    4240           04635                           TC       POSTJUMP
003281:    4241           61513                           CADR     VBTERM
003282:
003283:    4242           00042        34DEC              DEC      34         B-14
003284:
003285:
003286:                                                                                                  #  JAMPROC ALLOWS PROGRAMS TO PERFORM THE PROCEED/PROCEED WITHOUT DATA
003287:                                                                                                  #  FUNCTION. IT DOES ENDOFJOB.
003288:
003289:    4243           34201        JAMPROC            CAF      PINSUPBT


003291:    4244           00006                           EXTEND
003292:    4245           01007                           WRITE    SUPERBNK
003293:    4246           34254                           CAF      33DEC
003294:    4247           55012                           TS       REQRET                                #  LEAVE ENTER SET FOR ENTPASS0.
003295:    4250           44360                           CS       VD1
003296:    4251           54776                           TS       DSPCOUNT
003297:    4252           04635                           TC       POSTJUMP
003298:    4253           61505                           CADR     VBPROC
003299:
003300:    4254           00041        33DEC              DEC      33         B-14
003301:
003302:
003303:                                                                                                  #  BLANKSUB BLANKS ANY COMBINATION OF R1, R2, R3.
003304:                                                                                                  #  CALL WITH BLANKING CODE IN A.
003305:                                                                                                  #  BIT1=1 BLANKS R1, BIT2=1 BLANKS R2, BIT3=1 BLANKS R3.
003306:                                                                                                  #  ANY COMBINATION OF THESE BITS IS ACCEPTED.
003307:
003308:                                                                                                  #  DSPCOUNT IS RESTORED TO STATE IT WAS IN BEFORE BLANKSUB WAS EXECUTED.
003309:
003310:    4255           74757        BLANKSUB           MASK     SEVEN
003311:    4256           54123                           TS       NVTEMP                                #  STORE BLANKING CODE IN NVTEMP.
003312:    4257           34736                           CAF      BIT14
003313:    4260           71020                           MASK     MONSAVE1                              #  EXTERNAL MONITOR BIT
003314:    4261           61011                           AD       DSPLOCK
003315:    4262           10000                           CCS      A
003316:    4263           00002                           TC       Q                                     #  DSP SYST BLOCKED. RET TO 1+ CALLING LOC
003317:    4264           24002                           INCR     Q                                     #  DSP SYST AVAILABLE
003318:                                                                                                  #  SET RETURN FOR 2+ CALLING LOC
003319:    4265           10123                           CCS      NVTEMP
003320:    4266           14270                           TCF      +2
003321:    4267           00002                           TC       Q                                     #  NOTHING TO BLANK. RET TO 2+ CALLING LOC
003322:    4270           22002                           LXCH     Q                                     #  SET RETURN FOR 2 + CALLING LOC
003323:    4271           34302                           CAF      BLNKBBNK
003324:    4272           56006                           XCH      BBANK
003325:    4273           00006                           EXTEND
003326:    4274           04007                           ROR      SUPERBNK                              #  SAVE OLD SUPERBITS.
003327:    4275           52131                           DXCH     BUF
003328:    4276           34201                           CAF      PINSUPBT
003329:    4277           00006                           EXTEND
003330:    4300           01007                           WRITE    SUPERBNK
003331:    4301           03557                           TC       BLNKSUB1
003332:
003333:    4302     0776                                  EBANK=   DSPCOUNT
003334:    4302           60101        BLNKBBNK           BBCON    BLNKSUB1
003335:    4303                        ENDBLFF            EQUALS
003336:
003337: 40,3557                                           SETLOC   ENDRELDS
003338: 40,3557                                           COUNT*   $$/PIN
003339: 40,3557           30776        BLNKSUB1           CA       DSPCOUNT                              #  SAVE OLD DSPCOUNT FOR LATER RESTORATION
003340: 40,3560           54132                           TS       BUF        +2


003342: 40,3561           34753                           CAF      BIT1                                  #  TEST BIT1. SEE IF R1 TO BE BLANKED.
003343: 40,3562           03601                           TC       TESTBIT
003344: 40,3563           34317                           CAF      R1D1
003345: 40,3564           02544                           TC       5BLANK     -1
003346: 40,3565           34752                           CAF      BIT2                                  #  TEST BIT 2. SEE IF R2 TO BE BLANKED.
003347: 40,3566           03601                           TC       TESTBIT
003348: 40,3567           34320                           CAF      R2D1
003349: 40,3570           02544                           TC       5BLANK     -1
003350: 40,3571           34751                           CAF      BIT3                                  #  TEST BIT3. SEE IF R3 TO BE BLANKED.
003351: 40,3572           03601                           TC       TESTBIT
003352: 40,3573           34321                           CAF      R3D1
003353: 40,3574           02544                           TC       5BLANK     -1
003354: 40,3575           30132                           CA       BUF        +2                         #  RESTORE DSPCOUNT TO STATE IT HAD
003355: 40,3576           54776                           TS       DSPCOUNT                              #       BEFORE BLANKSUB.
003356: 40,3577           52131                           DXCH     BUF                                   #  CALL L+2 DIRECTLY.
003357: 40,3600           05177                           TC       SUPDXCHZ   +1                         #  DTCB WITH SUPERBIT SWITCHING
003358:
003359: 40,3601           70123        TESTBIT            MASK     NVTEMP                                #  NVTEMP CONTAINS BLANKING CODE.
003360: 40,3602           10000                           CCS      A
003361: 40,3603           00002                           TC       Q                                     #  IF CURRENT BIT = 1, RETURN TO L+1.
003362: 40,3604           50002                           INDEX    Q                                     #  IF CURRENT BIT = 0, RETURN TO L+3.
003363: 40,3605           00002                           TC       2
003364:
003365: 40,3606                        ENDBSUB1           EQUALS
003366:
003367:
003368:                                                                                                  #  DSPMM DOES NOT DISPLAY MODREG DIRECTLY. IT PUTS IN EXEC REQUEST WITH
003369:                                                                                                  #  PRIO 30000 FOR DSPMMJB AND RETURNS TO CALLER.
003370:
003371:                                                                                                  #  IF MODREG CONTAINS -0, DSPMMJB BLANKS THE MODE LIGHTS.
003372:
003373:                                                                                                  #  DSPMM MUST BE IN BANK 27 OR LOWER, SO IT CAN BE CALLED VIA BANKCALL.
003374:
003375: 07,2661                                           BANK     7
003376: 04,2000                                           SETLOC   PINBALL4
003377: 04,2000                                           BANK
003378:
003379: 04,2630                                           COUNT*   $$/PIN
003380: 04,2630           56002        DSPMM              XCH      Q
003381: 04,2631           54154                           TS       MPAC
003382: 04,2632           00004                           INHINT
003383: 04,2633           34355                           CAF      CHRPRIO
003384: 04,2634           05072                           TC       NOVAC
003385: 04,2635     0776                                  EBANK=   DSPCOUNT
003386: 04,2635           03606 60101                     2CADR    DSPMMJB
003387:
003388: 04,2637           00003                           RELINT
003389: 04,2640           00154        ENDSPMM            TC       MPAC
003390:
003391:                                                                                                  #  DSPMM  PLACE MAJOR MODE CODE INTO MODREG
003392:


003394: 40,3606                                           SETLOC   ENDBSUB1
003395:
003396: 40,3606                                           COUNT*   $$/PIN
003397: 40,3606           34362        DSPMMJB            CAF      MD1                                   #  GETS HERE THRU DSPMM
003398: 40,3607           56776                           XCH      DSPCOUNT
003399: 40,3610           54140                           TS       DSPMMTEM                              #  SAVE DSPCOUNT
003400: 40,3611           11010                           CCS      MODREG
003401: 40,3612           64753                           AD       ONE
003402: 40,3613           03351                           TC       DSPDECVN                              #  IF MODREG IS + OR +0, DISPLAY MODREG
003403: 40,3614           03616                           TC       +2                                    #  IF MODREG IS -NZ, DO NOTHING
003404: 40,3615           02610                           TC       2BLANK                                #  IF MODREG IS -0, BLANK MM
003405: 40,3616           56140                           XCH      DSPMMTEM                              #  RESTORE DSPCOUNT
003406: 40,3617           54776                           TS       DSPCOUNT
003407: 40,3620           05155                           TC       ENDOFJOB
003408:
003409:
003410:                                                                                                  #  RECALTST IS ENTERED DIRECTLY AFTER DATA IS LOADED (OR RESEQUENCE VERB IS
003411:                                                                                                  #  EXECUTED), TERMINATE VERB IS EXECUTED, OR PROCEED WITHOUT DATA VERB IS
003412:                                                                                                  #  EXECUTED. IT WAKES UP JOB THAT DID TC ENDIDLE.
003413:
003414:                                                                                                  #  IF CADRSTOR NOT= +0, IT PUTS +0 INTO DSPLOCK, AND TURNS OFF KEY RLSE
003415:                                                                                                  #  LIGHT IF DSPLIST IS EMPTY (LEAVES KEY RLSE LIGHT ALONE IF NOT EMPTY).
003416:
003417: 40,3621           11041        RECALTST           CCS      CADRSTOR
003418: 40,3622           03624                           TC       RECAL1
003419: 40,3623           05155                           TC       ENDOFJOB                              #  NORMAL EXIT IF KEYBOARD INITIATED
003420: 40,3624           34755        RECAL1             CAF      ZERO
003421: 40,3625           57041                           XCH      CADRSTOR
003422: 40,3626           00004                           INHINT
003423: 40,3627           05137                           TC       JOBWAKE
003424: 40,3630           11013                           CCS      LOADSTAT
003425: 40,3631           03653                           TC       DOPROC                                #  + PROCEED WITHOUT DATA
003426: 40,3632           05155                           TC       ENDOFJOB                              #  PATHALOGICAL CASE EXIT
003427: 40,3633           03651                           TC       DOTERM                                #  -   TERMINATE
003428: 40,3634           34752                           CAF      TWO                                   #  -0 DATA IN OR RESEQUENCE
003429: 40,3635           50064        RECAL2             INDEX    LOCCTR
003430: 40,3636           60164                           AD       LOC                                   #  LOC IS + FOR BASIC JOBS
003431: 40,3637           50064                           INDEX    LOCCTR
003432: 40,3640           54164                           TS       LOC
003433: 40,3641           31001                           CA       NOUNREG                               #  SAVE VERB IN MPAC, NOUN IN MPAC+1 AT
003434: 40,3642           54001                           TS       L                                     #  TIME OF RESPONSE TO ENDIDLE FOR
003435: 40,3643           31000                           CA       VERBREG                               #  POSSIBLE LATER TESTING BY JOB THAT HAS
003436: 40,3644           50064                           INDEX    LOCCTR                                #  BEEN WAKED UP.
003437: 40,3645           52155                           DXCH     MPAC
003438: 40,3646           00003                           RELINT
003439: 40,3647           04457        RECAL3             TC       RELDSP
003440: 40,3650           05155                           TC       ENDOFJOB
003441:
003442: 40,3651           34755        DOTERM             CAF      ZERO
003443: 40,3652           03635                           TC       RECAL2
003444:


003446: 40,3653           34753        DOPROC             CAF      ONE
003447: 40,3654           03635                           TC       RECAL2
003448:


003450:                                                                                                  #  MISCELLANEOUS SERVICE ROUTINES IN FIXED/FIXED
003451:
003452:    4303                                           SETLOC   ENDBLFF
003453:
003454:    4303                                           COUNT*   $$/PIN
003455:                                                                                                  #  SETNCADR       E CADR ARRIVES IN A. IT IS STORED IN NOUNCADR. EBANK BITS
003456:                                                                                                  #                 ARE SET. E ADRES IS DERIVED AND PUT INTO NOUNADD.
003457:
003458:    4303           55016        SETNCADR           TS       NOUNCADR                              #  STORE ECADR
003459:    4304           54003                           TS       EBANK                                 #  SET EBANK BITS
003460:    4305           74357                           MASK     LOW8
003461:    4306           65007                           AD       OCT1400
003462:    4307           54145                           TS       NOUNADD                               #  PUT E ADRES INTO NOUNADD
003463:    4310           00002                           TC       Q
003464:
003465:
003466:                                                                                                  #  SETNADD        GETS E CADR FROM NOUNCADR, SETS EBANK BITS, DERIVES
003467:                                                                                                  #                 E ADRES AND PUTS IT INTO NOUNADD.
003468:
003469:    4311           31016        SETNADD            CA       NOUNCADR
003470:    4312           14304                           TCF      SETNCADR   +1
003471:
003472:                                                                                                  #  SETEBANK       E CADR ARRIVES IN A. EBANK BITS ARE SET. E ADRES IS
003473:                                                                                                  #                 DERIVED AND LEFT IN A.
003474:
003475:    4313           54003        SETEBANK           TS       EBANK                                 #  SET EBANK BITS
003476:    4314           74357                           MASK     LOW8
003477:    4315           65007                           AD       OCT1400                               #  E ADRES LEFT IN A
003478:    4316           00002                           TC       Q
003479:
003480:
003481:    4317           00016        R1D1               OCT      16                                    #  THESE 3 CONSTANTS FORM A PACKED TABLE.
003482:    4320           00011        R2D1               OCT      11                                    #  DONT SEPARATE.
003483:    4321           00004        R3D1               OCT      4
003484:
003485:    4322           54020        RIGHT5             TS       CYR
003486:    4323           40020                           CS       CYR
003487:    4324           40020                           CS       CYR
003488:    4325           40020                           CS       CYR
003489:    4326           40020                           CS       CYR
003490:    4327           56020                           XCH      CYR
003491:    4330           00002                           TC       Q
003492:
003493:    4331           54022        LEFT5              TS       CYL
003494:    4332           40022                           CS       CYL
003495:    4333           40022                           CS       CYL
003496:    4334           40022                           CS       CYL
003497:    4335           40022                           CS       CYL


003499:    4336           56022                           XCH      CYL
003500:    4337           00002                           TC       Q
003501:
003502:    4340           60000        SLEFT5             DOUBLE
003503:    4341           60000                           DOUBLE
003504:    4342           60000                           DOUBLE
003505:    4343           60000                           DOUBLE
003506:    4344           60000                           DOUBLE
003507:    4345           00002                           TC       Q
003508:
003509:
003510:    4346           00037        LOW5               OCT      37                                    #  THESE 3 CONSTANTS FORM A PACKED TABLE.
003511:    4347           01740        MID5               OCT      1740                                  #  DONT SEPARATE.
003512:    4350           76000        HI5                OCT      76000                                 #  MUST STAY HERE
003513:
003514:    4351           05072        TCNOVAC            TC       NOVAC
003515:    4352           05214        TCWAIT             TC       WAITLIST
003516:    4353           05272        TCTSKOVR           TC       TASKOVER
003517:    4354           05105        TCFINDVC           TC       FINDVAC
003518:
003519:
003520:    4355           30000        CHRPRIO            OCT      30000                                 #  EXEC PRIORITY OF CHARIN
003521:
003522:
003523:    4356           03777        LOW11              OCT      3777
003524:    4357     4356               B12-1              EQUALS   LOW11
003525:    4357           00377        LOW8               OCT      377
003526:
003527:
003528:    4360           00023        VD1                OCT      23                                    #  THESE 3 CONSTANTS FORM A PACKED TABLE.
003529:    4361           00021        ND1                OCT      21                                    #  DONT SEPARATE.
003530:    4362           00025        MD1                OCT      25
003531:
003532:    4363           00012        BINCON             DEC      10         B-14
003533:
003534:    4364           34745        FALTON             CA       BIT7                                  #  TURN ON OPERATOR ERROR LIGHT
003535:    4365           00006                           EXTEND
003536:    4366           05011                           WOR      DSALMOUT                              #  BIT 7 OF CHANNEL 11
003537:    4367           00002                           TC       Q
003538:
003539:    4370           44745        FALTOF             CS       BIT7                                  #  TURN OFF OPERATOR ERROR LIGHT
003540:    4371           00006                           EXTEND
003541:    4372           03011                           WAND     DSALMOUT                              #  BIT 7 OF CHANNEL 11
003542:    4373           00002                           TC       Q
003543:
003544:    4374           34747        RELDSPON           CAF      BIT5                                  #  TURN ON KEY RELEASE LIGHT
003545:    4375           00006                           EXTEND
003546:    4376           05011                           WOR      DSALMOUT                              #  BIT 5 OF CHANNEL 11
003547:    4377           00002                           TC       Q
003548:


003550:    4400           00006        LODSAMPT           EXTEND
003551:    4401           30025                           DCA      TIME2
003552:    4402           52014                           DXCH     SAMPTIME
003553:    4403           00002                           TC       Q
003554:
003555:
003556:    4404           00006        TPSL1              EXTEND                                         #  SHIFTS MPAC, +1, +2 LEFT 1
003557:    4405           30156                           DCA      MPAC       +1                         #  LEAVES OVFIND SET TO +/- 1 FOR OF/UF
003558:    4406           20156                           DAS      MPAC       +1
003559:    4407           60154                           AD       MPAC
003560:    4410           26154                           ADS      MPAC
003561:    4411           54007                           TS       7                                     #  TS A DOES NOT CHANGE A ON OF/UF.
003562:    4412           00002                           TC       Q                                     #  NO NET OF/UF
003563:    4413           54162                           TS       MPAC+6                                #  MPAC +6 SET TO +/-1 FOR OF/UF
003564:    4414           00002                           TC       Q
003565:
003566:
003567:                                                                                                  #  IF MPAC, +1 ARE EACH +NZ OR +0 AND C(A)=-0, SHORTMP WRONGLY GIVES +0.
003568:                                                                                                  #  IF MPAC, +1 ARE EACH -NZ OR -0 AND C(A)=+0, SHORTMP WRONGLY GIVES +0.
003569:                                                                                                  #  PRSHRTMP FIXES FIRST CASE ONLY, BY MERELY TESTING C(A) AND IF IT = -0,
003570:                                                                                                  #  SETTING RESULT TO -0.
003571:                                                                                                  #   (DO NOT USE PRSHRTMP UNLESS MPAC, +1 ARE EACH +NZ OR +0, AS THEY ARE
003572:                                                                                                  #   WHEN THEY CONTAIN TH E SF CONSTANTS.)
003573:
003574:    4415           54135        PRSHRTMP           TS       MPTEMP
003575:    4416           10000                           CCS      A
003576:    4417           30135                           CA       MPTEMP                                #  C(A) +, DO REGULAR SHORTMP
003577:    4420           17313                           TCF      SHORTMP    +1                         #  C(A) +0, DO REGULAR SHORTMP
003578:    4421           14417                           TCF      -2                                    #  C(A) -, DO REGULAR SHORTMP
003579:    4422           44755                           CS       ZERO                                  #  C(A) -0, FORCE RESULT TO -0 AND RETURN.
003580:    4423           54154                           TS       MPAC
003581:    4424           54155                           TS       MPAC       +1
003582:    4425           54156                           TS       MPAC       +2
003583:    4426           00002                           TC       Q
003584:
003585:
003586:    4427           34746        FLASHON            CAF      BIT6                                  #  TURN ON V/N FLASH
003587:    4430           00006                           EXTEND                                         #  BIT 6 OF CHANNEL 11
003588:    4431           05011                           WOR      DSALMOUT
003589:    4432           00002                           TC       Q
003590:
003591:
003592:    4433           44746        FLASHOFF           CS       BIT6                                  #  TURN OFF V/N FLASH
003593:    4434           00006                           EXTEND
003594:    4435           03011                           WAND     DSALMOUT                              #  BIT 6 OF CHANNEL 11
003595:    4436           00002                           TC       Q
003596:


003598:                                                                                                  #  INTERNAL USE OF KEYBOARD AND DISPLAY PROGRAM
003599:
003600:                                                                                                  #  USER MUST SCHEDULE CALLS TO NVSUB SO THAT THERE IS NO CONFLICT OF USE OR
003601:                                                                                                  #  CONFUSION TO OPERATOR. THE OLD GRABLOCK (INTERNAL/INTERNAL INTERLOCK)
003602:                                                                                                  #  HAS BEEN REMOVED AND THE INTERNAL USER NO LONGER HAS THE PROTECTION THIS
003603:                                                                                                  #  OFFERED.
003604:
003605:                                                                                                  #  THERE ARE TWO WAYS A JOB CAN BE PUT TO SLEEP BY THE KEYBOARD + DISPLAY
003606:                                                                                                  #  PROGRAM.    1) BY ENDIDLE
003607:                                                                                                  #              2) BY NVSUBUSY
003608:                                                                                                  #  THE BASIC CONVENTION IS THAT ONLY ONE JOB WILL BE PERMITTED ASLEEP VIA
003609:                                                                                                  #  THE KEYBOARD + DISPLAY PROGRAM AT A TIME. IF A JOB ATTEMPTS TO GO TO
003610:                                                                                                  #  SLEEP BY MEANS OF (1) OR (2) AND THERE IS ALREADY A JOB ASLEEP THAT WAS
003611:                                                                                                  #  PUT TO SLEEP BY (1) OR (2), THEN AN ABORT IS CAUSED.
003612:
003613:
003614:                                                                                                  #  THE CALLING SEQUENCE FOR NVSUB IS
003615:                                                                                                  #           CAF    V/N
003616:                                                                                                  #  L        TC     NVSUB
003617:                                                                                                  #  L+1      RETURN HERE IF OPERATOR HAS INTERVENED
003618:                                                                                                  #  L+2      RETURN HERE AFTER EXECUTION
003619:
003620:
003621:                                                                                                  #        A ROUTINE CALLED  NVSUBUSY IS PROVIDED (USE IS OPTIONAL)  TO PUT
003622:                                                                                                  #  YOUR JOB TO SLEEP UNTIL THE OPERATOR RELEASES THE KEYBOARD + DISPLAY
003623:                                                                                                  #  SYSTEM. NVSUBUSY ALSO TURNS ON THE KEY RELEASE LIGHT.
003624:                                                                                                  #  NVSUBUSY CANNOT BE CALLED FROM ERASABLE OR F/F MEMORY,
003625:                                                                                                  #  SINCE JOBSLEEP AND JOBWAKE CAN HANDLE ONLY FIXED BANKS.
003626:
003627:
003628:                                                                                                  #         THE CALLING SEQUENCE IS
003629:                                                                                                  #           CAF    WAKEFCADR
003630:                                                                                                  #           TC     NVSUBUSY
003631:
003632:
003633:                                                                                                  #  .
003634:
003635:
003636:                                                                                                  #  NVSUBUSY IS INTENDED FOR USE WHEN AN INTERNAL PROGRAM FINDS THE OPERATOR
003637:                                                                                                  #  IS USING THE KEYBOARD + DISPLAY PROGRAM (BY HIS OWN INITIATION). IT IS
003638:                                                                                                  #  NOT INTENDED FOR USE WHEN ONE INTERNAL PROGRAM FINDS ANOTHER INTERNAL
003639:                                                                                                  #  PROGRAM USING THE KEYBOARD + DISPLAY PROGRAM.
003640:
003641:
003642:                                                                                                  #  NVSUBUSY ABORTS (WITH CODE 01206) IF A SECOND JOB ATTEMPTS TO GO TO
003643:                                                                                                  #  SLEEP IN PINBALL. IN PARTICULAR, IF AN ATTEMPT IS MADE TO GO TO NVSUBUSY
003644:                                                                                                  #  WHEN
003645:                                                                                                  #  1) DSPLIST NOT= +0. THIS IS THE CASE WHERE THE CAPACITY OF THE DSPLIST
003646:                                                                                                  #     IS EXCEEDED.
003647:                                                                                                  #  2) CADRSTOR NOT= +0. THIS INDICATES THAT A JOB IS ALREADY USING


003649:                                                                                                  #  ENDIDLE. (+-NZ INDICATE A JOB IS ALREADY ASLEEP DUE TO ENDIDLE.)
003650:
003651:    4437           44444        PRENVBSY           CS       2K+3                                  #  SPECIAL ENTRANCE FOR ROUTINES IN FIXED
003652:    4440           60002                           AD       Q                                     #  BANKS ONLY DESIRING THE FCADR OF(LOC
003653:    4441           60004                           AD       FBANK                                 #  FROM WHICH THE TC PRENVBSY WAS DONE) -2
003654:    4442           04635        NVSUBUSY           TC       POSTJUMP                              #  TO BE ENTERED.
003655:    4443           10641                           CADR     NVSUBSY1
003656:    4444           02003        2K+3               OCT      2003
003657:
003658:                                                                                                  #  NVSUBSY1 MUST BE IN BANK 27 OR LOWER, SO IT WILL PUT CALLER TO SLEEP
003659:                                                                                                  #  WITH HIS PROPER SUPERBITS.
003660:
003661: 04,2641                                           SETLOC   ENDSPMM    +1
003662: 04,2641                                           COUNT*   $$/PIN
003663: 04,2641           54001        NVSUBSY1           TS       L
003664: 04,2642           04220                           TC       ISCADR+0                              #  ABORT IF CADRSTOR NOT= +0.
003665: 04,2643           04224                           TC       ISLIST+0                              #  ABORT IF DSPLIST NOT= +0.
003666: 04,2644           04374                           TC       RELDSPON
003667: 04,2645           30001                           CA       L
003668: 04,2646           55042                           TS       DSPLIST
003669: 04,2647           05133        ENDNVBSY           TC       JOBSLEEP
003670:
003671:
003672:                                                                                                  #  NVSBWAIT IS A SPECIAL ENTRANCE FOR ROUTINES IN FIXED BANKS ONLY. IF
003673:                                                                                                  #  SYSTEM IS NOT BUSY, IT EXECUTES V/N AND RETURNS TO L+1 (L= LOC FROM
003674:                                                                                                  #  WHICH THE TC NVSBWAIT WAS DONE). IF SYSTEM IS BUSY, IT PUTS CALLING JOB
003675:                                                                                                  #  TO SLEEP WITH L-1 GOING INTO LIST FOR EVENTUAL WAKING UP WHEN SYSTEM
003676:                                                                                                  #  IS NOT BUSY.
003677:
003678:    4445                                           SETLOC   NVSUBUSY   +3
003679:    4445                                           COUNT*   $$/PIN
003680:    4445           22007        NVSBWAIT           LXCH     7                                     #  ZERO NVMONOPT OPTIONS
003681:    4446           54123                           TS       NVTEMP
003682:    4447           34736                           CAF      BIT14
003683:    4450           71020                           MASK     MONSAVE1                              #  EXTERNAL MONITOR BIT
003684:    4451           61011                           AD       DSPLOCK
003685:    4452           10000                           CCS      A
003686:    4453           14455                           TCF      NVSBWT1                               #  BUSY
003687:    4454           14164                           TCF      NVSBCOM                               #  FREE. NVSUB WILL SAVE L+1 FOR RETURN
003688:                                                                                                  #  AFTER EXECUTION.
003689:    4455           24002        NVSBWT1            INCR     Q                                     #  L+2. PRENVBSY WILL PUT L-1 INTO LIST AND
003690:    4456           14437                           TCF      PRENVBSY                              #  GO TO SLEEP.
003691:
003692:
003693:                                                                                                  #  RELDSP IS USED BY VBPROC, VBTERM, VBRQEXEC, VBRQWAIT, VBRELDSP, EXTENDED
003694:                                                                                                  #  VERB DISPATCHER, VBRESEQ, RECALTST.
003695:                                                                                                  #  RELDSP1 IS USED BY MONITOR SET UP, VBRELDSP.
003696:    4457           56002        RELDSP             XCH      Q                                     #  SET DSPLOCK TO +0, TURN RELDSP LIGHT
003697:    4460           54144                           TS       RELRET                                #  OFF,  SEARCH DSPLIST
003698:    4461           44736                           CS       BIT14


003700:    4462           00004                           INHINT
003701:    4463           71020                           MASK     MONSAVE1
003702:    4464           55020                           TS       MONSAVE1                              #  TURN OFF EXTERNAL MONITOR BIT
003703:    4465           11042                           CCS      DSPLIST
003704:    4466           04470                           TC       +2
003705:    4467           04473                           TC       RELDSP2                               #  LIST EMPTY
003706:    4470           34755                           CAF      ZERO
003707:    4471           57042                           XCH      DSPLIST
003708:    4472           05137                           TC       JOBWAKE
003709:    4473           00003        RELDSP2            RELINT
003710:    4474           44747                           CS       BIT5                                  #  TURN OFF KEY RELEASE LIGHT
003711:    4475           00006                           EXTEND                                         #  (BIT 5 OF CHANNEL 11)
003712:    4476           03011                           WAND     DSALMOUT
003713:    4477           34755                           CAF      ZERO
003714:    4500           55011                           TS       DSPLOCK
003715:    4501           00144                           TC       RELRET
003716:    4502           56002        RELDSP1            XCH      Q                                     #  SET DSPLOCK TO +0. NO DSPLIST SEARCH.
003717:    4503           54144                           TS       RELRET                                #  TURN KEY RLSE LIGHT OFF IF DSPLIST IS
003718:                                                                                                  #  EMPTY. LEAVE KEY RLSE LIGHT ALONE IF
003719:                                                                                                  #  DSPLIST IS NOT EMPTY.
003720:    4504           11042                           CCS      DSPLIST
003721:    4505           04507                           TC       +2                                    #  +  NOT EMPTY. LEAVE KEY RLSE LIGHT ALONE
003722:    4506           04473                           TC       RELDSP2                               #  +0 EMPTY. TURN OFF KEY RLSE LIGHT
003723:    4507           34755                           CAF      ZERO                                  #  -  NOT EMPTY. LEAVE KEY RLSE LIGHT ALONE
003724:    4510           55011                           TS       DSPLOCK
003725:    4511           00144                           TC       RELRET
003726:
003727:
003728:    4512                        ENDPINBF           EQUALS
003729:


003731:                                                                                                  #  PINTEST IS NEEDED FOR AUTO CHECK OF PINBALL.
003732:
003733:    4512  43,2002               PINTEST            EQUALS   LST2FAN
003734:


003736:                                                                                                  #  VBTSTLTS TURNS ON ALL DISPLAY PANEL LIGHTS. AFTER 5 SEC, IT TURNS
003737:                                                                                                  #  OFF THE CAUTION AND STATUS LIGHTS.
003738:
003739: 41,3633                                           SETLOC   ENDNVSB1   +1
003740:
003741: 41,3633                                           COUNT*   $$/PIN
003742: 41,3633           00004        VBTSTLTS           INHINT
003743: 41,3634           04616                           TC       BANKCALL                              #  OPP ERR IF NOT IN POO
003744: 41,3635           66121                           CADR     CHKPOOH
003745: 41,3636           44753                           CS       BIT1                                  #  SET BIT 1 OF IMODES33 SO IMUMON WONT
003746: 41,3637           71300                           MASK     IMODES33                              #  TURN OUT ANY LAMPS.
003747: 41,3640           64753                           AD       BIT1
003748: 41,3641           55300                           TS       IMODES33
003749:
003750: 41,3642           33701                           CAF      TSTCON1                               #  TURN ON UPLINK ACTIVITY, TEMP, KEY RLSE,
003751: 41,3643           00006                           EXTEND                                         #  V/N FLASH, OPERATOR ERROR.
003752: 41,3644           05011                           WOR      DSALMOUT
003753: 41,3645           33702                           CAF      TSTCON2                               #  TURN ON NO ATT, GIMBAL LOCK, TRACKER,
003754: 41,3646           55035                           TS       DSPTAB     +11D                       #  PROG ALM.
003755: 41,3647           06022                           TC       C13STALL
003756: 41,3650           34742                           CAF      BIT10                                 #  TURN ON TEST ALARM OUTBIT
003757: 41,3651           00006                           EXTEND
003758: 41,3652           05013                           WOR      CHAN13
003759: 41,3653           34363                           CAF      TEN
003760: 41,3654           54117        TSTLTS1            TS       ERCNT
003761: 41,3655           43677                           CS       FULLDSP
003762: 41,3656           50117                           INDEX    ERCNT
003763: 41,3657           55022                           TS       DSPTAB
003764: 41,3660           10117                           CCS      ERCNT
003765: 41,3661           03654                           TC       TSTLTS1
003766: 41,3662           43700                           CS       FULLDSP1
003767: 41,3663           55023                           TS       DSPTAB     +1                         #  TURN ON 3 PLUS SIGNS
003768: 41,3664           55026                           TS       DSPTAB     +4
003769: 41,3665           55030                           TS       DSPTAB     +6
003770: 41,3666           34760                           CAF      ELEVEN
003771: 41,3667           55015                           TS       NOUT
003772: 41,3670           00003                           RELINT
003773: 41,3671           33704                           CAF      SHOLTS
003774: 41,3672           00004                           INHINT
003775: 41,3673           05214                           TC       WAITLIST
003776: 41,3674     1022                                  EBANK=   DSPTAB
003777: 41,3674           03705 62102                     2CADR    TSTLTS2
003778:
003779: 41,3676           05155                           TC       ENDOFJOB                              #  DSPLOCK IS LEFT BUSY (FROM KEYBOARD
003780:                                                                                                  #  ACTION) UNTIL TSTLTS3 TO INSURE THAT
003781:                                                                                                  #  LIGHTS TEST WILL BE SEEN.
003782:
003783:
003784: 41,3677           05675        FULLDSP            OCT      05675                                 #  DISPLAY ALL 8:S
003785: 41,3700           07675        FULLDSP1           OCT      07675                                 #  DISPLAY ALL 8:S AND +
003786:


003788: 41,3701           00175        TSTCON1            OCT      00175
003789:                                                                                                  #  UPLINK ACTIVITY, TEMP, KEY RLSE,
003790:                                                                                                  #  V/N FLASH, OPERATOR ERROR.
003791: 41,3702           40674        TSTCON2            OCT      40674                                 #  DSPTAB+11D BITS 3,4,5,6,8,9. LR LITES,
003792:                                                                                                  #  NO ATT, GIMBAL LOCK, TRACKER, PROG ALM.
003793: 41,3703           00115        TSTCON3            OCT      0115                                  #  CHAN 11  BITS 1, 3, 4, 7.
003794:                                                                                                  #  UPLINK ACTIVITY, TEMP, OPERATOR ERROR.
003795: 41,3704           00764        SHOLTS             OCT      764                                   #  5 SEC
003796:
003797:
003798: 41,3705           34355        TSTLTS2            CAF      CHRPRIO                               #  CALLED BY WAITLIST
003799: 41,3706           05072                           TC       NOVAC
003800: 41,3707     1022                                  EBANK=   DSPTAB
003801: 41,3707           03712 62102                     2CADR    TSTLTS3
003802:
003803: 41,3711           05272                           TC       TASKOVER
003804:
003805:
003806: 41,3712           43703        TSTLTS3            CS       TSTCON3                               #  CALLED BY EXECUTIVE
003807: 41,3713           00004                           INHINT
003808: 41,3714           00006                           EXTEND                                         #  TURN OFF  UPLINK ACTIVITY, TEMP,
003809: 41,3715           03011                           WAND     DSALMOUT                              #  OPERATOR ERROR.
003810: 41,3716           06022                           TC       C13STALL
003811: 41,3717           44742                           CS       BIT10                                 #  TURN OFF TEST ALARM OUTBIT
003812: 41,3720           00006                           EXTEND
003813: 41,3721           03013                           WAND     CHAN13
003814: 41,3722           34750                           CAF      BIT4                                  #  MAKE NO ATT FOLLOW BIT 4 OF CHANNEL 12
003815: 41,3723           00006                           EXTEND                                         #    (NO ATT LIGHT ON IF IN COARSE ALIGN)
003816: 41,3724           02012                           RAND     CHAN12
003817: 41,3725           64735                           AD       BIT15                                 #  TURN OFF AUTO, HOLD, FREE, SPARE,
003818: 41,3726           55035                           TS       DSPTAB     +11D                       #  GIMBAL LOCK, SPARE, TRACKER, PROG ALM
003819: 41,3727           43752                           CS       13-11,1                               #  SET BITS TO INDICATE ALL LAMPS OUT. TEST
003820: 41,3730           71300                           MASK     IMODES33                              #  LIGHTS COMPLETE.
003821: 41,3731           65026                           AD       PRIO16
003822: 41,3732           55300                           TS       IMODES33
003823:
003824: 41,3733           43754                           CS       OCT55000
003825: 41,3734           71277                           MASK     IMODES30
003826: 41,3735           65025                           AD       PRIO15                                #  15000.
003827: 41,3736           55277                           TS       IMODES30
003828:
003829: 41,3737           43753                           CS       RFAILS2
003830: 41,3740           70110                           MASK     RADMODES
003831: 41,3741           64745                           AD       RCDUFBIT
003832: 41,3742           54110                           TS       RADMODES
003833:
003834: 41,3743           00003                           RELINT
003835:
003836: 41,3744           04616                           TC       BANKCALL                              #  REDISPLAY C(MODREG)
003837: 41,3745           10630                           CADR     DSPMM


003839: 41,3746           04204                           TC       KILMONON                              #  TURN ON KILL MONITOR BIT.
003840: 41,3747           04433                           TC       FLASHOFF                              #  TURN OFF V/N FLASH.
003841: 41,3750           04635                           TC       POSTJUMP                              #  DOES RELDSP AND GOES TO PINBRNCH IF
003842: 41,3751           61543                           CADR     TSTLTS4                               #   ENDIDLE IS AWAITING OPERATOR RESPONSE.
003843: 41,3752           16001        13-11,1            OCT      16001
003844: 41,3753           00330        RFAILS2            OCT      330                                   #  RADAR CDU AND DATA FAIL FLAGS.
003845: 41,3754           55000        OCT55000           OCT      55000
003846: 41,3755                        ENDPINS2           EQUALS
003847:


003849:                                                                                                  #  ERROR LIGHT RESET (RSET) TURNS OFF,
003850:                                                                                                  #  UPLINK ACTIVITY, AUTO, HOLD, FREE, OPERATOR ERROR,
003851:                                                                                                  #  PROG ALM, TRACKER FAIL.
003852:                                                                                                  #  LEAVES GIMBAL LOCK AND NO ATT ALONE.
003853:                                                                                                  #  IT ALSO ZEROES THE :TEST ALARM: OUT BIT, WHICH TURNS OFF STBY,RESTART.
003854:                                                                                                  #  IT ALSO SETS :CAUTION RESET: TO 1.
003855:                                                                                                  #  IT ALSO FORCES BIT 12 OF ALL DSPTAB ENTRIES TO 1.
003856:
003857: 40,3655                                           SETLOC   DOPROC     +2
003858: 40,3655                                           COUNT*   $$/PIN
003859: 40,3655           56115        ERROR              XCH      21/22REG                              #  RESTORE ORIGINAL C(DSPLOCK). THUS ERROR
003860: 40,3656           55011                           TS       DSPLOCK                               #  LIGHT RESET LEAVES DSPLOCK UNCHANGED.
003861: 40,3657           00004                           INHINT
003862: 40,3660           34742                           CAF      BIT10                                 #  TURN ON :CAUTION RESET: OUTBIT
003863: 40,3661           00006                           EXTEND
003864: 40,3662           05011                           WOR      DSALMOUT                              #  BIT10 CHAN 11
003865: 40,3663           33744                           CAF      GL+NOATT                              #  LEAVE GIMBAL LOCK, NO ATT INTACT,
003866: 40,3664           71035                           MASK     DSPTAB     +11D                       #  TURNING OFF AUTO, HOLD, FREE,
003867: 40,3665           64735                           AD       BIT15                                 #  PROG ALARM, AND TRACKER.
003868: 40,3666           55035                           TS       DSPTAB     +11D
003869: 40,3667           45026                           CS       PRIO16                                #  RESET FAIL BITS WHICH GENERATE PROG
003870: 40,3670           71300                           MASK     IMODES33                              #  ALARM SO THAT IF THE FAILURE STILL
003871: 40,3671           65026                           AD       PRIO16                                #  EXISTS, THE ALARM WILL COME BACK.
003872: 40,3672           55300                           TS       IMODES33
003873: 40,3673           44742                           CS       BIT10
003874: 40,3674           71277                           MASK     IMODES30
003875: 40,3675           64742                           AD       BIT10
003876: 40,3676           55277                           TS       IMODES30
003877:
003878: 40,3677           43743                           CS       RFAILS
003879: 40,3700           70110                           MASK     RADMODES
003880: 40,3701           64745                           AD       RCDUFBIT
003881: 40,3702           54110                           TS       RADMODES
003882:
003883: 40,3703           06022                           TC       C13STALL
003884: 40,3704           44742                           CS       BIT10                                 #  TURN OFF :TEST ALARM: OUTBIT.
003885: 40,3705           00006                           EXTEND
003886: 40,3706           03013                           WAND     CHAN13
003887: 40,3707           43742                           CS       ERCON                                 #  TURN OFF UPLINK ACTIVITY,
003888: 40,3710           00006                           EXTEND                                         #  OPERATOR ERROR.
003889: 40,3711           03011                           WAND     DSALMOUT
003890: 40,3712           34363        TSTAB              CAF      BINCON                                #  (DEC 10)
003891: 40,3713           54117                           TS       ERCNT                                 #  ERCNT = COUNT
003892: 40,3714           00004                           INHINT
003893: 40,3715           50117                           INDEX    ERCNT
003894: 40,3716           11022                           CCS      DSPTAB
003895: 40,3717           64753                           AD       ONE
003896: 40,3720           03725                           TC       ERPLUS
003897: 40,3721           64753                           AD       ONE
003898: 40,3722           40000        ERMINUS            CS       A


003900: 40,3723           73745                           MASK     NOTBIT12
003901: 40,3724           03730                           TC       ERCOM
003902: 40,3725           40000        ERPLUS             CS       A
003903: 40,3726           73745                           MASK     NOTBIT12
003904: 40,3727           40000                           CS       A                                     #  MIGHT WANT TO RESET CLPASS, DECBRNCH,
003905: 40,3730           50117        ERCOM              INDEX    ERCNT                                 #  ETC.
003906: 40,3731           55022                           TS       DSPTAB
003907: 40,3732           00003                           RELINT
003908: 40,3733           10117                           CCS      ERCNT
003909: 40,3734           03713                           TC       TSTAB      +1
003910: 40,3735           34755                           CAF      ZERO
003911: 40,3736           54375                           TS       FAILREG
003912: 40,3737           54376                           TS       FAILREG    +1
003913: 40,3740           55357                           TS       SFAIL
003914: 40,3741           05155                           TC       ENDOFJOB
003915:
003916: 40,3742           00104        ERCON              OCT      104                                   #  CHAN 11 BITS 3,7.
003917:                                                                                                  #  UPLINK ACTIVITY, AND OPERATOR ERROR.
003918: 40,3743           00330        RFAILS             OCT      330                                   #  RADAR CDU AND DATA FAIL FLAGS.
003919: 40,3744           00050        GL+NOATT           OCT      00050                                 #  NO ATT AND GIMBAL LOCK LAMPS
003920: 40,3745           73777        NOTBIT12           OCT      73777
003921:
003922:
003923: 40,3746                        ENDPINS1           EQUALS
003924:
003925:
003926: 40,3746  30,2000                                  SBANK=   LOWSUPER

End of include-file PINBALL_GAME__BUTTONS_AND_LIGHTS.agc.  Parent file is MAIN.agc


