
Source Code


000002:                                                                                                  ## Copyright:   Public domain.
000003:                                                                                                  ## Filename:    PLANETARY_INERTIAL_ORIENTATION.agc
000004:                                                                                                  ## Purpose:     A section of Luminary revision 163.
000005:                                                                                                  ##              It is part of the reconstructed source code for the first
000006:                                                                                                  ##              (unflown) release of the flight software for the Lunar
000007:                                                                                                  ##              Module's (LM) Apollo Guidance Computer (AGC) for Apollo 14.
000008:                                                                                                  ##              The code has been recreated from a reconstructed copy of
000009:                                                                                                  ##              Luminary 173, as well as Luminary memos 157 amd 158.
000010:                                                                                                  ##              It has been adapted such that the resulting bugger words
000011:                                                                                                  ##              exactly match those specified for Luminary 163 in NASA
000012:                                                                                                  ##              drawing 2021152N, which gives relatively high confidence
000013:                                                                                                  ##              that the reconstruction is correct.
000014:                                                                                                  ## Reference:   pp. 1131-1139
000015:                                                                                                  ## Assembler:   yaYUL
000016:                                                                                                  ## Contact:     Ron Burkey <info@sandroid.org>.
000017:                                                                                                  ## Website:     www.ibiblio.org/apollo/index.html
000018:                                                                                                  ## Mod history: 2019-08-21 MAS  Created from Luminary 173.
000019:


000021:                                                                                                  #  ..... RP-TO-R SUBROUTINE .....
000022:                                                                                                  #  SUBROUTINE TO CONVERT RP (VECTOR IN PLANETARY COORDINATE SYSTEM,EITHER
000023:                                                                                                  #   EARTH-FIXED OR MOON-FIXED) TO R (SAME VECTOR IN THE BASIC REF. SYSTEM)
000024:
000025:                                                                                                  #   R=MT(T)*(RP+LPXRP)    MT = M MATRIX TRANSPOSE
000026:
000027:                                                                                                  #  CALLING SEQUENCE
000028:                                                                                                  #   L       CALL
000029:                                                                                                  #   L+1            RP-TO-R
000030:
000031:                                                                                                  #  SUBROUTINES USED
000032:                                                                                                  #   EARTHMX,MOONMX,EARTHL
000033:
000034:                                                                                                  #     ITEMS AVAILABLE FROM LAUNCH DATA
000035:                                                                                                  #      504LM= THE LIBRATION VECTOR L OF THE MOON AT TIME TIMSUBL,EXPRESSED
000036:                                                                                                  #      IN THE MOON-FIXED COORD. SYSTEM   RADIANS  B0
000037:                                                                                                  #        ITEMS NECESSARY FOR SUBR. USED (SEE DESCRIPTION OF SUBR.)
000038:
000039:                                                                                                  #  INPUT
000040:                                                                                                  #   MPAC= 0 FOR EARTH,NON-ZERO FOR MOON
000041:                                                                                                  #   0-5D= RP VECTOR
000042:                                                                                                  #   6-7D= TIME
000043:
000044:                                                                                                  #  OUTPUT
000045:                                                                                                  #   MPAC= R VECTOR METERS B-29 FOR EARTH, B-27 FOR MOON
000046:
000047: 26,2000                                           SETLOC   PLANTIN1
000048: 26,2000                                           BANK
000049:
000050: 26,3720                                           COUNT*   $$/LUROT
000051:
000052: 26,3720           46020        RP-TO-R            STQ      BHIZ
000053: 26,3721           00050                                    RPREXIT
000054: 26,3722           55735                                    RPTORA
000055: 26,3723           77624                           CALL                                           #  COMPUTE M MATRIX FOR MOON
000056: 26,3724           51662                                    MOONMX                                #  LP=LM FOR MOON  RADIANS B0
000057: 26,3725           77775                           VLOAD
000058: 26,3726           02013                                    504LM
000059: 26,3727           53235        RPTORB             VXV      VAD
000060: 26,3730           00001                                    504RPR
000061: 26,3731           00001                                    504RPR
000062: 26,3732           52105                           VXM      GOTO
000063: 26,3733           00025                                    MMATRIX                               #  MPAC=R=MT(T)*(RP+LPXRP)
000064: 26,3734           51650                                    RPRPXXXX                              #  RESET PUSHLOC TO 0 BEFORE EXITING
000065: 26,3735           77624        RPTORA             CALL                                           #  EARTH COMPUTATIONS
000066: 26,3736           55745                                    EARTHMX                               #  M MATRIX B-1
000067: 26,3737           77624                           CALL
000068: 26,3740           15761                                    EARTHL                                #  L VECTOR RADIANS B0
000069: 26,3741           76521                           MXV      VSL1                                  #  LP=M(T)*L  RAD B-0
000070: 26,3742           00025                                    MMATRIX


000072: 26,3743           77650                           GOTO
000073: 26,3744           55727                                    RPTORB
000074: 24,2000                                           SETLOC   PLANTIN
000075: 24,2000                                           BANK
000076: 24,3632                                           COUNT*   $$/LUROT
000077:


000079:                                                                                                  #  ..... R-TO-RP SUBROUTINE .....
000080:                                                                                                  #  SUBROUTINE TO CONVERT R (VECTOR IN REFERENCE COORD. SYSTEM) TO RP
000081:                                                                                                  #   (VECTOR IN PLANETARY COORD SYSTEM) EITHER EARTH-FIXED OR MOON-FIXED
000082:
000083:                                                                                                  #   RP=M(T)*(R-LXR)
000084:
000085:                                                                                                  #  CALLING SEQUENCE
000086:                                                                                                  #   L       CALL
000087:                                                                                                  #   L+1            R-TO-RP
000088:
000089:                                                                                                  #  SUBROUTINES USED
000090:                                                                                                  #   EARTHMX,MOONMX,EARTHL
000091:
000092:                                                                                                  #  INPUT
000093:                                                                                                  #   MPAC= 0 FOR EARTH,NON-ZERO FOR MOON
000094:                                                                                                  #   0-5D= R VECTOR
000095:                                                                                                  #   6-7D= TIME
000096:
000097:                                                                                                  #     ITEMS AVAILABLE FROM LAUNCH DATA
000098:                                                                                                  #      504LM= THE LIBRATION VECTOR L OF THE MOON AT TIME TIMSUBL,EXPRESSED
000099:                                                                                                  #      IN THE MOON-FIXED COORD. SYSTEM   RADIANS B0
000100:                                                                                                  #        ITEMS NECESSARY FOR SUBROUTINES USED (SEE DESCRIPTION OF SUBR.)
000101:
000102:                                                                                                  #  OUTPUT
000103:                                                                                                  #   MPAC=RP VECTOR METERS B-29 FOR EARTH, B-27 FOR MOON
000104:
000105: 24,3632           46020        R-TO-RP            STQ      BHIZ
000106: 24,3633           00050                                    RPREXIT
000107: 24,3634           51654                                    RTORPA
000108: 24,3635           77624                           CALL
000109: 24,3636           51662                                    MOONMX
000110: 24,3637           61375                           VLOAD    VXM
000111: 24,3640           02013                                    504LM                                 #  LP=LM
000112: 24,3641           00025                                    MMATRIX
000113: 24,3642           77772                           VSL1                                           #   L=MT(T)*LP  RADIANS B0
000114: 24,3643           51235        RTORPB             VXV      BVSU
000115: 24,3644           00001                                    504RPR
000116: 24,3645           00001                                    504RPR
000117: 24,3646           77721                           MXV                                            #  M(T)*(R-LXR) B-2
000118: 24,3647           00025                                    MMATRIX
000119: 24,3650           40372        RPRPXXXX           VSL1     SETPD
000120: 24,3651           00001                                    0D
000121: 24,3652           77650                           GOTO
000122: 24,3653           00050                                    RPREXIT
000123: 24,3654           77624        RTORPA             CALL                                           #  EARTH COMPUTATIONS
000124: 24,3655           55745                                    EARTHMX
000125: 24,3656           77624                           CALL
000126: 24,3657           15761                                    EARTHL
000127: 24,3660           77650                           GOTO                                           #  MPAC=L=(-AX,-AY,0) RAD B-0
000128: 24,3661           51643                                    RTORPB
000129:


000131:                                                                                                  #  ..... MOONMX SUBROUTINE .....
000132:                                                                                                  #  SUBROUTINE TO COMPUTE THE TRANSFORMATION MATRIX M FOR THE MOON
000133:
000134:                                                                                                  #  CALLING SEQUENCE
000135:                                                                                                  #   L       CALL
000136:                                                                                                  #   L+1            MOONMX
000137:
000138:                                                                                                  #  SUBROUTINES USED
000139:                                                                                                  #   NEWANGLE
000140:
000141:                                                                                                  #  INPUT
000142:                                                                                                  #   6-7D= TIME
000143:                                                                                                  #     ITEMS AVAILABLE FROM LAUNCH DATA
000144:                                                                                                  #      BSUBO,BDOT
000145:                                                                                                  #      TIMSUBO,NODIO,NODDOT,FSUBO,FDOT
000146:                                                                                                  #      COSI= COS(I) B-1
000147:                                                                                                  #      SINI= SIN(I) B-1
000148:                                                                                                  #        I  IS THE ANGLE BETWEEN THE MEAN LUNAR EQUATORIAL PLANE AND THE
000149:                                                                                                  #        PLANE OF THE ECLIPTIC  (1 DEGREE  32.1 MINUTES)
000150:
000151:                                                                                                  #  OUTPUT
000152:                                                                                                  #   MMATRIX= 3X3 M MATRIX B-1   (STORED IN VAC AREA)
000153:
000154: 24,3662           40220        MOONMX             STQ      SETPD
000155: 24,3663           00051                                    EARTHMXX
000156: 24,3664           00011                                    8D
000157: 24,3665           77770                           AXT,1                                          #  B REQUIRES SL 0, SL 5 IN NEWANGLE
000158: 24,3666           00005                                    5
000159: 24,3667           65345                           DLOAD    PDDL                                  #  PD 10D            8-9D=BSUBO
000160: 24,3670           14017                                    BSUBO                                 #                    10-11D= BDOT
000161: 24,3671           14011                                    BDOT
000162: 24,3672           45006                           PUSH     CALL                                  #  PD 12D
000163: 24,3673           51731                                    NEWANGLE                              #  EXIT WITH PD 8D AND MPAC= B  REVS B0
000164: 24,3674           71406                           PUSH     COS                                   #  PD 10D
000165: 24,3675           14041                           STODL    COB                                   #  PD 8D    COS(B) B-1
000166: 24,3676           77756                           SIN                                            #           SIN(B) B-1
000167: 24,3677           14043                           STODL    SOB                                   #            SETUP INPUT FOR NEWANGLE
000168: 24,3700           14015                                    FSUBO                                 #                      8-9D=FSUBO
000169: 24,3701           41525                           PDDL     PUSH                                  #  PD 10D THEN 12D   10-11D=FDOT
000170: 24,3702           14007                                    FDOT
000171: 24,3703           45170                           AXT,1    CALL                                  #  F REQUIRES SL 1, SL 6 IN NEWANGLE
000172: 24,3704           00004                                    4
000173: 24,3705           51731                                    NEWANGLE                              #  EXIT WITH PD 8D AND MPAC= F REVS B0
000174: 24,3706           14027                           STODL    AVECTR     +2                         #  SAVE F TEMP
000175: 24,3707           14013                                    NODIO                                 #                      8-9D=NODIO
000176: 24,3710           41525                           PDDL     PUSH                                  #  PD 10D THEN 12D   10-11D=NODDOT
000177: 24,3711           14005                                    NODDOT                                #                      MPAC=T
000178: 24,3712           45170                           AXT,1    CALL                                  #  NODE REQUIRES SL 0, SL 5 IN NEWANGLE
000179: 24,3713           00005                                    5
000180: 24,3714           51731                                    NEWANGLE                              #  EXIT WITH PD 8D AND MPAC= NODI REVS B0


000182: 24,3715           71406                           PUSH     COS                                   #  PD 10D   8-9D= NODI  REVS  B0
000183: 24,3716           77606                           PUSH                                           #  PD 12D 10-11D= COS(NODI)  B-1
000184: 24,3717           00025                           STORE    AVECTR
000185: 24,3720           76405                           DMP      SL1R
000186: 24,3721           00041                                    COB                                   #                          COS(NODI)    B-1
000187: 24,3722           14035                           STODL    BVECTR     +2                         #  PD 10D   20-25D=AVECTR= COB*SIN(NODI)
000188: 24,3723           76405                           DMP      SL1R                                  #                          SOB*SIN(NODI)
000189: 24,3724           00043                                    SOB
000190: 24,3725           14037                           STODL    BVECTR     +4                         #  PD 8D
000191: 24,3726           41556                           SIN      PUSH                                  #  PD 10D                 -SIN(NODI)   B-1
000192: 24,3727           52076                           DCOMP    GOTO                                  #           26-31D=BVECTR= COV*COS(NODI)
000193: 24,3730           53715                                    MOONMXA
000194: 25,3715                                           BANK     25
000195: 25,2000                                           SETLOC   PLANTIN3
000196: 25,2000                                           BANK
000197: 25,3715                                           COUNT*   $$/LUROT
000198:
000199: 25,3715           14033        MOONMXA            STODL    BVECTR                                #  PD 8D                    SOB*COS(NODI)
000200: 25,3716           00027                                    AVECTR     +2                         #  MOVE F FROM TEMP LOC. TO 504F
000201: 25,3717           14007                           STODL    504F
000202: 25,3720           76405                           DMP      SL1R
000203: 25,3721           00041                                    COB
000204: 25,3722           14027                           STODL    AVECTR     +2
000205: 25,3723           00011                                    SINNODI                               #  8-9D=SIN(NODI)  B-1
000206: 25,3724           76405                           DMP      SL1R
000207: 25,3725           00043                                    SOB
000208: 25,3726           14031                           STODL    AVECTR     +4                         #                           0
000209: 25,3727           06520                                    HI6ZEROS                              #          8-13D= CVECTR= -SOB  B-1
000210: 25,3730           57525                           PDDL     DCOMP                                 #  PD 10D                  COB
000211: 25,3731           00043                                    SOB
000212: 25,3732           63325                           PDDL     PDVL                                  #  PD 12D THEN PD 14D
000213: 25,3733           00041                                    COB
000214: 25,3734           00033                                    BVECTR
000215: 25,3735           63361                           VXSC     PDVL                                  #  PD 20D         BVECTR*SINI  B-2
000216: 25,3736           14003                                    SINI
000217: 25,3737           00011                                    CVECTR
000218: 25,3740           53361                           VXSC     VAD                                   #  PD 14D         CVECTR*COSI  B-2
000219: 25,3741           14001                                    COSI
000220: 25,3742           77772                           VSL1
000221: 25,3743           24041                           STOVL    MMATRIX    +12D                       #  PD 8D  M2=BVECTR*SINI+CVECTR*COSI  B-1
000222: 25,3744           63361                           VXSC     PDVL                                  #  PD 14D
000223: 25,3745           14003                                    SINI                                  #                 CVECTR*SINI  B-2
000224: 25,3746           00033                                    BVECTR
000225: 25,3747           52361                           VXSC     VSU                                   #  PD 8D          BVECTR*COSI  B-2
000226: 25,3750           14001                                    COSI
000227: 25,3751           65372                           VSL1     PDDL                                  #  PD 14D
000228: 25,3752           00007                                    504F                                  #  8-13D=DVECTR=BVECTR*COSI-CVECTR*SINI B-1
000229: 25,3753           74346                           COS      VXSC
000230: 25,3754           00011                                    DVECTR
000231: 25,3755           73525                           PDDL     SIN                                   #  PD 20D  14-19D= DVECTR*COSF  B-2


000233: 25,3756           00007                                    504F
000234: 25,3757           52361                           VXSC     VSU                                   #  PD 14D          AVECTR*SINF  B-2
000235: 25,3760           00025                                    AVECTR
000236: 25,3761           77772                           VSL1
000237: 25,3762           14033                           STODL    MMATRIX    +6                         #  M1= AVECTR*SINF-DVECTR*COSF  B-1
000238: 25,3763           00007                                    504F
000239: 25,3764           74356                           SIN      VXSC                                  #  PD 8D
000240: 25,3765           71525                           PDDL     COS                                   #  PD 14D  8-13D=DVECTR*SINF B-2
000241: 25,3766           00007                                    504F
000242: 25,3767           53361                           VXSC     VAD                                   #  PD 8D         AVECTR*COSF B-2
000243: 25,3770           00025                                    AVECTR
000244: 25,3771           57572                           VSL1     VCOMP
000245: 25,3772           34025                           STCALL   MMATRIX                               #  M0= -(AVECTR*COSF+DVECTR*SINF)  B-1
000246: 25,3773           00051                                    EARTHMXX
000247:                                                                                                  #  COMPUTE X=X0+(XDOT)(T+T0)
000248:                                                                                                  #  8-9D= XO (REVS B-0),PUSHLOC SET AT 12D
000249:                                                                                                  #  10-11D=XDOT (REVS/CSEC) SCALED B+23 FOR WEARTH,B+28 FOR NODDOT AND BDOT
000250:                                                                                                  #                          AND B+27 FOR FDOT
000251:                                                                                                  #   X1=DIFFERENCE IN 23 AND SCALING OF XDOT,=0 FOR WEARTH,5 FOR NODDOT AND
000252:                                                                                                  #                                           BDOT AND 4 FOR FDOT
000253:                                                                                                  #  6-7D=T (CSEC B-28), TIMSUBO= (CSEC B-42 TRIPLE PREC.)
000254:
000255: 24,3731                                           BANK     24
000256: 24,2000                                           SETLOC   PLANTIN
000257: 24,2000                                           BANK
000258:
000259: 24,3731           54345        NEWANGLE           DLOAD    SR                                    #  ENTER PD 12D
000260: 24,3732           00007                                    6D
000261: 24,3733           20617                                    14D
000262: 24,3734           72371                           TAD      TLOAD                                 #  CHANGE MODE TO TP
000263: 24,3735           01707                                    TIMSUBO
000264: 24,3736           00155                                    MPAC
000265: 24,3737           14017                           STODL    TIMSUBM                               #  T+T0 CSEC B-42
000266: 24,3740           00020                                    TIMSUBM    +1
000267: 24,3741           77605                           DMP                                            #  PD 10D  MULT BY XDOT IN 10-11D
000268: 24,3742           43257                           SL*      DAD                                   #  PD 8D   ADD XO IN 8-9D AFTER SHIFTING
000269: 24,3743           20206                                    5,1                                   #          SUCH THAT SCALING IS B-0
000270: 24,3744           67206                           PUSH     SLOAD                                 #  PD 10D SAVE PARTIAL (X0+XDOT*T) IN 8-9D
000271: 24,3745           00017                                    TIMSUBM
000272: 24,3746           41261                           SL       DMP
000273: 24,3747           20212                                    9D
000274: 24,3750           00013                                    10D                                   #  XDOT
000275: 24,3751           43257                           SL*      DAD                                   #  PD 8D   SHIFT SUCH THAT THIS PART OF X
000276: 24,3752           20213                                    10D,1                                 #          IS SCALED REVS/CSEC B-0
000277: 24,3753           77600                           BOV                                            #  TURN OFF OVERFLOW IF SET BY SHIFT
000278: 24,3754           51755                                    +1                                    #  INSTRUCTION BEFORE EXITING
000279: 24,3755           77616                           RVQ                                            #  MPAC=X= X0+(XDOT)(T+T0)  REVS B0
000280:


000282:                                                                                                  #  ..... EARTHMX SUBROUTINE .....
000283:                                                                                                  #  SUBROUTINE TO COMPUTE THE TRANSFORMATION MATRIX M FOR THE EARTH
000284:
000285:                                                                                                  #  CALLING SEQUENCE
000286:                                                                                                  #   L       CALL
000287:                                                                                                  #   L+1            EARTHMX
000288:
000289:                                                                                                  #  SUBROUTINES USED
000290:                                                                                                  #   NEWANGLE
000291:
000292:                                                                                                  #  INPUT
000293:                                                                                                  #     INPUT AVAILABLE FROM LAUNCH DATA     AZO  REVS B-0
000294:                                                                                                  #                                          TEPHEM  CSEC B-42
000295:                                                                                                  #   6-7D= TIME CSEC B-28
000296:
000297:                                                                                                  #  OUTPUT
000298:                                                                                                  #   MMATRIX= 3X3 M MATRIX B-1   (STORED IN VAC AREA)
000299:
000300: 26,3745                                           BANK     26
000301: 26,2000                                           SETLOC   PLANTIN1
000302: 26,2000                                           BANK
000303: 26,3745                                           COUNT*   $$/LUROT
000304:
000305: 26,3745           40220        EARTHMX            STQ      SETPD                                 #  SET   8-9D=AZO
000306: 26,3746           00051                                    EARTHMXX
000307: 26,3747           00011                                    8D                                    #  10-11D=WEARTH
000308: 26,3750           77770                           AXT,1                                          #  FOR SL 5, AND SL 10  IN NEWANGLE
000309: 26,3751           00000                                    0
000310: 26,3752           65345                           DLOAD    PDDL                                  #    LEAVING PD SET AT 12D FOR NEWANGLE
000311: 26,3753           14023                                    AZO
000312: 26,3754           14021                                    WEARTH
000313: 26,3755           45006                           PUSH     CALL
000314: 26,3756           51731                                    NEWANGLE
000315: 26,3757           41401                           SETPD    PUSH                                  #  18-19D=504AZ
000316: 26,3760           00023                                    18D                                   #                     COS(AZ) SIN(AZ) 0
000317: 26,3761           65346                           COS      PDDL                                  #  20-37D=  MMATRIX= -SIN(AZ) COS(AZ) 0 B-1
000318: 26,3762           00023                                    504AZ                                 #                      0       0      1
000319: 26,3763           65356                           SIN      PDDL
000320: 26,3764           06520                                    HI6ZEROS
000321: 26,3765           73525                           PDDL     SIN
000322: 26,3766           00023                                    504AZ
000323: 26,3767           65276                           DCOMP    PDDL
000324: 26,3770           00023                                    504AZ
000325: 26,3771           63346                           COS      PDVL
000326: 26,3772           06520                                    HI6ZEROS
000327: 26,3773           41525                           PDDL     PUSH
000328: 26,3774           06516                                    HIDPHALF
000329: 26,3775           77650                           GOTO
000330: 26,3776           00051                                    EARTHMXX
000331:


000333:                                                                                                  #  ..... EARTHL SUBROUTINE .....
000334:                                                                                                  #  SUBROUTINE TO COMPUTE L VECTOR FOR EARTH
000335:
000336:                                                                                                  #  CALLING SEQUENCE
000337:                                                                                                  #   L       CALL
000338:                                                                                                  #   L+1            EARTHL
000339:
000340:                                                                                                  #  INPUT
000341:                                                                                                  #   AXO,AYO SET AT LAUNCH TIME WITH AYO IMMEDIATELY FOLLOWING AXO IN CORE
000342:
000343:                                                                                                  #  OUTPUT
000344:                                                                                                  #            -AX
000345:                                                                                                  #    MPAC=   -AY    RADIANS B-0
000346:                                                                                                  #              0
000347:
000348: 06,3761                                           BANK     06
000349: 06,2000                                           SETLOC   EARTHLOC
000350: 06,2000                                           BANK
000351: 06,3761                                           COUNT*   $$/LUROT
000352:
000353: 06,3761           57545        EARTHL             DLOAD    DCOMP
000354: 06,3762           01714                                    AXO
000355: 06,3763           14017                           STODL    504LPL
000356: 06,3764           01712                                    -AYO
000357: 06,3765           14021                           STODL    504LPL     +2
000358: 06,3766           24007                                    LO6ZEROS
000359: 06,3767           24023                           STOVL    504LPL     +4
000360: 06,3770           00017                                    504LPL
000361: 06,3771           77616                           RVQ
000362:


000364:                                                                                                  #  CONSTANTS AND ERASABLE ASSIGNMENTS
000365: 06,3772  12,2004               1B1                =        DP1/2                                 #  1  SCALED B-1
000366: 06,3772  0000050               RPREXIT            =        S1                                    #  R-TO-RP AND RP-TO-R SUBR EXIT
000367: 06,3772  0000051               EARTHMXX           =        S2                                    #  EARTHMX,MOONMX SUBR. EXITS
000368: 06,3772                        504RPR             =        0D                                    #  6 REGS  R OR RP VECTOR
000369: 06,3772                        SINNODI            =        8D                                    #  2       SIN(NODI)
000370: 06,3772                        DVECTR             =        8D                                    #  6       D VECTOR MOON
000371: 06,3772                        CVECTR             =        8D                                    #  6       C VECTR MOON
000372: 06,3772                        504AZ              =        18D                                   #  2      AZ
000373: 06,3772                        TIMSUBM            =        14D                                   #  3       TIME SUB M (MOON) T+T0 IN GETAZ
000374: 06,3772                        504LPL             =        14D                                   #  6       L OR LP VECTOR
000375: 06,3772                        AVECTR             =        20D                                   #  6       A VECTOR (MOON)
000376: 06,3772                        BVECTR             =        26D                                   #  6       B VECTOR (MOON)
000377: 06,3772                        MMATRIX            =        20D                                   #  18      M MATRIX
000378: 06,3772                        COB                =        32D                                   #  2       COS(B) B-1
000379: 06,3772                        SOB                =        34D                                   #  2       SIN(B) B-1
000380: 06,3772                        504F               =        6D                                    #  2       F(MOON)

End of include-file PLANETARY_INERTIAL_ORIENTATION.agc.  Parent file is MAIN.agc


