
Source Code


000002:                                                                                                  ## Copyright:   Public domain.
000003:                                                                                                  ## Filename:    RADAR_LEADIN_ROUTINES.agc
000004:                                                                                                  ## Purpose:     A section of Luminary revision 163.
000005:                                                                                                  ##              It is part of the reconstructed source code for the first
000006:                                                                                                  ##              (unflown) release of the flight software for the Lunar
000007:                                                                                                  ##              Module's (LM) Apollo Guidance Computer (AGC) for Apollo 14.
000008:                                                                                                  ##              The code has been recreated from a reconstructed copy of
000009:                                                                                                  ##              Luminary 173, as well as Luminary memos 157 amd 158.
000010:                                                                                                  ##              It has been adapted such that the resulting bugger words
000011:                                                                                                  ##              exactly match those specified for Luminary 163 in NASA
000012:                                                                                                  ##              drawing 2021152N, which gives relatively high confidence
000013:                                                                                                  ##              that the reconstruction is correct.
000014:                                                                                                  ## Reference:   pp. 498-499
000015:                                                                                                  ## Assembler:   yaYUL
000016:                                                                                                  ## Contact:     Ron Burkey <info@sandroid.org>.
000017:                                                                                                  ## Website:     www.ibiblio.org/apollo/index.html
000018:                                                                                                  ## Mod history: 2019-08-21 MAS  Created from Luminary 173. Moved RADSAMP back
000019:                                                                                                  ##                              to bank 25. Changed the TWIDDLE to RADSAMP to
000020:                                                                                                  ##                              a WAITLIST call.
000021:


000023: 25,2003                                           BANK     25
000024: 25,2000                                           SETLOC   RRLEADIN
000025: 25,2000                                           BANK
000026:
000027: 25,2003  E4,1600                                  EBANK=   RSTACK
000028:
000029:                                                                                                  #  RADAR SAMPLING LOOP.
000030:
000031: 25,2003                                           COUNT*   $$/RLEAD
000032: 25,2003           11777        RADSAMP            CCS      RSAMPDT                               #  TIMES NORMAL ONCE-PER-SECOND SAMPLING.
000033: 25,2004           12006                           TCF      +2
000034: 25,2005           15272                           TCF      TASKOVER                              #  +0 INSERTED MANUALLY TERMINATES TEST.
000035:
000036: 25,2006           05214                           TC       WAITLIST
000037: 25,2007  E4,1600                                  EBANK=   RSTACK
000038: 25,2007           02003 52064                     2CADR    RADSAMP
000039:
000040: 25,2011           37716                           CAF      PRIO25
000041: 25,2012           05072                           TC       NOVAC
000042: 25,2013  E4,1600                                  EBANK=   RSTACK
000043: 25,2013           02023 52064                     2CADR    DORSAMP
000044:
000045: 25,2015           34736                           CAF      BIT14                                 #  FOR CYCLIC SAMPLING, RTSTDEX=
000046: 25,2016           00006                           EXTEND                                         #  RTSTLOC/2 + RTSTBASE
000047: 25,2017           71776                           MP       RTSTLOC
000048: 25,2020           61775                           AD       RTSTBASE                              #  0 FOR RR, 2 FOR LR.
000049: 25,2021           55773                           TS       RTSTDEX
000050: 25,2022           15272                           TCF      TASKOVER
000051:
000052:                                                                                                  #  DO THE ACTUAL RADAR SAMPLE.
000053:
000054: 25,2023           02060        DORSAMP            TC       VARADAR                               #  SELECTS VARIABLE RADAR CHANNEL.
000055: 25,2024           04616                           TC       BANKCALL
000056: 25,2025           17720                           CADR     RADSTALL
000057:
000058: 25,2026           25575                           INCR     RFAILCNT                              #  ADVANCE FAIL COUNTER BUT ACCEPT BAD DATA
000059:
000060: 25,2027           00004        DORSAMP2           INHINT
000061: 25,2030           30101                           CA       FLAGWRD5                              #  DON'T UPDATE RSTACK IF IN R77.
000062: 25,2031           74741                           MASK     R77FLBIT
000063: 25,2032           10000                           CCS      A
000064: 25,2033           12050                           TCF      R77IN
000065:
000066: 25,2034           53101                           DXCH     SAMPLSUM
000067: 25,2035           51776                           INDEX    RTSTLOC
000068: 25,2036           53601                           DXCH     RSTACK
000069:


000071: 25,2037           30110                           CA       RADMODES
000072: 25,2040           00006                           EXTEND
000073: 25,2041           06033                           RXOR     CHAN33
000074: 25,2042           74746                           MASK     BIT6
000075: 25,2043           00006                           EXTEND
000076: 25,2044           12050                           BZF      R77IN
000077:
000078: 25,2045           05600                           TC       ALARM
000079: 25,2046           00522                           OCT      522
000080: 25,2047           25575                           INCR     RFAILCNT
000081:
000082: 25,2050           41776        R77IN              CS       RTSTLOC                               #  CYCLE RTSTLOC
000083: 25,2051           61774                           AD       RTSTMAX
000084: 25,2052           00006                           EXTEND
000085: 25,2053           12056                           BZF      +3
000086: 25,2054           31776                           CA       RTSTLOC
000087: 25,2055           64752                           AD       TWO                                   #  STORAGE IS DP
000088: 25,2056           55776                           TS       RTSTLOC
000089: 25,2057           15155                           TCF      ENDOFJOB                              #  CONTINUOUS SAMPLING AND 2N TRIES - GONE.
000090:
000091:                                                                                                  #  VARIABLE RADAR DATA CALLER FOR ONE MEASUREMENT ONLY.
000092:
000093: 25,2060           34753        VARADAR            CAF      ONE                                   #  WILL BE SENT TO RADAR ROUTINE IN A BY
000094: 25,2061           54133                           TS       BUF2                                  #  SWCALL.
000095: 25,2062           51773                           INDEX    RTSTDEX
000096: 25,2063           32065                           CAF      RDRLOCS
000097: 25,2064           14622                           TCF      SWCALL                                #  NOT TOUCHING Q.
000098:
000099: 25,2065           53114        RDRLOCS            CADR     RRRANGE                               #  = 0
000100: 25,2066           53112                           CADR     RRRDOT                                #  = 1
000101: 25,2067           53110                           CADR     LRVELX                                #  = 2
000102: 25,2070           53106                           CADR     LRVELY                                #  = 3
000103: 25,2071           53104                           CADR     LRVELZ                                #  = 4
000104: 25,2072           53102                           CADR     LRALT                                 #  = 5

End of include-file RADAR_LEADIN_ROUTINES.agc.  Parent file is MAIN.agc


