
Source Code


000002:                                                                                                  ## Copyright:   Public domain.
000003:                                                                                                  ## Filename:    RESTARTS_ROUTINE.agc
000004:                                                                                                  ## Purpose:     A section of Luminary revision 163.
000005:                                                                                                  ##              It is part of the reconstructed source code for the first
000006:                                                                                                  ##              (unflown) release of the flight software for the Lunar
000007:                                                                                                  ##              Module's (LM) Apollo Guidance Computer (AGC) for Apollo 14.
000008:                                                                                                  ##              The code has been recreated from a reconstructed copy of
000009:                                                                                                  ##              Luminary 173, as well as Luminary memos 157 amd 158.
000010:                                                                                                  ##              It has been adapted such that the resulting bugger words
000011:                                                                                                  ##              exactly match those specified for Luminary 163 in NASA
000012:                                                                                                  ##              drawing 2021152N, which gives relatively high confidence
000013:                                                                                                  ##              that the reconstruction is correct.
000014:                                                                                                  ## Reference:   pp. 1292-1297
000015:                                                                                                  ## Assembler:   yaYUL
000016:                                                                                                  ## Contact:     Ron Burkey <info@sandroid.org>.
000017:                                                                                                  ## Website:     www.ibiblio.org/apollo/index.html
000018:                                                                                                  ## Mod history: 2019-08-21 MAS  Created from Luminary 173.
000019:


000021: 01,3530                                           BANK     01
000022: 01,2000                                           SETLOC   RESTART
000023: 01,2000                                           BANK
000024:
000025: 01,3530  E3,1436                                  EBANK=   PHSNAME1                              #  GOPROG MUST SWITCH TO THIS EBANK
000026:
000027: 01,3530                                           COUNT*   $$/RSROU
000028: 01,3530           30161        RESTARTS           CA       MPAC       +5                         #  GET GROUP NUMBER -1
000029: 01,3531           60000                           DOUBLE                                         #  SAVE FOR INDEXING
000030: 01,3532           54155                           TS       TEMP2G
000031:
000032: 01,3533           33772                           CA       PHS2CADR                              #  SET UP EXIT IN CASE IT IS AN EVEN
000033: 01,3534           54157                           TS       TEMPSWCH                              #  TABLE PHASE
000034:
000035: 01,3535           33567                           CA       RTRNCADR                              #  TO SAVE TIME ASSUME IT WILL GET NEXT
000036: 01,3536           54707                           TS       GOLOC      +2                         #  GROUP AFTER THIS
000037:
000038: 01,3537           30154                           CA       TEMPPHS
000039: 01,3540           75007                           MASK     OCT1400
000040: 01,3541           10000                           CCS      A                                     #  IS IT A VARIABLE OR TABLE RESTART
000041: 01,3542           13553                           TCF      ITSAVAR                               #  IT:S A VARIABLE RESTART
000042:
000043: 01,3543           10154        GETPART2           CCS      TEMPPHS                               #  IS IT AN X.1 RESTART
000044: 01,3544           10000                           CCS      A
000045: 01,3545           13653                           TCF      ITSATBL                               #  NO, ITS A TABLE RESTART
000046:
000047: 01,3546           35024                           CA       PRIO14                                #  IT IS AN X.1 RESTART, THEREFORE START
000048: 01,3547           05105                           TC       FINDVAC                               #  THE DISPLAY RESTART JOB
000049: 01,3550  E3,1400                                  EBANK=   LST1
000050: 01,3550           03040 20103                     2CADR    INITDSP
000051:
000052: 01,3552           03567                           TC       RTRNCADR                              #  FINISHED WITH THIS GROUP, GET NEXT ONE
000053:
000054: 01,3553           75007        ITSAVAR            MASK     OCT1400                               #  IS IT TYPE B ?
000055: 01,3554           10000                           CCS      A
000056: 01,3555           13624                           TCF      ITSLIKEB                              #  YES,IT IS TYPE B
000057:
000058: 01,3556           00006                           EXTEND                                         #  STORE THE JOB (OR TASK) 2CADR FOR EXIT
000059: 01,3557           50155                           NDX      TEMP2G
000060: 01,3560           31437                           DCA      PHSNAME1
000061: 01,3561           52706                           DXCH     GOLOC
000062:
000063: 01,3562           30154                           CA       TEMPPHS                               #  SEE IF THIS IS A JOB, TASK, OR A LONGCAL
000064: 01,3563           74757                           MASK     OCT7
000065: 01,3564           67751                           AD       MINUS2
000066: 01,3565           10000                           CCS      A
000067: 01,3566           13736                           TCF      ITSLNGCL                              #  ITS A LONGCALL
000068:
000069: 01,3567           04631        RTRNCADR           TC       SWRETURN                              #  CANT GET HERE
000070:


000072: 01,3570           13572                           TCF      ITSAWAIT
000073:
000074: 01,3571           13637                           TCF      ITSAJOB                               #  ITS A JOB
000075:
000076: 01,3572           34352        ITSAWAIT           CA       WTLTCADR                              #  SET UP WAITLIST CALL
000077: 01,3573           54704                           TS       GOLOC      -1
000078:
000079: 01,3574           50155                           NDX      TEMP2G                                #  DIRECTLY STORED
000080: 01,3575           31053                           CA       PHSPRDT1
000081: 01,3576           10000        TIMETEST           CCS      A                                     #  IS IT AN IMMEDIATE RESTART
000082: 01,3577           24000                           INCR     A                                     #  NO,
000083: 01,3600           13603                           TCF      FINDTIME                              #  FIND OUT WHEN IT SHOULD BEGIN
000084:
000085: 01,3601           15447                           TCF      ITSINDIR                              #  STORED INDIRECTLY
000086:
000087: 01,3602           13622                           TCF      IMEDIATE                              #  IT WANTS AN IMMEDIATE RESTART
000088:
000089:                                                                                                  #  ***** THIS MUST BE IN FIXED FIXED *****
000090:
000091:    5447                                           BLOCK    02
000092:    4000                                           SETLOC   FFTAG2
000093:    4000                                           BANK
000094:
000095:    5447                                           COUNT*   $$/RSROU
000096:    5447           22706        ITSINDIR           LXCH     GOLOC      +1                         #  GET THE CORRECT E BANK IN CASE THIS IS
000097:    5450           22006                           LXCH     BB                                    #  SWITCHED ERRASIBLE
000098:
000099:    5451           50000                           NDX      A                                     #  GET THE TIME INDIRECTLY
000100:    5452           30001                           CA       1
000101:
000102:    5453           22006                           LXCH     BB                                    #  RESTORE THE BB AND GOLOC
000103:    5454           22706                           LXCH     GOLOC      +1
000104:
000105:    5455           13603                           TCF      FINDTIME                              #  FIND OUT WHEN IT SHOULD BEGIN
000106:
000107:                                                                                                  #  ***** YOU  MAY RETURN TO  SWITCHED FIXED *****
000108:
000109: 01,3603                                           BANK     01
000110: 01,2000                                           SETLOC   RESTART
000111: 01,2000                                           BANK
000112:
000113: 01,3603                                           COUNT*   $$/RSROU
000114: 01,3603           40000        FINDTIME           COM                                            #  MAKE NEGITIVE SINCE IT WILL BE SUBTRACTD
000115: 01,3604           54001                           TS       L                                     #  AND SAVE
000116: 01,3605           50155                           NDX      TEMP2G
000117: 01,3606           41052                           CS       TBASE1
000118: 01,3607           00006                           EXTEND
000119: 01,3610           60025                           SU       TIME1
000120: 01,3611           10000                           CCS      A
000121: 01,3612           40000                           COM
000122:


000124: 01,3613           67734                           AD       OCT37776
000125: 01,3614           64753                           AD       ONE
000126: 01,3615           60001                           AD       L
000127: 01,3616           10000                           CCS      A
000128: 01,3617           34755                           CA       ZERO
000129: 01,3620           13622                           TCF      +2
000130: 01,3621           13622                           TCF      +1
000131: 01,3622           64753        IMEDIATE           AD       ONE
000132: 01,3623           00704                           TC       GOLOC      -1
000133: 01,3624           33567        ITSLIKEB           CA       RTRNCADR                              #  TYPE B,             SO STORE RETURN IN
000134: 01,3625           54157                           TS       TEMPSWCH                              #  TEMPSWCH IN CASE OF AN EVEN PHASE
000135:
000136: 01,3626           33773                           CA       PRT2CADR                              #  SET UP EXIT TO GET TABLE PART OF THIS
000137: 01,3627           54707                           TS       GOLOC      +2                         #  VARIABLE TYPE OF PHASE
000138:
000139: 01,3630           30154                           CA       TEMPPHS                               #  MAKE THE PHASE LOOK RIGHT FOR THE TABLE
000140: 01,3631           76077                           MASK     OCT177                                #  PART OF THIS VARIABLE PHASE
000141: 01,3632           54154                           TS       TEMPPHS
000142:
000143: 01,3633           00006                           EXTEND
000144: 01,3634           50155                           NDX      TEMP2G                                #  OBTAIN THE JOB:S 2CADR
000145: 01,3635           31437                           DCA      PHSNAME1
000146: 01,3636           52706                           DXCH     GOLOC
000147:
000148: 01,3637           50155        ITSAJOB            NDX      TEMP2G                                #  NOW ADD THE PRIORITY AND LET:S GO
000149: 01,3640           31053                           CA       PHSPRDT1
000150: 01,3641           54704        CHKNOVAC           TS       GOLOC      -1                         #  SAVE PRIO UNTIL WE SEE IF ITS
000151: 01,3642           00006                           EXTEND                                         #  A FINDVAC OR A NOVAC
000152: 01,3643           63647                           BZMF     ITSNOVAC
000153:
000154: 01,3644           34354                           CAF      FVACCADR                              #  POSITIVE, SET UP FINDVAC CALL.
000155: 01,3645           56704                           XCH      GOLOC      -1                         #  PICK UP PRIO,
000156: 01,3646           00704                           TC       GOLOC      -1                         #  AND GO
000157:
000158: 01,3647           34351        ITSNOVAC           CAF      NOVACADR                              #  NEGATIVE,
000159: 01,3650           56704                           XCH      GOLOC      -1                         #  SET UP NOVAC CALL,
000160: 01,3651           40000                           COM                                            #  CORRECT PRIO,
000161: 01,3652           00704                           TC       GOLOC      -1                         #  AND GO
000162:
000163: 01,3653           54020        ITSATBL            TS       CYR                                   #  FIND OUT IF THE PHASE IS ODD OR EVEN
000164: 01,3654           10020                           CCS      CYR
000165: 01,3655           13656                           TCF      +1                                    #  IT:S EVEN
000166: 01,3656           13754                           TCF      ITSEVEN
000167:
000168: 01,3657           33567                           CA       RTRNCADR                              #  IN CASE THIS IS THE SECOND PART OF A
000169: 01,3660           54707                           TS       GOLOC      +2                         #  TYPE B RESTART, WE NEED PROPER EXIT
000170:
000171: 01,3661           30154                           CA       TEMPPHS                               #  SET UP POINTER FOR FINDING OUR PLACE IN
000172: 01,3662           54021                           TS       SR                                    #  THE RESTART TABLES
000173: 01,3663           60021                           AD       SR
000174:


000176: 01,3664           50155                           NDX      TEMP2G
000177: 01,3665           62003                           AD       SIZETAB    +1
000178: 01,3666           54156                           TS       POINTER
000179:
000180: 01,3667           00006        CONTBL2            EXTEND                                         #  FIND OUT WHAT:S IN THE TABLE
000181: 01,3670           50156                           NDX      POINTER
000182: 01,3671           32002                           DCA      CADRTAB                               #  GET THE 2CADR
000183:
000184: 01,3672           22706                           LXCH     GOLOC      +1                         #  STORE THE BB INFORMATION
000185:
000186: 01,3673           10000                           CCS      A                                     #  IS IT A JOB OR IS IT  TIMED
000187: 01,3674           24000                           INCR     A                                     #  POSITIVE, MUST BE A JOB
000188: 01,3675           13750                           TCF      ITSAJOB2
000189:
000190: 01,3676           24000                           INCR     A                                     #  MUST BE EITHER A WAITLIST OR LONGCALL
000191: 01,3677           54705                           TS       GOLOC                                 #  LET-S STORE THE CORRECT CADR
000192:
000193: 01,3700           34352                           CA       WTLTCADR                              #  SET UP OUR EXIT TO WAITLIST
000194: 01,3701           54704                           TS       GOLOC      -1
000195:
000196: 01,3702           30706                           CA       GOLOC      +1                         #  NOW FIND OUT IF IT IS A WAITLIST CALL
000197: 01,3703           74742                           MASK     BIT10                                 #  THIS SHOULD BE ONE IF WE HAVE -BB
000198: 01,3704           10000                           CCS      A                                     #  FOR THAT MATTER SO SHOULD BE BITS 9,8,7,
000199:                                                                                                  #  6,5, AND LAST BUT NOT LEAST (PERHAPS NOT
000200:                                                                                                  #  IN IMPORTANCE ANYWAY. BIT 4
000201: 01,3705           13743                           TCF      ITSWTLST                              #  IT IS A WAITLIST CALL
000202:
000203: 01,3706           50156                           NDX      POINTER                               #  OBTAIN THE ORIGINAL DELTA T
000204: 01,3707           32000                           CA       PRDTTAB                               #  ADDRESS FOR THIS LONGCALL
000205:
000206: 01,3710           15456                           TCF      ITSLGCL1                              #  NOW GO GET THE DELTA TIME
000207:
000208:                                                                                                  #  ***** THIS MUST BE IN FIXED FIXED *****
000209:
000210:    5456                                           BLOCK    02
000211:    4000                                           SETLOC   FFTAG2
000212:    4000                                           BANK
000213:
000214:    5456                                           COUNT*   $$/RSROU
000215:    5456           22706        ITSLGCL1           LXCH     GOLOC      +1                         #  OBTAIN THE CORRECT E BANK
000216:    5457           22006                           LXCH     BB
000217:    5460           22706                           LXCH     GOLOC      +1                         #  AND PRESERVE OUR E AND F BANKS
000218:
000219:    5461           00006                           EXTEND                                         #  GET THE DELTA TIME
000220:    5462           50000                           NDX      A
000221:    5463           30001                           DCA      0
000222:
000223:    5464           22706                           LXCH     GOLOC      +1                         #  RESTORE OUR E AND F BANK
000224:    5465           22006                           LXCH     BB                                    #  RESTORE THE TASKS E AND F BANKS
000225:    5466           22706                           LXCH     GOLOC      +1                         #  AND PRESERVE OUR L
000226:


000228:    5467           13711                           TCF      ITSLGCL2                              #  NOW LET:S PROCESS THIS LONGCALL
000229:
000230:                                                                                                  #  ***** YOU  MAY RETURN  TO SWITCHED FIXED *****
000231:
000232: 01,3711                                           BANK     01
000233: 01,2000                                           SETLOC   RESTART
000234: 01,2000                                           BANK
000235:
000236: 01,3711                                           COUNT*   $$/RSROU
000237: 01,3711           53153        ITSLGCL2           DXCH     LONGTIME
000238:
000239: 01,3712           00006                           EXTEND                                         #  CALCULATE TIME LEFT
000240: 01,3713           40025                           DCS      TIME2
000241: 01,3714           21153                           DAS      LONGTIME
000242: 01,3715           00006                           EXTEND
000243: 01,3716           31151                           DCA      LONGBASE
000244: 01,3717           21153                           DAS      LONGTIME
000245:
000246: 01,3720           11152                           CCS      LONGTIME                              #  FIND OUT HOW THIS SHOULD BE RESTARTED
000247: 01,3721           13731                           TCF      LONGCLCL
000248: 01,3722           13724                           TCF      +2
000249: 01,3723           13617                           TCF      IMEDIATE   -3
000250: 01,3724           11153                           CCS      LONGTIME   +1
000251: 01,3725           13731                           TCF      LONGCLCL
000252: 01,3726           13727                           NOOP                                           #  CAN:T GET HERE    *********
000253: 01,3727           13617                           TCF      IMEDIATE   -3
000254: 01,3730           13622                           TCF      IMEDIATE
000255:
000256: 01,3731           33774        LONGCLCL           CA       LGCLCADR                              #  WE WILL GO TO LONGCALL
000257: 01,3732           54704                           TS       GOLOC      -1
000258:
000259: 01,3733           00006                           EXTEND                                         #  PREPARE OUR ENTRY TO LONGCALL
000260: 01,3734           31153                           DCA      LONGTIME
000261: 01,3735           00704                           TC       GOLOC      -1
000262:
000263: 01,3736           34352        ITSLNGCL           CA       WTLTCADR                              #  ASSUME IT WILL GO TO WAITLIST
000264: 01,3737           54704                           TS       GOLOC      -1
000265:
000266: 01,3740           50155                           NDX      TEMP2G
000267: 01,3741           41053                           CS       PHSPRDT1                              #  GET THE DELTA T ADDRESS
000268:
000269: 01,3742           15456                           TCF      ITSLGCL1                              #  NOW GET THE DELTA TIME
000270:
000271: 01,3743           40706        ITSWTLST           CS       GOLOC      +1                         #  CORRECT THE BBCON INFORMATION
000272: 01,3744           54706                           TS       GOLOC      +1
000273:
000274: 01,3745           50156                           NDX      POINTER                               #  GET THE DT AND FIND OUT IF IT WAS STORED
000275: 01,3746           32000                           CA       PRDTTAB                               #  DIRECTLY OR INDIRECTLY
000276:
000277: 01,3747           13576                           TCF      TIMETEST                              #  FIND OUT HOW THE TIME IS STORED
000278:


000280: 01,3750           56705        ITSAJOB2           XCH      GOLOC                                 #  STORE THE CADR
000281:
000282: 01,3751           50156                           NDX      POINTER                               #  ADD THE PRIORITY AND LET:S GO
000283: 01,3752           32000                           CA       PRDTTAB
000284:
000285: 01,3753           13641                           TCF      CHKNOVAC
000286:
000287: 01,3754           30157        ITSEVEN            CA       TEMPSWCH                              #  SET UP FOR EITHER THE SECOND PART OF THE
000288: 01,3755           54707                           TS       GOLOC      +2                         #  TABLE, OR A RETURN FOR THE NEXT GROUP
000289:
000290: 01,3756           50155                           NDX      TEMP2G                                #  SET UP POINTER FOR OUR LOCATION WITHIN
000291: 01,3757           32002                           CA       SIZETAB                               #  THE TABLE
000292: 01,3760           60154                           AD       TEMPPHS                               #  THIS MAY LOOK BAD BUT LET:S SEE YOU DO
000293: 01,3761           60154                           AD       TEMPPHS                               #  BETTER IN TIME OR NUMBERR OF LOCATIONS
000294: 01,3762           60154                           AD       TEMPPHS
000295: 01,3763           54156                           TS       POINTER
000296:
000297: 01,3764           13667                           TCF      CONTBL2                               #  NOW PROCESS WHAT IS IN THE TABLE
000298:
000299: 01,3765           36250        PHSPART2           CA       THREE                                 #  SET THE POINTER FOR THE SECOND HALF OF
000300: 01,3766           26156                           ADS      POINTER                               #  THE TABLE
000301:
000302: 01,3767           33567                           CA       RTRNCADR                              #  THIS WILL BE OUR LAST TIME THROUGH THE
000303: 01,3770           54707                           TS       GOLOC      +2                         #  EVEN TABLE , SO AFTER IT  GET THE NEXT
000304:                                                                                                  #  GROUP
000305: 01,3771           13667                           TCF      CONTBL2                               #  SO LET:S GET THE SECOND ENTRY IN THE TBL
000306:
000307: 01,3772     0154               TEMPPHS            EQUALS   MPAC
000308: 01,3772     0155               TEMP2G             EQUALS   MPAC       +1
000309: 01,3772     0156               POINTER            EQUALS   MPAC       +2
000310: 01,3772     0157               TEMPSWCH           EQUALS   MPAC       +3
000311: 01,3772     0705               GOLOC              EQUALS   VAC5       +20D
000312: 01,3772     7751               MINUS2             EQUALS   NEG2
000313: 01,3772     6077               OCT177             EQUALS   LOW7
000314:
000315: 01,3772           03765        PHS2CADR           GENADR   PHSPART2
000316: 01,3773           03543        PRT2CADR           GENADR   GETPART2
000317: 01,3774           05310        LGCLCADR           GENADR   LONGCALL
000318: 01,3775     4354               FVACCADR           =        TCFINDVC
000319: 01,3775     4352               WTLTCADR           =        TCWAIT
000320: 01,3775     4351               NOVACADR           =        TCNOVAC
000321:
000322:

End of include-file RESTARTS_ROUTINE.agc.  Parent file is MAIN.agc


