
Source Code


000002:                                                                                                  ## Copyright:   Public domain.
000003:                                                                                                  ## Filename:    SERVICE_ROUTINES.agc
000004:                                                                                                  ## Purpose:     A section of Luminary revision 163.
000005:                                                                                                  ##              It is part of the reconstructed source code for the first
000006:                                                                                                  ##              (unflown) release of the flight software for the Lunar
000007:                                                                                                  ##              Module's (LM) Apollo Guidance Computer (AGC) for Apollo 14.
000008:                                                                                                  ##              The code has been recreated from a reconstructed copy of
000009:                                                                                                  ##              Luminary 173, as well as Luminary memos 157 amd 158.
000010:                                                                                                  ##              It has been adapted such that the resulting bugger words
000011:                                                                                                  ##              exactly match those specified for Luminary 163 in NASA
000012:                                                                                                  ##              drawing 2021152N, which gives relatively high confidence
000013:                                                                                                  ##              that the reconstruction is correct.
000014:                                                                                                  ## Reference:   pp. 1362-1368
000015:                                                                                                  ## Assembler:   yaYUL
000016:                                                                                                  ## Contact:     Ron Burkey <info@sandroid.org>.
000017:                                                                                                  ## Website:     www.ibiblio.org/apollo/index.html
000018:                                                                                                  ## Mod history: 2019-08-21 MAS  Created from Luminary 173.
000019:


000021: 10,3545                                           BANK     10
000022: 10,2000                                           SETLOC   DISPLAYS
000023: 10,2000                                           BANK
000024: 10,3545                                           COUNT*   $$/DSPLA
000025:
000026: 10,3545           00004        UPENT2             INHINT
000027: 10,3546           75661                           MASK     OCT77770
000028: 10,3547           54001                           TS       L
000029: 10,3550           40100                           CS       FLAGWRD4
000030: 10,3551           70001                           MASK     L
000031: 10,3552           26100                           ADS      FLAGWRD4
000032: 10,3553           00003        JOIN               RELINT
000033: 10,3554           16742                           TCF      Q+1
000034:
000035: 10,3555           00004        DOWNENT2           INHINT
000036: 10,3556           75661                           MASK     OCT77770
000037: 10,3557           40000                           COM
000038: 10,3560           70100                           MASK     FLAGWRD4
000039: 10,3561           54100                           TS       FLAGWRD4
000040: 10,3562           13553                           TCF      JOIN
000041:
000042: 10,3563     4757               OCT7               EQUALS   SEVEN
000043:


000045:                                                                                                  #      UPFLAG AND DOWNFLAG ARE ENTIRELY GENERAL FLAG SETTING AND CLEARING SUBROUTINES.   USING THEM, WHETHER OR
000046:                                                                                                  #  NOT IN INTERRUPT, ONE MAY SET OR CLEAR ANY SINGLE, NAMED BIT IN ANY ERASABLE REGISTER, SUBJECT OF COURSE TO
000047:                                                                                                  #  EBANK SETTING.   A "NAMED" BIT, AS THE WORD IS USED HERE, IS ANY BIT WITH A NAME FORMALLY ASSIGNED BY THE YUL
000048:                                                                                                  #  ASSEMBLER.
000049:
000050:                                                                                                  #      AT PRESENT THE ONLY NAMED BITS ARE THOSE IN THE FLAGWORDS.   ASSEMBLER CHANGES WILL MAKE IT POSSIBLE TO
000051:                                                                                                  #  NAME ANY BIT IN ERASABLE MEMORY.
000052:
000053:                                                                                                  #      CALLING SEQUENCES ARE AS FOLLOWS:-
000054:
000055:                                                                                                  #                      TC     UPFLAG                    TC     DOWNFLAG
000056:                                                                                                  #                      ADRES  NAME OF FLAG              ADRES  NAME OF FLAG
000057:
000058:                                                                                                  #      RETURN IS TO THE LOCATION FOLLOWING THE "ADRES" ABOUT .58 MS AFTER THE "TC".
000059:
000060:                                                                                                  #      UPON RETURN A CONTAINS THE CURRENT FLAGWRD SETTING.
000061:
000062:    5515                                           BLOCK    02
000063:    4000                                           SETLOC   FFTAG1
000064:    4000                                           BANK
000065:    5515                                           COUNT*   $$/FLAG
000066:
000067:    5515           30002        UPFLAG             CA       Q
000068:    5516           05533                           TC       DEBIT
000069:    5517           40000                           COM                                            #  +(15 - BIT)
000070:    5520           00006                           EXTEND
000071:    5521           04001                           ROR      LCHAN                                 #  SET BIT
000072:    5522           50061        COMFLAG            INDEX    ITEMP1
000073:    5523           54074                           TS       FLAGWRD0
000074:    5524           22063                           LXCH     ITEMP3
000075:    5525           00003                           RELINT
000076:    5526           00001                           TC       L
000077:
000078:
000079:    5527           30002        DOWNFLAG           CA       Q
000080:    5530           05533                           TC       DEBIT
000081:    5531           70001                           MASK     L                                     #  RESET BIT
000082:    5532           15522                           TCF      COMFLAG
000083:
000084:
000085:    5533           64753        DEBIT              AD       ONE                                   #  GET DE BITS
000086:    5534           00004                           INHINT
000087:    5535           54063                           TS       ITEMP3
000088:    5536           34762                           CA       LOW4                                  #  DEC15
000089:    5537           54061                           TS       ITEMP1
000090:    5540           50063                           INDEX    ITEMP3
000091:    5541           27777                           CA       0          -1                         #  ADRES
000092:    5542           54001                           TS       L
000093:    5543           34755                           CA       ZERO


000095:    5544           00006                           EXTEND
000096:    5545           10061                           DV       ITEMP1                                #  A = FLAGWRD, L = (15 - BIT)
000097:    5546           52062                           DXCH     ITEMP1
000098:    5547           50061                           INDEX    ITEMP1
000099:    5550           30074                           CA       FLAGWRD0
000100:    5551           54001                           TS       L                                     #  CURRENT STATE
000101:    5552           50062                           INDEX    ITEMP2
000102:    5553           44735                           CS       BIT15                                 #  -(15 - BIT)
000103:    5554           00002                           TC       Q
000104:


000106:                                                                                                  #  DELAYJOB- A GENERAL ROUTINE TO DELAY A JOB A SPECIFIC AMOUNT OF TIME BEFORE PICKING UP AGAIN.
000107:
000108:                                                                                                  #  ENTRANCE REQUIREMENTS...
000109:                                                                                                  #                                                   CAF    DT              DELAY JOB FOR DT CENTISECS
000110:                                                                                                  #                                                   TC     BANKCALL
000111:                                                                                                  #                                                   CADR   DELAYJOB
000112:
000113: 06,3772                                           BANK     06
000114: 00,2000                                           SETLOC   DLAYJOB
000115: 00,2000                                           BANK
000116:
000117:                                                                                                  #  THIS MUST REMAIN IN BANK 0 *****************************************
000118: 00,3735                                           COUNT*   $$/DELAY
000119: 00,3735           35000        2SECDELY           CAF      2SECS
000120: 00,3736           00004        DELAYJOB           INHINT
000121: 00,3737           54002                           TS       Q                                     #  STORE DELAY DT IN Q FOR DLY -1 IN
000122:
000123: 00,3740           34752                           CAF      DELAYNUM                              #  WAITLIST
000124: 00,3741           54070        DELLOOP            TS       RUPTREG1
000125: 00,3742           50000                           INDEX    A
000126: 00,3743           31323                           CA       DELAYLOC                              #  IS THIS DELAYLOC AVAILABLE
000127: 00,3744           00006                           EXTEND
000128: 00,3745           13753                           BZF      OK2DELAY                              #  YES
000129:
000130: 00,3746           10070                           CCS      RUPTREG1                              #  NO, TRY NEXT DELAYLOC
000131: 00,3747           13741                           TCF      DELLOOP
000132:
000133: 00,3750           52134                           DXCH     BUF2
000134: 00,3751           05717                           TC       BAILOUT1                              #  NO AVAILABLE LOCS.
000135: 00,3752           31104                           OCT      31104
000136:
000137: 00,3753           33773        OK2DELAY           CA       TCSLEEP                               #  SET WAITLIST IMMEDIATE RETURN
000138: 00,3754           54061                           TS       WAITEXIT
000139:
000140: 00,3755           30004                           CA       FBANK
000141: 00,3756           60070                           AD       RUPTREG1                              #  STORE BBANK FOR TASK CALL
000142: 00,3757           54001                           TS       L
000143:
000144: 00,3760           33774                           CAF      WAKECAD                               #  STORE CADR FOR TASK CALL
000145: 00,3761           15222                           TCF      DLY2       -1                         #  DLY IS IN WAITLIST ROUTINE
000146:
000147: 00,3762           04645        TCGETCAD           TC       MAKECADR                              #  GET CALLERS FCADR
000148:
000149: 00,3763           50070                           INDEX    RUPTREG1
000150: 00,3764           55323                           TS       DELAYLOC                              #  SAVE DELAY CADRS
000151:
000152: 00,3765           05133                           TC       JOBSLEEP
000153:
000154: 00,3766           34755        WAKER              CAF      ZERO
000155: 00,3767           50006                           INDEX    BBANK
000156:


000158: 00,3770           57323                           XCH      DELAYLOC                              #  MAKE DELAYLOC AVAILABLE
000159: 00,3771           05137                           TC       JOBWAKE
000160:
000161: 00,3772           05272                           TC       TASKOVER
000162:
000163: 00,3773           03760        TCSLEEP            GENADR   TCGETCAD   -2
000164: 00,3774           03766        WAKECAD            GENADR   WAKER
000165:


000167:                                                                                                  #  GENTRAN, A BLOCK TRANSFER ROUTINE.
000168:
000169:                                                                                                  #  WRITTEN BY D. EYLES
000170:                                                                                                  #  MOD 1 BY KERNAN                                                         UTILITYM REV 17 11/18/67
000171:
000172:                                                                                                  #  MOD 2 BY SCHULENBERG  (REMOVE RELINT)   SKIPPER REV 4 2/28/68
000173:
000174:                                                                                                  #           THIS ROUTINE IS USEFULL FOR TRANSFERING N CONSECUTIVE ERASABLE OR FIXED QUANTITIES TO SOME OTHER N
000175:                                                                                                  #  CONSECUTIVE ERASABLE LOCATIONS.  IF BOTH BLOCKS OF DATA ARE IN SWITCHABLE EBANKS, THEY MUST BE IN THE SAME ONE.
000176:
000177:                                                                                                  #           GENTRAN IS CALLABLE IN A JOB AS WELL AS A RUPT.  THE CALLING SEQUENCE IS:
000178:
000179:                                                                                                  #                                          I        CA     N-1             # OF QUANTITIES MINUS ONE.
000180:                                                                                                  #                                          I +1     TC     GENTRAN         IN FIXED-FIXED.
000181:                                                                                                  #                                          I +2     ADRES  L               STARTING ADRES OF DATA TO BE MOVED.
000182:                                                                                                  #                                          I +3     ADRES  M               STARTING ADRES OF DUPLICATION BLOCK.
000183:                                                                                                  #                                          I +4                            RETURNS HERE.
000184:
000185:                                                                                                  #           GENTRAN TAKES 25 MCT'S (300 MICROSECONDS) PER ITEM + 5 MCT'S (60 MICS) FOR ENTERING AND EXITING.
000186:
000187:                                                                                                  #           A, L AND ITEMP1 ARE NOT PRESERVED.
000188:
000189:    5555                                           BLOCK    02
000190:    4000                                           SETLOC   FFTAG4
000191:    4000                                           BANK
000192:
000193:    5555     0061                                  EBANK=   ITEMP1
000194:
000195:    5555                                           COUNT*   $$/TRAN
000196:
000197:    5555           00004        GENTRAN            INHINT
000198:    5556           54061                           TS       ITEMP1                                #  SAVE N-1.
000199:    5557           50002                           INDEX    Q                                     #  C(Q) = ADRES L.
000200:    5560           60000                           AD       0                                     #  ADRES (L + N - 1).
000201:    5561           50000                           INDEX    A
000202:    5562           30000                           CA       0                                     #  C(ABOVE).
000203:    5563           54001                           TS       L                                     #  SAVE DATA.
000204:    5564           30061                           CA       ITEMP1
000205:    5565           50002                           INDEX    Q
000206:    5566           60001                           AD       1                                     #  ADRES (M + N - 1).
000207:    5567           50000                           INDEX    A
000208:    5570           22000                           LXCH     0                                     #  STUFF IT.
000209:    5571           10061                           CCS      ITEMP1                                #  LOOP UNTIL N-1 = 0.
000210:    5572           15556                           TCF      GENTRAN    +1
000211:    5573           16744                           TCF      Q+2                                   #  RETURN TO CALLER.
000212:


000214:                                                                                                  #  B5OFF   ZERO BIT 5 OF EXTVBACT, WHICH IS SET BY TESTXACT.
000215:
000216:                                                                                                  #           MAY BE USED AS NEEDED BY ANY EXTENDED VERB WHICH HAS DONE TESTXACT
000217:
000218:    5574                                           COUNT*   $$/EXTVB
000219:
000220:    5574           44747        B5OFF              CS       BIT5
000221:    5575           71043                           MASK     EXTVBACT
000222:    5576           55043                           TS       EXTVBACT
000223:    5577           05155                           TC       ENDOFJOB

End of include-file SERVICE_ROUTINES.agc.  Parent file is MAIN.agc


