
Source Code


000002:                                                                                                  ## Copyright:   Public domain.
000003:                                                                                                  ## Filename:    SYSTEM_TEST_STANDARD_LEAD_INS.agc
000004:                                                                                                  ## Purpose:     A section of Luminary revision 163.
000005:                                                                                                  ##              It is part of the reconstructed source code for the first
000006:                                                                                                  ##              (unflown) release of the flight software for the Lunar
000007:                                                                                                  ##              Module's (LM) Apollo Guidance Computer (AGC) for Apollo 14.
000008:                                                                                                  ##              The code has been recreated from a reconstructed copy of
000009:                                                                                                  ##              Luminary 173, as well as Luminary memos 157 amd 158.
000010:                                                                                                  ##              It has been adapted such that the resulting bugger words
000011:                                                                                                  ##              exactly match those specified for Luminary 163 in NASA
000012:                                                                                                  ##              drawing 2021152N, which gives relatively high confidence
000013:                                                                                                  ##              that the reconstruction is correct.
000014:                                                                                                  ## Reference:   pp. 375-377
000015:                                                                                                  ## Assembler:   yaYUL
000016:                                                                                                  ## Contact:     Ron Burkey <info@sandroid.org>.
000017:                                                                                                  ## Website:     www.ibiblio.org/apollo/index.html
000018:                                                                                                  ## Mod history: 2019-08-21 MAS  Created from Luminary 173.
000019:


000021: 22,3242  E5,1642                                  EBANK=   XSM
000022:
000023: 33,2117                                           BANK     33
000024: 04,2000                                           SETLOC   E/PROG
000025: 04,2000                                           BANK
000026:
000027: 04,2570                                           COUNT*   $$/P07
000028:
000029:                                                                                                  #           SPECIAL PROGRAMS TO EASE THE PANGS OF ERASABLE MEMORY PROGRAMS.
000030:
000031:                                                                                                  #  E/BKCALL   FOR DOING BANKCALLS FROM AND RETURNING TO ERASABLE.
000032:
000033:                                                                                                  #           THIS ROUTINE IS CALLABLE FROM ERASABLE OR FIXED.  LIKE BANKCALL, HOWEVER, SWITCHING BETWEEN S3 AND S4
000034:                                                                                                  #  IS NOT POSSIBLE.
000035:
000036:                                                                                                  #           THE CALLING SEQUENCE IS:
000037:
000038:                                                                                                  #                                                   TC     BANKCALL
000039:                                                                                                  #                                                   CADR   E/BKCALL
000040:                                                                                                  #                                                   CADR   ROUTINE         WHERE YOU WANT TO GO IN FIXED.
000041:                                                                                                  #                                                   RETURN HERE FROM DISPLAY TERMINATE, BAD STALL OR TC Q.
000042:                                                                                                  #                                                   RETURN HERE FROM DISPLAY PROCEED OR GOOD RETURN FROM STALL.
000043:                                                                                                  #                                                   RETURN HERE FROM DISPLAY ENTER OR RECYCLE.
000044:
000045:                                                                                                  #           THIS ROUTINE REQUIRES TWO ERASABLES (EBUF2, +1) IN UNSWITCHED WHICH ARE UNSHARED BY INTERRUPTS AND
000046:                                                                                                  #  OTHER EMEMORY PROGRAMS.
000047:
000048:                                                                                                  #           A + L ARE PRESERVED THROUGH BANKCALL AND E/BKCALL.
000049:
000050: 04,2570           52134        E/BKCALL           DXCH     BUF2                                  #  SAVE A,L AND GET DP RETURN.
000051: 04,2571           53167                           DXCH     EBUF2                                 #  SAVE DP RETURN.
000052: 04,2572           25166                           INCR     EBUF2                                 #  RETURN +1 BECAUSE DOUBLE CADR.
000053: 04,2573           30006                           CA       BBANK
000054: 04,2574           75012                           MASK     LOW10                                 #  GET CURRENT EBANK.  (SBANK SOMEDAY)
000055: 04,2575           27167                           ADS      EBUF2      +1                         #  FORM BBCON.  (WAS FBANK)
000056: 04,2576           51166                           NDX      EBUF2
000057: 04,2577           27777                           CA       0          -1                         #  GET CADR OF ROUTINE.
000058: 04,2600           04622                           TC       SWCALL                                #  GO TO ROUTINE, SETTING Q TO SWRETURN
000059:                                                                                                  #  AND RESTORING A + L.
000060: 04,2601           02605                           TC       +4                                    #  TX Q, V34, OR BAD STALL RETURN.
000061: 04,2602           02604                           TC       +2                                    #  PROCEED OR GOOD STALL RETURN.
000062: 04,2603           25166                           INCR     EBUF2                                 #  ENTER OR RECYCLE RETURN.
000063: 04,2604           25166                           INCR     EBUF2
000064: 04,2605           53167        E/SWITCH           DXCH     EBUF2
000065: 04,2606           52006                           DTCB
000066:


000068:                                                                                                  #  E/CALL          FOR CALLING A FIXED MEMORY INTERPRETIVE SUBROUTINE FROM ERASABLE AND RETURNING TO ERASABLE.
000069:
000070:                                                                                                  #           THE CALLING SEQUENCE IS...
000071:
000072:                                                                                                  #                                                   RTB
000073:                                                                                                  #                                                          E/CALL
000074:                                                                                                  #                                                   CADR   ROUTINE         THE INTERPRETIVE SUBROUTINE YOU WANT.
000075:                                                                                                  #                                                                          RETURNS HERE IN INTERPRETIVE.
000076:
000077: 04,2607           22164        E/CALL             LXCH     LOC                                   #  ADRES -1 OF CADR.
000078: 04,2610           50001                           INDEX    L
000079: 04,2611           30001                           CA       L                                     #  CADR IN A.
000080: 04,2612           24001                           INCR     L
000081: 04,2613           24001                           INCR     L                                     #  RETURN ADRES IN L.
000082: 04,2614           53167                           DXCH     EBUF2                                 #  STORE CADR AND RETURN.
000083: 04,2615           06042                           TC       INTPRET
000084: 04,2616           77624                           CALL
000085: 04,2617           01166                                    EBUF2                                 #  INDIRECTLY EXECUTE ROUTINE.  IT MUST
000086: 04,2620           77776                           EXIT                                           #  LEAVE VIA RVQ OR EQUIVALENT.
000087: 04,2621           23167                           LXCH     EBUF2      +1                         #  PICK UP RETURN.
000088: 04,2622           16044                           TCF      INTPRET    +2                         #  SET LOC AND RETURN TO CALLER.
000089:


000091:                                                                                                  #  E/JOBWAK        FOR WAKING UP ERASABLE MEMORY JOBS.
000092:
000093:                                                                                                  #           THIS ROUTINE MUST BE CALLED IN INTERRUPT OR WITH INTERRUPTS INHIBITED.
000094:
000095:                                                                                                  #           THE CALLING SEQUENCE IS:
000096:
000097:                                                                                                  #                                                   INHINT
000098:                                                                                                  #                                                     .
000099:                                                                                                  #                                                     .
000100:                                                                                                  #                                                   CA     WAKEADR         ADDRESS OF SLEEPING JOB
000101:                                                                                                  #                                                   TC     IBNKCALL
000102:                                                                                                  #                                                   CADR   E/JOBWAK
000103:                                                                                                  #                                                     .                    RETURNS HERE
000104:                                                                                                  #                                                     .
000105:                                                                                                  #                                                     .
000106:                                                                                                  #                                                   RELINT                 IF YOU DID AN INHINT.
000107:
000108: 33,2117                                           BANK     33
000109: 04,2000                                           SETLOC   E/PROG
000110: 04,2000                                           BANK
000111:
000112: 04,2623                                           COUNT*   $$/P07
000113:
000114: 04,2623           05137        E/JOBWAK           TC       JOBWAKE                               #  ARRIVE IWTH ADRES IN A.
000115: 04,2624           44741                           CS       BIT11
000116: 04,2625           50064                           NDX      LOCCTR
000117: 04,2626           26164                           ADS      LOC                                   #  KNOCK FIXED MEMORY BIT OUT OF ADRES.
000118: 04,2627           00072                           TC       RUPTREG3                              #  RETURN
000119:

End of include-file SYSTEM_TEST_STANDARD_LEAD_INS.agc.  Parent file is MAIN.agc


