
Source Code


000002:                                                                                                  ## Copyright:   Public domain.
000003:                                                                                                  ## Filename:    TIME_OF_FREE_FALL.agc
000004:                                                                                                  ## Purpose:     A section of Luminary revision 163.
000005:                                                                                                  ##              It is part of the reconstructed source code for the first
000006:                                                                                                  ##              (unflown) release of the flight software for the Lunar
000007:                                                                                                  ##              Module's (LM) Apollo Guidance Computer (AGC) for Apollo 14.
000008:                                                                                                  ##              The code has been recreated from a reconstructed copy of
000009:                                                                                                  ##              Luminary 173, as well as Luminary memos 157 amd 158.
000010:                                                                                                  ##              It has been adapted such that the resulting bugger words
000011:                                                                                                  ##              exactly match those specified for Luminary 163 in NASA
000012:                                                                                                  ##              drawing 2021152N, which gives relatively high confidence
000013:                                                                                                  ##              that the reconstruction is correct.
000014:                                                                                                  ## Reference:   pp. 1257-1272
000015:                                                                                                  ## Assembler:   yaYUL
000016:                                                                                                  ## Contact:     Ron Burkey <info@sandroid.org>.
000017:                                                                                                  ## Website:     www.ibiblio.org/apollo/index.html
000018:                                                                                                  ## Mod history: 2019-08-21 MAS  Created from Luminary 173.
000019:


000021:                                                                                                  #           THE TFF SUBROUTINES MAY BE USED IN EITHER EARTH OR MOON CENTERED COORDINATES. THE TFF ROUTINES NEVER
000022:                                                                                                  #  KNOW WHICH ORIGIN APPLIES. IT IS THE USER WHO KNOWS, AND WHO SUPPLIES  RONE, VONE AND 1/SQRT(MU)  AT THE
000023:                                                                                                  #  APPROPRIATE SCALE LEVEL FOR THE PROPER PRIMARY BODY.
000024:
000025:                                                                                                  #           EARTH ORIGIN           POSITION      -29       METERS
000026:                                                                                                  #                                  VELOCITY      -7        METERS/CENTISECOND
000027:                                                                                                  #                                  1/SQRT(MU)    +17       SQRT(CS SQ/METERS CUBED)
000028:
000029:                                                                                                  #           MOON ORIGIN            POSITION      -27       METERS
000030:                                                                                                  #                                  VELOCITY      -5        METERS/CENTISECONDS
000031:                                                                                                  #                                  1/SQRT(MU)    +14       SQRT(CS SQ/METERS CUBED)
000032:
000033:                                                                                                  #  ALL DATA PROVIDED TO AND RECEIVED FROM ANY TFF SUBROUTINE WILL BE AT ONE OF THE LEVELS ABOVE. IN ALL CASES,
000034:                                                                                                  #  THE FREE FALL TIME IS RETURNED IN CENTISECONDS AT (-28). PROGRAM  TFF/CONIC  WILL GENERATE VONE/RTMU  AND
000035:                                                                                                  #  LEAVE IT IN  VONE' AT (+10) IF EARTH ORIGIN AND (+9) IF MOON ORIGIN.
000036:                                                                                                  #           THE USER MUST STORE THE STATE VECTOR IN  RONE, VONE  AND MU IN  THE FORM 1/SQRT(MU) IN  TFF/RTMU
000037:                                                                                                  #  AT THE PROPER SCALE BEFORE CALLING  TFF/CONIC. SINCE  RONE, VONE  ARE IN THE EXTENDED VERB STORAGE AREA,
000038:                                                                                                  #  THE USER MUST ALSO LOCK OUT THE EXTENDED VERBS, AND RELEASE THEM WHEN FINISHED.
000039:                                                                                                  #           PROGRAMS     CALC/TFF  AND  CALC/TPER  ASSUME THAT THE TERMINAL RADIUS IS LESS THAN THE PRESENT
000040:                                                                                                  #  RADIUS. THIS RESTRICTION CAN BE REMOVED BY A  15 W CODING CHANGE, BUT AT PRESENT IT IS NOT DEEMED NECESSARY.
000041:
000042:                                                                                                  #           THE FOLLOWING ERASABLE QUANTITIES ARE USED BY THE TFF ROUTINES, AND ARE LOCATED IN THE PUSH LIST.
000043:
000044:                                                                                                  #  BELOW      E:   IS USED FOR EARTH ORIGIN SCALE
000045:                                                                                                  #             M:   IS USED FOR MOON  ORIGIN SCALE
000046:
000047:                                                                                                  # TFFSW          =       119D       BIT1      0 = CALCTFF        1 = CALCTPER
000048: 10,2213                        TFFDELQ            =        10D                                   #             Q2-Q1              E: (-16)  M: (-15)
000049: 10,2213                        RMAG1              =        12D                                   #             ABVAL(RN)  M       E: (-29)  M: (-27)
000050:                                                                                                  # RPER           =       14D                  PERIGEE RADIUS M   E: (-29)  M: (-27)
000051: 10,2213                        TFFQ1              =        14D                                   #             R.V / SQRT(MUE)    E: (-16)  M: (-15)
000052:                                                                                                  # SDELF/2                                     SIN(THETA) /2
000053: 10,2213                        CDELF/2            =        14D                                   #             COS(THETA) /2
000054:                                                                                                  # RAPO           =       16D                  APOGEE RADIUS  M   E: (-29)  M: (-27)
000055: 10,2213                        NRTERM             =        16D                                   #             TERMINAL RADIUS M  E: (-29+NR)
000056:                                                                                                  #                                M: (-27+NR)
000057: 10,2213                        RTERM              =        18D                                   #             TERMINAL RADIUS M  E: (-29)  M: (-27)
000058: 10,2213                        TFFVSQ             =        20D                                   #             -(V SQUARED/MU)  1/M  E: (20)  M: (18)
000059: 10,2213                        TFF1/ALF           =        22D                                   #             SEMI MAJ AXIS  M  E: (-22-2 NA)
000060:                                                                                                  #                               M: (-20-2 NA)
000061: 10,2213                        TFFRTALF           =        24D                                   #             SQRT(ALFA)  E: (10+NA)  M: (9+NA)
000062: 10,2213                        TFFALFA            =        26D                                   #             ALFA  1/M   E: (26-NR)  M: (24-NR)
000063: 10,2213                        TFFNP              =        28D                                   #             SEMI LATUS RECTUM  M  E: (-38+2 NR)
000064:                                                                                                  #                                   M: (-36+2 NR)
000065: 10,2213                        TFF/RTMU           =        30D                                   #             1/SQRT(MU)         E: (17)   M: (14)
000066: 10,2213                        NRMAG              =        32D                                   #             PRESENT RADIUS  M  E: (-29+NR)
000067:                                                                                                  #                                M: (-27+NR)
000068: 10,2213                        TFFX               =        34D
000069: 10,2213                        TFFTEM             =        36D                                   #             TEMPORARY
000070:


000072:                                                                                                  #                                           REGISTERS S1, S2 ARE UNTOUCHED BY ANY TFF SUBROUTINE
000073:                                                                                                  #                                           INDEX REGISTERS X1, X2 ARE USED BY ALL TFF SUBROUTINES. THEY ARE ESTAB-
000074:                                                                                                  #                                           LISHED IN TFF/CONIC AND MUST BE PRESERVED BETWEEN CALLS TO SUBSEQUENT
000075:                                                                                                  #                                           SUBROUTINES.
000076:                                                                                                  #                                           -NR                             C(X1) = NORM COUNT OF RMAG
000077:                                                                                                  #                                           -NA                             C(X2)= NORM COUNT OF SQRT(ABS(ALFA))
000078:


000080:
000081:
000082:                                                                                                  #  SUBROUTINE NAME:     TFFCONIC                                           DATE:    01.29.67
000083:                                                                                                  #  MOD NO:  0                                                              LOG SECTION:    TIME OF FREE FALL
000084:                                                                                                  #  MOD BY:  RR BAIRNSFATHER
000085:                                                                                                  #  MOD NO:  1           MOD BY:  RR BAIRNSFATHER      DATE:  11 APR 67
000086:                                                                                                  #  MOD NO:  2           MOD BY:  RR BAIRNSFATHER      DATE:  21 NOV 67     ADD MOON MU.
000087:                                                                                                  #  MOD NO:  3           MOD BY:  RR BAIRNSFATHER      DATE:  21 MAR 68     ACCEPT DIFFERENT EARTH/MOON SCALES
000088:                                                                                                  #  FUNCTIONAL DESCRIPTION:      THIS SUBROUTINE IS CALLED TO COMPUTE THOSE CONIC PARAMETERS REQUIRED BY THE TFF
000089:                                                                                                  #           SUBROUTINES AND TO ESTABLISH THEM IN THE PUSH LIST AREA. THE PARAMETERS ARE LISTED UNDER OUTPUT.
000090:                                                                                                  #           THE EQUATIONS ARE
000091:                                                                                                  #                  -   -  -
000092:                                                                                                  #                  H = RN*VN                                               ANGULAR MOMENTUM
000093:                                                                                                  #                        - -
000094:                                                                                                  #                  LCP = H.H / MU                                          SEMI LATUS RECTUM
000095:                                                                                                  #                                -  -
000096:                                                                                                  #                  ALFA = 2/RN - VN.VN / MU                                RECIPROCAL SEMI MAJ AXIS, SIGNED
000097:
000098:                                                                                                  #           AND ALFA IS POS FOR ELLIPTIC  ORBITS
000099:                                                                                                  #                        0  FOR PARABOLIC ORBITS
000100:                                                                                                  #                       NEG FOR HYPERBOLIC ORBITS.
000101:                                                                                                  #           SUBROUTINE ALSO COMPUTES AND SAVES  RMAG.
000102:                                                                                                  #  CALLING SEQUENCE:
000103:                                                                                                  #           TFFCONIC  EXPECTS CALLER TO ENTER WITH CORRECT GRAVITATIONAL CONSTANT IN MPAC, IN THE FORM
000104:                                                                                                  #           1/SQRT(MU). PROGRAM WILL SAVE IN  TFF/RTMU  . THE SCALE IS DETERMINED BY WHETHER EARTH OR MOON
000105:                                                                                                  #           ORIGIN IS USED.  THE CALLER MUST LOCK OUT THE EXTENDED VERBS BEFORE PROVIDING STATE VECTOR IN RONE,
000106:                                                                                                  #           VONE  AT PROPER SCALE. THE EXTENDED VERBS MUST BE RESTORED WHEN THE CALLER IS FINISHED USING THE
000107:                                                                                                  #           TFF ROUTINES.
000108:                                                                                                  #           ENTRY POINT  TFFCONMU  EXPECTS THAT  TFF/RTMU  IS ALREADY LOADED.
000109:                                                                                                  #           TO SPECIFY MU:      DLOAD  CALL                IF MU ALREADY STORED:    CALL
000110:                                                                                                  #                                      YOURMU       1/RTMU   E: (17)  M: (14)              TFFCONMU
000111:                                                                                                  #                                      TFFCONIC
000112:                                                                                                  #           PUSHLOC = PDL+0, ARBITRARY IF LEQ 18D
000113:
000114:                                                                                                  #  SUBROUTINES CALLED:  NONE
000115:                                                                                                  #  NORMAL EXIT MODES:   RVQ
000116:                                                                                                  #  ALARMS:  NONE
000117:                                                                                                  #  OUTPUT:  THE FOLLOWING ARE STORED IN THE PUSH LIST AREA.
000118:                                                                                                  #           RMAG1  E:(-29) M:(-27) M  RN, PRESENT RADIUS LENGTH.
000119:                                                                                                  #           NRMAG  E: (-29+NR)     M  RMAG, NORMALIZED
000120:                                                                                                  #                  M: (-27+NR)
000121:                                                                                                  #           X1                     -NR, NORM COUNT
000122:                                                                                                  #           TFFNP  E: (-38+2NR)    M  LCP, SEMI LATUS RECTUM, WEIGHTED BY NR.       FOR VGAMCALC
000123:                                                                                                  #                  M: (-36+2NR)
000124:                                                                                                  #           TFF/RTMU  E:(17)  M:(14)       1/SQRT(MU)
000125:                                                                                                  #           TFFVSQ E:(20)  M:(18)  1/M   -(V SQ/MU): PRESENT VELOCITY,NORMLIZED.    FOR VGAMCALC
000126:                                                                                                  #           TFFALFA  E: (26-NR)    1/M   ALFA, WEIGHTED BY NR
000127:                                                                                                  #                    M: (24-NR)
000128:                                                                                                  #           TFFRTALF  E: (10+NA)   SQRT(ALFA), NORMALIZED
000129:                                                                                                  #                     M: (9+NA)


000131:                                                                                                  #           X2                     -NA, NORM COUNT
000132:                                                                                                  #           TFF1/ALF  E: (-22-2NA) SIGNED SEMI MAJ AXIS, WEIGHTED BY NA
000133:                                                                                                  #                     M: (-20-2NA)
000134:                                                                                                  #           PUSHLOC AT PDL+0
000135:                                                                                                  #           THE FOLLOWING  IS STORED IN GENERAL ERASABLE
000136:                                                                                                  #           VONE'  E:(10)  M:(9)   V/RT(MU), NORMALIZED VELOCITY
000137:                                                                                                  #  ERASABLE INITIALIZATION REQUIRED:
000138:                                                                                                  #           RONE   E:(-29)  M:(-27)  M      STATE VECTOR                   LEFT BY CALLER
000139:                                                                                                  #           VONE   E:(-7)   M:(-5)   M/CS   STATE VECTOR                   LEFT BY CALLER
000140:                                                                                                  #           TFF/RTMU  E:(17)  M:(14)      1/RT(CS SQ/M CUBE)               IF ENTER VIA  TFFCONMU.
000141:                                                                                                  #  DEBRIS:  QPRET,    PDL+0 ... PDL+3
000142:
000143:
000144: 33,3521                                           BANK     33
000145: 27,2000                                           SETLOC   TOF-FF
000146: 27,2000                                           BANK
000147:
000148: 27,3365                                           COUNT*   $$/TFF
000149:
000150: 27,3365           00037        TFFCONIC           STORE    TFF/RTMU                              #  1/SQRT(MU)       E: (17)   M: (14)
000151:
000152: 27,3366           53575        TFFCONMU           VLOAD    UNIT                                  #  COME HERE WITH TFFRTMU LOADED.
000153: 27,3367           02207                                    RONE                                  #  SAVED RN.  M     E: (-29)  M: (-27)
000154: 27,3370           77725                           PDDL                                           #  UR/2 TO PDL+0, +5
000155: 27,3371           00045                                    36D                                   #  MAGNITUDE
000156: 27,3372           00015                           STORE    RMAG1                                 #  M    E: (-29)   M: (-27)
000157:
000158: 27,3373           77701                           NORM
000159: 27,3374           00047                                    X1                                    #  -NR
000160: 27,3375           24041                           STOVL    NRMAG                                 #  RMAG  M   E: (-29+NR)  M: (-27+NR)
000161: 27,3376           02215                                    VONE                                  #  SAVED VN.  M/CS   E: (-7)   M: (-5)
000162: 27,3377           77761                           VXSC
000163: 27,3400           00037                                    TFF/RTMU                              #  E: (17)   M: (14)
000164: 27,3401           02170                           STORE    VONE'                                 #  VN/SQRT(MU)   E: (10)   M: (9)
000165:
000166: 27,3402           47361                           VXSC     VXV
000167: 27,3403           00041                                    NRMAG                                 #  E: (-29+NR)  M: (-27+NR)
000168:                                                                                                  #  UR/2 FROM PDL
000169: 27,3404           47572                           VSL1     VSQ                                   #  BEFORE:  E:(-19+NR)  M:(-18+NR)
000170: 27,3405           14035                           STODL    TFFNP                                 #  LC P  M   E:(-38+2NR)  M:(-36+2NR)
000171:                                                                                                  #  SAVE ALSO FOR VGAMCALC
000172: 27,3406           06510                                    TFF1/4
000173: 27,3407           63271                           DDV      PDVL                                  #  (2/RMAG)  1/M   E:(26-NR)   M:(24-NR)
000174: 27,3410           00041                                    NRMAG                                 #  RMAG  M   E:(-29+NR)  M:(-27+NR)
000175: 27,3411           02170                                    VONE'                                 #  SAVED VN.   E: (10)   M: (9)
000176: 27,3412           57436                           VSQ      DCOMP                                 #  KEEP MPAC+2 HONEST FOR SQRT.
000177: 27,3413           00025                           STORE    TFFVSQ                                #  -(V SQ/MU)   E:(20)   M:(18)
000178:                                                                                                  #  SAVE FOR VGAMCALC
000179: 27,3414           43257                           SR*      DAD


000181: 27,3415           20573                                    0          -6,1                       #  GET -VSQ/MU   E:(26-NR)   M:(24-NR)
000182: 27,3416           77626                           STADR
000183:                                                                                                  #  2/RMAG   FROM PDL+2
000184: 27,3417           77744                           STORE    TFFALFA                               #  ALFA  1/M   E:(26-NR)   M:(24-NR)
000185: 27,3420           41457                           SL*      PUSH                                  #  TEMP SAVE ALFA    E:(20)   M:(18)
000186: 27,3421           20173                                    0          -6,1
000187: 27,3422           75446                           ABS      SQRT                                  #  E:(10)   M:(9)
000188: 27,3423           77701                           NORM
000189: 27,3424           00050                                    X2                                    #  X2 = -NA
000190: 27,3425           00031                           STORE    TFFRTALF                              #  SQRT( ABS(ALFA) )  E:(10+NA)   M:(9+NA)
000191: 27,3426           75316                           DSQ      SIGN                                  #  NOT SO ACCURATE, BUT OK
000192:                                                                                                  #  ALFA FROM PDL+2   E:(20)   M:(18)
000193: 27,3427           55254                           BZE      BDDV                                  #  SET 1/ALFA =0, TO SHOW SMALL ALFA
000194: 27,3430           57432                                    +2
000195: 27,3431           06510                                    TFF1/4
000196: 27,3432           00027                 +2        STORE    TFF1/ALF                              #  1/ALFA   E:(-22-2 NA)   M:(-20-2 NA)
000197: 27,3433           77616        DUMPCNIC           RVQ
000198:
000199:                                                                                                  #                          39 W
000200:


000202:                                                                                                  #  SUBROUTINE NAME:     TFFRP/RA                                           DATE:  01.17.67
000203:                                                                                                  #  MOD NO:  0                                                              LOG SECTION:    TIME OF FREE FALL
000204:                                                                                                  #  MOD BY:  RR BAIRNSFATHER
000205:                                                                                                  #  MOD NO:  1           MOD BY:  RR BAIRNSFATHER      DATE:  11 APR 67
000206:                                                                                                  #  MOD NO:  2           MOD BY:  RR BAIRNSFATHER      DATE:  21 MAR 68     ACCEPT DIFFERENT EARTH/MOON SCALES
000207:                                                                                                  #                                                                          ALSO IMPROVE ACCURACY OF RAPO.
000208:                                                                                                  #  FUNCTIONAL DESCRIPTION:         USED BY CALCTPER AND TFF DISPLAYS TO CALCULATE PERIGEE RADIUS AND ALSO
000209:                                                                                                  #           APOGEE RADIUS FOR A GENERAL CONIC.
000210:                                                                                                  #           PROGRAM GIVES PERIGEE RADIUS AS               APOGEE RADIUS IS GIVEN BY
000211:                                                                                                  #                  RP = P /(1+E)                                 RA = (1+E) / ALFA
000212:                                                                                                  #           WHERE   2
000213:                                                                                                  #                  E  = 1 - P ALFA
000214:                                                                                                  #           IF RA IS NEGATIVE OR SHOWS DIVIDE OVERFLOW, THEN RA = POSMAX BECAUSE
000215:                                                                                                  #                  1. APOGEE RADIUS IS NOT MEANINGFUL FOR HYPERBOLA
000216:                                                                                                  #                  2. APOGEE RADIUS IS NOT DEFINED FOR PARABOLA
000217:                                                                                                  #                  3. APOGEE RADIUS EXCEEDS THE SCALING FOR ELLIPSE.
000218:                                                                                                  #           THIS SUBROUTINE REQUIRES THE SIGNED  RECIPROCAL SEMI MAJ AXIS,  ALFA,  AND SEMI LATUS RECTUM AS DATA.
000219:                                                                                                  #  CALLING SEQUENCE:  CALL
000220:                                                                                                  #                            TFFRP/RA
000221:                                                                                                  #           PUSHLOC = PDL+0, ARBITRARY IF LEQ 10D
000222:                                                                                                  #           C(MPAC) UNSPECIFIED
000223:
000224:                                                                                                  #  SUBROUTINES CALLED:  NONE
000225:                                                                                                  #  NORMAL EXIT MODE:    RVQ
000226:                                                                                                  #           IF ELLIPSE, WITHIN NORMAL SCALING, RAPO IS CORRECT.
000227:                                                                                                  #           OTHERWISE, RAPO = POSMAX.
000228:                                                                                                  #  ALARMS:  NONE
000229:                                                                                                  #  OUTPUT:  STORED IN PUSH LIST AREA. SCALE OF OUTPUT AGREES WITH DATA SUPPLIED TO  TFF/CONIC.
000230:                                                                                                  #           RPER   E:(-29)  M:(-27)  M     PERIGEE RADIUS                  DESTROYED BY CALCTFF/CALCTPER, TFFTRIG.
000231:                                                                                                  #           RAPO   E:(-29)  M:(-27)  M     APOGEE  RADIUS                  WILL BE DESTROYED BY CALCTFF/CALCTPER
000232:                                                                                                  #           PUSHLOC AT PDL+0
000233:                                                                                                  #  ERASABLE INITIALIZATION REQUIRED:
000234:                                                                                                  #           TFFALFA E:(26-NR)      M   1/SEMI MAJ AXIS                     LEFT BY TFFCONIC
000235:                                                                                                  #                   M:(24-NR)
000236:                                                                                                  #           TFFNP  E: (-38+2NR)    M  LC P, SEMI LATUS RECTUM              LEFT BY TFFCONIC
000237:                                                                                                  #                  M: (-36+2NR)
000238:                                                                                                  #           X1                     -NR, NORM COUNT OF RMAG                 LEFT BY TFFCONIC
000239:                                                                                                  #           X2                     -NA, NORM COUNT OF ALFA                 LEFT BY TFFCONIC
000240:                                                                                                  #  DEBRIS:  QPRET,    PDL+0 ... PDL+1
000241:


000243: 27,3434                        RAPO               =        16D                                   #  APOGEE RADIUS  M  E:(-29)  M:(-27)
000244: 27,3434                        RPER               =        14D                                   #  PERIGEE RADIUS  M  E:(-29)  M:(-27)
000245:
000246: 27,3434           41345        TFFRP/RA           DLOAD    DMP
000247: 27,3435           00033                                    TFFALFA                               #  ALFA  1/M  E:(26-NR)   M:(24-NR)
000248: 27,3436           00035                                    TFFNP                                 #  LC P  M   E:(-38+2NR)   M:(-36+2NR)
000249: 27,3437           57457                           SR*      DCOMP                                 #  ALFA P (-12+NR)
000250: 27,3440           20571                                    0          -8D,1                      #  ALFA P  (-4)
000251: 27,3441           51415                           DAD      ABS                                   #  (DCOMP GIVES VALID TP RESULT FOR SQRT)
000252:                                                                                                  #  (ABS PROTECTS SQRT IF E IS VERY NEAR 0)
000253: 27,3442           17772                                    DP2(-4)
000254: 27,3443           43366                           SQRT     DAD                                   #  E SQ = (1- P ALFA)   (-4)
000255: 27,3444           06510                                    TFF1/4
000256: 27,3445           55206                           PUSH     BDDV                                  #  (1+E)  (-2)  TO PDL+0
000257: 27,3446           00035                                    TFFNP                                 #  LCP  M E:(-38+2NR)   M:(-36+2NR)
000258: 27,3447           53657                           SR*      SR*                                   #  (DOES SR THEN SL TO AVOID OVFL)
000259: 27,3450           20601                                    0,1                                   #  X1=-NR
000260: 27,3451           20572                                    0          -7,1                       #  (EFFECTIVE SL)
000261: 27,3452           14017                           STODL    RPER                                  #  PERIGEE RADIUS  M   E:(-29)   M:(-27)
000262:                                                                                                  #  (1+E)  (-2)   FROM PDL+0
000263: 27,3453           41005                           DMP      BOVB
000264: 27,3454           00027                                    TFF1/ALF                              #  E:(-22-2NA)  M:(-20-2NA)
000265: 27,3455           57760                                    TCDANZIG                              #  CLEAR OVFIND, IF ON.
000266: 27,3456           53654                           BZE      SL*
000267: 27,3457           57466                                    MAXRA                                 #  SET POSMAX, IF ALFA=0
000268: 27,3460           57603                                    0          -5,2                       #  -5+NA
000269: 27,3461           40057                           SL*      BOV
000270: 27,3462           57576                                    0,2
000271: 27,3463           57466                                    MAXRA                                 #  SET POSMAX IF OVFL.
000272: 27,3464           77644                           BPL                                            #  CONTINUE WITH VALID RAPO.
000273: 27,3465           57470                                    +3
000274: 27,3466           77745        MAXRA              DLOAD                                          #  RAPO CALC IS NOT VALID. SET RAPO =
000275: 27,3467           17776                                    NEARONE                               #  POSMAX AS A TAG.
000276: 27,3470           00021                 +3        STORE    RAPO                                  #  APOGEE RADIUS  M   E:(-29)   M:(-27)
000277: 27,3471           77616        DUMPRPRA           RVQ
000278:
000279:                                                                                                  #                          30 W
000280:


000282:                                                                                                  #  SUBROUTINE NAME:     CALCTPER  /  CALCTFF                               DATE:    01.29.67
000283:                                                                                                  #  MOD NO:  0                                                              LOG SECTION:    TIME OF FREE FALL
000284:                                                                                                  #  MOD BY:  RR BAIRNSFATHER
000285:                                                                                                  #  MOD NO:  1           MOD BY:  RR BAIRNSFATHER      DATE:  21 MAR 67
000286:                                                                                                  #  MOD NO:  2           MOD BY:  RR BAIRNSFATHER      DATE:  14 APR 67
000287:                                                                                                  #  MOD NO:  3           MOD BY:  RR BAIRNSFATHER      DATE:  8JUL 67       NEAR EARTH MUE AND NEG TFF (GONEPAST)
000288:                                                                                                  #  MOD NO:  4           MOD BY:  RR BAIRNSFATHER      DATE:  21 NOV 67     ADD VARIABLE MU.
000289:                                                                                                  #  MOD NO:  5           MOD BY:  RR BAIRNSFATHER      DATE:  21 MAR 68     ACCEPT DIFFERENT EARTH/MOON SCALES
000290:                                                                                                  #  FUNCTIONAL DESCRIPTION:      PROGRAM CALCULATES THE FREE-FALL TIME OF FLIGHT FROM PRESENT POSITION  RN  AND
000291:                                                                                                  #           VELOCITY  VN  TO A RADIUS LENGTH SPECIFIED BY  RTERM  , SUPPLIED BY THE USER. THE POSITION VECTOR
000292:                                                                                                  #           RN  MAY BE ON EITHER SIDE OF THE CONIC, BUT  RTERM  IS CONSIDERED ON THE INBOUND SIDE.
000293:                                                                                                  #           THE EQUATIONS ARE
000294:
000295:                                                                                                  #                  Q2 = -SQRT(RTERM (2-RTERM ALFA) - LCP)    (INBOUND SIDE))        LEQ +- LCE/SQRT(ALFA)
000296:                                                                                                  #                       -  -
000297:                                                                                                  #                  Q1 = RN.VN / SQRT(MU)                                            LEQ +- LCE/SQRT(ALFA)
000298:
000299:                                                                                                  #                  Z = NUM / DEN                                                    LEQ +- 1/SQRT(ALFA)
000300:
000301:                                                                                                  #           WHERE, IF INBOUND
000302:                                                                                                  #                  NUM = RTERM - RN                                                 LEQ +- 2 LCE/ALFA
000303:                                                                                                  #                  DEN = Q2+Q1                                                      LEQ +- 2 LCE/SQRT(ALFA)
000304:
000305:                                                                                                  #           AND, IF OUTBOUND
000306:                                                                                                  #                  NUM = Q2-Q1                                                      LEQ +- 2 LCE/SQRT(ALFA)
000307:                                                                                                  #                  DEN = 2 - ALFA (RTERM + RN) .                                    LEQ +- 2 LCE
000308:
000309:                                                                                                  #           IF     ALFA ZZ  <  1.0               (FOR ALL CONICS EXCEPT ELLIPSES HAVING ABS(DEL ECC ANOM) G 90 DEG)
000310:
000311:                                                                                                  #           THEN   X = ALFA Z Z
000312:                                                                                                  #           AND    TFF = (RTERM +RN -2 ZZ T(X) ) Z/SQRT(MU)
000313:
000314:                                                                                                  #                  EXCEPT IF ALFA PNZ, AND IF TFF NEG,
000315:                                                                                                  #                  THEN   TFF = 2 PI /(ALFA SQRT(ALFA)) + TFF
000316:
000317:                                                                                                  #           OR IF  ALFA ZZ  GEQ  1.0             (FOR ELLIPSES HAVING ABS(DEL ECC ANOM) GEQ 90 DEG)
000318:
000319:                                                                                                  #           THEN   X = 1/ALFA Z Z
000320:                                                                                                  #           AND    TFF = (PI/SQRT(ALFA) -Q2 +Q1 +2(X T(X) -1) /ALFA Z) /ALFA SQRT(MU)
000321:
000322:                                                                                                  #           WHERE  T(X) IS A POLYNOMIAL APPROXIMATION TO THE SERIES
000323:                                                                                                  #                             2     3                        2
000324:                                                                                                  #                  1/3 -X/5 +X /7 -X /9 ...                (X   <  1.0)
000325:
000326:                                                                                                  #  CALLING SEQUENCE:  TIME TO RTERM                           TIME TO PERIGEE
000327:                                                                                                  #                     CALL                                    CALL
000328:                                                                                                  #                            CALCTFF                                 CALCTPER
000329:                                                                                                  #                     C(MPAC) = TERMNL RAD  M                 C(MPAC) = PERIGEE RAD  M
000330:                                                                                                  #           FOR EITHER,   E: (-29)    M: (-27)
000331:                                                                                                  #           FOR EITHER, PUSHLOC = PDL+0, ARBITRARY IF LEQ 8D.
000332:


000334:                                                                                                  #  SUBROUTINES CALLED:  T(X),  VIA RTB
000335:                                                                                                  #  NORMAL EXIT MODE:  RVQ
000336:                                                                                                  #           HOWEVER, PROGRAM EXITS WITH ONE OF THE FOLLOWING VALUES FOR TFF (-28) CS  IN MPAC. USER MUST STORE.
000337:                                                                                                  #                  A.  TFF= FLIGHT TIME. NORMAL CASE FOR POSITIVE FLIGHT TIME LESS THAN ONE ORBITAL PERIOD.
000338:                                                                                                  #                  B.  (THIS OPTION IS NO LONGER USED.)
000339:                                                                                                  #                  C.  TFF = POSMAX.  THIS INDICATES THAT THE CONIC FROM THE PRESENT POSITION WILL NOT RETURN TO
000340:                                                                                                  #                      THE SPECIFIED ALTITUDE.  ALSO INDICATES OUTBOUND PARABOLA OR HYPERBOLA.
000341:                                                                                                  #  OUTPUT:  C(MPAC)  (-28)  CS     TIME OF FLIGHT, OR TIME TO PERIGEE
000342:                                                                                                  #           TFFX    (0)            X,                                      LEFT FOR ENTRY DISPLAY TFF ROUTINES
000343:                                                                                                  #           NRTERM  E: (-29+NR)    M  RTERM, WEIGHTED BY NR                LEFT FOR ENTRY DISPLAY TFF ROUTINES
000344:                                                                                                  #                   M: (-27+NR)
000345:                                                                                                  #           TFFTEM  E: (-59+2NR)   LCP Z Z SGN(SDELF)                      LEFT FOR ENTRY DISPLAY TFF ROUTINES
000346:                                                                                                  #                   M: (-55+2NR)   LCP /ALFA SGN(SDELF)                    LEFT FOR ENTRY DISPLAY TFF ROUTINES
000347:                                                                                                  #           NOTE:  TFFTEM = PDL 36D AND WILL BE DESTROYED BY .:UNIT:.
000348:                                                                                                  #           RMAG1  E:(-29)  M:(-27)  PDL 12 NOT TOUCHED.
000349:                                                                                                  #           TFFQ1  E:(-16)  M:(-15)  PDL 14D
000350:                                                                                                  #           TFFDELQ E:(-16) M:(-15)  PDL 10D
000351:                                                                                                  #           PUSHLOC AT PDL+0
000352:                                                                                                  #  ERASABLE INITIALIZATION REQUIRED:
000353:                                                                                                  #           RONE   E:(-29)  M:(-27)  M   STATE VECTOR                      LEFT BY USER
000354:                                                                                                  #           VONE'  E:(+10)  M:(+9)   VN/SQRT(MU)                           LEFT BY TFF/CONIC
000355:                                                                                                  #           RMAG1  E:(-29)  M:(-27)  PRESENT RADIUS,  M                    LEFT BY TFFCONIC
000356:                                                                                                  #           C(MPAC)E:(-29)  M:(-27)  RTERM, TERMINAL RADIUS LENGTH, M      LEFT BY USER
000357:
000358:                                                                                                  #           THE FOLLOWING ARE STORED IN THE PUSH LIST AREA.
000359:                                                                                                  #           TFF/RTMU  E:(17)  M:(14)  1/SQRT(MU)                           LEFT BY TFFCONIC.
000360:                                                                                                  #           NRMAG  E: (-29+NR)  M  RMAG, NORMALIZED                        LEFT BY TFFCONIC
000361:                                                                                                  #                  M: (-27+NR)
000362:                                                                                                  #           X1                     -NR, NORM COUNT                         LEFT BY TFFCONIC
000363:                                                                                                  #           TFFNP  E: (-38+2NR)  M   LCP, SEMI LATUS RECTUM, WEIGHT  NR    LEFT BY TFFCONIC
000364:                                                                                                  #                  M: (-36+2NR)
000365:                                                                                                  #           TFFALFA  E: (26-NR)    1/M  ALFA, WEIGHT  NR                   LEFT BY TFFCONIC
000366:                                                                                                  #                    M: (24-NR)
000367:                                                                                                  #           TFFRTALF  E:(10+NA)    SQRT(ALFA), NORMALIZED                  LEFT BY TFFCONIC
000368:                                                                                                  #                     M:(9+NA)
000369:                                                                                                  #           X2                     -NA, NORM COUNT                         LEFT BY TFFCONIC
000370:                                                                                                  #           TFF1/ALF  E: (-22-2NA)  SIGNED SEMIMAJ AXIS, WEIGHTED BY NA    LEFT BY TFFCONIC
000371:                                                                                                  #                     M: (-20-2NA)
000372:                                                                                                  #  DEBRIS:  QPRET,   PDL+0 ... PDL+3
000373:                                                                                                  #           RTERM  E:(-29)  M:(-27)  RTERM, TERMINAL RADIUS LENGTH
000374:                                                                                                  #           RAPO   E:(-29)  M:(-27)  PDL 16D  (=NRTERM)
000375:                                                                                                  #           RPER   E:(-29)  M:(-27)  PDL 14D   (=TFFQ1)
000376:


000378: 27,3472           77614        CALCTPER           SETGO                                          #  ENTER WITH RPER  IN MPAC
000379: 27,3473           03436                                    TFFSW
000380: 27,3474           57477                                    +3
000381: 27,3475           77614        CALCTFF            CLEAR                                          #  ENTER WITH RTERM IN MPAC
000382: 27,3476           03676                                    TFFSW
000383: 27,3477           00023                 +3        STORE    RTERM                                 #  E: (-29)  M: (-27)
000384: 27,3500           77657                           SL*
000385: 27,3501           20201                                    0,1                                   #  X1=-NR
000386: 27,3502           00021                           STORE    NRTERM                                #  RTERM  E: (-29+NR)  M: (-27+NR)
000387: 27,3503           44205                           DMP      BDSU
000388: 27,3504           00033                                    TFFALFA                               #  ALFA  E: (26-NR)  M: (24-NR)
000389: 27,3505           06510                                    TFF1/4
000390: 27,3506           41206                           PUSH     DMP                                   #  (2-ALFA RTERM)  (-3)  TO PDL+0
000391: 27,3507           00021                                    NRTERM                                #  E: (-29+NR)  M: (-27+NR)
000392: 27,3510           53725                           PDDL     SR*                                   #  RTERM(2-ALFA RTERM) TO PDL+2
000393:                                                                                                  #  E: (-32+NR)   M: (-30+NR)
000394: 27,3511           00035                                    TFFNP                                 #  LC P  E:(-38+2NR)  M:(-36+2NR)
000395: 27,3512           20573                                    0          -6,1                       #  X1 = -NR
000396: 27,3513           43276                           DCOMP    DAD                                   #  DUE TO SHIFTS, KEEP PRECISION FOR SQRT
000397:                                                                                                  #  RTERM(2-ALFA RTERM) FROM PDL+2
000398:                                                                                                  #  E: (-32+NR)  M: (-30+NR)
000399: 27,3514           77657                           SR*                                            #  LEAVE  E: (-32)  M: (-30)
000400: 27,3515           20601                                    0,1                                   #  X1 = -NR
000401: 27,3516           71214                           BOFF     DLOAD                                 #  CHECK TFF / TPER SWITCH
000402: 27,3517           03756                                    TFFSW
000403: 27,3520           57522                                    +2                                    #  IF TFF, CONTINUE
000404: 27,3521           06520                                    TFFZEROS                              #  IF TPER, SET Q2 = 0
000405: 27,3522           75440                 +2        BMN      SQRT                                  #  E: (-16)  M: (-15)
000406:
000407: 27,3523           57655                                    MAXTFF1                               #  NO FREE FALL CONIC TO RTERM FROM HERE
000408:                                                                                                  #  RESET PDL, SET TFF=POSMAX, AND EXIT.
000409:
000410: 27,3524           41076                           DCOMP    BOVB                                  #  RT IS ON INBOUND SIDE.  ASSURE OVFIND=0
000411: 27,3525           57760                                    TCDANZIG                              #  ANY PORT IN A STORM.
000412: 27,3526           24045                           STOVL    TFFTEM                                #  Q2   E: (-16)  M: (-15)
000413: 27,3527           02170                                    VONE'                                 #  VN/SQRT(MU) E: (10)  M: (9)
000414: 27,3530           52441                           DOT      SL3
000415: 27,3531           02207                                    RONE                                  #  SAVED RN.  E: (-29)  M: (-27)
000416: 27,3532           00017                           STORE    TFFQ1                                 #  Q1, SAVE FOR GONEPAST TEST.
000417:                                                                                                  #  E: (-16)  M: (-15)
000418: 27,3533           44240                           BMN      BDSU
000419: 27,3534           57555                                    INBOUND                               #  USE ALTERNATE Z
000420: 27,3535           00045                                    TFFTEM                                #  Q2  E: (-16)  M: (-15)
000421:
000422:                                                                                                  #                                          OUTBOUND Z CALC CONTINUES HERE
000423:
000424: 27,3536           14043                           STODL    TFFX                                  #  NUM=Q2-Q1  E: (-16)  M: (-15)
000425: 27,3537           00033                                    TFFALFA                               #  ALFA  E: (26-NR)  M: (24-NR)
000426: 27,3540           44205                           DMP      BDSU


000428: 27,3541           00041                                    NRMAG                                 #  RMAG  E: (-29+NR)  M: (-27+NR)
000429:                                                                                                  #  (2-RTERM ALFA)  (-3) FROM PDL+0
000430: 27,3542           51406        SAVEDEN            PUSH     ABS                                   #  DEN TO PDL+0  E: (-3) OR (-16)
000431:                                                                                                  #                M: (-3) OR (-15)
000432: 27,3543           40015                           DAD      BOV                                   #  INDETERMINANCY TEST
000433: 27,3544           17764                                    LIM(-22)                              #  =1.0-B(-22)
000434: 27,3545           57566                                    TFFXTEST                              #  GO IF DEN >/= B(-22)
000435: 27,3546           65345                           DLOAD    PDDL                                  #  SET DEN=0  OTHERWISE
000436: 27,3547           06520                                    TFFZEROS
000437:                                                                                                  #  XCH ZERO WITH PDL+0
000438: 27,3550           57545                           DLOAD    DCOMP
000439: 27,3551           00033                                    TFFALFA                               #  ALFA  E: (26-NR)  M: (24-NR)
000440: 27,3552           71240                           BMN      DLOAD                                 #  FOR TPER: Z INDET AT DELE/2=0 AND 90.
000441: 27,3553           57662                                    TFFEL1                                #  ASSUME 90, AND LEAVE 0 IN PDL: 1/Z=D/N
000442:
000443:                                                                                                  #  Z INDET. AT PERIGEE FOR PARAB OR HYPERB.
000444: 27,3554           77616        DUMPTFF1           RVQ                                            #  RETURN  TFF =0
000445:
000446:                                                                                                  #                                          INBOUND Z CALC CONTINUES HERE
000447: 27,3555           77745        INBOUND            DLOAD                                          #  RESET PDL+0
000448: 27,3556           45345                           DLOAD    DSU                                   #  ALTERNATE Z CALC
000449: 27,3557           00023                                    RTERM                                 #  E: (-29)  M: (-27)
000450: 27,3560           00015                                    RMAG1                                 #  E: (-29)  M: (-27)
000451: 27,3561           14043                           STODL    TFFX                                  #  NUM=RTERM-RN  E: (-29)  M: (-27)
000452: 27,3562           00045                                    TFFTEM                                #  Q2  E: (-16)  M: (-15)
000453: 27,3563           52015                           DAD      GOTO
000454: 27,3564           00017                                    TFFQ1                                 #  Q1  E: (-16)  M: (-15)
000455: 27,3565           57542                                    SAVEDEN                               #  DEN = Q2+Q1   E: (-16)  M: (-15)
000456:
000457: 27,3566           65215        TFFXTEST           DAD      PDDL                                  #   (ABS(DEN) TO PDL+2))  E: (-3) OR (-16)
000458:                                                                                                  #                         M: (-3) OR (-15)
000459: 27,3567           17766                                    DP(-22)                               #  RESTORE ABS(DEN) TO MPAC
000460: 27,3570           00043                                    TFFX                                  #  NUM E:(-16) OR (-29)  M:(-15) OR (-27)
000461: 27,3571           53605                           DMP      SR*
000462: 27,3572           00031                                    TFFRTALF                              #  SQRT(ALFA)  E: (10+NA)  M: (9+NA)
000463: 27,3573           57201                                    0          -3,2                       #  X2=-NA
000464: 27,3574           77671                           DDV                                            #  C(MPAC) =NUM SQRT(ALFA)  E:(-3) OR (-16)
000465:                                                                                                  #                           M:(-3) OR (-15)
000466:                                                                                                  #  ABS(DEN) FROM PDL+2  E:(-3) OR (-16)
000467:                                                                                                  #                       M:(-3) OR (-15)
000468: 27,3575           40145                           DLOAD    BOV                                   #  (THE DLOAD IS SHARED WITH TFFELL)
000469: 27,3576           00043                                    TFFX                                  #  NUM  E: (-16) OR (-29)  M:(-15) OR (-27)
000470: 27,3577           57660                                    TFFELL                                #  USE EQN FOR DELE GEQ 90, LEQ -90
000471:
000472:                                                                                                  #                                          OTHERWISE, CONTINUE FOR GENERAL CONIC FOR TFF EQN
000473:
000474: 27,3600           45471                           DDV      STADR
000475:                                                                                                  #  DEN FROM PDL+0   E: (-3) OR (-16)
000476:                                                                                                  #                   M: (-3) OR (-15)
000477: 27,3601           77732                           STORE    TFFTEM                                #  Z  SAVE FOR SIGN OF SDELF.


000479:                                                                                                  #  E: (-13)  M: (-12)
000480: 27,3602           63406                           PUSH     DSQ                                   #  Z TO PDL+0
000481: 27,3603           41206                           PUSH     DMP                                   #  Z SQ TO PDL+2  E: (-26)  M: (-24)
000482: 27,3604           00035                                    TFFNP                                 #  LC P  E: (-38+2NR)  M: (-36+2NR)
000483: 27,3605           75261                           SL       SIGN
000484: 27,3606           20206                                    5
000485: 27,3607           00045                                    TFFTEM                                #  AFFIX SIGN FOR SDELF (ENTRY DISPLAY)
000486: 27,3610           14045                           STODL    TFFTEM                                #  P ZSQ  E: (-59+2NR)  M: (-55+2NR)
000487:                                                                                                  #  (ARG IS USED IN TFF/TRIG)
000488:                                                                                                  #  ZSQ FROM PDL+2   E: (-26)  M: (-24)
000489: 27,3611           41206                           PUSH     DMP                                   #  RESTORE PUSH LOC
000490: 27,3612           00033                                    TFFALFA                               #  ALFA  E: (26-NR)  M: (24-NR)
000491: 27,3613           77657                           SL*
000492: 27,3614           20201                                    0,1                                   #  X1=-NR
000493: 27,3615           00043                           STORE    TFFX                                  #  X
000494: 27,3616           41234                           RTB      DMP
000495: 27,3617           57742                                    T(X)                                  #   POLY
000496:                                                                                                  #  ZSQ FROM PDL+2  E: (-26)  M: (-24)
000497: 27,3620           44302                           SR2      BDSU                                  #  2 ZSQ T(X)  E: (-29)  M: (-27)
000498: 27,3621           00023                                    RTERM                                 #  RTERM  E: (-29)  M: (-27)
000499: 27,3622           41215                           DAD      DMP
000500: 27,3623           00015                                    RMAG1                                 #  E: (-29)  M: (-27)
000501:                                                                                                  #  Z FROM PDL+0  E: (-13)  M: (-12)
000502: 27,3624           51042                           SR3      BPL                                   #  TFF SQRT(MU)   E: (-45)  M: (-42)
000503: 27,3625           57646                                    ENDTFF                                #  (NO PUSH UP)
000504: 27,3626           75206                           PUSH     SIGN                                  #  TFF SQRT(MU)  TO PDL+0
000505: 27,3627           00017                                    TFFQ1                                 #  Q1 FOR GONEPAST TEST
000506: 27,3630           71244                           BPL      DLOAD                                 #  GONE PAST ?
000507: 27,3631           57652                                    NEGTFF                                #  YES. TFF < 0 .
000508: 27,3632           00027                                    TFF1/ALF                              #  1/ALFA  E: (-22-2NA)  M: (-20-2NA)
000509: 27,3633           51076                           DCOMP    BPL                                   #  ALFA > 0 ?
000510: 27,3634           57652                                    NEGTFF                                #  NO. TFF IS NEGATIVE.
000511:
000512:                                                                                                  #                                          CORRECT FOR ORBITAL PERIOD.
000513:
000514: 27,3635           77676                           DCOMP                                          #  YES. CORRECT FOR ORB PERIOD.
000515: 27,3636           56205                           DMP      DDV
000516: 27,3637           17762                                    PI/16                                 #  2 PI (-5)
000517: 27,3640           00031                                    TFFRTALF                              #  SQRT(ALFA)  E: (10+NA)  M: (9+NA)
000518: 27,3641           53657                           SL*      SL*
000519: 27,3642           57602                                    0          -4,2                       #  X2=-NA
000520: 27,3643           57602                                    0          -4,2
000521: 27,3644           43257                           SL*      DAD
000522: 27,3645           57576                                    0,2
000523:                                                                                                  #  TFF SQRT(MU) FROM PDL+0  E:(-45) M:(-42)
000524: 27,3646           40005        ENDTFF             DMP      BOV                                   #  TFF SQRT(MU) IN MPAC     E:(-45) M:(-42)
000525: 27,3647           00037                                    TFF/RTMU                              #  E: (17)  M: (14)
000526: 27,3650           57656                                    MAXTFF                                #  SET POSMAX IF OVFL.
000527:
000528: 27,3651           77616        DUMPTFF2           RVQ                                            #  RETURN  TFF   (-28) CS IN MPAC.
000529:


000531: 27,3652           77745        NEGTFF             DLOAD
000532:                                                                                                  #  TFF SQRT(MU)  FROM PDL+0, NEGATIVE.
000533: 27,3653           77650                           GOTO
000534: 27,3654           57646                                    ENDTFF
000535:
000536: 27,3655           77745        MAXTFF1            DLOAD                                          #  RESET PDL
000537: 27,3656           43545        MAXTFF             DLOAD    RVQ
000538: 27,3657           17776                                    NEARONE
000539:
000540:                                                                                                  #  TIME OF FLIGHT ELLIPSE WHEN DEL (ECCENTRIC ANOM) GEQ 90 AND LEQ -90.
000541:
000542:                                                                                                  #  NUM FROM TFFX.  E: (-16) OR (-29)
000543:                                                                                                  #                  M: (-15) OR (-27)
000544: 27,3660           77712        TFFELL             SL2                                            #  NUM  E:(-14) OR (-27)  M:(-13) OR (-25)
000545: 27,3661           41465                           BDDV     PUSH                                  #  TEMP SAVE D/N IN PDL+0
000546:                                                                                                  #  DEN FROM PDL+0 E:(-3)/( 16) M:(-3)/(-15)
000547:                                                                                                  #  N/D TO PDL+0  E: (11)  M: (10)
000548: 27,3662           45345        TFFEL1             DLOAD    DSU                                   #  (ENTER WITH D/N=0 IN PDL+0)
000549: 27,3663           00045                                    TFFTEM                                #  Q2  E: (-16)  M: (-15)
000550: 27,3664           00017                                    TFFQ1                                 #  Q1  E: (-16)  M: (-15)
000551: 27,3665           14013                           STODL    TFFDELQ                               #  Q2-Q1  E: (-16)  M: (-15)
000552:                                                                                                  #  D/N FROM PDL+0
000553: 27,3666           77626                           STADR
000554: 27,3667           77732                           STORE    TFFTEM                                #  D/N  E: (11)  M: (10)
000555: 27,3670           53605                           DMP      SL*
000556: 27,3671           00027                                    TFF1/ALF                              #  1/ALFA E: (-22-2NA)  M: (-20-2NA)
000557: 27,3672           57576                                    0,2                                   #  1/ALFA Z  E: (-11-NA)  M: (-10-NA)
000558: 27,3673           41206                           PUSH     DMP                                   #  TO PDL+0
000559: 27,3674           00045                                    TFFTEM                                #  1/Z  E: (11)  M: (10)
000560: 27,3675           41057                           SL*      BOVB
000561: 27,3676           57576                                    0,2                                   #  X2= -NA
000562: 27,3677           21713                                    SIGNMPAC                              #  IN CASE X= 1.0, CONTINUE
000563: 27,3700           00043                           STORE    TFFX                                  #  X=1/ALFA ZSQ
000564: 27,3701           41234                           RTB      DMP
000565: 27,3702           57742                                    T(X)                                  #  POLY
000566: 27,3703           00043                                    TFFX
000567: 27,3704           45242                           SR3      DSU
000568: 27,3705           17770                                    DP2(-3)
000569: 27,3706           41405                           DMP      PUSH                                  #  2(X T(X)-1) /Z ALFA  E: (-15-NA)
000570:                                                                                                  #                       M: (-14-NA)
000571:                                                                                                  #  1/ALFA Z FROM PDL+0  E: (-11-NA)
000572:                                                                                                  #                       M: (-10-NA)
000573: 27,3707           41345                           DLOAD    DMP                                   #  GET SIGN FOR SDELF
000574: 27,3710           00045                                    TFFTEM                                #  1/Z  E: (11)  M: (10)
000575: 27,3711           00015                                    RMAG1                                 #  E: (-29)  M: (-27)
000576: 27,3712           43312                           SL2      DAD
000577: 27,3713           00017                                    TFFQ1                                 #  Q1  E: (-16)  M: (-15)
000578: 27,3714           14045                           STODL    TFFTEM                                #  (Q1+R 1/Z)  =SGN OF SDELF E:(-16) M:(-15
000579: 27,3715           00035                                    TFFNP                                 #  LC P E: (-38+2NR) M: (-36+2NR)
000580: 27,3716           53605                           DMP      SL*                                   #  CALC FOR ARG FOR TFF/TRIG.


000582: 27,3717           00027                                    TFF1/ALF                              #  1/ALFA   E:(-22-2NA)  M:(-20-2NA)
000583: 27,3720           57575                                    1,2                                   #  X2=-NA
000584: 27,3721           53765                           SIGN     SL*
000585: 27,3722           00045                                    TFFTEM                                #  AFFIX SIGN FOR SDELF
000586: 27,3723           57576                                    0,2
000587: 27,3724           14045                           STODL    TFFTEM                                #  P/ALFA  E:(-59+2NR)  M:(-55+2NR)
000588:                                                                                                  #  (ARG FOR USE IN TFF/TRIG)
000589: 27,3725           00027                                    TFF1/ALF                              #  1/ALFA E:(-22-2NA)  M:(-20-2NA)
000590: 27,3726           41366                           SQRT     DMP
000591: 27,3727           17762                                    PI/16                                 #  PI (-4)
000592: 27,3730           77615                           DAD
000593:                                                                                                  #  2(XT(X)-1)/Z ALFA FROM PDL E:(-15-NA)
000594:                                                                                                  #                             M:(-14-NA)
000595: 27,3731           45257                           SL*      DSU
000596: 27,3732           57577                                    0          -1,2
000597: 27,3733           00013                                    TFFDELQ                               #  Q2-Q1  E: (-16)  M: (-15)
000598: 27,3734           53605                           DMP      SL*
000599: 27,3735           00027                                    TFF1/ALF                              #  1/ALFA  E:(-22-2NA)  M:(-20-2NA)
000600: 27,3736           57601                                    0          -3,2
000601: 27,3737           52057                           SL*      GOTO
000602: 27,3740           57602                                    0          -4,2
000603: 27,3741           57646                                    ENDTFF                                #  TFF SQRT(MU) IN MPAC E:(-45) M:(-42)
000604:


000606:                                                                                                  #  PROGRAM NAME:      T(X)                                                 DATE:    01.17.67
000607:                                                                                                  #  MOD NO:  0                                                              LOG SECTION:    TIME OF FREE FALL
000608:                                                                                                  #  MOD BY:  RR BAIRNSFATHER
000609:                                                                                                  #  FUNCTIONAL DESCRIPTION:      THE POLYNOMIAL T(X) IS USED BY TIME OF FLIGHT SUBROUTINES  CALCTFF AND
000610:                                                                                                  #           CALCTPER TO APPROXIMATE THE SERIES
000611:                                                                                                  #                             2     3
000612:                                                                                                  #                  1/3 -X/5 +X /7 -X /9 ...
000613:
000614:                                                                                                  #           WHERE  X = ALFA Z Z       IF ALFA Z Z  LEQ 1
000615:                                                                                                  #                  X = 1/(ALFA Z Z )  IF ALFA Z Z   G  1
000616:
000617:                                                                                                  #           ALSO   X IS NEG FOR HYPERBOLIC ORBITS
000618:                                                                                                  #                  X = 0 FOR PARABOLIC ORBITS
000619:                                                                                                  #                  X IS POSITIVE FOR ELLIPTIC ORBITS
000620:                                                                                                  #           FOR FLIGHT 278, THE POLYNOMIAL  T(X) IS FITTED OVER THE RANGE  (0,+1)  AND HAS A MAXIMUM
000621:                                                                                                  #           DEVIATION FROM THE SERIES OF  2 E-5       (T(X) IS A CHEBYCHEV  TYPE FIT AND WAS OBTAINED USING
000622:                                                                                                  #           MAC PROGRAM AUTCURFIT294RRB  AND IS VALID TO THE SAME TOLERANCE OVER THE RANGE  (-.08,+1). )
000623:                                                                                                  #  CALLING SEQUENCE:  RTB
000624:                                                                                                  #                            T(X)
000625:                                                                                                  #           C(MPAC) = X
000626:
000627:                                                                                                  #  SUBROUTINES CALLED:  NONE
000628:                                                                                                  #  NORMAL EXIT MODE:    TC   DANZIG
000629:                                                                                                  #  ALARMS:  NONE
000630:                                                                                                  #  OUTPUT:  C(MPAC) = T(X)
000631:                                                                                                  #  ERASABLE INITIALIZATION REQUIRED:
000632:                                                                                                  #           C(MPAC)  =  X
000633:                                                                                                  #  DEBRIS:  NONE
000634:
000635: 27,3742           07225        T(X)               TC       POLY
000636: 27,3743           00004                           DEC      4          B-14                       #  N-1
000637: 27,3744           12525 12525                     2DEC     3.333333333 E-1
000638:
000639: 27,3746           71463 57703                     2DEC*    -1.999819135 E-1*
000640:
000641: 27,3750           04423 17645                     2DEC*    1.418148467 E-1*
000642:
000643: 27,3752           74604 43667                     2DEC*    -1.01310997 E-1*
000644:
000645: 27,3754           01626 37256                     2DEC*    5.609004986 E-2*
000646:
000647: 27,3756           77404 52071                     2DEC*    -1.536156925 E-2*
000648:
000649: 27,3760           06064        ENDT(X)            TC       DANZIG
000650:
000651: 27,3761  27,3760               TCDANZIG           =        ENDT(X)
000652:


000654:                                                                                                  #  TFF CONSTANTS
000655:
000656: 32,3641                                           BANK     32
000657:
000658: 27,2000                                           SETLOC   TOF-FF1
000659: 27,2000                                           BANK
000660:
000661:                                                                                                  #                             NOTE _  NOTE _ ADJUSTED MUE FOR NEAR EARTH TRAJ.
000662:
000663:                                                                                                  # MUE            =       3.990 815 471 E10  M CUBE/CS SQ
000664:                                                                                                  # RTMUE          =       1.997702549 E5 B-18*     MODIFIED EARTH MU
000665:
000666:                                                                                                  #                             NOTE _  NOTE _ ADJUSTED MUE FOR NEAR EARTH TRAJ.
000667:
000668:                                                                                                  # MUM            =       4.902 778  E8     M CUBE /CS SQ
000669:
000670:                                                                                                  # RTMUM          2DEC*   2.21422176 E4 B-18*
000671: 27,3761           06220 37553  PI/16              2DEC     3.141592653 B-4
000672:
000673: 27,3763           37777 37700  LIM(-22)           2OCT     3777737700                            #  1.0 -B(-22)
000674:
000675: 27,3765           00000 00100  DP(-22)            2OCT     0000000100                            #  B(-22)
000676:
000677: 27,3767           04000 00000  DP2(-3)            2DEC     1          B-3
000678:
000679: 27,3771           02000 00000  DP2(-4)            2DEC     1          B-4                        #  1/16
000680:
000681:                                                                                                  # RPAD1          2DEC    6373338 B-29      M  (-29)   =20 909 901.57 FT
000682:
000683: 27,3773  23,2333               RPAD1              =        RPAD
000684:
000685: 27,3773           00305 11205  R300K              2DEC     6464778    B-29                       #  (-29) M
000686:
000687: 27,3775           37777 37777  NEARONE            2DEC     .999999999
000688:
000689: 27,3777  23,2517               TFFZEROS           EQUALS   HI6ZEROS
000690: 27,3777  23,2507               TFF1/4             EQUALS   HIDP1/4
000691:

End of include-file TIME_OF_FREE_FALL.agc.  Parent file is MAIN.agc


