
Source Code


000002:                                                                                                  ## Copyright:   Public domain.
000003:                                                                                                  ## Filename:    TRIM_GIMBAL_CONTROL_SYSTEM.agc
000004:                                                                                                  ## Purpose:     A section of Luminary revision 163.
000005:                                                                                                  ##              It is part of the reconstructed source code for the first
000006:                                                                                                  ##              (unflown) release of the flight software for the Lunar
000007:                                                                                                  ##              Module's (LM) Apollo Guidance Computer (AGC) for Apollo 14.
000008:                                                                                                  ##              The code has been recreated from a reconstructed copy of
000009:                                                                                                  ##              Luminary 173, as well as Luminary memos 157 amd 158.
000010:                                                                                                  ##              It has been adapted such that the resulting bugger words
000011:                                                                                                  ##              exactly match those specified for Luminary 163 in NASA
000012:                                                                                                  ##              drawing 2021152N, which gives relatively high confidence
000013:                                                                                                  ##              that the reconstruction is correct.
000014:                                                                                                  ## Reference:   pp. 1460-1472
000015:                                                                                                  ## Assembler:   yaYUL
000016:                                                                                                  ## Contact:     Ron Burkey <info@sandroid.org>.
000017:                                                                                                  ## Website:     www.ibiblio.org/apollo/index.html
000018:                                                                                                  ## Mod history: 2019-08-21 MAS  Created from Luminary 173.
000019:


000021: 21,3061                                           BANK     21
000022: 21,3061  E6,1450                                  EBANK=   QDIFF
000023: 21,2000                                           SETLOC   DAPS4
000024: 21,2000                                           BANK
000025:
000026: 21,3061                                           COUNT*   $$/DAPGT
000027:
000028:                                                                                                  #  CONTROL REACHES THIS POINT UNDER EITHER OF THE FOLLOWING TWO CONDITIONS ONCE THE DESCENT ENGINE AND THE DIGITAL
000029:                                                                                                  #  AUTOPILOT ARE BOTH ON:
000030:                                                                                                  #           A) THE TRIM GIMBAL CONTROL LAW WAS ON DURING THE PREVIOUS Q,R-AXIS TIME5 INTERRUPT (OR THE DAPIDLER
000031:                                                                                                  #              INITIALIZATION WAS SET FOR TRIM GIMBAL CONTROL AND THIS IS THE FIRST PASS), OR
000032:                                                                                                  #           B) THE Q,R-AXES RCS AUTOPILOT DETERMINED THAT THE VEHICLE WAS ENTERING (OR HAD JUST ENTERED) A COAST
000033:                                                                                                  #              ZONE WITH A SMALL OFFSET ANGULAR ACCELERATION.
000034:
000035:                                                                                                  #  GTS IS THE ENTRY TO THE GIMBAL TRIM SYSTEM FOR CONTROLLING ATTITUDE ERRORS AND RATES AS WELL AS ACCELERATIONS.
000036:
000037: 21,3061           37752        GTS                CAF      NEGONE                                #  MAKE THE NEXT PASS THROUGH THE DAP BE
000038: 21,3062           55630                           TS       COTROLER                              #    THROUGH RCS CONTROL,
000039: 21,3063           34751                           CAF      FOUR                                  #    AND ENSURE THAT IT IS NOT A SKIP.
000040: 21,3064           55534                           TS       SKIPU
000041: 21,3065           55535                           TS       SKIPV
000042:
000043: 21,3066           34752                           CAF      TWO
000044: 21,3067           55632                           TS       INGTS                                 #  SET INDICATOR OF GTS CONTROL POSITIVE.
000045: 21,3070           55631                           TS       QGIMTIMR                              #  SET TIMERS TO 200 MSEC TO AVOID BOTH
000046: 21,3071           55633                           TS       RGIMTIMR                              #  RUNAWAY AND INTERFERENCE BY NULLING.
000047:
000048:                                                                                                  #  THE DRIVE SETTING ALGORITHM
000049:
000050:                                                                                                  #  DEL = SGN(OMEGA + ALPHA*ABS(ALPHA)/(2*K))
000051:
000052:                                                                                                  #                                              2               1/2                  2       3/2
000053:                                                                                                  #  NEGUSUM = ERROR*K + ALPHA*(DEL*OMEGA + ALPHA /(3*K)) + DEL*K   (DEL*OMEGA + ALPHA /(2*K))
000054:
000055:                                                                                                  #  DRIVE = -SGN(NEGUSUM)
000056:
000057: 21,3072           30021                           CA       SR                                    #  SAVE THE SR.  SHIFT IT LEFT TO CORRECT
000058: 21,3073           60000                           AD       A                                     #  FOR THE RIGHT SHIFT DUE TO EDITING.
000059: 21,3074           55505                           TS       SAVESR
000060:
000061: 21,3075           34752        GTSGO+DN           CAF      TWO                                   #  SET INDEXER FOR R-AXIS CALCULATIONS.
000062: 21,3076           13100                           TCF      GOQTRIMG   +1
000063:
000064: 21,3077           34755        GOQTRIMG           CAF      ZERO                                  #  SET INDEXER FOR Q-AXIS CALCULATIONS
000065: 21,3100           55747                           TS       QRCNTR
000066:
000067: 21,3101           51747                           INDEX    QRCNTR                                #  AOS SCALED AT PI/2
000068: 21,3102           31536                           CA       AOSQ
000069: 21,3103           00006                           EXTEND
000070: 21,3104           74752                           MP       BIT2                                  #  RESCALE AOS TO PI/4
000071:


000073: 21,3105           00006                           EXTEND
000074: 21,3106           13112                           BZF      GTSQAXIS   -3                         #  USE FULL SCALE FOR LARGER AOS ESTIMATES.
000075:
000076: 21,3107           50000                           INDEX    A
000077: 21,3110           44734                           CS       LIMITS                                #  LIMITS +1 CONTAINS NEGMAX.
000078: 21,3111           56001                           XCH      L                                     #  LIMITS -1 CONTAINS POSMAX.
000079:
000080: 21,3112           11747                           CCS      QRCNTR                                #  PICK UP RATE FOR THIS AXIS.  RATE CELLS
000081: 21,3113           50000                           INDEX    A                                     #  ARE ADJACENT, NOT SEPARATED.  AT PI/4
000082: 21,3114           31436                           CA       EDOTQ
000083: 21,3115           53743        GTSQAXIS           DXCH     WCENTRAL
000084:
000085: 21,3116           51747                           INDEX    QRCNTR                                #  COLLECT K FOR THIS AXIS
000086: 21,3117           31504                           CA       KQ
000087: 21,3120           55740                           TS       KCENTRAL
000088:
000089: 21,3121           00006                           EXTEND                                         #  CONTROL AUTHORITY  ZERO.  AVOID DRIVING
000090: 21,3122           13560                           BZF      POSDRIVE   +1                         #  ENGINE BELL TO THE STOPS.
000091:
000092: 21,3123           51747                           INDEX    QRCNTR                                #  QDIFF, RDIFF ARE STORED IN D.P.
000093: 21,3124           31450                           CAE      QDIFF
000094:
000095: 21,3125           00006        ALGORTHM           EXTEND                                         #  Q(R)DIFF IS THETA (ERROR) SCALED AT PI.
000096: 21,3126           71740                           MP       KCENTRAL                              #  FORM K*ERROR AT PI(2)/2(8), IN D.P.
000097: 21,3127           23736                           LXCH     K2THETA
000098: 21,3130           00006                           EXTEND
000099: 21,3131           74747                           MP       BIT5                                  #  RESCALE TO 4*PI(2)
000100: 21,3132           53737                           DXCH     K2THETA
000101: 21,3133           00006                           EXTEND
000102: 21,3134           74747                           MP       BIT5                                  #  FIRST TERM OF NEGUSUM IN K2THETA.
000103: 21,3135           27737                           ADS      K2THETA    +1                         #  NO CARRY NEEDED    D.P. AT 4*PI(2)
000104:
000105: 21,3136           41743                           CS       ACENTRAL                              #  FORM ALPHA(2)/(2*K) AT 16*PI, IN D.P.,
000106: 21,3137           00006                           EXTEND                                         #  LIMITING QUOTIENT TO AVOID OVERFLOW.
000107: 21,3140           74736                           MP       BIT14                                 #  -ALPHA/2 IN A, SCALED AT PI/4
000108: 21,3141           00006                           EXTEND
000109: 21,3142           71743                           MP       ACENTRAL                              #  -ALPHA(2)/2 IN A,L, SCALED AT PI(2)/16
000110: 21,3143           61740                           AD       KCENTRAL
000111: 21,3144           00006                           EXTEND
000112: 21,3145           63162                           BZMF     HUGEQUOT                              #  K-ALPHA(2)/2 SHOULD BE PNZ FO DIVISION
000113:
000114: 21,3146           00006                           EXTEND
000115: 21,3147           40001                           DCS      A                                     #  ALPHA(2)/2 - K
000116: 21,3150           61740                           AD       KCENTRAL
000117: 21,3151           00006                           EXTEND
000118: 21,3152           11740                           DV       KCENTRAL                              #  HIGH ORDER OF QUOTIENT.
000119: 21,3153           57745                           XCH      A2CNTRAL
000120: 21,3154           30001                           CA       L                                     #  SHIFT UP THE REMAINDER.
000121: 21,3155           22007                           LXCH     7                                     #  ZERO LOW-ORDER DIVIDEND.
000122: 21,3156           00006                           EXTEND


000124: 21,3157           11740                           DV       KCENTRAL
000125: 21,3160           57746                           XCH      A2CNTRAL   +1                         #  QUOTIENT STORED AT 16*PI, D.P.
000126: 21,3161           13165                           TCF      HAVEQUOT
000127:
000128: 21,3162           34733        HUGEQUOT           CA       POSMAX
000129: 21,3163           54001                           TS       L
000130: 21,3164           53746                           DXCH     A2CNTRAL                              #  LIMITED QUOTIENT STORED AT 16*PI, D.P.
000131:
000132: 21,3165           31742        HAVEQUOT           CA       WCENTRAL
000133: 21,3166           00006                           EXTEND
000134: 21,3167           74743                           MP       BIT9                                  #  RESCALE OMEGA AT 16*PI IN D.P.
000135: 21,3170           53742                           DXCH     K2CNTRAL                              #  LOWER WORD OVERLAYS OMEGA IN WCENTRAL
000136:
000137: 21,3171           00006                           EXTEND
000138: 21,3172           31742                           DCA      K2CNTRAL
000139: 21,3173           53751                           DXCH     FUNCTION
000140:
000141: 21,3174           31743                           CA       ACENTRAL                              #  GET ALPHA*ABS(ALPHA)/(2*K)
000142: 21,3175           00006                           EXTEND
000143: 21,3176           63202                           BZMF     +4
000144:
000145: 21,3177           00006                           EXTEND
000146: 21,3200           31746                           DCA      A2CNTRAL
000147: 21,3201           13204                           TCF      +3
000148:
000149: 21,3202           00006                           EXTEND
000150: 21,3203           41746                           DCS      A2CNTRAL
000151:
000152: 21,3204           21751                           DAS      FUNCTION                              #  OMEGA + ALPHA*ABS(ALPHA)/2*K) AT 16*PI
000153:
000154: 21,3205           11750                           CCS      FUNCTION                              #  DEL = +1 FOR FUNCT1 GREATER THAN ZERO.
000155: 21,3206           13212                           TCF      POSFNCT1                              #  OTHERWISE DEL = -1
000156: 21,3207           13211                           TCF      +2
000157: 21,3210           13214                           TCF      NEGFNCT1
000158:
000159: 21,3211           11751                           CCS      FUNCTION   +1                         #  USE LOW ORDER WORD SINCE HIGH IS ZERO
000160: 21,3212           34753        POSFNCT1           CAF      BIT1
000161: 21,3213           13215                           TCF      +2
000162: 21,3214           44753        NEGFNCT1           CS       BIT1
000163: 21,3215           55744                           TS       DEL
000164:
000165: 21,3216           11744                           CCS      DEL                                   #  REPLACE OMEGA BY DEL*OMEGA
000166: 21,3217           13231                           TCF      FUNCT2                                #  POSITIVE DEL VALUE.  PROCEED.
000167: 21,3220           13222                           TCF      DEFUNCT
000168: 21,3221           13226                           TCF      NEGFNCT2
000169:
000170: 21,3222           55741        DEFUNCT            TS       K2CNTRAL
000171: 21,3223           55742                           TS       K2CNTRAL   +1
000172: 21,3224           13231                           TCF      FUNCT2
000173:


000175: 21,3225           65252        NEG1/3             DEC      -.33333
000176:
000177: 21,3226           00006        NEGFNCT2           EXTEND
000178: 21,3227           41742                           DCS      K2CNTRAL
000179: 21,3230           53742                           DXCH     K2CNTRAL
000180:
000181: 21,3231           00006        FUNCT2             EXTEND
000182: 21,3232           31746                           DCA      A2CNTRAL
000183: 21,3233           21742                           DAS      K2CNTRAL                              #  DEL*OMEGA + ALPHA(2)/(2*K) AT 16*PI,D.P.
000184:
000185: 21,3234           31745        FUNCT3             CA       A2CNTRAL
000186: 21,3235           00006                           EXTEND
000187: 21,3236           73225                           MP       NEG1/3
000188: 21,3237           53746                           DXCH     A2CNTRAL
000189: 21,3240           30001                           CA       L
000190: 21,3241           00006                           EXTEND
000191: 21,3242           73225                           MP       NEG1/3
000192: 21,3243           27746                           ADS      A2CNTRAL   +1
000193: 21,3244           54001                           TS       L
000194: 21,3245           13247                           TCF      +2                                    #  A2CNTRAL NOW CONTAINS  -ALPHA(2)/(6*K),
000195: 21,3246           27745                           ADS      A2CNTRAL                              #  SCALED AT 16*PI, IN D.P.
000196:
000197: 21,3247           00006                           EXTEND
000198: 21,3250           31742                           DCA      K2CNTRAL                              #  DEL*OMEGA + ALPHA(2)/(3*K) IN A2CNTRAL,
000199: 21,3251           21746                           DAS      A2CNTRAL                              #  SCALED AT 16*PI, D.P.
000200:
000201: 21,3252           31745                           CA       A2CNTRAL
000202: 21,3253           00006                           EXTEND
000203: 21,3254           71743                           MP       ACENTRAL
000204: 21,3255           21737                           DAS      K2THETA
000205: 21,3256           31746                           CA       A2CNTRAL   +1
000206: 21,3257           00006                           EXTEND
000207: 21,3260           71743                           MP       ACENTRAL                              #  ACENTRAL MAY NOW BE OVERLAID.
000208: 21,3261           27737                           ADS      K2THETA    +1
000209: 21,3262           54001                           TS       L
000210: 21,3263           13265                           TCF      +2                                    #  TWO TERMS OF NEGUSUM ACCUMULATED, SO FAR
000211: 21,3264           27736                           ADS      K2THETA                               #  SCALED AT 4*PI(2), IN D.P.
000212:
000213: 21,3265           31741        GETROOT            CA       K2CNTRAL                              #  K*(DEL*OMEGA + ALPHA(2)/(2*K)) IS THE
000214: 21,3266           00006                           EXTEND                                         #  TERM FOR WHICH A SQUARE ROOT IS NEEDED.
000215: 21,3267           71740                           MP       KCENTRAL                              #  K AT PI/2(8)
000216: 21,3270           53751                           DXCH     FUNCTION
000217: 21,3271           31742                           CA       K2CNTRAL   +1
000218: 21,3272           00006                           EXTEND
000219: 21,3273           71740                           MP       KCENTRAL
000220: 21,3274           27751                           ADS      FUNCTION   +1
000221: 21,3275           54001                           TS       L
000222: 21,3276           13300                           TCF      +2
000223: 21,3277           27750                           ADS      FUNCTION                              #  DESIRED TERM IN FUNCTION, AT PI(2)/16


000225: 21,3300           11744                           CCS      DEL
000226: 21,3301           13506                           TCF      RSTOFGTS
000227: 21,3302           13550                           TCF      NEGUSUM
000228: 21,3303           13305                           TCF      NEGATE
000229: 21,3304           13550                           TCF      NEGUSUM
000230:
000231: 21,3305           00006        NEGATE             EXTEND
000232: 21,3306           41742                           DCS      K2CNTRAL
000233: 21,3307           53742                           DXCH     K2CNTRAL
000234: 21,3310           13506                           TCF      RSTOFGTS
000235:
000236: 16,3740                                           BANK     16
000237: 16,3740  E6,1501                                  EBANK=   NEGUQ
000238: 16,2000                                           SETLOC   DAPS1
000239: 16,2000                                           BANK
000240:
000241:                                                                                                  #  THE WRCHN12 SUBROUTINE SETS BITS 9,10,11,12 OF CHANNEL 12 ON THE BASIS OF THE CONTENTS OF NEGUQ,NEGUR WHICH ARE
000242:                                                                                                  #  THE NEGATIVES OF THE DESIRED ACCELERATION CHANGES.  ACDT+C12 SETS Q(R)ACCDOT TO REFLECT THE NEW DRIVES.
000243:
000244:                                                                                                  #  WARNING:  ACDT+C12 AND WRCHN12 MUST BE CALLED WITH INTERRUPT INHIBITED.
000245:
000246: 16,3740           07400        BGIM               OCTAL    07400
000247: 16,3741     0066               CHNL12             EQUALS   ITEMP6
000248: 16,3741           41501        ACDT+C12           CS       NEGUQ
000249: 16,3742           00006                           EXTEND                                         #  GIMBAL DRIVE REQUESTS.
000250: 16,3743           71507                           MP       ACCDOTQ
000251: 16,3744           23510                           LXCH     QACCDOT
000252: 16,3745           41503                           CS       NEGUR
000253: 16,3746           00006                           EXTEND
000254: 16,3747           71511                           MP       ACCDOTR
000255: 16,3750           23512                           LXCH     RACCDOT
000256:
000257: 16,3751           11501                           CCS      NEGUQ
000258: 16,3752           34742                           CAF      BIT10
000259: 16,3753           13755                           TCF      +2
000260: 16,3754           34743                           CAF      BIT9
000261: 16,3755           54066                           TS       CHNL12
000262:
000263: 16,3756           11503                           CCS      NEGUR
000264: 16,3757           34740                           CAF      BIT12
000265: 16,3760           13762                           TCF      +2
000266: 16,3761           34741                           CAF      BIT11
000267: 16,3762           26066                           ADS      CHNL12                                #  (STORED RESULT NOT USED AT PRESENT)
000268:
000269: 16,3763           43740                           CS       BGIM
000270: 16,3764           00006                           EXTEND
000271: 16,3765           02012                           RAND     CHAN12
000272: 16,3766           60066                           AD       CHNL12
000273: 16,3767           00006                           EXTEND
000274: 16,3770           01012                           WRITE    CHAN12
000275:


000277: 16,3771           44747                           CS       CALLGMBL                              #  TURN OFF REQUEST FOR ACDT+C12 EXECUTION.
000278: 16,3772           71262                           MASK     RCSFLAGS
000279: 16,3773           55262                           TS       RCSFLAGS
000280:
000281: 16,3774           00002                           TC       Q                                     #  RETURN TO CALLER.
000282:
000283: 21,3311                                           BANK     21
000284: 21,3311  E6,1450                                  EBANK=   QDIFF
000285: 21,2000                                           SETLOC   DAPS4
000286: 21,2000                                           BANK
000287:


000289:                                                                                                  #  SUBROUTINE TIMEGMBL:  MOD 0,  OCTOBER 1967, CRAIG WORK
000290:
000291:                                                                                                  #  TIMEGMBL COMPUTES THE DRIVE TIME NEEDED FOR THE TRIM GIMBAL TO POSITION THE DESCENT ENGINE NOZZLE SO AS TO NULL
000292:                                                                                                  #  THE OFFSET ANGULAR ACCELERATION ABOUT THE Q (OR R) AXIS.  INSTEAD OF USING AOSQ(R), TIMEGMBL USES .4*AOSQ(R),
000293:                                                                                                  #  SCALED AT PI/8.                         FOR EACH AXIS, THE DRIVE TIME IS COMPUTED AS ABS(ALPHA/ACCDOT).  A ZERO
000294:                                                                                                  #  ALPHA OR ACCDOT OR A ZERO QUOTIENT TURNS OFF THE GIMBAL DRIVE IMMEDIATELY.  OTHERWISE, THE GIMBAL IS TURNED ON
000295:                                                                                                  #  DRIVING IN THE CORRECT DIRECTION. THE Q(R)GIMTIMR IS SET TO TERMINATE THE DRIVE AND Q(R)ACCDOT
000296:                                                                                                  #  IS STORED TO REFLECT THE NEW ACCELERATION DERIVATIVE.  NEGUQ(R) WILL CONTAIN +1,+0,-1 FOR A Q(R)ACCDOT VALUE
000297:                                                                                                  #  WHICH IS NEGATIVE, ZERO, OR POSITIVE.
000298:
000299:                                                                                                  #  INPUTS:  AOSQ,AOSR, SCALED AT P1/2, AND ACCDOTQ, ACCDOTR AT PI/2(7).    PI/2(7).
000300:
000301:                                                                                                  #  OUTPUTS:   NEW GIMBAL DRIVE BITS IN CHANNEL 12,NEGUQ,NEGUR,QACCDOT AND RACCDOT, THE LAST SCALED AT PI/2(7).
000302:                                                                                                  #             Q(R)GIMTIMR WILL BE SET TO TIME AND TERMINATE GIMBAL DRIVE(S)
000303:
000304:                                                                                                  #  DEBRIS:  A,L,Q, ITEMPS 2,3,6, RUPTREG2 AND ACDT+C12 DEBRIS.
000305:
000306:                                                                                                  #  EXITS:  VIA TC Q.
000307:
000308:                                                                                                  #  ALARMS, ABORTS, :  NONE
000309:
000310:                                                                                                  #  SUBROUTINES:  ACDT+C12, IBNKCALL
000311:
000312:                                                                                                  #  WARNING:  THIS SUBROUTINE WRITES INTO CHANNEL 12 AND USES THE ITEMPS.  THEREFORE IT MAY ONLY BE CALLED WITH
000313:                                                                                                  #  INTERRUPT INHIBITED.
000314:
000315:                                                                                                  #  ERASABLE STORAGE CONFIGURATION (NEEDED BY THE INDEXING METHODS):
000316:
000317:                                                                                                  #                                          NEGUQ    ERASE    +2            NEGATIVE OF Q-AXIS GIMBAL DRIVE
000318:                                                                                                  #                                          (SPWORD) EQUALS  NEGUQ +1       ANY S.P. ERASABLE NUMBER, NOW THRSTCMD
000319:                                                                                                  #                                          NEGUR    EQUALS  NEGUQ +2       NEGATIVE OF R-AXIS GIMBAL DRIVE
000320:
000321:                                                                                                  #                                          ACCDOTQ  ERASE    +2            Q-JERK TERM SCALED AT PI/2(7) RAD/SEC(3)
000322:                                                                                                  #                                          (SPWORD) EQUALS  ACCDOTQ +1     ANY S.P. ERASABLE NUMBER  NOW QACCDOT
000323:                                                                                                  #                                          ACCDOTR  EQUALS  ACCDOTQ +2     R-JERK TERM SCALED AT PI/2(7) RAD/SEC(3)
000324:                                                                                                  #                                                                          ACCDOTQ,ACCDOTR ARE MAGNITUDES.
000325:                                                                                                  #                                          AOSQ     ERASE   +4             Q-AXIS ACC.,D.P. AT PI/2 R/SEC(2)
000326:                                                                                                  #                                          AOSR     EQUALS  AOSQ +2        R-AXIS ACCELERATION SCALED AT PI/2 R/S2
000327:
000328: 21,3311     0066               QRNDXER            EQUALS   ITEMP6
000329: 21,3311           23146        OCT23146           OCTAL    23146                                 #  DECIMAL .6
000330: 21,3312     0063               NZACCDOT           EQUALS   ITEMP3
000331:
000332: 21,3312           34753        TIMEGMBL           CAF      ONE                                   #  INITIALIZE ALLOWGTS.
000333: 21,3313           55502                           TS       ALLOWGTS
000334:
000335: 21,3314           34752                           CAF      TWO                                   #  SET UP LOOP FOR R AXIS.
000336: 21,3315           22002                           LXCH     Q                                     #  SAVE RETURN ADDRESS.
000337: 21,3316           22071                           LXCH     RUPTREG2


000339: 21,3317           13321                           TCF      +2
000340: 21,3320           34755        TIMQGMBL           CAF      ZERO                                  #  NOW DO THE Q-AXIS
000341: 21,3321           54066                           TS       QRNDXER
000342: 21,3322           50066                           INDEX    QRNDXER
000343: 21,3323           31507                           CA       ACCDOTQ                               #  ACCDOT IS PRESUMED TO BE AT PI/2(7).
000344: 21,3324           00006                           EXTEND
000345: 21,3325           63375                           BZMF     TGOFFNOW                              #  IS ACCDOT LESS THAN OR EQUAL TO 0?
000346: 21,3326           54063                           TS       NZACCDOT                              #  NO.  STORE NON-ZERO, POSITIVE ACCDOT.
000347:
000348: 21,3327           50066        ALPHATRY           INDEX    QRNDXER
000349: 21,3330           41536                           CS       AOSQ
000350: 21,3331           00006                           EXTEND
000351: 21,3332           13375                           BZF      TGOFFNOW                              #  IS ALPHA ZERO?
000352:
000353: 21,3333           54002                           TS       Q                                     #  SAVE A COPY OF  -AOS.
000354: 21,3334           00006                           EXTEND                                         #  NO.  RESCALE FOR TIMEGMBL USE.
000355: 21,3335           73311                           MP       OCT23146                              #  OCTAL 23146 IS DECIMAL .6
000356: 21,3336           60002                           AD       Q                                     #  -1.6*AOS AT PI/2 = -.4*AOS AT PI/8.
000357: 21,3337           54001                           TS       L                                     #  WAS THERE OVERFLOW?
000358: 21,3340           13345                           TCF      SETNEGU                               #  NO.  COMPUTE DRIVE TIME.
000359:
000360: 21,3341           40000                           CS       A                                     #  RECOVER  -SGN(AOS) IN THE A REGISTER.
000361: 21,3342           50066                           INDEX    QRNDXER                               #  YES.  START DRIVE WITHOUT WAITLIST.
000362: 21,3343           57501                           XCH      NEGUQ
000363: 21,3344           13401                           TCF      NOTALLOW                              #  KNOCK DOWN THE ALLOWGTS FLAG.
000364:
000365: 21,3345           00006        SETNEGU            EXTEND
000366: 21,3346           63353                           BZMF     POSALPH
000367:
000368: 21,3347           40000                           COM
000369: 21,3350           54062                           TS       ITEMP2                                #  STORE  -ABS(.4*AOS) SCALED AT PI/8.
000370: 21,3351           44753                           CS       BIT1
000371: 21,3352           13355                           TCF      POSALPH    +2
000372: 21,3353           54062        POSALPH            TS       ITEMP2                                #  STORE  -ABS(.4*AOS) SCALED AT PI/8.
000373: 21,3354           34753                           CA       BIT1
000374: 21,3355           50066                 +2        INDEX    QRNDXER                               #  SGN(AOS) INTO NEGU
000375: 21,3356           55501                           TS       NEGUQ                                 #  STORE SGN(APLHA) AS NEGU
000376:
000377: 21,3357           30063                           CA       NZACCDOT
000378: 21,3360           00006                           EXTEND
000379: 21,3361           74740                           MP       BIT12                                 #  2*ACCDOT, SCALED AT PI/8.
000380: 21,3362           60062                           AD       ITEMP2                                #  -ABS(ALPHA) + 2*ACCDOT, AT PI/8.
000381: 21,3363           00006                           EXTEND
000382: 21,3364           63401                           BZMF     NOTALLOW                              #  IS DRIVE TIME MORE THAN TWO SECONDS?
000383: 21,3365           40062                           CS       ITEMP2                                #  NO.  COMPUTE DRIVE TIME.
000384: 21,3366           00006                           EXTEND                                         #  ABS(ALPHA) AT PI/8.
000385: 21,3367           73422                           MP       OCT00240                              #  DECIMAL 10/1024
000386: 21,3370           00006                           EXTEND                                         #  QUOTIENT IS DRIVE TIME AT WAITLIST.
000387: 21,3371           10063                           DV       NZACCDOT                              #  ABS(ALPHA)/ACCDOT AT 2(14)/100
000388:


000390: 21,3372           00006                           EXTEND
000391: 21,3373           13375                           BZF      TGOFFNOW                              #  DRIVE TIME MUST BE GREATER THAN ZERO.
000392:
000393: 21,3374           13407                           TCF      DRIVEON
000394:
000395: 21,3375           34755        TGOFFNOW           CAF      ZERO                                  #  TURN OFF GIMBAL NOW.
000396: 21,3376           50066                           INDEX    QRNDXER
000397: 21,3377           55501                           TS       NEGUQ
000398:
000399: 21,3400           13411                           TCF      DONEYET
000400:
000401: 21,3401           36010        NOTALLOW           CAF      OCT31
000402: 21,3402           50066                           INDEX    QRNDXER
000403: 21,3403           55631                           TS       QGIMTIMR
000404: 21,3404           34755                           CAF      ZERO                                  #  DRIVE TIME IS MORE THAN 2 SECONDS, SO
000405: 21,3405           55502                           TS       ALLOWGTS                              #  DO NOT PERMIT FURTHER GTS ATTITUDE-RATE
000406:                                                                                                  #  CONTROL UNTIL AOSTASK APPROVES.
000407: 21,3406           13411                           TCF      DONEYET                               #  NO WAITLIST CALL IS MADE.
000408:
000409: 21,3407           50066        DRIVEON            INDEX    QRNDXER
000410: 21,3410           55631                           TS       QGIMTIMR                              #  CHOOSE Q OR R AXIS.
000411:
000412: 21,3411           10066        DONEYET            CCS      QRNDXER
000413: 21,3412           13320                           TCF      TIMQGMBL
000414:
000415: 21,3413           52073                           DXCH     RUPTREG3                              #  PROTECT IBNKCALL ERASABLES.  ACDT+C12
000416: 21,3414           52063                           DXCH     ITEMP2                                #  LEAVES ITEMPS2,3 ALONE.
000417:
000418: 21,3415           04674                           TC       IBNKCALL                              #  TURN OF CHANNEL BITS, SET Q(R)ACCDOTS.
000419: 21,3416           35741                           CADR     ACDT+C12
000420:
000421: 21,3417           52063                           DXCH     ITEMP2                                #  RESTORE ERASABLES FOR IBNKCALL.
000422: 21,3420           52073                           DXCH     RUPTREG3
000423:
000424: 21,3421           00071                           TC       RUPTREG2                              #  RETURN TO CALLER.
000425:
000426: 21,3422           00240        OCT00240           OCTAL    00240                                 #  DECIMAL 10/1024
000427:


000429:                                                                                                  #  THE FOLLOWING SECTION IS A CONTINUATION OF THE TRIM GIMBAL CONTROL FROM THE LAST GTS ENTRY. THE QUANTITY NEGUSUM
000430:                                                                                                  #  IS COMPUTED FOR EACH AXIS (Q,R), .707*DEL*FUNCTION(3/2) + K2THETA = NEGUSUM.  NEW DRIVES ARE ENTERED TO CH 12.
000431:
000432:                                                                                                  #  THE SUBROUTINE GTSQRT ACCEPTS A DOUBLE PRECISION VALUE IN FUNCTION, FUNCTION +1 AND RETURNS A SINGLE-PRECISION
000433:                                                                                                  #  SQUARE ROOT OF THE FOURTEEN MOST SIGNIFICANT BITS OF THE ARGUMENT.  ALSO, THE CELL SHFTFLAG CONTAINS A BINARY
000434:                                                                                                  #  EXPONENT S, SUCH THAT THE SQUARE ROOT (RETURNED IN THE A REGISTER) MUST BE SHIFTED RIGHT (MULTIPLIED BY 2 TO THE
000435:                                                                                                  #  POWER (-S)) IN ORDER TO BE THE TRUE SQUARE ROOT OF THE FOURTEEN MOST SIGNIFICANT BITS OF FUNCTION, FUNCTION +1.
000436:                                                                                                  #  SQUARE ROOT ERROR IS NOT MORE THAN 2 IN THE 14TH SIGNIFICANT BIT.  CELLS CLOBBERED ARE A,L,SHFTFLAG,ININDEX,
000437:                                                                                                  #  HALFARG,SCRATCH,SR,FUNCTION, FUNCTION +1.  GTSQRT IS CALLED BY TC GTSQRT AND RETURNS VIA TC Q OR TC FUNCTION +1.
000438:                                                                                                  #  ZERO OR NEGATIVE ARGUMENTS YIELD ZERO FOR SQUARE ROOTS.
000439:
000440: 21,3423           11750        GTSQRT             CCS      FUNCTION
000441: 21,3424           13442                           TCF      GOODARG                               #  FUNCTION IS POSITIVE.  TAKE SQUARE ROOT.
000442: 21,3425           13427                           TCF      +2                                    #  HIGH ORDER WORD IS ZERO.  TRY THE LOWER.
000443: 21,3426           13433                           TCF      ZEROOT                                #  NEGATIVE.  USE ZERO FOR 1/2 POWER.
000444:
000445: 21,3427           31751                           CA       FUNCTION   +1
000446: 21,3430           00006                           EXTEND
000447: 21,3431           63433                           BZMF     ZEROOT
000448:
000449: 21,3432           13436                           TCF      ZEROHIGH                              #  PROCEED.
000450: 21,3433           34755        ZEROOT             CA       ZERO
000451: 21,3434           55740                           TS       SHFTFLAG
000452: 21,3435           00002                           TC       Q
000453:
000454: 21,3436           57750        ZEROHIGH           XCH      FUNCTION                              #  14 MOST SIGNIFICANT BITS ARE IN THE
000455: 21,3437           57751                           XCH      FUNCTION   +1                         #  LOWER WORD.  EXCHANGE THEM.
000456: 21,3440           34757                           CA       SEVEN
000457: 21,3441           13443                           TCF      GOODARG    +1
000458:
000459: 21,3442           34755        GOODARG            CA       ZERO
000460: 21,3443           55740                           TS       SHFTFLAG
000461: 21,3444           35752                           CA       TWELVE                                #  INITIALIZE THE SCALING LOOP.
000462: 21,3445           55743                           TS       ININDEX
000463: 21,3446           13455                           TCF      SCALLOOP
000464:
000465: 21,3447           31750        SCALSTRT           CA       FUNCTION
000466: 21,3450           13471                           TCF      SCALDONE
000467:
000468: 21,3451           37751        MULBUSH            CA       NEG2                                  #  IF ARG IS NOT LESS THAN 1/4, INDEX IS
000469: 21,3452           27743                           ADS      ININDEX                               #  ZERO, INDICATING NO SHIFT NEEDED.
000470: 21,3453           00006                           EXTEND                                         #  BRANCH IF ARG IS NOT LESS THAN 1/4.
000471: 21,3454           63447                           BZMF     SCALSTRT                              #  OTHERWISE COMPARE ARG WITH A REFERENCE
000472:                                                                                                  #  WHICH IS 4 TIMES LARGER THAN THE LAST.
000473: 21,3455           41750        SCALLOOP           CS       FUNCTION
000474: 21,3456           51743                           INDEX    ININDEX
000475: 21,3457           64735                           AD       BIT15                                 #  REFERENCE MAGNITUDE LESS OR EQUAL TO 1/4
000476: 21,3460           00006                           EXTEND
000477: 21,3461           63451                           BZMF     MULBUSH                               #  IF ARG IS NOT LESS THAN REFERENCE, GO
000478:                                                                                                  #  AROUND THE MULBERRY BUSH ONCE MORE.
000479:


000481: 21,3462           51743                           INDEX    ININDEX
000482: 21,3463           34735                           CA       BIT15                                 #  THIS IS THE SCALE MAGNITUDE
000483: 21,3464           57746                           XCH      HALFARG                               #  2**(-ININDEX) IS THE SHIFT DIVISOR.
000484: 21,3465           00006                           EXTEND                                         #  RESCALE ARGUMENT.
000485: 21,3466           31751                           DCA      FUNCTION
000486: 21,3467           00006                           EXTEND
000487: 21,3470           11746                           DV       HALFARG
000488:                                                                                                  #  ININDEX AND SHFTFLAG PRESERVE INFO FOR
000489:
000490:                                                                                                  #  RESCALING AFTER ROOT PROCESS.
000491: 21,3471           00006        SCALDONE           EXTEND
000492: 21,3472           23751                           QXCH     FUNCTION   +1                         #  SAVE Q FOR RETURN
000493: 21,3473           00006                           EXTEND
000494: 21,3474           74736                           MP       BIT14
000495: 21,3475           55746                           TS       HALFARG
000496: 21,3476           74737                           MASK     BIT13
000497: 21,3477           10000                           CCS      A
000498: 21,3500           33616                           CA       OCT11276
000499: 21,3501           63614                           AD       ROOTHALF                              #  INITIAL GUESS IS ROOT 1/2 OR POSMAX
000500:
000501: 21,3502           03620                           TC       ROOTCYCL
000502: 21,3503           03620                           TC       ROOTCYCL
000503: 21,3504           03620                           TC       ROOTCYCL
000504:
000505: 21,3505           01751                           TC       FUNCTION   +1
000506:
000507:                                                                                                  #  ****************************************************************************************************************
000508:
000509:
000510: 21,3506           03423        RSTOFGTS           TC       GTSQRT
000511: 21,3507           57741        PRODUCT            XCH      K2CNTRAL
000512: 21,3510           00006                           EXTEND
000513: 21,3511           71741                           MP       K2CNTRAL
000514: 21,3512           53742                           DXCH     K2CNTRAL
000515: 21,3513           00006                           EXTEND                                         #              THE PRODUCT OF
000516: 21,3514           70001                           MP       L                                     #   1/2                   2       1/2
000517: 21,3515           27742                           ADS      K2CNTRAL   +1                         #  K   *(DEL*OMEGA + ALPHA /(2*K))
000518: 21,3516           54001                           TS       L                                     #                  AND
000519: 21,3517           13521                           TCF      +2                                    #                         2
000520: 21,3520           27741                           ADS      K2CNTRAL                              #   DEL*(DEL*OMEGA + ALPHA /(2*K)) NOW IN
000521:                                                                                                  #  K2CNTRAL
000522:
000523: 21,3521           31743        DOSHIFT            CA       ININDEX
000524: 21,3522           00006                           EXTEND                                         #  MULTIPLY IN THE FACTOR 2(-S), RETURNED
000525: 21,3523           74736                           MP       BIT14                                 #  BY THE GTSQRT SUBROUTINE
000526: 21,3524           27740                           ADS      SHFTFLAG
000527: 21,3525           00006                           EXTEND
000528: 21,3526           13545                           BZF      ADDITIN
000529: 21,3527           51740                           INDEX    SHFTFLAG
000530: 21,3530           34735                           CA       BIT15


000532: 21,3531           57741                           XCH      K2CNTRAL
000533: 21,3532           00006                           EXTEND
000534: 21,3533           71741                           MP       K2CNTRAL
000535: 21,3534           21737                           DAS      K2THETA
000536: 21,3535           57741                           XCH      K2CNTRAL
000537: 21,3536           00006                           EXTEND
000538: 21,3537           71742                           MP       K2CNTRAL   +1
000539: 21,3540           27737                           ADS      K2THETA    +1
000540: 21,3541           54001                           TS       L
000541: 21,3542           13544                           TCF      +2
000542: 21,3543           27736                           ADS      K2THETA
000543:
000544: 21,3544           13550                           TCF      NEGUSUM
000545:
000546: 21,3545           00006        ADDITIN            EXTEND
000547: 21,3546           31742                           DCA      K2CNTRAL
000548: 21,3547           21737                           DAS      K2THETA                               #  NOW ADD IN THE K2THETA TERM.
000549: 21,3550           11736        NEGUSUM            CCS      K2THETA                               #  TEST SIGN OF HIGH ORDER PART.
000550: 21,3551           13555                           TCF      NEGDRIVE
000551: 21,3552           13554                           TCF      +2
000552: 21,3553           13557                           TCF      POSDRIVE
000553:
000554: 21,3554           11737                           CCS      K2THETA    +1                         #  SIGN TEST FOR LOW ORDER PART.
000555: 21,3555           34753        NEGDRIVE           CA       BIT1
000556: 21,3556           13560                           TCF      +2                                    #  STOP GIMBAL DRIVE FOR A ZERO NEGUSUM.
000557: 21,3557           44753        POSDRIVE           CS       BIT1
000558: 21,3560           54001                           TS       L                                     #  SAVE FOR DRIVE REVERSAL TEST.
000559: 21,3561           51747                           INDEX    QRCNTR
000560: 21,3562           57501                           XCH      NEGUQ
000561:
000562: 21,3563           00006                           EXTEND
000563: 21,3564           70001                           MP       L                                     #  MULTIPLY OLD NEGU AND NEW NEGU.
000564: 21,3565           10001                           CCS      L
000565: 21,3566           13603                           TCF      LOUPE                                 #  NON-ZERO GIMBAL DRIVE BEING CONTINUED.
000566:
000567: 21,3567           13600                           TCF      ZEROLOUP                              #  NO REVERSAL PROBLEM HERE.
000568:
000569: 21,3570           13572                           TCF      REVERSAL                              #  NON-ZERO GIMBAL DRIVE BEING REVERSED.
000570: 21,3571           13600                           TCF      ZEROLOUP                              #  NO REVERSAL PROBLEM HERE.
000571:
000572: 21,3572           51747        REVERSAL           INDEX    QRCNTR                                #  A ZERO-DRIVE PAUSE IS NEEDED HERE.  ZERO
000573: 21,3573           55510                           TS       QACCDOT                               #  IS IN A REGISTER FROM CCS ON (-1).
000574: 21,3574           51747                           INDEX    QRCNTR
000575: 21,3575           43615                           CS       GMBLBITA
000576: 21,3576           00006                           EXTEND
000577: 21,3577           03012                           WAND     CHAN12
000578:
000579: 21,3600           41262        ZEROLOUP           CS       RCSFLAGS                              #  SET UP REQUEST FOR ACDT+C12 CALL.
000580: 21,3601           74747                           MASK     CALLGMBL
000581: 21,3602           27262                           ADS      RCSFLAGS
000582:


000584: 21,3603           11747        LOUPE              CCS      QRCNTR                                #  HAVE BOTH AXES BEEN PROCESSED?
000585: 21,3604           13077                           TCF      GOQTRIMG                              #  NO.  DO Q AXIS NEXT.
000586:
000587: 21,3605           31505                           CA       SAVESR                                #  RESTORE THE SR
000588: 21,3606           54021                           TS       SR
000589:
000590: 21,3607           00006        GOCLOSE            EXTEND                                         #  TERMINATE THE JASK.
000591: 21,3610           33613                           DCA      CLOSEADR
000592: 21,3611           52006                           DTCB
000593:
000594: 21,3612  E6,1536                                  EBANK=   AOSQ
000595: 21,3612           03270 36106  CLOSEADR           2CADR    CLOSEOUT                              #  TERMINATE THE JASK.
000596:
000597: 21,3614     5752               TWELVE             EQUALS   OCT14
000598: 21,3614           26501        ROOTHALF           OCTAL    26501                                 #  SQUARE ROOT OF 1/2
000599: 21,3615           01400        GMBLBITA           OCTAL    01400                                 #  INDEXED WRT GMBLBITB   DO NOT MOVE******
000600: 21,3616           11276        OCT11276           OCTAL    11276                                 #  POSMAX - ROOTHALF
000601: 21,3617           06000        GMBLBITB           OCTAL    06000                                 #  INDEXED WRT GMBLBITA   DO NOT MOVE******
000602:
000603:                                                                                                  #  SUBROUTINE ROOTCYCL:  BY CRAIG WORK,3 APRIL 68
000604:                                                                                                  #  ROOTCYCL IS A SUBROUTINE WHICH EXECUTES ONE NEWTON SQUARE ROOT ALGORITHM ITERATION.  THE INITIAL GUESS AT THE
000605:                                                                                                  #  SQUARE ROOT IS PRESUMED TO BE IN THE A REGISTER AND ONE-HALF THE SQUARE IS TAKEN FROM HALFARG.  THE NEW APPROXI-
000606:                                                                                                  #  MATION TO THE SQUARE ROOT IS RETURNED IN THE A REGISTER.  DEBRIS:   A,L,SR,SCRATCH.  ROOTCYCL IS CALLED FROM
000607:                                                                                                  #  LOCATION (LOC) BY A TC ROOTCYCL, AND RETURNS (TC Q) TO LOC +1.
000608:
000609:                                                                                                  #  WARNING:  IF THE INITIAL GUESS IS NOT GREATER THAN THE SQUARE, DIVIDE OR ADD OVERFLOW IS A REAL POSSIBILITY.
000610:
000611: 21,3620           55745        ROOTCYCL           TS       SCRATCH                               #  STORE X
000612: 21,3621           54021                           TS       SR                                    #  X/2 NOW IN SR
000613: 21,3622           31746                           CA       HALFARG                               #  ARG/2 IN THE A REG
000614: 21,3623           22007                           ZL                                             #  PREPARE FOR DIVISION
000615: 21,3624           00006                           EXTEND
000616: 21,3625           11745                           DV       SCRATCH                               #  (ARG/X)/2
000617: 21,3626           60021                           AD       SR                                    #  (X + ARG/X)/2 IN THE A REG
000618: 21,3627           00002                           TC       Q

End of include-file TRIM_GIMBAL_CONTROL_SYSTEM.agc.  Parent file is MAIN.agc


