
Source Code


000002:                                                                                                  ## Copyright:   Public domain.
000003:                                                                                                  ## Filename:    TRIM_GIMBAL_CONTROL_SYSTEM.agc
000004:                                                                                                  ## Purpose:     A section of Luminary revision 163.
000005:                                                                                                  ##              It is part of the reconstructed source code for the first
000006:                                                                                                  ##              (unflown) release of the flight software for the Lunar
000007:                                                                                                  ##              Module's (LM) Apollo Guidance Computer (AGC) for Apollo 14.
000008:                                                                                                  ##              The code has been recreated from a reconstructed copy of
000009:                                                                                                  ##              Luminary 173, as well as Luminary memos 157 amd 158.
000010:                                                                                                  ##              It has been adapted such that the resulting bugger words
000011:                                                                                                  ##              exactly match those specified for Luminary 163 in NASA
000012:                                                                                                  ##              drawing 2021152N, which gives relatively high confidence
000013:                                                                                                  ##              that the reconstruction is correct.
000014:                                                                                                  ## Reference:   pp. 1460-1472
000015:                                                                                                  ## Assembler:   yaYUL
000016:                                                                                                  ## Contact:     Ron Burkey <info@sandroid.org>.
000017:                                                                                                  ## Website:     www.ibiblio.org/apollo/index.html
000018:                                                                                                  ## Mod history: 2019-08-21 MAS  Created from Luminary 173.
000019:                                                                                                  ##              2021-05-30 ABS  GTSGO+DN -> GTSGO+ON
000020:


000022: 21,3061                                           BANK     21
000023: 21,3061  E6,1450                                  EBANK=   QDIFF
000024: 21,2000                                           SETLOC   DAPS4
000025: 21,2000                                           BANK
000026:
000027: 21,3061                                           COUNT*   $$/DAPGT
000028:
000029:                                                                                                  #  CONTROL REACHES THIS POINT UNDER EITHER OF THE FOLLOWING TWO CONDITIONS ONCE THE DESCENT ENGINE AND THE DIGITAL
000030:                                                                                                  #  AUTOPILOT ARE BOTH ON:
000031:                                                                                                  #           A) THE TRIM GIMBAL CONTROL LAW WAS ON DURING THE PREVIOUS Q,R-AXIS TIME5 INTERRUPT (OR THE DAPIDLER
000032:                                                                                                  #              INITIALIZATION WAS SET FOR TRIM GIMBAL CONTROL AND THIS IS THE FIRST PASS), OR
000033:                                                                                                  #           B) THE Q,R-AXES RCS AUTOPILOT DETERMINED THAT THE VEHICLE WAS ENTERING (OR HAD JUST ENTERED) A COAST
000034:                                                                                                  #              ZONE WITH A SMALL OFFSET ANGULAR ACCELERATION.
000035:
000036:                                                                                                  #  GTS IS THE ENTRY TO THE GIMBAL TRIM SYSTEM FOR CONTROLLING ATTITUDE ERRORS AND RATES AS WELL AS ACCELERATIONS.
000037:
000038: 21,3061           37752        GTS                CAF      NEGONE                                #  MAKE THE NEXT PASS THROUGH THE DAP BE
000039: 21,3062           55630                           TS       COTROLER                              #    THROUGH RCS CONTROL,
000040: 21,3063           34751                           CAF      FOUR                                  #    AND ENSURE THAT IT IS NOT A SKIP.
000041: 21,3064           55534                           TS       SKIPU
000042: 21,3065           55535                           TS       SKIPV
000043:
000044: 21,3066           34752                           CAF      TWO
000045: 21,3067           55632                           TS       INGTS                                 #  SET INDICATOR OF GTS CONTROL POSITIVE.
000046: 21,3070           55631                           TS       QGIMTIMR                              #  SET TIMERS TO 200 MSEC TO AVOID BOTH
000047: 21,3071           55633                           TS       RGIMTIMR                              #  RUNAWAY AND INTERFERENCE BY NULLING.
000048:
000049:                                                                                                  #  THE DRIVE SETTING ALGORITHM
000050:
000051:                                                                                                  #  DEL = SGN(OMEGA + ALPHA*ABS(ALPHA)/(2*K))
000052:
000053:                                                                                                  #                                              2               1/2                  2       3/2
000054:                                                                                                  #  NEGUSUM = ERROR*K + ALPHA*(DEL*OMEGA + ALPHA /(3*K)) + DEL*K   (DEL*OMEGA + ALPHA /(2*K))
000055:
000056:                                                                                                  #  DRIVE = -SGN(NEGUSUM)
000057:
000058: 21,3072           30021                           CA       SR                                    #  SAVE THE SR.  SHIFT IT LEFT TO CORRECT
000059: 21,3073           60000                           AD       A                                     #  FOR THE RIGHT SHIFT DUE TO EDITING.
000060: 21,3074           55505                           TS       SAVESR
000061:
000062: 21,3075           34752        GTSGO+ON           CAF      TWO                                   #  SET INDEXER FOR R-AXIS CALCULATIONS.
000063: 21,3076           13100                           TCF      GOQTRIMG   +1
000064:
000065: 21,3077           34755        GOQTRIMG           CAF      ZERO                                  #  SET INDEXER FOR Q-AXIS CALCULATIONS
000066: 21,3100           55747                           TS       QRCNTR
000067:
000068: 21,3101           51747                           INDEX    QRCNTR                                #  AOS SCALED AT PI/2
000069: 21,3102           31536                           CA       AOSQ
000070: 21,3103           00006                           EXTEND
000071: 21,3104           74752                           MP       BIT2                                  #  RESCALE AOS TO PI/4
000072:


000074: 21,3105           00006                           EXTEND
000075: 21,3106           13112                           BZF      GTSQAXIS   -3                         #  USE FULL SCALE FOR LARGER AOS ESTIMATES.
000076:
000077: 21,3107           50000                           INDEX    A
000078: 21,3110           44734                           CS       LIMITS                                #  LIMITS +1 CONTAINS NEGMAX.
000079: 21,3111           56001                           XCH      L                                     #  LIMITS -1 CONTAINS POSMAX.
000080:
000081: 21,3112           11747                           CCS      QRCNTR                                #  PICK UP RATE FOR THIS AXIS.  RATE CELLS
000082: 21,3113           50000                           INDEX    A                                     #  ARE ADJACENT, NOT SEPARATED.  AT PI/4
000083: 21,3114           31436                           CA       EDOTQ
000084: 21,3115           53743        GTSQAXIS           DXCH     WCENTRAL
000085:
000086: 21,3116           51747                           INDEX    QRCNTR                                #  COLLECT K FOR THIS AXIS
000087: 21,3117           31504                           CA       KQ
000088: 21,3120           55740                           TS       KCENTRAL
000089:
000090: 21,3121           00006                           EXTEND                                         #  CONTROL AUTHORITY  ZERO.  AVOID DRIVING
000091: 21,3122           13560                           BZF      POSDRIVE   +1                         #  ENGINE BELL TO THE STOPS.
000092:
000093: 21,3123           51747                           INDEX    QRCNTR                                #  QDIFF, RDIFF ARE STORED IN D.P.
000094: 21,3124           31450                           CAE      QDIFF
000095:
000096: 21,3125           00006        ALGORTHM           EXTEND                                         #  Q(R)DIFF IS THETA (ERROR) SCALED AT PI.
000097: 21,3126           71740                           MP       KCENTRAL                              #  FORM K*ERROR AT PI(2)/2(8), IN D.P.
000098: 21,3127           23736                           LXCH     K2THETA
000099: 21,3130           00006                           EXTEND
000100: 21,3131           74747                           MP       BIT5                                  #  RESCALE TO 4*PI(2)
000101: 21,3132           53737                           DXCH     K2THETA
000102: 21,3133           00006                           EXTEND
000103: 21,3134           74747                           MP       BIT5                                  #  FIRST TERM OF NEGUSUM IN K2THETA.
000104: 21,3135           27737                           ADS      K2THETA    +1                         #  NO CARRY NEEDED    D.P. AT 4*PI(2)
000105:
000106: 21,3136           41743                           CS       ACENTRAL                              #  FORM ALPHA(2)/(2*K) AT 16*PI, IN D.P.,
000107: 21,3137           00006                           EXTEND                                         #  LIMITING QUOTIENT TO AVOID OVERFLOW.
000108: 21,3140           74736                           MP       BIT14                                 #  -ALPHA/2 IN A, SCALED AT PI/4
000109: 21,3141           00006                           EXTEND
000110: 21,3142           71743                           MP       ACENTRAL                              #  -ALPHA(2)/2 IN A,L, SCALED AT PI(2)/16
000111: 21,3143           61740                           AD       KCENTRAL
000112: 21,3144           00006                           EXTEND
000113: 21,3145           63162                           BZMF     HUGEQUOT                              #  K-ALPHA(2)/2 SHOULD BE PNZ FO DIVISION
000114:
000115: 21,3146           00006                           EXTEND
000116: 21,3147           40001                           DCS      A                                     #  ALPHA(2)/2 - K
000117: 21,3150           61740                           AD       KCENTRAL
000118: 21,3151           00006                           EXTEND
000119: 21,3152           11740                           DV       KCENTRAL                              #  HIGH ORDER OF QUOTIENT.
000120: 21,3153           57745                           XCH      A2CNTRAL
000121: 21,3154           30001                           CA       L                                     #  SHIFT UP THE REMAINDER.
000122: 21,3155           22007                           LXCH     7                                     #  ZERO LOW-ORDER DIVIDEND.
000123: 21,3156           00006                           EXTEND


000125: 21,3157           11740                           DV       KCENTRAL
000126: 21,3160           57746                           XCH      A2CNTRAL   +1                         #  QUOTIENT STORED AT 16*PI, D.P.
000127: 21,3161           13165                           TCF      HAVEQUOT
000128:
000129: 21,3162           34733        HUGEQUOT           CA       POSMAX
000130: 21,3163           54001                           TS       L
000131: 21,3164           53746                           DXCH     A2CNTRAL                              #  LIMITED QUOTIENT STORED AT 16*PI, D.P.
000132:
000133: 21,3165           31742        HAVEQUOT           CA       WCENTRAL
000134: 21,3166           00006                           EXTEND
000135: 21,3167           74743                           MP       BIT9                                  #  RESCALE OMEGA AT 16*PI IN D.P.
000136: 21,3170           53742                           DXCH     K2CNTRAL                              #  LOWER WORD OVERLAYS OMEGA IN WCENTRAL
000137:
000138: 21,3171           00006                           EXTEND
000139: 21,3172           31742                           DCA      K2CNTRAL
000140: 21,3173           53751                           DXCH     FUNCTION
000141:
000142: 21,3174           31743                           CA       ACENTRAL                              #  GET ALPHA*ABS(ALPHA)/(2*K)
000143: 21,3175           00006                           EXTEND
000144: 21,3176           63202                           BZMF     +4
000145:
000146: 21,3177           00006                           EXTEND
000147: 21,3200           31746                           DCA      A2CNTRAL
000148: 21,3201           13204                           TCF      +3
000149:
000150: 21,3202           00006                           EXTEND
000151: 21,3203           41746                           DCS      A2CNTRAL
000152:
000153: 21,3204           21751                           DAS      FUNCTION                              #  OMEGA + ALPHA*ABS(ALPHA)/2*K) AT 16*PI
000154:
000155: 21,3205           11750                           CCS      FUNCTION                              #  DEL = +1 FOR FUNCT1 GREATER THAN ZERO.
000156: 21,3206           13212                           TCF      POSFNCT1                              #  OTHERWISE DEL = -1
000157: 21,3207           13211                           TCF      +2
000158: 21,3210           13214                           TCF      NEGFNCT1
000159:
000160: 21,3211           11751                           CCS      FUNCTION   +1                         #  USE LOW ORDER WORD SINCE HIGH IS ZERO
000161: 21,3212           34753        POSFNCT1           CAF      BIT1
000162: 21,3213           13215                           TCF      +2
000163: 21,3214           44753        NEGFNCT1           CS       BIT1
000164: 21,3215           55744                           TS       DEL
000165:
000166: 21,3216           11744                           CCS      DEL                                   #  REPLACE OMEGA BY DEL*OMEGA
000167: 21,3217           13231                           TCF      FUNCT2                                #  POSITIVE DEL VALUE.  PROCEED.
000168: 21,3220           13222                           TCF      DEFUNCT
000169: 21,3221           13226                           TCF      NEGFNCT2
000170:
000171: 21,3222           55741        DEFUNCT            TS       K2CNTRAL
000172: 21,3223           55742                           TS       K2CNTRAL   +1
000173: 21,3224           13231                           TCF      FUNCT2
000174:


000176: 21,3225           65252        NEG1/3             DEC      -.33333
000177:
000178: 21,3226           00006        NEGFNCT2           EXTEND
000179: 21,3227           41742                           DCS      K2CNTRAL
000180: 21,3230           53742                           DXCH     K2CNTRAL
000181:
000182: 21,3231           00006        FUNCT2             EXTEND
000183: 21,3232           31746                           DCA      A2CNTRAL
000184: 21,3233           21742                           DAS      K2CNTRAL                              #  DEL*OMEGA + ALPHA(2)/(2*K) AT 16*PI,D.P.
000185:
000186: 21,3234           31745        FUNCT3             CA       A2CNTRAL
000187: 21,3235           00006                           EXTEND
000188: 21,3236           73225                           MP       NEG1/3
000189: 21,3237           53746                           DXCH     A2CNTRAL
000190: 21,3240           30001                           CA       L
000191: 21,3241           00006                           EXTEND
000192: 21,3242           73225                           MP       NEG1/3
000193: 21,3243           27746                           ADS      A2CNTRAL   +1
000194: 21,3244           54001                           TS       L
000195: 21,3245           13247                           TCF      +2                                    #  A2CNTRAL NOW CONTAINS  -ALPHA(2)/(6*K),
000196: 21,3246           27745                           ADS      A2CNTRAL                              #  SCALED AT 16*PI, IN D.P.
000197:
000198: 21,3247           00006                           EXTEND
000199: 21,3250           31742                           DCA      K2CNTRAL                              #  DEL*OMEGA + ALPHA(2)/(3*K) IN A2CNTRAL,
000200: 21,3251           21746                           DAS      A2CNTRAL                              #  SCALED AT 16*PI, D.P.
000201:
000202: 21,3252           31745                           CA       A2CNTRAL
000203: 21,3253           00006                           EXTEND
000204: 21,3254           71743                           MP       ACENTRAL
000205: 21,3255           21737                           DAS      K2THETA
000206: 21,3256           31746                           CA       A2CNTRAL   +1
000207: 21,3257           00006                           EXTEND
000208: 21,3260           71743                           MP       ACENTRAL                              #  ACENTRAL MAY NOW BE OVERLAID.
000209: 21,3261           27737                           ADS      K2THETA    +1
000210: 21,3262           54001                           TS       L
000211: 21,3263           13265                           TCF      +2                                    #  TWO TERMS OF NEGUSUM ACCUMULATED, SO FAR
000212: 21,3264           27736                           ADS      K2THETA                               #  SCALED AT 4*PI(2), IN D.P.
000213:
000214: 21,3265           31741        GETROOT            CA       K2CNTRAL                              #  K*(DEL*OMEGA + ALPHA(2)/(2*K)) IS THE
000215: 21,3266           00006                           EXTEND                                         #  TERM FOR WHICH A SQUARE ROOT IS NEEDED.
000216: 21,3267           71740                           MP       KCENTRAL                              #  K AT PI/2(8)
000217: 21,3270           53751                           DXCH     FUNCTION
000218: 21,3271           31742                           CA       K2CNTRAL   +1
000219: 21,3272           00006                           EXTEND
000220: 21,3273           71740                           MP       KCENTRAL
000221: 21,3274           27751                           ADS      FUNCTION   +1
000222: 21,3275           54001                           TS       L
000223: 21,3276           13300                           TCF      +2
000224: 21,3277           27750                           ADS      FUNCTION                              #  DESIRED TERM IN FUNCTION, AT PI(2)/16


000226: 21,3300           11744                           CCS      DEL
000227: 21,3301           13506                           TCF      RSTOFGTS
000228: 21,3302           13550                           TCF      NEGUSUM
000229: 21,3303           13305                           TCF      NEGATE
000230: 21,3304           13550                           TCF      NEGUSUM
000231:
000232: 21,3305           00006        NEGATE             EXTEND
000233: 21,3306           41742                           DCS      K2CNTRAL
000234: 21,3307           53742                           DXCH     K2CNTRAL
000235: 21,3310           13506                           TCF      RSTOFGTS
000236:
000237: 16,3740                                           BANK     16
000238: 16,3740  E6,1501                                  EBANK=   NEGUQ
000239: 16,2000                                           SETLOC   DAPS1
000240: 16,2000                                           BANK
000241:
000242:                                                                                                  #  THE WRCHN12 SUBROUTINE SETS BITS 9,10,11,12 OF CHANNEL 12 ON THE BASIS OF THE CONTENTS OF NEGUQ,NEGUR WHICH ARE
000243:                                                                                                  #  THE NEGATIVES OF THE DESIRED ACCELERATION CHANGES.  ACDT+C12 SETS Q(R)ACCDOT TO REFLECT THE NEW DRIVES.
000244:
000245:                                                                                                  #  WARNING:  ACDT+C12 AND WRCHN12 MUST BE CALLED WITH INTERRUPT INHIBITED.
000246:
000247: 16,3740           07400        BGIM               OCTAL    07400
000248: 16,3741     0066               CHNL12             EQUALS   ITEMP6
000249: 16,3741           41501        ACDT+C12           CS       NEGUQ
000250: 16,3742           00006                           EXTEND                                         #  GIMBAL DRIVE REQUESTS.
000251: 16,3743           71507                           MP       ACCDOTQ
000252: 16,3744           23510                           LXCH     QACCDOT
000253: 16,3745           41503                           CS       NEGUR
000254: 16,3746           00006                           EXTEND
000255: 16,3747           71511                           MP       ACCDOTR
000256: 16,3750           23512                           LXCH     RACCDOT
000257:
000258: 16,3751           11501                           CCS      NEGUQ
000259: 16,3752           34742                           CAF      BIT10
000260: 16,3753           13755                           TCF      +2
000261: 16,3754           34743                           CAF      BIT9
000262: 16,3755           54066                           TS       CHNL12
000263:
000264: 16,3756           11503                           CCS      NEGUR
000265: 16,3757           34740                           CAF      BIT12
000266: 16,3760           13762                           TCF      +2
000267: 16,3761           34741                           CAF      BIT11
000268: 16,3762           26066                           ADS      CHNL12                                #  (STORED RESULT NOT USED AT PRESENT)
000269:
000270: 16,3763           43740                           CS       BGIM
000271: 16,3764           00006                           EXTEND
000272: 16,3765           02012                           RAND     CHAN12
000273: 16,3766           60066                           AD       CHNL12
000274: 16,3767           00006                           EXTEND
000275: 16,3770           01012                           WRITE    CHAN12
000276:


000278: 16,3771           44747                           CS       CALLGMBL                              #  TURN OFF REQUEST FOR ACDT+C12 EXECUTION.
000279: 16,3772           71262                           MASK     RCSFLAGS
000280: 16,3773           55262                           TS       RCSFLAGS
000281:
000282: 16,3774           00002                           TC       Q                                     #  RETURN TO CALLER.
000283:
000284: 21,3311                                           BANK     21
000285: 21,3311  E6,1450                                  EBANK=   QDIFF
000286: 21,2000                                           SETLOC   DAPS4
000287: 21,2000                                           BANK
000288:


000290:                                                                                                  #  SUBROUTINE TIMEGMBL:  MOD 0,  OCTOBER 1967, CRAIG WORK
000291:
000292:                                                                                                  #  TIMEGMBL COMPUTES THE DRIVE TIME NEEDED FOR THE TRIM GIMBAL TO POSITION THE DESCENT ENGINE NOZZLE SO AS TO NULL
000293:                                                                                                  #  THE OFFSET ANGULAR ACCELERATION ABOUT THE Q (OR R) AXIS.  INSTEAD OF USING AOSQ(R), TIMEGMBL USES .4*AOSQ(R),
000294:                                                                                                  #  SCALED AT PI/8.                         FOR EACH AXIS, THE DRIVE TIME IS COMPUTED AS ABS(ALPHA/ACCDOT).  A ZERO
000295:                                                                                                  #  ALPHA OR ACCDOT OR A ZERO QUOTIENT TURNS OFF THE GIMBAL DRIVE IMMEDIATELY.  OTHERWISE, THE GIMBAL IS TURNED ON
000296:                                                                                                  #  DRIVING IN THE CORRECT DIRECTION. THE Q(R)GIMTIMR IS SET TO TERMINATE THE DRIVE AND Q(R)ACCDOT
000297:                                                                                                  #  IS STORED TO REFLECT THE NEW ACCELERATION DERIVATIVE.  NEGUQ(R) WILL CONTAIN +1,+0,-1 FOR A Q(R)ACCDOT VALUE
000298:                                                                                                  #  WHICH IS NEGATIVE, ZERO, OR POSITIVE.
000299:
000300:                                                                                                  #  INPUTS:  AOSQ,AOSR, SCALED AT P1/2, AND ACCDOTQ, ACCDOTR AT PI/2(7).    PI/2(7).
000301:
000302:                                                                                                  #  OUTPUTS:   NEW GIMBAL DRIVE BITS IN CHANNEL 12,NEGUQ,NEGUR,QACCDOT AND RACCDOT, THE LAST SCALED AT PI/2(7).
000303:                                                                                                  #             Q(R)GIMTIMR WILL BE SET TO TIME AND TERMINATE GIMBAL DRIVE(S)
000304:
000305:                                                                                                  #  DEBRIS:  A,L,Q, ITEMPS 2,3,6, RUPTREG2 AND ACDT+C12 DEBRIS.
000306:
000307:                                                                                                  #  EXITS:  VIA TC Q.
000308:
000309:                                                                                                  #  ALARMS, ABORTS, :  NONE
000310:
000311:                                                                                                  #  SUBROUTINES:  ACDT+C12, IBNKCALL
000312:
000313:                                                                                                  #  WARNING:  THIS SUBROUTINE WRITES INTO CHANNEL 12 AND USES THE ITEMPS.  THEREFORE IT MAY ONLY BE CALLED WITH
000314:                                                                                                  #  INTERRUPT INHIBITED.
000315:
000316:                                                                                                  #  ERASABLE STORAGE CONFIGURATION (NEEDED BY THE INDEXING METHODS):
000317:
000318:                                                                                                  #                                          NEGUQ    ERASE    +2            NEGATIVE OF Q-AXIS GIMBAL DRIVE
000319:                                                                                                  #                                          (SPWORD) EQUALS  NEGUQ +1       ANY S.P. ERASABLE NUMBER, NOW THRSTCMD
000320:                                                                                                  #                                          NEGUR    EQUALS  NEGUQ +2       NEGATIVE OF R-AXIS GIMBAL DRIVE
000321:
000322:                                                                                                  #                                          ACCDOTQ  ERASE    +2            Q-JERK TERM SCALED AT PI/2(7) RAD/SEC(3)
000323:                                                                                                  #                                          (SPWORD) EQUALS  ACCDOTQ +1     ANY S.P. ERASABLE NUMBER  NOW QACCDOT
000324:                                                                                                  #                                          ACCDOTR  EQUALS  ACCDOTQ +2     R-JERK TERM SCALED AT PI/2(7) RAD/SEC(3)
000325:                                                                                                  #                                                                          ACCDOTQ,ACCDOTR ARE MAGNITUDES.
000326:                                                                                                  #                                          AOSQ     ERASE   +4             Q-AXIS ACC.,D.P. AT PI/2 R/SEC(2)
000327:                                                                                                  #                                          AOSR     EQUALS  AOSQ +2        R-AXIS ACCELERATION SCALED AT PI/2 R/S2
000328:
000329: 21,3311     0066               QRNDXER            EQUALS   ITEMP6
000330: 21,3311           23146        OCT23146           OCTAL    23146                                 #  DECIMAL .6
000331: 21,3312     0063               NZACCDOT           EQUALS   ITEMP3
000332:
000333: 21,3312           34753        TIMEGMBL           CAF      ONE                                   #  INITIALIZE ALLOWGTS.
000334: 21,3313           55502                           TS       ALLOWGTS
000335:
000336: 21,3314           34752                           CAF      TWO                                   #  SET UP LOOP FOR R AXIS.
000337: 21,3315           22002                           LXCH     Q                                     #  SAVE RETURN ADDRESS.
000338: 21,3316           22071                           LXCH     RUPTREG2


000340: 21,3317           13321                           TCF      +2
000341: 21,3320           34755        TIMQGMBL           CAF      ZERO                                  #  NOW DO THE Q-AXIS
000342: 21,3321           54066                           TS       QRNDXER
000343: 21,3322           50066                           INDEX    QRNDXER
000344: 21,3323           31507                           CA       ACCDOTQ                               #  ACCDOT IS PRESUMED TO BE AT PI/2(7).
000345: 21,3324           00006                           EXTEND
000346: 21,3325           63375                           BZMF     TGOFFNOW                              #  IS ACCDOT LESS THAN OR EQUAL TO 0?
000347: 21,3326           54063                           TS       NZACCDOT                              #  NO.  STORE NON-ZERO, POSITIVE ACCDOT.
000348:
000349: 21,3327           50066        ALPHATRY           INDEX    QRNDXER
000350: 21,3330           41536                           CS       AOSQ
000351: 21,3331           00006                           EXTEND
000352: 21,3332           13375                           BZF      TGOFFNOW                              #  IS ALPHA ZERO?
000353:
000354: 21,3333           54002                           TS       Q                                     #  SAVE A COPY OF  -AOS.
000355: 21,3334           00006                           EXTEND                                         #  NO.  RESCALE FOR TIMEGMBL USE.
000356: 21,3335           73311                           MP       OCT23146                              #  OCTAL 23146 IS DECIMAL .6
000357: 21,3336           60002                           AD       Q                                     #  -1.6*AOS AT PI/2 = -.4*AOS AT PI/8.
000358: 21,3337           54001                           TS       L                                     #  WAS THERE OVERFLOW?
000359: 21,3340           13345                           TCF      SETNEGU                               #  NO.  COMPUTE DRIVE TIME.
000360:
000361: 21,3341           40000                           CS       A                                     #  RECOVER  -SGN(AOS) IN THE A REGISTER.
000362: 21,3342           50066                           INDEX    QRNDXER                               #  YES.  START DRIVE WITHOUT WAITLIST.
000363: 21,3343           57501                           XCH      NEGUQ
000364: 21,3344           13401                           TCF      NOTALLOW                              #  KNOCK DOWN THE ALLOWGTS FLAG.
000365:
000366: 21,3345           00006        SETNEGU            EXTEND
000367: 21,3346           63353                           BZMF     POSALPH
000368:
000369: 21,3347           40000                           COM
000370: 21,3350           54062                           TS       ITEMP2                                #  STORE  -ABS(.4*AOS) SCALED AT PI/8.
000371: 21,3351           44753                           CS       BIT1
000372: 21,3352           13355                           TCF      POSALPH    +2
000373: 21,3353           54062        POSALPH            TS       ITEMP2                                #  STORE  -ABS(.4*AOS) SCALED AT PI/8.
000374: 21,3354           34753                           CA       BIT1
000375: 21,3355           50066                 +2        INDEX    QRNDXER                               #  SGN(AOS) INTO NEGU
000376: 21,3356           55501                           TS       NEGUQ                                 #  STORE SGN(APLHA) AS NEGU
000377:
000378: 21,3357           30063                           CA       NZACCDOT
000379: 21,3360           00006                           EXTEND
000380: 21,3361           74740                           MP       BIT12                                 #  2*ACCDOT, SCALED AT PI/8.
000381: 21,3362           60062                           AD       ITEMP2                                #  -ABS(ALPHA) + 2*ACCDOT, AT PI/8.
000382: 21,3363           00006                           EXTEND
000383: 21,3364           63401                           BZMF     NOTALLOW                              #  IS DRIVE TIME MORE THAN TWO SECONDS?
000384: 21,3365           40062                           CS       ITEMP2                                #  NO.  COMPUTE DRIVE TIME.
000385: 21,3366           00006                           EXTEND                                         #  ABS(ALPHA) AT PI/8.
000386: 21,3367           73422                           MP       OCT00240                              #  DECIMAL 10/1024
000387: 21,3370           00006                           EXTEND                                         #  QUOTIENT IS DRIVE TIME AT WAITLIST.
000388: 21,3371           10063                           DV       NZACCDOT                              #  ABS(ALPHA)/ACCDOT AT 2(14)/100
000389:


000391: 21,3372           00006                           EXTEND
000392: 21,3373           13375                           BZF      TGOFFNOW                              #  DRIVE TIME MUST BE GREATER THAN ZERO.
000393:
000394: 21,3374           13407                           TCF      DRIVEON
000395:
000396: 21,3375           34755        TGOFFNOW           CAF      ZERO                                  #  TURN OFF GIMBAL NOW.
000397: 21,3376           50066                           INDEX    QRNDXER
000398: 21,3377           55501                           TS       NEGUQ
000399:
000400: 21,3400           13411                           TCF      DONEYET
000401:
000402: 21,3401           36010        NOTALLOW           CAF      OCT31
000403: 21,3402           50066                           INDEX    QRNDXER
000404: 21,3403           55631                           TS       QGIMTIMR
000405: 21,3404           34755                           CAF      ZERO                                  #  DRIVE TIME IS MORE THAN 2 SECONDS, SO
000406: 21,3405           55502                           TS       ALLOWGTS                              #  DO NOT PERMIT FURTHER GTS ATTITUDE-RATE
000407:                                                                                                  #  CONTROL UNTIL AOSTASK APPROVES.
000408: 21,3406           13411                           TCF      DONEYET                               #  NO WAITLIST CALL IS MADE.
000409:
000410: 21,3407           50066        DRIVEON            INDEX    QRNDXER
000411: 21,3410           55631                           TS       QGIMTIMR                              #  CHOOSE Q OR R AXIS.
000412:
000413: 21,3411           10066        DONEYET            CCS      QRNDXER
000414: 21,3412           13320                           TCF      TIMQGMBL
000415:
000416: 21,3413           52073                           DXCH     RUPTREG3                              #  PROTECT IBNKCALL ERASABLES.  ACDT+C12
000417: 21,3414           52063                           DXCH     ITEMP2                                #  LEAVES ITEMPS2,3 ALONE.
000418:
000419: 21,3415           04674                           TC       IBNKCALL                              #  TURN OF CHANNEL BITS, SET Q(R)ACCDOTS.
000420: 21,3416           35741                           CADR     ACDT+C12
000421:
000422: 21,3417           52063                           DXCH     ITEMP2                                #  RESTORE ERASABLES FOR IBNKCALL.
000423: 21,3420           52073                           DXCH     RUPTREG3
000424:
000425: 21,3421           00071                           TC       RUPTREG2                              #  RETURN TO CALLER.
000426:
000427: 21,3422           00240        OCT00240           OCTAL    00240                                 #  DECIMAL 10/1024
000428:


000430:                                                                                                  #  THE FOLLOWING SECTION IS A CONTINUATION OF THE TRIM GIMBAL CONTROL FROM THE LAST GTS ENTRY. THE QUANTITY NEGUSUM
000431:                                                                                                  #  IS COMPUTED FOR EACH AXIS (Q,R), .707*DEL*FUNCTION(3/2) + K2THETA = NEGUSUM.  NEW DRIVES ARE ENTERED TO CH 12.
000432:
000433:                                                                                                  #  THE SUBROUTINE GTSQRT ACCEPTS A DOUBLE PRECISION VALUE IN FUNCTION, FUNCTION +1 AND RETURNS A SINGLE-PRECISION
000434:                                                                                                  #  SQUARE ROOT OF THE FOURTEEN MOST SIGNIFICANT BITS OF THE ARGUMENT.  ALSO, THE CELL SHFTFLAG CONTAINS A BINARY
000435:                                                                                                  #  EXPONENT S, SUCH THAT THE SQUARE ROOT (RETURNED IN THE A REGISTER) MUST BE SHIFTED RIGHT (MULTIPLIED BY 2 TO THE
000436:                                                                                                  #  POWER (-S)) IN ORDER TO BE THE TRUE SQUARE ROOT OF THE FOURTEEN MOST SIGNIFICANT BITS OF FUNCTION, FUNCTION +1.
000437:                                                                                                  #  SQUARE ROOT ERROR IS NOT MORE THAN 2 IN THE 14TH SIGNIFICANT BIT.  CELLS CLOBBERED ARE A,L,SHFTFLAG,ININDEX,
000438:                                                                                                  #  HALFARG,SCRATCH,SR,FUNCTION, FUNCTION +1.  GTSQRT IS CALLED BY TC GTSQRT AND RETURNS VIA TC Q OR TC FUNCTION +1.
000439:                                                                                                  #  ZERO OR NEGATIVE ARGUMENTS YIELD ZERO FOR SQUARE ROOTS.
000440:
000441: 21,3423           11750        GTSQRT             CCS      FUNCTION
000442: 21,3424           13442                           TCF      GOODARG                               #  FUNCTION IS POSITIVE.  TAKE SQUARE ROOT.
000443: 21,3425           13427                           TCF      +2                                    #  HIGH ORDER WORD IS ZERO.  TRY THE LOWER.
000444: 21,3426           13433                           TCF      ZEROOT                                #  NEGATIVE.  USE ZERO FOR 1/2 POWER.
000445:
000446: 21,3427           31751                           CA       FUNCTION   +1
000447: 21,3430           00006                           EXTEND
000448: 21,3431           63433                           BZMF     ZEROOT
000449:
000450: 21,3432           13436                           TCF      ZEROHIGH                              #  PROCEED.
000451: 21,3433           34755        ZEROOT             CA       ZERO
000452: 21,3434           55740                           TS       SHFTFLAG
000453: 21,3435           00002                           TC       Q
000454:
000455: 21,3436           57750        ZEROHIGH           XCH      FUNCTION                              #  14 MOST SIGNIFICANT BITS ARE IN THE
000456: 21,3437           57751                           XCH      FUNCTION   +1                         #  LOWER WORD.  EXCHANGE THEM.
000457: 21,3440           34757                           CA       SEVEN
000458: 21,3441           13443                           TCF      GOODARG    +1
000459:
000460: 21,3442           34755        GOODARG            CA       ZERO
000461: 21,3443           55740                           TS       SHFTFLAG
000462: 21,3444           35752                           CA       TWELVE                                #  INITIALIZE THE SCALING LOOP.
000463: 21,3445           55743                           TS       ININDEX
000464: 21,3446           13455                           TCF      SCALLOOP
000465:
000466: 21,3447           31750        SCALSTRT           CA       FUNCTION
000467: 21,3450           13471                           TCF      SCALDONE
000468:
000469: 21,3451           37751        MULBUSH            CA       NEG2                                  #  IF ARG IS NOT LESS THAN 1/4, INDEX IS
000470: 21,3452           27743                           ADS      ININDEX                               #  ZERO, INDICATING NO SHIFT NEEDED.
000471: 21,3453           00006                           EXTEND                                         #  BRANCH IF ARG IS NOT LESS THAN 1/4.
000472: 21,3454           63447                           BZMF     SCALSTRT                              #  OTHERWISE COMPARE ARG WITH A REFERENCE
000473:                                                                                                  #  WHICH IS 4 TIMES LARGER THAN THE LAST.
000474: 21,3455           41750        SCALLOOP           CS       FUNCTION
000475: 21,3456           51743                           INDEX    ININDEX
000476: 21,3457           64735                           AD       BIT15                                 #  REFERENCE MAGNITUDE LESS OR EQUAL TO 1/4
000477: 21,3460           00006                           EXTEND
000478: 21,3461           63451                           BZMF     MULBUSH                               #  IF ARG IS NOT LESS THAN REFERENCE, GO
000479:                                                                                                  #  AROUND THE MULBERRY BUSH ONCE MORE.
000480:


000482: 21,3462           51743                           INDEX    ININDEX
000483: 21,3463           34735                           CA       BIT15                                 #  THIS IS THE SCALE MAGNITUDE
000484: 21,3464           57746                           XCH      HALFARG                               #  2**(-ININDEX) IS THE SHIFT DIVISOR.
000485: 21,3465           00006                           EXTEND                                         #  RESCALE ARGUMENT.
000486: 21,3466           31751                           DCA      FUNCTION
000487: 21,3467           00006                           EXTEND
000488: 21,3470           11746                           DV       HALFARG
000489:                                                                                                  #  ININDEX AND SHFTFLAG PRESERVE INFO FOR
000490:
000491:                                                                                                  #  RESCALING AFTER ROOT PROCESS.
000492: 21,3471           00006        SCALDONE           EXTEND
000493: 21,3472           23751                           QXCH     FUNCTION   +1                         #  SAVE Q FOR RETURN
000494: 21,3473           00006                           EXTEND
000495: 21,3474           74736                           MP       BIT14
000496: 21,3475           55746                           TS       HALFARG
000497: 21,3476           74737                           MASK     BIT13
000498: 21,3477           10000                           CCS      A
000499: 21,3500           33616                           CA       OCT11276
000500: 21,3501           63614                           AD       ROOTHALF                              #  INITIAL GUESS IS ROOT 1/2 OR POSMAX
000501:
000502: 21,3502           03620                           TC       ROOTCYCL
000503: 21,3503           03620                           TC       ROOTCYCL
000504: 21,3504           03620                           TC       ROOTCYCL
000505:
000506: 21,3505           01751                           TC       FUNCTION   +1
000507:
000508:                                                                                                  #  ****************************************************************************************************************
000509:
000510:
000511: 21,3506           03423        RSTOFGTS           TC       GTSQRT
000512: 21,3507           57741        PRODUCT            XCH      K2CNTRAL
000513: 21,3510           00006                           EXTEND
000514: 21,3511           71741                           MP       K2CNTRAL
000515: 21,3512           53742                           DXCH     K2CNTRAL
000516: 21,3513           00006                           EXTEND                                         #              THE PRODUCT OF
000517: 21,3514           70001                           MP       L                                     #   1/2                   2       1/2
000518: 21,3515           27742                           ADS      K2CNTRAL   +1                         #  K   *(DEL*OMEGA + ALPHA /(2*K))
000519: 21,3516           54001                           TS       L                                     #                  AND
000520: 21,3517           13521                           TCF      +2                                    #                         2
000521: 21,3520           27741                           ADS      K2CNTRAL                              #   DEL*(DEL*OMEGA + ALPHA /(2*K)) NOW IN
000522:                                                                                                  #  K2CNTRAL
000523:
000524: 21,3521           31743        DOSHIFT            CA       ININDEX
000525: 21,3522           00006                           EXTEND                                         #  MULTIPLY IN THE FACTOR 2(-S), RETURNED
000526: 21,3523           74736                           MP       BIT14                                 #  BY THE GTSQRT SUBROUTINE
000527: 21,3524           27740                           ADS      SHFTFLAG
000528: 21,3525           00006                           EXTEND
000529: 21,3526           13545                           BZF      ADDITIN
000530: 21,3527           51740                           INDEX    SHFTFLAG
000531: 21,3530           34735                           CA       BIT15


000533: 21,3531           57741                           XCH      K2CNTRAL
000534: 21,3532           00006                           EXTEND
000535: 21,3533           71741                           MP       K2CNTRAL
000536: 21,3534           21737                           DAS      K2THETA
000537: 21,3535           57741                           XCH      K2CNTRAL
000538: 21,3536           00006                           EXTEND
000539: 21,3537           71742                           MP       K2CNTRAL   +1
000540: 21,3540           27737                           ADS      K2THETA    +1
000541: 21,3541           54001                           TS       L
000542: 21,3542           13544                           TCF      +2
000543: 21,3543           27736                           ADS      K2THETA
000544:
000545: 21,3544           13550                           TCF      NEGUSUM
000546:
000547: 21,3545           00006        ADDITIN            EXTEND
000548: 21,3546           31742                           DCA      K2CNTRAL
000549: 21,3547           21737                           DAS      K2THETA                               #  NOW ADD IN THE K2THETA TERM.
000550: 21,3550           11736        NEGUSUM            CCS      K2THETA                               #  TEST SIGN OF HIGH ORDER PART.
000551: 21,3551           13555                           TCF      NEGDRIVE
000552: 21,3552           13554                           TCF      +2
000553: 21,3553           13557                           TCF      POSDRIVE
000554:
000555: 21,3554           11737                           CCS      K2THETA    +1                         #  SIGN TEST FOR LOW ORDER PART.
000556: 21,3555           34753        NEGDRIVE           CA       BIT1
000557: 21,3556           13560                           TCF      +2                                    #  STOP GIMBAL DRIVE FOR A ZERO NEGUSUM.
000558: 21,3557           44753        POSDRIVE           CS       BIT1
000559: 21,3560           54001                           TS       L                                     #  SAVE FOR DRIVE REVERSAL TEST.
000560: 21,3561           51747                           INDEX    QRCNTR
000561: 21,3562           57501                           XCH      NEGUQ
000562:
000563: 21,3563           00006                           EXTEND
000564: 21,3564           70001                           MP       L                                     #  MULTIPLY OLD NEGU AND NEW NEGU.
000565: 21,3565           10001                           CCS      L
000566: 21,3566           13603                           TCF      LOUPE                                 #  NON-ZERO GIMBAL DRIVE BEING CONTINUED.
000567:
000568: 21,3567           13600                           TCF      ZEROLOUP                              #  NO REVERSAL PROBLEM HERE.
000569:
000570: 21,3570           13572                           TCF      REVERSAL                              #  NON-ZERO GIMBAL DRIVE BEING REVERSED.
000571: 21,3571           13600                           TCF      ZEROLOUP                              #  NO REVERSAL PROBLEM HERE.
000572:
000573: 21,3572           51747        REVERSAL           INDEX    QRCNTR                                #  A ZERO-DRIVE PAUSE IS NEEDED HERE.  ZERO
000574: 21,3573           55510                           TS       QACCDOT                               #  IS IN A REGISTER FROM CCS ON (-1).
000575: 21,3574           51747                           INDEX    QRCNTR
000576: 21,3575           43615                           CS       GMBLBITA
000577: 21,3576           00006                           EXTEND
000578: 21,3577           03012                           WAND     CHAN12
000579:
000580: 21,3600           41262        ZEROLOUP           CS       RCSFLAGS                              #  SET UP REQUEST FOR ACDT+C12 CALL.
000581: 21,3601           74747                           MASK     CALLGMBL
000582: 21,3602           27262                           ADS      RCSFLAGS
000583:


000585: 21,3603           11747        LOUPE              CCS      QRCNTR                                #  HAVE BOTH AXES BEEN PROCESSED?
000586: 21,3604           13077                           TCF      GOQTRIMG                              #  NO.  DO Q AXIS NEXT.
000587:
000588: 21,3605           31505                           CA       SAVESR                                #  RESTORE THE SR
000589: 21,3606           54021                           TS       SR
000590:
000591: 21,3607           00006        GOCLOSE            EXTEND                                         #  TERMINATE THE JASK.
000592: 21,3610           33613                           DCA      CLOSEADR
000593: 21,3611           52006                           DTCB
000594:
000595: 21,3612  E6,1536                                  EBANK=   AOSQ
000596: 21,3612           03270 36106  CLOSEADR           2CADR    CLOSEOUT                              #  TERMINATE THE JASK.
000597:
000598: 21,3614     5752               TWELVE             EQUALS   OCT14
000599: 21,3614           26501        ROOTHALF           OCTAL    26501                                 #  SQUARE ROOT OF 1/2
000600: 21,3615           01400        GMBLBITA           OCTAL    01400                                 #  INDEXED WRT GMBLBITB   DO NOT MOVE******
000601: 21,3616           11276        OCT11276           OCTAL    11276                                 #  POSMAX - ROOTHALF
000602: 21,3617           06000        GMBLBITB           OCTAL    06000                                 #  INDEXED WRT GMBLBITA   DO NOT MOVE******
000603:
000604:                                                                                                  #  SUBROUTINE ROOTCYCL:  BY CRAIG WORK,3 APRIL 68
000605:                                                                                                  #  ROOTCYCL IS A SUBROUTINE WHICH EXECUTES ONE NEWTON SQUARE ROOT ALGORITHM ITERATION.  THE INITIAL GUESS AT THE
000606:                                                                                                  #  SQUARE ROOT IS PRESUMED TO BE IN THE A REGISTER AND ONE-HALF THE SQUARE IS TAKEN FROM HALFARG.  THE NEW APPROXI-
000607:                                                                                                  #  MATION TO THE SQUARE ROOT IS RETURNED IN THE A REGISTER.  DEBRIS:   A,L,SR,SCRATCH.  ROOTCYCL IS CALLED FROM
000608:                                                                                                  #  LOCATION (LOC) BY A TC ROOTCYCL, AND RETURNS (TC Q) TO LOC +1.
000609:
000610:                                                                                                  #  WARNING:  IF THE INITIAL GUESS IS NOT GREATER THAN THE SQUARE, DIVIDE OR ADD OVERFLOW IS A REAL POSSIBILITY.
000611:
000612: 21,3620           55745        ROOTCYCL           TS       SCRATCH                               #  STORE X
000613: 21,3621           54021                           TS       SR                                    #  X/2 NOW IN SR
000614: 21,3622           31746                           CA       HALFARG                               #  ARG/2 IN THE A REG
000615: 21,3623           22007                           ZL                                             #  PREPARE FOR DIVISION
000616: 21,3624           00006                           EXTEND
000617: 21,3625           11745                           DV       SCRATCH                               #  (ARG/X)/2
000618: 21,3626           60021                           AD       SR                                    #  (X + ARG/X)/2 IN THE A REG
000619: 21,3627           00002                           TC       Q

End of include-file TRIM_GIMBAL_CONTROL_SYSTEM.agc.  Parent file is MAIN.agc


