
Source Code


000002:                                                                                                  ## Copyright:   Public domain.
000003:                                                                                                  ## Filename:    ALARM_AND_ABORT.agc
000004:                                                                                                  ## Purpose:     A section of Luminary revision 96.
000005:                                                                                                  ##              It is part of the reconstructed source code for the
000006:                                                                                                  ##              original release of the flight software for the Lunar
000007:                                                                                                  ##              Module's (LM) Apollo Guidance Computer (AGC) for Apollo 11.
000008:                                                                                                  ##              The code has been recreated from a previously reconstructed
000009:                                                                                                  ##              copy of Luminary 97 by undoing changes described in anomaly
000010:                                                                                                  ##              report LNY-59. The code has been adapted such that the
000011:                                                                                                  ##              resulting bugger words exactly match those specified for
000012:                                                                                                  ##              Luminary 96 in NASA drawing 2021152D, which gives relatively
000013:                                                                                                  ##              high confidence that the reconstruction is correct.
000014:                                                                                                  ## Reference:   pp. 1381-1385
000015:                                                                                                  ## Assembler:   yaYUL
000016:                                                                                                  ## Contact:     Ron Burkey <info@sandroid.org>.
000017:                                                                                                  ## Website:     www.ibiblio.org/apollo/index.html
000018:                                                                                                  ## Mod history: 2019-08-04 MAS  Created from Luminary 97.
000019:


000021:                                                                                                  #  THE FOLLOWING SUBROUTINE MAY BE CALLED TO DISPLAY A NON-ABORTIVE ALARM CONDITION.  IT MAY BE CALLED
000022:                                                                                                  #  EITHER IN INTERRUPT OR UNDER EXECUTIVE CONTROL.
000023:
000024:                                                                                                  #  CALLING SEQUENCE IS AS FOLLOWS:
000025:                                                                                                  #                TC      ALARM
000026:                                                                                                  #                OCT     AAANN           ALARM NO. NN IN GENERAL AREA AAA.
000027:                                                                                                  #                                        (RETURNS HERE)
000028:
000029:    5567                                           BLOCK    02
000030:    4000                                           SETLOC   FFTAG7
000031:    4000                                           BANK
000032:
000033:    5567     0375                                  EBANK=   FAILREG
000034:
000035:    5567                                           COUNT*   $$/ALARM
000036:
000037:                                                                                                  #  ALARM TURNS ON THE PROGRAM ALARM LIGHT, BUT DOES NOT DISPLAY.
000038:
000039:    5567           00004        ALARM              INHINT
000040:
000041:    5570           30002                           CA       Q
000042:    5571           55363        ALARM2             TS       ALMCADR
000043:    5572           50002                           INDEX    Q
000044:    5573           30000                           CA       0
000045:    5574           54001        BORTENT            TS       L
000046:
000047:    5575           30006        PRIOENT            CA       BBANK
000048:    5576           00006                 +1        EXTEND
000049:    5577           04007                           ROR      SUPERBNK                              #  ADD SUPER BITS.
000050:    5600           55364                           TS       ALMCADR    +1
000051:
000052:    5601           30002        LARMENT            CA       Q                                     #  STORE RETURN FOR ALARM
000053:    5602           54061                           TS       ITEMP1
000054:
000055:    5603           10375        CHKFAIL1           CCS      FAILREG                               #  IS ANYTHING IN FAILREG
000056:    5604           15607                           TCF      CHKFAIL2                              #  YES TRY NEXT REG
000057:    5605           22375                           LXCH     FAILREG
000058:    5606           15621                           TCF      PROGLARM                              #  TURN ALARM LIGHT ON FOR FIRST ALARM
000059:
000060:    5607           10376        CHKFAIL2           CCS      FAILREG    +1
000061:    5610           15613                           TCF      FAIL3
000062:    5611           22376                           LXCH     FAILREG    +1
000063:    5612           15624                           TCF      MULTEXIT
000064:
000065:    5613           30377        FAIL3              CA       FAILREG    +2
000066:    5614           74733                           MASK     POSMAX
000067:    5615           10000                           CCS      A
000068:    5616           15630                           TCF      MULTFAIL
000069:    5617           22377                           LXCH     FAILREG    +2
000070:    5620           15624                           TCF      MULTEXIT
000071:


000073:
000074:    5621           41036        PROGLARM           CS       DSPTAB     +11D
000075:    5622           75642                           MASK     OCT40400
000076:    5623           27036                           ADS      DSPTAB     +11D
000077:
000078:
000079:    5624           56061        MULTEXIT           XCH      ITEMP1                                #  OBTAIN RETURN ADDRESS IN A
000080:    5625           00003                           RELINT
000081:    5626           50000                           INDEX    A
000082:    5627           00001                           TC       1
000083:
000084:    5630           30001        MULTFAIL           CA       L
000085:    5631           64735                           AD       BIT15
000086:    5632           54377                           TS       FAILREG    +2
000087:
000088:    5633           15624                           TCF      MULTEXIT
000089:
000090:                                                                                                  #  PRIOLARM DISPLAYS V05N09 VIA PRIODSPR WITH 3 RETURNS TO THE USER FROM THE ASTRONAUT AT CALL LOC +1,+2,+3 AND
000091:                                                                                                  #  AN IMMEDIATE RETURN TO THE USER AT CALL LOC +4.  EXAMPLE FOLLOWS,
000092:                                                                                                  #                CAF     OCTXX           ALARM CODE
000093:                                                                                                  #                TC      BANKCALL
000094:                                                                                                  #                CADR    PRIOLARM
000095:                                                                                                  #                ...     ...
000096:                                                                                                  #                ...     ...
000097:                                                                                                  #                ...     ...             ASTRONAUT RETURN
000098:                                                                                                  #                TC      PHASCHNG        IMMEDIATE RETURN TO USER.  RESTART
000099:                                                                                                  #                OCT     X.1             PHASE CHANGE FOR PRIO DISPLAY
000100:
000101: 10,3562                                           BANK     10
000102: 10,2000                                           SETLOC   DISPLAYS
000103: 10,2000                                           BANK
000104:
000105: 10,3562                                           COUNT*   $$/DSPLA
000106: 10,3562           00004        PRIOLARM           INHINT                                         #  * * * KEEP IN DISPLAY ROUTINES BANK
000107: 10,3563           54001                           TS       L                                     #  SAVE ALARM CODE
000108:
000109: 10,3564           30133                           CA       BUF2                                  #  2 CADR OF PRIOLARM USER
000110: 10,3565           55363                           TS       ALMCADR
000111: 10,3566           30134                           CA       BUF2       +1
000112: 10,3567           05576                           TC       PRIOENT    +1                         #  * LEAVE L ALONE
000113: 10,3570           77467        -2SEC              DEC      -200       B-14                       #  *** DONT MOVE
000114: 10,3571           35006                           CAF      V05N09
000115: 10,3572           12504                           TCF      PRIODSPR
000116:
000117:    5634                                           BLOCK    02
000118:    4000                                           SETLOC   FFTAG7
000119:    4000                                           BANK
000120:
000121:    5634                                           COUNT*   $$/ALARM
000122:    5634           00004        BAILOUT            INHINT
000123:    5635           30002                           CA       Q


000125:    5636           55363                           TS       ALMCADR
000126:
000127:    5637           50002                           INDEX    Q
000128:    5640           30000                           CAF      0
000129:    5641           05574                           TC       BORTENT
000130:    5642           40400        OCT40400           OCT      40400
000131:
000132:    5643           00004                           INHINT
000133:    5644           34752        WHIMPER            CA       TWO
000134:    5645           60005                           AD       Z
000135:    5646           54017                           TS       BRUPT
000136:    5647           50017                           RESUME
000137:    5650           04635                           TC       POSTJUMP                              #  RESUME SENDS CONTROL HERE
000138:    5651           12765                           CADR     ENEMA
000139:    5652           00004        POODOO             INHINT
000140:    5653           30002                           CA       Q
000141:    5654           55363        ABORT2             TS       ALMCADR
000142:    5655           50002                           INDEX    Q
000143:    5656           30000                           CAF      0
000144:    5657           05574                           TC       BORTENT
000145:    5660           77770        OCT77770           OCT      77770                                 #  DON'T MOVE
000146:
000147:    5661           34765                           CAF      OCT35                                 #  4.35SPOT FOR GOPOODOO
000148:    5662           54001                           TS       L
000149:    5663           40000                           COM
000150:    5664           52761                           DXCH     -PHASE4
000151:    5665           00004        GOPOODOO           INHINT
000152:    5666           04616                           TC       BANKCALL                              #  RESET STATEFLG, REINTFLG, AND NODOFLAG.
000153:    5667           27755                           CADR     FLAGS
000154:    5670           30103                           CA       FLAGWRD7                              #  IS SERVICER CURRENTLY IN OPERATION?
000155:    5671           74746                           MASK     V37FLBIT
000156:    5672           10000                           CCS      A
000157:    5673           15701                           TCF      STRTIDLE
000158:    5674           04616                           TC       BANKCALL                              #  TERMINATE GRPS 1, 3, 5, AND 6
000159:    5675           12652                           CADR     V37KLEAN
000160:    5676           04616                           TC       BANKCALL                              #  TERMINATE GRPS 2, 4, 1, 3, 5, AND 6
000161:    5677           12643                           CADR     MR.KLEAN                              #        (I.E., GRP 4 LAST)
000162:    5700           15644                           TCF      WHIMPER
000163:    5701           35743        STRTIDLE           CAF      BBSERVDL
000164:    5702           04727                           TC       SUPERSW
000165:    5703           04616                           TC       BANKCALL                              #  PUT SERVICER INTO ITS "GROUND" STATE
000166:    5704           57321                           CADR     SERVIDLE                              #  AND PROCEED TO GOTOPOOH.
000167:    5705           00004        CCSHOLE            INHINT
000168:    5706           30002                           CA       Q
000169:    5707           05654                           TC       ABORT2
000170:    5710           01103        OCT21103           OCT      1103
000171:    5711           00004        CURTAINS           INHINT
000172:    5712           30002                           CA       Q
000173:    5713           05571                           TC       ALARM2
000174:    5714           00217        OCT217             OCT      00217


000176:    5715           01363                           TC       ALMCADR                               #  RETURN TO USER
000177:
000178:    5716           00004        BAILOUT1           INHINT
000179:    5717           53364                           DXCH     ALMCADR
000180:    5720           35742                           CAF      ADR40400
000181:    5721           54061        BOTHABRT           TS       ITEMP1
000182:    5722           50002                           INDEX    Q
000183:    5723           30000                           CAF      0
000184:    5724           54001                           TS       L
000185:    5725           15603                           TCF      CHKFAIL1
000186:    5726           00004        POODOO1            INHINT
000187:    5727           53364                           DXCH     ALMCADR
000188:    5730           35741                           CAF      ADR77770
000189:    5731           15721                           TCF      BOTHABRT
000190:
000191:    5732           00004        ALARM1             INHINT
000192:    5733           53364                           DXCH     ALMCADR
000193:    5734           00004        ALMNCADR           INHINT
000194:    5735           50002                           INDEX    Q
000195:    5736           30000                           CA       0
000196:    5737           54001                           TS       L
000197:    5740           15601                           TCF      LARMENT
000198:
000199:    5741           15660        ADR77770           TCF      OCT77770
000200:    5742           15642        ADR40400           TCF      OCT40400
000201:    5743     5155               DOALARM            EQUALS   ENDOFJOB
000202:    5743  E7,1515                                  EBANK=   DVCNTR
000203:    5743           56067        BBSERVDL           BBCON    SERVIDLE
000204:
000205:                                                                                                  #  CALLING SEQUENCE FOR VARALARM
000206:                                                                                                  #                CAF     (ALARM)
000207:                                                                                                  #                TC      VARALARM
000208:
000209:                                                                                                  #  VARALARM TURNS ON PROGRAM ALARM LIGHT BUT DOES NOT DISPLAY
000210:
000211:    5744           00004        VARALARM           INHINT
000212:
000213:    5745           54001                           TS       L                                     #  SAVE USERS ALARM CODE
000214:
000215:    5746           30002                           CA       Q                                     #  SAVE USERS Q
000216:    5747           55363                           TS       ALMCADR
000217:
000218:    5750           05575                           TC       PRIOENT
000219:    5751           00014        OCT14              OCT      14                                    #  DONT MOVE
000220:
000221:    5752           01363                           TC       ALMCADR                               #  RETURN TO USER
000222:
000223:    5753     5644               ABORT              EQUALS   WHIMPER
000224: 13,3755                                           BANK     13
000225: 13,2000                                           SETLOC   ABTFLGS
000226: 13,2000                                           BANK


000228: 13,3755                                           COUNT*   $$/ALARM
000229:
000230: 13,3755           44747        FLAGS              CS       STATEBIT
000231: 13,3756           70077                           MASK     FLAGWRD3
000232: 13,3757           54077                           TS       FLAGWRD3
000233: 13,3760           44745                           CS       REINTBIT
000234: 13,3761           70106                           MASK     FLGWRD10
000235: 13,3762           54106                           TS       FLGWRD10
000236: 13,3763           44753                           CS       NODOBIT
000237: 13,3764           70076                           MASK     FLAGWRD2
000238: 13,3765           54076                           TS       FLAGWRD2
000239: 13,3766           00002                           TC       Q
000240:

End of include-file ALARM_AND_ABORT.agc.  Parent file is MAIN.agc


