
Source Code


000002:                                                                                                  ## Copyright:   Public domain.
000003:                                                                                                  ## Filename:    BURN,_BABY,_BURN_--_MASTER_IGNITION_ROUTINE.agc
000004:                                                                                                  ## Purpose:     A section of Luminary revision 96.
000005:                                                                                                  ##              It is part of the reconstructed source code for the
000006:                                                                                                  ##              original release of the flight software for the Lunar
000007:                                                                                                  ##              Module's (LM) Apollo Guidance Computer (AGC) for Apollo 11.
000008:                                                                                                  ##              The code has been recreated from a previously reconstructed
000009:                                                                                                  ##              copy of Luminary 97 by undoing changes described in anomaly
000010:                                                                                                  ##              report LNY-59. The code has been adapted such that the
000011:                                                                                                  ##              resulting bugger words exactly match those specified for
000012:                                                                                                  ##              Luminary 96 in NASA drawing 2021152D, which gives relatively
000013:                                                                                                  ##              high confidence that the reconstruction is correct.
000014:                                                                                                  ## Reference:   pp. 731-751
000015:                                                                                                  ## Assembler:   yaYUL
000016:                                                                                                  ## Contact:     Ron Burkey <info@sandroid.org>.
000017:                                                                                                  ## Website:     www.ibiblio.org/apollo/index.html
000018:                                                                                                  ## Mod history: 2019-08-04 MAS  Created from Luminary 97.
000019:


000033:
000034: 36,2022                                           BANK     36
000035: 36,2000                                           SETLOC   P40S
000036: 36,2000                                           BANK
000037: 36,2022  E7,1455                                  EBANK=   WHICH
000038: 36,2022                                           COUNT*   $$/P40
000039:
000040:                                                                                                  #  THE MASTER IGNITION ROUTINE IS DESIGNED FOR USE BY THE FOLLOWING LEM PROGRAMS:  P12, P40, P42, P61, P63.
000041:                                                                                                  #  IT PERFORMS ALL FUNCTIONS IMMEDIATELY ASSOCIATED WITH APS OR DPS IGNITION:  IN PARTICULAR, EVERYTHING LYING
000042:                                                                                                  #  BETWEEN THE PRE-IGNITION TIME CHECK -- ARE WE WITHIN 45 SECONDS OF TIG? -- AND TIG + 26 SECONDS, WHEN DPS
000043:                                                                                                  #  PROGRAMS THROTTLE UP.
000044:
000045:                                                                                                  #  VARIATIONS AMONG PROGRAMS ARE ACCOMODATED BY MEANS OF TABLES CONTAINING CONSTANTS (FOR AVEGEXIT, FOR
000046:                                                                                                  #  WAITLIST, FOR PINBALL) AND TCF INSTRUCTIONS.  USERS PLACE THE ADRES OF THE HEAD OF THE APPROPRIATE TABLE
000047:                                                                                                  #  (OF P61TABLE FOR P61LM, FOR EXAMPLE) IN ERASABLE REGISTER 'WHICH' (E4).  THE IGNITION ROUTINE THEN INDEXES BY
000048:                                                                                                  #  WHICH TO OBTAIN OR EXECUTE THE PROPER TABLE ENTRY.  THE IGNITION ROUTINE IS INITIATED BY A TCF BURNBABY,
000049:                                                                                                  #  THROUGH BANKJUMP IF NECESSARY.  THERE IS NO RETURN.
000050:
000051:                                                                                                  #  THE MASTER IGNITION ROUTINE WAS CONCEIVED AND EXECUTED, AND (NOTA BENE) IS MAINTAINED BY ADLER AND EYLES.
000052:
000053:                                                                                                  #                   HONI SOIT QUI MAL Y PENSE
000054:
000055:                                                                                                  #        ****************************************
000056:                                                                                                  #        TABLES FOR THE IGNITION ROUTINE
000057:                                                                                                  #        ****************************************
000058:
000059:                                                                                                  #                        NOLI SE TANGERE
000060:
000061: 36,2022           01512        P12TABLE           VN       0674                                  #  (0)
000062: 36,2023           12325                           TCF      ULLGNOT                               #  (1)
000063: 36,2024           12612                           TCF      COMFAIL3                              #  (2)
000064: 36,2025           13062                           TCF      GOCUTOFF                              #  (3)
000065: 36,2026           15261                           TCF      TASKOVER                              #  (4)
000066: 36,2027           12146                           TCF      P12SPOT                               #  (5)
000067: 36,2030           00000                           DEC      0          B-14                       #  (6)   NO ULLAGE
000068: 36,2031  E7,1455                                  EBANK=   WHICH
000069: 36,2031           03770 64067                     2CADR    SERVEXIT                              #  (7)
000070:
000071: 36,2033           12376                           TCF      DISPCHNG                              #  (11)
000072: 36,2034           12563                           TCF      WAITABIT                              #  (12)
000073: 36,2035           12521                           TCF      P12IGN                                #  (13)
000074:
000075: 36,2036           01450        P40TABLE           VN       0640                                  #  (0)
000076: 36,2037           12325                           TCF      ULLGNOT                               #  (1)
000077: 36,2040           12614                           TCF      COMFAIL4                              #  (2)
000078: 36,2041           13047                           TCF      GOPOST                                #  (3)
000079: 36,2042           15261                           TCF      TASKOVER                              #  (4)
000080: 36,2043           12146                           TCF      P40SPOT                               #  (5)


000082: 36,2044           04300                           DEC      2240       B-14                       #  (6)
000083: 36,2045  E6,1422                                  EBANK=   OMEGAQ
000084: 36,2045           03666 74066                     2CADR    STEERING                              #  (7)
000085:
000086: 36,2047           12366                           TCF      P40SJUNK                              #  (11)
000087: 36,2050           12563                           TCF      WAITABIT                              #  (12)
000088: 36,2051           12504                           TCF      P40IGN                                #  (13)
000089: 36,2052           13123                           TCF      REP40ALM                              #  (14)
000090:
000091: 36,2053           12151        P41TABLE           TCF      P41SPOT                               #  (5)
000092: 36,2054           77776                           DEC      -1         B-14                       #  (6)
000093: 36,2055  E6,1422                                  EBANK=   OMEGAQ
000094: 36,2055           03376 74066                     2CADR    CALCN85                               #  (7)
000095:
000096: 36,2057           12400                           TCF      COMMON                                #  (11)
000097: 36,2060           12567                           TCF      TIGTASK                               #  (12)
000098:
000099: 36,2061           01450        P42TABLE           VN       0640                                  #  (0)
000100: 36,2062           12322                           TCF      WANTAPS                               #  (1)
000101: 36,2063           12614                           TCF      COMFAIL4                              #  (2)
000102: 36,2064           13047                           TCF      GOPOST                                #  (3)
000103: 36,2065           15261                           TCF      TASKOVER                              #  (4)
000104: 36,2066           12146                           TCF      P42SPOT                               #  (5)
000105: 36,2067           05120                           DEC      2640       B-14                       #  (6)
000106: 36,2070  E6,1422                                  EBANK=   OMEGAQ
000107: 36,2070           03666 74066                     2CADR    STEERING                              #  (7)
000108:
000109: 36,2072           12366                           TCF      P40SJUNK                              #  (11)
000110: 36,2073           12563                           TCF      WAITABIT                              #  (12)
000111: 36,2074           12541                           TCF      P42IGN                                #  (13)
000112: 36,2075           13420                           TCF      P42STAGE                              #  (14)
000113:
000114: 36,2076           01476        P63TABLE           VN       0662                                  #  (0)
000115: 36,2077           12325                           TCF      ULLGNOT                               #  (1)
000116: 36,2100           12612                           TCF      COMFAIL3                              #  (2)
000117: 36,2101           12777                           TCF      V99RECYC                              #  (3)
000118: 36,2102           15261                           TCF      TASKOVER                              #  (4)
000119: 36,2103           12151                           TCF      P63SPOT                               #  (5)
000120: 36,2104           04300                           DEC      2240       B-14                       #  (6)
000121: 36,2105  E7,1455                                  EBANK=   WHICH
000122: 36,2105           03770 64067                     2CADR    SERVEXIT                              #  (7)
000123:
000124: 36,2107           12376                           TCF      DISPCHNG                              #  (11)
000125: 36,2110           12563                           TCF      WAITABIT                              #  (12)


000127: 36,2111           12455                           TCF      P63IGN                                #  (13)
000128:
000129: 36,2112           01477        ABRTABLE           VN       0663                                  #  (0)
000130: 36,2113           12325                           TCF      ULLGNOT                               #  (1)
000131: 36,2114           12612                           TCF      COMFAIL3                              #  (2)
000132: 36,2115           13062                           TCF      GOCUTOFF                              #  (3)
000133: 36,2116           15261                           TCF      TASKOVER                              #  (4)
000134: 36,2117           12120                           NOOP                                           #  (5)
000135: 36,2120           12121                           NOOP                                           #  (6)
000136: 36,2121           12122                           NOOP                                           #  (7)
000137: 36,2122           12123                           NOOP
000138: 36,2123           12376                           TCF      DISPCHNG                              #  (11)
000139: 36,2124           12563                           TCF      WAITABIT                              #  (12)
000140: 36,2125           12531                           TCF      ABRTIGN                               #  (13)
000141:
000142:                                                                                                  #        ****************************************
000143:                                                                                                  #        GENERAL PURPOSE IGNITION ROUTINES
000144:                                                                                                  #        ****************************************
000145:
000146: 36,2126           05353        BURNBABY           TC       PHASCHNG                              #  GROUP 4 RESTARTS HERE
000147: 36,2127           04024                           OCT      04024
000148:
000149: 36,2130           34755                           CAF      ZERO                                  #  EXTIRPATE JUNK LEFT IN DVTOTAL
000150: 36,2131           55507                           TS       DVTOTAL
000151: 36,2132           55510                           TS       DVTOTAL    +1
000152:
000153: 36,2133           04616                           TC       BANKCALL                              #  P40AUTO MUST BE BANKCALLED EVEN FROM ITS
000154: 36,2134           73747                           CADR     P40AUTO                               #  OWN BANK TO SET UP RETURN PROPERLY
000155:
000156: 36,2135           00006        B*RNB*B*           EXTEND
000157: 36,2136           31442                           DCA      TIG                                   #  STORE NOMINAL TIG FOR OBLATENESS COMP.
000158: 36,2137           53512                           DXCH     GOBLTIME                              #  AND FOR P70 OR P71.
000159:
000160: 36,2140           00004                           INHINT
000161: 36,2141           04674                           TC       IBNKCALL
000162: 36,2142           75564                           CADR     ENGINOF3
000163: 36,2143           00003                           RELINT
000164:
000165: 36,2144           51455                           INDEX    WHICH
000166: 36,2145           10005                           TCF      5
000167:
000168: 36,2146  36,2146               P42SPOT            =        P40SPOT                               #  (5)
000169: 36,2146  36,2146               P12SPOT            =        P40SPOT                               #  (5)
000170: 36,2146  36,2151               P63SPOT            =        P41SPOT                               #  (5)   IN P63 CLOKTASK ALREADY GOING
000171: 36,2146           44762        P40SPOT            CS       CNTDNDEX                              #  (5)


000173: 36,2147           04616                           TC       BANKCALL                              #  MUST BE BANKCALLED FOR GENERALIZED
000174: 36,2150           74664                           CADR     STCLOK2                               #        RETURN
000175: 36,2151           06037        P41SPOT            TC       INTPRET                               #  (5)
000176: 36,2152           45345                           DLOAD    DSU
000177: 36,2153           03442                                    TIG
000178: 36,2154           35143                                    D29.9SEC
000179: 36,2155           34041                           STCALL   TDEC1
000180: 36,2156           61104                                    INITCDUW
000181: 36,2157           45014                           BOFF     CALL
000182: 36,2160           03347                                    MUNFLAG
000183: 36,2161           74200                                    GOMIDAV
000184: 36,2162           27043                                    CSMPREC
000185: 36,2163           64375                           VLOAD    MXV
000186: 36,2164           00025                                    VATT1
000187: 36,2165           01734                                    REFSMMAT
000188: 36,2166           77762                           VSR1
000189: 36,2167           25726                           STOVL    V(CSM)                                #  CSM VELOCITY - M/CS*2(7)
000190: 36,2170           00017                                    RATT1
000191: 36,2171           64312                           VSL4     MXV
000192: 36,2172           01734                                    REFSMMAT
000193: 36,2173           35720                           STCALL   R(CSM)                                #  CSM POSITION - M*2(24)
000194: 36,2174           67130                                    MUNGRAV
000195: 36,2175           16317                           STODL    G(CSM)                                #  CSM GRAVITY VEC. - M/CS*2(7)
000196: 36,2176           00015                                    TAT
000197: 36,2177           00041                           STORE    TDEC1                                 #  RELOAD TDEC1 FOR MIDTOAV.
000198: 36,2200           77624        GOMIDAV            CALRB
000199: 36,2201           27557                                    MIDTOAV1
000200: 36,2202           12211                           TCF      CALLT-35                              #  MADE IT IN TIME.
000201:
000202: 36,2203           00006                           EXTEND                                         #  TIG WAS SLIPPED, SO RESET TIG TO 29.9
000203: 36,2204           31561                           DCA      PIPTIME1                              #  SECONDS AFTER THE TIME TO WHICH WE DID
000204: 36,2205           53442                           DXCH     TIG                                   #  INTEGRATE.
000205: 36,2206           00006                           EXTEND
000206: 36,2207           33143                           DCA      D29.9SEC
000207: 36,2210           21442                           DAS      TIG
000208:
000209: 36,2211           52155        CALLT-35           DXCH     MPAC
000210: 36,2212           53500                           DXCH     SAVET-30                              #  DELTA-T UNTIL TIG-30
000211: 36,2213           00006                           EXTEND
000212: 36,2214           43756                           DCS      5SECDP
000213: 36,2215           21500                           DAS      SAVET-30                              #  DELTA-T UNTIL TIG-35
000214: 36,2216           00006                           EXTEND
000215: 36,2217           31500                           DCA      SAVET-30
000216: 36,2220           05277                           TC       LONGCALL
000217: 36,2221  E7,1453                                  EBANK=   TTOGO
000218: 36,2221           02240 74067                     2CADR    TIG-35
000219:
000220: 36,2223           05353                           TC       PHASCHNG
000221: 36,2224           20254                           OCT      20254                                 #  4.25SPOT FOR TIG-35 RESTART.


000223: 36,2225           05321                           TC       CHECKMM
000224: 36,2226           00077                           DEC      63         B-14
000225: 36,2227           15155                           TCF      ENDOFJOB                              #  NOT P63
000226: 36,2230           44762                           CS       CNTDNDEX                              #  P63 CAN START DISPLAYING NOW.
000227: 36,2231           55163                           TS       DISPDEX
000228: 36,2232           06037                           TC       INTPRET
000229: 36,2233           51575                           VLOAD    ABVAL
000230: 36,2234           03553                                    VN1
000231: 36,2235           03472                           STORE    ABVEL                                 #  INITIALIZE ABVEL FOR P63 DISPLAY
000232: 36,2236           77776                           EXIT
000233: 36,2237           15155                           TCF      ENDOFJOB
000234:
000235:                                                                                                  #        ****************************************
000236:
000237: 36,2240           33756        TIG-35             CAF      5SEC
000238: 36,2241           05173                           TC       TWIDDLE
000239: 36,2242           02276                           ADRES    TIG-30
000240:
000241: 36,2243           05353                           TC       PHASCHNG
000242: 36,2244           40154                           OCT      40154                                 #  4.15SPOT FOR TIG-30 RESTART
000243:
000244: 36,2245           44752                           CS       BLANKDEX                              #  BLANK DSKY FOR 5 SECONDS
000245: 36,2246           55163                           TS       DISPDEX
000246:
000247: 36,2247           51455                           INDEX    WHICH
000248: 36,2250           40006                           CS       6                                     #  CHECK ULLAGE TIME.
000249: 36,2251           00006                           EXTEND
000250: 36,2252           65261                           BZMF     TASKOVER
000251: 36,2253           33145                           CAF      4.9SEC                                #  SET UP TASK TO RESTORE DISPLAY AT TIG-30
000252: 36,2254           05173                           TC       TWIDDLE
000253: 36,2255           02266                           ADRES    TIG-30.1
000254:
000255: 36,2256           35027                           CAF      PRIO17                                #  A NEGATIVE ULLAGE TIME INDICATES P41, IN
000256: 36,2257           05072                           TC       NOVAC                                 #  WHICH CASE WE HAVE TO SET UP A JOB TO
000257: 36,2260  E7,1453                                  EBANK=   TTOGO                                 #  BLANK THE DSKY FOR FIVE SECONDS, SINCE
000258: 36,2260           02263 74067                     2CADR    P41BLANK                              #  CLOKJOB IS NOT RUNNING DURING P41.
000259:
000260: 36,2262           15261                           TCF      TASKOVER
000261:
000262: 36,2263           04616        P41BLANK           TC       BANKCALL                              #  BLANK DSKY.
000263: 36,2264           20456                           CADR     CLEANDSP
000264: 36,2265           15155                           TCF      ENDOFJOB
000265:
000266: 36,2266           35027        TIG-30.1           CAF      PRIO17                                #  SET UP JOB TO RESTORE DISPLAY AT TIG-30
000267: 36,2267           05072                           TC       NOVAC
000268: 36,2270  E7,1453                                  EBANK=   TTOGO
000269: 36,2270           02273 74067                     2CADR    TIG-30A
000270:
000271: 36,2272           15261                           TCF      TASKOVER


000273: 36,2273           33761        TIG-30A            CAF      V16N85B
000274: 36,2274           04616                           TC       BANKCALL                              #  RESTORE DISPLAY.
000275: 36,2275           20465                           CADR     REGODSP                               #  REGODSP DOES A TCF ENDOFJOB
000276:
000277:                                                                                                  #        *****************************************
000278:
000279: 36,2276           33144        TIG-30             CAF      S24.9SEC
000280: 36,2277           05173                           TC       TWIDDLE
000281: 36,2300           02352                           ADRES    TIG-5
000282:
000283: 36,2301           44762                           CS       CNTDNDEX                              #  START UP CLOKTASK AGAIN
000284: 36,2302           55163                           TS       DISPDEX
000285:
000286: 36,2303           51455                           INDEX    WHICH                                 #  PICK UP APPROPRIATE ULLAGE - ON TIME
000287: 36,2304           30006                           CAF      6
000288: 36,2305           00006                           EXTEND
000289: 36,2306           62325                           BZMF     ULLGNOT                               #  DON'T SET UP ULLAGE IF DT IS NEG OR ZERO
000290: 36,2307           55477                           TS       SAVET-30                              #  SAVE DELTA-T FOR RESTART
000291: 36,2310           05173                           TC       TWIDDLE
000292: 36,2311           02346                           ADRES    ULLGTASK
000293:
000294: 36,2312           36245                           CA       THREE                                 #  RESTART PROTECT ULLGTASK (1.3SPOT)
000295: 36,2313           54001                           TS       L
000296: 36,2314           46245                           CS       THREE
000297: 36,2315           52753                           DXCH     -PHASE1
000298: 36,2316           40025                           CS       TIME1
000299: 36,2317           55053                           TS       TBASE1
000300:
000301: 36,2320           51455                           INDEX    WHICH
000302: 36,2321           10001                           TCF      1
000303:
000304: 36,2322           40106        WANTAPS            CS       FLGWRD10                              #  (1) FOR P42 ENSURE APSFLAG IS SET.  IF IT
000305: 36,2323           74737                           MASK     APSFLBIT                              #  WASN'T SET, DAP WILL BE INITIALIZED TO
000306: 36,2324           26106                           ADS      FLGWRD10                              #  ASCENT VALUES BY 1/ACCS IN 2 SECONDS.
000307:
000308: 36,2325           00006        ULLGNOT            EXTEND                                         #  (1)
000309: 36,2326           51455                           INDEX    WHICH
000310: 36,2327           30010                           DCA      7                                     #  LOAD AVEGEXIT WITH APPROPRIATE 2CADR
000311: 36,2330           53253                           DXCH     AVEGEXIT
000312:
000313: 36,2331           34752                           CAF      TWO                                   #  4.2SPOT RESTARTS IMMEDIATELY AT REDO4.2
000314: 36,2332           54001                           TS       L
000315: 36,2333           44752                           CS       TWO                                   #  AND ALSO AT TIG-5 AT THE CORRECT TIME.
000316: 36,2334           52761                           DXCH     -PHASE4
000317:
000318: 36,2335           40025                           CS       TIME1
000319: 36,2336           55061                           TS       TBASE4                                #  SET TBASE4 FOR TIG-5 RESTART
000320:
000321: 36,2337           00006        REDO2.17           EXTEND


000323: 36,2340           34755                           DCA      NEG0                                  #  CLEAR OUT GROUP 2 SO LAMBERT CAN START
000324: 36,2341           52755                           DXCH     -PHASE2                               #  IF NEEDED.
000325:
000326: 36,2342           10763        REDO4.2            CCS      PHASE5                                #  IS SERVICER GOING?
000327: 36,2343           15261                           TCF      TASKOVER                              #  YES, DON'T START IT UP AGAIN.
000328:
000329: 36,2344           04635                           TC       POSTJUMP
000330: 36,2345           77410                           CADR     PREREAD                               #  PREREAD ENDS THIS TASK
000331:
000332:                                                                                                  #        ****************************************
000333:
000334: 36,2346           02657        ULLGTASK           TC       ONULLAGE                              #  THIS COMES AT TIG-7.5 OR TIG-3.5
000335: 36,2347           05353                           TC       PHASCHNG
000336: 36,2350           00001                           OCT      1
000337: 36,2351           15261                           TCF      TASKOVER
000338:
000339:                                                                                                  #        ****************************************
000340:
000341: 36,2352           00006        TIG-5              EXTEND
000342: 36,2353           34755                           DCA      NEG0                                  #  INSURE THAT GROUP 3 IS INACTIVE.
000343: 36,2354           52757                           DXCH     -PHASE3
000344:
000345: 36,2355           33756                           CAF      5SEC
000346: 36,2356           05173                           TC       TWIDDLE
000347: 36,2357           02403                           ADRES    TIG-0
000348:
000349: 36,2360           05516                           TC       DOWNFLAG                              #  RESET IGNFLAG AND ASTNFLAG
000350: 36,2361           00153                           ADRES    IGNFLAG                               #        FOR LIGHT-UP LOGIC
000351: 36,2362           05516                           TC       DOWNFLAG
000352: 36,2363           00154                           ADRES    ASTNFLAG
000353:
000354: 36,2364           51455                           INDEX    WHICH
000355: 36,2365           10011                           TCF      11
000356:
000357: 36,2366           10757        P40SJUNK           CCS      PHASE3                                #  (11) P40 AND P42.  S40.13 IN PROGRESS?
000358: 36,2367           12376                           TCF      DISPCHNG                              #  YES
000359:
000360: 36,2370           34736                           CAF      PRIO20
000361: 36,2371           05105                           TC       FINDVAC
000362: 36,2372  E7,1453                                  EBANK=   TTOGO
000363: 36,2372           02540 56067                     2CADR    S40.13
000364:
000365: 36,2374           05353                           TC       PHASCHNG                              #  3.5SPOT FOR S40.13
000366: 36,2375           00053                           OCT      00053
000367: 36,2376           44760        DISPCHNG           CS       VB99DEX                               #  (11)
000368: 36,2377           55163                           TS       DISPDEX
000369:


000371: 36,2400           05353        COMMON             TC       PHASCHNG                              #  RESTART TIG-0 (4.7SPOT)
000372: 36,2401           40074                           OCT      40074
000373: 36,2402           15261                           TCF      TASKOVER
000374:
000375:                                                                                                  #        ****************************************
000376:
000377: 36,2403           40103        TIG-0              CS       FLAGWRD7                              #  SET IGNFLAG SINCE TIG HAS ARRIVED
000378: 36,2404           74737                           MASK     IGNFLBIT
000379: 36,2405           26103                           ADS      FLAGWRD7
000380:
000381: 36,2406           05321                           TC       CHECKMM                               #  IN P63 CASE, THROTTLE-UP IS ZOOMTIME
000382: 36,2407           00077                           DEC      63         B-14                       #  AFTER NOMINAL IGNITION, NOT ACTUAL
000383: 36,2410           12421                           TCF      IGNYET?
000384: 36,2411           31422                           CA       ZOOMTIME
000385: 36,2412           05203                           TC       WAITLIST
000386: 36,2413  E7,1515                                  EBANK=   DVCNTR
000387: 36,2413           02007 36067                     2CADR    P63ZOOM
000388:
000389: 36,2415           05327                           TC       2PHSCHNG
000390: 36,2416           40033                           OCT      40033
000391:
000392: 36,2417           05014                           OCT      05014
000393: 36,2420           77777                           OCT      77777
000394:
000395: 36,2421           34740        IGNYET?            CAF      ASTNBIT                               #  CHECK ASTNFLAG:  HAS ASTRONAUT RESPONDED
000396: 36,2422           70103                           MASK     FLAGWRD7                              #  TO OUR ENGINE ENABLE REQUEST?
000397: 36,2423           00006                           EXTEND
000398: 36,2424           51455                           INDEX    WHICH
000399: 36,2425           10012                           BZF      12                                    #  BRANCH IF HE HAS NOT RESPONDED YET
000400:
000401: 36,2426           40101        IGNITION           CS       FLAGWRD5                              #  INSURE ENGONFLG IS SET.
000402: 36,2427           74745                           MASK     ENGONBIT
000403: 36,2430           26101                           ADS      FLAGWRD5
000404: 36,2431           44355                           CS       PRIO30                                #  TURN ON THE ENGINE.
000405: 36,2432           00006                           EXTEND
000406: 36,2433           02011                           RAND     DSALMOUT
000407: 36,2434           64737                           AD       BIT13
000408: 36,2435           00006                           EXTEND
000409: 36,2436           01011                           WRITE    DSALMOUT
000410: 36,2437           00006                           EXTEND                                         #  SET TEVENT FOR DOWNLINK
000411: 36,2440           30025                           DCA      TIME2
000412: 36,2441           53345                           DXCH     TEVENT
000413:
000414: 36,2442           00006                           EXTEND                                         #  UPDATE TIG USING TGO FROM S40.13
000415: 36,2443           31517                           DCA      TGO
000416: 36,2444           53442                           DXCH     TIG
000417: 36,2445           00006                           EXTEND
000418: 36,2446           30025                           DCA      TIME2
000419: 36,2447           21442                           DAS      TIG
000420:


000422: 36,2450           44742                           CS       FLUNDBIT                              #  PERMIT GUIDANCE LOOP DISPLAYS
000423: 36,2451           70104                           MASK     FLAGWRD8
000424: 36,2452           54104                           TS       FLAGWRD8
000425:
000426: 36,2453           51455                           INDEX    WHICH
000427: 36,2454           10013                           TCF      13
000428:
000429: 36,2455           00006        P63IGN             EXTEND                                         #  (13)  INITIATE BURN DISPLAYS
000430: 36,2456           33137                           DCA      DSP2CADR
000431: 36,2457           53253                           DXCH     AVGEXIT
000432:
000433: 36,2460           30005                           CA       Z                                     #  ASSASSINATE CLOKTASK
000434: 36,2461           55163                           TS       DISPDEX
000435:
000436: 36,2462           40105                           CS       FLAGWRD9                              #  SET FLAG FOR P70-P71
000437: 36,2463           74743                           MASK     LETABBIT
000438: 36,2464           26105                           ADS      FLAGWRD9
000439:
000440: 36,2465           40103                           CS       FLAGWRD7                              #  SET SWANDISP TO ENABLE R10.
000441: 36,2466           74741                           MASK     SWANDBIT
000442: 36,2467           26103                           ADS      FLAGWRD7
000443:
000444: 36,2470           44735                           CS       PULSES                                #  MAKE SURE DAP IS NOT IN MINIMUM-IMPULSE
000445: 36,2471           70111                           MASK     DAPBOOLS                              #  MODE, IN CASE OF SWITCH TO P66
000446: 36,2472           54111                           TS       DAPBOOLS
000447:
000448: 36,2473           00006                           EXTEND                                         #  INITIALIZE TIG FOR P70 AND P71.
000449: 36,2474           30025                           DCA      TIME2
000450: 36,2475           53442                           DXCH     TIG
000451:
000452: 36,2476           34755                           CAF      ZERO                                  #  INITIALIZE WCHPHASE AND FLPASSO
000453: 36,2477           55351                           TS       WCHPHASE
000454: 36,2500           55621                           TS       WCHPHOLD                              #  ALSO WHCPHOLD
000455: 36,2501           34752                           CA       TWO
000456: 36,2502           55623                           TS       FLPASS0
000457:
000458: 36,2503           12541                           TCF      P42IGN
000459: 36,2504           40101        P40IGN             CS       FLAGWRD5                              #  (13)
000460: 36,2505           74740                           MASK     NOTHRBIT
000461: 36,2506           00006                           EXTEND
000462: 36,2507           12541                           BZF      P42IGN
000463: 36,2510           31422                           CA       ZOOMTIME
000464: 36,2511           05203                           TC       WAITLIST
000465: 36,2512  E7,1515                                  EBANK=   DVCNTR
000466: 36,2512           02015 36067                     2CADR    P40ZOOM
000467:
000468: 36,2514           05327        P63IGN1            TC       2PHSCHNG
000469: 36,2515           40033                           OCT      40033                                 #  3.3SPOT FOR ZOOM RESTART.
000470: 36,2516           05014                           OCT      05014                                 #  TYPE C RESTARTS HERE IMMEDIATELY
000471: 36,2517           77777                           OCT      77777
000472:


000474: 36,2520           12541                           TCF      P42IGN
000475: 36,2521           35015        P12IGN             CAF      EBANK6
000476: 36,2522           54003                           TS       EBANK
000477: 36,2523  E6,1537                                  EBANK=   AOSQ
000478:
000479: 36,2523           31412                           CA       IGNAOSQ                               #  INITIALIZE DAP BIAS ACCELERATION
000480: 36,2524           55537                           TS       AOSQ                                  #  ESTIMATES AT P12 IGNITION.
000481: 36,2525           31413                           CA       IGNAOSR
000482: 36,2526           55541                           TS       AOSR
000483:
000484: 36,2527           35016                           CAF      EBANK7
000485: 36,2530           54003                           TS       EBANK
000486: 36,2531  E7,1515                                  EBANK=   DVCNTR
000487:
000488: 36,2531           30005        ABRTIGN            CA       Z                                     #  (13) KILL CLOKTASK
000489: 36,2532           55163                           TS       DISPDEX
000490:
000491: 36,2533           00006                           EXTEND                                         #  CONNECT ASCENT GYIDANCE TO SERVICER.
000492: 36,2534           33141                           DCA      ATMAGADR
000493: 36,2535           53253                           DXCH     AVGEXIT
000494:
000495: 36,2536           40103                           CS       FLAGWRD7                              #  ENABLE R10.
000496: 36,2537           74741                           MASK     SWANDBIT
000497: 36,2540           26103                           ADS      FLAGWRD7
000498:
000499: 36,2541           44744        P42IGN             CS       DRIFTBIT                              #  ENSURE THAT POWERED-FLIGHT SWITCHING
000500: 36,2542           70111                           MASK     DAPBOOLS                              #  CURVES ARE USED.
000501: 36,2543           54111                           TS       DAPBOOLS
000502: 36,2544           34743                           CAF      IMPULBIT                              #  EXAMINE IMPULSE SWITCH
000503: 36,2545           70076                           MASK     FLAGWRD2
000504: 36,2546           10000                           CCS      A
000505: 36,2547           13522                           TCF      IMPLBURN
000506:
000507: 36,2550           05516        DVMONCON           TC       DOWNFLAG
000508: 36,2551           00153                           ADRES    IGNFLAG                               #  CONNECT DVMON
000509: 36,2552           05516                           TC       DOWNFLAG
000510: 36,2553           00154                           ADRES    ASTNFLAG
000511: 36,2554           05516                           TC       DOWNFLAG
000512: 36,2555           00161                           ADRES    IDLEFLAG
000513:
000514: 36,2556           05353                           TC       PHASCHNG
000515: 36,2557           40054                           OCT      40054
000516:
000517: 36,2560           05221                           TC       FIXDELAY                              #  TURN ULLAGE OFF HALF A SECOND AFTER
000518: 36,2561           00062                           DEC      50         B-14                       #  LIGHT UP.
000519:
000520: 36,2562           02653        ULLAGOFF           TC       NOULLAGE
000521:
000522: 36,2563           00006        WAITABIT           EXTEND                                         #  KILL GROUP 4
000523: 36,2564           34755                           DCA      NEG0


000525: 36,2565           52761                           DXCH     -PHASE4
000526:
000527: 36,2566           15261                           TCF      TASKOVER
000528:
000529: 36,2567           04635        TIGTASK            TC       POSTJUMP                              #  (12)
000530: 36,2570           36000                           CADR     TIGTASK1
000531:
000532:                                                                                                  #        ****************************************
000533:
000534: 31,2144                                           BANK     31
000535: 17,2000                                           SETLOC   P40S3
000536: 17,2000                                           BANK
000537: 17,2000                                           COUNT*   $$/P40
000538:
000539: 17,2000           35026        TIGTASK1           CAF      PRIO16
000540: 17,2001           05072                           TC       NOVAC
000541: 17,2002  E7,1462                                  EBANK=   TRKMKCNT
000542: 17,2002           03241 74067                     2CADR    TIGNOW
000543:
000544: 17,2004           05353                           TC       PHASCHNG
000545: 17,2005           00006                           OCT      6                                     #  KILL GROUP 6.
000546:
000547: 17,2006           15261                           TCF      TASKOVER
000548:
000549:                                                                                                  #        ****************************************
000550:
000551: 17,2007           00006        P63ZOOM            EXTEND
000552: 17,2010           32026                           DCA      LUNLANAD
000553: 17,2011           53253                           DXCH     AVEGEXIT
000554:
000555: 17,2012           04674                           TC       IBNKCALL
000556: 17,2013           62370                           CADR     FLATOUT
000557: 17,2014           12022                           TCF      P40ZOOMA
000558:
000559: 17,2015           34737        P40ZOOM            CAF      BIT13
000560: 17,2016           54055                           TS       THRUST
000561: 17,2017           34750                           CAF      BIT4
000562:
000563: 17,2020           00006                           EXTEND
000564: 17,2021           05014                           WOR      CHAN14
000565:
000566: 17,2022           05353        P40ZOOMA           TC       PHASCHNG
000567: 17,2023           00003                           OCT      3
000568: 17,2024           15261                           TCF      TASKOVER
000569:
000570: 17,2025  E7,1515                                  EBANK=   DVCNTR
000571: 17,2025           02462 62067  LUNLANAD           2CADR    LUNLAND
000572:


000574: 17,2027  17,2022               ZOOM               =        P40ZOOMA
000575: 36,2571                                           BANK     36
000576: 36,2000                                           SETLOC   P40S
000577: 36,2000                                           BANK
000578: 36,2571                                           COUNT*   $$/P40
000579:
000580:                                                                                                  #        ****************************************
000581:
000582: 36,2571           05504        COMFAIL            TC       UPFLAG                                #  (15)
000583: 36,2572           00161                           ADRES    IDLEFLAG
000584: 36,2573           05504                           TC       UPFLAG                                #  SET FLAG TO SUPPRESS CONFLICTING DISPLAY
000585: 36,2574           00175                           ADRES    FLUNDISP
000586: 36,2575           34751                           CAF      FOUR                                  #  RESET DVMON
000587: 36,2576           55515                           TS       DVCNTR
000588: 36,2577           10765                           CCS      PHASE6                                #  CLOCKTASK ACTIVE?
000589: 36,2600           12603                           TCF      +3                                    #  YES
000590: 36,2601           04616                           TC       BANKCALL                              #  OTHERWISE, START IT UP
000591: 36,2602           74663                           CADR     STCLOK1
000592: 36,2603           44765                 +3        CS       VB97DEX
000593: 36,2604           55163                           TS       DISPDEX
000594: 36,2605           05353                           TC       PHASCHNG                              #  TURN OFF GROUP 4.
000595: 36,2606           00004                           OCT      00004
000596: 36,2607           15155                           TCF      ENDOFJOB
000597:
000598: 36,2610           51455        COMFAIL1           INDEX    WHICH
000599: 36,2611           10002                           TCF      2
000600:
000601: 36,2612           30005        COMFAIL3           CA       Z                                     #  (15)  KILL CLOKTASK USING Z
000602: 36,2613           12615                           TCF      +2
000603:
000604: 36,2614           44762        COMFAIL4           CS       CNTDNDEX
000605: 36,2615           55163                           TS       DISPDEX
000606:
000607: 36,2616           05516                           TC       DOWNFLAG                              #  RECONNECT DV MONITOR
000608: 36,2617           00161                           ADRES    IDLEFLAG
000609: 36,2620           05516                           TC       DOWNFLAG                              #  PERMIT GUIDANCE LOOP DISPLAYS
000610: 36,2621           00175                           ADRES    FLUNDISP
000611: 36,2622           15155                           TCF      ENDOFJOB
000612:
000613: 36,2623           05353        COMFAIL2           TC       PHASCHNG                              #  KILL ZOOM RESTART PROTECTION
000614: 36,2624           00003                           OCT      00003
000615:
000616: 36,2625           00004                           INHINT
000617: 36,2626           06027                           TC       KILLTASK                              #  KILL ZOOM, IN CASE IT'S STILL TO COME
000618: 36,2627           36022                           CADR     ZOOM
000619: 36,2630           04674                           TC       IBNKCALL                              #  COMMAND ENGINE OFF
000620: 36,2631           75561                           CADR     ENGINOF4
000621: 36,2632           05504                           TC       UPFLAG                                #  SET THE DRIFT BIT FOR THE DAP.
000622: 36,2633           00312                           ADRES    DRIFTDFL


000624: 36,2634           02645                           TC       INVFLAG                               #  USE OTHER RCS SYSTEM
000625: 36,2635           00310                           ADRES    AORBTFLG
000626: 36,2636           05504                           TC       UPFLAG                                #  TURN ON ULLAGE
000627: 36,2637           00314                           ADRES    ULLAGFLG
000628: 36,2640           34753                           CAF      BIT1
000629: 36,2641           00004                           INHINT
000630: 36,2642           05173                           TC       TWIDDLE
000631: 36,2643           02352                           ADRES    TIG-5
000632: 36,2644           15155                           TCF      ENDOFJOB
000633:
000634:                                                                                                  #        ****************************************
000635:                                                                                                  #        SUBROUTINES OF THE IGNITION ROUTINE
000636:                                                                                                  #        ****************************************
000637:
000638: 36,2645           30002        INVFLAG            CA       Q
000639: 36,2646           05522                           TC       DEBIT
000640: 36,2647           40000                           COM
000641: 36,2650           00006                           EXTEND
000642: 36,2651           06001                           RXOR     LCHAN
000643: 36,2652           15511                           TCF      COMFLAG
000644:
000645:                                                                                                  #        ****************************************
000646:
000647: 36,2653           44746        NOULLAGE           CS       ULLAGER                               #  MUST BE CALLED IN A TASK OR UNDER INHINT
000648: 36,2654           70111                           MASK     DAPBOOLS
000649: 36,2655           54111                           TS       DAPBOOLS
000650: 36,2656           00002                           TC       Q
000651:
000652:                                                                                                  #        ****************************************
000653:
000654: 36,2657           40111        ONULLAGE           CS       DAPBOOLS                              #  TURN ON ULLAGE.  MUST BE CALLED IN
000655: 36,2660           74746                           MASK     ULLAGER                               #  A TASK OR WHILE INHINTED.
000656: 36,2661           26111                           ADS      DAPBOOLS
000657: 36,2662           00002                           TC       Q
000658:
000659:                                                                                                  #        ****************************************
000660:
000661: 36,2663           34755        STCLOK1            CA       ZERO                                  #  THIS ROUTINE STARTS THE COUNT-DOWN
000662: 36,2664           55163        STCLOK2            TS       DISPDEX                               #  (CLOKTASK AND CLOKJOB).  SETTING
000663: 36,2665           04645        STCLOK3            TC       MAKECADR                              #  SETTING DISPDEX POSITIVE KILLS IT.
000664: 36,2666           55061                           TS       TBASE4                                #  RETURN SAVE (NOT FOR RESTARTS)
000665: 36,2667           00006                           EXTEND
000666: 36,2670           31442                           DCA      TIG
000667: 36,2671           52155                           DXCH     MPAC
000668: 36,2672           00006                           EXTEND
000669: 36,2673           40025                           DCS      TIME2


000671: 36,2674           20155                           DAS      MPAC                                  #  HAVE TIG - TIME2, UNDOUBTEDLY A + NUMBER
000672: 36,2675           07257                           TC       TPAGREE                               #  POSITIVE, SINCE WE PASSED THE
000673: 36,2676           34777                           CAF      1SEC                                  #  45 SECOND CHECK
000674: 36,2677           54002                           TS       Q
000675: 36,2700           52155                           DXCH     MPAC
000676: 36,2701           74346                           MASK     LOW5                                  #  RESTRICT MAGNITUDE OF NUMBER IN A
000677: 36,2702           00006                           EXTEND
000678: 36,2703           10002                           DV       Q
000679: 36,2704           30001                           CA       L                                     #  GET REMAINDER
000680: 36,2705           64752                           AD       TWO
000681: 36,2706           00004                           INHINT
000682: 36,2707           05173                           TC       TWIDDLE
000683: 36,2710           02717                           ADRES    CLOKTASK
000684: 36,2711           05327                           TC       2PHSCHNG
000685: 36,2712           40036                           OCT      40036                                 #  6.3SPOT FOR CLOKTASK
000686: 36,2713           05024                           OCT      05024
000687: 36,2714           13000                           OCT      13000
000688:
000689: 36,2715           31061                           CA       TBASE4
000690: 36,2716           04640                           TC       BANKJUMP
000691:
000692: 36,2717           40025        CLOKTASK           CS       TIME1                                 #  SET TBASE6 FOR GROUP 6 RESTART
000693: 36,2720           55065                           TS       TBASE6
000694:
000695: 36,2721           11163                           CCS      DISPDEX
000696: 36,2722           12733                           TCF      KILLCLOK
000697: 36,2723           12724                           NOOP
000698: 36,2724           37715                           CAF      PRIO27
000699: 36,2725           05072                           TC       NOVAC
000700: 36,2726  E7,1453                                  EBANK=   TTOGO
000701: 36,2726           02737 74067                     2CADR    CLOKJOB
000702:
000703: 36,2730           05221                           TC       FIXDELAY                              #  WAIT A SECOND BEFORE STARTING OVER
000704: 36,2731           00144                           DEC      100        B-14
000705: 36,2732           12717                           TCF      CLOKTASK
000706:
000707: 36,2733           00006        KILLCLOK           EXTEND                                         #  KILL RESTART
000708: 36,2734           34755                           DCA      NEG0
000709: 36,2735           52765                           DXCH     -PHASE6
000710: 36,2736           15261                           TCF      TASKOVER
000711:
000712: 36,2737           00006        CLOKJOB            EXTEND
000713: 36,2740           41442                           DCS      TIG
000714: 36,2741           53454                           DXCH     TTOGO
000715: 36,2742           00006                           EXTEND


000717: 36,2743           30025                           DCA      TIME2
000718: 36,2744           21454                           DAS      TTOGO
000719: 36,2745           00004                           INHINT
000720: 36,2746           11163                           CCS      DISPDEX                               #  IF DISPDEX HAS BEEN SET POSITIVE BY A
000721: 36,2747           15155                           TCF      ENDOFJOB                              #  TASK OR A HIGHER PRIORITY JOB SINCE THE
000722: 36,2750           15155                           TCF      ENDOFJOB                              #  LAST CLOKTASK, AVOID USING IT AS AN
000723: 36,2751           40000                           COM                                            #  INDEX.
000724: 36,2752           00003                           RELINT                                         #  ***** DISPDEX MUST NEVER BE -0 *****
000725: 36,2753           50000                           INDEX    A
000726: 36,2754           13011                           TCF      DISPNOT    -1                         #  (-1 DUE TO EFFECT OF CCS)
000727:
000728: 36,2755     4765               VB97DEX            =        OCT35                                 #  NEGATIVE OF THIS IS PROPER FOR DISPDEX
000729:
000730: 36,2755           44755                 -35       CS       ZERO                                  #  INDICATE VERB 97 PASTE
000731: 36,2756           55067                           TS       NVWORD1
000732: 36,2757           30371                           CA       NVWORD     +2                         #  NVWROD+2 CONTAINS V06 & APPROPRIATE NOUN
000733: 36,2760           04616                           TC       BANKCALL
000734: 36,2761           20473                           CADR     CLOCPLAY
000735: 36,2762           13013                           TCF      STOPCLOK                              #  TERMINATE CLOKTASK ON THE WAY TO P00H
000736: 36,2763           12610                           TCF      COMFAIL1
000737: 36,2764           12623                           TCF      COMFAIL2
000738:
000739:                                                                                                  #  THIS DISPLAY IS CALLED VIA ASTNCLOK
000740: 36,2765           33146                 -25       CAF      V06N61                                #  IT IS PRIMARILY USED BY THE CREW IN P63
000741: 36,2766           04616                           TC       BANKCALL                              #  TO RESET HIS EVENT TIMER TO AGREE WITH
000742: 36,2767           20457                           CADR     REFLASH                               #  TIG.
000743: 36,2770           13013                           TCF      STOPCLOK
000744: 36,2771           13030                           TCF      ASTNRETN
000745: 36,2772           12764                           TCF      -6
000746:
000747: 36,2773     4762               CNTDNDEX           =        LOW4                                  #  OCT17:  NEGATIVE PROPER FOR DISPDEX
000748:
000749: 36,2773           51455                 -17       INDEX    WHICH                                 #  THIS DISPLAY COMES UP AT ONE SECOND
000750: 36,2774           30000                           CAF      0                                     #  INTERVALS.  IT IS NORMALLY OPERATED
000751: 36,2775           04616                           TC       BANKCALL                              #  BETWEEN TIG-30 SECONDS AND TIG-5 SECONDS
000752: 36,2776           20465                           CADR     REGODSP                               #  REGODSP DOES ITS OWN TCF ENDOFJOB
000753:
000754: 36,2777     4760               VB99DEX            =        ELEVEN                                #  OCT13:  NEGATIVE PROPER FOR DISPDEX
000755:
000756: 36,2777                        V99RECYC           EQUALS
000757:
000758: 36,2777           44743                 -13       CS       BIT9                                  #  INDICATE VERB 99 PASTE
000759: 36,3000           55067                           TS       NVWORD1
000760: 36,3001           51455                           INDEX    WHICH                                 #  THIS IS THE "PLEASE ENABLE ENGINE"
000761: 36,3002           30000                           CAF      0                                     #  DISPLAY; IT IS INITIATED AT TIG-5 SEC.
000762: 36,3003           04616                           TC       BANKCALL                              #  THE DISPLAY IS A V99NXX, WHERE XX IS THE
000763: 36,3004           20473                           CADR     CLOCPLAY                              #  NOUN THAT HAD PREVIOUSLY BEEN DISPLAYED
000764: 36,3005           13013                           TCF      STOPCLOK                              #  TERMINATE GOTOPOOH TURNS OFF ULLAGE.
000765: 36,3006           13041                           TCF      *PROCEED
000766: 36,3007           13044                           TCF      *ENTER
000767:


000769: 36,3010     4752               BLANKDEX           =        TWO                                   #  NEGATIVE OF THIS IS PROPER FOR DISPDEX
000770:
000771: 36,3010           04616                 -2        TC       BANKCALL                              #  BLANK DSKY.  THE DSKY IS BLANKED FOR
000772: 36,3011           20456                           CADR     CLEANDSP                              #  5 SECONDS AT TIG-35 TO INDICATE THAT
000773: 36,3012           15155        DISPNOT            TCF      ENDOFJOB                              #  AVERAGE G IS STARTING.
000774:
000775: 36,3013           03015        STOPCLOK           TC       NULLCLOK                              #  STOP CLOKTASK & TURN OFF ULLAGE ON THE
000776: 36,3014           16001                           TCF      GOTOPOOH                              #  WAY TO P00 (GOTOPOOH RELINTS)
000777:
000778: 36,3015           00004        NULLCLOK           INHINT
000779: 36,3016           00006                           EXTEND
000780: 36,3017           23142                           QXCH     P40/RET
000781: 36,3020           02653                           TC       NOULLAGE                              #  TURN OFF ULLAGE ...
000782: 36,3021           06027                           TC       KILLTASK                              #        DON'T LET IT COME ON, EITHER ...
000783: 36,3022           74346                           CADR     ULLGTASK
000784: 36,3023           05353                           TC       PHASCHNG                              #                NOT EVEN IF THERE'S A RESTART.
000785: 36,3024           00001                           OCT      1
000786: 36,3025           30005                           CA       Z                                     #  KILL CLOKTASK
000787: 36,3026           55163                           TS       DISPDEX
000788: 36,3027           01142                           TC       P40/RET
000789:
000790: 36,3030           05353        ASTNRETN           TC       PHASCHNG
000791: 36,3031           04024                           OCT      04024
000792: 36,3032           34755                           CAF      ZERO                                  #  STOP DISPLAYING BUT KEEP RUNNING.
000793: 36,3033           55163                           TS       DISPDEX
000794: 36,3034           35023                           CAF      PRIO13
000795: 36,3035           05105                           TC       FINDVAC
000796: 36,3036  E5,1757                                  EBANK=   STARIND
000797: 36,3036           03210 64065                     2CADR    ASTNRET
000798:
000799: 36,3040           15155                           TCF      ENDOFJOB
000800:
000801: 36,3041           05504        *PROCEED           TC       UPFLAG
000802: 36,3042           00154                           ADRES    ASTNFLAG
000803:
000804: 36,3043           13102                           TCF      IGNITE
000805:
000806: 36,3044           00004        *ENTER             INHINT
000807: 36,3045           51455                           INDEX    WHICH
000808: 36,3046           10003                           TCF      3
000809:
000810: 36,3047           34644        GOPOST             CAF      PRIO12                                #  (3) MUST BE LOWER PRIORITY THAN CLOKJOB
000811: 36,3050           05105                           TC       FINDVAC
000812: 36,3051  E7,1453                                  EBANK=   TTOGO
000813: 36,3051           03223 74067                     2CADR    POSTBURN
000814:


000816: 36,3053           00004                           INHINT                                         #  SET UP THE DAP FOR COASTING FLIGHT.
000817: 36,3054           04674                           TC       IBNKCALL
000818: 36,3055           40204                           CADR     ALLCOAST
000819: 36,3056           03015                           TC       NULLCLOK
000820: 36,3057           05353                           TC       PHASCHNG                              #  4.13 RESTART FOR POSTBURN
000821: 36,3060           00134                           OCT      00134
000822:
000823: 36,3061           15155                           TCF      ENDOFJOB
000824:
000825: 36,3062           35027        GOCUTOFF           CAF      PRIO17                                #  (3)
000826: 36,3063           05105                           TC       FINDVAC
000827: 36,3064  E7,1516                                  EBANK=   TGO
000828: 36,3064           02424 30067                     2CADR    CUTOFF
000829:
000830: 36,3066           05516                           TC       DOWNFLAG
000831: 36,3067           00175                           ADRES    FLUNDISP
000832:
000833: 36,3070           00004                           INHINT                                         #  SET UP THE DAP FOR COASTING FLIGHT.
000834: 36,3071           04674                           TC       IBNKCALL
000835: 36,3072           40204                           CADR     ALLCOAST
000836: 36,3073           03015                           TC       NULLCLOK
000837: 36,3074           05353                           TC       PHASCHNG
000838: 36,3075           07024                           OCT      07024
000839: 36,3076           17000                           OCT      17000
000840: 36,3077  E7,1516                                  EBANK=   TGO
000841: 36,3077           02424 30067                     2CADR    CUTOFF
000842:
000843: 36,3101           15155                           TCF      ENDOFJOB
000844:
000845: 36,3102           40103        IGNITE             CS       FLAGWRD7                              #  (2)
000846: 36,3103           74737                           MASK     IGNFLBIT
000847: 36,3104           10000                           CCS      A
000848: 36,3105           13116                           TCF      IGNITE1
000849: 36,3106           34753                           CAF      BIT1
000850: 36,3107           00004                           INHINT
000851: 36,3110           05173                           TC       TWIDDLE
000852: 36,3111           02426                           ADRES    IGNITION
000853:
000854: 36,3112           34360                           CAF      OCT23                                 #  IMMEDIATE RESTART AT IGNITION.
000855: 36,3113           54001                           TS       L
000856: 36,3114           40000                           COM
000857: 36,3115           52761                           DXCH     -PHASE4
000858:
000859: 36,3116           44762        IGNITE1            CS       CNTDNDEX                              #  RESTORE OLD DISPLAY.
000860: 36,3117           55163                           TS       DISPDEX
000861:
000862: 36,3120           15155                           TCF      ENDOFJOB
000863:


000865:                                                                                                  #        ****************************************
000866:
000867: 36,3121           05567        P40ALM             TC       ALARM                                 #  PROGRAM SELECTION NOT CONSISTENT WITH
000868: 36,3122           01706                           OCT      1706                                  #  VEHICLE CONFIGURATION
000869:
000870: 36,3123           35006        REP40ALM           CAF      V05N09                                #  (14)
000871: 36,3124           04616                           TC       BANKCALL
000872: 36,3125           20476                           CADR     GOFLASH
000873:
000874: 36,3126           16001                           TCF      GOTOPOOH                              #  V34E          TERMINATE
000875: 36,3127           13131                           TCF      +2                                    #  PROCEED       CHECK FOR P42
000876: 36,3130           13123                           TCF      REP40ALM                              #  V32E          REDISPLAY ALARM
000877:
000878: 36,3131           51455                           INDEX    WHICH                                 #  FOR P42, ALLOW CREW TO PROCEED EVEN
000879: 36,3132           10014                           TCF      14                                    #  THOUGH VEHICLE IS UNSTAGED
000880:
000881:                                                                                                  #        ****************************************
000882:
000883: 31,2144                                           BANK     31
000884: 35,2000                                           SETLOC   P40S2
000885: 35,2000                                           BANK
000886:
000887: 35,3747                                           COUNT*   $$/P40
000888:
000889: 35,3747           04645        P40AUTO            TC       MAKECADR                              #  HELLO THERE.
000890: 35,3750           55164                           TS       TEMPR60                               #  FOR GENERALIZED RETURN TO OTHER BANKS.
000891: 35,3751           04616        P40A/P             TC       BANKCALL                              #  SUBROUTINE TO CHECK PGNCS CONTROL
000892: 35,3752           54255                           CADR     G+N,AUTO                              #  AND AUTO STABILIZATION MODES
000893: 35,3753           10000                           CCS      A                                     #  +0 INDICATES IN PGNCS, IN AUTO
000894: 35,3754           13766                           TCF      TURNITON                              #  + INDICATES NOT IN PGNCS AND/OR AUTO
000895: 35,3755           34737                           CAF      APSFLBIT                              #  ARE WE ON THE DESCENT STAGE?
000896: 35,3756           70106                           MASK     FLGWRD10
000897: 35,3757           10000                           CCS      A
000898: 35,3760           13773                           TCF      GOBACK                                #  RETURN
000899: 35,3761           34747                           CAF      BIT5                                  #  YES, CHECK FOR AUTOTHROTTLE MODE
000900: 35,3762           00006                           EXTEND
000901: 35,3763           02030                           RAND     CHAN30
000902: 35,3764           00006                           EXTEND
000903: 35,3765           13773                           BZF      GOBACK                                #  IN AUTOTHROTTLE MODE -- RETURN
000904: 35,3766           33775        TURNITON           CAF      P40A/PMD                              #  DISPLAY V50N25 R1=203 PLEASE PERFORM
000905: 35,3767           04616                           TC       BANKCALL                              #  CHECKLIST 203 TURN ON PGNCS ETC.
000906: 35,3770           20623                           CADR     GOPERF1
000907: 35,3771           16001                           TCF      GOTOPOOH                              #  V34E TERMINATE
000908: 35,3772           13751                           TCF      P40A/P                                #  RECYCLE
000909: 35,3773           31164        GOBACK             CA       TEMPR60
000910: 35,3774           04640                           TC       BANKJUMP                              #  GOODBYE.  COME AGAIN SOON.
000911:
000912: 35,3775           00203        P40A/PMD           OCT      00203
000913:


000915: 36,3133                                           BANK     36
000916: 36,2000                                           SETLOC   P40S
000917: 36,2000                                           BANK
000918:
000919: 36,3133                                           COUNT*   $$/P40
000920:
000921:                                                                                                  #        ****************************************
000922:                                                                                                  #        CONSTANTS FOR THE IGNITION ROUTINE
000923:                                                                                                  #        ****************************************
000924:
000925: 36,3133  36,2105               SERVCADR           =        P63TABLE   +7
000926:
000927: 36,3133           02036        P40ADRES           ADRES    P40TABLE
000928:
000929: 36,3134           02046        P41ADRES           ADRES    P41TABLE   -5
000930:
000931: 36,3135           02061        P42ADRES           ADRES    P42TABLE
000932:
000933: 36,3136  E7,1515                                  EBANK=   DVCNTR
000934: 36,3136           03471 62067  DSP2CADR           2CADR    P63DISPS   -2
000935:
000936: 36,3140  E7,1515                                  EBANK=   DVCNTR
000937: 36,3140           03642 70067  ATMAGADR           2CADR    ATMAG
000938:
000939: 36,3142     6001               ?                  =        GOTOPOOH
000940:
000941: 36,3142           00000 05656  D29.9SEC           2DEC     2990       B-28
000942:
000943: 36,3144           04672        S24.9SEC           DEC      2490       B-14
000944:
000945: 36,3145           00752        4.9SEC             DEC      490        B-14
000946:
000947: 36,3146     4747               OCT20              =        BIT5
000948:
000949: 36,3146           01475        V06N61             VN       0661
000950:


000952:                                                                                                  #  KILLTASK
000953:                                                                                                  #  MOD NO:  NEW PROGRAM
000954:                                                                                                  #  MOD BY:  COVELLI
000955:
000956:                                                                                                  #  FUNCTIONAL DESCRIPTION:
000957:
000958:                                                                                                  #        KILLTASK IS USED TO REMOVE A TASK FROM THE WAITLIST BY SUBSTITUTING A NULL TASK CALLED 'NULLTASK' (OF COURSE),
000959:                                                                                                  #        WHICH MERELY DOES A TC TASKOVER.  IF THE SAME TASK IS SCHEDULED MORE THAN ONCE, ONLY THE ONE WHICH WILL OCCUR
000960:                                                                                                  #        FIRST IS REMOVED.  IF THE TASK IS NOT SCHEDULED, KILLTASK TAKES NO ACTION AND RETURNS WITH NO ALARM.  KILLTASK
000961:                                                                                                  #        LEAVES INTERRUPTS INHIBITED SO CALLER MUST RELINT
000962:
000963:                                                                                                  #  CALLING SEQUENCE:
000964:                                                                                                  #        L       TC      KILLTASK        IN FIXED-FIXED
000965:                                                                                                  #        L+1     CADR    ????????        CADR (NOT 2CADR) OF TASK TO BE REMOVED.
000966:                                                                                                  #        L+2     (RELINT)                RETURN
000967:
000968:                                                                                                  #  EXIT MODE:  AT L+2 OF CALLING SEQUENCE.
000969:
000970:                                                                                                  #  ERASABLE INITIALIZATION= NONE.
000971:
000972:                                                                                                  #  OUTPUT:  2CADR OF NULLTASK IN LST2
000973:
000974:                                                                                                  #  DEBRIS:  ITEMP1 - ITEMP4, A, L, Q.
000975:
000976: 36,3147  E3,1410                                  EBANK=   LST2
000977:    6027                                           BLOCK    3                                     #  KILLTASK MUST BE IN FIXED-FIXED.
000978:    6000                                           SETLOC   FFTAG6
000979:    6000                                           BANK
000980:    6027                                           COUNT*   $$/KILL
000981:    6027           36036        KILLTASK           CA       KILLBB
000982:    6030           00004                           INHINT
000983:    6031           22000                           LXCH     A
000984:    6032           50002                           INDEX    Q
000985:    6033           30000                           CA       0                                     #  GET CADR.
000986:    6034           22006                           LXCH     BBANK
000987:    6035           12200                           TCF      KILLTSK2                              #  CONTINUE IN SWITCHED FIXED
000988:
000989:    6036  E3,1410                                  EBANK=   LST2
000990:    6036           56063        KILLBB             BBCON    KILLTSK2
000991:
000992: 27,2200                                           BANK     27
000993:
000994: 27,2000                                           SETLOC   P40S1
000995: 27,2000                                           BANK
000996: 27,2200                                           COUNT*   $$/KILL
000997:
000998: 27,2200           22062        KILLTSK2           LXCH     ITEMP2                                #  SAVE CALLER'S BBANK


001000: 27,2201           24002                           INCR     Q
001001: 27,2202           00006                           EXTEND
001002: 27,2203           22061                           QXCH     ITEMP1                                #  RETURN 2CADR IN ITEMP1,ITEMP2
001003:
001004: 27,2204           54063                           TS       ITEMP3                                #  CADR IS IN A
001005: 27,2205           75012                           MASK     LOW10
001006: 27,2206           64741                           AD       BIT11
001007: 27,2207           54064                           TS       ITEMP4                                #  GENADR OF TASK
001008:
001009: 27,2210           45012                           CS       LOW10
001010: 27,2211           70063                           MASK     ITEMP3
001011: 27,2212           54063                           TS       ITEMP3                                #  FBANK OF TASK
001012:
001013: 27,2213           22007                           ZL
001014: 27,2214           50001        ADRSCAN            INDEX    L
001015: 27,2215           41410                           CS       LST2
001016: 27,2216           60064                           AD       ITEMP4                                #  COMPARE GENADRS
001017: 27,2217           00006                           EXTEND
001018: 27,2220           12232                           BZF      TSTFBANK                              #  IF THEY MATCH, COMPARE FBANKS
001019: 27,2221           44747        LETITLIV           CS       LSTLIM
001020: 27,2222           60001                           AD       L
001021: 27,2223           00006                           EXTEND                                         #  ARE WE DONE?
001022: 27,2224           12230                           BZF      DEAD                                  #  YES - DONE, SO RETURN
001023: 27,2225           24001                           INCR     L
001024: 27,2226           24001                           INCR     L
001025: 27,2227           12214                           TCF      ADRSCAN                               #  CONTINUE LOOP.
001026:
001027: 27,2230           52062        DEAD               DXCH     ITEMP1
001028: 27,2231           52006                           DTCB
001029:
001030: 27,2232           45012        TSTFBANK           CS       LOW10
001031: 27,2233           50001                           INDEX    L
001032: 27,2234           71411                           MASK     LST2       +1                         #  COMPARE FBANKS ONLY.
001033: 27,2235           00006                           EXTEND
001034: 27,2236           60063                           SU       ITEMP3
001035: 27,2237           00006                           EXTEND
001036: 27,2240           12242                           BZF      KILLDEAD                              #  MATCH - KILL IT.
001037: 27,2241           12221                           TCF      LETITLIV                              #  NO MATCH - CONTINUE.
001038:
001039: 27,2242           34353        KILLDEAD           CA       TCTSKOVR
001040: 27,2243           50001                           INDEX    L
001041: 27,2244           55410                           TS       LST2                                  #  REMOVE TASK BY INSERTING TASKOVER
001042: 27,2245           12230                           TCF      DEAD
001043:
001044: 27,2246     4747               LSTLIM             EQUALS   BIT5                                  #  DEC 16

End of include-file BURN,_BABY,_BURN_--_MASTER_IGNITION_ROUTINE.agc.  Parent file is MAIN.agc


