
Source Code


000002:                                                                                                  ## Copyright:   Public domain.
000003:                                                                                                  ## Filename:    FLAGWORD_ASSIGNMENTS.agc
000004:                                                                                                  ## Purpose:     A section of Luminary revision 96.
000005:                                                                                                  ##              It is part of the reconstructed source code for the
000006:                                                                                                  ##              original release of the flight software for the Lunar
000007:                                                                                                  ##              Module's (LM) Apollo Guidance Computer (AGC) for Apollo 11.
000008:                                                                                                  ##              The code has been recreated from a previously reconstructed
000009:                                                                                                  ##              copy of Luminary 97 by undoing changes described in anomaly
000010:                                                                                                  ##              report LNY-59. The code has been adapted such that the
000011:                                                                                                  ##              resulting bugger words exactly match those specified for
000012:                                                                                                  ##              Luminary 96 in NASA drawing 2021152D, which gives relatively
000013:                                                                                                  ##              high confidence that the reconstruction is correct.
000014:                                                                                                  ## Reference:   pp. 61-88
000015:                                                                                                  ## Assembler:   yaYUL
000016:                                                                                                  ## Contact:     Ron Burkey <info@sandroid.org>.
000017:                                                                                                  ## Website:     www.ibiblio.org/apollo/index.html
000018:                                                                                                  ## Mod history: 2019-08-04 MAS  Created from Luminary 97.
000019:


000021:                                                                                                  #  FLAGWORDS 0-11        ARE DOWNLINKED AND CAN BE SET AND CLEARED BY UP-FLAG AND DOWN-FLAG INSTRUCTIONS IN THE
000022:                                                                                                  #                        INTERPRETER.  THESE WERE PREVIOUSLY LISTED UNDER "INTERPRETIVE SWITCH BIT ASSIGNMENTS" IN
000023:                                                                                                  #                        THE ERASABLE LOG SECTION.  FLAGWORDS 12 & 13 WERE PREVIOUSLY RADMODES AND DAPBOOLS AND
000024:                                                                                                  #                        ARE STILL DOWNLINKED UNDER THOSE NAMES.
000025:
000026:                                                                                                  #                ALPHABETICAL LIST OF FLAGWORDS
000027:
000028:
000029:                                                                                                  #  FLAGWORD      DEC. NUMBER     BIT AND FLAG            BIT NAME
000030:
000031:                                                                                                  #  ACCOKFLG      207             BIT  3 FLAG 13          ACCSOKAY
000032:                                                                                                  #  ACC4-2FL      199             BIT 11 FLAG 13          ACC4OR2X
000033:                                                                                                  #  ACMODFLG      032             BIT 13 FLAG  2          ACMODBIT
000034:                                                                                                  #  ALTSCALE      186             BIT  9 FLAG 12          ALTSCBIT
000035:                                                                                                  #  ANTENFLG      183             BIT 12 FLAG 12          ANTENBIT
000036:                                                                                                  #  AORBSFLG      205             BIT  5 FLAG 13          AORBSYST
000037:                                                                                                  #  AORBTFLG      200             BIT 10 FLAG 13          AORBTRAN
000038:                                                                                                  #  APSESW        130             BIT  5 FLAG  8          APSESBIT
000039:                                                                                                  #  APSFLAG       152             BIT 13 FLAG 10          APSFLBIT
000040:                                                                                                  #  ASTNFLAG      108             BIT 12 FLAG  7          ASTNBIT
000041:                                                                                                  #  ATTFLAG       104             BIT  1 FLAG  6          ATTFLBIT
000042:                                                                                                  #  AUTOMODE      193             BIT  2 FLAG 12          AUTOMBIT
000043:                                                                                                  #  AUTR1FLG      209             BIT  1 FLAG 13          AUTRATE1
000044:                                                                                                  #  AUTR2FLG      208             BIT  2 FLAG 13          AUTRATE2
000045:                                                                                                  #  AUXFLAG       103             BIT  2 FLAG  6          AUXFLBIT
000046:                                                                                                  #  AVEGFLAG      115             BIT  5 FLAG  7          AVEGFBIT
000047:                                                                                                  #  AVEMIDSW      149             BIT  1 FLAG  9          AVEMDBIT
000048:                                                                                                  #  AVFLAG        040             BIT  5 FLAG  2          AVFLBIT
000049:                                                                                                  #  CALCMAN2      043             BIT  2 FLAG  2          CALC2BIT
000050:                                                                                                  #  CALCMAN3      042             BIT  3 FLAG  2          CALC3BIT
000051:                                                                                                  #  CDESFLAG      180             BIT 15 FLAG 12          CDESBIT
000052:                                                                                                  #  CMOONFLG      123             BIT 12 FLAG  8          CMOONBIT
000053:                                                                                                  #  COGAFLAG      131             BIT  4 FLAG  8          COGAFBIT
000054:                                                                                                  #  CSMDKFLG      197             BIT 13 FLAG 13          CSMDOCKD
000055:                                                                                                  #  CULTFLAG      053             BIT  7 FLAG  3          CULTBIT
000056:                                                                                                  #  DAPBOOLS                      FLGWRD13
000057:                                                                                                  #  DBSELFLG      206             BIT  4 FLAG 13          DBSELECT
000058:                                                                                                  #  DESIGFLG      185             BIT 10 FLAG 12          DESIGBIT
000059:                                                                                                  #  DIDFLAG       016             BIT 14 FLAG             DIDFLBIT
000060:                                                                                                  #  DIMOFLAG      059             BIT  1 FLAG  3          DIMOBIT
000061:                                                                                                  #  DMENFLG       081             BIT  9 FLAG  5          DMENFBIT
000062:                                                                                                  #  DRIFTDFL      202             BIT  8 FLAG 13          DRIFTBIT
000063:                                                                                                  #  DRIFTFLG      030             BIT 15 FLAG  2          DRFTBIT
000064:                                                                                                  #  DSKYFLAG      075             BIT 15 FLAG  5          DSKYFBIT


000066:                                                                                                  #  D6OR9FLG      058             BIT  2 FLAG  3          D6OR9BIT
000067:                                                                                                  #  ENGONFLG      083             BIT  7 FLAG  5          ENGONBIT
000068:                                                                                                  #  ERADFLAG      017             BIT 13 FLAG  1          ERADFBIT
000069:                                                                                                  #  ETPIFLAG      038             BIT  7 FLAG  2          ETPIBIT         EQUIVALENT FLAG NAME: OPTNSW
000070:                                                                                                  #  FINALFLG      039             BIT  6 FLAG  2          FINALBIT
000071:                                                                                                  #  FLAGWRD0      (000-014)       (STATE +0)
000072:                                                                                                  #  FLAGWRD1      (015-029)       (STATE +1)
000073:                                                                                                  #  FLAGWRD2      (030-044)       (STATE +2)
000074:                                                                                                  #  FLAGWRD3      (045-059)       (STATE +3)
000075:                                                                                                  #  FLAGWRD4      (060-074)       (STATE +4)
000076:                                                                                                  #  FLAGWRD5      (075-089)       (STATE +5)
000077:                                                                                                  #  FLAGWRD6      (090-104)       (STATE +6)
000078:                                                                                                  #  FLAGWRD7      (105-119)       (STATE +7)
000079:                                                                                                  #  FLAGWRD8      (120-134)       (STATE +8D)
000080:                                                                                                  #  FLAGWRD9      (135-149)       (STATE +9D)
000081:                                                                                                  #  FLAP          142             BIT  8 FLAG  9          FLAPBIT
000082:                                                                                                  #  FLGWRD10      (150-164)       (STATE +10D)
000083:                                                                                                  #  FLGWRD11      (165-179)       (STATE +11D)
000084:                                                                                                  #  FLGWRD12      (180-194)       (STATE +12D)
000085:                                                                                                  #  FLGWRD13      (195-209)       (STATE +13D)
000086:                                                                                                  #  FLPC          138             BIT 12 FLAG  9          FLPCBIT
000087:                                                                                                  #  FLPI          139             BIT 11 FLAG  9          FLPIBIT
000088:                                                                                                  #  FLRCS         149             BIT 10 FLAG  9          FLRCSBIT
000089:                                                                                                  #  FLUNDISP      125             BIT 10 FLAG  8          FLUNDBIT
000090:                                                                                                  #  FLVR          136             BIT 14 FLAG  9          FLVRBIT
000091:                                                                                                  #  FREEFLAG      012             BIT  3 FLAG  0          FREEFBIT
000092:                                                                                                  #  FSPASFLG      005             BIT 10 FLAG  0          FSPASBIT
000093:                                                                                                  #  GLOKFAIL      046             BIT 14 FLAG  3          GLOKFBIT
000094:                                                                                                  #  GMBDRVSW      095             BIT 10 FLAG  6          GMBDRBIT
000095:                                                                                                  #  GUESSW        028             BIT  2 FLAG  1          GUESSBIT
000096:                                                                                                  #  HFLSHFLG      179             BIT  1 FLAG 11          HFLSHBIT
000097:                                                                                                  #  IDLEFLAG      113             BIT  7 FLAG  7          IDLEFBIT
000098:                                                                                                  #  IGNFLAG       107             BIT 13 FLAG  7          IGNFLBIT
000099:                                                                                                  #  IMPULSW       036             BIT  9 FLAG  2          IMPULBIT
000100:                                                                                                  #  IMUSE         007             BIT  8 FLAG  0          IMUSEBIT
000101:                                                                                                  #  INFINFLG      128             BIT  7 FLAG  8          INFINBIT
000102:                                                                                                  #  INITALGN      133             BIT  2 FLAG  8          INITABIT
000103:                                                                                                  #  INTFLAG       151             BIT 14 FLAG 10          INTFLBIT
000104:                                                                                                  #  INTYPFLG      056             BIT  4 FLAG  3          INTYPBIT
000105:                                                                                                  #  ITSWICH       105             BIT 15 FLAG  7          ITSWBIT
000106:                                                                                                  #  JSWITCH       001             BIT 14 FLAG  0          JSWCHBIT
000107:                                                                                                  #  LETABORT      141             BIT  9 FLAG  9          LETABBIT
000108:                                                                                                  #  LMOONFLG      124             BIT 11 FLAG  8          LMOONBIT
000109:                                                                                                  #  LOKONSW       010             BIT  5 FLAG  0          LOKONBIT
000110:                                                                                                  #  LOSCMFLG      033             BIT 12 FLAG  2          LOSCMBIT
000111:                                                                                                  #  LRALTFLG      190             BIT  5 FLAG 12          LRALTBIT
000112:                                                                                                  #  LRBYPASS      165             BIT 15 FLAG 11          LRBYBIT
000113:                                                                                                  #  LRINH         172             BIT  8 FLAG 11          LRINHBIT
000114:                                                                                                  #  LRPOSFLG      189             BIT  6 FLAG 12          LRPOSBIT
000115:                                                                                                  #  LRVELFLG      187             BIT  8 FLAG 12          LRVELBIT


000117:                                                                                                  #  LUNAFLAG      048             BIT 12 FLAG  3          LUNABIT
000118:                                                                                                  #  MANUFLAG      106             BIT 14 FLAG  7          MANUFBIT
000119:                                                                                                  #  MGLVFLAG      088             BIT  2 FLAG  5          MGLVFBIT
000120:                                                                                                  #  MIDAVFLG      148             BIT  2 FLAG  9          MIDAVBIT
000121:                                                                                                  #  MIDFLAG       002             BIT 13 FLAG  0          MIDFLBIT
000122:                                                                                                  #  MID1FLAG      147             BIT  3 FLAG  9          MID1BIT
000123:                                                                                                  #  MKOVFLAG      072             BIT  3 FLAG  4          MKOVBIT
000124:                                                                                                  #  MOONFLAG      003             BIT 12 FLAG  0          MOONBIT
000125:                                                                                                  #  MRKIDFLG      060             BIT 15 FLAG  4          MRKIDBIT
000126:                                                                                                  #  MRKNVFLG      066             BIT  9 FLAG  4          MRKNVBIT
000127:                                                                                                  #  MRUPTFLG      070             BIT  5 FLAG  4          MRUPTBIT
000128:                                                                                                  #  MUNFLAG       097             BIT  8 FLAG  6          MUNFLBIT
000129:                                                                                                  #  MWAITFLG      064             BIT 11 FLAG  4          MWAITBIT
000130:                                                                                                  #  NEEDLFLG      011             BIT  4 FLAG  0          NEEDLBIT
000131:                                                                                                  #  NEWIFLG       122             BIT 13 FLAG  8          NEWIBIT
000132:                                                                                                  #  NJETSFLG      015             BIT 15 FLAG             NJETSBIT
000133:                                                                                                  #  NODOFLAG      044             BIT  1 FLAG  2          NODOBIT
000134:                                                                                                  #  NOLRREAD      170             BIT 10 FLAG 11          NOLRRBIT
000135:                                                                                                  #  NORMSW        110             BIT 10 FLAG  7          NORMSBIT
000136:                                                                                                  #  NORRMON       086             BIT  4 FLAG  5          NORRMBIT
000137:                                                                                                  #  NOR29FLG      049             BIT 11 FLAG  3          NR29FBIT
000138:                                                                                                  #  NOTHROTL      078             BIT 12 FLAG  5          NOTHRBIT
000139:                                                                                                  #  NOUPFLAG      024             BIT  6 FLAG  1          NOUPFBIT
000140:                                                                                                  #  NRMNVFLG      067             BIT  8 FLAG  4          NRMNVBIT
000141:                                                                                                  #  NRMIDFLG      062             BIT 13 FLAG  4          NRMIDBIT
000142:                                                                                                  #  NRUPTFLG      071             BIT  4 FLAG  4          NRUPTBIT
000143:                                                                                                  #  NTARGFLG      102             BIT  3 FLAG  6          NTARGBIT
000144:                                                                                                  #  NWAITFLG      065             BIT 10 FLAG  4          NWAITBIT
000145:                                                                                                  #  OLDESFLG      014             BIT  1 FLAG  0          OLDESBIT
000146:                                                                                                  #  OPTNSW        038             BIT  7 FLAG  2          OPTNBIT         EQUIVALENT FLAG NAME: ETPIFLAG
000147:                                                                                                  #  ORBWFLAG      054             BIT  6 FLAG  3          ORBWFBIT
000148:                                                                                                  #  ORDERSW       129             BIT  6 FLAG  8          ORDERBIT
000149:                                                                                                  #  OURRCFLG      198             BIT 12 FLAG 13          OURRCBIT
000150:                                                                                                  #  PDSPFLAG      063             BIT 12 FLAG  4          PDSPFBIT
000151:                                                                                                  #  PFRATFLG      041             BIT  4 FLAG  2          PFRATBIT
000152:                                                                                                  #  PINBRFLG      069             BIT  6 FLAG  4          PINBRBIT
000153:                                                                                                  #  PRECIFLG      052             BIT  8 FLAG  3          PRECIBIT
000154:                                                                                                  #  PRIODFLG      061             BIT 14 FLAG  1          PRIODBIT
000155:                                                                                                  #  PRONVFLG      068             BIT  7 FLAG  4          PRONVBIT
000156:                                                                                                  #  PSTHIGAT      169             BIT 11 FLAG 11          PSTHIBIT
000157:                                                                                                  #  PULSEFLG      195             BIT 15 FLAG 13          PULSES
000158:                                                                                                  #  P21FLAG       004             BIT 11 FLAG  0          P21FLBIT
000159:                                                                                                  #  P25FLAG       006             BIT  9 FLAG  0          P25FLBIT
000160:                                                                                                  #  P39/79SW      126             BIT  9 FLAG  8          P39SWBIT
000161:                                                                                                  #  QUITFLAG      145             BIT 5 FLAG 9            QUITBIT
000162:                                                                                                  #  RADMODES                      FLGWRD12
000163:                                                                                                  #  RASFLAG                       FLGWRD10
000164:                                                                                                  #  RCDUFAIL      188             BIT  7 FLAG 12          RCDUFBIT
000165:                                                                                                  #  RCDU0FLG      182             BIT 13 FLAG 12          RCDU0BIT
000166:                                                                                                  #  READLR        174             BIT  6 FLAG 11          READLBIT


000168:                                                                                                  #  READRFLG      051             BIT  9 FLAG  3          READRBIT        EQUIVALENT FLAG NAME:  R04FLAG
000169:                                                                                                  #  READVEL       175             BIT  5 FLAG 11          READVBIT
000170:                                                                                                  #  REDFLAG       099             BIT  6 FLAG  6          REDFLBIT
000171:                                                                                                  #  REFSMFLG      047             BIT 13 FLAG  3          REFSMBIT
000172:                                                                                                  #  REINTFLG      158             BIT  7 FLAG 10          REINTBIT
000173:                                                                                                  #  REMODFLG      181             BIT 14 FLAG 12          REMODBIT
000174:                                                                                                  #  RENDWFLG      089             BIT  1 FLAG  5          RENDWBIT
000175:                                                                                                  #  REPOSMON      184             BIT 11 FLAG 12          REPOSBIT
000176:                                                                                                  #  RHCSCFLG      203             BIT  7 FLAG 13          RHCSCALE
000177:                                                                                                  #  RNDVZFLG      008             BIT  7 FLAG  0          RNDVZBIT
000178:                                                                                                  #  RNGEDATA      176             BIT  4 FLAG 11          RNGEDBIT
000179:                                                                                                  #  RNGSCFLG      080             BIT 10 FLAG  5          RNGSCBIT
000180:                                                                                                  #  RODFLAG       018             BIT 12 FLAG  1          RODFLBIT
000181:                                                                                                  #  ROTFLAG       144             BIT  6 FLAG  9          ROTFLBIT
000182:                                                                                                  #  RPQFLAG       120             BIT 15 FLAG  8          RPQFLBIT
000183:                                                                                                  #  RRDATAFL      191             BIT  4 FLAG 12          RRDATABT
000184:                                                                                                  #  RRNBSW        009             BIT  6 FLAG  0          RRNBBIT
000185:                                                                                                  #  RRRSFLAG      192             BIT  3 FLAG 12          RRRSBIT
000186:                                                                                                  #  RVSW          111             BIT  9 FLAG  7          RVSWBIT
000187:                                                                                                  #  R04FLAG       051             BIT  9 FLAG  3          R04FLBIT        EQUIVALENT FLAG NAME:  READRFLG
000188:                                                                                                  #  R10FLAG       013             BIT  2 FLAG  0          R10FLBIT
000189:                                                                                                  #  R61FLAG       020             BIT 10 FLAG  1          R61FLBIT
000190:                                                                                                  #  R77FLAG       079             BIT 11 FLAG  5          R77FLBIT
000191:                                                                                                  #  SCALBAD       177             BIT  3 FLAG 11          SCABBIT
000192:                                                                                                  #  SLOPESW       027             BIT  3 FLAG  1          SLOPEBIT
000193:                                                                                                  #  SNUFFER       077             BIT 13 FLAG  5          SNUFFBIT
000194:                                                                                                  #  SOLNSW        087             BIT  3 FLAG  5          SOLNSBIT
000195:                                                                                                  #  SRCHOPTN      031             BIT 14 FLAG  2          SRCHOBIT
000196:                                                                                                  #  STATEFLG      055             BIT  5 FLAG  3          STATEBIT
000197:                                                                                                  #  STEERSW       034             BIT 11 FLAG  2          STEERBIT
000198:                                                                                                  #  SURFFLAG      127             BIT  8 FLAG  8          SURFFBIT
000199:                                                                                                  #  SWANDISP      109             BIT 11 FLAG  7          SWANDBIT
000200:                                                                                                  #  S32.1F1       090             BIT 15 FLAG  6          S32BIT1
000201:                                                                                                  #  S32.1F2       092             BIT 14 FLAG  6          S32BIT2
000202:                                                                                                  #  S32.1F3A      092             BIT 13 FLAG  6          S32BIT3A
000203:                                                                                                  #  S32.1S3B      093             BIT 12 FLAG  6          S32BIT3B
000204:                                                                                                  #  TFFSW         119             BIT  1 FLAG  7          TFFSWBIT
000205:                                                                                                  #  TRACKFLG      025             BIT  5 FLAG  1          TRACKBIT
000206:                                                                                                  #  TURNONFL      194             BIT  1 FLAG 12          TURNONBT
000207:                                                                                                  #  ULLAGFLG      204             BIT  6 FLAG 13          ULLAGER
000208:                                                                                                  #  UPDATFLG      023             BIT  7 FLAG  1          UPDATBIT
000209:                                                                                                  #  UPLOCKFL      116             BIT  4 FLAG 7           UPLOCBIT
000210:                                                                                                  #  USEQRFLG      196             BIT 14 FLAG 13          USEQRJTS
000211:                                                                                                  #  VEHUPFLG      022             BIT  8 FLAG  1          VEHUPBIT
000212:                                                                                                  #  VELDATA       173             BIT  7 FLAG 11          VELDABIT
000213:                                                                                                  #  VERIFLAG      117             BIT  3 FLAG  7          VERIFBIT
000214:                                                                                                  #  VFLAG         050             BIT 10 FLAG  3          VFLAGBIT
000215:                                                                                                  #  VFLSHFLG      178             BIT  2 FLAG 11          VFLSHBIT
000216:                                                                                                  #  VINTFLAG      057             BIT  3 FLAG  3          VINTFBIT
000217:                                                                                                  #  VXINH         168             BIT 12 FLAG 11          VXINHBIT


000219:                                                                                                  #  V37FLAG       114             BIT  6 FLAG  7          V37FLBIT
000220:                                                                                                  #  V67FLAG       112             BIT  8 FLAG  7          V67FLBIT
000221:                                                                                                  #  V82EMFLG      118             BIT  2 FLAG  7          V82EMBIT
000222:                                                                                                  #  XDELVFLG      037             BIT  8 FLAG  2          XDELVBIT
000223:                                                                                                  #  XDSPFLAG      074             BIT  1 FLAG  4          XDSPBIT
000224:                                                                                                  #  XORFLG        171             BIT  9 FLAG 11          XORFLBIT
000225:                                                                                                  #  XOVINFLG      201             BIT  9 FLAG 13          XOVINHIB
000226:                                                                                                  #  3AXISFLG      084             BIT  6 FLAG  5          3AXISBIT
000227:                                                                                                  #  360SW         134             BIT  1 FLAG  8          360SWBIT
000228:
000229:                                                                                                  #  ASSIGNMENT AND DESCRIPTION OF FLAGWORDS
000230:
000231: 26,2022     0074               FLAGWRD0           =        STATE      +0                         #  (000-014)
000232:
000233:                                                                                                  #        (SET)                   (RESET)
000234:
000235:                                                                                                  #  BIT 15 FLAG 0 (S)
000236:                                                                                                  #                =       000D
000237:                                                                                                  #                =       BIT15
000238:
000239:                                                                                                  #  BIT 14 FLAG 0 (S)
000240: 26,2022                        JSWITCH            =        001D                                  #        INTEGRATION OF W        INTEGRATION OF STATE
000241: 26,2022     4736               JSWCHBIT           =        BIT14                                 #        MATRIX                  VECTOR
000242:
000243:                                                                                                  #  BIT 13 FLAG 0 (S)
000244: 26,2022                        MIDFLAG            =        002D                                  #        INTEGRATION WITH        INTEGRATION WITHOUT
000245:                                                                                                  #        SECONDARY BODY AND      SOLAR PERTURBATIONS
000246: 26,2022     4737               MIDFLBIT           =        BIT13                                 #        SOLAR PERTURBATIONS
000247:
000248:                                                                                                  #  BIT 12 FLAG 0 (L)
000249: 26,2022                        MOONFLAG           =        003D                                  #        MOON IS SPHERE OF       EARTH IS SPHERE OF
000250: 26,2022     4740               MOONBIT            =        BIT12                                 #        INFLUENCE               INFLUENCE
000251:
000252:                                                                                                  #  BIT 11 FLAG 0
000253: 26,2022                        P21FLAG            =        004D                                  #        USE BASE VECTORS        1ST PASS -- CALC-
000254: 26,2022     4741               P21FLBIT           =        BIT11                                 #        ALREADY CALCULATED      ULATE BASE VECTORS
000255:
000256:                                                                                                  #  BIT 10 FLAG 0
000257: 26,2022                        FSPASFLG           =        005D                                  #        FIRST PASS THROUGH      NOT FIRST PASS THRU
000258: 26,2022     4742               FSPASBIT           =        BIT10                                 #        REPOSITION ROUTINE      REPOSITION ROUTINE
000259:


000261:                                                                                                  #  BIT 9 FLAG 0  (S)
000262: 26,2022                        P25FLAG            =        006D                                  #        P25 OPERATING           P25 NOT OPERATING
000263: 26,2022     4743               P25FLBIT           =        BIT9
000264:
000265:                                                                                                  #  BIT 8 FLAG 0  (S)
000266: 26,2022                        IMUSE              =        007D                                  #        IMU IN USE              IMU NOT IN USE
000267: 26,2022     4744               IMUSEBIT           =        BIT8
000268:
000269:                                                                                                  #  BIT 7 FLAG 0  (S)
000270: 26,2022                        RNDVZFLG           =        008D                                  #        P20 RUNNING (RADAR      P20 NOT RUNNING
000271: 26,2022     4745               RNDVZBIT           =        BIT7                                  #        IN USE)
000272:
000273:                                                                                                  #  BIT 6 FLAG 0  (S)
000274: 26,2022                        RRNBSW             =        009D                                  #        RADAR TARGET IN         RADAR TARGET IN
000275: 26,2022     4746               RRNBBIT            =        BIT6                                  #        NB COORDINATES          SM COORDINATES
000276:
000277:                                                                                                  #  BIT 5 FLAG 0  (S)
000278: 26,2022                        LOKONSW            =        010D                                  #        RADAR LOCK-ON           RADAR LOCK-ON NOT
000279: 26,2022     4747               LOKONBIT           =        BIT5                                  #        DESIRED                 DESIRED
000280:
000281:                                                                                                  #  BIT 4 FLAG 0  (S)
000282: 26,2022                        NEEDLFLG           =        011D                                  #        TOTAL ATTITUDE          A/P FOLLOWING
000283: 26,2022     4750               NEEDLBIT           =        BIT4                                  #        ERROR DISPLAYED         ERROR DISPLAYED
000284:
000285:                                                                                                  #  BIT 3 FLAG 0
000286: 26,2022                        FREEFLAG           =        012D                                  #  (USED BY P51-53 TEMP IN MANY DIFFERENT
000287:                                                                                                  #  ROUTINES & BY LUNAR + SOLAR EPHEMERIDES)
000288: 26,2022     4751               FREEFBIT           =        BIT3
000289:
000290:                                                                                                  #  BIT 2 FLAG 0
000291: 26,2022                        R10FLAG            =        013D                                  #        R10 OUTPUTS DATA TO     BESIDES OUTPUT WHEN
000292: 26,2022     4752               R10FLBIT           =        BIT2                                  #        ALTITUDE & ALTITUDE     SET, R10 ALSO OUTPUT
000293:                                                                                                  #        RATE METERS ONLY        TO FORWARD & LATERAL
000294:                                                                                                  #                                VELOCITY CROSSPOINTR
000295:
000296:                                                                                                  #  BIT 1 FLAG 0  (L)
000297: 26,2022                        OLDESFLG           =        014D                                  #        R29 GYRO CMD LOOP       R29 GYRO CMD LOOP
000298: 26,2022     4753               OLDESBIT           =        BIT1                                  #        REQUESTED               NOT REQUESTED
000299:
000300:
000301: 26,2022     0075               FLAGWRD1           =        STATE      +1                         #  (015-029)
000302:


000304:                                                                                                  #        (SET)                   (RESET)
000305:
000306:                                                                                                  #  BIT 15 FLAG 1 (S)
000307: 26,2022                        NJETSFLG           =        015D                                  #        TWO JET RCS BURN        FOUR JET RCS BURN
000308: 26,2022     4735               NJETSBIT           =        BIT15
000309:
000310:                                                                                                  #  BIT 14 FLAG 1 (L)
000311: 26,2022                        DIDFLAG            =        016D                                  #        INERTIAL DATA IS        PERFORM DATA DISPLAY
000312: 26,2022     4736               DIDFLBIT           =        BIT14                                 #        AVAILABLE               INITIALIZATION FUNCS
000313:
000314:                                                                                                  #  BIT 13 FLAG 1 (S)
000315: 26,2022                        ERADFLAG           =        017D                                  #        COMPUTE REARTH          USE CONSTANT REARTH
000316: 26,2022     4737               ERADFBIT           =        BIT13                                 #        FISCHER ELLIPSOID       PAD RADIUS
000317:
000318:                                                                                                  #  BIT 12 FLAG 1
000319: 26,2022                        RODFLAG            =        018D                                  #        IF IN P66, NORMAL       IF IN P66, RE-INIT-
000320: 26,2022     4740               RODFLBIT           =        BIT12                                 #        OPERATION CONTINUES.    IALIZATION IS PER-
000321:                                                                                                  #        RESTART CLEARS FLAG     FORMED AND FLAG IS
000322:
000323:                                                                                                  #  BIT 11 FLAG 1
000324:                                                                                                  #                =       019D
000325:                                                                                                  #                =       BIT11
000326:
000327:                                                                                                  #  BIT 10 FLAG 1 (L)
000328: 26,2022                        R61FLAG            =        020D                                  #        RUN R61 LEM             RUN R65 LEM
000329: 26,2022     4742               R61FLBIT           =        BIT10
000330:
000331:                                                                                                  #  BIT 9 FLAG 1
000332:                                                                                                  #                =       021D
000333:                                                                                                  #                =       BIT9
000334:
000335:                                                                                                  #  BIT 8 FLAG 1  (S)
000336: 26,2022                        VEHUPFLG           =        022D                                  #        CSM STATE VECTOR        LEM STATE VECTOR
000337: 26,2022     4744               VEHUPBIT           =        BIT8                                  #        BEING UPDATED           BEING UPDATED
000338:
000339:                                                                                                  #  BIT 7 FLAG 1  (S)
000340: 26,2022                        UPDATFLG           =        023D                                  #        UPDATING BY MARKS       UPDATING BY MARKS
000341: 26,2022     4745               UPDATBIT           =        BIT7                                  #        ALLOWED                 NOT ALLOWED
000342:
000343:                                                                                                  #  BIT 6 FLAG 1  (S)
000344: 26,2022                        NOUPFLAG           =        024D                                  #        NEITHER CSM             EITHER STATE
000345:                                                                                                  #        NOR LM STATE VECTOR     VECTOR MAY BE
000346: 26,2022     4746               NOUPFBIT           =        BIT6                                  #        MAY BE UPDATED          UPDATED
000347:


000349:                                                                                                  #  BIT 5 FLAG 1  (S)
000350: 26,2022                        TRACKFLG           =        025D                                  #        TRACKING ALLOWED        TRACKING NOT ALLOWED
000351: 26,2022     4747               TRACKBIT           =        BIT5
000352:
000353:                                                                                                  #  BIT 4 FLAG 1
000354:                                                                                                  #                =       026D
000355:                                                                                                  #                =       BIT4
000356:
000357:                                                                                                  #  BIT 3 FLAG 1  (S)
000358: 26,2022                        SLOPESW            =        027D                                  #        ITERATE WITH BIAS       ITERATE WITH REGULAR
000359:                                                                                                  #        METHOD IN ITERATOR      FALSI METHOD IN
000360: 26,2022     4751               SLOPEBIT           =        BIT3                                  #                                ITERATOR
000361:
000362:                                                                                                  #  BIT 2 FLAG 1  (S)
000363: 26,2022                        GUESSW             =        028D                                  #        NO STARTING VALUE       STARTING VALUE FOR
000364: 26,2022     4752               GUESSBIT           =        BIT2                                  #        FOR ITERATION           ITERATION EXISTS
000365:
000366:                                                                                                  #  BIT 1 FLAG 1
000367:                                                                                                  #                =       029D
000368:
000369: 26,2022     0076               FLAGWRD2           =        STATE      +2                         #  (030-044)
000370:
000371:                                                                                                  #        (SET)                   (RESET)
000372:
000373:                                                                                                  #  BIT 15 FLAG 2 (S)
000374: 26,2022                        DRIFTFLG           =        030D                                  #        T3RUPT CALLS GYRO       T3RUPT DOES NO GYRO
000375: 26,2022     4735               DRFTBIT            =        BIT15                                 #        COMPENSATION            COMPENSATION
000376:
000377:                                                                                                  #  BIT 14 FLAG 2 (S)
000378: 26,2022                        SRCHOPTN           =        031D                                  #        RADAR IN AUTOMATIC      RADAR NOT IN AUTO-
000379: 26,2022     4736               SRCHOBIT           =        BIT14                                 #        SEARCH OPTION (R24)     MATIC SEARCH OPTION
000380:
000381:                                                                                                  #  BIT 13 FLAG 2 (S)
000382: 26,2022                        ACMODFLG           =        032D                                  #        MANUAL ACQUISITION      AUTO ACQUISITION
000383: 26,2022     4737               ACMODBIT           =        BIT13                                 #        BY RENDESVOUS RADAR     BY RENDESVOUS RADAR
000384:
000385:                                                                                                  #  BIT 12 FLAG 2 (S)
000386: 26,2022                        LOSCMFLG           =        033D                                  #        LINE OF SIGHT BEING     LINE OF SIGHT NOT
000387:                                                                                                  #        COMPUTED (R21)          BEING COMPUTED
000388: 26,2022     4740               LOSCMBIT           =        BIT12
000389:


000391:                                                                                                  #        IN R29 (L): RR GYRO     IN R29 (L): RR GYRO
000392:                                                                                                  #        CMD LOOP RUNNING        CMD LOOP OFF
000393:
000394:                                                                                                  #  BIT 11 FLAG 2 (S)
000395: 26,2022                        STEERSW            =        034D                                  #        SUFFICIENT THRUST       INSUFFICIENT THRUST
000396: 26,2022     4741               STEERBIT           =        BIT11                                 #        IS PRESENT              IS PRESENT
000397:
000398:                                                                                                  #  BIT 10 FLAG 2 (S)
000399:
000400:                                                                                                  #  BIT 9 FLAG 2 (S)
000401: 26,2022                        IMPULSW            =        036D                                  #        MINIMUM IMPULSE         STEERING BURN (NO
000402:                                                                                                  #        BURN (CUTOFF TIME       CUTOFF TIME YET
000403: 26,2022     4743               IMPULBIT           =        BIT9                                  #        SPECIFIED)              AVAILABLE)
000404:
000405:                                                                                                  #  BIT 8 FLAG 2 (S)
000406: 26,2022                        XDELVFLG           =        037D                                  #        EXTERNAL DELTAV VG      LAMBERT (AIMPOINT)
000407: 26,2022     4744               XDELVBIT           =        BIT8                                  #        COMPUTATION             VG COMPUTATION
000408:
000409:                                                                                                  #  BIT 7 FLAG 2 (S)
000410: 26,2022                        ETPIFLAG           =        038D                                  #        ELEVATION ANGLE         TPI TIME SUPPLIED
000411:                                                                                                  #        SUPPLIED FOR            FOR P34,74 TO COMPUT
000412: 26,2022     4745               ETPIBIT            =        BIT7                                  #        P34,74                  ELEVATION
000413:
000414:                                                                                                  #  BIT 7 FLAG 2 (L)
000415: 26,2022  0000046               OPTNSW             =        ETPIFLAG                              #        SOI PHASE OF P38/78     SOR PHASE OF P38/78
000416: 26,2022     4745               OPTNBIT            =        BIT7
000417:
000418:                                                                                                  #  BIT 6 FLAG 2 (S)
000419: 26,2022                        FINALFLG           =        039D                                  #        LAST PASS THROUGH       INTERIM PASS THROUGH
000420:                                                                                                  #        RENDEZVOUS PROGRAM      RENDEZVOUS PROGRAM
000421: 26,2022     4746               FINALBIT           =        BIT6                                  #        COMPUTATIONS            COMPUTATIONS
000422:
000423:                                                                                                  #  BIT 5 FLAG 2 (S)
000424: 26,2022                        AVFLAG             =        040D                                  #        LEM IS ACTIVE           CSM IS ACTIVE
000425: 26,2022     4747               AVFLBIT            =        BIT5                                  #        VEHICLE                 VEHICLE
000426:
000427:                                                                                                  #  BIT 4 FLAG 2 (S)
000428: 26,2022                        PFRATFLG           =        041D                                  #        PREFERRED ATTITUDE      PREFERRED ATTITUDE
000429: 26,2022     4750               PFRATBIT           =        BIT4                                  #        COMPUTED                NOT COMPUTED
000430:
000431:                                                                                                  #  BIT 3 FLAG 2 (S)
000432:


000434: 26,2022                        CALCMAN3           =        042D                                  #        NO FINAL ROLL           FINAL ROLL IS
000435: 26,2022     4751               CALC3BIT           =        BIT3                                  #                                NECESSARY
000436:
000437:                                                                                                  #  BIT 2 FLAG 2 (S)
000438: 26,2022                        CALCMAN2           =        043D                                  #        PERFORM MANEUVER        BYPASS STARTING
000439: 26,2022     4752               CALC2BIT           =        BIT2                                  #        STARTING PROCEDURE      PROCEDURE
000440:
000441:                                                                                                  #  BIT 1 FLAG 2 (S)
000442: 26,2022                        NODOFLAG           =        044D                                  #        V37 NOT PERMITTED       V37 PERMITTED
000443: 26,2022     4753               NODOBIT            =        BIT1
000444:
000445: 26,2022     0077               FLAGWRD3           =        STATE      +3                         #  (045-059)
000446:
000447:                                                                                                  #        (SET)                   (RESET)
000448:
000449:                                                                                                  #  BIT 15 FLAG 3
000450:                                                                                                  #                =       045D
000451:
000452:                                                                                                  #  BIT 14 FLAG 3 (S)
000453: 26,2022                        GLOKFAIL           =        046D                                  #        GIMBAL LOCK HAS         NOT IN GIMBAL LOCK
000454: 26,2022     4736               GLOKFBIT           =        BIT14                                 #        OCCURRED
000455:
000456:                                                                                                  #  BIT 13 FLAG 3 *** PROTECTED FROM FRESH START ***
000457: 26,2022                        REFSMFLG           =        047D                                  #        REFSMMAT GOOD           REFSMMAT NO GOOD
000458: 26,2022     4737               REFSMBIT           =        BIT13
000459:
000460:                                                                                                  #  BIT 12 FLAG 3 (S)
000461: 26,2022                        LUNAFLAG           =        048D                                  #        LUNAR LAT-LONG          EARTH LAT-LONG
000462: 26,2022     4740               LUNABIT            =        BIT12
000463:
000464:                                                                                                  #  BIT 11 FLAG 3 (L)
000465: 26,2022                        NOR29FLG           =        049D                                  #        R29 NOT ALLOWED         R29 ALOWED (RR DES-
000466: 26,2022     4741               NR29FBIT           =        BIT11                                 #                                IGNATE, POWERED FLT)
000467:
000468:                                                                                                  #  BIT 10 FLAG 3 (S)
000469: 26,2022                        VFLAG              =        050D                                  #        LESS THAN TWO STARS     TWO STARS IN FIELD
000470: 26,2022     4742               VFLAGBIT           =        BIT10                                 #        IN FIELD OF VIEW        OF VIEW
000471:
000472:                                                                                                  #  BIT 9 FLAG 3  (S)
000473: 26,2022                        R04FLAG            =        051D                                  #        ALARM 521               ALARM 521 ALLOWED
000474:                                                                                                  #        SUPPRESSED


000476: 26,2022     4743               R04FLBIT           =        BIT9
000477:
000478:                                                                                                  #  BIT 9 FLAG 3  (L)
000479: 26,2022  0000063               READRFLG           =        R04FLAG                               #        READING RR DATA         NOT READING RR DATA
000480: 26,2022     4743               READRBIT           =        BIT9                                  #        PURSUANT TO R29         PURSUANT TO R29
000481:
000482:                                                                                                  #  BIT 8 FLAG 3  (S)
000483: 26,2022                        PRECIFLG           =        052D                                  #        NORMAL INTEGRATION      ENGAGES 4-TIME STEP
000484:                                                                                                  #        IN POO                  (POO) LOGIC IN INTE-
000485: 26,2022     4744               PRECIBIT           =        BIT8                                  #                                GRATION
000486:
000487:                                                                                                  #  BIT 7 FLAG 3  (S)
000488: 26,2022                        CULTFLAG           =        053D                                  #        STAR OCCULTED           STAR NOT OCCULTED
000489: 26,2022     4745               CULTBIT            =        BIT7
000490:
000491:                                                                                                  #  BIT 6 FLAG 3  (S)
000492: 26,2022                        ORBWFLAG           =        054D                                  #        W MATRIX VALID FOR      W MATRIX INVALID FOR
000493: 26,2022     4746               ORBWFBIT           =        BIT6                                  #        ORBITAL NAVIGATION      ORBITAL NAVIGATION
000494:
000495:                                                                                                  #  BIT 5 FLAG 3  (S)
000496: 26,2022                        STATEFLG           =        055D                                  #        PERMANENT STATE         PERMANENT STATE
000497: 26,2022     4747               STATEBIT           =        BIT5                                  #        VECTOR UPDATED          VECTOR NOT UPDATED
000498:
000499:                                                                                                  #  BIT 4 FLAG 3  (S)
000500: 26,2022                        INTYPFLG           =        056D                                  #        CONIC INTEGRATION       ENCKE INTEGRATION
000501: 26,2022     4750               INTYPBIT           =        BIT4
000502:
000503:                                                                                                  #  BIT 3 FLAG 3  (S)
000504: 26,2022                        VINTFLAG           =        057D                                  #        CSM STATE VECTOR        LEM STATE VECTOR
000505: 26,2022     4751               VINTFBIT           =        BIT3                                  #        BEING INTEGRATED        BEING INTEGRATED
000506:
000507:                                                                                                  #  BIT 2 FLAG 3 (S)
000508: 26,2022                        D6OR9FLG           =        058D                                  #        DIMENSION OF W IS 9     DIMENSION OF W IS 6
000509: 26,2022     4752               D6OR9BIT           =        BIT2                                  #        FOR INTEGRATION         FOR INTEGRATION
000510:
000511:                                                                                                  #  BIT 1 FLAG 3  (S)
000512: 26,2022                        DIM0FLAG           =        059D                                  #        W MATRIX IS TO BE       W MATRIX IS NOT TO
000513: 26,2022     4753               DIM0BIT            =        BIT1                                  #        USED                    BE USED
000514:
000515: 26,2022     0100               FLAGWRD4           =        STATE      +4                         #  (060-074)
000516:


000518:                                                                                                  #        (SET)                   (RESET)
000519:
000520:                                                                                                  #  BIT 15 FLAG 4 (S)
000521: 26,2022                        MRKIDFLG           =        060D                                  #        MARK DISPLAY IN         NO MARK DISPLAY IN
000522: 26,2022     4735               MRKIDBIT           =        BIT15                                 #        ENDIDLE                 ENDIDLE
000523:
000524:                                                                                                  #  BIT 14 FLAG 4 (S)
000525: 26,2022                        PRIODFLG           =        061D                                  #        PRIORITY DISPLAY IN     NO PRIORITY DISPLAY
000526: 26,2022     4736               PRIODBIT           =        BIT14                                 #        ENDIDLE                 IN ENDIDLE
000527:
000528:                                                                                                  #  BIT 13 FLAG 4 (S)
000529: 26,2022                        NRMIDFLG           =        062D                                  #        NORMAL DISPLAY IN       NO NORMAL DISPLAY
000530: 26,2022     4737               NRMIDBIT           =        BIT13                                 #        ENDIDLE                 IN ENDIDLE
000531:
000532:                                                                                                  #  BIT 12 FLAG 4 (S)
000533: 26,2022                        PDSPFLAG           =        063D                                  #        P20 SETS SO AS TO       LEAVE AS NORMAL DISP
000534:                                                                                                  #        TURN A NORMAL DIS-
000535: 26,2022     4740               PDSPFBIT           =        BIT12                                 #        PLAY INTO A PRIORITY
000536:                                                                                                  #        DISPLAY IN R60
000537:
000538:                                                                                                  #  BIT 11 FLAG 4 (S)
000539: 26,2022                        MWAITFLG           =        064D                                  #        HIGHER PRIORITY         NO HIGHER PRIORITY
000540:                                                                                                  #        DISPLAY OPERATING       DISPLAY OPERATING
000541: 26,2022     4741               MWAITBIT           =        BIT11                                 #        WHEN MARK DISPLAY       WHEN MARK DISPLAY
000542:                                                                                                  #        INITIATED               INITIATED
000543:
000544:                                                                                                  #  BIT 10 FLAG 4 (S)
000545: 26,2022                        NWAITFLG           =        065D                                  #        HIGHER PRIORITY         NO HIGHER PRIORITY
000546:                                                                                                  #        DISPLAY OPERATING       DISPLAY OPERATING
000547: 26,2022     4742               NWAITBIT           =        BIT10                                 #        WHEN NORMAL             WHEN NORMAL DISPLAY
000548:                                                                                                  #        DISPLAY INITIATED       INITIATED
000549:
000550:                                                                                                  #  BIT 9 FLAG 4  (S)
000551: 26,2022                        MRKNVFLG           =        066D                                  #        ASTRONAUT USING         ASTRONAUT NOT USING
000552:                                                                                                  #        KEYBOARD WHEN MARK      KEYBOARD WHEN MARK
000553: 26,2022     4743               MRKNVBIT           =        BIT9                                  #        DISPLAY INITIATED       DISPLAY INITIATED
000554:
000555:                                                                                                  #  BIT 8 FLAG 4  (S)
000556: 26,2022                        NRMNVFLG           =        067D                                  #        ASTRONAUT USING         ASTRONAUT NOT USING
000557:                                                                                                  #        KEYBOARD WHEN           KEYBOARD WHEN
000558: 26,2022     4744               NRMNVBIT           =        BIT8                                  #        NORMAL DISPLAY          NORMAL DISPLAY
000559:                                                                                                  #        INITIATED               INITIATED
000560:
000561:                                                                                                  #  BIT 7 FLAG 4  (S)
000562: 26,2022                        PRONVFLG           =        068D                                  #        ASTRONAUT USING         ASTRONAUT NOT USING
000563:


000565:                                                                                                  #        KEYBOARD WHEN           KEYBOARD WHEN
000566: 26,2022     4745               PRONVBIT           =        BIT7                                  #        PRIORITY DISPLAY        PRIORITY DISPLAY
000567:                                                                                                  #        INITIATED               INITIATED
000568:
000569:                                                                                                  #  BIT 6 FLAG 4  (S)
000570: 26,2022                        PINBRFLG           =        069D                                  #        ASTRONAUT HAS           ASTRONAUT HAS NOT
000571:                                                                                                  #        INTERFERED WITH         INTERFERED WITH
000572: 26,2022     4746               PINBRBIT           =        BIT6                                  #        EXISTING DISPLAY        EXISTING DISPLAY
000573:
000574:                                                                                                  #  BIT 5 FLAG 4  (S)
000575: 26,2022                        MRUPTFLG           =        070D                                  #        MARK DISPLAY            MARK DISPLAY NOT
000576:                                                                                                  #        INTERRUPTED BY          INTERRUPTED BY
000577: 26,2022     4747               MRUPTBIT           =        BIT5                                  #        PRIORITY DISPLAY        PRIORITY DISPLAY
000578:
000579:                                                                                                  #  BIT 4 FLAG 4  (S)
000580: 26,2022                        NRUPTFLG           =        071D                                  #        NORMAL DISPLAY          NORMAL DISPLAY NOT
000581:                                                                                                  #        INTERRUPTED BY          INTERRUPTED BY
000582: 26,2022     4750               NRUPTBIT           =        BIT4                                  #        PRIORITY OR MARK        PRIORITY OR MARK
000583:                                                                                                  #        DISPLAY                 DISPLAY
000584:
000585:                                                                                                  #  BIT 3 FLAG 4  (S)
000586: 26,2022                        MKOVFLAG           =        072D                                  #        MARK DISPLAY OVER       NO MARK DISPLAY OVER
000587: 26,2022     4751               MKOVBIT            =        BIT3                                  #        NORMAL                  NORMAL
000588:
000589:                                                                                                  #  BIT 2 FLAG 4
000590:                                                                                                  #                =       073D
000591:
000592:
000593:                                                                                                  #  BIT 1 FLAG 4  (S)
000594: 26,2022                        XDSPFLAG           =        074D                                  #        MARK DISPLAY NOT        NO SPECIAL MARK
000595: 26,2022     4753               XDSPBIT            =        BIT1                                  #        TO BE INTERRUPTED       INFORMATION
000596:
000597: 26,2022     0101               FLAGWRD5           =        STATE      +5                         #  (075-089)
000598:
000599:                                                                                                  #        (SET)                   (RESET)
000600:
000601:                                                                                                  #  BIT 15 FLAG 5 (S)
000602: 26,2022                        DSKYFLAG           =        075D                                  #        DISPLAYS SENT TO        NO DISPLAYS TO DSKY
000603: 26,2022     4735               DSKYFBIT           =        BIT15                                 #        DSKY
000604:
000605:                                                                                                  #  BIT 14 FLAG 5
000606:                                                                                                  #                =       076D
000607:                                                                                                  #                =       BIT14
000608:


000610:                                                                                                  #  BIT 13 FLAG 5 (S,L)
000611: 26,2022                        SNUFFER            =        077D                                  #        U,V JETS DISABLED       U,V JETS ENABLED
000612:                                                                                                  #        DURING DPS              DURING DPS
000613: 26,2022     4737               SNUFFBIT           =        BIT13                                 #        BURNS (V65)             BURNS (V75)
000614:
000615:                                                                                                  #  BIT 12 FLAG 5 (S)
000616: 26,2022                        NOTHROTL           =        078D                                  #        INHIBIT FULL            PERMIT FULL THROTTLE
000617: 26,2022     4740               NOTHRBIT           =        BIT12                                 #        THROTTLE
000618:
000619:                                                                                                  #  BIT 11 FLAG 5 (S,L)
000620: 26,2022                        R77FLAG            =        079D                                  #        R77 IS ON,              R77 IS NOT ON.
000621:                                                                                                  #        SUPPRESS ALL RADAR
000622:                                                                                                  #        ALARMS AND TRACKER
000623: 26,2022     4741               R77FLBIT           =        BIT11                                 #        FAILS
000624:
000625:                                                                                                  #  BIT 10 FLAG 5 (S)
000626: 26,2022                        RNGSCFLG           =        080D                                  #        SCALE CHANGE HAS        NO SCALE CHANGE HAS
000627:                                                                                                  #        OCCURRED DURING         OCCURRED DURING
000628: 26,2022     4742               RNGSCBIT           =        BIT10                                 #        RR READING              RR READING
000629:
000630:                                                                                                  #  BIT 9 FLAG 5  (S)
000631: 26,2022                        DMENFLG            =        081D                                  #        DIMENSION OF W IS 9     DIMENSION OF W IS 6
000632: 26,2022     4743               DMENFBIT           =        BIT9                                  #        FOR INCORPORATION       FOR INCORPORATION
000633:
000634:                                                                                                  #  BIT 8 FLAG 5  (S)
000635:                                                                                                  #                =       082D
000636:                                                                                                  #                =       BIT8
000637:
000638:                                                                                                  #  BIT 7 FLAG 5  (S)
000639: 26,2022                        ENGONFLG           =        083D                                  #        ENGINE TURNED ON        ENGINE TURNED OFF
000640: 26,2022     4745               ENGONBIT           =        BIT7                                  #
000641:
000642:                                                                                                  #  BIT 6 FLAG 5  (S)
000643: 26,2022                        3AXISFLG           =        084D                                  #        MANEUVER SPECIFIED      MANEUVER SPECIFIED
000644:                                                                                                  #        BY THREE AXES           BY ONE AXIS; R60
000645: 26,2022     4746               3AXISBIT           =        BIT6                                  #                                CALLS VECPOINT.
000646:
000647:                                                                                                  #  BIT 5 FLAG 5
000648:                                                                                                  #                =       085D
000649:
000650:                                                                                                  #  BIT 4 FLAG 5  (S)
000651:


000653: 26,2022                        NORRMON            =        086D                                  #        BYPASS RR GIMBAL        PERFORM
000654: 26,2022     4750               NORRMBIT           =        BIT4                                  #        MONITOR                 RR GIMBAL MONITOR
000655:
000656:                                                                                                  #  BIT 3 FLAG 5  (S)
000657: 26,2022                        SOLNSW             =        087D                                  #        LAMBERT DOES NOT        LAMBERT CONVERGES OR
000658:                                                                                                  #        CONVERGE, OR TIME-RAD   TIME-RADIUS NON
000659: 26,2022     4751               SOLNSBIT           =        BIT3                                  #        NEARLY CIRCULAR         CIRCULAR
000660:
000661:                                                                                                  #  BIT 2 FLAG 5  (S)
000662: 26,2022                        MGLVFLAG           =        088D                                  #        LOCAL VERTICAL          MIDDLE GIMBAL ANGLE
000663:                                                                                                  #        COORDINATES             COMPUTED
000664: 26,2022     4752               MGLVFBIT           =        BIT2                                  #        COMPUTED
000665:
000666:                                                                                                  #  BIT 1 FLAG 5  (S)
000667: 26,2022                        RENDWFLG           =        089D                                  #        W MATRIX VALID          W MATRIX INVALID
000668:                                                                                                  #        FOR RENDEZVOUS          FOR RENDEZVOUS
000669: 26,2022     4753               RENDWBIT           =        BIT1                                  #        NAVIGATION              NAVIGATION
000670:
000671:
000672: 26,2022     0102               FLAGWRD6           =        STATE      +6                         #  (090-104)
000673:
000674:                                                                                                  #        (SET)                   (RESET)
000675:
000676:                                                                                                  #  BIT 15 FLAG 6 (S)
000677: 26,2022                        S32.1F1            =        090D                                  #        DELTA V AT CSI TIME     DVT1 LESS THEN MAX
000678: 26,2022     4735               S32BIT1            =        BIT15                                 #        ONE EXCEEDS MAX
000679:
000680:                                                                                                  #  BIT 14 FLAG 6 (S)
000681: 26,2022                        S32.1F2            =        091D                                  #        FIRST PASS OF           REITERATION OF
000682: 26,2022     4736               S32BIT2            =        BIT14                                 #        NEWTON ITERATION        NEWTON
000683:
000684:                                                                                                  #  BIT 13 FLAG 6 (S)
000685: 26,2022                        S32.1F3A           =        092D                                  #  BIT 13 AND BIT 12 FUNCTION AS AN ORDERED
000686: 26,2022     4737               S32BIT3A           =        BIT13                                 #  PAIR (13,12) INDICATING THE POSSIBLE OC-
000687:                                                                                                  #  CURRANCE OF 2NEWTON ITERATIONS FOR S32.1
000688:                                                                                                  #  IN THE PROGRAM IN THE FOLLOWING ORDER:
000689:                                                                                                  #  BIT 12 FLAG 6                                   (0,1) (I.E. BIT 13 RESET, BIT 12 SET)
000690: 26,2022                        S32.1F3B           =        093D                                  #       = FIRST NEWTON ITERATION BEING DONE
000691: 26,2022     4740               S32BIT3B           =        BIT12                                 #  (0,0)= FIRST PASS OF SECOND NEWT.ITERAT.
000692:                                                                                                  #  (1,1)= 50 FT/SEC STAGE OF SEC. NEWT.ITER
000693:                                                                                                  #  (1,0)= REMAINDER OF SECOND NEWTON ITERA.
000694:                                                                                                  #  BIT 11 FLAG 6 (S)
000695:


000697:                                                                                                  #  BIT 10 FLAG 6 (S)
000698: 26,2022                        GMBDRVSW           =        095D                                  #        TRIMGIMB OVER           TRIMGIMB NOT OVER
000699: 26,2022     4742               GMBDRBIT           =        BIT10                                 #
000700:
000701:                                                                                                  #  BIT 9 FLAG 6
000702:                                                                                                  #                =       096D
000703:                                                                                                  #                =       BIT9
000704:
000705:                                                                                                  #  BIT 8 FLAG 6  (S)
000706: 26,2022                        MUNFLAG            =        097D                                  #        SERVICER CALLS          SERVICER CALLS
000707: 26,2022     4744               MUNFLBIT           =        BIT8                                  #        MUNRVG                  CALCRVG
000708:
000709:                                                                                                  #  BIT 7 FLAG 6  (L)
000710:
000711:
000712:                                                                                                  #  BIT 6 FLAG 6  (L)
000713: 26,2022                        REDFLAG            =        099D                                  #        LANDING SITE            LANDING SITE
000714:                                                                                                  #        REDESIGNATION           REDESIGNATION NOT
000715: 26,2022     4746               REDFLBIT           =        BIT6                                  #        PERMITTED               PERMITTED
000716:
000717:                                                                                                  #  BIT 5 FLAG 6
000718:                                                                                                  #                =       100D
000719:
000720:                                                                                                  #  BIT 4 FLAG 6
000721:                                                                                                  #                =       101D
000722:
000723:                                                                                                  #  BIT 3 FLAG 6  (S)
000724: 26,2022                        NTARGFLG           =        102D                                  #        ASTRONAUT DID           ASTRONAUT DID NOT
000725:                                                                                                  #        OVERWRITE DELTA         OVERWRITE DELTA
000726: 26,2022     4751               NTARGBIT           =        BIT3                                  #        VELOCITY AT TPI         VELOCITY
000727:                                                                                                  #        OR TPM (P34,35)
000728:
000729:                                                                                                  #  BIT 2 FLAG 6
000730: 26,2022                        AUXFLAG            =        103D                                  #        PROVIDING IDLEFLAG      SERVICER WILL SKIP
000731: 26,2022     4752               AUXFLBIT           =        BIT2                                  #        IS NOT SET, SERV-       DVMON ON ITS NEXT
000732:                                                                                                  #        ICER WILL EXERCISE      PASS EVEN IF THE
000733:                                                                                                  #        DVMON ON ITS NEXT       IDLEFLAG IS NOT SET.
000734:                                                                                                  #        PASS.                   IT WILL THEN SET
000735:                                                                                                  #                                AUXFLAG.
000736:
000737:                                                                                                  #  BIT 1 FLAG 6  (L)
000738: 26,2022                        ATTFLAG            =        104D                                  #        LEM ATTITUDE EXISTS     NO LEM ATTITUDE
000739:                                                                                                  #        IN MOON-FIXED           AVAILABLE IN MOON-
000740:


000742: 26,2022     4753               ATTFLBIT           =        BIT1                                  #        COORDINATES             FIXED COORDINATES
000743:
000744: 26,2022     0103               FLAGWRD7           =        STATE      +7                         #  (105-119)
000745:
000746:                                                                                                  #        (SET)                   (RESET)
000747:
000748:                                                                                                  #  BIT 15 FLAG 7 (S)
000749: 26,2022                        ITSWICH            =        105D                                  #        P34;TPI TIME TO BE      TPI HAS BEEN
000750: 26,2022     4735               ITSWBIT            =        BIT15                                 #        COMPUTED                COMPUTED
000751:
000752:                                                                                                  #  BIT 14 FLAG 7 (S)
000753: 26,2022                        MANUFLAG           =        106D                                  #        ATTITUDE MANEUVER       NO ATTITUDE MANEUVER
000754:                                                                                                  #        GOING DURING RR         DURING RR SEARCH
000755: 26,2022     4736               MANUFBIT           =        BIT14                                 #        SEARCH
000756:
000757:                                                                                                  #  BIT 13 FLAG 7 (S)
000758: 26,2022                        IGNFLAG            =        107D                                  #        TIG HAS ARRIVED         TIG HAS NOT ARRIVED
000759: 26,2022     4737               IGNFLBIT           =        BIT13                                 #
000760:
000761:                                                                                                  #  BIT 12 FLAG 7 (S)
000762: 26,2022                        ASTNFLAG           =        108D                                  #        ASTRONAUT HAS           ASTRONAUT HAS NOT
000763: 26,2022     4740               ASTNBIT            =        BIT12                                 #        OKAYED IGNITION         OKAYED IGNITION
000764:
000765:                                                                                                  #  BIT 11 FLAG 7 (L)
000766: 26,2022                        SWANDISP           =        109D                                  #        LANDING ANALOG          LANDING ANALOG
000767: 26,2022     4741               SWANDBIT           =        BIT11                                 #        DISPLAYS ENABLED        DISPLAYS SUPPRESSED
000768:
000769:                                                                                                  #  BIT 10 FLAG 7 (S)
000770: 26,2022                        NORMSW             =        110D                                  #        UNIT NORMAL INPUT       LAMBERT COMPUTES ITS
000771: 26,2022     4742               NORMSBIT           =        BIT10                                 #        TO LAMBERT              OWN UNIT NORMAL
000772:
000773:                                                                                                  #  BIT 9 FLAG 7  (S)
000774: 26,2022                        RVSW               =        111D                                  #        DO NOT COMPUTE          COMPUTE FINAL STATE
000775:                                                                                                  #        FINAL STATE VECTOR      VECTOR IN TIME-THETA
000776: 26,2022     4743               RVSWBIT            =        BIT9                                  #        IN TIME-THETA
000777:
000778:                                                                                                  #  BIT 8 FLAG 7  (S)
000779: 26,2022                        V67FLAG            =        112D                                  #        ASTRONAUT OVERWRITE     ASTRONAUT DOES NOT
000780:                                                                                                  #        W-MATRIX INITIAL        OVERWRITE W-MATRIX
000781: 26,2022     4744               V67FLBIT           =        BIT8                                  #        VALUES                  INITIAL VALUES
000782:


000784:                                                                                                  #  BIT 7 FLAG 7  (S)
000785: 26,2022                        IDLEFLAG           =        113D                                  #        NO DV MONITOR           CONNECT DV MONITOR
000786: 26,2022     4745               IDLEFBIT           =        BIT7                                  #
000787:
000788:                                                                                                  #  BIT 6 FLAG 7  (S)
000789: 26,2022                        V37FLAG            =        114D                                  #        AVERAGEG (SERVICER)     AVERAGEG (SERVICER)
000790: 26,2022     4746               V37FLBIT           =        BIT6                                  #        RUNNING                 OFF
000791:
000792:                                                                                                  #  BIT 5 FLAG 7  (S)
000793: 26,2022                        AVEGFLAG           =        115D                                  #        AVERAGEG (SERVICER)     AVERAGEG (SERVICER)
000794: 26,2022     4747               AVEGFBIT           =        BIT5                                  #        DESIRED                 NOT DESIRED
000795:
000796:                                                                                                  #  BIT 4 FLAG 7  (S)
000797: 26,2022                        UPLOCKFL           =        116D                                  #        K-KBAR-K FAIL           NO K-KBAR-K FAIL
000798: 26,2022     4750               UPLOCBIT           =        BIT4                                  #
000799:
000800:                                                                                                  #  BIT 3 FLAG 7  (S)
000801: 26,2022                        VERIFLAG           =        117D                                  #  CHANGED WHEN V33E OCCURS AT END OF P27
000802: 26,2022     4751               VERIFBIT           =        BIT3                                  #
000803:
000804:                                                                                                  #  BIT 2 FLAG 7  (L,C)
000805: 26,2022                        V82EMFLG           =        118D                                  #        MOON VICINITY           EARTH VICINITY
000806: 26,2022     4752               V82EMBIT           =        BIT2                                  #
000807:
000808:                                                                                                  #  BIT 1 FLAG 7  (S)
000809: 26,2022                        TFFSW              =        119D                                  #        CALCULATE TPERIGEE      CALCULATE TFF
000810: 26,2022     4753               TFFSWBIT           =        BIT1                                  #
000811:
000812:
000813: 26,2022     0104               FLAGWRD8           =        STATE      +8D                        #  (120-134)
000814:
000815:                                                                                                  #        (SET)                   (RESET)
000816:
000817:                                                                                                  #  BIT 15 FLAG 8 (S)
000818: 26,2022                        RPQFLAG            =        120D                                  #        RPQ NOT COMPUTED        RPQ COMPUTED
000819:                                                                                                  #        (RPQ = VECTOR BE-
000820: 26,2022     4735               RPQFLBIT           =        BIT15                                 #        TWEEN SECONDARY BODY
000821:                                                                                                  #        AND PRIMARY BODY
000822:
000823:                                                                                                  #  BIT 14 FLAG 8
000824:                                                                                                  #                =       121D
000825:                                                                                                  #                =       BIT14
000826:


000828:                                                                                                  #  BIT 13 FLAG 8 (S)
000829: 26,2022                        NEWIFLG            =        122D                                  #        FIRST PASS THROUGH      SUCCEEDING ITERATION
000830: 26,2022     4737               NEWIBIT            =        BIT13                                 #        INTEGRATION             OF INTEGRATION
000831:
000832:                                                                                                  #  BIT 12 FLAG 8 *** PROTECTED FROM FRESH START ***
000833: 26,2022                        CMOONFLG           =        123D                                  #        PERMANENT CSM STATE     PERMANENT CSM STATE
000834: 26,2022     4740               CMOONBIT           =        BIT12                                 #        IN LUNAR SPHERE         IN EARTH SPHERE
000835:
000836:                                                                                                  #  BIT 11 FLAG 8 *** PROTECTED FROM FRESH START ***
000837: 26,2022                        LMOONFLG           =        124D                                  #        PERMANENT LM STATE      PERMANENT LM STATE
000838: 26,2022     4741               LMOONBIT           =        BIT11                                 #        IN LUNAR SPHERE         IN EARTH SPHERE
000839:
000840:                                                                                                  #  BIT 10 FLAG 8 (L)
000841: 26,2022                        FLUNDISP           =        125D                                  #        CURRENT GUIDANCE        CURRENT GUIDANCE
000842: 26,2022     4742               FLUNDBIT           =        BIT10                                 #        DISPLAYS INHIBITED      DISPLAYS PERMITTED
000843:
000844:                                                                                                  #  BIT 9 FLAG 8  (L)
000845: 26,2022                        P39/79SW           =        126D                                  #        P39/79 OPERATING        P38/P78 OPERATING
000846: 26,2022     4743               P39SWBIT           =        BIT9                                  #
000847:
000848:                                                                                                  #  BIT 8 FLAG 8  *** PROTECTED FROM FRESH START ***
000849: 26,2022                        SURFFLAG           =        127D                                  #        LM ON LUNAR SURFACE     LM NOT ON LUNAR
000850: 26,2022     4744               SURFFBIT           =        BIT8                                  #                                SURFACE
000851:
000852:                                                                                                  #  BIT 7 FLAG 8  (S)
000853: 26,2022                        INFINFLG           =        128D                                  #        NO CONIC SOLUTION       CONIC SOLUTION
000854:                                                                                                  #        (CLOSURE THROUGH        EXISTS
000855: 26,2022     4745               INFINBIT           =        BIT7                                  #        INFINITY REQUIRED)
000856:
000857:                                                                                                  #  BIT 6 FLAG 8  (S)
000858: 26,2022                        ORDERSW            =        129D                                  #        ITERATOR USES 2ND       ITERATOR USES 1ST
000859: 26,2022     4746               ORDERBIT           =        BIT6                                  #        ORDER MINIMUM MODE      ORDER STANDARD MODE
000860:
000861:                                                                                                  #  BIT 5 FLAG 8  (S)
000862: 26,2022                        APSESW             =        130D                                  #        RDESIRED OUTSIDE        RDESIRED INSIDE
000863:                                                                                                  #        PERICENTER-APOCENTER    PERICENTER-APOCENTER
000864: 26,2022     4747               APSESBIT           =        BIT5                                  #        RANGE IN TIME-RADI      RANGE IN TIME-RADIUS
000865:
000866:                                                                                                  #  BIT 4 FLAG 8  (S)
000867: 26,2022                        COGAFLAG           =        131D                                  #        NO CONIC SOLUTION -     CONIC SOLUTION
000868:                                                                                                  #        TOO CLOSE TO RECTI-     EXISTS(COGA DOES NOT
000869:


000871: 26,2022     4750               COGAFBIT           =        BIT4                                  #        LINEAR (COGA OVRFLWS)   OVERFLOW)
000872:
000873:                                                                                                  #  BIT 3 FLAG 8
000874:                                                                                                  #                =       132D
000875:
000876:                                                                                                  #  BIT 2 FLAG 8  (L)
000877: 26,2022                        INITALGN           =        133D                                  #        INITIAL PASS THRU       SECOND PASS THRU P57
000878: 26,2022     4752               INITABIT           =        BIT2                                  #        P57                     (CHECK RESET-MILLARD)
000879:
000880:                                                                                                  #  BIT 1 FLAG 8  (S)
000881: 26,2022                        360SW              =        134D                                  #        TRANSFER ANGLE NEAR     TRANSFER ANGLE NOT
000882: 26,2022     4753               360SWBIT           =        BIT1                                  #        360 DEGREES             NEAR 360 DEGREES
000883:
000884:
000885: 26,2022     0105               FLAGWRD9           =        STATE      +9D                        #  (135-149)
000886:
000887:                                                                                                  #        (SET)                   (RESET)
000888:
000889:                                                                                                  #  BIT 15 FLAG 9
000890:                                                                                                  #                =       135D
000891:                                                                                                  #                =       BIT15
000892:
000893:                                                                                                  #  BIT 14 FLAG 9 (L)
000894: 26,2022                        FLVR               =        136D                                  #        VERTICAL RISE           NON-VERTICAL RISE
000895: 26,2022     4736               FLVRBIT            =        BIT14                                 #        (ASCENT GUIDANCE)
000896:
000897:                                                                                                  #  BIT 13 FLAG 9
000898:                                                                                                  #                =       137D
000899:
000900:                                                                                                  #  BIT 12 FLAG 9 (L)
000901: 26,2022                        FLPC               =        138D                                  #        NO POSITION CONTROL     POSITION CONTROL
000902: 26,2022     4740               FLPCBIT            =        BIT12                                 #        (ASCENT GUIDANCE)
000903:
000904:                                                                                                  #  BIT 11 FLAG 9 (L)
000905: 26,2022                        FLPI               =        139D                                  #        PRE-IGNITION PHASE      REGULAR GUIDANCE
000906: 26,2022     4741               FLPIBIT            =        BIT11                                 #        (ASCENT GUIDANCE)
000907:
000908:                                                                                                  #  BIT 10 FLAG 9 (L)
000909: 26,2022                        FLRCS              =        140D                                  #        RCS INJECTION MODE      MAIN ENGINE MODE
000910: 26,2022     4742               FLRCSBIT           =        BIT10                                 #        (ASCENT GUIDANCE)
000911:
000912:                                                                                                  #  BIT 9 FLAG 9  (L)
000913:


000915: 26,2022                        LETABORT           =        141D                                  #        ABORT PROGRAMS          ABORT PROGRAMS
000916: 26,2022     4743               LETABBIT           =        BIT9                                  #        ARE ENABLED             ARE NOT ENABLED
000917:
000918:                                                                                                  #  BIT 8 FLAG 9  (L)
000919: 26,2022                        FLAP               =        142D                                  #        APS CONTINUED ABORT     APS ABORT IS NOT A
000920:                                                                                                  #        AFTER DPS STAGING       CONTINUATION
000921: 26,2022     4744               FLAPBIT            =        BIT8                                  #        (ASCENT GUIDANCE)
000922:
000923:                                                                                                  #  BIT 7 FLAG 9  (L)
000924:                                                                                                  #                =       143D
000925:
000926:
000927:                                                                                                  #  BIT 6 FLAG 9  (L)
000928: 26,2022                        ROTFLAG            =        144D                                  #        P70 AND P71 WILL        P70 AND P71 WILL NOT
000929: 26,2022     4746               ROTFLBIT           =        BIT6                                  #        FORCE VEHICLE           FORCE VEHICLE
000930:                                                                                                  #        ROTATION IN THE         ROTATION IN THE
000931:                                                                                                  #        PREFERRED DIRECTION.    PREFERRED DIRECTION
000932:
000933:                                                                                                  #  BIT 5 FLAG 9  (S)
000934: 26,2022                        QUITFLAG           =        145D                                  #        DISCONTINUE INTEGR.     CONTINUE INTEGRATION
000935: 26,2022     4747               QUITBIT            =        BIT5                                  #
000936:
000937:                                                                                                  #  BIT 4 FLAG 9
000938:                                                                                                  #                =       146D
000939:                                                                                                  #                =       BIT4
000940:
000941:                                                                                                  #  BIT 3 FLAG 9  (L)
000942: 26,2022                        MID1FLAG           =        147D                                  #        INTEGRATE TO TDEC       INTEGRATE TO THE
000943: 26,2022     4751               MID1FBIT           =        BIT3                                  #                                THEN-PRESENT TIME
000944:
000945:                                                                                                  #  BIT 2 FLAG 9  (L)
000946: 26,2022                        MIDAVFLG           =        148D                                  #        INTEGRATION ENTERED     INTEGRATION WAS
000947:                                                                                                  #        FROM ONE OF MIDTOAV     NOT ENTERED VIA
000948: 26,2022     4752               MIDAVBIT           =        BIT2                                  #        PORTALS                 MIDTOAV
000949:
000950:                                                                                                  #  BIT 1 FLAG 9  (S)
000951: 26,2022                        AVEMIDSW           =        149D                                  #        AVETOMID CALLING        NO AVETOMID W INTEGR
000952:                                                                                                  #        FOR W.MATRIX INTEGR     ALLOW SET UP RM,VN.
000953: 26,2022     4753               AVEMDBIT           =        BIT1                                  #        DONT WRITE OVER RN,     PIPTIME
000954:                                                                                                  #        VN,PIPTIME
000955:
000956:
000957: 26,2022     0106               RASFLAG            EQUALS   FLGWRD10                              #  WAS ONLY AN INSTALL-ERASTALL FLAG
000958:


000960: 26,2022     0106               FLGWRD10           =        STATE      +10D                       #  (150-164)
000961:
000962:                                                                                                  #        (SET)                   (RESET)
000963:
000964:                                                                                                  #  BIT 15 FLAG 10
000965:                                                                                                  #                =       150D
000966:
000967:                                                                                                  #  BIT 14 FLAG 10 (L,C)
000968: 26,2022                        INTFLAG            =        151D                                  #        INTEGRATION IN          INTEGRATION NOT IN
000969: 26,2022     4736               INTFLBIT           =        BIT14                                 #        PROGRESS                PROGRESS
000970:
000971:                                                                                                  #  BIT 13 FLAG 10 (S,L)
000972: 26,2022                        APSFLAG            =        152D                                  #        ASCENT STAGE            DESCENT STAGE
000973: 26,2022     4737               APSFLBIT           =        BIT13                                 #         *** PROTECTED FROM FRESH START ***
000974:
000975:                                                                                                  #  BIT 12 FLAG 10
000976:                                                                                                  #                =       153D
000977:
000978:                                                                                                  #  BIT 11 FLAG 10
000979:                                                                                                  #                =       154D
000980:
000981:                                                                                                  #  BIT 10 FLAG 10
000982:                                                                                                  #                =       155D
000983:
000984:                                                                                                  #  BIT 9 FLAG 10
000985:                                                                                                  #                =       156D
000986:
000987:                                                                                                  #  BIT 8 FLAG 10
000988:                                                                                                  #                =       157D
000989:
000990:                                                                                                  #  BIT 7 FLAG 10 (L,C)
000991: 26,2022                        REINTFLG           =        158D                                  #        INTEGRATION ROUTINE     INTEGRATION ROUTINE
000992: 26,2022     4745               REINTBIT           =        BIT7                                  #        TO BE RESTARTED         NOT TO BE RESTARTED
000993:
000994:                                                                                                  #  BIT 6 FLAG 10
000995:                                                                                                  #                =       159D
000996:
000997:                                                                                                  #  BIT 5 FLAG 10
000998:                                                                                                  #                =       160D
000999:


001001:                                                                                                  #  BIT 4 FLAG 10
001002:                                                                                                  #                =       161D
001003:
001004:                                                                                                  #  BIT 3 FLAG 10
001005:                                                                                                  #                =       162D
001006:
001007:                                                                                                  #  BIT 2 FLAG 10
001008:                                                                                                  #                =       163D
001009:
001010:                                                                                                  #  BIT 1 FLAG 10
001011:                                                                                                  #                =       164D
001012:
001013:
001014:
001015: 26,2022     0107               FLGWRD11           =        STATE      +11D                       #  (165-179)
001016:
001017:                                                                                                  #        (SET)                   (RESET)
001018:
001019:                                                                                                  #  BIT 15 FLAG 11 (L)(R12)
001020: 26,2022                        LRBYPASS           =        165D                                  #        BYPASS ALL LANDING      DO NOT BYPASS LR
001021: 26,2022     4735               LRBYBIT            =        BIT15                                 #        RADAR UPDATES           UPDATES
001022:
001023:                                                                                                  #  BIT 14 FLAG 11
001024:                                                                                                  #                =       166D
001025:                                                                                                  #                =       BIT14
001026:
001027:                                                                                                  #                =       BIT 13 FLAG 11
001028:                                                                                                  #                =       167D
001029:                                                                                                  #                =       BIT13
001030:
001031:                                                                                                  #  BIT 12 FLAG 11 (L)(R12)
001032: 26,2022                        VXINH              =        168D                                  #        IF Z VELOCITY DATA      UPDATE X AXIS
001033:                                                                                                  #        UNREASONABLE,           VELOCITY
001034: 26,2022     4740               VXINHBIT           =        BIT12                                 #        BYPASS X VELOCITY
001035:                                                                                                  #        UPDATE ON NEXT PASS
001036:
001037:                                                                                                  #  BIT 11 FLAG 11 (L)(R12)
001038: 26,2022                        PSTHIGAT           =        169D                                  #        PAST HIGATE             PREHIGATE
001039: 26,2022     4741               PSTHIBIT           =        BIT11                                 #
001040:
001041:                                                                                                  #  BIT 10 FLAG 11 (L)(R12)
001042:


001044: 26,2022                        NOLRREAD           =        170D                                  #        LANDING RADAR           LR NOT REPOSITIONING
001045:                                                                                                  #        REPOSITIONING;
001046: 26,2022     4742               NOLRRBIT           =        BIT10                                 #        BYPASS UPDATE
001047:
001048:                                                                                                  #  BIT 9 FLAG 11 (L)(R12)
001049: 26,2022                        XORFLG             =        171D                                  #        BELOW LIMIT             ABOVE LIMIT DO
001050:                                                                                                  #        INHIBIT X AXIS          NOT INHIBIT
001051: 26,2022     4743               XORFLBIT           =        BIT9                                  #        OVERRIDE
001052:
001053:                                                                                                  #  BIT 8 FLAG 11
001054: 26,2022                        LRINH              =        172D                                  #        LANDING RADAR UP-       LR UPDATES INHIBITED
001055: 26,2022     4744               LRINHBIT           =        BIT8                                  #        DATES PERMITTED         BY ASTRONAUT
001056:                                                                                                  #        BY ASTRONAUT
001057:
001058:                                                                                                  #  BIT 7 FLAG 11 (L)(R12)
001059: 26,2022                        VELDATA            =        173D                                  #        LR VELOCITY             LR VELOCITY MEASURE
001060: 26,2022     4745               VELDABIT           =        BIT7                                  #        MEASUREMENT MADE        NOT MADE
001061:
001062:                                                                                                  #  BIT 6 FLAG 11 (L)(R12)
001063: 26,2022                        READLR             =        174D                                  #        OK TO READ LR           DO NOT READ LR RANGE
001064: 26,2022     4746               READLBIT           =        BIT6                                  #        RANGE DATA              DATA
001065:
001066:                                                                                                  #  BIT 5 FLAG 11 (L)(R12)
001067: 26,2022                        READVEL            =        175D                                  #        OK TO READ LR           DO NOT READ LR
001068: 26,2022     4747               READVBIT           =        BIT5                                  #        VELOCITY DATA           VELOCITY DATA
001069:
001070:                                                                                                  #  BIT 4 FLAG 11 (L)(R12)
001071: 26,2022                        RNGEDATA           =        176D                                  #        LR ALTITUDE             LR ALTITUDE MEASURE
001072: 26,2022     4750               RNGEDBIT           =        BIT4                                  #        MEASUREMENT MADE        NOT MADE
001073:
001074:                                                                                                  #  BIT 3 FLAG 11
001075: 26,2022                        SCALBAD            =        177D                                  #        LR LOW SCALE DIS-       LR SCALE DISCRETE
001076: 26,2022     4751               SCABBIT            =        BIT3                                  #        CRETE NOT PRESENT       APPEARS OK
001077:                                                                                                  #        WHEN IT SHOULD BE
001078:
001079:                                                                                                  #  BIT 2 FLAG 11 (L)(R12)
001080: 26,2022                        VFLSHFLG           =        178D                                  #        LR VELOCITY FAIL        LR VEL FAIL LAMP
001081:                                                                                                  #        LAMP SHOULD BE          SHOULDN'T FLASH
001082: 26,2022     4752               VFLSHBIT           =        BIT2                                  #        FLASHING
001083:
001084:                                                                                                  #  BIT 1 FLAG 11 (L)(R12)


001086: 26,2022                        HFLSHFLG           =        179D                                  #        LR ALTITUDE FAIL        LR ALTITUDE FAIL
001087: 26,2022     4753               HFLSHBIT           =        BIT1                                  #        LAMP SHOULD BE          LAMP SHOULD NOT BE
001088:                                                                                                  #        FLASHING                FLASHING
001089:
001090: 26,2022     0110               RADMODES           EQUALS   FLGWRD12                              #  RADAR FLAG WORD
001091:
001092: 26,2022     0110               FLGWRD12           =        STATE      +12D                       #  (180-194)             WAS RADMODES
001093:
001094:                                                                                                  #        (SET)                   (RESET)
001095:
001096:                                                                                                  #  BIT 15 FLAG 12
001097: 26,2022                        CDESFLAG           =        180D                                  #        CONTINUOUS DESIG-       LGC CHECKS FOR LOCK-
001098: 26,2022     4735               CDESBIT            =        BIT15                                 #        NATE. LGC COMMANDS      ON WHEN ANTENNA
001099:                                                                                                  #        RR REGARDLESS OF        BEING DESIGNATED
001100:                                                                                                  #        LOCK-ON
001101:
001102:                                                                                                  #  BIT 14 FLAG 12
001103: 26,2022                        REMODFLG           =        181D                                  #        CHANGE IN ANTENNA       NO REMODE REQUESTED
001104: 26,2022     4736               REMODBIT           =        BIT14                                 #        MODE BEEN REQUESTED     OR OCCURRING
001105:                                                                                                  #        I.E., REMODE
001106:
001107:                                                                                                  #  BIT 13 FLAG 12
001108: 26,2022                        RCDU0FLG           =        182D                                  #        RR CDU'S BEING          RR CDU'S NOT BEING
001109: 26,2022     4737               RCDU0BIT           =        BIT13                                 #        ZEROED                  ZEROED
001110:
001111:                                                                                                  #  BIT 12 FLAG 12
001112: 26,2022                        ANTENFLG           =        183D                                  #        RR ANTENNA MODE IS      RR ANTENNA IN MODE 1
001113: 26,2022     4740               ANTENBIT           =        BIT12                                 #        MODE 2
001114:
001115:                                                                                                  #  BIT 11 FLAG 12
001116: 26,2022                        REPOSMON           =        184D                                  #        REPOSITION MONITOR.     NO REPOSITION TAKING
001117: 26,2022     4741               REPOSBIT           =        BIT11                                 #        RR REPOSITION IS        PLACE
001118:                                                                                                  #        TAKING PLACE
001119:
001120:                                                                                                  #  BIT 10 FLAG 12
001121: 26,2022                        DESIGFLG           =        185D                                  #        RR DESIGNATE            RR DESIGNATE NOT
001122: 26,2022     4742               DESIGBIT           =        BIT10                                 #        REQUESTED OR IN         REQUESTED OR IN
001123:                                                                                                  #        PROGRESS                PROGRESS
001124:
001125:                                                                                                  #  BIT 9 FLAG 12
001126: 26,2022                        ALTSCALE           =        186D                                  #        LR ALTITUDE READING     LR ALTITUDE READING
001127: 26,2022     4743               ALTSCBIT           =        BIT9                                  #        IS ON HIGH SCALE        IS ON LOW SCALE
001128:


001130:                                                                                                  #  BIT 8 FLAG 12
001131: 26,2022                        LRVELFLG           =        187D                                  #        LR VELOCITY DATA        NO LR VELOCITY DATA
001132: 26,2022     4744               LRVELBIT           =        BIT8                                  #        FAIL                    FAIL
001133:
001134:                                                                                                  #  BIT 7 FLAG 12
001135: 26,2022                        RCDUFAIL           =        188D                                  #        RR CDU FAIL HAS         RR CDU FAIL OCCURRED
001136: 26,2022     4745               RCDUFBIT           =        BIT7                                  #        NOT OCCURRED
001137:
001138:                                                                                                  #  BIT 6 FLAG 12
001139: 26,2022                        LRPOSFLG           =        189D                                  #        LANDING RADAR           LR POSITION 1
001140: 26,2022     4746               LRPOSBIT           =        BIT6                                  #        POSITION 2
001141:
001142:                                                                                                  #  BIT 5 FLAG 12
001143: 26,2022                        LRALTFLG           =        190D                                  #        LR ALTITUDE DATA        NO LR ALTITUDE DATA
001144: 26,2022     4747               LRALTBIT           =        BIT5                                  #        FAIL.  COULD NOT BE     FAIL
001145:                                                                                                  #        READ SUCCESSFULLY.
001146:
001147:                                                                                                  #  BIT 4 FLAG 12
001148: 26,2022                        RRDATAFL           =        191D                                  #        RR DATA FAIL.           NO RR DATA FAIL.
001149: 26,2022     4750               RRDATABT           =        BIT4                                  #        DATA COULD NOT BE
001150:                                                                                                  #        READ SUCCESSFULLY
001151:
001152:                                                                                                  #  BIT 3 FLAG 12
001153: 26,2022                        RRRSFLAG           =        192D                                  #        RR RANGE READING        RR RANGE READING ON
001154: 26,2022     4751               RRRSBIT            =        BIT3                                  #        ON THE HIGH SCALE       THE LOW SCALE
001155:
001156:                                                                                                  #  BIT 2 FLAG 12
001157: 26,2022                        AUTOMODE           =        193D                                  #        RR NOT IN AUTO MODE.    RR IN AUTO MODE
001158: 26,2022     4752               AUTOMBIT           =        BIT2                                  #        AUTO MODE DISCRETE
001159:                                                                                                  #        IS NOT PRESENT
001160:
001161:                                                                                                  #  BIT 1 FLAG 12
001162: 26,2022                        TURNONFL           =        194D                                  #        RR TURN-ON SEQUENCE     NO RR TURN-ON
001163: 26,2022     4753               TURNONBT           =        BIT1                                  #        IN PROGRESS.  (ZERO     SEQUENCE IN PROGRESS
001164:                                                                                                  #        CDU'S, FIX ANTENNA
001165:                                                                                                  #        MODE)
001166:
001167: 26,2022     0111               DAPBOOLS           EQUALS   FLGWRD13                              #  DIGITAL AUTOPILOT FLAGWORD
001168:


001170: 26,2022     0111               FLGWRD13           =        STATE      +13D                       #  (195-209)     WAS DAPBOOLS
001171:
001172:                                                                                                  #        (SET)                   (RESET)
001173:
001174:                                                                                                  #  BIT 15 FLAG 13
001175: 26,2022                        PULSEFLG           =        195D                                  #        MINIMUM IMPULSE         NOT IN MINIMUM
001176: 26,2022     4735               PULSES             =        BIT15                                 #        COMMAND MODE IN         IMPULSE COMMAND MODE
001177:                                                                                                  #        "ATT HOLD" (V76)        (V77)
001178:
001179:                                                                                                  #  BIT 14 FLAG 13
001180: 26,2022                        USEQRFLG           =        196D                                  #        GIMBAL UNUSABLE.        TRIM GIMBAL MAY BE
001181: 26,2022     4736               USEQRJTS           =        BIT14                                 #        USE JETS ONLY.          USED.
001182:
001183:                                                                                                  #  BIT 13 FLAG 13
001184: 26,2022                        CSMDKFLG           =        197D                                  #        CSM DOCKED.  USE        CSM NOT DOCKED TO LM
001185: 26,2022     4737               CSMDOCKD           =        BIT13                                 #        BACKUP DAP
001186:
001187:                                                                                                  #  BIT 12 FLAG 13
001188: 26,2022                        OURRCFLG           =        198D                                  #        CURRENT DAP PASS        CURRENT DAP PASS IS
001189: 26,2022     4740               OURRCBIT           =        BIT12                                 #        IS RATE COMMAND         NOT RATE COMMAND
001190:
001191:                                                                                                  #  BIT 11 FLAG 13
001192: 26,2022                        ACC4-2FL           =        199D                                  #        4 JET X-AXIS TRANS-     2 JET X-AXIS TRANS-
001193: 26,2022     4741               ACC4OR2X           =        BIT11                                 #        LATION REQUESTED        LATION REQUESTED
001194:
001195:                                                                                                  #  BIT 10 FLAG 13
001196: 26,2022                        AORBTFLG           =        200D                                  #        B SYSTEM FOR X-         A SYSTEM FOR X-
001197: 26,2022     4742               AORBTRAN           =        BIT10                                 #        TRANSLATION             TRANSLATION PREFER'D
001198:
001199:                                                                                                  #  BIT 9 FLAG 13
001200: 26,2022                        XOVINFLG           =        201D                                  #        X-AXIS OVERRIDE         X-AXIS OVERRIDE OKAY
001201: 26,2022     4743               XOVINHIB           =        BIT9                                  #        LOCKED OUT
001202:
001203:                                                                                                  #  BIT 8 FLAG 13
001204: 26,2022                        DRIFTDFL           =        202D                                  #        ASSUME 0 OFFSET         USE OFFSET ACCELERA-
001205: 26,2022     4744               DRIFTBIT           =        BIT8                                  #        DRIFTING FLIGHT.        TION ESTIMATE
001206:
001207:                                                                                                  #  BIT 7 FLAG 13
001208: 26,2022                        RHCSCFLG           =        203D                                  #        NORMAL RHC SCALING      FINE RHC SCALING
001209: 26,2022     4745               RHCSCALE           =        BIT7                                  #        REQUESTED               REQUESTED
001210:


001212:                                                                                                  #  BIT 6 FLAG 13
001213: 26,2022                        ULLAGFLG           =        204D                                  #        ULLAGE REQUEST BY       NO INTERNAL ULLAGE
001214: 26,2022     4746               ULLAGER            =        BIT6                                  #        MISSION PROGRAM         REQUEST
001215:
001216:                                                                                                  #  BIT 5 FLAG 13
001217: 26,2022                        AORBSFLG           =        205D                                  #        P-AXIS COUPLES 7.15     P-AXIS COUPLES 4.12
001218: 26,2022     4747               AORBSYST           =        BIT5                                  #        AND 8,16 PREFERRED      AND 3,11 PREFERRED
001219:
001220:                                                                                                  #  BIT 4 FLAG 13
001221: 26,2022                        DBSELFLG           =        206D                                  #        MAX DB SELECTED         MIN DB SELECTED BY
001222: 26,2022     4750               DBSELECT           =        BIT4                                  #        BY CREW (5 DEG)         CREW (0.3 DEG)
001223:
001224:                                                                                                  #  BIT 3 FLAG 13
001225: 26,2022                        ACCOKFLG           =        207D                                  #        CONTROL AUTHORITY       RESTART OR FRESH ST.
001226: 26,2022     4751               ACCSOKAY           =        BIT3                                  #        VALUES FROM 1/ACCS      SINCE LAST 1/ACCS;
001227:                                                                                                  #        USABLE                  OUTPUTS SUSPECT.
001228:
001229:                                                                                                  #  BIT 2 FLAG 13
001230: 26,2022                        AUTR2FLG           =        208D                                  #  THESE FLAGS ARE USED TOGETHER TO INDICAT
001231: 26,2022     4752               AUTRATE2           =        BIT2                                  #  ASTRONAUT-CHOSEN KALCMANU MANEUVER RATES
001232:                                                                                                  #  (0,0)=(BIT2,BIT1)=    0.2 DEG/SEC
001233:                                                                                                  #  (0,1)=                0.5 DEG/SEC
001234:                                                                                                  #  BIT 1 FLAG 13
001235: 26,2022                        AUTR1FLG           =        209D                                  #  (1,0)=                2.0 DEG/SEC
001236: 26,2022     4753               AUTRATE1           =        BIT1                                  #  (1,1)=               10.0 DEG/SEC
001237:


001240:

End of include-file FLAGWORD_ASSIGNMENTS.agc.  Parent file is MAIN.agc


