
Source Code


000002:                                                                                                  ## Copyright:   Public domain.
000003:                                                                                                  ## Filename:    KALCMANU_STEERING.agc
000004:                                                                                                  ## Purpose:     A section of Luminary revision 96.
000005:                                                                                                  ##              It is part of the reconstructed source code for the
000006:                                                                                                  ##              original release of the flight software for the Lunar
000007:                                                                                                  ##              Module's (LM) Apollo Guidance Computer (AGC) for Apollo 11.
000008:                                                                                                  ##              The code has been recreated from a previously reconstructed
000009:                                                                                                  ##              copy of Luminary 97 by undoing changes described in anomaly
000010:                                                                                                  ##              report LNY-59. The code has been adapted such that the
000011:                                                                                                  ##              resulting bugger words exactly match those specified for
000012:                                                                                                  ##              Luminary 96 in NASA drawing 2021152D, which gives relatively
000013:                                                                                                  ##              high confidence that the reconstruction is correct.
000014:                                                                                                  ## Reference:   pp. 365-369
000015:                                                                                                  ## Assembler:   yaYUL
000016:                                                                                                  ## Contact:     Ron Burkey <info@sandroid.org>.
000017:                                                                                                  ## Website:     www.ibiblio.org/apollo/index.html
000018:                                                                                                  ## Mod history: 2019-08-04 MAS  Created from Luminary 97.
000019:


000021:                                                                                                  #  GENERATION OF STEERING COMMANDS FOR DIGITAL AUTOPILOT FREE FALL MANEUVERS
000022:
000023:                                                                                                  #  NEW COMMANDS WILL BE GENERATED EVERY ONE SECOND DURING THE MANEUVER
000024:
000025: 22,3003  E6,1707                                  EBANK=   TTEMP
000026:
000027: 22,3003           04616        NEWDELHI           TC       BANKCALL                              #  CHECK FOR AUTO STABILIZATION
000028: 22,3004           54262                           CADR     ISITAUTO                              #  ONLY
000029: 22,3005           10000                           CCS      A
000030: 22,3006           12730                           TCF      NOGO       -2
000031: 22,3007           06037        NEWANGL            TC       INTPRET
000032: 22,3010           75160                           AXC,1    AXC,2
000033: 22,3011           03246                                    MIS                                   #  COMPUTE THE NEW MATRIX FROM S/C TO
000034: 22,3012           02230                                    KEL                                   #  STABLE MEMBER AXES
000035: 22,3013           77624                           CALL
000036: 22,3014           44312                                    MXM3
000037: 22,3015           45575                           VLOAD    STADR
000038: 22,3016           50514                           STOVL    MIS        +12D                       #  CALCULATE NEW DESIRED CDU ANGLES
000039: 22,3017           77626                           STADR
000040: 22,3020           50522                           STOVL    MIS        +6D
000041: 22,3021           77626                           STADR
000042: 22,3022           74530                           STORE    MIS
000043: 22,3023           45160                           AXC,1    CALL
000044: 22,3024           03246                                    MIS
000045: 22,3025           44654                                    DCMTOCDU                              #  PICK UP THE NEW CDU ANGLES FROM MATRIX
000046: 22,3026           77634                           RTB
000047: 22,3027           21620                                    V1STO2S
000048: 22,3030           03304                           STORE    NCDU                                  #  NEW CDU ANGLES
000049: 22,3031           77414                           BONCLR   EXIT
000050: 22,3032           01215                                    CALCMAN2
000051: 22,3033           45122                                    MANUSTAT                              #  TO START MANEUVER
000052: 22,3034           34752                           CAF      TWO                                   #        +0 OTHERWISE
000053: 22,3035           55272        INCRDCDU           TS       SPNDX
000054: 22,3036           51272                           INDEX    SPNDX
000055: 22,3037           31676                           CA       BCDU                                  #  INITIAL CDU ANGLES
000056: 22,3040           00006                           EXTEND                                         #  OR PREVIOUS DESIRED CDU ANGLES
000057: 22,3041           51272                           INDEX    SPNDX
000058: 22,3042           21703                           MSU      NCDU
000059: 22,3043           00006                           EXTEND
000060: 22,2000                                           SETLOC   KALCMON1
000061: 22,2000                                           BANK
000062:
000063: 22,3044           73121                           MP       DT/TAU
000064: 22,3045           10000                           CCS      A                                     #  CONVERT TO 2S COMPLEMENT
000065: 22,3046           64753                           AD       ONE
000066: 22,3047           13051                           TCF      +2
000067: 22,3050           40000                           COM
000068: 22,3051           51272                           INDEX    SPNDX
000069: 22,3052           55640                           TS       DELDCDU                               #  ANGLE INCREMENTS TO BE ADDED TO
000070: 22,3053           51272                           INDEX    SPNDX                                 #  CDUXD, CDUYD, CDUZD EVERY TENTH SECOND


000072: 22,3054           31703                           CA       NCDU                                  #  BY LEM DAP
000073: 22,3055           51272                           INDEX    SPNDX
000074: 22,3056           57676                           XCH      BCDU
000075: 22,3057           51272                           INDEX    SPNDX
000076: 22,3060           55635                           TS       CDUXD
000077: 22,3061           11272                           CCS      SPNDX
000078: 22,3062           13035                           TCF      INCRDCDU                              #  LOOP FOR THREE AXES
000079:
000080: 22,3063           00003                           RELINT
000081:
000082:                                                                                                  #  COMPARE PRESENT TIME WITH TIME TO TERMINATE MANEUVER
000083:
000084: 22,3064           03075        TMANUCHK           TC       TIMECHK
000085: 22,3065           13170                           TCF      CONTMANU
000086: 22,3066           34753                           CAF      ONE
000087: 22,3067           00004        MANUSTAL           INHINT                                         #  END MAJOR PART OF MANEUVER WITHIN 1 SEC
000088: 22,3070           05203                           TC       WAITLIST                              #  UNDER WAITLIST CALL TO MANUSTOP
000089: 22,3071  E6,1707                                  EBANK=   TTEMP
000090: 22,3071           03213 44066                     2CADR    MANUSTOP
000091:
000092: 22,3073           00003                           RELINT
000093: 22,3074           15155                           TCF      ENDOFJOB
000094:
000095: 22,3075           00006        TIMECHK            EXTEND
000096: 22,3076           40025                           DCS      TIME2
000097: 22,3077           53710                           DXCH     TTEMP
000098: 22,3100           00006                           EXTEND
000099: 22,3101           31734                           DCA      TM
000100: 22,3102           21710                           DAS      TTEMP
000101: 22,3103           11707                           CCS      TTEMP
000102: 22,3104           00002                           TC       Q
000103: 22,3105           13107                           TCF      +2
000104: 22,3106           13117                           TCF      2NDRETRN
000105: 22,3107           11710                           CCS      TTEMP      +1
000106: 22,3110           00002                           TC       Q
000107: 22,3111           13113                           TCF      MANUOFF
000108: 22,3112           40000                           COM
000109: 22,3113           63166        MANUOFF            AD       ONESEK     +1
000110: 22,3114           00006                           EXTEND
000111: 22,3115           63117                           BZMF     2NDRETRN
000112: 22,3116           24002                           INCR     Q
000113: 22,3117           24002        2NDRETRN           INCR     Q
000114: 22,3120           00002                           TC       Q
000115:
000116: 22,3121           03146        DT/TAU             DEC      .1
000117:
000118: 22,3122           77776        MANUSTAT           EXIT                                           #  INITIALIZATION ROUTINE
000119: 22,3123           00006                           EXTEND                                         #  FOR AUTOMATIC MANEUVERS
000120: 22,3124           30025                           DCA      TIME2


000122: 22,3125           21734                           DAS      TM                                    #  TM+T0         MANEUVER COMPLETION TIME
000123: 22,3126           00006                           EXTEND
000124: 22,3127           43166                           DCS      ONESEK
000125: 22,3130           21734                           DAS      TM                                    #  (TM+T0)-1
000126: 22,3131           00004                           INHINT
000127: 22,3132           34752                           CAF      TWO
000128: 22,3133           55701        RATEBIAS           TS       KSPNDX
000129: 22,3134           60000                           DOUBLE
000130: 22,3135           55702                           TS       KDPNDX
000131: 22,3136           50000                           INDEX    A
000132: 22,3137           31725                           CA       BRATE
000133: 22,3140           51701                           INDEX    KSPNDX                                #  STORE MANEUVER RATE IN
000134: 22,3141           55643                           TS       OMEGAPD                               #  OMEGAPD, OMEGAQD, OMEGARD
000135: 22,3142           00006                           EXTEND
000136: 22,3143           63145                           BZMF     +2                                    #  COMPUTE ATTITUDE ERROR
000137: 22,3144           40000                           COM                                            #  OFFSET = (WX)ABS(WX)/2AJX
000138: 22,3145           00006                           EXTEND                                         #  WHERE AJX= 2-JET ACCELERATION
000139: 22,3146           73167                           MP       BIASCALE                              #  = -1/16
000140: 22,3147           00006                           EXTEND
000141: 22,3150           51702                           INDEX    KDPNDX
000142: 22,3151           71725                           MP       BRATE
000143: 22,3152           00006                           EXTEND
000144: 22,3153           51701                           INDEX    KSPNDX
000145: 22,3154           11530                           DV       1JACC                                 #  = AJX         $ 90 DEG/SEC-SEC
000146: 22,3155           51701                           INDEX    KSPNDX
000147: 22,3156           55277                           TS       DELPEROR                              #                $ 180 DEG
000148: 22,3157           11701                           CCS      KSPNDX
000149: 22,3160           13133                           TCF      RATEBIAS
000150:
000151: 22,3161           30025                           CA       TIME1
000152: 22,3162           63166                           AD       ONESEK     +1
000153: 22,3163           57706                           XCH      NEXTIME
000154: 22,3164           13034                           TCF      INCRDCDU   -1
000155:
000156: 22,3165           00000        ONESEK             DEC      0          B-14
000157: 22,3166           00144                           DEC      100        B-14
000158:
000159: 22,3167           75777        BIASCALE           OCT      75777                                 #  = -1/16
000160:
000161: 22,3170           40025        CONTMANU           CS       TIME1                                 #  RESET FOR NEXT DCDU UPDATE
000162: 22,3171           61706                           AD       NEXTIME
000163: 22,3172           10000                           CCS      A
000164: 22,3173           64753                           AD       ONE
000165: 22,3174           13177                           TCF      MANUCALL
000166: 22,3175           64735                           AD       NEGMAX
000167: 22,3176           40000                           COM
000168: 22,3177           00004        MANUCALL           INHINT                                         #  CALL FOR NEXT UPDATE VIA WAITLIST
000169: 22,3200           05203                           TC       WAITLIST
000170: 22,3201  E6,1707                                  EBANK=   TTEMP
000171: 22,3201           03206 44066                     2CADR    UPDTCALL


000173: 22,3203           33166                           CAF      ONESEK     +1                         #  INCREMENT TIME FOR NEXT UPDATE
000174: 22,3204           27706                           ADS      NEXTIME
000175: 22,3205           15155                           TCF      ENDOFJOB
000176:
000177: 22,3206           37714        UPDTCALL           CAF      PRIO26                                #  SATELLITE PROGRAM TO CALL FOR UPDATE
000178: 22,3207           05105                           TC       FINDVAC                               #  OF STEERING COMMANDS
000179: 22,3210  E6,1707                                  EBANK=   TTEMP
000180: 22,3210           03003 44066                     2CADR    NEWDELHI
000181:
000182: 22,3212           05261                           TC       TASKOVER
000183:


000185:                                                                                                  #  ROUTINE FOR TERMINATING AUTOMATIC MANEUVERS
000186:
000187: 22,3213           34755        MANUSTOP           CAF      ZERO                                  #  ZERO MANEUVER RATES
000188: 22,3214           55642                           TS       DELDCDU2
000189: 22,3215           55645                           TS       OMEGARD
000190: 22,3216           55301                           TS       DELREROR
000191: 22,3217           55641                           TS       DELDCDU1
000192: 22,3220           55644                           TS       OMEGAQD
000193: 22,3221           55300                           TS       DELQEROR
000194: 22,3222           30323                           CA       CPSI                                  #  SET DESIRED GIMBAL ANGLES TO
000195: 22,3223           55637                           TS       CDUZD                                 #  DESIRED FINAL GIMBAL ANGLES
000196: 22,3224           30322                           CA       CTHETA
000197: 22,3225           55636                           TS       CDUYD
000198: 22,3226           30321        ENDROLL            CA       CPHI                                  #  NO FINAL YAW
000199: 22,3227           55635                           TS       CDUXD
000200: 22,3230           34755                           CAF      ZERO
000201: 22,3231           55643                           TS       OMEGAPD                               #  I.E. MANEUVER DID NOT GO THRU
000202: 22,3232           55640                           TS       DELDCDU                               #  GIMBAL LOCK ORIGINALLY
000203: 22,3233           55277                           TS       DELPEROR
000204: 22,3234           31311        GOODMANU           CA       ATTPRIO                               #  RESTORE USERS PRIO
000205: 22,3235           54063                           TS       NEWPRIO
000206:
000207: 22,3236           34755                           CA       ZERO                                  #  ZERO ATTCADR
000208: 22,3237           53310                           DXCH     ATTCADR
000209:
000210: 22,3240           05116                           TC       SPVAC                                 #  RETURN TO USER
000211:
000212: 22,3241           05261                           TC       TASKOVER
000213:
000214:

End of include-file KALCMANU_STEERING.agc.  Parent file is MAIN.agc


