
Source Code


000002:                                                                                                  ## Copyright:   Public domain.
000003:                                                                                                  ## Filename:    P20-P25.agc
000004:                                                                                                  ## Purpose:     A section of Luminary revision 96.
000005:                                                                                                  ##              It is part of the reconstructed source code for the
000006:                                                                                                  ##              original release of the flight software for the Lunar
000007:                                                                                                  ##              Module's (LM) Apollo Guidance Computer (AGC) for Apollo 11.
000008:                                                                                                  ##              The code has been recreated from a previously reconstructed
000009:                                                                                                  ##              copy of Luminary 97 by undoing changes described in anomaly
000010:                                                                                                  ##              report LNY-59. The code has been adapted such that the
000011:                                                                                                  ##              resulting bugger words exactly match those specified for
000012:                                                                                                  ##              Luminary 96 in NASA drawing 2021152D, which gives relatively
000013:                                                                                                  ##              high confidence that the reconstruction is correct.
000014:                                                                                                  ## Reference:   pp. 492-613
000015:                                                                                                  ## Assembler:   yaYUL
000016:                                                                                                  ## Contact:     Ron Burkey <info@sandroid.org>.
000017:                                                                                                  ## Website:     www.ibiblio.org/apollo/index.html
000018:                                                                                                  ## Mod history: 2019-08-04 MAS  Created from Luminary 97.
000019:


000021:                                                                                                  #  RENDEZVOUS NAVIGATION PROGRAM 20
000022:
000023:                                                                                                  #  PROGRAM DESCRIPTION
000024:
000025:                                                                                                  #        MOD NO - 2
000026:                                                                                                  #        BY P. VOLANTE
000027:
000028:                                                                                                  #  FUNCTIONAL DESCRIPTION
000029:
000030:                                                                                                  #        THE PURPOSE OF THIS PROGRAM IS TO CONTROL THE RENDEZVOUS RADAR FROM
000031:                                                                                                  #        STARTUP THROUGH ACQUISITION AND LOCKON TO THE CSM AND TO UPDATE EITHER
000032:                                                                                                  #        THE LM OR CSM STATE VECTOR (AS SPECIFIED BY THE ASTRONAUT BY DSKY ENTRY)
000033:                                                                                                  #        ON THE BASIS OF THE RR TRACKING DATA.
000034:
000035:                                                                                                  #  CALLING SEQUENCE -
000036:
000037:                                                                                                  #        ASTRONAUT REQUEST THROUGH DSKY V37E20E
000038:
000039:                                                                                                  #  SUBROUTINES CALLED
000040:
000041:                                                                                                  #        R02BOTH (IMU STATUS CHECK)                      FLAGUP
000042:                                                                                                  #        GOFLASH (PINBALL-DISPLAY)                       FLAGDOWN
000043:                                                                                                  #        R23LEM  (MANUAL ACQUISITION)                    BANKCALL
000044:                                                                                                  #        LS201   (LOS DETERMINATION)                     TASKOVER
000045:                                                                                                  #        LS202   (RANGE LIMIT TEST)
000046:                                                                                                  #        R61LEM  (PREFERRED TRACKING ATTITUDE)
000047:                                                                                                  #        R21LEM  (RR DESIGNATE)                          ENDOFJOB
000048:                                                                                                  #        R22LEM  (DATA READ)                             GOPERF1
000049:                                                                                                  #        R31LEM  (RENDEZVOUS PARAMETER DISPLAY)
000050:                                                                                                  #        PRIOLARM (PRIORITY DISPLAY)
000051:
000052:                                                                                                  #  NORMAL EXIT MODES -
000053:
000054:                                                                                                  #        P20 MAY BE TERMINATED IN TWO WAYS - ASTRONAUT SELECTION OF IDLING
000055:                                                                                                  #        PROGRAM (P00) BY KEYING V37E00E OR BY KEYING IN V56E
000056:
000057:                                                                                                  #  ALARM OR ABORT EXIT MODES -
000058:
000059:                                                                                                  #        RANGE GREATER THAN 400 NM DISPLAY
000060:
000061:                                                                                                  #  OUTPUT
000062:
000063:                                                                                                  #        TRKMKCNT = NO OF RENDEZVOUS TRACKING MARKS TAKEN (COUNTER)
000064:
000065:                                                                                                  #  ERASABLE INITIALIZATION REQUIRED
000066:
000067:                                                                                                  #  FLAGS SET + RESET
000068:
000069:                                                                                                  #        SRCHOPT, RNDVZFLG, ACMODFLG, VEHUPFLG, UPDATFLG, TRACKFLG,
000070:
000071:                                                                                                  #  DEBRIS
000072:
000073:                                                                                                  #        CENTRALS - A,Q,L
000074:
000075: 25,2062  30,2000                                  SBANK=   LOWSUPER                              #  FOR LOW 2CADR'S.
000076:
000077: 33,2045                                           BANK     33
000078: 24,2000                                           SETLOC   P20S
000079: 24,2000                                           BANK
000080:
000081: 24,2000  E7,1456                                  EBANK=   LOSCOUNT
000082: 24,2000                                           COUNT*   $$/P20
000083: 24,2000  24,2000               PROG22             =        PROG20
000084: 24,2000           05327        PROG20             TC       2PHSCHNG
000085: 24,2001           00004                           OCT      4
000086: 24,2002           05022                           OCT      05022
000087: 24,2003           26000                           OCT      26000                                 #  PRIORITY 26
000088: 24,2004           02667                           TC       LUNSFCHK                              #  CHECK IF ON LUNAR SURFACE


000090: 24,2005           02007                           TC       ORBCHGO                               #  YES
000091: 24,2006           02036                           TC       PROG20A    -2                         #  NO - CONTINUE WITH P20
000092: 24,2007           05504        ORBCHGO            TC       UPFLAG                                #  SET VEHUPFLG - CSM STATE
000093: 24,2010           00026                           ADRES    VEHUPFLG                              #  VECTOR TO BE UPDATED
000094: 24,2011           34753                           CAF      ONE                                   #  SET R2 FOR OPTION CSM WILL NOT
000095: 24,2012           55145                           TS       OPTION2                               #  CHANGE PRESENT ORBIT
000096: 24,2013           32311                           CAF      OCT00012
000097: 24,2014           04616                           TC       BANKCALL                              #  DISPLAY ASSUMED CSM ORBIT OPTION
000098: 24,2015           20633                           CADR     GOPERF4
000099: 24,2016           06001                           TC       GOTOPOOH                              #  TERMINATE
000100: 24,2017           02021                           TC       ORBCHG1                               #  PROCEED VALUE OF ASSUMED OPTION OK
000101: 24,2020           02013                           TC       -5                                    #  R2 LOADED THRU DSKY
000102: 24,2021           42312        ORBCHG1            CS       P22ONE
000103: 24,2022           61145                           AD       OPTION2
000104: 24,2023           00006                           EXTEND
000105: 24,2024           12040                           BZF      PROG20A
000106: 24,2025           32315                           CAF      V06N33*
000107: 24,2026           04616                           TC       BANKCALL                              #  FLASH VERB-NOUN TO REQUEST ESTIMATED
000108: 24,2027           20476                           CADR     GOFLASH                               #  TIME OF LAUNCH
000109: 24,2030           06001                           TC       GOTOPOOH                              #  TERMINATE
000110: 24,2031           02033                           TC       ORBCHG2                               #  PROCEED VALUES OK
000111: 24,2032           02025                           TC       -5                                    #  TIME LOADED THRU DSKY
000112: 24,2033           06037        ORBCHG2            TC       INTPRET
000113: 24,2034           77650                           GOTO
000114: 24,2035           64217                                    ORBCHG3
000115: 32,2217                                           BANK     32
000116: 32,2000                                           SETLOC   P20S4
000117: 32,2000                                           BANK
000118: 32,2217                                           COUNT*   $$/P20
000119:
000120: 32,2217           77624        ORBCHG3            CALL
000121: 32,2220           27414                                    INTSTALL
000122: 32,2221           77745                           DLOAD
000123: 32,2222           03442                                    TIG
000124: 32,2223           03661                           STORE    LNCHTM
000125: 32,2224           00041                           STORE    TDEC1                                 #  ESTIMATED LAUNCH TIME
000126: 32,2225           43014                           CLEAR    CLEAR
000127: 32,2226           01674                                    VINTFLAG                              #  LM INTEGRATION
000128: 32,2227           01673                                    INTYPFLG                              #  PRECISION - ENCKE
000129: 32,2230           43014                           CLEAR    CLEAR
000130: 32,2231           01676                                    DIM0FLAG                              #  NO W-MATRIX
000131: 32,2232           01675                                    D6OR9FLG
000132: 32,2233           77624                           CALL
000133: 32,2234           27134                                    INTEGRV                               #  PLANETARY INERTIAL ORIENTATION
000134: 32,2235           77624                           CALL
000135: 32,2236           11244                                    GRP2PC
000136: 32,2237           77775                           VLOAD
000137: 32,2240           00017                                    RATT1
000138: 32,2241           17631                           STODL    RSUBL                                 #  SAVE LM POSITION
000139: 32,2242           00015                                    TAT


000141: 32,2243           34041                           STCALL   TDEC1
000142: 32,2244           27414                                    INTSTALL
000143: 32,2245           43014                           SET      CLEAR
000144: 32,2246           01474                                    VINTFLAG                              #  CSM INTEGRATION
000145: 32,2247           01673                                    INTYPFLG
000146: 32,2250           43014                           CLEAR    BOFF
000147: 32,2251           01676                                    DIM0FLAG
000148: 32,2252           02756                                    RENDWFLG                              #  W MATRIX VALID
000149: 32,2253           64257                                    NOWMATX                               #  NO
000150: 32,2254           43014                           SET      SET                                   #  YES - SET FOR W MATRIX
000151: 32,2255           01476                                    DIM0FLAG
000152: 32,2256           01475                                    D6OR9FLG
000153: 32,2257           77624        NOWMATX            CALL
000154: 32,2260           27134                                    INTEGRV                               #  CSM INTEGRATION
000155: 32,2261           77624                           CALL
000156: 32,2262           11244                                    GRP2PC
000157: 32,2263           77775                           VLOAD
000158: 32,2264           00025                                    VATT1
000159: 32,2265           25761                           STOVL    VSUBC                                 #  SAVE CSM VELOCITY
000160: 32,2266           00017                                    RATT1
000161: 32,2267           01102                           STORE    RSUBC                                 #  SAVE CSM POSITION
000162: 32,2270           53435                           VXV      UNIT                                  #  COMPUTE NORMAL TO CSM ORBITAL PLANE
000163: 32,2271           01761                                    VSUBC                                 #  NSUB1=UNIT(R(CM) CROSS V(CM)
000164: 32,2272           24025                           STOVL    20D                                   #  SAVE NSUB1
000165: 32,2273           03631                                    RSUBL                                 #  COMPUTE ESTIMATED ORBITAL
000166: 32,2274           53435                           VXV      UNIT                                  #  PLANE CHANGE
000167: 32,2275           00025                                    20D                                   #  UCSM = UNIT(R(LM) CROSS NSUB1)
000168: 32,2276           27637                           STOVL    UCSM
000169: 32,2277           01102                                    RSUBC                                 #  COMPUTE ANGLE BETWEEN UCSM
000170: 32,2300           50256                           UNIT     DOT                                   #  AND RSUBC
000171: 32,2301           03637                                    UCSM                                  #  COS A = UCSM DOT UNIT (R(CM))
000172: 32,2302           77752                           SL1
000173: 32,2303           02732                           STORE    CSTH                                  #  SAVE DOE TIME-THETA SUBROUTINE
000174: 32,2304           44316                           DSQ      BDSU                                  #  COMPUTE SINE A
000175: 32,2305           10314                                    ONEB-2
000176: 32,2306           77766                           SQRT
000177: 32,2307           26730                           STOVL    SNTH                                  #  SAVE FOR TIME-THETA SUBROUTINE
000178: 32,2310           01102                                    RSUBC                                 #  POSITION OF CSM AT EST. LAUNCH
000179: 32,2311           26655                           STOVL    RVEC                                  #  TIME FOR TIME-THETA   B-27
000180: 32,2312           01761                                    VSUBC                                 #  VELOCITY OF CSM AT EST. LAUNCH
000181: 32,2313           77676                           VCOMP
000182: 32,2314           02744                           STORE    VVEC                                  #  TIME FOR TIME THETA   B-5
000183: 32,2315           45014                           CLEAR    CALL
000184: 32,2316           03666                                    RVSW
000185: 32,2317           24732                                    TIMETHET
000186: 32,2320           77676                           VCOMP
000187: 32,2321           03645                           STORE    NEWVEL                                #  TERMINAL VELOCITY OF CSM
000188: 32,2322           77745                           DLOAD
000189: 32,2323           00037                                    T
000190: 32,2324           27663                           STOVL    TRANSTM                               #  TRANSFER TIME


000192: 32,2325           03645                                    NEWVEL
000193: 32,2326           77646                           ABVAL
000194: 32,2327           24025                           STOVL    20D
000195: 32,2330           00001                                    0D
000196: 32,2331           03653                           STORE    NEWPOS                                #  TERMINAL POSITION OF CSM
000197: 32,2332           53435                           VXV      UNIT                                  #  COMPUTE NORMAL TO CSM ORBITAL PLANE
000198: 32,2333           03631                                    RSUBL                                 #  NSUB2 = UNIT(NEWPOS CROSS R(LM))
000199: 32,2334           53435                           VXV      UNIT                                  #  ROTATE TERMINAL VEL INTO DESIRED
000200: 32,2335           03653                                    NEWPOS                                #  ORBITAL PLANE
000201: 32,2336           76561                           VXSC     VSL1                                  #  VSUBC = ABVAL(NEWVEL) $ UNIT (NSUB2
000202: 32,2337           00025                                    20D
000203: 32,2340           37665                           STCALL   NCSMVEL                               #  NEW CSM VELOCITY
000204: 32,2341           11244                                    GRP2PC
000205: 32,2342           77624                           CALL
000206: 32,2343           27414                                    INTSTALL
000207: 32,2344           44345                           DLOAD    BDSU
000208: 32,2345           03663                                    TRANSTM                               #  LAUNCH TIME - TRANSFER TIME
000209: 32,2346           03661                                    LNCHTM
000210: 32,2347           25517                           STOVL    TET
000211: 32,2350           03653                                    NEWPOS
000212: 32,2351           01535                           STORE    RCV
000213: 32,2352           25503                           STOVL    RRECT
000214: 32,2353           03665                                    NCSMVEL
000215: 32,2354           35511                           STCALL   VRECT
000216: 32,2355           23455                                    MINIRECT
000217: 32,2356           45174                           AXT,2    CALL
000218: 32,2357           00002                                    2
000219: 32,2360           26661                                    ATOPCSM
000220: 32,2361           77624                           CALL
000221: 32,2362           27423                                    INTWAKE0
000222: 32,2363           77776                           EXIT
000223: 32,2364           04616                           TC       BANKCALL
000224: 32,2365           50040                           CADR     PROG20A
000225:
000226: 24,2036                                           BANK     24
000227: 24,2000                                           SETLOC   P20S
000228: 24,2000                                           BANK
000229: 24,2036                                           COUNT*   $$/P20
000230:
000231: 24,2036           05516                           TC       DOWNFLAG                              #  RESET VEHUPFLG - LM STATE VECTOR
000232: 24,2037           00026                           ADRES    VEHUPFLG                              #  TO BE UPDATED
000233: 24,2040           04616        PROG20A            TC       BANKCALL
000234: 24,2041           11254                           CADR     R02BOTH
000235: 24,2042           05504                           TC       UPFLAG
000236: 24,2043           00027                           ADRES    UPDATFLG                              #  SET UPDATE FLAG
000237: 24,2044           05504                           TC       UPFLAG
000238: 24,2045           00031                           ADRES    TRACKFLG                              #  SET TRACK FLAG
000239: 24,2046           05504                           TC       UPFLAG
000240: 24,2047           00010                           ADRES    RNDVZFLG                              #  SET RENDEZVOUS FLAG
000241: 24,2050           05516                           TC       DOWNFLAG
000242: 24,2051           00037                           ADRES    SRCHOPTN                              #  INSURE SEARCH OPTION OFF


000244: 24,2052           05516                           TC       DOWNFLAG                              #  ALSO MANUAL ACQUISITION FLAG RESET
000245: 24,2053           00040                           ADRES    ACMODFLG
000246: 24,2054           05516                           TC       DOWNFLAG                              #  TURN OFF R04FLAG TO ENSURE GETTING
000247: 24,2055           00063                           ADRES    R04FLAG                               #  ALARM 521 IF CANT READ RADAR
000248: 24,2056           05516                           TC       DOWNFLAG                              #  ENSURE R25 GIMBAL MONITOR IS ENABLED
000249: 24,2057           00126                           ADRES    NORRMON                               #  (RESET NORRMON FLAG)
000250: 24,2060           05516                           TC       DOWNFLAG                              #  RESET LOS BEING COMPUTED FLAG
000251: 24,2061           00041                           ADRES    LOSCMFLG
000252: 24,2062           06011                           TC       CLRADMOD
000253: 24,2063           05353        P20LEM1            TC       PHASCHNG
000254: 24,2064           04022                           OCT      04022
000255: 24,2065           34755                           CAF      ZERO                                  #  ZERO MARK COUNTER
000256: 24,2066           55462                           TS       MARKCTR
000257: 24,2067           06037                           TC       INTPRET                               #  LOS DETERMINATION ROUTINE
000258: 24,2070           77634                           RTB
000259: 24,2071           21573                                    LOADTIME
000260: 24,2072           34041                           STCALL   TDEC1
000261: 24,2073           51255                                    LPS20.1
000262: 24,2074           77624                           CALL
000263: 24,2075           53565                                    LPS20.2                               #  TEST RANGE R/UTINE
000264: 24,2076           77776                           EXIT
000265: 24,2077           50154                           INDEX    MPAC
000266: 24,2100           02101                           TC       +1
000267: 24,2101           02111                           TC       P20LEMA                               #  NORMAL RETURN WITHIN 400 N M
000268: 24,2102           32305        526ALARM           CAF      ALRM526                               #  ERROR EXIT - RANGE > 400 N. MI.
000269: 24,2103           04616                           TC       BANKCALL
000270: 24,2104           21562                           CADR     PRIOLARM
000271: 24,2105           06022                           TC       GOTOV56                               #  TERMINATE EXITS P20 VIA V56 CODING
000272: 24,2106           02102                           TC       -4                                    #  PROC (ILLEGAL
000273: 24,2107           02063                           TC       P20LEM1                               #  ENTER RECYCLE
000274: 24,2110           05155                           TC       ENDOFJOB
000275:
000276: 24,2111           05353        P20LEMA            TC       PHASCHNG
000277: 24,2112           04022                           OCT      04022
000278: 24,2113           02667                           TC       LUNSFCHK                              #  CHECK LUNAR SURFACE FLAG (P22 FLAG)
000279: 24,2114           02117                           TC       P20LEMB
000280: 24,2115           04616                           TC       BANKCALL
000281: 24,2116           46116                           CADR     R61LEM                                #  PREFERRED TRACKING ATTITUDE ROUTINE
000282: 24,2117           05353        P20LEMB            TC       PHASCHNG
000283: 24,2120           05022                           OCT      05022                                 #  RESTART AT PRIORITY 10 TO ALLOW V37
000284: 24,2121           10000                           OCT      10000                                 #  REQUESTED PROGRAM TO RUN FIRST
000285: 24,2122           37714                           CAF      PRIO26                                #  RESTORE PRIORITY 26
000286: 24,2123           05146                           TC       PRIOCHNG
000287: 24,2124           30075                           CA       FLAGWRD1                              #  IS THE TRACK FLAG SET
000288: 24,2125           74747                           MASK     TRACKBIT
000289: 24,2126           00006                           EXTEND
000290: 24,2127           12232                           BZF      P20LEMWT                              #  BRANCH - NO - WAIT FOR IT TO BE SET
000291: 24,2130           34752        P20LEMB7           CAF      BIT2                                  #  IS RR AUTO MODE DISCRETE PRESENT
000292: 24,2131           00006                           EXTEND


000294: 24,2132           02033                           RAND     CHAN33
000295: 24,2133           00006                           EXTEND
000296: 24,2134           12170                           BZF      P20LEMB3                              #  YES - DO AUTOMATIC ACQUISITION (R21)
000297:
000298: 24,2135           46007        P20LEMB5           CS       OCT24                                 #  RADAR NOT IN AUTO CHECK IF
000299: 24,2136           61011                           AD       MODREG                                #  MAJOR MODE IS 20
000300: 24,2137           00006                           EXTEND
000301: 24,2140           12153                           BZF      P20LEMB6                              #  BRANCH - YES - OK TO DO PLEASE PERFORM
000302:
000303: 24,2141           67746                           AD       NEG2                                  #  ALSO CHECK FOR P22
000304: 24,2142           00006                           EXTEND
000305: 24,2143           12153                           BZF      P20LEMB6                              #  BRANCH - YES OK TO DO PLEASE PERFORM
000306: 24,2144           32307                           CAF      ALRM514                               #  TRACK FLAG SET - FLASH PRIORITY ALARM 514 -
000307: 24,2145           04616                           TC       BANKCALL                              #  RADAR GOES OUT OF AUTO MODE WHILE IN USE
000308: 24,2146           21562                           CADR     PRIOLARM
000309: 24,2147           06022                           TC       GOTOV56                               #  TERMINATE EXITS VIA V56
000310: 24,2150           02117                           TC       P20LEMB                               #  PROCEED AND ENTER BOTH GO BACK
000311: 24,2151           02117                           TC       P20LEMB                               #  TO CHECK AUTO MODE AGAIN
000312: 24,2152           05155                           TC       ENDOFJOB
000313: 24,2153           32306        P20LEMB6           CAF      OCT201                                #  REQUEST RR AUTO MODE SELECTION
000314: 24,2154           04616                           TC       BANKCALL
000315: 24,2155           20623                           CADR     GOPERF1
000316: 24,2156           06022                           TC       GOTOV56                               #  TERMINATE EXITS P20 VIA V56 CODING
000317: 24,2157           02117                           TC       P20LEMB                               #  PROCEED CHECKS AUTO MODE DISCRETE AGAIN
000318: 24,2160           02667                           TC       LUNSFCHK                              #  ENTER INDICATES MANUAL ACQUISITION (R23)
000319: 24,2161           02166                           TC       P20LEMB2                              #  YES - R23 NOT ALLOWED - TURN ON OPR ERROR
000320: 24,2162           03135                           TC       R23LEM                                #  NO - DO MANUAL ACQUISITION
000321:
000322: 24,2163           05504        P20LEMB1           TC       UPFLAG                                #  RETURN FROM R23 - LOCKON ACHIEVED
000323: 24,2164           00040                           ADRES    ACMODFLG                              #  SET MANUAL FLAG AND GO BACK TO CHECK
000324: 24,2165           02117                           TC       P20LEMB                               #  RR AUTO MODE
000325:
000326: 24,2166           04364        P20LEMB2           TC       FALTON                                #  TURNS ON OPERATOR ERROR LIGHT ON DSKY
000327: 24,2167           02117                           TC       P20LEMB                               #  AND GOES BACK TO CHECK AUTO MODE
000328:
000329: 24,2170           40110        P20LEMB3           CS       RADMODES                              #  ARE RR CDUS BEING ZEROED
000330: 24,2171           74737                           MASK     RCDU0BIT
000331: 24,2172           00006                           EXTEND
000332: 24,2173           12205                           BZF      P20LEMB4                              #  BRANCH - YES - WAIT
000333: 24,2174           34355                           CAF      BIT13-14                              #  IS SEARCH OR MANUAL ACQUISITION FLAG SET
000334: 24,2175           70076                           MASK     FLAGWRD2
000335: 24,2176           00006                           EXTEND
000336: 24,2177           12211                           BZF      P20LEMC3                              #  ZERO MEANS AUTOMATIC RR ACQUISTION
000337: 24,2200           05516                           TC       DOWNFLAG                              #  RESET TO AUTO MODE
000338: 24,2201           00037                           ADRES    SRCHOPTN


000340: 24,2202           05516                           TC       DOWNFLAG
000341: 24,2203           00040                           ADRES    ACMODFLG
000342: 24,2204           02232                           TC       P20LEMWT                              #  WAIT 2.5 SECONDS THEN GO TO RR DATA READ
000343:
000344: 24,2205           32304        P20LEMB4           CAF      250DEC
000345: 24,2206           04616                           TC       BANKCALL                              #  WAIT 2.5 SECONDS WHILE RR CDUS ARE BEING
000346: 24,2207           01735                           CADR     DELAYJOB                              #  ZEROED - THEN GO BACK AND CHECK AGAIN
000347: 24,2210           02170                           TC       P20LEMB3
000348:
000349: 24,2211           06037        P20LEMC3           TC       INTPRET
000350: 24,2212           77634                           RTB
000351: 24,2213           21573                                    LOADTIME
000352: 24,2214           34041                           STCALL   TDEC1
000353: 24,2215           50316                                    UPPSV
000354: 24,2216           77776        P20LEMC4           EXIT
000355: 24,2217           05353        P20LEMC            TC       PHASCHNG
000356: 24,2220           04022                           OCT      04022
000357: 24,2221           30074                           CAE      FLAGWRD0                              #  IS THE RENDEZVOUS FLAG SET
000358: 24,2222           74745                           MASK     RNDVZBIT
000359: 24,2223           00006                           EXTEND
000360: 24,2224           15155                           BZF      ENDOFJOB                              #  NO - EXIT P20
000361: 24,2225           30075                           CAE      FLAGWRD1                              #  IS TRACK FLAG SET (BIT 5 FLAGWORD 1)
000362: 24,2226           74747                           MASK     TRACKBIT
000363: 24,2227           00006                           EXTEND
000364: 24,2230           12264                           BZF      P20LEMD                               #  BRANCH - TRACK FLAG NOT ON - WAIT 15 SECONDS
000365: 24,2231           02674        P20LEMF            TC       R21LEM
000366:
000367: 24,2232           32304        P20LEMWT           CAF      250DEC
000368: 24,2233           05173                           TC       TWIDDLE                               #  USE INSTEAD OF WAITLIST SINCE SAME BANK
000369: 24,2234           02244                           ADRES    P20LEMC1                              #  WAIT 2.5 SECONDS
000370: 24,2235           30075                           CAE      FLAGWRD1                              #  IS TRACK FLAG SET
000371: 24,2236           74747                           MASK     TRACKBIT
000372: 24,2237           00006                           EXTEND
000373: 24,2240           15155                           BZF      ENDOFJOB                              #  NO - EXIT WITHOUT DOING 2.7 PHASE CHANGE
000374: 24,2241           05353        P20LMWT1           TC       PHASCHNG
000375: 24,2242           40072                           OCT      40072
000376: 24,2243           05155                           TC       ENDOFJOB
000377:
000378: 24,2244           30074        P20LEMC1           CAE      FLAGWRD0                              #  IS RENDEZVOUS FLAG SET
000379: 24,2245           74745                           MASK     RNDVZBIT
000380: 24,2246           00006                           EXTEND
000381: 24,2247           15261                           BZF      TASKOVER                              #  NO - EXIT P20/R22
000382: 24,2250           30075                           CAE      FLAGWRD1                              #  IS TRACK FLAG SET
000383: 24,2251           74747                           MASK     TRACKBIT
000384: 24,2252           00006                           EXTEND
000385: 24,2253           12261                           BZF      P20LEMC2                              #  NO - DONT SCHEDULE R22 JOB


000387: 24,2254           37714                           CAF      PRIO26                                #  YES - SCHEDULE R22 JOB (RR DATA READ)
000388: 24,2255           05105                           TC       FINDVAC
000389: 24,2256  E7,1456                                  EBANK=   LOSCOUNT
000390: 24,2256           02627 50067                     2CADR    R22LEM42
000391:
000392: 24,2260           05261                           TC       TASKOVER
000393:
000394: 24,2261           05221        P20LEMC2           TC       FIXDELAY                              #  TRACK FLAG NOT SET, WAIT 15 SECONDS
000395: 24,2262           02734                           DEC      1500       B-14                       #  AND CHECK AGAIN
000396:
000397: 24,2263           02244                           TC       P20LEMC1
000398:
000399: 24,2264           32666        P20LEMD            CAF      1500DEC
000400: 24,2265           05173                           TC       TWIDDLE                               #  WAITLIST FOR 15 SECONDS
000401: 24,2266           02270                           ADRES    P20LEMD1
000402: 24,2267           05155                           TC       ENDOFJOB
000403:
000404: 24,2270           30075        P20LEMD1           CAE      FLAGWRD1                              #  IS TRACK FLAG SET
000405: 24,2271           74747                           MASK     TRACKBIT
000406: 24,2272           10000                           CCS      A
000407: 24,2273           12277                           TCF      P20LEMD2                              #  YES - SCHEDULE DESIGNATE JOB
000408: 24,2274           05221                           TC       FIXDELAY                              #  NO - WAIT 15 SECONDS
000409: 24,2275           02734                           DEC      1500       B-14
000410: 24,2276           02270                           TC       P20LEMD1
000411:
000412: 24,2277           37714        P20LEMD2           CAF      PRIO26                                #  SCHEDULE JOB TO DO R21
000413: 24,2300           05105                           TC       FINDVAC
000414: 24,2301  E7,1456                                  EBANK=   LOSCOUNT
000415: 24,2301           02211 50067                     2CADR    P20LEMC3                              #  START AT PERM.  MEMORY INTEGRATION
000416:
000417: 24,2303           05261                           TC       TASKOVER
000418:
000419: 24,2304           00372        250DEC             DEC      250        B-14
000420: 24,2305           00526        ALRM526            OCT      00526
000421: 24,2306           00201        OCT201             OCT      00201
000422: 24,2307           00514        ALRM514            OCT      514
000423: 24,2310           00074        MAXTRIES           DEC      60         B-14
000424: 24,2311           00012        OCT00012           OCT      00012
000425: 24,2312           00001        P22ONE             OCT      00001
000426: 24,2313           10000 00000  ONEB-2             2DEC     1.0        B-2
000427:
000428: 24,2315           01441        V06N33*            VN       0633
000429: 24,2316           45020        UPPSV              STQ      CALL                                  #  UPDATES PERMANENT STATE VECTORS
000430: 24,2317           01757                                    LS21X                                 #        TO PRESENT TIME
000431: 24,2320           27414                                    INTSTALL
000432: 24,2321           77624                           CALL


000434: 24,2322           26644                                    SETIFLGS
000435: 24,2323           43014                           BOF      SET                                   #  IF W-MATRIX INVALID, DONT INTEGRATE IT
000436: 24,2324           02756                                    RENDWFLG
000437: 24,2325           50336                                    UPPSV1
000438: 24,2326           01476                                    DIM0FLAG                              #  SET DIMOFLAG TO INTEGRATE W-MATRIX
000439: 24,2327           43014                           BON      SET
000440: 24,2330           04307                                    SURFFLAG                              #  IF ON LUNAR SURFACE W IS 6X6
000441: 24,2331           50333                                    UPPSV5
000442: 24,2332           01475                                    D6OR9FLG                              #  OTHERWISE 9X9
000443: 24,2333           77614        UPPSV5             BOF
000444: 24,2334           00747                                    VEHUPFLG
000445: 24,2335           50370                                    UPPSV3
000446: 24,2336           77614        UPPSV1             SET
000447: 24,2337           01474                                    VINTFLAG
000448: 24,2340           77624                           CALL
000449: 24,2341           27134                                    INTEGRV
000450: 24,2342           77624                           CALL                                           #  GROUP 2 PHASE CHANGE
000451: 24,2343           11244                                    GRP2PC                                #  TO PROTECT INTEGRATION
000452: 24,2344           77624                           CALL
000453: 24,2345           27414                                    INTSTALL
000454: 24,2346           43145                           DLOAD    CLEAR                                 #  GET TETCSM TO STORE IN TDEC FOR LM INT.
000455: 24,2347           01571                                    TETCSM
000456: 24,2350           01674                                    VINTFLAG
000457: 24,2351           77624        UPPSV4             CALL                                           #  INTEGRATE OTHER VEHICLE
000458: 24,2352           26644                                    SETIFLGS                              #        WITHOUT W-MATRIX
000459: 24,2353           34041                           STCALL   TDEC1
000460: 24,2354           27134                                    INTEGRV
000461: 24,2355           77214                           BOFF     VLOAD
000462: 24,2356           04347                                    SURFFLAG
000463: 24,2357           50216                                    P20LEMC4
000464: 24,2360           01661                                    RCVLEM
000465: 24,2361           77742                           VSR2
000466: 24,2362           26352                           STOVL    LMPOS
000467: 24,2363           01667                                    VCVLEM
000468: 24,2364           77742                           VSR2
000469: 24,2365           02360                           STORE    LMVEL
000470: 24,2366           77650                           GOTO
000471: 24,2367           01757                                    LS21X
000472:
000473: 24,2370           45014        UPPSV3             CLEAR    CALL
000474: 24,2371           01674                                    VINTFLAG
000475: 24,2372           27134                                    INTEGRV
000476: 24,2373           77624                           CALL
000477: 24,2374           11244                                    GRP2PC
000478: 24,2375           77624                           CALL
000479: 24,2376           27414                                    INTSTALL
000480: 24,2377           71214                           SET      DLOAD
000481: 24,2400           01474                                    VINTFLAG
000482: 24,2401           01643                                    TETLEM                                #  GET TETLEM TO STORE IN TDEC FOR CSM INT.


000484: 24,2402           77650                           GOTO
000485: 24,2403           50351                                    UPPSV4
000486: 24,2404  E7,1456                                  EBANK=   LOSCOUNT
000487: 24,2404                                           COUNT*   $$/P22
000488:


000490:                                                                                                  #  PROGRAM DESCRIPTION
000491:
000492:                                                                                                  #        PREFERRED TRACKING ATTITUDE PROGRAM P25
000493:                                                                                                  #        MOD NO - 3
000494:                                                                                                  #        BY P. VOLANTE
000495:
000496:                                                                                                  #  FUNCTIONAL DESCRIPTION
000497:
000498:                                                                                                  #        THE PURPOSE OF THIS PROGRAM IS TO COMPUTE THE PREFERRED TRACKING
000499:                                                                                                  #        ATTITUDE OF THE LM TO CONTINUOUSLY POINT THE LM TRACKING BEACON AT THE
000500:                                                                                                  #        CSM AND TO PERFORM THE MANEUVER TO THE PREFERRED TRACKING ATTITUDE AND
000501:                                                                                                  #        CONTINUOUSLY MAINTAIN THIS ATTITUDE WITHIN PRESCRIBED LIMITS
000502:
000503:                                                                                                  #  CALLING SEQUENCE -
000504:
000505:                                                                                                  #        ASTRONAUT REQUEST THROUGH DSKY V37E25E
000506:
000507:                                                                                                  #  SUBROUTINES CALLED -
000508:
000509:                                                                                                  #        BANKCALL                                        FLAGUP
000510:                                                                                                  #        R02BOTH (IMU STATUS CHECK)                      ENDOFJOB
000511:                                                                                                  #        R61LEM  (PREF TRK ATT ROUT)                     WAITLIST
000512:                                                                                                  #        TASKOVER                                        FINDVAC
000513:
000514:                                                                                                  #  NORMAL EXIT MODES -
000515:
000516:                                                                                                  #        P25 MAY BE TERMINATED IN TWO WAYS - ASTRONAUT SELECTION OF IDLING
000517:                                                                                                  #        PROGRAM (P00) BY KEYING V37E00E OR BY KEYING IN V56E
000518:
000519:                                                                                                  #  ALARM OR ABORT EXIT MODES -
000520:
000521:                                                                                                  #        NONE
000522:
000523:                                                                                                  #  OUTPUT
000524:
000525:                                                                                                  #  ERASABLE INITIALIZATION REQUIRED
000526:
000527:                                                                                                  #  FLAGS SET + RESET
000528:
000529:                                                                                                  #        TRACKFLG, P25FLAG
000530:
000531:                                                                                                  #  DEBRIS
000532:
000533:                                                                                                  #        NONE
000534:
000535: 24,2404  E7,1456                                  EBANK=   LOSCOUNT
000536: 24,2404                                           COUNT*   $$/P25
000537: 24,2404           05327        PROG25             TC       2PHSCHNG
000538: 24,2405           00004                           OCT      4                                     #  MAKE GROUP 4 INACTIVE (VERB 37)
000539: 24,2406           05022                           OCT      05022
000540: 24,2407           26000                           OCT      26000                                 #  PRIORITY 26
000541:
000542: 24,2410           04616                           TC       BANKCALL
000543: 24,2411           11254                           CADR     R02BOTH                               #  IMU STATUS CHECK
000544: 24,2412           05504                           TC       UPFLAG
000545: 24,2413           00031                           ADRES    TRACKFLG                              #  SET TRACK FLAG
000546: 24,2414           05504                           TC       UPFLAG
000547: 24,2415           00006                           ADRES    P25FLAG                               #  SET P25FLAG
000548: 24,2416           05353        P25LEM1            TC       PHASCHNG
000549: 24,2417           04022                           OCT      04022
000550: 24,2420           34743                           CAF      P25FLBIT
000551: 24,2421           70074                           MASK     STATE                                 #  IS P25FLAG SET
000552: 24,2422           00006                           EXTEND
000553: 24,2423           15155                           BZF      ENDOFJOB
000554: 24,2424           34747                           CAF      TRACKBIT                              #  IS TRACKFLAG SET?
000555: 24,2425           70075                           MASK     STATE      +1
000556: 24,2426           00006                           EXTEND


000558: 24,2427           12437                           BZF      P25LMWT1                              #  NO - SKIP PHASE CHANGE AND WAIT 1 MINUTE
000559: 24,2430           34757                           CAF      SEVEN                                 #  CALL R65 - FINE PREFERRED
000560: 24,2431           55745                           TS       R65CNTR
000561: 24,2432           04616                           TC       BANKCALL                              #  TRACKING ATTITUDE ROUTINE
000562: 24,2433           46123                           CADR     R65LEM
000563: 24,2434           02416                           TC       P25LEM1                               #  THEN GO CHECK FLAGS
000564: 24,2435           05353        P25LEMWT           TC       PHASCHNG
000565: 24,2436           00112                           OCT      00112
000566: 24,2437           32450        P25LMWT1           CAF      60SCNDS
000567: 24,2440           05173                           TC       TWIDDLE                               #  WAIT ONE MINUTE THEN CHECK AGAIN
000568: 24,2441           02443                           ADRES    P25LEM2
000569: 24,2442           05155                           TC       ENDOFJOB
000570: 24,2443           35024        P25LEM2            CAF      PRIO14
000571: 24,2444           05105                           TC       FINDVAC
000572: 24,2445  E7,1456                                  EBANK=   LOSCOUNT
000573: 24,2445           02416 50067                     2CADR    P25LEM1
000574:
000575: 24,2447           05261                           TC       TASKOVER
000576: 24,2450           13560        60SCNDS            DEC      6000       B-14
000577:


000579:                                                                                                  #  DATA READ ROUTINE 22 (LEM)
000580:                                                                                                  #  PROGRAM DESCRIPTION
000581:
000582:                                                                                                  #        MOD NO - 2
000583:                                                                                                  #        BY P VOLANTE
000584:
000585:                                                                                                  #  FUNCTIONAL DESCRIPTION
000586:
000587:                                                                                                  #        TO PROCESS AUTOMATIC RR MARK DATA TO UPDATE THE STATE VECTOR OF EITHER
000588:                                                                                                  #        LM OR CSM AS DEFINED IN THE RENDEZVOUS NAVIGATION PROGRAM (P20)
000589:
000590:                                                                                                  #  CALLING SEQUENCE -
000591:
000592:                                                                                                  #        TC      BANKCALL
000593:                                                                                                  #        CADR    R22LEM
000594:
000595:                                                                                                  #  SUBROUTINES CALLED -
000596:
000597:                                                                                                  #        LSR22.1         GOFLASH         WAITLIST
000598:                                                                                                  #        LSR22.2         PRIOLARM        BANKCALL
000599:                                                                                                  #        LSR22.3         R61LEM
000600:
000601:                                                                                                  #  NORMAL EXIT MODES -
000602:
000603:                                                                                                  #        R22 WILL CONTINUE TO RECYCLE, UPDATING STATE VECTORS WITH RADAR DATA
000604:                                                                                                  #        UNTIL P20 CEASES TO OPERATE (RENDEZVOUS FLAG SET TO ZERO) AT WHICH TIME
000605:                                                                                                  #        R22 WILL TERMINATE SELF.
000606:
000607:                                                                                                  #  ALARM OR ABORT EXIT MODES -
000608:
000609:                                                                                                  #        PRIORITY ALARM
000610:                                                                                                  #        PRIORITY ALARM 525 LOS NOT WITHIN 3 DEGREE LIMIT
000611:
000612:                                                                                                  #  OUTPUT
000613:
000614:                                                                                                  #        SEE OUTPUT FROM LSR22.3
000615:
000616:                                                                                                  #  ERASABLE INITIALIZATION REQUIRED
000617:
000618:                                                                                                  #        SEE LSR22.1, LSR22.2, LSR22.3
000619:
000620:                                                                                                  #  FLAGS SET + RESET
000621:
000622:                                                                                                  #        NOANGFLG
000623:
000624:                                                                                                  #  DEBRIS
000625:
000626:                                                                                                  #        SEE LSR22.1, LSR22.2, LSR22.3
000627:
000628: 24,2451  E7,1737                                  EBANK=   LRS22.1X
000629: 24,2451                                           COUNT*   $$/R22
000630: 24,2451           05353        R22LEM             TC       PHASCHNG
000631: 24,2452           04022                           OCT      04022
000632: 24,2453           34745                           CAF      RNDVZBIT                              #  IS RENDESVOUS FLAG SET?
000633: 24,2454           70074                           MASK     STATE
000634: 24,2455           00006                           EXTEND
000635: 24,2456           15155                           BZF      ENDOFJOB                              #  NO - EXIT R22 AND P20
000636: 24,2457           34747                           CAF      TRACKBIT                              #  IS TRACKFLAG SET?
000637: 24,2460           70075                           MASK     STATE      +1
000638: 24,2461           00006                           EXTEND
000639: 24,2462           12636                           BZF      R22WAIT                               #  NO WAIT
000640: 24,2463           34736        R22LEM12           CAF      BIT14                                 #  IS RR AUTO TRACK ENABLE DISCRETE STILL
000641: 24,2464           00006                           EXTEND                                         #  ON (A MONITOR REPOSITION BY R25 CLEARSIT
000642: 24,2465           02012                           RAND     CHAN12
000643: 24,2466           00006                           EXTEND
000644: 24,2467           12111                           BZF      P20LEMA                               #  NO - RETURN TO P20
000645: 24,2470           34752                           CAF      BIT2                                  #  YES
000646: 24,2471           00006                           EXTEND                                         #  IS RR AUTO MODE DISCRETE PRESENT
000647: 24,2472           02033                           RAND     CHAN33


000649: 24,2473           00006                           EXTEND
000650: 24,2474           12476                           BZF      +2                                    #  YES CONTINUE
000651: 24,2475           02135                           TC       P20LEMB5                              #  NO - SET IT
000652: 24,2476           40110                           CS       RADMODES                              #  ARE RR CDUS BEING ZEROED
000653: 24,2477           74737                           MASK     RCDU0BIT
000654: 24,2500           00006                           EXTEND
000655: 24,2501           12627                           BZF      R22LEM42                              #  CDUS BEING ZEROED
000656: 24,2502           05353                           TC       PHASCHNG                              #  IF A RESTART OCCURS, AN EXTRA RADAR
000657: 24,2503           00152                           OCT      00152                                 #  READING IS TAKEN, SO BAD DATA ISN'T USED
000658: 24,2504           04616                           TC       BANKCALL                              #  YES READ DATA + CALCULATE LOS
000659: 24,2505           64366                           CADR     LRS22.1                               #  DATA READ SUBROUTINE
000660: 24,2506           50154                           INDEX    MPAC
000661: 24,2507           02510                           TC       +1
000662: 24,2510           02531                           TC       R22LEM2                               #  NORMAL RETURN (GOOD DATA)
000663: 24,2511           02217                           TC       P20LEMC                               #  COULD NOT READ RADAR - TRY TO REDESIGNATE
000664: 24,2512           32663                           CAF      ALRM525                               #  RR LOS NOT WITHIN 3 DEGREES (ALARM)
000665: 24,2513           04616                           TC       BANKCALL
000666: 24,2514           21562                           CADR     PRIOLARM
000667: 24,2515           06022                           TC       GOTOV56                               #  TERMINATE EXITS P20 VIA V56 CODING
000668: 24,2516           02521                           TC       R22LEM1                               #  PROC (DISPLAY DELTA THETA)
000669: 24,2517           02512                           TC       -5                                    #  ENTER (ILLEGAL OPTION)
000670: 24,2520           05155                           TC       ENDOFJOB
000671:
000672: 24,2521           05353        R22LEM1            TC       PHASCHNG
000673: 24,2522           04022                           OCT      04022
000674: 24,2523           32664                           CAF      V06N05                                #  DISPLAY DELTA THETA
000675: 24,2524           04616                           TC       BANKCALL
000676: 24,2525           20507                           CADR     PRIODSP
000677: 24,2526           06022                           TC       GOTOV56                               #  TERMINATE EXITS P20 VIA V56 CODING
000678: 24,2527           02531                           TC       R22LEM2                               #  PROC (OK CONTINUE)
000679: 24,2530           02217                           TC       P20LEMC                               #  ENTER (RECYCLE)
000680: 24,2531           05353        R22LEM2            TC       PHASCHNG
000681: 24,2532           04022                           OCT      04022
000682: 24,2533           02667                           TC       LUNSFCHK                              #  CHECK IF ON LUNAR SURFACE (P22FLAG SET)
000683: 24,2534           02551                           TC       R22LEM3                               #  YES - BYPASS FLAG CHECKS AND LRS22.2
000684: 24,2535           30075                           CA       FLAGWRD1                              #  IS TRACK FLAG SET
000685: 24,2536           74747                           MASK     TRACKBIT
000686: 24,2537           00006                           EXTEND
000687: 24,2540           12636                           BZF      R22WAIT                               #  NO - WAIT
000688: 24,2541           04616                           TC       BANKCALL                              #  YES
000689: 24,2542           51333                           CADR     LRS22.2                               #  CHECKS RR BORESIGHT WITHIN 30 DEG OF +Z
000690: 24,2543           50154                           INDEX    MPAC
000691: 24,2544           02545                           TC       +1
000692: 24,2545           02551                           TC       R22LEM3                               #  NORMAL RETURN (LOS WITHIN 30 OF Z-AXIS)
000693: 24,2546           04616                           TC       BANKCALL
000694: 24,2547           46116                           CADR     R61LEM
000695: 24,2550           02636                           TC       R22WAIT                               #  NOT WITHIN 30 DEG OF Z-AXIS
000696: 24,2551           40075        R22LEM3            CS       FLAGWRD1                              #  SHOULD WE BYPASS STATE VECTOR UPDATE
000697: 24,2552           74746                           MASK     NOUPFBIT                              #  (IS NO UPDATE FLAG SET?)


000699: 24,2553           00006                           EXTEND
000700: 24,2554           12627                           BZF      R22LEM42                              #  BRANCH - YES
000701: 24,2555           30075                           CA       FLAGWRD1                              #  IS UPDATE FLAG SET
000702: 24,2556           74745                           MASK     UPDATBIT
000703: 24,2557           00006                           EXTEND
000704: 24,2560           12627                           BZF      R22LEM42                              #  UPDATE FLAG NOT SET
000705: 24,2561           37714                           CAF      PRIO26                                #  INSURE HIGH PRIO IN RESTART
000706: 24,2562           55056                           TS       PHSPRDT2
000707:
000708: 24,2563           06037                           TC       INTPRET
000709: 24,2564           77650                           GOTO
000710: 24,2565           54412                                    LSR22.3
000711: 24,2566           77776        R22LEM93           EXIT                                           #  NORMAL EXIT FROM LSR22.3
000712: 24,2567           05353                           TC       PHASCHNG                              #  PHASE CHANGE TO PROTECT AGAINST
000713: 24,2570           04022                           OCT      04022                                 #  CONFLICT WITH GRP2PC ERASEABLE
000714: 24,2571           12622                           TCF      R22LEM44
000715: 24,2572           77776        R22LEM96           EXIT
000716: 24,2573           34755                           CAF      ZERO                                  #  SET N49FLAG = ZERO TO INDICATE
000717: 24,2574           55746                           TS       N49FLAG                               #  V06 N49 DISPLAY HASNT BEEN ANSWERED
000718: 24,2575           05353                           TC       PHASCHNG
000719: 24,2576           04022                           OCT      04022                                 #  TO PROTECT DISPLAY
000720: 24,2577           37715                           CAF      PRIO27                                #  PROTECT DISPLAY
000721: 24,2600           05072                           TC       NOVAC
000722: 24,2601  E7,1746                                  EBANK=   N49FLAG
000723: 24,2601           02644 50067                     2CADR    N49DSP
000724:
000725: 24,2603           06037                           TC       INTPRET
000726: 24,2604           77735                           SLOAD
000727: 24,2605           03747                                    N49FLAG
000728: 24,2606           50054                           BZE      BMN                                   #  LOOP TO CHECK IF FLAG
000729: 24,2607           50604                                    -3                                    #  SETTING CHANGED - BRANCH - NO
000730: 24,2610           50616                                    R22LEM7                               #  PROCEED
000731: 24,2611           77776                           EXIT                                           #  DISPLAY ANSWERED BY RECYCLE
000732: 24,2612           02667                           TC       LUNSFCHK                              #  ARE WE ON LUNAR SURFACE
000733: 24,2613           02636                           TC       R22WAIT                               #  YES - 15 SECOND DELAY
000734: 24,2614           34755                           CA       ZERO                                  #  NO - SET R65COUNTER = 0, DO FINE
000735: 24,2615           02632                           TC       R22LEM45                              #  TRACKING TAKE ANOTHER RADAR READING
000736: 24,2616           77624        R22LEM7            CALL                                           #  PROCEED
000737: 24,2617           11244                                    GRP2PC                                #  PHASE CHANGE AND
000738: 24,2620           77650                           GOTO                                           #  GO TO INCORPORATE DATA.
000739: 24,2621           55431                                    ASTOK
000740: 24,2622           25462        R22LEM44           INCR     MARKCTR                               #  INCREMENT COUNT OF MARKS INCORPORATED.
000741: 24,2623           02667                           TC       LUNSFCHK                              #  ARE WE ON LUNAR SURFACE
000742: 24,2624           02640                           TC       R22LEM46                              #  YES - WAIT 2 SECONDS
000743: 24,2625           34756                           CA       FIVE                                  #  NOT ON LUNAR SURFACE
000744: 24,2626           02632                           TC       R22LEM45                              #  R65COUNTER = 5
000745: 24,2627           02667        R22LEM42           TC       LUNSFCHK                              #  CHECK IF ON LUNAR SURFACE (P22FLAG SET)
000746: 24,2630           02640                           TC       R22LEM46                              #  YES - WAIT 2 SECONDS
000747: 24,2631           34752                           CA       TWO                                   #  NO - SET R65COUNTER = 2
000748: 24,2632           55745        R22LEM45           TS       R65CNTR


000750: 24,2633           04616                           TC       BANKCALL
000751: 24,2634           46123                           CADR     R65LEM                                #  FINE PREFERRED TRACKING ATTITUDE
000752: 24,2635           02451                           TC       R22LEM
000753: 24,2636           32666        R22WAIT            CAF      1500DEC
000754: 24,2637           02233                           TC       P20LEMWT   +1
000755:
000756: 24,2640           35000        R22LEM46           CAF      2SECS
000757: 24,2641           04616                           TC       BANKCALL                              #  WAIT 2 SECONDS AND TAKE ANOTHER MARK
000758: 24,2642           01735                           CADR     DELAYJOB
000759: 24,2643           02451                           TC       R22LEM
000760:
000761: 24,2644           32665        N49DSP             CAF      V06N49NB
000762: 24,2645           04616                           TC       BANKCALL                              #  EXCESSIVE STATE VECTOR UPDATE - FLASH
000763: 24,2646           20507                           CADR     PRIODSP                               #  VERB 06 NOUN 49 R1=DELTA R, R2=DELTA V
000764: 24,2647           06022                           TC       GOTOV56                               #  TERMINATE - EXIT R22 AND P20
000765: 24,2650           44753                           CS       ONE                                   #  PROCEED - N49FLAG = -1
000766: 24,2651           55746                           TS       N49FLAG                               #  RECYCLE - N49FLAG = + VALUE
000767: 24,2652           05155                           TC       ENDOFJOB
000768: 24,2653           05353        R22RSTRT           TC       PHASCHNG                              #  IF A RESTART OCCURS WHILE READING RADAR
000769: 24,2654           00152                           OCT      00152                                 #  COME HERE TO TAKE A RANGE-RATE READING
000770: 24,2655           04616                           TC       BANKCALL                              #  WHICH ISNT USED TO PREVENT TAKING A BAD
000771: 24,2656           53103                           CADR     RRRDOT                                #  READING AND TRYING TO INCORPORATE THE
000772: 24,2657           04616                           TC       BANKCALL                              #  BAD DATA
000773: 24,2660           17714                           CADR     RADSTALL                              #  WAIT FOR READ COMPLETE
000774: 24,2661           02217                           TC       P20LEMC                               #  COULD NOT READ RADAR - TRY TO REDESIGNATE
000775: 24,2662           02451                           TC       R22LEM                                #  READ SUCCESSFUL - CONTINUE AT R22
000776:
000777: 24,2663           00525        ALRM525            OCT      00525
000778: 24,2664           01405        V06N05             VN       00605
000779: 24,2665           01461        V06N49NB           VN       00649
000780: 24,2666           02734        1500DEC            DEC      1500       B-14
000781:
000782:                                                                                                  #  LUNSFCHK - CLOSED SUBROUTINE TO CHECK IF ON LUNAR SURFACE (P22FLAG)
000783:                                                                                                  #        RETURNS TO CALLER +1 IF P22FLAG SET
000784:                                                                                                  #                TO CALLER +2 IF P22FLAG NOT SET
000785:
000786: 24,2667                                           COUNT*   $$/P22
000787: 24,2667           40104        LUNSFCHK           CS       FLAGWRD8                              #  CHECK IF ON LUNAR SURFACE
000788: 24,2670           74744                           MASK     SURFFBIT                              #  IS SURFFLAG SET?
000789: 24,2671           10000                           CCS      A                                     #  BRANCH - P22FLAG SET
000790: 24,2672           24002                           INCR     Q                                     #  NOT SET
000791: 24,2673           00002                           TC       Q                                     #  RETURN
000792:


000794:                                                                                                  #  RR DESIGNATE ROUTINE (R21LEM)
000795:                                                                                                  #  PROGRAM DESCRIPTION
000796:
000797:                                                                                                  #        MOD NO - 2
000798:                                                                                                  #        BY P VOLANTE
000799:
000800:                                                                                                  #  FUNCTIONAL DESCRIPTION
000801:
000802:                                                                                                  #        TO POINT THE RENDEZVOUS RADAR AT THE CSM UNTIL AUTOMATIC ACQUISITION
000803:                                                                                                  #        OF THE CSM IS ACCOMPLISHED BY THE RADAR.  ROUTINE IS CALLED BY P20.
000804:
000805:                                                                                                  #  CALLING SEQUENCE -
000806:
000807:                                                                                                  #        TC      BANKCALL
000808:                                                                                                  #        CADR    R21LEM
000809:
000810:                                                                                                  #  SUBROUTINES CALLED -
000811:
000812:                                                                                                  #        FINDVAC         FLAGUP          ENDOFJOB        PRIOLARM
000813:                                                                                                  #        NOVAC           INTPRET         LPS20.1         PHASCHNG
000814:                                                                                                  #        WAITLIST        JOBSLEEP        JOBWAKE         FLAGDOWN
000815:                                                                                                  #        TASKOVER        BANKCALL        RADSTALL        RRDESSM
000816:
000817:                                                                                                  #  NORMAL EXIT MODES
000818:                                                                                                  #
000819:                                                                                                  #        WHEN LOCK-ON IS ACHIEVED, BRANCH WILL BE TO P20 WHERE R22 (DATA READ
000820:                                                                                                  #        WILL BE SELECTED OR A NEED FOR A MANEUVER (BRANCH TO P20LEMA)
000821:
000822:                                                                                                  #  ALARM OR ABORT EXIT MODES -
000823:
000824:                                                                                                  #        PRIORITY ALARM 503 WHEN LOCK-ON HASN:T BEEN ACHIEVED AFTER 30SECS -
000825:                                                                                                  #        THIS REQUIRES ASTRONAUT INTERFACE- SELECTION OF SEARCH OPTION OF
000826:                                                                                                  #        ACQUISITION
000827:
000828:                                                                                                  #  OUTPUT
000829:
000830:                                                                                                  #        SEE LPS20.1, RRDESSM
000831:
000832:                                                                                                  #  ERASABLE INITIALIZATION REQUIRED
000833:
000834:                                                                                                  #        RRTARGET, RADMODES ARE USED BY LPS20.1 AND RRDESSM
000835:
000836:                                                                                                  #  FLAGS SET + RESET
000837:
000838:                                                                                                  #        LOSCMFLG        LOKONSW
000839:
000840:                                                                                                  #  DEBRIS
000841:
000842:                                                                                                  #        SEE LPS20.1, RRDESSM
000843:
000844: 24,2674  E7,1456                                  EBANK=   LOSCOUNT
000845: 24,2674                                           COUNT*   $$/R21
000846: 24,2674           44736        R21LEM             CS       BIT14                                 #  REMOVE RR SELF TRACK ENABLE
000847: 24,2675           00006                           EXTEND
000848: 24,2676           03012                           WAND     CHAN12
000849: 24,2677           02667                           TC       LUNSFCHK
000850: 24,2700           02705                           TC       R21LEM5
000851: 24,2701           34755                           CAF      ZERO                                  #  COMMAND ANTENNA TO MODE CENTER
000852: 24,2702           55107                           TS       TANG                                  #  IF NOT ON SURFACE - MODE 1 - (T=0,S=0)
000853: 24,2703           55110                           TS       TANG       +1
000854: 24,2704           02715                           TC       R21LEM6
000855: 24,2705           34740        R21LEM5            CAF      BIT12
000856: 24,2706           70110                           MASK     RADMODES
000857: 24,2707           10000                           CCS      A
000858: 24,2710           02725                           TC       R21LEM10
000859: 24,2711           34735                           CAF      BIT15
000860: 24,2712           55107                           TS       TANG
000861: 24,2713           44736                           CS       HALF
000862: 24,2714           55110                           TS       TANG       +1
000863:


000865: 24,2715           05516        R21LEM6            TC       DOWNFLAG
000866: 24,2716           00012                           ADRES    LOKONSW
000867: 24,2717           04616                           TC       BANKCALL
000868: 24,2720           52475                           CADR     RRDESNB
000869: 24,2721           02722                           TC       +1
000870: 24,2722           04616                           TC       BANKCALL
000871: 24,2723           17714                           CADR     RADSTALL
000872: 24,2724           02760                           TC       R21-503                               #  BAD RETURN FROM DESIGNATE - ISSUE ALARM
000873: 24,2725           05504        R21LEM10           TC       UPFLAG
000874: 24,2726           00041                           ADRES    LOSCMFLG                              #  EVERY FOURTH PASS THRU DODES
000875: 24,2727           32310                           CAF      MAXTRIES                              #  ALLOW 60 PASSES (APPROX 45 SECONDS)
000876: 24,2730           55114                           TS       DESCOUNT                              #  TO DESIGNATE AND LOCK ON
000877: 24,2731           36245        R21LEM2            CAF      THREE
000878: 24,2732           55456                           TS       LOSCOUNT
000879: 24,2733           06037        R21LEM1            TC       INTPRET
000880: 24,2734           43234                           RTB      DAD
000881: 24,2735           21573                                    LOADTIME
000882: 24,2736           11120                                    HALFSEC                               #  EXTRAPOLATE TO PRESENT TIME + .5 SEC.
000883: 24,2737           34041                           STCALL   TDEC1                                 #  LOS DETERMINATION ROUTINE
000884: 24,2740           51255                                    LPS20.1
000885: 24,2741           77776                           EXIT
000886: 24,2742           05504        R21LEM3            TC       UPFLAG                                #  SET LOKONSW TO RADAR - ON DESIRED
000887: 24,2743           00012                           ADRES    LOKONSW
000888: 24,2744           05516                           TC       DOWNFLAG
000889: 24,2745           00126                           ADRES    NORRMON
000890: 24,2746           06037                           TC       INTPRET
000891: 24,2747           77624                           CALL                                           #  INPUT (RRTARGET UPDATED BY LPS20.1)
000892: 24,2750           52373                                    RRDESSM                               #  DESIGNATE ROUTINE
000893: 24,2751           77776                           EXIT
000894: 24,2752           02777                           TC       R21LEM4                               #  LOS NOT IN MODE 2 COVERAGE
000895:                                                                                                  #  ON LUNAR SURFACE
000896: 24,2753           02111                           TC       P20LEMA                               #  VEHICLE MANEUVER REQUIRED.
000897: 24,2754           04616                           TC       BANKCALL                              #  NO VEHICLE MANEUVER REQUIRED
000898: 24,2755           17714                           CADR     RADSTALL                              #  WAIT FOR DESIGNATE COMPLETE - LOCKON OR
000899: 24,2756           02760                           TC       +2                                    #  BAD END - LOCKON NOT ACHIEVED IN 60 TRIES
000900: 24,2757           02767                           TC       R21END                                #  EXIT ROUTINE RETURN TO P20 (LOCK-ON)
000901: 24,2760           32775        R21-503            CAF      ALRM503                               #  ISSUE ALARM 503
000902: 24,2761           04616                           TC       BANKCALL
000903: 24,2762           21562                           CADR     PRIOLARM
000904: 24,2763           06022                           TC       GOTOV56                               #  TERMINATE EXITS P20 VIA V56 CODING
000905: 24,2764           02772                           TC       R21SRCH                               #  PROC
000906: 24,2765           02211                           TC       P20LEMC3
000907: 24,2766           05155                           TC       ENDOFJOB
000908: 24,2767           05516        R21END             TC       DOWNFLAG
000909: 24,2770           00041                           ADRES    LOSCMFLG                              #  RESET LOSCMFLG
000910: 24,2771           03121                           TC       R21DISP                               #  PUT UP VERIFY MAIN LOBE LOCKON DISPLAY
000911: 24,2772           05353        R21SRCH            TC       PHASCHNG
000912: 24,2773           04022                           OCT      04022
000913: 24,2774           03206                           TC       R24LEM                                #  SEARCH ROUTINE
000914: 24,2775           00503        ALRM503            OCT      00503


000916: 24,2776           00527        ALRM527            OCT      527
000917:
000918: 24,2777           32310        R21LEM4            CAF      MAXTRIES                              #  SET UP COUNTER FOR
000919: 24,3000           55423                           TS       REPOSCNT                              #  60 PASSES (APPROX 600 SECS.)
000920: 24,3001           05504                           TC       UPFLAG
000921: 24,3002           00005                           ADRES    FSPASFLG                              #  SET FIRST PASS FLAG
000922: 24,3003           05516                           TC       DOWNFLAG                              #  RESET LOS BEING
000923: 24,3004           00041                           ADRES    LOSCMFLG                              #  COMPUTED FLAG
000924: 24,3005           06037                           TC       INTPRET
000925: 24,3006           77634        R21LEM12           RTB
000926: 24,3007           21573                                    LOADTIME
000927: 24,3010           77615                           DAD
000928: 24,3011           11116                                    TENSEC                                #  TIME T = T + 10 SECS.
000929: 24,3012           03425                           STORE    REPOSTM                               #  SAVE FOR LONGCALL AND UPPSV
000930: 24,3013           34041                           STCALL   TDEC1
000931: 24,3014           51255                                    LPS20.1                               #  COMPUTE LOS AT TIME T
000932: 24,3015           77624                           CALL
000933: 24,3016           52373                                    RRDESSM
000934: 24,3017           77776                           EXIT
000935: 24,3020           03033                           TC       R21LEM13                              #  LOS NOT IN MODE 2 COVERAGE
000936: 24,3021           05155                           TC       ENDOFJOB                              #  VEHICLE MANEUVER REQUIRED
000937: 24,3022           06027                           TC       KILLTASK
000938: 24,3023           52573                           CADR     BEGDES
000939: 24,3024           06037                           TC       INTPRET
000940: 24,3025           77614                           BOF
000941: 24,3026           00345                                    FSPASFLG                              #  FIRST PASS THRU REPOSITION
000942: 24,3027           51043                                    R21LEMB                               #  NO - GO TO CONTINUOUS DESIGNATE
000943: 24,3030           77614                           CLRGO
000944: 24,3031           00225                                    FSPASFLG                              #  YES - RESET FIRST PASS FLAG
000945: 24,3032           51037                                    R21LEM7    +1
000946: 24,3033           11423        R21LEM13           CCS      REPOSCNT                              #  HAVE WE TRIED 60 TIMES?
000947: 24,3034           03036                           TC       R21LEM7                               #  NO - ADD 10 SECS.  RECOMPUTE LOS
000948: 24,3035           03105                           TC       R21LEM11                              #  YES - PUT OUT ALARM 530
000949: 24,3036           55423        R21LEM7            TS       REPOSCNT
000950: 24,3037           06037                           TC       INTPRET
000951: 24,3040           52145                           DLOAD    GOTO
000952: 24,3041           03425                                    REPOSTM
000953: 24,3042           51010                                    R21LEM12   +2
000954: 24,3043           77745        R21LEMB            DLOAD
000955: 24,3044           03425                                    REPOSTM
000956: 24,3045           34041                           STCALL   TDEC1
000957: 24,3046           50316                                    UPPSV
000958: 24,3047           77776                           EXIT
000959: 24,3050           05504                           TC       UPFLAG                                #  SET RADMODES BIT 15 FOR
000960: 24,3051           00264                           ADRES    CDESFLAG                              #  CONTINUOUS DESIGNATION
000961: 24,3052           05516                           TC       DOWNFLAG
000962: 24,3053           00012                           ADRES    LOKONSW
000963: 24,3054           05504                           TC       UPFLAG
000964: 24,3055           00126                           ADRES    NORRMON


000966: 24,3056           04616                           TC       BANKCALL
000967: 24,3057           52475                           CADR     RRDESNB
000968: 24,3060           03061                           TC       +1
000969: 24,3061           06037                           TC       INTPRET
000970: 24,3062           44234                           RTB      BDSU
000971: 24,3063           21573                                    LOADTIME                              #  COMPUTE DELTA TIME
000972: 24,3064           03425                                    REPOSTM                               #  FOR LONGCALL
000973: 24,3065           03427                           STORE    DELTATM
000974: 24,3066           77776                           EXIT
000975: 24,3067           00006                           EXTEND
000976: 24,3070           31427                           DCA      DELTATM
000977: 24,3071           05277                           TC       LONGCALL
000978: 24,3072  E7,1456                                  EBANK=   LOSCOUNT
000979: 24,3072           03075 50067                     2CADR    R21LEM9
000980:
000981: 24,3074           05155                           TC       ENDOFJOB
000982: 24,3075           06027        R21LEM9            TC       KILLTASK
000983: 24,3076           52602                           CADR     STDESIG
000984: 24,3077           06011                           TC       CLRADMOD
000985: 24,3100           37714                           CAF      PRIO26
000986: 24,3101           05105                           TC       FINDVAC
000987: 24,3102  E7,1456                                  EBANK=   LOSCOUNT
000988: 24,3102           02725 50067                     2CADR    R21LEM10
000989:
000990: 24,3104           05261                           TC       TASKOVER
000991: 24,3105           33114        R21LEM11           CAF      ALRM530                               #  ALARM 530 - LOS NOT IN COVERAGE
000992: 24,3106           04616                           TC       BANKCALL                              #  AFTER TRYING TO DESIGNATE FOR
000993: 24,3107           21562                           CADR     PRIOLARM                              #  600 SECS.
000994: 24,3110           06022                           TC       GOTOV56
000995: 24,3111           06022                           TC       GOTOV56
000996: 24,3112           06022                           TC       GOTOV56
000997: 24,3113           05155                           TC       ENDOFJOB
000998: 24,3114           00530        ALRM530            OCT      00530
000999: 24,3115           00000 01750  TENSEC             2DEC     1000       B-28
001000:
001001: 24,3117           00000 00062  HALFSEC            2DEC     50         B-28
001002:
001003: 24,3121           05353        R21DISP            TC       PHASCHNG
001004: 24,3122           04022                           OCT      04022
001005: 24,3123           33134                           CAF      V06N72PV                              #  FLASH V 50 N 72 - PLEASE PERFORM RR
001006: 24,3124           04616                           TC       BANKCALL                              #  MAIN LOBE LOCKON VERIFICATION
001007: 24,3125           20710                           CADR     GOPERF2R
001008: 24,3126           06022                           TC       GOTOV56                               #  TERMINATE EXITS VIA V 56
001009: 24,3127           02232                           TC       P20LEMWT                              #  PROCEED CONTINUES TO R22
001010: 24,3130           03123                           TC       -5                                    #  ENTER ILLEGAL
001011: 24,3131           34745                           CAF      BIT7
001012: 24,3132           05464                           TC       LINUS                                 #  SET BITS TO MAKE THIS A PRIORITY DISPLAY
001013: 24,3133           05155                           TC       ENDOFJOB
001014:


001016: 24,3134           01510        V06N72PV           VN       00672
001017:


001019:                                                                                                  #  MANUAL ACQUISITION ROUTINE R23LEM
001020:                                                                                                  #  PROGRAM DESCRIPTION
001021:
001022:                                                                                                  #        MOD NO - 2
001023:                                                                                                  #        BY P VOLANTE
001024:
001025:                                                                                                  #  FUNCTIONAL DESCRIPTION
001026:
001027:                                                                                                  #        TO ACQUIRE THE CSM BY MANUAL OPERATION OF THE RENDEZVOUS RADAR
001028:
001029:                                                                                                  #  CALLING SEQUENCE -
001030:
001031:                                                                                                  #        TC      R23LEM
001032:
001033:                                                                                                  #  SUBROUTINES CALLED
001034:
001035:                                                                                                  #        BANKCALL        R61LEM
001036:                                                                                                  #        SETMINDB        GOPERF1
001037:
001038:                                                                                                  #  NORMAL EXIT MODES -
001039:
001040:                                                                                                  #        IN RESPONSE TO THE GOPERF1      ,SELECTION OF ENTER WILL RECYCLE R23
001041:                                                                                                  #                                        ,SELECTION OF PROC WILL CONTINUE R23
001042:                                                                                                  #                                        ,SELECTION OF TERM WILL TERMINATE R23 +P20
001043:
001044:                                                                                                  #  ALARM OR ABORT EXIT MODES -
001045:
001046:                                                                                                  #        SEE NORMAL EXIT MODES ABOVE
001047:
001048:                                                                                                  #  OUTPUT
001049:
001050:                                                                                                  #        N.A.
001051:
001052:                                                                                                  #  ERASABLE INITIALIZATION REQUIRED -
001053:
001054:                                                                                                  #        ACMODFLG MUST BE SET TO 1 (MANUAL MODE)
001055:
001056: 24,3135     1143                                  EBANK=   GENRET
001057: 24,3135                                           COUNT*   $$/R23
001058: 24,3135           05504        R23LEM             TC       UPFLAG                                #  SET NO ANGLE MONITOR FLAG
001059: 24,3136           00126                           ADRES    NORRMON
001060: 24,3137           00004                           INHINT
001061: 24,3140           04674                           TC       IBNKCALL                              #  SELECT MINIMUM DEADBAND
001062: 24,3141           40140                           CADR     SETMINDB
001063: 24,3142           00003                           RELINT
001064: 24,3143           34736        R23LEM1            CAF      BIT14                                 #  ENABLE TRACKER
001065: 24,3144           00006                           EXTEND
001066: 24,3145           05012                           WOR      CHAN12
001067: 24,3146           33205                           CAF      OCT205
001068: 24,3147           04616                           TC       BANKCALL
001069: 24,3150           20623                           CADR     GOPERF1
001070: 24,3151           03176                           TC       R23LEM2                               #  TERMINATE
001071: 24,3152           03154                           TC       R23LEM11                              #  PROCEDE
001072: 24,3153           03201                           TC       R23LEM3                               #  ENTER - DO ANOTHER MANUVER
001073: 24,3154           00004        R23LEM11           INHINT
001074: 24,3155           04523                           TC       RRLIMCHK                              #  YES - CHECK IF ANTENNA IS WITHIN LIMITS
001075: 24,3156           00035                           ADRES    CDUT
001076: 24,3157           03166                           TC       OUTOFLIM                              #  NOT WITHIN LIMITS
001077: 24,3160           04674                           TC       IBNKCALL                              #  RESTORE DEADBAND TO
001078: 24,3161           40123                           CADR     RESTORDB                              #  ASTRONAUT SELECTED VALUE
001079: 24,3162           00003                           RELINT
001080: 24,3163           05516                           TC       DOWNFLAG                              #  CLEAR NO ANGLE MONITOR FLAG
001081: 24,3164           00126                           ADRES    NORRMON
001082: 24,3165           02163                           TC       P20LEMB1                              #  RADAR IS LOCKED ON CONTINUE IN P20
001083: 24,3166           00003        OUTOFLIM           RELINT


001085: 24,3167           33204                           CAF      OCT501PV
001086: 24,3170           04616                           TC       BANKCALL                              #  ISSUE ALARM - RR ANTENNA NOT WITHIN
001087: 24,3171           21562                           CADR     PRIOLARM                              #  LIMITS
001088: 24,3172           03176                           TC       R23LEM2                               #  TERMINATE - EXIT R23 TO R00 (GO TO POOH)
001089: 24,3173           03167                           TC       OUTOFLIM   +1                         #  PROCEED ILLEGAL
001090: 24,3174           03201                           TC       R23LEM3                               #  RECYCLE - DO ANOTHER MANUVER
001091: 24,3175           05155                           TC       ENDOFJOB
001092: 24,3176           05516        R23LEM2            TC       DOWNFLAG                              #  CLEAR NO ANGLE MONITOR FLAG
001093: 24,3177           00126                           ADRES    NORRMON
001094: 24,3200           06022                           TC       GOTOV56                               #  AND EXIT VIA V56
001095: 24,3201           04616        R23LEM3            TC       BANKCALL
001096: 24,3202           46116                           CADR     R61LEM
001097: 24,3203           03143                           TC       R23LEM1
001098:
001099: 24,3204           00501        OCT501PV           OCT      501
001100: 24,3205           00205        OCT205             OCT      205
001101:


001103:                                                                                                  #  SEARCH ROUTINE R24LEM
001104:                                                                                                  #  PROGRAM DESCRIPTION
001105:
001106:                                                                                                  #        MOD NO - 2
001107:                                                                                                  #        BY P. VOLANTE
001108:
001109:                                                                                                  #  FUNCTIONAL DESCRIPTION
001110:
001111:                                                                                                  #        TO ACQUIRE THE CSM BY A SEARCH PATTERN WHEN THE RENDEZVOUS RADAR HAS
001112:                                                                                                  #        FAILED TO ACQUIRE THE CSM IN THE AUTOMATIC TRACKING MODE AND TO ALLOW
001113:                                                                                                  #        THE ASTRONAUT TO CONFIRM THAT REACQUISITION HAS NOT BEEN BY SIDELOBE.
001114:
001115:                                                                                                  #  CALLING SEQUENCE
001116:
001117:                                                                                                  #        CAF     PRIONN
001118:                                                                                                  #        TC      FINDVAC
001119:                                                                                                  #        EBANK=  DATAGOOD
001120:                                                                                                  #        2CADR   R24LEM
001121:
001122:                                                                                                  #  SUBROUTINES CALLED
001123:
001124:                                                                                                  #        FLAGUP          FLAGDOWN        BANKCALL
001125:                                                                                                  #        R61LEM          GOFLASHR        FINDVAC
001126:                                                                                                  #        ENDOFJOB        NOVAC           LSR24.1
001127:
001128:                                                                                                  #  NORMAL EXIT MODES -
001129:
001130:                                                                                                  #        ASTRONAUT RESPONSE TO DISPLAY OF OMEGA AND DATAGOOD.  HE CAN EITHER
001131:                                                                                                  #        REJECT BY TERMINATING (SEARCH OPTION AND RESELECTING P20) OR ACCEPT BY
001132:                                                                                                  #        PROCEEDING (EXIT ROUTINE AND RETURN TO AUTO MODE IN P20)
001133:
001134:                                                                                                  #  ALARM OR ABORT EXIT MODES -
001135:
001136:                                                                                                  #        SEE NORMAL EXIT MODES ABOVE
001137:
001138:                                                                                                  #  OUTPUT -
001139:
001140:                                                                                                  #        SEE OUTPUT FROM LSR24.1 + R61LEM
001141:
001142:                                                                                                  #  ERASABLE INITIALIZATION REQUIRED
001143:
001144:                                                                                                  #        SEE INPUT FOR LSR24.1
001145:
001146:                                                                                                  #  FLAGS SET + RESET
001147:
001148:                                                                                                  #        SRCHOPT, ACMODFLG
001149:
001150: 24,3206  E7,1733                                  EBANK=   DATAGOOD
001151: 24,3206                                           COUNT*   $$/R24
001152: 24,3206           05504        R24LEM             TC       UPFLAG
001153: 24,3207           00037                           ADRES    SRCHOPTN                              #  SET SRCHOPT FLAG
001154: 24,3210           05516                           TC       DOWNFLAG                              #  RESET LOS BEING COMPUTED FLAG TO MAKE
001155: 24,3211           00041                           ADRES    LOSCMFLG                              #  SURE DODES DOESN'T GO TO R21
001156: 24,3212           34755        R24LEM1            CAF      ZERO
001157: 24,3213           55733                           TS       DATAGOOD                              #  ZERO OUT DATA INDICATOR
001158: 24,3214           55734                           TS       OMEGAD                                #  ZERO OMEGA DISPLAY REGS
001159: 24,3215           55735                           TS       OMEGAD     +1                         #  ZERO OMEGA DISPLAY REGS
001160: 24,3216           05353        R24LEM2            TC       PHASCHNG
001161: 24,3217           04022                           OCT      04022
001162: 24,3220           33254                           CAF      V16N80
001163: 24,3221           04616                           TC       BANKCALL
001164: 24,3222           20504                           CADR     PRIODSPR
001165: 24,3223           06022                           TC       GOTOV56
001166: 24,3224           03230                           TC       R24END                                #  PROCEED EXIT R24 TO P20LEM1
001167:
001168: 24,3225           03234                           TC       R24LEM3                               #  RECYCLE - CALL R61 TO MANEUVER S/C


001170: 24,3226           04616                           TC       BANKCALL
001171: 24,3227           55442                           CADR     LRS24.1
001172: 24,3230           06027        R24END             TC       KILLTASK
001173: 24,3231           55643                           CADR     CALLDGCH
001174: 24,3232           06011                           TC       CLRADMOD                              #  CLEAR BITS 10 & 15 OF RADMODES.
001175: 24,3233           12063                           TCF      P20LEM1                               #  AND GO TO 400 MI. RANGE CHECK IN P20.
001176:
001177:    6011                                           BLOCK    3
001178:    6000                                           SETLOC   FFTAG6
001179:    6000                                           BANK
001180:    6011                                           COUNT*   $$/R24
001181:
001182:    6011           46021        CLRADMOD           CS       BIT10+15
001183:    6012           00004                           INHINT
001184:    6013           70110                           MASK     RADMODES
001185:    6014           54110                           TS       RADMODES
001186:    6015           44752                           CS       BIT2                                  #  DISABLE RR ERROR COUNTERS
001187:    6016           00006                           EXTEND
001188:    6017           03012                           WAND     CHAN12                                #  USER WILL RELINT
001189:
001190:    6020           00002                           TC       Q
001191:
001192:    6021           41000        BIT10+15           OCT      41000
001193: 24,3234                                           BANK     24
001194: 24,2000                                           SETLOC   P20S
001195: 24,2000                                           BANK
001196: 24,3234                                           COUNT*   $$/R24
001197:
001198: 24,3234           05353        R24LEM3            TC       PHASCHNG
001199: 24,3235           04022                           OCT      04022
001200: 24,3236           06027                           TC       KILLTASK
001201: 24,3237           55643                           CADR     CALLDGCH                              #  KILL WAITLIST FOR NEXT POINT IN PATTERN
001202: 24,3240           06011                           TC       CLRADMOD                              #  CLEAR BITS 10 + 15 OF RADMODES TO KILL
001203: 24,3241           00003                           RELINT                                         #  HALF SECOND DESIGNATE LOOP
001204: 24,3242           34774                           CAF      .5SEC
001205: 24,3243           04616                           TC       BANKCALL                              #  WAIT FOR DESIGNATE LOOP TO DIE
001206: 24,3244           01735                           CADR     DELAYJOB
001207: 24,3245           02667                           TC       LUNSFCHK                              #  CHECK IF ON LUNAR SURFACE
001208: 24,3246           03251                           TC       R24LEM4                               #  YES - DONT DO ATTITUDE MANEUVER
001209: 24,3247           04616                           TC       BANKCALL                              #  CALL R61 TO DO PREFERRED TRACKING
001210: 24,3250           46116                           CADR     R61LEM                                #  ATTITUDE MANEUVER
001211: 24,3251           34755        R24LEM4            CAF      ZERO                                  #  ZERO OUT RADCADR (WHICH WAS SET BY
001212: 24,3252           55306                           TS       RADCADR                               #  ENDRADAR WHEN DESIGNATE STOPPED) SO THAT
001213:                                                                                                  #  RRDESSM WILL RETURN TO CALLER
001214: 24,3253           03216                           TC       R24LEM2                               #  AND GO BACK TO PUT UP V16 N80 DISPLAY
001215:
001216: 24,3254           04120        V16N80             VN       01680
001217:


001219:                                                                                                  #  PREFERRED TRACKING ATTITUDE ROUTINE R61LEM
001220:                                                                                                  #  PROGRAM DESCRIPTION
001221:
001222:                                                                                                  #        MOD NO: 3               DATE: 4-11-67
001223:                                                                                                  #        MOD BY: P VOLANTE   SDC
001224:
001225:                                                                                                  #  FUNCTIONAL DESCRIPTION -
001226:
001227:                                                                                                  #        TO COMPUTE THE PREFERRED TRACKING ATTITUDE OF THE LM TO ENABLE RR
001228:                                                                                                  #        TRACKING OF THE CSM AND TO PERFORM THE MANEUVER TO THE PREFERRED
001229:                                                                                                  #        ATTITUDE.
001230:
001231:                                                                                                  #  CALLING SEQUENCE -
001232:
001233:                                                                                                  #        TC      BANKCALL
001234:                                                                                                  #        CADR    R61LEM
001235:
001236:                                                                                                  #  SUBROUTINES CALLED
001237:
001238:                                                                                                  #        LPS20.1         VECPOINT
001239:                                                                                                  #        KALCMAN3
001240:
001241:                                                                                                  #  NORMAL EXIT MODES -
001242:
001243:                                                                                                  #        NORMAL RETURN IS TO CALLER + 1
001244:
001245:                                                                                                  #  ALARM OR ABORT EXIT MODES -
001246:
001247:                                                                                                  #        TERMINATE P20 + R61 BY BRANCHING TO P20END IF BOTH TRACKFLAG +
001248:                                                                                                  #        RENDEZVOUS FLAG ARE NOT SET.
001249:
001250:                                                                                                  #  OUTPUT -
001251:
001252:                                                                                                  #        SEE OUTPUT FOR LPS20.1 + ATTITUDE MANEUVER ROUTINE (R60)
001253:
001254:                                                                                                  #  ERASABLE INITIALIZATION REQUIRED
001255:
001256:                                                                                                  #        GENRET USED TO SAVE Q FOR RETURN
001257:
001258:                                                                                                  #  FLAGS SET + RESET
001259:
001260:                                                                                                  #        3AXISFLG
001261:
001262:                                                                                                  #  DEBRIS
001263:
001264:                                                                                                  #        SEE SUBROUTINES
001265:
001266: 23,2000                                           SETLOC   R61
001267: 23,2000                                           BANK
001268: 23,2116  E7,1456                                  EBANK=   LOSCOUNT
001269: 23,2116                                           COUNT*   $$/R61
001270: 23,2116           04645        R61LEM             TC       MAKECADR
001271: 23,2117           55143                           TS       GENRET
001272: 23,2120           05504                           TC       UPFLAG                                #  SET R61 FLAG
001273: 23,2121           00024                           ADRES    R61FLAG
001274: 23,2122           02127                           TC       R61C+L01
001275: 23,2123           04645        R65LEM             TC       MAKECADR
001276: 23,2124           55143                           TS       GENRET
001277: 23,2125           05516                           TC       DOWNFLAG                              #  RESET R61 FLAG
001278: 23,2126           00024                           ADRES    R61FLAG
001279: 23,2127           34747        R61C+L01           CAF      TRACKBIT                              #  TRACKFLAG
001280: 23,2130           70075                           MASK     STATE      +1
001281: 23,2131           00006                           EXTEND
001282: 23,2132           12271                           BZF      R65WAIT                               #  NOT SET
001283: 23,2133           06037        R61C+L03           TC       INTPRET
001284: 23,2134           77775                           VLOAD


001286: 23,2135           06514                                    HIUNITZ
001287: 23,2136           03765                           STORE    SCAXIS                                #  TRACK AXIS UNIT VECTOR
001288: 23,2137           43234        R61LEM1            RTB      DAD
001289: 23,2140           21573                                    LOADTIME                              #  EXTRAPOLATE FORWARD TO CENTER
001290: 23,2141           15712                                    3SECONDS                              #  SIX SECOND PERIOD.
001291: 23,2142           34041                           STCALL   TDEC1
001292: 23,2143           51255                                    LPS20.1                               #  LOS DETERMINATION + VEH ATTITUDE
001293: 23,2144           77775                           VLOAD
001294: 23,2145           01102                                    RRTARGET
001295: 23,2146           03773                           STORE    POINTVSM
001296: 23,2147           45034                           RTB      CALL                                  #  GET DESIRED CDU'S FOR VECPNT1
001297: 23,2150           46277                                    READCDUD
001298: 23,2151           56032                                    VECPNT1                               #  COMPUTES FINAL ANGLES FROM PRESENT CDUDS
001299: 23,2152           00322                           STORE    CPHI                                  #  STORE FINAL ANGLES - CPHI, CTHETA, CPSI
001300: 23,2153           77776                           EXIT
001301: 23,2154           05353                           TC       PHASCHNG
001302: 23,2155           04022                           OCT      04022
001303: 23,2156           34747                           CAF      TRACKBIT                              #  IS TRACK FLAG SET
001304: 23,2157           70075                           MASK     FLAGWRD1
001305: 23,2160           00006                           EXTEND
001306: 23,2161           12271                           BZF      R65WAIT
001307: 23,2162           04616                           TC       BANKCALL
001308: 23,2163           54255                           CADR     G+N,AUTO                              #  CHECK FOR AUTO MODE
001309: 23,2164           10000                           CCS      A
001310: 23,2165           02257                           TC       R61C+L04                              #  NOT IN AUTO
001311: 23,2166           06037                           TC       INTPRET
001312: 23,2167           45175                           VLOAD    CALL
001313: 23,2170           01102                                    RRTARGET
001314: 23,2171           47646                                    CDU*SMNB
001315: 23,2172           45345                           DLOAD    DSU                                   #  GET PHI - ARCCOS OF Z-COMPONENT OF LOS
001316: 23,2173           00162                                    MPAC       +5
001317: 23,2174           06275                                    COS15DEG
001318: 23,2175           77440        R61LEM2            BMN      EXIT                                  #  BRANCH - PHI > 15 DEGREES
001319: 23,2176           46213                                    R61C+L05                              #  PHI GRE 10DEG
001320: 23,2177  E6,1635                                  EBANK=   CDUXD
001321: 23,2177           35015                           CAF      EBANK6
001322: 23,2200           54003                           TS       EBANK
001323: 23,2201           00004                           INHINT
001324: 23,2202           00006                           EXTEND
001325: 23,2203           30322                           DCA      CPHI
001326: 23,2204           53636                           DXCH     CDUXD
001327: 23,2205           30323                           CA       CPSI
001328: 23,2206           55637                           TS       CDUZD
001329: 23,2207           00003                           RELINT
001330: 23,2210  E7,1456                                  EBANK=   LOSCOUNT
001331: 23,2210           35016                           CAF      EBANK7
001332: 23,2211           54003                           TS       EBANK
001333: 23,2212           02236                           TC       R61C+L06
001334: 23,2213           77776        R61C+L05           EXIT
001335: 23,2214           00004                           INHINT


001337: 23,2215           04674                           TC       IBNKCALL
001338: 23,2216           40153                           FCADR    ZATTEROR
001339: 23,2217           04674                           TC       IBNKCALL
001340: 23,2220           40140                           FCADR    SETMINDB                              #  REDUCE ATTITUDE ERROR
001341: 23,2221           05516                           TC       DOWNFLAG
001342: 23,2222           00124                           ADRES    3AXISFLG
001343: 23,2223           05504                           TC       UPFLAG
001344: 23,2224           00077                           ADRES    PDSPFLAG                              #  SET PRIORITY DISPLAY FLAG
001345: 23,2225           04616                           TC       BANKCALL
001346: 23,2226           54123                           CADR     R60LEM
001347: 23,2227           00004                           INHINT
001348: 23,2230           04674                           TC       IBNKCALL
001349: 23,2231           40123                           FCADR    RESTORDB
001350: 23,2232           05353                           TC       PHASCHNG
001351: 23,2233           04022                           OCT      04022
001352: 23,2234           05516                           TC       DOWNFLAG
001353: 23,2235           00077                           ADRES    PDSPFLAG                              #  RESET PRIORITY DISPLAY FLAG
001354: 23,2236           30075        R61C+L06           CA       FLAGWRD1
001355: 23,2237           74742                           MASK     R61FLBIT
001356: 23,2240           10000                           CCS      A
001357: 23,2241           02262                           TC       R61C+L4
001358: 23,2242           11745                           CCS      R65CNTR
001359: 23,2243           02245                           TC       +2
001360: 23,2244           02262                           TC       R61C+L4                               #  R65CNTR = 0 - EXIT ROUTINE
001361: 23,2245           55745                           TS       R65CNTR
001362: 23,2246           32276                           CAF      06SEC
001363: 23,2247           05173                           TC       TWIDDLE
001364: 23,2250           02252                           ADRES    R61C+L2
001365: 23,2251           05155                           TC       ENDOFJOB
001366: 23,2252           37714        R61C+L2            CAF      PRIO26
001367: 23,2253           05105                           TC       FINDVAC
001368: 23,2254  E7,1456                                  EBANK=   LOSCOUNT
001369: 23,2254           02127 46067                     2CADR    R61C+L01
001370:
001371: 23,2256           05261                           TC       TASKOVER
001372: 23,2257           04616        R61C+L04           TC       BANKCALL                              #  TO CONVERT ANGLES TO FDAI
001373: 23,2260           54266                           CADR     BALLANGS
001374: 23,2261           02236                           TC       R61C+L06
001375: 23,2262           31143        R61C+L4            CAE      GENRET
001376: 23,2263           14640                           TCF      BANKJUMP                              #  EXIT R61
001377: 23,2264           32273        R61C+L1            CAF      BIT7+9PV                              #  IS RENDEZVOUS OR P25FLAG SET
001378: 23,2265           70074                           MASK     STATE
001379: 23,2266           00006                           EXTEND
001380: 23,2267           15155                           BZF      ENDOFJOB                              #  NO - EXIT ROUTINE AND PROGRAM.
001381: 23,2270           02236                           TC       R61C+L06                              #  YES EXIT ROUTINE
001382: 23,2271           04635        R65WAIT            TC       POSTJUMP
001383: 23,2272           50232                           CADR     P20LEMWT
001384:
001385: 23,2273           00500        BIT7+9PV           OCT      00500


001387: 23,2274           17350 34602  COS15DEG           2DEC     0.96593    B-1
001388:
001389: 23,2276           01130        06SEC              DEC      600        B-14
001390: 23,2277                        PHI                EQUALS   20D
001391: 23,2277           00004        READCDUD           INHINT                                         #  READS DESIRED CDU'S AND STORES IN
001392: 23,2300           35015                           CAF      EBANK6                                #  MPAC TP EXITS WITH MODE SET TO TP
001393: 23,2301           56003                           XCH      EBANK
001394: 23,2302           54070                           TS       RUPTREG1
001395: 23,2303  E6,1635                                  EBANK=   CDUXD
001396: 23,2303           31635                           CA       CDUXD
001397: 23,2304           54154                           TS       MPAC
001398: 23,2305           00006                           EXTEND
001399: 23,2306           31637                           DCA      CDUYD
001400: 23,2307           52156                           DXCH     MPAC       +1
001401: 23,2310           30070                           CA       RUPTREG1
001402: 23,2311           54003                           TS       EBANK
001403: 23,2312           00003                           RELINT
001404: 23,2313           16477                           TCF      TMODE
001405:    4512                                           BLOCK    02
001406:    4000                                           SETLOC   RADARFF
001407:    4000                                           BANK
001408:
001409:    4512  E7,1456                                  EBANK=   LOSCOUNT
001410:    4512                                           COUNT*   $$/RRSUB
001411:


001413:                                                                                                  #  THE FOLLOWING SUBROUTINE RETURNS TO CALLER +2 IF THE ABSOLUTE VALUE OF VALUE OF C(A) IS GREATER THAN THE
001414:                                                                                                  #  NEGATIVE OF THE NUMBER AT CALLER +1.  OTHERWISE IT RETURNS TO CALLER +3.  MAY BE CALLED IN RUPT OR UNDER EXEC.
001415:
001416:    4512           00006        MAGSUB             EXTEND
001417:    4513           64515                           BZMF     +2
001418:    4514           14516                           TCF      +2
001419:    4515           40000                           COM
001420:
001421:    4516           50002                           INDEX    Q
001422:    4517           60000                           AD       0
001423:    4520           00006                           EXTEND
001424:    4521           66741                           BZMF     Q+2                                   #  ABS(A) <= CONST GO TO L+3
001425:    4522           16737                           TCF      Q+1                                   #  ABS(A) > CONST GO TO L+2
001426:


001428:                                                                                                  #  PROGRAM NAME_ RRLIMCHK                                                        ARE IN THE LIMITS OF THE CURRENT MODE.
001429:
001430:                                                                                                  #  FUNCTIONAL DESCRIPTION_
001431:
001432:                                                                                                  #        RRLIMCHK CHECKS RR DESIRED GIMBAL ANGLES TO SEE IF THEY ARE WITHIN
001433:                                                                                                  #        THE LIMITS OF THE CURRENT MODE.  INITIALLY THE DESIRED TRUNNION AND
001434:                                                                                                  #        SHAFT ANGLES ARE STORED IN ITEMP1 AND ITEMP2.  THE CURRENT RR
001435:                                                                                                  #        ANTENNAE MODE (RADMODES BIT 12) IS CHECKED WHICH IS = 0 FOR
001436:                                                                                                  #        MODE 1 AND =1 FOR MODE 2.
001437:
001438:                                                                                                  #        MODE 1 - THE TRUNNION ANGLE IS CHECKED AT MAGSUB TO SEE IF IT IS
001439:                                                                                                  #        BETWEEN -55 AND +55 DEGREES.  IF NOT, RETURN TO L +2.  IF WITHIN LIMITS,
001440:                                                                                                  #        THE SHAFT ANGLE IS CHECKED TO SEE IF IT IS BETWEEN -70 AND +59 DEGREES.
001441:                                                                                                  #        IF NOT, RETURN TO L +2.  IF IN LIMITS, RETURN TO L +3.
001442:
001443:                                                                                                  #        MODE 2 - THE SHAFT ANGLE IS CHECKED AT MAGSUB TO SEE IF IT IS
001444:                                                                                                  #        BETWEEN -139 AND -25 DEGREES.  IF NOT, RETURN TO L +2.  IF WITHIN
001445:                                                                                                  #        LIMITS, THE TRUNNION ANGLE IS CHECKED TO SEE IF IT IS BETWEEN +125
001446:                                                                                                  #        AND -125 (+235) DEGREES.  IF NOT, RETURN TO L +2.  IF IN LIMITS, RETURN
001447:                                                                                                  #        TO L +3.
001448:
001449:                                                                                                  #  CALLING SEQUENCE:
001450:
001451:                                                                                                  #        L  TC  RRLIMCHK (WITH INTERRUPT INHIBITED)
001452:                                                                                                  #        L  +1  ADRES  T,S  (DESIRED TRUNNION ANGLE ADDRESS)
001453:
001454:                                                                                                  #  ERASABLE INITIALIZATION REQUIRED:
001455:
001456:                                                                                                  #        RADMODES, MODEA, MODEB (OR DESIRED TRUNNION AND SHAFT
001457:                                                                                                  #        ANGLES ELSEWHERE IN CONSECUTIVE LOCATIONS - UNSWITCHED ERASABLE OR
001458:                                                                                                  #        CURRENT EBANK).
001459:
001460:                                                                                                  #  SUBROUTINES CALLED_   MAGSUB
001461:
001462:                                                                                                  #  JOBS OR TASKS INITIATED_  NONE
001463:
001464:                                                                                                  #  ALARMS_  NONE
001465:
001466:                                                                                                  #  EXIT_         L + 2   (EITHER OR BOTH ANGLES NOT WITHIN LIMITS OF CURRENT MODE)
001467:                                                                                                  #                L + 3   (BOTH ANGLES WITHIN LIMITS OF CURRENT MODE)
001468:
001469:    4523           00006        RRLIMCHK           EXTEND
001470:    4524           50002                           INDEX    Q
001471:    4525           50000                           INDEX    0
001472:    4526           30001                           DCA      0
001473:    4527           24002                           INCR     Q
001474:    4530           52062                           DXCH     ITEMP1
001475:    4531           22002                           LXCH     Q                                     #  L(CALLER +2) TO L.
001476:
001477:    4532           34740                           CAF      ANTENBIT                              #  SEE WHICH MODE RR IS IN.
001478:    4533           70110                           MASK     RADMODES
001479:    4534           10000                           CCS      A
001480:    4535           14550                           TCF      MODE2CHK
001481:
001482:    4536           30061                           CA       ITEMP1                                #  MODE 1 IS DEFINED AS


001484:    4537           04512                           TC       MAGSUB                                #        1. ABS(T) L 55 DEGS.
001485:    4540           66161                           DEC      -.30555                               #        2. ABS(S + 5.5 DEGS) L 64.5 DEGS
001486:    4541           00001                           TC       L                                     #                (SHAFT LIMITS AT +59, -70 DEGS)
001487:
001488:    4542           34562                           CAF      5.5DEGS
001489:    4543           60062                           AD       ITEMP2                                #  S
001490:    4544           04512                           TC       MAGSUB
001491:    4545           64420                           DEC      -.35833                               #  64.5 DEGS
001492:    4546           00001                           TC       L
001493:    4547           04560                           TC       RRLIMOK                               #  IN LIMITS.
001494:
001495:    4550           34563        MODE2CHK           CAF      82DEGS                                #  MODE 2 IS DEFINED AS
001496:    4551           60062                           AD       ITEMP2                                #        1. ABS(T) G 125 DEGS.
001497:    4552           04512                           TC       MAGSUB                                #        2. ABS(S + 82 DEGS) L 57 DEGS
001498:    4553           65673                           DEC      -.31667                               #                (SHAFT LIMITS AT -25, -139 DEGS)
001499:    4554           00001                           TC       L
001500:
001501:    4555           30061                           CA       ITEMP1
001502:    4556           04512                           TC       MAGSUB
001503:    4557           51615                           DEC      -.69444                               #  125 DEGS
001504:
001505:    4560           50001        RRLIMOK            INDEX    L
001506:    4561           00001                           TC       L                                     #  ( = TC 1 )
001507:
001508:    4562           00765        5.5DEGS            DEC      .03056
001509:    4563           16450        82DEGS             DEC      .45556
001510:


001512:                                                                                                  #  PROGRAM NAME_ SETTRKF                                                         . IF EITHER:
001513:
001514:                                                                                                  #  FUNCTIONAL DESCRIPTION_
001515:                                                                                                  #        SETTRKF UPDATES THE TRACKER FAIL LAMP ON THE DSKY.                      HER THE ALT OR VEL INFORMATION.
001516:                                                                                                  #        INITIALLY THE LAMP TEST FLAG (IMODES33 BIT 1) IS CHECKED.
001517:                                                                                                  #        IF A LAMP TEST IS IN PROGRESS, THE PROGRAM EXITS TO L +1.
001518:                                                                                                  #        IF NO LAMP TEST THE FOLLOWING IS CHECKED SEQUENTIALLY_
001519:                                                                                                  #                1) RR CDU:S BEING ZEROED, RR CDU OK, AND RR NOT IN
001520:                                                                                                  #                   AUTO MODE (RADMODES BITS 13, 7, 2).
001521:                                                                                                  #                2) LR VEL DATA FAIL AND NO LR POS DATA (RADMODES BITS
001522:                                                                                                  #                   8,5)
001523:                                                                                                  #                3) NO RR DATA (RADMODES BIT 4)
001524:                                                                                                  #        THE ABSENCE OF ALL THREE SIMULTANEOUSLY IN (1), THE PRESENCE OF BOTH
001525:                                                                                                  #        IN (2), AND THE PRESENCE OF (3) RESULTS IN EITHER THE TRACKER FAIL
001526:                                                                                                  #        LAMP (DSPTAB +11D BIT 8) BEING TURNED ON OR LEFT ON. OTHERWISE,
001527:                                                                                                  #        THE TRACKER FAIL LAMP IS TURNED OFF OR IS LEFT OFF. THEREFORE, THE
001528:                                                                                                  #        TRACKER FAIL LAMP IS TURNED ON IF_
001529:                                                                                                  #                A) RR CDU FAILED WITH RR IN AUTO MODE AND RR CDU:S NOT BEING ZEROED.
001530:                                                                                                  #                B) N SAMPLES OF LR DATA COULD NOT BE TAKEN IN 2N TRIES WITH
001531:                                                                                                  #                   EITHER THE ALT OR VEL INFORMATION
001532:                                                                                                  #                C) N SAMPLES OF RR DATA COULD NOT BE OBTAINED FROM 2N TRIES
001533:                                                                                                  #                   WITH EITHER THE AL
001534:
001535:                                                                                                  #  CALLING SEQUENCE:
001536:
001537:                                                                                                  #        L       TC      SETTRKF
001538:
001539:                                                                                                  #  ERASABLE INITIALIZATION REQUIRED:  IMODES33, RADMODES, DSPTAB +11D
001540:
001541:                                                                                                  #  SUBROUTINES CALLED_  NONE
001542:
001543:                                                                                                  #  JOBS OR TASKS INITIATED_  NONE
001544:
001545:                                                                                                  #  ALARMS_  TRACKER FAIL LAMP
001546:
001547:                                                                                                  #  EXIT_  L +1 (ALWAYS)                                                          ED.
001548:
001549:    4564           34753        SETTRKF            CAF      BIT1                                  #  NO ACTION IF DURING LAMP TEST.
001550:    4565           71303                           MASK     IMODES33
001551:    4566           10000                           CCS      A
001552:    4567           00002                           TC       Q
001553:
001554:    4570           34744        RRTRKF             CA       BIT8
001555:    4571           54001                           TS       L
001556:
001557:    4572           34615                           CAF      13,7,2                                #  SEE IF CDU FAILED.
001558:    4573           70110                           MASK     RADMODES
001559:    4574           00006                           EXTEND
001560:    4575           14601                           BZF      TRKFLON                               #  CONDITION 3 ABOVE.
001561:
001562:    4576           34750        RRCHECK            CAF      RRDATABT                              #  SEE IF RR DATA FAILED.
001563:    4577           70110                           MASK     RADMODES


001565:    4600           10000                           CCS      A
001566:    4601           30001        TRKFLON            CA       L
001567:    4602           61036                           AD       DSPTAB     +11D                       #  HALF ADD DESIRED AND PRESENT STATES.
001568:    4603           70001                           MASK     L
001569:    4604           00006                           EXTEND
001570:    4605           16742                           BZF      TCQ                                   #  NO CHANGE.
001571:
001572:    4606           31036        FLIP               CA       DSPTAB     +11D                       #  CANT USE LXCH DSPTAB +11D (RESTART PROB)
001573:    4607           00006                           EXTEND
001574:    4610           06001                           RXOR     LCHAN
001575:    4611           74733                           MASK     POSMAX
001576:    4612           64735                           AD       BIT15
001577:    4613           55036                           TS       DSPTAB     +11D
001578:    4614           00002                           TC       Q
001579:
001580:    4615           10102        13,7,2             OCT      10102
001581:    4616                        ENDRMODF           EQUALS
001582:


001584:                                                                                                  #  PROGRAM NAME_  RRTURNON
001585:
001586:                                                                                                  #  FUNCTIONAL DESCRIPTION_
001587:
001588:                                                                                                  #        RRTURNON IS THE TURN-ON SEQUENCE WHICH, ALONG WITH
001589:                                                                                                  #        RRZEROSB, ZEROS THE CDU:S AND DETERMINES THE RR MODE.
001590:                                                                                                  #        INITIALLY, CONTROL IS TRANSFERRED TO RRZEROSB FOR THE
001591:                                                                                                  #        ACTUAL TURN-ON SEQUENCE.  UPON RETURN THE PROGRAM
001592:                                                                                                  #        WAITS 1 SECOND BEFORE REMOVING THE TURN-ON FLAG
001593:                                                                                                  #        (RADMODES BIT1) SO THE REPOSITION ROUTINE WON:T
001594:                                                                                                  #        INITIATE PROGRAM ALARM 00501.  A CHECK IS THEN MADE
001595:                                                                                                  #        TO SEE IF A PROGRAM IS USING THE RR (STATE BIT 7).  IF
001596:                                                                                                  #        SO, THE PROGRAM EXITS TO ENDRADAR SO THAT THE RR CDU
001597:                                                                                                  #        FAIL FLAG (RADMODES BIT 7) CAN BE CHECKED BEFORE
001598:                                                                                                  #        RETURNING TO THE WAITING PROGRAM.  IF NOT, THE PROGRAM EXITS
001599:                                                                                                  #        TO TASKOVER.
001600:
001601:                                                                                                  #  CALLING SEQUENCE:  WAITLIST TASK FROM RRAUTCHK IF THE RR POWER ON AUTO
001602:                                                                                                  #  BIT (CHAN 33 BIT 2) CHANGES TO 0 AND NO PROGRAM WAS USING
001603:                                                                                                  #  THE RR (STATE BIT 7).
001604:
001605:                                                                                                  #  ERASABLE INITIALIZATION REQUIRED:
001606:
001607:                                                                                                  #        RADMODES, STATE
001608:
001609:                                                                                                  #  SUBROUTINES CALLED_  RRZEROSB, FIXDELAY, TASKOVER, ENDRADAR
001610:
001611:                                                                                                  #  JOBS OR TASKS INITIATED_
001612:                                                                                                  #
001613:                                                                                                  #        NONE
001614:
001615:                                                                                                  #  ALARMS_  NONE (SEE RRZEROSB)
001616:
001617:                                                                                                  #  EXIT_  TASKOVER, ENDRADAR (WAITING PROGRAM)
001618:
001619: 24,3255                                           BANK     24
001620: 25,2000                                           SETLOC   P20S1
001621: 25,2000                                           BANK
001622:
001623: 25,2062  E7,1456                                  EBANK=   LOSCOUNT
001624: 25,2062                                           COUNT*   $$/RSUB
001625: 25,2062           02071        RRTURNON           TC       RRZEROSB
001626: 25,2063           05221                           TC       FIXDELAY                              #  WAIT 1 SEC BEFORE REMOVING TURN ON FLAG
001627: 25,2064           00144                           DEC      100        B-14                       #  SO A MONITOR REPOSITION WONT ALARM.
001628: 25,2065           44753                           CS       TURNONBT
001629: 25,2066           70110                           MASK     RADMODES
001630: 25,2067           54110                           TS       RADMODES
001631: 25,2070           15261                           TCF      TASKOVER


001633:                                                                                                  #  PROGRAM NAME_  RRZEROSB
001634:
001635:                                                                                                  #  FUNCTIONAL DESCRIPTION_
001636:                                                                                                  #        RRZEROSB IS A CLOSED SUBROUTINE TO ZERO THE RR CDU:S,
001637:                                                                                                  #        DETERMINE THE RR MODE, AND TURNS ON THE TRACKER FAIL
001638:                                                                                                  #        LAMP IF REQUIRED.  INITIALLY THE RR CDU ZERO BIT (CHAN 12
001639:                                                                                                  #        BIT 1) IS SET.  FOLLOWING A 20 MILLISECOND WAIT, THE LGC
001640:                                                                                                  #        RR CDU COUNTERS (OPTY, OPTX) ARE SET = 0 AFTER
001641:                                                                                                  #        WHICH THE RR CDU ZERO DISCRETE (CHAN 12 BIT 1) IS
001642:                                                                                                  #        REMOVED.  A 4 SECOND WAIT IS SET TO ALL THE RR CDU:S
001643:                                                                                                  #        TO REPEAT THE ACTUAL TRUNNION AND SHAFT ANGLES.  THE
001644:                                                                                                  #        RR CDU ZERO FLAG (RADMODES BIT 13) IS REMOVED.  THE
001645:                                                                                                  #        CONTENTS OF OPTY IS THEN CHECKED TO SEE IF THE TRUNNION
001646:                                                                                                  #        ANGLE IS LESS THAN 90 DEGREES.  IF NOT, BIT 12 OF
001647:                                                                                                  #        RADMODES IS SET = 1 TO INDICATE RR ANTENNA MODE 2.
001648:                                                                                                  #        IF LESS THAN 90 DEGREES, BIT 12 OF RADMODES IS SET = 0 TO
001649:                                                                                                  #        INDICATE RR ANTENNA MODE 1.  SETTRKF IS THEN CALLED TO
001650:                                                                                                  #        SEE IF THE TRACKER FAIL LAMP SHOULD BE TURNED ON.
001651:
001652:                                                                                                  #  CALLING SEQUENCE:  L  TC  RRZEROSB  (FROM RRTURNON AND RRZERO)
001653:
001654:                                                                                                  #  ERASABLE INITIALIZATION REQUIRED:
001655:
001656:                                                                                                  #        RADMODES (BIT 13 SET), DSPTAB +11D
001657:
001658:                                                                                                  #  SUBROUTINES CALLED_  FIXDELAY, MAGSUB, SETTRKF
001659:
001660:                                                                                                  #  JOBS OR TASKS INITIATED_
001661:
001662:                                                                                                  #        NONE
001663:
001664:                                                                                                  #  ALARMS_  TRACKER FAIL
001665:
001666:                                                                                                  #  EXIT_  L +1 (ALWAYS)
001667:
001668: 25,2071           00006        RRZEROSB           EXTEND
001669: 25,2072           23315                           QXCH     RRRET
001670: 25,2073           34753                           CAF      BIT1                                  #  BIT 13 OF RADMODES MUST BE SET BEFORE
001671: 25,2074           00006                           EXTEND                                         #  COMING HERE.
001672: 25,2075           05012                           WOR      CHAN12                                #  TURN ON ZERO RR CDU
001673: 25,2076           05221                           TC       FIXDELAY
001674: 25,2077           00002                           DEC      2          B-14
001675:
001676: 25,2100           34755                           CAF      ZERO
001677: 25,2101           54035                           TS       CDUT
001678: 25,2102           54036                           TS       CDUS
001679: 25,2103           44753                           CS       ONE                                   #  REMOVE ZEROING BIT.
001680: 25,2104           00006                           EXTEND
001681: 25,2105           03012                           WAND     CHAN12
001682: 25,2106           05221                           TC       FIXDELAY
001683: 25,2107           01750                           DEC      1000       B-14                       #  RESET FAIL INHIBIT IN 10 SECS - D.281
001684:
001685: 25,2110           44737                           CS       RCDU0BIT                              #  REMOVE ZEROING IN PROCESS BIT.


001687: 25,2111           70110                           MASK     RADMODES
001688: 25,2112           54110                           TS       RADMODES
001689:
001690: 25,2113           30035                           CA       CDUT
001691: 25,2114           04512                           TC       MAGSUB
001692: 25,2115           57777                           DEC      -.5
001693: 25,2116           12121                           TCF      +3                                    #  IF MODE 2.
001694:
001695: 25,2117           34755                           CAF      ZERO
001696: 25,2120           12122                           TCF      +2
001697: 25,2121           34740                           CAF      ANTENBIT
001698: 25,2122           56110                           XCH      RADMODES
001699: 25,2123           77741                           MASK     -BIT12
001700: 25,2124           26110                           ADS      RADMODES
001701:
001702: 25,2125           04564                           TC       SETTRKF                               #  TRACKER LAMP MIGHT GO ON NOW.
001703:
001704: 25,2126           01315                           TC       RRRET                                 #  DONE.
001705:
001706: 25,2127     7741               -BIT12             EQUALS   -1/8                                  #  IN SPROOT
001707:


001709:                                                                                                  #  PROGRAM NAME_  DORREPOS
001710:
001711:                                                                                                  #  FUNCTIONAL DESCRIPTION_
001712:
001713:                                                                                                  #        DORREPOS IS A SEQUENCE OF TASKS TO DRIVE THE RENDEZVOUS RADAR
001714:                                                                                                  #        TO A SAFE POSITION.  INITIALLY SETRRECR IS CALLED WHERE THE RR
001715:                                                                                                  #        ERROR COUNTERS (CHAN 12 BIT 2) ARE ENABLED AND LASTYCMD
001716:                                                                                                  #        AND LASTXCMD SET = 0 TO INDICATE THE DIFFERENCE BETWEEN THE
001717:                                                                                                  #        DESIRED STATE AND PRESENT STATE OF THE COMMANDS.  THE RR
001718:                                                                                                  #        TURN-ON FLAG (RADMODES BIT 1) IS CHECKED AND IF NOT PRESENT,
001719:                                                                                                  #        PROGRAM ALARM 00501 IS REQUESTED BEFORE CONTINUING.  IN EITHER
001720:                                                                                                  #        CASE, FOLLOWING A 20 MILLISECOND WAIT THE PROGRAM CHECKS THE CURRENT
001721:                                                                                                  #        RR ANTENNA MODE (RADMODES BIT 12).  RRTONLY IS THEN CALLED
001722:                                                                                                  #        TO DRIVE THE TRUNNION ANGLE TO 0 DEGREES IF IN MODE 1 AND TO 180
001723:                                                                                                  #        DEGREES IF IN MODE 2.  UPON RETURN, THE CURRENT RR ANTENNA
001724:                                                                                                  #        MODE (RADMODES BIT 12) IS AGAIN CHECKED.  RRSONLY IS THEN
001725:                                                                                                  #        CALLED TO DRIVE THE SHAFT ANGLE TO 0 DEGREES IF IN MODE 1 AND TO
001726:                                                                                                  #        -90 DEGREES IF IN MODE 2.  IF DURING RRTONLY OR RRSONLY A
001727:                                                                                                  #        REMODE HAS BEEN REQUESTED (RADMODES BIT 14), AND ALWAYS
001728:                                                                                                  #        FOLLOWING COMPLETION OF RRSONLY, CONTROL IS TRANSFERRED TO
001729:                                                                                                  #        REPOSRPT.  HERE THE REPOSITION FLAG (RADMODES BIT 11) IS
001730:                                                                                                  #        REMOVED.  A CHECK IS THEN MADE ON THE DESIGNATE FLAG (RADMODES
001731:                                                                                                  #        BIT 10).  IF PRESENT, CONTROL IS TRANSFERRED TO BEGDES.  IF NOT PRESENT
001732:                                                                                                  #        INDICATING NO FURTHER ANTENNA CONTROL REQUIRED, THE RR ERROR
001733:                                                                                                  #        COUNTER BIT (CHAN 12 BIT 2) IS REMOVED AND THE ROUTINE EXITS TO
001734:                                                                                                  #        TASKOVER.
001735:
001736:                                                                                                  #  CALLING SEQUENCE:
001737:
001738:                                                                                                  #        WAITLIST CALL FROM RRGIMON IF TRUNNION AND SHAFT CDU ANGLES
001739:                                                                                                  #        NOT WITHIN LIMITS OF CURRENT MODE.
001740:
001741:                                                                                                  #  ERASABLE INITIALIZATION REQUIRED:
001742:
001743:                                                                                                  #        RADMODES
001744:
001745:                                                                                                  #  SUBROUTINES CALLED_
001746:
001747:                                                                                                  #        RRTONLY, RRSONLY, BEGDES (EXIT)
001748:
001749:                                                                                                  #  JOBS OR TASKS INITIATED_
001750:
001751:                                                                                                  #        NONE
001752:
001753:                                                                                                  #  ALARMS-  NONE
001754:
001755:                                                                                                  #  EXIT_  TASKOVER, BEGDES
001756:
001757: 25,2127           02156        DORREPOS           TC       SETRRECR                              #  SET UP RR CDU ERROR COUNTERS.
001758:
001759:                                                                                                  #  ALARM 501 DELETED IN DANCE 279 PER PCR 97.
001760:
001761: 25,2130           05221                           TC       FIXDELAY
001762: 25,2131           00002                           DEC      2          B-14
001763:
001764: 25,2132           34740                           CAF      ANTENBIT                              #  MANEUVER TRUNNION ANGLE TO NOMINAL POS.


001766: 25,2133           70110                           MASK     RADMODES
001767: 25,2134           10000                           CCS      A
001768: 25,2135           34735                           CAF      BIT15                                 #  0 FOR MODE 1 AND 180 FOR MODE 2.
001769: 25,2136           02241                           TC       RRTONLY
001770:
001771: 25,2137           34740                           CAF      ANTENBIT                              #  NOW PUT SHAFT IN RIGHT POSITION
001772: 25,2140           70110                           MASK     RADMODES
001773: 25,2141           10000                           CCS      A
001774: 25,2142           44736                           CS       HALF                                  #  -90 FOR MODE 2.
001775: 25,2143           02244                           TC       RRSONLY
001776:
001777: 25,2144           44741        REPOSRPT           CS       REPOSBIT                              #  RETURNS HERE FROM RR1AXIS IF REMODE
001778:                                                                                                  #  REQUESTED DURING REPOSITION.
001779: 25,2145           70110                           MASK     RADMODES                              #  REMOVE REPOSITION BIT.
001780: 25,2146           54110                           TS       RADMODES
001781: 25,2147           74742                           MASK     DESIGBIT                              #  SEE IF SOMEONE IS WAITING TO DESIGNATE.
001782: 25,2150           10000                           CCS      A
001783: 25,2151           12573                           TCF      BEGDES
001784: 25,2152           44752                           CS       BIT2                                  #  IF NO FURTHER ANTENNA CONTROL REQUIRED,
001785: 25,2153           00006                           EXTEND                                         #  REMOVE ERROR COUNTER ENABLE.
001786: 25,2154           03012                           WAND     CHAN12
001787: 25,2155           15261                           TCF      TASKOVER
001788:
001789: 25,2156           34752        SETRRECR           CAF      BIT2                                  #  SET UP RR ERROR COUNTERS.
001790: 25,2157           00006                           EXTEND
001791: 25,2160           02012                           RAND     CHAN12
001792: 25,2161           10000                           CCS      A                                     #  DO NOT CLEAR LAST COMMAND IF
001793: 25,2162           00002                           TC       Q                                     #  ERROR COUNTERS ARE ENABLED.
001794:
001795: 25,2163           54112                           TS       LASTYCMD
001796: 25,2164           54113                           TS       LASTXCMD
001797: 25,2165           34752                           CAF      BIT2
001798: 25,2166           00006                           EXTEND
001799: 25,2167           05012                           WOR      CHAN12                                #  ENABLE RR CDU ERROR COUNTERS.
001800: 25,2170           00002                           TC       Q


001802:                                                                                                  #  PROGRAM NAME_  REMODE                                                         IVES SHAFT TO -45, AND FINALLY DRIVES
001803:
001804:                                                                                                  #  FUNCTIONAL DESCRIPTION_                                                       S DONE WITH SINGLE AXIS ROTATIONS (SEE
001805:                                                                                                  #        REMODE IS THE GENERAL REMODING SUBROUTINE.  IT DRIVES THE
001806:                                                                                                  #        TRUNNION ANGLE TO 0 DEGREES IF THE CURRENT MODE IS MODE 1,
001807:                                                                                                  #        180 DEGREES FOR MODE 2, THEN DRIVES THE SHAFT ANGLE TO -45
001808:                                                                                                  #        DEGREES, AND FINALLY DRIVES THE TRUNNION ANGLE TO -130 DEGREES,
001809:                                                                                                  #        TO PLACE THE RR IN MODE 2, -50 DEGREES FOR MODE 1, BEFORE
001810:                                                                                                  #        INITIATING 2-AXIS CONTROL.  ALL REMODING IS DONE WITH SINGLE
001811:                                                                                                  #        AXIS ROTATIONS (RR1AXIS).  INITIALLY THE RR ANTENNA MODE FLAG
001812:                                                                                                  #        (RADMODES BIT 12) IS CHECKED.  CONTROL IS THEN TRANSFERRED TO
001813:                                                                                                  #        RRTONLY TO DRIVE THR TRUNNION ANGLE TO 0 DEGREES IF IN MODE 1
001814:                                                                                                  #        OR 180 DEGREES IF IN MODE 2.  RRSONLY IS THEN CALLED TO DRIVE
001815:                                                                                                  #        THE SHAFT ANGLE TO -45 DEGREES. THE RR ANTENNA MODE FLAG
001816:                                                                                                  #        (RADMODES BIT 12) IS CHECKED AGAIN.  CONTROL IS AGAIN
001817:                                                                                                  #        TRANSFERRED TO RRTONLY TO DRIVE THE TRUNNION ANGLE TO -130
001818:                                                                                                  #        DEGREES TO PLACE THE RR IN MODE 2 IF CURRENTLY IN MODE 1 OR TO
001819:                                                                                                  #        -50 DEGREES IF IN MODE 2 TO PLACE THE RR IN MODE 1.  RMODINV
001820:                                                                                                  #        IS THEN CALLED TO SET RADMODES BIT 12 TO INDICATE THE NEW
001821:                                                                                                  #        RR ANTENNA MODE.  THE REMODE FLAG (RADMODES BIT 14)
001822:                                                                                                  #        IS REMOVED TO INDICATE THAT REMODING IS COMPLETE.  THE PROGRAM
001823:                                                                                                  #        THEN EXITS TO STDESIG TO BEGIN 2-AXIS CONTROL.
001824:
001825:                                                                                                  #  CALLING SEQUENCE:
001826:
001827:                                                                                                  #        FROM BEGDES WHEN REMODE FLAG (RADMODES BIT 14) IS SET.
001828:                                                                                                  #        THIS FLAG MAY BE SET IN RRDESSM AND RRDESNB IF RRLIMCHK
001829:                                                                                                  #        DETERMINES THAT THE DESIRED ANGLES ARE WITHIN THE LIMITS OF THE
001830:                                                                                                  #        OTHER MODE.
001831:
001832:                                                                                                  #  ERASABLE INITIALIZATION REQUIRED:
001833:
001834:                                                                                                  #        RADMODES
001835:
001836:                                                                                                  #  SUBROUTINES CALLED_
001837:
001838:                                                                                                  #        RRTONLY, RRSONLY, RMODINV (ACTUALLY PART OF)
001839:
001840:                                                                                                  #  JOBS OR TASKS INITIATED_
001841:
001842:                                                                                                  #        NONE
001843:
001844:                                                                                                  #  ALARMS_  NONE
001845:
001846:                                                                                                  #  EXIT_  STDESIG
001847:
001848: 25,2171           34740        REMODE             CAF      ANTENBIT                              #  DRIVE TRUNNION TO 0 (180)
001849: 25,2172           70110                           MASK     RADMODES                              #  (ERROR COUNTER ALREADY ENABLED)
001850: 25,2173           10000                           CCS      A
001851: 25,2174           34735                           CAF      BIT15
001852: 25,2175           02241                           TC       RRTONLY
001853:
001854: 25,2176           37740                           CAF      -45DEGSR
001855: 25,2177           02244                           TC       RRSONLY


001857: 25,2200           40110                           CS       RADMODES
001858: 25,2201           74740                           MASK     ANTENBIT
001859: 25,2202           10000                           CCS      A
001860: 25,2203           32232                           CAF      -80DEGSR                              #  GO TO T = -130 (-50).
001861: 25,2204           62231                           AD       -50DEGSR
001862: 25,2205           02241                           TC       RRTONLY
001863:
001864: 25,2206           40110                           CS       RADMODES
001865: 25,2207           74740                           MASK     ANTENBIT
001866: 25,2210           10000                           CCS      A
001867: 25,2211           34735                           CAF      BIT15                                 #  GO TO T = -180 (+0).
001868: 25,2212           02241                           TC       RRTONLY
001869:
001870: 25,2213           40110                           CS       RADMODES                              #  GO TO S = -90 (+0).
001871: 25,2214           74740                           MASK     ANTENBIT
001872: 25,2215           10000                           CCS      A
001873: 25,2216           44736                           CS       HALF
001874: 25,2217           02244                           TC       RRSONLY
001875:
001876: 25,2220           02233                           TC       RMODINV
001877:
001878: 25,2221           44736                           CS       REMODBIT                              #  END OF REMODE.
001879: 25,2222           70110                           MASK     RADMODES
001880: 25,2223           54110                           TS       RADMODES
001881:
001882: 25,2224           34742                           CAF      DESIGBIT                              #  WAS REMODE CALLED DURING DESIGNATE?
001883: 25,2225           70110                           MASK     RADMODES                              #  (BIT10 RADMODES = 1)
001884: 25,2226           00006                           EXTEND
001885: 25,2227           13555                           BZF      RGOODEND                              #  NO - RETURN TO CALLER WAITING IN RADSTALL
001886: 25,2230           02602                           TC       STDESIG                               #  YES - RETURN TO DESIGNATE
001887: 25,2231     7740               -45DEGSR           =        13,14,15
001888: 25,2231           67070        -50DEGSR           DEC      -.27778
001889: 25,2232           61615        -80DEGSR           DEC      -.44444
001890:
001891: 25,2233           22110        RMODINV            LXCH     RADMODES                              #  INVERT THE MODE STATUS.
001892: 25,2234           34740                           CAF      ANTENBIT
001893: 25,2235           00006                           EXTEND
001894: 25,2236           06001                           RXOR     LCHAN
001895: 25,2237           54110                           TS       RADMODES
001896: 25,2240           00002                           TC       Q
001897:


001899:                                                                                                  #  PROGRAM NAMES_        RRTONLY, RRSONLY
001900:
001901:                                                                                                  #  FUNCTIONAL DESCRIPTION_
001902:
001903:                                                                                                  #        RRTONLY AND RRSONLY ARE SUBROUTINES FOR DOING SINGLE AXIS
001904:                                                                                                  #        RR MANEUVERS FOR REMODE AND REPOSITION.  IT DRIVES TO
001905:                                                                                                  #        WITHIN 1 DEGREE.  INITIALLY, AT RR1AX2, THE REMODE AND REPOSITION
001906:                                                                                                  #        FLAGS (RADMODES BITS 14, 11) ARE CHECKED.  IF BOTH EXIST,
001907:                                                                                                  #        THE PROGRAM EXITS TO REPOSRPT (SEE DORREPOS).  THIS INDICATES
001908:                                                                                                  #        THAT SOMEONE POSSIBLY REQUESTED A DESIGNATE (RADMODES BIT 10)
001909:                                                                                                  #        WHICH REQUIRES A REMODE (RADMODES BIT 14) AND THAT A
001910:                                                                                                  #        REPOSITION IS IN PROGRESS (RADMODES BIT 11).  IF NONE
001911:                                                                                                  #        OR ONLY ONE OF THE FLAGS EXIST, REMODE OR REPOSITION, MAGSUB
001912:                                                                                                  #        IS CALLED TO SEE IF THE APPROPRIATE ANGLE IS WITHIN 1 DEGREE.  IF YES,
001913:                                                                                                  #        CONTROL RETURNS TO THE CALLING ROUTINE.  IF NOT, CONTROL IS
001914:                                                                                                  #        TRANSFERRED TO RROUT FOR SINGLE AXIS MANEUVERS WITH THE OTHER
001915:                                                                                                  #        ANGLE SET = 0.  FOLLOWING A .5 SECOND WAIT, THE ABOVE PROCEDURE IS
001916:                                                                                                  #        REPEATED.
001917:
001918:                                                                                                  #  CALLING SEQUENCE:     L-1     CAF     *ANGLE*         (DESIRED ANGLE SCALED PI)
001919:                                                                                                  #                        L       TC      RRTONLY         (TRUNNION ONLY)
001920:                                                                                                  #                        RRSONLY                         (SHAFT ONLY)
001921:                                                                                                  #                        RRTONLY IS CALLED BY PREPOS29;
001922:                                                                                                  #                        RRTONLY AND RRSONLY ARE CALLED BY DORREPOS AND REMODE
001923:
001924:                                                                                                  #  ERASABLE INITIALIZATION REQUIRED:
001925:
001926:                                                                                                  #        C(A) = DESIRED ANGLE, RADMODES
001927:
001928:                                                                                                  #  SUBROUTINES CALLED_
001929:
001930:                                                                                                  #        FIXDELAY, REPOSRPT, MAGSUB, RROUT
001931:
001932:                                                                                                  #  JOBS OR TASKS INITIATED_
001933:
001934:                                                                                                  #        NONE
001935:
001936:                                                                                                  #  ALARMS_  NONE
001937:
001938:                                                                                                  #  EXIT_ REPOSRPT (REMODE AND REPOSITION FLAGS PRESENT - RADMODES
001939:                                                                                                  #        BITS 14, 11)
001940:                                                                                                  #        L+1 (ANGLE WITHIN ONE DEGREE OR RR OUT OF AUTO MODE)
001941:
001942: 25,2241           55316        RRTONLY            TS       RDES                                  #  DESIRED TRUNION ANGLE.
001943: 25,2242           34755                           CAF      ZERO
001944: 25,2243           12246                           TCF      RR1AXIS
001945:
001946: 25,2244           55316        RRSONLY            TS       RDES                                  #  SHAFT COMMANDS ARE UNRESOLVED SINCE THIS
001947: 25,2245           34753                           CAF      ONE                                   #  ROUTINE ENTERED ONLY WHEN T = 0 OR 180.
001948:
001949: 25,2246           55317        RR1AXIS            TS       RRINDEX
001950: 25,2247           00006                           EXTEND
001951: 25,2250           23315                           QXCH     RRRET
001952: 25,2251           12254                           TCF      RR1AX2
001953:


001955: 25,2252           05221        NXTRR1AX           TC       FIXDELAY
001956: 25,2253           00062                           DEC      50         B-14                       #  2 SAMPLES PER SECOND.
001957:
001958: 25,2254           40110        RR1AX2             CS       RADMODES                              #  IF SOMEONE REQUESTES AS DESIGNATE WHICH
001959: 25,2255           77710                           MASK     PRIO22                                #  REQUIRES A REMODE AND A REPOSITION IS IN
001960: 25,2256           00006                           EXTEND                                         #  PROGRESS, INTERRUPT IT AND START THE
001961: 25,2257           12144                           BZF      REPOSRPT                              #  REMODE IMMEDIATELY.
001962:
001963: 25,2260           31316                           CA       RDES
001964: 25,2261           00006                           EXTEND
001965: 25,2262           51317                           INDEX    RRINDEX
001966: 25,2263           20035                           MSU      CDUT
001967: 25,2264           54061                           TS       ITEMP1                                #  SAVE ERROR SIGNAL.
001968: 25,2265           00006                           EXTEND
001969: 25,2266           72305                           MP       RRSPGAIN                              #  TRIES TO NULL .7 OF ERROR OVER NEXT .5
001970: 25,2267           54001                           TS       L
001971: 25,2270           30110                           CA       RADMODES
001972: 25,2271           74752                           MASK     AUTOMBIT
001973: 25,2272           56061                           XCH      ITEMP1                                #  STORE RR-OUT-OF-AUTO-MODE BIT.
001974: 25,2273           04512                           TC       MAGSUB                                #  SEE IF WITHIN ONE DEGREE.
001975: 25,2274           77644                           DEC      -.00555                               #  SCALED IN HALF-REVS.
001976:
001977: 25,2275           10061                           CCS      ITEMP1                                #  NO.  IF RR OUT OF AUTO MODE, EXIT.
001978: 25,2276           01315                           TC       RRRET                                 #  RETURN TO CALLER.
001979:
001980: 25,2277           11317                           CCS      RRINDEX                               #  COMMAND FOR OTHER AXIS IS ZERO.
001981: 25,2300           12302                           TCF      +2                                    #  SETTING A TO 0.
001982: 25,2301           56001                           XCH      L
001983: 25,2302           53110                           DXCH     TANG
001984:
001985: 25,2303           02306                           TC       RROUT
001986:
001987: 25,2304           12252                           TCF      NXTRR1AX                              #  COME BACK IN .5 SECONDS.
001988:
001989: 25,2305           22715        RRSPGAIN           DEC      .59062                                #  NULL .7 ERROR IN .5 SEC.
001990:


001992:                                                                                                  #  PROGRAM NAME_  RROUT                                                          RROR COUNTER SCALING. RROUT LIMITS THEM
001993:
001994:                                                                                                  #  FUNCTIONAL DESCRIPTION_
001995:
001996:                                                                                                  #        RROUT RECEIVES RR GYRO COMMANDS IN TANG, TANG +1 IN RR
001997:                                                                                                  #        ERROR COUNTER SCALING.  RROUT THEN LIMITS THEM AND
001998:                                                                                                  #        GENERATES COMMANDS TO THE CDU TO ADJUST THE ERROR COUNTERS
001999:                                                                                                  #        TO THE DESIRED VALUES.  INITIALLY MAGSUB CHECKS THE MAGNITUDE OF
002000:                                                                                                  #        THE COMMAND (SHAFT ON 1ST PASS) TO SEE IF IT IS GREATER THAN
002001:                                                                                                  #        384 PULSES.  IF NOT, CONTROL IS TRANSFERRED TO RROUTLIM TO
002002:                                                                                                  #        LIMIT THE COMMAND TO +384 OR -384 PULSES.  THE DIFFERENCE IS
002003:                                                                                                  #        THEN CALCULATED BETWEEN THE DESIRED STATE AND THE PRESENT STATE OF
002004:                                                                                                  #        THE ERROR COUNTER AS RECORDED IN LASTYCMD AND LASTXCMD.
002005:                                                                                                  #        THE RESULT IS STORED IN OPTXCMD (1ST PASS) AND OPTYCMD (2ND
002006:                                                                                                  #        PASS).  FOLLOWING THE SECOND PASS, FOR THE TRUNNION COMMAND, THE
002007:                                                                                                  #        OCDUT AND OCDUS ERROR COUNTER DRIVE BITS (CHAN 14 BITS 12, 11)
002008:                                                                                                  #        ARE SET.  THIS PROGRAM THEN EXITS TO THE CALLING PROGRAM.
002009:
002010:                                                                                                  #  CALLING SEQUENCE:
002011:                                                                                                  #
002012:                                                                                                  #        L TC RROUT (WITH RUPT INHIBITED) RROUT IS CALLED BY
002013:                                                                                                  #        RRTONLY, RRSONLY, AND DODES
002014:
002015:                                                                                                  #  ERASABLE INITIALIZATION REQUIRED:
002016:
002017:                                                                                                  #        TANG, TANG +1 (DESIRED COMMANDS), LASTYCMD, LASTXCMD
002018:                                                                                                  #        (1ST PASS = 0), RR ERROR COUNTER ENABLE SET (CHAN 12 BIT 2).
002019:
002020:                                                                                                  #  SUBROUTINES CALLED_
002021:
002022:                                                                                                  #        MAGSUB
002023:
002024:                                                                                                  #  JOBS OR TASKS INITIATED_
002025:
002026:                                                                                                  #        NONE
002027:
002028:                                                                                                  #  ALARMS_  NONE
002029:
002030:                                                                                                  #  EXIT_  L+1 (ALWAYS)                                                           SIRED VALUES. RUPT MUST BE INHIBITED.
002031:
002032: 25,2306           22002        RROUT              LXCH     Q                                     #  SAVE RETURN.
002033: 25,2307           34753                           CAF      ONE                                   #  LOOP TWICE.
002034: 25,2310           54062        RROUT2             TS       ITEMP2
002035: 25,2311           50000                           INDEX    A
002036: 25,2312           31107                           CA       TANG
002037: 25,2313           54061                           TS       ITEMP1                                #  SAVE SIGN OF COMMAND FOR LIMITING.
002038:
002039: 25,2314           04512                           TC       MAGSUB                                #  SEE IF WITHIN LMITS.
002040: 25,2315           77177        -RRLIMIT           DEC      -384       B-14
002041: 25,2316           12335                           TCF      RROUTLIM                              #  LIMIT COMMAND TO MAG OF 384.
002042:
002043: 25,2317           30061        SETRRCTR           CA       ITEMP1                                #  COUNT OUT DIFFERENCE BETWEEN DESIRED
002044: 25,2320           50062                           INDEX    ITEMP2                                #  STATE AND PRESENT STATE AS RECORDED IN
002045: 25,2321           56112                           XCH      LASTYCMD                              #  LASTYCMD AND LASTXCMD
002046: 25,2322           40000                           COM


002048: 25,2323           60061                           AD       ITEMP1
002049: 25,2324           64754                           AD       NEG0                                  #  PREVENT +0 IN OUTCOUNTER
002050: 25,2325           50062                           INDEX    ITEMP2
002051: 25,2326           54053                           TS       CDUTCMD
002052:
002053: 25,2327           10062                           CCS      ITEMP2                                #  PROCESS BOTH INPUTS.
002054: 25,2330           12310                           TCF      RROUT2
002055:
002056: 25,2331           35020                           CAF      PRIO6                                 #  ENABLE COUNTERS.
002057: 25,2332           00006                           EXTEND
002058: 25,2333           05014                           WOR      CHAN14                                #  PUT ON CDU DRIVES S AND T
002059: 25,2334           00001                           TC       L                                     #  RETURN.
002060:
002061: 25,2335           10061        RROUTLIM           CCS      ITEMP1                                #  LIMIT COMMAND TO ABS VAL OF 384.
002062: 25,2336           42315                           CS       -RRLIMIT
002063: 25,2337           12341                           TCF      +2
002064: 25,2340           32315                           CA       -RRLIMIT
002065: 25,2341           54061                           TS       ITEMP1
002066: 25,2342           12320                           TCF      SETRRCTR   +1
002067:


002069:                                                                                                  #  ROUTINE TO ZERO THE RR CDUS AND DETERMINE THE ANTENNA MODE.
002070:
002071: 25,2343           32372        RRZERO             CAF      BIT11+1                               #  SEE IF MONITOR REPOSITION OR NOT IN AUTO
002072: 25,2344           70110                           MASK     RADMODES                              #  IF SO, DONT RE-ZERO CDUS.
002073: 25,2345           10000                           CCS      A
002074: 25,2346           13530                           TCF      RADNOOP                               #  (IMMEDIATE TASK TO RGOODEND).
002075:
002076: 25,2347           00004                           INHINT
002077: 25,2350           44737                           CS       RCDU0BIT                              #  SET FLAG TO SHOW ZEROING IN PROGRESS.
002078: 25,2351           70110                           MASK     RADMODES
002079: 25,2352           64737                           AD       RCDU0BIT
002080: 25,2353           54110                           TS       RADMODES
002081:
002082: 25,2354           34753                           CAF      ONE
002083: 25,2355           05203                           TC       WAITLIST
002084: 25,2356  E7,1456                                  EBANK=   LOSCOUNT
002085: 25,2356           02370 52067                     2CADR    RRZ2
002086:
002087: 25,2360           40110                           CS       RADMODES                              #  SEE IF IN AUTO MODE.
002088: 25,2361           74752                           MASK     AUTOMBIT
002089: 25,2362           10000                           CCS      A
002090: 25,2363           12366                           TCF      ROADBACK
002091: 25,2364           05567                           TC       ALARM                                 #  AUTO DISCRETE NOT PRESENT - TRYING
002092: 25,2365           00510                           OCT      510
002093: 25,2366           00003        ROADBACK           RELINT
002094: 25,2367           14631                           TCF      SWRETURN
002095:
002096: 25,2370           02071        RRZ2               TC       RRZEROSB                              #  COMMON TO TURNON AND RRZERO.
002097: 25,2371           13546                           TCF      ENDRADAR
002098:
002099: 25,2372           02001        BIT11+1            OCT      02001
002100:


002102:                                                                                                  #  PROGRAM NAME_  RRDESSM                                                        R (HALF-UNIT) IN RRTARGET. REMODES IF
002103:
002104:                                                                                                  #  FUNCTIONAL DESCRIPTION_
002105:
002106:                                                                                                  #        THIS INTERPRETIVE ROUTINE WILL DESIGNATE, IF DESIRED ANGLES ARE
002107:                                                                                                  #        WITHIN THE LIMITS OF EITHER MODE, TO A LINE-OF SIGHT (LOS) VECTOR
002108:                                                                                                  #        (HALF-UNIT) KNOWN WITH RESPECT TO THE STABLE MEMBER PRESENT
002109:                                                                                                  #        ORIENTATION.  INITIALLY THE IMU CDU:S ARE READ AND CONTROL
002110:                                                                                                  #        TRANSFERRED TO SMNB TO TRANSFORM THE LOS VECTOR FROM STABLE
002111:                                                                                                  #        MEMBER TO NAVIGATION BASE COORDINATES (SEE STG MEMO -699)
002112:                                                                                                  #        RRANGLES IS THEN CALLED TO CALCULATE THE RR GIMBAL ANGLES,
002113:                                                                                                  #        TRUNNION AND SHAFT, FOR BOTH THE PRESENT AND ALTERNATE MODE.
002114:                                                                                                  #        RRLIMCHK IS CALLED TO SEE IF THE ANGLES CALCULATED FOR THE
002115:                                                                                                  #        PRESENT MODE ARE WITHIN LIMITS.  IF WITHIN LIMITS, THE RETURN
002116:                                                                                                  #        LOCATION IS INCREMENTED, INASMUCH AS NO VEHICLE MANEUVER IS
002117:                                                                                                  #        REQUIRED, BEFORE EXITING TO STARTDES.  IF NOT WITHIN LIMITS OF THE
002118:                                                                                                  #        CURRENT MODE, TRYSWS IS CALLED.  FOLLOWING INVERTING OF THE RR
002119:                                                                                                  #        ANTENNA MODE FLAG (RADMODES BIT 12), RRLIMCHK IS CALLED
002120:                                                                                                  #        TO SEE IF THE ANGLES CALCULATED FOR THE ALTERNATE MODE ARE WITHIN
002121:                                                                                                  #        LIMITS.  IF YES, THE RR ANTENNA MODE FLAG IS AGAIN INVERTED,
002122:                                                                                                  #        THE REMODE FLAG (RADMODES BIT 14) SET, AND THE RETURN LOCATION
002123:                                                                                                  #        INCREMENTED, TO INDICATE NO VEHICLE MANEUVER IS REQUIRED, BEFORE
002124:                                                                                                  #        EXITING TO STARTDES.  IF THESE ANGLES ARE NOT WITHIN LIMITS
002125:                                                                                                  #        OF THE ALTERNATE MODE, THE RR ANTENNA MODE FLAG (RADMODES
002126:                                                                                                  #        BIT 12) IS INVERTED BEFORE RETURNING DIRECTLY TO THE CALLING PROGRAM
002127:                                                                                                  #        TO INDICATE THAT A VEHICLE MANEUVER IS REQUIRED.
002128:
002129:                                                                                                  #  CALLING SEQUENCE:
002130:
002131:                                                                                                  #        L       STCALL  RRTARGET        (LOS HALF-UNIT VECTOR IN SM COORDINATES)
002132:                                                                                                  #        L+1     RRDESSM
002133:                                                                                                  #        L+2     BASIC                   (VEHICLE MANEUVER REQUIRED)
002134:                                                                                                  #        L+3     BASIC                   (NO VEHICLE MANEUVER REQUIRED)
002135:
002136:                                                                                                  #  ERASABLE INITIALIZATION REQUIRED:
002137:
002138:                                                                                                  #        RRTARGET, RADMODES
002139:
002140:                                                                                                  #  SUBROUTINES CALLED_
002141:
002142:                                                                                                  #        READCDUS, SMNB, RRANGLES, RRLIMCHK, TRYSWS (ACTUALLY
002143:                                                                                                  #        PART OF), RMODINV
002144:
002145:                                                                                                  #  JOBS OR TASKS INITIATED_
002146:
002147:                                                                                                  #        NONE
002148:
002149:                                                                                                  #  ALARMS_  NONE
002150:
002151:                                                                                                  #  EXIT_  L+2 (NEITHER SET OF ANGLES ARE WITHIN LIMITS OF RELATED MODE)
002152:                                                                                                  #  STARTDES (DESIGNATE POSSIBLE AT PRESENT VEHICLE ATTITUDE - RETURNS
002153:                                                                                                  #  TO L+3 FROM STARTDES)                                                         CAN BE DONE IN PRESENT VEH ATTITUDE.
002154:
002155: 25,2373           43020        RRDESSM            STQ      CLEAR
002156: 25,2374           01113                                    DESRET


002158: 25,2375           00271                                    RRNBSW
002159: 25,2376           77624                           CALL                                           #  COMPUTES SINES AND COSINES, ORDER Y Z X
002160: 25,2377           47537                                    CDUTRIG
002161: 25,2400           45175                           VLOAD    CALL                                  #  LOAD VECTOR AND CALL TRANSFORMATION
002162: 25,2401           01102                                    RRTARGET
002163: 25,2402           47671                                    *SMNB*
002164:
002165: 25,2403           77624                           CALL                                           #  GET RR GIMBAL ANGLES IN PRESENT AND
002166: 25,2404           26133                                    RRANGLES                              #  ALTERNATE MODE.
002167: 25,2405           77776                           EXIT
002168:
002169: 25,2406           00004                           INHINT
002170: 25,2407           04523                           TC       RRLIMCHK
002171: 25,2410           01107                           ADRES    MODEA                                 #  CONFIGURATION FOR CURRENT MODE.
002172: 25,2411           02414                           TC       +3                                    #  NOT IN CURRENT MODE
002173: 25,2412           25113        OKDESSM            INCR     DESRET                                #  INCREMENT SAYS NO VEHICLE MANEUVER REQ.
002174: 25,2413           02432                           TC       STARTDES                              #  SHOW DESIGNATE REQUIRED
002175: 25,2414           40104                           CS       FLAGWRD8
002176: 25,2415           74744                           MASK     SURFFBIT                              #  CHECK IF ON LUNAR SURFACE (SURFFLAG=P22F
002177: 25,2416           00006                           EXTEND
002178: 25,2417           12456                           BZF      NORDSTAL                              #  BRANCH - YES - CANNOT DESIGNATE IN MODE 2
002179: 25,2420           02461                           TC       TRYSWS
002180:
002181: 25,2421           40104        LUNDESCH           CS       FLAGWRD8                              #  OVERFLOW RETURN FROM RRANGLES
002182: 25,2422           74744                           MASK     SURFFBIT                              #  CHECK IF ON LUNAR SURFACE
002183: 25,2423           00006                           EXTEND
002184: 25,2424           12456                           BZF      NORDSTAL                              #  BRANCH - YES - RETURN TO CALLER - ALARM 527
002185: 25,2425           30074                           CA       STATE
002186: 25,2426           74745                           MASK     RNDVZBIT
002187: 25,2427           10000                           CCS      A                                     #  TEST RNDVZFLG.
002188: 25,2430           02471                           TC       NODESSM                               #  NOT ON MOON - CALL FOR ATTITUDE MANEUVER
002189: 25,2431           15155                           TCF      ENDOFJOB                              #  ... BUT NOT IN R29.
002190:


002192:                                                                                                  #  PROGRAM NAME_  STARTDES                                                       STORED AS A HALF-UNIT VECTOR IN RRTARGET
002193:
002194:                                                                                                  #  FUNCTIONAL DESCRIPTION_                                                       CKON IS DESIRED. BIT14 OF RADMODES IS
002195:                                                                                                  #        STARTDES IS ENTERED WHEN WE ARE READY TO BEGIN DESIGNATION.             OR REPOSITION OPERATION. IN THIS
002196:                                                                                                  #        BIT 14 OF RADMODES IS ALREADY SET IF A REMODE IS REQUIRED.              THE REPOSITION WILL BE INTERRUPTED.
002197:                                                                                                  #        AT THIS TIME, THE RR ANTENNA MAY BE IN A REPOSITION                     GINS.
002198:                                                                                                  #        OPERATION.  IN THIS CASE, IF A REMODE IS REQUIRED IT MAY HAVE
002199:                                                                                                  #        ALREADY BEGUN BUT IN ANY CASE THE REPOSITION WILL BE INTERRUPTED.
002200:                                                                                                  #        OTHERWISE, THE REPOSITION WILL BE COMPLETED BEFORE 2-AXIS
002201:                                                                                                  #        DESIGNATION BEGINS.  INITIALLY DESCOUNT IS SET = 60 TO INDICATE
002202:                                                                                                  #        THAT 30 SECONDS WILL BE ALLOWED FOR THE RR DATA GOOD INBIT
002203:                                                                                                  #        (CHAN 33 BIT 4) IF LOCK-ON IS DESIRED (STATE BIT 5).  BIT 10
002204:                                                                                                  #        OF RADMODES IS SET TO SHOW THAT A DESIGNATE IS REQUIRED.
002205:                                                                                                  #        THE REPOSITION FLAG (RADMODES BIT 11) IS CHECKED.  IF SET,
002206:                                                                                                  #        THE PROGRAM EXITS TO L+3 OF THE CALLING PROGRAM (SEE RRDESSM
002207:                                                                                                  #        AND RRDESNB).  THE PROGRAM WILL BEGIN DESIGNATING TO THE DESIRED
002208:                                                                                                  #        ANGLES FOLLOWING THE REPOSITION OR REMODE IF ONE WAS
002209:                                                                                                  #        REQUESTED.  IF THE REPOSITION FLAG IS NOT SET, SETRRECR IS CALLED
002210:                                                                                                  #        WHICH SETS THE RR ERROR COUNTER ENABLE BIT (CHAN 12 BIT 2)
002211:                                                                                                  #        AND SETS LASTYCMD AND LASTXCMD = 0 TO INDICATE THE
002212:                                                                                                  #        DIFFERENCE BETWEEN THE PRESENT AND DESIRED STATE OF THE ERROR
002213:                                                                                                  #        COUNTERS.  A 20 MILLISECOND WAITLIST CALL IS SET FOR BEGDES
002214:                                                                                                  #        AFTER WHICH THE PROGRAM EXITS TO L+3 OF THE CALLING PROGRAM.
002215:
002216:                                                                                                  #  CALLING SEQUENCE:
002217:
002218:                                                                                                  #        FROM RRDESSM AND RRDESNB WHEN ANGLES WITHIN LIMITS.
002219:
002220:                                                                                                  #  ERASABLE INITIALIZATION REQUIRED:
002221:
002222:                                                                                                  #        RADMODES, (SEE DODES)
002223:
002224:                                                                                                  #  SUBROUTINES CALLED_
002225:
002226:                                                                                                  #        SETRRECR, WAITLIST
002227:
002228:                                                                                                  #  JOBS OR TASKS INITIATED_
002229:
002230:                                                                                                  #        BEGDES
002231:
002232:                                                                                                  #  ALARMS_  NONE
002233:
002234:                                                                                                  #  EXIT_ L+3 OF CALLING PROGRAM (SEE RRDESSM)
002235:                                                                                                  #        L+2 OF CALLING PROGRAM (SEE RRDESNB)
002236:
002237: 25,2432           25113        STARTDES           INCR     DESRET
002238: 25,2433           40110                           CS       RADMODES
002239: 25,2434           74742                           MASK     DESIGBIT
002240: 25,2435           26110                           ADS      RADMODES
002241: 25,2436           74741                           MASK     REPOSBIT                              #  SEE IF REPOSITIONING IN PROGRESS.
002242: 25,2437           10000                           CCS      A
002243: 25,2440           12446                           TCF      DESRETRN                              #  ECTR ALREADY SET UP.
002244:
002245: 25,2441           02156                           TC       SETRRECR                              #  SET UP ERROR COUNTERS.


002247: 25,2442           34752                           CAF      TWO
002248: 25,2443           05203                           TC       WAITLIST
002249: 25,2444  E7,1456                                  EBANK=   LOSCOUNT
002250: 25,2444           02573 52067                     2CADR    BEGDES
002251:
002252: 25,2446           31306        DESRETRN           CA       RADCADR                               #  FIRST PASS THRU DESIGNATE
002253: 25,2447           00006                           EXTEND
002254: 25,2450           12452                           BZF      DESRTRN                               #  YES   SET EXIT
002255: 25,2451           05155                           TC       ENDOFJOB                              #  NO
002256: 25,2452           00003        DESRTRN            RELINT
002257: 25,2453           25113                           INCR     DESRET
002258: 25,2454           31113                           CA       DESRET
002259: 25,2455           14640                           TCF      BANKJUMP
002260:
002261: 25,2456           34755        NORDSTAL           CAF      ZERO                                  #  ZERO RADCADR TO WIPE OUT ANYONE
002262: 25,2457           55306                           TS       RADCADR                               #  WAITING IN RADSTALL SINCE WE ARE NOW
002263: 25,2460           12452                           TCF      DESRTRN                               #  RETURNING TO P20 AND MAY DO NEW RADSTALL
002264:


002266:                                                                                                  #  SEE IF RRDESSM CAN BE ACCOMPLISHED AFTER A REMODE.
002267:
002268: 25,2461           02233        TRYSWS             TC       RMODINV                               #  (NOTE RUPT INHIBIT)
002269: 25,2462           04523                           TC       RRLIMCHK                              #  TRY DIFFERENT MODE.
002270: 25,2463           01111                           ADRES    MODEB
002271: 25,2464           12471                           TCF      NODESSM                               #  VEHICLE MANEUVER REQUIRED.
002272:
002273: 25,2465           02233                           TC       RMODINV                               #  RESET BIT12
002274: 25,2466           34736                           CAF      REMODBIT                              #  SET FLAG FOR REMODE.
002275: 25,2467           26110                           ADS      RADMODES
002276:
002277: 25,2470           12412                           TCF      OKDESSM
002278:
002279: 25,2471           02233        NODESSM            TC       RMODINV                               #  RE-INVERT MODE AND RETURN
002280: 25,2472           25113                           INCR     DESRET                                #  TO CALLER +2
002281: 25,2473           12456                           TCF      NORDSTAL
002282:
002283: 25,2474           00074        MAXTRYS            DEC      60         B-14
002284:


002286:                                                                                                  #  DESIGNATE TO SPECIFIC RR GIMBAL ANGLES (INDEPENDENT OF VEHICLE MOTION).  ENTER WITH DESIRED ANGLES IN
002287:                                                                                                  #  TANG AND TANG +1.
002288:
002289: 25,2475           04645        RRDESNB            TC       MAKECADR
002290: 25,2476           55113                           TS       DESRET
002291:
002292: 25,2477           05516                           TC       DOWNFLAG                              #  RESET FLAG TO PREVENT DODES FROM GOING
002293: 25,2500           00041                           ADRES    LOSCMFLG                              #  BACK TO R21
002294: 25,2501           32474                           CA       MAXTRYS                               #  SET TIME LIMIT COUNTER
002295: 25,2502           55114                           TS       DESCOUNT                              #  FOR DESIGNATE
002296: 25,2503           00004                           INHINT                                         #  SEE IF CURRENT MODE OK.
002297: 25,2504           02540                           TC       RRLIMNB                               #  DO SPECIAL V41 LIMIT CHECK
002298: 25,2505           01107                           ADRES    TANG
002299: 25,2506           12523                           TCF      TRYSWN                                #  SEE IF IN OTHER MODE.
002300:
002301: 25,2507           00003        OKDESNB            RELINT
002302: 25,2510           00006                           EXTEND
002303: 25,2511           31110                           DCA      TANG
002304: 25,2512           53753                           DXCH     TANGNB
002305: 25,2513           06037                           TC       INTPRET
002306:
002307: 25,2514           77624                           CALL                                           #  GET LOS IN NB COORDS.
002308: 25,2515           46041                                    RRNB
002309: 25,2516           01102                           STORE    RRTARGET
002310:
002311: 25,2517           77414                           SET      EXIT
002312: 25,2520           00071                                    RRNBSW
002313:
002314: 25,2521           00004                           INHINT
002315: 25,2522           12433                           TCF      STARTDES   +1
002316: 25,2523           02233        TRYSWN             TC       RMODINV                               #  SEE IF OTHER MODE WILL DO.
002317: 25,2524           02540                           TC       RRLIMNB                               #  DO SPECIAL V41 LIMIT CHECK
002318: 25,2525           01107                           ADRES    TANG
002319: 25,2526           12533                           TCF      NODESNB                               #  NOT POSSIBLE.
002320:
002321: 25,2527           02233                           TC       RMODINV
002322: 25,2530           34736                           CAF      REMODBIT                              #  CALL FOR REMODE.
002323: 25,2531           26110                           ADS      RADMODES
002324: 25,2532           12507                           TCF      OKDESNB
002325:
002326: 25,2533           02233        NODESNB            TC       RMODINV                               #  REINVERT MODE BIT.
002327: 25,2534           05567                           TC       ALARM                                 #  BAD INPUT ANGLES.
002328: 25,2535           00502                           OCT      502
002329: 25,2536           06011                           TC       CLRADMOD
002330: 25,2537           05155                           TC       ENDOFJOB                              #  AVOID 503 ALARM.
002331:
002332: 25,2540           50002        RRLIMNB            INDEX    Q                                     #  THIS ROUTINE IS IDENTICAL TO RRLIMCHK
002333: 25,2541           30000                           CAF      0                                     #  EXCEPT THAT THE MODE 1 SHAFT LOWER
002334: 25,2542           24002                           INCR     Q                                     #  LIMIT IS -85 INSTEAD OF -70 DEGREES
002335: 25,2543           00006                           EXTEND


002337: 25,2544           50000                           INDEX    A                                     #  READ GIMBAL ANGLES INTO ITEMP STORAGE
002338: 25,2545           30001                           DCA      0
002339: 25,2546           52062                           DXCH     ITEMP1
002340: 25,2547           22002                           LXCH     Q                                     #  L(CALLER +2) TO L
002341:
002342: 25,2550           34740                           CAF      ANTENBIT                              #  SEE WHICH MODE RR IS IN.
002343: 25,2551           70110                           MASK     RADMODES
002344: 25,2552           10000                           CCS      A
002345: 25,2553           14550                           TCF      MODE2CHK                              #  MODE 2 CAN USE RRLIMCHK CODING
002346: 25,2554           30061                           CA       ITEMP1
002347: 25,2555           04512                           TC       MAGSUB                                #  MODE 1 IS DEFINED AS
002348: 25,2556           66161                           DEC      -.30555                               #  1.    ABS(T) L 55 DEGS
002349: 25,2557           00001                           TC       L                                     #  2     SHAFT LIMITS AT +59, -85 DEGS
002350:
002351: 25,2560           30062                           CA       ITEMP2                                #  LOAD SHAFT ANGLE
002352: 25,2561           00006                           EXTEND
002353: 25,2562           62570                           BZMF     NEGSHAFT                              #  IF NEGATIVE SHAFT ANGLE, ADD 20.5 DEGS
002354: 25,2563           64562                           AD       5.5DEGS
002355: 25,2564           04512        SHAFTLIM           TC       MAGSUB
002356: 25,2565           64420                           DEC      -.35833                               #  64.5 DEGREES
002357: 25,2566           00001                           TC       L                                     #  NOT IN LIMITS
002358: 25,2567           04560                           TC       RRLIMOK                               #  IN LIMITS
002359: 25,2570           62572        NEGSHAFT           AD       20.5DEGS                              #  MAKE NEGATIVE SHAFT LIMIT -85 DEGREES
002360: 25,2571           12564                           TCF      SHAFTLIM
002361:
002362: 25,2572           03512        20.5DEGS           DEC      .11389
002363:


002365:                                                                                                  #  PROGRAM NAME_  BEGDES
002366:
002367:                                                                                                  #  FUNCTIONAL DESCRIPTION_
002368:
002369:                                                                                                  #        BEGDES CHECKS VARIOUS DESIGNATE REQUESTS AND REQUESTS THE
002370:                                                                                                  #        ACTUAL RR DESIGNATION.  INITIALLY A CHECK IS MADE TO SEE IF A
002371:                                                                                                  #        REMODE (RADMODES BIT 14) IS REQUESTED OR IN PROGRESS.  IF SO,
002372:                                                                                                  #        CONTROL IS TRANSFERRED TO STDESIG AFTER ROUTINE REMODE IS
002373:                                                                                                  #        EXECUTED.  IF NO REMODE, STDESIG IS IMMEDIATELY CALLED WHERE
002374:                                                                                                  #        FIRST THE REPOSITION FLAG (RADMODES BIT 11) IS CHECKED.  IF
002375:                                                                                                  #        PRESENT, THE DESIGNATE FLAG (RADMODES BIT 10) IS REMOVED
002376:                                                                                                  #        AFTER WHICH THE PROGRAM EXITS TO RDBADEND.  IF THE REPOSITION
002377:                                                                                                  #        FLAG IS NOT PRESENT, THE CONTINUOUS DESIGNATE FLAG (RADMODES
002378:                                                                                                  #        BIT 15) IS CHECKED.  IF PRESENT, ON EXECUTIVE CALL IS IMMEDIATELY
002379:                                                                                                  #        MADE FOR DODES AFTER WHICH A .5 SECOND WAIT IS INITIATED BEFORE
002380:                                                                                                  #        REPEATING AT STDESIG.  IF THE RR SEARCH ROUTINE (LRS24.1) IS DESIGNATING
002381:                                                                                                  #        TO A NEW POINT (NEWPTFLG SET) THE CURRENT DESIGNATE TASK IS TERMINATED.
002382:                                                                                                  #        IF CONTINUOUS DESIGNATE IS NOT WANTED, THE DESIGNATE FLAG (RADMODES
002383:                                                                                                  #        BIT 10) IS CHECKED.  IF NOT PRESENT, THE PROGRAM EXITS TO ENDRADAR TO
002384:                                                                                                  #        CHECK RR CDU FAIL BEFORE RETURNING TO THE CALLING PROGRAM.  IF DESIGNATE
002385:                                                                                                  #        IS STILL REQUIRED, DESCOUNT IS CHECKED TO SEE IF THE 30 SECONDS HAS
002386:                                                                                                  #        EXPIRED BEFORE RECEIVING THE RR DATA GOOD (CHAN 33 BIT 4)
002387:                                                                                                  #        SIGNAL.  IF OUT OF TIME, PROGRAM ALARM 00503 IS REQUESTED, THE
002388:                                                                                                  #        RR AUTO TRACKER ENABLE AND RR ERROR COUNTER ENABLE
002389:                                                                                                  #        (CHAN 12 BITS 14,2) BITS REMOVED, AND THE DESIGNATE FLAG
002390:                                                                                                  #        (RADMODES BIT 10) REMOVED BEFORE EXITING TO RDBADEND.  IF
002391:                                                                                                  #        TIME HAS NOT EXPIRED, DESCOUNT IS DECREMENTED, THE
002392:                                                                                                  #        EXECUTIVE CALL MADE FOR DODES, AND A .5 SECOND WAIT INITIATED
002393:                                                                                                  #        BEFORE REPEATING THIS PROCEDURE AT STDESIG.
002394:
002395:                                                                                                  #  CALLING SEQUENCE:
002396:
002397:                                                                                                  #        WAITLIST CALL FROM STARTDES
002398:                                                                                                  #        TCF BEGDES FROM DORREPOS
002399:                                                                                                  #        TC STDESIG RETURNING, FROM REMODE
002400:
002401:                                                                                                  #  ERASABLE INITIALIZATION REQUIRED:
002402:                                                                                                  #        DESCOUNT, RADMODES
002403:
002404:                                                                                                  #  SUBROUTINES CALLED_
002405:                                                                                                  #        ENDRADAR, FINDVAC
002406:
002407:                                                                                                  #  JOBS OR TASKS INITIATED_  DODES
002408:
002409:                                                                                                  #  ALARMS_  PROGRAM ALARM 00503 (30 SECONDS HAVE EXPIRED) WITH NO RR DATA
002410:                                                                                                  #  GOOD (CHAN 33 BIT 4) RECEIVED WHEN LOCK-ON (STATE BIT 5) WAS REQUESTED.
002411:
002412:                                                                                                  #  EXIT_         TASKOVER (SEARCH PATTERN DESIGNATING TO NEW POINT)
002413:                                                                                                  #                ENDRADAR (NO DESIGNATE - RADMODES BIT 10)
002414:                                                                                                  #                RDBADEND (REPOSITION OR 30 SECONDS EXPIRED)
002415:
002416: 25,2573           40110        BEGDES             CS       RADMODES


002418: 25,2574           74736                           MASK     REMODBIT
002419: 25,2575           10000                           CCS      A
002420: 25,2576           02602                           TC       STDESIG
002421: 25,2577           02171                           TC       REMODE
002422: 25,2600           05221        DESLOOP            TC       FIXDELAY                              #  2 SAMPLES PER SECOND.
002423: 25,2601           00062                           DEC      50         B-14
002424:
002425: 25,2602           34741        STDESIG            CAF      REPOSBIT
002426: 25,2603           70110                           MASK     RADMODES                              #  SEE IF GIMBAL LIMIT MONITOR HAS FOUND US
002427: 25,2604           10000                           CCS      A                                     #  OUT OF BOUNDS.  IF SO, THIS BIT SHOWS A
002428: 25,2605           12623                           TCF      BADDES                                #  REPOSITION TO BE IN PROGRESS.
002429:
002430: 25,2606           10110                           CCS      RADMODES                              #  SEE IF CONTINUOUS DESIGNATE WANTED.
002431: 25,2607           12612                           TCF      +3                                    #  IF SO, DONT CHECK BIT 10 TO SEE IF IN
002432: 25,2610           12612                           TCF      +2                                    #  LIMITS BUT GO RIGHT TO FINDVAC ENTRY.
002433: 25,2611           12630                           TCF      MOREDES    +1
002434:
002435: 25,2612           40110                           CS       RADMODES                              #  IF NON-CONTINUOUS, SEE IF END OF
002436: 25,2613           74742                           MASK     DESIGBIT                              #  PROBLEM (DATA GOOD IF LOCK-ON WANTED OR
002437: 25,2614           10000                           CCS      A                                     #  WITHIN LIMITS IF NOT).  IF SO, EXIT AFTER
002438: 25,2615           13546                           TCF      ENDRADAR                              #  CHECKING RR CDU FAIL.
002439:
002440: 25,2616           11114        STDESIG1           CCS      DESCOUNT                              #  SEE IF THE TINE LIMIT HAS EXPIRED
002441: 25,2617           12627                           TCF      MOREDES
002442:
002443: 25,2620           42635                           CS       B14+B2                                #  IF OUT OF TIME, REMOVE ECR ENABLE + TRKR
002444: 25,2621           00006                           EXTEND
002445: 25,2622           03012                           WAND     CHAN12
002446: 25,2623           44742        BADDES             CS       DESIGBIT                              #  REMOVE DESIGNATE FLAG
002447: 25,2624           70110                           MASK     RADMODES
002448: 25,2625           54110                           TS       RADMODES
002449: 25,2626           13562                           TCF      RDBADEND
002450:
002451: 25,2627           55114        MOREDES            TS       DESCOUNT
002452: 25,2630           37714                           CAF      PRIO26                                #  UPDATE GYRO TORQUE COMMANDS.
002453: 25,2631           05105                           TC       FINDVAC
002454: 25,2632  E7,1456                                  EBANK=   LOSCOUNT
002455: 25,2632           02636 52067                     2CADR    DODES
002456:
002457: 25,2634           12600                           TCF      DESLOOP
002458:
002459: 25,2635           20002        B14+B2             OCT      20002
002460:


002462:                                                                                                  #  PROGRAM NAME_  DODES
002463:
002464:                                                                                                  #  FUNCTIONAL DESCRIPTION_
002465:
002466:                                                                                                  #        DODES CALCULATES AND REQUESTS ISSUANCE OF RR GYRO TORQUE
002467:                                                                                                  #        COMMANDS.  INITIALLY THE CURRENT RR CDU ANGLES ARE STORED AND
002468:                                                                                                  #        THE LOS HALF-UNIT VECTOR TRANSFORMED FROM STABLE MEMBER TO
002469:                                                                                                  #        NAVIGATION BASE COORDINATES VIA SMNB IF NECESSARY.  THE
002470:                                                                                                  #        SHAFT AND TRUNNION COMMANDS ARE THEN CALCULATED AS FOLLOWS_
002471:                                                                                                  #                + SHAFT = LOS . (COS(S), 0, -SIN(S))  (DOT PRODUCT)
002472:                                                                                                  #                - TRUNNION = LOS . (SIN(T)SIN(S), COS(T), SIN(T)COS(S))
002473:                                                                                                  #        THE SIGN OF THE SHAFT COMMAND IS THEN REVERSED IF IN MODE 2
002474:                                                                                                  #        (RADMODES BIT 12) BECAUSE A RELAY IN THE RR REVERSES THE
002475:                                                                                                  #        POLARITY OF THE COMMAND.  AT RRSCALUP EACH COMMAND IS
002476:                                                                                                  #        SCALED AND IF EITHER, OR BOTH, OF THE COMMANDS IS GREATER THAN
002477:                                                                                                  #        .5 DEGREES, MPAC +1 IS SET POSITIVE.  IF A CONTINUOUS DESIGNATE
002478:                                                                                                  #        (RADMODES BIT 15) IS DESIRED AND THE SEARCH ROUTINE IS NOT OPERATING,
002479:                                                                                                  #        THE RR AUTO TRACKER ENABLE BIT (CHAN 12 BIT 14) IS CLEARED AND RROUT
002480:                                                                                                  #        CALLED TO PUT OUT THE COMMANDS PROVIDED NO REPOSITION (RADMODES BIT 11)
002481:                                                                                                  #        IS IN PROGRESS.  IF A CONTINUOUS DESIGNATE AND THE SEARCH ROUTINE IS
002482:                                                                                                  #        OPERATING (SRCHOPT FLAG SET) THE TRACK ENABLE IS NOT CLEARED.  IF NO
002483:                                                                                                  #        CONTINUOUS DESIGNATE AND BOTH COMMANDS ARE NOT LESS THAN .5 DEGREES AS
002484:                                                                                                  #        INDICATED BY MPAC +1, THE RR AUTO TRACKER ENABLE BIT (CHAN 12 BIT 14) IS
002485:                                                                                                  #        CLEARED AND RROUT CALLED TO PUT OUT THE COMMANDS PROVIDED NO REPOSITION
002486:                                                                                                  #        (RADMODES BIT 11) IS IN PROGRESS.  IF BOTH COMMANDS ARE LESS THAN .5
002487:                                                                                                  #        DEGREES AS INDICATED BY MPAC+1, THE RR AUTO TRACKER ENABLE BIT
002488:                                                                                                  #        (CHAN 12 BIT 14) IS CLEARED AND RROUT CALLED TO PUT OUT THE
002489:                                                                                                  #        COMMANDS PROVIDED NO REPOSITION (RADMODES BIT 11) IS IN
002490:                                                                                                  #        PROGRESS.  IF BOTH COMMANDS ARE LESS THAN .5 DEGREES, THE
002491:                                                                                                  #        LOCK-ON FLAG (STATE BIT 5) IS CHECKED.  IF NOT PRESENT, THE
002492:                                                                                                  #        DESIGNATE FLAG (RADMODES BIT 10) IS CLEARED, THE RR ERROR
002493:                                                                                                  #        COUNTER ENABLE BIT (CHAN 12 BIT 2) IS CLEARED, AND ENDOFJOB
002494:                                                                                                  #        CALLED. IF LOCK-ON IS DESIRED, THE RR AUTO TRACKER (CHAN 12
002495:                                                                                                  #        BIT 14) IS ENABLED FOLLOWED BY A CHECK OF THE RECEIPT OF THE
002496:                                                                                                  #        RR DATA GOOD (CHAN 33 BIT 4) SIGNAL.  IF RR DATA GOOD
002497:                                                                                                  #        PRESENT, THE DESIGNATE FLAG (RADMODES BIT 10) IS CLEARED,
002498:                                                                                                  #        THE RR ERROR COUNTER ENABLE BIT (CHAN 12 BIT 2) IS CLEARED,
002499:                                                                                                  #        AND ENDOFJOB CALLED.  IF RR DATA GOOD IS NOT PRESENT, RROUT
002500:                                                                                                  #        IS CALLED TO PUT OUT THE COMMANDS PROVIDED NO REPOSITION
002501:                                                                                                  #        (RADMODES BIT 11) IS IN PROGRESS AFTER WHICH THE JOB IS TERMINATED
002502:                                                                                                  #        VIA ENDOFJOB.
002503:
002504:                                                                                                  #  CALLING SEQUENCE:
002505:
002506:                                                                                                  #        EXECUTIVE CALL EVERY .5 SECONDS FROM BEGDES.
002507:
002508:                                                                                                  #  ERASABLE INITIALIZATION REQUIRED:
002509:
002510:                                                                                                  #        RRTARGET (HALF-UNIT LOS VECTOR IN EITHER SM OR NB COORDINATES),
002511:                                                                                                  #        LOKONSW (STATE BIT 5), RRNBSW (STATE BIT 6), RADMODES
002512:
002513:                                                                                                  #  SUBROUTINES CALLED_
002514:
002515:                                                                                                  #        READCDUS, SMNB, CDULOGIC, MAGSUB, RROUT


002517:
002518:                                                                                                  #  JOBS OR TASKS INITIATED_
002519:
002520:                                                                                                  #        NONE
002521:
002522:                                                                                                  #  ALARMS_  NONE
002523:
002524:                                                                                                  #  EXIT_  ENDOFJOB (ALWAYS)
002525:
002526: 25,2636           00006        DODES              EXTEND
002527: 25,2637           30036                           DCA      CDUT
002528: 25,2640           53110                           DXCH     TANG
002529:
002530: 25,2641           06037                           TC       INTPRET
002531:
002532: 25,2642           77201                           SETPD    VLOAD
002533: 25,2643           00001                                    0
002534: 25,2644           01102                                    RRTARGET
002535: 25,2645           74214                           BON      VXSC
002536: 25,2646           00311                                    RRNBSW
002537: 25,2647           52661                                    DONBRD                                #  TARGET IN NAV-BASE COORDINATES
002538: 25,2650           01767                                    MLOSV                                 #  MULTIPLY UNIT LOS BY MAGNITUDE
002539: 25,2651           63372                           VSL1     PDVL
002540: 25,2652           01761                                    LOSVEL
002541: 25,2653           53361                           VXSC     VAD                                   #  ADD ONE SECOND RELATIVE VELOCITY TO LOS
002542: 25,2654           13072                                    MCTOMS
002543: 25,2655           45056                           UNIT     CALL
002544: 25,2656           47537                                    CDUTRIG
002545: 25,2657           77624                           CALL
002546: 25,2660           47671                                    *SMNB*
002547:
002548: 25,2661           14041        DONBRD             STODL    32D
002549: 25,2662           01111                                    TANG       +1
002550: 25,2663           41434                           RTB      PUSH                                  #  SHAFT COMMAND = V(32D).(COS(S), 0,
002551: 25,2664           21576                                    CDULOGIC                              #        (-SIN(S)).
002552: 25,2665           65356                           SIN      PDDL                                  #  SIN(S) TO 0 AND COS(S) TO 2.
002553: 25,2666           41546                           COS      PUSH
002554: 25,2667           65205                           DMP      PDDL
002555: 25,2670           00041                                    32D
002556: 25,2671           00045                                    36D
002557: 25,2672           44205                           DMP      BDSU
002558: 25,2673           00001                                    0
002559: 25,2674           77626                           STADR
002560: 25,2675           76666                           STORE    TANG       +1                         #  SHAFT COMMAND
002561:
002562: 25,2676           47135                           SLOAD    RTB
002563: 25,2677           01110                                    TANG
002564: 25,2700           21576                                    CDULOGIC
002565: 25,2701           71406                           PUSH     COS                                   #  COS(T) TO 4.
002566: 25,2702           73525                           PDDL     SIN
002567: 25,2703           41206                           PUSH     DMP                                   #  SIN(T) TO 6.
002568: 25,2704           00003                                    2


002570: 25,2705           65352                           SL1      PDDL                                  #  DEFINE VECTOR U =     (SIN(T)SIN(S))
002571: 25,2706           00005                                    4                                     #                        (   COS(T)   )
002572: 25,2707           41325                           PDDL     DMP                                   #                        (SIN(T)COS(S))
002573: 25,2710           00007                                    6
002574: 25,2711           00001                                    0
002575: 25,2712           55552                           SL1      VDEF
002576: 25,2713           77441                           DOT      EXIT                                  #  DOT U WITH LOS TO GET TRUNNION COMMAND.
002577: 25,2714           00041                                    32D
002578:


002580:                                                                                                  #  AT THIS POINT WE HAVE A ROTATION VECTOR IN DISH AXES LYING IN THE TS PLANE.  CONVERT THIS TO A
002581:                                                                                                  #  COMMANDED RATE AND ENABLE THE TRACKER IF WE ARE WITHIN .5 DEGREES OF THE TARGET.
002582:
002583: 25,2715           40154                           CS       MPAC                                  #  DOT WAS NEGATIVE OF DESIRED ANGLE.
002584: 25,2716           00006                           EXTEND
002585: 25,2717           73066                           MP       RDESGAIN                              #  SCALING ON INPUT ANGLE WAS 4 RADIANS.
002586: 25,2720           55107                           TS       TANG                                  #  TRUNNION COMMAND.
002587: 25,2721           40110                           CS       RADMODES                              #  A RELAY IN THE RR REVERSES POLARITY OF
002588: 25,2722           74740                           MASK     BIT12                                 #  THE SHAFT COMMANDS IN MODE 2 SO THAT A
002589: 25,2723           00006                           EXTEND                                         #  POSITIVE TORQUE APPLIED TO THE SHAFT
002590: 25,2724           12727                           BZF      +3                                    #  GYRO CAUSES A POSITIVE CHANGE IN THE
002591: 25,2725           31110                           CA       TANG       +1                         #  SHAFT ANGLE.  COMPENSATE FOR THIS SWITCH
002592: 25,2726           12730                           TCF      +2                                    #  BY CHANGING THE POLARITY OF OUR COMMAND.
002593: 25,2727           41110                 +3        CS       TANG       +1
002594: 25,2730           00006                           EXTEND
002595: 25,2731           73066                           MP       RDESGAIN                              #  SCALING ON INPUT ANGLE WAS 4 RADIANS.
002596: 25,2732           55110                           TS       TANG       +1                         #  SHAFT COMMAND.
002597: 25,2733           06037                           TC       INTPRET
002598:
002599: 25,2734           41345                           DLOAD    DMP
002600: 25,2735           00003                                    2                                     #  COS(S).
002601: 25,2736           00005                                    4                                     #  COS(T).
002602: 25,2737           65352                           SL1      PDDL                                  #  Z COMPONENT OF URR.
002603: 25,2740           65276                           DCOMP    PDDL                                  #  Y COMPONENT = -SIN(T).
002604: 25,2741           00001                                    0                                     #  SIN(S).
002605: 25,2742           72405                           DMP      SL1
002606: 25,2743           00005                                    4                                     #  COS(T).
002607: 25,2744           43066                           VDEF     BON                                   #  FORM URR IN NB AXES.
002608: 25,2745           00311                                    RRNBSW                                #  BYPASS NBSM CONVERSION IN VERB 41.
002609: 25,2746           52751                                    +3
002610: 25,2747           77624                           CALL
002611: 25,2750           47673                                    *NBSM*                                #  GET URR IN SM AXES.
002612: 25,2751           77441                           DOT      EXIT
002613: 25,2752           01102                                    RRTARGET                              #  GET COSINE OF ANGLE BETWEEN RR AND LOS.
002614:
002615: 25,2753           00006                           EXTEND
002616: 25,2754           43070                           DCS      COS1/2DG
002617: 25,2755           20155                           DAS      MPAC                                  #  DIFFERENCE OF COSINES, SCALED B-2.
002618: 25,2756           10154                           CCS      MPAC
002619: 25,2757           34755                           CA       ZERO                                  #  IF COS ERROR BIGGER, ERROR IS SMALLER.
002620: 25,2760           12762                           TCF      +2
002621: 25,2761           34753                           CA       ONE
002622: 25,2762           54155                           TS       MPAC       +1                         #  ZERO IF RR IS POINTED OK, ONE IF NOT.


002624:                                                                                                  #  SEE IF TRACKER SHOULD BE ENABLED OR DISABLED.
002625:
002626: 25,2763           10110                           CCS      RADMODES                              #  IF CONTINUOUS DESIGNATE WANTED, PUT OUT
002627: 25,2764           12767                           TCF      SIGNLCHK                              #  COMMANDS WITHOUT CHECKING MAGNITUDE OF
002628: 25,2765           12767                           TCF      SIGNLCHK                              #  ERROR SIGNALS
002629: 25,2766           13017                           TCF      DORROUT
002630: 25,2767           10155        SIGNLCHK           CCS      MPAC       +1                         #  SEE IF BOTH AXES WERE WITHIN .5 DEGS.
002631: 25,2770           13000                           TCF      DGOODCHK
002632: 25,2771           40074                           CS       STATE                                 #  IF WITHIN LIMITS AND NO LOCK-ON WANTED,
002633: 25,2772           74747                           MASK     LOKONBIT                              #  PROBLEM IS FINISHED.
002634: 25,2773           10000                           CCS      A
002635: 25,2774           13005                           TCF      RRDESDUN
002636:
002637: 25,2775           34736                           CAF      BIT14                                 #  ENABLE THE TRACKER.
002638: 25,2776           00006                           EXTEND
002639: 25,2777           05012                           WOR      CHAN12
002640:
002641: 25,3000           34750        DGOODCHK           CAF      BIT4                                  #  SEE IF DATA GOOD RECEIVED YET
002642: 25,3001           00006                           EXTEND
002643: 25,3002           02033                           RAND     CHAN33
002644: 25,3003           10000                           CCS      A
002645: 25,3004           13017                           TCF      DORROUT
002646:
002647: 25,3005           44742        RRDESDUN           CS       BIT10                                 #  WHEN PROBLEM DONE, REMOVE BIT 10 SO NEXT
002648: 25,3006           70110                           MASK     RADMODES                              #  WAITLIST TASK WE WILL GO TO RGOODEND.
002649: 25,3007           00004                           INHINT
002650: 25,3010           54110                           TS       RADMODES
002651:
002652: 25,3011           05516                           TC       DOWNFLAG                              #  RESET LOSCMFLG TO PREVENT A
002653: 25,3012           00041                           ADRES    LOSCMFLG                              #  RECOMPUTATION OF LOS AFTER DATA GOOD
002654: 25,3013           44752                           CS       BIT2                                  #  TURN OFF ENABLE RR ERROR COUNTER
002655: 25,3014           00006                           EXTEND
002656: 25,3015           03012                           WAND     CHAN12
002657: 25,3016           15155                           TCF      ENDOFJOB                              #  WITH ECTR DISABLED.
002658:
002659: 25,3017           30076        DORROUT            CA       FLAGWRD2                              #  IF BOTH LOSCMFLAG AND SEARCH FLAG ARE
002660: 25,3020           77712                           MASK     BIT12,14                              #  ZERO, BYPASS VELOCITY ADJUSTMENT TO LOS
002661: 25,3021           00006                           EXTEND
002662: 25,3022           13041                           BZF      NOTP20
002663: 25,3023           06037                           TC       INTPRET
002664: 25,3024           74375                           VLOAD    VXSC                                  #  MULTIPLY UNIT LOS BY MAGNITUDE
002665: 25,3025           01102                                    RRTARGET
002666: 25,3026           01767                                    MLOSV
002667: 25,3027           41572                           VSL1     PUSH
002668: 25,3030           74375                           VLOAD    VXSC                                  #  ADD .5 SEC. OF VELOCITY
002669: 25,3031           01761                                    LOSVEL                                #  TO LOS VECTOR
002670: 25,3032           13072                                    MCTOMS
002671: 25,3033           53362                           VSR1     VAD
002672: 25,3034           77656                           UNIT
002673: 25,3035           15102                           STODL    RRTARGET                              #  STORE VELOCITY-CORRECTED LOS (UNIT)


002675: 25,3036           00045                                    36D
002676: 25,3037           01767                           STORE    MLOSV                                 #  AND STORE MAGNITUDE
002677: 25,3040           77776                           EXIT
002678: 25,3041           00004        NOTP20             INHINT
002679: 25,3042           40110                           CS       RADMODES                              #  PUT OUT COMMAND UNLESS MONITOR
002680: 25,3043           74741                           MASK     REPOSBIT                              #  REPOSITION HAS TAKEN OVER.
002681: 25,3044           10000                           CCS      A
002682: 25,3045           02306                           TC       RROUT
002683:
002684: 25,3046           30076                           CA       FLAGWRD2
002685: 25,3047           74740                           MASK     LOSCMBIT                              #  IF LOSCMFLG NOT SET, DON'T TEST
002686: 25,3050           00006                           EXTEND                                         #  LOS COUNTER
002687: 25,3051           15155                           BZF      ENDOFJOB
002688: 25,3052           11456                           CCS      LOSCOUNT                              #  TEST LOS COUNTER TO SEE IF TIME TO GET
002689: 25,3053           03064                           TC       DODESEND                              #  A NEW LOS
002690: 25,3054           00004                           INHINT
002691: 25,3055           06027                           TC       KILLTASK                              #  YES - KILL TASK WHICH SCHEDULES DODES
002692: 25,3056           52602                           CADR     DESLOOP    +2
002693: 25,3057           00003                           RELINT
002694: 25,3060           10067                           CCS      NEWJOB
002695: 25,3061           05122                           TC       CHANG1
002696: 25,3062           04616                           TC       BANKCALL
002697: 25,3063           50731                           CADR     R21LEM2
002698:
002699: 25,3064           55456        DODESEND           TS       LOSCOUNT
002700: 25,3065           05155                           TC       ENDOFJOB
002701:
002702: 25,3066           21122        RDESGAIN           DEC      .53624                                #  TRIES TO NULL .5 ERROR IN .5 SEC.
002703: 25,3067     7712               BIT12,14           EQUALS   PRIO24                                #  OCT 24000
002704: 25,3067           07777 33005  COS1/2DG           2DEC     .999961923 B-2                        #  COSINE OF 0.5 DEGREES.
002705: 25,3071           00310 00000  MCTOMS             2DEC     100        B-13
002706:


002708:                                                                                                  #  RADAR READ INITIALIZATION
002709:
002710:                                                                                                  #  RADAR DATA ARE READ BY A BANKCALL FOR THE APPROPRIATE LEAD-IN BELOW.
002711:
002712: 25,3073           03113        LRALT              TC       INITREAD   -1                         #  ONE SAMPLE PER READING.
002713: 25,3074           00017        ALLREAD            OCT      17
002714:
002715: 25,3075           03114        LRVELZ             TC       INITREAD
002716: 25,3076           00016                           OCT      16
002717:
002718: 25,3077           03114        LRVELY             TC       INITREAD
002719: 25,3100           00015                           OCT      15
002720:
002721: 25,3101           03114        LRVELX             TC       INITREAD
002722: 25,3102           00014                           OCT      14
002723:
002724: 25,3103           03113        RRRDOT             TC       INITREAD   -1
002725: 25,3104           00012                           OCT      12
002726:
002727: 25,3105           03113        RRRANGE            TC       INITREAD   -1
002728: 25,3106           00011                           OCT      11
002729:
002730:                                                                                                  #  LRVEL IS THE ENTRY TO THE LR VELOCITY READ ROUTINE WHEN 5 SAMPLES ARE
002731:                                                                                                  #  WANTED.  ENTER WITH C(A)= 0,2,4 FOR LRVELZ,LRVELY,LRVELX RESP.
002732:
002733: 25,3107           55105        LRVEL              TS       TIMEHOLD                              #  STORE VBEAM INDEX HERE MOMEMTARILY
002734: 25,3110           34756                           CAF      FIVE                                  #  SPECIFY FIVE SAMPLES
002735: 25,3111           51105                           INDEX    TIMEHOLD
002736: 25,3112           13075                           TCF      LRVELZ
002737:


002739: 25,3113           34753                 -1        CAF      ONE                                   #  ENTRY TO TAKE ONLY 1 SAMPLE.
002740: 25,3114           00004        INITREAD           INHINT
002741:
002742: 25,3115           55105                           TS       TIMEHOLD                              #  GET DT OF MIDPOINT OF NOMINAL SAMPLING
002743: 25,3116           00006                           EXTEND                                         #  INTERVAL (ASSUMES NO BAD SAMPLES WILL BE
002744: 25,3117           74751                           MP       BIT3                                  #  ENCOUNTERED).
002745: 25,3120           53106                           DXCH     TIMEHOLD
002746:
002747: 25,3121           10000                           CCS      A
002748: 25,3122           55111                           TS       NSAMP
002749: 25,3123           64753                           AD       ONE
002750:                                                                                                  #  INSERT FOLLOWING INSTRUCTION TO GET 2N TRIES FOR N SAMPLES.
002751:                                                                                                  #                DOUBLE
002752: 25,3124           55100                           TS       SAMPLIM
002753:
002754: 25,3125           33147                           CAF      DGBITS                                #  READ CURRENT VALUE OF DATA GOOD BITS.
002755: 25,3126           00006                           EXTEND
002756: 25,3127           02033                           RAND     CHAN33
002757: 25,3130           55113                           TS       OLDATAGD
002758:
002759: 25,3131           43074                           CS       ALLREAD
002760: 25,3132           00006                           EXTEND
002761: 25,3133           03013                           WAND     CHAN13                                #  REMOVE ALL RADAR BITS
002762:
002763: 25,3134           50002                           INDEX    Q
002764: 25,3135           30000                           CAF      0
002765: 25,3136           00006                           EXTEND
002766: 25,3137           05013                           WOR      CHAN13                                #  SET NEW RADAR BITS
002767:
002768: 25,3140           00006                           EXTEND
002769: 25,3141           30025                           DCA      TIME2
002770: 25,3142           21106                           DAS      TIMEHOLD                              #  TIME OF NOMINAL MIDPOINT.
002771:
002772: 25,3143           34755                           CAF      ZERO
002773: 25,3144           54001                           TS       L
002774: 25,3145           53102                           DXCH     SAMPLSUM
002775: 25,3146           12366                           TCF      ROADBACK
002776:
002777: 25,3147           00230        DGBITS             OCT      230
002778:


002780:                                                                                                  #  RADAR RUPT READER
002781:
002782:                                                                                                  #  THIS ROUTINE STARTS FROM A RADARUPT.  IT READS THE DATA $ LOTS MORE.
002783:
002784: 25,2000                                           SETLOC   RADARUPT
002785: 25,2000                                           BANK
002786:
002787: 25,3150                                           COUNT*   $$/RRUPT
002788: 25,3150           00006        RADAREAD           EXTEND                                         #  MUST SAVE SBANK BECAUSE OF RUPT EXITS
002789: 25,3151           04007                           ROR      SUPERBNK                              #  VIA TASKOVER (BADEND OR GOODEND.
002790: 25,3152           54016                           TS       BANKRUPT
002791: 25,3153           00006                           EXTEND
002792: 25,3154           22012                           QXCH     QRUPT
002793:
002794: 25,3155           34757                           CAF      SEVEN
002795: 25,3156           00006                           EXTEND
002796: 25,3157           02013                           RAND     CHAN13
002797: 25,3160           55335                           TS       DNINDEX
002798: 25,3161           00006                           EXTEND                                         #  IF RADAR SELECT BITS ZERO, DO NOT STORE
002799: 25,3162           13166                           BZF      TRYCOUNT                              #  DATA FOR DOWNLIST (ERASABLE PROBLEMS)
002800: 25,3163           30046                           CA       RNRAD
002801: 25,3164           51335                           INDEX    DNINDEX
002802: 25,3165           55332                           TS       DNRRANGE   -1
002803: 25,3166           11100        TRYCOUNT           CCS      SAMPLIM
002804: 25,3167           13211                           TCF      PLENTY
002805: 25,3170           13174                           TCF      NOMORE
002806: 25,3171           05567                           TC       ALARM
002807: 25,3172           00520                           OCT      520
002808: 25,3173           05270                           TC       RESUME
002809:
002810: 25,3174           30107        NOMORE             CA       FLGWRD11                              #  IS LRBYPASS SET?
002811: 25,3175           74735                           MASK     LRBYBIT
002812: 25,3176           00006                           EXTEND
002813: 25,3177           13206                           BZF      BADRAD                                #  NO.  R12 IS ON -- BYPASS 521 ALARM.
002814:
002815: 25,3200           40077                           CS       FLAGWRD3                              #  CHECK R04FLAG.
002816: 25,3201           74743                           MASK     R04FLBIT                              #  IF 1, R04 IS RUNNING.  DO NOT ALARM-
002817: 25,3202           00006                           EXTEND
002818: 25,3203           13206                           BZF      BADRAD
002819:
002820: 25,3204           05567                           TC       ALARM                                 #  P20 WANTS THE ALARM.
002821: 25,3205           00521                           OCT      521
002822: 25,3206           44753        BADRAD             CS       ONE
002823: 25,3207           55100                           TS       SAMPLIM
002824: 25,3210           03560                           TC       RDBADEND   -2
002825: 25,3211           55100        PLENTY             TS       SAMPLIM
002826: 25,3212           34751                           CAF      BIT3
002827: 25,3213           00006                           EXTEND
002828: 25,3214           02013                           RAND     CHAN13                                #  TO FIND OUT WHICH RADAR
002829: 25,3215           00006                           EXTEND


002831: 25,3216           13276                           BZF      RENDRAD
002832:
002833: 25,3217           03364                           TC       R77CHECK                              #  R77 QUITS HERE.
002834: 25,3220           30110        LRPOSCHK           CA       RADMODES                              #  SEE IF LR IN DESIRED POSITION.
002835: 25,3221           00006                           EXTEND
002836: 25,3222           06033                           RXOR     CHAN33
002837: 25,3223           74746                           MASK     BIT6
002838: 25,3224           00006                           EXTEND
002839: 25,3225           13231                           BZF      VELCHK
002840:
002841: 25,3226           05567                           TC       ALARM
002842: 25,3227           00522                           OCT      522
002843: 25,3230           03206                           TC       BADRAD
002844:
002845: 25,3231           36245        VELCHK             CAF      BIN3                                  #  = 00003 OCT
002846: 25,3232           00006                           EXTEND
002847: 25,3233           06013                           RXOR     CHAN13                                #  RESET ACTIVITY BIT
002848: 25,3234           76245                           MASK     BIN3
002849: 25,3235           00006                           EXTEND
002850: 25,3236           13272                           BZF      LRHEIGHT                              #  TAKE A LR RANGE READING
002851:
002852: 25,3237           34733                           CAF      POSMAX
002853: 25,3240           70046                           MASK     RNRAD
002854: 25,3241           62000                           AD       LVELBIAS
002855: 25,3242           54001                           TS       L
002856: 25,3243           30046                           CAE      RNRAD
002857: 25,3244           60000                           DOUBLE
002858: 25,3245           74753                           MASK     BIT1
002859: 25,3246           52064                           DXCH     ITEMP3
002860:
002861: 25,3247           34744                           CAF      BIT8                                  #  DATA GOOD ISNT CHECKED UNTIL AFTER READ-
002862: 25,3250           03442                           TC       DGCHECK                               #  ING DATA SO SOME RADAR TESTS WILL WORK
002863:                                                                                                  #  INDEPENDENT OF DATA GOOD.
002864:
002865: 25,3251           11111                           CCS      NSAMP
002866: 25,3252           03262                           TC       NOEND
002867: 25,3253           44753        GOODRAD            CS       ONE
002868: 25,3254           55100                           TS       SAMPLIM
002869: 25,3255           40061                           CS       ITEMP1                                #  WHEN ENOUGH GOOD DATA HAS BEEN GATHERED,
002870: 25,3256           70110                           MASK     RADMODES                              #  RESET DATA FAIL FLAGS FOR SETTRKF.
002871: 25,3257           54110                           TS       RADMODES
002872: 25,3260           03616                           TC       RADLITES                              #  LAMPS MAY GO OFF IF DATA JUST GOOD.
002873: 25,3261           03553                           TC       RGOODEND   -2
002874:
002875: 25,3262           55111        NOEND              TS       NSAMP
002876: 25,3263           11100        RESAMPLE           CCS      SAMPLIM                               #  SEE IF ANY MORE TRIES SHOULD BE MADE.
002877: 25,3264           13266                           TCF      +2
002878: 25,3265           13461                           TCF      DATAFAIL                              #  N SAMPLES NOT AVAILABLE.
002879: 25,3266           34750                           CAF      BIT4                                  #  RESET ACTIVITY BIT.
002880: 25,3267           00006                           EXTEND


002882: 25,3270           05013                           WOR      CHAN13                                #  RESET ACTIVITY BIT
002883: 25,3271           05270                           TC       RESUME
002884:
002885:
002886: 25,3272           34747        LRHEIGHT           CAF      BIT5
002887: 25,3273           54061                           TS       ITEMP1                                #  (POSITION OF DATA GOOD BIT IN CHAN 33)
002888:
002889: 25,3274           34743                           CAF      BIT9
002890: 25,3275           03320                           TC       SCALECHK   -1
002891:
002892: 25,3276           34741        RENDRAD            CAF      REPOSBIT                              #  MAKE SURE ANTENNA HAS NOT GONE OUT OF
002893: 25,3277           70110                           MASK     RADMODES                              #  LIMITS.
002894: 25,3300           10000                           CCS      A
002895: 25,3301           13206                           TCF      BADRAD
002896:
002897: 25,3302           40110                           CS       RADMODES                              #  BE SURE RR CDU HASNT FAILED.
002898: 25,3303           74745                           MASK     RCDUFBIT
002899: 25,3304           10000                           CCS      A
002900: 25,3305           13206                           TCF      BADRAD
002901:
002902: 25,3306           34750                           CAF      BIT4                                  #  SEE IF DATA HAS BEEN GOOD.
002903: 25,3307           54061                           TS       ITEMP1                                #  (POSITION OF DATA GOOD BIT IN CHAN 33)
002904:
002905: 25,3310           34753                           CAF      BIT1                                  #  SEE IF RR RDOT.
002906: 25,3311           00006                           EXTEND
002907: 25,3312           02013                           RAND     CHAN13
002908: 25,3313           54002                           TS       Q                                     #  FOR LATER TESTING.
002909: 25,3314           10000                           CCS      A
002910: 25,3315           13317                           TCF      +2
002911: 25,3316           13331                           TCF      RADIN                                 #  NO SCALE CHECK FOR RR RDOT.
002912: 25,3317           34751                           CAF      BIT3
002913: 25,3320           54001                           TS       L
002914:
002915: 25,3321           00006        SCALECHK           EXTEND
002916: 25,3322           02033                           RAND     CHAN33                                #  SCALE STATUS NOW
002917: 25,3323           56001                           XCH      L
002918: 25,3324           70110                           MASK     RADMODES                              #  SCALE STATUS BEFORE
002919: 25,3325           00006                           EXTEND
002920: 25,3326           06001                           RXOR     LCHAN                                 #  SEE IF THEY DIFFER
002921: 25,3327           10000                           CCS      A
002922: 25,3330           03350                           TC       SCALCHNG                              #  THEY DIFFER
002923:
002924: 25,3331           34733        RADIN              CAF      POSMAX
002925: 25,3332           70046                           MASK     RNRAD
002926: 25,3333           54064                           TS       ITEMP4
002927:
002928: 25,3334           30046                           CAE      RNRAD
002929: 25,3335           60000                           DOUBLE
002930: 25,3336           74753                           MASK     BIT1
002931: 25,3337           54063                           TS       ITEMP3


002933: 25,3340           10002                           CCS      Q                                     #  SEE IF RR RDOT.
002934: 25,3341           13402                           TCF      SCALADJ                               #  NO, BUT SCALE CHANGING MAY BE NEEDED.
002935:
002936: 25,3342           00006                           EXTEND                                         #  IF RR RANGE RATE, THROW OUT BIAS.
002937: 25,3343           42002                           DCS      RDOTBIAS
002938: 25,3344           20064        DASAMPL            DAS      ITEMP3
002939: 25,3345           30061        DGCHECK2           CA       ITEMP1                                #  SEE THAT DATA HAS BEEN GOOD BEFORE AND
002940: 25,3346           03443                           TC       DGCHECK    +1                         #  AFTER TAKING SAMPLE.
002941: 25,3347           03253                           TC       GOODRAD
002942:
002943: 25,3350           22110        SCALCHNG           LXCH     RADMODES
002944: 25,3351           64753                           AD       BIT1
002945: 25,3352           00006                           EXTEND
002946: 25,3353           06001                           RXOR     LCHAN
002947: 25,3354           54110                           TS       RADMODES
002948: 25,3355           33147                           CAF      DGBITS                                #  UPDATE LAST VALUE OF DATA GOOD BITS.
002949: 25,3356           00006                           EXTEND
002950: 25,3357           02033                           RAND     CHAN33
002951: 25,3360           55113                           TS       OLDATAGD
002952: 25,3361           05504                           TC       UPFLAG                                #  SET RNGSCFLG
002953: 25,3362           00120                           ADRES    RNGSCFLG                              #  FOR LRS24.1
002954: 25,3363           13206                           TCF      BADRAD
002955:
002956:                                                                                                  #  R77 MUST IGNORE DATA FAILS SO AS NOT TO DISTURB THE ASTRONAUT.
002957:
002958: 25,3364           40101        R77CHECK           CS       FLAGWRD5
002959: 25,3365           74741                           MASK     R77FLBIT
002960: 25,3366           10000                           CCS      A
002961: 25,3367           00002                           TC       Q                                     #  NOT R77
002962: 25,3370           43401                           CS       BITS5,8                               #  UPDATE LR DATA GOOD BITS IN RADMODES
002963: 25,3371           70110                           MASK     RADMODES
002964: 25,3372           54001                           TS       L
002965: 25,3373           33401                           CA       BITS5,8
002966: 25,3374           00006                           EXTEND
002967: 25,3375           02033                           RAND     CHAN33
002968: 25,3376           60001                           AD       L
002969: 25,3377           54110                           TS       RADMODES
002970: 25,3400           03553                           TC       RGOODEND   -2
002971: 25,3401           00220        BITS5,8            OCT      220
002972:


002974:                                                                                                  #  THE FOLLOWING ROUTINE INCORPORATES RR RANGE AND LR ALT SCALE INFORMATION AND LEAVES DATA AT LO SCALE.
002975:
002976: 25,3402           10001        SCALADJ            CCS      L                                     #  L HAS SCALE INBIT FOR THIS RADAR.
002977: 25,3403           13405                           TCF      +2                                    #  ON HIGH SCALE.
002978: 25,3404           13345                           TCF      DGCHECK2
002979:
002980: 25,3405           31335                           CA       DNINDEX
002981: 25,3406           74751                           MASK     BIT3
002982: 25,3407           10000                           CCS      A
002983: 25,3410           13417                           TCF      LRSCK
002984:
002985: 25,3411           52064                           DXCH     ITEMP3
002986: 25,3412           20001                           DDOUBL
002987: 25,3413           20001                           DDOUBL
002988: 25,3414           20001                           DDOUBL
002989: 25,3415           52064                           DXCH     ITEMP3
002990:
002991: 25,3416           13345                           TCF      DGCHECK2
002992:
002993: 25,3417           10063        LRSCK              CCS      ITEMP3
002994: 25,3420           13431                           TCF      +11
002995: 25,3421           40064                           CS       ITEMP4
002996: 25,3422           63441                           AD       HISCALIM
002997: 25,3423           00006                           EXTEND
002998: 25,3424           63431                           BZMF     +5
002999:
003000: 25,3425           40107                           CS       FLGWRD11
003001: 25,3426           74751                           MASK     SCABBIT
003002: 25,3427           26107                           ADS      FLGWRD11
003003: 25,3430           13434                           TCF      +4
003004:
003005: 25,3431           44751                           CS       SCABBIT
003006: 25,3432           70107                           MASK     FLGWRD11
003007: 25,3433           54107                           TS       FLGWRD11
003008:
003009: 25,3434           00006                           EXTEND
003010: 25,3435           30064                           DCA      ITEMP3
003011: 25,3436           20001                           DDOUBL
003012: 25,3437           20001                           DDOUBL
003013: 25,3440           13344                           TCF      DASAMPL
003014:
003015: 25,3441           00714        HISCALIM           DEC      460        B-14                       #  2481.7 FT *****************************


003017: 25,3442           54061        DGCHECK            TS       ITEMP1                                #  UPDATE DATA GOOD BIT IN OLDATAGD AND
003018: 25,3443           00006                           EXTEND                                         #  MAKE SURE IT WAS ON BEFORE AND AFTER THE
003019: 25,3444           02033                           RAND     CHAN33                                #  SAMPLE WAS TAKEN BEFORE RETURNING.  IF
003020: 25,3445           54001                           TS       L                                     #  NOT, GOES TO RESAMPLE TO TRY AGAIN.  IF
003021: 25,3446           40061                           CS       ITEMP1                                #  MAX NUMBER OF TRIES HAS BEEN REACHED,
003022: 25,3447           71113                           MASK     OLDATAGD                              #  THE BIT CORRESPONDING TO THE DATA GOOD
003023: 25,3450           60001                           AD       L                                     #  WHICH FAILED TO APPEAR IS IN ITEMP1 AND
003024: 25,3451           57113                           XCH      OLDATAGD                              #  CAN BE USED TO SET RADMODES WHICH VIA
003025: 25,3452           70061                           MASK     ITEMP1                                #  SETTRKF SETS THE TRACKER FAIL LAMP.
003026: 25,3453           60001                           AD       L
003027: 25,3454           10000                           CCS      A                                     #  SHOULD BOTH BE ZERO.
003028: 25,3455           03263                           TC       RESAMPLE
003029: 25,3456           52064                           DXCH     ITEMP3                                #  IF DATA GOOD BEFORE AND AFTER, ADD TO
003030: 25,3457           21102                           DAS      SAMPLSUM                              #  ACCUMULATION.
003031: 25,3460           00002                           TC       Q
003032:
003033: 25,3461           40061        DATAFAIL           CS       ITEMP1                                #  IN THE ABOVE CASE, SET RADMODES BIT
003034: 25,3462           70110                           MASK     RADMODES                              #  SHOWING SOME RADAR DATA FAILED.
003035: 25,3463           60061                           AD       ITEMP1
003036: 25,3464           54110                           TS       RADMODES
003037:
003038: 25,3465           52064                           DXCH     ITEMP3                                #  IF WE HAVE BEEN UNABLE TO GATHER N
003039: 25,3466           53102                           DXCH     SAMPLSUM                              #  SAMPLES, USE LAST ONE ONLY.
003040: 25,3467           03616                           TC       RADLITES
003041: 25,3470           13174                           TCF      NOMORE


003043:                                                                                                  #  THIS ROUTINE CHANGES THE LR POSITION, AND CHECKS THAT IT GOT THERE.
003044:
003045: 25,2000                                           SETLOC   P20S1
003046: 25,2000                                           BANK
003047:
003048: 25,3471                                           COUNT*   $$/RSUB
003049: 25,3471           00004        LRPOS2             INHINT
003050:
003051: 25,3472           40110                           CS       RADMODES
003052: 25,3473           74746                           MASK     LRPOSBIT                              #  SHOW DESIRED LR POSITION IS 2
003053: 25,3474           26110                           ADS      RADMODES
003054:
003055: 25,3475           34745                           CAF      BIT7
003056: 25,3476           00006                           EXTEND
003057: 25,3477           02033                           RAND     CHAN33                                #  SEE IF ALREADY THERE.
003058: 25,3500           00006                           EXTEND
003059: 25,3501           13530                           BZF      RADNOOP
003060:
003061: 25,3502           34737                           CAF      BIT13
003062: 25,3503           00006                           EXTEND
003063: 25,3504           05012                           WOR      CHAN12                                #  COMMAND TO POSITION 2
003064: 25,3505           33545                           CAF      6SECS                                 #  START SCANNING FOR INBIT AFTER 7 SECS.
003065: 25,3506           05203                           TC       WAITLIST
003066: 25,3507  E7,1456                                  EBANK=   LOSCOUNT
003067: 25,3507           03543 52067                     2CADR    LRPOSCAN
003068:
003069: 25,3511           02366                           TC       ROADBACK
003070:
003071: 25,3512           55100        LRPOSNXT           TS       SAMPLIM
003072: 25,3513           05221                           TC       FIXDELAY                              #  SCAN ONCE PER SECOND 15 TIMES MAX AFTER
003073: 25,3514           00144                           DEC      100        B-14                       #  INITIAL DELAY OF 7 SECONDS.
003074:
003075: 25,3515           34745                           CAF      BIT7                                  #  SEE IF LR POS2 IS ON
003076: 25,3516           00006                           EXTEND
003077: 25,3517           02033                           RAND     CHAN33
003078: 25,3520           00006                           EXTEND
003079: 25,3521           13535                           BZF      LASTLRDT                              #  IF THERE, WAIT FINAL SECOND FOR BOUNCE.
003080:
003081: 25,3522           11100                           CCS      SAMPLIM                               #  SEE IF MAX TIME UP.
003082: 25,3523           13512                           TCF      LRPOSNXT
003083:
003084: 25,3524           44737                           CS       BIT13                                 #  IF TIME UP, DISABLE COMMAND AND ALARM.
003085: 25,3525           00006                           EXTEND
003086: 25,3526           03012                           WAND     CHAN12
003087: 25,3527           13562                           TCF      RDBADEND
003088:
003089: 25,3530           34753        RADNOOP            CAF      ONE                                   #  NO FURTHER ACTION REQUESTED.
003090: 25,3531           05203                           TC       WAITLIST
003091: 25,3532  E7,1456                                  EBANK=   LOSCOUNT
003092: 25,3532           03555 52067                     2CADR    RGOODEND


003094: 25,3534           02366                           TC       ROADBACK
003095:
003096: 25,3535           35000        LASTLRDT           CA       2SECS                                 #  WAIT TWO SECONDS AFTER RECEIPT OF INBIT
003097: 25,3536           05224                           TC       VARDELAY                              #  TO WAIT FOR ANTENNA BOUNCE TO DIE OUT.
003098:
003099: 25,3537           44737                           CS       BIT13                                 #  REMOVE COMMAND
003100: 25,3540           00006                           EXTEND
003101: 25,3541           03012                           WAND     CHAN12
003102: 25,3542           13555                           TCF      RGOODEND
003103:
003104: 25,3543           34317        LRPOSCAN           CAF      FOURTEEN                              #  SET UP FOR 15 SAMPLES.
003105: 25,3544           13512                           TCF      LRPOSNXT
003106: 25,3545           01130        6SECS              DEC      600        B-14


003108:                                                                                                  #  SEQUENCES TO TERMINATE RR OPERATIONS.
003109:
003110: 25,3546           34745        ENDRADAR           CAF      RCDUFBIT                              #  PROLOG TO CHECK RR CDU FAIL BEFORE END.
003111: 25,3547           70110                           MASK     RADMODES
003112: 25,3550           10000                           CCS      A
003113: 25,3551           13555                           TCF      RGOODEND
003114: 25,3552           13562                           TCF      RDBADEND
003115: 25,3553           44755                 -2        CS       ZERO                                  #  RGOODEND WHEN NOT UNDER WAITLIST CONTROL
003116: 25,3554           54734                           TS       RUPTAGN
003117:
003118: 25,3555           34752        RGOODEND           CAF      TWO
003119: 25,3556           04635                           TC       POSTJUMP
003120: 25,3557           17665                           CADR     GOODEND
003121:
003122: 25,3560           44755                 -2        CS       ZERO                                  #  RDBADEND WHEN NOT UNDER WAITLIST.
003123: 25,3561           54734                           TS       RUPTAGN
003124: 25,3562           34752        RDBADEND           CAF      TWO
003125: 25,3563           04635                           TC       POSTJUMP
003126: 25,3564           17662                           CADR     BADEND
003127:
003128: 25,3565     6245               BIN3               EQUALS   THREE
003129:


003131:                                                                                                  #  PROGRAM NAME_  LPS20.1 VECTOR EXTRAPOLATION AND LOS COMPUTATION
003132:                                                                                                  #  MOD. NO. 2    BY J.D. COYNE   SDC     DATE 12-7-66
003133:
003134:                                                                                                  #  FUNCTIONAL DESCRIPTION_
003135:                                                                                                  #        1)      EXTRAPOLATE THE LEM AND CSM VECTORS IN ACCORDANCE WITH THE TIME REFERED TO IN CALLER + 1.
003136:                                                                                                  #        2)      COMPUTES THE LOS VECTOR TO THE CSM, CONVERTS IT TO STABLE MEMBER COORDINATES AND STORES IT IN RRTARGET.
003137:                                                                                                  #        3)      COMPUTES THE MAGNITUDE OF THE LOS VECTOR AND STORES IT IN MLOSV
003138:
003139:                                                                                                  #  CALLING SEQUENCE      CALL
003140:                                                                                                  #                                LPS20.1
003141:
003142:                                                                                                  #  SUBROUTINES CALLED_
003143:                                                                                                  #        LEMPREC, CSMPREC
003144:
003145:                                                                                                  #  NORMAL EXIT_  RETURN TO CALLER + 2
003146:
003147:                                                                                                  #  ERROR EXITS_  NONE
003148:
003149:                                                                                                  #  ALARMS_  NONE
003150:
003151:                                                                                                  #  OUTPUT_
003152:                                                                                                  #        LOS VECTOR (HALF UNIT) IN SM COORDINATES STORED IN RRTARGET
003153:                                                                                                  #        MAGNITUDE OF THE LOS VECTOR (METERS SCALED B-29) STORED IN MSLOV
003154:                                                                                                  #        RRNBSW CLEARED
003155:
003156:                                                                                                  #  INITIALIZED ERASEABLE
003157:                                                                                                  #        TDEC1 MUST CONTAIN THE TIME FOR EXTRAPOLATION
003158:                                                                                                  #        SEE ORBITAL INTEGRATION ROUTINE
003159:
003160:                                                                                                  #  DEBRIS_
003161:                                                                                                  #        MPAC DESTROYED BY THIS ROUTINE
003162:
003163: 23,2314                                           BANK     23
003164: 24,2000                                           SETLOC   P20S
003165: 24,2000                                           BANK


003167: 24,3255                                           COUNT*   $$/LPS20
003168:
003169: 24,3255           43020        LPS20.1            STQ      BOFF
003170: 24,3256           01757                                    LS21X
003171: 24,3257           01343                                    LOSCMFLG                              #  LOSCMFLG = 0 MEANS NOT CALLED BY R21
003172: 24,3260           51264                                    LMINT                                 #  SO CALL LEMCONIC TO GET LM STATE
003173: 24,3261           77614                           BON                                            #  IF IN R21 AND ON LUNAR SURFACE
003174: 24,3262           04307                                    SURFFLAG                              #  DON'T CALL LEMCONIC
003175: 24,3263           51274                                    CSMINT
003176: 24,3264           77624        LMINT              CALL
003177: 24,3265           27100                                    LEMCONIC                              #  EXTRAPOLATE LEM
003178: 24,3266           77775                           VLOAD
003179: 24,3267           00001                                    RATT
003180: 24,3270           26352                           STOVL    LMPOS                                 #  SAVE LM POSITION B-29
003181: 24,3271           00007                                    VATT
003182: 24,3272           16360                           STODL    LMVEL                                 #  SAVE LM VELOCITY B-7
003183: 24,3273           00015                                    TAT
003184: 24,3274           34041        CSMINT             STCALL   TDEC1
003185: 24,3275           27066                                    CSMCONIC                              #  EXTRAPOLATE CSM
003186: 24,3276           52375                           VLOAD    VSU                                   #  COMPUTE RELATIVE VELOCITY V(CSM) - V(LM)
003187: 24,3277           00007                                    VATT
003188: 24,3300           02360                                    LMVEL
003189: 24,3301           76521                           MXV      VSL1
003190: 24,3302           01734                                    REFSMMAT
003191: 24,3303           77776                           EXIT
003192: 24,3304           06027                           TC       KILLTASK                              #  KILL THE TASK WHICH CALLS DODES SINCE
003193: 24,3305           52602                           CADR     DESLOOP    +2                         #  STORING INTO ERASEABLES DODES USES
003194: 24,3306           06037                           TC       INTPRET
003195: 24,3307           25761                           STOVL    LOSVEL
003196: 24,3310           00001                                    RATT
003197: 24,3311           43051                           VSU      BOFF
003198: 24,3312           02352                                    LMPOS
003199: 24,3313           00350                                    RNDVZFLG
003200: 24,3314           51321                                    NOTSHIFT
003201: 24,3315           77604                           BOVB
003202: 24,3316           57753                                    TCDANZIG
003203: 24,3317           77661                           VSL
003204: 24,3320           20212                                    9D
003205: 24,3321           41056        NOTSHIFT           UNIT     BOVB                                  #  IF OVERFLOW, RANGE MUST BE GREATER
003206: 24,3322           50102                                    526ALARM                              #  THAN 400 N. M.
003207: 24,3323           76521                           MXV      VSL1
003208: 24,3324           01734                                    REFSMMAT                              #  CONVERT TO STABLE MEMBER
003209: 24,3325           15102                           STODL    RRTARGET
003210: 24,3326           00045                                    36D                                   #  SAVE MAGNITUDE OF LOS VECTOR FOR
003211: 24,3327           01767                           STORE    MLOSV                                 #  VELOCITY CORRECTION IN DESIGNATE
003212: 24,3330           77614                           CLRGO
003213: 24,3331           00231                                    RRNBSW
003214: 24,3332           01757                                    LS21X
003215:


003217:                                                                                                  #  PROGRAM NAME_  LPS20.2  400 NM RANGE CHECK
003218:                                                                                                  #  MOD. NO. 2    BY J.D. COYNE   SDC     DATE 12-7-66
003219:
003220:                                                                                                  #  FUNCTIONAL DESCRIPTION_
003221:                                                                                                  #        COMPARES THE MAGNITUDE OF THE LOS VECTOR TO 400 NM
003222:
003223:                                                                                                  #  CALLING SEQUENCE      CALL
003224:                                                                                                  #                                LPS20.2
003225:
003226:                                                                                                  #  SUBROUTINES CALLED_  NONE
003227:
003228:                                                                                                  #  NORMAL EXIT_  RETURN TO CALLER +1, MPAC EQ 0 (RANGE 400NM OR LESS.)
003229:
003230:                                                                                                  #  ERROR EXITS_  RETURN TO CALLER +1, MPAC EQ 1 (RANGE GREATER THAN 400NM)
003231:
003232:                                                                                                  #  ALARMS_  NONE
003233:
003234:                                                                                                  #  OUTPUT_  NONE
003235:
003236:                                                                                                  #  INITIALIZED ERASEABLE_
003237:                                                                                                  #        PDL 36D MUST CONTAIN THE MAGNITUDE OF THE VECTOR
003238:
003239:                                                                                                  #  DEBRIS
003240:                                                                                                  #        MPAC DESTROYED BY THIS ROUTINE
003241:
003242: 25,2000                                           SETLOC   P20S1
003243: 25,2000                                           BANK
003244: 25,3565                                           COUNT*   $$/LPS20
003245:
003246: 25,3565           45345        LPS20.2            DLOAD    DSU
003247: 25,3566           01767                                    MLOSV                                 #  MAGNITUDE OF LOS
003248: 25,3567           13600                                    FHNM                                  #  OVER 400NM  _
003249: 25,3570           77644                           BPL
003250: 25,3571           53574                                    TOFAR
003251: 25,3572           43535                           SLOAD    RVQ
003252: 25,3573           06522                                    ZERO/SP
003253: 25,3574           43535        TOFAR              SLOAD    RVQ
003254: 25,3575           13577                                    ONE/SP
003255: 25,3576           00001        ONE/SP             DEC      1          B-14


003257: 25,3577           26467 00000  FHNM               2DEC     740800     B-20                       #  400 NAUTICAL MILES IN METERS B-20
003258:


003260:                                                                                                  #  PROGRAM NAME:  LRS22.1 (DATA READ SUBROUTINE 1)
003261:                                                                                                  #  MOD. NO.: 1           BY: P. VOLANTE  SDC             DATE:  11-15-66
003262:
003263:                                                                                                  #  FUNCTIONAL DESCRIPTION
003264:                                                                                                  #        1)      READS RENDEZVOUS RADAR RANGE AND RANGE-RATE, TRUNION AND SHAFT ANGLES, THREE CDU VALUES AND TIME.  CONVERTS THIS
003265:                                                                                                  #                DATA AND LEAVES IT FOR THE MEASUREMENT INCORPORATION ROUTINE (LSR22.3).  CHECKS FOR THE RR DATA GOOD DISCRETE, FOR
003266:                                                                                                  #                RR REPOSITION AND RR CDU FAIL
003267:                                                                                                  #        2)      COMPARES RADAR LOS WITH LOS COMPUTED FROM STATE VECTORS TO SEE IF THEY ARE WITHIN THREE DEGREES
003268:
003269:                                                                                                  #  CALLING SEQUENCE:  BANKCALL FOR LRS22.1
003270:
003271:                                                                                                  #  SUBROUTINES CALLED:
003272:                                                                                                  #        RRRDOT          LPS20.1
003273:                                                                                                  #        RRRANGE         BANKCALL
003274:                                                                                                  #        RADSTALL        CDULOGIC
003275:                                                                                                  #        RRNB            SMNB
003276:
003277:                                                                                                  #  NORMAL EXIT:  RETURN TO CALLER+1 WITH MPAC SET TO +0
003278:
003279:                                                                                                  #  ERROR EXITS:  RETURN TO CALLER+1 WITH ERROR CODE STORED IN MPAC AS FOLLOWS:
003280:                                                                                                  #        00001 - ERROR EXIT 1 - RR DATA NO GOOD (NO RR DATA GOOD DISCRETE OR RR CDU FAIL OR RR REPOSITION)
003281:                                                                                                  #        00002 - ERROR EXIT 2 - RR LOS NOT WITHIN THREE DEGREES OF LOS COMPUTED FROM STATE VECTORS
003282:
003283:                                                                                                  #  ALARMS:  521 - COULD NOT READ RADAR DATA (RR DATA GOOD DISCRETE NOT PRESENT BEFORE AND AFTER READING THE RADAR)
003284:                                                                                                  #        (THIS ALARM IS ISSUED BY THE RADAREAD SUBROUTINE WHICH IS ENTERED FROM A RADARUPT)
003285:
003286:                                                                                                  #  OUTPUT:  RRLOSVEC - THE RR LINE-OF-SIGHT VECTOR (USED BY LRS22.2) - A HALF-UNIT VECTOR
003287:                                                                                                  #        RM - THE RR RANGE READING (TO THE CSM) DP, IN METERS SCALED B-29 (USED BY LRS22.2 AND LRS22.3)
003288:
003289:                                                                                                  #        ALL OF THE FOLLOWING OUTPUTS ARE USED BY LRS22.3:
003290:                                                                                                  #                RDOTM - THE RR RANGE-RATE READING, DP, IN METERS PER CENTISECOND, SCALED B-7
003291:                                                                                                  #                RRTRUN - RR TRUNION ANGLE, DP, IN REVOLUTIONS, SCALED B0
003292:                                                                                                  #                RRSHAFT - RR SHAFT ANGLE, DP, IN REVOLUTIONS, SCALED B0
003293:                                                                                                  #                AIG,AMG,AOG - THE CDU ANGLES, THREE SP WORDS
003294:                                                                                                  #                MKTIME - THE TIME OF THE RR READING, DP, IN CENTISECONDS
003295:
003296:                                                                                                  #  ERASABLE INITIALIZATION REQUIRED:
003297:                                                                                                  #        RNRAD, THE RADAR READ COUNTER FROM WHICH IS OBTAINED:


003299:                                                                                                  #                1) RR RANGE SCALED 9.38 FT. PER BIT ON THE LOW SCALE AND 75.04 FT. PER BIT ON THE HIGH SCALE
003300:                                                                                                  #                2) RR RANGE RATE, SCALED .6278 FT./SEC. PER BIT
003301:                                                                                                  #        THE CDU ANGLES FROM CDUX, CDUY, CDUZ AND TIME1 AND TIME2
003302:
003303:                                                                                                  #  DEBRIS:  LRS22.1X, A, L, Q, PUSHLIST
003304:
003305: 32,2366                                           BANK     32
003306: 32,2000                                           SETLOC   LRS22
003307: 32,2000                                           BANK
003308: 32,2366                                           COUNT*   $$/LRS22
003309:
003310: 32,2366           04645        LRS22.1            TC       MAKECADR
003311: 32,2367           55737                           TS       LRS22.1X
003312: 32,2370           05516                           TC       DOWNFLAG
003313: 32,2371           00120                           ADRES    RNGSCFLG
003314: 32,2372           00004                           INHINT
003315: 32,2373           34751                           CAF      BIT3
003316: 32,2374           00006                           EXTEND                                         #  GET RR RANGE SCALE
003317: 32,2375           02033                           RAND     CHAN33                                #  FROM CHANNEL 33 BIT 3
003318: 32,2376           54001                           TS       L
003319: 32,2377           44751                           CS       RRRSBIT
003320: 32,2400           70110                           MASK     RADMODES
003321: 32,2401           60001                           AD       L
003322: 32,2402           54110                           TS       RADMODES
003323: 32,2403           00003                           RELINT
003324: 32,2404           04616        READRDOT           TC       BANKCALL
003325: 32,2405           53103                           CADR     RRRDOT                                #  READ RANGE-RATE (ONE SAMPLE)
003326: 32,2406           04616                           TC       BANKCALL
003327: 32,2407           17714                           CADR     RADSTALL                              #  WAIT FOR DATA READ COMPLETION
003328: 32,2410           12542                           TCF      EREXIT1                               #  COULD NOT READ RADAR-ERROR EXIT 1
003329:
003330: 32,2411           00004                           INHINT                                         #  NO INTERRUPTS WHILE READING TIME AND CDU
003331: 32,2412           53106                           DXCH     TIMEHOLD                              #  SET MARK TIME EQUAL TO THE MID-POINT
003332: 32,2413           52162                           DXCH     MPAC       +5                         #  TEMP BUFFER FOR DOWNLINK
003333: 32,2414           53102                           DXCH     SAMPLSUM                              #  SAVE RANGE-RATE READING
003334: 32,2415           53747                           DXCH     RDOTMSAV
003335: 32,2416           00006                           EXTEND
003336: 32,2417           30034                           DCA      CDUY                                  #  SAVE ICDU ANGLES
003337: 32,2420           52160                           DXCH     MPAC       +3                         #  TEMP BUFFER FOR DOWNLINK
003338: 32,2421           30032                           CA       CDUX
003339: 32,2422           54156                           TS       MPAC       +2                         #  TEMP BUFFER FOR DOWNLINK
003340: 32,2423           00006                           EXTEND
003341: 32,2424           30025                           DCA      TIME2                                 #  SAVE TIME
003342: 32,2425           52155                           DXCH     MPAC                                  #  SAVE TIME OF CDY READINGS IN MPAC
003343: 32,2426           00006                           EXTEND
003344: 32,2427           30036                           DCA      CDUT                                  #  SAVE TRUNION AND SHAFT ANGLES FOR RRNB
003345: 32,2430           53110                           DXCH     TANG


003347: 32,2431           00003                           RELINT
003348: 32,2432           04616                           TC       BANKCALL
003349: 32,2433           53105                           CADR     RRRANGE                               #  READ RR RANGE (ONE SAMPLE)
003350: 32,2434           04616                           TC       BANKCALL
003351: 32,2435           17714                           CADR     RADSTALL                              #  WAIT FOR READ COMPLETE
003352: 32,2436           02536                           TC       CHEXERR                               #  CHECK FOR ERRORS DURING READ
003353: 32,2437           00004                           INHINT                                         #  COPY CYCLE FOR MARK DATA ON DOWNLINK
003354: 32,2440           53334                           DXCH     DNRRANGE                              #  RANGE, RANGE RATE (RAW DATA)
003355: 32,2441           53761                           DXCH     RANGRDOT
003356: 32,2442           52162                           DXCH     MPAC       +5
003357: 32,2443           53755                           DXCH     MKTIME                                #  MARK TIME
003358: 32,2444           52160                           DXCH     MPAC       +3
003359: 32,2445           53460                           DXCH     AIG                                   #  CDUY, CDUZ
003360: 32,2446           00006                           EXTEND
003361: 32,2447           31110                           DCA      TANG                                  #  PRESERVE TANG
003362: 32,2450           53753                           DXCH     TANGNB                                #  TRUNNION AND SHAFT ANGLES
003363: 32,2451           30156                           CA       MPAC       +2
003364: 32,2452           55461                           TS       AOG                                   #  CDUX
003365: 32,2453           06037                           TC       INTPRET
003366: 32,2454           14025                           STODL    20D                                   #  SAVE TIME OF CDU READINGS IN 20D
003367: 32,2455           03747                                    RDOTMSAV                              #  CONVERT RDOT UNITS AND SCALING
003368: 32,2456           57261                           SL       DMPR                                  #  START WITH READING SCALED B-28, -.6278
003369: 32,2457           20217                                    14D                                   #  FT./SECOND PER BIT
003370: 32,2460           24002                                    RDOTCONV                              #  END WITH METERS/CENTISECOND, B-7
003371: 32,2461           03751                           STORE    RDOTM
003372: 32,2462           47135                           SLOAD    RTB
003373: 32,2463           01110                                    TANG                                  #  GET TRUNION ANGLE
003374: 32,2464           21576                                    CDULOGIC                              #  CONVERT TO DP ONES COMP. IN REVOLUTIONS
003375: 32,2465           03734                           STORE    RRTRUN                                #  AND SAVE FOR TMI ROUTINE (LSR22.3)
003376: 32,2466           47135                           SLOAD    RTB
003377: 32,2467           01111                                    TANG       +1                         #  DITTO FOR SHAFT ANGLE
003378: 32,2470           21576                                    CDULOGIC
003379: 32,2471           17736                           STODL    RRSHAFT
003380: 32,2472           01102                                    SAMPLSUM
003381: 32,2473           66405                           DMP      SL2R                                  #  CONVERT UNITS AND SCALING OF RANGE
003382: 32,2474           24004                                    RANGCONV                              #  PER BIT, END WITH METERS, SCALED -29
003383: 32,2475           37757                           STCALL   RM
003384: 32,2476           46041                                    RRNB                                  #  COMPUTE RADAR LOS USING RRNB
003385: 32,2477           17741                           STODL    RRBORSIT                              #  AND SAVE
003386: 32,2500           00025                                    20D
003387: 32,2501           34041                           STCALL   TDEC1                                 #  GET STATE VECTOR LOS AT TIME OF CDU READ
003388: 32,2502           51255                                    LPS20.1
003389: 32,2503           77776                           EXIT
003390: 32,2504           31457                           CA       AIG                                   #  STORE IMU CDU ANGLES AT MARKTIME
003391: 32,2505           54766                           TS       CDUSPOT                               #  IN CDUSPOT FOR TRG*SMNB
003392: 32,2506           31460                           CA       AMG
003393: 32,2507           54770                           TS       CDUSPOT    +2
003394: 32,2510           31461                           CA       AOG
003395: 32,2511           54772                           TS       CDUSPOT    +4
003396: 32,2512           06037                           TC       INTPRET


003398: 32,2513           45175                           VLOAD    CALL                                  #  LOAD VECTOR AND CALL TRANSFORMATION
003399: 32,2514           01102                                    RRTARGET
003400: 32,2515           47651                                    TRG*SMNB                              #  ROTATE LOS AT MARKTIME FROM SM TO NB.
003401: 32,2516           77641                           DOT                                            #  DOT WITH RADAR LOS TO GET ANGLE
003402: 32,2517           03741                                    RRBORSIT
003403: 32,2520           65552                           SL1      ACOS                                  #  BETWEEN THEM
003404: 32,2521           01046                           STORE    DSPTEM1                               #  STORE FOR POSSIBLE DISPLAY
003405: 32,2522           50025                           DSU      BMN                                   #  IS IT LESS THAN 3 DEGREES
003406: 32,2523           24546                                    THREEDEG
003407: 32,2524           64531                                    NORMEXIT                              #  YES - NORMAL EXIT
003408:
003409: 32,2525           77776                           EXIT                                           #  ERROR EXIT 2
003410: 32,2526           34752                           CAF      BIT2                                  #  SET ERROR CODE
003411: 32,2527           54154                           TS       MPAC
003412: 32,2530           12534                           TCF      OUT22.1
003413:
003414: 32,2531           77776        NORMEXIT           EXIT                                           #  NORMAL EXIT - SET MPAC EQUAL ZERO
003415: 32,2532           34755                           CAF      ZERO
003416: 32,2533           54154                           TS       MPAC
003417: 32,2534           31737        OUT22.1            CAE      LRS22.1X                              #  EXIT FROM LRS22.1
003418: 32,2535           04640                           TC       BANKJUMP
003419: 32,2536           30101        CHEXERR            CAE      FLAGWRD5
003420: 32,2537           74742                           MASK     RNGSCBIT
003421: 32,2540           10000                           CCS      A                                     #  CHECK IF RANGE SCALE CHANGED
003422: 32,2541           12404                           TCF      READRDOT                              #  YES - TAKE ANOTHER READING
003423:
003424: 32,2542           34753        EREXIT1            CA       BIT1                                  #  SET ERROR CODE
003425: 32,2543           54154                           TS       MPAC
003426: 32,2544           02534                           TC       OUT22.1
003427: 32,2545           00210 21042  THREEDEG           2DEC     .008333333                            #  THREE DEGREES, SCALED REVS, B0
003428:
003429: 32,2547     1101               RRLOSVEC           EQUALS   RRTARGET
003430:


003432:                                                                                                  #  PROGRAM NAME - LRS22.2 (DATA READ SUBROUTINE 2)
003433:                                                                                                  #  MOD. NO.: 1           BY: P VOLANTE  SDC              DATE   4-11-67
003434:
003435:                                                                                                  #  FUNCTIONAL DESCRIPTION-


003437:                                                                                                  #        2)  CHECKS IF THE RR LOS (I.E. THE RADAR BORESIGHT VECTOR) IS WITHIN 30 DEGREES OF THE LM +Z AXIS
003438:
003439:                                                                                                  #  CALLING SEQUENCE-  BANKCALL FOR LRS22.2
003440:
003441:                                                                                                  #  SUBROUTINES CALLED:  G+N, AUTO   SETMAXDB
003442:
003443:                                                                                                  #  NORMAL EXIT-  RETURN TO CALLER WITH MPAC SET TO +0 (VIA SWRETURN)
003444:
003445:                                                                                                  #  ERROR EXIT-  RETURN TO CALLER WITH MPAC SET TO 00001 - RADAR LOS NOT WITHIN 30 DEGREES OF LM +Z AXIS
003446:
003447:                                                                                                  #  ALARMS-  NONE                                                             IN THE AUTO MODE
003448:
003449:                                                                                                  #  ERASABLE INITIALIZATION REQUIRED -
003450:                                                                                                  #        RRLOSVEC - THE RR LINE-OF-SIGHT VECTOR - A HALF UNIT VECTOR COMPUTED BY LRS22.1
003451:                                                                                                  #        RM - RR RANGE, METERS B-29, FROM LRS22.1
003452:                                                                                                  #        BIT 14 CHANNEL 31 - INDICATES AUTOPILOT IS IN AUTO MODE
003453:
003454:                                                                                                  #  DEBRIS - A,L,Q MPAC - PUSHLIST AND PUSHLOC ARE NOT CHANGED BY THIS ROUTINE
003455:
003456: 24,2000                                           SETLOC   P20S
003457: 24,2000                                           BANK
003458: 24,3333           04645        LRS22.2            TC       MAKECADR
003459: 24,3334           55737                           TS       LRS22.1X
003460: 24,3335           06037                           TC       INTPRET
003461:                                                                                                  #  CHECK IF RR LOS IS WITHIN 30 DEG OF
003462: 24,3336           65545        30DEGCHK           DLOAD    ACOS                                  #  THE SPACECRAFT +Z AXIS
003463: 24,3337           03745                                    RRBORSIT   +4                         #  BY TAKING ARCCOS OF Z-COMP. OF THE RR
003464:                                                                                                  #  LOS VECTOR, A HALF UNIT VECTOR
003465:                                                                                                  #  IN NAV BASE AXES)
003466: 24,3340           50025                           DSU      BMN
003467: 24,3341           11355                                    30DEG
003468: 24,3342           51347                                    OKEXIT                                #  NORMAL EXIT - WITHIN 30 DEG.
003469: 24,3343           77776                           EXIT                                           #  ERROR EXIT - NOT WITHIN 30 DEG.
003470: 24,3344           34753                           CAF      BIT1                                  #  SET ERROR CODE IN MPAC
003471: 24,3345           54154                           TS       MPAC
003472: 24,3346           13352                           TCF      OUT22.2
003473: 24,3347           77776        OKEXIT             EXIT                                           #  NORMAL EXIT - SET MPAC = ZERO
003474:


003476: 24,3350           34755                           CAF      ZERO
003477: 24,3351           54154                           TS       MPAC
003478: 24,3352           31737        OUT22.2            CAE      LRS22.1X
003479: 24,3353           04640                           TC       BANKJUMP
003480:
003481: 24,3354           02525 12525  30DEG              2DEC     .083333333                            #  THIRTY DEGREES, SCALED REVS, B0
003482:


003484:                                                                                                  #  PROGRAM NAME - LSR22.3                                DATE - 29 MAY 1967
003485:                                                                                                  #  MOD. NO 3                                             LOG SECTION - P20-25
003486:                                                                                                  #  MOD. BY - DANFORTH                                    ASSEMBLY LEMP20S REV 10
003487:
003488:                                                                                                  #  FUNCTIONAL DESCRIPTION
003489:                                                                                                  #        THIS ROUTINE COMPUTES THE B-VECTORS AND DELTA Q FOR EACH OF THE QUANTITIES MEASURED BY THE RENDEZVOUS
003490:                                                                                                  #        RADAR.  (RANGE, RANGE RATE, SHAFT AND TRUNNION ANGLES).  THE ROUTINE CALLS THE INCORP1 AND INCORP2 ROUTINES
003491:                                                                                                  #        WHICH COMPUTE THE DEVIATIONS AND CORRECT THE STATE VECTOR.
003492:
003493:                                                                                                  #  CALLING SEQUENCE
003494:                                                                                                  #        THIS ROUTINE IS PART OF P20 RENDEZVOUS NAVIGATION FOR THE LM COMPUTER ONLY.  THE ROUTINE IS ENTERED FROM
003495:                                                                                                  #        R22 LEM ONLY AND RETURNS DIRECTLY TO R22LEM FOLLOWING SUCCESSFUL INCORPORATION OF MEASURED DATA.  IF THE
003496:                                                                                                  #        COMPUTED STATE VECTOR DEVIATIONS EXCEED THE MAXIMUM PERMITTED.  THE ROUTINE RETURNS TO R22LEM TO DISPLAY
003497:                                                                                                  #        THE DEVIATIONS.  IF THE ASTRONAUT ACCEPTS THE DATA R22LEM RETURNS TO LSR22.3 TO INCORPORATE THE
003498:                                                                                                  #        DEVIATIONS INTO THE STATE VECTOR.  IF THE ASTRONAUT REJECTS THE DEVIATIONS, NO MORE MEASUREMENTS ARE
003499:                                                                                                  #        PROCESSED FOR THIS MARK, I.E.,  R22LEM GETS THE NEXT MARK.
003500:
003501:                                                                                                  #  SUBROUTINES CALLED
003502:                                                                                                  #        WLINIT          LGCUPDTE        INTEGRV         INCORP1         ARCTAN
003503:                                                                                                  #        GETULC          RARARANG        INCORP2         NBSM            INTSTALL
003504:
003505:                                                                                                  #  OUTPUT
003506:                                                                                                  #        CORRECTED LM OR CSM STATE VECTOR (PERMANENT)
003507:                                                                                                  #        NUMBER OF MARKS INCORPORATED IN MARKCTR
003508:                                                                                                  #        MAGNITUDE OF POSITION DEVIATION (FOR DISPLAY) IN R22DISP METERS B-29
003509:                                                                                                  #        MAGNITUDE OF VELOCITY DEVIATION (FOR DISPLAY) IN R22DISP +2 M/CSEC B-7
003510:                                                                                                  #        UPDATED W-MATRIX
003511:
003512:                                                                                                  #  ERASABLE INITIALIZATION REQUIRED
003513:                                                                                                  #        LM AND CSM STATE VECTORS
003514:                                                                                                  #        W-MATRIX
003515:                                                                                                  #        MARK TIME IN MKTIME
003516:                                                                                                  #        RADAR RANGE IN RM METERS B-29
003517:                                                                                                  #                RANGE RATE IN RDOTM METERS/CSES B-7
003518:                                                                                                  #                SHAFT ANGLE IN RRSHAFT REVS. B0
003519:                                                                                                  #                TRUNNION ANGLE IN RRTRUN REVS. B0
003520:                                                                                                  #        GIMBAL ANGLES   INNER IN AIG
003521:                                                                                                  #                        MIDDLE IN AMG
003522:                                                                                                  #                        OUTER IN AOG
003523:                                                                                                  #        REFSMMAT
003524:                                                                                                  #        RENDWFLG
003525:                                                                                                  #        NOANGFLG
003526:                                                                                                  #        VEHUPFLG
003527:
003528:                                                                                                  #  DEBRIS
003529:                                                                                                  #        PUSHLIST -- ALL
003530:                                                                                                  #        MX, MY, MZ (VECTORS)


003532:                                                                                                  #        ULC, RXZ, SINTHETA, LGRET, RDRET, BVECTOR, W.IND, X78T
003533:
003534: 13,2207                                           BANK     13
003535: 26,2000                                           SETLOC   P20S3
003536: 26,2000                                           BANK
003537:
003538: 26,2412  E7,1456                                  EBANK=   LOSCOUNT
003539: 26,2412                                           COUNT*   $$/LSR22
003540: 26,2412           77624        LSR22.3            CALL
003541: 26,2413           11244                                    GRP2PC
003542: 26,2414           43014                           BON      SET
003543: 26,2415           04307                                    SURFFLAG                              #  ARE WE ON LUNAR SURFACE
003544: 26,2416           55200                                    LSR22.4                               #  YES
003545: 26,2417           02466                                    DMENFLG
003546: 26,2420           45014                           BOFF     CALL
003547: 26,2421           00747                                    VEHUPFLG
003548: 26,2422           54454                                    DOLEM
003549: 26,2423           27414                                    INTSTALL
003550: 26,2424           45014                           CLEAR    CALL                                  #  LM PRECISION INTEGRATION
003551: 26,2425           01674                                    VINTFLAG
003552: 26,2426           26644                                    SETIFLGS
003553: 26,2427           77624                           CALL
003554: 26,2430           55242                                    INTGRCAL
003555: 26,2431           77624                           CALL
003556: 26,2432           11244                                    GRP2PC
003557: 26,2433           77624                           CALL
003558: 26,2434           27414                                    INTSTALL
003559: 26,2435           43014                           CLEAR    BOFF
003560: 26,2436           01676                                    DIM0FLAG
003561: 26,2437           02756                                    RENDWFLG
003562: 26,2440           54444                                    NOTWCSM
003563: 26,2441           43014                           SET      SET                                   #  CSM WITH W-MATRIX INTEGRATION
003564: 26,2442           01476                                    DIM0FLAG
003565: 26,2443           01475                                    D6OR9FLG
003566: 26,2444           43014        NOTWCSM            SET      CLEAR
003567: 26,2445           01474                                    VINTFLAG
003568: 26,2446           01673                                    INTYPFLG
003569: 26,2447           45014                           SET      CALL
003570: 26,2450           01472                                    STATEFLG
003571: 26,2451           55242                                    INTGRCAL
003572: 26,2452           77650                           GOTO
003573: 26,2453           54504                                    MARKTEST
003574: 26,2454           77624        DOLEM              CALL
003575: 26,2455           27414                                    INTSTALL
003576: 26,2456           45014                           SET      CALL
003577: 26,2457           01474                                    VINTFLAG
003578: 26,2460           26644                                    SETIFLGS
003579: 26,2461           77624                           CALL
003580: 26,2462           55242                                    INTGRCAL


003582: 26,2463           77624                           CALL
003583: 26,2464           11244                                    GRP2PC
003584: 26,2465           77624                           CALL
003585: 26,2466           27414                                    INTSTALL
003586: 26,2467           43014                           CLEAR    BOFF
003587: 26,2470           01676                                    DIM0FLAG
003588: 26,2471           02756                                    RENDWFLG
003589: 26,2472           54476                                    NOTWLEM
003590: 26,2473           43014                           SET      SET                                   #  LM WITH W-MATRIX INTEGRATION
003591: 26,2474           01476                                    DIM0FLAG
003592: 26,2475           01475                                    D6OR9FLG
003593: 26,2476           43014        NOTWLEM            CLEAR    CLEAR
003594: 26,2477           01673                                    INTYPFLG
003595: 26,2500           01674                                    VINTFLAG
003596: 26,2501           45014                           SET      CALL
003597: 26,2502           01472                                    STATEFLG
003598: 26,2503           55242                                    INTGRCAL
003599: 26,2504           45014        MARKTEST           BON      CALL                                  #  HAS W-MATRIX BEEN INVALIDATED
003600: 26,2505           02716                                    RENDWFLG                              #  HAS W-MATRIX BEEN INVALIDATED
003601: 26,2506           54510                                    RANGEBQ
003602: 26,2507           55251                                    WLINIT                                #  YES - REINITIALIZE
003603: 26,2510           77414        RANGEBQ            BON      EXIT                                  #  DON'T CALL R65 IF ON SURFACE
003604: 26,2511           04307                                    SURFFLAG
003605: 26,2512           54520                                    RANGEBQ1
003606: 26,2513           34755                           CA       ZERO
003607: 26,2514           55745                           TS       R65CNTR
003608: 26,2515           04616                           TC       BANKCALL
003609: 26,2516           46123                           CADR     R65LEM
003610: 26,2517           06037                           TC       INTPRET
003611: 26,2520           43174        RANGEBQ1           AXT,2    BON                                   #  CLEAR X2
003612: 26,2521           00000                                    0
003613: 26,2522           04304                                    LMOONFLG                              #  IS MOON SPHERE OF INFLUENCE
003614: 26,2523           54526                                    SETX2                                 #  YES.  STORE ZERO IN SCALSHFT REGISTER
003615: 26,2524           77714                           INCR,2
003616: 26,2525           00002                                    2
003617: 26,2526           45134        SETX2              SXA,2    CALL
003618: 26,2527           03720                                    SCALSHFT                              #  0 - MOON.  2 - EARTH
003619: 26,2530           11244                                    GRP2PC
003620: 26,2531           66170                           AXT,1    SXA,1                                 #  STORE RANGE CODE (1) FOR R3 IN NOUN 49
003621: 26,2532           00001                                    1
003622: 26,2533           03745                                    WHCHREAD
003623: 26,2534           54335                           SLOAD    SR                                    #  GET SINGLE PRECISION RVARMIN (B-12)
003624: 26,2535           01775                                    RVARMIN                               #  SHIFT TO TRIPLE PRECISION (B-40)
003625: 26,2536           20635                                    28D
003626: 26,2537           77634                           RTB
003627: 26,2540           21633                                    TPMODE                                #  AND SAVE IN 20D
003628: 26,2541           00025                           STORE    20D
003629: 26,2542           77624                           CALL                                           #  BEGIN COMPUTING THE B-VECTORS, DELTAQ
003630: 26,2543           55333                                    GETULC                                #  B-VECTORS FOR RANGE
003631: 26,2544           57414                           BON      VCOMP                                 #  B0, COMP. IF LM BEING CORRECTED


003633: 26,2545           00707                                    VEHUPFLG
003634: 26,2546           54547                                    +1
003635: 26,2547           27525                           STOVL    BVECTOR
003636: 26,2550           06522                                    ZEROVECS
003637: 26,2551           03533                           STORE    BVECTOR    +6                         #  B1
003638: 26,2552           17541                           STODL    BVECTOR    +12D                       #  B2
003639: 26,2553           00045                                    36D
003640: 26,2554           44257                           SRR*     BDSU
003641: 26,2555           56174                                    2,2                                   #  SHIFT FROM EARTH/MOON SPHERE TO B-29
003642: 26,2556           03757                                    RM                                    #  RM - (MAGNITUDE RCSM-RLM)
003643: 26,2557           77657                           SLR*
003644: 26,2560           56574                                    2,2                                   #  SHIFT TO EARTH/MOON SPHERE
003645: 26,2561           17547                           STODL    DELTAQ                                #  EARTH B-29.  MOON B-27
003646: 26,2562           00045                                    36D                                   #  RLC B-29/B-27
003647: 26,2563           63501                           NORM     DSQ                                   #  NORMALIZE AND SQUARE
003648: 26,2564           00047                                    X1
003649: 26,2565           53605                           DMP      SR*
003650: 26,2566           01771                                    RANGEVAR                              #  MULTIPLY BY RANGEVAR (B12) THEN
003651: 26,2567           20577                                    0          -2,1                       #  UNNORMALIZE
003652: 26,2570           53657                           SR*      SR*
003653: 26,2571           20601                                    0,1
003654: 26,2572           57176                                    0,2
003655: 26,2573           47057                           SR*      RTB
003656: 26,2574           57176                                    0,2
003657: 26,2575           21633                                    TPMODE
003658: 26,2576           02707                           STORE    VARIANCE                              #  B-40
003659: 26,2577           76276                           DCOMP    TAD
003660: 26,2600           00025                                    20D                                   #  B-40
003661: 26,2601           72240                           BMN      TLOAD
003662: 26,2602           54605                                    QOK
003663: 26,2603           00025                                    20D                                   #  B-40
003664: 26,2604           02707                           STORE    VARIANCE
003665: 26,2605           77624        QOK                CALL
003666: 26,2606           55401                                    LGCUPDTE
003667:
003668: 26,2607           45131                           SSP      CALL
003669: 26,2610           03746                                    WHCHREAD
003670: 26,2611           00002                           DEC      2          B-14                       #  STORE R-RATE CODE (2) FOR R3 IN NOUN 49
003671: 26,2612           11244                                    GRP2PC
003672: 26,2613           77624                           CALL                                           #  B-VECTOR, DELTAQ FOR RANGE RATE
003673: 26,2614           55333                                    GETULC
003674: 26,2615           53725                           PDDL     SR*                                   #  GET RLC SCALED B-29/B-27
003675: 26,2616           00045                                    36D                                   #  AND SHIFT TO B-23
003676: 26,2617           57202                                    0          -4,2
003677: 26,2620           24045                           STOVL    36D                                   #  THEN STORE BACK IN 36D
003678: 26,2621           57414                           BON      VCOMP                                 #  B1, COMP. IF LM BEING CORRECTED
003679: 26,2622           00707                                    VEHUPFLG
003680: 26,2623           54624                                    +1
003681: 26,2624           77761                           VXSC
003682: 26,2625           00045                                    36D                                   #  B1 = RLC (B-24/B-22)


003684: 26,2626           27533                           STOVL    BVECTOR    +6
003685: 26,2627           01653                                    NUVLEM
003686: 26,2630           53257                           VSR*     VAD
003687: 26,2631           57170                                    6,2                                   #  SHIFT FOR EARTH/MOON SPHERE
003688: 26,2632           01667                                    VCVLEM                                #  EARTH B-7. MOON B-5
003689: 26,2633           53715                           PDVL     VSR*                                  #  VL TO PD6
003690: 26,2634           01601                                    NUVCSM
003691: 26,2635           57170                                    6,2                                   #  SHIFT FOR EARTH/MOON SPHERE
003692: 26,2636           52255                           VAD      VSU
003693: 26,2637           01615                                    VCVCSM
003694: 26,2640           50315                           PDVL     DOT                                   #  VC - VL = VLC TO PD6
003695: 26,2641           00001                                    0
003696: 26,2642           00007                                    6
003697: 26,2643           53606                           PUSH     SRR*                                  #  RDOT B-8/B-6 TO PD12
003698: 26,2644           56174                                    2,2                                   #  SHIFT FROM EARTH/MOON SPHERE TO B-8
003699: 26,2645           57316                           DSQ      DMPR                                  #  RDOT**2 B-16 X RATEVAR B12
003700: 26,2646           01773                                    RATEVAR
003701: 26,2647           02707                           STORE    VARIANCE
003702: 26,2650           54335                           SLOAD    SR
003703: 26,2651           01776                                    VVARMIN                               #  GET SINGLE PRECISION VVARMIN (B+12)
003704: 26,2652           20621                                    16D                                   #  SHIFT TO DP (B-4)
003705: 26,2653           00031                           STORE    24D                                   #  AND SAVE IN 24D
003706: 26,2654           50025                           DSU      BMN                                   #  IS MIN. VARIANCE > COMPUTED VARIANCE
003707: 26,2655           02707                                    VARIANCE
003708: 26,2656           54662                                    VOK                                   #  BRANCH - NO
003709: 26,2657           77745                           DLOAD                                          #  YES - USE MINIMUM VARIANCE
003710: 26,2660           00031                                    24D
003711: 26,2661           02707                           STORE    VARIANCE
003712: 26,2662           60545        VOK                DLOAD    SR2                                   #  RDOT (PD12) FROM B-8/B-6
003713: 26,2663           53725                           PDDL     SLR*                                  #  TO B-10/B-8
003714: 26,2664           03751                                    RDOTM                                 #  SHIFT TO EARTH/MOON SPHERE
003715: 26,2665           56577                                    0          -1,2                       #  B-7 TO B-10/B-8
003716: 26,2666           77625                           DSU
003717: 26,2667           77675                           DMPR
003718: 26,2670           00045                                    36D
003719: 26,2671           27547                           STOVL    DELTAQ                                #  B-33
003720: 26,2672           00001                                    0                                     #  NOW GET B0
003721: 26,2673           47235                           VXV      VXV                                   #  (ULC X VLC) X ULC
003722: 26,2674           57414                           BON      VCOMP                                 #  B0, COMP. IF LM BEING CORRECTED
003723: 26,2675           00707                                    VEHUPFLG
003724: 26,2676           54677                                    +1
003725: 26,2677           77657                           VSR*
003726: 26,2700           57200                                    0          -2,2                       #  SCALED B-5
003727: 26,2701           27525                           STOVL    BVECTOR
003728: 26,2702           06522                                    ZEROVECS
003729: 26,2703           00025                           STORE    20D                                   #  ZERO OUT 20 TO 25 IN PUSHLIST
003730: 26,2704           27541                           STOVL    BVECTOR    +12D
003731: 26,2705           03525                                    BVECTOR
003732: 26,2706           60246                           ABVAL    NORM                                  #  LOAD B0, GET MAGNITUDE AND NORMALIZE
003733: 26,2707           00025                                    20D                                   #  SHIFT COUNT IN 20D


003735: 26,2710           51575                           VLOAD    ABVAL
003736: 26,2711           03533                                    BVECTOR    +6D                        #  LOAD B1, GET MAGNITUDE AND NORMALIZE
003737: 26,2712           71301                           NORM     DLOAD
003738: 26,2713           00027                                    22D                                   #  SHIFT COUNT IN 22D
003739: 26,2714           00027                                    22D                                   #  FIND WHICH SHIFT IS SMALLER
003740: 26,2715           50025                           DSU      BMN                                   #  BRANCH - B0 HAS SMALLER SHIFT COUNT
003741: 26,2716           00025                                    20D
003742: 26,2717           54723                                    VOK1
003743: 26,2720           52150                           LXA,1    GOTO
003744: 26,2721           00026                                    22D                                   #  LOAD X2 WITH THE SMALLER SHIFT COUNT
003745: 26,2722           54725                                    VOK2
003746: 26,2723           77750        VOK1               LXA,1
003747: 26,2724           00024                                    20D
003748: 26,2725           53775        VOK2               VLOAD    VSL*                                  #  THEN ADJUST B0, B1, DELTAQ AND VARIANCE
003749: 26,2726           03525                                    BVECTOR                               #  WITH THI SSHIFT COUNT
003750: 26,2727           20201                                    0,1
003751: 26,2730           27525                           STOVL    BVECTOR
003752: 26,2731           03533                                    BVECTOR    +6
003753: 26,2732           77657                           VSL*
003754: 26,2733           20201                                    0,1
003755: 26,2734           17533                           STODL    BVECTOR    +6
003756: 26,2735           03547                                    DELTAQ
003757: 26,2736           77657                           SL*
003758: 26,2737           20201                                    0,1
003759: 26,2740           03547                           STORE    DELTAQ
003760: 26,2741           53745                           DLOAD    SL*                                   #  GET RLC AND ADJUST FOR SCALE SHIFT
003761: 26,2742           00045                                    36D
003762: 26,2743           20200                                    0          -1,1
003763: 26,2744           41316                           DSQ      DMP                                   #  MULTIPLY RLC**2 BY VARIANCE
003764: 26,2745           02707                                    VARIANCE
003765: 26,2746           47012                           SL4      RTB                                   #  SHIFT TO CONFORM TO BVECTORS AND DELTAQ
003766: 26,2747           21633                                    TPMODE
003767: 26,2750           36707                           STCALL   VARIANCE                              #  AND STORE TP VARIANCE
003768: 26,2751           55401                                    LGCUPDTE
003769:
003770: 26,2752           77624                           CALL
003771: 26,2753           11244                                    GRP2PC
003772: 26,2754           77414                           BON      EXIT                                  #  ARE ANGLES TO BE DONE
003773: 26,2755           04307                                    SURFFLAG
003774: 26,2756           55176                                    RENDEND                               #  NO
003775: 26,2757  E7,1457                                  EBANK=   AIG
003776: 26,2757           33332        MXMYMZ             CAF      AIGBANK
003777: 26,2760           54006                           TS       BBANK
003778: 26,2761           31457                           CA       AIG                                   #  YES, COMPUTE  MX, MY, MZ
003779: 26,2762           54766                           TS       CDUSPOT
003780: 26,2763           31460                           CA       AMG
003781: 26,2764           54770                           TS       CDUSPOT    +2
003782: 26,2765           31461                           CA       AOG
003783: 26,2766           54772                           TS       CDUSPOT    +4                         #  GIMBL ANGLES NOW IN CDUSPOT FOR TRG*NBSM
003784: 26,2767           06037                           TC       INTPRET


003786: 26,2770           45175                           VLOAD    CALL
003787: 26,2771           06520                                    UNITX
003788: 26,2772           47664                                    TRG*NBSM
003789: 26,2773           76505                           VXM      VSL1
003790: 26,2774           01734                                    REFSMMAT
003791: 26,2775           27677                           STOVL    MX
003792: 26,2776           06516                                    UNITY
003793: 26,2777           77624                           CALL
003794: 26,3000           47673                                    *NBSM*
003795: 26,3001           76505                           VXM      VSL1
003796: 26,3002           01734                                    REFSMMAT
003797: 26,3003           27705                           STOVL    MY
003798: 26,3004           06514                                    UNITZ
003799: 26,3005           77624                           CALL
003800: 26,3006           47673                                    *NBSM*
003801: 26,3007           76505                           VXM      VSL1
003802: 26,3010           01734                                    REFSMMAT
003803: 26,3011           37713        SHAFTBQ            STCALL   MZ
003804: 26,3012           55361                                    RADARANG
003805: 26,3013           45131                           SSP      CALL                                  #  STORE SHAFT CODE (3) FOR R3 IN NOUN 49
003806: 26,3014           03746                                    WHCHREAD
003807: 26,3015           00003                           DEC      3          B-14
003808: 26,3016           11244                                    GRP2PC
003809: 26,3017           50375                           VLOAD    DOT                                   #  COMPUTE DELTAQ,B VECTORS FOR SHAFT ANG.
003810: 26,3020           03724                                    ULC
003811: 26,3021           03677                                    MX
003812: 26,3022           77752                           SL1
003813: 26,3023           24023                           STOVL    SINTH                                 #  18D
003814: 26,3024           03724                                    ULC
003815: 26,3025           72441                           DOT      SL1
003816: 26,3026           03713                                    MZ
003817: 26,3027           34021                           STCALL   COSTH                                 #  16D
003818: 26,3030           26510                                    ARCTAN
003819: 26,3031           41221                           BDSU     DMP
003820: 26,3032           03736                                    RRSHAFT
003821: 26,3033           15441                                    2PI/8
003822: 26,3034           41472                           SL3R     PUSH
003823: 26,3035           52545                           DLOAD    SL3
003824: 26,3036           01701                                    X789
003825: 26,3037           44257                           SRR*     BDSU                                  #  SHIFT FROM -5/-3 TO B0
003826: 26,3040           56176                                    0,2
003827: 26,3041           53605                           DMP      SRR*
003828: 26,3042           03722                                    RXZ
003829: 26,3043           21601                                    0,1                                   #  SHIFT TO EARTH/MOON SPHERE
003830: 26,3044           27547                           STOVL    DELTAQ                                #  EARTH B-29.  MOON B-27
003831: 26,3045           03724                                    ULC
003832: 26,3046           76435                           VXV      VSL1
003833: 26,3047           03705                                    MY
003834: 26,3050           77656                           UNIT
003835: 26,3051           57414                           BOFF     VCOMP                                 #  B0, COMP. IF CSM BEING CORRECTED


003837: 26,3052           00747                                    VEHUPFLG
003838: 26,3053           55054                                    +1
003839: 26,3054           27525                           STOVL    BVECTOR
003840: 26,3055           06522                                    ZEROVECS
003841: 26,3056           03533                           STORE    BVECTOR    +6
003842: 26,3057           17541                           STODL    BVECTOR    +12D
003843: 26,3060           03722                                    RXZ
003844: 26,3061           53657                           SR*      SRR*                                  #  SHIFT FROM EARTH/MOON SPHERE TO B-25
003845: 26,3062           20577                                    0          -2,1
003846: 26,3063           56176                                    0,2
003847: 26,3064           03541                           STORE    BVECTOR    +12D
003848: 26,3065           77735                           SLOAD
003849: 26,3066           02011                                    SHAFTVAR
003850: 26,3067           41215                           DAD      DMP
003851: 26,3070           15436                                    IMUVAR                                #  RAD**2 B12
003852: 26,3071           03722                                    RXZ
003853: 26,3072           41257                           SRR*     DMP
003854: 26,3073           21601                                    0,1                                   #  SHIFT TO EARTH/MOON SPHERE
003855: 26,3074           03722                                    RXZ
003856: 26,3075           53657                           SR*      SR*
003857: 26,3076           20577                                    0          -2,1
003858: 26,3077           57176                                    0,2
003859: 26,3100           47057                           SR*      RTB
003860: 26,3101           57176                                    0,2
003861: 26,3102           21633                                    TPMODE                                #  STORE VARIANCE TRIPLE PRECISION
003862: 26,3103           36707                           STCALL   VARIANCE                              #  B-40
003863: 26,3104           55401                                    LGCUPDTE
003864:
003865: 26,3105           77624                           CALL
003866: 26,3106           11244                                    GRP2PC
003867: 26,3107           77624        TRUNBQ             CALL
003868: 26,3110           55361                                    RADARANG
003869: 26,3111           45131                           SSP      CALL                                  #  STORE TRUNNION CODE (4) FOR R3 IN N49
003870: 26,3112           03746                                    WHCHREAD
003871: 26,3113           00004                           DEC      4          B-14
003872: 26,3114           11244                                    GRP2PC
003873: 26,3115           47375                           VLOAD    VXV
003874: 26,3116           03724                                    ULC
003875: 26,3117           03705                                    MY
003876: 26,3120           47372                           VSL1     VXV
003877: 26,3121           03724                                    ULC
003878: 26,3122           77772                           VSL1                                           #  (ULC X MY) X ULC
003879: 26,3123           57414                           BOFF     VCOMP                                 #  B0, COMP. IF CSM BEING CORRECTED
003880: 26,3124           00747                                    VEHUPFLG
003881: 26,3125           55126                                    +1
003882: 26,3126           27525                           STOVL    BVECTOR
003883: 26,3127           06522                                    ZEROVECS
003884: 26,3130           03533                           STORE    BVECTOR    +6
003885: 26,3131           17541                           STODL    BVECTOR    +12D
003886: 26,3132           03722                                    RXZ


003888: 26,3133           53657                           SR*      SRR*                                  #  SHIFT FROM EARTH/MOON SPHERE TO B-25
003889: 26,3134           20577                                    0          -2,1
003890: 26,3135           56176                                    0,2
003891: 26,3136           03543                           STORE    BVECTOR    +14D
003892: 26,3137           77735                           SLOAD
003893: 26,3140           02012                                    TRUNVAR
003894: 26,3141           41215                           DAD      DMP
003895: 26,3142           15436                                    IMUVAR
003896: 26,3143           03722                                    RXZ
003897: 26,3144           41257                           SRR*     DMP
003898: 26,3145           21601                                    0,1                                   #  SHIFT TO EARTH/MOON SPHERE
003899: 26,3146           03722                                    RXZ
003900: 26,3147           53657                           SR*      SR*
003901: 26,3150           20577                                    0          -2,1
003902: 26,3151           57176                                    0,2
003903: 26,3152           47057                           SR*      RTB
003904: 26,3153           57176                                    0,2
003905: 26,3154           21633                                    TPMODE                                #  STORE VARIANCE TRIPLE PRECISION
003906: 26,3155           16707                           STODL    VARIANCE
003907: 26,3156           03732                                    SINTHETA
003908: 26,3157           44336                           ASIN     BDSU                                  #  SIN THETA IN PD6
003909: 26,3160           03734                                    RRTRUN
003910: 26,3161           56405                           DMP      SL3R
003911: 26,3162           15441                                    2PI/8
003912: 26,3163           52525                           PDDL     SL3
003913: 26,3164           01703                                    X789       +2
003914: 26,3165           44257                           SRR*     BDSU                                  #  SHIFT FROM -5/-3 TO B0
003915: 26,3166           56176                                    0,2
003916: 26,3167           53605                           DMP      SRR*
003917: 26,3170           03722                                    RXZ
003918: 26,3171           21601                                    0,1
003919: 26,3172           37547                           STCALL   DELTAQ                                #  EARTH B-29.  MOON B-27
003920: 26,3173           55401                                    LGCUPDTE
003921: 26,3174           77624                           CALL
003922: 26,3175           11244                                    GRP2PC
003923: 26,3176           77650        RENDEND            GOTO
003924: 26,3177           50566                                    R22LEM93
003925:
003926:                                                                                                  #  FUNCTIONAL DESCRIPTION
003927:                                                                                                  #        LSR22.4 IS THE ENTRY TO PERFORM LUNAR SURFACE NAVIGATION FOR THE LM
003928:                                                                                                  #        COMPUTER ONLY.  THIS ROUTINE COMPUTES THE B-VECTORS AND DELTA Q FOR RANGE
003929:                                                                                                  #        AND RANGE RATE MEASURED BY THE RENDEZVOUS RADAR
003930:
003931:                                                                                                  #  SUBROUTINES CALLED
003932:                                                                                                  #        INSTALL         LGCUPDTE        INCORP1         RP-TO-R
003933:                                                                                                  #        INTEGRV         GETULC          INCORP2
003934:
003935:                                                                                                  #  OUTPUT
003936:                                                                                                  #        CORRECTED CSM STATE VECTOR (PERMANENT)
003937:                                                                                                  #        NUMBER OF MARKS INCORPORATED IN MARKCTR


003939:                                                                                                  #        MAGNITUDE OF POSITION DEVIATION (FOR DISPLAY) IN R22 DISP METERS B-29
003940:                                                                                                  #        MAGNITUDE OF VELOCITY DEVIATION (FOR DISPLAY) IN R22DISP +2 M/CSEC B-7
003941:                                                                                                  #        UPDATED W-MATRIX
003942:
003943:                                                                                                  #  ERASABLE INITIALIZATION REQUIRED
003944:                                                                                                  #        LM AND CSM STATE VECTORS
003945:                                                                                                  #        W-MATRIX
003946:                                                                                                  #        MARK TIME IN MKTIME
003947:                                                                                                  #        RADAR RANGE IN RM METERS B-29
003948:                                                                                                  #        RANGE RATE IN RDOTM METERS/CSEC B-7
003949:                                                                                                  #        VEHUPFLG
003950:
003951: 26,3200           77624        LSR22.4            CALL
003952: 26,3201           27414                                    INTSTALL
003953: 26,3202           43014                           SET      CLEAR
003954: 26,3203           01472                                    STATEFLG
003955: 26,3204           01674                                    VINTFLAG                              #  CALL TO GET LM POS + VEL IN REF COORD.
003956: 26,3205           77624                           CALL
003957: 26,3206           55242                                    INTGRCAL
003958: 26,3207           77624                           CALL
003959: 26,3210           11244                                    GRP2PC
003960: 26,3211           45014                           CLEAR    CALL
003961: 26,3212           02666                                    DMENFLG                               #  SET MATRIX SIZE TO 6X6 FOR INCORP
003962: 26,3213           27414                                    INTSTALL
003963: 26,3214           46145                           DLOAD    BHIZ                                  #  IS THIS FIRST TIME THROUGH
003964: 26,3215           03463                                    MARKCTR
003965: 26,3216           55231                                    INITWMX6                              #  YES. INITIALIZE 6X6 W-MATRIX
003966: 26,3217           43014                           CLEAR    SET
003967: 26,3220           01675                                    D6OR9FLG
003968: 26,3221           01476                                    DIM0FLAG
003969: 26,3222           43014                           SET      CLEAR
003970: 26,3223           01474                                    VINTFLAG
003971: 26,3224           01673                                    INTYPFLG
003972: 26,3225           77624                           CALL
003973: 26,3226           55242                                    INTGRCAL
003974: 26,3227           77650                           GOTO
003975: 26,3230           54510                                    RANGEBQ
003976:
003977: 26,3231           77624        INITWMX6           CALL
003978: 26,3232           55251                                    WLINIT                                #  INITIALIZE W-MATRIX
003979: 26,3233           45014                           SET      CALL
003980: 26,3234           01474                                    VINTFLAG
003981: 26,3235           26644                                    SETIFLGS
003982: 26,3236           77624                           CALL
003983: 26,3237           55242                                    INTGRCAL
003984: 26,3240           77650                           GOTO
003985: 26,3241           54510                                    RANGEBQ
003986:
003987:                                                                                                  #  THIS ROUTINE CLEARS RFINAL (DP) AND CALLS INTEGRV


003989: 26,3242           71220        INTGRCAL           STQ      DLOAD
003990: 26,3243           03675                                    IGRET
003991: 26,3244           03755                                    MKTIME
003992: 26,3245           34041                           STCALL   TDEC1
003993: 26,3246           27134                                    INTEGRV
003994: 26,3247           77650                           GOTO
003995: 26,3250           03675                                    IGRET
003996:
003997:                                                                                                  #  THIS ROUTINE INITIALIZES THE W-MATRIX BY ZEROING ALL W THEN SETTING
003998:                                                                                                  #  DIAGONAL ELEMENTS TO INITIAL STORED VALUES.
003999:
004000: 26,3251  E5,1400                                  EBANK=   W
004001: 26,3251           77776        WLINIT             EXIT
004002: 26,3252           33331                           CAF      WBANK
004003: 26,3253           54006                           TS       BBANK
004004: 26,3254           33437                           CAF      WSIZE
004005: 26,3255           55257                           TS       W.IND
004006: 26,3256           34755                           CAF      ZERO
004007: 26,3257           51257                           INDEX    W.IND
004008: 26,3260           55400                           TS       W
004009: 26,3261           11257                           CCS      W.IND
004010: 26,3262           03255                           TC       -5
004011: 26,3263           33332                           CAF      AIGBANK                               #  RESTORE EBANK 7
004012: 26,3264           54006                           TS       BBANK
004013: 26,3265           06037                           TC       INTPRET
004014: 26,3266           67214                           BON      SLOAD                                 #  IF ON LUNAR SURFACE, INITIALIZE WITH
004015: 26,3267           04307                                    SURFFLAG                              #  WSURFPOS AND WSURFVEL INSTEAD OF
004016: 26,3270           55274                                    WLSRFPOS                              #  WRENDPOS AND WRENDVEL
004017: 26,3271           02001                                    WRENDPOS
004018: 26,3272           77650                           GOTO
004019: 26,3273           55276                                    WPOSTORE
004020: 26,3274           77735        WLSRFPOS           SLOAD
004021: 26,3275           02007                                    WSURFPOS
004022: 26,3276           77661        WPOSTORE           SR                                             #  SHIFT TO B-19 SCALE
004023: 26,3277           20606                                    5
004024: 26,3300           02401                           STORE    W
004025: 26,3301           02411                           STORE    W          +8D
004026: 26,3302           02421                           STORE    W          +16D
004027: 26,3303           67214                           BON      SLOAD
004028: 26,3304           04307                                    SURFFLAG
004029: 26,3305           55311                                    WLSRFVEL
004030: 26,3306           02002                                    WRENDVEL
004031: 26,3307           77650                           GOTO
004032: 26,3310           55313                                    WVELSTOR
004033: 26,3311           77735        WLSRFVEL           SLOAD
004034: 26,3312           02010                                    WSURFVEL
004035: 26,3313           02511        WVELSTOR           STORE    W          +72D
004036: 26,3314           02521                           STORE    W          +80D
004037: 26,3315           02531                           STORE    W          +88D
004038: 26,3316           77735                           SLOAD


004040: 26,3317           02003                                    WSHAFT
004041: 26,3320           02621                           STORE    W          +144D
004042: 26,3321           77735                           SLOAD
004043: 26,3322           02004                                    WTRUN
004044: 26,3323           02631                           STORE    W          +152D
004045: 26,3324           66214                           SET      SSP                                   #  SET RENDWFLG - W-MATRIX VALID
004046: 26,3325           02476                                    RENDWFLG
004047: 26,3326           03463                                    MARKCTR                               #  SET MARK COUNTER EQUAL ZERO
004048: 26,3327           00000                                    0
004049: 26,3330           77616                           RVQ
004050:
004051: 26,3331  E5,1400                                  EBANK=   W
004052: 26,3331           54065        WBANK              BBCON    WLINIT
004053: 26,3332  E7,1457                                  EBANK=   AIG
004054: 26,3332           54067        AIGBANK            BBCON    LSR22.3
004055:
004056:                                                                                                  #  GETULC
004057:
004058:                                                                                                  #  THIS SUBROUTINE COMPUTES THE RELATIVE POSITION VECTOR BETWEEN THE CSM
004059:                                                                                                  #  AND THE LM, LEAVING THE UNIT VECTOR IN THE PUSHLIST AND MPAC AND THE
004060:                                                                                                  #  MAGNITUDE IN 36D.
004061:
004062: 26,3333           77201        GETULC             SETPD    VLOAD
004063: 26,3334           00001                                    0
004064: 26,3335           01645                                    DELTALEM
004065: 26,3336           77754                           LXA,2
004066: 26,3337           03720                                    SCALSHFT                              #  LOAD X2 WITH SCALE SHIFT
004067: 26,3340           53257                           VSR*     VAD
004068: 26,3341           57165                                    9D,2                                  #  SHIFT FOR EARTH/MOON SPHERE
004069: 26,3342           01661                                    RCVLEM
004070: 26,3343           53715                           PDVL     VSR*
004071: 26,3344           01573                                    DELTACSM
004072: 26,3345           57165                                    9D,2                                  #  SHIFT FOR EARTH/MOON SPHERE
004073: 26,3346           52255                           VAD      VSU
004074: 26,3347           01607                                    RCVCSM
004075: 26,3350           41434                           RTB      PUSH                                  #  USE NORMUNIT TO PRESERVE ACCURACY
004076: 26,3351           21724                                    NORMUNX1
004077: 26,3352           17724                           STODL    ULC
004078: 26,3353           00045                                    36D
004079: 26,3354           77657                           SL*                                            #  ADJUST MAGNITUDE FROM NORMUNIT
004080: 26,3355           20201                                    0,1
004081: 26,3356           24045                           STOVL    36D                                   #  ULC IN PD0 AND MPAC,RLC IN 36D
004082: 26,3357           03724                                    ULC
004083: 26,3360           77616                           RVQ
004084:
004085:                                                                                                  #  RADARANG
004086:
004087:                                                                                                  #  THIS SUBROUTINE COMPUTES SINTHETA = -ULC DOT MY
004088:                                                                                                  #  RXZ = (SQRT (1-SINTHETA**2))RLC
004089:                                                                                                  #  OUTPUT
004090:                                                                                                  #        ULC IN ULC, PD0


004092:                                                                                                  #        RLC IN PD36D
004093:                                                                                                  #        SIN THETA IN SINTHETA AND PD6
004094:                                                                                                  #        RXZ NORM IN RXZ (N IN X1)
004095:
004096: 26,3361           45020        RADARANG           STQ      CALL
004097: 26,3362           03675                                    RDRET
004098: 26,3363           55333                                    GETULC
004099: 26,3364           50276                           VCOMP    DOT
004100: 26,3365           03705                                    MY
004101: 26,3366           41572                           SL1R     PUSH                                  #  SIN THETA TO PD6
004102: 26,3367           03732                           STORE    SINTHETA
004103: 26,3370           44316                           DSQ      BDSU
004104: 26,3371           06512                                    DP1/4TH                               #  1-(SIN THETA)**2
004105: 26,3372           41366                           SQRT     DMP
004106: 26,3373           00045                                    36D
004107: 26,3374           60352                           SL1      NORM
004108: 26,3375           00047                                    X1                                    #  SET SHIFT COUNTER IN X1
004109: 26,3376           03722                           STORE    RXZ
004110: 26,3377           77650                           GOTO                                           #  EXIT
004111: 26,3400           03675                                    RDRET
004112: 26,3401           45020        LGCUPDTE           STQ      CALL
004113: 26,3402           03675                                    LGRET
004114: 26,3403           46531                                    INCORP1
004115: 26,3404           51575                           VLOAD    ABVAL
004116: 26,3405           02673                                    DELTAX     +6
004117: 26,3406           53754                           LXA,2    SRR*
004118: 26,3407           03720                                    SCALSHFT                              #  0 - MOON.  2 - EARTH
004119: 26,3410           56174                                    2,2                                   #  SET VEL DISPLAY TO B-7
004120: 26,3411           24317                           STOVL    R22DISP    +2
004121: 26,3412           02665                                    DELTAX
004122: 26,3413           53646                           ABVAL    SRR*
004123: 26,3414           56174                                    2,2                                   #  SET POS DISPLAY TO B-29
004124: 26,3415           00315                           STORE    R22DISP
004125: 26,3416           54335                           SLOAD    SR
004126: 26,3417           02005                                    RMAX
004127: 26,3420           20613                                    10D
004128: 26,3421           50025                           DSU      BMN
004129: 26,3422           00315                                    R22DISP
004130: 26,3423           50572                                    R22LEM96                              #  GO DISPLAY
004131: 26,3424           45335                           SLOAD    DSU
004132: 26,3425           02006                                    VMAX
004133: 26,3426           00317                                    R22DISP    +2                         #  VMAX MINUS VEL. DEVIATION
004134: 26,3427           77640                           BMN
004135: 26,3430           50572                                    R22LEM96                              #  GO DISPLAY
004136: 26,3431           77624        ASTOK              CALL
004137: 26,3432           46743                                    INCORP2
004138: 26,3433           77650                           GOTO
004139: 26,3434           03675                                    LGRET
004140: 26,3435           00103 03370  IMUVAR             2DEC     E-6        B12                        #  RAD**2
004141:
004142: 26,3437           00241        WSIZE              DEC      161        B-14


004144: 26,3440           31103 36652  2PI/8              2DEC     3.141592653 B-2
004145:
004146: 26,3442  E7,1456                                  EBANK=   LOSCOUNT


004148:
004149:                                                                                                  #  PROGRAM NAME LRS24.1          RR SEARCH ROUTINE
004150:                                                                                                  #  MOD NO 0                      BY P VOLANTE   SDC              DATE 1-15-67
004151:
004152:                                                                                                  #  FUNCTIONAL DESCRIPTION
004153:
004154:                                                                                                  #  DRIVES THE RENDEZVOUS RADAR IN A HEXAGONAL SEARCH PATTERN ABOUT THE LOS TO THE CSM (COMPUTED FROM THE CSM AND LM
004155:                                                                                                  #  STATE VECTORS) CHECKING FOR THE DATA GOOD DISCRETE AND MONITORING THE ANGLE BETWEEN THE RADAR BORESIGHT AND THE
004156:                                                                                                  #  LM +Z AXIS.  IF THIS ANGLE EXCEEDS 30 DEGREES THE PREFERRED TRACKING ATTITUDE ROUTINE IS CALLED TO PERFORM AN
004157:                                                                                                  #  ATTITUDE MANEUVER.
004158:
004159:                                                                                                  #  CALLING SEQUENCE - BANKCALL FOR LRS24.1
004160:
004161:                                                                                                  #  SUBROUTINES CALLED
004162:
004163:                                                                                                  #        LEMCONIC        R61LEM
004164:                                                                                                  #        CSMCONIC        RRDESSM
004165:                                                                                                  #        JOBDELAY        FLAGDOWN
004166:                                                                                                  #        WAITLIST        FLAGUP
004167:                                                                                                  #        RRNB            BANKCALL
004168:
004169:                                                                                                  #  EXIT - TO ENDOFJOB WHEN THE SEARCH FLAG (SRCHOPT) IS NOT SET
004170:
004171:                                                                                                  #  OUTPUT
004172:
004173:                                                                                                  #        DATAGOOD (SP) - FOR DISPLAY IN R1 -     00000 INDICATES NO LOCKON
004174:                                                                                                  #                                                11111 INDICATES LOCKON ACHIEVED
004175:                                                                                                  #        OMEGAD (SP)   - FOR DISPLAY IN R2 -     ANGLE BETWEEN RR BORESIGHT VECTOR AND THE SPACECRAFT +Z AXIS
004176:
004177:                                                                                                  #  ERASABLE INITIALIZATION REQUIRED
004178:
004179:                                                                                                  #        SEARCH FLAG MUST BE SET
004180:                                                                                                  #        LM AND CSM STATE VECTORS AND REFSMMAT MATRIX
004181:
004182:                                                                                                  #  DEBRIS
004183:
004184:                                                                                                  #        RLMSRCH         UXVECT
004185:                                                                                                  #        VXRLM           UYVECT
004186:                                                                                                  #        LOSDESRD        NSRCHPNT
004187:                                                                                                  #        DATAGOOD        OMEGAD
004188:                                                                                                  #        MPAC            PUSHLIST
004189:
004190: 26,3442                                           COUNT*   $$/LRS24
004191: 26,3442           34755        LRS24.1            CAF      ZERO
004192: 26,3443           55736                           TS       NSRCHPNT                              #  SET SEARCH PATTERN POINT COUNTER TO ZERO
004193: 26,3444           34736        CHKSRCH            CAF      BIT14                                 #  ISSUE AUTO TRACK ENABLE TO RADAR
004194: 26,3445           00006                           EXTEND


004196: 26,3446           05012                           WOR      CHAN12
004197: 26,3447           34736                           CAF      SRCHOBIT                              #  CHECK IF SEARCH STILL REQUESTED
004198: 26,3450           70076                           MASK     FLAGWRD2                              #  (SRCHOPT FLAG SET)
004199: 26,3451           00006                           EXTEND
004200: 26,3452           15155                           BZF      ENDOFJOB                              #  NO-TERMINATE JOB
004201:
004202: 26,3453           33713                           CAF      6SECONDS                              #  SCHEDULE TASK TO DRIVE RADAR TO NEXT PT.
004203: 26,3454           00004                           INHINT
004204: 26,3455           05203                           TC       WAITLIST                              #  IN 6 SECONDS
004205: 26,3456  E7,1456                                  EBANK=   LOSCOUNT
004206: 26,3456           03643 54067                     2CADR    CALLDGCH
004207:
004208: 26,3460           00003                           RELINT
004209: 26,3461           40110                           CS       RADMODES                              #  IS REMODE IN PROGRESS
004210: 26,3462           74736                           MASK     REMODBIT
004211: 26,3463           00006                           EXTEND
004212: 26,3464           15155                           BZF      ENDOFJOB                              #  YES - WAIT SIX SECONDS
004213: 26,3465           06037                           TC       INTPRET
004214:
004215: 26,3466           43234                           RTB      DAD                                   #  COMPUTE LOS AT PRESENT TIME + 1.5 SEC.
004216: 26,3467           21573                                    LOADTIME
004217: 26,3470           15715                                    1.5SECS
004218: 26,3471           34041        LRS24.11           STCALL   TDEC1
004219: 26,3472           27100                                    LEMCONIC                              #  EXTRAPOLATE LM STATE VECTOR
004220: 26,3473           77775                           VLOAD
004221: 26,3474           00001                                    RATT
004222: 26,3475           27676                           STOVL    RLMSRCH                               #  SAVE LEM POSITION
004223: 26,3476           00007                                    VATT
004224: 26,3477           17740                           STODL    SAVLEMV                               #  SAVE LEM VELOCITY
004225: 26,3500           00015                                    TAT
004226: 26,3501           34041                           STCALL   TDEC1                                 #  EXTRAPOLATE CSM STATE VECTOR
004227: 26,3502           27066                                    CSMCONIC                              #  EXTRAPOLATE CSM STATE VECTOR
004228: 26,3503           52375                           VLOAD    VSU                                   #  LOS VECTOR = R(CSM) - R(LM)
004229: 26,3504           00001                                    RATT
004230: 26,3505           03676                                    RLMSRCH
004231: 26,3506           77656                           UNIT
004232: 26,3507           27712                           STOVL    LOSDESRD                              #  STORE DESIRED LOS
004233: 26,3510           00007                                    VATT                                  #  COMPUTE UNIT(V(CM) CROSS R(CM))
004234: 26,3511           47256                           UNIT     VXV
004235: 26,3512           00001                                    RATT
004236: 26,3513           77656                           UNIT
004237: 26,3514           03704                           STORE    VXRCM
004238: 26,3515           52375                           VLOAD    VSU
004239: 26,3516           00007                                    VATT
004240: 26,3517           03740                                    SAVLEMV
004241: 26,3520           76521                           MXV      VSL1                                  #  CONVERT FROM REFERENCE TO STABLE MEMBER
004242: 26,3521           01734                                    REFSMMAT
004243: 26,3522           03740                           STORE    SAVLEMV                               #  VLC = V(CSM) - V(LM)
004244: 26,3523           53135                           SLOAD    BZE                                   #  CHECK IF N=0


004246: 26,3524           03737                                    NSRCHPNT
004247: 26,3525           55636                                    DESGLOS                               #  YES - DESIGNATE ALONG LOS
004248: 26,3526           53025                           DSU      BZE                                   #  IS N=1
004249: 26,3527           15711                                    ONEOCT                                #  YES - CALCULATE X AND Y AXES OF
004250: 26,3530           55623                                    CALCXY                                #  SEARCH PATTERN COORDINATE SYSTEM
004251: 26,3531           77775                           VLOAD                                          #  NO - ROTATE X-Y AXES TO NEXT SEARCH POINT
004252: 26,3532           03720                                    UXVECT
004253: 26,3533           24015                           STOVL    UXVECTPR                              #  SAVE ORIGINAL X AND Y VECTORS
004254: 26,3534           03726                                    UYVECT                                #  UXPRIME = ORIGINAL UX
004255: 26,3535           00023                           STORE    UYVECTPR                              #  UYPRIME = ORIGINAL UY
004256: 26,3536           77761                           VXSC
004257: 26,3537           15705                                    SIN60DEG                              #  UX = (COS 60)UXPR + (SIN 60)UYPR
004258: 26,3540           27720                           STOVL    UXVECT
004259: 26,3541           00015                                    UXVECTPR
004260: 26,3542           53361                           VXSC     VAD
004261: 26,3543           06520                                    COS60DEG
004262: 26,3544           03720                                    UXVECT
004263: 26,3545           77656                           UNIT
004264: 26,3546           27720                           STOVL    UXVECT
004265: 26,3547           00015                                    UXVECTPR                              #  UY = (-SIN 60)UXPR + (COS 60)UYPR
004266: 26,3550           77761                           VXSC
004267: 26,3551           15705                                    SIN60DEG
004268: 26,3552           27726                           STOVL    UYVECT
004269: 26,3553           00023                                    UYVECTPR
004270: 26,3554           52361                           VXSC     VSU
004271: 26,3555           06520                                    COS60DEG
004272: 26,3556           03726                                    UYVECT
004273: 26,3557           77656                           UNIT
004274: 26,3560           03726                           STORE    UYVECT
004275: 26,3561           53361        OFFCALC            VXSC     VAD                                   #  OFFSET VECTOR = K(UY)
004276: 26,3562           15707                                    OFFSTFAC                              #  LOS VECTOR + OFFSET VECTOR DEFINES
004277: 26,3563           03712                                    LOSDESRD                              #  DESIRED POINT IN SEARCH PATTERN
004278: 26,3564           64256                           UNIT     MXV
004279: 26,3565           01734                                    REFSMMAT                              #  CONVERT TO STABLE MEMBER COORDINATES
004280: 26,3566           77772                           VSL1
004281: 26,3567           25102        CONTDESG           STOVL    RRTARGET
004282: 26,3570           03740                                    SAVLEMV
004283: 26,3571           01761                           STORE    LOSVEL
004284: 26,3572           77776                           EXIT
004285: 26,3573           00004                           INHINT
004286: 26,3574           06027                           TC       KILLTASK                              #  KILL ANY PRESENTLY WAITLISTED TASK
004287: 26,3575           52602                           CADR     DESLOOP    +2                         #  WHICH WOULD DESIGNATE TO THE LAST
004288:                                                                                                  #  POINT IN THE PATTERN
004289: 26,3576           44735        CONTDES2           CS       CDESBIT
004290: 26,3577           70110                           MASK     RADMODES                              #  SET BIT 15 OF RADMODES TO INDICATE
004291: 26,3600           64735                           AD       CDESBIT                               #  A CONTINUOUS DESIGNATE WANTED.
004292: 26,3601           54110                           TS       RADMODES
004293: 26,3602           06037                           TC       INTPRET
004294:
004295: 26,3603           77624                           CALL


004297: 26,3604           52373                                    RRDESSM                               #  DESIGNATE RADAR TO RRTARGET VECTOR
004298:
004299: 26,3605           77776                           EXIT
004300: 26,3606           03675                           TC       LIMALARM                              #  LOS NOT IN MODE 2 COVERAGE (P22)
004301: 26,3607           03675                           TC       LIMALARM                              #  VEHICLE MANEUVER REQUIRED (P20)
004302:
004303:                                                                                                  #  COMPUTE OMEGA,ANGLE BETWEEN RR LOS AND
004304:                                                                                                  #  SPACECRAFT +Z AXIS
004305: 26,3610           00006        OMEGCALC           EXTEND
004306: 26,3611           30036                           DCA      CDUT
004307: 26,3612           53753                           DXCH     TANGNB
004308: 26,3613           06037                           TC       INTPRET
004309: 26,3614           77624                           CALL
004310: 26,3615           46041                                    RRNB
004311: 26,3616           65545                           DLOAD    ACOS                                  #  OMEGA IS ARCCOSINE OF Z-COMPONENT OF
004312: 26,3617           00045                                    36D                                   #  VECTOR COMPUTED BY RRNB (LEFT AT 32D)
004313: 26,3620           03735                           STORE    OMEGDISP                              #  STORE FOR DISPLAY IN R2
004314: 26,3621           77776                           EXIT
004315: 26,3622           05155                           TC       ENDOFJOB


004317:                                                                                                  #  CALCULATE X AND Y VECTORS FOR SEARCH PATTERN COORDINATE SYSTEM
004318:
004319: 26,3623           47375        CALCXY             VLOAD    VXV
004320: 26,3624           03704                                    VXRCM
004321: 26,3625           03712                                    LOSDESRD
004322: 26,3626           77656                           UNIT
004323: 26,3627           27720                           STOVL    UXVECT                                #  UX = (VLM X RLM) X LOS
004324: 26,3630           03712                                    LOSDESRD
004325: 26,3631           53435                           VXV      UNIT
004326: 26,3632           03720                                    UXVECT
004327: 26,3633           03726                           STORE    UYVECT                                #  UY = LOS X UX
004328: 26,3634           77650                           GOTO
004329: 26,3635           55561                                    OFFCALC
004330:
004331: 26,3636           64375        DESGLOS            VLOAD    MXV                                   #  WHEN N= 0,DESIGNATE ALONG LOS
004332: 26,3637           03712                                    LOSDESRD
004333: 26,3640           01734                                    REFSMMAT                              #  CONVERT LOS FROM REFERENCE TO SM COORDS
004334: 26,3641           52172                           VSL1     GOTO
004335: 26,3642           55567                                    CONTDESG
004336:
004337: 26,3643           30074        CALLDGCH           CAE      FLAGWRD0                              #  IS RENDEZVOUS FLAG SET
004338: 26,3644           74745                           MASK     RNDVZBIT
004339: 26,3645           00006                           EXTEND
004340: 26,3646           15261                           BZF      TASKOVER                              #  NO - EXIT R24
004341: 26,3647           37713                           CAF      PRIO25                                #  YES - SCHEDULE JOB TO DRIVE RADAR TO NEXT
004342: 26,3650           05105                           TC       FINDVAC                               #  POINT IN SEARCH PATTERN
004343: 26,3651  E7,1675                                  EBANK=   RLMSRCH
004344: 26,3651           03654 54067                     2CADR    DATGDCHK
004345:
004346: 26,3653           05261                           TC       TASKOVER
004347:
004348: 26,3654           34750        DATGDCHK           CAF      BIT4
004349: 26,3655           00006                           EXTEND                                         #  CHECK IF DATA GOOD DISCRETE PRESENT
004350: 26,3656           02033                           RAND     CHAN33
004351: 26,3657           00006                           EXTEND
004352: 26,3660           13667                           BZF      STORE1S                               #  YES - GO TO STORE 11111 FOR DISPLAY IN R1
004353: 26,3661           46242                           CS       SIX
004354: 26,3662           61736                           AD       NSRCHPNT                              #  IS N GREATER THAN 6
004355: 26,3663           00006                           EXTEND
004356: 26,3664           13442                           BZF      LRS24.1                               #  YES - RESET N = 0 AND START AROUND AGAIN
004357: 26,3665           25736                           INCR     NSRCHPNT                              #  NO-SET N = N+1 AN GO TO
004358: 26,3666           13444                           TCF      CHKSRCH                               #  NEXT POINT IN PATTERN
004359:
004360: 26,3667           33703        STORE1S            CAF      ALL1S                                 #  STORE 11111 FOR DISPLAY IN R1
004361: 26,3670           55733                           TS       DATAGOOD


004363: 26,3671           00004                           INHINT
004364: 26,3672           06027                           TC       KILLTASK                              #  DELETE DESIGNATE TASK FROM
004365: 26,3673           52602                           CADR     DESLOOP    +2                         #  WAITLIST USING KILLTASK
004366: 26,3674           05155                           TC       ENDOFJOB
004367:
004368: 26,3675           05567        LIMALARM           TC       ALARM                                 #  ISSUE ALARM 527 - LOS NOT IN MODE2
004369: 26,3676           00527                           OCT      527                                   #  COVERAGE IN P22 OR VEHICLE MANEUVER
004370: 26,3677           00004                           INHINT                                         #  REQUIRED IN P20
004371: 26,3700           06027                           TC       KILLTASK                              #  KILL WAITLIST CALL FOR NEXT
004372: 26,3701           55643                           CADR     CALLDGCH                              #  POINT IN SEARCH PATTERN
004373: 26,3702           05155                           TC       ENDOFJOB
004374:
004375: 26,3703           25547        ALL1S              DEC      11111      B-14
004376: 26,3704           33555 01106  SIN60DEG           2DEC     .86603
004377: 26,3706  23,2517               COS60DEG           =        DPHALF                                #  (2DEC .50)
004378: 26,3706                        UXVECTPR           EQUALS   12D                                   #  PREVIOUS
004379: 26,3706                        UYVECTPR           EQUALS   18D
004380: 26,3706                        RLMUNIT            EQUALS   12D
004381: 26,3706           01642 11045  OFFSTFAC           2DEC     0.05678                               #  TANGENT OF 3.25 DEGREES
004382:
004383: 26,3710           00001        ONEOCT             OCT      00001                                 #  **** NOTE - THESE TWO CONSTANTS MUST ****
004384: 26,3711           00000 00454  3SECONDS           2DEC     300        B-28                       #  **** BE IN THIS ORDER BECAUSE         ****
004385:
004386:                                                                                                  #  **** ONEOCT NEEDS A LOWER ORDER       ****
004387:                                                                                                  #  **** WORD OF ZEROES                   ****
004388: 26,3713           01130        6SECONDS           DEC      600        B-14
004389: 26,3714           00000 00226  1.5SECS            2DEC     150        B-28
004390:
004391: 26,3716  23,2521               ZERO/SP            EQUALS   HI6ZEROS
004392:
004393:    4616                                           BLOCK    02
004394:    6000                                           SETLOC   FFTAG5
004395:    6000                                           BANK
004396:    6022                                           COUNT*   $$/P20
004397:    6022           00006        GOTOV56            EXTEND                                         #  P20 TERMINATES BY GOTOV56 INSTEAD OF
004398:    6023           36026                           DCA      VB56CADR                              #  GOTOPOOH
004399:    6024           15165                           TCF      SUPDXCHZ
004400:    6025  E7,1471                                  EBANK=   WHOCARES
004401:    6025           03024 66107  VB56CADR           2CADR    TRMTRACK
004402:


004404:                                                                                                  #  PROGRAM NAME: R29     (RENDEZVOUS RADAR DESIGNATE DURING POWERED FLIGHT)
004405:                                                                                                  #  MOD NO. 2     BY H. BLAIR-SMITH       JULY 2, 1968.
004406:
004407:                                                                                                  #  FUNCTIONAL DESCRIPTION:
004408:
004409:                                                                                                  #        DESIGNATES THE RENDEZVOUS RADAR TOWARD THE COMPUTED LOS TO THE CSM, WITH THE CHIEF OBJECTIVE OF OBTAINING RANGE
004410:                                                                                                  #        AND RANGE RATE DATA AT 2-SECOND INTERVALS FOR TRANSMISSION TO THE GROUND.  WHEN THE RR IS WITHIN .5 DEGREE OF
004411:                                                                                                  #        THE COMPUTED LOS, TRACKING IS ENABLED, AND DESIGNATION CONTINUES UNTIL THE DATA-GOOD DISCRETE IS RECEIVED.  AT
004412:                                                                                                  #        THAT POINT, DESIGNATION CEASES AND A RADAR-READING ROUTINE TAKES OVER, PREPARING A CONSISTENT SET OF DATA FOR
004413:                                                                                                  #        DOWN TELEMETRY.  THE SET INCLUDES RANGE, RANGE RATE, MARK TIME, TWO RR CDU ANGLES, THREE IMUCDU ANGLES, AND AN
004414:                                                                                                  #        INDICATOR WHICH IS 1 WHEN THE SET IS CONSISTENT AND 0 OTHERWISE.  THE INDICATOR IS IN TRKMKCNT.
004415:
004416:                                                                                                  #  CALLING SEQUENCE:  BEGUN EVERY 2 SECONDS AS AN INTEGRAL PART OF SERVICER
004417:
004418:                                                                                                  #  SUBROUTINES CALLED:
004419:
004420:                                                                                                  #        REMODE          RRTONLY
004421:                                                                                                  #        UNIT            MPACVBUF
004422:                                                                                                  #        QUICTRIG        AX*SR*T
004423:                                                                                                  #        SPSIN           SPCOS
004424:                                                                                                  #        SETRRECR        RROUT
004425:                                                                                                  #        RRRDOT          RRRANGE
004426:
004427:                                                                                                  #  EXIT:  TO NOR29NOW, IN SERVICER.
004428:
004429:                                                                                                  #  OUTPUT:  (ALL FOR DOWNLINK)
004430:
004431:                                                                                                  #        RM              RDOTM           (RAW)
004432:                                                                                                  #        AIG             AMG
004433:                                                                                                  #        AOG             TRKMKCNT        TRKMKCNT = 00001 IF SET IS CONSISTENT,
004434:                                                                                                  #        TANGNB          TANGNB +1       OTHERWISE TRKMKCNT = 00000.
004435:                                                                                                  #        MKTIME


004437:
004438:                                                                                                  #  ERASABLE INITIALIZATION REQUIRED:
004439:
004440:                                                                                                  #        NOR29FLG        READRFLG                (TO 1 AND 0 BY FRESH START) (RESET NOR29FLG TO LET SERVICER RUN R29)
004441:                                                                                                  #        PIPTIME         RADMODES (BIT 10)       (BIT SET TO 0 BY FRESH START)
004442:                                                                                                  #        R(CSM)          V(CSM)
004443:                                                                                                  #        R               V                       (PIPTIME THRU V BY AVE G IN SERVICER)
004444:
004445:                                                                                                  #  DEBRIS:
004446:
004447:                                                                                                  #        RADMODES (BIT 10)
004448:                                                                                                  #        LOSSM           LOSVDT/4                (= RRTARGET & LOSVEL)
004449:                                                                                                  #        SAVECDUT        OLDESFLG                (SAVECDUT = MLOSV)
004450:                                                                                                  #        LOSCMFLG        READRFLG
004451:
004452:                                                                                                  #  ALARMS:  NONE.
004453:
004454:                                                                                                  #  COMPONENT JOBS AND TASKS:
004455:
004456:                                                                                                  #        INITIALIZING, IF RR IS FOUND TO BE IN MODE 1:  JOB R29REMOJ AND TASK REMODE;  ALWAYS: TASK PREPOS29.
004457:                                                                                                  #        DESIGNATING:  TASK BEGDES29 & JOB R29DODES.
004458:                                                                                                  #        RADAR READING:  TASK R29READ AND JOB R29RDJOB.  ALL JOBS ARE NOVAC TYPE.
004459:
004460: 33,2045                                           BANK     33
004461: 33,2000                                           SETLOC   R29/SERV
004462: 33,2000                                           BANK
004463:
004464: 33,2045                                           COUNT*   $$/r29
004465:
004466: 33,2045     5014               NR29&RDR           EQUALS   EBANK5
004467:


004469:                                                                                                  #  SERVICER COMES TO R29 FROM "R29?" IF NOR29FLG, READRFLG, RRREMODE, RRCDUZRO, RRREPOS, AND DISPLAY-INERTIAL-DATA
004470:                                                                                                  #  ARE ALL RESET, AND THE RR IS IN LGC MODE (OFTEN CONFUSINGLY CALLED AUTO MODE).
004471:
004472: 33,2045           40110        R29                CS       RADMODES
004473: 33,2046           74742                           MASK     DESIGBIT
004474: 33,2047           00006                           EXTEND
004475: 33,2050           12123                           BZF      R29.LOS                               #  BRANCH IF DESIGNATION IS ALREADY ON.
004476:
004477: 33,2051           00004                           INHINT
004478: 33,2052           26110                           ADS      RADMODES                              #  SHOW THAT DESIGNATION IS NOW ON.
004479: 33,2053           44736                           CS       BIT14
004480: 33,2054           00006                           EXTEND
004481: 33,2055           03012                           WAND     CHAN12                                #  REMOVE RR TRACK ENABLE DISCRETE.
004482: 33,2056           44740                           CS       LOSCMBIT
004483: 33,2057           70076                           MASK     FLAGWRD2
004484: 33,2060           54076                           TS       FLAGWRD2                              #  CLEAR LOSCMFLG TO SHOW DES. LOOP IS OFF.
004485: 33,2061           44753                           CS       OLDESBIT
004486: 33,2062           70074                           MASK     STATE
004487: 33,2063           54074                           TS       STATE                                 #  SHOW THAT DES. LOOP IS NOT REQUESTED.
004488: 33,2064           04616                           TC       BANKCALL
004489: 33,2065           52156                           CADR     SETRRECR                              #  ENABLE RR ERROR COUNTERS.
004490: 33,2066           34740                           CA       ANTENBIT
004491: 33,2067           70110                           MASK     RADMODES
004492: 33,2070           10000                           CCS      A                                     #  TEST RR MODE BIT.
004493: 33,2071           12104                           TCF      SETPRPOS                              #  MODE 2.
004494:
004495: 33,2072           35031                           CA       PRIO21                                #  MODE 1;  MUST REMODE.
004496: 33,2073           05072                           TC       NOVAC
004497: 33,2074  E7,1456                                  EBANK=   LOSCOUNT
004498: 33,2074           02113 66067                     2CADR    R29REM0J                              #  NEEDS OWN JOB TO RADSTALL IN.
004499:
004500: 33,2076           44742                           CS       DESIGBIT
004501: 33,2077           70110                           MASK     RADMODES                              #  CLEAR DESIGNATE FLAG IN RADMODES
004502: 33,2100           54110                           TS       RADMODES                              #  BEFORE CALLING REMODE
004503: 33,2101           34736                           CA       REMODBIT
004504: 33,2102           26110                           ADS      RADMODES                              #  SHOW THAT REMODING IS ON.
004505: 33,2103           12570                           TCF      NOR29NOW                              #  CONTINUE SERVICER FUNCTIONS.
004506:
004507: 33,2104           34753        SETPRPOS           CA       ONE
004508: 33,2105           05203                           TC       WAITLIST
004509: 33,2106  E7,1456                                  EBANK=   LOSCOUNT
004510: 33,2106           03601 52067                     2CADR    PREPOS29                              #  TASK TO SET TRUNNION ANGLE TO -180 DEG.
004511:
004512: 33,2110           34741                           CA       REPOSBIT
004513: 33,2111           26110                           ADS      RADMODES                              #  SHOW THAT REPOSITIONING IS ON.
004514: 33,2112           12570                           TCF      NOR29NOW
004515:


004517:                                                                                                  #  FORCE RENDEZVOUS RADAR INTO MODE 2.
004518:
004519: 33,2113           34753        R29REM0J           CA       ONE
004520: 33,2114           05203                           TC       WAITLIST
004521: 33,2115  E7,1456                                  EBANK=   LOSCOUNT
004522: 33,2115           02171 52067                     2CADR    REMODE                                #  REMODE MUST RUN AS A TASK.
004523:
004524: 33,2117           04616                           TC       BANKCALL                              #  WAIT FOR END OF REMODING.
004525: 33,2120           17714                           CADR     RADSTALL
004526:
004527: 33,2121           15155                           TCF      ENDOFJOB                              #  BAD EXIT CAN'T HAPPEN.
004528: 33,2122           15155                           TCF      ENDOFJOB
004529:
004530:                                                                                                  #  TASK TO PREPOSITION THE RR TRUNNION ANGLE TO -180 DEG.
004531:
004532: 25,2000                                           SETLOC   R29S1
004533: 25,2000                                           BANK
004534:
004535: 25,3601           34735        PREPOS29           CA       NEGMAX                                #  -180 DEG.
004536: 25,3602           02241                           TC       RRTONLY                               #  DRIVE TRUNNION CDU.
004537: 25,3603           44741                           CS       REPOSBIT                              #  SHOW THAT REPOSITIONING IS OFF.
004538: 25,3604           70110                           MASK     RADMODES
004539: 25,3605           54110                           TS       RADMODES
004540: 25,3606           15261                           TCF      TASKOVER
004541:
004542:                                                                                                  #  COMPUTE LINE-OF-SIGHT AND LOS VELOCITY, AND PASS THEM TO THE R29DODES LOOP.
004543:
004544: 33,2045                                           SETLOC   R29
004545: 33,2045                                           BANK
004546:
004547: 33,2123           00006        R29.LOS            EXTEND
004548: 33,2124           41235                           DCS      PIPTIME
004549: 33,2125           52155                           DXCH     MPAC
004550: 33,2126           00006                           EXTEND
004551: 33,2127           30025                           DCA      TIME2
004552: 33,2130           20155                           DAS      MPAC                                  #  (MPAC) = T-PIPTIME, SCALED B-28.
004553: 33,2131           54163                           TS       MODE                                  #  SET MODE TO DOUBLE PRECISION.
004554: 33,2132           30155                           CA       MPAC       +1
004555: 33,2133           00006                           EXTEND
004556: 33,2134           74740                           MP       BIT12
004557: 33,2135           52155                           DXCH     MPAC                                  #  T-PIPTIME NOW SCALED B-17.
004558: 33,2136           06037                           TC       INTPRET


004560:                                                                                                  #  LOSCMFLG = 0 MEANS THAT THE DESIGNATION IS READY FOR NEW DATA.  SETTING LOSCMFLG MAKES IT GO AWAY SO SETUP29D CAN
004561:                                                                                                  #  START IT UP WHEN THE DATA IS IN PLACE.
004562:
004563: 33,2137           52315                           PDVL     VSU                                   #  PUSH DOWN T-PIPTIME.
004564: 33,2140           01726                                    V(CSM)
004565: 33,2141           03527                                    V                                     #  LOSVEL = V(CSM) - V.
004566: 33,2142           74325                           PDDL     VXSC                                  #  SWAP LOSVEL FOR T-PIPTIME, MULTIPLY THEM
004567: 33,2143           52255                           VAD      VSU                                   #        AND ADD THE RESULT TO R(CSM) - R TO GET
004568: 33,2144           01720                                    R(CSM)                                #        AN UP-TO-DATE LOS VECTOR IN SM AXES.
004569: 33,2145           03521                                    R
004570: 33,2146           77414                           BOFSET   EXIT                                  #  (BOFSET DOES ITS THING INHINTED.)
004571: 33,2147           01043                                    LOSCMFLG                              #  IF DESIGNATE LOOP IS OFF, CHANGE LOSCM-
004572: 33,2150           66152                                    SETUP29D                              #  FLG TO ON AND GO TO SET UP NEW DATA.
004573: 33,2151           12570                           TCF      NOR29NOW                              #  IF DES. LOOP IS ON, LET IT USE OLD DATA.
004574:
004575: 33,2152           25102        SETUP29D           STOVL    LOSSM                                 #  LINE-OF-SIGHT VECTOR, STABLE MEMBER AXES
004576: 33,2153           00001                                    0
004577: 33,2154           77761                           VXSC
004578: 33,2155           26177                                    .5SECB17
004579: 33,2156           01761                           STORE    LOSVDT/4                              #  1/2 SECOND'S WORTH OF LOS VELOCITY.
004580: 33,2157           77414                           CLEAR    EXIT
004581: 33,2160           01263                                    LOSCMFLG                              #  LET R29DLOOP USE NEW DATA.
004582:
004583: 33,2161           40074                           CS       STATE
004584: 33,2162           74753                           MASK     OLDESBIT
004585: 33,2163           00006                           EXTEND
004586: 33,2164           12570                           BZF      NOR29NOW                              #  BRANCH IF R29 DES. LOOP IS REQUESTED.
004587: 33,2165           00004                           INHINT
004588: 33,2166           26074                           ADS      STATE                                 #  OTHERWISE REQUEST IT NOW.
004589:
004590: 33,2167           11056                           CCS      PIPCTR                                #  SEE IF TASK SHOULD BE OFFSET ONE SECOND.
004591: 33,2170           44776                           CS       SUPER110                              #  -96D +100D = 4.
004592: 33,2171           64777                           AD       1SEC                                  #  0 +100D = 100D.
004593: 33,2172           05203                           TC       WAITLIST
004594: 33,2173  E7,1456                                  EBANK=   LOSCOUNT
004595: 33,2173           03356 50067                     2CADR    BEGDES29                              #  START BEGDES29 TASK ASAP.
004596:
004597: 33,2175           12570                           TCF      NOR29NOW                              #  RELINT AND CONTINUE SERVICER FUNCTIONS.
004598:
004599: 33,2176           00006 10000  .5SECB17           2DEC     50         B-17
004600:


004602:                                                                                                  #  R29 DESIGNATE JOB AND TASK MACHINERY.  TASK RECURS EVERY .5 SEC UNTIL DESIGNATE IS CALLED OFF; IT MAY WAIT FOR A
004603:                                                                                                  #  CENTISECOND OR TWO IF IT COMES UP WHILE SETUP29D IS SUPPLYING NEW DATA.
004604:
004605: 24,3356                                           BANK     24
004606: 24,2000                                           SETLOC   P20S
004607: 24,2000                                           BANK
004608:
004609: 24,3356                                           COUNT*   $$/R29
004610:
004611: 24,3356           35031        BEGDES29           CAF      PRIO21
004612: 24,3357           05072                           TC       NOVAC
004613: 24,3360  E3,1760                                  EBANK=   LOSVDT/4
004614: 24,3360           02547 64063                     2CADR    R29DODES                              #  START R29DODES JOB TWICE A SECOND.
004615:
004616: 24,3362           34774        R29DLOOP           CAF      .5SEC
004617: 24,3363           05224                           TC       VARDELAY
004618:
004619: 24,3364           40110                           CS       RADMODES
004620: 24,3365           74742                           MASK     DESIGBIT
004621: 24,3366           10000                           CCS      A
004622: 24,3367           15261                           TCF      TASKOVER                              #  QUIT IF DESIGNATION IS CALLED OFF.
004623:
004624: 24,3370           40076                           CS       FLAGWRD2
004625: 24,3371           74740                           MASK     LOSCMBIT
004626: 24,3372           00006                           EXTEND
004627: 24,3373           13376                           BZF      +3                                    #  BRANCH IF SETUP29D'S SUPPLYING NEW DATA.
004628: 24,3374           26076                           ADS      FLAGWRD2                              #  SET LOSCMFLG:  SHOW THAT DES. LOOP IS ON.
004629: 24,3375           13356                           TCF      BEGDES29
004630:
004631: 24,3376           34753                           CA       ONE
004632: 24,3377           13363                           TCF      R29DLOOP   +1                         #  WAIT A CENTISECOND FOR NEW DATA.


004634:                                                                                                  #  R29DODES:  RR DESIGNATION LOOP FOR R29
004635:
004636:                                                                                                  #  THIS ROUTINE DOES MUCH THE SAME THING AS DODES, BUT A GREAT DEAL FASTER.  IT TAKES THE NON-UNITIZED LOS VECTOR
004637:                                                                                                  #  IN STABLE MEMBER COORDINATES (LOSSM) AND A DELTA-LOS IN SM AXES (LOSVDT/4) WHICH IS 1/2 SEC TIMES LOS VELOCITY,
004638:                                                                                                  #  AND DEVELOPS THE SHAFT AND TRUNNION COMMANDS USING SINGLE PRECISION AS MUCH AS POSSIBLE, AND INTERPRETIVE NOT AT
004639:                                                                                                  #  ALL.  THE UNIT(LOSSM + LOSVEL * 1 SEC) IS COMPUTED IN DP AND TRANSFORMED TO NAV BASE COORDINATES IN DOUBLE PRE-
004640:                                                                                                  #  CISION (USING SP SINES AND COSINES OF CDU ANGLES), AND THE REST IS DONE IN SP.
004641:
004642:                                                                                                  #  THE FUNCTIONAL DIFFERENCE IS THAT R29DODES ALWAYS CLEARS LOSCMFLG WHEN IT ENDS, AND IT STARTS UP THE R29READ
004643:                                                                                                  #  TASK WHEN LOCK-ON IS ACHIEVED.
004644:
004645: 32,2547                                           BANK     32
004646: 32,2000                                           SETLOC   F2DPS*32
004647: 32,2000                                           BANK
004648:
004649: 32,2547                                           COUNT*   $$/R29
004650: 32,2547  E3,1760                                  EBANK=   LOSVDT/4
004651:
004652: 32,2547           34753        R29DODES           CA       ONE
004653: 32,2550           55107                           TS       TANG                                  #  INDICATE 1ST PASS THRU VECTOR LOOP.
004654: 32,2551           34756                           CA       FIVE
004655:
004656: 32,2552           10000        R29DVBEG           CCS      A                                     #  COUNT DOWN BY TWOS IN VECTOR LOOP.
004657: 32,2553           54002                           TS       Q
004658: 32,2554           11107                           CCS      TANG
004659: 32,2555           12563                           TCF      R29DPAS1                              #  DO THIS ON 1ST PASS THRU LOOP.
004660:
004661: 32,2556           00006                           EXTEND                                         #  (A "PASS" HERE MEANS 3 TIMES AROUND).
004662: 32,2557           50002                           INDEX    Q
004663: 32,2560           31761                           DCA      LOSVDT/4
004664: 32,2561           50002                           INDEX    Q
004665: 32,2562           21102                           DAS      LOSSM                                 #  ADVANCE LOS VECTOR 1/2 SECOND.
004666:
004667: 32,2563           00006        R29DPAS1           EXTEND
004668: 32,2564           50002                           INDEX    Q
004669: 32,2565           31102                           DCA      LOSSM
004670: 32,2566           50002                           INDEX    Q                                     #  MOVE CURRENT LOS (1ST PASS) OR LOS PRO-
004671: 32,2567           52156                           DXCH     MPAC       +1                         #  JECTED 1/2 SEC AHEAD (2ND PASS).
004672: 32,2570           11107                           CCS      TANG
004673: 32,2571           12577                           TCF      R29DVEND                              #  BUG OUT HERE IN 1ST PASS.
004674:
004675: 32,2572           00006                           EXTEND
004676: 32,2573           50002                           INDEX    Q
004677: 32,2574           31761                           DCA      LOSVDT/4
004678: 32,2575           50002                           INDEX    Q
004679: 32,2576           20156                           DAS      MPAC       +1                         #  PROJECT LOS 1 SECOND AHEAD (2ND PASS).
004680:
004681: 32,2577           10002        R29DVEND           CCS      Q
004682: 32,2600           12552                           TCF      R29DVBEG                              #  BRANCH TO CONTINUE VECTOR LOOP.
004683:


004685:                                                                                                  #  UNITIZE AND TRANSFORM TO NAV BASE AXES THE PRESENT LOS (1ST PASS) OR THE 1-SEC PROJECTED LOS (2ND PASS).
004686:
004687: 32,2601           52156                           DXCH     MPAC       +1
004688: 32,2602           52155                           DXCH     MPAC
004689: 32,2603           32774                           CA       R29FXLOC                              #  = ADRES INTB15 + -34D
004690: 32,2604           54120                           TS       FIXLOC
004691: 32,2605           04713                           TC       USPRCADR                              #  WITH FIXLOC ARMED FOR LENGTH AND LENGTH
004692: 32,2606           01023                           CADR     UNIT                                  #  SQUARED, BORROW UNITIZING ROUTINE.
004693: 32,2607           07532                           TC       MPACVBUF                              #  MOVE UNIT(LOS) TO AX*SR*T ARG AREA.
004694:
004695: 32,2610           11107                           CCS      TANG
004696: 32,2611           12613                           TCF      +2
004697: 32,2612           12627                           TCF      GOTANGLS                              #  GET CDU ANGLES ONLY AFTER 1ST PASS.
004698: 32,2613           00004                           INHINT                                         #  ENSURE CONSISTENT CDU READINGS.
004699: 32,2614           00006                           EXTEND
004700: 32,2615           30036                           DCA      CDUT
004701: 32,2616           53767                           DXCH     SAVECDUT                              #  TRUNNION AND SHAFT ANGLES.
004702: 32,2617           30033                           CA       CDUY
004703: 32,2620           54766                           TS       CDUSPOT
004704: 32,2621           30034                           CA       CDUZ
004705: 32,2622           54770                           TS       CDUSPOT    +2
004706: 32,2623           30032                           CA       CDUX
004707: 32,2624           54772                           TS       CDUSPOT    +4                         #  CDU ANGLES IN FUNNY ORDER FOR AX*SR*T.
004708: 32,2625           04616                           TC       BANKCALL
004709: 32,2626           47615                           CADR     QUICTRIG                              #  GET SINES AND COSINES OF CDU ANGLES.
004710:
004711: 32,2627           46245        GOTANGLS           CS       THREE
004712: 32,2630           04616                           TC       BANKCALL
004713: 32,2631           47675                           CADR     AX*SR*T                               #  TRANSFORM UNIT LOS TO NB AXES (ULOSNB).
004714:
004715: 32,2632           11107                           CCS      TANG
004716: 32,2633           12635                           TCF      +2
004717: 32,2634           12702                           TCF      R29DPAS2                              #  GO TO RR COMMAND COMP. AFTER 2ND PASS.
004718:


004720:                                                                                                  #  COMPUTE COSINE OF THE ANGLE BETWEEN THE PRESENT LOS AND THE RR BORESIGHT VECTOR, AND SET THE SELFTRACK ENABLE IF
004721:                                                                                                  #  THE COSINE IS APPROXIMATELY COS(.5 DEG) OR GREATER (I.E. SMALLER ANGLE).
004722:
004723: 32,2635           00004                           INHINT
004724: 32,2636           55107                           TS       TANG                                  #  INDICATE 2ND PASS THRU VECTOR LOOP.
004725: 32,2637           31766                           CA       SAVECDUT
004726: 32,2640           05032                           TC       SPCOS
004727: 32,2641           54166                           TS       PUSHLOC                               #  PUSHLOC = COS T.
004728: 32,2642           41766                           CS       SAVECDUT
004729: 32,2643           05033                           TC       SPSIN
004730: 32,2644           54163                           TS       MODE                                  #  MODE = -SIN T.
004731: 32,2645           00006                           EXTEND
004732: 32,2646           70124                           MP       VBUF       +2                         #  FORM - SIN T ULOSNBY.
004733: 32,2647           52155                           DXCH     MPAC
004734: 32,2650           31767                           CA       SAVECDUT   +1
004735: 32,2651           05033                           TC       SPSIN
004736: 32,2652           55766                           TS       SAVECDUT                              #  SAVECDUT NOW = SIN S.
004737: 32,2653           00006                           EXTEND
004738: 32,2654           70166                           MP       PUSHLOC
004739: 32,2655           00006                           EXTEND
004740: 32,2656           70122                           MP       VBUF                                  #  FORM SIN S COS T ULOSNBX.
004741: 32,2657           20155                           DAS      MPAC
004742: 32,2660           31767                           CA       SAVECDUT   +1
004743: 32,2661           05032                           TC       SPCOS
004744: 32,2662           55767                           TS       SAVECDUT   +1                         #  SAVECDUT +1 NOW = COS S.
004745: 32,2663           00006                           EXTEND
004746: 32,2664           70166                           MP       PUSHLOC
004747: 32,2665           00006                           EXTEND
004748: 32,2666           70126                           MP       VBUF       +4                         #  FORM COS S COS T ULOSNBZ.
004749: 32,2667           20155                           DAS      MPAC                                  #  COS(ERROR) = ULOSNB . (SIN S COS T,
004750: 32,2670           00006                           EXTEND                                         #  -SIN T, COS S COS T).
004751: 32,2671           30155                           DCA      MPAC
004752: 32,2672           20155        TESTCOS            DAS      MPAC                                  #  (ULOSNB IN VBUF WAS A HALF-UNIT VECTOR).
004753: 32,2673           10000                           CCS      A                                     #  TEST FOR + OVERFLOW, NONE, OR MINUS.
004754: 32,2674           34736                           CA       BIT14
004755: 32,2675           12676                           NOOP
004756: 32,2676           00006                           EXTEND
004757: 32,2677           05012                           WOR      CHAN12                                #  IF PLUS OVERFLOW, SET SELFTRACK ENABLE.
004758: 32,2700           00003                           RELINT
004759: 32,2701           12551                           TCF      R29DVBEG   -1                         #  MAKE 2ND PASS THRU VECTOR LOOP.
004760:


004762:                                                                                                  #  COMPUTE SHAFT AND TRUNNION COMMANDS TO NULL HALF THE ERROR IN HALF A SECOND.
004763:
004764: 32,2702           31767        R29DPAS2           CA       SAVECDUT   +1
004765: 32,2703           00006                           EXTEND
004766: 32,2704           70122                           MP       VBUF                                  #  FORM COS S ULOSNB'X.
004767: 32,2705           53110                           DXCH     TANG
004768: 32,2706           41766                           CS       SAVECDUT
004769: 32,2707           00006                           EXTEND
004770: 32,2710           70126                           MP       VBUF       +4                         #  FORM - SIN S ULOSNB'Z.
004771: 32,2711           21110                           DAS      TANG                                  #  RAW SHAFT CMD = ULOSNB' . (COS S, 0,
004772: 32,2712           40163                           CS       MODE                                  #  - SIN S)
004773: 32,2713           00006                           EXTEND
004774: 32,2714           71766                           MP       SAVECDUT
004775: 32,2715           00006                           EXTEND
004776: 32,2716           70122                           MP       VBUF                                  #  FORM SIN T SIN S ULOSNB'X.
004777: 32,2717           52155                           DXCH     MPAC
004778: 32,2720           30166                           CA       PUSHLOC
004779: 32,2721           00006                           EXTEND
004780: 32,2722           70124                           MP       VBUF       +2                         #  FORM COS T ULOSNB'Y.
004781: 32,2723           20155                           DAS      MPAC
004782: 32,2724           40163                           CS       MODE
004783: 32,2725           00006                           EXTEND
004784: 32,2726           71767                           MP       SAVECDUT   +1
004785: 32,2727           00006                           EXTEND
004786: 32,2730           70126                           MP       VBUF       +4                         #  FORM SIN T COS S ULOSNB'Z.
004787: 32,2731           20155                           DAS      MPAC                                  #  RAW TRUNNION CMD = ULOSNB'.
004788: 32,2732           30154                           CA       MPAC                                  #  (SIN S SIN T, COS T, SIN S COS T).
004789: 32,2733           00006                           EXTEND
004790: 32,2734           72775                           MP       RR29GAIN
004791: 32,2735           57107                           XCH      TANG                                  #  STORE REFINED T CMD, GET RAW S CMD.
004792: 32,2736           00006                           EXTEND
004793: 32,2737           72775                           MP       RR29GAIN
004794: 32,2740           55110                           TS       TANG       +1                         #  STORE REFINED S CMD.
004795:


004797:                                                                                                  #  WHETHER OR NOT TRACKING WAS ENABLED THIS TIME, CHECK ON RR DATA-GOOD.  IF PRESENT, STOP DESIGNATING AND START
004798:                                                                                                  #  READING DATA FROM THE RENDEZVOUS RADAR.
004799:
004800: 32,2741           34750        DGOOD?             CAF      BIT4
004801: 32,2742           00006                           EXTEND
004802: 32,2743           02033                           RAND     CHAN33                                #  GET RR DATA-GOOD BIT.
004803: 32,2744           00004                           INHINT                                         #  (MAINLY FOR RROUT).
004804: 32,2745           00006                           EXTEND
004805: 32,2746           12752                           BZF      R29LOKON                              #  BRANCH IF DATA-GOOD IS PRESENT.
004806:
004807: 32,2747           04616                           TC       BANKCALL
004808: 32,2750           52306                           CADR     RROUT                                 #  DATA-GOOD IS ABSENT, SO SEND COMMANDS.
004809: 32,2751           12770                           TCF      END29DOD
004810:
004811: 32,2752           44742        R29LOKON           CS       DESIGBIT
004812: 32,2753           70110                           MASK     RADMODES
004813: 32,2754           54110                           TS       RADMODES                              #  SHOW THAT DESIGNATION IS OVER.
004814: 32,2755           44752                           CS       BIT2
004815: 32,2756           00006                           EXTEND
004816: 32,2757           03012                           WAND     CHAN12                                #  DISABLE RR ERROR COUNTERS.
004817: 32,2760           34743                           CA       READRBIT
004818: 32,2761           26077                           ADS      FLAGWRD3                              #  SHOW THAT READING HAS BEEN REQUESTED.
004819: 32,2762           11056                           CCS      PIPCTR                                #  SEE IF TASK SHOULD BE OFFSET 1 SEC.
004820: 32,2763           44776                           CS       SUPER110                              #  -96D + 100D = 4.
004821: 32,2764           64777                           AD       1SEC                                  #  0 + 100D = 100D.
004822: 32,2765           05203                           TC       WAITLIST
004823: 32,2766  E7,1456                                  EBANK=   LOSCOUNT
004824: 32,2766           03400 50067                     2CADR    R29READ                               #  START READING TASK AND JOB.
004825:
004826: 32,2770           44740        END29DOD           CS       LOSCMBIT
004827: 32,2771           70076                           MASK     FLAGWRD2
004828: 32,2772           54076                           TS       FLAGWRD2                              #  ALWAYS CLEAR LOSCMFLG.
004829: 32,2773           15155                           TCF      ENDOFJOB
004830:
004831: 32,2774           00052        R29FXLOC           ADRES    INTB15+    -34D
004832: 32,2775           56655        RR29GAIN           DEC      -.53624
004833: 32,2776  E3,1760               LOSVDT/4           EQUALS   LOSVEL
004834: 32,2776     1101               LOSSM              EQUALS   RRTARGET
004835: 32,2776  E3,1766               SAVECDUT           EQUALS   MLOSV
004836:


004838:                                                                                                  #  RR READING IS SET UP BY R29DODES WHEN IT DETECTS RR LOCK-ON.
004839:
004840: 24,3400                                           BANK     24
004841: 24,2000                                           SETLOC   P20S
004842: 24,2000                                           BANK
004843:
004844: 24,3400                                           COUNT*   $$/R29
004845:
004846: 24,3400  E7,1456                                  EBANK=   LOSCOUNT
004847:
004848: 24,3400           37714        R29READ            CAF      PRIO26                                #  CALLED BY WAITLIST.
004849: 24,3401           05072                           TC       NOVAC
004850: 24,3402  E7,1456                                  EBANK=   LOSCOUNT
004851: 24,3402           03413 50067                     2CADR    R29RDJOB                              #  START JOB TO READ AND DOWNLINK FOR R29.
004852:
004853: 24,3404           35000                           CA       2SECS
004854: 24,3405           05224                           TC       VARDELAY
004855:
004856: 24,3406           30077                           CA       FLAGWRD3                              #  2 SECONDS LATER, SEE IF READING IS STILL
004857: 24,3407           74743                           MASK     READRBIT                              #  ALLOWED (NO TRACKER FAIL ETC.)
004858: 24,3410           10000                           CCS      A
004859: 24,3411           13400                           TCF      R29READ                               #  IT'S OK;  CALL IT AGAIN.
004860: 24,3412           15261                           TCF      TASKOVER                              #  IT AIN'T;  WAIT FOR REDESIGNATE.
004861:
004862: 24,3413           30077        R29RDJOB           CA       FLAGWRD3                              #  CALLED VIA NOVAC.
004863: 24,3414           74741                           MASK     NR29FBIT
004864: 24,3415           10000                           CCS      A                                     #  TEST "NOR29FLG".
004865: 24,3416           13475                           TCF      ENDRRD29                              #  R29 IS NOW OVER, STOP AT ONCE.
004866:
004867: 24,3417           30110                           CA       RADMODES
004868: 24,3420           74752                           MASK     AUTOMBIT
004869: 24,3421           10000                           CCS      A                                     #  TEST RR-NOT-IN-AUTO-MODE BIT.
004870: 24,3422           13475                           TCF      ENDRRD29                              #  ASTRO TOOK RR OUT OF AUTO MODE.
004871:
004872: 24,3423           04616                           TC       BANKCALL
004873: 24,3424           53103                           CADR     RRRDOT                                #  INITIATE READING OF RANGE RATE.
004874: 24,3425           04616                           TC       BANKCALL
004875: 24,3426           17714                           CADR     RADSTALL                              #  GO TO SLEEP UNTIL IT'S READY.
004876: 24,3427           13475                           TCF      ENDRRD29                              #  BAD READ; REDESIGNATE.
004877:


004879:                                                                                                  #  R29 RADAR READING CONTINUED.
004880:
004881: 24,3430           53106                           DXCH     TIMEHOLD
004882: 24,3431           52155                           DXCH     MPAC                                  #  TIME OF RR READING, FOR DOWNLINK.
004883: 24,3432           00004                           INHINT                                         #  BE SURE OF 5 CONSISTENT CDU ANGLES.
004884: 24,3433           00006                           EXTEND
004885: 24,3434           30036                           DCA      CDUT
004886: 24,3435           52157                           DXCH     MPAC       +2                         #  RRCDU ANGLES AT RR READ, FOR DOWNLINK.
004887: 24,3436           00006                           EXTEND
004888: 24,3437           30034                           DCA      CDUY
004889: 24,3440           52161                           DXCH     MPAC       +4                         #  MPAC'S 7 WORDS ARE BUFFER FOR COPYCYCLE.
004890: 24,3441           30032                           CA       CDUX
004891: 24,3442           54162                           TS       MPAC       +6                         #  IMUCDU ANGLES AT RR READ, FOR DOWNLINK.
004892:
004893: 24,3443           04616        R29RANGE           TC       BANKCALL
004894: 24,3444           53105                           CADR     RRRANGE                               #  INITIATE READING OF RR RANGE.
004895: 24,3445           04616                           TC       BANKCALL
004896: 24,3446           17714                           CADR     RADSTALL                              #  GO TO SLEEP UNTIL IT'S READY.
004897: 24,3447           13466                           TCF      R29RRR?                               #  BAD READ OR SCALE CHANGE ... WHICH?
004898:
004899: 24,3450           00004                           INHINT
004900: 24,3451           53334                           DXCH     DNRRANGE                              #  COPYCYCLE TO LAY OUT NEW R29 DOWNLINK.
004901: 24,3452           53757                           DXCH     RM
004902: 24,3453           52155                           DXCH     MPAC
004903: 24,3454           53755                           DXCH     MKTIME
004904: 24,3455           52157                           DXCH     MPAC       +2
004905: 24,3456           53753                           DXCH     TANGNB
004906: 24,3457           52161                           DXCH     MPAC       +4
004907: 24,3460           53460                           DXCH     AIG
004908: 24,3461           30162                           CA       MPAC       +6
004909: 24,3462           55461                           TS       AOG
004910: 24,3463           34753                           CA       ONE
004911: 24,3464           55462                           TS       TRKMKCNT                              #  SHOW THAT DOWNLINK DATA IS CONSISTENT.
004912: 24,3465           15155                           TCF      ENDOFJOB
004913:
004914: 24,3466           40101        R29RRR?            CS       FLAGWRD5
004915: 24,3467           74742                           MASK     BIT10
004916: 24,3470           10000                           CCS      A                                     #  WAS IT A SCALE CHANGE (REAL OR PHONY)?
004917: 24,3471           13475                           TCF      ENDRRD29                              #  NO, A BAD READ; REDESIGNATE.
004918: 24,3472           05516                           TC       DOWNFLAG
004919: 24,3473           00120                           ADRES    RNGSCFLG
004920: 24,3474           13443                           TCF      R29RANGE                              #  YES; CLEAR FLAG AND READ AGAIN.
004921:
004922: 24,3475           34755        ENDRRD29           CA       ZERO                                  #  TROUBLE MADE US COME HERE TO LEAVE THE
004923: 24,3476           55462                           TS       TRKMKCNT                              #  RR-READING MODE.  DISCREDIT DOWNTEL.
004924: 24,3477           05516                           TC       DOWNFLAG
004925: 24,3500           00063                           ADRES    READRFLG
004926: 24,3501           44736                           CS       BIT14
004927: 24,3502           00006                           EXTEND


004929: 24,3503           03012                           WAND     CHAN12                                #  REMOVE TRACK-ENABLE DISCRETE.
004930: 24,3504           15155                           TCF      ENDOFJOB
004931:


004933:                                                                                                  #  W-MATRIX MONITOR
004934:
004935: 31,2007                                           BANK     31
004936: 31,2000                                           SETLOC   VB67
004937: 31,2000                                           BANK
004938: 31,2007                                           COUNT*   $$/EXTVB
004939:
004940: 31,2007  E4,1600                                  EBANK=   WWPOS
004941:
004942: 31,2007           06037        V67CALL            TC       INTPRET
004943: 31,2010           77624                           CALL
004944: 31,2011           62120                                    V67WW
004945: 31,2012           77776                           EXIT
004946: 31,2013           00006                           EXTEND                                         #  SAVE THE PRESENT N99 VALUES FOR
004947: 31,2014           31601                           DCA      WWPOS                                 #  COMPARISON AFTER THE DISPLAY
004948: 31,2015           53607                           DXCH     WWBIAS     +2
004949: 31,2016           00006                           EXTEND
004950: 31,2017           31603                           DCA      WWVEL
004951: 31,2020           53611                           DXCH     WWBIAS     +4
004952: 31,2021           00006                           EXTEND
004953: 31,2022           31605                           DCA      WWBIAS
004954: 31,2023           53613                           DXCH     WWBIAS     +6
004955: 31,2024           32143        V06N99DS           CAF      V06N99
004956: 31,2025           04616                           TC       BANKCALL
004957: 31,2026           20334                           CADR     GOXDSPF
004958: 31,2027           15472                           TCF      ENDEXT
004959: 31,2030           12032                           TCF      V6N99PRO
004960: 31,2031           12024                           TCF      V06N99DS
004961: 31,2032           22007        V6N99PRO           ZL
004962: 31,2033           34756                           CA       FIVE
004963: 31,2034           54002        N99LOOP            TS       Q
004964: 31,2035           50002                           INDEX    Q
004965: 31,2036           41600                           CS       WWPOS
004966: 31,2037           50002                           INDEX    Q
004967: 31,2040           61606                           AD       WWPOS      +6
004968: 31,2041           26001                           ADS      L
004969: 31,2042           10002                           CCS      Q                                     #  THE SUM OF ALL DIFFERENCES MUST BE ZERO.
004970: 31,2043           12034                           TCF      N99LOOP
004971: 31,2044           22000                           LXCH     A
004972: 31,2045           00006                           EXTEND
004973: 31,2046           12051                           BZF      V06N9933
004974: 31,2047           05504                           TC       UPFLAG
004975: 31,2050           00160                           ADRES    V67FLAG
004976:
004977: 31,2051           06037        V06N9933           TC       INTPRET
004978: 31,2052           77414                           BON      EXIT
004979: 31,2053           03707                                    V67FLAG
004980: 31,2054           62056                                    +2
004981: 31,2055           15472                           TCF      ENDEXT
004982: 31,2056           77745                           DLOAD


004984: 31,2057           02201                                    WWPOS
004985: 31,2060           72412                           SL4      SL1
004986: 31,2061           14001                           STODL    0D
004987: 31,2062           02203                                    WWVEL
004988: 31,2063           14003                           STODL    2D
004989: 31,2064           02205                                    WWBIAS
004990: 31,2065           77661                           SL                                             #  SHIFT FROM NOUN SCALING (B-5) TO
004991: 31,2066           20213                                    10D                                   #  INTERNAL SCALING (B+5)
004992: 31,2067           00005                           STORE    4D
004993: 31,2070           72014                           BON      LXA,1
004994: 31,2071           04307                                    SURFFLAG
004995: 31,2072           62102                                    V67SURF
004996: 31,2073           00000                                    0D
004997: 31,2074           72130                           SXA,1    LXA,1
004998: 31,2075           02000                                    WRENDPOS
004999: 31,2076           00002                                    2D
005000: 31,2077           52130                           SXA,1    GOTO
005001: 31,2100           02001                                    WRENDVEL
005002: 31,2101           62110                                    V67CLRF
005003: 31,2102           66150        V67SURF            LXA,1    SXA,1
005004: 31,2103           00000                                    0D
005005: 31,2104           02006                                    WSURFPOS
005006: 31,2105           66150                           LXA,1    SXA,1
005007: 31,2106           00002                                    2D
005008: 31,2107           02007                                    WSURFVEL
005009: 31,2110           66150        V67CLRF            LXA,1    SXA,1
005010: 31,2111           00004                                    4D
005011: 31,2112           02003                                    WTRUN
005012: 31,2113           77730                           SXA,1
005013: 31,2114           02002                                    WSHAFT
005014: 31,2115           77414                           CLEAR    EXIT
005015: 31,2116           02676                                    RENDWFLG
005016: 31,2117           15472                           TCF      ENDEXT
005017: 31,2120           40020        V67WW              STQ      BOV
005018: 31,2121           00051                                    S2
005019: 31,2122           62123                                    +1
005020: 31,2123           45014                           CLEAR    CALL
005021: 31,2124           03667                                    V67FLAG
005022: 31,2125           27414                                    INTSTALL
005023: 31,2126           71331                           SSP      DLOAD
005024: 31,2127           00051                                    S1
005025: 31,2130           00006                           DEC      6          B-14
005026: 31,2131           06522                                    ZEROVECS
005027: 31,2132           02201                           STORE    WWPOS
005028: 31,2133           02203                           STORE    WWVEL
005029: 31,2134           02205                           STORE    WWBIAS
005030: 31,2135           77770                           AXT,1
005031: 31,2136           00066                           DEC      54         B-14
005032: 31,2137           47573        NXPOSVEL           VLOAD*   VSQ
005033: 31,2140           02467                                    W          +54D,1


005035: 31,2141           77650                           GOTO
005036: 31,2142           60002                                    ADDPOS
005037: 31,2143           01543        V06N99             VN       0699
005038:
005039: 30,2000                                           SETLOC   VB67A
005040: 30,2000                                           BANK
005041: 30,2002                                           COUNT*   $$/EXTVB
005042:
005043: 30,2002           77615        ADDPOS             DAD
005044: 30,2003           02201                                    WWPOS
005045: 30,2004           02201                           STORE    WWPOS
005046: 30,2005           47573                           VLOAD*   VSQ
005047: 30,2006           02555                                    W          +108D,1
005048: 30,2007           77615                           DAD
005049: 30,2010           02203                                    WWVEL
005050: 30,2011           02203                           STORE    WWVEL
005051: 30,2012           47573                           VLOAD*   VSQ
005052: 30,2013           02643                                    W          +162D,1
005053: 30,2014           77615                           DAD
005054: 30,2015           02205                                    WWBIAS
005055: 30,2016           02205                           STORE    WWBIAS
005056: 30,2017           75500                           TIX,1    SQRT
005057: 30,2020           62137                                    NXPOSVEL
005058: 30,2021           77661                           SR                                             #  SHIFT FROM INTERNAL SCALING (B+5) TO
005059: 30,2022           20613                                    10D                                   #  NOUN SCALING (B-5)
005060: 30,2023           16205                           STODL    WWBIAS
005061: 30,2024           02203                                    WWVEL
005062: 30,2025           77766                           SQRT
005063: 30,2026           16203                           STODL    WWVEL
005064: 30,2027           02201                                    WWPOS
005065: 30,2030           77766                           SQRT
005066: 30,2031           02201                           STORE    WWPOS
005067: 30,2032           52000                           BOV      GOTO
005068: 30,2033           60035                                    +2
005069: 30,2034           60042                                    V67XXX
005070: 30,2035           77745                           DLOAD
005071: 30,2036           06530                                    DPPOSMAX
005072: 30,2037           02201                           STORE    WWPOS
005073: 30,2040           02203                           STORE    WWVEL
005074: 30,2041           02205                           STORE    WWBIAS
005075: 30,2042           45345        V67XXX             DLOAD    DSU
005076: 30,2043           02201                                    WWPOS
005077: 30,2044           20060                                    FT99999
005078: 30,2045           71240                           BMN      DLOAD
005079: 30,2046           60051                                    +3
005080: 30,2047           20060                                    FT99999
005081: 30,2050           02201                           STORE    WWPOS
005082: 30,2051           66150                           LXA,1    SXA,1
005083: 30,2052           00051                                    S2
005084: 30,2053           00052                                    QPRET


005086: 30,2054           77776                           EXIT
005087: 30,2055           04635                           TC       POSTJUMP
005088: 30,2056           27425                           CADR     INTWAKE
005089:
005090: 30,2057           01670 17000  FT99999            2DEC     30479      B-19
005091:


005093: 25,3607                                           BANK     25
005094: 25,2000                                           SETLOC   RADARUPT
005095: 25,2000                                           BANK
005096: 25,3607                                           COUNT*   $$/RRUPT
005097:
005098: 25,3607  E7,1456                                  EBANK=   LOSCOUNT
005099:
005100: 25,3607           34753        R12LITES           CA       ONE
005101: 25,3610           71303                           MASK     IMODES33
005102: 25,3611           10000                           CCS      A
005103: 25,3612           14707                           TCF      ISWRETRN
005104:
005105: 25,3613           03630                           TC       HLIGHT
005106: 25,3614           03625                           TC       HLIGHT     -3
005107: 25,3615           14707                           TCF      ISWRETRN
005108:
005109: 25,3616           34753        RADLITES           CA       BIT1
005110: 25,3617           71303                           MASK     IMODES33
005111: 25,3620           10000                           CCS      A
005112: 25,3621           00002                           TC       Q
005113:
005114: 25,3622           44747                           CS       BIT5
005115: 25,3623           60061                           AD       ITEMP1
005116: 25,3624           10000                           CCS      A
005117: 25,3625           44753                           CS       ONE
005118: 25,3626           13664                           TCF      VLIGHT
005119:
005120: 25,3627           14570                           TCF      RRTRKF
005121:
005122: 25,3630           54065        HLIGHT             TS       ITEMP5                                #  ZERO ITEMP5 FOR H INDEX
005123:
005124: 25,3631           34747                           CA       HLITE
005125: 25,3632           54001                           TS       L
005126:
005127: 25,3633           30107                           CA       FLGWRD11
005128: 25,3634           74751                           MASK     SCABBIT
005129: 25,3635           10000                           CCS      A
005130: 25,3636           13656                           TCF      ONLITES
005131: 25,3637           34747                           CA       LRALTBIT
005132: 25,3640           70110        BOTHLITS           MASK     RADMODES
005133: 25,3641           10000                           CCS      A
005134: 25,3642           13656                           TCF      ONLITES
005135:
005136: 25,3643           30107                           CA       FLGWRD11
005137: 25,3644           50065                           INDEX    ITEMP5
005138: 25,3645           74753                           MASK     HFLSHBIT
005139: 25,3646           10000                           CCS      A
005140: 25,3647           14570                           TCF      RRTRKF


005142: 25,3650           00006        LITIT              EXTEND
005143: 25,3651           22066                           QXCH     ITEMP6
005144: 25,3652           04602                           TC       TRKFLON    +1
005145:
005146: 25,3653           00006                           EXTEND
005147: 25,3654           22066                           QXCH     ITEMP6
005148: 25,3655           14570                           TCF      RRTRKF
005149:
005150:
005151: 25,3656           50065        ONLITES            INDEX    ITEMP5
005152: 25,3657           44753                           CS       HFLSHBIT
005153: 25,3660           70107                           MASK     FLGWRD11
005154: 25,3661           54107                           TS       FLGWRD11
005155:
005156: 25,3662           30001                           CA       L
005157: 25,3663           13650                           TCF      LITIT
005158: 25,3664           54065        VLIGHT             TS       ITEMP5
005159: 25,3665           34751                           CA       VLITE
005160: 25,3666           54001                           TS       L
005161: 25,3667           34744                           CA       BIT8
005162: 25,3670           13640                           TCF      BOTHLITS
005163:
005164: 25,3671     4747               HLITE              EQUALS   BIT5
005165: 25,3671     4751               VLITE              EQUALS   BIT3
005166:

End of include-file P20-P25.agc.  Parent file is MAIN.agc


