
Source Code


000002:                                                                                                  ## Copyright:   Public domain.
000003:                                                                                                  ## Filename:    SERVICE_ROUTINES.agc
000004:                                                                                                  ## Purpose:     A section of Luminary revision 96.
000005:                                                                                                  ##              It is part of the reconstructed source code for the
000006:                                                                                                  ##              original release of the flight software for the Lunar
000007:                                                                                                  ##              Module's (LM) Apollo Guidance Computer (AGC) for Apollo 11.
000008:                                                                                                  ##              The code has been recreated from a previously reconstructed
000009:                                                                                                  ##              copy of Luminary 97 by undoing changes described in anomaly
000010:                                                                                                  ##              report LNY-59. The code has been adapted such that the
000011:                                                                                                  ##              resulting bugger words exactly match those specified for
000012:                                                                                                  ##              Luminary 96 in NASA drawing 2021152D, which gives relatively
000013:                                                                                                  ##              high confidence that the reconstruction is correct.
000014:                                                                                                  ## Reference:   pp. 1374-1380
000015:                                                                                                  ## Assembler:   yaYUL
000016:                                                                                                  ## Contact:     Ron Burkey <info@sandroid.org>.
000017:                                                                                                  ## Website:     www.ibiblio.org/apollo/index.html
000018:                                                                                                  ## Mod history: 2019-08-04 MAS  Created from Luminary 97.
000019:


000021: 10,3544                                           BANK     10
000022: 10,2000                                           SETLOC   DISPLAYS
000023: 10,2000                                           BANK
000024: 10,3544                                           COUNT*   $$/DSPLA
000025:
000026: 10,3544           00004        UPENT2             INHINT
000027: 10,3545           75660                           MASK     OCT77770
000028: 10,3546           54001                           TS       L
000029: 10,3547           40100                           CS       FLAGWRD4
000030: 10,3550           70001                           MASK     L
000031: 10,3551           26100                           ADS      FLAGWRD4
000032: 10,3552           00003        JOIN               RELINT
000033: 10,3553           16737                           TCF      Q+1
000034:
000035: 10,3554           00004        DOWNENT2           INHINT
000036: 10,3555           75660                           MASK     OCT77770
000037: 10,3556           40000                           COM
000038: 10,3557           70100                           MASK     FLAGWRD4
000039: 10,3560           54100                           TS       FLAGWRD4
000040: 10,3561           13552                           TCF      JOIN
000041:
000042: 10,3562     4757               OCT7               EQUALS   SEVEN
000043:


000045:                                                                                                  #  UPFLAG AND DOWNFLAG ARE ENTIRELY GENERAL FLAG SETTING AND CLEARING SUBROUTINES.  USING THEM, WHETHER OR
000046:                                                                                                  #  NOT IN INTERRUPT, ONE MAY SET OR CLEAR ANY SINGLE, NAMED BIT IN ANY ERASABLE REGISTER, SUBJECT OF COURSE TO
000047:                                                                                                  #  EBANK SETTING.  A "NAMED" BIT, AS THE WORD IS USED HERE, IS ANY BIT WITH A NAME FORMALLY ASSIGNED BY THE YUL
000048:                                                                                                  #  ASSEMBLER.
000049:
000050:                                                                                                  #  AT PRESENT THE ONLY NAMED BITS ARE THOSE IN THE FLAGWORDS.  ASSEMBLER CHANGES WILL MAKE IT POSSIBLE TO
000051:                                                                                                  #  NAME ANY BIT IN ERASABLE MEMORY.
000052:
000053:                                                                                                  #  CALLING SEQUENCES ARE AS FOLLOWS :-
000054:                                                                                                  #                TC      UPFLAG                  TC      DOWNFLAG
000055:                                                                                                  #                ADRES   NAME OF FLAG            ADRES   NAME OF FLAG
000056:
000057:                                                                                                  #  RETURN IS TO THE LOCATION FOLLOWING THE "ADRES" ABOUT .58 MS AFTER THE "TC".
000058:                                                                                                  #  UPON RETURN A CONTAINS THE CURRENT FLAGWRD SETTING.
000059:
000060:    5504                                           BLOCK    02
000061:    4000                                           SETLOC   FFTAG1
000062:    4000                                           BANK
000063:    5504                                           COUNT*   $$/FLAG
000064:
000065:    5504           30002        UPFLAG             CA       Q
000066:    5505           05522                           TC       DEBIT
000067:    5506           40000                           COM                                            #  +(15 - BIT)
000068:    5507           00006                           EXTEND
000069:    5510           04001                           ROR      LCHAN                                 #  SET BIT
000070:    5511           50061        COMFLAG            INDEX    ITEMP1
000071:    5512           54074                           TS       FLAGWRD0
000072:    5513           22063                           LXCH     ITEMP3
000073:    5514           00003                           RELINT
000074:    5515           00001                           TC       L
000075:
000076:    5516           30002        DOWNFLAG           CA       Q
000077:    5517           05522                           TC       DEBIT
000078:    5520           70001                           MASK     L                                     #  RESET BIT
000079:    5521           15511                           TCF      COMFLAG
000080:
000081:    5522           64753        DEBIT              AD       ONE                                   #  GET DE BITS
000082:    5523           00004                           INHINT
000083:    5524           54063                           TS       ITEMP3
000084:    5525           34762                           CA       LOW4                                  #  DEC15
000085:    5526           54061                           TS       ITEMP1
000086:    5527           50063                           INDEX    ITEMP3
000087:    5530           27777                           CA       0          -1                         #  ADRES
000088:    5531           54001                           TS       L
000089:    5532           34755                           CA       ZERO


000091:    5533           00006                           EXTEND
000092:    5534           10061                           DV       ITEMP1                                #  A = FLAGWRD, L = (15 - BIT)
000093:    5535           52062                           DXCH     ITEMP1
000094:    5536           50061                           INDEX    ITEMP1
000095:    5537           30074                           CA       FLAGWRD0
000096:    5540           54001                           TS       L                                     #  CURRENT STATE
000097:    5541           50062                           INDEX    ITEMP2
000098:    5542           44735                           CS       BIT15                                 #  -(15 - BIT)
000099:    5543           00002                           TC       Q
000100:


000102:                                                                                                  #  DELAYJOB - A GENERAL ROUTINE TO DELAY A JOB A SPECIFIC AMOUNT OF TIME BEFORE PICKING UP AGAIN.
000103:
000104:                                                                                                  #  ENTRANCE REQUIREMENTS ...
000105:                                                                                                  #                CAF     DT              DELAY JOB FOR DT CENTISECS
000106:                                                                                                  #                TC      BANKCALL
000107:                                                                                                  #                CADR    DELAYJOB
000108:
000109: 06,3764                                           BANK     06
000110: 00,2000                                           SETLOC   DLAYJOB
000111: 00,2000                                           BANK
000112:
000113:                                                                                                  #  THIS MUST REMAIN IN BANK 0 *****************************************
000114:
000115: 00,3735                                           COUNT*   $$/DELAY
000116: 00,3735           00004        DELAYJOB           INHINT
000117: 00,3736           54002                           TS       Q                                     #  STORE DELAY DT IN Q FOR DLY -1 IN
000118: 00,3737           34752                           CAF      DELAYNUM                              #  WAITLIST
000119: 00,3740           54070        DELLOOP            TS       RUPTREG1
000120: 00,3741           50000                           INDEX    A
000121: 00,3742           31326                           CA       DELAYLOC                              #  IS THIS DELAYLOC AVAILABLE
000122: 00,3743           00006                           EXTEND
000123: 00,3744           13752                           BZF      OK2DELAY                              #  YES
000124:
000125: 00,3745           10070                           CCS      RUPTREG1                              #  NO, TRY NEXT DELAYLOC
000126: 00,3746           13740                           TCF      DELLOOP
000127:
000128: 00,3747           52134                           DXCH     BUF2
000129: 00,3750           05716                           TC       BAILOUT1                              #  NO AVAILABLE LOCS.
000130: 00,3751           01104                           OCT      1104
000131:
000132: 00,3752           33772        OK2DELAY           CA       TCSLEEP                               #  SET WAITLIST IMMEDIATE RETURN
000133: 00,3753           54061                           TS       WAITEXIT
000134:
000135: 00,3754           30004                           CA       FBANK
000136: 00,3755           60070                           AD       RUPTREG1                              #  STORE BBANK FOR TASK CALL
000137: 00,3756           54001                           TS       L
000138:
000139: 00,3757           33773                           CAF      WAKECAD                               #  STORE CADR FOR TASK CALL
000140: 00,3760           15211                           TCF      DLY2       -1                         #  DLY IS IN WAITLIST ROUTINE
000141:
000142: 00,3761           04645        TCGETCAD           TC       MAKECADR                              #  GET CALLERS FCADR
000143:
000144: 00,3762           50070                           INDEX    RUPTREG1
000145: 00,3763           55326                           TS       DELAYLOC                              #  SAVE DELAY CADRS
000146:
000147: 00,3764           05133                           TC       JOBSLEEP
000148:
000149: 00,3765           34755        WAKER              CAF      ZERO
000150: 00,3766           50006                           INDEX    BBANK
000151: 00,3767           57326                           XCH      DELAYLOC                              #  MAKE DELAYLOC AVAILABLE


000153: 00,3770           05137                           TC       JOBWAKE
000154:
000155: 00,3771           05261                           TC       TASKOVER
000156:
000157: 00,3772           03757        TCSLEEP            GENADR   TCGETCAD   -2
000158: 00,3773           03765        WAKECAD            GENADR   WAKER
000159:


000161:                                                                                                  #  GENTRAN, A BLOCK TRANSFER ROUTINE.
000162:                                                                                                  #  WRITTEN BY D. EYLES
000163:                                                                                                  #  MOD 1 BY KERNAN                               UTILITYM REV 17 11/18/67
000164:                                                                                                  #  MOD 2 BY SCHULENBERG (REMOVE RELINT) SKIPPER REV 4 2/28/68
000165:
000166:                                                                                                  #  THIS ROUTINE IS USEFULL FOR TRANSFERING N CONSECUTIVE ERASABLE OR FIXED QUANTITIES TO SOME OTHER N
000167:                                                                                                  #  CONSECUTIVE ERASABLE LOCATIONS.  IF BOTH BLOCKS OF DATA ARE IN SWITCHABLE EBANKS, THEY MUST BE IN THE SAME ONE.
000168:
000169:                                                                                                  #  GENTRAN IS CALLABLE IN A JOB AS WELL AS A RUPT.  THE CALLING SEQUENCE IS:
000170:                                                                                                  #        I       CA      N-1             # OF QUANTITIES MINUS ONE.
000171:                                                                                                  #        I +1    TC      GENTRAN         IN FIXED-FIXED.
000172:                                                                                                  #        I +2    ADRES   L               STARTING ADRES OF DATA TO BE MOVED.
000173:                                                                                                  #        I +3    ADRES   M               STARTING ADRES OF DUPLICATION BLOCK.
000174:                                                                                                  #        I +4                            RETURNS HERE.
000175:
000176:                                                                                                  #  GENTRAN TAKES 25 MCT'S (300 MICROSECONDS) PER ITEM + 5 MCT'S (60 MICS) FOR ENTERING AND EXITING.
000177:                                                                                                  #  A, L AND ITEMP1 ARE NOT PRESERVED.
000178:
000179:    5544                                           BLOCK    02
000180:    4000                                           SETLOC   FFTAG4
000181:    4000                                           BANK
000182:
000183:    5544     0061                                  EBANK=   ITEMP1
000184:
000185:    5544                                           COUNT*   $$/TRAN
000186:
000187:    5544           00004        GENTRAN            INHINT
000188:    5545           54061                           TS       ITEMP1                                #  SAVE N-1.
000189:    5546           50002                           INDEX    Q                                     #  C(Q) = ADRES L.
000190:    5547           60000                           AD       0                                     #  ADRES (L + N - 1).
000191:    5550           50000                           INDEX    A
000192:    5551           30000                           CA       0                                     #  C(ABOVE).
000193:    5552           54001                           TS       L                                     #  SAVE DATA.
000194:    5553           30061                           CA       ITEMP1
000195:    5554           50002                           INDEX    Q
000196:    5555           60001                           AD       1                                     #  ADRES (M + N - 1).
000197:    5556           50000                           INDEX    A
000198:    5557           22000                           LXCH     0                                     #  STUFF IT.
000199:    5560           10061                           CCS      ITEMP1                                #  LOOP UNTIL N-1 = 0.
000200:    5561           15545                           TCF      GENTRAN    +1
000201:    5562           16741                           TCF      Q+2                                   #  RETURN TO CALLER.
000202:


000204:                                                                                                  #  B5OFF         ZERO BIT 5 OF EXTVBACT, WHICH IS SET BY TESTXACT.
000205:                                                                                                  #  MAY BE USED AS NEEDED BY ANY EXTENDED VERB WHICH HAS DONE TESTXACT
000206:
000207:    5563                                           COUNT*   $$/EXTVB
000208:
000209:    5563           44747        B5OFF              CS       BIT5
000210:    5564           71044                           MASK     EXTVBACT
000211:    5565           55044                           TS       EXTVBACT
000212:    5566           05155                           TC       ENDOFJOB
000213:
000214:
000215:

End of include-file SERVICE_ROUTINES.agc.  Parent file is MAIN.agc


