
Source Code


000002:                                                                                                  ## Copyright:   Public domain.
000003:                                                                                                  ## Filename:    SINGLE_PRECISION_SUBROUTINES.agc
000004:                                                                                                  ## Purpose:     A section of Luminary revision 96.
000005:                                                                                                  ##              It is part of the reconstructed source code for the
000006:                                                                                                  ##              original release of the flight software for the Lunar
000007:                                                                                                  ##              Module's (LM) Apollo Guidance Computer (AGC) for Apollo 11.
000008:                                                                                                  ##              The code has been recreated from a previously reconstructed
000009:                                                                                                  ##              copy of Luminary 97 by undoing changes described in anomaly
000010:                                                                                                  ##              report LNY-59. The code has been adapted such that the
000011:                                                                                                  ##              resulting bugger words exactly match those specified for
000012:                                                                                                  ##              Luminary 96 in NASA drawing 2021152D, which gives relatively
000013:                                                                                                  ##              high confidence that the reconstruction is correct.
000014:                                                                                                  ## Reference:   p.  1102
000015:                                                                                                  ## Assembler:   yaYUL
000016:                                                                                                  ## Contact:     Ron Burkey <info@sandroid.org>.
000017:                                                                                                  ## Website:     www.ibiblio.org/apollo/index.html
000018:                                                                                                  ## Mod history: 2019-08-04 MAS  Created from Luminary 97.
000019:


000021:    5032                                           BLOCK    02
000022:
000023:                                                                                                  #  SINGLE PRECISION SINE AND COSINE
000024:
000025:    5032                                           COUNT*   $$/INTER
000026:    5032           64736        SPCOS              AD       HALF                                  #  ARGUMENTS SCALED AT PI
000027:    5033           55076        SPSIN              TS       TEMK
000028:    5034           15036                           TCF      SPT
000029:    5035           41076                           CS       TEMK
000030:    5036           60000        SPT                DOUBLE
000031:    5037           55076                           TS       TEMK
000032:    5040           15051                           TCF      POLLEY
000033:    5041           57076                           XCH      TEMK
000034:    5042           51076                           INDEX    TEMK
000035:    5043           64734                           AD       LIMITS
000036:    5044           40000                           COM
000037:    5045           61076                           AD       TEMK
000038:    5046           55076                           TS       TEMK
000039:    5047           15051                           TCF      POLLEY
000040:    5050           15067                           TCF      ARG90
000041:    5051           00006        POLLEY             EXTEND
000042:    5052           71076                           MP       TEMK
000043:    5053           55077                           TS       SQ
000044:    5054           00006                           EXTEND
000045:    5055           75005                           MP       C5/2
000046:    5056           67737                           AD       C3/2
000047:    5057           00006                           EXTEND
000048:    5060           71077                           MP       SQ
000049:    5061           67717                           AD       C1/2
000050:    5062           00006                           EXTEND
000051:    5063           71076                           MP       TEMK
000052:    5064           20001                           DDOUBL
000053:    5065           55076                           TS       TEMK
000054:    5066           00002                           TC       Q
000055:    5067           50000        ARG90              INDEX    A
000056:    5070           44734                           CS       LIMITS
000057:    5071           00002                           TC       Q                                     #  RESULT SCALED AT 1
000058:
000059:

End of include-file SINGLE_PRECISION_SUBROUTINES.agc.  Parent file is MAIN.agc


