
Source Code


000002:                                                                                                  ## Copyright:   Public domain.
000003:                                                                                                  ## Filename:    T6-RUPT_PROGRAMS.agc
000004:                                                                                                  ## Purpose:     A section of Luminary revision 96.
000005:                                                                                                  ##              It is part of the reconstructed source code for the
000006:                                                                                                  ##              original release of the flight software for the Lunar
000007:                                                                                                  ##              Module's (LM) Apollo Guidance Computer (AGC) for Apollo 11.
000008:                                                                                                  ##              The code has been recreated from a previously reconstructed
000009:                                                                                                  ##              copy of Luminary 97 by undoing changes described in anomaly
000010:                                                                                                  ##              report LNY-59. The code has been adapted such that the
000011:                                                                                                  ##              resulting bugger words exactly match those specified for
000012:                                                                                                  ##              Luminary 96 in NASA drawing 2021152D, which gives relatively
000013:                                                                                                  ##              high confidence that the reconstruction is correct.
000014:                                                                                                  ## Reference:   pp. 1403-1405
000015:                                                                                                  ## Assembler:   yaYUL
000016:                                                                                                  ## Contact:     Ron Burkey <info@sandroid.org>.
000017:                                                                                                  ## Website:     www.ibiblio.org/apollo/index.html
000018:                                                                                                  ## Mod history: 2019-08-04 MAS  Created from Luminary 97.
000019:


000021:                                                                                                  #  PROGRAM NAMES:        (1) T6JOBCHK    MOD. NO. 5      OCTOBER 2, 1967
000022:                                                                                                  #                        (2) DOT6RUPT
000023:                                                                                                  #  MODIFICATION BY:      LOWELL G HULL (A.C.ELECTRONICS)
000024:
000025:                                                                                                  #  THESE PROGRAMS ENABLE THE LM DAP TO CONTROL THE THRUST TIMES OF THE REACTION CONTROL SYSTEM JETS BY USING TIME6.
000026:                                                                                                  #  SINCE THE LM DAP MAINTAINS EXCLUSIVE CONTROL OVER TIME6 AND ITS INTERRUPTS, THE FOLLOWING CONVENTIONS HAVE BEEN
000027:                                                                                                  #  ESTABLISHED AND MUST NOT BE TAMPERED WITH:
000028:                                                                                                  #        1.      NO NUMBER IS EVER PLACED INTO TIME6 EXCEPT BY LM DAP.
000029:                                                                                                  #        2.      NO PROGRAM OTHER THAN LM DAP ENABLES THE TIME6 COUNTER.
000030:                                                                                                  #        3.      TO USE TIME6, THE FOLLOWING SEQUENCE IS ALWAYS EMPLOYED:
000031:                                                                                                  #                A.      A POSITIVE (NON-ZERO) NUMBER IS STORED IN TIME6.
000032:                                                                                                  #                B.      THE TIME6 CLOCK IS ENABLED.
000033:                                                                                                  #                C.      TIME6 IS INTERROGATED AND IS:
000034:                                                                                                  #                        I.      NEVER FOUND NEGATIVE (NON-ZERO) OR +0.
000035:                                                                                                  #                        II.     SOMETIMES FOUND POSITIVE (BETWEEN 1 AND 240D) INDICATING THAT IT IS ACTIVE.
000036:                                                                                                  #                        III.    SOMETIMES FOUND POSMAX INDICATING THAT IT IS INACTIVE AND NOT ENABLED.
000037:                                                                                                  #                        IV.     SOMETIMES FOUND NEGATIVE ZERO INDICATING THAT:
000038:                                                                                                  #                                A.      A T6RUPT IS ABOUT TO OCCUR AT THE NEXT DINC, OR
000039:                                                                                                  #                                B.      A T6RUPT IS WAITING IN THE PRIORITY CHAIN, OR
000040:                                                                                                  #                                C.      A T6RUPT IS IN PROCESS NOW.
000041:                                                                                                  #        4)      ALL PROGRAMS WHICH OPERATE IN EITHER INTERRUPT MODE OR WITH INTERRUPT INHIBITED MUST CALL T6JOBCHK
000042:                                                                                                  #                EVERY 5 MILLISECONDS TO PROCESS A POSSIBLE WAITING T6RUPT BEFORE IT CAN BE HONORED BY THE HARDWARE.
000043:                                                                                                  #       (5.      PROGRAM JTLST, IN Q,R-AXES, HANDLES THE INPUT LIST.)
000044:
000045:                                                                                                  #  T6JOBCHK CALLING SEQUENCE:
000046:                                                                                                  #                L       TC      T6JOBCHK
000047:                                                                                                  #                L+1     (RETURN)
000048:
000049:                                                                                                  #  DOT6RUPT CALLING SEQUENCE:
000050:                                                                                                  #                        DXCH    ARUPT           T6RUPT LEAD IN AT LOCATION 4004.
000051:                                                                                                  #                        EXTEND
000052:                                                                                                  #                        DCA     T6ADR
000053:                                                                                                  #                        DTCB
000054:
000055:                                                                                                  #  SUBROUTINES CALLED:   DOT6RUPT CALLS T6JOBCHK.
000056:
000057:                                                                                                  #  NORMAL EXIT MODES:    T6JOBCHK RETURNS TO L +1.
000058:                                                                                                  #                        DOT6RUPT TRANSFERS CONTROL TO RESUME.
000059:
000060:                                                                                                  #  ALARM/ABORT MODES:    NONE.
000061:
000062:                                                                                                  #  INPUT:        TIME6           NXT6ADR         OUTPUT:         TIME6           NXT6ADR         CHANNEL 5
000063:                                                                                                  #                T6NEXT          T6NEXT +1                       T6NEXT          T6NEXT +1       CHANNEL 6
000064:                                                                                                  #                T6FURTHA        T6FURTHA +1                     T6FURTHA        T6FURTHA +1     BIT15/CH13
000065:
000066:                                                                                                  #  DEBRIS:       T6JOBCHK CLOBBERS A.  DOT6RUPT CLOBBERS NOTHING.
000067:
000068:    5753                                           BLOCK    02


000070: 17,2027                                           BANK     17
000071: 17,2000                                           SETLOC   DAPS2
000072: 17,2000                                           BANK
000073: 17,2027  E6,1466                                  EBANK=   T6NEXT
000074: 17,2027                                           COUNT*   $$/DAPT6
000075:
000076: 17,2027           10031        T6JOBCHK           CCS      TIME6                                 #  CHECK TIME6 FOR WAITING T6RUPT:
000077: 17,2030           00002                           TC       Q                                     #  NONE: CLOCK COUTING DOWN.
000078: 17,2031           05705                           TC       CCSHOLE
000079: 17,2032           02032                           TC       T6JOBCHK   +3
000080:
000081:                                                                                                  #  CONTROL PASSES TO T6JOB ONLY WHEN C(TIME6) = -0 (I.E. WHEN A T6RUPT MUST BE PROCESSED).
000082:
000083: 17,2033           34733        T6JOB              CAF      POSMAX                                #  DISABLE CLOCK: NEEDED SINCE RUPT OCCURS
000084: 17,2034           00006                           EXTEND                                         #  1 DINC AFTER T6 = 77777. FOR 625 MUSECS
000085: 17,2035           03013                           WAND     CHAN13                                #  MUST NOT HAVE T6 = +0 WITH ENABLE SET
000086:
000087: 17,2036           34733                           CA       POSMAX
000088: 17,2037           22007                           ZL
000089: 17,2040           53471                           DXCH     T6FURTHA
000090: 17,2041           53467                           DXCH     T6NEXT
000091: 17,2042           23465                           LXCH     NXT6ADR
000092: 17,2043           54031                           TS       TIME6
000093:
000094: 17,2044           67725                           AD       PRIO37
000095: 17,2045           54000                           TS       A
000096: 17,2046           12052                           TCF      ENABLET6
000097: 17,2047           34733                           CA       POSMAX
000098: 17,2050           54031                           TS       TIME6
000099: 17,2051           12063                           TCF      GOCH56
000100: 17,2052           34735        ENABLET6           CA       BIT15
000101: 17,2053           00006                           EXTEND
000102: 17,2054           05013                           WOR      CHAN13
000103: 17,2055           31466                           CA       T6NEXT
000104: 17,2056           67725                           AD       PRIO37
000105: 17,2057           54000                           TS       A
000106: 17,2060           12063                           TCF      GOCH56
000107: 17,2061           34733                           CA       POSMAX
000108: 17,2062           55466                           TS       T6NEXT
000109: 17,2063           50001        GOCH56             INDEX    L
000110: 17,2064           15753                           TCF      WRITEP     -1
000111:
000112:    5753                                           BLOCK    02
000113:    4000                                           SETLOC   FFTAG9
000114:    4000                                           BANK
000115:    5753  E6,1635                                  EBANK=   CDUXD
000116:    5753                                           COUNT*   $$/DAPT6
000117:
000118:    5753           31472                           CA       NEXTP
000119:    5754           00006        WRITEP             EXTEND
000120:    5755           01006                           WRITE    CHAN6


000122:    5756           00002                           TC       Q
000123:
000124:    5757           31473                           CA       NEXTU
000125:    5760           54001        WRITEU             TS       L
000126:    5761           45774                           CS       00314OCT
000127:    5762           00006                           EXTEND
000128:    5763           02005                           RAND     CHAN5
000129:    5764           60001                           AD       L
000130:    5765           00006                           EXTEND
000131:    5766           01005                           WRITE    CHAN5
000132:    5767           00002                           TC       Q
000133:
000134:    5770           31474                           CA       NEXTV
000135:    5771           54001        WRITEV             TS       L
000136:    5772           35774                           CA       00314OCT
000137:    5773           15762                           TCF      -9D
000138:    5774           00314        00314OCT           OCT      00314
000139:
000140: 17,2065                                           BANK     17
000141: 17,2000                                           SETLOC   DAPS2
000142: 17,2000                                           BANK
000143:
000144: 17,2065  E6,1466                                  EBANK=   T6NEXT
000145: 17,2065                                           COUNT*   $$/DAPT6
000146:
000147: 17,2065           22016        DOT6RUPT           LXCH     BANKRUPT                              #  (INTERRUPT LEAD INS CONTINUED)
000148: 17,2066           00006                           EXTEND
000149: 17,2067           22012                           QXCH     QRUPT
000150:
000151: 17,2070           02027                           TC       T6JOBCHK                              #  CALL T6JOBCHK.
000152:
000153: 17,2071           15270                           TCF      RESUME                                #  END TIME6 INTERRUPT PROCESSOR.
000154:

End of include-file T6-RUPT_PROGRAMS.agc.  Parent file is MAIN.agc


