
Source Code


000002:                                                                                                  ## Copyright:   Public domain.
000003:                                                                                                  ## Filename:    TIME_OF_FREE_FALL.agc
000004:                                                                                                  ## Purpose:     A section of Luminary revision 96.
000005:                                                                                                  ##              It is part of the reconstructed source code for the
000006:                                                                                                  ##              original release of the flight software for the Lunar
000007:                                                                                                  ##              Module's (LM) Apollo Guidance Computer (AGC) for Apollo 11.
000008:                                                                                                  ##              The code has been recreated from a previously reconstructed
000009:                                                                                                  ##              copy of Luminary 97 by undoing changes described in anomaly
000010:                                                                                                  ##              report LNY-59. The code has been adapted such that the
000011:                                                                                                  ##              resulting bugger words exactly match those specified for
000012:                                                                                                  ##              Luminary 96 in NASA drawing 2021152D, which gives relatively
000013:                                                                                                  ##              high confidence that the reconstruction is correct.
000014:                                                                                                  ## Reference:   pp. 1268-1283
000015:                                                                                                  ## Assembler:   yaYUL
000016:                                                                                                  ## Contact:     Ron Burkey <info@sandroid.org>.
000017:                                                                                                  ## Website:     www.ibiblio.org/apollo/index.html
000018:                                                                                                  ## Mod history: 2019-08-04 MAS  Created from Luminary 97.
000019:


000021:                                                                                                  #  THE TFF SUBROUTINES MAY BE USED IN EITHER EARTH OR MOON CENTERED COORDINATES.  THE TFF ROUTINES NEVER
000022:                                                                                                  #  KNOW WHICH ORIGIN APPLIES.  IT IS THE USER WHO KNOWS, AND WHO SUPPLIES RONE, VONE AND 1/SQRT(MU) AT THE
000023:                                                                                                  #  APPROPRIATE SCALE LEVEL FOR THE PROPER PRIMARY BODY.
000024:
000025:                                                                                                  #        EARTH ORIGIN    POSITION        -29     METERS
000026:                                                                                                  #                        VELOCITY        -7      METERS/CENTISECOND
000027:                                                                                                  #                        1/SQRT(MU)      +17     SQRT(CS SQ/METERS CUBED)
000028:
000029:                                                                                                  #        MOON ORIGIN     POSITION        -27     METERS
000030:                                                                                                  #                        VELOCITY        -5      METERS/CENTISECONDS
000031:                                                                                                  #                        1/SQRT(MU)      +14     SQRT(CS SQ/METERS CUBED)
000032:
000033:                                                                                                  #  ALL DATA PROVIDED TO AND RECEIVED FROM ANY TFF SUBROUTINE WILL BE AT ONE OF THE LEVELS ABOVE.  IN ALL CASES,
000034:                                                                                                  #  THE FREE FALL TIME IS RETURNED IN CENTISECONDS AT (-28).  PROGRAM TFF/CONIC WILL GENERATE VONE/RTMU AND
000035:                                                                                                  #  LEAVE IT IN VONE' AT (+10) IF EARTH ORIGIN AND (+9) IF MOON ORIGIN.
000036:
000037:                                                                                                  #  THE USER MUST STORE THE STATE VECTOR IN RONE, VONE  AND MU IN THE FORM 1/SQRT(MU) IN TFF/RTMU
000038:                                                                                                  #  AT THE PROPER SCALE BEFORE CALLING TFF/CONIC.  SINCE RONE, VONE ARE IN THE EXTENDED VERB STORAGE AREA,
000039:                                                                                                  #  THE USER MUST ALSO LOCK OUT THE EXTENDED VERBS, AND RELEASE THEM WHEN FINISHED.
000040:
000041:                                                                                                  #  PROGRAMS CALC/TFF AND CALC/TPER ASSUME THAT THE TERMINAL RADIUS IS LESS THAN THE PRESENT
000042:                                                                                                  #  RADIUS.  THIS RESTRICTION CAN BE REMOVED BY A 15 W CODING CHANGE, BUT AT PRESENT IT IS NOT DEEMED NECESSARY.
000043:
000044:                                                                                                  #  THE FOLLOWING ERASABLE QUANTITIES ARE USED BY THE TFF ROUTINES, AND ARE LOCATED IN THE PUSH LIST.
000045:
000046:                                                                                                  #                                        BELOW   E:  IS USED FOR EARTH ORIGIN SCALE
000047:                                                                                                  #                                                M:  IS USED FOR MOON  ORIGIN SCALE
000048:
000049:                                                                                                  # TFFSW          =       119D    BIT1    0 = CALCTFF             1 = CALCTPER
000050: 10,2213                        TFFDELQ            =        10D                                   #        Q2-Q1                   E: (-16)  M: (-15)
000051: 10,2213                        RMAG1              =        12D                                   #        ABVAL(RN)  M            E: (-29)  M: (-27)
000052:                                                                                                  # RPER           =       14D             PERIGEE RADIUS  M       E: (-29)  M: (-27)
000053: 10,2213                        TFFQ1              =        14D                                   #        R.V / SQRT(MUE)         E: (-16)  M: (-15)
000054:                                                                                                  # SDELF/2                                SIN(THETA) /2
000055: 10,2213                        CDELF/2            =        14D                                   #        COS(THETA) /2
000056:                                                                                                  # RAPO           =       16D             APOGEE RADIUS  M        E: (-29)  M: (-27)
000057: 10,2213                        NRTERM             =        16D                                   #        TERMINAL RADIUS  M      E: (-29+NR)
000058:                                                                                                  #                                          M: (-27+NR)
000059: 10,2213                        RTERM              =        18D                                   #        TERMINAL RADIUS  M      E: (-29)  M: (-27)
000060: 10,2213                        TFFVSQ             =        20D                                   #        -(V SQUARED/MU)  1/M    E: (20)   M: (18)
000061: 10,2213                        TFF1/ALF           =        22D                                   #        SEMI MAJ AXIS  M        E: (-22-2 NA)
000062:                                                                                                  #                                          M: (-20-2 NA)
000063: 10,2213                        TFFRTALF           =        24D                                   #        SQRT(ALFA)              E:(10+NA) M: (9+NA)
000064: 10,2213                        TFFALFA            =        26D                                   #        ALFA  1/M               E:(26-NR) M: (24-NR)
000065: 10,2213                        TFFNP              =        28D                                   #        SEMI LATUS RECTUM  M    E: (-38+2 NR)
000066:                                                                                                  #                                          M: (-36+2 NR)
000067: 10,2213                        TFF/RTMU           =        30D                                   #        1/SQRT(MU)              E: (17)   M: (14)
000068: 10,2213                        NRMAG              =        32D                                   #        PRESENT RADIUS  M       E: (-29+NR)
000069:                                                                                                  #                                          M: (-27+NR)
000070: 10,2213                        TFFX               =        34D
000071: 10,2213                        TFFTEM             =        36D                                   #        TEMPORARY


000073:                                                                                                  #                REGISTERS S1, S2 ARE UNTOUCHED BY ANY TFF SUBROUTINE
000074:                                                                                                  #                INDEX REGISTERS X1, X2 ARE USED BY ALL TFF SUBROUTINES.  THEY ARE ESTAB-
000075:                                                                                                  #                LISHED IN TFF/CONIC AND MUST BE PRESERVED BETWEEN CALLS TO SUBSEQUENT
000076:                                                                                                  #                SUBROUTINES.
000077:                                                                                                  #                -NR                             C(X1) = NORM COUNT OF RMAG
000078:                                                                                                  #                -NA                             C(X2) = NORM COUNT OF SQRT(ABS(ALFA))
000079:


000081:                                                                                                  #  SUBROUTINE NAME:  TFFCONIC                                            DATE:  01.29.67
000082:                                                                                                  #  MOD NO:  0                                                            LOG SECTION:  TIME OF FREE FALL
000083:                                                                                                  #  MOD BY:  RR BAIRNSFATHER
000084:                                                                                                  #  MOD NO:  1    MOD BY:  RR BAIRNSFATHER        DATE: 11 APR 67
000085:                                                                                                  #  MOD NO:  2    MOD BY:  RR BAIRNSFATHER        DATE: 21 NOV 67         ADD MOON MU.
000086:                                                                                                  #  MOD NO:  3    MOD BY:  RR BAIRNSFATHER        DATE: 21 MAR 68         ACCEPT DIFFERENT EARTH/MOON SCALES
000087:
000088:                                                                                                  #  FUNCTIONAL DESCRIPTION:  THIS SUBROUTINE IS CALLED TO COMPUTE THOSE CONIC PARAMETERS REQUIRED BY THE TFF
000089:                                                                                                  #        SUBROUTINES AND TO ESTABLISH THEM IN THE PUSH LIST AREA.  THE PARAMETERS ARE LISTED UNDER OUTPUT.
000090:                                                                                                  #        THE EQUATIONS ARE
000091:                                                                                                  #                -   -  -
000092:                                                                                                  #                H = RN*VN                       ANGULAR MOMENTUM
000093:                                                                                                  #                      - -
000094:                                                                                                  #                LCP = H.H / MU                  SEMI LATUS RECTUM
000095:                                                                                                  #                              -  -
000096:                                                                                                  #                ALFA = 2/RN - VN.VN / MU        RECIPROCAL SEMI MAJ AXIS, SIGNED
000097:
000098:                                                                                                  #        AND ALFA IS POS FOR ELLIPTIC ORBITS
000099:                                                                                                  #                      0 FOR PARABOLIC ORBITS
000100:                                                                                                  #                    NEG FOR HYPERBOLIC ORBITS.
000101:                                                                                                  #        SUBROUTINE ALSO COMPUTES AND SAVES RMAG.
000102:
000103:                                                                                                  #  CALLING SEQUENCE:
000104:                                                                                                  #        TFFCONIC EXPECTS CALLER TO ENTER WITH CORRECT GRAVITATIONAL CONSTANT IN MPAC, IN THE FORM
000105:                                                                                                  #        1/SQRT(MU).  PROGRAM WILL SAVE IN TFF/RTMU.  THE SCALE IS DETERMINED BY WHETHER EARTH OR MOON
000106:                                                                                                  #        ORIGIN IS USED.  THE CALLER MUST LOCK OUT THE EXTENDED VERBS BEFORE PROVIDING STATE VECTOR IN RONE,
000107:                                                                                                  #        VONE AT PROPER SCALE.  THE EXTENDED VERBS MUST BE RESTORED WHEN THE CALLER IS FINISHED USING THE
000108:                                                                                                  #        TFF ROUTINES.
000109:
000110:                                                                                                  #        ENTRY POINT TFFCONMU EXPECTS THAT TFF/RTMU IS ALREADY LOADED.
000111:
000112:                                                                                                  #        TO SPECIFY MU:  DLOAD   CALL                            IF MU ALREADY STORED:   CALL
000113:                                                                                                  #                                YOURMU  1/RTMU E:(17) M:(14)                                    TFFCONMU
000114:                                                                                                  #                                TFFCONIC
000115:                                                                                                  #        PUSHLOC = PDL+0, ARBITRARY IF LEQ 18D
000116:
000117:                                                                                                  #  SUBROUTINES CALLED:  NONE
000118:
000119:                                                                                                  #  NORMAL EXIT MODES:  RVQ
000120:
000121:                                                                                                  #  ALARMS:  NONE
000122:
000123:                                                                                                  #  OUTPUT:       THE FOLLOWING ARE STORED IN THE PUSH LIST AREA.
000124:                                                                                                  #                RMAG1           E:(-29) M:(-27) M  RN, PRESENT RADIUS LENGTH.
000125:                                                                                                  #                NRMAG           E:(-29+NR)      M  RMAG, NORMALIZED
000126:                                                                                                  #                                M:(-27+NR)
000127:                                                                                                  #                X1                              -NR, NORM COUNT
000128:                                                                                                  #                TFFNP           E:(-38+2NR)     M  LCP, SEMI LATUS RECTUM, WEIGHTED BY NR.      FOR VGAMCALC
000129:                                                                                                  #                                M:(-36+2NR)
000130:                                                                                                  #                TFF/RTMU        E:(17) M:(14)   1/SQRT(MU)
000131:                                                                                                  #                TFFVSQ          E:(20) M:(18)   1/M  -(V SQ/MU):  PRESENT VELOCITY,NORMLIZED.   FOR VGAMCALC
000132:                                                                                                  #                TFFALFA         E:(26-NR)       1/M  ALFA, WEIGHTED BY NR
000133:                                                                                                  #                                M:(24-NR)
000134:                                                                                                  #                TFFRTALF        E:(10+NA)       SQRT(ALFA), NORMALIZED
000135:                                                                                                  #                                M:(9+NA)


000137:                                                                                                  #                X2                              -NA, NORMCOUNT
000138:                                                                                                  #                TFF1/ALF        E:(-22-2NA)     SIGNED SEMI MAJ AXIS, WEIGHTED BY NA
000139:                                                                                                  #                                M:(-20-2NA)
000140:                                                                                                  #                PUSHLOC AT PDL+0
000141:
000142:                                                                                                  #        THE FOLLOWING IS STORED IN GENERAL ERASABLE
000143:                                                                                                  #                VONE'           E:(10) M:(9)    V/RT(MU), NORMALIZED VELOCITY
000144:
000145:                                                                                                  #  ERASABLE INITIALIZATION REQUIRED:
000146:                                                                                                  #                RONE            E:(-29) M:(-27) M  STATE VECTOR         LEFT BY CALLER
000147:                                                                                                  #                VONE            E:(-7) M:(-5)   M/CS  STATE VECTOR      LEFT BY CALLER
000148:                                                                                                  #                TFF/RTMU        E:(17) M:(14)   1/RT(CS SQ/M CUBE)      IF ENTER VIA TFFCONMU.
000149:
000150:                                                                                                  #  DEBRIS:       QPRET,          PDL+0 ... PDL+3
000151:
000152: 33,3757                                           BANK     33
000153: 27,2000                                           SETLOC   TOF-FF
000154: 27,2000                                           BANK
000155:
000156: 27,3360                                           COUNT*   $$/TFF
000157:
000158: 27,3360           00037        TFFCONIC           STORE    TFF/RTMU                              #  1/SQRT(MU)    E:(17) M:(14)
000159:
000160: 27,3361           53575        TFFCONMU           VLOAD    UNIT                                  #  COME HERE WITH TFFRTMU LOADED.
000161: 27,3362           02207                                    RONE                                  #  SAVED RN.  M  E:(-29) M:(-27)
000162: 27,3363           77725                           PDDL                                           #  UR/2 TO PDL+0, +5
000163: 27,3364           00045                                    36D                                   #  MAGNITUDE
000164: 27,3365           00015                           STORE    RMAG1                                 #  M  E:(-29) M:(-27)
000165:
000166: 27,3366           77701                           NORM
000167: 27,3367           00047                                    X1                                    #  -NR
000168: 27,3370           24041                           STOVL    NRMAG                                 #  RMAG  M  E:(-29+NR) M:(-27+NR)
000169: 27,3371           02215                                    VONE                                  #  SAVED VN.  M/CS  E:(-7) M:(-5)
000170: 27,3372           77761                           VXSC
000171: 27,3373           00037                                    TFF/RTMU                              #  E:(17) M:(14)
000172: 27,3374           02170                           STORE    VONE'                                 #  VN/SQRT(MU)  E:(10) M:(9)
000173:
000174: 27,3375           47361                           VXSC     VXV
000175: 27,3376           00041                                    NRMAG                                 #  E:(-29+NR) M:(-27+NR)
000176:                                                                                                  #  UR/2 FROM PDL
000177: 27,3377           47572                           VSL1     VSQ                                   #  BEFORE:  E:(-19+NR) M:(-18+NR)
000178: 27,3400           14035                           STODL    TFFNP                                 #  LC P  M  E:(-38+2NR) M:(-36+2NR)
000179:                                                                                                  #  SAVE ALSO FOR VGAMCALC
000180: 27,3401           06512                                    TFF1/4
000181: 27,3402           63271                           DDV      PDVL                                  #  (2/RMAG)  1/M  E:(26-NR) M:(24-NR)
000182: 27,3403           00041                                    NRMAG                                 #  RMAG  M  E:(-29+NR) M:(-27+NR)
000183: 27,3404           02170                                    VONE'                                 #  SAVED VN.  E:(10) M:(9)
000184: 27,3405           57436                           VSQ      DCOMP                                 #  KEEP MPAC+2 HONEST FOR SQRT.
000185: 27,3406           00025                           STORE    TFFVSQ                                #  -(V SQ/MU)  E:(20) M:(18)
000186:                                                                                                  #  SAVE FOR VGAMCALC
000187: 27,3407           43257                           SR*      DAD


000189: 27,3410           20573                                    0          -6,1                       #  GET -VSQ/MU  E:(26-NR) M:(24-NR)
000190: 27,3411           77626                           STADR
000191:                                                                                                  #  2/RMAG  FROM PDL+2
000192: 27,3412           77744                           STORE    TFFALFA                               #  ALFA  1/M  E:(26-NR) M:(24-NR)
000193: 27,3413           41457                           SL*      PUSH                                  #  TEMP SAVE ALFA  E:(20) M:(18)
000194: 27,3414           20173                                    0          -6,1
000195: 27,3415           75446                           ABS      SQRT                                  #  E:(10) M:(9)
000196: 27,3416           77701                           NORM
000197: 27,3417           00050                                    X2                                    #  X2 = -NA
000198: 27,3420           00031                           STORE    TFFRTALF                              #  SQRT( ABS(ALFA) )  E:(10+NA) M:(9+NA)
000199: 27,3421           75316                           DSQ      SIGN                                  #  NOT SO ACCURATE, BUT OK
000200:                                                                                                  #  ALFA FROM PDL+2  E:(20) M:(18)
000201: 27,3422           55254                           BZE      BDDV                                  #  SET 1/ALFA =0, TO SHOW SMALL ALFA
000202: 27,3423           57425                                    +2
000203: 27,3424           06512                                    TFF1/4
000204: 27,3425           00027                 +2        STORE    TFF1/ALF                              #  1/ALFA  E:(-22-2NA) M:(-20-2NA)
000205: 27,3426           77616        DUMPCNIC           RVQ
000206:
000207:                                                                                                  #                                                              39 W


000209:                                                                                                  #  SUBROUTINE NAME:  TFFRP/RA                                            DATE: 01.17.67
000210:                                                                                                  #  MOD NO:  0                                                            LOG SECTION:  TIME OF FREE FALL
000211:                                                                                                  #  MOD BY:  RR BAIRNSFATHER
000212:                                                                                                  #  MOD NO:  1    MOD BY:  RR BAIRNSFATHER        DATE: 11 APR 67
000213:                                                                                                  #  MOD NO:  2    MOD BY:  RR BAIRNSFATHER        DATE: 21 MAR 68         ACCEPT DIFFERENT EARTH/MOON SCALES
000214:                                                                                                  #                                                                        ALSO IMPROVE ACCURACY OF RAPO.
000215:
000216:                                                                                                  #  FUNCTIONAL DESCRIPTION:  USED BY CALCTPER AND TFF DISPLAYS TO CALCULATE PERIGEE RADIUS AND ALSO
000217:                                                                                                  #        APOGEE RADIUS FOR A GENERAL CONIC.
000218:                                                                                                  #        PROGRAM GIVES PERIGEE RADIUS AS         APOGEE RADIUS IS GIVEN BY
000219:                                                                                                  #                RP = P/(1+E)                            RA = (1+E) / ALFA
000220:                                                                                                  #        WHERE    2
000221:                                                                                                  #                E  = 1 - P ALFA
000222:                                                                                                  #        IF RA IS NEGATIVE OR SHOWS DIVIDE OVERFLOW, THEN RA = POSMAX BECAUSE
000223:                                                                                                  #                1. APOGEE RADIUS IS NOT MEANINGFUL FOR HYPERBOLA
000224:                                                                                                  #                2. APOGEE RADIUS IS NOT DEFINED FOR PARABOLA
000225:                                                                                                  #                3. APOGEE RADIUS EXCEEDS THE SCALING FOR ELLIPSE.
000226:
000227:                                                                                                  #        THIS SUBROUTINE REQUIRES THE SIGNED RECIPROCAL SEMI MAJ AXIS, ALFA, AND SEMI LATUS RECTUM AS DATA.
000228:
000229:                                                                                                  #  CALLING SEQUENCE:     CALL
000230:                                                                                                  #                                TFFRP/RA
000231:                                                                                                  #        PUSHLOC = PDL+0, ARBITRARY IF LEQ 10D
000232:                                                                                                  #        C(MPAC) UNSPECIFIED
000233:
000234:                                                                                                  #  SUBROUTINES CALLED:   NONE
000235:
000236:                                                                                                  #  NORMAL EXIT MODE:     RVQ
000237:                                                                                                  #        IF ELLIPSE, WITHIN NORMAL SCALING, RAPO IS CORRECT.
000238:                                                                                                  #        OTHERWISE, RAPO = POSMAX.
000239:
000240:                                                                                                  #  ALARMS:       NONE
000241:
000242:                                                                                                  #  OUTPUT:       STORED IN PUSH LIST AREA.  SCALE OF OUTPUT AGREES WITH DATA SUPPLIED TO TFF/CONIC.
000243:                                                                                                  #        RPER    E:(-29) M:(-27)         M       PERIGEE RADIUS          DESTROYED BY CALCTFF/CALCTPER, TFFTRIG.
000244:                                                                                                  #        RAPO    E:(-29) M:(-27)         M       APOGEE RADIUS           WILL BE DESTROYED BY CALCTFF/CALCTPER
000245:                                                                                                  #        PUSHLOC AT PDL+0
000246:
000247:                                                                                                  #  ERASABLE INITIALIZATION REQUIRED:
000248:                                                                                                  #        TFFALFA E:(26-NR)               M       1/SEMI MAJ AXIS         LEFT BY TFFCONIC
000249:                                                                                                  #                M:(24-NR)
000250:                                                                                                  #        TFFNP   E:(-38+2NR)             M       LC P, SEMI LATUS RECTUM LEFT BY TFFCONIC
000251:                                                                                                  #                M:(-36+2NR)
000252:                                                                                                  #        X1                              -NR, NORM COUNT OF RMAG         LEFT BY TFFCONIC
000253:                                                                                                  #        X2                              -NA, NORM COUNT OF ALFA         LEFT BY TFFCONIC
000254:
000255:                                                                                                  #  DEBRIS:       QPRET, PDL+0 ... PDL+1
000256:


000258: 27,3427                        RAPO               =        16D                                   #  APOGEE RADIUS  M  E:(-29) M:(-27)
000259: 27,3427                        RPER               =        14D                                   #  PERIGEE RADIUS  M  E:(-29) M:(-27)
000260:
000261: 27,3427           41345        TFFRP/RA           DLOAD    DMP
000262: 27,3430           00033                                    TFFALFA                               #  ALFA  1/M  E:(26-NR) M:(24-NR)
000263: 27,3431           00035                                    TFFNP                                 #  LC P  M E:(-38+2NR) M:(-36+2NR)
000264: 27,3432           57457                           SR*      DCOMP                                 #  ALFA P (-12+NR)
000265: 27,3433           20571                                    0          -8D,1                      #  ALFA P (-4)
000266: 27,3434           51415                           DAD      ABS                                   #  (DCOMP GIVES VALID TP RESULT FOR SQRT)
000267:                                                                                                  #  (ABS PROTECTS SQRT IF E IS VERY NEAR 0)
000268: 27,3435           17765                                    DP2(-4)
000269: 27,3436           43366                           SQRT     DAD                                   #  E SQ = (1- P ALFA) (-4)
000270: 27,3437           06512                                    TFF1/4
000271: 27,3440           55206                           PUSH     BDDV                                  #  (1+E)  (-2)  TO PDL+0
000272: 27,3441           00035                                    TFFNP                                 #  LCP  M  E:(-38+2NR) M:(-36+2NR)
000273: 27,3442           53657                           SR*      SR*                                   #  (DOES SR THEN SL TO AVOID OVFL)
000274: 27,3443           20601                                    0,1                                   #  X1=-NR
000275: 27,3444           20572                                    0          -7,1                       #  (EFFECTIVE SL)
000276: 27,3445           14017                           STODL    RPER                                  #  PERIGEE RADIUS  M  E:(-29) M:(-27)
000277:                                                                                                  #  (1+E)  (-2)  FROM PDL+0
000278: 27,3446           41005                           DMP      BOVB
000279: 27,3447           00027                                    TFF1/ALF                              #  E:(-22-2NA) M:(-20-2NA)
000280: 27,3450           57753                                    TCDANZIG                              #  CLEAR OVFIND, IF ON.
000281: 27,3451           53654                           BZE      SL*
000282: 27,3452           57461                                    MAXRA                                 #  SET POSMAX, IF ALFA=0
000283: 27,3453           57603                                    0          -5,2                       #  -5+NA
000284: 27,3454           40057                           SL*      BOV
000285: 27,3455           57576                                    0,2
000286: 27,3456           57461                                    MAXRA                                 #  SET POSMAX IF OVFL.
000287: 27,3457           77644                           BPL                                            #  CONTINUE WITH VALID RAPO.
000288: 27,3460           57463                                    +3
000289: 27,3461           77745        MAXRA              DLOAD                                          #  RAPO CALC IS NOT VALID.  SET RAPO =
000290: 27,3462           17771                                    NEARONE                               #  POSMAX AS A TAG.
000291: 27,3463           00021                 +3        STORE    RAPO                                  #  APOGEE RADIUS  M  E:(-29) M:(-27)
000292: 27,3464           77616        DUMPRPRA           RVQ
000293:
000294:                                                                                                  #                                                                30 W


000296:                                                                                                  #  SUBROUTINE NAME:  CALCTPER / CALCTFF                                  DATE:  01.29.67
000297:                                                                                                  #  MOD NO:  0                                                            LOG SECTION:  TIME OF FREE FALL
000298:                                                                                                  #  MOD BY:  RR BAIRNSFATHER
000299:                                                                                                  #  MOD NO:  1    MOD BY:  RR BAIRNSFATHER        DATE: 21 MAR 67
000300:                                                                                                  #  MOD NO:  2    MOD BY:  RR BAIRNSFATHER        DATE: 14 APR 67
000301:                                                                                                  #  MOD NO:  3    MOD BY:  RR BAIRNSFATHER        DATE: 8 JUL 67          NEAR EARTH MUE AND NEG TFF (GONEPAST)
000302:                                                                                                  #  MOD NO:  4    MOD BY:  RR BAIRNSFATHER        DATE: 21 NOV 67         ADD VARIABLE MU.
000303:                                                                                                  #  MOD NO:  5    MOD BY:  RR BAIRNSFATHER        DATE: 21 MAR 68         ACCEPT DIFFERENT EARTH/MOON SCALES
000304:
000305:                                                                                                  #  FUNCTIONAL DESCRIPTION:  PROGRAM CALCULATES THE FREE-FALL TIME OF FLIGHT FROM PRESENT POSITION RN AND
000306:                                                                                                  #        VELOCITY VN TO A RADIUS LENGTH SPECIFIED BY RTERM, SUPPLIED BY THE USER.  THE POSITION VECTOR
000307:                                                                                                  #        RN MAY BE ON EITHER SIDE OF THE CONIC, BUT RTERM IS CONSIDERED ON THE INBOUND SIDE.
000308:                                                                                                  #        THE EQUATIONS ARE
000309:
000310:                                                                                                  #                Q2 = -SQRT(RTERM (2-RTERM ALFA) - LCP)  (INBOUND SIDE)) LEQ +- LCE/SQRT(ALFA)
000311:                                                                                                  #                     -  -
000312:                                                                                                  #                Q1 = RN.VN / SQRT(MU)                                   LEQ +- LCE/SQRT(ALFA)
000313:
000314:                                                                                                  #                Z = NUM / DEN                                           LEQ +- 1/SQRT(ALFA)
000315:
000316:                                                                                                  #        WHERE, IF INBOUND
000317:                                                                                                  #                NUM = RTERM -RN                                         LEQ +- 2 LCE/ALFA
000318:                                                                                                  #                DEN = Q2+Q1                                             LEQ +- 2 LCE/SQRT(ALFA)
000319:
000320:                                                                                                  #        AND, IF OUTBOUND
000321:                                                                                                  #                NUM = Q2-Q1                                             LEQ +- 2 LCE/SQRT(ALFA)
000322:                                                                                                  #                DEN = 2 - ALFA (RTERM + RN).                            LEQ +- 2 LCE
000323:
000324:                                                                                                  #        IF      ALFA ZZ < 1.0           (FOR ALL CONICS EXCEPT ELLIPSES HAVING ABS(DEL ECC ANOM) G 90 DEG)
000325:                                                                                                  #        THEN    X = ALFA Z Z
000326:                                                                                                  #        AND     TFF = (RTERM +RN -2 ZZ T(X) ) Z/SQRT(MU)
000327:                                                                                                  #                EXCEPT  IF ALFA PNZ, AND IF TFF NEG,
000328:                                                                                                  #                THEN    TFF = 2 PI /(ALFA SQRT(ALFA)) + TFF
000329:                                                                                                  #        OR      IF ALFA ZZ GEQ 1.0      (FOR ELLIPSES HAVING ABS(DEL ECC ANOM) GEQ 90 DEG)
000330:                                                                                                  #        THEN    X = 1/ALFA Z Z
000331:                                                                                                  #        AND     TFF = (PI/SQRT(ALFA) -Q2 +Q1 +2(X T(X) -1) /ALFA Z) /ALFA SQRT(MU)
000332:                                                                                                  #        WHERE   T(X) IS A POLYNOMIAL APPROXIMATION TO THE SERIES
000333:                                                                                                  #                             2      3             2
000334:                                                                                                  #                1/3 - X/5 + X /7 - X /9 ...     (X  < 1.0)
000335:
000336:                                                                                                  #  CALLING SEQUENCE:     TIME TO RTERM                   TIME TO PERIGEE
000337:                                                                                                  #                        CALL                            CALL
000338:                                                                                                  #                                CALCTFF                         CALCTPER
000339:                                                                                                  #                        C(MPAC) = TERMNL RAD M          C(MPAC) = PERIGEE RAD M
000340:                                                                                                  #        FOR EITHER, E:(-29) M:(-27)
000341:                                                                                                  #        FOR EITHER, PUSHLOC = PDL+0, ARBITRARY IF LEQ 8D.


000343:
000344:                                                                                                  #  SUBROUTINES CALLED:   T(X), VIA RTB
000345:
000346:                                                                                                  #  NORMAL EXIT MODE:     RVQ
000347:                                                                                                  #        HOWEVER, PROGRAM EXITS WITH ONE OF THE FOLLOWING VALUES FOR TFF (-28) CS IN MPAC.  USER MUST STORE.
000348:                                                                                                  #                A. TFF = FLIGHT TIME.  NORMAL CASE FOR POSITIVE FLIGHT TIME LESS THAN ONE ORBITAL PERIOD.
000349:                                                                                                  #                B. (THIS OPTION IS NO LONGER USED.)
000350:                                                                                                  #                C. TFF = POSMAX.  THIS INDICATES THAT THE CONIC FROM THE PRESENT POSITION WILL NOT RETURN TO
000351:                                                                                                  #                   THE SPECIFIED ALTITUDE.  ALSO INDICATES OUTBOUND PARABOLA OR HYPERBOLA.
000352:
000353:                                                                                                  #  OUTPUT:       C(MPAC)         (-28) CS        TIME OF FLIGHT, OR TIME TO PERIGEE
000354:                                                                                                  #                TFFX            (0)             X,                                      LEFT FOR ENTRY DISPLAY TFF ROUTINES
000355:                                                                                                  #                NRTERM          E:(-29+NR) M    RTERM, WEIGHTED BY NR                   LEFT FOR ENTRY DISPLAY TFF ROUTINES
000356:                                                                                                  #                                M:(-27+NR)
000357:                                                                                                  #                TFFTEM          E:(-59+2NR)     LCP Z Z SGN(SDELF)                      LEFT FOR ENTRY DISPLAY TFF ROUTINES
000358:                                                                                                  #                                M:(-55+2NR)     LCP /ALFA SGN(SDELF)                    LEFT FOR ENTRY DISPLAY TFF ROUTINES
000359:                                                                                                  #                NOTE:   TFFTEM = PDL 36D AND WILL BE DESTROYED BY .:UNIT:.
000360:                                                                                                  #                RMAG1           E:(-29) M:(-27) PDL 12 NOT TOUCHED.
000361:                                                                                                  #                TFFQ1           E:(-16) M:(-15) PDL 14D
000362:                                                                                                  #                TFFDELQ         E:(-16) M:(-15) PDL 10D
000363:                                                                                                  #                PUSHLOC AT PDL+0
000364:
000365:                                                                                                  #  ERASABLE INITIALIZATION REQUIRED:
000366:                                                                                                  #                RONE            E:(-29) M:(-27) M  STATE VECTOR                         LEFT BY USER
000367:                                                                                                  #                VONE'           E:(+10) M:(+9)  VN/SQRT(MU)                             LEFT BY TFF/CONIC
000368:                                                                                                  #                RMAG1           E:(-29) M:(-27) PRESENT RADIUS, M                       LEFT BY TFFCONIC
000369:                                                                                                  #                C(MPAC)         E:(-29) M:(-27) RTERM, TERMINAL RADIUS LENGTH, M        LEFT BY USER
000370:
000371:                                                                                                  #                THE FOLLOWING ARE STORED IN THE PUSH LIST AREA.
000372:                                                                                                  #                TFF/RTMU        E:(17) M:(14)   1/SQRT(MU)                              LEFT BY TFFCONIC.
000373:                                                                                                  #                NRMAG           E:(-29+NR)      M  RMAG, NORMALIZED                     LEFT BY TFFCONIC
000374:                                                                                                  #                                M:(-27+NR)
000375:                                                                                                  #                X1                              -NR, NORM COUNT                         LEFT BY TFFCONIC
000376:                                                                                                  #                TFFNP           E:(-38+2NR)     M  LCP, SEMI LATUS RECTUM, WEIGHT NR    LEFT BY TFFCONIC
000377:                                                                                                  #                                M:(-36+2NR)
000378:                                                                                                  #                TFFALFA         E:(26-NR)       1/M  ALFA, WEIGHT NR                    LEFT BY TFFCONIC
000379:                                                                                                  #                                M:(24-NR)
000380:                                                                                                  #                TFFRTALF        E:(10+NA)       SQRT(ALFA), NORMALIZED                  LEFT BY TFFCONIC
000381:                                                                                                  #                                M:(9+NA)
000382:                                                                                                  #                X2                              -NA, NORMCOUNT                          LEFT BY TFFCONIC
000383:                                                                                                  #                TFF1/ALF        E:(-22-2NA)     SIGNED SEMIMAJ AXIS, WEIGHTED BY NA     LEFT BY TFFCONIC
000384:                                                                                                  #                                M:(-20-2NA)
000385:
000386:                                                                                                  #  DEBRIS:       QPRET, PDL+0 ... PDL+3
000387:                                                                                                  #                RTERM           E:(-29) M:(-27) RTERM, TERMINAL RADIUS LENGTH
000388:                                                                                                  #                RAPO            E:(-29) M:(-27) PDL 16D (=NRTERM)
000389:                                                                                                  #                RPER            E:(-29) M:(-27) PDL 14D (=TFFQ1)
000390:


000392: 27,3465           77614        CALCTPER           SETGO                                          #  ENTER WITH RPER IN MPAC
000393: 27,3466           03436                                    TFFSW
000394: 27,3467           57472                                    +3
000395: 27,3470           77614        CALCTFF            CLEAR                                          #  ENTER WITH RTERM IN MPAC
000396: 27,3471           03676                                    TFFSW
000397: 27,3472           00023                 +3        STORE    RTERM                                 #  E:(-29) M:(-27)
000398: 27,3473           77657                           SL*
000399: 27,3474           20201                                    0,1                                   #  X1=-NR
000400: 27,3475           00021                           STORE    NRTERM                                #  RTERM  E:(-29+NR) M:(-27+NR)
000401: 27,3476           44205                           DMP      BDSU
000402: 27,3477           00033                                    TFFALFA                               #  ALFA  E:(26-NR) M:(24-NR)
000403: 27,3500           06512                                    TFF1/4
000404: 27,3501           41206                           PUSH     DMP                                   #  (2-ALFA RTERM)  (-3)  TO PDL+0
000405: 27,3502           00021                                    NRTERM                                #  E:(-29+NR) M:(-27+NR)
000406: 27,3503           53725                           PDDL     SR*                                   #  RTERM(2-ALFA RTERM) TO PDL+2
000407:                                                                                                  #  E:(-32+NR) M:(-30+NR)
000408: 27,3504           00035                                    TFFNP                                 #  LC P  E:(-38+2NR) M:(-36+2NR)
000409: 27,3505           20573                                    0          -6,1                       #  X1 = -NR
000410: 27,3506           43276                           DCOMP    DAD                                   #  DUE TO SHIFTS, KEEP PRECISION FOR SQRT
000411:                                                                                                  #  RTERM(2-ALFA RTERM) FROM PDL +2
000412:                                                                                                  #  E:(-32+NR) M:(-30+NR)
000413: 27,3507           77657                           SR*                                            #  LEAVE  E:(-32) M:(-30)
000414: 27,3510           20601                                    0,1                                   #  X1 = -NR
000415: 27,3511           71214                           BOFF     DLOAD                                 #  CHECK TFF /TPER SWITCH
000416: 27,3512           03756                                    TFFSW
000417: 27,3513           57515                                    +2                                    #  IF TFF, CONTINUE
000418: 27,3514           06522                                    TFFZEROS                              #  IF TPER, SET Q2 = 0
000419: 27,3515           75440                 +2        BMN      SQRT                                  #  E:(-16) M:(-15)
000420:
000421: 27,3516           57650                                    MAXTFF1                               #  NO FREE FALL CONIC TO RTERM FROM HERE
000422:                                                                                                  #  RESET PDL, SET TFF=POSMAX, AND EXIT.
000423:
000424: 27,3517           41076                           DCOMP    BOVB                                  #  RT IS ON INBOUND SIDE.  ASSURE OVFIND=0
000425: 27,3520           57753                                    TCDANZIG                              #  ANY PORT IN A STORM.
000426: 27,3521           24045                           STOVL    TFFTEM                                #  Q2  E:(-16) M:(-15)
000427: 27,3522           02170                                    VONE'                                 #  VN/SQRT(MU)  E:(10) M:(9)
000428: 27,3523           52441                           DOT      SL3
000429: 27,3524           02207                                    RONE                                  #  SAVED RN.  E:(-29) M:(-27)
000430: 27,3525           00017                           STORE    TFFQ1                                 #  Q1, SAVE FOR GONEPAST TEST.
000431:                                                                                                  #  E:(-16) M:(-15)
000432: 27,3526           44240                           BMN      BDSU
000433: 27,3527           57550                                    INBOUND                               #  USE ALTERNATE Z
000434: 27,3530           00045                                    TFFTEM                                #  Q2  E:(-16) M:(-15)
000435:
000436:                                                                                                  #  OUTBOUND Z CALC CONTINUES HERE
000437:
000438: 27,3531           14043                           STODL    TFFX                                  #  NUM=Q2-Q1  E:(-16) M:(-15)
000439: 27,3532           00033                                    TFFALFA                               #  ALFA  E:(26-NR) M:(24-NR)
000440: 27,3533           44205                           DMP      BDSU


000442: 27,3534           00041                                    NRMAG                                 #  RMAG  E:(-29+NR) M:(-27+NR)
000443:                                                                                                  #  (2-RTERM ALFA)  (-3) FROM PDL+0
000444: 27,3535           51406        SAVEDEN            PUSH     ABS                                   #  DEN TO PDL+0  E:(-3) OR (-16)
000445:                                                                                                  #                M:(-3) OR (-15)
000446: 27,3536           40015                           DAD      BOV                                   #  INDETERMINANCY TEST
000447: 27,3537           17757                                    LIM(-22)                              #  =1.0-B(-22)
000448: 27,3540           57561                                    TFFXTEST                              #  GO IF DEN >/= B(-22)
000449: 27,3541           65345                           DLOAD    PDDL                                  #  SET DEN=0 OTHERWISE
000450: 27,3542           06522                                    TFFZEROS
000451:                                                                                                  #  XCH ZERO WITH PDL+0
000452: 27,3543           57545                           DLOAD    DCOMP
000453: 27,3544           00033                                    TFFALFA                               #  ALFA  E:(26-NR) M:(24-NR)
000454: 27,3545           71240                           BMN      DLOAD                                 #  FOR TPER:  Z INDET AT DELE/2=0 AND 90.
000455: 27,3546           57655                                    TFFEL1                                #  ASSUME 90, AND LEAVE 0 IN PDL: 1/Z=D/N
000456:
000457:                                                                                                  #  Z INDET. AT PERIGEE FOR PARAB OR HYPERB.
000458: 27,3547           77616        DUMPTFF1           RVQ                                            #  RETURN TFF =0
000459:
000460:                                                                                                  #  INBOUND Z CALC CONTINUES HERE
000461:
000462: 27,3550           77745        INBOUND            DLOAD                                          #  RESET PDL+0
000463: 27,3551           45345                           DLOAD    DSU                                   #  ALTERNATE Z CALC
000464: 27,3552           00023                                    RTERM                                 #  E:(-29) M:(-27)
000465: 27,3553           00015                                    RMAG1                                 #  E:(-29) M:(-27)
000466: 27,3554           14043                           STODL    TFFX                                  #  NUM=RTERM-RN  E:(-29) M:(-27)
000467: 27,3555           00045                                    TFFTEM                                #  Q2  E:(-16) M:(-15)
000468: 27,3556           52015                           DAD      GOTO
000469: 27,3557           00017                                    TFFQ1                                 #  Q1  E:(-16) M:(-15)
000470: 27,3560           57535                                    SAVEDEN                               #  DEN = Q2+Q1  E:(-16) M:(-15)
000471:
000472: 27,3561           65215        TFFXTEST           DAD      PDDL                                  #  (ABS(DEN) TO PDL+2))  E:(-3) OR (-16)
000473:                                                                                                  #                        M:(-3) OR (-15)
000474: 27,3562           17761                                    DP(-22)                               #  RESTORE ABS(DEN) TO MPAC
000475: 27,3563           00043                                    TFFX                                  #  NUM  E:(-16) OR (-29)  M:(-15) OR (-27)
000476: 27,3564           53605                           DMP      SR*
000477: 27,3565           00031                                    TFFRTALF                              #  SQRT(ALFA)  E:(10+NA) M:(9+NA)
000478: 27,3566           57201                                    0          -3,2                       #  X2=-NA
000479: 27,3567           77671                           DDV                                            #  C(MPAC) =NUM SQRT(ALFA)       E:(-3) OR (-16)
000480:                                                                                                  #                                M:(-3) OR (-15)
000481:                                                                                                  #  ABS(DEN) FROM PDL+2   E:(-3) OR (-16)
000482:                                                                                                  #                        M:(-3) OR (-15)
000483: 27,3570           40145                           DLOAD    BOV                                   #  (THE DLOAD IS SHARED WITH TFFELL)
000484: 27,3571           00043                                    TFFX                                  #  NUM  E:(-16) OR (-29)  M:(-15) OR (-27)
000485: 27,3572           57653                                    TFFELL                                #  USE EQN FOR DELE GEQ 90, LEQ -90
000486:
000487:                                                                                                  #  OTHERWISE, CONTINUE FOR GENERAL CONIC FOR TFF EQN
000488:
000489: 27,3573           45471                           DDV      STADR
000490:                                                                                                  #  DEN FROM PDL+0        E:(-3) OR (-16)
000491:                                                                                                  #                        M:(-3) OR (-15)
000492: 27,3574           77732                           STORE    TFFTEM                                #  Z SAVE FOR SIGN OF SDELF.


000494:                                                                                                  #  E:(-13) M:(-12)
000495: 27,3575           63406                           PUSH     DSQ                                   #  Z TO PDL+0
000496: 27,3576           41206                           PUSH     DMP                                   #  Z SQ TO PDL+2  E:(-26) M:(-24)
000497: 27,3577           00035                                    TFFNP                                 #  LC P  E:(-38+2NR) M:(-36+2NR)
000498: 27,3600           75261                           SL       SIGN
000499: 27,3601           20206                                    5
000500: 27,3602           00045                                    TFFTEM                                #  AFFIX SIGN FOR SDELF (ENTRY DISPLAY)
000501: 27,3603           14045                           STODL    TFFTEM                                #  P ZSQ  E:(-59+2NR) M:(-55+2NR)
000502:                                                                                                  #  (ARG IS USED IN TFF/TRIG)
000503:                                                                                                  #  ZSQ FROM PDL+2  E:(-26) M:(-24)
000504: 27,3604           41206                           PUSH     DMP                                   #  RESTORE PUSH LOC
000505: 27,3605           00033                                    TFFALFA                               #  ALFA  E:(26-NR) M:(24-NR)
000506: 27,3606           77657                           SL*
000507: 27,3607           20201                                    0,1                                   #  X1=-NR
000508: 27,3610           00043                           STORE    TFFX                                  #  X
000509: 27,3611           41234                           RTB      DMP
000510: 27,3612           57735                                    T(X)                                  #  POLY
000511:                                                                                                  #  ZSQ FROM PDL+2  E:(-26) M:(-24)
000512: 27,3613           44302                           SR2      BDSU                                  #  2 ZSQ T(X)  E:(-29) M:(-27)
000513: 27,3614           00023                                    RTERM                                 #  RTERM  E:(-29) M:(-27)
000514: 27,3615           41215                           DAD      DMP
000515: 27,3616           00015                                    RMAG1                                 #  E:(-29) M:(-27)
000516:                                                                                                  #  Z FROM PDL+0  E:(-13) M:(-12)
000517: 27,3617           51042                           SR3      BPL                                   #  TFF SQRT(MU)  E:(-45) M:(-42)
000518: 27,3620           57641                                    ENDTFF                                #  (NO PUSH UP)
000519: 27,3621           75206                           PUSH     SIGN                                  #  TFF SQRT(MU) TO PDL+0
000520: 27,3622           00017                                    TFFQ1                                 #  Q1 FOR GONEPAST TEST
000521: 27,3623           71244                           BPL      DLOAD                                 #  GONE PAST ?
000522: 27,3624           57645                                    NEGTFF                                #  YES. TFF < 0.
000523: 27,3625           00027                                    TFF1/ALF                              #  1/ALFA  E:(-22-2NA) M:(-20-2NA)
000524: 27,3626           51076                           DCOMP    BPL                                   #  ALFA > 0 ?
000525: 27,3627           57645                                    NEGTFF                                #  NO. TFF IS NEGATIVE.
000526:
000527:                                                                                                  #  CORRECT FOR ORBITAL PERIOD.
000528:
000529: 27,3630           77676                           DCOMP                                          #  YES.  CORRECT FOR ORB PERIOD.
000530: 27,3631           56205                           DMP      DDV
000531: 27,3632           17755                                    PI/16                                 #  2 PI (-5)
000532: 27,3633           00031                                    TFFRTALF                              #  SQRT(ALFA)  E:(10+NA) M:(9+NA)
000533: 27,3634           53657                           SL*      SL*
000534: 27,3635           57602                                    0          -4,2                       #  X2=-NA
000535: 27,3636           57602                                    0          -4,2
000536: 27,3637           43257                           SL*      DAD
000537: 27,3640           57576                                    0,2
000538:                                                                                                  #  TFF SQRT(MU) FROM PDL+0       E:(-45) M:(-42)
000539: 27,3641           40005        ENDTFF             DMP      BOV                                   #  TFF SQRT(MU) IN MPAC          E:(-45) M:(-42)
000540: 27,3642           00037                                    TFF/RTMU                              #  E:(17) M:(14)
000541: 27,3643           57651                                    MAXTFF                                #  SET POSMAX IF OVFL.
000542:
000543: 27,3644           77616        DUMPTFF2           RVQ                                            #  RETURN TFF (-28) CS IN MPAC.
000544:


000546: 27,3645           77745        NEGTFF             DLOAD
000547:                                                                                                  #  TFF SQRT(MU) FROM PDL+0, NEGATIVE.
000548: 27,3646           77650                           GOTO
000549: 27,3647           57641                                    ENDTFF
000550:
000551: 27,3650           77745        MAXTFF1            DLOAD                                          #  RESET PDL
000552: 27,3651           43545        MAXTFF             DLOAD    RVQ
000553: 27,3652           17771                                    NEARONE
000554:
000555:                                                                                                  #  TIME OF FLIGHT ELLIPSE WHEN DEL (ECCENTRIC ANOM) GEQ 90 AND LEQ -90.
000556:
000557:                                                                                                  #  NUM FROM TFFX.        E:(-16) OR (-29)
000558:                                                                                                  #                        M:(-15) OR (-27)
000559: 27,3653           77712        TFFELL             SL2                                            #  NUM  E:(-14) OR (-27)  M:(-13) OR (-25)
000560: 27,3654           41465                           BDDV     PUSH                                  #  TEMP SAVE D/N IN PDL+0
000561:                                                                                                  #  DEN FROM PDL+0  E:(-3)/( 16) M:(-3)/(-15)
000562:                                                                                                  #  N/D TO PDL+0  E:(11) M:(10)
000563: 27,3655           45345        TFFEL1             DLOAD    DSU                                   #  (ENTER WITH D/N=0 IN PDL+0)
000564: 27,3656           00045                                    TFFTEM                                #  Q2  E:(-16) M:(-15)
000565: 27,3657           00017                                    TFFQ1                                 #  Q1  E:(-16) M:(-15)
000566: 27,3660           14013                           STODL    TFFDELQ                               #  Q2-Q1  E:(-16) M:(-15)
000567:                                                                                                  #  D/N FROM PDL+0
000568: 27,3661           77626                           STADR
000569: 27,3662           77732                           STORE    TFFTEM                                #  D/N  E:(11) M:(10)
000570: 27,3663           53605                           DMP      SL*
000571: 27,3664           00027                                    TFF1/ALF                              #  1/ALFA  E:(-22-2NA) M:(-20-2NA)
000572: 27,3665           57576                                    0,2                                   #  1/ALFA Z  E:(-11-NA) M:(-10-NA)
000573: 27,3666           41206                           PUSH     DMP                                   #  TO PDL+0
000574: 27,3667           00045                                    TFFTEM                                #  1/Z  E:(11) M:(10)
000575: 27,3670           41057                           SL*      BOVB
000576: 27,3671           57576                                    0,2                                   #  X2= -NA
000577: 27,3672           21712                                    SIGNMPAC                              #  IN CASE X= 1.0, CONTINUE
000578: 27,3673           00043                           STORE    TFFX                                  #  X=1/ALFA ZSQ
000579: 27,3674           41234                           RTB      DMP
000580: 27,3675           57735                                    T(X)                                  #  POLY
000581: 27,3676           00043                                    TFFX
000582: 27,3677           45242                           SR3      DSU
000583: 27,3700           17763                                    DP2(-3)
000584: 27,3701           41405                           DMP      PUSH                                  #  2(X T(X)-1) /Z ALFA   E:(-15-NA)
000585:                                                                                                  #                        M:(-14-NA)
000586:                                                                                                  #  1/ALFA Z FROM PDL+0   E:(-11-NA)
000587:                                                                                                  #                        M:(-10-NA)
000588: 27,3702           41345                           DLOAD    DMP                                   #  GET SIGN FOR SDELF
000589: 27,3703           00045                                    TFFTEM                                #  1/Z  E:(11) M:(10)
000590: 27,3704           00015                                    RMAG1                                 #  E:(-29) M:(-27)
000591: 27,3705           43312                           SL2      DAD
000592: 27,3706           00017                                    TFFQ1                                 #  Q1  E:(-16) M:(-15)
000593: 27,3707           14045                           STODL    TFFTEM                                #  (Q1+R 1/Z) =SGN OF SDELF  E:(-16) M:(-15
000594: 27,3710           00035                                    TFFNP                                 #  LC P  E:(-38+2NR) M:(-36+2NR)
000595: 27,3711           53605                           DMP      SL*                                   #  CALC FOR ARG FOR TFF/TRIG.


000597: 27,3712           00027                                    TFF1/ALF                              #  1/ALFA  E:(-22-2NA) M:(-20-2NA)
000598: 27,3713           57575                                    1,2                                   #  X2=-NA
000599: 27,3714           53765                           SIGN     SL*
000600: 27,3715           00045                                    TFFTEM                                #  AFFIX SIGN FOR SDELF
000601: 27,3716           57576                                    0,2
000602: 27,3717           14045                           STODL    TFFTEM                                #  P/ALFA  E:(-59+2NR) M:(-55+2NR)
000603:                                                                                                  #  (ARG FOR USE IN TFF/TRIG)
000604: 27,3720           00027                                    TFF1/ALF                              #  1/ALFA  E:(-22-2NA) M:(-20-2NA)
000605: 27,3721           41366                           SQRT     DMP
000606: 27,3722           17755                                    PI/16                                 #  PI (-4)
000607: 27,3723           77615                           DAD
000608:                                                                                                  #  2(XT(X)-1)/Z ALFA FROM PDL    E:(-15-NA)
000609:                                                                                                  #                                M:(-14-NA)
000610: 27,3724           45257                           SL*      DSU
000611: 27,3725           57577                                    0          -1,2
000612: 27,3726           00013                                    TFFDELQ                               #  Q2-Q1  E:(-16) M:(-15)
000613: 27,3727           53605                           DMP      SL*
000614: 27,3730           00027                                    TFF1/ALF                              #  1/ALFA  E:(-22-2NA) M:(-20-2NA)
000615: 27,3731           57601                                    0          -3,2
000616: 27,3732           52057                           SL*      GOTO
000617: 27,3733           57602                                    0          -4,2
000618: 27,3734           57641                                    ENDTFF                                #  TFF SQRT(MU) IN MPAC E:(-45) M:(-42)
000619:


000621:                                                                                                  #  PROGRAM NAME:  T(X)                           DATE:  01.17.67
000622:                                                                                                  #  MOD NO:  0                                    LOG SECTION:  TIME OF FREE FALL
000623:                                                                                                  #  MOD BY:  RR BAIRNSFATHER
000624:
000625:                                                                                                  #  FUNCTIONAL DESCRIPTION:  THE POLYNOMIAL T(X) IS USED BY TIME OF FLIGHT SUBROUTINES CALCTFF AND
000626:                                                                                                  #        CALCTPER TO APPROXIMATE THE SERIES
000627:                                                                                                  #                           2     3
000628:                                                                                                  #                1/3 -X/5 +X /7 -X /9 ...
000629:
000630:                                                                                                  #        WHERE   X = ALFA Z Z            IF ALFA Z Z LEQ 1
000631:                                                                                                  #                X = 1/(ALFA Z Z)        IF ALFA Z Z G 1
000632:
000633:                                                                                                  #        ALSO    X IS NEG FOR HYPERBOLIC ORBITS
000634:                                                                                                  #                X = 0 FOR PARABOLIC ORBITS
000635:                                                                                                  #                X IS POSITIVE FOR ELLIPTIC ORBITS
000636:
000637:                                                                                                  #        FOR FLIGHT 278, THE POLYNOMIAL T(X) IS FITTED OVER THE RANGE (0,+1) AND HAS A MAXIMUM
000638:                                                                                                  #        DEVIATION FROM THE SERIES OF 2 E-5   (T(X) IS A CHEBYCHEV TYPE FIT AND WAS OBTAINED USING
000639:                                                                                                  #        MAC PROGRAM AUTCURFIT294RRB AND IS VALID TO THE SAME TOLERANCE OVER THE RANGE (-.08,+1).)
000640:
000641:                                                                                                  #  CALLING SEQUENCE:     RTB
000642:                                                                                                  #                                T(X)
000643:                                                                                                  #        C(MPAC) = X
000644:
000645:                                                                                                  #  SUBROUTINES CALLED:  NONE
000646:
000647:                                                                                                  #  NORMAL EXIT MODE:  TC   DANZIG
000648:
000649:                                                                                                  #  ALARMS:  NONE
000650:
000651:                                                                                                  #  OUTPUT:  C(MPAC) = T(X)
000652:
000653:                                                                                                  #  ERASABLE INITIALIZATION REQUIRED:
000654:                                                                                                  #        C(MPAC) = X
000655:
000656:                                                                                                  #  DEBRIS:  NONE
000657:
000658: 27,3735           07222        T(X)               TC       POLY
000659: 27,3736           00004                           DEC      4          B-14                       #  N-1
000660: 27,3737           12525 12525                     2DEC     3.333333333 E-1
000661:
000662: 27,3741           71463 57703                     2DEC*    -1.999819135 E-1*
000663:
000664: 27,3743           04423 17645                     2DEC*    1.418148467 E-1*
000665:
000666: 27,3745           74604 43667                     2DEC*    -1.01310997 E-1*
000667:
000668: 27,3747           01626 37256                     2DEC*    5.609004986 E-2*
000669:
000670: 27,3751           77404 52071                     2DEC*    -1.536156925 E-2*
000671:
000672: 27,3753           06061        ENDT(X)            TC       DANZIG
000673:
000674: 27,3754  27,3753               TCDANZIG           =        ENDT(X)
000675:


000677:                                                                                                  #  TFF CONSTANTS
000678:
000679: 32,3773                                           BANK     32
000680:
000681: 27,2000                                           SETLOC   TOF-FF1
000682: 27,2000                                           BANK
000683:
000684:                                                                                                  #                                                NOTE _  NOTE _  ADJUSTED MUE FOR NEAR EARTH TRAJ.
000685:                                                                                                  # MUE            =       3.990815471 E10         M CUBE/CS SQ
000686:                                                                                                  # RTMUE          =       1.997702549 E5 B-18*    MODIFIED EARTH MU
000687:
000688:                                                                                                  #                                                NOTE _  NOTE _  ADJUSTED MUE FOR NEAR EARTH TRAJ.
000689:                                                                                                  # MUM            =       4.902778 E8             M CUBE/CS SQ
000690:                                                                                                  # RTMUM          2DEC*   2.21422176 E4 B-18*
000691:
000692: 27,3754           06220 37553  PI/16              2DEC     3.141592653 B-4
000693:
000694: 27,3756           37777 37700  LIM(-22)           2OCT     3777737700                            #  1.0 -B(-22)
000695:
000696: 27,3760           00000 00100  DP(-22)            2OCT     0000000100                            #  B(-22)
000697:
000698: 27,3762           04000 00000  DP2(-3)            2DEC     1          B-3
000699:
000700: 27,3764           02000 00000  DP2(-4)            2DEC     1          B-4                        #  1/16
000701:
000702:                                                                                                  #  RPAD1         2DEC    6373338 B-29            M (-29) = 20909901.57 FT
000703:
000704: 27,3766  23,2314               RPAD1              =        RPAD
000705:
000706: 27,3766           00305 11205  R300K              2DEC     6464778    B-29                       #  (-29) M
000707:
000708: 27,3770           37777 37777  NEARONE            2DEC     .999999999
000709:
000710: 27,3772  23,2521               TFFZEROS           EQUALS   HI6ZEROS
000711: 27,3772  23,2511               TFF1/4             EQUALS   HIDP1/4
000712:

End of include-file TIME_OF_FREE_FALL.agc.  Parent file is MAIN.agc


