
Source Code


000002:                                                                                                  ## Copyright:   Public domain.
000003:                                                                                                  ## Filename:    ALARM_AND_ABORT.agc
000004:                                                                                                  ## Purpose:     A section of Comanche revision 044.
000005:                                                                                                  ##              It is part of the reconstructed source code for the
000006:                                                                                                  ##              original release of the flight software for the Command
000007:                                                                                                  ##              Module's (CM) Apollo Guidance Computer (AGC) for Apollo 10.
000008:                                                                                                  ##              The code has been recreated from a copy of Comanche 055. It
000009:                                                                                                  ##              has been adapted such that the resulting bugger words
000010:                                                                                                  ##              exactly match those specified for Comanche 44 in NASA drawing
000011:                                                                                                  ##              2021153D, which gives relatively high confidence that the
000012:                                                                                                  ##              reconstruction is correct.
000013:                                                                                                  ## Assembler:   yaYUL
000014:                                                                                                  ## Contact:     Ron Burkey <info@sandroid.org>.
000015:                                                                                                  ## Website:     www.ibiblio.org/apollo/index.html
000016:                                                                                                  ## Mod history: 2020-12-03 MAS  Created from Comanche 51. Removed clearing of
000017:                                                                                                  ##                              STATEFLG, REINTFLG, and NODOFLAG from POODOO.
000018:                                                                                                  ##              2020-12-08 RSB  Added justifying annotation related to the change
000019:                                                                                                  ##                              mentioned above.
000020:                                                                                                  ##              2020-12-13 RSB  Incorporated feedback about the annotations.
000021:


000023:                                                                                                  #  THE FOLLOWING SUBROUTINE MAY BE CALLED TO DISPLAY A NON-ABORTIVE ALARM CONDITION.  IT MAY BE CALLED
000024:                                                                                                  #  EITHER IN INTERRUPT OR UNDER EXECUTIVE CONTROL.
000025:
000026:                                                                                                  #  CALLING SEQUENCE IS AS FOLLOWS:
000027:                                                                                                  #                TC      ALARM
000028:                                                                                                  #                OCT     NNNNN
000029:                                                                                                  #                                        (RETURNS HERE)
000030:
000031:    5650                                           BLOCK    02
000032:    4000                                           SETLOC   FFTAG7
000033:    4000                                           BANK
000034:
000035:    5650     0375                                  EBANK=   FAILREG
000036:
000037:    5650                                           COUNT    02/ALARM
000038:
000039:                                                                                                  #  ALARM TURNS ON THE PROGRAM ALARM LIGHT, BUT DOES NOT DISPLAY.
000040:
000041:    5650           00004        ALARM              INHINT
000042:
000043:    5651           30002                           CA       Q
000044:    5652           55363        ALARM2             TS       ALMCADR
000045:    5653           50002                           INDEX    Q
000046:    5654           30000                           CA       0
000047:    5655           54001        BORTENT            TS       L
000048:
000049:    5656           30006        PRIOENT            CA       BBANK
000050:    5657           00006                 +1        EXTEND
000051:    5660           04007                           ROR      SUPERBNK                              #  ADD SUPER BITS.
000052:    5661           55364                           TS       ALMCADR    +1
000053:
000054:    5662           30002        LARMENT            CA       Q                                     #  STORE RETURN FOR ALARM
000055:    5663           54061                           TS       ITEMP1
000056:
000057:    5664           30164                           CA       LOC
000058:    5665           54057                           TS       LOCALARM
000059:    5666           30165                           CA       BANKSET
000060:    5667           54060                           TS       BANKALRM
000061:
000062:    5670           10375        CHKFAIL1           CCS      FAILREG                               #  IS ANYTHING IN FAILREG
000063:    5671           15674                           TCF      CHKFAIL2                              #  YES TRY NEXT REG
000064:    5672           22375                           LXCH     FAILREG
000065:    5673           15706                           TCF      PROGLARM                              #  TURN ALARM LIGHT ON FOR FIRST ALARM
000066:
000067:    5674           10376        CHKFAIL2           CCS      FAILREG    +1
000068:    5675           15700                           TCF      FAIL3
000069:    5676           22376                           LXCH     FAILREG    +1
000070:    5677           15711                           TCF      MULTEXIT
000071:
000072:    5700           30377        FAIL3              CA       FAILREG    +2


000074:    5701           74777                           MASK     POSMAX
000075:    5702           10000                           CCS      A
000076:    5703           15715                           TCF      MULTFAIL
000077:    5704           22377                           LXCH     FAILREG    +2
000078:    5705           15711                           TCF      MULTEXIT
000079:
000080:    5706           41036        PROGLARM           CS       DSPTAB     +11D
000081:    5707           77765                           MASK     OCT40400
000082:    5710           27036                           ADS      DSPTAB     +11D
000083:
000084:    5711           56061        MULTEXIT           XCH      ITEMP1                                #  OBTAIN RETURN ADDRESS IN A
000085:    5712           00003                           RELINT
000086:    5713           50000                           INDEX    A
000087:    5714           00001                           TC       1
000088:
000089:    5715           30001        MULTFAIL           CA       L
000090:    5716           65001                           AD       BIT15
000091:    5717           54377                           TS       FAILREG    +2
000092:
000093:    5720           15711                           TCF      MULTEXIT
000094:
000095:                                                                                                  #  PRIOLARM DISPLAYS V05N09 VIA PRIODSPR WITH 3 RETURNS TO THE USER FROM THE ASTRONAUT AT CALL LOC +1,+2,+3 AND
000096:                                                                                                  #  AN IMMEDIATE RETURN TO THE USER AT CALL LOC +4.  EXAMPLE FOLLOWS,
000097:                                                                                                  #                CAF     OCTXX           ALARM CODE
000098:                                                                                                  #                TC      BANKCALL
000099:                                                                                                  #                CADR    PRIOLARM
000100:
000101:                                                                                                  #                ...     ...
000102:                                                                                                  #                ...     ...
000103:                                                                                                  #                ...     ...             ASTRONAUT RETURN
000104:                                                                                                  #                TC      PHASCHNG        IMMEDIATE RETURN TO USER.  RESTART
000105:                                                                                                  #                OCT     X.1             PHASE CHANGE FOR PRIO DISPLAY
000106:
000107: 10,3766                                           BANK     10
000108: 10,2000                                           SETLOC   DISPLAYS
000109: 10,2000                                           BANK
000110:
000111: 10,3766                                           COUNT    10/DSPLA
000112: 10,3766           00004        PRIOLARM           INHINT                                         #  * * * KEEP IN DISPLAY ROUTINES BANK
000113: 10,3767           54001                           TS       L                                     #  SAVE ALARM CODE
000114:
000115: 10,3770           30133                           CA       BUF2                                  #  2 CADR OF PRIOLARM USER
000116: 10,3771           55363                           TS       ALMCADR
000117: 10,3772           30134                           CA       BUF2       +1
000118: 10,3773           05657                           TC       PRIOENT    +1                         #  * LEAVE L ALONE
000119: 10,3774           77467        -2SEC              DEC      -200       B-14                       #  *** DONT MOVE
000120: 10,3775           35050                           CAF      V05N09
000121: 10,3776           12726                           TCF      PRIODSPR
000122:


000124:
000125:    5721                                           BLOCK    02
000126:    6000                                           SETLOC   FFTAG13
000127:    6000                                           BANK
000128:
000129:    7755                                           COUNT    02/ALARM
000130:
000131:    7755           00004        BAILOUT            INHINT
000132:    7756           30002                           CA       Q
000133:    7757           55363                           TS       ALMCADR
000134:
000135:    7760           04662                           TC       BANKCALL
000136:    7761           40000                           CADR     VAC5STOR
000137:
000138:    7762           51363                           INDEX    ALMCADR
000139:    7763           30000                           CAF      0
000140:    7764           05655                           TC       BORTENT
000141:    7765           40400        OCT40400           OCT      40400
000142:
000143:    7766           00004                           INHINT
000144:    7767           35016        WHIMPER            CA       TWO
000145:    7770           60005                           AD       Z
000146:    7771           54017                           TS       BRUPT
000147:    7772           50017                           RESUME
000148:    7773           04701                           TC       POSTJUMP                              #  RESUME SENDS CONTROL HERE
000149:    7774           12651                           CADR     ENEMA
000150:
000151:    4000                                           SETLOC   FFTAG7
000152:    4000                                           BANK
000153:
000154:    5721           00004        POODOO             INHINT
000155:    5722           30002                           CA       Q
000156:    5723           55363                           TS       ALMCADR
000157:
000158:    5724           04662                           TC       BANKCALL
000159:    5725           40000                           CADR     VAC5STOR                              #  STORE ERASABLES FOR DEBUGGING PURPOSES.
000160:
000161:    5726           51363                           INDEX    ALMCADR
000162:    5727           30000                           CAF      0
000163:    5730           05655        ABORT2             TC       BORTENT
000164:    5731           77770        OCT77770           OCT      77770                                 #  DONT MOVE
000165:    5732           35012                           CA       V37FLBIT                              #  IS AVERAGE G ON
000166:    5733           70103                           MASK     FLAGWRD7
000167:    5734           10000                           CCS      A
000168:    5735           07766                           TC       WHIMPER    -1                         #  YES.  DONT DO POODOO.  DO BAILOUT.
000169:


000195:


000197:    5736           04662                           TC       BANKCALL
000198:    5737           12501                           CADR     MR.KLEAN
000199:    5740           07767                           TC       WHIMPER
000200:
000201:    5741           00004        CCSHOLE            INHINT
000202:    5742           30002                           CA       Q
000203:    5743           55363                           TS       ALMCADR
000204:    5744           04662                           TC       BANKCALL
000205:    5745           40000                           CADR     VAC5STOR
000206:    5746           35750                           CA       OCT1103
000207:    5747           05730                           TC       ABORT2
000208:    5750           01103        OCT1103            OCT      1103
000209:    5751           00004        CURTAINS           INHINT
000210:    5752           30002                           CA       Q
000211:    5753           05652                           TC       ALARM2
000212:    5754           00217        OCT217             OCT      00217
000213:    5755           01363                           TC       ALMCADR                               #  RETURN TO USER
000214:
000215:    5756     5217               DOALARM            EQUALS   ENDOFJOB
000216:
000217:                                                                                                  #  CALLING SEQUENCE FOR VARALARM
000218:
000219:                                                                                                  #                CAF     (ALARM)
000220:                                                                                                  #                TC      VARALARM
000221:
000222:                                                                                                  #  VARALARM TURNS ON PROGRAM ALARM LIGHT BUT DOES NOT DISPLAY
000223:
000224:    5756           00004        VARALARM           INHINT
000225:
000226:    5757           54001                           TS       L                                     #  SAVE USERS ALARM CODE
000227:
000228:    5760           30002                           CA       Q                                     #  SAVE USERS Q
000229:    5761           55363                           TS       ALMCADR
000230:
000231:    5762           05656                           TC       PRIOENT
000232:    5763           00014        OCT14              OCT      14                                    #  DONT MOVE
000233:
000234:    5764           01363                           TC       ALMCADR                               #  RETURN TO USER
000235:
000236:    5765     7755               ABORT              EQUALS   BAILOUT                               #  *** TEMPORARY UNTIL ABORT CALLS OUT

End of include-file ALARM_AND_ABORT.agc.  Parent file is MAIN.agc


