
Source Code


000002:                                                                                                  ## Copyright:   Public domain.
000003:                                                                                                  ## Filename:    ALARM_AND_ABORT.agc
000004:                                                                                                  ## Purpose:     A section of Comanche revision 044.
000005:                                                                                                  ##              It is part of the reconstructed source code for the
000006:                                                                                                  ##              original release of the flight software for the Command
000007:                                                                                                  ##              Module's (CM) Apollo Guidance Computer (AGC) for Apollo 10.
000008:                                                                                                  ##              The code has been recreated from a copy of Comanche 055. It
000009:                                                                                                  ##              has been adapted such that the resulting bugger words
000010:                                                                                                  ##              exactly match those specified for Comanche 44 in NASA drawing
000011:                                                                                                  ##              2021153D, which gives relatively high confidence that the
000012:                                                                                                  ##              reconstruction is correct.
000013:                                                                                                  ## Assembler:   yaYUL
000014:                                                                                                  ## Contact:     Ron Burkey <info@sandroid.org>.
000015:                                                                                                  ## Website:     www.ibiblio.org/apollo/index.html
000016:                                                                                                  ## Mod history: 2020-12-03 MAS  Created from Comanche 51. Removed clearing of
000017:                                                                                                  ##                              STATEFLG, REINTFLG, and NODOFLAG from POODOO.
000018:


000020:                                                                                                  #  THE FOLLOWING SUBROUTINE MAY BE CALLED TO DISPLAY A NON-ABORTIVE ALARM CONDITION.  IT MAY BE CALLED
000021:                                                                                                  #  EITHER IN INTERRUPT OR UNDER EXECUTIVE CONTROL.
000022:
000023:                                                                                                  #  CALLING SEQUENCE IS AS FOLLOWS:
000024:                                                                                                  #                TC      ALARM
000025:                                                                                                  #                OCT     NNNNN
000026:                                                                                                  #                                        (RETURNS HERE)
000027:
000028:    5650                                           BLOCK    02
000029:    4000                                           SETLOC   FFTAG7
000030:    4000                                           BANK
000031:
000032:    5650     0375                                  EBANK=   FAILREG
000033:
000034:    5650                                           COUNT    02/ALARM
000035:
000036:                                                                                                  #  ALARM TURNS ON THE PROGRAM ALARM LIGHT, BUT DOES NOT DISPLAY.
000037:
000038:    5650           00004        ALARM              INHINT
000039:
000040:    5651           30002                           CA       Q
000041:    5652           55363        ALARM2             TS       ALMCADR
000042:    5653           50002                           INDEX    Q
000043:    5654           30000                           CA       0
000044:    5655           54001        BORTENT            TS       L
000045:
000046:    5656           30006        PRIOENT            CA       BBANK
000047:    5657           00006                 +1        EXTEND
000048:    5660           04007                           ROR      SUPERBNK                              #  ADD SUPER BITS.
000049:    5661           55364                           TS       ALMCADR    +1
000050:
000051:    5662           30002        LARMENT            CA       Q                                     #  STORE RETURN FOR ALARM
000052:    5663           54061                           TS       ITEMP1
000053:
000054:    5664           30164                           CA       LOC
000055:    5665           54057                           TS       LOCALARM
000056:    5666           30165                           CA       BANKSET
000057:    5667           54060                           TS       BANKALRM
000058:
000059:    5670           10375        CHKFAIL1           CCS      FAILREG                               #  IS ANYTHING IN FAILREG
000060:    5671           15674                           TCF      CHKFAIL2                              #  YES TRY NEXT REG
000061:    5672           22375                           LXCH     FAILREG
000062:    5673           15706                           TCF      PROGLARM                              #  TURN ALARM LIGHT ON FOR FIRST ALARM
000063:
000064:    5674           10376        CHKFAIL2           CCS      FAILREG    +1
000065:    5675           15700                           TCF      FAIL3
000066:    5676           22376                           LXCH     FAILREG    +1
000067:    5677           15711                           TCF      MULTEXIT
000068:
000069:    5700           30377        FAIL3              CA       FAILREG    +2


000071:    5701           74777                           MASK     POSMAX
000072:    5702           10000                           CCS      A
000073:    5703           15715                           TCF      MULTFAIL
000074:    5704           22377                           LXCH     FAILREG    +2
000075:    5705           15711                           TCF      MULTEXIT
000076:
000077:    5706           41036        PROGLARM           CS       DSPTAB     +11D
000078:    5707           77765                           MASK     OCT40400
000079:    5710           27036                           ADS      DSPTAB     +11D
000080:
000081:    5711           56061        MULTEXIT           XCH      ITEMP1                                #  OBTAIN RETURN ADDRESS IN A
000082:    5712           00003                           RELINT
000083:    5713           50000                           INDEX    A
000084:    5714           00001                           TC       1
000085:
000086:    5715           30001        MULTFAIL           CA       L
000087:    5716           65001                           AD       BIT15
000088:    5717           54377                           TS       FAILREG    +2
000089:
000090:    5720           15711                           TCF      MULTEXIT
000091:
000092:                                                                                                  #  PRIOLARM DISPLAYS V05N09 VIA PRIODSPR WITH 3 RETURNS TO THE USER FROM THE ASTRONAUT AT CALL LOC +1,+2,+3 AND
000093:                                                                                                  #  AN IMMEDIATE RETURN TO THE USER AT CALL LOC +4.  EXAMPLE FOLLOWS,
000094:                                                                                                  #                CAF     OCTXX           ALARM CODE
000095:                                                                                                  #                TC      BANKCALL
000096:                                                                                                  #                CADR    PRIOLARM
000097:
000098:                                                                                                  #                ...     ...
000099:                                                                                                  #                ...     ...
000100:                                                                                                  #                ...     ...             ASTRONAUT RETURN
000101:                                                                                                  #                TC      PHASCHNG        IMMEDIATE RETURN TO USER.  RESTART
000102:                                                                                                  #                OCT     X.1             PHASE CHANGE FOR PRIO DISPLAY
000103:
000104: 10,3766                                           BANK     10
000105: 10,2000                                           SETLOC   DISPLAYS
000106: 10,2000                                           BANK
000107:
000108: 10,3766                                           COUNT    10/DSPLA
000109: 10,3766           00004        PRIOLARM           INHINT                                         #  * * * KEEP IN DISPLAY ROUTINES BANK
000110: 10,3767           54001                           TS       L                                     #  SAVE ALARM CODE
000111:
000112: 10,3770           30133                           CA       BUF2                                  #  2 CADR OF PRIOLARM USER
000113: 10,3771           55363                           TS       ALMCADR
000114: 10,3772           30134                           CA       BUF2       +1
000115: 10,3773           05657                           TC       PRIOENT    +1                         #  * LEAVE L ALONE
000116: 10,3774           77467        -2SEC              DEC      -200       B-14                       #  *** DONT MOVE
000117: 10,3775           35050                           CAF      V05N09
000118: 10,3776           12726                           TCF      PRIODSPR
000119:


000121:
000122:    5721                                           BLOCK    02
000123:    6000                                           SETLOC   FFTAG13
000124:    6000                                           BANK
000125:
000126:    7755                                           COUNT    02/ALARM
000127:
000128:    7755           00004        BAILOUT            INHINT
000129:    7756           30002                           CA       Q
000130:    7757           55363                           TS       ALMCADR
000131:
000132:    7760           04662                           TC       BANKCALL
000133:    7761           40000                           CADR     VAC5STOR
000134:
000135:    7762           51363                           INDEX    ALMCADR
000136:    7763           30000                           CAF      0
000137:    7764           05655                           TC       BORTENT
000138:    7765           40400        OCT40400           OCT      40400
000139:
000140:    7766           00004                           INHINT
000141:    7767           35016        WHIMPER            CA       TWO
000142:    7770           60005                           AD       Z
000143:    7771           54017                           TS       BRUPT
000144:    7772           50017                           RESUME
000145:    7773           04701                           TC       POSTJUMP                              #  RESUME SENDS CONTROL HERE
000146:    7774           12651                           CADR     ENEMA
000147:
000148:    4000                                           SETLOC   FFTAG7
000149:    4000                                           BANK
000150:
000151:    5721           00004        POODOO             INHINT
000152:    5722           30002                           CA       Q
000153:    5723           55363                           TS       ALMCADR
000154:
000155:    5724           04662                           TC       BANKCALL
000156:    5725           40000                           CADR     VAC5STOR                              #  STORE ERASABLES FOR DEBUGGING PURPOSES.
000157:
000158:    5726           51363                           INDEX    ALMCADR
000159:    5727           30000                           CAF      0
000160:    5730           05655        ABORT2             TC       BORTENT
000161:    5731           77770        OCT77770           OCT      77770                                 #  DONT MOVE
000162:    5732           35012                           CA       V37FLBIT                              #  IS AVERAGE G ON
000163:    5733           70103                           MASK     FLAGWRD7
000164:    5734           10000                           CCS      A
000165:    5735           07766                           TC       WHIMPER    -1                         #  YES.  DONT DO POODOO.  DO BAILOUT.
000166:


000168:    5736           04662                           TC       BANKCALL
000169:    5737           12501                           CADR     MR.KLEAN
000170:    5740           07767                           TC       WHIMPER
000171:
000172:    5741           00004        CCSHOLE            INHINT
000173:    5742           30002                           CA       Q
000174:    5743           55363                           TS       ALMCADR
000175:    5744           04662                           TC       BANKCALL
000176:    5745           40000                           CADR     VAC5STOR
000177:    5746           35750                           CA       OCT1103
000178:    5747           05730                           TC       ABORT2
000179:    5750           01103        OCT1103            OCT      1103
000180:    5751           00004        CURTAINS           INHINT
000181:    5752           30002                           CA       Q
000182:    5753           05652                           TC       ALARM2
000183:    5754           00217        OCT217             OCT      00217
000184:    5755           01363                           TC       ALMCADR                               #  RETURN TO USER
000185:
000186:    5756     5217               DOALARM            EQUALS   ENDOFJOB
000187:
000188:                                                                                                  #  CALLING SEQUENCE FOR VARALARM
000189:
000190:                                                                                                  #                CAF     (ALARM)
000191:                                                                                                  #                TC      VARALARM
000192:
000193:                                                                                                  #  VARALARM TURNS ON PROGRAM ALARM LIGHT BUT DOES NOT DISPLAY
000194:
000195:    5756           00004        VARALARM           INHINT
000196:
000197:    5757           54001                           TS       L                                     #  SAVE USERS ALARM CODE
000198:
000199:    5760           30002                           CA       Q                                     #  SAVE USERS Q
000200:    5761           55363                           TS       ALMCADR
000201:
000202:    5762           05656                           TC       PRIOENT
000203:    5763           00014        OCT14              OCT      14                                    #  DONT MOVE
000204:
000205:    5764           01363                           TC       ALMCADR                               #  RETURN TO USER
000206:
000207:    5765     7755               ABORT              EQUALS   BAILOUT                               #  *** TEMPORARY UNTIL ABORT CALLS OUT

End of include-file ALARM_AND_ABORT.agc.  Parent file is MAIN.agc


