
Source Code


000002:                                                                                                  ## Copyright:   Public domain.
000003:                                                                                                  ## Filename:    ALARM_AND_ABORT.agc
000004:                                                                                                  ## Purpose:     A section of Comanche revision 044.
000005:                                                                                                  ##              It is part of the reconstructed source code for the
000006:                                                                                                  ##              original release of the flight software for the Command
000007:                                                                                                  ##              Module's (CM) Apollo Guidance Computer (AGC) for Apollo 10.
000008:                                                                                                  ##              The code has been recreated from a copy of Comanche 055. It
000009:                                                                                                  ##              has been adapted such that the resulting bugger words
000010:                                                                                                  ##              exactly match those specified for Comanche 44 in NASA drawing
000011:                                                                                                  ##              2021153D, which gives relatively high confidence that the
000012:                                                                                                  ##              reconstruction is correct.
000013:                                                                                                  ## Assembler:   yaYUL
000014:                                                                                                  ## Contact:     Ron Burkey <info@sandroid.org>.
000015:                                                                                                  ## Website:     www.ibiblio.org/apollo/index.html
000016:                                                                                                  ## Mod history: 2020-12-03 MAS  Created from Comanche 51. Removed clearing of
000017:                                                                                                  ##                              STATEFLG, REINTFLG, and NODOFLAG from POODOO.
000018:                                                                                                  ##              2020-12-08 RSB  Added justifying annotation related to the change
000019:                                                                                                  ##                              mentioned above.
000020:


000022:                                                                                                  #  THE FOLLOWING SUBROUTINE MAY BE CALLED TO DISPLAY A NON-ABORTIVE ALARM CONDITION.  IT MAY BE CALLED
000023:                                                                                                  #  EITHER IN INTERRUPT OR UNDER EXECUTIVE CONTROL.
000024:
000025:                                                                                                  #  CALLING SEQUENCE IS AS FOLLOWS:
000026:                                                                                                  #                TC      ALARM
000027:                                                                                                  #                OCT     NNNNN
000028:                                                                                                  #                                        (RETURNS HERE)
000029:
000030:    5650                                           BLOCK    02
000031:    4000                                           SETLOC   FFTAG7
000032:    4000                                           BANK
000033:
000034:    5650     0375                                  EBANK=   FAILREG
000035:
000036:    5650                                           COUNT    02/ALARM
000037:
000038:                                                                                                  #  ALARM TURNS ON THE PROGRAM ALARM LIGHT, BUT DOES NOT DISPLAY.
000039:
000040:    5650           00004        ALARM              INHINT
000041:
000042:    5651           30002                           CA       Q
000043:    5652           55363        ALARM2             TS       ALMCADR
000044:    5653           50002                           INDEX    Q
000045:    5654           30000                           CA       0
000046:    5655           54001        BORTENT            TS       L
000047:
000048:    5656           30006        PRIOENT            CA       BBANK
000049:    5657           00006                 +1        EXTEND
000050:    5660           04007                           ROR      SUPERBNK                              #  ADD SUPER BITS.
000051:    5661           55364                           TS       ALMCADR    +1
000052:
000053:    5662           30002        LARMENT            CA       Q                                     #  STORE RETURN FOR ALARM
000054:    5663           54061                           TS       ITEMP1
000055:
000056:    5664           30164                           CA       LOC
000057:    5665           54057                           TS       LOCALARM
000058:    5666           30165                           CA       BANKSET
000059:    5667           54060                           TS       BANKALRM
000060:
000061:    5670           10375        CHKFAIL1           CCS      FAILREG                               #  IS ANYTHING IN FAILREG
000062:    5671           15674                           TCF      CHKFAIL2                              #  YES TRY NEXT REG
000063:    5672           22375                           LXCH     FAILREG
000064:    5673           15706                           TCF      PROGLARM                              #  TURN ALARM LIGHT ON FOR FIRST ALARM
000065:
000066:    5674           10376        CHKFAIL2           CCS      FAILREG    +1
000067:    5675           15700                           TCF      FAIL3
000068:    5676           22376                           LXCH     FAILREG    +1
000069:    5677           15711                           TCF      MULTEXIT
000070:
000071:    5700           30377        FAIL3              CA       FAILREG    +2


000073:    5701           74777                           MASK     POSMAX
000074:    5702           10000                           CCS      A
000075:    5703           15715                           TCF      MULTFAIL
000076:    5704           22377                           LXCH     FAILREG    +2
000077:    5705           15711                           TCF      MULTEXIT
000078:
000079:    5706           41036        PROGLARM           CS       DSPTAB     +11D
000080:    5707           77765                           MASK     OCT40400
000081:    5710           27036                           ADS      DSPTAB     +11D
000082:
000083:    5711           56061        MULTEXIT           XCH      ITEMP1                                #  OBTAIN RETURN ADDRESS IN A
000084:    5712           00003                           RELINT
000085:    5713           50000                           INDEX    A
000086:    5714           00001                           TC       1
000087:
000088:    5715           30001        MULTFAIL           CA       L
000089:    5716           65001                           AD       BIT15
000090:    5717           54377                           TS       FAILREG    +2
000091:
000092:    5720           15711                           TCF      MULTEXIT
000093:
000094:                                                                                                  #  PRIOLARM DISPLAYS V05N09 VIA PRIODSPR WITH 3 RETURNS TO THE USER FROM THE ASTRONAUT AT CALL LOC +1,+2,+3 AND
000095:                                                                                                  #  AN IMMEDIATE RETURN TO THE USER AT CALL LOC +4.  EXAMPLE FOLLOWS,
000096:                                                                                                  #                CAF     OCTXX           ALARM CODE
000097:                                                                                                  #                TC      BANKCALL
000098:                                                                                                  #                CADR    PRIOLARM
000099:
000100:                                                                                                  #                ...     ...
000101:                                                                                                  #                ...     ...
000102:                                                                                                  #                ...     ...             ASTRONAUT RETURN
000103:                                                                                                  #                TC      PHASCHNG        IMMEDIATE RETURN TO USER.  RESTART
000104:                                                                                                  #                OCT     X.1             PHASE CHANGE FOR PRIO DISPLAY
000105:
000106: 10,3766                                           BANK     10
000107: 10,2000                                           SETLOC   DISPLAYS
000108: 10,2000                                           BANK
000109:
000110: 10,3766                                           COUNT    10/DSPLA
000111: 10,3766           00004        PRIOLARM           INHINT                                         #  * * * KEEP IN DISPLAY ROUTINES BANK
000112: 10,3767           54001                           TS       L                                     #  SAVE ALARM CODE
000113:
000114: 10,3770           30133                           CA       BUF2                                  #  2 CADR OF PRIOLARM USER
000115: 10,3771           55363                           TS       ALMCADR
000116: 10,3772           30134                           CA       BUF2       +1
000117: 10,3773           05657                           TC       PRIOENT    +1                         #  * LEAVE L ALONE
000118: 10,3774           77467        -2SEC              DEC      -200       B-14                       #  *** DONT MOVE
000119: 10,3775           35050                           CAF      V05N09
000120: 10,3776           12726                           TCF      PRIODSPR
000121:


000123:
000124:    5721                                           BLOCK    02
000125:    6000                                           SETLOC   FFTAG13
000126:    6000                                           BANK
000127:
000128:    7755                                           COUNT    02/ALARM
000129:
000130:    7755           00004        BAILOUT            INHINT
000131:    7756           30002                           CA       Q
000132:    7757           55363                           TS       ALMCADR
000133:
000134:    7760           04662                           TC       BANKCALL
000135:    7761           40000                           CADR     VAC5STOR
000136:
000137:    7762           51363                           INDEX    ALMCADR
000138:    7763           30000                           CAF      0
000139:    7764           05655                           TC       BORTENT
000140:    7765           40400        OCT40400           OCT      40400
000141:
000142:    7766           00004                           INHINT
000143:    7767           35016        WHIMPER            CA       TWO
000144:    7770           60005                           AD       Z
000145:    7771           54017                           TS       BRUPT
000146:    7772           50017                           RESUME
000147:    7773           04701                           TC       POSTJUMP                              #  RESUME SENDS CONTROL HERE
000148:    7774           12651                           CADR     ENEMA
000149:
000150:    4000                                           SETLOC   FFTAG7
000151:    4000                                           BANK
000152:
000153:    5721           00004        POODOO             INHINT
000154:    5722           30002                           CA       Q
000155:    5723           55363                           TS       ALMCADR
000156:
000157:    5724           04662                           TC       BANKCALL
000158:    5725           40000                           CADR     VAC5STOR                              #  STORE ERASABLES FOR DEBUGGING PURPOSES.
000159:
000160:    5726           51363                           INDEX    ALMCADR
000161:    5727           30000                           CAF      0
000162:    5730           05655        ABORT2             TC       BORTENT
000163:    5731           77770        OCT77770           OCT      77770                                 #  DONT MOVE
000164:    5732           35012                           CA       V37FLBIT                              #  IS AVERAGE G ON
000165:    5733           70103                           MASK     FLAGWRD7
000166:    5734           10000                           CCS      A
000167:    5735           07766                           TC       WHIMPER    -1                         #  YES.  DONT DO POODOO.  DO BAILOUT.
000168:


000194:


000196:    5736           04662                           TC       BANKCALL
000197:    5737           12501                           CADR     MR.KLEAN
000198:    5740           07767                           TC       WHIMPER
000199:
000200:    5741           00004        CCSHOLE            INHINT
000201:    5742           30002                           CA       Q
000202:    5743           55363                           TS       ALMCADR
000203:    5744           04662                           TC       BANKCALL
000204:    5745           40000                           CADR     VAC5STOR
000205:    5746           35750                           CA       OCT1103
000206:    5747           05730                           TC       ABORT2
000207:    5750           01103        OCT1103            OCT      1103
000208:    5751           00004        CURTAINS           INHINT
000209:    5752           30002                           CA       Q
000210:    5753           05652                           TC       ALARM2
000211:    5754           00217        OCT217             OCT      00217
000212:    5755           01363                           TC       ALMCADR                               #  RETURN TO USER
000213:
000214:    5756     5217               DOALARM            EQUALS   ENDOFJOB
000215:
000216:                                                                                                  #  CALLING SEQUENCE FOR VARALARM
000217:
000218:                                                                                                  #                CAF     (ALARM)
000219:                                                                                                  #                TC      VARALARM
000220:
000221:                                                                                                  #  VARALARM TURNS ON PROGRAM ALARM LIGHT BUT DOES NOT DISPLAY
000222:
000223:    5756           00004        VARALARM           INHINT
000224:
000225:    5757           54001                           TS       L                                     #  SAVE USERS ALARM CODE
000226:
000227:    5760           30002                           CA       Q                                     #  SAVE USERS Q
000228:    5761           55363                           TS       ALMCADR
000229:
000230:    5762           05656                           TC       PRIOENT
000231:    5763           00014        OCT14              OCT      14                                    #  DONT MOVE
000232:
000233:    5764           01363                           TC       ALMCADR                               #  RETURN TO USER
000234:
000235:    5765     7755               ABORT              EQUALS   BAILOUT                               #  *** TEMPORARY UNTIL ABORT CALLS OUT

End of include-file ALARM_AND_ABORT.agc.  Parent file is MAIN.agc


