
Source Code


000002:                                                                                                  ## Copyright:   Public domain.
000003:                                                                                                  ## Filename:    ANGLFIND.agc
000004:                                                                                                  ## Purpose:     A section of Comanche revision 044.
000005:                                                                                                  ##              It is part of the reconstructed source code for the
000006:                                                                                                  ##              original release of the flight software for the Command
000007:                                                                                                  ##              Module's (CM) Apollo Guidance Computer (AGC) for Apollo 10.
000008:                                                                                                  ##              The code has been recreated from a copy of Comanche 055. It
000009:                                                                                                  ##              has been adapted such that the resulting bugger words
000010:                                                                                                  ##              exactly match those specified for Comanche 44 in NASA drawing
000011:                                                                                                  ##              2021153D, which gives relatively high confidence that the
000012:                                                                                                  ##              reconstruction is correct.
000013:                                                                                                  ## Assembler:   yaYUL
000014:                                                                                                  ## Contact:     Ron Burkey <info@sandroid.org>.
000015:                                                                                                  ## Website:     www.ibiblio.org/apollo/index.html
000016:                                                                                                  ## Mod history: 2020-12-03 MAS  Created from Comanche 51.
000017:                                                                                                  ##              2021-05-30 ABS  ENDOCM -> ENDDCM
000018:                                                                                                  ##                              ZEROERROR -> ZEROEROR
000019:


000021: 15,2000                                           BANK     15
000022: 22,2000                                           SETLOC   KALCMON1
000023: 22,2000                                           BANK
000024:
000025: 22,2000  E6,1661                                  EBANK=   BCDU
000026:
000027: 22,2000                                           COUNT    22/KALC
000028:
000029: 22,2000           06006        KALCMAN3           TC       INTPRET
000030: 22,2001           77634                           RTB
000031: 22,2002           44376                                    READCDUK                              #  PICK UP CURRENT CDU ANGLES
000032: 22,2003           03262                           STORE    BCDU                                  #  STORE THE INITIAL S/C ANGLES
000033: 22,2004           72364                           AXC,2    TLOAD                                 #  COMPUTE THE TRANSFORMATION FROM
000034: 22,2005           03320                                    MIS                                   #  INITIAL S/C AXES TO STABLE MEMBER AXES
000035: 22,2006           03262                                    BCDU                                  #  (MIS)
000036: 22,2007           77624                           CALL
000037: 22,2010           44405                                    CDUTODCM
000038: 22,2011           72364                           AXC,2    TLOAD                                 #  COMPUTE THE TRANSFORMATION FROM
000039: 22,2012           03425                                    MFS                                   #  FINAL S/C AXES TO STABLE MEMBER AXES
000040: 22,2013           01156                                    CPHI                                  #  (MFS)
000041: 22,2014           77624                           CALL
000042: 22,2015           44405                                    CDUTODCM
000043: 22,2016           45160        SECAD              AXC,1    CALL                                  #  MIS AND MFS ARRAYS CALCULATED         $2
000044: 22,2017           03320                                    MIS
000045: 22,2020           44334                                    TRANSPOS
000046: 22,2021           77775                           VLOAD
000047: 22,2022           77626                           STADR
000048: 22,2023           50474                           STOVL    TMIS       +12D
000049: 22,2024           77626                           STADR
000050: 22,2025           50502                           STOVL    TMIS       +6
000051: 22,2026           77626                           STADR
000052: 22,2027           74510                           STORE    TMIS                                  #  TMIS = TRANSPOSE(MIS) SCALED BY 2
000053: 22,2030           75160                           AXC,1    AXC,2
000054: 22,2031           03266                                    TMIS
000055: 22,2032           03425                                    MFS
000056: 22,2033           77624                           CALL
000057: 22,2034           44304                                    MXM3
000058: 22,2035           45575                           VLOAD    STADR
000059: 22,2036           50335                           STOVL    MFI        +12D
000060: 22,2037           77626                           STADR
000061: 22,2040           50343                           STOVL    MFI        +6
000062: 22,2041           77626                           STADR
000063: 22,2042           74351                           STORE    MFI                                   #  MFI = TMIS MFS (SCALED BY 4)
000064: 22,2043           45001                           SETPD    CALL                                  #  TRANSPOSE MFI IN PD LIST
000065: 22,2044           00023                                    18D
000066: 22,2045           44343                                    TRNSPSPD
000067: 22,2046           45575                           VLOAD    STADR
000068: 22,2047           50474                           STOVL    TMFI       +12D
000069: 22,2050           77626                           STADR
000070: 22,2051           50502                           STOVL    TMFI       +6


000072: 22,2052           77626                           STADR
000073: 22,2053           74510                           STORE    TMFI                                  #  TMFI = TRANSPOSE (MFI) SCALED BY 4
000074:
000075:                                                                                                  #  CALCULATE COFSKEW AND MFISYM
000076:
000077: 22,2054           45345                           DLOAD    DSU
000078: 22,2055           03271                                    TMFI       +2
000079: 22,2056           03430                                    MFI        +2
000080: 22,2057           45325                           PDDL     DSU                                   #  CALCULATE COF SCALED BY 2/SIN(AM)
000081: 22,2060           03432                                    MFI        +4
000082: 22,2061           03273                                    TMFI       +4
000083: 22,2062           45325                           PDDL     DSU
000084: 22,2063           03301                                    TMFI       +10D
000085: 22,2064           03440                                    MFI        +10D
000086: 22,2065           77666                           VDEF
000087: 22,2066           03311                           STORE    COFSKEW                               #  EQUALS MFISKEW
000088:
000089:                                                                                                  #  CALCULATE AM AND PROCEED ACCORDING TO ITS MAGNITUDE
000090:
000091: 22,2067           43345                           DLOAD    DAD
000092: 22,2070           03426                                    MFI
000093: 22,2071           03446                                    MFI        +16D
000094: 22,2072           43225                           DSU      DAD
000095: 22,2073           15325                                    DP1/4TH
000096: 22,2074           03436                                    MFI        +8D
000097: 22,2075           03317                           STORE    CAM                                   #  CAM = (MFI0+MFI4+MFI8-1)/2 HALF SCALE
000098: 22,2076           77726                           ARCCOS
000099: 22,2077           03365                           STORE    AM                                    #  AM=ARCCOS(CAM)  (AM SCALED BY 2)
000100: 22,2100           51025                           DSU      BPL
000101: 22,2101           04367                                    MINANG
000102: 22,2102           44111                                    CHECKMAX
000103: 22,2103           77776                           EXIT                                           #  MANEUVER LESS THAN 0.25 DEG
000104: 22,2104           00004                           INHINT                                         #  GO DIRECTLY INTO ATTITUDE HOLD
000105: 22,2105           45017                           CS       ONE                                   #  ABOUT COMMANDED ANGLES
000106: 22,2106           55332                           TS       HOLDFLAG                              #  NOGO WILL STOP ANY RATE AND SET UP FOR A
000107: 22,2107           03142                           TC       LOADCDUD                              #  GOOD RETURN
000108: 22,2110           12730                           TCF      NOGO
000109:
000110: 22,2111           45345        CHECKMAX           DLOAD    DSU
000111: 22,2112           03365                                    AM
000112: 22,2113           04370                                    MAXANG
000113: 22,2114           77244                           BPL      VLOAD
000114: 22,2115           44123                                    ALTCALC                               #  UNIT
000115: 22,2116           03311                                    COFSKEW                               #  COFSKEW
000116: 22,2117           77656                           UNIT
000117: 22,2120           03343                           STORE    COF                                   #  COF IS THE MANEUVER AXIS
000118: 22,2121           77650                           GOTO                                           #  SEE IF MANEUVER GOES THRU GIMBAL LOCK
000119: 22,2122           44737                                    LOCSKIRT
000120: 22,2123           53375        ALTCALC            VLOAD    VAD                                   #  IF AM GREATER THAN 170 DEGREES
000121: 22,2124           03426                                    MFI


000123: 22,2125           03267                                    TMFI
000124: 22,2126           77762                           VSR1
000125: 22,2127           27267                           STOVL    MFISYM
000126: 22,2130           03434                                    MFI        +6
000127: 22,2131           74455                           VAD      VSR1
000128: 22,2132           03275                                    TMFI       +6
000129: 22,2133           27275                           STOVL    MFISYM     +6
000130: 22,2134           03442                                    MFI        +12D
000131: 22,2135           74455                           VAD      VSR1
000132: 22,2136           03303                                    TMFI       +12D
000133: 22,2137           03303                           STORE    MFISYM     +12D                       #  MFISYM=(MFI+TMFI)/2   SCALED BY 4
000134:
000135:                                                                                                  #  CALCULATE COF
000136:
000137: 22,2140           70545                           DLOAD    SR1
000138: 22,2141           03317                                    CAM
000139: 22,2142           45325                           PDDL     DSU                                   #  PD0 CAM                              $4
000140: 22,2143           15333                                    DPHALF
000141: 22,2144           03317                                    CAM
000142: 22,2145           65204                           BOVB     PDDL                                  #  PD2 1 - CAM                          $2
000143: 22,2146           45712                                    SIGNMPAC
000144: 22,2147           03307                                    MFISYM     +16D
000145: 22,2150           56225                           DSU      DDV
000146: 22,2151           00001                                    0
000147: 22,2152           00003                                    2
000148: 22,2153           65366                           SQRT     PDDL                                  #  COFZ = SQRT(MFISYM8-CAM)/1-CAM)
000149: 22,2154           03277                                    MFISYM     +8D                        #                                 $ ROOT 2
000150: 22,2155           56225                           DSU      DDV
000151: 22,2156           00001                                    0
000152: 22,2157           00003                                    2
000153: 22,2160           65366                           SQRT     PDDL                                  #  COFY = SQRT(MFISYM4-CAM)/(1-CAM) $ROOT2
000154: 22,2161           03267                                    MFISYM
000155: 22,2162           56225                           DSU      DDV
000156: 22,2163           00001                                    0
000157: 22,2164           00003                                    2
000158: 22,2165           55566                           SQRT     VDEF                                  #  COFX = SQRT(MFISYM-CAM)/(1-CAM) $ROOT 2
000159: 22,2166           77656                           UNIT
000160: 22,2167           03343                           STORE    COF
000161:
000162:                                                                                                  #  DETERMINE LARGEST COF AND ADJUST ACCORDINGLY
000163:
000164: 22,2170           45345        COFMAXGO           DLOAD    DSU
000165: 22,2171           03343                                    COF
000166: 22,2172           03345                                    COF        +2
000167: 22,2173           71240                           BMN      DLOAD                                 #  COFY G COFX
000168: 22,2174           44203                                    COMP12
000169: 22,2175           03343                                    COF
000170: 22,2176           50025                           DSU      BMN
000171: 22,2177           03347                                    COF        +4


000173: 22,2200           44260                                    METHOD3                               #  COFZ G COFX OR COFY
000174: 22,2201           77650                           GOTO
000175: 22,2202           44234                                    METHOD1                               #  COFX G COFY OR COFZ
000176: 22,2203           45345        COMP12             DLOAD    DSU
000177: 22,2204           03345                                    COF        +2
000178: 22,2205           03347                                    COF        +4
000179: 22,2206           77640                           BMN
000180: 22,2207           44260                                    METHOD3                               #  COFZ G COFY OR COFX
000181:
000182: 22,2210           51145        METHOD2            DLOAD    BPL                                   #  COFY MAX
000183: 22,2211           03313                                    COFSKEW    +2                         #  UY
000184: 22,2212           44216                                    U2POS
000185: 22,2213           57575                           VLOAD    VCOMP
000186: 22,2214           03343                                    COF
000187: 22,2215           03343                           STORE    COF
000188: 22,2216           51145        U2POS              DLOAD    BPL
000189: 22,2217           03271                                    MFISYM     +2                         #  UX UY
000190: 22,2220           44224                                    OKU21
000191: 22,2221           57545                           DLOAD    DCOMP                                 #  SIGN OF UX OPPOSITE TO UY
000192: 22,2222           03343                                    COF
000193: 22,2223           03343                           STORE    COF
000194: 22,2224           51145        OKU21              DLOAD    BPL
000195: 22,2225           03301                                    MFISYM     +10D                       #  UY UZ
000196: 22,2226           44737                                    LOCSKIRT
000197: 22,2227           57545                           DLOAD    DCOMP                                 #  SIGN OF UZ OPPOSITE TO UY
000198: 22,2230           03347                                    COF        +4
000199: 22,2231           03347                           STORE    COF        +4
000200: 22,2232           77650                           GOTO
000201: 22,2233           44737                                    LOCSKIRT
000202: 22,2234           51145        METHOD1            DLOAD    BPL                                   #  COFX MAX
000203: 22,2235           03311                                    COFSKEW                               #  UX
000204: 22,2236           44242                                    U1POS
000205: 22,2237           57575                           VLOAD    VCOMP
000206: 22,2240           03343                                    COF
000207: 22,2241           03343                           STORE    COF
000208: 22,2242           51145        U1POS              DLOAD    BPL
000209: 22,2243           03271                                    MFISYM     +2                         #  UX UY
000210: 22,2244           44250                                    OKU12
000211: 22,2245           57545                           DLOAD    DCOMP
000212: 22,2246           03345                                    COF        +2                         #  SIGN OF UY OPPOSITE TO UX
000213: 22,2247           03345                           STORE    COF        +2
000214: 22,2250           51145        OKU12              DLOAD    BPL
000215: 22,2251           03273                                    MFISYM     +4                         #  UX UZ
000216: 22,2252           44737                                    LOCSKIRT
000217: 22,2253           57545                           DLOAD    DCOMP                                 #  SIGN OF UZ OPPOSITE TO UY
000218: 22,2254           03347                                    COF        +4
000219: 22,2255           03347                           STORE    COF        +4
000220: 22,2256           77650                           GOTO
000221: 22,2257           44737                                    LOCSKIRT
000222: 22,2260           51145        METHOD3            DLOAD    BPL                                   #  COFZ MAX


000224: 22,2261           03315                                    COFSKEW    +4                         #  UZ
000225: 22,2262           44266                                    U3POS
000226: 22,2263           57575                           VLOAD    VCOMP
000227: 22,2264           03343                                    COF
000228: 22,2265           03343                           STORE    COF
000229: 22,2266           51145        U3POS              DLOAD    BPL
000230: 22,2267           03273                                    MFISYM     +4                         #  UX UZ
000231: 22,2270           44274                                    OKU31
000232: 22,2271           57545                           DLOAD    DCOMP
000233: 22,2272           03343                                    COF                                   #  SIGN OF UX OPPOSITE TO UZ
000234: 22,2273           03343                           STORE    COF
000235: 22,2274           51145        OKU31              DLOAD    BPL
000236: 22,2275           03301                                    MFISYM     +10D                       #  UY UZ
000237: 22,2276           44737                                    LOCSKIRT
000238: 22,2277           57545                           DLOAD    DCOMP
000239: 22,2300           03345                                    COF        +2                         #  SIGN OF UY OPPOSITE TO UZ
000240: 22,2301           03345                           STORE    COF        +2
000241: 22,2302           77650                           GOTO
000242: 22,2303           44737                                    LOCSKIRT
000243:


000245:                                                                                                  #  MATRIX OPERATIONS
000246:
000247: 22,2304           77601        MXM3               SETPD                                          #  MXM3 MULTIPLIES 2 3X3 MATRICES
000248: 22,2305           00001                                    0                                     #  AND LEAVES RESULT IN PD LIST
000249: 22,2306           64743                           DLOAD*   PDDL*                                 #  ADDRESS OF 1ST MATRIX IN XR1
000250: 22,2307           77762                                    12D,2                                 #  ADDRESS OF 2ND MATRIX IN XR2
000251: 22,2310           77770                                    6,2
000252: 22,2311           55523                           PDDL*    VDEF                                  #  DEFINE VECTOR M2(COL 1)
000253: 22,2312           77776                                    0,2
000254: 22,2313           64717                           MXV*     PDDL*                                 #  M1XM2(COL 1) IN PD
000255: 22,2314           00001                                    0,1
000256: 22,2315           77760                                    14D,2
000257: 22,2316           64723                           PDDL*    PDDL*
000258: 22,2317           77766                                    8D,2
000259: 22,2320           77774                                    2,2
000260: 22,2321           63666                           VDEF     MXV*                                  #  DEFINE VECTOR M2(COL 2)
000261: 22,2322           00001                                    0,1
000262: 22,2323           64723                           PDDL*    PDDL*                                 #  M1XM2(COL2) IN PD
000263: 22,2324           77756                                    16D,2
000264: 22,2325           77764                                    10D,2
000265: 22,2326           55523                           PDDL*    VDEF                                  #  DEFINE VECTOR M2(COL 3)
000266: 22,2327           77772                                    4,2
000267: 22,2330           41517                           MXV*     PUSH                                  #  M1XM2(COL 3) IN PD
000268: 22,2331           00001                                    0,1
000269: 22,2332           77650                           GOTO
000270: 22,2333           44343                                    TRNSPSPD                              #  REVERSE ROWS AND COLS IN PD AND
000271:
000272:                                                                                                  #  RETURN WITH M1XM2 IN PD LIST
000273: 22,2334           76601        TRANSPOS           SETPD    VLOAD*                                #  TRANSPOS TRANSPOSES A 3X3 MATRIX
000274: 22,2335           00001                                    0                                     #        AND LEAVES RESULT IN PD LIST
000275: 22,2336           00001                                    0,1                                   #  MATRIX ADDRESS IN XR1
000276: 22,2337           62713                           PDVL*    PDVL*
000277: 22,2340           00007                                    6,1
000278: 22,2341           00015                                    12D,1
000279: 22,2342           77606                           PUSH                                           #  MATRIX IN PD
000280: 22,2343           65345        TRNSPSPD           DLOAD    PDDL                                  #  ENTER WITH MATRIX IN PD LIST
000281: 22,2344           00003                                    2
000282: 22,2345           00007                                    6
000283: 22,2346           14003                           STODL    2
000284: 22,2347           77626                           STADR
000285: 22,2350           63770                           STODL    6
000286: 22,2351           00005                                    4
000287: 22,2352           77725                           PDDL
000288: 22,2353           00015                                    12D
000289: 22,2354           14005                           STODL    4
000290: 22,2355           77626                           STADR
000291: 22,2356           63762                           STODL    12D
000292: 22,2357           00013                                    10D
000293: 22,2360           77725                           PDDL


000295: 22,2361           00017                                    14D
000296: 22,2362           14013                           STODL    10D
000297: 22,2363           77626                           STADR
000298: 22,2364           77760                           STORE    14D
000299: 22,2365           77616                           RVQ                                            #  RETURN WITH TRANSPOSED MATRIX IN PD LIST
000300: 22,2366           00013        MINANG             DEC      .00069375
000301: 22,2367           17071        MAXANG             DEC      .472222
000302:
000303:                                                                                                  #  GIMBAL LOCK CONSTANTS
000304:
000305:                                                                                                  #  D = MGA CORRESPONDING TO GIMBAL LOCK = 60 DEGREES
000306:                                                                                                  #  NGL = BUFFER ANGLE (TO AVOID DIVISIONS BY ZERO) = 2 DEGREES
000307:
000308: 22,2370           15667        SD                 DEC      .433015                               #  = SIN(D)                              $2
000309: 22,2371           33555        K3S1               DEC      .86603                                #  = SIN(D)                              $1
000310: 22,2372           67777        K4                 DEC      -.25                                  #  = -COS(D)                             $2
000311: 22,2373           04000        K4SQ               DEC      .125                                  #  = COS(D)COS(D)                        $2
000312: 22,2374           00217        SNGLCD             DEC      .008725                               #  = SIN(NGL)COS(D)                      $2
000313: 22,2375           17773        CNGL               DEC      .499695                               #  = COS(NGL)                            $2
000314: 22,2376           00004        READCDUK           INHINT                                         #  LOAD T(MPAC) WITH THE CURRENT CDU ANGLES
000315: 22,2377           30034                           CA       CDUZ
000316: 22,2400           54156                           TS       MPAC       +2
000317: 22,2401           00006                           EXTEND
000318: 22,2402           30033                           DCA      CDUX
000319: 22,2403           00003                           RELINT
000320: 22,2404           16445                           TCF      TLOAD      +6
000321: 16,2000                                           BANK     16
000322: 22,2000                                           SETLOC   KALCMON2
000323: 22,2000                                           BANK
000324:
000325: 22,2405                                           COUNT*   $$/KALC
000326:
000327: 22,2405           66370        CDUTODCM           AXT,1    SSP                                   #  SUBROUTINE TO COMPUTE DIRECTION COSINE
000328: 22,2406           00003                           OCT      3                                     #  MATRIX RELATING S/C AXES TO STABLE
000329: 22,2407           00051                                    S1                                    #  MEMBER AXES FROM 3 CDU ANGLES IN T(MPAC)
000330: 22,2410           00001                           OCT      1                                     #  SET XR1, S1 AND PD FOR LOOP
000331: 22,2411           00010                           STORE    7
000332: 22,2412           77601                           SETPD
000333: 22,2413           00001                                    0
000334: 22,2414           47133        LOOPSIN            SLOAD*   RTB
000335: 22,2415           00013                                    10D,1
000336: 22,2416           45513                                    CDULOGIC
000337: 22,2417           00013                           STORE    10D                                   #  LOAD PD WITH 0        SIN(PHI)
000338: 22,2420           65356                           SIN      PDDL                                  #               2        COS(PHI)
000339: 22,2421           00013                                    10D                                   #               4        SIN(THETA)
000340: 22,2422           41546                           COS      PUSH                                  #               6        COS(THETA)
000341: 22,2423           71300                           TIX,1    DLOAD                                 #               8        SIN(PSI)
000342: 22,2424           44414                                    LOOPSIN                               #              10        COS(PSI)
000343: 22,2425           00007                                    6
000344: 22,2426           72405                           DMP      SL1
000345: 22,2427           00013                                    10D


000347: 22,2430           10001                           STORE    0,2
000348: 22,2431           77745                           DLOAD
000349: 22,2432           00005                                    4
000350: 22,2433           65205                           DMP      PDDL
000351: 22,2434           00001                                    0                                     #  (PD6 SIN(THETA)SIN(PHI))
000352: 22,2435           00007                                    6
000353: 22,2436           41205                           DMP      DMP
000354: 22,2437           00011                                    8D
000355: 22,2440           00003                                    2
000356: 22,2441           44352                           SL1      BDSU
000357: 22,2442           00015                                    12D
000358: 22,2443           77752                           SL1
000359: 22,2444           10003                           STORE    2,2
000360: 22,2445           77745                           DLOAD
000361: 22,2446           00003                                    2
000362: 22,2447           65205                           DMP      PDDL                                  #  (PD7 COS(PHI)SIN(THETA)) SCALED 4
000363: 22,2450           00005                                    4
000364: 22,2451           00007                                    6
000365: 22,2452           41205                           DMP      DMP
000366: 22,2453           00011                                    8D
000367: 22,2454           00001                                    0
000368: 22,2455           77752                           SL1
000369: 22,2456           72415                           DAD      SL1
000370: 22,2457           00017                                    14D
000371: 22,2460           10005                           STORE    4,2
000372: 22,2461           77745                           DLOAD
000373: 22,2462           00011                                    8D
000374: 22,2463           10007                           STORE    6,2
000375: 22,2464           77745                           DLOAD
000376: 22,2465           00013                                    10D
000377: 22,2466           72405                           DMP      SL1
000378: 22,2467           00003                                    2
000379: 22,2470           10011                           STORE    8D,2
000380: 22,2471           77745                           DLOAD
000381: 22,2472           00013                                    10D
000382: 22,2473           57405                           DMP      DCOMP
000383: 22,2474           00001                                    0
000384: 22,2475           77752                           SL1
000385: 22,2476           10013                           STORE    10D,2
000386: 22,2477           77745                           DLOAD
000387: 22,2500           00005                                    4
000388: 22,2501           57405                           DMP      DCOMP
000389: 22,2502           00013                                    10D
000390: 22,2503           77752                           SL1
000391: 22,2504           10015                           STORE    12D,2
000392: 22,2505           77745                           DLOAD
000393: 22,2506           72405                           DMP      SL1                                   #  (PUSH UP 7)
000394: 22,2507           00011                                    8D
000395: 22,2510           41325                           PDDL     DMP                                   #  (PD7 COS(PHI)SIN(THETA)SIN(PSI)) SCALE 4
000396: 22,2511           00007                                    6


000398: 22,2512           00001                                    0
000399: 22,2513           72415                           DAD      SL1                                   #  (PUSH UP 7)
000400: 22,2514           77626                           STADR                                          #  C7=COS(PHI)SIN(THETA)SIN(PSI)
000401: 22,2515           67760                           STORE    14D,2
000402: 22,2516           77745                           DLOAD
000403: 22,2517           72405                           DMP      SL1                                   #  (PUSH UP 6)
000404: 22,2520           00011                                    8D
000405: 22,2521           41325                           PDDL     DMP                                   #  (PD6 SIN(THETA)SIN(PHI)SIN(PSI)) SCALE 4
000406: 22,2522           00007                                    6
000407: 22,2523           00003                                    2
000408: 22,2524           72425                           DSU      SL1                                   #  (PUSH UP 6)
000409: 22,2525           77626                           STADR
000410: 22,2526           67756                           STORE    16D,2                                 #  C8=-SIN(THETA)SIN(PHI)SIN(PSI)
000411: 22,2527           77616                           RVQ                                            #     +COS(THETA)COS(PHI)
000412: 22,2530                        ENDDCM             EQUALS
000413:
000414: 15,2000                                           BANK     15
000415: 22,2000                                           SETLOC   KALCMON1
000416: 22,2000                                           BANK
000417:
000418:                                                                                                  #  CALCULATION OF THE MATRIX DEL......
000419:
000420:                                                                                                  #        *      *               --T           *
000421:                                                                                                  #        DEL = (IDMATRIX)COS(A)+UU (1-COS(A))+UX SIN(A)          SCALED 1
000422:
000423:                                                                                                  #              -
000424:                                                                                                  #        WHERE U IS A UNIT VECTOR (DP SCALED 2) ALONG THE AXIS OF ROTATION.
000425:                                                                                                  #        A IS THE ANGLE OF ROTATION (DP SCALED 2)
000426:                                                                                                  #                                           -
000427:                                                                                                  #        UPON ENTRY THE STARTING ADDRESS OF U IS COF, AND A IS IN MPAC
000428:
000429: 22,2530                                           COUNT    22/KALC
000430:
000431: 22,2530           41401        DELCOMP            SETPD    PUSH                                  #  MPAC CONTAINS THE ANGLE A
000432: 22,2531           00001                                    0
000433: 22,2532           65356                           SIN      PDDL                                  #  PD0 = SIN(A)
000434: 22,2533           41546                           COS      PUSH                                  #  PD2 = COS(A)
000435: 22,2534           65302                           SR2      PDDL                                  #  PD2 = COS(A)                          $8
000436: 22,2535           41021                           BDSU     BOVB                                  #  PD4 = 1-COS(A)                        $2
000437: 22,2536           15333                                    DPHALF
000438: 22,2537           45712                                    SIGNMPAC
000439:
000440:                                                                                                  #  COMPUTE THE DIAGONAL COMPONENTS OF DEL
000441:
000442: 22,2540           77725                           PDDL
000443: 22,2541           03343                                    COF
000444: 22,2542           41316                           DSQ      DMP
000445: 22,2543           00005                                    4
000446: 22,2544           52415                           DAD      SL3


000448: 22,2545           00003                                    2
000449: 22,2546           77604                           BOVB
000450: 22,2547           45712                                    SIGNMPAC
000451: 22,2550           17426                           STODL    DEL                                   #  UX UX(U-COS(A)) +COS(A)               $1
000452: 22,2551           03345                                    COF        +2
000453: 22,2552           41316                           DSQ      DMP
000454: 22,2553           00005                                    4
000455: 22,2554           52415                           DAD      SL3
000456: 22,2555           00003                                    2
000457: 22,2556           77604                           BOVB
000458: 22,2557           45712                                    SIGNMPAC
000459: 22,2560           17436                           STODL    DEL        +8D                        #  UY UY(1-COS(A)) +COS(A)               $1
000460: 22,2561           03347                                    COF        +4
000461: 22,2562           41316                           DSQ      DMP
000462: 22,2563           00005                                    4
000463: 22,2564           52415                           DAD      SL3
000464: 22,2565           00003                                    2
000465: 22,2566           77604                           BOVB
000466: 22,2567           45712                                    SIGNMPAC
000467: 22,2570           03446                           STORE    DEL        +16D                       #  UZ UZ(1-COS(A)) +COS(A)               $1
000468:
000469:                                                                                                  #  COMPUTE THE OFF DIAGONAL TERMS OF DEL
000470:
000471: 22,2571           41345                           DLOAD    DMP
000472: 22,2572           03343                                    COF
000473: 22,2573           03345                                    COF        +2
000474: 22,2574           72405                           DMP      SL1
000475: 22,2575           00005                                    4
000476: 22,2576           41325                           PDDL     DMP                                   #  D6    UX UY (1-COS A)                 $ 4
000477: 22,2577           03347                                    COF        +4
000478: 22,2600           00001                                    0
000479: 22,2601           43206                           PUSH     DAD                                   #  D8    UZ SIN A                        $ 4
000480: 22,2602           00007                                    6
000481: 22,2603           41112                           SL2      BOVB
000482: 22,2604           45712                                    SIGNMPAC
000483: 22,2605           17434                           STODL    DEL        +6
000484: 22,2606           62421                           BDSU     SL2
000485: 22,2607           77604                           BOVB
000486: 22,2610           45712                                    SIGNMPAC
000487: 22,2611           17430                           STODL    DEL        +2
000488: 22,2612           03343                                    COF
000489: 22,2613           41205                           DMP      DMP
000490: 22,2614           03347                                    COF        +4
000491: 22,2615           00005                                    4
000492: 22,2616           65352                           SL1      PDDL                                  #  D6    UX UZ (1-COS A )                $ 4
000493: 22,2617           03345                                    COF        +2
000494: 22,2620           41405                           DMP      PUSH                                  #  D8    UY SIN(A)
000495: 22,2621           00001                                    0
000496: 22,2622           62415                           DAD      SL2
000497: 22,2623           00007                                    6


000499: 22,2624           77604                           BOVB
000500: 22,2625           45712                                    SIGNMPAC
000501: 22,2626           17432                           STODL    DEL        +4                         #  UX UZ (1-COS(A))+UY SIN(A)
000502: 22,2627           62421                           BDSU     SL2
000503: 22,2630           77604                           BOVB
000504: 22,2631           45712                                    SIGNMPAC
000505: 22,2632           17442                           STODL    DEL        +12D                       #  UX UZ (U-COS(A))-UY SIN(A)
000506: 22,2633           03345                                    COF        +2
000507: 22,2634           41205                           DMP      DMP
000508: 22,2635           03347                                    COF        +4
000509: 22,2636           00005                                    4
000510: 22,2637           65352                           SL1      PDDL                                  #  D6    UY UZ (1-COS(A))                $ 4
000511: 22,2640           03343                                    COF
000512: 22,2641           41405                           DMP      PUSH                                  #  D8    UX SIN(A)
000513: 22,2642           00001                                    0
000514: 22,2643           62415                           DAD      SL2
000515: 22,2644           00007                                    6
000516: 22,2645           77604                           BOVB
000517: 22,2646           45712                                    SIGNMPAC
000518: 22,2647           17444                           STODL    DEL        +14D                       #  UY UZ(1-COS(A)) +UX SIN(A)
000519: 22,2650           62421                           BDSU     SL2
000520: 22,2651           77604                           BOVB
000521: 22,2652           45712                                    SIGNMPAC
000522: 22,2653           03440                           STORE    DEL        +10D                       #  UY UZ(1-COS(A)) -UX SIN(A)
000523: 22,2654           77616                           RVQ
000524:
000525:                                                                                                  #  DIRECTION COSINE MATRIX TO CDU ANGLE ROUTINE
000526:                                                                                                  #  X1 CONTAINS THE COMPLEMENT OF THE STARTING ADDRESS FOR MATRIX (SCALED 2)
000527:                                                                                                  #  LEAVES CDU ANGLES SCALED 2PI IN V(MPAC)
000528:                                                                                                  #  COS(MGA) WILL BE LEFT IN S1 (SCALED 1)
000529:
000530:                                                                                                  #  THE DIRECTION COSINE MATRIX RELATING S/C AXES TO STABLE MEMBER AXES CAN BE WRITTEN AS ***
000531:
000532:                                                                                                  #        C =COS(THETA)COS(PSI)
000533:                                                                                                  #         0
000534:
000535:                                                                                                  #        C =-COS(THETA)SIN(PSI)COS(PHI)+SI (THETA)SIN(PHI)
000536:                                                                                                  #         1
000537:
000538:                                                                                                  #        C =COS(THETA)SIN(PSI)SIN(PHI)+S N(THETA)COS(PHI)
000539:                                                                                                  #         2
000540:
000541:                                                                                                  #        C =SIN(PSI)
000542:                                                                                                  #         3
000543:
000544:                                                                                                  #        C =COS(PSI)COS(PHI)
000545:                                                                                                  #         4
000546:
000547:                                                                                                  #        C =-COS(PSI)SIN(PHI)
000548:                                                                                                  #         5
000549:
000550:                                                                                                  #        C =-SIN(THETA)COS(PSI)
000551:                                                                                                  #         6
000552:
000553:                                                                                                  #        C =SIN(THETA)SIN(PSI)COS(PHI)+COS THETA)SIN(PHI)
000554:                                                                                                  #         7


000556:                                                                                                  #        C =-SIN(THETA)SIN(PSI)SIN(PHI)+CO (THETA)COS(PHI)
000557:                                                                                                  #         8
000558:
000559:                                                                                                  #        WHERE   PHI = OGA
000560:                                                                                                  #                THETA = IGA
000561:                                                                                                  #                PSI = MGA
000562:
000563: 22,2655           67543        DCMTOCDU           DLOAD*   ARCSIN
000564: 22,2656           00007                                    6,1
000565: 22,2657           71406                           PUSH     COS                                   #  PD +0         PSI
000566: 22,2660           41152                           SL1      BOVB
000567: 22,2661           45712                                    SIGNMPAC
000568: 22,2662           00051                           STORE    S1
000569: 22,2663           57543                           DLOAD*   DCOMP
000570: 22,2664           00015                                    12D,1
000571: 22,2665           67471                           DDV      ARCSIN
000572: 22,2666           00051                                    S1
000573: 22,2667           51123                           PDDL*    BPL                                   #  PD +2         THETA
000574: 22,2670           00001                                    0,1                                   #  MUST CHECK THE SIGN OF COS(THETA)
000575: 22,2671           44703                                    OKTHETA                               #  TO DETERMINE THE PROPER QUADRANT
000576: 22,2672           57545                           DLOAD    DCOMP
000577: 22,2673           43244                           BPL      DAD
000578: 22,2674           44700                                    SUHALFA
000579: 22,2675           15333                                    DPHALF
000580: 22,2676           77650                           GOTO
000581: 22,2677           44702                                    CALCPHI
000582: 22,2700           77625        SUHALFA            DSU
000583: 22,2701           15333                                    DPHALF
000584: 22,2702           77606        CALCPHI            PUSH
000585: 22,2703           57543        OKTHETA            DLOAD*   DCOMP
000586: 22,2704           00013                                    10D,1
000587: 22,2705           67471                           DDV      ARCSIN
000588: 22,2706           00051                                    S1
000589: 22,2707           51123                           PDDL*    BPL                                   #  PUSH DOWN PHI
000590: 22,2710           00011                                    8D,1
000591: 22,2711           44723                                    OKPHI
000592: 22,2712           57545                           DLOAD    DCOMP                                 #  PUSH UP PHI
000593: 22,2713           43244                           BPL      DAD
000594: 22,2714           44720                                    SUHALFAP
000595: 22,2715           15333                                    DPHALF
000596: 22,2716           77650                           GOTO
000597: 22,2717           44724                                    VECOFANG
000598: 22,2720           52025        SUHALFAP           DSU      GOTO
000599: 22,2721           15333                                    DPHALF
000600: 22,2722           44724                                    VECOFANG
000601: 22,2723           77745        OKPHI              DLOAD                                          #  PUSH UP PHI
000602: 22,2724           43466        VECOFANG           VDEF     RVQ
000603:


000605:                                                                                                  #  ROUTINE FOR TERMINATING AUTOMATIC MANEUVERS
000606:
000607: 22,2725           00004        NOGOM2             INHINT                                         #  THIS LOCATION ACCESSED BY A BZMF NOGO -2
000608: 22,2726           04662                           TC       BANKCALL
000609: 22,2727           40155                           CADR     ZEROEROR
000610:
000611: 22,2730           00004        NOGO               INHINT
000612: 22,2731           04526                           TC       STOPRATE
000613:
000614:                                                                                                  #  TERMINATE MANEUVER
000615: 22,2732           35016                           CAF      TWO                                   #  NOTE - ALL RETURNS ARE NOW MADE VIA
000616: 22,2733           05245                           TC       WAITLIST                              #  GOODEND
000617: 22,2734  E6,1661                                  EBANK=   BCDU
000618: 22,2734           02006 42066                     2CADR    ENDMANU
000619:
000620: 22,2736           15217                           TCF      ENDOFJOB
000621:

End of include-file ANGLFIND.agc.  Parent file is MAIN.agc


