
Source Code


000002:                                                                                                  ## Copyright:   Public domain.
000003:                                                                                                  ## Filename:    ERASABLE_ASSIGNMENTS.agc
000004:                                                                                                  ## Purpose:     A section of Comanche revision 044.
000005:                                                                                                  ##              It is part of the reconstructed source code for the
000006:                                                                                                  ##              original release of the flight software for the Command
000007:                                                                                                  ##              Module's (CM) Apollo Guidance Computer (AGC) for Apollo 10.
000008:                                                                                                  ##              The code has been recreated from a copy of Comanche 055. It
000009:                                                                                                  ##              has been adapted such that the resulting bugger words
000010:                                                                                                  ##              exactly match those specified for Comanche 44 in NASA drawing
000011:                                                                                                  ##              2021153D, which gives relatively high confidence that the
000012:                                                                                                  ##              reconstruction is correct.
000013:                                                                                                  ## Assembler:   yaYUL
000014:                                                                                                  ## Contact:     Ron Burkey <info@sandroid.org>.
000015:                                                                                                  ## Website:     www.ibiblio.org/apollo/index.html
000016:                                                                                                  ## Mod history: 2020-12-03 MAS  Created from Comanche 51.
000017:                                                                                                  ##              2020-12-05 MAS  Removed definitions of EK2VAL, EK3VAL, and
000018:                                                                                                  ##                              STARSAV3.
000019:


000021:                                                                                                  #  CONVENTIONS AND NOTATIONS UTILIZED FOR ERASABLE ASSIGNMENTS.
000022:
000023:                                                                                                  #        EQUALS  IS USED IN TWO WAYS.  IT IS OFTEN USED TO CHAIN A GROUP
000024:                                                                                                  #                OF ASSIGNMENTS SO THAT THE GROUP MAY BE MOVED WITH THE
000025:                                                                                                  #                CHANGING OF ONLY ONE CARD.  EXAMPLE.
000026:
000027:                                                                                                  #                        X       EQUALS  START
000028:                                                                                                  #                        Y       EQUALS  X       +SIZE.X
000029:                                                                                                  #                        Z       EQUALS  Y       +SIZE.Y
000030:
000031:                                                                                                  #                (X, Y, AND Z ARE CONSECUTIVE AND BEGIN AT START.       )
000032:                                                                                                  #                (SIZE.X AND SIZE.Y ARE THE RESPECTIVE SIZES OF X AND Y,
000033:                                                                                                  #                 USUALLY NUMERIC, IE. 1, 2, 6, 18D ETC.                )
000034:
000035:                                                                                                  #        EQUALS  OFTEN IMPLIES THE SHARING OF REGISTERS (DIFFERENT NAMES
000036:                                                                                                  #                AND DIFFERENT DATA).  EXAMPLE.
000037:
000038:                                                                                                  #                        X       EQUALS  Y
000039:
000040:                                                                                                  #        =       MEANS THAT MULTIPLE NAMES HAVE BEEN GIVEN TO THE SAME DATA.
000041:                                                                                                  #                (THIS IS LOGICAL EQUIVALENCE, NOT SHARING)  EXAMPLE.
000042:
000043:                                                                                                  #                        X       =       Y
000044:
000045:                                                                                                  #        THE SIZE AND UTILIZATION OF AN ERASABLE ARE OFTEN INCLUDED IN
000046:                                                                                                  #        THE COMMENTS IN THE FOLLOWING FORM.  M(SIZE)N.
000047:
000048:                                                                                                  #                M       REFERS TO THE MOBILITY OF THE ASSIGNMENT.
000049:                                                                                                  #                        B       MEANS THAT THE SYMBOL IS REFERENCED BY BASIC
000050:                                                                                                  #                                INSTRUCTIONS AND THUS IS E-BANK SENSITIVE.
000051:                                                                                                  #                        I       MEANS THAT THE SYMBOL IS REFERENCED ONLY BY
000052:                                                                                                  #                                INTERPRETIVE INSTRUCTIONS, AND IS THUS E-BANK
000053:                                                                                                  #                                INSENSITIVE AND MAY APPEAR IN ANY E-BANK.
000054:
000055:                                                                                                  #                SIZE    IS THE NUMBER OF REGISTERS INCLUDED BY THE SYMBOL.
000056:
000057:                                                                                                  #                N       INDICATES THE NATURE OR PERMANENCE OF THE CONTENTS.
000058:                                                                                                  #                        PL      MEANS THAT THE CONTENTS ARE PAD LOADED.
000059:                                                                                                  #                        DSP     MEANS THAT THE REGISTER IS USED FOR A DISPLAY.
000060:                                                                                                  #                        PRM     MEANS THAT THE REGISTER IS PERMANENT, IE. IT
000061:                                                                                                  #                                IS USED DURING THE ENTIRE MISSION FOR ONE
000062:                                                                                                  #                                PURPOSE AND CANNOT BE SHARED.
000063:                                                                                                  #                        TMP     MEANS THAT THE REGISTER IS USED TEMPORARILY OR
000064:                                                                                                  #                                IS A SCRATCH REGISTER FOR THE ROUTINE TO WHICH
000065:                                                                                                  #                                IT IS ASSIGNED.  THAT IS, IT NEED NOT BE SET
000066:                                                                                                  #                                PRIOR TO INVOCATION OF THE ROUTINE NOR DOES IT
000067:                                                                                                  #                                CONTAIN USEFUL OUTPUT TO ANOTHER ROUTINE.  THUS


000069:                                                                                                  #                                IT MAY BE SHARED WITH ANY OTHER ROUTINE WHICH
000070:                                                                                                  #                                IS NOT ACTIVE IN PARALLEL.
000071:                                                                                                  #                        IN      MEANS INPUT TO THE ROUTINE AND IT IS PROBABLY
000072:                                                                                                  #                                TEMPORARY FOR A HIGHER-LEVEL ROUTINE/PROGRAM.
000073:                                                                                                  #                        OUT     MEANS OUTPUT FROM THE ROUTINE, PROBABLY
000074:                                                                                                  #                                TEMPORARY FOR A HIGHER-LEVEL ROUTINE/PROGRAM.
000075:


000077:
000078:                                                                                                  #  SPECIAL REGISTERS.
000079:
000080: 37,2001                        A                  EQUALS   0
000081: 37,2001                        L                  EQUALS   1                                     #  L AND Q ARE BOTH CHANNELS AND REGISTERS.
000082: 37,2001                        Q                  EQUALS   2
000083: 37,2001                        EBANK              EQUALS   3
000084: 37,2001                        FBANK              EQUALS   4
000085: 37,2001                        Z                  EQUALS   5                                     #  ADJACENT TO FBANK AND BBANK FOR DXCH Z
000086: 37,2001                        BBANK              EQUALS   6                                     #  (DTCB) AND DXCH FBANK (DTCF).
000087:                                                                                                  #  REGISTER 7 IS A ZERO-SOURCE, USED BY ZL.
000088:
000089: 37,2001                        ARUPT              EQUALS   10                                    #  INTERRUPT STORAGE.
000090: 37,2001                        LRUPT              EQUALS   11
000091: 37,2001                        QRUPT              EQUALS   12
000092: 37,2001                        SAMPTIME           EQUALS   13                                    #  SAMPLED TIME 1 & 2.
000093: 37,2001                        ZRUPT              EQUALS   15                                    #  (13 AND 14 ARE SPARES.)
000094: 37,2001                        BANKRUPT           EQUALS   16                                    #  USUALLY HOLDS FBANK OR BBANK.
000095: 37,2001                        BRUPT              EQUALS   17                                    #  RESUME ADDRESS AS WELL.
000096:
000097: 37,2001                        CYR                EQUALS   20
000098: 37,2001                        SR                 EQUALS   21
000099: 37,2001                        CYL                EQUALS   22
000100: 37,2001                        EDOP               EQUALS   23                                    #  EDITS INTERPRETIVE OPERATION CODE PAIRS.
000101:
000102: 37,2001                        TIME2              EQUALS   24
000103: 37,2001                        TIME1              EQUALS   25
000104: 37,2001                        TIME3              EQUALS   26
000105: 37,2001                        TIME4              EQUALS   27
000106: 37,2001                        TIME5              EQUALS   30
000107: 37,2001                        TIME6              EQUALS   31
000108: 37,2001                        CDUX               EQUALS   32
000109: 37,2001                        CDUY               EQUALS   33
000110: 37,2001                        CDUZ               EQUALS   34
000111: 37,2001                        CDUT               EQUALS   35                                    #  OPTICS TRUNNION CDU (WAS OPTY).
000112: 37,2001  0000035               OPTY               =        CDUT
000113: 37,2001                        CDUS               EQUALS   36                                    #  OPTICS SHAFT CDU (WAS OPTX).
000114: 37,2001  0000036               OPTX               =        CDUS
000115: 37,2001                        PIPAX              EQUALS   37
000116: 37,2001                        PIPAY              EQUALS   40
000117: 37,2001                        PIPAZ              EQUALS   41
000118: 37,2001                        BMAGX              EQUALS   42
000119: 37,2001                        BMAGY              EQUALS   43
000120: 37,2001                        BMAGZ              EQUALS   44
000121: 37,2001                        INLINK             EQUALS   45
000122: 37,2001                        RNRAD              EQUALS   46
000123: 37,2001                        GYROCTR            EQUALS   47
000124: 37,2001                        GYROCMD            EQUALS   47
000125: 37,2001                        CDUXCMD            EQUALS   50
000126: 37,2001                        CDUYCMD            EQUALS   51
000127:


000129:
000130: 37,2001                        CDUZCMD            EQUALS   52
000131: 37,2001                        CDUTCMD            EQUALS   53                                    #  OPTICS TRUNNION COMMAND (WAS OPTYCMD).
000132: 37,2001  0000053               OPTYCMD            =        CDUTCMD
000133: 37,2001  0000053               TVCYAW             EQUALS   CDUTCMD                               #  SPS YAW COMMAND IN TVC MODE.
000134: 37,2001                        CDUSCMD            EQUALS   54                                    #  OPTICS SHAFT COMMAND (WAS OPTXCMD).
000135: 37,2001  0000054               TVCPITCH           EQUALS   CDUSCMD                               #  SPS PITCH COMMAND IN TVC MODE.
000136: 37,2001  0000054               OPTXCMD            =        CDUSCMD
000137: 37,2001                        EMSD               EQUALS   55
000138: 37,2001                        THRUST             EQUALS   55
000139: 37,2001                        LEMONM             EQUALS   56
000140: 37,2001                        LOCALARM           EQUALS   57
000141: 37,2001                        BANKALRM           EQUALS   60
000142:
000143:                                                                                                  #  INTERPRETIVE REGISTERS ADDRESSED RELATIVE TO VAC AREA.
000144:
000145: 37,2001                        LVSQUARE           EQUALS   34D                                   #  SQUARE OF VECTOR INPUT TO ABVAL AND UNIT
000146: 37,2001                        LV                 EQUALS   36D                                   #  LENGTH OF VECTOR INPUT TO UNIT.
000147: 37,2001                        X1                 EQUALS   38D                                   #  INTERPRETIVE SPECIAL REGISTERS RELATIVE
000148: 37,2001                        X2                 EQUALS   39D                                   #  TO THE WORK AREA.
000149: 37,2001                        S1                 EQUALS   40D
000150: 37,2001                        S2                 EQUALS   41D
000151: 37,2001                        QPRET              EQUALS   42D
000152:


000154:
000155:                                                                                                  #  INPUT/OUTPUT CHANNELS
000156:
000157:                                                                                                  #  *** CHANNEL ZERO IS TO BE USED IN AN INDEXED OPERATION ONLY. ***
000158: 37,2001  0000001               LCHAN              EQUALS   L
000159: 37,2001  0000002               QCHAN              EQUALS   Q
000160: 37,2001                        HISCALAR           EQUALS   3
000161: 37,2001                        LOSCALAR           EQUALS   4
000162: 37,2001                        PYJETS             EQUALS   5
000163: 37,2001                        ROLLJETS           EQUALS   6
000164: 37,2001                        SUPERBNK           EQUALS   7
000165: 37,2001                        OUT0               EQUALS   10
000166: 37,2001                        DSALMOUT           EQUALS   11
000167: 37,2001                        CHAN12             EQUALS   12
000168: 37,2001                        CHAN13             EQUALS   13
000169: 37,2001                        CHAN14             EQUALS   14
000170: 37,2001                        MNKEYIN            EQUALS   15
000171: 37,2001                        NAVKEYIN           EQUALS   16
000172: 37,2001                        CHAN30             EQUALS   30
000173: 37,2001                        CHAN31             EQUALS   31
000174: 37,2001                        CHAN32             EQUALS   32
000175: 37,2001                        CHAN33             EQUALS   33
000176: 37,2001                        DNTM1              EQUALS   34
000177: 37,2001                        DNTM2              EQUALS   35
000178:
000179:                                                                                                  #  END OF CHANNEL ASSIGNMENTS
000180:


000182:
000183:                                                                                                  #  FLAGWORDS
000184:
000185:                                                                                                  #  FLAGWRD0      STATE +0        (000-014)
000186:                                                                                                  #  FLAGWRD1      STATE +1        (015-029)
000187:                                                                                                  #  FLAGWRD2      STATE +2        (030-044)
000188:                                                                                                  #  FLAGWRD3      STATE +3        (045-059)
000189:                                                                                                  #  FLAGWRD4      STATE +4        (060-074)
000190:                                                                                                  #  FLAGWRD5      STATE +5        (075-089)
000191:                                                                                                  #  FLAGWRD6      STATE +6        (090-104)
000192:                                                                                                  #  FLAGWRD7      STATE +7        (105-119)
000193:                                                                                                  #  FLAGWRD8      STATE +8D       (120-134)
000194:                                                                                                  #  FLAGWRD9      STATE +9D       (135-149)
000195:
000196:                                                                                                  #        SORTED LIST OF
000197:                                                                                                  #        INTERPITIVE SWITCH BIT ASSIGNMENTS
000198:
000199:                                                                                                  #  INTERPRETIVE SWITCH BIT ASSIGNMENTS
000200:
000201:                                                                                                  #  FLAGWORD      DEC NUM         BIT + FLAG      EQUIVALENT FLAGWORDS
000202:
000203:                                                                                                  #  22DSPFLG      032D            BIT 13 FLAG 2
000204:                                                                                                  #  360SW         134D            BIT 1 FLAG 8
000205:                                                                                                  #  3AXISFLG      084D            BIT 6 FLAG 5
000206:                                                                                                  #  ADVTRK        125D            BIT 10 FLAG 8
000207:                                                                                                  #  AMOONFLG      13D             BIT 2 FLAG 0
000208:                                                                                                  #  APSESW        130D            BIT 5 FLAG 8
000209:                                                                                                  #  ASTNFLAG      108D            BIT 12 FLAG 7
000210:                                                                                                  #  ATTCHFLG      118D            BIT 2 FLAG 7
000211:                                                                                                  #  AVEGFLAG      029D            BIT 1 FLAG 1
000212:                                                                                                  #  AVEMIDSW      149D            BIT 1 FLAG 9
000213:                                                                                                  #  AVFLAG        040D            BIT 5 FLAG 2
000214:                                                                                                  #  CALCMAN2      043D            BIT 2 FLAG 2
000215:                                                                                                  #  CMDAPARM      093D            BIT 12 FLAG 6
000216:                                                                                                  #  CMOONFLG      123D            BIT 12 FLAG 8
000217:                                                                                                  #  CM/DSTBY      103D            BIT 2 FLAG 6
000218:                                                                                                  #  COGAFLAG      131D            BIT 4 FLAG 8
000219:                                                                                                  #  COMPUTER      082D            BIT 8 FLAG 5
000220:                                                                                                  #  CPHIFLAG      000D            BIT 15 FLAG 0
000221:                                                                                                  #  CULTFLAG      053D            BIT 7 FLAG 3
000222:                                                                                                  #  D6OR9FLG      058D            BIT 2 FLAG 3
000223:                                                                                                  #  DAPBIT1       090D            BIT 15 FLAG 6
000224:                                                                                                  #  DAPBIT2       091D            BIT 14 FLAG 6
000225:                                                                                                  #  DIM0FLAG      059D            BIT 1 FLAG 3
000226:                                                                                                  #  DMENFLG       081D            BIT 9 FLAG 5
000227:                                                                                                  #  DRIFTFLG      030D            BIT 15 FLAG 2
000228:                                                                                                  #  DSKYFLAG      075D            BIT 15 FLAG 5
000229:                                                                                                  #  EGSW          97D             BIT 8 FLAG 6     KNOWNFLG R57FLAG
000230:


000232:
000233:                                                                                                  #  ENG1FLAG      018D            BIT 12 FLAG 1
000234:                                                                                                  #  ENG2FLAG      019D            BIT 11 FLAG 1
000235:                                                                                                  #  ENGONFLG      083D            BIT 7 FLAG 5
000236:                                                                                                  #  ERADFLAG      017D            BIT 13 FLAG 1
000237:                                                                                                  #  ETPIFLAG      038D            BIT 7 FLAG 2    FIRSTFLG OPTNSW
000238:                                                                                                  #  F2RTE         10D             BIT 5 FLAG 0
000239:                                                                                                  #  FINALFLG      039D            BIT 6 FLAG 2
000240:                                                                                                  #  FIRSTFLG      38D             BIT 7 FLAG 2    ETPIFLAG OPTNSW
000241:                                                                                                  #  FREEFLAG      012D            BIT 3 FLAG 0
000242:                                                                                                  #  GAMDIFSW      094D            BIT 11 FLAG 6
000243:                                                                                                  #  GLOKFAIL      046D            BIT 14 FLAG 3
000244:                                                                                                  #  GONEBY        112D            BIT 8 FLAG 7
000245:                                                                                                  #  GONEPAST      095D            BIT 10 FLAG 6
000246:                                                                                                  #  GRRBKFLG      085D            BIT 5 FLAG 5
000247:                                                                                                  #  GUESSW        028D            BIT 2 FLAG 1
000248:                                                                                                  #  GYMDIFSW      104D            BIT 1 FLAG 6
000249:                                                                                                  #  .05GSW        102D            BIT 3 FLAG 6
000250:                                                                                                  #  HIND          099D            BIT 6 FLAG 6
000251:                                                                                                  #  IDLEFAIL      024D            BIT 6 FLAG 1
000252:                                                                                                  #  IDLEFLAG      113D            BIT 7 FLAG 7
000253:                                                                                                  #  IGNFLAG       107D            BIT 13 FLAG 7
000254:                                                                                                  #  IMPULSW       036D            BIT 9 FLAG 2
000255:                                                                                                  #  IMUSE         007D            BIT 8 FLAG 0
000256:                                                                                                  #  INCORFLG      079D            BIT 11 FLAG 5
000257:                                                                                                  #  INFINFLG      128D            BIT 7 FLAG 8
000258:                                                                                                  #  INRLSW        100D            BIT 5 FLAG 6
000259:                                                                                                  #  INTFLAG       151D            BIT 14 FLAG 10
000260:                                                                                                  #  INTYPFLG      056D            BIT 4 FLAG 3
000261:                                                                                                  #  ITSWICH       106D            BIT 14 FLAG 7
000262:                                                                                                  #  KFLAG         014D            BIT 1 FLAG 0
000263:                                                                                                  #  KNOWNFLG      097D            BIT 8 FLAG 6    EGSW R57FLAG
000264:                                                                                                  #  LATSW         101D            BIT 4 FLAG 6
000265:                                                                                                  #  LMOONFLG      124D            BIT 11 FLAG 8
000266:                                                                                                  #  LUNAFLAG      048D            BIT 12 FLAG 3
000267:                                                                                                  #  MAXDBFLG      138D            BIT 12 FLAG 9
000268:                                                                                                  #  MGLVFLAG      088D            BIT 2 FLAG 5
000269:                                                                                                  #  MID1FLAG      147D            BIT 3 FLAG 9
000270:                                                                                                  #  MIDAVFLG      148D            BIT 2 FLAG 9
000271:                                                                                                  #  MIDFLAG       002D            BIT 13 FLAG 0
000272:                                                                                                  #  MKOVFLAG      072D            BIT 3 FLAG 4
000273:                                                                                                  #  MOONFLAG      003D            BIT 12 FLAG 0
000274:                                                                                                  #  MRKIDFLG      060D            BIT 15 FLAG 4
000275:                                                                                                  #  MRKNVFLG      066D            BIT 9 FLAG 4
000276:                                                                                                  #  MRUPTFLG      070D            BIT 5 FLAG 4
000277:                                                                                                  #  MWAITFLG      064D            BIT 11 FLAG 4
000278:                                                                                                  #  N22ORN17      144D            BIT 6 FLAG 9
000279:                                                                                                  #  NEEDLFLG      006D            BIT 9 FLAG 0
000280:                                                                                                  #  NEWIFLG       122D            BIT 13 FLAG 8
000281:                                                                                                  #  NJETSFLG      015D            BIT 15 FLAG 1
000282:                                                                                                  #  NODOFLAG      044D            BIT 1 FLAG 2
000283:


000285:
000286:                                                                                                  #  NODOP01       018D            BIT 12 FLAG 1
000287:                                                                                                  #  NORFHOR       004D            BIT 11 FLAG 0
000288:                                                                                                  #  NORMSW        110D            BIT 10 FLAG 7
000289:                                                                                                  #  NOSWITCH      098D            BIT 7 FLAG 6
000290:                                                                                                  #  NRMIDFLG      062D            BIT 13 FLAG 4
000291:                                                                                                  #  NRMNVFLG      067D            BIT 8 FLAG 4
000292:                                                                                                  #  NRUPTFLG      071D            BIT 4 FLAG 4
000293:                                                                                                  #  NWAITFLG      065D            BIT 10 FLAG 4
000294:                                                                                                  #  OPTNSW        038D            BIT 7 FLAG 2    ETPIFLAG FIRSTFLG
000295:                                                                                                  #  ORBWFLAG      054D            BIT 6 FLAG 3
000296:                                                                                                  #  ORDERSW       129D            BIT 6 FLAG 8
000297:                                                                                                  #  P21FLAG       033D            BIT 12 FLAG 2
000298:                                                                                                  #  P22MKFLG      49D             BIT 11 FLAG 3
000299:                                                                                                  #  P39/79SW      126D            BIT 9 FLAG 8
000300:                                                                                                  #  PDSPFLAG      063D            BIT 12 FLAG 4
000301:                                                                                                  #  PFRATFLG      041D            BIT 4 FLAG 2
000302:                                                                                                  #  PINBRFLG      069D            BIT 6 FLAG 4
000303:                                                                                                  #  PRECIFLG      052D            BIT 8 FLAG 3
000304:                                                                                                  #  PRFTRKAT      080D            BIT 10 FLAG 5
000305:                                                                                                  #  PRIODFLG      061D            BIT 14 FLAG 4
000306:                                                                                                  #  PRONVFLG      068D            BIT 7 FLAG 4
000307:                                                                                                  #  QUITFLAG      145D            BIT 5 FLAG 9
000308:                                                                                                  #  R21MARK       031D            BIT 14 FLAG 2
000309:                                                                                                  #  R22CAFLG      143D            BIT 7 FLAG 9
000310:                                                                                                  #  R23FLG        021D            BIT 9 FLAG 1
000311:                                                                                                  #  R31FLAG       146D            BIT 4 FLAG 9
000312:                                                                                                  #  R53FLAG       009D            BIT 6 FLAG 0
000313:                                                                                                  #  R57FLAG       097D            BIT 8 FLAG 6    KNOWNFLG EGSW
000314:                                                                                                  #  R60FLAG       086D            BIT 4 FLAG 5
000315:                                                                                                  #  REFSMFLG      047D            BIT 13 FLAG 3
000316:                                                                                                  #  REINTFLG      158D            BIT 7 FLAG 10
000317:                                                                                                  #  RELVELSW      096D            BIT 9 FLAG 6
000318:                                                                                                  #  RENDWFLG      089D            BIT 1 FLAG 5
000319:                                                                                                  #  RETROFLG      76D             BIT 14 FLAG 5
000320:                                                                                                  #  RNDVZFLG      008D            BIT 7 FLAG 0
000321:                                                                                                  #  RPQFLAG       120D            BIT 15 FLAG 8
000322:                                                                                                  #  RVSW          111D            BIT 9 FLAG 7
000323:                                                                                                  #  SAVECFLG      140D            BIT 10 FLAG 9
000324:                                                                                                  #  SKIPVHF       035D            BIT 10 FLAG 2
000325:                                                                                                  #  SLOPESW       027D            BIT 3 FLAG 1
000326:                                                                                                  #  SLOWFLG       77D             BIT 13 FLAG 5
000327:                                                                                                  #  SOLNSW        087D            BIT 3 FLAG 5
000328:                                                                                                  #  SOURCFLG      142D            BIT 8 FLAG 9
000329:                                                                                                  #  STATEFLG      055D            BIT 5 FLAG 3
000330:                                                                                                  #  STEERSW       034D            BIT 11 FLAG 2
000331:                                                                                                  #  STIKFLAG      016D            BIT 14 FLAG 1
000332:                                                                                                  #  STRULLSW      92D             BIT 13 FLAG 6
000333:                                                                                                  #  SURFFLAG      127D            BIT 8 FLAG 8
000334:                                                                                                  #  SWTOVER       135D            BIT 15 FLAG 9
000335:                                                                                                  #  TARG1FLG      020D            BIT 10 FLAG 1
000336:


000338:
000339:                                                                                                  #  TARG2FLG      021D            BIT 9 FLAG 1
000340:                                                                                                  #  TERMIFLG      105D            BIT 15 FLAG 7
000341:                                                                                                  #  TFFSW         119D            BIT 1 FLAG 7
000342:                                                                                                  #  TIMRFLAG      109D            BIT 11 FLAG 7
000343:                                                                                                  #  TRACKFLG      025D            BIT 5 FLAG 1
000344:                                                                                                  #  TRM03FLG      26D             BIT 4 FLAG 1
000345:                                                                                                  #  TRUNFLAG      011D            BIT 4 FLAG 0
000346:                                                                                                  #  UPDATFLG      023D            BIT 7 FLAG 1
000347:                                                                                                  #  UPLOCKFL      116D            BIT 4 FLAG 7
000348:                                                                                                  #  V37FLAG       114D            BIT 6 FLAG 7
000349:                                                                                                  #  V59FLAG       078D            BIT 12 FLAG 5
000350:                                                                                                  #  V82EMFLG      137D            BIT 13 FLAG 9
000351:                                                                                                  #  V94FLAG       139D            BIT 11 FLAG 9
000352:                                                                                                  #  V96ONFLG      132D            BIT 3 FLAG 8
000353:                                                                                                  #  VEHUPFLG      022D            BIT 8 FLAG 1
000354:                                                                                                  #  VERIFLAG      117D            BIT 3 FLAG 7
000355:                                                                                                  #  VFLAG         050D            BIT 10 FLAG 3
000356:                                                                                                  #  VHFRFLAG      141D            BIT 9 FLAG 9
000357:                                                                                                  #  VINTFLAG      057D            BIT 3 FLAG 3
000358:                                                                                                  #  XDELVFLG      037D            BIT 8 FLAG 2
000359:                                                                                                  #  XDSPFLAG      074D            BIT 1 FLAG 4
000360:


000362:
000363:                                                                                                  #  INTERPRETIVE SWITCH BIT ASSIGNMENTS
000364: 37,2001     0074               FLAGWRD0           =        STATE      +0                         #  (000-014)
000365:                                                                                                  #  (SET)                 (RESET)
000366:                                                                                                  #  BIT 15 FLAG 0
000367: 37,2001                        CPHIFLAG           =        000D                                  #  OUTPUT OF CALCGA IS   OUTPUT OF CALCGA IS
000368:                                                                                                  #  CPHIX                 THETAD
000369: 37,2001     5001               CPHIBIT            =        BIT15
000370:
000371:                                                                                                  #  BIT 14 FLAG 0
000372: 37,2001                        JSWITCH            =        001D                                  #  INTEGRATION OF W      INTEGRATION OF STATE
000373:                                                                                                  #  MATRIX                VECTOR
000374: 37,2001     5002               JSWCHBIT           =        BIT14
000375:
000376:                                                                                                  #  BIT 13 FLAG 0
000377: 37,2001                        MIDFLAG            =        002D                                  #  INTEGRATION WITH      INTEGRATION WITHOUT
000378:                                                                                                  #  SOLAR PERTURBATIONS   SOLAR PERTURBATIONS
000379:
000380: 37,2001     5003               MIDFLBIT           =        BIT13
000381:
000382:                                                                                                  #  BIT 12 FLAG 0
000383: 37,2001                        MOONFLAG           =        003D                                  #  MOON IS SPHERE OF     EARTH IS SPHERE OF
000384:                                                                                                  #  INFLUENCE             INFLUENCE
000385:
000386: 37,2001     5004               MOONBIT            =        BIT12
000387:
000388:                                                                                                  #  BIT 11 FLAG 0
000389: 37,2001                        NORFHOR            =        004D                                  #  FAR HORIZON           NEAR HORIZON
000390:
000391: 37,2001     5005               NORFBIT            =        BIT11
000392:
000393:                                                                                                  #  BIT 10 FLAG 0
000394: 37,2001                        ZMEASURE           =        005D                                  #  MEASUREMENT PLANET    MEASUREMENT PLANET
000395:                                                                                                  #  AND PRIMARY PLANET    AND PRIMARY PLANET
000396:                                                                                                  #  DIFFERENT             SAME
000397:
000398: 37,2001     5006               ZMEASBIT           =        BIT10
000399:
000400:                                                                                                  #  BIT 9 FLAG 0
000401: 37,2001                        NEEDLFLG           =        006D                                  #  TOTAL ATTIDUDE        A/P FOLLOWING ERROR
000402:                                                                                                  #  ERROR DISPLAYED       DISPLAYED
000403:
000404: 37,2001     5007               NEEDLBIT           =        BIT9
000405:
000406:                                                                                                  #  BIT 8 FLAG 0
000407: 37,2001                        IMUSE              =        007D                                  #  IMU IN USE            IMU NOT IN USE
000408:


000410:
000411: 37,2001     5010               IMUSEBIT           =        BIT8
000412:
000413:                                                                                                  #  BIT 7 FLAG 0
000414: 37,2001                        RNDVZFLG           =        008D                                  #  P20 RUNNING           P20 NOT RUNNING
000415:
000416: 37,2001     5011               RNDVZBIT           =        BIT7
000417:
000418:                                                                                                  #  BIT 6 FLAG 0
000419: 37,2001                        R53FLAG            =        009D                                  #  V51 INITIATED         V51 NOT INITIATED
000420:
000421: 37,2001     5010               R53FLBIT           =        BIT8
000422:
000423:                                                                                                  #  BIT 5 FLAG 0
000424: 37,2001                        F2RTE              =        010D                                  #  IN TIME CRITICAL      NOT IN TIME CRITICAL
000425:                                                                                                  #  MODE                  MODE
000426:
000427: 37,2001     5013               F2RTEBIT           =        BIT5
000428:
000429:                                                                                                  #  BIT 4 FLAG 0
000430: 37,2001                        TRUNFLAG           =        011D                                  #  DRIVING OF TRUNNION   DRIVING OF TRUNNION
000431:                                                                                                  #  ALLOWED               NOT ALLOWED
000432:
000433: 37,2001     5014               TRUNBIT            =        BIT4
000434:
000435:                                                                                                  #  BIT 3 FLAG 0
000436: 37,2001                        FREEFLAG           =        012D                                  #  (TEMPORARY FLAG USED IN MANY ROUTINES)
000437:
000438: 37,2001     5015               FREEFBIT           =        BIT3
000439:
000440:                                                                                                  #  BIT 2 FLAG 0
000441: 37,2001                        AMOONFLG           =        13D                                   #  STATE VECTOR IN       STATE VECTOR IN
000442: 37,2001     5016               AMOONBIT           =        BIT2                                  #  LUNAR SPHERE AT       EARTH SPHERE AT
000443:                                                                                                  #  MIDTOAVE              MIDTOAVE
000444:
000445:                                                                                                  #  BIT 1 FLAG 0
000446: 37,2001                        KFLAG              =        014D                                  #  SEARCH SECTOR LESS    SEARCH SECTOR MORE
000447:                                                                                                  #  THAN 180 DEGREES      THAN 180 DEGREES
000448:
000449: 37,2001     5017               KBIT               =        BIT1
000450:
000451: 37,2001     0075               FLAGWRD1           =        STATE      +1                         #  (015-029)
000452:                                                                                                  #  (SET)                 (RESET)
000453:
000454:                                                                                                  #  BIT 15 FLAG 1
000455: 37,2001                        NJETSFLG           =        015D                                  #  TWO JET RCS BURN      FOUR JET RCS BURN
000456:
000457: 37,2001     5001               NJETSBIT           =        BIT15
000458:


000460:
000461:                                                                                                  #  BIT 14 FLAG 1
000462: 37,2001                        STIKFLAG           =        016D                                  #  RHC CONTROL           CMC CONTROL
000463: 37,2001     5002               STIKBIT            =        BIT14
000464:
000465:                                                                                                  #  BIT 13 FLAG 1
000466: 37,2001                        ERADFLAG           =        017D                                  #  EARTH, COMPUTE        EARTH, USE FIXED
000467:                                                                                                  #    FISCHER ELLIPSOID     RADIUS
000468:                                                                                                  #    RADIUS
000469:                                                                                                  #  MOON, USE FIXED       MOON, USE RLS FOR
000470:                                                                                                  #    RADIUS                LUNAR RADIUS
000471:
000472: 37,2001     5003               ERADFBIT           =        BIT13
000473:
000474:                                                                                                  #  BIT 12 FLAG 1
000475: 37,2001                        NODOP01            =        018D                                  #  P01 NOT ALLOWED       P01 ALLOWED
000476: 37,2001     5004               NOP01BIT           =        BIT12
000477:
000478:                                                                                                  #  BIT 11 FLAG 1
000479: 37,2001                        ENG2FLAG           =        019D                                  #  RCS BURN              SPS BURN
000480:
000481: 37,2001     5005               ENG2BIT            =        BIT11
000482:
000483:                                                                                                  #  BIT 10 FLAG 1
000484: 37,2001                        TARG1FLG           =        020D                                  #  SIGHTING LEM          NOT SIGHTING LEM
000485:
000486: 37,2001     5006               TARG1BIT           =        BIT10
000487:
000488:                                                                                                  #  BIT 9 FLAG 1
000489: 37,2001                        TARG2FLG           =        021D                                  #  SIGHTING LANDMARK     SIGHTING STAR
000490:
000491: 37,2001     5007               TARG2BIT           =        BIT9
000492:
000493:                                                                                                  #  BIT 9 FLAG 1
000494: 37,2001                        R23FLG             =        021D                                  #  R23 MARKING           R21 MARKING
000495:
000496: 37,2001     5007               R23BIT             =        BIT9
000497:
000498:                                                                                                  #  BIT 8 FLAG 1
000499: 37,2001                        VEHUPFLG           =        022D                                  #  CSM STATE VECTOR      LEM STATE VECTOR
000500:                                                                                                  #  BEING UPDATED         BEING UPDATED
000501:
000502: 37,2001     5010               VEHUPBIT           =        BIT8
000503:
000504:                                                                                                  #  BIT 7 FLAG 1
000505: 37,2001                        UPDATFLG           =        023D                                  #  UPDATING BY MARKS     UPDATING BY MARKS


000507:                                                                                                  #  ALLOWED               NOT ALLOWED
000508:
000509: 37,2001     5011               UPDATBIT           =        BIT7
000510:
000511:                                                                                                  #  BIT 6 FLAG 1
000512: 37,2001                        IDLEFAIL           =        024D                                  #  INHIBIT R41           ENABLE R41 (ENGFAIL)
000513:
000514: 37,2001     5012               IDLEBIT            =        BIT6
000515:
000516:                                                                                                  #  BIT 5 FLAG 1
000517: 37,2001                        TRACKFLG           =        025D                                  #  TRACKING ALLOWED      TRACKING NOT ALLOWED
000518:
000519: 37,2001     5013               TRACKBIT           =        BIT5
000520:
000521:                                                                                                  #  BIT 4 FLAG 1
000522: 37,2001                        TRM03FLG           =        026D                                  #  REQUEST TO            NO REQUEST TO
000523:                                                                                                  #  TERMINATE P03 HAS     TERMINATE P03 HAS
000524:                                                                                                  #  BEEN ENTERED          BEEN ENTERED
000525:
000526: 37,2001     5014               TRM03BIT           =        BIT4
000527:
000528:                                                                                                  #  BIT 3 FLAG 1
000529: 37,2001                        SLOPESW            =        027D                                  #  ITERATE WITH BIAS     ITERATE WITH REGULA
000530:                                                                                                  #  METHOD IN ITERATOR    FALSI METHOD IN
000531:                                                                                                  #                        ITERATOR
000532:
000533: 37,2001     5015               SLOPEBIT           =        BIT3
000534:
000535:                                                                                                  #  BIT 2 FLAG 1
000536: 37,2001                        GUESSW             =        028D                                  #  NO STARTING VALUE     STARTING VALUE FOR
000537:                                                                                                  #  FOR ITERATION         ITERATION EXISTS
000538:
000539: 37,2001     5016               GUESSBIT           =        BIT2
000540:
000541:                                                                                                  #  BIT 1 FLAG 1
000542: 37,2001                        AVEGFLAG           =        029D                                  #  AVERAGEG (SERVICER)   AVERAGEG (SERVICER)
000543:                                                                                                  #  TO CONTINUE           TO CEASE
000544:
000545: 37,2001     5017               AVEGBIT            =        BIT1
000546:
000547: 37,2001     0076               FLAGWRD2           =        STATE      +2                         #  (030-044)
000548:
000549:                                                                                                  #  (SET)                 (RESET)
000550:
000551:                                                                                                  #  BIT 15 FLAG 2
000552: 37,2001                        DRIFTFLG           =        030D                                  #  T3RUPT CALLS GYRO     T3RUPT DOES NO GYRO
000553:                                                                                                  #  COMPENSATION          COMPENSATION
000554:
000555: 37,2001     5001               DRFTBIT            =        BIT15
000556:


000558:
000559:                                                                                                  #  BIT 14 FLAG 2
000560: 37,2001                        R21MARK            =        031D                                  #  OPTION ONE FOR        OPTION TWO FOR
000561:                                                                                                  #  MARKRUPT              MARKRUPT
000562:
000563: 37,2001     5002               R21BIT             =        BIT14
000564:
000565:                                                                                                  #  BIT 13 FLAG 2
000566: 37,2001                        22DSPFLG           =        032D                                  #  DISPLAY DR,DV         DO NOT DISPLAY DR,DV
000567:
000568: 37,2001     5003               22DSPBIT           =        BIT13
000569:
000570:                                                                                                  #  BIT 12 FLAG 2
000571: 37,2001                        P21FLAG            =        033D                                  #  SUCCEEDING PASS       1ST PASS THRU P21,
000572:                                                                                                  #  THRU P21, USE BASE    CALCULATE BASE
000573: 37,2001     5004               P21BIT             =        BIT12                                 #  VECTOR FOR CALC.      VECTOR
000574:
000575: 37,2001                        STEERSW            =        034D                                  #  STEERING TO BE DONE   STEERING OMITTED
000576:
000577: 37,2001     5005               STEERBIT           =        BIT11
000578:
000579:                                                                                                  #  BIT 10 FLAG 2
000580: 37,2001                        SKIPVHF            =        035D                                  #  DISREGARD RADAR       RADAR READ TO
000581:                                                                                                  #  READ BECAUSE OF       PROCEED NORMALLY
000582: 37,2001     5006               SKIPVBIT           =        BIT10                                 #  SFTWRE OR HDWRE
000583:                                                                                                  #  RESTART
000584:
000585:                                                                                                  #  BIT 9 FLAG 2
000586: 37,2001                        IMPULSW            =        036D                                  #  MINIMUM IMPULSE       STEERING BURN (NO
000587:                                                                                                  #  BURN (CUTOFF TIME     CUTOFF TIME YET
000588:                                                                                                  #  SPECIFIED)            AVAILABLE)
000589:
000590: 37,2001     5007               IMPULBIT           =        BIT9
000591:
000592:                                                                                                  #  BIT 8 FLAG 2
000593: 37,2001                        XDELVFLG           =        037D                                  #  EXTERNAL DELTAV VG    LAMBERT (AIMPOINT)
000594:                                                                                                  #  COMPUTATION           VG COMPUTATION
000595:
000596: 37,2001     5010               XDELVBIT           =        BIT8
000597:
000598:                                                                                                  #  BIT 7 FLAG 2
000599: 37,2001                        ETPIFLAG           =        038D                                  #  ELEVATION ANGLE       TPI TIME SUPPLIED
000600:                                                                                                  #  SUPPLIED FOR P34,74   FOR P34,74
000601:
000602:                                                                                                  #  BIT 7 FLAG 2
000603: 37,2001  0000046               FIRSTFLG           =        ETPIFLAG                              #  FIRST PASS            SUCCEEDING PASS THRU
000604:                                                                                                  #  THRU S40.9            S40.9
000605:
000606: 37,2001     5011               FIRSTBIT           =        BIT7
000607:
000608:                                                                                                  #  BIT 7 FLAG 2


000610: 37,2001  0000046               OPTNSW             =        ETPIFLAG                              #  SOI PHASE P38/P78     SOR PHASE OF P38/P78
000611:
000612: 37,2001     5012               FINALBIT           =        BIT6
000613:
000614:                                                                                                  #  BIT 6 FLAG 2
000615: 37,2001                        FINALFLG           =        039D                                  #  LSAT PASS THROUGH     INTERIM PASS THROUGH
000616:                                                                                                  #  RENDEZVOUS PROGRAM    RENDEZVOUS PROGRAM
000617:                                                                                                  #  COMPUTATIONS          COMPUTATIONS
000618:
000619: 37,2001     5013               AVFLBIT            =        BIT5
000620:
000621:                                                                                                  #  BIT 5 FLAG 2
000622: 37,2001                        AVFLAG             =        040D                                  #  LEM IS ACTIVE         CSM IS ACTIVE
000623:                                                                                                  #  VEHICLE               VEHICLE
000624:
000625:                                                                                                  #  BIT 4 FLAG 2
000626: 37,2001                        PFRATFLG           =        041D                                  #  PREFERRED ATTITUDE    PREFERRED ATTITUDE
000627:                                                                                                  #  COMPUTED              NOT COMPUTED
000628:
000629: 37,2001     5014               PFRATBIT           =        BIT4
000630:
000631:                                                                                                  #  BIT 3 FLAG 2
000632:                                                                                                  #                =       042D
000633:
000634:                                                                                                  #  BIT 2 FLAG 2
000635: 37,2001                        CALCMAN2           =        043D                                  #  PERFORM MANEUVER      BYPASS STARTING
000636:                                                                                                  #  STARTING PROCEDURE    PROCEDURE
000637:
000638: 37,2001     5016               CALC2BIT           =        BIT2
000639:
000640:                                                                                                  #  BIT 1 FLAG 2
000641: 37,2001                        NODOFLAG           =        044D                                  #  V37 NOT PERMITTED     V37 PERMITTED
000642:
000643: 37,2001     5017               NODOBIT            =        BIT1
000644:
000645: 37,2001     0077               FLAGWRD3           =        STATE      +3                         #  (045-059)
000646:                                                                                                  #  (SET)                 (RESET)
000647:
000648:                                                                                                  #  BIT 15 FLAG 3
000649:                                                                                                  #                =       045D
000650:
000651:                                                                                                  #  BIT 14 FLAG 3
000652: 37,2001                        GLOKFAIL           =        046D                                  #  GIMBAL LOCK HAS       NOT IN GIMBAL LOCK
000653:                                                                                                  #  OCCURED
000654:
000655: 37,2001     5002               GLOKFBIT           =        BIT14
000656:


000658:
000659:                                                                                                  #  BIT 13 FLAG 3
000660: 37,2001                        REFSMFLG           =        047D                                  #  REFSMMAT GOOD         REFSMMAT NO GOOD
000661:
000662: 37,2001     5003               REFSMBIT           =        BIT13
000663:
000664:                                                                                                  #  BIT 12 FLAG 3
000665: 37,2001                        LUNAFLAG           =        048D                                  #  LUNAR LAT-LONG        EARTH LAT-LONG
000666:
000667: 37,2001     5004               LUNABIT            =        BIT12
000668:
000669:                                                                                                  #  BIT 11 FLAG 3
000670: 37,2001                        P22MKFLG           =        049D                                  #  P22 DOWNLINKED MARK   P22 DOWLINK MARK
000671:                                                                                                  #  DATA WAS JUST TAKEN   DATA NOT JUST TAKEN
000672:
000673: 37,2001     5005               P22MKBIT           =        BIT11
000674:
000675:                                                                                                  #  BIT 10 FLAG 3
000676: 37,2001                        VFLAG              =        050D                                  #  LESS THAN TWO STARS   TWO STARS IN FIELD
000677:                                                                                                  #  IN FIELD OF VIEW      OF VIEW
000678:
000679: 37,2001     5006               VFLAGBIT           =        BIT10
000680:
000681:                                                                                                  #  BIT 9 FLAG 3
000682:                                                                                                  #                =       051D
000683:
000684:                                                                                                  #  BIT 8 FLAG 3
000685: 37,2001                        PRECIFLG           =        052D                                  #  CSMPREC, LEMPREC      INTGRV CALLED
000686:                                                                                                  #  OR INTEGRVS CALLED
000687:
000688: 37,2001     5010               PRECIBIT           =        BIT8
000689:
000690:                                                                                                  #  BIT 7 FLAG 3
000691: 37,2001                        CULTFLAG           =        053D                                  #  STAR OCCULTED         STAR NOT OCCULTED
000692:
000693: 37,2001     5011               CULTBIT            =        BIT7
000694:
000695:                                                                                                  #  BIT 6 FLAG 3
000696: 37,2001                        ORBWFLAG           =        054D                                  #  W MATRIX VALID FOR    W MATRIX INVALID FOR
000697:                                                                                                  #  ORBITAL N1VIGATION    ORBITAL NAVIGATION
000698:
000699: 37,2001     5012               ORBWFBIT           =        BIT6
000700:
000701:                                                                                                  #  BIT 5 FLAG 3
000702: 37,2001                        STATEFLG           =        055D                                  #  PERMANENT STATE       PERMANENT STATE
000703:                                                                                                  #  VECTOR UPDATED        VECTOR NOT UPDATED
000704:
000705: 37,2001     5013               STATEBIT           =        BIT5
000706:
000707:                                                                                                  #  BIT 4 FLAG 3
000708: 37,2001                        INTYPFLG           =        056D                                  #  CONIC INTEGRATION     ENCKE INTEGRATION


000710: 37,2001     5014               INTYBIT            =        BIT4
000711:
000712:                                                                                                  #  BIT 3 FLAG 3
000713: 37,2001                        VINTFLAG           =        057D                                  #  CSM STATE VECTOR      LEM STATE VECTOR
000714:                                                                                                  #  BEING INTEGRATED      BEING INTEGRATED
000715:
000716: 37,2001     5015               VINTFBIT           =        BIT3
000717:
000718:                                                                                                  #  BIT 2 FLAG 3
000719: 37,2001                        D6OR9FLG           =        058D                                  #  DIMENSION OF W IS 9   DIMENSION OF W IS 6
000720:                                                                                                  #  FOR INTEGRATION       FOR INTEGRATION
000721:
000722: 37,2001     5016               D6OR9BIT           =        BIT2
000723:
000724:                                                                                                  #  BIT 1 FLAG 3
000725: 37,2001                        DIM0FLAG           =        059D                                  #  W MATRIX IS TO BE     W MATRIX IS NOT TO
000726:                                                                                                  #  USED                  BE USED
000727:
000728: 37,2001     0100               FLAGWRD4           =        STATE      +4                         #  (060-074)
000729:                                                                                                  #  (SET)                 (RESET)
000730:
000731: 37,2001     5017               DIM0BIT            =        BIT1
000732:
000733:                                                                                                  #  BIT 15 FLAG 4
000734: 37,2001                        MRKIDFLG           =        060D                                  #  MARK DISPLAY IN       NO MARK DISPLAY IN
000735:                                                                                                  #  ENDIDLE               ENDIDLE
000736:
000737: 37,2001     5001               MRKIDBIT           =        BIT15
000738:
000739:                                                                                                  #  BIT 14 FLAG 4
000740: 37,2001                        PRIODFLG           =        061D                                  #  PRIORITY DISPLAY IN   NO PRIORITY DISPLAY
000741:                                                                                                  #  ENDIDLE               IN ENDIDLE
000742:
000743: 37,2001     5002               PRIODBIT           =        BIT14
000744:
000745:                                                                                                  #  BIT 13 FLAG 4
000746: 37,2001                        NRMIDFLG           =        062D                                  #  NORMAL DISPLAY IN     NO NORMAL DISPLAY
000747:                                                                                                  #  ENDIDLE               IN ENDIDLE
000748:
000749: 37,2001     5003               NRMIDBIT           =        BIT13
000750:
000751:                                                                                                  #  BIT 12 FLAG 4
000752: 37,2001                        PDSPFLAG           =        063D                                  #  CAN'T INTERRUPT       SEE M. HAMILTON
000753:                                                                                                  #  PRIORITY DISPLAY
000754:
000755: 37,2001     5004               PDSPFBIT           =        BIT12
000756:
000757:                                                                                                  #  BIT 11 FLAG 4
000758: 37,2001                        MWAITFLG           =        064D                                  #  HIGHER PRIORITY       NO HIGHER PRIORITY


000760:                                                                                                  #  DISPLAY OPERATING     DISPLAY OPERATING
000761:                                                                                                  #  WHEN MARK DISPLAY     WHEN MARK DISPLAY
000762:                                                                                                  #  INITIATED             INITIATED
000763: 37,2001     5005               MWAITBIT           =        BIT11
000764:
000765:                                                                                                  #  BIT 10 FLAG 4
000766: 37,2001                        NWAITFLG           =        065D                                  #  HIGHER PRIORITY       NO HIGHER PRIORITY
000767:                                                                                                  #  DISPLAY OPERATING     DISPLAY OPERATING
000768:                                                                                                  #  WHEN NORMAL           WHEN NORMAL DISPLAY
000769:                                                                                                  #  DISPLAY INITIATED     INITIATED
000770:
000771: 37,2001     5006               NWAITBIT           =        BIT10
000772:
000773:                                                                                                  #  BIT 9 FLAG 4
000774: 37,2001                        MRKNVFLG           =        066D                                  #  ASTRONAUT USING       ASTRONAUT NOT USING
000775:                                                                                                  #  KEYBOARD WHEN MARK    KEYBOARD WHEN MARK
000776:                                                                                                  #  DISPLAY INITIATED     DISPLAY INITIATED
000777:
000778: 37,2001     5007               MRKNVBIT           =        BIT9
000779:
000780:                                                                                                  #  BIT 8 FLAG 4
000781: 37,2001                        NRMNVFLG           =        067D                                  #  ASTRONAUT USING       ASTRONAUT NOT USING
000782:                                                                                                  #  KEYBOARD WHEN         KEYBOARD WHEN
000783:                                                                                                  #  NORMAL DISPLAY        NORMAL DISPLAY
000784:                                                                                                  #  INITIATED             INITIATED
000785:
000786: 37,2001     5010               NRMNVBIT           =        BIT8
000787:
000788:                                                                                                  #  BIT 7 FLAG 4
000789: 37,2001                        PRONVFLG           =        068D                                  #  ASTRONAUT USING       ASTRONAUT NOT USING
000790:                                                                                                  #  KEYBOARD WHEN         KEYBOARD WHEN
000791:                                                                                                  #  PRIORITY DISPLAY      PRIORITY DISPLAY
000792:                                                                                                  #  INITIATED             INITIATED
000793:
000794: 37,2001     5011               PRONVBIT           =        BIT7
000795:
000796:                                                                                                  #  BIT 6 FLAG 4
000797: 37,2001                        PINBRFLG           =        069D                                  #  ASTRONAUT HAS         ASTRONAUT HAS NOT
000798:                                                                                                  #  INTERFERED WITH       INTERFERED WITH
000799:                                                                                                  #  EXISTING DISPLAY      EXISTING DISPLAY
000800:
000801: 37,2001     5012               PINBRBIT           =        BIT6
000802:
000803:                                                                                                  #  BIT 5 FLAG 4
000804: 37,2001                        MRUPTFLG           =        070D                                  #  MARK DISPLAY          MARK DISPLAY NOT
000805:                                                                                                  #  INTERRUPTED BY        INTERRUPTED BY
000806:                                                                                                  #  PRIORITY DISPLAY      PRIORITY DISPLAY
000807:
000808: 37,2001     5013               MRUPTBIT           =        BIT5


000810:
000811:                                                                                                  #  BIT 4 FLAG 4
000812: 37,2001                        NRUPTFLG           =        071D                                  #  NORMAL DISPLAY        NORMAL DISPLAY NOT
000813:                                                                                                  #  INTERRUPTED BY        INTERRUPTED BY
000814:                                                                                                  #  PRIORITY OR MARK      PRIORITY OR MARK
000815:                                                                                                  #  DISPLAY               DISPLAY
000816:
000817: 37,2001     5014               NRUPTBIT           =        BIT4
000818:
000819:                                                                                                  #  BIT 3 FLAG 4
000820: 37,2001                        MKOVFLAG           =        072D                                  #  MARK DISPLAY OVER     NO MARK DISPLAY OVER
000821:                                                                                                  #  NORMAL                NORMAL
000822:
000823: 37,2001     5015               MKOVBIT            =        BIT3
000824:
000825:                                                                                                  #  BIT 2 FLAG 4                          DISPLAY BIT
000826:                                                                                                  #                =       073D            CLEARED AT INTERVALS
000827:
000828:                                                                                                  #  BIT 1 FLAG 4  MARK DISPLAY NOT TO     NO SPECIAL MARK
000829: 37,2001                        XDSPFLAG           =        074D                                  #                BE INTERRUPTED          INFORMATION.
000830:
000831:
000832: 37,2001     5017               XDSPBIT            =        BIT1
000833:
000834: 37,2001     0101               FLAGWRD5           =        STATE      +5                         #  (075-099)
000835:                                                                                                  #  (SET)                 (RESET)
000836:
000837:                                                                                                  #  BIT 15 FLAG 5
000838: 37,2001                        DSKYFLAG           =        075D                                  #  DISPLAYS SENT TO      NO DISPLAYS TO DSKY
000839:                                                                                                  #  DSKY
000840: 37,2001     5001               DSKYBIT            =        BIT15
000841:
000842:                                                                                                  #  BIT 14 FLAG 5
000843: 37,2001                        RETROFLG           =        076D                                  #  P37 PREMANEUVER       ORBIT NOT RETROGRADE
000844: 37,2001     5002               RETROBIT           =        BIT14                                 #  ORBIT IS RETROGRADE
000845:
000846:                                                                                                  #  BIT 13 FLAG 5
000847: 37,2001                        SLOWFLG            =        077D                                  #  P37 TRANSEARTH        SLOW DOWN IS NOT
000848: 37,2001     5003               SLOWBIT            =        BIT13                                 #  COAST SLOW DOWN       DESIRED
000849:                                                                                                  #  IS DESIRED
000850:
000851:                                                                                                  #  BIT 12 FLAG 5
000852: 37,2001                        V59FLAG            =        078D                                  #  CALIBRATING FOR       NORMAL MARKING FOR
000853:                                                                                                  #  P23                   P23
000854:
000855: 37,2001     5004               V59FLBIT           =        BIT12
000856:
000857:                                                                                                  #  BIT 11 FLAG 5


000859: 37,2001                        INCORFLG           =        079D                                  #  FIRST INCORPORATION   SECOND INCORPORATION
000860:
000861: 37,2001     5005               INCORBIT           =        BIT11
000862:
000863:                                                                                                  #  BIT 10 FLAG 5
000864: 37,2001                        RNGSCFLG           =        080D                                  #  ANOTHER TAG FOR PRFTKAT
000865:
000866:                                                                                                  #  BIT 10 FLAG 5
000867: 37,2001  0000120               PRFTRKAT           =        RNGSCFLG                              #  PREF TRACK ATT        +X AXIS TRACK ATT
000868:
000869: 37,2001     5006               PRFTRBIT           =        BIT10
000870:
000871:                                                                                                  #  BIT 9 FLAG 5
000872: 37,2001                        DMENFLG            =        081D                                  #  DIMENSION OF W IS 9   DIMENSION OF W IS 6
000873:                                                                                                  #  FOR INCORPORATION     FOR INCORPORATION
000874:
000875: 37,2001     5007               DMENFBIT           =        BIT9
000876:
000877:                                                                                                  #  BIT 8 FLAG 5
000878: 37,2001                        COMPUTER           =        082D                                  #  COMPUTER IS CMC       COMPUTER IS LGC
000879:
000880: 37,2001     5010               COMPTBIT           =        BIT8
000881:
000882:                                                                                                  #  BIT 7 FLAG 5
000883: 37,2001                        ENGONFLG           =        083D                                  #  ENGINE TURNED ON      ENGINE TURNED OFF
000884:
000885: 37,2001     5011               ENGONBIT           =        BIT7
000886:
000887:                                                                                                  #  BIT 6 FLAG 5
000888: 37,2001                        3AXISFLG           =        084D                                  #  MANEUVER SPECIFIED    MANEUVER SPECIFIED
000889:                                                                                                  #  BY THREE AXES         BY ONE AXIS
000890:
000891: 37,2001     5012               3AXISBIT           =        BIT6
000892:
000893:                                                                                                  #  BIT 5 FLAG 5
000894: 37,2001                        GRRBKFLG           =        085D                                  #  BACKUP GRR RECEIVED   BACKUP GRR NOT
000895:                                                                                                  #                        RECEIVED
000896:
000897: 37,2001     5013               GRRBKBIT           =        BIT5
000898:
000899:                                                                                                  #  BIT 4 FLAG 5
000900: 37,2001                        R60FLAG            =        086D                                  #  R61 MUST USE R60      NORMAL R61
000901:
000902: 37,2001     5014               R60FLBIT           =        BIT4
000903:
000904:                                                                                                  #  BIT 3 FLAG 5
000905: 37,2001                        SOLNSW             =        087D                                  #  LAMBERT DOES NOT      LAMBERT CONVERGES OR


000907:                                                                                                  #  CONVERGE, OR TIME-    TIME-RADIUS NON
000908:                                                                                                  #  RADIUS NEARLY CIRC.   CIRCULAR.
000909: 37,2001     5015               SOLNSBIT           =        BIT3
000910:
000911:                                                                                                  #  BIT 2 FLAG 5
000912: 37,2001                        MGLVFLAG           =        088D                                  #  LOCAL VERTICAL        MIDDLE GIMBAL ANGLE
000913:                                                                                                  #  COORDINATES           COMPUTED
000914:                                                                                                  #  COMPUTED
000915:
000916: 37,2001     5016               MGLVFBIT           =        BIT2
000917:
000918:                                                                                                  #  BIT 1 FLAG 5
000919: 37,2001                        RENDWFLG           =        089D                                  #  W MATRIX VALID        W MATRIX INVALID
000920:                                                                                                  #  FOR RENDEZVOUS        FOR RENDEZVOUS
000921:                                                                                                  #  NAVIGATION            NAVIGATION
000922:
000923: 37,2001     5017               RENDWBIT           =        BIT1
000924:
000925: 37,2001     0102               FLAGWRD6           =        STATE      +6                         #  (090-104)
000926:                                                                                                  #  (SET)                 (RESET)
000927:
000928:                                                                                                  #  BIT 15 FLAG 6
000929: 37,2001                        DAPBIT1            =        090D                                  #  1 SATURN 1 TVC        0 RCS   0 NO
000930:
000931: 37,2001     5001               DAP1BIT            =        BIT15
000932:
000933:                                                                                                  #  BIT 14 FLAG 6
000934: 37,2001                        DAPBIT2            =        091D                                  #  1 A/P    0 A/P        1 A/P   0 A/P
000935:
000936: 37,2001     5002               DAP2BIT            =        BIT14
000937:
000938:                                                                                                  #  BIT 13 FLAG 6
000939: 37,2001                        STRULLSW           =        092D                                  #  DO STEERULL           DO ULAGEOFF ONLY
000940:
000941: 37,2001     5003               STRULBIT           =        BIT13
000942:
000943:                                                                                                  #  BIT 13 FLAG 6
000944: 37,2001  0000134               ENTRYDSP           =        STRULLSW                              #  DO ENTRY DISPLAY      OMIT ENTRY DISPLAY
000945:                                                                                                  #  VIA ENTRYVN.
000946:
000947: 37,2001     5003               ENDSPBIT           =        BIT13
000948:
000949:                                                                                                  #  BIT 12 FLAG 6
000950: 37,2001                        CMDAPARM           =        093D                                  #  ALOW ENTRY FIRINGS    INHIBIT ENTRY FIRING
000951:                                                                                                  #  AND CALCULATIONS      AND CONTROL FUNCTION


000953: 37,2001     5004               CMDARMBIT           =        BIT12
000954:
000955:                                                                                                  #  BIT 11 FLAG 6
000956: 37,2001                        GAMDIFSW           =        094D                                  #  CALCULATE GAMDOT      GAMDOT NOT TO BE
000957:                                                                                                  #                        CALCULATED
000958:
000959: 37,2001     5005               GMDIFBIT           =        BIT11
000960:
000961:                                                                                                  #  BIT 10 FLAG 6
000962: 37,2001                        GONEPAST           =        095D                                  #  LATERAL CONTROL       LATERAL CONTROL
000963:                                                                                                  #  CALCULATIONS TO BE    CALCULATIONS TO BE
000964:                                                                                                  #  OMITTED               DONE
000965:
000966: 37,2001     5006               GONEBIT            =        BIT10
000967:
000968:                                                                                                  #  BIT 9 FLAG 6
000969: 37,2001                        RELVELSW           =        096D                                  #  TARGETING USES        TARGETING USES
000970:                                                                                                  #  EARTH-RELATIVE        INERTIAL VELOCITY
000971:                                                                                                  #  VELOCITY
000972:
000973: 37,2001     5007               RELVBIT            =        BIT9
000974:
000975:                                                                                                  #  BIT 8 FLAG 6
000976: 37,2001                        EGSW               =        097D                                  #  IN FINAL PHASE        NOT IN FINAL PHASE
000977:
000978: 37,2001     5010               EGFLGBIT           =        BIT8
000979:
000980:                                                                                                  #  BIT 8 FLAG 6
000981: 37,2001  0000141               KNOWNFLG           =        EGSW                                  #  LANDMARK KNOWN        LANDMARK UNKNOWN
000982:
000983: 37,2001     5010               KNOWNBIT           =        BIT8
000984:
000985:                                                                                                  #  BIT 8 FLAG 6
000986: 37,2001  0000141               R57FLAG            =        KNOWNFLG                              #  DO NOT DO R57         DO R57, TRUNION
000987:                                                                                                  #  TRUNION BIAS HAS      BIAS NEEDED
000988:                                                                                                  #  BEEN OBTAINED.
000989:
000990: 37,2001     5010               R57BIT             =        BIT8
000991:
000992:                                                                                                  #  BIT 7 FLAG 6
000993: 37,2001                        NOSWITCH           =        098D                                  #  LATERAL ROLL          LATERAL ROLL MANUVER
000994:                                                                                                  #  MANUVER INHIBITED     PERMITED IN ENTRY
000995:                                                                                                  #  IN ENTRY
000996:
000997: 37,2001     5011               NOSWBIT            =        BIT7
000998:
000999:                                                                                                  #  BIT 6 FLAG 6
001000: 37,2001                        HIND               =        099D                                  #  ITERATING HUNTEST     ITERATING OF HUNTEST
001001:                                                                                                  #  CALCULATIONS TO BE    CALCULATIONS TO BE
001002:                                                                                                  #  DONE AFTER RANGE      OMITTED AFTER RANGE
001003:                                                                                                  #  PREDICTION            PREDICTION


001005:
001006: 37,2001     5012               HINDBIT            =        BIT6
001007:
001008:                                                                                                  #  BIT 5 FLAG 6
001009: 37,2001                        INRLSW             =        100D                                  #  INITIAL ROLL          INITIAL ROLL
001010:                                                                                                  #  V(LV)                 V(LV)
001011:
001012: 37,2001     5013               INRLBIT            =        BIT5
001013:
001014:                                                                                                  #  ATTITUDE NOT HELD     ATTITUDE HELD
001015:
001016:                                                                                                  #  BIT 4 FLAG 6
001017: 37,2001                        LATSW              =        101D                                  #  DOWNLIFT NOT          DOWNLIFT INHIBITED
001018:                                                                                                  #  INHIBITED
001019:
001020: 37,2001     5014               LATSWBIT           =        BIT4
001021:
001022:                                                                                                  #  BIT 3 FLAG 6
001023: 37,2001                        .05GSW             =        102D                                  #  DRAG OVER .05G        DRAG LESS THAN .05G
001024:
001025: 37,2001     5015               .05GBIT            =        BIT3
001026:
001027:                                                                                                  #  BIT 3 FLAG 6
001028:                                                                                                  #                =       102D
001029:
001030:                                                                                                  #  BIT 2 FLAG 6
001031: 37,2001                        CM/DSTBY           =        103D                                  #  ENTRY DAP ACTIVATED   ENTRY DAP NOT
001032:                                                                                                  #                        ACTIVATED
001033:
001034: 37,2001     5016               CM/DSBIT           =        BIT2
001035:
001036:                                                                                                  #  BIT 1 FLAG 6
001037: 37,2001                        GYMDIFSW           =        104D                                  #  CDU DIFFERENCES AND   CDU DIFFERENCES AND
001038:                                                                                                  #  BODY RATES COMPUTED   BODY RATES NOT
001039:                                                                                                  #                        COMPUTED
001040:
001041: 37,2001     5017               GYMDIBIT           =        BIT1
001042:
001043: 37,2001     0103               FLAGWRD7           =        STATE      +7                         #  (105-119)
001044:                                                                                                  #  (SET)                 (RESET)
001045:
001046:                                                                                                  #  BIT 15 FLAG 7
001047: 37,2001                        TERMIFLG           =        105D                                  #  TERMINATE R52         DO NOT TERMINATE R52
001048:
001049: 37,2001     5001               TERMIBIT           =        BIT15
001050:
001051:                                                                                                  #  BIT 14 FLAG 7
001052: 37,2001                        ITSWICH            =        106D                                  #  ACCEPT NEXT LAMBERT   TEST LAMBERT ANSWER
001053:                                                                                                  #  TPI SEARCH SOLUTION   AGAINST LIMITS


001055:
001056: 37,2001     5002               ITSWBIT            =        BIT14
001057:
001058:                                                                                                  #  BIT 13 FLAG 7
001059: 37,2001                        IGNFLAG            =        107D                                  #  TIG HAS ARRIVED       TIG HAS NOT ARRIVED
001060:
001061: 37,2001     5003               IGNFLBIT           =        BIT13
001062:
001063:                                                                                                  #  BIT 12 FLAG 7
001064: 37,2001                        ASTNFLAG           =        108D                                  #  ASTRONAUT HAS         ASTRONAUT HAS NOT
001065:                                                                                                  #  OKAYED IGNITION       OKAYED IGNITION
001066:
001067: 37,2001     5004               ASTNBIT            =        BIT12
001068:
001069:                                                                                                  #  BIT 11 FLAG 7
001070: 37,2001                        TIMRFLAG           =        109D                                  #  CLOKTASK OPERATING    CLOKTASK INOPERATIVE
001071:
001072: 37,2001     5005               TIMRBIT            =        BIT11
001073:
001074:                                                                                                  #  BIT 10 FLAG 7
001075: 37,2001                        NORMSW             =        110D                                  #  UNIT NORMAL INPUT     LAMBERT COMPUTE ITS
001076:                                                                                                  #  TO LAMBERT.           OWN UNIT NORMAL.
001077:
001078: 37,2001     5006               NORMSBIT           =        BIT10
001079:
001080:                                                                                                  #  BIT 9 FLAG 7
001081: 37,2001                        RVSW               =        111D                                  #  DO NOT COMPUTE FINAL  COMPUTE FINAL STATE
001082:                                                                                                  #  STATE VECTOR IN       VECTOR IN TIME-THETA
001083:                                                                                                  #  TIME-THETA.
001084:
001085: 37,2001     5007               RVSWBIT            =        BIT9
001086:
001087:                                                                                                  #  BIT 8 FLAG 7
001088: 37,2001                        GONEBY             =        112D                                  #  PASSED TARGET         APPROACHING TARGET
001089:
001090: 37,2001     5010               GONBYBIT           =        BIT8
001091:
001092:                                                                                                  #  BIT 7 FLAG 7
001093:                                                                                                  #                =       113D
001094:                                                                                                  #                =       BIT7
001095:
001096:                                                                                                  #  BIT 6 FLAG 7
001097: 37,2001                        V37FLAG            =        114D                                  #  AVERAGEG (SERVICER)   AVERAGEG (SERVICER)
001098:                                                                                                  #  RUNNING               OFF
001099:
001100: 37,2001     5012               V37FLBIT           =        BIT6
001101:
001102:                                                                                                  #  BIT 5 FLAG 7
001103:                                                                                                  #                =       115D


001105:                                                                                                  #                =       BIT5
001106:
001107:                                                                                                  #  BIT 4 FLAG 7
001108: 37,2001                        UPLOCKFL           =        116D                                  #  K-KBAR-K FAIL         NO K-KBAR-K FAIL
001109:
001110: 37,2001     5014               UPLOCBIT           =        BIT4
001111:
001112:                                                                                                  #  BIT 3 FLAG 7
001113: 37,2001                        VERIFLAG           =        117D                                  #  CHANGED WHEN V33E OCCURS AT END OF P27
001114:
001115: 37,2001     5015               VERIFBIT           =        BIT3
001116:
001117:                                                                                                  #  BIT 2 FLAG 7
001118: 37,2001                        ATTCHFLG           =        118D                                  #  LM,CM ATTACHED        LM,CM NOT ATTACHED
001119:
001120: 37,2001     5016               ATTCHBIT           =        BIT2
001121:
001122:                                                                                                  #  BIT 1 FLAG 7
001123: 37,2001                        TFFSW              =        119D                                  #  CALCULATE TPERIGEE    CALCULATE TFF
001124:
001125: 37,2001     5017               TFFSWBIT           =        BIT1
001126:
001127: 37,2001     0104               FLAGWRD8           =        STATE      +8D                        #  (120-134)
001128:                                                                                                  #  (SET)                 (RESET)
001129:
001130:                                                                                                  #  BIT 15 FLAG 8
001131: 37,2001                        RPQFLAG            =        120D                                  #  RPQ NOT COMPUTED      RPQ COMPUTED
001132:
001133: 37,2001     5001               RPQFLBIT           =        BIT15
001134:
001135:                                                                                                  #  BIT 14 FLAG 8
001136:                                                                                                  #                =       121D
001137:
001138:                                                                                                  #  BIT 13 FLAG 8
001139: 37,2001                        NEWIFLG            =        122D                                  #  FIRST PASS THROUGH    SUCCEEDING ITERATION
001140:                                                                                                  #  INTEGRATION           OF INTEGRATION
001141:
001142: 37,2001     5003               NEWIBIT            =        BIT13
001143:
001144:                                                                                                  #  BIT 12 FLAG 8
001145: 37,2001                        CMOONFLG           =        123D                                  #  PERMANENT CSM STATE   PERMANENT CSM STATE
001146:                                                                                                  #  IN LUNAR SPHERE       IN EARTH SPHERE
001147:
001148: 37,2001     5004               CMOONBIT           =        BIT12
001149:
001150:                                                                                                  #  BIT 11 FLAG 8
001151: 37,2001                        LMOONFLG           =        124D                                  #  PERMANENT LM STATE    PERMANENT LM STATE
001152:                                                                                                  #  IN LUNAR SPHERE       IN EARTH SHPERE
001153:
001154: 37,2001     5005               LMOONBIT           =        BIT11
001155:


001157:
001158:                                                                                                  #  BIT 10 FLAG 8
001159: 37,2001                        ADVTRK             =        125D                                  #  ADVANCE GROUND TRACK  NOT ADVANCED
001160:                                                                                                  #  SIGHTING WANTED       GROUND TRACK
001161:
001162: 37,2001     5006               ADVTKBIT           =        BIT10
001163:
001164:                                                                                                  #  BIT 9 FLAG 8
001165: 37,2001                        P39/79SW           =        126D                                  #  P39/79 OPERATING      P38/78 OPERATING
001166:
001167: 37,2001     5007               P39SWBIT           =        BIT9
001168:
001169:                                                                                                  #  BIT 8 FLAG 8
001170: 37,2001                        SURFFLAG           =        127D                                  #  LM ON LUNAR SURFACE   LM NOT ON LUNAR
001171:                                                                                                  #                        SURFACE
001172:
001173: 37,2001     5010               SURFFBIT           =        BIT8
001174:
001175:                                                                                                  #  BIT 7 FLAG 8
001176: 37,2001                        INFINFLG           =        128D                                  #  NO CONIC SOLUTION     CONIC SOLUTION
001177:                                                                                                  #  (CLOSURE THROUGH      EXISTS.
001178:                                                                                                  #  INFINITY REQUIRED).
001179:
001180: 37,2001     5011               INFINBIT           =        BIT7
001181:
001182:                                                                                                  #  BIT 6 FLAG 8
001183: 37,2001                        ORDERSW            =        129D                                  #  ITERATOR USES 2ND     ITERATOR USES 1ST
001184:                                                                                                  #  ORDER MINIMUM MODE.   ORDER STANDARD MODE.
001185:
001186: 37,2001     5012               ORDERBIT           =        BIT6
001187:
001188:                                                                                                  #  BIT 5 FLAG 8
001189: 37,2001                        APSESW             =        130D                                  #  RDESIRED OUTSIDE      RDESIRED INSIDE
001190:                                                                                                  #  PERICENTER-APOCENTER  PERICENTER-APOCENTE
001191:                                                                                                  #  RANGE IN TIME-RAD     RANGE IN TIME-RADIUS
001192:
001193: 37,2001     5013               APSESBIT           =        BIT5
001194:
001195:                                                                                                  #  BIT 4 FLAG 8
001196: 37,2001                        COGAFLAG           =        131D                                  #  NO CONIC SOLUTION     CONIC SOLUTION
001197:                                                                                                  #  TOO CLOSE TO          EXISTS (COGA DOES
001198:                                                                                                  #  RECTILINEAR (COGA     NOT OVERFLOW).
001199:                                                                                                  #  OVERFLOWS).
001200: 37,2001     5014               COGAFBIT           =        BIT4
001201:
001202:                                                                                                  #  BIT 3 FLAG 8


001204: 37,2001                        V96ONFLG           =        132D                                  #  P00 INTEGRATION HAS   P00 INTEGRATION IS
001205:                                                                                                  #  BEEN INHIBITED BY     PROCEEDING REGULARLY
001206:                                                                                                  #  V96
001207:
001208:                                                                                                  #  BIT 2 FLAG 8
001209:                                                                                                  #                =       133D
001210:
001211:                                                                                                  #  BIT 1 FLAG 8
001212: 37,2001                        360SW              =        134D                                  #  TRANSFER ANGLE NEAR   TRANSFER ANGLE NOT
001213:                                                                                                  #  360 DEGREES           NEAR 360 DEGREES
001214:
001215: 37,2001     5017               360SWBIT           =        BIT1
001216:
001217: 37,2001     0105               FLAGWRD9           =        STATE      +9D                        #  (135-149)
001218:                                                                                                  #  (SET)                 (RESET)
001219:
001220:                                                                                                  #  BIT 15 FLAG 9
001221: 37,2001                        SWTOVER            =        135D                                  #  SWITCHOVER HAS        NO SWITCHOVER YET
001222:                                                                                                  #  OCCURRED
001223:
001224: 37,2001     5001               SWTOVBIT           =        BIT15
001225:
001226:                                                                                                  #  BIT 14 FLAG 9
001227:                                                                                                  #                =       136D
001228:
001229: 37,2001     5002               V67FLBIT           =        BIT14
001230:
001231:                                                                                                  #  BIT 13 FLAG 9
001232: 37,2001                        V82EMFLG           =        137D                                  #  MOON VICINITY         EARTH VICINITY
001233:
001234: 37,2001     5003               V82EMBIT           =        BIT13
001235:
001236:                                                                                                  #  BIT 12 FLAG 9
001237: 37,2001                        MAXDBFLG           =        138D                                  #  MAX DB SELECTED       MIN DB SELECTED
001238:
001239: 37,2001     5004               MAXDBBIT           =        BIT12
001240:
001241:                                                                                                  #  BIT 11 FLAG 9
001242: 37,2001                        V94FLAG            =        139D                                  #  V94 ALLOWED DURING    V94 NOT ALLOWED
001243:                                                                                                  #  P23
001244:
001245: 37,2001     5005               V94FLBIT           =        BIT11
001246:
001247:                                                                                                  #  BIT 10 FLAG 9
001248: 37,2001                        SAVECFLG           =        140D                                  #  P23 DISPLAY AND       P23 DISPLAY AND
001249:                                                                                                  #  DATA STORAGE AFTER    DATA STORAGE BEFORE


001251:                                                                                                  #  MARK IS DONE          MARK IS DONE
001252:
001253: 37,2001     5006               SAVECBIT           =        BIT10
001254:
001255:                                                                                                  #  BIT 9 FLAG 9
001256: 37,2001                        VHFRFLAG           =        141D                                  #  ALLOW R22 TO          STOP ACCEPTANCE
001257:                                                                                                  #  ACCEPT RANGE          OF RANGE DATA
001258:                                                                                                  #  DATA
001259:
001260: 37,2001     5007               VHFRBIT            =        BIT9
001261:
001262:                                                                                                  #  BIT 8 FLAG 9
001263: 37,2001                        SOURCFLG           =        142D                                  #  SOURCE OF INPUT       SOURCE OF INPUT
001264:                                                                                                  #  DATA IS FROM          DATA IS FROM
001265:                                                                                                  #  VHF RADAR             OPTICS MARK
001266:
001267: 37,2001     5010               SOURCBIT           =        BIT8
001268:
001269:                                                                                                  #  BIT 7 FLAG 9
001270: 37,2001                        R22CAFLG           =        143D                                  #  R-22 CALCULATIONS     R-22 CALCULATIONS
001271:                                                                                                  #  ARE GOING ON          ARE NOT GOING ON
001272:
001273: 37,2001     5011               R22CABIT           =        BIT7
001274:
001275:                                                                                                  #  BIT 6 FLAG 9
001276: 37,2001                        N22ORN17           =        144D                                  #  COMPUTE TOTAL         COMPUTE TOTAL
001277:                                                                                                  #  ATTITUDE ERRORS       ATTITUDE ERRORS
001278:                                                                                                  #  WRT N22 (V62)         WRT N17 (V63)
001279:
001280: 37,2001     5012               N2217BIT           =        BIT6
001281:
001282:                                                                                                  #  BIT 5 FLAG 9
001283: 37,2001                        QUITFLAG           =        145D                                  #  TERMINATE AND EXIT    CONTINUE INTEGRATION
001284: 37,2001     5013               QUITBIT            =        BIT5                                  #  FROM INTEGRATION
001285:
001286:                                                                                                  #  BIT 4 FLAG 9
001287: 37,2001                        R31FLAG            =        146D                                  #  R31 SELECTED (V83)    R34 SELECTED (V85)
001288:
001289: 37,2001     5014               R31FLBIT           =        BIT4
001290:
001291:                                                                                                  #  BIT 3 FLAG 9
001292: 37,2001                        MID1FLAG           =        147D                                  #  INTEGRATE TO TDEC     INTEGRATE TO THE
001293:                                                                                                  #                        THEN-PRESENT TIME
001294:
001295: 37,2001     5015               MID1FBIT           =        BIT3
001296:
001297:                                                                                                  #  BIT 2 FLAG 9
001298: 37,2001                        MIDAVFLG           =        148D                                  #  INTEGRATION ENTERED   INTEGRATION WAS
001299:                                                                                                  #  FROM ONE OF MIDTOAV   NOT ENTERED VIA
001300:                                                                                                  #   PORTALS              MIDTOAV


001302:
001303: 37,2001     5016               MIDAVBIT           =        BIT2
001304:
001305:                                                                                                  #  BIT 1 FLAG 9
001306: 37,2001                        AVEMIDSW           =        149D                                  #  AVETOMID CALLING      NO AVETOMID W INTEGR
001307:                                                                                                  #  FOR W.MATRIX INTEGR   ALLOW SET UP RN,VN,
001308:                                                                                                  #  DONT WRITE OVER RN,   PIPTIME
001309:                                                                                                  #  VN,PIPTIME
001310:
001311: 37,2001     5017               AVEMDBIT           =        BIT1
001312:
001313:                                                                                                  #  (SET)                 (RESET)
001314:
001315: 37,2001     0106               FLGWRD10           =        STATE      +10D                       #  (150-164)
001316:
001317: 37,2001     0106               RASFLAG            =        STATE      +10D
001318:
001319:                                                                                                  #  BIT 15 FLAG 10
001320:                                                                                                  #                =       150D
001321:
001322:                                                                                                  #  BIT 14 FLAG 10
001323: 37,2001                        INTFLAG            =        151D                                  #  INTEGRATION IN        INTEGRATION NOT IN
001324:                                                                                                  #  PROGRESS              PROGRESS
001325:
001326: 37,2001     5002               INTFLBIT           =        BIT14
001327:
001328:                                                                                                  #  BIT 13 FLAG 10
001329:                                                                                                  #                =       152D
001330:
001331:                                                                                                  #  BIT 12 FLAG 10
001332:                                                                                                  #                =       153D
001333:
001334:                                                                                                  #  BIT 11 FLAG 10
001335:                                                                                                  #                =       154D
001336:
001337:                                                                                                  #  BIT 10 FLAG 10
001338:                                                                                                  #                =       155D
001339:
001340:                                                                                                  #  BIT 9 FLAG 10
001341:                                                                                                  #                =       156D
001342:
001343:                                                                                                  #  BIT 8 FLAG 10
001344:                                                                                                  #                =       157D


001346:
001347:                                                                                                  #  BIT 7 FLAG 10
001348: 37,2001                        REINTFLG           =        158D                                  #  INTEGRATION ROUTINE   INTEGRATION ROUTINE
001349:                                                                                                  #  TO BE RESTARTED       NOT TO BE RESTARTED
001350: 37,2001     5011               REINTBIT           =        BIT7
001351:
001352:                                                                                                  #  BIT 6 FLAG 10
001353:                                                                                                  #                =       159D
001354:
001355:                                                                                                  #  BIT 5 FLAG 10
001356:                                                                                                  #                =       160D
001357:
001358:                                                                                                  #  BIT 4 FLAG 10
001359:                                                                                                  #                =       161D
001360:
001361:                                                                                                  #  BIT 3 FLAG 10
001362:                                                                                                  #                =       162D
001363:
001364:                                                                                                  #  BIT 2 FLAG 10
001365:                                                                                                  #                =       163D
001366:
001367:                                                                                                  #  BIT 1 FLAG 10
001368:                                                                                                  #                =       164D
001369:
001370: 37,2001     0107               FLGWRD11           =        STATE      +11D                       #  (165-179)
001371:                                                                                                  #  (SET)                 (RESET)
001372:
001373:                                                                                                  #  BIT 15 FLAG 11
001374: 37,2001                        S32.1F1            =        165D                                  #  DELTAN AT CSI TIME    DVT1 LESS THAN MAX
001375: 37,2001     5001               S32BIT1            =        BIT15                                 #  ONE EXCEEDS MAX
001376:
001377:                                                                                                  #  BIT 14 FLAG 11
001378: 37,2001                        S32.1F2            =        166D                                  #  FIRST PASS OF         REITERATION OF
001379: 37,2001     5002               S32BIT2            =        BIT14                                 #  NEWTON INTERATION     NEWTON
001380:
001381:                                                                                                  #  BIT 13 FLAG 11
001382: 37,2001                        S32.1F3A           =        167D                                  #  BIT 13 AND BIT 12 FUNCTION AS AN ORDERED
001383: 37,2001     5003               S32BIT3A           =        BIT13                                 #  PAIR (13,12) INDICATING THE POSSIBLE OC-
001384:                                                                                                  #  CURRENCE OF 2NEWTON ITERATIONS FOR S32.1
001385:                                                                                                  #  BIT 12 FLAG 11                        IN THE PROGRAM IN THE FOLLOWING ORDER:
001386: 37,2001                        S32.1F3B           =        168D                                  #  (0,1) (I.E. BIT 13 RESET, BIT 12 SET)


001388: 37,2001     5004               S3229T3B           =        BIT12                                 #       = FIRST NEWTON ITERATION BEING DONE
001389:                                                                                                  #  (0,0)= FIRST PASS OF 2ND NEWTON ITER.
001390:                                                                                                  #  (1,1)= 50 FPS STAGE OF 2ND NEWT ITER.
001391:                                                                                                  #  (1,0)= REMAINDER OF 2ND NEWTON ITER.
001392:
001393:                                                                                                  #  BIT 11 FLAG 11
001394:                                                                                                  #                =       169D
001395:
001396:                                                                                                  #  BIT 10 FLAG 11
001397:                                                                                                  #                =       170D
001398:
001399:                                                                                                  #  BIT 9 FLAG 11
001400:                                                                                                  #                =       171D
001401:
001402:                                                                                                  #  BIT 8 FLAG 11
001403:                                                                                                  #                =       172D
001404:
001405:                                                                                                  #  BIT 7 FLAG 11
001406:                                                                                                  #                =       173D
001407:
001408:                                                                                                  #  BIT 6 FLAG 11
001409:                                                                                                  #                =       174D
001410:
001411:                                                                                                  #  BIT 5 FLAG 11
001412:                                                                                                  #                =       175D
001413:
001414:                                                                                                  #  BIT 4 FLAG 11
001415:                                                                                                  #                =       176D
001416:
001417:                                                                                                  #  BIT 3 FLAG 11
001418:                                                                                                  #                =       177D
001419:
001420:                                                                                                  #  BIT 2 FLAG 11
001421:                                                                                                  #                =       178D
001422:
001423:                                                                                                  #  BIT 1 FLAG 11
001424:                                                                                                  #                =       179D
001425:


001427:                                                                                                  #  GENERAL ERASABLE ASSIGNMENTS.
001428:
001429:    0061                                           SETLOC   61
001430:                                                                                                  #  INTERRUPT TEMPORARY STORAGE POOL.     (11D)
001431:
001432:                                                                                                  #  (ITEMP1 THROUGH RUPTREG4)
001433:
001434:                                                                                                  #  ANY OF THESE MAY BE USED AS TEMPORARIES DURING INTERRUPT OR WITH INTERRUPT INHIBITED. THE ITEMP SERIES
001435:                                                                                                  #  IS USED DURING CALLS TO THE EXECUTIVE AND WAITLIST - THE RUPTREGS ARE NOT.
001436:
001437:    0061                        ITEMP1             ERASE
001438:    0062     0061               WAITEXIT           EQUALS   ITEMP1
001439:    0062     0061               EXECTEM1           EQUALS   ITEMP1
001440:
001441:    0062                        ITEMP2             ERASE
001442:    0063     0062               WAITBANK           EQUALS   ITEMP2
001443:    0063     0062               EXECTEM2           EQUALS   ITEMP2
001444:
001445:    0063                        ITEMP3             ERASE
001446:    0064     0063               RUPTSTOR           EQUALS   ITEMP3
001447:    0064     0063               WAITADR            EQUALS   ITEMP3
001448:    0064     0063               NEWPRIO            EQUALS   ITEMP3
001449:
001450:    0064                        ITEMP4             ERASE
001451:    0065     0064               LOCCTR             EQUALS   ITEMP4
001452:    0065     0064               WAITTEMP           EQUALS   ITEMP4
001453:
001454:    0065                        ITEMP5             ERASE
001455:    0066     0065               NEWLOC             EQUALS   ITEMP5
001456:
001457:    0066                        ITEMP6             ERASE
001458:                                                                                                  #  NEWLOC+1      EQUALS  ITEMP6          DP ADDRESS.
001459:
001460:    0067                                           SETLOC   67
001461:    0067                        NEWJOB             ERASE                                          #  MUST BE AT LOC 67 DUE TO WIRING.
001462:
001463:    0070                        RUPTREG1           ERASE
001464:    0071                        RUPTREG2           ERASE
001465:    0072                        RUPTREG3           ERASE
001466:    0073                        RUPTREG4           ERASE
001467:    0074     0073               KEYTEMP1           EQUALS   RUPTREG4
001468:    0074     0073               DSRUPTEM           EQUALS   RUPTREG4
001469:
001470:                                                                                                  #  FLAGWORD RESERVATIONS.                (12D)
001471:
001472:    0074                        STATE              ERASE    +11D
001473:
001474:                                                                                                  #  PAD LOAD FOR DAPS                     (1)
001475:
001476:    0110                        EMDOT              ERASE                                          #  I(1)PL SPS FLOW RATE, SC. AT B+3 KG/CS
001477:


001479:
001480:                                                                                                  #  EXIT FOR V83                          (1D)
001481:    0111                        STATEXIT           ERASE                                          #  I(1) STQ AD RESS F R STATEXP
001482:
001483:                                                                                                  #  UNUSED ERASABLES ********(2)
001484:    0112                        ERASFILL           ERASE    +1
001485:
001486:                                                                                                  #  EXEC TEMPORARIES WHICH MAY BE USED BETWEEN CCS NEWJOBS.
001487:                                                                                                  #  (INTB15+ THROUGH RUPTMXM)             (32D)
001488:    0114                        INTB15+            ERASE                                          #  REFLECTS 15TH BIT OF INDEXABLE ADDRESSES
001489:    0115     0114               DSEXIT             EQUALS   INTB15+                               #  RETURN FOR DSPIN
001490:    0115     0114               EXITEM             EQUALS   INTB15+                               #  RETURN FOR SCALE FACTOR ROUTINE SELECT
001491:    0115     0114               BLANKRET           EQUALS   INTB15+                               #  RETURN FOR 2BLANK
001492:
001493:    0115                        INTBIT15           ERASE                                          #  SIMILAR TO ABOVE.
001494:    0116     0115               WRDRET             EQUALS   INTBIT15                              #  RETURN FOR 5BLANK
001495:    0116     0115               WDRET              EQUALS   INTBIT15                              #  RETURN FOR DSPWD
001496:    0116     0115               DECRET             EQUALS   INTBIT15                              #  RETURN FOR PUTCOM(DEC LOAD)
001497:    0116     0115               21/22REG           EQUALS   INTBIT15                              #  TEMP FOR CHARIN
001498:
001499:                                                                                                  #  THE REGISTERS BETWEEN ADDRWD AND PRIORITY MUST STAY IN THE FOLLOWING ORDER FOR INTERPRETIVE TRACE.
001500:
001501:    0116                        ADDRWD             ERASE                                          #  12 BIT INTERPRETIVE OPERAND SUB-ADDRESS.
001502:    0117                        POLISH             ERASE                                          #  HOLDS CADR MADE FROM POLISH ADDRESS.
001503:    0120     0117               UPDATRET           EQUALS   POLISH                                #  RETURN FOR UPDATNN, UPDATVB
001504:    0120     0117               CHAR               EQUALS   POLISH                                #  TEMP FOR CHARIN
001505:    0120     0117               ERCNT              EQUALS   POLISH                                #  COUNTER FOR ERROR LIGHT RESET
001506:    0120     0117               DECOUNT            EQUALS   POLISH                                #  COUNTER FOR SCALING AND DISPLAY (DEC)
001507:
001508:    0120                        FIXLOC             ERASE                                          #  WORK AREA ADDRESS.
001509:    0121                        OVFIND             ERASE                                          #  SET NON-ZERO ON OVERFLOW.
001510:
001511:    0122                        VBUF               ERASE    +5                                    #  TEMPORARY STORAGE USED FOR VECTORS.
001512:    0130     0122               SGNON              EQUALS   VBUF                                  #  TEMP FOR +,- ON
001513:    0130     0122               NOUNTEM            EQUALS   VBUF                                  #  COUNTER FOR MIXNOUN FETCH
001514:    0130     0122               DISTEM             EQUALS   VBUF                                  #  COUNTER FOR OCTAL DISPLAY VERBS
001515:    0130     0122               DECTEM             EQUALS   VBUF                                  #  COUNTER FOR FETCH (DEC DISPLAY VERBS)
001516:
001517:    0130     0123               SGNOFF             EQUALS   VBUF       +1                         #  TEMP FOR +,- ON
001518:    0130     0123               NVTEMP             EQUALS   VBUF       +1                         #  TEMP FOR NVSUB
001519:    0130     0123               SFTEMP1            EQUALS   VBUF       +1                         #  STORAGE FOR SF CONST HI PART (=SFTEMP2-1)
001520:    0130     0123               HITEMIN            EQUALS   VBUF       +1                         #  TEMP FOR LOAD OF HRS,MIN,SEC
001521:                                                                                                  #  MUST = LOTEMIN-1.
001522:
001523:    0130     0124               CODE               EQUALS   VBUF       +2                         #  FOR DSPIN
001524:    0130     0124               SFTEMP2            EQUALS   VBUF       +2                         #  STORAGE FOR SF CONST LO PART (=SFTEMP1+1)
001525:    0130     0124               LOTEMIN            EQUALS   VBUF       +2                         #  TEMP FOR LOAD OF HRS,MIN,SEC


001527:                                                                                                  #        MUST = HITEMIN+1.
001528:    0130     0125               MIXTEMP            EQUALS   VBUF       +3                         #  FOR MIXNOUN DATA
001529:    0130     0125               SIGNRET            EQUALS   VBUF       +3                         #  RETURN FOR +,- ON
001530:
001531:                                                                                                  #  ALSO MIXTEMP+1 = VBUF+4, MIXTEMP+2 = VBUF+5.
001532:
001533:    0130                        BUF                ERASE    +2                                    #  TEMPORARY SCALAR STORAGE.
001534:    0133                        BUF2               ERASE    +1
001535:    0135     0130               INDEXLOC           EQUALS   BUF                                   #  CONTAINS ADDRESS OF SPECIFIED INDEX.
001536:    0135     0130               SWWORD             EQUALS   BUF                                   #  ADDRESS OF SWITCH WORD.
001537:    0135     0131               SWBIT              EQUALS   BUF        +1                         #  SWITCH BIT WITHIN SWITCH WORD.
001538:    0135                        MPTEMP             ERASE                                          #  TEMPORARY USED IN MULTIPLY AND SHIFT.
001539:    0136     0135               DMPNTEMP           EQUALS   MPTEMP                                #  DMPSUB TEMPORARY
001540:    0136                        DOTINC             ERASE                                          #  COMPONENT INCREMENT FOR DOT SUBROUTINE.
001541:    0137     0136               DVSIGN             EQUALS   DOTINC                                #  DETERMINES SIGN OF DDV RESULT.
001542:    0137     0136               ESCAPE             EQUALS   DOTINC                                #  USED IN ARCSIN/ARCCOS.
001543:    0137     0136               ENTRET             EQUALS   DOTINC                                #  EXIT FROM ENTER
001544:
001545:    0137                        DOTRET             ERASE                                          #  RETURN FROM DOT SUBROUTINE.
001546:    0140     0137               DVNORMCT           EQUALS   DOTRET                                #  DIVIDEND NORMALIZATION COUNT IN DDV.
001547:    0140     0137               ESCAPE2            EQUALS   DOTRET                                #  ALTERNATE ARCSIN/ARCCOS SWITCH.
001548:    0140     0137               WDCNT              EQUALS   DOTRET                                #  CHAR COUNTER FOR DSPWD
001549:    0140     0137               INREL              EQUALS   DOTRET                                #  INPUT BUFFER SELECTOR ( X,Y,Z, REG )
001550:
001551:    0140                        MATINC             ERASE                                          #  VECTOR INCREMENT IN MXV AND VXM.
001552:    0141     0140               MAXDVSW            EQUALS   MATINC                                #  +0 IF DP QUOTIENT IS NEAR ONE - ELSE -1.
001553:    0141     0140               POLYCNT            EQUALS   MATINC                                #  POLYNOMIAL LOOP COUNTER
001554:    0141     0140               DSPMMTEM           EQUALS   MATINC                                #  DSPCOUNT SAVE FOR DSPMM
001555:    0141     0140               MIXBR              EQUALS   MATINC                                #  INDICATOR FOR MIXED OR NORMAL NOUN
001556:
001557:    0141                        TEM1               ERASE                                          #  EXEC TEMP
001558:    0142     0141               POLYRET            EQUALS   TEM1
001559:    0142     0141               DSREL              EQUALS   TEM1                                  #  REL ADDRESS FOR DSPIN
001560:
001561:    0142                        TEM2               ERASE                                          #  EXEC TEMP
001562:    0143     0142               DSMAG              EQUALS   TEM2                                  #  MAGNITUDE STORE FOR DSPIN
001563:    0143     0142               IDADDTEM           EQUALS   TEM2                                  #  MIXNOUN INDIRECT ADDRESS STORAGE
001564:
001565:    0143                        TEM3               ERASE                                          #  EXEC TEMP
001566:    0144     0143               COUNT              EQUALS   TEM3                                  #  FOR DSPIN
001567:
001568:    0144                        TEM4               ERASE                                          #  EXEC TEMP
001569:    0145     0144               LSTPTR             EQUALS   TEM4                                  #  LIST POINTER FOR GRABUSY
001570:    0145     0144               RELRET             EQUALS   TEM4                                  #  RETURN FOR RELDSP
001571:    0145     0144               FREERET            EQUALS   TEM4                                  #  RETURN FOR FREEDSP
001572:    0145     0144               DSPWDRET           EQUALS   TEM4                                  #  RETURN FOR DSPSIGN
001573:    0145     0144               SEPSCRET           EQUALS   TEM4                                  #  RETURN FOR SEPSEC
001574:    0145     0144               SEPMNRET           EQUALS   TEM4                                  #  RETURN FOR SEPMIN
001575:
001576:    0145                        TEM5               ERASE                                          #  EXEC TEMP


001578:    0146     0145               NOUNADD            EQUALS   TEM5                                  #  TEMP STORAGE FOR NOUN ADDRESS
001579:
001580:    0146                        NNADTEM            ERASE                                          #  TEMP FOR NOUN ADDRESS TABLE ENTRY
001581:    0147                        NNTYPTEM           ERASE                                          #  TEMP FOR NOUN TYPE TABLE ENTRY
001582:    0150                        IDAD1TEM           ERASE                                          #  TEMP FOR INDIR ADRESS TABLE ENTRY (MIXNN)
001583:                                                                                                  #  MUST = IDAD2TEM-1, = IDAD3TEM-2.
001584:    0151                        IDAD2TEM           ERASE                                          #  TEMP FOR INDIR ADRESS TABLE ENTRY (MIXNN)
001585:                                                                                                  #  MUST = IDAD1TEM+1, = IDAD3TEM-1.
001586:    0152                        IDAD3TEM           ERASE                                          #  TEMP FOR INDIR ADRESS TABLE ENTRY (MIXNN)
001587:                                                                                                  #  MUST = IDAD1TEM+2, = IDAD2TEM+1.
001588:    0153                        RUTMXTEM           ERASE                                          #  TEMP FOR SF ROUT TABLE ENTRY (MIXNN ONLY)
001589:
001590:                                                                                                  #  AX*SR*T STORAGE.                      (6D)
001591:    0154     0142               DEXDEX             EQUALS   TEM2                                  #  B(1)TMP
001592:    0154     0143               DEX1               EQUALS   TEM3                                  #  B(1)TMP
001593:    0154     0144               DEX2               EQUALS   TEM4                                  #  B(1)TMP
001594:    0154     0145               RTNSAVER           EQUALS   TEM5                                  #  B(1)TMP
001595:    0154     0133               TERM1TMP           EQUALS   BUF2                                  #  B(2)TMP
001596:
001597:    0154     0143               DEXI               =        DEX1
001598:


001600:                                                                                                  #  DYNAMICALLY ALLOCATED CORE SETS FOR JOBS.     (84D)
001601:
001602:    0154                        MPAC               ERASE    +6                                    #  MULTI-PURPOSE ACCUMULATOR.
001603:    0163                        MODE               ERASE                                          #  +1 FOR TP, +0 FOR DP, OR -1 FOR VECTOR.
001604:    0164                        LOC                ERASE                                          #  LOCATION ASSOCIATED WITH JOB.
001605:    0165                        BANKSET            ERASE                                          #  USUALLY CONTAINS BBANK SETTING.
001606:    0166                        PUSHLOC            ERASE                                          #  WORD OF PACKED INTERPRETIVE PARAMETERS.
001607:    0167                        PRIORITY           ERASE                                          #  PRIORITY OF PRESENT JOB AND WORK AREA.
001608:
001609:    0170                                           ERASE    +71D                                  #  SEVEN SETS OF 12 REGISTERS EACH.
001610:
001611:                                                                                                  #  SPECIAL DOWNLINK BUFFER.- OVERLAYED BY P27 STORAGE-
001612:
001613:                                                                                                  #  P27 (UPDATE PROGRAM) STORAGE. -OVERLAYS SPEC DNLNK BUFF- (24D)
001614:
001615:    0300                        COMPNUMB           ERASE    +23D                                  #  B(1)TMP NUMBER OF ITEMS TO BE UPLINKED.
001616:    0330     0301               UPOLDMOD           EQUALS   COMPNUMB   +1                         #  B(1)TMP HOLDS INTERRUPTED PROGRAM NUMBER
001617:    0330     0302               UPVERB             EQUALS   UPOLDMOD   +1                         #  B(1)TMP VERB NUMBER
001618:    0330     0303               UPCOUNT            EQUALS   UPVERB     +1                         #  B(1)TMP UPBUFF INDEX
001619:    0330     0304               UPBUFF             EQUALS   UPCOUNT    +1                         #  B(20D)
001620:
001621:                                                                                                  #  MORE P27 STORAGE.                     (2D)
001622:
001623:    0330                        UPTEMP             ERASE                                          #  B(1)TMP SCRATCH
001624:    0331                        UPVERBSV           ERASE                                          #  B(1)TMP
001625:    0332     0330               INTWAK1Q           EQUALS   UPTEMP                                #  (06D)
001626:                                                                                                  #  (20 REGISTERS OF ENTRY DOWNLINK WILL GO HERE.)
001627:
001628:                                                                                                  #  THE FOLLOWING ARE INDEXED FOR TM. IN ENTRY DAP.
001629:
001630:    0332     0304               CMTMTIME           =        UPBUFF                                #  B(1) (VEHICLE BODY RATE INFO IS
001631:    0332     0305               SW/NDX             =        CMTMTIME   +1                         #  B(1)  TELEMETERED EACH 0.2 SEC. DURING
001632:    0332     0324               ENDBUF             =        CMTMTIME   +16D                       #  B(1)  ENTRY.)
001633:
001634:    0332     0325               V1                 =        ENDBUF     +1                         #  I(2) REENTRY, P64-P65
001635:    0332     0327               A0                 =        V1         +2                         #  I(2) REENTRY, P64-P65
001636:                                                                                                  #  HI-ORDER WORD ONLY ON DNLNK.
001637:
001638:                                                                                                  #  ALIGNMENT STORAGE.                    (5D)
001639:                                                                                                  #  (CANNOT SHARE WITH PRECISION INTEGRATION OR KEPLER STORAGE.)
001640:
001641:    0332     0300               QMAJ               EQUALS   COMPNUMB                              #  B(1)TMP
001642:    0332     0301               MARKINDX           EQUALS   QMAJ       +1                         #  B(1)TMP
001643:    0332     0302               BESTI              EQUALS   MARKINDX   +1                         #  I(1)TMP
001644:    0332     0303               BESTJ              EQUALS   BESTI      +1                         #  I(1)TMP
001645:    0332     0304               STARIND            EQUALS   BESTJ      +1                         #  I(1)TMP
001646:


001648:                                                                                                  #  ALIGNMENT/S40.2,3 COMMON STORAGE.     (18D)
001649:
001650:    0332     0306               XSMD               EQUALS   UPBUFF     +2                         #  I(6)TMP
001651:    0332     0314               YSMD               EQUALS   XSMD       +6                         #  I(6)TMP
001652:    0332     0322               ZSMD               EQUALS   YSMD       +6                         #  I(6)TMP
001653:
001654:    0332     0306               XSCREF             =        XSMD                                  #  SPACE CRAFT AXES IN REF COORDS.
001655:    0332     0314               YSCREF             =        YSMD
001656:    0332     0322               ZSCREF             =        ZSMD
001657:    0332                        ZPRIME             =        22D
001658:    0332                        PDA                =        22D
001659:    0332                        COSTH              =        16D
001660:    0332                        SINTH              =        18D
001661:    0332                        THETA              =        20D
001662:    0332                        STARM              =        32D
001663:
001664:                                                                                                  #  DOWNLINK STORAGE.                     (18)
001665:
001666:    0332     0332               DNLSTADR           EQUALS   DNLSTCOD                              #  CONTENTS NO LONGER AN ADDR BUT A CODE
001667:
001668:    0332                        DNLSTCOD           ERASE                                          #  B(1)PRM ID CODE OF DOWNLIST
001669:    0333                        DUMPCNT            ERASE                                          #  B(1)PRM
001670:    0334                        LDATALST           ERASE                                          #  B(1)
001671:    0335                        DNTMGOTO           ERASE                                          #  B(1)
001672:    0336                        TMINDEX            ERASE                                          #  B(1)
001673:    0337     0336               DUMPLOC            EQUALS   TMINDEX                               #  CONTAINS ECADR OF AGC DP WORD BEING DUMP
001674:                                                                                                  #  ED AND COUNT OF COMPLETE DUMPS ALREADY S
001675:                                                                                                  #  ENT.
001676:    0337                        DNQ                ERASE                                          #  B(1)
001677:    0340                        DNTMBUFF           ERASE    +11D                                  #  B(12)PRM DOWNLINK SNAPSHOT BUFFER
001678:
001679:                                                                                                  #  OPTICS MARKING . UNSHARED.            (8D)
001680:
001681:    0354                        MKNDX              ERASE
001682:    0355                        MKT2T1             ERASE    +1
001683:    0357                        MKCDUY             ERASE
001684:    0360                        MKCDUS             ERASE
001685:    0361                        MKCDUZ             ERASE
001686:    0362                        MKCDUT             ERASE
001687:    0363                        MKCDUX             ERASE
001688:
001689:                                                                                                  #  FOR EXCLUSIVE USE OF SYS TEST STANDARD LEAD INS       (2)
001690:    0364                        EBUF2              ERASE    +1                                    #  B(2) UNSHARED
001691:


001693:                                                                                                  #  UNSWITCHED FOR DISPLAY INTERFACE ROUTINES.    (10D)
001694:
001695:    0366                        RESTREG            ERASE                                          #  B(1)PRM FOR DISPLAY RESTARTS
001696:    0367                        NVWORD             ERASE
001697:    0370                        MARKNV             ERASE
001698:    0371                        NVSAVE             ERASE
001699:                                                                                                  #  (RETAIN THE ORDER OF CADRFLSH TO FAILREG +2 FOR DOWNLINK PURPOSES)
001700:    0372                        CADRFLSH           ERASE                                          #  B(1)TMP
001701:    0373                        CADRMARK           ERASE                                          #  B(1)TMP
001702:    0374                        TEMPFLSH           ERASE                                          #  B(1)TMP
001703:    0375                        FAILREG            ERASE    +2                                    #  B(3)PRM 3 ALARM-ABORT USER'S 2CADR
001704:
001705:    0400                                           SETLOC   400
001706:
001707:                                                                                                  #  VAC AREAS. -BE CAREFUL OF PLACEMENT-  (220D)
001708:
001709:    0400                        VAC1USE            ERASE                                          #  B(1)PRM
001710:    0401                        VAC1               ERASE    +42D                                  #  B(43)PRM
001711:    0454                        VAC2USE            ERASE                                          #  B(1)PRM
001712:    0455                        VAC2               ERASE    +42D                                  #  B(43)PRM
001713:    0530                        VAC3USE            ERASE                                          #  B(1)PRM
001714:    0531                        VAC3               ERASE    +42D                                  #  B(43)PRM
001715:    0604                        VAC4USE            ERASE                                          #  B(1)PRM
001716:    0605                        VAC4               ERASE    +42D                                  #  B(43)PRM
001717:    0660                        VAC5USE            ERASE                                          #  B(1)PRM
001718:    0661                        VAC5               ERASE    +42D                                  #  B(43)PRM
001719:
001720:                                                                                                  #  WAITLIST REPEAT FLAG.                 (1D)
001721:    0734                        RUPTAGN            ERASE                                          #  B(1)PRM
001722:    0735     0734               KEYTEMP2           =        RUPTAGN
001723:
001724:                                                                                                  #  STARALIGN ERASABLES.                          (13D)
001725:
001726:    0735                        STARCODE           ERASE                                          #  B(1)DSP NOUN 70 FOR P22,51 AND R52,53.
001727:    0736                        STARALGN           ERASE    +11D
001728:    0752     0736               SINCDU             =        STARALGN
001729:    0752     0744               COSCDU             =        STARALGN   +6
001730:
001731:    0752     0742               SINCDUX            =        SINCDU     +4
001732:    0752     0736               SINCDUY            =        SINCDU
001733:    0752     0740               SINCDUZ            =        SINCDU     +2
001734:    0752     0750               COSCDUX            =        COSCDU     +4
001735:    0752     0744               COSCDUY            =        COSCDU
001736:    0752     0746               COSCDUZ            =        COSCDU     +2
001737:
001738:                                                                                                  #  PHASE TABLE AND RESTART COUNTERS.             (12D)


001740:
001741:    0752                        -PHASE1            ERASE                                          #  B(1)PRM
001742:    0753                        PHASE1             ERASE                                          #  B(1)PRM
001743:    0754                        -PHASE2            ERASE                                          #  B(1)PRM
001744:    0755                        PHASE2             ERASE                                          #  B(1)PRM
001745:    0756                        -PHASE3            ERASE                                          #  B(1)PRM
001746:    0757                        PHASE3             ERASE                                          #  B(1)PRM
001747:    0760                        -PHASE4            ERASE                                          #  B(1)PRM
001748:    0761                        PHASE4             ERASE                                          #  B(1)PRM
001749:    0762                        -PHASE5            ERASE                                          #  B(1)PRM
001750:    0763                        PHASE5             ERASE                                          #  B(1)PRM
001751:    0764                        -PHASE6            ERASE                                          #  B(1)PRM
001752:    0765                        PHASE6             ERASE                                          #  B(1)PRM
001753:
001754:                                                                                                  #  AX*SR*T STORAGE.                      (6D)
001755:
001756:    0766                        CDUSPOT            ERASE    +5                                    #  B(6)
001757:
001758:    0774     0766               CDUSPOTY           =        CDUSPOT
001759:    0774     0770               CDUSPOTZ           =        CDUSPOT    +2
001760:    0774     0772               CDUSPOTX           =        CDUSPOT    +4
001761:
001762:                                                                                                  #  VERB 37 STORAGE.                      (2D)
001763:
001764:    0774                        MINDEX             ERASE                                          #  B(1)TMP INDEX FOR MAJOR MODE
001765:    0775                        MMNUMBER           ERASE                                          #  B(1)TMP MAJOR MODE REQUESTED VIA V37
001766:
001767:                                                                                                  #  PINBALL INTERRUPT STORAGE.            (1D)
001768:
001769:    0776                        DSPCNT             ERASE                                          #  B(1)PRM DSPOUT COUNTER
001770:
001771:                                                                                                  #  PINBALL EXECUTIVE ACTION.             (44D)
001772:
001773:    0777                        DSPCOUNT           ERASE                                          #  DISPLAY POSITION INDICATOR
001774:    1000                        DECBRNCH           ERASE                                          #  +DEC, -DEC, OCT INDICATOR
001775:    1001                        VERBREG            ERASE                                          #  VERB CODE
001776:    1002                        NOUNREG            ERASE                                          #  NOUN CODE
001777:    1003                        XREG               ERASE                                          #  R1 INPUT BUFFER
001778:    1004                        YREG               ERASE                                          #  R2 INPUT BUFFER
001779:    1005                        ZREG               ERASE                                          #  R3 INPUT BUFFER
001780:    1006                        XREGLP             ERASE                                          #  LO PART OF XREG (FOR DEC CONV ONLY)
001781:    1007                        YREGLP             ERASE                                          #  LO PART OF YREG (FOR DEC CONV ONLY)
001782:    1010     1007               HITEMOUT           =        YREGLP                                #  TEMP FOR DISPLAY OF HRS,MIN,SEC
001783:                                                                                                  #        MUST = LOTEMOUT-1.
001784:    1010                        ZREGLP             ERASE                                          #  LO PART OF ZREG (FOR DEC CONV ONLY)
001785:    1011     1010               LOTEMOUT           =        ZREGLP                                #  TEMP FOR DISPLAY OF HRS,MIN,SEC
001786:                                                                                                  #        MUST = HITEMOUT+1.


001788:    1011                        MODREG             ERASE                                          #  MODE CODE
001789:    1012                        DSPLOCK            ERASE                                          #  KEYBOARD/SUBROUTINE CALL INTERLOCK
001790:    1013                        REQRET             ERASE                                          #  RETURN REGISTER FOR LOAD
001791:    1014                        LOADSTAT           ERASE                                          #  STATUS INDICATOR FOR LOADTST
001792:    1015                        CLPASS             ERASE                                          #  PASS INDICATOR CLEAR
001793:    1016                        NOUT               ERASE                                          #  ACTIVITY COUNTER FOR DSPTAB
001794:    1017                        NOUNCADR           ERASE                                          #  MACHINE CADR FOR NOUN
001795:    1020                        MONSAVE            ERASE                                          #  N/V CODE FOR MONITOR. (= MONSAVE1-1)
001796:    1021                        MONSAVE1           ERASE                                          #  NOUNCADR FOR MONITOR (MATBS) = MONSAVE+1
001797:    1022                        MONSAVE2           ERASE                                          #  B(1)PRM NVMONOPT OPTIONS
001798:    1023                        DSPTAB             ERASE    +11D                                  #  0-10D, DISPLAY PANEL BUFF.  11D, C/S LTS.
001799:    1037                        NVQTEM             ERASE                                          #  NVSUB STORAGE FOR CALLING ADDRESS
001800:                                                                                                  #  MUST = NVBNKTEM-1
001801:    1040                        NVBNKTEM           ERASE                                          #  NVSUB STORAGE FOR CALLING BANK
001802:                                                                                                  #  MUST = NVQTEM+1
001803:    1041                        VERBSAVE           ERASE                                          #  NEEDED FOR RECYCLE
001804:    1042                        CADRSTOR           ERASE                                          #  ENDIDLE STORAGE
001805:    1043                        DSPLIST            ERASE                                          #  WAITING REG FOR DSP SYST INTERNAL USE
001806:    1044                        EXTVBACT           ERASE                                          #  EXTENDED VERB ACTIVITY INTERLOCK
001807:    1045                        DSPTEM1            ERASE    +2                                    #  BUFFER STORAGE AREA 1 (MOSTLY FOR TIME)
001808:    1050                        DSPTEM2            ERASE    +2                                    #  BUFFER STORAGE AREA 2 (MOSTLY FOR DEG)
001809:
001810:    1053     1051               DSPTEMX            EQUALS   DSPTEM2    +1                         #  B(2) S-S DISPLAY BUFFER FOR EXT. VERBS.
001811:    1053     1045               NORMTEM1           EQUALS   DSPTEM1                               #  B(3)DSP NORMAL DISPLAY REGISTERS.
001812:
001813:                                                                                                  #  DISPLAY FOR EXTENDED VERBS            (2D)
001814:
001815:    1053     1051               OPTIONX            EQUALS   DSPTEMX                               #  B(2) EXTENDED VERB OPTION CODE  N12(V82)
001816:
001817:                                                                                                  #  TBASE S AND PHSPRDT S.                (12D)
001818:
001819:    1053                        TBASE1             ERASE                                          #  B(1)PRM
001820:    1054                        PHSPRDT1           ERASE                                          #  B(1)PRM
001821:    1055                        TBASE2             ERASE                                          #  B(1)PRM
001822:    1056                        PHSPRDT2           ERASE                                          #  B(1)PRM
001823:    1057                        TBASE3             ERASE                                          #  B(1)PRM
001824:    1060                        PHSPRDT3           ERASE                                          #  B(1)PRM
001825:    1061                        TBASE4             ERASE                                          #  B(1)PRM
001826:    1062                        PHSPRDT4           ERASE                                          #  B(1)PRM
001827:    1063                        TBASE5             ERASE                                          #  B(1)PRM
001828:    1064                        PHSPRDT5           ERASE                                          #  B(1)PRM
001829:    1065                        TBASE6             ERASE                                          #  B(1)PRM
001830:    1066                        PHSPRDT6           ERASE                                          #  B(1)PRM
001831:
001832:                                                                                                  #  MORE UNSWITCHED FOR DISPLAY INF       (5D).


001834:    1067                        EBANKSAV           ERASE
001835:    1070                        MARKEBAN           ERASE
001836:    1071                        EBANKTEM           ERASE
001837:    1072                        MARK2PAC           ERASE
001838:    1073                        R1SAVE             ERASE
001839:
001840:                                                                                                  #  IMU COMPENSATION UNSWITCHED ERASABLE. (1D)
001841:
001842:    1074                        1/PIPADT           ERASE                                          #  B(1)PRM
001843:    1075     1074               OLDBT1             =        1/PIPADT
001844:
001845:                                                                                                  #  SINGLE PRECISION SUBROUTINE TEMPORARIES.      (3D)
001846:                                                                                                  #  SPSIN, SPCOS, SPROOT VARIABLES.
001847:                                                                                                  #  DO NOT SHARE.  THESE ARE USED BY DAPS IN INTERRUPT
001848:                                                                                                  #  AND CURRENTLY ARE NOT PROTECTED.  IF OTHER USERS
001849:                                                                                                  #  MATERIALIZE, THEN THIS CAN BE CHANGED.
001850:
001851:    1075                        HALFY              ERASE
001852:    1076                        ROOTRET            ERASE
001853:    1077                        SQRARG             ERASE
001854:    1100     1075               TEMK               EQUALS   HALFY
001855:    1100     1076               SQ                 EQUALS   ROOTRET
001856:


001858:                                                                                                  #  UNSWITCHED FOR ORBIT INTEGRATION.     (21D)
001859:
001860:    1100                        TDEC               ERASE    +20D                                  #  I(2)
001861:    1125     1102               COLREG             EQUALS   TDEC       +2                         #  I(1)
001862:    1125     1103               LAT                EQUALS   COLREG     +1                         #  I(2)DSP NOUN 43,67 FOR P20,22,51 R52,53.
001863:    1125     1103               LANDLAT            =        LAT                                   #          NOUN 89    FOR P22.
001864:    1125     1105               LONG               EQUALS   LAT        +2                         #  I(2)DSP NOUN 43,67 FOR P20,22,51 R52,53.
001865:    1125     1107               ALT                EQUALS   LONG       +2                         #  I(2)DSP NOUN 43    FOR P20,22,51 R52,53.
001866:    1125     1111               YV                 EQUALS   ALT        +2                         #  I(6)
001867:    1125     1117               ZV                 EQUALS   YV         +6                         #  I(6)
001868:
001869:                                                                                                  #  MARK STORAGE.                         (2)
001870:
001871:    1125                        VHFCNT             ERASE                                          #  B(1)PRM NO. OF VHF MARKS (P20 (R22)).
001872:    1126                        TRKMKCNT           ERASE                                          #  B(1)PRM NO. OF VHF MARKS (P20 (R22)).
001873:
001874:    1127     1126               MARKCTR            =        TRKMKCNT                              #  B(1) MARK COUNTER USED BY R32
001875:
001876:                                                                                                  #  MISCELLANEOUS UNSWITCHED.             (16D)
001877:
001878:    1127                        IRETURN1           ERASE                                          #  B(1) RET ADDR USED BY MIDTOAV1 AND 2
001879:                                                                                                  #  CALLED BY P40,P41,P42, P61,P62
001880:    1130                        RATEINDX           ERASE                                          #   (1) USED BY KALCMANU
001881:    1131                        OPTION1            ERASE                                          #  B(1) NOUN 06 USES THIS
001882:    1132                        OPTION2            ERASE                                          #  B(1) NOUN 06 USES THIS
001883:    1133                        LONGCADR           ERASE    +1                                    #  B(2) LONGCALL REGISTER
001884:    1135                        LONGBASE           ERASE    +1                                    #  B(2) LONGCALL REGISTER
001885:    1137                        LONGTIME           ERASE    +1                                    #  B(2) LONGCALL REGISTER
001886:    1141                        DELAYLOC           ERASE    +3
001887:    1145                        NVWORD1            ERASE                                          #  B(1)
001888:    1146                        TEMPR60            ERASE                                          #  B(1)
001889:    1147                        PRIOTIME           ERASE                                          #  B(1)
001890:    1150     1127               P30/RET            EQUALS   IRETURN1
001891:
001892:                                                                                                  #  MISC. INCLUDING RESTART COUNTER, GIMBAL ANGLE SAVE AND
001893:                                                                                                  #  STANDBY VERB ERASABLES.  REDOCTR BEFORE THETAD (DWNLNK)       (16D)
001894:
001895:    1150                        TIME2SAV           ERASE    +1                                    #  B(2)TMP
001896:    1152                        SCALSAVE           ERASE    +1                                    #  B(2)TMP
001897:    1154                        REDOCTR            ERASE                                          #  B(1)PRM CONTAINS NUMBER OF RESTARTS.
001898:    1155                        THETAD             ERASE    +2                                    #  B(3)PRM DESIRED GIM ANGLES FOR MANEUVER.
001899:    1160     1155               CPHI               =        THETAD                                #        (OUTER)
001900:    1160     1156               CTHETA             =        THETAD     +1                         #        (INNER)
001901:    1160     1157               CPSI               =        THETAD     +2                         #        (MIDDLE)


001903:                                                                                                  #  ENTRY VARIABLES SHARED FOR TM.
001904:    1160     1155               RDOTREF            =        THETAD                                #  I(2)  P65
001905:    1160     1157               VREF               =        RDOTREF    +2                         #  I(2)  P65     HI-ORDER WORD ONLY DNLNK'D
001906:    1160                        DESOPTT            ERASE                                          #  B(1)DSP NOUN 92 FOR P20,22,52, R52.
001907:    1161                        DESOPTS            ERASE                                          #  B(1)DSP NOUN 92 FOR P20,22,52, R52.
001908:
001909:    1162                        DELV               ERASE    +5                                    #  I(6)
001910:    1170     1162               DELVX              =        DELV
001911:    1170     1164               DELVY              =        DELV       +2
001912:    1170     1166               DELVZ              =        DELV       +4
001913:
001914:                                                                                                  #  P20, CONICS   (SHARING WITH TIME 2 SAV AND SCAL SAV ONLY)     (3D)
001915:    1170     1150               POINTEX            EQUALS   TIME2SAV                              #  I(1) POINT AXS EXIT
001916:    1170     1151               VHFTIME            EQUALS   POINTEX    +1                         #  I(2) DOWNLINK OF VHF RANGE TIME +1M
001917:
001918:                                                                                                  #  PERM STATE VECTORS FOR BOOST AND DOWNLINK -WHOLE MISSION-     (14D)
001919:
001920:    1170                        RN                 ERASE    +5                                    #  B(6)PRM
001921:    1176                        VN                 ERASE    +5                                    #  B(6)PRM
001922:    1204                        PIPTIME            ERASE    +1                                    #  B(2)PRM (MUST BE FOLLOWED BY GDT/2)
001923:
001924:                                                                                                  #  SERVICER STORAGE.                             (45D)
001925:
001926:                                                                                                  #  (SERVICER STORAGE AND P11 STORAGE IN UNSWITHCHED SHOULD NOT
001927:                                                                                                  #  OVERLAY EACH OTHER AND THE TOTAL ERASABLE REQUIRED SHOULD NOT
001928:                                                                                                  #  EXCEED THE ERASABLE STORAGE REQUIRED BY RENDEZVOUS GUIDANCE)
001929:
001930:    1206     1206               GDT/2              EQUALS   PIPTIME    +2                         #  B(6)TMP       (MUST FOLLOW PIPTIME)
001931:    1206     1214               GOBL/2             EQUALS   GDT/2      +6                         #  B(6)TMP
001932:    1206     1222               AVEGEXIT           EQUALS   GOBL/2     +6                         #  B(2)TMP
001933:    1206     1222               AVGEXIT            =        AVEGEXIT
001934:    1206     1224               TEMX               EQUALS   AVEGEXIT   +2                         #  B(1)TMP
001935:    1206     1225               TEMY               EQUALS   TEMX       +1                         #  B(1)TMP
001936:    1206     1226               TEMZ               EQUALS   TEMY       +1                         #  B(1)TMP
001937:    1206     1227               PIPCTR             EQUALS   TEMZ       +1                         #  B(1)TMP
001938:    1206     1230               PIPAGE             EQUALS   PIPCTR     +1                         #  B(1)TMP
001939:
001940:    1206     1231               RN1                EQUALS   PIPAGE     +1                         #  B(6)TMP
001941:    1206     1237               VN1                EQUALS   RN1        +6                         #  B(6)TMP
001942:    1206     1245               PIPTIME1           EQUALS   VN1        +6                         #  B(2)TMP
001943:    1206     1247               GDT1/2             EQUALS   PIPTIME1   +2                         #  B(6)TMP
001944:    1206     1255               GOBL1/2            EQUALS   GDT1/2     +6                         #  B(6)TMP
001945:


001947:                                                                                                  #  ENTRY STORAGE.                        (1D)
001948:    1206     1263               ENTRYVN            EQUALS   GOBL1/2    +6                         #  B(1)TMP VN CODE FOR ENTRY DISPLAYS P60S.
001949:
001950:                                                                                                  #  P11 STORAGE.                          (9D)
001951:    1206     1263               PADLONG            EQUALS   ENTRYVN                               #  (2)PL LONGITUDE OF LAUNCH PAD
001952:    1206     1265               LIFTTEMP           EQUALS   PADLONG    +2                         #  (2)TMP
001953:    1206     1267               TEPHEM1            EQUALS   LIFTTEMP   +2                         #  (3)TMP
001954:    1206     1272               PGNCSALT           EQUALS   TEPHEM1    +3                         #  (2)PL ALTITUDE
001955:
001956:                                                                                                  #  RENDEZVOUS NAVIGATION STORAGE.  (SEE COMMENT IN SERVICER STORAGE)     (58D)
001957:    1206                        CSMPOS             ERASE    +57D                                  #  I(6)TMP
001958:    1300     1214               LEMPOS             EQUALS   CSMPOS     +6                         #  I(6)TMP
001959:    1300     1222               RCL                EQUALS   LEMPOS     +6                         #  I(2)TMP
001960:    1300     1224               MARKTIME           EQUALS   RCL        +2                         #  B(2)TMP
001961:    1300     1226               VTEMP              EQUALS   MARKTIME   +2                         #  B(6)TMP
001962:    1300     1234               UM                 EQUALS   VTEMP      +6                         #  I(6)TMP
001963:    1300     1242               MARKDATA           EQUALS   UM         +6                         #  B(2)TMP
001964:    1300     1244               USTAR              EQUALS   MARKDATA   +2                         #  I(6)TMP
001965:    1300     1252               WIXA               EQUALS   USTAR      +6                         #  B(1)TMP
001966:    1300     1253               WIXB               EQUALS   WIXA       +1                         #  B(1)TMP
001967:    1300     1254               ZIXA               EQUALS   WIXB       +1                         #  B(1)TMP
001968:    1300     1255               ZIXB               EQUALS   ZIXA       +1                         #  B(1)TMP
001969:    1300     1256               DELTAX             EQUALS   ZIXB       +1                         #  I(18)TMP
001970:
001971:    1300     1256               VHFRANGE           EQUALS   DELTAX                                #  (2)
001972:    1300     1272               UCL                EQUALS   DELTAX     +12D                       #  (6)   LM-CSM LINE OF SIGHT 1/2 UNIT V
001973:
001974:                                                                                                  #  **** CONICSEX (MEAS INC) ****
001975:    1300     1256               TRIPA              EQUALS   DELTAX
001976:    1300     1261               TEMPVAR            EQUALS   DELTAX     +3
001977:
001978:    1300                        TEMPOR1            ERASE    +1                                    #  B(2)TMP
001979:
001980:                                                                                                  #  T4RUPT ERASABLE.                      (6D)
001981:
001982:    1302                        DSRUPTSW           ERASE
001983:    1303                        OPTIND             ERASE
001984:    1304                        LGYRO              ERASE
001985:    1305                        COMMANDO           ERASE    +1
001986:


001988:    1307                        ZONE               ERASE                                          #  B(1)PRM USED IN SHAFT STOP MONITOR
001989:    1310  0000035               LASTYCMD           =        OPTY                                  #  DUMMY TO MAKE RR BENCH TEST ASSEMBLE
001990:    1310  0000035               LASTXCMD           =        OPTY                                  #  DUMMY TO MAKE RR BENCH TEST ASSEMBLE
001991:
001992:                                                                                                  #  UNSWITCHED DAP ERASABLE.              (4D)
001993:    1310                        T6LOC              ERASE
001994:    1311                        T6ADR              ERASE
001995:    1312                        T5LOC              ERASE    +1
001996:
001997:                                                                                                  #  MODE SWITCHING ERASABLE.              (14D)
001998:    1314                        SWSAMPLE           ERASE                                          #  B(1)PRM
001999:    1315                        DESOPMOD           ERASE                                          #  B(1)PRM
002000:    1316                        WTOPTION           ERASE                                          #  B(1)PRM
002001:    1317                        ZOPTCNT            ERASE                                          #  B(1)PRM
002002:    1320                        IMODES30           ERASE                                          #  B(1)PRM
002003:    1321                        IMODES33           ERASE                                          #  B(1)PRM
002004:    1322                        MODECADR           ERASE    +2                                    #  B(3)TMP
002005:    1325     1322               IMUCADR            =        MODECADR
002006:    1325     1323               OPTCADR            =        MODECADR   +1
002007:    1325     1324               RADCADR            =        MODECADR   +2
002008:    1325                        ATTCADR            ERASE    +2                                    #  B(3)PRM
002009:    1330     1327               ATTPRIO            =        ATTCADR    +2
002010:    1330                        MARKSTAT           ERASE                                          #  B(1)PRM
002011:    1331                        OPTMODES           ERASE                                          #  B(1)PRM
002012:
002013:                                                                                                  #  RCSDAP ERASABLE.                      (1D)
002014:    1332                        HOLDFLAG           ERASE                                          #  B(1)PRM
002015:
002016:                                                                                                  #  CRS61.1 STORAGE.  -USED IN R63 (VERB 89)-     (5D)
002017:    1333                        CPHIX              ERASE    +2                                    #  B(3)DSP NOUN 96 CALCULATED BY CRS61.1
002018:
002019:    1336                        TEVENT             ERASE    +1                                    #  B(2) TIME OF EVENT FOR DOWNLIST
002020:    1340     1336               TLIFTOFF           =        TEVENT
002021:


002023:                                                                                                  #  P34-P35 STORAGE                       (1D)
002024:    1340                        NORMEX             ERASE
002025:
002026:                                                                                                  #  SELF-CHECK ASSIGNMENTS.               (17D)
002027:
002028:                                                                                                  #                         (DO NOT MOVE, S-C IS ADDRESS SENSITIVE)
002029:
002030:    1341                        SELFERAS           ERASE    1357       -          1377            #  *** MUST NOT BE MOVED ***
002031:    1341     1357               SFAIL              EQUALS   SELFERAS                              #  B(1)
002032:    1341     1360               ERESTORE           EQUALS   SFAIL      +1                         #  B(1)
002033:    1341     1361               SELFRET            EQUALS   ERESTORE   +1                         #  B(1) RETURN
002034:    1341     1362               SMODE              EQUALS   SELFRET    +1                         #  B(1)
002035:    1341     1363               ALMCADR            EQUALS   SMODE      +1                         #  B(2) ALARM-ABORT USER'S 2CADR
002036:    1341     1365               ERCOUNT            EQUALS   ALMCADR    +2                         #  B(1)
002037:    1341     1366               SCOUNT             EQUALS   ERCOUNT    +1                         #  B(3)
002038:    1341     1371               SKEEP1             EQUALS   SCOUNT     +3                         #  B(1)
002039:    1341     1372               SKEEP2             EQUALS   SKEEP1     +1                         #  B(1)
002040:    1341     1373               SKEEP3             EQUALS   SKEEP2     +1                         #  B(1)
002041:    1341     1374               SKEEP4             EQUALS   SKEEP3     +1                         #  B(1)
002042:    1341     1375               SKEEP5             EQUALS   SKEEP4     +1                         #  B(1)
002043:    1341     1376               SKEEP6             EQUALS   SKEEP5     +1                         #  B(1)
002044:    1341     1377               SKEEP7             EQUALS   SKEEP6     +1                         #  B(1)
002045:
002046:                                                                                                  #  USED BY P30 ROUTINES TO WRITE ONLY NEVER READ IN COLOSSUS
002047:
002048:    1341  0000000               DISPDEX            EQUALS   A
002049:
002050:                                                                                                  #  ERASABLE FOR SXTMARK CDU CHECK DELAY.  -PAD LOADED-   (1D)
002051:
002052:    1341                        CDUCHKWD           ERASE                                          #  B(1)PL
002053:
002054:                                                                                                  #  R57 STORAGE. -MUST BE UNSHARED EXCEPT IN BOOST OR ENTRY-      (1D)
002055:
002056:    1342                        TRUNBIAS           ERASE                                          #  B(1)PRM RESULT OF R57 CALIBR OF TRUNION
002057:
002058:                                                                                                  #  KEPLER STORAGE                                (6D)
002059:
002060:    1343                        XMODULO            ERASE    +1                                    #  I(2) GREATER 2PI KEPLER
002061:    1345                        TMODULO            ERASE    +1                                    #  I(2) GREATER 2 KEPLER
002062:    1347                        EPSILONT           ERASE    +1                                    #  I(2)TMP
002063:


002065:                                                                                                  #  P37   ** RETURN TO EARTH (PAD LOAD) ****      (2D)
002066:
002067:    1351                        RTED1              ERASE    +1                                    #  I(2)PL VGAMMA POLY COEF               B-3
002068:
002069:                                                                                                  #  P40   *** STEERING ROUTINE *** PAD LOAD       (1D)
002070:
002071:    1353                        DVTHRESH           ERASE                                          #  I(1)PL DELTA VTHRESHOLD FOR LOW THRUST
002072:                                                                                                  #         ROUTINE                        B-2
002073:
002074:                                                                                                  #  P23   *** PAD LOAD ****               (2D)
002075:
002076:    1354                        HORIZALT           ERASE    +1                                    #  I(2)PL HORIZION ALTITUDE           M B-29
002077:
002078:                                                                                                  #  P-20  ALTERNATE LOS VARIANCE  PAD LOAD *****  (1D)
002079:                                                                                                  #                                                                          -16
002080:    1356                        ALTVAR             ERASE                                          #  I(2)PL MILLARD. SQUARED SCALED 2
002081:    1357     1377               END-UE             EQUALS   SELFERAS   +16D                       #  LAST USED UNSWITCHED ERASABLE
002082:


002084:                                                                                                  #  EBANK-3 ASSIGNMENTS
002085:
002086: E3,1400                                           SETLOC   1400
002087:
002088:                                                                                                  #  WAITLIST TASK LISTS.                  (26D)
002089:
002090: E3,1400                        LST1               ERASE    +7                                    #  B(8D)PRM DELTA T S.
002091: E3,1410                        LST2               ERASE    +17D                                  #  B(18D)PRM TASK 2CADR ADDRESSES.
002092:
002093:                                                                                                  #  RESTART STORAGE.                      (2D)
002094:
002095: E3,1432                        RSBBQ              ERASE    +1                                    #  B(2)PRM SAVE BB AND Q FOR RESTARTS.
002096:
002097:                                                                                                  #  MORE LONGCALL STORAGE.  (MUST BE IN LST1 S BANK).     (2D)
002098:
002099: E3,1434                        LONGEXIT           ERASE    +1                                    #  B(2)TMP MAY BE SELDOM OVERLAYED.
002100:
002101:                                                                                                  #  PHASE-CHANGE LISTS PART II.           (12D)
002102:
002103:
002104: E3,1436                        PHSNAME1           ERASE                                          #  B(1)PRM
002105: E3,1437                        PHSBB1             ERASE                                          #  B(1)PRM
002106: E3,1440                        PHSNAME2           ERASE                                          #  B(1)PRM
002107: E3,1441                        PHSBB2             ERASE                                          #  B(1)PRM
002108: E3,1442                        PHSNAME3           ERASE                                          #  B(1)PRM
002109: E3,1443                        PHSBB3             ERASE                                          #  B(1)PRM
002110: E3,1444                        PHSNAME4           ERASE                                          #  B(1)PRM
002111: E3,1445                        PHSBB4             ERASE                                          #  B(1)PRM
002112: E3,1446                        PHSNAME5           ERASE                                          #  B(1)PRM
002113: E3,1447                        PHSBB5             ERASE                                          #  B(1)PRM
002114: E3,1450                        PHSNAME6           ERASE                                          #  B(1)PRM
002115: E3,1451                        PHSBB6             ERASE                                          #  B(1)PRM
002116:
002117:                                                                                                  #  IMU COMPENSATION PARAMETERS.          (22D)
002118:
002119: E3,1452                        PBIASX             ERASE                                          #  B(1)  PIPA BIAS, PIPA SCALE FACTR TERMS
002120: E3,1453  E3,1452               PIPABIAS           =        PBIASX                                #        INTERMIXED.
002121: E3,1453                        PIPASCFX           ERASE
002122: E3,1454  E3,1453               PIPASCF            =        PIPASCFX
002123: E3,1454                        PBIASY             ERASE
002124: E3,1455                        PIPASCFY           ERASE
002125: E3,1456                        PBIASZ             ERASE
002126: E3,1457                        PIPASCFZ           ERASE
002127:
002128: E3,1460                        NBDX               ERASE                                          #  GYRO BIAS DRIFTS
002129: E3,1461  E3,1460               GBIASX             =        NBDX
002130: E3,1461                        NBDY               ERASE


002132: E3,1462                        NBDZ               ERASE
002133:
002134: E3,1463                        ADIAX              ERASE                                          #  ACCELERATION SENSITIVE DRIFT ALONG THE
002135: E3,1464                        ADIAY              ERASE                                          #  INPUT AXIS
002136: E3,1465                        ADIAZ              ERASE
002137:
002138: E3,1466                        ADSRAX             ERASE                                          #  ACCELERATION SENSITIVE DRIFT ALONG THE
002139: E3,1467                        ADSRAY             ERASE                                          #  SPIN REFERENCE AXIS
002140: E3,1470                        ADSRAZ             ERASE
002141:
002142: E3,1471                        GCOMP              ERASE    +5                                    #  CONTAINS COMPENSATING TORQUES
002143:
002144: E3,1477                        GCOMPSW            ERASE
002145: E3,1500  E3,1471               COMMAND            EQUALS   GCOMP
002146: E3,1500  E3,1474               CDUIND             EQUALS   GCOMP      +3
002147:
002148:                                                                                                  #  STATE VECTORS FOR ORBIT INTEGRATION.  (44D)
002149:
002150:                                                                                                  #                (DIFEQCNT THRU XKEP MUST BE IN SAME
002151:                                                                                                  #                EBANK AS RRECTCSM, RRECTLEM ETC
002152:                                                                                                  #                BECAUSE THE COPY-CYCLES (ATOPCSM,
002153:                                                                                                  #                PTOACSM ETC) ARE EXECUTED IN BASIC.
002154:                                                                                                  #                ALL OTHER REFERENCES TO THIS GROUP
002155:                                                                                                  #                ARE BY INTERPRETIVE INSTRUCTIONS.)
002156:
002157:
002158: E3,1500                        DIFEQCNT           ERASE    +43D                                  #  B(1)TMP
002159:                                                                                                  #  (UPSVFLAG...XKEP MUST BE KEPT IN ORDER)
002160:
002161: E3,1554  E3,1501               UPSVFLAG           EQUALS   DIFEQCNT   +1                         #  B(1)PRM UPDATE FLAG
002162: E3,1554  E3,1502               RRECT              EQUALS   UPSVFLAG   +1                         #  B(6)TMP POS AT RECT           KM*2(-14)
002163: E3,1554  E3,1510               VRECT              EQUALS   RRECT      +6                         #  B(6)TMP VEL AT RECT           KM(-1/2)*2(6)
002164: E3,1554  E3,1516               TET                EQUALS   VRECT      +6                         #  B(2)TMP TIME OF STATE VECT    CSECS*2(-28)
002165: E3,1554  E3,1520               TDELTAV            EQUALS   TET        +2                         #  B(6)TMP POSITION DEVIATION    KM*2(14)
002166: E3,1554  E3,1526               TNUV               EQUALS   TDELTAV    +6                         #  B(6)TMP VEL DEVIATION         KM(-1/2)*2(14)
002167: E3,1554  E3,1534               RCV                EQUALS   TNUV       +6                         #  B(6)TMP CONIC POSITION        KM*2(-14)
002168: E3,1554  E3,1542               VCV                EQUALS   RCV        +6                         #  B(6)TMP CONIC VELOCITY        KM(-1/2)*2(6)
002169: E3,1554  E3,1550               TC                 EQUALS   VCV        +6                         #  B(2)TMP TIME SINCE RECTIFICATION
002170: E3,1554  E3,1552               XKEP               EQUALS   TC         +2                         #  B(2)TMP ROOT OF KEPLER EQ     KM(1/2.*2(-10)
002171:
002172:                                                                                                  #  **** TEMP - IN VAC AREA ****
002173: E3,1554                        RRECT1             EQUALS   18D
002174: E3,1554                        VRECT1             EQUALS   24D
002175: E3,1554                        TET1               EQUALS   30D
002176:
002177:                                                                                                  #  PERMANENT STATE VECTORS AND TIMES.    (101D)
002178:
002179:                                                                                                  #  (DO NOT OVERLAY WITH ANYTHING AFTER BOOST)
002180:


002182:                                                                                                  #  (RRECTCSM...XKEPCSM MUST BE KEPT IN THIS ORDER)
002183:
002184: E3,1554                        RRECTCSM           ERASE    +5                                    #  B(6)PRM CSM VARIABLES.
002185: E3,1562  E3,1554               RRECTHIS           =        RRECTCSM
002186: E3,1562                        VRECTCSM           ERASE    +5                                    #  B(6)PRM
002187: E3,1570                        TETCSM             ERASE    +1                                    #  B(2)PRM
002188: E3,1572  E3,1570               TETTHIS            =        TETCSM
002189: E3,1572                        DELTACSM           ERASE    +5                                    #  B(6)PRM
002190: E3,1600                        NUVCSM             ERASE    +5                                    #  B(6)PRM
002191: E3,1606                        RCVCSM             ERASE    +5                                    #  B(6)PRM
002192: E3,1614                        VCVCSM             ERASE    +5                                    #  B(6)PRM
002193: E3,1622                        TCCSM              ERASE    +1                                    #  B(2)PRM
002194: E3,1624                        XKEPCSM            ERASE    +1                                    #  B(2)PRM
002195:
002196:                                                                                                  #  (RRECTLEM...XKEPLEM MUST BE KEPT IN THIS ORDER)
002197:
002198: E3,1626                        RRECTLEM           ERASE    +5                                    #  B(6)PRM LEM VARIABLES
002199: E3,1634  E3,1626               RRECTOTH           =        RRECTLEM
002200: E3,1634                        VRECTLEM           ERASE    +5                                    #  B(6)PRM
002201: E3,1642                        TETLEM             ERASE    +1                                    #  B(2)PRM
002202: E3,1644  E3,1642               TETOTHER           =        TETLEM
002203: E3,1644                        DELTALEM           ERASE    +5                                    #  B(6)PRM
002204: E3,1652                        NUVLEM             ERASE    +5                                    #  B(6)PRM
002205: E3,1660                        RCVLEM             ERASE    +5                                    #  B(6)PRM
002206: E3,1666                        VCVLEM             ERASE    +5                                    #  B(6)PRM
002207: E3,1674                        TCLEM              ERASE    +1                                    #  B(2)PRM
002208: E3,1676                        XKEPLEM            ERASE    +1                                    #  B(2)PRM
002209:
002210: E3,1700                        X789               ERASE    +5
002211: E3,1706                        TEPHEM             ERASE    +2
002212: E3,1711                        AZO                ERASE    +1
002213: E3,1713                        UNITW              ERASE    +5
002214: E3,1721  E3,1713               -AYO               EQUALS   UNITW                                 #  (2)
002215: E3,1721  E3,1715               AXO                EQUALS   UNITW      +2                         #  (2)
002216:
002217:                                                                                                  #  STATE VECTORS FOR DOWNLINK.           (12D)
002218:
002219: E3,1721                        R-OTHER            ERASE    +5                                    #  B(6)PRM POS VECT (OTHER VECH) FOR DNLINK
002220: E3,1727                        V-OTHER            ERASE    +5                                    #  B(6)PRM VEL VECT (OTHER VECH) FOR DNLINK
002221:
002222: E3,1735  E3,1642               T-OTHER            =        TETLEM                                #              TIME (OTHER VECH) FOR DNLINK
002223:
002224:                                                                                                  #  REFSMMAT.                             (18D)
002225:
002226: E3,1735                        REFSMMAT           ERASE    +17D                                  #  I(18D)PRM
002227:


002229:                                                                                                  #  AVERAGEG INTEGRATOR STORAGE.          (8D)
002230: E3,1757                        UNITR              ERASE    +5
002231: E3,1765                        RMAG               ERASE    +1
002232:
002233:                                                                                                  #  P40 PAD LOADS                         (6D)
002234: E3,1767                        EK1VAL             ERASE    +1                                    #  I(2)PL 1-SEC SPS IMPULSE NEWTSEC/100/B23
002235: E3,1771                        FANG               ERASE                                          #  I(1)PL SPS THRUST USED BY IMPULSIVE BURN
002236:
002237:                                                                                                  #  **** CONICSEX (PLANETARY INERT. ORIEN.) ****
002238: E3,1772  E3,1706               TIMSUBO            EQUALS   TEPHEM                                #  CSEC B-42 (TRIPLE PREC)
002239: E3,1772  E3,1771               END-E3             EQUALS   FANG                                  #  LAST USED E3 ADDRESS
002240:


002242:                                                                                                  #  EBANK-4 ASSIGNMENTS
002243:
002244: E4,1400                                           SETLOC   2000
002245:
002246:                                                                                                  #  P20 STORAGE.  -PAD LOADED-    (4D)
002247:
002248: E4,1400                        WRENDPOS           ERASE                                          #  B(1)PL        M B-14
002249: E4,1401                        WRENDVEL           ERASE                                          #  B(1)PL        M/CSECB0
002250: E4,1402                        RMAX               ERASE                                          #  B(1)PL        METERS*2(-19)
002251: E4,1403                        VMAX               ERASE                                          #  B(1)PL        M/CSEC*2(-7)
002252:
002253:                                                                                                  #  P22 STORAGE.  -PAD LOADED-    (5D)
002254: E4,1404                        WORBPOS            ERASE                                          #  B(1)PL        M B-14
002255: E4,1405                        WORBVEL            ERASE                                          #  B(1)PL        M/CSECB0
002256: E4,1406                        S22WSUBL           ERASE                                          #  B(1)PL        M B-14
002257: E4,1407                        RPVAR              ERASE    +1                                    #  B(2)PL
002258:
002259:                                                                                                  #  CONISEX STORAGE.  -PAD LOADED-        (6D)
002260:
002261: E4,1411                        504LM              ERASE    +5                                    #  I(6) MOON LIBRATION VECTOR
002262:
002263:                                                                                                  #  ENTRY STORAGE.            -PAD LOADED-        (2D)
002264: E4,1417                        EMSALT             ERASE    +1                                    #  I(2)PL
002265:
002266:                                                                                                  #  P35 CONSTANTS.   - PAD LOADED-        (4D)
002267: E4,1421                        ATIGINC            ERASE    +1                                    #  B(2)PL
002268: E4,1423                        PTIGINC            ERASE    +1                                    #  B(2)PL
002269:
002270:                                                                                                  #  LUNAR LANDING SIGHT DATA. -PAD LOADED-        (6D)
002271:                                                                                                  #  (USED BY INTEGRATION INITIALIZATION, LAT-LONG SUBROUTINES, P30'S)
002272:
002273: E4,1425                        RLS                ERASE    +5                                    #  I(6) PL  LUNAR LANDING SIGHT VECTOR
002274:
002275:                                                                                                  #  CONISEX (LUNAR AND SOLAR EPHEM) STORAGE.  -PAD LOADED-        (77D)
002276: E4,1433                        TIMEMO             ERASE    +76D
002277: E4,1550  E4,1436               VECOEM             EQUALS   TIMEMO     +3
002278: E4,1550  E4,1532               RESO               EQUALS   VECOEM     +60D


002280: E4,1550  E4,1540               VESO               EQUALS   RESO       +6
002281: E4,1550  E4,1546               OMEGAES            EQUALS   VESO       +6
002282:
002283:                                                                                                  #  FULL INTEGRATION STORAGE.                     (95D)
002284:
002285: E4,1550                        PBODY              ERASE                                          #  I(1)
002286: E4,1551  E4,1551               ALPHAV             EQUALS   PBODY      +1                         #  I(6)TMP
002287: E4,1551  E4,1557               BETAV              EQUALS   ALPHAV     +6                         #  I(6)TMP
002288: E4,1551  E4,1565               PHIV               EQUALS   BETAV      +6                         #  I(6)TMP
002289: E4,1551  E4,1573               PSIV               EQUALS   PHIV       +6                         #  I(6)TMP
002290: E4,1551  E4,1601               FV                 EQUALS   PSIV       +6                         #  I(6)TMP
002291: E4,1551  E4,1607               BETAM              EQUALS   FV         +6                         #  I(6)TMP
002292: E4,1551  E4,1611               H                  EQUALS   BETAM      +2                         #  I(2)TMP
002293: E4,1551  E4,1613               GMODE              EQUALS   H          +2                         #  I(1)TMP
002294: E4,1551  E4,1614               IRETURN            EQUALS   GMODE      +1                         #  I(1)TMP
002295: E4,1551  E4,1615               NORMGAM            EQUALS   IRETURN    +1                         #  I(1)TMP
002296: E4,1551  E4,1616               VECTAB             EQUALS   NORMGAM    +1                         #  I(36)TMP
002297: E4,1551  E4,1662               RPQV               EQUALS   VECTAB     +36D                       #   (6)TMP VECTOR PRIMARY TO SECONDARY BODY
002298: E4,1551  E4,1670               ORIGEX             EQUALS   RPQV       +6                         #  B(1)TMP QSAVE FOR COORD. SWITCH. ROUTINE
002299: E4,1551  E4,1670               KEPRTN             EQUALS   ORIGEX                                #          QSAVE FOR KEPLER
002300: E4,1551  E4,1671               RQVV               EQUALS   ORIGEX     +1                         #   (6)    SEC. BODY TO VEH.VETOR (USED P23)
002301: E4,1551  E4,1677               RPSV               EQUALS   RQVV       +6                         #   (6)TMP SUN TO PRIMARY BODY VECTOR
002302: E4,1551  E4,1705               XKEPNEW            EQUALS   RPSV       +6                         #   (2)TMP ROOT OF KEPLERS EQU FOR TIME TAU
002303:
002304:                                                                                                  #  THESE PROBABLY CAN SHARE INTEGRATION VARIABLES.       (9D)
002305:
002306: E4,1551  E4,1624               VACX               EQUALS   VECTAB     +6                         #  I(2)TMP
002307: E4,1551  E4,1626               VACY               EQUALS   VACX       +2                         #  I(2)TMP
002308: E4,1551  E4,1630               VACZ               EQUALS   VACY       +2                         #  I(2)TMP
002309:
002310: E4,1551  E4,1640               ERADM              EQUALS   VECTAB     +18D                       #  I(2)TMP
002311: E4,1551  E4,1642               INCORPEX           EQUALS   ERADM      +2                         #  I(1)TMP
002312:
002313:                                                                                                  #  R31 (V83) STORAGE. -SHARES WITH INTEGRATION STORAGE-  (24D)
002314:
002315: E4,1551  E4,1624               BASEOTP            EQUALS   VECTAB     +6                         #  I(6) BASE POS VECTOR OTHER VEH
002316: E4,1551  E4,1640               BASEOTV            EQUALS   VECTAB     +18D                       #  I(6) BASE VEL VECTOR OTHER VEH
002317: E4,1551  E4,1654               BASETHP            EQUALS   VECTAB     +30D                       #  I(6) BASE POS VECTOR THIS VEH
002318: E4,1551  E4,1662               BASETHV            EQUALS   RPQV                                  #  I(6) BASE VEL VECTOR THIS VEH
002319:
002320:                                                                                                  #  CONIC INTEGRATION STORAGE. -MAY NOT SHARE WITH SERVICER-      (6D)
002321: E4,1551  E4,1707               ALPHAM             EQUALS   XKEPNEW    +2                         #  I(2)TMP
002322: E4,1551  E4,1711               TAU.               EQUALS   ALPHAM     +2                         #  I(2)TMP
002323: E4,1551  E4,1713               DT/2               EQUALS   TAU.       +2                         #  I(2)TMP
002324:


002326:
002327:                                                                                                  #  P21, R61 STORAGE                      (2D)
002328: E4,1551  E4,1715               P21TIME            EQUALS   DT/2       +2                         #  B(2)TMP
002329:
002330:                                                                                                  #  INTEGRATION STORAGE                   (1D)
002331: E4,1551  E4,1717               EGRESS             EQUALS   P21TIME    +2                         #  I(1)TMP SAVES RETURNS.
002332:
002333:                                                                                                  #  VERB 83 STORAGE                       (20D)
002334:
002335: E4,1551  E4,1720               RANGE              EQUALS   EGRESS     +1                         #  I(2)DSP NOUN 54 DISTANCE TO OPTICAL SUBJ
002336: E4,1551  E4,1722               RRATE              EQUALS   RANGE      +2                         #  I(2)DSP NOUN 54 RATE OF APPROACH
002337: E4,1551  E4,1724               RTHETA             EQUALS   RRATE      +2                         #  I(2)DSP NOUN 54
002338: E4,1551  E4,1726               RONE               EQUALS   RTHETA     +2                         #  I(6)TMP VECTOR STORAGE.  (SCRATCH)
002339: E4,1551  E4,1734               VONE               EQUALS   RONE       +6                         #  I(6)TMP VECTOR STORAGE  (SCRATCH)
002340: E4,1551  E4,1742               BASETIME           EQUALS   VONE       +6                         #  I(2)    BASE TIME ASSOC WITH BASE VECS
002341:
002342:                                                                                                  #  S-BAND ANTENNA GIMBAL ANGLES.  DISPLAYED BY R05 (EXT.VB.64)   (4D)
002343:                                                                                                  #         OPERATION DURING P00 ONLY.
002344: E4,1551  E4,1720               RHOSB              EQUALS   RANGE                                 #  B(2)DSP NOUN 51. PITCH ANGLE
002345: E4,1551  E4,1722               GAMMASB            EQUALS   RHOSB      +2                         #  B(2)DSP NOUN 51. YAWANGLE
002346:
002347:                                                                                                  #  R 36 SCRATCHPAD STORAGE               (13D)
002348: E4,1551  E4,1726               RPASS36            EQUALS   RONE                                  #  I(6) S-S
002349: E4,1551  E4,1734               UNP36              EQUALS   RPASS36    +6                         #  I(6) S-S
002350: E4,1551  E4,1742               OPTIONY            EQUALS   UNP36      +6                         #  I(1)TMP VEHICLE CODE
002351:
002352:                                                                                                  #  EXTENDED VERB 82 STORAGE.             (6D)
002353:
002354: E4,1551  E4,1720               HPERMIN            EQUALS   RANGE                                 #  I(2) SET TO 300KFT OR 35KFT FOR SR30.1
002355: E4,1551  E4,1722               RPADTEM            EQUALS   HPERMIN    +2                         #  I(2) PAD OR LANDING RADIUS FOR SR30.1
002356: E4,1551  E4,1724               TSTART82           EQUALS   RPADTEM    +2                         #  I(2) TEMP TIME STORAGE FOR V82.
002357:
002358:                                                                                                  #  MORE VERB 82 NOT SHARING WITH VERB 83 (9D)
002359: E4,1551  E4,1742               V82FLAGS           EQUALS   VONE       +6                         #   (1) FOR V 82 BITS
002360: E4,1551  E4,1743               TFF                EQUALS   V82FLAGS   +1                         #  I(2)DSP NOUN 50,44
002361: E4,1551  E4,1745               -TPER              EQUALS   TFF        +2                         #  I(2)DSP NOUN 32
002362: E4,1551  E4,1747               THETA(1)           EQUALS   -TPER      +2                         #  I(2)TMP SET AT END OF V82


002364: E4,1551  E4,1755               RSP-RREC           EQUALS   AOPTIME                               #  DSP NOUN 50 FOR V82 DURING P00 AND P11
002365:
002366:                                                                                                  #  REENTRY CONICS                        (6D)
002367: E4,1551  E4,1742               URONE              EQUALS   V82FLAGS                              #  I(6) SAVE ACTUAL FOR CALCULATIONS
002368:
002369:                                                                                                  #  V82 DISPLAY                           (4D)
002370: E4,1551  E4,1751               HAPOX              EQUALS   THETA(1)   +2                         #  I(2)DSP NOUN 44
002371: E4,1551  E4,1753               HPERX              EQUALS   HAPOX      +2                         #  I(2)DSP NOUN 44
002372:
002373:                                                                                                  #  P22 DISPLAY REGISTERS                 (06D)
002374: E4,1551  E4,1755               AOPTIME            EQUALS   HPERX      +2                         #  I(2)TMP FOR SR52.1,ADVTRACK
002375: E4,1551  E4,1757               LANDLONG           EQUALS   AOPTIME    +2                         #  I(2) DSP NOUN 89 FOR P22
002376: E4,1551  E4,1761               LANDALT            EQUALS   LANDLONG   +2                         #  I(2)DSP NOUN 89 FOR P22.
002377:
002378:                                                                                                  #  S34/35.5,P34-P35 STORAGE.             (6D)
002379: E4,1551  E4,1763               KT                 EQUALS   LANDALT    +2                         #  B(2)
002380: E4,1551  E4,1765               VERBNOUN           EQUALS   KT         +2                         #  B(1)TMP
002381: E4,1551  E4,1766               QSAVED             EQUALS   VERBNOUN   +1                         #  B(1)TMP HOLDS RETURN
002382: E4,1551  E4,1767               RTRN               EQUALS   QSAVED     +1                         #  B(1) RETURN
002383: E4,1551  E4,1770               SUBEXIT            EQUALS   RTRN       +1                         #  B(1)TMP
002384:                                                                                                  #  RGEXIT CANT SHARE WITH HPER,HAPO
002385: E4,1551  E4,1770               RGEXIT             EQUALS   SUBEXIT                               #  I(1)TMP Q SAVE MODE 1 AND 2 TO RTRN MAIN
002386:
002387:                                                                                                  #  P30 DISPLAY                           (4D)
002388: E4,1551  E4,1763               HAPO               EQUALS   KT                                    #  I(2)DSP NOUN 42, FOR P30.
002389: E4,1551  E4,1765               HPER               EQUALS   HAPO       +2                         #  I(2)DSP NOUN 42, FOR P30.
002390:
002391:                                                                                                  #  SOME P34 STORAGE.     (OVERLAYS P35.1 STORAGE)        (2D)
002392: E4,1551  E4,1763               NOMTPI             EQUALS   KT                                    #  I(2)TMP NOMINAL TPI TIME FOR RECYCLE
002393:
002394:                                                                                                  #  THE FOLLOWING ARE ERASABLES USED BY THE SYSTEM TESTS.  205 USES TRANSM1  GS ARE NOT USED IN 205 NOR ARE THEY
002395:                                                                                                  #  WHILE 504 USES TRANSM1 AND ALFDK .


002397: E4,1551                        TRANSM1            EQUALS   2000                                  #  (18) INITIALIZATION FOR IMU TESTS
002398: E4,1551  E4,1422               ALFDK              =        TRANSM1    +18D                       #  (144) ERASABLE LOAD IN 504
002399:
002400:                                                                                                  #  END OF PERF. TEST ERASABLE IN BANK 4
002401:
002402:                                                                                                  #  *-*-* V82 *-*-*                       (6D)
002403:
002404: E4,1551  E4,1771               VONE'              EQUALS   RGEXIT     +1                         #  I(6)TMP NORMAL VELOCITY VONE/ SQ RT MU
002405:
002406:                                                                                                  #  PAD LOAD INTEGRATION ERROR INCLUDED IN VARIANCE BY P20        (1D)
002407:
002408: E4,1551  E4,1777               INTVAR             EQUALS   VONE'      +6                         #  I(1)PL        SQUARE OF EXPECTED INTEGRATION
002409:                                                                                                  #                POSITION EXTRAPOLATION ERROR.
002410:                                                                                                  #                SCALED METERS(2) 2(15)
002411: E4,1551  E4,1777               END-E4             EQUALS   INTVAR                                #  LAST USED ERASABLE IN E4
002412:


002414:                                                                                                  #  EBANK-5 ASSIGNMENTS
002415:
002416: E5,1400                                           SETLOC   2400
002417:
002418:                                                                                                  #  *-*-*-*- OVERLAY 1 IN EBANK 5 -*-*-*-*
002419:
002420:                                                                                                  #  W-MATRIX STORAGE.                     (162D)
002421:
002422: E5,1400                        W                  EQUALS   2400                                  #  B(162)
002423: E5,1400                        9X9LOC1            EQUALS   2444
002424: E5,1400                        9X9LOC2            EQUALS   2532
002425:
002426: E5,1400  E5,1570               EMATRIX            =        W          +120D                      #  B(42E USED TO CONVERT W TO 6X6
002427: E5,1400  E5,1642               END-W              EQUALS   W          +162D                      #  **NEXT AVAILABLE LOC AFTER W MATRIX**
002428:
002429:                                                                                                  #  AUTO-OPTICS STORAGE -R52-
002430:
002431:                                                                                                  #  DO NOT MOVE FROM E5,1554.  A DELICATE BALANCE EXISTS BETWEEN THIS AND P03
002432: E5,1400  E5,1554               XNB1               EQUALS   W          +108D                      #  B(6D)TMP
002433: E5,1400  E5,1562               YNB1               EQUALS   XNB1       +6                         #  B(6)TMP
002434: E5,1400  E5,1570               ZNB1               EQUALS   YNB1       +6                         #  B(6)TMP
002435: E5,1400  E5,1576               SAVQR52            EQUALS   ZNB1       +6                         #  I(2)TMP
002436: E5,1400  E5,1600               PLANVEC            EQUALS   SAVQR52    +2                         #  B(6) S-S SIGHTING VECTOR IN REF. COOR.
002437: E5,1400  E5,1606               TSIGHT             EQUALS   PLANVEC    +6                         #  B(2) S-S TIME OF SIGHTING
002438:
002439:                                                                                                  #  RENDEZVOUS -P34-35                    (26D)
002440: E5,1400  E5,1610               DVLOS              EQUALS   TSIGHT     +2                         #  I(6) S-S DELTA VELOCITY, LOS COORD-DISPL1
002441: E5,1400  E5,1610               DELTAR             EQUALS   DVLOS                                 #  I(2)
002442: E5,1400  E5,1610               TINTSOI            EQUALS   DELTAR                                #  I(2) INTERCEPT TIME FOR SOI MANEUVER
002443: E5,1400  E5,1612               DELTTIME           EQUALS   DVLOS      +2                         #  I(2)
002444: E5,1400  E5,1614               TARGTIME           EQUALS   DVLOS      +4                         #  I(2)
002445: E5,1400  E5,1616               UNRM               EQUALS   DVLOS      +6                         #  I(6) S-S
002446: E5,1400  E5,1624               ULOS               EQUALS   UNRM       +6                         #  I(6) S-S UNIT LINE OF SIGHT VECTOR
002447: E5,1400  E5,1632               ACTCENT            EQUALS   ULOS       +6                         #  I(2) S-S CENTRAL ANGLE BETWEEN ACTIVE
002448:                                                                                                  #       VEH AT TPI IGNITION TIME AND
002449:                                                                                                  #       TARGET VECTOR.
002450: E5,1400  E5,1634               DELVTPI            EQUALS   ACTCENT    +2                         #  I(2) NOUN 58 FOR P34.
002451: E5,1400  E5,1636               DELVTPF            EQUALS   DELVTPI    +2                         #  I(2) NOUN 58,59 FOR P34,35.
002452: E5,1400  E5,1640               POSTTPI            EQUALS   DELVTPF    +2                         #  I(2) NOUN 58 FOR P34.
002453: E5,1400  E5,1634               TDEC2              EQUALS   DELVTPI                               #   (2)
002454:
002455:                                                                                                  #  ALIGNMENT                             (12D)


002457: E5,1400  E5,1610               STARSAV1           EQUALS   DVLOS                                 #  I(6)TMP RESTART STAR SAVE.
002458: E5,1400  E5,1616               STARSAV2           EQUALS   STARSAV1   +6                         #  I(6)TMP RESTART STAR SAVE.
002459: E5,1400  E5,1616               US                 =        STARSAV2                              #          (CISLUNAR TAG FOR STARSAV2).
002460:
002461:                                                                                                  #  TPI SEARCH                            (26D)
002462: E5,1400  E5,1610               IT                 EQUALS   DVLOS                                 #   (6)
002463: E5,1400  E5,1616               THETZERO           EQUALS   IT         +6                         #   (2)
002464: E5,1400  E5,1620               TFI                EQUALS   THETZERO   +2                         #   (2)
002465: E5,1400  E5,1622               DELVEE             EQUALS   TFI        +2                         #   (2)
002466: E5,1400  E5,1624               HP                 EQUALS   DELVEE     +2                         #   (2)
002467: E5,1400  E5,1626               TFO                EQUALS   HP         +2                         #   (2)
002468: E5,1400  E5,1630               HPO                EQUALS   TFO        +2                         #   (2)
002469: E5,1400  E5,1632               DELVEO             EQUALS   HPO        +2                         #   (2)
002470: E5,1400  E5,1634               MAGVTPI            EQUALS   DELVEO     +2                         #  I(2)TMP MAG OF DELTAVTPI OR VMID
002471: E5,1400  E5,1636               RELDELV            EQUALS   MAGVTPI    +2                         #  I(2)TMP MAG OF DELTAVTPF
002472: E5,1400  E5,1640               T3TOT4             EQUALS   RELDELV    +2                         #  I(2)DSP NOUN 39 FOR P34,35.  TPI TO TIN
002473:                                                                                                  #  T (CAN NOT SHARE WITH RETURN TO EARTH)


002475:                                                                                                  #  ALIGNMENT/SYSTEST/CALCSMSC/CRS61.1 COMMON STORAGE.    (36D)
002476:                                                                                                  #  (CALCSMSC IS A SUBSET OF S41.1 AT LEAST)
002477:                                                                                                  #  (CRS61.1 IS A SUBSET OF P20)
002478:
002479: E5,1400  E5,1671               XSM                EQUALS   END-W      +23D                       #  B(6)
002480: E5,1400  E5,1677               YSM                EQUALS   XSM        +6                         #  B(6)TMP
002481: E5,1400  E5,1705               ZSM                EQUALS   YSM        +6                         #  B(6)TMP
002482:
002483: E5,1400  E5,1713               XDC                EQUALS   ZSM        +6                         #  B(6)TMP
002484: E5,1400  E5,1721               YDC                EQUALS   XDC        +6                         #  B(6)TMP
002485: E5,1400  E5,1727               ZDC                EQUALS   YDC        +6                         #  B(6)TMP
002486:
002487: E5,1400  E5,1713               XNB                =        XDC
002488: E5,1400  E5,1721               YNB                =        YDC
002489: E5,1400  E5,1727               ZNB                =        ZDC
002490:
002491:                                                                                                  #  OVERLAYS WITHIN ALIGNMENT/SYSTEST/CALCSMSC COMMON STORAGE.
002492:
002493: E5,1400  E5,1673               -COSB              EQUALS   XSM        +2                         #  (2)TMP
002494: E5,1400  E5,1675               SINB               EQUALS   -COSB      +2                         #  (2)TMP
002495:
002496:                                                                                                  #  ALIGNMENT/SYSTEST COMMON STORAGE.     (18D)
002497:
002498: E5,1400  E5,1735               STARAD             EQUALS   ZDC        +6                         #  I(18D)TMP
002499:
002500:                                                                                                  #  ALIGNMENT/SYSTEST/AUTO OPTICS COMMON STORAGE. (17D)
002501:
002502: E5,1400  E5,1757               OGC                EQUALS   STARAD     +18D                       #  I(2)TMP
002503: E5,1400  E5,1761               IGC                EQUALS   OGC        +2                         #  I(2)TMP
002504: E5,1400  E5,1763               MGC                EQUALS   IGC        +2                         #  I(2)TMP
002505: E5,1400  E5,1765               STAR               EQUALS   MGC        +2                         #  I(6)TMP
002506: E5,1400  E5,1773               SAC                EQUALS   STAR       +6                         #  I(2)TMP
002507: E5,1400  E5,1775               PAC                EQUALS   SAC        +2                         #  I(2)TMP
002508: E5,1400  E5,1777               QMIN               EQUALS   PAC        +2                         #  B(1)TMP
002509:
002510:                                                                                                  #  **** COLP50S ****                     (1D)
002511: E5,1400  E5,1735               CULTRIX            EQUALS   VEARTH                                #  VEARTH, VSUN, VMOON
002512:
002513:                                                                                                  #  OVERLAYS WITHIN ALIGNMENT/SYSTEST COMMON STORAGE.     (24D)
002514:
002515: E5,1400  E5,1735               VEARTH             EQUALS   STARAD                                #  (6)TMP
002516: E5,1400  E5,1743               VSUN               EQUALS   VEARTH     +6                         #  (6)TMP
002517: E5,1400  E5,1751               VMOON              EQUALS   VSUN       +6                         #  (6)TMP
002518: E5,1400  E5,1757               SAX                EQUALS   VMOON      +6                         #  (6)TMP
002519:


002521:                                                                                                  #  *-*-*-*- OVERLAY 2 IN EBANK 5 -*-*-*-*
002522:
002523:                                                                                                  #  CONIC ROUTINES STORAGE.                       (87D)
002524:
002525: E5,1400  E5,1642               DELX               EQUALS   END-W                                 #  I(2)TMP
002526: E5,1400  E5,1644               DELT               EQUALS   DELX       +2                         #  I(2)TMP
002527: E5,1400  E5,1646               URRECT             EQUALS   DELT       +2                         #  I(6)TMP
002528: E5,1400  E5,1654               RCNORM             EQUALS   URRECT     +6                         #  I(2)TMP
002529: E5,1400  E3,1552               XPREV              EQUALS   XKEP                                  #  I(2)TMP
002530: E5,1400  E5,1656               R1VEC              EQUALS   RCNORM     +2                         #  I(6)TMP
002531: E5,1400  E5,1664               R2VEC              EQUALS   R1VEC      +6                         #  I(6)TMP
002532: E5,1400  E5,1672               TDESIRED           EQUALS   R2VEC      +6                         #  I(2)TMP
002533: E5,1400  E5,1674               GEOMSGN            EQUALS   TDESIRED   +2                         #  I(1)TMP
002534: E5,1400  E5,1675               UN                 EQUALS   GEOMSGN    +1                         #  I(6)TMP
002535: E5,1400  E5,1703               VTARGTAG           EQUALS   UN         +6                         #  I(1)TMP
002536: E5,1400  E5,1704               VTARGET            EQUALS   VTARGTAG   +1                         #  I(6)TMP
002537: E5,1400  E5,1712               RTNLAMB            EQUALS   VTARGET    +6                         #  I(1)TMP
002538: E5,1400  E5,1713               U2                 EQUALS   RTNLAMB    +1                         #  I(6)TMP
002539: E5,1400  E5,1721               MAGVEC2            EQUALS   U2         +6                         #  I(2)TMP
002540: E5,1400  E5,1723               UR1                EQUALS   MAGVEC2    +2                         #  I(6)TMP
002541: E5,1400  E5,1731               SNTH               EQUALS   UR1        +6                         #  I(2)TMP
002542: E5,1400  E5,1733               CSTH               EQUALS   SNTH       +2                         #  I(2)TMP
002543: E5,1400  E5,1735               1-CSTH             EQUALS   CSTH       +2                         #  I(2)TMP
002544: E5,1400  E5,1737               CSTH-RHO           EQUALS   1-CSTH     +2                         #  I(2)TMP
002545: E5,1400  E5,1741               P                  EQUALS   CSTH-RHO   +2                         #  I(2)TMP
002546: E5,1400  E5,1743               R1A                EQUALS   P          +2                         #  I(2)TMP
002547: E5,1400  E5,1656               RVEC               EQUALS   R1VEC                                 #  I(6)TMP
002548: E5,1400  E5,1745               VVEC               EQUALS   R1A        +2                         #  I(6)TMP
002549: E5,1400  E5,1712               RTNTT              EQUALS   RTNLAMB                               #  I(1)TMP
002550: E5,1400  E5,1753               ECC                EQUALS   VVEC       +6                         #  I(2)TMP
002551: E5,1400  E5,1712               RTNTR              EQUALS   RTNLAMB                               #  I(1)TMP
002552: E5,1400  E5,1712               RTNAPSE            EQUALS   RTNLAMB                               #  I(1)TMP
002553: E5,1400  E5,1721               R2                 EQUALS   MAGVEC2                               #  I(2)TMP
002554: E5,1400  E5,1755               RTNPRM             EQUALS   ECC        +2                         #  I(1)TMP
002555: E5,1400  E5,1756               SGNRDOT            EQUALS   RTNPRM     +1                         #  I(1)TMP
002556: E5,1400  E5,1757               RDESIRED           EQUALS   SGNRDOT    +1                         #  I(2)TMP
002557: E5,1400  E5,1761               DELDEP             EQUALS   RDESIRED   +2                         #  I(2)TMP
002558: E5,1400  E5,1763               DEPREV             EQUALS   DELDEP     +2                         #  I(2)TMP
002559: E5,1400  E5,1761               TERRLAMB           EQUALS   DELDEP                                #  I(2)TMP
002560: E5,1400  E5,1763               TPREV              EQUALS   DEPREV                                #  I(2)TMP
002561:


002563:                                                                                                  #  *-*-*-*- OVERLAY 3 IN EBANK 5 -*-*-*-*
002564:
002565:                                                                                                  #  MEASUREMENT INCORPORATION STORAGE.    (66D)
002566:                                                                                                  #  (CALLED BY P20, P22, P23)
002567:
002568: E5,1400  E5,1642               OMEGAM1            EQUALS   END-W                                 #  I(6)TMP
002569: E5,1400  E5,1650               OMEGAM2            EQUALS   OMEGAM1    +6                         #  I(6)TMP
002570: E5,1400  E5,1656               OMEGAM3            EQUALS   OMEGAM2    +6                         #  I(6)TMP
002571: E5,1400  E5,1664               HOLDW              EQUALS   OMEGAM3    +6                         #  I(18)TMP
002572: E5,1400  E5,1706               TDPOS              EQUALS   HOLDW      +18D                       #  I(6)TMP
002573: E5,1400  E5,1714               TDVEL              EQUALS   TDPOS      +6                         #  I(6)TMP
002574:
002575: E5,1400  E5,1722               ZI                 EQUALS   TDVEL      +6                         #  I(18)
002576:
002577:                                                                                                  #  P22-P23 STORAGE.                      (8D)
002578:
002579: E5,1400  E5,1744               22SUBSCL           EQUALS   ZI         +18D                       #  DE OF ABCDE LANDMARK ID NO.
002580: E5,1400  E5,1745               CXOFF              EQUALS   22SUBSCL   +1                         #  B OF ABCDE OFFSET INDICATOR
002581: E5,1400  E5,1746               8KK                EQUALS   CXOFF      +1                         #  B(1)TMP INDEX OF PRESENT MARK.
002582: E5,1400  E5,1747               8NN                EQUALS   8KK        +1                         #  B(1)TMP
002583: E5,1400  E5,1750               S22LOC             EQUALS   8NN        +1                         #  I(1)TMP MARK DATA LOC
002584: E5,1400  E5,1751               LANDMARK           EQUALS   S22LOC     +1                         #  B(1)DSP NOUN 70 FOR P22,51, R52,53.
002585: E5,1400  E5,1752               HORIZON            EQUALS   LANDMARK   +1                         #  B(1)DSP NOUN 70 FOR P22,51, R52,53.
002586: E5,1400  E5,1753               IDOFLMK            EQUALS   HORIZON    +1                         #  B(1)
002587:
002588:                                                                                                  #  ******P23***                          (1D)
002589: E5,1400  E5,1754               TRUNION            EQUALS   IDOFLMK    +1                         #  B(1)
002590:


002592:
002593:                                                                                                  #  *-*-*-*- OVERLAY 0 IN EBANK 5 -*-*-*-*
002594:
002595:                                                                                                  #  SYSTEM TEST STORAGE.                          (174)
002596:
002597: E5,1400                        AZIMUTH            ERASE    +1
002598: E5,1402                        LATITUDE           ERASE    +1
002599:
002600: E5,1404     1160               TRUNA              EQUALS   DESOPTT
002601: E5,1404     1161               SHAFTA             EQUALS   DESOPTS
002602:
002603: E5,1404                        ERVECTOR           ERASE    +5
002604: E5,1412                        LENGTHOT           ERASE
002605: E5,1413                        LOSVEC             ERASE    +5
002606:
002607: E5,1421  E5,1413               SXTOPTN            =        LOSVEC
002608: E5,1421                        NDXCTR             ERASE
002609: E5,1422                        PIPINDEX           ERASE
002610: E5,1423                        POSITON            ERASE
002611: E5,1424                        QPLAC              ERASE
002612: E5,1425                        QPLACE             ERASE
002613: E5,1426                        QPLACES            ERASE
002614: E5,1427                        RUN                ERASE
002615: E5,1430                        STOREPL            ERASE
002616: E5,1431                        SOUTHDR            ERASE
002617: E5,1432  E5,1431               TARG1/2            =        SOUTHDR
002618: E5,1432                        TAZEL1             ERASE    +5
002619: E5,1440                        TEMPTIME           ERASE    +1
002620: E5,1442                        TMARK              ERASE    +1
002621: E5,1444                        GENPL              ERASE    +134D
002622: E5,1653  E5,1444               CDUTIMEI           =        GENPL
002623: E5,1653  E5,1446               CDUTIMEF           =        GENPL      +2
002624: E5,1653  E5,1450               IMU/OPT            =        GENPL      +4
002625: E5,1653  E5,1451               CDUREADF           =        GENPL      +5
002626: E5,1653  E5,1452               CDUREADI           =        GENPL      +6
002627: E5,1653  E5,1453               CDULIMIT           =        GENPL      +7
002628:
002629: E5,1653  E5,1450               TEMPADD            =        GENPL      +4
002630: E5,1653  E5,1451               TEMP               =        GENPL      +5
002631: E5,1653  E5,1452               NOBITS             =        GENPL      +6
002632: E5,1653  E5,1453               CHAN               =        GENPL      +7
002633:
002634: E5,1653  E5,1454               LOS1               =        GENPL      +8D
002635: E5,1653  E5,1462               LOS2               =        GENPL      +14D
002636:
002637: E5,1653  E5,1470               CALCDIR            EQUALS   GENPL      +20D
002638: E5,1653  E5,1471               CDUFLAG            EQUALS   GENPL      +21D
002639: E5,1653  E5,1472               GYTOBETQ           EQUALS   GENPL      +22D
002640: E5,1653  E5,1473               OPTNREG            EQUALS   GENPL      +23D
002641: E5,1653  E5,1474               SAVE               EQUALS   GENPL      +24D                       #  THREE CONSEC LOC
002642: E5,1653  E5,1477               SFCONST1           EQUALS   GENPL      +27D


002644: E5,1653  E5,1500               TIMER              EQUALS   GENPL      +28D
002645:
002646: E5,1653  E5,1502               DATAPL             EQUALS   GENPL      +30D
002647: E5,1653  E5,1444               RDSP               EQUALS   GENPL                                 #  FIX LATER     POSSIBLY KEEP1
002648: E5,1653  E5,1544               MASKREG            EQUALS   GENPL      +64D
002649: E5,1653  E5,1546               CDUNDX             EQUALS   GENPL      +66D
002650: E5,1653  E5,1547               RESULTCT           EQUALS   GENPL      +67D
002651: E5,1653  E5,1552               COUNTPL            EQUALS   GENPL      +70D
002652:
002653: E5,1653  E5,1553               CDUANG             EQUALS   GENPL      +71D
002654: E5,1653  E5,1444               AINLA              =        GENPL                                 #  OPTIMUM CALIB. AND ALIGNMENT
002655: E5,1653  E5,1444               WANGO              EQUALS   AINLA
002656: E5,1653  E5,1446               WANGI              EQUALS   AINLA      +2D
002657: E5,1653  E5,1450               WANGT              EQUALS   AINLA      +4D
002658: E5,1653  E5,1450               TORQNDX            =        WANGT
002659: E5,1653  E5,1452               DRIFTT             EQUALS   AINLA      +6D
002660: E5,1653  E5,1454               ALX1S              EQUALS   AINLA      +8D
002661: E5,1653  E5,1455               CMPX1              EQUALS   AINLA      +9D
002662: E5,1653  E5,1456               ALK                EQUALS   AINLA      +10D
002663: E5,1653  E5,1472               VLAUNS             EQUALS   AINLA      +22D
002664: E5,1653  E5,1460               THETAX             =        ALK        +2
002665: E5,1653  E5,1474               WPLATO             EQUALS   AINLA      +24D
002666: E5,1653  E5,1500               INTY               EQUALS   AINLA      +28D
002667: E5,1653  E5,1466               THETAN             =        THETAX     +6
002668: E5,1653  E5,1502               ANGZ               EQUALS   AINLA      +30D
002669: E5,1653  E5,1504               INTZ               EQUALS   AINLA      +32D
002670: E5,1653  E5,1506               ANGY               EQUALS   AINLA      +34D
002671: E5,1653  E5,1510               ANGX               EQUALS   AINLA      +36D
002672: E5,1653  E5,1512               DRIFTO             EQUALS   AINLA      +38D
002673: E5,1653  E5,1514               DRIFTI             EQUALS   AINLA      +40D
002674: E5,1653  E5,1520               VLAUN              EQUALS   AINLA      +44D
002675: E5,1653  E5,1474               FILDELV            =        THETAN     +6
002676: E5,1653  E5,1522               ACCWD              EQUALS   AINLA      +46D
002677: E5,1653  E5,1476               INTVEC             =        FILDELV    +2
002678: E5,1653  E5,1530               POSNV              EQUALS   AINLA      +52D
002679: E5,1653  E5,1532               DPIPAY             EQUALS   AINLA      +54D
002680: E5,1653  E5,1536               DPIPAZ             EQUALS   AINLA      +58D
002681: E5,1653  E5,1540               ALTIM              EQUALS   AINLA      +60D
002682: E5,1653  E5,1541               ALTIMS             EQUALS   AINLA      +61D
002683: E5,1653  E5,1542               ALDK               EQUALS   AINLA      +62D
002684: E5,1653  E5,1560               DELM               EQUALS   AINLA      +76D
002685: E5,1653  E5,1570               WPLATI             EQUALS   AINLA      +84D
002686: E5,1653  E5,1577               RESTARPT           =        AINLA      +91D
002687: E5,1653  E5,1631               GEOSAVED           =        AINLA      +117D
002688: E5,1653  E5,1632               PREMTRXC           =        AINLA      +118D
002689: E5,1653  E5,1633               LAUNCHAZ           =        AINLA      +119D
002690: E5,1653  E5,1635               NEWAZMTH           =        AINLA      +121D
002691: E5,1653  E5,1637               OLDAZMTH           =        AINLA      +123D


002693: E5,1653  E5,1641               TOLDAZMT           =        AINLA      +125D
002694: E5,1653  E5,1643               GEOCOMPS           =        AINLA      +127D
002695: E5,1653  E5,1644               1SECXT             =        AINLA      +128D
002696: E5,1653  E5,1645               GTSXTLST           =        AINLA      +129D
002697: E5,1653  E5,1646               ERECTIME           =        AINLA      +130D
002698: E5,1653  E5,1647               ERCOMP             =        AINLA      +131D
002699: E5,1653  E5,1655               ZERONDX            =        AINLA      +137D
002700: E5,1653  E5,1655               GTSOPNDZ           =        ZERONDX
002701:
002702:                                                                                                  #  THE FOLLOWING TAGS ARE USED BY THE 504 IMU CALIBRATION AND ALIGNMENT PROGRAM ONLY.
002703:
002704: E5,1653  E5,1460               THETAX1            EQUALS   ALK        +2
002705: E5,1653  E5,1466               THETAN1            EQUALS   THETAX1    +6
002706: E5,1653  E5,1474               FILDELV1           EQUALS   THETAN1    +6
002707: E5,1653  E5,1476               INTVEC1            EQUALS   FILDELV1   +2
002708: E5,1653  E5,1631               GEOSAVE1           EQUALS   AINLA      +117D
002709: E5,1653  E5,1632               PREMTRX1           EQUALS   AINLA      +118D
002710: E5,1653  E5,1633               LUNCHAZ1           EQUALS   AINLA      +119D
002711: E5,1653  E5,1635               NEWAZ1             EQUALS   LUNCHAZ1   +2
002712: E5,1653  E5,1637               OLDAZ1             EQUALS   LUNCHAZ1   +4
002713: E5,1653  E5,1641               TOLDAZ1            EQUALS   LUNCHAZ1   +6
002714: E5,1653  E5,1643               GEOCOMP1           EQUALS   AINLA      +127D
002715: E5,1653  E5,1644               1SECXT1            EQUALS   AINLA      +128D
002716: E5,1653  E5,1645               GTSWTLT1           EQUALS   AINLA      +129D
002717: E5,1653  E5,1646               ERECTIM1           EQUALS   AINLA      +130D
002718: E5,1653  E5,1647               ERCOMP1            EQUALS   AINLA      +131D                      #  I(6)
002719: E5,1653  E5,1655               ZERONDX1           EQUALS   AINLA      +137D
002720: E5,1653  E5,1656               PERFDLAY           EQUALS   AINLA      +138D                      #  B(2).........
002721:
002722:                                                                                                  #  END OF 504 CAL + ALIGN ERASE.
002723:


002725:
002726:                                                                                                  #  *-*-*-*-  OVERLAY 4 IN EBANK 5  -*-*-*-*
002727:
002728:                                                                                                  #  P32 -- P33                            (26D)
002729: E5,1653  E5,1610               UP1                EQUALS   DVLOS                                 #  I(6)
002730: E5,1653  E5,1616               VPASS2             EQUALS   UP1        +6                         #  I(6)
002731: E5,1653  E5,1624               RPASS2             EQUALS   VPASS2     +6                         #  I(6)
002732: E5,1653  E5,1632               DIFFALT            EQUALS   RPASS2     +6                         #  I(2)
002733: E5,1653  E5,1634               TCDH               EQUALS   DIFFALT    +2                         #  I(2)
002734: E5,1653  E5,1636               TCSI               EQUALS   TCDH       +2                         #  I(2)
002735: E5,1653  E5,1640               TTPIO              EQUALS   TCSI       +2                         #  I(2)
002736:
002737:                                                                                                  #  P32,P33 STORAGE OVERLAYING 9X9 W-MATRIX LOCATIONS     (26D)
002738: E5,1653  E5,1444               DELVEET1           EQUALS   9X9LOC1                               #  I(6) DELV FOR CSI
002739: E5,1653  E5,1452               RACT2              EQUALS   DELVEET1   +6                         #  I(6) POS. ACTIVE VEH. AT CDH TIME
002740: E5,1653  E5,1532               VACT2              EQUALS   9X9LOC2                               #  I(6) VEL. ACTIVE VEH. AT CDH TIME
002741: E5,1653  E5,1540               RACT1              EQUALS   VACT2      +6                         #  I(6) POS. ACTIVE VEH. AT CSI TIME
002742: E5,1653  E5,1546               T1TOT2             EQUALS   RACT1      +6                         #  I(2) TCDH - TCSI
002743: E5,1653  E5,1777               END-E5             EQUALS   QMIN                                  #  LAST USED E5 ADDRESS
002744:


002746:
002747:                                                                                                  #  EBANK-6 ASSIGNMENTS
002748:
002749: E6,1400                                           SETLOC   3000
002750:                                                                                                  #  P23   PAD LOADS ***                   (2D).
002751: E6,1400                        WMIDPOS            ERASE                                          #  I(1)PL INITIAL VALUES FOR W-MATRIX IN
002752: E6,1401                        WMIDVEL            ERASE                                          #  I(1)PL CISLUNAR (P23) NAVIGATION
002753:
002754:                                                                                                  #  R22   PAD LOADS                       (5D).
002755: E6,1402                        RVAR               ERASE    +1                                    #  I(2)PL VHF RADAR
002756: E6,1404                        RVARMIN            ERASE    +2                                    #  I(3)PL VHF RADAR
002757:
002758:                                                                                                  #  ******** PAD LOADED ENTRY DAP STEERING VARIABLES ********     (3D)
002759: E6,1407                        LADPAD             ERASE                                          #  I(1)PL FOR ENTRY. HOLDS CM NOMINAL L/D
002760: E6,1410                        LODPAD             ERASE                                          #  I(1)PL FOR ENTRY. HOLDS CM NOMINAL LOD
002761: E6,1411                        ALFAPAD            ERASE                                          #  B(1)PL ALFA TRIM / 180
002762:
002763:                                                                                                  #  ******** PAD LOADED TVC DAP VARIABLES.**********************************(26D)
002764: E6,1412                        ETDECAY            ERASE                                          #  I(1)PL
002765: E6,1413                        ESTROKER           ERASE                                          #  B(1)PL
002766: E6,1414                        EKPRIME            ERASE    +1                                    #  B(2)PL
002767: E6,1416                        EKTLX/I            ERASE    +2                                    #  B(3)PL
002768: E6,1421                        EREPFRAC           ERASE    +1                                    #  B(2)PL
002769: E6,1423                        PACTOFF            ERASE                                          #  B(1)PL, DSP N48 R01 = PTRIM, R02 = YTRIM
002770: E6,1424                        YACTOFF            ERASE                                          #  B(1)PL, CONSECUTIVE WITH PACTOFF
002771: E6,1425                        HBN10              ERASE                                          #  B(1)
002772: E6,1426                        HBN11/2            ERASE                                          #  B(1)
002773: E6,1427                        HBN12              ERASE                                          #  B(1)
002774: E6,1430                        HBD11/2            ERASE                                          #  B(1)
002775: E6,1431                        HBD12              ERASE                                          #  B(1)
002776: E6,1432                        HBN20              ERASE                                          #  B(1)
002777: E6,1433                        HBN21/2            ERASE                                          #  B(1)
002778: E6,1434                        HBN22              ERASE                                          #  B(1)
002779: E6,1435                        HBD21/2            ERASE                                          #  B(1)
002780: E6,1436                        HBD22              ERASE                                          #  B(1)
002781: E6,1437                        HBN30              ERASE                                          #  B(1)
002782: E6,1440                        HBN31/2            ERASE                                          #  B(1)
002783: E6,1441                        HBN32              ERASE                                          #  B(1)


002785: E6,1442                        HBD31/2            ERASE                                          #  B(1)
002786: E6,1443                        HBD32              ERASE                                          #  B(1)
002787:
002788:                                                                                                  #  ******** EXCLUSIVE TVC DAP VARIABLES. **********************************(5D)
002789: E6,1444                        V97VCNTR           ERASE                                          #  B(1)
002790: E6,1445                        TEMPDAP            ERASE    +1                                    #  B(2)
002791: E6,1447  E6,1445               MRKRTMP            =        TEMPDAP                               #        ((B(1)))
002792: E6,1447                        CNTR               ERASE                                          #  B(1)
002793: E6,1450                        OGAD               ERASE                                          #  B(1)
002794:
002795:                                                                                                  #  ******** EXCLUSIVE RCS DAP VARIABLES.  *********************************(13D)
002796: E6,1451                        RWORD1             ERASE    +12D                                  #  B(1)
002797: E6,1466  E6,1452               RWORD2             EQUALS   RWORD1     +1                         #  B(1)
002798: E6,1466  E6,1453               PWORD1             EQUALS   RWORD2     +1                         #  B(1)
002799: E6,1466  E6,1454               PWORD2             EQUALS   PWORD1     +1                         #  B(1)
002800: E6,1466  E6,1455               YWORD1             EQUALS   PWORD2     +1                         #  B(1)
002801: E6,1466  E6,1456               YWORD2             EQUALS   YWORD1     +1                         #  B(1)
002802: E6,1466  E6,1457               BLAST              EQUALS   YWORD2     +1                         #  B(2)
002803: E6,1466  E6,1461               BLAST1             EQUALS   BLAST      +2                         #  B(2)
002804: E6,1466  E6,1463               BLAST2             EQUALS   BLAST1     +2                         #  B(2)
002805: E6,1466  E6,1465               T5PHASE            EQUALS   BLAST2     +2                         #  B(1)
002806:
002807:                                                                                                  #  ******** RCS/TVC DAP COMMON STORAGE.************************************(16D)
002808: E6,1466                        DAPDATR1           ERASE                                          #  B(1)DSP NOUN 46(R1)
002809: E6,1467                        DAPDATR2           ERASE                                          #  B(1)DSP NOUN 46(R2)
002810:
002811: E6,1470                        IXX                ERASE                                          #  B(1) CONSECUTIVE WITH IAVG, IAVG/TLX FOR
002812: E6,1471                        IAVG               ERASE                                          #  B(1)                            MASSPROP
002813: E6,1472                        IAVG/TLX           ERASE                                          #  B(1)
002814:
002815: E6,1473                        LEMMASS            ERASE                                          #  B(1)DSP NOUN 47 (R2)
002816: E6,1474                        CSMMASS            ERASE                                          #  B(1)DSP NOUN 47 (R1)
002817: E6,1475                        WEIGHT/G           ERASE
002818: E6,1476  E6,1475               MASS               =        WEIGHT/G
002819:
002820: E6,1476                        AK                 ERASE
002821: E6,1477                        AK1                ERASE
002822: E6,1500                        AK2                ERASE
002823:
002824: E6,1501                        RCSFLAGS           ERASE                                          #  B(1) CONSECUTIVE WITHAK2 DOWNLINK
002825: E6,1502                        T5TEMP             ERASE                                          #  B(1)
002826: E6,1503                        EDRIVEX            ERASE
002827: E6,1504                        EDRIVEY            ERASE


002829: E6,1505                        EDRIVEZ            ERASE
002830:
002831:                                                                                                  #  INTEMP THRU INTEMP+14D ARE RESERVED FOR OVERLAYED TVC/RCS INTERUP TRUE TEMPORIES
002832: E6,1506                        INTTEMP            ERASE    +14D                                  #  (15)
002833:
002834:                                                                                                  #  TVC/RCS THRU TVCRCS +11D RESERVED FOR DOWNLINKED VARIABLES
002835: E6,1525                        TVCRCS             ERASE    +11D                                  #  (12)
002836:                                                                                                  #  RCS (WBODYS,ADOTS)
002837:                                                                                                  #  TVC(OMEGACS,OMEGABS)
002838:
002839:                                                                                                  #  TVC DAP TEMPORARY VARIABLES************************************
002840:
002841:                                                                                                  #  TVC DAP INTERUPT TRUE TEMPORARIES******************************
002842:
002843: E6,1541  E6,1506               PHI333             EQUALS   INTTEMP                               #  B(1) COUNTING REGISTER
002844: E6,1541  E6,1507               PSI333             EQUALS   PHI333     +1                         #  B(1) COUNTING REGISTER
002845: E6,1541  E6,1510               TEMP333            EQUALS   PSI333     +1                         #  B(1) MASS TEMPORARY
002846: E6,1541  E6,1511               VARST0             EQUALS   TEMP333    +1                         #  B(8) BREAKPOINTS AND SLOPES
002847: E6,1541  E6,1516               VARST5             =        VARST0     +5
002848: E6,1541  E6,1522               LASTMASP           EQUALS   VARST0     +9D                        #  LAST VARST0 WORD
002849: E6,1541  E6,1523               TVCTMP1            EQUALS   LASTMASP   +1                         #  B(1)
002850:
002851:                                                                                                  #  *******REGULAR TVC TEMPORARIES*************
002852:
002853:                                                                                                  #  TVC ZEROING LOOP STARTS HERE
002854:
002855: E6,1541  E6,1525               OMEGAC             EQUALS   TVCRCS                                #  I(6)
002856: E6,1541  E6,1525               OMEGAXC            =        OMEGAC
002857: E6,1541  E6,1527               OMEGAYC            =        OMEGAC     +2
002858: E6,1541  E6,1531               OMEGAZC            =        OMEGAC     +4
002859:
002860: E6,1541  E6,1533               OMEGAB             EQUALS   TVCRCS     +6                         #  B(6)
002861: E6,1541  E6,1533               OMEGAXB            =        OMEGAB
002862: E6,1541  E6,1535               OMEGAYB            =        OMEGAB     +2
002863: E6,1541  E6,1537               OMEGAZB            =        OMEGAB     +4
002864:
002865: E6,1541  E6,1541               PTMP1              EQUALS   OMEGAC     +12D                       #  B(2)
002866: E6,1541  E6,1543               PTMP2              EQUALS   PTMP1      +2                         #  B(2)
002867: E6,1541  E6,1545               PTMP3              EQUALS   PTMP2      +2                         #  B(2)
002868: E6,1541  E6,1547               PTMP4              EQUALS   PTMP3      +2                         #  B(2)
002869: E6,1541  E6,1551               PTMP5              EQUALS   PTMP4      +2                         #  B(2)


002871: E6,1541  E6,1553               PTMP6              EQUALS   PTMP5      +2                         #  B(2)
002872:
002873: E6,1541  E6,1555               YTMP1              EQUALS   PTMP6      +2                         #  B(2)
002874: E6,1541  E6,1557               YTMP2              EQUALS   YTMP1      +2                         #  B(2)
002875: E6,1541  E6,1561               YTMP3              EQUALS   YTMP2      +2                         #  B(2)
002876: E6,1541  E6,1563               YTMP4              EQUALS   YTMP3      +2                         #  B(2)
002877: E6,1541  E6,1565               YTMP5              EQUALS   YTMP4      +2                         #  B(2)
002878: E6,1541  E6,1567               YTMP6              EQUALS   YTMP5      +2                         #  B(2)
002879:
002880: E6,1541  E6,1571               ROLLFIRE           EQUALS   YTMP6      +2                         #  B(1)
002881: E6,1541  E6,1572               ROLLWORD           EQUALS   ROLLFIRE   +1                         #  B(1)
002882: E6,1541  E6,1573               TEMREG             EQUALS   ROLLWORD   +1                         #  B(1)
002883:
002884: E6,1541  E6,1574               STROKER            EQUALS   TEMREG     +1                         #  B(1)
002885:
002886: E6,1541  E6,1575               PERRB              EQUALS   STROKER    +1                         #  B(2)
002887: E6,1541  E6,1577               YERRB              EQUALS   PERRB      +2                         #  B(2)
002888:
002889: E6,1541  E6,1601               DELPBAR            EQUALS   YERRB      +2                         #  B(2)
002890: E6,1541  E6,1603               DELYBAR            EQUALS   DELPBAR    +2                         #  B(2)
002891:
002892: E6,1541  E6,1605               PDELOFF            EQUALS   DELYBAR    +2                         #  B(2)
002893: E6,1541  E6,1607               YDELOFF            EQUALS   PDELOFF    +2                         #  B(2)
002894:
002895:                                                                                                  #  TVC ZEROING LOOP ENDS HERE
002896: E6,1541  E6,1611               TTMP1              EQUALS   YDELOFF    +2                         #  B(2)
002897: E6,1541  E6,1613               TTMP2              EQUALS   TTMP1      +2                         #  B(2)
002898: E6,1541  E6,1615               DAP1               EQUALS   TTMP2      +2                         #  B(2)
002899: E6,1541  E6,1617               DAP2               EQUALS   DAP1       +2                         #  B(2)
002900: E6,1541  E6,1621               DAP3               EQUALS   DAP2       +2                         #  B(2)
002901:
002902: E6,1541  E6,1623               PCMD               EQUALS   DAP3       +2                         #  B(1)
002903: E6,1541  E6,1624               YCMD               EQUALS   PCMD       +1                         #  B(1), CONSECUTIVE WITH PCMD
002904: E6,1541  E6,1625               T5TVCDT            EQUALS   YCMD       +1                         #  B(1)
002905: E6,1541  E6,1626               MDT                EQUALS   T5TVCDT    +1                         #  I(6)
002906: E6,1541  E6,1634               KPRIMEDT           EQUALS   MDT        +6                         #  I(2)
002907: E6,1541  E6,1636               KTLX/I             EQUALS   KPRIMEDT   +2                         #  B(1)
002908: E6,1541  E6,1637               TENMDOT            EQUALS   KTLX/I     +1                         #  B(1)
002909: E6,1541  E6,1640               1/CONACC           EQUALS   TENMDOT    +1                         #  B(1)
002910: E6,1541  E6,1641               VARK               EQUALS   1/CONACC   +1                         #  B(1)
002911: E6,1541  E6,1642               REPFRAC            EQUALS   VARK       +1                         #  B(1)
002912: E6,1541  E6,1643               VCNTR              EQUALS   REPFRAC    +1                         #  B(1)
002913: E6,1541  E6,1644               TVCPHASE           EQUALS   VCNTR      +1                         #  B(1)
002914: E6,1541  E6,1645               PCDUYPST           EQUALS   TVCPHASE   +1                         #  B(1)
002915: E6,1541  E6,1646               PCDUZPST           EQUALS   PCDUYPST   +1                         #  B(1)
002916: E6,1541  E6,1647               MCDUYDOT           EQUALS   PCDUZPST   +1                         #  B(1)
002917: E6,1541  E6,1650               MCDUZDOT           EQUALS   MCDUYDOT   +1                         #  B(1)


002919: E6,1541  E6,1651               TVCEXPHS           EQUALS   MCDUZDOT   +1                         #  B(1)
002920: E6,1541  E6,1652               MASSTMP            EQUALS   TVCEXPHS   +1                         #  B(1)  PROTECT
002921: E6,1541  E6,1653               VCNTRTMP           EQUALS   MASSTMP    +1                         #  B(1)    *PROTECT***
002922:
002923:                                                                                                  #  STROKE TEST VARIABLES
002924:
002925:                                                                                                  #  (6D)
002926: E6,1541  E6,1654               STRKTIME           EQUALS   VCNTRTMP   +1                         #  B(1)
002927: E6,1541  E6,1655               CADDY              EQUALS   STRKTIME   +1                         #  B(1)
002928: E6,1541  E6,1656               N                  EQUALS   CADDY      +1                         #  B(1)
002929: E6,1541  E6,1657               BUNKER             EQUALS   N          +1                         #  B(1)
002930: E6,1541  E6,1660               REVS               EQUALS   BUNKER     +1                         #  B(1)
002931: E6,1541  E6,1661               CARD               EQUALS   REVS       +1                         #  B(1)
002932:
002933:                                                                                                  #  TVC ROLL DAP VARIABLES
002934:
002935:                                                                                                  #  (8D)
002936: E6,1541  E6,1662               OGANOW             EQUALS   CARD       +1                         #  B(1)
002937: E6,1541  E6,1663               OGAPAST            EQUALS   OGANOW     +1                         #  B(1)
002938: E6,1541  E6,1664               OGA                EQUALS   OGAPAST    +1                         #  B(1)TMP
002939: E6,1541  E6,1664               OGAERR             =        OGA                                   #  (ROLL DAP USES OGA, MEANS OGAERROR)
002940: E6,1541  E6,1665               DELOGART           EQUALS   OGA        +1                         #  B(1)TMP
002941: E6,1541  E6,1666               SGNRT              EQUALS   DELOGART   +1                         #  SIGN OF OGA RATE
002942: E6,1541  E6,1667               DELOGA             EQUALS   SGNRT      +1                         #  USED IN ROLL LOGIC
002943: E6,1541  E6,1670               I                  EQUALS   DELOGA     +1                         #  USED IN ROLL LOGIC
002944: E6,1541  E6,1671               IOGARATE           EQUALS   I          +1                         #  USED IN ROLL LOGIC
002945:
002946:                                                                                                  #  TVC DAP RESTART TEMPORARIES.
002947: E6,1541  E6,1672               PACTTMP            EQUALS   IOGARATE   +1                         #  B(2)
002948: E6,1541  E6,1674               YACTTMP            EQUALS   PACTTMP    +2                         #  B(2)
002949: E6,1541  E6,1676               CNTRTMP            EQUALS   YACTTMP    +2                         #  B(1)
002950: E6,1541  E6,1677               STRKTTMP           EQUALS   CNTRTMP    +1                         #  B(1)
002951: E6,1541  E6,1700               DELBRTMP           EQUALS   STRKTTMP   +1                         #  B(2)
002952: E6,1541  E6,1702               ERRBTMP            EQUALS   DELBRTMP   +2                         #  B(2)
002953: E6,1541  E6,1704               CMDTMP             EQUALS   ERRBTMP    +2                         #  B(2)
002954:
002955: E6,1541  E6,1706               TMP1               EQUALS   CMDTMP     +2                         #  B(2)
002956: E6,1541  E6,1710               TMP2               EQUALS   TMP1       +2                         #  B(2)
002957: E6,1541  E6,1712               TMP3               EQUALS   TMP2       +2                         #  B(2)
002958: E6,1541  E6,1714               TMP4               EQUALS   TMP3       +2                         #  B(2)
002959: E6,1541  E6,1716               TMP5               EQUALS   TMP4       +2                         #  B(2)
002960: E6,1541  E6,1720               TMP6               EQUALS   TMP5       +2                         #  B(2)
002961:
002962:                                                                                                  #  TVC DAP FILTER COEFFICIENTS TEMPORARIES
002963: E6,1541  E6,1722               COEFFADR           EQUALS   TMP6       +2                         #  B(1)
002964: E6,1541  E6,1723               N10                EQUALS   COEFFADR   +1                         #  I(15)


002966:
002967:                                                                                                  #  OVERLAYS WITHIN TVC DAP
002968:
002969: E6,1541  E6,1533               OGARATE            =        OMEGAB                                #  B(2)
002970:
002971: E6,1541  E6,1611               PHASETMP           =        TTMP1                                 #  B(1) RESTART FOR CSM/LM V46 SWITCH-OVER
002972: E6,1541  E6,1613               RTRNLOC            =        TTMP2                                 #  B(1) RESTART FOR CSM/LM V46 SWITCH-OVER
002973: E6,1541  E6,1702               BZERO              =        ERRBTMP
002974: E6,1541  E6,1702               CZERO              =        ERRBTMP
002975: E6,1541  E6,1704               JZERO              =        CMDTMP
002976: E6,1541  E6,1704               YZERO              =        CMDTMP
002977:
002978:                                                                                                  #  S40.9 STORAGE..........
002979:
002980: E6,1541  E6,1742               NBRCYCLS           EQUALS   N10        +15D                       #  B(1) COUNTER FOR P40,41 STEERING
002981: E6,1541  E6,1743               NBRCYCLP           EQUALS   NBRCYCLS   +1                         #  B(1) MAINTAIN ORDER
002982: E6,1541  E6,1744               DELVSUM            EQUALS   NBRCYCLP   +1                         #  I(6) P40,P41
002983: E6,1541  E6,1752               DELVSUMP           EQUALS   DELVSUM    +6                         #  I(6) P40,P41
002984:


002986:                                                                                                  #  ******** RCS DAP TEMPORARY VARIABLES.***********************************(95D)
002987:
002988:                                                                                                  #  **RCS INTERUPT TRUE TEMPS *************************                     15D
002989: E6,1541  E6,1506               SPNDX              EQUALS   INTTEMP                               #  B(1)
002990: E6,1541  E6,1507               DPNDX              EQUALS   SPNDX      +1                         #  B(1)TMP
002991: E6,1541  E6,1510               KMPAC              EQUALS   DPNDX      +1                         #  B(2)TMP
002992: E6,1541  E6,1512               KMPTEMP            EQUALS   KMPAC      +2                         #  B(1)TMP
002993:
002994: E6,1541  E6,1513               XNDX1              EQUALS   KMPTEMP    +1                         #  B(1)TMP XNDX1 THRU NYJETS ARE OVERLAYED
002995: E6,1541  E6,1514               XNDX2              EQUALS   XNDX1      +1                         #  B(1)TMP BY OTHER DAP ERASABLES SO
002996: E6,1541  E6,1515               YNDX               EQUALS   XNDX2      +1                         #  B(1)TMP SHOULD ALWAYS BE DEFINED IN
002997: E6,1541  E6,1516               ZNDX               EQUALS   YNDX       +1                         #  B(1)TMP A BLOCK
002998: E6,1541  E6,1517               RINDEX             EQUALS   ZNDX       +1                         #  B(1)TMP
002999: E6,1541  E6,1520               PINDEX             EQUALS   RINDEX     +1                         #  B(1)TMP
003000: E6,1541  E6,1521               YINDEX             EQUALS   PINDEX     +1                         #  B(1)TMP
003001: E6,1541  E6,1522               NRJETS             EQUALS   YINDEX     +1                         #  B(1)TMP
003002: E6,1541  E6,1523               NPJETS             EQUALS   NRJETS     +1                         #  B(1)TMP
003003: E6,1541  E6,1524               NYJETS             EQUALS   NPJETS     +1                         #  B(1)TMP
003004:
003005: E6,1541  E6,1513               WTEMP              EQUALS   XNDX1                                 #  B(2)TMP WTEMP THRU DELTEMPZ OVERLAY
003006: E6,1541  E6,1515               DELTEMPX           EQUALS   WTEMP      +2                         #  B(2)TMP XNDX1 THRU NRJETS AND EDOT THRU
003007: E6,1541  E6,1517               DELTEMPY           EQUALS   DELTEMPX   +2                         #  B(2)TMP ADBVEL
003008: E6,1541  E6,1521               DELTEMPZ           EQUALS   DELTEMPY   +2                         #  B(2)TMP
003009:
003010: E6,1541  E6,1515               EDOT               EQUALS   YNDX                                  #  B(2)TMP EDOT THRU ADBVEL OVERLAY
003011: E6,1541  E6,1517               AERR               EQUALS   EDOT       +2                         #  B(1)TMP YNDX THRU NPJETS AND DELTEMPX
003012: E6,1541  E6,1520               EDOTVEL            EQUALS   AERR       +1                         #  B(2)TMP THRU DELTEMPZ
003013: E6,1541  E6,1522               AERRVEL            EQUALS   EDOTVEL    +2                         #  B(1)TMP
003014: E6,1541  E6,1523               ADBVEL             EQUALS   AERRVEL    +1                         #  B(1)TMP
003015:
003016:                                                                                                  #  *** REGULAR RCS TEMPS*****************************                      (   ).
003017:
003018:                                                                                                  #   RCS ZEROING LOOP STARTS HERE****  ** **  ** ***   *** * *              (37)
003019: E6,1541  E6,1525               WBODY              EQUALS   TVCRCS                                #  B(2)TMP
003020: E6,1541  E6,1527               WBODY1             EQUALS   WBODY      +2                         #  B(2)TMP
003021: E6,1541  E6,1531               WBODY2             EQUALS   WBODY      +4                         #  B(2)TMP
003022: E6,1541  E6,1533               ADOT               EQUALS   WBODY2     +2                         #  B(2)TMP
003023: E6,1541  E6,1535               ADOT1              EQUALS   ADOT       +2                         #  B(2)TMP
003024: E6,1541  E6,1537               ADOT2              EQUALS   ADOT1      +2                         #  B(2)TMP
003025:
003026: E6,1541  E6,1541               MERRORX            EQUALS   ADOT2      +2                         #   (2)
003027: E6,1541  E6,1543               MERRORY            EQUALS   MERRORX    +2                         #   (2)
003028: E6,1541  E6,1545               MERRORZ            EQUALS   MERRORY    +2                         #   (2)
003029: E6,1541  E6,1547               DFT                EQUALS   MERRORZ    +2                         #  B(1)TMP
003030: E6,1541  E6,1550               DFT1               EQUALS   DFT        +1                         #  B(1)TMP
003031: E6,1541  E6,1551               DFT2               EQUALS   DFT1       +1                         #  B(1)TMP
003032: E6,1541  E6,1552               DRHO               EQUALS   DFT2       +1                         #  B(2)TMP
003033: E6,1541  E6,1554               DRHO1              EQUALS   DRHO       +2                         #  B(2)TMP


003035: E6,1541  E6,1556               DRHO2              EQUALS   DRHO1      +2                         #  B(2)TMP
003036: E6,1541  E6,1560               ATTSEC             EQUALS   DRHO2      +2                         #  B(1)TMP
003037: E6,1541  E6,1561               TAU                EQUALS   ATTSEC     +1                         #  B(1)TMP
003038: E6,1541  E6,1562               TAU1               EQUALS   TAU        +1                         #  B(1)TMP
003039: E6,1541  E6,1563               TAU2               EQUALS   TAU1       +1                         #  B(1)TMP
003040: E6,1541  E6,1564               BIAS               EQUALS   TAU2       +1                         #  B(1)TMP
003041: E6,1541  E6,1565               BIAS1              EQUALS   BIAS       +1                         #  B(1)TMP
003042: E6,1541  E6,1566               BIAS2              EQUALS   BIAS1      +1                         #  B(1)TMP
003043: E6,1541  E6,1567               ERRORX             EQUALS   BIAS2      +1                         #  B(1)TMP
003044: E6,1541  E6,1570               ERRORY             EQUALS   ERRORX     +1                         #  B(1)TMP
003045: E6,1541  E6,1571               ERRORZ             EQUALS   ERRORY     +1                         #  B(1)TMP
003046:
003047:                                                                                                  #  RCS ZERO LOOP ENDS HERE
003048:                                                                                                  #        MORE RCS                        (69D)
003049: E6,1541  E6,1572               THETADX            EQUALS   ERRORZ     +1                         #  B(1)TMP MUST BE CONSECUTIVE WITH ERRORZ
003050: E6,1541  E6,1573               THETADY            EQUALS   THETADX    +1                         #  B(1)TMP
003051: E6,1541  E6,1574               THETADZ            EQUALS   THETADY    +1                         #  B(1)TMP
003052:
003053: E6,1541  E6,1575               DELCDUX            EQUALS   THETADZ    +1                         #  B(2)TMP
003054: E6,1541  E6,1577               DELCDUY            EQUALS   DELCDUX    +2                         #  B(2)TMP
003055: E6,1541  E6,1601               DELCDUZ            EQUALS   DELCDUY    +2                         #  B(2)TMP
003056:
003057: E6,1541  E6,1603               DCDU               EQUALS   DELCDUZ    +2                         #  B(6)TMP USED DURING P20
003058: E6,1541  E6,1611               DTHETASM           EQUALS   DCDU       +6                         #  B(6)TMP STEER LOW OUTPUT.
003059:
003060: E6,1541  E6,1617               ATTKALMN           EQUALS   DTHETASM   +6                         #  B(1)TMP
003061: E6,1541  E6,1620               KMJ                EQUALS   ATTKALMN   +1                         #  B(1)TMP
003062: E6,1541  E6,1621               KMJ1               EQUALS   KMJ        +1                         #  B(1)TMP
003063: E6,1541  E6,1622               KMJ2               EQUALS   KMJ1       +1                         #  B(1)TMP
003064: E6,1541  E6,1623               J/M                EQUALS   KMJ2       +1                         #  B(1)TMP
003065: E6,1541  E6,1624               J/M1               EQUALS   J/M        +1                         #  B(1)TMP
003066: E6,1541  E6,1625               J/M2               EQUALS   J/M1       +1                         #  B(1)TMP
003067: E6,1541  E6,1626               RACFAIL            EQUALS   J/M2       +1                         #  B(1)TMP
003068: E6,1541  E6,1627               RBDFAIL            EQUALS   RACFAIL    +1                         #  B(1)TMP
003069: E6,1541  E6,1630               ACORBD             EQUALS   RBDFAIL    +1                         #  B(1)TMP
003070: E6,1541  E6,1631               XTRANS             EQUALS   ACORBD     +1                         #  B(1)TMP
003071: E6,1541  E6,1632               CH31TEMP           EQUALS   XTRANS     +1                         #  B(1)TMP
003072: E6,1541  E6,1633               CHANTEMP           EQUALS   CH31TEMP   +1                         #  B(1)TMP
003073: E6,1541  E6,1634               T5TIME             EQUALS   CHANTEMP   +1                         #  B(1)TMP
003074: E6,1541  E6,1635               RHO                EQUALS   T5TIME     +1                         #  B(1)TMP
003075: E6,1541  E6,1636               RHO1               EQUALS   RHO        +1                         #  B(1)TMP
003076: E6,1541  E6,1637               RHO2               EQUALS   RHO1       +1                         #  B(1)TMP
003077: E6,1541  E6,1640               AMGB1              EQUALS   RHO2       +1                         #  B(1)TMP
003078: E6,1541  E6,1641               AMGB4              EQUALS   AMGB1      +1                         #  B(1)TMP


003080: E6,1541  E6,1642               AMGB5              EQUALS   AMGB4      +1                         #  B(1)TMP
003081: E6,1541  E6,1643               AMGB7              EQUALS   AMGB5      +1                         #  B(1)TMP
003082: E6,1541  E6,1644               AMGB8              EQUALS   AMGB7      +1                         #  B(1)TMP
003083: E6,1541  E6,1645               CAPSI              EQUALS   AMGB8      +1                         #  B(1)TMP
003084: E6,1541  E6,1646               CDUXD              EQUALS   CAPSI      +1                         #  B(2)TMP
003085: E6,1541  E6,1650               CDUYD              EQUALS   CDUXD      +2                         #  B(2)TMP
003086: E6,1541  E6,1652               CDUZD              EQUALS   CDUYD      +2                         #  B(2)TMP
003087: E6,1541  E6,1654               SLOPE              EQUALS   CDUZD      +2                         #  B(1)TMP
003088: E6,1541  E6,1655               ADB                EQUALS   SLOPE      +1                         #  B(1)TMP
003089: E6,1541  E6,1656               RMANNDX            EQUALS   ADB        +1                         #  B(1)TMP
003090: E6,1541  E6,1657               PMANNDX            EQUALS   RMANNDX    +1                         #  B(1)TMP
003091: E6,1541  E6,1660               YMANNDX            EQUALS   PMANNDX    +1                         #  B(1)TMP MUST BE LAST VARIABLE IN RCS
003092:


003094:                                                                                                  #  ******** ENTRY DAP TEMPORARY VARIABLES.*********************************(69D)
003095:
003096:                                                                                                  #  ANGLE REGISTERS FOR ENTRY DAPS
003097: E6,1541  E6,1661               AOG                EQUALS   BCDU                                  #  1P
003098: E6,1541  E6,1662               AIG                EQUALS   AOG        +1                         #  1P
003099: E6,1541  E6,1663               AMG                EQUALS   AIG        +1                         #  1P
003100: E6,1541  E6,1664               ROLL/180           EQUALS   AMG        +1                         #  1P
003101: E6,1541  E6,1665               ALFA/180           EQUALS   ROLL/180   +1                         #  1P
003102: E6,1541  E6,1666               BETA/180           EQUALS   ALFA/180   +1                         #  1P
003103: E6,1541  E6,1667               AOG/PIP            EQUALS   BETA/180   +1                         #  1P
003104: E6,1541  E6,1670               AIG/PIP            EQUALS   AOG/PIP    +1                         #  1P
003105: E6,1541  E6,1671               AMG/PIP            EQUALS   AIG/PIP    +1                         #  1P
003106: E6,1541  E6,1672               ROLL/PIP           EQUALS   AMG/PIP    +1                         #  1P
003107: E6,1541  E6,1673               ALFA/PIP           EQUALS   ROLL/PIP   +1                         #  1P
003108: E6,1541  E6,1674               BETA/PIP           EQUALS   ALFA/PIP   +1                         #  1P
003109:
003110:                                                                                                  #  GYMBAL DIFFERENCES OVER INTERVAL TCDU = .1 SEC.
003111: E6,1541  E6,1675               -DELAOG            EQUALS   BETA/PIP   +1                         #  1P
003112: E6,1541  E6,1676               -DELAIG            EQUALS   -DELAOG    +1                         #  1P
003113: E6,1541  E6,1677               -DELAMG            EQUALS   -DELAIG    +1                         #  1P
003114:
003115:                                                                                                  #  ESTIMATED BODY RATES
003116: E6,1541  E6,1700               CMDAPMOD           EQUALS   -DELAMG    +1                         #  1P GOES BEFORE PREL FOR TM.
003117:
003118: E6,1541  E6,1701               PREL               EQUALS   CMDAPMOD   +1                         #  1P P TCDU/180         (ROLLDOT)
003119: E6,1541  E6,1702               QREL               EQUALS   PREL       +1                         #  1P Q TCDU/180         (PITCHDOT)
003120: E6,1541  E6,1703               RREL               EQUALS   QREL       +1                         #  1P R TCDU/180         (YAWDOT)
003121:
003122: E6,1541  E6,1704               BETADOT            EQUALS   RREL       +1                         #  1P MUST FOLLOW RREL. BETADOT TCDU/180
003123: E6,1541  E6,1705               PHIDOT             EQUALS   BETADOT    +1                         #  1P
003124:
003125:                                                                                                  #  OLD (UNAVERAGED) BODY RATE MEASURE
003126: E6,1541  E6,1706               OLDELP             EQUALS   PHIDOT     +1                         #  1P
003127: E6,1541  E6,1707               OLDELQ             EQUALS   OLDELP     +1                         #  1P
003128: E6,1541  E6,1710               OLDELR             EQUALS   OLDELQ     +1                         #  1P
003129:
003130: E6,1541  E6,1711               JETAG              EQUALS   OLDELR     +1                         #  1P
003131: E6,1541  E6,1712               TUSED              EQUALS   JETAG      +1                         #  1P ELAPSED TIME SINCE NOMINAL UPDATE.
003132:
003133:                                                                                                  #  FOLLOWING 3 SP WORDS IN DOWNLINK.  ROLLTM SENT EACH 1 SEC.
003134: E6,1541  E6,1713               PAXERR1            EQUALS   TUSED      +1                         #  1P INTEGRATED ROLL ERROR/360.
003135: E6,1541  E6,1714               ROLLTM             EQUALS   PAXERR1    +1                         #  1P ROLL/180 FOR TM.
003136: E6,1541  E6,1715               ROLLC              EQUALS   ROLLTM     +1                         #  2P ROLLCOM/360 FROM ENTRY (FOR TM)
003137:                                                                                                  #  >> KEEP ROLLC & ROLLHOLD ADJACENT FOR TP


003139: E6,1541  E6,1717               ROLLHOLD           EQUALS   ROLLC      +2                         #  1P FOR ATTITUDE HOLD IN CMDAPMOD = +1
003140:
003141:                                                                                                  #  ENTRY DAP QUANTITIES THAT SHARE WITH RCS DAP.
003142: E6,1541  E6,1603               ALFACOM            EQUALS   DCDU                                  #  1P KEEP ADJACENT TO BETACOM. <<
003143: E6,1541  E6,1604               BETACOM            EQUALS   ALFACOM    +1                         #  1P
003144:
003145:                                                                                                  #  JET LIST:  DT, JETBITS IN THIS ORDER.
003146: E6,1541  E6,1605               TOFF               EQUALS   BETACOM    +1                         #  1P DP PAIR
003147: E6,1541  E6,1606               TBITS              EQUALS   TOFF       +1                         #  1P
003148: E6,1541  E6,1607               TON2               EQUALS   TBITS      +1                         #  1P DP PAIR
003149: E6,1541  E6,1610               T2BITS             EQUALS   TON2       +1                         #  1P
003150:
003151:                                                                                                  #  MISCELLANEOUS PERMANENT ERASEABLE.
003152: E6,1541  E6,1611               OUTTAG             EQUALS   T2BITS     +1                         #  1P
003153: E6,1541  E6,1612               NUJET              EQUALS   OUTTAG     +1                         #  1P
003154:
003155:                                                                                                  #  MORE ENTRY DAP QUANTITIES THAT DO NOT SHARE WITH RCS DAP.
003156: E6,1541  E6,1720               JETEM              EQUALS   ROLLHOLD   +1                         #  2P THIS DP USED IN RATEAVG.
003157: E6,1541  E6,1722               GAMA               EQUALS   JETEM      +2                         #  1P
003158: E6,1541  E6,1723               GAMDOT             EQUALS   GAMA       +1                         #  1P
003159: E6,1541  E6,1724               POSEXIT            EQUALS   GAMDOT     +1                         #  1P
003160: E6,1541  E6,1725               CM/GYMDT           EQUALS   POSEXIT    +1                         #  1P
003161: E6,1541  E6,1726               HEADSUP            EQUALS   CM/GYMDT   +1                         #  1P DSP NOUN 61 FOR P62,63,64,67.
003162: E6,1541  E6,1727               P63FLAG            EQUALS   HEADSUP    +1                         #  1P INTERLOCK FOR WAKEP62
003163:
003164:                                                                                                  # >> SHARE BELOW WITH RCS RUPT TEMPS (< 15D) <<<
003165: E6,1541  E6,1506               CALFA              EQUALS   SPNDX                                 #  1P
003166: E6,1541  E6,1507               SALFA              EQUALS   CALFA      +1                         #  1P
003167:
003168: E6,1541  E6,1510               SINM               EQUALS   SALFA      +1                         #  1P
003169: E6,1541  E6,1511               COSM               EQUALS   SINM       +1                         #  1P
003170: E6,1541  E6,1512               SINO               EQUALS   COSM       +1                         #  1P
003171: E6,1541  E6,1513               COSO               EQUALS   SINO       +1                         #  1P
003172: E6,1541  E6,1514               SINOCOSM           EQUALS   COSO       +1                         #  1P
003173: E6,1541  E6,1515               COSOCOSM           EQUALS   SINOCOSM   +1                         #  1P
003174:                                                                                                  # >> SHARE ABOVE WITH RCS RUPT TEMPS <<<
003175:
003176:                                                                                                  #  THE FOLLOWING FEW REGISTERS USED ONCE EACH 2 SEC.
003177: E6,1541  E6,1613               -VT/180            EQUALS   NUJET      +1                         #  1P
003178: E6,1541  E6,1614               LCX/360            EQUALS   -VT/180    +1                         #  1P
003179: E6,1541  E6,1615               XD/360             EQUALS   LCX/360    +1                         #  1P
003180: E6,1541  E6,1616               VSQ/4API           EQUALS   XD/360     +1                         #  1P
003181: E6,1541  E6,1617               JNDX               EQUALS   VSQ/4API   +1                         #  1P
003182: E6,1541  E6,1620               JNDX1              EQUALS   JNDX       +1                         #  1P


003184: E6,1541  E6,1621               TON1               EQUALS   JNDX1      +1                         #  1P DP PAIR
003185: E6,1541  E6,1622               T1BITS             EQUALS   TON1       +1                         #  1P
003186:
003187:                                                                                                  #  MISCELLANEOUS REGISTERS USED EACH UPDATE.
003188: E6,1541  E6,1623               CM/SAVE            EQUALS   T1BITS     +1                         #  1P
003189: E6,1541  E6,1624               JETEM2             EQUALS   CM/SAVE    +1                         #  1P TEMPORARY STORAGE
003190:
003191:                                                                                                  #  DAP QUANTITIES SHARED WITH RCS DAP FOR TM & FLIGHT RECORDER.
003192: E6,1541  E6,1567               VDT/180            =        ERRORX                                #  1P (EDIT)
003193: E6,1541  E6,1570               -VT/180E           =        ERRORY                                #  1P (EDIT)
003194:
003195: E6,1541  E6,1476               PAXERR             EQUALS   AK                                    #  1P ROLL ERROR FOR NEEDLES
003196: E6,1541  E6,1572               QAXERR             =        THETADX                               #  1P SINCE AK1 IS ZEROED IN ATM DAP.
003197: E6,1541  E6,1573               RAXERR             =        QAXERR     +1                         #  1P SINCE AK2 IS ZEROED IN TM DAP.
003198:
003199:                                                                                                  #  **** COLMANU (R60,R62) ****
003200: E6,1541  E6,1710               VECQTEMP           EQUALS   COFSKEW
003201:


003203:                                                                                                  #  ******** KALCMANU VARIABLES. (71D) *************************************
003204: E6,1541  E6,1661               BCDU               EQUALS   YMANNDX    +1                         #  B(3)TMP
003205: E6,1541  E6,1664               KSPNDX             EQUALS   BCDU       +3                         #  B(1)TMP
003206: E6,1541  E6,1665               KDPNDX             EQUALS   KSPNDX     +1                         #  B(1)TMP
003207:
003208: E6,1541  E6,1666               TMIS               EQUALS   KDPNDX     +1                         #  I(18) MUST BE IN SAME BANK AS RCS DAP
003209: E6,1541  E6,1710               COFSKEW            EQUALS   TMIS       +18D                       #  I(6)  MUST BE IN SAME BANK AS RCS DAP
003210: E6,1541  E6,1716               CAM                EQUALS   COFSKEW    +6                         #  I(2)  MUST BE IN SAME BANK AS RCS DAP
003211:
003212: E6,1541  E6,1720               MIS                EQUALS   CAM        +2                         #  I(18) (THE REST MAY GO ANYWHERE)
003213: E6,1541  E6,1742               COF                EQUALS   MIS        +18D                       #  I(6)TMP
003214: E6,1541  E6,1750               SCAXIS             EQUALS   COF        +6                         #  I(6)TMP
003215: E6,1541  E6,1756               POINTVSM           EQUALS   SCAXIS     +6                         #  I(6)TMP
003216: E6,1541  E6,1764               AM                 EQUALS   POINTVSM   +6                         #  I(2)TMP
003217: E6,1541  E6,1766               RAD                EQUALS   AM         +2                         #  I(2)TMP
003218:
003219:                                                                                                  #  FIRST-ORDER OVERLAYS IN KALCMANU
003220: E6,1541  E6,1666               KV1                EQUALS   TMIS                                  #  I(6)TMP
003221: E6,1541  E6,1666               MFISYM             EQUALS   TMIS                                  #  I   TMP
003222: E6,1541  E6,1666               TMFI               EQUALS   TMIS                                  #  I   TMP
003223: E6,1541  E6,1666               NCDU               EQUALS   TMIS                                  #  B   TMP
003224: E6,1541  E6,1671               NEXTIME            EQUALS   TMIS       +3                         #  B   TMP
003225: E6,1541  E6,1672               TTEMP              EQUALS   TMIS       +4                         #  B   TMP
003226: E6,1541  E6,1674               KV2                EQUALS   TMIS       +6                         #  I(6)TMP
003227: E6,1541  E6,1674               BIASTEMP           EQUALS   TMIS       +6                         #  B   TMP
003228: E6,1541  E6,1702               KV3                EQUALS   TMIS       +12D                       #  I(6)TMP
003229: E6,1541  E6,1702               CGF                EQUALS   TMIS       +12D                       #  I   TMP
003230:
003231: E6,1541  E6,1710               BRATE              EQUALS   COFSKEW                               #  B   TMP
003232: E6,1541  E6,1716               TM                 EQUALS   CAM                                   #  B   TMP
003233:
003234:                                                                                                  #  SECOND-ORDER OVERLAYS IN KALCMANU
003235: E6,1541  E6,1666               P21                EQUALS   KV1                                   #  I(2)TMP
003236: E6,1541  E6,1670               D21                EQUALS   KV1        +2                         #  I(2)TMP
003237: E6,1541  E6,1672               G21                EQUALS   KV1        +4                         #  I(2)TMP
003238:
003239:                                                                                                  #  SATURN BOOST STORAGE.  SAVE TILL RCS DAP OPERATION.   (17D)
003240: E6,1541  E6,1661               POLYNUM            EQUALS   BCDU                                  #  B(15) PAD LOADED
003241: E6,1541  E6,1673               POLYLOC            =        POLYNUM    +10D
003242: E6,1541  E6,1700               SATRLRT            EQUALS   POLYNUM    +15D                       #  B(2)  PAD LOADED
003243:
003244:                                                                                                  #  MORE P11 STORAGE -PAD LOADED-         (2D)


003246:                                                                                                  #  (NOTE:  THIS PAD LOAD WILL NOT BE PRESERVED THROUGHOUT THE MISSION AS IT SHARES STORAGE WITH KALCMANU,
003247:                                                                                                  #  ENTRY DAP AND TVC DAP)
003248: E6,1541  E6,1702               RPSTART            EQUALS   SATRLRT    +2                         #  B(1) PITCH ROLL START TIME
003249: E6,1541  E6,1703               POLYSTOP           EQUALS   RPSTART    +1                         #  B(1) POLYCUT OFF MINUS RPSTART SEC
003250:
003251:                                                                                                  #  STORAGE FOR VHHDOT AND ATTDSP
003252: E6,1541  E6,1704               BODY3              EQUALS   POLYSTOP   +1                         #  B(1)OUT
003253: E6,1541  E6,1705               BODY2              EQUALS   BODY3      +1                         #  B(1)OUT
003254: E6,1541  E6,1706               BODY1              EQUALS   BODY2      +1                         #  B(1)OUT
003255: E6,1541  E6,1707               SPOLYARG           EQUALS   BODY1      +1                         #  B(1)TMP   ARGUEMENT FOR POLLY
003256:
003257: E6,1541  E6,1503               OLDBODY1           =        EDRIVEX                               #  1 PULSE = 0.0432 DEGREES
003258: E6,1541  E6,1504               OLDBODY2           =        EDRIVEY
003259: E6,1541  E6,1505               OLDBODY3           =        EDRIVEZ
003260:
003261:                                                                                                  #  STORAGE FOR S11.1
003262: E6,1541  E6,1710               VDISP              EQUALS   SPOLYARG   +1                         #  I(2)OUT       2(7) M/CS
003263: E6,1541  E6,1712               HDISP              EQUALS   VDISP      +2                         #  I(2)OUT       2(29) M
003264: E6,1541  E6,1714               HDOTDISP           EQUALS   HDISP      +2                         #  I(2)OUT       2(7) M/CS
003265: E6,1541  E6,1716               BOOSTEMP           EQUALS   HDOTDISP   +2                         #  B(3)TEMP
003266:
003267:                                                                                                  #  P11 SATURN I/F                        (9D)
003268: E6,1541  E6,1721               SATRATE            EQUALS   BOOSTEMP   +3                         #  B(4)PL MANEUVER RATES FOR SATURN STICK
003269: E6,1541  E6,1725               SATSW              EQUALS   SATRATE    +4                         #  B(1)TEM STATUS SW FOR BOOST TAKEOVER
003270: E6,1541  E6,1726               BIASAK             EQUALS   SATSW      +1                         #  B(3)TEM STORE AKBIAS FOR BOOST TAKEOVER
003271: E6,1541  E6,1731               SATSCALE           EQUALS   BIASAK     +3                         #  B(1) SCALE FACTOR FOR SATURN STEERING
003272:
003273:                                                                                                  #  P21 STORAGE.                          (1D)
003274: E6,1541  E6,1770               GENRET             EQUALS   RAD        +2                         #  B(1)TMP
003275:
003276:                                                                                                  #  R61CSM STORAGE.                       (1D)
003277: E6,1541  E6,1771               SAVBNK             EQUALS   GENRET     +1                         #  B(1) S-S SAVE EBANK FOR R61 SUBROUTINE
003278:
003279:                                                                                                  #  CRS61.1 STORAGE FOR AUTOPILOT BANK.   (3D)
003280: E6,1541  E6,1772               SAVEDCDU           EQUALS   SAVBNK     +1                         #  B(3)TMP
003281:
003282:                                                                                                  #  R61 STORAGE.                          (1D)


003284: E6,1541  E6,1775               R61CNTR            EQUALS   SAVEDCDU   +3                         #   (1)TMP
003285:
003286:                                                                                                  #  ENTRY RESTART PROTECTION STORAGE.  -KEEP TEMPS IN ORDER-      (12D)
003287: E6,1541  E6,1770               TEMPROLL           EQUALS   GENRET                                #  B(1)TMP COPY CYCLE REGISTER
003288: E6,1541  E6,1771               TEMPALFA           EQUALS   TEMPROLL   +1                         #  B(1)TMP COPY CYCLE REGISTER
003289: E6,1541  E6,1772               TEMPBETA           EQUALS   TEMPALFA   +1                         #  B(1)TMP COPY CYCLE REGISTER
003290: E6,1541  E6,1773               60GENRET           EQUALS   TEMPBETA   +1                         #  B(1)TMP QSAVE FOR S61.1 AND ENTRY.
003291: E6,1541  E6,1774               S61DT              EQUALS   60GENRET   +1                         #  B(1)TMP VARIABLE DT FOR S61.1 RESTART.
003292:
003293:                                                                                                  #  ENTRY TM SHARING FOR ACCELERATION PROFILE.
003294: E6,1541  E6,1533               XPIPBUF            EQUALS   ADOT                                  #  B(1) PIPA BUFFER FOR TM DURING ENTRY.
003295: E6,1541  E6,1534               YPIPBUF            EQUALS   XPIPBUF    +1                         #  B(1) PIPS FILED HERE EACH .5 SEC APPEAR
003296: E6,1541  E6,1535               ZPIPBUF            EQUALS   YPIPBUF    +1                         #  B(1) ON DOWNLIST ONCE PER SECOND DURING
003297: E6,1541  E6,1536               XOLDBUF            EQUALS   ZPIPBUF    +1                         #  B(1) ENTRY AFTER RCS DAP HAS BEEN DIS-
003298: E6,1541  E6,1537               YOLDBUF            EQUALS   XOLDBUF    +1                         #  B(1) ABLED.  NEWEST PIP VALUE REPLACES
003299: E6,1541  E6,1540               ZOLDBUF            EQUALS   YOLDBUF    +1                         #  B(1) PIPBUF, WHICH IS MOVED INTO OLDBUF.
003300:
003301:                                                                                                  #  REENTRY VARIABLES SHARED WITH RCS DAP FOR TM & FLIGHT RECORDER.
003302: E6,1541  E6,1574               Q7                 =        THETADZ                               #  I(2) HI-WORD ONLY ON DNLIST.
003303: E6,1541  E6,1525               ASPS(TM)           =        WBODY                                 #  I(6)DWN
003304:                                                                                                  #        ASKEP, ASP1, ASPUP, ASPDN, ASP3, ASP3+1
003305:
003306:                                                                                                  #  P37 PAD LOADS                         (1)
003307: E6,1541  E6,1776               P37RANGE           EQUALS   R61CNTR    +1                         #  I(1)PL        *****
003308:
003309: E6,1541  E6,1777               END-E6             =        P37RANGE   +1                         #  FIRST UNUSED ERASABLE LOCATION IN E6
003310:


003312:                                                                                                  #  EBANK-7 ASSIGNMENTS
003313:
003314: E7,1400                                           SETLOC   3400
003315:
003316:                                                                                                  #  *-*-*-*- OVERLAY 0 IN EBANK 7 -*-*-*-*
003317:
003318:                                                                                                  #  EXTERNAL DELTA-V UPDATE.              (21D)
003319:                                                                                                  #  (MUST BE IN ORDER FOR UPDATE PROGRAM.  ALSO ENTRY PROGRAMS PICK UP 'LAT(SPL)' WITH A VLOAD.)
003320:
003321: E7,1400                        LAT(SPL)           ERASE    +20D                                  #  I(2)DSP NOUN 61 FOR P62,63,64,67
003322: E7,1425  E7,1402               LNG(SPL)           EQUALS   LAT(SPL)   +2                         #  I(2)DSP NOUN 61 FOR P62,63,64,67.
003323:
003324: E7,1425  E7,1404               DELVSLV            EQUALS   LNG(SPL)   +2                         #  I(6)TMP DELTA VEL VECT, LOC VER COORDS
003325: E7,1425  E7,1412               TIG                EQUALS   DELVSLV    +6                         #  B(2)DSP NOUN 33 FOR X-V84(R32),P30,40.
003326: E7,1425  E7,1414               RTARG              EQUALS   TIG        +2                         #  I(6)IN DESIRED VEHICHE RADIUS VECTOR
003327: E7,1425  E7,1422               DELLT4             EQUALS   RTARG      +6                         #  I(2)IN TIME DIFFERENCE FOR INITVEL
003328: E7,1425  E7,1424               ECSTEER            EQUALS   DELLT4     +2                         #  I(1)PL FOR P40 S
003329: E7,1425  E7,1404               DELVLVC            =        DELVSLV
003330: E7,1425                        END-DELV           ERASE                                          #  *NEXT AVAIL LOC AFTER UNSHARED E7*
003331:
003332:                                                                                                  #  SERVICER STORAGE.                     (13D)
003333: E7,1426  E7,1425               DVTOTAL            EQUALS   END-DELV                              #  B(2)DSP NOUN 40,99 FOR P30,34,35,40
003334: E7,1426  E7,1427               TGO                EQUALS   DVTOTAL    +2                         #  B(2)
003335: E7,1426  E7,1431               DVCNTR             EQUALS   TGO        +2                         #  B(1)TMP
003336: E7,1426  E7,1432               DELVREF            EQUALS   DVCNTR     +1                         #  I(6)TMP
003337:
003338: E7,1426  E7,1447               NOMTIG             EQUALS   END-KALC                              #  I(2) (CANNOT SHARE WITH KALCMANU
003339:                                                                                                  #        OR DELVREF)
003340: E7,1426  E7,1451               END-SVCR           EQUALS   NOMTIG     +2                         #  ***NEXT AVAILABLE AFTER SERVICER
003341:
003342:                                                                                                  #  ALIGNMENT STORAGE.                    (25D)
003343: E7,1426  E7,1451               XSCD               EQUALS   END-SVCR                              #  I(6)TMP
003344: E7,1426  E7,1457               YSCD               EQUALS   XSCD       +6                         #  I(6)TMP
003345: E7,1426  E7,1465               ZSCD               EQUALS   YSCD       +6                         #  I(6)TMP
003346: E7,1426  E7,1473               VEL/C              EQUALS   ZSCD       +6                         #  I(6)TMP
003347: E7,1426  E7,1501               R53EXIT            EQUALS   VEL/C      +6                         #  I(1)TMP
003348:
003349:                                                                                                  #  ALIGNMENT MARKDATA (DOWNLNK) ******   (7D)
003350: E7,1426  E7,1502               MARK2DWN           EQUALS   R53EXIT    +1                         #   (7) USED BY ALLIGNMENT P50S
003351:


003353:                                                                                                  #  *-*-*-*- OVERLAY 1 IN EBANK 7 -*-*-*-*
003354:
003355:                                                                                                  #  REENTRY ERASABLES                     (206D)
003356: E7,1426  E7,1451               RTINIT             EQUALS   END-SVCR                              #  6P
003357: E7,1426  E7,1457               RTEAST             EQUALS   RTINIT     +6                         #  6P
003358: E7,1426  E7,1465               RTNORM             EQUALS   RTEAST     +6                         #  6P
003359: E7,1426  E7,1473               RT                 EQUALS   RTNORM     +6                         #  6P
003360: E7,1426  E7,1501               UNI                EQUALS   RT         +6                         #  6P
003361: E7,1426  E7,1507               UNITV              EQUALS   UNI        +6                         #  6P
003362: E7,1426  E7,1515               VEL                EQUALS   UNITV      +6                         #  6P
003363:
003364: E7,1426  E7,1523               TIME/RTO           EQUALS   VEL        +6                         #  2P TIME OF INITIAL TARGET, RTO.
003365: E7,1426  E7,1525               -VREL              EQUALS   TIME/RTO   +2                         #  6P
003366: E7,1426  E7,1533               OLDUYA             EQUALS   -VREL      +6                         #  6P USED BY CM/POSE    (ENTRY DAP)
003367: E7,1426  E7,1541               UXA/2              EQUALS   OLDUYA     +6                         #  6P USED BY CM/POSE    (ENTRY DAP) -UVA
003368: E7,1426  E7,1541               URH                =        UXA/2                                 #        P61 DISPLAY NOUN
003369: E7,1426  E7,1547               UYA/2              EQUALS   UXA/2      +6                         #  6P USED BY CM/POSE    (ENTRY DAP) UYA
003370: E7,1426  E7,1555               UZA/2              EQUALS   UYA/2      +6                         #  6P USED BY CM/POSE    (ENTRY DAP) UNA
003371: E7,1426  E7,1563               UBX/2              EQUALS   UZA/2      +6                         #  6P USED BY CM/POSE    (ENTRY DAP)
003372: E7,1426  E7,1571               UBY/2              EQUALS   UBX/2      +6                         #  6P USED BY CM/POSE    (ENTRY DAP)
003373: E7,1426  E7,1577               UBZ/2              EQUALS   UBY/2      +6                         #  6P USED BY CM/POSE    (ENTRY DAP)
003374:
003375: E7,1426  E7,1605               DTEAROT            EQUALS   UBZ/2      +6                         #  2P
003376: E7,1426  E7,1607               DIFF               EQUALS   DTEAROT    +2                         #  2P
003377: E7,1426  E7,1611               DIFFOLD            EQUALS   DIFF       +2                         #  2P
003378: E7,1426  E7,1613               FACTOR             EQUALS   DIFFOLD    +2                         #  2P
003379: E7,1426  E7,1615               FACT1              EQUALS   FACTOR     +2                         #  2P
003380: E7,1426  E7,1617               FACT2              EQUALS   FACT1      +2                         #  2P
003381:                                                                                                  # Q7             =       THETADZ         2P SHARED FOR TM.  P64-P66
003382: E7,1426  E7,1621               VSQUARE            EQUALS   FACT2      +2                         #  2P
003383: E7,1426  E7,1623               LAD                EQUALS   VSQUARE    +2                         #  2P
003384: E7,1426  E7,1625               LOD                EQUALS   LAD        +2                         #  2P
003385: E7,1426  E7,1627               L/DCMINR           EQUALS   LOD        +2                         #  2P
003386: E7,1426  E7,1631               KLAT               EQUALS   L/DCMINR   +2                         #  2P
003387: E7,1426  E7,1633               L/D                EQUALS   KLAT       +2                         #  2P
003388: E7,1426  E7,1635               L/D1               EQUALS   L/D        +2                         #  2P
003389: E7,1426  E7,1724               LEWD               =        VIO                                   #  2P SHARED FOR TM.  P64-P65
003390: E7,1426  E7,1637               D                  EQUALS   L/D1       +2                         #  2P DSP NOUN 64,66,68 FOR P63,64,67
003391:                                                                                                  # V1             =       ENDBUF  +1      2P SHARED FOR TM. P64-P65
003392: E7,1426  E7,1641               DLEWD              EQUALS   D          +2                         #  2P
003393: E7,1426  E7,1643               K2ROLL             EQUALS   DLEWD      +2                         #  2P
003394: E7,1426  E7,1645               GOTOADDR           EQUALS   K2ROLL     +2                         #  1P
003395: E7,1426  E7,1646               TEM1B              EQUALS   GOTOADDR   +1                         #  2P
003396: E7,1426  E7,1650               MM                 EQUALS   TEM1B      +2                         #  2P
003397: E7,1426  E7,1651               GRAD               EQUALS   MM         +1                         #  1P
003398: E7,1426  E7,1652               FX                 EQUALS   GRAD       +1                         #  1P OVERWRITES NEXT 5 LOCS IN P67.
003399: E7,1426  E7,1653               LEQ                EQUALS   FX         +1                         #  2P
003400: E7,1426  E7,1655               DHOOK              EQUALS   LEQ        +2                         #  2P
003401: E7,1426  E7,1657               AHOOKDV            EQUALS   DHOOK      +2                         #  2P


003403: E7,1426  E7,1661               DVL                EQUALS   AHOOKDV    +2                         #  2P
003404:                                                                                                  # A0             =       ENDBUF  +3      2P SHARED FOR TM. (HI-WD) P64-P65
003405: E7,1426  E7,1663               A1                 EQUALS   DVL        +2                         #  2P
003406: E7,1426  E7,1665               VBARS              EQUALS   A1         +2                         #  2P
003407: E7,1426  E7,1667               COSG/2             EQUALS   VBARS      +2                         #  2P
003408:                                                                                                  # GAMMAL         =       GAMMAEI         2P SHARED FOR TM  P66
003409: E7,1426                        GAMMAL1            =        22D                                   #  2P
003410: E7,1426  E7,1671               VS1                EQUALS   COSG/2     +2                         #  2P
003411: E7,1426  E7,1766               VL                 =        VPRED                                 #  2P SHARED FOR TM  P64-P65
003412: E7,1426  E7,1673               V                  EQUALS   VS1        +2                         #  2P
003413:                                                                                                  # VREF           =       THETAD  +2      2P SHARED FOR TM  P65
003414: E7,1426  E7,1675               LATANG             EQUALS   V          +2                         #  2P ADJACENT FOR TM.
003415: E7,1426  E7,1677               RDOT               EQUALS   LATANG     +2                         #  2P ADJACENT FOR TM.
003416: E7,1426  E7,1701               THETAH             EQUALS   RDOT       +2                         #  2P DSP NOUN 64,67 FOR P63,64,67
003417:                                                                                                  # RDOTREF        =       THETAD          2P SHARED FOR TM  P65
003418: E7,1426  E7,1703               ALP                EQUALS   THETAH     +2                         #  2P
003419:
003420: E7,1426  E7,1730               ASKEP              =        ASPS                                  #  2P)                THESE ARE STORED IN
003421: E7,1426  E7,1731               ASP1               =        ASPS       +1                         #  2P)                SEQUENCE, OVERLAPPING
003422: E7,1426  E7,1732               ASPUP              =        ASPS       +2                         #  2P)>HI-WD OF EACH< HI-WORD ONLY APPEARS
003423: E7,1426  E7,1733               ASPDWN             =        ASPS       +3                         #  2P)                ON DOWNLIST, EXCEPT
003424: E7,1426  E7,1734               ASP3               =        ASPS       +4                         #  2P)                ASP3 IS COMPLETE.
003425:
003426: E7,1426  E7,1705               C/D0               EQUALS   ALP        +2                         #  2P    -1/D0
003427: E7,1426  E7,1707               D0                 EQUALS   C/D0       +2                         #  I(2)  CONSTANT DRAG
003428: E7,1426  E7,1711               Q2                 EQUALS   D0         +2                         #  2P
003429:
003430:                                                                                                  #  ROLLC IS LOCATED IN EBANK= AOG TO AID ENTRY DAP.
003431: E7,1426  E7,1713               RTGO               EQUALS   Q2         +2                         #  2P DSP NOUN 66 FOR P64,P67.
003432: E7,1426  E7,1715               DNRNGERR           EQUALS   RTGO       +2                         #  2P DSP NOUN 66 FOR P64,67.
003433: E7,1426  E7,1675               XRNGERR            =        LATANG                                #        FOR DISKY DISPLAY
003434: E7,1426  E7,1717               KAT                EQUALS   DNRNGERR   +2                         #  2P
003435: E7,1426  E7,1721               GMAX               EQUALS   KAT        +2                         #  1P DSP NOUN 60 FOR P61,62,63.
003436:                                                                                                  #  GMAX IS LOADED IN DOUBLE PRECISION
003437: E7,1426  E7,1726               L/DCALC            =        TTE                                   #  2P CALCULATED L/D FOR TM: P64-P67.
003438: E7,1426  E7,1770               GAMMAL             =        GAMMAEI                               #  2P SHARED FOR TM  P64
003439: E7,1426  E7,1770               PREDANG            =        GAMMAEI                               #        FOR TM IN P67.
003440: E7,1426  E7,1771               JJ                 =        PREDANG    +1                         #        FOR TM IN P67.
003441: E7,1426  E7,1722               VMAGI              EQUALS   GMAX       +1                         #  2P DSP NOUN 62,64,68 FOR P11,63,64.
003442: E7,1426  E7,1724               VIO                EQUALS   VMAGI      +2                         #  2P DSP NOUN 63 FOR P61.
003443: E7,1426  E7,1726               TTE                EQUALS   VIO        +2                         #  2P DSP NOUN 63 FOR P61.
003444: E7,1426  E7,1730               ASPS               EQUALS   TTE        +2                         #  I(2) HI-WORD ONLY ON DNLIST FOR TEMP
003445: E7,1426  E7,1732               TTE1               EQUALS   ASPS       +2                         #  I(2ETMP HOLDS UNDECREMENTED TTE VALUE
003446:
003447:                                                                                                  #  **** P6OS ****
003448: E7,1426  E7,1713               RTGON64            EQUALS   RTGO                                  #  RANGE ERRORS NEGATIVE IF FALLS SHORT


003450: E7,1426  E7,1713               RTGON67            EQUALS   RTGO                                  #  DSP NOUN 67
003451:
003452:                                                                                                  #  REENTRY, RETURN TO EARTH COMMON DISPLAY.      (4D)
003453: E7,1426  E7,1766               VPRED              EQUALS   BETA12     +2                         #  DSP NOUN 60 FOR P61,   ,62,63.
003454: E7,1426  E7,1770               GAMMAEI            EQUALS   VPRED      +2                         #  DSP NOUN 60 FOR P61,   ,62,63.
003455:
003456:                                                                                                  #  DISPLAY REGISTER FOR VG               (2D)
003457: E7,1426  E7,1772               VGDISP             EQUALS   GAMMAEI    +2                         #  B(2)DSP N.40,42,99 FOR P30,34,35,37,40,
003458:                                                                                                  #            41 VG DISPLAY
003459:
003460:                                                                                                  #  SOME P11 DISPLAY REGISTERS.           (6D)
003461: E7,1426  E7,1734               ALTI               EQUALS   TTE1       +2                         #  2P DSP NOUN 62 FOR P11.
003462: E7,1426  E7,1736               HDOT               EQUALS   ALTI       +2                         #  2P DSP NOUN 62 FOR P11.
003463:


003465:                                                                                                  #  *-*-*-*- OVERLAY 2 IN EBANK 7 -*-*-*-*
003466:
003467:                                                                                                  #  KALCMANU STORAGE.                             (18D)
003468: E7,1426  E7,1425               MFS                EQUALS   END-DELV                              #  I(18)
003469: E7,1426  E7,1425               MFI                EQUALS   MFS                                   #  I    TMP
003470: E7,1426  E7,1425               DEL                EQUALS   MFS                                   #  I    TMP
003471: E7,1426  E7,1447               END-KALC           EQUALS   MFS        +18D                       #  **NEXT AVAIL LOC AFTER KALCMANU**
003472:
003473:                                                                                                  #  MEASUREMENT INCORPORATION STORAGE (R22) STORAGE.      (56D)
003474:
003475: E7,1426  E7,1447               TX789              EQUALS   END-KALC                              #  I(6)TMP
003476: E7,1426  E7,1455               GAMMA              EQUALS   TX789      +6                         #  I(2)TMP
003477: E7,1426  E7,1457               OMEGA              EQUALS   GAMMA      +2                         #  I(18)TMP
003478: E7,1426  E7,1501               BVECTOR            EQUALS   OMEGA      +18D                       #  I(18)TMP
003479: E7,1426  E7,1523               DELTAQ             EQUALS   BVECTOR    +18D                       #  I(2)TMP
003480: E7,1426  E7,1525               VARIANCE           EQUALS   DELTAQ     +2                         #  I(3)TMP
003481: E7,1426  E7,1530               RCLP               EQUALS   VARIANCE   +3                         #  I(6)TMP
003482: E7,1426  E7,1536               GRP2SVQ            EQUALS   RCLP       +6                         #  I(1)TMP QSAVE FOR RESTARTS
003483:
003484:                                                                                                  #  P20, P22, P23 DSP NOUN                (5D)
003485: E7,1426  E7,1501               N49DISP            EQUALS   BVECTOR                               #  B(5)TMP
003486:
003487:                                                                                                  #  S22.1 STORAGE.                        (36D)
003488: E7,1426  E7,1537               SVMRKDAT           EQUALS   GRP2SVQ    +1                         #  I(36)TMP 5 SETS OF MARK DATA +PAD OF ONE
003489:
003490:                                                                                                  #  **** CISLUNAR NAV.  ERAS.  (P20S) ****        (45D)
003491: E7,1426  E7,1603               TRUNX              EQUALS   SVMRKDAT   +36D
003492: E7,1426  E7,1603               DATATEST           EQUALS   TRUNX                                 #   (1)
003493: E7,1426  E7,1604               UBAR0              EQUALS   TRUNX      +1
003494: E7,1426  E7,1612               UBAR1              EQUALS   UBAR0      +6
003495: E7,1426  E7,1620               UBAR2              EQUALS   UBAR1      +6
003496: E7,1426  E7,1626               RZC                EQUALS   UBAR2      +6
003497: E7,1426  E7,1634               VZC                EQUALS   RZC        +6
003498: E7,1426  E7,1642               UCLSTAR            EQUALS   VZC        +6
003499: E7,1426  E7,1650               USSTAR             EQUALS   UCLSTAR    +6
003500: E7,1426  E7,1656               SRRETURN           EQUALS   USSTAR     +6
003501:


003503:                                                                                                  #  *-*-*-*- OVERLAY 3 IN EBANK 7 -*-*-*-*
003504:
003505:                                                                                                  #  RENDEZVOUS GUIDANCE STORAGE. -P32...P35-      (8D)
003506: E7,1426  E7,1447               DELTEEO            EQUALS   END-KALC                              #  I(2) S-S BACK VALUES OF DELTA TIME
003507: E7,1426  E7,1451               DELEL              EQUALS   DELTEEO    +2                         #  I(2) S-S
003508: E7,1426  E7,1453               SECMAX             EQUALS   DELEL      +2                         #  I(2) S-S MAX STOP SIZE FOR ROUTINE
003509: E7,1426  E7,1455               XXXALT             EQUALS   SECMAX     +2                         #  I(2)
003510:
003511:                                                                                                  #  S40.9 STORAGE.                                (16D)
003512: E7,1426  E7,1457               VG                 EQUALS   XXXALT     +2                         #  I(6)TMP
003513: E7,1426  E7,1465               VRPREV             EQUALS   VG         +6                         #  I(6)
003514: E7,1426  E7,1473               TNIT               EQUALS   VRPREV     +6                         #  I(2)
003515: E7,1426  E7,1475               TNITPREV           EQUALS   TNIT       +2                         #  I(2)
003516:
003517:                                                                                                  #  S40.2,3 STORAGE.                      (1D)
003518: E7,1426  E7,1477               AXISCODE           EQUALS   TNITPREV   +2                         #  I(1)IN
003519:
003520:                                                                                                  #  P30'S-P17 COMMON STORAGE.             (24D)
003521: E7,1426  E7,1537               RACT3              EQUALS   GRP2SVQ    +1                         #  I(6)TMP POSITION OF ACTIVE AT TPI TIME.
003522: E7,1426  E7,1545               VACT3              EQUALS   RACT3      +6                         #  I(6)TMP VELOCITY OF ACTIVE AT TPI TIME.
003523: E7,1426  E7,1553               RPASS3             EQUALS   VACT3      +6                         #  I(6)TMP POSITION OF PASSIVE AT TPI TIME.
003524: E7,1426  E7,1561               VPASS3             EQUALS   RPASS3     +6                         #  I(6)TMP VELOCITY OF PASSIVE AT TPI TIME.
003525:
003526:                                                                                                  #  P76, N84 DISPLAY                      (6D)
003527: E7,1426  E7,1537               DELVOV             EQUALS   RACT3                                 #  I(6)DSP NOUN 84 FOR X-V84, P34-35
003528:
003529:                                                                                                  #  INITVEL/MIDGIM STORAGE.               (34D)
003530:                                                                                                  #        (CALLED BY S34.1,2, S35.1,2, AND S40.9)
003531:                                                                                                  #        (CALLS LAMBERT, CONIC SUBROUTINES)
003532: E7,1426  E7,1567               RINIT              EQUALS   VPASS3     +6                         #  I(6)IN ACTIVE VEHICLE RADIUS VECTOR
003533: E7,1426  E7,1575               VINIT              EQUALS   RINIT      +6                         #  I(6)IN ACTIVE VEHICLE VELOCITY VECTOR
003534: E7,1426  E7,1603               RTARG1             EQUALS   VINIT      +6                         #  I(6)TMP SHIFTED RTARG
003535: E7,1426  E7,1611               VIPRIME            EQUALS   RTARG1     +6                         #  I(6)OUT NEW VEL REQ AT INITIAL RADIUS
003536: E7,1426  E7,1617               VTPRIME            EQUALS   VIPRIME    +6                         #  I(6)OUT TOTAL VELOCITY AT DESIRED RADIUS
003537: E7,1426  E7,1625               +MGA               EQUALS   VTPRIME    +6                         #  I(2)DSP NOUN 45 FOR P30,34,35.  +MID GIM.
003538: E7,1426  E7,1627               COZY4              EQUALS   +MGA       +2                         #  I(2)TMP COSINE OF ANGLE WHEN ROT STARTS
003539:
003540:                                                                                                  #  (THE FOLLOWING OVERLAYS MEASUREMENT INCORP AND CANNOT SHARE WITH TPI


003542: E7,1426  E7,1502               INTIME             EQUALS   AXISCODE   +3
003543: E7,1426  E7,1504               ITCTR              EQUALS   INTIME     +2                         #  I(1)TMP ITERATION COUNTER
003544: E7,1426  E7,1631               END-IN/M           EQUALS   COZY4      +2                         #  ** NEXT AVAIL LOC AFTER INITVEL/MIDGIM **
003545:
003546:                                                                                                  #  P34 AND P33 STORAGE.  (OVERLAYS INITVEL/MIDGIM)       (24D)
003547: E7,1426  E7,1567               VAPREC             EQUALS   RINIT                                 #  I(6) S-S PREC VEC FOR NOM TPI TIME(ACT V
003548: E7,1426  E7,1575               RAPREC             EQUALS   VINIT                                 #  I(6) S-S PREC VEC FOR NOM TPI TIME(ACT V
003549: E7,1426  E7,1611               VPPREC             EQUALS   VIPRIME                               #  I(6) S-S PREC VEC FOR NOM TPI TIME(PASS
003550: E7,1426  E7,1617               RPPREC             EQUALS   VTPRIME                               #  I(6) S-S PREC VEC FOR NOM TPI TIME(PASS
003551:
003552:                                                                                                  #  P30, P40 INTERFACE.                   (20D)
003553: E7,1426  E7,1631               RTIG               EQUALS   END-IN/M                              #  I(6)TMP
003554: E7,1426  E7,1637               VTIG               EQUALS   RTIG       +6                         #  I(6)TMP
003555: E7,1426  E7,1645               DELVSIN            EQUALS   VTIG       +6                         #  I(6)TMP
003556: E7,1426  E7,1645               DELVEET3           EQUALS   DELVSIN                               #      TMP DELTA VEL VECT INERTIAL COORDS.
003557: E7,1426  E7,1645               VGTEMP             EQUALS   DELVEET3
003558: E7,1426  E7,1653               DELVSAB            EQUALS   DELVSIN    +6                         #  I(2)TMP
003559:
003560:                                                                                                  #  P35-P40 INTERFACE STORAGE.  (OVERLAYS P30-P40 I/F STORAGE)    (12D)
003561: E7,1426  E7,1631               RPASS4             EQUALS   RTIG                                  #  I(6)TMP POSITION OF PASSIVE AT INTERCEPT
003562: E7,1426  E7,1637               VPASS4             EQUALS   RPASS4     +6                         #  I(6)TMP VELOCITY OF PASSIVE AT INTERCEPT
003563:
003564:                                                                                                  #  TPI SEARCH (P17)                      (6D)
003565: E7,1426  E7,1645               E2                 EQUALS   VPASS4     +6                         #  I(6)TMP
003566:
003567:                                                                                                  #  P30-P40 COMMON STORAGE.               (3D)
003568: E7,1426  E7,1655               TPASS4             EQUALS   DELVSAB    +2                         #  I(2)TMP
003569: E7,1426  E7,1655               TINT               =        TPASS4                                #  I(2)
003570: E7,1426  E7,1657               QTEMP              EQUALS   TPASS4     +2                         #  I(1)TMP
003571:
003572:                                                                                                  #  P30-P40 STORAGE.                      (4D)
003573: E7,1426  E7,1660               TTOGO              EQUALS   QTEMP      +1                         #  B(2)DSP NOUN 35,40,45,59,99
003574:                                                                                                  #          FOR P30,34,35,40,41,47, R30.
003575: E7,1426  E7,1662               TTPI               EQUALS   TTOGO      +2                         #  B(2)DSP NOUN 37 FOR P34 TPI TIME, CSECS.


003577: E7,1426  E7,1664               END-P30S           EQUALS   TTPI       +2                         #  ** NEXT AVAIL LOC AFTER P30-40 STORAGE. **
003578:
003579:                                                                                                  #  P40 STORAGE.                          (8D)
003580: E7,1426  E7,1664               VGBODY             EQUALS   END-P30S                              #  B(6)DSP NOUN 85 FOR P40,41,42 VG-SC COOR
003581: E7,1426  E7,1664               DELVCTL            =        VGBODY
003582: E7,1426  E7,1672               P40TMP             EQUALS   VGBODY     +6                         #  B(2)TMP
003583:
003584:                                                                                                  #  P47 STORAGE.
003585: E7,1426  E7,1457               DV47TEMP           EQUALS   VG
003586: E7,1426  E7,1674               DELVIMU            EQUALS   P40TMP     +2                         #  I(6)DSP  NOUN 83 FOR P47 DELTAV(IMU)
003587:
003588:                                                                                                  #  S40.1 STORAGE.                        (23D)
003589: E7,1426  E7,1702               CSTEER             EQUALS   DELVIMU    +6                         #  I(2)IN
003590: E7,1426  E7,1704               BDT                EQUALS   CSTEER     +2                         #  I(6)IN
003591: E7,1426  E7,1712               UT                 EQUALS   BDT        +6                         #  I(6)OUT THRUST DIRECTION
003592: E7,1426  E7,1720               VGTIG              EQUALS   UT         +6                         #  I(6)OUT
003593: E7,1426  E7,1720               VGPREV             =        VGTIG
003594: E7,1426  E7,1726               F                  EQUALS   VGTIG      +6                         #  I(2)OUT S40.3 NEEDS THIS
003595:
003596: E7,1426  E7,1730               QTEMP1             EQUALS   F          +2                         #  I(1)TMP HOLDS RETURN
003597:
003598:                                                                                                  #  R41                                   (2D)
003599: E7,1426  E7,1731               T-TO-ADD           EQUALS   QTEMP1     +1                         #  I(1D) FOR MIDTOAVE
003600:


003602:                                                                                                  #  *-*-*-*- OVERLAY 4 IN EBANK 7 -*-*-*-*
003603:
003604:                                                                                                  #  S35.1 STORAGE.                        (2D)
003605: E7,1426  E7,1664               TSTRT              EQUALS   END-P30S                              #  I(2)IN MIDCOURSE START TIME
003606:
003607:                                                                                                  #  S34.1 STORAGE.  (OVERLAYS S35.1 STORAGE)      (1D)
003608: E7,1426  E7,1664               TITER              EQUALS   TSTRT                                 #  I(1)TMP ITERATION COUNTER
003609:
003610:                                                                                                  #  (P30-31 Q-SAVES)                      (1)
003611: E7,1426  E7,1664               P30/31RT           EQUALS   TITER                                 #  B(1) RETURN POINT
003612:
003613:                                                                                                  #  P22 STORAGE.                          (6D)
003614: E7,1426  E7,1666               S22WUNL            EQUALS   TSTRT      +2                         #  1     WUNL W8 UNKNOWN INIT VALUE
003615: E7,1426  E7,1667               S22TOFF            EQUALS   S22WUNL    +1                         #  2     T SUB OFF
003616:                                                                                                  #  *USED IN SUBROUTINE COMMON TO P22 & P23.
003617: E7,1426  E7,1671               S22TPRIM           EQUALS   S22TOFF    +2                         #  2     SAVE TF
003618: E7,1426  E7,1673               S22EORM            EQUALS   S22TPRIM   +2                         #  0 = EARTH -- NON-ZERO = MOON
003619:
003620:                                                                                                  #  DOWNLINK ERASABLES FOR P22, P20 MARK DATA.    (8D)
003621: E7,1426  E7,1674               MARKDOWN           EQUALS   S22EORM    +1                         #  B(1)
003622: E7,1426  E7,1703               RM                 EQUALS   S22RTNEX                              #  DOWNLINK OF VHF RANGE
003623:
003624:                                                                                                  #  S22.1                                 (1D)
003625: E7,1426  E7,1703               S22RTNEX           EQUALS   MARKDOWN   +7                         #  B(1)
003626:
003627:                                                                                                  #  CRS61.1 STORAGE.  -A SUBSET OF P20-   (14D)
003628: E7,1426  E7,1704               Q611               EQUALS   RM         +1                         #  I(1)TMP QSAVE
003629: E7,1426  E7,1705               Q6111              EQUALS   Q611       +1                         #  I(1)TMP QSAVE
003630: E7,1426  E7,1706               SAVEPOS            EQUALS   Q6111      +1                         #  I(6)TMP LEM POSITION VECTOR-


003632: E7,1426  E7,1714               SAVEVEL            EQUALS   SAVEPOS    +6                         #  I(6)TMP LEM VELOCITY VECTOR-
003633:
003634:                                                                                                  #  ATTITUDE MANEUVER -CALLED BY P20,R61,R63,CRS61.1      (3D)
003635: E7,1426  E7,1722               PRAXIS             EQUALS   SAVEVEL    +6                         #  B(3) S-S DISP RES FOR PREF AXIS N95
003636:
003637:                                                                                                  #  MARK ROUTINE (R21) STORAGE.  -IS SUBSET OF R22-       (14D)
003638: E7,1426  E7,1725               MRKBUF1            EQUALS   PRAXIS     +3                         #  B(7)TMP R21 MARK BUFFER
003639: E7,1426  E7,1734               MRKBUF2            EQUALS   MRKBUF1    +7                         #  B(7)TMP R21 MARK BUFFER
003640:
003641:                                                                                                  #  MORE CONICS STORAGE.                  (4)
003642: E7,1426                        COGA               EQUALS   3774                                  #  I(2) COTAN OF INITIAL FLIGHT PATH ANGLE
003643: E7,1426  E7,1774               INDEP              EQUALS   COGA                                  #  I(1) USED BY SUBROUTINE :ITERATOR:
003644: E7,1426  E7,1776               EPSILONL           EQUALS   COGA       +2                         #  I(2)TMP
003645:
003646:                                                                                                  #  RENDEZVOUS GUIDANCE STORAGE.  - P32...P35 -   (10D)
003647: E7,1426  E7,1743               ELEV               EQUALS   MRKBUF2    +7                         #  I(2)TMP
003648: E7,1426  E7,1745               RTX1               EQUALS   ELEV       +2                         #   (1)
003649: E7,1426  E7,1746               RTX2               EQUALS   RTX1       +1                         #   (1)
003650: E7,1426  E7,1747               RTMU               EQUALS   RTX2       +1                         #   (2)
003651: E7,1426  E7,1751               RTSR1/MU           EQUALS   RTMU       +2                         #   (2)
003652: E7,1426  E7,1753               CENTANG            EQUALS   RTSR1/MU   +2                         #  I(2) S-S CENTRAL ANGLE COVERED (TPI-TPF)
003653:
003654:                                                                                                  #  TPI SEARCH (S17.1, S17.2) P17 STORAGE.(10D)
003655: E7,1426  E7,1743               DELTEE             EQUALS   MRKBUF2    +7                         #  I(2)
003656: E7,1426  E7,1745               XRS                EQUALS   DELTEE     +2                         #  I(2)
003657: E7,1426  E7,1747               THETL              EQUALS   XRS        +2                         #  I(2)
003658: E7,1426  E7,1751               TF                 EQUALS   THETL      +2                         #  I(2)
003659: E7,1426  E7,1753               DELHITE            EQUALS   TF         +2                         #   (2)
003660:


003662:                                                                                                  #  *-*-*-*- OVERLAY 5 IN EBANK 7 -*-*-*-*
003663:
003664:                                                                                                  #  P17,P34                               (2D)
003665: E7,1426  E7,1765               NN1                =        NN                                    #  I(2)DSP NOUN 55,R1
003666:
003667:                                                                                                  #  ************ THE FOLLOWING ARE FOR FLIGHT 504 ONLY ********************
003668:
003669:                                                                                                  #  RETURN-TO-EARTH STORAGE.              (93D)
003670: E7,1426  E7,1631               RTEDVD             EQUALS   END-IN/M                              #  I(2)IN DELTA VELOCITY DESIRED         M/CS B7
003671: E7,1426  E7,1633               RTEGAM2D           EQUALS   RTEDVD     +2                         #  I(2)IN REENTRY ANGLE DESIRED          REVS B0
003672: E7,1426  E7,1635               RCON               EQUALS   RTEGAM2D   +2                         #  I(2)TMP CONIC R2 RADIUS               M B29
003673: E7,1426  E7,1637               R(T1)/             EQUALS   RCON       +2                         #  I(6)TMP POSITION VECTOR AT TIG        M B29/B27
003674: E7,1426  E7,1645               R(T1)              EQUALS   R(T1)/     +6                         #  I(2)TMP MAGNITUDE OF R(T1)/           M B29/B27
003675: E7,1426  E7,1647               DT21PR             EQUALS   R(T1)      +2                         #  I(2)TMP PREVOUS DT21                  CS B30
003676: E7,1426  E7,1651               MAMAX1             EQUALS   DT21PR     +2                         #  I(2)TMP MAJ AXIS LOW BOUND LMT        M B30
003677: E7,1426  E7,1653               MAMAX2             EQUALS   MAMAX1     +2                         #  I(2)TMP MAJ AXIS UP BOUND LMT         M B30
003678: E7,1426  E7,1655               R(T2)/             EQUALS   MAMAX2     +2                         #  I(6)TMP FINAL POSITION VECTOR         M B29/B27
003679: E7,1426  E7,1663               RD                 EQUALS   R(T2)/     +6                         #  I(2)TMP FINAL R DESIRED               M B29/B27
003680: E7,1426  E7,1665               DRCON              EQUALS   RD         +2                         #  I(2)TMP RCON SLOPE ITERATOR           M B29/B27
003681: E7,1426  E7,1667               RPRE'              EQUALS   DRCON      +2                         #  I(2)TMP PREVISOUS RPRE                M B29/B27
003682: E7,1426  E7,1671               V(T1)/             EQUALS   RPRE'      +2                         #  I(6)TMP VEL VECTOR AT TIG             M/CS B7/B5
003683: E7,1426  E7,1677               V2(T1)/            EQUALS   V(T1)/     +6                         #  I(6)TMP POST IMP VEL AT TIG           M/CS B7/B5
003684: E7,1426  E7,1705               DV                 EQUALS   V2(T1)/    +6                         #  I(2)TMP DELTA VELOCITY AT TIG         M/CS B7/B5
003685: E7,1426  E7,1707               V(T2)/             EQUALS   DV         +2                         #  I(6)TMP FINAL VELOCITY VECTOR         M/CS B7/B5
003686: E7,1426  E7,1715               T1                 EQUALS   V(T2)/     +6                         #  I(2)TMP INITIAL VECTOR TIME           CS B28
003687: E7,1426  E7,1717               PCON               EQUALS   T1         +2                         #  I(2)TMP SEMI-LATUS RECTUM             M B29
003688: E7,1426  E7,1721               X(T1)              EQUALS   PCON       +2                         #  I(2)TMP COTANGENT GAMMA1              B5
003689: E7,1426  E7,1723               T12                EQUALS   X(T1)      +2                         #  I(2)TMP INIT TO FINL POSIT TIME       CS B28
003690: E7,1426  E7,1725               DELTAT             EQUALS   T12        +2                         #  I(2)TMP DELTA T IN SAFE PERILUNE      CS B28
003691: E7,1426  E7,1727               NN1A               EQUALS   DELTAT     +2                         #  I(2)TMP ITERATION COUNTER 1
003692: E7,1426  E7,1731               NN2                EQUALS   NN1A       +2                         #  I(2)TMP ITERATION COUNTER 2
003693: E7,1426  E7,1733               RTENCKEX           EQUALS   NN2        +2                         #  I(1)TMP RTENCK RETURN ADDRESS
003694: E7,1426  E7,1734               CONICX1            EQUALS   RTENCKEX   +1                         #  I(1)TMP CONICS MU TABLE INDEX
003695: E7,1426  E7,1735               T2                 EQUALS   CONICX1    +1                         #  I(2)TMP FINAL TIME                    CS B28
003696: E7,1426  E7,1737               UR1/               EQUALS   T2         +2                         #  I(6)TMP UNIT R(T1)/                   B1
003697: E7,1426  E7,1745               UV1/               EQUALS   UR1/       +6                         #  I(6)TMP UNIT V(T1)/                   B1
003698: E7,1426  E7,1753               BETA1              EQUALS   UV1/       +6                         #  I(2)TMP 1+X(T2)**2                    B1
003699: E7,1426  E7,1755               P(T1)              EQUALS   BETA1      +2                         #  I(1)TMP PRIMARY BODY STATE TIME 1     B14
003700: E7,1426  E7,1756               CFPA               EQUALS   P(T1)      +1                         #  I(2)TMP COSINE FLIGHT PATH ANGLE     B1
003701: E7,1426  E7,1760               PHI2               EQUALS   CFPA       +2                         #  I(2)TMP PERI OR APO INDICATOR         B2
003702: E7,1426  E7,1762               SPRTEX             EQUALS   PHI2       +2                         #  I(1)TMP ROUTINE RETURN ADDRESS
003703: E7,1426  E7,1763               VNSTORE            EQUALS   SPRTEX     +1                         #  I(1)TMP VERBNOUN STORAGE
003704: E7,1426  E7,1764               BETA12             EQUALS   VNSTORE    +1                         #  I(2)TMP SIGN FOR TIMERAD
003705:
003706:                                                                                                  #  OVERLAYS WITHIN RETURN-TO-EARTH STORAGE.


003708: E7,1426                        RPRE               EQUALS   24D                                   #  I(2)TMP COMPUTED PREC RADIUS          M B29/B27
003709: E7,1426                        P/RPRE             EQUALS   26D                                   #  I(2)TMP P/R                           B4
003710: E7,1426                        R/APRE             EQUALS   28D                                   #  I(2)TMP R/A                           B6
003711: E7,1426  E7,1723               X(T2)PRE           EQUALS   T12                                   #  I(2)TMP PREC COTAN GAMMA2             B0
003712: E7,1426  E7,1725               X(T2)              EQUALS   DELTAT                                #  I(2)TMP COTAN GAMMA2                  B0
003713: E7,1426  E7,1745               UH/                EQUALS   UV1/                                  #  I(2)TMP UNIT HORIZONTAL VECTOR.       B1
003714: E7,1426  E7,1412               SPRTETIG           EQUALS   TIG                                   #  I(2)IN TIME OF IGNITION               CS B28
003715:


003717:                                                                                                  #  *-*-*-*- OVERLAY 6 IN EBANK 7 -*-*-*-*
003718:                                                                                                  #  P32,P33
003719:
003720:                                                                                                  #  THE FOLLOWING OVERLAY MEAS. INCORP. AND ARE IN USE ONLY WHEN (32D)
003721: E7,1426  E7,1457               POSTCSI            EQUALS   VG                                    #  I(2)
003722: E7,1426  E7,1461               DELVCSI            EQUALS   POSTCSI    +2                         #  I(2)
003723: E7,1426  E7,1463               DELDV              EQUALS   DELVCSI    +2                         #  I(2)
003724: E7,1426  E7,1465               GAMPREV            EQUALS   DELDV      +2                         #  I(2)
003725: E7,1426  E7,1467               DVPREV             EQUALS   GAMPREV    +2                         #  I(2)
003726: E7,1426  E7,1471               POSTCDH            EQUALS   DVPREV     +2                         #  I(2)
003727: E7,1426  E7,1471               HAFPA1             EQUALS   POSTCDH
003728: E7,1426  E7,1473               VACT4              EQUALS   POSTCDH    +2                         #  I(6)
003729: E7,1426  E7,1501               RDOTV              EQUALS   VACT4      +6                         #  I(2)
003730: E7,1426  E7,1503               VACT1              EQUALS   RDOTV      +2                         #  I(6)
003731: E7,1426  E7,1511               VPASS1             EQUALS   VACT1      +6                         #  I(6) VEL. PASSIVE VEH, AT CSI TIME
003732:
003733: E7,1426  E7,1545               UNVEC              EQUALS   VACT3
003734:
003735: E7,1426  E7,1655               T2TOT3             EQUALS   TPASS4                                #  I(2) TPI - TCDH
003736:
003737: E7,1426  E7,1664               CSIALRM            EQUALS   TITER                                 #  I(2) ALARM INDEX
003738:
003739: E7,1426  E7,1666               DELVEET2           EQUALS   S22WUNL                               #  I(6) VACT3 - VACT2 = DVCDH REF. COORD.
003740:
003741:                                                                                                  #  ADDITIONAL CSI - CDH STORAGE.         (10D)
003742: E7,1426  E7,1755               RPASS1             EQUALS   CENTANG    +2                         #  I(6) POS. PASSIVE VEH. AT CSI TIME.
003743: E7,1426  E7,1763               LOOPCT             EQUALS   RPASS1     +6                         #  I(2) ITERATION COUNTER
003744: E7,1426  E7,1765               NN                 EQUALS   LOOPCT     +2                         #  I(2)
003745:
003746:                                                                                                  #  P21 STORAGE                           (19D)
003747: E7,1426  E7,1603               P21ORIG            EQUALS   TRUNX                                 #  I(1)
003748: E7,1426  E7,1604               P21BASER           EQUALS   P21ORIG    +1                         #  I(6)
003749: E7,1426  E7,1612               P21BASEV           EQUALS   P21BASER   +6                         #  I(6)
003750: E7,1426  E7,1620               P21ALT             EQUALS   P21BASEV   +6                         #  I(2) NOUN 73 R1 ALTITUDE
003751: E7,1426  E7,1622               P21VEL             EQUALS   P21ALT     +2                         #  I(2) NOUN 73 R2 VELOCITY
003752: E7,1426  E7,1624               P21GAM             EQUALS   P21VEL     +2                         #  I(2) NOUN 73 R3 FLIGHT PATH ANGLE
003753:
003754: E7,1426                        WHOCARES           EQUALS   3777                                  #  A DUMMY FOR E-BANK INSENSITIVE 2CADRS.
003755: E7,1426  E7,1777               END-E7             EQUALS   WHOCARES                              #  ****** LAST LOCATION IN E7
003756:


003759:

End of include-file ERASABLE_ASSIGNMENTS.agc.  Parent file is MAIN.agc


