
Source Code


000002:                                                                                                  ## Copyright:   Public domain.
000003:                                                                                                  ## Filename:    ERASABLE_ASSIGNMENTS.agc
000004:                                                                                                  ## Purpose:     A section of Comanche revision 044.
000005:                                                                                                  ##              It is part of the reconstructed source code for the
000006:                                                                                                  ##              original release of the flight software for the Command
000007:                                                                                                  ##              Module's (CM) Apollo Guidance Computer (AGC) for Apollo 10.
000008:                                                                                                  ##              The code has been recreated from a copy of Comanche 055. It
000009:                                                                                                  ##              has been adapted such that the resulting bugger words
000010:                                                                                                  ##              exactly match those specified for Comanche 44 in NASA drawing
000011:                                                                                                  ##              2021153D, which gives relatively high confidence that the
000012:                                                                                                  ##              reconstruction is correct.
000013:                                                                                                  ## Assembler:   yaYUL
000014:                                                                                                  ## Contact:     Ron Burkey <info@sandroid.org>.
000015:                                                                                                  ## Website:     www.ibiblio.org/apollo/index.html
000016:                                                                                                  ## Mod history: 2020-12-03 MAS  Created from Comanche 51.
000017:                                                                                                  ##              2020-12-05 MAS  Removed definitions of EK2VAL, EK3VAL, and
000018:                                                                                                  ##                              STARSAV3.
000019:                                                                                                  ##              2020-12-11 RSB  Added justifying annotations for Mike's
000020:                                                                                                  ##                              reconstruction.
000021:                                                                                                  ##              2020-12-13 RSB  Incorporated feedback about the annotations.
000022:


000024:                                                                                                  #  CONVENTIONS AND NOTATIONS UTILIZED FOR ERASABLE ASSIGNMENTS.
000025:
000026:                                                                                                  #        EQUALS  IS USED IN TWO WAYS.  IT IS OFTEN USED TO CHAIN A GROUP
000027:                                                                                                  #                OF ASSIGNMENTS SO THAT THE GROUP MAY BE MOVED WITH THE
000028:                                                                                                  #                CHANGING OF ONLY ONE CARD.  EXAMPLE.
000029:
000030:                                                                                                  #                        X       EQUALS  START
000031:                                                                                                  #                        Y       EQUALS  X       +SIZE.X
000032:                                                                                                  #                        Z       EQUALS  Y       +SIZE.Y
000033:
000034:                                                                                                  #                (X, Y, AND Z ARE CONSECUTIVE AND BEGIN AT START.       )
000035:                                                                                                  #                (SIZE.X AND SIZE.Y ARE THE RESPECTIVE SIZES OF X AND Y,
000036:                                                                                                  #                 USUALLY NUMERIC, IE. 1, 2, 6, 18D ETC.                )
000037:
000038:                                                                                                  #        EQUALS  OFTEN IMPLIES THE SHARING OF REGISTERS (DIFFERENT NAMES
000039:                                                                                                  #                AND DIFFERENT DATA).  EXAMPLE.
000040:
000041:                                                                                                  #                        X       EQUALS  Y
000042:
000043:                                                                                                  #        =       MEANS THAT MULTIPLE NAMES HAVE BEEN GIVEN TO THE SAME DATA.
000044:                                                                                                  #                (THIS IS LOGICAL EQUIVALENCE, NOT SHARING)  EXAMPLE.
000045:
000046:                                                                                                  #                        X       =       Y
000047:
000048:                                                                                                  #        THE SIZE AND UTILIZATION OF AN ERASABLE ARE OFTEN INCLUDED IN
000049:                                                                                                  #        THE COMMENTS IN THE FOLLOWING FORM.  M(SIZE)N.
000050:
000051:                                                                                                  #                M       REFERS TO THE MOBILITY OF THE ASSIGNMENT.
000052:                                                                                                  #                        B       MEANS THAT THE SYMBOL IS REFERENCED BY BASIC
000053:                                                                                                  #                                INSTRUCTIONS AND THUS IS E-BANK SENSITIVE.
000054:                                                                                                  #                        I       MEANS THAT THE SYMBOL IS REFERENCED ONLY BY
000055:                                                                                                  #                                INTERPRETIVE INSTRUCTIONS, AND IS THUS E-BANK
000056:                                                                                                  #                                INSENSITIVE AND MAY APPEAR IN ANY E-BANK.
000057:
000058:                                                                                                  #                SIZE    IS THE NUMBER OF REGISTERS INCLUDED BY THE SYMBOL.
000059:
000060:                                                                                                  #                N       INDICATES THE NATURE OR PERMANENCE OF THE CONTENTS.
000061:                                                                                                  #                        PL      MEANS THAT THE CONTENTS ARE PAD LOADED.
000062:                                                                                                  #                        DSP     MEANS THAT THE REGISTER IS USED FOR A DISPLAY.
000063:                                                                                                  #                        PRM     MEANS THAT THE REGISTER IS PERMANENT, IE. IT
000064:                                                                                                  #                                IS USED DURING THE ENTIRE MISSION FOR ONE
000065:                                                                                                  #                                PURPOSE AND CANNOT BE SHARED.
000066:                                                                                                  #                        TMP     MEANS THAT THE REGISTER IS USED TEMPORARILY OR
000067:                                                                                                  #                                IS A SCRATCH REGISTER FOR THE ROUTINE TO WHICH
000068:                                                                                                  #                                IT IS ASSIGNED.  THAT IS, IT NEED NOT BE SET
000069:                                                                                                  #                                PRIOR TO INVOCATION OF THE ROUTINE NOR DOES IT
000070:                                                                                                  #                                CONTAIN USEFUL OUTPUT TO ANOTHER ROUTINE.  THUS


000072:                                                                                                  #                                IT MAY BE SHARED WITH ANY OTHER ROUTINE WHICH
000073:                                                                                                  #                                IS NOT ACTIVE IN PARALLEL.
000074:                                                                                                  #                        IN      MEANS INPUT TO THE ROUTINE AND IT IS PROBABLY
000075:                                                                                                  #                                TEMPORARY FOR A HIGHER-LEVEL ROUTINE/PROGRAM.
000076:                                                                                                  #                        OUT     MEANS OUTPUT FROM THE ROUTINE, PROBABLY
000077:                                                                                                  #                                TEMPORARY FOR A HIGHER-LEVEL ROUTINE/PROGRAM.
000078:


000080:
000081:                                                                                                  #  SPECIAL REGISTERS.
000082:
000083: 37,2001                        A                  EQUALS   0
000084: 37,2001                        L                  EQUALS   1                                     #  L AND Q ARE BOTH CHANNELS AND REGISTERS.
000085: 37,2001                        Q                  EQUALS   2
000086: 37,2001                        EBANK              EQUALS   3
000087: 37,2001                        FBANK              EQUALS   4
000088: 37,2001                        Z                  EQUALS   5                                     #  ADJACENT TO FBANK AND BBANK FOR DXCH Z
000089: 37,2001                        BBANK              EQUALS   6                                     #  (DTCB) AND DXCH FBANK (DTCF).
000090:                                                                                                  #  REGISTER 7 IS A ZERO-SOURCE, USED BY ZL.
000091:
000092: 37,2001                        ARUPT              EQUALS   10                                    #  INTERRUPT STORAGE.
000093: 37,2001                        LRUPT              EQUALS   11
000094: 37,2001                        QRUPT              EQUALS   12
000095: 37,2001                        SAMPTIME           EQUALS   13                                    #  SAMPLED TIME 1 & 2.
000096: 37,2001                        ZRUPT              EQUALS   15                                    #  (13 AND 14 ARE SPARES.)
000097: 37,2001                        BANKRUPT           EQUALS   16                                    #  USUALLY HOLDS FBANK OR BBANK.
000098: 37,2001                        BRUPT              EQUALS   17                                    #  RESUME ADDRESS AS WELL.
000099:
000100: 37,2001                        CYR                EQUALS   20
000101: 37,2001                        SR                 EQUALS   21
000102: 37,2001                        CYL                EQUALS   22
000103: 37,2001                        EDOP               EQUALS   23                                    #  EDITS INTERPRETIVE OPERATION CODE PAIRS.
000104:
000105: 37,2001                        TIME2              EQUALS   24
000106: 37,2001                        TIME1              EQUALS   25
000107: 37,2001                        TIME3              EQUALS   26
000108: 37,2001                        TIME4              EQUALS   27
000109: 37,2001                        TIME5              EQUALS   30
000110: 37,2001                        TIME6              EQUALS   31
000111: 37,2001                        CDUX               EQUALS   32
000112: 37,2001                        CDUY               EQUALS   33
000113: 37,2001                        CDUZ               EQUALS   34
000114: 37,2001                        CDUT               EQUALS   35                                    #  OPTICS TRUNNION CDU (WAS OPTY).
000115: 37,2001  0000035               OPTY               =        CDUT
000116: 37,2001                        CDUS               EQUALS   36                                    #  OPTICS SHAFT CDU (WAS OPTX).
000117: 37,2001  0000036               OPTX               =        CDUS
000118: 37,2001                        PIPAX              EQUALS   37
000119: 37,2001                        PIPAY              EQUALS   40
000120: 37,2001                        PIPAZ              EQUALS   41
000121: 37,2001                        BMAGX              EQUALS   42
000122: 37,2001                        BMAGY              EQUALS   43
000123: 37,2001                        BMAGZ              EQUALS   44
000124: 37,2001                        INLINK             EQUALS   45
000125: 37,2001                        RNRAD              EQUALS   46
000126: 37,2001                        GYROCTR            EQUALS   47
000127: 37,2001                        GYROCMD            EQUALS   47
000128: 37,2001                        CDUXCMD            EQUALS   50
000129: 37,2001                        CDUYCMD            EQUALS   51
000130:


000132:
000133: 37,2001                        CDUZCMD            EQUALS   52
000134: 37,2001                        CDUTCMD            EQUALS   53                                    #  OPTICS TRUNNION COMMAND (WAS OPTYCMD).
000135: 37,2001  0000053               OPTYCMD            =        CDUTCMD
000136: 37,2001  0000053               TVCYAW             EQUALS   CDUTCMD                               #  SPS YAW COMMAND IN TVC MODE.
000137: 37,2001                        CDUSCMD            EQUALS   54                                    #  OPTICS SHAFT COMMAND (WAS OPTXCMD).
000138: 37,2001  0000054               TVCPITCH           EQUALS   CDUSCMD                               #  SPS PITCH COMMAND IN TVC MODE.
000139: 37,2001  0000054               OPTXCMD            =        CDUSCMD
000140: 37,2001                        EMSD               EQUALS   55
000141: 37,2001                        THRUST             EQUALS   55
000142: 37,2001                        LEMONM             EQUALS   56
000143: 37,2001                        LOCALARM           EQUALS   57
000144: 37,2001                        BANKALRM           EQUALS   60
000145:
000146:                                                                                                  #  INTERPRETIVE REGISTERS ADDRESSED RELATIVE TO VAC AREA.
000147:
000148: 37,2001                        LVSQUARE           EQUALS   34D                                   #  SQUARE OF VECTOR INPUT TO ABVAL AND UNIT
000149: 37,2001                        LV                 EQUALS   36D                                   #  LENGTH OF VECTOR INPUT TO UNIT.
000150: 37,2001                        X1                 EQUALS   38D                                   #  INTERPRETIVE SPECIAL REGISTERS RELATIVE
000151: 37,2001                        X2                 EQUALS   39D                                   #  TO THE WORK AREA.
000152: 37,2001                        S1                 EQUALS   40D
000153: 37,2001                        S2                 EQUALS   41D
000154: 37,2001                        QPRET              EQUALS   42D
000155:


000157:
000158:                                                                                                  #  INPUT/OUTPUT CHANNELS
000159:
000160:                                                                                                  #  *** CHANNEL ZERO IS TO BE USED IN AN INDEXED OPERATION ONLY. ***
000161: 37,2001  0000001               LCHAN              EQUALS   L
000162: 37,2001  0000002               QCHAN              EQUALS   Q
000163: 37,2001                        HISCALAR           EQUALS   3
000164: 37,2001                        LOSCALAR           EQUALS   4
000165: 37,2001                        PYJETS             EQUALS   5
000166: 37,2001                        ROLLJETS           EQUALS   6
000167: 37,2001                        SUPERBNK           EQUALS   7
000168: 37,2001                        OUT0               EQUALS   10
000169: 37,2001                        DSALMOUT           EQUALS   11
000170: 37,2001                        CHAN12             EQUALS   12
000171: 37,2001                        CHAN13             EQUALS   13
000172: 37,2001                        CHAN14             EQUALS   14
000173: 37,2001                        MNKEYIN            EQUALS   15
000174: 37,2001                        NAVKEYIN           EQUALS   16
000175: 37,2001                        CHAN30             EQUALS   30
000176: 37,2001                        CHAN31             EQUALS   31
000177: 37,2001                        CHAN32             EQUALS   32
000178: 37,2001                        CHAN33             EQUALS   33
000179: 37,2001                        DNTM1              EQUALS   34
000180: 37,2001                        DNTM2              EQUALS   35
000181:
000182:                                                                                                  #  END OF CHANNEL ASSIGNMENTS
000183:


000185:
000186:                                                                                                  #  FLAGWORDS
000187:
000188:                                                                                                  #  FLAGWRD0      STATE +0        (000-014)
000189:                                                                                                  #  FLAGWRD1      STATE +1        (015-029)
000190:                                                                                                  #  FLAGWRD2      STATE +2        (030-044)
000191:                                                                                                  #  FLAGWRD3      STATE +3        (045-059)
000192:                                                                                                  #  FLAGWRD4      STATE +4        (060-074)
000193:                                                                                                  #  FLAGWRD5      STATE +5        (075-089)
000194:                                                                                                  #  FLAGWRD6      STATE +6        (090-104)
000195:                                                                                                  #  FLAGWRD7      STATE +7        (105-119)
000196:                                                                                                  #  FLAGWRD8      STATE +8D       (120-134)
000197:                                                                                                  #  FLAGWRD9      STATE +9D       (135-149)
000198:
000199:                                                                                                  #        SORTED LIST OF
000200:                                                                                                  #        INTERPITIVE SWITCH BIT ASSIGNMENTS
000201:
000202:                                                                                                  #  INTERPRETIVE SWITCH BIT ASSIGNMENTS
000203:
000204:                                                                                                  #  FLAGWORD      DEC NUM         BIT + FLAG      EQUIVALENT FLAGWORDS
000205:
000206:                                                                                                  #  22DSPFLG      032D            BIT 13 FLAG 2
000207:                                                                                                  #  360SW         134D            BIT 1 FLAG 8
000208:                                                                                                  #  3AXISFLG      084D            BIT 6 FLAG 5
000209:                                                                                                  #  ADVTRK        125D            BIT 10 FLAG 8
000210:                                                                                                  #  AMOONFLG      13D             BIT 2 FLAG 0
000211:                                                                                                  #  APSESW        130D            BIT 5 FLAG 8
000212:                                                                                                  #  ASTNFLAG      108D            BIT 12 FLAG 7
000213:                                                                                                  #  ATTCHFLG      118D            BIT 2 FLAG 7
000214:                                                                                                  #  AVEGFLAG      029D            BIT 1 FLAG 1
000215:                                                                                                  #  AVEMIDSW      149D            BIT 1 FLAG 9
000216:                                                                                                  #  AVFLAG        040D            BIT 5 FLAG 2
000217:                                                                                                  #  CALCMAN2      043D            BIT 2 FLAG 2
000218:                                                                                                  #  CMDAPARM      093D            BIT 12 FLAG 6
000219:                                                                                                  #  CMOONFLG      123D            BIT 12 FLAG 8
000220:                                                                                                  #  CM/DSTBY      103D            BIT 2 FLAG 6
000221:                                                                                                  #  COGAFLAG      131D            BIT 4 FLAG 8
000222:                                                                                                  #  COMPUTER      082D            BIT 8 FLAG 5
000223:                                                                                                  #  CPHIFLAG      000D            BIT 15 FLAG 0
000224:                                                                                                  #  CULTFLAG      053D            BIT 7 FLAG 3
000225:                                                                                                  #  D6OR9FLG      058D            BIT 2 FLAG 3
000226:                                                                                                  #  DAPBIT1       090D            BIT 15 FLAG 6
000227:                                                                                                  #  DAPBIT2       091D            BIT 14 FLAG 6
000228:                                                                                                  #  DIM0FLAG      059D            BIT 1 FLAG 3
000229:                                                                                                  #  DMENFLG       081D            BIT 9 FLAG 5
000230:                                                                                                  #  DRIFTFLG      030D            BIT 15 FLAG 2
000231:                                                                                                  #  DSKYFLAG      075D            BIT 15 FLAG 5
000232:                                                                                                  #  EGSW          97D             BIT 8 FLAG 6     KNOWNFLG R57FLAG
000233:


000235:
000236:                                                                                                  #  ENG1FLAG      018D            BIT 12 FLAG 1
000237:                                                                                                  #  ENG2FLAG      019D            BIT 11 FLAG 1
000238:                                                                                                  #  ENGONFLG      083D            BIT 7 FLAG 5
000239:                                                                                                  #  ERADFLAG      017D            BIT 13 FLAG 1
000240:                                                                                                  #  ETPIFLAG      038D            BIT 7 FLAG 2    FIRSTFLG OPTNSW
000241:                                                                                                  #  F2RTE         10D             BIT 5 FLAG 0
000242:                                                                                                  #  FINALFLG      039D            BIT 6 FLAG 2
000243:                                                                                                  #  FIRSTFLG      38D             BIT 7 FLAG 2    ETPIFLAG OPTNSW
000244:                                                                                                  #  FREEFLAG      012D            BIT 3 FLAG 0
000245:                                                                                                  #  GAMDIFSW      094D            BIT 11 FLAG 6
000246:                                                                                                  #  GLOKFAIL      046D            BIT 14 FLAG 3
000247:                                                                                                  #  GONEBY        112D            BIT 8 FLAG 7
000248:                                                                                                  #  GONEPAST      095D            BIT 10 FLAG 6
000249:                                                                                                  #  GRRBKFLG      085D            BIT 5 FLAG 5
000250:                                                                                                  #  GUESSW        028D            BIT 2 FLAG 1
000251:                                                                                                  #  GYMDIFSW      104D            BIT 1 FLAG 6
000252:                                                                                                  #  .05GSW        102D            BIT 3 FLAG 6
000253:                                                                                                  #  HIND          099D            BIT 6 FLAG 6
000254:                                                                                                  #  IDLEFAIL      024D            BIT 6 FLAG 1
000255:                                                                                                  #  IDLEFLAG      113D            BIT 7 FLAG 7
000256:                                                                                                  #  IGNFLAG       107D            BIT 13 FLAG 7
000257:                                                                                                  #  IMPULSW       036D            BIT 9 FLAG 2
000258:                                                                                                  #  IMUSE         007D            BIT 8 FLAG 0
000259:                                                                                                  #  INCORFLG      079D            BIT 11 FLAG 5
000260:                                                                                                  #  INFINFLG      128D            BIT 7 FLAG 8
000261:                                                                                                  #  INRLSW        100D            BIT 5 FLAG 6
000262:                                                                                                  #  INTFLAG       151D            BIT 14 FLAG 10
000263:                                                                                                  #  INTYPFLG      056D            BIT 4 FLAG 3
000264:                                                                                                  #  ITSWICH       106D            BIT 14 FLAG 7
000265:                                                                                                  #  KFLAG         014D            BIT 1 FLAG 0
000266:                                                                                                  #  KNOWNFLG      097D            BIT 8 FLAG 6    EGSW R57FLAG
000267:                                                                                                  #  LATSW         101D            BIT 4 FLAG 6
000268:                                                                                                  #  LMOONFLG      124D            BIT 11 FLAG 8
000269:                                                                                                  #  LUNAFLAG      048D            BIT 12 FLAG 3
000270:                                                                                                  #  MAXDBFLG      138D            BIT 12 FLAG 9
000271:                                                                                                  #  MGLVFLAG      088D            BIT 2 FLAG 5
000272:                                                                                                  #  MID1FLAG      147D            BIT 3 FLAG 9
000273:                                                                                                  #  MIDAVFLG      148D            BIT 2 FLAG 9
000274:                                                                                                  #  MIDFLAG       002D            BIT 13 FLAG 0
000275:                                                                                                  #  MKOVFLAG      072D            BIT 3 FLAG 4
000276:                                                                                                  #  MOONFLAG      003D            BIT 12 FLAG 0
000277:                                                                                                  #  MRKIDFLG      060D            BIT 15 FLAG 4
000278:                                                                                                  #  MRKNVFLG      066D            BIT 9 FLAG 4
000279:                                                                                                  #  MRUPTFLG      070D            BIT 5 FLAG 4
000280:                                                                                                  #  MWAITFLG      064D            BIT 11 FLAG 4
000281:                                                                                                  #  N22ORN17      144D            BIT 6 FLAG 9
000282:                                                                                                  #  NEEDLFLG      006D            BIT 9 FLAG 0
000283:                                                                                                  #  NEWIFLG       122D            BIT 13 FLAG 8
000284:                                                                                                  #  NJETSFLG      015D            BIT 15 FLAG 1
000285:                                                                                                  #  NODOFLAG      044D            BIT 1 FLAG 2
000286:


000288:
000289:                                                                                                  #  NODOP01       018D            BIT 12 FLAG 1
000290:                                                                                                  #  NORFHOR       004D            BIT 11 FLAG 0
000291:                                                                                                  #  NORMSW        110D            BIT 10 FLAG 7
000292:                                                                                                  #  NOSWITCH      098D            BIT 7 FLAG 6
000293:                                                                                                  #  NRMIDFLG      062D            BIT 13 FLAG 4
000294:                                                                                                  #  NRMNVFLG      067D            BIT 8 FLAG 4
000295:                                                                                                  #  NRUPTFLG      071D            BIT 4 FLAG 4
000296:                                                                                                  #  NWAITFLG      065D            BIT 10 FLAG 4
000297:                                                                                                  #  OPTNSW        038D            BIT 7 FLAG 2    ETPIFLAG FIRSTFLG
000298:                                                                                                  #  ORBWFLAG      054D            BIT 6 FLAG 3
000299:                                                                                                  #  ORDERSW       129D            BIT 6 FLAG 8
000300:                                                                                                  #  P21FLAG       033D            BIT 12 FLAG 2
000301:                                                                                                  #  P22MKFLG      49D             BIT 11 FLAG 3
000302:                                                                                                  #  P39/79SW      126D            BIT 9 FLAG 8
000303:                                                                                                  #  PDSPFLAG      063D            BIT 12 FLAG 4
000304:                                                                                                  #  PFRATFLG      041D            BIT 4 FLAG 2
000305:                                                                                                  #  PINBRFLG      069D            BIT 6 FLAG 4
000306:                                                                                                  #  PRECIFLG      052D            BIT 8 FLAG 3
000307:                                                                                                  #  PRFTRKAT      080D            BIT 10 FLAG 5
000308:                                                                                                  #  PRIODFLG      061D            BIT 14 FLAG 4
000309:                                                                                                  #  PRONVFLG      068D            BIT 7 FLAG 4
000310:                                                                                                  #  QUITFLAG      145D            BIT 5 FLAG 9
000311:                                                                                                  #  R21MARK       031D            BIT 14 FLAG 2
000312:                                                                                                  #  R22CAFLG      143D            BIT 7 FLAG 9
000313:                                                                                                  #  R23FLG        021D            BIT 9 FLAG 1
000314:                                                                                                  #  R31FLAG       146D            BIT 4 FLAG 9
000315:                                                                                                  #  R53FLAG       009D            BIT 6 FLAG 0
000316:                                                                                                  #  R57FLAG       097D            BIT 8 FLAG 6    KNOWNFLG EGSW
000317:                                                                                                  #  R60FLAG       086D            BIT 4 FLAG 5
000318:                                                                                                  #  REFSMFLG      047D            BIT 13 FLAG 3
000319:                                                                                                  #  REINTFLG      158D            BIT 7 FLAG 10
000320:                                                                                                  #  RELVELSW      096D            BIT 9 FLAG 6
000321:                                                                                                  #  RENDWFLG      089D            BIT 1 FLAG 5
000322:                                                                                                  #  RETROFLG      76D             BIT 14 FLAG 5
000323:                                                                                                  #  RNDVZFLG      008D            BIT 7 FLAG 0
000324:                                                                                                  #  RPQFLAG       120D            BIT 15 FLAG 8
000325:                                                                                                  #  RVSW          111D            BIT 9 FLAG 7
000326:                                                                                                  #  SAVECFLG      140D            BIT 10 FLAG 9
000327:                                                                                                  #  SKIPVHF       035D            BIT 10 FLAG 2
000328:                                                                                                  #  SLOPESW       027D            BIT 3 FLAG 1
000329:                                                                                                  #  SLOWFLG       77D             BIT 13 FLAG 5
000330:                                                                                                  #  SOLNSW        087D            BIT 3 FLAG 5
000331:                                                                                                  #  SOURCFLG      142D            BIT 8 FLAG 9
000332:                                                                                                  #  STATEFLG      055D            BIT 5 FLAG 3
000333:                                                                                                  #  STEERSW       034D            BIT 11 FLAG 2
000334:                                                                                                  #  STIKFLAG      016D            BIT 14 FLAG 1
000335:                                                                                                  #  STRULLSW      92D             BIT 13 FLAG 6
000336:                                                                                                  #  SURFFLAG      127D            BIT 8 FLAG 8
000337:                                                                                                  #  SWTOVER       135D            BIT 15 FLAG 9
000338:                                                                                                  #  TARG1FLG      020D            BIT 10 FLAG 1
000339:


000341:
000342:                                                                                                  #  TARG2FLG      021D            BIT 9 FLAG 1
000343:                                                                                                  #  TERMIFLG      105D            BIT 15 FLAG 7
000344:                                                                                                  #  TFFSW         119D            BIT 1 FLAG 7
000345:                                                                                                  #  TIMRFLAG      109D            BIT 11 FLAG 7
000346:                                                                                                  #  TRACKFLG      025D            BIT 5 FLAG 1
000347:                                                                                                  #  TRM03FLG      26D             BIT 4 FLAG 1
000348:                                                                                                  #  TRUNFLAG      011D            BIT 4 FLAG 0
000349:                                                                                                  #  UPDATFLG      023D            BIT 7 FLAG 1
000350:                                                                                                  #  UPLOCKFL      116D            BIT 4 FLAG 7
000351:                                                                                                  #  V37FLAG       114D            BIT 6 FLAG 7
000352:                                                                                                  #  V59FLAG       078D            BIT 12 FLAG 5
000353:                                                                                                  #  V82EMFLG      137D            BIT 13 FLAG 9
000354:                                                                                                  #  V94FLAG       139D            BIT 11 FLAG 9
000355:                                                                                                  #  V96ONFLG      132D            BIT 3 FLAG 8
000356:                                                                                                  #  VEHUPFLG      022D            BIT 8 FLAG 1
000357:                                                                                                  #  VERIFLAG      117D            BIT 3 FLAG 7
000358:                                                                                                  #  VFLAG         050D            BIT 10 FLAG 3
000359:                                                                                                  #  VHFRFLAG      141D            BIT 9 FLAG 9
000360:                                                                                                  #  VINTFLAG      057D            BIT 3 FLAG 3
000361:                                                                                                  #  XDELVFLG      037D            BIT 8 FLAG 2
000362:                                                                                                  #  XDSPFLAG      074D            BIT 1 FLAG 4
000363:


000365:
000366:                                                                                                  #  INTERPRETIVE SWITCH BIT ASSIGNMENTS
000367: 37,2001     0074               FLAGWRD0           =        STATE      +0                         #  (000-014)
000368:                                                                                                  #  (SET)                 (RESET)
000369:                                                                                                  #  BIT 15 FLAG 0
000370: 37,2001                        CPHIFLAG           =        000D                                  #  OUTPUT OF CALCGA IS   OUTPUT OF CALCGA IS
000371:                                                                                                  #  CPHIX                 THETAD
000372: 37,2001     5001               CPHIBIT            =        BIT15
000373:
000374:                                                                                                  #  BIT 14 FLAG 0
000375: 37,2001                        JSWITCH            =        001D                                  #  INTEGRATION OF W      INTEGRATION OF STATE
000376:                                                                                                  #  MATRIX                VECTOR
000377: 37,2001     5002               JSWCHBIT           =        BIT14
000378:
000379:                                                                                                  #  BIT 13 FLAG 0
000380: 37,2001                        MIDFLAG            =        002D                                  #  INTEGRATION WITH      INTEGRATION WITHOUT
000381:                                                                                                  #  SOLAR PERTURBATIONS   SOLAR PERTURBATIONS
000382:
000383: 37,2001     5003               MIDFLBIT           =        BIT13
000384:
000385:                                                                                                  #  BIT 12 FLAG 0
000386: 37,2001                        MOONFLAG           =        003D                                  #  MOON IS SPHERE OF     EARTH IS SPHERE OF
000387:                                                                                                  #  INFLUENCE             INFLUENCE
000388:
000389: 37,2001     5004               MOONBIT            =        BIT12
000390:
000391:                                                                                                  #  BIT 11 FLAG 0
000392: 37,2001                        NORFHOR            =        004D                                  #  FAR HORIZON           NEAR HORIZON
000393:
000394: 37,2001     5005               NORFBIT            =        BIT11
000395:
000396:                                                                                                  #  BIT 10 FLAG 0
000397: 37,2001                        ZMEASURE           =        005D                                  #  MEASUREMENT PLANET    MEASUREMENT PLANET
000398:                                                                                                  #  AND PRIMARY PLANET    AND PRIMARY PLANET
000399:                                                                                                  #  DIFFERENT             SAME
000400:
000401: 37,2001     5006               ZMEASBIT           =        BIT10
000402:
000403:                                                                                                  #  BIT 9 FLAG 0
000404: 37,2001                        NEEDLFLG           =        006D                                  #  TOTAL ATTIDUDE        A/P FOLLOWING ERROR
000405:                                                                                                  #  ERROR DISPLAYED       DISPLAYED
000406:
000407: 37,2001     5007               NEEDLBIT           =        BIT9
000408:
000409:                                                                                                  #  BIT 8 FLAG 0
000410: 37,2001                        IMUSE              =        007D                                  #  IMU IN USE            IMU NOT IN USE
000411:


000413:
000414: 37,2001     5010               IMUSEBIT           =        BIT8
000415:
000416:                                                                                                  #  BIT 7 FLAG 0
000417: 37,2001                        RNDVZFLG           =        008D                                  #  P20 RUNNING           P20 NOT RUNNING
000418:
000419: 37,2001     5011               RNDVZBIT           =        BIT7
000420:
000421:                                                                                                  #  BIT 6 FLAG 0
000422: 37,2001                        R53FLAG            =        009D                                  #  V51 INITIATED         V51 NOT INITIATED
000423:
000424: 37,2001     5010               R53FLBIT           =        BIT8
000425:
000426:                                                                                                  #  BIT 5 FLAG 0
000427: 37,2001                        F2RTE              =        010D                                  #  IN TIME CRITICAL      NOT IN TIME CRITICAL
000428:                                                                                                  #  MODE                  MODE
000429:
000430: 37,2001     5013               F2RTEBIT           =        BIT5
000431:
000432:                                                                                                  #  BIT 4 FLAG 0
000433: 37,2001                        TRUNFLAG           =        011D                                  #  DRIVING OF TRUNNION   DRIVING OF TRUNNION
000434:                                                                                                  #  ALLOWED               NOT ALLOWED
000435:
000436: 37,2001     5014               TRUNBIT            =        BIT4
000437:
000438:                                                                                                  #  BIT 3 FLAG 0
000439: 37,2001                        FREEFLAG           =        012D                                  #  (TEMPORARY FLAG USED IN MANY ROUTINES)
000440:
000441: 37,2001     5015               FREEFBIT           =        BIT3
000442:
000443:                                                                                                  #  BIT 2 FLAG 0
000444: 37,2001                        AMOONFLG           =        13D                                   #  STATE VECTOR IN       STATE VECTOR IN
000445: 37,2001     5016               AMOONBIT           =        BIT2                                  #  LUNAR SPHERE AT       EARTH SPHERE AT
000446:                                                                                                  #  MIDTOAVE              MIDTOAVE
000447:
000448:                                                                                                  #  BIT 1 FLAG 0
000449: 37,2001                        KFLAG              =        014D                                  #  SEARCH SECTOR LESS    SEARCH SECTOR MORE
000450:                                                                                                  #  THAN 180 DEGREES      THAN 180 DEGREES
000451:
000452: 37,2001     5017               KBIT               =        BIT1
000453:
000454: 37,2001     0075               FLAGWRD1           =        STATE      +1                         #  (015-029)
000455:                                                                                                  #  (SET)                 (RESET)
000456:
000457:                                                                                                  #  BIT 15 FLAG 1
000458: 37,2001                        NJETSFLG           =        015D                                  #  TWO JET RCS BURN      FOUR JET RCS BURN
000459:
000460: 37,2001     5001               NJETSBIT           =        BIT15
000461:


000463:
000464:                                                                                                  #  BIT 14 FLAG 1
000465: 37,2001                        STIKFLAG           =        016D                                  #  RHC CONTROL           CMC CONTROL
000466: 37,2001     5002               STIKBIT            =        BIT14
000467:
000468:                                                                                                  #  BIT 13 FLAG 1
000469: 37,2001                        ERADFLAG           =        017D                                  #  EARTH, COMPUTE        EARTH, USE FIXED
000470:                                                                                                  #    FISCHER ELLIPSOID     RADIUS
000471:                                                                                                  #    RADIUS
000472:                                                                                                  #  MOON, USE FIXED       MOON, USE RLS FOR
000473:                                                                                                  #    RADIUS                LUNAR RADIUS
000474:
000475: 37,2001     5003               ERADFBIT           =        BIT13
000476:
000477:                                                                                                  #  BIT 12 FLAG 1
000478: 37,2001                        NODOP01            =        018D                                  #  P01 NOT ALLOWED       P01 ALLOWED
000479: 37,2001     5004               NOP01BIT           =        BIT12
000480:
000481:                                                                                                  #  BIT 11 FLAG 1
000482: 37,2001                        ENG2FLAG           =        019D                                  #  RCS BURN              SPS BURN
000483:
000484: 37,2001     5005               ENG2BIT            =        BIT11
000485:
000486:                                                                                                  #  BIT 10 FLAG 1
000487: 37,2001                        TARG1FLG           =        020D                                  #  SIGHTING LEM          NOT SIGHTING LEM
000488:
000489: 37,2001     5006               TARG1BIT           =        BIT10
000490:
000491:                                                                                                  #  BIT 9 FLAG 1
000492: 37,2001                        TARG2FLG           =        021D                                  #  SIGHTING LANDMARK     SIGHTING STAR
000493:
000494: 37,2001     5007               TARG2BIT           =        BIT9
000495:
000496:                                                                                                  #  BIT 9 FLAG 1
000497: 37,2001                        R23FLG             =        021D                                  #  R23 MARKING           R21 MARKING
000498:
000499: 37,2001     5007               R23BIT             =        BIT9
000500:
000501:                                                                                                  #  BIT 8 FLAG 1
000502: 37,2001                        VEHUPFLG           =        022D                                  #  CSM STATE VECTOR      LEM STATE VECTOR
000503:                                                                                                  #  BEING UPDATED         BEING UPDATED
000504:
000505: 37,2001     5010               VEHUPBIT           =        BIT8
000506:
000507:                                                                                                  #  BIT 7 FLAG 1
000508: 37,2001                        UPDATFLG           =        023D                                  #  UPDATING BY MARKS     UPDATING BY MARKS


000510:                                                                                                  #  ALLOWED               NOT ALLOWED
000511:
000512: 37,2001     5011               UPDATBIT           =        BIT7
000513:
000514:                                                                                                  #  BIT 6 FLAG 1
000515: 37,2001                        IDLEFAIL           =        024D                                  #  INHIBIT R41           ENABLE R41 (ENGFAIL)
000516:
000517: 37,2001     5012               IDLEBIT            =        BIT6
000518:
000519:                                                                                                  #  BIT 5 FLAG 1
000520: 37,2001                        TRACKFLG           =        025D                                  #  TRACKING ALLOWED      TRACKING NOT ALLOWED
000521:
000522: 37,2001     5013               TRACKBIT           =        BIT5
000523:
000524:                                                                                                  #  BIT 4 FLAG 1
000525: 37,2001                        TRM03FLG           =        026D                                  #  REQUEST TO            NO REQUEST TO
000526:                                                                                                  #  TERMINATE P03 HAS     TERMINATE P03 HAS
000527:                                                                                                  #  BEEN ENTERED          BEEN ENTERED
000528:
000529: 37,2001     5014               TRM03BIT           =        BIT4
000530:
000531:                                                                                                  #  BIT 3 FLAG 1
000532: 37,2001                        SLOPESW            =        027D                                  #  ITERATE WITH BIAS     ITERATE WITH REGULA
000533:                                                                                                  #  METHOD IN ITERATOR    FALSI METHOD IN
000534:                                                                                                  #                        ITERATOR
000535:
000536: 37,2001     5015               SLOPEBIT           =        BIT3
000537:
000538:                                                                                                  #  BIT 2 FLAG 1
000539: 37,2001                        GUESSW             =        028D                                  #  NO STARTING VALUE     STARTING VALUE FOR
000540:                                                                                                  #  FOR ITERATION         ITERATION EXISTS
000541:
000542: 37,2001     5016               GUESSBIT           =        BIT2
000543:
000544:                                                                                                  #  BIT 1 FLAG 1
000545: 37,2001                        AVEGFLAG           =        029D                                  #  AVERAGEG (SERVICER)   AVERAGEG (SERVICER)
000546:                                                                                                  #  TO CONTINUE           TO CEASE
000547:
000548: 37,2001     5017               AVEGBIT            =        BIT1
000549:
000550: 37,2001     0076               FLAGWRD2           =        STATE      +2                         #  (030-044)
000551:
000552:                                                                                                  #  (SET)                 (RESET)
000553:
000554:                                                                                                  #  BIT 15 FLAG 2
000555: 37,2001                        DRIFTFLG           =        030D                                  #  T3RUPT CALLS GYRO     T3RUPT DOES NO GYRO
000556:                                                                                                  #  COMPENSATION          COMPENSATION
000557:
000558: 37,2001     5001               DRFTBIT            =        BIT15
000559:


000561:
000562:                                                                                                  #  BIT 14 FLAG 2
000563: 37,2001                        R21MARK            =        031D                                  #  OPTION ONE FOR        OPTION TWO FOR
000564:                                                                                                  #  MARKRUPT              MARKRUPT
000565:
000566: 37,2001     5002               R21BIT             =        BIT14
000567:
000568:                                                                                                  #  BIT 13 FLAG 2
000569: 37,2001                        22DSPFLG           =        032D                                  #  DISPLAY DR,DV         DO NOT DISPLAY DR,DV
000570:
000571: 37,2001     5003               22DSPBIT           =        BIT13
000572:
000573:                                                                                                  #  BIT 12 FLAG 2
000574: 37,2001                        P21FLAG            =        033D                                  #  SUCCEEDING PASS       1ST PASS THRU P21,
000575:                                                                                                  #  THRU P21, USE BASE    CALCULATE BASE
000576: 37,2001     5004               P21BIT             =        BIT12                                 #  VECTOR FOR CALC.      VECTOR
000577:
000578: 37,2001                        STEERSW            =        034D                                  #  STEERING TO BE DONE   STEERING OMITTED
000579:
000580: 37,2001     5005               STEERBIT           =        BIT11
000581:
000582:                                                                                                  #  BIT 10 FLAG 2
000583: 37,2001                        SKIPVHF            =        035D                                  #  DISREGARD RADAR       RADAR READ TO
000584:                                                                                                  #  READ BECAUSE OF       PROCEED NORMALLY
000585: 37,2001     5006               SKIPVBIT           =        BIT10                                 #  SFTWRE OR HDWRE
000586:                                                                                                  #  RESTART
000587:
000588:                                                                                                  #  BIT 9 FLAG 2
000589: 37,2001                        IMPULSW            =        036D                                  #  MINIMUM IMPULSE       STEERING BURN (NO
000590:                                                                                                  #  BURN (CUTOFF TIME     CUTOFF TIME YET
000591:                                                                                                  #  SPECIFIED)            AVAILABLE)
000592:
000593: 37,2001     5007               IMPULBIT           =        BIT9
000594:
000595:                                                                                                  #  BIT 8 FLAG 2
000596: 37,2001                        XDELVFLG           =        037D                                  #  EXTERNAL DELTAV VG    LAMBERT (AIMPOINT)
000597:                                                                                                  #  COMPUTATION           VG COMPUTATION
000598:
000599: 37,2001     5010               XDELVBIT           =        BIT8
000600:
000601:                                                                                                  #  BIT 7 FLAG 2
000602: 37,2001                        ETPIFLAG           =        038D                                  #  ELEVATION ANGLE       TPI TIME SUPPLIED
000603:                                                                                                  #  SUPPLIED FOR P34,74   FOR P34,74
000604:
000605:                                                                                                  #  BIT 7 FLAG 2
000606: 37,2001  0000046               FIRSTFLG           =        ETPIFLAG                              #  FIRST PASS            SUCCEEDING PASS THRU
000607:                                                                                                  #  THRU S40.9            S40.9
000608:
000609: 37,2001     5011               FIRSTBIT           =        BIT7
000610:
000611:                                                                                                  #  BIT 7 FLAG 2


000613: 37,2001  0000046               OPTNSW             =        ETPIFLAG                              #  SOI PHASE P38/P78     SOR PHASE OF P38/P78
000614:
000615: 37,2001     5012               FINALBIT           =        BIT6
000616:
000617:                                                                                                  #  BIT 6 FLAG 2
000618: 37,2001                        FINALFLG           =        039D                                  #  LSAT PASS THROUGH     INTERIM PASS THROUGH
000619:                                                                                                  #  RENDEZVOUS PROGRAM    RENDEZVOUS PROGRAM
000620:                                                                                                  #  COMPUTATIONS          COMPUTATIONS
000621:
000622: 37,2001     5013               AVFLBIT            =        BIT5
000623:
000624:                                                                                                  #  BIT 5 FLAG 2
000625: 37,2001                        AVFLAG             =        040D                                  #  LEM IS ACTIVE         CSM IS ACTIVE
000626:                                                                                                  #  VEHICLE               VEHICLE
000627:
000628:                                                                                                  #  BIT 4 FLAG 2
000629: 37,2001                        PFRATFLG           =        041D                                  #  PREFERRED ATTITUDE    PREFERRED ATTITUDE
000630:                                                                                                  #  COMPUTED              NOT COMPUTED
000631:
000632: 37,2001     5014               PFRATBIT           =        BIT4
000633:
000634:                                                                                                  #  BIT 3 FLAG 2
000635:                                                                                                  #                =       042D
000636:
000637:                                                                                                  #  BIT 2 FLAG 2
000638: 37,2001                        CALCMAN2           =        043D                                  #  PERFORM MANEUVER      BYPASS STARTING
000639:                                                                                                  #  STARTING PROCEDURE    PROCEDURE
000640:
000641: 37,2001     5016               CALC2BIT           =        BIT2
000642:
000643:                                                                                                  #  BIT 1 FLAG 2
000644: 37,2001                        NODOFLAG           =        044D                                  #  V37 NOT PERMITTED     V37 PERMITTED
000645:
000646: 37,2001     5017               NODOBIT            =        BIT1
000647:
000648: 37,2001     0077               FLAGWRD3           =        STATE      +3                         #  (045-059)
000649:                                                                                                  #  (SET)                 (RESET)
000650:
000651:                                                                                                  #  BIT 15 FLAG 3
000652:                                                                                                  #                =       045D
000653:
000654:                                                                                                  #  BIT 14 FLAG 3
000655: 37,2001                        GLOKFAIL           =        046D                                  #  GIMBAL LOCK HAS       NOT IN GIMBAL LOCK
000656:                                                                                                  #  OCCURED
000657:
000658: 37,2001     5002               GLOKFBIT           =        BIT14
000659:


000661:
000662:                                                                                                  #  BIT 13 FLAG 3
000663: 37,2001                        REFSMFLG           =        047D                                  #  REFSMMAT GOOD         REFSMMAT NO GOOD
000664:
000665: 37,2001     5003               REFSMBIT           =        BIT13
000666:
000667:                                                                                                  #  BIT 12 FLAG 3
000668: 37,2001                        LUNAFLAG           =        048D                                  #  LUNAR LAT-LONG        EARTH LAT-LONG
000669:
000670: 37,2001     5004               LUNABIT            =        BIT12
000671:
000672:                                                                                                  #  BIT 11 FLAG 3
000673: 37,2001                        P22MKFLG           =        049D                                  #  P22 DOWNLINKED MARK   P22 DOWLINK MARK
000674:                                                                                                  #  DATA WAS JUST TAKEN   DATA NOT JUST TAKEN
000675:
000676: 37,2001     5005               P22MKBIT           =        BIT11
000677:
000678:                                                                                                  #  BIT 10 FLAG 3
000679: 37,2001                        VFLAG              =        050D                                  #  LESS THAN TWO STARS   TWO STARS IN FIELD
000680:                                                                                                  #  IN FIELD OF VIEW      OF VIEW
000681:
000682: 37,2001     5006               VFLAGBIT           =        BIT10
000683:
000684:                                                                                                  #  BIT 9 FLAG 3
000685:                                                                                                  #                =       051D
000686:
000687:                                                                                                  #  BIT 8 FLAG 3
000688: 37,2001                        PRECIFLG           =        052D                                  #  CSMPREC, LEMPREC      INTGRV CALLED
000689:                                                                                                  #  OR INTEGRVS CALLED
000690:
000691: 37,2001     5010               PRECIBIT           =        BIT8
000692:
000693:                                                                                                  #  BIT 7 FLAG 3
000694: 37,2001                        CULTFLAG           =        053D                                  #  STAR OCCULTED         STAR NOT OCCULTED
000695:
000696: 37,2001     5011               CULTBIT            =        BIT7
000697:
000698:                                                                                                  #  BIT 6 FLAG 3
000699: 37,2001                        ORBWFLAG           =        054D                                  #  W MATRIX VALID FOR    W MATRIX INVALID FOR
000700:                                                                                                  #  ORBITAL N1VIGATION    ORBITAL NAVIGATION
000701:
000702: 37,2001     5012               ORBWFBIT           =        BIT6
000703:
000704:                                                                                                  #  BIT 5 FLAG 3
000705: 37,2001                        STATEFLG           =        055D                                  #  PERMANENT STATE       PERMANENT STATE
000706:                                                                                                  #  VECTOR UPDATED        VECTOR NOT UPDATED
000707:
000708: 37,2001     5013               STATEBIT           =        BIT5
000709:
000710:                                                                                                  #  BIT 4 FLAG 3
000711: 37,2001                        INTYPFLG           =        056D                                  #  CONIC INTEGRATION     ENCKE INTEGRATION


000713: 37,2001     5014               INTYBIT            =        BIT4
000714:
000715:                                                                                                  #  BIT 3 FLAG 3
000716: 37,2001                        VINTFLAG           =        057D                                  #  CSM STATE VECTOR      LEM STATE VECTOR
000717:                                                                                                  #  BEING INTEGRATED      BEING INTEGRATED
000718:
000719: 37,2001     5015               VINTFBIT           =        BIT3
000720:
000721:                                                                                                  #  BIT 2 FLAG 3
000722: 37,2001                        D6OR9FLG           =        058D                                  #  DIMENSION OF W IS 9   DIMENSION OF W IS 6
000723:                                                                                                  #  FOR INTEGRATION       FOR INTEGRATION
000724:
000725: 37,2001     5016               D6OR9BIT           =        BIT2
000726:
000727:                                                                                                  #  BIT 1 FLAG 3
000728: 37,2001                        DIM0FLAG           =        059D                                  #  W MATRIX IS TO BE     W MATRIX IS NOT TO
000729:                                                                                                  #  USED                  BE USED
000730:
000731: 37,2001     0100               FLAGWRD4           =        STATE      +4                         #  (060-074)
000732:                                                                                                  #  (SET)                 (RESET)
000733:
000734: 37,2001     5017               DIM0BIT            =        BIT1
000735:
000736:                                                                                                  #  BIT 15 FLAG 4
000737: 37,2001                        MRKIDFLG           =        060D                                  #  MARK DISPLAY IN       NO MARK DISPLAY IN
000738:                                                                                                  #  ENDIDLE               ENDIDLE
000739:
000740: 37,2001     5001               MRKIDBIT           =        BIT15
000741:
000742:                                                                                                  #  BIT 14 FLAG 4
000743: 37,2001                        PRIODFLG           =        061D                                  #  PRIORITY DISPLAY IN   NO PRIORITY DISPLAY
000744:                                                                                                  #  ENDIDLE               IN ENDIDLE
000745:
000746: 37,2001     5002               PRIODBIT           =        BIT14
000747:
000748:                                                                                                  #  BIT 13 FLAG 4
000749: 37,2001                        NRMIDFLG           =        062D                                  #  NORMAL DISPLAY IN     NO NORMAL DISPLAY
000750:                                                                                                  #  ENDIDLE               IN ENDIDLE
000751:
000752: 37,2001     5003               NRMIDBIT           =        BIT13
000753:
000754:                                                                                                  #  BIT 12 FLAG 4
000755: 37,2001                        PDSPFLAG           =        063D                                  #  CAN'T INTERRUPT       SEE M. HAMILTON
000756:                                                                                                  #  PRIORITY DISPLAY
000757:
000758: 37,2001     5004               PDSPFBIT           =        BIT12
000759:
000760:                                                                                                  #  BIT 11 FLAG 4
000761: 37,2001                        MWAITFLG           =        064D                                  #  HIGHER PRIORITY       NO HIGHER PRIORITY


000763:                                                                                                  #  DISPLAY OPERATING     DISPLAY OPERATING
000764:                                                                                                  #  WHEN MARK DISPLAY     WHEN MARK DISPLAY
000765:                                                                                                  #  INITIATED             INITIATED
000766: 37,2001     5005               MWAITBIT           =        BIT11
000767:
000768:                                                                                                  #  BIT 10 FLAG 4
000769: 37,2001                        NWAITFLG           =        065D                                  #  HIGHER PRIORITY       NO HIGHER PRIORITY
000770:                                                                                                  #  DISPLAY OPERATING     DISPLAY OPERATING
000771:                                                                                                  #  WHEN NORMAL           WHEN NORMAL DISPLAY
000772:                                                                                                  #  DISPLAY INITIATED     INITIATED
000773:
000774: 37,2001     5006               NWAITBIT           =        BIT10
000775:
000776:                                                                                                  #  BIT 9 FLAG 4
000777: 37,2001                        MRKNVFLG           =        066D                                  #  ASTRONAUT USING       ASTRONAUT NOT USING
000778:                                                                                                  #  KEYBOARD WHEN MARK    KEYBOARD WHEN MARK
000779:                                                                                                  #  DISPLAY INITIATED     DISPLAY INITIATED
000780:
000781: 37,2001     5007               MRKNVBIT           =        BIT9
000782:
000783:                                                                                                  #  BIT 8 FLAG 4
000784: 37,2001                        NRMNVFLG           =        067D                                  #  ASTRONAUT USING       ASTRONAUT NOT USING
000785:                                                                                                  #  KEYBOARD WHEN         KEYBOARD WHEN
000786:                                                                                                  #  NORMAL DISPLAY        NORMAL DISPLAY
000787:                                                                                                  #  INITIATED             INITIATED
000788:
000789: 37,2001     5010               NRMNVBIT           =        BIT8
000790:
000791:                                                                                                  #  BIT 7 FLAG 4
000792: 37,2001                        PRONVFLG           =        068D                                  #  ASTRONAUT USING       ASTRONAUT NOT USING
000793:                                                                                                  #  KEYBOARD WHEN         KEYBOARD WHEN
000794:                                                                                                  #  PRIORITY DISPLAY      PRIORITY DISPLAY
000795:                                                                                                  #  INITIATED             INITIATED
000796:
000797: 37,2001     5011               PRONVBIT           =        BIT7
000798:
000799:                                                                                                  #  BIT 6 FLAG 4
000800: 37,2001                        PINBRFLG           =        069D                                  #  ASTRONAUT HAS         ASTRONAUT HAS NOT
000801:                                                                                                  #  INTERFERED WITH       INTERFERED WITH
000802:                                                                                                  #  EXISTING DISPLAY      EXISTING DISPLAY
000803:
000804: 37,2001     5012               PINBRBIT           =        BIT6
000805:
000806:                                                                                                  #  BIT 5 FLAG 4
000807: 37,2001                        MRUPTFLG           =        070D                                  #  MARK DISPLAY          MARK DISPLAY NOT
000808:                                                                                                  #  INTERRUPTED BY        INTERRUPTED BY
000809:                                                                                                  #  PRIORITY DISPLAY      PRIORITY DISPLAY
000810:
000811: 37,2001     5013               MRUPTBIT           =        BIT5


000813:
000814:                                                                                                  #  BIT 4 FLAG 4
000815: 37,2001                        NRUPTFLG           =        071D                                  #  NORMAL DISPLAY        NORMAL DISPLAY NOT
000816:                                                                                                  #  INTERRUPTED BY        INTERRUPTED BY
000817:                                                                                                  #  PRIORITY OR MARK      PRIORITY OR MARK
000818:                                                                                                  #  DISPLAY               DISPLAY
000819:
000820: 37,2001     5014               NRUPTBIT           =        BIT4
000821:
000822:                                                                                                  #  BIT 3 FLAG 4
000823: 37,2001                        MKOVFLAG           =        072D                                  #  MARK DISPLAY OVER     NO MARK DISPLAY OVER
000824:                                                                                                  #  NORMAL                NORMAL
000825:
000826: 37,2001     5015               MKOVBIT            =        BIT3
000827:
000828:                                                                                                  #  BIT 2 FLAG 4                          DISPLAY BIT
000829:                                                                                                  #                =       073D            CLEARED AT INTERVALS
000830:
000831:                                                                                                  #  BIT 1 FLAG 4  MARK DISPLAY NOT TO     NO SPECIAL MARK
000832: 37,2001                        XDSPFLAG           =        074D                                  #                BE INTERRUPTED          INFORMATION.
000833:
000834:
000835: 37,2001     5017               XDSPBIT            =        BIT1
000836:
000837: 37,2001     0101               FLAGWRD5           =        STATE      +5                         #  (075-099)
000838:                                                                                                  #  (SET)                 (RESET)
000839:
000840:                                                                                                  #  BIT 15 FLAG 5
000841: 37,2001                        DSKYFLAG           =        075D                                  #  DISPLAYS SENT TO      NO DISPLAYS TO DSKY
000842:                                                                                                  #  DSKY
000843: 37,2001     5001               DSKYBIT            =        BIT15
000844:
000845:                                                                                                  #  BIT 14 FLAG 5
000846: 37,2001                        RETROFLG           =        076D                                  #  P37 PREMANEUVER       ORBIT NOT RETROGRADE
000847: 37,2001     5002               RETROBIT           =        BIT14                                 #  ORBIT IS RETROGRADE
000848:
000849:                                                                                                  #  BIT 13 FLAG 5
000850: 37,2001                        SLOWFLG            =        077D                                  #  P37 TRANSEARTH        SLOW DOWN IS NOT
000851: 37,2001     5003               SLOWBIT            =        BIT13                                 #  COAST SLOW DOWN       DESIRED
000852:                                                                                                  #  IS DESIRED
000853:
000854:                                                                                                  #  BIT 12 FLAG 5
000855: 37,2001                        V59FLAG            =        078D                                  #  CALIBRATING FOR       NORMAL MARKING FOR
000856:                                                                                                  #  P23                   P23
000857:
000858: 37,2001     5004               V59FLBIT           =        BIT12
000859:
000860:                                                                                                  #  BIT 11 FLAG 5


000862: 37,2001                        INCORFLG           =        079D                                  #  FIRST INCORPORATION   SECOND INCORPORATION
000863:
000864: 37,2001     5005               INCORBIT           =        BIT11
000865:
000866:                                                                                                  #  BIT 10 FLAG 5
000867: 37,2001                        RNGSCFLG           =        080D                                  #  ANOTHER TAG FOR PRFTKAT
000868:
000869:                                                                                                  #  BIT 10 FLAG 5
000870: 37,2001  0000120               PRFTRKAT           =        RNGSCFLG                              #  PREF TRACK ATT        +X AXIS TRACK ATT
000871:
000872: 37,2001     5006               PRFTRBIT           =        BIT10
000873:
000874:                                                                                                  #  BIT 9 FLAG 5
000875: 37,2001                        DMENFLG            =        081D                                  #  DIMENSION OF W IS 9   DIMENSION OF W IS 6
000876:                                                                                                  #  FOR INCORPORATION     FOR INCORPORATION
000877:
000878: 37,2001     5007               DMENFBIT           =        BIT9
000879:
000880:                                                                                                  #  BIT 8 FLAG 5
000881: 37,2001                        COMPUTER           =        082D                                  #  COMPUTER IS CMC       COMPUTER IS LGC
000882:
000883: 37,2001     5010               COMPTBIT           =        BIT8
000884:
000885:                                                                                                  #  BIT 7 FLAG 5
000886: 37,2001                        ENGONFLG           =        083D                                  #  ENGINE TURNED ON      ENGINE TURNED OFF
000887:
000888: 37,2001     5011               ENGONBIT           =        BIT7
000889:
000890:                                                                                                  #  BIT 6 FLAG 5
000891: 37,2001                        3AXISFLG           =        084D                                  #  MANEUVER SPECIFIED    MANEUVER SPECIFIED
000892:                                                                                                  #  BY THREE AXES         BY ONE AXIS
000893:
000894: 37,2001     5012               3AXISBIT           =        BIT6
000895:
000896:                                                                                                  #  BIT 5 FLAG 5
000897: 37,2001                        GRRBKFLG           =        085D                                  #  BACKUP GRR RECEIVED   BACKUP GRR NOT
000898:                                                                                                  #                        RECEIVED
000899:
000900: 37,2001     5013               GRRBKBIT           =        BIT5
000901:
000902:                                                                                                  #  BIT 4 FLAG 5
000903: 37,2001                        R60FLAG            =        086D                                  #  R61 MUST USE R60      NORMAL R61
000904:
000905: 37,2001     5014               R60FLBIT           =        BIT4
000906:
000907:                                                                                                  #  BIT 3 FLAG 5
000908: 37,2001                        SOLNSW             =        087D                                  #  LAMBERT DOES NOT      LAMBERT CONVERGES OR


000910:                                                                                                  #  CONVERGE, OR TIME-    TIME-RADIUS NON
000911:                                                                                                  #  RADIUS NEARLY CIRC.   CIRCULAR.
000912: 37,2001     5015               SOLNSBIT           =        BIT3
000913:
000914:                                                                                                  #  BIT 2 FLAG 5
000915: 37,2001                        MGLVFLAG           =        088D                                  #  LOCAL VERTICAL        MIDDLE GIMBAL ANGLE
000916:                                                                                                  #  COORDINATES           COMPUTED
000917:                                                                                                  #  COMPUTED
000918:
000919: 37,2001     5016               MGLVFBIT           =        BIT2
000920:
000921:                                                                                                  #  BIT 1 FLAG 5
000922: 37,2001                        RENDWFLG           =        089D                                  #  W MATRIX VALID        W MATRIX INVALID
000923:                                                                                                  #  FOR RENDEZVOUS        FOR RENDEZVOUS
000924:                                                                                                  #  NAVIGATION            NAVIGATION
000925:
000926: 37,2001     5017               RENDWBIT           =        BIT1
000927:
000928: 37,2001     0102               FLAGWRD6           =        STATE      +6                         #  (090-104)
000929:                                                                                                  #  (SET)                 (RESET)
000930:
000931:                                                                                                  #  BIT 15 FLAG 6
000932: 37,2001                        DAPBIT1            =        090D                                  #  1 SATURN 1 TVC        0 RCS   0 NO
000933:
000934: 37,2001     5001               DAP1BIT            =        BIT15
000935:
000936:                                                                                                  #  BIT 14 FLAG 6
000937: 37,2001                        DAPBIT2            =        091D                                  #  1 A/P    0 A/P        1 A/P   0 A/P
000938:
000939: 37,2001     5002               DAP2BIT            =        BIT14
000940:
000941:                                                                                                  #  BIT 13 FLAG 6
000942: 37,2001                        STRULLSW           =        092D                                  #  DO STEERULL           DO ULAGEOFF ONLY
000943:
000944: 37,2001     5003               STRULBIT           =        BIT13
000945:
000946:                                                                                                  #  BIT 13 FLAG 6
000947: 37,2001  0000134               ENTRYDSP           =        STRULLSW                              #  DO ENTRY DISPLAY      OMIT ENTRY DISPLAY
000948:                                                                                                  #  VIA ENTRYVN.
000949:
000950: 37,2001     5003               ENDSPBIT           =        BIT13
000951:
000952:                                                                                                  #  BIT 12 FLAG 6
000953: 37,2001                        CMDAPARM           =        093D                                  #  ALOW ENTRY FIRINGS    INHIBIT ENTRY FIRING
000954:                                                                                                  #  AND CALCULATIONS      AND CONTROL FUNCTION


000956: 37,2001     5004               CMDARMBIT           =        BIT12
000957:
000958:                                                                                                  #  BIT 11 FLAG 6
000959: 37,2001                        GAMDIFSW           =        094D                                  #  CALCULATE GAMDOT      GAMDOT NOT TO BE
000960:                                                                                                  #                        CALCULATED
000961:
000962: 37,2001     5005               GMDIFBIT           =        BIT11
000963:
000964:                                                                                                  #  BIT 10 FLAG 6
000965: 37,2001                        GONEPAST           =        095D                                  #  LATERAL CONTROL       LATERAL CONTROL
000966:                                                                                                  #  CALCULATIONS TO BE    CALCULATIONS TO BE
000967:                                                                                                  #  OMITTED               DONE
000968:
000969: 37,2001     5006               GONEBIT            =        BIT10
000970:
000971:                                                                                                  #  BIT 9 FLAG 6
000972: 37,2001                        RELVELSW           =        096D                                  #  TARGETING USES        TARGETING USES
000973:                                                                                                  #  EARTH-RELATIVE        INERTIAL VELOCITY
000974:                                                                                                  #  VELOCITY
000975:
000976: 37,2001     5007               RELVBIT            =        BIT9
000977:
000978:                                                                                                  #  BIT 8 FLAG 6
000979: 37,2001                        EGSW               =        097D                                  #  IN FINAL PHASE        NOT IN FINAL PHASE
000980:
000981: 37,2001     5010               EGFLGBIT           =        BIT8
000982:
000983:                                                                                                  #  BIT 8 FLAG 6
000984: 37,2001  0000141               KNOWNFLG           =        EGSW                                  #  LANDMARK KNOWN        LANDMARK UNKNOWN
000985:
000986: 37,2001     5010               KNOWNBIT           =        BIT8
000987:
000988:                                                                                                  #  BIT 8 FLAG 6
000989: 37,2001  0000141               R57FLAG            =        KNOWNFLG                              #  DO NOT DO R57         DO R57, TRUNION
000990:                                                                                                  #  TRUNION BIAS HAS      BIAS NEEDED
000991:                                                                                                  #  BEEN OBTAINED.
000992:
000993: 37,2001     5010               R57BIT             =        BIT8
000994:
000995:                                                                                                  #  BIT 7 FLAG 6
000996: 37,2001                        NOSWITCH           =        098D                                  #  LATERAL ROLL          LATERAL ROLL MANUVER
000997:                                                                                                  #  MANUVER INHIBITED     PERMITED IN ENTRY
000998:                                                                                                  #  IN ENTRY
000999:
001000: 37,2001     5011               NOSWBIT            =        BIT7
001001:
001002:                                                                                                  #  BIT 6 FLAG 6
001003: 37,2001                        HIND               =        099D                                  #  ITERATING HUNTEST     ITERATING OF HUNTEST
001004:                                                                                                  #  CALCULATIONS TO BE    CALCULATIONS TO BE
001005:                                                                                                  #  DONE AFTER RANGE      OMITTED AFTER RANGE
001006:                                                                                                  #  PREDICTION            PREDICTION


001008:
001009: 37,2001     5012               HINDBIT            =        BIT6
001010:
001011:                                                                                                  #  BIT 5 FLAG 6
001012: 37,2001                        INRLSW             =        100D                                  #  INITIAL ROLL          INITIAL ROLL
001013:                                                                                                  #  V(LV)                 V(LV)
001014:
001015: 37,2001     5013               INRLBIT            =        BIT5
001016:
001017:                                                                                                  #  ATTITUDE NOT HELD     ATTITUDE HELD
001018:
001019:                                                                                                  #  BIT 4 FLAG 6
001020: 37,2001                        LATSW              =        101D                                  #  DOWNLIFT NOT          DOWNLIFT INHIBITED
001021:                                                                                                  #  INHIBITED
001022:
001023: 37,2001     5014               LATSWBIT           =        BIT4
001024:
001025:                                                                                                  #  BIT 3 FLAG 6
001026: 37,2001                        .05GSW             =        102D                                  #  DRAG OVER .05G        DRAG LESS THAN .05G
001027:
001028: 37,2001     5015               .05GBIT            =        BIT3
001029:
001030:                                                                                                  #  BIT 3 FLAG 6
001031:                                                                                                  #                =       102D
001032:
001033:                                                                                                  #  BIT 2 FLAG 6
001034: 37,2001                        CM/DSTBY           =        103D                                  #  ENTRY DAP ACTIVATED   ENTRY DAP NOT
001035:                                                                                                  #                        ACTIVATED
001036:
001037: 37,2001     5016               CM/DSBIT           =        BIT2
001038:
001039:                                                                                                  #  BIT 1 FLAG 6
001040: 37,2001                        GYMDIFSW           =        104D                                  #  CDU DIFFERENCES AND   CDU DIFFERENCES AND
001041:                                                                                                  #  BODY RATES COMPUTED   BODY RATES NOT
001042:                                                                                                  #                        COMPUTED
001043:
001044: 37,2001     5017               GYMDIBIT           =        BIT1
001045:
001046: 37,2001     0103               FLAGWRD7           =        STATE      +7                         #  (105-119)
001047:                                                                                                  #  (SET)                 (RESET)
001048:
001049:                                                                                                  #  BIT 15 FLAG 7
001050: 37,2001                        TERMIFLG           =        105D                                  #  TERMINATE R52         DO NOT TERMINATE R52
001051:
001052: 37,2001     5001               TERMIBIT           =        BIT15
001053:
001054:                                                                                                  #  BIT 14 FLAG 7
001055: 37,2001                        ITSWICH            =        106D                                  #  ACCEPT NEXT LAMBERT   TEST LAMBERT ANSWER
001056:                                                                                                  #  TPI SEARCH SOLUTION   AGAINST LIMITS


001058:
001059: 37,2001     5002               ITSWBIT            =        BIT14
001060:
001061:                                                                                                  #  BIT 13 FLAG 7
001062: 37,2001                        IGNFLAG            =        107D                                  #  TIG HAS ARRIVED       TIG HAS NOT ARRIVED
001063:
001064: 37,2001     5003               IGNFLBIT           =        BIT13
001065:
001066:                                                                                                  #  BIT 12 FLAG 7
001067: 37,2001                        ASTNFLAG           =        108D                                  #  ASTRONAUT HAS         ASTRONAUT HAS NOT
001068:                                                                                                  #  OKAYED IGNITION       OKAYED IGNITION
001069:
001070: 37,2001     5004               ASTNBIT            =        BIT12
001071:
001072:                                                                                                  #  BIT 11 FLAG 7
001073: 37,2001                        TIMRFLAG           =        109D                                  #  CLOKTASK OPERATING    CLOKTASK INOPERATIVE
001074:
001075: 37,2001     5005               TIMRBIT            =        BIT11
001076:
001077:                                                                                                  #  BIT 10 FLAG 7
001078: 37,2001                        NORMSW             =        110D                                  #  UNIT NORMAL INPUT     LAMBERT COMPUTE ITS
001079:                                                                                                  #  TO LAMBERT.           OWN UNIT NORMAL.
001080:
001081: 37,2001     5006               NORMSBIT           =        BIT10
001082:
001083:                                                                                                  #  BIT 9 FLAG 7
001084: 37,2001                        RVSW               =        111D                                  #  DO NOT COMPUTE FINAL  COMPUTE FINAL STATE
001085:                                                                                                  #  STATE VECTOR IN       VECTOR IN TIME-THETA
001086:                                                                                                  #  TIME-THETA.
001087:
001088: 37,2001     5007               RVSWBIT            =        BIT9
001089:
001090:                                                                                                  #  BIT 8 FLAG 7
001091: 37,2001                        GONEBY             =        112D                                  #  PASSED TARGET         APPROACHING TARGET
001092:
001093: 37,2001     5010               GONBYBIT           =        BIT8
001094:
001095:                                                                                                  #  BIT 7 FLAG 7
001096:                                                                                                  #                =       113D
001097:                                                                                                  #                =       BIT7
001098:
001099:                                                                                                  #  BIT 6 FLAG 7
001100: 37,2001                        V37FLAG            =        114D                                  #  AVERAGEG (SERVICER)   AVERAGEG (SERVICER)
001101:                                                                                                  #  RUNNING               OFF
001102:
001103: 37,2001     5012               V37FLBIT           =        BIT6
001104:
001105:                                                                                                  #  BIT 5 FLAG 7
001106:                                                                                                  #                =       115D


001108:                                                                                                  #                =       BIT5
001109:
001110:                                                                                                  #  BIT 4 FLAG 7
001111: 37,2001                        UPLOCKFL           =        116D                                  #  K-KBAR-K FAIL         NO K-KBAR-K FAIL
001112:
001113: 37,2001     5014               UPLOCBIT           =        BIT4
001114:
001115:                                                                                                  #  BIT 3 FLAG 7
001116: 37,2001                        VERIFLAG           =        117D                                  #  CHANGED WHEN V33E OCCURS AT END OF P27
001117:
001118: 37,2001     5015               VERIFBIT           =        BIT3
001119:
001120:                                                                                                  #  BIT 2 FLAG 7
001121: 37,2001                        ATTCHFLG           =        118D                                  #  LM,CM ATTACHED        LM,CM NOT ATTACHED
001122:
001123: 37,2001     5016               ATTCHBIT           =        BIT2
001124:
001125:                                                                                                  #  BIT 1 FLAG 7
001126: 37,2001                        TFFSW              =        119D                                  #  CALCULATE TPERIGEE    CALCULATE TFF
001127:
001128: 37,2001     5017               TFFSWBIT           =        BIT1
001129:
001130: 37,2001     0104               FLAGWRD8           =        STATE      +8D                        #  (120-134)
001131:                                                                                                  #  (SET)                 (RESET)
001132:
001133:                                                                                                  #  BIT 15 FLAG 8
001134: 37,2001                        RPQFLAG            =        120D                                  #  RPQ NOT COMPUTED      RPQ COMPUTED
001135:
001136: 37,2001     5001               RPQFLBIT           =        BIT15
001137:
001138:                                                                                                  #  BIT 14 FLAG 8
001139:                                                                                                  #                =       121D
001140:
001141:                                                                                                  #  BIT 13 FLAG 8
001142: 37,2001                        NEWIFLG            =        122D                                  #  FIRST PASS THROUGH    SUCCEEDING ITERATION
001143:                                                                                                  #  INTEGRATION           OF INTEGRATION
001144:
001145: 37,2001     5003               NEWIBIT            =        BIT13
001146:
001147:                                                                                                  #  BIT 12 FLAG 8
001148: 37,2001                        CMOONFLG           =        123D                                  #  PERMANENT CSM STATE   PERMANENT CSM STATE
001149:                                                                                                  #  IN LUNAR SPHERE       IN EARTH SPHERE
001150:
001151: 37,2001     5004               CMOONBIT           =        BIT12
001152:
001153:                                                                                                  #  BIT 11 FLAG 8
001154: 37,2001                        LMOONFLG           =        124D                                  #  PERMANENT LM STATE    PERMANENT LM STATE
001155:                                                                                                  #  IN LUNAR SPHERE       IN EARTH SHPERE
001156:
001157: 37,2001     5005               LMOONBIT           =        BIT11
001158:


001160:
001161:                                                                                                  #  BIT 10 FLAG 8
001162: 37,2001                        ADVTRK             =        125D                                  #  ADVANCE GROUND TRACK  NOT ADVANCED
001163:                                                                                                  #  SIGHTING WANTED       GROUND TRACK
001164:
001165: 37,2001     5006               ADVTKBIT           =        BIT10
001166:
001167:                                                                                                  #  BIT 9 FLAG 8
001168: 37,2001                        P39/79SW           =        126D                                  #  P39/79 OPERATING      P38/78 OPERATING
001169:
001170: 37,2001     5007               P39SWBIT           =        BIT9
001171:
001172:                                                                                                  #  BIT 8 FLAG 8
001173: 37,2001                        SURFFLAG           =        127D                                  #  LM ON LUNAR SURFACE   LM NOT ON LUNAR
001174:                                                                                                  #                        SURFACE
001175:
001176: 37,2001     5010               SURFFBIT           =        BIT8
001177:
001178:                                                                                                  #  BIT 7 FLAG 8
001179: 37,2001                        INFINFLG           =        128D                                  #  NO CONIC SOLUTION     CONIC SOLUTION
001180:                                                                                                  #  (CLOSURE THROUGH      EXISTS.
001181:                                                                                                  #  INFINITY REQUIRED).
001182:
001183: 37,2001     5011               INFINBIT           =        BIT7
001184:
001185:                                                                                                  #  BIT 6 FLAG 8
001186: 37,2001                        ORDERSW            =        129D                                  #  ITERATOR USES 2ND     ITERATOR USES 1ST
001187:                                                                                                  #  ORDER MINIMUM MODE.   ORDER STANDARD MODE.
001188:
001189: 37,2001     5012               ORDERBIT           =        BIT6
001190:
001191:                                                                                                  #  BIT 5 FLAG 8
001192: 37,2001                        APSESW             =        130D                                  #  RDESIRED OUTSIDE      RDESIRED INSIDE
001193:                                                                                                  #  PERICENTER-APOCENTER  PERICENTER-APOCENTE
001194:                                                                                                  #  RANGE IN TIME-RAD     RANGE IN TIME-RADIUS
001195:
001196: 37,2001     5013               APSESBIT           =        BIT5
001197:
001198:                                                                                                  #  BIT 4 FLAG 8
001199: 37,2001                        COGAFLAG           =        131D                                  #  NO CONIC SOLUTION     CONIC SOLUTION
001200:                                                                                                  #  TOO CLOSE TO          EXISTS (COGA DOES
001201:                                                                                                  #  RECTILINEAR (COGA     NOT OVERFLOW).
001202:                                                                                                  #  OVERFLOWS).
001203: 37,2001     5014               COGAFBIT           =        BIT4
001204:
001205:                                                                                                  #  BIT 3 FLAG 8


001207: 37,2001                        V96ONFLG           =        132D                                  #  P00 INTEGRATION HAS   P00 INTEGRATION IS
001208:                                                                                                  #  BEEN INHIBITED BY     PROCEEDING REGULARLY
001209:                                                                                                  #  V96
001210:
001211:                                                                                                  #  BIT 2 FLAG 8
001212:                                                                                                  #                =       133D
001213:
001214:                                                                                                  #  BIT 1 FLAG 8
001215: 37,2001                        360SW              =        134D                                  #  TRANSFER ANGLE NEAR   TRANSFER ANGLE NOT
001216:                                                                                                  #  360 DEGREES           NEAR 360 DEGREES
001217:
001218: 37,2001     5017               360SWBIT           =        BIT1
001219:
001220: 37,2001     0105               FLAGWRD9           =        STATE      +9D                        #  (135-149)
001221:                                                                                                  #  (SET)                 (RESET)
001222:
001223:                                                                                                  #  BIT 15 FLAG 9
001224: 37,2001                        SWTOVER            =        135D                                  #  SWITCHOVER HAS        NO SWITCHOVER YET
001225:                                                                                                  #  OCCURRED
001226:
001227: 37,2001     5001               SWTOVBIT           =        BIT15
001228:
001229:                                                                                                  #  BIT 14 FLAG 9
001230:                                                                                                  #                =       136D
001231:
001232: 37,2001     5002               V67FLBIT           =        BIT14
001233:
001234:                                                                                                  #  BIT 13 FLAG 9
001235: 37,2001                        V82EMFLG           =        137D                                  #  MOON VICINITY         EARTH VICINITY
001236:
001237: 37,2001     5003               V82EMBIT           =        BIT13
001238:
001239:                                                                                                  #  BIT 12 FLAG 9
001240: 37,2001                        MAXDBFLG           =        138D                                  #  MAX DB SELECTED       MIN DB SELECTED
001241:
001242: 37,2001     5004               MAXDBBIT           =        BIT12
001243:
001244:                                                                                                  #  BIT 11 FLAG 9
001245: 37,2001                        V94FLAG            =        139D                                  #  V94 ALLOWED DURING    V94 NOT ALLOWED
001246:                                                                                                  #  P23
001247:
001248: 37,2001     5005               V94FLBIT           =        BIT11
001249:
001250:                                                                                                  #  BIT 10 FLAG 9
001251: 37,2001                        SAVECFLG           =        140D                                  #  P23 DISPLAY AND       P23 DISPLAY AND
001252:                                                                                                  #  DATA STORAGE AFTER    DATA STORAGE BEFORE


001254:                                                                                                  #  MARK IS DONE          MARK IS DONE
001255:
001256: 37,2001     5006               SAVECBIT           =        BIT10
001257:
001258:                                                                                                  #  BIT 9 FLAG 9
001259: 37,2001                        VHFRFLAG           =        141D                                  #  ALLOW R22 TO          STOP ACCEPTANCE
001260:                                                                                                  #  ACCEPT RANGE          OF RANGE DATA
001261:                                                                                                  #  DATA
001262:
001263: 37,2001     5007               VHFRBIT            =        BIT9
001264:
001265:                                                                                                  #  BIT 8 FLAG 9
001266: 37,2001                        SOURCFLG           =        142D                                  #  SOURCE OF INPUT       SOURCE OF INPUT
001267:                                                                                                  #  DATA IS FROM          DATA IS FROM
001268:                                                                                                  #  VHF RADAR             OPTICS MARK
001269:
001270: 37,2001     5010               SOURCBIT           =        BIT8
001271:
001272:                                                                                                  #  BIT 7 FLAG 9
001273: 37,2001                        R22CAFLG           =        143D                                  #  R-22 CALCULATIONS     R-22 CALCULATIONS
001274:                                                                                                  #  ARE GOING ON          ARE NOT GOING ON
001275:
001276: 37,2001     5011               R22CABIT           =        BIT7
001277:
001278:                                                                                                  #  BIT 6 FLAG 9
001279: 37,2001                        N22ORN17           =        144D                                  #  COMPUTE TOTAL         COMPUTE TOTAL
001280:                                                                                                  #  ATTITUDE ERRORS       ATTITUDE ERRORS
001281:                                                                                                  #  WRT N22 (V62)         WRT N17 (V63)
001282:
001283: 37,2001     5012               N2217BIT           =        BIT6
001284:
001285:                                                                                                  #  BIT 5 FLAG 9
001286: 37,2001                        QUITFLAG           =        145D                                  #  TERMINATE AND EXIT    CONTINUE INTEGRATION
001287: 37,2001     5013               QUITBIT            =        BIT5                                  #  FROM INTEGRATION
001288:
001289:                                                                                                  #  BIT 4 FLAG 9
001290: 37,2001                        R31FLAG            =        146D                                  #  R31 SELECTED (V83)    R34 SELECTED (V85)
001291:
001292: 37,2001     5014               R31FLBIT           =        BIT4
001293:
001294:                                                                                                  #  BIT 3 FLAG 9
001295: 37,2001                        MID1FLAG           =        147D                                  #  INTEGRATE TO TDEC     INTEGRATE TO THE
001296:                                                                                                  #                        THEN-PRESENT TIME
001297:
001298: 37,2001     5015               MID1FBIT           =        BIT3
001299:
001300:                                                                                                  #  BIT 2 FLAG 9
001301: 37,2001                        MIDAVFLG           =        148D                                  #  INTEGRATION ENTERED   INTEGRATION WAS
001302:                                                                                                  #  FROM ONE OF MIDTOAV   NOT ENTERED VIA
001303:                                                                                                  #   PORTALS              MIDTOAV


001305:
001306: 37,2001     5016               MIDAVBIT           =        BIT2
001307:
001308:                                                                                                  #  BIT 1 FLAG 9
001309: 37,2001                        AVEMIDSW           =        149D                                  #  AVETOMID CALLING      NO AVETOMID W INTEGR
001310:                                                                                                  #  FOR W.MATRIX INTEGR   ALLOW SET UP RN,VN,
001311:                                                                                                  #  DONT WRITE OVER RN,   PIPTIME
001312:                                                                                                  #  VN,PIPTIME
001313:
001314: 37,2001     5017               AVEMDBIT           =        BIT1
001315:
001316:                                                                                                  #  (SET)                 (RESET)
001317:
001318: 37,2001     0106               FLGWRD10           =        STATE      +10D                       #  (150-164)
001319:
001320: 37,2001     0106               RASFLAG            =        STATE      +10D
001321:
001322:                                                                                                  #  BIT 15 FLAG 10
001323:                                                                                                  #                =       150D
001324:
001325:                                                                                                  #  BIT 14 FLAG 10
001326: 37,2001                        INTFLAG            =        151D                                  #  INTEGRATION IN        INTEGRATION NOT IN
001327:                                                                                                  #  PROGRESS              PROGRESS
001328:
001329: 37,2001     5002               INTFLBIT           =        BIT14
001330:
001331:                                                                                                  #  BIT 13 FLAG 10
001332:                                                                                                  #                =       152D
001333:
001334:                                                                                                  #  BIT 12 FLAG 10
001335:                                                                                                  #                =       153D
001336:
001337:                                                                                                  #  BIT 11 FLAG 10
001338:                                                                                                  #                =       154D
001339:
001340:                                                                                                  #  BIT 10 FLAG 10
001341:                                                                                                  #                =       155D
001342:
001343:                                                                                                  #  BIT 9 FLAG 10
001344:                                                                                                  #                =       156D
001345:
001346:                                                                                                  #  BIT 8 FLAG 10
001347:                                                                                                  #                =       157D


001349:
001350:                                                                                                  #  BIT 7 FLAG 10
001351: 37,2001                        REINTFLG           =        158D                                  #  INTEGRATION ROUTINE   INTEGRATION ROUTINE
001352:                                                                                                  #  TO BE RESTARTED       NOT TO BE RESTARTED
001353: 37,2001     5011               REINTBIT           =        BIT7
001354:
001355:                                                                                                  #  BIT 6 FLAG 10
001356:                                                                                                  #                =       159D
001357:
001358:                                                                                                  #  BIT 5 FLAG 10
001359:                                                                                                  #                =       160D
001360:
001361:                                                                                                  #  BIT 4 FLAG 10
001362:                                                                                                  #                =       161D
001363:
001364:                                                                                                  #  BIT 3 FLAG 10
001365:                                                                                                  #                =       162D
001366:
001367:                                                                                                  #  BIT 2 FLAG 10
001368:                                                                                                  #                =       163D
001369:
001370:                                                                                                  #  BIT 1 FLAG 10
001371:                                                                                                  #                =       164D
001372:
001373: 37,2001     0107               FLGWRD11           =        STATE      +11D                       #  (165-179)
001374:                                                                                                  #  (SET)                 (RESET)
001375:
001376:                                                                                                  #  BIT 15 FLAG 11
001377: 37,2001                        S32.1F1            =        165D                                  #  DELTAN AT CSI TIME    DVT1 LESS THAN MAX
001378: 37,2001     5001               S32BIT1            =        BIT15                                 #  ONE EXCEEDS MAX
001379:
001380:                                                                                                  #  BIT 14 FLAG 11
001381: 37,2001                        S32.1F2            =        166D                                  #  FIRST PASS OF         REITERATION OF
001382: 37,2001     5002               S32BIT2            =        BIT14                                 #  NEWTON INTERATION     NEWTON
001383:
001384:                                                                                                  #  BIT 13 FLAG 11
001385: 37,2001                        S32.1F3A           =        167D                                  #  BIT 13 AND BIT 12 FUNCTION AS AN ORDERED
001386: 37,2001     5003               S32BIT3A           =        BIT13                                 #  PAIR (13,12) INDICATING THE POSSIBLE OC-
001387:                                                                                                  #  CURRENCE OF 2NEWTON ITERATIONS FOR S32.1
001388:                                                                                                  #  BIT 12 FLAG 11                        IN THE PROGRAM IN THE FOLLOWING ORDER:
001389: 37,2001                        S32.1F3B           =        168D                                  #  (0,1) (I.E. BIT 13 RESET, BIT 12 SET)


001391: 37,2001     5004               S3229T3B           =        BIT12                                 #       = FIRST NEWTON ITERATION BEING DONE
001392:                                                                                                  #  (0,0)= FIRST PASS OF 2ND NEWTON ITER.
001393:                                                                                                  #  (1,1)= 50 FPS STAGE OF 2ND NEWT ITER.
001394:                                                                                                  #  (1,0)= REMAINDER OF 2ND NEWTON ITER.
001395:
001396:                                                                                                  #  BIT 11 FLAG 11
001397:                                                                                                  #                =       169D
001398:
001399:                                                                                                  #  BIT 10 FLAG 11
001400:                                                                                                  #                =       170D
001401:
001402:                                                                                                  #  BIT 9 FLAG 11
001403:                                                                                                  #                =       171D
001404:
001405:                                                                                                  #  BIT 8 FLAG 11
001406:                                                                                                  #                =       172D
001407:
001408:                                                                                                  #  BIT 7 FLAG 11
001409:                                                                                                  #                =       173D
001410:
001411:                                                                                                  #  BIT 6 FLAG 11
001412:                                                                                                  #                =       174D
001413:
001414:                                                                                                  #  BIT 5 FLAG 11
001415:                                                                                                  #                =       175D
001416:
001417:                                                                                                  #  BIT 4 FLAG 11
001418:                                                                                                  #                =       176D
001419:
001420:                                                                                                  #  BIT 3 FLAG 11
001421:                                                                                                  #                =       177D
001422:
001423:                                                                                                  #  BIT 2 FLAG 11
001424:                                                                                                  #                =       178D
001425:
001426:                                                                                                  #  BIT 1 FLAG 11
001427:                                                                                                  #                =       179D
001428:


001430:                                                                                                  #  GENERAL ERASABLE ASSIGNMENTS.
001431:
001432:    0061                                           SETLOC   61
001433:                                                                                                  #  INTERRUPT TEMPORARY STORAGE POOL.     (11D)
001434:
001435:                                                                                                  #  (ITEMP1 THROUGH RUPTREG4)
001436:
001437:                                                                                                  #  ANY OF THESE MAY BE USED AS TEMPORARIES DURING INTERRUPT OR WITH INTERRUPT INHIBITED. THE ITEMP SERIES
001438:                                                                                                  #  IS USED DURING CALLS TO THE EXECUTIVE AND WAITLIST - THE RUPTREGS ARE NOT.
001439:
001440:    0061                        ITEMP1             ERASE
001441:    0062     0061               WAITEXIT           EQUALS   ITEMP1
001442:    0062     0061               EXECTEM1           EQUALS   ITEMP1
001443:
001444:    0062                        ITEMP2             ERASE
001445:    0063     0062               WAITBANK           EQUALS   ITEMP2
001446:    0063     0062               EXECTEM2           EQUALS   ITEMP2
001447:
001448:    0063                        ITEMP3             ERASE
001449:    0064     0063               RUPTSTOR           EQUALS   ITEMP3
001450:    0064     0063               WAITADR            EQUALS   ITEMP3
001451:    0064     0063               NEWPRIO            EQUALS   ITEMP3
001452:
001453:    0064                        ITEMP4             ERASE
001454:    0065     0064               LOCCTR             EQUALS   ITEMP4
001455:    0065     0064               WAITTEMP           EQUALS   ITEMP4
001456:
001457:    0065                        ITEMP5             ERASE
001458:    0066     0065               NEWLOC             EQUALS   ITEMP5
001459:
001460:    0066                        ITEMP6             ERASE
001461:                                                                                                  #  NEWLOC+1      EQUALS  ITEMP6          DP ADDRESS.
001462:
001463:    0067                                           SETLOC   67
001464:    0067                        NEWJOB             ERASE                                          #  MUST BE AT LOC 67 DUE TO WIRING.
001465:
001466:    0070                        RUPTREG1           ERASE
001467:    0071                        RUPTREG2           ERASE
001468:    0072                        RUPTREG3           ERASE
001469:    0073                        RUPTREG4           ERASE
001470:    0074     0073               KEYTEMP1           EQUALS   RUPTREG4
001471:    0074     0073               DSRUPTEM           EQUALS   RUPTREG4
001472:
001473:                                                                                                  #  FLAGWORD RESERVATIONS.                (12D)
001474:
001475:    0074                        STATE              ERASE    +11D
001476:
001477:                                                                                                  #  PAD LOAD FOR DAPS                     (1)
001478:
001479:    0110                        EMDOT              ERASE                                          #  I(1)PL SPS FLOW RATE, SC. AT B+3 KG/CS
001480:


001482:
001483:                                                                                                  #  EXIT FOR V83                          (1D)
001484:    0111                        STATEXIT           ERASE                                          #  I(1) STQ AD RESS F R STATEXP
001485:
001486:                                                                                                  #  UNUSED ERASABLES ********(2)
001487:    0112                        ERASFILL           ERASE    +1
001488:
001489:                                                                                                  #  EXEC TEMPORARIES WHICH MAY BE USED BETWEEN CCS NEWJOBS.
001490:                                                                                                  #  (INTB15+ THROUGH RUPTMXM)             (32D)
001491:    0114                        INTB15+            ERASE                                          #  REFLECTS 15TH BIT OF INDEXABLE ADDRESSES
001492:    0115     0114               DSEXIT             EQUALS   INTB15+                               #  RETURN FOR DSPIN
001493:    0115     0114               EXITEM             EQUALS   INTB15+                               #  RETURN FOR SCALE FACTOR ROUTINE SELECT
001494:    0115     0114               BLANKRET           EQUALS   INTB15+                               #  RETURN FOR 2BLANK
001495:
001496:    0115                        INTBIT15           ERASE                                          #  SIMILAR TO ABOVE.
001497:    0116     0115               WRDRET             EQUALS   INTBIT15                              #  RETURN FOR 5BLANK
001498:    0116     0115               WDRET              EQUALS   INTBIT15                              #  RETURN FOR DSPWD
001499:    0116     0115               DECRET             EQUALS   INTBIT15                              #  RETURN FOR PUTCOM(DEC LOAD)
001500:    0116     0115               21/22REG           EQUALS   INTBIT15                              #  TEMP FOR CHARIN
001501:
001502:                                                                                                  #  THE REGISTERS BETWEEN ADDRWD AND PRIORITY MUST STAY IN THE FOLLOWING ORDER FOR INTERPRETIVE TRACE.
001503:
001504:    0116                        ADDRWD             ERASE                                          #  12 BIT INTERPRETIVE OPERAND SUB-ADDRESS.
001505:    0117                        POLISH             ERASE                                          #  HOLDS CADR MADE FROM POLISH ADDRESS.
001506:    0120     0117               UPDATRET           EQUALS   POLISH                                #  RETURN FOR UPDATNN, UPDATVB
001507:    0120     0117               CHAR               EQUALS   POLISH                                #  TEMP FOR CHARIN
001508:    0120     0117               ERCNT              EQUALS   POLISH                                #  COUNTER FOR ERROR LIGHT RESET
001509:    0120     0117               DECOUNT            EQUALS   POLISH                                #  COUNTER FOR SCALING AND DISPLAY (DEC)
001510:
001511:    0120                        FIXLOC             ERASE                                          #  WORK AREA ADDRESS.
001512:    0121                        OVFIND             ERASE                                          #  SET NON-ZERO ON OVERFLOW.
001513:
001514:    0122                        VBUF               ERASE    +5                                    #  TEMPORARY STORAGE USED FOR VECTORS.
001515:    0130     0122               SGNON              EQUALS   VBUF                                  #  TEMP FOR +,- ON
001516:    0130     0122               NOUNTEM            EQUALS   VBUF                                  #  COUNTER FOR MIXNOUN FETCH
001517:    0130     0122               DISTEM             EQUALS   VBUF                                  #  COUNTER FOR OCTAL DISPLAY VERBS
001518:    0130     0122               DECTEM             EQUALS   VBUF                                  #  COUNTER FOR FETCH (DEC DISPLAY VERBS)
001519:
001520:    0130     0123               SGNOFF             EQUALS   VBUF       +1                         #  TEMP FOR +,- ON
001521:    0130     0123               NVTEMP             EQUALS   VBUF       +1                         #  TEMP FOR NVSUB
001522:    0130     0123               SFTEMP1            EQUALS   VBUF       +1                         #  STORAGE FOR SF CONST HI PART (=SFTEMP2-1)
001523:    0130     0123               HITEMIN            EQUALS   VBUF       +1                         #  TEMP FOR LOAD OF HRS,MIN,SEC
001524:                                                                                                  #  MUST = LOTEMIN-1.
001525:
001526:    0130     0124               CODE               EQUALS   VBUF       +2                         #  FOR DSPIN
001527:    0130     0124               SFTEMP2            EQUALS   VBUF       +2                         #  STORAGE FOR SF CONST LO PART (=SFTEMP1+1)
001528:    0130     0124               LOTEMIN            EQUALS   VBUF       +2                         #  TEMP FOR LOAD OF HRS,MIN,SEC


001530:                                                                                                  #        MUST = HITEMIN+1.
001531:    0130     0125               MIXTEMP            EQUALS   VBUF       +3                         #  FOR MIXNOUN DATA
001532:    0130     0125               SIGNRET            EQUALS   VBUF       +3                         #  RETURN FOR +,- ON
001533:
001534:                                                                                                  #  ALSO MIXTEMP+1 = VBUF+4, MIXTEMP+2 = VBUF+5.
001535:
001536:    0130                        BUF                ERASE    +2                                    #  TEMPORARY SCALAR STORAGE.
001537:    0133                        BUF2               ERASE    +1
001538:    0135     0130               INDEXLOC           EQUALS   BUF                                   #  CONTAINS ADDRESS OF SPECIFIED INDEX.
001539:    0135     0130               SWWORD             EQUALS   BUF                                   #  ADDRESS OF SWITCH WORD.
001540:    0135     0131               SWBIT              EQUALS   BUF        +1                         #  SWITCH BIT WITHIN SWITCH WORD.
001541:    0135                        MPTEMP             ERASE                                          #  TEMPORARY USED IN MULTIPLY AND SHIFT.
001542:    0136     0135               DMPNTEMP           EQUALS   MPTEMP                                #  DMPSUB TEMPORARY
001543:    0136                        DOTINC             ERASE                                          #  COMPONENT INCREMENT FOR DOT SUBROUTINE.
001544:    0137     0136               DVSIGN             EQUALS   DOTINC                                #  DETERMINES SIGN OF DDV RESULT.
001545:    0137     0136               ESCAPE             EQUALS   DOTINC                                #  USED IN ARCSIN/ARCCOS.
001546:    0137     0136               ENTRET             EQUALS   DOTINC                                #  EXIT FROM ENTER
001547:
001548:    0137                        DOTRET             ERASE                                          #  RETURN FROM DOT SUBROUTINE.
001549:    0140     0137               DVNORMCT           EQUALS   DOTRET                                #  DIVIDEND NORMALIZATION COUNT IN DDV.
001550:    0140     0137               ESCAPE2            EQUALS   DOTRET                                #  ALTERNATE ARCSIN/ARCCOS SWITCH.
001551:    0140     0137               WDCNT              EQUALS   DOTRET                                #  CHAR COUNTER FOR DSPWD
001552:    0140     0137               INREL              EQUALS   DOTRET                                #  INPUT BUFFER SELECTOR ( X,Y,Z, REG )
001553:
001554:    0140                        MATINC             ERASE                                          #  VECTOR INCREMENT IN MXV AND VXM.
001555:    0141     0140               MAXDVSW            EQUALS   MATINC                                #  +0 IF DP QUOTIENT IS NEAR ONE - ELSE -1.
001556:    0141     0140               POLYCNT            EQUALS   MATINC                                #  POLYNOMIAL LOOP COUNTER
001557:    0141     0140               DSPMMTEM           EQUALS   MATINC                                #  DSPCOUNT SAVE FOR DSPMM
001558:    0141     0140               MIXBR              EQUALS   MATINC                                #  INDICATOR FOR MIXED OR NORMAL NOUN
001559:
001560:    0141                        TEM1               ERASE                                          #  EXEC TEMP
001561:    0142     0141               POLYRET            EQUALS   TEM1
001562:    0142     0141               DSREL              EQUALS   TEM1                                  #  REL ADDRESS FOR DSPIN
001563:
001564:    0142                        TEM2               ERASE                                          #  EXEC TEMP
001565:    0143     0142               DSMAG              EQUALS   TEM2                                  #  MAGNITUDE STORE FOR DSPIN
001566:    0143     0142               IDADDTEM           EQUALS   TEM2                                  #  MIXNOUN INDIRECT ADDRESS STORAGE
001567:
001568:    0143                        TEM3               ERASE                                          #  EXEC TEMP
001569:    0144     0143               COUNT              EQUALS   TEM3                                  #  FOR DSPIN
001570:
001571:    0144                        TEM4               ERASE                                          #  EXEC TEMP
001572:    0145     0144               LSTPTR             EQUALS   TEM4                                  #  LIST POINTER FOR GRABUSY
001573:    0145     0144               RELRET             EQUALS   TEM4                                  #  RETURN FOR RELDSP
001574:    0145     0144               FREERET            EQUALS   TEM4                                  #  RETURN FOR FREEDSP
001575:    0145     0144               DSPWDRET           EQUALS   TEM4                                  #  RETURN FOR DSPSIGN
001576:    0145     0144               SEPSCRET           EQUALS   TEM4                                  #  RETURN FOR SEPSEC
001577:    0145     0144               SEPMNRET           EQUALS   TEM4                                  #  RETURN FOR SEPMIN
001578:
001579:    0145                        TEM5               ERASE                                          #  EXEC TEMP


001581:    0146     0145               NOUNADD            EQUALS   TEM5                                  #  TEMP STORAGE FOR NOUN ADDRESS
001582:
001583:    0146                        NNADTEM            ERASE                                          #  TEMP FOR NOUN ADDRESS TABLE ENTRY
001584:    0147                        NNTYPTEM           ERASE                                          #  TEMP FOR NOUN TYPE TABLE ENTRY
001585:    0150                        IDAD1TEM           ERASE                                          #  TEMP FOR INDIR ADRESS TABLE ENTRY (MIXNN)
001586:                                                                                                  #  MUST = IDAD2TEM-1, = IDAD3TEM-2.
001587:    0151                        IDAD2TEM           ERASE                                          #  TEMP FOR INDIR ADRESS TABLE ENTRY (MIXNN)
001588:                                                                                                  #  MUST = IDAD1TEM+1, = IDAD3TEM-1.
001589:    0152                        IDAD3TEM           ERASE                                          #  TEMP FOR INDIR ADRESS TABLE ENTRY (MIXNN)
001590:                                                                                                  #  MUST = IDAD1TEM+2, = IDAD2TEM+1.
001591:    0153                        RUTMXTEM           ERASE                                          #  TEMP FOR SF ROUT TABLE ENTRY (MIXNN ONLY)
001592:
001593:                                                                                                  #  AX*SR*T STORAGE.                      (6D)
001594:    0154     0142               DEXDEX             EQUALS   TEM2                                  #  B(1)TMP
001595:    0154     0143               DEX1               EQUALS   TEM3                                  #  B(1)TMP
001596:    0154     0144               DEX2               EQUALS   TEM4                                  #  B(1)TMP
001597:    0154     0145               RTNSAVER           EQUALS   TEM5                                  #  B(1)TMP
001598:    0154     0133               TERM1TMP           EQUALS   BUF2                                  #  B(2)TMP
001599:
001600:    0154     0143               DEXI               =        DEX1
001601:


001603:                                                                                                  #  DYNAMICALLY ALLOCATED CORE SETS FOR JOBS.     (84D)
001604:
001605:    0154                        MPAC               ERASE    +6                                    #  MULTI-PURPOSE ACCUMULATOR.
001606:    0163                        MODE               ERASE                                          #  +1 FOR TP, +0 FOR DP, OR -1 FOR VECTOR.
001607:    0164                        LOC                ERASE                                          #  LOCATION ASSOCIATED WITH JOB.
001608:    0165                        BANKSET            ERASE                                          #  USUALLY CONTAINS BBANK SETTING.
001609:    0166                        PUSHLOC            ERASE                                          #  WORD OF PACKED INTERPRETIVE PARAMETERS.
001610:    0167                        PRIORITY           ERASE                                          #  PRIORITY OF PRESENT JOB AND WORK AREA.
001611:
001612:    0170                                           ERASE    +71D                                  #  SEVEN SETS OF 12 REGISTERS EACH.
001613:
001614:                                                                                                  #  SPECIAL DOWNLINK BUFFER.- OVERLAYED BY P27 STORAGE-
001615:
001616:                                                                                                  #  P27 (UPDATE PROGRAM) STORAGE. -OVERLAYS SPEC DNLNK BUFF- (24D)
001617:
001618:    0300                        COMPNUMB           ERASE    +23D                                  #  B(1)TMP NUMBER OF ITEMS TO BE UPLINKED.
001619:    0330     0301               UPOLDMOD           EQUALS   COMPNUMB   +1                         #  B(1)TMP HOLDS INTERRUPTED PROGRAM NUMBER
001620:    0330     0302               UPVERB             EQUALS   UPOLDMOD   +1                         #  B(1)TMP VERB NUMBER
001621:    0330     0303               UPCOUNT            EQUALS   UPVERB     +1                         #  B(1)TMP UPBUFF INDEX
001622:    0330     0304               UPBUFF             EQUALS   UPCOUNT    +1                         #  B(20D)
001623:
001624:                                                                                                  #  MORE P27 STORAGE.                     (2D)
001625:
001626:    0330                        UPTEMP             ERASE                                          #  B(1)TMP SCRATCH
001627:    0331                        UPVERBSV           ERASE                                          #  B(1)TMP
001628:    0332     0330               INTWAK1Q           EQUALS   UPTEMP                                #  (06D)
001629:                                                                                                  #  (20 REGISTERS OF ENTRY DOWNLINK WILL GO HERE.)
001630:
001631:                                                                                                  #  THE FOLLOWING ARE INDEXED FOR TM. IN ENTRY DAP.
001632:
001633:    0332     0304               CMTMTIME           =        UPBUFF                                #  B(1) (VEHICLE BODY RATE INFO IS
001634:    0332     0305               SW/NDX             =        CMTMTIME   +1                         #  B(1)  TELEMETERED EACH 0.2 SEC. DURING
001635:    0332     0324               ENDBUF             =        CMTMTIME   +16D                       #  B(1)  ENTRY.)
001636:
001637:    0332     0325               V1                 =        ENDBUF     +1                         #  I(2) REENTRY, P64-P65
001638:    0332     0327               A0                 =        V1         +2                         #  I(2) REENTRY, P64-P65
001639:                                                                                                  #  HI-ORDER WORD ONLY ON DNLNK.
001640:
001641:                                                                                                  #  ALIGNMENT STORAGE.                    (5D)
001642:                                                                                                  #  (CANNOT SHARE WITH PRECISION INTEGRATION OR KEPLER STORAGE.)
001643:
001644:    0332     0300               QMAJ               EQUALS   COMPNUMB                              #  B(1)TMP
001645:    0332     0301               MARKINDX           EQUALS   QMAJ       +1                         #  B(1)TMP
001646:    0332     0302               BESTI              EQUALS   MARKINDX   +1                         #  I(1)TMP
001647:    0332     0303               BESTJ              EQUALS   BESTI      +1                         #  I(1)TMP
001648:    0332     0304               STARIND            EQUALS   BESTJ      +1                         #  I(1)TMP
001649:


001651:                                                                                                  #  ALIGNMENT/S40.2,3 COMMON STORAGE.     (18D)
001652:
001653:    0332     0306               XSMD               EQUALS   UPBUFF     +2                         #  I(6)TMP
001654:    0332     0314               YSMD               EQUALS   XSMD       +6                         #  I(6)TMP
001655:    0332     0322               ZSMD               EQUALS   YSMD       +6                         #  I(6)TMP
001656:
001657:    0332     0306               XSCREF             =        XSMD                                  #  SPACE CRAFT AXES IN REF COORDS.
001658:    0332     0314               YSCREF             =        YSMD
001659:    0332     0322               ZSCREF             =        ZSMD
001660:    0332                        ZPRIME             =        22D
001661:    0332                        PDA                =        22D
001662:    0332                        COSTH              =        16D
001663:    0332                        SINTH              =        18D
001664:    0332                        THETA              =        20D
001665:    0332                        STARM              =        32D
001666:
001667:                                                                                                  #  DOWNLINK STORAGE.                     (18)
001668:
001669:    0332     0332               DNLSTADR           EQUALS   DNLSTCOD                              #  CONTENTS NO LONGER AN ADDR BUT A CODE
001670:
001671:    0332                        DNLSTCOD           ERASE                                          #  B(1)PRM ID CODE OF DOWNLIST
001672:    0333                        DUMPCNT            ERASE                                          #  B(1)PRM
001673:    0334                        LDATALST           ERASE                                          #  B(1)
001674:    0335                        DNTMGOTO           ERASE                                          #  B(1)
001675:    0336                        TMINDEX            ERASE                                          #  B(1)
001676:    0337     0336               DUMPLOC            EQUALS   TMINDEX                               #  CONTAINS ECADR OF AGC DP WORD BEING DUMP
001677:                                                                                                  #  ED AND COUNT OF COMPLETE DUMPS ALREADY S
001678:                                                                                                  #  ENT.
001679:    0337                        DNQ                ERASE                                          #  B(1)
001680:    0340                        DNTMBUFF           ERASE    +11D                                  #  B(12)PRM DOWNLINK SNAPSHOT BUFFER
001681:
001682:                                                                                                  #  OPTICS MARKING . UNSHARED.            (8D)
001683:
001684:    0354                        MKNDX              ERASE
001685:    0355                        MKT2T1             ERASE    +1
001686:    0357                        MKCDUY             ERASE
001687:    0360                        MKCDUS             ERASE
001688:    0361                        MKCDUZ             ERASE
001689:    0362                        MKCDUT             ERASE
001690:    0363                        MKCDUX             ERASE
001691:
001692:                                                                                                  #  FOR EXCLUSIVE USE OF SYS TEST STANDARD LEAD INS       (2)
001693:    0364                        EBUF2              ERASE    +1                                    #  B(2) UNSHARED
001694:


001696:                                                                                                  #  UNSWITCHED FOR DISPLAY INTERFACE ROUTINES.    (10D)
001697:
001698:    0366                        RESTREG            ERASE                                          #  B(1)PRM FOR DISPLAY RESTARTS
001699:    0367                        NVWORD             ERASE
001700:    0370                        MARKNV             ERASE
001701:    0371                        NVSAVE             ERASE
001702:                                                                                                  #  (RETAIN THE ORDER OF CADRFLSH TO FAILREG +2 FOR DOWNLINK PURPOSES)
001703:    0372                        CADRFLSH           ERASE                                          #  B(1)TMP
001704:    0373                        CADRMARK           ERASE                                          #  B(1)TMP
001705:    0374                        TEMPFLSH           ERASE                                          #  B(1)TMP
001706:    0375                        FAILREG            ERASE    +2                                    #  B(3)PRM 3 ALARM-ABORT USER'S 2CADR
001707:
001708:    0400                                           SETLOC   400
001709:
001710:                                                                                                  #  VAC AREAS. -BE CAREFUL OF PLACEMENT-  (220D)
001711:
001712:    0400                        VAC1USE            ERASE                                          #  B(1)PRM
001713:    0401                        VAC1               ERASE    +42D                                  #  B(43)PRM
001714:    0454                        VAC2USE            ERASE                                          #  B(1)PRM
001715:    0455                        VAC2               ERASE    +42D                                  #  B(43)PRM
001716:    0530                        VAC3USE            ERASE                                          #  B(1)PRM
001717:    0531                        VAC3               ERASE    +42D                                  #  B(43)PRM
001718:    0604                        VAC4USE            ERASE                                          #  B(1)PRM
001719:    0605                        VAC4               ERASE    +42D                                  #  B(43)PRM
001720:    0660                        VAC5USE            ERASE                                          #  B(1)PRM
001721:    0661                        VAC5               ERASE    +42D                                  #  B(43)PRM
001722:
001723:                                                                                                  #  WAITLIST REPEAT FLAG.                 (1D)
001724:    0734                        RUPTAGN            ERASE                                          #  B(1)PRM
001725:    0735     0734               KEYTEMP2           =        RUPTAGN
001726:
001727:                                                                                                  #  STARALIGN ERASABLES.                          (13D)
001728:
001729:    0735                        STARCODE           ERASE                                          #  B(1)DSP NOUN 70 FOR P22,51 AND R52,53.
001730:    0736                        STARALGN           ERASE    +11D
001731:    0752     0736               SINCDU             =        STARALGN
001732:    0752     0744               COSCDU             =        STARALGN   +6
001733:
001734:    0752     0742               SINCDUX            =        SINCDU     +4
001735:    0752     0736               SINCDUY            =        SINCDU
001736:    0752     0740               SINCDUZ            =        SINCDU     +2
001737:    0752     0750               COSCDUX            =        COSCDU     +4
001738:    0752     0744               COSCDUY            =        COSCDU
001739:    0752     0746               COSCDUZ            =        COSCDU     +2
001740:
001741:                                                                                                  #  PHASE TABLE AND RESTART COUNTERS.             (12D)


001743:
001744:    0752                        -PHASE1            ERASE                                          #  B(1)PRM
001745:    0753                        PHASE1             ERASE                                          #  B(1)PRM
001746:    0754                        -PHASE2            ERASE                                          #  B(1)PRM
001747:    0755                        PHASE2             ERASE                                          #  B(1)PRM
001748:    0756                        -PHASE3            ERASE                                          #  B(1)PRM
001749:    0757                        PHASE3             ERASE                                          #  B(1)PRM
001750:    0760                        -PHASE4            ERASE                                          #  B(1)PRM
001751:    0761                        PHASE4             ERASE                                          #  B(1)PRM
001752:    0762                        -PHASE5            ERASE                                          #  B(1)PRM
001753:    0763                        PHASE5             ERASE                                          #  B(1)PRM
001754:    0764                        -PHASE6            ERASE                                          #  B(1)PRM
001755:    0765                        PHASE6             ERASE                                          #  B(1)PRM
001756:
001757:                                                                                                  #  AX*SR*T STORAGE.                      (6D)
001758:
001759:    0766                        CDUSPOT            ERASE    +5                                    #  B(6)
001760:
001761:    0774     0766               CDUSPOTY           =        CDUSPOT
001762:    0774     0770               CDUSPOTZ           =        CDUSPOT    +2
001763:    0774     0772               CDUSPOTX           =        CDUSPOT    +4
001764:
001765:                                                                                                  #  VERB 37 STORAGE.                      (2D)
001766:
001767:    0774                        MINDEX             ERASE                                          #  B(1)TMP INDEX FOR MAJOR MODE
001768:    0775                        MMNUMBER           ERASE                                          #  B(1)TMP MAJOR MODE REQUESTED VIA V37
001769:
001770:                                                                                                  #  PINBALL INTERRUPT STORAGE.            (1D)
001771:
001772:    0776                        DSPCNT             ERASE                                          #  B(1)PRM DSPOUT COUNTER
001773:
001774:                                                                                                  #  PINBALL EXECUTIVE ACTION.             (44D)
001775:
001776:    0777                        DSPCOUNT           ERASE                                          #  DISPLAY POSITION INDICATOR
001777:    1000                        DECBRNCH           ERASE                                          #  +DEC, -DEC, OCT INDICATOR
001778:    1001                        VERBREG            ERASE                                          #  VERB CODE
001779:    1002                        NOUNREG            ERASE                                          #  NOUN CODE
001780:    1003                        XREG               ERASE                                          #  R1 INPUT BUFFER
001781:    1004                        YREG               ERASE                                          #  R2 INPUT BUFFER
001782:    1005                        ZREG               ERASE                                          #  R3 INPUT BUFFER
001783:    1006                        XREGLP             ERASE                                          #  LO PART OF XREG (FOR DEC CONV ONLY)
001784:    1007                        YREGLP             ERASE                                          #  LO PART OF YREG (FOR DEC CONV ONLY)
001785:    1010     1007               HITEMOUT           =        YREGLP                                #  TEMP FOR DISPLAY OF HRS,MIN,SEC
001786:                                                                                                  #        MUST = LOTEMOUT-1.
001787:    1010                        ZREGLP             ERASE                                          #  LO PART OF ZREG (FOR DEC CONV ONLY)
001788:    1011     1010               LOTEMOUT           =        ZREGLP                                #  TEMP FOR DISPLAY OF HRS,MIN,SEC
001789:                                                                                                  #        MUST = HITEMOUT+1.


001791:    1011                        MODREG             ERASE                                          #  MODE CODE
001792:    1012                        DSPLOCK            ERASE                                          #  KEYBOARD/SUBROUTINE CALL INTERLOCK
001793:    1013                        REQRET             ERASE                                          #  RETURN REGISTER FOR LOAD
001794:    1014                        LOADSTAT           ERASE                                          #  STATUS INDICATOR FOR LOADTST
001795:    1015                        CLPASS             ERASE                                          #  PASS INDICATOR CLEAR
001796:    1016                        NOUT               ERASE                                          #  ACTIVITY COUNTER FOR DSPTAB
001797:    1017                        NOUNCADR           ERASE                                          #  MACHINE CADR FOR NOUN
001798:    1020                        MONSAVE            ERASE                                          #  N/V CODE FOR MONITOR. (= MONSAVE1-1)
001799:    1021                        MONSAVE1           ERASE                                          #  NOUNCADR FOR MONITOR (MATBS) = MONSAVE+1
001800:    1022                        MONSAVE2           ERASE                                          #  B(1)PRM NVMONOPT OPTIONS
001801:    1023                        DSPTAB             ERASE    +11D                                  #  0-10D, DISPLAY PANEL BUFF.  11D, C/S LTS.
001802:    1037                        NVQTEM             ERASE                                          #  NVSUB STORAGE FOR CALLING ADDRESS
001803:                                                                                                  #  MUST = NVBNKTEM-1
001804:    1040                        NVBNKTEM           ERASE                                          #  NVSUB STORAGE FOR CALLING BANK
001805:                                                                                                  #  MUST = NVQTEM+1
001806:    1041                        VERBSAVE           ERASE                                          #  NEEDED FOR RECYCLE
001807:    1042                        CADRSTOR           ERASE                                          #  ENDIDLE STORAGE
001808:    1043                        DSPLIST            ERASE                                          #  WAITING REG FOR DSP SYST INTERNAL USE
001809:    1044                        EXTVBACT           ERASE                                          #  EXTENDED VERB ACTIVITY INTERLOCK
001810:    1045                        DSPTEM1            ERASE    +2                                    #  BUFFER STORAGE AREA 1 (MOSTLY FOR TIME)
001811:    1050                        DSPTEM2            ERASE    +2                                    #  BUFFER STORAGE AREA 2 (MOSTLY FOR DEG)
001812:
001813:    1053     1051               DSPTEMX            EQUALS   DSPTEM2    +1                         #  B(2) S-S DISPLAY BUFFER FOR EXT. VERBS.
001814:    1053     1045               NORMTEM1           EQUALS   DSPTEM1                               #  B(3)DSP NORMAL DISPLAY REGISTERS.
001815:
001816:                                                                                                  #  DISPLAY FOR EXTENDED VERBS            (2D)
001817:
001818:    1053     1051               OPTIONX            EQUALS   DSPTEMX                               #  B(2) EXTENDED VERB OPTION CODE  N12(V82)
001819:
001820:                                                                                                  #  TBASE S AND PHSPRDT S.                (12D)
001821:
001822:    1053                        TBASE1             ERASE                                          #  B(1)PRM
001823:    1054                        PHSPRDT1           ERASE                                          #  B(1)PRM
001824:    1055                        TBASE2             ERASE                                          #  B(1)PRM
001825:    1056                        PHSPRDT2           ERASE                                          #  B(1)PRM
001826:    1057                        TBASE3             ERASE                                          #  B(1)PRM
001827:    1060                        PHSPRDT3           ERASE                                          #  B(1)PRM
001828:    1061                        TBASE4             ERASE                                          #  B(1)PRM
001829:    1062                        PHSPRDT4           ERASE                                          #  B(1)PRM
001830:    1063                        TBASE5             ERASE                                          #  B(1)PRM
001831:    1064                        PHSPRDT5           ERASE                                          #  B(1)PRM
001832:    1065                        TBASE6             ERASE                                          #  B(1)PRM
001833:    1066                        PHSPRDT6           ERASE                                          #  B(1)PRM
001834:
001835:                                                                                                  #  MORE UNSWITCHED FOR DISPLAY INF       (5D).


001837:    1067                        EBANKSAV           ERASE
001838:    1070                        MARKEBAN           ERASE
001839:    1071                        EBANKTEM           ERASE
001840:    1072                        MARK2PAC           ERASE
001841:    1073                        R1SAVE             ERASE
001842:
001843:                                                                                                  #  IMU COMPENSATION UNSWITCHED ERASABLE. (1D)
001844:
001845:    1074                        1/PIPADT           ERASE                                          #  B(1)PRM
001846:    1075     1074               OLDBT1             =        1/PIPADT
001847:
001848:                                                                                                  #  SINGLE PRECISION SUBROUTINE TEMPORARIES.      (3D)
001849:                                                                                                  #  SPSIN, SPCOS, SPROOT VARIABLES.
001850:                                                                                                  #  DO NOT SHARE.  THESE ARE USED BY DAPS IN INTERRUPT
001851:                                                                                                  #  AND CURRENTLY ARE NOT PROTECTED.  IF OTHER USERS
001852:                                                                                                  #  MATERIALIZE, THEN THIS CAN BE CHANGED.
001853:
001854:    1075                        HALFY              ERASE
001855:    1076                        ROOTRET            ERASE
001856:    1077                        SQRARG             ERASE
001857:    1100     1075               TEMK               EQUALS   HALFY
001858:    1100     1076               SQ                 EQUALS   ROOTRET
001859:


001861:                                                                                                  #  UNSWITCHED FOR ORBIT INTEGRATION.     (21D)
001862:
001863:    1100                        TDEC               ERASE    +20D                                  #  I(2)
001864:    1125     1102               COLREG             EQUALS   TDEC       +2                         #  I(1)
001865:    1125     1103               LAT                EQUALS   COLREG     +1                         #  I(2)DSP NOUN 43,67 FOR P20,22,51 R52,53.
001866:    1125     1103               LANDLAT            =        LAT                                   #          NOUN 89    FOR P22.
001867:    1125     1105               LONG               EQUALS   LAT        +2                         #  I(2)DSP NOUN 43,67 FOR P20,22,51 R52,53.
001868:    1125     1107               ALT                EQUALS   LONG       +2                         #  I(2)DSP NOUN 43    FOR P20,22,51 R52,53.
001869:    1125     1111               YV                 EQUALS   ALT        +2                         #  I(6)
001870:    1125     1117               ZV                 EQUALS   YV         +6                         #  I(6)
001871:
001872:                                                                                                  #  MARK STORAGE.                         (2)
001873:
001874:    1125                        VHFCNT             ERASE                                          #  B(1)PRM NO. OF VHF MARKS (P20 (R22)).
001875:    1126                        TRKMKCNT           ERASE                                          #  B(1)PRM NO. OF VHF MARKS (P20 (R22)).
001876:
001877:    1127     1126               MARKCTR            =        TRKMKCNT                              #  B(1) MARK COUNTER USED BY R32
001878:
001879:                                                                                                  #  MISCELLANEOUS UNSWITCHED.             (16D)
001880:
001881:    1127                        IRETURN1           ERASE                                          #  B(1) RET ADDR USED BY MIDTOAV1 AND 2
001882:                                                                                                  #  CALLED BY P40,P41,P42, P61,P62
001883:    1130                        RATEINDX           ERASE                                          #   (1) USED BY KALCMANU
001884:    1131                        OPTION1            ERASE                                          #  B(1) NOUN 06 USES THIS
001885:    1132                        OPTION2            ERASE                                          #  B(1) NOUN 06 USES THIS
001886:    1133                        LONGCADR           ERASE    +1                                    #  B(2) LONGCALL REGISTER
001887:    1135                        LONGBASE           ERASE    +1                                    #  B(2) LONGCALL REGISTER
001888:    1137                        LONGTIME           ERASE    +1                                    #  B(2) LONGCALL REGISTER
001889:    1141                        DELAYLOC           ERASE    +3
001890:    1145                        NVWORD1            ERASE                                          #  B(1)
001891:    1146                        TEMPR60            ERASE                                          #  B(1)
001892:    1147                        PRIOTIME           ERASE                                          #  B(1)
001893:    1150     1127               P30/RET            EQUALS   IRETURN1
001894:
001895:                                                                                                  #  MISC. INCLUDING RESTART COUNTER, GIMBAL ANGLE SAVE AND
001896:                                                                                                  #  STANDBY VERB ERASABLES.  REDOCTR BEFORE THETAD (DWNLNK)       (16D)
001897:
001898:    1150                        TIME2SAV           ERASE    +1                                    #  B(2)TMP
001899:    1152                        SCALSAVE           ERASE    +1                                    #  B(2)TMP
001900:    1154                        REDOCTR            ERASE                                          #  B(1)PRM CONTAINS NUMBER OF RESTARTS.
001901:    1155                        THETAD             ERASE    +2                                    #  B(3)PRM DESIRED GIM ANGLES FOR MANEUVER.
001902:    1160     1155               CPHI               =        THETAD                                #        (OUTER)
001903:    1160     1156               CTHETA             =        THETAD     +1                         #        (INNER)
001904:    1160     1157               CPSI               =        THETAD     +2                         #        (MIDDLE)


001906:                                                                                                  #  ENTRY VARIABLES SHARED FOR TM.
001907:    1160     1155               RDOTREF            =        THETAD                                #  I(2)  P65
001908:    1160     1157               VREF               =        RDOTREF    +2                         #  I(2)  P65     HI-ORDER WORD ONLY DNLNK'D
001909:    1160                        DESOPTT            ERASE                                          #  B(1)DSP NOUN 92 FOR P20,22,52, R52.
001910:    1161                        DESOPTS            ERASE                                          #  B(1)DSP NOUN 92 FOR P20,22,52, R52.
001911:
001912:    1162                        DELV               ERASE    +5                                    #  I(6)
001913:    1170     1162               DELVX              =        DELV
001914:    1170     1164               DELVY              =        DELV       +2
001915:    1170     1166               DELVZ              =        DELV       +4
001916:
001917:                                                                                                  #  P20, CONICS   (SHARING WITH TIME 2 SAV AND SCAL SAV ONLY)     (3D)
001918:    1170     1150               POINTEX            EQUALS   TIME2SAV                              #  I(1) POINT AXS EXIT
001919:    1170     1151               VHFTIME            EQUALS   POINTEX    +1                         #  I(2) DOWNLINK OF VHF RANGE TIME +1M
001920:
001921:                                                                                                  #  PERM STATE VECTORS FOR BOOST AND DOWNLINK -WHOLE MISSION-     (14D)
001922:
001923:    1170                        RN                 ERASE    +5                                    #  B(6)PRM
001924:    1176                        VN                 ERASE    +5                                    #  B(6)PRM
001925:    1204                        PIPTIME            ERASE    +1                                    #  B(2)PRM (MUST BE FOLLOWED BY GDT/2)
001926:
001927:                                                                                                  #  SERVICER STORAGE.                             (45D)
001928:
001929:                                                                                                  #  (SERVICER STORAGE AND P11 STORAGE IN UNSWITHCHED SHOULD NOT
001930:                                                                                                  #  OVERLAY EACH OTHER AND THE TOTAL ERASABLE REQUIRED SHOULD NOT
001931:                                                                                                  #  EXCEED THE ERASABLE STORAGE REQUIRED BY RENDEZVOUS GUIDANCE)
001932:
001933:    1206     1206               GDT/2              EQUALS   PIPTIME    +2                         #  B(6)TMP       (MUST FOLLOW PIPTIME)
001934:    1206     1214               GOBL/2             EQUALS   GDT/2      +6                         #  B(6)TMP
001935:    1206     1222               AVEGEXIT           EQUALS   GOBL/2     +6                         #  B(2)TMP
001936:    1206     1222               AVGEXIT            =        AVEGEXIT
001937:    1206     1224               TEMX               EQUALS   AVEGEXIT   +2                         #  B(1)TMP
001938:    1206     1225               TEMY               EQUALS   TEMX       +1                         #  B(1)TMP
001939:    1206     1226               TEMZ               EQUALS   TEMY       +1                         #  B(1)TMP
001940:    1206     1227               PIPCTR             EQUALS   TEMZ       +1                         #  B(1)TMP
001941:    1206     1230               PIPAGE             EQUALS   PIPCTR     +1                         #  B(1)TMP
001942:
001943:    1206     1231               RN1                EQUALS   PIPAGE     +1                         #  B(6)TMP
001944:    1206     1237               VN1                EQUALS   RN1        +6                         #  B(6)TMP
001945:    1206     1245               PIPTIME1           EQUALS   VN1        +6                         #  B(2)TMP
001946:    1206     1247               GDT1/2             EQUALS   PIPTIME1   +2                         #  B(6)TMP
001947:    1206     1255               GOBL1/2            EQUALS   GDT1/2     +6                         #  B(6)TMP
001948:


001950:                                                                                                  #  ENTRY STORAGE.                        (1D)
001951:    1206     1263               ENTRYVN            EQUALS   GOBL1/2    +6                         #  B(1)TMP VN CODE FOR ENTRY DISPLAYS P60S.
001952:
001953:                                                                                                  #  P11 STORAGE.                          (9D)
001954:    1206     1263               PADLONG            EQUALS   ENTRYVN                               #  (2)PL LONGITUDE OF LAUNCH PAD
001955:    1206     1265               LIFTTEMP           EQUALS   PADLONG    +2                         #  (2)TMP
001956:    1206     1267               TEPHEM1            EQUALS   LIFTTEMP   +2                         #  (3)TMP
001957:    1206     1272               PGNCSALT           EQUALS   TEPHEM1    +3                         #  (2)PL ALTITUDE
001958:
001959:                                                                                                  #  RENDEZVOUS NAVIGATION STORAGE.  (SEE COMMENT IN SERVICER STORAGE)     (58D)
001960:    1206                        CSMPOS             ERASE    +57D                                  #  I(6)TMP
001961:    1300     1214               LEMPOS             EQUALS   CSMPOS     +6                         #  I(6)TMP
001962:    1300     1222               RCL                EQUALS   LEMPOS     +6                         #  I(2)TMP
001963:    1300     1224               MARKTIME           EQUALS   RCL        +2                         #  B(2)TMP
001964:    1300     1226               VTEMP              EQUALS   MARKTIME   +2                         #  B(6)TMP
001965:    1300     1234               UM                 EQUALS   VTEMP      +6                         #  I(6)TMP
001966:    1300     1242               MARKDATA           EQUALS   UM         +6                         #  B(2)TMP
001967:    1300     1244               USTAR              EQUALS   MARKDATA   +2                         #  I(6)TMP
001968:    1300     1252               WIXA               EQUALS   USTAR      +6                         #  B(1)TMP
001969:    1300     1253               WIXB               EQUALS   WIXA       +1                         #  B(1)TMP
001970:    1300     1254               ZIXA               EQUALS   WIXB       +1                         #  B(1)TMP
001971:    1300     1255               ZIXB               EQUALS   ZIXA       +1                         #  B(1)TMP
001972:    1300     1256               DELTAX             EQUALS   ZIXB       +1                         #  I(18)TMP
001973:
001974:    1300     1256               VHFRANGE           EQUALS   DELTAX                                #  (2)
001975:    1300     1272               UCL                EQUALS   DELTAX     +12D                       #  (6)   LM-CSM LINE OF SIGHT 1/2 UNIT V
001976:
001977:                                                                                                  #  **** CONICSEX (MEAS INC) ****
001978:    1300     1256               TRIPA              EQUALS   DELTAX
001979:    1300     1261               TEMPVAR            EQUALS   DELTAX     +3
001980:
001981:    1300                        TEMPOR1            ERASE    +1                                    #  B(2)TMP
001982:
001983:                                                                                                  #  T4RUPT ERASABLE.                      (6D)
001984:
001985:    1302                        DSRUPTSW           ERASE
001986:    1303                        OPTIND             ERASE
001987:    1304                        LGYRO              ERASE
001988:    1305                        COMMANDO           ERASE    +1
001989:


001991:    1307                        ZONE               ERASE                                          #  B(1)PRM USED IN SHAFT STOP MONITOR
001992:    1310  0000035               LASTYCMD           =        OPTY                                  #  DUMMY TO MAKE RR BENCH TEST ASSEMBLE
001993:    1310  0000035               LASTXCMD           =        OPTY                                  #  DUMMY TO MAKE RR BENCH TEST ASSEMBLE
001994:
001995:                                                                                                  #  UNSWITCHED DAP ERASABLE.              (4D)
001996:    1310                        T6LOC              ERASE
001997:    1311                        T6ADR              ERASE
001998:    1312                        T5LOC              ERASE    +1
001999:
002000:                                                                                                  #  MODE SWITCHING ERASABLE.              (14D)
002001:    1314                        SWSAMPLE           ERASE                                          #  B(1)PRM
002002:    1315                        DESOPMOD           ERASE                                          #  B(1)PRM
002003:    1316                        WTOPTION           ERASE                                          #  B(1)PRM
002004:    1317                        ZOPTCNT            ERASE                                          #  B(1)PRM
002005:    1320                        IMODES30           ERASE                                          #  B(1)PRM
002006:    1321                        IMODES33           ERASE                                          #  B(1)PRM
002007:    1322                        MODECADR           ERASE    +2                                    #  B(3)TMP
002008:    1325     1322               IMUCADR            =        MODECADR
002009:    1325     1323               OPTCADR            =        MODECADR   +1
002010:    1325     1324               RADCADR            =        MODECADR   +2
002011:    1325                        ATTCADR            ERASE    +2                                    #  B(3)PRM
002012:    1330     1327               ATTPRIO            =        ATTCADR    +2
002013:    1330                        MARKSTAT           ERASE                                          #  B(1)PRM
002014:    1331                        OPTMODES           ERASE                                          #  B(1)PRM
002015:
002016:                                                                                                  #  RCSDAP ERASABLE.                      (1D)
002017:    1332                        HOLDFLAG           ERASE                                          #  B(1)PRM
002018:
002019:                                                                                                  #  CRS61.1 STORAGE.  -USED IN R63 (VERB 89)-     (5D)
002020:    1333                        CPHIX              ERASE    +2                                    #  B(3)DSP NOUN 96 CALCULATED BY CRS61.1
002021:
002022:    1336                        TEVENT             ERASE    +1                                    #  B(2) TIME OF EVENT FOR DOWNLIST
002023:    1340     1336               TLIFTOFF           =        TEVENT
002024:


002026:                                                                                                  #  P34-P35 STORAGE                       (1D)
002027:    1340                        NORMEX             ERASE
002028:
002029:                                                                                                  #  SELF-CHECK ASSIGNMENTS.               (17D)
002030:
002031:                                                                                                  #                         (DO NOT MOVE, S-C IS ADDRESS SENSITIVE)
002032:
002033:    1341                        SELFERAS           ERASE    1357       -          1377            #  *** MUST NOT BE MOVED ***
002034:    1341     1357               SFAIL              EQUALS   SELFERAS                              #  B(1)
002035:    1341     1360               ERESTORE           EQUALS   SFAIL      +1                         #  B(1)
002036:    1341     1361               SELFRET            EQUALS   ERESTORE   +1                         #  B(1) RETURN
002037:    1341     1362               SMODE              EQUALS   SELFRET    +1                         #  B(1)
002038:    1341     1363               ALMCADR            EQUALS   SMODE      +1                         #  B(2) ALARM-ABORT USER'S 2CADR
002039:    1341     1365               ERCOUNT            EQUALS   ALMCADR    +2                         #  B(1)
002040:    1341     1366               SCOUNT             EQUALS   ERCOUNT    +1                         #  B(3)
002041:    1341     1371               SKEEP1             EQUALS   SCOUNT     +3                         #  B(1)
002042:    1341     1372               SKEEP2             EQUALS   SKEEP1     +1                         #  B(1)
002043:    1341     1373               SKEEP3             EQUALS   SKEEP2     +1                         #  B(1)
002044:    1341     1374               SKEEP4             EQUALS   SKEEP3     +1                         #  B(1)
002045:    1341     1375               SKEEP5             EQUALS   SKEEP4     +1                         #  B(1)
002046:    1341     1376               SKEEP6             EQUALS   SKEEP5     +1                         #  B(1)
002047:    1341     1377               SKEEP7             EQUALS   SKEEP6     +1                         #  B(1)
002048:
002049:                                                                                                  #  USED BY P30 ROUTINES TO WRITE ONLY NEVER READ IN COLOSSUS
002050:
002051:    1341  0000000               DISPDEX            EQUALS   A
002052:
002053:                                                                                                  #  ERASABLE FOR SXTMARK CDU CHECK DELAY.  -PAD LOADED-   (1D)
002054:
002055:    1341                        CDUCHKWD           ERASE                                          #  B(1)PL
002056:
002057:                                                                                                  #  R57 STORAGE. -MUST BE UNSHARED EXCEPT IN BOOST OR ENTRY-      (1D)
002058:
002059:    1342                        TRUNBIAS           ERASE                                          #  B(1)PRM RESULT OF R57 CALIBR OF TRUNION
002060:
002061:                                                                                                  #  KEPLER STORAGE                                (6D)
002062:
002063:    1343                        XMODULO            ERASE    +1                                    #  I(2) GREATER 2PI KEPLER
002064:    1345                        TMODULO            ERASE    +1                                    #  I(2) GREATER 2 KEPLER
002065:    1347                        EPSILONT           ERASE    +1                                    #  I(2)TMP
002066:


002068:                                                                                                  #  P37   ** RETURN TO EARTH (PAD LOAD) ****      (2D)
002069:
002070:    1351                        RTED1              ERASE    +1                                    #  I(2)PL VGAMMA POLY COEF               B-3
002071:
002072:                                                                                                  #  P40   *** STEERING ROUTINE *** PAD LOAD       (1D)
002073:
002074:    1353                        DVTHRESH           ERASE                                          #  I(1)PL DELTA VTHRESHOLD FOR LOW THRUST
002075:                                                                                                  #         ROUTINE                        B-2
002076:
002077:                                                                                                  #  P23   *** PAD LOAD ****               (2D)
002078:
002079:    1354                        HORIZALT           ERASE    +1                                    #  I(2)PL HORIZION ALTITUDE           M B-29
002080:
002081:                                                                                                  #  P-20  ALTERNATE LOS VARIANCE  PAD LOAD *****  (1D)
002082:                                                                                                  #                                                                          -16
002083:    1356                        ALTVAR             ERASE                                          #  I(2)PL MILLARD. SQUARED SCALED 2
002084:    1357     1377               END-UE             EQUALS   SELFERAS   +16D                       #  LAST USED UNSWITCHED ERASABLE
002085:


002087:                                                                                                  #  EBANK-3 ASSIGNMENTS
002088:
002089: E3,1400                                           SETLOC   1400
002090:
002091:                                                                                                  #  WAITLIST TASK LISTS.                  (26D)
002092:
002093: E3,1400                        LST1               ERASE    +7                                    #  B(8D)PRM DELTA T S.
002094: E3,1410                        LST2               ERASE    +17D                                  #  B(18D)PRM TASK 2CADR ADDRESSES.
002095:
002096:                                                                                                  #  RESTART STORAGE.                      (2D)
002097:
002098: E3,1432                        RSBBQ              ERASE    +1                                    #  B(2)PRM SAVE BB AND Q FOR RESTARTS.
002099:
002100:                                                                                                  #  MORE LONGCALL STORAGE.  (MUST BE IN LST1 S BANK).     (2D)
002101:
002102: E3,1434                        LONGEXIT           ERASE    +1                                    #  B(2)TMP MAY BE SELDOM OVERLAYED.
002103:
002104:                                                                                                  #  PHASE-CHANGE LISTS PART II.           (12D)
002105:
002106:
002107: E3,1436                        PHSNAME1           ERASE                                          #  B(1)PRM
002108: E3,1437                        PHSBB1             ERASE                                          #  B(1)PRM
002109: E3,1440                        PHSNAME2           ERASE                                          #  B(1)PRM
002110: E3,1441                        PHSBB2             ERASE                                          #  B(1)PRM
002111: E3,1442                        PHSNAME3           ERASE                                          #  B(1)PRM
002112: E3,1443                        PHSBB3             ERASE                                          #  B(1)PRM
002113: E3,1444                        PHSNAME4           ERASE                                          #  B(1)PRM
002114: E3,1445                        PHSBB4             ERASE                                          #  B(1)PRM
002115: E3,1446                        PHSNAME5           ERASE                                          #  B(1)PRM
002116: E3,1447                        PHSBB5             ERASE                                          #  B(1)PRM
002117: E3,1450                        PHSNAME6           ERASE                                          #  B(1)PRM
002118: E3,1451                        PHSBB6             ERASE                                          #  B(1)PRM
002119:
002120:                                                                                                  #  IMU COMPENSATION PARAMETERS.          (22D)
002121:
002122: E3,1452                        PBIASX             ERASE                                          #  B(1)  PIPA BIAS, PIPA SCALE FACTR TERMS
002123: E3,1453  E3,1452               PIPABIAS           =        PBIASX                                #        INTERMIXED.
002124: E3,1453                        PIPASCFX           ERASE
002125: E3,1454  E3,1453               PIPASCF            =        PIPASCFX
002126: E3,1454                        PBIASY             ERASE
002127: E3,1455                        PIPASCFY           ERASE
002128: E3,1456                        PBIASZ             ERASE
002129: E3,1457                        PIPASCFZ           ERASE
002130:
002131: E3,1460                        NBDX               ERASE                                          #  GYRO BIAS DRIFTS
002132: E3,1461  E3,1460               GBIASX             =        NBDX
002133: E3,1461                        NBDY               ERASE


002135: E3,1462                        NBDZ               ERASE
002136:
002137: E3,1463                        ADIAX              ERASE                                          #  ACCELERATION SENSITIVE DRIFT ALONG THE
002138: E3,1464                        ADIAY              ERASE                                          #  INPUT AXIS
002139: E3,1465                        ADIAZ              ERASE
002140:
002141: E3,1466                        ADSRAX             ERASE                                          #  ACCELERATION SENSITIVE DRIFT ALONG THE
002142: E3,1467                        ADSRAY             ERASE                                          #  SPIN REFERENCE AXIS
002143: E3,1470                        ADSRAZ             ERASE
002144:
002145: E3,1471                        GCOMP              ERASE    +5                                    #  CONTAINS COMPENSATING TORQUES
002146:
002147: E3,1477                        GCOMPSW            ERASE
002148: E3,1500  E3,1471               COMMAND            EQUALS   GCOMP
002149: E3,1500  E3,1474               CDUIND             EQUALS   GCOMP      +3
002150:
002151:                                                                                                  #  STATE VECTORS FOR ORBIT INTEGRATION.  (44D)
002152:
002153:                                                                                                  #                (DIFEQCNT THRU XKEP MUST BE IN SAME
002154:                                                                                                  #                EBANK AS RRECTCSM, RRECTLEM ETC
002155:                                                                                                  #                BECAUSE THE COPY-CYCLES (ATOPCSM,
002156:                                                                                                  #                PTOACSM ETC) ARE EXECUTED IN BASIC.
002157:                                                                                                  #                ALL OTHER REFERENCES TO THIS GROUP
002158:                                                                                                  #                ARE BY INTERPRETIVE INSTRUCTIONS.)
002159:
002160:
002161: E3,1500                        DIFEQCNT           ERASE    +43D                                  #  B(1)TMP
002162:                                                                                                  #  (UPSVFLAG...XKEP MUST BE KEPT IN ORDER)
002163:
002164: E3,1554  E3,1501               UPSVFLAG           EQUALS   DIFEQCNT   +1                         #  B(1)PRM UPDATE FLAG
002165: E3,1554  E3,1502               RRECT              EQUALS   UPSVFLAG   +1                         #  B(6)TMP POS AT RECT           KM*2(-14)
002166: E3,1554  E3,1510               VRECT              EQUALS   RRECT      +6                         #  B(6)TMP VEL AT RECT           KM(-1/2)*2(6)
002167: E3,1554  E3,1516               TET                EQUALS   VRECT      +6                         #  B(2)TMP TIME OF STATE VECT    CSECS*2(-28)
002168: E3,1554  E3,1520               TDELTAV            EQUALS   TET        +2                         #  B(6)TMP POSITION DEVIATION    KM*2(14)
002169: E3,1554  E3,1526               TNUV               EQUALS   TDELTAV    +6                         #  B(6)TMP VEL DEVIATION         KM(-1/2)*2(14)
002170: E3,1554  E3,1534               RCV                EQUALS   TNUV       +6                         #  B(6)TMP CONIC POSITION        KM*2(-14)
002171: E3,1554  E3,1542               VCV                EQUALS   RCV        +6                         #  B(6)TMP CONIC VELOCITY        KM(-1/2)*2(6)
002172: E3,1554  E3,1550               TC                 EQUALS   VCV        +6                         #  B(2)TMP TIME SINCE RECTIFICATION
002173: E3,1554  E3,1552               XKEP               EQUALS   TC         +2                         #  B(2)TMP ROOT OF KEPLER EQ     KM(1/2.*2(-10)
002174:
002175:                                                                                                  #  **** TEMP - IN VAC AREA ****
002176: E3,1554                        RRECT1             EQUALS   18D
002177: E3,1554                        VRECT1             EQUALS   24D
002178: E3,1554                        TET1               EQUALS   30D
002179:
002180:                                                                                                  #  PERMANENT STATE VECTORS AND TIMES.    (101D)
002181:
002182:                                                                                                  #  (DO NOT OVERLAY WITH ANYTHING AFTER BOOST)
002183:


002185:                                                                                                  #  (RRECTCSM...XKEPCSM MUST BE KEPT IN THIS ORDER)
002186:
002187: E3,1554                        RRECTCSM           ERASE    +5                                    #  B(6)PRM CSM VARIABLES.
002188: E3,1562  E3,1554               RRECTHIS           =        RRECTCSM
002189: E3,1562                        VRECTCSM           ERASE    +5                                    #  B(6)PRM
002190: E3,1570                        TETCSM             ERASE    +1                                    #  B(2)PRM
002191: E3,1572  E3,1570               TETTHIS            =        TETCSM
002192: E3,1572                        DELTACSM           ERASE    +5                                    #  B(6)PRM
002193: E3,1600                        NUVCSM             ERASE    +5                                    #  B(6)PRM
002194: E3,1606                        RCVCSM             ERASE    +5                                    #  B(6)PRM
002195: E3,1614                        VCVCSM             ERASE    +5                                    #  B(6)PRM
002196: E3,1622                        TCCSM              ERASE    +1                                    #  B(2)PRM
002197: E3,1624                        XKEPCSM            ERASE    +1                                    #  B(2)PRM
002198:
002199:                                                                                                  #  (RRECTLEM...XKEPLEM MUST BE KEPT IN THIS ORDER)
002200:
002201: E3,1626                        RRECTLEM           ERASE    +5                                    #  B(6)PRM LEM VARIABLES
002202: E3,1634  E3,1626               RRECTOTH           =        RRECTLEM
002203: E3,1634                        VRECTLEM           ERASE    +5                                    #  B(6)PRM
002204: E3,1642                        TETLEM             ERASE    +1                                    #  B(2)PRM
002205: E3,1644  E3,1642               TETOTHER           =        TETLEM
002206: E3,1644                        DELTALEM           ERASE    +5                                    #  B(6)PRM
002207: E3,1652                        NUVLEM             ERASE    +5                                    #  B(6)PRM
002208: E3,1660                        RCVLEM             ERASE    +5                                    #  B(6)PRM
002209: E3,1666                        VCVLEM             ERASE    +5                                    #  B(6)PRM
002210: E3,1674                        TCLEM              ERASE    +1                                    #  B(2)PRM
002211: E3,1676                        XKEPLEM            ERASE    +1                                    #  B(2)PRM
002212:
002213: E3,1700                        X789               ERASE    +5
002214: E3,1706                        TEPHEM             ERASE    +2
002215: E3,1711                        AZO                ERASE    +1
002216: E3,1713                        UNITW              ERASE    +5
002217: E3,1721  E3,1713               -AYO               EQUALS   UNITW                                 #  (2)
002218: E3,1721  E3,1715               AXO                EQUALS   UNITW      +2                         #  (2)
002219:
002220:                                                                                                  #  STATE VECTORS FOR DOWNLINK.           (12D)
002221:
002222: E3,1721                        R-OTHER            ERASE    +5                                    #  B(6)PRM POS VECT (OTHER VECH) FOR DNLINK
002223: E3,1727                        V-OTHER            ERASE    +5                                    #  B(6)PRM VEL VECT (OTHER VECH) FOR DNLINK
002224:
002225: E3,1735  E3,1642               T-OTHER            =        TETLEM                                #              TIME (OTHER VECH) FOR DNLINK
002226:
002227:                                                                                                  #  REFSMMAT.                             (18D)
002228:
002229: E3,1735                        REFSMMAT           ERASE    +17D                                  #  I(18D)PRM
002230:


002232:                                                                                                  #  AVERAGEG INTEGRATOR STORAGE.          (8D)
002233: E3,1757                        UNITR              ERASE    +5
002234: E3,1765                        RMAG               ERASE    +1
002235:
002236:                                                                                                  #  P40 PAD LOADS                         (6D)
002237: E3,1767                        EK1VAL             ERASE    +1                                    #  I(2)PL 1-SEC SPS IMPULSE NEWTSEC/100/B23


002248: E3,1771                        FANG               ERASE                                          #  I(1)PL SPS THRUST USED BY IMPULSIVE BURN
002249:
002250:                                                                                                  #  **** CONICSEX (PLANETARY INERT. ORIEN.) ****
002251: E3,1772  E3,1706               TIMSUBO            EQUALS   TEPHEM                                #  CSEC B-42 (TRIPLE PREC)
002252: E3,1772  E3,1771               END-E3             EQUALS   FANG                                  #  LAST USED E3 ADDRESS
002253:


002255:                                                                                                  #  EBANK-4 ASSIGNMENTS
002256:
002257: E4,1400                                           SETLOC   2000
002258:
002259:                                                                                                  #  P20 STORAGE.  -PAD LOADED-    (4D)
002260:
002261: E4,1400                        WRENDPOS           ERASE                                          #  B(1)PL        M B-14
002262: E4,1401                        WRENDVEL           ERASE                                          #  B(1)PL        M/CSECB0
002263: E4,1402                        RMAX               ERASE                                          #  B(1)PL        METERS*2(-19)
002264: E4,1403                        VMAX               ERASE                                          #  B(1)PL        M/CSEC*2(-7)
002265:
002266:                                                                                                  #  P22 STORAGE.  -PAD LOADED-    (5D)
002267: E4,1404                        WORBPOS            ERASE                                          #  B(1)PL        M B-14
002268: E4,1405                        WORBVEL            ERASE                                          #  B(1)PL        M/CSECB0
002269: E4,1406                        S22WSUBL           ERASE                                          #  B(1)PL        M B-14
002270: E4,1407                        RPVAR              ERASE    +1                                    #  B(2)PL
002271:
002272:                                                                                                  #  CONISEX STORAGE.  -PAD LOADED-        (6D)
002273:
002274: E4,1411                        504LM              ERASE    +5                                    #  I(6) MOON LIBRATION VECTOR
002275:
002276:                                                                                                  #  ENTRY STORAGE.            -PAD LOADED-        (2D)
002277: E4,1417                        EMSALT             ERASE    +1                                    #  I(2)PL
002278:
002279:                                                                                                  #  P35 CONSTANTS.   - PAD LOADED-        (4D)
002280: E4,1421                        ATIGINC            ERASE    +1                                    #  B(2)PL
002281: E4,1423                        PTIGINC            ERASE    +1                                    #  B(2)PL
002282:
002283:                                                                                                  #  LUNAR LANDING SIGHT DATA. -PAD LOADED-        (6D)
002284:                                                                                                  #  (USED BY INTEGRATION INITIALIZATION, LAT-LONG SUBROUTINES, P30'S)
002285:
002286: E4,1425                        RLS                ERASE    +5                                    #  I(6) PL  LUNAR LANDING SIGHT VECTOR
002287:
002288:                                                                                                  #  CONISEX (LUNAR AND SOLAR EPHEM) STORAGE.  -PAD LOADED-        (77D)
002289: E4,1433                        TIMEMO             ERASE    +76D
002290: E4,1550  E4,1436               VECOEM             EQUALS   TIMEMO     +3
002291: E4,1550  E4,1532               RESO               EQUALS   VECOEM     +60D


002293: E4,1550  E4,1540               VESO               EQUALS   RESO       +6
002294: E4,1550  E4,1546               OMEGAES            EQUALS   VESO       +6
002295:
002296:                                                                                                  #  FULL INTEGRATION STORAGE.                     (95D)
002297:
002298: E4,1550                        PBODY              ERASE                                          #  I(1)
002299: E4,1551  E4,1551               ALPHAV             EQUALS   PBODY      +1                         #  I(6)TMP
002300: E4,1551  E4,1557               BETAV              EQUALS   ALPHAV     +6                         #  I(6)TMP
002301: E4,1551  E4,1565               PHIV               EQUALS   BETAV      +6                         #  I(6)TMP
002302: E4,1551  E4,1573               PSIV               EQUALS   PHIV       +6                         #  I(6)TMP
002303: E4,1551  E4,1601               FV                 EQUALS   PSIV       +6                         #  I(6)TMP
002304: E4,1551  E4,1607               BETAM              EQUALS   FV         +6                         #  I(6)TMP
002305: E4,1551  E4,1611               H                  EQUALS   BETAM      +2                         #  I(2)TMP
002306: E4,1551  E4,1613               GMODE              EQUALS   H          +2                         #  I(1)TMP
002307: E4,1551  E4,1614               IRETURN            EQUALS   GMODE      +1                         #  I(1)TMP
002308: E4,1551  E4,1615               NORMGAM            EQUALS   IRETURN    +1                         #  I(1)TMP
002309: E4,1551  E4,1616               VECTAB             EQUALS   NORMGAM    +1                         #  I(36)TMP
002310: E4,1551  E4,1662               RPQV               EQUALS   VECTAB     +36D                       #   (6)TMP VECTOR PRIMARY TO SECONDARY BODY
002311: E4,1551  E4,1670               ORIGEX             EQUALS   RPQV       +6                         #  B(1)TMP QSAVE FOR COORD. SWITCH. ROUTINE
002312: E4,1551  E4,1670               KEPRTN             EQUALS   ORIGEX                                #          QSAVE FOR KEPLER
002313: E4,1551  E4,1671               RQVV               EQUALS   ORIGEX     +1                         #   (6)    SEC. BODY TO VEH.VETOR (USED P23)
002314: E4,1551  E4,1677               RPSV               EQUALS   RQVV       +6                         #   (6)TMP SUN TO PRIMARY BODY VECTOR
002315: E4,1551  E4,1705               XKEPNEW            EQUALS   RPSV       +6                         #   (2)TMP ROOT OF KEPLERS EQU FOR TIME TAU
002316:
002317:                                                                                                  #  THESE PROBABLY CAN SHARE INTEGRATION VARIABLES.       (9D)
002318:
002319: E4,1551  E4,1624               VACX               EQUALS   VECTAB     +6                         #  I(2)TMP
002320: E4,1551  E4,1626               VACY               EQUALS   VACX       +2                         #  I(2)TMP
002321: E4,1551  E4,1630               VACZ               EQUALS   VACY       +2                         #  I(2)TMP
002322:
002323: E4,1551  E4,1640               ERADM              EQUALS   VECTAB     +18D                       #  I(2)TMP
002324: E4,1551  E4,1642               INCORPEX           EQUALS   ERADM      +2                         #  I(1)TMP
002325:
002326:                                                                                                  #  R31 (V83) STORAGE. -SHARES WITH INTEGRATION STORAGE-  (24D)
002327:
002328: E4,1551  E4,1624               BASEOTP            EQUALS   VECTAB     +6                         #  I(6) BASE POS VECTOR OTHER VEH
002329: E4,1551  E4,1640               BASEOTV            EQUALS   VECTAB     +18D                       #  I(6) BASE VEL VECTOR OTHER VEH
002330: E4,1551  E4,1654               BASETHP            EQUALS   VECTAB     +30D                       #  I(6) BASE POS VECTOR THIS VEH
002331: E4,1551  E4,1662               BASETHV            EQUALS   RPQV                                  #  I(6) BASE VEL VECTOR THIS VEH
002332:
002333:                                                                                                  #  CONIC INTEGRATION STORAGE. -MAY NOT SHARE WITH SERVICER-      (6D)
002334: E4,1551  E4,1707               ALPHAM             EQUALS   XKEPNEW    +2                         #  I(2)TMP
002335: E4,1551  E4,1711               TAU.               EQUALS   ALPHAM     +2                         #  I(2)TMP
002336: E4,1551  E4,1713               DT/2               EQUALS   TAU.       +2                         #  I(2)TMP
002337:


002339:
002340:                                                                                                  #  P21, R61 STORAGE                      (2D)
002341: E4,1551  E4,1715               P21TIME            EQUALS   DT/2       +2                         #  B(2)TMP
002342:
002343:                                                                                                  #  INTEGRATION STORAGE                   (1D)
002344: E4,1551  E4,1717               EGRESS             EQUALS   P21TIME    +2                         #  I(1)TMP SAVES RETURNS.
002345:
002346:                                                                                                  #  VERB 83 STORAGE                       (20D)
002347:
002348: E4,1551  E4,1720               RANGE              EQUALS   EGRESS     +1                         #  I(2)DSP NOUN 54 DISTANCE TO OPTICAL SUBJ
002349: E4,1551  E4,1722               RRATE              EQUALS   RANGE      +2                         #  I(2)DSP NOUN 54 RATE OF APPROACH
002350: E4,1551  E4,1724               RTHETA             EQUALS   RRATE      +2                         #  I(2)DSP NOUN 54
002351: E4,1551  E4,1726               RONE               EQUALS   RTHETA     +2                         #  I(6)TMP VECTOR STORAGE.  (SCRATCH)
002352: E4,1551  E4,1734               VONE               EQUALS   RONE       +6                         #  I(6)TMP VECTOR STORAGE  (SCRATCH)
002353: E4,1551  E4,1742               BASETIME           EQUALS   VONE       +6                         #  I(2)    BASE TIME ASSOC WITH BASE VECS
002354:
002355:                                                                                                  #  S-BAND ANTENNA GIMBAL ANGLES.  DISPLAYED BY R05 (EXT.VB.64)   (4D)
002356:                                                                                                  #         OPERATION DURING P00 ONLY.
002357: E4,1551  E4,1720               RHOSB              EQUALS   RANGE                                 #  B(2)DSP NOUN 51. PITCH ANGLE
002358: E4,1551  E4,1722               GAMMASB            EQUALS   RHOSB      +2                         #  B(2)DSP NOUN 51. YAWANGLE
002359:
002360:                                                                                                  #  R 36 SCRATCHPAD STORAGE               (13D)
002361: E4,1551  E4,1726               RPASS36            EQUALS   RONE                                  #  I(6) S-S
002362: E4,1551  E4,1734               UNP36              EQUALS   RPASS36    +6                         #  I(6) S-S
002363: E4,1551  E4,1742               OPTIONY            EQUALS   UNP36      +6                         #  I(1)TMP VEHICLE CODE
002364:
002365:                                                                                                  #  EXTENDED VERB 82 STORAGE.             (6D)
002366:
002367: E4,1551  E4,1720               HPERMIN            EQUALS   RANGE                                 #  I(2) SET TO 300KFT OR 35KFT FOR SR30.1
002368: E4,1551  E4,1722               RPADTEM            EQUALS   HPERMIN    +2                         #  I(2) PAD OR LANDING RADIUS FOR SR30.1
002369: E4,1551  E4,1724               TSTART82           EQUALS   RPADTEM    +2                         #  I(2) TEMP TIME STORAGE FOR V82.
002370:
002371:                                                                                                  #  MORE VERB 82 NOT SHARING WITH VERB 83 (9D)
002372: E4,1551  E4,1742               V82FLAGS           EQUALS   VONE       +6                         #   (1) FOR V 82 BITS
002373: E4,1551  E4,1743               TFF                EQUALS   V82FLAGS   +1                         #  I(2)DSP NOUN 50,44
002374: E4,1551  E4,1745               -TPER              EQUALS   TFF        +2                         #  I(2)DSP NOUN 32
002375: E4,1551  E4,1747               THETA(1)           EQUALS   -TPER      +2                         #  I(2)TMP SET AT END OF V82


002377: E4,1551  E4,1755               RSP-RREC           EQUALS   AOPTIME                               #  DSP NOUN 50 FOR V82 DURING P00 AND P11
002378:
002379:                                                                                                  #  REENTRY CONICS                        (6D)
002380: E4,1551  E4,1742               URONE              EQUALS   V82FLAGS                              #  I(6) SAVE ACTUAL FOR CALCULATIONS
002381:
002382:                                                                                                  #  V82 DISPLAY                           (4D)
002383: E4,1551  E4,1751               HAPOX              EQUALS   THETA(1)   +2                         #  I(2)DSP NOUN 44
002384: E4,1551  E4,1753               HPERX              EQUALS   HAPOX      +2                         #  I(2)DSP NOUN 44
002385:
002386:                                                                                                  #  P22 DISPLAY REGISTERS                 (06D)
002387: E4,1551  E4,1755               AOPTIME            EQUALS   HPERX      +2                         #  I(2)TMP FOR SR52.1,ADVTRACK
002388: E4,1551  E4,1757               LANDLONG           EQUALS   AOPTIME    +2                         #  I(2) DSP NOUN 89 FOR P22
002389: E4,1551  E4,1761               LANDALT            EQUALS   LANDLONG   +2                         #  I(2)DSP NOUN 89 FOR P22.
002390:
002391:                                                                                                  #  S34/35.5,P34-P35 STORAGE.             (6D)
002392: E4,1551  E4,1763               KT                 EQUALS   LANDALT    +2                         #  B(2)
002393: E4,1551  E4,1765               VERBNOUN           EQUALS   KT         +2                         #  B(1)TMP
002394: E4,1551  E4,1766               QSAVED             EQUALS   VERBNOUN   +1                         #  B(1)TMP HOLDS RETURN
002395: E4,1551  E4,1767               RTRN               EQUALS   QSAVED     +1                         #  B(1) RETURN
002396: E4,1551  E4,1770               SUBEXIT            EQUALS   RTRN       +1                         #  B(1)TMP
002397:                                                                                                  #  RGEXIT CANT SHARE WITH HPER,HAPO
002398: E4,1551  E4,1770               RGEXIT             EQUALS   SUBEXIT                               #  I(1)TMP Q SAVE MODE 1 AND 2 TO RTRN MAIN
002399:
002400:                                                                                                  #  P30 DISPLAY                           (4D)
002401: E4,1551  E4,1763               HAPO               EQUALS   KT                                    #  I(2)DSP NOUN 42, FOR P30.
002402: E4,1551  E4,1765               HPER               EQUALS   HAPO       +2                         #  I(2)DSP NOUN 42, FOR P30.
002403:
002404:                                                                                                  #  SOME P34 STORAGE.     (OVERLAYS P35.1 STORAGE)        (2D)
002405: E4,1551  E4,1763               NOMTPI             EQUALS   KT                                    #  I(2)TMP NOMINAL TPI TIME FOR RECYCLE
002406:
002407:                                                                                                  #  THE FOLLOWING ARE ERASABLES USED BY THE SYSTEM TESTS.  205 USES TRANSM1  GS ARE NOT USED IN 205 NOR ARE THEY
002408:                                                                                                  #  WHILE 504 USES TRANSM1 AND ALFDK .


002410: E4,1551                        TRANSM1            EQUALS   2000                                  #  (18) INITIALIZATION FOR IMU TESTS
002411: E4,1551  E4,1422               ALFDK              =        TRANSM1    +18D                       #  (144) ERASABLE LOAD IN 504
002412:
002413:                                                                                                  #  END OF PERF. TEST ERASABLE IN BANK 4
002414:
002415:                                                                                                  #  *-*-* V82 *-*-*                       (6D)
002416:
002417: E4,1551  E4,1771               VONE'              EQUALS   RGEXIT     +1                         #  I(6)TMP NORMAL VELOCITY VONE/ SQ RT MU
002418:
002419:                                                                                                  #  PAD LOAD INTEGRATION ERROR INCLUDED IN VARIANCE BY P20        (1D)
002420:
002421: E4,1551  E4,1777               INTVAR             EQUALS   VONE'      +6                         #  I(1)PL        SQUARE OF EXPECTED INTEGRATION
002422:                                                                                                  #                POSITION EXTRAPOLATION ERROR.
002423:                                                                                                  #                SCALED METERS(2) 2(15)
002424: E4,1551  E4,1777               END-E4             EQUALS   INTVAR                                #  LAST USED ERASABLE IN E4
002425:


002427:                                                                                                  #  EBANK-5 ASSIGNMENTS
002428:
002429: E5,1400                                           SETLOC   2400
002430:
002431:                                                                                                  #  *-*-*-*- OVERLAY 1 IN EBANK 5 -*-*-*-*
002432:
002433:                                                                                                  #  W-MATRIX STORAGE.                     (162D)
002434:
002435: E5,1400                        W                  EQUALS   2400                                  #  B(162)
002436: E5,1400                        9X9LOC1            EQUALS   2444
002437: E5,1400                        9X9LOC2            EQUALS   2532
002438:
002439: E5,1400  E5,1570               EMATRIX            =        W          +120D                      #  B(42E USED TO CONVERT W TO 6X6
002440: E5,1400  E5,1642               END-W              EQUALS   W          +162D                      #  **NEXT AVAILABLE LOC AFTER W MATRIX**
002441:
002442:                                                                                                  #  AUTO-OPTICS STORAGE -R52-
002443:
002444:                                                                                                  #  DO NOT MOVE FROM E5,1554.  A DELICATE BALANCE EXISTS BETWEEN THIS AND P03
002445: E5,1400  E5,1554               XNB1               EQUALS   W          +108D                      #  B(6D)TMP
002446: E5,1400  E5,1562               YNB1               EQUALS   XNB1       +6                         #  B(6)TMP
002447: E5,1400  E5,1570               ZNB1               EQUALS   YNB1       +6                         #  B(6)TMP
002448: E5,1400  E5,1576               SAVQR52            EQUALS   ZNB1       +6                         #  I(2)TMP
002449: E5,1400  E5,1600               PLANVEC            EQUALS   SAVQR52    +2                         #  B(6) S-S SIGHTING VECTOR IN REF. COOR.
002450: E5,1400  E5,1606               TSIGHT             EQUALS   PLANVEC    +6                         #  B(2) S-S TIME OF SIGHTING
002451:
002452:                                                                                                  #  RENDEZVOUS -P34-35                    (26D)
002453: E5,1400  E5,1610               DVLOS              EQUALS   TSIGHT     +2                         #  I(6) S-S DELTA VELOCITY, LOS COORD-DISPL1
002454: E5,1400  E5,1610               DELTAR             EQUALS   DVLOS                                 #  I(2)
002455: E5,1400  E5,1610               TINTSOI            EQUALS   DELTAR                                #  I(2) INTERCEPT TIME FOR SOI MANEUVER
002456: E5,1400  E5,1612               DELTTIME           EQUALS   DVLOS      +2                         #  I(2)
002457: E5,1400  E5,1614               TARGTIME           EQUALS   DVLOS      +4                         #  I(2)
002458: E5,1400  E5,1616               UNRM               EQUALS   DVLOS      +6                         #  I(6) S-S
002459: E5,1400  E5,1624               ULOS               EQUALS   UNRM       +6                         #  I(6) S-S UNIT LINE OF SIGHT VECTOR
002460: E5,1400  E5,1632               ACTCENT            EQUALS   ULOS       +6                         #  I(2) S-S CENTRAL ANGLE BETWEEN ACTIVE
002461:                                                                                                  #       VEH AT TPI IGNITION TIME AND
002462:                                                                                                  #       TARGET VECTOR.
002463: E5,1400  E5,1634               DELVTPI            EQUALS   ACTCENT    +2                         #  I(2) NOUN 58 FOR P34.
002464: E5,1400  E5,1636               DELVTPF            EQUALS   DELVTPI    +2                         #  I(2) NOUN 58,59 FOR P34,35.
002465: E5,1400  E5,1640               POSTTPI            EQUALS   DELVTPF    +2                         #  I(2) NOUN 58 FOR P34.
002466: E5,1400  E5,1634               TDEC2              EQUALS   DELVTPI                               #   (2)
002467:
002468:                                                                                                  #  ALIGNMENT                             (12D)


002470: E5,1400  E5,1610               STARSAV1           EQUALS   DVLOS                                 #  I(6)TMP RESTART STAR SAVE.
002471: E5,1400  E5,1616               STARSAV2           EQUALS   STARSAV1   +6                         #  I(6)TMP RESTART STAR SAVE.
002472: E5,1400  E5,1616               US                 =        STARSAV2                              #          (CISLUNAR TAG FOR STARSAV2).
002473:
002474:                                                                                                  #  TPI SEARCH                            (26D)
002475: E5,1400  E5,1610               IT                 EQUALS   DVLOS                                 #   (6)
002476: E5,1400  E5,1616               THETZERO           EQUALS   IT         +6                         #   (2)
002477: E5,1400  E5,1620               TFI                EQUALS   THETZERO   +2                         #   (2)
002478: E5,1400  E5,1622               DELVEE             EQUALS   TFI        +2                         #   (2)
002479: E5,1400  E5,1624               HP                 EQUALS   DELVEE     +2                         #   (2)
002480: E5,1400  E5,1626               TFO                EQUALS   HP         +2                         #   (2)
002481: E5,1400  E5,1630               HPO                EQUALS   TFO        +2                         #   (2)
002482: E5,1400  E5,1632               DELVEO             EQUALS   HPO        +2                         #   (2)
002483: E5,1400  E5,1634               MAGVTPI            EQUALS   DELVEO     +2                         #  I(2)TMP MAG OF DELTAVTPI OR VMID
002484: E5,1400  E5,1636               RELDELV            EQUALS   MAGVTPI    +2                         #  I(2)TMP MAG OF DELTAVTPF
002485: E5,1400  E5,1640               T3TOT4             EQUALS   RELDELV    +2                         #  I(2)DSP NOUN 39 FOR P34,35.  TPI TO TIN
002486:                                                                                                  #  T (CAN NOT SHARE WITH RETURN TO EARTH)


002488:                                                                                                  #  ALIGNMENT/SYSTEST/CALCSMSC/CRS61.1 COMMON STORAGE.    (36D)
002489:                                                                                                  #  (CALCSMSC IS A SUBSET OF S41.1 AT LEAST)
002490:                                                                                                  #  (CRS61.1 IS A SUBSET OF P20)
002491:
002492: E5,1400  E5,1671               XSM                EQUALS   END-W      +23D                       #  B(6)
002493: E5,1400  E5,1677               YSM                EQUALS   XSM        +6                         #  B(6)TMP
002494: E5,1400  E5,1705               ZSM                EQUALS   YSM        +6                         #  B(6)TMP
002495:
002496: E5,1400  E5,1713               XDC                EQUALS   ZSM        +6                         #  B(6)TMP
002497: E5,1400  E5,1721               YDC                EQUALS   XDC        +6                         #  B(6)TMP
002498: E5,1400  E5,1727               ZDC                EQUALS   YDC        +6                         #  B(6)TMP
002499:
002500: E5,1400  E5,1713               XNB                =        XDC
002501: E5,1400  E5,1721               YNB                =        YDC
002502: E5,1400  E5,1727               ZNB                =        ZDC
002503:
002504:                                                                                                  #  OVERLAYS WITHIN ALIGNMENT/SYSTEST/CALCSMSC COMMON STORAGE.
002505:
002506: E5,1400  E5,1673               -COSB              EQUALS   XSM        +2                         #  (2)TMP
002507: E5,1400  E5,1675               SINB               EQUALS   -COSB      +2                         #  (2)TMP
002508:
002509:                                                                                                  #  ALIGNMENT/SYSTEST COMMON STORAGE.     (18D)
002510:
002511: E5,1400  E5,1735               STARAD             EQUALS   ZDC        +6                         #  I(18D)TMP
002512:
002513:                                                                                                  #  ALIGNMENT/SYSTEST/AUTO OPTICS COMMON STORAGE. (17D)
002514:
002515: E5,1400  E5,1757               OGC                EQUALS   STARAD     +18D                       #  I(2)TMP
002516: E5,1400  E5,1761               IGC                EQUALS   OGC        +2                         #  I(2)TMP
002517: E5,1400  E5,1763               MGC                EQUALS   IGC        +2                         #  I(2)TMP
002518: E5,1400  E5,1765               STAR               EQUALS   MGC        +2                         #  I(6)TMP
002519: E5,1400  E5,1773               SAC                EQUALS   STAR       +6                         #  I(2)TMP
002520: E5,1400  E5,1775               PAC                EQUALS   SAC        +2                         #  I(2)TMP
002521: E5,1400  E5,1777               QMIN               EQUALS   PAC        +2                         #  B(1)TMP
002522:
002523:                                                                                                  #  **** COLP50S ****                     (1D)
002524: E5,1400  E5,1735               CULTRIX            EQUALS   VEARTH                                #  VEARTH, VSUN, VMOON
002525:
002526:                                                                                                  #  OVERLAYS WITHIN ALIGNMENT/SYSTEST COMMON STORAGE.     (24D)
002527:
002528: E5,1400  E5,1735               VEARTH             EQUALS   STARAD                                #  (6)TMP
002529: E5,1400  E5,1743               VSUN               EQUALS   VEARTH     +6                         #  (6)TMP
002530: E5,1400  E5,1751               VMOON              EQUALS   VSUN       +6                         #  (6)TMP
002531: E5,1400  E5,1757               SAX                EQUALS   VMOON      +6                         #  (6)TMP
002532:


002534:                                                                                                  #  *-*-*-*- OVERLAY 2 IN EBANK 5 -*-*-*-*
002535:
002536:                                                                                                  #  CONIC ROUTINES STORAGE.                       (87D)
002537:
002538: E5,1400  E5,1642               DELX               EQUALS   END-W                                 #  I(2)TMP
002539: E5,1400  E5,1644               DELT               EQUALS   DELX       +2                         #  I(2)TMP
002540: E5,1400  E5,1646               URRECT             EQUALS   DELT       +2                         #  I(6)TMP
002541: E5,1400  E5,1654               RCNORM             EQUALS   URRECT     +6                         #  I(2)TMP
002542: E5,1400  E3,1552               XPREV              EQUALS   XKEP                                  #  I(2)TMP
002543: E5,1400  E5,1656               R1VEC              EQUALS   RCNORM     +2                         #  I(6)TMP
002544: E5,1400  E5,1664               R2VEC              EQUALS   R1VEC      +6                         #  I(6)TMP
002545: E5,1400  E5,1672               TDESIRED           EQUALS   R2VEC      +6                         #  I(2)TMP
002546: E5,1400  E5,1674               GEOMSGN            EQUALS   TDESIRED   +2                         #  I(1)TMP
002547: E5,1400  E5,1675               UN                 EQUALS   GEOMSGN    +1                         #  I(6)TMP
002548: E5,1400  E5,1703               VTARGTAG           EQUALS   UN         +6                         #  I(1)TMP
002549: E5,1400  E5,1704               VTARGET            EQUALS   VTARGTAG   +1                         #  I(6)TMP
002550: E5,1400  E5,1712               RTNLAMB            EQUALS   VTARGET    +6                         #  I(1)TMP
002551: E5,1400  E5,1713               U2                 EQUALS   RTNLAMB    +1                         #  I(6)TMP
002552: E5,1400  E5,1721               MAGVEC2            EQUALS   U2         +6                         #  I(2)TMP
002553: E5,1400  E5,1723               UR1                EQUALS   MAGVEC2    +2                         #  I(6)TMP
002554: E5,1400  E5,1731               SNTH               EQUALS   UR1        +6                         #  I(2)TMP
002555: E5,1400  E5,1733               CSTH               EQUALS   SNTH       +2                         #  I(2)TMP
002556: E5,1400  E5,1735               1-CSTH             EQUALS   CSTH       +2                         #  I(2)TMP
002557: E5,1400  E5,1737               CSTH-RHO           EQUALS   1-CSTH     +2                         #  I(2)TMP
002558: E5,1400  E5,1741               P                  EQUALS   CSTH-RHO   +2                         #  I(2)TMP
002559: E5,1400  E5,1743               R1A                EQUALS   P          +2                         #  I(2)TMP
002560: E5,1400  E5,1656               RVEC               EQUALS   R1VEC                                 #  I(6)TMP
002561: E5,1400  E5,1745               VVEC               EQUALS   R1A        +2                         #  I(6)TMP
002562: E5,1400  E5,1712               RTNTT              EQUALS   RTNLAMB                               #  I(1)TMP
002563: E5,1400  E5,1753               ECC                EQUALS   VVEC       +6                         #  I(2)TMP
002564: E5,1400  E5,1712               RTNTR              EQUALS   RTNLAMB                               #  I(1)TMP
002565: E5,1400  E5,1712               RTNAPSE            EQUALS   RTNLAMB                               #  I(1)TMP
002566: E5,1400  E5,1721               R2                 EQUALS   MAGVEC2                               #  I(2)TMP
002567: E5,1400  E5,1755               RTNPRM             EQUALS   ECC        +2                         #  I(1)TMP
002568: E5,1400  E5,1756               SGNRDOT            EQUALS   RTNPRM     +1                         #  I(1)TMP
002569: E5,1400  E5,1757               RDESIRED           EQUALS   SGNRDOT    +1                         #  I(2)TMP
002570: E5,1400  E5,1761               DELDEP             EQUALS   RDESIRED   +2                         #  I(2)TMP
002571: E5,1400  E5,1763               DEPREV             EQUALS   DELDEP     +2                         #  I(2)TMP
002572: E5,1400  E5,1761               TERRLAMB           EQUALS   DELDEP                                #  I(2)TMP
002573: E5,1400  E5,1763               TPREV              EQUALS   DEPREV                                #  I(2)TMP
002574:


002576:                                                                                                  #  *-*-*-*- OVERLAY 3 IN EBANK 5 -*-*-*-*
002577:
002578:                                                                                                  #  MEASUREMENT INCORPORATION STORAGE.    (66D)
002579:                                                                                                  #  (CALLED BY P20, P22, P23)
002580:
002581: E5,1400  E5,1642               OMEGAM1            EQUALS   END-W                                 #  I(6)TMP
002582: E5,1400  E5,1650               OMEGAM2            EQUALS   OMEGAM1    +6                         #  I(6)TMP
002583: E5,1400  E5,1656               OMEGAM3            EQUALS   OMEGAM2    +6                         #  I(6)TMP
002584: E5,1400  E5,1664               HOLDW              EQUALS   OMEGAM3    +6                         #  I(18)TMP
002585: E5,1400  E5,1706               TDPOS              EQUALS   HOLDW      +18D                       #  I(6)TMP
002586: E5,1400  E5,1714               TDVEL              EQUALS   TDPOS      +6                         #  I(6)TMP
002587:
002588: E5,1400  E5,1722               ZI                 EQUALS   TDVEL      +6                         #  I(18)
002589:
002590:                                                                                                  #  P22-P23 STORAGE.                      (8D)
002591:
002592: E5,1400  E5,1744               22SUBSCL           EQUALS   ZI         +18D                       #  DE OF ABCDE LANDMARK ID NO.
002593: E5,1400  E5,1745               CXOFF              EQUALS   22SUBSCL   +1                         #  B OF ABCDE OFFSET INDICATOR
002594: E5,1400  E5,1746               8KK                EQUALS   CXOFF      +1                         #  B(1)TMP INDEX OF PRESENT MARK.
002595: E5,1400  E5,1747               8NN                EQUALS   8KK        +1                         #  B(1)TMP
002596: E5,1400  E5,1750               S22LOC             EQUALS   8NN        +1                         #  I(1)TMP MARK DATA LOC
002597: E5,1400  E5,1751               LANDMARK           EQUALS   S22LOC     +1                         #  B(1)DSP NOUN 70 FOR P22,51, R52,53.
002598: E5,1400  E5,1752               HORIZON            EQUALS   LANDMARK   +1                         #  B(1)DSP NOUN 70 FOR P22,51, R52,53.
002599: E5,1400  E5,1753               IDOFLMK            EQUALS   HORIZON    +1                         #  B(1)
002600:
002601:                                                                                                  #  ******P23***                          (1D)
002602: E5,1400  E5,1754               TRUNION            EQUALS   IDOFLMK    +1                         #  B(1)
002603:


002605:
002606:                                                                                                  #  *-*-*-*- OVERLAY 0 IN EBANK 5 -*-*-*-*
002607:
002608:                                                                                                  #  SYSTEM TEST STORAGE.                          (174)
002609:
002610: E5,1400                        AZIMUTH            ERASE    +1
002611: E5,1402                        LATITUDE           ERASE    +1
002612:
002613: E5,1404     1160               TRUNA              EQUALS   DESOPTT
002614: E5,1404     1161               SHAFTA             EQUALS   DESOPTS
002615:
002616: E5,1404                        ERVECTOR           ERASE    +5
002617: E5,1412                        LENGTHOT           ERASE
002618: E5,1413                        LOSVEC             ERASE    +5
002619:
002620: E5,1421  E5,1413               SXTOPTN            =        LOSVEC
002621: E5,1421                        NDXCTR             ERASE
002622: E5,1422                        PIPINDEX           ERASE
002623: E5,1423                        POSITON            ERASE
002624: E5,1424                        QPLAC              ERASE
002625: E5,1425                        QPLACE             ERASE
002626: E5,1426                        QPLACES            ERASE
002627: E5,1427                        RUN                ERASE
002628: E5,1430                        STOREPL            ERASE
002629: E5,1431                        SOUTHDR            ERASE
002630: E5,1432  E5,1431               TARG1/2            =        SOUTHDR
002631: E5,1432                        TAZEL1             ERASE    +5
002632: E5,1440                        TEMPTIME           ERASE    +1
002633: E5,1442                        TMARK              ERASE    +1
002634: E5,1444                        GENPL              ERASE    +134D
002635: E5,1653  E5,1444               CDUTIMEI           =        GENPL
002636: E5,1653  E5,1446               CDUTIMEF           =        GENPL      +2
002637: E5,1653  E5,1450               IMU/OPT            =        GENPL      +4
002638: E5,1653  E5,1451               CDUREADF           =        GENPL      +5
002639: E5,1653  E5,1452               CDUREADI           =        GENPL      +6
002640: E5,1653  E5,1453               CDULIMIT           =        GENPL      +7
002641:
002642: E5,1653  E5,1450               TEMPADD            =        GENPL      +4
002643: E5,1653  E5,1451               TEMP               =        GENPL      +5
002644: E5,1653  E5,1452               NOBITS             =        GENPL      +6
002645: E5,1653  E5,1453               CHAN               =        GENPL      +7
002646:
002647: E5,1653  E5,1454               LOS1               =        GENPL      +8D
002648: E5,1653  E5,1462               LOS2               =        GENPL      +14D
002649:
002650: E5,1653  E5,1470               CALCDIR            EQUALS   GENPL      +20D
002651: E5,1653  E5,1471               CDUFLAG            EQUALS   GENPL      +21D
002652: E5,1653  E5,1472               GYTOBETQ           EQUALS   GENPL      +22D
002653: E5,1653  E5,1473               OPTNREG            EQUALS   GENPL      +23D
002654: E5,1653  E5,1474               SAVE               EQUALS   GENPL      +24D                       #  THREE CONSEC LOC
002655: E5,1653  E5,1477               SFCONST1           EQUALS   GENPL      +27D


002657: E5,1653  E5,1500               TIMER              EQUALS   GENPL      +28D
002658:
002659: E5,1653  E5,1502               DATAPL             EQUALS   GENPL      +30D
002660: E5,1653  E5,1444               RDSP               EQUALS   GENPL                                 #  FIX LATER     POSSIBLY KEEP1
002661: E5,1653  E5,1544               MASKREG            EQUALS   GENPL      +64D
002662: E5,1653  E5,1546               CDUNDX             EQUALS   GENPL      +66D
002663: E5,1653  E5,1547               RESULTCT           EQUALS   GENPL      +67D
002664: E5,1653  E5,1552               COUNTPL            EQUALS   GENPL      +70D
002665:
002666: E5,1653  E5,1553               CDUANG             EQUALS   GENPL      +71D
002667: E5,1653  E5,1444               AINLA              =        GENPL                                 #  OPTIMUM CALIB. AND ALIGNMENT
002668: E5,1653  E5,1444               WANGO              EQUALS   AINLA
002669: E5,1653  E5,1446               WANGI              EQUALS   AINLA      +2D
002670: E5,1653  E5,1450               WANGT              EQUALS   AINLA      +4D
002671: E5,1653  E5,1450               TORQNDX            =        WANGT
002672: E5,1653  E5,1452               DRIFTT             EQUALS   AINLA      +6D
002673: E5,1653  E5,1454               ALX1S              EQUALS   AINLA      +8D
002674: E5,1653  E5,1455               CMPX1              EQUALS   AINLA      +9D
002675: E5,1653  E5,1456               ALK                EQUALS   AINLA      +10D
002676: E5,1653  E5,1472               VLAUNS             EQUALS   AINLA      +22D
002677: E5,1653  E5,1460               THETAX             =        ALK        +2
002678: E5,1653  E5,1474               WPLATO             EQUALS   AINLA      +24D
002679: E5,1653  E5,1500               INTY               EQUALS   AINLA      +28D
002680: E5,1653  E5,1466               THETAN             =        THETAX     +6
002681: E5,1653  E5,1502               ANGZ               EQUALS   AINLA      +30D
002682: E5,1653  E5,1504               INTZ               EQUALS   AINLA      +32D
002683: E5,1653  E5,1506               ANGY               EQUALS   AINLA      +34D
002684: E5,1653  E5,1510               ANGX               EQUALS   AINLA      +36D
002685: E5,1653  E5,1512               DRIFTO             EQUALS   AINLA      +38D
002686: E5,1653  E5,1514               DRIFTI             EQUALS   AINLA      +40D
002687: E5,1653  E5,1520               VLAUN              EQUALS   AINLA      +44D
002688: E5,1653  E5,1474               FILDELV            =        THETAN     +6
002689: E5,1653  E5,1522               ACCWD              EQUALS   AINLA      +46D
002690: E5,1653  E5,1476               INTVEC             =        FILDELV    +2
002691: E5,1653  E5,1530               POSNV              EQUALS   AINLA      +52D
002692: E5,1653  E5,1532               DPIPAY             EQUALS   AINLA      +54D
002693: E5,1653  E5,1536               DPIPAZ             EQUALS   AINLA      +58D
002694: E5,1653  E5,1540               ALTIM              EQUALS   AINLA      +60D
002695: E5,1653  E5,1541               ALTIMS             EQUALS   AINLA      +61D
002696: E5,1653  E5,1542               ALDK               EQUALS   AINLA      +62D
002697: E5,1653  E5,1560               DELM               EQUALS   AINLA      +76D
002698: E5,1653  E5,1570               WPLATI             EQUALS   AINLA      +84D
002699: E5,1653  E5,1577               RESTARPT           =        AINLA      +91D
002700: E5,1653  E5,1631               GEOSAVED           =        AINLA      +117D
002701: E5,1653  E5,1632               PREMTRXC           =        AINLA      +118D
002702: E5,1653  E5,1633               LAUNCHAZ           =        AINLA      +119D
002703: E5,1653  E5,1635               NEWAZMTH           =        AINLA      +121D
002704: E5,1653  E5,1637               OLDAZMTH           =        AINLA      +123D


002706: E5,1653  E5,1641               TOLDAZMT           =        AINLA      +125D
002707: E5,1653  E5,1643               GEOCOMPS           =        AINLA      +127D
002708: E5,1653  E5,1644               1SECXT             =        AINLA      +128D
002709: E5,1653  E5,1645               GTSXTLST           =        AINLA      +129D
002710: E5,1653  E5,1646               ERECTIME           =        AINLA      +130D
002711: E5,1653  E5,1647               ERCOMP             =        AINLA      +131D
002712: E5,1653  E5,1655               ZERONDX            =        AINLA      +137D
002713: E5,1653  E5,1655               GTSOPNDZ           =        ZERONDX
002714:
002715:                                                                                                  #  THE FOLLOWING TAGS ARE USED BY THE 504 IMU CALIBRATION AND ALIGNMENT PROGRAM ONLY.
002716:
002717: E5,1653  E5,1460               THETAX1            EQUALS   ALK        +2
002718: E5,1653  E5,1466               THETAN1            EQUALS   THETAX1    +6
002719: E5,1653  E5,1474               FILDELV1           EQUALS   THETAN1    +6
002720: E5,1653  E5,1476               INTVEC1            EQUALS   FILDELV1   +2
002721: E5,1653  E5,1631               GEOSAVE1           EQUALS   AINLA      +117D
002722: E5,1653  E5,1632               PREMTRX1           EQUALS   AINLA      +118D
002723: E5,1653  E5,1633               LUNCHAZ1           EQUALS   AINLA      +119D
002724: E5,1653  E5,1635               NEWAZ1             EQUALS   LUNCHAZ1   +2
002725: E5,1653  E5,1637               OLDAZ1             EQUALS   LUNCHAZ1   +4
002726: E5,1653  E5,1641               TOLDAZ1            EQUALS   LUNCHAZ1   +6
002727: E5,1653  E5,1643               GEOCOMP1           EQUALS   AINLA      +127D
002728: E5,1653  E5,1644               1SECXT1            EQUALS   AINLA      +128D
002729: E5,1653  E5,1645               GTSWTLT1           EQUALS   AINLA      +129D
002730: E5,1653  E5,1646               ERECTIM1           EQUALS   AINLA      +130D
002731: E5,1653  E5,1647               ERCOMP1            EQUALS   AINLA      +131D                      #  I(6)
002732: E5,1653  E5,1655               ZERONDX1           EQUALS   AINLA      +137D
002733: E5,1653  E5,1656               PERFDLAY           EQUALS   AINLA      +138D                      #  B(2).........
002734:
002735:                                                                                                  #  END OF 504 CAL + ALIGN ERASE.
002736:


002738:
002739:                                                                                                  #  *-*-*-*-  OVERLAY 4 IN EBANK 5  -*-*-*-*
002740:
002741:                                                                                                  #  P32 -- P33                            (26D)
002742: E5,1653  E5,1610               UP1                EQUALS   DVLOS                                 #  I(6)
002743: E5,1653  E5,1616               VPASS2             EQUALS   UP1        +6                         #  I(6)
002744: E5,1653  E5,1624               RPASS2             EQUALS   VPASS2     +6                         #  I(6)
002745: E5,1653  E5,1632               DIFFALT            EQUALS   RPASS2     +6                         #  I(2)
002746: E5,1653  E5,1634               TCDH               EQUALS   DIFFALT    +2                         #  I(2)
002747: E5,1653  E5,1636               TCSI               EQUALS   TCDH       +2                         #  I(2)
002748: E5,1653  E5,1640               TTPIO              EQUALS   TCSI       +2                         #  I(2)
002749:
002750:                                                                                                  #  P32,P33 STORAGE OVERLAYING 9X9 W-MATRIX LOCATIONS     (26D)
002751: E5,1653  E5,1444               DELVEET1           EQUALS   9X9LOC1                               #  I(6) DELV FOR CSI
002752: E5,1653  E5,1452               RACT2              EQUALS   DELVEET1   +6                         #  I(6) POS. ACTIVE VEH. AT CDH TIME
002753: E5,1653  E5,1532               VACT2              EQUALS   9X9LOC2                               #  I(6) VEL. ACTIVE VEH. AT CDH TIME
002754: E5,1653  E5,1540               RACT1              EQUALS   VACT2      +6                         #  I(6) POS. ACTIVE VEH. AT CSI TIME
002755: E5,1653  E5,1546               T1TOT2             EQUALS   RACT1      +6                         #  I(2) TCDH - TCSI
002756: E5,1653  E5,1777               END-E5             EQUALS   QMIN                                  #  LAST USED E5 ADDRESS
002757:


002759:
002760:                                                                                                  #  EBANK-6 ASSIGNMENTS
002761:
002762: E6,1400                                           SETLOC   3000
002763:                                                                                                  #  P23   PAD LOADS ***                   (2D).
002764: E6,1400                        WMIDPOS            ERASE                                          #  I(1)PL INITIAL VALUES FOR W-MATRIX IN
002765: E6,1401                        WMIDVEL            ERASE                                          #  I(1)PL CISLUNAR (P23) NAVIGATION
002766:
002767:                                                                                                  #  R22   PAD LOADS                       (5D).
002768: E6,1402                        RVAR               ERASE    +1                                    #  I(2)PL VHF RADAR
002769: E6,1404                        RVARMIN            ERASE    +2                                    #  I(3)PL VHF RADAR
002770:
002771:                                                                                                  #  ******** PAD LOADED ENTRY DAP STEERING VARIABLES ********     (3D)
002772: E6,1407                        LADPAD             ERASE                                          #  I(1)PL FOR ENTRY. HOLDS CM NOMINAL L/D
002773: E6,1410                        LODPAD             ERASE                                          #  I(1)PL FOR ENTRY. HOLDS CM NOMINAL LOD
002774: E6,1411                        ALFAPAD            ERASE                                          #  B(1)PL ALFA TRIM / 180
002775:
002776:                                                                                                  #  ******** PAD LOADED TVC DAP VARIABLES.**********************************(26D)
002777: E6,1412                        ETDECAY            ERASE                                          #  I(1)PL
002778: E6,1413                        ESTROKER           ERASE                                          #  B(1)PL
002779: E6,1414                        EKPRIME            ERASE    +1                                    #  B(2)PL
002780: E6,1416                        EKTLX/I            ERASE    +2                                    #  B(3)PL
002781: E6,1421                        EREPFRAC           ERASE    +1                                    #  B(2)PL
002782: E6,1423                        PACTOFF            ERASE                                          #  B(1)PL, DSP N48 R01 = PTRIM, R02 = YTRIM
002783: E6,1424                        YACTOFF            ERASE                                          #  B(1)PL, CONSECUTIVE WITH PACTOFF
002784: E6,1425                        HBN10              ERASE                                          #  B(1)
002785: E6,1426                        HBN11/2            ERASE                                          #  B(1)
002786: E6,1427                        HBN12              ERASE                                          #  B(1)
002787: E6,1430                        HBD11/2            ERASE                                          #  B(1)
002788: E6,1431                        HBD12              ERASE                                          #  B(1)
002789: E6,1432                        HBN20              ERASE                                          #  B(1)
002790: E6,1433                        HBN21/2            ERASE                                          #  B(1)
002791: E6,1434                        HBN22              ERASE                                          #  B(1)
002792: E6,1435                        HBD21/2            ERASE                                          #  B(1)
002793: E6,1436                        HBD22              ERASE                                          #  B(1)
002794: E6,1437                        HBN30              ERASE                                          #  B(1)
002795: E6,1440                        HBN31/2            ERASE                                          #  B(1)
002796: E6,1441                        HBN32              ERASE                                          #  B(1)


002798: E6,1442                        HBD31/2            ERASE                                          #  B(1)
002799: E6,1443                        HBD32              ERASE                                          #  B(1)
002800:
002801:                                                                                                  #  ******** EXCLUSIVE TVC DAP VARIABLES. **********************************(5D)
002802: E6,1444                        V97VCNTR           ERASE                                          #  B(1)
002803: E6,1445                        TEMPDAP            ERASE    +1                                    #  B(2)
002804: E6,1447  E6,1445               MRKRTMP            =        TEMPDAP                               #        ((B(1)))
002805: E6,1447                        CNTR               ERASE                                          #  B(1)
002806: E6,1450                        OGAD               ERASE                                          #  B(1)
002807:
002808:                                                                                                  #  ******** EXCLUSIVE RCS DAP VARIABLES.  *********************************(13D)
002809: E6,1451                        RWORD1             ERASE    +12D                                  #  B(1)
002810: E6,1466  E6,1452               RWORD2             EQUALS   RWORD1     +1                         #  B(1)
002811: E6,1466  E6,1453               PWORD1             EQUALS   RWORD2     +1                         #  B(1)
002812: E6,1466  E6,1454               PWORD2             EQUALS   PWORD1     +1                         #  B(1)
002813: E6,1466  E6,1455               YWORD1             EQUALS   PWORD2     +1                         #  B(1)
002814: E6,1466  E6,1456               YWORD2             EQUALS   YWORD1     +1                         #  B(1)
002815: E6,1466  E6,1457               BLAST              EQUALS   YWORD2     +1                         #  B(2)
002816: E6,1466  E6,1461               BLAST1             EQUALS   BLAST      +2                         #  B(2)
002817: E6,1466  E6,1463               BLAST2             EQUALS   BLAST1     +2                         #  B(2)
002818: E6,1466  E6,1465               T5PHASE            EQUALS   BLAST2     +2                         #  B(1)
002819:
002820:                                                                                                  #  ******** RCS/TVC DAP COMMON STORAGE.************************************(16D)
002821: E6,1466                        DAPDATR1           ERASE                                          #  B(1)DSP NOUN 46(R1)
002822: E6,1467                        DAPDATR2           ERASE                                          #  B(1)DSP NOUN 46(R2)
002823:
002824: E6,1470                        IXX                ERASE                                          #  B(1) CONSECUTIVE WITH IAVG, IAVG/TLX FOR
002825: E6,1471                        IAVG               ERASE                                          #  B(1)                            MASSPROP
002826: E6,1472                        IAVG/TLX           ERASE                                          #  B(1)
002827:
002828: E6,1473                        LEMMASS            ERASE                                          #  B(1)DSP NOUN 47 (R2)
002829: E6,1474                        CSMMASS            ERASE                                          #  B(1)DSP NOUN 47 (R1)
002830: E6,1475                        WEIGHT/G           ERASE
002831: E6,1476  E6,1475               MASS               =        WEIGHT/G
002832:
002833: E6,1476                        AK                 ERASE
002834: E6,1477                        AK1                ERASE
002835: E6,1500                        AK2                ERASE
002836:
002837: E6,1501                        RCSFLAGS           ERASE                                          #  B(1) CONSECUTIVE WITHAK2 DOWNLINK
002838: E6,1502                        T5TEMP             ERASE                                          #  B(1)
002839: E6,1503                        EDRIVEX            ERASE
002840: E6,1504                        EDRIVEY            ERASE


002842: E6,1505                        EDRIVEZ            ERASE
002843:
002844:                                                                                                  #  INTEMP THRU INTEMP+14D ARE RESERVED FOR OVERLAYED TVC/RCS INTERUP TRUE TEMPORIES
002845: E6,1506                        INTTEMP            ERASE    +14D                                  #  (15)
002846:
002847:                                                                                                  #  TVC/RCS THRU TVCRCS +11D RESERVED FOR DOWNLINKED VARIABLES
002848: E6,1525                        TVCRCS             ERASE    +11D                                  #  (12)
002849:                                                                                                  #  RCS (WBODYS,ADOTS)
002850:                                                                                                  #  TVC(OMEGACS,OMEGABS)
002851:
002852:                                                                                                  #  TVC DAP TEMPORARY VARIABLES************************************
002853:
002854:                                                                                                  #  TVC DAP INTERUPT TRUE TEMPORARIES******************************
002855:
002856: E6,1541  E6,1506               PHI333             EQUALS   INTTEMP                               #  B(1) COUNTING REGISTER
002857: E6,1541  E6,1507               PSI333             EQUALS   PHI333     +1                         #  B(1) COUNTING REGISTER
002858: E6,1541  E6,1510               TEMP333            EQUALS   PSI333     +1                         #  B(1) MASS TEMPORARY
002859: E6,1541  E6,1511               VARST0             EQUALS   TEMP333    +1                         #  B(8) BREAKPOINTS AND SLOPES
002860: E6,1541  E6,1516               VARST5             =        VARST0     +5
002861: E6,1541  E6,1522               LASTMASP           EQUALS   VARST0     +9D                        #  LAST VARST0 WORD
002862: E6,1541  E6,1523               TVCTMP1            EQUALS   LASTMASP   +1                         #  B(1)
002863:
002864:                                                                                                  #  *******REGULAR TVC TEMPORARIES*************
002865:
002866:                                                                                                  #  TVC ZEROING LOOP STARTS HERE
002867:
002868: E6,1541  E6,1525               OMEGAC             EQUALS   TVCRCS                                #  I(6)
002869: E6,1541  E6,1525               OMEGAXC            =        OMEGAC
002870: E6,1541  E6,1527               OMEGAYC            =        OMEGAC     +2
002871: E6,1541  E6,1531               OMEGAZC            =        OMEGAC     +4
002872:
002873: E6,1541  E6,1533               OMEGAB             EQUALS   TVCRCS     +6                         #  B(6)
002874: E6,1541  E6,1533               OMEGAXB            =        OMEGAB
002875: E6,1541  E6,1535               OMEGAYB            =        OMEGAB     +2
002876: E6,1541  E6,1537               OMEGAZB            =        OMEGAB     +4
002877:
002878: E6,1541  E6,1541               PTMP1              EQUALS   OMEGAC     +12D                       #  B(2)
002879: E6,1541  E6,1543               PTMP2              EQUALS   PTMP1      +2                         #  B(2)
002880: E6,1541  E6,1545               PTMP3              EQUALS   PTMP2      +2                         #  B(2)
002881: E6,1541  E6,1547               PTMP4              EQUALS   PTMP3      +2                         #  B(2)
002882: E6,1541  E6,1551               PTMP5              EQUALS   PTMP4      +2                         #  B(2)


002884: E6,1541  E6,1553               PTMP6              EQUALS   PTMP5      +2                         #  B(2)
002885:
002886: E6,1541  E6,1555               YTMP1              EQUALS   PTMP6      +2                         #  B(2)
002887: E6,1541  E6,1557               YTMP2              EQUALS   YTMP1      +2                         #  B(2)
002888: E6,1541  E6,1561               YTMP3              EQUALS   YTMP2      +2                         #  B(2)
002889: E6,1541  E6,1563               YTMP4              EQUALS   YTMP3      +2                         #  B(2)
002890: E6,1541  E6,1565               YTMP5              EQUALS   YTMP4      +2                         #  B(2)
002891: E6,1541  E6,1567               YTMP6              EQUALS   YTMP5      +2                         #  B(2)
002892:
002893: E6,1541  E6,1571               ROLLFIRE           EQUALS   YTMP6      +2                         #  B(1)
002894: E6,1541  E6,1572               ROLLWORD           EQUALS   ROLLFIRE   +1                         #  B(1)
002895: E6,1541  E6,1573               TEMREG             EQUALS   ROLLWORD   +1                         #  B(1)
002896:
002897: E6,1541  E6,1574               STROKER            EQUALS   TEMREG     +1                         #  B(1)
002898:
002899: E6,1541  E6,1575               PERRB              EQUALS   STROKER    +1                         #  B(2)
002900: E6,1541  E6,1577               YERRB              EQUALS   PERRB      +2                         #  B(2)
002901:
002902: E6,1541  E6,1601               DELPBAR            EQUALS   YERRB      +2                         #  B(2)
002903: E6,1541  E6,1603               DELYBAR            EQUALS   DELPBAR    +2                         #  B(2)
002904:
002905: E6,1541  E6,1605               PDELOFF            EQUALS   DELYBAR    +2                         #  B(2)
002906: E6,1541  E6,1607               YDELOFF            EQUALS   PDELOFF    +2                         #  B(2)
002907:
002908:                                                                                                  #  TVC ZEROING LOOP ENDS HERE
002909: E6,1541  E6,1611               TTMP1              EQUALS   YDELOFF    +2                         #  B(2)
002910: E6,1541  E6,1613               TTMP2              EQUALS   TTMP1      +2                         #  B(2)
002911: E6,1541  E6,1615               DAP1               EQUALS   TTMP2      +2                         #  B(2)
002912: E6,1541  E6,1617               DAP2               EQUALS   DAP1       +2                         #  B(2)
002913: E6,1541  E6,1621               DAP3               EQUALS   DAP2       +2                         #  B(2)
002914:
002915: E6,1541  E6,1623               PCMD               EQUALS   DAP3       +2                         #  B(1)
002916: E6,1541  E6,1624               YCMD               EQUALS   PCMD       +1                         #  B(1), CONSECUTIVE WITH PCMD
002917: E6,1541  E6,1625               T5TVCDT            EQUALS   YCMD       +1                         #  B(1)
002918: E6,1541  E6,1626               MDT                EQUALS   T5TVCDT    +1                         #  I(6)
002919: E6,1541  E6,1634               KPRIMEDT           EQUALS   MDT        +6                         #  I(2)
002920: E6,1541  E6,1636               KTLX/I             EQUALS   KPRIMEDT   +2                         #  B(1)
002921: E6,1541  E6,1637               TENMDOT            EQUALS   KTLX/I     +1                         #  B(1)
002922: E6,1541  E6,1640               1/CONACC           EQUALS   TENMDOT    +1                         #  B(1)
002923: E6,1541  E6,1641               VARK               EQUALS   1/CONACC   +1                         #  B(1)
002924: E6,1541  E6,1642               REPFRAC            EQUALS   VARK       +1                         #  B(1)
002925: E6,1541  E6,1643               VCNTR              EQUALS   REPFRAC    +1                         #  B(1)
002926: E6,1541  E6,1644               TVCPHASE           EQUALS   VCNTR      +1                         #  B(1)
002927: E6,1541  E6,1645               PCDUYPST           EQUALS   TVCPHASE   +1                         #  B(1)
002928: E6,1541  E6,1646               PCDUZPST           EQUALS   PCDUYPST   +1                         #  B(1)
002929: E6,1541  E6,1647               MCDUYDOT           EQUALS   PCDUZPST   +1                         #  B(1)
002930: E6,1541  E6,1650               MCDUZDOT           EQUALS   MCDUYDOT   +1                         #  B(1)


002932: E6,1541  E6,1651               TVCEXPHS           EQUALS   MCDUZDOT   +1                         #  B(1)
002933: E6,1541  E6,1652               MASSTMP            EQUALS   TVCEXPHS   +1                         #  B(1)  PROTECT
002934: E6,1541  E6,1653               VCNTRTMP           EQUALS   MASSTMP    +1                         #  B(1)    *PROTECT***
002935:
002936:                                                                                                  #  STROKE TEST VARIABLES
002937:
002938:                                                                                                  #  (6D)
002939: E6,1541  E6,1654               STRKTIME           EQUALS   VCNTRTMP   +1                         #  B(1)
002940: E6,1541  E6,1655               CADDY              EQUALS   STRKTIME   +1                         #  B(1)
002941: E6,1541  E6,1656               N                  EQUALS   CADDY      +1                         #  B(1)
002942: E6,1541  E6,1657               BUNKER             EQUALS   N          +1                         #  B(1)
002943: E6,1541  E6,1660               REVS               EQUALS   BUNKER     +1                         #  B(1)
002944: E6,1541  E6,1661               CARD               EQUALS   REVS       +1                         #  B(1)
002945:
002946:                                                                                                  #  TVC ROLL DAP VARIABLES
002947:
002948:                                                                                                  #  (8D)
002949: E6,1541  E6,1662               OGANOW             EQUALS   CARD       +1                         #  B(1)
002950: E6,1541  E6,1663               OGAPAST            EQUALS   OGANOW     +1                         #  B(1)
002951: E6,1541  E6,1664               OGA                EQUALS   OGAPAST    +1                         #  B(1)TMP
002952: E6,1541  E6,1664               OGAERR             =        OGA                                   #  (ROLL DAP USES OGA, MEANS OGAERROR)
002953: E6,1541  E6,1665               DELOGART           EQUALS   OGA        +1                         #  B(1)TMP
002954: E6,1541  E6,1666               SGNRT              EQUALS   DELOGART   +1                         #  SIGN OF OGA RATE
002955: E6,1541  E6,1667               DELOGA             EQUALS   SGNRT      +1                         #  USED IN ROLL LOGIC
002956: E6,1541  E6,1670               I                  EQUALS   DELOGA     +1                         #  USED IN ROLL LOGIC
002957: E6,1541  E6,1671               IOGARATE           EQUALS   I          +1                         #  USED IN ROLL LOGIC
002958:
002959:                                                                                                  #  TVC DAP RESTART TEMPORARIES.
002960: E6,1541  E6,1672               PACTTMP            EQUALS   IOGARATE   +1                         #  B(2)
002961: E6,1541  E6,1674               YACTTMP            EQUALS   PACTTMP    +2                         #  B(2)
002962: E6,1541  E6,1676               CNTRTMP            EQUALS   YACTTMP    +2                         #  B(1)
002963: E6,1541  E6,1677               STRKTTMP           EQUALS   CNTRTMP    +1                         #  B(1)
002964: E6,1541  E6,1700               DELBRTMP           EQUALS   STRKTTMP   +1                         #  B(2)
002965: E6,1541  E6,1702               ERRBTMP            EQUALS   DELBRTMP   +2                         #  B(2)
002966: E6,1541  E6,1704               CMDTMP             EQUALS   ERRBTMP    +2                         #  B(2)
002967:
002968: E6,1541  E6,1706               TMP1               EQUALS   CMDTMP     +2                         #  B(2)
002969: E6,1541  E6,1710               TMP2               EQUALS   TMP1       +2                         #  B(2)
002970: E6,1541  E6,1712               TMP3               EQUALS   TMP2       +2                         #  B(2)
002971: E6,1541  E6,1714               TMP4               EQUALS   TMP3       +2                         #  B(2)
002972: E6,1541  E6,1716               TMP5               EQUALS   TMP4       +2                         #  B(2)
002973: E6,1541  E6,1720               TMP6               EQUALS   TMP5       +2                         #  B(2)
002974:
002975:                                                                                                  #  TVC DAP FILTER COEFFICIENTS TEMPORARIES
002976: E6,1541  E6,1722               COEFFADR           EQUALS   TMP6       +2                         #  B(1)
002977: E6,1541  E6,1723               N10                EQUALS   COEFFADR   +1                         #  I(15)


002979:
002980:                                                                                                  #  OVERLAYS WITHIN TVC DAP
002981:
002982: E6,1541  E6,1533               OGARATE            =        OMEGAB                                #  B(2)
002983:
002984: E6,1541  E6,1611               PHASETMP           =        TTMP1                                 #  B(1) RESTART FOR CSM/LM V46 SWITCH-OVER
002985: E6,1541  E6,1613               RTRNLOC            =        TTMP2                                 #  B(1) RESTART FOR CSM/LM V46 SWITCH-OVER
002986: E6,1541  E6,1702               BZERO              =        ERRBTMP
002987: E6,1541  E6,1702               CZERO              =        ERRBTMP
002988: E6,1541  E6,1704               JZERO              =        CMDTMP
002989: E6,1541  E6,1704               YZERO              =        CMDTMP
002990:
002991:                                                                                                  #  S40.9 STORAGE..........
002992:
002993: E6,1541  E6,1742               NBRCYCLS           EQUALS   N10        +15D                       #  B(1) COUNTER FOR P40,41 STEERING
002994: E6,1541  E6,1743               NBRCYCLP           EQUALS   NBRCYCLS   +1                         #  B(1) MAINTAIN ORDER
002995: E6,1541  E6,1744               DELVSUM            EQUALS   NBRCYCLP   +1                         #  I(6) P40,P41
002996: E6,1541  E6,1752               DELVSUMP           EQUALS   DELVSUM    +6                         #  I(6) P40,P41
002997:


002999:                                                                                                  #  ******** RCS DAP TEMPORARY VARIABLES.***********************************(95D)
003000:
003001:                                                                                                  #  **RCS INTERUPT TRUE TEMPS *************************                     15D
003002: E6,1541  E6,1506               SPNDX              EQUALS   INTTEMP                               #  B(1)
003003: E6,1541  E6,1507               DPNDX              EQUALS   SPNDX      +1                         #  B(1)TMP
003004: E6,1541  E6,1510               KMPAC              EQUALS   DPNDX      +1                         #  B(2)TMP
003005: E6,1541  E6,1512               KMPTEMP            EQUALS   KMPAC      +2                         #  B(1)TMP
003006:
003007: E6,1541  E6,1513               XNDX1              EQUALS   KMPTEMP    +1                         #  B(1)TMP XNDX1 THRU NYJETS ARE OVERLAYED
003008: E6,1541  E6,1514               XNDX2              EQUALS   XNDX1      +1                         #  B(1)TMP BY OTHER DAP ERASABLES SO
003009: E6,1541  E6,1515               YNDX               EQUALS   XNDX2      +1                         #  B(1)TMP SHOULD ALWAYS BE DEFINED IN
003010: E6,1541  E6,1516               ZNDX               EQUALS   YNDX       +1                         #  B(1)TMP A BLOCK
003011: E6,1541  E6,1517               RINDEX             EQUALS   ZNDX       +1                         #  B(1)TMP
003012: E6,1541  E6,1520               PINDEX             EQUALS   RINDEX     +1                         #  B(1)TMP
003013: E6,1541  E6,1521               YINDEX             EQUALS   PINDEX     +1                         #  B(1)TMP
003014: E6,1541  E6,1522               NRJETS             EQUALS   YINDEX     +1                         #  B(1)TMP
003015: E6,1541  E6,1523               NPJETS             EQUALS   NRJETS     +1                         #  B(1)TMP
003016: E6,1541  E6,1524               NYJETS             EQUALS   NPJETS     +1                         #  B(1)TMP
003017:
003018: E6,1541  E6,1513               WTEMP              EQUALS   XNDX1                                 #  B(2)TMP WTEMP THRU DELTEMPZ OVERLAY
003019: E6,1541  E6,1515               DELTEMPX           EQUALS   WTEMP      +2                         #  B(2)TMP XNDX1 THRU NRJETS AND EDOT THRU
003020: E6,1541  E6,1517               DELTEMPY           EQUALS   DELTEMPX   +2                         #  B(2)TMP ADBVEL
003021: E6,1541  E6,1521               DELTEMPZ           EQUALS   DELTEMPY   +2                         #  B(2)TMP
003022:
003023: E6,1541  E6,1515               EDOT               EQUALS   YNDX                                  #  B(2)TMP EDOT THRU ADBVEL OVERLAY
003024: E6,1541  E6,1517               AERR               EQUALS   EDOT       +2                         #  B(1)TMP YNDX THRU NPJETS AND DELTEMPX
003025: E6,1541  E6,1520               EDOTVEL            EQUALS   AERR       +1                         #  B(2)TMP THRU DELTEMPZ
003026: E6,1541  E6,1522               AERRVEL            EQUALS   EDOTVEL    +2                         #  B(1)TMP
003027: E6,1541  E6,1523               ADBVEL             EQUALS   AERRVEL    +1                         #  B(1)TMP
003028:
003029:                                                                                                  #  *** REGULAR RCS TEMPS*****************************                      (   ).
003030:
003031:                                                                                                  #   RCS ZEROING LOOP STARTS HERE****  ** **  ** ***   *** * *              (37)
003032: E6,1541  E6,1525               WBODY              EQUALS   TVCRCS                                #  B(2)TMP
003033: E6,1541  E6,1527               WBODY1             EQUALS   WBODY      +2                         #  B(2)TMP
003034: E6,1541  E6,1531               WBODY2             EQUALS   WBODY      +4                         #  B(2)TMP
003035: E6,1541  E6,1533               ADOT               EQUALS   WBODY2     +2                         #  B(2)TMP
003036: E6,1541  E6,1535               ADOT1              EQUALS   ADOT       +2                         #  B(2)TMP
003037: E6,1541  E6,1537               ADOT2              EQUALS   ADOT1      +2                         #  B(2)TMP
003038:
003039: E6,1541  E6,1541               MERRORX            EQUALS   ADOT2      +2                         #   (2)
003040: E6,1541  E6,1543               MERRORY            EQUALS   MERRORX    +2                         #   (2)
003041: E6,1541  E6,1545               MERRORZ            EQUALS   MERRORY    +2                         #   (2)
003042: E6,1541  E6,1547               DFT                EQUALS   MERRORZ    +2                         #  B(1)TMP
003043: E6,1541  E6,1550               DFT1               EQUALS   DFT        +1                         #  B(1)TMP
003044: E6,1541  E6,1551               DFT2               EQUALS   DFT1       +1                         #  B(1)TMP
003045: E6,1541  E6,1552               DRHO               EQUALS   DFT2       +1                         #  B(2)TMP
003046: E6,1541  E6,1554               DRHO1              EQUALS   DRHO       +2                         #  B(2)TMP


003048: E6,1541  E6,1556               DRHO2              EQUALS   DRHO1      +2                         #  B(2)TMP
003049: E6,1541  E6,1560               ATTSEC             EQUALS   DRHO2      +2                         #  B(1)TMP
003050: E6,1541  E6,1561               TAU                EQUALS   ATTSEC     +1                         #  B(1)TMP
003051: E6,1541  E6,1562               TAU1               EQUALS   TAU        +1                         #  B(1)TMP
003052: E6,1541  E6,1563               TAU2               EQUALS   TAU1       +1                         #  B(1)TMP
003053: E6,1541  E6,1564               BIAS               EQUALS   TAU2       +1                         #  B(1)TMP
003054: E6,1541  E6,1565               BIAS1              EQUALS   BIAS       +1                         #  B(1)TMP
003055: E6,1541  E6,1566               BIAS2              EQUALS   BIAS1      +1                         #  B(1)TMP
003056: E6,1541  E6,1567               ERRORX             EQUALS   BIAS2      +1                         #  B(1)TMP
003057: E6,1541  E6,1570               ERRORY             EQUALS   ERRORX     +1                         #  B(1)TMP
003058: E6,1541  E6,1571               ERRORZ             EQUALS   ERRORY     +1                         #  B(1)TMP
003059:
003060:                                                                                                  #  RCS ZERO LOOP ENDS HERE
003061:                                                                                                  #        MORE RCS                        (69D)
003062: E6,1541  E6,1572               THETADX            EQUALS   ERRORZ     +1                         #  B(1)TMP MUST BE CONSECUTIVE WITH ERRORZ
003063: E6,1541  E6,1573               THETADY            EQUALS   THETADX    +1                         #  B(1)TMP
003064: E6,1541  E6,1574               THETADZ            EQUALS   THETADY    +1                         #  B(1)TMP
003065:
003066: E6,1541  E6,1575               DELCDUX            EQUALS   THETADZ    +1                         #  B(2)TMP
003067: E6,1541  E6,1577               DELCDUY            EQUALS   DELCDUX    +2                         #  B(2)TMP
003068: E6,1541  E6,1601               DELCDUZ            EQUALS   DELCDUY    +2                         #  B(2)TMP
003069:
003070: E6,1541  E6,1603               DCDU               EQUALS   DELCDUZ    +2                         #  B(6)TMP USED DURING P20
003071: E6,1541  E6,1611               DTHETASM           EQUALS   DCDU       +6                         #  B(6)TMP STEER LOW OUTPUT.
003072:
003073: E6,1541  E6,1617               ATTKALMN           EQUALS   DTHETASM   +6                         #  B(1)TMP
003074: E6,1541  E6,1620               KMJ                EQUALS   ATTKALMN   +1                         #  B(1)TMP
003075: E6,1541  E6,1621               KMJ1               EQUALS   KMJ        +1                         #  B(1)TMP
003076: E6,1541  E6,1622               KMJ2               EQUALS   KMJ1       +1                         #  B(1)TMP
003077: E6,1541  E6,1623               J/M                EQUALS   KMJ2       +1                         #  B(1)TMP
003078: E6,1541  E6,1624               J/M1               EQUALS   J/M        +1                         #  B(1)TMP
003079: E6,1541  E6,1625               J/M2               EQUALS   J/M1       +1                         #  B(1)TMP
003080: E6,1541  E6,1626               RACFAIL            EQUALS   J/M2       +1                         #  B(1)TMP
003081: E6,1541  E6,1627               RBDFAIL            EQUALS   RACFAIL    +1                         #  B(1)TMP
003082: E6,1541  E6,1630               ACORBD             EQUALS   RBDFAIL    +1                         #  B(1)TMP
003083: E6,1541  E6,1631               XTRANS             EQUALS   ACORBD     +1                         #  B(1)TMP
003084: E6,1541  E6,1632               CH31TEMP           EQUALS   XTRANS     +1                         #  B(1)TMP
003085: E6,1541  E6,1633               CHANTEMP           EQUALS   CH31TEMP   +1                         #  B(1)TMP
003086: E6,1541  E6,1634               T5TIME             EQUALS   CHANTEMP   +1                         #  B(1)TMP
003087: E6,1541  E6,1635               RHO                EQUALS   T5TIME     +1                         #  B(1)TMP
003088: E6,1541  E6,1636               RHO1               EQUALS   RHO        +1                         #  B(1)TMP
003089: E6,1541  E6,1637               RHO2               EQUALS   RHO1       +1                         #  B(1)TMP
003090: E6,1541  E6,1640               AMGB1              EQUALS   RHO2       +1                         #  B(1)TMP
003091: E6,1541  E6,1641               AMGB4              EQUALS   AMGB1      +1                         #  B(1)TMP


003093: E6,1541  E6,1642               AMGB5              EQUALS   AMGB4      +1                         #  B(1)TMP
003094: E6,1541  E6,1643               AMGB7              EQUALS   AMGB5      +1                         #  B(1)TMP
003095: E6,1541  E6,1644               AMGB8              EQUALS   AMGB7      +1                         #  B(1)TMP
003096: E6,1541  E6,1645               CAPSI              EQUALS   AMGB8      +1                         #  B(1)TMP
003097: E6,1541  E6,1646               CDUXD              EQUALS   CAPSI      +1                         #  B(2)TMP
003098: E6,1541  E6,1650               CDUYD              EQUALS   CDUXD      +2                         #  B(2)TMP
003099: E6,1541  E6,1652               CDUZD              EQUALS   CDUYD      +2                         #  B(2)TMP
003100: E6,1541  E6,1654               SLOPE              EQUALS   CDUZD      +2                         #  B(1)TMP
003101: E6,1541  E6,1655               ADB                EQUALS   SLOPE      +1                         #  B(1)TMP
003102: E6,1541  E6,1656               RMANNDX            EQUALS   ADB        +1                         #  B(1)TMP
003103: E6,1541  E6,1657               PMANNDX            EQUALS   RMANNDX    +1                         #  B(1)TMP
003104: E6,1541  E6,1660               YMANNDX            EQUALS   PMANNDX    +1                         #  B(1)TMP MUST BE LAST VARIABLE IN RCS
003105:


003107:                                                                                                  #  ******** ENTRY DAP TEMPORARY VARIABLES.*********************************(69D)
003108:
003109:                                                                                                  #  ANGLE REGISTERS FOR ENTRY DAPS
003110: E6,1541  E6,1661               AOG                EQUALS   BCDU                                  #  1P
003111: E6,1541  E6,1662               AIG                EQUALS   AOG        +1                         #  1P
003112: E6,1541  E6,1663               AMG                EQUALS   AIG        +1                         #  1P
003113: E6,1541  E6,1664               ROLL/180           EQUALS   AMG        +1                         #  1P
003114: E6,1541  E6,1665               ALFA/180           EQUALS   ROLL/180   +1                         #  1P
003115: E6,1541  E6,1666               BETA/180           EQUALS   ALFA/180   +1                         #  1P
003116: E6,1541  E6,1667               AOG/PIP            EQUALS   BETA/180   +1                         #  1P
003117: E6,1541  E6,1670               AIG/PIP            EQUALS   AOG/PIP    +1                         #  1P
003118: E6,1541  E6,1671               AMG/PIP            EQUALS   AIG/PIP    +1                         #  1P
003119: E6,1541  E6,1672               ROLL/PIP           EQUALS   AMG/PIP    +1                         #  1P
003120: E6,1541  E6,1673               ALFA/PIP           EQUALS   ROLL/PIP   +1                         #  1P
003121: E6,1541  E6,1674               BETA/PIP           EQUALS   ALFA/PIP   +1                         #  1P
003122:
003123:                                                                                                  #  GYMBAL DIFFERENCES OVER INTERVAL TCDU = .1 SEC.
003124: E6,1541  E6,1675               -DELAOG            EQUALS   BETA/PIP   +1                         #  1P
003125: E6,1541  E6,1676               -DELAIG            EQUALS   -DELAOG    +1                         #  1P
003126: E6,1541  E6,1677               -DELAMG            EQUALS   -DELAIG    +1                         #  1P
003127:
003128:                                                                                                  #  ESTIMATED BODY RATES
003129: E6,1541  E6,1700               CMDAPMOD           EQUALS   -DELAMG    +1                         #  1P GOES BEFORE PREL FOR TM.
003130:
003131: E6,1541  E6,1701               PREL               EQUALS   CMDAPMOD   +1                         #  1P P TCDU/180         (ROLLDOT)
003132: E6,1541  E6,1702               QREL               EQUALS   PREL       +1                         #  1P Q TCDU/180         (PITCHDOT)
003133: E6,1541  E6,1703               RREL               EQUALS   QREL       +1                         #  1P R TCDU/180         (YAWDOT)
003134:
003135: E6,1541  E6,1704               BETADOT            EQUALS   RREL       +1                         #  1P MUST FOLLOW RREL. BETADOT TCDU/180
003136: E6,1541  E6,1705               PHIDOT             EQUALS   BETADOT    +1                         #  1P
003137:
003138:                                                                                                  #  OLD (UNAVERAGED) BODY RATE MEASURE
003139: E6,1541  E6,1706               OLDELP             EQUALS   PHIDOT     +1                         #  1P
003140: E6,1541  E6,1707               OLDELQ             EQUALS   OLDELP     +1                         #  1P
003141: E6,1541  E6,1710               OLDELR             EQUALS   OLDELQ     +1                         #  1P
003142:
003143: E6,1541  E6,1711               JETAG              EQUALS   OLDELR     +1                         #  1P
003144: E6,1541  E6,1712               TUSED              EQUALS   JETAG      +1                         #  1P ELAPSED TIME SINCE NOMINAL UPDATE.
003145:
003146:                                                                                                  #  FOLLOWING 3 SP WORDS IN DOWNLINK.  ROLLTM SENT EACH 1 SEC.
003147: E6,1541  E6,1713               PAXERR1            EQUALS   TUSED      +1                         #  1P INTEGRATED ROLL ERROR/360.
003148: E6,1541  E6,1714               ROLLTM             EQUALS   PAXERR1    +1                         #  1P ROLL/180 FOR TM.
003149: E6,1541  E6,1715               ROLLC              EQUALS   ROLLTM     +1                         #  2P ROLLCOM/360 FROM ENTRY (FOR TM)
003150:                                                                                                  #  >> KEEP ROLLC & ROLLHOLD ADJACENT FOR TP


003152: E6,1541  E6,1717               ROLLHOLD           EQUALS   ROLLC      +2                         #  1P FOR ATTITUDE HOLD IN CMDAPMOD = +1
003153:
003154:                                                                                                  #  ENTRY DAP QUANTITIES THAT SHARE WITH RCS DAP.
003155: E6,1541  E6,1603               ALFACOM            EQUALS   DCDU                                  #  1P KEEP ADJACENT TO BETACOM. <<
003156: E6,1541  E6,1604               BETACOM            EQUALS   ALFACOM    +1                         #  1P
003157:
003158:                                                                                                  #  JET LIST:  DT, JETBITS IN THIS ORDER.
003159: E6,1541  E6,1605               TOFF               EQUALS   BETACOM    +1                         #  1P DP PAIR
003160: E6,1541  E6,1606               TBITS              EQUALS   TOFF       +1                         #  1P
003161: E6,1541  E6,1607               TON2               EQUALS   TBITS      +1                         #  1P DP PAIR
003162: E6,1541  E6,1610               T2BITS             EQUALS   TON2       +1                         #  1P
003163:
003164:                                                                                                  #  MISCELLANEOUS PERMANENT ERASEABLE.
003165: E6,1541  E6,1611               OUTTAG             EQUALS   T2BITS     +1                         #  1P
003166: E6,1541  E6,1612               NUJET              EQUALS   OUTTAG     +1                         #  1P
003167:
003168:                                                                                                  #  MORE ENTRY DAP QUANTITIES THAT DO NOT SHARE WITH RCS DAP.
003169: E6,1541  E6,1720               JETEM              EQUALS   ROLLHOLD   +1                         #  2P THIS DP USED IN RATEAVG.
003170: E6,1541  E6,1722               GAMA               EQUALS   JETEM      +2                         #  1P
003171: E6,1541  E6,1723               GAMDOT             EQUALS   GAMA       +1                         #  1P
003172: E6,1541  E6,1724               POSEXIT            EQUALS   GAMDOT     +1                         #  1P
003173: E6,1541  E6,1725               CM/GYMDT           EQUALS   POSEXIT    +1                         #  1P
003174: E6,1541  E6,1726               HEADSUP            EQUALS   CM/GYMDT   +1                         #  1P DSP NOUN 61 FOR P62,63,64,67.
003175: E6,1541  E6,1727               P63FLAG            EQUALS   HEADSUP    +1                         #  1P INTERLOCK FOR WAKEP62
003176:
003177:                                                                                                  # >> SHARE BELOW WITH RCS RUPT TEMPS (< 15D) <<<
003178: E6,1541  E6,1506               CALFA              EQUALS   SPNDX                                 #  1P
003179: E6,1541  E6,1507               SALFA              EQUALS   CALFA      +1                         #  1P
003180:
003181: E6,1541  E6,1510               SINM               EQUALS   SALFA      +1                         #  1P
003182: E6,1541  E6,1511               COSM               EQUALS   SINM       +1                         #  1P
003183: E6,1541  E6,1512               SINO               EQUALS   COSM       +1                         #  1P
003184: E6,1541  E6,1513               COSO               EQUALS   SINO       +1                         #  1P
003185: E6,1541  E6,1514               SINOCOSM           EQUALS   COSO       +1                         #  1P
003186: E6,1541  E6,1515               COSOCOSM           EQUALS   SINOCOSM   +1                         #  1P
003187:                                                                                                  # >> SHARE ABOVE WITH RCS RUPT TEMPS <<<
003188:
003189:                                                                                                  #  THE FOLLOWING FEW REGISTERS USED ONCE EACH 2 SEC.
003190: E6,1541  E6,1613               -VT/180            EQUALS   NUJET      +1                         #  1P
003191: E6,1541  E6,1614               LCX/360            EQUALS   -VT/180    +1                         #  1P
003192: E6,1541  E6,1615               XD/360             EQUALS   LCX/360    +1                         #  1P
003193: E6,1541  E6,1616               VSQ/4API           EQUALS   XD/360     +1                         #  1P
003194: E6,1541  E6,1617               JNDX               EQUALS   VSQ/4API   +1                         #  1P
003195: E6,1541  E6,1620               JNDX1              EQUALS   JNDX       +1                         #  1P


003197: E6,1541  E6,1621               TON1               EQUALS   JNDX1      +1                         #  1P DP PAIR
003198: E6,1541  E6,1622               T1BITS             EQUALS   TON1       +1                         #  1P
003199:
003200:                                                                                                  #  MISCELLANEOUS REGISTERS USED EACH UPDATE.
003201: E6,1541  E6,1623               CM/SAVE            EQUALS   T1BITS     +1                         #  1P
003202: E6,1541  E6,1624               JETEM2             EQUALS   CM/SAVE    +1                         #  1P TEMPORARY STORAGE
003203:
003204:                                                                                                  #  DAP QUANTITIES SHARED WITH RCS DAP FOR TM & FLIGHT RECORDER.
003205: E6,1541  E6,1567               VDT/180            =        ERRORX                                #  1P (EDIT)
003206: E6,1541  E6,1570               -VT/180E           =        ERRORY                                #  1P (EDIT)
003207:
003208: E6,1541  E6,1476               PAXERR             EQUALS   AK                                    #  1P ROLL ERROR FOR NEEDLES
003209: E6,1541  E6,1572               QAXERR             =        THETADX                               #  1P SINCE AK1 IS ZEROED IN ATM DAP.
003210: E6,1541  E6,1573               RAXERR             =        QAXERR     +1                         #  1P SINCE AK2 IS ZEROED IN TM DAP.
003211:
003212:                                                                                                  #  **** COLMANU (R60,R62) ****
003213: E6,1541  E6,1710               VECQTEMP           EQUALS   COFSKEW
003214:


003216:                                                                                                  #  ******** KALCMANU VARIABLES. (71D) *************************************
003217: E6,1541  E6,1661               BCDU               EQUALS   YMANNDX    +1                         #  B(3)TMP
003218: E6,1541  E6,1664               KSPNDX             EQUALS   BCDU       +3                         #  B(1)TMP
003219: E6,1541  E6,1665               KDPNDX             EQUALS   KSPNDX     +1                         #  B(1)TMP
003220:
003221: E6,1541  E6,1666               TMIS               EQUALS   KDPNDX     +1                         #  I(18) MUST BE IN SAME BANK AS RCS DAP
003222: E6,1541  E6,1710               COFSKEW            EQUALS   TMIS       +18D                       #  I(6)  MUST BE IN SAME BANK AS RCS DAP
003223: E6,1541  E6,1716               CAM                EQUALS   COFSKEW    +6                         #  I(2)  MUST BE IN SAME BANK AS RCS DAP
003224:
003225: E6,1541  E6,1720               MIS                EQUALS   CAM        +2                         #  I(18) (THE REST MAY GO ANYWHERE)
003226: E6,1541  E6,1742               COF                EQUALS   MIS        +18D                       #  I(6)TMP
003227: E6,1541  E6,1750               SCAXIS             EQUALS   COF        +6                         #  I(6)TMP
003228: E6,1541  E6,1756               POINTVSM           EQUALS   SCAXIS     +6                         #  I(6)TMP
003229: E6,1541  E6,1764               AM                 EQUALS   POINTVSM   +6                         #  I(2)TMP
003230: E6,1541  E6,1766               RAD                EQUALS   AM         +2                         #  I(2)TMP
003231:
003232:                                                                                                  #  FIRST-ORDER OVERLAYS IN KALCMANU
003233: E6,1541  E6,1666               KV1                EQUALS   TMIS                                  #  I(6)TMP
003234: E6,1541  E6,1666               MFISYM             EQUALS   TMIS                                  #  I   TMP
003235: E6,1541  E6,1666               TMFI               EQUALS   TMIS                                  #  I   TMP
003236: E6,1541  E6,1666               NCDU               EQUALS   TMIS                                  #  B   TMP
003237: E6,1541  E6,1671               NEXTIME            EQUALS   TMIS       +3                         #  B   TMP
003238: E6,1541  E6,1672               TTEMP              EQUALS   TMIS       +4                         #  B   TMP
003239: E6,1541  E6,1674               KV2                EQUALS   TMIS       +6                         #  I(6)TMP
003240: E6,1541  E6,1674               BIASTEMP           EQUALS   TMIS       +6                         #  B   TMP
003241: E6,1541  E6,1702               KV3                EQUALS   TMIS       +12D                       #  I(6)TMP
003242: E6,1541  E6,1702               CGF                EQUALS   TMIS       +12D                       #  I   TMP
003243:
003244: E6,1541  E6,1710               BRATE              EQUALS   COFSKEW                               #  B   TMP
003245: E6,1541  E6,1716               TM                 EQUALS   CAM                                   #  B   TMP
003246:
003247:                                                                                                  #  SECOND-ORDER OVERLAYS IN KALCMANU
003248: E6,1541  E6,1666               P21                EQUALS   KV1                                   #  I(2)TMP
003249: E6,1541  E6,1670               D21                EQUALS   KV1        +2                         #  I(2)TMP
003250: E6,1541  E6,1672               G21                EQUALS   KV1        +4                         #  I(2)TMP
003251:
003252:                                                                                                  #  SATURN BOOST STORAGE.  SAVE TILL RCS DAP OPERATION.   (17D)
003253: E6,1541  E6,1661               POLYNUM            EQUALS   BCDU                                  #  B(15) PAD LOADED
003254: E6,1541  E6,1673               POLYLOC            =        POLYNUM    +10D
003255: E6,1541  E6,1700               SATRLRT            EQUALS   POLYNUM    +15D                       #  B(2)  PAD LOADED
003256:
003257:                                                                                                  #  MORE P11 STORAGE -PAD LOADED-         (2D)


003259:                                                                                                  #  (NOTE:  THIS PAD LOAD WILL NOT BE PRESERVED THROUGHOUT THE MISSION AS IT SHARES STORAGE WITH KALCMANU,
003260:                                                                                                  #  ENTRY DAP AND TVC DAP)
003261: E6,1541  E6,1702               RPSTART            EQUALS   SATRLRT    +2                         #  B(1) PITCH ROLL START TIME
003262: E6,1541  E6,1703               POLYSTOP           EQUALS   RPSTART    +1                         #  B(1) POLYCUT OFF MINUS RPSTART SEC
003263:
003264:                                                                                                  #  STORAGE FOR VHHDOT AND ATTDSP
003265: E6,1541  E6,1704               BODY3              EQUALS   POLYSTOP   +1                         #  B(1)OUT
003266: E6,1541  E6,1705               BODY2              EQUALS   BODY3      +1                         #  B(1)OUT
003267: E6,1541  E6,1706               BODY1              EQUALS   BODY2      +1                         #  B(1)OUT
003268: E6,1541  E6,1707               SPOLYARG           EQUALS   BODY1      +1                         #  B(1)TMP   ARGUEMENT FOR POLLY
003269:
003270: E6,1541  E6,1503               OLDBODY1           =        EDRIVEX                               #  1 PULSE = 0.0432 DEGREES
003271: E6,1541  E6,1504               OLDBODY2           =        EDRIVEY
003272: E6,1541  E6,1505               OLDBODY3           =        EDRIVEZ
003273:
003274:                                                                                                  #  STORAGE FOR S11.1
003275: E6,1541  E6,1710               VDISP              EQUALS   SPOLYARG   +1                         #  I(2)OUT       2(7) M/CS
003276: E6,1541  E6,1712               HDISP              EQUALS   VDISP      +2                         #  I(2)OUT       2(29) M
003277: E6,1541  E6,1714               HDOTDISP           EQUALS   HDISP      +2                         #  I(2)OUT       2(7) M/CS
003278: E6,1541  E6,1716               BOOSTEMP           EQUALS   HDOTDISP   +2                         #  B(3)TEMP
003279:
003280:                                                                                                  #  P11 SATURN I/F                        (9D)
003281: E6,1541  E6,1721               SATRATE            EQUALS   BOOSTEMP   +3                         #  B(4)PL MANEUVER RATES FOR SATURN STICK
003282: E6,1541  E6,1725               SATSW              EQUALS   SATRATE    +4                         #  B(1)TEM STATUS SW FOR BOOST TAKEOVER
003283: E6,1541  E6,1726               BIASAK             EQUALS   SATSW      +1                         #  B(3)TEM STORE AKBIAS FOR BOOST TAKEOVER
003284: E6,1541  E6,1731               SATSCALE           EQUALS   BIASAK     +3                         #  B(1) SCALE FACTOR FOR SATURN STEERING
003285:
003286:                                                                                                  #  P21 STORAGE.                          (1D)
003287: E6,1541  E6,1770               GENRET             EQUALS   RAD        +2                         #  B(1)TMP
003288:
003289:                                                                                                  #  R61CSM STORAGE.                       (1D)
003290: E6,1541  E6,1771               SAVBNK             EQUALS   GENRET     +1                         #  B(1) S-S SAVE EBANK FOR R61 SUBROUTINE
003291:
003292:                                                                                                  #  CRS61.1 STORAGE FOR AUTOPILOT BANK.   (3D)
003293: E6,1541  E6,1772               SAVEDCDU           EQUALS   SAVBNK     +1                         #  B(3)TMP
003294:
003295:                                                                                                  #  R61 STORAGE.                          (1D)


003297: E6,1541  E6,1775               R61CNTR            EQUALS   SAVEDCDU   +3                         #   (1)TMP
003298:
003299:                                                                                                  #  ENTRY RESTART PROTECTION STORAGE.  -KEEP TEMPS IN ORDER-      (12D)
003300: E6,1541  E6,1770               TEMPROLL           EQUALS   GENRET                                #  B(1)TMP COPY CYCLE REGISTER
003301: E6,1541  E6,1771               TEMPALFA           EQUALS   TEMPROLL   +1                         #  B(1)TMP COPY CYCLE REGISTER
003302: E6,1541  E6,1772               TEMPBETA           EQUALS   TEMPALFA   +1                         #  B(1)TMP COPY CYCLE REGISTER
003303: E6,1541  E6,1773               60GENRET           EQUALS   TEMPBETA   +1                         #  B(1)TMP QSAVE FOR S61.1 AND ENTRY.
003304: E6,1541  E6,1774               S61DT              EQUALS   60GENRET   +1                         #  B(1)TMP VARIABLE DT FOR S61.1 RESTART.
003305:
003306:                                                                                                  #  ENTRY TM SHARING FOR ACCELERATION PROFILE.
003307: E6,1541  E6,1533               XPIPBUF            EQUALS   ADOT                                  #  B(1) PIPA BUFFER FOR TM DURING ENTRY.
003308: E6,1541  E6,1534               YPIPBUF            EQUALS   XPIPBUF    +1                         #  B(1) PIPS FILED HERE EACH .5 SEC APPEAR
003309: E6,1541  E6,1535               ZPIPBUF            EQUALS   YPIPBUF    +1                         #  B(1) ON DOWNLIST ONCE PER SECOND DURING
003310: E6,1541  E6,1536               XOLDBUF            EQUALS   ZPIPBUF    +1                         #  B(1) ENTRY AFTER RCS DAP HAS BEEN DIS-
003311: E6,1541  E6,1537               YOLDBUF            EQUALS   XOLDBUF    +1                         #  B(1) ABLED.  NEWEST PIP VALUE REPLACES
003312: E6,1541  E6,1540               ZOLDBUF            EQUALS   YOLDBUF    +1                         #  B(1) PIPBUF, WHICH IS MOVED INTO OLDBUF.
003313:
003314:                                                                                                  #  REENTRY VARIABLES SHARED WITH RCS DAP FOR TM & FLIGHT RECORDER.
003315: E6,1541  E6,1574               Q7                 =        THETADZ                               #  I(2) HI-WORD ONLY ON DNLIST.
003316: E6,1541  E6,1525               ASPS(TM)           =        WBODY                                 #  I(6)DWN
003317:                                                                                                  #        ASKEP, ASP1, ASPUP, ASPDN, ASP3, ASP3+1
003318:
003319:                                                                                                  #  P37 PAD LOADS                         (1)
003320: E6,1541  E6,1776               P37RANGE           EQUALS   R61CNTR    +1                         #  I(1)PL        *****
003321:
003322: E6,1541  E6,1777               END-E6             =        P37RANGE   +1                         #  FIRST UNUSED ERASABLE LOCATION IN E6
003323:


003325:                                                                                                  #  EBANK-7 ASSIGNMENTS
003326:
003327: E7,1400                                           SETLOC   3400
003328:
003329:                                                                                                  #  *-*-*-*- OVERLAY 0 IN EBANK 7 -*-*-*-*
003330:
003331:                                                                                                  #  EXTERNAL DELTA-V UPDATE.              (21D)
003332:                                                                                                  #  (MUST BE IN ORDER FOR UPDATE PROGRAM.  ALSO ENTRY PROGRAMS PICK UP 'LAT(SPL)' WITH A VLOAD.)
003333:
003334: E7,1400                        LAT(SPL)           ERASE    +20D                                  #  I(2)DSP NOUN 61 FOR P62,63,64,67
003335: E7,1425  E7,1402               LNG(SPL)           EQUALS   LAT(SPL)   +2                         #  I(2)DSP NOUN 61 FOR P62,63,64,67.
003336:
003337: E7,1425  E7,1404               DELVSLV            EQUALS   LNG(SPL)   +2                         #  I(6)TMP DELTA VEL VECT, LOC VER COORDS
003338: E7,1425  E7,1412               TIG                EQUALS   DELVSLV    +6                         #  B(2)DSP NOUN 33 FOR X-V84(R32),P30,40.
003339: E7,1425  E7,1414               RTARG              EQUALS   TIG        +2                         #  I(6)IN DESIRED VEHICHE RADIUS VECTOR
003340: E7,1425  E7,1422               DELLT4             EQUALS   RTARG      +6                         #  I(2)IN TIME DIFFERENCE FOR INITVEL
003341: E7,1425  E7,1424               ECSTEER            EQUALS   DELLT4     +2                         #  I(1)PL FOR P40 S
003342: E7,1425  E7,1404               DELVLVC            =        DELVSLV
003343: E7,1425                        END-DELV           ERASE                                          #  *NEXT AVAIL LOC AFTER UNSHARED E7*
003344:
003345:                                                                                                  #  SERVICER STORAGE.                     (13D)
003346: E7,1426  E7,1425               DVTOTAL            EQUALS   END-DELV                              #  B(2)DSP NOUN 40,99 FOR P30,34,35,40
003347: E7,1426  E7,1427               TGO                EQUALS   DVTOTAL    +2                         #  B(2)
003348: E7,1426  E7,1431               DVCNTR             EQUALS   TGO        +2                         #  B(1)TMP
003349: E7,1426  E7,1432               DELVREF            EQUALS   DVCNTR     +1                         #  I(6)TMP
003350:
003351: E7,1426  E7,1447               NOMTIG             EQUALS   END-KALC                              #  I(2) (CANNOT SHARE WITH KALCMANU
003352:                                                                                                  #        OR DELVREF)
003353: E7,1426  E7,1451               END-SVCR           EQUALS   NOMTIG     +2                         #  ***NEXT AVAILABLE AFTER SERVICER
003354:
003355:                                                                                                  #  ALIGNMENT STORAGE.                    (25D)
003356: E7,1426  E7,1451               XSCD               EQUALS   END-SVCR                              #  I(6)TMP
003357: E7,1426  E7,1457               YSCD               EQUALS   XSCD       +6                         #  I(6)TMP
003358: E7,1426  E7,1465               ZSCD               EQUALS   YSCD       +6                         #  I(6)TMP
003359: E7,1426  E7,1473               VEL/C              EQUALS   ZSCD       +6                         #  I(6)TMP
003360: E7,1426  E7,1501               R53EXIT            EQUALS   VEL/C      +6                         #  I(1)TMP
003361:
003362:                                                                                                  #  ALIGNMENT MARKDATA (DOWNLNK) ******   (7D)
003363: E7,1426  E7,1502               MARK2DWN           EQUALS   R53EXIT    +1                         #   (7) USED BY ALLIGNMENT P50S
003364:


003366:                                                                                                  #  *-*-*-*- OVERLAY 1 IN EBANK 7 -*-*-*-*
003367:
003368:                                                                                                  #  REENTRY ERASABLES                     (206D)
003369: E7,1426  E7,1451               RTINIT             EQUALS   END-SVCR                              #  6P
003370: E7,1426  E7,1457               RTEAST             EQUALS   RTINIT     +6                         #  6P
003371: E7,1426  E7,1465               RTNORM             EQUALS   RTEAST     +6                         #  6P
003372: E7,1426  E7,1473               RT                 EQUALS   RTNORM     +6                         #  6P
003373: E7,1426  E7,1501               UNI                EQUALS   RT         +6                         #  6P
003374: E7,1426  E7,1507               UNITV              EQUALS   UNI        +6                         #  6P
003375: E7,1426  E7,1515               VEL                EQUALS   UNITV      +6                         #  6P
003376:
003377: E7,1426  E7,1523               TIME/RTO           EQUALS   VEL        +6                         #  2P TIME OF INITIAL TARGET, RTO.
003378: E7,1426  E7,1525               -VREL              EQUALS   TIME/RTO   +2                         #  6P
003379: E7,1426  E7,1533               OLDUYA             EQUALS   -VREL      +6                         #  6P USED BY CM/POSE    (ENTRY DAP)
003380: E7,1426  E7,1541               UXA/2              EQUALS   OLDUYA     +6                         #  6P USED BY CM/POSE    (ENTRY DAP) -UVA
003381: E7,1426  E7,1541               URH                =        UXA/2                                 #        P61 DISPLAY NOUN
003382: E7,1426  E7,1547               UYA/2              EQUALS   UXA/2      +6                         #  6P USED BY CM/POSE    (ENTRY DAP) UYA
003383: E7,1426  E7,1555               UZA/2              EQUALS   UYA/2      +6                         #  6P USED BY CM/POSE    (ENTRY DAP) UNA
003384: E7,1426  E7,1563               UBX/2              EQUALS   UZA/2      +6                         #  6P USED BY CM/POSE    (ENTRY DAP)
003385: E7,1426  E7,1571               UBY/2              EQUALS   UBX/2      +6                         #  6P USED BY CM/POSE    (ENTRY DAP)
003386: E7,1426  E7,1577               UBZ/2              EQUALS   UBY/2      +6                         #  6P USED BY CM/POSE    (ENTRY DAP)
003387:
003388: E7,1426  E7,1605               DTEAROT            EQUALS   UBZ/2      +6                         #  2P
003389: E7,1426  E7,1607               DIFF               EQUALS   DTEAROT    +2                         #  2P
003390: E7,1426  E7,1611               DIFFOLD            EQUALS   DIFF       +2                         #  2P
003391: E7,1426  E7,1613               FACTOR             EQUALS   DIFFOLD    +2                         #  2P
003392: E7,1426  E7,1615               FACT1              EQUALS   FACTOR     +2                         #  2P
003393: E7,1426  E7,1617               FACT2              EQUALS   FACT1      +2                         #  2P
003394:                                                                                                  # Q7             =       THETADZ         2P SHARED FOR TM.  P64-P66
003395: E7,1426  E7,1621               VSQUARE            EQUALS   FACT2      +2                         #  2P
003396: E7,1426  E7,1623               LAD                EQUALS   VSQUARE    +2                         #  2P
003397: E7,1426  E7,1625               LOD                EQUALS   LAD        +2                         #  2P
003398: E7,1426  E7,1627               L/DCMINR           EQUALS   LOD        +2                         #  2P
003399: E7,1426  E7,1631               KLAT               EQUALS   L/DCMINR   +2                         #  2P
003400: E7,1426  E7,1633               L/D                EQUALS   KLAT       +2                         #  2P
003401: E7,1426  E7,1635               L/D1               EQUALS   L/D        +2                         #  2P
003402: E7,1426  E7,1724               LEWD               =        VIO                                   #  2P SHARED FOR TM.  P64-P65
003403: E7,1426  E7,1637               D                  EQUALS   L/D1       +2                         #  2P DSP NOUN 64,66,68 FOR P63,64,67
003404:                                                                                                  # V1             =       ENDBUF  +1      2P SHARED FOR TM. P64-P65
003405: E7,1426  E7,1641               DLEWD              EQUALS   D          +2                         #  2P
003406: E7,1426  E7,1643               K2ROLL             EQUALS   DLEWD      +2                         #  2P
003407: E7,1426  E7,1645               GOTOADDR           EQUALS   K2ROLL     +2                         #  1P
003408: E7,1426  E7,1646               TEM1B              EQUALS   GOTOADDR   +1                         #  2P
003409: E7,1426  E7,1650               MM                 EQUALS   TEM1B      +2                         #  2P
003410: E7,1426  E7,1651               GRAD               EQUALS   MM         +1                         #  1P
003411: E7,1426  E7,1652               FX                 EQUALS   GRAD       +1                         #  1P OVERWRITES NEXT 5 LOCS IN P67.
003412: E7,1426  E7,1653               LEQ                EQUALS   FX         +1                         #  2P
003413: E7,1426  E7,1655               DHOOK              EQUALS   LEQ        +2                         #  2P
003414: E7,1426  E7,1657               AHOOKDV            EQUALS   DHOOK      +2                         #  2P


003416: E7,1426  E7,1661               DVL                EQUALS   AHOOKDV    +2                         #  2P
003417:                                                                                                  # A0             =       ENDBUF  +3      2P SHARED FOR TM. (HI-WD) P64-P65
003418: E7,1426  E7,1663               A1                 EQUALS   DVL        +2                         #  2P
003419: E7,1426  E7,1665               VBARS              EQUALS   A1         +2                         #  2P
003420: E7,1426  E7,1667               COSG/2             EQUALS   VBARS      +2                         #  2P
003421:                                                                                                  # GAMMAL         =       GAMMAEI         2P SHARED FOR TM  P66
003422: E7,1426                        GAMMAL1            =        22D                                   #  2P
003423: E7,1426  E7,1671               VS1                EQUALS   COSG/2     +2                         #  2P
003424: E7,1426  E7,1766               VL                 =        VPRED                                 #  2P SHARED FOR TM  P64-P65
003425: E7,1426  E7,1673               V                  EQUALS   VS1        +2                         #  2P
003426:                                                                                                  # VREF           =       THETAD  +2      2P SHARED FOR TM  P65
003427: E7,1426  E7,1675               LATANG             EQUALS   V          +2                         #  2P ADJACENT FOR TM.
003428: E7,1426  E7,1677               RDOT               EQUALS   LATANG     +2                         #  2P ADJACENT FOR TM.
003429: E7,1426  E7,1701               THETAH             EQUALS   RDOT       +2                         #  2P DSP NOUN 64,67 FOR P63,64,67
003430:                                                                                                  # RDOTREF        =       THETAD          2P SHARED FOR TM  P65
003431: E7,1426  E7,1703               ALP                EQUALS   THETAH     +2                         #  2P
003432:
003433: E7,1426  E7,1730               ASKEP              =        ASPS                                  #  2P)                THESE ARE STORED IN
003434: E7,1426  E7,1731               ASP1               =        ASPS       +1                         #  2P)                SEQUENCE, OVERLAPPING
003435: E7,1426  E7,1732               ASPUP              =        ASPS       +2                         #  2P)>HI-WD OF EACH< HI-WORD ONLY APPEARS
003436: E7,1426  E7,1733               ASPDWN             =        ASPS       +3                         #  2P)                ON DOWNLIST, EXCEPT
003437: E7,1426  E7,1734               ASP3               =        ASPS       +4                         #  2P)                ASP3 IS COMPLETE.
003438:
003439: E7,1426  E7,1705               C/D0               EQUALS   ALP        +2                         #  2P    -1/D0
003440: E7,1426  E7,1707               D0                 EQUALS   C/D0       +2                         #  I(2)  CONSTANT DRAG
003441: E7,1426  E7,1711               Q2                 EQUALS   D0         +2                         #  2P
003442:
003443:                                                                                                  #  ROLLC IS LOCATED IN EBANK= AOG TO AID ENTRY DAP.
003444: E7,1426  E7,1713               RTGO               EQUALS   Q2         +2                         #  2P DSP NOUN 66 FOR P64,P67.
003445: E7,1426  E7,1715               DNRNGERR           EQUALS   RTGO       +2                         #  2P DSP NOUN 66 FOR P64,67.
003446: E7,1426  E7,1675               XRNGERR            =        LATANG                                #        FOR DISKY DISPLAY
003447: E7,1426  E7,1717               KAT                EQUALS   DNRNGERR   +2                         #  2P
003448: E7,1426  E7,1721               GMAX               EQUALS   KAT        +2                         #  1P DSP NOUN 60 FOR P61,62,63.
003449:                                                                                                  #  GMAX IS LOADED IN DOUBLE PRECISION
003450: E7,1426  E7,1726               L/DCALC            =        TTE                                   #  2P CALCULATED L/D FOR TM: P64-P67.
003451: E7,1426  E7,1770               GAMMAL             =        GAMMAEI                               #  2P SHARED FOR TM  P64
003452: E7,1426  E7,1770               PREDANG            =        GAMMAEI                               #        FOR TM IN P67.
003453: E7,1426  E7,1771               JJ                 =        PREDANG    +1                         #        FOR TM IN P67.
003454: E7,1426  E7,1722               VMAGI              EQUALS   GMAX       +1                         #  2P DSP NOUN 62,64,68 FOR P11,63,64.
003455: E7,1426  E7,1724               VIO                EQUALS   VMAGI      +2                         #  2P DSP NOUN 63 FOR P61.
003456: E7,1426  E7,1726               TTE                EQUALS   VIO        +2                         #  2P DSP NOUN 63 FOR P61.
003457: E7,1426  E7,1730               ASPS               EQUALS   TTE        +2                         #  I(2) HI-WORD ONLY ON DNLIST FOR TEMP
003458: E7,1426  E7,1732               TTE1               EQUALS   ASPS       +2                         #  I(2ETMP HOLDS UNDECREMENTED TTE VALUE
003459:
003460:                                                                                                  #  **** P6OS ****
003461: E7,1426  E7,1713               RTGON64            EQUALS   RTGO                                  #  RANGE ERRORS NEGATIVE IF FALLS SHORT


003463: E7,1426  E7,1713               RTGON67            EQUALS   RTGO                                  #  DSP NOUN 67
003464:
003465:                                                                                                  #  REENTRY, RETURN TO EARTH COMMON DISPLAY.      (4D)
003466: E7,1426  E7,1766               VPRED              EQUALS   BETA12     +2                         #  DSP NOUN 60 FOR P61,   ,62,63.
003467: E7,1426  E7,1770               GAMMAEI            EQUALS   VPRED      +2                         #  DSP NOUN 60 FOR P61,   ,62,63.
003468:
003469:                                                                                                  #  DISPLAY REGISTER FOR VG               (2D)
003470: E7,1426  E7,1772               VGDISP             EQUALS   GAMMAEI    +2                         #  B(2)DSP N.40,42,99 FOR P30,34,35,37,40,
003471:                                                                                                  #            41 VG DISPLAY
003472:
003473:                                                                                                  #  SOME P11 DISPLAY REGISTERS.           (6D)
003474: E7,1426  E7,1734               ALTI               EQUALS   TTE1       +2                         #  2P DSP NOUN 62 FOR P11.
003475: E7,1426  E7,1736               HDOT               EQUALS   ALTI       +2                         #  2P DSP NOUN 62 FOR P11.
003476:


003478:                                                                                                  #  *-*-*-*- OVERLAY 2 IN EBANK 7 -*-*-*-*
003479:
003480:                                                                                                  #  KALCMANU STORAGE.                             (18D)
003481: E7,1426  E7,1425               MFS                EQUALS   END-DELV                              #  I(18)
003482: E7,1426  E7,1425               MFI                EQUALS   MFS                                   #  I    TMP
003483: E7,1426  E7,1425               DEL                EQUALS   MFS                                   #  I    TMP
003484: E7,1426  E7,1447               END-KALC           EQUALS   MFS        +18D                       #  **NEXT AVAIL LOC AFTER KALCMANU**
003485:
003486:                                                                                                  #  MEASUREMENT INCORPORATION STORAGE (R22) STORAGE.      (56D)
003487:
003488: E7,1426  E7,1447               TX789              EQUALS   END-KALC                              #  I(6)TMP
003489: E7,1426  E7,1455               GAMMA              EQUALS   TX789      +6                         #  I(2)TMP
003490: E7,1426  E7,1457               OMEGA              EQUALS   GAMMA      +2                         #  I(18)TMP
003491: E7,1426  E7,1501               BVECTOR            EQUALS   OMEGA      +18D                       #  I(18)TMP
003492: E7,1426  E7,1523               DELTAQ             EQUALS   BVECTOR    +18D                       #  I(2)TMP
003493: E7,1426  E7,1525               VARIANCE           EQUALS   DELTAQ     +2                         #  I(3)TMP
003494: E7,1426  E7,1530               RCLP               EQUALS   VARIANCE   +3                         #  I(6)TMP
003495: E7,1426  E7,1536               GRP2SVQ            EQUALS   RCLP       +6                         #  I(1)TMP QSAVE FOR RESTARTS
003496:
003497:                                                                                                  #  P20, P22, P23 DSP NOUN                (5D)
003498: E7,1426  E7,1501               N49DISP            EQUALS   BVECTOR                               #  B(5)TMP
003499:
003500:                                                                                                  #  S22.1 STORAGE.                        (36D)
003501: E7,1426  E7,1537               SVMRKDAT           EQUALS   GRP2SVQ    +1                         #  I(36)TMP 5 SETS OF MARK DATA +PAD OF ONE
003502:
003503:                                                                                                  #  **** CISLUNAR NAV.  ERAS.  (P20S) ****        (45D)
003504: E7,1426  E7,1603               TRUNX              EQUALS   SVMRKDAT   +36D
003505: E7,1426  E7,1603               DATATEST           EQUALS   TRUNX                                 #   (1)
003506: E7,1426  E7,1604               UBAR0              EQUALS   TRUNX      +1
003507: E7,1426  E7,1612               UBAR1              EQUALS   UBAR0      +6
003508: E7,1426  E7,1620               UBAR2              EQUALS   UBAR1      +6
003509: E7,1426  E7,1626               RZC                EQUALS   UBAR2      +6
003510: E7,1426  E7,1634               VZC                EQUALS   RZC        +6
003511: E7,1426  E7,1642               UCLSTAR            EQUALS   VZC        +6
003512: E7,1426  E7,1650               USSTAR             EQUALS   UCLSTAR    +6
003513: E7,1426  E7,1656               SRRETURN           EQUALS   USSTAR     +6
003514:


003516:                                                                                                  #  *-*-*-*- OVERLAY 3 IN EBANK 7 -*-*-*-*
003517:
003518:                                                                                                  #  RENDEZVOUS GUIDANCE STORAGE. -P32...P35-      (8D)
003519: E7,1426  E7,1447               DELTEEO            EQUALS   END-KALC                              #  I(2) S-S BACK VALUES OF DELTA TIME
003520: E7,1426  E7,1451               DELEL              EQUALS   DELTEEO    +2                         #  I(2) S-S
003521: E7,1426  E7,1453               SECMAX             EQUALS   DELEL      +2                         #  I(2) S-S MAX STOP SIZE FOR ROUTINE
003522: E7,1426  E7,1455               XXXALT             EQUALS   SECMAX     +2                         #  I(2)
003523:
003524:                                                                                                  #  S40.9 STORAGE.                                (16D)
003525: E7,1426  E7,1457               VG                 EQUALS   XXXALT     +2                         #  I(6)TMP
003526: E7,1426  E7,1465               VRPREV             EQUALS   VG         +6                         #  I(6)
003527: E7,1426  E7,1473               TNIT               EQUALS   VRPREV     +6                         #  I(2)
003528: E7,1426  E7,1475               TNITPREV           EQUALS   TNIT       +2                         #  I(2)
003529:
003530:                                                                                                  #  S40.2,3 STORAGE.                      (1D)
003531: E7,1426  E7,1477               AXISCODE           EQUALS   TNITPREV   +2                         #  I(1)IN
003532:
003533:                                                                                                  #  P30'S-P17 COMMON STORAGE.             (24D)
003534: E7,1426  E7,1537               RACT3              EQUALS   GRP2SVQ    +1                         #  I(6)TMP POSITION OF ACTIVE AT TPI TIME.
003535: E7,1426  E7,1545               VACT3              EQUALS   RACT3      +6                         #  I(6)TMP VELOCITY OF ACTIVE AT TPI TIME.
003536: E7,1426  E7,1553               RPASS3             EQUALS   VACT3      +6                         #  I(6)TMP POSITION OF PASSIVE AT TPI TIME.
003537: E7,1426  E7,1561               VPASS3             EQUALS   RPASS3     +6                         #  I(6)TMP VELOCITY OF PASSIVE AT TPI TIME.
003538:
003539:                                                                                                  #  P76, N84 DISPLAY                      (6D)
003540: E7,1426  E7,1537               DELVOV             EQUALS   RACT3                                 #  I(6)DSP NOUN 84 FOR X-V84, P34-35
003541:
003542:                                                                                                  #  INITVEL/MIDGIM STORAGE.               (34D)
003543:                                                                                                  #        (CALLED BY S34.1,2, S35.1,2, AND S40.9)
003544:                                                                                                  #        (CALLS LAMBERT, CONIC SUBROUTINES)
003545: E7,1426  E7,1567               RINIT              EQUALS   VPASS3     +6                         #  I(6)IN ACTIVE VEHICLE RADIUS VECTOR
003546: E7,1426  E7,1575               VINIT              EQUALS   RINIT      +6                         #  I(6)IN ACTIVE VEHICLE VELOCITY VECTOR
003547: E7,1426  E7,1603               RTARG1             EQUALS   VINIT      +6                         #  I(6)TMP SHIFTED RTARG
003548: E7,1426  E7,1611               VIPRIME            EQUALS   RTARG1     +6                         #  I(6)OUT NEW VEL REQ AT INITIAL RADIUS
003549: E7,1426  E7,1617               VTPRIME            EQUALS   VIPRIME    +6                         #  I(6)OUT TOTAL VELOCITY AT DESIRED RADIUS
003550: E7,1426  E7,1625               +MGA               EQUALS   VTPRIME    +6                         #  I(2)DSP NOUN 45 FOR P30,34,35.  +MID GIM.
003551: E7,1426  E7,1627               COZY4              EQUALS   +MGA       +2                         #  I(2)TMP COSINE OF ANGLE WHEN ROT STARTS
003552:
003553:                                                                                                  #  (THE FOLLOWING OVERLAYS MEASUREMENT INCORP AND CANNOT SHARE WITH TPI


003555: E7,1426  E7,1502               INTIME             EQUALS   AXISCODE   +3
003556: E7,1426  E7,1504               ITCTR              EQUALS   INTIME     +2                         #  I(1)TMP ITERATION COUNTER
003557: E7,1426  E7,1631               END-IN/M           EQUALS   COZY4      +2                         #  ** NEXT AVAIL LOC AFTER INITVEL/MIDGIM **
003558:
003559:                                                                                                  #  P34 AND P33 STORAGE.  (OVERLAYS INITVEL/MIDGIM)       (24D)
003560: E7,1426  E7,1567               VAPREC             EQUALS   RINIT                                 #  I(6) S-S PREC VEC FOR NOM TPI TIME(ACT V
003561: E7,1426  E7,1575               RAPREC             EQUALS   VINIT                                 #  I(6) S-S PREC VEC FOR NOM TPI TIME(ACT V
003562: E7,1426  E7,1611               VPPREC             EQUALS   VIPRIME                               #  I(6) S-S PREC VEC FOR NOM TPI TIME(PASS
003563: E7,1426  E7,1617               RPPREC             EQUALS   VTPRIME                               #  I(6) S-S PREC VEC FOR NOM TPI TIME(PASS
003564:
003565:                                                                                                  #  P30, P40 INTERFACE.                   (20D)
003566: E7,1426  E7,1631               RTIG               EQUALS   END-IN/M                              #  I(6)TMP
003567: E7,1426  E7,1637               VTIG               EQUALS   RTIG       +6                         #  I(6)TMP
003568: E7,1426  E7,1645               DELVSIN            EQUALS   VTIG       +6                         #  I(6)TMP
003569: E7,1426  E7,1645               DELVEET3           EQUALS   DELVSIN                               #      TMP DELTA VEL VECT INERTIAL COORDS.
003570: E7,1426  E7,1645               VGTEMP             EQUALS   DELVEET3
003571: E7,1426  E7,1653               DELVSAB            EQUALS   DELVSIN    +6                         #  I(2)TMP
003572:
003573:                                                                                                  #  P35-P40 INTERFACE STORAGE.  (OVERLAYS P30-P40 I/F STORAGE)    (12D)
003574: E7,1426  E7,1631               RPASS4             EQUALS   RTIG                                  #  I(6)TMP POSITION OF PASSIVE AT INTERCEPT
003575: E7,1426  E7,1637               VPASS4             EQUALS   RPASS4     +6                         #  I(6)TMP VELOCITY OF PASSIVE AT INTERCEPT
003576:
003577:                                                                                                  #  TPI SEARCH (P17)                      (6D)
003578: E7,1426  E7,1645               E2                 EQUALS   VPASS4     +6                         #  I(6)TMP
003579:
003580:                                                                                                  #  P30-P40 COMMON STORAGE.               (3D)
003581: E7,1426  E7,1655               TPASS4             EQUALS   DELVSAB    +2                         #  I(2)TMP
003582: E7,1426  E7,1655               TINT               =        TPASS4                                #  I(2)
003583: E7,1426  E7,1657               QTEMP              EQUALS   TPASS4     +2                         #  I(1)TMP
003584:
003585:                                                                                                  #  P30-P40 STORAGE.                      (4D)
003586: E7,1426  E7,1660               TTOGO              EQUALS   QTEMP      +1                         #  B(2)DSP NOUN 35,40,45,59,99
003587:                                                                                                  #          FOR P30,34,35,40,41,47, R30.
003588: E7,1426  E7,1662               TTPI               EQUALS   TTOGO      +2                         #  B(2)DSP NOUN 37 FOR P34 TPI TIME, CSECS.


003590: E7,1426  E7,1664               END-P30S           EQUALS   TTPI       +2                         #  ** NEXT AVAIL LOC AFTER P30-40 STORAGE. **
003591:
003592:                                                                                                  #  P40 STORAGE.                          (8D)
003593: E7,1426  E7,1664               VGBODY             EQUALS   END-P30S                              #  B(6)DSP NOUN 85 FOR P40,41,42 VG-SC COOR
003594: E7,1426  E7,1664               DELVCTL            =        VGBODY
003595: E7,1426  E7,1672               P40TMP             EQUALS   VGBODY     +6                         #  B(2)TMP
003596:
003597:                                                                                                  #  P47 STORAGE.
003598: E7,1426  E7,1457               DV47TEMP           EQUALS   VG
003599: E7,1426  E7,1674               DELVIMU            EQUALS   P40TMP     +2                         #  I(6)DSP  NOUN 83 FOR P47 DELTAV(IMU)
003600:
003601:                                                                                                  #  S40.1 STORAGE.                        (23D)
003602: E7,1426  E7,1702               CSTEER             EQUALS   DELVIMU    +6                         #  I(2)IN
003603: E7,1426  E7,1704               BDT                EQUALS   CSTEER     +2                         #  I(6)IN
003604: E7,1426  E7,1712               UT                 EQUALS   BDT        +6                         #  I(6)OUT THRUST DIRECTION
003605: E7,1426  E7,1720               VGTIG              EQUALS   UT         +6                         #  I(6)OUT
003606: E7,1426  E7,1720               VGPREV             =        VGTIG
003607: E7,1426  E7,1726               F                  EQUALS   VGTIG      +6                         #  I(2)OUT S40.3 NEEDS THIS
003608:
003609: E7,1426  E7,1730               QTEMP1             EQUALS   F          +2                         #  I(1)TMP HOLDS RETURN
003610:
003611:                                                                                                  #  R41                                   (2D)
003612: E7,1426  E7,1731               T-TO-ADD           EQUALS   QTEMP1     +1                         #  I(1D) FOR MIDTOAVE
003613:


003615:                                                                                                  #  *-*-*-*- OVERLAY 4 IN EBANK 7 -*-*-*-*
003616:
003617:                                                                                                  #  S35.1 STORAGE.                        (2D)
003618: E7,1426  E7,1664               TSTRT              EQUALS   END-P30S                              #  I(2)IN MIDCOURSE START TIME
003619:
003620:                                                                                                  #  S34.1 STORAGE.  (OVERLAYS S35.1 STORAGE)      (1D)
003621: E7,1426  E7,1664               TITER              EQUALS   TSTRT                                 #  I(1)TMP ITERATION COUNTER
003622:
003623:                                                                                                  #  (P30-31 Q-SAVES)                      (1)
003624: E7,1426  E7,1664               P30/31RT           EQUALS   TITER                                 #  B(1) RETURN POINT
003625:
003626:                                                                                                  #  P22 STORAGE.                          (6D)
003627: E7,1426  E7,1666               S22WUNL            EQUALS   TSTRT      +2                         #  1     WUNL W8 UNKNOWN INIT VALUE
003628: E7,1426  E7,1667               S22TOFF            EQUALS   S22WUNL    +1                         #  2     T SUB OFF
003629:                                                                                                  #  *USED IN SUBROUTINE COMMON TO P22 & P23.
003630: E7,1426  E7,1671               S22TPRIM           EQUALS   S22TOFF    +2                         #  2     SAVE TF
003631: E7,1426  E7,1673               S22EORM            EQUALS   S22TPRIM   +2                         #  0 = EARTH -- NON-ZERO = MOON
003632:
003633:                                                                                                  #  DOWNLINK ERASABLES FOR P22, P20 MARK DATA.    (8D)
003634: E7,1426  E7,1674               MARKDOWN           EQUALS   S22EORM    +1                         #  B(1)
003635: E7,1426  E7,1703               RM                 EQUALS   S22RTNEX                              #  DOWNLINK OF VHF RANGE
003636:
003637:                                                                                                  #  S22.1                                 (1D)
003638: E7,1426  E7,1703               S22RTNEX           EQUALS   MARKDOWN   +7                         #  B(1)
003639:


003647:
003648:                                                                                                  #  CRS61.1 STORAGE.  -A SUBSET OF P20-   (14D)
003649: E7,1426  E7,1704               Q611               EQUALS   RM         +1                         #  I(1)TMP QSAVE
003650: E7,1426  E7,1705               Q6111              EQUALS   Q611       +1                         #  I(1)TMP QSAVE
003651: E7,1426  E7,1706               SAVEPOS            EQUALS   Q6111      +1                         #  I(6)TMP LEM POSITION VECTOR-


003653: E7,1426  E7,1714               SAVEVEL            EQUALS   SAVEPOS    +6                         #  I(6)TMP LEM VELOCITY VECTOR-
003654:
003655:                                                                                                  #  ATTITUDE MANEUVER -CALLED BY P20,R61,R63,CRS61.1      (3D)
003656: E7,1426  E7,1722               PRAXIS             EQUALS   SAVEVEL    +6                         #  B(3) S-S DISP RES FOR PREF AXIS N95
003657:
003658:                                                                                                  #  MARK ROUTINE (R21) STORAGE.  -IS SUBSET OF R22-       (14D)
003659: E7,1426  E7,1725               MRKBUF1            EQUALS   PRAXIS     +3                         #  B(7)TMP R21 MARK BUFFER
003660: E7,1426  E7,1734               MRKBUF2            EQUALS   MRKBUF1    +7                         #  B(7)TMP R21 MARK BUFFER
003661:
003662:                                                                                                  #  MORE CONICS STORAGE.                  (4)
003663: E7,1426                        COGA               EQUALS   3774                                  #  I(2) COTAN OF INITIAL FLIGHT PATH ANGLE
003664: E7,1426  E7,1774               INDEP              EQUALS   COGA                                  #  I(1) USED BY SUBROUTINE :ITERATOR:
003665: E7,1426  E7,1776               EPSILONL           EQUALS   COGA       +2                         #  I(2)TMP
003666:
003667:                                                                                                  #  RENDEZVOUS GUIDANCE STORAGE.  - P32...P35 -   (10D)
003668: E7,1426  E7,1743               ELEV               EQUALS   MRKBUF2    +7                         #  I(2)TMP
003669: E7,1426  E7,1745               RTX1               EQUALS   ELEV       +2                         #   (1)
003670: E7,1426  E7,1746               RTX2               EQUALS   RTX1       +1                         #   (1)
003671: E7,1426  E7,1747               RTMU               EQUALS   RTX2       +1                         #   (2)
003672: E7,1426  E7,1751               RTSR1/MU           EQUALS   RTMU       +2                         #   (2)
003673: E7,1426  E7,1753               CENTANG            EQUALS   RTSR1/MU   +2                         #  I(2) S-S CENTRAL ANGLE COVERED (TPI-TPF)
003674:
003675:                                                                                                  #  TPI SEARCH (S17.1, S17.2) P17 STORAGE.(10D)
003676: E7,1426  E7,1743               DELTEE             EQUALS   MRKBUF2    +7                         #  I(2)
003677: E7,1426  E7,1745               XRS                EQUALS   DELTEE     +2                         #  I(2)
003678: E7,1426  E7,1747               THETL              EQUALS   XRS        +2                         #  I(2)
003679: E7,1426  E7,1751               TF                 EQUALS   THETL      +2                         #  I(2)
003680: E7,1426  E7,1753               DELHITE            EQUALS   TF         +2                         #   (2)
003681:


003683:                                                                                                  #  *-*-*-*- OVERLAY 5 IN EBANK 7 -*-*-*-*
003684:
003685:                                                                                                  #  P17,P34                               (2D)
003686: E7,1426  E7,1765               NN1                =        NN                                    #  I(2)DSP NOUN 55,R1
003687:
003688:                                                                                                  #  ************ THE FOLLOWING ARE FOR FLIGHT 504 ONLY ********************
003689:
003690:                                                                                                  #  RETURN-TO-EARTH STORAGE.              (93D)
003691: E7,1426  E7,1631               RTEDVD             EQUALS   END-IN/M                              #  I(2)IN DELTA VELOCITY DESIRED         M/CS B7
003692: E7,1426  E7,1633               RTEGAM2D           EQUALS   RTEDVD     +2                         #  I(2)IN REENTRY ANGLE DESIRED          REVS B0
003693: E7,1426  E7,1635               RCON               EQUALS   RTEGAM2D   +2                         #  I(2)TMP CONIC R2 RADIUS               M B29
003694: E7,1426  E7,1637               R(T1)/             EQUALS   RCON       +2                         #  I(6)TMP POSITION VECTOR AT TIG        M B29/B27
003695: E7,1426  E7,1645               R(T1)              EQUALS   R(T1)/     +6                         #  I(2)TMP MAGNITUDE OF R(T1)/           M B29/B27
003696: E7,1426  E7,1647               DT21PR             EQUALS   R(T1)      +2                         #  I(2)TMP PREVOUS DT21                  CS B30
003697: E7,1426  E7,1651               MAMAX1             EQUALS   DT21PR     +2                         #  I(2)TMP MAJ AXIS LOW BOUND LMT        M B30
003698: E7,1426  E7,1653               MAMAX2             EQUALS   MAMAX1     +2                         #  I(2)TMP MAJ AXIS UP BOUND LMT         M B30
003699: E7,1426  E7,1655               R(T2)/             EQUALS   MAMAX2     +2                         #  I(6)TMP FINAL POSITION VECTOR         M B29/B27
003700: E7,1426  E7,1663               RD                 EQUALS   R(T2)/     +6                         #  I(2)TMP FINAL R DESIRED               M B29/B27
003701: E7,1426  E7,1665               DRCON              EQUALS   RD         +2                         #  I(2)TMP RCON SLOPE ITERATOR           M B29/B27
003702: E7,1426  E7,1667               RPRE'              EQUALS   DRCON      +2                         #  I(2)TMP PREVISOUS RPRE                M B29/B27
003703: E7,1426  E7,1671               V(T1)/             EQUALS   RPRE'      +2                         #  I(6)TMP VEL VECTOR AT TIG             M/CS B7/B5
003704: E7,1426  E7,1677               V2(T1)/            EQUALS   V(T1)/     +6                         #  I(6)TMP POST IMP VEL AT TIG           M/CS B7/B5
003705: E7,1426  E7,1705               DV                 EQUALS   V2(T1)/    +6                         #  I(2)TMP DELTA VELOCITY AT TIG         M/CS B7/B5
003706: E7,1426  E7,1707               V(T2)/             EQUALS   DV         +2                         #  I(6)TMP FINAL VELOCITY VECTOR         M/CS B7/B5
003707: E7,1426  E7,1715               T1                 EQUALS   V(T2)/     +6                         #  I(2)TMP INITIAL VECTOR TIME           CS B28
003708: E7,1426  E7,1717               PCON               EQUALS   T1         +2                         #  I(2)TMP SEMI-LATUS RECTUM             M B29
003709: E7,1426  E7,1721               X(T1)              EQUALS   PCON       +2                         #  I(2)TMP COTANGENT GAMMA1              B5
003710: E7,1426  E7,1723               T12                EQUALS   X(T1)      +2                         #  I(2)TMP INIT TO FINL POSIT TIME       CS B28
003711: E7,1426  E7,1725               DELTAT             EQUALS   T12        +2                         #  I(2)TMP DELTA T IN SAFE PERILUNE      CS B28
003712: E7,1426  E7,1727               NN1A               EQUALS   DELTAT     +2                         #  I(2)TMP ITERATION COUNTER 1
003713: E7,1426  E7,1731               NN2                EQUALS   NN1A       +2                         #  I(2)TMP ITERATION COUNTER 2
003714: E7,1426  E7,1733               RTENCKEX           EQUALS   NN2        +2                         #  I(1)TMP RTENCK RETURN ADDRESS
003715: E7,1426  E7,1734               CONICX1            EQUALS   RTENCKEX   +1                         #  I(1)TMP CONICS MU TABLE INDEX
003716: E7,1426  E7,1735               T2                 EQUALS   CONICX1    +1                         #  I(2)TMP FINAL TIME                    CS B28
003717: E7,1426  E7,1737               UR1/               EQUALS   T2         +2                         #  I(6)TMP UNIT R(T1)/                   B1
003718: E7,1426  E7,1745               UV1/               EQUALS   UR1/       +6                         #  I(6)TMP UNIT V(T1)/                   B1
003719: E7,1426  E7,1753               BETA1              EQUALS   UV1/       +6                         #  I(2)TMP 1+X(T2)**2                    B1
003720: E7,1426  E7,1755               P(T1)              EQUALS   BETA1      +2                         #  I(1)TMP PRIMARY BODY STATE TIME 1     B14
003721: E7,1426  E7,1756               CFPA               EQUALS   P(T1)      +1                         #  I(2)TMP COSINE FLIGHT PATH ANGLE     B1
003722: E7,1426  E7,1760               PHI2               EQUALS   CFPA       +2                         #  I(2)TMP PERI OR APO INDICATOR         B2
003723: E7,1426  E7,1762               SPRTEX             EQUALS   PHI2       +2                         #  I(1)TMP ROUTINE RETURN ADDRESS
003724: E7,1426  E7,1763               VNSTORE            EQUALS   SPRTEX     +1                         #  I(1)TMP VERBNOUN STORAGE
003725: E7,1426  E7,1764               BETA12             EQUALS   VNSTORE    +1                         #  I(2)TMP SIGN FOR TIMERAD
003726:
003727:                                                                                                  #  OVERLAYS WITHIN RETURN-TO-EARTH STORAGE.


003729: E7,1426                        RPRE               EQUALS   24D                                   #  I(2)TMP COMPUTED PREC RADIUS          M B29/B27
003730: E7,1426                        P/RPRE             EQUALS   26D                                   #  I(2)TMP P/R                           B4
003731: E7,1426                        R/APRE             EQUALS   28D                                   #  I(2)TMP R/A                           B6
003732: E7,1426  E7,1723               X(T2)PRE           EQUALS   T12                                   #  I(2)TMP PREC COTAN GAMMA2             B0
003733: E7,1426  E7,1725               X(T2)              EQUALS   DELTAT                                #  I(2)TMP COTAN GAMMA2                  B0
003734: E7,1426  E7,1745               UH/                EQUALS   UV1/                                  #  I(2)TMP UNIT HORIZONTAL VECTOR.       B1
003735: E7,1426  E7,1412               SPRTETIG           EQUALS   TIG                                   #  I(2)IN TIME OF IGNITION               CS B28
003736:


003738:                                                                                                  #  *-*-*-*- OVERLAY 6 IN EBANK 7 -*-*-*-*
003739:                                                                                                  #  P32,P33
003740:
003741:                                                                                                  #  THE FOLLOWING OVERLAY MEAS. INCORP. AND ARE IN USE ONLY WHEN (32D)
003742: E7,1426  E7,1457               POSTCSI            EQUALS   VG                                    #  I(2)
003743: E7,1426  E7,1461               DELVCSI            EQUALS   POSTCSI    +2                         #  I(2)
003744: E7,1426  E7,1463               DELDV              EQUALS   DELVCSI    +2                         #  I(2)
003745: E7,1426  E7,1465               GAMPREV            EQUALS   DELDV      +2                         #  I(2)
003746: E7,1426  E7,1467               DVPREV             EQUALS   GAMPREV    +2                         #  I(2)
003747: E7,1426  E7,1471               POSTCDH            EQUALS   DVPREV     +2                         #  I(2)
003748: E7,1426  E7,1471               HAFPA1             EQUALS   POSTCDH
003749: E7,1426  E7,1473               VACT4              EQUALS   POSTCDH    +2                         #  I(6)
003750: E7,1426  E7,1501               RDOTV              EQUALS   VACT4      +6                         #  I(2)
003751: E7,1426  E7,1503               VACT1              EQUALS   RDOTV      +2                         #  I(6)
003752: E7,1426  E7,1511               VPASS1             EQUALS   VACT1      +6                         #  I(6) VEL. PASSIVE VEH, AT CSI TIME
003753:
003754: E7,1426  E7,1545               UNVEC              EQUALS   VACT3
003755:
003756: E7,1426  E7,1655               T2TOT3             EQUALS   TPASS4                                #  I(2) TPI - TCDH
003757:
003758: E7,1426  E7,1664               CSIALRM            EQUALS   TITER                                 #  I(2) ALARM INDEX
003759:
003760: E7,1426  E7,1666               DELVEET2           EQUALS   S22WUNL                               #  I(6) VACT3 - VACT2 = DVCDH REF. COORD.
003761:
003762:                                                                                                  #  ADDITIONAL CSI - CDH STORAGE.         (10D)
003763: E7,1426  E7,1755               RPASS1             EQUALS   CENTANG    +2                         #  I(6) POS. PASSIVE VEH. AT CSI TIME.
003764: E7,1426  E7,1763               LOOPCT             EQUALS   RPASS1     +6                         #  I(2) ITERATION COUNTER
003765: E7,1426  E7,1765               NN                 EQUALS   LOOPCT     +2                         #  I(2)
003766:
003767:                                                                                                  #  P21 STORAGE                           (19D)
003768: E7,1426  E7,1603               P21ORIG            EQUALS   TRUNX                                 #  I(1)
003769: E7,1426  E7,1604               P21BASER           EQUALS   P21ORIG    +1                         #  I(6)
003770: E7,1426  E7,1612               P21BASEV           EQUALS   P21BASER   +6                         #  I(6)
003771: E7,1426  E7,1620               P21ALT             EQUALS   P21BASEV   +6                         #  I(2) NOUN 73 R1 ALTITUDE
003772: E7,1426  E7,1622               P21VEL             EQUALS   P21ALT     +2                         #  I(2) NOUN 73 R2 VELOCITY
003773: E7,1426  E7,1624               P21GAM             EQUALS   P21VEL     +2                         #  I(2) NOUN 73 R3 FLIGHT PATH ANGLE
003774:
003775: E7,1426                        WHOCARES           EQUALS   3777                                  #  A DUMMY FOR E-BANK INSENSITIVE 2CADRS.
003776: E7,1426  E7,1777               END-E7             EQUALS   WHOCARES                              #  ****** LAST LOCATION IN E7
003777:


003780:

End of include-file ERASABLE_ASSIGNMENTS.agc.  Parent file is MAIN.agc


