
Source Code


000002:                                                                                                  ## Copyright:   Public domain.
000003:                                                                                                  ## Filename:    EXECUTIVE.agc
000004:                                                                                                  ## Purpose:     A section of Comanche revision 044.
000005:                                                                                                  ##              It is part of the reconstructed source code for the
000006:                                                                                                  ##              original release of the flight software for the Command
000007:                                                                                                  ##              Module's (CM) Apollo Guidance Computer (AGC) for Apollo 10.
000008:                                                                                                  ##              The code has been recreated from a copy of Comanche 055. It
000009:                                                                                                  ##              has been adapted such that the resulting bugger words
000010:                                                                                                  ##              exactly match those specified for Comanche 44 in NASA drawing
000011:                                                                                                  ##              2021153D, which gives relatively high confidence that the
000012:                                                                                                  ##              reconstruction is correct.
000013:                                                                                                  ## Assembler:   yaYUL
000014:                                                                                                  ## Contact:     Ron Burkey <info@sandroid.org>.
000015:                                                                                                  ## Website:     www.ibiblio.org/apollo/index.html
000016:                                                                                                  ## Mod history: 2020-12-03 MAS  Created from Comanche 51.
000017:


000019:    5134                                           BLOCK    02
000020:
000021:                                                                                                  #  TO ENTER A JOB REQUEST REQUIRING NO VAC AREA:
000022:
000023:    5134                                           COUNT    02/EXEC
000024:
000025:    5134           00004        NOVAC              INHINT
000026:    5135           65226                           AD       FAKEPRET                              #  LOC(MPAC +6) - LOC(QPRET)
000027:    5136           54063                           TS       NEWPRIO                               #  PRIORITY OF NEW JOB + NOVAC C(FIXLOC)
000028:
000029:    5137           00006                           EXTEND
000030:    5140           50002                           INDEX    Q                                     #  Q WILL BE UNDISTURBED THROUGHOUT.
000031:    5141           30001                           DCA      0                                     #  2CADR OF JOB ENTERED.
000032:    5142           52066                           DXCH     NEWLOC
000033:    5143           35225                           CAF      EXECBANK
000034:    5144           56004                           XCH      FBANK
000035:    5145           54061                           TS       EXECTEM1
000036:    5146           12650                           TCF      NOVAC2                                #  ENTER EXECUTIVE BANK.
000037:
000038:                                                                                                  #  TO ENTER A JOB REQUEST REQUIRING A VAC AREA - E.G., ALL (PARTIALLY) INTERPRETIVE JOBS.
000039:
000040:    5147           00004        FINDVAC            INHINT
000041:    5150           54063                           TS       NEWPRIO
000042:    5151           00006                           EXTEND
000043:    5152           50002                           INDEX    Q
000044:    5153           30001                           DCA      0
000045:    5154           52066        SPVACIN            DXCH     NEWLOC
000046:    5155           35225                           CAF      EXECBANK
000047:    5156           56004                           XCH      FBANK
000048:    5157           12626                           TCF      FINDVAC2                              #  OFF TO EXECUTIVE SWITCHED-BANK.
000049:
000050:                                                                                                  #  TO ENTER A FINDVAC WITH THE PRIORITY IN NEWPRIO TO THE 2CADR ARRIVING IN A AND L:
000051:                                                                                                  #  USERS OF SPVAC MUST INHINT BEFORE STORING IN NEWPRIO.
000052:
000053:    5160           56002        SPVAC              XCH      Q
000054:    5161           67715                           AD       NEG2
000055:    5162           56002                           XCH      Q
000056:    5163           15154                           TCF      SPVACIN
000057:
000058:                                                                                                  #  TO SUSPEND A BASIC JOB SO A HIGHER PRIORITY JOB MAY BE SERVICED:
000059:
000060:    5164           22002        CHANG1             LXCH     Q
000061:    5165           35225                           CAF      EXECBANK
000062:    5166           56006                           XCH      BBANK
000063:    5167           12727                           TCF      CHANJOB
000064:
000065:                                                                                                  #  TO SUSPEND AN INTERPRETIVE JOB:
000066:
000067:    5170           40164        CHANG2             CS       LOC                                   #  NEGATIVE LOC SHOWS JOB = INTERPRETIVE.
000068:                                                                                                  #  ITRACE (4) REFERS TO "CHANG2".


000070:    5171           54001                           TS       L
000071:    5172           35225                 +2        CAF      EXECBANK
000072:    5173           54006                           TS       BBANK
000073:    5174           12726                           TCF      CHANJOB    -1
000074:


000076:                                                                                                  #  TO VOLUNTARILY SUSPEND A JOB UNTIL THE COMPLETION OF SOME ANTICIPATED EVENT (I/O EVENT ETC.):
000077:
000078:    5175           54164        JOBSLEEP           TS       LOC
000079:    5176           35225                           CAF      EXECBANK
000080:    5177           54004                           TS       FBANK
000081:    5200           13017                           TCF      JOBSLP1
000082:
000083:                                                                                                  #  TO AWAKEN A JOB PUT TO SLEEP IN THE ABOVE FASHION:
000084:
000085:    5201           00004        JOBWAKE            INHINT
000086:    5202           54065                           TS       NEWLOC
000087:    5203           45016                           CS       TWO                                   #  EXIT IS VIA FINDVAC/NOVAC PROCEDURES.
000088:    5204           26002                           ADS      Q
000089:    5205           35225                           CAF      EXECBANK
000090:    5206           56004                           XCH      FBANK
000091:    5207           13044                           TCF      JOBWAKE2
000092:
000093:                                                                                                  #  TO CHANGE THE PRIORITY OF A JOB CURRENTLY UNDER EXECUTION:
000094:
000095:    5210           00004        PRIOCHNG           INHINT                                         #  NEW PRIORITY ARRIVES IN A.  RETURNS TO
000096:    5211           54063                           TS       NEWPRIO                               #  CALLER AS SOON AS NEW JOB PRIORITY IS
000097:    5212           35225                           CAF      EXECBANK                              #  HIGHEST.  PREPARE FOR POSSIBLE BASIC-
000098:    5213           56006                           XCH      BBANK                                 #  STYLE CHANGE-JOB.
000099:    5214           54165                           TS       BANKSET
000100:    5215           30002                           CA       Q
000101:    5216           13113                           TCF      PRIOCH2
000102:
000103:                                                                                                  #  TO REMOVE A JOB FROM EXECUTIVE CONSIDERATIONS:
000104:
000105:    5217           35225        ENDOFJOB           CAF      EXECBANK
000106:    5220           54004                           TS       FBANK
000107:    5221           13124                           TCF      ENDJOB1
000108:
000109:    5222           30061        ENDFIND            CA       EXECTEM1                              #  RETURN TO CALLER AFTER JOB ENTRY
000110:    5223           54004                           TS       FBANK                                 #  COMPLETE.
000111:    5224           16710                           TCF      Q+2
000112:    5225           02626        EXECBANK           CADR     FINDVAC2
000113:
000114:    5226           00110        FAKEPRET           ADRES    MPAC       -36D                       #  LOC(MPAC +6) - LOC(QPRET)
000115:


000117:                                                                                                  #  LOCATE AN AVAILABLE VAC AREA.
000118:
000119: 01,2626                                           BANK     01
000120: 01,2626                                           COUNT    01/EXEC
000121:
000122: 01,2626           54061        FINDVAC2           TS       EXECTEM1                              #  (SAVE CALLER'S BANK FIRST.)
000123: 01,2627           10400                           CCS      VAC1USE
000124: 01,2630           12643                           TCF      VACFOUND
000125: 01,2631           10454                           CCS      VAC2USE
000126: 01,2632           12643                           TCF      VACFOUND
000127: 01,2633           10530                           CCS      VAC3USE
000128: 01,2634           12643                           TCF      VACFOUND
000129: 01,2635           10604                           CCS      VAC4USE
000130: 01,2636           12643                           TCF      VACFOUND
000131: 01,2637           10660                           CCS      VAC5USE
000132: 01,2640           12643                           TCF      VACFOUND
000133: 01,2641           07755                           TC       BAILOUT
000134: 01,2642           01201                           OCT      1201                                  #  NO VAC AREAS.
000135:
000136: 01,2643           65016        VACFOUND           AD       TWO                                   #  RESERVE THIS VAC AREA BY STORING A ZERO
000137: 01,2644           22007                           ZL                                             #  IN ITS VAC USE REGISTER AND STORE THE
000138: 01,2645           50000                           INDEX    A                                     #  ADDRESS OF THE FIRST WORD OF IT IN THE
000139: 01,2646           21777                           LXCH     0          -1                         #  LOW NINE BITS OF THE PRIORITY WORD.
000140: 01,2647           26063                           ADS      NEWPRIO
000141:
000142: 01,2650           35021        NOVAC2             CAF      ZERO                                  #  NOVAC ENTERS HERE.  FIND A CORE SET.
000143: 01,2651           54064                           TS       LOCCTR
000144: 01,2652           32657                           CAF      NO.CORES                              #  SEVEN SETS OF ELEVEN REGISTERS EACH.
000145: 01,2653           54062        NOVAC3             TS       EXECTEM2
000146: 01,2654           50064                           INDEX    LOCCTR
000147: 01,2655           10167                           CCS      PRIORITY                              #  EACH PRIORITY REGISTER CONTAINS -0 IF
000148: 01,2656           12717                           TCF      NEXTCORE                              #  THE CORRESPONDING CORE SET IS AVAILABLE.
000149: 01,2657           00006        NO.CORES           DEC      6          B-14
000150: 01,2660           12717                           TCF      NEXTCORE                              #  AN ACTIVE JOB HAS A POSITIVE PRIORITY
000151:                                                                                                  #  BUT A DORMANT JOB'S PRIORITY IS NEGATIVE
000152:


000154: 01,2661           30063        CORFOUND           CA       NEWPRIO                               #  SET THE PRIORITY OF THIS JOB IN THE CORE
000155: 01,2662           50064                           INDEX    LOCCTR                                #  SET'S PRIORITY REGISTER AND SET THE
000156: 01,2663           54167                           TS       PRIORITY                              #  JOB'S PUSH-DOWN POINTER AT THE BEGINNING
000157: 01,2664           75046                           MASK     LOW9                                  #  OF THE WORK AREA AND OVERFLOW INDICATOR
000158: 01,2665           50064                           INDEX    LOCCTR
000159: 01,2666           54166                           TS       PUSHLOC                               #  OFF TO PREPARE FOR INTERPRETIVE PROGRAMS
000160:
000161: 01,2667           10064                           CCS      LOCCTR                                #  IF CORE SET ZERO IS BEING LOADED, SET UP
000162: 01,2670           12704                           TCF      SETLOC                                #  OVFIND AND FIXLOC IMMEDIATELY.
000163: 01,2671           54121                           TS       OVFIND
000164: 01,2672           30166                           CA       PUSHLOC
000165: 01,2673           54120                           TS       FIXLOC
000166:
000167: 01,2674           10067        SPECTEST           CCS      NEWJOB                                #  SEE IF ANY ACTIVE JOBS WAITING (RARE).
000168: 01,2675           12704                           TCF      SETLOC                                #  MUST BE AWAKENED BUT UNCHANGED JOB.
000169: 01,2676           05741                           TC       CCSHOLE
000170: 01,2677           05741                           TC       CCSHOLE
000171: 01,2700           54067                           TS       NEWJOB                                #  +0 SHOWS ACTIVE JOB ALREADY SET.
000172: 01,2701           52066                           DXCH     NEWLOC
000173: 01,2702           52165                           DXCH     LOC
000174: 01,2703           15222                           TCF      ENDFIND
000175:
000176: 01,2704           52066        SETLOC             DXCH     NEWLOC                                #  SET UP THE LOCATION REGISTERS FOR THIS
000177: 01,2705           50064                           INDEX    LOCCTR
000178: 01,2706           52165                           DXCH     LOC
000179: 01,2707           50067                           INDEX    NEWJOB                                #  THIS INDEX INSTRUCTION INSURES THAT THE
000180: 01,2710           40167                           CS       PRIORITY                              #  HIGHEST ACTIVE PRIORITY WILL BE COMPARED
000181: 01,2711           60063                           AD       NEWPRIO                               #  WITH THE NEW PRIORITY TO SEE IF NEWJOB
000182: 01,2712           00006                           EXTEND                                         #  SHOULD BE SET TO SIGNAL A SWITCH.
000183: 01,2713           65222                           BZMF     ENDFIND
000184: 01,2714           30064                           CA       LOCCTR                                #  LOCCTR IS LEFT SET AT THIS CORE SET IF
000185: 01,2715           54067                           TS       NEWJOB                                #  THE CALLER WANTS TO LOAD ANY MPAC
000186: 01,2716           15222                           TCF      ENDFIND                               #  REGISTERS, ETC.
000187:
000188: 01,2717           33054        NEXTCORE           CAF      COREINC
000189: 01,2720           26064                           ADS      LOCCTR
000190: 01,2721           10062                           CCS      EXECTEM2
000191: 01,2722           12653                           TCF      NOVAC3
000192: 01,2723           07755                           TC       BAILOUT                               #  NO CORE SETS.
000193: 01,2724           01202                           OCT      1202


000195:                                                                                                  #  THE FOLLOWING ROUTINE SWAPS CORE SET 0 WITH THAT WHOSE RELATIVE ADDRESS IS IN NEWJOB.
000196:
000197: 01,2725           22164                 -2        LXCH     LOC
000198: 01,2726           30165                 -1        CAE      BANKSET                               #  BANKSET, NOT BBANK, HAS RIGHT CONTENTS.
000199: 01,2727           00004        CHANJOB            INHINT
000200: 01,2730           00006                           EXTEND
000201: 01,2731           04007                           ROR      SUPERBNK                              #  PICK UP CURRENT SBANK FOR BBCON
000202: 01,2732           56001                           XCH      L                                     #  LOC IN A AND BBCON IN L.
000203: 01,2733           50067                 +4        INDEX    NEWJOB                                #  SWAP LOC AND BANKSET.
000204: 01,2734           52165                           DXCH     LOC
000205: 01,2735           52165                           DXCH     LOC
000206:
000207: 01,2736           30165                           CAE      BANKSET
000208: 01,2737           00006                           EXTEND
000209: 01,2740           01007                           WRITE    SUPERBNK                              #  SET SBANK FOR NEW JOB.
000210: 01,2741           52155                           DXCH     MPAC                                  #  SWAP MULTI-PURPOSE ACCUMULATOR AREAS.
000211: 01,2742           50067                           INDEX    NEWJOB
000212: 01,2743           52155                           DXCH     MPAC
000213: 01,2744           52155                           DXCH     MPAC
000214: 01,2745           52157                           DXCH     MPAC       +2
000215: 01,2746           50067                           INDEX    NEWJOB
000216: 01,2747           52157                           DXCH     MPAC       +2
000217: 01,2750           52157                           DXCH     MPAC       +2
000218: 01,2751           52161                           DXCH     MPAC       +4
000219: 01,2752           50067                           INDEX    NEWJOB
000220: 01,2753           52161                           DXCH     MPAC       +4
000221: 01,2754           52161                           DXCH     MPAC       +4
000222: 01,2755           52163                           DXCH     MPAC       +6
000223: 01,2756           50067                           INDEX    NEWJOB
000224: 01,2757           52163                           DXCH     MPAC       +6
000225: 01,2760           52163                           DXCH     MPAC       +6
000226:
000227: 01,2761           35021                           CAF      ZERO
000228: 01,2762           56121                           XCH      OVFIND                                #  MAKE PUSHLOC NEGATIVE IF OVFIND NZ.
000229: 01,2763           00006                           EXTEND
000230: 01,2764           12767                           BZF      +3
000231: 01,2765           40166                           CS       PUSHLOC
000232: 01,2766           54166                           TS       PUSHLOC
000233:
000234: 01,2767           52167                           DXCH     PUSHLOC
000235: 01,2770           50067                           INDEX    NEWJOB
000236: 01,2771           52167                           DXCH     PUSHLOC
000237: 01,2772           52167                           DXCH     PUSHLOC                               #  SWAPS PUSHLOC AND PRIORITY.
000238: 01,2773           35046                           CAF      LOW9                                  #  SET FIXLOC TO BASE OF VAC AREA.
000239: 01,2774           70167                           MASK     PRIORITY
000240: 01,2775           54120                           TS       FIXLOC
000241:
000242: 01,2776           10166                           CCS      PUSHLOC                               #  SET OVERFLOW INDICATOR ACCORDING TO
000243: 01,2777           35021                           CAF      ZERO
000244: 01,3000           13005                           TCF      ENDPRCHG   -1
000245:


000247: 01,3001           40166                           CS       PUSHLOC
000248: 01,3002           54166                           TS       PUSHLOC
000249: 01,3003           35017                           CAF      ONE
000250: 01,3004           56121                           XCH      OVFIND
000251: 01,3005           54067                           TS       NEWJOB
000252:
000253: 01,3006           00003        ENDPRCHG           RELINT
000254: 01,3007           52165                           DXCH     LOC                                   #  BASIC JOBS HAVE POSITIVE ADDRESSES, SO
000255: 01,3010           00006                           EXTEND                                         #  DISPATCH WITH A DTCB.
000256: 01,3011           63013                           BZMF     +2                                    #  IF INTERPRETIVE, SET UP EBANK, ETC.
000257: 01,3012           52006                           DTCB


000259: 01,3013           40000                           COM                                            #  EPILOGUE TO JOB CHANGE FOR INTERPRETIVE
000260: 01,3014           65017                           AD       ONE
000261: 01,3015           54164                           TS       LOC                                   #  RESUME.
000262: 01,3016           16017                           TCF      INTRSM
000263:
000264:                                                                                                  #  COMPLETE JOBSLEEP PREPARATIONS.
000265:
000266: 01,3017           00004        JOBSLP1            INHINT
000267: 01,3020           40167                           CS       PRIORITY                              #  NNZ PRIORITY SHOWS JOB ASLEEP.
000268: 01,3021           54167                           TS       PRIORITY
000269: 01,3022           36043                           CAF      LOW7
000270: 01,3023           70006                           MASK     BBANK
000271: 01,3024           00006                           EXTEND
000272: 01,3025           04007                           ROR      SUPERBNK                              #  SAVE OLD SUPERBANK VALUE.
000273: 01,3026           54165                           TS       BANKSET
000274: 01,3027           45021                           CS       ZERO
000275: 01,3030           54131        JOBSLP2            TS       BUF        +1                         #  HOLDS - HIGHEST PRIORITY.
000276: 01,3031           13141                           TCF      EJSCAN                                #  SCAN FOR HIGHEST PRIORITY ALA ENDOFJOB.
000277:
000278: 01,3032           00004        NUCHANG2           INHINT                                         #  QUICK... DONT LET NEWJOB CHANGE TO +0.
000279: 01,3033           10067                           CCS      NEWJOB
000280: 01,3034           13037                           TCF      +3                                    #  NEWJOB STILL PNZ
000281: 01,3035           00003                           RELINT                                         #  NEW JOB HAS CHANGED TO +0.  WAKE UP JOB
000282: 01,3036           13233                           TCF      ADVAN      +2                         #  VIA NUDIRECT.  (VERY RARE CASE.)
000283:
000284: 01,3037           35016                           CAF      TWO
000285: 01,3040           00006                           EXTEND
000286: 01,3041           05011                           WOR      DSALMOUT                              #  TURN ON ACTIVITY LIGHT
000287: 01,3042           52165                           DXCH     LOC                                   #  AND SAVE ADDRESS INFO FOR BENEFIT OF
000288: 01,3043           12733                           TCF      CHANJOB    +4                         #        POSSIBLE SLEEPING JOB.
000289:


000291:                                                                                                  #  TO WAKE UP A JOB, EACH CORE SET IS FOUND TO LOCATE ALL JOBS WHICH ARE ASLEEP.  IF THE FCADR IN THE
000292:                                                                                                  #  LOC REGISTER OF ANY SUCH JOB MATCHES THAT SUPPLIED BY THE CALLER, THAT JOB IS AWAKENED.  IF NO JOB IS FOUND,
000293:                                                                                                  #  LOCCTR IS SET TO -1 AND NO FURTHER ACTION TAKES PLACE.
000294:
000295: 01,3044           54061        JOBWAKE2           TS       EXECTEM1
000296: 01,3045           35021                           CAF      ZERO                                  #  BEGIN CORE SET SCAN.
000297: 01,3046           54064                           TS       LOCCTR
000298: 01,3047           32657                           CAF      NO.CORES
000299: 01,3050           54062        JOBWAKE4           TS       EXECTEM2
000300: 01,3051           50064                           INDEX    LOCCTR
000301: 01,3052           10167                           CCS      PRIORITY
000302: 01,3053           13056                           TCF      JOBWAKE3                              #  ACTIVE JOB - CHECK NEXT CORE SET.
000303: 01,3054           00014        COREINC            DEC      12         B-14                       #  12 REGISTERS PER CORE SET.
000304: 01,3055           13065                           TCF      WAKETEST                              #  SLEEPING JOB - SEE IF CADR MATCHES.
000305:
000306: 01,3056           33054        JOBWAKE3           CAF      COREINC
000307: 01,3057           26064                           ADS      LOCCTR
000308: 01,3060           10062                           CCS      EXECTEM2
000309: 01,3061           13050                           TCF      JOBWAKE4
000310: 01,3062           45017                           CS       ONE                                   #  EXIT IF SLEEPING JOB NOT FOUND.
000311: 01,3063           54064                           TS       LOCCTR
000312: 01,3064           15222                           TCF      ENDFIND
000313:
000314: 01,3065           40065        WAKETEST           CS       NEWLOC
000315: 01,3066           50064                           INDEX    LOCCTR
000316: 01,3067           60164                           AD       LOC
000317: 01,3070           00006                           EXTEND
000318: 01,3071           13073                           BZF      +2                                    #  IF MATCH.
000319: 01,3072           13056                           TCF      JOBWAKE3                              #  EXAMINE NEXT CORE SET IF NO MATCH.
000320:
000321: 01,3073           50064                           INDEX    LOCCTR                                #  RE-COMPLEMENT PRIORITY TO SHOW JOB AWAKE
000322: 01,3074           40167                           CS       PRIORITY
000323: 01,3075           54063                           TS       NEWPRIO
000324: 01,3076           50064                           INDEX    LOCCTR
000325: 01,3077           54167                           TS       PRIORITY
000326:
000327: 01,3100           44364                           CS       FBANKMSK                              #  MAKE UP THE 2CADR OF THE WAKE ADDRESS
000328: 01,3101           70065                           MASK     NEWLOC                                #  USING THE CADR IN NEWLOC AND THE EBANK
000329: 01,3102           65005                           AD       2K                                    #  HALF OF BBANK SAVED IN BANKSET.
000330: 01,3103           56065                           XCH      NEWLOC
000331: 01,3104           74364                           MASK     FBANKMSK
000332: 01,3105           50064                           INDEX    LOCCTR
000333: 01,3106           60165                           AD       BANKSET
000334: 01,3107           54066                           TS       NEWLOC     +1
000335:
000336: 01,3110           10064                           CCS      LOCCTR                                #  SPECIAL TREATMENT IF THIS JOB WAS
000337: 01,3111           12704                           TCF      SETLOC                                #  ALREADY IN THE RUN (0) POSITION.
000338: 01,3112           12674                           TCF      SPECTEST
000339:


000341:                                                                                                  #  PRIORITY CHANGE.  CHANGE THE CONTENTS OF PRIORITY AND SCAN FOR THE JOB OF HIGHEST PRIORITY.
000342:
000343: 01,3113           54164        PRIOCH2            TS       LOC
000344: 01,3114           35021                           CAF      ZERO                                  #  SET FLAG TO TELL ENDJOB SCANNER IF THIS
000345: 01,3115           54130                           TS       BUF                                   #  JOB IS STILL HIGHEST PRIORITY.
000346: 01,3116           35046                           CAF      LOW9
000347: 01,3117           70167                           MASK     PRIORITY
000348: 01,3120           60063                           AD       NEWPRIO
000349: 01,3121           54167                           TS       PRIORITY
000350: 01,3122           40000                           COM
000351: 01,3123           13030                           TCF      JOBSLP2                               #  AND TO EJSCAN.
000352:


000354:                                                                                                  #  RELEASE THIS CORE SET AND VAC AREA AND SCAN FOR THE JOB OF HIGHEST ACTIVE PRIORITY.
000355:
000356: 01,3124           00004        ENDJOB1            INHINT
000357: 01,3125           45021                           CS       ZERO
000358: 01,3126           54131                           TS       BUF        +1
000359: 01,3127           56167                           XCH      PRIORITY
000360: 01,3130           75046                           MASK     LOW9
000361: 01,3131           54001                           TS       L
000362:
000363: 01,3132           45226                           CS       FAKEPRET
000364: 01,3133           60001                           AD       L
000365:
000366: 01,3134           00006                           EXTEND
000367: 01,3135           63141                           BZMF     EJSCAN                                #  NOVAC ENDOFJOB
000368:
000369: 01,3136           10001                           CCS      L
000370: 01,3137           50000                           INDEX    A
000371: 01,3140           54000                           TS       0
000372:
000373: 01,3141           10203        EJSCAN             CCS      PRIORITY   +12D
000374: 01,3142           03206                           TC       EJ1
000375: 01,3143           05741                           TC       CCSHOLE
000376: 01,3144           13145                           TCF      +1
000377:
000378: 01,3145           10217                           CCS      PRIORITY   +24D                       #  EXAMINE EACH PRIORITY REGISTER TO FIND
000379: 01,3146           03206                           TC       EJ1                                   #  THE JOB OF HIGHEST ACTIVE PRIORITY.
000380: 01,3147           05741                           TC       CCSHOLE
000381: 01,3150           13151                           TCF      +1
000382:
000383: 01,3151           10233                           CCS      PRIORITY   +36D
000384: 01,3152           03206                           TC       EJ1
000385: 01,3153           67610        -CCSPR             -CCS     PRIORITY
000386: 01,3154           13155                           TCF      +1
000387:
000388: 01,3155           10247                           CCS      PRIORITY   +48D
000389: 01,3156           03206                           TC       EJ1
000390: 01,3157           05741                           TC       CCSHOLE
000391: 01,3160           13161                           TCF      +1
000392:
000393: 01,3161           10263                           CCS      PRIORITY   +60D
000394: 01,3162           03206                           TC       EJ1
000395: 01,3163           05741                           TC       CCSHOLE
000396: 01,3164           13165                           TCF      +1
000397:
000398: 01,3165           10277                           CCS      PRIORITY   +72D
000399: 01,3166           03206                           TC       EJ1
000400: 01,3167           05741                           TC       CCSHOLE
000401: 01,3170           13171                           TCF      +1
000402:


000404:                                                                                                  #  EVALUATE THE RESULTS OF THE SCAN.
000405:
000406: 01,3171           10131                           CCS      BUF        +1                         #  SEE IF THERE ARE ANY ACTIVE JOBS WAITING
000407: 01,3172           05741                           TC       CCSHOLE
000408: 01,3173           05741                           TC       CCSHOLE
000409:
000410: 01,3174           13176                           TCF      +2
000411: 01,3175           13223                           TCF      DUMMYJOB
000412: 01,3176           10130                           CCS      BUF                                   #  BUF IS ZERO IF THIS IS A PRIOCHNG AND
000413: 01,3177           13201                           TCF      +2                                    #  CHANGED PRIORITY IS STILL HIGHEST.
000414: 01,3200           13005                           TCF      ENDPRCHG   -1
000415:
000416: 01,3201           50000                           INDEX    A                                     #  OTHERWISE, SET NEWJOB TO THE RELATIVE
000417: 01,3202           27777                           CAF      0          -1                         #  ADDRESS OF THE NEW JOB'S CORE SET.
000418: 01,3203           63153                           AD       -CCSPR
000419: 01,3204           54067                           TS       NEWJOB
000420: 01,3205           12725                           TCF      CHANJOB    -2
000421:
000422: 01,3206           54132        EJ1                TS       BUF        +2
000423: 01,3207           60131                           AD       BUF        +1                         #  - OLD HIGH PRIORITY.
000424: 01,3210           10000                           CCS      A
000425: 01,3211           40132                           CS       BUF        +2
000426: 01,3212           13216                           TCF      EJ2                                   #  NEW HIGH PRIORITY.
000427: 01,3213           13214                           NOOP
000428: 01,3214           50002                           INDEX    Q
000429: 01,3215           00002                           TC       2                                     #  PROCEED WITH SEARCH.
000430:
000431: 01,3216           54131        EJ2                TS       BUF        +1
000432: 01,3217           00006                           EXTEND
000433: 01,3220           22130                           QXCH     BUF                                   #  FOR LOCATING CCS PRIORITY + X INSTR.
000434: 01,3221           50130                           INDEX    BUF
000435: 01,3222           00002                           TC       2
000436:


000438:                                                                                                  #  IDLING AND COMPUTER ACTIVITY (GREEN) LIGHT MAINTENANCE. THE IDLING ROUTINE IS NOT A JOB IN ITSELF,
000439:                                                                                                  #  BUT RATHER A SUBROUTINE OF THE EXECUTIVE.
000440:
000441: 01,3223     1361                                  EBANK=   SELFRET                               #  SELF-CHECK STORAGE IN EBANK.
000442:
000443: 01,3223           45021        DUMMYJOB           CS       ZERO                                  #  SET NEWJOB TO -0 FOR IDLING.
000444: 01,3224           54067                           TS       NEWJOB
000445: 01,3225           00003                           RELINT
000446: 01,3226           45016                           CS       TWO                                   #  TURN OFF THE ACTIVITY LIGHT.
000447: 01,3227           00006                           EXTEND
000448: 01,3230           03011                           WAND     DSALMOUT
000449: 01,3231           10067        ADVAN              CCS      NEWJOB                                #  IS A NEWJOB ACTIVE?
000450: 01,3232           13032                           TCF      NUCHANG2                              #  YES... ONE REQUIRING A CHANGE JOB.
000451: 01,3233           35016                           CAF      TWO                                   #  NEW JOB ALREADY IN POSITION FOR
000452: 01,3234           13242                           TCF      NUDIRECT                              #  EXECUTION.
000453:
000454: 01,3235           31361                           CA       SELFRET
000455: 01,3236           54001                           TS       L                                     #  PUT RETURN ADDRESS IN L.
000456: 01,3237           33241                           CAF      SELFBANK
000457: 01,3240           15230                           TCF      SUPDXCHZ   +1                         #  AND DISPATCH JOB.
000458:
000459: 01,3241     1361                                  EBANK=   SELFRET
000460: 01,3241           66102        SELFBANK           BBCON    SELFCHK
000461:
000462: 01,3242           00006        NUDIRECT           EXTEND                                         #  TURN THE GREEN LIGHT BACK ON.
000463: 01,3243           05011                           WOR      DSALMOUT
000464: 01,3244           52165                           DXCH     LOC                                   #  JOBS STARTED IN THIS FASHION MUST BE
000465: 01,3245           15227                           TCF      SUPDXCHZ
000466:
000467:    5227                                           BLOCK    2                                     #  IN FIXED-FIXED SO OTHERS MAY USE.
000468:
000469:    5227                                           COUNT    02/EXEC
000470:
000471:                                                                                                  #  SUPDXCHZ - ROUTINE TO TRANSFER TO SUPERBANK.
000472:                                                                                                  #  CALLING SEQUENCE
000473:                                                                                                  #                TCF     SUPDXCHZ        WITH 2CADR OF DESIRED LOCATION IN A + L.
000474:
000475:    5227           56001        SUPDXCHZ           XCH      L                                     #  BASIC.
000476:    5230           00006                 +1        EXTEND
000477:    5231           01007                           WRITE    SUPERBNK
000478:    5232           54006                           TS       BBANK
000479:    5233           00001                           TC       L
000480:
000481:    5234           77677        NEG100             OCT      77677
000482:
000483:
000484:

End of include-file EXECUTIVE.agc.  Parent file is MAIN.agc


