
Source Code


000002:                                                                                                  ## Copyright:   Public domain.
000003:                                                                                                  ## Filename:    FIXED-FIXED_CONSTANT_POOL.agc
000004:                                                                                                  ## Purpose:     A section of Comanche revision 044.
000005:                                                                                                  ##              It is part of the reconstructed source code for the
000006:                                                                                                  ##              original release of the flight software for the Command
000007:                                                                                                  ##              Module's (CM) Apollo Guidance Computer (AGC) for Apollo 10.
000008:                                                                                                  ##              The code has been recreated from a copy of Comanche 055. It
000009:                                                                                                  ##              has been adapted such that the resulting bugger words
000010:                                                                                                  ##              exactly match those specified for Comanche 44 in NASA drawing
000011:                                                                                                  ##              2021153D, which gives relatively high confidence that the
000012:                                                                                                  ##              reconstruction is correct.
000013:                                                                                                  ## Assembler:   yaYUL
000014:                                                                                                  ## Contact:     Ron Burkey <info@sandroid.org>.
000015:                                                                                                  ## Website:     www.ibiblio.org/apollo/index.html
000016:                                                                                                  ## Mod history: 2020-12-03 MAS  Created from Comanche 51.
000017:


000019:    4776                                           BLOCK    02
000020:    4776                                           COUNT    02/FCONS
000021:
000022:                                                                                                  #  THE FOLLOWING TABLE OF 18 VALUES IS INDEXED.  DO NOT INSERT OR REMOVE ANY QUANTITIES.
000023:
000024:    4776           37777        DPOSMAX            OCT      37777                                 #  MUST PRECEDE POSMAX
000025:    4777           37777        POSMAX             OCT      37777
000026:
000027:    5000     5000               LIMITS             =        NEG1/2
000028:
000029:    5000           57777        NEG1/2             OCT      -20000                                #  USED BY SIN ROUTINE (MUST BE TWO
000030:                                                                                                  #  LOCATIONS IN FRONT OF BIT14)
000031:
000032:                                                                                                  #  BIT TABLE
000033:
000034:    5001           40000        BIT15              OCT      40000
000035:    5002           20000        BIT14              OCT      20000
000036:    5003           10000        BIT13              OCT      10000
000037:    5004           04000        BIT12              OCT      04000
000038:    5005           02000        BIT11              OCT      02000
000039:    5006           01000        BIT10              OCT      01000
000040:    5007           00400        BIT9               OCT      00400
000041:    5010           00200        BIT8               OCT      00200
000042:    5011           00100        BIT7               OCT      00100
000043:    5012           00040        BIT6               OCT      00040
000044:    5013           00020        BIT5               OCT      00020
000045:    5014           00010        BIT4               OCT      00010
000046:    5015           00004        BIT3               OCT      00004
000047:    5016           00002        BIT2               OCT      00002
000048:    5017           00001        BIT1               OCT      00001
000049:
000050:                                                                                                  #  DO NOT DESTROY THIS COMBINATION, SINCE IT IS USED IN DOUBLE PRECISION INSTRUCTIONS.
000051:    5020           77777        NEG0               OCT      -0                                    #  MUST PRECEDE ZERO
000052:    5021           00000        ZERO               OCT      0                                     #  MUST FOLLOW NEG0
000053:                                                                                                  #  BIT1          OCT     00001
000054:                                                                                                  #  NO.WDS        OCT     2               INTERPRETER
000055:                                                                                                  #  OCTAL3        OCT     3               INTERPRETER
000056:                                                                                                  #  R3D1          OCT     4               PINBALL
000057:    5022           00005        FIVE               OCT      5
000058:                                                                                                  #  REVCNT        OCT     6               INTERPRETER
000059:    5023           00007        SEVEN              OCT      7
000060:                                                                                                  #  BIT4          OCT     00010
000061:                                                                                                  #  R2D1          OCT     11              PINBALL
000062:    5024     4334               OCT11              =        R2D1                                  #  P20S
000063:                                                                                                  #  BINCON        DEC     10              PINBALL         (OCTAL 12)
000064:    5024           00013        ELEVEN             DEC      11         B-14
000065:                                                                                                  #  OCT14         OCT     14              ALARM AND ABORT (FILLER)
000066:    5025           00015        OCT15              OCT      15
000067:                                                                                                  #  R1D1          OCT     16              PINBALL


000069:    5026           00017        LOW4               OCT      17
000070:                                                                                                  #  BIT5          OCT     00020
000071:                                                                                                  #  ND1           OCT     21              PINBALL
000072:                                                                                                  #  VD1           OCT     23              PINBALL
000073:                                                                                                  #  OCT24         OCT     24              SERVICE ROUTINES
000074:                                                                                                  #  MD1           OCT     25              PINBALL
000075:    5027           00030        BITS4&5            OCT      30
000076:                                                                                                  #  OCT31         OCT     31              SERVICE ROUTINES
000077:    5030           00032        CALLCODE           OCT      00032
000078:                                                                                                  #  LOW5          OCT     37              PINBALL
000079:                                                                                                  #  33DEC         DEC     33              PINBALL         (OCTAL 41)
000080:                                                                                                  #  34DEC         DEC     34              PINBALL         (OCTAL 42)
000081:    5031           00045        TBUILDFX           DEC      37         B-14                       #  BUILDUP FOR CONVIENCE IN DAPTESTING
000082:    5032           00046        TDECAYFX           DEC      38         B-14                       #  CONVENIENCE FOR DAPTESTING
000083:                                                                                                  #  BIT6          OCT     00040
000084:    5033           00050        OCT50              OCT      50
000085:    5034           00055        DEC45              DEC      45         B-14
000086:    5035           00060        SUPER011           OCT      60                                    #  BITS FOR SUPERBNK SETTING 011.
000087:    5036           00062        .5SEC              DEC      50         B-14
000088:                                                                                                  #  BIT7          OCT     00100
000089:
000090:    5037     5011               SUPER100           =        BIT7                                  #  BITS FOR SUPERBNK SETTING 100
000091:                                                                                                  #  (LAST 4K OF ROPE)
000092:    5037           00120        SUPER101           OCT      120                                   #  BITS FOR SUPERBNK SETTING 101
000093:                                                                                                  #  OCT121        OCT     121             SERVICE ROUTINES
000094:                                                                                                  #  (FIRST 8K OF ACM)
000095:    5040           00140        SUPER110           OCT      140                                   #  BITS FOR SUPERBNK SETTING 110.
000096:                                                                                                  #  (LAST 8K OF ACM)
000097:    5041           00144        1SEC               DEC      100        B-14
000098:                                                                                                  #  LOW7          OCT     177             INTERPRETER
000099:                                                                                                  #  BIT8          OCT     00200
000100:                                                                                                  #  OT215         OCT     215             ALARM AND ABORT
000101:                                                                                                  #  8,5           OCT     00220           P20-P25 SUNDANCE
000102:    5042           00310        2SECS              DEC      200        B-14
000103:                                                                                                  #  LOW8          OCT     377             PINBALL
000104:                                                                                                  #  BIT9          OCT     00400
000105:    5043           00401        GN/CCODE           OCT      00401                                 #  SET S/C CONTROL SWITCH TO G/N
000106:    5044           00454        3SECS              DEC      300        B-14
000107:    5045           00620        4SECS              DEC      400        B-14
000108:    5046           00777        LOW9               OCT      777
000109:                                                                                                  #  BIT10         OCT     01000
000110:                                                                                                  #  5.5DEGS       DEC     .03056          P20-P25 SUNDANCE        (OCTAL 00765)
000111:                                                                                                  #  OCT1103       OCT     1103            ALARM AND ABORT
000112:    5047           01124        C5/2               DEC      .0363551                              #                        (OCTAL 01124)
000113:    5050           01211        V05N09             VN       0509                                  #  (SAME AS OCTAL 1211)
000114:    5051           01400        OCT1400            OCT      01400
000115:    5052           01426        V06N22             VN       0622
000116:                                                                                                  #  MID5          OCT     1740            PINBALL
000117:    5053           01776        BITS2-10           OCT      1776
000118:    5054           01777        LOW10              OCT      1777


000120:                                                                                                  #  BIT11         OCT     02000
000121:                                                                                                  #  2K+3          OCT     2003            PINBALL
000122:    5055           02177        LOW7+2K            OCT      2177                                  #  OP CODE MASK + BANK 1 FBANK SETTING.
000123:    5056           02400        EBANK5             OCT      02400
000124:    5057           03000        PRIO3              OCT      03000
000125:    5060           03400        EBANK7             OCT      03400
000126:                                                                                                  #  LOW11         OCT     3777            PINBALL
000127:                                                                                                  #  BIT12         OCT     04000
000128:                                                                                                  #  RELTAB        OCT     04025           T4RUPT
000129:    5061           05000        PRIO5              OCT      05000
000130:    5062           06000        PRIO6              OCT      06000
000131:    5063           07000        PRIO7              OCT      07000
000132:
000133:                                                                                                  #  BIT13         OCT     10000
000134:                                                                                                  #                OCT     10003           T4RUPT  RELTAB +1D
000135:                                                                                                  #  13,7,2        OCT     10102           P20-P25 SUNDANCE
000136:    5064           11000        PRIO11             OCT      11000
000137:                                                                                                  #  PRIO12        OCT     12000           BANKCALL
000138:    5065           13000        PRIO13             OCT      13000
000139:    5066           14000        PRIO14             OCT      14000
000140:                                                                                                  #                OCT     14031           T4RUPT  RELTAB +2D
000141:    5067           15000        PRIO15             OCT      15000
000142:    5070           16000        PRIO16             OCT      16000
000143:                                                                                                  #  85DEGS        DEC     .45556          P20-P25 SUNDANCE        (OCTAL 16450)
000144:    5071           17000        PRIO17             OCT      17000
000145:    5072           17770        OCT17770           OCT      17770
000146:                                                                                                  #  BIT14         OCT     20000
000147:                                                                                                  #                OCT     20033           T4RUPT  RELTAB +3D
000148:    5073           21000        PRIO21             OCT      21000
000149:    7657                                           BLOCK    03
000150:    7657                                           COUNT    03/FCONS
000151:
000152:    7657           22000        PRIO22             OCT      22000                                 #  SERVICE ROUTINES
000153:    7660           23000        PRIO23             OCT      23000
000154:    7661           24000        PRIO24             OCT      24000
000155:                                                                                                  #  5/8+1         OCT     24001           SINGLE PRECISION SUBROUTINES
000156:                                                                                                  #                OCT     24017           T4RUPT  RELTAB +4D
000157:    7662           25000        PRIO25             OCT      25000
000158:    7663           26000        PRIO26             OCT      26000
000159:    7664           27000        PRIO27             OCT      27000
000160:                                                                                                  #  CHRPRIO       OCT     30000           PINBALL
000161:                                                                                                  #                OCT     30036           T4RUPT  RELTAB +5D
000162:    7665           31000        PRIO31             OCT      31000
000163:    7666           31103        C1/2               DEC      .7853134                              #                        (OCTAL 31103)
000164:    7667           32000        PRIO32             OCT      32000
000165:    7670           33000        PRIO33             OCT      33000
000166:    7671           34000        PRIO34             OCT      34000
000167:                                                                                                  #                OCT     34034           T4RUPT  RELTAB +6D
000168:    7672           35000        PRIO35             OCT      35000
000169:    7673           36000        PRIO36             OCT      36000


000171:    7674           37000        PRIO37             OCT      37000
000172:    7675           37401        63/64+1            OCT      37401
000173:                                                                                                  #  MID7          OCT     37600           PINBALL
000174:    7676           37766        OCT37766           OCT      37766
000175:    7677           37774        OCT37774           OCT      37774
000176:    7700           37776        OCT37776           OCT      37776
000177:                                                                                                  #  DPOSMAX       OCT     37777
000178:                                                                                                  #  BIT15         OCT     40000
000179:                                                                                                  #  OCT40001      OCT     40001           INTERPRETER (CS 1 INSTRUCTION)
000180:    7701           40014        DLOADCOD           OCT      40014
000181:    7702           40015        DLOAD*             OCT      40015
000182:                                                                                                  #                OCT     40023           T4RUPT  RELTAB +7D
000183:    7703           40040        BIT15+6            OCT      40040
000184:    7704           40200        OCT40200           OCT      40200
000185:                                                                                                  #                OCT     44035           T4RUPT  RELTAB +8D
000186:                                                                                                  #                OCT     50037           T4RUPT  RELTAB +9D
000187:                                                                                                  #                OCT     54000           T4RUPT  RELTAB +10D
000188:    7705           57777        -BIT14             OCT      57777
000189:                                                                                                  #  RELTAB11      OCT     60000           T4RUPT
000190:    7706           65552        C3/2               DEC      -.3216147                             #                        (OCTAL 65552)
000191:    7707           70000        13,14,15           OCT      70000
000192:    7710           73777        -1/8               OCT      73777
000193:    7711           74000        HIGH4              OCT      74000
000194:    7712           74056        -ENDERAS           DEC      -2001      B-14                       #                        (OCTAL 74056)
000195:                                                                                                  #  HI5           OCT     76000           PINBALL
000196:    7713           77700        HIGH9              OCT      77700
000197:                                                                                                  #  -ENDVAC       DEC     -45             INTERPRETER             (OCTAL 77722)
000198:                                                                                                  #  -OCT10        OCT     -10                                      (OCT 77767)
000199:                                                                                                  #  NEG4          DEC     -4                                      (OCTAL 77773)
000200:    7714           77774        NEG3               DEC      -3         B-14
000201:    7715           77775        NEG2               OCT      77775
000202:    7716           77776        NEGONE             DEC      -1         B-14
000203:


000205:
000206:                                                                                                  #  DEFINED BY EQUALS
000207:
000208:                                                                                                  #  IT WOULD BE TO THE USERS ADVANTAGE TO OCCASIONALLY CHECK ANY OF THESE SYMBOLS IN ORDER TO PREVENT ANY
000209:                                                                                                  #  ACCIDENTAL DEFINITION CHANGES.
000210:
000211:    7717     7716               MINUS1             =        NEG1
000212:    7717     7716               NEG1               =        NEGONE
000213:    7717     5017               ONE                =        BIT1
000214:    7717     5016               TWO                =        BIT2
000215:    7717     6214               THREE              =        OCTAL3
000216:    7717     6214               LOW2               =        THREE
000217:    7717     5015               FOUR               =        BIT3
000218:    7717     6211               SIX                =        REVCNT
000219:    7717     5023               LOW3               =        SEVEN
000220:    7717     5014               EIGHT              =        BIT4
000221:    7717     4334               NINE               =        R2D1
000222:    7717     4377               TEN                =        BINCON
000223:    7717     5024               NOUTCON            =        ELEVEN
000224:    7717     4374               OCT23              =        VD1
000225:    7717     4376               OCT25              =        MD1
000226:    7717     5006               PRIO1              =        BIT10
000227:    7717     5051               EBANK3             =        OCT1400
000228:    7717     5005               PRIO2              =        BIT11
000229:    7717     5037               OCT120             =        SUPER101
000230:    7717     5040               OCT140             =        SUPER110
000231:    7717     5005               2K                 =        BIT11
000232:    7717     5005               EBANK4             =        BIT11
000233:    7717     5004               PRIO4              =        BIT12
000234:    7717     5057               EBANK6             =        PRIO3
000235:    7717     5003               QUARTER            =        BIT13
000236:    7717     5003               PRIO10             =        BIT13
000237:    7717     7632               OCT10001           =        CCSL
000238:    7717     5002               POS1/2             =        HALF
000239:    7717     5002               PRIO20             =        BIT14
000240:    7717     5002               HALF               =        BIT14
000241:    7717     4371               PRIO30             =        CHRPRIO
000242:    7717     4371               BIT13-14           =        PRIO30                                #  INTERPRETER USES IN PROCESSING STORECODE
000243:    7717     6440               OCT30002           =        TLOAD      +1
000244:    7717     7671               B12T14             =        PRIO34
000245:    7717     5001               NEGMAX             =        BIT15
000246:    7717     5001               VLOADCOD           =        BIT15
000247:    7717     6056               VLOAD*             =        OCT40001
000248:    7717     4105               OCT60000           =        RELTAB11
000249:    7717     4364               BANKMASK           =        HI5
000250:

End of include-file FIXED-FIXED_CONSTANT_POOL.agc.  Parent file is MAIN.agc


