
Source Code


000002:                                                                                                  ## Copyright:   Public domain.
000003:                                                                                                  ## Filename:    GIMBAL_LOCK_AVOIDANCE.agc
000004:                                                                                                  ## Purpose:     A section of Comanche revision 044.
000005:                                                                                                  ##              It is part of the reconstructed source code for the
000006:                                                                                                  ##              original release of the flight software for the Command
000007:                                                                                                  ##              Module's (CM) Apollo Guidance Computer (AGC) for Apollo 10.
000008:                                                                                                  ##              The code has been recreated from a copy of Comanche 055. It
000009:                                                                                                  ##              has been adapted such that the resulting bugger words
000010:                                                                                                  ##              exactly match those specified for Comanche 44 in NASA drawing
000011:                                                                                                  ##              2021153D, which gives relatively high confidence that the
000012:                                                                                                  ##              reconstruction is correct.
000013:                                                                                                  ## Assembler:   yaYUL
000014:                                                                                                  ## Contact:     Ron Burkey <info@sandroid.org>.
000015:                                                                                                  ## Website:     www.ibiblio.org/apollo/index.html
000016:                                                                                                  ## Mod history: 2020-12-03 MAS  Created from Comanche 51.
000017:                                                                                                  ##              2020-12-04 MAS  Changed the last ARATE entry back to 4 deg/s.
000018:                                                                                                  ##              2020-12-11 RSB  Added justifying annotations for Mike's
000019:                                                                                                  ##                              reconstruction steps.
000020:


000022: 15,2000                                           BANK     15
000023: 22,2000                                           SETLOC   KALCMON1
000024: 22,2000                                           BANK
000025:
000026: 22,2737  E6,1661                                  EBANK=   BCDU
000027:
000028:                                                                                                  #  DETECTING GIMBAL LOCK
000029: 22,2737  22,2737               LOCSKIRT           EQUALS   WCALC
000030: 22,2737           70740        WCALC              LXC,1    DLOAD*
000031: 22,2740           01130                                    RATEINDX
000032: 22,2741           04771                                    ARATE,1
000033: 22,2742           45002                           SR4      CALL                                  #  COMPUTE THE INCREMENTAL ROTATION MATRIX
000034: 22,2743           44530                                    DELCOMP                               #  DEL CORRESPONDING TO A 1 SEC ROTATION
000035:                                                                                                  #  ABOUT COF
000036: 22,2744           74343                           DLOAD*   VXSC
000037: 22,2745           04771                                    ARATE,1
000038: 22,2746           03343                                    COF
000039: 22,2747           77721                           MXV
000040: 22,2750           05003                                    QUADROT
000041: 22,2751           17311                           STODL    BRATE
000042: 22,2752           03365                                    AM
000043: 22,2753           55605                           DMP      DDV*
000044: 22,2754           05001                                    ANGLTIME
000045: 22,2755           04771                                    ARATE,1
000046: 22,2756           77661                           SR
000047: 22,2757           20606                                    5
000048: 22,2760           27317                           STOVL    TM
000049: 22,2761           03311                                    BRATE
000050: 22,2762           77761                           VXSC
000051: 22,2763           05025                                    BIASCALE
000052: 22,2764           03275                           STORE    BIASTEMP                              #  ATTITUDE ERROR BIAS TO PREVENT OVERSHOOT
000053:                                                                                                  #  IN SYSTEM
000054: 22,2765           77614                           SETGO                                          #  STATE SWITCH CALCMAN2 (43D)
000055: 22,2766           01035                                    CALCMAN2                              #  0(OFF) = BYPASS STARTING PROCEDURE
000056: 22,2767           45032                                    NEWANGL    +1                         #  1(ON) = START MANEUVER
000057:
000058:
000059: 22,2770           00044 15053  ARATE              2DEC     .0022222222                            #  = .05 DEG/SEC
000060:
000061: 22,2772           00221 24255                     2DEC     .0088888889                            #  = .2 DEG/SEC
000062:
000063: 22,2774           00554 02660                     2DEC     .0222222222                            #  = .5 DEG/SEC
000064:


000070: 22,2776           05540 26603                     2DEC     .1777777777                            #  = 4 DEG/SEC           $ 22.5 DEG/SEC
000071:
000072: 22,3000           00003 04000  ANGLTIME           2DEC     .000190735                            #  = 100B - 19
000073:
000074:                                                                                                  #  MANEUVER ANGLE TO MANEUVER TIME
000075: 22,3002           03146 14632  QUADROT            2DEC     .1                                    #  ROTATION MATRIX FROM S/C AXES TO CONTROL
000076:


000078: 22,3004           00000 00000                     2DEC     0          B-28                       #  AXES (X ROT = -7.25 DEG)
000079:
000080: 22,3006           00000 00000                     2DEC     0          B-28
000081:
000082: 22,3010           00000 00000                     2DEC     0          B-28
000083:
000084: 22,3012           03131 11275                     2DEC     .099200                               #  =(.1)COS7.25
000085:
000086: 22,3014           77461 47370                     2DEC     -.012620                              #  =-(.1)SIN7.25
000087:
000088: 22,3016           00000 00000                     2DEC     0          B-28
000089:
000090: 22,3020           00316 30407                     2DEC     .012620                               #  (.1)SIN7.25
000091:
000092: 22,3022           03131 11275                     2DEC     .099200                               #  (.1)COS7.25
000093:
000094: 22,3024           00004 05253  BIASCALE           2DEC     .0002543132                            #  = (450/180)(1/0.6)(1/16384)

End of include-file GIMBAL_LOCK_AVOIDANCE.agc.  Parent file is MAIN.agc


