
Source Code


000002:                                                                                                  ## Copyright:   Public domain.
000003:                                                                                                  ## Filename:    INTERPRETIVE_CONSTANTS.agc
000004:                                                                                                  ## Purpose:     A section of Comanche revision 044.
000005:                                                                                                  ##              It is part of the reconstructed source code for the
000006:                                                                                                  ##              original release of the flight software for the Command
000007:                                                                                                  ##              Module's (CM) Apollo Guidance Computer (AGC) for Apollo 10.
000008:                                                                                                  ##              The code has been recreated from a copy of Comanche 055. It
000009:                                                                                                  ##              has been adapted such that the resulting bugger words
000010:                                                                                                  ##              exactly match those specified for Comanche 44 in NASA drawing
000011:                                                                                                  ##              2021153D, which gives relatively high confidence that the
000012:                                                                                                  ##              reconstruction is correct.
000013:                                                                                                  ## Assembler:   yaYUL
000014:                                                                                                  ## Contact:     Ron Burkey <info@sandroid.org>.
000015:                                                                                                  ## Website:     www.ibiblio.org/apollo/index.html
000016:                                                                                                  ## Mod history: 2020-12-03 MAS  Created from Comanche 51.
000017:


000019: 26,2000                                           SETLOC   INTPRET1
000020: 26,2000                                           BANK
000021:
000022: 26,3324                                           COUNT    23/ICONS
000023:
000024: 26,3324           10000 00000  DP1/4TH            2DEC     .25
000025:
000026: 26,3326           00000 00000  UNITZ              2DEC     0          B-28
000027:
000028: 26,3330           00000 00000  UNITY              2DEC     0          B-28
000029:
000030: 26,3332           20000 00000  UNITX              2DEC     .5
000031:
000032: 26,3334           00000 00000  ZEROVECS           2DEC     0          B-28
000033:
000034: 26,3336           00000 00000                     2DEC     0          B-28
000035:
000036: 26,3340           00000 00000                     2DEC     0          B-28
000037:
000038: 26,3342  26,3332               DPHALF             =        UNITX
000039: 26,3342           37777        DPPOSMAX           OCT      37777
000040: 26,3343           37777                           OCT      37777
000041:


000043:                                                                                                  #  INTERPRETIVE CONSTANTS IN THE OTHER HALF-MEMORY
000044:
000045: 04,2000                                           SETLOC   INTPRET2
000046: 04,2000                                           BANK
000047:
000048: 04,3554                                           COUNT    14/ICONS
000049:
000050: 04,3554           00000 00000  ZUNIT              2DEC     0          B-28
000051:
000052: 04,3556           00000 00000  YUNIT              2DEC     0          B-28
000053:
000054: 04,3560           20000 00000  XUNIT              2DEC     .5
000055:
000056: 04,3562           00000 00000  ZEROVEC            2DEC     0          B-28
000057:
000058: 04,3564           00000 00000                     2DEC     0          B-28
000059:
000060: 04,3566           00000 00000                     2DEC     0          B-28
000061:
000062: 04,3570           77777                           OCT      77777                                 #  -0, -6, -12 MUST REMAIN IN THIS ORDER
000063: 04,3571           77771        DEC-6              DEC      -6         B-14
000064: 04,3572           77763        DEC-12             DEC      -12        B-14
000065: 04,3573           37777 37777  LODPMAX            2OCT     3777737777                            #  THESE TWO CONSTANTS MUST REMAIN
000066:
000067: 04,3575           37777 37777  LODPMAX1           2OCT     3777737777                            #  ADJACENT AND THE SAME FOR INTEGRATION
000068:
000069: 04,3577  04,3562               ZERODP             =        ZEROVEC
000070: 04,3577  04,3560               HALFDP             =        XUNIT
000071:
000072:
000073:
000074:

End of include-file INTERPRETIVE_CONSTANTS.agc.  Parent file is MAIN.agc


