
Source Code


000002:                                                                                                  ## Copyright:   Public domain.
000003:                                                                                                  ## Filename:    INTERRUPT_LEAD_INS.agc
000004:                                                                                                  ## Purpose:     A section of Comanche revision 044.
000005:                                                                                                  ##              It is part of the reconstructed source code for the
000006:                                                                                                  ##              original release of the flight software for the Command
000007:                                                                                                  ##              Module's (CM) Apollo Guidance Computer (AGC) for Apollo 10.
000008:                                                                                                  ##              The code has been recreated from a copy of Comanche 055. It
000009:                                                                                                  ##              has been adapted such that the resulting bugger words
000010:                                                                                                  ##              exactly match those specified for Comanche 44 in NASA drawing
000011:                                                                                                  ##              2021153D, which gives relatively high confidence that the
000012:                                                                                                  ##              reconstruction is correct.
000013:                                                                                                  ## Assembler:   yaYUL
000014:                                                                                                  ## Contact:     Ron Burkey <info@sandroid.org>.
000015:                                                                                                  ## Website:     www.ibiblio.org/apollo/index.html
000016:                                                                                                  ## Mod history: 2020-12-03 MAS  Created from Comanche 51.
000017:


000019:    4000                                           SETLOC   4000
000020:
000021:    4000                                           COUNT    02/RUPTS
000022:
000023:    4000           00004                           INHINT                                         #  GO
000024:    4001           34054                           CAF      GOBB
000025:    4002           56006                           XCH      BBANK
000026:    4003           12526                           TCF      GOPROG
000027:
000028:    4004           52011                           DXCH     ARUPT                                 #  T6RUPT
000029:    4005           00006                           EXTEND
000030:    4006           31311                           DCA      T6LOC
000031:    4007           52006                           DTCB
000032:
000033:    4010           52011                           DXCH     ARUPT                                 #  T5RUPT
000034:    4011           40030                           CS       TIME5
000035:    4012           65036                           AD       .5SEC
000036:    4013           14065                           TCF      T5RUPT
000037:
000038:    4014           52011                           DXCH     ARUPT                                 #  T3RUPT
000039:    4015           34055                           CAF      T3RPTBB
000040:    4016           56006                           XCH      BBANK
000041:    4017           13416                           TCF      T3RUPT
000042:
000043:    4020           52011                           DXCH     ARUPT                                 #  T4RUPT
000044:    4021           34063                           CAF      T4RPTBB
000045:    4022           56006                           XCH      BBANK
000046:    4023           12000                           TCF      T4RUPT
000047:
000048:    4024           52011                           DXCH     ARUPT                                 #  KEYRUPT1
000049:    4025           34056                           CAF      KEYRPTBB
000050:    4026           56006                           XCH      BBANK
000051:    4027           13673                           TCF      KEYRUPT1
000052:
000053:    4030           52011                           DXCH     ARUPT                                 #  KEYRUPT2
000054:    4031           34057                           CAF      MKRUPTBB
000055:    4032           56006                           XCH      BBANK
000056:    4033           12104                           TCF      MARKRUPT
000057:
000058:    4034           52011                           DXCH     ARUPT                                 #  UPRUPT
000059:    4035           34056                           CAF      UPRPTBB
000060:    4036           56006                           XCH      BBANK
000061:    4037           13716                           TCF      UPRUPT
000062:
000063:    4040           52011                           DXCH     ARUPT                                 #  DOWNRUPT
000064:    4041           34060                           CAF      DWNRPTBB
000065:    4042           56006                           XCH      BBANK
000066:    4043           13521                           TCF      DODOWNTM
000067:
000068:    4044           52011                           DXCH     ARUPT                                 #  RADAR RUPT


000070:    4045           34061                           CAF      RDRPTBB
000071:    4046           56006                           XCH      BBANK
000072:    4047           12504                           TCF      VHFREAD
000073:
000074:    4050           52011                           DXCH     ARUPT                                 #  HAND CONTROL RUPT
000075:    4051           34062                           CAF      HCRUPTBB
000076:    4052           56006                           XCH      BBANK
000077:    4053           15336                           TCF      RESUME     +3                         #  NOT USED
000078:
000079:    4054  E3,1400                                  EBANK=   LST1                                  #  RESTART USES E0,E3
000080:    4054           12063        GOBB               BBCON    GOPROG
000081:
000082:    4055  E3,1400                                  EBANK=   LST1
000083:    4055           02063        T3RPTBB            BBCON    T3RUPT
000084:
000085:    4056     0073                                  EBANK=   KEYTEMP1
000086:    4056           16060        KEYRPTBB           BBCON    KEYRUPT1
000087:
000088:    4057  E7,1725                                  EBANK=   MRKBUF1
000089:    4057           16067        MKRUPTBB           BBCON    MARKRUPT
000090:
000091:    4060     4056               UPRPTBB            =        KEYRPTBB
000092:
000093:    4060     0340                                  EBANK=   DNTMBUFF
000094:    4060           12060        DWNRPTBB           BBCON    DODOWNTM
000095:
000096:    4061  E7,1603                                  EBANK=   DATATEST
000097:    4061           56067        RDRPTBB            BBCON    VHFREAD
000098:
000099:    4062     0025                                  EBANK=   TIME1
000100:    4062           04060        HCRUPTBB           BBCON    RESUME                                #  NOT USED
000101:
000102:    4063     1302                                  EBANK=   DSRUPTSW
000103:    4063           14062        T4RPTBB            BBCON    T4RUPT
000104:
000105:    4064     0025                                  EBANK=   TIME1
000106:    4064           04060        T5RPTBB            BBCON    T5RUPT
000107:
000108:    4065           00006        T5RUPT             EXTEND
000109:    4066           65337                           BZMF     NOQBRSM
000110:    4067           00006                           EXTEND
000111:    4070           31313                           DCA      T5LOC
000112:    4071           52006                           DTCB
000113:
000114:
000115:

End of include-file INTERRUPT_LEAD_INS.agc.  Parent file is MAIN.agc


