
Source Code


000002:                                                                                                  ## Copyright:   Public domain.
000003:                                                                                                  ## Filename:    KEYRUPT,_UPRUPT.agc
000004:                                                                                                  ## Purpose:     A section of Comanche revision 044.
000005:                                                                                                  ##              It is part of the reconstructed source code for the
000006:                                                                                                  ##              original release of the flight software for the Command
000007:                                                                                                  ##              Module's (CM) Apollo Guidance Computer (AGC) for Apollo 10.
000008:                                                                                                  ##              The code has been recreated from a copy of Comanche 055. It
000009:                                                                                                  ##              has been adapted such that the resulting bugger words
000010:                                                                                                  ##              exactly match those specified for Comanche 44 in NASA drawing
000011:                                                                                                  ##              2021153D, which gives relatively high confidence that the
000012:                                                                                                  ##              reconstruction is correct.
000013:                                                                                                  ## Assembler:   yaYUL
000014:                                                                                                  ## Contact:     Ron Burkey <info@sandroid.org>.
000015:                                                                                                  ## Website:     www.ibiblio.org/apollo/index.html
000016:                                                                                                  ## Mod history: 2020-12-03 MAS  Created from Comanche 51.
000017:


000019: 14,3762                                           BANK     14
000020: 07,2000                                           SETLOC   KEYRUPT
000021: 07,2000                                           BANK
000022: 07,3673                                           COUNT*   $$/KEYUP
000023:
000024: 07,3673           54016        KEYRUPT1           TS       BANKRUPT
000025: 07,3674           56002                           XCH      Q
000026: 07,3675           54012                           TS       QRUPT
000027: 07,3676           04414                           TC       LODSAMPT                              #  TIME IS SNATCHED IN RUPT FOR NOUN 65.
000028: 07,3677           34362                           CAF      LOW5
000029: 07,3700           00006                           EXTEND
000030: 07,3701           02015                           RAND     MNKEYIN                               #  CHECK IF KEYS 5M-1M ON
000031: 07,3702           54073        KEYCOM             TS       RUPTREG4
000032: 07,3703           40101                           CS       FLAGWRD5
000033: 07,3704           75001                           MASK     BIT15
000034: 07,3705           26101                           ADS      FLAGWRD5
000035:
000036: 07,3706           34371        ACCEPTUP           CAF      CHRPRIO                               #  (NOTE: RUPTREG4 = KEYTEMP1)
000037: 07,3707           05134                           TC       NOVAC
000038: 07,3710     0777                                  EBANK=   DSPCOUNT
000039: 07,3710           02000 60101                     2CADR    CHARIN
000040:
000041: 07,3712           30073                           CA       RUPTREG4
000042: 07,3713           50064                           INDEX    LOCCTR
000043: 07,3714           54154                           TS       MPAC                                  #  LEAVE 5 BIT KEY CDE IN MPAC FOR CHARIN
000044: 07,3715           05333                           TC       RESUME
000045:


000047:                                                                                                  #  UPRUPT PROGRAM
000048:
000049: 07,3716           54016        UPRUPT             TS       BANKRUPT
000050: 07,3717           56002                           XCH      Q
000051: 07,3720           54012                           TS       QRUPT
000052: 07,3721           04414                           TC       LODSAMPT                              #  TIME IS SNATCHED IN RUPT FOR NOUN 65.
000053: 07,3722           35021                           CAF      ZERO
000054: 07,3723           56045                           XCH      INLINK
000055: 07,3724           54073                           TS       KEYTEMP1
000056: 07,3725           35015                           CAF      BIT3                                  #  TURN ON UPACT LIGHT
000057: 07,3726           00006                           EXTEND                                         #  (BIT 3 OF CHANNEL 11)
000058: 07,3727           05011                           WOR      DSALMOUT
000059: 07,3730           34362        UPRPT1             CAF      LOW5                                  #  TEST FOR TRIPLE CHAR REDUNDANCY
000060: 07,3731           70073                           MASK     KEYTEMP1                              #  LOW5 OF WORD
000061: 07,3732           56073                           XCH      KEYTEMP1                              #  LOW5 INTO KEYTEMP1
000062: 07,3733           00006                           EXTEND
000063: 07,3734           75006                           MP       BIT10                                 #  SHIFT RIGHT 5
000064: 07,3735           54734                           TS       KEYTEMP2
000065: 07,3736           74362                           MASK     LOW5                                  #  MID 5
000066: 07,3737           63773                           AD       HI10
000067: 07,3740           03770                           TC       UPTEST
000068: 07,3741           35006                           CAF      BIT10
000069: 07,3742           00006                           EXTEND
000070: 07,3743           70734                           MP       KEYTEMP2                              #  SHIFT RIGHT 5
000071: 07,3744           74362                           MASK     LOW5                                  #  HIGH 5
000072: 07,3745           40000                           COM
000073: 07,3746           03770                           TC       UPTEST
000074:
000075: 07,3747           43776        UPOK               CS       ELRCODE                               #  CODE IS GOOD.  IF CODE = 'ERROR RESET',
000076: 07,3750           60073                           AD       KEYTEMP1                              #  CLEAR UPLOCKFL (SET BIT4 OF FLAGWRD7 = 0)
000077: 07,3751           00006                           EXTEND                                         #  IF CODE DOES NOT = 'ERROR RESET', ACCEPT
000078: 07,3752           13760                           BZF      CLUPLOCK                              #  CODE ONLY IF UPLOCKFL IS CLEAR (=0).
000079:
000080: 07,3753           35014                           CAF      BIT4                                  #  TEST UPLOCKFL FOR 0 OR 1.
000081: 07,3754           70103                           MASK     FLAGWRD7
000082: 07,3755           10000                           CCS      A
000083: 07,3756           05333                           TC       RESUME                                #  UPLOCKFL = 1
000084: 07,3757           03706                           TC       ACCEPTUP                              #  UPLOCKFL = 0
000085:
000086: 07,3760           45014        CLUPLOCK           CS       BIT4                                  #  CLEAR UPLOCKFL (I.E., SET BIT 4 OF
000087: 07,3761           70103                           MASK     FLAGWRD7                              #  FLAGWRD7 = 0)
000088: 07,3762           54103                           TS       FLAGWRD7
000089: 07,3763           03706                           TC       ACCEPTUP
000090:
000091:                                                                                                  #  CODE IS BAD
000092: 07,3764           40103        TMFAIL2            CS       FLAGWRD7                              #  LOCK OUT FURTHER UPLINK ACTIVITY
000093: 07,3765           75014                           MASK     BIT4                                  #  (BY SETTING UPLOCKFL = 1) UNTIL
000094: 07,3766           26103                           ADS      FLAGWRD7                              #  'ERROR RESET' IS SENT VIA UPLINK.
000095: 07,3767           05333                           TC       RESUME
000096: 07,3770           60073        UPTEST             AD       KEYTEMP1


000098: 07,3771           10000                           CCS      A
000099: 07,3772           03764                           TC       TMFAIL2
000100: 07,3773           77740        HI10               OCT      77740
000101: 07,3774           03764                           TC       TMFAIL2
000102: 07,3775           00002                           TC       Q
000103:
000104: 07,3776           00022        ELRCODE            OCT      22
000105:
000106:                                                                                                  #  'UPLINK ACTIVITY LIGHT' IS TURNED OFF BY .....
000107:                                                                                                  #        1.      VBRELDSP
000108:                                                                                                  #        2.      ERROR RESET
000109:                                                                                                  #        3.      UPDATE PROGRAM (P27) ENTERED BY V70,V71,V72, AND V73.
000110:
000111:                                                                                                  #                                     -
000112:                                                                                                  #  THE RECEPTION OF A BAD CODE (I.E  CCC FAILURE) LOCKS OUT FURTHER UPLINK ACTIVITY BY SETTING BIT4 OF FLAGWRD7 = 1.
000113:                                                                                                  #  THIS INDICATION WILL BE TRANSFERRED TO THE GROUND BY THE DOWNLINK WHICH DOWNLINKS ALL FLAGWORDS.
000114:                                                                                                  #  WHEN UPLINK ACTIVITY IS LOCKED OUT, IT CAN BE ALLOWED WHEN THE GROUND UPLINKS AND 'ERROR RESET' CODE.
000115:                                                                                                  #  (IT IS RECOMMENDED THAT THE 'ERROR LIGHT RESET' CODE IS PRECEEDED BY 16 BITS THE FIRST OF WHICH IS 1 FOLLOWED
000116:                                                                                                  #  BY 15 ZEROES.  THIS WILL ELIMINATE EXTRANEOUS BITS FROM INLINK WHICH MAY HAVE BEEN LEFT OVER FROM THE ORIGINAL
000117:                                                                                                  #  FAILURE)
000118:
000119:                                                                                                  #  UPLINK ACTIVITY IS ALSO ALLOWED (UNLOCKED) DURING FRESH START WHEN FRESH START SETS BIT4 OF FLAGWRD7 = 0.
000120:
000121:

End of include-file KEYRUPT,_UPRUPT.agc.  Parent file is MAIN.agc


