
Source Code


000002:                                                                                                  ## Copyright:   Public domain.
000003:                                                                                                  ## Filename:    LUNAR_AND_SOLAR_EPHEMERIDES_SUBROUTINES.agc
000004:                                                                                                  ## Purpose:     A section of Comanche revision 044.
000005:                                                                                                  ##              It is part of the reconstructed source code for the
000006:                                                                                                  ##              original release of the flight software for the Command
000007:                                                                                                  ##              Module's (CM) Apollo Guidance Computer (AGC) for Apollo 10.
000008:                                                                                                  ##              The code has been recreated from a copy of Comanche 055. It
000009:                                                                                                  ##              has been adapted such that the resulting bugger words
000010:                                                                                                  ##              exactly match those specified for Comanche 44 in NASA drawing
000011:                                                                                                  ##              2021153D, which gives relatively high confidence that the
000012:                                                                                                  ##              reconstruction is correct.
000013:                                                                                                  ## Assembler:   yaYUL
000014:                                                                                                  ## Contact:     Ron Burkey <info@sandroid.org>.
000015:                                                                                                  ## Website:     www.ibiblio.org/apollo/index.html
000016:                                                                                                  ## Mod history: 2020-12-03 MAS  Created from Comanche 51.
000017:


000019:                                                                                                  #  LUNAR AND SOLAR EPHEMERIDES SUBROUTINES
000020:
000021:                                                                                                  #  FUNCTIONAL DESCRIPTION
000022:
000023:                                                                                                  #        THESE SUBROUTINES ARE USED TO DETERMINE THE POSITION AND VELOCITY
000024:                                                                                                  #        VECTORS OF THE SUN AND THE MOON RELATIVE TO THE EARTH AT THE
000025:                                                                                                  #        SPECIFIED GROUND ELAPSED TIME INPUT BY THE USER.
000026:
000027:                                                                                                  #        THE POSITION OF THE MOON IS STORED IN THE COMPUTER IN THE FORM OF
000028:                                                                                                  #        A NINTH DEGREE POLYNOMIAL APPROXIMATION WHICH IS VALID OVER A 15
000029:                                                                                                  #        DAY INTERVAL BEGINNING SHORTLY BEFORE LAUNCH.  THEREFORE THE TIME
000030:                                                                                                  #        INPUT BY THE USER SHOULD FALL WITHIN THIS 15 DAY INTERVAL.


000038:
000039:                                                                                                  #        LSPOS COMPUTES THE POSITION VECTORS OF THE SUN AND THE MOON.
000040:
000041:                                                                                                  #        LUNPOS COMPUTES THE POSITION VECTOR OF THE MOON.
000042:
000043:                                                                                                  #        LUNVEL COMPUTES THE VELOCITY VECTOR OF THE MOON.
000044:
000045:                                                                                                  #        SOLPOS COMPUTES THE POSITION VECTOR OF THE SUN.
000046:
000047:                                                                                                  #  CALLING SEQUENCE
000048:
000049:                                                                                                  #        DLOAD   CALL
000050:                                                                                                  #                TIME            GROUND ELAPSED TIME
000051:                                                                                                  #                SUBROUTINE      LSPOS OR LUNPOS OR LUNVEL OR SOLPOS
000052:
000053:                                                                                                  #  INPUT
000054:
000055:                                                                                                  #        1) SPECIFIED GROUND ELAPSED TIME IN CS X B-28 LOADED IN MPAC.
000056:
000057:                                                                                                  #        2) TIMEMO - TIME AT THE CENTER OF THE RANGE OVER WHICH THE LUNAR
000058:                                                                                                  #        POSITION POLYNOMIAL IS VALID IN CS X B-42.
000059:
000060:                                                                                                  #        3) VECOEM - VECTOR COEFFICIENTS OF THE LUNAR POSITION POLYNOMIAL
000061:                                                                                                  #        LOADED IN DESCENDING SEQUENCE IN METERS/CS**N X B-2
000062:
000063:                                                                                                  #        4) RESO - POSITION VECTOR OF THE SUN RELATIVE TO THE EARTH AT
000064:                                                                                                  #        TIMEMO IN METERS X B-38.
000065:
000066:                                                                                                  #        5) VESO - VELOCITY VECTOR OF THE SUN RELATIVE TO THE EARTH AT
000067:                                                                                                  #        TIMEMO IN METERS/CS X B-9.
000068:                                                                                                  #
000069:                                                                                                  #        6) OMEGAES - ANGULAR VELOCITY OF THE VECTOR RESO AT TIMEMO IN
000070:                                                                                                  #        REV/CS X B+26.
000071:
000072:                                                                                                  #        ALL EXCEPT THE FIRST INPUT ARE INCLUDED IN THE PRE-LAUNCH
000073:                                                                                                  #        ERASABLE DATA LOAD.
000074:
000075:                                                                                                  #  OUTPUT - LSPOS


000077:
000078:                                                                                                  #        1) 2D OF VAC AREA CONTAINS THE POSITION VECTOR OF THE SUN RELATIVE
000079:                                                                                                  #        TO THE EARTH AT TIME INPUT BY THE USER IN METERS X B-38.
000080:
000081:                                                                                                  #        2) MPAC CONTAINS THE POSITION VECTOR OF THE MOON RELATIVE TO THE
000082:                                                                                                  #        EARTH AT TIME INPUT BY THE USER IN METERS X B-29.
000083:
000084:                                                                                                  #  OUTPUT - LUNPOS
000085:
000086:                                                                                                  #        MPAC CONTAINS THE POSITION VECTOR OF THE MOON RELATIVE TO THE
000087:                                                                                                  #        EARTH AT THE TIME INPUT BY USER IN METERS X B-29.
000088:
000089:                                                                                                  #  OUTPUT - LUNVEL
000090:
000091:                                                                                                  #        MPAC CONTAINS THE VELOCITY VECTOR OF THE MOON RELATIVE TO THE
000092:                                                                                                  #        EARTH AT TIME INPUT BY THE USER IN METERS/CS X B-7.
000093:
000094:                                                                                                  #  OUTPUT - SOLPOS
000095:
000096:                                                                                                  #        MPAC CONTAINS THE POSITION VECTOR OF THE SUN RELATIVE TO THE EARTH
000097:                                                                                                  #        AT TIME INPUT BY THE USER IN METERS X B-38.
000098:
000099:                                                                                                  #  SUBROUTINES USED
000100:
000101:                                                                                                  #        NONE
000102:
000103:                                                                                                  #  REMARKS
000104:
000105:                                                                                                  #        THE VAC AREA IS USED FOR STORAGE OF INTERMEDIATE AND FINAL RESULTS
000106:                                                                                                  #        OF COMPUTATIONS.
000107:
000108:                                                                                                  #        S1, X1 AND X2 ARE USED BY THESE SUBROUTINES.
000109:
000110:                                                                                                  #        PRELAUNCH ERASABLE DATA LOAD ARE ONLY ERASABLE STORAGE USED BY
000111:                                                                                                  #        THESE SUBROUTINES.
000112:
000113:                                                                                                  #        RESTARTS DURING OPERATION OF THESE SUBROUTINES MUST BE HANDLED BY
000114:                                                                                                  #        THE USER.
000115:
000116: 36,2454                                           BANK     36
000117: 26,2000                                           SETLOC   EPHEM
000118: 26,2000                                           BANK
000119:
000120: 26,2110                                           COUNT*   $$/EPHEM
000121: 26,2110  E7,1777                                  EBANK=   END-E7
000122: 26,2110           77774        LSPOS              AXT,2                                          #  COMPUTES POSITION VECTORS OF BOTH THE
000123: 26,2111           54161                                    RESA                                  #  SUN AND THE MOON.  THE POSITION VECTOR
000124: 26,2112           52170                           AXT,1    GOTO                                  #  OF THE SUN IS STORED IN 2D OF THE VAC
000125: 26,2113           54143                                    RES                                   #  AREA.  THE POSITION VECTOR OF THE MOON
000126: 26,2114           54126                                    LSTIME                                #  IS STORED IN MPAC.
000127: 26,2115           52170        LUNPOS             AXT,1    GOTO                                  #  COMPUTES THE POSITION VECTOR OF THE MOON
000128: 26,2116           54162                                    REM                                   #  AND STORES IT IN MPAC.
000129: 26,2117           54126                                    LSTIME


000131: 26,2120           52170        LUNVEL             AXT,1    GOTO                                  #  COMPUTES THE VELOCITY VECTOR OF THE MOON
000132: 26,2121           54173                                    VEM                                   #  AND STORES IT IN MPAC.
000133: 26,2122           54126                                    LSTIME
000134: 26,2123           76020        SOLPOS             STQ      AXT,1                                 #  COMPUTES THE POSITION VECTOR OF THE SUN
000135: 26,2124           00047                                    X2                                    #  AND STORES IT IN MPAC.
000136: 26,2125           54143                                    RES
000137: 26,2126           54201        LSTIME             SETPD    SR
000138: 26,2127           00001                                    0D
000139: 26,2130           20617                                    14D
000140: 26,2131           57571                           TAD      DCOMP
000141: 26,2132           01707                                    TEPHEM
000142: 26,2133           57571                           TAD      DCOMP
000143: 26,2134           02034                                    TIMEMO
000144: 26,2135           66261                           SL       SSP
000145: 26,2136           20221                                    16D
000146: 26,2137           00051                                    S1
000147: 26,2140           00006                                    6D
000148: 26,2141           77650                           GOTO
000149: 26,2142           00046                                    X1
000150: 26,2143           41206        RES                PUSH     DMP                                   #                                        PD- 2
000151: 26,2144           02147                                    OMEGAES
000152: 26,2145           71406                           PUSH     COS                                   #                                        PD- 4
000153: 26,2146           65361                           VXSC     PDDL                                  #                                        PD- 8
000154: 26,2147           02133                                    RESO
000155: 26,2150           63356                           SIN      PDVL                                  #                                        PD-10
000156: 26,2151           02133                                    RESO
000157: 26,2152           53406                           PUSH     UNIT                                  #                                        PD-16
000158: 26,2153           53435                           VXV      UNIT
000159: 26,2154           02141                                    VESO
000160: 26,2155           76435                           VXV      VSL1                                  #                                        PD-10
000161: 26,2156           53361                           VXSC     VAD                                   #                                        PD-02
000162: 26,2157           52172                           VSL1     GOTO                                  #  RES IN METERS X B-38 IN MPAC.
000163: 26,2160           00047                                    X2
000164: 26,2161           14003        RESA               STODL    2D                                    #  RES IN METERS X B-38 IN 2D OF VAC.    PD- 0
000165: 26,2162           63370        REM                AXT,1    PDVL                                  #                                        PD- 2
000166: 26,2163           00066                                    54D
000167: 26,2164           02037                                    VECOEM
000168: 26,2165           52761        REMA               VXSC     VAD*
000169: 26,2166           00001                                    0D
000170: 26,2167           02133                                    VECOEM     +60D,1
000171: 26,2170           72500                           TIX,1    VSL2                                  #  REM IN METERS X B-29 IN MPAC.
000172: 26,2171           54165                                    REMA
000173: 26,2172           77616                           RVQ
000174: 26,2173           65370        VEM                AXT,1    PDDL                                  #                                        PD- 2
000175: 26,2174           00060                                    48D
000176: 26,2175           14214                                    NINEB4
000177: 26,2176           74206                           PUSH     VXSC                                  #                                        PD- 4
000178: 26,2177           02037                                    VECOEM
000179: 26,2200           77761        VEMA               VXSC
000180: 26,2201           00001                                    0D


000182: 26,2202           14005                           STODL    4D                                    #                                        PD- 2
000183: 26,2203           41425                           DSU      PUSH                                  #                                        PD- 4
000184: 26,2204           14216                                    ONEB4
000185: 26,2205           53357                           VXSC*    VAD
000186: 26,2206           02125                                    VECOEM     +54D,1
000187: 26,2207           00005                                    4D
000188: 26,2210           72500                           TIX,1    VSL2                                  #  VEM IN METERS/CS X B-7 IN MPAC.
000189: 26,2211           54200                                    VEMA
000190: 26,2212           77616                           RVQ
000191: 26,2213           22000 00000  NINEB4             2DEC     9.0        B-4
000192:
000193: 26,2215           02000 00000  ONEB4              2DEC     1.0        B-4
000194:
000195:
000196:

End of include-file LUNAR_AND_SOLAR_EPHEMERIDES_SUBROUTINES.agc.  Parent file is MAIN.agc


