
Source Code


000002:                                                                                                  ## Copyright:   Public domain.
000003:                                                                                                  ## Filename:    P11.agc
000004:                                                                                                  ## Purpose:     A section of Comanche revision 044.
000005:                                                                                                  ##              It is part of the reconstructed source code for the
000006:                                                                                                  ##              original release of the flight software for the Command
000007:                                                                                                  ##              Module's (CM) Apollo Guidance Computer (AGC) for Apollo 10.
000008:                                                                                                  ##              The code has been recreated from a copy of Comanche 055. It
000009:                                                                                                  ##              has been adapted such that the resulting bugger words
000010:                                                                                                  ##              exactly match those specified for Comanche 44 in NASA drawing
000011:                                                                                                  ##              2021153D, which gives relatively high confidence that the
000012:                                                                                                  ##              reconstruction is correct.
000013:                                                                                                  ## Assembler:   yaYUL
000014:                                                                                                  ## Contact:     Ron Burkey <info@sandroid.org>.
000015:                                                                                                  ## Website:     www.ibiblio.org/apollo/index.html
000016:                                                                                                  ## Mod history: 2020-12-03 MAS  Created from Comanche 51.
000017:                                                                                                  ##              2020-12-03 MAS  Moved a chunk of code back to REP11A from
000018:                                                                                                  ##                              MATRXJOB.
000019:                                                                                                  ##              2020-12-11 RSB  Added justifying annotations for the steps
000020:                                                                                                  ##                              of Mike's reconstruction.
000021:


000023:
000024:                                                                                                  #  EARTH ORBIT INSERTION MONITOR PROGRAM
000025:                                                                                                  #  *************************************
000026:
000027:                                                                                                  #  PROGRAM DESCRIPTION -P11-
000028:
000029:                                                                                                  #        MOD NO. 1
000030:                                                                                                  #        MOD BY ELIASSEN
000031:
000032:                                                                                                  #  FUNCTIONAL DESCRIPTION
000033:
000034:                                                                                                  #        P11 IS INITIATED BY
000035:
000036:                                                                                                  #                A) GYROCOMPASS PRG P02 WHEN LIFTOFF DISCRETE IS RECEIVED OR
000037:                                                                                                  #                B) BACKUP THRU VERB 75 ENTER
000038:
000039:                                                                                                  #        PROGRAM WILL
000040:                                                                                                  #                1. ZERO CMC CLOCK AT LIFTOFF (OR UPON RECEIPT OF BACKUP)
000041:                                                                                                  #                2. UPDATE TEPHEM TO TIME CMC CLOCK WAS ZEROED
000042:                                                                                                  #                3. INITIATE SERVICER AT PREREAD1
000043:                                                                                                  #                4. CHANGE MAJOR MODE TO 11
000044:                                                                                                  #                5. CLEAR DSKY IN CASE OF V 75
000045:                                                                                                  #                6. STORE LIFTOFF IMU-CDU ANGLES FOR ATT. ERROR DISPLAY
000046:                                                                                                  #                7. TERMINATE GYROCOMPASSING     -   -
000047:                                                                                                  #                8. COMPUTE INITIAL VECTORS      RN, VN            -  -  -
000048:                                                                                                  #                9. COMPUTE REFSMMAT FOR PRELAUNCH ALIGNMENT WHERE U ,U ,U  ARE
000049:                                                                                                  #                        -        -                                 X  Y  Z
000050:                                                                                                  #                        U =UNIT(-R)     LOCAL VERTICAL AT TIME OF LIFTOFF
000051:                                                                                                  #                         Z
000052:                                                                                                  #                        -       -       -
000053:                                                                                                  #                        U =UNIT(A),     A=HOR VECTOR AT LAUNCH AZIMUTH
000054:                                                                                                  #                         X
000055:                                                                                                  #                        -  -   -
000056:                                                                                                  #                        U =U * U
000057:                                                                                                  #                         U  Z   X
000058:                                                                                                  #                10. SET REFSMMAT KNOWN FLAG
000059:                                                                                                  #                11. SET AVGEXIT IN SERVICER TO VHHDOT TO
000060:                                                                                                  #                    COMPUTE AND DISPLAY NOUN 62 EVERY 2 SECONDS
000061:
000062:                                                                                                  #                        R1      V1   - INTERTIAL VELOCITY MAGNITUDE IN FPS
000063:                                                                                                  #                        R2      HDOT - RATE OF CHANGE OF VEHICLE VEL IN FPS
000064:                                                                                                  #                        R3      H    - VEHICLE ALTITUDE ABOVE PAD IN NM
000065:                                                                                                  #
000066:                                                                                                  #                12. DISPLAY BODY AXES ATT. ERRORS ON FDAI NEEDLES
000067:
000068:                                                                                                  #                        A) FROM L.O. TO RPSTART (APPROX. 0 TO +10SECS AFTER L.O.)
000069:                                                                                                  #                           DESIRED ATTITUDE IS AS STORED AT L.O.
000070:                                                                                                  #                        B) FROM RPSTART TO POLYSTOP (APPROX. +10 TO +133SECS AFTER LO)
000071:                                                                                                  #                           DESIRED ATTITUDE IS SPECIFIED BY CMC PITCH AND ROLL
000072:                                                                                                  #                           POLYNOMIALS DURING SATURN ROLLOUT AND PITCHOVER


000074:                                                                                                  #                           THE DISPLAY IS RUN AS LOW PRIORITY JOB APPROX.
000075:                                                                                                  #                           EVERY 1/2 SEC OR LESS AND IS DISABLED UPON OVFLO OF TIME1
000076:
000077:                                                                                                  #  SUBROUTINES CALLED
000078:
000079:                                                                                                  #        2PHSCHNG        BANKCALL        CALCGRA         CDUTRIG         CLEANDSP        DANZIG
000080:                                                                                                  #        DELAYJOB        EARTHR          ENDOFJOB        FINDVAC         IBNKCALL
000081:                                                                                                  #        INTPRET         LALOTORV        NEEDLER         NEWMODEX        PHASCHNG
000082:                                                                                                  #        POSTJUMP        POWRSERS        PREREAD1        REGODSPR        S11.1
000083:                                                                                                  #        SERVEXIT        TASKOVER        TCDANZIG        V1ST02S         WAITLIST
000084:
000085:                                                                                                  #  ASTRONAUT REQUESTS (IF ALTITUDE ABOVE 300,000 FT)
000086:
000087:                                                                                                  #        DSKY -
000088:                                                                                                  #                MONITOR DISPLAY OF TIME TO PERIGEE R1 HOURS
000089:                                                                                                  #                                                   R2 MINUTES
000090:
000091:                                                                                                  #        DSKY -
000092:                                                                                                  #                MONITOR DISPLAY OF R1 APOGEE ALTITUDE IN NAUTICAL MILES
000093:                                                                                                  #                                   R2 PERIGEE ALTITUDE IN NAUTICAL MILES
000094:                                                                                                  #                                   R3 TFF IN MINUTES/SECS
000095:
000096:                                                                                                  #        IF ASTRONAUT HAS REQUESTED ANY OF THESE DISPLAYS HE MUST
000097:                                                                                                  #  HIT PROCEED TO RETURN TO NORMAL NOUN 62 DISPLAY
000098:                                                                                                  #  NORMAL EXIT MODE
000099:
000100:                                                                                                  #        ASTRONAUT       VERB 37 ENTER 00 ENTER
000101:
000102:                                                                                                  #  ALARM MODES - NONE
000103:
000104:                                                                                                  #  ABORT EXIT MODES -
000105:
000106:                                                                                                  #  OUTPUT
000107:
000108:                                                                                                  #        TLIFTOFF (DP)   TEPHEM (TP)
000109:                                                                                                  #        REFSMMAT
000110:                                                                                                  #        DSKY DISPLAY
000111:                                                                                                  #        FDAI DISPLAY
000112:
000113:                                                                                                  #  ERASABLE INITIALIZATION
000114:
000115:                                                                                                  #        AZO, AXO, -AYO
000116:                                                                                                  #        LATITUDE
000117:                                                                                                  #        PADLONG
000118:                                                                                                  #        TEPHEM
000119:                                                                                                  #        PGNCSALT
000120:                                                                                                  #        POLYNUM THRU POLYNUM +14D)
000121:                                                                                                  #        RPSTART
000122:                                                                                                  #        POLYSTOP
000123:                                                                                                  #  FLAGS SET OR RESET


000125:                                                                                                  #        SET REFSMFLG
000126:                                                                                                  #        SET DVMON IDLE FLAG
000127:                                                                                                  #        CLEAR ERADFLAG
000128:
000129:                                                                                                  #  DEBRIS
000130:
000131:                                                                                                  #        LIFTTEMP
000132:                                                                                                  #        POLYNUM THRU POLYNUM +7
000133:                                                                                                  #        SPOLYARG
000134:                                                                                                  #        BODY1, BODY2, BODY3
000135:                                                                                                  #        VMAG2, ALTI, HDOT
000136:                                                                                                  #        CENTRALS, CORE SET AND VAC AREAS
000137:
000138: 04,3300                                           COUNT    34/P11
000139:
000140: 04,3300     5035               BITS5-6            =        SUPER011
000141: 42,3606                                           BANK     42
000142: 34,2000                                           SETLOC   P11ONE
000143: 34,2000                                           BANK
000144:
000145: 34,2002  E3,1706                                  EBANK=   TEPHEM
000146: 34,2002           35051        P11                CA       EBANK3
000147: 34,2003           54003                           TS       EBANK
000148:
000149: 34,2004           00006                           EXTEND
000150: 34,2005           32277                           DCA      REP11S                                #  DIRECT RESTARTS TO REP11
000151: 34,2006           52757                           DXCH     -PHASE3
000152: 34,2007           45021                           CS       ZERO
000153: 34,2010           22007                           ZL
000154: 34,2011           55265                           TS       LIFTTEMP
000155: 34,2012           52763                           DXCH     -PHASE5                               #  INACTIVE GROUP 5, PRELAUNCH PROTECTION
000156: 34,2013           00006        P11+7              EXTEND
000157: 34,2014           32301                           DCA      REP11SA
000158: 34,2015           53337                           DXCH     TLIFTOFF
000159:
000160: 34,2016           00006                           EXTEND
000161: 34,2017           30025                           DCA      TIME2
000162: 34,2020           53266                           DXCH     LIFTTEMP                              #  FOR RESTARTS
000163:
000164: 34,2021           35021                           CA       ZERO
000165: 34,2022           22007                           ZL
000166: 34,2023           52025                           DXCH     TIME2
000167: 34,2024           53337        REP11A-2           DXCH     TLIFTOFF
000168: 34,2025           52757        REP11A-1           DXCH     -PHASE3                               #  RESET PHASE
000169:
000170: 34,2026           00004        REP11A             INHINT
000171: 34,2027           00006                           EXTEND
000172: 34,2030           31710                           DCA      TEPHEM     +1
000173: 34,2031           53271                           DXCH     TEPHEM1    +1
000174: 34,2032           31706                           CA       TEPHEM


000176: 34,2033           57267                           XCH      TEPHEM1
000177:
000178: 34,2034           00006                           EXTEND
000179: 34,2035           31337                           DCA      TLIFTOFF
000180: 34,2036           21271                           DAS      TEPHEM1    +1
000181: 34,2037           27267                           ADS      TEPHEM1                               #  CORRECTOFOR OVERFLOW
000182:
000183: 34,2040           05412                           TC       PHASCHNG
000184: 34,2041           05023                           OCT      05023
000185: 34,2042           22000                           OCT      22000
000186:
000187: 34,2043           00004                           INHINT
000188: 34,2044           00006                           EXTEND
000189: 34,2045           31270                           DCA      TEPHEM1
000190: 34,2046           53707                           DXCH     TEPHEM
000191: 34,2047           31271                           CA       TEPHEM1    +2
000192: 34,2050           57710                           XCH      TEPHEM     +2
000193:
000194: 34,2051           32000                           CAF      EBDVCNT
000195: 34,2052           54003                           TS       EBANK
000196: 34,2053  E7,1431                                  EBANK=   DVCNTR
000197: 34,2053           04740                           TC       IBNKCALL
000198: 34,2054           76721                           CADR     PREREAD1                              #  ZERO PIPS AND INITIALIZE AVERAGEG
000199:
000200: 34,2055           05412                           TC       PHASCHNG
000201: 34,2056           05023                           OCT      05023                                 #  CONTINUE HERE ON RESTART
000202: 34,2057           22000                           OCT      22000
000203:
000204: 34,2060           35036                           CAF      .5SEC                                 #  START ATT ERROR DISPLAY
000205: 34,2061           05245                           TC       WAITLIST                              #  IN .5 SEC
000206: 34,2062  E6,1704                                  EBANK=   BODY3
000207: 34,2062           02320 70066                     2CADR    ATERTASK
000208:
000209: 34,2064           05354                           TC       NEWMODEX                              #  DISPLAY MM 11
000210: 34,2065           00013                           MM       11         B-14
000211:
000212: 34,2066           05546                           TC       UPFLAG
000213: 34,2067           00022                           ADRES    NODOP01
000214:
000215: 34,2070           36214                           CA       POWDNCOD                              #  SWITCH TO POWERED FLIGHT DOWNLIST
000216: 34,2071           54332                           TS       DNLSTCOD
000217:
000218: 34,2072           04662                           TC       BANKCALL
000219: 34,2073           20703                           CADR     CLEANDSP                              #  CLEAR DSKY IN CASE OF V75
000220:
000221: 34,2074           05372                           TC       2PHSCHNG
000222: 34,2075           40514                           OCT      40514                                 #  PROTECT ATERTASK
000223: 34,2076           00073                           OCT      00073
000224: 34,2077           32001                           CAF      EBQPLACE


000226: 34,2100           54003                           TS       EBANK
000227:
000228: 34,2101  E5,1426                                  EBANK=   QPLACES
000229: 34,2101           32302                           CA       P11XIT                                #  SET EXIT FROM PROUT IN EARTHR
000230: 34,2102           55426                           TS       QPLACES


000242: 34,2103           22007                           ZL                                             #  STORE DP GIMBAL
000243: 34,2104           30032                           CA       CDUX                                  #  ANGLES FOR ATTITUDE
000244: 34,2105           53760                           DXCH     OGC                                   #  ERROR DISPLAY
000245: 34,2106           22007                           ZL                                             #  AFTER L.O.
000246: 34,2107           30033                           CA       CDUY
000247: 34,2110           53762                           DXCH     IGC
000248: 34,2111           22007                           ZL
000249: 34,2112           30034                           CA       CDUZ
000250: 34,2113           53764                           DXCH     MGC
000251: 34,2114           06006                           TC       INTPRET                               #        -
000252: 34,2115           74575                           VLOAD    VSR1                                  #  SCALE OGC B-1
000253: 34,2116           02760                                    OGC
000254: 34,2117           02760                           STORE    OGC


000256: 34,2120           64375                           VLOAD    MXV
000257: 34,2121           02467                                    THETAN
000258: 34,2122           02672                                    XSM
000259: 34,2123           53372                           VSL1     VAD
000260: 34,2124           02650                                    ERCOMP
000261: 34,2125           16650                           STODL    ERCOMP
000262: 34,2126           01337                                    TLIFTOFF
000263: 34,2127           52131                           SSP      GOTO
000264: 34,2130           00052                                    S2
000265: 34,2131           66424                           CADR     PROUT                                 #  RETURN FROM EARTHR
000266: 34,2132           66373                                    EARTHR     +3


000268: 34,2133           06006        MATRXJOB           TC       INTPRET
000269: 34,2134           77731                           SSP                                            #  ZERO RTX2
000270: 34,2135           03747                                    RTX2                                  #  FOR
000271: 34,2136           00000                                    0                                     #  EARTH
000272: 34,2137           65345                           DLOAD    PDDL
000273: 34,2140           01273                                    PGNCSALT                              #  ALTITUDE OF PGNCS
000274: 34,2141           01264                                    PADLONG                               #  LONGITUDE
000275: 34,2142           55525                           PDDL     VDEF
000276: 34,2143           02403                                    LATITUDE                              #  GEODETIC LATITUDE
000277: 34,2144           15104                           STODL    LAT                                   #  LAT,LONG,ALT ARE CONSECUTIVE
000278: 34,2145           15335                                    HI6ZEROS                              #  TIME = 0
000279: 34,2146           45014                           CLEAR    CALL
000280: 34,2147           00662                                    ERADFLAG
000281: 34,2150           26441                                    LALOTORV                              #  CONVERT TO POSITION VECTOR IN REF.COORDS
000282:
000283: 34,2151           35232                           STCALL   RN1                                   #               -
000284: 34,2152           70334                                    GETDOWN                               #  RETURN WITH VECTOR FOR DOWN DIRECTION
000285: 34,2153           53476                           VCOMP    UNIT
000286: 34,2154           25752                           STOVL    REFSMMAT   +12D                       #  UNITZ = UNIT(GRAV)
000287: 34,2155           01232                                    RN1
000288: 34,2156           74235                           VXV      VXSC


000290: 34,2157           01714                                    UNITW                                 #  SCALED AT 1
000291: 34,2160           30304                                    -ERTHRAT                              #  V = EARTHRATE X R
000292: 34,2161           77712                           VSL4                                           #  SCALE TO 2(7) M/CS
000293: 34,2162           25240                           STOVL    VN1
000294: 34,2163           01752                                    REFSMMAT   +12D
000295: 34,2164           53435                           VXV      UNIT
000296: 34,2165           01714                                    UNITW                                 #  (REF3 X UNITW) = EAST
000297: 34,2166           47206                           PUSH     VXV
000298: 34,2167           01752                                    REFSMMAT   +12D                       #  (EAST X REF3) = -SOUTH
000299: 34,2170           65256                           UNIT     PDDL
000300: 34,2171           02634                                    LAUNCHAZ                              #  COS(AZ)*SOUTH
000301: 34,2172           74346                           COS      VXSC
000302: 34,2173           77626                           STADR
000303: 34,2174           62041                           STODL    REFSMMAT                              #  TEMPORARY STORAGE
000304: 34,2175           02634                                    LAUNCHAZ
000305: 34,2176           74356                           SIN      VXSC                                  #  SIN(AZ)*EAST
000306: 34,2177           53455                           VAD      UNIT                                  #  SIN(AZ)*EAST - COS(AZ)*SOUTH = REF1
000307: 34,2200           01736                                    REFSMMAT
000308: 34,2201           01736                           STORE    REFSMMAT
000309:
000310: 34,2202           53435                           VXV      UNIT                                  #  (REF1 X REF3) = -REF3
000311: 34,2203           01752                                    REFSMMAT   +12D
000312: 34,2204           77676                           VCOMP
000313: 34,2205           01744                           STORE    REFSMMAT   +6
000314: 34,2206           45345                           DLOAD    DSU
000315: 34,2207           15333                                    DPHALF                                #  1/2 REV
000316: 34,2210           02634                                    LAUNCHAZ
000317: 34,2211           65215                           DAD      PDDL
000318:
000319: 34,2212           02401                                    AZIMUTH
000320: 34,2213           03301                                    SATRLRT                               #  SET SATRLRT = -SATRLRT IF
000321: 34,2214           45565                           SIGN     STADR                                 #  (1/2REV -LAVNCHAZ +AZIMUTH) IS NEGATIVE
000322: 34,2215           74476                           STORE    SATRLRT                               #  FOR ROLL CALC IN FDAI ATT. ERROR DISPLAY
000323: 34,2216           77414                           SET      EXIT
000324: 34,2217           01462                                    REFSMFLG                              #  SET REFSMMAT KNOWN FLAG
000325:
000326: 34,2220           05412                           TC       PHASCHNG
000327: 34,2221           04023                           OCT      04023
000328:
000329: 34,2222           00006                           EXTEND
000330: 34,2223           32306                           DCA      P11SCADR
000331: 34,2224           53223                           DXCH     AVGEXIT                               #  SET AVGEXIT
000332:
000333: 34,2225           37665                           CA       PRIO31                                #  2 SECONDS AT 2(+8)
000334: 34,2226           55074                           TS       1/PIPADT
000335:
000336: 34,2227  E6,1501                                  EBANK=   RCSFLAGS
000337: 34,2227           35057                           CA       EBANK6
000338: 34,2230           54003                           TS       EBANK
000339:
000340: 34,2231           00004                           INHINT


000342: 34,2232           45021                           CS       ZERO
000343: 34,2233           55063                           TS       TBASE5                                #  RESTART READACCS 2 SECONDS AFTER LIFTOFF
000344:
000345: 34,2234           40025                           CS       TIME1
000346: 34,2235           65042                           AD       2SECS                                 #  DO READACCS 2 SECONDS AFTER LIFTOFF
000347:
000348: 34,2236           10000                           CCS      A                                     #  CHECK TO INSURE DT IS POSITIVE
000349: 34,2237           12242                           TCF      +3                                    #  TIME POSITIVE
000350: 34,2240           12242                           TCF      +2                                    #  CANNOT GET HERE
000351: 34,2241           35021                           CA       ZERO                                  #  TIME NEGATIVE - SET TO 1
000352: 34,2242           65017                           AD       ONE                                   #  RESTORE TIME  -  OR MAKE POSITIVE
000353:
000354: 34,2243           05245                           TC       WAITLIST
000355: 34,2244  E6,1661                                  EBANK=   AOG
000356: 34,2244           02743 76066                     2CADR    READACCS
000357:
000358: 34,2246           05372                           TC       2PHSCHNG
000359: 34,2247           00003                           OCT      00003                                 #  TURN OFF GROUP 3
000360: 34,2250           00025                           OCT      00025                                 #  PROTECT NORMLIZE AND READACCS
000361:
000362: 34,2251           04701                           TC       POSTJUMP
000363: 34,2252           77235                           CADR     NORMLIZE                              #  DO NORMLIZE AND ENDOFJOB
000364:
000365:
000366: 34,2253  E3,1706                                  EBANK=   TEPHEM
000367: 34,2253           00004        REP11              INHINT
000368: 34,2254           10763                           CCS      PHASE5
000369: 34,2255           05217                           TC       ENDOFJOB
000370:
000371: 34,2256           11265                           CCS      LIFTTEMP
000372: 34,2257           12263                           TCF      +4
000373: 34,2260           12263                           TCF      +3
000374: 34,2261           12263                           TCF      +2
000375: 34,2262           12013                           TCF      P11+7
000376:
000377: 34,2263           41336                           CS       TLIFTOFF
000378: 34,2264           00006                           EXTEND
000379: 34,2265           62273                           BZMF     ENDREP11
000380:
000381: 34,2266           10024                           CCS      TIME2                                 #  ** TIME2 MUST BE NON-ZERO AT LIFTOFF **
000382: 34,2267           12021                           TCF      REP11A     -5                         #  T2,T1 NOT YET ZEROED, GO AND DO IT
000383:
000384: 34,2270           00006                           EXTEND                                         #  T2,T1 ZEROED, SET TLIFTOFF
000385: 34,2271           31266                           DCA      LIFTTEMP
000386: 34,2272           12024                           TCF      REP11A-2
000387:
000388: 34,2273           00006        ENDREP11           EXTEND
000389: 34,2274           32301                           DCA      REP11SA
000390: 34,2275           12025                           TCF      REP11A-1


000392: 34,2276           77766 00011  REP11S             2OCT     7776600011
000393:
000394: 34,2300           77764 00013  REP11SA            2OCT     7776400013
000395:
000396: 34,2302           02451        P11XIT             GENADR   P11OUT
000397: 34,2303           71704 41735  -ERTHRAT           2DEC*    -7.292115138 E-7        B18*            #  - EARTH RATE AT 2(18)
000398:
000399: 34,2305  E6,1704                                  EBANK=   BODY3
000400: 34,2305           02307 70066  P11SCADR           2CADR    VHHDOT
000401:
000402: 34,2307     6214               POWDNCOD           EQUALS   THREE
000403:
000404: 34,2307  E6,1704                                  EBANK=   BODY3
000405:                                                                                                  #  VHHDOT IS EXECUTED EVERY 2 SECONDS TO DISPLAY ON DSKY
000406:                                                                                                  #        VI      INERTIAL VELOCITY MAGNITUDE
000407:                                                                                                  #        HDOT    RATE OF CHANGE OF ALT ABOVE L PAD RADIUS
000408:                                                                                                  #        H       ALTITUDE ABOVE L PAD RADIUS
000409:
000410: 34,2307           06006        VHHDOT             TC       INTPRET
000411: 34,2310           77624                           CALL                                           #  LOAD VMAGI, ALTI,
000412: 34,2311           70542                                    S11.1                                 #  HDOT FOR DISPLAY
000413: 34,2312           77776                           EXIT
000414: 34,2313           05412                           TC       PHASCHNG
000415: 34,2314           00035                           OCT      00035
000416:
000417: 34,2315           32622                           CAF      V06N62                                #  DISPLAY IN R1 R2   R3
000418: 34,2316           04662                           TC       BANKCALL                              #             VI HDOT H
000419: 34,2317           20707                           CADR     REGODSP
000420:
000421: 34,2320           35006        ATERTASK           CAF      PRIO1                                 #  ESTABLISH JOB TO DISPLAY ATT ERRORS
000422: 34,2321           05147                           TC       FINDVAC                               #  COMES HERE AT L.O. + .33 SEC
000423: 34,2322  E6,1704                                  EBANK=   BODY3
000424: 34,2322           02345 70066                     2CADR    ATERJOB
000425:
000426: 34,2324           41501                           CS       RCSFLAGS                              #  SET BIT3 FOR
000427: 34,2325           75015                           MASK     BIT3                                  #  NEEDLER
000428: 34,2326           27501                           ADS      RCSFLAGS                              #  INITIALIZATION PASS
000429: 34,2327           04740                           TC       IBNKCALL                              #  AND GO
000430: 34,2330           42420                           CADR     NEEDLER                               #  DO IT
000431: 34,2331           35017                           CA       BIT1                                  #  SET SW
000432: 34,2332           55725                           TS       SATSW                                 #  FOR DISPLAY
000433: 34,2333           05324                           TC       TASKOVER
000434: 34,2334           40220        GETDOWN            STQ      SETPD
000435: 34,2335           02242                                    INCORPEX
000436: 34,2336           00001                                    0D
000437: 34,2337           77745                           DLOAD
000438: 34,2340           15335                                    HI6ZEROS


000440: 34,2341           14007                           STODL    6D
000441: 34,2342           15333                                    DPHALF
000442: 34,2343           34011                           STCALL   8D
000443: 34,2344           26446                                    LALOTORV   +5
000444:                                                                                                  #  THIS SECTION PROVIDES ATTITUDE ERROR DISPLAYS TO THE FDAI DURING SONE BOOST
000445:
000446:                                                                                                  #        COMPUTE DESIRED PITCH W.R.T. PAD LOCAL VERTICAL AT LIFTOFF
000447:                                                                                                  #                          2    3    4    5    6
000448:                                                                                                  #        PITCH = A0+A1T+A2T +A3T +A4T +A5T +A6T
000449:                                                                                                  #                SCALED TO 32 REVS.                                   -14
000450:                                                                                                  #        IF TL = TIME IN SECS FROM L.O., THEN    T = 100(TL-RPSTART)2
000451:                                                                                                  #        WHERE   TL GE RPSTART
000452:                                                                                                  #                TL LE (-POLYSTOP + RPSTART)
000453:                                                                                                  #        COMPUTE DESIRED ROLL WHERE ROLL EQUALS ANGLE FROM
000454:                                                                                                  #        LAUNCHAZ TO -Z(S/C) AS SEEN FROM X(S/C).
000455:                                                                                                  #        ROLL = LAUNCHAZ-AZIMUTH-.5+SATRLRT*T    IN REV
000456:                                                                                                  #        SATRLRT = RATE OF ROLL IN REV/CENTI-SEC
000457:                                                                                                  #        T, IN CENTI-SEC, IS DEFINED AS ABOVE, INCLUSIVE OF TIME RESTRICTIONS
000458:
000459:                                                                                                  #        FOR SIMPLICITY, LET     P = 2*PI*PITCH
000460:                                                                                                  #                                R = 2*PI*ROLL
000461:
000462:                                                                                                  #        CONSTRUCT THE TRANSFORMATION MATRIX, TSMV, GIVING DESIRED S/C AXES IN
000463:                                                                                                  #        TERMS OF SM COORDINATES.  LET THE RESULTING ROWS EQUAL THE VECTORS XDC,
000464:                                                                                                  #        YDC, AND ZDC.
000465:
000466:                                                                                                  #         *     (    SIN(P)                 0               -COS(P)    )   (XDC)
000467:                                                                                                  #        TSMV = (-SIN(R)*COS(P)          -COS(R)         -SIN(R)*SIN(P)) = (YDC)
000468:                                                                                                  #               (-COS(R)*COS(P)           SIN(R)         -COS(R)*SIN(P))   (ZDC)
000469:
000470:                                                                                                  #        XDC,YDC,ZDC ARE USED AS INPUT TO CALCGTA FOR THE EXTRACTION OF THE
000471:                                                                                                  #        EULER SET OF ANGLES WHICH WILL BRING THE SM INTO THE DESIRED
000472:                                                                                                  #        ORIENTATION.  THIS EULER SET, OGC, IGC, AND MGC, MAY BE IDENTIFIED
000473:                                                                                                  #        AS THE DESIRED CDU ANGLES.
000474:
000475:                                                                                                  #        (XDC)                   (OGC)
000476:                                                                                                  #        (YDC) ---) CALCGTA ---) (IGC)
000477:                                                                                                  #        (ZDC)                   (MGC)
000478:                                                                                                  #                           -
000479:                                                                                                  #        DEFINE THE VECTOR DELTACDU.
000480:
000481:                                                                                                  #         -         (OGC)   (CDUX)
000482:                                                                                                  #        DELTACDU = (IGC) - (CDUY)
000483:                                                                                                  #                   (MGC)   (CDUZ)
000484:                                                                                                  #                                 -              -    *    -
000485:                                                                                                  #        COMPUTE ATTITUDE ERRORS, A, WHERE       A = TGSC*DELTACDU
000486:
000487:                                                                                                  #         *     (1             SIN(CDUZ)             0    )   THE GIMBAL ANGLES


000489:                                                                                                  #        TGSC = (0       COS(CDUX)*COS(CDUZ)     SIN(CDUX)) = TO SPACECRAFT AXES
000490:                                                                                                  #               (0      -SIN(CDUX)*COS(CDUZ)     COS(CDUX))   CONVERSION MATRIX
000491:                                                                                                  #                             -
000492:                                                                                                  #        THE ATTITUDE ERRORS, A, ARE STORED ONE HALF SINGLE PRECISION IN
000493:                                                                                                  #        THE REGISTERS AK, AK1, AK2 AS INPUT TO NEEDLER, THE FDAI ATTITUDE
000494:                                                                                                  #        ERROR DISPLAY ROUTINE.
000495:
000496: 34,2345           30102        ATERJOB            CAE      FLAGWRD6                              #  CHECK FLAGWRD6
000497: 34,2346           74105                           MASK     OCT60000                              #  BITS 14, 15
000498: 34,2347           00006                           EXTEND
000499: 34,2350           12352                           BZF      +2                                    #  OK - CONTINUE
000500: 34,2351           05217                           TC       ENDOFJOB                              #  SATURN STICK ON - KILL JOB
000501: 34,2352           35006                           CAF      BIT10                                 #  CHECK IF S/C CONTROL
000502: 34,2353           00006                           EXTEND                                         #  OF SATURN PANEL
000503: 34,2354           02030                           RAND     CHAN30                                #  SWITCH IS ON
000504: 34,2355           00006                           EXTEND
000505: 34,2356           12510                           BZF      STRSAT                                #  IT IS - GO STEER
000506: 34,2357           11725                           CCS      SATSW                                 #  IT IS NOT - WAS IT ON LAST CYCLE
000507: 34,2360           02363                           TC       ATTDISP                               #  NO - CONTINUE
000508: 34,2361           02513                           TC       ATRESET                               #  YES - REINITIALIZE NEEDLER
000509: 34,2362           02513                           TC       ATRESET                               #  YES - REINITIALIZE NEEDLER
000510: 34,2363           41702        ATTDISP            CS       RPSTART                               #  PITCH/ROLL START TIME
000511: 34,2364           60025                           AD       TIME1
000512: 34,2365           00006                           EXTEND
000513: 34,2366           62615                           BZMF     NOPOLY                                #  IF MINUS THEN ATTITUDE HOLD
000514: 34,2367           54154                           TS       MPAC                                  #  MPAC = TIME1 - RPSTART
000515: 34,2370           55707                           TS       SPOLYARG                              #  SAVE FOR USE IN ROLL CALUCLATION
000516: 34,2371           61703                           AD       POLYSTOP                              #  NEG PITCHOVER TIME IN CSECS
000517: 34,2372           00006                           EXTEND
000518: 34,2373           62375                           BZMF     +2
000519: 34,2374           02615                           TC       NOPOLY                                #  GO TO ATTITUDE HOLD
000520: 34,2375           30024                           CA       TIME2
000521: 34,2376           00006                           EXTEND
000522: 34,2377           62401                           BZMF     +2
000523: 34,2400           02615                           TC       NOPOLY                                #  GO TO ATTITUDE HOLD
000524: 34,2401           31661                           CAE      POLYNUM
000525: 34,2402           54001                           TS       L
000526: 34,2403           32621                           CAF      COEFPOLY                              #  EVALUATE PITCH POLYNOMIAL
000527: 34,2404           07164                           TC       POWRSERS                              #  SCALED TO 32 REVOLUTIONS
000528: 34,2405           35021                           CA       ZERO                                  #  RETURN WITH PITCH(32REV)
000529: 34,2406           54163                           TS       MODE                                  #  STORED IN MPAC, MPAC +1
000530: 34,2407           06006                           TC       INTPRET
000531: 34,2410           54201                           SETPD    SL                                    #  32(PITCH(32REV)) = PITCH(REV)
000532: 34,2411           00001                                    0
000533: 34,2412           20206                                    5
000534: 34,2413           77606                           PUSH                                           #  LET P(RAD) = 2.PI.PITCH(REV)
000535: 34,2414           77650                           GOTO
000536: 34,2415           76154                                    ATTDISP1                              #  AROUND SETLOC


000538:                                                                                                  #                                     *
000539:                                                                                                  #        CONSTRUCT SM TO S/C MATRIX, TSMV
000540:
000541: 37,2000                                           SETLOC   P11TWO
000542: 37,2000                                           BANK                                           #  36 IN COL., 34 IN DISK
000543:
000544: 37,2154                                           COUNT    36/P11
000545:
000546: 37,2154           57546        ATTDISP1           COS      DCOMP
000547: 37,2155           14017                           STODL    14D                                   #  -.5*COS(P)
000548: 37,2156           77756                           SIN
000549: 37,2157           14013                           STODL    10D                                   #  .5*SIN(P)
000550: 37,2160           15335                                    ZEROVECS
000551: 37,2161           00015                           STORE    12D                                   #  0
000552:
000553:                                                                                                  #        EVALUATE ROLL = LAUNCHAZ-AZIMUTH-.5+SATRLRT*T
000554: 37,2162           41335                           SLOAD    DMP
000555: 37,2163           03310                                    SPOLYARG                              #  TIME1 - RPSTART, CSECS B-14.
000556: 37,2164           03301                                    SATRLRT
000557: 37,2165           45261                           SL       DSU
000558: 37,2166           20217                                    14D
000559: 37,2167           15333                                    DPHALF
000560: 37,2170           45215                           DAD      DSU                                   #  ASSUMING X(SM) ALONG LAUNCH AZIMUTH,
000561: 37,2171           02634                                    LAUNCHAZ                              #  LAUNCHAZ = ANGLE FROM NORTH TO X(SM).
000562: 37,2172           02401                                    AZIMUTH                               #  AZIMUTH = -ANGLE FROM NORTH TO Z(S/C)
000563: 37,2173           77634                           RTB                                            #  DETERMINE IF ROLLOUT
000564: 37,2174           70604                                    RLTST                                 #  IS COMPLETED
000565: 37,2175           71406        ATTDISPR           PUSH     COS                                   #  CONTINUE COMPUTING TSMV
000566: 37,2176           77606                           PUSH                                           #  LET R(RAD) = 2*PI*ROLL(REV)
000567: 37,2177           72405                           DMP      SL1
000568: 37,2200           00017                                    14D
000569: 37,2201           14027                           STODL    22D                                   #  -.5*COS(R)*COS(P)
000570: 37,2202           77676                           DCOMP
000571: 37,2203           00023                           STORE    18D                                   #  -.5*COS(R)
000572: 37,2204           72405                           DMP      SL1
000573: 37,2205           00013                                    10D
000574: 37,2206           14033                           STODL    26D                                   #  -.5*COS(R)*SIN(P)
000575: 37,2207           41556                           SIN      PUSH
000576: 37,2210           00031                           STORE    24D                                   #  .5*SIN(R)
000577: 37,2211           72405                           DMP      SL1
000578: 37,2212           00017                                    14D
000579: 37,2213           14021                           STODL    16D                                   #  -.5*SIN(R)*COS(P)
000580: 37,2214           77676                           DCOMP
000581: 37,2215           72405                           DMP      SL1
000582: 37,2216           00013                                    10D
000583: 37,2217           24025                           STOVL    20D                                   #  -.5*SIN(R)*SIN(P)
000584: 37,2220           00013                                    10D
000585:
000586:                                                                                                  #        FROM TSMV FIND THE HALF UNIT VECTORS XDC,YDC,ZDC = INPUT TO CALCGTA


000588: 37,2221           77656                           UNIT
000589: 37,2222           26714                           STOVL    XDC                                   #  XDC = .5*UNIT(SIN(P),0,-COS(P))
000590: 37,2223           00021                                    16D
000591: 37,2224           77656                           UNIT
000592: 37,2225           26722                           STOVL    YDC                                   #  YDC = .5*UNIT(-SIN(R)*COS(P),-COS(R),
000593: 37,2226           00027                                    22D                                   #                        -SIN(R)*SIN(P))
000594: 37,2227           77656                           UNIT
000595: 37,2230           36730                           STCALL   ZDC                                   #  ZDC = .5*UNIT(-COS(R)*COS(P),SIN(R),
000596: 37,2231           47205                                    CALCGTA                               #                        -COS(R)*SIN(P))
000597:
000598:                                                                                                  #        CALL CALCGTA TO COMPUTE DESIRED SM ORIENTATION  OGC,IGC, AND MGC
000599:                                                                                                  #                                 -          -   -
000600:                                                                                                  #        FIND DIFFERENCE VECTOR  DELTACDU = OGC-CDUX
000601:                                                                                                  #
000602:                                                                                                  #        ENTER HERE IF ATTITUDE HOLD
000603:
000604: 37,2232           41575        NOPOLYM            VLOAD    PUSH                                  #         OGC      IGC
000605: 37,2233           02760                                    OGC                                   #  CHANGE IGC  TO  MGC FOR COMPATIBILITY
000606: 37,2234           45006                           PUSH     CALL                                  #         MGC      OGC
000607: 37,2235           47477                                    CDUTRIG                               #  WITH Y,Z,X ORDER OF CDUSPOT
000608: 37,2236           47175                           VLOAD    RTB                                   #   -         DPHI     OGC-CDUX , PD4
000609: 37,2237           00003                                    2                                     #  DELTACDU = DTHETA = IGC-CDUY , 0
000610: 37,2240           45552                                    V1STO2S                               #             DPSI     MGC-CDUZ , 2
000611: 37,2241           27317                           STOVL    BOOSTEMP
000612: 37,2242           15335                                    ZEROVECS
000613: 37,2243           24001                           STOVL    0
000614: 37,2244           00767                                    CDUSPOT
000615: 37,2245           47034                           RTB      RTB
000616: 37,2246           45552                                    V1STO2S
000617: 37,2247           70564                                    DELSTOR
000618: 37,2250           14013                           STODL    10D
000619: 37,2251           00741                                    SINCDUZ
000620: 37,2252           72405                           DMP      SL1
000621: 37,2253           00001                                    0
000622: 37,2254           60415                           DAD      SR2                                   #  CHANGE SCALE OF AK TO 2REVS
000623: 37,2255           00005                                    4
000624: 37,2256           77650                           GOTO
000625: 37,2257           70416                                    ATTDISP2
000626:
000627: 34,2000                                           SETLOC   P11ONE
000628: 34,2000                                           BANK
000629: 34,2416                                           COUNT    34/P11
000630:
000631: 34,2416           14021        ATTDISP2           STODL    16D                                   #  16D, .5(DPHI + DTHETA*SIN(CDUZ))
000632: 34,2417           00747                                    COSCDUZ
000633: 34,2420           41405                           DMP      PUSH
000634: 34,2421           00001                                    0
000635: 34,2422           72405                           DMP      SL1
000636: 34,2423           00751                                    COSCDUX
000637: 34,2424           41325                           PDDL     DMP


000639: 34,2425           00743                                    SINCDUX
000640: 34,2426           00003                                    2
000641: 34,2427           72415                           DAD      SL1
000642: 34,2430           77626                           STADR
000643: 34,2431           63755                           STODL    17D                                   #  17D,  .5(DTHETA*COS(CDUX)*COS(CDUZ)
000644: 34,2432           72405                           DMP      SL1                                   #                        +DPSI*SIN(CDUX))
000645: 34,2433           00743                                    SINCDUX
000646: 34,2434           41325                           PDDL     DMP
000647: 34,2435           00751                                    COSCDUX
000648: 34,2436           00003                                    2
000649: 34,2437           72425                           DSU      SL1
000650: 34,2440           77626                           STADR
000651: 34,2441           77754                           STORE    18D                                   #  18D,  .5(-DTHETA*SIN(CDUX)*COS(CDUZ)
000652: 34,2442           77751                           TLOAD                                          #                        +DPSI*COS(CDUX))
000653: 34,2443           00021                                    16D
000654: 34,2444           03077                           STORE    AK                                    #  STORE ATTITUDE ERRORS IN AK,AK1,AK2
000655: 34,2445           77776                           EXIT
000656:
000657: 34,2446           31725                           CA       SATSW
000658: 34,2447           10000                           CCS      A                                     #  CHK TAKEOVER STATUS
000659: 34,2450           02471                           TC       SATOUT                                #  POS - DISPLAY ONLY
000660: 34,2451           02477                           TC       AKLOAD                                #  0     STORE BIAS
000661: 34,2452           06006        STEERSAT           TC       INTPRET                               #  NEG   STEER L/V
000662: 34,2453           76351                           TLOAD    TAD
000663: 34,2454           03327                                    BIASAK
000664: 34,2455           03077                                    AK
000665: 34,2456           03077                           STORE    AK                                    #  AKS = AKS - STORED BIAS
000666: 34,2457           77776                           EXIT
000667: 34,2460           31476                           CA       AK
000668: 34,2461           02623                           TC       RESCALES
000669: 34,2462           55476                           TS       AK
000670: 34,2463           31477                           CA       AK1
000671: 34,2464           02623                           TC       RESCALES
000672: 34,2465           55477                           TS       AK1
000673: 34,2466           31500                           CA       AK2
000674: 34,2467           02623                           TC       RESCALES
000675: 34,2470           55500                           TS       AK2
000676:                                                                                                  #        DISPLAY ATTITUDE ERRORS ON FDAI VIA NEEDLER
000677:
000678: 34,2471           04662        SATOUT             TC       BANKCALL
000679: 34,2472           42420                           CADR     NEEDLER
000680: 34,2473           34113        ATERSET            CAF      OCT31                                 #  DELAY .25 SEC
000681: 34,2474           04662                           TC       BANKCALL                              #  EXECUTION + DELAY = .56SEC APPROX
000682: 34,2475           01732                           CADR     DELAYJOB
000683: 34,2476           02345                           TC       ATERJOB                               #  END OF ATT ERROR DISPLAY CYCLE
000684:
000685: 34,2477           41476        AKLOAD             CS       AK                                    #  STORE AKS
000686: 34,2500           55726                           TS       BIASAK                                #  INTO BIAS
000687: 34,2501           41477                           CS       AK1                                   #  COMPLEMENTED
000688: 34,2502           55727                           TS       BIASAK     +1


000690: 34,2503           41500                           CS       AK2
000691: 34,2504           55730                           TS       BIASAK     +2
000692: 34,2505           45017                           CS       BIT1                                  #  SET SW
000693: 34,2506           55725                           TS       SATSW                                 #  TO STEER
000694: 34,2507           02452                           TC       STEERSAT                              #  GO STEER
000695: 34,2510           31725        STRSAT             CA       SATSW                                 #  CHECK IF NEEDLER
000696: 34,2511           00006                           EXTEND                                         #  HAS BEEN INITIALIZED
000697: 34,2512           62363                           BZMF     ATTDISP                               #  YES - CONTINUE
000698: 34,2513           41501        ATRESET            CS       RCSFLAGS                              #  NO - SET
000699: 34,2514           75015                           MASK     BIT3                                  #  INITIALIZATION SW
000700: 34,2515           27501                           ADS      RCSFLAGS                              #  FOR NEEDLER
000701: 34,2516           04662                           TC       BANKCALL                              #  AND GO
000702: 34,2517           42420                           CADR     NEEDLER                               #  DO IT
000703: 34,2520           36211                           CAF      REVCNT                                #  OCT 6
000704: 34,2521           04662                           TC       BANKCALL                              #  DELAY JOB
000705: 34,2522           01732                           CADR     DELAYJOB                              #  60 MS -WAIT TILL IMUERRCNTR ZEROED
000706: 34,2523           11725                           CCS      SATSW                                 #  CHECK SW STATUS
000707: 34,2524           02534                           TC       TAKEON                                #  POS   STEER INIT.
000708: 34,2525           02526                           TC       +1                                    #  0     RETURN TO DISPLAY
000709: 34,2526           35017                           CA       BIT1                                  #  NEG   RETURN TO DISPLAY
000710: 34,2527           55725                           TS       SATSW                                 #  SW = DISPLAY ONLY
000711: 34,2530           45007                           CS       BIT9                                  #  DISABLE
000712: 34,2531           00006                           EXTEND                                         #  SIVB
000713: 34,2532           03012                           WAND     CHAN12                                #  TAKEOVER
000714: 34,2533           02471                           TC       SATOUT                                #  DISPLAY
000715: 34,2534           35007        TAKEON             CAF      BIT9                                  #  ENABLE
000716: 34,2535           00006                           EXTEND                                         #  SIVB
000717: 34,2536           05012                           WOR      CHAN12                                #  TAKEOVER
000718: 34,2537           35021                           CA       ZERO                                  #  INDICATE NEEDLER
000719: 34,2540           55725                           TS       SATSW                                 #  WAS INITIALIZED
000720: 34,2541           02471                           TC       SATOUT
000721: 34,2542           51575        S11.1              VLOAD    ABVAL
000722: 34,2543           01177                                    VN
000723: 34,2544           27723                           STOVL    VMAGI                                 #  VI    SCALED 2(7) IN METERS/CSEC
000724: 34,2545           01171                                    RN
000725: 34,2546           50256                           UNIT     DOT
000726: 34,2547           01177                                    VN
000727: 34,2550           77752                           SL1
000728: 34,2551           17737                           STODL    HDOT
000729: 34,2552           05152                                    RPAD
000730: 34,2553           77214                           BOF      VLOAD
000731: 34,2554           00355                                    AMOONFLG
000732: 34,2555           70560                                    EARTHALT
000733: 34,2556           02026                                    RLS
000734: 34,2557           60446                           ABVAL    SR2
000735: 34,2560           77621        EARTHALT           BDSU
000736: 34,2561           00045                                    36D
000737: 34,2562           03735                           STORE    ALTI
000738: 34,2563           77616                           RVQ
000739: 34,2564           31716        DELSTOR            CA       BOOSTEMP


000741: 34,2565           00006                           EXTEND                                         #  STORE DELTACDU INTO PDL 0,2,4
000742: 34,2566           20154                           MSU      MPAC
000743: 34,2567           50120                           INDEX    FIXLOC
000744: 34,2570           54000                           TS       0
000745: 34,2571           31717                           CA       BOOSTEMP   +1
000746: 34,2572           00006                           EXTEND
000747: 34,2573           20155                           MSU      MPAC       +1
000748: 34,2574           50120                           INDEX    FIXLOC
000749: 34,2575           54002                           TS       2
000750: 34,2576           31720                           CA       BOOSTEMP   +2
000751: 34,2577           00006                           EXTEND
000752: 34,2600           20156                           MSU      MPAC       +2
000753: 34,2601           50120                           INDEX    FIXLOC
000754: 34,2602           54004                           TS       4
000755: 34,2603           16030                           TCF      DANZIG
000756: 34,2604           30154        RLTST              CA       MPAC                                  #  DETERMINE IF ROLLOUT
000757: 34,2605           00006                           EXTEND                                         #  IS COMPLETED
000758: 34,2606           71701                           MP       SATRLRT    +1
000759: 34,2607           00006                           EXTEND
000760: 34,2610           66030                           BZMF     DANZIG                                #  UNLIKE SIGNS STILL ROLLING
000761: 34,2611           00006                           EXTEND                                         #  ROLLOUT COMPLETED
000762: 34,2612           33672                           DCA      MBDYTCTL   +2                         #  ZERO OUT ROLL CONTRIBUTION
000763: 34,2613           52155                           DXCH     MPAC
000764: 34,2614           06030                           TC       DANZIG
000765: 34,2615           06006        NOPOLY             TC       INTPRET                               #  COMES HERE IF
000766: 34,2616           52001                           SETPD    GOTO                                  #  ATTITUDE HOLD
000767: 34,2617           00001                                    0
000768: 34,2620           76232                                    NOPOLYM
000769: 34,2621           01673        COEFPOLY           ADRES    POLYLOC
000770: 34,2622           01476        V06N62             VN       0662
000771: 34,2623           00006        RESCALES           EXTEND                                         #  RESCALE AK S FOR
000772: 34,2624           71731                           MP       SATSCALE                              #  NEW HARDWARE
000773: 34,2625           20001                           DDOUBL                                         #  SCALING FOR
000774: 34,2626           20001                           DDOUBL                                         #  STEERING
000775: 34,2627           00002                           TC       Q                                     #  SATURN
000776:
000777:                                                                                                  #  SATURN TAKEOVER FUNCTION
000778:                                                                                                  #  ************************
000779:                                                                                                  #
000780:                                                                                                  #  PROGRAM DESCRIPTION
000781:
000782:                                                                                                  #        MOD NUMBER 1
000783:                                                                                                  #        MOD BY ELIASSEN
000784:
000785:                                                                                                  #  FUNCTIONAL DESCRIPTION
000786:
000787:                                                                                                  #        DURING THE COASTING PHASE OF SIVB ATTACHED, THE
000788:                                                                                                  #        ASTRONAUT MAY REQUEST SATURN TAKEOVER THROUGH
000789:                                                                                                  #        EXTENDED VERB 46 (BITS 13,14 OF DAPDATR1 SET ).
000790:                                                                                                  #        THE CMC REGARDS RHC COMMANDS AS BODY-AXES RATE
000791:                                                                                                  #        COMMANDS AND IT TRANSMITS THESE TO SATURN AS DC


000793:                                                                                                  #        VOLTAGES.  THE VALUE OF THE CONSTANT RATE COMMAND
000794:                                                                                                  #        IS 0.5 DEG/SEC.  AN ABSENCE OF RHC ACTIVITY RE-
000795:                                                                                                  #        SULTS IN A ZERO RATE COMMAND.
000796:
000797:                                                                                                  #        THE FDAI ERROR NEEDLES WILL INDICATE THE VALUE
000798:                                                                                                  #        OF THE RATE COMMAND.
000799:
000800:                                                                                                  #  CALLING SEQUENCE
000801:
000802:                                                                                                  #        DAPFIG +9D      TC      POSTJUMP
000803:                                                                                                  #                        CADR    SATSTKON
000804:
000805:                                                                                                  #  SUBROUTINES CALLED
000806:
000807:                                                                                                  #        ENDEXT
000808:                                                                                                  #        IBNKCALL
000809:                                                                                                  #        STICKCHK
000810:                                                                                                  #        NEEDLER
000811:                                                                                                  #        T5RUPT
000812:                                                                                                  #        RESUME
000813:
000814:                                                                                                  #  ASTRONAUT REQUESTS
000815:
000816:                                                                                                  #        ENTRY -  VERB 46 ENTER
000817:                                                                                                  #                 (CONDITION - BITS 13, 14 OF DAPDATR1 SET)
000818:
000819:                                                                                                  #        EXIT -   VERB 48 ENTER  (FLASH V06N46)
000820:                                                                                                  #                 VERB 21 ENTER  AXXXX ENTER WHERE A=0 OR 1
000821:                                                                                                  #                 VERB 34 ENTER
000822:                                                                                                  #                 VERB 46 ENTER
000823:
000824:                                                                                                  #  NORMAL EXIT MODE
000825:
000826:                                                                                                  #        VERB 46 ENTER   (SEE ASTRONAUT ABOVE)
000827:
000828:                                                                                                  #  ALARM OR ABORT EXIT MODES
000829:
000830:                                                                                                  #        NONE
000831:
000832:                                                                                                  #  OUTPUT
000833:
000834:                                                                                                  #        SATURN RATES IN CDUXCMD, CDUYCMD, CDUZCMD
000835:
000836:                                                                                                  #  ERASABLE INITIALIZATION
000837:
000838:                                                                                                  #        DAPDATR1        (BITS 13, 14 MUST BE SET)
000839:
000840:                                                                                                  #  DEBRIS
000841:
000842:                                                                                                  #        CENTRALS


000844:                                                                                                  #        CDUXCMD, CDUYCMD, CDUZCMD
000845:
000846: 43,3215                                           BANK     43
000847: 43,2000                                           SETLOC   EXTVERBS
000848: 43,2000                                           BANK
000849:
000850: 43,3215                                           COUNT    23/STTKE
000851: 43,3215           00006        SATSTKON           EXTEND
000852: 43,3216           33233                           DCA      2REDOSAT
000853: 43,3217           00004                           INHINT
000854: 43,3220           53313                           DXCH     T5LOC
000855: 43,3221           34777                           CAF      POSMAX
000856: 43,3222           54030                           TS       TIME5
000857: 43,3223           40102                           CS       FLAGWRD6                              #  TURN ON BITS 15,14 OF
000858: 43,3224           74105                           MASK     RELTAB11                              #  FLAGWRD6
000859: 43,3225           26102                           ADS      FLAGWRD6                              #        SATSTICK CONTROL OF T5
000860: 43,3226           04740                           TC       IBNKCALL                              #  ZERO JET CHANNELS IN 14 MS AND THEN
000861: 43,3227           42632                           CADR     ZEROJET                               #  LEAVE THE T6 CLOCK DISABLED
000862: 43,3230           00003                           RELINT
000863: 43,3231           02121                           TC       GOPIN                                 #  EXIT THUS BECAUSE WE CAME VIA V46
000864:
000865: 43,3232  E6,1704                                  EBANK=   BODY3
000866: 43,3232           02765 46106  2REDOSAT           2CADR    REDOSAT
000867:
000868:
000869: 43,3234  30,2000                                  SBANK=   LOWSUPER
000870: 32,2017                                           BANK     32
000871: 23,2000                                           SETLOC   P11FOUR
000872: 23,2000                                           BANK
000873:
000874: 23,2765           22016        REDOSAT            LXCH     BANKRUPT                              #  ALSO COMES HERE FOR RESTARTS
000875: 23,2766           00006                           EXTEND
000876: 23,2767           22012                           QXCH     QRUPT
000877: 23,2770           41501                           CS       RCSFLAGS                              #  TURN ON BIT3 OF RCSFLAGX
000878: 23,2771           75015                           MASK     BIT3                                  #  FOR
000879: 23,2772           27501                           ADS      RCSFLAGS                              #  NEEDLER INITIALIZATION
000880: 23,2773           04740                           TC       IBNKCALL
000881: 23,2774           42420                           CADR     NEEDLER                               #  DISABLE IMU ERR COUNTERS ETC.
000882: 23,2775           35007                           CAF      BIT9                                  #  SIVB
000883: 23,2776           00006                           EXTEND                                         #  TAKEOVER
000884: 23,2777           05012                           WOR      CHAN12                                #  ENABLE
000885: 23,3000           00006                           EXTEND                                         #  SET UP T5 CYCLE
000886: 23,3001           33042                           DCA      2SATSTCK
000887: 23,3002           53313                           DXCH     T5LOC
000888: 23,3003           33040                           CAF      100MST5                               #  IN 100 MSECS
000889: 23,3004           54030                           TS       TIME5
000890: 23,3005           15333                           TCF      RESUME                                #  END OF SATURN STICK INITIALIZATION
000891:
000892:                                                                                                  #        THIS SECTION IS EXECUTED EVERY 100 MSECS


000894: 23,3006           22016        SATSTICK           LXCH     BANKRUPT
000895: 23,3007           00006                           EXTEND
000896: 23,3010           22012                           QXCH     QRUPT
000897:
000898: 23,3011           33041                           CAF      2SATSTCK                              #  SET UP RUPT
000899: 23,3012           55312                           TS       T5LOC                                 #  LO ORDER LOC SET
000900: 23,3013           33040                           CAF      100MST5                               #  100 MSECS
000901: 23,3014           54030                           TS       TIME5
000902: 23,3015           33037                           CAF      STIKBITS
000903: 23,3016           00006                           EXTEND
000904: 23,3017           06031                           RXOR     CHAN31                                #  CHECK IF MAN ROT BITS SAME
000905: 23,3020           73037                           MASK     STIKBITS
000906: 23,3021           04740                           TC       IBNKCALL                              #  SET RATE INDICES
000907: 23,3022           43130                           CADR     STICKCHK                              #  FOR PITCH YAW AND ROLL
000908:
000909: 23,3023           51656                           INDEX    RMANNDX                               #  SET SATURN RATES
000910: 23,3024           31721                           CA       SATRATE
000911: 23,3025           55476                           TS       AK                                    #        ROLL
000912: 23,3026           51657                           INDEX    PMANNDX
000913: 23,3027           31721                           CA       SATRATE
000914: 23,3030           55477                           TS       AK1                                   #        PITCH
000915: 23,3031           51660                           INDEX    YMANNDX
000916: 23,3032           31721                           CA       SATRATE
000917: 23,3033           55500                           TS       AK2                                   #        YAW
000918:
000919: 23,3034           04740                           TC       IBNKCALL                              #  FOR SATURN INTERFACE AND FDAI DISPLAY
000920: 23,3035           42420                           CADR     NEEDLER
000921: 23,3036           15333                           TCF      RESUME                                #  END OF SATURN STICK CONTROL
000922:
000923: 23,3037           00077        STIKBITS           OCT      00077
000924: 23,3040           37766        100MST5            DEC      16374      B-14
000925: 23,3041  E6,1704                                  EBANK=   BODY3
000926: 23,3041           03006 46066  2SATSTCK           2CADR    SATSTICK

End of include-file P11.agc.  Parent file is MAIN.agc


