
Source Code


000002:                                                                                                  ## Copyright:   Public domain.
000003:                                                                                                  ## Filename:    P20-P25.agc
000004:                                                                                                  ## Purpose:     A section of Comanche revision 044.
000005:                                                                                                  ##              It is part of the reconstructed source code for the
000006:                                                                                                  ##              original release of the flight software for the Command
000007:                                                                                                  ##              Module's (CM) Apollo Guidance Computer (AGC) for Apollo 10.
000008:                                                                                                  ##              The code has been recreated from a copy of Comanche 055. It
000009:                                                                                                  ##              has been adapted such that the resulting bugger words
000010:                                                                                                  ##              exactly match those specified for Comanche 44 in NASA drawing
000011:                                                                                                  ##              2021153D, which gives relatively high confidence that the
000012:                                                                                                  ##              reconstruction is correct.
000013:                                                                                                  ## Assembler:   yaYUL
000014:                                                                                                  ## Contact:     Ron Burkey <info@sandroid.org>.
000015:                                                                                                  ## Website:     www.ibiblio.org/apollo/index.html
000016:                                                                                                  ## Mod history: 2020-12-03 MAS  Created from Comanche 51. Restored V67 to
000017:                                                                                                  ##                              mostly match Colossus 249, minus V67FLAG.
000018:                                                                                                  ##              2020-12-05 MAS  Replaced STARSAV3 with STAR in LDPLANET,
000019:                                                                                                  ##                              and changed the pairing of its opcodes.
000020:                                                                                                  ##              2020-12-11 RSB  Added justifying annotations for the steps
000021:                                                                                                  ##                              of Mike's reconstruction.
000022:


000024:                                                                                                  #  RENDEZVOUS NAVIGATION PROGRAM 20
000025:
000026:                                                                                                  #  PROGRAM DESCRIPTION
000027:
000028:                                                                                                  #        MOD NO -1
000029:                                                                                                  #        MOD BY - N.BRODEUR
000030:
000031:                                                                                                  #  FUNCTIONAL DESCRIPTION
000032:
000033:                                                                                                  #        TO CONTROL THE CSM ATTITUDE AND OPTICS TO ACQUIRE THE LEM IN THE S+T
000034:                                                                                                  #        FIELD AND TO POINT THE CSM TRANSPONDER AT THE LEM.  TO UPDATE EITHER THE
000035:                                                                                                  #        LEM OR CSM STATE VECTOR (AS SPECIFIED BY THE ASTRONAUT BY THE DSKY
000036:                                                                                                  #        ENTRY) ON THE BASIS OF OPTICAL TRACKING DATA (REQUESTED BY DSKY)
000037:
000038:                                                                                                  #  CALLING SEQUENCE -
000039:
000040:                                                                                                  #        ASTRONAUT REQUEST THROUGH DSKY V37E20E
000041:
000042:                                                                                                  #  SUBROUTINES CALLED-
000043:
000044:                                                                                                  #        R02BOTH (IMU STATUS CHECK)                              BANKCALL
000045:                                                                                                  #        FLAGUP                          2PHSCHNG                LOADTIME
000046:                                                                                                  #        R61CSM (PREFERRED TRACKING ATTITUDE)                    FLAGDOWN
000047:                                                                                                  #        R52 (AUTO OPTICS POSITIONING ROUT)                      SETINTG
000048:                                                                                                  #        R22 (REND TRACK DATA PROC ROUT)                         PRIOCHNG
000049:                                                                                                  #        ENDOFJOB                        INTEGRV                 GRP2PC
000050:                                                                                                  #        INTPRET                         MKRLEES                 FINDVAC
000051:
000052:                                                                                                  #  NORMAL EXIT MODES -
000053:
000054:                                                                                                  #        P20 MAY BE TERMINATED IN TWO WAYS-ASTRONAUT SELECTION OF IDLING
000055:                                                                                                  #        PROGRAM (P00) BY KEYING V37E00E OR BY KEYING IN V56E
000056:
000057:                                                                                                  #  ALARM OR ABORT EXIT MODES -
000058:
000059:                                                                                                  #        NONE DIRECTLY FROM P20
000060:
000061:                                                                                                  #  OUTPUT
000062:
000063:                                                                                                  #        TRKMKCNT = NO OF RENDEZVOUS TRACKING MARKS TAKEN (COUNTER)
000064:                                                                                                  #        VHFCNT = NO OF VHF RANGING MARKS INCORPORATED (COUNTER)
000065:
000066:                                                                                                  #  FLAGS SET + RESET
000067:
000068:                                                                                                  #        RNDVZFLG,VEHUPFLG,UPDATFLG,TRACKFLG,TARG1FLG
000069:                                                                                                  #        HOLDFLAG,WBODY,WBODY1,WBODY2,DELCDUX,DELCDUY,DELCDUZ
000070:                                                                                                  #        STIKFLAG,PRFTRKAT,VINTFLAG,DIM0FLAG,R60FLAG,R61CNTR
000071:
000072: 33,3776                                           BANK     33
000073: 37,2000                                           SETLOC   P20S
000074: 37,2000                                           BANK
000075:
000076: 37,2260  E6,1413                                  EBANK=   ESTROKER
000077: 37,2260                                           COUNT*   $$/P20
000078:
000079: 37,2260           04662        PROG20             TC       BANKCALL
000080: 37,2261           17653                           CADR     R02BOTH                               #  IMU STATUS CHECK
000081:                                                                                                  #  BLOCKING OF UPLINK IS DONE BY UPLINK PRG
000082: 37,2262           35021                           CAF      ZERO
000083: 37,2263           55126                           TS       TRKMKCNT                              #  ZERO REND TRACKING MARK COUNTER
000084: 37,2264           55125                           TS       VHFCNT                                #  ZERO REND VHF RNG MRK COUNTER
000085: 37,2265           05546                           TC       UPFLAG                                #  SET PREF TRACK ATT FLAG
000086: 37,2266           00120                           ADRES    PRFTRKAT                              #  BIT 10 FLAG 5
000087: 37,2267           05560                           TC       DOWNFLAG                              #  LEM TO BE UPDATED.  VEHUPFLG RESET.
000088: 37,2270           00026                           ADRES    VEHUPFLG                              #  BIT 8 FLAG 1


000090: 37,2271           05546                           TC       UPFLAG                                #  SET TRACKFLAG
000091: 37,2272           00031                           ADRES    TRACKFLG                              #  BIT 5 FLAG 1
000092: 37,2273           05546                           TC       UPFLAG                                #  SET UPDATFLG
000093: 37,2274           00027                           ADRES    UPDATFLG                              #  BIT 7 FLAG 1
000094: 37,2275           05546                           TC       UPFLAG                                #  SET RNDVZFLG
000095: 37,2276           00010                           ADRES    RNDVZFLG                              #  BIT 7 FLAG 0
000096: 37,2277           05372                           TC       2PHSCHNG
000097: 37,2300           00004                           OCT      4
000098: 37,2301           05022                           OCT      05022
000099: 37,2302           26000                           OCT      26000
000100: 37,2303           06006                           TC       INTPRET
000101: 37,2304           77634                           RTB
000102: 37,2305           45510                                    LOADTIME
000103: 37,2306           35225                           STCALL   MARKTIME
000104: 37,2307           56343                                    SETINTG                               #  SET INTEGRATION FLAGS
000105: 37,2310           43014                           BOFF     SET
000106: 37,2311           02756                                    RENDWFLG
000107: 37,2312           76314                                    P20.1
000108: 37,2313           01476                                    DIM0FLAG                              #  SET TO INTEGRATE THE W MATRIX
000109: 37,2314           43014        P20.1              BON      CLEAR
000110: 37,2315           00707                                    VEHUPFLG
000111: 37,2316           76320                                    P20.2
000112: 37,2317           01674                                    VINTFLAG                              #  SET FOR LM INTEGRATION
000113: 37,2320           77624        P20.2              CALL
000114: 37,2321           27162                                    INTEGRV
000115: 37,2322           77624                           CALL
000116: 37,2323           56750                                    GRP2PC                                #  GROUP 2 PHASE CHANGE
000117: 37,2324           77624                           CALL
000118: 37,2325           56343                                    SETINTG                               #  SET INTEGRATION FLAGS
000119: 37,2326           43014                           BOFF     CLEAR
000120: 37,2327           00747                                    VEHUPFLG
000121: 37,2330           76332                                    P20.3
000122: 37,2331           01674                                    VINTFLAG                              #  SET FOR LM INTEGRATION
000123: 37,2332           77624        P20.3              CALL
000124: 37,2333           27162                                    INTEGRV
000125: 37,2334           77776                           EXIT
000126: 37,2335           37663                           CAF      PRIO26
000127: 37,2336           05147                           TC       FINDVAC
000128: 37,2337  E7,1734                                  EBANK=   MRKBUF2
000129: 37,2337           02630 70067                     2CADR    R22
000130:
000131: 37,2341           05372                           TC       2PHSCHNG
000132: 37,2342           00072                           OCT      00072
000133: 37,2343           00111                           OCT      00111
000134: 37,2344           35066        PIKUP20            CAF      PRIO14                                #  ALLOW HIGHER PRIO THAN LAMBERT
000135: 37,2345           05210                           TC       PRIOCHNG
000136: 37,2346           35013                           CAF      BIT5                                  #  IS TRACK FLAG SET
000137: 37,2347           70075                           MASK     STATE      +1
000138: 37,2350           00006                           EXTEND
000139: 37,2351           15217                           BZF      ENDOFJOB                              #  NO


000141: 37,2352           35003                           CAF      BIT13
000142: 37,2353           70077                           MASK     STATE      +3                         #  IS REFSMFLG SET
000143: 37,2354           00006                           EXTEND
000144: 37,2355           15217                           BZF      ENDOFJOB
000145: 37,2356           35021                           CAF      ZERO
000146: 37,2357           55775                           TS       R61CNTR                               #  INITIALIZE R61 COUNTER
000147: 37,2360           04662                           TC       BANKCALL
000148: 37,2361           76556                           CADR     R61CSM
000149: 37,2362  E5,1777                                  EBANK=   QMIN
000150: 37,2362           35056                           CAF      EBANK5
000151: 37,2363           54003                           TS       EBANK
000152: 37,2364           05546                           TC       UPFLAG                                #  SET TARGET FLAG TO LEM
000153: 37,2365           00024                           ADRES    TARG1FLG                              #  BIT 10 FLAG 1
000154: 37,2366           06006        P20R52JB           TC       INTPRET
000155: 37,2367           77624                           CALL
000156: 37,2370           30011                                    R52                                   #  SET UP AUTO OPTICS JOB
000157: 37,2371           77776                           EXIT
000158: 37,2372           04662                           TC       BANKCALL
000159: 37,2373           16071                           CADR     MKRLEES
000160: 37,2374           35017                           CAF      ONE                                   #  HOLD PRESENT ATTITUDE
000161: 37,2375           55332                           TS       HOLDFLAG
000162: 37,2376           05217                           TC       ENDOFJOB
000163: 37,2377           00203        OCT203             OCT      00203
000164: 37,2400     7707               FIRST3             EQUALS   FURST3
000165:


000167:                                                                                                  #  ORBITAL NAVIGATION PROGRAM 22
000168:
000169: 31,2332                                           BANK     31
000170: 30,2000                                           SETLOC   P20S1
000171: 30,2000                                           BANK
000172:
000173: 30,2000  E5,1751                                  EBANK=   LANDMARK
000174: 30,2000                                           COUNT*   $$/P22
000175:
000176: 30,2000           05560        PROG22             TC       DOWNFLAG                              #  RESET RNDVZFLG BIT 7 FLAG 0
000177: 30,2001           00010                           ADRES    RNDVZFLG
000178: 30,2002           04662                           TC       BANKCALL
000179: 30,2003           17653                           CADR     R02BOTH                               #  IMU STATUS CHECK
000180: 30,2004           06006                           TC       INTPRET                               #  COMPUTE ANGLE BETWEEN Y AND VXR SM
000181: 30,2005           77634                           RTB
000182: 30,2006           45510                                    LOADTIME
000183: 30,2007           34041                           STCALL   TDEC1
000184: 30,2010           27114                                    CSMCONIC                              #  INTEGRATE TO PRESENT TIME
000185: 30,2011           47375                           VLOAD    VXV                                   #  CROSS PRODUCT BETWEEN V AND R
000186: 30,2012           00007                                    VATT
000187: 30,2013           00001                                    RATT
000188: 30,2014           50256                           UNIT     DOT
000189: 30,2015           01744                                    REFSMMAT   +6
000190: 30,2016           77646                           ABS
000191: 30,2017           65552                           SL1      ARCCOS
000192: 30,2020           03626                           STORE    +MGA
000193: 30,2021           77414                           CLEAR    EXIT
000194: 30,2022           02676                                    RENDWFLG
000195: 30,2023           32114                           CAF      V06N45B
000196: 30,2024           04662                           TC       BANKCALL
000197: 30,2025           21057                           CADR     GOFLASHR
000198: 30,2026           04106                           TC       GOTOPOOH                              #  TERM P22
000199: 30,2027           02034                           TC       PROG22A                               #  PROC
000200: 30,2030           02023                           TC       -5                                    #  ENTER
000201: 30,2031           36214                           CAF      THREE
000202: 30,2032           05526                           TC       BLANKET                               #  BLANK OUT R1 + R2
000203: 30,2033           05217                           TC       ENDOFJOB
000204: 30,2034           45063        PROG22A            CS       PRIO7                                 #  RESULT=70777  SET OFFSET NO.=0
000205: 30,2035           71751                           MASK     LANDMARK
000206: 30,2036           55751                           TS       LANDMARK
000207: 30,2037           06006                           TC       INTPRET
000208: 30,2040           77614                           CLEAR
000209: 30,2041           01664                                    P22MKFLG
000210: 30,2042           43014                           SET      BOFF
000211: 30,2043           00462                                    ERADFLAG
000212: 30,2044           04343                                    CMOONFLG
000213: 30,2045           60055                                    PROG22B                               #  EARTH
000214: 30,2046           77614                           SET                                            #  MOON
000215: 30,2047           01463                                    LUNAFLAG
000216: 30,2050           45145                           DLOAD    CALL                                  #  MPAC=V05N70,MPAC+1=NONZERO FOR N70
000217: 30,2051           20116                                    V05N7022


000219: 30,2052           60175                                    S22N7071
000220: 30,2053           77650                           GOTO
000221: 30,2054           60062                                    CALLR52
000222: 30,2055           43014        PROG22B            CLEAR    SET                                   #  EARTH ORBIT
000223: 30,2056           01663                                    LUNAFLAG
000224: 30,2057           03067                                    KNOWNFLG
000225: 30,2060           77624                           CALL                                           #  GET LAT/LONG/ALT FROM ASTRO
000226: 30,2061           60143                                    P22SUBRB
000227: 30,2062           77776        CALLR52            EXIT
000228: 30,2063           05372                           TC       2PHSCHNG
000229: 30,2064           00004                           OCT      00004
000230: 30,2065           05022                           OCT      05022
000231: 30,2066           13000                           OCT      13000
000232: 30,2067           35022                           CAF      FIVE
000233: 30,2070           54301                           TS       MARKINDX                              #  SET MARK INDEX=5 FOR R52
000234: 30,2071           05546                           TC       UPFLAG
000235: 30,2072           00025                           ADRES    TARG2FLG                              #  SET FOR SIGHTING LMK
000236: 30,2073           05560                           TC       DOWNFLAG
000237: 30,2074           00024                           ADRES    TARG1FLG                              #  CLEAR FOR NON-LEM
000238: 30,2075           06006                           TC       INTPRET
000239: 30,2076           77624                           CALL
000240: 30,2077           30011                                    R52
000241: 30,2100           45135        DOV5N71            SLOAD    CALL                                  #  MPAC=V05N71,MPAC+1=0 FOR N71
000242: 30,2101           20117                                    V05N7122
000243: 30,2102           60175                                    S22N7071
000244: 30,2103           66744        PROG22C            LXC,2    SLOAD*
000245: 30,2104           01330                                    MARKSTAT
000246: 30,2105           77724                                    QPRET,2
000247: 30,2106           36750                           STCALL   8NN
000248: 30,2107           60312                                    S22.1                                 #  ESTABLISH LANDMARK - COMPUTE ORBITAL
000249: 30,2110           77776        P22OVER            EXIT
000250: 30,2111           05412                           TC       PHASCHNG
000251: 30,2112           04022                           OCT      04022
000252: 30,2113           02034                           TC       PROG22A                               #  POINT A ON GSOP
000253: 30,2114           01455        V06N45B            VN       0645
000254: 30,2115           01306        V05N7022           VN       00570
000255: 30,2116           01307        V05N7122           VN       00571
000256: 37,2000                                           SETLOC   P20S
000257: 37,2000                                           BANK
000258:
000259: 30,2000                                           SETLOC   P20S1
000260: 30,2000                                           BANK
000261:
000262: 30,2117           77634        S22LSITE           RTB                                            #  CONVERT RLS FROM MOON-FIXED TO BASIC REF
000263: 30,2120           45510                                    LOADTIME
000264: 30,2121           24007                           STOVL    6D                                    #  6-7D= TIME
000265: 30,2122           02026                                    RLS
000266: 30,2123           14001                           STODL    0D                                    #  0-5D= LANDING SITE VECTOR
000267: 30,2124           15333                                    HIDPHALF                              #  MPAC= ANY NON-ZERO FOR MOON
000268: 30,2125           77624                           CALL


000270: 30,2126           55344                                    RP-TO-R                               #  RLS IN BASIC REF B-27 IN MPAC
000271: 30,2127           77742                           VSR2                                           #  LUNAFLAG AND ERADFLAG SET ABOVE
000272: 30,2130           02152                           STORE    ALPHAV                                #  SCALE RLS B-29 FOR LAT-LONG
000273: 30,2131           77634                           RTB
000274: 30,2132           45510                                    LOADTIME                              #  SET PRESENT TIME IN MPAC FOR LAT-LONG
000275: 30,2133           77624                           CALL
000276: 30,2134           26370                                    LAT-LONG
000277: 30,2135           77650                           GOTO
000278: 30,2136           03667                                    S22TOFF                               #  EXIT
000279: 30,2137           77624        OBTAINLL           CALL                                           #  GET LAT/LONG/ALT FROM ASTRO
000280: 30,2140           60143                                    P22SUBRB
000281: 30,2141           77650                           GOTO
000282: 30,2142           03667                                    S22TOFF                               #  EXIT
000283: 30,2143           77420        P22SUBRB           STQ      EXIT                                  #  GET LAT/LONG/ALT FROM ASTRO
000284: 30,2144           03670                                    S22TOFF    +1
000285: 30,2145           33644                           CAF      V06N89B
000286: 30,2146           04662                           TC       BANKCALL
000287: 30,2147           20720                           CADR     GOFLASH
000288: 30,2150           04106                           TC       GOTOPOOH                              #  TERMINATE
000289: 30,2151           02153                           TC       +2                                    #  PROCEED
000290: 30,2152           02145                           TC       -5                                    #  ENTER OR RECYCLE
000291: 30,2153           06006                           TC       INTPRET
000292: 30,2154           51545                           DLOAD    ABS                                   #  TEST LAT/LONG GREATER THAN 90
000293: 30,2155           01104                                    LANDLAT
000294: 30,2156           50021                           BDSU     BMN                                   #  1/4 REV - LAT
000295: 30,2157           15325                                    DP1/4TH
000296: 30,2160           60166                                    N89ERRX
000297: 30,2161           51545                           DLOAD    ABS
000298: 30,2162           02360                                    LANDLONG
000299: 30,2163           51021                           BDSU     BPL
000300: 30,2164           15325                                    DP1/4TH
000301: 30,2165           60171                                    +4
000302:
000303: 30,2166           77776        N89ERRX            EXIT
000304: 30,2167           04400                           TC       FALTON
000305: 30,2170           02145                           TC       P22SUBRB   +2                         #  LONG GR. THAN 90  REDISPLAY
000306: 30,2171           77624                           CALL
000307: 30,2172           62374                                    LLASRDA
000308: 30,2173           77650                           GOTO
000309: 30,2174           03670                                    S22TOFF    +1                         #  EXIT
000310: 30,2175           02747        S22N7071           STORE    8KK                                   #  8KK=V05N71,V05N70 8KK+1=0 N71, NOT 0 N70
000311: 30,2176           77420                           STQ      EXIT
000312: 30,2177           03667                                    S22TOFF
000313: 30,2200           31746        S22DSPPA           CA       8KK                                   #  V05N70 OR V05N71
000314: 30,2201           04662                           TC       BANKCALL
000315: 30,2202           21057                           CADR     GOFLASHR
000316: 30,2203           04106                           TC       GOTOPOOH                              #  V34E TERMINATE
000317: 30,2204           02211                           TC       +5                                    #  V33E PROCEED
000318: 30,2205           02200                           TC       -5                                    #  V32E RECYCLE
000319: 30,2206           35022                           CAF      FIVE                                  #  IMMEDIATE RETURN BLANK OUT R1,R3
000320: 30,2207           05526                           TC       BLANKET


000322: 30,2210           05217                           TC       ENDOFJOB
000323: 30,2211           31751                           CA       LANDMARK
000324: 30,2212           75063                           MASK     PRIO7                                 #  07000
000325: 30,2213           55745                           TS       CXOFF                                 #  08000 = OFFSET INDICATOR
000326: 30,2214           45061                           CS       PRIO5                                 #  5 8-5
000327: 30,2215           61745                           AD       CXOFF
000328: 30,2216           00006                           EXTEND
000329: 30,2217           62221                           BZMF     +2                                    #  OFF=0 THRU 5 OK
000330: 30,2220           02233                           TC       S22DSPP                               #  OFF=6,7 ILLEGAL REDISPLAY
000331: 30,2221           05560                           TC       DOWNFLAG
000332: 30,2222           00141                           ADRES    KNOWNFLG                              #  CLEAR KNOWNFLG
000333: 30,2223           31751                           CA       LANDMARK                              #  MASK A FROM ABCDE
000334: 30,2224           77707                           MASK     13,14,15
000335: 30,2225           00006                           EXTEND
000336: 30,2226           62233                           BZMF     S22DSPP                               #  A=0,4,5,6,7  ILLEGAL REDISPLAY
000337: 30,2227           55744                           TS       22SUBSCL                              #  TEMP
000338: 30,2230           45002                           CS       BIT14
000339: 30,2231           61744                           AD       22SUBSCL
000340: 30,2232           10000                           CCS      A
000341: 30,2233           04400        S22DSPP            TC       FALTON                                #  + A=3 ILLEGAL REDISPLAY
000342: 30,2234           02200                           TC       S22DSPPA                              #  COMMON ERROR EXIT BACK TO DISPLAY
000343: 30,2235           02237                           TC       +2                                    #  - A=1 KNOWN LMK  CHECK DE
000344: 30,2236           02263                           TC       S22ABDE                               #  -0 A=2 UNKNOWN LMK, DE MEANINGLESS
000345: 30,2237           05546                           TC       UPFLAG
000346: 30,2240           00141                           ADRES    KNOWNFLG                              #  SET KNOWNFLG
000347: 30,2241           47713                           CS       HIGH9                                 #  RESULT= 00077
000348: 30,2242           71751                           MASK     LANDMARK
000349: 30,2243           55744                           TS       22SUBSCL                              #  000DE
000350: 30,2244           45017                           CS       BIT1
000351: 30,2245           61744                           AD       22SUBSCL
000352: 30,2246           00006                           EXTEND
000353: 30,2247           62263                           BZMF     S22ABDE                               #  DE=0,1 OK FOR BOTH N70,N71
000354: 30,2250           31747                           CA       8KK        +1                         #  =0 FOR N71, NOT =0 FOR N70
000355: 30,2251           00006                           EXTEND
000356: 30,2252           12233                           BZF      S22DSPP                               #  N71 REDISPLAY  DE MUST= 0 OR 1
000357: 30,2253           35013                           CA       BIT5                                  #  N70 TEST DE= 50-57 OCTAL FOR ADV. ORBIT
000358: 30,2254           65033                           AD       OCT50                                 #  SUM=00070
000359: 30,2255           71744                           MASK     22SUBSCL                              #  00D0
000360: 30,2256           40000                           CS       A
000361: 30,2257           65033                           AD       OCT50
000362: 30,2260           00006                           EXTEND
000363: 30,2261           12273                           BZF      DE-GR-50                              #  D=5 OR DE=50-57, OK FOR N70
000364: 30,2262           02233                           TC       S22DSPP                               #  DE NOT 50-57  ILLEGAL, REDISPLAY
000365: 30,2263           06006        S22ABDE            TC       INTPRET
000366: 30,2264           67214                           BOFF     SLOAD
000367: 30,2265           03347                                    KNOWNFLG                              #  UNKNOWN LMK, DE MEANINGLESS
000368: 30,2266           03667                                    S22TOFF
000369: 30,2267           02745                                    22SUBSCL                              #  =0 GET LLA FROM ASTRO, NOT=0 USE RLS
000370: 30,2270           52030                           BHIZ     GOTO
000371: 30,2271           60137                                    OBTAINLL                              #  GET LAT/LONG/ALT FROM ASTRO  N89


000373: 30,2272           60117                                    S22LSITE                              #  GET LAT/LONG/ALT FROM RLS
000374: 30,2273           05372        DE-GR-50           TC       2PHSCHNG
000375: 30,2274           00004                           OCT      00004
000376: 30,2275           05022                           OCT      05022
000377: 30,2276           13000                           OCT      13000
000378: 30,2277           35022                           CA       FIVE
000379: 30,2300           54301                           TS       MARKINDX
000380: 30,2301           05546                           TC       UPFLAG
000381: 30,2302           00025                           ADRES    TARG2FLG
000382: 30,2303           05560                           TC       DOWNFLAG
000383: 30,2304           00024                           ADRES    TARG1FLG
000384: 30,2305           06006                           TC       INTPRET
000385: 30,2306           77624                           CALL
000386: 30,2307           30215                                    ADVORB
000387: 30,2310           77650                           GOTO
000388: 30,2311           60100                                    DOV5N71
000389:


000391:                                                                                                  #  PROGRAM NAME-  OPTICS CALIBRATION ROUTINE
000392:                                                                                                  #  MOD NO-  1
000393:                                                                                                  #  MOD BY-  TOM KNATT
000394:
000395:                                                                                                  #  FUNCTIONAL DESCRIPTION-  TO MEASURE THE EFFECT OF SOLAR RADIATION ON
000396:                                                                                                  #        THE SXT TRUNNION ANGLE AND TO STORE THE MEASURED TRUNNION BIAS FOR P23
000397:
000398:                                                                                                  #  CALLING SEQUENCE-     CALL
000399:                                                                                                  #                                R57
000400:
000401:                                                                                                  #  SUBROUTINES CALLED-  DISPLAY ROUTINES
000402:
000403:                                                                                                  #  NORMAL EXIT MODES-  VIA EGRESS
000404:
000405:                                                                                                  #  ALARMS-  NONE
000406:
000407:                                                                                                  #  ABORT MODES-  P23 ABORT IF MARKING SYSTEM OR EXTENDED VERB ACTIVE
000408:
000409:                                                                                                  #  INPUT-  NONE REQUIRED, NORMALLY CALLED BY P23
000410:
000411:                                                                                                  #  OUTPUT-  TRUNNION BIAS ANGLE- ANGLE DETERMINED WHEN SHAFT LINE OF SIGHT
000412:                                                                                                  #        (SLOS) AND LANDMARK LINE OF SIGHT (LLOS) ARE SUPERIMPOSED.  THIS ANGLE
000413:                                                                                                  #        MAY NOT BE EXACTLY ZERO BECAUSE OF UNEVEN HEATING OF THE OPTICS, FOR
000414:                                                                                                  #        EXAMPLE.
000415:
000416:                                                                                                  #  ERASABLE INITIALIZATION REQUIRED-  MRKBUF1, EXTVBACT
000417:
000418:                                                                                                  #  DEBRIS-  RUPTREGS USED BY MARKRUPT AND ERASABLES USED BY DISPLAYS
000419:
000420: 33,3776                                           BANK     33
000421: 37,2000                                           SETLOC   P20S
000422: 37,2000                                           BANK
000423: 37,2400                                           COUNT*   $$/R57
000424: 37,2400  E7,1725                                  EBANK=   MRKBUF1
000425: 37,2400           77420        R57                STQ      EXIT
000426: 37,2401           02317                                    EGRESS
000427: 37,2402           35060                           CAF      EBANK7
000428: 37,2403           54003                           TS       EBANK
000429: 37,2404           36211                           CAF      SIX                                   #  BIT2 = MARKING SYSTEM IN USE
000430: 37,2405           71044                           MASK     EXTVBACT                              #  BIT3 = EXTENDED VERB IN PROGRESS
000431: 37,2406           10000                           CCS      A
000432: 37,2407           02457                           TC       P23ABRT                               #  SET, THEREFORE ABORT
000433: 37,2410           35016                           CAF      BIT2                                  #  NOT SET
000434: 37,2411           27044                           ADS      EXTVBACT                              #  SET IT
000435: 37,2412           05546        R57A               TC       UPFLAG                                #  SET V59FLAG (BIT 12 FLAG 5) TO INDICATE
000436: 37,2413           00116                           ADRES    V59FLAG                               #  CALIBRATION MARK
000437: 37,2414           32462                           CAF      V59NB
000438: 37,2415           04662                           TC       BANKCALL
000439: 37,2416           20600                           CADR     GOMARKFR
000440: 37,2417           04106                           TC       GOTOPOOH                              #  TERMINATE
000441: 37,2420           02444                           TC       ENDR57
000442: 37,2421           02444                           TC       ENDR57
000443: 37,2422           35023                           CAF      SEVEN


000445: 37,2423           05526                           TC       BLANKET                               #  BLANK OUT R1,R2,R3
000446: 37,2424           05217                           TC       ENDOFJOB
000447:                                                                                                  #  STORE TRUNNION ANGLE (OCDU)
000448: 37,2425           32461        MARKDISP           CAF      V06N87NB
000449: 37,2426           04662                           TC       BANKCALL
000450: 37,2427           20600                           CADR     GOMARKFR
000451: 37,2430           04106                           TC       GOTOPOOH                              #  TERMINATE
000452: 37,2431           02436                           TC       R57B                                  #  PROCEED
000453: 37,2432           02412                           TC       R57A                                  #  ENTER (RECYCLE)
000454: 37,2433           35022                           CAF      FIVE
000455: 37,2434           05526                           TC       BLANKET                               #  BLANK OUT R1,R3
000456: 37,2435           05217                           TC       ENDOFJOB
000457: 37,2436           32464        R57B               CA       19.77DEG                              #  PUT FIXED INTO ERASABLE FOR MSU
000458: 37,2437           54001                           TS       L                                     #  INSTRUCTION COMING UP
000459: 37,2440           31732                           CA       MRKBUF1    +5                         #  CONTAINS TRUNNION
000460: 37,2441           00006                           EXTEND
000461: 37,2442           20001                           MSU      L                                     #  CORRECTS TRUNBIAS FROM 2'S TO 1'S
000462: 37,2443           55342                           TS       TRUNBIAS
000463: 37,2444           05560        ENDR57             TC       DOWNFLAG                              #  RESET V59FLAG
000464: 37,2445           00116                           ADRES    V59FLAG                               #  BIT 12 FLAG 5
000465: 37,2446           35056                           CAF      EBANK5
000466: 37,2447           54003                           TS       EBANK
000467: 37,2450           35066                           CAF      PRIO14
000468: 37,2451           05134                           TC       NOVAC                                 #  THIS JOB CLEARS BIT IN
000469: 37,2452     1330                                  EBANK=   MARKSTAT
000470: 37,2452           05534 04062                     2CADR    ENDMARK                               #  MARKING IN R57 SO R53 CAN TAKE OVER
000471:
000472: 37,2454           06006                           TC       INTPRET
000473: 37,2455           77650                           GOTO
000474: 37,2456           02317                                    EGRESS
000475: 37,2457           07755        P23ABRT            TC       BAILOUT
000476: 37,2460           01211                           OCT      01211
000477: 37,2461           01527        V06N87NB           VN       0687
000478: 37,2462           16600        V59NB              VN       5900
000479: 37,2463           14600        V51NB              VN       5100
000480: 37,2464           61740        19.77DEG           OCT      61740
000481:


000483:                                                                                                  #  PROGRAM DESCRIPTION
000484:                                                                                                  #  MOD NO-  1
000485:                                                                                                  #  MOD BY-  N. BRODEUR
000486:
000487:                                                                                                  #  FUNCTIONAL DESCRIPTION
000488:
000489:                                                                                                  #  TO PERFORM SIGHTING MARKS IN CONJUNCTION WITH THE RENDEZVOUS NAVIG-
000490:                                                                                                  #  ATION PROGRAM.  CALLED BY ASTRONAUT VIA EXTENDED VERB
000491:
000492:                                                                                                  #  CALLING SEQUENCE-
000493:
000494:                                                                                                  #        R21 VIA V57
000495:                                                                                                  #        R23 VIA V 54
000496:
000497:                                                                                                  #  SUBROUTINES CALLED-
000498:
000499:                                                                                                  #        FLAGUP          FLAGDOWN        BANKCALL
000500:                                                                                                  #        ENDOFJOB        GOMARK2         GOMARKF
000501:                                                                                                  #        INTPRET         GENTRAN         KLEENEX
000502:                                                                                                  #        ENDMARK
000503:
000504:                                                                                                  #  NORMAL EXIT MODES-
000505:
000506:                                                                                                  #  MARKRUPT USED BY SXTMARK HAS BEEN MODIFIED TO STORE MARK IN MRKBUF2
000507:                                                                                                  #  FOR USE BY R22.  WHEN ASTRONAUT IS FINISHED TAKING MARKS, HE HITS AN
000508:                                                                                                  #  PROCEED, R21 IS TERMINATED THUS CAUSING THE FINAL MARK TO BE TRANSFRD
000509:                                                                                                  #  TO MRKBUF2 FOR PROCESSING BY R22
000510:
000511:                                                                                                  #  ALARM OR ABORT EXIT MODES-
000512:
000513:                                                                                                  #        NONE
000514:
000515:                                                                                                  #  OUTPUT-
000516:
000517:                                                                                                  #        7 REGISTER MRKBUF2 CONTAINING TIME2,TIME1,CDUY,OPTICS X,CDUZ, OPTICS Y,
000518:                                                                                                  #        CDUX.
000519:
000520:                                                                                                  #  ERASABLE INITIALIZATION REQUIRED
000521:
000522:                                                                                                  #  FLAGS SET AND RESET
000523:                                                                                                  #        R21MARK         (COMMUNICATION TO MARKRUPT TO STORE MARKS IN MRKBUF1 +2)
000524:                                                                                                  #        R23FLG          INDICATES COAS MARKING
000525:
000526:                                                                                                  #  DEBRIS
000527:
000528: 37,2465  E7,1725                                  EBANK=   MRKBUF1
000529: 37,2000                                           SETLOC   RENDEZ
000530: 37,2000                                           BANK
000531:
000532: 37,2465                                           COUNT*   $$/R21
000533:
000534: 37,2465           05546        R21CSM             TC       UPFLAG                                #  SET R21MARK
000535: 37,2466           00037                           ADRES    R21MARK                               #  BIT 14 FLAG 2
000536: 37,2467           37716        R23CSM             CA       NEGONE
000537: 37,2470           55725                           TS       MRKBUF1
000538: 37,2471           55734                           TS       MRKBUF2
000539: 37,2472           30075                           CA       FLAGWRD1
000540: 37,2473           75007                           MASK     R23BIT                                #  TEST R23FLG
000541: 37,2474           00006                           EXTEND
000542: 37,2475           12530                           BZF      R21C1                                 #  NOT SET REGULAR R21 MARKING
000543: 37,2476           32555                           CAF      V0694                                 #  R23 BACKUP MARKING
000544: 37,2477           04662                           TC       BANKCALL                              #  DISPLAY SHAFT + TRUNNION
000545: 37,2500           20561                           CADR     GOMARKF
000546: 37,2501           02547                           TC       R21END                                #  TERM
000547: 37,2502           02504                           TC       +2                                    #  PROC


000549: 37,2503           02476                           TC       -5                                    #  ENTER
000550: 37,2504           32554        R23CSM1            CAF      V53                                   #  PERFORM ALT LOS SIGHT MARK
000551: 37,2505           04662                           TC       BANKCALL
000552: 37,2506           20564                           CADR     GOMARK2
000553: 37,2507           02547                           TC       R21END                                #  V34- TERMINATE R23
000554: 37,2510           12536                           TCF      R21CSMA                               #  PROCEED- END BACK UP MARKING (R23)
000555: 37,2511           36211                           CAF      SIX                                   #  TRANSFER MRKBUF1 TO MRKBUF2
000556: 37,2512           05606                           TC       GENTRAN
000557: 37,2513           01725                           ADRES    MRKBUF1
000558: 37,2514           01734                           ADRES    MRKBUF2
000559: 37,2515           00006                           EXTEND
000560: 37,2516           30025                           DCA      TIME2
000561: 37,2517           53726                           DXCH     MRKBUF1                               #  READ TIME
000562: 37,2520           30033                           CA       CDUY                                  #  READ CDU ANGLES
000563: 37,2521           55727                           TS       MRKBUF1    +2
000564: 37,2522           30034                           CA       CDUZ
000565: 37,2523           55731                           TS       MRKBUF1    +4
000566: 37,2524           30032                           CA       CDUX
000567: 37,2525           55733                           TS       MRKBUF1    +6
000568: 37,2526           00003                           RELINT
000569: 37,2527           02504                           TC       R23CSM1
000570: 37,2530           32463        R21C1              CAF      V51NB
000571: 37,2531           04662                           TC       BANKCALL
000572: 37,2532           20564                           CADR     GOMARK2
000573: 37,2533           02547                           TC       R21END                                #  V34- TERMINATE R21
000574: 37,2534           12536                           TCF      R21CSMA                               #  PROCEED- END R21
000575: 37,2535           12530                           TCF      R21C1                                 #  RECYCLE
000576:
000577: 37,2536           31725        R21CSMA            CA       MRKBUF1                               #  IF -1 NO MARK
000578: 37,2537           65017                           AD       ONE
000579: 37,2540           00006                           EXTEND
000580: 37,2541           12547                           BZF      R21END                                #  ZERO = NO MARK
000581: 37,2542           36211                           CAF      SIX                                   #  MARK THEREFORE TRANSFER IT TO MRKBUF2
000582: 37,2543           05606        R21CSM1            TC       GENTRAN                               #  TRANSFER MRKBUF1 TO MRKBUF2
000583: 37,2544           01725                           ADRES    MRKBUF1
000584: 37,2545           01734                           ADRES    MRKBUF2
000585: 37,2546           00003                           RELINT
000586: 37,2547           04662        R21END             TC       BANKCALL
000587: 37,2550           20560                           CADR     KLEENEX
000588: 37,2551           05560                           TC       DOWNFLAG                              #  RESET R21MARK
000589: 37,2552           00037                           ADRES    R21MARK                               #  BIT 14 FLAG 2
000590: 37,2553           05534                           TC       ENDMARK                               #  END MARKING AND ENDJOB
000591: 37,2554           15200        V53                VN       5300
000592: 37,2555           01536        V0694              VN       0694
000593:


000595:                                                                                                  #  PREFERRED TRACKING ATTITUDE ROUTINE R61CSM
000596:
000597:                                                                                                  #  PROGRAM DESCRIPTION
000598:                                                                                                  #        MOD NO-  2
000599:                                                                                                  #        MOD BY-  N. BRODEUR
000600:
000601:                                                                                                  #  FUNCTIONAL DESCRIPTION-
000602:
000603:                                                                                                  #        TO COMPUTE THE PREFERRED TRACKING ATTITUDE OF THE CSM TO ENABLE OPTICS
000604:                                                                                                  #        TRACKING OF THE LM AND TO PERFORM THE MANEUVER TO THE PREFERRED
000605:                                                                                                  #        OR X-AXIS TRACKING ATTITUDE.
000606:
000607:                                                                                                  #  CALLING SEQUENCE-
000608:
000609:                                                                                                  #        TC      BANKCALL
000610:                                                                                                  #        CADR    R61CSM
000611:
000612:                                                                                                  #  SUBROUTINES CALLED
000613:
000614:                                                                                                  #        MAKECADR        BANKCALL
000615:                                                                                                  #        INTPRET         FLAGUP          FLAGDOWN
000616:                                                                                                  #        BANKJUMP        CRS61.1         R60CSM
000617:                                                                                                  #        PHASCHNG
000618:
000619:                                                                                                  #  NORMAL EXIT MODES-
000620:
000621:                                                                                                  #        NORMAL RETURN IS TO CALLER + 1
000622:
000623:                                                                                                  #  OUTPUT-
000624:
000625:                                                                                                  #        SEE OUTPUT FOR CRS61.1 & ATTITUDE MANEUVER ROUTINE (R60CSM)
000626:
000627:                                                                                                  #  ERASABLE INITIALIZATION REQUIRED
000628:
000629:                                                                                                  #        GENRET USED TO SAVE Q FOR RETURN
000630:                                                                                                  #        R61CNTR MUST BE PRESET TO ZERO
000631:
000632:                                                                                                  #  FLAGS SET + RESET
000633:
000634:                                                                                                  #        3-AXIS FLAG
000635:
000636:                                                                                                  #  DEBRIS
000637:
000638:                                                                                                  #        SEE SUBROUTINES
000639:
000640: 37,2556  E6,1770                                  EBANK=   GENRET
000641: 37,2556                                           COUNT*   $$/R61                                #  ROUTINES - NAVIGATION - PREF. TR. 9TT=
000642:
000643: 37,2556           35057        R61CSM             CAF      EBANK6                                #  SWITCH TO EBANK 6
000644: 37,2557           56003                           XCH      EBANK
000645: 37,2560           55771                           TS       SAVBNK                                #  SAVE EBANK
000646: 37,2561           04711                           TC       MAKECADR
000647: 37,2562           55770                           TS       GENRET
000648: 37,2563           11775                           CCS      R61CNTR                               #  TEST R61CNTR
000649: 37,2564           02615                           TC       DECRM61                               #  NOT READY TO DO R61.
000650: 37,2565           02567                           TC       +2                                    #  DO R61
000651: 37,2566           02616                           TC       DECRM61    +1
000652: 37,2567           06006                           TC       INTPRET
000653: 37,2570           77624                           CALL
000654: 37,2571           71343                                    CRS61.1                               #  LOS DETERMINATION + VEH ATTITUDE
000655: 37,2572           77776                           EXIT
000656: 37,2573           50154                           INDEX    MPAC
000657: 37,2574           02575                           TC       +1
000658: 37,2575           02614                           TC       R61END                                #  SUBROUTINE DRIVING DAP        (EXIT R61)
000659:                                                                                                  #  OR AUTO MODE NOT SET          (EXIT R61)
000660:                                                                                                  #  OR STIKFLAG SET               (EXIT R61)
000661: 37,2576           05560        R61C1              TC       DOWNFLAG                              #  RESET 3-AXIS FLAG
000662: 37,2577           00124                           ADRES    3AXISFLG                              #  BIT 6 FLAG 5


000664: 37,2600           45017                           CS       ONE                                   #  SET R61CNTR NEG. TO INDICATE KALCMANU
000665: 37,2601           55775                           TS       R61CNTR
000666:
000667: 37,2602           05546                           TC       UPFLAG                                #  SET FLAG FOR PROIRITY DISPLAYS FOR R60
000668: 37,2603           00077                           ADRES    PDSPFLAG                              #  BIT 12 FLAG 4
000669: 37,2604           04662                           TC       BANKCALL
000670: 37,2605           56000                           CADR     R60CSM
000671: 37,2606           05560                           TC       DOWNFLAG                              #  RESET FLAG FOR PRIORITY DISPLAYS IN R60
000672: 37,2607           00077                           ADRES    PDSPFLAG                              #  BIT 12 FLAG 4
000673: 37,2610           05412                           TC       PHASCHNG
000674: 37,2611           00111                           OCT      00111
000675: 37,2612           35021                           CAF      ZERO
000676: 37,2613           02615                           TC       DECRM61
000677: 37,2614           36214        R61END             CAF      THREE
000678:
000679: 37,2615           55775        DECRM61            TS       R61CNTR
000680:
000681: 37,2616           31770                           CAE      GENRET
000682: 37,2617           22000                           LXCH     A                                     #  RETURN IS IN L
000683: 37,2620           31771                           CA       SAVBNK                                #  RESTORE EBANK
000684: 37,2621           56003                           XCH      EBANK
000685: 37,2622           22000                           LXCH     A                                     #  RETURN IS NOW BACK IN A
000686: 37,2623           04704                           TC       BANKJUMP                              #  EXIT R61
000687: 13,2231                                           BANK     13
000688: 23,2000                                           SETLOC   P20S2
000689: 23,2000                                           BANK
000690:
000691: 23,3043  E7,1725                                  EBANK=   MRKBUF1


000693:                                                                                                  #  BVECTOR PERFORMS COMPUTATIONS FOR
000694:
000695:                                                                                                  #        DELTAQ, THE MEASURED DEVIATION BASED ON THE DIFFERENCE BETWEEN THE CSM-LE
000696:                                                                                                  #        M STATE VECTOR ESTIMATES AND THE ACTUAL TRACKING MEASUREMENT.
000697:
000698:                                                                                                  #        US, THE MODIFIED FICTITIOUS STAR DIRECTION VECTOR
000699:                                                                                                  #        GEOMETRY VECTOR B ASSOCIATED WITH EACH TRACKING MEASUREMENT.
000700:
000701:                                                                                                  #  INPUT
000702:
000703:                                                                                                  #        UM, 1/2 UNIT VECTOR ALONG THE CSM-LM LINE OF SIGHT (BASIC REF. SYSTEM)
000704:
000705:                                                                                                  #        USTAR, FICTITIOUS STAR DIRECTION (1/2 UNIT VECTOR)
000706:
000707:                                                                                                  #        RCLP, RELATIVE CSM TO LM POSITION VECTOR
000708:
000709:                                                                                                  #  OUTPUT
000710:
000711:                                                                                                  #        USTAR, MODIFIED FICTITOUS STAR DIRECTION (1/2 UNIT VECTOR)
000712:
000713:                                                                                                  #        BVECTOR = 9 DIMENSIONAL BVECTOR (1/2 UNIT VEC.)
000714:
000715:                                                                                                  #        DELTAQ = MEASURED DEVIATION
000716:
000717:                                                                                                  #  CALLING SEQUENCE
000718:
000719:                                                                                                  #        L       CALL BVECTORS
000720:
000721:                                                                                                  #  NORMAL EXIT
000722:
000723:                                                                                                  #        L+1 OF CALLING SEQUENCE
000724:
000725: 23,3043                                           COUNT    23/20SUB
000726:
000727: 23,3043           77620        BVECTORS           STQ
000728: 23,3044           02317                                    EGRESS
000729: 23,3045           53575                           VLOAD    UNIT
000730: 23,3046           03531                                    RCLP                                  #  RELATIVE POSITION VECTOR
000731: 23,3047           14033                           STODL    26D                                   #  RCLP UNIT VEC
000732: 23,3050           00045                                    36D                                   #  RCLP ABS VALUE
000733: 23,3051           25301                           STOVL    TEMPOR1                               #  MOVE TO SAFE LOCATION
000734: 23,3052           01245                                    USTAR
000735: 23,3053           53435                           VXV      UNIT
000736: 23,3054           00033                                    26D                                   #  USTAR = UNIT(US X UCL)
000737: 23,3055           37502                           STCALL   BVECTOR
000738: 23,3056           56750                                    GRP2PC                                #  PHASE CHANGE
000739: 23,3057           77775                           VLOAD
000740: 23,3060           03502                                    BVECTOR
000741: 23,3061           01245                           STORE    USTAR
000742: 23,3062           72441                           DOT      SL1
000743: 23,3063           01235                                    UM                                    #  USTAR DOT UM
000744: 23,3064           45326                           ACOS     DSU
000745: 23,3065           15325                                    DP1/4TH
000746: 23,3066           41301                           NORM     DMP
000747: 23,3067           00047                                    X1
000748: 23,3070           07103                                    PI/4.0
000749: 23,3071           53605                           DMP      SRR*
000750: 23,3072           01301                                    TEMPOR1                               #  RCLP ABS VALUE
000751: 23,3073           21576                                    0          -3,1                       #  ADJUST SCALING
000752: 23,3074           27524                           STOVL    DELTAQ
000753: 23,3075           15335                                    ZEROVECS
000754: 23,3076           03510                           STORE    BVECTOR    +6
000755: 23,3077           03516                           STORE    BVECTOR    +12D
000756: 23,3100           77650                           GOTO


000758: 23,3101           02317                                    EGRESS
000759: 23,3102           31103 36652  PI/4.0             2DEC     .785398164
000760:


000762:                                                                                                  #   GETUM-DETERMINES THE LINE OF SIGHT UNIT VECTOR UM IN THE BASIC REFERENC
000763:                                                                                                  #  E COORDINATE SYSTEM FROM THE OPTICS SHAFT AND TRUNNION ANGLES AND THE IM
000764:                                                                                                  #  U GIMBAL ANGLES.
000765:
000766:                                                                                                  #  INPUT
000767:
000768:                                                                                                  #        MARKDATA, BASE ADDRESS OF MARK DATA
000769:                                                                                                  #        REFSMMAT, ROTATION MATRIX FROM STABLE MEMBER TO BASIC REF. COORD. SYSTEM
000770:
000771:                                                                                                  #  SUBROUTINES CALLED-
000772:
000773:                                                                                                  #        SXTNB - SEXT. ANGULAR READINGS TO NAV. BASE COOR.
000774:                                                                                                  #        NBSM - TRANSFORM FROM NAV. BASE TO STABLE MEMBER
000775:
000776:                                                                                                  #  OUTPUT
000777:
000778:                                                                                                  #        MPAC = LINE OF SIGHT 1/2 UNIT VECTOR IN BASIC REFERENCE SYSTEM
000779:
000780:                                                                                                  #  CALLING SEQUENCE
000781:
000782:                                                                                                  #        L       CALL GETUM
000783:
000784:                                                                                                  #  NORMAL EXIT
000785:
000786:                                                                                                  #        L+1 OF CALLING SEQUENCE
000787:
000788: 23,3104           40220        GETUM              STQ      SETPD
000789: 23,3105           02317                                    EGRESS
000790: 23,3106           00001                                    0
000791: 23,3107           76740                           LXC,1    VLOAD*
000792: 23,3110           01242                                    MARKDATA                              #  CONTAINS ADDRESS OF MARK DATA
000793: 23,3111           00002                                    1,1
000794: 23,3112           23676                           STODL*   MARKDOWN   +1                         #  TRANSFER DATA FROM WORKING STORAGE
000795: 23,3113           00001                                    0,1                                   #  TO MARKDOWN ARRAY FOR DOWNLINK
000796: 23,3114           03675                           STORE    MARKDOWN
000797: 23,3115           77774                           AXT,2
000798: 23,3116           00002                                    2
000799: 23,3117           67064                           XSU,2    SXA,2
000800: 23,3120           00046                                    X1                                    #  X1 = MARKDATA
000801: 23,3121           00050                                    S1                                    #  S1 = MARKDATA(ADR) +2
000802: 23,3122           77624                           CALL
000803: 23,3123           46000                                    SXTNB                                 #  SEXT. ANGULAR READINGS TO NAV. BASE COOR.
000804: 23,3124           77624                           CALL
000805: 23,3125           47606                                    NBSM                                  #  TRANSFORM FROM NAV. BASE TO STABLE MEM.
000806: 23,3126           76505                           VXM      VSL1
000807: 23,3127           01736                                    REFSMMAT
000808: 23,3130           77650                           GOTO                                           #  MPAC = (UM) LINE OF SIGHT VECTOR
000809: 23,3131           02317                                    EGRESS                                #  EXIT
000810:


000812:                                                                                                  #  RENDEZVOUS TRACKING DATA PROCESSING ROUTINE (R22)
000813:
000814:                                                                                                  #  PURPOSE       (1) TO PROCESS RENDEZVOUS SIGHTING MARK DATA TO UPDATE THE STATE VECTOR OF EITHER THE CSM OR LM AS
000815:                                                                                                  #                DEFINED BY THE RENDEZVOUS NAVIGATION PROGRAM (P20).
000816:
000817:                                                                                                  #  ASSUMPTIONS   (1) THIS ROUTINE IS MANUALLY SELECTED BY THE ASTRONAUT BY V55E WHENEVER RENDEZVOUS SIGHTING MARKS
000818:                                                                                                  #                ARE DESIRED.  ITS SELECTION HOWEVER IS LIMITED TO PERIODS WHEN THE CMC IS HOLDING FOR A V/N FLASHING
000819:                                                                                                  #                DATA DISPLAY.  THIS ROUTINE RETURNS TO THE ORIGINAL PROGRAM AT THE INTERRUPTED DISPLAY.
000820:
000821: 34,2630                                           BANK     34
000822: 34,2000                                           SETLOC   P20S3
000823: 34,2000                                           BANK
000824:
000825: 34,2630                                           COUNT    34/R22
000826:
000827: 34,2630           37663        R22                CAF      PRIO26
000828: 34,2631           55056                           TS       PHSPRDT2
000829: 34,2632           05210                           TC       PRIOCHNG
000830: 34,2633           37714                           CA       NEG3
000831: 34,2634           55734                           TS       MRKBUF2
000832: 34,2635           06006                           TC       INTPRET
000833: 34,2636           77634                           RTB
000834: 34,2637           45510                                    LOADTIME
000835: 34,2640           01152                           STORE    VHFTIME                               #  PRESENT TIME
000836: 34,2641           77624        REND1              CALL
000837: 34,2642           56750                                    GRP2PC
000838: 34,2643           77624                           CALL
000839: 34,2644           56404                                    WAITONE
000840: 34,2645           77776        REND1A             EXIT
000841: 34,2646           31734                           CA       MRKBUF2
000842: 34,2647           00006                           EXTEND
000843: 34,2650           12653                           BZF      REND2
000844: 34,2651           00006                           EXTEND
000845: 34,2652           62672                           BZMF     REND3A
000846: 34,2653           36211        REND2              CAF      SIX
000847: 34,2654           05606                           TC       GENTRAN
000848: 34,2655           01734                           ADRES    MRKBUF2
000849: 34,2656           01224                           ADRES    MARKTIME                              #  MARKTIME MUST BE CONTIGUOUS WITH VTEMP
000850: 34,2657           37714                           CAF      NEG3                                  #  NEG VALUE TO INDICATE VALUES USED
000851: 34,2660           55734                           TS       MRKBUF2
000852: 34,2661           00003                           RELINT
000853: 34,2662           06006                           TC       INTPRET
000854: 34,2663           45014                           CLEAR    CALL
000855: 34,2664           04667                                    SOURCFLG                              #  0 = OPTICS DATA
000856: 34,2665           56750                                    GRP2PC                                #  PHASE CHANGE
000857: 34,2666           52131                           SSP      GOTO
000858: 34,2667           01243                                    MARKDATA
000859: 34,2670           01224                           ECADR    VTEMP      -2
000860: 34,2671           70715                                    REND4
000861: 34,2672           06006        REND3A             TC       INTPRET
000862: 34,2673           77624        REND3              CALL


000864: 34,2674           56750                                    GRP2PC
000865: 34,2675           77624                           CALL
000866: 34,2676           56404                                    WAITONE
000867: 34,2677           77614                           BOFF
000868: 34,2700           04746                                    VHFRFLAG
000869: 34,2701           70645                                    REND1A
000870: 34,2702           77634                           RTB
000871: 34,2703           45510                                    LOADTIME                              #  PRESENT TIME
000872: 34,2704           45225                           DSU      DSU
000873: 34,2705           14650                                    60SECDP                               #  1 MIN
000874: 34,2706           01152                                    VHFTIME                               #  LAST READING OF RADAR
000875: 34,2707           45040                           BMN      CALL
000876: 34,2710           70645                                    REND1A
000877: 34,2711           56415                                    RANGERD                               #  READ RADAR RANGE
000878: 34,2712           77745                           DLOAD
000879: 34,2713           01225                                    MARKTIME
000880: 34,2714           01152                           STORE    VHFTIME                               #  FOR DOWNLINK
000881: 34,2715           77624        REND4              CALL
000882: 34,2716           56343                                    SETINTG                               #  SET INTEGRV FLAGS
000883: 34,2717           45014                           BON      CALL
000884: 34,2720           00707                                    VEHUPFLG
000885: 34,2721           71152                                    CSMUPP                                #  BRANCH IF CSM UPDATE
000886: 34,2722           27162                                    INTEGRV
000887: 34,2723           77624                           CALL
000888: 34,2724           56750                                    GRP2PC                                #  PHASE CHANGE
000889: 34,2725           77624                           CALL
000890: 34,2726           56343                                    SETINTG                               #  SET INTEGRV FLAGS
000891: 34,2727           77614                           CLEAR
000892: 34,2730           01674                                    VINTFLAG                              #  SET INTEGRATION VEHICLE TO LM
000893: 34,2731           43014        REND5              BOFF     SET
000894: 34,2732           02756                                    RENDWFLG
000895: 34,2733           70735                                    REND5A                                #  DO NOT INTEGRATE W IF FLAG = 0
000896: 34,2734           01476                                    DIM0FLAG
000897: 34,2735           77624        REND5A             CALL
000898: 34,2736           27162                                    INTEGRV
000899: 34,2737           77624                           CALL
000900: 34,2740           56547                                    SHIFTNDX                              #  SET EARTH MOON SCALING INDEX
000901: 34,2741           77624                           CALL
000902: 34,2742           71241                                    CMPOS                                 #  SET CSM POSITION
000903: 34,2743           45014                           SET      CALL
000904: 34,2744           02464                                    INCORFLG                              #  SET FOR 1ST PASS
000905: 34,2745           71250                                    LMPOS                                 #  SET LM POSITION
000906: 34,2746           43014                           CLEAR    BON
000907: 34,2747           01671                                    ORBWFLAG                              #  CLEAR FOR ORBITAL AND CISLUNAR
000908: 34,2750           02716                                    RENDWFLG
000909: 34,2751           70761                                    REND6
000910: 34,2752           77745                           DLOAD
000911: 34,2753           02001                                    WRENDPOS
000912: 34,2754           34001                           STCALL   0                                     #  0 = WRENDPOS  1 = WRENDVEL
000913: 34,2755           56565                                    INITIALW                              #  INITIALIZE W MATRIX


000915: 34,2756           77745                           DLOAD
000916: 34,2757           15335                                    ZEROVECS
000917: 34,2760           01126                           STORE    VHFCNT                                #  ZERO OUT VHFCNT AND TRKMKCNT
000918: 34,2761           77614        REND6              SET
000919: 34,2762           02476                                    RENDWFLG
000920: 34,2763           52375                           VLOAD    VSU
000921: 34,2764           01215                                    LEMPOS
000922: 34,2765           01207                                    CSMPOS
000923: 34,2766           03531                           STORE    RCLP                                  #  LM - CSM
000924: 34,2767           43056        REND7              UNIT     BON
000925: 34,2770           04707                                    SOURCFLG
000926: 34,2771           71163                                    REND14                                #  BRANCH IF DATA IS RADAR
000927: 34,2772           01273                           STORE    UCL
000928: 34,2773           45014                           BOFF     CALL
000929: 34,2774           02744                                    INCORFLG
000930: 34,2775           71007                                    REND9
000931: 34,2776           47104                                    GETUM                                 #  CALCULATE UM LINE OF SIGHT
000932: 34,2777           25235                           STOVL    UM
000933: 34,3000           01273                                    UCL
000934: 34,3001           40035                           VXV      BOV
000935: 34,3002           01235                                    UM                                    #  UCL X UM
000936: 34,3003           71004                                    REND8
000937: 34,3004           40056        REND8              UNIT     BOV
000938: 34,3005           70673                                    REND3                                 #  BRANCH IF OVERFLOW IGNORE MARK
000939: 34,3006           01245                           STORE    USTAR
000940: 34,3007           77624        REND9              CALL
000941: 34,3010           47043                                    BVECTORS
000942: 34,3011           77214                           BON      VLOAD
000943: 34,3012           00707                                    VEHUPFLG
000944: 34,3013           71017                                    REND9A
000945: 34,3014           03502                                    BVECTOR
000946: 34,3015           77676                           VCOMP
000947: 34,3016           03502                           STORE    BVECTOR
000948: 34,3017           77624        REND9A             CALL
000949: 34,3020           56750                                    GRP2PC
000950: 34,3021           77614                           BON
000951: 34,3022           00706                                    R23FLG
000952: 34,3023           71214                                    REND15                                #  BRANCH IF BACKUP OPTICS (R23 WORKING)
000953: 34,3024           43345                           DLOAD    DAD
000954: 34,3025           31336                                    SXTVAR
000955: 34,3026           31340                                    IMUVAR
000956: 34,3027           27526        REND10             STOVL    VARIANCE                              #  TEMP STORAGE FOR VARIANCE CALC.
000957: 34,3030           03531                                    RCLP
000958: 34,3031           60246                           ABVAL    NORM
000959: 34,3032           00047                                    X1
000960: 34,3033           41316                           DSQ      DMP
000961: 34,3034           03526                                    VARIANCE
000962: 34,3035           45070                           XAD,1    CALL
000963: 34,3036           00046                                    X1
000964: 34,3037           56547                                    SHIFTNDX                              #  GET EARTH MOON SCALING INDEX


000966: 34,3040           56070                           XAD,1    XAD,1
000967: 34,3041           00047                                    X2
000968: 34,3042           00047                                    X2
000969: 34,3043           72257                           SR*      TLOAD
000970: 34,3044           20577                                    0          -2,1                       #  ADJUST SCALING TO B-40
000971: 34,3045           00155                                    MPAC
000972: 34,3046           03526                           STORE    VARIANCE
000973: 34,3047           54335                           SLOAD    SR
000974: 34,3050           02400                                    INTVAR                                #  INTEGRATION VARIANCE SCALED B-15
000975: 34,3051           20632                                    25D                                   #  SCALE IT B-40
000976: 34,3052           47171                           TAD      RTB
000977: 34,3053           03526                                    VARIANCE
000978: 34,3054           45565                                    TPMODE
000979: 34,3055           03526                           STORE    VARIANCE
000980: 34,3056           76214                           BOFF     TAD
000981: 34,3057           04747                                    SOURCFLG                              #  BRANCH IF NOT VHF RADAR
000982: 34,3060           71067                                    REND10A
000983: 34,3061           03005                                    RVARMIN                               #  VHF RADAR MIN. VARIANCE
000984: 34,3062           72244                           BPL      TLOAD
000985: 34,3063           71067                                    REND10A
000986: 34,3064           03005                                    RVARMIN
000987: 34,3065           77646                           ABS                                            #  MIN. VALUE WAS STORED AS NEG.
000988: 34,3066           03526                           STORE    VARIANCE                              #  STORE MIN. VALUE
000989: 34,3067           45014        REND10A            CLEAR    CALL
000990: 34,3070           02666                                    DMENFLG                               #  CLEAR FOR 6 X 6 W MATRIX
000991: 34,3071           75242                                    INCORP1                               #  CALCULATE UPDATE
000992: 34,3072           77624                           CALL
000993: 34,3073           56750                                    GRP2PC
000994: 34,3074           45014                           BOFF     CALL
000995: 34,3075           02744                                    INCORFLG
000996: 34,3076           71124                                    REND12
000997: 34,3077           56547                                    SHIFTNDX                              #  GET EARTH MOON SCALING INDEX
000998: 34,3100           51575                           VLOAD    ABVAL
000999: 34,3101           01265                                    DELTAX     +6
001000: 34,3102           77657                           SR*
001001: 34,3103           57176                                    0,2
001002: 34,3104           27504                           STOVL    N49DISP    +2
001003: 34,3105           01257                                    DELTAX
001004: 34,3106           53646                           ABVAL    SR*
001005: 34,3107           57176                                    0,2
001006: 34,3110           03502                           STORE    N49DISP
001007: 34,3111           77735                           SLOAD
001008: 34,3112           02003                                    RMAX
001009: 34,3113           45261                           SR       DSU
001010: 34,3114           20613                                    10D
001011: 34,3115           03502                                    N49DISP
001012: 34,3116           67240                           BMN      SLOAD
001013: 34,3117           71257                                    RENDISP                               #  BRANCH IF POS UP. GREATER THAN MAX.
001014: 34,3120           02004                                    VMAX
001015: 34,3121           50025                           DSU      BMN


001017: 34,3122           03504                                    N49DISP    +2
001018: 34,3123           71257                                    RENDISP                               #  BRANCH IF VEL. UPDATE GREATER THAN MAX.
001019: 34,3124           77624        REND12             CALL
001020: 34,3125           75454                                    INCORP2                               #  INCORPORATE UPDATE VALUES INTO STATE VEC
001021: 34,3126           43014                           BON      BOFF
001022: 34,3127           04707                                    SOURCFLG
001023: 34,3130           71221                                    REND16                                #  BRANCH IF DATA IS RADAR
001024: 34,3131           02744                                    INCORFLG
001025: 34,3132           71227                                    REND17
001026: 34,3133           77624                           CALL
001027: 34,3134           56547                                    SHIFTNDX                              #  GET EARTH MOON SCALING INDEX
001028: 34,3135           45014                           BON      CALL
001029: 34,3136           00707                                    VEHUPFLG
001030: 34,3137           71235                                    REND18                                #  BRANCH IF CSM UPDATE
001031: 34,3140           71250                                    LMPOS                                 #  GET LM POSITION
001032: 34,3141           77624        REND13             CALL
001033: 34,3142           56750                                    GRP2PC                                #  PHASE CHANGE
001034: 34,3143           52375                           VLOAD    VSU
001035: 34,3144           01215                                    LEMPOS
001036: 34,3145           01207                                    CSMPOS
001037: 34,3146           03531                           STORE    RCLP                                  #  LM - CSM
001038: 34,3147           77614                           CLRGO
001039: 34,3150           02624                                    INCORFLG
001040: 34,3151           70767                                    REND7                                 #  BRANCH FOR 2ND PASS THIS OPTICS MARK
001041: 34,3152           45014        CSMUPP             CLEAR    CALL
001042: 34,3153           01674                                    VINTFLAG                              #  SET INTEGRATION VEHICLE EQ LM
001043: 34,3154           27162                                    INTEGRV
001044: 34,3155           77624                           CALL
001045: 34,3156           56750                                    GRP2PC                                #  PHASE CHANGE
001046: 34,3157           77624                           CALL
001047: 34,3160           56343                                    SETINTG                               #  SET FLAGS FOR INTEGRATION
001048: 34,3161           77650                           GOTO
001049: 34,3162           70731                                    REND5
001050: 34,3163           27502        REND14             STOVL    BVECTOR                               #  VHF RADAR BVECTOR
001051: 34,3164           15335                                    ZEROVECS
001052: 34,3165           03510                           STORE    BVECTOR    +6
001053: 34,3166           27516                           STOVL    BVECTOR    +12D
001054: 34,3167           03531                                    RCLP
001055: 34,3170           71256                           UNIT     DLOAD
001056: 34,3171           01257                                    VHFRANGE                              #  VHFRANGE SCALED B-27
001057: 34,3172           60414                           BON      SR2
001058: 34,3173           04303                                    MOONTHIS
001059: 34,3174           71175                                    +1
001060: 34,3175           43025                           DSU      SET
001061: 34,3176           00045                                    36D                                   #  ABVAL (RCLP)
001062: 34,3177           02464                                    INCORFLG
001063: 34,3200           03524                           STORE    DELTAQ
001064: 34,3201           77214                           BOFF     VLOAD
001065: 34,3202           00747                                    VEHUPFLG
001066: 34,3203           71207                                    REND14A


001068: 34,3204           03502                                    BVECTOR
001069: 34,3205           77676                           VCOMP
001070: 34,3206           03502                           STORE    BVECTOR
001071: 34,3207           77624        REND14A            CALL
001072: 34,3210           56750                                    GRP2PC
001073: 34,3211           52145                           DLOAD    GOTO
001074: 34,3212           03003                                    RVAR
001075: 34,3213           71027                                    REND10
001076: 34,3214           43335        REND15             SLOAD    DAD                                   #  GET ALT LOS VARIANCE
001077: 34,3215           01357                                    ALTVAR                                #  BACKUP OPTICS
001078: 34,3216           31340                                    IMUVAR                                #  IMU VARIANCE
001079: 34,3217           77650                           GOTO
001080: 34,3220           71027                                    REND10
001081: 34,3221           62150        REND16             LXA,1    INCR,1
001082: 34,3222           01125                                    VHFCNT                                #  VHF RADAR UPDATE COUNT
001083: 34,3223           00001                           DEC      1          B-14
001084: 34,3224           52130                           SXA,1    GOTO
001085: 34,3225           01125                                    VHFCNT                                #  UPDATE COUNT
001086: 34,3226           70641                                    REND1
001087: 34,3227           62150        REND17             LXA,1    INCR,1
001088: 34,3230           01126                                    TRKMKCNT                              #  OPTICS MARK COUNT
001089: 34,3231           00001                           DEC      1          B-14
001090: 34,3232           52130                           SXA,1    GOTO
001091: 34,3233           01126                                    TRKMKCNT                              #  UPDATE COUNT
001092: 34,3234           70673                                    REND3
001093: 34,3235           77624        REND18             CALL
001094: 34,3236           71241                                    CMPOS                                 #  GET CSM POSITION
001095: 34,3237           77650                           GOTO
001096: 34,3240           71141                                    REND13
001097: 34,3241           53775        CMPOS              VLOAD    VSR*
001098: 34,3242           01573                                    DELTACSM
001099: 34,3243           57167                                    7,2
001100: 34,3244           77655                           VAD
001101: 34,3245           01607                                    RCVCSM
001102: 34,3246           01207                           STORE    CSMPOS                                #  CSM POSITION SCALED B-27 OR B-29
001103: 34,3247           77616                           RVQ
001104: 34,3250           53775        LMPOS              VLOAD    VSR*
001105: 34,3251           01645                                    DELTALEM
001106: 34,3252           57167                                    7,2
001107: 34,3253           77655                           VAD
001108: 34,3254           01661                                    RCVLEM
001109: 34,3255           01215                           STORE    LEMPOS                                #  LM POSITION SCALED B-27 OR B-29
001110: 34,3256           77616                           RVQ
001111: 34,3257           77776        RENDISP            EXIT
001112: 34,3260           30105                           CA       FLAGWRD9
001113: 34,3261           75010                           MASK     SOURCBIT
001114: 34,3262           00006                           EXTEND
001115: 34,3263           13266                           BZF      +3
001116: 34,3264           35016                           CA       BIT2
001117: 34,3265           03267                           TC       +2


001119: 34,3266           35017                           CA       BIT1
001120: 34,3267           55505                           TS       N49DISP    +4
001121: 34,3270           35021                           CAF      ZERO                                  #  SET TEMPOR1 > ZERO TO INDICATE
001122: 34,3271           55300                           TS       TEMPOR1                               #  V06 N49 DISPLAY HASNT BEEN ANSWERED
001123: 34,3272           05412                           TC       PHASCHNG
001124: 34,3273           04022                           OCT      04022
001125: 34,3274           37664                           CAF      PRIO27                                #  SET UP DISPLAY JOB WITH HIGHER PRIORITY
001126: 34,3275           05134                           TC       NOVAC
001127: 34,3276  E7,1725                                  EBANK=   MRKBUF1                               #  THAN PRESENT JOB
001128: 34,3276           03310 70067                     2CADR    RENDISP2
001129:
001130: 34,3300           06006        RENDISP7           TC       INTPRET
001131: 34,3301           00155                           STORE    MPAC
001132: 34,3302           53135                           SLOAD    BZE
001133: 34,3303           01301                                    TEMPOR1
001134: 34,3304           71301                                    RENDISP7   +1                         #  DISPLAY HAS NOT BEEN ANSWERED YET
001135: 34,3305           52040                           BMN      GOTO
001136: 34,3306           71124                                    REND12                                #  NEG INDICATES PROCEED
001137: 34,3307           71317                                    RENDISP3                              #  POS INDICATES RECYCLE
001138: 34,3310           33341        RENDISP2           CAF      V06N49
001139: 34,3311           04662                           TC       BANKCALL
001140: 34,3312           20731                           CADR     PRIODSP
001141: 34,3313           04622                           TC       GOTOV56                               #  TERM EXIT P20 VIA V56
001142: 34,3314           45017                           CS       ONE                                   #  NEG INDICATES PROCEED RENDISP7 JOB
001143: 34,3315           55300                           TS       TEMPOR1                               #  POS INDICATES RECYCLE RENDISP7 JOB
001144: 34,3316           05217                           TC       ENDOFJOB                              #  GO COMPLETE ABOVE JOB
001145: 34,3317           77614        RENDISP3           BON
001146: 34,3320           04707                                    SOURCFLG
001147: 34,3321           70641                                    REND1                                 #  DATA WAS RADAR GO LOOK FOR OPTICS NEXT
001148: 34,3322           77776                           EXIT
001149: 34,3323  E7,1725                                  EBANK=   MRKBUF1
001150: 34,3323           00004                           INHINT
001151: 34,3324           33342                           CAF      BUFBANK
001152: 34,3325           54006                           TS       BBANK
001153: 34,3326           37716                           CA       NEGONE
001154: 34,3327           55725                           TS       MRKBUF1                               #  ERASE MARK ONE BUFFER
001155: 34,3330           55734                           TS       MRKBUF2                               #  ERASE MARK TWO BUFFER
001156: 34,3331           00003                           RELINT
001157: 34,3332           06006        RENDISP4           TC       INTPRET
001158: 34,3333           77650                           GOTO
001159: 34,3334           70673                                    REND3
001160: 34,3335           00052 36307  SXTVAR             2DEC     0.04       E-6        B+16            #  SXT ERROR VARIANCE = .04 (MR)SQ
001161: 34,3337           00052 36307  IMUVAR             2DEC     0.04       E-6        B+16            #  IMU ERROR VARIANCE = .04 (MR)SQ
001162: 34,3341           01461        V06N49             VN       0649
001163: 34,3342  E7,1725                                  EBANK=   MRKBUF1
001164: 34,3342           70067        BUFBANK            BBCON    RENDISP3
001165: 31,2332                                           BANK     31
001166: 27,2000                                           SETLOC   R22S1


001168: 27,2000                                           BANK
001169: 27,2343           45020        SETINTG            STQ      CALL
001170: 27,2344           02317                                    EGRESS
001171: 27,2345           27442                                    INTSTALL                              #  RESERVE INTEGRATION
001172: 27,2346           43145                           DLOAD    SET
001173: 27,2347           01225                                    MARKTIME
001174: 27,2350           01472                                    STATEFLG
001175: 27,2351           00041                           STORE    TDEC1                                 #  MARKTIME
001176: 27,2352           43014                           CLEAR    CLEAR
001177: 27,2353           01673                                    INTYPFLG                              #  PRECISION INTEGRATION
001178: 27,2354           01676                                    DIM0FLAG
001179: 27,2355           43014                           SET      CLRGO
001180: 27,2356           01474                                    VINTFLAG                              #  SET VEHICLE EQ. CSM
001181: 27,2357           01635                                    D6OR9FLG                              #  SET W MATRIX DIM. EQ 6
001182: 27,2360           02317                                    EGRESS                                #  EXIT
001183: 27,2361           77620        CNTCHK             STQ
001184: 27,2362           01150                                    POINTEX
001185: 27,2363           77614        CONTCHK            BOFF
001186: 27,2364           01742                                    REFSMFLG                              #  BRANCH TO END OF JOB IF REFSMMAT NO GOOD
001187: 27,2365           30156                                    ENDPLAC
001188: 27,2366           50135                           SLOAD    BMN
001189: 27,2367           03376                                    R61CNTR
001190: 27,2370           56406                                    WAITONE1
001191: 27,2371           43014                           BON      BOFF                                  #  IS TRACK FLAG SET
001192: 27,2372           00710                                    UPDATFLG
001193: 27,2373           01150                                    POINTEX
001194: 27,2374           00752                                    TRACKFLG
001195: 27,2375           30156                                    ENDPLAC
001196: 27,2376           77776                           EXIT
001197: 27,2377           05412        REDOR22            TC       PHASCHNG
001198: 27,2400           00132                           OCT      00132
001199: 27,2401           37663                           CAF      PRIO26
001200: 27,2402           05210                           TC       PRIOCHNG
001201: 27,2403           02407                           TC       WAITONE    +3
001202: 27,2404           77620        WAITONE            STQ
001203: 27,2405           01150                                    POINTEX
001204: 27,2406           77776        WAITONE1           EXIT
001205: 27,2407           35045                           CAF      4SECS                                 #  WAIT 4 SECS.
001206: 27,2410           04662                           TC       BANKCALL
001207: 27,2411           01732                           CADR     DELAYJOB
001208: 27,2412           06006                           TC       INTPRET
001209: 27,2413           77650                           GOTO
001210: 27,2414           56363                                    CONTCHK                               #  CHECK AGAIN NOW
001211: 27,2415           77776        RANGERD            EXIT
001212: 27,2416           00004                           INHINT
001213: 27,2417           42500                           CS       OCT17
001214: 27,2420           00006                           EXTEND
001215: 27,2421           03013                           WAND     CHAN13                                #  ZERO OUT BITS 1-4 OF CHANNEL 13
001216: 27,2422           34334                           CAF      OCT11
001217: 27,2423           00006                           EXTEND


001219: 27,2424           05013                           WOR      CHAN13                                #  GENERATE SHIFT PULSES TO RADR, SET R. BIT
001220: 27,2425           00003                           RELINT
001221: 27,2426           00006                           EXTEND
001222: 27,2427           30025                           DCA      TIME2
001223: 27,2430           53225                           DXCH     MARKTIME                              #  READ PRESENT TIME
001224: 27,2431           05560                           TC       DOWNFLAG
001225: 27,2432           00043                           ADRES    SKIPVHF                               #  CLEAR VHF RESTART FLAG
001226: 27,2433           04662                           TC       BANKCALL
001227: 27,2434           17575                           CADR     RADSTALL                              #  WAIT FOR RANGE COMPLETE
001228: 27,2435           02464                           TC       LIGHTON                               #  BAD DATA GOOD BIT
001229: 27,2436           05631                           TC       TRFAILOF                              #  TURN TRACKER LIGHT OFF
001230: 27,2437           11703        RANGERD1           CCS      RM                                    #  15 BIT UNSIGNED RANGE
001231: 27,2440           02444                           TC       RANGERD4                              #  GR + 0
001232: 27,2441           02470                           TC       LIGHTON    +4                         #  = + 0
001233: 27,2442           02453                           TC       RANGERD3                              #  L - 0
001234: 27,2443           02453                           TC       RANGERD3                              #  = - 0
001235: 27,2444           06006        RANGERD4           TC       INTPRET
001236: 27,2445           41335                           SLOAD    DMP
001237: 27,2446           03704                                    RM
001238: 27,2447           16503                                    CONVRNGE                              #  CONVERT RANGE TO METERS B-27
001239: 27,2450           01257        RANGERD2           STORE    VHFRANGE
001240: 27,2451           43414                           SET      RVQ
001241: 27,2452           04467                                    SOURCFLG                              #  SOURCE OF DATA TO VHF RADAR
001242: 27,2453           31703        RANGERD3           CA       RM
001243: 27,2454           74777                           MASK     POSMAX
001244: 27,2455           54154                           TS       MPAC                                  #  MASK OUT NEG. SIGN BIT
001245: 27,2456           06006                           TC       INTPRET
001246: 27,2457           77605                           DMP
001247: 27,2460           16503                                    CONVRNGE                              #  CONVERT FROM NM TO METERS AND SCALE B-27
001248: 27,2461           52015                           DAD      GOTO
001249: 27,2462           16477                                    RANGEB14                              #  VALUE IN METERS OF SIGN BIT SCALED B-27
001250: 27,2463           56450                                    RANGERD2
001251: 27,2464           31256        LIGHTON            CA       VHFRANGE
001252: 27,2465           00006                           EXTEND
001253: 27,2466           12470                           BZF      +2
001254: 27,2467           05643                           TC       TRFAILON
001255: 27,2470           06006                           TC       INTPRET
001256: 27,2471           77745                           DLOAD
001257: 27,2472           01225                                    MARKTIME
001258: 27,2473           01152                           STORE    VHFTIME
001259: 27,2474           77650                           GOTO
001260: 27,2475           70641                                    REND1
001261: 27,2476           00045 01217  RANGEB14           2DEC     303431.7   B-27                       #  16384 X 18.52 SCALED B-27
001262: 27,2500           00017        OCT17              OCT      00017
001263: 27,2501           40200        OC40200            OCT      40200
001264: 27,2502           00045 01217  CONVRNGE           2DEC     18.52      B-13                       #  VHF INPUT RANGE CONV. FROM .01 NM TO M
001265:
001266: 27,2504           00006        VHFREAD            EXTEND
001267: 27,2505           04007                           ROR      SUPERBNK                              #  MUST SAVE SBANK BECAUSE OF RUPT


001269: 27,2506           54016                           TS       BANKRUPT                              #  EXITS VIA TASKOVER BADEND OR GOODEND
001270: 27,2507           45021                           CS       ZERO
001271: 27,2510           54734                           TS       RUPTAGN
001272: 27,2511           00006                           EXTEND
001273: 27,2512           22012                           QXCH     QRUPT
001274: 27,2513           40076                           CS       STATE      +2
001275: 27,2514           75006                           MASK     SKIPVBIT                              #  SKIPVHF FLAG
001276: 27,2515           00006                           EXTEND
001277: 27,2516           15324                           BZF      TASKOVER                              #  BRANCH IF VHF RESTART BIT SET
001278: 27,2517           35011                           CAF      UPDATBIT
001279: 27,2520           70075                           MASK     STATE      +1                         #  UPDATEFLG
001280: 27,2521           00006                           EXTEND
001281: 27,2522           12542                           BZF      BYPASS1
001282: 27,2523           40100                           CS       STATE      +4
001283: 27,2524           75004                           MASK     PDSPFBIT                              #  PDSPFLAG
001284: 27,2525           00006                           EXTEND
001285: 27,2526           12542                           BZF      BYPASS1
001286: 27,2527           30046                           CA       RNRAD
001287: 27,2530           55703                           TS       RM                                    #  SAVE RANGE
001288: 27,2531           35016                           CAF      BIT2
001289: 27,2532           00006                           EXTEND
001290: 27,2533           02033                           RAND     CHAN33                                #  READ DATA GOOD BIT
001291: 27,2534           00006                           EXTEND
001292: 27,2535           12544                           BZF      VHFGOOD                               #  BRANCH IF DATA GOOD BIT EQUALS GOOD
001293: 27,2536           55256        BYPASS             TS       VHFRANGE                              #  STORE NON ZERO VALUE
001294: 27,2537           35016                           CAF      TWO
001295: 27,2540           04701                           TC       POSTJUMP
001296: 27,2541           17545                           CADR     BADEND
001297: 27,2542           35021        BYPASS1            CAF      ZERO
001298: 27,2543           02536                           TC       BYPASS
001299: 27,2544           35016        VHFGOOD            CAF      TWO
001300: 27,2545           04701                           TC       POSTJUMP
001301: 27,2546           17550                           CADR     GOODEND
001302: 27,2547           43174        SHIFTNDX           AXT,2    BON
001303: 27,2550           00000                                    0
001304: 27,2551           00707                                    VEHUPFLG
001305: 27,2552           56560                                    SHIFTA                                #  VEHICLE IS CSM
001306: 27,2553           43414                           BON      RVQ
001307: 27,2554           04304                                    LMOONFLG
001308: 27,2555           56556                                    +1
001309: 27,2556           43514                           INCR,2   RVQ
001310: 27,2557           77775                           DEC      -2         B-14
001311: 27,2560           43414        SHIFTA             BON      RVQ
001312: 27,2561           04303                                    CMOONFLG
001313: 27,2562           56563                                    +1                                    #  MOON ORB.
001314: 27,2563           43514                           INCR,2   RVQ
001315: 27,2564           77775                           DEC      -2         B-14
001316: 27,2565           66370        INITIALW           AXT,1    SSP
001317: 27,2566           00044                                    36D
001318: 27,2567           00051                                    S1


001320: 27,2570           00006                                    6
001321: 27,2571           77775                           VLOAD
001322: 27,2572           15335                                    ZEROVECS
001323: 27,2573           06445        INITA              STORE    W          +36D,1                     #  CLEAR 0 - 35
001324: 27,2574           76100                           TIX,1    AXT,1
001325: 27,2575           56573                                    INITA
001326: 27,2576           00044                                    36D
001327: 27,2577           06533        INITB              STORE    W          +90D,1                     #  CLEAR 54 - 89
001328: 27,2600           67300                           TIX,1    SLOAD
001329: 27,2601           56577                                    INITB
001330: 27,2602           00001                                    0                                     #  POSITION VALUE
001331: 27,2603           02401                           STORE    W                                     #  INITIALIZE DIAGONAL W POSITION
001332: 27,2604           02411                           STORE    W          +8D
001333: 27,2605           02421                           STORE    W          +16D
001334: 27,2606           77735                           SLOAD
001335: 27,2607           00002                                    1                                     #  VELOCITY VALUE
001336: 27,2610           02511                           STORE    W          +72D                       #  INITIALIZE DIAGONAL W VELOCITY
001337: 27,2611           02521                           STORE    W          +80D
001338: 27,2612           02531                           STORE    W          +88D
001339: 27,2613           77616                           RVQ


001341:                                                                                                  #  CRS61.1       4/10/68
001342:
001343:                                                                                                  #  TO COMPUTE THE PREFERRED TRACKING ATTITUDE OF THE CSM WHICH ENABLES
001344:                                                                                                  #  OPTICS TRACKING OF THE LM AND LM TRACKING OF THE CSM RADAR TRANSPONDER
001345:                                                                                                  #  AND TO COMPUTE THE &X-AXIS TRACKING ATTITUDE OF THE CSM WHICH ENABLES
001346:                                                                                                  #  COAS TRACKING OF THE LM.
001347:
001348:                                                                                                  #  TO PERFORM THE MANEUVER TO THE SELECTED TRACKING ATTITUDE IF THE
001349:                                                                                                  #  MANEUVER IS LESS THAN 10 DEGREES BUT TO CALL R60 IF THE MANEUVER IS
001350:                                                                                                  #  GREATER THAN 10 DEGREES OR IF THE R60 FLAG IS SET.
001351:
001352:                                                                                                  #        (1)     EXTRAPOLATE LM AND CSM STATE VECTORS TO PRESENT TIME USING
001353:                                                                                                  #                CONIC EQUATIONS.
001354:
001355:                                                                                                  #        (2)     CALCULATE LOS FROM CSM TO LM = RL - RC.
001356:
001357:                                                                                                  #        (3)     THE PREFERRED TRACKING ATTITUDE IS DEFINED AS FOLLOWS:
001358:                                                                                                  #                THE TRACK AXIS (I) IS ALIGNED ALONG THE LOS TO THE LM.  THE
001359:                                                                                                  #                TRACK AXIS (I) IS DEFINED AS:
001360:
001361:                                                                                                  #                UNIT(I)=UNIT(Z  )COS55  &  UNIT(X  )SIN55
001362:                                                                                                  #                     -       -SC                -SC
001363:
001364:                                                                                                  #        (4)     COMPUTE DESIRED CDU ANGLES, USING VECPOINT.
001365:


001367:                                                                                                  #        (7)     FORM DIFFERENCE BETWEEN DESIRED AND ACTUAL CDUS.
001368:                                                                                                  #                IF ANY OF THE THREE ANGLE DIFFERENCES EXCEEDS 10 DEGREES,
001369:                                                                                                  #                GROSS MANEUVER IS REQUIRED.  SIGNAL R61 (SET MPAC=1) TO
001370:                                                                                                  #                OPERATE KALCMANU AND EXIT CRS61.1.
001371:                                                                                                  #                IF ALL DIFFERENCES ARE LESS THAN 10 DEGREES, CONTINUE.
001372:
001373:                                                                                                  #        (8)     CALCULATE ORTHOGONAL LOS RATE IN REF COORDS AS
001374:
001375:                                                                                                  #                OMEGATH = (UNITLOS(B1) X UNITDV(B1))(ABSDV(B7)/ABSLOS(B29))
001376:
001377:                                                                                                  #                CONVERSION FACTOR OF 100/2PI (B4) REV CSEC PER RAD SEC IS
001378:                                                                                                  #                APPLIED TO YIELD UNITS OF REVS/SEC.  SCALE IS CARRIED AS
001379:                                                                                                  #                B+1+1+7-29+4+1 PLUS RESULTS OF NORMALIZING ABSDV, ABSLOS.
001380:                                                                                                  #                THE EXTRA B+1 RESULTS FROM RESCALING ABSDV B8 AFTER NORM
001381:                                                                                                  #                TO AVOID OVFLOW ON DIVIDE.
001382:
001383:                                                                                                  #                UNITLOS = UNIT( RL - RC ) B1.
001384:                                                                                                  #                UNITDY  = UNIT( VL - VC ) B1.
001385:                                                                                                  #                ABSLOS  = LENGTH OF LOS, METERS B29.
001386:                                                                                                  #                ABSDV   = LENGTH OF DV, METERS/CSEC B7.
001387:
001388:                                                                                                  #        (9)     OBTAIN RATE IN SM COORDS.
001389:
001390:                                                                                                  #                OMEGATHSM = (REFSMMAT)(OMEGATH).
001391:
001392:                                                                                                  #        (10)    OBTAIN GIMBAL ANGLE INCREMENTS FOR 0.1 SECOND.
001393:
001394:                                                                                                  #                DTHETASM = (0.1)(OMEGATHSM)
001395:
001396:                                                                                                  #        (11)    OBTAIN DELCDUX,Y,Z USING SUBR SMCDURES.


001398:                                                                                                  #                INPUT CONSISTS OF
001399:
001400:                                                                                                  #                (A)     VECTOR OF ANGULAR INCREMENTS, DTHETASM, STORED
001401:                                                                                                  #                        IN V(DTHETASM).
001402:                                                                                                  #                (B)     SIN,COS CDUX,Y,Z FROM SUBR CDUTRIG.
001403:
001404:                                                                                                  #                TRANSFER OUTPUT OF SMCDURES FROM V(DCDU) TO VAC14D.
001405:
001406:                                                                                                  #        (12)    CALCULATE ANG LOS RATE IN BODY(NB) COORDS USING SUBR SMNB.
001407:
001408:                                                                                                  #                OMEGANB = (SMNB)(OMEGATHSM)
001409:
001410:                                                                                                  #                SUBR SMNB REQUIRES OMEGATHSM IN V(VAC32D) AND ACTUAL CDUS
001411:                                                                                                  #                (Y,X,Z ORDER) IN V(VAC20D) WITH S1 OF VAC = BASE ADDRESS
001412:                                                                                                  #                OF CDUS (FIXLOC + 20D).
001413:
001414:                                                                                                  #        (13)    CALCULATE ANG LOS RATE IN CONTROL COORDS AS FOLLOWS
001415:
001416:                                                                                                  #                WBODY = (MBDYTCTL)(OMEGANB)     UNITS=REVS/SEC(B0).
001417:
001418:                                                                                                  #                               ( 0.5       0              0      )   BODY TO
001419:                                                                                                  #                MBDYTCTL(B1) = (  0   COS(7.25)B1   -SIN(7.25)B1 ) = CONTROL
001420:                                                                                                  #                               (  0   SIN(7.25)B1    COS(7.25)B1 )   AXES
001421:                                                                                                  #                                                                     CONVERSION
001422:                                                                                                  #                                                                     MATRIX
001423:
001424:                                                                                                  #        (14)    RESCALE WBODY TO UNITS OF 450 DEG/SEC BY APPLYING FACTOR
001425:                                                                                                  #                OF 0.8 TO REVS/SEC.
001426:
001427:                                                                                                  #        (15)    ADDRESS LIVE AUTOPILOT REGISTERS IN BASIC (UNDER INHINT).
001428:
001429:                                                                                                  #                TRANSFER DESIRED CDUS, SCALED 180 DEGREES, FROM T(SAVEDCDU)
001430:                                                                                                  #                TO V(CDUXD).
001431:
001432:                                                                                                  #                TRANSFER DELCDUS, SCALED 180 DEG, FROM V(VAC14D)
001433:                                                                                                  #                TO V(DELCDUX).
001434:
001435:                                                                                                  #                TRANSFER OMEGA CONTROL, SCALED 450 DEG/SEC, FROM V(MPAC)
001436:                                                                                                  #                TO V(WBODY).
001437:
001438:                                                                                                  #                RELINT, SET MPAC=0, EXIT CRS61.1
001439:
001440:                                                                                                  #  CALL          L       CALL    CRS61.1
001441:
001442:                                                                                                  #  RETURNS       ALL TO L+1.
001443:
001444:                                                                                                  #                (1)     S(MPAC)=0.  NORMAL EXIT.  3 SETS OF INPUTS FED TO DAP.
001445:                                                                                                  #                (2)     S(MPAC)=1.  CALCULATED DESIRED CDUS,SP, SET IN T(CPHI)
001446:                                                                                                  #                        FOR KALCMANU.  ABS(ACDU - DCDU) EXCEEDS 10 DEGREES.
001447:                                                                                                  #                (3)     S(MPAC)=2.  GNCS AUTO MODE NOT SELECTED (BIT10=1).
001448:                                                                                                  #                (4)     S(MPAC)=3.  DAP HOLD FLAG (HOLDFLAG) NOT EQUAL -1.


001450:
001451:                                                                                                  #  INPUT         (1)     TIME2,TIME1.  COMPUTER CLOCK TIME,DP, CENTISEC B28.
001452:                                                                                                  #                (2)     CDUX,Y,Z.  PRESENT CDU ANGLES,SP,2S COMPL HALF-REVS B0.
001453:                                                                                                  #                (3)     M(REFSMMAT), STABLE MEMBER COORDS B1.
001454:
001455:                                                                                                  #  OUTPUT        NORMAL.  EXIT WITH S(MPAC) = 0.
001456:
001457:                                                                                                  #                (1)     CDUXD,CDUYD,CDUZD, DESIRED OUTER, INNER, MIDDLE CDU ANGLES,
001458:                                                                                                  #                        DP, 1S COMPL, SCALED 180 DEGREES (HALF-REVS B0).
001459:                                                                                                  #                (2)     DELCDUX,DELCDUY,DELCDUZ.  0.1 SEC DCU ANGULAR INCREMENTS,
001460:                                                                                                  #                        DP, 1S COMPL, SCALED 180 DEG.
001461:                                                                                                  #                (3)     WBODY,WBODY1,WBODY2.  LOS ANGULAR RATE IN CONTROL COORDS,
001462:                                                                                                  #                        DP, 1S COMPL, SCALED 450 DEG/SEC.
001463:
001464:                                                                                                  #                SPECIAL.  EXIT WITH S(MPAC) = 1.
001465:
001466:                                                                                                  #                (1)     CPHI,CTHETA,CPSI.  DESIRED OUTER, INNER, MIDDLE CDU ANGLES,
001467:                                                                                                  #                        SP, 2S COMPL, SCALED 180 DEGREES.
001468:
001469:                                                                                                  #  EXTERNAL SUBROUTINES USED     (B)=BASIC
001470:
001471:                                                                                                  #                (1) CALCGA              (5) LOADTIME(B)         (9) SMNB
001472:                                                                                                  #                (2) CDUTRIG             (6) MATMOVE
001473:                                                                                                  #                (3) CSMCONIC            (7) RDCDUS(B)
001474:                                                                                                  #                (4) LEMCONIC            (8) SMCDURES
001475:
001476:                                                                                                  #  ERASABLE      (1) S(Q611),EBANK7      CRS61.1 EXIT.
001477:                                                                                                  #                (2) S(Q6111)EBANK7      CALCDCDU EXIT.
001478:                                                                                                  #                (3) T(SAVEDCDU) E6      SP VECTOR OF CDUDS.
001479:                                                                                                  #                (4) V(SAVEPOS)  E7      CSM POS VEC AND D(SAVEPOS)= LENGTH OF LOS.
001480:                                                                                                  #                (5) V(SAVEVEL) E7       CSM VEL VEC.
001481:
001482:                                                                                                  #  FLAGWDS       HOLDFLAG.  USED, NOT SET.
001483:
001484:                                                                                                  #  MISC          (1) ERASABLE ITEMP1 USED TO TEMP STORE EBANK UNDER INHINT.
001485:                                                                                                  #                (2) ERASABLE P21TIME USED AS TEMP STORE DURING CRS61.1
001486:                                                                                                  #                (3) ERAS DTHETASM USED AS TEMP STORE DURING EARLY CRS61.1
001487:
001488:                                                                                                  #  DEBRIS -      CURRENT VAC AREA, CRS61.1 ERASABLES, ITEMP1, P21TIME
001489:
001490: 24,2002                                           BANK     24
001491: 34,2000                                           SETLOC   P20S4
001492: 34,2000                                           BANK
001493:
001494: 34,3343  E6,1646                                  EBANK=   CDUXD
001495: 34,3343                                           COUNT*   $/CRS61
001496:
001497: 34,3343           40220        CRS61.1            STQ      SETPD
001498: 34,3344           03704                                    Q611
001499: 34,3345           00001                                    0
001500: 34,3346           77634                           RTB


001502: 34,3347           45510                                    LOADTIME                              #  LOAD CLOCK TIME2,1 INTO MPAC.
001503:
001504: 34,3350           36316        STORT              STCALL   P21TIME                               #  STORE CLOCK TIME FOR SUBR R63
001505: 34,3351           71572                                    R63                                   #  SUBR TO CALC DCDU (T=PRESENT,PASS1)
001506: 34,3352           77751                           TLOAD
001507: 34,3353           01156                                    THETAD                                #  SAVE DCDU(T) FROM CALCDCDU FOR STEP4.
001508: 34,3354           03373                           STORE    SAVEDCDU
001509:
001510: 34,3355           77776                           EXIT
001511: 34,3356           03377                           TC       STEP2CK
001512: 34,3357           34371        AUTOCK             CAF      PRIO30
001513: 34,3360           00006                           EXTEND
001514: 34,3361           06031                           RXOR     CHAN31
001515: 34,3362           77707                           MASK     FURST3
001516: 34,3363           00006                           EXTEND                                         #  AUTO MODE SELECTED (BITS 15-13=011)
001517: 34,3364           13366                           BZF      DAPCK                                 #        YES-CONTINUE.
001518: 34,3365           03372                           TC       ASET
001519:
001520: 34,3366           40075        DAPCK              CS       FLAGWRD1                              #  IS STIKFLAG SET (I.E. IS SOMEONE ON RHC)
001521: 34,3367           75002                           MASK     STIKBIT
001522: 34,3370           10000                           CCS      A
001523: 34,3371           03432                           TC       STEP3CK
001524: 34,3372           35021        ASET               CAF      ZERO
001525: 34,3373           54154                           TS       MPAC
001526: 34,3374           06006                           TC       INTPRET                               #  EXIT CRS61.1
001527: 34,3375           77650                           GOTO
001528: 34,3376           03704                                    Q611
001529:
001530: 34,3377           04662        STEP2CK            TC       BANKCALL
001531: 34,3400           57757                           CADR     UPACTOFF
001532:
001533: 34,3401           35016                           CAF      TWO                                   #  SET TEMPORARY INDEX DTHETASM = 2
001534: 34,3402           55611        CDULOOP            TS       DTHETASM
001535: 34,3403           51611                           INDEX    DTHETASM
001536: 34,3404           30032                           CA       CDUX                                  #  SET A = ACTUAL CDU (ACDU).
001537: 34,3405           00006                           EXTEND
001538: 34,3406           51611                           INDEX    DTHETASM                              #  SET INDEX TO ACCESS DESIRED CDU (DCDU).
001539: 34,3407           21155                           MSU      THETAD                                #  A = DIFF = ACDU - DCDU.
001540: 34,3410           54154                           TS       MPAC                                  #  RETURN TO INTERPRETER FOR 10 DEGREE CK.
001541: 34,3411           06006                           TC       INTPRET                               #  (DP APPROX SP OK FOR ROUGH CHECK)
001542: 34,3412           45246                           ABS      DSU
001543: 34,3413           31661                                    DEGREE10                              #  IS (ACDU - DCDU) MORE THAN 10 DEGREES.
001544: 34,3414           77444                           BPL      EXIT                                  #  NO - OK, CONTINUE CHECKING OTHER ANGLES.
001545: 34,3415           71421                                    STKTEST                               #  TEST STICK FLAG
001546: 34,3416           11611                           CCS      DTHETASM                              #  HAVE ALL 3 ANGLE DIFFS BEEN CHECKED.
001547: 34,3417           03402                           TC       CDULOOP                               #  NO - DIM COUNT, CHECK NEXT ANGLE DIFF.
001548: 34,3420           03357                           TC       AUTOCK
001549: 34,3421           77776        STKTEST            EXIT
001550: 34,3422           40075                           CS       FLAGWRD1
001551: 34,3423           75002                           MASK     STIKBIT


001553: 34,3424           10000                           CCS      A
001554: 34,3425           03563                           TC       MANUEXIS                              #  STIKFLAG IS NOT SET (DO R63)
001555: 34,3426           35015                           CAF      BIT3
001556: 34,3427           00006                           EXTEND                                         #  STIKFLG IS SET
001557: 34,3430           05011                           WOR      DSALMOUT                              #  TURN ON UPACTY LIGHT
001558:
001559: 34,3431           03372                           TC       ASET                                  #  EXIT AND SET R61CNTR
001560: 34,3432           06006        STEP3CK            TC       INTPRET
001561: 34,3433           77601                           SETPD
001562: 34,3434           00001                                    0                                     #  *
001563:                                                                                                  #  NOW HAVE DCDUS STORED IN T(SAVEDCDU).
001564:                                                                                                  #  GO CALC OTHER DAP INPUTS (DELCDU,WBODY)
001565: 34,3435           52375        CRS61.2            VLOAD    VSU
001566: 34,3436           03204                                    DCDU
001567: 34,3437           03715                                    SAVEVEL                               #  DV = VL - VC
001568: 34,3440           57456                           UNIT     VCOMP                                 #  V(MPAC)=-UNITDV. VAC36D=ABSDV.
001569: 34,3441           74235                           VXV      VXSC                                  #  (-UNITDV)CROSS(UNITLOS).
001570: 34,3442           03707                                    SAVEPOS
001571: 34,3443           31662                                    RVCS/RDS                              #  (UNITLOS B1)(UNITDV B1)(CONST B4)=CROSS.
001572: 34,3444           77606                           PUSH                                           #  HOLD CROSS IN PUSHLIST0.  SCALED B6.
001573: 34,3445           60345                           DLOAD    NORM                                  #  OBTAIN ABS VALUE OF LOS.
001574: 34,3446           02316                                    P21TIME                               #  P21TIME IS TEMP STORE FOR ABSLOS.
001575: 34,3447           00047                                    X1
001576: 34,3450           77606                           PUSH                                           #  NORM ABSLOS(DENOM) AND HOLD IN PUSH1.
001577:
001578: 34,3451           60345                           DLOAD    NORM
001579: 34,3452           00045                                    36D                                   #  NORM ABS VALUE OF DV(NUM).
001580: 34,3453           00051                                    S1
001581:
001582: 34,3454           70460                           XSU,1    SR1                                   #  X1 = X1(N DENOM)-S1(N NUM).
001583: 34,3455           00050                                    S1                                    #  SR1 TO AVOID OFLOW ON DDV.
001584: 34,3456           74271                           DDV      VXSC                                  #  ABSDV(MPAC)/ABSLOS(PUSH1) = QUOT.
001585: 34,3457           77730                           SXA,1                                          #  QUOT(MPAC) X CROSS(PUSH0)
001586: 34,3460           03705                                    Q6111                                 #  SAVE SCALE OF RESULT (R-15,1X).
001587:                                                                                                  #  X1= NORM OF QUOT. QUOT SCALE B7-B29=B-22
001588:                                                                                                  #  CROSS IS SCALED B6.  NEED SL1 TO RECOVER
001589:                                                                                                  #  SR1 SO THAT -22+6+1=-15.  MPAC NOW HOLDS
001590:                                                                                                  #  ORTHO LOS RATE (OMEGA TH, B-15,X1).
001591: 34,3461           76521                           MXV      VSL1                                  #  OBTAIN RATE IN SM COORDS (OMEGTHSM) AND
001592: 34,3462           01736                                    REFSMMAT                              #  ADJUST FOR REFSMMAT SCALE OF B1.
001593: 34,3463           00025                           STORE    20D                                   #  OMEGTHSM = VAC20D
001594:                                                                                                  #  DELTA THETA SM = OMEGTHSM * .1B-3.
001595: 34,3464           77761                           VXSC
001596: 34,3465           31664                                    TENTH
001597: 34,3466           03212                           STORE    DTHETASM                              #  STORE SM INCREM ANGLES FOR SMCDURES.
001598: 34,3467           77624                           CALL
001599: 34,3470           47477                                    CDUTRIG                               #  OBTAIN SIN,COSCDUS FOR SMCDURES.
001600: 34,3471           45001                           SETPD    CALL                                  #  SMCDURES USES PUSH
001601: 34,3472           00001                                    0
001602: 34,3473           47742                                    SMCDURES                              #  OBTAIN DELCDU IN V(DCDU).


001604: 34,3474           77750                           LXA,1                                          #  RELOAD X1
001605: 34,3475           03705                                    Q6111
001606: 34,3476           53775                           VLOAD    VSL*                                  #  RECOVER SCALE.
001607: 34,3477           03204                                    DCDU                                  #  (B-15,X1) + TENTH(B-3) + HALFREVS(B1)
001608: 34,3500           20160                                    0          -17D,1                     #  EQUALS B-17D,1 TO OBTAIN HALFREVS B0.
001609: 34,3501           00017                           STORE    14D                                   #  HOLD DELS IN V(VAC14D) FOR AUTOPILOT.
001610:
001611: 34,3502           77624                           CALL                                           #  COMPUTES SINES AND COSINES FOR *SMNB*
001612: 34,3503           47477                                    CDUTRIG
001613: 34,3504           45175                           VLOAD    CALL                                  #  LOAD VECTOR AND CALL TRANSFORMATION
001614: 34,3505           00025                                    20D                                   #  VECTOR FOR TRG*SMNB INTO MPAC
001615: 34,3506           47644                                    *SMNB*                                #  OBTAIN ANG. RATE REFERRED TO NB (BODY)
001616: 34,3507           77721                           MXV
001617: 34,3510           31670                                    MBDYTCTL                              #  CONVERT RATE(OMEGA) TO CONTROL COORDS.
001618: 34,3511           77761                           VXSC                                           #  MULT. BY 0.8 TO RESCALE REVS TO 450 DEG.
001619: 34,3512           15271                                    POINT8                                #  RECOVER SCALE.
001620: 34,3513           53750                           LXA,1    VSL*                                  #  RELOAD X1 TO RECOVER NORMALIZ.
001621: 34,3514           03705                                    Q6111                                 #  (B-15,X1) + MBDYTCTL(B1) = B-14D,1 TO
001622: 34,3515           20163                                    0          -14D,1                     #  OBTAIN REVS SCALED AT 450 DEGREES.
001623:
001624: 34,3516           77776        CRS61.2A           EXIT
001625: 34,3517           00004                           INHINT
001626: 34,3520           35021                           CAF      ZERO                                  #  TRANSFER DESIRED GIMBAL ANGLES
001627: 34,3521           55647                           TS       CDUXD      +1                         #  FROM T(SAVEDCDU) TO V(CDUXD).
001628: 34,3522           55651                           TS       CDUYD      +1
001629: 34,3523           55653                           TS       CDUZD      +1
001630: 34,3524           31772                           CA       SAVEDCDU
001631: 34,3525           55646                           TS       CDUXD
001632: 34,3526           31773                           CA       SAVEDCDU   +1
001633: 34,3527           55650                           TS       CDUYD
001634: 34,3530           31774                           CA       SAVEDCDU   +2
001635: 34,3531           55652                           TS       CDUZD
001636:
001637: 34,3532           00006                           EXTEND                                         #  TRANSFER OMEGA CONTROL (ANG. LOS RATE)
001638: 34,3533           30155                           DCA      MPAC                                  #  FROM V(MPAC) TO V(WBODY).
001639: 34,3534           53526                           DXCH     WBODY
001640: 34,3535           00006                           EXTEND
001641: 34,3536           30160                           DCA      MPAC       +3
001642: 34,3537           53530                           DXCH     WBODY1
001643: 34,3540           00006                           EXTEND
001644: 34,3541           30162                           DCA      MPAC       +5
001645: 34,3542           53532                           DXCH     WBODY2
001646:
001647: 34,3543           00006                           EXTEND                                         #  TRANSFER CDU INCREMENTS
001648: 34,3544           50120                           INDEX    FIXLOC                                #  FROM V(VAC14D) TO V(DELCDUX).
001649: 34,3545           30017                           DCA      14D
001650: 34,3546           53576                           DXCH     DELCDUX
001651: 34,3547           00006                           EXTEND
001652: 34,3550           50120                           INDEX    FIXLOC
001653: 34,3551           30021                           DCA      16D


001655: 34,3552           53600                           DXCH     DELCDUY
001656: 34,3553           00006                           EXTEND
001657: 34,3554           50120                           INDEX    FIXLOC
001658: 34,3555           30023                           DCA      18D
001659: 34,3556           53602                           DXCH     DELCDUZ
001660: 34,3557           45017                           CS       ONE                                   #  NOW DAP VARIABLES LOADED.  SET HOLDFLAG.
001661: 34,3560           55332                           TS       HOLDFLAG                              #  TO -1.
001662: 34,3561           00003                           RELINT
001663: 34,3562           03372                           TC       ASET
001664: 34,3563           06006        MANUEXIS           TC       INTPRET
001665: 34,3564           77751        MANUEXIT           TLOAD                                          #  ENTER FROM STEP2.  ACDU-DCDU EXCEEDS
001666: 34,3565           03373                                    SAVEDCDU                              #  10 DEG. STORE DCDU(T) IN CPHI,CTHETA,
001667: 34,3566           01156                           STORE    CPHI                                  #  CPSI FOR KALCMANU.
001668: 34,3567           52135                           SLOAD    GOTO                                  #  SPECIAL RETURN (MPAC+0 = 1
001669: 34,3570           31712                                    LOONE                                 #  OCTAL 00001
001670: 34,3571           03704                                    Q611
001671:
001672: 34,3572           71220        R63                STQ      DLOAD                                 #  SUBR TO CALC DCDUS(T)
001673: 34,3573           03705                                    Q6111
001674: 34,3574           02316                                    P21TIME
001675: 34,3575           34041                           STCALL   TDEC1
001676: 34,3576           27114                                    CSMCONIC
001677: 34,3577           77775        HOLDATT            VLOAD                                          #  HOLD EXTRAPOLATED CSM POSITION AND
001678: 34,3600           00001                                    RATT                                  #  VELOCITY
001679: 34,3601           27707                           STOVL    SAVEPOS
001680: 34,3602           00007                                    VATT
001681: 34,3603           03715                           STORE    SAVEVEL
001682: 34,3604           77745        CALCLEM            DLOAD                                          #  EXTRAPOLATE LEM STATE VECTOR TO SAME
001683: 34,3605           02316                                    P21TIME                               #  TIME AS CSM USING LEMCONIC.
001684: 34,3606           34041                           STCALL   TDEC1
001685: 34,3607           27126                                    LEMCONIC
001686: 34,3610           77775                           VLOAD
001687: 34,3611           00007                                    VATT
001688: 34,3612           27204                           STOVL    DCDU                                  #  STORE VATT IN DCDU TEMPORARILY
001689: 34,3613           00001                                    RATT                                  #  LOS = RL RC
001690: 34,3614           53451                           VSU      UNIT
001691: 34,3615           03707                                    SAVEPOS
001692: 34,3616           03707                           STORE    SAVEPOS                               #  SAVE UNITLOS FOR CRS61.2 RATE CALC.
001693: 34,3617           76521                           MXV      VSL1
001694: 34,3620           01736                                    REFSMMAT                              #  CONVERT TO STABLE MEMBER
001695: 34,3621           17357                           STODL    POINTVSM
001696: 34,3622           00045                                    36D                                   #  HOLD ABS VAL OF LOS (VAC 36D)
001697: 34,3623           02316                           STORE    P21TIME                               #  IN D(P21TIME) FOR CRS61.2 RATE CALC.
001698: 34,3624           77775                           VLOAD
001699: 34,3625           15333                                    UNITX
001700: 34,3626           37351                           STCALL   SCAXIS                                #  TRACK AXIS UNIT VECTOR
001701: 34,3627           56126                                    VECPOINT                              #  FOR +X-AXIS TRACKING ATTITUDE
001702: 34,3630           01334                           STORE    CPHIX                                 #  STORE ANGLES FOR N96 DISPLAY
001703: 34,3631           77775                           VLOAD
001704: 34,3632           31653                                    PRFUNIT


001706: 34,3633           37351                           STCALL   SCAXIS
001707: 34,3634           56126                                    VECPOINT
001708: 34,3635           03723                           STORE    PRAXIS                                #  STORE ANGLES FOR N95 DISPLAY
001709: 34,3636           77614                           BOFF
001710: 34,3637           02745                                    PRFTRKAT
001711: 34,3640           71644                                    CRSTOR1
001712: 34,3641           01156        CRSTOR             STORE    THETAD                                #  STORE ANGLES FOR N18 DISPLAY
001713: 34,3642           77650                           GOTO
001714: 34,3643           03705                                    Q6111
001715: 34,3644           77775        CRSTOR1            VLOAD
001716: 34,3645           15333                                    UNITX
001717: 34,3646           03351                           STORE    SCAXIS
001718: 34,3647           52151                           TLOAD    GOTO
001719: 34,3650           01334                                    CPHIX
001720: 34,3651           71641                                    CRSTOR
001721: 34,3652           15066 17626  PRFUNIT            2DEC     .40957602                             #  55 DEG TRACK AXIS UNIT VECTOR
001722: 34,3654           00000 00000                     2DEC     0.0                                   #  FOR USE WITH VECPOINT
001723: 34,3656           11132 27477                     2DEC     .28678822
001724: 34,3660           01616        DEGREE10           DEC      .05556                                #  10 DEG IN REVS                STEP2
001725: 34,3661           37651 16721  RVCS/RDS           2DEC     15.915494  B-4                        #  100/2PI REV-CSEC/RAD-SEC.
001726: 34,3663           31463 06315  TENTH              2DEC     .1         B+3                        #  .1 B-3 (TO SCALE ANG. RATE TO .1 INREMS)
001727: 34,3665           20000 00000  MAT1B1             2DEC     1.0        B-1
001728: 34,3667           20000 00000  MBDYTCTL           2DEC     .5                                    #                7.25 DEG NEGATIVE
001729: 34,3671           00000 00000                     2DEC     0          B-28                       #                X-AXIS ROTATION MATRIX
001730: 34,3673           00000 00000                     2DEC     0          B-28                       #                CONVERTS BODY TO CTL
001731: 34,3675           00000 00000                     2DEC     0          B-28                       #                AXES.  SAME AS QUADROT
001732: 34,3677           17676 20113                     2DEC     .99200495  B-1                        #  COS7.25 B1    BUT SCALED B1
001733: 34,3701           75766 45544                     2DEC     -.12619897 B-1                        #  -SIN7.25 B1
001734: 34,3703           00000 00000                     2DEC     0          B-28
001735: 34,3705           02011 32233                     2DEC     .12619897  B-1                        #  SIN7.25 B1
001736: 34,3707           17676 20113                     2DEC     .99200495  B-1                        #  COS7.25 B1
001737: 34,3711           00001        LOONE              OCT      00001                                 #  TO SET MPAC = 00001 FOR SPECIAL EXIT.
001738: 34,3712     7707               FURST3             EQUALS   13,14,15                              #  CONSTANT FOR AUTOCK (OCT 70000).
001739:


001741:                                                                                                  #  ..... S22.1 ORBITAL NAVIGATION ROUTINE
001742:                                                                                                  #  MOD 1
001743:
001744:                                                                                                  #  FUNCTIONAL DESCRIPTION
001745:                                                                                                  #        1.  UPDATE CSM STATE VECTOR
001746:                                                                                                  #        2.  UPDATE LANDMARK POSITION
001747:                                                                                                  #        3.  CONVERT W MATRIX FROM 9 TO 6 DIMENSIONS
001748:
001749:                                                                                                  #  SUBROUTINES CALLED
001750:                                                                                                  #        INTSTALL,INTEGRV,GETUM,SETRE,R-TO-TP,RP-TO-R,BVECTORS,INCORP1,INCORP2
001751:                                                                                                  #        LALOTORV,S22F2410,LAT-LONG,ROWDOT
001752:
001753:                                                                                                  #  ERASABLE INITIALIZATION
001754:                                                                                                  #        W=9X9 MATRIX
001755:                                                                                                  #        ORBWFLAG=0 FOR INVALID W MATRIX, =1 FOR VALID W MATRIX
001756:                                                                                                  #        ASTRONAUT ENTRY OF KNOWN,L,OFF
001757:                                                                                                  #        8NN= NUMBER OF MARKS  DECIMAL INTEGER B-14
001758:                                                                                                  #        REFSMMAT= TRANSFORMATION MATRIX
001759:                                                                                                  #        MARKSTAT= ADDRESS OF START OF MARK DATA (MARK DATA OF EACH MARK IS
001760:                                                                                                  #                  STORED AS FOLLOWS,  TIME,AIG,SA,AMG,PA,AOG) TIME IS IN DOUBLE
001761:                                                                                                  #                  PRECISION, ALL OTHERS ARE IN SINGLE PRECISION
001762:                                                                                                  #        CSM STATE VECTOR
001763:
001764:                                                                                                  #  OUTPUT
001765:                                                                                                  #        UPDATED CSM STATE VECTOR
001766:                                                                                                  #        UPDATED LANDMARK POSITION
001767:                                                                                                  #        NEW 6 DIMENSIONAL W MATRIX
001768:
001769:                                                                                                  #  DEBRIS
001770:                                                                                                  #        PUSH LIST,CSMPOS,ALPHAV,ERADM,UM,RCLP,USTAR,VARIANCE,X789,BVECTOR,8KK,
001771:                                                                                                  #        S22LOC,SVMRKDAT TABLE,22SUBSCL,LANDMARK,CXOFF,S22C,LAT,LONG,ALT,
001772:                                                                                                  #        TEMPOR1,S22TOFF,S221OFF,DSPTEM1,S22EORM,S22TPRIM
001773:
001774: 13,2231                                           BANK     13
001775:
001776: 30,2000                                           SETLOC   P20S6
001777: 30,2000                                           BANK
001778:
001779: 30,2312  E5,1751                                  EBANK=   LANDMARK
001780: 30,2312                                           COUNT    35/LUORB
001781:
001782: 30,2312           66220        S22.1              STQ      SSP
001783: 30,2313           03703                                    S22RTNEX
001784: 30,2314           00051                                    S1
001785: 30,2315           00006                           DEC      6          B-14
001786: 30,2316           66331                           SSP      SSP                                   #  SET I=1       ITEM 8KK IS I
001787: 30,2317           02747                                    8KK
001788: 30,2320           00001                           DEC      1          B-14
001789: 30,2321           02751                                    S22LOC
001790: 30,2322           03537                           ECADR    SVMRKDAT                              #  SET MARK DATA ADDRESS INTO S22LOC


001792: 30,2323           76144                           LXC,2    AXT,1
001793: 30,2324           01330                                    MARKSTAT
001794: 30,2325           00044                           DEC      36         B-14
001795: 30,2326           77773        S22.111            VLOAD*                                         #  MOVE MARK DATA (5 SETS) FROM ADDR. IN
001796: 30,2327           77776                                    0,2                                   #  MARKSTAT TO SVMRKDAT TABLE TO AVOID LOSS
001797: 30,2330           07604                           STORE    SVMRKDAT   +36D,1                     #  IF RESTART OCCURS
001798: 30,2331           60114                           INCR,2   TIX,1
001799: 30,2332           77771                           DEC      -6         B-14
001800: 30,2333           60326                                    S22.111
001801: 30,2334           77414                           SET      EXIT
001802: 30,2335           01464                                    P22MKFLG                              #  DOWNLINKED SVMRKDAT HOLDS PRESENT MARKS
001803: 30,2336           04662                           TC       BANKCALL                              #  RELEASE VAC AREA WHERE MARK DATA WAS
001804: 30,2337           16063                           CADR     MKRELEAS
001805: 30,2340           05372                           TC       2PHSCHNG
001806: 30,2341           00004                           OCT      00004
001807: 30,2342           05022                           OCT      05022
001808: 30,2343           13000                           OCT      13000
001809: 30,2344           06006                           TC       INTPRET
001810: 30,2345           43170                           AXT,1    BOFF
001811: 30,2346           00000                                    0D
001812: 30,2347           04343                                    CMOONFLG                              #  =0 EARTH, =1 MOON
001813: 30,2350           60353                                    S22SHIFT
001814: 30,2351           77710                           INCR,1
001815: 30,2352           77775                           DEC      -2         B-14
001816: 30,2353           40330        S22SHIFT           SXA,1    SETPD
001817: 30,2354           03673                                    S22EORM                               #  SET =0 EARTH, =-2 MOON FOR SHIFTING
001818: 30,2355           00001                                    0D
001819: 30,2356           77624        FIG2EXIT           CALL
001820: 30,2357           27442                                    INTSTALL
001821: 30,2360           77624                           CALL
001822: 30,2361           62355                                    S22FLGS
001823:                                                                                                  #        FLOWCHART D=0   THEN DIM0FLAG=0  D6OR9FLG NOT TESTED
001824:                                                                                                  #        FLOWCHART D=6   THEN DIM0FLAG=1  D6OR9FLG=0
001825:                                                                                                  #        FLOWCHART D=9   THEN DIM0FLAG=1  D6OR9FLG=1
001826:
001827: 30,2362           43014                           BOFF     CLRGO
001828: 30,2363           01751                                    ORBWFLAG
001829: 30,2364           60367                                    SETWW5D                               #  BRANCH TO SET W0-W5,ORBWFLAG,D
001830: 30,2365           01635                                    D6OR9FLG                              #  FLOWCHART D=6 PATH
001831: 30,2366           60414                                    SETVANDI
001832: 30,2367           77614        SETWW5D            CLEAR
001833: 30,2370           01676                                    DIM0FLAG                              #  FLOWCHART D=0 PATH
001834: 30,2371           66370                           AXT,1    SSP
001835: 30,2372           00154                           DEC      108        B-14
001836: 30,2373           00051                                    S1
001837: 30,2374           00006                           DEC      6          B-14
001838: 30,2375           77214                           CLEAR    VLOAD
001839: 30,2376           02676                                    RENDWFLG                              #  GSOP CHANGE 8/18/67
001840: 30,2377           15335                                    ZEROVECS
001841: 30,2400           06555        CLEARWW5           STORE    W          +108D,1


001843: 30,2401           67300                           TIX,1    SLOAD
001844: 30,2402           60400                                    CLEARWW5
001845: 30,2403           02005                                    WORBPOS
001846: 30,2404           02401                           STORE    W                                     #  SET DIAGONALS OF W0
001847: 30,2405           02411                           STORE    W          +8D
001848: 30,2406           02421                           STORE    W          +16D
001849: 30,2407           77735                           SLOAD
001850: 30,2410           02006                                    WORBVEL
001851: 30,2411           02511                           STORE    W          +72D                       #  SET DIAGONALS OF W4
001852: 30,2412           02521                           STORE    W          +80D
001853: 30,2413           02531                           STORE    W          +88D
001854: 30,2414           77614        SETVANDI           CLEAR
001855: 30,2415           02666                                    DMENFLG                               #  0=6X6W, 1=9X9W
001856: 30,2416           77624        S22NXTIN           CALL
001857: 30,2417           62351                                    GETTF
001858: 30,2420           34041                           STCALL   TDEC1
001859: 30,2421           27162                                    INTEGRV
001860: 30,2422           77624                           CALL
001861: 30,2423           61332                                    S22CALRC                              #  CALC. RC B-29 OR B-27 (CSMPOS)
001862: 30,2424           66150                           LXA,1    SXA,1
001863: 30,2425           02750                                    S22LOC                                #  SETUP ADDR. OF MARK DATA FOR GETUM SUBR.
001864: 30,2426           01242                                    MARKDATA
001865: 30,2427           77624                           CALL                                           #  COMPUTE UM
001866: 30,2430           47104        S2GETUM                     GETUM
001867: 30,2431           01235                           STORE    UM
001868: 30,2432           41535        DMPINTEG           SLOAD    PUSH                                  #  TEST OFF=I
001869: 30,2433           02747                                    8KK
001870: 30,2434           50535                           SLOAD    SR3                                   #  CXOFF SCALED B-5, MUST MOVE TO B-14
001871: 30,2435           02746                                    CXOFF                                 #  BEFORE SUBT.
001872: 30,2436           50442                           SR3      SR3
001873: 30,2437           77625                           DSU
001874: 30,2440           43030                           BHIZ     BON
001875: 30,2441           60755                                    S22OFF=I                              #  BRANCH HERE IF OFF=I
001876: 30,2442           02706                                    DMENFLG                               #  0=6X6W, 1=9X9W
001877: 30,2443           60763                                    S22D=9
001878: 30,2444           77624                           CALL
001879: 30,2445           56750                                    GRP2PC
001880: 30,2446           77614                           SET
001881: 30,2447           01471                                    ORBWFLAG
001882: 30,2450           43014                           SET      SET
001883: 30,2451           02466                                    DMENFLG                               #  =0 ON FIRST PASS THRU HERE FOR D=0, OR 6
001884: 30,2452           01062                                    22DSPFLG                              #  =1 TO DISPLAY DR,DV ON FIRST PASS
001885: 30,2453           43014                           SET      BON
001886: 30,2454           00462                                    ERADFLAG                              #  =1 TO COMPUTE FISCHER RADIUS
001887: 30,2455           03307                                    KNOWNFLG
001888: 30,2456           61123                                    S22BOX22
001889: 30,2457           53575                           VLOAD    UNIT                                  #  UNIT ALSO PUTS ABVAL(RC) IN 36D
001890: 30,2460           01207                                    CSMPOS
001891: 30,2461           02152                           STORE    ALPHAV                                #  ALPHAV +4=SINL FOR SETRE
001892: 30,2462           43014                           CLEAR    BOFF


001894: 30,2463           01663                                    LUNAFLAG
001895: 30,2464           04343                                    CMOONFLG
001896: 30,2465           60470                                    S22C=I
001897: 30,2466           77614                           SET
001898: 30,2467           01463                                    LUNAFLAG
001899: 30,2470           77624        S22C=I             CALL                                           #  ERADM= R0 METERS B-29 BOTH EARTH/MOON
001900: 30,2471           26601                                    SETRE
001901: 30,2472           77624                           CALL                                           #  COMPUTE RL FROM EQUATION 2.4.10
001902: 30,2473           61277                                    S22F2410                              #  STORED IN X789,MPAC B-27,B-29
001903: 30,2474           70414                           BOFF     VSR2                                  #  SCALE RL B-29 FOR BOTH EARTH/MOON
001904: 30,2475           04343                                    CMOONFLG
001905: 30,2476           60477                                    +1
001906: 30,2477           02635                           STORE    S22RL
001907: 30,2500           72441                           DOT      SL1
001908: 30,2501           01235                                    UM
001909: 30,2502           24037                           STOVL    S22D                                  #  D= UM.RL B-29
001910: 30,2503           15335                                    ZEROVECS
001911: 30,2504           41401                           SETPD    PUSH
001912: 30,2505           00001                                    0D
001913: 30,2506           65206                           PUSH     PDDL                                  #  SET 0-18D = I BACKWARDS
001914: 30,2507           15333                                    HIDPHALF                              #  PD 18
001915: 30,2510           77702                           SR2                                            #  B-3
001916: 30,2511           00005                           STORE    4D
001917: 30,2512           00011                           STORE    8D
001918: 30,2513           24015                           STOVL    12D
001919: 30,2514           01235                                    UM                                    #  B-1
001920: 30,2515           24023                           STOVL    S223X1
001921: 30,2516           02635                                    S22RL                                 #  B-29
001922: 30,2517           77624                           CALL                                           #  (UM)(RL T) B-30 STORED IN S22UMRL THRU
001923: 30,2520           62332                                    S2231X13                              #  S22UMRL +17D
001924: 30,2521           66370                           AXT,1    SSP
001925: 30,2522           00022                           DEC      18         B-14
001926: 30,2523           00051                                    S1
001927: 30,2524           00006                           DEC      6          B-14
001928: 30,2525           70573        S22NXTU            VLOAD*   VSR2                                  #  (UM)(RL T) B-32
001929: 30,2526           03524                                    S22UMRL    +18D,1
001930: 30,2527           77741                           V/SC
001931: 30,2530           00037                                    S22D                                  #  D B-29
001932: 30,2531           45445                           BVSU     STADR                                 #  SUBTRACT FROM I B-3
001933: 30,2532           70253                           STORE    S22UMRL    +18D,1                     #  U MATRIX B-3
001934: 30,2533           76100                           TIX,1    AXT,1                                 #  PD 0 AFTER TIX
001935: 30,2534           60525                                    S22NXTU
001936: 30,2535           00044                           DEC      36         B-14                       #  S1 STILL 6 FROM ABOVE
001937: 30,2536           64373        S22NXTWI           VLOAD*   MXV
001938: 30,2537           02445                                    W          +36D,1                     #  B-19
001939: 30,2540           03502                                    S22UMRL                               #  B-3
001940: 30,2541           77732                           VSL3
001941: 30,2542           06621                           STORE    W          +144D,1                    #  W(I+18)= UW(I) B-19
001942: 30,2543           71300                           TIX,1    DLOAD
001943: 30,2544           60536                                    S22NXTWI


001945: 30,2545           00041                                    S22RHO                                #  B-28,B-30
001946: 30,2546           60414                           BOFF     SR2                                   #  MAKE RHO B-30
001947: 30,2547           04343                                    CMOONFLG
001948: 30,2550           60551                                    +1
001949: 30,2551           57101                           NORM     XAD,2
001950: 30,2552           00050                                    X2
001951: 30,2553           00047                                    X2
001952: 30,2554           41316                           DSQ      DMP
001953: 30,2555           21636                                    SCTVAR                                #  B+18
001954: 30,2556           77742                           SR1                                            #  ACCOUNTS FOR 1/2 IN NEXT FORMULA
001955: 30,2557           00041                           STORE    S22RHO                                #  1/2(RHO SQ)(VARSCT)
001956: 30,2560           77770                           AXT,1
001957: 30,2561           00022                           DEC      18         B-14                       #  S1 STILL 6 FROM ABOVE
001958: 30,2562           64373        S22NXXA            VLOAD*   MXV
001959: 30,2563           03524                                    S22UMRL    +18D,1                     #  B-3
001960: 30,2564           03502                                    S22UMRL                               #  B-3
001961: 30,2565           53761                           VXSC     VSR*
001962: 30,2566           00041                                    S22RHO
001963: 30,2567           57212                                    0          -12D,2                     #  WITH VARRP SCALED B-28
001964: 30,2570           05301                           STORE    S22UUT     +18D,1                     #  1/2(RHO SQ)(VARSCT)(U)(U T)
001965: 30,2571           77300                           TIX,1    VLOAD
001966: 30,2572           60562                                    S22NXXA
001967: 30,2573           01235                                    UM
001968: 30,2574           34023                           STCALL   S223X1                                #  UM ALSO IN MPAC FOR S2231X13 SUBR.
001969: 30,2575           62332                                    S2231X13                              #  (UM)(UM T) B-2 IN S22UMRL,P17D
001970: 30,2576           50545                           DLOAD    SR3
001971: 30,2577           02241                                    ERADM                                 #  R0 B-29
001972: 30,2600           63471                           DDV      DSQ
001973: 30,2601           00037                                    S22D                                  #  B-29
001974: 30,2602           77605                           DMP
001975: 30,2603           02010                                    RPVAR                                 #  ***** METERS SQ
001976: 30,2604           00041                           STORE    S22RHO                                #  TEMP (VARRP)(R0/D)
001977: 30,2605           77770                           AXT,1
001978: 30,2606           00022                           DEC      18         B-14                       #  S1 STILL 6 FROM ABOVE
001979: 30,2607           74373        S22NXXB            VLOAD*   VXSC
001980: 30,2610           03524                                    S22UMRL    +18D,1                     #  (UM)(UM T) B-2
001981: 30,2611           00041                                    S22RHO
001982: 30,2612           77653                           VAD*
001983: 30,2613           01301                                    S22UUT     +18D,1
001984: 30,2614           05301                           STORE    S22UUT     +18D,1                     #  SMALL E MATRIX
001985: 30,2615           77775                           VLOAD
001986: 30,2616           15335                                    ZEROVECS
001987: 30,2617           06643                           STORE    W          +162D,1                    #  CLEAR W8
001988: 30,2620           40100                           TIX,1    BOV
001989: 30,2621           60607                                    S22NXXB
001990: 30,2622           60623                                    +1
001991: 30,2623           50145                           DLOAD    BMN
001992: 30,2624           01277                                    S22UUT     +16D                       #  E5
001993: 30,2625           60644                                    S22W76X
001994: 30,2626           53166                           SQRT     BZE


001996: 30,2627           60644                                    S22W76X
001997: 30,2630           16625                           STODL    W          +148D                      #  W74= SQ ROOT E5
001998: 30,2631           01275                                    S22UUT     +14D                       #  E4
001999: 30,2632           40071                           DDV      BOV
002000: 30,2633           02625                                    W          +148D
002001: 30,2634           60636                                    S22W72X
002002: 30,2635           02623                           STORE    W          +146D                      #  W73= E4/W74
002003: 30,2636           56345        S22W72X            DLOAD    DDV
002004: 30,2637           01273                                    S22UUT     +12D                       #  E3
002005: 30,2640           02625                                    W          +148D
002006: 30,2641           77600                           BOV
002007: 30,2642           60644                                    S22W76X
002008: 30,2643           02621                           STORE    W          +144D                      #  W72= E4/W74
002009: 30,2644           63545        S22W76X            DLOAD    DSQ
002010: 30,2645           02623                                    W          +146D                      #  W73
002011: 30,2646           50021                           BDSU     BMN
002012: 30,2647           01267                                    S22UUT     +8D                        #  E2
002013: 30,2650           60664                                    S22W78X
002014: 30,2651           53166                           SQRT     BZE
002015: 30,2652           60664                                    S22W78X
002016: 30,2653           16631                           STODL    W          +152D                      #  W76= SQ ROOT (E2-W73 SQ)
002017: 30,2654           02621                                    W          +144D                      #  W72
002018: 30,2655           44205                           DMP      BDSU
002019: 30,2656           02623                                    W          +146D                      #  W73
002020: 30,2657           01265                                    S22UUT     +6D                        #  E1
002021: 30,2660           40071                           DDV      BOV
002022: 30,2661           02631                                    W          +152D                      #  W76
002023: 30,2662           60664                                    S22W78X
002024: 30,2663           02627                           STORE    W          +150D                      #  W75= (E1-W72W73)/W76
002025: 30,2664           63545        S22W78X            DLOAD    DSQ
002026: 30,2665           02627                                    W          +150D
002027: 30,2666           63525                           PDDL     DSQ
002028: 30,2667           02621                                    W          +144D                      #  W72
002029: 30,2670           77615                           DAD
002030: 30,2671           50021                           BDSU     BMN
002031: 30,2672           01257                                    S22UUT                                #  E0
002032: 30,2673           60676                                    S22SCLW
002033: 30,2674           77766                           SQRT
002034: 30,2675           02635                           STORE    W          +156D                      #  W78= SQ RT(E0-W72 SQ-W75 SQ)
002035: 30,2676           74575        S22SCLW            VLOAD    VSR1                                  #  SCALE W6 METERS B-19
002036: 30,2677           02621                                    W          +144D
002037: 30,2700           26621                           STOVL    W          +144D
002038: 30,2701           02627                                    W          +150D
002039: 30,2702           77762                           VSR1
002040: 30,2703           26627                           STOVL    W          +150D
002041: 30,2704           02635                                    W          +156D
002042: 30,2705           77762                           VSR1
002043: 30,2706           02635                           STORE    W          +156D
002044: 30,2707           77624        S22SAVET           CALL
002045: 30,2710           62351                                    GETTF


002047: 30,2711           03672                           STORE    S22TPRIM                              #  SAVE PRESENT TIME FOR PIOS
002048: 30,2712           77776        S22I=N             EXIT                                           #  TEST I=N
002049: 30,2713           05412                           TC       PHASCHNG
002050: 30,2714           04022                           OCT      04022
002051: 30,2715           41746                           CS       8KK
002052: 30,2716           61747                           AD       8NN
002053: 30,2717           00006                           EXTEND
002054: 30,2720           63161                           BZMF     S22F244X                              #  EXIT TO FIGURE 2.4-4
002055: 30,2721           31746                           CA       8KK                                   #  I=I+1
002056: 30,2722           65017                           AD       ONE
002057: 30,2723           55300                           TS       TEMPOR1
002058: 30,2724           31750                           CA       S22LOC                                #  ADD 7 TO LOC TO GET ADDR. OF NEXT MARK
002059: 30,2725           65023                           AD       SEVEN
002060: 30,2726           55301                           TS       TEMPOR1    +1
002061: 30,2727           05412                           TC       PHASCHNG
002062: 30,2730           04022                           OCT      04022
002063: 30,2731           31300                           CA       TEMPOR1
002064: 30,2732           55746                           TS       8KK
002065: 30,2733           31301                           CA       TEMPOR1    +1
002066: 30,2734           55750                           TS       S22LOC
002067: 30,2735           06006                           TC       INTPRET
002068: 30,2736           77624                           CALL                                           #  FOR ALL INTEGRATIONS OTHER THAN FIRST
002069: 30,2737           27442        S2INTS1                     INTSTALL
002070: 30,2740           77624                           CALL
002071: 30,2741           62355                                    S22FLGS
002072: 30,2742           43014                           BON      CLEAR
002073: 30,2743           02706                                    DMENFLG
002074: 30,2744           60416                                    S22NXTIN                              #  RETURN ALWAYS EXCEPT OFFSET POINT MARK 1
002075: 30,2745           01676                                    DIM0FLAG
002076: 30,2746           43014                           BOFF     SET
002077: 30,2747           01751                                    ORBWFLAG
002078: 30,2750           60416                                    S22NXTIN                              #  OFFSET POINT MARK 1, NO W INTEGRATION
002079: 30,2751           01476                                    DIM0FLAG
002080: 30,2752           77614                           CLRGO
002081: 30,2753           01635                                    D6OR9FLG
002082: 30,2754           60416                                    S22NXTIN                              #  OFFSET POINT MARK 1, INTEGRATE W 6X6
002083: 30,2755           77624        S22OFF=I           CALL
002084: 30,2756           62351                                    GETTF
002085: 30,2757           27670                           STOVL    S22TOFF                               #  TIME SUB OFF
002086: 30,2760           01235                                    UM
002087: 30,2761           35215                           STCALL   S22UOFF                               #  U SUB OFF
002088: 30,2762           60712                                    S22I=N                                #  TEST I=N
002089: 30,2763           77775        S22D=9             VLOAD                                          #  D=9 PATH
002090: 30,2764           01701                                    X789
002091: 30,2765           14001                           STODL    0D                                    #  CALL PIOS TWICE TO TRANSFORM RL TO TIME
002092: 30,2766           03672                                    S22TPRIM                              #  T(SUB F) FROM TIME T PRIME
002093: 30,2767           00007                           STORE    6D
002094: 30,2770           45135                           SLOAD    CALL
002095: 30,2771           03674                                    S22EORM                               #  0=EARTH, NON-ZERO=MOON
002096: 30,2772           55371        S2RTRP                      R-TO-RP


002098: 30,2773           45006                           PUSH     CALL                                  #  R-TO-RP LEAVES PUSHLOC AT 0
002099: 30,2774           62351                                    GETTF
002100: 30,2775           00007                           STORE    6D
002101: 30,2776           45135                           SLOAD    CALL
002102: 30,2777           03674                                    S22EORM
002103: 30,3000           55344        S2RPTR                      RP-TO-R
002104: 30,3001           01701        S22BOX32           STORE    X789
002105: 30,3002           40014                           SET      BOV
002106: 30,3003           02464                                    INCORFLG                              #  FLAG=1
002107: 30,3004           61005                                    +1                                    #  CLEAR OVERFLOW
002108: 30,3005           77651                           VSU
002109: 30,3006           01207                                    CSMPOS
002110: 30,3007           03531                           STORE    RCLP                                  #  RCL=RL-RC
002111: 30,3010           47256                           UNIT     VXV                                   #  USTAR=UNIT(UNIT(RCL)XUM)
002112: 30,3011           01235                                    UM
002113: 30,3012           40056                           UNIT     BOV
002114: 30,3013           60707                                    S22SAVET                              #  COMPUTATION OVERFLOW, SAVE TF
002115: 30,3014           01245                           STORE    USTAR
002116: 30,3015           43014        S22BOX12           SET      SET
002117: 30,3016           02466                                    DMENFLG                               #  =1 FOR 9X9 W
002118: 30,3017           00467                                    VEHUPFLG                              #  =1 FOR CSM
002119: 30,3020           43345                           DLOAD    DAD
002120: 30,3021           21636                                    SCTVAR                                #  B+18
002121: 30,3022           21640                                    IMUVARR                               #  B+18
002122: 30,3023           27526                           STOVL    VARIANCE
002123: 30,3024           03531                                    RCLP                                  #  B-29 OR B-27
002124: 30,3025           60246                           ABVAL    NORM
002125: 30,3026           00047                                    X1
002126: 30,3027           41316                           DSQ      DMP
002127: 30,3030           03526                                    VARIANCE
002128: 30,3031           56070                           XAD,1    XAD,1
002129: 30,3032           00046                                    X1                                    #  DOUBLE NORM SHIFT SINCE RCLP WAS SQUARED
002130: 30,3033           03673                                    S22EORM                               #  DOUBLE EARTH OR MOON SHIFT, SAME REASON
002131: 30,3034           53670                           XAD,1    SR*
002132: 30,3035           03673                                    S22EORM
002133: 30,3036           20601                                    0,1                                   #  SCALE VARIANCE B-40 FOR BOTH EARTH, MOON
002134: 30,3037           77751                           TLOAD                                          #  CHANGE MODE TO TRIPLE
002135: 30,3040           00155                                    MPAC
002136: 30,3041           37526                           STCALL   VARIANCE                              #  CALC B0,B1,DELTAQ, NEW USTAR
002137: 30,3042           47043        S2BVTRS                     BVECTORS
002138: 30,3043           57575                           VLOAD    VCOMP
002139: 30,3044           03502                                    BVECTOR
002140: 30,3045           37516                           STCALL   BVECTOR    +12D                       #  B2=-B0
002141: 30,3046           75242        S2INCP1                     INCORP1
002142: 30,3047           77624                           CALL
002143: 30,3050           56750                                    GRP2PC
002144: 30,3051           43014                           BOFF     CLEAR
002145: 30,3052           01342                                    22DSPFLG                              #  =1 DISPLAY DELTA R,V    =0 DO NOT
002146: 30,3053           61104                                    S22BOX42
002147: 30,3054           01262                                    22DSPFLG


002149: 30,3055           77624                           CALL
002150: 30,3056           56750                                    GRP2PC
002151: 30,3057           51575                           VLOAD    ABVAL
002152: 30,3060           01257                                    DELTAX                                #  DELTA R
002153: 30,3061           53750                           LXA,1    SR*
002154: 30,3062           03673                                    S22EORM                               #  SCALE DELTA R ALWAYS METERS B-29
002155: 30,3063           20601                                    0,1
002156: 30,3064           27502                           STOVL    N49DISP
002157: 30,3065           01265                                    DELTAX     +6                         #  DELTA V
002158: 30,3066           53646                           ABVAL    SR*                                   #  DELTA V=METERS/CSEC B-7 ALWAYS
002159: 30,3067           20601                                    0,1
002160: 30,3070           03504                           STORE    N49DISP    +2
002161: 30,3071           77776                           EXIT
002162: 30,3072           33643                           CAF      V06N49EE
002163: 30,3073           04662                           TC       BANKCALL
002164: 30,3074           21057                           CADR     GOFLASHR
002165: 30,3075           04106                           TC       GOTOPOOH                              #  V34E TERMINATE
002166: 30,3076           03103                           TC       +5                                    #  INCORPORATE CHANGES
002167: 30,3077           03267                           TC       S22EXEX                               #  V32E RECYCLE
002168: 30,3100           35015                           CAF      BIT3
002169: 30,3101           05526                           TC       BLANKET
002170: 30,3102           05217                           TC       ENDOFJOB
002171: 30,3103           06006                           TC       INTPRET
002172: 30,3104           77624        S22BOX42           CALL
002173: 30,3105           75454                                    INCORP2
002174: 30,3106           77624                           CALL                                           #  CSMPOS=RC B-29 OR B-27
002175: 30,3107           61332                                    S22CALRC
002176: 30,3110           45014        DMPINCP2           BOFF     CALL
002177: 30,3111           02744                                    INCORFLG
002178: 30,3112           60707                                    S22SAVET                              #  SAVE TF AND TEST I=N
002179: 30,3113           56750                                    GRP2PC
002180: 30,3114           77214                           CLEAR    VLOAD
002181: 30,3115           02664                                    INCORFLG                              #  FLAG=0
002182: 30,3116           01701                                    X789
002183: 30,3117           77651                           VSU
002184: 30,3120           01207                                    CSMPOS
002185: 30,3121           37531                           STCALL   RCLP                                  #  RCL=RL-RC
002186: 30,3122           61015                                    S22BOX12
002187: 30,3123           66370        S22BOX22           AXT,1    SSP                                   #  CLEAR W6,W7,W8  (27 ELEMENTS 54 REGS)
002188: 30,3124           00066                           DEC      54         B-14
002189: 30,3125           00051                                    S1
002190: 30,3126           00006                           DEC      6          B-14
002191: 30,3127           77775                           VLOAD
002192: 30,3130           15335                                    ZEROVECS
002193: 30,3131           06643        CLRW678            STORE    W          +162D,1
002194: 30,3132           67300                           TIX,1    SLOAD
002195: 30,3133           61131                                    CLRW678
002196: 30,3134           02007                                    S22WSUBL
002197: 30,3135           02621                           STORE    W          +144D
002198: 30,3136           02631                           STORE    W          +152D


002200: 30,3137           02641                           STORE    W          +160D
002201: 30,3140           43014                           CLEAR    BOFF                                  #  SET LUNAFLAG, TIME FOR LALOTORV
002202: 30,3141           01663                                    LUNAFLAG                              #  ERADFLAG,LAT,LONG,ALT SET PREVIOUSLY
002203: 30,3142           04343                                    CMOONFLG                              #  CHECK SCALING OF ITEMS,ALT INPUT AND
002204: 30,3143           61146                                    S22BX22A                              #  RL OUTPUT IN ALPHAV BOTH B-29
002205: 30,3144           77614                           SET
002206: 30,3145           01463                                    LUNAFLAG
002207: 30,3146           77624        S22BX22A           CALL
002208: 30,3147           62351                                    GETTF
002209: 30,3150           77624                           CALL                                           #  COMPUTE RL
002210: 30,3151           26441                                    LALOTORV
002211: 30,3152           43175                           VLOAD    BOFF
002212: 30,3153           02152                                    ALPHAV                                #  RL B-29
002213: 30,3154           04343                                    CMOONFLG
002214: 30,3155           61157                                    S22BX22B
002215: 30,3156           77752                           VSL2                                           #  SCALE RL B-27 FOR MOON
002216: 30,3157           77650        S22BX22B           GOTO
002217: 30,3160           61001                                    S22BOX32
002218: 30,3161           06006        S22F244X           TC       INTPRET
002219: 30,3162           46135        S22F244            SLOAD    BHIZ                                  #  FIG 2.4-4     TEST OFF=0
002220: 30,3163           02746                                    CXOFF
002221: 30,3164           61220                                    S22BOX44
002222: 30,3165           77661                           SR                                             #  SCALE OFFSET B-14 THEN TEST GR. 8NN
002223: 30,3166           20612                                    9D
002224: 30,3167           02152                           STORE    ALPHAV                                #  TEMP
002225: 30,3170           45335                           SLOAD    DSU
002226: 30,3171           02750                                    8NN
002227: 30,3172           02152                                    ALPHAV
002228: 30,3173           45040                           BMN      CALL                                  #  OFFSET GR. NO. MARKS.  FORGET IT
002229: 30,3174           61220                                    S22BOX44
002230: 30,3175           56750                                    GRP2PC                                #  GROUP 2 PHASE CHANGE
002231: 30,3176           77745                           DLOAD
002232: 30,3177           03670                                    S22TOFF
002233: 30,3200           34041                           STCALL   TDEC1                                 #  CALC RC AT OFFSET TIME
002234: 30,3201           27071                                    CSMPREC
002235: 30,3202           77775                           VLOAD
002236: 30,3203           00017                                    RATT1                                 #  RC METERS B-29 OR B-27
002237: 30,3204           25207                           STOVL    CSMPOS
002238: 30,3205           01215                                    S22UOFF
002239: 30,3206           25235                           STOVL    UM                                    #  U=UOFF
002240: 30,3207           01701                                    X789
002241: 30,3210           43046                           ABVAL    BOFF
002242: 30,3211           04343                                    CMOONFLG
002243: 30,3212           61214                                    +2
002244: 30,3213           77702                           SR2                                            #  SCALE MOON R0 B-29 FOR S22F2410 SUBR
002245: 30,3214           36241                           STCALL   ERADM
002246: 30,3215           61277                                    S22F2410
002247: 30,3216           77650                           GOTO
002248: 30,3217           61223                                    S22BX44A
002249: 30,3220           77624        S22BOX44           CALL


002251: 30,3221           62351                                    GETTF
002252: 30,3222           03670                           STORE    S22TOFF                               #  PRESENT TIME FOR LAT-LONG SETUP
002253: 30,3223           77214        S22BX44A           CLEAR    VLOAD
002254: 30,3224           01663                                    LUNAFLAG
002255: 30,3225           01701                                    X789
002256: 30,3226           43014                           BOFF     SET
002257: 30,3227           04343                                    CMOONFLG
002258: 30,3230           61233                                    S22BX44B
002259: 30,3231           01463                                    LUNAFLAG                              #  SET = 1 FOR LAT-LONG
002260: 30,3232           77742                           VSR2                                           #  SCALE RL MOON B-29 FOR LAT-LONG
002261: 30,3233           16152        S22BX44B           STODL    ALPHAV                                #  RL SCALED B-29 FOR LAT-LONG
002262: 30,3234           03670                                    S22TOFF                               #  EITHER PRESENT OR OFFSET TIME
002263: 30,3235           77624                           CALL
002264: 30,3236           26370                                    LAT-LONG                              #  **** ALT OUTPUT ALWAYS B-29
002265: 30,3237           77624                           CALL                                           #  DISPLAY LAT/LONG/ALT
002266: 30,3240           62365                                    LLASRD
002267: 30,3241           77776                           EXIT
002268: 30,3242           33644                           CAF      V06N89B
002269: 30,3243           04662                           TC       BANKCALL
002270: 30,3244           20720                           CADR     GOFLASH
002271: 30,3245           03272                           TC       S22GTP                                #  V34E TERMINATE
002272: 30,3246           03250                           TC       +2                                    #  PROCEED       SAVE LANDING SITE COORD
002273: 30,3247           03263                           TC       S22.981X                              #  RECYCLE       POINT A IN GSOP
002274: 30,3250           06006                           TC       INTPRET
002275: 30,3251           77745                           DLOAD
002276: 30,3252           03670                                    S22TOFF                               #  EITHER PRESENT OR OFFSET TIME
002277: 30,3253           24007                           STOVL    6D                                    #  6-7D= LANDING SITE TIME FOR R-TO-RP
002278: 30,3254           01701                                    X789
002279: 30,3255           00001                           STORE    0D                                    #  0-5D= LANDING SITE VEC FOR R-TO-RP
002280: 30,3256           45135                           SLOAD    CALL
002281: 30,3257           15333                                    HIDPHALF                              #  ANY NON-ZERO FOR MOON
002282: 30,3260           55371                                    R-TO-RP                               #  CONVERT RLS TO MOON-FIXED COORD
002283: 30,3261           02026                           STORE    RLS                                   #  LANDING SITE VECTOR
002284: 30,3262           77776                           EXIT
002285: 30,3263           06006        S22.981X           TC       INTPRET
002286: 30,3264           77624                           CALL
002287: 30,3265           61342                                    9DWTO6DW
002288: 30,3266           77776                           EXIT                                           #  GO TO POINT A IN CHAPTER 5
002289: 30,3267           06006        S22EXEX            TC       INTPRET                               #  WITHOUT CONVERTING W
002290: 30,3270           77650                           GOTO
002291: 30,3271           03703                                    S22RTNEX
002292:
002293: 30,3272           06006        S22GTP             TC       INTPRET                               #  CONVERT W BEFORE TC GOTOPOOH
002294: 30,3273           77624                           CALL
002295: 30,3274           61342                                    9DWTO6DW
002296: 30,3275           77776                           EXIT
002297: 30,3276           04106                           TC       GOTOPOOH
002298: 30,3277           77201        S22F2410           SETPD    VLOAD                                 #  COMPUTE FORMULA 2.4.10
002299: 30,3300           00001                                    0D
002300: 30,3301           01207                                    CSMPOS                                #  RC B-29 EARTH, B-27 MOON


002302: 30,3302           50256                           UNIT     DOT                                   #  UNIT ALSO SETS 36D=ABVAL(RC) USED BELOW
002303: 30,3303           01235                                    UM
002304: 30,3304           57552                           SL1      DCOMP                                 #  GSOP CHANGE 8/18/67
002305: 30,3305           77606                           PUSH                                           #  PD 2D 0D=COSA=-(UM.RC)/ABVAL(RC)      B-1
002306: 30,3306           44316                           DSQ      BDSU
002307: 30,3307           21642                                    DEC1B2
002308: 30,3310           43125                           PDDL     BOFF                                  #  PD 4D 2D=1-COSA SQ=SINA SQ            B-2
002309: 30,3311           02241                                    ERADM                                 #  R0 ALWAYS B-29 FROM SETRE
002310: 30,3312           04343                                    CMOONFLG
002311: 30,3313           61315                                    +2
002312: 30,3314           77712                           SL2                                            #  SCALE R0 B-27 FOR MOON
002313: 30,3315           56362                           SR1R     DDV                                   #  (R0/RC)       B-1
002314: 30,3316           00045                                    36D
002315: 30,3317           45316                           DSQ      DSU                                   #  PD 2D (R0/RC) SQ - SINA SQ            B-2
002316: 30,3320           44366                           SQRT     BDSU                                  #  PD 0D COSA-SQRT((R0/RC)SQ-SINA SQ)    B-1
002317: 30,3321           77605                           DMP                                            #  DMP RESULT B-28 MOON, B-30 EARTH
002318: 30,3322           00045                                    36D                                   #  VXSC RESULT B-29 MOON, B-31 EARTH
002319: 30,3323           00041                           STORE    S22RHO                                #  RHO FOR W INIT. OF UNKNOWN LMK B-28,B-30
002320: 30,3324           77761                           VXSC
002321: 30,3325           01235                                    UM
002322: 30,3326           53352                           VSL2     VAD                                   #  SCALE B-27 MOON, B-29 EARTH AND ADD RC
002323: 30,3327           01207                                    CSMPOS
002324: 30,3330           01701                           STORE    X789
002325: 30,3331           77616                           RVQ                                            #  B-27 FOR EARTH OR B-29 FOR MOON
002326: 30,3332           77350        S22CALRC           LXA,1    VLOAD                                 #  COMPUTE RC B-29 OR B-27
002327: 30,3333           03673                                    S22EORM                               #  =0 FOR EARTH, -2 FOR MOON
002328: 30,3334           01573                                    DELTACSM
002329: 30,3335           53257                           VSR*     VAD
002330: 30,3336           20610                                    7,1
002331: 30,3337           01607                                    RCVCSM
002332: 30,3340           01207                           STORE    CSMPOS
002333: 30,3341           77616                           RVQ
002334: 31,2000                                           SETLOC   P22S
002335: 31,2000                                           BANK
002336:
002337: 31,2332           00031        S2231X13           STORE    S221X3                                #  MULT 3X1 BY 1X3, STORE RESULTING 3X3 IN
002338: 31,2333           77131                           SSP      AXT,2                                 #  S22UMRL - S22UMRL+17D
002339: 31,2334           00052                                    S2
002340: 31,2335           00002                           DEC      2          B-14
002341: 31,2336           00006                           DEC      6          B-14
002342: 31,2337           77770                           AXT,1
002343: 31,2340           00022                           DEC      18         B-14
002344: 31,2341           73775        S2231NXT           VLOAD    VXSC*
002345: 31,2342           00031                                    S221X3
002346: 31,2343           77746                                    S223X1     +6,2
002347: 31,2344           07524                           STORE    S22UMRL    +18D,1
002348: 31,2345           61110                           INCR,1   TIX,2
002349: 31,2346           77771                           DEC      -6         B-14
002350: 31,2347           62341                                    S2231NXT
002351: 31,2350           77616                           RVQ


002353: 31,2351           70740        GETTF              LXC,1    DLOAD*                                #  SET MPAC= TF
002354: 31,2352           02750                                    S22LOC
002355: 31,2353           00001                                    0,1
002356: 31,2354           77616                           RVQ
002357: 31,2355           43014        S22FLGS            SET      SET                                   #  INTEGRATION FLAGS
002358: 31,2356           01476                                    DIM0FLAG
002359: 31,2357           01475                                    D6OR9FLG
002360: 31,2360           43014                           SET      SET
002361: 31,2361           01474                                    VINTFLAG
002362: 31,2362           01472                                    STATEFLG
002363: 31,2363           43414                           CLEAR    RVQ
002364: 31,2364           01673                                    INTYPFLG
002365:
002366:                                                                                                  #  SUBROUTINE TO MODIFY ALT AND STORE LAT TO LAT+5 IN LANDLAT TO LANDLAT+5
002367:                                                                                                  #  PRIOR TO DISPLAY.
002368:
002369: 31,2365           77745        LLASRD             DLOAD                                          #  ALT, LANDALT METERS B-29
002370: 31,2366           01110                                    ALT
002371: 31,2367           16362                           STODL    LANDALT
002372: 31,2370           01106                                    LONG
002373: 31,2371           77742                           SR1
002374: 31,2372           02360                           STORE    LANDLONG
002375: 31,2373           77616                           RVQ
002376:
002377:                                                                                                  #  SUBROUTINE TO MODIFY LANDALT AND STORE LANDALT TO LANDALT+5 IN LAT TO
002378:                                                                                                  #  LAT+5 AFTER LMK DATA LOADED BY ASTRONAUT.
002379:
002380: 31,2374           77745        LLASRDA            DLOAD                                          #  ALT, LANDALT METERS B-29
002381: 31,2375           02362                                    LANDALT
002382: 31,2376           15110                           STODL    ALT
002383: 31,2377           02360                                    LANDLONG
002384: 31,2400           77752                           SL1
002385: 31,2401           01106                           STORE    LONG
002386: 31,2402           77616                           RVQ
002387: 30,2000                                           SETLOC   P20S6
002388: 30,2000                                           BANK
002389:
002390: 30,3342           40220        9DWTO6DW           STQ      SETPD
002391: 30,3343           01214                                    9DWXX
002392: 30,3344           00001                                    0D
002393: 30,3345           41575                           VLOAD    PUSH                                  #  CLEAR WORKING AREA OF PUSHLIST
002394: 30,3346           15335                                    HI6ZEROS                              #  INCLUDING P
002395: 30,3347           41406                           PUSH     PUSH                                  #  PD 18D
002396: 30,3350           77731                           SSP
002397: 30,3351           00017                                    9DWJ                                  #  J=29  USE 2*29 FOR DP WORDS
002398: 30,3352           00072                           DEC      58         B-14
002399: 30,3353           66150        9DWI=J             LXA,1    SXA,1                                 #  SET I=J
002400: 30,3354           00016                                    9DWJ
002401: 30,3355           00012                                    9DWI
002402: 30,3356           77624        9DWEPCAL           CALL


002404: 30,3357           61574                                    ROWDOT
002405: 30,3360           77750                           LXA,1                                          #  P VARIES 0-20 INSTEAD OF 20-0
002406: 30,3361           00010                                    9DWP
002407: 30,3362           06641                           STORE    EMATRIX    +40D,1
002408: 30,3363           66110                           INCR,1   SXA,1
002409: 30,3364           00002                           DEC      2          B-14
002410: 30,3365           00010                                    9DWP
002411: 30,3366           46135                           SLOAD    BHIZ                                  #  TEST I=0
002412: 30,3367           00013                                    9DWI
002413: 30,3370           61405                                    9DWTESTJ
002414: 30,3371           77625                           DSU                                            #  I=I-1
002415: 30,3372           21634                                    9DWID
002416: 30,3373           00013                           STORE    9DWI
002417: 30,3374           46025                           DSU      BHIZ                                  #  TEST I=26
002418: 30,3375           21632                                    9DW26D
002419: 30,3376           61401                                    9DWSETI2
002420: 30,3377           77650                           GOTO                                           #  NEXT E SUB P
002421: 30,3400           61356                                    9DWEPCAL
002422: 30,3401           52131        9DWSETI2           SSP      GOTO                                  #  I=2
002423: 30,3402           00013                                    9DWI
002424: 30,3403           00004                           DEC      4          B-14
002425: 30,3404           61356                                    9DWEPCAL
002426: 30,3405           46135        9DWTESTJ           SLOAD    BHIZ                                  #  TEST J=0
002427: 30,3406           00017                                    9DWJ
002428: 30,3407           61424                                    9DWFIG6
002429: 30,3410           77625                           DSU
002430: 30,3411           21634                                    9DWID
002431: 30,3412           00017                           STORE    9DWJ                                  #  J=J-1
002432: 30,3413           46025                           DSU      BHIZ                                  #  TEST J=26
002433: 30,3414           21632                                    9DW26D
002434: 30,3415           61420                                    9DWSETJ2
002435: 30,3416           77650                           GOTO
002436: 30,3417           61353                                    9DWI=J
002437: 30,3420           52131        9DWSETJ2           SSP      GOTO                                  #  SET J=2
002438: 30,3421           00017                                    9DWJ
002439: 30,3422           00004                           DEC      4          B-14
002440: 30,3423           61353                                    9DWI=J
002441: 30,3424           77624        9DWFIG6            CALL
002442: 30,3425           56750                                    GRP2PC
002443: 30,3426           77331                           SSP      VLOAD                                 #  START OF FIGURE 2.4-6
002444: 30,3427           00017                                    9DWJ                                  #  J=29
002445: 30,3430           00072                           DEC      58         B-14
002446: 30,3431           15335                                    HI6ZEROS
002447: 30,3432           00011                           STORE    9DWP                                  #  P,N,I=0
002448: 30,3433           66370                           AXT,1    SSP
002449: 30,3434           00154                           DEC      108        B-14                       #  CLEAR WO TO W54
002450: 30,3435           00051                                    S1
002451: 30,3436           00006                                    6
002452: 30,3437           06555        CLEARW54           STORE    W          +108D,1
002453: 30,3440           77700                           TIX,1


002455: 30,3441           61437                                    CLEARW54
002456: 30,3442           66150        9DWI=JA            LXA,1    SXA,1                                 #  I=J
002457: 30,3443           00016                                    9DWJ
002458: 30,3444           00012                                    9DWI
002459: 30,3445           77624                           CALL
002460: 30,3446           61574                                    ROWDOT
002461: 30,3447           43750                           LXA,1    BDSU*
002462: 30,3450           00010                                    9DWP
002463: 30,3451           02641                                    EMATRIX    +40D,1
002464: 30,3452           66110                           INCR,1   SXA,1                                 #  -(P+1)
002465: 30,3453           00002                                    2
002466: 30,3454           00010                                    9DWP
002467: 30,3455           54140                           LXC,1    XSU,1                                 #  -(I+N)
002468: 30,3456           00012                                    9DWI
002469: 30,3457           00014                                    9DWN
002470: 30,3460           71244                           BPL      DLOAD                                 #  TEST WSQ LTE 0
002471: 30,3461           61465                                    9DWAAA
002472: 30,3462           15335                                    HI6ZEROS                              #  W=0
002473: 30,3463           77650                           GOTO
002474: 30,3464           61466                                    9DWAAB
002475: 30,3465           77766        9DWAAA             SQRT                                           #  W= SQRT(WSQ)
002476: 30,3466           06401        9DWAAB             STORE    W,1
002477: 30,3467           14001                           STODL    WORKW
002478: 30,3470           00017                                    9DWJ                                  #  TEST J=0
002479: 30,3471           77630                           BHIZ
002480: 30,3472           61560                                    9DWEXITX                              #  EXIT
002481: 30,3473           46135        TST2I=0            SLOAD    BHIZ                                  #  TEST I=0
002482: 30,3474           00013                                    9DWI
002483: 30,3475           61536                                    9DWN=N+3
002484: 30,3476           77625                           DSU
002485: 30,3477           21634                                    9DWID
002486: 30,3500           00013                           STORE    9DWI                                  #  I=I-1
002487: 30,3501           46025                           DSU      BHIZ                                  #  TEST I=26
002488: 30,3502           21632                                    9DW26D
002489: 30,3503           61506                                    9DWAAC
002490: 30,3504           77650                           GOTO
002491: 30,3505           61511                                    9DWNEXEP
002492: 30,3506           77731        9DWAAC             SSP                                            #  I=2
002493: 30,3507           00013                                    9DWI
002494: 30,3510           00004                                    4
002495: 30,3511           77624        9DWNEXEP           CALL
002496: 30,3512           61574                                    ROWDOT
002497: 30,3513           43750                           LXA,1    BDSU*                                 #  (EP-ROWI*ROWJ)/W
002498: 30,3514           00010                                    9DWP
002499: 30,3515           02641                                    EMATRIX    +40D,1
002500: 30,3516           62071                           DDV      INCR,1                                #  P=P+1
002501: 30,3517           00001                                    WORKW
002502: 30,3520           00002                                    2
002503: 30,3521           70130                           SXA,1    LXC,1
002504: 30,3522           00010                                    9DWP


002506: 30,3523           00012                                    9DWI
002507: 30,3524           40060                           XSU,1    BOV                                   #  -(I+N)
002508: 30,3525           00014                                    9DWN
002509: 30,3526           61531                                    SETWIN=0
002510: 30,3527           77650                           GOTO
002511: 30,3530           61533                                    9DWSETWX
002512: 30,3531           77745        SETWIN=0           DLOAD                                          #  W(I+N)=0
002513: 30,3532           15335                                    HI6ZEROS
002514: 30,3533           06401        9DWSETWX           STORE    W,1
002515: 30,3534           77650                           GOTO
002516: 30,3535           61473                                    TST2I=0
002517: 30,3536           62150        9DWN=N+3           LXA,1    INCR,1                                #  N=N+3
002518: 30,3537           00014                                    9DWN
002519: 30,3540           00006                                    6
002520: 30,3541           67330                           SXA,1    SLOAD                                 #  J=J-1
002521: 30,3542           00014                                    9DWN
002522: 30,3543           00017                                    9DWJ
002523: 30,3544           77625                           DSU
002524: 30,3545           21634                                    9DWID
002525: 30,3546           00017                           STORE    9DWJ
002526: 30,3547           46025                           DSU      BHIZ                                  #  TEST J=26
002527: 30,3550           21632                                    9DW26D
002528: 30,3551           61554                                    SETJ=2A
002529: 30,3552           77650                           GOTO
002530: 30,3553           61442                                    9DWI=JA
002531: 30,3554           52131        SETJ=2A            SSP      GOTO                                  #  J=2
002532: 30,3555           00017                                    9DWJ
002533: 30,3556           00004                                    4
002534: 30,3557           61442                                    9DWI=JA
002535: 30,3560           77624        9DWEXITX           CALL
002536: 30,3561           56750                                    GRP2PC
002537: 30,3562           66370                           AXT,1    SSP                                   #  CLEAR W6,W7,W8 USED TEMP FOR EMATRIX
002538: 30,3563           00066                           DEC      54         B-14
002539: 30,3564           00051                                    S1
002540: 30,3565           00006                                    6
002541: 30,3566           77775                           VLOAD
002542: 30,3567           15335                                    HI6ZEROS
002543: 30,3570           06643        9DWEXXXA           STORE    W          +162D,1
002544: 30,3571           52100                           TIX,1    GOTO
002545: 30,3572           61570                                    9DWEXXXA
002546: 30,3573           01214                                    9DWXX
002547: 30,3574           40131        ROWDOT             SSP      BOV
002548: 30,3575           00007                                    XTMP1
002549: 30,3576           00377                           OCT      377
002550: 30,3577           61600                                    +1
002551: 30,3600           71140                           LXC,1    LXC,2
002552: 30,3601           00012                                    9DWI
002553: 30,3602           00016                                    9DWJ
002554: 30,3603           41545                           DLOAD    PUSH
002555: 30,3604           15335                                    HI6ZEROS


002557: 30,3605           56743        ROWDOT1            DLOAD*   DMPR*
002558: 30,3606           02401                                    W,1
002559: 30,3607           75376                                    W,2
002560: 30,3610           41415                           DAD      PUSH
002561: 30,3611           62000                           BOV      INCR,1
002562: 30,3612           61626                                    ROWDOT3
002563: 30,3613           77771                           DEC      -6         B-14
002564: 30,3614           67314                           INCR,2   SLOAD
002565: 30,3615           77771                           DEC      -6         B-14
002566: 30,3616           00007                                    XTMP1
002567: 30,3617           70430                           BHIZ     SR1
002568: 30,3620           61624                                    ROWDOT2
002569: 30,3621           00007                           STORE    XTMP1
002570: 30,3622           77650                           GOTO
002571: 30,3623           61605                                    ROWDOT1
002572: 30,3624           77745        ROWDOT2            DLOAD
002573: 30,3625           77616                           RVQ
002574: 30,3626           77614        ROWDOT3            CLRGO
002575: 30,3627           01631                                    ORBWFLAG
002576: 30,3630           61624                                    ROWDOT2
002577: 30,3631                        WORKW              =        0D
002578: 30,3631                        XTMP1              =        6D
002579: 30,3631                        9DWP               =        8D                                    #  P
002580: 30,3631                        9DWI               =        10D                                   #  I
002581: 30,3631                        9DWN               =        12D                                   #  N
002582: 30,3631                        9DWJ               =        14D                                   #  J
002583: 30,3631     1214               9DWXX              =        S22UOFF
002584: 30,3631  E7,1501               S22UMRL            =        BVECTOR                               #  18
002585: 30,3631     1256               S22UUT             =        DELTAX                                #  18
002586: 30,3631                        S223X1             =        18D                                   #  6
002587: 30,3631                        S221X3             =        24D                                   #  6
002588: 30,3631                        S22D               =        30D                                   #  2
002589: 30,3631                        S22RHO             =        32D                                   #  2
002590: 30,3631  E5,1634               S22RL              =        W          +156D                      #  6
002591: 30,3631           00064 00000  9DW26D             2DEC     52         B-14
002592: 30,3633           00002 00000  9DWID              2DEC     2          B-14
002593: 30,3635           10306 36750  SCTVAR             2DEC     1.0        E-6        B+18
002594: 30,3637           00253 31436  IMUVARR            2DEC     0.04       E-6        B+18
002595: 30,3641           10000 00000  DEC1B2             2DEC     1          B-2
002596: 30,3643           01461        V06N49EE           VN       00649
002597: 30,3644           01531        V06N89B            VN       00689
002598: 30,3645     1214               S22UOFF            =        LEMPOS                                #  6     U SUB OFF
002599: 23,2000                                           SETLOC   P20S2
002600: 23,2000                                           BANK


002603:


002605:                                                                                                  #  SUBROUTINE NAME:  V89CALL
002606:                                                                                                  #  MOD NO:  0                                    DATE: 8 FEB 1968
002607:                                                                                                  #  MOD BY:  DIGITAL DEVEL GROUP                  LOG SECTION:  P20-P25
002608:
002609:                                                                                                  #  FUNCTIONAL DESCRIPTION:
002610:
002611:                                                                                                  #  CALLED BY VERB 89 ENTER DURING P00.  PRIO 10 USED.  CALCULATES AND
002612:                                                                                                  #  DISPLAYS FINAL GIMBAL ANGLES TO POINT CSM +X AXIS OR PREFERRED AXIS
002613:                                                                                                  #  (UNIT(Z)COS55 DEG + UNIT(X)SIN55 DEG) AT LM.
002614:
002615:                                                                                                  #  1. KEY IN V89 E ONLY IF IN PROG 00. IF NOT IN P00, OPERATOR ERROR AND
002616:                                                                                                  #  EXIT R63, OTHERWISE CONTINUE.
002617:
002618:                                                                                                  #  2. IF IN P00, DO IMU STATUS CHECK (R02BOTH).  IF IMU ON AND ITS
002619:                                                                                                  #  ORIENTATION KNOWN TO CGC, CONTINUE.
002620:
002621:                                                                                                  #  3. FLASH DISPLAY V 04 N 06.  R2 INDICATES WHICH SPACECRAFT AXIS IS TO
002622:                                                                                                  #  BE POINTED AT LM.  INITIAL CHOICE IS PREFERRED AXIS.  (R2=1).
002623:                                                                                                  #  ASTRONAUT CAN CHANGE TO (+X) AXIS (R2 NOT= 1) BY V22 E 2 E.  CONTINUE
002624:                                                                                                  #  AFTER KEYING IN PROCEED.
002625:
002626:                                                                                                  #  4. SET PREFERRED ATTITUDE FLAG ACCORDING TO OPTION DESIRED.  SET FLAG
002627:                                                                                                  #  FOR PREFERRED AXIS.  RESET FLAG FOR X AXIS.
002628:
002629:                                                                                                  #  5. CURRENT TIME IS STORED AND R63COMP IS CALLED
002630:
002631:                                                                                                  #        R63COMP JOB:
002632:                                                                                                  #
002633:                                                                                                  #                UPDATES CSM AND LM STATE VECTORS USING CONIC EQUATIONS
002634:
002635:                                                                                                  #                CALCULATES BOTH PREFERRED AND X AXIS TRACKING ATT FROM 3SM TO LM.
002636:
002637:                                                                                                  #                DESIRED GIMBAL ANGLES AS INDICATED BY PREFERRED ATTITUDE FLAG
002638:                                                                                                  #                ARE STORED FOR LATER R60CSM CALL.
002639:
002640:                                                                                                  #  6. FLASH DISPLAY V 06 N18 AND AWAIT RESPONSE.
002641:
002642:                                                                                                  #  7. RECYCLE-  RETURN TO STEP 5.
002643:                                                                                                  #     TERMINATE- EXIT R63 ROUTINE
002644:                                                                                                  #     PROCEED-  RESET 3AXISFLG AND CALL R60CSM FOR ATTITUDE MANEUVER.
002645:
002646:                                                                                                  #  CALLING SEQUENCE:     V 89 E
002647:
002648:                                                                                                  #  SUBROUTINES CALLED:  CHKPOOH, R02BOTH, GOXDSPF, R63COMP, R60CSM
002649:
002650:                                                                                                  #  ALARMS        1.  OPERATOR ERROR IF NOT IN P00
002651:                                                                                                  #                2.  PROGRAM ALARM IF IMU IS OFF
002652:                                                                                                  #                3.  PROGRAM ALARM IF IMU ORIENTATION IS UNKNOWN


002654:
002655:                                                                                                  #  ERASABLE INITIALIZATION REQUIRED:  NONE
002656:
002657:                                                                                                  #  DEBRIS:  OPTION1, OPTION1+1, PRFTRKAT(PREF ATT FLAG), P21TIME, 3AXISFLG
002658:
002659: 23,3132           00000 13560  DP1MIN             2DEC     6000       B-28
002660: 23,3134  E4,1715                                  EBANK=   P21TIME
002661: 34,3712                                           BANK     34
002662: 34,2000                                           SETLOC   P20S4
002663: 34,2000                                           BANK
002664: 34,3712                                           COUNT*   $$/R63
002665:
002666: 34,3712           04662        V89CALL            TC       BANKCALL                              #  IMU STATUS CHECK. RETURNS IF ORIENTATION
002667: 34,3713           17653                           CADR     R02BOTH                               #  KNOWN.  ALARMS IF NOT.
002668: 34,3714           36214                           CAF      THREE                                 #  ALLOW ASTRONAUT TO SELECT DESIRED
002669: 34,3715           55131                           TS       OPTION1                               #  TRACKING ATTITUDE AXIS.
002670: 34,3716           35017                           CAF      ONE
002671: 34,3717           55132                           TS       OPTION1    +1
002672: 34,3720           33761                           CAF      VB04N06                               #  V 04 N 06
002673: 34,3721           04662                           TC       BANKCALL
002674: 34,3722           20720                           CADR     GOFLASH
002675: 34,3723           05534                           TC       ENDEXT                                #  TERMINATE
002676: 34,3724           03726                           TC       +2                                    #  PROCEED
002677: 34,3725           03720                           TC       -5                                    #  DATA IN.  OPTION1 +1 = 1 FOR PREF AXIS
002678:                                                                                                  #                       = 2 FOR X AXIS
002679: 34,3726           41132                           CS       OPTION1    +1                         #  1 FOR PREF AXIS.  2 FOR X AXIS.
002680: 34,3727           65017                           AD       ONE
002681: 34,3730           00006                           EXTEND
002682: 34,3731           13756                           BZF      SETPAF
002683: 34,3732           05560        RSTPAF             TC       DOWNFLAG                              #  RESET PREF ATT FLAG FOR R63COMP
002684: 34,3733           00120                           ADRES    RNGSCFLG                              #  TO DO X AXIS.  RESET BIT 10 FLAG 5
002685: 34,3734           06006        V89RECL            TC       INTPRET
002686: 34,3735           43234                           RTB      DAD
002687: 34,3736           45510                                    LOADTIME                              #  READ PRESENT TIME
002688: 34,3737           07133                                    DP1MIN                                #  INTEGRATE TO 1 MIN FROM NOW
002689: 34,3740           36316                           STCALL   P21TIME                               #  STORE TIME FOR CALL TO R63COMP.  R63COMP
002690: 34,3741           71572                                    R63COMP                               #  LEAVES DESIRED GIM ANGS IN THETAD, LOS IN
002691: 34,3742           77776                           EXIT                                           #  POINTVSM, AND SELECTED AXIS IN SCAXIS.
002692: 34,3743           33762                           CAF      VB06N18                               #  V 06 N 18
002693: 34,3744           04662                           TC       BANKCALL                              #  NOUN 18 REFERS TO THE DESIRED GIMBAL
002694: 34,3745           20720                           CADR     GOFLASH
002695: 34,3746           05534                           TC       ENDEXT                                #  TERMINATE
002696: 34,3747           03751                           TC       +2                                    #  PROCEED
002697: 34,3750           03734                           TC       V89RECL                               #  RECYCLE
002698: 34,3751           05560                           TC       DOWNFLAG                              #  RESET 3 AXIS FLAG
002699: 34,3752           00124                           ADRES    3AXISFLG                              #  RESET BIT 6 FLAG 5


002701: 34,3753           04662                           TC       BANKCALL                              #  PERFORMS CSM MANEUVER TO ALIGN SELECTED
002702: 34,3754           56000                           CADR     R60CSM                                #  SPACECRAFT AXIS TO LOS.
002703: 34,3755           15534                           TCF      ENDEXT
002704:
002705: 34,3756           05546        SETPAF             TC       UPFLAG                                #  SET PREFERRED ATT FLAG FOR R63COMP
002706: 34,3757           00120                           ADRES    RNGSCFLG                              #  TO DO PREF AXIS.  SET BIT 10 FLAG 5.
002707: 34,3760           03734                           TC       V89RECL
002708:
002709: 34,3761           01006        VB04N06            VN       0406
002710: 34,3762           01422        VB06N18            VN       0618
002711:
002712: 34,3763  34,3572               R63COMP            EQUALS   R63
002713:


002715:                                                                                                  #  PROGRAM NAME-  P23 CISLUNAR MIDCOURSE NAVIGATION
002716:                                                                                                  #  MOD NO
002717:                                                                                                  #  MOD BY-  TOM KNATT
002718:                                                                                                  #  FUNCTIONAL DESCRIPTION-  DO MIDCOURSE NAVIGATION BY INCORPORATION OF STAR
002719:                                                                                                  #  /EARTH AND STAR/MOON OPTICAL MEASUREMENTS.
002720:                                                                                                  #  CALLING SEQUENCE-  ASTRONAUT OPERATED
002721:                                                                                                  #  SUBROUTINES CALLED-  R52,R53,R57,R60,ORBITAL INTEGRATION (INTEGRV)
002722:                                                                                                  #  INCORP1,INCORP2,LALOTORV,LUNLMKLD, AND DISPLAY INTERFACE ROUTINES.
002723:                                                                                                  #  NORMAL EXIT MODES-  VIA ROO
002724:                                                                                                  #  ALARMS-  NONE
002725:                                                                                                  #  ABORT MODES-  NONE
002726:                                                                                                  #  ERASABLE INITIALIZATION REQUIRED-  PAD-LOADED ERASABLES, ORBWFLAG RESET,
002727:                                                                                                  #  REFSMFLG=0 IF IMU OFF AND REFSMFLG=1 IF IMU ON
002728:                                                                                                  #  INPUTS BY USER REQUIRED-  STAR NUMBER, LANDMARK LAT, LONG/2, ALT OR ID NUMB.
002729:                                                                                                  #  IF LANDMARK IS USED, NEAR OR FAR HORIZON IF HORIZON IS USED, AND
002730:                                                                                                  #  BODY TO BE MARKED ON (EARTH OR MOON).  SEE GSOP CHAPT 4.
002731:                                                                                                  #  OUTPUT-  UPDATED CMC STATE VECTOR.  VECTOR FROM S/C TO HORIZON OR LANDMARK
002732:                                                                                                  #  IN POINTAXS.  POINTAXS CAN BE USED TO GENERATE THIS VECTOR APART FROM
002733:                                                                                                  #  P23 IF DESIRED.
002734:                                                                                                  #  DEBRIS-  NO USABLE DEBRIS IS GENERATED.  RENDWFLG IS RESET FOR P20 UPON
002735:                                                                                                  #  COMPLETION OF P23.  RUPTREGS AND ERASABLES USED BY DISPLAYS ARE DEBRIS
002736:
002737: 31,2403                                           BANK     31
002738: 31,2000                                           SETLOC   RT23
002739: 31,2000                                           BANK
002740: 31,2403                                           COUNT    31/S23
002741: 31,2403  E5,1400                                  EBANK=   W
002742: 31,2403           05560        P23                TC       DOWNFLAG
002743: 31,2404           00010                           ADRES    RNDVZFLG
002744:
002745: 31,2405           05372                           TC       2PHSCHNG
002746: 31,2406           00004                           OCT      00004                                 #  LEAVE GROUP 4
002747: 31,2407           00012                           OCT      00012                                 #  ENTER GROUP 2
002748: 31,2410           35065                           CAF      PRIO13
002749: 31,2411           55056                           TS       PHSPRDT2
002750: 31,2412           06006                           TC       INTPRET
002751: 31,2413           43131                           SSP      CLEAR
002752: 31,2414           00302                                    MARKINDX
002753: 31,2415           00001                                    1
002754: 31,2416           00666                                    TARG2FLG                              #  TARGET FLAG USED BY R52 AND R53
002755: 31,2417           66214                           CLEAR    SSP
002756: 31,2420           00665                                    TARG1FLG
002757: 31,2421           00305                                    STARIND
002758: 31,2422           00000                                    0
002759: 31,2423           43131                           SSP      CLEAR
002760: 31,2424           00303                                    BESTI
002761: 31,2425           00000                                    0
002762: 31,2426           03267                                    R57FLAG                               #  SET = DO NOT REPERFORM R57
002763: 31,2427           77414                           CLEAR    EXIT
002764: 31,2430           04664                                    V94FLAG                               #  SET = ALLOW V94
002765: 31,2431           06006        P23.00             TC       INTPRET


002767: 31,2432           45014                           BON      CALL
002768: 31,2433           01702                                    REFSMFLG                              #  SET NOW AS INPUT, NORMALLY EXTERNAL CONT
002769: 31,2434           62442                                    P23.05                                #  WHEN ALIGNED, PERFORM MEASUREMENT
002770: 31,2435           76400                                    R57                                   #  DO OPTICS CALIBRATION IF IMU NOT ALIGNED
002771: 31,2436           77624                           CALL
002772: 31,2437           31301                                    R53
002773: 31,2440           77650                           GOTO
002774: 31,2441           62641                                    P23.60
002775: 31,2442           77414        P23.05             CLEAR    EXIT
002776: 31,2443           04665                                    SAVECFLG                              #  USED TO SAVE SPACE IN P23.65
002777: 31,2444           33456        P23.06             CAF      V05N70
002778: 31,2445           04662                           TC       BANKCALL                              #  IDENTIFICATION-STAR,HOR  IDENT.
002779: 31,2446           20720                           CADR     GOFLASH
002780: 31,2447           04106                           TC       GOTOPOOH                              #  TERMINATE
002781: 31,2450           02452                           TC       P23.15
002782: 31,2451           02444                           TC       -5                                    #  REDISPLAY
002783: 31,2452           31751        P23.15             CA       LANDMARK                              #  IF C=2, LUNAFLAG=1.  IF C=1, LUNAFLAG=0
002784: 31,2453           00006                           EXTEND
002785: 31,2454           12463                           BZF      P23.151
002786: 31,2455           31752                           CA       HORIZON
002787: 31,2456           00006                           EXTEND
002788: 31,2457           12461                           BZF      +2
002789: 31,2460           03134                           TC       R23.10                                #  OPERATOR DSKY ERROR
002790: 31,2461           31751                           CA       LANDMARK
002791: 31,2462           02466                           TC       P23.152
002792: 31,2463           31752        P23.151            CA       HORIZON
002793: 31,2464           00006                           EXTEND
002794: 31,2465           13134                           BZF      R23.10
002795: 31,2466           73473        P23.152            MASK     BITS7-9                               #  IS C EQUAL TO 1 OR 2
002796: 31,2467           65234                           AD       NEG100
002797: 31,2470           00006                           EXTEND
002798: 31,2471           12501                           BZF      P23.16
002799: 31,2472           65234                           AD       NEG100
002800: 31,2473           00006                           EXTEND
002801: 31,2474           12476                           BZF      +2
002802: 31,2475           03134                           TC       R23.10
002803: 31,2476           05546                           TC       UPFLAG
002804: 31,2477           00060                           ADRES    LUNAFLAG
002805: 31,2500           12503                           TCF      +3
002806: 31,2501           05560        P23.16             TC       DOWNFLAG
002807: 31,2502           00060                           ADRES    LUNAFLAG
002808: 31,2503           30735                           CA       STARCODE                              #  IS STARCODE GREATER THAN OR
002809: 31,2504           00006                           EXTEND                                         #  EQUAL TO 0 AND LESS THAN 37
002810: 31,2505           12532                           BZF      P23.176
002811: 31,2506           00006                           EXTEND
002812: 31,2507           63134                           BZMF     R23.10
002813: 31,2510           63472                           AD       NEG37
002814: 31,2511           00006                           EXTEND
002815: 31,2512           62514                           BZMF     +2
002816: 31,2513           03134                           TC       R23.10


002818:
002819: 31,2514           06006                           TC       INTPRET
002820: 31,2515           53135        P23.17             SLOAD    BZE
002821: 31,2516           00736                                    STARCODE
002822: 31,2517           62531                                    P23.175
002823: 31,2520           77606                           PUSH
002824: 31,2521           41335                           SLOAD    DMP
002825: 31,2522           23463                                    SPSIX
002826: 31,2523           66150                           LXA,1    SXA,1
002827: 31,2524           00155                                    MPAC       +1
002828: 31,2525           00302                                    BESTI                                 #  BESTI = 6 X STAR NUMBER
002829: 31,2526           77624                           CALL
002830: 31,2527           30000                                    LOWMEMRY                              #  NEEDED TO RETRIEVE STAR VECTOR FROM LOW
002831: 31,2530           02617                           STORE    STARSAV2                              #  STORE FOR R53,P23.  US(IN P23)=STARSAV2
002832: 31,2531           77776        P23.175            EXIT
002833: 31,2532           31752        P23.176            CA       HORIZON
002834: 31,2533           00006                           EXTEND
002835: 31,2534           12553                           BZF      P23.20
002836: 31,2535           73474                           MASK     BITS4-6
002837: 31,2536           66171                           AD       -OCT10
002838: 31,2537           00006                           EXTEND
002839: 31,2540           12550                           BZF      P23.18
002840: 31,2541           66171                           AD       -OCT10
002841: 31,2542           00006                           EXTEND
002842: 31,2543           12545                           BZF      +2
002843: 31,2544           03134                           TC       R23.10
002844: 31,2545           05546                           TC       UPFLAG
002845: 31,2546           00004                           ADRES    NORFHOR
002846: 31,2547           02557                           TC       P23.30
002847: 31,2550           05560        P23.18             TC       DOWNFLAG
002848: 31,2551           00004                           ADRES    NORFHOR
002849: 31,2552           02557                           TC       P23.30
002850: 31,2553           06006        P23.20             TC       INTPRET
002851: 31,2554           77624                           CALL
002852: 31,2555           60143                                    P22SUBRB
002853: 31,2556           77776                           EXIT
002854: 31,2557           06006        P23.30             TC       INTPRET
002855: 31,2560           53135                           SLOAD    BZE
002856: 31,2561           00736                                    STARCODE
002857: 31,2562           34000                                    LDPLANET
002858: 31,2563           77414        P23.31             BON      EXIT
002859: 31,2564           04705                                    SAVECFLG
002860: 31,2565           62700                                    P23.85
002861: 31,2566           33461                           CAF      V50N25P
002862: 31,2567           04662                           TC       BANKCALL
002863: 31,2570           21045                           CADR     GOPERF1                               #  GOPERF1 BLANKS OUT R2 AND R3.
002864: 31,2571           04106                           TC       GOTOPOOH
002865: 31,2572           02576                           TC       V94ENTER                              #  PROCEED.  AUTOCONTROL CMC
002866: 31,2573           06006        P23.55             TC       INTPRET
002867: 31,2574           77650                           GOTO
002868: 31,2575           62627                                    P23.56


002870:
002871:                                                                                                  #  VERB 94 BEGINS HERE
002872: 31,2576           06006        V94ENTER           TC       INTPRET
002873: 31,2577           77634                           RTB
002874: 31,2600           45510                                    LOADTIME                              #  READ CLOCK
002875: 31,2601           35225                           STCALL   MARKTIME
002876: 31,2602           62705                                    POINTAXS                              #  RETURN LOS IN RCLL AND MPAC
002877: 31,2603           53521                           MXV      UNIT
002878: 31,2604           01736                                    REFSMMAT
002879: 31,2605           27357                           STOVL    POINTVSM
002880: 31,2606           23464                                    JCAXIS
002881: 31,2607           03351                           STORE    SCAXIS
002882: 31,2610           77776                           EXIT
002883: 31,2611           05560                           TC       DOWNFLAG                              #  CLEAR AND GO TO VECPOINT IN R60
002884: 31,2612           00124                           ADRES    3AXISFLG                              #  BIT 6 FLAG 5
002885: 31,2613           33471                           CAF      R60ADRS
002886: 31,2614           54374                           TS       TEMPFLSH
002887: 31,2615           05412                           TC       PHASCHNG
002888: 31,2616           00012                           OCT      00012
002889: 31,2617           04662        R60CALL            TC       BANKCALL
002890: 31,2620           56000                           CADR     R60CSM
002891: 31,2621           05412                           TC       PHASCHNG
002892: 31,2622           04022                           OCT      04022
002893: 31,2623           06006                           TC       INTPRET
002894: 31,2624           77614                           BON
002895: 31,2625           03307                                    R57FLAG
002896: 31,2626           62631                                    P23.57                                #  DO NOT REPERFORM R57
002897: 31,2627           77624        P23.56             CALL
002898: 31,2630           76400                                    R57
002899: 31,2631           43014        P23.57             SET      SET
002900: 31,2632           04464                                    V94FLAG
002901: 31,2633           03067                                    R57FLAG
002902: 31,2634           77624                           CALL
002903: 31,2635           30011                                    R52
002904: 31,2636           43014                           CLEAR    CLEAR
002905: 31,2637           04664                                    V94FLAG
002906: 31,2640           03267                                    R57FLAG
002907: 31,2641           77776        P23.60             EXIT
002908: 31,2642           00004                           INHINT
002909: 31,2643           31330                           CA       MARKSTAT
002910: 31,2644           75054                           MASK     LOW10
002911: 31,2645           55242                           TS       MARKDATA
002912: 31,2646           00006                           EXTEND
002913: 31,2647           51242                           INDEX    MARKDATA
002914: 31,2650           30001                           DCA      0
002915: 31,2651           53225                           DXCH     MARKTIME
002916: 31,2652           51242                           INDEX    MARKDATA
002917: 31,2653           30005                           CA       5
002918: 31,2654           57754                           XCH      TRUNION
002919: 31,2655           00003                           RELINT
002920: 31,2656           06006                           TC       INTPRET


002922: 31,2657           76740                           LXC,1    VLOAD*
002923: 31,2660           01242                                    MARKDATA
002924: 31,2661           00002                                    1,1
002925: 31,2662           23676                           STODL*   MARKDOWN   +1
002926: 31,2663           00001                                    0,1
002927: 31,2664           03675                           STORE    MARKDOWN
002928: 31,2665           77776                           EXIT
002929: 31,2666           33457                           CAF      V05N71
002930: 31,2667           04662                           TC       BANKCALL
002931: 31,2670           20720                           CADR     GOFLASH
002932: 31,2671           04106                           TC       GOTOPOOH                              #  TERMINATE
002933: 31,2672           02674                           TC       P23.65                                #  STORE DATA
002934: 31,2673           02666                           TC       -5                                    #  REDISPLAY
002935: 31,2674           06006        P23.65             TC       INTPRET
002936: 31,2675           77414                           SET      EXIT
002937: 31,2676           04465                                    SAVECFLG
002938: 31,2677           02452                           TC       P23.15
002939: 31,2700           45014        P23.85             CLEAR    CALL
002940: 31,2701           02676                                    RENDWFLG
002941: 31,2702           62705                                    POINTAXS
002942: 31,2703           77650                           GOTO
002943: 31,2704           62771                                    R23.55
002944:
002945:                                                                                                  #  WE BEGIN CALCULATIONS HERE
002946:                                                                                                  #  POINTAXIS SUBROUTINE
002947:
002948: 31,2705           77620        POINTAXS           STQ
002949: 31,2706           01150                                    POINTEX
002950: 31,2707           71214        R23.05             BON      DLOAD
002951: 31,2710           01711                                    ORBWFLAG
002952: 31,2711           62715                                    R23.1
002953: 31,2712           03001                                    WMIDPOS
002954: 31,2713           34001                           STCALL   0
002955: 31,2714           56565                                    INITIALW                              #  INITIALIZE W-MATRIX FIRST PASS IN P23
002956: 31,2715           77624        R23.1              CALL
002957: 31,2716           56343                                    SETINTG                               #  SETUP FOR CSM INTEGRATION
002958: 31,2717           43014                           BOF      SET
002959: 31,2720           01751                                    ORBWFLAG
002960: 31,2721           62723                                    R23.2
002961: 31,2722           01476                                    DIM0FLAG
002962: 31,2723           45014        R23.2              SET      CALL
002963: 31,2724           01471                                    ORBWFLAG
002964: 31,2725           27162                                    INTEGRV                               #  INTEGRATE CSM STATE VEC. TO MARKTIME
002965: 31,2726           77776                           EXIT
002966: 31,2727           05412                           TC       PHASCHNG
002967: 31,2730           04022                           OCT      04022
002968: 31,2731           06006                           TC       INTPRET
002969: 31,2732           77624                           CALL
002970: 31,2733           63376                                    RECT.1                                #  PICKUP CSM STATE VECTOR FROM PERM
002971: 31,2734           77614                           BOFF
002972: 31,2735           00345                                    ZMEASURE                              #  IN SPHERE OF INFLUENCE OF PRIMARY BODY
002973: 31,2736           62750                                    R23.3


002975: 31,2737           45145                           DLOAD    CALL
002976: 31,2740           01225                                    MARKTIME
002977: 31,2741           54115                                    LUNPOS
002978: 31,2742           57414                           BON      VCOMP
002979: 31,2743           04303                                    CMOONFLG
002980: 31,2744           62745                                    +1
002981: 31,2745           77655                           VAD
002982: 31,2746           03627                                    RZC
002983: 31,2747           03627                           STORE    RZC
002984: 31,2750           46135        R23.3              SLOAD    BHIZ
002985: 31,2751           02752                                    LANDMARK                              #  IF LANDMARK = 0, USE HORIZ SUBR
002986: 31,2752           62762                                    R23.4
002987: 31,2753           77614                           SET
002988: 31,2754           00462                                    ERADFLAG
002989: 31,2755           45145                           DLOAD    CALL
002990: 31,2756           01225                                    MARKTIME
002991: 31,2757           26441                                    LALOTORV
002992: 31,2760           77650                           GOTO
002993: 31,2761           62764                                    R23.5
002994: 31,2762           77624        R23.4              CALL
002995: 31,2763           63136                                    HORIZ
002996: 31,2764           40251        R23.5              VSU      SETPD
002997: 31,2765           03627                                    RZC
002998: 31,2766           00001                                    0
002999: 31,2767           77650                           GOTO
003000: 31,2770           01150                                    POINTEX


003002: 31,2771           41456        R23.55             UNIT     PUSH                                  #  RCLL IS IN MPAC
003003: 31,2772           77775                           VLOAD
003004: 31,2773           00043                                    34D                                   #  RCLL * RCLL
003005: 31,2774           24037                           STOVL    30D                                   #  PUSH 30-31 =RCLL*RCLL 32-33=ABVAL RCLL
003006: 31,2775           03635                                    VZC
003007: 31,2776           54361                           VXSC     VSR
003008: 31,2777           23437                                    ONE/C
003009: 31,3000           20620                                    15D
003010: 31,3001           77655                           VAD                                            #  PUSH UP RCLL(UNIT)
003011: 31,3002           77656                           UNIT
003012: 31,3003           27643                           STOVL    UCLSTAR
003013: 31,3004           03635                                    VZC
003014: 31,3005           52342                           VSR2     VSU
003015: 31,3006           02141                                    VESO
003016: 31,3007           54361                           VXSC     VSR
003017: 31,3010           23437                                    ONE/C
003018: 31,3011           20616                                    13D
003019: 31,3012           53455                           VAD      UNIT
003020: 31,3013           02617                                    US
003021: 31,3014           03651                           STORE    USSTAR
003022: 31,3015           72441                           DOT      SL1
003023: 31,3016           03643                                    UCLSTAR
003024: 31,3017           77206                           PUSH     VLOAD                                 #  PD 0,1 = USSTAR(DOT)UCLSTAR
003025: 31,3020           03643                                    UCLSTAR
003026: 31,3021           57561                           VXSC     VCOMP
003027: 31,3022           53372                           VSL1     VAD
003028: 31,3023           03651                                    USSTAR
003029: 31,3024           77656                           UNIT
003030: 31,3025           27502                           STOVL    BVECTOR                               #  USSTAR - COSQ(UCLSTAR
003031: 31,3026           15335                                    ZEROVECS
003032: 31,3027           03510                           STORE    BVECTOR    +6
003033: 31,3030           17516                           STODL    BVECTOR    +12D
003034: 31,3031           00001                                    0
003035: 31,3032           57526                           ACOS     DCOMP
003036: 31,3033           71206                           PUSH     DLOAD
003037: 31,3034           15335                                    ZEROVECS
003038: 31,3035           77776                           EXIT
003039: 31,3036           33450                           CA       VARSUBL                               #  PUT FIXED INTO ERASABLE FOR MSU
003040: 31,3037           54001                           TS       L                                     #  INSTRUCTION COMING UP
003041: 31,3040           31754                           CA       TRUNION                               #  REQUIRED TO CHANGE 2:S COMPLEMENT
003042: 31,3041           00006                           EXTEND                                         #  TRUNION TO 1:S COMPLEMENT
003043: 31,3042           20001                           MSU      L                                     #  TRUNION (2'S)-00000 CONVERTS TRUNION TO
003044: 31,3043           54154                           TS       MPAC                                  #  1:S.  VARSUBL=00000
003045: 31,3044           06006                           TC       INTPRET
003046: 31,3045           67206                           PUSH     SLOAD                                 #  PUSH IS DP.  WHEN BDSU IS EXECUTED, 2ND
003047: 31,3046           01343                                    TRUNBIAS                              #  HALF OF PUSHLIST IS GUARANTEED ZERO FROM
003048: 31,3047           77621                           BDSU                                           #  DLOAD ZEROVECS ABOVE
003049: 31,3050           43242                           SR3      DAD
003050: 31,3051           41215                           DAD      DMP


003052: 31,3052           23445                                    TRUN19
003053: 31,3053           00041                                    32D
003054: 31,3054           52405                           DMP      SL3
003055: 31,3055           07103                                    PI/4.0
003056: 31,3056           62414                           BOFF     SL2
003057: 31,3057           04343                                    CMOONFLG
003058: 31,3060           63061                                    R23.51
003059: 31,3061           17524        R23.51             STODL    DELTAQ
003060: 31,3062           00037                                    30D                                   #  RCLL * RCLL
003061: 31,3063           47005                           DMP      RTB
003062: 31,3064           23454                                    TRUNVAR
003063: 31,3065           45565                                    TPMODE
003064: 31,3066           77771                           TAD
003065: 31,3067           23451                                    VARSUBL
003066: 31,3070           03526                           STORE    VARIANCE
003067: 31,3071           45014                           CLEAR    CALL
003068: 31,3072           02666                                    DMENFLG
003069: 31,3073           75242                                    INCORP1
003070: 31,3074           77624                           CALL
003071: 31,3075           56750                                    GRP2PC
003072: 31,3076           51575                           VLOAD    ABVAL
003073: 31,3077           01265                                    DELTAX     +6
003074: 31,3100           60414                           BOF      SR2                                   #  DISPLAY IS 2-27 IF IN LUNAR SPHERE
003075: 31,3101           04343                                    CMOONFLG
003076: 31,3102           63103                                    R23.52
003077: 31,3103           27504        R23.52             STOVL    N49DISP    +2
003078: 31,3104           01257                                    DELTAX
003079: 31,3105           77646                           ABVAL
003080: 31,3106           60414                           BOF      SR2
003081: 31,3107           04343                                    CMOONFLG
003082: 31,3110           63111                                    R23.53
003083: 31,3111           03502        R23.53             STORE    N49DISP
003084: 31,3112           77776                           EXIT
003085: 31,3113           33455        R23.6              CAF      V6N49
003086: 31,3114           04662                           TC       BANKCALL
003087: 31,3115           21057                           CADR     GOFLASHR
003088: 31,3116           04106                           TC       GOTOPOOH
003089: 31,3117           03126                           TC       R23.7                                 #  INCORPORATE DATA
003090: 31,3120           04106                           TC       GOTOPOOH
003091: 31,3121           35015                           CAF      BIT3                                  #  BLANK OUT R3
003092: 31,3122           05526                           TC       BLANKET
003093: 31,3123           05412                           TC       PHASCHNG
003094: 31,3124           00012                           OCT      00012
003095: 31,3125           05217                           TC       ENDOFJOB
003096: 31,3126           06006        R23.7              TC       INTPRET
003097: 31,3127           45014        R23.8              SET      CALL
003098: 31,3130           00467                                    VEHUPFLG
003099: 31,3131           75454                                    INCORP2
003100: 31,3132           77776                           EXIT
003101: 31,3133           04106        R23.END            TC       GOTOPOOH
003102:


003104: 31,3134           04400        R23.10             TC       FALTON
003105: 31,3135           02444                           TC       P23.06
003106: 31,3136           40220        HORIZ              STQ      SETPD
003107: 31,3137           03656                                    SRRETURN
003108: 31,3140           00001                                    0
003109: 31,3141           65345                           DLOAD    PDDL                                  #  PUSH 0-1 = -AYO SCALED B0
003110: 31,3142           01714                                    -AYO
003111: 31,3143           01716                                    AXO
003112: 31,3144           63325                           PDDL     PDVL                                  #  PUSH 2-3 = +AX SCALED B0
003113: 31,3145           15343                                    DPPOSMAX
003114: 31,3146           02617                                    US
003115: 31,3147           53435                           VXV      UNIT
003116: 31,3150           03627                                    RZC
003117: 31,3151           27621                           STOVL    UBAR2
003118: 31,3152           53435                           VXV      UNIT                                  #  PUSH UP
003119: 31,3153           03621                                    UBAR2
003120: 31,3154           27605                           STOVL    UBAR0
003121: 31,3155           03621                                    UBAR2
003122: 31,3156           53435                           VXV      UNIT
003123: 31,3157           03605                                    UBAR0
003124: 31,3160           03613                           STORE    UBAR1
003125: 31,3161           50214                           BON      DOT
003126: 31,3162           01703                                    LUNAFLAG
003127: 31,3163           63361                                    HORIZ.6
003128: 31,3164           00001                                    0                                     #  UBAR1 DOT UZ
003129: 31,3165           36156                           STCALL   ALPHAV     +4
003130: 31,3166           26505                                    GETERAD
003131: 31,3167           65215                           DAD      PDDL                                  #  MPAC HAS RADIUS OF FISHER SLLIPSOID
003132: 31,3170           01355                                    HORIZALT                              #  PUSH 0-1 = BH SCALED B29
003133: 31,3171           23441                                    AEARTH
003134: 31,3172           41415                           DAD      PUSH                                  #  PUSH 2-3 = AH B29
003135: 31,3173           01355                                    HORIZALT
003136: 31,3174           64375        HORIZ.1            VLOAD    MXV
003137: 31,3175           03627                                    RZC                                   #  B29
003138: 31,3176           03605                                    UBAR0                                 #  B1
003139: 31,3177           63372                           VSL1     PDVL                                  #  PUSH 4-9 = RH(XH,YH,ZH) B29
003140: 31,3200           02617                                    US
003141: 31,3201           76521                           MXV      VSL1
003142: 31,3202           03605                                    UBAR0
003143: 31,3203           77725                           PDDL                                           #  PUSH 10-15 = USH B1
003144: 31,3204           00003                                    2                                     #  AH
003145: 31,3205           14043                           STODL    34D
003146: 31,3206           00005                                    4                                     #  XH
003147: 31,3207           77624                           CALL
003148: 31,3210           63365                                    DIVIDE
003149: 31,3211           41257                           SR*      DMP
003150: 31,3212           20611                                    8D,1                                  #  NOW SCALED B9
003151: 31,3213           00155                                    MPAC
003152: 31,3214           14037                           STODL    30D
003153: 31,3215           00001                                    0


003155: 31,3216           14043                           STODL    34D
003156: 31,3217           00007                                    6                                     #  YH
003157: 31,3220           77624                           CALL
003158: 31,3221           63365                                    DIVIDE
003159: 31,3222           41257                           SR*      DMP
003160: 31,3223           20611                                    8D,1                                  #  B9
003161: 31,3224           00155                                    MPAC                                  #  B18
003162: 31,3225           41415                           DAD      PUSH                                  #  PUSH 16-17 =A SCALED B18
003163: 31,3226           00037                                    30D
003164: 31,3227           75425                           DSU      SQRT
003165: 31,3230           23447                                    1.0B18
003166: 31,3231           77725                           PDDL                                           #  PUSH 18-19 SQRT(A-1) B9
003167: 31,3232           00021                                    16D
003168: 31,3233           14043                           STODL    34D
003169: 31,3234           00005                                    4                                     #  XH
003170: 31,3235           77624                           CALL
003171: 31,3236           63365                                    DIVIDE
003172: 31,3237           65257                           SR*      PDDL
003173: 31,3240           20622                                    17D,1                                 #  PUSH 20-21 = XH/A B29
003174: 31,3241           00007                                    6                                     #  YH
003175: 31,3242           77624                           CALL
003176: 31,3243           63365                                    DIVIDE
003177: 31,3244           65257                           SR*      PDDL
003178: 31,3245           20622                                    17D,1                                 #  PUSH 22-23 = YH/A B29
003179: 31,3246           00021                                    16D                                   #  A
003180: 31,3247           14043                           STODL    34D
003181: 31,3250           00023                                    18D                                   #  SQRT(A-1)
003182: 31,3251           77624                           CALL
003183: 31,3252           63365                                    DIVIDE
003184: 31,3253           77657                           SR*
003185: 31,3254           20611                                    8D,1
003186: 31,3255           14035                           STODL    28D
003187: 31,3256           00001                                    0                                     #  BH
003188: 31,3257           14043                           STODL    34D
003189: 31,3260           00003                                    2                                     #  AH
003190: 31,3261           77624                           CALL
003191: 31,3262           63365                                    DIVIDE
003192: 31,3263           41257                           SR*      DMP                                   #  AH/BH SCALED B1
003193: 31,3264           20601                                    0,1
003194: 31,3265           00035                                    28D                                   #  SQRT(A-1)/A
003195: 31,3266           72405                           DMP      SL1
003196: 31,3267           00007                                    6                                     #  YH
003197: 31,3270           77725                           PDDL
003198: 31,3271           00003                                    2                                     #  AH
003199: 31,3272           14043                           STODL    34D
003200: 31,3273           00001                                    0
003201: 31,3274           77624                           CALL
003202: 31,3275           63365                                    DIVIDE
003203: 31,3276           41257                           SR*      DMP                                   #  BH/AH SCALED B1
003204: 31,3277           20601                                    0,1


003206: 31,3300           00035                                    28D                                   #  SQRT (A-1)/A
003207: 31,3301           72405                           DMP      SL1
003208: 31,3302           00005                                    4                                     #  XH
003209: 31,3303           43325                           PDDL     DAD
003210: 31,3304           00025                                    20D                                   #  XH/A
003211: 31,3305           00031                                    24D                                   #  ALPHA
003212: 31,3306           45325                           PDDL     DSU
003213: 31,3307           00027                                    22D                                   #  YH/A
003214: 31,3310           00033                                    26D                                   #  BETA
003215: 31,3311           40206                           PUSH     SETPD
003216: 31,3312           00021                                    16D
003217: 31,3313           45345                           DLOAD    DSU
003218: 31,3314           00025                                    20D                                   #  XH/A
003219: 31,3315           00031                                    24D                                   #  ALPHA
003220: 31,3316           43325                           PDDL     DAD
003221: 31,3317           00027                                    22D                                   #  YH/A
003222: 31,3320           00033                                    26D                                   #  BETA
003223: 31,3321           41525                           PDDL     PUSH
003224: 31,3322           15335                                    ZEROVECS
003225: 31,3323           24041                           STOVL    32D                                   #  ZERO THIRD COMP. OF T-0 VECTOR
003226: 31,3324           00035                                    28D
003227: 31,3325           53451                           VSU      UNIT
003228: 31,3326           00005                                    4                                     #  RH VECTOR
003229: 31,3327           63241                           DOT      PDVL                                  #  PUSH 22-23 A-SUB-ZERO
003230: 31,3330           00013                                    10D                                   #  USH VECTOR
003231: 31,3331           00021                                    16D                                   #  T1 VECTOR
003232: 31,3332           53451                           VSU      UNIT
003233: 31,3333           00005                                    4                                     #  RH VECTOR
003234: 31,3334           41441                           DOT      PUSH                                  #  PUSH 24-25 A-SUB-ONE
003235: 31,3335           00013                                    10D
003236: 31,3336           50021                           BDSU     BMN
003237: 31,3337           00027                                    22D                                   #  A-SUB-ZERO
003238: 31,3340           63347                                    HORIZ.3
003239: 31,3341           77614                           BON
003240: 31,3342           00304                                    NORFHOR
003241: 31,3343           63353                                    HORIZ.4
003242: 31,3344           52175        HORIZ.2            VLOAD    GOTO
003243: 31,3345           00035                                    28D                                   #  T-0 VECTOR
003244: 31,3346           63355                                    HORIZ.5
003245: 31,3347           52014        HORIZ.3            BON      GOTO
003246: 31,3350           00304                                    NORFHOR
003247: 31,3351           63344                                    HORIZ.2
003248: 31,3352           63353                                    HORIZ.4
003249: 31,3353           77775        HORIZ.4            VLOAD
003250: 31,3354           00021                                    16D                                   #  T1 VECTOR
003251: 31,3355           76505        HORIZ.5            VXM      VSL1
003252: 31,3356           03605                                    UBAR0
003253: 31,3357           77650                           GOTO
003254: 31,3360           03656                                    SRRETURN
003255: 31,3361           41545        HORIZ.6            DLOAD    PUSH


003257: 31,3362           23443                                    RADMOON
003258: 31,3363           52006                           PUSH     GOTO
003259: 31,3364           63174                                    HORIZ.1
003260: 31,3365           70501        DIVIDE             NORM     SR1
003261: 31,3366           00047                                    X1
003262: 31,3367           14045                           STODL    36D
003263: 31,3370           00043                                    34D
003264: 31,3371           55301                           NORM     BDDV
003265: 31,3372           00051                                    S1
003266: 31,3373           00045                                    36D
003267: 31,3374           43460                           XSU,1    RVQ
003268: 31,3375           00050                                    S1
003269: 31,3376           77014        RECT.1             BOFF     AXT,2                                 #  SR TO SET ZMEASURE = 0 IF MEASUREMENT
003270: 31,3377           04343                                    CMOONFLG                              #    PLANET AND PRIMARY PLANET ARE THE SAME
003271: 31,3400           63410                                    RECT.3                                #      OTHERWISE = 1
003272: 31,3401           77775                           DEC      -2         B-14
003273: 31,3402           77614                           BOFF                                           #        VEC. AND SCALE B29 AND B7
003274: 31,3403           01743                                    LUNAFLAG
003275: 31,3404           63414                                    RECT.4
003276: 31,3405           52014        RECT.2             CLEAR    GOTO
003277: 31,3406           00265                                    ZMEASURE
003278: 31,3407           63416                                    RECT.5
003279: 31,3410           43174        RECT.3             AXT,2    BOFF
003280: 31,3411           00000                                    0
003281: 31,3412           01743                                    LUNAFLAG
003282: 31,3413           63405                                    RECT.2
003283: 31,3414           77614        RECT.4             SET
003284: 31,3415           00065                                    ZMEASURE
003285: 31,3416           44575        RECT.5             VLOAD    VSR7
003286: 31,3417           01573                                    DELTACSM                              #  SCALED B22 OR B18
003287: 31,3420           53257                           VSR*     VAD
003288: 31,3421           57176                                    0,2
003289: 31,3422           01607                                    RCVCSM                                #  SCALED B29 OR B27
003290: 31,3423           77657                           VSR*
003291: 31,3424           57176                                    0,2
003292: 31,3425           27627                           STOVL    RZC                                   #  NOW SCALED B29
003293: 31,3426           01601                                    NUVCSM                                #  SCALED B3 OR B-1
003294: 31,3427           53702                           VSR4     VSR*
003295: 31,3430           57176                                    0,2
003296: 31,3431           53655                           VAD      VSR*
003297: 31,3432           01615                                    VCVCSM                                #  SCALED B7 OR B5
003298: 31,3433           57176                                    0,2
003299: 31,3434           03635                           STORE    VZC                                   #  NOW SCALED B7
003300: 31,3435           77616                           RVQ
003301: 31,3436           26305 05432  ONE/C              2DEC*    .333564049 E-6        B+21*
003302: 31,3440           00302 24533  AEARTH             2DEC     6378166    B-29                       #  A AXIS OF EARTH (METERS B-29)
003303: 31,3442           00065 01265  RADMOON            2DEC     1738090    B-29                       #  RADIUS OF MOON IN METERS
003304:


003306:
003307: 31,3444           01604        TRUN19             OCT      01604
003308: 31,3445           00000        TRUN19A            OCT      00000
003309: 31,3446           00000 02000  1.0B18             2DEC     1.0        B-18
003310: 31,3450           00000        VARSUBL            DEC      0          B-14
003311: 31,3451           01505 14100  VARSUBL3           2DEC*    3.4299040  E+6        B-26*
003312: 31,3453           00012 27462  TRUNVAR            2DEC     2.5        E-9        B+18
003313: 31,3455           01461        V6N49              VN       0649
003314: 31,3456           01306        V05N70             VN       0570
003315: 31,3457           01307        V05N71             VN       0571
003316: 31,3460           00077        OCT00077           OCT      00077
003317: 31,3461           00202        V50N25P            OCT      00202
003318: 31,3462           00006        SPSIX              OCT      00006
003319: 31,3463           10464 12467  JCAXIS             2DEC     .2688190620                            #  1/2(SIN 32.523 DEG)  TRACK AXIS
003320: 31,3465           00000 00000                     2DEC     0          B-28
003321: 31,3467           15373 11346                     2DEC     .4215878460                            #  1/2(COS 32.523 DEG)
003322: 31,3471           62622        R60ADRS            CADR     R60CALL    +3
003323: 31,3472           77732        NEG37              DEC      -37        B-14
003324: 31,3473           00700        BITS7-9            OCT      700
003325: 31,3474           00070        BITS4-6            OCT      70
003326: 14,2000                                           SETLOC   RT53
003327: 14,2000                                           BANK
003328: 14,2000           43573        LOWMEMRY           VLOAD*   RVQ
003329: 14,2001           31762                                    CATLOG,1
003330: 37,2624                                           BANK     37
003331: 16,2000                                           SETLOC   P23S1
003332: 16,2000                                           BANK
003333: 16,2000           77776        LDPLANET           EXIT                                           #  KEEP THIS OPEN SUBROUTINE IN EBANK=5
003334: 16,2001           32017                           CAF      VNPLAN23                              #  BECAUSE STAR IS EBANK=5
003335: 16,2002           04662                           TC       BANKCALL                              #  LDPLANET ALLOWS VECTOR TO PLANET TO BE
003336: 16,2003           20720                           CADR     GOFLASH                               #  STORED IN STARSAV2 IF STORED STARS ARE
003337: 16,2004           04106                           TC       GOTOPOOH                              #  NOT VISIBLE.
003338: 16,2005           02007                           TC       +2
003339: 16,2006           02001                           TC       -5
003340: 16,2007           06006                           TC       INTPRET


003364: 16,2010           74375                           VLOAD    VXSC
003365: 16,2011           02766                                    STAR
003366: 16,2012           32433                                    1/SQR3
003367: 16,2013           77656                           UNIT
003368: 16,2014           02617                           STORE    STARSAV2
003369: 16,2015           77650                           GOTO
003370: 16,2016           62563                                    P23.31
003371: 16,2017           01530        VNPLAN23           VN       0688
003372:    4622                                           BLOCK    02
003373:    4622           00006        GOTOV56            EXTEND                                         #  P20 TERMINATES BY GOTOV56 INSTEAD OF


003375:    4623           34626                           DCA      VB56CADR                              #        GOTOPOOH
003376:    4624           15227                           TCF      SUPDXCHZ
003377:    4625  E7,1777                                  EBANK=   WHOCARES
003378:    4625           02653 66107  VB56CADR           2CADR    TRACKTRM
003379:
003380:    4000                                           SETLOC   FFTAG2
003381:    4000                                           BANK
003382:    4627                                           COUNT*   $$/P20
003383: 40,3624                                           BANK     40
003384: 40,3600                                           SETLOC   ENDPINS1
003385: 40,3600                                           BANK
003386: 40,3624                                           COUNT*   $$/EXTVB
003387: 40,3624           06006        V67CALL            TC       INTPRET
003388: 40,3625           77624                           CALL
003389: 40,3626           61707                                    V67WW
003390: 40,3627           77776                           EXIT
003391: 40,3630           33762        V06N99DS           CAF      V06N99A
003392: 40,3631           04662                           TC       BANKCALL
003393: 40,3632           20561                           CADR     GOXDSPF
003394: 40,3633           15534                           TCF      ENDEXT
003395: 40,3634           03636                           TC       V06N9933
003396: 40,3635           03630                           TC       V06N99DS
003397: 40,3636           06006        V06N9933           TC       INTPRET
003398: 40,3637           46135                           SLOAD    BHIZ                                  #  IF R3 OF V67 = 0 EXIT
003399: 40,3640           02325                                    WWOPT
003400: 40,3641           61644                                    +3
003401: 40,3642           77650                           GOTO
003402: 40,3643           61646                                    V6N99INP
003403: 40,3644           77776                           EXIT
003404: 40,3645           15534                           TCF      ENDEXT


003421: 40,3646           41345        V6N99INP           DLOAD    DMP
003422: 40,3647           02321                                    WWPOS
003423: 40,3650           21764                                    1/SQRT3
003424: 40,3651           71350                           LXA,1    DLOAD
003425: 40,3652           00154                                    MPAC
003426: 40,3653           02323                                    WWVEL
003427: 40,3654           73005                           DMP      LXA,2
003428: 40,3655           21764                                    1/SQRT3
003429: 40,3656           00154                                    MPAC


003431: 40,3657           45335                           SLOAD    DSU
003432: 40,3660           02325                                    WWOPT
003433: 40,3661           21766                                    V67DEC2
003434: 40,3662           51030                           BHIZ     BPL
003435: 40,3663           61672                                    V67WORB
003436: 40,3664           61677                                    V67WMID
003437: 40,3665           67130                           SXA,1    SXA,2
003438: 40,3666           02000                                    WRENDPOS
003439: 40,3667           02001                                    WRENDVEL
003440: 40,3670           77650                           GOTO
003441: 40,3671           61702                                    V67EXITX
003442: 40,3672           67130        V67WORB            SXA,1    SXA,2
003443: 40,3673           02004                                    WORBPOS
003444: 40,3674           02005                                    WORBVEL
003445: 40,3675           77650                           GOTO
003446: 40,3676           61702                                    V67EXITX
003447: 40,3677           67130        V67WMID            SXA,1    SXA,2


003449: 40,3700           03000                                    WMIDPOS
003450: 40,3701           03001                                    WMIDVEL
003451: 40,3702           43014        V67EXITX           CLEAR    CLEAR
003452: 40,3703           01671                                    ORBWFLAG
003453: 40,3704           02676                                    RENDWFLG
003454: 40,3705           77776                           EXIT
003455: 40,3706           15534                           TCF      ENDEXT
003456: 40,3707           40020        V67WW              STQ      BOV
003457: 40,3710           00051                                    S2
003458: 40,3711           61712                                    +1
003459: 40,3712           77624                           CALL
003460: 40,3713           27442                                    INTSTALL
003461: 40,3714           71331                           SSP      DLOAD
003462: 40,3715           00051                                    S1
003463: 40,3716           00006                           DEC      6          B-14
003464: 40,3717           15335                                    ZEROVECS
003465: 40,3720           02321                           STORE    WWPOS
003466: 40,3721           02323                           STORE    WWVEL
003467: 40,3722           02325                           STORE    WWOPT
003468: 40,3723           77770                           AXT,1
003469: 40,3724           00044                           DEC      36         B-14
003470: 40,3725           47573        NXPOSVEL           VLOAD*   VSQ
003471: 40,3726           02445                                    W          +36D,1
003472: 40,3727           77615                           DAD
003473: 40,3730           02321                                    WWPOS
003474: 40,3731           02321                           STORE    WWPOS
003475: 40,3732           47573                           VLOAD*   VSQ
003476: 40,3733           02533                                    W          +90D,1
003477: 40,3734           77615                           DAD
003478: 40,3735           02323                                    WWVEL
003479: 40,3736           02323                           STORE    WWVEL
003480: 40,3737           75500                           TIX,1    SQRT
003481: 40,3740           61725                                    NXPOSVEL
003482: 40,3741           16323                           STODL    WWVEL
003483: 40,3742           02321                                    WWPOS
003484: 40,3743           77766                           SQRT
003485: 40,3744           02321                           STORE    WWPOS
003486: 40,3745           52000                           BOV      GOTO
003487: 40,3746           61750                                    +2
003488: 40,3747           61754                                    V67XXX
003489: 40,3750           77745                           DLOAD
003490: 40,3751           15343                                    DPPOSMAX
003491: 40,3752           02321                           STORE    WWPOS
003492: 40,3753           02323                           STORE    WWVEL


003514: 40,3754           66150        V67XXX             LXA,1    SXA,1


003516: 40,3755           00051                                    S2
003517: 40,3756           00052                                    QPRET
003518: 40,3757           77776                           EXIT
003519: 40,3760           04701                           TC       POSTJUMP
003520: 40,3761           27457                           CADR     INTWAKE
003521: 40,3762  E4,1720               WWPOS              =        RANGE
003522: 40,3762  E4,1722               WWVEL              =        RRATE
003523: 40,3762  E4,1724               WWOPT              =        RTHETA
003524: 40,3762           01543        V06N99A            VN       0699


003533: 40,3763           22363 11620  1/SQRT3            2DEC     0.5773502
003534: 40,3765           00002 00000  V67DEC2            2DEC     2          B-14
003535: 40,3767  30,2000                                  SBANK=   LOWSUPER

End of include-file P20-P25.agc.  Parent file is MAIN.agc


