
Source Code


000002:                                                                                                  ## Copyright:   Public domain.
000003:                                                                                                  ## Filename:    P30,P37.agc
000004:                                                                                                  ## Purpose:     A section of Comanche revision 044.
000005:                                                                                                  ##              It is part of the reconstructed source code for the
000006:                                                                                                  ##              original release of the flight software for the Command
000007:                                                                                                  ##              Module's (CM) Apollo Guidance Computer (AGC) for Apollo 10.
000008:                                                                                                  ##              The code has been recreated from a copy of Comanche 055. It
000009:                                                                                                  ##              has been adapted such that the resulting bugger words
000010:                                                                                                  ##              exactly match those specified for Comanche 44 in NASA drawing
000011:                                                                                                  ##              2021153D, which gives relatively high confidence that the
000012:                                                                                                  ##              reconstruction is correct.
000013:                                                                                                  ## Assembler:   yaYUL
000014:                                                                                                  ## Contact:     Ron Burkey <info@sandroid.org>.
000015:                                                                                                  ## Website:     www.ibiblio.org/apollo/index.html
000016:                                                                                                  ## Mod history: 2020-12-03 MAS  Created from Comanche 51.
000017:                                                                                                  ##              2020-12-04 MAS  Added back an INHINT that was removed.
000018:                                                                                                  ##              2020-12-11 RSB  Added an annotation justifying the change mentioned above.
000019:                                                                                                  ##              2020-12-13 RSB  Incorporated feedback about the annotations.
000020:


000022: 32,2017                                           BANK     32
000023:
000024: 35,2000                                           SETLOC   P30S1
000025: 35,2000                                           BANK
000026:
000027: 35,3270  E7,1625                                  EBANK=   +MGA
000028:
000029: 35,3270                                           COUNT    35/P34
000030:
000031: 35,3270           77420        DISPMGA            STQ      EXIT                                  #  USED IN P30
000032:
000033: 35,3271           02370                                    RGEXIT
000034: 35,3272           03310                           TC       COMPTGO
000035:
000036: 35,3273           34621        DISP45             CAF      V16N45
000037: 35,3274           04662                           TC       BANKCALL
000038: 35,3275           21057                           CADR     GOFLASHR
000039: 35,3276           04106                           TC       GOTOPOOH
000040: 35,3277           03304                           TC       END45
000041: 35,3300           03273                           TC       DISP45
000042: 35,3301           05412        P30PHSI            TC       PHASCHNG
000043: 35,3302           00014                           OCT      14
000044: 35,3303           05217                           TCR      ENDOFJOB
000045: 35,3304           06006        END45              TC       INTPRET
000046: 35,3305           52014                           CLEAR    GOTO
000047: 35,3306           03664                                    TIMRFLAG
000048: 35,3307           02370                                    RGEXIT
000049:
000050: 35,3310           00006        COMPTGO            EXTEND                                         #  USED TO COMPUTE TTOGO
000051: 35,3311           23066                           QXCH     PHSPRDT6                              #  ** GROUP 6 TEMPORARY USED ,, BEWARE **
000052:
000053: 35,3312           05546                           TC       UPFLAG                                #  SET TIMRFLAG
000054: 35,3313           00155                           ADRES    TIMRFLAG                              #  BIT 11 FLAG 7
000055: 35,3314           35021                           CAF      ZERO
000056: 35,3315           55145                           TS       NVWORD1


000062: 35,3316           00004                           INHINT
000063: 35,3317           35017                           CAF      ONE
000064: 35,3320           05245                           TC       WAITLIST
000065: 35,3321  E7,1412                                  EBANK=   TIG
000066: 35,3321           03260 50067                     2CADR    CLOKTASK
000067:
000068: 35,3323           05372                           TC       2PHSCHNG
000069: 35,3324           40036                           OCT      40036                                 #  6.3SPOT FOR CLOKTASK
000070: 35,3325           05024                           OCT      05024                                 #  GROUP 4 CONTINUES HERE
000071: 35,3326           13000                           OCT      13000
000072:
000073: 35,3327           01066                           TC       PHSPRDT6


000075:                                                                                                  #  PROGRAM DESCRIPTION P30       DATE 3-6-67
000076:                                                                                                  #  MOD. I BY S. ZELDIN-  TO ADD P31 AND ADAPT P30 FOR P31 USE.   22DEC67
000077:
000078:                                                                                                  #  FUNCTIONAL DESCRIPTION
000079:                                                                                                  #        +30     (EXTERNAL DELTA-V TARGETTING PROGRAM)
000080:                                                                                                  #                ACCEPTS ASTRONAUT INPUTS OF TIG,DELV(LV) AND COMPUTES, FOR DISPLAY,
000081:                                                                                                  #                APOGEE, PERIGEE, DELV(MAG), MGA ASSOCIATED WITH DESIRED MANEUVER
000082:                                                                                                  #        P31     (GENERAL LAMBERT AIMPOINT GUIDANCE)
000083:                                                                                                  #                A GROUND RULE FOR P31 IS THE ANGLE BETWEEN THE TARGET VECTOR AND
000084:                                                                                                  #                POSITION VECTOR AT TIG IS NOT 165-195 DEGREES APART
000085:                                                                                                  #                BASED ON STORED INPUT OF OFFSET TARGET(B+29) AND DELTA T TRANS, AND
000086:                                                                                                  #                ASTRONAUT ENTRY OF TIG, P31 COMPUTES REQUIRED VELOCITY FOR MANEUVER
000087:                                                                                                  #                AND, FOR DISPLAY, APOGEE, PERIGEE, DELV(7AG), +MGA ASSOCIATED WITH
000088:                                                                                                  #                DESIRED MANEUVER
000089:
000090:                                                                                                  #  THE FOLLOWING SUBROUTINES ARE USED IN P30 AND P31
000091:                                                                                                  #        S30.1 (P30 ONLY)
000092:                                                                                                  #        S31.1 (P31 ONLY)
000093:                                                                                                  #        P30/P31 - DISPLAYS TIG
000094:                                                                                                  #        CNTUP30 - DISPLAYS DELV(LV)
000095:                                                                                                  #        PARAM30 - DISPLAYS APOGEE, PERIGEE, DELV(MAG), MGA, TIME FROM TIG,
000096:                                                                                                  #                  MARKS SINCE LAST THRUSTING MANEUVER
000097:
000098:                                                                                                  #  CALLING SEQUENCE VIA JOB FROM V37
000099:
000100:                                                                                                  #  EXIT VIA V37 CALL OR GOTOPOOH
000101:
000102:                                                                                                  #  OUTPUT FOR POWERED FLIGHT
000103:                                                                                                  #        VTIG    X
000104:                                                                                                  #        RTIG    X       SEE S30.1
000105:                                                                                                  #        DELVSIN X
000106:                                                                                                  #        VGDISP
000107:                                                                                                  #        RTARG   X
000108:                                                                                                  #        TPASS4  X       SEE S31.1
000109:                                                                                                  #                X
000110:
000111: 35,3330                                           COUNT    35/P30
000112:
000113: 35,3330           03362        P30                TC       P30/P31
000114: 35,3331           03401                           TC       CNTNUP30
000115: 35,3332           05560                           TC       DOWNFLAG                              #  RESET UPDATFLG
000116: 35,3333           00027                           ADRES    UPDATFLG                              #  BIT 7 FLAG 1
000117: 35,3334           06006                           TC       INTPRET
000118: 35,3335           77624                           CALL
000119: 35,3336           63475                                    S30.1
000120: 35,3337           77776                           EXIT
000121: 35,3340           03411                           TC       PARAM30
000122: 35,3341           05546                           TC       UPFLAG


000124: 35,3342           00045                           ADRES    XDELVFLG                              #  SET XDELVFLG BIT 8 FLAG 2
000125: 35,3343           14106                           TCF      GOTOPOOH
000126:
000127: 35,3344           03362        P31                TC       P30/P31
000128: 35,3345           05560                           TC       DOWNFLAG
000129: 35,3346           00027                           ADRES    UPDATFLG                              #  RESET UPDATFLG BIT 7 FLAG 1
000130: 35,3347           05560                           TC       DOWNFLAG
000131: 35,3350           00156                           ADRES    NORMSW                                #  RESET NORMSW BIT 10 FLAG 7
000132: 35,3351           06006                           TC       INTPRET
000133: 35,3352           77624                           CALL
000134: 35,3353           63547                                    S31.1
000135: 35,3354           77776                           EXIT
000136: 35,3355           03401                           TC       CNTNUP30
000137: 35,3356           03411                           TC       PARAM30
000138: 35,3357           05560                           TC       DOWNFLAG
000139: 35,3360           00045                           ADRES    XDELVFLG                              #  BIT 8 FLAG 2
000140: 35,3361           14106                           TCF      GOTOPOOH
000141:
000142: 35,3362           56002        P30/P31            XCH      Q
000143: 35,3363           55664                           TS       P30/31RT
000144: 35,3364           05546                           TC       UPFLAG
000145: 35,3365           00027                           ADRES    UPDATFLG                              #  SET UPDATFLG BIT 7 FLAG 1
000146: 35,3366           05546                           TC       UPFLAG
000147: 35,3367           00031                           ADRES    TRACKFLG                              #  SET TRACKFLG BIT 5 FLAG 1
000148: 35,3370           33446                           CAF      V06N33                                #  T OF IGN
000149: 35,3371           04662                           TC       BANKCALL
000150: 35,3372           21057                           CADR     GOFLASHR
000151: 35,3373           14106                           TCF      GOTOPOOH
000152: 35,3374           01664                           TC       P30/31RT
000153: 35,3375           13366                           TCF      P30/P31    +4
000154: 35,3376           05412                           TC       PHASCHNG
000155: 35,3377           00014                           OCT      00014
000156: 35,3400           05217                           TC       ENDOFJOB
000157:
000158: 35,3401           56002        CNTNUP30           XCH      Q
000159: 35,3402           55127                           TS       P30/RET
000160: 35,3403           34620                           CAF      V06N81
000161: 35,3404           04662                           TC       BANKCALL
000162: 35,3405           20720                           CADR     GOFLASH
000163: 35,3406           14106                           TCF      GOTOPOOH
000164: 35,3407           01127                           TC       P30/RET
000165: 35,3410           13403                           TCF      CNTNUP30   +2
000166: 35,3411           56002        PARAM30            XCH      Q
000167: 35,3412           55664                           TS       P30/31RT
000168: 35,3413           33447                           CAF      V06N42
000169: 35,3414           04662                           TC       BANKCALL
000170: 35,3415           20720                           CADR     GOFLASH
000171: 35,3416           04106                           TC       GOTOPOOH                              #  ON TERMINATION GOTOPOOH
000172: 35,3417           13421                           TCF      REFTEST                               #  ON PROCEED GO DO REFTEST


000174: 35,3420           13413                           TCF      PARAM30    +2
000175: 35,3421           35003        REFTEST            CAF      BIT13
000176: 35,3422           70077                           MASK     STATE      +3                         #  REFSMFLAG
000177: 35,3423           00006                           EXTEND
000178: 35,3424           13434                           BZF      NOTSET                                #  REFSMFLAG =0, THEN BRANCH TO NOTSET
000179: 35,3425           06006                           TC       INTPRET
000180: 35,3426           41575                           VLOAD    PUSH
000181: 35,3427           03646                                    DELVSIN
000182: 35,3430           77624                           CALL
000183: 35,3431           10654                                    GET+MGA
000184: 35,3432           77650                           GOTO
000185: 35,3433           73440                                    FLASHMGA
000186: 35,3434           00006        NOTSET             EXTEND
000187: 35,3435           43445                           DCS      MARSDP
000188: 35,3436           53626                           DXCH     +MGA                                  #  +MGA, +MGA+1 CONTAINS (-00001)
000189: 35,3437           06006                           TC       INTPRET
000190: 35,3440           77624        FLASHMGA           CALL
000191: 35,3441           73270                                    DISPMGA
000192: 35,3442           77776                           EXIT
000193: 35,3443           01664                           TC       P30/31RT
000194: 35,3444           00000        MARSDP             OCT      00000                                 #  (00000) (16440) = (+00001)
000195: 35,3445           35100                           OCT      35100
000196:                                                                                                  #  ( .01 ) DEGREES IN THE LOW ORDER REGISTE
000197:
000198: 35,3446           01441        V06N33             VN       0633
000199: 35,3447           01452        V06N42             VN       0642
000200: 35,3450           04043        V16N35             VN       1635
000201: 35,3451           01455        V06N45             VN       0645
000202:


000204:                                                                                                  #  PROGRAM DESCRIPTION S30.1     DATE 9NOV66
000205:                                                                                                  #  MOD NO 1                      LOG SECTION P30,P37
000206:                                                                                                  #  MOD BY RAMA AIYAWAR **
000207:                                                                                                  #  MOD.2 BY S.ZELDIN - TO CORRECT MOD.1 FOR COLOSSUS             29DEC67
000208:
000209:                                                                                                  #  FUNCTIONAL DESCRIPTION
000210:                                                                                                  #        BASED ON STORED TARGET PARAMETERS (R OF IGNITION (RTIG), V OF
000211:                                                                                                  #        IGNITION (VTIG), TIME OF IGNITION (TIG), DELV(LV), COMPUTE PERIGEE ALTITUDE
000212:                                                                                                  #        A+OGEE ALTITUDE AND DELTA-V REQUIRED IN REF. COORDS. (DELVSIN)
000213:
000214:                                                                                                  #  CALLING SEQUENCE
000215:                                                                                                  #        L       CALL
000216:                                                                                                  #        L+1             S30.1
000217:
000218:                                                                                                  #  NORMAL EXIT MODE
000219:                                                                                                  #        AT L+2 OR CALLING SEQUENCE (GOTO L+2)
000220:
000221:                                                                                                  #  SUBROUTINES CALLED
000222:                                                                                                  #        THISPREC
000223:                                                                                                  #        PERIAPO
000224:
000225:                                                                                                  #  ALARM OR ABORT EXIT MODES
000226:                                                                                                  #        NONE
000227:
000228:                                                                                                  #  ERASABLE INITIALIZATION REQUIRED
000229:                                                                                                  #        TIG             TIME OF IGNITION        DP B28CS
000230:                                                                                                  #        DELVSLV         SPECIFIED DELTA-V IN LOCAL VERT.
000231:                                                                                                  #                        COORDS. OF ACTIVE VEHICLE AT
000232:                                                                                                  #                        TIME OF IGNITION        VCT. B+7 M/CS
000233:
000234:                                                                                                  #  OUTPUT
000235:                                                                                                  #        RTIG            POSITION AT TIG         VCT.    B+29 M
000236:                                                                                                  #        VTIG            VELOCITY AT TIG         VCT.    B+7 M
000237:                                                                                                  #        HAPO            APOGEE ALT.             DP      B+29 M
000238:                                                                                                  #        HPER            PERIGEE ALT.            DP      B+29 M
000239:                                                                                                  #        DELVSIN         DELVSLV IN REF COORDS   VCT.    B+7 M/CS
000240:                                                                                                  #        VGDISP          MAG. OF DELVSIN         DP      B+7 M/CS
000241:
000242:                                                                                                  #  DEBRIS        QTEMP   TEMP.ERASABLE
000243:                                                                                                  #                QPRET, MPAC
000244:                                                                                                  #                PUSHLIST
000245:
000246: 31,2000                                           SETLOC   P30S1A
000247: 31,2000                                           BANK
000248:
000249: 31,3475                                           COUNT    35/S30S
000250:
000251: 31,3475           71220        S30.1              STQ      DLOAD
000252: 31,3476           03657                                    QTEMP
000253: 31,3477           03413                                    TIG                                   #  TIME IGNITION SCALED AT 2(+28)CS
000254: 31,3500           34041                           STCALL   TDEC1
000255: 31,3501           27071                                    THISPREC                              #  ENCKE ROUTINE FOR
000256:
000257: 31,3502           67175                           VLOAD    SXA,2
000258: 31,3503           00007                                    VATT
000259: 31,3504           03746                                    RTX2
000260: 31,3505           27640                           STOVL    VTIG


000262: 31,3506           00001                                    RATT
000263: 31,3507           03632                           STORE    RTIG
000264: 31,3510           03540                           STORE    RACT3
000265: 31,3511           53435                           VXV      UNIT
000266: 31,3512           03640                                    VTIG
000267: 31,3513           36617                           STCALL   UNRM
000268: 31,3514           72667                                    LOMAT
000269: 31,3515           61375                           VLOAD    VXM
000270: 31,3516           03405                                    DELVSLV
000271: 31,3517           00001                                    0
000272: 31,3520           66172                           VSL1     SXA,1
000273: 31,3521           03745                                    RTX1
000274: 31,3522           03646                           STORE    DELVSIN
000275: 31,3523           77646                           ABVAL
000276: 31,3524           27773                           STOVL    VGDISP                                #  MAG DELV
000277: 31,3525           03632                                    RTIG
000278: 31,3526           53315                           PDVL     VAD
000279: 31,3527           03646                                    DELVSIN
000280: 31,3530           03640                                    VTIG
000281: 31,3531           77624                           CALL
000282: 31,3532           45153                                    PERIAPO1
000283: 31,3533           77624                           CALL
000284: 31,3534           45263                                    SHIFTR1
000285: 31,3535           77624                           CALL
000286: 31,3536           46754                                    MAXCHK
000287: 31,3537           16366                           STODL    HPER                                  #  PERIGEE ALT B+29
000288: 31,3540           00005                                    4D
000289: 31,3541           77624                           CALL
000290: 31,3542           45263                                    SHIFTR1
000291: 31,3543           77624                           CALL
000292: 31,3544           46754                                    MAXCHK
000293: 31,3545           36364                           STCALL   HAPO                                  #  APOGEE ALT B+29
000294: 31,3546           03657                                    QTEMP
000295:


000297:                                                                                                  #  S31.1 PROGRAM DESCRIPTION             28DEC67
000298:                                                                                                  #  MOD.1 BY S.ZELDIN
000299:
000300:                                                                                                  #  S31.1 COMPUTES DELV IN REF AND LV COORDS,MAG OF DELV,INTERCEPT TIME,
000301:                                                                                                  #  APOGEE AND PERIGEE ALT FOR REQUIRED MANEUVER
000302:
000303:                                                                                                  #  CALLING SEQUENCE
000304:                                                                                                  #        L       CALL
000305:                                                                                                  #        L+1             S31.1
000306:
000307:                                                                                                  #  NORMAL EXIT MODE
000308:                                                                                                  #        AT L +2 OF CALLING SEQUENCE (GOTO L+2)
000309:
000310:                                                                                                  #  SUBROUTINES CALLED
000311:                                                                                                  #        AGAIN
000312:                                                                                                  #        PERIAPO1
000313:                                                                                                  #        SHIFTR1
000314:                                                                                                  #        MIDGIM
000315:
000316:                                                                                                  #  NO ALARM OR ABORT MODES
000317:
000318:                                                                                                  #  INPUT
000319:                                                                                                  #        DELLT4          DP      +28
000320:                                                                                                  #        TIG             DP      +28
000321:                                                                                                  #        RTARG           VCT     +29
000322:
000323:                                                                                                  #  OUTPUT
000324:                                                                                                  #        DELVLVC         VCT     +7
000325:                                                                                                  #        VGDISP          DP      +7
000326:                                                                                                  #        HAPO            DP      +29
000327:                                                                                                  #        HPER            DP      +29
000328:                                                                                                  #        TPASS4          DP      +28
000329:
000330:                                                                                                  #  DEBRIS - QTEMP
000331:
000332: 31,3547           71220        S31.1              STQ      DLOAD
000333: 31,3550           03657                                    QTEMP
000334: 31,3551           03413                                    TIG
000335: 31,3552           34041                           STCALL   TDEC1
000336: 31,3553           61651                                    AGAIN                                 #  RETURNS RTX2,RTX1,RATT,VATT,VIPRIME
000337: 31,3554           63375                           VLOAD    PDVL                                  #  DELUEET3
000338: 31,3555           03632                                    RTIG
000339: 31,3556           03612                                    VIPRIME
000340: 31,3557           77624                           CALL
000341: 31,3560           45153                                    PERIAPO1
000342: 31,3561           77624                           CALL
000343: 31,3562           45263                                    SHIFTR1
000344: 31,3563           77624                           CALL
000345: 31,3564           46754                                    MAXCHK
000346: 31,3565           16366                           STODL    HPER                                  #  B29
000347: 31,3566           00005                                    4D
000348: 31,3567           77624                           CALL
000349: 31,3570           45263                                    SHIFTR1
000350: 31,3571           77624                           CALL
000351: 31,3572           46754                                    MAXCHK
000352: 31,3573           26364                           STOVL    HAPO                                  #  B29


000354: 31,3574           03646                                    DELVEET3
000355: 31,3575           00001                           STORE    0
000356: 31,3576           45014                           SET      CALL
000357: 31,3577           01072                                    AVFLAG
000358: 31,3600           10647                                    MIDGIM                                #  GET DELVLVC B7 FOR DISPLAY
000359: 31,3601           77646                           ABVAL
000360: 31,3602           17773                           STODL    VGDISP                                #  B+7 FOR DISPLAY
000361: 31,3603           03423                                    DELLT4
000362: 31,3604           77615                           DAD
000363: 31,3605           03413                                    TIG
000364: 31,3606           37656                           STCALL   TPASS4                                #  FOR S40.1
000365: 31,3607           03657                                    QTEMP
000366:


000368:                                                                                                  #  SUBROUTINE NAME:      DELRSPL         (CONTINUATION OF V 82 IN CSM IF P11 ACTI
000369:                                                                                                  #  TRANSFERRED COMPLETELY FROM SUNDISK, P30S REV 33.  9 SEPT 67.
000370:                                                                                                  #  MOD NO: 0     MOD BY: ZELDIN          DATE:
000371:                                                                                                  #  MOD NO: 1     MOD BY: RR BAIRNSFATHER DATE: 11 APR 67
000372:                                                                                                  #  MOD NO: 2     MOD BY: RR BAIRNSFATHER DATE: 12 MAY 67         ADD UR.RT CALC WHEN BELOW 300K FT
000373:                                                                                                  #  MOD NO: 2.1   MOD BY: RR BAIRNSFATHER DATE: 5 JULY 67         FIX ERROR IN MOD. 2.
000374:                                                                                                  #  MOD NO: 3     MOD BY: RR BAIRNSFATHER DATE: 12 JUL 67         CHANGE SIGN OF DISPLAYED ERROR.
000375:                                                                                                  #  MOD 4         MOD BY  S.ZELDIN        DATE  3 APRIL 68        CHANGE EQUATIONS FOR L/D=.18 WHICH REPLA
000376:
000377:                                                                                                  #  FUNCTION:     CALCULATE (FOR DISPLAY ON CALL) AN APPROXIMATE MEASURE OF IN-PLANE SPLASH DOWN
000378:                                                                                                  #                ERROR.  IF THE FREE-FALL TRANSFER ANGLE TO 300K FT ABOVE PAD RADIUS IS POSITIVE:
000379:                                                                                                  #                SPLASH ERROR= -RANGE TO TARGET + FREE-FALL TRANSFER ANGLE + ESTIMATED ENTRY ANGLE.
000380:                                                                                                  #                THE TARGET LOCATION AT ESTIMATED TIME OF IMPACT IS USED.  IF THE FREE-FALL TRANSFER
000381:                                                                                                  #                ANGLE IS NEGATIVE:  SPLASH ERROR= -RANGE TO TARGET
000382:                                                                                                  #                THE PRESENT TARGET LOCATION IS USED.
000383:
000384:                                                                                                  #  CALLING SEQUENCE  CALLED AFTER SR30.1 IF IN CSM AND IF P11 OPERATING (UNDER CONTROL OF V82)
000385:
000386:                                                                                                  #  SUBROUTINES CALLED:  VGAMCALC, TFF/TRIG, LALOTORV.
000387:
000388:                                                                                                  #  EXIT          RETURN DIRECTLY TO V 82 PROG. AT SPLRET
000389:
000390:                                                                                                  #  ERASABLE INITIALIZATION   LEFT BY SR30.1 AND V82GON1
000391:
000392:                                                                                                  #  OUTPUT:       RSP-RREC RANGE IN REVOLUTIONS                   DSKY DISPLAY IN N. MI.
000393:
000394:                                                                                                  #  DEBRIS:       QPRET, PDL0 ... PDL7, PDL10
000395:
000396:                                                                                                  #  THETA(1)
000397:
000398: 32,2017                                           BANK     32
000399: 32,2000                                           SETLOC   DELRSPL1
000400: 32,2000                                           BANK
000401: 32,2017                                           COUNT*   $$/P30                                #  PROGRAMS: P30 EXTERNAL DELTA V
000402:
000403: 32,2017           00011        DELRSPL            STORE    8D
000404: 32,2020           45244                           BPL      DSU
000405: 32,2021           64067                                    CANTDO                                #  GONE PAST 300K FT ALT
000406: 32,2022           16326                                    1BITDP
000407: 32,2023           45000                           BOV      CALL
000408: 32,2024           64067                                    CANTDO                                #  POSMAX INDICATES NO 300K FT SOLUTION.
000409: 32,2025           55051                                    VGAMCALC                              #  +GAMMA(REV) IN PMAC,V300 MAG(B-7)=PDL 0
000410: 32,2026           45006                           PUSH     CALL
000411: 32,2027           56631                                    TFF/TRIG
000412: 32,2030           77624                           CALL
000413: 32,2031           64075                                    AUGEKUGL
000414: 32,2032           65525                           PDDL     ACOS                                  #  T ENTRY PDL 6
000415: 32,2033           00017                                    CDELF/2
000416: 32,2034           77615                           DAD
000417: 32,2035           00005                                    4
000418: 32,2036           26350        GETARG             STOVL    THETA(1)
000419: 32,2037           03401                                    LAT(SPL)
000420: 32,2040           15104                           STODL    LAT
000421: 32,2041           15335                                    HI6ZEROS
000422: 32,2042           15110                           STODL    ALT                                   #  ALT=0 = LAT +4
000423: 32,2043           01205                                    PIPTIME


000425: 32,2044           71214                           BON      DLOAD
000426: 32,2045           03711                                    V37FLAG
000427: 32,2046           64050                                    +2
000428: 32,2047           02325                                    TSTART82
000429: 32,2050           43225                           DSU      DAD
000430: 32,2051           00011                                    8D
000431: 32,2052           45014                           CLEAR    CALL
000432: 32,2053           00662                                    ERADFLAG
000433: 32,2054           26441                                    LALOTORV                              #  R RECOV. IN ALPHAV AND MPAC
000434:
000435: 32,2055           63256                           UNIT     PDVL
000436: 32,2056           02327                                    RONE
000437: 32,2057           50256                           UNIT     DOT
000438: 32,2060           65552                           SL1      ARCCOS
000439: 32,2061           77621                           BDSU                                           #  ERROR = THETA EST - THETA TARG
000440:                                                                                                  #  NEGATIVE NUMBER SIGNIFIES THAT WILL FALL SHORT.
000441:                                                                                                  #  POSITIVE NUMBER SIGNIFIES THAT WILL OVERSHOOT.
000442: 32,2062           02350                                    THETA(1)
000443: 32,2063           36356        DELRDONE           STCALL   RSP-RREC                              #  DOWNRANGE RECOVERY RANGE ERROR        /360
000444: 32,2064           27455                                    INTWAKE0
000445: 32,2065           77624                           CALL
000446: 32,2066           46653                                    SPLRET
000447: 32,2067           65345        CANTDO             DLOAD    PDDL                                  #  INITIALIZE ERASE TO DOT TARGET AND UR
000448:                                                                                                  #  FOR RANGE ANGLE.
000449: 32,2070           15333                                    HIDPHALF                              #  TO PDL 0 FOR DEN INDDV.
000450: 32,2071           15335                                    HI6ZEROS
000451: 32,2072           77606                           PUSH                                           #  ZERO TO PDL 2 FOR PHI ENTRY
000452: 32,2073           34011                           STCALL   8D
000453: 32,2074           64036                                    GETARG                                #  GO SET RSP-RREC =0
000454:
000455: 32,2075           77775        AUGEKUGL           VLOAD
000456: 32,2076           24256                                    X1CON      -2
000457: 32,2077           14045                           STODL    X1         -2
000458: 32,2100           00001                                    0
000459: 32,2101           50025                           DSU      BMN
000460: 32,2102           24250                                    V(21K)
000461: 32,2103           64130                                    LOOPSET
000462: 32,2104           65060                           XSU,1    XCHX,2
000463: 32,2105           00050                                    S1
000464: 32,2106           00046                                    X1
000465: 32,2107           45324                           XCHX,2   DSU
000466: 32,2110           00050                                    S1
000467: 32,2111           24236                                    V(3K)
000468: 32,2112           65040                           BMN      XCHX,2
000469: 32,2113           64130                                    LOOPSET
000470: 32,2114           00050                                    S1
000471: 32,2115           50025                           DSU      BMN
000472: 32,2116           24246                                    V(4K)
000473: 32,2117           64130                                    LOOPSET
000474: 32,2120           65124                           XCHX,2   XCHX,2


000476: 32,2121           00050                                    S1
000477: 32,2122           00046                                    X1
000478: 32,2123           50025                           DSU      BMN
000479: 32,2124           24232                                    V(400)
000480: 32,2125           64130                                    LOOPSET
000481: 32,2126           77730                           SXA,1
000482: 32,2127           00050                                    S1
000483: 32,2130           52110        LOOPSET            INCR,1   GOTO
000484: 32,2131           00001                           DEC      1          B-14
000485: 32,2132           64135                                    K1K2LOOP
000486: 32,2133           77730        K2CALC             SXA,1
000487: 32,2134           00050                                    S1
000488: 32,2135           44745        K1K2LOOP           DLOAD    DSU*
000489: 32,2136           00001                                    0
000490: 32,2137           24245                                    V(32K)     +1,1
000491: 32,2140           42603                           DMP*     DAD*
000492: 32,2141           24231                                    YK1K2      +1,1
000493: 32,2142           24215                                    CK1K2      +1,1
000494: 32,2143           60125                           PDDL     TIX,1
000495: 32,2144           00003                                    2
000496: 32,2145           64133                                    K2CALC
000497: 32,2146           55225                           DSU      BDDV
000498: 32,2147           40006                           PUSH     BOV
000499: 32,2150           64173                                    MAXPHI
000500: 32,2151           45240                           BMN      DSU
000501: 32,2152           64173                                    MAXPHI
000502: 32,2153           24200                                    MAXPHIC
000503: 32,2154           77644                           BPL
000504: 32,2155           64173                                    MAXPHI
000505: 32,2156           45345        PHICALC            DLOAD    DSU                                   #  PHI ENTRY PDL 4D
000506: 32,2157           00001                                    0
000507: 32,2160           24256                                    V(26K)
000508: 32,2161           71244                           BPL      DLOAD
000509: 32,2162           64170                                    TGR26
000510: 32,2163           24252                                    TLESS26
000511: 32,2164           77671                           DDV
000512: 32,2165           00001                                    0
000513: 32,2166           43405        TENT               DMP      RVQ
000514: 32,2167           00005                                    4D
000515: 32,2170           52145        TGR26              DLOAD    GOTO
000516: 32,2171           24254                                    TGR26CON
000517: 32,2172           64166                                    TENT
000518:
000519: 32,2173           65345        MAXPHI             DLOAD    PDDL
000520: 32,2174           24200                                    MAXPHIC
000521: 32,2175           77650                           GOTO
000522: 32,2176           64156                                    PHICALC
000523: 32,2177           02755 01307  MAXPHIC            2DEC     .09259298                             #  2000 NM FOR MAXIMUM PHI ENTRY
000524:


000526:
000527: 32,2201                                           COUNT*   $$/P30
000528:
000529:                                                                                                  #                BELOW
000530:                                                                                                  #  <<<< TABLE IS INDEXED. KEEP IN ORDER >>>
000531:
000532: 32,2201           00013 22652                     2DEC     7.07304526 E-4                        #  5500
000533: 32,2203           00005 01642                     2DEC     3.08641975 E-4                        #  2400
000534: 32,2205           00005 01642                     2DEC     3.08641975 E-4                        #  2400
000535: 32,2207           77556 53522                     2DEC     -8.8888888 E-3                        #  -3.2
000536: 32,2211           00055 20266                     2DEC     2.7777777  E-3                        #  1
000537: 32,2213           00155 07202  CK1K2              2DEC     6.6666666  E-3                        #  2.4
000538: 32,2215           00000 00000                     2DEC     0          B-28                       #  0
000539: 32,2217           77730 71525                     2DEC*    -1.86909989 E-5        B7*             #  -.443
000540: 32,2221           00000 00000                     2DEC     0          B-28
000541: 32,2223           04445 10102                     2DEC*    1.11639691 E-3        B7*             #  .001225
000542: 32,2225           03726 31201                     2DEC*    9.56911636 E-4        B7*             #  .00105
000543: 32,2227           01040 26313  YK1K2              2DEC*    2.59733157 E-4        B7*             #  .000285
000544: 32,2231           00234 01660  V(400)             2DEC     1.2192     B-7
000545: 32,2233           25254 01014  V(28K)             2DEC     85.344     B-7
000546: 32,2235           02222 15646  V(3K)              2DEC     9.144      B-7
000547: 32,2237           22223 16457  V(24K)             2DEC     73.152     B-7
000548: 32,2241           25254 01014                     2DEC     85.344     B-7
000549: 32,2243           30304 23351  V(32K)             2DEC     97.536     B-7
000550: 32,2245           03030 22335  V(4K)              2DEC     12.192     B-7
000551: 32,2247           20000 00000  V(21K)             2DEC     64.000     B-7
000552: 32,2251           00033 05763  TLESS26            2DEC*    5.70146688 E7         B-35*           #  8660PHI/V
000553: 32,2253           00053 36200  TGR26CON           2DEC     7.2        E5         B-28            #  PHI/3
000554: 32,2255           23637 27636  V(26K)             2DEC     79.248     B-7                        #  26000
000555:


000557:
000558: 32,2257           00012        X1CON              DEC      10         B-14
000559: 32,2260           00010                           DEC      8          B-14
000560: 32,2261           00006                           DEC      6          B-14
000561:                                                                                                  #  <<<< TABLE IS INDEXED. KEEP IN ORDER >>>
000562:                                                                                                  #                     ABOVE


000564:                                                                                                  #  ..... AVFLAGA/P .....
000565:
000566:                                                                                                  #  SUBROUTINES USED
000567:
000568:                                                                                                  #        UPFLAG
000569:                                                                                                  #        DOWNFLAG
000570:
000571:    4000                                           SETLOC   P30SUBS
000572:    4000                                           BANK
000573:    4627  E4,1770                                  EBANK=   SUBEXIT
000574:    4627           00006        AVFLAGA            EXTEND                                         #  AVFLAG = CSM
000575:    4630           23770                           QXCH     SUBEXIT
000576:    4631           05560                           TC       DOWNFLAG
000577:    4632           00050                           ADRES    AVFLAG                                #  BIT 5 FLAG 2
000578:    4633           35060                           CAF      EBANK7
000579:    4634           54003                           TS       EBANK
000580:    4635  E7,1424                                  EBANK=   ECSTEER
000581:    4635           35003                           CAF      BIT13
000582:    4636           55424                           TS       ECSTEER                               #  SET ECSTEER = 1
000583:    4637           35005                           CAF      EBANK4
000584:    4640           54003                           TS       EBANK
000585:    4641  E4,1770                                  EBANK=   SUBEXIT
000586:    4641           01770                           TC       SUBEXIT
000587:    4642           00006        AVFLAGP            EXTEND                                         #  AVFLAG = LEM
000588:    4643           23770                           QXCH     SUBEXIT
000589:    4644           05546                           TC       UPFLAG
000590:    4645           00050                           ADRES    AVFLAG                                #  BIT 5 FLAG 2
000591:    4646           01770                           TC       SUBEXIT
000592:    4647           00006        P20FLGON           EXTEND
000593:    4650           23770                           QXCH     SUBEXIT
000594:    4651           05546                           TC       UPFLAG
000595:    4652           00031                           ADRES    TRACKFLG
000596:    4653           05546                           TC       UPFLAG
000597:    4654           00027                           ADRES    UPDATFLG
000598:    4655           01770                           TC       SUBEXIT                               #  DP B4
000599:
000600:

End of include-file P30,P37.agc.  Parent file is MAIN.agc


