
Source Code


000002:                                                                                                  ## Copyright:   Public domain.
000003:                                                                                                  ## Filename:    P34-P35,_P74-P75.agc
000004:                                                                                                  ## Purpose:     A section of Comanche revision 044.
000005:                                                                                                  ##              It is part of the reconstructed source code for the
000006:                                                                                                  ##              original release of the flight software for the Command
000007:                                                                                                  ##              Module's (CM) Apollo Guidance Computer (AGC) for Apollo 10.
000008:                                                                                                  ##              The code has been recreated from a copy of Comanche 055. It
000009:                                                                                                  ##              has been adapted such that the resulting bugger words
000010:                                                                                                  ##              exactly match those specified for Comanche 44 in NASA drawing
000011:                                                                                                  ##              2021153D, which gives relatively high confidence that the
000012:                                                                                                  ##              reconstruction is correct.
000013:                                                                                                  ## Assembler:   yaYUL
000014:                                                                                                  ## Contact:     Ron Burkey <info@sandroid.org>.
000015:                                                                                                  ## Website:     www.ibiblio.org/apollo/index.html
000016:                                                                                                  ## Mod history: 2020-12-03 MAS  Created from Comanche 51.
000017:                                                                                                  ##              2020-12-04 MAS  Removed all code related to NN, restored
000018:                                                                                                  ##                              DISPLAYE to its C249 behavior, and moved
000019:                                                                                                  ##                              S34/35.1 back to bank 35.
000020:


000022:                                                                                                  #  TRANSFER PHASE INITIATION (TPI) PROGRAMS (P34 AND P74)
000023:                                                                                                  #  MOD NO -1                     LOG SECTION - P32-P35, P72-P75
000024:                                                                                                  #  MOD BY WHITE.P                DATE 1JUNE67
000025:
000026:                                                                                                  #  PURPOSE
000027:                                                                                                  #        (1)     TO CALCULATE THE REQUIRED DELTA V AND OTHER INITIAL CONDITIONS
000028:                                                                                                  #                REQUIRED BY THE ACTIVE VEHICLE FOR EXECUTION OF THE TRANSFER
000029:                                                                                                  #                PHASE INITIATION (TPI) MANEUVER, GIVEN -
000030:                                                                                                  #                (A)     TIME OF IGNITION TIG (TPI) OR THE ELEVATION ANGLE (E) OF
000031:                                                                                                  #                        THE ACTIVE/PASSIVE VEHICLE LOS AT TIG (TPI).
000032:                                                                                                  #                (B)     CENTRAL ANGLE OF TRANSFER (CENTANG) FROM TIG (TPI) TO
000033:                                                                                                  #                        INTERCEPT TIME (TIG (TPF)).
000034:                                                                                                  #        (2)     TO CALCULATE TIG (TPI) GIVEN E OR E GIVEN TIG (TPI).
000035:                                                                                                  #        (3)     TO CALCULATE THESE PARAMETERS BASED UPON MANEUVER DATA
000036:                                                                                                  #                APPROVED AND KEYED INTO THE DSKY BY THE ASTRONAUT.
000037:                                                                                                  #        (4)     TO DISPLAY TO THE ASTRONAUT AND THE GROUND CERTAIN DEPENDENT
000038:                                                                                                  #                VARIABLES ASSOCIATED WITH THE MANEUVER FOR APPROVAL BY THE
000039:                                                                                                  #                ASTRONAUT/GROUND.
000040:                                                                                                  #        (5)     TO STORE THE TPI TARGET PARAMETERS FOR USE BY THE DESIRED
000041:                                                                                                  #                THRUSTING PROGRAM.
000042:
000043:                                                                                                  #  ASSUMPTIONS
000044:                                                                                                  #        (1)     LM ONLY - THIS PROGRAM IS BASED UPON PREVIOUS COMPLETION OF
000045:                                                                                                  #                THE CONSTANT DELTA ALTITUDE (CDH) PROGRAM (P33/P73).
000046:                                                                                                  #                THEREFORE -
000047:                                                                                                  #                (A)     AT A SELECTED TPI TIME (NOW IN STORAGE) THE LINE OF SIGHT
000048:                                                                                                  #                        BETWEEN THE ACTIVE AND PASSIVE VEHICLES WAS SELECTED TO BE
000049:                                                                                                  #                        A PRESCRIBED ANGLE (E) (NOW IN STORAGE) FROM THE
000050:                                                                                                  #                        HORIZONTAL PLANE DEFINED BY THE ACTIVE VEHICLE POSITION.
000051:                                                                                                  #                (B)     THE TIME BETWEEN CDH IGNITION AND TPI IGNITION WAS
000052:                                                                                                  #                        COMPUTED TO BE GREATER THAN 10 MINUTES.
000053:                                                                                                  #                (C)     THE VARIATION OF THE ALTITUDE DIFFERENCE BETWEEN THE
000054:                                                                                                  #                        ORBITS WAS MINIMIZED.
000055:                                                                                                  #                (D)     THE PERICENTER ALTITUDES OF ORBITS FOLLOWING CSI AND
000056:                                                                                                  #                        CDH WERE COMPUTED TO BE GREATER THAN 35,000 FT FOR LUNAR


000058:                                                                                                  #                        ORBIT OR 85 NM FOR EARTH ORBIT.
000059:                                                                                                  #                (E)     THE CSI AND CDH MANEUVERS WERE ASSUMED TO BE PARALLEL TO
000060:                                                                                                  #                        THE PLANE OF THE PASSIVE VEHICLE ORBIT.  HOWEVER, CREW
000061:                                                                                                  #                        MODIFICATION OF DELTA V (LV) COMPONENTS MAY HAVE RESULTED
000062:                                                                                                  #                        IN AN OUT-OF-PLANE MANEUVER.
000063:                                                                                                  #        (2)     STATE VECTOR UPDATED BY P27 ARE DISALLOWED DURING AUTOMATIC
000064:                                                                                                  #                STATE VECTOR UPDATING INITIATED BY P20 (SEE ASSUMPTION (4)).
000065:                                                                                                  #        (3)     THIS PROGRAM MUST BE DONE OVER A TRACKING STATION FOR REAL
000066:                                                                                                  #                TIME GROUND PARTICIPATION IN DATA INPUT AND OUTPUT.  COMPUTED
000067:                                                                                                  #                VARIABLES MAY BE STORED FOR LATER VERIFICATION BY THE GROUND.
000068:                                                                                                  #                THESE STORAGE CAPABILITIES ARE LIMITED ONLY TO THE PARAMETERS
000069:                                                                                                  #                FOR ONE THRUSTING MANEUVER AT A TIME EXCEPT FOR CONCENTRIC
000070:                                                                                                  #                FLIGHT PLAN MANEUVER SEQUENCES.
000071:                                                                                                  #        (4)     THE RENDEZVOUS RADAR MAY OR MAY NOT BE USED TO UPDATE THE LM
000072:                                                                                                  #                OR CSM STATE VECTORS FOR THIS PROGRAM.  IF RADAR USE IS
000073:                                                                                                  #                DESIRED THE RADAR WAS TURNED ON AND LOCKED ON THE CSM BY
000074:                                                                                                  #                PREVIOUS SELECTION OF P20.  RADAR SIGHTING MARKS WILL BE MADE
000075:                                                                                                  #                AUTOMATICALLY APPROXIMATELY ONCE A MINUTE WHEN ENABLED BY THE
000076:                                                                                                  #                TRACK AND UPDATE FLAGS (SEE P20).  THE RENDEZVOUS TRACKING
000077:                                                                                                  #                MARK COUNTER IS ZEROED BY THE SELECTION OF P20 AND AFTER EACH
000078:                                                                                                  #                THRUSTING MANEUVER.
000079:                                                                                                  #        (5)     THE ISS NEED NOT BE ON TO COMPLETE THIS PROGRAM.
000080:                                                                                                  #        (6)     THE OPERATION OF THE PROGRAM UTILIZES THE FOLLOWING FLAGS -
000081:
000082:                                                                                                  #                        ACTIVE VEHICLE FLAG - DESIGNATES THE VEHICLE WHICH IS
000083:                                                                                                  #                        DOING RENDEZVOUS THRUSTING MANEUVERS TO THE PROGRAM WHICH
000084:                                                                                                  #                        CALCULATES THE MANEUVER PARAMETERS.  SET AT THE START OF
000085:                                                                                                  #                        EACH RENDEZVOUS PRE-THRUSTING PROGRAM.
000086:
000087:                                                                                                  #                        FINAL FLAG - SELECTS FINAL PROGRAM DISPLAYS AFTER CREW HAS
000088:                                                                                                  #                        SELECTED THE FINAL MANEUVER COMPUTATION CYCLE.
000089:
000090:                                                                                                  #                        EXTERNAL DELTA V FLAG - DESIGNATES THE TYPE OF STEERING
000091:                                                                                                  #                        REQUIRED FOR EXECUTION OF THIS MANEUVER BY THE THRUSTING
000092:                                                                                                  #                        PROGRAM SELECTED AFTER COMPLETION OF THIS PROGRAM.
000093:
000094:                                                                                                  #        (7)     ONCE THE PARAMETWRS REQUIRED FOR COMPUTION OF THE MANEUVER
000095:                                                                                                  #                HAVE BEEN COMPLETELY SPECIFIED, THE VALUE OF THE ACTIVE
000096:                                                                                                  #                VEHICLE CENTRAL ANGLE OF TRANSFER IS COMPUTED AND STORED.
000097:                                                                                                  #                THIS NUMBER WILL BE AVAILABLE FOR DISPLAY TO THE ASTRONAUT
000098:                                                                                                  #                THROUGH THE USE OF V06N52.
000099:
000100:                                                                                                  #                THE ASTRONAUT WILL CALL THIS DISPLAY TO VERIFY THAT THE
000101:                                                                                                  #                CENTRAL ANGLE OF TRANSFER OF THE ACTIVE VEHICLE IS NOT WITHIN


000103:                                                                                                  #                170 TO 190 DEGREES.  IF THE ANGLE IS WITHIN THIS ZONE THE
000104:                                                                                                  #                ASTRONAUT SHOULD REASSESS THE INPUT TARGETING PARAMETERS BASED
000105:                                                                                                  #                UPON DELTA V AND EXPECTED MANEUVER TIME.
000106:                                                                                                  #        (8)     THIS PROGRAM IS SELECTED BY THE ASTRONAUT BY DSKY ENTRY -
000107:
000108:                                                                                                  #                        P34 IF THIS VEHICLE IS ACTIVE VEHICLE.
000109:
000110:                                                                                                  #                        P74 IF THIS VEHICLE IS PASSIVE VEHICLE.
000111:
000112:                                                                                                  #  INPUT
000113:                                                                                                  #        (1)     TTPI    TIME OF THE TPI MANEUVER
000114:                                                                                                  #        (2)     ELEV    DESIRED LOS ANGLE AT TPI
000115:                                                                                                  #        (3)     CENTANG ORBITAL CENTRAL ANGLE OF THE PASSIVE VEHICLE DURING
000116:                                                                                                  #                        TRANSFER FROM TPI TO TIME OF INTERCEPT
000117:
000118:                                                                                                  #  OUTPUT
000119:                                                                                                  #        (1)     TRKMKCNT        NUMBER OF MARKS
000120:                                                                                                  #        (2)     TTOGO           TIME TO GO
000121:                                                                                                  #        (3)     +MGA            MIDDLE GIMBAL ANGLE
000122:                                                                                                  #        (4)     TTPI            COMPUTED TIME OF TPI MANEUVER
000123:                                                                                                  #                 OR
000124:                                                                                                  #                ELEV            COMPUTED LOS ANGLE AT TPI
000125:                                                                                                  #        (5)     POSTTPI         PERIGEE ALTITUDE AFTER THE TPI MANEUVER
000126:                                                                                                  #        (6)     DELVTPI         MAGNITUDE OF DELTA V AT TPI
000127:                                                                                                  #        (7)     DELVTPF         MAGNITUDE OF DELTA V AT INTERCEPT
000128:                                                                                                  #        (8)     DVLOS           DELTA VELOCITY AT TPI - LINE OF SIGHT
000129:                                                                                                  #        (9)     DELVLVC         DELTA VELOCITY AT TPI - LOCAL VERTICAL COORDINATES
000130:
000131:                                                                                                  #  DOWNLINK
000132:                                                                                                  #        (1)     TTPI            TIME OF THE TPI MANEUVER
000133:                                                                                                  #        (2)     TIG             TIME OF THE TPI MANEUVER
000134:                                                                                                  #        (3)     ELEV            DESIRED LOS ANGLE AT TPI
000135:                                                                                                  #        (4)     CENTANG         ORBITAL CENTRAL ANGLE OF THE PASSIVE VEHICLE DURING
000136:                                                                                                  #                                TRANSFER FROM TPI TO TIME OF INTERCEPT
000137:                                                                                                  #        (5)     DELVEET3        DELTA VELOCITY AT TPI - REFERENCE COORDINATES
000138:                                                                                                  #        (6)     TPASS4          TIME OF INTERCEPT
000139:
000140:                                                                                                  #  COMMUNICATION TO THRUSTING PROGRAMS
000141:                                                                                                  #        (1)     TIG             TIME OF THE TPI MANEUVER
000142:                                                                                                  #        (2)     RTARG           OFFSET TARGET POSITION
000143:                                                                                                  #        (3)     TPASS4          TIME OF INTERCEPT
000144:                                                                                                  #        (4)     XDELVFLG        RESET TO INDICATE LAMBERT (AIMPOINT) VG COMPUTATION
000145:
000146:                                                                                                  #  SUBROUTINES USED
000147:                                                                                                  #        AVFLAGA


000149:                                                                                                  #        AVFLAGP
000150:                                                                                                  #        VNPOOH
000151:                                                                                                  #        DISPLAYE
000152:                                                                                                  #        SELECTMU
000153:                                                                                                  #        PRECSET
000154:                                                                                                  #        S33/34.1
000155:                                                                                                  #        ALARM
000156:                                                                                                  #        BANKCALL
000157:                                                                                                  #        GOFLASH
000158:                                                                                                  #        GOTOPOOH
000159:                                                                                                  #        TIMETHET
000160:                                                                                                  #        S34/35.2
000161:                                                                                                  #        PERIAPO1
000162:                                                                                                  #        SHIFTR1
000163:                                                                                                  #        S34/35.5
000164:                                                                                                  #        VN1645
000165:
000166: 35,2000                                           SETLOC   CSI/CDH
000167: 35,2000                                           BANK
000168: 35,2000  E4,1770                                  EBANK=   SUBEXIT
000169: 35,2000                                           COUNT    35/P3474
000170:
000171: 35,2000           04627        P34                TC       AVFLAGA
000172: 35,2001           02003                           TC       P34/P74A
000173: 35,2002           04642        P74                TC       AVFLAGP
000174: 35,2003           04647        P34/P74A           TC       P20FLGON                              #  SET UPDATFLG, TRACKFLG
000175: 35,2004           34614                           CAF      V06N37                                #  TTPI
000176: 35,2005           04575                           TC       VNPOOH
000177: 35,2006           03071                           TC       DISPLAYE                              #  ELEV AND CENTANG
000178: 35,2007           06006                           TC       INTPRET
000179: 35,2010           71214                           CLEAR    DLOAD
000180: 35,2011           01270                                    ETPIFLAG
000181: 35,2012           03663                                    TTPI
000182: 35,2013           17413                           STODL    TIG
000183: 35,2014           03744                                    ELEV
000184: 35,2015           43054                           BZE      SET
000185: 35,2016           72020                                    P34/P74B
000186: 35,2017           01070                                    ETPIFLAG
000187: 35,2020           77624        P34/P74B           CALL
000188: 35,2021           10712                                    SELECTMU
000189: 35,2022                        DELELO             EQUALS   26D
000190: 35,2022           43145        P34/P74C           DLOAD    SET
000191: 35,2023           15335                                    ZEROVECS
000192: 35,2024           03461                                    ITSWICH
000193: 35,2025           43014                           BON      CLEAR
000194: 35,2026           01310                                    ETPIFLAG


000196: 35,2027           72031                                    SWCHSET
000197: 35,2030           03661                                    ITSWICH
000198: 35,2031           02364        SWCHSET            STORE    NOMTPI
000199: 35,2032           43345        INTLOOP            DLOAD    DAD
000200: 35,2033           03663                                    TTPI
000201: 35,2034           02364                                    NOMTPI
000202: 35,2035           34041                           STCALL   TDEC1
000203: 35,2036           45215                                    PRECSET
000204: 35,2037           77624                           CALL
000205: 35,2040           72212                                    S33/34.1
000206: 35,2041           77454                           BZE      EXIT
000207: 35,2042           72053                                    SWCHCLR
000208: 35,2043           05650                           TC       ALARM
000209: 35,2044           00611                           OCT      611
000210: 35,2045           35050                           CAF      V05N09
000211: 35,2046           04662                           TC       BANKCALL
000212: 35,2047           20720                           CADR     GOFLASH
000213: 35,2050           04106                           TC       GOTOPOOH
000214: 35,2051           02003                           TC       P34/P74A                              #  PROCEED
000215: 35,2052           02043                           TC       -7                                    #  V32
000216:
000217: 35,2053           43014        SWCHCLR            BONCLR   BON
000218: 35,2054           03601                                    ITSWICH
000219: 35,2055           72032                                    INTLOOP
000220: 35,2056           01310                                    ETPIFLAG
000221: 35,2057           72063                                    P34/P74D                              #  DISPLAY TTPI
000222: 35,2060           77776                           EXIT
000223: 35,2061           03071                           TC       DISPLAYE                              #  DISPLAY ELEV AND CENTANG
000224: 35,2062           02066                           TC       P34/P74E
000225: 35,2063           77776        P34/P74D           EXIT
000226: 35,2064           34614                           CAF      V06N37                                #  TTPI
000227: 35,2065           04575                           TC       VNPOOH
000228: 35,2066           06006        P34/P74E           TC       INTPRET
000229: 35,2067           71201                           SETPD    DLOAD
000230: 35,2070           00001                                    0D
000231: 35,2071           03746                                    RTX1
000232: 35,2072           14047                           STODL    X1
000233: 35,2073           03754                                    CENTANG
000234: 35,2074           71406                           PUSH     COS
000235: 35,2075           16734                           STODL    CSTH
000236: 35,2076           77756                           SIN
000237: 35,2077           26732                           STOVL    SNTH
000238: 35,2100           03554                                    RPASS3
000239: 35,2101           77657                           VSR*
000240: 35,2102           57176                                    0,2
000241: 35,2103           26657                           STOVL    RVEC
000242: 35,2104           03562                                    VPASS3
000243: 35,2105           43057                           VSR*     SET
000244: 35,2106           57176                                    0,2
000245: 35,2107           03466                                    RVSW


000247: 35,2110           36746                           STCALL   VVEC
000248: 35,2111           24744                                    TIMETHET
000249: 35,2112           77745                           DLOAD
000250: 35,2113           03663                                    TTPI
000251: 35,2114           03503                           STORE    INTIME                                #  FOR INITVEL
000252: 35,2115           77615                           DAD
000253: 35,2116           00037                                    T                                     #  RENDEZVOUS TIME
000254: 35,2117           37656                           STCALL   TPASS4                                #  FOR INITVEL
000255: 35,2120           72534                                    S34/35.2
000256: 35,2121           51575                           VLOAD    ABVAL
000257: 35,2122           03646                                    DELVEET3
000258: 35,2123           26635                           STOVL    DELVTPI
000259: 35,2124           03640                                    VPASS4
000260: 35,2125           51451                           VSU      ABVAL
000261: 35,2126           03620                                    VTPRIME
000262: 35,2127           26637                           STOVL    DELVTPF
000263: 35,2130           03540                                    RACT3
000264: 35,2131           45115                           PDVL     CALL
000265: 35,2132           03612                                    VIPRIME
000266: 35,2133           45153                                    PERIAPO1
000267: 35,2134           77624                           CALL
000268: 35,2135           45263                                    SHIFTR1
000269: 35,2136           16641                           STODL    POSTTPI
000270: 35,2137           03663                                    TTPI
000271: 35,2140           03413                           STORE    TIG
000272: 35,2141           77776                           EXIT
000273: 35,2142           34616                           CAF      V06N58
000274: 35,2143           04575                           TC       VNPOOH
000275: 35,2144           06006                           TC       INTPRET
000276: 35,2145           77624                           CALL
000277: 35,2146           72742                                    S34/35.5
000278: 35,2147           77624                           CALL
000279: 35,2150           73003                                    VN1645
000280: 35,2151           77650                           GOTO
000281: 35,2152           72022                                    P34/P74C
000282:


000284:                                                                                                  #  RENDEZVOUS MID-COURSE MANEUVER PROGRAMS (P35 AND P75)
000285:                                                                                                  #  MOD NO -1                     LOG SECTION - P32-P35, P72-P75
000286:                                                                                                  #  MOD BY WHITE.P                DATE  1JUNE67
000287:
000288:                                                                                                  #  PURPOSE
000289:                                                                                                  #        (1)     TO CALCULATE THE REQUIRED DELTA V AND OTHER INITIAL CONDITIONS
000290:                                                                                                  #                REQUIRED BY THE ACTIVE VEHICLE FOR EXECUTION OF THE NEXT
000291:                                                                                                  #                MIDCOURSE CORRECTION OF THE TRANSFER PHASE OF AN ACTIVE
000292:                                                                                                  #                VEHICLE RENDEZVOUS.
000293:                                                                                                  #        (2)     TO DISPLAY TO THE ASTRONAUT AND THE GROUND CERTAIN DEPENDENT
000294:                                                                                                  #                VARIABLES ASSOCIATED WITH THE MANEUVER FOR APPROVAL BY THE
000295:                                                                                                  #                ASTRONAUT/GROUND.
000296:                                                                                                  #        (3)     TO STORE THE TPM TARGET PARAMETERS FOR USE BY THE DESIRED
000297:                                                                                                  #                THRUSTING PROGRAM.
000298:
000299:                                                                                                  #  ASSUMPTIONS
000300:                                                                                                  #        (1)     THE ISS NEED NOT BE ON TO COMPLETE THIS PROGRAM.
000301:                                                                                                  #        (2)     STATE VECTOR UPDATES BY P27 ARE DISALLOWED DURING AUTOMATIC
000302:                                                                                                  #                STATE VECTOR UPDATING INITIATED BY P20 (SEE ASSUMPTION (3)).
000303:                                                                                                  #        (3)     THE RENDEZVOUS RADAR IS ON AND IS LOCKED ON THE CSM.  THIS WAS
000304:                                                                                                  #                DONE DURING PREVIOUS SELECTION OF P20.  RADAR SIGHTING MARKS
000305:                                                                                                  #                WILL BE MADE AUTOMATICALLY APPROXIMATELY ONCE A MINUTE WHEN
000306:                                                                                                  #                ENABLED BY THE TRACK AND UPDATE FLAGS (SEE P20).  THE
000307:                                                                                                  #                RENDEZVOUS TRACKING MARK COUNTER IS ZEROED BY THE SELECTION OF
000308:                                                                                                  #                P20 AND AFTER EACH THRUSTING MANEUVER.
000309:                                                                                                  #        (4)     THE OPERATION OF THE PROGRAM UTILIZES THE FOLLOWING FLAGS -
000310:
000311:                                                                                                  #                        ACTIVE VEHICLE FLAG - DESIGNATES THE VEHICLE WHICH IS
000312:                                                                                                  #                        DOING RENDEZVOUS THRUSTING MANEUVERS TO THE PROGRAM WHICH
000313:                                                                                                  #                        CALCULATES THE MANEUVER PARAMETERS.  SET AT THE START OF
000314:                                                                                                  #                        EACH RENDEZVOUS PRE-THRUSTING PROGRAM.
000315:
000316:                                                                                                  #                        FINAL FLAG - SELECTS FINAL PROGRAM DISPLAYS AFTER CREW HAS
000317:                                                                                                  #                        SELECTED THE FINAL MANEUVER COMPUTATION CYCLE.
000318:
000319:                                                                                                  #                        EXTERNAL DELTA V FLAG - DESIGNATES THE TYPE OF STEERING
000320:                                                                                                  #                        REQUIRED FOR EXECUTION OF THIS MANEUVER BY THE THRUSTING
000321:                                                                                                  #                        PROGRAM SELECTED AFTER COMPLETION OF THIS PROGRAM.
000322:
000323:                                                                                                  #        (5)     THE TIME OF INTERCEPT (T(INT)) WAS DEFINED BY PREVIOUS
000324:                                                                                                  #                COMPLETION OF THE TRANSFER PHASE INITIATION (TPI) PROGRAM
000325:                                                                                                  #                (P34/P74) AND IS PRESENTLY AVAILABLE IN STORAGE.


000327:                                                                                                  #        (6)     ONCE THE PARAMETERS REQUIRED FOR COMPUTION OF THE MANEUVER
000328:                                                                                                  #                HAVE BEEN COMPLETELY SPECIFIED, THE VALUE OF THE ACTIVE
000329:                                                                                                  #                VEHICLE CENTRAL ANGLE OF TRANSFER IS COMPUTED AND STORED.
000330:                                                                                                  #                THIS NUMBER WILL BE AVAILABLE FOR DISPLAY TO THE ASTRONAUT
000331:                                                                                                  #                THROUGH THE USE OF V06N52.
000332:
000333:                                                                                                  #                THE ASTRONAUT WILL CALL THIS DISPLAY TO VERIFY THAT THE
000334:                                                                                                  #                CENTRAL ANGLE OF TRANSFER OF THE ACTIVE VEHICLE IS NOT WITHIN
000335:                                                                                                  #                170 TO 190 DEGREES.  IF THE ANGLE IS WITHIN THIS ZONE THE
000336:                                                                                                  #                ASTRONAUT SHOULD REASSESS THE INPUT TARGETING PARAMETERS BASED
000337:                                                                                                  #                UPON DELTA V AND EXPECTED MANEUVER TIME.
000338:                                                                                                  #        (7)     THIS PROGRAM IS SELECTED BY THE ASTRONAUT BY DSKY ENTRY -
000339:
000340:                                                                                                  #                        P35 IF THIS VEHICLE IS ACTIVE VEHICLE.
000341:
000342:                                                                                                  #                        P75 IF THIS VEHICLE IS PASSIVE VEHICLE.
000343:
000344:                                                                                                  #  INPUT
000345:                                                                                                  #        (1)     TPASS4          TIME OF INTERCEPT - SAVED FROM P34/P74
000346:
000347:                                                                                                  #  OUTPUT
000348:                                                                                                  #        (1)     TRKMKCNT        NUMBER OF MARKS
000349:                                                                                                  #        (2)     TTOGO           TIME TO GO
000350:                                                                                                  #        (3)     +MGA            MIDDLE GIMBAL ANGLE
000351:                                                                                                  #        (4)     DVLOS           DELTA VELOCITY AT MID - LINE OF SIGHT
000352:                                                                                                  #        (5)     DELVLVC         DELTA VELOCITY AT MID - LOCAL VERTICAL COORDINATES
000353:
000354:                                                                                                  #  DOWNLINK
000355:                                                                                                  #        (1)     TIG             TIME OF THE TPM MANEUVER
000356:                                                                                                  #        (2)     DELVEET3        DELTA VELOCITY AT TPM - REFERENCE COORDINATES
000357:                                                                                                  #        (3)     TPASS4          TIME OF INTERCEPT
000358:
000359:                                                                                                  #  COMMUNICATION TO THRUSTING PROGRAMS
000360:                                                                                                  #        (1)     TIG             TIME OF THE TPM MANEUVER
000361:                                                                                                  #        (2)     RTARG           OFFSET TARGET POSITION
000362:                                                                                                  #        (3)     TPASS4          TIME OF INTERCEPT
000363:                                                                                                  #        (4)     XDELVFLG        RESET TO INDICATE LAMBERT (AIMPOINT) VG COMPUTATION
000364:
000365:                                                                                                  #  SUBROUTINES USED
000366:                                                                                                  #        AVFLAGA
000367:                                                                                                  #        AVFLAGP
000368:                                                                                                  #        LOADTIME
000369:                                                                                                  #        SELECTMU
000370:                                                                                                  #        PRECSET
000371:                                                                                                  #        S34/35.1
000372:                                                                                                  #        S34/35.2


000374:                                                                                                  #        S34/35.5
000375:                                                                                                  #        VN1645
000376:
000377: 35,2153                                           COUNT    35/P3575
000378: 35,2153  E4,1763                                  EBANK=   KT
000379:
000380: 35,2153           04627        P35                TC       AVFLAGA
000381: 35,2154           00006                           EXTEND
000382: 35,2155           31422                           DCA      ATIGINC
000383: 35,2156           02162                           TC       P35/P75A
000384: 35,2157           04642        P75                TC       AVFLAGP
000385: 35,2160           00006                           EXTEND
000386: 35,2161           31424                           DCA      PTIGINC
000387: 35,2162           53764        P35/P75A           DXCH     KT
000388: 35,2163           04647                           TC       P20FLGON                              #  SET UPDATFLG, TRACKFLG
000389: 35,2164           06006                           TC       INTPRET
000390: 35,2165           77624                           CALL
000391: 35,2166           10712                                    SELECTMU
000392: 35,2167           77634        P35/P75B           RTB
000393: 35,2170           45510                                    LOADTIME
000394: 35,2171           03665                           STORE    TSTRT
000395: 35,2172           77615                           DAD
000396: 35,2173           02364                                    KT
000397: 35,2174           03413                           STORE    TIG
000398: 35,2175           03503                           STORE    INTIME                                #  FOR INITVEL
000399: 35,2176           34041                           STCALL   TDEC1
000400: 35,2177           45215                                    PRECSET                               #  ADVANCE BOTH VEHICLES
000401: 35,2200           77624                           CALL
000402: 35,2201           72522                                    S34/35.1                              #  GET NORM AND LOS FOR TRANSFORM
000403: 35,2202           77624                           CALL
000404: 35,2203           72534                                    S34/35.2                              #  GET DELTA V(LV)
000405: 35,2204           77624                           CALL
000406: 35,2205           72742                                    S34/35.5
000407: 35,2206           77624                           CALL
000408: 35,2207           73003                                    VN1645
000409: 35,2210           77650                           GOTO
000410: 35,2211           72167                                    P35/P75B


000412:                                                                                                  #  ..... S33/34.1 .....
000413:
000414: 35,2212           66220        S33/34.1           STQ      SSP
000415: 35,2213           01340                                    NORMEX
000416: 35,2214           03665                                    TITER
000417: 35,2215           40000                           OCT      40000
000418: 35,2216           40345                           DLOAD    SETPD
000419: 35,2217           33115                                    MAX250
000420: 35,2220           00001                                    0D
000421: 35,2221           27454                           STOVL    SECMAX
000422: 35,2222           03540                                    RACT3
000423: 35,2223           27576                           STOVL    RAPREC
000424: 35,2224           03546                                    VACT3
000425: 35,2225           27570                           STOVL    VAPREC
000426: 35,2226           03554                                    RPASS3
000427: 35,2227           27620                           STOVL    RPPREC
000428: 35,2230           03562                                    VPASS3
000429: 35,2231           03612                           STORE    VPPREC
000430: 35,2232           77624        ELCALC             CALL
000431: 35,2233           72522                                    S34/35.1                              #  NORMAL AND LOS
000432: 35,2234           63235                           VXV      PDVL
000433: 35,2235           03540                                    RACT3                                 #  (RA*VA)*RA 0D
000434: 35,2236           53515                           PDVL     UNIT                                  #  ULOS AT 6D
000435: 35,2237           03540                                    RACT3
000436: 35,2240           46315                           PDVL     VPROJ                                 #  XCHNJ AND UP
000437: 35,2241           51352                           VSL2     BVSU
000438: 35,2242           02625                                    ULOS
000439: 35,2243           63256                           UNIT     PDVL                                  #  UP AT 0D
000440: 35,2244           63241                           DOT      PDVL                                  #  UP.UN*RA AT 0D
000441: 35,2245           00001                                    0D                                    #  UP IN MPAC
000442: 35,2246           75241                           DOT      SIGN
000443: 35,2247           02625                                    ULOS
000444: 35,2250           65552                           SL1      ACOS
000445: 35,2251           50315                           PDVL     DOT                                   #  EA AT 0D
000446: 35,2252           02625                                    ULOS
000447: 35,2253           03540                                    RACT3
000448: 35,2254           71244                           BPL      DLOAD
000449: 35,2255           72260                                    TESTY
000450: 35,2256           15343                                    DPPOSMAX
000451: 35,2257           41425                           DSU      PUSH
000452: 35,2260           71214        TESTY              BOFF     DLOAD
000453: 35,2261           03741                                    ITSWICH
000454: 35,2262           72507                                    ELEX
000455: 35,2263           03452                                    DELEL
000456: 35,2264           14033                           STODL    DELELO
000457: 35,2265           77625                           DSU
000458: 35,2266           03744                                    ELEV
000459: 35,2267           03452                           STORE    DELEL
000460: 35,2270           45246                           ABS      DSU
000461: 35,2271           33121                                    ELEPS


000463: 35,2272           77640                           BMN
000464: 35,2273           72517                                    TIMEX                                 #  COMMERCIALS EVERYWHERE
000465: 35,2274           70535        FIGTIME            SLOAD    SR1
000466: 35,2275           03665                                    TITER
000467: 35,2276           72030                           BHIZ     LXA,1
000468: 35,2277           01340                                    NORMEX                                #  TOO MANY ITERATIONS
000469: 35,2300           00154                                    MPAC
000470: 35,2301           77330                           SXA,1    VLOAD
000471: 35,2302           03664                                    TITER
000472: 35,2303           03554                                    RPASS3
000473: 35,2304           65256                           UNIT     PDDL
000474: 35,2305           00045                                    36D
000475: 35,2306           53515                           PDVL     UNIT
000476: 35,2307           03540                                    RACT3
000477: 35,2310           77725                           PDDL
000478: 35,2311           41525                           PDDL     PUSH
000479: 35,2312           00045                                    36D
000480: 35,2313           77621                           BDSU
000481: 35,2314           00015                                    12D
000482: 35,2315           14037                           STODL    30D                                   #  RP-RA MAGNITUDES
000483: 35,2316           15333                                    DPHALF
000484: 35,2317           41425                           DSU      PUSH
000485: 35,2320           03744                                    ELEV
000486: 35,2321           50165                           SIGN     BMN
000487: 35,2322           00037                                    30D
000488: 35,2323           01340                                    NORMEX
000489: 35,2324           71545                           DLOAD    COS
000490: 35,2325           56205                           DMP      DDV
000491: 35,2326           00017                                    14D
000492: 35,2327           00015                                    12D
000493: 35,2330           77676                           DCOMP                                          #  SINCE COS(180-A)=-COS A
000494: 35,2331           00035                           STORE    28D
000495: 35,2332           44246                           ABS      BDSU
000496: 35,2333           15333                                    DPHALF
000497: 35,2334           77240                           BMN      VLOAD
000498: 35,2335           01340                                    NORMEX
000499: 35,2336           02617                                    UNRM
000500: 35,2337           53435                           VXV      UNIT
000501: 35,2340           00007                                    6D                                    #  UN*RA
000502: 35,2341           41241                           DOT      DMP
000503: 35,2342           03546                                    VACT3
000504: 35,2343           00015                                    12D
000505: 35,2344           47315                           PDVL     VXV
000506: 35,2345           00001                                    0D
000507: 35,2346           03562                                    VPASS3
000508: 35,2347           53435                           VXV      UNIT
000509: 35,2350           00001                                    0D                                    #  (RP*VP)*RP
000510: 35,2351           41241                           DOT      DMP
000511: 35,2352           03562                                    VPASS3
000512: 35,2353           00017                                    14D


000514: 35,2354           77621                           BDSU
000515: 35,2355           63301                           NORM     PDVL                                  #  NORMALIZED WA-WP 12D
000516: 35,2356           00047                                    X1
000517: 35,2357           00007                                    6D
000518: 35,2360           50235                           VXV      DOT
000519: 35,2361           00001                                    0D
000520: 35,2362           02617                                    UNRM                                  #  RA*RP.UN 14D
000521: 35,2363           50315                           PDVL     DOT
000522: 35,2364           00001                                    0D
000523: 35,2365           00007                                    6D
000524: 35,2366           65552                           SL1      ACOS
000525: 35,2367           77765                           SIGN
000526: 35,2370           43225                           DSU      DAD                                   #  ALPHA PI
000527: 35,2371           15333                                    DPHALF
000528: 35,2372           03744                                    ELEV
000529: 35,2373           65525                           PDDL     ACOS
000530: 35,2374           00035                                    28D
000531: 35,2375           75221                           BDSU     SIGN
000532: 35,2376           15333                                    DPHALF
000533: 35,2377           00037                                    30D                                   #  CONTAINS RP-RA
000534: 35,2400           77615                           DAD
000535: 35,2401           56205                           DMP      DDV
000536: 35,2402           33113                                    TWOPI
000537: 35,2403           77605                           DMP
000538: 35,2404           41257                           SL*      DMP
000539: 35,2405           20176                                    0          -3,1
000540: 35,2406           51406                           PUSH     ABS
000541: 35,2407           50025                           DSU      BMN
000542: 35,2410           03454                                    SECMAX
000543: 35,2411           72415                                    OKMAX
000544: 35,2412           75345                           DLOAD    SIGN                                  #  REPLACE TIME WITH MAX TIME SIGNED
000545: 35,2413           03454                                    SECMAX
000546: 35,2414           77606                           PUSH
000547: 35,2415           51135        OKMAX              SLOAD    BPL                                   #  TEST FIRST ITERATION
000548: 35,2416           03665                                    TITER
000549: 35,2417           72425                                    REPETE
000550: 35,2420           71331                           SSP      DLOAD
000551: 35,2421           03665                                    TITER
000552: 35,2422           37777                           OCT      37777
000553: 35,2423           77650                           GOTO
000554: 35,2424           72463                                    STORDELT
000555: 35,2425           41345        REPETE             DLOAD    DMP
000556: 35,2426           03452                                    DELEL
000557: 35,2427           00033                                    DELELO
000558: 35,2430           71244                           BPL      DLOAD
000559: 35,2431           72441                                    NEXTES
000560: 35,2432           03454                                    SECMAX
000561: 35,2433           77605                           DMP
000562: 35,2434           33117                                    THIRD
000563: 35,2435           17454                           STODL    SECMAX


000565: 35,2436           70446                           ABS      SR1                                   #  CROSSED OVER SOLUTION
000566: 35,2437           52076                           DCOMP    GOTO                                  #  DT=(-SIGN(DTO)//DT//)/2
000567: 35,2440           72451                                    RESIGN
000568: 35,2441           51545        NEXTES             DLOAD    ABS
000569: 35,2442           03452                                    DELEL
000570: 35,2443           51525                           PDDL     ABS
000571: 35,2444           00033                                    DELELO
000572: 35,2445           77625                           DSU
000573: 35,2446           71240                           BMN      DLOAD
000574: 35,2447           72454                                    REVERS                                #  WRONG DIRECTION
000575: 35,2450           77646                           ABS
000576: 35,2451           52165        RESIGN             SIGN     GOTO
000577: 35,2452           03450                                    DELTEEO
000578: 35,2453           72463                                    STORDELT
000579: 35,2454           57545        REVERS             DLOAD    DCOMP
000580: 35,2455           03450                                    DELTEEO
000581: 35,2456           70406                           PUSH     SR1
000582: 35,2457           03450                           STORE    DELTEEO
000583: 35,2460           77615                           DAD
000584: 35,2461           77650                           GOTO
000585: 35,2462           72464                                    ADTIME
000586: 35,2463           03450        STORDELT           STORE    DELTEEO
000587: 35,2464           77615        ADTIME             DAD
000588: 35,2465           02364                                    NOMTPI                                #  SUM OF DELTA T:S
000589: 35,2466           02364                           STORE    NOMTPI
000590: 35,2467           63375                           VLOAD    PDVL
000591: 35,2470           03570                                    VAPREC
000592: 35,2471           03576                                    RAPREC
000593: 35,2472           77624                           CALL
000594: 35,2473           72702                                    GOINT
000595: 35,2474           77624                           CALL
000596: 35,2475           45237                                    ACTIVE                                #  STORE NEW RACT3 VACT3
000597: 35,2476           63375                           VLOAD    PDVL
000598: 35,2477           03612                                    VPPREC
000599: 35,2500           03620                                    RPPREC
000600: 35,2501           77624                           CALL
000601: 35,2502           72702                                    GOINT
000602: 35,2503           77624                           CALL
000603: 35,2504           45247                                    PASSIVE                               #  STORE NEW RPASS3 VPASS3
000604: 35,2505           77650                           GOTO
000605: 35,2506           72232                                    ELCALC
000606: 35,2507           43345        ELEX               DLOAD    DAD
000607: 35,2510           03663                                    TTPI
000608: 35,2511           02364                                    NOMTPI
000609: 35,2512           17663                           STODL    TTPI
000610: 35,2513           77614                           BON
000611: 35,2514           01310                                    ETPIFLAG
000612: 35,2515           72517                                    TIMEX
000613: 35,2516           03744                           STORE    ELEV
000614: 35,2517           52145        TIMEX              DLOAD    GOTO


000616: 35,2520           15335                                    ZEROVECS
000617: 35,2521           01340                                    NORMEX
000618:


000620:                                                                                                  #  ..... S34/35.1 .....
000621:
000622:                                                                                                  #  COMPUTE UNIT NORMAL AND LINE OF SIGHT VECTORS GIVEN THE ACTIVE AND
000623:                                                                                                  #  PASSIVE POS AND VEL AT TIME T3
000624:
000625: 35,2522           52375        S34/35.1           VLOAD    VSU
000626: 35,2523           03554                                    RPASS3
000627: 35,2524           03540                                    RACT3
000628: 35,2525           41456                           UNIT     PUSH
000629: 35,2526           26625                           STOVL    ULOS
000630: 35,2527           03540                                    RACT3
000631: 35,2530           53435                           VXV      UNIT
000632: 35,2531           03546                                    VACT3
000633: 35,2532           02617                           STORE    UNRM
000634: 35,2533           77616                           RVQ
000635:


000637:                                                                                                  #  ..... S34/35.2 .....
000638:
000639:                                                                                                  #  ADVANCE PASSIVE VEH TO RENDEZVOUS TIME AND GET REQ VEL FROM LAMBERT
000640:
000641: 35,2534           77220        S34/35.2           STQ      VLOAD
000642: 35,2535           02370                                    SUBEXIT
000643: 35,2536           03562                                    VPASS3
000644: 35,2537           65315                           PDVL     PDDL
000645: 35,2540           03554                                    RPASS3
000646: 35,2541           03503                                    INTIME
000647: 35,2542           65325                           PDDL     PDDL
000648: 35,2543           03656                                    TPASS4
000649: 35,2544           15335                                    ZEROVECS
000650: 35,2545           45006                           PUSH     CALL
000651: 35,2546           72706                                    INTINT                                #  GET TARGET VECTOR
000652: 35,2547           27415        S3435.25           STOVL    RTARG
000653: 35,2550           00007                                    VATT
000654: 35,2551           27640                           STOVL    VPASS4
000655: 35,2552           03415                                    RTARG
000656:                                                                                                  #  COMPUTE PHI = PI + (ACOS(UNIT RA.UNIT RP) - PI) SIGN(RA*RP.U)
000657: 35,2553           63256                           UNIT     PDVL                                  #  UNIT RP
000658: 35,2554           03540                                    RACT3
000659: 35,2555           41456                           UNIT     PUSH                                  #  UNIT RA
000660: 35,2556           50235                           VXV      DOT
000661: 35,2557           00001                                    0D
000662: 35,2560           02617                                    UNRM                                  #  RA*RP.U
000663: 35,2561           77715                           PDVL
000664: 35,2562           72441                           DOT      SL1                                   #  UNIT RA.UNIT RP
000665: 35,2563           00001                                    0D
000666: 35,2564           75326                           ACOS     SIGN
000667: 35,2565           43244                           BPL      DAD
000668: 35,2566           72570                                    NOPIE
000669: 35,2567           15343                                    DPPOSMAX                              #  REASONABLE TWO PI
000670: 35,2570           16633        NOPIE              STODL    ACTCENT
000671: 35,2571           03656                                    TPASS4
000672: 35,2572           77625                           DSU
000673: 35,2573           03503                                    INTIME
000674: 35,2574           03423                           STORE    DELLT4
000675: 35,2575           40335                           SLOAD    SETPD
000676: 35,2576           33123                                    DECTWO
000677: 35,2577           00001                                    0D
000678: 35,2600           63325                           PDDL     PDVL
000679: 35,2601           33126                                    EPSFOUR


000681: 35,2602           03540                                    RACT3
000682: 35,2603           27570                           STOVL    RINIT
000683: 35,2604           03546                                    VACT3
000684: 35,2605           37576                           STCALL   VINIT
000685: 35,2606           22000                                    INITVEL
000686: 35,2607           77624                           CALL
000687: 35,2610           72667                                    LOMAT
000688: 35,2611           64375                           VLOAD    MXV
000689: 35,2612           03646                                    DELVEET3
000690: 35,2613           00001                                    0D
000691: 35,2614           77772                           VSL1
000692: 35,2615           37405                           STCALL   DELVLVC
000693: 35,2616           02370                                    SUBEXIT
000694:


000696:                                                                                                  #  ..... S34/35.3 .....
000697:
000698: 35,2617           45020        S34/35.3           STQ      CALL
000699: 35,2620           01340                                    NORMEX
000700: 35,2621           72667                                    LOMAT                                 #  GET MATRIX IN PUSH LIST
000701: 35,2622           61375                           VLOAD    VXM
000702: 35,2623           03405                                    DELVLVC                               #  NEW DEL V TPI
000703: 35,2624           00001                                    0D
000704: 35,2625           77772                           VSL1
000705: 35,2626           03646                           STORE    DELVEET3                              #  SAVE FOR TRANSFORM
000706: 35,2627           63255                           VAD      PDVL
000707: 35,2630           03546                                    VACT3                                 #  NEW V REQ
000708: 35,2631           03540                                    RACT3
000709: 35,2632           65325                           PDDL     PDDL
000710: 35,2633           03413                                    TIG
000711: 35,2634           03656                                    TPASS4
000712: 35,2635           41525                           PDDL     PUSH
000713: 35,2636           15343                                    DPPOSMAX
000714: 35,2637           77624                           CALL                                           #  INTEG. FOR NEW TARGET VEC
000715: 35,2640           72706                                    INTINT
000716: 35,2641           77775                           VLOAD
000717: 35,2642           00001                                    RATT
000718: 35,2643           03415                           STORE    RTARG
000719: 35,2644           41575        NOVRWRT            VLOAD    PUSH
000720: 35,2645           02625                                    ULOS
000721: 35,2646           57435                           VXV      VCOMP
000722: 35,2647           02617                                    UNRM
000723: 35,2650           41456                           UNIT     PUSH
000724: 35,2651           76435                           VXV      VSL1
000725: 35,2652           02625                                    ULOS
000726: 35,2653           77715                           PDVL
000727: 35,2654           64315                           PDVL     MXV
000728: 35,2655           03646                                    DELVEET3
000729: 35,2656           00001                                    0D
000730: 35,2657           77772                           VSL1
000731: 35,2660           36611                           STCALL   DVLOS
000732: 35,2661           01340                                    NORMEX
000733:


000735:                                                                                                  #  ..... S34/35.4 .....
000736:
000737: 35,2662           40220        S34/35.4           STQ      SETPD                                 #  NO ASTRONAUT OVERWRITE
000738: 35,2663           01340                                    NORMEX
000739: 35,2664           00001                                    0D
000740: 35,2665           77650                           GOTO
000741: 35,2666           72644                                    NOVRWRT
000742:


000744:                                                                                                  #  ..... LOMAT .....
000745:
000746: 35,2667           57575        LOMAT              VLOAD    VCOMP
000747: 35,2670           02617                                    UNRM
000748: 35,2671           24007                           STOVL    6D                                    #  Y
000749: 35,2672           03540                                    RACT3
000750: 35,2673           57456                           UNIT     VCOMP
000751: 35,2674           00015                           STORE    12D
000752: 35,2675           76435                           VXV      VSL1
000753: 35,2676           02617                                    UNRM                                  #  Z*-Y
000754: 35,2677           00001                           STORE    0D
000755: 35,2700           43401                           SETPD    RVQ
000756: 35,2701           00023                                    18D
000757: 35,2702           65325        GOINT              PDDL     PDDL                                  #  DO
000758: 35,2703           15335                                    ZEROVECS                              #        NOT
000759: 35,2704           02364                                    NOMTPI
000760: 35,2705           41406                           PUSH     PUSH                                  #                ORDER OR INSERT BEFORE INTINT
000761: 35,2706           45020        INTINT             STQ      CALL
000762: 35,2707           02367                                    RTRN
000763: 35,2710           27442                                    INTSTALL
000764: 35,2711           71214                           CLEAR    DLOAD
000765: 35,2712           01673                                    INTYPFLG
000766: 35,2713           43054                           BZE      SET
000767: 35,2714           72716                                    +2
000768: 35,2715           01473                                    INTYPFLG
000769: 35,2716           45545                           DLOAD    STADR
000770: 35,2717           63736                           STODL    TDEC1
000771: 35,2720           73014                           SET      LXA,2
000772: 35,2721           00063                                    MOONFLAG
000773: 35,2722           03746                                    RTX2
000774: 35,2723           43014                           BON      CLEAR
000775: 35,2724           04303                                    CMOONFLG
000776: 35,2725           72727                                    ALLSET
000777: 35,2726           00263                                    MOONFLAG
000778: 35,2727           25517        ALLSET             STOVL    TET
000779: 35,2730           77657                           VSR*
000780: 35,2731           57176                                    0,2
000781: 35,2732           25535                           STOVL    RCV
000782: 35,2733           77657                           VSR*
000783: 35,2734           57176                                    0,2
000784: 35,2735           35543                           STCALL   VCV
000785: 35,2736           27135                                    INTEGRVS
000786: 35,2737           52175                           VLOAD    GOTO
000787: 35,2740           00001                                    RATT
000788: 35,2741           02367                                    RTRN
000789:


000791:                                                                                                  #  ..... S34/35.5 .....
000792:
000793:                                                                                                  #  SUBROUTINES USED
000794:                                                                                                  #        BANKCALL
000795:                                                                                                  #        GOFLASH
000796:                                                                                                  #        GOTOPOOH
000797:                                                                                                  #        S34/35.3
000798:                                                                                                  #        S34/35.4
000799:                                                                                                  #        VNPOOH
000800:
000801: 35,2742           43020        S34/35.5           STQ      BON
000802: 35,2743           02370                                    SUBEXIT
000803: 35,2744           01311                                    FINALFLG
000804: 35,2745           72751                                    FLAGON
000805: 35,2746           52014                           SET      GOTO
000806: 35,2747           00470                                    UPDATFLG
000807: 35,2750           72773                                    FLAGOFF
000808: 35,2751           77775        FLAGON             VLOAD
000809: 35,2752           03405                                    DELVLVC
000810: 35,2753           02611                           STORE    DVLOS                                 #  SAVE DELTA V BEFORE DISPLAY
000811: 35,2754           77776                           EXIT
000812: 35,2755           34620                           CAF      V06N81
000813: 35,2756           04575                           TC       VNPOOH
000814: 35,2757           06006                           TC       INTPRET
000815: 35,2760           52375                           VLOAD    VSU                                   #  TEST FOR OVERWRITE OF COMPUTED
000816: 35,2761           03405                                    DELVLVC                               #                       DELTA V
000817: 35,2762           02611                                    DVLOS
000818: 35,2763           53046                           ABVAL    BZE
000819: 35,2764           72767                                    NOCHG                                 #  NO OVERWRITE
000820: 35,2765           77624                           CALL
000821: 35,2766           72617                                    S34/35.3                              #  COMPUTE NEW TARGET VECTOR
000822: 35,2767           77214        NOCHG              CLEAR    VLOAD
000823: 35,2770           01267                                    XDELVFLG
000824: 35,2771           03646                                    DELVEET3
000825: 35,2772           03646                           STORE    DELVSIN
000826: 35,2773           77624        FLAGOFF            CALL
000827: 35,2774           72662                                    S34/35.4
000828: 35,2775           77776                           EXIT
000829: 35,2776           34617                           CAF      V06N59
000830: 35,2777           04575                           TC       VNPOOH
000831: 35,3000           06006                           TC       INTPRET
000832: 35,3001           77650                           GOTO
000833: 35,3002           02370                                    SUBEXIT
000834:


000836:                                                                                                  #  ..... VN1645 .....
000837:
000838:                                                                                                  #  SUBROUTINES USED
000839:                                                                                                  #        P3XORP7X
000840:                                                                                                  #        GET+MGA
000841:                                                                                                  #        BANKCALL
000842:                                                                                                  #        DELAYJOB
000843:                                                                                                  #        COMPTGO
000844:                                                                                                  #        GOFLASHR
000845:                                                                                                  #        GOTOPOOH
000846:                                                                                                  #        FLAGUP
000847:
000848: 35,3003           71220        VN1645             STQ      DLOAD
000849: 35,3004           02370                                    SUBEXIT
000850: 35,3005           33124                                    DP-.01
000851: 35,3006           03626                           STORE    +MGA                                  #  MGA = -.01
000852: 35,3007           71214                           BOFF     DLOAD
000853: 35,3010           01351                                    FINALFLG
000854: 35,3011           73031                                    GET45
000855: 35,3012           33124                                    DP-.01
000856: 35,3013           77615                           DAD
000857: 35,3014           33124                                    DP-.01
000858: 35,3015           03626                           STORE    +MGA                                  #  MGA = -.02
000859: 35,3016           77414                           BOFF     EXIT
000860: 35,3017           01742                                    REFSMFLG
000861: 35,3020           73031                                    GET45
000862: 35,3021           03104                           TC       P3XORP7X
000863: 35,3022           03024                           TC       +2                                    #  P3X
000864: 35,3023           03032                           TC       GET45      +1                         #  P7X
000865: 35,3024           06006                           TC       INTPRET
000866: 35,3025           41575                           VLOAD    PUSH
000867: 35,3026           03646                                    DELVSIN
000868: 35,3027           77624                           CALL                                           #  COMPUTE MGA
000869: 35,3030           10654                                    GET+MGA
000870: 35,3031           77776        GET45              EXIT
000871: 35,3032           03310                           TC       COMPTGO                               #  INITIATE TASK TO UPDATE TTOGO
000872: 35,3033           31770                           CA       SUBEXIT
000873: 35,3034           55766                           TS       QSAVED
000874: 35,3035           35041                           CAF      1SEC
000875: 35,3036           04662                           TC       BANKCALL
000876: 35,3037           01732                           CADR     DELAYJOB
000877: 35,3040           34621                           CAF      V16N45                                #  TRKMKCNT, TTOGO, +MGA
000878: 35,3041           04662                           TC       BANKCALL
000879: 35,3042           20720                           CADR     GOFLASH
000880: 35,3043           03046                           TC       KILCLOCK                              #  TERMINATE
000881: 35,3044           03051                           TC       N45PROC                               #  PROCEED
000882: 35,3045           03061                           TC       CLUPDATE                              #  RECYCLE - RETURN FOR INITIAL COMPUTATION
000883: 35,3046           30005        KILCLOCK           CA       Z
000884: 35,3047           54000                           TS       DISPDEX


000886: 35,3050           04106                           TC       GOTOPOOH
000887: 35,3051           40076        N45PROC            CS       FLAGWRD2
000888: 35,3052           75012                           MASK     BIT6
000889: 35,3053           00006                           EXTEND
000890: 35,3054           13046                           BZF      KILCLOCK                              #  FINALFLG IS SET - FLASH V37 - AWAIT NEW PGM
000891: 35,3055           05412                           TC       PHASCHNG
000892: 35,3056           04024                           OCT      04024
000893: 35,3057           05546                           TC       UPFLAG                                #  SET
000894: 35,3060           00047                           ADRES    FINALFLG                              #  FINALFLG
000895: 35,3061           30005        CLUPDATE           CA       Z
000896: 35,3062           54000                           TS       DISPDEX
000897: 35,3063           05412                           TC       PHASCHNG
000898: 35,3064           04024                           OCT      04024
000899: 35,3065           06006                           TC       INTPRET
000900: 35,3066           52014                           CLEAR    GOTO
000901: 35,3067           00670                                    UPDATFLG
000902: 35,3070           02366                                    QSAVED
000903:


000905:                                                                                                  #  ..... DISPLAYE .....
000906:
000907:                                                                                                  #  SUBROUTINES USED
000908:                                                                                                  #        BANKCALL
000909:                                                                                                  #        GOFLASHR
000910:                                                                                                  #        GOTOPOOH
000911:                                                                                                  #        BLANKET
000912:                                                                                                  #        ENDOFJOB
000913:
000914: 35,3071           00006        DISPLAYE           EXTEND
000915: 35,3072           23340                           QXCH     NORMEX
000916: 35,3073           34615                           CAF      V06N55
000917: 35,3074           04662                           TCR      BANKCALL
000918: 35,3075           21057                           CADR     GOFLASHR
000919: 35,3076           14106                           TCF      GOTOPOOH
000920: 35,3077           01340                           TC       NORMEX
000921: 35,3100           13073                           TCF      -5
000922: 35,3101           35017                           CAF      BIT1                                  #  BLANK R1
000923: 35,3102           05526                           TCR      BLANKET
000924: 35,3103           15217                           TCF      ENDOFJOB
000925:


000927:                                                                                                  #  ..... P3XORP7X .....
000928:
000929: 35,3104           37713        P3XORP7X           CAF      HIGH9
000930: 35,3105           71011                           MASK     MODREG
000931: 35,3106           00006                           EXTEND
000932: 35,3107           13111                           BZF      +2
000933: 35,3110           24002                           INCR     Q
000934: 35,3111           00002                           RETURN
000935:
000936:                                                                                                  #  ..... VNPOOH .....
000937:
000938:                                                                                                  #  SUBROUTINES USED
000939:                                                                                                  #        BANKCALL
000940:                                                                                                  #        GOFLASH
000941:                                                                                                  #        GOTOPOOH
000942:
000943:    4000                                           SETLOC   P30SUBS
000944:    4000                                           BANK
000945:
000946:    4575           00006        VNPOOH             EXTEND
000947:    4576           23767                           QXCH     RTRN
000948:    4577           55765                           TS       VERBNOUN
000949:    4600           34610                           CAF      VNBANK                                #  ***** THIS ROUTINE MUST REMAIN IN
000950:    4601           56004                           XCH      FBANK                                 #        FIXED-FIXED *****
000951:    4602           55063                           TS       TBASE5                                #  * WATCH OUT *
000952:
000953:    4603           31765                           CA       VERBNOUN
000954:    4604           04662                           TCR      BANKCALL
000955:    4605           20720                           CADR     GOFLASH
000956:    4606           14106                           TCF      GOTOPOOH
000957:    4607           14611                           TCF      +2
000958:    4610           04603        VNBANK             TC       -5
000959:
000960:    4611           31063                           CA       TBASE5
000961:    4612           54004                           TS       FBANK
000962:    4613           01767                           TC       RTRN
000963:


000965:                                                                                                  #  ..... CONSTANTS .....
000966:
000967:    4614           01445        V06N37             VN       0637
000968:    4615           01467        V06N55             VN       0655
000969:    4616           01472        V06N58             VN       0658
000970:    4617           01473        V06N59             VN       0659
000971:    4620           01521        V06N81             VN       0681
000972:    4621           04055        V16N45             VN       1645
000973: 35,2000                                           SETLOC   CSI/CDH
000974: 35,2000                                           BANK
000975:
000976: 35,3112           14441 37325  TWOPI              2DEC     6.283185307 B-4
000977: 35,3114           00001 20650  MAX250             2DEC     25         E3
000978: 35,3116           12525 12525  THIRD              2DEC     .333333333
000979: 35,3120           00004 21505  ELEPS              2DEC     .27777777  E-3
000980: 35,3122           00002        DECTWO             OCT      2
000981: 35,3123           77777        DP-.01             OCT      77777                                 #  CONSTANTS
000982: 35,3124           61337                           OCT      61337                                 #  ADJACENT      -.01 FOR MGA DSP
000983: 35,3125           01252 25253  EPSFOUR            2DEC     .0416666666
000984:


000986:                                                                                                  #  ..... INITVEL .....
000987:                                                                                                  #  MOD NO -1                     LOG SECTION - P34-P35, P74-P75
000988:                                                                                                  #  MOD BY WHITE.P                DATE  21NOV67
000989:
000990:                                                                                                  #  FUNCTIONAL DESCRIPTION
000991:                                                                                                  #        THIS SUBROUTINE COMPUTES THE REQUIRED INITIAL VELOCITY VECTOR FOR
000992:                                                                                                  #        A TRAJECTORY OF SPECIFIED TRANSFER TIME BETWEEN SPECIFIED INITIAL
000993:                                                                                                  #        AND TARGET POSITIONS.  THE TRAJECTORY MAY BE EITHER CONIC OR
000994:                                                                                                  #        PRECISION DEPENDING ON AN INPUT PARAMETER (NAMELY, NUMBER OF
000995:                                                                                                  #        OFFSETS).  IN ADDITION, IN THE PRECISION TRAJECTORY CASE, THE
000996:                                                                                                  #        SUBROUTINE ALSO COMPUTES AN OFFSET TARGET VECTOR, TO BE USED
000997:                                                                                                  #        DURING PURE-CONIC CROSS-PRODUCT STEERING.  THE OFFSET TARGET
000998:                                                                                                  #        VECTOR IS THE TERMINAL POSITION VECTOR OF A CONIC TRAJECTORY WHICH
000999:                                                                                                  #        HAS THE SAME INITIAL STATE AS A PRECISION TRAJECTORY WHOSE
001000:                                                                                                  #        TERMINAL POSITION VECTOR IS THE SPECIFIED TARGET VECTOR.
001001:
001002:                                                                                                  #        IN ORDER TO AVOID THE INHERENT SINGULARITIES IN THE 180 DEGREE
001003:                                                                                                  #        TRANSFER CASE WHEN THE (TRUE OR OFFSET) TARGET VECTOR MAY BE
001004:                                                                                                  #        SLIGHTLYOUT OF THE ORBITAL PLANE, THIS SUBROUTINE ROTATES THIS
001005:                                                                                                  #        VECTOR INTO A PLANE DEFINED BY THE INPUT INITIAL POSITION VECTOR
001006:                                                                                                  #        AND ANOTHER INPUT VECTOR (USUALLY THE INITIAL VELOCITY VECTOR),
001007:                                                                                                  #        WHENEVER THE INPUT TARGET VECTOR LIES INSIDE A CONE WHOSE VERTEX
001008:                                                                                                  #        IS THE ORIGIN OF COORDINATES, WHOSE AXIS IS THE 180 DEGREE
001009:                                                                                                  #        TRANSFER DIRECTION, AND WHOSE CONE ANGLE IS SPECIFIED BY THE USER.
001010:
001011:                                                                                                  #        THE LAMBERT SUBROUTINE IS UTILIZED FOR THE CONIC COMPUTATIONS AND
001012:                                                                                                  #        THE COASTING INTEGRATION SUBROUTINE IS UTILIZED FOR THE PRECISION
001013:                                                                                                  #        TRAJECTORY COMPUTATIONS.
001014:
001015:                                                                                                  #  CALLING SEQUENCE
001016:                                                                                                  #        L       CALL
001017:                                                                                                  #        L+1             INITVEL
001018:                                                                                                  #        L+2     (RETURN - ALWAYS)
001019:
001020:                                                                                                  #  INPUT
001021:                                                                                                  #        (1)     RINIT           INITIAL POSITION RADIUS VECTOR
001022:                                                                                                  #        (2)     VINIT           INITIAL POSITION VELOCITY VECTOR
001023:                                                                                                  #        (3)     RTARG           TARGET POSITION RADIUS VECTOR
001024:                                                                                                  #        (4)     DELLT4          DESIRED TIME OF FLIGHT FROM RINIT TO RTARG
001025:                                                                                                  #        (5)     INTIME          TIME OF RINIT
001026:                                                                                                  #        (6)     0D              NUMBER OF ITERATIONS OF LAMBERT/INTEGRVS
001027:                                                                                                  #        (7)     2D              ANGLE TO 180 DEGREES WHEN ROTATION STARTS
001028:                                                                                                  #        (8)     RTX1            -2 FOR EARTH, -10D FOR LUNAR
001029:                                                                                                  #        (9)     RTX2            COORDINATE SYSTEM ORIGIN - 0 FOR EARTH, 2 FOR LUNAR
001030:                                                                                                  #        PUSHLOC SET AT 4D
001031:


001033:                                                                                                  #  OUTPUT
001034:                                                                                                  #        (1)     RTARG           OFFSET TARGET POSITION VECTOR
001035:                                                                                                  #        (2)     VIPRIME         MANEUVER VELOCITY REQUIRED
001036:                                                                                                  #        (3)     VTPRIME         VELOCITY AT TARGET AFTER MANEUVER
001037:                                                                                                  #        (4)     DELVEET3        DELTA VELOCITY REQUIRED FOR MANEUVER
001038:
001039:                                                                                                  #  SUBROUTINES USED
001040:                                                                                                  #        LAMBERT
001041:                                                                                                  #        INTSTALL
001042:                                                                                                  #        INTEGRVS
001043:
001044: 11,2000                                           SETLOC   INTVEL
001045: 11,2000                                           BANK
001046:
001047: 11,2000                                           COUNT    11/INITV
001048: 11,2000           77614        INITVEL            SET                                            #  COGA GUESS NOT AVAILABLE
001049: 11,2001           00475                                    GUESSW
001050: 11,2002           44175        HAVEGUES           VLOAD    STQ
001051: 11,2003           03415                                    RTARG
001052: 11,2004           01340                                    NORMEX
001053: 11,2005           03604                           STORE    RTARG1
001054: 11,2006           46135                           SLOAD    BHIZ
001055: 11,2007           03747                                    RTX2
001056: 11,2010           22022                                    INITVEL1
001057: 11,2011           72575                           VLOAD    VSL2
001058: 11,2012           03570                                    RINIT                                 #  B29
001059: 11,2013           27570                           STOVL    RINIT                                 #  B27
001060: 11,2014           03576                                    VINIT                                 #  B7
001061: 11,2015           77752                           VSL2
001062: 11,2016           27576                           STOVL    VINIT                                 #  B5
001063: 11,2017           03604                                    RTARG1
001064: 11,2020           77752                           VSL2
001065: 11,2021           03604                           STORE    RTARG1
001066:
001067:                                                                                                  #  INITIALIZATION
001068:
001069: 11,2022           71331        INITVEL1           SSP      DLOAD                                 #  SET ITCTR TO -1,LOAD MPAC WITH E4 (PL 2D)
001070: 11,2023           03505                                    ITCTR
001071: 11,2024           77776                                    0          -1
001072: 11,2025           70546                           COSINE   SR1                                   #  CALCULATE COSINE (E4) (+2)
001073: 11,2026           17630                           STODL    COZY4                                 #  SET COZY4 TO COSINE (E4) (PL 0D)
001074: 11,2027           67154                           LXA,2    SXA,2
001075: 11,2030           00154                                    MPAC
001076: 11,2031           02703                                    VTARGTAG                              #  SET VTARGTAG TO 0D (SP)
001077: 11,2032           77775                           VLOAD
001078: 11,2033           03570                                    RINIT
001079: 11,2034           26657                           STOVL    R1VEC                                 #  R1VEC EQ RINIT
001080: 11,2035           03604                                    RTARG1


001082: 11,2036           16665                           STODL    R2VEC                                 #  R2VEC EQ RTARG
001083: 11,2037           03423                                    DELLT4
001084: 11,2040           02673                           STORE    TDESIRED                              #  TDESIRED EQ DELLT4
001085: 11,2041           77201                           SETPD    VLOAD
001086: 11,2042           00001                                    0D                                    #  INITIALIZE PL TO 0D
001087: 11,2043           03570                                    RINIT                                 #  MPAC EQ RINIT (+29)
001088: 11,2044           41456                           UNIT     PUSH                                  #  UNIT(RI) (+1)         (PL 6D)
001089: 11,2045           53435                           VXV      UNIT
001090: 11,2046           03576                                    VINIT                                 #  MPAC EQ UNIT(RI) X VI (+8)
001091: 11,2047           26676                           STOVL    UN
001092: 11,2050           03604                                    RTARG1
001093: 11,2051           50256                           UNIT     DOT                                   #  TEMP=URT.URI (+2)     (PL 0D)
001094: 11,2052           43015                           DAD      CLEAR
001095: 11,2053           03630                                    COZY4
001096: 11,2054           03665                                    NORMSW
001097: 11,2055           03630                           STORE    COZY4
001098: 11,2056           43044        INITVEL2           BPL      SET
001099: 11,2057           22101                                    INITVEL3                              #  UN CALCULATED IN LAMBERT
001100: 11,2060           03465                                    NORMSW
001101:
001102:                                                                                                  #  ROTATE RC INTO YC PLANE - SET UNIT NORMAL TO YC
001103:
001104: 11,2061           41575                           VLOAD    PUSH                                  #                                   (PL 6D)
001105: 11,2062           02665                                    R2VEC                                 #  RC TO 6D (+29)
001106: 11,2063           63246                           ABVAL    PDVL                                  #  RC TO MPAC, ABVAL(RC) (+29) TO OD(PL 2D)
001107: 11,2064           46206                           PUSH     VPROJ                                 #                                   (PL 8D)
001108: 11,2065           02676                                    UN
001109: 11,2066           51352                           VSL2     BVSU
001110: 11,2067           74256                           UNIT     VXSC                                  #                                   (PL 0D)
001111: 11,2070           77772                           VSL1
001112: 11,2071           02665                           STORE    R2VEC
001113: 11,2072           67351                           TLOAD    SLOAD
001114: 11,2073           11563                                    ZEROVEC
001115: 11,2074           03505                                    ITCTR
001116: 11,2075           77244                           BPL      VLOAD
001117: 11,2076           22101                                    INITVEL3
001118: 11,2077           02665                                    R2VEC
001119: 11,2100           03604                           STORE    RTARG1
001120: 11,2101           63345        INITVEL3           DLOAD    PDVL                                  #                                (PL 2D)
001121: 11,2102           27735                                    MUEARTH                               #  POSITIVE VALUE
001122: 11,2103           02665                                    R2VEC
001123: 11,2104           63256                           UNIT     PDVL                                  #  2D = UNIT(R2VEC)              (PL 8D)
001124: 11,2105           02657                                    R1VEC
001125: 11,2106           41456                           UNIT     PUSH                                  #  8D = UNIT(R1VEC)              (PL 14D)
001126: 11,2107           57435                           VXV      VCOMP                                 #  -N = UNIT(R2VEC) X UNIT(R1VEC)
001127: 11,2110           00003                                    2D
001128: 11,2111           77606                           PUSH                                           #                                (PL 20D)
001129: 11,2112           71350                           LXA,1    DLOAD
001130: 11,2113           03745                                    RTX1
001131: 11,2114           00023                                    18D
001132: 11,2115           62040                           BMN      INCR,1


001134: 11,2116           22120                                    +2
001135: 11,2117           77767                           DEC      -8         B-14
001136: 11,2120           67310                           INCR,1   SLOAD
001137: 11,2121           00012                                    10D
001138: 11,2122           00047                                    X1
001139: 11,2123           77230                           BHIZ     VLOAD                                 #                        (PL 14D)
001140: 11,2124           22126                                    +2
001141: 11,2125           41476                           VCOMP    PUSH                                  #                        (PL 20 D)
001142: 11,2126           77775                           VLOAD                                          #                        (PL 14D)
001143: 11,2127           50235                           VXV      DOT                                   #                        (PL 2D)
001144: 11,2130           71244                           BPL      DLOAD                                 #                        (PL 0D)
001145: 11,2131           22133                                    INITVEL4
001146: 11,2132           41476                           DCOMP    PUSH                                  #                        (PL 2D)
001147: 11,2133           67154        INITVEL4           LXA,2    SXA,2
001148: 11,2134           00000                                    0D
001149: 11,2135           02674                                    GEOMSGN
001150:
001151:                                                                                                  #  SET INPUTS UP FOR LAMBERT
001152:
001153: 11,2136           45150                           LXA,1    CALL
001154: 11,2137           03745                                    RTX1
001155:                                                                                                  #   OPERATE THE LAMBERT CONIC ROUTINE (COASTFLT SUBROUTINE)
001156:
001157: 11,2140           25224                                    LAMBERT
001158:
001159:                                                                                                  #        DELETE THRU 4521
001160:                                                                                                  #  ARRIVED AT SOLUTION IS GOOD ENOUGH ACCORDING TO SLIGHTLY WIDER BOUNDS.
001161:
001162: 11,2141           77214                           CLEAR    VLOAD
001163: 11,2142           00675                                    GUESSW
001164: 11,2143           02746                                    VVEC
001165:
001166:                                                                                                  #  STORE CALCULATED INITIAL VELOCITY REQUIRED IN VIPRIME
001167:
001168: 11,2144           17612                           STODL    VIPRIME                               #  INITIAL VELOCITY REQUIRED (+7)
001169:
001170:                                                                                                  #     IF NUMIT IS ZERO, CONTINUE AT INITVELB, OTHERWISE
001171:                                                                                                  #  SET UP INPUTS FOR ENCKE INTEGRATION (INTEGRVS).
001172:
001173: 11,2145           02704                                    VTARGTAG
001174: 11,2146           45030                           BHIZ     CALL
001175: 11,2147           22224                                    INITVEL7
001176: 11,2150           27442                                    INTSTALL
001177: 11,2151           43135                           SLOAD    CLEAR
001178: 11,2152           03747                                    RTX2
001179: 11,2153           00263                                    MOONFLAG
001180: 11,2154           43030                           BHIZ     SET
001181: 11,2155           22157                                    INITVEL5
001182: 11,2156           00063                                    MOONFLAG
001183: 11,2157           77775        INITVEL5           VLOAD
001184: 11,2160           03570                                    RINIT
001185: 11,2161           02657                           STORE    R1VEC


001187: 11,2162           25535                           STOVL    RCV
001188: 11,2163           03612                                    VIPRIME
001189: 11,2164           15543                           STODL    VCV
001190: 11,2165           03503                                    INTIME
001191: 11,2166           01517                           STORE    TET
001192: 11,2167           43015                           DAD      CLEAR
001193: 11,2170           03423                                    DELLT4
001194: 11,2171           01673                                    INTYPFLG
001195: 11,2172           34041                           STCALL   TDEC1
001196: 11,2173           27135                                    INTEGRVS
001197: 11,2174           77775                           VLOAD
001198: 11,2175           00025                                    VATT1
001199: 11,2176           02705                           STORE    VTARGET
001200:
001201:                                                                                                  #  IF ITERATION COUNTER (ITCTR) EQ NO. ITERATIONS (NUMIT), CONTINUE AT
001202:                                                                                                  #  INITVELC, OTHERWISE REITERATE LAMBERT AND ENCKE
001203:
001204: 11,2177           63154                           LXA,2    INCR,2
001205: 11,2200           03504                                    ITCTR
001206: 11,2201           00001                                    1D                                    #  INCREMENT ITCTR
001207: 11,2202           55134                           SXA,2    XSU,2
001208: 11,2203           03504                                    ITCTR
001209: 11,2204           02703                                    VTARGTAG
001210: 11,2205           46135                           SLOAD    BHIZ                                  #  IF SP(MPAC) EQ 0, CONTINUE AT INITVELC
001211: 11,2206           00050                                    X2
001212: 11,2207           22221                                    INITVEL6
001213:
001214:                                                                                                  #  OFFSET CONIC TARGET VECTOR
001215:
001216: 11,2210           52375                           VLOAD    VSU
001217: 11,2211           03604                                    RTARG1
001218: 11,2212           00017                                    RATT1
001219: 11,2213           77655                           VAD
001220: 11,2214           02665                                    R2VEC
001221: 11,2215           16665                           STODL    R2VEC
001222: 11,2216           03630                                    COZY4
001223: 11,2217           77650                           GOTO
001224: 11,2220           22056                                    INITVEL2                              #  CONTINUE ITERATING AT INITVEL2
001225:
001226:                                                                                                  #  COMPUTE THE DELTA VELOCITY
001227:
001228: 11,2221           77775        INITVEL6           VLOAD
001229: 11,2222           02665                                    R2VEC
001230: 11,2223           03604                           STORE    RTARG1
001231: 11,2224           52375        INITVEL7           VLOAD    VSU
001232: 11,2225           03612                                    VIPRIME
001233: 11,2226           03576                                    VINIT
001234: 11,2227           27646                           STOVL    DELVEET3                              #  DELVEET3 = VIPRIME-VINIT (+7)
001235: 11,2230           02705                                    VTARGET
001236: 11,2231           03620                           STORE    VTPRIME
001237: 11,2232           46135                           SLOAD    BHIZ
001238: 11,2233           03747                                    RTX2


001240: 11,2234           22251                                    INITVELX
001241: 11,2235           70575                           VLOAD    VSR2
001242: 11,2236           03620                                    VTPRIME
001243: 11,2237           27620                           STOVL    VTPRIME
001244: 11,2240           03612                                    VIPRIME
001245: 11,2241           77742                           VSR2
001246: 11,2242           27612                           STOVL    VIPRIME
001247: 11,2243           03604                                    RTARG1
001248: 11,2244           77742                           VSR2
001249: 11,2245           27604                           STOVL    RTARG1
001250: 11,2246           03646                                    DELVEET3
001251: 11,2247           77742                           VSR2
001252: 11,2250           03646                           STORE    DELVEET3
001253: 11,2251           77201        INITVELX           SETPD    VLOAD
001254: 11,2252           00001                                    0D
001255: 11,2253           03604                                    RTARG1
001256: 11,2254           37415                           STCALL   RTARG
001257: 11,2255           01340                                    NORMEX
001258:
001259:                                                                                                  #  ..... END OF INITVEL ROUTINE .....
001260:


001262:                                                                                                  #  ..... MIDGIM .....
001263:                                                                                                  #  MOD NO. 0, BY WILLMAN, SUBROUTINE RENDGUID, LOG P34-P35, P74-P75
001264:                                                                                                  #  REVISION 03, 17 FEB 67
001265:
001266:                                                                                                  #  IF THE ACTIVE VEHICLE IS DOING THE COMPUTATION, MIDGIM COMPUTES
001267:                                                                                                  #  THE POSITIVE MIDDLE GIMBAL ANGLE OF THE ACTIVE VEHICLE TO THE INPUT
001268:                                                                                                  #  DELTA VELOCITY VECTOR (0D IN PUSH LIST), OTHERWISE
001269:                                                                                                  #  MIDGIM CONVERTS THE INPUT DELTA VELOCITY VECTOR FROM INERTIAL COORDIN-
001270:                                                                                                  #  ATES TO LOCAL VERTICAL COORDINATES OF THE ACTIVE VEHICLE.
001271:
001272:                                                                                                  #  .. INPUTS ..
001273:                                                                                                  #    NAME     MEANING                                            UNITS/SCALING/MODE
001274:                                                                                                  #    AVFLAG   INT FLAG - 0 IS CSM ACTIVE, 1 IS LEM ACTIVE        BIT
001275:                                                                                                  #    COMPUTER INT FLAG - 0 IS LEM COMPUTER, 1 IS CSM COMPUTER    BIT
001276:                                                                                                  #    RINIT    ACTIVE VEHICLE RADIUS VECTOR                       METERS/CSEC (+7) VT
001277:                                                                                                  #    VINIT    ACTIVE VEHICLE VELOCITY VECTOR                     METERS/CSEC (+7) VT
001278:                                                                                                  #    0D(PL)   ACTIVE VEHICLE DELTA VELOCITY VECTOR               METERS/CSEC (+7) VT
001279:
001280:                                                                                                  #  .. OUTPUTS ..
001281:                                                                                                  #    NAME     MEANING                                            UNITS/SCALING/MODE
001282:                                                                                                  #    +MGA     + MIDDLE GIMBAL ANGLE                              REVOLUTIONS (+0) DP
001283:                                                                                                  #    DELVLVC  DELTA VELOCITY VECTOR IN LV COORD.                 METERS/CSEC (+7) VT
001284:                                                                                                  #    MGLVFLAG INT FLAG - 0 IS +MGA COMPUTED, 1 IS DELVLVC COMP.        -         BIT
001285:
001286:                                                                                                  #  .. CALLING SEQUENCE ..
001287:                                                                                                  #        L       CALL
001288:                                                                                                  #        L+1             MIDGIM
001289:                                                                                                  #        L+2     (RETURN - ALWAYS)
001290:
001291:                                                                                                  #  .. NO SUBROUTINES CALLED ..
001292:
001293:                                                                                                  #  .. DEBRIS - ERASEABLE TEMPORARY USAGE
001294:                                                                                                  #        A,Q,L, PUSH LIST, MPAC.
001295:
001296:                                                                                                  #  .. ALARMS - NONE ..
001297:


001299:                                                                                                  #  MIDDLE GIMBAL ANGLE COMPUTATION.
001300: 04,2000                                           SETLOC   MIDDGIM
001301: 04,2000                                           BANK
001302:
001303: 04,2645                                           COUNT*   $$/MIDG
001304:
001305: 04,2645           20000 00000  HALFREV            2DEC     1          B-1
001306:
001307: 04,2647           43014        MIDGIM             BON      BOFF
001308: 04,2650           01312                                    AVFLAG
001309: 04,2651           10667                                    MIDGIM1
001310: 04,2652           02747                                    COMPUTER
001311: 04,2653           10672                                    GET.LVC
001312:
001313:                                                                                                  #  COMPUTE +MGA IF AVFLAG AND COMPUTER HAVE OPPOSITE VALUES.
001314:
001315: 04,2654           53575        GET+MGA            VLOAD    UNIT                                  #  (PL 0D) V (+7) TO MPAC, UNITIZE UV (+1)
001316: 04,2655           72441                           DOT      SL1                                   #  DOT UV WITH Y(STABLE MEMBER) AND RESCALE
001317: 04,2656           01744                                    REFSMMAT   +6                         #  FROM +2 TO +1 FOR ASIN ROUTINE
001318: 04,2657           51136                           ARCSIN   BPL
001319: 04,2660           10664                                    SETMGA
001320: 04,2661           43215                           DAD      DAD                                   #  CONVERT -MGA TO +MGA BY
001321: 04,2662           10646                                    HALFREV                               #  ADDING ONE REVOLUTION
001322: 04,2663           10646                                    HALFREV
001323: 04,2664           03626        SETMGA             STORE    +MGA
001324: 04,2665           43414                           CLR      RVQ                                   #  CLEAR MGLVFLAG TO INDICATE +MGA CALC
001325: 04,2666           02675                                    MGLVFLAG                              #  AND EXIT
001326:
001327: 04,2667           77614        MIDGIM1            BOFF
001328: 04,2670           02747                                    COMPUTER
001329: 04,2671           10654                                    GET+MGA
001330:
001331:                                                                                                  #  COMPUTE DELVLVC IF AVFLAG AND COMPUTER HAVE SAME VALUES.
001332:
001333: 04,2672           53575        GET.LVC            VLOAD    UNIT                                  #  (PL 6D) R (+29) IN MPAC, UNITIZE UR
001334: 04,2673           03570                                    RINIT
001335: 04,2674           77676                           VCOMP                                          #  U(-R)
001336: 04,2675           00023                           STORE    18D                                   #  U(-R) TO 18D
001337: 04,2676           53435                           VXV      UNIT                                  #  U(-R)*V EQ V*U(R), U(V*R)
001338: 04,2677           03576                                    VINIT
001339: 04,2700           00015                           STORE    12D                                   #  U(V*R) TO 12D
001340: 04,2701           53435                           VXV      UNIT                                  #  U(V*R)*U(-R), U((V*R)*(-R))
001341: 04,2702           00023                                    18D
001342: 04,2703           24007                           STOVL    6D                                    #  TRANSFORMATION MATRIX IS IN 6D (+1)
001343: 04,2704           00001                                    0D                                    #  DELTA V (+7) IN 0D
001344: 04,2705           76521                           MXV      VSL1                                  #  CONVERT FROM INER COOR TO LV COOR (+8)
001345: 04,2706           00007                                    6D                                    #  AND SCALE +7 IN MPAC
001346: 04,2707           03405                           STORE    DELVLVC                               #  STORE IN DELVLVC (+7)
001347: 04,2710           43414                           SET      RVQ                                   #  SET MGLVFLAG TO INDICATE LVC CALC
001348: 04,2711           02475                                    MGLVFLAG                              #  AND EXIT
001349:
001350:                                                                                                  #  ..... END OF MIDGIM ROUTINE .....
001351:


001353: 04,2712           77160        SELECTMU           AXC,1    AXT,2
001354: 04,2713           00002                                    2D
001355: 04,2714           00000                                    0D
001356: 04,2715           77614                           BOFF
001357: 04,2716           04343                                    CMOONFLG
001358: 04,2717           10723                                    SETMUER
001359: 04,2720           77160                           AXC,1    AXT,2
001360: 04,2721           00012                                    10D
001361: 04,2722           00002                                    2D
001362: 04,2723           66143        SETMUER            DLOAD*   SXA,1
001363: 04,2724           11741                                    MUTABLE    +4,1
001364: 04,2725           03745                                    RTX1
001365: 04,2726           23752                           STODL*   RTSR1/MU
001366: 04,2727           11733                                    MUTABLE    -2,1
001367: 04,2730           54214                           BOFF     SR
001368: 04,2731           04343                                    CMOONFLG
001369: 04,2732           10734                                    RTRNMU
001370: 04,2733           20607                                    6D
001371: 04,2734           03750        RTRNMU             STORE    RTMU
001372: 04,2735           43134                           SXA,2    CLEAR
001373: 04,2736           03746                                    RTX2
001374: 04,2737           01271                                    FINALFLG
001375: 04,2740           77650                           GOTO
001376: 04,2741           73003                                    VN1645
001377:


001379:                                                                                                  #  ..... PERIAPO .....
001380:                                                                                                  #  MOD NO -1                     LOG SECTION - P34-P35, P74-P75
001381:                                                                                                  #  MOD BY WHITE.P                DATE 18JAN68
001382:
001383:                                                                                                  #  FUNCTIONAL DESCRIPTION
001384:
001385:                                                                                                  #        THIS SUBROUTINE COMPUTES THE TWO BODY APOCENTER AND PERICENTER
001386:                                                                                                  #        ALTITUDES GIVEN THE POSITION AND VELOCITY VECTORS FOR A POINT ON
001387:                                                                                                  #        THE TRAJECTORY AND THE PRIMARY BODY.
001388:
001389:                                                                                                  #        SETRAD IS CALLED TO DETERMINE THE RADIUS OF THE PRIMARY BODY.
001390:
001391:                                                                                                  #        APSIDES IS CALLED TO SOLVE FOR THE TWO BODY RADII OF APOCENTER AND
001392:                                                                                                  #        PERICENTER AND THE ECCENTRICITY OF THE TRAJECTORY.
001393:
001394:                                                                                                  #  CALLING SEQUENCE
001395:                                                                                                  #        L       CALL
001396:                                                                                                  #        L+1             PERIAPO
001397:                                                                                                  #        L+2     (RETURN - ALWAYS)
001398:
001399:                                                                                                  #  INPUT
001400:                                                                                                  #        (1)     RVEC    POSITION VECTOR IN METERS
001401:                                                                                                  #                        SCALE FACTOR - EARTH +29, MOON +27
001402:                                                                                                  #        (2)     VVEC    VELOCITY VECTOR IN METERS/CENTISECOND
001403:                                                                                                  #                        SCALE FACTOR - EARTH +7, MOON +5
001404:                                                                                                  #        (3)     X1      PRIMARY BODY INDICATOR
001405:                                                                                                  #                        EARTH -2, MOON -10
001406:
001407:                                                                                                  #  OUTPUT
001408:                                                                                                  #        (1)     2D      APOCENTER RADIUS IN METERS
001409:                                                                                                  #                        SCALE FACTOR - EARTH +29, MOON +27
001410:                                                                                                  #        (2)     4D      APOCENTER ALTITUDE IN METERS
001411:                                                                                                  #                        SCALE FACTOR - EARTH +29, MOON P27
001412:                                                                                                  #        (3)     6D      PERICENTER RADIUS IN METERS
001413:                                                                                                  #                        SCALE FACTOR - EARTH +29, MOON +27
001414:                                                                                                  #        (4)     8D      PERICENTER ALTITUDE IN METERS
001415:                                                                                                  #                        SCALE FACTOR - EARTH +29, MOON +27
001416:                                                                                                  #        (5)     ECC     ECCENTRICITY OF CONIC TRAJECTORY
001417:                                                                                                  #                        SCALE FACTOR - +3
001418:                                                                                                  #        (6)     XXXALT  RADIUS OF THE PRIMARY BODY IN METERS
001419:                                                                                                  #                        SCALE FACTOR - EARTH +29, MOON +27
001420:                                                                                                  #        (7)     PUSHLOC EQUALS 10D
001421:
001422:                                                                                                  #  SUBROUTINES USED
001423:                                                                                                  #        SETRAD


001425:                                                                                                  #        APSIDES
001426:
001427: 22,2000                                           SETLOC   APOPERI
001428: 22,2000                                           BANK
001429:
001430: 22,3151                                           COUNT*   $$/PERAP
001431:
001432: 22,3151           00302 17755  RPAD               2DEC     6373338    B-29                       #  STANDARD RADIUS OF PAD 37-B.
001433:                                                                                                  #  = 20 909 901.57 FT
001434:
001435: 22,3153           53754        PERIAPO1           LXA,2    VSR*
001436: 22,3154           03746                                    RTX2
001437: 22,3155           57176                                    0,2
001438: 22,3156           26746                           STOVL    VVEC
001439: 22,3157           53750                           LXA,1    VSR*
001440: 22,3160           03745                                    RTX1
001441: 22,3161           57176                                    0,2
001442: 22,3162           02657                           STORE    RVEC
001443: 22,3163           45020        PERIAPO            STQ      CALL
001444: 22,3164           01340                                    NORMEX
001445: 22,3165           45201                                    SETRAD
001446: 22,3166           37456                           STCALL   XXXALT
001447: 22,3167           25703                                    APSIDES
001448: 22,3170           41401                           SETPD    PUSH                                  #  2D = APOCENTER RADIUS         B29 OR B27
001449: 22,3171           00003                                    2D
001450: 22,3172           65225                           DSU      PDDL                                  #  4D = APOGEE ALTITUDE          B29 OR B27
001451: 22,3173           03456                                    XXXALT
001452: 22,3174           00001                                    0D
001453: 22,3175           45206                           PUSH     DSU                                   #  6D = PERICENTER RADIUS        B29 OR B27
001454: 22,3176           03456                                    XXXALT
001455: 22,3177           52006                           PUSH     GOTO                                  #  8D = PERIGEE ALTITUDE         B29 OR B27
001456: 22,3200           01340                                    NORMEX


001458:                                                                                                  #  SETRAD
001459: 22,3201           41545        SETRAD             DLOAD    PUSH
001460: 22,3202           05152                                    RPAD
001461: 22,3203           63130                           SXA,1    INCR,2
001462: 22,3204           00047                                    X2
001463: 22,3205           00002                                    2D
001464: 22,3206           46135                           SLOAD    BHIZ
001465: 22,3207           00050                                    X2
001466: 22,3210           45214                                    SETRADX
001467: 22,3211           51575                           VLOAD    ABVAL
001468: 22,3212           02026                                    RLS
001469: 22,3213           77725                           PDDL
001470: 22,3214           43545        SETRADX            DLOAD    RVQ
001471:


001473:                                                                                                  #  PRECSET
001474: 22,3215           77620        PRECSET            STQ
001475: 22,3216           01340                                    NORMEX
001476: 22,3217           36635                           STCALL   TDEC2
001477: 22,3220           27105                                    LEMPREC
001478: 22,3221           77624                           CALL
001479: 22,3222           45233                                    LEMSTORE
001480: 22,3223           77745                           DLOAD
001481: 22,3224           02635                                    TDEC2
001482: 22,3225           34041                           STCALL   TDEC1
001483: 22,3226           27071                                    CSMPREC
001484: 22,3227           77624                           CALL
001485: 22,3230           45243                                    CSMSTORE
001486: 22,3231           77650                           GOTO
001487: 22,3232           01340                                    NORMEX
001488: 22,3233           43175        LEMSTORE           VLOAD    BOFF
001489: 22,3234           00001                                    RATT
001490: 22,3235           01352                                    AVFLAG
001491: 22,3236           45247                                    PASSIVE
001492: 22,3237           27540        ACTIVE             STOVL    RACT3
001493: 22,3240           00007                                    VATT
001494: 22,3241           03546                           STORE    VACT3
001495: 22,3242           77616                           RVQ
001496: 22,3243           43175        CSMSTORE           VLOAD    BOFF
001497: 22,3244           00001                                    RATT
001498: 22,3245           01352                                    AVFLAG
001499: 22,3246           45237                                    ACTIVE
001500: 22,3247           27554        PASSIVE            STOVL    RPASS3
001501: 22,3250           00007                                    VATT
001502: 22,3251           03562                           STORE    VPASS3
001503: 22,3252           77616                           RVQ
001504:


001506:                                                                                                  #  VECSHIFT
001507: 22,3253           53754        VECSHIFT           LXA,2    VSR*
001508: 22,3254           03746                                    RTX2
001509: 22,3255           57176                                    0,2
001510: 22,3256           63350                           LXA,1    PDVL
001511: 22,3257           03745                                    RTX1
001512: 22,3260           63257                           VSR*     PDVL
001513: 22,3261           57176                                    0,2
001514: 22,3262           77616                           RVQ
001515:


001517:                                                                                                  #  SHIFTR1
001518: 22,3263           53754        SHIFTR1            LXA,2    SL*
001519: 22,3264           03746                                    RTX2
001520: 22,3265           57576                                    0,2
001521: 22,3266           77616                           RVQ
001522:


001524:                                                                                                  #  PROGRAM DESCRIPTION
001525:
001526:                                                                                                  #  SUBROUTINE NAME       R36     OUT-OF-PLANE RENDEZVOUS ROUTINE
001527:                                                                                                  #  MOD NO. 2             DATE 2 JANUARY 1969
001528:                                                                                                  #  MOD BY A.W.BANCROFT   LOG SECTION EXTENDED VERBS
001529:
001530:                                                                                                  #  FUNCTIONAL DESCRIPTION
001531:
001532:                                                                                                  #  TO DISPLAY AT ASTRONAUT REQUEST LGC CALCULATED RENDEZVOUS
001533:                                                                                                  #  OUT-OF-PLANE PARAMETERS (Y, YDOT, PSI).  (REQUESTED BY DSKY).
001534:
001535:                                                                                                  #  CALLING SEQUENCE
001536:                                                                                                  #        ASTRONAUT REQUEST THROUGH DSKY V 90 E
001537:
001538:                                                                                                  #  SUBROUTINES CALLED
001539:                                                                                                  #        EXDSPRET
001540:                                                                                                  #        GOMARKF
001541:                                                                                                  #        CSMPREC
001542:                                                                                                  #        LEMPREC
001543:                                                                                                  #        SGNAGREE
001544:                                                                                                  #        LOADTIME
001545:
001546:                                                                                                  #  NORMAL EXIT MODES
001547:                                                                                                  #        ASTRONAUT REQUEST THROUGH DSKY TO TERMINATE PROGRAM V 34 E
001548:
001549:                                                                                                  #  ALARM OR ABORT EXIT MODES
001550:                                                                                                  #        NONE
001551:
001552:                                                                                                  #  OUTPUT
001553:                                                                                                  #        DECIMAL DISPLAY OF TIME, Y, YDOT AND PSI
001554:
001555:                                                                                                  #        DISPLAYED VALUES Y, YDOT, AND PSI, ARE STORED IN ERASABLE
001556:                                                                                                  #        REGISTERS RANGE, RRATE AND RTHETA RESPECTIVELY.
001557:
001558:                                                                                                  #  ERASABLE INITIALIZATION REQUIRED
001559:                                                                                                  #        CSM AND LEM STATE VECTORS
001560:
001561:                                                                                                  #  DEBRIS
001562:                                                                                                  #        CENTRALS A,Q,L
001563:                                                                                                  #        OTHER THOSE USED BY THE ABOVE LISTED SUBROUTINES
001564:
001565: 20,2164                                           BANK     20
001566: 20,2000                                           SETLOC   R36CM
001567: 20,2000                                           BANK


001569: 20,2164  E4,1726                                  EBANK=   RPASS36
001570:
001571: 20,2164  41,3725                                  SBANK=   R36A
001572: 20,2164                                           COUNT*   $$/R36
001573:
001574: 20,2164           35016        R36                CAF      TWO
001575: 20,2165           55051                           TS       OPTIONX
001576: 20,2166           35017                           CAF      ONE
001577: 20,2167           55052                           TS       OPTIONX    +1
001578: 20,2170           32200                           CAF      OPTION36                              #  V 04 N 12
001579: 20,2171           04662                           TC       BANKCALL
001580: 20,2172           20561                           CADR     GOXDSPF
001581: 20,2173           05534                           TC       ENDEXT                                #  TERMINATE
001582: 20,2174           02176                           TC       +2                                    #  PROCEED
001583: 20,2175           02170                           TC       -5                                    #  R2 LOADED VIA DSKY
001584: 20,2176           04701                           TC       POSTJUMP
001585: 20,2177           63725                           CADR     R36A
001586:
001587: 20,2200           01014        OPTION36           VN       0412
001588:
001589: 41,2000                                           SETLOC   R36LM
001590: 41,2000                                           BANK
001591:
001592: 41,3725           22007        R36A               ZL
001593: 41,3726           35021                           CAF      ZERO                                  #  SET TIME OF EVENT TO ZERO FOR FIRST
001594: 41,3727           53052                           DXCH     DSPTEMX                               #  DISPLAY
001595: 41,3730           23742                           LXCH     OPTIONY                               #  SAVE VEH. OPTION
001596: 41,3731           33773        R36P3              CAF      V06N16N
001597: 41,3732           04662                           TC       BANKCALL
001598: 41,3733           20561                           CADR     GOMARKF
001599: 41,3734           15534                           TCF      ENDEXT                                #  TERMINATE
001600: 41,3735           13737                           TCF      +2                                    #  PROCEED
001601: 41,3736           13731                           TCF      -5                                    #  RECYCLE FOR ASTRONAUT INPUT TIME
001602: 41,3737           53052                           DXCH     DSPTEMX
001603: 41,3740           00006                           EXTEND
001604: 41,3741           13762                           BZF      LREGCHK                               #  A-REG ZERO GOTO CHECK L-REG FOR ZERO
001605: 41,3742           52155        ASTROTIM           DXCH     MPAC                                  #  A-REG NON-ZERO, TIME = ASTRO INPUT TIME
001606: 41,3743           06006                           TC       INTPRET
001607: 41,3744           52034                           RTB      GOTO
001608: 41,3745           45716                                    DPMODE
001609: 41,3746           65521                                    R36INT
001610:
001611: 42,2000                                           SETLOC   R36LM1
001612: 42,2000                                           BANK
001613:
001614: 42,3521           00041        R36INT             STORE    TDEC1
001615: 42,3522           70535                           SLOAD    SR1
001616: 42,3523           02343                                    OPTIONY
001617: 42,3524           45030                           BHIZ     CALL
001618: 42,3525           65531                                    R36PROG2                              #  FOR CSM DISPLAY


001620: 42,3526           27071                                    THISPREC                              #  FOR LEM DISPLAY
001621: 42,3527           77650                           GOTO
001622: 42,3530           65533                                    R36PROG3
001623: 42,3531           77624        R36PROG2           CALL
001624: 42,3532           27105                                    OTHPREC
001625: 42,3533           63375        R36PROG3           VLOAD    PDVL
001626: 42,3534           00007                                    VATT
001627: 42,3535           00001                                    RATT                                  #  -
001628: 42,3536           02327                           STORE    RPASS36                               #  R
001629: 42,3537           63256                           UNIT     PDVL                                  #   P
001630: 42,3540           53435                           VXV      UNIT                                  #  -
001631: 42,3541           77626                           STADR
001632: 42,3542           61442                           STODL    UNP36                                 #  U
001633: 42,3543           00015                                    TAT
001634: 42,3544           00041                           STORE    TDEC1
001635: 42,3545           70535                           SLOAD    SR1
001636: 42,3546           02343                                    OPTIONY
001637: 42,3547           45030                           BHIZ     CALL
001638: 42,3550           65554                                    R36PROG4                              #  FOR CSM DISPLAY
001639: 42,3551           27105                                    OTHPREC                               #  FOR LEM DISPLAY
001640: 42,3552           77650                           GOTO
001641: 42,3553           65556                                    R36PROG5
001642: 42,3554           77624        R36PROG4           CALL
001643: 42,3555           27071                                    THISPREC
001644: 42,3556           63375        R36PROG5           VLOAD    PDVL                                  #                        -
001645: 42,3557           00007                                    VATT                                  #  VELOCITY VECTOR       V       00D
001646: 42,3560           00001                                    RATT                                  #                         A
001647: 42,3561           77725                           PDDL
001648: 42,3562           00015                                    TAT                                   #  SAVE TIME IN LOCATION 30D FOR REDISPLAY
001649: 42,3563           24037                           STOVL    30D                                   #                   -
001650: 42,3564           41406                           PUSH     PUSH                                  #  POSITION VECTOR  R   IN  06D AND 12D
001651: 42,3565           63245                           BVSU     PDVL                                  #                    A  -   -
001652: 42,3566           02327                                    RPASS36                               #  LINE OF SIGHT VECTOR R - R       12D
001653: 42,3567           72441                           DOT      SL1                                   #                        P   A
001654: 42,3570           02335                                    UNP36                                 #      -   -
001655: 42,3571           26321                           STOVL    RANGE                                 #  Y = U . R
001656: 42,3572           00001                                    00D                                   #           A
001657: 42,3573           72441                           DOT      SL1
001658: 42,3574           02335                                    UNP36                                 #  .   -   -
001659: 42,3575           26323                           STOVL    RRATE                                 #  Y = U . V
001660: 42,3576           00007                                    06D                                   #  -        A  -
001661: 42,3577           41456                           UNIT     PUSH                                  #  U  = UNIT ( R  )              18D
001662: 42,3600           47235                           VXV      VXV                                   #   RA          A
001663: 42,3601           00001                                    00D                                   #   -    -     -     -
001664: 42,3602           00023                                    18D                                   #  (U  X V ) X U   = U
001665: 42,3603           53552                           VSL2     UNIT                                  #    RA   A     RA    A
001666: 42,3604           52056                           UNIT     GOTO
001667: 42,3605           61600                                    R36B
001668:
001669: 40,2000                                           SETLOC   R36CM1


001671: 40,2000                                           BANK
001672:
001673: 40,3600           24001        R36B               STOVL    00D                                   #  UNIT HORIZONTAL IN FORWARD DIR. 00D
001674: 40,3601           00023                                    18D
001675: 40,3602           74241                           DOT      VXSC                                  #  -
001676: 40,3603           00015                                    12D                                   #  U
001677: 40,3604           77752                           VSL2                                           #   L
001678: 40,3605           53445                           BVSU     UNIT
001679: 40,3606           77656                           UNIT
001680: 40,3607           50206                           PUSH     DOT                                   #  LOS PROJECTED INTO HORIZONTAL  12D
001681: 40,3610           00001                                    00D                                   #  PLANE
001682: 40,3611           65552                           SL1      ARCCOS                                #               -   -
001683: 40,3612           26325                           STOVL    RTHETA                                #  PSI = ARCCOS(U . U )
001684: 40,3613           50235                           VXV      DOT                                   #                A   L
001685: 40,3614           00001                                    00D
001686: 40,3615           71244                           BPL      DLOAD
001687: 40,3616           63747                                    R36TAG2
001688: 40,3617           15343                                    DPPOSMAX
001689: 40,3620           77625                           DSU
001690: 40,3621           02325                                    RTHETA
001691: 40,3622           36325                           STCALL   RTHETA
001692: 40,3623           63747                                    R36TAG2
001693:
001694: 41,2000                                           SETLOC   R36LM
001695: 41,2000                                           BANK
001696:
001697: 41,3747           47145        R36TAG2            DLOAD    RTB
001698: 41,3750           00037                                    30D
001699: 41,3751           45544                                    SGNAGREE
001700: 41,3752           01052                           STORE    DSPTEMX
001701: 41,3753           77776                           EXIT
001702: 41,3754           33774                           CAF      V06N90N                               #  DISPLAY Y, YDOT, AND PSI
001703: 41,3755           04662                           TC       BANKCALL
001704: 41,3756           20561                           CADR     GOMARKF
001705: 41,3757           15534                           TCF      ENDEXT                                #  TERMINATE
001706: 41,3760           15534                           TCF      ENDEXT                                #  PROCEED, END OF PROGRAM
001707: 41,3761           13731                           TCF      R36P3                                 #  REDISPLAY OUTPUT
001708: 41,3762           56001        LREGCHK            XCH      L
001709: 41,3763           00006                           EXTEND
001710: 41,3764           13767                           BZF      ENTTIM2                               #  L-REG ZERO, SET TIME = PRESENT TIME
001711: 41,3765           56001                           XCH      L                                     #  L-REG NON ZERO, TIME = ASTRO INPUT TIME
001712: 41,3766           13742                           TCF      ASTROTIM
001713: 41,3767           06006        ENTTIM2            TC       INTPRET
001714: 41,3770           52034                           RTB      GOTO
001715: 41,3771           45510                                    LOADTIME
001716: 41,3772           65521                                    R36INT
001717: 41,3773           01420        V06N16N            VN       00616
001718: 41,3774           01532        V06N90N            VN       00690
001719: 41,3775  30,2000                                  SBANK=   LOWSUPER

End of include-file P34-P35,_P74-P75.agc.  Parent file is MAIN.agc


