
Source Code


000002:                                                                                                  ## Copyright:   Public domain.
000003:                                                                                                  ## Filename:    P34-P35,_P74-P75.agc
000004:                                                                                                  ## Purpose:     A section of Comanche revision 044.
000005:                                                                                                  ##              It is part of the reconstructed source code for the
000006:                                                                                                  ##              original release of the flight software for the Command
000007:                                                                                                  ##              Module's (CM) Apollo Guidance Computer (AGC) for Apollo 10.
000008:                                                                                                  ##              The code has been recreated from a copy of Comanche 055. It
000009:                                                                                                  ##              has been adapted such that the resulting bugger words
000010:                                                                                                  ##              exactly match those specified for Comanche 44 in NASA drawing
000011:                                                                                                  ##              2021153D, which gives relatively high confidence that the
000012:                                                                                                  ##              reconstruction is correct.
000013:                                                                                                  ## Assembler:   yaYUL
000014:                                                                                                  ## Contact:     Ron Burkey <info@sandroid.org>.
000015:                                                                                                  ## Website:     www.ibiblio.org/apollo/index.html
000016:                                                                                                  ## Mod history: 2020-12-03 MAS  Created from Comanche 51.
000017:                                                                                                  ##              2020-12-04 MAS  Removed all code related to NN, restored
000018:                                                                                                  ##                              DISPLAYE to its C249 behavior, and moved
000019:                                                                                                  ##                              S34/35.1 back to bank 35.
000020:                                                                                                  ##              2020-12-12 RSB  Added justifying annotations for Mike's
000021:                                                                                                  ##                              reconstruction steps.
000022:


000024:                                                                                                  #  TRANSFER PHASE INITIATION (TPI) PROGRAMS (P34 AND P74)
000025:                                                                                                  #  MOD NO -1                     LOG SECTION - P32-P35, P72-P75
000026:                                                                                                  #  MOD BY WHITE.P                DATE 1JUNE67
000027:
000028:                                                                                                  #  PURPOSE
000029:                                                                                                  #        (1)     TO CALCULATE THE REQUIRED DELTA V AND OTHER INITIAL CONDITIONS
000030:                                                                                                  #                REQUIRED BY THE ACTIVE VEHICLE FOR EXECUTION OF THE TRANSFER
000031:                                                                                                  #                PHASE INITIATION (TPI) MANEUVER, GIVEN -
000032:                                                                                                  #                (A)     TIME OF IGNITION TIG (TPI) OR THE ELEVATION ANGLE (E) OF
000033:                                                                                                  #                        THE ACTIVE/PASSIVE VEHICLE LOS AT TIG (TPI).
000034:                                                                                                  #                (B)     CENTRAL ANGLE OF TRANSFER (CENTANG) FROM TIG (TPI) TO
000035:                                                                                                  #                        INTERCEPT TIME (TIG (TPF)).
000036:                                                                                                  #        (2)     TO CALCULATE TIG (TPI) GIVEN E OR E GIVEN TIG (TPI).
000037:                                                                                                  #        (3)     TO CALCULATE THESE PARAMETERS BASED UPON MANEUVER DATA
000038:                                                                                                  #                APPROVED AND KEYED INTO THE DSKY BY THE ASTRONAUT.
000039:                                                                                                  #        (4)     TO DISPLAY TO THE ASTRONAUT AND THE GROUND CERTAIN DEPENDENT
000040:                                                                                                  #                VARIABLES ASSOCIATED WITH THE MANEUVER FOR APPROVAL BY THE
000041:                                                                                                  #                ASTRONAUT/GROUND.
000042:                                                                                                  #        (5)     TO STORE THE TPI TARGET PARAMETERS FOR USE BY THE DESIRED
000043:                                                                                                  #                THRUSTING PROGRAM.
000044:
000045:                                                                                                  #  ASSUMPTIONS
000046:                                                                                                  #        (1)     LM ONLY - THIS PROGRAM IS BASED UPON PREVIOUS COMPLETION OF
000047:                                                                                                  #                THE CONSTANT DELTA ALTITUDE (CDH) PROGRAM (P33/P73).
000048:                                                                                                  #                THEREFORE -
000049:                                                                                                  #                (A)     AT A SELECTED TPI TIME (NOW IN STORAGE) THE LINE OF SIGHT
000050:                                                                                                  #                        BETWEEN THE ACTIVE AND PASSIVE VEHICLES WAS SELECTED TO BE
000051:                                                                                                  #                        A PRESCRIBED ANGLE (E) (NOW IN STORAGE) FROM THE
000052:                                                                                                  #                        HORIZONTAL PLANE DEFINED BY THE ACTIVE VEHICLE POSITION.
000053:                                                                                                  #                (B)     THE TIME BETWEEN CDH IGNITION AND TPI IGNITION WAS
000054:                                                                                                  #                        COMPUTED TO BE GREATER THAN 10 MINUTES.
000055:                                                                                                  #                (C)     THE VARIATION OF THE ALTITUDE DIFFERENCE BETWEEN THE
000056:                                                                                                  #                        ORBITS WAS MINIMIZED.
000057:                                                                                                  #                (D)     THE PERICENTER ALTITUDES OF ORBITS FOLLOWING CSI AND
000058:                                                                                                  #                        CDH WERE COMPUTED TO BE GREATER THAN 35,000 FT FOR LUNAR


000060:                                                                                                  #                        ORBIT OR 85 NM FOR EARTH ORBIT.
000061:                                                                                                  #                (E)     THE CSI AND CDH MANEUVERS WERE ASSUMED TO BE PARALLEL TO
000062:                                                                                                  #                        THE PLANE OF THE PASSIVE VEHICLE ORBIT.  HOWEVER, CREW
000063:                                                                                                  #                        MODIFICATION OF DELTA V (LV) COMPONENTS MAY HAVE RESULTED
000064:                                                                                                  #                        IN AN OUT-OF-PLANE MANEUVER.
000065:                                                                                                  #        (2)     STATE VECTOR UPDATED BY P27 ARE DISALLOWED DURING AUTOMATIC
000066:                                                                                                  #                STATE VECTOR UPDATING INITIATED BY P20 (SEE ASSUMPTION (4)).
000067:                                                                                                  #        (3)     THIS PROGRAM MUST BE DONE OVER A TRACKING STATION FOR REAL
000068:                                                                                                  #                TIME GROUND PARTICIPATION IN DATA INPUT AND OUTPUT.  COMPUTED
000069:                                                                                                  #                VARIABLES MAY BE STORED FOR LATER VERIFICATION BY THE GROUND.
000070:                                                                                                  #                THESE STORAGE CAPABILITIES ARE LIMITED ONLY TO THE PARAMETERS
000071:                                                                                                  #                FOR ONE THRUSTING MANEUVER AT A TIME EXCEPT FOR CONCENTRIC
000072:                                                                                                  #                FLIGHT PLAN MANEUVER SEQUENCES.
000073:                                                                                                  #        (4)     THE RENDEZVOUS RADAR MAY OR MAY NOT BE USED TO UPDATE THE LM
000074:                                                                                                  #                OR CSM STATE VECTORS FOR THIS PROGRAM.  IF RADAR USE IS
000075:                                                                                                  #                DESIRED THE RADAR WAS TURNED ON AND LOCKED ON THE CSM BY
000076:                                                                                                  #                PREVIOUS SELECTION OF P20.  RADAR SIGHTING MARKS WILL BE MADE
000077:                                                                                                  #                AUTOMATICALLY APPROXIMATELY ONCE A MINUTE WHEN ENABLED BY THE
000078:                                                                                                  #                TRACK AND UPDATE FLAGS (SEE P20).  THE RENDEZVOUS TRACKING
000079:                                                                                                  #                MARK COUNTER IS ZEROED BY THE SELECTION OF P20 AND AFTER EACH
000080:                                                                                                  #                THRUSTING MANEUVER.
000081:                                                                                                  #        (5)     THE ISS NEED NOT BE ON TO COMPLETE THIS PROGRAM.
000082:                                                                                                  #        (6)     THE OPERATION OF THE PROGRAM UTILIZES THE FOLLOWING FLAGS -
000083:
000084:                                                                                                  #                        ACTIVE VEHICLE FLAG - DESIGNATES THE VEHICLE WHICH IS
000085:                                                                                                  #                        DOING RENDEZVOUS THRUSTING MANEUVERS TO THE PROGRAM WHICH
000086:                                                                                                  #                        CALCULATES THE MANEUVER PARAMETERS.  SET AT THE START OF
000087:                                                                                                  #                        EACH RENDEZVOUS PRE-THRUSTING PROGRAM.
000088:
000089:                                                                                                  #                        FINAL FLAG - SELECTS FINAL PROGRAM DISPLAYS AFTER CREW HAS
000090:                                                                                                  #                        SELECTED THE FINAL MANEUVER COMPUTATION CYCLE.
000091:
000092:                                                                                                  #                        EXTERNAL DELTA V FLAG - DESIGNATES THE TYPE OF STEERING
000093:                                                                                                  #                        REQUIRED FOR EXECUTION OF THIS MANEUVER BY THE THRUSTING
000094:                                                                                                  #                        PROGRAM SELECTED AFTER COMPLETION OF THIS PROGRAM.
000095:
000096:                                                                                                  #        (7)     ONCE THE PARAMETWRS REQUIRED FOR COMPUTION OF THE MANEUVER
000097:                                                                                                  #                HAVE BEEN COMPLETELY SPECIFIED, THE VALUE OF THE ACTIVE
000098:                                                                                                  #                VEHICLE CENTRAL ANGLE OF TRANSFER IS COMPUTED AND STORED.
000099:                                                                                                  #                THIS NUMBER WILL BE AVAILABLE FOR DISPLAY TO THE ASTRONAUT
000100:                                                                                                  #                THROUGH THE USE OF V06N52.
000101:
000102:                                                                                                  #                THE ASTRONAUT WILL CALL THIS DISPLAY TO VERIFY THAT THE
000103:                                                                                                  #                CENTRAL ANGLE OF TRANSFER OF THE ACTIVE VEHICLE IS NOT WITHIN


000105:                                                                                                  #                170 TO 190 DEGREES.  IF THE ANGLE IS WITHIN THIS ZONE THE
000106:                                                                                                  #                ASTRONAUT SHOULD REASSESS THE INPUT TARGETING PARAMETERS BASED
000107:                                                                                                  #                UPON DELTA V AND EXPECTED MANEUVER TIME.
000108:                                                                                                  #        (8)     THIS PROGRAM IS SELECTED BY THE ASTRONAUT BY DSKY ENTRY -
000109:
000110:                                                                                                  #                        P34 IF THIS VEHICLE IS ACTIVE VEHICLE.
000111:
000112:                                                                                                  #                        P74 IF THIS VEHICLE IS PASSIVE VEHICLE.
000113:
000114:                                                                                                  #  INPUT
000115:                                                                                                  #        (1)     TTPI    TIME OF THE TPI MANEUVER
000116:                                                                                                  #        (2)     ELEV    DESIRED LOS ANGLE AT TPI
000117:                                                                                                  #        (3)     CENTANG ORBITAL CENTRAL ANGLE OF THE PASSIVE VEHICLE DURING
000118:                                                                                                  #                        TRANSFER FROM TPI TO TIME OF INTERCEPT
000119:
000120:                                                                                                  #  OUTPUT
000121:                                                                                                  #        (1)     TRKMKCNT        NUMBER OF MARKS
000122:                                                                                                  #        (2)     TTOGO           TIME TO GO
000123:                                                                                                  #        (3)     +MGA            MIDDLE GIMBAL ANGLE
000124:                                                                                                  #        (4)     TTPI            COMPUTED TIME OF TPI MANEUVER
000125:                                                                                                  #                 OR
000126:                                                                                                  #                ELEV            COMPUTED LOS ANGLE AT TPI
000127:                                                                                                  #        (5)     POSTTPI         PERIGEE ALTITUDE AFTER THE TPI MANEUVER
000128:                                                                                                  #        (6)     DELVTPI         MAGNITUDE OF DELTA V AT TPI
000129:                                                                                                  #        (7)     DELVTPF         MAGNITUDE OF DELTA V AT INTERCEPT
000130:                                                                                                  #        (8)     DVLOS           DELTA VELOCITY AT TPI - LINE OF SIGHT
000131:                                                                                                  #        (9)     DELVLVC         DELTA VELOCITY AT TPI - LOCAL VERTICAL COORDINATES
000132:
000133:                                                                                                  #  DOWNLINK
000134:                                                                                                  #        (1)     TTPI            TIME OF THE TPI MANEUVER
000135:                                                                                                  #        (2)     TIG             TIME OF THE TPI MANEUVER
000136:                                                                                                  #        (3)     ELEV            DESIRED LOS ANGLE AT TPI
000137:                                                                                                  #        (4)     CENTANG         ORBITAL CENTRAL ANGLE OF THE PASSIVE VEHICLE DURING
000138:                                                                                                  #                                TRANSFER FROM TPI TO TIME OF INTERCEPT
000139:                                                                                                  #        (5)     DELVEET3        DELTA VELOCITY AT TPI - REFERENCE COORDINATES
000140:                                                                                                  #        (6)     TPASS4          TIME OF INTERCEPT
000141:
000142:                                                                                                  #  COMMUNICATION TO THRUSTING PROGRAMS
000143:                                                                                                  #        (1)     TIG             TIME OF THE TPI MANEUVER
000144:                                                                                                  #        (2)     RTARG           OFFSET TARGET POSITION
000145:                                                                                                  #        (3)     TPASS4          TIME OF INTERCEPT
000146:                                                                                                  #        (4)     XDELVFLG        RESET TO INDICATE LAMBERT (AIMPOINT) VG COMPUTATION
000147:
000148:                                                                                                  #  SUBROUTINES USED
000149:                                                                                                  #        AVFLAGA


000151:                                                                                                  #        AVFLAGP
000152:                                                                                                  #        VNPOOH
000153:                                                                                                  #        DISPLAYE
000154:                                                                                                  #        SELECTMU
000155:                                                                                                  #        PRECSET
000156:                                                                                                  #        S33/34.1
000157:                                                                                                  #        ALARM
000158:                                                                                                  #        BANKCALL
000159:                                                                                                  #        GOFLASH
000160:                                                                                                  #        GOTOPOOH
000161:                                                                                                  #        TIMETHET
000162:                                                                                                  #        S34/35.2
000163:                                                                                                  #        PERIAPO1
000164:                                                                                                  #        SHIFTR1
000165:                                                                                                  #        S34/35.5
000166:                                                                                                  #        VN1645
000167:
000168: 35,2000                                           SETLOC   CSI/CDH
000169: 35,2000                                           BANK
000170: 35,2000  E4,1770                                  EBANK=   SUBEXIT
000171: 35,2000                                           COUNT    35/P3474
000172:
000173: 35,2000           04627        P34                TC       AVFLAGA
000174: 35,2001           02003                           TC       P34/P74A
000175: 35,2002           04642        P74                TC       AVFLAGP
000176: 35,2003           04647        P34/P74A           TC       P20FLGON                              #  SET UPDATFLG, TRACKFLG
000177: 35,2004           34614                           CAF      V06N37                                #  TTPI
000178: 35,2005           04575                           TC       VNPOOH


000189: 35,2006           03071                           TC       DISPLAYE                              #  ELEV AND CENTANG
000190: 35,2007           06006                           TC       INTPRET
000191: 35,2010           71214                           CLEAR    DLOAD
000192: 35,2011           01270                                    ETPIFLAG
000193: 35,2012           03663                                    TTPI
000194: 35,2013           17413                           STODL    TIG
000195: 35,2014           03744                                    ELEV
000196: 35,2015           43054                           BZE      SET
000197: 35,2016           72020                                    P34/P74B
000198: 35,2017           01070                                    ETPIFLAG
000199: 35,2020           77624        P34/P74B           CALL
000200: 35,2021           10712                                    SELECTMU
000201: 35,2022                        DELELO             EQUALS   26D
000202: 35,2022           43145        P34/P74C           DLOAD    SET
000203: 35,2023           15335                                    ZEROVECS
000204: 35,2024           03461                                    ITSWICH
000205: 35,2025           43014                           BON      CLEAR
000206: 35,2026           01310                                    ETPIFLAG


000208: 35,2027           72031                                    SWCHSET
000209: 35,2030           03661                                    ITSWICH
000210: 35,2031           02364        SWCHSET            STORE    NOMTPI
000211: 35,2032           43345        INTLOOP            DLOAD    DAD
000212: 35,2033           03663                                    TTPI
000213: 35,2034           02364                                    NOMTPI
000214: 35,2035           34041                           STCALL   TDEC1
000215: 35,2036           45215                                    PRECSET
000216: 35,2037           77624                           CALL
000217: 35,2040           72212                                    S33/34.1
000218: 35,2041           77454                           BZE      EXIT
000219: 35,2042           72053                                    SWCHCLR
000220: 35,2043           05650                           TC       ALARM
000221: 35,2044           00611                           OCT      611
000222: 35,2045           35050                           CAF      V05N09
000223: 35,2046           04662                           TC       BANKCALL
000224: 35,2047           20720                           CADR     GOFLASH
000225: 35,2050           04106                           TC       GOTOPOOH
000226: 35,2051           02003                           TC       P34/P74A                              #  PROCEED
000227: 35,2052           02043                           TC       -7                                    #  V32
000228:
000229: 35,2053           43014        SWCHCLR            BONCLR   BON
000230: 35,2054           03601                                    ITSWICH
000231: 35,2055           72032                                    INTLOOP
000232: 35,2056           01310                                    ETPIFLAG
000233: 35,2057           72063                                    P34/P74D                              #  DISPLAY TTPI
000234: 35,2060           77776                           EXIT
000235: 35,2061           03071                           TC       DISPLAYE                              #  DISPLAY ELEV AND CENTANG
000236: 35,2062           02066                           TC       P34/P74E
000237: 35,2063           77776        P34/P74D           EXIT
000238: 35,2064           34614                           CAF      V06N37                                #  TTPI
000239: 35,2065           04575                           TC       VNPOOH
000240: 35,2066           06006        P34/P74E           TC       INTPRET
000241: 35,2067           71201                           SETPD    DLOAD
000242: 35,2070           00001                                    0D
000243: 35,2071           03746                                    RTX1
000244: 35,2072           14047                           STODL    X1
000245: 35,2073           03754                                    CENTANG
000246: 35,2074           71406                           PUSH     COS
000247: 35,2075           16734                           STODL    CSTH
000248: 35,2076           77756                           SIN
000249: 35,2077           26732                           STOVL    SNTH
000250: 35,2100           03554                                    RPASS3
000251: 35,2101           77657                           VSR*
000252: 35,2102           57176                                    0,2
000253: 35,2103           26657                           STOVL    RVEC
000254: 35,2104           03562                                    VPASS3
000255: 35,2105           43057                           VSR*     SET
000256: 35,2106           57176                                    0,2
000257: 35,2107           03466                                    RVSW


000259: 35,2110           36746                           STCALL   VVEC
000260: 35,2111           24744                                    TIMETHET
000261: 35,2112           77745                           DLOAD
000262: 35,2113           03663                                    TTPI
000263: 35,2114           03503                           STORE    INTIME                                #  FOR INITVEL
000264: 35,2115           77615                           DAD
000265: 35,2116           00037                                    T                                     #  RENDEZVOUS TIME
000266: 35,2117           37656                           STCALL   TPASS4                                #  FOR INITVEL
000267: 35,2120           72534                                    S34/35.2
000268: 35,2121           51575                           VLOAD    ABVAL
000269: 35,2122           03646                                    DELVEET3
000270: 35,2123           26635                           STOVL    DELVTPI
000271: 35,2124           03640                                    VPASS4
000272: 35,2125           51451                           VSU      ABVAL
000273: 35,2126           03620                                    VTPRIME
000274: 35,2127           26637                           STOVL    DELVTPF
000275: 35,2130           03540                                    RACT3
000276: 35,2131           45115                           PDVL     CALL
000277: 35,2132           03612                                    VIPRIME
000278: 35,2133           45153                                    PERIAPO1
000279: 35,2134           77624                           CALL
000280: 35,2135           45263                                    SHIFTR1
000281: 35,2136           16641                           STODL    POSTTPI
000282: 35,2137           03663                                    TTPI
000283: 35,2140           03413                           STORE    TIG
000284: 35,2141           77776                           EXIT
000285: 35,2142           34616                           CAF      V06N58
000286: 35,2143           04575                           TC       VNPOOH
000287: 35,2144           06006                           TC       INTPRET
000288: 35,2145           77624                           CALL
000289: 35,2146           72742                                    S34/35.5
000290: 35,2147           77624                           CALL
000291: 35,2150           73003                                    VN1645
000292: 35,2151           77650                           GOTO
000293: 35,2152           72022                                    P34/P74C
000294:


000296:                                                                                                  #  RENDEZVOUS MID-COURSE MANEUVER PROGRAMS (P35 AND P75)
000297:                                                                                                  #  MOD NO -1                     LOG SECTION - P32-P35, P72-P75
000298:                                                                                                  #  MOD BY WHITE.P                DATE  1JUNE67
000299:
000300:                                                                                                  #  PURPOSE
000301:                                                                                                  #        (1)     TO CALCULATE THE REQUIRED DELTA V AND OTHER INITIAL CONDITIONS
000302:                                                                                                  #                REQUIRED BY THE ACTIVE VEHICLE FOR EXECUTION OF THE NEXT
000303:                                                                                                  #                MIDCOURSE CORRECTION OF THE TRANSFER PHASE OF AN ACTIVE
000304:                                                                                                  #                VEHICLE RENDEZVOUS.
000305:                                                                                                  #        (2)     TO DISPLAY TO THE ASTRONAUT AND THE GROUND CERTAIN DEPENDENT
000306:                                                                                                  #                VARIABLES ASSOCIATED WITH THE MANEUVER FOR APPROVAL BY THE
000307:                                                                                                  #                ASTRONAUT/GROUND.
000308:                                                                                                  #        (3)     TO STORE THE TPM TARGET PARAMETERS FOR USE BY THE DESIRED
000309:                                                                                                  #                THRUSTING PROGRAM.
000310:
000311:                                                                                                  #  ASSUMPTIONS
000312:                                                                                                  #        (1)     THE ISS NEED NOT BE ON TO COMPLETE THIS PROGRAM.
000313:                                                                                                  #        (2)     STATE VECTOR UPDATES BY P27 ARE DISALLOWED DURING AUTOMATIC
000314:                                                                                                  #                STATE VECTOR UPDATING INITIATED BY P20 (SEE ASSUMPTION (3)).
000315:                                                                                                  #        (3)     THE RENDEZVOUS RADAR IS ON AND IS LOCKED ON THE CSM.  THIS WAS
000316:                                                                                                  #                DONE DURING PREVIOUS SELECTION OF P20.  RADAR SIGHTING MARKS
000317:                                                                                                  #                WILL BE MADE AUTOMATICALLY APPROXIMATELY ONCE A MINUTE WHEN
000318:                                                                                                  #                ENABLED BY THE TRACK AND UPDATE FLAGS (SEE P20).  THE
000319:                                                                                                  #                RENDEZVOUS TRACKING MARK COUNTER IS ZEROED BY THE SELECTION OF
000320:                                                                                                  #                P20 AND AFTER EACH THRUSTING MANEUVER.
000321:                                                                                                  #        (4)     THE OPERATION OF THE PROGRAM UTILIZES THE FOLLOWING FLAGS -
000322:
000323:                                                                                                  #                        ACTIVE VEHICLE FLAG - DESIGNATES THE VEHICLE WHICH IS
000324:                                                                                                  #                        DOING RENDEZVOUS THRUSTING MANEUVERS TO THE PROGRAM WHICH
000325:                                                                                                  #                        CALCULATES THE MANEUVER PARAMETERS.  SET AT THE START OF
000326:                                                                                                  #                        EACH RENDEZVOUS PRE-THRUSTING PROGRAM.
000327:
000328:                                                                                                  #                        FINAL FLAG - SELECTS FINAL PROGRAM DISPLAYS AFTER CREW HAS
000329:                                                                                                  #                        SELECTED THE FINAL MANEUVER COMPUTATION CYCLE.
000330:
000331:                                                                                                  #                        EXTERNAL DELTA V FLAG - DESIGNATES THE TYPE OF STEERING
000332:                                                                                                  #                        REQUIRED FOR EXECUTION OF THIS MANEUVER BY THE THRUSTING
000333:                                                                                                  #                        PROGRAM SELECTED AFTER COMPLETION OF THIS PROGRAM.
000334:
000335:                                                                                                  #        (5)     THE TIME OF INTERCEPT (T(INT)) WAS DEFINED BY PREVIOUS
000336:                                                                                                  #                COMPLETION OF THE TRANSFER PHASE INITIATION (TPI) PROGRAM
000337:                                                                                                  #                (P34/P74) AND IS PRESENTLY AVAILABLE IN STORAGE.


000339:                                                                                                  #        (6)     ONCE THE PARAMETERS REQUIRED FOR COMPUTION OF THE MANEUVER
000340:                                                                                                  #                HAVE BEEN COMPLETELY SPECIFIED, THE VALUE OF THE ACTIVE
000341:                                                                                                  #                VEHICLE CENTRAL ANGLE OF TRANSFER IS COMPUTED AND STORED.
000342:                                                                                                  #                THIS NUMBER WILL BE AVAILABLE FOR DISPLAY TO THE ASTRONAUT
000343:                                                                                                  #                THROUGH THE USE OF V06N52.
000344:
000345:                                                                                                  #                THE ASTRONAUT WILL CALL THIS DISPLAY TO VERIFY THAT THE
000346:                                                                                                  #                CENTRAL ANGLE OF TRANSFER OF THE ACTIVE VEHICLE IS NOT WITHIN
000347:                                                                                                  #                170 TO 190 DEGREES.  IF THE ANGLE IS WITHIN THIS ZONE THE
000348:                                                                                                  #                ASTRONAUT SHOULD REASSESS THE INPUT TARGETING PARAMETERS BASED
000349:                                                                                                  #                UPON DELTA V AND EXPECTED MANEUVER TIME.
000350:                                                                                                  #        (7)     THIS PROGRAM IS SELECTED BY THE ASTRONAUT BY DSKY ENTRY -
000351:
000352:                                                                                                  #                        P35 IF THIS VEHICLE IS ACTIVE VEHICLE.
000353:
000354:                                                                                                  #                        P75 IF THIS VEHICLE IS PASSIVE VEHICLE.
000355:
000356:                                                                                                  #  INPUT
000357:                                                                                                  #        (1)     TPASS4          TIME OF INTERCEPT - SAVED FROM P34/P74
000358:
000359:                                                                                                  #  OUTPUT
000360:                                                                                                  #        (1)     TRKMKCNT        NUMBER OF MARKS
000361:                                                                                                  #        (2)     TTOGO           TIME TO GO
000362:                                                                                                  #        (3)     +MGA            MIDDLE GIMBAL ANGLE
000363:                                                                                                  #        (4)     DVLOS           DELTA VELOCITY AT MID - LINE OF SIGHT
000364:                                                                                                  #        (5)     DELVLVC         DELTA VELOCITY AT MID - LOCAL VERTICAL COORDINATES
000365:
000366:                                                                                                  #  DOWNLINK
000367:                                                                                                  #        (1)     TIG             TIME OF THE TPM MANEUVER
000368:                                                                                                  #        (2)     DELVEET3        DELTA VELOCITY AT TPM - REFERENCE COORDINATES
000369:                                                                                                  #        (3)     TPASS4          TIME OF INTERCEPT
000370:
000371:                                                                                                  #  COMMUNICATION TO THRUSTING PROGRAMS
000372:                                                                                                  #        (1)     TIG             TIME OF THE TPM MANEUVER
000373:                                                                                                  #        (2)     RTARG           OFFSET TARGET POSITION
000374:                                                                                                  #        (3)     TPASS4          TIME OF INTERCEPT
000375:                                                                                                  #        (4)     XDELVFLG        RESET TO INDICATE LAMBERT (AIMPOINT) VG COMPUTATION
000376:
000377:                                                                                                  #  SUBROUTINES USED
000378:                                                                                                  #        AVFLAGA
000379:                                                                                                  #        AVFLAGP
000380:                                                                                                  #        LOADTIME
000381:                                                                                                  #        SELECTMU
000382:                                                                                                  #        PRECSET
000383:                                                                                                  #        S34/35.1
000384:                                                                                                  #        S34/35.2


000386:                                                                                                  #        S34/35.5
000387:                                                                                                  #        VN1645
000388:
000389: 35,2153                                           COUNT    35/P3575
000390: 35,2153  E4,1763                                  EBANK=   KT
000391:
000392: 35,2153           04627        P35                TC       AVFLAGA
000393: 35,2154           00006                           EXTEND
000394: 35,2155           31422                           DCA      ATIGINC
000395: 35,2156           02162                           TC       P35/P75A
000396: 35,2157           04642        P75                TC       AVFLAGP
000397: 35,2160           00006                           EXTEND
000398: 35,2161           31424                           DCA      PTIGINC
000399: 35,2162           53764        P35/P75A           DXCH     KT
000400: 35,2163           04647                           TC       P20FLGON                              #  SET UPDATFLG, TRACKFLG
000401: 35,2164           06006                           TC       INTPRET
000402: 35,2165           77624                           CALL
000403: 35,2166           10712                                    SELECTMU
000404: 35,2167           77634        P35/P75B           RTB
000405: 35,2170           45510                                    LOADTIME
000406: 35,2171           03665                           STORE    TSTRT
000407: 35,2172           77615                           DAD
000408: 35,2173           02364                                    KT
000409: 35,2174           03413                           STORE    TIG
000410: 35,2175           03503                           STORE    INTIME                                #  FOR INITVEL
000411: 35,2176           34041                           STCALL   TDEC1
000412: 35,2177           45215                                    PRECSET                               #  ADVANCE BOTH VEHICLES
000413: 35,2200           77624                           CALL
000414: 35,2201           72522                                    S34/35.1                              #  GET NORM AND LOS FOR TRANSFORM
000415: 35,2202           77624                           CALL
000416: 35,2203           72534                                    S34/35.2                              #  GET DELTA V(LV)
000417: 35,2204           77624                           CALL
000418: 35,2205           72742                                    S34/35.5
000419: 35,2206           77624                           CALL
000420: 35,2207           73003                                    VN1645
000421: 35,2210           77650                           GOTO
000422: 35,2211           72167                                    P35/P75B


000424:                                                                                                  #  ..... S33/34.1 .....
000425:
000426: 35,2212           66220        S33/34.1           STQ      SSP
000427: 35,2213           01340                                    NORMEX
000428: 35,2214           03665                                    TITER
000429: 35,2215           40000                           OCT      40000
000430: 35,2216           40345                           DLOAD    SETPD
000431: 35,2217           33115                                    MAX250
000432: 35,2220           00001                                    0D
000433: 35,2221           27454                           STOVL    SECMAX
000434: 35,2222           03540                                    RACT3
000435: 35,2223           27576                           STOVL    RAPREC
000436: 35,2224           03546                                    VACT3
000437: 35,2225           27570                           STOVL    VAPREC
000438: 35,2226           03554                                    RPASS3
000439: 35,2227           27620                           STOVL    RPPREC
000440: 35,2230           03562                                    VPASS3
000441: 35,2231           03612                           STORE    VPPREC
000442: 35,2232           77624        ELCALC             CALL
000443: 35,2233           72522                                    S34/35.1                              #  NORMAL AND LOS
000444: 35,2234           63235                           VXV      PDVL
000445: 35,2235           03540                                    RACT3                                 #  (RA*VA)*RA 0D
000446: 35,2236           53515                           PDVL     UNIT                                  #  ULOS AT 6D
000447: 35,2237           03540                                    RACT3
000448: 35,2240           46315                           PDVL     VPROJ                                 #  XCHNJ AND UP
000449: 35,2241           51352                           VSL2     BVSU
000450: 35,2242           02625                                    ULOS
000451: 35,2243           63256                           UNIT     PDVL                                  #  UP AT 0D
000452: 35,2244           63241                           DOT      PDVL                                  #  UP.UN*RA AT 0D
000453: 35,2245           00001                                    0D                                    #  UP IN MPAC
000454: 35,2246           75241                           DOT      SIGN
000455: 35,2247           02625                                    ULOS
000456: 35,2250           65552                           SL1      ACOS
000457: 35,2251           50315                           PDVL     DOT                                   #  EA AT 0D
000458: 35,2252           02625                                    ULOS
000459: 35,2253           03540                                    RACT3
000460: 35,2254           71244                           BPL      DLOAD
000461: 35,2255           72260                                    TESTY
000462: 35,2256           15343                                    DPPOSMAX
000463: 35,2257           41425                           DSU      PUSH
000464: 35,2260           71214        TESTY              BOFF     DLOAD
000465: 35,2261           03741                                    ITSWICH
000466: 35,2262           72507                                    ELEX
000467: 35,2263           03452                                    DELEL
000468: 35,2264           14033                           STODL    DELELO
000469: 35,2265           77625                           DSU
000470: 35,2266           03744                                    ELEV
000471: 35,2267           03452                           STORE    DELEL
000472: 35,2270           45246                           ABS      DSU
000473: 35,2271           33121                                    ELEPS


000475: 35,2272           77640                           BMN
000476: 35,2273           72517                                    TIMEX                                 #  COMMERCIALS EVERYWHERE
000477: 35,2274           70535        FIGTIME            SLOAD    SR1
000478: 35,2275           03665                                    TITER
000479: 35,2276           72030                           BHIZ     LXA,1
000480: 35,2277           01340                                    NORMEX                                #  TOO MANY ITERATIONS
000481: 35,2300           00154                                    MPAC
000482: 35,2301           77330                           SXA,1    VLOAD
000483: 35,2302           03664                                    TITER
000484: 35,2303           03554                                    RPASS3
000485: 35,2304           65256                           UNIT     PDDL
000486: 35,2305           00045                                    36D
000487: 35,2306           53515                           PDVL     UNIT
000488: 35,2307           03540                                    RACT3
000489: 35,2310           77725                           PDDL
000490: 35,2311           41525                           PDDL     PUSH
000491: 35,2312           00045                                    36D
000492: 35,2313           77621                           BDSU
000493: 35,2314           00015                                    12D
000494: 35,2315           14037                           STODL    30D                                   #  RP-RA MAGNITUDES
000495: 35,2316           15333                                    DPHALF
000496: 35,2317           41425                           DSU      PUSH
000497: 35,2320           03744                                    ELEV
000498: 35,2321           50165                           SIGN     BMN
000499: 35,2322           00037                                    30D
000500: 35,2323           01340                                    NORMEX
000501: 35,2324           71545                           DLOAD    COS
000502: 35,2325           56205                           DMP      DDV
000503: 35,2326           00017                                    14D
000504: 35,2327           00015                                    12D
000505: 35,2330           77676                           DCOMP                                          #  SINCE COS(180-A)=-COS A
000506: 35,2331           00035                           STORE    28D
000507: 35,2332           44246                           ABS      BDSU
000508: 35,2333           15333                                    DPHALF
000509: 35,2334           77240                           BMN      VLOAD
000510: 35,2335           01340                                    NORMEX
000511: 35,2336           02617                                    UNRM
000512: 35,2337           53435                           VXV      UNIT
000513: 35,2340           00007                                    6D                                    #  UN*RA
000514: 35,2341           41241                           DOT      DMP
000515: 35,2342           03546                                    VACT3
000516: 35,2343           00015                                    12D
000517: 35,2344           47315                           PDVL     VXV
000518: 35,2345           00001                                    0D
000519: 35,2346           03562                                    VPASS3
000520: 35,2347           53435                           VXV      UNIT
000521: 35,2350           00001                                    0D                                    #  (RP*VP)*RP
000522: 35,2351           41241                           DOT      DMP
000523: 35,2352           03562                                    VPASS3
000524: 35,2353           00017                                    14D


000526: 35,2354           77621                           BDSU
000527: 35,2355           63301                           NORM     PDVL                                  #  NORMALIZED WA-WP 12D
000528: 35,2356           00047                                    X1
000529: 35,2357           00007                                    6D
000530: 35,2360           50235                           VXV      DOT
000531: 35,2361           00001                                    0D
000532: 35,2362           02617                                    UNRM                                  #  RA*RP.UN 14D
000533: 35,2363           50315                           PDVL     DOT
000534: 35,2364           00001                                    0D
000535: 35,2365           00007                                    6D
000536: 35,2366           65552                           SL1      ACOS
000537: 35,2367           77765                           SIGN
000538: 35,2370           43225                           DSU      DAD                                   #  ALPHA PI
000539: 35,2371           15333                                    DPHALF
000540: 35,2372           03744                                    ELEV
000541: 35,2373           65525                           PDDL     ACOS
000542: 35,2374           00035                                    28D
000543: 35,2375           75221                           BDSU     SIGN
000544: 35,2376           15333                                    DPHALF
000545: 35,2377           00037                                    30D                                   #  CONTAINS RP-RA
000546: 35,2400           77615                           DAD
000547: 35,2401           56205                           DMP      DDV
000548: 35,2402           33113                                    TWOPI
000549: 35,2403           77605                           DMP
000550: 35,2404           41257                           SL*      DMP
000551: 35,2405           20176                                    0          -3,1
000552: 35,2406           51406                           PUSH     ABS
000553: 35,2407           50025                           DSU      BMN
000554: 35,2410           03454                                    SECMAX
000555: 35,2411           72415                                    OKMAX
000556: 35,2412           75345                           DLOAD    SIGN                                  #  REPLACE TIME WITH MAX TIME SIGNED
000557: 35,2413           03454                                    SECMAX
000558: 35,2414           77606                           PUSH
000559: 35,2415           51135        OKMAX              SLOAD    BPL                                   #  TEST FIRST ITERATION
000560: 35,2416           03665                                    TITER
000561: 35,2417           72425                                    REPETE
000562: 35,2420           71331                           SSP      DLOAD
000563: 35,2421           03665                                    TITER
000564: 35,2422           37777                           OCT      37777
000565: 35,2423           77650                           GOTO
000566: 35,2424           72463                                    STORDELT
000567: 35,2425           41345        REPETE             DLOAD    DMP
000568: 35,2426           03452                                    DELEL
000569: 35,2427           00033                                    DELELO
000570: 35,2430           71244                           BPL      DLOAD
000571: 35,2431           72441                                    NEXTES
000572: 35,2432           03454                                    SECMAX
000573: 35,2433           77605                           DMP
000574: 35,2434           33117                                    THIRD
000575: 35,2435           17454                           STODL    SECMAX


000577: 35,2436           70446                           ABS      SR1                                   #  CROSSED OVER SOLUTION
000578: 35,2437           52076                           DCOMP    GOTO                                  #  DT=(-SIGN(DTO)//DT//)/2
000579: 35,2440           72451                                    RESIGN
000580: 35,2441           51545        NEXTES             DLOAD    ABS
000581: 35,2442           03452                                    DELEL
000582: 35,2443           51525                           PDDL     ABS
000583: 35,2444           00033                                    DELELO
000584: 35,2445           77625                           DSU
000585: 35,2446           71240                           BMN      DLOAD
000586: 35,2447           72454                                    REVERS                                #  WRONG DIRECTION
000587: 35,2450           77646                           ABS
000588: 35,2451           52165        RESIGN             SIGN     GOTO
000589: 35,2452           03450                                    DELTEEO
000590: 35,2453           72463                                    STORDELT
000591: 35,2454           57545        REVERS             DLOAD    DCOMP
000592: 35,2455           03450                                    DELTEEO
000593: 35,2456           70406                           PUSH     SR1
000594: 35,2457           03450                           STORE    DELTEEO
000595: 35,2460           77615                           DAD
000596: 35,2461           77650                           GOTO
000597: 35,2462           72464                                    ADTIME
000598: 35,2463           03450        STORDELT           STORE    DELTEEO
000599: 35,2464           77615        ADTIME             DAD
000600: 35,2465           02364                                    NOMTPI                                #  SUM OF DELTA T:S
000601: 35,2466           02364                           STORE    NOMTPI
000602: 35,2467           63375                           VLOAD    PDVL
000603: 35,2470           03570                                    VAPREC
000604: 35,2471           03576                                    RAPREC
000605: 35,2472           77624                           CALL
000606: 35,2473           72702                                    GOINT
000607: 35,2474           77624                           CALL
000608: 35,2475           45237                                    ACTIVE                                #  STORE NEW RACT3 VACT3
000609: 35,2476           63375                           VLOAD    PDVL
000610: 35,2477           03612                                    VPPREC
000611: 35,2500           03620                                    RPPREC
000612: 35,2501           77624                           CALL
000613: 35,2502           72702                                    GOINT
000614: 35,2503           77624                           CALL
000615: 35,2504           45247                                    PASSIVE                               #  STORE NEW RPASS3 VPASS3
000616: 35,2505           77650                           GOTO
000617: 35,2506           72232                                    ELCALC
000618: 35,2507           43345        ELEX               DLOAD    DAD
000619: 35,2510           03663                                    TTPI
000620: 35,2511           02364                                    NOMTPI
000621: 35,2512           17663                           STODL    TTPI
000622: 35,2513           77614                           BON
000623: 35,2514           01310                                    ETPIFLAG
000624: 35,2515           72517                                    TIMEX
000625: 35,2516           03744                           STORE    ELEV
000626: 35,2517           52145        TIMEX              DLOAD    GOTO


000628: 35,2520           15335                                    ZEROVECS
000629: 35,2521           01340                                    NORMEX
000630:


000632:                                                                                                  #  ..... S34/35.1 .....
000633:
000634:                                                                                                  #  COMPUTE UNIT NORMAL AND LINE OF SIGHT VECTORS GIVEN THE ACTIVE AND
000635:                                                                                                  #  PASSIVE POS AND VEL AT TIME T3


000650:
000651: 35,2522           52375        S34/35.1           VLOAD    VSU
000652: 35,2523           03554                                    RPASS3
000653: 35,2524           03540                                    RACT3
000654: 35,2525           41456                           UNIT     PUSH
000655: 35,2526           26625                           STOVL    ULOS
000656: 35,2527           03540                                    RACT3
000657: 35,2530           53435                           VXV      UNIT
000658: 35,2531           03546                                    VACT3
000659: 35,2532           02617                           STORE    UNRM
000660: 35,2533           77616                           RVQ
000661:


000663:                                                                                                  #  ..... S34/35.2 .....
000664:
000665:                                                                                                  #  ADVANCE PASSIVE VEH TO RENDEZVOUS TIME AND GET REQ VEL FROM LAMBERT


000673:
000674: 35,2534           77220        S34/35.2           STQ      VLOAD
000675: 35,2535           02370                                    SUBEXIT
000676: 35,2536           03562                                    VPASS3
000677: 35,2537           65315                           PDVL     PDDL
000678: 35,2540           03554                                    RPASS3
000679: 35,2541           03503                                    INTIME
000680: 35,2542           65325                           PDDL     PDDL
000681: 35,2543           03656                                    TPASS4


000703: 35,2544           15335                                    ZEROVECS
000704: 35,2545           45006                           PUSH     CALL
000705: 35,2546           72706                                    INTINT                                #  GET TARGET VECTOR
000706: 35,2547           27415        S3435.25           STOVL    RTARG
000707: 35,2550           00007                                    VATT
000708: 35,2551           27640                           STOVL    VPASS4
000709: 35,2552           03415                                    RTARG
000710:                                                                                                  #  COMPUTE PHI = PI + (ACOS(UNIT RA.UNIT RP) - PI) SIGN(RA*RP.U)
000711: 35,2553           63256                           UNIT     PDVL                                  #  UNIT RP
000712: 35,2554           03540                                    RACT3
000713: 35,2555           41456                           UNIT     PUSH                                  #  UNIT RA
000714: 35,2556           50235                           VXV      DOT
000715: 35,2557           00001                                    0D
000716: 35,2560           02617                                    UNRM                                  #  RA*RP.U
000717: 35,2561           77715                           PDVL
000718: 35,2562           72441                           DOT      SL1                                   #  UNIT RA.UNIT RP
000719: 35,2563           00001                                    0D
000720: 35,2564           75326                           ACOS     SIGN
000721: 35,2565           43244                           BPL      DAD
000722: 35,2566           72570                                    NOPIE
000723: 35,2567           15343                                    DPPOSMAX                              #  REASONABLE TWO PI
000724: 35,2570           16633        NOPIE              STODL    ACTCENT
000725: 35,2571           03656                                    TPASS4
000726: 35,2572           77625                           DSU
000727: 35,2573           03503                                    INTIME
000728: 35,2574           03423                           STORE    DELLT4
000729: 35,2575           40335                           SLOAD    SETPD


000743: 35,2576           33123                                    DECTWO
000744: 35,2577           00001                                    0D
000745: 35,2600           63325                           PDDL     PDVL
000746: 35,2601           33126                                    EPSFOUR


000748: 35,2602           03540                                    RACT3
000749: 35,2603           27570                           STOVL    RINIT
000750: 35,2604           03546                                    VACT3
000751: 35,2605           37576                           STCALL   VINIT
000752: 35,2606           22000                                    INITVEL
000753: 35,2607           77624                           CALL
000754: 35,2610           72667                                    LOMAT
000755: 35,2611           64375                           VLOAD    MXV
000756: 35,2612           03646                                    DELVEET3
000757: 35,2613           00001                                    0D
000758: 35,2614           77772                           VSL1
000759: 35,2615           37405                           STCALL   DELVLVC
000760: 35,2616           02370                                    SUBEXIT
000761:


000763:                                                                                                  #  ..... S34/35.3 .....
000764:
000765: 35,2617           45020        S34/35.3           STQ      CALL
000766: 35,2620           01340                                    NORMEX
000767: 35,2621           72667                                    LOMAT                                 #  GET MATRIX IN PUSH LIST
000768: 35,2622           61375                           VLOAD    VXM
000769: 35,2623           03405                                    DELVLVC                               #  NEW DEL V TPI
000770: 35,2624           00001                                    0D
000771: 35,2625           77772                           VSL1
000772: 35,2626           03646                           STORE    DELVEET3                              #  SAVE FOR TRANSFORM
000773: 35,2627           63255                           VAD      PDVL
000774: 35,2630           03546                                    VACT3                                 #  NEW V REQ
000775: 35,2631           03540                                    RACT3
000776: 35,2632           65325                           PDDL     PDDL
000777: 35,2633           03413                                    TIG
000778: 35,2634           03656                                    TPASS4
000779: 35,2635           41525                           PDDL     PUSH
000780: 35,2636           15343                                    DPPOSMAX
000781: 35,2637           77624                           CALL                                           #  INTEG. FOR NEW TARGET VEC
000782: 35,2640           72706                                    INTINT
000783: 35,2641           77775                           VLOAD
000784: 35,2642           00001                                    RATT
000785: 35,2643           03415                           STORE    RTARG
000786: 35,2644           41575        NOVRWRT            VLOAD    PUSH
000787: 35,2645           02625                                    ULOS
000788: 35,2646           57435                           VXV      VCOMP
000789: 35,2647           02617                                    UNRM
000790: 35,2650           41456                           UNIT     PUSH
000791: 35,2651           76435                           VXV      VSL1
000792: 35,2652           02625                                    ULOS
000793: 35,2653           77715                           PDVL
000794: 35,2654           64315                           PDVL     MXV
000795: 35,2655           03646                                    DELVEET3
000796: 35,2656           00001                                    0D
000797: 35,2657           77772                           VSL1
000798: 35,2660           36611                           STCALL   DVLOS
000799: 35,2661           01340                                    NORMEX
000800:


000802:                                                                                                  #  ..... S34/35.4 .....
000803:
000804: 35,2662           40220        S34/35.4           STQ      SETPD                                 #  NO ASTRONAUT OVERWRITE
000805: 35,2663           01340                                    NORMEX
000806: 35,2664           00001                                    0D
000807: 35,2665           77650                           GOTO
000808: 35,2666           72644                                    NOVRWRT
000809:


000811:                                                                                                  #  ..... LOMAT .....
000812:
000813: 35,2667           57575        LOMAT              VLOAD    VCOMP
000814: 35,2670           02617                                    UNRM
000815: 35,2671           24007                           STOVL    6D                                    #  Y
000816: 35,2672           03540                                    RACT3
000817: 35,2673           57456                           UNIT     VCOMP
000818: 35,2674           00015                           STORE    12D
000819: 35,2675           76435                           VXV      VSL1
000820: 35,2676           02617                                    UNRM                                  #  Z*-Y
000821: 35,2677           00001                           STORE    0D
000822: 35,2700           43401                           SETPD    RVQ
000823: 35,2701           00023                                    18D
000824: 35,2702           65325        GOINT              PDDL     PDDL                                  #  DO
000825: 35,2703           15335                                    ZEROVECS                              #        NOT
000826: 35,2704           02364                                    NOMTPI
000827: 35,2705           41406                           PUSH     PUSH                                  #                ORDER OR INSERT BEFORE INTINT
000828: 35,2706           45020        INTINT             STQ      CALL
000829: 35,2707           02367                                    RTRN
000830: 35,2710           27442                                    INTSTALL
000831: 35,2711           71214                           CLEAR    DLOAD
000832: 35,2712           01673                                    INTYPFLG
000833: 35,2713           43054                           BZE      SET
000834: 35,2714           72716                                    +2
000835: 35,2715           01473                                    INTYPFLG
000836: 35,2716           45545                           DLOAD    STADR
000837: 35,2717           63736                           STODL    TDEC1
000838: 35,2720           73014                           SET      LXA,2
000839: 35,2721           00063                                    MOONFLAG
000840: 35,2722           03746                                    RTX2
000841: 35,2723           43014                           BON      CLEAR
000842: 35,2724           04303                                    CMOONFLG
000843: 35,2725           72727                                    ALLSET
000844: 35,2726           00263                                    MOONFLAG
000845: 35,2727           25517        ALLSET             STOVL    TET
000846: 35,2730           77657                           VSR*
000847: 35,2731           57176                                    0,2
000848: 35,2732           25535                           STOVL    RCV
000849: 35,2733           77657                           VSR*
000850: 35,2734           57176                                    0,2
000851: 35,2735           35543                           STCALL   VCV
000852: 35,2736           27135                                    INTEGRVS
000853: 35,2737           52175                           VLOAD    GOTO
000854: 35,2740           00001                                    RATT
000855: 35,2741           02367                                    RTRN
000856:


000858:                                                                                                  #  ..... S34/35.5 .....
000859:
000860:                                                                                                  #  SUBROUTINES USED
000861:                                                                                                  #        BANKCALL
000862:                                                                                                  #        GOFLASH
000863:                                                                                                  #        GOTOPOOH
000864:                                                                                                  #        S34/35.3
000865:                                                                                                  #        S34/35.4
000866:                                                                                                  #        VNPOOH
000867:
000868: 35,2742           43020        S34/35.5           STQ      BON
000869: 35,2743           02370                                    SUBEXIT
000870: 35,2744           01311                                    FINALFLG
000871: 35,2745           72751                                    FLAGON
000872: 35,2746           52014                           SET      GOTO
000873: 35,2747           00470                                    UPDATFLG
000874: 35,2750           72773                                    FLAGOFF
000875: 35,2751           77775        FLAGON             VLOAD
000876: 35,2752           03405                                    DELVLVC
000877: 35,2753           02611                           STORE    DVLOS                                 #  SAVE DELTA V BEFORE DISPLAY
000878: 35,2754           77776                           EXIT
000879: 35,2755           34620                           CAF      V06N81
000880: 35,2756           04575                           TC       VNPOOH
000881: 35,2757           06006                           TC       INTPRET
000882: 35,2760           52375                           VLOAD    VSU                                   #  TEST FOR OVERWRITE OF COMPUTED
000883: 35,2761           03405                                    DELVLVC                               #                       DELTA V
000884: 35,2762           02611                                    DVLOS
000885: 35,2763           53046                           ABVAL    BZE
000886: 35,2764           72767                                    NOCHG                                 #  NO OVERWRITE
000887: 35,2765           77624                           CALL
000888: 35,2766           72617                                    S34/35.3                              #  COMPUTE NEW TARGET VECTOR
000889: 35,2767           77214        NOCHG              CLEAR    VLOAD
000890: 35,2770           01267                                    XDELVFLG
000891: 35,2771           03646                                    DELVEET3
000892: 35,2772           03646                           STORE    DELVSIN
000893: 35,2773           77624        FLAGOFF            CALL
000894: 35,2774           72662                                    S34/35.4
000895: 35,2775           77776                           EXIT
000896: 35,2776           34617                           CAF      V06N59
000897: 35,2777           04575                           TC       VNPOOH
000898: 35,3000           06006                           TC       INTPRET
000899: 35,3001           77650                           GOTO
000900: 35,3002           02370                                    SUBEXIT
000901:


000903:                                                                                                  #  ..... VN1645 .....
000904:
000905:                                                                                                  #  SUBROUTINES USED
000906:                                                                                                  #        P3XORP7X
000907:                                                                                                  #        GET+MGA
000908:                                                                                                  #        BANKCALL
000909:                                                                                                  #        DELAYJOB
000910:                                                                                                  #        COMPTGO
000911:                                                                                                  #        GOFLASHR
000912:                                                                                                  #        GOTOPOOH
000913:                                                                                                  #        FLAGUP
000914:
000915: 35,3003           71220        VN1645             STQ      DLOAD
000916: 35,3004           02370                                    SUBEXIT
000917: 35,3005           33124                                    DP-.01
000918: 35,3006           03626                           STORE    +MGA                                  #  MGA = -.01
000919: 35,3007           71214                           BOFF     DLOAD
000920: 35,3010           01351                                    FINALFLG
000921: 35,3011           73031                                    GET45
000922: 35,3012           33124                                    DP-.01
000923: 35,3013           77615                           DAD
000924: 35,3014           33124                                    DP-.01
000925: 35,3015           03626                           STORE    +MGA                                  #  MGA = -.02
000926: 35,3016           77414                           BOFF     EXIT
000927: 35,3017           01742                                    REFSMFLG
000928: 35,3020           73031                                    GET45
000929: 35,3021           03104                           TC       P3XORP7X
000930: 35,3022           03024                           TC       +2                                    #  P3X
000931: 35,3023           03032                           TC       GET45      +1                         #  P7X
000932: 35,3024           06006                           TC       INTPRET
000933: 35,3025           41575                           VLOAD    PUSH
000934: 35,3026           03646                                    DELVSIN
000935: 35,3027           77624                           CALL                                           #  COMPUTE MGA
000936: 35,3030           10654                                    GET+MGA
000937: 35,3031           77776        GET45              EXIT
000938: 35,3032           03310                           TC       COMPTGO                               #  INITIATE TASK TO UPDATE TTOGO
000939: 35,3033           31770                           CA       SUBEXIT
000940: 35,3034           55766                           TS       QSAVED
000941: 35,3035           35041                           CAF      1SEC
000942: 35,3036           04662                           TC       BANKCALL
000943: 35,3037           01732                           CADR     DELAYJOB
000944: 35,3040           34621                           CAF      V16N45                                #  TRKMKCNT, TTOGO, +MGA
000945: 35,3041           04662                           TC       BANKCALL
000946: 35,3042           20720                           CADR     GOFLASH
000947: 35,3043           03046                           TC       KILCLOCK                              #  TERMINATE
000948: 35,3044           03051                           TC       N45PROC                               #  PROCEED
000949: 35,3045           03061                           TC       CLUPDATE                              #  RECYCLE - RETURN FOR INITIAL COMPUTATION
000950: 35,3046           30005        KILCLOCK           CA       Z
000951: 35,3047           54000                           TS       DISPDEX


000953: 35,3050           04106                           TC       GOTOPOOH
000954: 35,3051           40076        N45PROC            CS       FLAGWRD2
000955: 35,3052           75012                           MASK     BIT6
000956: 35,3053           00006                           EXTEND
000957: 35,3054           13046                           BZF      KILCLOCK                              #  FINALFLG IS SET - FLASH V37 - AWAIT NEW PGM
000958: 35,3055           05412                           TC       PHASCHNG
000959: 35,3056           04024                           OCT      04024
000960: 35,3057           05546                           TC       UPFLAG                                #  SET
000961: 35,3060           00047                           ADRES    FINALFLG                              #  FINALFLG
000962: 35,3061           30005        CLUPDATE           CA       Z
000963: 35,3062           54000                           TS       DISPDEX
000964: 35,3063           05412                           TC       PHASCHNG
000965: 35,3064           04024                           OCT      04024
000966: 35,3065           06006                           TC       INTPRET
000967: 35,3066           52014                           CLEAR    GOTO
000968: 35,3067           00670                                    UPDATFLG
000969: 35,3070           02366                                    QSAVED
000970:


000972:                                                                                                  #  ..... DISPLAYE .....
000973:
000974:                                                                                                  #  SUBROUTINES USED
000975:                                                                                                  #        BANKCALL
000976:                                                                                                  #        GOFLASHR
000977:                                                                                                  #        GOTOPOOH
000978:                                                                                                  #        BLANKET
000979:                                                                                                  #        ENDOFJOB
000980:
000981: 35,3071           00006        DISPLAYE           EXTEND
000982: 35,3072           23340                           QXCH     NORMEX
000983: 35,3073           34615                           CAF      V06N55
000984: 35,3074           04662                           TCR      BANKCALL


001000: 35,3075           21057                           CADR     GOFLASHR
001001: 35,3076           14106                           TCF      GOTOPOOH
001002: 35,3077           01340                           TC       NORMEX
001003: 35,3100           13073                           TCF      -5


001005: 35,3101           35017                           CAF      BIT1                                  #  BLANK R1
001006: 35,3102           05526                           TCR      BLANKET
001007: 35,3103           15217                           TCF      ENDOFJOB
001008:


001010:                                                                                                  #  ..... P3XORP7X .....
001011:
001012: 35,3104           37713        P3XORP7X           CAF      HIGH9
001013: 35,3105           71011                           MASK     MODREG
001014: 35,3106           00006                           EXTEND
001015: 35,3107           13111                           BZF      +2
001016: 35,3110           24002                           INCR     Q
001017: 35,3111           00002                           RETURN
001018:
001019:                                                                                                  #  ..... VNPOOH .....
001020:
001021:                                                                                                  #  SUBROUTINES USED
001022:                                                                                                  #        BANKCALL
001023:                                                                                                  #        GOFLASH
001024:                                                                                                  #        GOTOPOOH
001025:
001026:    4000                                           SETLOC   P30SUBS
001027:    4000                                           BANK
001028:
001029:    4575           00006        VNPOOH             EXTEND
001030:    4576           23767                           QXCH     RTRN
001031:    4577           55765                           TS       VERBNOUN
001032:    4600           34610                           CAF      VNBANK                                #  ***** THIS ROUTINE MUST REMAIN IN
001033:    4601           56004                           XCH      FBANK                                 #        FIXED-FIXED *****
001034:    4602           55063                           TS       TBASE5                                #  * WATCH OUT *
001035:
001036:    4603           31765                           CA       VERBNOUN
001037:    4604           04662                           TCR      BANKCALL
001038:    4605           20720                           CADR     GOFLASH
001039:    4606           14106                           TCF      GOTOPOOH
001040:    4607           14611                           TCF      +2
001041:    4610           04603        VNBANK             TC       -5
001042:
001043:    4611           31063                           CA       TBASE5
001044:    4612           54004                           TS       FBANK
001045:    4613           01767                           TC       RTRN
001046:


001048:                                                                                                  #  ..... CONSTANTS .....
001049:
001050:    4614           01445        V06N37             VN       0637
001051:    4615           01467        V06N55             VN       0655
001052:    4616           01472        V06N58             VN       0658
001053:    4617           01473        V06N59             VN       0659
001054:    4620           01521        V06N81             VN       0681
001055:    4621           04055        V16N45             VN       1645
001056: 35,2000                                           SETLOC   CSI/CDH
001057: 35,2000                                           BANK
001058:
001059: 35,3112           14441 37325  TWOPI              2DEC     6.283185307 B-4
001060: 35,3114           00001 20650  MAX250             2DEC     25         E3
001061: 35,3116           12525 12525  THIRD              2DEC     .333333333
001062: 35,3120           00004 21505  ELEPS              2DEC     .27777777  E-3
001063: 35,3122           00002        DECTWO             OCT      2
001064: 35,3123           77777        DP-.01             OCT      77777                                 #  CONSTANTS
001065: 35,3124           61337                           OCT      61337                                 #  ADJACENT      -.01 FOR MGA DSP
001066: 35,3125           01252 25253  EPSFOUR            2DEC     .0416666666
001067:


001069:                                                                                                  #  ..... INITVEL .....
001070:                                                                                                  #  MOD NO -1                     LOG SECTION - P34-P35, P74-P75
001071:                                                                                                  #  MOD BY WHITE.P                DATE  21NOV67
001072:
001073:                                                                                                  #  FUNCTIONAL DESCRIPTION
001074:                                                                                                  #        THIS SUBROUTINE COMPUTES THE REQUIRED INITIAL VELOCITY VECTOR FOR
001075:                                                                                                  #        A TRAJECTORY OF SPECIFIED TRANSFER TIME BETWEEN SPECIFIED INITIAL
001076:                                                                                                  #        AND TARGET POSITIONS.  THE TRAJECTORY MAY BE EITHER CONIC OR
001077:                                                                                                  #        PRECISION DEPENDING ON AN INPUT PARAMETER (NAMELY, NUMBER OF
001078:                                                                                                  #        OFFSETS).  IN ADDITION, IN THE PRECISION TRAJECTORY CASE, THE
001079:                                                                                                  #        SUBROUTINE ALSO COMPUTES AN OFFSET TARGET VECTOR, TO BE USED
001080:                                                                                                  #        DURING PURE-CONIC CROSS-PRODUCT STEERING.  THE OFFSET TARGET
001081:                                                                                                  #        VECTOR IS THE TERMINAL POSITION VECTOR OF A CONIC TRAJECTORY WHICH
001082:                                                                                                  #        HAS THE SAME INITIAL STATE AS A PRECISION TRAJECTORY WHOSE
001083:                                                                                                  #        TERMINAL POSITION VECTOR IS THE SPECIFIED TARGET VECTOR.
001084:
001085:                                                                                                  #        IN ORDER TO AVOID THE INHERENT SINGULARITIES IN THE 180 DEGREE
001086:                                                                                                  #        TRANSFER CASE WHEN THE (TRUE OR OFFSET) TARGET VECTOR MAY BE
001087:                                                                                                  #        SLIGHTLYOUT OF THE ORBITAL PLANE, THIS SUBROUTINE ROTATES THIS
001088:                                                                                                  #        VECTOR INTO A PLANE DEFINED BY THE INPUT INITIAL POSITION VECTOR
001089:                                                                                                  #        AND ANOTHER INPUT VECTOR (USUALLY THE INITIAL VELOCITY VECTOR),
001090:                                                                                                  #        WHENEVER THE INPUT TARGET VECTOR LIES INSIDE A CONE WHOSE VERTEX
001091:                                                                                                  #        IS THE ORIGIN OF COORDINATES, WHOSE AXIS IS THE 180 DEGREE
001092:                                                                                                  #        TRANSFER DIRECTION, AND WHOSE CONE ANGLE IS SPECIFIED BY THE USER.
001093:
001094:                                                                                                  #        THE LAMBERT SUBROUTINE IS UTILIZED FOR THE CONIC COMPUTATIONS AND
001095:                                                                                                  #        THE COASTING INTEGRATION SUBROUTINE IS UTILIZED FOR THE PRECISION
001096:                                                                                                  #        TRAJECTORY COMPUTATIONS.
001097:
001098:                                                                                                  #  CALLING SEQUENCE
001099:                                                                                                  #        L       CALL
001100:                                                                                                  #        L+1             INITVEL
001101:                                                                                                  #        L+2     (RETURN - ALWAYS)
001102:
001103:                                                                                                  #  INPUT
001104:                                                                                                  #        (1)     RINIT           INITIAL POSITION RADIUS VECTOR
001105:                                                                                                  #        (2)     VINIT           INITIAL POSITION VELOCITY VECTOR
001106:                                                                                                  #        (3)     RTARG           TARGET POSITION RADIUS VECTOR
001107:                                                                                                  #        (4)     DELLT4          DESIRED TIME OF FLIGHT FROM RINIT TO RTARG
001108:                                                                                                  #        (5)     INTIME          TIME OF RINIT
001109:                                                                                                  #        (6)     0D              NUMBER OF ITERATIONS OF LAMBERT/INTEGRVS
001110:                                                                                                  #        (7)     2D              ANGLE TO 180 DEGREES WHEN ROTATION STARTS
001111:                                                                                                  #        (8)     RTX1            -2 FOR EARTH, -10D FOR LUNAR
001112:                                                                                                  #        (9)     RTX2            COORDINATE SYSTEM ORIGIN - 0 FOR EARTH, 2 FOR LUNAR
001113:                                                                                                  #        PUSHLOC SET AT 4D
001114:


001116:                                                                                                  #  OUTPUT
001117:                                                                                                  #        (1)     RTARG           OFFSET TARGET POSITION VECTOR
001118:                                                                                                  #        (2)     VIPRIME         MANEUVER VELOCITY REQUIRED
001119:                                                                                                  #        (3)     VTPRIME         VELOCITY AT TARGET AFTER MANEUVER
001120:                                                                                                  #        (4)     DELVEET3        DELTA VELOCITY REQUIRED FOR MANEUVER
001121:
001122:                                                                                                  #  SUBROUTINES USED
001123:                                                                                                  #        LAMBERT
001124:                                                                                                  #        INTSTALL
001125:                                                                                                  #        INTEGRVS
001126:
001127: 11,2000                                           SETLOC   INTVEL
001128: 11,2000                                           BANK
001129:
001130: 11,2000                                           COUNT    11/INITV
001131: 11,2000           77614        INITVEL            SET                                            #  COGA GUESS NOT AVAILABLE
001132: 11,2001           00475                                    GUESSW
001133: 11,2002           44175        HAVEGUES           VLOAD    STQ
001134: 11,2003           03415                                    RTARG
001135: 11,2004           01340                                    NORMEX
001136: 11,2005           03604                           STORE    RTARG1
001137: 11,2006           46135                           SLOAD    BHIZ
001138: 11,2007           03747                                    RTX2
001139: 11,2010           22022                                    INITVEL1
001140: 11,2011           72575                           VLOAD    VSL2
001141: 11,2012           03570                                    RINIT                                 #  B29
001142: 11,2013           27570                           STOVL    RINIT                                 #  B27
001143: 11,2014           03576                                    VINIT                                 #  B7
001144: 11,2015           77752                           VSL2
001145: 11,2016           27576                           STOVL    VINIT                                 #  B5
001146: 11,2017           03604                                    RTARG1
001147: 11,2020           77752                           VSL2
001148: 11,2021           03604                           STORE    RTARG1
001149:
001150:                                                                                                  #  INITIALIZATION
001151:
001152: 11,2022           71331        INITVEL1           SSP      DLOAD                                 #  SET ITCTR TO -1,LOAD MPAC WITH E4 (PL 2D)
001153: 11,2023           03505                                    ITCTR
001154: 11,2024           77776                                    0          -1
001155: 11,2025           70546                           COSINE   SR1                                   #  CALCULATE COSINE (E4) (+2)
001156: 11,2026           17630                           STODL    COZY4                                 #  SET COZY4 TO COSINE (E4) (PL 0D)
001157: 11,2027           67154                           LXA,2    SXA,2
001158: 11,2030           00154                                    MPAC
001159: 11,2031           02703                                    VTARGTAG                              #  SET VTARGTAG TO 0D (SP)
001160: 11,2032           77775                           VLOAD
001161: 11,2033           03570                                    RINIT
001162: 11,2034           26657                           STOVL    R1VEC                                 #  R1VEC EQ RINIT
001163: 11,2035           03604                                    RTARG1


001165: 11,2036           16665                           STODL    R2VEC                                 #  R2VEC EQ RTARG
001166: 11,2037           03423                                    DELLT4
001167: 11,2040           02673                           STORE    TDESIRED                              #  TDESIRED EQ DELLT4
001168: 11,2041           77201                           SETPD    VLOAD
001169: 11,2042           00001                                    0D                                    #  INITIALIZE PL TO 0D
001170: 11,2043           03570                                    RINIT                                 #  MPAC EQ RINIT (+29)
001171: 11,2044           41456                           UNIT     PUSH                                  #  UNIT(RI) (+1)         (PL 6D)
001172: 11,2045           53435                           VXV      UNIT
001173: 11,2046           03576                                    VINIT                                 #  MPAC EQ UNIT(RI) X VI (+8)
001174: 11,2047           26676                           STOVL    UN
001175: 11,2050           03604                                    RTARG1
001176: 11,2051           50256                           UNIT     DOT                                   #  TEMP=URT.URI (+2)     (PL 0D)
001177: 11,2052           43015                           DAD      CLEAR
001178: 11,2053           03630                                    COZY4
001179: 11,2054           03665                                    NORMSW
001180: 11,2055           03630                           STORE    COZY4
001181: 11,2056           43044        INITVEL2           BPL      SET
001182: 11,2057           22101                                    INITVEL3                              #  UN CALCULATED IN LAMBERT
001183: 11,2060           03465                                    NORMSW
001184:
001185:                                                                                                  #  ROTATE RC INTO YC PLANE - SET UNIT NORMAL TO YC
001186:
001187: 11,2061           41575                           VLOAD    PUSH                                  #                                   (PL 6D)
001188: 11,2062           02665                                    R2VEC                                 #  RC TO 6D (+29)
001189: 11,2063           63246                           ABVAL    PDVL                                  #  RC TO MPAC, ABVAL(RC) (+29) TO OD(PL 2D)
001190: 11,2064           46206                           PUSH     VPROJ                                 #                                   (PL 8D)
001191: 11,2065           02676                                    UN
001192: 11,2066           51352                           VSL2     BVSU
001193: 11,2067           74256                           UNIT     VXSC                                  #                                   (PL 0D)
001194: 11,2070           77772                           VSL1
001195: 11,2071           02665                           STORE    R2VEC
001196: 11,2072           67351                           TLOAD    SLOAD
001197: 11,2073           11563                                    ZEROVEC
001198: 11,2074           03505                                    ITCTR
001199: 11,2075           77244                           BPL      VLOAD
001200: 11,2076           22101                                    INITVEL3
001201: 11,2077           02665                                    R2VEC
001202: 11,2100           03604                           STORE    RTARG1
001203: 11,2101           63345        INITVEL3           DLOAD    PDVL                                  #                                (PL 2D)
001204: 11,2102           27735                                    MUEARTH                               #  POSITIVE VALUE
001205: 11,2103           02665                                    R2VEC
001206: 11,2104           63256                           UNIT     PDVL                                  #  2D = UNIT(R2VEC)              (PL 8D)
001207: 11,2105           02657                                    R1VEC
001208: 11,2106           41456                           UNIT     PUSH                                  #  8D = UNIT(R1VEC)              (PL 14D)
001209: 11,2107           57435                           VXV      VCOMP                                 #  -N = UNIT(R2VEC) X UNIT(R1VEC)
001210: 11,2110           00003                                    2D
001211: 11,2111           77606                           PUSH                                           #                                (PL 20D)
001212: 11,2112           71350                           LXA,1    DLOAD
001213: 11,2113           03745                                    RTX1
001214: 11,2114           00023                                    18D
001215: 11,2115           62040                           BMN      INCR,1


001217: 11,2116           22120                                    +2
001218: 11,2117           77767                           DEC      -8         B-14
001219: 11,2120           67310                           INCR,1   SLOAD
001220: 11,2121           00012                                    10D
001221: 11,2122           00047                                    X1
001222: 11,2123           77230                           BHIZ     VLOAD                                 #                        (PL 14D)
001223: 11,2124           22126                                    +2
001224: 11,2125           41476                           VCOMP    PUSH                                  #                        (PL 20 D)
001225: 11,2126           77775                           VLOAD                                          #                        (PL 14D)
001226: 11,2127           50235                           VXV      DOT                                   #                        (PL 2D)
001227: 11,2130           71244                           BPL      DLOAD                                 #                        (PL 0D)
001228: 11,2131           22133                                    INITVEL4
001229: 11,2132           41476                           DCOMP    PUSH                                  #                        (PL 2D)
001230: 11,2133           67154        INITVEL4           LXA,2    SXA,2
001231: 11,2134           00000                                    0D
001232: 11,2135           02674                                    GEOMSGN
001233:
001234:                                                                                                  #  SET INPUTS UP FOR LAMBERT
001235:
001236: 11,2136           45150                           LXA,1    CALL
001237: 11,2137           03745                                    RTX1
001238:                                                                                                  #   OPERATE THE LAMBERT CONIC ROUTINE (COASTFLT SUBROUTINE)
001239:
001240: 11,2140           25224                                    LAMBERT
001241:
001242:                                                                                                  #        DELETE THRU 4521
001243:                                                                                                  #  ARRIVED AT SOLUTION IS GOOD ENOUGH ACCORDING TO SLIGHTLY WIDER BOUNDS.
001244:
001245: 11,2141           77214                           CLEAR    VLOAD
001246: 11,2142           00675                                    GUESSW
001247: 11,2143           02746                                    VVEC
001248:
001249:                                                                                                  #  STORE CALCULATED INITIAL VELOCITY REQUIRED IN VIPRIME
001250:
001251: 11,2144           17612                           STODL    VIPRIME                               #  INITIAL VELOCITY REQUIRED (+7)
001252:
001253:                                                                                                  #     IF NUMIT IS ZERO, CONTINUE AT INITVELB, OTHERWISE
001254:                                                                                                  #  SET UP INPUTS FOR ENCKE INTEGRATION (INTEGRVS).
001255:
001256: 11,2145           02704                                    VTARGTAG
001257: 11,2146           45030                           BHIZ     CALL
001258: 11,2147           22224                                    INITVEL7
001259: 11,2150           27442                                    INTSTALL
001260: 11,2151           43135                           SLOAD    CLEAR
001261: 11,2152           03747                                    RTX2
001262: 11,2153           00263                                    MOONFLAG
001263: 11,2154           43030                           BHIZ     SET
001264: 11,2155           22157                                    INITVEL5
001265: 11,2156           00063                                    MOONFLAG
001266: 11,2157           77775        INITVEL5           VLOAD
001267: 11,2160           03570                                    RINIT
001268: 11,2161           02657                           STORE    R1VEC


001270: 11,2162           25535                           STOVL    RCV
001271: 11,2163           03612                                    VIPRIME
001272: 11,2164           15543                           STODL    VCV
001273: 11,2165           03503                                    INTIME
001274: 11,2166           01517                           STORE    TET
001275: 11,2167           43015                           DAD      CLEAR
001276: 11,2170           03423                                    DELLT4
001277: 11,2171           01673                                    INTYPFLG
001278: 11,2172           34041                           STCALL   TDEC1
001279: 11,2173           27135                                    INTEGRVS
001280: 11,2174           77775                           VLOAD
001281: 11,2175           00025                                    VATT1
001282: 11,2176           02705                           STORE    VTARGET
001283:
001284:                                                                                                  #  IF ITERATION COUNTER (ITCTR) EQ NO. ITERATIONS (NUMIT), CONTINUE AT
001285:                                                                                                  #  INITVELC, OTHERWISE REITERATE LAMBERT AND ENCKE
001286:
001287: 11,2177           63154                           LXA,2    INCR,2
001288: 11,2200           03504                                    ITCTR
001289: 11,2201           00001                                    1D                                    #  INCREMENT ITCTR
001290: 11,2202           55134                           SXA,2    XSU,2
001291: 11,2203           03504                                    ITCTR
001292: 11,2204           02703                                    VTARGTAG
001293: 11,2205           46135                           SLOAD    BHIZ                                  #  IF SP(MPAC) EQ 0, CONTINUE AT INITVELC
001294: 11,2206           00050                                    X2
001295: 11,2207           22221                                    INITVEL6
001296:
001297:                                                                                                  #  OFFSET CONIC TARGET VECTOR
001298:
001299: 11,2210           52375                           VLOAD    VSU
001300: 11,2211           03604                                    RTARG1
001301: 11,2212           00017                                    RATT1
001302: 11,2213           77655                           VAD
001303: 11,2214           02665                                    R2VEC
001304: 11,2215           16665                           STODL    R2VEC
001305: 11,2216           03630                                    COZY4
001306: 11,2217           77650                           GOTO
001307: 11,2220           22056                                    INITVEL2                              #  CONTINUE ITERATING AT INITVEL2
001308:
001309:                                                                                                  #  COMPUTE THE DELTA VELOCITY
001310:
001311: 11,2221           77775        INITVEL6           VLOAD
001312: 11,2222           02665                                    R2VEC
001313: 11,2223           03604                           STORE    RTARG1
001314: 11,2224           52375        INITVEL7           VLOAD    VSU
001315: 11,2225           03612                                    VIPRIME
001316: 11,2226           03576                                    VINIT
001317: 11,2227           27646                           STOVL    DELVEET3                              #  DELVEET3 = VIPRIME-VINIT (+7)
001318: 11,2230           02705                                    VTARGET
001319: 11,2231           03620                           STORE    VTPRIME
001320: 11,2232           46135                           SLOAD    BHIZ
001321: 11,2233           03747                                    RTX2


001323: 11,2234           22251                                    INITVELX
001324: 11,2235           70575                           VLOAD    VSR2
001325: 11,2236           03620                                    VTPRIME
001326: 11,2237           27620                           STOVL    VTPRIME
001327: 11,2240           03612                                    VIPRIME
001328: 11,2241           77742                           VSR2
001329: 11,2242           27612                           STOVL    VIPRIME
001330: 11,2243           03604                                    RTARG1
001331: 11,2244           77742                           VSR2
001332: 11,2245           27604                           STOVL    RTARG1
001333: 11,2246           03646                                    DELVEET3
001334: 11,2247           77742                           VSR2
001335: 11,2250           03646                           STORE    DELVEET3
001336: 11,2251           77201        INITVELX           SETPD    VLOAD
001337: 11,2252           00001                                    0D
001338: 11,2253           03604                                    RTARG1
001339: 11,2254           37415                           STCALL   RTARG
001340: 11,2255           01340                                    NORMEX
001341:
001342:                                                                                                  #  ..... END OF INITVEL ROUTINE .....
001343:


001345:                                                                                                  #  ..... MIDGIM .....
001346:                                                                                                  #  MOD NO. 0, BY WILLMAN, SUBROUTINE RENDGUID, LOG P34-P35, P74-P75
001347:                                                                                                  #  REVISION 03, 17 FEB 67
001348:
001349:                                                                                                  #  IF THE ACTIVE VEHICLE IS DOING THE COMPUTATION, MIDGIM COMPUTES
001350:                                                                                                  #  THE POSITIVE MIDDLE GIMBAL ANGLE OF THE ACTIVE VEHICLE TO THE INPUT
001351:                                                                                                  #  DELTA VELOCITY VECTOR (0D IN PUSH LIST), OTHERWISE
001352:                                                                                                  #  MIDGIM CONVERTS THE INPUT DELTA VELOCITY VECTOR FROM INERTIAL COORDIN-
001353:                                                                                                  #  ATES TO LOCAL VERTICAL COORDINATES OF THE ACTIVE VEHICLE.
001354:
001355:                                                                                                  #  .. INPUTS ..
001356:                                                                                                  #    NAME     MEANING                                            UNITS/SCALING/MODE
001357:                                                                                                  #    AVFLAG   INT FLAG - 0 IS CSM ACTIVE, 1 IS LEM ACTIVE        BIT
001358:                                                                                                  #    COMPUTER INT FLAG - 0 IS LEM COMPUTER, 1 IS CSM COMPUTER    BIT
001359:                                                                                                  #    RINIT    ACTIVE VEHICLE RADIUS VECTOR                       METERS/CSEC (+7) VT
001360:                                                                                                  #    VINIT    ACTIVE VEHICLE VELOCITY VECTOR                     METERS/CSEC (+7) VT
001361:                                                                                                  #    0D(PL)   ACTIVE VEHICLE DELTA VELOCITY VECTOR               METERS/CSEC (+7) VT
001362:
001363:                                                                                                  #  .. OUTPUTS ..
001364:                                                                                                  #    NAME     MEANING                                            UNITS/SCALING/MODE
001365:                                                                                                  #    +MGA     + MIDDLE GIMBAL ANGLE                              REVOLUTIONS (+0) DP
001366:                                                                                                  #    DELVLVC  DELTA VELOCITY VECTOR IN LV COORD.                 METERS/CSEC (+7) VT
001367:                                                                                                  #    MGLVFLAG INT FLAG - 0 IS +MGA COMPUTED, 1 IS DELVLVC COMP.        -         BIT
001368:
001369:                                                                                                  #  .. CALLING SEQUENCE ..
001370:                                                                                                  #        L       CALL
001371:                                                                                                  #        L+1             MIDGIM
001372:                                                                                                  #        L+2     (RETURN - ALWAYS)
001373:
001374:                                                                                                  #  .. NO SUBROUTINES CALLED ..
001375:
001376:                                                                                                  #  .. DEBRIS - ERASEABLE TEMPORARY USAGE
001377:                                                                                                  #        A,Q,L, PUSH LIST, MPAC.
001378:
001379:                                                                                                  #  .. ALARMS - NONE ..
001380:


001382:                                                                                                  #  MIDDLE GIMBAL ANGLE COMPUTATION.
001383: 04,2000                                           SETLOC   MIDDGIM
001384: 04,2000                                           BANK
001385:
001386: 04,2645                                           COUNT*   $$/MIDG
001387:
001388: 04,2645           20000 00000  HALFREV            2DEC     1          B-1
001389:
001390: 04,2647           43014        MIDGIM             BON      BOFF
001391: 04,2650           01312                                    AVFLAG
001392: 04,2651           10667                                    MIDGIM1
001393: 04,2652           02747                                    COMPUTER
001394: 04,2653           10672                                    GET.LVC
001395:
001396:                                                                                                  #  COMPUTE +MGA IF AVFLAG AND COMPUTER HAVE OPPOSITE VALUES.
001397:
001398: 04,2654           53575        GET+MGA            VLOAD    UNIT                                  #  (PL 0D) V (+7) TO MPAC, UNITIZE UV (+1)
001399: 04,2655           72441                           DOT      SL1                                   #  DOT UV WITH Y(STABLE MEMBER) AND RESCALE
001400: 04,2656           01744                                    REFSMMAT   +6                         #  FROM +2 TO +1 FOR ASIN ROUTINE
001401: 04,2657           51136                           ARCSIN   BPL
001402: 04,2660           10664                                    SETMGA
001403: 04,2661           43215                           DAD      DAD                                   #  CONVERT -MGA TO +MGA BY
001404: 04,2662           10646                                    HALFREV                               #  ADDING ONE REVOLUTION
001405: 04,2663           10646                                    HALFREV
001406: 04,2664           03626        SETMGA             STORE    +MGA
001407: 04,2665           43414                           CLR      RVQ                                   #  CLEAR MGLVFLAG TO INDICATE +MGA CALC
001408: 04,2666           02675                                    MGLVFLAG                              #  AND EXIT
001409:
001410: 04,2667           77614        MIDGIM1            BOFF
001411: 04,2670           02747                                    COMPUTER
001412: 04,2671           10654                                    GET+MGA
001413:
001414:                                                                                                  #  COMPUTE DELVLVC IF AVFLAG AND COMPUTER HAVE SAME VALUES.
001415:
001416: 04,2672           53575        GET.LVC            VLOAD    UNIT                                  #  (PL 6D) R (+29) IN MPAC, UNITIZE UR
001417: 04,2673           03570                                    RINIT
001418: 04,2674           77676                           VCOMP                                          #  U(-R)
001419: 04,2675           00023                           STORE    18D                                   #  U(-R) TO 18D
001420: 04,2676           53435                           VXV      UNIT                                  #  U(-R)*V EQ V*U(R), U(V*R)
001421: 04,2677           03576                                    VINIT
001422: 04,2700           00015                           STORE    12D                                   #  U(V*R) TO 12D
001423: 04,2701           53435                           VXV      UNIT                                  #  U(V*R)*U(-R), U((V*R)*(-R))
001424: 04,2702           00023                                    18D
001425: 04,2703           24007                           STOVL    6D                                    #  TRANSFORMATION MATRIX IS IN 6D (+1)
001426: 04,2704           00001                                    0D                                    #  DELTA V (+7) IN 0D
001427: 04,2705           76521                           MXV      VSL1                                  #  CONVERT FROM INER COOR TO LV COOR (+8)
001428: 04,2706           00007                                    6D                                    #  AND SCALE +7 IN MPAC
001429: 04,2707           03405                           STORE    DELVLVC                               #  STORE IN DELVLVC (+7)
001430: 04,2710           43414                           SET      RVQ                                   #  SET MGLVFLAG TO INDICATE LVC CALC
001431: 04,2711           02475                                    MGLVFLAG                              #  AND EXIT
001432:
001433:                                                                                                  #  ..... END OF MIDGIM ROUTINE .....
001434:


001436: 04,2712           77160        SELECTMU           AXC,1    AXT,2
001437: 04,2713           00002                                    2D
001438: 04,2714           00000                                    0D
001439: 04,2715           77614                           BOFF
001440: 04,2716           04343                                    CMOONFLG
001441: 04,2717           10723                                    SETMUER
001442: 04,2720           77160                           AXC,1    AXT,2
001443: 04,2721           00012                                    10D
001444: 04,2722           00002                                    2D
001445: 04,2723           66143        SETMUER            DLOAD*   SXA,1
001446: 04,2724           11741                                    MUTABLE    +4,1
001447: 04,2725           03745                                    RTX1
001448: 04,2726           23752                           STODL*   RTSR1/MU
001449: 04,2727           11733                                    MUTABLE    -2,1
001450: 04,2730           54214                           BOFF     SR
001451: 04,2731           04343                                    CMOONFLG
001452: 04,2732           10734                                    RTRNMU
001453: 04,2733           20607                                    6D
001454: 04,2734           03750        RTRNMU             STORE    RTMU
001455: 04,2735           43134                           SXA,2    CLEAR
001456: 04,2736           03746                                    RTX2
001457: 04,2737           01271                                    FINALFLG
001458: 04,2740           77650                           GOTO
001459: 04,2741           73003                                    VN1645
001460:


001462:                                                                                                  #  ..... PERIAPO .....
001463:                                                                                                  #  MOD NO -1                     LOG SECTION - P34-P35, P74-P75
001464:                                                                                                  #  MOD BY WHITE.P                DATE 18JAN68
001465:
001466:                                                                                                  #  FUNCTIONAL DESCRIPTION
001467:
001468:                                                                                                  #        THIS SUBROUTINE COMPUTES THE TWO BODY APOCENTER AND PERICENTER
001469:                                                                                                  #        ALTITUDES GIVEN THE POSITION AND VELOCITY VECTORS FOR A POINT ON
001470:                                                                                                  #        THE TRAJECTORY AND THE PRIMARY BODY.
001471:
001472:                                                                                                  #        SETRAD IS CALLED TO DETERMINE THE RADIUS OF THE PRIMARY BODY.
001473:
001474:                                                                                                  #        APSIDES IS CALLED TO SOLVE FOR THE TWO BODY RADII OF APOCENTER AND
001475:                                                                                                  #        PERICENTER AND THE ECCENTRICITY OF THE TRAJECTORY.
001476:
001477:                                                                                                  #  CALLING SEQUENCE
001478:                                                                                                  #        L       CALL
001479:                                                                                                  #        L+1             PERIAPO
001480:                                                                                                  #        L+2     (RETURN - ALWAYS)
001481:
001482:                                                                                                  #  INPUT
001483:                                                                                                  #        (1)     RVEC    POSITION VECTOR IN METERS
001484:                                                                                                  #                        SCALE FACTOR - EARTH +29, MOON +27
001485:                                                                                                  #        (2)     VVEC    VELOCITY VECTOR IN METERS/CENTISECOND
001486:                                                                                                  #                        SCALE FACTOR - EARTH +7, MOON +5
001487:                                                                                                  #        (3)     X1      PRIMARY BODY INDICATOR
001488:                                                                                                  #                        EARTH -2, MOON -10
001489:
001490:                                                                                                  #  OUTPUT
001491:                                                                                                  #        (1)     2D      APOCENTER RADIUS IN METERS
001492:                                                                                                  #                        SCALE FACTOR - EARTH +29, MOON +27
001493:                                                                                                  #        (2)     4D      APOCENTER ALTITUDE IN METERS
001494:                                                                                                  #                        SCALE FACTOR - EARTH +29, MOON P27
001495:                                                                                                  #        (3)     6D      PERICENTER RADIUS IN METERS
001496:                                                                                                  #                        SCALE FACTOR - EARTH +29, MOON +27
001497:                                                                                                  #        (4)     8D      PERICENTER ALTITUDE IN METERS
001498:                                                                                                  #                        SCALE FACTOR - EARTH +29, MOON +27
001499:                                                                                                  #        (5)     ECC     ECCENTRICITY OF CONIC TRAJECTORY
001500:                                                                                                  #                        SCALE FACTOR - +3
001501:                                                                                                  #        (6)     XXXALT  RADIUS OF THE PRIMARY BODY IN METERS
001502:                                                                                                  #                        SCALE FACTOR - EARTH +29, MOON +27
001503:                                                                                                  #        (7)     PUSHLOC EQUALS 10D
001504:
001505:                                                                                                  #  SUBROUTINES USED
001506:                                                                                                  #        SETRAD


001508:                                                                                                  #        APSIDES
001509:
001510: 22,2000                                           SETLOC   APOPERI
001511: 22,2000                                           BANK
001512:
001513: 22,3151                                           COUNT*   $$/PERAP
001514:
001515: 22,3151           00302 17755  RPAD               2DEC     6373338    B-29                       #  STANDARD RADIUS OF PAD 37-B.
001516:                                                                                                  #  = 20 909 901.57 FT
001517:
001518: 22,3153           53754        PERIAPO1           LXA,2    VSR*
001519: 22,3154           03746                                    RTX2
001520: 22,3155           57176                                    0,2
001521: 22,3156           26746                           STOVL    VVEC
001522: 22,3157           53750                           LXA,1    VSR*
001523: 22,3160           03745                                    RTX1
001524: 22,3161           57176                                    0,2
001525: 22,3162           02657                           STORE    RVEC
001526: 22,3163           45020        PERIAPO            STQ      CALL
001527: 22,3164           01340                                    NORMEX
001528: 22,3165           45201                                    SETRAD
001529: 22,3166           37456                           STCALL   XXXALT
001530: 22,3167           25703                                    APSIDES
001531: 22,3170           41401                           SETPD    PUSH                                  #  2D = APOCENTER RADIUS         B29 OR B27
001532: 22,3171           00003                                    2D
001533: 22,3172           65225                           DSU      PDDL                                  #  4D = APOGEE ALTITUDE          B29 OR B27
001534: 22,3173           03456                                    XXXALT
001535: 22,3174           00001                                    0D
001536: 22,3175           45206                           PUSH     DSU                                   #  6D = PERICENTER RADIUS        B29 OR B27
001537: 22,3176           03456                                    XXXALT
001538: 22,3177           52006                           PUSH     GOTO                                  #  8D = PERIGEE ALTITUDE         B29 OR B27
001539: 22,3200           01340                                    NORMEX


001541:                                                                                                  #  SETRAD
001542: 22,3201           41545        SETRAD             DLOAD    PUSH
001543: 22,3202           05152                                    RPAD
001544: 22,3203           63130                           SXA,1    INCR,2
001545: 22,3204           00047                                    X2
001546: 22,3205           00002                                    2D
001547: 22,3206           46135                           SLOAD    BHIZ
001548: 22,3207           00050                                    X2
001549: 22,3210           45214                                    SETRADX
001550: 22,3211           51575                           VLOAD    ABVAL
001551: 22,3212           02026                                    RLS
001552: 22,3213           77725                           PDDL
001553: 22,3214           43545        SETRADX            DLOAD    RVQ
001554:


001556:                                                                                                  #  PRECSET
001557: 22,3215           77620        PRECSET            STQ
001558: 22,3216           01340                                    NORMEX
001559: 22,3217           36635                           STCALL   TDEC2
001560: 22,3220           27105                                    LEMPREC
001561: 22,3221           77624                           CALL
001562: 22,3222           45233                                    LEMSTORE
001563: 22,3223           77745                           DLOAD
001564: 22,3224           02635                                    TDEC2
001565: 22,3225           34041                           STCALL   TDEC1
001566: 22,3226           27071                                    CSMPREC
001567: 22,3227           77624                           CALL
001568: 22,3230           45243                                    CSMSTORE
001569: 22,3231           77650                           GOTO
001570: 22,3232           01340                                    NORMEX
001571: 22,3233           43175        LEMSTORE           VLOAD    BOFF
001572: 22,3234           00001                                    RATT
001573: 22,3235           01352                                    AVFLAG
001574: 22,3236           45247                                    PASSIVE
001575: 22,3237           27540        ACTIVE             STOVL    RACT3
001576: 22,3240           00007                                    VATT
001577: 22,3241           03546                           STORE    VACT3
001578: 22,3242           77616                           RVQ
001579: 22,3243           43175        CSMSTORE           VLOAD    BOFF
001580: 22,3244           00001                                    RATT
001581: 22,3245           01352                                    AVFLAG
001582: 22,3246           45237                                    ACTIVE
001583: 22,3247           27554        PASSIVE            STOVL    RPASS3
001584: 22,3250           00007                                    VATT
001585: 22,3251           03562                           STORE    VPASS3
001586: 22,3252           77616                           RVQ
001587:


001589:                                                                                                  #  VECSHIFT
001590: 22,3253           53754        VECSHIFT           LXA,2    VSR*
001591: 22,3254           03746                                    RTX2
001592: 22,3255           57176                                    0,2
001593: 22,3256           63350                           LXA,1    PDVL
001594: 22,3257           03745                                    RTX1
001595: 22,3260           63257                           VSR*     PDVL
001596: 22,3261           57176                                    0,2
001597: 22,3262           77616                           RVQ
001598:


001600:                                                                                                  #  SHIFTR1
001601: 22,3263           53754        SHIFTR1            LXA,2    SL*
001602: 22,3264           03746                                    RTX2
001603: 22,3265           57576                                    0,2
001604: 22,3266           77616                           RVQ
001605:


001607:                                                                                                  #  PROGRAM DESCRIPTION
001608:
001609:                                                                                                  #  SUBROUTINE NAME       R36     OUT-OF-PLANE RENDEZVOUS ROUTINE
001610:                                                                                                  #  MOD NO. 2             DATE 2 JANUARY 1969
001611:                                                                                                  #  MOD BY A.W.BANCROFT   LOG SECTION EXTENDED VERBS
001612:
001613:                                                                                                  #  FUNCTIONAL DESCRIPTION
001614:
001615:                                                                                                  #  TO DISPLAY AT ASTRONAUT REQUEST LGC CALCULATED RENDEZVOUS
001616:                                                                                                  #  OUT-OF-PLANE PARAMETERS (Y, YDOT, PSI).  (REQUESTED BY DSKY).
001617:
001618:                                                                                                  #  CALLING SEQUENCE
001619:                                                                                                  #        ASTRONAUT REQUEST THROUGH DSKY V 90 E
001620:
001621:                                                                                                  #  SUBROUTINES CALLED
001622:                                                                                                  #        EXDSPRET
001623:                                                                                                  #        GOMARKF
001624:                                                                                                  #        CSMPREC
001625:                                                                                                  #        LEMPREC
001626:                                                                                                  #        SGNAGREE
001627:                                                                                                  #        LOADTIME
001628:
001629:                                                                                                  #  NORMAL EXIT MODES
001630:                                                                                                  #        ASTRONAUT REQUEST THROUGH DSKY TO TERMINATE PROGRAM V 34 E
001631:
001632:                                                                                                  #  ALARM OR ABORT EXIT MODES
001633:                                                                                                  #        NONE
001634:
001635:                                                                                                  #  OUTPUT
001636:                                                                                                  #        DECIMAL DISPLAY OF TIME, Y, YDOT AND PSI
001637:
001638:                                                                                                  #        DISPLAYED VALUES Y, YDOT, AND PSI, ARE STORED IN ERASABLE
001639:                                                                                                  #        REGISTERS RANGE, RRATE AND RTHETA RESPECTIVELY.
001640:
001641:                                                                                                  #  ERASABLE INITIALIZATION REQUIRED
001642:                                                                                                  #        CSM AND LEM STATE VECTORS
001643:
001644:                                                                                                  #  DEBRIS
001645:                                                                                                  #        CENTRALS A,Q,L
001646:                                                                                                  #        OTHER THOSE USED BY THE ABOVE LISTED SUBROUTINES
001647:
001648: 20,2164                                           BANK     20
001649: 20,2000                                           SETLOC   R36CM
001650: 20,2000                                           BANK


001652: 20,2164  E4,1726                                  EBANK=   RPASS36
001653:
001654: 20,2164  41,3725                                  SBANK=   R36A
001655: 20,2164                                           COUNT*   $$/R36
001656:
001657: 20,2164           35016        R36                CAF      TWO
001658: 20,2165           55051                           TS       OPTIONX
001659: 20,2166           35017                           CAF      ONE
001660: 20,2167           55052                           TS       OPTIONX    +1
001661: 20,2170           32200                           CAF      OPTION36                              #  V 04 N 12
001662: 20,2171           04662                           TC       BANKCALL
001663: 20,2172           20561                           CADR     GOXDSPF
001664: 20,2173           05534                           TC       ENDEXT                                #  TERMINATE
001665: 20,2174           02176                           TC       +2                                    #  PROCEED
001666: 20,2175           02170                           TC       -5                                    #  R2 LOADED VIA DSKY
001667: 20,2176           04701                           TC       POSTJUMP
001668: 20,2177           63725                           CADR     R36A
001669:
001670: 20,2200           01014        OPTION36           VN       0412
001671:
001672: 41,2000                                           SETLOC   R36LM
001673: 41,2000                                           BANK
001674:
001675: 41,3725           22007        R36A               ZL
001676: 41,3726           35021                           CAF      ZERO                                  #  SET TIME OF EVENT TO ZERO FOR FIRST
001677: 41,3727           53052                           DXCH     DSPTEMX                               #  DISPLAY
001678: 41,3730           23742                           LXCH     OPTIONY                               #  SAVE VEH. OPTION
001679: 41,3731           33773        R36P3              CAF      V06N16N
001680: 41,3732           04662                           TC       BANKCALL
001681: 41,3733           20561                           CADR     GOMARKF
001682: 41,3734           15534                           TCF      ENDEXT                                #  TERMINATE
001683: 41,3735           13737                           TCF      +2                                    #  PROCEED
001684: 41,3736           13731                           TCF      -5                                    #  RECYCLE FOR ASTRONAUT INPUT TIME
001685: 41,3737           53052                           DXCH     DSPTEMX
001686: 41,3740           00006                           EXTEND
001687: 41,3741           13762                           BZF      LREGCHK                               #  A-REG ZERO GOTO CHECK L-REG FOR ZERO
001688: 41,3742           52155        ASTROTIM           DXCH     MPAC                                  #  A-REG NON-ZERO, TIME = ASTRO INPUT TIME
001689: 41,3743           06006                           TC       INTPRET
001690: 41,3744           52034                           RTB      GOTO
001691: 41,3745           45716                                    DPMODE
001692: 41,3746           65521                                    R36INT
001693:
001694: 42,2000                                           SETLOC   R36LM1
001695: 42,2000                                           BANK
001696:
001697: 42,3521           00041        R36INT             STORE    TDEC1
001698: 42,3522           70535                           SLOAD    SR1
001699: 42,3523           02343                                    OPTIONY
001700: 42,3524           45030                           BHIZ     CALL
001701: 42,3525           65531                                    R36PROG2                              #  FOR CSM DISPLAY


001703: 42,3526           27071                                    THISPREC                              #  FOR LEM DISPLAY
001704: 42,3527           77650                           GOTO
001705: 42,3530           65533                                    R36PROG3
001706: 42,3531           77624        R36PROG2           CALL
001707: 42,3532           27105                                    OTHPREC
001708: 42,3533           63375        R36PROG3           VLOAD    PDVL
001709: 42,3534           00007                                    VATT
001710: 42,3535           00001                                    RATT                                  #  -
001711: 42,3536           02327                           STORE    RPASS36                               #  R
001712: 42,3537           63256                           UNIT     PDVL                                  #   P
001713: 42,3540           53435                           VXV      UNIT                                  #  -
001714: 42,3541           77626                           STADR
001715: 42,3542           61442                           STODL    UNP36                                 #  U
001716: 42,3543           00015                                    TAT
001717: 42,3544           00041                           STORE    TDEC1
001718: 42,3545           70535                           SLOAD    SR1
001719: 42,3546           02343                                    OPTIONY
001720: 42,3547           45030                           BHIZ     CALL
001721: 42,3550           65554                                    R36PROG4                              #  FOR CSM DISPLAY
001722: 42,3551           27105                                    OTHPREC                               #  FOR LEM DISPLAY
001723: 42,3552           77650                           GOTO
001724: 42,3553           65556                                    R36PROG5
001725: 42,3554           77624        R36PROG4           CALL
001726: 42,3555           27071                                    THISPREC
001727: 42,3556           63375        R36PROG5           VLOAD    PDVL                                  #                        -
001728: 42,3557           00007                                    VATT                                  #  VELOCITY VECTOR       V       00D
001729: 42,3560           00001                                    RATT                                  #                         A
001730: 42,3561           77725                           PDDL
001731: 42,3562           00015                                    TAT                                   #  SAVE TIME IN LOCATION 30D FOR REDISPLAY
001732: 42,3563           24037                           STOVL    30D                                   #                   -
001733: 42,3564           41406                           PUSH     PUSH                                  #  POSITION VECTOR  R   IN  06D AND 12D
001734: 42,3565           63245                           BVSU     PDVL                                  #                    A  -   -
001735: 42,3566           02327                                    RPASS36                               #  LINE OF SIGHT VECTOR R - R       12D
001736: 42,3567           72441                           DOT      SL1                                   #                        P   A
001737: 42,3570           02335                                    UNP36                                 #      -   -
001738: 42,3571           26321                           STOVL    RANGE                                 #  Y = U . R
001739: 42,3572           00001                                    00D                                   #           A
001740: 42,3573           72441                           DOT      SL1
001741: 42,3574           02335                                    UNP36                                 #  .   -   -
001742: 42,3575           26323                           STOVL    RRATE                                 #  Y = U . V
001743: 42,3576           00007                                    06D                                   #  -        A  -
001744: 42,3577           41456                           UNIT     PUSH                                  #  U  = UNIT ( R  )              18D
001745: 42,3600           47235                           VXV      VXV                                   #   RA          A
001746: 42,3601           00001                                    00D                                   #   -    -     -     -
001747: 42,3602           00023                                    18D                                   #  (U  X V ) X U   = U
001748: 42,3603           53552                           VSL2     UNIT                                  #    RA   A     RA    A
001749: 42,3604           52056                           UNIT     GOTO
001750: 42,3605           61600                                    R36B
001751:
001752: 40,2000                                           SETLOC   R36CM1


001754: 40,2000                                           BANK
001755:
001756: 40,3600           24001        R36B               STOVL    00D                                   #  UNIT HORIZONTAL IN FORWARD DIR. 00D
001757: 40,3601           00023                                    18D
001758: 40,3602           74241                           DOT      VXSC                                  #  -
001759: 40,3603           00015                                    12D                                   #  U
001760: 40,3604           77752                           VSL2                                           #   L
001761: 40,3605           53445                           BVSU     UNIT
001762: 40,3606           77656                           UNIT
001763: 40,3607           50206                           PUSH     DOT                                   #  LOS PROJECTED INTO HORIZONTAL  12D
001764: 40,3610           00001                                    00D                                   #  PLANE
001765: 40,3611           65552                           SL1      ARCCOS                                #               -   -
001766: 40,3612           26325                           STOVL    RTHETA                                #  PSI = ARCCOS(U . U )
001767: 40,3613           50235                           VXV      DOT                                   #                A   L
001768: 40,3614           00001                                    00D
001769: 40,3615           71244                           BPL      DLOAD
001770: 40,3616           63747                                    R36TAG2
001771: 40,3617           15343                                    DPPOSMAX
001772: 40,3620           77625                           DSU
001773: 40,3621           02325                                    RTHETA
001774: 40,3622           36325                           STCALL   RTHETA
001775: 40,3623           63747                                    R36TAG2
001776:
001777: 41,2000                                           SETLOC   R36LM
001778: 41,2000                                           BANK
001779:
001780: 41,3747           47145        R36TAG2            DLOAD    RTB
001781: 41,3750           00037                                    30D
001782: 41,3751           45544                                    SGNAGREE
001783: 41,3752           01052                           STORE    DSPTEMX
001784: 41,3753           77776                           EXIT
001785: 41,3754           33774                           CAF      V06N90N                               #  DISPLAY Y, YDOT, AND PSI
001786: 41,3755           04662                           TC       BANKCALL
001787: 41,3756           20561                           CADR     GOMARKF
001788: 41,3757           15534                           TCF      ENDEXT                                #  TERMINATE
001789: 41,3760           15534                           TCF      ENDEXT                                #  PROCEED, END OF PROGRAM
001790: 41,3761           13731                           TCF      R36P3                                 #  REDISPLAY OUTPUT
001791: 41,3762           56001        LREGCHK            XCH      L
001792: 41,3763           00006                           EXTEND
001793: 41,3764           13767                           BZF      ENTTIM2                               #  L-REG ZERO, SET TIME = PRESENT TIME
001794: 41,3765           56001                           XCH      L                                     #  L-REG NON ZERO, TIME = ASTRO INPUT TIME
001795: 41,3766           13742                           TCF      ASTROTIM
001796: 41,3767           06006        ENTTIM2            TC       INTPRET
001797: 41,3770           52034                           RTB      GOTO
001798: 41,3771           45510                                    LOADTIME
001799: 41,3772           65521                                    R36INT
001800: 41,3773           01420        V06N16N            VN       00616
001801: 41,3774           01532        V06N90N            VN       00690
001802: 41,3775  30,2000                                  SBANK=   LOWSUPER

End of include-file P34-P35,_P74-P75.agc.  Parent file is MAIN.agc


