
Source Code


000002:                                                                                                  ## Copyright:   Public domain.
000003:                                                                                                  ## Filename:    P34-P35,_P74-P75.agc
000004:                                                                                                  ## Purpose:     A section of Comanche revision 044.
000005:                                                                                                  ##              It is part of the reconstructed source code for the
000006:                                                                                                  ##              original release of the flight software for the Command
000007:                                                                                                  ##              Module's (CM) Apollo Guidance Computer (AGC) for Apollo 10.
000008:                                                                                                  ##              The code has been recreated from a copy of Comanche 055. It
000009:                                                                                                  ##              has been adapted such that the resulting bugger words
000010:                                                                                                  ##              exactly match those specified for Comanche 44 in NASA drawing
000011:                                                                                                  ##              2021153D, which gives relatively high confidence that the
000012:                                                                                                  ##              reconstruction is correct.
000013:                                                                                                  ## Assembler:   yaYUL
000014:                                                                                                  ## Contact:     Ron Burkey <info@sandroid.org>.
000015:                                                                                                  ## Website:     www.ibiblio.org/apollo/index.html
000016:                                                                                                  ## Mod history: 2020-12-03 MAS  Created from Comanche 51.
000017:                                                                                                  ##              2020-12-04 MAS  Removed all code related to NN, restored
000018:                                                                                                  ##                              DISPLAYE to its C249 behavior, and moved
000019:                                                                                                  ##                              S34/35.1 back to bank 35.
000020:                                                                                                  ##              2020-12-12 RSB  Added justifying annotations for Mike's
000021:                                                                                                  ##                              reconstruction steps.
000022:                                                                                                  ##              2020-12-13 RSB  Incorporated feedback about the annotations.
000023:


000025:                                                                                                  #  TRANSFER PHASE INITIATION (TPI) PROGRAMS (P34 AND P74)
000026:                                                                                                  #  MOD NO -1                     LOG SECTION - P32-P35, P72-P75
000027:                                                                                                  #  MOD BY WHITE.P                DATE 1JUNE67
000028:
000029:                                                                                                  #  PURPOSE
000030:                                                                                                  #        (1)     TO CALCULATE THE REQUIRED DELTA V AND OTHER INITIAL CONDITIONS
000031:                                                                                                  #                REQUIRED BY THE ACTIVE VEHICLE FOR EXECUTION OF THE TRANSFER
000032:                                                                                                  #                PHASE INITIATION (TPI) MANEUVER, GIVEN -
000033:                                                                                                  #                (A)     TIME OF IGNITION TIG (TPI) OR THE ELEVATION ANGLE (E) OF
000034:                                                                                                  #                        THE ACTIVE/PASSIVE VEHICLE LOS AT TIG (TPI).
000035:                                                                                                  #                (B)     CENTRAL ANGLE OF TRANSFER (CENTANG) FROM TIG (TPI) TO
000036:                                                                                                  #                        INTERCEPT TIME (TIG (TPF)).
000037:                                                                                                  #        (2)     TO CALCULATE TIG (TPI) GIVEN E OR E GIVEN TIG (TPI).
000038:                                                                                                  #        (3)     TO CALCULATE THESE PARAMETERS BASED UPON MANEUVER DATA
000039:                                                                                                  #                APPROVED AND KEYED INTO THE DSKY BY THE ASTRONAUT.
000040:                                                                                                  #        (4)     TO DISPLAY TO THE ASTRONAUT AND THE GROUND CERTAIN DEPENDENT
000041:                                                                                                  #                VARIABLES ASSOCIATED WITH THE MANEUVER FOR APPROVAL BY THE
000042:                                                                                                  #                ASTRONAUT/GROUND.
000043:                                                                                                  #        (5)     TO STORE THE TPI TARGET PARAMETERS FOR USE BY THE DESIRED
000044:                                                                                                  #                THRUSTING PROGRAM.
000045:
000046:                                                                                                  #  ASSUMPTIONS
000047:                                                                                                  #        (1)     LM ONLY - THIS PROGRAM IS BASED UPON PREVIOUS COMPLETION OF
000048:                                                                                                  #                THE CONSTANT DELTA ALTITUDE (CDH) PROGRAM (P33/P73).
000049:                                                                                                  #                THEREFORE -
000050:                                                                                                  #                (A)     AT A SELECTED TPI TIME (NOW IN STORAGE) THE LINE OF SIGHT
000051:                                                                                                  #                        BETWEEN THE ACTIVE AND PASSIVE VEHICLES WAS SELECTED TO BE
000052:                                                                                                  #                        A PRESCRIBED ANGLE (E) (NOW IN STORAGE) FROM THE
000053:                                                                                                  #                        HORIZONTAL PLANE DEFINED BY THE ACTIVE VEHICLE POSITION.
000054:                                                                                                  #                (B)     THE TIME BETWEEN CDH IGNITION AND TPI IGNITION WAS
000055:                                                                                                  #                        COMPUTED TO BE GREATER THAN 10 MINUTES.
000056:                                                                                                  #                (C)     THE VARIATION OF THE ALTITUDE DIFFERENCE BETWEEN THE
000057:                                                                                                  #                        ORBITS WAS MINIMIZED.
000058:                                                                                                  #                (D)     THE PERICENTER ALTITUDES OF ORBITS FOLLOWING CSI AND
000059:                                                                                                  #                        CDH WERE COMPUTED TO BE GREATER THAN 35,000 FT FOR LUNAR


000061:                                                                                                  #                        ORBIT OR 85 NM FOR EARTH ORBIT.
000062:                                                                                                  #                (E)     THE CSI AND CDH MANEUVERS WERE ASSUMED TO BE PARALLEL TO
000063:                                                                                                  #                        THE PLANE OF THE PASSIVE VEHICLE ORBIT.  HOWEVER, CREW
000064:                                                                                                  #                        MODIFICATION OF DELTA V (LV) COMPONENTS MAY HAVE RESULTED
000065:                                                                                                  #                        IN AN OUT-OF-PLANE MANEUVER.
000066:                                                                                                  #        (2)     STATE VECTOR UPDATED BY P27 ARE DISALLOWED DURING AUTOMATIC
000067:                                                                                                  #                STATE VECTOR UPDATING INITIATED BY P20 (SEE ASSUMPTION (4)).
000068:                                                                                                  #        (3)     THIS PROGRAM MUST BE DONE OVER A TRACKING STATION FOR REAL
000069:                                                                                                  #                TIME GROUND PARTICIPATION IN DATA INPUT AND OUTPUT.  COMPUTED
000070:                                                                                                  #                VARIABLES MAY BE STORED FOR LATER VERIFICATION BY THE GROUND.
000071:                                                                                                  #                THESE STORAGE CAPABILITIES ARE LIMITED ONLY TO THE PARAMETERS
000072:                                                                                                  #                FOR ONE THRUSTING MANEUVER AT A TIME EXCEPT FOR CONCENTRIC
000073:                                                                                                  #                FLIGHT PLAN MANEUVER SEQUENCES.
000074:                                                                                                  #        (4)     THE RENDEZVOUS RADAR MAY OR MAY NOT BE USED TO UPDATE THE LM
000075:                                                                                                  #                OR CSM STATE VECTORS FOR THIS PROGRAM.  IF RADAR USE IS
000076:                                                                                                  #                DESIRED THE RADAR WAS TURNED ON AND LOCKED ON THE CSM BY
000077:                                                                                                  #                PREVIOUS SELECTION OF P20.  RADAR SIGHTING MARKS WILL BE MADE
000078:                                                                                                  #                AUTOMATICALLY APPROXIMATELY ONCE A MINUTE WHEN ENABLED BY THE
000079:                                                                                                  #                TRACK AND UPDATE FLAGS (SEE P20).  THE RENDEZVOUS TRACKING
000080:                                                                                                  #                MARK COUNTER IS ZEROED BY THE SELECTION OF P20 AND AFTER EACH
000081:                                                                                                  #                THRUSTING MANEUVER.
000082:                                                                                                  #        (5)     THE ISS NEED NOT BE ON TO COMPLETE THIS PROGRAM.
000083:                                                                                                  #        (6)     THE OPERATION OF THE PROGRAM UTILIZES THE FOLLOWING FLAGS -
000084:
000085:                                                                                                  #                        ACTIVE VEHICLE FLAG - DESIGNATES THE VEHICLE WHICH IS
000086:                                                                                                  #                        DOING RENDEZVOUS THRUSTING MANEUVERS TO THE PROGRAM WHICH
000087:                                                                                                  #                        CALCULATES THE MANEUVER PARAMETERS.  SET AT THE START OF
000088:                                                                                                  #                        EACH RENDEZVOUS PRE-THRUSTING PROGRAM.
000089:
000090:                                                                                                  #                        FINAL FLAG - SELECTS FINAL PROGRAM DISPLAYS AFTER CREW HAS
000091:                                                                                                  #                        SELECTED THE FINAL MANEUVER COMPUTATION CYCLE.
000092:
000093:                                                                                                  #                        EXTERNAL DELTA V FLAG - DESIGNATES THE TYPE OF STEERING
000094:                                                                                                  #                        REQUIRED FOR EXECUTION OF THIS MANEUVER BY THE THRUSTING
000095:                                                                                                  #                        PROGRAM SELECTED AFTER COMPLETION OF THIS PROGRAM.
000096:
000097:                                                                                                  #        (7)     ONCE THE PARAMETWRS REQUIRED FOR COMPUTION OF THE MANEUVER
000098:                                                                                                  #                HAVE BEEN COMPLETELY SPECIFIED, THE VALUE OF THE ACTIVE
000099:                                                                                                  #                VEHICLE CENTRAL ANGLE OF TRANSFER IS COMPUTED AND STORED.
000100:                                                                                                  #                THIS NUMBER WILL BE AVAILABLE FOR DISPLAY TO THE ASTRONAUT
000101:                                                                                                  #                THROUGH THE USE OF V06N52.
000102:
000103:                                                                                                  #                THE ASTRONAUT WILL CALL THIS DISPLAY TO VERIFY THAT THE
000104:                                                                                                  #                CENTRAL ANGLE OF TRANSFER OF THE ACTIVE VEHICLE IS NOT WITHIN


000106:                                                                                                  #                170 TO 190 DEGREES.  IF THE ANGLE IS WITHIN THIS ZONE THE
000107:                                                                                                  #                ASTRONAUT SHOULD REASSESS THE INPUT TARGETING PARAMETERS BASED
000108:                                                                                                  #                UPON DELTA V AND EXPECTED MANEUVER TIME.
000109:                                                                                                  #        (8)     THIS PROGRAM IS SELECTED BY THE ASTRONAUT BY DSKY ENTRY -
000110:
000111:                                                                                                  #                        P34 IF THIS VEHICLE IS ACTIVE VEHICLE.
000112:
000113:                                                                                                  #                        P74 IF THIS VEHICLE IS PASSIVE VEHICLE.
000114:
000115:                                                                                                  #  INPUT
000116:                                                                                                  #        (1)     TTPI    TIME OF THE TPI MANEUVER
000117:                                                                                                  #        (2)     ELEV    DESIRED LOS ANGLE AT TPI
000118:                                                                                                  #        (3)     CENTANG ORBITAL CENTRAL ANGLE OF THE PASSIVE VEHICLE DURING
000119:                                                                                                  #                        TRANSFER FROM TPI TO TIME OF INTERCEPT
000120:
000121:                                                                                                  #  OUTPUT
000122:                                                                                                  #        (1)     TRKMKCNT        NUMBER OF MARKS
000123:                                                                                                  #        (2)     TTOGO           TIME TO GO
000124:                                                                                                  #        (3)     +MGA            MIDDLE GIMBAL ANGLE
000125:                                                                                                  #        (4)     TTPI            COMPUTED TIME OF TPI MANEUVER
000126:                                                                                                  #                 OR
000127:                                                                                                  #                ELEV            COMPUTED LOS ANGLE AT TPI
000128:                                                                                                  #        (5)     POSTTPI         PERIGEE ALTITUDE AFTER THE TPI MANEUVER
000129:                                                                                                  #        (6)     DELVTPI         MAGNITUDE OF DELTA V AT TPI
000130:                                                                                                  #        (7)     DELVTPF         MAGNITUDE OF DELTA V AT INTERCEPT
000131:                                                                                                  #        (8)     DVLOS           DELTA VELOCITY AT TPI - LINE OF SIGHT
000132:                                                                                                  #        (9)     DELVLVC         DELTA VELOCITY AT TPI - LOCAL VERTICAL COORDINATES
000133:
000134:                                                                                                  #  DOWNLINK
000135:                                                                                                  #        (1)     TTPI            TIME OF THE TPI MANEUVER
000136:                                                                                                  #        (2)     TIG             TIME OF THE TPI MANEUVER
000137:                                                                                                  #        (3)     ELEV            DESIRED LOS ANGLE AT TPI
000138:                                                                                                  #        (4)     CENTANG         ORBITAL CENTRAL ANGLE OF THE PASSIVE VEHICLE DURING
000139:                                                                                                  #                                TRANSFER FROM TPI TO TIME OF INTERCEPT
000140:                                                                                                  #        (5)     DELVEET3        DELTA VELOCITY AT TPI - REFERENCE COORDINATES
000141:                                                                                                  #        (6)     TPASS4          TIME OF INTERCEPT
000142:
000143:                                                                                                  #  COMMUNICATION TO THRUSTING PROGRAMS
000144:                                                                                                  #        (1)     TIG             TIME OF THE TPI MANEUVER
000145:                                                                                                  #        (2)     RTARG           OFFSET TARGET POSITION
000146:                                                                                                  #        (3)     TPASS4          TIME OF INTERCEPT
000147:                                                                                                  #        (4)     XDELVFLG        RESET TO INDICATE LAMBERT (AIMPOINT) VG COMPUTATION
000148:
000149:                                                                                                  #  SUBROUTINES USED
000150:                                                                                                  #        AVFLAGA


000152:                                                                                                  #        AVFLAGP
000153:                                                                                                  #        VNPOOH
000154:                                                                                                  #        DISPLAYE
000155:                                                                                                  #        SELECTMU
000156:                                                                                                  #        PRECSET
000157:                                                                                                  #        S33/34.1
000158:                                                                                                  #        ALARM
000159:                                                                                                  #        BANKCALL
000160:                                                                                                  #        GOFLASH
000161:                                                                                                  #        GOTOPOOH
000162:                                                                                                  #        TIMETHET
000163:                                                                                                  #        S34/35.2
000164:                                                                                                  #        PERIAPO1
000165:                                                                                                  #        SHIFTR1
000166:                                                                                                  #        S34/35.5
000167:                                                                                                  #        VN1645
000168:
000169: 35,2000                                           SETLOC   CSI/CDH
000170: 35,2000                                           BANK
000171: 35,2000  E4,1770                                  EBANK=   SUBEXIT
000172: 35,2000                                           COUNT    35/P3474
000173:
000174: 35,2000           04627        P34                TC       AVFLAGA
000175: 35,2001           02003                           TC       P34/P74A
000176: 35,2002           04642        P74                TC       AVFLAGP
000177: 35,2003           04647        P34/P74A           TC       P20FLGON                              #  SET UPDATFLG, TRACKFLG
000178: 35,2004           34614                           CAF      V06N37                                #  TTPI
000179: 35,2005           04575                           TC       VNPOOH


000190: 35,2006           03071                           TC       DISPLAYE                              #  ELEV AND CENTANG
000191: 35,2007           06006                           TC       INTPRET
000192: 35,2010           71214                           CLEAR    DLOAD
000193: 35,2011           01270                                    ETPIFLAG
000194: 35,2012           03663                                    TTPI
000195: 35,2013           17413                           STODL    TIG
000196: 35,2014           03744                                    ELEV
000197: 35,2015           43054                           BZE      SET
000198: 35,2016           72020                                    P34/P74B
000199: 35,2017           01070                                    ETPIFLAG
000200: 35,2020           77624        P34/P74B           CALL
000201: 35,2021           10712                                    SELECTMU
000202: 35,2022                        DELELO             EQUALS   26D
000203: 35,2022           43145        P34/P74C           DLOAD    SET
000204: 35,2023           15335                                    ZEROVECS
000205: 35,2024           03461                                    ITSWICH
000206: 35,2025           43014                           BON      CLEAR
000207: 35,2026           01310                                    ETPIFLAG


000209: 35,2027           72031                                    SWCHSET
000210: 35,2030           03661                                    ITSWICH
000211: 35,2031           02364        SWCHSET            STORE    NOMTPI
000212: 35,2032           43345        INTLOOP            DLOAD    DAD
000213: 35,2033           03663                                    TTPI
000214: 35,2034           02364                                    NOMTPI
000215: 35,2035           34041                           STCALL   TDEC1
000216: 35,2036           45215                                    PRECSET
000217: 35,2037           77624                           CALL
000218: 35,2040           72212                                    S33/34.1
000219: 35,2041           77454                           BZE      EXIT
000220: 35,2042           72053                                    SWCHCLR
000221: 35,2043           05650                           TC       ALARM
000222: 35,2044           00611                           OCT      611
000223: 35,2045           35050                           CAF      V05N09
000224: 35,2046           04662                           TC       BANKCALL
000225: 35,2047           20720                           CADR     GOFLASH
000226: 35,2050           04106                           TC       GOTOPOOH
000227: 35,2051           02003                           TC       P34/P74A                              #  PROCEED
000228: 35,2052           02043                           TC       -7                                    #  V32
000229:
000230: 35,2053           43014        SWCHCLR            BONCLR   BON
000231: 35,2054           03601                                    ITSWICH
000232: 35,2055           72032                                    INTLOOP
000233: 35,2056           01310                                    ETPIFLAG
000234: 35,2057           72063                                    P34/P74D                              #  DISPLAY TTPI
000235: 35,2060           77776                           EXIT
000236: 35,2061           03071                           TC       DISPLAYE                              #  DISPLAY ELEV AND CENTANG
000237: 35,2062           02066                           TC       P34/P74E
000238: 35,2063           77776        P34/P74D           EXIT
000239: 35,2064           34614                           CAF      V06N37                                #  TTPI
000240: 35,2065           04575                           TC       VNPOOH
000241: 35,2066           06006        P34/P74E           TC       INTPRET
000242: 35,2067           71201                           SETPD    DLOAD
000243: 35,2070           00001                                    0D
000244: 35,2071           03746                                    RTX1
000245: 35,2072           14047                           STODL    X1
000246: 35,2073           03754                                    CENTANG
000247: 35,2074           71406                           PUSH     COS
000248: 35,2075           16734                           STODL    CSTH
000249: 35,2076           77756                           SIN
000250: 35,2077           26732                           STOVL    SNTH
000251: 35,2100           03554                                    RPASS3
000252: 35,2101           77657                           VSR*
000253: 35,2102           57176                                    0,2
000254: 35,2103           26657                           STOVL    RVEC
000255: 35,2104           03562                                    VPASS3
000256: 35,2105           43057                           VSR*     SET
000257: 35,2106           57176                                    0,2
000258: 35,2107           03466                                    RVSW


000260: 35,2110           36746                           STCALL   VVEC
000261: 35,2111           24744                                    TIMETHET
000262: 35,2112           77745                           DLOAD
000263: 35,2113           03663                                    TTPI
000264: 35,2114           03503                           STORE    INTIME                                #  FOR INITVEL
000265: 35,2115           77615                           DAD
000266: 35,2116           00037                                    T                                     #  RENDEZVOUS TIME
000267: 35,2117           37656                           STCALL   TPASS4                                #  FOR INITVEL
000268: 35,2120           72534                                    S34/35.2
000269: 35,2121           51575                           VLOAD    ABVAL
000270: 35,2122           03646                                    DELVEET3
000271: 35,2123           26635                           STOVL    DELVTPI
000272: 35,2124           03640                                    VPASS4
000273: 35,2125           51451                           VSU      ABVAL
000274: 35,2126           03620                                    VTPRIME
000275: 35,2127           26637                           STOVL    DELVTPF
000276: 35,2130           03540                                    RACT3
000277: 35,2131           45115                           PDVL     CALL
000278: 35,2132           03612                                    VIPRIME
000279: 35,2133           45153                                    PERIAPO1
000280: 35,2134           77624                           CALL
000281: 35,2135           45263                                    SHIFTR1
000282: 35,2136           16641                           STODL    POSTTPI
000283: 35,2137           03663                                    TTPI
000284: 35,2140           03413                           STORE    TIG
000285: 35,2141           77776                           EXIT
000286: 35,2142           34616                           CAF      V06N58
000287: 35,2143           04575                           TC       VNPOOH
000288: 35,2144           06006                           TC       INTPRET
000289: 35,2145           77624                           CALL
000290: 35,2146           72742                                    S34/35.5
000291: 35,2147           77624                           CALL
000292: 35,2150           73003                                    VN1645
000293: 35,2151           77650                           GOTO
000294: 35,2152           72022                                    P34/P74C
000295:


000297:                                                                                                  #  RENDEZVOUS MID-COURSE MANEUVER PROGRAMS (P35 AND P75)
000298:                                                                                                  #  MOD NO -1                     LOG SECTION - P32-P35, P72-P75
000299:                                                                                                  #  MOD BY WHITE.P                DATE  1JUNE67
000300:
000301:                                                                                                  #  PURPOSE
000302:                                                                                                  #        (1)     TO CALCULATE THE REQUIRED DELTA V AND OTHER INITIAL CONDITIONS
000303:                                                                                                  #                REQUIRED BY THE ACTIVE VEHICLE FOR EXECUTION OF THE NEXT
000304:                                                                                                  #                MIDCOURSE CORRECTION OF THE TRANSFER PHASE OF AN ACTIVE
000305:                                                                                                  #                VEHICLE RENDEZVOUS.
000306:                                                                                                  #        (2)     TO DISPLAY TO THE ASTRONAUT AND THE GROUND CERTAIN DEPENDENT
000307:                                                                                                  #                VARIABLES ASSOCIATED WITH THE MANEUVER FOR APPROVAL BY THE
000308:                                                                                                  #                ASTRONAUT/GROUND.
000309:                                                                                                  #        (3)     TO STORE THE TPM TARGET PARAMETERS FOR USE BY THE DESIRED
000310:                                                                                                  #                THRUSTING PROGRAM.
000311:
000312:                                                                                                  #  ASSUMPTIONS
000313:                                                                                                  #        (1)     THE ISS NEED NOT BE ON TO COMPLETE THIS PROGRAM.
000314:                                                                                                  #        (2)     STATE VECTOR UPDATES BY P27 ARE DISALLOWED DURING AUTOMATIC
000315:                                                                                                  #                STATE VECTOR UPDATING INITIATED BY P20 (SEE ASSUMPTION (3)).
000316:                                                                                                  #        (3)     THE RENDEZVOUS RADAR IS ON AND IS LOCKED ON THE CSM.  THIS WAS
000317:                                                                                                  #                DONE DURING PREVIOUS SELECTION OF P20.  RADAR SIGHTING MARKS
000318:                                                                                                  #                WILL BE MADE AUTOMATICALLY APPROXIMATELY ONCE A MINUTE WHEN
000319:                                                                                                  #                ENABLED BY THE TRACK AND UPDATE FLAGS (SEE P20).  THE
000320:                                                                                                  #                RENDEZVOUS TRACKING MARK COUNTER IS ZEROED BY THE SELECTION OF
000321:                                                                                                  #                P20 AND AFTER EACH THRUSTING MANEUVER.
000322:                                                                                                  #        (4)     THE OPERATION OF THE PROGRAM UTILIZES THE FOLLOWING FLAGS -
000323:
000324:                                                                                                  #                        ACTIVE VEHICLE FLAG - DESIGNATES THE VEHICLE WHICH IS
000325:                                                                                                  #                        DOING RENDEZVOUS THRUSTING MANEUVERS TO THE PROGRAM WHICH
000326:                                                                                                  #                        CALCULATES THE MANEUVER PARAMETERS.  SET AT THE START OF
000327:                                                                                                  #                        EACH RENDEZVOUS PRE-THRUSTING PROGRAM.
000328:
000329:                                                                                                  #                        FINAL FLAG - SELECTS FINAL PROGRAM DISPLAYS AFTER CREW HAS
000330:                                                                                                  #                        SELECTED THE FINAL MANEUVER COMPUTATION CYCLE.
000331:
000332:                                                                                                  #                        EXTERNAL DELTA V FLAG - DESIGNATES THE TYPE OF STEERING
000333:                                                                                                  #                        REQUIRED FOR EXECUTION OF THIS MANEUVER BY THE THRUSTING
000334:                                                                                                  #                        PROGRAM SELECTED AFTER COMPLETION OF THIS PROGRAM.
000335:
000336:                                                                                                  #        (5)     THE TIME OF INTERCEPT (T(INT)) WAS DEFINED BY PREVIOUS
000337:                                                                                                  #                COMPLETION OF THE TRANSFER PHASE INITIATION (TPI) PROGRAM
000338:                                                                                                  #                (P34/P74) AND IS PRESENTLY AVAILABLE IN STORAGE.


000340:                                                                                                  #        (6)     ONCE THE PARAMETERS REQUIRED FOR COMPUTION OF THE MANEUVER
000341:                                                                                                  #                HAVE BEEN COMPLETELY SPECIFIED, THE VALUE OF THE ACTIVE
000342:                                                                                                  #                VEHICLE CENTRAL ANGLE OF TRANSFER IS COMPUTED AND STORED.
000343:                                                                                                  #                THIS NUMBER WILL BE AVAILABLE FOR DISPLAY TO THE ASTRONAUT
000344:                                                                                                  #                THROUGH THE USE OF V06N52.
000345:
000346:                                                                                                  #                THE ASTRONAUT WILL CALL THIS DISPLAY TO VERIFY THAT THE
000347:                                                                                                  #                CENTRAL ANGLE OF TRANSFER OF THE ACTIVE VEHICLE IS NOT WITHIN
000348:                                                                                                  #                170 TO 190 DEGREES.  IF THE ANGLE IS WITHIN THIS ZONE THE
000349:                                                                                                  #                ASTRONAUT SHOULD REASSESS THE INPUT TARGETING PARAMETERS BASED
000350:                                                                                                  #                UPON DELTA V AND EXPECTED MANEUVER TIME.
000351:                                                                                                  #        (7)     THIS PROGRAM IS SELECTED BY THE ASTRONAUT BY DSKY ENTRY -
000352:
000353:                                                                                                  #                        P35 IF THIS VEHICLE IS ACTIVE VEHICLE.
000354:
000355:                                                                                                  #                        P75 IF THIS VEHICLE IS PASSIVE VEHICLE.
000356:
000357:                                                                                                  #  INPUT
000358:                                                                                                  #        (1)     TPASS4          TIME OF INTERCEPT - SAVED FROM P34/P74
000359:
000360:                                                                                                  #  OUTPUT
000361:                                                                                                  #        (1)     TRKMKCNT        NUMBER OF MARKS
000362:                                                                                                  #        (2)     TTOGO           TIME TO GO
000363:                                                                                                  #        (3)     +MGA            MIDDLE GIMBAL ANGLE
000364:                                                                                                  #        (4)     DVLOS           DELTA VELOCITY AT MID - LINE OF SIGHT
000365:                                                                                                  #        (5)     DELVLVC         DELTA VELOCITY AT MID - LOCAL VERTICAL COORDINATES
000366:
000367:                                                                                                  #  DOWNLINK
000368:                                                                                                  #        (1)     TIG             TIME OF THE TPM MANEUVER
000369:                                                                                                  #        (2)     DELVEET3        DELTA VELOCITY AT TPM - REFERENCE COORDINATES
000370:                                                                                                  #        (3)     TPASS4          TIME OF INTERCEPT
000371:
000372:                                                                                                  #  COMMUNICATION TO THRUSTING PROGRAMS
000373:                                                                                                  #        (1)     TIG             TIME OF THE TPM MANEUVER
000374:                                                                                                  #        (2)     RTARG           OFFSET TARGET POSITION
000375:                                                                                                  #        (3)     TPASS4          TIME OF INTERCEPT
000376:                                                                                                  #        (4)     XDELVFLG        RESET TO INDICATE LAMBERT (AIMPOINT) VG COMPUTATION
000377:
000378:                                                                                                  #  SUBROUTINES USED
000379:                                                                                                  #        AVFLAGA
000380:                                                                                                  #        AVFLAGP
000381:                                                                                                  #        LOADTIME
000382:                                                                                                  #        SELECTMU
000383:                                                                                                  #        PRECSET
000384:                                                                                                  #        S34/35.1
000385:                                                                                                  #        S34/35.2


000387:                                                                                                  #        S34/35.5
000388:                                                                                                  #        VN1645
000389:
000390: 35,2153                                           COUNT    35/P3575
000391: 35,2153  E4,1763                                  EBANK=   KT
000392:
000393: 35,2153           04627        P35                TC       AVFLAGA
000394: 35,2154           00006                           EXTEND
000395: 35,2155           31422                           DCA      ATIGINC
000396: 35,2156           02162                           TC       P35/P75A
000397: 35,2157           04642        P75                TC       AVFLAGP
000398: 35,2160           00006                           EXTEND
000399: 35,2161           31424                           DCA      PTIGINC
000400: 35,2162           53764        P35/P75A           DXCH     KT
000401: 35,2163           04647                           TC       P20FLGON                              #  SET UPDATFLG, TRACKFLG
000402: 35,2164           06006                           TC       INTPRET
000403: 35,2165           77624                           CALL
000404: 35,2166           10712                                    SELECTMU
000405: 35,2167           77634        P35/P75B           RTB
000406: 35,2170           45510                                    LOADTIME
000407: 35,2171           03665                           STORE    TSTRT
000408: 35,2172           77615                           DAD
000409: 35,2173           02364                                    KT
000410: 35,2174           03413                           STORE    TIG
000411: 35,2175           03503                           STORE    INTIME                                #  FOR INITVEL
000412: 35,2176           34041                           STCALL   TDEC1
000413: 35,2177           45215                                    PRECSET                               #  ADVANCE BOTH VEHICLES
000414: 35,2200           77624                           CALL
000415: 35,2201           72522                                    S34/35.1                              #  GET NORM AND LOS FOR TRANSFORM
000416: 35,2202           77624                           CALL
000417: 35,2203           72534                                    S34/35.2                              #  GET DELTA V(LV)
000418: 35,2204           77624                           CALL
000419: 35,2205           72742                                    S34/35.5
000420: 35,2206           77624                           CALL
000421: 35,2207           73003                                    VN1645
000422: 35,2210           77650                           GOTO
000423: 35,2211           72167                                    P35/P75B


000425:                                                                                                  #  ..... S33/34.1 .....
000426:
000427: 35,2212           66220        S33/34.1           STQ      SSP
000428: 35,2213           01340                                    NORMEX
000429: 35,2214           03665                                    TITER
000430: 35,2215           40000                           OCT      40000
000431: 35,2216           40345                           DLOAD    SETPD
000432: 35,2217           33115                                    MAX250
000433: 35,2220           00001                                    0D
000434: 35,2221           27454                           STOVL    SECMAX
000435: 35,2222           03540                                    RACT3
000436: 35,2223           27576                           STOVL    RAPREC
000437: 35,2224           03546                                    VACT3
000438: 35,2225           27570                           STOVL    VAPREC
000439: 35,2226           03554                                    RPASS3
000440: 35,2227           27620                           STOVL    RPPREC
000441: 35,2230           03562                                    VPASS3
000442: 35,2231           03612                           STORE    VPPREC
000443: 35,2232           77624        ELCALC             CALL
000444: 35,2233           72522                                    S34/35.1                              #  NORMAL AND LOS
000445: 35,2234           63235                           VXV      PDVL
000446: 35,2235           03540                                    RACT3                                 #  (RA*VA)*RA 0D
000447: 35,2236           53515                           PDVL     UNIT                                  #  ULOS AT 6D
000448: 35,2237           03540                                    RACT3
000449: 35,2240           46315                           PDVL     VPROJ                                 #  XCHNJ AND UP
000450: 35,2241           51352                           VSL2     BVSU
000451: 35,2242           02625                                    ULOS
000452: 35,2243           63256                           UNIT     PDVL                                  #  UP AT 0D
000453: 35,2244           63241                           DOT      PDVL                                  #  UP.UN*RA AT 0D
000454: 35,2245           00001                                    0D                                    #  UP IN MPAC
000455: 35,2246           75241                           DOT      SIGN
000456: 35,2247           02625                                    ULOS
000457: 35,2250           65552                           SL1      ACOS
000458: 35,2251           50315                           PDVL     DOT                                   #  EA AT 0D
000459: 35,2252           02625                                    ULOS
000460: 35,2253           03540                                    RACT3
000461: 35,2254           71244                           BPL      DLOAD
000462: 35,2255           72260                                    TESTY
000463: 35,2256           15343                                    DPPOSMAX
000464: 35,2257           41425                           DSU      PUSH
000465: 35,2260           71214        TESTY              BOFF     DLOAD
000466: 35,2261           03741                                    ITSWICH
000467: 35,2262           72507                                    ELEX
000468: 35,2263           03452                                    DELEL
000469: 35,2264           14033                           STODL    DELELO
000470: 35,2265           77625                           DSU
000471: 35,2266           03744                                    ELEV
000472: 35,2267           03452                           STORE    DELEL
000473: 35,2270           45246                           ABS      DSU
000474: 35,2271           33121                                    ELEPS


000476: 35,2272           77640                           BMN
000477: 35,2273           72517                                    TIMEX                                 #  COMMERCIALS EVERYWHERE
000478: 35,2274           70535        FIGTIME            SLOAD    SR1
000479: 35,2275           03665                                    TITER
000480: 35,2276           72030                           BHIZ     LXA,1
000481: 35,2277           01340                                    NORMEX                                #  TOO MANY ITERATIONS
000482: 35,2300           00154                                    MPAC
000483: 35,2301           77330                           SXA,1    VLOAD
000484: 35,2302           03664                                    TITER
000485: 35,2303           03554                                    RPASS3
000486: 35,2304           65256                           UNIT     PDDL
000487: 35,2305           00045                                    36D
000488: 35,2306           53515                           PDVL     UNIT
000489: 35,2307           03540                                    RACT3
000490: 35,2310           77725                           PDDL
000491: 35,2311           41525                           PDDL     PUSH
000492: 35,2312           00045                                    36D
000493: 35,2313           77621                           BDSU
000494: 35,2314           00015                                    12D
000495: 35,2315           14037                           STODL    30D                                   #  RP-RA MAGNITUDES
000496: 35,2316           15333                                    DPHALF
000497: 35,2317           41425                           DSU      PUSH
000498: 35,2320           03744                                    ELEV
000499: 35,2321           50165                           SIGN     BMN
000500: 35,2322           00037                                    30D
000501: 35,2323           01340                                    NORMEX
000502: 35,2324           71545                           DLOAD    COS
000503: 35,2325           56205                           DMP      DDV
000504: 35,2326           00017                                    14D
000505: 35,2327           00015                                    12D
000506: 35,2330           77676                           DCOMP                                          #  SINCE COS(180-A)=-COS A
000507: 35,2331           00035                           STORE    28D
000508: 35,2332           44246                           ABS      BDSU
000509: 35,2333           15333                                    DPHALF
000510: 35,2334           77240                           BMN      VLOAD
000511: 35,2335           01340                                    NORMEX
000512: 35,2336           02617                                    UNRM
000513: 35,2337           53435                           VXV      UNIT
000514: 35,2340           00007                                    6D                                    #  UN*RA
000515: 35,2341           41241                           DOT      DMP
000516: 35,2342           03546                                    VACT3
000517: 35,2343           00015                                    12D
000518: 35,2344           47315                           PDVL     VXV
000519: 35,2345           00001                                    0D
000520: 35,2346           03562                                    VPASS3
000521: 35,2347           53435                           VXV      UNIT
000522: 35,2350           00001                                    0D                                    #  (RP*VP)*RP
000523: 35,2351           41241                           DOT      DMP
000524: 35,2352           03562                                    VPASS3
000525: 35,2353           00017                                    14D


000527: 35,2354           77621                           BDSU
000528: 35,2355           63301                           NORM     PDVL                                  #  NORMALIZED WA-WP 12D
000529: 35,2356           00047                                    X1
000530: 35,2357           00007                                    6D
000531: 35,2360           50235                           VXV      DOT
000532: 35,2361           00001                                    0D
000533: 35,2362           02617                                    UNRM                                  #  RA*RP.UN 14D
000534: 35,2363           50315                           PDVL     DOT
000535: 35,2364           00001                                    0D
000536: 35,2365           00007                                    6D
000537: 35,2366           65552                           SL1      ACOS
000538: 35,2367           77765                           SIGN
000539: 35,2370           43225                           DSU      DAD                                   #  ALPHA PI
000540: 35,2371           15333                                    DPHALF
000541: 35,2372           03744                                    ELEV
000542: 35,2373           65525                           PDDL     ACOS
000543: 35,2374           00035                                    28D
000544: 35,2375           75221                           BDSU     SIGN
000545: 35,2376           15333                                    DPHALF
000546: 35,2377           00037                                    30D                                   #  CONTAINS RP-RA
000547: 35,2400           77615                           DAD
000548: 35,2401           56205                           DMP      DDV
000549: 35,2402           33113                                    TWOPI
000550: 35,2403           77605                           DMP
000551: 35,2404           41257                           SL*      DMP
000552: 35,2405           20176                                    0          -3,1
000553: 35,2406           51406                           PUSH     ABS
000554: 35,2407           50025                           DSU      BMN
000555: 35,2410           03454                                    SECMAX
000556: 35,2411           72415                                    OKMAX
000557: 35,2412           75345                           DLOAD    SIGN                                  #  REPLACE TIME WITH MAX TIME SIGNED
000558: 35,2413           03454                                    SECMAX
000559: 35,2414           77606                           PUSH
000560: 35,2415           51135        OKMAX              SLOAD    BPL                                   #  TEST FIRST ITERATION
000561: 35,2416           03665                                    TITER
000562: 35,2417           72425                                    REPETE
000563: 35,2420           71331                           SSP      DLOAD
000564: 35,2421           03665                                    TITER
000565: 35,2422           37777                           OCT      37777
000566: 35,2423           77650                           GOTO
000567: 35,2424           72463                                    STORDELT
000568: 35,2425           41345        REPETE             DLOAD    DMP
000569: 35,2426           03452                                    DELEL
000570: 35,2427           00033                                    DELELO
000571: 35,2430           71244                           BPL      DLOAD
000572: 35,2431           72441                                    NEXTES
000573: 35,2432           03454                                    SECMAX
000574: 35,2433           77605                           DMP
000575: 35,2434           33117                                    THIRD
000576: 35,2435           17454                           STODL    SECMAX


000578: 35,2436           70446                           ABS      SR1                                   #  CROSSED OVER SOLUTION
000579: 35,2437           52076                           DCOMP    GOTO                                  #  DT=(-SIGN(DTO)//DT//)/2
000580: 35,2440           72451                                    RESIGN
000581: 35,2441           51545        NEXTES             DLOAD    ABS
000582: 35,2442           03452                                    DELEL
000583: 35,2443           51525                           PDDL     ABS
000584: 35,2444           00033                                    DELELO
000585: 35,2445           77625                           DSU
000586: 35,2446           71240                           BMN      DLOAD
000587: 35,2447           72454                                    REVERS                                #  WRONG DIRECTION
000588: 35,2450           77646                           ABS
000589: 35,2451           52165        RESIGN             SIGN     GOTO
000590: 35,2452           03450                                    DELTEEO
000591: 35,2453           72463                                    STORDELT
000592: 35,2454           57545        REVERS             DLOAD    DCOMP
000593: 35,2455           03450                                    DELTEEO
000594: 35,2456           70406                           PUSH     SR1
000595: 35,2457           03450                           STORE    DELTEEO
000596: 35,2460           77615                           DAD
000597: 35,2461           77650                           GOTO
000598: 35,2462           72464                                    ADTIME
000599: 35,2463           03450        STORDELT           STORE    DELTEEO
000600: 35,2464           77615        ADTIME             DAD
000601: 35,2465           02364                                    NOMTPI                                #  SUM OF DELTA T:S
000602: 35,2466           02364                           STORE    NOMTPI
000603: 35,2467           63375                           VLOAD    PDVL
000604: 35,2470           03570                                    VAPREC
000605: 35,2471           03576                                    RAPREC
000606: 35,2472           77624                           CALL
000607: 35,2473           72702                                    GOINT
000608: 35,2474           77624                           CALL
000609: 35,2475           45237                                    ACTIVE                                #  STORE NEW RACT3 VACT3
000610: 35,2476           63375                           VLOAD    PDVL
000611: 35,2477           03612                                    VPPREC
000612: 35,2500           03620                                    RPPREC
000613: 35,2501           77624                           CALL
000614: 35,2502           72702                                    GOINT
000615: 35,2503           77624                           CALL
000616: 35,2504           45247                                    PASSIVE                               #  STORE NEW RPASS3 VPASS3
000617: 35,2505           77650                           GOTO
000618: 35,2506           72232                                    ELCALC
000619: 35,2507           43345        ELEX               DLOAD    DAD
000620: 35,2510           03663                                    TTPI
000621: 35,2511           02364                                    NOMTPI
000622: 35,2512           17663                           STODL    TTPI
000623: 35,2513           77614                           BON
000624: 35,2514           01310                                    ETPIFLAG
000625: 35,2515           72517                                    TIMEX
000626: 35,2516           03744                           STORE    ELEV
000627: 35,2517           52145        TIMEX              DLOAD    GOTO


000629: 35,2520           15335                                    ZEROVECS
000630: 35,2521           01340                                    NORMEX
000631:


000633:                                                                                                  #  ..... S34/35.1 .....
000634:
000635:                                                                                                  #  COMPUTE UNIT NORMAL AND LINE OF SIGHT VECTORS GIVEN THE ACTIVE AND
000636:                                                                                                  #  PASSIVE POS AND VEL AT TIME T3


000651:
000652: 35,2522           52375        S34/35.1           VLOAD    VSU
000653: 35,2523           03554                                    RPASS3
000654: 35,2524           03540                                    RACT3
000655: 35,2525           41456                           UNIT     PUSH
000656: 35,2526           26625                           STOVL    ULOS
000657: 35,2527           03540                                    RACT3
000658: 35,2530           53435                           VXV      UNIT
000659: 35,2531           03546                                    VACT3
000660: 35,2532           02617                           STORE    UNRM
000661: 35,2533           77616                           RVQ
000662:


000664:                                                                                                  #  ..... S34/35.2 .....
000665:
000666:                                                                                                  #  ADVANCE PASSIVE VEH TO RENDEZVOUS TIME AND GET REQ VEL FROM LAMBERT


000674:
000675: 35,2534           77220        S34/35.2           STQ      VLOAD
000676: 35,2535           02370                                    SUBEXIT
000677: 35,2536           03562                                    VPASS3
000678: 35,2537           65315                           PDVL     PDDL
000679: 35,2540           03554                                    RPASS3
000680: 35,2541           03503                                    INTIME
000681: 35,2542           65325                           PDDL     PDDL
000682: 35,2543           03656                                    TPASS4


000704: 35,2544           15335                                    ZEROVECS
000705: 35,2545           45006                           PUSH     CALL
000706: 35,2546           72706                                    INTINT                                #  GET TARGET VECTOR
000707: 35,2547           27415        S3435.25           STOVL    RTARG
000708: 35,2550           00007                                    VATT
000709: 35,2551           27640                           STOVL    VPASS4
000710: 35,2552           03415                                    RTARG
000711:                                                                                                  #  COMPUTE PHI = PI + (ACOS(UNIT RA.UNIT RP) - PI) SIGN(RA*RP.U)
000712: 35,2553           63256                           UNIT     PDVL                                  #  UNIT RP
000713: 35,2554           03540                                    RACT3
000714: 35,2555           41456                           UNIT     PUSH                                  #  UNIT RA
000715: 35,2556           50235                           VXV      DOT
000716: 35,2557           00001                                    0D
000717: 35,2560           02617                                    UNRM                                  #  RA*RP.U
000718: 35,2561           77715                           PDVL
000719: 35,2562           72441                           DOT      SL1                                   #  UNIT RA.UNIT RP
000720: 35,2563           00001                                    0D
000721: 35,2564           75326                           ACOS     SIGN
000722: 35,2565           43244                           BPL      DAD
000723: 35,2566           72570                                    NOPIE
000724: 35,2567           15343                                    DPPOSMAX                              #  REASONABLE TWO PI
000725: 35,2570           16633        NOPIE              STODL    ACTCENT
000726: 35,2571           03656                                    TPASS4
000727: 35,2572           77625                           DSU
000728: 35,2573           03503                                    INTIME
000729: 35,2574           03423                           STORE    DELLT4
000730: 35,2575           40335                           SLOAD    SETPD


000744: 35,2576           33123                                    DECTWO
000745: 35,2577           00001                                    0D
000746: 35,2600           63325                           PDDL     PDVL
000747: 35,2601           33126                                    EPSFOUR


000749: 35,2602           03540                                    RACT3
000750: 35,2603           27570                           STOVL    RINIT
000751: 35,2604           03546                                    VACT3
000752: 35,2605           37576                           STCALL   VINIT
000753: 35,2606           22000                                    INITVEL
000754: 35,2607           77624                           CALL
000755: 35,2610           72667                                    LOMAT
000756: 35,2611           64375                           VLOAD    MXV
000757: 35,2612           03646                                    DELVEET3
000758: 35,2613           00001                                    0D
000759: 35,2614           77772                           VSL1
000760: 35,2615           37405                           STCALL   DELVLVC
000761: 35,2616           02370                                    SUBEXIT
000762:


000764:                                                                                                  #  ..... S34/35.3 .....
000765:
000766: 35,2617           45020        S34/35.3           STQ      CALL
000767: 35,2620           01340                                    NORMEX
000768: 35,2621           72667                                    LOMAT                                 #  GET MATRIX IN PUSH LIST
000769: 35,2622           61375                           VLOAD    VXM
000770: 35,2623           03405                                    DELVLVC                               #  NEW DEL V TPI
000771: 35,2624           00001                                    0D
000772: 35,2625           77772                           VSL1
000773: 35,2626           03646                           STORE    DELVEET3                              #  SAVE FOR TRANSFORM
000774: 35,2627           63255                           VAD      PDVL
000775: 35,2630           03546                                    VACT3                                 #  NEW V REQ
000776: 35,2631           03540                                    RACT3
000777: 35,2632           65325                           PDDL     PDDL
000778: 35,2633           03413                                    TIG
000779: 35,2634           03656                                    TPASS4
000780: 35,2635           41525                           PDDL     PUSH
000781: 35,2636           15343                                    DPPOSMAX
000782: 35,2637           77624                           CALL                                           #  INTEG. FOR NEW TARGET VEC
000783: 35,2640           72706                                    INTINT
000784: 35,2641           77775                           VLOAD
000785: 35,2642           00001                                    RATT
000786: 35,2643           03415                           STORE    RTARG
000787: 35,2644           41575        NOVRWRT            VLOAD    PUSH
000788: 35,2645           02625                                    ULOS
000789: 35,2646           57435                           VXV      VCOMP
000790: 35,2647           02617                                    UNRM
000791: 35,2650           41456                           UNIT     PUSH
000792: 35,2651           76435                           VXV      VSL1
000793: 35,2652           02625                                    ULOS
000794: 35,2653           77715                           PDVL
000795: 35,2654           64315                           PDVL     MXV
000796: 35,2655           03646                                    DELVEET3
000797: 35,2656           00001                                    0D
000798: 35,2657           77772                           VSL1
000799: 35,2660           36611                           STCALL   DVLOS
000800: 35,2661           01340                                    NORMEX
000801:


000803:                                                                                                  #  ..... S34/35.4 .....
000804:
000805: 35,2662           40220        S34/35.4           STQ      SETPD                                 #  NO ASTRONAUT OVERWRITE
000806: 35,2663           01340                                    NORMEX
000807: 35,2664           00001                                    0D
000808: 35,2665           77650                           GOTO
000809: 35,2666           72644                                    NOVRWRT
000810:


000812:                                                                                                  #  ..... LOMAT .....
000813:
000814: 35,2667           57575        LOMAT              VLOAD    VCOMP
000815: 35,2670           02617                                    UNRM
000816: 35,2671           24007                           STOVL    6D                                    #  Y
000817: 35,2672           03540                                    RACT3
000818: 35,2673           57456                           UNIT     VCOMP
000819: 35,2674           00015                           STORE    12D
000820: 35,2675           76435                           VXV      VSL1
000821: 35,2676           02617                                    UNRM                                  #  Z*-Y
000822: 35,2677           00001                           STORE    0D
000823: 35,2700           43401                           SETPD    RVQ
000824: 35,2701           00023                                    18D
000825: 35,2702           65325        GOINT              PDDL     PDDL                                  #  DO
000826: 35,2703           15335                                    ZEROVECS                              #        NOT
000827: 35,2704           02364                                    NOMTPI
000828: 35,2705           41406                           PUSH     PUSH                                  #                ORDER OR INSERT BEFORE INTINT
000829: 35,2706           45020        INTINT             STQ      CALL
000830: 35,2707           02367                                    RTRN
000831: 35,2710           27442                                    INTSTALL
000832: 35,2711           71214                           CLEAR    DLOAD
000833: 35,2712           01673                                    INTYPFLG
000834: 35,2713           43054                           BZE      SET
000835: 35,2714           72716                                    +2
000836: 35,2715           01473                                    INTYPFLG
000837: 35,2716           45545                           DLOAD    STADR
000838: 35,2717           63736                           STODL    TDEC1
000839: 35,2720           73014                           SET      LXA,2
000840: 35,2721           00063                                    MOONFLAG
000841: 35,2722           03746                                    RTX2
000842: 35,2723           43014                           BON      CLEAR
000843: 35,2724           04303                                    CMOONFLG
000844: 35,2725           72727                                    ALLSET
000845: 35,2726           00263                                    MOONFLAG
000846: 35,2727           25517        ALLSET             STOVL    TET
000847: 35,2730           77657                           VSR*
000848: 35,2731           57176                                    0,2
000849: 35,2732           25535                           STOVL    RCV
000850: 35,2733           77657                           VSR*
000851: 35,2734           57176                                    0,2
000852: 35,2735           35543                           STCALL   VCV
000853: 35,2736           27135                                    INTEGRVS
000854: 35,2737           52175                           VLOAD    GOTO
000855: 35,2740           00001                                    RATT
000856: 35,2741           02367                                    RTRN
000857:


000859:                                                                                                  #  ..... S34/35.5 .....
000860:
000861:                                                                                                  #  SUBROUTINES USED
000862:                                                                                                  #        BANKCALL
000863:                                                                                                  #        GOFLASH
000864:                                                                                                  #        GOTOPOOH
000865:                                                                                                  #        S34/35.3
000866:                                                                                                  #        S34/35.4
000867:                                                                                                  #        VNPOOH
000868:
000869: 35,2742           43020        S34/35.5           STQ      BON
000870: 35,2743           02370                                    SUBEXIT
000871: 35,2744           01311                                    FINALFLG
000872: 35,2745           72751                                    FLAGON
000873: 35,2746           52014                           SET      GOTO
000874: 35,2747           00470                                    UPDATFLG
000875: 35,2750           72773                                    FLAGOFF
000876: 35,2751           77775        FLAGON             VLOAD
000877: 35,2752           03405                                    DELVLVC
000878: 35,2753           02611                           STORE    DVLOS                                 #  SAVE DELTA V BEFORE DISPLAY
000879: 35,2754           77776                           EXIT
000880: 35,2755           34620                           CAF      V06N81
000881: 35,2756           04575                           TC       VNPOOH
000882: 35,2757           06006                           TC       INTPRET
000883: 35,2760           52375                           VLOAD    VSU                                   #  TEST FOR OVERWRITE OF COMPUTED
000884: 35,2761           03405                                    DELVLVC                               #                       DELTA V
000885: 35,2762           02611                                    DVLOS
000886: 35,2763           53046                           ABVAL    BZE
000887: 35,2764           72767                                    NOCHG                                 #  NO OVERWRITE
000888: 35,2765           77624                           CALL
000889: 35,2766           72617                                    S34/35.3                              #  COMPUTE NEW TARGET VECTOR
000890: 35,2767           77214        NOCHG              CLEAR    VLOAD
000891: 35,2770           01267                                    XDELVFLG
000892: 35,2771           03646                                    DELVEET3
000893: 35,2772           03646                           STORE    DELVSIN
000894: 35,2773           77624        FLAGOFF            CALL
000895: 35,2774           72662                                    S34/35.4
000896: 35,2775           77776                           EXIT
000897: 35,2776           34617                           CAF      V06N59
000898: 35,2777           04575                           TC       VNPOOH
000899: 35,3000           06006                           TC       INTPRET
000900: 35,3001           77650                           GOTO
000901: 35,3002           02370                                    SUBEXIT
000902:


000904:                                                                                                  #  ..... VN1645 .....
000905:
000906:                                                                                                  #  SUBROUTINES USED
000907:                                                                                                  #        P3XORP7X
000908:                                                                                                  #        GET+MGA
000909:                                                                                                  #        BANKCALL
000910:                                                                                                  #        DELAYJOB
000911:                                                                                                  #        COMPTGO
000912:                                                                                                  #        GOFLASHR
000913:                                                                                                  #        GOTOPOOH
000914:                                                                                                  #        FLAGUP
000915:
000916: 35,3003           71220        VN1645             STQ      DLOAD
000917: 35,3004           02370                                    SUBEXIT
000918: 35,3005           33124                                    DP-.01
000919: 35,3006           03626                           STORE    +MGA                                  #  MGA = -.01
000920: 35,3007           71214                           BOFF     DLOAD
000921: 35,3010           01351                                    FINALFLG
000922: 35,3011           73031                                    GET45
000923: 35,3012           33124                                    DP-.01
000924: 35,3013           77615                           DAD
000925: 35,3014           33124                                    DP-.01
000926: 35,3015           03626                           STORE    +MGA                                  #  MGA = -.02
000927: 35,3016           77414                           BOFF     EXIT
000928: 35,3017           01742                                    REFSMFLG
000929: 35,3020           73031                                    GET45
000930: 35,3021           03104                           TC       P3XORP7X
000931: 35,3022           03024                           TC       +2                                    #  P3X
000932: 35,3023           03032                           TC       GET45      +1                         #  P7X
000933: 35,3024           06006                           TC       INTPRET
000934: 35,3025           41575                           VLOAD    PUSH
000935: 35,3026           03646                                    DELVSIN
000936: 35,3027           77624                           CALL                                           #  COMPUTE MGA
000937: 35,3030           10654                                    GET+MGA
000938: 35,3031           77776        GET45              EXIT
000939: 35,3032           03310                           TC       COMPTGO                               #  INITIATE TASK TO UPDATE TTOGO
000940: 35,3033           31770                           CA       SUBEXIT
000941: 35,3034           55766                           TS       QSAVED
000942: 35,3035           35041                           CAF      1SEC
000943: 35,3036           04662                           TC       BANKCALL
000944: 35,3037           01732                           CADR     DELAYJOB
000945: 35,3040           34621                           CAF      V16N45                                #  TRKMKCNT, TTOGO, +MGA
000946: 35,3041           04662                           TC       BANKCALL
000947: 35,3042           20720                           CADR     GOFLASH
000948: 35,3043           03046                           TC       KILCLOCK                              #  TERMINATE
000949: 35,3044           03051                           TC       N45PROC                               #  PROCEED
000950: 35,3045           03061                           TC       CLUPDATE                              #  RECYCLE - RETURN FOR INITIAL COMPUTATION
000951: 35,3046           30005        KILCLOCK           CA       Z
000952: 35,3047           54000                           TS       DISPDEX


000954: 35,3050           04106                           TC       GOTOPOOH
000955: 35,3051           40076        N45PROC            CS       FLAGWRD2
000956: 35,3052           75012                           MASK     BIT6
000957: 35,3053           00006                           EXTEND
000958: 35,3054           13046                           BZF      KILCLOCK                              #  FINALFLG IS SET - FLASH V37 - AWAIT NEW PGM
000959: 35,3055           05412                           TC       PHASCHNG
000960: 35,3056           04024                           OCT      04024
000961: 35,3057           05546                           TC       UPFLAG                                #  SET
000962: 35,3060           00047                           ADRES    FINALFLG                              #  FINALFLG
000963: 35,3061           30005        CLUPDATE           CA       Z
000964: 35,3062           54000                           TS       DISPDEX
000965: 35,3063           05412                           TC       PHASCHNG
000966: 35,3064           04024                           OCT      04024
000967: 35,3065           06006                           TC       INTPRET
000968: 35,3066           52014                           CLEAR    GOTO
000969: 35,3067           00670                                    UPDATFLG
000970: 35,3070           02366                                    QSAVED
000971:


000973:                                                                                                  #  ..... DISPLAYE .....
000974:
000975:                                                                                                  #  SUBROUTINES USED
000976:                                                                                                  #        BANKCALL
000977:                                                                                                  #        GOFLASHR
000978:                                                                                                  #        GOTOPOOH
000979:                                                                                                  #        BLANKET
000980:                                                                                                  #        ENDOFJOB
000981:
000982: 35,3071           00006        DISPLAYE           EXTEND
000983: 35,3072           23340                           QXCH     NORMEX
000984: 35,3073           34615                           CAF      V06N55
000985: 35,3074           04662                           TCR      BANKCALL


000999: 35,3075           21057                           CADR     GOFLASHR
001000: 35,3076           14106                           TCF      GOTOPOOH
001001: 35,3077           01340                           TC       NORMEX
001002: 35,3100           13073                           TCF      -5


001004: 35,3101           35017                           CAF      BIT1                                  #  BLANK R1
001005: 35,3102           05526                           TCR      BLANKET
001006: 35,3103           15217                           TCF      ENDOFJOB
001007:


001009:                                                                                                  #  ..... P3XORP7X .....
001010:
001011: 35,3104           37713        P3XORP7X           CAF      HIGH9
001012: 35,3105           71011                           MASK     MODREG
001013: 35,3106           00006                           EXTEND
001014: 35,3107           13111                           BZF      +2
001015: 35,3110           24002                           INCR     Q
001016: 35,3111           00002                           RETURN
001017:
001018:                                                                                                  #  ..... VNPOOH .....
001019:
001020:                                                                                                  #  SUBROUTINES USED
001021:                                                                                                  #        BANKCALL
001022:                                                                                                  #        GOFLASH
001023:                                                                                                  #        GOTOPOOH
001024:
001025:    4000                                           SETLOC   P30SUBS
001026:    4000                                           BANK
001027:
001028:    4575           00006        VNPOOH             EXTEND
001029:    4576           23767                           QXCH     RTRN
001030:    4577           55765                           TS       VERBNOUN
001031:    4600           34610                           CAF      VNBANK                                #  ***** THIS ROUTINE MUST REMAIN IN
001032:    4601           56004                           XCH      FBANK                                 #        FIXED-FIXED *****
001033:    4602           55063                           TS       TBASE5                                #  * WATCH OUT *
001034:
001035:    4603           31765                           CA       VERBNOUN
001036:    4604           04662                           TCR      BANKCALL
001037:    4605           20720                           CADR     GOFLASH
001038:    4606           14106                           TCF      GOTOPOOH
001039:    4607           14611                           TCF      +2
001040:    4610           04603        VNBANK             TC       -5
001041:
001042:    4611           31063                           CA       TBASE5
001043:    4612           54004                           TS       FBANK
001044:    4613           01767                           TC       RTRN
001045:


001047:                                                                                                  #  ..... CONSTANTS .....
001048:
001049:    4614           01445        V06N37             VN       0637
001050:    4615           01467        V06N55             VN       0655
001051:    4616           01472        V06N58             VN       0658
001052:    4617           01473        V06N59             VN       0659
001053:    4620           01521        V06N81             VN       0681
001054:    4621           04055        V16N45             VN       1645
001055: 35,2000                                           SETLOC   CSI/CDH
001056: 35,2000                                           BANK
001057:
001058: 35,3112           14441 37325  TWOPI              2DEC     6.283185307 B-4
001059: 35,3114           00001 20650  MAX250             2DEC     25         E3
001060: 35,3116           12525 12525  THIRD              2DEC     .333333333
001061: 35,3120           00004 21505  ELEPS              2DEC     .27777777  E-3
001062: 35,3122           00002        DECTWO             OCT      2
001063: 35,3123           77777        DP-.01             OCT      77777                                 #  CONSTANTS
001064: 35,3124           61337                           OCT      61337                                 #  ADJACENT      -.01 FOR MGA DSP
001065: 35,3125           01252 25253  EPSFOUR            2DEC     .0416666666
001066:


001068:                                                                                                  #  ..... INITVEL .....
001069:                                                                                                  #  MOD NO -1                     LOG SECTION - P34-P35, P74-P75
001070:                                                                                                  #  MOD BY WHITE.P                DATE  21NOV67
001071:
001072:                                                                                                  #  FUNCTIONAL DESCRIPTION
001073:                                                                                                  #        THIS SUBROUTINE COMPUTES THE REQUIRED INITIAL VELOCITY VECTOR FOR
001074:                                                                                                  #        A TRAJECTORY OF SPECIFIED TRANSFER TIME BETWEEN SPECIFIED INITIAL
001075:                                                                                                  #        AND TARGET POSITIONS.  THE TRAJECTORY MAY BE EITHER CONIC OR
001076:                                                                                                  #        PRECISION DEPENDING ON AN INPUT PARAMETER (NAMELY, NUMBER OF
001077:                                                                                                  #        OFFSETS).  IN ADDITION, IN THE PRECISION TRAJECTORY CASE, THE
001078:                                                                                                  #        SUBROUTINE ALSO COMPUTES AN OFFSET TARGET VECTOR, TO BE USED
001079:                                                                                                  #        DURING PURE-CONIC CROSS-PRODUCT STEERING.  THE OFFSET TARGET
001080:                                                                                                  #        VECTOR IS THE TERMINAL POSITION VECTOR OF A CONIC TRAJECTORY WHICH
001081:                                                                                                  #        HAS THE SAME INITIAL STATE AS A PRECISION TRAJECTORY WHOSE
001082:                                                                                                  #        TERMINAL POSITION VECTOR IS THE SPECIFIED TARGET VECTOR.
001083:
001084:                                                                                                  #        IN ORDER TO AVOID THE INHERENT SINGULARITIES IN THE 180 DEGREE
001085:                                                                                                  #        TRANSFER CASE WHEN THE (TRUE OR OFFSET) TARGET VECTOR MAY BE
001086:                                                                                                  #        SLIGHTLYOUT OF THE ORBITAL PLANE, THIS SUBROUTINE ROTATES THIS
001087:                                                                                                  #        VECTOR INTO A PLANE DEFINED BY THE INPUT INITIAL POSITION VECTOR
001088:                                                                                                  #        AND ANOTHER INPUT VECTOR (USUALLY THE INITIAL VELOCITY VECTOR),
001089:                                                                                                  #        WHENEVER THE INPUT TARGET VECTOR LIES INSIDE A CONE WHOSE VERTEX
001090:                                                                                                  #        IS THE ORIGIN OF COORDINATES, WHOSE AXIS IS THE 180 DEGREE
001091:                                                                                                  #        TRANSFER DIRECTION, AND WHOSE CONE ANGLE IS SPECIFIED BY THE USER.
001092:
001093:                                                                                                  #        THE LAMBERT SUBROUTINE IS UTILIZED FOR THE CONIC COMPUTATIONS AND
001094:                                                                                                  #        THE COASTING INTEGRATION SUBROUTINE IS UTILIZED FOR THE PRECISION
001095:                                                                                                  #        TRAJECTORY COMPUTATIONS.
001096:
001097:                                                                                                  #  CALLING SEQUENCE
001098:                                                                                                  #        L       CALL
001099:                                                                                                  #        L+1             INITVEL
001100:                                                                                                  #        L+2     (RETURN - ALWAYS)
001101:
001102:                                                                                                  #  INPUT
001103:                                                                                                  #        (1)     RINIT           INITIAL POSITION RADIUS VECTOR
001104:                                                                                                  #        (2)     VINIT           INITIAL POSITION VELOCITY VECTOR
001105:                                                                                                  #        (3)     RTARG           TARGET POSITION RADIUS VECTOR
001106:                                                                                                  #        (4)     DELLT4          DESIRED TIME OF FLIGHT FROM RINIT TO RTARG
001107:                                                                                                  #        (5)     INTIME          TIME OF RINIT
001108:                                                                                                  #        (6)     0D              NUMBER OF ITERATIONS OF LAMBERT/INTEGRVS
001109:                                                                                                  #        (7)     2D              ANGLE TO 180 DEGREES WHEN ROTATION STARTS
001110:                                                                                                  #        (8)     RTX1            -2 FOR EARTH, -10D FOR LUNAR
001111:                                                                                                  #        (9)     RTX2            COORDINATE SYSTEM ORIGIN - 0 FOR EARTH, 2 FOR LUNAR
001112:                                                                                                  #        PUSHLOC SET AT 4D
001113:


001115:                                                                                                  #  OUTPUT
001116:                                                                                                  #        (1)     RTARG           OFFSET TARGET POSITION VECTOR
001117:                                                                                                  #        (2)     VIPRIME         MANEUVER VELOCITY REQUIRED
001118:                                                                                                  #        (3)     VTPRIME         VELOCITY AT TARGET AFTER MANEUVER
001119:                                                                                                  #        (4)     DELVEET3        DELTA VELOCITY REQUIRED FOR MANEUVER
001120:
001121:                                                                                                  #  SUBROUTINES USED
001122:                                                                                                  #        LAMBERT
001123:                                                                                                  #        INTSTALL
001124:                                                                                                  #        INTEGRVS
001125:
001126: 11,2000                                           SETLOC   INTVEL
001127: 11,2000                                           BANK
001128:
001129: 11,2000                                           COUNT    11/INITV
001130: 11,2000           77614        INITVEL            SET                                            #  COGA GUESS NOT AVAILABLE
001131: 11,2001           00475                                    GUESSW
001132: 11,2002           44175        HAVEGUES           VLOAD    STQ
001133: 11,2003           03415                                    RTARG
001134: 11,2004           01340                                    NORMEX
001135: 11,2005           03604                           STORE    RTARG1
001136: 11,2006           46135                           SLOAD    BHIZ
001137: 11,2007           03747                                    RTX2
001138: 11,2010           22022                                    INITVEL1
001139: 11,2011           72575                           VLOAD    VSL2
001140: 11,2012           03570                                    RINIT                                 #  B29
001141: 11,2013           27570                           STOVL    RINIT                                 #  B27
001142: 11,2014           03576                                    VINIT                                 #  B7
001143: 11,2015           77752                           VSL2
001144: 11,2016           27576                           STOVL    VINIT                                 #  B5
001145: 11,2017           03604                                    RTARG1
001146: 11,2020           77752                           VSL2
001147: 11,2021           03604                           STORE    RTARG1
001148:
001149:                                                                                                  #  INITIALIZATION
001150:
001151: 11,2022           71331        INITVEL1           SSP      DLOAD                                 #  SET ITCTR TO -1,LOAD MPAC WITH E4 (PL 2D)
001152: 11,2023           03505                                    ITCTR
001153: 11,2024           77776                                    0          -1
001154: 11,2025           70546                           COSINE   SR1                                   #  CALCULATE COSINE (E4) (+2)
001155: 11,2026           17630                           STODL    COZY4                                 #  SET COZY4 TO COSINE (E4) (PL 0D)
001156: 11,2027           67154                           LXA,2    SXA,2
001157: 11,2030           00154                                    MPAC
001158: 11,2031           02703                                    VTARGTAG                              #  SET VTARGTAG TO 0D (SP)
001159: 11,2032           77775                           VLOAD
001160: 11,2033           03570                                    RINIT
001161: 11,2034           26657                           STOVL    R1VEC                                 #  R1VEC EQ RINIT
001162: 11,2035           03604                                    RTARG1


001164: 11,2036           16665                           STODL    R2VEC                                 #  R2VEC EQ RTARG
001165: 11,2037           03423                                    DELLT4
001166: 11,2040           02673                           STORE    TDESIRED                              #  TDESIRED EQ DELLT4
001167: 11,2041           77201                           SETPD    VLOAD
001168: 11,2042           00001                                    0D                                    #  INITIALIZE PL TO 0D
001169: 11,2043           03570                                    RINIT                                 #  MPAC EQ RINIT (+29)
001170: 11,2044           41456                           UNIT     PUSH                                  #  UNIT(RI) (+1)         (PL 6D)
001171: 11,2045           53435                           VXV      UNIT
001172: 11,2046           03576                                    VINIT                                 #  MPAC EQ UNIT(RI) X VI (+8)
001173: 11,2047           26676                           STOVL    UN
001174: 11,2050           03604                                    RTARG1
001175: 11,2051           50256                           UNIT     DOT                                   #  TEMP=URT.URI (+2)     (PL 0D)
001176: 11,2052           43015                           DAD      CLEAR
001177: 11,2053           03630                                    COZY4
001178: 11,2054           03665                                    NORMSW
001179: 11,2055           03630                           STORE    COZY4
001180: 11,2056           43044        INITVEL2           BPL      SET
001181: 11,2057           22101                                    INITVEL3                              #  UN CALCULATED IN LAMBERT
001182: 11,2060           03465                                    NORMSW
001183:
001184:                                                                                                  #  ROTATE RC INTO YC PLANE - SET UNIT NORMAL TO YC
001185:
001186: 11,2061           41575                           VLOAD    PUSH                                  #                                   (PL 6D)
001187: 11,2062           02665                                    R2VEC                                 #  RC TO 6D (+29)
001188: 11,2063           63246                           ABVAL    PDVL                                  #  RC TO MPAC, ABVAL(RC) (+29) TO OD(PL 2D)
001189: 11,2064           46206                           PUSH     VPROJ                                 #                                   (PL 8D)
001190: 11,2065           02676                                    UN
001191: 11,2066           51352                           VSL2     BVSU
001192: 11,2067           74256                           UNIT     VXSC                                  #                                   (PL 0D)
001193: 11,2070           77772                           VSL1
001194: 11,2071           02665                           STORE    R2VEC
001195: 11,2072           67351                           TLOAD    SLOAD
001196: 11,2073           11563                                    ZEROVEC
001197: 11,2074           03505                                    ITCTR
001198: 11,2075           77244                           BPL      VLOAD
001199: 11,2076           22101                                    INITVEL3
001200: 11,2077           02665                                    R2VEC
001201: 11,2100           03604                           STORE    RTARG1
001202: 11,2101           63345        INITVEL3           DLOAD    PDVL                                  #                                (PL 2D)
001203: 11,2102           27735                                    MUEARTH                               #  POSITIVE VALUE
001204: 11,2103           02665                                    R2VEC
001205: 11,2104           63256                           UNIT     PDVL                                  #  2D = UNIT(R2VEC)              (PL 8D)
001206: 11,2105           02657                                    R1VEC
001207: 11,2106           41456                           UNIT     PUSH                                  #  8D = UNIT(R1VEC)              (PL 14D)
001208: 11,2107           57435                           VXV      VCOMP                                 #  -N = UNIT(R2VEC) X UNIT(R1VEC)
001209: 11,2110           00003                                    2D
001210: 11,2111           77606                           PUSH                                           #                                (PL 20D)
001211: 11,2112           71350                           LXA,1    DLOAD
001212: 11,2113           03745                                    RTX1
001213: 11,2114           00023                                    18D
001214: 11,2115           62040                           BMN      INCR,1


001216: 11,2116           22120                                    +2
001217: 11,2117           77767                           DEC      -8         B-14
001218: 11,2120           67310                           INCR,1   SLOAD
001219: 11,2121           00012                                    10D
001220: 11,2122           00047                                    X1
001221: 11,2123           77230                           BHIZ     VLOAD                                 #                        (PL 14D)
001222: 11,2124           22126                                    +2
001223: 11,2125           41476                           VCOMP    PUSH                                  #                        (PL 20 D)
001224: 11,2126           77775                           VLOAD                                          #                        (PL 14D)
001225: 11,2127           50235                           VXV      DOT                                   #                        (PL 2D)
001226: 11,2130           71244                           BPL      DLOAD                                 #                        (PL 0D)
001227: 11,2131           22133                                    INITVEL4
001228: 11,2132           41476                           DCOMP    PUSH                                  #                        (PL 2D)
001229: 11,2133           67154        INITVEL4           LXA,2    SXA,2
001230: 11,2134           00000                                    0D
001231: 11,2135           02674                                    GEOMSGN
001232:
001233:                                                                                                  #  SET INPUTS UP FOR LAMBERT
001234:
001235: 11,2136           45150                           LXA,1    CALL
001236: 11,2137           03745                                    RTX1
001237:                                                                                                  #   OPERATE THE LAMBERT CONIC ROUTINE (COASTFLT SUBROUTINE)
001238:
001239: 11,2140           25224                                    LAMBERT
001240:
001241:                                                                                                  #        DELETE THRU 4521
001242:                                                                                                  #  ARRIVED AT SOLUTION IS GOOD ENOUGH ACCORDING TO SLIGHTLY WIDER BOUNDS.
001243:
001244: 11,2141           77214                           CLEAR    VLOAD
001245: 11,2142           00675                                    GUESSW
001246: 11,2143           02746                                    VVEC
001247:
001248:                                                                                                  #  STORE CALCULATED INITIAL VELOCITY REQUIRED IN VIPRIME
001249:
001250: 11,2144           17612                           STODL    VIPRIME                               #  INITIAL VELOCITY REQUIRED (+7)
001251:
001252:                                                                                                  #     IF NUMIT IS ZERO, CONTINUE AT INITVELB, OTHERWISE
001253:                                                                                                  #  SET UP INPUTS FOR ENCKE INTEGRATION (INTEGRVS).
001254:
001255: 11,2145           02704                                    VTARGTAG
001256: 11,2146           45030                           BHIZ     CALL
001257: 11,2147           22224                                    INITVEL7
001258: 11,2150           27442                                    INTSTALL
001259: 11,2151           43135                           SLOAD    CLEAR
001260: 11,2152           03747                                    RTX2
001261: 11,2153           00263                                    MOONFLAG
001262: 11,2154           43030                           BHIZ     SET
001263: 11,2155           22157                                    INITVEL5
001264: 11,2156           00063                                    MOONFLAG
001265: 11,2157           77775        INITVEL5           VLOAD
001266: 11,2160           03570                                    RINIT
001267: 11,2161           02657                           STORE    R1VEC


001269: 11,2162           25535                           STOVL    RCV
001270: 11,2163           03612                                    VIPRIME
001271: 11,2164           15543                           STODL    VCV
001272: 11,2165           03503                                    INTIME
001273: 11,2166           01517                           STORE    TET
001274: 11,2167           43015                           DAD      CLEAR
001275: 11,2170           03423                                    DELLT4
001276: 11,2171           01673                                    INTYPFLG
001277: 11,2172           34041                           STCALL   TDEC1
001278: 11,2173           27135                                    INTEGRVS
001279: 11,2174           77775                           VLOAD
001280: 11,2175           00025                                    VATT1
001281: 11,2176           02705                           STORE    VTARGET
001282:
001283:                                                                                                  #  IF ITERATION COUNTER (ITCTR) EQ NO. ITERATIONS (NUMIT), CONTINUE AT
001284:                                                                                                  #  INITVELC, OTHERWISE REITERATE LAMBERT AND ENCKE
001285:
001286: 11,2177           63154                           LXA,2    INCR,2
001287: 11,2200           03504                                    ITCTR
001288: 11,2201           00001                                    1D                                    #  INCREMENT ITCTR
001289: 11,2202           55134                           SXA,2    XSU,2
001290: 11,2203           03504                                    ITCTR
001291: 11,2204           02703                                    VTARGTAG
001292: 11,2205           46135                           SLOAD    BHIZ                                  #  IF SP(MPAC) EQ 0, CONTINUE AT INITVELC
001293: 11,2206           00050                                    X2
001294: 11,2207           22221                                    INITVEL6
001295:
001296:                                                                                                  #  OFFSET CONIC TARGET VECTOR
001297:
001298: 11,2210           52375                           VLOAD    VSU
001299: 11,2211           03604                                    RTARG1
001300: 11,2212           00017                                    RATT1
001301: 11,2213           77655                           VAD
001302: 11,2214           02665                                    R2VEC
001303: 11,2215           16665                           STODL    R2VEC
001304: 11,2216           03630                                    COZY4
001305: 11,2217           77650                           GOTO
001306: 11,2220           22056                                    INITVEL2                              #  CONTINUE ITERATING AT INITVEL2
001307:
001308:                                                                                                  #  COMPUTE THE DELTA VELOCITY
001309:
001310: 11,2221           77775        INITVEL6           VLOAD
001311: 11,2222           02665                                    R2VEC
001312: 11,2223           03604                           STORE    RTARG1
001313: 11,2224           52375        INITVEL7           VLOAD    VSU
001314: 11,2225           03612                                    VIPRIME
001315: 11,2226           03576                                    VINIT
001316: 11,2227           27646                           STOVL    DELVEET3                              #  DELVEET3 = VIPRIME-VINIT (+7)
001317: 11,2230           02705                                    VTARGET
001318: 11,2231           03620                           STORE    VTPRIME
001319: 11,2232           46135                           SLOAD    BHIZ
001320: 11,2233           03747                                    RTX2


001322: 11,2234           22251                                    INITVELX
001323: 11,2235           70575                           VLOAD    VSR2
001324: 11,2236           03620                                    VTPRIME
001325: 11,2237           27620                           STOVL    VTPRIME
001326: 11,2240           03612                                    VIPRIME
001327: 11,2241           77742                           VSR2
001328: 11,2242           27612                           STOVL    VIPRIME
001329: 11,2243           03604                                    RTARG1
001330: 11,2244           77742                           VSR2
001331: 11,2245           27604                           STOVL    RTARG1
001332: 11,2246           03646                                    DELVEET3
001333: 11,2247           77742                           VSR2
001334: 11,2250           03646                           STORE    DELVEET3
001335: 11,2251           77201        INITVELX           SETPD    VLOAD
001336: 11,2252           00001                                    0D
001337: 11,2253           03604                                    RTARG1
001338: 11,2254           37415                           STCALL   RTARG
001339: 11,2255           01340                                    NORMEX
001340:
001341:                                                                                                  #  ..... END OF INITVEL ROUTINE .....
001342:


001344:                                                                                                  #  ..... MIDGIM .....
001345:                                                                                                  #  MOD NO. 0, BY WILLMAN, SUBROUTINE RENDGUID, LOG P34-P35, P74-P75
001346:                                                                                                  #  REVISION 03, 17 FEB 67
001347:
001348:                                                                                                  #  IF THE ACTIVE VEHICLE IS DOING THE COMPUTATION, MIDGIM COMPUTES
001349:                                                                                                  #  THE POSITIVE MIDDLE GIMBAL ANGLE OF THE ACTIVE VEHICLE TO THE INPUT
001350:                                                                                                  #  DELTA VELOCITY VECTOR (0D IN PUSH LIST), OTHERWISE
001351:                                                                                                  #  MIDGIM CONVERTS THE INPUT DELTA VELOCITY VECTOR FROM INERTIAL COORDIN-
001352:                                                                                                  #  ATES TO LOCAL VERTICAL COORDINATES OF THE ACTIVE VEHICLE.
001353:
001354:                                                                                                  #  .. INPUTS ..
001355:                                                                                                  #    NAME     MEANING                                            UNITS/SCALING/MODE
001356:                                                                                                  #    AVFLAG   INT FLAG - 0 IS CSM ACTIVE, 1 IS LEM ACTIVE        BIT
001357:                                                                                                  #    COMPUTER INT FLAG - 0 IS LEM COMPUTER, 1 IS CSM COMPUTER    BIT
001358:                                                                                                  #    RINIT    ACTIVE VEHICLE RADIUS VECTOR                       METERS/CSEC (+7) VT
001359:                                                                                                  #    VINIT    ACTIVE VEHICLE VELOCITY VECTOR                     METERS/CSEC (+7) VT
001360:                                                                                                  #    0D(PL)   ACTIVE VEHICLE DELTA VELOCITY VECTOR               METERS/CSEC (+7) VT
001361:
001362:                                                                                                  #  .. OUTPUTS ..
001363:                                                                                                  #    NAME     MEANING                                            UNITS/SCALING/MODE
001364:                                                                                                  #    +MGA     + MIDDLE GIMBAL ANGLE                              REVOLUTIONS (+0) DP
001365:                                                                                                  #    DELVLVC  DELTA VELOCITY VECTOR IN LV COORD.                 METERS/CSEC (+7) VT
001366:                                                                                                  #    MGLVFLAG INT FLAG - 0 IS +MGA COMPUTED, 1 IS DELVLVC COMP.        -         BIT
001367:
001368:                                                                                                  #  .. CALLING SEQUENCE ..
001369:                                                                                                  #        L       CALL
001370:                                                                                                  #        L+1             MIDGIM
001371:                                                                                                  #        L+2     (RETURN - ALWAYS)
001372:
001373:                                                                                                  #  .. NO SUBROUTINES CALLED ..
001374:
001375:                                                                                                  #  .. DEBRIS - ERASEABLE TEMPORARY USAGE
001376:                                                                                                  #        A,Q,L, PUSH LIST, MPAC.
001377:
001378:                                                                                                  #  .. ALARMS - NONE ..
001379:


001381:                                                                                                  #  MIDDLE GIMBAL ANGLE COMPUTATION.
001382: 04,2000                                           SETLOC   MIDDGIM
001383: 04,2000                                           BANK
001384:
001385: 04,2645                                           COUNT*   $$/MIDG
001386:
001387: 04,2645           20000 00000  HALFREV            2DEC     1          B-1
001388:
001389: 04,2647           43014        MIDGIM             BON      BOFF
001390: 04,2650           01312                                    AVFLAG
001391: 04,2651           10667                                    MIDGIM1
001392: 04,2652           02747                                    COMPUTER
001393: 04,2653           10672                                    GET.LVC
001394:
001395:                                                                                                  #  COMPUTE +MGA IF AVFLAG AND COMPUTER HAVE OPPOSITE VALUES.
001396:
001397: 04,2654           53575        GET+MGA            VLOAD    UNIT                                  #  (PL 0D) V (+7) TO MPAC, UNITIZE UV (+1)
001398: 04,2655           72441                           DOT      SL1                                   #  DOT UV WITH Y(STABLE MEMBER) AND RESCALE
001399: 04,2656           01744                                    REFSMMAT   +6                         #  FROM +2 TO +1 FOR ASIN ROUTINE
001400: 04,2657           51136                           ARCSIN   BPL
001401: 04,2660           10664                                    SETMGA
001402: 04,2661           43215                           DAD      DAD                                   #  CONVERT -MGA TO +MGA BY
001403: 04,2662           10646                                    HALFREV                               #  ADDING ONE REVOLUTION
001404: 04,2663           10646                                    HALFREV
001405: 04,2664           03626        SETMGA             STORE    +MGA
001406: 04,2665           43414                           CLR      RVQ                                   #  CLEAR MGLVFLAG TO INDICATE +MGA CALC
001407: 04,2666           02675                                    MGLVFLAG                              #  AND EXIT
001408:
001409: 04,2667           77614        MIDGIM1            BOFF
001410: 04,2670           02747                                    COMPUTER
001411: 04,2671           10654                                    GET+MGA
001412:
001413:                                                                                                  #  COMPUTE DELVLVC IF AVFLAG AND COMPUTER HAVE SAME VALUES.
001414:
001415: 04,2672           53575        GET.LVC            VLOAD    UNIT                                  #  (PL 6D) R (+29) IN MPAC, UNITIZE UR
001416: 04,2673           03570                                    RINIT
001417: 04,2674           77676                           VCOMP                                          #  U(-R)
001418: 04,2675           00023                           STORE    18D                                   #  U(-R) TO 18D
001419: 04,2676           53435                           VXV      UNIT                                  #  U(-R)*V EQ V*U(R), U(V*R)
001420: 04,2677           03576                                    VINIT
001421: 04,2700           00015                           STORE    12D                                   #  U(V*R) TO 12D
001422: 04,2701           53435                           VXV      UNIT                                  #  U(V*R)*U(-R), U((V*R)*(-R))
001423: 04,2702           00023                                    18D
001424: 04,2703           24007                           STOVL    6D                                    #  TRANSFORMATION MATRIX IS IN 6D (+1)
001425: 04,2704           00001                                    0D                                    #  DELTA V (+7) IN 0D
001426: 04,2705           76521                           MXV      VSL1                                  #  CONVERT FROM INER COOR TO LV COOR (+8)
001427: 04,2706           00007                                    6D                                    #  AND SCALE +7 IN MPAC
001428: 04,2707           03405                           STORE    DELVLVC                               #  STORE IN DELVLVC (+7)
001429: 04,2710           43414                           SET      RVQ                                   #  SET MGLVFLAG TO INDICATE LVC CALC
001430: 04,2711           02475                                    MGLVFLAG                              #  AND EXIT
001431:
001432:                                                                                                  #  ..... END OF MIDGIM ROUTINE .....
001433:


001435: 04,2712           77160        SELECTMU           AXC,1    AXT,2
001436: 04,2713           00002                                    2D
001437: 04,2714           00000                                    0D
001438: 04,2715           77614                           BOFF
001439: 04,2716           04343                                    CMOONFLG
001440: 04,2717           10723                                    SETMUER
001441: 04,2720           77160                           AXC,1    AXT,2
001442: 04,2721           00012                                    10D
001443: 04,2722           00002                                    2D
001444: 04,2723           66143        SETMUER            DLOAD*   SXA,1
001445: 04,2724           11741                                    MUTABLE    +4,1
001446: 04,2725           03745                                    RTX1
001447: 04,2726           23752                           STODL*   RTSR1/MU
001448: 04,2727           11733                                    MUTABLE    -2,1
001449: 04,2730           54214                           BOFF     SR
001450: 04,2731           04343                                    CMOONFLG
001451: 04,2732           10734                                    RTRNMU
001452: 04,2733           20607                                    6D
001453: 04,2734           03750        RTRNMU             STORE    RTMU
001454: 04,2735           43134                           SXA,2    CLEAR
001455: 04,2736           03746                                    RTX2
001456: 04,2737           01271                                    FINALFLG
001457: 04,2740           77650                           GOTO
001458: 04,2741           73003                                    VN1645
001459:


001461:                                                                                                  #  ..... PERIAPO .....
001462:                                                                                                  #  MOD NO -1                     LOG SECTION - P34-P35, P74-P75
001463:                                                                                                  #  MOD BY WHITE.P                DATE 18JAN68
001464:
001465:                                                                                                  #  FUNCTIONAL DESCRIPTION
001466:
001467:                                                                                                  #        THIS SUBROUTINE COMPUTES THE TWO BODY APOCENTER AND PERICENTER
001468:                                                                                                  #        ALTITUDES GIVEN THE POSITION AND VELOCITY VECTORS FOR A POINT ON
001469:                                                                                                  #        THE TRAJECTORY AND THE PRIMARY BODY.
001470:
001471:                                                                                                  #        SETRAD IS CALLED TO DETERMINE THE RADIUS OF THE PRIMARY BODY.
001472:
001473:                                                                                                  #        APSIDES IS CALLED TO SOLVE FOR THE TWO BODY RADII OF APOCENTER AND
001474:                                                                                                  #        PERICENTER AND THE ECCENTRICITY OF THE TRAJECTORY.
001475:
001476:                                                                                                  #  CALLING SEQUENCE
001477:                                                                                                  #        L       CALL
001478:                                                                                                  #        L+1             PERIAPO
001479:                                                                                                  #        L+2     (RETURN - ALWAYS)
001480:
001481:                                                                                                  #  INPUT
001482:                                                                                                  #        (1)     RVEC    POSITION VECTOR IN METERS
001483:                                                                                                  #                        SCALE FACTOR - EARTH +29, MOON +27
001484:                                                                                                  #        (2)     VVEC    VELOCITY VECTOR IN METERS/CENTISECOND
001485:                                                                                                  #                        SCALE FACTOR - EARTH +7, MOON +5
001486:                                                                                                  #        (3)     X1      PRIMARY BODY INDICATOR
001487:                                                                                                  #                        EARTH -2, MOON -10
001488:
001489:                                                                                                  #  OUTPUT
001490:                                                                                                  #        (1)     2D      APOCENTER RADIUS IN METERS
001491:                                                                                                  #                        SCALE FACTOR - EARTH +29, MOON +27
001492:                                                                                                  #        (2)     4D      APOCENTER ALTITUDE IN METERS
001493:                                                                                                  #                        SCALE FACTOR - EARTH +29, MOON P27
001494:                                                                                                  #        (3)     6D      PERICENTER RADIUS IN METERS
001495:                                                                                                  #                        SCALE FACTOR - EARTH +29, MOON +27
001496:                                                                                                  #        (4)     8D      PERICENTER ALTITUDE IN METERS
001497:                                                                                                  #                        SCALE FACTOR - EARTH +29, MOON +27
001498:                                                                                                  #        (5)     ECC     ECCENTRICITY OF CONIC TRAJECTORY
001499:                                                                                                  #                        SCALE FACTOR - +3
001500:                                                                                                  #        (6)     XXXALT  RADIUS OF THE PRIMARY BODY IN METERS
001501:                                                                                                  #                        SCALE FACTOR - EARTH +29, MOON +27
001502:                                                                                                  #        (7)     PUSHLOC EQUALS 10D
001503:
001504:                                                                                                  #  SUBROUTINES USED
001505:                                                                                                  #        SETRAD


001507:                                                                                                  #        APSIDES
001508:
001509: 22,2000                                           SETLOC   APOPERI
001510: 22,2000                                           BANK
001511:
001512: 22,3151                                           COUNT*   $$/PERAP
001513:
001514: 22,3151           00302 17755  RPAD               2DEC     6373338    B-29                       #  STANDARD RADIUS OF PAD 37-B.
001515:                                                                                                  #  = 20 909 901.57 FT
001516:
001517: 22,3153           53754        PERIAPO1           LXA,2    VSR*
001518: 22,3154           03746                                    RTX2
001519: 22,3155           57176                                    0,2
001520: 22,3156           26746                           STOVL    VVEC
001521: 22,3157           53750                           LXA,1    VSR*
001522: 22,3160           03745                                    RTX1
001523: 22,3161           57176                                    0,2
001524: 22,3162           02657                           STORE    RVEC
001525: 22,3163           45020        PERIAPO            STQ      CALL
001526: 22,3164           01340                                    NORMEX
001527: 22,3165           45201                                    SETRAD
001528: 22,3166           37456                           STCALL   XXXALT
001529: 22,3167           25703                                    APSIDES
001530: 22,3170           41401                           SETPD    PUSH                                  #  2D = APOCENTER RADIUS         B29 OR B27
001531: 22,3171           00003                                    2D
001532: 22,3172           65225                           DSU      PDDL                                  #  4D = APOGEE ALTITUDE          B29 OR B27
001533: 22,3173           03456                                    XXXALT
001534: 22,3174           00001                                    0D
001535: 22,3175           45206                           PUSH     DSU                                   #  6D = PERICENTER RADIUS        B29 OR B27
001536: 22,3176           03456                                    XXXALT
001537: 22,3177           52006                           PUSH     GOTO                                  #  8D = PERIGEE ALTITUDE         B29 OR B27
001538: 22,3200           01340                                    NORMEX


001540:                                                                                                  #  SETRAD
001541: 22,3201           41545        SETRAD             DLOAD    PUSH
001542: 22,3202           05152                                    RPAD
001543: 22,3203           63130                           SXA,1    INCR,2
001544: 22,3204           00047                                    X2
001545: 22,3205           00002                                    2D
001546: 22,3206           46135                           SLOAD    BHIZ
001547: 22,3207           00050                                    X2
001548: 22,3210           45214                                    SETRADX
001549: 22,3211           51575                           VLOAD    ABVAL
001550: 22,3212           02026                                    RLS
001551: 22,3213           77725                           PDDL
001552: 22,3214           43545        SETRADX            DLOAD    RVQ
001553:


001555:                                                                                                  #  PRECSET
001556: 22,3215           77620        PRECSET            STQ
001557: 22,3216           01340                                    NORMEX
001558: 22,3217           36635                           STCALL   TDEC2
001559: 22,3220           27105                                    LEMPREC
001560: 22,3221           77624                           CALL
001561: 22,3222           45233                                    LEMSTORE
001562: 22,3223           77745                           DLOAD
001563: 22,3224           02635                                    TDEC2
001564: 22,3225           34041                           STCALL   TDEC1
001565: 22,3226           27071                                    CSMPREC
001566: 22,3227           77624                           CALL
001567: 22,3230           45243                                    CSMSTORE
001568: 22,3231           77650                           GOTO
001569: 22,3232           01340                                    NORMEX
001570: 22,3233           43175        LEMSTORE           VLOAD    BOFF
001571: 22,3234           00001                                    RATT
001572: 22,3235           01352                                    AVFLAG
001573: 22,3236           45247                                    PASSIVE
001574: 22,3237           27540        ACTIVE             STOVL    RACT3
001575: 22,3240           00007                                    VATT
001576: 22,3241           03546                           STORE    VACT3
001577: 22,3242           77616                           RVQ
001578: 22,3243           43175        CSMSTORE           VLOAD    BOFF
001579: 22,3244           00001                                    RATT
001580: 22,3245           01352                                    AVFLAG
001581: 22,3246           45237                                    ACTIVE
001582: 22,3247           27554        PASSIVE            STOVL    RPASS3
001583: 22,3250           00007                                    VATT
001584: 22,3251           03562                           STORE    VPASS3
001585: 22,3252           77616                           RVQ
001586:


001588:                                                                                                  #  VECSHIFT
001589: 22,3253           53754        VECSHIFT           LXA,2    VSR*
001590: 22,3254           03746                                    RTX2
001591: 22,3255           57176                                    0,2
001592: 22,3256           63350                           LXA,1    PDVL
001593: 22,3257           03745                                    RTX1
001594: 22,3260           63257                           VSR*     PDVL
001595: 22,3261           57176                                    0,2
001596: 22,3262           77616                           RVQ
001597:


001599:                                                                                                  #  SHIFTR1
001600: 22,3263           53754        SHIFTR1            LXA,2    SL*
001601: 22,3264           03746                                    RTX2
001602: 22,3265           57576                                    0,2
001603: 22,3266           77616                           RVQ
001604:


001606:                                                                                                  #  PROGRAM DESCRIPTION
001607:
001608:                                                                                                  #  SUBROUTINE NAME       R36     OUT-OF-PLANE RENDEZVOUS ROUTINE
001609:                                                                                                  #  MOD NO. 2             DATE 2 JANUARY 1969
001610:                                                                                                  #  MOD BY A.W.BANCROFT   LOG SECTION EXTENDED VERBS
001611:
001612:                                                                                                  #  FUNCTIONAL DESCRIPTION
001613:
001614:                                                                                                  #  TO DISPLAY AT ASTRONAUT REQUEST LGC CALCULATED RENDEZVOUS
001615:                                                                                                  #  OUT-OF-PLANE PARAMETERS (Y, YDOT, PSI).  (REQUESTED BY DSKY).
001616:
001617:                                                                                                  #  CALLING SEQUENCE
001618:                                                                                                  #        ASTRONAUT REQUEST THROUGH DSKY V 90 E
001619:
001620:                                                                                                  #  SUBROUTINES CALLED
001621:                                                                                                  #        EXDSPRET
001622:                                                                                                  #        GOMARKF
001623:                                                                                                  #        CSMPREC
001624:                                                                                                  #        LEMPREC
001625:                                                                                                  #        SGNAGREE
001626:                                                                                                  #        LOADTIME
001627:
001628:                                                                                                  #  NORMAL EXIT MODES
001629:                                                                                                  #        ASTRONAUT REQUEST THROUGH DSKY TO TERMINATE PROGRAM V 34 E
001630:
001631:                                                                                                  #  ALARM OR ABORT EXIT MODES
001632:                                                                                                  #        NONE
001633:
001634:                                                                                                  #  OUTPUT
001635:                                                                                                  #        DECIMAL DISPLAY OF TIME, Y, YDOT AND PSI
001636:
001637:                                                                                                  #        DISPLAYED VALUES Y, YDOT, AND PSI, ARE STORED IN ERASABLE
001638:                                                                                                  #        REGISTERS RANGE, RRATE AND RTHETA RESPECTIVELY.
001639:
001640:                                                                                                  #  ERASABLE INITIALIZATION REQUIRED
001641:                                                                                                  #        CSM AND LEM STATE VECTORS
001642:
001643:                                                                                                  #  DEBRIS
001644:                                                                                                  #        CENTRALS A,Q,L
001645:                                                                                                  #        OTHER THOSE USED BY THE ABOVE LISTED SUBROUTINES
001646:
001647: 20,2164                                           BANK     20
001648: 20,2000                                           SETLOC   R36CM
001649: 20,2000                                           BANK


001651: 20,2164  E4,1726                                  EBANK=   RPASS36
001652:
001653: 20,2164  41,3725                                  SBANK=   R36A
001654: 20,2164                                           COUNT*   $$/R36
001655:
001656: 20,2164           35016        R36                CAF      TWO
001657: 20,2165           55051                           TS       OPTIONX
001658: 20,2166           35017                           CAF      ONE
001659: 20,2167           55052                           TS       OPTIONX    +1
001660: 20,2170           32200                           CAF      OPTION36                              #  V 04 N 12
001661: 20,2171           04662                           TC       BANKCALL
001662: 20,2172           20561                           CADR     GOXDSPF
001663: 20,2173           05534                           TC       ENDEXT                                #  TERMINATE
001664: 20,2174           02176                           TC       +2                                    #  PROCEED
001665: 20,2175           02170                           TC       -5                                    #  R2 LOADED VIA DSKY
001666: 20,2176           04701                           TC       POSTJUMP
001667: 20,2177           63725                           CADR     R36A
001668:
001669: 20,2200           01014        OPTION36           VN       0412
001670:
001671: 41,2000                                           SETLOC   R36LM
001672: 41,2000                                           BANK
001673:
001674: 41,3725           22007        R36A               ZL
001675: 41,3726           35021                           CAF      ZERO                                  #  SET TIME OF EVENT TO ZERO FOR FIRST
001676: 41,3727           53052                           DXCH     DSPTEMX                               #  DISPLAY
001677: 41,3730           23742                           LXCH     OPTIONY                               #  SAVE VEH. OPTION
001678: 41,3731           33773        R36P3              CAF      V06N16N
001679: 41,3732           04662                           TC       BANKCALL
001680: 41,3733           20561                           CADR     GOMARKF
001681: 41,3734           15534                           TCF      ENDEXT                                #  TERMINATE
001682: 41,3735           13737                           TCF      +2                                    #  PROCEED
001683: 41,3736           13731                           TCF      -5                                    #  RECYCLE FOR ASTRONAUT INPUT TIME
001684: 41,3737           53052                           DXCH     DSPTEMX
001685: 41,3740           00006                           EXTEND
001686: 41,3741           13762                           BZF      LREGCHK                               #  A-REG ZERO GOTO CHECK L-REG FOR ZERO
001687: 41,3742           52155        ASTROTIM           DXCH     MPAC                                  #  A-REG NON-ZERO, TIME = ASTRO INPUT TIME
001688: 41,3743           06006                           TC       INTPRET
001689: 41,3744           52034                           RTB      GOTO
001690: 41,3745           45716                                    DPMODE
001691: 41,3746           65521                                    R36INT
001692:
001693: 42,2000                                           SETLOC   R36LM1
001694: 42,2000                                           BANK
001695:
001696: 42,3521           00041        R36INT             STORE    TDEC1
001697: 42,3522           70535                           SLOAD    SR1
001698: 42,3523           02343                                    OPTIONY
001699: 42,3524           45030                           BHIZ     CALL
001700: 42,3525           65531                                    R36PROG2                              #  FOR CSM DISPLAY


001702: 42,3526           27071                                    THISPREC                              #  FOR LEM DISPLAY
001703: 42,3527           77650                           GOTO
001704: 42,3530           65533                                    R36PROG3
001705: 42,3531           77624        R36PROG2           CALL
001706: 42,3532           27105                                    OTHPREC
001707: 42,3533           63375        R36PROG3           VLOAD    PDVL
001708: 42,3534           00007                                    VATT
001709: 42,3535           00001                                    RATT                                  #  -
001710: 42,3536           02327                           STORE    RPASS36                               #  R
001711: 42,3537           63256                           UNIT     PDVL                                  #   P
001712: 42,3540           53435                           VXV      UNIT                                  #  -
001713: 42,3541           77626                           STADR
001714: 42,3542           61442                           STODL    UNP36                                 #  U
001715: 42,3543           00015                                    TAT
001716: 42,3544           00041                           STORE    TDEC1
001717: 42,3545           70535                           SLOAD    SR1
001718: 42,3546           02343                                    OPTIONY
001719: 42,3547           45030                           BHIZ     CALL
001720: 42,3550           65554                                    R36PROG4                              #  FOR CSM DISPLAY
001721: 42,3551           27105                                    OTHPREC                               #  FOR LEM DISPLAY
001722: 42,3552           77650                           GOTO
001723: 42,3553           65556                                    R36PROG5
001724: 42,3554           77624        R36PROG4           CALL
001725: 42,3555           27071                                    THISPREC
001726: 42,3556           63375        R36PROG5           VLOAD    PDVL                                  #                        -
001727: 42,3557           00007                                    VATT                                  #  VELOCITY VECTOR       V       00D
001728: 42,3560           00001                                    RATT                                  #                         A
001729: 42,3561           77725                           PDDL
001730: 42,3562           00015                                    TAT                                   #  SAVE TIME IN LOCATION 30D FOR REDISPLAY
001731: 42,3563           24037                           STOVL    30D                                   #                   -
001732: 42,3564           41406                           PUSH     PUSH                                  #  POSITION VECTOR  R   IN  06D AND 12D
001733: 42,3565           63245                           BVSU     PDVL                                  #                    A  -   -
001734: 42,3566           02327                                    RPASS36                               #  LINE OF SIGHT VECTOR R - R       12D
001735: 42,3567           72441                           DOT      SL1                                   #                        P   A
001736: 42,3570           02335                                    UNP36                                 #      -   -
001737: 42,3571           26321                           STOVL    RANGE                                 #  Y = U . R
001738: 42,3572           00001                                    00D                                   #           A
001739: 42,3573           72441                           DOT      SL1
001740: 42,3574           02335                                    UNP36                                 #  .   -   -
001741: 42,3575           26323                           STOVL    RRATE                                 #  Y = U . V
001742: 42,3576           00007                                    06D                                   #  -        A  -
001743: 42,3577           41456                           UNIT     PUSH                                  #  U  = UNIT ( R  )              18D
001744: 42,3600           47235                           VXV      VXV                                   #   RA          A
001745: 42,3601           00001                                    00D                                   #   -    -     -     -
001746: 42,3602           00023                                    18D                                   #  (U  X V ) X U   = U
001747: 42,3603           53552                           VSL2     UNIT                                  #    RA   A     RA    A
001748: 42,3604           52056                           UNIT     GOTO
001749: 42,3605           61600                                    R36B
001750:
001751: 40,2000                                           SETLOC   R36CM1


001753: 40,2000                                           BANK
001754:
001755: 40,3600           24001        R36B               STOVL    00D                                   #  UNIT HORIZONTAL IN FORWARD DIR. 00D
001756: 40,3601           00023                                    18D
001757: 40,3602           74241                           DOT      VXSC                                  #  -
001758: 40,3603           00015                                    12D                                   #  U
001759: 40,3604           77752                           VSL2                                           #   L
001760: 40,3605           53445                           BVSU     UNIT
001761: 40,3606           77656                           UNIT
001762: 40,3607           50206                           PUSH     DOT                                   #  LOS PROJECTED INTO HORIZONTAL  12D
001763: 40,3610           00001                                    00D                                   #  PLANE
001764: 40,3611           65552                           SL1      ARCCOS                                #               -   -
001765: 40,3612           26325                           STOVL    RTHETA                                #  PSI = ARCCOS(U . U )
001766: 40,3613           50235                           VXV      DOT                                   #                A   L
001767: 40,3614           00001                                    00D
001768: 40,3615           71244                           BPL      DLOAD
001769: 40,3616           63747                                    R36TAG2
001770: 40,3617           15343                                    DPPOSMAX
001771: 40,3620           77625                           DSU
001772: 40,3621           02325                                    RTHETA
001773: 40,3622           36325                           STCALL   RTHETA
001774: 40,3623           63747                                    R36TAG2
001775:
001776: 41,2000                                           SETLOC   R36LM
001777: 41,2000                                           BANK
001778:
001779: 41,3747           47145        R36TAG2            DLOAD    RTB
001780: 41,3750           00037                                    30D
001781: 41,3751           45544                                    SGNAGREE
001782: 41,3752           01052                           STORE    DSPTEMX
001783: 41,3753           77776                           EXIT
001784: 41,3754           33774                           CAF      V06N90N                               #  DISPLAY Y, YDOT, AND PSI
001785: 41,3755           04662                           TC       BANKCALL
001786: 41,3756           20561                           CADR     GOMARKF
001787: 41,3757           15534                           TCF      ENDEXT                                #  TERMINATE
001788: 41,3760           15534                           TCF      ENDEXT                                #  PROCEED, END OF PROGRAM
001789: 41,3761           13731                           TCF      R36P3                                 #  REDISPLAY OUTPUT
001790: 41,3762           56001        LREGCHK            XCH      L
001791: 41,3763           00006                           EXTEND
001792: 41,3764           13767                           BZF      ENTTIM2                               #  L-REG ZERO, SET TIME = PRESENT TIME
001793: 41,3765           56001                           XCH      L                                     #  L-REG NON ZERO, TIME = ASTRO INPUT TIME
001794: 41,3766           13742                           TCF      ASTROTIM
001795: 41,3767           06006        ENTTIM2            TC       INTPRET
001796: 41,3770           52034                           RTB      GOTO
001797: 41,3771           45510                                    LOADTIME
001798: 41,3772           65521                                    R36INT
001799: 41,3773           01420        V06N16N            VN       00616
001800: 41,3774           01532        V06N90N            VN       00690
001801: 41,3775  30,2000                                  SBANK=   LOWSUPER

End of include-file P34-P35,_P74-P75.agc.  Parent file is MAIN.agc


