
Source Code


000002:                                                                                                  ## Copyright:   Public domain.
000003:                                                                                                  ## Filename:    P40-P47.agc
000004:                                                                                                  ## Purpose:     A section of Comanche revision 044.
000005:                                                                                                  ##              It is part of the reconstructed source code for the
000006:                                                                                                  ##              original release of the flight software for the Command
000007:                                                                                                  ##              Module's (CM) Apollo Guidance Computer (AGC) for Apollo 10.
000008:                                                                                                  ##              The code has been recreated from a copy of Comanche 055. It
000009:                                                                                                  ##              has been adapted such that the resulting bugger words
000010:                                                                                                  ##              exactly match those specified for Comanche 44 in NASA drawing
000011:                                                                                                  ##              2021153D, which gives relatively high confidence that the
000012:                                                                                                  ##              reconstruction is correct.
000013:                                                                                                  ## Assembler:   yaYUL
000014:                                                                                                  ## Contact:     Ron Burkey <info@sandroid.org>.
000015:                                                                                                  ## Website:     www.ibiblio.org/apollo/index.html
000016:                                                                                                  ## Mod history: 2020-12-03 MAS  Created from Comanche 51.
000017:                                                                                                  ##              2020-12-12 RSB  Added justifying annotations for Mike
000018:                                                                                                  ##                              and Nik's reconstruction steps.
000019:                                                                                                  ##              2020-12-13 RSB  Incorporated feedback about the annotations.
000020:


000022:                                                                                                  #  PROGRAM DESCRIPTION ** P40CSM **
000023:
000024: 35,3504  E6,1466                                  EBANK=   DAPDATR1
000025: 31,3700                                           BANK     31
000026: 24,2000                                           SETLOC   P40S
000027: 24,2000                                           BANK
000028:
000029: 24,2073                                           COUNT    24/P40
000030:
000031: 24,2073           05560        P40CSM             TC       DOWNFLAG
000032: 24,2074           00023                           ADRES    ENG2FLAG
000033:
000034: 24,2075           06006                           TC       INTPRET
000035: 24,2076           43135                           SLOAD    BOFF
000036: 24,2077           03425                                    ECSTEER                               #  IS THIS AN EXTERNAL DELTA V BURN
000037: 24,2100           01347                                    XDELVFLG
000038: 24,2101           50104                                    P40S/C                                #  NO    CSTEER = ECSTEER
000039: 24,2102           77745                           DLOAD                                          #  YES   CSTEER = ZERO
000040: 24,2103           15335                                    HI6ZEROS
000041: 24,2104           17703        P40S/C             STODL    CSTEER
000042: 24,2105           10411                                    FENG                                  #  SET UP THRUST FOR P40 20,000 LBS
000043: 24,2106           17727        P40S/F             STODL    F                                     #  P41 ENTERS HERE
000044: 24,2107           03413                                    TIG                                   #  ORIGINAL TIG MAY BE SLIPPED BY P40S/SV
000045: 24,2110           03450                           STORE    NOMTIG                                #  SET ORIGINAL TIME OF IGNITION FOR S40.9
000046:
000047: 24,2111           77776                           EXIT
000048: 24,2112           04662                           TC       BANKCALL
000049: 24,2113           17653                           CADR     R02BOTH                               #  IMU STATUS CHECK
000050:
000051: 24,2114           06006        P40PVA             TC       INTPRET
000052: 24,2115           77624                           CALL
000053: 24,2116           34020                                    S40.1                                 #  COMPUTE VGTIG,UT
000054: 24,2117           77624                           CALL
000055: 24,2120           51574                                    S40.2,3                               #  COMPUTE PREFERRED ATTITUDE
000056: 24,2121           77414                           SET      EXIT
000057: 24,2122           01073                                    PFRATFLG
000058: 24,2123           02303        P40SXTY            TCR      SETMINDB   -1                         #  NARROW DEADBAND FOR MANEUVER (EBANK6)
000059: 24,2124           00003                           RELINT
000060: 24,2125           04662                           TC       BANKCALL
000061: 24,2126           56000                           CADR     R60CSM                                #  ATTITUDE MANEUVER
000062: 24,2127           45017                           CS       ONE                                   #  FOR UPDATEVG
000063: 24,2130           55742                           TS       NBRCYCLS
000064: 24,2131           05546                           TC       UPFLAG
000065: 24,2132           00155                           ADRES    TIMRFLAG                              #  ALLOW CLOCKTASK
000066:
000067: 24,2133           02326                           TC       P41/P40
000068: 24,2134           02343                           TC       P41/DSP                               #  P41
000069:
000070: 24,2135           32425        P40TTOG            CAF      V06N40                                #  INITIALIZE FOR CLOCKTASK WHICH IS CALLED


000072: 24,2136           55145                           TS       NVWORD1                               #  BELOW
000073:
000074: 24,2137           06006                           TC       INTPRET
000075: 24,2140           51575                           VLOAD    ABVAL                                 #  FOR R2
000076: 24,2141           03721                                    VGTIG
000077: 24,2142           17773                           STODL    VGDISP
000078: 24,2143           15335                                    HI6ZEROS
000079: 24,2144           03426                           STORE    DVTOTAL
000080: 24,2145           77776                           EXIT
000081:
000082: 24,2146           00006                           EXTEND
000083: 24,2147           33061                           DCA      STEERADS                              #  SET FOR UPDATEVG AND TEST FOR STEERING
000084: 24,2150           53223                           DXCH     AVEGEXIT                              #  AFTER AVERAGE G
000085:
000086: 24,2151           32420        P40GMB             CAF      P40CKLS2                              #  (4.1 PROTECTION)
000087: 24,2152           04662                           TC       BANKCALL
000088: 24,2153           21045                           CADR     GOPERF1
000089: 24,2154           12275                           TCF      POST41                                #  V34
000090: 24,2155           12435                           TCF      TST,TRIM                              #  V33
000091: 24,2156           45017        TRIMONLY           CS       BIT1                                  #  SET MRKRTEMP FOR GIMBAL TRIM (-1)
000092: 24,2157           55445                 +1        TS       MRKRTMP                               #  ENTRY FROM TST,TRIM
000093:
000094: 24,2160           35021                           CAF      ZERO                                  #  SET CNTR      +0 FOR RESTART LOGIC IN S40.6
000095: 24,2161           55447                           TS       CNTR                                  #        +0 SAYS NORMAL ENTRY.
000096:                                                                                                  #        +1 (PRE40.6) SAYS RESTART ENTRY
000097:
000098: 24,2162           35017                           CAF      ONE
000099: 24,2163           05245                           TC       WAITLIST
000100: 24,2164  E6,1466                                  EBANK=   DAPDATR1
000101: 24,2164           02252 40066                     2CADR    S40.6
000102:
000103: 24,2166           11445                           CCS      MRKRTMP                               #  TEST TO FIND TIME TO WAIT FOR GIMBAL TEST
000104: 24,2167           32417                           CAF      18SEC                                 #  PLUS, DELAY FOR 18 SECONDS
000105: 24,2170           12172                           TCF      +2                                    #  HOLE
000106: 24,2171           33064                           CAF      5SEC                                  #  DELAY FOR TRIM ONLY TASK
000107: 24,2172           04662                           TC       BANKCALL
000108: 24,2173           01732                           CADR     DELAYJOB
000109: 24,2174           05372                           TC       2PHSCHNG
000110: 24,2175           40026                           OCT      40026                                 #  6.2 = PRE40.6(-0CS), CLOKTASK(100CS)
000111: 24,2176           00234                           OCT      00234                                 #  4.23 = P40S/SV (PRIO12)
000112: 24,2177           35017        P40S/RS            CAF      ONE
000113: 24,2200           05245                           TC       WAITLIST                              #  P41/SDP
000114: 24,2201  E7,1412                                  EBANK=   TIG
000115: 24,2201           03260 50067                     2CADR    CLOKTASK
000116:
000117: 24,2203           00003                           RELINT
000118:
000119: 24,2204           03366        P40S/SV            TCR      E7SETTER                              #  JOB, 4.23 PRETECTS, PRIO12
000120: 24,2205  E7,1412                                  EBANK=   TIG


000122: 24,2205           06006                           TC       INTPRET
000123: 24,2206           45345                           DLOAD    DSU
000124: 24,2207           03413                                    TIG
000125: 24,2210           10416                                    SEC29.96
000126: 24,2211           00041                           STORE    TDEC1
000127:
000128: 24,2212           77624                           CALRB                                          #  RETURN IN BASIC
000129: 24,2213           27553                                    MIDTOAV1
000130: 24,2214           12216                           TCF      +2
000131: 24,2215           02237                           TC       P40SNEWM                              #  INTEGRATION TIME GREATER THAN ALLOWED
000132: 24,2216           00006        P40SET             EXTEND
000133: 24,2217           30155                           DCA      MPAC                                  #  DELTA TIME TO PREREAD (INT.INIT.)
000134: 24,2220           53673                           DXCH     P40TMP
000135: 24,2221           00006                           EXTEND
000136: 24,2222           43064                           DCS      5SECDP                                #  FOR TTGBLNK
000137: 24,2223           21673                           DAS      P40TMP
000138: 24,2224           00006                           EXTEND
000139: 24,2225           31673                           DCA      P40TMP
000140: 24,2226           05342                           TC       LONGCALL
000141: 24,2227  E7,1412                                  EBANK=   TIG
000142: 24,2227           02437 50067                     2CADR    TIGBLNK
000143:
000144: 24,2231           05412                           TC       PHASCHNG
000145: 24,2232           20214                           OCT      20214                                 #  4.21 = TIGBLNK (P40TMP CS)
000146:
000147: 24,2233           15217                           TCF      ENDOFJOB
000148: 24,2234           04662        P40BLNKR           TC       BANKCALL
000149: 24,2235           20703                           CADR     CLEANDSP                              #  REMOVE RESIDUE
000150: 24,2236           15217                           TCF      ENDOFJOB
000151: 24,2237  E7,1412                                  EBANK=   TIG
000152: 24,2237           00006        P40SNEWM           EXTEND
000153: 24,2240           31246                           DCA      PIPTIME1
000154: 24,2241           53413                           DXCH     TIG                                   #  SET NEW TIG FOR 06 40
000155: 24,2242           00006                           EXTEND
000156: 24,2243           32416                           DCA      SEC29.96
000157: 24,2244           21413                           DAS      TIG
000158: 24,2245           12216                           TCF      P40SET                                #  FOR LONGCALL OF TIG-30 (OR -35)
000159:
000160: 24,2246  E6,1466                                  EBANK=   DAPDATR1
000161: 24,2246           32426        POSTBURN           CAF      V16N40
000162: 24,2247           04662                           TC       BANKCALL
000163: 24,2250           20704                           CADR     REFLASH
000164: 24,2251           12275                           TCF      POST41                                #  V34 GO FINISH
000165: 24,2252           12254                           TCF      P40RCS                                #  PROCEED
000166: 24,2253           12246                           TCF      POSTBURN                              #  RECYCLE
000167: 24,2254           00006        P40RCS             EXTEND                                         #  V99N40 ENTERS HERE ON A P40 BYPASS SPS
000168: 24,2255           32462                           DCA      ACADN85
000169: 24,2256           53223                           DXCH     AVEGEXIT
000170: 24,2257           35042                           CAF      2SECS                                 #  WAIT FOR CALCN85 VIA AVEGEXIT
000171: 24,2260           04662                           TC       BANKCALL


000173: 24,2261           01732                           CADR     DELAYJOB
000174:
000175: 24,2262           02303        P40MINDB           TCR      SETMINDB   -1
000176: 24,2263           00003                           RELINT
000177: 24,2264           05412        TIGNOW             TC       PHASCHNG
000178: 24,2265           05024                           OCT      05024                                 #  TYPE C GROUP 4 BELOW FOR NOUN 85
000179: 24,2266           20000                           OCT      20000                                 #  PRIO 20
000180: 24,2267           32424                           CAF      V16N85B
000181: 24,2270           04662                           TC       BANKCALL
000182: 24,2271           20704                           CADR     REFLASH
000183: 24,2272           12275                           TCF      POST41                                #  FINISH P40/P41
000184: 24,2273           12275                           TCF      POST41                                #  V03 PROCEED WITH REST OF THE CLEAN-UP
000185: 24,2274           12264                           TCF      TIGNOW                                #  V32 NOT GSOP RESPONSE BUT REDISPLAY N85
000186:
000187: 24,2275           00006        POST41             EXTEND
000188: 24,2276           32460                           DCA      SERVCADR
000189: 24,2277           53223                           DXCH     AVEGEXIT
000190: 24,2300           14106                           TCF      GOTOPOOH
000191:
000192: 24,2301           00056        MINDB              DEC      46         B-14
000193: 24,2302           00707        MAXDB              DEC      455        B-14
000194: 24,2303  E6,1466                                  EBANK=   DAPDATR1
000195: 24,2303           00004                 -1        INHINT
000196: 24,2304           30032        SETMINDB           CA       CDUX                                  #  ROUTINE FOR SETTING
000197: 24,2305           55572                           TS       THETADX                               #  THE MINIMUM DEADBAND
000198: 24,2306           00006                           EXTEND                                         #  IN AUTOPILOT
000199: 24,2307           30034                           DCA      CDUY
000200: 24,2310           53574                           DXCH     THETADY
000201: 24,2311           32301                           CA       MINDB                                 #  SHOULD BE CALLED UNDER
000202: 24,2312           55655                           TS       ADB                                   #  INTERRUPT INHIBITED
000203: 24,2313           45014                           CS       BIT4                                  #  EBANK = E6
000204: 24,2314           71466                           MASK     DAPDATR1
000205: 24,2315           55466                           TS       DAPDATR1
000206: 24,2316           00002                           TC       Q
000207:
000208: 24,2317  E6,1466                                  EBANK=   DAPDATR1
000209: 24,2317           00004                 -1        INHINT
000210: 24,2320           32302        SETMAXDB           CA       MAXDB                                 #  ROUTINE FOR SETTING
000211: 24,2321           55655                           TS       ADB                                   #  THE MAXIMUM DEADBAND IN AUTOPILOT
000212: 24,2322           41466                           CS       DAPDATR1
000213: 24,2323           75014                           MASK     BIT4                                  #  SHOULD BE CALLED UNDER
000214: 24,2324           27466                           ADS      DAPDATR1                              #  INTERRUPT INHIBITED
000215: 24,2325           00002                           TC       Q                                     #  EBANK = E6
000216:


000218:                                                                                                  #  PROGRAM DESCRIPTION ** P41CSM **
000219:
000220: 27,2000                                           SETLOC   P40S2
000221: 27,2000                                           BANK
000222:
000223: 27,2614  E6,1466                                  EBANK=   DAPDATR1
000224: 27,2614                                           COUNT    24/P41
000225:
000226: 27,2614           05546        P41CSM             TC       UPFLAG
000227: 27,2615           00023                           ADRES    ENG2FLAG                              #  SET FOR RCS
000228:
000229: 27,2616           06006                           TC       INTPRET
000230: 27,2617           77745                           DLOAD
000231: 27,2620           15335                                    HI6ZEROS                              #  FOR P41 CSTEER =0
000232: 27,2621           03703                           STORE    CSTEER
000233:
000234: 27,2622           43145                           DLOAD    BON
000235: 27,2623           10413                                    FRCS2                                 #  2JET THRUST FOR S40.1
000236: 27,2624           00700                                    NJETSFLG
000237: 27,2625           50106                                    P40S/F                                #  NJETS = 1 2-JET
000238: 27,2626           52015                           DAD      GOTO                                  #  NJETS = 0 4-JET
000239: 27,2627           10413                                    FRCS2
000240: 27,2630           50106                                    P40S/F
000241:
000242: 24,2000                                           SETLOC   P40S
000243: 24,2000                                           BANK
000244:
000245: 24,2326           41011        P41/P40            CS       MODREG
000246: 24,2327           75017                           MASK     ONE                                   #  P41EXITS AT CALL LOC +1
000247: 24,2330           00006                           EXTEND
000248: 24,2331           12333                           BZF      +2                                    #  P41
000249: 24,2332           24002                           INCR     Q                                     #  P40 EXITS AT CALL LOC +2
000250: 24,2333           00002                           TC       Q
000251:
000252: 24,2334           35002        TTG/0              CAF      PRIO20                                #  TASK (4.4 PROTECTS IN P41)
000253: 24,2335           05134                           TC       NOVAC
000254: 24,2336  E6,1466                                  EBANK=   DAPDATR1
000255: 24,2336           02264 50066                     2CADR    TIGNOW
000256:
000257: 24,2340           05560        P40CLK             TC       DOWNFLAG
000258: 24,2341           00155                           ADRES    TIMRFLAG
000259:
000260: 24,2342           15324                           TCF      TASKOVER
000261:
000262: 24,2343           32423        P41/DSP            CAF      V06N85B                               #  SET UP FOR NONFLASH V 06 N85 BY CLOCKJOB
000263: 24,2344           55145                           TS       NVWORD1
000264:
000265: 24,2345           06006                           TC       INTPRET


000267: 24,2346           77624                           CALL                                           #  COMPUTE
000268: 24,2347           50370                                    P40CNV85                              #        VGTIG IN CTRL COORDS
000269: 24,2350           77776                           EXIT
000270: 24,2351           00006                           EXTEND                                         #  DO CONTROL COORD CALCULATION AFTER AVEG
000271: 24,2352           32462                           DCA      ACADN85
000272: 24,2353           53223                           DXCH     AVEGEXIT
000273: 24,2354           05372                           TC       2PHSCHNG
000274: 24,2355           40036                           OCT      40036                                 #  6.3=CLOKTASK(100CS)
000275: 24,2356           00234                           OCT      234                                   #  4.23=P40S/SV(PRIO12)
000276:
000277: 24,2357           12177                           TCF      P40S/RS
000278: 24,2360           32424        P41REDSP           CAF      V16N85B                               #  ENTER FROM P41 SIDE OF TIGAVEG
000279: 24,2361           55145                           TS       NVWORD1                               #  REDISPLAY NONFLASHING
000280: 24,2362           32416                           CAF      SEC29.96   +1
000281: 24,2363           05245                           TC       WAITLIST
000282: 24,2364  E6,1466                                  EBANK=   DAPDATR1
000283: 24,2364           02334 50066                     2CADR    TTG/0
000284:
000285: 24,2366           45015                           CS       BIT3                                  #  4.4 = TTG/0(2996CS), PRECHECK(-0CS)
000286: 24,2367           12566                           TCF      TTGPHS
000287: 24,2370           40220        P40CNV85           STQ      SETPD
000288: 24,2371           03730                                    QTEMP1
000289: 24,2372           00001                                    0
000290: 24,2373           41575                           VLOAD    PUSH
000291: 24,2374           03721                                    VGPREV                                #  EQUALS VGTIG (TARGETTING INPUT)
000292: 24,2375           77624                           CALL
000293: 24,2376           45431                                    S41.1
000294: 24,2377           37665                           STCALL   VGBODY
000295: 24,2400           03730                                    QTEMP1
000296:
000297: 24,2401  E6,1466                                  EBANK=   DAPDATR1
000298: 24,2401           06006        CALCN85            TC       INTPRET
000299: 24,2402           77624                           CALL
000300: 24,2403           51104                                    UPDATEVG                              #  NEW VG, S40.8 (+MAYBE S40.9)
000301: 24,2404           77624                           CALL
000302: 24,2405           50370                                    P40CNV85                              #  COMPUTE VGBODY
000303: 24,2406           77776                           EXIT
000304: 24,2407           03215                           TC       SERVXT
000305: 24,2410           02217 06650  FENG               2DEC     9.1188544  B-7                        #  SPS THRUST (20500LBS), SC.AT B+7 NEWT/E4
000306:
000307: 24,2412           00013 06112  FRCS2              2DEC     .087437837 B-7                        #  RCS ULLAGE (199.6COS10 LBS), SC.AT
000308:
000309:                                                                                                  #        B+7 NEWTONS/E+4
000310: 24,2414           04700        SEC24.96           DEC      2496       B-14
000311: 24,2415           00000 05664  SEC29.96           2DEC     2996       B-28
000312:
000313: 24,2417           03410        18SEC              DEC      1800       B-14
000314: 24,2420           00204        P40CKLS2           OCT      204
000315: 24,2421           37730        40CST5             OCT      37730                                 #  40 CS FOR THE T5 CLOCK
000316: 24,2422     4377               OCT12              =        TEN


000318: 24,2422           04123        V1683              VN       1683
000319: 24,2423           01525        V06N85B            VN       0685
000320: 24,2424           04125        V16N85B            VN       1685
000321: 24,2425           01450        V06N40             VN       0640
000322: 24,2426           04050        V16N40             VN       1640
000323: 24,2427           00027        OCT27/24           OCT      27
000324: 24,2430           00053        OCT53              OCT      53
000325: 24,2431           00035        OCT35              OCT      35
000326: 24,2432  E6,1466                                  EBANK=   DAPDATR1
000327: 24,2432           03153 12066  T5IDL24            2CADR    T5IDLOC
000328:
000329: 24,2434           00026        3MDOT              DEC      86.6175796 B-16                       #  3SEC MASS LOSS (63.8 LBS/SEC), SC.AT
000330:                                                                                                  #  B+16 KG/SEC (NOTE, EMDOT IS PAD-LOADED,
000331:                                                                                                  #  BUT 3MDOT IS NOT A CRITICAL QUANTITY, SO
000332:                                                                                                  #  IT CAN REMAIN IN FIXED MEMORY)
000333: 24,2435           35017        TST,TRIM           CAF      BIT1                                  #  SET UP FOR GIMB DRIVE TEST AND TRIM (+1)
000334: 24,2436           12157                           TCF      TRIMONLY   +1
000335: 24,2437           33064        TIGBLNK            CAF      5SEC                                  #  CALL TIGAVEG IN FIVE SEC AT TIG-30
000336: 24,2440           05245                           TC       WAITLIST
000337: 24,2441  E7,1412                                  EBANK=   TIG
000338: 24,2441           02555 50067                     2CADR    TIGAVEG
000339:
000340: 24,2443           35021                           CAF      ZERO                                  #  DISABLE HERE, NOT IN P40BLNKR
000341: 24,2444           55145                           TS       NVWORD1
000342:
000343: 24,2445           35066                           CAF      PRIO14
000344: 24,2446           05134                           TC       NOVAC
000345: 24,2447  E7,1412                                  EBANK=   TIG
000346: 24,2447           02234 50067                     2CADR    P40BLNKR                              #  DONT PROTECT-RESTARTS BLANK DSKY
000347:
000348: 24,2451           44362                           CS       OCT37                                 #  4.37 = TIGAVEG (500CS)
000349: 24,2452           04114        P40TSK             TC       NEWPHASE
000350: 24,2453           00004                           OCT      4
000351: 24,2454           05324                           TC       TASKOVER
000352:
000353: 24,2455  E7,1412                                  EBANK=   TIG
000354: 24,2455           02511 50067  ACADN83            2CADR    CALCN83
000355:
000356: 24,2457  E7,1412                                  EBANK=   TIG
000357: 24,2457           03226 76067  SERVCADR           2CADR    SERVEXIT
000358:
000359: 24,2461  E6,1466                                  EBANK=   DAPDATR1
000360: 24,2461           02401 50066  ACADN85            2CADR    CALCN85
000361:


000363:                                                                                                  #  PROGRAM DESCRIPTION ** P47CSM **
000364:
000365: 24,2463                                           COUNT    24/P47
000366:
000367: 24,2463  E7,1412                                  EBANK=   TIG
000368: 24,2463           04662        P47CSM             TC       BANKCALL                              #  IMU STATUS CHECK
000369: 24,2464           17653                           CADR     R02BOTH
000370: 24,2465           06006                           TC       INTPRET
000371: 24,2466           77624                           CALRB
000372: 24,2467           27543                                    MIDTOAV2
000373: 24,2470           30155                           CA       MPAC       +1                         #  DELTA TIME TO RPEREAD (LESS THAN 1000
000374: 24,2471           55672                           TS       P40TMP                                #        CS, WITH A TPAGREE, INT.INIT.)
000375: 24,2472           05245                           TC       WAITLIST
000376: 24,2473  E7,1412                                  EBANK=   TIG
000377: 24,2473           02500 50067                     2CADR    TIGON                                 #  TIGON IS REQUIRED TO MATHCHTAT AND AVEG
000378:
000379: 24,2475           05412                           TC       PHASCHNG
000380: 24,2476           40574                           OCT      40574                                 #  A, 4.57 = TIGON (P40TMP CS)
000381: 24,2477           15217                           TCF      ENDOFJOB
000382:
000383: 24,2500  E7,1672                                  EBANK=   P40TMP
000384: 24,2500           00006        TIGON              EXTEND
000385: 24,2501           32456                           DCA      ACADN83
000386: 24,2502           53223                           DXCH     AVEGEXIT
000387: 24,2503           34371                           CAF      PRIO30                                #  FORCE ZEROING OF N83 BEFORE SERVICER
000388: 24,2504           05134                           TC       NOVAC
000389: 24,2505  E7,1412                                  EBANK=   TIG
000390: 24,2505           02534 50067                     2CADR    P47BODY
000391:
000392: 24,2507           45016                           CS       BIT2                                  #  4.2 = PRECHECK (-0CS), P47BODY (PRIO30)
000393: 24,2510           12566                           TCF      TTGPHS
000394:
000395: 24,2511  E7,1412                                  EBANK=   TIG
000396: 24,2511           06006        CALCN83            TC       INTPRET
000397: 24,2512           77601                           SETPD                                          #  SET UP PUSHLIST FOR S41.1
000398: 24,2513           00001                                    0
000399: 24,2514           53375                           VLOAD    VAD
000400: 24,2515           03665                                    DELVCTL
000401: 24,2516           03433                                    DELVREF
000402: 24,2517           03460                           STORE    DV47TEMP                              #  FOR COPYCYCLE BELOW
000403: 24,2520           45006                           PUSH     CALL
000404: 24,2521           45431                                    S41.1
000405: 24,2522           37675                           STCALL   DELVIMU
000406: 24,2523           70542                                    S11.1                                 #  CALC. VI, H, HDOT FOR NOUN 62
000407: 24,2524           77776                           EXIT
000408: 24,2525           05412                           TC       PHASCHNG
000409: 24,2526           10035                           OCT      10035


000411: 24,2527           35022                           CAF      FIVE
000412: 24,2530           05606                           TC       GENTRAN
000413: 24,2531           01457                           ADRES    DV47TEMP
000414: 24,2532           01664                           ADRES    DELVCTL
000415:
000416: 24,2533           03215                           TC       SERVXT
000417: 24,2534           06006        P47BODY            TC       INTPRET
000418: 24,2535           77775                           VLOAD
000419: 24,2536           15335                                    HI6ZEROS
000420: 24,2537           03675                           STORE    DELVIMU                               #  CLEAR DISPLAY AND ACCUMULATOR STORAGE
000421: 24,2540           03665                           STORE    DELVCTL                               #  UPON INITIATION OR-ENTER-RESPONSE
000422: 24,2541           77776                           EXIT
000423: 24,2542           35067        P47BOD             CAF      PRIO15                                #  LOWER PRIO THAN CALCN83 (20)
000424: 24,2543           05210                           TC       PRIOCHNG                              #        TO PREVENT INTERRUPTION OF CALCN83
000425: 24,2544           05412                           TC       PHASCHNG
000426: 24,2545           05024                           OCT      05024                                 #  TYPE C GROUP 4 BELOW FOR NOUN 83
000427: 24,2546           15000                           OCT      15000                                 #  PRIO 15
000428: 24,2547           32422        P47/DSP            CAF      V1683
000429: 24,2550           04662                           TC       BANKCALL
000430: 24,2551           20720                           CADR     GOFLASH
000431: 24,2552           04106                           TC       GOTOPOOH
000432: 24,2553           04106                           TC       GOTOPOOH
000433: 24,2554           12534                           TCF      P47BODY                               #  RECYCLE - CLEAR ACCUMULATED VELOCITY
000434:


000436:                                                                                                  #  ROUTINE ** TIG-30 ** DESCRIPTION
000437:
000438: 24,2555  E7,1412                                  EBANK=   TIG
000439: 24,2555                                           COUNT    24/P40
000440:
000441: 24,2555           02326        TIGAVEG            TC       P41/P40                               #  TASK (4.37 PROTECTS)
000442: 24,2556           12360                           TCF      P41REDSP                              #  P41
000443:
000444: 24,2557           32425                           CAF      V06N40                                #  UNBLANK DISPLAY
000445: 24,2560           55145                           TS       NVWORD1
000446:
000447: 24,2561           32414                           CAF      SEC24.96
000448: 24,2562           05245                           TC       WAITLIST
000449: 24,2563  E7,1412                                  EBANK=   TIG
000450: 24,2563           02574 50067                     2CADR    TIG-5
000451:
000452: 24,2565           46211                           CS       SIX                                   #  4.6 = TIG-5 (2496CS), PRECHECK (-0CS)
000453: 24,2566           04114        TTGPHS             TC       NEWPHASE                              #  ENTRY FROM P41REDSP (P41) WITH A=-4, OR
000454: 24,2567           00004                           OCT      4                                     #        FROM TIGON    (P47) WITH A=-2
000455:
000456: 24,2570           10763        PRECHECK           CCS      PHASE5                                #  HAS SERVICER BEEN RESTARTED
000457: 24,2571           15324                           TCF      TASKOVER                              #  YES, DONT START ANOTHER ONE
000458: 24,2572           04701                           TC       POSTJUMP
000459: 24,2573           76700                           CADR     PREREAD
000460:


000462:                                                                                                  #  ROUTINE ** TIG-5 ** DESCRIPTION
000463:
000464: 24,2574  E7,1412                                  EBANK=   TIG
000465: 24,2574           33064        TIG-5              CAF      5SEC
000466: 24,2575           05245                           TC       WAITLIST
000467: 24,2576  E6,1466                                  EBANK=   DAPDATR1
000468: 24,2576           02612 50066                     2CADR    TIG-0
000469:
000470: 24,2600           45007                           CS       BIT9                                  #  WILL CAUSE V99 FLASH
000471: 24,2601           55145                           TS       NVWORD1
000472:
000473: 24,2602           05372                           TC       2PHSCHNG
000474: 24,2603           40074                           OCT      40074                                 #  A, 4.7 = TIG-0 (500CS)
000475: 24,2604           00033                           OCT      00033                                 #  A, 3.3 = S40.13 (PRIO20)
000476:
000477: 24,2605           35002                           CAF      PRIO20
000478: 24,2606           05147                           TC       FINDVAC
000479: 24,2607  E7,1427                                  EBANK=   TGO
000480: 24,2607           02424 34067                     2CADR    S40.13
000481:
000482: 24,2611           15324                           TCF      TASKOVER
000483:


000485:                                                                                                  #  ROUTINES ** TIG-0 ** AND ** IGNITION ** DESCRIPTION
000486:
000487: 24,2612  E6,1466                                  EBANK=   DAPDATR1                              #  TASK, 4.7 PHASE, OR 4.77 (-0CS) IN R40
000488: 24,2612           40103        TIG-0              CS       FLAGWRD7                              #  SET IGN FLAG
000489: 24,2613           75003                           MASK     BIT13
000490: 24,2614           26103                           ADS      FLAGWRD7
000491:
000492: 24,2615           30103                           CAE      FLAGWRD7                              #  CHECK ASTN FLAG FOR V99 RESPONSE
000493: 24,2616           75004                           MASK     BIT12
000494: 24,2617           00006                           EXTEND
000495: 24,2620           15324                           BZF      TASKOVER                              #  WAIT FOR V99P
000496:
000497: 24,2621           32425                           CAF      V06N40                                #  CLEAR THE V99 (IN CASE OF A RESTART
000498: 24,2622           55145                           TS       NVWORD1                               #        DURING THE V99 SEQUENCE)
000499:
000500: 24,2623           05412                           TC       PHASCHNG                              #  V99P HAS COME ALREADY, DO IGNITION NOW
000501: 24,2624           00614                           OCT      00614                                 #  A, 4.61 = IGNITION (-0CS) TBASE OLD
000502:
000503: 24,2625           30032        IGNITION           CAE      CDUX                                  #  SAVE FOR ROLL DAP REFERENCE OGAD
000504: 24,2626           55450                           TS       OGAD                                  #        V99PJOB (CLOCKJOB) SETS UP IGNITION
000505: 24,2627           00006                           EXTEND                                         #        TASK (4.61 PROTECTION)
000506: 24,2630           30025                           DCA      TIME2                                 #        FOR RESTARTS
000507: 24,2631           53337                           DXCH     TEVENT
000508: 24,2632           40101                           CS       FLAGWRD5                              #  SET ENGONFLG
000509: 24,2633           75011                           MASK     BIT7
000510: 24,2634           26101                           ADS      FLAGWRD5
000511: 24,2635           35003        SPSON              CAF      BIT13                                 #  TURN ON SPS ENGINE
000512: 24,2636           00006                           EXTEND
000513: 24,2637           05011                           WOR      DSALMOUT
000514:
000515: 24,2640           35007        IMPULCHK           CAF      BIT9                                  #  CHECK FOR IMPULSIVE BURN
000516: 24,2641           70076                           MASK     FLAGWRD2
000517: 24,2642           10000                           CCS      A
000518: 24,2643           12733                           TCF      IMPLBURN                              #  IMPULSIVE
000519: 24,2644           40102                           CS       FLAGWRD6                              #  NON-IMPULSIVE, SET STRULLSW FOR STEERULL
000520: 24,2645           75003                           MASK     BIT13
000521: 24,2646           26102                           ADS      FLAGWRD6
000522:
000523: 24,2647           44105        PREPTVC            CS       OCT60000                              #  RESET T5 BITS
000524: 24,2650           70102                           MASK     FLAGWRD6
000525: 24,2651           54102                           TS       FLAGWRD6
000526:
000527: 24,2652           00006                           EXTEND                                         #  KILL RCS
000528: 24,2653           32433                           DCA      T5IDL24
000529: 24,2654           53313                           DXCH     T5LOC
000530:
000531: 24,2655           46214                           CS       THREE                                 #  4.3 = DOTVCON (40CS)
000532: 24,2656           04114                           TC       NEWPHASE
000533: 24,2657           00004                           OCT      4
000534:


000536: 24,2660           05267                           TC       FIXDELAY
000537: 24,2661           00050                           DEC      40         B-14                       #  0.4 SECOND DELAY FOR THRUST BUILDUP
000538:
000539: 24,2662           45017        DOTVCON            CS       BIT1                                  #  SET TVCPHASE = TVCDAPON CALL (FRESHDAP)
000540: 24,2663           55644                           TS       TVCPHASE
000541: 24,2664           35021                           CAF      ZERO                                  #  SET TVCEXECUTIVE PHASE
000542: 24,2665           55651                           TS       TVCEXPHS
000543: 24,2666           44105                           CS       OCT60000                              #  SET T5 BITS TO INDICATE TVC TAKEOVER ....
000544: 24,2667           70102                           MASK     FLAGWRD6                              #        BITS 15,14 = 10
000545: 24,2670           65001                           AD       BIT15
000546: 24,2671           54102                           TS       FLAGWRD6
000547:
000548: 24,2672           36214                           CAF      THREE                                 #  6.3 = CLOKTASK (100CS), DROPPING PRE40.6
000549: 24,2673           54001                           TS       L                                     #        WHICH IS HANDLED NOW BY REDOTVC
000550: 24,2674           40000                           COM
000551: 24,2675           52765                           DXCH     -PHASE6
000552:
000553: 24,2676           00006                           EXTEND                                         #  STORE RCS ATTITUDE ERRORS FOR USE IN
000554: 24,2677           41571                           DCS      ERRORY                                #  INITIALIZING TVC ATTITUDE ERRORS
000555: 24,2700           53703                           DXCH     ERRBTMP
000556:
000557: 24,2701           45022                           CS       FIVE                                  #  4.5 = DOSTRULL (160 CS)
000558: 24,2702           04114                           TC       NEWPHASE
000559: 24,2703           00004                           OCT      4
000560:
000561: 24,2704           34777                           CAF      POSMAX                                #  SET TIME5 FOR STARTING RIGHT AWAY
000562: 24,2705           54030                           TS       TIME5
000563: 24,2706           00006                           EXTEND
000564: 24,2707           33067                           DCA      TVCON2C                               #  (TVCDAPON)
000565: 24,2710           53313                           DXCH     T5LOC                                 #  (KILLS RCS DAP)
000566:
000567: 24,2711           05267                           TC       FIXDELAY                              #  0.4 + 1.6 = 2.0 SEC FOR ULLAGE-OFF AND
000568: 24,2712           00240                           DEC      160        B-14                       #        STEERING (IF NON-IMPULSIVE)
000569:
000570: 24,2713           35003        DOSTRULL           CAF      BIT13                                 #  CHECK STRULLSW FOR IMPULSIVE BURN
000571: 24,2714           70102                           MASK     FLAGWRD6
000572: 24,2715           10000                           CCS      A
000573: 24,2716           02724                           TCR      STEERULL                              #  NON-IMPULSIVE, STEERING AND ULLAGE OFF
000574: 24,2717           02727                           TCR      ULAGEOFF                              #  ULLAGE OFF (ONLY, OR AGAIN)
000575:
000576: 24,2720           00006                           EXTEND
000577: 24,2721           35021                           DCA      NEG0                                  #  KILL GROUP 4 (DP NEG0 = -0,+0)
000578: 24,2722           52761                           DXCH     -PHASE4
000579:
000580: 24,2723           15324        ENDIGN             TCF      TASKOVER
000581:
000582: 24,2724           40076        STEERULL           CS       FLAGWRD2                              #  SET STEERSW
000583: 24,2725           75005                           MASK     BIT11
000584: 24,2726           26076                           ADS      FLAGWRD2
000585:


000587:
000588: 24,2727           35021        ULAGEOFF           CAF      ZERO
000589: 24,2730           00006                           EXTEND
000590: 24,2731           01005                           WRITE    CHAN5                                 #  ZERO CHANNEL 5
000591: 24,2732           00002                           TC       Q
000592:
000593: 24,2733           45003        IMPLBURN           CS       BIT13                                 #  RESET STRULLSW (COULD BE AN IMPULSIVE
000594: 24,2734           70102                           MASK     FLAGWRD6                              #        ENGINE FAIL)
000595: 24,2735           54102                           TS       FLAGWRD6
000596:
000597: 24,2736           03366                           TCR      E7SETTER
000598:
000599: 24,2737  E7,1412                                  EBANK=   TIG
000600: 24,2737           00006                           EXTEND                                         #  PREPARE FOR R1 OF V06N40 (CLOCKTASK)
000601: 24,2740           31430                           DCA      TGO
000602: 24,2741           53413                           DXCH     TIG
000603: 24,2742           00006                           EXTEND
000604: 24,2743           30025                           DCA      TIME2
000605: 24,2744           21413                           DAS      TIG
000606:
000607: 24,2745           05372                           TC       2PHSCHNG
000608: 24,2746           40153                           OCT      40153                                 #  A,3.15 = ENGINOFF (TGO+1)....NOTE GROUP
000609: 24,2747           07014                           OCT      07014                                 #  C, DELTAT AND 2CADR FOLLOW FOR TASK BELO
000610: 24,2750           77777                           DEC      -0         B-14                       #  -0 CS
000611: 24,2751  E6,1466                                  EBANK=   DAPDATR1
000612: 24,2751           02757 50066                     2CADR    IMPLCONT
000613:
000614: 24,2753           31430                           CAE      TGO        +1                         #  (TPAGREE IN S40.13, LESS THAN 600CS)
000615: 24,2754           05245                           TC       WAITLIST
000616: 24,2755  E7,1427                                  EBANK=   TGO
000617: 24,2755           02766 50067                     2CADR    ENGINOFF
000618:
000619: 24,2757           45007        IMPLCONT           CS       BIT9                                  #  RESET IMPULSW, ENGINOFF IS NOW SET UP
000620: 24,2760           70076                           MASK     FLAGWRD2
000621: 24,2761           54076                           TS       FLAGWRD2
000622:
000623: 24,2762           03371                           TCR      E6SETTER
000624: 24,2763  E6,1466                                  EBANK=   DAPDATR1
000625:
000626: 24,2763           35021                           CAF      ZERO                                  #  SET UP V97VCNTR IN CASE ENGINOFF (MASS-
000627: 24,2764           55444                           TS       V97VCNTR                              #        BACK) ARRIVES BEFORE TVCDAPON
000628:
000629: 24,2765           12647                           TCF      PREPTVC
000630:
000631: 24,2766  E7,1427                                  EBANK=   TGO                                   #  E7 FORCED BY 3.15SPOT VARIABLE DELTA-T
000632: 24,2766           03371        ENGINOFF           TCR      E6SETTER                              #  TASK, 3.15 PHASE (TGO+1 CS)   GET E6
000633: 24,2767  E6,1466                                  EBANK=   DAPDATR1
000634: 24,2767           31474                           CAE      CSMMASS
000635: 24,2770           55652                           TS       MASSTMP                               #  COPYCYCLE FOR MASSBACK


000637: 24,2771           05372                           TC       2PHSCHNG
000638: 24,2772           00003                           OCT      00003                                 #  KILL GROUP 3 PROTECTION OF ENGINOFF, DO
000639: 24,2773           40634                           OCT      40634                                 #  A, 4.63 = DOSPSOFF (-0CS)
000640: 24,2774           03017        DOSPSOFF           TCR      SPSOFF                                #  SHUTDOWN SPS, MASS UPDATES, ETC.
000641: 24,2775           42427                           CS       OCT27/24                              #  (OCTAL 27)
000642: 24,2776           04114                           TC       NEWPHASE
000643: 24,2777           00004                           OCT      4                                     #  4.27 = DOTVCRCS (250 CS)
000644:
000645: 24,3000           05267                           TC       FIXDELAY                              #  2.5 SECOND DELAY FOR SPS TAILOFF
000646: 24,3001           00372                           DEC      250        B-14
000647:
000648: 24,3002           02320        DOTVCRCS           TCR      SETMAXDB                              #  WIDE DEADBAND FOR CUTOFF TRANSIENT
000649:
000650: 24,3003           04740                           TC       IBNKCALL                              #  SET UP RCS DAP (KILLS TVCDAPS, SETS T5
000651: 24,3004           42024                           CADR     RCSDAPON                              #        BITS, WAITS 0.6SEC FOR TVCEXEC DIE)
000652:
000653: 24,3005           04740                           TC       IBNKCALL                              #  UPDATE WEIGHT/G AND MASS-PROPERTIES FOR
000654: 24,3006           13366                           CADR     MASSPROP                              #        RCS DAP STARTUP IN 0.6 SECONDS
000655:
000656: 24,3007           03071                           TCR      TVCZAP                                #  WIPE OUT TVC, TURN OFF CLOKTASK
000657:
000658: 24,3010           05412                           TC       PHASCHNG
000659: 24,3011           00354                           OCT      00354                                 #  A, 4.35 = POSTBURN (NOVAC, PRIO12)
000660: 24,3012           34710                           CAF      PRIO12                                #  SET UP POSTBURN V16N40 JOB
000661: 24,3013           05134                           TC       NOVAC
000662: 24,3014  E6,1466                                  EBANK=   DAPDATR1                              #  (SET MAXDB IN POST41)
000663: 24,3014           02246 50066                     2CADR    POSTBURN
000664:
000665: 24,3016           15324                           TCF      TASKOVER
000666:
000667: 24,3017  E6,1466                                  EBANK=   DAPDATR1
000668: 24,3017           00006        SPSOFF             EXTEND                                         #  ESTABLISH SPSOFF TEVENT
000669: 24,3020           30025                           DCA      TIME2
000670: 24,3021           53337                           DXCH     TEVENT
000671: 24,3022           45011                           CS       BIT7                                  #  RESET ENGONFLG
000672: 24,3023           70101                           MASK     FLAGWRD5
000673: 24,3024           54101                           TS       FLAGWRD5                              #  (RESTARTS WILL SHUT DOWN SPS NOW)
000674: 24,3025           45003                           CS       BIT13                                 #  SHUT DOWN SPS ENGINE
000675: 24,3026           00006                           EXTEND
000676: 24,3027           03011                           WAND     DSALMOUT
000677:
000678: 24,3030           35002                           CAF      BIT14                                 #  ISSUE SIV CUTOFF COMMAND
000679: 24,3031           00006                           EXTEND                                         #  FOR POSSIBLE BACK-UP USE
000680: 24,3032           05012                           WOR      CHAN12
000681: 24,3033           31444        MASSBACK           CAE      V97VCNTR                              #  RESTORE PART OF PRE-DECREMENTED MASS
000682:                                                                                                  #        V97VCNTR = VCNTR UNLESS V97 IS
000683:                                                                                                  #        ACTIVE.  ONLY V97VCNTR IS THEN RIGHT
000684: 24,3034           00006                           EXTEND                                         #  VCNTR COUNTS 1/2-SECONDS IN TVC EXEC
000685: 24,3035           70110                           MP       EMDOT                                 #        MDOT, SC.AT B+3 KG/CS
000686: 24,3036           22000                           LXCH     A


000688: 24,3037           00006                           EXTEND
000689: 24,3040           75041                           MP       1SEC                                  #  DEC 100
000690: 24,3041           61652                           AD       MASSTMP                               #  CORRECTION IS ACCURATE TO 5 CS OF FLOW
000691: 24,3042           55474                           TS       CSMMASS                               #        (1.44 KG OR 0.4 BITS)
000692:
000693: 24,3043           31644                           CA       TVCPHASE                              #  CHECK IF OK FOR TRIM UPDATE
000694: 24,3044           65017                           AD       ONE                                   #        THESE CHECKS ARE ONLY NEEDED
000695: 24,3045           00006                           EXTEND                                         #        FOR A LESS THAN 0.4 SEC BURN
000696: 24,3046           13057                           BZF      BTRIMR                                #  NO.  INITIALIZATION NOT COMPLETE
000697: 24,3047           40102                           CS       FLAGWRD6                              #  YES, CHECK IF TVC
000698: 24,3050           74105                           MASK     OCT60000
000699: 24,3051           00006                           EXTEND
000700: 24,3052           63057                           BZMF     BTRIMR                                #  NO, NOT TVC YET
000701: 24,3053           31601        BESTTRIM           CAE      DELPBAR                               #  UPDATE TRIMS WITH DELFILTER VALUES
000702: 24,3054           55423                           TS       PACTOFF
000703: 24,3055           31603                           CAE      DELYBAR
000704: 24,3056           55424                           TS       YACTOFF
000705: 24,3057           00002        BTRIMR             TC       Q
000706: 24,3060  E6,1466                                  EBANK=   DAPDATR1
000707: 24,3060           03205 50066  STEERADS           2CADR    STEERING
000708:
000709: 24,3062           37703        .6SECT5            OCT      37703
000710: 24,3063           00000        5SECDP             DEC      0          B-14                       #  MAKE DP 5SEC
000711: 24,3064           00764        5SEC               DEC      500        B-14
000712: 24,3065           02202        OCT02202           OCT      02202                                 #  BITS 2, 8, 11 FOR CHANNEL 12 TVC/OPTICS
000713: 24,3066  E6,1466                                  EBANK=   DAPDATR1
000714: 24,3066           02153 36066  TVCON2C            2CADR    TVCDAPON
000715:
000716: 24,3070           00004                 -1        INHINT
000717: 24,3071           43065        TVCZAP             CS       OCT02202                              #  DISABLE TVC AND OPT ERR CNTRS, REENGAGE
000718: 24,3072           00006                           EXTEND                                         #        OPTICS DAC
000719: 24,3073           03012                           WAND     CHAN12
000720: 24,3074           45017                           CS       BIT1                                  #  ENABLE T4RUPT OPTICS MONITOR .... PERMIT
000721: 24,3075           55303                           TS       OPTIND                                #        OPTICS-ZERO BUT NOT OPTICS-DRIVE
000722: 24,3076           35021                           CAF      ZERO                                  #  CLEAR NVWORD1 IN CASE CLOCKJOB WAITING
000723: 24,3077           55145                           TS       NVWORD1
000724: 24,3100           45005                           CS       BIT11                                 #  CLEAR TIMRFLAG TO STOP CLOKTASK
000725: 24,3101           70103                           MASK     FLAGWRD7
000726: 24,3102           54103                           TS       FLAGWRD7
000727: 24,3103           00002                           TC       Q
000728: 24,3104  E6,1466                                  EBANK=   DAPDATR1
000729: 24,3104           43020        UPDATEVG           STQ      BON
000730: 24,3105           03730                                    QTEMP1
000731: 24,3106           01307                                    XDELVFLG
000732: 24,3107           51133                                    CALL40.8
000733:
000734: 24,3110           50135                           SLOAD    BMN
000735: 24,3111           03343                                    NBRCYCLS
000736: 24,3112           51137                                    SETUP.9


000738:
000739: 24,3113           53375                           VLOAD    VAD
000740: 24,3114           03345                                    DELVSUM
000741: 24,3115           03433                                    DELVREF
000742: 24,3116           03353                           STORE    DELVSUMP
000743: 24,3117           77776                           EXIT
000744: 24,3120           35017                           CA       ONE
000745: 24,3121           61742                           AD       NBRCYCLS
000746: 24,3122           55743                           TS       NBRCYCLP
000747:
000748: 24,3123           05412                           TC       PHASCHNG                              #  TYPE B RESTART BELOW AND 5.3 REREADACCS
000749: 24,3124           10035                           OCT      10035
000750:
000751: 24,3125           31743                           CA       NBRCYCLP
000752: 24,3126           55742                           TS       NBRCYCLS
000753: 24,3127           06006                           TC       INTPRET
000754: 24,3130           77775                           VLOAD
000755: 24,3131           03353                                    DELVSUMP
000756: 24,3132           03345                           STORE    DELVSUM
000757:
000758: 24,3133           77624        CALL40.8           CALL
000759: 24,3134           34150                                    S40.8
000760: 24,3135           77650                           GOTO
000761: 24,3136           03730                                    QTEMP1
000762:
000763: 24,3137           67214        SETUP.9            BON      SLOAD
000764: 24,3140           01310                                    FIRSTFLG
000765: 24,3141           51154                                    SURELY.9
000766: 24,3142           03344                                    NBRCYCLP
000767: 24,3143           74301                           NORM     VXSC                                  #  (NORM HANDLES ZERO PROPERLY)
000768: 24,3144           00047                                    X1
000769: 24,3145           03705                                    BDT
000770: 24,3146           53257                           VSR*     VAD
000771: 24,3147           20563                                    0          -14D,1
000772: 24,3150           03646                                    VGTEMP
000773: 24,3151           77651                           VSU
000774: 24,3152           03345                                    DELVSUM
000775: 24,3153           03721                           STORE    VGPREV
000776: 24,3154           77776        SURELY.9           EXIT
000777: 24,3155           35003                           CAF      PRIO10
000778: 24,3156           05147                           TC       FINDVAC
000779: 24,3157  E6,1466                                  EBANK=   DAPDATR1
000780: 24,3157           02277 34066                     2CADR    S40.9
000781:
000782: 24,3161           05372                           TC       2PHSCHNG
000783: 24,3162           00051                           OCT      00051                                 #  A, 1.5 = REDO40.9, PRIO 10
000784: 24,3163           10035                           OCT      10035
000785: 24,3164           06006                           TC       INTPRET
000786: 24,3165           77775                           VLOAD
000787: 24,3166           01171                                    RN                                    #  ACTIVE VEHICLE RADIUS VECTOR AT T1
000788: 24,3167           27570                           STOVL    RINIT


000790: 24,3170           01177                                    VN                                    #  ACTIVE VEHICLE VELOCITY VECTOR AT T1
000791: 24,3171           17576                           STODL    VINIT
000792: 24,3172           01205                                    PIPTIME
000793: 24,3173           03474                           STORE    TNIT
000794: 24,3174           77621                           BDSU
000795: 24,3175           03656                                    TPASS4
000796: 24,3176           27423                           STOVL    DELLT4
000797: 24,3177           15335                                    HI6ZEROS
000798: 24,3200           17345                           STODL    DELVSUM
000799: 24,3201           15335                                    HI6ZEROS
000800: 24,3202           03343                           STORE    NBRCYCLS
000801: 24,3203           77650                           GOTO
000802: 24,3204           51133                                    CALL40.8
000803: 24,3205  E6,1466                                  EBANK=   DAPDATR1
000804: 24,3205           06006        STEERING           TC       INTPRET
000805: 24,3206           77624                           CALL
000806: 24,3207           51104                                    UPDATEVG
000807: 24,3210           77776                           EXIT
000808: 24,3211           35007                           CAF      BIT9                                  #  CHECK IMPULSW
000809: 24,3212           70076                           MASK     FLAGWRD2
000810: 24,3213           10000                           CCS      A
000811: 24,3214           13217                           TCF      +3                                    #  PRE-IGNITE, REQUEST ENG-OFF, OR POST-OFF
000812: 24,3215           04701        SERVXT             TC       POSTJUMP
000813: 24,3216           77226                           CADR     SERVEXIT
000814: 24,3217           35003                           CAF      BIT13                                 #  CHECK ENGINE-ON/-OFF
000815: 24,3220           00006                           EXTEND
000816: 24,3221           02011                           RAND     DSALMOUT
000817: 24,3222           00006                           EXTEND
000818: 24,3223           13215                           BZF      SERVXT                                #  ENGINE-OFF, SO PRE-IGNITE OR POST-OFF
000819: 24,3224           03366                           TCR      E7SETTER
000820: 24,3225  E7,1412                                  EBANK=   TIG
000821: 24,3225           00004                           INHINT
000822: 24,3226           00006                           EXTEND
000823: 24,3227           31413                           DCA      TIG
000824: 24,3230           52155                           DXCH     MPAC
000825: 24,3231           00006                           EXTEND
000826: 24,3232           40025                           DCS      TIME2
000827: 24,3233           20155                           DAS      MPAC
000828: 24,3234           07224                           TCR      DPAGREE
000829: 24,3235           30155                           CAE      MPAC       +1                         #  (LESS THAN 6 (OR 4) SECONDS TO GO)
000830: 24,3236           10000                           CCS      A                                     #  PROTECT AGAINST NEG/ZRO W.L. CALL
000831: 24,3237           13242                           TCF      +3
000832: 24,3240           13242                           TCF      +2
000833: 24,3241           35021                           CAF      ZERO
000834: 24,3242           65017                           AD       ONE
000835: 24,3243           56001                           XCH      L
000836: 24,3244           35021                           CA       ZERO
000837: 24,3245           53430                           DXCH     TGO
000838: 24,3246           31430                           CA       TGO        +1
000839: 24,3247           05245                           TC       WAITLIST


000841: 24,3250  E7,1427                                  EBANK=   TGO
000842: 24,3250           02766 50067                     2CADR    ENGINOFF
000843:
000844: 24,3252           05372                           TC       2PHSCHNG
000845: 24,3253           40153                           OCT      40153                                 #  A, 3.15 = ENGINOFF (TGO+1) .... NOTE GROUP
000846: 24,3254           10035                           OCT      10035                                 #  B, 5.3 = REREADAC, AND START BELOW
000847: 24,3255           05560                           TC       DOWNFLAG                              #  CLEAR IMPULSW, ENGINOFF IS NOW SET UP
000848: 24,3256           00044                           ADRES    IMPULSW                               #  RESTARTS OK
000849: 24,3257           13215                           TCF      SERVXT
000850:


000852:                                                                                                  #  ROUTINE ** CLOKTASK ** DESCRIPTION
000853:
000854: 24,3260  E7,1412                                  EBANK=   TIG
000855: 24,3260           35005        CLOKTASK           CAF      BIT11                                 #  IS TIMRFLAG SET
000856: 24,3261           70103                           MASK     FLAGWRD7
000857: 24,3262           10000                           CCS      A
000858: 24,3263           13267                           TCF      CLOCKON
000859: 24,3264           05412                           TC       PHASCHNG
000860: 24,3265           00006                           OCT      00006                                 #  KILL RESTART
000861: 24,3266           05324                           TC       TASKOVER
000862:
000863: 24,3267           00006        CLOCKON            EXTEND
000864: 24,3270           30025                           DCA      TIME2
000865: 24,3271           53661                           DXCH     TTOGO
000866: 24,3272           00006                           EXTEND
000867: 24,3273           41413                           DCS      TIG
000868: 24,3274           21661                           DAS      TTOGO
000869:
000870: 24,3275           35041        SETCLOCK           CAF      1SEC
000871: 24,3276           05245                           TC       WAITLIST
000872: 24,3277  E7,1412                                  EBANK=   TIG
000873: 24,3277           03260 50067                     2CADR    CLOKTASK
000874:
000875: 24,3301           11145                           CCS      NVWORD1
000876: 24,3302           13305                           TCF      +3
000877: 24,3303           13315                           TCF      SETTB6
000878:
000879: 24,3304           13305                           TCF      +1
000880: 24,3305           42423                           CS       V06N85B                               #  CHECK FOR V06N85B (P41)
000881: 24,3306           61145                           AD       NVWORD1
000882: 24,3307           00006                           EXTEND
000883: 24,3310           13320                           BZF      SETUPDYN                              #  V06N85, SO UPDATE N85 FOR DYNAMIC DISP
000884:
000885: 24,3311           37664                           CAF      PRIO27
000886: 24,3312           05134                           TC       NOVAC
000887: 24,3313  E6,1466                                  EBANK=   DAPDATR1
000888: 24,3313           03332 50066                     2CADR    CLOCKJOB
000889:
000890: 24,3315           40025        SETTB6             CS       TIME1                                 #  SET GROUP6 TIMEBASE
000891: 24,3316           55065                           TS       TBASE6
000892: 24,3317           15324                           TCF      TASKOVER
000893:
000894: 24,3320           37664        SETUPDYN           CAF      PRIO27                                #  SET UP A JOB TO UPDATE N85 (FOR P41=V06)
000895: 24,3321           05147                           TC       FINDVAC
000896: 24,3322  E6,1466                                  EBANK=   DAPDATR1
000897: 24,3322           03325 50066                     2CADR    DYNDISP
000898:
000899: 24,3324           13315                           TCF      SETTB6                                #  CLOSE OUT CLOCKTASK


000901: 24,3325           06006        DYNDISP            TC       INTPRET                               #  UPDATE N85 FOR A DYNAMIC V06N85 IN P41.
000902: 24,3326           77624                           CALL                                           #        PRIOR TO BLANKING AND AVEG (V16N85)
000903: 24,3327           50370                                    P40CNV85
000904: 24,3330           77776                           EXIT
000905: 24,3331           13342                           TCF      CKNVWRD1
000906:


000908:                                                                                                  #  ROUTINE ** CLOCKJOB ** DESCRIPTION
000909:
000910: 24,3332  E6,1466                                  EBANK=   DAPDATR1
000911: 24,3332           30032        CLOCKJOB           CA       CDUX
000912: 24,3333           54772                           TS       CDUSPOTX
000913: 24,3334           30033                           CA       CDUY
000914: 24,3335           54766                           TS       CDUSPOTY
000915: 24,3336           30034                           CA       CDUZ
000916: 24,3337           54770                           TS       CDUSPOTZ
000917: 24,3340           04662                           TC       BANKCALL
000918: 24,3341           47555                           CADR     QUICTRIG
000919: 24,3342           00004        CKNVWRD1           INHINT
000920: 24,3343           11145                           CCS      NVWORD1                               #  DETERMINE FUNCTION, INDICATED BY NVWORD1
000921: 24,3344           13363                           TCF      NOFLASH
000922: 24,3345           15217                           TCF      ENDOFJOB
000923: 24,3346           13355                           TCF      ENGREQST                              #  SPS ENGINE-ON-ENABLE V99 FLASH
000924: 24,3347           32425        FAILDSP            CAF      V06N40                                #  SPS ENGINE-FAILED V97 FLASH
000925: 24,3350           04662                           TC       BANKCALL
000926: 24,3351           20715                           CADR     CLOCPLAY
000927: 24,3352           13432                           TCF      V97T                                  #  TERMINATE
000928: 24,3353           13465                           TCF      V97P                                  #  PROCEED
000929: 24,3354           13514                           TCF      V97E                                  #  ENTER
000930:
000931: 24,3355           32425        ENGREQST           CAF      V06N40
000932: 24,3356           04662                           TC       BANKCALL
000933: 24,3357           20715                           CADR     CLOCPLAY
000934: 24,3360           13402                           TCF      V99T                                  #  TERMINATE
000935: 24,3361           13410                           TCF      V99P                                  #  PROCEED
000936: 24,3362           13374                           TCF      V99E                                  #  ENTER
000937:
000938: 24,3363           31145        NOFLASH            CAE      NVWORD1                               #  DISPLAY NVWORD1 NORMALLY
000939: 24,3364           04662                           TC       BANKCALL
000940: 24,3365           20707                           CADR     REGODSP
000941:
000942: 24,3366           35060        E7SETTER           CAF      EBANK7
000943: 24,3367           54003                           TS       EBANK
000944: 24,3370  E7,1412                                  EBANK=   TIG
000945: 24,3370           00002                           TC       Q
000946:
000947: 24,3371           35057        E6SETTER           CAF      EBANK6                                #  SET UP EBANK6
000948: 24,3372           54003                           TS       EBANK
000949: 24,3373  E6,1466                                  EBANK=   DAPDATR1
000950: 24,3373           00002                           TC       Q
000951:
000952: 24,3374  E6,1466                                  EBANK=   DAPDATR1
000953: 24,3374           05372        V99E               TC       2PHSCHNG
000954: 24,3375           00006                           OCT      00006                                 #  KILL PRE40.6/CLOKTASK PROTECTION
000955: 24,3376           05024                           OCT      05024                                 #  C, PRIORITY NEXT, JOB BELOW


000957: 24,3377           27000                           OCT      27000
000958: 24,3400           03070        V99EJOB            TCR      TVCZAP     -1                         #  WIPE OUT TVC, CLOKTASK
000959: 24,3401           12254                           TCF      P40RCS                                #  V16N85 POST-BURN OPERATIONS
000960:
000961: 24,3402  E6,1466                                  EBANK=   DAPDATR1
000962: 24,3402           05372        V99T               TC       2PHSCHNG                              #  (ENTRY FROM V97T FLOW TOO)
000963: 24,3403           00006                           OCT      00006                                 #  KILL PRE40.6/CLOKTASK PROTECTION
000964: 24,3404           05024                           OCT      05024                                 #  C, PRIORITY NEXT, JOB BELOW
000965: 24,3405           27000                           OCT      27000
000966: 24,3406           03070        V99TJOB            TCR      TVCZAP     -1                         #  WIPE OUT TVC, CLOKTASK
000967: 24,3407           12275                           TCF      POST41                                #  AVEGEXIT, SETMAXDB, GOTOPOOH
000968:
000969: 24,3410           00004        V99P               INHINT
000970: 24,3411           30103                           CAE      FLAGWRD7                              #  CHECK ASTN FLAG FOR PRIOR V99P
000971: 24,3412           75004                           MASK     BIT12
000972: 24,3413           10000                           CCS      A
000973: 24,3414           13427                           TCF      V99P/TIG                              #  YES, THIS MUST BE A RESTART ENTRY
000974:
000975: 24,3415           35004        ASTNV99P           CAF      BIT12                                 #  SET ASTN FLAG
000976: 24,3416           26103                           ADS      FLAGWRD7
000977: 24,3417           30103                           CAE      FLAGWRD7                              #  CHECK IGN FLAG FOR TIG-0 ARRIVAL
000978: 24,3420           75003                           MASK     BIT13
000979: 24,3421           00006                           EXTEND
000980: 24,3422           13427                           BZF      V99P/TIG                              #  NO, CLEAR THE V99 AND WAIT FOR TIG-0
000981:
000982: 24,3423           35017        ENDV99PI           CAF      BIT1                                  #  TIG-0 HAS COME ALREADY
000983: 24,3424           05245                           TC       WAITLIST                              #  SET UP IGNITION HERE
000984: 24,3425  E6,1466                                  EBANK=   DAPDATR1
000985: 24,3425           02625 50066                     2CADR    IGNITION
000986:
000987: 24,3427           32425        V99P/TIG           CAF      V06N40                                #  CLEAR THE V99 FLASH AND WAIT FOR TIG-0
000988: 24,3430           55145                           TS       NVWORD1
000989: 24,3431           15217        ENDV99P            TCF      ENDOFJOB
000990:
000991: 24,3432  E6,1474                                  EBANK=   CSMMASS
000992: 24,3432           05372        V97T               TC       2PHSCHNG
000993: 24,3433           00006                           OCT      00006                                 #  KILL GROUP 6 (CLOKTASK)
000994: 24,3434           40674                           OCT      40674                                 #  A, 4.67 = V97TTASK (-0 CS), TBASE NOW
000995: 24,3435           35017                           CAF      BIT1
000996: 24,3436           05235                           TC       TWIDDLE
000997: 24,3437           03441                           ADRES    V97TTASK                              #  KEEP EBANK6 FOR MASSES, SPSOFF, ETC.
000998: 24,3440           15217                           TCF      ENDOFJOB
000999:
001000: 24,3441  E6,1474                                  EBANK=   CSMMASS
001001: 24,3441           35021        V97TTASK           CAF      ZERO                                  #  DISABLE CLOCKJOB
001002: 24,3442           55145                           TS       NVWORD1
001003: 24,3443           32434                           CAF      3MDOT                                 #  3 SECONDS OF MDOT (2-4 SEC ENGFAIL
001004: 24,3444           61474                           AD       CSMMASS                               #        DETECTION) NOT LOST BECAUSE THRUST
001005: 24,3445           55652                           TS       MASSTMP                               #        FAILED.  COPYCYCLE FOR MASSBACK


001007: 24,3446           05412                           TC       PHASCHNG
001008: 24,3447           05014                           OCT      05014                                 #  C, DELTAT NEXT, TASK BELOW, IN
001009: 24,3450           77777                           DEC      -0         B-14                       #  -0 CS
001010:
001011: 24,3451           03017                           TCR      SPSOFF                                #  SHUTDOWN SPS ENGINE, MASS UPDATE, ETC.
001012: 24,3452           05412                           TC       PHASCHNG
001013: 24,3453           00714                           OCT      00714                                 #  A, 4.71 = V97TRCS (250 CS), TBASE OLD
001014: 24,3454           05267                           TC       FIXDELAY                              #  DELAY 2.5 SECONDS FOR (POSSIBLE) TAIL-
001015: 24,3455           00372                           DEC      250        B-14                       #        OFF (FALSE THRUST-LOSS)
001016:
001017: 24,3456  E6,1466                                  EBANK=   DAPDATR1
001018: 24,3456           04740        V97TRCS            TC       IBNKCALL                              #  RCS DAP IN 0.6SEC, SETTING T5 BITS TO
001019: 24,3457           42024                           CADR     RCSDAPON                              #        KILL TVCEXEC/TVCROLLDAP STARTS
001020: 24,3460           37664                           CAF      PRIO27                                #  SET UP V99T FOR TVCZAP AND POST41 (SET-
001021: 24,3461           05134                           TC       NOVAC                                 #        MAXDB AND GOTOPOOH)
001022: 24,3462  E6,1466                                  EBANK=   DAPDATR1                              #  EBANK6 FOR SETMAXDB IN POST41
001023: 24,3462           03402 50066                     2CADR    V99T
001024:
001025: 24,3464           15324        ENDV97T            TCF      TASKOVER
001026:
001027: 24,3465  E6,1444                                  EBANK=   V97VCNTR
001028: 24,3465           05412        V97P               TC       PHASCHNG
001029: 24,3466           40734                           OCT      40734                                 #  A, 4.73 = V97PTASK (-0 CS), TBASE NOW
001030: 24,3467           35017                           CAF      BIT1
001031: 24,3470           05235                           TC       TWIDDLE
001032: 24,3471           03473                           ADRES    V97PTASK
001033: 24,3472           15217                           TCF      ENDOFJOB
001034:
001035: 24,3473  E6,1444                                  EBANK=   V97VCNTR
001036: 24,3473           31444        V97PTASK           CAE      V97VCNTR                              #  GET MASS UPDATES (TVCEXEC) GOING AGAIN
001037: 24,3474           55643                           TS       VCNTR                                 #        (ERRORS IF FLASE THRUST-LOSS AND/OR
001038:                                                                                                  #        POOR SYNCH OF MANUAL ENGINE-ON AND
001039:                                                                                                  #        THE VERB 97 PROCEED)
001040: 24,3475           32425                           CAF      V06N40                                #  REDISPLAY V06N40
001041: 24,3476           55145                           TS       NVWORD1
001042: 24,3477           05546                           TC       UPFLAG                                #  SET IDLEFAIL TO ALLOW R41-BYPASS, IN
001043: 24,3500           00030                           ADRES    IDLEFAIL                              #        CASE OF UNFAVORABLE S40.8 SYNCH
001044: 24,3501           05546                           TC       UPFLAG                                #  SET STEERSW TO RE-ENABLE STEERING
001045: 24,3502           00042                           ADRES    STEERSW
001046: 24,3503           05412                           TC       PHASCHNG
001047: 24,3504           00134                           OCT      00134                                 #  A, 4.13 = R40ENABL (200 CS), TBASE OLD
001048: 24,3505           05267                           TC       FIXDELAY                              #  WAIT 2 SECONDS, THEN
001049: 24,3506           00310                           DEC      200        B-14
001050:
001051: 24,3507  E7,1777                                  EBANK=   WHOCARES
001052: 24,3507           05560        R40ENABL           TC       DOWNFLAG                              #  RE-ENABLE R40 BY CLEARING IDLEFAIL
001053: 24,3510           00030                           ADRES    IDLEFAIL
001054: 24,3511           05412                           TC       PHASCHNG
001055: 24,3512           00004                           OCT      00004                                 #  KILL GROUP 4


001057: 24,3513           15324        ENDV97P            TCF      TASKOVER
001058:
001059: 24,3514  E7,1777                                  EBANK=   WHOCARES
001060: 24,3514           05412        V97E               TC       PHASCHNG
001061: 24,3515           40534                           OCT      40534                                 #  A, 4.53 = V97ETASK (-0 CS), TBASE NOW
001062: 24,3516           35017                           CAF      BIT1
001063: 24,3517           05245                           TC       WAITLIST
001064: 24,3520  E7,1412                                  EBANK=   TIG
001065: 24,3520           03523 50067                     2CADR    V97ETASK
001066:
001067: 24,3522           15217                           TCF      ENDOFJOB
001068:
001069: 24,3523  E7,1412                                  EBANK=   TIG
001070: 24,3523           44112        V97ETASK           CS       OCT24                                 #  FORCE R1 OF V06N40 TO READ  59X59
001071: 24,3524           55412                           TS       TIG
001072: 24,3525           32425                           CAF      V06N40                                #  REDISPLAY V06N40
001073: 24,3526           55145                           TS       NVWORD1
001074: 24,3527           03371                           TCR      E6SETTER                              #  RETURN TO EBANK6 FOR REST OF V97ETASK
001075: 24,3530  E6,1474                                  EBANK=   CSMMASS
001076: 24,3530           32434                           CAF      3MDOT                                 #  3 SECONDS OF MDOT (2-4 SEC ENGFAIL
001077: 24,3531           61474                           AD       CSMMASS                               #        DETECTION) NOT LOST BECAUSE THRUST
001078: 24,3532           55652                           TS       MASSTMP                               #        FAILED....COPYCYCLE FOR MASSBACK
001079: 24,3533           05412                           TC       PHASCHNG
001080: 24,3534           00754                           OCT      00754                                 #  A, 4.75 = SPSOFF97 (-0 CS), TBASE OLD
001081: 24,3535           03017        SPSOFF97           TCR      SPSOFF
001082: 24,3536           05412                           TC       PHASCHNG
001083: 24,3537           00114                           OCT      00114                                 #  A, 4.11 = V97E40.6 (250 CS), TBASE OLD
001084: 24,3540           05267                           TC       FIXDELAY                              #  DELAY 2.5 SECONDS FOR (POSSIBLE) TAIL-
001085: 24,3541           00372                           DEC      250        B-14                       #        OFF (FALSE THRUST-LOSS)
001086:
001087: 24,3542  E6,1466                                  EBANK=   DAPDATR1
001088: 24,3542           35017        V97E40.6           CAF      BIT1
001089: 24,3543           05245                           TC       WAITLIST
001090: 24,3544  E6,1447                                  EBANK=   CNTR
001091: 24,3544           02241 40066                     2CADR    PRE40.6                               #  USE S40.6 RESTART ENTRY TO TRIM ENGINE
001092:
001093: 24,3546           04740                           TC       IBNKCALL                              #  RCS DAP IN 0.6SEC, SETTING T5 BITS TO
001094: 24,3547           42024                           CADR     RCSDAPON                              #        KILL TVCEXEC/TVCROLLDAP STARTS.
001095:                                                                                                  #        LEAVE NARROW DEADBAND FOR REIGNITE
001096:
001097: 24,3550           05372                           TC       2PHSCHNG
001098: 24,3551           00026                           OCT      00026                                 #  A, 6.2 = PRE40.6 (-0 CS), CLOKTASK (1 SEC)
001099: 24,3552           05014                           OCT      05014                                 #  C, DELTAT NEXT, TASK BELOW, IN
001100: 24,3553           77777                           DEC      -0         B-14                       #  -0 CS
001101:
001102: 24,3554           45066        QUICKIGN           CS       PRIO14                                #  CLEAR ASTNFLAG AND SET IGNFLAG FOR
001103: 24,3555           70103                           MASK     FLAGWRD7                              #        IMMEDIATE V99 RESPONSE
001104: 24,3556           65003                           AD       BIT13
001105: 24,3557           54103                           TS       FLAGWRD7
001106: 24,3560           05267                           TC       FIXDELAY                              #  DELAY TO ALLOW TIME FOR PRE40.6


001108: 24,3561           00036                           DEC      30         B-14
001109:
001110: 24,3562           45007        V99FLASH           CS       BIT9                                  #  CAUSE V99 TO FLASH
001111: 24,3563           55145                           TS       NVWORD1
001112: 24,3564           05372                           TC       2PHSCHNG
001113: 24,3565           40774                           OCT      40774                                 #  A, 4.77 = TIG-0 (-0 CS) TBASE FOR PREPTVC
001114: 24,3566           00033                           OCT      00033                                 #  A, 3.3 = S40.13 (PRIO 20)
001115: 24,3567           35002                           CAF      PRIO20                                #  SET UP TIMEBURN
001116: 24,3570           05147                           TC       FINDVAC
001117: 24,3571  E7,1427                                  EBANK=   TGO
001118: 24,3571           02424 34067                     2CADR    S40.13
001119:
001120: 24,3573           15324        ENDV97E            TCF      TASKOVER                              #  WAIT FOR CLOCKJOB (IMMEDIATE) REACTION
001121:                                                                                                  #        TO FLASHING V99 RESPONSE
001122:
001123:                                                                                                  #  MOD NO2                               LOG SECTION P40-P47
001124:                                                                                                  #  MOD BY ZELDIN
001125:
001126:                                                                                                  #  FUNCTIONAL DESCRIPTION
001127:                                                                                                  #        COMPUTE INITIAL THRUST DIRECTION(UT) AND INITIAL VALUE OF VG
001128:                                                                                                  #        VECTOR(VGTIG).
001129:
001130:                                                                                                  #  CALLING SEQUENCE
001131:                                                                                                  #        L       CALL
001132:                                                                                                  #        L+1             S40.1
001133:
001134:                                                                                                  #  NORMAL EXIT MODE
001135:                                                                                                  #        AT L+2 OF CALLING SEQUENCE (GOTO L+2) NORMAL RETURN OR
001136:                                                                                                  #        ERROR RETURN IF NOSOFLAG =1
001137:
001138:                                                                                                  #  SUBROUTINES CALLED
001139:                                                                                                  #        CSMPREC
001140:                                                                                                  #        INITVEL
001141:                                                                                                  #        CALCGRAV
001142:                                                                                                  #        MIDGIM
001143:
001144:                                                                                                  #  ALARM OR ABORT EXIT MODES
001145:                                                                                                  #        L+2 OF CALLING SEQUENCE, UNSOLVABLE CONIC IF NOSOFLAG=1
001146:
001147:                                                                                                  #  ERASABLE INITIALIZATION REQUIRED
001148:                                                                                                  #        WEIGHT/G        ANTICIPATED MAG. OF VEHICLE MASS        SP B16 KGM
001149:                                                                                                  #        XDELVFLG        1=DELTA-V MANEUVER, 0=AIMPT STEER
001150:                                                                                                  #    IF DELTA-V MANEUVER
001151:                                                                                                  #        DELVSIN         SPECIFIED DELTA-V REQUIRED IN
001152:                                                                                                  #                        INERTIAL COORDS. OF ACTIVE VEHICLE
001153:                                                                                                  #                        AT TIME OF IGNITION             VECTOR B7 M/CS
001154:                                                                                                  #        DELVSAB         MAG. OF DELVSIN                 DP B7 M/CS
001155:                                                                                                  #        RTIG            POSITION AT TIME OF IGNITION    VECTOR B29 M
001156:                                                                                                  #        VTIG            VELOCITY AT TIME OF IGNITION    VECTOR B7 M/CS
001157:                                                                                                  #        CSTEER = 0                                      DP
001158:                                                                                                  #    IF AIMPOINT STEERING
001159:                                                                                                  #    IF AIMPT STEER
001160:                                                                                                  #        TIG             TIME OF IGNITION                DP B28 CS
001161:                                                                                                  #        RTARG           POSITION TARGET TIME            VECTOR B29 M
001162:                                                                                                  #        CSTEER = ECSTEER (GR 0)                         DP B1


001164:                                                                                                  #        TPASS4 - TIME OF ARRIVAL AT AIMPOINT
001165:
001166:                                                                                                  #  OUTPUT
001167:                                                                                                  #        UT              1/2 UNIT VECTOR ALIGNED WITH THRUST DIRECTION IN REF COOR
001168:                                                                                                  #        VGTIG           INITIAL VALUE OF VELOCITY
001169:                                                                                                  #                        TO BE GAINED (INERT. COORD.)            VECTOR B7 M/CS
001170:                                                                                                  #        DELVLVC         VGTIG IN LOC. VERT. COORDS.             B7 M/CS
001171:                                                                                                  #        F               NOMINAL THRUST FOR ENG USED FOR S40.13  DP B7 M-NEWT
001172:                                                                                                  #        BDT             V REQUIRED AT TIG -V REQUIRED AT (TIG-2SEC)
001173:                                                                                                  #        -GDT            FOR S40.13                              VECT B7 M/CS
001174:                                                                                                  #        RTIG            CALC IN S40.1B (AIMPT) FOR S40.2,3      VECTOR B29M
001175:                                                                                                  #                        POSITION AT TIME OF IGNITION
001176:
001177:                                                                                                  #  DEBRIS        QTEMP1
001178:                                                                                                  #                MPAC, QPRET
001179:                                                                                                  #                PUSHLIST
001180:                                                                                                  #                RTX2,RTX1
001181:
001182: 14,2011                                           BANK     14
001183: 16,2000                                           SETLOC   P40S1
001184: 16,2000                                           BANK
001185:
001186: 16,2020                                           COUNT    16/S40.1
001187:
001188: 16,2020           77214        S40.1              SET      VLOAD
001189: 16,2021           01070                                    FIRSTFLG
001190: 16,2022           11563                                    LO6ZEROS
001191: 16,2023           03705                           STORE    BDT
001192: 16,2024           43020                           STQ      BOF
001193: 16,2025           03657                                    QTEMP
001194: 16,2026           01347                                    XDELVFLG
001195: 16,2027           34113                                    S40.1B                                #  LAMBERT


001225: 16,2030           77201                           SETPD    VLOAD                                 #  EXTERNAL DELTA V
001226: 16,2031           00001                                    0
001227: 16,2032           03640                                    VTIG
001228: 16,2033           03576                           STORE    VINIT
001229: 16,2034           53435                           VXV      UNIT
001230: 16,2035           03632                                    RTIG
001231: 16,2036           27713                           STOVL    UT                                    #  UP IN UT
001232: 16,2037           03632                                    RTIG
001233: 16,2040           03570                           STORE    RINIT
001234: 16,2041           65236                           VSQ      PDDL
001235: 16,2042           00045                                    36D


001240: 16,2043           56205                           DMP      DDV
001241: 16,2044           34147                                    THETACON
001242: 16,2045           41205                           DMP      DMP
001243: 16,2046           03654                                    DELVSAB
001244: 16,2047           03076                                    WEIGHT/G
001245: 16,2050           77671                           DDV


001247: 16,2051           03727                                    F
001248: 16,2052           24017                           STOVL    14D
001249: 16,2053           03646                                    DELVSIN
001250:
001251: 16,2054           74241                           DOT      VXSC
001252: 16,2055           03713                                    UT
001253: 16,2056           03713                                    UT
001254: 16,2057           41552                           VSL2     PUSH                                  #  (DELTAV.UP)UP SCALED AT 2(+7) P.D.L. 0
001255: 16,2060           65245                           BVSU     PDDL                                  #  DELTA VP SCALED AT 2(+7) P.D.L. 6
001256: 16,2061           03646                                    DELVSIN
001257: 16,2062           00017                                    14D
001258: 16,2063           63356                           SIN      PDVL
001259: 16,2064           00007                                    6D
001260: 16,2065           53435                           VXV      UNIT
001261: 16,2066           03713                                    UT
001262: 16,2067           45561                           VXSC     STADR
001263: 16,2070           50056                           STOVL    VGTIG                                 #  UNIT(VPXUP)SIN(THETAT) IN VGTIG
001264: 16,2071           65256                           UNIT     PDDL                                  #  UNIT(DELTA VP) IN P.D.L. 6
001265: 16,2072           00017                                    14D
001266: 16,2073           74346                           COS      VXSC
001267: 16,2074           74255                           VAD      VXSC
001268: 16,2075           03721                                    VGTIG
001269: 16,2076           00045                                    36D
001270: 16,2077           53352                           VSL2     VAD
001271: 16,2100           77626                           STADR
001272: 16,2101           74056                           STORE    VGTIG                                 #  VG IGNITION SCALED AT 2(+7) M/CS
001273:
001274: 16,2102           77656                           UNIT
001275: 16,2103           27713                           STOVL    UT                                    #  THRUST DIRECTION SCALED AT 2(+1)
001276: 16,2104           03721                                    VGTIG
001277: 16,2105           43006                           PUSH     SET
001278: 16,2106           01072                                    AVFLAG
001279: 16,2107           77624                           CALL
001280: 16,2110           10647                                    MIDGIM                                #  VGTIG IN LV COOR AT 2(+7)M/CS IN DELVLVC
001281: 16,2111           77650                           GOTO
001282: 16,2112           03657                                    QTEMP
001283: 16,2113           45345        S40.1B             DLOAD    DSU                                   #  LAMBERT
001284: 16,2114           03413                                    TIG
001285: 16,2115           36001                                    TWODT
001286: 16,2116           14041                           STODL    TDEC1
001287: 16,2117           03656                                    TPASS4
001288: 16,2120           77625                           DSU
001289: 16,2121           00041                                    TDEC1
001290: 16,2122           37423                           STCALL   DELLT4
001291: 16,2123           61651                                    AGAIN
001292: 16,2124           77775                           VLOAD
001293: 16,2125           03612                                    VIPRIME
001294: 16,2126           17713                           STODL    UT
001295: 16,2127           03413                                    TIG
001296: 16,2130           00041                           STORE    TDEC1


001298: 16,2131           77621                           BDSU
001299: 16,2132           03656                                    TPASS4
001300: 16,2133           37423                           STCALL   DELLT4
001301: 16,2134           61651                                    AGAIN
001302: 16,2135           41575                           VLOAD    PUSH
001303: 16,2136           03646                                    DELVEET3
001304: 16,2137           03721                           STORE    VGTIG
001305: 16,2140           45014                           SET      CALL
001306: 16,2141           01072                                    AVFLAG
001307: 16,2142           10647                                    MIDGIM
001308: 16,2143           52001                           SETPD    GOTO
001309: 16,2144           00001                                    0
001310: 16,2145           61704                                    CALCUT
001311:
001312: 16,2146           00024 13714  THETACON           2DEC     .31830989  B-8
001313:
001314: 30,2000                                           SETLOC   P40S3
001315: 30,2000                                           BANK
001316:
001317: 30,3645                                           COUNT    24/S40.1
001318:
001319: 30,3645           04000 00000  EP4(45)H           2DEC     .125
001320:
001321: 30,3647           00707 03434  EP4(10)H           2DEC     .027777777
001322:
001323: 30,3651           45020        AGAIN              STQ      CALL
001324: 30,3652           03730                                    QTEMP1
001325: 30,3653           27071                                    THISPREC
001326: 30,3654           66134                           SXA,2    SXA,1
001327: 30,3655           03746                                    RTX2
001328: 30,3656           03745                                    RTX1
001329: 30,3657           77775                           VLOAD
001330: 30,3660           00001                                    RATT
001331: 30,3661           03632                           STORE    RTIG
001332: 30,3662           27570                           STOVL    RINIT
001333: 30,3663           00007                                    VATT
001334: 30,3664           03640                           STORE    VTIG
001335: 30,3665           03576                           STORE    VINIT
001336: 30,3666           67201                           SETPD    SLOAD
001337: 30,3667           00001                                    0
001338: 30,3670           15335                                    HI6ZEROS
001339: 30,3671           43125                           PDDL     BON
001340: 30,3672           21646                                    EP4(45)H
001341: 30,3673           03705                                    NORMSW
001342: 30,3674           61677                                    +3
001343: 30,3675           77745                           DLOAD
001344: 30,3676           21650                                    EP4(10)H
001345: 30,3677           45006                           PUSH     CALL
001346: 30,3700           22000                                    INITVEL
001347: 30,3701           52001                           SETPD    GOTO


001349: 30,3702           00001                                    0
001350: 30,3703           03730                                    QTEMP1
001351: 30,3704           45175        CALCUT             VLOAD    CALL
001352: 30,3705           03632                                    RTIG
001353: 30,3706           77352                                    CALCGRAV                              #  GDELTAT IN MPAC AT 2(+7) M/CS
001354: 30,3707           70372                           VSL1     V/SC
001355: 30,3710           21747                                    200CS                                 #  G AT 2(-5) M/CS. CS
001356: 30,3711           52315                           PDVL     VSU
001357: 30,3712           03612                                    VIPRIME
001358: 30,3713           03713                                    UT
001359: 30,3714           52341                           V/SC     VSU
001360: 30,3715           21747                                    200CS
001361: 30,3716           72561                           VXSC     VSL2
001362: 30,3717           03703                                    CSTEER
001363: 30,3720           24015                           STOVL    12D                                   #  B.C SCALED AT 2(-5) PDL 12D
001364: 30,3721           03721                                    VGTIG
001365: 30,3722           41456                           UNIT     PUSH                                  #  UG PDL 0 SCALED AT 2(+1)
001366:
001367: 30,3723           74241                           DOT      VXSC
001368: 30,3724           00015                                    12D
001369: 30,3725           00001                                    0
001370: 30,3726           51352                           VSL2     BVSU
001371: 30,3727           00015                                    12D
001372: 30,3730           14015                           STODL    12D                                   #  Q PDL 12D SCALED AT 2(-5)
001373: 30,3731           03727                                    F
001374: 30,3732           56261                           SRR      DDV
001375: 30,3733           21605                                    4
001376: 30,3734           03076                                    WEIGHT/G
001377: 30,3735           63316                           DSQ      PDVL                                  #  F/MASS SQUARED PDL 6 AT 2(-10)M/(CS.CS)
001378: 30,3736           00015                                    12D
001379: 30,3737           77636                           VSQ
001380: 30,3740           75421                           BDSU     SQRT
001381: 30,3741           76561                           VXSC     VSL1
001382: 30,3742           53455                           VAD      UNIT
001383: 30,3743           00015                                    12D
001384: 30,3744           37713                           STCALL   UT
001385: 30,3745           03657                                    QTEMP
001386: 30,3746           01440 00000  200CS              2DEC     200        B-12
001387:


001389:                                                                                                  #  PROGRAM DESCRIPTION S40.2,3           DATE 15,NOV,66
001390:                                                                                                  #  MOD NO 2                              LOG SECTION P40-P47
001391:                                                                                                  #  MOD BY ZELDIN
001392:
001393:                                                                                                  #  FUNCTIONAL DESCRIPTION
001394:                                                                                                  #
001395:                                                                                                  #        COMPUTE GIMBAL ANGLES IF THRUSTING OCCURRED WITH PRESENT IMU
001396:                                                                                                  #        ORIENTATION, WINGS LEVEL SPACECRAFT, HEADS UP
001397:                                                                                                  #        COMPUTE X AXIS OF ENGINE BELL
001398:                                                                                                  #        COMPUTE PREFERRED IMU ORIENTATION (XSCREF)
001399:                                                                                                  #        FOR THIS CALCULATION, ASSUME X AXIS OF SC ALONG UT INITIALLY,
001400:                                                                                                  #        YSC=UNIT(XXR), ZSC=UNIT(XX(XXR)) AND ROTATE ENGINE BELL ALONG UT
001401:                                                                                                  #        NEW SC AXES WILL BE APPROX. WINGS LEVEL AND NEW SC AXES IN REF.
001402:                                                                                                  #        COORDS. WILL BE PREFERRED IMU ORIENTATION.
001403:                                                                                                  #        COMPUTE DESIRED THRUST DIRECTION IN SM COORDS.
001404:
001405:                                                                                                  #  CALLING SEQUENCE
001406:                                                                                                  #        L       CALL
001407:                                                                                                  #        L+1             S40.2,3
001408:
001409:                                                                                                  #  NORMAL EXIT MODE
001410:                                                                                                  #        AT L+2 OF CALLING SEQUENCE (GOTO L+2)
001411:
001412:                                                                                                  #  SUBROUTINES CALLED
001413:                                                                                                  #        CALCGA
001414:
001415:                                                                                                  #  ALARM OR ABORT MODES
001416:                                                                                                  #        NONE
001417:
001418:                                                                                                  #  ERASABLE INITIALIZATION REQUIRED
001419:                                                                                                  #        PACTOFF         TOTAL PITCH TRIM ANGLE          SP AT 1.0795111 REV.
001420:                                                                                                  #        YACTOFF         TOTAL YAW   TRIM ANGLE          SP AT 1.0795111 REV.
001421:                                                                                                  #        UT              DESIRED THRUST DIRECTION        VECT. B2 M/(CS.CS)
001422:                                                                                                  #        RTIG            POSITION AT TIME OF IGNITION    VECT. B29 M
001423:                                                                                                  #        ENG2FLAG        ON=RCS  OFF=SPS
001424:
001425:                                                                                                  #  OUTPUT
001426:                                                                                                  #        SCAXIS          UNIT VECT. ALIGNED WITH ENG BELL IN SC COOR     B1
001427:                                                                                                  #        XSCREF          UNIT VECTORS ALIGNED WITH PREFERRED IMU         B1
001428:                                                                                                  #        YSCREF
001429:                                                                                                  #        ZSCREF
001430:                                                                                                  #        GIMBAL ANGLES IN THETAD
001431:                                                                                                  #        POINTVSM        UNIT VECT ALONG DESIRED THRUST DIRECTION IN SM  B1
001432:
001433:                                                                                                  #  DEBRIS
001434:                                                                                                  #        PUSHLIST, QPRET, MPAC
001435:                                                                                                  #        QTEMP   TEMP. ERASABLE
001436:
001437: 24,3574                                           BANK     24
001438: 24,2000                                           SETLOC   P40S
001439: 24,2000                                           BANK
001440: 24,3574                                           COUNT*   $$/S40.2
001441: 24,3574           64375        S40.2,3            VLOAD    MXV
001442: 24,3575           03713                                    UT
001443: 24,3576           01736                                    REFSMMAT
001444: 24,3577           44172                           VSL1     STQ
001445: 24,3600           03657                                    QTEMP
001446: 24,3601           03357                           STORE    POINTVSM                              #  THRUST IN SM AT 2
001447: 24,3602           43001                           SETPD    BON
001448: 24,3603           00001                                    0


001450: 24,3604           00704                                    ENG2FLAG
001451: 24,3605           51715                                    S40.2,3B
001452: 24,3606           77745                           DLOAD
001453: 24,3607           15335                                    HI6ZEROS
001454: 24,3610           67206                           PUSH     SLOAD                                 #  ZERO PDL 0
001455: 24,3611           03025                                    YACTOFF
001456: 24,3612           72405                           DMP      SL1
001457: 24,3613           11754                                    TRIMSCAL
001458: 24,3614           41415                           DAD      PUSH
001459: 24,3615           11756                                    YBIAS
001460: 24,3616           65346                           COS      PDDL                                  #  COS(Y +Y0) PDL 2
001461: 24,3617           41556                           SIN      PUSH                                  #  SIN(Y +Y0) PDL 4
001462: 24,3620           77735                           SLOAD
001463: 24,3621           03024                                    PACTOFF
001464: 24,3622           72405                           DMP      SL1
001465: 24,3623           11754                                    TRIMSCAL
001466: 24,3624           41415                           DAD      PUSH
001467: 24,3625           11760                                    PBIAS
001468: 24,3626           65346                           COS      PDDL                                  #  COS(P +P0) PDL 6
001469: 24,3627           41556                           SIN      PUSH                                  #  SIN(P +P0) PDL 8D
001470: 24,3630           14323                           STODL    ZSCREF                                #  SIN(P +P0)
001471: 24,3631           00007                                    6
001472: 24,3632           72405                           DMP      SL1
001473: 24,3633           00005                                    4
001474: 24,3634           65276                           DCOMP    PDDL                                  #  -SIN(Y+Y0)COS(P+P0) PDL 10
001475: 24,3635           00007                                    6
001476: 24,3636           72405                           DMP      SL1
001477: 24,3637           00003                                    2
001478: 24,3640           77666                           VDEF
001479:
001480: 24,3641           14307                           STODL    XSCREF                                #  PD POINTER AT 6 NEW SC X AXIS SCALED AT
001481: 24,3642           00323                                    ZSCREF
001482: 24,3643           72405                           DMP      SL1
001483: 24,3644           00005                                    4
001484: 24,3645           41325                           PDDL     DMP
001485: 24,3646           00323                                    ZSCREF
001486: 24,3647           00003                                    2
001487: 24,3650           57552                           SL1      DCOMP
001488: 24,3651           77666                           VDEF
001489:
001490: 24,3652           14323                           STODL    ZSCREF                                #  PD POINTER AT 4 NEW SC Z AXIS SCALED AT 2
001491: 24,3653           77666                           VDEF
001492:
001493: 24,3654           14315                           STODL    YSCREF                                #  PD POINTER AT 0 NEW SC Y AXIS SCALED AT 2
001494: 24,3655           00323                                    ZSCREF
001495: 24,3656           65325                           PDDL     PDDL
001496: 24,3657           00315                                    YSCREF
001497: 24,3660           00307                                    XSCREF
001498: 24,3661           77666                           VDEF


001500: 24,3662           27351                           STOVL    SCAXIS                                #  ENGINE BELL SCALED AT 2
001501: 24,3663           03713                                    UT
001502: 24,3664           53515                           PDVL     UNIT
001503: 24,3665           03632                                    RTIG
001504: 24,3666           57435                           VXV      VCOMP
001505: 24,3667           00001                                    0
001506: 24,3670           41456                           UNIT     PUSH
001507: 24,3671           77624                           CALL
001508: 24,3672           51734                                    TSTRXUT
001509: 24,3673           57435                           VXV      VCOMP
001510: 24,3674           00001                                    0
001511: 24,3675           63372                           VSL1     PDVL                                  #  2 RF/SC IN PDL 12D
001512: 24,3676           00307                                    XSCREF
001513: 24,3677           76505                           VXM      VSL1
001514: 24,3700           00001                                    0
001515: 24,3701           24307                           STOVL    XSCREF                                #  X OF PREF IMU,X OF SC IN REF COOR. AT 2
001516: 24,3702           00315                                    YSCREF
001517: 24,3703           76505                           VXM      VSL1
001518: 24,3704           00001                                    0
001519: 24,3705           24315                           STOVL    YSCREF                                #  Y OF PREF.IMU,Y OF SC IN REF COOR. AT 2
001520: 24,3706           00323                                    ZSCREF
001521: 24,3707           76505                           VXM      VSL1
001522: 24,3710           00001                                    0
001523: 24,3711           00323                           STORE    ZSCREF                                #  Z OF PREF. IMU,Z OF SC IN REF COOR. AT 2
001524: 24,3712           52001                           SETPD    GOTO
001525: 24,3713           00001                                    0
001526: 24,3714           03657                                    QTEMP
001527: 24,3715           77775        S40.2,3B           VLOAD
001528: 24,3716           15333                                    UNITX
001529: 24,3717           27351                           STOVL    SCAXIS
001530: 24,3720           03713                                    UT
001531: 24,3721           00307                           STORE    XSCREF
001532: 24,3722           53435                           VXV      UNIT
001533: 24,3723           03632                                    RTIG
001534: 24,3724           34007                           STCALL   6D
001535: 24,3725           51734                                    TSTRXUT
001536: 24,3726           00315                           STORE    YSCREF
001537: 24,3727           57435                           VXV      VCOMP
001538: 24,3730           00307                                    XSCREF
001539: 24,3731           77772                           VSL1
001540: 24,3732           34323                           STCALL   ZSCREF                                #  ZNB AXIS IN REF COOR
001541: 24,3733           03657                                    QTEMP
001542: 24,3734           46145        TSTRXUT            DLOAD    BHIZ
001543: 24,3735           00045                                    36D
001544: 24,3736           51741                                    BADVCTOR
001545: 24,3737           43575                           VLOAD    RVQ
001546: 24,3740           00007                                    6D
001547: 24,3741           53575        BADVCTOR           VLOAD    UNIT
001548: 24,3742           03632                                    RTIG
001549: 24,3743           53515                           PDVL     UNIT


001551: 24,3744           03640                                    VTIG
001552: 24,3745           53322                           VSR3     VAD
001553: 24,3746           53435                           VXV      UNIT
001554: 24,3747           03713                                    UT
001555: 24,3750           77676                           VCOMP
001556: 24,3751           00007                           STORE    6D
001557: 24,3752           77616                           RVQ
001558: 24,3753           21215 12215  TRIMSCAL           2DEC     1.07975111 B-1
001559:
001560: 24,3755           00053 07423  YBIAS              2DEC     +.00263888889                            #  YAW   MECH BIAS (+0.95 DEG, THRUST ON)
001561:
001562: 24,3757           77636 44653  PBIAS              2DEC     -.00597222222                            #  PITCH MECH BIAS (-2.15 DEG, THRUST ON)
001563:
001564:                                                                                                  #  REFERENCE, TRW 68.6520.3.3-40 27 FEB, 1968
001565:
001566:                                                                                                  #  PROGRAM DESCRIPTION S41.1             DATE 8 DEC 66
001567:                                                                                                  #  MOD NO 1                              LOG SECTION P40-P47
001568:                                                                                                  #  MOD BY ZELDIN
001569:
001570:                                                                                                  #  FUNCTIONAL DESCRIPTION
001571:
001572:                                                                                                  #        COMPUTE VELOCITY TO BE GAINED INITIALLY IN REF COORDS.
001573:                                                                                                  #        TO CONTROL COORDS.
001574:
001575:                                                                                                  #  CALLING SEQUENCE
001576:
001577:                                                                                                  #        L       CALL
001578:                                                                                                  #        L+1             S41.1
001579:
001580:                                                                                                  #  NORMAL EXIT MODE
001581:                                                                                                  #
001582:                                                                                                  #        AT L +2 OF CALLING SEQUENCE
001583:
001584:                                                                                                  #  SUBROUTINES CALLED:
001585:
001586:                                                                                                  #        CALCSMSC
001587:                                                                                                  #        CDUTRIG
001588:
001589:                                                                                                  #  ALARM OR ABORT MODES
001590:
001591:                                                                                                  #        NONE
001592:
001593:                                                                                                  #  ERASABLE INITIALIZATION REQUIRED
001594:
001595:                                                                                                  #        VG IN REF. COORD. PDL L POINTER AT L+5.  S41.1 WILL RETURN WITH
001596:                                                                                                  #        POINTER AT L (L MUST BE LESS THAN OR = TO 14D)
001597:
001598:                                                                                                  #  OUTPUT
001599:
001600:                                                                                                  #        MPAC CONTAINS VG IN CONTROL COORDS              VECT. B7 M/CS
001601:
001602:                                                                                                  #  DEBRIS:
001603:
001604:                                                                                                  #        QTEMP           TEMP ERASABLE
001605:                                                                                                  #        QPRET
001606:
001607: 24,3761                                           COUNT    22/S41.1
001608:
001609: 22,2000                                           SETLOC   P40S5
001610: 22,2000                                           BANK
001611:
001612: 22,3431           45020        S41.1              STQ      CALL
001613: 22,3432           03657                                    QTEMP
001614: 22,3433           47477                                    CDUTRIG
001615: 22,3434           77775                           VLOAD
001616: 22,3435           45121                           MXV      CALL
001617: 22,3436           01736                                    REFSMMAT
001618: 22,3437           47644                                    *SMNB*


001620: 22,3440           74321                           MXV      VXSC
001621: 22,3441           05003                                    QUADROT
001622: 22,3442           05446                                    TENBNK14                              #  VG IN CONTROL COORD IN MPAC SCALED AT
001623: 22,3443           52072                           VSL5     GOTO                                  #  VG IN CONTROL COORDS. IN MPAC AT 2(+7)
001624: 22,3444           03657                                    QTEMP
001625: 22,3445           24000 00000  TENBNK14           2DEC     10.        B-4
001626:


001628:                                                                                                  #  NAME          S40.8 - CROSS PRODUCT STEERING
001629:                                                                                                  #  FUNCTION      (1) UPDATES THE VELOCITY-TO-BE-GAINED VECTOR.
001630:                                                                                                  #                (2) GENERATES ANGULAR RATE STEERING COMMANDS FOR AUTOPILOT.
001631:                                                                                                  #                (3) ESTABLISHES ENGINE CUT-OFF SIGNALS AT APPROPRIATE TIMES.
001632:                                                                                                  #                (4) INITIATES THRUST-FAIL ROUTINE, R40
001633:                                                                                                  #  CALLING SEQ   CALL S40.8
001634:                                                                                                  #  INPUT         VGPREV  -       LAST VALUE OF THE VELOCITY-TO-BE-GAINED VECTOR
001635:                                                                                                  #                                PRIOR TO UPDATING IN METERS/CS AT +7.
001636:                                                                                                  #                DELVREF -       CHANGE IN VEHICLE VELOCITY SINCE LAST MEASUMEMENT
001637:                                                                                                  #                                IN METERS/CS AT +7.
001638:                                                                                                  #                BDT     -       EFFECT OF RATE OF CHANGE OF REQUIRED VELOCITY AND
001639:                                                                                                  #                                GRAVITY DURING DT UPON VELOCITY-TO-BE-GAINED IN
001640:                                                                                                  #                                METERS/CS AT +7.
001641:                                                                                                  #                CSTEER  -       A SCALAR OF THE STEERING LAW, SC.AT B+1, USED FOR
001642:                                                                                                  #                                SPS AIMPOINT STEERING MANEUVERS
001643:                                                                                                  #                IDLEFAIL -      A FLAG TO INHIBIT (IDLE) THE THRUST-FAIL ROUTINE
001644:                                                                                                  #                STEERSW -       A SWITCH TO PRECLUDE NEEDLESS CONDUCT OF STEERING
001645:                                                                                                  #                REFSMMAT, DAPDATR1, PIPTIME
001646:                                                                                                  #                EREPFRAC, ETDECAY, KPRIMEDT FOR TVC
001647:                                                                                                  #  OUTPUT        TTOGO   -       TIME REMAINING FOR ENGINE BURN IN CS AT +28
001648:                                                                                                  #                OMEGAC  -       DP VECTOR RATE COMMAND, SC.AT 1/(2TVCDT) REVS/SEC
001649:                                                                                                  #                VG, VGPREV, VGDISP, TGO, TIG, SCALED AS NOTED IN CODING
001650:                                                                                                  #                STEERSW, IMPULSW, NVWORD1
001651:                                                                                                  #                REPFRAC, CNTR, VCNTR, VCNTRTMP FOR TVC (R40 INTERFACING)
001652:                                                                                                  #  DEBRIS        OMEGAXC, +1
001653:                                                                                                  #  SUBROUTINES USED      -       *SMNB*, ALARM
001654:
001655: 16,2000                                           SETLOC   P40S1
001656: 16,2000                                           BANK
001657: 16,2150  E6,1466                                  EBANK=   DAPDATR1
001658: 16,2150                                           COUNT    16/S40.8
001659:
001660: 16,2150           44001        S40.8              SETPD    STQ
001661: 16,2151           00001        SPBIT1                      00D
001662: 16,2152           03657                                    QTEMP
001663: 16,2153           51375                           VLOAD    BVSU                                  #  CONSTRUCT DELVG, SC.AT B+7 M/CS
001664: 16,2154           03433                                    DELVREF
001665: 16,2155           03705                                    BDT
001666: 16,2156           77655                           VAD
001667: 16,2157           03721                                    VGPREV
001668: 16,2160           03460                           STORE    VG                                    #  VELOCITY-TO-BE-GAINED, SC.AT B+7 M/CS
001669:
001670: 16,2161           77646                           ABVAL
001671: 16,2162           03773                           STORE    VGDISP                                #  FOR DISPLAY PURPOSES
001672: 16,2163           77776                           EXIT
001673: 16,2164           05412                           TC       PHASCHNG
001674: 16,2165           10035                           OCT      10035                                 #  TYPE B RESTART BELOW AND 5.3 REREADAC
001675:
001676: 16,2166           06006                           TC       INTPRET
001677: 16,2167           77775                           VLOAD


001679: 16,2170           03460                                    VG
001680: 16,2171           03721                           STORE    VGPREV
001681: 16,2172           77214                           BOFF     VLOAD
001682: 16,2173           01344                                    STEERSW                               #  SKIP TGO AND CROSS-PRODUCT
001683: 16,2174           03657                                    QTEMP
001684: 16,2175           03433                                    DELVREF
001685: 16,2176           41446                           ABVAL    PUSH                                  #  CHECK FOR LOTHRUST
001686: 16,2177           41335                           SLOAD    DMP
001687: 16,2200           01354                                    DVTHRESH                              #  SC.AT B-2 M/CS
001688: 16,2201           36011                                    DPB-9
001689: 16,2202           77621                           BDSU
001690: 16,2203           77440                           BMN      EXIT
001691: 16,2204           40222                                    LOTHRUST
001692: 16,2205           31466                           CAE      DAPDATR1                              #  ENABLE TVCDAP CG TRACKING
001693: 16,2206           75002                           MASK     BIT14
001694: 16,2207           10000                           CCS      A
001695: 16,2210           35017                           CAF      BIT1
001696: 16,2211           50000                           INDEX    A                                     #  LM-OFF, LM-ON VALUE
001697: 16,2212           31421                           CAE      EREPFRAC
001698: 16,2213           55642                           TS       REPFRAC
001699:
001700: 16,2214           06006                           TC       INTPRET
001701: 16,2215           51375        TGOCALC            VLOAD    BVSU                                  #  GET DELVG
001702: 16,2216           03433                                    DELVREF
001703: 16,2217           03705                                    BDT
001704: 16,2220           77656                           UNIT
001705: 16,2221           41441                           DOT      PUSH                                  #  (00D)
001706: 16,2222           03460                                    VG
001707: 16,2223           56244                           BPL      DDV                                   #  ANGLE SHOULD BE GREATER THAN PI/2
001708: 16,2224           40214                                    INCRSVG                               #        DISPLAY ALARM IF NOT
001709: 16,2225           36005                                    2VEXHUST
001710: 16,2226           41215                           DAD      DMP                                   #  (DOT PRODUCT UP FROM 00D)
001711: 16,2227           11561                                    LODPHALF
001712: 16,2230           70501                           NORM     SR1
001713: 16,2231           00047                                    X1
001714: 16,2232           60325                           PDDL     NORM
001715: 16,2233           00045                                    36D                                   #  (MAG DELVG)
001716: 16,2234           00050                                    X2
001717: 16,2235           77665                           BDDV
001718: 16,2236           53664                           XSU,2    SL*
001719: 16,2237           00046                                    X1
001720: 16,2240           57607                                    0          -9D,2
001721: 16,2241           41405                           DMP      PUSH                                  #  (00D)
001722: 16,2242           36003                                    -FOURDT
001723: 16,2243           54335                           SLOAD    SR
001724: 16,2244           03013                                    ETDECAY                               #  ETDECAY SC.AT B+14 CS
001725: 16,2245           20617                                    14D
001726: 16,2246           45421                           BDSU     STADR
001727: 16,2247           74347                           STORE    TGO                                   #  TIME TO GO IN CS. AT +28
001728: 16,2250           77615                           DAD


001730: 16,2251           01205                                    PIPTIME
001731: 16,2252           17413                           STODL    TIG
001732: 16,2253           03430                                    TGO
001733: 16,2254           50025                           DSU      BMN
001734: 16,2255           36007                                    FOURSEC
001735: 16,2256           40201                                    S40.81
001736:
001737: 16,2257           74375        XPRODUCT           VLOAD    VXSC
001738: 16,2260           03705                                    BDT
001739: 16,2261           03703                                    CSTEER
001740: 16,2262           52352                           VSL2     VSU
001741: 16,2263           03433                                    DELVREF
001742: 16,2264           63256                           UNIT     PDVL
001743: 16,2265           03460                                    VG
001744: 16,2266           47256                           UNIT     VXV
001745: 16,2267           45121                           MXV      CALL
001746: 16,2270           01736                                    REFSMMAT                              #  (REFSMMAT/2)
001747: 16,2271           47644                                    *SMNB*
001748: 16,2272           77761                           VXSC
001749: 16,2273           03235                                    KPRIMEDT                              #  (KPRIMEDT SCIAT PI/8 RAD)
001750: 16,2274           03126        OMEGACLC           STORE    OMEGAC
001751: 16,2275           77650                           GOTO
001752: 16,2276           03657                                    QTEMP
001753:
001754: 17,2000                                           SETLOC   DAPS7
001755: 17,2000                                           BANK
001756: 17,2000                                           COUNT    17/S40.8
001757:
001758: 17,2000           00000 00310  TWODT              2DEC     200.0      B-28                       #  2 SEC
001759:
001760: 17,2002           77715 77777  -FOURDT            2DEC     -800       B-18                       #  -4(200CS), SC.AT B+18CS (-4 FOR SCALING)
001761:
001762: 17,2004           17602 25124  2VEXHUST           2DEC     63.020792  B-7                        #  2(10338.0564 FPS), SC.AT B+7 M/CS
001763:
001764: 17,2006           00000 00620  FOURSEC            2DEC     400.0      B-28                       #  4 SEC
001765:
001766: 17,2010           00040 00000  DPB-9              2DEC     1          B-9
001767:
001768: 20,2000                                           SETLOC   DAPS6
001769: 20,2000                                           BANK
001770:
001771: 20,2201                                           COUNT    20/S40.8
001772:
001773: 20,2201           77214        S40.81             SET      VLOAD                                 #  TGO LESS THAN 4 SECONDS
001774: 20,2202           01066                                    IMPULSW                               #  FOR ENGINE-OFF CALL
001775: 20,2203           15335                                    HI6ZEROS
001776: 20,2204           03126        RATEZRO            STORE    OMEGAC                                #  TVC TO ATTITUDE HOLD
001777: 20,2205           77776                           EXIT
001778: 20,2206           34777                           CAF      POSMAX                                #  INHIBIT SWITCHOVER/TVC EG TRACKING
001779: 20,2207           55447                           TS       CNTR


001781: 20,2210           06006                           TC       INTPRET
001782: 20,2211           52014                           CLEAR    GOTO
001783: 20,2212           01264                                    STEERSW                               #  RESTARTS OK
001784: 20,2213           03657                                    QTEMP
001785: 20,2214           77776        INCRSVG            EXIT                                           #  ALARM INDICATING THAT THRUST IS POINTING
001786: 20,2215           05650                           TC       ALARM                                 #  IN WRONG DIRECTION.
001787: 20,2216           01407                           OCT      01407
001788: 20,2217           06006                           TC       INTPRET
001789: 20,2220           77650                           GOTO
001790: 20,2221           03657                                    QTEMP
001791:
001792: 20,2222           77214        LOTHRUST           BON      VLOAD                                 #  THRUST FAILURE (LO-OR-NO) INDICATED
001793: 20,2223           00711                                    IDLEFAIL                              #  SET BY V97P.  ALLOWS 1 BYPASS IN CASE OF
001794: 20,2224           03657                                    QTEMP                                 #        UNFAVORABLE S40.8 SYNCH
001795: 20,2225           15335                                    HI6ZEROS                              #  START OF ENGINE-FAIL (R40) OPERATIONS
001796: 20,2226           03126                           STORE    OMEGAC                                #  PUT TVC IN ATTITUDE HOLD
001797: 20,2227           77776                           EXIT
001798:
001799: 20,2230           45021                           CS       ZERO
001800: 20,2231           55643                           TS       VCNTR                                 #  KILL CSMMASS UPDATING
001801: 20,2232           55653                           TS       VCNTRTMP                              #  (TVCEXEC LOGIC REQUIRES THIS TOO)
001802: 20,2233           55642                           TS       REPFRAC                               #  KILL TVCDAP CG TRIM TRACKING
001803: 20,2234           55145                           TS       NVWORD1                               #  SET UP ENGINE-FAIL V97FLASH (CLOCKJOB)
001804:
001805: 20,2235           06006                           TC       INTPRET
001806: 20,2236           52014                           CLEAR    GOTO                                  #  INHIBIT STEERING AND TGO CALC (MANUAL
001807: 20,2237           01264                                    STEERSW                               #        SHUTDOWN IF NOT SET UP AGAIN)
001808: 20,2240           03657                                    QTEMP                                 #  RESTARTS OK
001809:


001811:                                                                                                  #  NAME          S40.9 - VTOGAIN (AIMPOINT MANEUVERS ONLY)
001812:                                                                                                  #  FUNCTION      (1) GENERATES REQUIRED VELOCITY AND VELOCITY-TO-BE-GAINED
001813:                                                                                                  #                VECTORS FOR USE DURING AIMPOINT MANEUVERS
001814:                                                                                                  #                (2) UPDATES THE B VECTOR WHICH IS USED IN THE FINAL
001815:                                                                                                  #                CALCULATION OF EXTRAPOLATING THE VELOCITY-TO-BE-GAINED
001816:                                                                                                  #  CALLING SEQ   VIA FINDVAC AS NEW JOB.
001817:                                                                                                  #  INPUT         RNIT    -       ACTIVE VEHICLE RADIUS VECTOR IN METERS AT +29.
001818:                                                                                                  #                VNIT    -       ACTIVE VEHICLE VELOCITY VECTOR IN METERS/CS AT +7
001819:                                                                                                  #                VRPREV  -       LAST COMPUTED VELOCITY REQUIRED VECTOR IN
001820:                                                                                                  #                                METERS/CS AT +7.
001821:                                                                                                  #                NOMTIG  -       TIME OF IGN.  USED IN TARGETTING ROUTINES %+28"
001822:                                                                                                  #                DELLT4  -       TRANSFER TIME FROM PIPTIME TO TARGET %+28"
001823:                                                                                                  #                TNIT    -       TIME OF RNIT AND VNIT IN CS AT +28
001824:                                                                                                  #                GDT/2   -       HALF OF VELOCITY GAINED IN DELTA T TIME DUE TO
001825:                                                                                                  #                                ACCERERATION OF GRAVITY IN METERS/CS AT +7.
001826:                                                                                                  #                DELVREF -       CHANGE IN VELOCITY DURING LAST 2 SEC IN
001827:                                                                                                  #                                METERS/CS AT +7.
001828:                                                                                                  #                NORMSW          SET=CENTRAL ANGLE BETWEEN RTARG AND RTIG IS BETWEEN
001829:                                                                                                  #                                165 TO 195 DEGREES
001830:                                                                                                  #                                RESET=CENTRAL ANGLE OUTSIDE CONE DESCRIBED ABOVE
001831:                                                                                                  #  OUTPUT        VGTEMP  -       VELOCITY TO BE GAINED VECTOR IN METERS/CS AT +7.
001832:                                                                                                  #                COGA    -       INPUT OF INITIAL GUESS FOR LAMBERT FROM S40.1 O
001833:                                                                                                  #                                OR PREVIOUS PASS THRU S40.9
001834:                                                                                                  #                GOBL/2  -       OBLATENESS TERM IN AVG GRAV CALC-GOBL*RSQ/MU
001835:                                                                                                  #                VRPREV  -       VELOCITY REQUIRED VECTOR IN METERS/CS AT +7.
001836:                                                                                                  #                BDT     -       B VECTOR IN METERS/CS AT +7.
001837:                                                                                                  #  SUBROUTINES USED -    INITVEL
001838:
001839: 16,2000                                           SETLOC   P40S1
001840: 16,2000                                           BANK
001841:
001842: 16,2277  E6,1742                                  EBANK=   NBRCYCLS
001843: 16,2277                                           COUNT    16/S40.9
001844:
001845: 16,2277           06006        S40.9              TC       INTPRET
001846: 16,2300           71201                           SETPD    DLOAD
001847: 16,2301           00001                                    00D
001848: 16,2302           11563                                    LO6ZEROS
001849: 16,2303           77725                           PDDL
001850: 16,2304           34421                                    EP4(45)L
001851: 16,2305           71214                           BON      DLOAD
001852: 16,2306           03705                                    NORMSW
001853: 16,2307           34311                                    +2
001854: 16,2310           34423                                    EP4(10)L
001855: 16,2311           77606                           PUSH
001856: 16,2312           45014                           CLEAR    CALL
001857: 16,2313           00675                                    GUESSW
001858: 16,2314           22002                                    HAVEGUES
001859: 16,2315           77776                           EXIT
001860: 16,2316           05412                           TC       PHASCHNG                              #  SAVE TIME BY NOT REDOING LAMBERT CALCS
001861: 16,2317           05021                           OCT      05021                                 #  C, PRIORITY NEXT, JOB BELOW


001863: 16,2320           10000                           OCT      10000
001864: 16,2321           06006                           TC       INTPRET
001865: 16,2322           77614        ENDLAMB            BON
001866: 16,2323           01310                                    FIRSTFLG
001867: 16,2324           34342                                    FIRSTTME
001868: 16,2325           52375                           VLOAD    VSU
001869: 16,2326           03612                                    VIPRIME
001870: 16,2327           03466                                    VRPREV
001871: 16,2330           45325                           PDDL     DSU
001872: 16,2331           03474                                    TNIT
001873: 16,2332           03476                                    TNITPREV
001874: 16,2333           55261                           SL       BDDV
001875: 16,2334           20222                                    17D
001876: 16,2335           34415                                    200CSHI
001877: 16,2336           77761                           VXSC
001878: 16,2337           76451                           VSU      VSL1
001879: 16,2340           01207                                    GDT/2
001880: 16,2341           03705                           STORE    BDT
001881: 16,2342           57535        FIRSTTME           SLOAD    DCOMP
001882: 16,2343           03747                                    RTX2
001883: 16,2344           77640                           BMN
001884: 16,2345           34362                                    MOONCASE
001885: 16,2346           53575                           VLOAD    UNIT
001886: 16,2347           01171                                    RN
001887: 16,2350           45345                           DLOAD    DSU
001888: 16,2351           01205                                    PIPTIME
001889: 16,2352           03450                                    NOMTIG
001890: 16,2353           56205                           DMP      DDV
001891: 16,2354           34417                                    EARTHMU
001892: 16,2355           00043                                    34D
001893: 16,2356           53361                           VXSC     VAD
001894: 16,2357           01215                                    GOBL/2
001895: 16,2360           03646                                    VGTEMP                                #  NOTE  NO TEST IS MADE TO SUBTRACT GOBL
001896: 16,2361           03646                           STORE    VGTEMP                                #  INSIDE 165-195 DEGREE CONE AREA.
001897: 16,2362           77776        MOONCASE           EXIT
001898: 16,2363           05412                           TC       PHASCHNG
001899: 16,2364           04021                           OCT      04021                                 #  C, JOB BELOW
001900:
001901: 16,2365           06006        COPY40.9           TC       INTPRET
001902: 16,2366           77745                           DLOAD
001903: 16,2367           03474                                    TNIT
001904: 16,2370           27476                           STOVL    TNITPREV
001905: 16,2371           03612                                    VIPRIME
001906: 16,2372           03466                           STORE    VRPREV
001907: 16,2373           77414                           CLEAR    EXIT
001908: 16,2374           01270                                    FIRSTFLG
001909: 16,2375           45017                 -2        CS       ONE                                   #  REDO40.9 (RESTART) ENTRY TO END S40.9
001910: 16,2376           55742                           TS       NBRCYCLS
001911: 16,2377           05412        ENDS40.9           TC       PHASCHNG
001912: 16,2400           00001                           OCT      00001


001914: 16,2401           15217                           TCF      ENDOFJOB
001915:
001916: 16,2402           06006        REDO40.9           TC       INTPRET                               #  S40.9 RESTARTS COME HERE TO GRACEFULLY
001917: 16,2403           77775                           VLOAD                                          #        TERMINATE S40.9 SO THAT IT CAN BE
001918: 16,2404           11563                                    LO6ZEROS                              #        SET UP WITH LATEST R,V,T NEXT PASS
001919: 16,2405           17345                           STODL    DELVSUM                               #        (TYPE C PHASE POINTS '04021' WILL
001920: 16,2406           11563                                    LO6ZEROS                              #        FORCE NORMAL S40.9 TERMINATIONS,
001921: 16,2407           27343                           STOVL    NBRCYCLS                              #        RATHER THAN LOSE TIME OF BRAND NEW
001922: 16,2410           03721                                    VGPREV                                #        PASS -- QUICK OLD DATA BETTER THAN
001923: 16,2411           03646                           STORE    VGTEMP                                #        NONE) NOW CAN GO THRU SETUP.9
001924: 16,2412           77776                           EXIT                                           #        WITHOUT DISTURBING VGPREV
001925: 16,2413           12375                           TCF      ENDS40.9   -2                         #  STORE 0,0 COVERED NBRCYCLS,P -- FIX UP S
001926:
001927: 16,2414           01440 00000  200CSHI            2DEC     200        B-12
001928:
001929: 16,2416           55340 61710  EARTHMU            2DEC*    -3.986032  E10        B-36*
001930:
001931: 16,2420           04000 00000  EP4(45)L           2DEC     .125
001932:
001933: 16,2422           00707 03434  EP4(10)L           2DEC     .027777777
001934:


001936:                                                                                                  #  NAME                  S40.13 - TIMEBURN
001937:
001938:                                                                                                  #  FUNCTION              (1) DETERMINE WHETHER A GIVEN COMBINATION OF VELOCITY-TO-
001939:                                                                                                  #                        BE-GAINED AND ENGINE CHOICE RESULT IN A BURN TIME SUFFICIENT
001940:                                                                                                  #                        TO ALLOW STEERING AT THE VEHICLE DURING THE BURN, AND
001941:                                                                                                  #                        (2) THE MAGNITUDE OF RESULTING BURN TIME - IF IT IS SHORT -
001942:                                                                                                  #                        AND THE ASSOCIATED TIME OF THE ENGINE-OFF SIGNAL.
001943:
001944:                                                                                                  #  CALLING SEQ           VIA FINDVAC AS NEW JOB.
001945:
001946:                                                                                                  #  INPUT                 VGTIG - VELOCITY TO BE GAINED VECTOR (METERS/C.S.) AT +7
001947:                                                                                                  #                        WEIGHT/G - MASS OF VEHICLE IN KGM AT TIG
001948:                                                                                                  #                        F - ENGINE THRUST IN M.NEWTONS AT +7
001949:                                                                                                  #                        MDOT -  RATE OF DECREASE OF VEHICLE MASS DURING ENGINE BURN
001950:                                                                                                  #                                IN KILOGRAMS/CENTISECOND AT +3.  THIS SCALING MAY
001951:                                                                                                  #                                REQUIRE MODIFICATION FOR SATURN BURNS.
001952:
001953:                                                                                                  #  OUTPUT                IMPULSW -       ZERO FOR STEERING
001954:                                                                                                  #                                -       ONE FOR ATTITUDE HOLD
001955:                                                                                                  #                        TGO     -       TIME TO BURN IN CENTISECONDS AT +14
001956:                                                                                                  #                        THE QUANTITY M.NEWTON SHALL BE USED TO EXPRESS WEIGHT IN TERMS OF
001957:                                                                                                  #                        (KILOGRAM*METER)/(CENTISECOND*CENTISECOND)
001958:                                                                                                  #                        (1) M.NEWTON = (10000) NEWTONS
001959:
001960: 16,2424  E7,1427                                  EBANK=   TGO
001961: 16,2424                                           COUNT    16/40.13
001962:
001963: 16,2424           06006        S40.13             TC       INTPRET
001964: 16,2425           43001                           SETPD    SET
001965: 16,2426           00001                                    00D
001966: 16,2427           01066                                    IMPULSW                               #  ASSUME NO STEERING UNTIL FOUND OTHERWISE
001967: 16,2430           51575                           VLOAD    ABVAL
001968: 16,2431           03721                                    VGTIG                                 #  VELOCITY TO BE GAINED AT +7
001969: 16,2432           77776                           EXIT
001970: 16,2433           35011                           CAF      BIT7                                  #  TEST +X TRANSLATION
001971: 16,2434           00006                           EXTEND
001972: 16,2435           06031                           RXOR     CHAN31
001973: 16,2436           75011                           MASK     BIT7
001974: 16,2437           00006                           EXTEND
001975: 16,2440           12522                           BZF      NOTADDUL
001976: 16,2441           06006                           TC       INTPRET
001977: 16,2442           56325                           PDDL     DDV                                   #  00D = MAG OF VGTIG AT +7
001978: 16,2443           36025                                    S40.135                               #  COMPENSATION FOR 2 JET ULLAGE AT +24
001979: 16,2444           03076                                    WEIGHT/G                              #  MASS IN KGMS AT +16
001980: 16,2445           72414                           BON      SL1                                   #  DOUBLE CORRECTION IF FOUR JETS
001981: 16,2446           00700                                    NJETSFLG
001982: 16,2447           34450                                    S40.130
001983: 16,2450           77621        S40.130            BDSU
001984: 16,2451           56325                           PDDL     DDV                                   #  00D = MAG OF VGTIG CORRECTED FOR ULLAGE
001985: 16,2452           01770                                    K1VAL                                 #  M.NETWON-CS AT +24
001986: 16,2453           03076                                    WEIGHT/G
001987: 16,2454           50021                           BDSU     BMN
001988: 16,2455           00001                                    00D
001989: 16,2456           34501                                    S40.131                               #  TGO LESS THAN 100 CS
001990: 16,2457           41325                           PDDL     DMP                                   #  02D = TEMP1 AT +7


001992: 16,2460           00111                                    EMDOT                                 #  SPS FLOW RATE SC.AT B+3 KG/CS (SP, NOTE)
001993: 16,2461           36021                                    3.5SEC                                #  350 CS AT +14
001994: 16,2462           65221                           BDSU     PDDL
001995: 16,2463           03076                                    WEIGHT/G
001996: 16,2464           01772                                    FANG
001997: 16,2465           60405                           DMP      SR2
001998: 16,2466           36023                                    5SECOND                               #  500 CS AT +14
001999: 16,2467           41471                           DDV      PUSH                                  #  04D = TEMP2
002000: 16,2470           51021                           BDSU     BPL
002001: 16,2471           00003                                    02D
002002: 16,2472           34515                                    S40.133                               #  TGO GREATER THAN 600 CS
002003: 16,2473           55345                           DLOAD    BDDV
002004: 16,2474           43205                           DMP      DAD
002005: 16,2475           36023                                    5SECOND                               #  500 CS AT +14
002006: 16,2476           36017                                    1SEC2D                                #  100 CS AT +14
002007: 16,2477           77650                           GOTO
002008: 16,2500           34506                                    S40.132
002009: 16,2501           41345        S40.131            DLOAD    DMP                                   #  TGO LESS THAN 100 CS
002010: 16,2502           03076                                    WEIGHT/G
002011: 16,2503           56215                           DAD      DDV
002012: 16,2504           36013                                    K2VAL                                 #  M.NEWTON-CS AT +24
002013: 16,2505           36015                                    K3VAL                                 #  M.NEWTONS AT +10
002014: 16,2506           77776        S40.132            EXIT
002015: 16,2507  E7,1427                                  EBANK=   TGO
002016: 16,2507           07226                           TC       TPAGREE
002017: 16,2510           30154                           CA       MPAC
002018: 16,2511           56001                           XCH      L
002019: 16,2512           35021                           CA       ZERO
002020: 16,2513           53430                           DXCH     TGO                                   #  TGO IN CS AT +28
002021: 16,2514           02517                           TC       S40.134
002022: 16,2515           77414        S40.133            CLEAR    EXIT                                  #  WILL STEER VEHICLE
002023: 16,2516           01266                                    IMPULSW
002024: 16,2517           05412        S40.134            TC       PHASCHNG                              #  KILL GROUP 3
002025: 16,2520           00003                           OCT      3
002026:
002027: 16,2521           15217                           TCF      ENDOFJOB
002028:
002029: 16,2522           06006        NOTADDUL           TC       INTPRET
002030: 16,2523           77650                           GOTO
002031: 16,2524           34451                                    S40.130    +1                         #  DO NOT COMPENSATE FOR 7 SEC OF ULLAGE
002032: 17,2000                                           SETLOC   DAPS7
002033: 17,2000                                           BANK
002034:
002035: 17,2012                                           COUNT    17/40.13
002036:
002037: 17,2012  E3,1767               K1VAL              =        EK1VAL                                #  DP PAD LOAD B+23 NEWTON-SEC/E+2


002061: 17,2012           00000 15715  K2VAL              2DEC     222.411081 B-23                       #   5000 LB-SEC, SC.AT B+23 NEWTON-SEC/E+2
002062: 17,2014           00552 37144  K3VAL              2DEC     11.3429651 B-9                        #  25500 LBS, SC.AT B+9 NEWTONS/E+4
002063: 17,2016           00144 00000  1SEC2D             2DEC     100.0      B-14                       #  100.0 CS AT +14


002065: 17,2020           01274 00000  3.5SEC             2DEC     350.0      B-13                       #  350.0 CS AT +13
002066:
002067: 17,2022           00764 00000  5SECOND            2DEC     500.0      B-14                       #  500 CS AT +14
002068:
002069: 17,2024           00000 04263  S40.135            2DEC     69.6005183 B-23                       #  IMPULSE FROM 7.96 SECS OF 2-JET FIRING
002070:                                                                                                  #        7.96 (199.6)COS(10) LB-SEC, SC.AT
002071:                                                                                                  #        B+23 NEWTON-SEC/E+2 (7 SEC ULLAGE
002072:                                                                                                  #        TO GO, PLUS 0.96 SEC FROM PIPTIME)
002073:


002075:                                                                                                  #  NAME          S40.6 GIMBAL DRIVE TEST AND/OR GIMBAL TRIM
002076:                                                                                                  #  MOD NO 5                              DATE 9 MARCH, 1967
002077:                                                                                                  #  MOD BY ENGEL                          LOG SECTION P40-P47
002078:
002079:                                                                                                  #  FUNCTIONAL DESCRIPTION
002080:                                                                                                  #        GIMBAL DRIVE TEST....0,+2,-2,0 DEGREE ENGINE COMMANDS, AT 2 SECOND
002081:                                                                                                  #                INTERVALS, FIRST IN PITCH, THEN IN YAW.  ASTRONAUT VERIFICATION
002082:                                                                                                  #                OF GIMBAL MOTION ON GPI
002083:                                                                                                  #        GIMBAL TRIM....AFTER A 4 SECOND DELAY, ENGINE COMMANDED TO
002084:                                                                                                  #                PRE-COMPUTED TRIM POSITION.  ASTRONAUT VERIFICATION ON GPI.
002085:                                                                                                  #        PRE40.6....RESTART ENTRY TO RE-DO S40.6, ONLY IF RCS IS ON - IF TVC
002086:                                                                                                  #                IS NOT ON - PRIMARILY TO GET ACTUATORS TRIMMED FOR IGNITION.
002087:                                                                                                  #                BYPASS 4 SEC DELAY.  SPEED IS CRITICAL NEAR IGNITION.
002088:                                                                                                  #                IF TVC IS ON (TVCDAPON OR LATER) THEN REDOTVC WILL TAKE CARE
002089:                                                                                                  #                OF RESTARTING ACTUATORS.
002090:
002091:                                                                                                  #  CALLING SEQUENCE....
002092:                                                                                                  #        WAITLIST, WITH 2CADR FOR S40.6 (OR PRE40.6), WITH EBANK= CNTR
002093:
002094:                                                                                                  #  NORMAL EXIT MODE - FIXDELAY, TASKOVER
002095:
002096:                                                                                                  #  SUBROUTINES CALLED....
002097:                                                                                                  #        OUTPUT (INTERNAL)
002098:                                                                                                  #        FIXDELAY
002099:
002100:                                                                                                  #  ALARM OR ABORT EXIT MODES - NONE
002101:
002102:                                                                                                  #  ERASEABLE INITIALIZATION REQUIRED
002103:                                                                                                  #        CNTR = +0, NORMALLY SET BY THE P40 CALL AT TST,TRIM
002104:                                                                                                  #        MRKRTMP...POSITIVE FOR GIMBAL DRIVE TEST AND GIMBAL TRIM (BOTH)
002105:                                                                                                  #                   NEGATIVE FOR GIMBAL TRIM ONLY
002106:                                                                                                  #        PACTOFF, YACTOFF SC.AT 85.41 ARCSEC/BIT (V48N48 P, YTRIM)
002107:                                                                                                  #        ..SC CONT.. SWITCH AT ..CMC.. (A/P CONTROL SWITCH AT ..GNC..)
002108:                                                                                                  #        ACTIVE SPS GIMBAL MOTOR POWER(S), PITCH, YAW
002109:
002110:                                                                                                  #  OUTPUT
002111:                                                                                                  #        TVCYAW, TVCPITCH (BITS RELEASED)
002112:                                                                                                  #        TVC ENABLE AND OPTICS ERROR COUNTER ENABLE
002113:
002114:                                                                                                  #  DEBRIS
002115:                                                                                                  #        TEMPR60, CNTR
002116:
002117: 17,2026                                           BANK     17
002118: 20,2000                                           SETLOC   DAPS6
002119: 20,2000                                           BANK
002120:
002121: 20,2241  E6,1447                                  EBANK=   CNTR
002122: 20,2241                                           COUNT    20/S40.6
002123:
002124: 20,2241           40102        PRE40.6            CS       FLAGWRD6                              #  RESTART ENTRY TO S40.6 (DO NOT PERMIT
002125: 20,2242           74105                           MASK     OCT60000                              #        IF TVC, BITS 15,|4 = 1,0)
002126: 20,2243           00006                           EXTEND
002127: 20,2244           62246                           BZMF     +2
002128: 20,2245           15324                           TCF      TASKOVER                              #  TVC, REDOTVC WILL REESTABLISH INTERFACE
002129:
002130: 20,2246           45017                           CS       BIT1                                  #  RCS, SO DO S40.6, GIMTRIM ONLY


002132: 20,2247           55445                           TS       MRKRTMP
002133:
002134: 20,2250           35017                           CAF      BIT1                                  #  FOR REVISED S40.6 TIMING FOR RESTARTS...
002135: 20,2251           55447                           TS       CNTR                                  #  TO INDICATE A RESTART ENTRY (CNTR IS
002136:                                                                                                  #        NORMALLY +0, BY S40.6)
002137:
002138: 20,2252  E6,1447                                  EBANK=   CNTR
002139: 20,2252           45021        S40.6              CS       ZERO                                  #  INHIBIT OPTICS ACTIVITY
002140: 20,2253           55303                           TS       OPTIND
002141:
002142: 20,2254           45016                           CS       BIT2                                  #  DISENABLE OPTICS ERROR COUNTERS (ZERO,
002143: 20,2255           00006                           EXTEND                                         #        AND INHIBIT PULSE TRANSMISSION -
002144: 20,2256           03012                           WAND     CHAN12                                #        NORMAL STATE)
002145:
002146: 20,2257           32344                           CAF      OCT02200                              #  TVC ENABLE (SPS SERVO AMPS SEE DAC
002147: 20,2260           00006                           EXTEND                                         #        VOLTAGES) AND DISENGAGE OPTICS/DAC
002148: 20,2261           05012                           WOR      CHAN12
002149:
002150: 20,2262           05267                           TC       FIXDELAY                              #  60MS PROCEDURAL DELAY (40MS MINIMUM) FOR
002151: 20,2263           00006                           DEC      6          B-14                       #        RELAY LATCHING
002152:
002153: 20,2264           35016                           CAF      BIT2                                  #  ENABLE OPTICS ERROR COUNTERS
002154: 20,2265           00006                           EXTEND
002155: 20,2266           05012                           WOR      CHAN12
002156:
002157: 20,2267           05267                           TC       FIXDELAY                              #  20MS PROCEDURAL DELAY (4MS MINIMUM) FOR
002158: 20,2270           00002                           DEC      2          B-14                       #        RELAY LATCHING
002159:
002160: 20,2271           11447        RSTRTST            CCS      CNTR                                  #  CHECK FOR RESTART ENTRY (PRE40.6)
002161: 20,2272           12332                           TCF      GIMTRIM    +2                         #  RESTART ENTRY....BYPASS 4 SECOND DELAY
002162:                                                                                                  #        TST,TRIM SETS +0 ON NORMAL ENTRY
002163:
002164: 20,2273           31445                           CAE      MRKRTMP                               #  CHECK FOR TEST/TRIM OR TRIM ONLY
002165: 20,2274           55447                           TS       CNTR                                  #        MRKRTMP SAVES CNTR FOR RESTARTS
002166: 20,2275           00006                           EXTEND
002167: 20,2276           62330                           BZMF     GIMTRIM                               #  (TRIM ONLY)
002168:
002169: 20,2277           45021        GDTSETUP           CS       ZERO                                  #  GIMBAL DRIVE TEST SETUP, FOR PITCH
002170: 20,2300           55447                           TS       CNTR
002171:
002172: 20,2301           32346        GIMDTEST           CAF      +2ACTDEG                              #  GIMBAL DRIVE TEST, 1ST INCREMENT
002173: 20,2302           02315                           TC       OUTPUT                                #        (LEAVES GIMBAL AT +2 DEG)
002174: 20,2303           32345                           CAF      -4ACTDEG                              #  2ND INCREMENT (LEAVES GIMBAL AT -2)
002175: 20,2304           02315                           TC       OUTPUT
002176: 20,2305           32346                           CAF      +2ACTDEG                              #  3RD INCREMENT (LEAVES GIMBAL AT -0)
002177: 20,2306           02315                           TC       OUTPUT
002178:
002179: 20,2307           41447                           CS       CNTR                                  #  CHECK FOR COMPLETION OF YAW TEST


002181: 20,2310           10000                           CCS      A
002182: 20,2311           12330                           TCF      GIMTRIM                               #  COMPLETED, GO TO GIMBAL TRIM ROUTINE
002183: 20,2312           45017                           CS       BIT1                                  #  SET UP YAW TEST
002184: 20,2313           55447                           TS       CNTR
002185: 20,2314           12301                           TCF      GIMDTEST                              #  FOR YAW TEST
002186:
002187: 20,2315           00006        OUTPUT             EXTEND                                         #  OUTPUT THE INCREMENT....SAVE Q
002188: 20,2316           23146                           QXCH     TEMPR60
002189:
002190: 20,2317           51447                           INDEX    CNTR
002191: 20,2320           54054                           TS       TVCPITCH
002192:
002193: 20,2321           51447                           INDEX    CNTR
002194: 20,2322           35005                           CAF      BIT11
002195: 20,2323           00006                           EXTEND
002196: 20,2324           05014                           WOR      CHAN14
002197:
002198: 20,2325           05267                           TC       FIXDELAY                              #  WAIT 2SEC, WHILE ASTRONAUT VERIFIES
002199: 20,2326           00310                           DEC      200        B-14                       #        GIMBAL MOTION ON GPI
002200: 20,2327           01146                           TC       TEMPR60
002201:
002202: 20,2330           05267        GIMTRIM            TC       FIXDELAY                              #  WAIT 4 SECONDS BEFORE GIMBAL TRIM
002203: 20,2331           00620                           DEC      400        B-14
002204:
002205: 20,2332           45021                 +2        CS       ZERO                                  #  PICK UP TRIM VALUES AND OUTPUT THEM
002206: 20,2333           61423                           AD       PACTOFF                               #        (AVOID +0) ENTRY POINT FROM RSTRTST
002207: 20,2334           54054                           TS       TVCPITCH                              #        ON A RESTART, TO AVOID 4SEC DELAY
002208: 20,2335           45021                           CS       ZERO
002209: 20,2336           61424                           AD       YACTOFF
002210: 20,2337           54053                           TS       TVCYAW
002211:
002212: 20,2340           35062                           CAF      PRIO6                                 #  RELEASE THE COUNTERS, BITS 11,12
002213: 20,2341           00006                           EXTEND
002214: 20,2342           05014                           WOR      CHAN14
002215:
002216: 20,2343           15324        ENDS40.6           TCF      TASKOVER
002217:
002218: 20,2344           02200        OCT02200           OCT      02200                                 #  BITS 8,11 FOR CHANNEL 12 TVC/OPTICS
002219: 20,2345           77527        -4ACTDEG           DEC      -168       B-14                       #  -2(+2ACTDEG), WHOLE BITS, NO ROUNDUP
002220: 20,2346           00124        +2ACTDEG           DEC      +84        B-14                       #  +2 DEG, SC.AT 85.41 ARCSEC/BIT (+84D)
002221:
002222:                                                                                                  #  CALLED BY ..DONOUN46.. (VERB 48), OR DIRECTLY BY ..FRESHDAP.. (RCS DAP) VIA IBNKCALL
002223:
002224: 20,2347                                           COUNT    20/S41.2
002225:
002226: 20,2347           31466        S41.2              CA       DAPDATR1


002228: 20,2350           76214                           MASK     THREE
002229: 20,2351           60000                           AD       A
002230: 20,2352           55130                           TS       RATEINDX
002231:
002232: 20,2353           00004                           INHINT
002233: 20,2354           31466                           CAE      DAPDATR1                              #  IS LEM ATTACHED (BITS 14,13 OF DAPDATR1
002234: 20,2355           74371                           MASK     PRIO30                                #        =10)
002235: 20,2356           67705                           AD       -BIT14                                #  (OCT57777)
002236: 20,2357           00006                           EXTEND
002237: 20,2360           12365                           BZF      TOGETHER                              #  YES
002238:
002239: 20,2361           45016                           CS       BIT2                                  #  NO, UNSET FLAG
002240: 20,2362           70103                           MASK     FLAGWRD7
002241: 20,2363           54103                           TS       FLAGWRD7
002242:
002243: 20,2364           12370                           TCF      +4
002244:
002245: 20,2365           40103        TOGETHER           CS       FLAGWRD7                              #  ATTACHED, SET FLAG FOR INTEGRATION
002246: 20,2366           75016                           MASK     BIT2
002247: 20,2367           26103                           ADS      FLAGWRD7
002248:
002249: 20,2370           00003                           RELINT
002250:
002251: 20,2371           31466                           CA       DAPDATR1
002252: 20,2372           75014                           MASK     BIT4
002253: 20,2373           00006                           EXTEND
002254: 20,2374           62376                           BZMF     +2                                    #  DEC 46 MEANS NARROW DB
002255: 20,2375           32476                           CA       DEC409
002256: 20,2376           62477                           AD       DEC46                                 #  DEC 455 MEANS WIDE DB
002257: 20,2377           55655                           TS       ADB
002258:
002259: 20,2400           31466                           CA       DAPDATR1
002260: 20,2401           75011                           MASK     BIT7                                  #  QUAD BD
002261: 20,2402           00006                           EXTEND
002262: 20,2403           62405                           BZMF     +2
002263: 20,2404           35017                           CA       ONE
002264: 20,2405           55631                           TS       XTRANS
002265: 20,2406           31466                           CA       DAPDATR1
002266: 20,2407           75006                           MASK     BIT10                                 #  QUAD AC
002267: 20,2410           00006                           EXTEND
002268: 20,2411           62413                           BZMF     +2
002269: 20,2412           45017                           CS       ONE
002270: 20,2413           27631                           ADS      XTRANS
002271:
002272: 20,2414           00004                           INHINT
002273: 20,2415           00006                           EXTEND
002274: 20,2416           12423                           BZF      +5                                    #  CLEAR NJETSFLG (4 JETS, OR NO JETS)
002275: 20,2417           40075                           CS       FLAGWRD1                              #  SET NJETSFLG (2 JETS, AC OR BD QUADS)
002276: 20,2420           75001                           MASK     BIT15                                 #  NJETSFLG = 1 FOR 2 JET ULLAGE (AC OR BD)
002277: 20,2421           26075                           ADS      FLAGWRD1


002279: 20,2422           12426                           TCF      +4
002280: 20,2423           45001                           CS       BIT15                                 #  NJETSFLG = 0 FOR 4 JET (OR 0 JET) ULLAGE
002281: 20,2424           70075                           MASK     FLAGWRD1
002282: 20,2425           54075                           TS       FLAGWRD1
002283: 20,2426           00003                           RELINT
002284: 20,2427           31467                           CA       DAPDATR2
002285: 20,2430           75003                           MASK     BIT13
002286: 20,2431           00006                           EXTEND
002287: 20,2432           62434                           BZMF     +2
002288: 20,2433           12435                           TCF      +2
002289: 20,2434           45017                           CS       ONE
002290: 20,2435           40000                           COM
002291: 20,2436           55630                           TS       ACORBD                                #  MINUS FOR A-C, PLUS FOR B-D
002292:
002293: 20,2437           31467                           CA       DAPDATR2
002294: 20,2440           75006                           MASK     BIT10
002295: 20,2441           10000                           CCS      A
002296: 20,2442           12446                           TCF      +4
002297: 20,2443           35017                           CA       ONE
002298: 20,2444           55626                           TS       RACFAIL
002299: 20,2445           12456                           TCF      BDFAIL
002300: 20,2446           35021                           CA       ZERO
002301: 20,2447           55626                           TS       RACFAIL
002302: 20,2450           31467                           CA       DAPDATR2
002303: 20,2451           75014                           MASK     BIT4
002304: 20,2452           10000                           CCS      A
002305: 20,2453           12456                           TCF      BDFAIL
002306: 20,2454           45017                           CS       ONE
002307: 20,2455           55626                           TS       RACFAIL
002308: 20,2456           31467        BDFAIL             CA       DAPDATR2
002309: 20,2457           75011                           MASK     BIT7
002310: 20,2460           10000                           CCS      A
002311: 20,2461           12465                           TCF      +4
002312: 20,2462           35017                           CA       ONE
002313: 20,2463           55627                           TS       RBDFAIL
002314: 20,2464           00002                           TC       Q
002315: 20,2465           35021                           CA       ZERO
002316: 20,2466           55627                           TS       RBDFAIL
002317: 20,2467           31467                           CA       DAPDATR2
002318: 20,2470           75017                           MASK     BIT1
002319: 20,2471           10000                           CCS      A
002320: 20,2472           00002                           TC       Q
002321: 20,2473           45017                           CS       ONE
002322: 20,2474           55627                           TS       RBDFAIL
002323: 20,2475           00002                           TC       Q
002324:
002325:                                                                                                  #  DAPFIG ENTRY VIA TC POSTJUMP AS JOB FROM ..STABLISH.. (VERB 46)
002326:
002327: 42,3606                                           BANK     42
002328: 42,2000                                           SETLOC   EXTVBS


002330: 42,2000                                           BANK
002331:
002332: 42,3606           45007        DAPFIG             CS       BIT9                                  #  TURN OFF SIVB TAKEOVER
002333: 42,3607           00006                           EXTEND
002334: 42,3610           03012                           WAND     CHAN12
002335: 42,3611           31466                           CAE      DAPDATR1                              #  DETERMINE VEHICLE CONFIGURATION
002336: 42,3612           00006                           EXTEND
002337: 42,3613           75015                           MP       BIT3                                  #        RIGHT SHIFT 4 OCTAL DIGITS
002338: 42,3614           76214                           MASK     THREE                                 #        (IN CASE BIT 15 IS USED)
002339: 42,3615           50000                           INDEX    A
002340: 42,3616           13617                           TCF      +1                                    #        BRANCH BASED ON CONFIG....
002341:
002342: 42,3617           13631                           TCF      NODAPUP                               #  CM.......ACTIVATE NODAP
002343: 42,3620           13624                           TCF      RCSDAPUP                              #        CSM......ACTIVATE RCSDAP
002344: 42,3621           13624                           TCF      RCSDAPUP                              #        CSM/LEM..ACTIVATE RCSDAP
002345: 42,3622           04701                           TC       POSTJUMP
002346: 42,3623           67215                           CADR     SATSTKON
002347: 42,3624           00004        RCSDAPUP           INHINT                                         #  CALL TO ACTIVATE RCSDAP, AND RETURN
002348: 42,3625           04740                           TCR      IBNKCALL
002349: 42,3626           42024                           CADR     RCSDAPON
002350: 42,3627           00003                           RELINT
002351: 42,3630           13646                           TCF      ENDFIG                                #  CAME IN VIA V46, GO OUT VIA GOPIN
002352: 42,3631           00006        NODAPUP            EXTEND                                         #  T5 IDLE FOR NODAP (DONT WORRY ABOUT T)
002353: 42,3632           33651                           DCA      T5IDLDAP
002354: 42,3633           53313                           DXCH     T5LOC
002355: 42,3634           05560                           TC       DOWNFLAG                              #  RESET T5-USAGE FLAGS FOR NODAP
002356: 42,3635           00132                           ADRES    DAPBIT1                               #  BIT 15 FLAG 6 = 0
002357: 42,3636           05560                           TC       DOWNFLAG
002358: 42,3637           00133                           ADRES    DAPBIT2                               #  BIT 14 FLAG 6 = 0
002359: 42,3640           00004                           INHINT
002360: 42,3641           04740                           TC       IBNKCALL                              #  ZERO JET CHANNELS IN 14 MS AND THEN
002361: 42,3642           42632                           CADR     ZEROJET                               #  LEAVE THE T6 CLOCK DISABLED.
002362: 42,3643           00003                           RELINT
002363: 42,3644           35017                           CAF      BIT1                                  #  KILL KALCMANU JOB
002364: 42,3645           55332                           TS       HOLDFLAG
002365: 42,3646           04701        ENDFIG             TC       POSTJUMP                              #  CAME IN VIA V46, GO OUT VIA GOPIN
002366: 42,3647           66121                           CADR     GOPIN
002367: 42,3650  E6,1423                                  EBANK=   PACTOFF
002368: 42,3650           03153 12106  T5IDLDAP           2CADR    T5IDLOC
002369:
002370: 42,3652  30,2000                                  SBANK=   LOWSUPER
002371: 17,2026                                           BANK     17
002372: 20,2000                                           SETLOC   DAPS6
002373: 20,2000                                           BANK
002374:
002375: 20,2476           00631        DEC409             DEC      409        B-14
002376: 20,2477           00056        DEC46              DEC      46         B-14
002377:


002379:
002380:                                                                                                  #  CALLED BY ..DONOUN47.. (VERB 48), OR DIRECTLY BY ..FRESHDAP.. (RCS DAP)
002381: 20,2500           31470        S40.14             CAE      IXX                                   #  RCS ENTRY
002382: 20,2501           00006                           EXTEND
002383: 20,2502           72525                           MP       CONTONE
002384: 20,2503           55623                           TS       J/M
002385:
002386: 20,2504           31471                           CA       IAVG
002387: 20,2505           00006                           EXTEND
002388: 20,2506           72525                           MP       CONTONE
002389: 20,2507           55624                           TS       J/M1
002390:
002391: 20,2510           55625                           TS       J/M2
002392:
002393: 20,2511           00006                           EXTEND
002394: 20,2512           32527                           DCA      CONTTWO
002395: 20,2513           00006                           EXTEND
002396: 20,2514           11470                           DV       IXX
002397: 20,2515           55620                           TS       KMJ
002398:
002399: 20,2516           00006                           EXTEND
002400: 20,2517           32527                           DCA      CONTTWO
002401: 20,2520           00006                           EXTEND
002402: 20,2521           11471                           DV       IAVG
002403: 20,2522           55621                           TS       KMJ1
002404:
002405: 20,2523           55622                           TS       KMJ2
002406:
002407: 20,2524           00002                           TC       Q
002408:
002409: 20,2525           25137        CONTONE            DEC      .662034                               #  2PI/M
002410: 20,2526           00023 12522  CONTTWO            2DEC     .00118
002411:
002412: 20,2530                                           COUNT    24/TVNG
002413:
002414: 31,3700                                           BANK     31
002415: 24,2000                                           SETLOC   P40S
002416: 24,2000                                           BANK
002417:
002418: 24,3761           37405        POS-2.5            OCT      37405
002419: 24,3762  E6,1466                                  EBANK=   DAPDATR1
002420: 24,3762           02014 42066  RCSCADR            2CADR    RCSUP
002421:
002422: 24,3764           37704        6SECT5             OCT      37704
002423: 24,3765                                           COUNT    21/RCSUP
002424:
002425: 20,2530                                           BANK     20
002426:
002427: 21,2000                                           SETLOC   DAPS3
002428: 21,2000                                           BANK
002429:


002431:
002432: 21,2014           22016        RCSUP              LXCH     BANKRUPT
002433: 21,2015           00006                           EXTEND
002434: 21,2016           22012                           QXCH     QRUPT
002435:
002436: 21,2017           02024                           TCR      RCSDAPON                              #  ACTIVATE RCS DAP
002437:
002438: 21,2020           15333                           TCF      RESUME
002439:
002440: 21,2021  E6,1466                                  EBANK=   DAPDATR1
002441: 21,2021           02122 42066  RCSADDR            2CADR    RCSATT
002442:
002443: 21,2023           37704        0.6SECT5           OCT      37704
002444:
002445:                                                                                                  #  RCSDAPON ENTRY MUST BE UNDER INT-INHIBIT
002446: 21,2024           32023        RCSDAPON           CAF      0.6SECT5                              #  0.6 SEC ALLOWS TVCEXEC/ROLLDAP TO DIE
002447: 21,2025           54030                 +1        TS       TIME5                                 #  ENTRY FROM ROOTOPOO
002448: 21,2026           55465                           TS       T5PHASE                               #  WILL CAUSE FRESHDAP (+1)
002449:
002450: 21,2027           41501                           CS       RCSFLAGS                              #  SET BIT3 TO REINITIALIZE FDAI ERROR
002451: 21,2030           75015                           MASK     BIT3                                  #        DISPLAY, IN CASE SC CONT SWITCH
002452: 21,2031           27501                           ADS      RCSFLAGS                              #        IN SCS NOT GNC (GUIDEMODE PRIMARY)
002453:
002454: 21,2032           00006                           EXTEND
002455: 21,2033           32022                           DCA      RCSADDR                               #  (RCSATT)
002456: 21,2034           53313                           DXCH     T5LOC
002457:
002458: 21,2035           44105                           CS       OCT60000                              #  SET BITS 15,14 TO 01 TO INDICATE
002459: 21,2036           70102                           MASK     FLAGWRD6                              #        T5 TAKEOVER BY RCSDAP
002460: 21,2037           65002                           AD       BIT14
002461: 21,2040           54102                           TS       FLAGWRD6                              #  KILLS TVCEXEC AND ROLLDAP STARTS
002462:
002463: 21,2041           00002                           TC       Q                                     #  RETURN TO CALLER (TVCDAPOF OR RCSDAPUP)
002464:
002465:

End of include-file P40-P47.agc.  Parent file is MAIN.agc


