
Source Code


000002:                                                                                                  ## Copyright:   Public domain.
000003:                                                                                                  ## Filename:    P76.agc
000004:                                                                                                  ## Purpose:     A section of Comanche revision 044.
000005:                                                                                                  ##              It is part of the reconstructed source code for the
000006:                                                                                                  ##              original release of the flight software for the Command
000007:                                                                                                  ##              Module's (CM) Apollo Guidance Computer (AGC) for Apollo 10.
000008:                                                                                                  ##              The code has been recreated from a copy of Comanche 055. It
000009:                                                                                                  ##              has been adapted such that the resulting bugger words
000010:                                                                                                  ##              exactly match those specified for Comanche 44 in NASA drawing
000011:                                                                                                  ##              2021153D, which gives relatively high confidence that the
000012:                                                                                                  ##              reconstruction is correct.
000013:                                                                                                  ## Assembler:   yaYUL
000014:                                                                                                  ## Contact:     Ron Burkey <info@sandroid.org>.
000015:                                                                                                  ## Website:     www.ibiblio.org/apollo/index.html
000016:                                                                                                  ## Mod history: 2020-12-03 MAS  Created from Comanche 51.
000017:


000019:                                                                                                  #  1)    PROGRAM NAME - TARGET DELTA V PROGRAM (P76).
000020:                                                                                                  #  2)    FUNCTIONAL DESCRIPTION - UPON ENTRY BY ASTRONAUT ACTION, P76 FLASHES DSKY REQUESTS TO THE ASTRONAUT
000021:                                                                                                  #        TO PROVIDE VIA DSKY (1) THE DELTA V TO BE APPLIED TO THE OTHER VEHICLE STATE VECTOR AND (2) THE
000022:                                                                                                  #        TIME (TIG) AT WHICH THE OTHER VEHICLE VELOCITY WAS CHANGED BY EXECUTION OF A THRUSTING MANEUVER. THE
000023:                                                                                                  #        OTHER VEHICLE STATE VECTOR IS INTEGRATED TO TIG AND UPDATED BY THE ADDITION OF DELTA V (DELTA V HAVING
000024:                                                                                                  #        BEEN TRANSFORMED FROM LV TO REF COSYS).  USING INTEGRVS, THE PROGRAM THEN INTEGRATES THE OTHER
000025:                                                                                                  #        VEHICLE STATE VECTOR TO THE STATE VECTOR OF THIS VEHICLE, THUS INSURING THAT THE W-MATRIX AND BOTH VEHICLE
000026:                                                                                                  #        STATES CORRESPOND TO THE SAME TIME.
000027:                                                                                                  #  3)    ERASABLE INITIALIZATION REQUIRED - NONE.
000028:                                                                                                  #  4)    CALLING SEQUENCES AND EXIT MODES - CALLED BY ASTRONAUT REQUEST THRU DSKY V 37 E 76E.
000029:                                                                                                  #        EXITS BY TCF ENDOFJOB.
000030:                                                                                                  #  5)    OUTPUT - OTHER VEHICLE STATE VECTOR INTEGRATED TO TIG AND INCREMENTED BY DELTA V IN REF COSYS.
000031:                                                                                                  #        THE PUSHLIST CONTAINS THE MATRIX BY WHICH THE INPUT DELTA V MUST BE POST-MULTIPLIED TO CONVERT FROM LV
000032:                                                                                                  #        TO REF COSYS.
000033:                                                                                                  #  6)    DEBRIS - OTHER VEHICLE STATE VECTOR.
000034:                                                                                                  #  7)    SUBROUTINES CALLED - BANKCALL, GOXDSPF, CSMPREC (OR LEMPREC), ATOPCSM (OR ATOPLEM), INTSTALL, INTWAKE, PHASCHNG
000035:                                                                                                  #        INTPRET, INTEGRVS, AND MINIRECT.
000036:                                                                                                  #  8)    FLAG USE - MOONFLAG, CMOONFLAG, INTYPFLG, RASFLAG, AND MARKCTR.
000037:
000038: 30,2000                                           BANK     30
000039: 13,2000                                           SETLOC   P76LOC
000040: 13,2000                                           BANK
000041:
000042: 13,2071                                           COUNT*   $$/P76
000043:
000044: 13,2071  E7,1412                                  EBANK=   TIG
000045:
000046: 13,2071           05546        P76                TC       UPFLAG
000047: 13,2072           00031                           ADRES    TRACKFLG
000048:
000049: 13,2073           32220                           CAF      V06N84                                #  FLASH LAST DELTA V,
000050: 13,2074           04662                           TC       BANKCALL                              #  AND WAIT FOR KEYBOARD ACTION.
000051: 13,2075           20720                           CADR     GOFLASH
000052: 13,2076           12212                           TCF      ENDP76
000053: 13,2077           02101                           TC       +2                                    #  PROCEED
000054: 13,2100           02073                           TC       -5                                    #  STORE DATA AND REPEAT FLASHING
000055: 13,2101           32221                           CAF      V06N84     +1                         #  FLASH VERB 06 NOUN 33, DISPLAY LAST TIG,
000056: 13,2102           04662                           TC       BANKCALL                              #  AND WAIT FOR KEYBOARD ACTION.
000057: 13,2103           20720                           CADR     GOFLASH
000058: 13,2104           12212                           TCF      ENDP76
000059: 13,2105           02107                           TC       +2
000060: 13,2106           02101                           TC       -5
000061: 13,2107           06006                           TC       INTPRET                               #  RETURN TO INTERPRETIVE CODE
000062: 13,2110           77745                           DLOAD                                          #  SET D(MPAC)=TIG IN CSEC B28
000063: 13,2111           03413                                    TIG
000064: 13,2112           34041                           STCALL   TDEC1                                 #  SET TDEC1=TIG FOR ORBITAL INTEGRATION
000065: 13,2113           27105                                    OTHPREC
000066: 13,2114           53575        COMPMAT            VLOAD    UNIT
000067: 13,2115           00001                                    RATT


000069: 13,2116           77676                           VCOMP                                          #  U(-R)
000070: 13,2117           00031                           STORE    24D                                   #  U(-R) TO 24D
000071: 13,2120           53435                           VXV      UNIT                                  #  U(-R) X V = U(V X R)
000072: 13,2121           00007                                    VATT
000073: 13,2122           00023                           STORE    18D
000074: 13,2123           53435                           VXV      UNIT                                  #  U(V X R) X U(-R) = U((R X V) X R)
000075: 13,2124           00031                                    24D
000076: 13,2125           24015                           STOVL    12D
000077: 13,2126           03540                                    DELVOV
000078: 13,2127           76505                           VXM      VSL1                                  #  V(MPAC)=DELTA V IN REFCOSYS
000079: 13,2130           00015                                    12D
000080: 13,2131           77655                           VAD
000081: 13,2132           00007                                    VATT
000082: 13,2133           00007                           STORE    6                                     #  V(PD6)=VATT + DELTA V
000083: 13,2134           77624                           CALL                                           #  PREVENT WOULD-BE USER OF ORBITAL
000084: 13,2135           27442                                    INTSTALL                              #  INTEG FROM INTERFERING WITH UPDATING
000085: 13,2136           77624                           CALL
000086: 13,2137           26222                                    P76SUB1
000087: 13,2140           53775                           VLOAD    VSR*
000088: 13,2141           00007                                    6
000089: 13,2142           57176                                    0,2
000090: 13,2143           25543                           STOVL    VCV
000091: 13,2144           00001                                    RATT
000092: 13,2145           77657                           VSR*
000093: 13,2146           57176                                    0,2
000094: 13,2147           15535                           STODL    RCV
000095: 13,2150           03413                                    TIG
000096: 13,2151           01517                           STORE    TET
000097: 13,2152           71214                           CLEAR    DLOAD
000098: 13,2153           01673                                    INTYPFLG
000099: 13,2154           01571                                    TETTHIS
000100: 13,2155           34041        INTOTHIS           STCALL   TDEC1
000101: 13,2156           27135                                    INTEGRVS
000102: 13,2157           77624                           CALL
000103: 13,2160           27442                                    INTSTALL
000104: 13,2161           77624                           CALL
000105: 13,2162           26222                                    P76SUB1                               #  SET/CLEAR MOONFLAG
000106: 13,2163           77775                           VLOAD
000107: 13,2164           00017                                    RATT1
000108: 13,2165           01503                           STORE    RRECT
000109: 13,2166           15535                           STODL    RCV
000110: 13,2167           00015                                    TAT
000111: 13,2170           25517                           STOVL    TET
000112: 13,2171           00025                                    VATT1
000113: 13,2172           77624                           CALL
000114: 13,2173           23435                                    MINIRECT
000115: 13,2174           77776                           EXIT
000116: 13,2175           05412                           TC       PHASCHNG
000117: 13,2176           04024                           OCT      04024


000119: 13,2177           05546                           TC       UPFLAG
000120: 13,2200           00236                           ADRES    REINTFLG
000121:
000122: 13,2201           06006                           TC       INTPRET
000123: 13,2202           77624                           CALL
000124: 13,2203           26760                                    ATOPOTH
000125: 13,2204           77531                           SSP      EXIT
000126: 13,2205           00053                                    QPRET
000127: 13,2206           26211                                    OUT
000128: 13,2207           04662                           TC       BANKCALL                              #  PERMIT USE OF ORBITAL INTEGRATION
000129: 13,2210           27477                           CADR     INTWAKE1
000130: 13,2211           77776        OUT                EXIT
000131: 13,2212           35021        ENDP76             CAF      ZERO
000132: 13,2213           55126                           TS       MARKCTR                               #  CLEAR RR TRACKING MARK COUNTER
000133: 13,2214           55125                           TS       VHFCNT
000134:
000135: 13,2215           37716                           CAF      NEGONE
000136: 13,2216           55734                           TS       MRKBUF2                               #  INVALIDATE MARK BUFFER
000137:
000138: 13,2217           14106                           TCF      GOTOPOOH
000139:
000140: 13,2220           01524        V06N84             NV       0684
000141: 13,2221           01441                           NV       0633
000142: 13,2222           67214        P76SUB1            CLEAR    SLOAD
000143: 13,2223           00263                                    MOONFLAG
000144: 13,2224           00050                                    X2
000145: 13,2225           43030                           BHIZ     SET                                   #  X2=0...CLEAR MOONFLAG
000146: 13,2226           26230                                    +2                                    #    =2.....SET MOONFLAG
000147: 13,2227           00063                                    MOONFLAG
000148: 13,2230           77616                           RVQ
000149:

End of include-file P76.agc.  Parent file is MAIN.agc


