
Source Code


000002:                                                                                                  ## Copyright:   Public domain.
000003:                                                                                                  ## Filename:    PLANETARY_INERTIAL_ORIENTATION.agc
000004:                                                                                                  ## Purpose:     A section of Comanche revision 044.
000005:                                                                                                  ##              It is part of the reconstructed source code for the
000006:                                                                                                  ##              original release of the flight software for the Command
000007:                                                                                                  ##              Module's (CM) Apollo Guidance Computer (AGC) for Apollo 10.
000008:                                                                                                  ##              The code has been recreated from a copy of Comanche 055. It
000009:                                                                                                  ##              has been adapted such that the resulting bugger words
000010:                                                                                                  ##              exactly match those specified for Comanche 44 in NASA drawing
000011:                                                                                                  ##              2021153D, which gives relatively high confidence that the
000012:                                                                                                  ##              reconstruction is correct.
000013:                                                                                                  ## Assembler:   yaYUL
000014:                                                                                                  ## Contact:     Ron Burkey <info@sandroid.org>.
000015:                                                                                                  ## Website:     www.ibiblio.org/apollo/index.html
000016:                                                                                                  ## Mod history: 2020-12-03 MAS  Created from Comanche 51. Changed constants
000017:                                                                                                  ##                              to match the 1968-1969 values in Colossus 294.
000018:                                                                                                  ##              2020-12-12 RSB  Added justifying annotations for the steps of
000019:                                                                                                  ##                              Mike's reconstruction.
000020:


000022:                                                                                                  #  ..... RP-TO-R SUBROUTINE .....
000023:                                                                                                  #  SUBROUTINE TO CONVERT RP (VECTOR IN PLANETARY COORDINATE SYSTEM, EITHER
000024:                                                                                                  #  EARTH-FIXED OR MOON-FIXED) TO R (SAME VECTOR IN THE BASIC REF. SYSTEM)
000025:                                                                                                  #        R = MT(T) * (RP + LP X RP)      MT = M MATRIX TRANSPOSE
000026:
000027:                                                                                                  #  CALLING SEQUENCE
000028:                                                                                                  #        L       CALL
000029:                                                                                                  #        L+1             RP-TO-R
000030:
000031:                                                                                                  #  SUBROUTINES USED
000032:                                                                                                  #        EARTHMX, MOONMX, EARTHL
000033:
000034:                                                                                                  #        ITEMS AVAILABLE FROM LAUNCH DATA
000035:                                                                                                  #                504LM = THE LIBRATION VECTOR L OF THE MOON AT TIME TIMSUBL, EXPRESSED
000036:                                                                                                  #                IN THE MOON-FIXED COORD. SYSTEM         RADIANS B0
000037:
000038:                                                                                                  #        ITEMS NECESSARY FOR SUBR. USED (SEE DESCRIPTION OF SUBR.)
000039:
000040:                                                                                                  #  INPUT
000041:                                                                                                  #        MPAC = 0 FOR EARTH, NON-ZERO FOR MOON
000042:                                                                                                  #        0-5D = RP VECTOR
000043:                                                                                                  #        6-7D = TIME
000044:
000045:                                                                                                  #  OUTPUT
000046:                                                                                                  #        MPAC = R VECTOR METERS B-29 FOR EARTH, B-27 FOR MOON
000047:
000048: 26,2000                                           SETLOC   PLANTIN
000049: 26,2000                                           BANK
000050:
000051: 26,3344                                           COUNT*   $$/LUROT
000052:
000053: 26,3344           46020        RP-TO-R            STQ      BHIZ
000054: 26,3345           00050                                    RPREXIT
000055: 26,3346           55361                                    RPTORA
000056: 26,3347           77624                           CALL                                           #  COMPUTE M MATRIX FOR MOON
000057: 26,3350           55421                                    MOONMX                                #  LP=LM FOR MOON        RADIANS B0
000058: 26,3351           77775                           VLOAD
000059: 26,3352           02012                                    504LM
000060: 26,3353           53235        RPTORB             VXV      VAD
000061: 26,3354           00001                                    504RPR
000062: 26,3355           00001                                    504RPR
000063: 26,3356           52105                           VXM      GOTO
000064: 26,3357           00025                                    MMATRIX                               #  MPAC=R=MT(T)*(RP+LPXRP)
000065: 26,3360           55407                                    RPRPXXXX                              #  RESET PUSHLOC TO 0 BEFORE EXITING
000066: 26,3361           77624        RPTORA             CALL                                           #  EARTH COMPUTATIONS
000067: 26,3362           55573                                    EARTHMX                               #  M MATRIX B-1
000068: 26,3363           77624                           CALL
000069: 26,3364           55625                                    EARTHL                                #  L VECTOR RADIANS B0
000070: 26,3365           76521                           MXV      VSL1                                  #  LP=M(T)*L     RAD B-0
000071: 26,3366           00025                                    MMATRIX


000073: 26,3367           77650                           GOTO
000074: 26,3370           55353                                    RPTORB
000075:


000077:                                                                                                  #  ..... R-TO-RP SUBROUTINE .....
000078:                                                                                                  #  SUBROUTINE TO CONVERT R (VECTOR IN REFERENCE COORD. SYSTEM) TO RP
000079:                                                                                                  #  (VECTOR IN PLANETARY COORD SYSTEM) EITHER EARTH-FIXED OR MOON-FIXED
000080:                                                                                                  #        RP = M(T) * (R - L X R)
000081:
000082:                                                                                                  #  CALLING SEQUENCE
000083:                                                                                                  #        L       CALL
000084:                                                                                                  #        L+1             R-TO-RP
000085:
000086:                                                                                                  #  SUBROUTINES USED
000087:                                                                                                  #        EARTHMX, MOONMX, EARTHL
000088:
000089:                                                                                                  #  INPUT
000090:                                                                                                  #        MPAC = 0 FOR EARTH, NON-ZERO FOR MOON
000091:                                                                                                  #        0-5D = R VECTOR
000092:                                                                                                  #        6-7D = TIME
000093:
000094:                                                                                                  #        ITEMS AVAILABLE FROM LAUNCH DATA
000095:                                                                                                  #                504LM = THE LIBRATION VECTOR L OF THE MOON AT TIME TIMSUBL, EXPRESSED
000096:                                                                                                  #                IN THE MOON-FIXED COORD. SYSTEM                 RADIANS B0
000097:
000098:                                                                                                  #        ITEMS NECESSARY FOR SUBROUTINES USED (SEE DESCRIPTION OF SUBR.)
000099:
000100:                                                                                                  #  OUTPUT
000101:                                                                                                  #        MPAC = RP VECTOR METERS B-29 FOR EARTH, B-27 FOR MOON
000102:
000103: 26,3371           46020        R-TO-RP            STQ      BHIZ
000104: 26,3372           00050                                    RPREXIT
000105: 26,3373           55413                                    RTORPA
000106: 26,3374           77624                           CALL
000107: 26,3375           55421                                    MOONMX
000108: 26,3376           61375                           VLOAD    VXM
000109: 26,3377           02012                                    504LM                                 #  LP=LM
000110: 26,3400           00025                                    MMATRIX
000111: 26,3401           77772                           VSL1                                           #  L = MT(T)*LP          RADIANS B0
000112: 26,3402           51235        RTORPB             VXV      BVSU
000113: 26,3403           00001                                    504RPR
000114: 26,3404           00001                                    504RPR
000115: 26,3405           77721                           MXV                                            #  M(T)*(R-LXR)          B-2
000116: 26,3406           00025                                    MMATRIX
000117: 26,3407           40372        RPRPXXXX           VSL1     SETPD
000118: 26,3410           00001                                    0D
000119: 26,3411           77650                           GOTO
000120: 26,3412           00050                                    RPREXIT
000121: 26,3413           77624        RTORPA             CALL                                           #  EARTH COMPUTATIONS
000122: 26,3414           55573                                    EARTHMX
000123: 26,3415           77624                           CALL
000124: 26,3416           55625                                    EARTHL
000125: 26,3417           77650                           GOTO                                           #  MPAC=L=(-AX,-AY,0)    RAD B-0
000126: 26,3420           55402                                    RTORPB
000127:


000129:                                                                                                  #  ..... MOONMX SUBROUTINE .....
000130:                                                                                                  #  SUBROUTINE TO COMPUTE THE TRANSFORMATION MATRIX M FOR THE MOON
000131:
000132:                                                                                                  #  CALLING SEQUENCE
000133:                                                                                                  #        L       CALL
000134:                                                                                                  #        L+1             MOONMX
000135:
000136:                                                                                                  #  SUBROUTINES USED
000137:                                                                                                  #        NEWANGLE
000138:
000139:                                                                                                  #  INPUT
000140:                                                                                                  #        6-7D = TIME
000141:
000142:                                                                                                  #        ITEMS AVAILABLE FROM LAUNCH DATA
000143:                                                                                                  #                BSUBO, BDOT
000144:                                                                                                  #                TIMSUBO, NODIO, NODDOT, FSUBO, FDOT
000145:                                                                                                  #                COSI = COS(I)   B-1
000146:                                                                                                  #                SINI = SIN(I)   B-1
000147:                                                                                                  #                I IS THE ANGLE BETWEEN THE MEAN LUNAR EQUATORIAL PLANE AND THE
000148:                                                                                                  #                PLANE OF THE ECLIPTIC (1 DEGREE 32.1 MINUTES)
000149:
000150:                                                                                                  #  OUTPUT
000151:                                                                                                  #        MMATRIX = 3X3 M MATRIX          B-1 (STORED IN VAC AREA)
000152:
000153: 26,3421           40220        MOONMX             STQ      SETPD
000154: 26,3422           00051                                    EARTHMXX
000155: 26,3423           00011                                    8D
000156: 26,3424           77770                           AXT,1                                          #  B REQUIRES SL 0, SL 5 IN NEWANGLE
000157: 26,3425           00005                                    5
000158: 26,3426           65345                           DLOAD    PDDL                                  #  PD 10D        8-9D=BSUBO
000159: 26,3427           15655                                    BSUBO                                 #                10-11D=BDOT
000160: 26,3430           15647                                    BDOT
000161: 26,3431           45006                           PUSH     CALL                                  #  PD 12D
000162: 26,3432           55546                                    NEWANGLE                              #  EXIT WITH PD 8D AND MPAC= B   REVS B0
000163: 26,3433           71406                           PUSH     COS                                   #  PD 10D
000164: 26,3434           14041                           STODL    COB                                   #  PD 8D         COS(B) B-1
000165: 26,3435           77756                           SIN                                            #                SIN(B) B-1
000166: 26,3436           14043                           STODL    SOB                                   #                SETUP INPUT FOR NEWANGLE
000167: 26,3437           15653                                    FSUBO                                 #                        8-9D=FSUBO
000168: 26,3440           41525                           PDDL     PUSH                                  #  PD 10D THEN 12D       10-11D=FDOT
000169: 26,3441           15645                                    FDOT
000170: 26,3442           45170                           AXT,1    CALL                                  #  F REQUIRES SL 1, SL 6 IN NEWANGLE
000171: 26,3443           00004                                    4
000172: 26,3444           55546                                    NEWANGLE                              #  EXIT WITH PD 8D AND MPAC= F REVS B0
000173: 26,3445           14027                           STODL    AVECTR     +2                         #  SAVE F TEMP
000174: 26,3446           15651                                    NODIO                                 #                        8-9D=NODIO
000175: 26,3447           41525                           PDDL     PUSH                                  #  PD 10D THEN 12D       10-11D=NODDOT
000176: 26,3450           15643                                    NODDOT                                #                        MPAC=T
000177: 26,3451           45170                           AXT,1    CALL                                  #  NODE REQUIRES SL 0, SL 5 IN NEWANGLE
000178: 26,3452           00005                                    5
000179: 26,3453           55546                                    NEWANGLE                              #  EXIT WITH PD 8D AND MPAC= NODI REVS B0


000181: 26,3454           71406                           PUSH     COS                                   #  PD 10D        8-9D= NODI REVS B0
000182: 26,3455           77606                           PUSH                                           #  PD 12D        10-11D= COS(NODI) B-1
000183: 26,3456           00025                           STORE    AVECTR
000184: 26,3457           76405                           DMP      SL1R
000185: 26,3460           00041                                    COB                                   #                        COS(NODI) B-1
000186: 26,3461           14035                           STODL    BVECTR     +2                         #  PD 10D  20-25D=AVECTR=COB*SIN(NODI)
000187: 26,3462           76405                           DMP      SL1R                                  #                        SOB*SIN(NODI)
000188: 26,3463           00043                                    SOB
000189: 26,3464           14037                           STODL    BVECTR     +4                         #  PD 8D
000190: 26,3465           41556                           SIN      PUSH                                  #  PD 10D                -SIN(NODI) B-1
000191: 26,3466           77676                           DCOMP                                          #          26-31D=BVECTR=COB*COS(NODI)
000192: 26,3467           14033                           STODL    BVECTR                                #  PD 8D                 SOB*COS(NODI)
000193: 26,3470           00027                                    AVECTR     +2                         #  MOVE F FROM TEMP LOC. TO 504F
000194: 26,3471           14007                           STODL    504F
000195: 26,3472           76405                           DMP      SL1R
000196: 26,3473           00041                                    COB
000197: 26,3474           14027                           STODL    AVECTR     +2
000198: 26,3475           00011                                    SINNODI                               #  8-9D=SIN(NODI) B-1
000199: 26,3476           76405                           DMP      SL1R
000200: 26,3477           00043                                    SOB
000201: 26,3500           14031                           STODL    AVECTR     +4                         #                        0
000202: 26,3501           15335                                    HI6ZEROS                              #        8-13D= CVECTR=  -SOB B-1
000203: 26,3502           57525                           PDDL     DCOMP                                 #  PD 10D                COB
000204: 26,3503           00043                                    SOB
000205: 26,3504           63325                           PDDL     PDVL                                  #  PD 12D THEN PD 14D
000206: 26,3505           00041                                    COB
000207: 26,3506           00033                                    BVECTR
000208: 26,3507           63361                           VXSC     PDVL                                  #  PD 20D        BVECTR*SINI B-2
000209: 26,3510           15641                                    SINI
000210: 26,3511           00011                                    CVECTR
000211: 26,3512           53361                           VXSC     VAD                                   #  PD 14D        CVECTR*COSI B-2
000212: 26,3513           15637                                    COSI
000213: 26,3514           77772                           VSL1
000214: 26,3515           24041                           STOVL    MMATRIX    +12D                       #  PD 8D  M2=BVECTR*SINI+CVECTR*COSI B-1
000215: 26,3516           63361                           VXSC     PDVL                                  #  PD 14D
000216: 26,3517           15641                                    SINI                                  #                CVECTR*SINI B-2
000217: 26,3520           00033                                    BVECTR
000218: 26,3521           52361                           VXSC     VSU                                   #  PD 8D         BVECTR*COSI B-2
000219: 26,3522           15637                                    COSI
000220: 26,3523           65372                           VSL1     PDDL                                  #  PD 14D
000221: 26,3524           00007                                    504F                                  #  8-13D=DVECTR=BVECTR*COSI-CVECTR*SINI B-1
000222: 26,3525           74346                           COS      VXSC
000223: 26,3526           00011                                    DVECTR
000224: 26,3527           73525                           PDDL     SIN                                   #  PD 20D  14-19D= DVECTR*COSF B-2
000225: 26,3530           00007                                    504F
000226: 26,3531           52361                           VXSC     VSU                                   #  PD 14D        AVECTR*SINF B-2
000227: 26,3532           00025                                    AVECTR
000228: 26,3533           77772                           VSL1
000229: 26,3534           14033                           STODL    MMATRIX    +6                         #  M1= AVECTR*SINF-DVECTR*COSF B-1
000230: 26,3535           00007                                    504F


000232: 26,3536           74356                           SIN      VXSC                                  #  PD 8D
000233: 26,3537           71525                           PDDL     COS                                   #  PD 14D  8-13D=DVECTR*SINF B-2
000234: 26,3540           00007                                    504F
000235: 26,3541           53361                           VXSC     VAD                                   #  PD 8D         AVECTR*COSF B-2
000236: 26,3542           00025                                    AVECTR
000237: 26,3543           57572                           VSL1     VCOMP
000238: 26,3544           34025                           STCALL   MMATRIX                               #  M0= -(AVECTR*COSF+DVECTR*SINF) B-1
000239: 26,3545           00051                                    EARTHMXX
000240:
000241:                                                                                                  #  COMPUTE X=X0+(XDOT)(T+T0)
000242:                                                                                                  #  8-9D= XO (REVS B-0), PUSHLOC SET AT 12D
000243:                                                                                                  #  10-11D=XDOT (REVS/CSEC) SCALED B+23 FOR WEARTH,B+28 FOR NODDOT AND BDOT
000244:                                                                                                  #                        AND B+27 FOR FDOT
000245:                                                                                                  #  X1=DIFFERENCE IN 23 AND SCALING OF XDOT, =0 FOR WEARTH, 5 FOR NODDOT AND
000246:                                                                                                  #                                        BDOT AND 4 FOR FDOT
000247:                                                                                                  #  6-7D=T (CSEC B-28), TIMSUBO= (CSEC B-42 TRIPLE PREC.)
000248:
000249: 26,3546           54345        NEWANGLE           DLOAD    SR                                    #  ENTER PD 12D
000250: 26,3547           00007                                    6D
000251: 26,3550           20617                                    14D
000252: 26,3551           72371                           TAD      TLOAD                                 #  CHANGE MODE TO TP
000253: 26,3552           01707                                    TIMSUBO
000254: 26,3553           00155                                    MPAC
000255: 26,3554           14017                           STODL    TIMSUBM                               #  T+T0 CSEC B-42
000256: 26,3555           00020                                    TIMSUBM    +1
000257: 26,3556           77605                           DMP                                            #  PD 10D        MULT BY XDOT IN 10-11D
000258: 26,3557           43257                           SL*      DAD                                   #  PD 8D         ADD XO IN 8-9D AFTER SHIFTING
000259: 26,3560           20206                                    5,1                                   #                SUCH THAT SCALING IS B-0
000260: 26,3561           67206                           PUSH     SLOAD                                 #  PD 10D  SAVE PARTIAL (X0+XDOT*T) IN 8-9D
000261: 26,3562           00017                                    TIMSUBM
000262: 26,3563           41261                           SL       DMP
000263: 26,3564           20212                                    9D
000264: 26,3565           00013                                    10D                                   #  XDOT
000265: 26,3566           43257                           SL*      DAD                                   #  PD 8D         SHIFT SUCH THAT THIS PART OF X
000266: 26,3567           20213                                    10D,1                                 #                IS SCALED REVS/CSEC B-0
000267: 26,3570           77600                           BOV                                            #  TURN OFF OVERFLOW IF SET BY SHIFT
000268: 26,3571           55572                                    +1                                    #  INSTRUCTION BEFORE EXITING
000269: 26,3572           77616                           RVQ                                            #  MPAC=X= X0+(XDOT)(T+T0)       REVS B0
000270:


000272:                                                                                                  #  ..... EARTHMX SUBROUTINE .....
000273:                                                                                                  #  SUBROUTINE TO COMPUTE THE TRANSFORMATION MATRIX M FOR THE EARTH
000274:
000275:                                                                                                  #  CALLING SEQUENCE
000276:                                                                                                  #        L       CALL
000277:                                                                                                  #        L+1             EARTHMX
000278:
000279:                                                                                                  #  SUBROUTINES USED
000280:                                                                                                  #        NEWANGLE
000281:
000282:                                                                                                  #  INPUT
000283:                                                                                                  #        INPUT AVAILABLE FROM LAUNCH DATA        AZO REVS B-0
000284:                                                                                                  #                                                TEPHEM CSEC B-42
000285:                                                                                                  #        6-7D= TIME CSEC B-28
000286:
000287:                                                                                                  #  OUTPUT
000288:                                                                                                  #        MMATRIX= 3X3 M MATRIX B-1 (STORED IN VAC AREA)
000289:
000290: 26,3573           40220        EARTHMX            STQ      SETPD                                 #  SET 8-9D=AZO
000291: 26,3574           00051                                    EARTHMXX
000292: 26,3575           00011                                    8D                                    #  10-11D=WEARTH
000293: 26,3576           77770                           AXT,1                                          #  FOR SL 5, AND SL 10 IN NEWANGLE
000294: 26,3577           00000                                    0
000295: 26,3600           65345                           DLOAD    PDDL                                  #  LEAVING PD SET AT 12D FOR NEWANGLE
000296: 26,3601           01712                                    AZO
000297: 26,3602           15657                                    WEARTH
000298: 26,3603           45006                           PUSH     CALL
000299: 26,3604           55546                                    NEWANGLE
000300: 26,3605           41401                           SETPD    PUSH                                  #  18-19D=504AZ
000301: 26,3606           00023                                    18D                                   #                         COS(AZ)   SIN(AZ)     0
000302: 26,3607           65346                           COS      PDDL                                  #  20-37D=  MMATRIX=     -SIN(AZ)   COS(AZ)     0    B-1
000303: 26,3610           00023                                    504AZ                                 #                            0         0        1
000304: 26,3611           65356                           SIN      PDDL
000305: 26,3612           15335                                    HI6ZEROS
000306: 26,3613           73525                           PDDL     SIN
000307: 26,3614           00023                                    504AZ
000308: 26,3615           65276                           DCOMP    PDDL
000309: 26,3616           00023                                    504AZ
000310: 26,3617           63346                           COS      PDVL
000311: 26,3620           15335                                    HI6ZEROS
000312: 26,3621           41525                           PDDL     PUSH
000313: 26,3622           15333                                    HIDPHALF
000314: 26,3623           77650                           GOTO
000315: 26,3624           00051                                    EARTHMXX
000316:


000318:                                                                                                  #  ..... EARTHL SUBROUTINE .....
000319:                                                                                                  #  SUBROUTINE TO COMPUTE L VECTOR FOR EARTH
000320:
000321:                                                                                                  #  CALLING SEQUENCE
000322:                                                                                                  #        L       CALL
000323:                                                                                                  #        L+1             EARTHL
000324:
000325:                                                                                                  #  INPUT
000326:                                                                                                  #        AXO,AYO SET AT LAUNCH TIME WITH AYO IMMEDIATELY FOLLOWING AXO IN CORE
000327:
000328:                                                                                                  #  OUTPUT
000329:                                                                                                  #                -AX
000330:                                                                                                  #        MPAC=   -AY     RADIANS B-0
000331:                                                                                                  #                  0
000332:
000333: 26,3625           57545        EARTHL             DLOAD    DCOMP
000334: 26,3626           01716                                    AXO
000335: 26,3627           14017                           STODL    504LPL
000336: 26,3630           01714                                    -AYO
000337: 26,3631           14021                           STODL    504LPL     +2
000338: 26,3632           15335                                    HI6ZEROS
000339: 26,3633           24023                           STOVL    504LPL     +4
000340: 26,3634           00017                                    504LPL
000341: 26,3635           77616                           RVQ
000342:


000344:                                                                                                  #  CONSTANTS AND ERASABLE ASSIGNMENTS
000345:
000346: 26,3636  04,3560               1B1                =        DP1/2                                 #  1 SCALED B-1


000351: 26,3636           17775 01734  COSI               2DEC     .99964115  B-1                        #  COS(1 DEG 32.1 MIN) B-1
000352:
000353: 26,3640           00333 16153  SINI               2DEC     .02678760  B-1                        #  SIN(1 DEG 32.1 MIN) B-1
000354:
000355: 26,3642  0000050               RPREXIT            =        S1                                    #  R-TO-RP AND RP-TO-R SUBR EXIT
000356: 26,3642  0000051               EARTHMXX           =        S2                                    #  EARTHMX, MOONMX SUBR. EXITS
000357: 26,3642                        504RPR             =        0D                                    #  6 REGS        R OR RP VECTOR
000358: 26,3642                        SINNODI            =        8D                                    #  2             SIN(NODI)
000359: 26,3642                        DVECTR             =        8D                                    #  6             D VECTOR MOON
000360: 26,3642                        CVECTR             =        8D                                    #  6             C VECTR MOON
000361: 26,3642                        504AZ              =        18D                                   #  2             AZ
000362: 26,3642                        TIMSUBM            =        14D                                   #  3             TIME SUB M (MOON) T+T0 IN GETAZ
000363: 26,3642                        504LPL             =        14D                                   #  6             L OR LP VECTOR
000364: 26,3642                        AVECTR             =        20D                                   #  6             A VECTOR (MOON)
000365: 26,3642                        BVECTR             =        26D                                   #  6             B VECTOR (MOON)
000366: 26,3642                        MMATRIX            =        20D                                   #  18            M MATRIX
000367: 26,3642                        COB                =        32D                                   #  2             COS(B) B-1
000368: 26,3642                        SOB                =        34D                                   #  2             SIN(B) B-1
000369: 26,3642                        504F               =        6D                                    #  2             F(MOON)


000374: 26,3642           77665 42175  NODDOT             2DEC     -.457335143 E-2                        #  REVS/CSEC B+28=-1.07047016 E-6  RAD/SEC
000375:
000376: 26,3644           22211 00265  FDOT               2DEC     .570862491                            #  REVS/CSEC B+27= 2.67240019 E-6  RAD/SEC
000377:
000378: 26,3646           77777 77767  BDOT               2DEC     -3.07500412 E-8                        #  REVS/CSEC B+28=-7.19756666 E-14 RAD/SEC
000379:
000380: 26,3650           41215 66331  NODIO              2DEC     -.960101269                            #  REVS B-0      =-6.03249419      RAD
000381:
000382: 26,3652           15237 26751  FSUBO              2DEC     .415998375                            #  REVS B-0      = 2.61379488      RAD
000383:
000384: 26,3654           02052 35713  BSUBO              2DEC     .0651205006                            #  REVS B=0      = 0.409164173     RAD
000385:
000386: 26,3656           37116 32630  WEARTH             2DEC     .973561855                            #  REVS/CSEC B+23= 7.29211515 E-5  RAD/SEC
000387:

End of include-file PLANETARY_INERTIAL_ORIENTATION.agc.  Parent file is MAIN.agc


