
Source Code


000002:                                                                                                  ## Copyright:   Public domain.
000003:                                                                                                  ## Filename:    PLANETARY_INERTIAL_ORIENTATION.agc
000004:                                                                                                  ## Purpose:     A section of Comanche revision 044.
000005:                                                                                                  ##              It is part of the reconstructed source code for the
000006:                                                                                                  ##              original release of the flight software for the Command
000007:                                                                                                  ##              Module's (CM) Apollo Guidance Computer (AGC) for Apollo 10.
000008:                                                                                                  ##              The code has been recreated from a copy of Comanche 055. It
000009:                                                                                                  ##              has been adapted such that the resulting bugger words
000010:                                                                                                  ##              exactly match those specified for Comanche 44 in NASA drawing
000011:                                                                                                  ##              2021153D, which gives relatively high confidence that the
000012:                                                                                                  ##              reconstruction is correct.
000013:                                                                                                  ## Assembler:   yaYUL
000014:                                                                                                  ## Contact:     Ron Burkey <info@sandroid.org>.
000015:                                                                                                  ## Website:     www.ibiblio.org/apollo/index.html
000016:                                                                                                  ## Mod history: 2020-12-03 MAS  Created from Comanche 51. Changed constants
000017:                                                                                                  ##                              to match the 1968-1969 values in Colossus 294.
000018:


000020:                                                                                                  #  ..... RP-TO-R SUBROUTINE .....
000021:                                                                                                  #  SUBROUTINE TO CONVERT RP (VECTOR IN PLANETARY COORDINATE SYSTEM, EITHER
000022:                                                                                                  #  EARTH-FIXED OR MOON-FIXED) TO R (SAME VECTOR IN THE BASIC REF. SYSTEM)
000023:                                                                                                  #        R = MT(T) * (RP + LP X RP)      MT = M MATRIX TRANSPOSE
000024:
000025:                                                                                                  #  CALLING SEQUENCE
000026:                                                                                                  #        L       CALL
000027:                                                                                                  #        L+1             RP-TO-R
000028:
000029:                                                                                                  #  SUBROUTINES USED
000030:                                                                                                  #        EARTHMX, MOONMX, EARTHL
000031:
000032:                                                                                                  #        ITEMS AVAILABLE FROM LAUNCH DATA
000033:                                                                                                  #                504LM = THE LIBRATION VECTOR L OF THE MOON AT TIME TIMSUBL, EXPRESSED
000034:                                                                                                  #                IN THE MOON-FIXED COORD. SYSTEM         RADIANS B0
000035:
000036:                                                                                                  #        ITEMS NECESSARY FOR SUBR. USED (SEE DESCRIPTION OF SUBR.)
000037:
000038:                                                                                                  #  INPUT
000039:                                                                                                  #        MPAC = 0 FOR EARTH, NON-ZERO FOR MOON
000040:                                                                                                  #        0-5D = RP VECTOR
000041:                                                                                                  #        6-7D = TIME
000042:
000043:                                                                                                  #  OUTPUT
000044:                                                                                                  #        MPAC = R VECTOR METERS B-29 FOR EARTH, B-27 FOR MOON
000045:
000046: 26,2000                                           SETLOC   PLANTIN
000047: 26,2000                                           BANK
000048:
000049: 26,3344                                           COUNT*   $$/LUROT
000050:
000051: 26,3344           46020        RP-TO-R            STQ      BHIZ
000052: 26,3345           00050                                    RPREXIT
000053: 26,3346           55361                                    RPTORA
000054: 26,3347           77624                           CALL                                           #  COMPUTE M MATRIX FOR MOON
000055: 26,3350           55421                                    MOONMX                                #  LP=LM FOR MOON        RADIANS B0
000056: 26,3351           77775                           VLOAD
000057: 26,3352           02012                                    504LM
000058: 26,3353           53235        RPTORB             VXV      VAD
000059: 26,3354           00001                                    504RPR
000060: 26,3355           00001                                    504RPR
000061: 26,3356           52105                           VXM      GOTO
000062: 26,3357           00025                                    MMATRIX                               #  MPAC=R=MT(T)*(RP+LPXRP)
000063: 26,3360           55407                                    RPRPXXXX                              #  RESET PUSHLOC TO 0 BEFORE EXITING
000064: 26,3361           77624        RPTORA             CALL                                           #  EARTH COMPUTATIONS
000065: 26,3362           55573                                    EARTHMX                               #  M MATRIX B-1
000066: 26,3363           77624                           CALL
000067: 26,3364           55625                                    EARTHL                                #  L VECTOR RADIANS B0
000068: 26,3365           76521                           MXV      VSL1                                  #  LP=M(T)*L     RAD B-0
000069: 26,3366           00025                                    MMATRIX


000071: 26,3367           77650                           GOTO
000072: 26,3370           55353                                    RPTORB
000073:


000075:                                                                                                  #  ..... R-TO-RP SUBROUTINE .....
000076:                                                                                                  #  SUBROUTINE TO CONVERT R (VECTOR IN REFERENCE COORD. SYSTEM) TO RP
000077:                                                                                                  #  (VECTOR IN PLANETARY COORD SYSTEM) EITHER EARTH-FIXED OR MOON-FIXED
000078:                                                                                                  #        RP = M(T) * (R - L X R)
000079:
000080:                                                                                                  #  CALLING SEQUENCE
000081:                                                                                                  #        L       CALL
000082:                                                                                                  #        L+1             R-TO-RP
000083:
000084:                                                                                                  #  SUBROUTINES USED
000085:                                                                                                  #        EARTHMX, MOONMX, EARTHL
000086:
000087:                                                                                                  #  INPUT
000088:                                                                                                  #        MPAC = 0 FOR EARTH, NON-ZERO FOR MOON
000089:                                                                                                  #        0-5D = R VECTOR
000090:                                                                                                  #        6-7D = TIME
000091:
000092:                                                                                                  #        ITEMS AVAILABLE FROM LAUNCH DATA
000093:                                                                                                  #                504LM = THE LIBRATION VECTOR L OF THE MOON AT TIME TIMSUBL, EXPRESSED
000094:                                                                                                  #                IN THE MOON-FIXED COORD. SYSTEM                 RADIANS B0
000095:
000096:                                                                                                  #        ITEMS NECESSARY FOR SUBROUTINES USED (SEE DESCRIPTION OF SUBR.)
000097:
000098:                                                                                                  #  OUTPUT
000099:                                                                                                  #        MPAC = RP VECTOR METERS B-29 FOR EARTH, B-27 FOR MOON
000100:
000101: 26,3371           46020        R-TO-RP            STQ      BHIZ
000102: 26,3372           00050                                    RPREXIT
000103: 26,3373           55413                                    RTORPA
000104: 26,3374           77624                           CALL
000105: 26,3375           55421                                    MOONMX
000106: 26,3376           61375                           VLOAD    VXM
000107: 26,3377           02012                                    504LM                                 #  LP=LM
000108: 26,3400           00025                                    MMATRIX
000109: 26,3401           77772                           VSL1                                           #  L = MT(T)*LP          RADIANS B0
000110: 26,3402           51235        RTORPB             VXV      BVSU
000111: 26,3403           00001                                    504RPR
000112: 26,3404           00001                                    504RPR
000113: 26,3405           77721                           MXV                                            #  M(T)*(R-LXR)          B-2
000114: 26,3406           00025                                    MMATRIX
000115: 26,3407           40372        RPRPXXXX           VSL1     SETPD
000116: 26,3410           00001                                    0D
000117: 26,3411           77650                           GOTO
000118: 26,3412           00050                                    RPREXIT
000119: 26,3413           77624        RTORPA             CALL                                           #  EARTH COMPUTATIONS
000120: 26,3414           55573                                    EARTHMX
000121: 26,3415           77624                           CALL
000122: 26,3416           55625                                    EARTHL
000123: 26,3417           77650                           GOTO                                           #  MPAC=L=(-AX,-AY,0)    RAD B-0
000124: 26,3420           55402                                    RTORPB
000125:


000127:                                                                                                  #  ..... MOONMX SUBROUTINE .....
000128:                                                                                                  #  SUBROUTINE TO COMPUTE THE TRANSFORMATION MATRIX M FOR THE MOON
000129:
000130:                                                                                                  #  CALLING SEQUENCE
000131:                                                                                                  #        L       CALL
000132:                                                                                                  #        L+1             MOONMX
000133:
000134:                                                                                                  #  SUBROUTINES USED
000135:                                                                                                  #        NEWANGLE
000136:
000137:                                                                                                  #  INPUT
000138:                                                                                                  #        6-7D = TIME
000139:
000140:                                                                                                  #        ITEMS AVAILABLE FROM LAUNCH DATA
000141:                                                                                                  #                BSUBO, BDOT
000142:                                                                                                  #                TIMSUBO, NODIO, NODDOT, FSUBO, FDOT
000143:                                                                                                  #                COSI = COS(I)   B-1
000144:                                                                                                  #                SINI = SIN(I)   B-1
000145:                                                                                                  #                I IS THE ANGLE BETWEEN THE MEAN LUNAR EQUATORIAL PLANE AND THE
000146:                                                                                                  #                PLANE OF THE ECLIPTIC (1 DEGREE 32.1 MINUTES)
000147:
000148:                                                                                                  #  OUTPUT
000149:                                                                                                  #        MMATRIX = 3X3 M MATRIX          B-1 (STORED IN VAC AREA)
000150:
000151: 26,3421           40220        MOONMX             STQ      SETPD
000152: 26,3422           00051                                    EARTHMXX
000153: 26,3423           00011                                    8D
000154: 26,3424           77770                           AXT,1                                          #  B REQUIRES SL 0, SL 5 IN NEWANGLE
000155: 26,3425           00005                                    5
000156: 26,3426           65345                           DLOAD    PDDL                                  #  PD 10D        8-9D=BSUBO
000157: 26,3427           15655                                    BSUBO                                 #                10-11D=BDOT
000158: 26,3430           15647                                    BDOT
000159: 26,3431           45006                           PUSH     CALL                                  #  PD 12D
000160: 26,3432           55546                                    NEWANGLE                              #  EXIT WITH PD 8D AND MPAC= B   REVS B0
000161: 26,3433           71406                           PUSH     COS                                   #  PD 10D
000162: 26,3434           14041                           STODL    COB                                   #  PD 8D         COS(B) B-1
000163: 26,3435           77756                           SIN                                            #                SIN(B) B-1
000164: 26,3436           14043                           STODL    SOB                                   #                SETUP INPUT FOR NEWANGLE
000165: 26,3437           15653                                    FSUBO                                 #                        8-9D=FSUBO
000166: 26,3440           41525                           PDDL     PUSH                                  #  PD 10D THEN 12D       10-11D=FDOT
000167: 26,3441           15645                                    FDOT
000168: 26,3442           45170                           AXT,1    CALL                                  #  F REQUIRES SL 1, SL 6 IN NEWANGLE
000169: 26,3443           00004                                    4
000170: 26,3444           55546                                    NEWANGLE                              #  EXIT WITH PD 8D AND MPAC= F REVS B0
000171: 26,3445           14027                           STODL    AVECTR     +2                         #  SAVE F TEMP
000172: 26,3446           15651                                    NODIO                                 #                        8-9D=NODIO
000173: 26,3447           41525                           PDDL     PUSH                                  #  PD 10D THEN 12D       10-11D=NODDOT
000174: 26,3450           15643                                    NODDOT                                #                        MPAC=T
000175: 26,3451           45170                           AXT,1    CALL                                  #  NODE REQUIRES SL 0, SL 5 IN NEWANGLE
000176: 26,3452           00005                                    5
000177: 26,3453           55546                                    NEWANGLE                              #  EXIT WITH PD 8D AND MPAC= NODI REVS B0


000179: 26,3454           71406                           PUSH     COS                                   #  PD 10D        8-9D= NODI REVS B0
000180: 26,3455           77606                           PUSH                                           #  PD 12D        10-11D= COS(NODI) B-1
000181: 26,3456           00025                           STORE    AVECTR
000182: 26,3457           76405                           DMP      SL1R
000183: 26,3460           00041                                    COB                                   #                        COS(NODI) B-1
000184: 26,3461           14035                           STODL    BVECTR     +2                         #  PD 10D  20-25D=AVECTR=COB*SIN(NODI)
000185: 26,3462           76405                           DMP      SL1R                                  #                        SOB*SIN(NODI)
000186: 26,3463           00043                                    SOB
000187: 26,3464           14037                           STODL    BVECTR     +4                         #  PD 8D
000188: 26,3465           41556                           SIN      PUSH                                  #  PD 10D                -SIN(NODI) B-1
000189: 26,3466           77676                           DCOMP                                          #          26-31D=BVECTR=COB*COS(NODI)
000190: 26,3467           14033                           STODL    BVECTR                                #  PD 8D                 SOB*COS(NODI)
000191: 26,3470           00027                                    AVECTR     +2                         #  MOVE F FROM TEMP LOC. TO 504F
000192: 26,3471           14007                           STODL    504F
000193: 26,3472           76405                           DMP      SL1R
000194: 26,3473           00041                                    COB
000195: 26,3474           14027                           STODL    AVECTR     +2
000196: 26,3475           00011                                    SINNODI                               #  8-9D=SIN(NODI) B-1
000197: 26,3476           76405                           DMP      SL1R
000198: 26,3477           00043                                    SOB
000199: 26,3500           14031                           STODL    AVECTR     +4                         #                        0
000200: 26,3501           15335                                    HI6ZEROS                              #        8-13D= CVECTR=  -SOB B-1
000201: 26,3502           57525                           PDDL     DCOMP                                 #  PD 10D                COB
000202: 26,3503           00043                                    SOB
000203: 26,3504           63325                           PDDL     PDVL                                  #  PD 12D THEN PD 14D
000204: 26,3505           00041                                    COB
000205: 26,3506           00033                                    BVECTR
000206: 26,3507           63361                           VXSC     PDVL                                  #  PD 20D        BVECTR*SINI B-2
000207: 26,3510           15641                                    SINI
000208: 26,3511           00011                                    CVECTR
000209: 26,3512           53361                           VXSC     VAD                                   #  PD 14D        CVECTR*COSI B-2
000210: 26,3513           15637                                    COSI
000211: 26,3514           77772                           VSL1
000212: 26,3515           24041                           STOVL    MMATRIX    +12D                       #  PD 8D  M2=BVECTR*SINI+CVECTR*COSI B-1
000213: 26,3516           63361                           VXSC     PDVL                                  #  PD 14D
000214: 26,3517           15641                                    SINI                                  #                CVECTR*SINI B-2
000215: 26,3520           00033                                    BVECTR
000216: 26,3521           52361                           VXSC     VSU                                   #  PD 8D         BVECTR*COSI B-2
000217: 26,3522           15637                                    COSI
000218: 26,3523           65372                           VSL1     PDDL                                  #  PD 14D
000219: 26,3524           00007                                    504F                                  #  8-13D=DVECTR=BVECTR*COSI-CVECTR*SINI B-1
000220: 26,3525           74346                           COS      VXSC
000221: 26,3526           00011                                    DVECTR
000222: 26,3527           73525                           PDDL     SIN                                   #  PD 20D  14-19D= DVECTR*COSF B-2
000223: 26,3530           00007                                    504F
000224: 26,3531           52361                           VXSC     VSU                                   #  PD 14D        AVECTR*SINF B-2
000225: 26,3532           00025                                    AVECTR
000226: 26,3533           77772                           VSL1
000227: 26,3534           14033                           STODL    MMATRIX    +6                         #  M1= AVECTR*SINF-DVECTR*COSF B-1
000228: 26,3535           00007                                    504F


000230: 26,3536           74356                           SIN      VXSC                                  #  PD 8D
000231: 26,3537           71525                           PDDL     COS                                   #  PD 14D  8-13D=DVECTR*SINF B-2
000232: 26,3540           00007                                    504F
000233: 26,3541           53361                           VXSC     VAD                                   #  PD 8D         AVECTR*COSF B-2
000234: 26,3542           00025                                    AVECTR
000235: 26,3543           57572                           VSL1     VCOMP
000236: 26,3544           34025                           STCALL   MMATRIX                               #  M0= -(AVECTR*COSF+DVECTR*SINF) B-1
000237: 26,3545           00051                                    EARTHMXX
000238:
000239:                                                                                                  #  COMPUTE X=X0+(XDOT)(T+T0)
000240:                                                                                                  #  8-9D= XO (REVS B-0), PUSHLOC SET AT 12D
000241:                                                                                                  #  10-11D=XDOT (REVS/CSEC) SCALED B+23 FOR WEARTH,B+28 FOR NODDOT AND BDOT
000242:                                                                                                  #                        AND B+27 FOR FDOT
000243:                                                                                                  #  X1=DIFFERENCE IN 23 AND SCALING OF XDOT, =0 FOR WEARTH, 5 FOR NODDOT AND
000244:                                                                                                  #                                        BDOT AND 4 FOR FDOT
000245:                                                                                                  #  6-7D=T (CSEC B-28), TIMSUBO= (CSEC B-42 TRIPLE PREC.)
000246:
000247: 26,3546           54345        NEWANGLE           DLOAD    SR                                    #  ENTER PD 12D
000248: 26,3547           00007                                    6D
000249: 26,3550           20617                                    14D
000250: 26,3551           72371                           TAD      TLOAD                                 #  CHANGE MODE TO TP
000251: 26,3552           01707                                    TIMSUBO
000252: 26,3553           00155                                    MPAC
000253: 26,3554           14017                           STODL    TIMSUBM                               #  T+T0 CSEC B-42
000254: 26,3555           00020                                    TIMSUBM    +1
000255: 26,3556           77605                           DMP                                            #  PD 10D        MULT BY XDOT IN 10-11D
000256: 26,3557           43257                           SL*      DAD                                   #  PD 8D         ADD XO IN 8-9D AFTER SHIFTING
000257: 26,3560           20206                                    5,1                                   #                SUCH THAT SCALING IS B-0
000258: 26,3561           67206                           PUSH     SLOAD                                 #  PD 10D  SAVE PARTIAL (X0+XDOT*T) IN 8-9D
000259: 26,3562           00017                                    TIMSUBM
000260: 26,3563           41261                           SL       DMP
000261: 26,3564           20212                                    9D
000262: 26,3565           00013                                    10D                                   #  XDOT
000263: 26,3566           43257                           SL*      DAD                                   #  PD 8D         SHIFT SUCH THAT THIS PART OF X
000264: 26,3567           20213                                    10D,1                                 #                IS SCALED REVS/CSEC B-0
000265: 26,3570           77600                           BOV                                            #  TURN OFF OVERFLOW IF SET BY SHIFT
000266: 26,3571           55572                                    +1                                    #  INSTRUCTION BEFORE EXITING
000267: 26,3572           77616                           RVQ                                            #  MPAC=X= X0+(XDOT)(T+T0)       REVS B0
000268:


000270:                                                                                                  #  ..... EARTHMX SUBROUTINE .....
000271:                                                                                                  #  SUBROUTINE TO COMPUTE THE TRANSFORMATION MATRIX M FOR THE EARTH
000272:
000273:                                                                                                  #  CALLING SEQUENCE
000274:                                                                                                  #        L       CALL
000275:                                                                                                  #        L+1             EARTHMX
000276:
000277:                                                                                                  #  SUBROUTINES USED
000278:                                                                                                  #        NEWANGLE
000279:
000280:                                                                                                  #  INPUT
000281:                                                                                                  #        INPUT AVAILABLE FROM LAUNCH DATA        AZO REVS B-0
000282:                                                                                                  #                                                TEPHEM CSEC B-42
000283:                                                                                                  #        6-7D= TIME CSEC B-28
000284:
000285:                                                                                                  #  OUTPUT
000286:                                                                                                  #        MMATRIX= 3X3 M MATRIX B-1 (STORED IN VAC AREA)
000287:
000288: 26,3573           40220        EARTHMX            STQ      SETPD                                 #  SET 8-9D=AZO
000289: 26,3574           00051                                    EARTHMXX
000290: 26,3575           00011                                    8D                                    #  10-11D=WEARTH
000291: 26,3576           77770                           AXT,1                                          #  FOR SL 5, AND SL 10 IN NEWANGLE
000292: 26,3577           00000                                    0
000293: 26,3600           65345                           DLOAD    PDDL                                  #  LEAVING PD SET AT 12D FOR NEWANGLE
000294: 26,3601           01712                                    AZO
000295: 26,3602           15657                                    WEARTH
000296: 26,3603           45006                           PUSH     CALL
000297: 26,3604           55546                                    NEWANGLE
000298: 26,3605           41401                           SETPD    PUSH                                  #  18-19D=504AZ
000299: 26,3606           00023                                    18D                                   #                         COS(AZ)   SIN(AZ)     0
000300: 26,3607           65346                           COS      PDDL                                  #  20-37D=  MMATRIX=     -SIN(AZ)   COS(AZ)     0    B-1
000301: 26,3610           00023                                    504AZ                                 #                            0         0        1
000302: 26,3611           65356                           SIN      PDDL
000303: 26,3612           15335                                    HI6ZEROS
000304: 26,3613           73525                           PDDL     SIN
000305: 26,3614           00023                                    504AZ
000306: 26,3615           65276                           DCOMP    PDDL
000307: 26,3616           00023                                    504AZ
000308: 26,3617           63346                           COS      PDVL
000309: 26,3620           15335                                    HI6ZEROS
000310: 26,3621           41525                           PDDL     PUSH
000311: 26,3622           15333                                    HIDPHALF
000312: 26,3623           77650                           GOTO
000313: 26,3624           00051                                    EARTHMXX
000314:


000316:                                                                                                  #  ..... EARTHL SUBROUTINE .....
000317:                                                                                                  #  SUBROUTINE TO COMPUTE L VECTOR FOR EARTH
000318:
000319:                                                                                                  #  CALLING SEQUENCE
000320:                                                                                                  #        L       CALL
000321:                                                                                                  #        L+1             EARTHL
000322:
000323:                                                                                                  #  INPUT
000324:                                                                                                  #        AXO,AYO SET AT LAUNCH TIME WITH AYO IMMEDIATELY FOLLOWING AXO IN CORE
000325:
000326:                                                                                                  #  OUTPUT
000327:                                                                                                  #                -AX
000328:                                                                                                  #        MPAC=   -AY     RADIANS B-0
000329:                                                                                                  #                  0
000330:
000331: 26,3625           57545        EARTHL             DLOAD    DCOMP
000332: 26,3626           01716                                    AXO
000333: 26,3627           14017                           STODL    504LPL
000334: 26,3630           01714                                    -AYO
000335: 26,3631           14021                           STODL    504LPL     +2
000336: 26,3632           15335                                    HI6ZEROS
000337: 26,3633           24023                           STOVL    504LPL     +4
000338: 26,3634           00017                                    504LPL
000339: 26,3635           77616                           RVQ
000340:


000342:                                                                                                  #  CONSTANTS AND ERASABLE ASSIGNMENTS
000343:
000344: 26,3636  04,3560               1B1                =        DP1/2                                 #  1 SCALED B-1
000345: 26,3636           17775 01734  COSI               2DEC     .99964115  B-1                        #  COS(1 DEG 32.1 MIN) B-1
000346:
000347: 26,3640           00333 16153  SINI               2DEC     .02678760  B-1                        #  SIN(1 DEG 32.1 MIN) B-1
000348:
000349: 26,3642  0000050               RPREXIT            =        S1                                    #  R-TO-RP AND RP-TO-R SUBR EXIT
000350: 26,3642  0000051               EARTHMXX           =        S2                                    #  EARTHMX, MOONMX SUBR. EXITS
000351: 26,3642                        504RPR             =        0D                                    #  6 REGS        R OR RP VECTOR
000352: 26,3642                        SINNODI            =        8D                                    #  2             SIN(NODI)
000353: 26,3642                        DVECTR             =        8D                                    #  6             D VECTOR MOON
000354: 26,3642                        CVECTR             =        8D                                    #  6             C VECTR MOON
000355: 26,3642                        504AZ              =        18D                                   #  2             AZ
000356: 26,3642                        TIMSUBM            =        14D                                   #  3             TIME SUB M (MOON) T+T0 IN GETAZ
000357: 26,3642                        504LPL             =        14D                                   #  6             L OR LP VECTOR
000358: 26,3642                        AVECTR             =        20D                                   #  6             A VECTOR (MOON)
000359: 26,3642                        BVECTR             =        26D                                   #  6             B VECTOR (MOON)
000360: 26,3642                        MMATRIX            =        20D                                   #  18            M MATRIX
000361: 26,3642                        COB                =        32D                                   #  2             COS(B) B-1
000362: 26,3642                        SOB                =        34D                                   #  2             SIN(B) B-1
000363: 26,3642                        504F               =        6D                                    #  2             F(MOON)
000364: 26,3642           77665 42175  NODDOT             2DEC     -.457335143 E-2                        #  REVS/CSEC B+28=-1.07047016 E-6  RAD/SEC
000365:
000366: 26,3644           22211 00265  FDOT               2DEC     .570862491                            #  REVS/CSEC B+27= 2.67240019 E-6  RAD/SEC
000367:
000368: 26,3646           77777 77767  BDOT               2DEC     -3.07500412 E-8                        #  REVS/CSEC B+28=-7.19756666 E-14 RAD/SEC
000369:
000370: 26,3650           41215 66331  NODIO              2DEC     -.960101269                            #  REVS B-0      =-6.03249419      RAD
000371:
000372: 26,3652           15237 26751  FSUBO              2DEC     .415998375                            #  REVS B-0      = 2.61379488      RAD
000373:
000374: 26,3654           02052 35713  BSUBO              2DEC     .0651205006                            #  REVS B=0      = 0.409164173     RAD
000375:
000376: 26,3656           37116 32630  WEARTH             2DEC     .973561855                            #  REVS/CSEC B+23= 7.29211515 E-5  RAD/SEC
000377:

End of include-file PLANETARY_INERTIAL_ORIENTATION.agc.  Parent file is MAIN.agc


