
Source Code


000002:                                                                                                  ## Copyright:   Public domain.
000003:                                                                                                  ## Filename:    RCS-CSM_DAP_EXECUTIVE_PROGRAMS.agc
000004:                                                                                                  ## Purpose:     A section of Comanche revision 044.
000005:                                                                                                  ##              It is part of the reconstructed source code for the
000006:                                                                                                  ##              original release of the flight software for the Command
000007:                                                                                                  ##              Module's (CM) Apollo Guidance Computer (AGC) for Apollo 10.
000008:                                                                                                  ##              The code has been recreated from a copy of Comanche 055. It
000009:                                                                                                  ##              has been adapted such that the resulting bugger words
000010:                                                                                                  ##              exactly match those specified for Comanche 44 in NASA drawing
000011:                                                                                                  ##              2021153D, which gives relatively high confidence that the
000012:                                                                                                  ##              reconstruction is correct.
000013:                                                                                                  ## Assembler:   yaYUL
000014:                                                                                                  ## Contact:     Ron Burkey <info@sandroid.org>.
000015:                                                                                                  ## Website:     www.ibiblio.org/apollo/index.html
000016:                                                                                                  ## Mod history: 2020-12-03 MAS  Created from Comanche 51.
000017:


000019:                                                                                                  #  CALCULATION OF  AMGB, AMBG  ONCE EVERY SECOND
000020:
000021:                                                                                                  #        AMGB =  1       SIN(PSI)                0
000022:                                                                                                  #                0       COS(PSI)COS(PHI)        SIN(PHI)
000023:                                                                                                  #                0       -COS(PSI)SIN(PHI)       COS(PHI)
000024:
000025:                                                                                                  #        AMBG =  1       -TAN(PSI)COS(PHI)       TAN(PSI)SIN(PHI)
000026:                                                                                                  #                0       COS(PHI)/COS(PSI)       -SIN(PHI)/COS(PSI)
000027:                                                                                                  #                0       SIN(PHI)                COS(PHI)
000028:
000029:                                                                                                  #  WHERE PHI AND PSI ARE CDU ANGLES
000030:
000031: 20,3612                                           BANK     20
000032: 22,2000                                           SETLOC   DAPS8
000033: 22,2000                                           BANK
000034:
000035: 22,3447                                           COUNT*   $$/DAPEX
000036: 22,3447  E6,1510                                  EBANK=   KMPAC
000037: 22,3447           30102        AMBGUPDT           CA       FLAGWRD6                              #  CHECK FOR RCS AUTOPILOT
000038: 22,3450           00006                           EXTEND
000039: 22,3451           65217                           BZMF     ENDOFJOB                              #  BIT15 = 0, BIT14 = 1
000040: 22,3452           75002                           MASK     BIT14                                 #  IF NOT RCS, EXIT
000041: 22,3453           00006                           EXTEND
000042: 22,3454           15217                           BZF      ENDOFJOB                              #  TO PROTECT TVC DAP ON SWITCHOVER
000043:
000044: 22,3455           30034                           CA       CDUZ
000045: 22,3456           05075                           TC       SPSIN2
000046: 22,3457           55640                           TS       AMGB1                                 #  CALCULATE AMGB
000047: 22,3460           30034                           CA       CDUZ
000048: 22,3461           05074                           TC       SPCOS2
000049: 22,3462           55645                           TS       CAPSI                                 #  MUST CHECK FOR GIMBAL LOCK
000050: 22,3463           33507                           CAF      QUADANGL                              #  = 7.25  DEGREES JET QUAD ANGULAR OFFSET
000051: 22,3464           00006                           EXTEND
000052: 22,3465           20032                           MSU      CDUX
000053: 22,3466           40000                           COM                                            #  CDUX - 7.25 DEG
000054: 22,3467           05074                           TC       SPCOS1
000055: 22,3470           55644                           TS       AMGB8
000056: 22,3471           00006                           EXTEND
000057: 22,3472           71645                           MP       CAPSI
000058: 22,3473           55641                           TS       AMGB4
000059: 22,3474           33507                           CAF      QUADANGL
000060: 22,3475           00006                           EXTEND
000061: 22,3476           20032                           MSU      CDUX
000062: 22,3477           40000                           COM                                            #  CDUX - 7.25 DEG
000063: 22,3500           05075                           TC       SPSIN1
000064: 22,3501           55642                           TS       AMGB5
000065: 22,3502           00006                           EXTEND
000066: 22,3503           71645                           MP       CAPSI
000067: 22,3504           40000                           COM


000069: 22,3505           55643                           TS       AMGB7
000070: 22,3506           15217                           TCF      ENDOFJOB
000071: 22,3507           01224        QUADANGL           DEC      660        B-14                       #  = 7.25 DEGREES
000072:

End of include-file RCS-CSM_DAP_EXECUTIVE_PROGRAMS.agc.  Parent file is MAIN.agc


