
Source Code


000002:                                                                                                  ## Copyright:   Public domain.
000003:                                                                                                  ## Filename:    SERVICER207.agc
000004:                                                                                                  ## Purpose:     A section of Comanche revision 044.
000005:                                                                                                  ##              It is part of the reconstructed source code for the
000006:                                                                                                  ##              original release of the flight software for the Command
000007:                                                                                                  ##              Module's (CM) Apollo Guidance Computer (AGC) for Apollo 10.
000008:                                                                                                  ##              The code has been recreated from a copy of Comanche 055. It
000009:                                                                                                  ##              has been adapted such that the resulting bugger words
000010:                                                                                                  ##              exactly match those specified for Comanche 44 in NASA drawing
000011:                                                                                                  ##              2021153D, which gives relatively high confidence that the
000012:                                                                                                  ##              reconstruction is correct.
000013:                                                                                                  ## Assembler:   yaYUL
000014:                                                                                                  ## Contact:     Ron Burkey <info@sandroid.org>.
000015:                                                                                                  ## Website:     www.ibiblio.org/apollo/index.html
000016:                                                                                                  ## Mod history: 2020-12-03 MAS  Created from Comanche 51.
000017:


000019:                                                                                                  #  PROGRAM NAME -        PREREAD, READACCS, SERVICER, AVERAGE G.
000020:                                                                                                  #  MOD NO. 00 BY M. HAMILTON     DEC. 12, 1966
000021:
000022:                                                                                                  #  FUNCTIONAL DESCRIPTION
000023:
000024:                                                                                                  #  THE ROUTINES DESCRIBED BELOW ARE USED TO CALCULATE VALUES OF RN, VN, AND GDT/2 DURING ACCELERATED FLIGHT.
000025:                                                                                                  #  THE SEVERAL ROUTINES COMPRISE A PACKAGE AND ARE NOT MEANT TO BE USED AS SEPARATE SUBROUTINES.
000026:
000027:                                                                                                  #  GENERAL REFERENCES TO  SERVICER  OR  AVERAGE G  ARE UNDERSTOOD TO REFER TO THE ENTIRE SET OF ROUTINES INCLUDING
000028:                                                                                                  #  READACCS, SERVICER, AVERAGE G, INTEREAD, SMOOTHER, AND ANY ADDITIONAL ROUTINES ATTACHED AT AVGEXIT (SEE BELOW).
000029:
000030:                                                                                                  #  PROGRAMS INITIATING SERVICER ARE REQUIRED TO MAKE A WAITLIST CALL FOR PREREAD (OR, IF LIFTOFF, FOR BIBIBIAS)
000031:                                                                                                  #  AT 2 SECONDS BEFORE THE FIRST AVERAGE G UPDATE IN ORDER TO INITIALIZE THE SEQUENCE, WHICH WILL RECUR EVERY
000032:                                                                                                  #  2 SECONDS FROM THAT TIME ON AS LONG AS AVEGFLAG REMAINS SET.
000033:
000034:                                                                                                  #  THE USE OF ERASABLE AVGEXIT ALLOWS VARIOUS ROUTINES TO BE PERFORMED AS PART OF THE NORMAL CYCLE (SEE
000035:                                                                                                  #  EXPLANATION OF AVGEXIT BELOW).
000036:
000037:                                                                                                  #  DESCRIPTIONS OF INDIVIDUAL ROUTINES FOLLOW.
000038:
000039:                                                                                                  #        PREREAD
000040:
000041:                                                                                                  #                PREVIOUSLY EXTRAPOLATED VALUES COPIED FROM RN1, VN1, AND PIPTIME1 INTO RN, VN, AND PIPTIME.
000042:                                                                                                  #                LASTBIAS JOB SCHEDULED.
000043:                                                                                                  #                PIPS READ AND CLEARED VIA PIPASR SUBROUTINE.
000044:                                                                                                  #                AVERAGE G FLAG SET ON.
000045:                                                                                                  #                DRIFT FLAG SET OFF.
000046:                                                                                                  #                V37 FLAG SET ON.
000047:                                                                                                  #                INITIALIZATION OF       1) THRUST MONITOR (DVMON) - DVCNTR SET TO ONE.
000048:                                                                                                  #                                        2) TOTAL ACCUMULATED DELV VALUE (DVTOTAL) - SET TO ZERO.
000049:                                                                                                  #                                        3) AXIS VECTOR (AXIS) - SET TO (.5,0,0).
000050:                                                                                                  #                NORMLIZE JOB SCHEDULED.
000051:                                                                                                  #                READACCS TASK CALLED IN 2 SECONDS.
000052:
000053:                                                                                                  #        NORMLIZE
000054:
000055:                                                                                                  #                GDT/2 INITIALIZED VIA CALCGRAV SUBROUTINE.
000056:
000057:                                                                                                  #        READACCS
000058:
000059:                                                                                                  #                IF ONMON FLAG SET QUIKREAD ROUTINE IS PERFORMED BEFORE PIPASR ZEROS THE PIPA REGISTERS, AND THE 1/2 SEC
000060:                                                                                                  #                ONMONITOR LOOP IS INITIATED TO PROVIDE DOWNLINK INFORMATION DURING ENTRY.
000061:                                                                                                  #                PIPS READ AND CLEARED BY PIPASR SUBROUTINE.
000062:                                                                                                  #                IF CM/DSTBY IS ON, ENTRY VARIABLES INITIALIZED AND SETJTAG TASK CALLED.


000064:
000065:                                                                                                  #                IF AVERAGEG FLAG ON     READACCS CALLED TO RECYCLE IN 2 SECONDS.
000066:                                                                                                  #                IF AVERAGEG FLAG OFF    AVERAGE G EXIT (AVGEXIT) SET TO 2CADR AVGEND FOR FINAL PASS.
000067:                                                                                                  #                SERVICER JOB SCHEDULED.
000068:                                                                                                  #                TEST CONNECTOR OUTBIT TURNED ON.
000069:
000070:                                                                                                  #        ONMNITOR
000071:
000072:                                                                                                  #                A SEQUENCE OF THREE PASSES THROUGH QUICKREAD FOLLOWING A CALL TO READACCS WITH ONMONFLG SET AT 1/2
000073:                                                                                                  #                SEC INTERVALS.  INTERVALS ARE COUNTED OUT BY PIPCTR, INITIALISED AT 3 BY READACCS
000074:
000075:                                                                                                  #        QUIKREAD
000076:
000077:                                                                                                  #                READS CURRENT PIPS INTO X,Y,ZPIPBUF.  READS OLD X,Y,ZPIPBUF INTO X,Y,ZOLDBUF.  VALUES ARE SENT TO
000078:                                                                                                  #                DOWNLIST DURING ENTRY.
000079:
000080:                                                                                                  #        SERVICER
000081:
000082:                                                                                                  #                DELV VALUES CHECKED TO DETECT RUNAWAY PIP -
000083:                                                                                                  #                        IF BAD PIP      1) ALARM SENT.
000084:                                                                                                  #                                        2) COMPENSATION, DVTOTAL ACCUMULATION, AND DVMON BYPASSED.  CONTROL
000085:                                                                                                  #                                           TRANSFERRED TO AVERAGE G.
000086:                                                                                                  #                PIPS COMPENSATED VIA 1/PIPA SUBROUTINE.
000087:                                                                                                  #                DVTOTAL INCREMENTED BY ABSOLUTE VALUE OF DELV.
000088:                                                                                                  #                THRUST MONITOR (DVMON) PERFORMED UNLESS IDLE FLAG IS ON.
000089:                                                                                                  #                CONTROL TRANSFERRED TO AVERAGE G.
000090:
000091:                                                                                                  #        DVMON
000092:
000093:                                                                                                  #                THRESHOLD VALUE (PLACED IN DVTHRUSH BY USER) CHECKED AGAINST ABSOLUTE VALUE OF DELV TO CHECK
000094:                                                                                                  #                THRUST LEVEL.
000095:
000096:                                                                                                  #                        IF THRUST       1) ULLAGE OFF ROUTINE PERFORMED.
000097:                                                                                                  #                                        2) STEERING FLAG TURNED ON AT FIRST DETECTION OF THRUST.
000098:                                                                                                  #                                        3) CONTROL TRANSFERRED TO AVERAGE G.
000099:                                                                                                  #                        IF NO THRUST    1) ON FIRST PASS THROUGH MONITOR, CONTROL TRANSFERRED TO AVERAGE G.
000100:                                                                                                  #                                        2) ON SUBSEQUENT PASSES, CONTROL TRANSFERRED TO ENGINE FAIL ROUTINE IF THRUST
000101:                                                                                                  #                                           HAS FAILED FOR 3 CONSECUTIVE PASSES.
000102:
000103:                                                                                                  #        ENGINE FAIL
000104:
000105:                                                                                                  #                ENGFAIL1 TASK CALLED IN 2.5 SECONDS.  THIS WILL RETURN CONTROL TO TIG-5 SO THAT THE IGNITION
000106:                                                                                                  #                        SEQUENCE MAY BE REPEATED.
000107:                                                                                                  #                ENGINOF3 PERFORMED.
000108:                                                                                                  #                DAP SET UP FOR RCS.
000109:                                                                                                  #
000110:                                                                                                  #        AVERAGE G


000112:                                                                                                  #                RN1, VN1, GDT1/2 CALCULATED VIA CALCRVG ROUTINE BY UPDATING RN, VN WITH DELV AND AN AVERAGED VALUE
000113:                                                                                                  #                        OF GDT/2.
000114:                                                                                                  #                RN1, VN1, GDT1/2, PIPTIME1 COPIED INTO RN, VN, GDT/2, PIPTIME FOR RESTART PROTECTION.
000115:                                                                                                  #                CONTROL TRANSFERRED TO ADDRESS SPECIFIED BY USER (OR BY READACCS FOR LAST PASS) IN AVGEXIT.
000116:                                                                                                  #                LAST PASS (AVGEND)      1) FREE FALL GYRO COMPENSATION SET UP.
000117:                                                                                                  #                                        2) DRIFT FLAG TURNED ON.
000118:                                                                                                  #                                        3) STATE VECTOR TRANSFERRED VIA AVETOMID ROUTINE.
000119:                                                                                                  #                                        4) ONMONITOR FLAG RESET.
000120:                                                                                                  #                                        5) V37 FLAG RESET.
000121:                                                                                                  #                                        6) TEST CONNECTOR OUTBIT RESET.
000122:                                                                                                  #                                        7) CONTROL TRANSFERRED TO CANV37 TO CONTINUE MM CHANGE ROUTINE (R00).
000123:
000124:                                                                                                  #  CALLING SEQUENCE
000125:
000126:                                                                                                  #        PREREAD ENTERED DIRECTLY FROM TIG-30 VIA POSTJUMP.
000127:                                                                                                  #        READACCS CALLED AS WAITLIST TASK.                                          .
000128:
000129:                                                                                                  #  SUBROUTINES CALLED
000130:
000131:                                                                                                  #        UTILITY ROUTINES - PHASCHNG FLAGUP FLAGDOWN NOVAC FINDVAC WAITLIST ALARM NEWPHASE 2PHSCHNG
000132:
000133:                                                                                                  #        OTHER - PIPASR 1/PIPA CALCGRAV CALCRVG AVETOMID
000134:
000135:                                                                                                  #  NORMAL EXIT MODES
000136:
000137:                                                                                                  #        ENDOFJOB        TASKOVER        CANV37
000138:
000139:                                                                                                  #        AVGEXIT -       THIS IS A DOUBLE PRECISION ERASABLE LOCATION BY WHICH CONTROL IS TRANSFERRED AT THE END
000140:                                                                                                  #                                OF EACH CYCLE OF AVERAGE G.
000141:                                                                                                  #                        THE 2CADR OF A ROUTINE TO BE PERFORMED AT THAT TIME (E.G., STEERING EQUATIONS TO BE PERFORMED
000142:                                                                                                  #                                AT 2 SECOND INTERVALS) MAY BE SET BY THE USER INTO AVGEXIT.
000143:                                                                                                  #                        ALL SUCH ROUTINES SHOULD RETURN TO SERVEXIT, WHICH IS THE NORMAL EXIT FROM AVERAGE G.
000144:
000145:                                                                                                  #        SERVEXIT -      DOES A PHASE CHANGE FOR RESTART PROTECTION AND GOES TO ENDOFJOB.
000146:                                                                                                  #                        THE 2CADR OF SERVEXIT IS SET INTO AVGEXIT BY THE USER IF NO OTHER ROUTINE (SEE ABOVE).
000147:
000148:                                                                                                  #        AVGEND -        LAST PASS OF AVERAGE G EXITS HERE, BYPASSING SPECIAL ROUTINE (SEE ABOVE UNDER READACCS).
000149:                                                                                                  #                        FINAL EXIT IS TO CANV37.                                F AVERAGE G).
000150:
000151:                                                                                                  #  OUTPUT
000152:
000153:                                                                                                  #        DVTOTAL(2)  PIPTIME(2)  XPIPBUF(2)  YPIPBUF(2)  ZPIPBUF(2)
000154:                                                                                                  #        RN(6)           REFERENCE COORD.        SCALED AT 2(+29) M/CS
000155:                                                                                                  #        VN(6)           REFERENCE COORD.        SCALED AT 2(+7) M/CS
000156:                                                                                                  #        GDT/2(6)        REFERENCE COORD.        SCALED AT 2(+7) M/CS
000157:                                                                                                  #        DELV(6)         STABLE MEMB. COORD.     SCALED AT 2(+14)*5.85*10(-4) M/CS (KPIP1 USED TO GET DV/2 AT 2(+7))


000159:                                                                                                  #        DELVREF(6)      REFERENCE COORD.        SCALED AT 2(+7) M/CS
000160:
000161:                                                                                                  #  INITIALIZATION
000162:
000163:                                                                                                  #        ONMONITOR FLAG SET BY ENTRY TO SHOW PIPBUF VALUES REQUIRED.
000164:                                                                                                  #        IDLE FLAG ON IF DVMON TO BE BYPASSED.
000165:                                                                                                  #        DVTHRUSH SET TO APPROPRIATE VALUE FOR DVMON.
000166:                                                                                                  #        AVGEXIT SET TO 2CADR OF ROUTINE, IF ANY, TO BE PERFORMED AFTER EACH CYCLE OF AVERAGE G.  IF NO ROUTINE
000167:                                                                                                  #                TO BE DONE, AVGEXIT SET TO SERVEXIT.
000168:                                                                                                  #        VALUES NEEDED
000169:                                                                                                  #                REFSMMAT
000170:                                                                                                  #                UNITW -  FULL UNIT VECTOR, IN REFERENCE COORD., OF EARTH S ROTATIONAL VECTOR
000171:                                                                                                  #                RN1, VN1, PIPTIME1 -  IN REFERENCE COORD., CONSISTENT WITH TIME OF EXECUTION OF PREREAD
000172:
000173:                                                                                                  #  DEBRIS
000174:
000175:                                                                                                  #        CENTRALS        A, L, Q
000176:                                                                                                  #        OTHER           INTERNAL - DVCNTR(1)  PIPAGE(1)  PIPCTR(1)  AVGEXIT(2)
000177:                                                                                                  #                        EXTERNAL - ITEMP1(1)  ITEMP2(1)  RUPTREG1(1)  TEMX(1)  TEMY(1)  TEMZ(1)
000178:                                                                                                  #                        USEFUL DEBRIS
000179:                                                                                                  #                                RN1(6)  VN1(6)  GDT1/2  PIPTIME1(2)
000180:                                                                                                  #                                        THESE LOCATIONS USED AS BUFFER STORAGE FOR NEWLY CALCULATED VALUES OF RN, VN, GDT/2,
000181:                                                                                                  #                                        AND PIPTIME DURING PERFORMANCE OF SERVICER ROUTINES.
000182:                                                                                                  #                                UNITR - HALF UNIT VECTOR OF RN, REFERENCE COORD.
000183:                                                                                                  #                                RMAG SCALED AT 2(+58) IN 36D.
000184:                                                                                                  #                                RMAGSQ SCALED AT 2(+58) IN 34D.
000185:                                                                                                  #                                (RE/RMAG)SQ IN 32D.
000186:
000187: 27,2671                                           BANK     27
000188: 37,2000                                           SETLOC   SERVICES
000189: 37,2000                                           BANK
000190:
000191: 37,2700  E7,1431                                  EBANK=   DVCNTR
000192:                                                                                                  #  *************************************   PREREAD   **************************************************************
000193:
000194: 37,2700                                           COUNT    37/SERV
000195:
000196: 37,2700           35073        PREREAD            CAF      PRIO21                                #  CALLER MUST PROTECT PREREAD
000197: 37,2701           05134                           TC       NOVAC
000198: 37,2702  E3,1460                                  EBANK=   NBDX
000199: 37,2702           03636 14063                     2CADR    LASTBIAS                              #  DO LAST GYRO COMPENSATION IN FREE FALL
000200:
000201:                                                                                                  #  CALL-TO AND LASTBIAS ITSELF ARE NOT
000202:                                                                                                  #        PROTECTED. REREADAC SETS 1/PIPADT
000203:                                                                                                  #        TO 2.0 SECS IN CASE LASTBIAS LOST.
000204:                                                                                                  #        (REDUNDANT IF LASTBIAS IS AOK)


000206: 37,2704           02721        REDO5.31           TC       PREREAD1
000207:
000208: 37,2705           37667                           CAF      PRIO32
000209: 37,2706           05147                           TC       FINDVAC                               #  SET UP NORMLIZE JOB REQUIRED PRIOR TO
000210: 37,2707  E7,1431                                  EBANK=   DVCNTR                                #  FIRST AVERAGE G PASS
000211: 37,2707           03235 76067                     2CADR    NORMLIZE
000212:
000213: 37,2711           35042                           CAF      2SECS
000214: 37,2712           05245                           TC       WAITLIST
000215: 37,2713  E6,1661                                  EBANK=   AOG
000216: 37,2713           02743 76066                     2CADR    READACCS
000217:
000218: 37,2715           45016                           CS       TWO
000219: 37,2716           04114                           TC       NEWPHASE
000220: 37,2717           00005                           OCT      5
000221:
000222: 37,2720           15324                           TCF      TASKOVER
000223:
000224: 37,2721           00006        PREREAD1           EXTEND
000225: 37,2722           22070                           QXCH     RUPTREG1
000226:
000227: 37,2723           03253                           TC       PIPASR                                #  CLEAR + READ PIPS LAST TIME IN FREE FALL
000228:
000229: 37,2724           35017                           CAF      ONE                                   #  SET UP PIPAGE FOR REREADAC IN CASE A
000230: 37,2725           55230                           TS       PIPAGE                                #        RESTART OCCURS BEFORE READACCS
000231:
000232: 37,2726           40075                           CS       FLAGWRD1                              #  SET AVEG FLAG
000233: 37,2727           75017                           MASK     BIT1
000234: 37,2730           26075                           ADS      FLAGWRD1
000235:
000236: 37,2731           34777                           CA       POSMAX
000237: 37,2732           70076                           MASK     FLAGWRD2
000238: 37,2733           54076                           TS       FLAGWRD2                              #  KNOCK DOWN DRIFT FLAG
000239:
000240: 37,2734           40103                           CS       FLAGWRD7                              #  SET V37 FLAG
000241: 37,2735           75012                           MASK     BIT6
000242: 37,2736           26103                           ADS      FLAGWRD7
000243:
000244: 37,2737           35021                           CAF      ZERO
000245: 37,2740           55425                           TS       DVTOTAL                               #  CLEAR DVTOTAL
000246: 37,2741           55426                           TS       DVTOTAL    +1
000247:
000248: 37,2742           00070                           TC       RUPTREG1
000249:


000251:                                                                                                  #  *************************************   READACCS   *************************************************************
000252: 37,2743  E6,1661                                  EBANK=   AOG
000253: 37,2743           03253        READACCS           TC       PIPASR
000254:
000255: 37,2744           35022        PIPSDONE           CAF      FIVE
000256: 37,2745           54001                           TS       L
000257: 37,2746           40000                           COM
000258: 37,2747           52763                           DXCH     -PHASE5
000259:
000260: 37,2750           35017        REDO5.5            CAF      ONE                                   #  SHOW PIPS HAVE BEEN READ
000261: 37,2751           55230                           TS       PIPAGE
000262:
000263: 37,2752           35016                           CA       TWO                                   #  SET PIPCTR FOR ONMINTOR
000264: 37,2753           55227                           TS       PIPCTR                                #  AFTER ABOVE PHASCHNG
000265:
000266: 37,2754           40102                           CS       CM/FLAGS
000267: 37,2755           75016                           MASK     BIT2                                  #  CM/DSTBY
000268: 37,2756           10000                           CCS      A
000269: 37,2757           03032                           TC       CHEKAVEG
000270:
000271: 37,2760           41246                           CS       PIPTIME1   +1
000272: 37,2761           55065                           TS       TBASE6                                #  FOR RESTARTS
000273: 37,2762           00006                           EXTEND                                         #  CONTINUE FOR ENTRY DAP
000274: 37,2763           31662                           DCA      AOG
000275: 37,2764           53670                           DXCH     AOG/PIP
000276: 37,2765           31663                           CA       AMG
000277: 37,2766           57671                           XCH      AMG/PIP
000278: 37,2767           00006                           EXTEND
000279: 37,2770           31665                           DCA      ROLL/180
000280: 37,2771           53673                           DXCH     ROLL/PIP
000281: 37,2772           31666                           CA       BETA/180
000282: 37,2773           57674                           XCH      BETA/PIP
000283: 37,2774           30102                           CA       CM/FLAGS
000284: 37,2775           75004                           MASK     BIT12                                 #  CM/DAPARM 93D BIT12
000285: 37,2776           00006                           EXTEND                                         #  DURING ENTRY, WHEN RCS DAP IS INACTIVE,
000286: 37,2777           13015                           BZF      NOSAVPIP                              #  SAVE PIPAS EACH 0.5 SEC FOR TM.
000287:
000288: 37,3000           33065                           CA       0.5SEC
000289: 37,3001           05245                           TC       WAITLIST
000290: 37,3002  E6,1533                                  EBANK=   XPIPBUF
000291: 37,3002           03066 76066                     2CADR    QUIKREAD
000292:
000293:                                                                                                  #  NO NEED TO RESTART PROTECT THIS.
000294: 37,3004           31162                           CA       DELVX                                 #  SAVE PIPAS AS READ (BUT NOT COMPENSATED)
000295: 37,3005           57533                           XCH      XPIPBUF
000296: 37,3006           55536                           TS       XOLDBUF
000297:
000298: 37,3007           31164                           CA       DELVY
000299: 37,3010           57534                           XCH      YPIPBUF
000300: 37,3011           55537                           TS       YOLDBUF


000302: 37,3012           31166                           CA       DELVZ
000303: 37,3013           57535                           XCH      ZPIPBUF
000304: 37,3014           55540                           TS       ZOLDBUF
000305:
000306: 37,3015           35022        NOSAVPIP           CA       FIVE
000307: 37,3016           55725                           TS       CM/GYMDT
000308:
000309: 37,3017           33232                           CA       JTAGTIME                              #  ACTIVATE CM/RCS AFTER PIPUP TO GO
000310:                                                                                                  #  IN JTAGTIME +5 CS.
000311: 37,3020           05245                           TC       WAITLIST
000312: 37,3021  E6,1661                                  EBANK=   AOG
000313: 37,3021           03207 32066                     2CADR    SETJTAG
000314:
000315: 37,3023           46214                           CS       THREE                                 #  1.3SPOT FOR SETJTAG
000316: 37,3024           04114                           TC       NEWPHASE
000317: 37,3025           00001                           OCT      1
000318:
000319: 37,3026           34362                           CAF      OCT37
000320: 37,3027           54001                           TS       L
000321: 37,3030           40000                           COM
000322: 37,3031           52763                           DXCH     -PHASE5
000323:
000324: 37,3032           40075        CHEKAVEG           CS       FLAGWRD1
000325: 37,3033           75017                           MASK     BIT1
000326: 37,3034           10000                           CCS      A                                     #  IF AVEG FLAG DOWN SET FINAL EXIT AVEG
000327: 37,3035           03055                           TC       AVEGOUT
000328:
000329: 37,3036           35042                           CAF      2SECS
000330: 37,3037           05245                           TC       WAITLIST
000331: 37,3040  E6,1661                                  EBANK=   AOG
000332: 37,3040           02743 76066                     2CADR    READACCS
000333:
000334: 37,3042           35002        MAKESERV           CAF      PRIO20                                #  ESTABLISH SERVICER ROUTINE
000335: 37,3043           05147                           TC       FINDVAC
000336: 37,3044  E7,1431                                  EBANK=   DVCNTR
000337: 37,3044           03103 76067                     2CADR    SERVICER
000338:
000339: 37,3046           45015                           CS       FOUR                                  #  RESTART SERVICER AND READACCS
000340: 37,3047           04114                           TC       NEWPHASE
000341: 37,3050           00005                           OCT      5
000342:
000343: 37,3051           35007                           CAF      BIT9
000344: 37,3052           00006                           EXTEND
000345: 37,3053           05011                           WOR      DSALMOUT                              #  TURN TEST CONNECTOR OUTBIT ON
000346:
000347: 37,3054           15324                           TCF      TASKOVER                              #  END PREVIOUS READACCS WAITLIST TASK
000348:


000350: 37,3055           00006        AVEGOUT            EXTEND
000351: 37,3056           33062                           DCA      AVOUTCAD
000352: 37,3057           53223                           DXCH     AVGEXIT
000353: 37,3060           13042                           TCF      MAKESERV
000354:
000355: 37,3061  E7,1431                                  EBANK=   DVCNTR
000356: 37,3061           03164 76067  AVOUTCAD           2CADR    AVGEND
000357:


000359:                                                                                                  #  ROUTINE NAME: ONMNITOR
000360:                                                                                                  #  MOD 04 BY BAIRNSFATHER 30 APR 1968    REDO ONMNITOR TO SAVE PIPS EACH 0.5 SEC FOR TM,ENTRY.
000361:                                                                                                  #  MOD 03 BY FISHER DECEMBER 1967
000362:                                                                                                  #  MOD 02 BY RYE SEPT 1967
000363:                                                                                                  #  MOD 01 BY KOSMALA 23 MAR 1967
000364:                                                                                                  #  MOD 00 BY KOSMALA 27 FEB 1967
000365:
000366:                                                                                                  #  FUNCTIONAL DESCRIPTION
000367:
000368:                                                                                                  #        THE PURPOSE OF ONMONITOR IS TO PROVIDE 1/2 SEC. READING OF PIPAS FOR DOWNLIST DURING ENTRY.
000369:                                                                                                  #        X,Y,ZPIPBUF CONTAIN PRESENT VALUES X,Y,ZOLDBUF CONTAIN VALUES FROM PREVIOUS READING.
000370:
000371:                                                                                                  #  CALLING SEQUENCE
000372:
000373:                                                                                                  #        CALL AS WAITLIST TASK. TERMINATES ITSELF IN TASKOVER
000374:
000375:                                                                                                  #  INITIALISATION
000376:
000377:                                                                                                  #        PIPCTR = 2 (FOR DT = 0.5 SEC)
000378:                                                                                                  #        X,Y,ZPIPBUF SET TO PREVIOUS PIPAX,Y,Z
000379:
000380:                                                                                                  #  OUTPUT
000381:
000382:                                                                                                  #        X,Y,ZPIPBUF, X,Y,ZOLDBUF
000383:
000384:                                                                                                  #  DEBRIS
000385:
000386:                                                                                                  #        X,Y,ZPIPBUF CONTAIN LAST PIPAX,Y,Z VALUES
000387:                                                                                                  #                X,Y,ZOLDBUF CONTAIN LAST-BUT-ONE PIPAX,Y,Z VALUES
000388:                                                                                                  #        RUPTREG1
000389:                                                                                                  #        PIPCTR
000390:
000391: 37,3063           55227        ONMNITOR           TS       PIPCTR
000392:
000393: 37,3064           05267                           TC       FIXDELAY                              #  WAIT
000394: 37,3065           00062        0.5SEC             DEC      50         B-14
000395:
000396: 37,3066           35016        QUIKREAD           CAF      TWO
000397: 37,3067           54070                           TS       RUPTREG1
000398: 37,3070           50000                           INDEX    A
000399: 37,3071           30037                           CA       PIPAX                                 #  SAVE ACTUAL PIPAS FOR TM.
000400: 37,3072           50070                           INDEX    RUPTREG1
000401: 37,3073           57533                           XCH      XPIPBUF                               #  UPDATE X,Y,ZPIPBUF
000402: 37,3074           50070                           INDEX    RUPTREG1
000403: 37,3075           55536                           TS       XOLDBUF                               #  AND X,Y,ZOLDBUF
000404: 37,3076           10070        CHKCTR             CCS      RUPTREG1
000405: 37,3077           13067                           TCF      QUIKREAD   +1                         #  LOOP AGAIN
000406: 37,3100           11227                           CCS      PIPCTR
000407: 37,3101           13063                           TCF      ONMNITOR
000408: 37,3102           05324                           TC       TASKOVER
000409:


000411:                                                                                                  #  *************************************   SERVICER   *************************************************************
000412:
000413: 37,3103  E7,1431                                  EBANK=   DVCNTR
000414:
000415: 37,3103           35016        SERVICER           CAF      TWO
000416: 37,3104           00004                           INHINT
000417: 37,3105           54070        PIPCHECK           TS       RUPTREG1
000418:
000419: 37,3106           60000                           DOUBLE
000420: 37,3107           50000                           INDEX    A
000421: 37,3110           11162                           CCS      DELVX
000422: 37,3111           03113                           TC       +2
000423: 37,3112           03121                           TC       PIPLOOP
000424:
000425: 37,3113           63231                           AD       -MAXDELV                              #  DO PIPA-SATURATION TEST BEFORE
000426: 37,3114           00006                           EXTEND
000427: 37,3115           63121                           BZMF     PIPLOOP                               #  COMPENSATION.
000428:
000429: 37,3116           05650                           TC       ALARM
000430: 37,3117           00205                           OCT      00205                                 #  SATURATED-PIPA ALARM   ***CHANGE LATER
000431: 37,3120           03142                           TC       AVERAGEG
000432:
000433: 37,3121           10070        PIPLOOP            CCS      RUPTREG1
000434: 37,3122           13105                           TCF      PIPCHECK
000435:
000436: 37,3123           05412                           TC       PHASCHNG                              #  RESTART REREADAC + SERVICER
000437: 37,3124           16035                           OCT      16035
000438: 37,3125           20000                           OCT      20000
000439: 37,3126  E7,1431                                  EBANK=   DVCNTR
000440: 37,3126           03132 76067                     2CADR    DVTOTUP
000441:
000442: 37,3130           04662                           TC       BANKCALL                              #  PIPA COMPENSATION CALL
000443: 37,3131           15262                           CADR     1/PIPA
000444:
000445: 37,3132           06006        DVTOTUP            TC       INTPRET
000446: 37,3133           51575                           VLOAD    ABVAL                                 #  GET ABS VALUE OF DELV
000447: 37,3134           01163                                    DELV
000448: 37,3135           77405                           DMP      EXIT
000449: 37,3136           37450                                    KPIP1                                 #  SCALE AT 2(+7)
000450:
000451: 37,3137           00006                           EXTEND
000452: 37,3140           30155                           DCA      MPAC
000453: 37,3141           21426                           DAS      DVTOTAL                               #  ACCUMULATE DVTOTAL
000454: 37,3142           05412        AVERAGEG           TC       PHASCHNG
000455: 37,3143           10035                           OCT      10035
000456:
000457: 37,3144           06006                           TC       INTPRET
000458: 37,3145           77624                           CALL


000460: 37,3146           77417                                    CALCRVG
000461: 37,3147           77776                           EXIT
000462:
000463: 37,3150           05412                           TC       PHASCHNG
000464: 37,3151           10035                           OCT      10035
000465:
000466: 37,3152           34113                           CAF      OCT31                                 #  COPY RN1,VN1,GOT102,GOBL1/2,PIPTIME1
000467: 37,3153           05606                           TC       GENTRAN                               #  INTO RN, VN, GDT/12, GOBL/2,PIPTIME
000468: 37,3154           01231                           ADRES    RN1
000469: 37,3155           01170                           ADRES    RN
000470: 37,3156           00003                           RELINT                                         #  GENTRAN DOES AN INHINT
000471: 37,3157           05412                           TC       PHASCHNG
000472: 37,3160           10035                           OCT      10035
000473:
000474: 37,3161           00006                           EXTEND
000475: 37,3162           31223                           DCA      AVGEXIT
000476: 37,3163           52006                           DXCH     Z                                     #  AVERAGEG EXIT
000477:
000478: 37,3164           31205        AVGEND             CA       PIPTIME    +1                         #  FINAL AVERAGE G EXIT
000479: 37,3165           55074                           TS       OLDBT1                                #  SET UP FREE FALL GYRO COMPENSATION
000480:
000481: 37,3166           05546                           TC       UPFLAG                                #  SET DRIFTFLG
000482: 37,3167           00036                           ADRES    DRIFTFLG                              #  BIT 15 FLAG 2
000483: 37,3170           05372                           TC       2PHSCHNG
000484: 37,3171           00005                           OCT      5                                     #  GROUP 5 OFF
000485: 37,3172           05022                           OCT      05022                                 #  GROUP 2 ON FOR AVETOMID
000486: 37,3173           20000                           OCT      20000
000487:
000488: 37,3174           06006                           TC       INTPRET
000489: 37,3175           77624                           CALL
000490: 37,3176           73702                                    AVETOMID                              #  CONVERT STATE VECTOR TO REFERENCE SCALE.
000491: 37,3177           77776                           EXIT
000492:
000493: 37,3200           35021                           CAF      ZERO                                  #  ZERO MARK COUNTERS.
000494: 37,3201           55125                           TS       VHFCNT
000495: 37,3202           55126                           TS       TRKMKCNT
000496:
000497: 37,3203           04662                           TC       BANKCALL
000498: 37,3204           17173                           CADR     PIPFREE
000499:
000500: 37,3205           45007                           CS       BIT9
000501: 37,3206           55734                           TS       MRKBUF2                               #  INVALIDATE MARK BUFFER
000502: 37,3207           00006                           EXTEND
000503: 37,3210           03011                           WAND     DSALMOUT
000504:
000505: 37,3211           05560                           TC       DOWNFLAG
000506: 37,3212           00147                           ADRES    CM/DSTBY
000507:
000508: 37,3213           05560                           TC       DOWNFLAG
000509: 37,3214           00162                           ADRES    V37FLAG
000510:


000512: 37,3215           35011                           CAF      BIT7                                  #  RESTORE GROUP 1 + 2 IF P20 IS RUNNING.
000513: 37,3216           70074                           MASK     FLAGWRD0
000514: 37,3217           00006                           EXTEND
000515: 37,3220           13224                           BZF      +4
000516:
000517: 37,3221           05372                           TC       2PHSCHNG
000518: 37,3222           00111                           OCT      111                                   #  1.11SPOT
000519: 37,3223           00132                           OCT      132                                   #  2.13SPOT
000520:
000521: 37,3224           04701                           TC       POSTJUMP
000522: 37,3225           10124                           CADR     CANV37
000523:
000524: 37,3226           05412        SERVEXIT           TC       PHASCHNG
000525: 37,3227           00035                           OCT      00035                                 #  A, 5.3 = REREADAC     (ONLY)
000526:
000527: 37,3230           15217                           TCF      ENDOFJOB
000528:
000529: 37,3231     5024               DVTHRUSH           EQUALS   ELEVEN                                #  15 PERCENT OF 2SEC PIPA ACCUMULATION,
000530:                                                                                                  #        FOR 503-FULL CSM/LEM....DELV SC.AT
000531:                                                                                                  #        5.85 CM/SEC.
000532:
000533: 37,3231           63401        -MAXDELV           DEC      -6398      B-14                       #  3200 PPS FOR 2 SEC CCS TAKES 1
000534:
000535: 37,3232           00170        JTAGTIME           DEC      120        B-14                       #  = 1 SEC + T CDU, T CDU = .1 SEC
000536:
000537: 37,3233           00372        2.5SEC             DEC      250        B-14
000538: 37,3234           00044        MDOTFAIL           DEC      144.0      B-16                       #  5 SEC MASS LOSS AT 28.8 KG/SEC
000539:                                                                                                  #  SHOULD BE 2-4 SECS FOR NO START
000540:                                                                                                  #            6-8 SECS FOR FAILURE
000541:


000543:                                                                                                  #  NORMLIZE PERFORMS THE INITIALIZATION REQUIRED PRIOR TO THE FIRST ENTRY TO AVERAGEG, AND SCALES RN SO THAT IT
000544:                                                                                                  #  HAS 1 LEADING BINARY ZERO.  IN MOST MISSIONS, RN WILL BE SCALED AT 2(+29), BUT IN THE 206 MISSION, RN WILL BE
000545:                                                                                                  #  SCALED AT 2(+24) M.
000546:
000547: 37,3235           35025        NORMLIZE           CAF      THIRTEEN                              #  SET UP TO COPY 14 REGS- RN1,VN1,PIPTIME1
000548: 37,3236           05606                           TC       GENTRAN                               #  INTO RN,VN,PIPTIME
000549: 37,3237           01231                           ADRES    RN1                                   #  FROM HERE
000550: 37,3240           01170                           ADRES    RN                                    #  TO HERE
000551:
000552: 37,3241           00003                           RELINT
000553: 37,3242           06006                           TC       INTPRET
000554: 37,3243           45175                           VLOAD    CALL                                  #  LOAD RN FOR CALCGRAV
000555: 37,3244           01171                                    RN
000556: 37,3245           77352                                    CALCGRAV                              #  INITIALISE UNITR RMAG GDT1
000557:
000558: 37,3246           25207                           STOVL    GDT/2
000559: 37,3247           01256                                    GOBL1/2
000560: 37,3250           01215                           STORE    GOBL/2
000561: 37,3251           77776                           EXIT
000562: 37,3252           15217                           TCF      ENDOFJOB
000563:


000565:                                                                                                  #  *****  PIPA READER *****
000566:                                                                                                  #  MOD NO. 00 BY D. LICKLY DEC. 9 1966
000567:
000568:                                                                                                  #  FUNCTIONAL DESCRIPTION
000569:
000570:                                                                                                  #  SUBROUTINE TO READ PIPA COUNTERS, TRYING TO BE VERY CAREFUL SO THAT IT WILL BE RESTARTABLE.
000571:                                                                                                  #  PIPA READINGS ARE STORED IN THE VECTOR DELV.  THE HIGH ORDER PART OF EACH COMPONENT CONTAINS THE PIPA READING,
000572:                                                                                                  #  RESTARTS BEGIN AT REREADAC.
000573:
000574:                                                                                                  #  AT THE END OF THE PIPA READER THE CDUS ARE READ AND STORED AS A
000575:                                                                                                  #  VECTOR IN CDUTEMP.  THE HIGH ORDER PART OF EACH COMPONENT CONTAINS
000576:                                                                                                  #  THE CDU READING IN 2S COMP IN THE ORDER CDUX,Y,Z.  THE THRUST
000577:                                                                                                  #  VECTOR ESTIMATOR IN FINDCDUD REQUIRES THE CDUS BE READ AT PIPTIME.
000578:
000579:                                                                                                  #  CALLING SEQUENCE AND EXIT
000580:
000581:                                                                                                  #        CALL VIA TC, ISWCALL, ETC.
000582:
000583:                                                                                                  #        EXIT IS VIA Q.
000584:
000585:                                                                                                  #  INPUT
000586:
000587:                                                                                                  #        INPUT IS THROUGH THE COUNTERS PIPAX, PIPAY, PIPAZ, AND TIME2.
000588:
000589:                                                                                                  #  OUTPUT
000590:
000591:                                                                                                  #        HIGH ORDER COMPONENTS OF THE VECTOR DELV CONTAIN THE PIPA READINGS.
000592:
000593:                                                                                                  #        PIPTIME CONTAINS TIME OF PIPA READING.
000594:
000595:                                                                                                  #  DEBRIS (ERASABLE LOCATIONS DESTROYED BY PROGRAM)
000596:
000597:                                                                                                  #        LOW ORDER DELV'S ARE ZEROED FOR TM INDICATION.
000598:                                                                                                  #        TEMX    TEMY    TEMZ    PIPAGE
000599:
000600: 37,3253           00006        PIPASR             EXTEND
000601: 37,3254           30025                           DCA      TIME2
000602: 37,3255           53246                           DXCH     PIPTIME1                              #  CURRENT TIME  POSITIVE VALUE
000603: 37,3256           45021                           CS       ZERO                                  #  INITIALIZE THESE AT NEG ZERO.
000604: 37,3257           55224                           TS       TEMX
000605: 37,3260           55225                           TS       TEMY
000606: 37,3261           55226                           TS       TEMZ


000608: 37,3262           35021                           CA       ZERO
000609: 37,3263           55166                           TS       DELVZ                                 #  OTHER DELVS OK INCLUDING LOW ORDER
000610: 37,3264           55164                           TS       DELVY
000611:
000612: 37,3265           55163                           TS       DELVX      +1                         #  LOW ORDER DELV'S ARE ZEROED FOR TM:  THUS
000613: 37,3266           55165                           TS       DELVY      +1                         #  IF DNLNK'D LOW ORDER DELVS ARE NZ, THEY
000614: 37,3267           55167                           TS       DELVZ      +1                         #  CONTAIN PROPER COMPENSATION.  IF=0, THEN
000615:                                                                                                  #  THE TM VALUES ARE BEFORE COMPENSATION.
000616:
000617: 37,3270           55230                           TS       PIPAGE                                #  SHOW PIPA READING IN PROGRESS
000618:
000619: 37,3271           00006        REPIP1             EXTEND
000620: 37,3272           40040                           DCS      PIPAX                                 #  X AND Y PIPS READ
000621: 37,3273           53225                           DXCH     TEMX
000622: 37,3274           52040                           DXCH     PIPAX                                 #  PIPAS SET TO NEG ZERO AS READ.
000623: 37,3275           55162                           TS       DELVX
000624: 37,3276           23164                           LXCH     DELVY
000625:
000626: 37,3277           40041        REPIP3             CS       PIPAZ                                 #  REPEAT PROCESS FOR Z PIP
000627: 37,3300           57226                           XCH      TEMZ
000628: 37,3301           56041                           XCH      PIPAZ
000629: 37,3302           55166        DODELVZ            TS       DELVZ
000630:
000631: 37,3303           00002                           TC       Q
000632:
000633: 37,3304  E6,1661                                  EBANK=   AOG
000634:
000635: 37,3304           10763        REREADAC           CCS      PHASE5                                #  LAST PASS CHECK
000636: 37,3305           13307                           TCF      +2
000637: 37,3306           15324                           TCF      TASKOVER
000638:
000639: 37,3307           37665                           CAF      PRIO31                                #  RESTART MAY HAVE WIPED OUT LASTBIAS, AN
000640: 37,3310           55074                           TS       1/PIPADT                              #        UNPROTECTED NOVAC FROM PREREAD,
000641:                                                                                                  #        WHICH SET(S) UP 1/PIPADT (THUSLY)
000642:                                                                                                  #        FOR NON-COASTING COMPENSATION....BE
000643:                                                                                                  #        SURE 1/PIPADT IS AOK.  (PRIO31 IS
000644:                                                                                                  #        2.0SEC SC.AT B+8CS)
000645:
000646: 37,3311           11230                           CCS      PIPAGE
000647: 37,3312           12743                           TCF      READACCS                              #  PIP READING NOT STARTED.  GO TO BEGINNING
000648:
000649: 37,3313           33351                           CAF      DONEADR                               #  SET UP RETURN FROM PIPASR
000650: 37,3314           54002                           TS       Q
000651:
000652: 37,3315           11166                           CCS      DELVZ
000653: 37,3316           00002                           TC       Q                                     #  Z DONE, GO DO CDUS
000654: 37,3317           13322                           TCF      +3                                    #  Z NOT DONE, CHECK Y.
000655: 37,3320           00002                           TC       Q
000656: 37,3321           00002                           TC       Q


000658: 37,3322           22007                           ZL
000659: 37,3323           11164                           CCS      DELVY
000660: 37,3324           13327                           TCF      +3
000661: 37,3325           13336                           TCF      CHKTEMX                               #  Y NOT DONE, CHECK X.
000662: 37,3326           13327                           TCF      +1
000663: 37,3327           22041                           LXCH     PIPAZ                                 #  Y DONE, ZERO Z PIP.
000664:
000665: 37,3330           11226                           CCS      TEMZ
000666: 37,3331           41226                           CS       TEMZ                                  #  TEMZ NOT = -0, CONTAINS -PIPAZ VALUE.
000667: 37,3332           13302                           TCF      DODELVZ
000668: 37,3333           13331                           TCF      -2
000669: 37,3334           23166                           LXCH     DELVZ                                 #  TEMZ = -0, L HAS ZPIP VALUE.
000670: 37,3335           00002                           TC       Q
000671:
000672: 37,3336           11224        CHKTEMX            CCS      TEMX                                  #  HAS THIS CHANGED
000673: 37,3337           41224                           CS       TEMX                                  #  YES
000674: 37,3340           13343                           TCF      +3                                    #  YES
000675: 37,3341           13337                           TCF      -2                                    #  YES
000676: 37,3342           13271                           TCF      REPIP1                                #  NO
000677: 37,3343           55162                           TS       DELVX
000678:
000679: 37,3344           41225                           CS       TEMY
000680: 37,3345           55164                           TS       DELVY
000681:
000682: 37,3346           45021                           CS       ZERO                                  #  ZERO X AND Y PIPS
000683: 37,3347           52040                           DXCH     PIPAX                                 #  L STILL ZERO FROM ABOVE
000684:
000685: 37,3350           13277                           TCF      REPIP3
000686:
000687: 37,3351           02744        DONEADR            GENADR   PIPSDONE
000688:


000690:                                                                                                  #  *************************************************************************************************************
000691:
000692:                                                                                                  #           ROUTINE CALCRVG INTEGRATES THE EQUATIONS OF MOTION BY AVERAGING THE THRUST AND GRAVITATIONAL
000693:                                                                                                  #  ACCELERATIONS OVER A TIME INTERVAL OF 2 SECONDS.
000694:
000695:                                                                                                  #           FOR THE EARTH-CENTERED GRAVITATIONAL FIELD, THE PERTURBATION DUE TO OBLATENESS IS COMPUTED TO THE FIRST
000696:                                                                                                  #  HARMONIC COEFFICIENT J.
000697:
000698:                                                                                                  #  ROUTINE CALCRVG REQUIRES...
000699:                                                                                                  #        1) THRUST ACCELERATION INCREMENTS IN DELV SCALED SAME AS PIPAX,Y,Z IN STABLE MEMBER COORDS.
000700:                                                                                                  #        2) VN SCALED 2(+7) M/CS IN REFERENCE COORDS.
000701:                                                                                                  #        3) RN SCALED AT 2(+29) METERS IN REFERENCE COORDS.
000702:                                                                                                  #        4) UNITW THE EARTH S UNIT ROTATIONAL VECTOR (SCALED AS A FULL UNIT VECTOR) IN REFERENCE COORDS.
000703:
000704:                                                                                                  #  IT LEAVES RN1 UPDATED (SCALED AT 2(+29)M, VN1 (SCALED AT 2(+7)M/CS), AND GDT1/2 (SCALED AT 2(+7)M/CS). ALSO HALF
000705:                                                                                                  #  UNIT VECTOR UNITR, RMAG IN 36D SCALED AT 2(+29)M, R MAG SQ. IN 34D SCALED AT 2(+58) M SQ.
000706:
000707: 37,3352           41456        CALCGRAV           UNIT     PUSH                                  #  ENTER WITH RN IN MPAC
000708: 37,3353           01760                           STORE    UNITR
000709: 37,3354           67340                           LXC,1    SLOAD
000710: 37,3355           03746                                    RTX2
000711: 37,3356           00047                                    X1
000712: 37,3357           77240                           BMN      VLOAD
000713: 37,3360           77406                                    ITISMOON
000714: 37,3361           41441                           DOT      PUSH
000715: 37,3362           01714                                    UNITW
000716: 37,3363           44316                           DSQ      BDSU
000717: 37,3364           37460                                    DP1/20
000718: 37,3365           56325                           PDDL     DDV
000719: 37,3366           37462                                    RESQ
000720: 37,3367           00043                                    34D                                   #  (RN)SQ
000721: 37,3370           00041                           STORE    32D                                   #  TEMP FOR (RE/RN)SQ
000722: 37,3371           41205                           DMP      DMP
000723: 37,3372           37464                                    20J
000724: 37,3373           65361                           VXSC     PDDL
000725: 37,3374           01760                                    UNITR
000726: 37,3375           41205                           DMP      DMP
000727: 37,3376           37466                                    2J
000728: 37,3377           00041                                    32D
000729: 37,3400           53361                           VXSC     VAD
000730: 37,3401           01714                                    UNITW
000731: 37,3402           77626                           STADR
000732: 37,3403           76521                           STORE    GOBL1/2
000733: 37,3404           41455                           VAD      PUSH
000734: 37,3405           01760                                    UNITR
000735: 37,3406           60345        ITISMOON           DLOAD    NORM
000736: 37,3407           00043                                    34D
000737: 37,3410           00050                                    X2
000738: 37,3411           53663                           BDDV*    SLR*


000740: 37,3412           37452                                    -MUDT(E),1
000741: 37,3413           56623                                    0          -21D,2
000742: 37,3414           45561                           VXSC     STADR
000743: 37,3415           76527                           STORE    GDT1/2                                #  SCALED AT 2(+7) M/CS
000744: 37,3416           77616                           RVQ
000745:
000746: 37,3417           74375        CALCRVG            VLOAD    VXSC
000747: 37,3420           01163                                    DELV
000748: 37,3421           37450                                    KPIP1
000749: 37,3422           76505                           VXM      VSL1
000750: 37,3423           01736                                    REFSMMAT
000751: 37,3424           03433                           STORE    DELVREF                               #  DELV IN REF COORDS AT 2(+7)
000752: 37,3425           41562                           VSR1     PUSH
000753: 37,3426           41455                           VAD      PUSH                                  #  (DV-OLDGDT)/2 TO PD SCALED AT 2(+7)M/CS
000754: 37,3427           01207                                    GDT/2
000755: 37,3430           74255                           VAD      VXSC
000756: 37,3431           01177                                    VN
000757: 37,3432           37456                                    2SEC(22)
000758: 37,3433           44055                           VAD      STQ
000759: 37,3434           01171                                    RN
000760: 37,3435           00037                                    31D
000761: 37,3436           35232                           STCALL   RN1                                   #  TEMP STORAGE OF RN SCALED 2(+29)M
000762: 37,3437           77352                                    CALCGRAV
000763:
000764: 37,3440           53255                           VAD      VAD
000765: 37,3441           77655                           VAD
000766: 37,3442           01177                                    VN
000767: 37,3443           35240                           STCALL   VN1                                   #  TEMP STORAGE OF VN SCALED 2(+7) M/CS
000768: 37,3444           00037                                    31D
000769:
000770: 37,3445           03215 27057  KPIP               2DEC     .1024                                 #  SCALES DELV TO 2(+4)
000771:
000772: 37,3447           02312 32537  KPIP1              2DEC     0.074880                              #  207 DELV SCALING.  1 PULSE = 5.85 CM/SEC.
000773:
000774: 37,3451           61377 55754  -MUDT(E)           2DEC*    -7.9720645 E+12       B-44*
000775:
000776: 37,3453           77644 65556  -MUDT(M)           2DEC*    -9.805556  E+10       B-44*
000777:
000778: 37,3455           00000 31000  2SEC(22)           2DEC     200        B-22
000779:
000780: 37,3457           01463 06315  DP1/20             2DEC     0.05
000781:
000782: 37,3461           00001 05000  RESQ               2DEC*    40.6809913 E12        B-59*
000783:
000784: 37,3463           02047 36332  20J                2DEC*    3.24692010 E-2        B1*
000785:
000786: 37,3465           00152 14511  2J                 2DEC*    3.24692010 E-3        B1*
000787:

End of include-file SERVICER207.agc.  Parent file is MAIN.agc


