
Source Code


000002:                                                                                                  ## Copyright:   Public domain.
000003:                                                                                                  ## Filename:    T4RUPT_PROGRAM.agc
000004:                                                                                                  ## Purpose:     A section of Comanche revision 044.
000005:                                                                                                  ##              It is part of the reconstructed source code for the
000006:                                                                                                  ##              original release of the flight software for the Command
000007:                                                                                                  ##              Module's (CM) Apollo Guidance Computer (AGC) for Apollo 10.
000008:                                                                                                  ##              The code has been recreated from a copy of Comanche 055. It
000009:                                                                                                  ##              has been adapted such that the resulting bugger words
000010:                                                                                                  ##              exactly match those specified for Comanche 44 in NASA drawing
000011:                                                                                                  ##              2021153D, which gives relatively high confidence that the
000012:                                                                                                  ##              reconstruction is correct.
000013:                                                                                                  ## Assembler:   yaYUL
000014:                                                                                                  ## Contact:     Ron Burkey <info@sandroid.org>.
000015:                                                                                                  ## Website:     www.ibiblio.org/apollo/index.html
000016:                                                                                                  ## Mod history: 2020-12-03 MAS  Created from Comanche 51.
000017:


000019: 12,2000                                           BANK     12
000020: 06,2000                                           SETLOC   T4RUP
000021: 06,2000                                           BANK
000022:
000023: 06,2000                                           COUNT    06/T4RPT
000024:
000025: 06,2000           54016        T4RUPT             TS       BANKRUPT
000026: 06,2001           00006                           EXTEND
000027: 06,2002           22012                           QXCH     QRUPT
000028:
000029: 06,2003           11302                           CCS      DSRUPTSW                              #  GOES 7(-1)0 AROUND AND AROUND
000030: 06,2004           12010                           TCF      NORMT4     +1
000031: 06,2005           12007                           TCF      NORMT4
000032:
000033: 06,2006           12136                           TCF      QUIKDSP
000034:
000035: 06,2007           35023        NORMT4             CAF      SEVEN
000036: 06,2010           54070                           TS       RUPTREG1
000037: 06,2011           55302                           TS       DSRUPTSW
000038:
000039: 06,2012                                           COUNT    02/T4RPT
000040:
000041: 06,2012     7711               74K                =        HIGH4
000042:
000043:                                                                                                  #  RELTAB IS A PACKED TABLE. RELAYWORD CODE IN UPPER 4 BITS, RELAY CODE
000044:                                                                                                  #  IN LOWER 5 BITS.
000045:
000046:    4072                                           BLOCK    02
000047:    4000                                           SETLOC   FFTAG12
000048:    4000                                           BANK
000049:
000050:    4072           04025        RELTAB             OCT      04025
000051:    4073           10003                           OCT      10003
000052:    4074           14031                           OCT      14031
000053:    4075           20033                           OCT      20033
000054:    4076           24017                           OCT      24017
000055:    4077           30036                           OCT      30036
000056:    4100           34034                           OCT      34034
000057:    4101           40023                           OCT      40023
000058:    4102           44035                           OCT      44035
000059:    4103           50037                           OCT      50037
000060:    4104           54000                           OCT      54000
000061:    4105           60000        RELTAB11           OCT      60000
000062:


000064:                                                                                                  #  SWITCHED-BANK PORTION.
000065:
000066: 12,2000                                           BANK     12
000067: 06,2000                                           SETLOC   T4RUP
000068: 06,2000                                           BANK
000069:
000070: 06,2012                                           COUNT    06/T4RPT
000071:
000072: 06,2012           11036        CDRVE              CCS      DSPTAB     +11D
000073: 06,2013           02063                           TC       DSPOUT
000074: 06,2014           02063                           TC       DSPOUT
000075:
000076: 06,2015           57036                           XCH      DSPTAB     +11D
000077: 06,2016           74372                           MASK     LOW11
000078: 06,2017           55036                           TS       DSPTAB     +11D
000079: 06,2020           64105                           AD       RELTAB11
000080: 06,2021           00006                           EXTEND
000081: 06,2022           01010                           WRITE    OUT0
000082: 06,2023           02071                           TC       HANG20
000083:


000085:                                                                                                  #  DSPOUT PROGRAM. PUTS OUT DISPLAYS.
000086:
000087: 06,2024           55016        DSPOUTSB           TS       NOUT
000088: 06,2025           45021                           CS       ZERO
000089: 06,2026           54073                           TS       DSRUPTEM                              #  SET TO -0 FOR 1ST PASS THRU DSPTAB
000090: 06,2027           56776                           XCH      DSPCNT
000091: 06,2030           65020                           AD       NEG0                                  #  TO PREVENT +0
000092: 06,2031           54776                           TS       DSPCNT
000093: 06,2032           50776        DSPSCAN            INDEX    DSPCNT
000094: 06,2033           11023                           CCS      DSPTAB
000095: 06,2034           10776                           CCS      DSPCNT                                #  IF DSPTAB ENTRY +, SKIP
000096: 06,2035           12030                           TCF      DSPSCAN    -2                         #  IF DSPCNT +, AGAIN
000097: 06,2036           12047                           TCF      DSPLAY                                #  IF DSPTAB ENTRY -, DISPLAY
000098: 06,2037           00012        TABLNTH            OCT      12                                    #  DEC 10 LENGTH OF DSPTAB
000099: 06,2040           10073                           CCS      DSRUPTEM                              #  IF DSRUPTEM=+0, 2ND PASS THRU DSPTAB
000100: 06,2041           37764        120MRUPT           DEC      16372      B-14                       #  (DSPCNT = 0).  +0 INTO NOUT.
000101: 06,2042           55016                           TS       NOUT
000102: 06,2043           00002                           TC       Q
000103: 06,2044           54073                           TS       DSRUPTEM                              #  IF DSRUPTEM=-0, 1ST PASS THRU DSPTAB
000104: 06,2045           32037                           CAF      TABLNTH                               #  (DSPCNT=0).+0 INTO DSRUPTEM. PASS AGAIN
000105: 06,2046           12031                           TCF      DSPSCAN    -1
000106:
000107: 06,2047           65017        DSPLAY             AD       ONE
000108: 06,2050           50776                           INDEX    DSPCNT
000109: 06,2051           55023                           TS       DSPTAB                                #  REPLACE POSITIVELY
000110: 06,2052           74372                           MASK     LOW11                                 #  REMOVE BITS 12 TO 15
000111: 06,2053           54073                           TS       DSRUPTEM
000112: 06,2054           34364                           CAF      HI5
000113: 06,2055           50776                           INDEX    DSPCNT
000114: 06,2056           74072                           MASK     RELTAB                                #  PICK UP BITS 12 TO 15 OF RELTAB ENTRY
000115: 06,2057           60073                           AD       DSRUPTEM
000116: 06,2060           00006                           EXTEND
000117: 06,2061           01010                           WRITE    OUT0                                  #  WRITE CHANNEL 10
000118: 06,2062           16706                           TCF      Q+1                                   #  *** NORMAL RETURN SKIPS ONE
000119:
000120: 06,2063           10101        DSPOUT             CCS      FLAGWRD5                              #  DONT DISPLAY UNLESS DSKY FLAG ON
000121: 06,2064           35021                           CAF      ZERO
000122: 06,2065           12132                           TCF      NODSPOUT
000123: 06,2066           11016                           CCS      NOUT
000124: 06,2067           02024                           TC       DSPOUTSB
000125: 06,2070           12132                           TCF      NODSPOUT                              #  NO DISPLAY REQUESTS
000126:
000127: 06,2071           42173        HANG20             CS       11,14,9
000128: 06,2072           27302                           ADS      DSRUPTSW
000129:
000130: 06,2073           37700                           CAF      20MRUPT
000131:
000132: 06,2074           54027        SETTIME4           TS       TIME4
000133:


000135:                                                                                                  #  THE STATUS OF THE PROCEED PUSHBUTTON IS MONITORED EVERY 120 MILLISECONDS VIA THE CHANNEL 32 BIT 14 INBIT.
000136:                                                                                                  #  THE STATE OF THIS INBIT IS COMPARED WITH ITS STATE DURING THE PREVIOUS T4RUPT AND IS PROCESSED AS FOLLOWS.
000137:                                                                                                  #        IF PREV ON AND NOW ON   - BYPASS
000138:                                                                                                  #        IF PREV ON AND NOW OFF  - UPDATE IMODES33
000139:                                                                                                  #        IF PREV OFF AND NOW ON  - UPDATE IMODES33 AND PROCESS VIA PINBALL
000140:                                                                                                  #        IF PREV OFF AND NOW OFF - BYPASS
000141:                                                                                                  #  THE LOGIC EMPLOYED REQUIRES ONLY 9 MCT (APPROX. 108 MICROSECONDS) OF COMPUTER TIME WHEN NO CHANGES OCCUR.
000142:
000143: 06,2075           31321        PROCEEDE           CA       IMODES33                              #  MONITIOR FOR PROCEED BUTTON
000144: 06,2076           00006                           EXTEND
000145: 06,2077           06032                           RXOR     CHAN32                                #  CHECK IF BIT 14 DIFFERENT
000146: 06,2100           75002                           MASK     BIT14
000147: 06,2101           00006                           EXTEND
000148: 06,2102           12116                           BZF      T4JUMP                                #  NO CHANGE
000149:
000150: 06,2103           23321                           LXCH     IMODES33
000151: 06,2104           00006                           EXTEND
000152: 06,2105           06001                           RXOR     LCHAN
000153: 06,2106           55321                           TS       IMODES33                              #  UPDATE IMODES33
000154: 06,2107           75002                           MASK     BIT14
000155: 06,2110           10000                           CCS      A
000156: 06,2111           12116                           TCF      T4JUMP                                #  WAS ON - NOW OFF
000157:
000158: 06,2112           34371                           CAF      CHRPRIO                               #  WAS OFF - NOW ON
000159: 06,2113           05134                           TC       NOVAC
000160: 06,2114     0777                                  EBANK=   DSPCOUNT
000161: 06,2114           03357 60101                     2CADR    PROCKEY
000162:


000164:                                                                                                  #  JUMP TO APPROPRIATE ONCE-PER SECOND (.96 SEC ACTUALLY) ACTIVITY
000165:
000166: 06,2116           50070        T4JUMP             INDEX    RUPTREG1
000167: 06,2117           12120                           TCF      +1
000168:
000169: 06,2120           12130                           TCF      OPTTEST
000170: 06,2121           12765                           TCF      OPTMON
000171: 06,2122           12174                           TCF      IMUMON
000172: 06,2123           15333                           TCF      RESUME
000173: 06,2124           12130                           TCF      OPTTEST
000174: 06,2125           12765                           TCF      OPTMON
000175: 06,2126           12174                           TCF      IMUMON
000176: 06,2127           15333                           TCF      RESUME
000177:
000178: 06,2130           04740        OPTTEST            TC       IBNKCALL
000179: 06,2131           20000                           CADR     OPTDRIVE
000180:
000181: 06,2132     7700               20MRUPT            =        OCT37776                              #  (DEC 16382)
000182:
000183: 06,2132           00006        NODSPOUT           EXTEND                                         #  TURN OFF RELAYS
000184: 06,2133           01010                           WRITE    OUT0
000185:
000186: 06,2134           32041                           CAF      120MRUPT                              #  SET FOR NEXT CDRVE
000187: 06,2135           12074                           TCF      SETTIME4
000188:
000189: 06,2136           35002        QUIKDSP            CAF      BIT14
000190: 06,2137           71302                           MASK     DSRUPTSW
000191: 06,2140           00006                           EXTEND
000192: 06,2141           12167                           BZF      QUIKOFF                               #  WROTE LAST TIME, NOW TURN OFF RELAYS.
000193:
000194: 06,2142           11016                           CCS      NOUT
000195: 06,2143           02024                           TC       DSPOUTSB
000196: 06,2144           12154                           TCF      NODSPY                                #  NOUT=0 OR BAD RETURN FROM DSPOUTSB
000197: 06,2145           45002                           CS       BIT14                                 #  GOOD RETURN (WE DISPLAYED SOMETHING)
000198: 06,2146           27302        QUIKRUPT           ADS      DSRUPTSW
000199:
000200: 06,2147           37700                           CAF      20MRUPT
000201: 06,2150           54027                           TS       TIME4
000202:
000203: 06,2151           35007                           CAF      BIT9
000204: 06,2152           27302                           ADS      DSRUPTSW
000205:
000206: 06,2153           05333                           TC       RESUME
000207:
000208: 06,2154           00006        NODSPY             EXTEND
000209: 06,2155           01010                           WRITE    OUT0
000210:
000211: 06,2156           37700        SYNCT4             CAF      20MRUPT
000212: 06,2157           26027                           ADS      TIME4
000213:
000214: 06,2160           35007                           CAF      BIT9


000216: 06,2161           27302                           ADS      DSRUPTSW
000217: 06,2162           11302                           CCS      DSRUPTSW
000218: 06,2163           05333                           TC       RESUME
000219: 06,2164           37737        OCT37737           OCT      37737
000220: 06,2165           02156                           TC       SYNCT4
000221: 06,2166           05333                           TC       RESUME
000222:
000223: 06,2167           00006        QUIKOFF            EXTEND
000224: 06,2170           01010                           WRITE    OUT0
000225: 06,2171           35002                           CAF      BIT14                                 #  RESET DSRUPTSW TO SEND DISPLAY NEXT PASS
000226: 06,2172           12146                           TCF      QUIKRUPT
000227:
000228: 06,2173           22400        11,14,9            OCT      22400
000229:


000231:                                                                                                  #  PROGRAM NAME:  IMUMON
000232:
000233:                                                                                                  #  FUNCTIONAL DESCRIPTION:  THIS PROGRAM IS ENTERED EVERY 480 MS.  IT DETECTS CHANGES OF THE IMU STATUS BITS IN
000234:                                                                                                  #  CHANNEL 30 AND CALLS THE APPROPRIATE SUBROUTINES.  THE BITS PROCESSED AND THEIR RELEVANT SUBROUTINES ARE:
000235:
000236:                                                                                                  #        FUNCTION                BIT     SUBROUTINE CALLED
000237:                                                                                                  #        --------                ---     -----------------
000238:                                                                                                  #        TEMP IN LIMITS           15     TLIM
000239:                                                                                                  #        ISS TURN-ON REQUEST      14     ITURNON
000240:                                                                                                  #        IMU FAIL                 13     IMUFAIL (SETISSW)
000241:                                                                                                  #        IMU CDU FAIL             12     ICDUFAIL (SETISSW)
000242:                                                                                                  #        IMU CAGE                 11     IMUCAGE
000243:                                                                                                  #        IMU OPERATE               9     IMUOP
000244:
000245:                                                                                                  #  THE LAST SAMPLED STATE OF THESE BITS IS LEFT IN IMODES30.  ALSO, EACH SUBROUTINE CALLED FINDS THE NEW
000246:                                                                                                  #  VALUE OF THE BIT IN A, WITH Q SET TO THE PROPER RETURN LOCATION, NXTIFAIL.
000247:
000248:                                                                                                  #  CALLING SEQUENCE:  T4RUPT EVERY 480 MILLISECONDS.
000249:
000250:                                                                                                  #  JOBS OR TASKS INITIATED:  NONE.
000251:
000252:                                                                                                  #  SUBROUTINES CALLED:  TLIM, ITURNON, SETISSW, IMUCAGE, IMUOP.
000253:
000254:                                                                                                  #  ERASABLE INITIALIZATION:
000255:                                                                                                  #        FRESH START OR RESTART WITH NO GROUPS ACTIVE:  C(IMODES30) = OCT 37411.
000256:                                                                                                  #        RESTART WITH ACTIVE GROUPS:     C(IMODES30) = (B(IMODES30)AND(OCT 00035)) PLUS OCT 37400.
000257:                                                                                                  #                                        THIS LEAVES IMU FAIL BITS INTACT.
000258:
000259:                                                                                                  #  ALARMS:  NONE.
000260:
000261:                                                                                                  #  EXIT:  TNONTEST.
000262:
000263:                                                                                                  #  OUTPUT:  UPDATED IMODES30 WITH CHANGES PROCESSED BY APPROPRIATE SUBROUTINE.
000264:
000265: 06,2174           31320        IMUMON             CA       IMODES30                              #  SEE IF THERE HAS BEEN A CHANGE IN THE
000266: 06,2175           00006                           EXTEND                                         #  RELEVANT BITS OF CHAN 30.
000267: 06,2176           06030                           RXOR     CHAN30                                #  CHECK IF BITS 9,11-15 CHANGED
000268: 06,2177           72743                           MASK     30RDMSK
000269: 06,2200           00006                           EXTEND
000270: 06,2201           12231                           BZF      TNONTEST                              #  NO CHANGE IN STATUS.
000271:
000272: 06,2202           54070                           TS       RUPTREG1                              #  SAVE BITS WHICH HAVE CHANGED.
000273: 06,2203           23320                           LXCH     IMODES30                              #  UPDATE IMODES30.
000274: 06,2204           00006                           EXTEND
000275: 06,2205           06001                           RXOR     LCHAN
000276: 06,2206           55320                           TS       IMODES30
000277:
000278: 06,2207           45017                           CS       ONE
000279: 06,2210           56070                           XCH      RUPTREG1
000280: 06,2211           00006                           EXTEND


000282: 06,2212           62507                           BZMF     TLIM                                  #  CHANGE IN IMU TEMP.
000283: 06,2213           12215                           TCF      NXTIFBIT                              #  BEGIN BIT SCAN.
000284:
000285: 06,2214           65017                 -1        AD       ONE                                   #  (RE-ENTERS HERE FROM NXTIFAIL.)
000286: 06,2215           24070        NXTIFBIT           INCR     RUPTREG1                              #  ADVANCE BIT POSITION NUMBER.
000287: 06,2216           60000                 +1        DOUBLE
000288: 06,2217           54000                           TS       A                                     #  SKIP IF OVERFLOW.
000289: 06,2220           12215                           TCF      NXTIFBIT                              #  LOOK FOR BIT.
000290:
000291: 06,2221           56071                           XCH      RUPTREG2                              #  SAVE OVERFLOW-CORRECTED DATA.
000292: 06,2222           50070                           INDEX    RUPTREG1                              #  SELECT NEW VALUE OF THIS BIT.
000293: 06,2223           35002                           CAF      BIT14
000294: 06,2224           71320                           MASK     IMODES30
000295: 06,2225           50070                           INDEX    RUPTREG1
000296: 06,2226           02737                           TC       IFAILJMP
000297:
000298: 06,2227           10071        NXTIFAIL           CCS      RUPTREG2                              #  PROCESS ANY ADDITIONAL CHANGES.
000299: 06,2230           12214                           TCF      NXTIFBIT   -1
000300:


000302:                                                                                                  #  PROGRAM NAME:  TNONTEST.
000303:
000304:                                                                                                  #  FUNCTIONAL DESCRIPTION:  THIS PROGRAM HONORS REQUESTS FOR ISS INITIALIZATION.  ISS TURN-ON (CHANNEL 30 BIT 14)
000305:                                                                                                  #  AND ISS OPERATE (CHANNEL 30 BIT 9) REQUESTS ARE TREATED AS A PAIR AND PROCESSING TAKES PLACE .480 SECONDS
000306:                                                                                                  #  AFTER EITHER ONE APPEARS.  THIS INITIALIZATION TAKES ON ONE OF THE FOLLOWING THREE FORMS:
000307:
000308:                                                                                                  #        1) ISS TURN-ON:  IN THIS SITUATION THE COMPUTER IS OPERATING WHEN THE ISS IS TURNED ON.  NOMINALLY,
000309:                                                                                                  #        BOTH ISS TURN-ON AND ISS OPERATE APPEAR.  THE PLATFORM IS CAGED FOR 90 SECONDS AND THE ICDU'S ZEROED
000310:                                                                                                  #        SO THAT AT THE END OF THE PROCESS THE GIMBAL LOCK MONITOR WILL FUNCTION PROPERLY.
000311:
000312:                                                                                                  #        2) ICDU INITIALIZATION:  IN THIS CASE THE COMPUTER WAS PROBABLY TURNED ON WITH THE ISS IN OPERATE OR
000313:                                                                                                  #        A FRESH START WAS DONE WITH THE ISS IN OPERATE.  IN THIS CASE ONLY ISS OPERATE IS ON.  THE ICDU'S ARE
000314:                                                                                                  #        ZEROED SO THE GIMBAL LOCK MONITOR WILL FUNCTION.  AN EXCEPTION IS IF THE ISS IS IN GIMBAL LOCK AFTER
000315:                                                                                                  #        A RESTART, THE ICDU'S WILL NOT BE ZEROED.
000316:
000317:                                                                                                  #        3) RESTART WITH RESTARTABLE PROGRAM USING THE IMU:  IN THIS CASE, NO INITIALIZATION TAKES PLACE SINCE
000318:                                                                                                  #        IT IS ASSUMED THAT THE USING PROGRAM DID THE INITIALIZATION AND THEREFORE T4RUPT SHOULD NOT INTERFERE.
000319:
000320:                                                                                                  #  IMODES30 BIT 7 IS SET = 1 BY THE FIRST BIT (CHANNEL 30 BIT 14 OR 9) WHICH ARRIVES.  FOLLOWING THIS. TNONTEST IS
000321:                                                                                                  #  ENTERED, FINDS BIT 7 = 1 BUT BIT 8 = 0, SO IT SETS BIT 8 = 1 AND EXITS.  THE NEXT TIME IT FINDS BIT 8 = 1 AND
000322:                                                                                                  #  PROCEEDS, SETTING BITS 8 AND 7 = 0.  AT PROCTNON, IF ISS TURN-ON REQUEST IS PRESENT, THE ISS IS CAGED (ZERO +
000323:                                                                                                  #  COARSE).  IF ISS OPERATE IS NOT PRESENT PROGRAM ALARM 00213 IS ISSUED.  AT THE END OF A 90 SECOND CAGE, BIT 2
000324:                                                                                                  #  OF IMODES30 IS TESTED.  IF IT IS = 1, ISS TURN-ON WAS NOT PRESENT FOR THE ENTIRE 90 SECONDS.  IN THAT CASE, IF
000325:                                                                                                  #  THE ISS TURN-ON REQUEST IS PRESENT THE 90 SECOND WAIT IS REPEATED,  OTHERWISE NO ACTION OCCURS UNLESS A PROGRAM
000326:                                                                                                  #  WAS WAITING FOR THE INITIALIZATION IN WHICH CASE THE PROGRAM IS GIVEN AN IMUSTALL ERROR RETURN.  IF THE DELAY
000327:                                                                                                  #  WENT PROPERLY, THE ISS DELAY OUTBIT IS SENT AND THE ICDU'S ZEROED.  A TASK IS INITIATED TO REMOVE THE PIPA FAIL
000328:                                                                                                  #  INHIBIT BIT IN 10.24 SECONDS.  IF A MISSION PROGRAM WAS WAITING IT IS INFORMED VIA ENDIMU.
000329:
000330:                                                                                                  #  AT PROCTNON, IF ONLY ISS OPERATE IS PRESENT (OPONLY), THE CDU'S ARE ZEROED UNLESS THE PLATFORM IS IN COARSE
000331:                                                                                                  #  ALIGN (= GIMBAL LOCK HERE) OR A MISSION PROGRAM IS USING THE IMU (IMUSEFLG = 1).
000332:
000333:                                                                                                  #  CALLING SEQUENCE:  T4RUPT EVERY 480 MILLISECONDS AFTER IMUMON.
000334:
000335:                                                                                                  #  JOBS OR TASKS INITIATED:  1) ENDTNON, 90 SECONDS AFTER CAGING STARTED.  2) ISSUP, 4 SECONDS AFTER CAGING DONE.
000336:                                                                                                  #        3) PFAILOK, 10.24 SECONDS AFTER INITIALIZATION COMPLETED.  4) UNZ2, 320 MILLISECONDS AFTER ZEROING
000337:                                                                                                  #        STARTED.
000338:
000339:                                                                                                  #  SUBROUTINES CALLED: CAGESUB, CAGESUB2, ZEROICDU, ENDIMU, IMUBAD, NOATTOFF, SETISSW, VARDELAY.
000340:
000341:                                                                                                  #  ERASABLE INITIALIZATION:  SEE IMUMON.
000342:
000343:                                                                                                  #  ALARMS:  PROGRAM ALARM 00213 IF ISS TURN-ON REQUESTED WITHOUT ISS OPERATE.
000344:
000345:                                                                                                  #  EXIT:  ENDTNON EXITS TO C33TEST.  TASKS HAVING TO DO WITH INITIALIZATION EXIT AS FOLLOWS:  MISSION PROGRAM
000346:                                                                                                  #  WAITING AND INITIALIZATION COMPLETE, EXIT TO ENDIMU, MISSION PROGRAM WAITING AND INITIALIZATION FAILED, EXIT TO
000347:                                                                                                  #  IMUBAD, IMU NOT IN USE, EXIT TO TASKOVER.
000348:
000349:                                                                                                  #  OUTPUT:  ISS INITIALIZED.
000350:
000351: 06,2231           41320        TNONTEST           CS       IMODES30                              #  AFTER PROCESSING ALL CHANGES, SEE IF IT


000353: 06,2232           75011                           MASK     BIT7                                  #  IS TIME TO ACT ON A TURN-ON SEQUENCE.
000354: 06,2233           10000                           CCS      A
000355: 06,2234           12367                           TCF      C33TEST                               #  NO - EXAMINE CHANNEL 33.
000356:
000357: 06,2235           35010                           CAF      BIT8                                  #  SEE IF FIRST SAMPLE OR SECOND.
000358: 06,2236           71320                           MASK     IMODES30
000359: 06,2237           10000                           CCS      A
000360: 06,2240           12244                           TCF      PROCTNON                              #  REACT AFTER SECOND SAMPLE.
000361:
000362: 06,2241           35010                           CAF      BIT8                                  #  IF FIRST SAMPLE, SET BIT TO REACT NEXT
000363: 06,2242           27320                           ADS      IMODES30                              #  TIME.
000364: 06,2243           12367                           TCF      C33TEST
000365:
000366:                                                                                                  #  PROCESS IMU TURN-ON REQUESTS AFTER WAITING 1 SAMPLE FOR ALL SIGNALS TO ARRIVE.
000367:
000368: 06,2244           42757        PROCTNON           CS       BITS7&8
000369: 06,2245           71320                           MASK     IMODES30
000370: 06,2246           55320                           TS       IMODES30
000371: 06,2247           75002                           MASK     BIT14                                 #  SEE IF TURN-ON REQUEST.
000372: 06,2250           10000                           CCS      A
000373: 06,2251           12342                           TCF      OPONLY                                #  OPERATE ON ONLY.
000374:
000375: 06,2252           41320                           CS       IMODES30                              #  IF TURN-ON REQUEST, WE SHOULD HAVE IMU
000376: 06,2253           75007                           MASK     BIT9                                  #  OPERATE.
000377: 06,2254           10000                           CCS      A
000378: 06,2255           12260                           TCF      +3
000379:
000380: 06,2256           05650                           TC       ALARM                                 #  ALARM IF NOT.
000381: 06,2257           00213                           OCT      213
000382:
000383: 06,2260           02717                 +3        TC       CAGESUB
000384:
000385: 06,2261           32764                           CAF      90SECS
000386: 06,2262           05245                           TC       WAITLIST
000387: 06,2263  E3,1474                                  EBANK=   CDUIND
000388: 06,2263           02270 14063                     2CADR    ENDTNON
000389:
000390: 06,2265           12367                           TCF      C33TEST
000391:
000392: 06,2266           32764        RETNON             CAF      90SECS
000393: 06,2267           05272                           TC       VARDELAY
000394:
000395: 06,2270           45016        ENDTNON            CS       BIT2                                  #  RESET TURN-ON REQUEST FAIL BIT.
000396: 06,2271           71320                           MASK     IMODES30
000397: 06,2272           57320                           XCH      IMODES30
000398: 06,2273           75016                           MASK     BIT2                                  #  IF IT WAS OFF, SEND ISS DELAY COMPLETE.
000399: 06,2274           00006                           EXTEND
000400: 06,2275           12310                           BZF      ENDTNON2


000402: 06,2276           35002                           CAF      BIT14                                 #  IF IT WAS ON AND TURN-ON REQUEST NOW
000403: 06,2277           71320                           MASK     IMODES30                              #  PRESENT, RE-ENTER 90 SEC DELAY IN WL.
000404: 06,2300           00006                           EXTEND
000405: 06,2301           12266                           BZF      RETNON
000406:
000407: 06,2302           40074                           CS       STATE                                 #  IF IT IS NOT ON NOW, SEE IF A PROG WAS
000408: 06,2303           75010                           MASK     IMUSEFLG                              #  WAITING.
000409: 06,2304           10000                           CCS      A
000410: 06,2305           15324                           TCF      TASKOVER
000411: 06,2306           04701                           TC       POSTJUMP
000412: 06,2307           17522                           CADR     IMUBAD                                #  UNSUCCESSFUL TURN-ON.
000413:
000414: 06,2310           35001        ENDTNON2           CAF      BIT15                                 #  SEND ISS DELAY COMPLETE.
000415: 06,2311           00006                           EXTEND
000416: 06,2312           05012                           WOR      CHAN12                                #  TURN OFF ISS DELAY COUNTER
000417: 06,2313           04740                           TC       IBNKCALL                              #  TURN OFF NO ATT LAMP.
000418: 06,2314           17151                           CADR     NOATTOFF
000419:
000420: 06,2315           05521        UNZ2               TC       ZEROICDU
000421:
000422: 06,2316           45027                           CS       BITS4&5                               #  REMOVE ZERO AND COARSE.
000423: 06,2317           00006                           EXTEND
000424: 06,2320           03012                           WAND     CHAN12
000425:
000426: 06,2321           35005                           CAF      BIT11                                 #  WAIT 10 SECS FOR CTRS TO FIND GIMBALS
000427: 06,2322           05272                           TC       VARDELAY
000428:
000429: 06,2323           42754        ISSUP              CS       OCT54                                 #  REMOVE CAGING, IMU FAIL INHIBIT, AND
000430: 06,2324           71320                           MASK     IMODES30                              #  ICDUFAIL INHIBIT FLAGS.
000431: 06,2325           55320                           TS       IMODES30
000432:
000433: 06,2326           45012                           CS       BIT6                                  #  ENABLE DAP
000434: 06,2327           71321                           MASK     IMODES33
000435: 06,2330           55321                           TS       IMODES33
000436:
000437: 06,2331           02665                           TC       SETISSW                               #  ISS WARNING MIGHT HAVE BEEN INHIBITED.
000438:
000439: 06,2332           45001                           CS       BIT15                                 #  REMOVE IMU DELAY COMPLETE DISCRETE.
000440: 06,2333           00006                           EXTEND
000441: 06,2334           03012                           WAND     CHAN12
000442:
000443: 06,2335           35045                           CAF      4SECS                                 #  DONT ENABLE PROG ALARM ON PIP FAIL FOR
000444: 06,2336           05245                           TC       WAITLIST                              #  ANOTHER 4 SECS.
000445: 06,2337  E3,1474                                  EBANK=   CDUIND
000446: 06,2337           03137 16063                     2CADR    PFAILOK
000447:
000448: 06,2341           15324                           TCF      TASKOVER
000449:
000450: 06,2342           35014        OPONLY             CAF      BIT4


000452: 06,2343           00006                           EXTEND                                         #  IF OPERATE ON ONLY AND WE ARE IN COARSE
000453: 06,2344           02012                           RAND     CHAN12                                #  ALIGN, DONT ZERO THE CDUS BECAUSE WE
000454: 06,2345           10000                           CCS      A                                     #  MIGHT BE IN GIMBAL LOCK. USE V41N20 TO
000455: 06,2346           12367                           TCF      C33TEST                               #  RECOVER.
000456:
000457: 06,2347           35010                           CAF      IMUSEFLG                              #  OTHERWISE, ZERO THE COUNTERS
000458: 06,2350           70074                           MASK     STATE                                 #  UNLESS SOMEONE IS USING THE IMU.
000459: 06,2351           10000                           CCS      A
000460: 06,2352           12367                           TCF      C33TEST
000461:
000462: 06,2353           02730                           TC       CAGESUB2                              #  SET TURNON FLAGS.
000463:
000464: 06,2354           04740        ISSZERO            TC       IBNKCALL                              #  TURN OFF NO ATT LAMP
000465: 06,2355           17151                           CADR     NOATTOFF                              #      IMU CAGE OFF ENTRY
000466:
000467: 06,2356           35013                           CAF      BIT5                                  #  ISS CDU ZERO
000468: 06,2357           00006                           EXTEND
000469: 06,2360           05012                           WOR      CHAN12
000470:
000471: 06,2361           05521                           TC       ZEROICDU
000472: 06,2362           35012                           CAF      BIT6                                  #  WAIT 300 MS FOR AGS TO RECEIVE SIGNAL.
000473: 06,2363           05245                           TC       WAITLIST
000474: 06,2364     1331                                  EBANK=   OPTMODES
000475: 06,2364           02315 14062                     2CADR    UNZ2
000476:
000477: 06,2366           12367                           TCF      C33TEST
000478:


000480:                                                                                                  #  PROGRAM NAME:  C33TEST
000481:
000482:                                                                                                  #  FUNCTIONAL DESCRIPTION:  THIS PROGRAM MONITORS THREE FLIP-FLOP INBITS OF CHANNEL 33 AND CALLS THE APPROPRIATE
000483:                                                                                                  #  SUBROUTINE TO PROCESS A CHANGE.  IT IS ANALOGOUS TO IMUMON, WHICH MONITORS CHANNEL 30, EXCEPT THAT IT READS
000484:                                                                                                  #  CHANNEL 33 WITH A WAND INSTRUCTION BECAUSE A 'WRITE' PULSE IS REQUIRED TO RESET THE FLIP-FLOPS.  THE BITS
000485:                                                                                                  #  PROCESSED AND THE SUBROUTINES CALLED ARE:
000486:                                                                                                  #        BIT     FUNCTION                SUBROUTINE
000487:                                                                                                  #        ---     --------                ----------
000488:                                                                                                  #         13     PIPA FAIL               PIPFAIL
000489:                                                                                                  #         12     DOWNLINK TOO FAST       DNTMFAST
000490:                                                                                                  #         11     UPLINK TOO FAST         UPTMFAST
000491:
000492:                                                                                                  #  UPON ENTRY TO THE SUBROUTINE, THE NEW BIT STATE IS IN A.
000493:
000494:                                                                                                  #  CALLING SEQUENCE:  EVERY 480 MILLISECONDS AFTER TNONTEST.
000495:
000496:                                                                                                  #  JOBS OR TASKS INITIATED:  NONE.
000497:
000498:                                                                                                  #  SUBROUTINES CALLED:  PIPFAIL, DNTMFAST AND UPTMFAST ON BIT CHANGES.
000499:
000500:                                                                                                  #  ERASABLE INITIALIZATION:  C(IMODES33) = OCT 16000 ON A FRESH START OR RESTART, THEREFORE, THESE ALARMS WILL
000501:                                                                                                  #  REAPPEAR IF THE CONDITIONS PERSIST.
000502:
000503:                                                                                                  #  ALARMS:  NONE.
000504:
000505:                                                                                                  #  EXIT:  GLOCKMON.
000506:
000507:                                                                                                  #  OUTPUT:  UPDATED BITS 13, 12 AND 11 OF IMODES33 WITH CHANGES PROCESSED.
000508:
000509: 06,2367           31321        C33TEST            CA       IMODES33                              #  SEE IF RELEVANT CHAN33 BITS HAVE
000510: 06,2370           75070                           MASK     33RDMSK
000511: 06,2371           54001                           TS       L                                     #  CHANGED.
000512: 06,2372           35070                           CAF      33RDMSK
000513: 06,2373           00006                           EXTEND
000514: 06,2374           03033                           WAND     CHAN33                                #  RESETS FLIP-FLOP INPUTS.
000515: 06,2375           00006                           EXTEND
000516: 06,2376           06001                           RXOR     LCHAN
000517: 06,2377           00006                           EXTEND
000518: 06,2400           12427                           BZF      GLOCKMON                              #  ON NO CHANGE.
000519:
000520: 06,2401           54070                           TS       RUPTREG1                              #  SAVE BITS WHICH HAVE CHANGED.
000521: 06,2402           23321                           LXCH     IMODES33
000522: 06,2403           00006                           EXTEND
000523: 06,2404           06001                           RXOR     LCHAN
000524: 06,2405           55321                           TS       IMODES33                              #  UPDATED IMODES33.
000525:
000526: 06,2406           35021                           CAF      ZERO
000527: 06,2407           56070                           XCH      RUPTREG1
000528: 06,2410           60000                           DOUBLE


000530: 06,2411           12414                           TCF      NXTIBT     +1                         #  SCAN FOR BIT CHANGES.
000531:
000532: 06,2412           65017                 -1        AD       ONE
000533: 06,2413           24070        NXTIBT             INCR     RUPTREG1
000534: 06,2414           60000                 +1        DOUBLE
000535: 06,2415           54000                           TS       A                                     #  (CODING IDENTICAL TO CHAN 30).
000536: 06,2416           12413                           TCF      NXTIBT
000537:
000538: 06,2417           56071                           XCH      RUPTREG2
000539: 06,2420           50070                           INDEX    RUPTREG1                              #  GET NEW VALUE OF BIT WHICH CHANGED.
000540: 06,2421           35003                           CAF      BIT13
000541: 06,2422           71321                           MASK     IMODES33
000542: 06,2423           50070                           INDEX    RUPTREG1
000543: 06,2424           02745                           TC       C33JMP
000544:
000545: 06,2425           10071        NXTFL33            CCS      RUPTREG2                              #  PROCESS POSSIBLE ADDITIONAL CHANGES.
000546: 06,2426           12412                           TCF      NXTIBT     -1
000547:


000549:                                                                                                  #  PROGRAM NAME:  GLOCKMON
000550:
000551:                                                                                                  #  FUNCTIONAL DESCRIPTION:  THIS PROGRAM MONITORS THE CDUZ COUNTER TO DETERMINE WHETHER THE ISS IS IN GIMBAL LOCK
000552:                                                                                                  #  AND TAKES ACTION IF IT IS.  THREE REGIONS OF MIDDLE GIMBAL ANGLE (MGA) ARE USED:
000553:
000554:                                                                                                  #        1) ABS(MGA) LESS THAN OR EQUAL TO 70 DEGREES - NORMAL MODE.
000555:                                                                                                  #        2) ABS(MGA) GREATER THAN 70 DEGREES AND LESS THAN OR EQUAL TO 85 DEGREES - GIMBAL LOCK LAMP TURNED ON.
000556:                                                                                                  #        3) ABS(MGA) GREATER THAN 85 DEGREES - ISS PUT IN COARSE ALIGN AND NO ATT LAMP TURNED ON.
000557:
000558:                                                                                                  #  CALLING SEQUENCE:  EVERY 480 MILLISECONDS AFTER C33TEST.
000559:
000560:                                                                                                  #  JOBS OR TASKS INITIATED:  NONE.
000561:
000562:                                                                                                  #  SUBROUTINES CALLED:   1) SETCOARS WHEN ABS(MGA) GREATER THAN 85 DEGREES AND ISS NOT IN COARSE ALIGN.
000563:                                                                                                  #                        2) LAMPTEST BEFORE TURNING OFF GIMBAL LOCK LAMP.
000564:
000565:                                                                                                  #  ERASABLE INITIALIZATION:
000566:                                                                                                  #                1) FRESH START OR RESTART WITH NO GROUPS ACTIVE:  C(CDUZ) = 0, IMODES30 BIT 6 = 0, IMODES33 BIT 1 = 0.
000567:                                                                                                  #                2) RESTART WITH GROUPS ACTIVE:  SAME AS FRESH START EXCEPT C(CDUZ) NOT CHANGED SO GIMBAL MONITOR
000568:                                                                                                  #                                                PROCEEDS AS BEFORE.
000569:
000570:                                                                                                  #  ALARMS:       1) MGA REGION (2) CAUSES GIMBAL LOCK LAMP TO BE LIT.
000571:                                                                                                  #                2) MGA REGION (3) CAUSES THE ISS TO BE PUT IN COARSE ALIGN AND THE NO ATT LAMP TO BE LIT IF EITHER NOT
000572:                                                                                                  #                   SO ALREADY.
000573:
000574: 06,2427           10034        GLOCKMON           CCS      CDUZ
000575: 06,2430           12434                           TCF      GLOCKCHK                              #  SEE IF MAGNITUDE OF MGA IS GREATER THAN
000576: 06,2431           12460                           TCF      SETGLOCK                              #  70 DEGREES.
000577: 06,2432           12434                           TCF      GLOCKCHK
000578: 06,2433           12460                           TCF      SETGLOCK
000579:
000580: 06,2434           62505        GLOCKCHK           AD       -70DEGS
000581: 06,2435           00006                           EXTEND
000582: 06,2436           62457                           BZMF     SETGLOCK   -1                         #  NO LOCK.
000583:
000584: 06,2437           62506                           AD       -15DEGS                               #  SEE IF ABS(MGA) GREATER THAN 85 DEGS.
000585: 06,2440           00006                           EXTEND
000586: 06,2441           62455                           BZMF     NOGIMRUN
000587:
000588: 06,2442           35014                           CAF      BIT4                                  #  IF SO, SYSTEM SHOULD BE IN COARSE ALIGN
000589: 06,2443           00006                           EXTEND                                         #  TO PREVENT GIMBAL RUN-AWAY.
000590: 06,2444           02012                           RAND     CHAN12
000591: 06,2445           10000                           CCS      A
000592: 06,2446           12455                           TCF      NOGIMRUN
000593:
000594: 06,2447           04740                           TC       IBNKCALL                              #  GO INTO COARSE ALIGN.
000595: 06,2450           17027                           CADR     SETCOARS
000596:
000597: 06,2451           36211                           CAF      SIX                                   #  ENABLE ISS ERROR COUNTERS IN 60 MS
000598: 06,2452           05245                           TC       WAITLIST


000600: 06,2453  E3,1474                                  EBANK=   CDUIND
000601: 06,2453           03023 16063                     2CADR    CA+ECE
000602:
000603: 06,2455           35012        NOGIMRUN           CAF      BIT6                                  #  TURN ON GIMBAL LOCK LAMP.
000604: 06,2456           12460                           TCF      SETGLOCK
000605:
000606: 06,2457           35021                 -1        CAF      ZERO
000607: 06,2460           61036        SETGLOCK           AD       DSPTAB     +11D                       #  SEE IF PRESENT STATE OF GIMBAL LOCK LAMP
000608: 06,2461           75012                           MASK     BIT6                                  #  AGREES WITH DESIRED STATE BY HALF ADDING
000609: 06,2462           00006                           EXTEND                                         #  THE TWO.
000610: 06,2463           15333                           BZF      GLOCKOK                               #  OK AS IS.
000611:
000612: 06,2464           71036                           MASK     DSPTAB     +11D                       #  IF OFF, DONT TURN ON IF IMU BEING CAGED.
000613: 06,2465           10000                           CCS      A
000614: 06,2466           12502                           TCF      GLAMPTST                              #  TURN OFF UNLESS LAMP TEST IN PROGRESS.
000615:
000616: 06,2467           35012                           CAF      BIT6
000617: 06,2470           71320                           MASK     IMODES30
000618: 06,2471           10000                           CCS      A
000619: 06,2472           15333                           TCF      GLOCKOK
000620:
000621: 06,2473           41036        GLINVERT           CS       DSPTAB     +11D                       #  INVERT GIMBAL LOCK LAMP.
000622: 06,2474           75012                           MASK     BIT6
000623: 06,2475           65001                           AD       BIT15                                 #  TO INDICATE CHANGE IN DSPTAB +11D.
000624: 06,2476           57036                           XCH      DSPTAB     +11D
000625: 06,2477           72164                           MASK     OCT37737
000626: 06,2500           27036                           ADS      DSPTAB     +11D
000627: 06,2501           15333                           TCF      GLOCKOK
000628:
000629: 06,2502           02750        GLAMPTST           TC       LAMPTEST                              #  TURN OFF UNLESS LAMP TEST IN PROGRESS.
000630: 06,2503           15333                           TCF      GLOCKOK
000631: 06,2504           12473                           TCF      GLINVERT
000632:
000633: 06,2505           63434        -70DEGS            DEC      -.38888                               #  -70 DEGREES SCALED IN HALF-REVOLUTIONS.
000634: 06,2506           75252        -15DEGS            DEC      -.08333
000635:


000637:                                                                                                  #  PROGRAM NAME:  TLIM.
000638:
000639:                                                                                                  #  FUNCTIONAL DESCRIPTION:  THIS PROGRAM MAINTAINS THE TEMP LAMP (BIT 4 OF CHANNEL 11) ON THE DSKY TO AGREE WITH
000640:                                                                                                  #  THE TEMP SIGNAL FROM THE ISS (BIT 15 OF CHANNEL 30).  HOWEVER, THE LIGHT WILL NOT BE TURNED OFF IF A LAMP TEST
000641:                                                                                                  #  IS IN PROGRESS.
000642:
000643:                                                                                                  #  CALLING SEQUENCE:  CALLED BY IMUMON ON A CHANGE OF BIT 15 OF CHANNEL 30.
000644:
000645:                                                                                                  #  JOBS OR TASKS INITIATED:  NONE.
000646:
000647:                                                                                                  #  SUBROUTINES CALLED:  LAMPTEST.
000648:
000649:                                                                                                  #  ERASABLE INITIALIZATION:  FRESH START AND RESTART TURN THE TEMP LAMP OFF.
000650:
000651:                                                                                                  #  ALARMS:  TEMP LAMP TURNED ON WHEN IMU TEMP GOES OUT OF LIMITS.
000652:
000653:                                                                                                  #  EXIT:  NXTIFAIL.
000654:
000655:                                                                                                  #  OUTPUT:  SERVICE OF TEMP LAMP.                  IN A, EXCEPT FOR TLIM.
000656:
000657: 06,2507           74777        TLIM               MASK     POSMAX                                #  REMOVE BIT FROM WORD OF CHANGES AND SET
000658: 06,2510           54071                           TS       RUPTREG2                              #  DSKY TEMP LAMP ACCORDINGLY.
000659:
000660: 06,2511           11320                           CCS      IMODES30
000661: 06,2512           12520                           TCF      TEMPOK
000662: 06,2513           12520                           TCF      TEMPOK
000663:
000664: 06,2514           35014                           CAF      BIT4                                  #  TURN ON LAMP.
000665: 06,2515           00006                           EXTEND
000666: 06,2516           05011                           WOR      DSALMOUT
000667: 06,2517           12227                           TCF      NXTIFAIL
000668:
000669: 06,2520           02750        TEMPOK             TC       LAMPTEST                              #  IF TEMP NOW OK, DONT TURN OFF LAMP IF
000670: 06,2521           12227                           TCF      NXTIFAIL                              #  LAMP TEST IN PROGRESS.
000671:
000672: 06,2522           45014                           CS       BIT4
000673: 06,2523           00006                           EXTEND
000674: 06,2524           03011                           WAND     DSALMOUT                              #  TURN OFF TEMP CAUTION
000675: 06,2525           12227                           TCF      NXTIFAIL
000676:


000678:                                                                                                  #  PROGRAM NAME:  ITURNON.
000679:
000680:                                                                                                  #  FUNCTIONAL DESCRIPTION:  THIS PROGRAM IS CALLED BY IMUMON WHEN A CHANGE OF BIT 14 OF CHANNEL 30 (ISS TURN-ON
000681:                                                                                                  #  REQUEST) IS DETECTED.  UPON ENTRY, ITURNON CHECKS IF A TURN-ON DELAY SEQUENCE HAS FAILED, AND IF SO, IT EXITS.
000682:                                                                                                  #  IF NOT, IT CHECKS WHETHER THE TURN-ON REQUEST CHANGE IS TO ON OR OFF.  IF ON, IT SETS BIT 7 OF IMODES30 TO 1 SO
000683:                                                                                                  #  THAT TNONTEST WILL INITIATE THE ISS INITIALIZATION SEQUENCE.  IF OFF, THE TURN-ON DELAY SIGNAL, CHANNEL 12 BIT
000684:                                                                                                  #  15, IS CHECKED AND IF IT IS ON, ITURNON EXITS.  IF THE DELAY SIGNAL IS OFF, PROGRAM ALARM 00207 IS ISSUED, BIT 2
000685:                                                                                                  #  OF IMODES30 IS SET TO 1 AND THE PROGRAM EXITS.
000686:
000687:                                                                                                  #  THE SETTING OF BIT 2 OF IMODES30 (ISS DELAY SEQUENCE FAIL) INHIBITS THIS ROUTINE AND IMUOP FROM
000688:                                                                                                  #  PROCESSING ANY CHANGES.  THIS BIT WILL BE RESET BY THE ENDTNON ROUTINE WHEN THE CURRENT 90 SECOND DELAY PERIOD
000689:                                                                                                  #  ENDS.
000690:
000691:                                                                                                  #  CALLING SEQUENCE:  FROM IMUMOM WHEN ISS TURN-ON REQUEST CHANGES STATE.
000692:
000693:                                                                                                  #  JOBS OR TASKS INITIATED:  NONE.
000694:
000695:                                                                                                  #  SUBROUTINES CALLED:  ALARM, IF THE ISS TURN-ON REQUEST IS NOT PRESENT FOR 90 SECONDS.
000696:
000697:                                                                                                  #  ERASABLE INITIALIZATION:  FRESH START AND RESTART SET BIT 15 OF CHANNEL 12 AND BITS 2 AND 7 OF IMODES30 TO 0,
000698:                                                                                                  #  AND BIT 14 OF IMODES30 TO 1.
000699:
000700:                                                                                                  #  ALARMS: PROGRAM ALARM 00207 IS ISSUED IF THE ISS TURN-ON REQUEST SIGNAL IS NOT PRESENT FOR 90 SECONDS.
000701:
000702:                                                                                                  #  EXIT:  NXTIFAIL.
000703:
000704:                                                                                                  #  OUTPUT:  BIT 7 OF IMODES30 TO START ISS INITIALIZATION, OR BIT 2 OF IMODES30 AND PROGRAM ALARM 00207 TO INDICATE
000705:                                                                                                  #  A FAILED TURN-ON SEQUENCE.
000706:
000707: 06,2526           35016        ITURNON            CAF      BIT2                                  #  IF DELAY REQUEST HAS GONE OFF
000708: 06,2527           71320                           MASK     IMODES30                              #  PREMATURELY, DO NOT PROCESS ANY CHANGES
000709: 06,2530           10000                           CCS      A                                     #  UNTIL THE CURRENT 90 SEC WAIT EXPIRES.
000710: 06,2531           12227                           TCF      NXTIFAIL
000711:
000712: 06,2532           35002                           CAF      BIT14                                 #  SEE IF JUST ON OR OFF.
000713: 06,2533           71320                           MASK     IMODES30
000714: 06,2534           00006                           EXTEND
000715: 06,2535           12551                           BZF      ITURNON2                              #  IF JUST ON.
000716:
000717: 06,2536           35001                           CAF      BIT15
000718: 06,2537           00006                           EXTEND                                         #  SEE IF DELAY PRESENT DISCRETE HAS BEEN
000719: 06,2540           02012                           RAND     CHAN12                                #  SENT.  IF SO, ACTION COMPLETE.
000720: 06,2541           00006                           EXTEND
000721: 06,2542           12544                           BZF      +2
000722: 06,2543           12227                           TCF      NXTIFAIL
000723:
000724: 06,2544           35016                           CAF      BIT2                                  #  IF NOT, SET BIT TO INDICATE REQUEST NOT
000725: 06,2545           27320                           ADS      IMODES30                              #  PRESENT FOR FULL DURATION.
000726: 06,2546           05650                           TC       ALARM
000727: 06,2547           00207                           OCT      207
000728: 06,2550           12227                           TCF      NXTIFAIL
000729:


000731: 06,2551           41320        ITURNON2           CS       IMODES30                              #  SET BIT7 TO INDICATE WAIT OF 1 SAMPLE
000732: 06,2552           75011                           MASK     BIT7
000733: 06,2553           27320                           ADS      IMODES30
000734: 06,2554           12227                           TCF      NXTIFAIL
000735:


000737:                                                                                                  #  PROGRAM NAME:  IMUCAGE.
000738:
000739:                                                                                                  #  FUNCTIONAL DESCRIPTION:  THIS PROGRAM PROCESSES CHANGES OF THE IMUCAGE INBIT, CHANNEL 30 BIT 11.  IF THE BIT
000740:                                                                                                  #  CHANGES TO 0 (CAGE BUTTON PRESSED), THE ISS IS CAGED (ICDU ZERO + COARSE ALIGN + NO ATT LAMP) UNTIL THE
000741:                                                                                                  #  ASTRONAUT SELECTS ANOTHER PROGRAM TO ALIGN THE ISS.  ANY PULSE TRAINS TO THE ICDU'S AND GYRO'S ARE TERMINATED,
000742:                                                                                                  #  THE ASSOCIATED OUTCOUNTERS ARE ZEROED AND THE GYRO'S ARE DE-SELECTED.  NO ACTION OCCURS WHEN THE BUTTON IS
000743:                                                                                                  #  RELEASED (INBIT CHANGES TO 1).
000744:
000745:                                                                                                  #  CALLING SEQUENCE:  BY IMUMON WHEN IMU CAGE BIT CHANGES.
000746:
000747:                                                                                                  #  JOBS OR TASKS INITIATED:  NONE.
000748:
000749:                                                                                                  #  SUBROUTINES CALLED:  CAGESUB.
000750:
000751:                                                                                                  #  ERASABLE INITIALIZATION:  FRESH START AND RESTART SET BIT 11 OF IMODES30 TO 1.
000752:
000753:                                                                                                  #  ALARMS: NONE.
000754:
000755:                                                                                                  #  EXIT:  NXTIFAIL.
000756:
000757:                                                                                                  #  OUTPUT:  ISS CAGED, COUNTERS ZEROED, PULSE TRAINS TERMINATED AND NO ATT LAMP LIT.
000758:
000759: 06,2555           10000        IMUCAGE            CCS      A                                     #  NO ACTION IF GOING OFF.
000760: 06,2556           12354                           TCF      ISSZERO
000761: 06,2557           42762                           CS       OCT77000                              #  TERMINATE ICDU, OPTICS, GYRO PULSE TRAINS
000762: 06,2560           00006                           EXTEND
000763: 06,2561           03014                           WAND     CHAN14
000764:
000765: 06,2562           42756                           CS       OCT272                                #  KNOCK DOWN TVC ENABLE, IMU ERROR COUNTER
000766: 06,2563           00006                           EXTEND                                         #    ENABLE, ZERO ICDU, COARSE ALIGN
000767: 06,2564           03012                           WAND     CHAN12                                #    ENABLE, OPTICS ERR CNTR ENABLE
000768:
000769: 06,2565           45003                           CS       BIT13                                 #  TURN OFF ENGINE
000770: 06,2566           00006                           EXTEND
000771: 06,2567           03011                           WAND     DSALMOUT
000772:
000773: 06,2570           02725                           TC       CAGESUB1
000774:
000775: 06,2571           04740                           TC       IBNKCALL                              #  KNOCK DOWN TRACK, REFSMMAT, DRIFT FLAGS
000776: 06,2572           17060                           CADR     RNDREFDR
000777:
000778: 06,2573           45021                           CS       ZERO                                  #  ZERO COMMAND OUT-COUNTERS
000779: 06,2574           54050                           TS       CDUXCMD
000780: 06,2575           54051                           TS       CDUYCMD
000781: 06,2576           54052                           TS       CDUZCMD
000782: 06,2577           54047                           TS       GYROCMD
000783:
000784: 06,2600           42761                           CS       OCT740                                #  HAVING WAITED AT LEAST 27 MCT FROM
000785: 06,2601           00006                           EXTEND                                         #  GYRO PULSE TRAIN TERMINATION, WE CAN
000786: 06,2602           03014                           WAND     CHAN14                                #  DE-SELECT THE GYROS.


000788: 06,2603           12227                           TCF      NXTIFAIL
000789:


000791:                                                                                                  #  PROGRAM NAME:  IMUOP.
000792:
000793:                                                                                                  #  FUNCTIONAL DESCRIPTION:  THIS PROGRAM PROCESSES CHANGES IN THE ISS OPERATE DISCRETE, BIT 9 OF CHANNEL 30.
000794:                                                                                                  #  IF THE INBIT CHANGES TO 0, INDICATING ISS ON, IMUOP GENERALLY SETS BIT 7 OF IMODES30 TO 1 TO REQUEST ISS
000795:                                                                                                  #  INITIALIZATION VIA TNONTEST.  AN EXCEPTION IS DURING A FAILED ISS DELAY DURING WHICH BIT 2 OF IMODES30 IS SET
000796:                                                                                                  #  TO 1 AND NO FURTHER INITIALIZATION IS REQUIRED.  WHEN THE INBIT CHANGES TO 1, INDICATING ISS OFF, IMUSEFLG IS
000797:                                                                                                  #  TESTED TO SEE IF ANY PROGRAM WAS USING THE ISS.  IF SO, PROGRAM ALARM 00214 IS ISSUED.
000798:
000799:                                                                                                  #  CALLING SEQUENCE:  BY IMUMON WHEN BIT 9 OF CHANNEL 30 CHANGES.
000800:
000801:                                                                                                  #  JOBS OR TASKS INITIATED:  NONE.
000802:
000803:                                                                                                  #  SUBROUTINES CALLED:  ALARM, IF ISS IS TURNED OFF WHILE IN USE.
000804:
000805:                                                                                                  #  ERASABLE INITIALIZATION:  ON FRESH START AND RESTART, BIT 9 OF IMODES30 IS SET TO 1 EXCEPT WHEN THE GIMBAL LOCK
000806:                                                                                                  #  LAMP IS ON, IN WHICH CASE IT IS SET TO 0.  THIS PREVENTS ICDU ZERO BY TNONTEST WITH THE ISS IN GIMBAL LOCK.
000807:
000808:                                                                                                  #  ALARMS:  PROGRAM ALARM 00214 IF THE ISS IS TURNED OFF WHILE IN USE.
000809:
000810:                                                                                                  #  EXIT:  NXTIFAIL.
000811:
000812:                                                                                                  #  OUTPUT:  ISS INITIALIZATION REQUEST (IMODES30 BIT 7) OR PROGRAM ALARM 00214.
000813:
000814: 06,2604           00006        IMUOP              EXTEND                                         #  IF OPERATE JUST ON, WAIT 1 SAMPLE.
000815: 06,2605           12625                           BZF      IMUOP2
000816:
000817: 06,2606           41321                           CS       IMODES33                              #  DISABLE DAP
000818: 06,2607           75012                           MASK     BIT6
000819: 06,2610           27321                           ADS      IMODES33
000820:
000821: 06,2611           04740                           TC       IBNKCALL                              #  KNOCK DOWN TRACK, REFSMMAT, DRIFT FLAGS
000822: 06,2612           17060                           CADR     RNDREFDR
000823:
000824: 06,2613           42757                           CS       BITS7&8                               #  KNOCK DOWN RENDEVOUS, IMUUSE FLAGS
000825: 06,2614           70074                           MASK     STATE
000826: 06,2615           56074                           XCH      STATE                                 #  IF GOING OFF, ALARM IF PROG USING IMU
000827: 06,2616           40000                           COM
000828: 06,2617           75010                           MASK     IMUSEFLG
000829: 06,2620           10000                           CCS      A
000830: 06,2621           12227                           TCF      NXTIFAIL
000831:
000832: 06,2622           05650                           TC       ALARM
000833: 06,2623           00214                           OCT      214
000834: 06,2624           12227                           TCF      NXTIFAIL
000835:
000836: 06,2625           35016        IMUOP2             CAF      BIT2                                  #  SEE IF FAILED ISS TURN-ON SEQ IN PROG.
000837: 06,2626           71320                           MASK     IMODES30
000838: 06,2627           10000                           CCS      A
000839: 06,2630           12227                           TCF      NXTIFAIL                              #  IF SO, DONT PROCESS UNTIL PRESENT 90
000840: 06,2631           12551                           TCF      ITURNON2                              #  SECONDS EXPIRES.
000841:


000843:                                                                                                  #  PROGRAM NAME:  PIPFAIL
000844:
000845:                                                                                                  #  FUNCTIONAL DESCRIPTION:  THIS PROGRAM PROCESSES CHANGES OF BIT 13 OF CHANNEL 33, PIPA FAIL.  IT SETS BIT 10 OF
000846:                                                                                                  #  IMODES30 TO AGREE.  IT CALLS SETISSW IN CASE A PIPA FAIL NECESSITATES AN ISS WARNING.  IF NOT, I.E., IMODES30
000847:                                                                                                  #  BIT 1 = 1, AND A PIPA FAIL IS PRESENT AND THE ISS IS NOT BEING INITIALIZED, PROGRAM ALARM 00212 IS ISSUED.
000848:
000849:                                                                                                  #  CALLING SEQUENCE:  BY C33TEST ON CHANGES OF CHANNEL 33 BIT 13.
000850:
000851:                                                                                                  #  JOBS OR TASKS INITIATED:  NONE.
000852:
000853:                                                                                                  #  SUBROUTINES CALLED:  1) SETISSW, AND 2) ALARM (SEE FUNCTIONAL DESCRIPTION).
000854:
000855:                                                                                                  #  ERASABLE INITIALIZATION:  SEE IMUMON FOR INITIALIZATION OF IMODES30.  THE RELAVANT BITS ARE 5, 7, 8, 9, AND 10.
000856:
000857:                                                                                                  #  ALARMS:  PROGRAM ALARM 00212 IF PIPA FAIL IS PRESENT BUT NEITHER ISS WARNING IS TO BE ISSUED NOR THE ISS IS
000858:                                                                                                  #  BEING INITIALIZED.
000859:
000860:                                                                                                  #  EXIT:  NXTFL33.
000861:
000862:                                                                                                  #  OUTPUT:  PROGRAM ALARM 00212 AND ISS WARNING MAINTENANCE.
000863:
000864: 06,2632           10000        PIPFAIL            CCS      A                                     #  SET BIT10 IN IMODES30 SO ALL ISS WARNING
000865: 06,2633           35006                           CAF      BIT10                                 #  INFO IS IN ONE REGISTER.
000866: 06,2634           57320                           XCH      IMODES30
000867: 06,2635           72763                           MASK     -BIT10
000868: 06,2636           27320                           ADS      IMODES30
000869:
000870: 06,2637           02665                           TC       SETISSW
000871:
000872: 06,2640           41320                           CS       IMODES30                              #  IF PIP FAIL DOESNT LIGHT ISS WARNING, DO
000873: 06,2641           75017                           MASK     BIT1                                  #  A PROGRAM ALARM IF IMU OPERATING BUT NOT
000874: 06,2642           10000                           CCS      A                                     #  CAGED OR BEING TURNED ON.
000875: 06,2643           12425                           TCF      NXTFL33
000876:
000877: 06,2644           31320                           CA       IMODES30
000878: 06,2645           72760                           MASK     OCT1720
000879: 06,2646           10000                           CCS      A
000880: 06,2647           12425                           TCF      NXTFL33                               #  ABOVE CONDITION NOT MET.
000881:
000882: 06,2650           05650                           TC       ALARM
000883: 06,2651           00212                           OCT      212
000884: 06,2652           12425                           TCF      NXTFL33
000885:


000887:                                                                                                  #  PROGRAM NAMES:  DNTMFAST, UPTMFAST
000888:
000889:                                                                                                  #  FUNCTIONAL DESCRIPTION:  THESE PROGRAMS PROCESS CHANGES OF BITS 12 AND 11 OF CHANNEL 33.  IF A BIT CHANGES TO A
000890:                                                                                                  #  0, A PROGRAM ALARM IS ISSUED.  THE ALARMS ARE:
000891:
000892:                                                                                                  #        BIT     ALARM   CAUSE
000893:                                                                                                  #        ---     -----   -----
000894:                                                                                                  #         12     01105   DOWNLINK TOO FAST
000895:                                                                                                  #         11     01106   UPLINK TOO FAST
000896:
000897:                                                                                                  #  CALLING SEQUENCE:  BY C33TEST ON A BIT CHANGE.
000898:
000899:                                                                                                  #  SUBROUTINES CALLED:  ALARM, IF A BIT CHANGES TO A 0.
000900:
000901:                                                                                                  #  ERASABLE INITIALIZATION:  FRESH START OR RESTART, BITS 12 AND 11 OF IMODES33 ARE SET TO 1.
000902:
000903:                                                                                                  #  ALARMS:  SEE FUNCTIONAL DESCRIPTION.
000904:
000905:                                                                                                  #  EXIT:  NXTFL33.
000906:
000907:                                                                                                  #  OUTPUT:  PROGRAM ALARM ON A BIT CHANGE TO 0.
000908:
000909: 06,2653           10000        DNTMFAST           CCS      A                                     #  DO PROG ALARM IF TM TOO FAST.
000910: 06,2654           12425                           TCF      NXTFL33
000911:
000912: 06,2655           05650                           TC       ALARM
000913: 06,2656           01105                           OCT      1105
000914: 06,2657           12425                           TCF      NXTFL33
000915:
000916: 06,2660           10000        UPTMFAST           CCS      A                                     #  SAME AS DNLINK TOO FAST WITH DIFFERENT
000917: 06,2661           12425                           TCF      NXTFL33                               #  ALARM CODE.
000918:
000919: 06,2662           05650                           TC       ALARM
000920: 06,2663           01106                           OCT      1106
000921: 06,2664           12425                           TCF      NXTFL33
000922:


000924:                                                                                                  #  PROGRAM NAME:  SETISSW
000925:
000926:                                                                                                  #  FUNCTIONAL DESCRIPTION:  THIS PROGRAM TURNS THE ISS WARNING LAMP ON AND OFF (CHANNEL 11 BIT 1 = 1 FOR ON,
000927:                                                                                                  #  0 FOR OFF) DEPENDING ON THE STATUS OF IMODES30 BITS 13 (IMU FAIL) AND 4 (INHIBIT IMU FAIL), 12 (ICDU FAIL) AND
000928:                                                                                                  #  3 (INHIBIT ICDU FAIL), AND 10 (PIPA FAIL) AND 1 (INHIBIT PIPA FAIL).  THE LAMP IS LEFT ON IF A LAMP TEST IS IN
000929:                                                                                                  #  PROGRESS.
000930:
000931:                                                                                                  #  CALLING SEQUENCE:  CALLED BY IMUMON ON CHANGES TO IMU FAIL AND ICDU FAIL.  CALLED BY IFAILOK AND PFAILOK UPON
000932:                                                                                                  #  REMOVAL OF THE FAIL INHIBITS.  CALLED BY PIPFAIL WHEN THE PIPA FAIL DISCRETE CHANGES.  IT IS CALLED BY PIPUSE
000933:                                                                                                  #  SINCE THE PIPA FAIL PROGRAM ALARM MAY NECESSITATE AN ISS WARNING, AND LIKEWISE BY PIPFREE WHEN THE ALARM DEPARTS
000934:                                                                                                  #  AND IT IS CALLED BY IMUZERO3 AND ISSUP AFTER THE FAIL INHIBITS HAVE BEEN REMOVED.
000935:
000936:                                                                                                  #  JOBS OR TASKS INITIATED:  NONE.
000937:
000938:                                                                                                  #  SUBROUTINES CALLED:  NONE.
000939:
000940:                                                                                                  #  ERASABLE INITIALIZATION:
000941:
000942:                                                                                                  #        1) IMODES30 - SEE IMUMON.
000943:                                                                                                  #        2) IMODES33 BIT 1 = 0 (LAMP TEST NOT IN PROGRESS).
000944:
000945:                                                                                                  #  ALARMS:  ISS WARNING.
000946:
000947:                                                                                                  #  EXIT: VIA Q.
000948:
000949:                                                                                                  #  OUTPUT: ISS WARNING LAMP SET PROPERLY.
000950:
000951: 06,2665           35025        SETISSW            CAF      OCT15                                 #  SET ISS WARNING USING THE FAIL BITS IN
000952: 06,2666           71320                           MASK     IMODES30                              #  BITS 13, 12, AND 10 OF IMODES30 AND THE
000953: 06,2667           00006                           EXTEND                                         #  FAILURE INHIBIT BITS IN POSITIONS
000954: 06,2670           75006                           MP       BIT10                                 #  4, 3, AND 1.
000955: 06,2671           31320                           CA       IMODES30
000956: 06,2672           00006                           EXTEND
000957: 06,2673           04001                           ROR      LCHAN                                 #  0 INDICATES FAILURE.
000958: 06,2674           40000                           COM
000959: 06,2675           75067                           MASK     OCT15000
000960: 06,2676           10000                           CCS      A
000961: 06,2677           12710                           TCF      ISSWON                                #  FAILURE.
000962:
000963: 06,2700           35017        ISSWOFF            CAF      BIT1                                  #  DONT TURN OFF ISS WARNING IF LAMP TEST
000964: 06,2701           71321                           MASK     IMODES33                              #  IN PROGRESS.
000965: 06,2702           10000                           CCS      A
000966: 06,2703           00002                           TC       Q
000967:
000968: 06,2704           45017                           CS       BIT1
000969: 06,2705           00006                           EXTEND
000970: 06,2706           03011                           WAND     DSALMOUT                              #  TURN OFF ISS WARNING
000971: 06,2707           00002                           TC       Q
000972:
000973: 06,2710           00006        ISSWON             EXTEND


000975: 06,2711           22066                           QXCH     ITEMP6
000976: 06,2712           05756                           TC       VARALARM                              #  TELL EVERYONE WHAT CAUSED THE ISS WARNING
000977: 06,2713           35017                           CAF      BIT1
000978: 06,2714           00006                           EXTEND
000979: 06,2715           05011                           WOR      DSALMOUT                              #  TURN ON ISS WARNING
000980: 06,2716           00066                           TC       ITEMP6
000981:
000982: 06,2717           47703        CAGESUB            CS       BIT15+6                               #  SET OUTBITS + INTERNAL FLAGS FOR
000983: 06,2720           00006                           EXTEND                                         #  SYSTEM TURN-ON OR CAGE.  DISABLE THE
000984: 06,2721           03012                           WAND     CHAN12                                #  ERROR COUNTER AND REMOVE IMU DELAY COMP.
000985: 06,2722           35027                           CAF      BITS4&5                               #  SEND ZERO AND COARSE.
000986: 06,2723           00006                           EXTEND
000987: 06,2724           05012                           WOR      CHAN12
000988:
000989: 06,2725           41036        CAGESUB1           CS       DSPTAB     +11D                       #  TURN ON NO ATT LAMP
000990: 06,2726           72753                           MASK     OC40010
000991: 06,2727           27036                           ADS      DSPTAB     +11D
000992:
000993: 06,2730           41320        CAGESUB2           CS       IMODES30                              #  SET FLAGS TO INDICATE CAGING OR TURN-ON
000994: 06,2731           72755                           MASK     OCT75                                 #  AND INHIBIT ALL ISS WARNING INFO
000995: 06,2732           27320                           ADS      IMODES30
000996:
000997: 06,2733           41321                           CS       IMODES33                              #  DISABLE DAP AUTO AND HOLD MODES
000998: 06,2734           75012                           MASK     BIT6
000999: 06,2735           27321                           ADS      IMODES33
001000:
001001: 06,2736           00002                           TC       Q
001002:
001003: 06,2737  06,2665               IMUFAIL            EQUALS   SETISSW
001004: 06,2737  06,2665               ICDUFAIL           EQUALS   SETISSW
001005:


001007:                                                                                                  #  JUMP TABLES AND CONSTANTS.
001008:
001009: 06,2737           12526        IFAILJMP           TCF      ITURNON                               #  CHANNEL 30 DISPATCH.
001010: 06,2740           12665                           TCF      IMUFAIL
001011: 06,2741           12665                           TCF      ICDUFAIL
001012: 06,2742           12555                           TCF      IMUCAGE
001013: 06,2743           76400        30RDMSK            OCT      76400                                 #  (BIT 10 NOT SAMPLED HERE).
001014: 06,2744           12604                           TCF      IMUOP
001015:
001016: 06,2745           12632        C33JMP             TCF      PIPFAIL                               #  CHANNEL 33 DISPATCH.
001017: 06,2746           12653                           TCF      DNTMFAST
001018: 06,2747           12660                           TCF      UPTMFAST
001019:
001020:                                                                                                  #  SUBROUTINE TO SKIP IF LAMP TEST NOT IN PROGRESS.
001021:
001022: 06,2750           41321        LAMPTEST           CS       IMODES33                              #  BIT 1 OF IMODES33 = 1 IF LAMP TEST IN
001023: 06,2751           75017                           MASK     BIT1                                  #  PROGRESS.
001024: 06,2752           13065                           TCF      ZOPFIN3
001025:
001026: 06,2753     5070               33RDMSK            EQUALS   PRIO16
001027: 06,2753           40010        OC40010            OCT      40010
001028: 06,2754           00054        OCT54              OCT      54
001029: 06,2755           00075        OCT75              OCT      75
001030: 06,2756           00272        OCT272             OCT      00272
001031: 06,2757           00300        BITS7&8            OCT      300
001032: 06,2760           01720        OCT1720            OCT      1720
001033: 06,2761           00740        OCT740             OCT      00740
001034: 06,2762     5067               OCT15000           EQUALS   PRIO15
001035: 06,2762           77000        OCT77000           OCT      77000
001036: 06,2763           76777        -BIT10             OCT      -1000
001037:
001038: 06,2764           21450        90SECS             DEC      9000       B-14
001039: 06,2765     5763               120MS              =        OCT14                                 #  (DEC12)
001040: 06,2765     5333               GLOCKOK            EQUALS   RESUME
001041:


001043:                                                                                                  #  OPTICS MONITORING AND ZERO ROUTINES
001044: 06,2765           31331        OPTMON             CA       OPTMODES                              #  MONITOR OPTICS INBITS IN CHAN 30 AND 33
001045: 06,2766           00006                           EXTEND
001046: 06,2767           06030                           RXOR     CHAN30                                #  LOOK FOR OCDU FAIL BIT CHANGE
001047: 06,2770           75011                           MASK     BIT7
001048: 06,2771           54070                           TS       RUPTREG1                              #  STORE CHANGE BIT
001049: 06,2772           10000                           CCS      A
001050: 06,2773           03224                           TC       OCDUFTST                              #  PROCESS OCDUFAIL BIT CHANGE
001051:
001052: 06,2774           11303        33OPTMON           CCS      OPTIND                                #  BYPASS IF TVC TAKEOVER
001053: 06,2775           13001                           TCF      +4
001054: 06,2776           13001                           TCF      +3
001055: 06,2777           13001                           TCF      +2
001056: 06,3000           15333                           TCF      RESUME
001057:
001058: 06,3001           31331                           CA       OPTMODES                              #  LOOK FOR OPTICS MODE SWITCH CHANGE
001059: 06,3002           00006                           EXTEND
001060: 06,3003           06033                           RXOR     CHAN33
001061: 06,3004           75027                           MASK     OCTHIRTY
001062: 06,3005           26070                           ADS      RUPTREG1                              #  STORE INBIT CHANGES
001063: 06,3006           23331                           LXCH     OPTMODES
001064: 06,3007           00006                           EXTEND
001065: 06,3010           06001                           RXOR     LCHAN
001066: 06,3011           55331                           TS       OPTMODES                              #  UPDATE OPTMODES TO SHOW BIT CHANGES
001067:
001068: 06,3012           40000                           COM                                            #  SAMPLE CURRENT SWITCH SETTING
001069: 06,3013           75027                           MASK     OCTHIRTY
001070: 06,3014           00006                           EXTEND
001071: 06,3015           13022                           BZF      SETSAMP                               #  MANUAL-SET ZERO IN SWSAMPLE
001072:
001073: 06,3016           75013                           MASK     BIT5                                  #  SEE IF CSC
001074: 06,3017           10000                           CCS      A
001075: 06,3020           03022                           TC       +2                                    #  CSC-SET SWSAMPLE POS
001076: 06,3021           37716                           CAF      NEGONE                                #  ZOPTICS-SET SWSAMPLE (-1)
001077: 06,3022           55314        SETSAMP            TS       SWSAMPLE                              #  CURRENT OPTICS SWITCH SETTING
001078:
001079: 06,3023           11315        PROCESSW           CCS      DESOPMOD                              #  BRANCH ON PREVIOUS SETTING
001080: 06,3024           03125                           TC       CSCDES                                #  CSC
001081: 06,3025           03077                           TC       MANUDES                               #  MANUAL
001082: 06,3026           03027                           TC       ZOPTDES                               #  ZERO OPTICS


001084: 06,3027           11314        ZOPTDES            CCS      SWSAMPLE                              #  IS SWITCH STILL AT ZOPTICS
001085: 06,3030           03047                           TC       ZTOCSC                                #  NOW AT CSC
001086: 06,3031           03037                           TC       ZTOMAN                                #  MANUAL
001087: 06,3032           03057                           TC       ZOPFINI                               #  ZOPTICS-SEE IF ZOPT PROCESSING
001088: 06,3033           03154                           TC       SETDESMD                              #  ZOPT NOT PROCESSING-NO ACTION
001089:
001090: 06,3034           11317                           CCS      ZOPTCNT                               #  ZOPT PROCESSING-CHECK COUNTER
001091: 06,3035           03153                           TC       SETCNT                                #  32 SAMPLE NOT FINISHED-SET COUNTER
001092: 06,3036           03157                           TC       SETZOEND                              #  32 SAMPLE WAIT COMPLETED-SET UP ZOP END
001093:
001094: 06,3037           03057        ZTOMAN             TC       ZOPFINI                               #  ZOP TO MANUAL-IS ZOPT DONE
001095: 06,3040           03154                           TC       SETDESMD                              #  YES-NORMAL EXIT
001096:
001097: 06,3041           05650        ZOPALARM           TC       ALARM                                 #  ALARM-SWITCHED ALTERED WHILE ZOPTICS
001098: 06,3042           00116                           OCT      00116
001099: 06,3043           35024                           CAF      OCT13                                 #  PROCESSING-SET RETURN OPTION
001100: 06,3044           55316                           TS       WTOPTION
001101:
001102: 06,3045           03070                           TC       CANZOPT                               #  CANCEL ZOPT
001103:
001104: 06,3046           03154                           TC       SETDESMD
001105:
001106: 06,3047           03057        ZTOCSC             TC       ZOPFINI                               #  SEE IF ZOPT PROCESSING
001107: 06,3050           03115                           TC       MANTOCSC   +3                         #  NO-CHECK RETURN TO COARS OPT
001108: 06,3051           05650                           TC       ALARM                                 #  ZOPT PROCESSING-ALARM
001109: 06,3052           00116                           OCT      00116
001110: 06,3053           03070                           TC       CANZOPT                               #  CANCEL ZOPT
001111: 06,3054           03112                           TC       MANTOCSC                              #  ZERO CNT-LOOK FOR COARS OPT RETURN
001112:
001113: 06,3055           35007        COARSLOK           CAF      BIT9                                  #  IF COARS OPT SINCE FSTART GO TO L+2
001114: 06,3056           13064                           TCF      ZOPFIN2                               #  IF NOT GO TO L+1
001115: 06,3057           35017        ZOPFINI            CAF      BIT1                                  #  SEE IF END ZOPT TASK WORKING
001116: 06,3060           71331                           MASK     OPTMODES
001117: 06,3061           10000                           CCS      A
001118: 06,3062           05333                           TC       RESUME                                #  ZOPT TASK WORKING-WAIT ONE SAMPLE PERIOD
001119:
001120: 06,3063           35015                           CAF      BIT3                                  #  TEST IF ZOPTICS PROCESSING
001121: 06,3064           71331        ZOPFIN2            MASK     OPTMODES                              #  RETURNS TO L+1 PROCESSING AND
001122: 06,3065           10000        ZOPFIN3            CCS      A
001123: 06,3066           24002                           INCR     Q                                     #  L+2 IF NOT
001124: 06,3067           00002                           TC       Q
001125:
001126: 06,3070           46211        CANZOPT            CS       SIX                                   #  CANCEL ZERO OPTICS
001127: 06,3071           71331                           MASK     OPTMODES                              #  ZERO ZOPT PROCESSING BIT-ENABLE OCDUFAIL
001128: 06,3072           55331                           TS       OPTMODES
001129: 06,3073           45017                           CS       BIT1                                  #  MAKE SURE ZERO OCDU IS OFF
001130: 06,3074           00006                           EXTEND
001131: 06,3075           03012                           WAND     CHAN12
001132: 06,3076           00002                           TC       Q
001133:


001135: 06,3077           11314        MANUDES            CCS      SWSAMPLE                              #  SEE IF SWITCH STILL IN MANUAL MODE
001136: 06,3100           03112                           TC       MANTOCSC                              #  NOW AT CSC
001137: 06,3101           03107                           TC       MANTOMAN                              #  STILL MANUAL
001138: 06,3102           11316                           CCS      WTOPTION                              #  ZOPTICS-LOOK AT ZOPTICS RETURN OPTION
001139: 06,3103           03105                           TC       +2                                    #  5 SEC RETURN GOOD-CONTINUE ZOPTICS
001140: 06,3104           03151                           TC       OPTZERO                               #  ZOPTICS MUST START ANEW
001141:
001142: 06,3105           03216                           TC       INITZOPT                              #  SHOW ZERO OPTICS PROCESSING
001143: 06,3106           03154                           TC       SETDESMD                              #  NORMAL EXIT
001144:
001145: 06,3107           11316        MANTOMAN           CCS      WTOPTION                              #  DECREMENT RETURN OPTION TIME
001146: 06,3110           55316                           TS       WTOPTION
001147: 06,3111           03154                           TC       SETDESMD
001148:
001149: 06,3112           35021        MANTOCSC           CAF      ZERO                                  #  CANCEL ZOPT RETURN OPTION IF SET
001150: 06,3113           55316                           TS       WTOPTION
001151: 06,3114           55317                           TS       ZOPTCNT
001152:
001153: 06,3115           03055                           TC       COARSLOK                              #  CHECK FOR COARS OPT RETURN
001154: 06,3116           03154                           TC       SETDESMD                              #  NO COARS TASK-NO ACTION
001155:
001156: 06,3117           35017                           CAF      ONE                                   #  SET COARS OPT WORKING
001157: 06,3120           55303                           TS       OPTIND
001158: 06,3121           35016                           CAF      BIT2                                  #  ENABLE OPTICS CDU ERROR CNTS
001159: 06,3122           00006                           EXTEND
001160: 06,3123           05012                           WOR      CHAN12
001161:
001162: 06,3124           03154                           TC       SETDESMD
001163:
001164: 06,3125           11314        CSCDES             CCS      SWSAMPLE                              #  SEE IF SWITCH STILL AT CSC
001165: 06,3126           03154                           TC       SETDESMD                              #  STILL AT CSC
001166: 06,3127           03133                           TC       CSCTOMAN                              #  MANUAL
001167: 06,3130           35012        CSCTOZOP           CAF      OCT40                                 #  ZOPTICS-INITIALIZE FOR ZOPT
001168: 06,3131           55317                           TS       ZOPTCNT
001169: 06,3132           03216                           TC       INITZOPT
001170:
001171: 06,3133           11303        CSCTOMAN           CCS      OPTIND                                #  SEE IF COARS WORKING
001172: 06,3134           03140                           TC       CANCOARS                              #  COARS WORKING-SWITCH NOT CSC-KILL COARS
001173: 06,3135           03140                           TC       CANCOARS
001174: 06,3136           03137                           TC       +1                                    #  NO COARS-NORMAL EXIT
001175: 06,3137           03154                           TC       SETDESMD


001177: 06,3140           37716        CANCOARS           CA       NEGONE
001178: 06,3141           55303                           TS       OPTIND                                #  SET OPTIND (-1) TO SHOW NOT WORKING
001179: 06,3142           45016                           CS       BIT2                                  #  DISABLE OCDU ERR CNTS
001180: 06,3143           00006                           EXTEND
001181: 06,3144           03012                           WAND     CHAN12
001182: 06,3145           41331                           CS       OPTMODES                              #  SET RETURN-TO-COARS BIT
001183: 06,3146           75007                           MASK     BIT9
001184: 06,3147           27331                           ADS      OPTMODES
001185:
001186: 06,3150           03154                           TC       SETDESMD
001187: 06,3151           03216        OPTZERO            TC       INITZOPT                              #  INITIALIZE ZERO OPTICS
001188:
001189: 06,3152           35012                           CA       OCT40                                 #  SET UP 32 SAMPLE WAIT
001190: 06,3153           55317        SETCNT             TS       ZOPTCNT
001191: 06,3154           31314        SETDESMD           CA       SWSAMPLE                              #  SET CURRENT SWITCH INDICATION-RESUME
001192: 06,3155           55315                           TS       DESOPMOD
001193: 06,3156           05333                           TC       RESUME
001194:
001195: 06,3157           35017        SETZOEND           CAF      BIT1                                  #  SEND ZERO OPTICS CDU
001196: 06,3160           00006                           EXTEND
001197: 06,3161           05012                           WOR      CHAN12
001198: 06,3162           34112                           CA       200MS                                 #  HOLD ZERO CDU FOR 200 MS
001199: 06,3163           05245                           TC       WAITLIST
001200: 06,3164     1331                                  EBANK=   OPTMODES
001201: 06,3164           03172 14062                     2CADR    ENDZOPT
001202:
001203: 06,3166           41331                           CS       OPTMODES                              #  SHOW ZOPTICS TASK WORKING
001204: 06,3167           75017                           MASK     BIT1
001205: 06,3170           27331                           ADS      OPTMODES
001206:
001207: 06,3171           03154                           TC       SETDESMD
001208:
001209: 06,3172           03210        ENDZOPT            TC       ZEROPCDU                              #  ZERO OCDU COUNTERS
001210: 06,3173           45017                           CS       BIT1                                  #  TURN OFF ZERO OCDU
001211: 06,3174           00006                           EXTEND
001212: 06,3175           03012                           WAND     CHAN12
001213: 06,3176           34112                           CAF      200MS                                 #  DELAY 200MS FOR CDUS TO RESYNCHRONIZE
001214: 06,3177           05272                           TC       VARDELAY
001215:
001216: 06,3200           41331                           CS       OPTMODES                              #  SHOW ZOPTICS SINCE LAST FRESH START
001217: 06,3201           75006                           MASK     BIT10                                 #        OR RESTART
001218: 06,3202           27331                           ADS      OPTMODES
001219:
001220: 06,3203           45023                           CS       SEVEN                                 #  ENABLE OCDUFAIL-SHOW OPTICS COMPLETE
001221: 06,3204           71331                           MASK     OPTMODES
001222: 06,3205           55331                           TS       OPTMODES
001223:
001224: 06,3206           03224                           TC       OCDUFTST                              #  CHECK OCDU FAIL BIT AFTER ENABLE


001226: 06,3207           05324                           TC       TASKOVER
001227:
001228: 06,3210           35021        ZEROPCDU           CAF      ZERO
001229: 06,3211           54036                           TS       CDUS                                  #  ZERO IN CDUS,-20 IN CDUT
001230: 06,3212           55307                           TS       ZONE                                  #  INITIALIZE SHAFT MONITOR ZONE
001231: 06,3213           43261                           CS       20DEGS
001232: 06,3214           54035                           TS       CDUT
001233: 06,3215           00002                           TC       Q
001234:
001235: 06,3216           35021        INITZOPT           CAF      ZERO                                  #  INITIALIZE ZOPTICS-INHIBIT OCDUFAIL
001236: 06,3217           55316                           TS       WTOPTION                              #  AND SHOW OPTICS PROCESSING
001237: 06,3220           41331                           CS       OPTMODES                              #  SET ZERO OPTICS PROCESSING
001238: 06,3221           76211                           MASK     SIX                                   #        OPTICS CDU FAIL INHIBITED
001239: 06,3222           27331                           ADS      OPTMODES
001240: 06,3223           00002                           TC       Q
001241:


001243: 06,3224           35011        OCDUFTST           CAF      BIT7                                  #  SEE IF OCDUFAIL ON OR OFF
001244: 06,3225           00006                           EXTEND
001245: 06,3226           02030                           RAND     CHAN30
001246: 06,3227           10000                           CCS      A
001247: 06,3230           13252                           TCF      OPFAILOF                              #  OCDUFAIL LIGHT OFF
001248:
001249: 06,3231           35016                           CAF      BIT2                                  #  OCDUFAIL LIGHT ON UNLESS INHIBITED
001250: 06,3232           71331                           MASK     OPTMODES
001251: 06,3233           10000                           CCS      A
001252: 06,3234           00002                           TC       Q                                     #  OCDUFAIL INHIBITED
001253:
001254: 06,3235           35010        OPFAILON           CAF      BIT8                                  #  ON BIT
001255: 06,3236           61036                           AD       DSPTAB     +11D
001256: 06,3237           75010                           MASK     BIT8
001257: 06,3240           00006        SETOFF             EXTEND
001258: 06,3241           16711                           BZF      TCQ                                   #  NO CHANGE
001259:
001260: 06,3242           54001                           TS       L
001261: 06,3243           31036                           CA       DSPTAB     +11D
001262: 06,3244           00006                           EXTEND
001263: 06,3245           06001                           RXOR     LCHAN
001264: 06,3246           74777                           MASK     POSMAX
001265: 06,3247           65001                           AD       BIT15                                 #  SHOW ACTION WANTED
001266: 06,3250           55036                           TS       DSPTAB     +11D
001267: 06,3251           00002                           TC       Q
001268:
001269: 06,3252           35017        OPFAILOF           CAF      BIT1                                  #  DONT TURN OFF IF LAMP TEST
001270: 06,3253           71321                           MASK     IMODES33
001271: 06,3254           10000                           CCS      A
001272: 06,3255           00002                           TC       Q                                     #  LAMP TEST IN PROGRESS
001273:
001274: 06,3256           35010                           CAF      BIT8                                  #  TURN OFF OCDUFAIL LIGHT
001275: 06,3257           71036                           MASK     DSPTAB     +11D
001276: 06,3260           13240                           TCF      SETOFF
001277:
001278: 06,3261     5024               OCT13              =        ELEVEN
001279: 06,3261     5027               OCTHIRTY           EQUALS   BITS4&5
001280: 06,3261           16037        20DEGS             DEC      7199       B-14
001281: 06,3262     5012               OCT40              EQUALS   BIT6
001282: 06,3262     4112               200MS              EQUALS   OCT24
001283:


001285:                                                                                                  #  OPTICS CDU DRIVING PROGRAM
001286:
001287: 10,2000                                           BANK     10
001288: 10,2000                                           SETLOC   OPTDRV
001289: 10,2000                                           BANK
001290: 10,2000                                           COUNT*   $$/SXT
001291:
001292:                                                                                                  #  SHAFT STOP MONITOR-ZONE UPDATE
001293:
001294: 10,2000           30036        OPTDRIVE           CA       CDUS                                  #  GRAB OPTIC SHAFT CDU
001295: 10,2001           54001                           TS       L
001296: 10,2002           10000                           CCS      A                                     #  GET ABS(CDUS)
001297: 10,2003           67707                           AD       13,14,15
001298: 10,2004           12006                           TCF      +2                                    #  ABS(CDUS) - 45 DEG
001299: 10,2005           12003                           TCF      -2
001300: 10,2006           00006                           EXTEND
001301: 10,2007           62016                           BZMF     OZONE                                 #  LESS THAN 45 DEG-SET ZONE 0
001302: 10,2010           31307                           CA       ZONE                                  #  IF ZONE ZERO, CHANGE TO + OR - OTHERWISE
001303: 10,2011           00006                           EXTEND                                         #  DONT MESS WITH ZONE
001304: 10,2012           12014                           BZF      +2
001305: 10,2013           12020                           TCF      CONTDRVE                              #  JUST CONTINUE
001306: 10,2014           56001                           XCH      L                                     #  GREATER THAN 45 DEG-SET ZONE TO SIGN CDU
001307: 10,2015           12017                           TCF      OZONE      +1
001308: 10,2016           35021        OZONE              CAF      ZERO                                  #  ABS(CDUS) LESS THEN 90 DEG-ZONE ZERO
001309: 10,2017           55307                           TS       ZONE
001310: 10,2020                                           COUNT*   $$/T4RUPT
001311: 10,2020           11303        CONTDRVE           CCS      OPTIND
001312: 10,2021           02025                           TC       +4                                    #  WORK COARS OPTICS
001313: 10,2022           02025                           TC       +3                                    #  WORK COARS OPTICS
001314: 10,2023           05333                           TC       RESUME                                #  NO OPT
001315: 10,2024           05333                           TC       RESUME                                #  NO OPT
001316:
001317: 10,2025           31314                           CA       SWSAMPLE                              #  SEE IF SWITCH AT CMC
001318: 10,2026           00006                           EXTEND
001319: 10,2027           65333                           BZMF     RESUME                                #  ZERO (-1)     MANUAL (+0)
001320:
001321: 10,2030           35006                           CAF      BIT10                                 #  SEE IF OCDUS ZEROED SINCE LAST FSTART
001322: 10,2031           71331                           MASK     OPTMODES
001323: 10,2032           10000                           CCS      A
001324: 10,2033           02036                           TC       +3
001325: 10,2034           05650                           TC       ALARM                                 #  OPTICS NOT ZEROED
001326: 10,2035           00120                           OCT      00120
001327:
001328: 10,2036           35016                           CA       BIT2                                  #  SEE IF ERR CNTS ENABLED
001329: 10,2037           00006                           EXTEND
001330: 10,2040           02012                           RAND     CHAN12
001331: 10,2041           00006                           EXTEND
001332: 10,2042           12175                           BZF      SETBIT                                #  CNTS NOT ENABLED-DO IT AND RESUME
001333:
001334: 10,2043           35017                           CAF      ONE                                   #  INITIALIZE OPTIND


001336: 10,2044           55303        OPT2               TS       OPTIND
001337: 10,2045           00006                           EXTEND
001338: 10,2046           12132                           BZF      TRUNCMD                               #  CHECK TRUNION COMMAND
001339:
001340: 10,2047           51303        GETOPCMD           INDEX    OPTIND
001341: 10,2050           31160                           CA       DESOPTT                               #  PICK UP DESIRED OPT ANGLE
001342: 10,2051           00006                           EXTEND
001343: 10,2052           51303                           INDEX    OPTIND
001344: 10,2053           20035                           MSU      CDUT                                  #  GET DIFFERENCE
001345: 10,2054           00006                           EXTEND
001346: 10,2055           75003                           MP       BIT13
001347: 10,2056           56001                           XCH      L
001348: 10,2057           60000                           DOUBLE
001349: 10,2060           54061                           TS       ITEMP1
001350: 10,2061           12063                           TCF      +2                                    #  NO OVFL
001351:
001352: 10,2062           26001                           ADS      L                                     #  WITH OVFL
001353: 10,2063           51303        STORCMD            INDEX    OPTIND
001354: 10,2064           23305                           LXCH     COMMANDO                              #  STORE COMMAND
001355: 10,2065           11303                           CCS      OPTIND
001356: 10,2066           12044                           TCF      OPT2                                  #  GET NEXT COMMAND
001357:
001358: 10,2067           54061                           TS       ITEMP1                                #  INITIALIZE SEND INDICATOR TO ZERO
001359: 10,2070                                           COUNT*   $$/SXT
001360:
001361:                                                                                                  #  SHAFT STOP AVOIDANCE
001362:
001363: 10,2070           10036                           CCS      CDUS                                  #  IF CDUS GREATER THAN + OR - 90 DEG CHECK
001364: 10,2071           65000                           AD       NEG1/2                                #  FOR POSSIBLE STOP PROBLEM
001365: 10,2072           12074                           TCF      +2
001366: 10,2073           12071                           TCF      -2
001367: 10,2074           00006                           EXTEND
001368: 10,2075           62122                           BZMF     CMDSETUP                              #  CDUS LESS THAN 90 DEG, NO PROBLEMS
001369:
001370: 10,2076           31307                           CA       ZONE
001371: 10,2077           00006                           EXTEND
001372: 10,2100           12122                           BZF      CMDSETUP                              #  ZONE=3, NORMAL COMMAND
001373: 10,2101           75001                           MASK     BIT15                                 #  GRAB SIGN OF ZONE
001374: 10,2102           54001                           TS       L
001375: 10,2103           31306                           CA       COMMANDO   +1
001376: 10,2104           75001                           MASK     BIT15                                 #  GRAB SIGN OF SHAFT COMMAND
001377: 10,2105           00006                           EXTEND
001378: 10,2106           06001                           RXOR     LCHAN
001379: 10,2107           10000                           CCS      A
001380: 10,2110           12122                           TCF      CMDSETUP                              #  SIGN ZONE NOT EQUAL TO SIGN COMMAND
001381: 10,2111           11161                           CCS      DESOPTS                               #  SEE IF DESOPTS BETWEEN -90 AND +90
001382: 10,2112           65000                           AD       NEG1/2
001383: 10,2113           12115                           TCF      +2                                    #  ABS(DESOPTS) - 90 DEG
001384: 10,2114           12112                           TCF      -2
001385: 10,2115           00006                           EXTEND


001387: 10,2116           62120                           BZMF     +2                                    #  DESOPTS IN FIRST OR FOURTH QUAD
001388: 10,2117           12122                           TCF      CMDSETUP
001389: 10,2120           41306                           CS       COMMANDO   +1                         #  REVERSE REGULAR COMMAND
001390: 10,2121           55306                           TS       COMMANDO   +1
001391:
001392: 10,2122                                           COUNT*   $$/T4RPT
001393:
001394: 10,2122           35017        CMDSETUP           CAF      ONE                                   #  SET OPTIND
001395: 10,2123           55303                           TS       OPTIND
001396: 10,2124           50000                           INDEX    A
001397: 10,2125           11305                           CCS      COMMANDO                              #  GET SIGN OF COMMAND
001398: 10,2126           02144                           TC       POSOPCMD
001399: 10,2127           02151                           TC       NEXTOPT    +1                         #  ZERO COMMAND-SKIP SEND INDICATOR
001400: 10,2130           02161                           TC       NEGOPCMD
001401: 10,2131           02151                           TC       NEXTOPT    +1                         #  ZERO COMMAND
001402:
001403: 10,2132           40035        TRUNCMD            CS       CDUT                                  #  IF COMMAND GREATER THAN 45 DEG-COMMAND
001404: 10,2133           61160                           AD       DESOPTT                               #  45 DEG
001405: 10,2134           54002                           TS       Q
001406: 10,2135           02047                           TC       GETOPCMD                              #  LESS THAN 45 DEG-NORMAL OPERATION
001407:
001408: 10,2136           10000                           CCS      A                                     #  GREATER THAN 45 DEG-USE OPSMAX WITH
001409: 10,2137           34777                           CA       POSMAX                                #  CORRECT SIGN
001410: 10,2140           02142                           TC       +2
001411: 10,2141           44777                           CS       POSMAX
001412: 10,2142           54001                           TS       L
001413: 10,2143           02063                           TC       STORCMD
001414: 10,2144           62202        POSOPCMD           AD       MAXPLS1
001415: 10,2145           00006                           EXTEND
001416: 10,2146           62166                           BZMF     DELOPCMD                              #  COMMAND LESS THAN MAX PULSE
001417: 10,2147           42201                           CS       MAXPLS                                #  GREATER THAN MAX PULSE-USE MAX PULSE
001418:
001419: 10,2150           24061        NEXTOPT            INCR     ITEMP1                                #  SET SEND INDICATOR
001420: 10,2151           65020                           AD       NEG0                                  #  MAKE SURE ZERO COMMAND IS -ZERO
001421: 10,2152           51303                           INDEX    OPTIND
001422: 10,2153           54053                           TS       CDUTCMD                               #  STORE PULSE IN SEND REG
001423:
001424: 10,2154           11303                           CCS      OPTIND
001425: 10,2155           02123                           TC       CMDSETUP   +1                         #  GET NEXT OPT
001426:
001427: 10,2156           10061                           CCS      ITEMP1                                #  ARE ANY PULSES TO GO
001428: 10,2157           12171                           TCF      SENDOCMD                              #  YES-SEND EM
001429: 10,2160           05333                           TC       RESUME                                #  NO
001430:
001431: 10,2161           62202        NEGOPCMD           AD       MAXPLS1
001432: 10,2162           00006                           EXTEND
001433: 10,2163           62166                           BZMF     DELOPCMD                              #  LESS THAN MAX PULSE
001434: 10,2164           32201                           CA       MAXPLS                                #  MAX PULSES
001435: 10,2165           12150                           TCF      NEXTOPT


001437: 10,2166           51303        DELOPCMD           INDEX    OPTIND
001438: 10,2167           57305                           XCH      COMMANDO                              #  SET UP SMALL COMMAND
001439: 10,2170           12150                           TCF      NEXTOPT
001440:
001441: 10,2171           35062        SENDOCMD           CAF      11,12                                 #  SEND OCDU DRIVE COMMANDS
001442: 10,2172           00006                           EXTEND
001443: 10,2173           05014                           WOR      CHAN14
001444: 10,2174           05333                           TC       RESUME
001445:
001446: 10,2175           35016        SETBIT             CAF      BIT2                                  #  ENABLE OCDU ERR CNTS
001447: 10,2176           00006                           EXTEND
001448: 10,2177           05012                           WOR      CHAN12
001449: 10,2200           05333                           TC       RESUME                                #  START COARS NEXT TIME AROUND
001450:
001451: 10,2201           77532        MAXPLS             DEC      -165       B-14                       #  WAS -80
001452: 10,2202           77533        MAXPLS1            DEC      -164       B-14                       #  WAS -79
001453: 10,2203     5062               11,12              EQUALS   PRIO6
001454:

End of include-file T4RUPT_PROGRAM.agc.  Parent file is MAIN.agc


