
Source Code


000002:                                                                                                  ## Copyright:   Public domain.
000003:                                                                                                  ## Filename:    TAGS_FOR_RELATIVE_SETLOC_AND_BLANK_BANK_CARDS.agc
000004:                                                                                                  ## Purpose:     A section of Comanche revision 044.
000005:                                                                                                  ##              It is part of the reconstructed source code for the
000006:                                                                                                  ##              original release of the flight software for the Command
000007:                                                                                                  ##              Module's (CM) Apollo Guidance Computer (AGC) for Apollo 10.
000008:                                                                                                  ##              The code has been recreated from a copy of Comanche 055. It
000009:                                                                                                  ##              has been adapted such that the resulting bugger words
000010:                                                                                                  ##              exactly match those specified for Comanche 44 in NASA drawing
000011:                                                                                                  ##              2021153D, which gives relatively high confidence that the
000012:                                                                                                  ##              reconstruction is correct.
000013:                                                                                                  ## Assembler:   yaYUL
000014:                                                                                                  ## Contact:     Ron Burkey <info@sandroid.org>.
000015:                                                                                                  ## Website:     www.ibiblio.org/apollo/index.html
000016:                                                                                                  ## Mod history: 2020-12-03 MAS  Created from Comanche 51.
000017:                                                                                                  ##              2020-12-04 MAS  Removed the tags S3435LOC, MODCHG1, and
000018:                                                                                                  ##                              MODCHG2 (the former is from 45-51, and the
000019:                                                                                                  ##                              latter are from 51-55).
000020:                                                                                                  ##              2020-12-12 RSB  Added justifying annotations for Mike's
000021:                                                                                                  ##                              reconstruction steps.
000022:


000024: ???????                        FIXED              MEMORY   120000     -          167777
000025: ???????                                           COUNT    BANKSUM
000026:
000027:                                                                                                  #  MODULE 1 CONTAINS BANKS 0 THROUGH 5
000028:
000029:    4000                                           BLOCK    02
000030:    4000                        FFTAG1             EQUALS
000031:    4000                        FFTAG2             EQUALS
000032:    4000                        FFTAG3             EQUALS
000033:    4000                        FFTAG4             EQUALS
000034:    4000                        FFTAG7             EQUALS
000035:    4000                        FFTAG8             EQUALS
000036:    4000                        FFTAG9             EQUALS
000037:    4000                        FFTAG10            EQUALS
000038:    4000                        FFTAG12            EQUALS
000039:    4000                        P30SUBS            EQUALS
000040:    4000                        STOPRAT            EQUALS
000041:    4000                        P23S               EQUALS
000042:    4000                                           BNKSUM   02
000043:
000044:    6000                                           BLOCK    03
000045:    6000                        FFTAG5             EQUALS
000046:    6000                        FFTAG6             EQUALS
000047:    6000                        DAPS9              EQUALS
000048:    6000                        FFTAG13            EQUALS
000049:    6000                                           BNKSUM   03
000050:
000051: 00,2000                                           BANK     00
000052: 00,2000                        DLAYJOB            EQUALS
000053: 00,2000                                           BNKSUM   00
000054:
000055: 01,2000                                           BANK     01
000056: 01,2000                        RESTART            EQUALS
000057: 01,2000                                           BNKSUM   01
000058:
000059: 04,2000                                           BANK     4
000060: 04,2000                        VERB37             EQUALS
000061: 04,2000                        CONICS1            EQUALS
000062: 04,2000                        PINBALL4           EQUALS
000063: 04,2000                        CSI/CDH1           EQUALS
000064: 04,2000                        INTPRET2           EQUALS
000065: 04,2000                        IMUCAL1            EQUALS
000066:


000068:
000069: 04,2000                        STBLEORB           EQUALS
000070: 04,2000                        E/PROG             EQUALS
000071: 04,2000                        MIDDGIM            EQUALS
000072:
000073: 04,2000                                           BNKSUM   04
000074:
000075: 05,2000                                           BANK     5
000076: 05,2000                        FRANDRES           EQUALS
000077: 05,2000                        DOWNTELM           EQUALS
000078: 05,2000                        DAPMASS            EQUALS
000079: 05,2000                        CDHTAG             EQUALS
000080: 05,2000                                           BNKSUM   05
000081:
000082:                                                                                                  #  MODULE 2 CONTAINS BANKS 6 THROUGH 13
000083:
000084: 06,2000                                           BANK     6
000085: 06,2000                        IMUCOMP            EQUALS
000086: 06,2000                        T4RUP              EQUALS
000087: 06,2000                        IMUCAL2            EQUALS
000088: 06,2000                        CSIPROG            EQUALS
000089: 06,2000                                           BNKSUM   06
000090:
000091: 07,2000                                           BANK     7
000092: 07,2000                        SXTMARKE           EQUALS
000093: 07,2000                        R02                EQUALS
000094: 07,2000                        MODESW             EQUALS
000095: 07,2000                        XANG               EQUALS
000096: 07,2000                        KEYRUPT            EQUALS
000097: 07,2000                        CSIPROG6           EQUALS
000098: 07,2000                                           BNKSUM   07
000099:
000100: 10,2000                                           BANK     10
000101: 10,2000                        DISPLAYS           EQUALS
000102: 10,2000                        PHASETAB           EQUALS
000103: 10,2000                        COMGEOM2           EQUALS
000104: 10,2000                        SXTMARK1           EQUALS
000105: 10,2000                        P60S4              EQUALS
000106: 10,2000                        OPTDRV             EQUALS
000107: 10,2000                        CSIPROG8           EQUALS
000108: 10,2000                                           BNKSUM   10
000109:
000110: 11,2000                                           BANK     11
000111: 11,2000                        ORBITAL            EQUALS
000112: 11,2000                        ORBITAL1           EQUALS                                         #  CONSTANTS
000113:


000115:
000116: 11,2000                        INTVEL             EQUALS
000117: 11,2000                        S52/2              EQUALS
000118: 11,2000                        CSIPROG5           EQUALS
000119: 11,2000                        INTINIT1           EQUALS
000120: 11,2000                                           BNKSUM   11
000121:
000122: 12,2000                                           BANK     12
000123: 12,2000                        CONICS             EQUALS
000124: 12,2000                        CSIPROG2           EQUALS
000125: 12,2000                        CSI/CDH2           EQUALS
000126: 12,2000                                           BNKSUM   12
000127:
000128: 13,2000                                           BANK     13
000129: 13,2000                        P76LOC             EQUALS
000130: 13,2000                        LATLONG            EQUALS
000131: 13,2000                        INTINIT            EQUALS
000132: 13,2000                        SR52/1             EQUALS
000133: 13,2000                        ORBITAL2           EQUALS
000134: 13,2000                        CDHTAGS            EQUALS
000135: 13,2000                        E/PROG1            EQUALS
000136: 13,2000                                           BNKSUM   13
000137:
000138:                                                                                                  #  SPACER
000139:
000140:                                                                                                  #           MODULE 3 CONTAINS BANKS 14 THROUGH 21
000141:
000142: 14,2000                                           BANK     14
000143: 14,2000                        STARTAB            EQUALS
000144: 14,2000                        RT53               EQUALS
000145: 14,2000                        P50S1              EQUALS
000146: 14,2000                        MEASINC2           EQUALS
000147: 14,2000                        CSI/CDH3           EQUALS
000148: 14,2000                                           BNKSUM   14
000149:
000150: 15,2000                                           BANK     15
000151: 15,2000                        P50S               EQUALS
000152: 15,2000                        ETRYDAP            EQUALS
000153: 15,2000                        S52/3              EQUALS
000154: 15,2000                                           BNKSUM   15
000155:
000156: 16,2000                                           BANK     16
000157: 16,2000                        P40S1              EQUALS
000158:


000160:
000161: 16,2000                        DAPROLL            EQUALS
000162: 16,2000                        P50S2              EQUALS
000163: 16,2000                        P23S1              EQUALS
000164: 16,2000                        RTE2               EQUALS
000165: 16,2000                                           BNKSUM   16
000166:
000167: 17,2000                                           BANK     17
000168: 17,2000                        DAPS4              EQUALS
000169: 17,2000                        DAPS5              EQUALS
000170: 17,2000                        DAPS7              EQUALS
000171: 17,2000                        P50S3              EQUALS
000172: 17,2000                                           BNKSUM   17
000173:
000174: 20,2000                                           BANK     20
000175: 20,2000                        DAPS6              EQUALS
000176: 20,2000                        DAPS1              EQUALS
000177: 20,2000                        DAPS2              EQUALS
000178: 20,2000                        MANUSTUF           EQUALS
000179: 20,2000                        R36CM              EQUALS
000180: 20,2000                        VAC5LOC            EQUALS
000181: 20,2000                                           BNKSUM   20
000182:
000183: 21,2000                                           BANK     21
000184: 21,2000                        DAPS3              EQUALS
000185: 21,2000                        MYSUBS             EQUALS
000186: 21,2000                        KALCMON3           EQUALS
000187: 21,2000                                           BNKSUM   21
000188:
000189:                                                                                                  #  MODULE 4 CONTAINS BANKS 22 THROUGH 27
000190:
000191: 22,2000                                           BANK     22
000192: 22,2000                        RTBCODES           EQUALS
000193: 22,2000                        RTBCODE1           EQUALS
000194: 22,2000                        DAPS8              EQUALS
000195: 22,2000                        APOPERI            EQUALS
000196: 22,2000                        P40S5              EQUALS
000197: 22,2000                        KALCMON2           EQUALS
000198: 22,2000                        KALCMON1           EQUALS
000199: 22,2000                        CSIPROG3           EQUALS
000200: 22,2000                                           BNKSUM   22
000201:


000203:
000204: 23,2000                                           BANK     23
000205: 23,2000                        P20S2              EQUALS
000206: 23,2000                        INFLIGHT           EQUALS
000207: 23,2000                        COMGEOM1           EQUALS
000208: 23,2000                        POWFLITE           EQUALS
000209: 23,2000                        POWFLIT1           EQUALS
000210: 23,2000                        RENDGUID           EQUALS
000211: 23,2000                        POWFLIT2           EQUALS
000212: 23,2000                        R30LOC             EQUALS
000213: 23,2000                        P11FOUR            EQUALS
000214: 23,2000                        CSIPROG4           EQUALS
000215: 23,2000                                           BNKSUM   23
000216:
000217: 24,2000                                           BANK     24
000218: 24,2000                        LOADDAP            EQUALS
000219: 24,2000                        P40S               EQUALS
000220: 24,2000                        CSIPROG7           EQUALS
000221: 24,2000                                           BNKSUM   24
000222:
000223: 25,2000                                           BANK     25
000224: 25,2000                        REENTRY            EQUALS
000225: 25,2000                        CDHTAG1            EQUALS
000226: 25,2000                                           BNKSUM   25
000227:
000228: 26,2000                                           BANK     26
000229: 26,2000                        INTPRET1           EQUALS
000230: 26,2000                        REENTRY1           EQUALS
000231: 26,2000                        P60S               EQUALS
000232: 26,2000                        P60S1              EQUALS
000233: 26,2000                        P60S2              EQUALS
000234: 26,2000                        P60S3              EQUALS
000235: 26,2000                        PLANTIN            EQUALS                                         #  LUNAR ROT
000236: 26,2000                        EPHEM              EQUALS
000237: 26,2000                        P05P06             EQUALS
000238: 26,2000                        26P50S             EQUALS
000239: 26,2000                                           BNKSUM   26
000240:
000241: 27,2000                                           BANK     27
000242: 27,2000                        TOF-FF             EQUALS
000243: 27,2000                        TOF-FF1            EQUALS
000244: 27,2000                        MANUVER            EQUALS
000245: 27,2000                        MANUVER1           EQUALS
000246:


000248:
000249: 27,2000                        VECPT              EQUALS
000250: 27,2000                        UPDATE1            EQUALS
000251: 27,2000                        UPDATE2            EQUALS
000252: 27,2000                        R22S1              EQUALS
000253: 27,2000                        P60S5              EQUALS
000254: 27,2000                        P40S2              EQUALS
000255: 27,2000                                           BNKSUM   27
000256:
000257:                                                                                                  #  MODULE 5 CONTAINS BANKS 30 THROUGH 35
000258:
000259: 30,2000                                           BANK     30
000260: 30,2000                        IMUSUPER           EQUALS
000261: 30,2000                        LOWSUPER           EQUALS
000262: 30,2000                        FCSTART            EQUALS                                         #  STANDARD LOCATION FOR THIS. (FOR EXTVB)
000263: 30,2000                        LOPC               EQUALS
000264: 30,2000                        P20S1              EQUALS
000265: 30,2000                        P20S6              EQUALS
000266: 30,2000                        P40S3              EQUALS
000267: 30,2000                        R35A               EQUALS
000268: 30,2000                                           BNKSUM   30
000269:
000270: 31,2000                                           BANK     31
000271: 31,2000                        R35                EQUALS
000272: 31,2000                        RT23               EQUALS
000273: 31,2000                        P30S1A             EQUALS
000274: 31,2000                        R34                EQUALS
000275: 31,2000                        CDHTAG2            EQUALS
000276: 31,2000                        CSIPROG9           EQUALS
000277: 31,2000                        R31                EQUALS
000278: 31,2000                        P22S               EQUALS
000279: 31,2000                        RTE3               EQUALS
000280: 31,2000                                           BNKSUM   31
000281:
000282: 32,2000                                           BANK     32
000283: 32,2000                        MSGSCAN1           EQUALS
000284: 32,2000                        RTE                EQUALS
000285: 32,2000                        DELRSPL1           EQUALS
000286: 32,2000                        IMUCAL3            EQUALS
000287: 32,2000                                           BNKSUM   32
000288:
000289: 33,2000                                           BANK     33
000290: 33,2000                        TESTLEAD           EQUALS
000291:


000293:
000294: 33,2000                        IMUCAL             EQUALS
000295: 33,2000                                           BNKSUM   33
000296:
000297: 34,2000                                           BANK     34
000298: 34,2000                        P11ONE             EQUALS
000299: 34,2000                        P20S3              EQUALS
000300: 34,2000                        P20S4              EQUALS
000301: 34,2000                        RTECON             EQUALS
000302: 34,2000                                           BNKSUM   34
000303:
000304: 35,2000                                           BANK     35
000305: 35,2000                        RTECON1            EQUALS
000306: 35,2000                        CSI/CDH            EQUALS
000307: 35,2000                        P30S1              EQUALS
000308: 35,2000                        P30S               EQUALS
000309: 35,2000                        P17S1              EQUALS
000310: 35,2000                        MEASINC3           EQUALS
000311: 35,2000                        INTINIT2           EQUALS
000312: 35,2000                                           BNKSUM   35
000313:
000314:                                                                                                  #  MODULE 6 CONTAINS BANKS 36 THROUGH 43
000315:
000316: 36,2000                                           BANK     36
000317: 36,2000                        MEASINC            EQUALS
000318: 36,2000                        MEASINC1           EQUALS
000319: 36,2000                        P17S               EQUALS
000320: 36,2000                        RTE1               EQUALS


000325: 36,2000                                           BNKSUM   36
000326:
000327: 37,2000                                           BANK     37
000328: 37,2000                        P20S               EQUALS
000329: 37,2000                        BODYATT            EQUALS
000330: 37,2000                        RENDEZ             EQUALS
000331: 37,2000                        SERVICES           EQUALS
000332: 37,2000                        P11TWO             EQUALS
000333: 37,2000                        CDHTAG3            EQUALS
000334: 37,2000                                           BNKSUM   37
000335:
000336: 40,2000                                           BANK     40
000337: 40,2000                        PINSUPER           EQUALS
000338:


000340:
000341: 40,2000                        SELFSUPR           EQUALS
000342: 40,2000                        PINBALL1           EQUALS
000343: 40,2000                        R36CM1             EQUALS
000344: 40,2000                                           BNKSUM   40
000345:
000346: 41,2000                                           BANK     41
000347: 41,2000                        PINBALL2           EQUALS
000348: 41,2000                        R36LM              EQUALS
000349: 41,2000                                           BNKSUM   41
000350:
000351: 42,2000                                           BANK     42
000352: 42,2000                        SBAND              EQUALS
000353: 42,2000                        PINBALL3           EQUALS
000354: 42,2000                        EXTVBS             EQUALS
000355: 42,2000                        R36LM1             EQUALS
000356: 42,2000                                           BNKSUM   42
000357:
000358: 43,2000                                           BANK     43
000359: 43,2000                        SELFCHEC           EQUALS
000360: 43,2000                        EXTVERBS           EQUALS
000361: 43,2000                                           BNKSUM   43
000362:
000363: 43,2000  26,3334               HI6ZEROS           EQUALS   ZEROVECS                              #  ZERO VECTOR ALWAYS IN HIGH MEMORY
000364: 43,2000  04,3562               LO6ZEROS           EQUALS   ZEROVEC                               #  ZERO VECTOR ALWAYS IN LOW MEMORY
000365: 43,2000  26,3332               HIDPHALF           EQUALS   UNITX
000366: 43,2000  04,3560               LODPHALF           EQUALS   XUNIT
000367: 43,2000  26,3324               HIDP1/4            EQUALS   DP1/4TH
000368: 43,2000  04,3606               LODP1/4            EQUALS   D1/4                                  #  2DEC .25
000369: 43,2000  26,3332               HIUNITX            EQUALS   UNITX
000370: 43,2000  26,3330               HIUNITY            EQUALS   UNITY
000371: 43,2000  26,3326               HIUNITZ            EQUALS   UNITZ
000372: 43,2000  04,3560               LOUNITX            EQUALS   XUNIT                                 #  2DEC .5
000373: 43,2000  04,3556               LOUNITY            EQUALS   YUNIT                                 #  2DEC 0
000374: 43,2000  04,3554               LOUNITZ            EQUALS   ZUNIT                                 #  2DEC 0
000375: 43,2000  11,3763               3/4LOWDP           EQUALS   3/4                                   #  2DEC 3.0 B-2
000376:
000377: 43,2000  30,2000                                  SBANK=   LOWSUPER
000378:
000379:                                                                                                  #  ROPE SPECIFIC ASSIGNS OBVIATING NEED TO CHECK COMPUTER FLAG IN DETVRUZVING INTEGRATION AREA ENTRIES
000380:
000381: 43,2000  13,3105               OTHPREC            EQUALS   LEMPREC
000382: 43,2000  13,2760               ATOPOTH            EQUALS   ATOPLEM
000383: 43,2000  13,2705               ATOPTHIS           EQUALS   ATOPCSM
000384: 43,2000  0000173               MOONTHIS           EQUALS   CMOONFLG
000385:


000387:
000388: 43,2000  0000174               MOONOTH            EQUALS   LMOONFLG
000389: 43,2000  13,2720               MOVATHIS           EQUALS   MOVEACSM
000390: 43,2000  31,2032               STATEST            EQUALS   V83CALL                               #  * TEMPORARY
000391: 43,2000  13,3071               THISPREC           EQUALS   CSMPREC
000392: 43,2000  26,3332               THISAXIS           =        UNITX
000393: 43,2000     5054               ERASID             EQUALS   LOW10                                 #  DOWNLINK ERASABLE DUMP ID
000394: 43,2000     6214               DELAYNUM           EQUALS   THREE
000395:
000396:                                                                                                  # ****************************************************************************************************************
000397:
000398:                                                                                                  #  THE FOLLOWING ECADRS ARE DEFINED TO FACILITATE EBANK SWITCHING.  THEY ALSO MAKE IT EASIER FOR
000399:                                                                                                  #  ERASABLE CONTROL TO REARRANGE ERASABLE MEMORY WITHOUT DISRUPTING THE PROGRAMS WHICH SET EBANKS.
000400:                                                                                                  #  PRIOR TO ROPE RELEASE FIXED MEMORY CAN BE SAVED BY SETTING EACH EBXXXX =EBANKX (X=4,5,6,7).  EBANKX OF COURSE
000401:                                                                                                  #  WILL BE THE BANK WHERE THE ERASABLES REFERENCED IN EBXXXX WILL BE STORED.
000402:
000403: 07,2000                                           BANK     7
000404: 07,2000  E7,1674                                  EBANK=   MARKDOWN
000405: 07,2000           03674        EBMARKDO           ECADR    MARKDOWN
000406: 07,2001  E7,1725                                  EBANK=   MRKBUF1
000407: 07,2001           03725        EBMRKBUF           ECADR    MRKBUF1
000408:
000409: 24,2000                                           BANK     24
000410: 24,2000  E7,1431                                  EBANK=   DVCNTR
000411: 24,2000           03431        EBDVCNTR           ECADR    DVCNTR
000412: 24,2001  E7,1672                                  EBANK=   P40TMP
000413: 24,2001           03672        EBP40TMP           ECADR    P40TMP
000414:
000415: 34,2000                                           BANK     34
000416: 34,2000  E7,1431                                  EBANK=   DVCNTR
000417: 34,2000           03431        EBDVCNT            ECADR    DVCNTR
000418: 34,2001  E5,1426                                  EBANK=   QPLACES
000419: 34,2001           02426        EBQPLACE           ECADR    QPLACES
000420:
000421: 37,2000                                           BANK     37
000422: 37,2000     1231                                  EBANK=   RN1
000423: 37,2000           01231        EBRN1              ECADR    RN1
000424:
000425:                                                                                                  # ****************************************************************************************************************
000426:


End of include-file TAGS_FOR_RELATIVE_SETLOC_AND_BLANK_BANK_CARDS.agc.  Parent file is MAIN.agc


