
Source Code


000002:                                                                                                  ## Copyright:   Public domain.
000003:                                                                                                  ## Filename:    TAGS_FOR_RELATIVE_SETLOC_AND_BLANK_BANK_CARDS.agc
000004:                                                                                                  ## Purpose:     A section of Comanche revision 044.
000005:                                                                                                  ##              It is part of the reconstructed source code for the
000006:                                                                                                  ##              original release of the flight software for the Command
000007:                                                                                                  ##              Module's (CM) Apollo Guidance Computer (AGC) for Apollo 10.
000008:                                                                                                  ##              The code has been recreated from a copy of Comanche 055. It
000009:                                                                                                  ##              has been adapted such that the resulting bugger words
000010:                                                                                                  ##              exactly match those specified for Comanche 44 in NASA drawing
000011:                                                                                                  ##              2021153D, which gives relatively high confidence that the
000012:                                                                                                  ##              reconstruction is correct.
000013:                                                                                                  ## Assembler:   yaYUL
000014:                                                                                                  ## Contact:     Ron Burkey <info@sandroid.org>.
000015:                                                                                                  ## Website:     www.ibiblio.org/apollo/index.html
000016:                                                                                                  ## Mod history: 2020-12-03 MAS  Created from Comanche 51.
000017:                                                                                                  ##              2020-12-04 MAS  Removed the tags S3435LOC, MODCHG1, and
000018:                                                                                                  ##                              MODCHG2 (the former is from 45-51, and the
000019:                                                                                                  ##                              latter are from 51-55).
000020:


000022: ???????                        FIXED              MEMORY   120000     -          167777
000023: ???????                                           COUNT    BANKSUM
000024:
000025:                                                                                                  #  MODULE 1 CONTAINS BANKS 0 THROUGH 5
000026:
000027:    4000                                           BLOCK    02
000028:    4000                        FFTAG1             EQUALS
000029:    4000                        FFTAG2             EQUALS
000030:    4000                        FFTAG3             EQUALS
000031:    4000                        FFTAG4             EQUALS
000032:    4000                        FFTAG7             EQUALS
000033:    4000                        FFTAG8             EQUALS
000034:    4000                        FFTAG9             EQUALS
000035:    4000                        FFTAG10            EQUALS
000036:    4000                        FFTAG12            EQUALS
000037:    4000                        P30SUBS            EQUALS
000038:    4000                        STOPRAT            EQUALS
000039:    4000                        P23S               EQUALS
000040:    4000                                           BNKSUM   02
000041:
000042:    6000                                           BLOCK    03
000043:    6000                        FFTAG5             EQUALS
000044:    6000                        FFTAG6             EQUALS
000045:    6000                        DAPS9              EQUALS
000046:    6000                        FFTAG13            EQUALS
000047:    6000                                           BNKSUM   03
000048:
000049: 00,2000                                           BANK     00
000050: 00,2000                        DLAYJOB            EQUALS
000051: 00,2000                                           BNKSUM   00
000052:
000053: 01,2000                                           BANK     01
000054: 01,2000                        RESTART            EQUALS
000055: 01,2000                                           BNKSUM   01
000056:
000057: 04,2000                                           BANK     4
000058: 04,2000                        VERB37             EQUALS
000059: 04,2000                        CONICS1            EQUALS
000060: 04,2000                        PINBALL4           EQUALS
000061: 04,2000                        CSI/CDH1           EQUALS
000062: 04,2000                        INTPRET2           EQUALS
000063: 04,2000                        IMUCAL1            EQUALS
000064:


000066:
000067: 04,2000                        STBLEORB           EQUALS
000068: 04,2000                        E/PROG             EQUALS
000069: 04,2000                        MIDDGIM            EQUALS
000070:
000071: 04,2000                                           BNKSUM   04
000072:
000073: 05,2000                                           BANK     5
000074: 05,2000                        FRANDRES           EQUALS
000075: 05,2000                        DOWNTELM           EQUALS
000076: 05,2000                        DAPMASS            EQUALS
000077: 05,2000                        CDHTAG             EQUALS
000078: 05,2000                                           BNKSUM   05
000079:
000080:                                                                                                  #  MODULE 2 CONTAINS BANKS 6 THROUGH 13
000081:
000082: 06,2000                                           BANK     6
000083: 06,2000                        IMUCOMP            EQUALS
000084: 06,2000                        T4RUP              EQUALS
000085: 06,2000                        IMUCAL2            EQUALS
000086: 06,2000                        CSIPROG            EQUALS
000087: 06,2000                                           BNKSUM   06
000088:
000089: 07,2000                                           BANK     7
000090: 07,2000                        SXTMARKE           EQUALS
000091: 07,2000                        R02                EQUALS
000092: 07,2000                        MODESW             EQUALS
000093: 07,2000                        XANG               EQUALS
000094: 07,2000                        KEYRUPT            EQUALS
000095: 07,2000                        CSIPROG6           EQUALS
000096: 07,2000                                           BNKSUM   07
000097:
000098: 10,2000                                           BANK     10
000099: 10,2000                        DISPLAYS           EQUALS
000100: 10,2000                        PHASETAB           EQUALS
000101: 10,2000                        COMGEOM2           EQUALS
000102: 10,2000                        SXTMARK1           EQUALS
000103: 10,2000                        P60S4              EQUALS
000104: 10,2000                        OPTDRV             EQUALS
000105: 10,2000                        CSIPROG8           EQUALS
000106: 10,2000                                           BNKSUM   10
000107:
000108: 11,2000                                           BANK     11
000109: 11,2000                        ORBITAL            EQUALS
000110: 11,2000                        ORBITAL1           EQUALS                                         #  CONSTANTS
000111:


000113:
000114: 11,2000                        INTVEL             EQUALS
000115: 11,2000                        S52/2              EQUALS
000116: 11,2000                        CSIPROG5           EQUALS
000117: 11,2000                        INTINIT1           EQUALS
000118: 11,2000                                           BNKSUM   11
000119:
000120: 12,2000                                           BANK     12
000121: 12,2000                        CONICS             EQUALS
000122: 12,2000                        CSIPROG2           EQUALS
000123: 12,2000                        CSI/CDH2           EQUALS
000124: 12,2000                                           BNKSUM   12
000125:
000126: 13,2000                                           BANK     13
000127: 13,2000                        P76LOC             EQUALS
000128: 13,2000                        LATLONG            EQUALS
000129: 13,2000                        INTINIT            EQUALS
000130: 13,2000                        SR52/1             EQUALS
000131: 13,2000                        ORBITAL2           EQUALS
000132: 13,2000                        CDHTAGS            EQUALS
000133: 13,2000                        E/PROG1            EQUALS
000134: 13,2000                                           BNKSUM   13
000135:
000136:                                                                                                  #  SPACER
000137:
000138:                                                                                                  #           MODULE 3 CONTAINS BANKS 14 THROUGH 21
000139:
000140: 14,2000                                           BANK     14
000141: 14,2000                        STARTAB            EQUALS
000142: 14,2000                        RT53               EQUALS
000143: 14,2000                        P50S1              EQUALS
000144: 14,2000                        MEASINC2           EQUALS
000145: 14,2000                        CSI/CDH3           EQUALS
000146: 14,2000                                           BNKSUM   14
000147:
000148: 15,2000                                           BANK     15
000149: 15,2000                        P50S               EQUALS
000150: 15,2000                        ETRYDAP            EQUALS
000151: 15,2000                        S52/3              EQUALS
000152: 15,2000                                           BNKSUM   15
000153:
000154: 16,2000                                           BANK     16
000155: 16,2000                        P40S1              EQUALS
000156:


000158:
000159: 16,2000                        DAPROLL            EQUALS
000160: 16,2000                        P50S2              EQUALS
000161: 16,2000                        P23S1              EQUALS
000162: 16,2000                        RTE2               EQUALS
000163: 16,2000                                           BNKSUM   16
000164:
000165: 17,2000                                           BANK     17
000166: 17,2000                        DAPS4              EQUALS
000167: 17,2000                        DAPS5              EQUALS
000168: 17,2000                        DAPS7              EQUALS
000169: 17,2000                        P50S3              EQUALS
000170: 17,2000                                           BNKSUM   17
000171:
000172: 20,2000                                           BANK     20
000173: 20,2000                        DAPS6              EQUALS
000174: 20,2000                        DAPS1              EQUALS
000175: 20,2000                        DAPS2              EQUALS
000176: 20,2000                        MANUSTUF           EQUALS
000177: 20,2000                        R36CM              EQUALS
000178: 20,2000                        VAC5LOC            EQUALS
000179: 20,2000                                           BNKSUM   20
000180:
000181: 21,2000                                           BANK     21
000182: 21,2000                        DAPS3              EQUALS
000183: 21,2000                        MYSUBS             EQUALS
000184: 21,2000                        KALCMON3           EQUALS
000185: 21,2000                                           BNKSUM   21
000186:
000187:                                                                                                  #  MODULE 4 CONTAINS BANKS 22 THROUGH 27
000188:
000189: 22,2000                                           BANK     22
000190: 22,2000                        RTBCODES           EQUALS
000191: 22,2000                        RTBCODE1           EQUALS
000192: 22,2000                        DAPS8              EQUALS
000193: 22,2000                        APOPERI            EQUALS
000194: 22,2000                        P40S5              EQUALS
000195: 22,2000                        KALCMON2           EQUALS
000196: 22,2000                        KALCMON1           EQUALS
000197: 22,2000                        CSIPROG3           EQUALS
000198: 22,2000                                           BNKSUM   22
000199:


000201:
000202: 23,2000                                           BANK     23
000203: 23,2000                        P20S2              EQUALS
000204: 23,2000                        INFLIGHT           EQUALS
000205: 23,2000                        COMGEOM1           EQUALS
000206: 23,2000                        POWFLITE           EQUALS
000207: 23,2000                        POWFLIT1           EQUALS
000208: 23,2000                        RENDGUID           EQUALS
000209: 23,2000                        POWFLIT2           EQUALS
000210: 23,2000                        R30LOC             EQUALS
000211: 23,2000                        P11FOUR            EQUALS
000212: 23,2000                        CSIPROG4           EQUALS
000213: 23,2000                                           BNKSUM   23
000214:
000215: 24,2000                                           BANK     24
000216: 24,2000                        LOADDAP            EQUALS
000217: 24,2000                        P40S               EQUALS
000218: 24,2000                        CSIPROG7           EQUALS
000219: 24,2000                                           BNKSUM   24
000220:
000221: 25,2000                                           BANK     25
000222: 25,2000                        REENTRY            EQUALS
000223: 25,2000                        CDHTAG1            EQUALS
000224: 25,2000                                           BNKSUM   25
000225:
000226: 26,2000                                           BANK     26
000227: 26,2000                        INTPRET1           EQUALS
000228: 26,2000                        REENTRY1           EQUALS
000229: 26,2000                        P60S               EQUALS
000230: 26,2000                        P60S1              EQUALS
000231: 26,2000                        P60S2              EQUALS
000232: 26,2000                        P60S3              EQUALS
000233: 26,2000                        PLANTIN            EQUALS                                         #  LUNAR ROT
000234: 26,2000                        EPHEM              EQUALS
000235: 26,2000                        P05P06             EQUALS
000236: 26,2000                        26P50S             EQUALS
000237: 26,2000                                           BNKSUM   26
000238:
000239: 27,2000                                           BANK     27
000240: 27,2000                        TOF-FF             EQUALS
000241: 27,2000                        TOF-FF1            EQUALS
000242: 27,2000                        MANUVER            EQUALS
000243: 27,2000                        MANUVER1           EQUALS
000244:


000246:
000247: 27,2000                        VECPT              EQUALS
000248: 27,2000                        UPDATE1            EQUALS
000249: 27,2000                        UPDATE2            EQUALS
000250: 27,2000                        R22S1              EQUALS
000251: 27,2000                        P60S5              EQUALS
000252: 27,2000                        P40S2              EQUALS
000253: 27,2000                                           BNKSUM   27
000254:
000255:                                                                                                  #  MODULE 5 CONTAINS BANKS 30 THROUGH 35
000256:
000257: 30,2000                                           BANK     30
000258: 30,2000                        IMUSUPER           EQUALS
000259: 30,2000                        LOWSUPER           EQUALS
000260: 30,2000                        FCSTART            EQUALS                                         #  STANDARD LOCATION FOR THIS. (FOR EXTVB)
000261: 30,2000                        LOPC               EQUALS
000262: 30,2000                        P20S1              EQUALS
000263: 30,2000                        P20S6              EQUALS
000264: 30,2000                        P40S3              EQUALS
000265: 30,2000                        R35A               EQUALS
000266: 30,2000                                           BNKSUM   30
000267:
000268: 31,2000                                           BANK     31
000269: 31,2000                        R35                EQUALS
000270: 31,2000                        RT23               EQUALS
000271: 31,2000                        P30S1A             EQUALS
000272: 31,2000                        R34                EQUALS
000273: 31,2000                        CDHTAG2            EQUALS
000274: 31,2000                        CSIPROG9           EQUALS
000275: 31,2000                        R31                EQUALS
000276: 31,2000                        P22S               EQUALS
000277: 31,2000                        RTE3               EQUALS
000278: 31,2000                                           BNKSUM   31
000279:
000280: 32,2000                                           BANK     32
000281: 32,2000                        MSGSCAN1           EQUALS
000282: 32,2000                        RTE                EQUALS
000283: 32,2000                        DELRSPL1           EQUALS
000284: 32,2000                        IMUCAL3            EQUALS
000285: 32,2000                                           BNKSUM   32
000286:
000287: 33,2000                                           BANK     33
000288: 33,2000                        TESTLEAD           EQUALS
000289:


000291:
000292: 33,2000                        IMUCAL             EQUALS
000293: 33,2000                                           BNKSUM   33
000294:
000295: 34,2000                                           BANK     34
000296: 34,2000                        P11ONE             EQUALS
000297: 34,2000                        P20S3              EQUALS
000298: 34,2000                        P20S4              EQUALS
000299: 34,2000                        RTECON             EQUALS
000300: 34,2000                                           BNKSUM   34
000301:
000302: 35,2000                                           BANK     35
000303: 35,2000                        RTECON1            EQUALS
000304: 35,2000                        CSI/CDH            EQUALS
000305: 35,2000                        P30S1              EQUALS
000306: 35,2000                        P30S               EQUALS
000307: 35,2000                        P17S1              EQUALS
000308: 35,2000                        MEASINC3           EQUALS
000309: 35,2000                        INTINIT2           EQUALS
000310: 35,2000                                           BNKSUM   35
000311:
000312:                                                                                                  #  MODULE 6 CONTAINS BANKS 36 THROUGH 43
000313:
000314: 36,2000                                           BANK     36
000315: 36,2000                        MEASINC            EQUALS
000316: 36,2000                        MEASINC1           EQUALS
000317: 36,2000                        P17S               EQUALS
000318: 36,2000                        RTE1               EQUALS
000319: 36,2000                                           BNKSUM   36
000320:
000321: 37,2000                                           BANK     37
000322: 37,2000                        P20S               EQUALS
000323: 37,2000                        BODYATT            EQUALS
000324: 37,2000                        RENDEZ             EQUALS
000325: 37,2000                        SERVICES           EQUALS
000326: 37,2000                        P11TWO             EQUALS
000327: 37,2000                        CDHTAG3            EQUALS
000328: 37,2000                                           BNKSUM   37
000329:
000330: 40,2000                                           BANK     40
000331: 40,2000                        PINSUPER           EQUALS
000332:


000334:
000335: 40,2000                        SELFSUPR           EQUALS
000336: 40,2000                        PINBALL1           EQUALS
000337: 40,2000                        R36CM1             EQUALS
000338: 40,2000                                           BNKSUM   40
000339:
000340: 41,2000                                           BANK     41
000341: 41,2000                        PINBALL2           EQUALS
000342: 41,2000                        R36LM              EQUALS
000343: 41,2000                                           BNKSUM   41
000344:
000345: 42,2000                                           BANK     42
000346: 42,2000                        SBAND              EQUALS
000347: 42,2000                        PINBALL3           EQUALS
000348: 42,2000                        EXTVBS             EQUALS
000349: 42,2000                        R36LM1             EQUALS
000350: 42,2000                                           BNKSUM   42
000351:
000352: 43,2000                                           BANK     43
000353: 43,2000                        SELFCHEC           EQUALS
000354: 43,2000                        EXTVERBS           EQUALS
000355: 43,2000                                           BNKSUM   43
000356:
000357: 43,2000  26,3334               HI6ZEROS           EQUALS   ZEROVECS                              #  ZERO VECTOR ALWAYS IN HIGH MEMORY
000358: 43,2000  04,3562               LO6ZEROS           EQUALS   ZEROVEC                               #  ZERO VECTOR ALWAYS IN LOW MEMORY
000359: 43,2000  26,3332               HIDPHALF           EQUALS   UNITX
000360: 43,2000  04,3560               LODPHALF           EQUALS   XUNIT
000361: 43,2000  26,3324               HIDP1/4            EQUALS   DP1/4TH
000362: 43,2000  04,3606               LODP1/4            EQUALS   D1/4                                  #  2DEC .25
000363: 43,2000  26,3332               HIUNITX            EQUALS   UNITX
000364: 43,2000  26,3330               HIUNITY            EQUALS   UNITY
000365: 43,2000  26,3326               HIUNITZ            EQUALS   UNITZ
000366: 43,2000  04,3560               LOUNITX            EQUALS   XUNIT                                 #  2DEC .5
000367: 43,2000  04,3556               LOUNITY            EQUALS   YUNIT                                 #  2DEC 0
000368: 43,2000  04,3554               LOUNITZ            EQUALS   ZUNIT                                 #  2DEC 0
000369: 43,2000  11,3763               3/4LOWDP           EQUALS   3/4                                   #  2DEC 3.0 B-2
000370:
000371: 43,2000  30,2000                                  SBANK=   LOWSUPER
000372:
000373:                                                                                                  #  ROPE SPECIFIC ASSIGNS OBVIATING NEED TO CHECK COMPUTER FLAG IN DETVRUZVING INTEGRATION AREA ENTRIES
000374:
000375: 43,2000  13,3105               OTHPREC            EQUALS   LEMPREC
000376: 43,2000  13,2760               ATOPOTH            EQUALS   ATOPLEM
000377: 43,2000  13,2705               ATOPTHIS           EQUALS   ATOPCSM
000378: 43,2000  0000173               MOONTHIS           EQUALS   CMOONFLG
000379:


000381:
000382: 43,2000  0000174               MOONOTH            EQUALS   LMOONFLG
000383: 43,2000  13,2720               MOVATHIS           EQUALS   MOVEACSM
000384: 43,2000  31,2032               STATEST            EQUALS   V83CALL                               #  * TEMPORARY
000385: 43,2000  13,3071               THISPREC           EQUALS   CSMPREC
000386: 43,2000  26,3332               THISAXIS           =        UNITX
000387: 43,2000     5054               ERASID             EQUALS   LOW10                                 #  DOWNLINK ERASABLE DUMP ID
000388: 43,2000     6214               DELAYNUM           EQUALS   THREE
000389:
000390:                                                                                                  # ****************************************************************************************************************
000391:
000392:                                                                                                  #  THE FOLLOWING ECADRS ARE DEFINED TO FACILITATE EBANK SWITCHING.  THEY ALSO MAKE IT EASIER FOR
000393:                                                                                                  #  ERASABLE CONTROL TO REARRANGE ERASABLE MEMORY WITHOUT DISRUPTING THE PROGRAMS WHICH SET EBANKS.
000394:                                                                                                  #  PRIOR TO ROPE RELEASE FIXED MEMORY CAN BE SAVED BY SETTING EACH EBXXXX =EBANKX (X=4,5,6,7).  EBANKX OF COURSE
000395:                                                                                                  #  WILL BE THE BANK WHERE THE ERASABLES REFERENCED IN EBXXXX WILL BE STORED.
000396:
000397: 07,2000                                           BANK     7
000398: 07,2000  E7,1674                                  EBANK=   MARKDOWN
000399: 07,2000           03674        EBMARKDO           ECADR    MARKDOWN
000400: 07,2001  E7,1725                                  EBANK=   MRKBUF1
000401: 07,2001           03725        EBMRKBUF           ECADR    MRKBUF1
000402:
000403: 24,2000                                           BANK     24
000404: 24,2000  E7,1431                                  EBANK=   DVCNTR
000405: 24,2000           03431        EBDVCNTR           ECADR    DVCNTR
000406: 24,2001  E7,1672                                  EBANK=   P40TMP
000407: 24,2001           03672        EBP40TMP           ECADR    P40TMP
000408:
000409: 34,2000                                           BANK     34
000410: 34,2000  E7,1431                                  EBANK=   DVCNTR
000411: 34,2000           03431        EBDVCNT            ECADR    DVCNTR
000412: 34,2001  E5,1426                                  EBANK=   QPLACES
000413: 34,2001           02426        EBQPLACE           ECADR    QPLACES
000414:
000415: 37,2000                                           BANK     37
000416: 37,2000     1231                                  EBANK=   RN1
000417: 37,2000           01231        EBRN1              ECADR    RN1
000418:
000419:                                                                                                  # ****************************************************************************************************************
000420:


End of include-file TAGS_FOR_RELATIVE_SETLOC_AND_BLANK_BANK_CARDS.agc.  Parent file is MAIN.agc


