
Source Code


000002:                                                                                                  ## Copyright:   Public domain.
000003:                                                                                                  ## Filename:    AGC_BLOCK_TWO_SELF-CHECK.agc
000004:                                                                                                  ## Purpose:     A section of Luminary revision 97.
000005:                                                                                                  ##              It is part of the reconstructed source code for the
000006:                                                                                                  ##              original release of the flight software for the Lunar
000007:                                                                                                  ##              Module's (LM) Apollo Guidance Computer (AGC) for Apollo 11.
000008:                                                                                                  ##              The code has been recreated from a copy of Luminary 99
000009:                                                                                                  ##              revision 001, using asterisks indicating changed lines in
000010:                                                                                                  ##              the listing and Luminary Memos #83 and #85, which list
000011:                                                                                                  ##              changes between Luminary 97 and 98, and 98 and 99. The
000012:                                                                                                  ##              code has been adapted such that the resulting bugger words
000013:                                                                                                  ##              exactly match those specified for Luminary 97 in NASA drawing
000014:                                                                                                  ##              2021152D, which gives relatively high confidence that the
000015:                                                                                                  ##              reconstruction is correct.
000016:                                                                                                  ## Reference:   pp. 1284-1293
000017:                                                                                                  ## Assembler:   yaYUL
000018:                                                                                                  ## Contact:     Ron Burkey <info@sandroid.org>.
000019:                                                                                                  ## Website:     www.ibiblio.org/apollo/index.html
000020:                                                                                                  ## Mod history: 2019-07-28 MAS  Created from Luminary 99.
000021:


000023:                                                                                                  #  PROGRAM DESCRIPTION                           DATE   20 DECEMBER 1967
000024:                                                                                                  #  PROGRAM NAME - SELF-CHECK                     LOG SECTION  AGC BLOCK TWO SELF-CHECK
000025:                                                                                                  #  MOD NO - 1                                    ASSEMBLY SUBROUTINE UTILITYM REV 25
000026:                                                                                                  #  MOD BY - GAUNTT
000027:
000028:                                                                                                  #  FUNCTIONAL DESCRIPTION
000029:                                                                                                  #        PROGRAM HAS TWO MAIN PARTS.  THE FIRST IS SELF-CHECK WHICH RUNS AS A ZERO PRIORITY JOB WITH NO CORE SET, AS
000030:                                                                                                  #        PART OF THE BACK-UP IDLE LOOP.  THE SECOND IS SHOW-BANKSUM WHICH RUNS AS A REGULAR EXECUTIVE JOB WITH ITS OWN
000031:                                                                                                  #        STARTING VERB.
000032:
000033:                                                                                                  #        THE PURPOSE OF SELF-CHECK IS TO CHECK OUT VARIOUS PARTS OF THE COMPUTER AS OUTLINED BELOW IN THE OPTIONS.
000034:
000035:                                                                                                  #        THE PURPOSE OF SHOW-BANKSUM IS TO DISPLAY THE SUM OF EACH BANK, ONE AT A TIME.
000036:
000037:                                                                                                  #        IN ALL THERE ARE 7 POSSIBLE OPTIONS IN THIS BLOCK II VERSION OF SELF-CHECK.  MORE DETAIL DESCRIPTION MAY BE
000038:                                                                                                  #        FOUND IN E-2065 BLOCK II AGC SELF-CHECK AND SHOW BANKSUM BY EDWIN D. SMALLY DECEMBER 1966, AND ADDENDA 2 AND 3.
000039:
000040:                                                                                                  #        THE DIFFERENT OPTIONS ARE CONTROLLED BY PUTTING DIFFERENT NUMBERS IN THE SMODE REGISTER (NOUN 27).  BELOW IS
000041:                                                                                                  #        A DESCRIPTION OF WHAT PARTS OF THE COMPUTER THAT ARE CHECKED BY THE OPTIONS, AND THE CORRESPONDING NUMBER, IN
000042:                                                                                                  #        OCTAL, TO LOAD INTO SMODE.
000043:                                                                                                  #                +-4             ERASABLE MEMORY
000044:                                                                                                  #                +-5             FIXED MEMORY
000045:                                                                                                  #                +-1,2,3,6,7,10  EVERYTHING IN OPTIONS 4 AND 5.
000046:                                                                                                  #                -0              SAME AS +-10 UNTIL AN ERROR IS DETECTED.
000047:                                                                                                  #                +0              NO CHECK, PUTS COMPUTER INTO THE BACKUP IDLE LOOP.
000048:
000049:                                                                                                  #  WARNINGS
000050:                                                                                                  #        USE OF E MEMORY RESERVED FOR SELF-CHECK (EVEN IN IDLE LOOP) AS TEMP STORAGE BY OTHER PROGRAMS IS DANGEROUS.
000051:                                                                                                  #        SMODE SET GREATER THAN OCT 10 PUTS COMPUTER INTO BACKUP IDLE LOOP.
000052:
000053:                                                                                                  #  CALLING SEQUENCE
000054:                                                                                                  #        TO CALL SELF-CHECK KEY IN
000055:                                                                                                  #                V 21 N 27 E     OPTION NUMBER E
000056:                                                                                                  #        TO CALL SHOW-BANKSUM KEY IN
000057:                                                                                                  #                V 91 E          DISPLAYS FIRST BANK
000058:                                                                                                  #                V 33 E          PROCEED, DISPLAYS NEXT BANK
000059:
000060:                                                                                                  #  EXIT MODES, NORMAL AND ALARM
000061:                                                                                                  #        SELF-CHECK NORMALLY CONTINUES INDEFINITELY UNLESS THERE IS AN ERROR DETECTED.  IF SO + OPTION NUMBERS PUT
000062:                                                                                                  #        COMPUTER INTO BACKUP IDLE LOOP, - OPTION NUMBERS RESTART THE OPTION.
000063:
000064:                                                                                                  #        THE -0 OPTION PROCEEDS FROM THE LINE FOLLOWING THE LINE WHERE THE ERROR WAS DETECTED.
000065:
000066:                                                                                                  #        SHOW-BANKSUM PROCEEDS UNTIL A TERMINATE IS KEYED IN (V 34 E).  THE COMPUTER IS PUT INTO THE BACKUP IDLE LOOP
000067:
000068:                                                                                                  #  OUTPUT


000070:                                                                                                  #        SELF-CHECK UPON DETECTING AN ERROR LOADS THE SELF-CHECK ALARM CONSTANT (01102) INTO THE FAILREG SET AND
000071:                                                                                                  #        TURNS ON THE ALARM LIGHT.  THE OPERATOR MAY THEN DISPLAY THE THREE FAILREGS BY KEYING IN V 05 N 09 E.  FOR FURTHER
000072:                                                                                                  #        INFORMATION HE MAY KEY IN V 05 N 08 E, THE DSKY DISPLAY IN R1 WILL BE ADDRESS+1 OF WHERE THE ERROR WAS DETECTED,
000073:                                                                                                  #        IN R2 THE BBCON OF SELF-CHECK, AND IN R3 THE TOTAL NUMBER OF ERRORS DETECTED BY SELF-CHECK SINCE THE LAST MAN
000074:                                                                                                  #        INITIATED FRESH START (SLAP1).
000075:
000076:                                                                                                  #        SHOW-BANKSUM STARTING WITH BANK 0 DISPLAYS IN R1 THE BANK SUM (A +-NUMBER EQUAL TO THE BANK NUMBER), IN R2
000077:                                                                                                  #        THE BANK NUMBER, AND IN R3 THE BUGGER WORD.
000078:
000079:                                                                                                  #  ERASABLE INITIALIZATION REQUIRED
000080:                                                                                                  #        ACCOMPLISHED BY FRESH START
000081:                                                                                                  #                SMODE SET TO +0
000082:
000083:                                                                                                  #  DEBRIS
000084:                                                                                                  #        ALL EXITS FROM THE CHECK OF ERASABLE (ERASCHK) RESTORE ORIGINAL CONTENTS TO REGISTERS UNDER CHECK.
000085:                                                                                                  #        EXCEPTION IS A RESTART.  RESTART THAT OCCURS DURING ERASCHK RESTORES ERASABLE, UNLESS THERE IS EVIDENCE TO DOUBT
000086:                                                                                                  #        E MEMORY, IN WHICH CASE PROGRAM THEN DOES A FRESH START (DOFSTART).
000087:
000088: 25,3770                                           BANK     25
000089: 43,2000                                           SETLOC   SELFCHEC
000090: 43,2000                                           BANK
000091:
000092: 43,3232                                           COUNT*   $$/SELF
000093: 43,3232     4753               SBIT1              EQUALS   BIT1
000094: 43,3232     4752               SBIT2              EQUALS   BIT2
000095: 43,3232     4751               SBIT3              EQUALS   BIT3
000096: 43,3232     4750               SBIT4              EQUALS   BIT4
000097: 43,3232     4747               SBIT5              EQUALS   BIT5
000098: 43,3232     4746               SBIT6              EQUALS   BIT6
000099: 43,3232     4745               SBIT7              EQUALS   BIT7
000100: 43,3232     4744               SBIT8              EQUALS   BIT8
000101: 43,3232     4743               SBIT9              EQUALS   BIT9
000102: 43,3232     4742               SBIT10             EQUALS   BIT10
000103: 43,3232     4741               SBIT11             EQUALS   BIT11
000104: 43,3232     4740               SBIT12             EQUALS   BIT12
000105: 43,3232     4737               SBIT13             EQUALS   BIT13
000106: 43,3232     4736               SBIT14             EQUALS   BIT14
000107: 43,3232     4735               SBIT15             EQUALS   BIT15
000108:
000109: 43,3232     4755               S+ZERO             EQUALS   ZERO
000110: 43,3232     4753               S+1                EQUALS   BIT1
000111: 43,3232     4752               S+2                EQUALS   BIT2
000112: 43,3232     6245               S+3                EQUALS   THREE
000113: 43,3232     4751               S+4                EQUALS   FOUR
000114: 43,3232     4756               S+5                EQUALS   FIVE
000115: 43,3232     6242               S+6                EQUALS   SIX


000117: 43,3232     4757               S+7                EQUALS   SEVEN
000118: 43,3232     4357               S8BITS             EQUALS   LOW8                                  #  00377
000119: 43,3232     4771               CNTRCON            =        OCT50                                 #  USED IN CNTRCHK
000120: 43,3232           00061        ERASCON1           OCTAL    00061                                 #  USED IN ERASCHK
000121: 43,3233           01373        ERASCON2           OCTAL    01373                                 #  USED IN ERASCHK
000122: 43,3234     5007               ERASCON6           =        OCT1400                               #  USED IN ERASCHK
000123: 43,3234           01461        ERASCON3           OCTAL    01461                                 #  USED IN ERASCHK
000124: 43,3235           01773        ERASCON4           OCTAL    01773                                 #  USED IN ERASCHK
000125: 43,3236     5012               S10BITS            EQUALS   LOW10                                 #  01777, USED IN ERASCHK
000126: 43,3236     5020               SBNK03             EQUALS   PRIO6                                 #  06000, USED IN ROPECHK
000127: 43,3236     4350               -MAXADRS           =        HI5                                   #  FOR ROPECHK
000128: 43,3236           00060        SIXTY              OCTAL    00060
000129: 43,3237           60017        SUPRCON            OCTAL    60017                                 #  USED IN ROPECHK
000130: 43,3240           17777        S13BITS            OCTAL    17777
000131: 43,3241           25252        CONC+S1            OCTAL    25252                                 #  USED IN CYCLSHFT
000132: 43,3242           52400        CONC+S2            OCTAL    52400                                 #  USED IN CYCLSHFT
000133: 43,3243           76777        ERASCON5           OCTAL    76777
000134: 43,3244     5660               S-7                =        OCT77770
000135: 43,3244     6112               S-4                EQUALS   NEG4
000136: 43,3244     7745               S-3                EQUALS   NEG3
000137: 43,3244     7746               S-2                EQUALS   NEG2
000138: 43,3244     7747               S-1                EQUALS   NEGONE
000139: 43,3244     4754               S-ZERO             EQUALS   NEG0
000140:
000141: 43,3244  E3,1400                                  EBANK=   LST1
000142: 43,3244           01371        ADRS1              ADRES    SKEEP1
000143: 43,3245           03336        SELFADRS           ADRES    SELFCHK                               #  SELFCHK RETURN ADDRESS.  SHOULD BE PUT
000144:                                                                                                  #  IN SELFRET WHEN GOING FROM SELFCHK TO
000145:                                                                                                  #  SHOWSUM AND PUT IN SKEEP1 WHEN GOING
000146:                                                                                                  #  FROM SHOWSUM TO SELF-CHECK.
000147:
000148: 43,3246           31360        PRERRORS           CA       ERESTORE                              #  IS IT NECESSARY TO RESTORE ERASABLE
000149: 43,3247           00006                           EXTEND
000150: 43,3250           13257                           BZF      ERRORS                                #  NO
000151: 43,3251           00006                           EXTEND
000152: 43,3252           31376                           DCA      SKEEP5
000153: 43,3253           51377                           INDEX    SKEEP7
000154: 43,3254           52001                           DXCH     0000                                  #  RESTORE THE TWO ERASABLE REGISTERS
000155: 43,3255           34755                           CA       S+ZERO
000156: 43,3256           55360                           TS       ERESTORE
000157: 43,3257           00004        ERRORS             INHINT
000158: 43,3260           30002                           CA       Q
000159: 43,3261           55357                           TS       SFAIL                                 #  SAVE Q FOR FAILURE LOCATION
000160: 43,3262           55363                           TS       ALMCADR                               #  FOR DISPLAY WITH BBANK AND ERCOUNT
000161: 43,3263           25365                           INCR     ERCOUNT                               #  KEEP TRACK OF NUMBER OF MALFUNCTIONS.
000162: 43,3264           05571        TCALARM2           TC       ALARM2
000163: 43,3265           01102                           OCT      01102                                 #  SELF-CHECK MALFUNCTION INDICATOR
000164: 43,3266           11362                           CCS      SMODE
000165: 43,3267           34755        SIDLOOP            CA       S+ZERO
000166: 43,3270           55362                           TS       SMODE


000168: 43,3271           03336                           TC       SELFCHK                               #  GO TO IDLE LOOP
000169: 43,3272           01357                           TC       SFAIL                                 #  CONTINUE WITH SELF-CHECK
000170:
000171: 43,3273           10000        -1CHK              CCS      A
000172: 43,3274           13246                           TCF      PRERRORS
000173: 43,3275           13246                           TCF      PRERRORS
000174: 43,3276           10000                           CCS      A
000175: 43,3277           13246                           TCF      PRERRORS
000176: 43,3300           00002                           TC       Q
000177:
000178: 43,3301           00006        SMODECHK           EXTEND
000179: 43,3302           23371                           QXCH     SKEEP1
000180: 43,3303           03332                           TC       CHECKNJ                               #  CHECK FOR NEW JOB
000181: 43,3304           11362                           CCS      SMODE
000182: 43,3305           03312                           TC       SOPTIONS
000183: 43,3306           03303                           TC       SMODECHK   +2                         #  TO BACKUP IDLE LOOP
000184: 43,3307           03312                           TC       SOPTIONS
000185: 43,3310           25366                           INCR     SCOUNT
000186: 43,3311           01371                           TC       SKEEP1                                #  CONTINUE WITH SELF-CHECK
000187:
000188: 43,3312           65660        SOPTIONS           AD       S-7
000189: 43,3313           00006                           EXTEND
000190: 43,3314           63316                           BZMF     +2                                    #  FOR OPTIONS BELOW NINE.
000191: 43,3315           03267        BNKOPTN            TC       SIDLOOP                               #  ILLEGAL OPTION.  GO TO IDLE LOOP.
000192: 43,3316           25366                           INCR     SCOUNT                                #  FOR OPTIONS BELOW NINE.
000193: 43,3317           64757                           AD       S+7
000194:
000195: 43,3320           50000                           INDEX    A
000196: 43,3321           03322                           TC       SOPTION1
000197: 43,3322           01371        SOPTION1           TC       SKEEP1                                #  WAS TC+TCF
000198: 43,3323           01371        SOPTION2           TC       SKEEP1                                #  WAS IN:OUT1
000199: 43,3324           01371        SOPTION3           TC       SKEEP1                                #  WAS COUNTCHK
000200: 43,3325           03337        SOPTION4           TC       ERASCHK
000201: 43,3326           03520        SOPTION5           TC       ROPECHK
000202: 43,3327           01371        SOPTION6           TC       SKEEP1
000203: 43,3330           01371        SOPTION7           TC       SKEEP1
000204: 43,3331           01371        SOPTON10           TC       SKEEP1                                #  CONTINUE WITH SELF-CHECK
000205:
000206: 43,3332           00006        CHECKNJ            EXTEND
000207: 43,3333           23361                           QXCH     SELFRET                               #  SAVE RETURN ADDRESS WHILE TESTING NEWJOB
000208: 43,3334           04635                           TC       POSTJUMP                              #  TO SEE IF ANY JOBS HAVE BECOME ACTIVE.
000209: 43,3335           03214                           CADR     ADVAN
000210:
000211: 43,3336           03301        SELFCHK            TC       SMODECHK                              #  ** CHARLEY, COME IN HERE
000212:
000213:                                                                                                  #  SKEEP7 HOLDS LOWEST OF TWO ADDRESSES BEING CHECKED.
000214:                                                                                                  #  SKEEP6 HOLDS B(X+1).
000215:                                                                                                  #  SKEEP5 HOLDS B(X).
000216:                                                                                                  #  SKEEP4 HOLDS C(EBANK) DURING ERASLOOP AND CHECKNJ.
000217:                                                                                                  #  SKEEP3 HOLDS LAST ADDRESS BEING CHECKED (HIGHEST ADDRESS).


000219:                                                                                                  #  SKEEP2 CONTROLS CHECKING OF NON-SWITCHABLE ERASABLE MEMORY WITH BANK NUMBERS IN EB.
000220:                                                                                                  #  ERASCHK TAKES APPROXMATELY 7 SECONDS
000221:
000222: 43,3337           34753        ERASCHK            CA       S+1
000223: 43,3340           55372                           TS       SKEEP2
000224: 43,3341           34755        0EBANK             CA       S+ZERO
000225: 43,3342           54003                           TS       EBANK
000226: 43,3343           33234                           CA       ERASCON3                              #  01461
000227: 43,3344           55377                           TS       SKEEP7                                #  STARTING ADDRESS
000228: 43,3345           35012                           CA       S10BITS                               #  01777
000229: 43,3346           55373                           TS       SKEEP3                                #  LAST ADDRESS CHECKED
000230: 43,3347           03367                           TC       ERASLOOP
000231:
000232: 43,3350           35007        E134567B           CA       ERASCON6                              #  01400
000233: 43,3351           55377                           TS       SKEEP7                                #  STARTING ADDRESS
000234: 43,3352           35012                           CA       S10BITS                               #  01777
000235: 43,3353           55373                           TS       SKEEP3                                #  LAST ADDRESS CHECKED
000236: 43,3354           03367                           TC       ERASLOOP
000237:
000238: 43,3355           35007        2EBANK             CA       ERASCON6                              #  01400
000239: 43,3356           55377                           TS       SKEEP7                                #  STARTING ADDRESS
000240: 43,3357           33235                           CA       ERASCON4                              #  01773
000241: 43,3360           55373                           TS       SKEEP3                                #  LAST ADDRESS CHECKED
000242: 43,3361           03367                           TC       ERASLOOP
000243:
000244: 43,3362           55372        NOEBANK            TS       SKEEP2                                #  +0
000245: 43,3363           33232                           CA       ERASCON1                              #  00061
000246: 43,3364           55377                           TS       SKEEP7                                #  STARTING ADDRESS
000247: 43,3365           33233                           CA       ERASCON2                              #  01373
000248: 43,3366           55373                           TS       SKEEP3                                #  LAST ADDRESS CHECKED
000249:
000250: 43,3367           00004        ERASLOOP           INHINT
000251: 43,3370           30003                           CA       EBANK                                 #  STORES C(EBANK)
000252: 43,3371           55374                           TS       SKEEP4
000253: 43,3372           00006                           EXTEND
000254: 43,3373           51377                           NDX      SKEEP7
000255: 43,3374           30001                           DCA      0000
000256: 43,3375           53376                           DXCH     SKEEP5                                #  STORES C(X) AND C(X+1) IN SKEEP6 AND 5.
000257: 43,3376           31377                           CA       SKEEP7
000258: 43,3377           55360                           TS       ERESTORE                              #  IF RESTART, RESTORE C(X) AND C(X+1)
000259: 43,3400           54001                           TS       L
000260: 43,3401           24001                           INCR     L
000261: 43,3402           50000                           NDX      A
000262: 43,3403           52001                           DXCH     0000                                  #  PUTS OWN ADDRESS IN X AND X +1
000263: 43,3404           51377                           NDX      SKEEP7
000264: 43,3405           40001                           CS       0001                                  #  CS X+1
000265: 43,3406           51377                           NDX      SKEEP7
000266: 43,3407           60000                           AD       0000                                  #  AD X
000267: 43,3410           03273                           TC       -1CHK
000268: 43,3411           31360                           CA       ERESTORE                              #  HAS ERASABLE BEEN RESTORED
000269: 43,3412           00006                           EXTEND


000271: 43,3413           13437                           BZF      ELOOPFIN                              #  YES, EXIT ERASLOOP.
000272: 43,3414           00006                           EXTEND
000273: 43,3415           51377                           NDX      SKEEP7
000274: 43,3416           40001                           DCS      0000                                  #  COMPLEMENT OF ADDRESS OF X AND X+1
000275: 43,3417           51377                           NDX      SKEEP7
000276: 43,3420           52001                           DXCH     0000                                  #  PUT COMPLEMENT OF ADDRESS OF X AND X+1
000277: 43,3421           51377                           NDX      SKEEP7
000278: 43,3422           40000                           CS       0000                                  #  CS X
000279: 43,3423           51377                           NDX      SKEEP7
000280: 43,3424           60001                           AD       0001                                  #  AD X+1
000281: 43,3425           03273                           TC       -1CHK
000282: 43,3426           31360                           CA       ERESTORE                              #  HAS ERASABLE BEEN RESTORED
000283: 43,3427           00006                           EXTEND
000284: 43,3430           13437                           BZF      ELOOPFIN                              #  YES, EXIT ERASLOOP.
000285: 43,3431           00006                           EXTEND
000286: 43,3432           31376                           DCA      SKEEP5
000287: 43,3433           51377                           NDX      SKEEP7
000288: 43,3434           52001                           DXCH     0000                                  #  PUT B(X) AND B(X+1) BACK INTO X AND X+1
000289: 43,3435           34755                           CA       S+ZERO
000290: 43,3436           55360                           TS       ERESTORE                              #  IF RESTART, DO NOT RESTORE C(X), C(X+1)
000291: 43,3437           00003        ELOOPFIN           RELINT
000292: 43,3440           03332                           TC       CHECKNJ                               #  CHECK FOR NEW JOB
000293: 43,3441           31374                           CA       SKEEP4                                #  REPLACES B(EBANK)
000294: 43,3442           54003                           TS       EBANK
000295: 43,3443           25377                           INCR     SKEEP7
000296: 43,3444           41377                           CS       SKEEP7
000297: 43,3445           61373                           AD       SKEEP3
000298: 43,3446           00006                           EXTEND
000299: 43,3447           13451                           BZF      +2
000300: 43,3450           03367                           TC       ERASLOOP                              #  GO TO NEXT ADDRESS IN SAME BANK
000301: 43,3451           11372                           CCS      SKEEP2
000302: 43,3452           03362                           TC       NOEBANK
000303: 43,3453           25372                           INCR     SKEEP2                                #  PUT +1 IN SKEEP2.
000304: 43,3454           30003                           CA       EBANK
000305: 43,3455           64743                           AD       SBIT9
000306: 43,3456           54003                           TS       EBANK
000307: 43,3457           63243                           AD       ERASCON5                              #  76777, CHECK FOR BANK E2
000308: 43,3460           00006                           EXTEND
000309: 43,3461           13355                           BZF      2EBANK
000310: 43,3462           10003                           CCS      EBANK
000311: 43,3463           03350                           TC       E134567B                              #  GO TO EBANKS 1,3,4,5,6, AND 7
000312: 43,3464           35007                           CA       ERASCON6                              #  END OF ERASCHK
000313: 43,3465           54003                           TS       EBANK
000314:
000315:                                                                                                  #  CNTRCHK PERFORMS A CS OF ALL REGISTERS FROM OCT. 60 THROUGH OCT. 10.
000316:                                                                                                  #  INCLUDED ARE ALL COUNTERS, T6-1, CYCLE AND SHIFT, AND ALL RUPT REGISTERS
000317:
000318: 43,3466           34771        CNTRCHK            CA       CNTRCON                               #  00050
000319: 43,3467           55372        CNTRLOOP           TS       SKEEP2
000320: 43,3470           64750                           AD       SBIT4                                 #  +10 OCTAL
000321: 43,3471           50000                           INDEX    A
000322: 43,3472           40000                           CS       0000


000324: 43,3473           11372                           CCS      SKEEP2
000325: 43,3474           03467                           TC       CNTRLOOP
000326:
000327:                                                                                                  #  CYCLSHFT CHECKS THE CYCLE AND SHIFT REGISTERS
000328:
000329: 43,3475           33241        CYCLSHFT           CA       CONC+S1                               #  25252
000330: 43,3476           54020                           TS       CYR                                   #  C(CYR) = 12525
000331: 43,3477           54022                           TS       CYL                                   #  C(CYL) = 52524
000332: 43,3500           54021                           TS       SR                                    #  C(SR) = 12525
000333: 43,3501           54023                           TS       EDOP                                  #  C(EDOP) = 00125
000334: 43,3502           60020                           AD       CYR                                   #  37777         C(CYR) = 45252
000335: 43,3503           60022                           AD       CYL                                   #  00-12524      C(CYL) = 25251
000336: 43,3504           60021                           AD       SR                                    #  00-25251      C(SR) = 05252
000337: 43,3505           60023                           AD       EDOP                                  #  00-25376      C(EDOP) = +0
000338: 43,3506           63242                           AD       CONC+S2                               #  C(CONC+S2) = 52400
000339: 43,3507           03273                           TC       -1CHK
000340: 43,3510           60020                           AD       CYR                                   #  45252
000341: 43,3511           60022                           AD       CYL                                   #  72523
000342: 43,3512           60021                           AD       SR                                    #  77775
000343: 43,3513           60023                           AD       EDOP                                  #  77775
000344: 43,3514           64753                           AD       S+1                                   #  77776
000345: 43,3515           03273                           TC       -1CHK
000346:
000347: 43,3516           25367                           INCR     SCOUNT     +1
000348: 43,3517           03301                           TC       SMODECHK
000349:
000350:                                                                                                  #  SKEEP1 HOLDS SUM
000351:                                                                                                  #  SKEEP2 HOLDS PRESENT CONTENTS OF ADDRESS IN ROPECHK AND SHOWSUM ROUTINES
000352:                                                                                                  #  SKEEP2 HOLDS BANK NUMBER IN LOW ORDER BITS DURING SHOWSUM DISPLAY
000353:                                                                                                  #  SKEEP3 HOLDS PRESENT ADDRESS (00000 TO 01777 IN COMMON FIXED BANKS)
000354:                                                                                                  #                               (04000 TO 07777 IN FXFX BANKS)
000355:                                                                                                  #  SKEEP3 HOLDS BUGGER WORD DURING SHOWSUM DISPLAY
000356:                                                                                                  #  SKEEP4 HOLDS BANK NUMBER AND SUPER BANK NUMBER
000357:                                                                                                  #  SKEEP5 COUNTS 2 SUCCESSIVE TC SELF WORDS
000358:                                                                                                  #  SKEEP6 CONTROLS ROPECHK OR SHOWSUM OPTION
000359:                                                                                                  #  SKEEP7 CONTROLS WHEN ROUNTINE IS IN COMMON FIXED OR FIXED FIXED BANKS
000360:
000361: 43,3520           34754        ROPECHK            CA       S-ZERO                                #  *
000362: 43,3521           55376                           TS       SKEEP6                                #  * -0 FOR ROPECHK.
000363: 43,3522           34755        STSHOSUM           CA       S+ZERO                                #  * SHOULD BE ROPECHK
000364:
000365: 43,3523           55374                           TS       SKEEP4                                #  BANK NUMBER
000366: 43,3524           34753                           CA       S+1
000367: 43,3525           55377        COMMFX             TS       SKEEP7
000368: 43,3526           34755                           CA       S+ZERO
000369: 43,3527           55371                           TS       SKEEP1
000370: 43,3530           55373                           TS       SKEEP3
000371: 43,3531           34753                           CA       S+1
000372: 43,3532           55375                           TS       SKEEP5                                #  COUNTS DOWN 2 TC SELF WORDS
000373: 43,3533           31374        COMADRS            CA       SKEEP4
000374: 43,3534           54001                           TS       L                                     #  TO SET SUPER BANK
000375: 43,3535           74350                           MASK     HI5


000377: 43,3536           61373                           AD       SKEEP3
000378: 43,3537           04651                           TC       SUPDACAL                              #  SUPER DATA CALL
000379: 43,3540           03563                           TC       ADSUM
000380: 43,3541           64741                           AD       SBIT11                                #  02000
000381: 43,3542           03574                           TC       ADRSCHK
000382:
000383: 43,3543           40000        FXFX               CS       A
000384: 43,3544           55377                           TS       SKEEP7
000385: 43,3545           00006                           EXTEND
000386: 43,3546           13551                           BZF      +3
000387: 43,3547           34740                           CA       SBIT12                                #  04000, STARTING ADDRESS OF BANK 02
000388: 43,3550           03552                           TC       +2
000389: 43,3551           35020                           CA       SBNK03                                #  06000, STARTING ADDRESS OF BANK 03
000390: 43,3552           55373                           TS       SKEEP3
000391: 43,3553           34755                           CA       S+ZERO
000392: 43,3554           55371                           TS       SKEEP1
000393: 43,3555           34753                           CA       S+1
000394: 43,3556           55375                           TS       SKEEP5                                #  COUNTS DOWN 2 TC SELF WORDS
000395: 43,3557           51373        FXADRS             INDEX    SKEEP3
000396: 43,3560           30000                           CA       0000
000397: 43,3561           03563                           TC       ADSUM
000398: 43,3562           03574                           TC       ADRSCHK
000399:
000400: 43,3563           55372        ADSUM              TS       SKEEP2
000401: 43,3564           61371                           AD       SKEEP1
000402: 43,3565           55371                           TS       SKEEP1
000403: 43,3566           34755                           CAF      S+ZERO
000404: 43,3567           61371                           AD       SKEEP1
000405: 43,3570           55371                           TS       SKEEP1
000406: 43,3571           41372                           CS       SKEEP2
000407: 43,3572           61373                           AD       SKEEP3
000408: 43,3573           00002                           TC       Q
000409:
000410: 43,3574           22000        ADRSCHK            LXCH     A
000411: 43,3575           31373                           CA       SKEEP3
000412: 43,3576           75012                           MASK     LOW10                                 #  RELATIVE ADDRESS
000413: 43,3577           64350                           AD       -MAXADRS                              #  SUBTRACT MAX RELATIVE ADDRESS = 1777.
000414: 43,3600           00006                           EXTEND
000415: 43,3601           13670                           BZF      SOPTION                               #  CHECKSUM FINISHED IF LAST ADDRESS.
000416: 43,3602           11375                           CCS      SKEEP5                                #  IS CHECKSUM FINISHED
000417: 43,3603           03606                           TC       +3                                    #  NO
000418: 43,3604           03606                           TC       +2                                    #  NO
000419: 43,3605           03670                           TC       SOPTION                               #  GO TO ROPECHK SHOWSUM OPTION
000420: 43,3606           10001                           CCS      L                                     #  -0 MEANS A TC SELF WORD.
000421: 43,3607           03616                           TC       CONTINU
000422: 43,3610           03616                           TC       CONTINU
000423: 43,3611           03616                           TC       CONTINU
000424: 43,3612           11375                           CCS      SKEEP5
000425: 43,3613           03617                           TC       CONTINU    +1
000426: 43,3614           37747                           CA       S-1


000428: 43,3615           03617                           TC       CONTINU    +1                         #  AD IN THE BUGGER WORD
000429: 43,3616           34753        CONTINU            CA       S+1                                   #  MAKE SURE TWO CONSECUTIVE TC SELF WORDS
000430: 43,3617           55375                           TS       SKEEP5
000431: 43,3620           11376                           CCS      SKEEP6                                #  *
000432: 43,3621           10067                           CCS      NEWJOB                                #  * +1, SHOWSUM
000433: 43,3622           05122                           TC       CHANG1                                #  *
000434: 43,3623           03625                           TC       +2                                    #  *
000435: 43,3624           03332                           TC       CHECKNJ                               #  -0 IN SKEEP6 FOR ROPECHK
000436:
000437: 43,3625           25373        ADRS+1             INCR     SKEEP3
000438: 43,3626           11377                           CCS      SKEEP7
000439: 43,3627           03533                           TC       COMADRS
000440: 43,3630           03533                           TC       COMADRS
000441: 43,3631           03557                           TC       FXADRS
000442: 43,3632           03557                           TC       FXADRS
000443:
000444: 43,3633           41374        NXTBNK             CS       SKEEP4
000445: 43,3634           63723                           AD       LSTBNKCH                              #  LAST BANK TO BE CHECKED
000446: 43,3635           00006                           EXTEND
000447: 43,3636           13131                           BZF      ENDSUMS                               #  END OF SUMMING OF BANKS.
000448: 43,3637           31374                           CA       SKEEP4
000449: 43,3640           64741                           AD       SBIT11
000450: 43,3641           55374                           TS       SKEEP4                                #  37 TO 40 INCRMTS SKEEP4 BY END RND CARRY
000451: 43,3642           03646                           TC       CHKSUPR
000452: 43,3643           34735        17TO20             CA       SBIT15
000453: 43,3644           27374                           ADS      SKEEP4                                #  SET FOR BANK 20
000454: 43,3645           03662                           TC       GONXTBNK
000455: 43,3646           74350        CHKSUPR            MASK     HI5
000456: 43,3647           00006                           EXTEND
000457: 43,3650           13660                           BZF      NXTSUPR                               #  INCREMENT SUPER BANK
000458: 43,3651           63240        27TO30             AD       S13BITS
000459: 43,3652           00006                           EXTEND
000460: 43,3653           13655                           BZF      +2                                    #  BANK SET FOR 30
000461: 43,3654           03662                           TC       GONXTBNK
000462: 43,3655           33236                           CA       SIXTY                                 #  FIRST SUPER BANK
000463: 43,3656           27374                           ADS      SKEEP4
000464: 43,3657           03662                           TC       GONXTBNK
000465: 43,3660           63237        NXTSUPR            AD       SUPRCON                               #  SET BNK 30 + INCR SUPR BNK AND CANCEL
000466: 43,3661           27374                           ADS      SKEEP4                                #  ERC BIT OF THE 37 TO 40 ADVANCE.
000467: 43,3662           11377        GONXTBNK           CCS      SKEEP7
000468: 43,3663           03525                           TC       COMMFX
000469: 43,3664           34753                           CA       S+1
000470: 43,3665           03543                           TC       FXFX
000471: 43,3666           34745                           CA       SBIT7                                 #  HAS TO BE LARGER THAN NO OF FXSW BANKS.
000472: 43,3667           03525                           TC       COMMFX
000473:
000474: 43,3670           31374        SOPTION            CA       SKEEP4
000475: 43,3671           74350                           MASK     HI5                                   #  = BANK BITS
000476: 43,3672           04331                           TC       LEFT5
000477: 43,3673           54001                           TS       L                                     #  BANK NUMBER BEFORE SUPER BANK


000479: 43,3674           31374                           CA       SKEEP4
000480: 43,3675           74357                           MASK     S8BITS                                #  = SUPER BANK BITS
000481: 43,3676           00006                           EXTEND
000482: 43,3677           13705                           BZF      SOPT                                  #  BEFORE SUPER BANK
000483: 43,3700           54021                           TS       SR                                    #  SUPER BANK NECESSARY
000484: 43,3701           30001                           CA       L
000485: 43,3702           74757                           MASK     SEVEN
000486: 43,3703           60021                           AD       SR
000487: 43,3704           54001                           TS       L                                     #  BANK NUMBER WITH SUPER BANK
000488: 43,3705           31376        SOPT               CA       SKEEP6                                #  *
000489: 43,3706           00006                           EXTEND                                         #  *
000490: 43,3707           13711                           BZF      +2                                    #  * ON -0 CONTINUE WITH ROPE CHECK.
000491: 43,3710           03113                           TC       SDISPLAY                              #  * ON +1 GO TO DISPLAY OF SUM.
000492: 43,3711           11371                           CCS      SKEEP1                                #  FORCE SUM TO ABSOLUTE VALUE.
000493: 43,3712           03714                           TC       +2
000494: 43,3713           03715                           TC       +2
000495: 43,3714           64753                           AD       S+1
000496: 43,3715           55371                           TS       SKEEP1
000497: 43,3716           40001        BNKCHK             CS       L                                     #  = - BANK NUMBER
000498: 43,3717           61371                           AD       SKEEP1
000499: 43,3720           67747                           AD       S-1
000500: 43,3721           03273                           TC       -1CHK                                 #  CHECK SUM
000501: 43,3722           03633                           TC       NXTBNK
000502:
000503: 43,3723     0067                                  EBANK=   NEWJOB
000504: 43,3723           66100        LSTBNKCH           BBCON*                                         #  * CONSTANT, LAST BANK.
000505:

End of include-file AGC_BLOCK_TWO_SELF-CHECK.agc.  Parent file is MAIN.agc


