
Source Code


000002:                                                                                                  ## Copyright:   Public domain.
000003:                                                                                                  ## Filename:    ALARM_AND_ABORT.agc
000004:                                                                                                  ## Purpose:     A section of Luminary revision 97.
000005:                                                                                                  ##              It is part of the reconstructed source code for the
000006:                                                                                                  ##              second release of the flight software for the Lunar
000007:                                                                                                  ##              Module's (LM) Apollo Guidance Computer (AGC) for Apollo 11.
000008:                                                                                                  ##              It was created to fix two incorrect ephemeris constants in
000009:                                                                                                  ##              Luminary 96, as described by anomaly report LNY-59.
000010:                                                                                                  ##              The code has been recreated from a copy of Luminary 99
000011:                                                                                                  ##              revision 001, using asterisks indicating changed lines in
000012:                                                                                                  ##              the listing and Luminary Memos #83 and #85, which list
000013:                                                                                                  ##              changes between Luminary 97 and 98, and 98 and 99. The
000014:                                                                                                  ##              code has been adapted such that the resulting bugger words
000015:                                                                                                  ##              exactly match those specified for Luminary 97 in NASA drawing
000016:                                                                                                  ##              2021152D, which gives relatively high confidence that the
000017:                                                                                                  ##              reconstruction is correct.
000018:                                                                                                  ## Reference:   pp. 1381-1385
000019:                                                                                                  ## Assembler:   yaYUL
000020:                                                                                                  ## Contact:     Ron Burkey <info@sandroid.org>.
000021:                                                                                                  ## Website:     www.ibiblio.org/apollo/index.html
000022:                                                                                                  ## Mod history: 2019-07-28 MAS  Created from Luminary 99.
000023:                                                                                                  ##              2021-05-30 ABS  OCT21103 -> OCT1103
000024:


000026:                                                                                                  #  THE FOLLOWING SUBROUTINE MAY BE CALLED TO DISPLAY A NON-ABORTIVE ALARM CONDITION.  IT MAY BE CALLED
000027:                                                                                                  #  EITHER IN INTERRUPT OR UNDER EXECUTIVE CONTROL.
000028:
000029:                                                                                                  #  CALLING SEQUENCE IS AS FOLLOWS:
000030:                                                                                                  #                TC      ALARM
000031:                                                                                                  #                OCT     AAANN           ALARM NO. NN IN GENERAL AREA AAA.
000032:                                                                                                  #                                        (RETURNS HERE)
000033:
000034:    5567                                           BLOCK    02
000035:    4000                                           SETLOC   FFTAG7
000036:    4000                                           BANK
000037:
000038:    5567     0375                                  EBANK=   FAILREG
000039:
000040:    5567                                           COUNT*   $$/ALARM
000041:
000042:                                                                                                  #  ALARM TURNS ON THE PROGRAM ALARM LIGHT, BUT DOES NOT DISPLAY.
000043:
000044:    5567           00004        ALARM              INHINT
000045:
000046:    5570           30002                           CA       Q
000047:    5571           55363        ALARM2             TS       ALMCADR
000048:    5572           50002                           INDEX    Q
000049:    5573           30000                           CA       0
000050:    5574           54001        BORTENT            TS       L
000051:
000052:    5575           30006        PRIOENT            CA       BBANK
000053:    5576           00006                 +1        EXTEND
000054:    5577           04007                           ROR      SUPERBNK                              #  ADD SUPER BITS.
000055:    5600           55364                           TS       ALMCADR    +1
000056:
000057:    5601           30002        LARMENT            CA       Q                                     #  STORE RETURN FOR ALARM
000058:    5602           54061                           TS       ITEMP1
000059:
000060:    5603           10375        CHKFAIL1           CCS      FAILREG                               #  IS ANYTHING IN FAILREG
000061:    5604           15607                           TCF      CHKFAIL2                              #  YES TRY NEXT REG
000062:    5605           22375                           LXCH     FAILREG
000063:    5606           15621                           TCF      PROGLARM                              #  TURN ALARM LIGHT ON FOR FIRST ALARM
000064:
000065:    5607           10376        CHKFAIL2           CCS      FAILREG    +1
000066:    5610           15613                           TCF      FAIL3
000067:    5611           22376                           LXCH     FAILREG    +1
000068:    5612           15624                           TCF      MULTEXIT
000069:
000070:    5613           30377        FAIL3              CA       FAILREG    +2
000071:    5614           74733                           MASK     POSMAX
000072:    5615           10000                           CCS      A
000073:    5616           15630                           TCF      MULTFAIL
000074:    5617           22377                           LXCH     FAILREG    +2
000075:    5620           15624                           TCF      MULTEXIT
000076:


000078:
000079:    5621           41036        PROGLARM           CS       DSPTAB     +11D
000080:    5622           75642                           MASK     OCT40400
000081:    5623           27036                           ADS      DSPTAB     +11D
000082:
000083:
000084:    5624           56061        MULTEXIT           XCH      ITEMP1                                #  OBTAIN RETURN ADDRESS IN A
000085:    5625           00003                           RELINT
000086:    5626           50000                           INDEX    A
000087:    5627           00001                           TC       1
000088:
000089:    5630           30001        MULTFAIL           CA       L
000090:    5631           64735                           AD       BIT15
000091:    5632           54377                           TS       FAILREG    +2
000092:
000093:    5633           15624                           TCF      MULTEXIT
000094:
000095:                                                                                                  #  PRIOLARM DISPLAYS V05N09 VIA PRIODSPR WITH 3 RETURNS TO THE USER FROM THE ASTRONAUT AT CALL LOC +1,+2,+3 AND
000096:                                                                                                  #  AN IMMEDIATE RETURN TO THE USER AT CALL LOC +4.  EXAMPLE FOLLOWS,
000097:                                                                                                  #                CAF     OCTXX           ALARM CODE
000098:                                                                                                  #                TC      BANKCALL
000099:                                                                                                  #                CADR    PRIOLARM
000100:                                                                                                  #                ...     ...
000101:                                                                                                  #                ...     ...
000102:                                                                                                  #                ...     ...             ASTRONAUT RETURN
000103:                                                                                                  #                TC      PHASCHNG        IMMEDIATE RETURN TO USER.  RESTART
000104:                                                                                                  #                OCT     X.1             PHASE CHANGE FOR PRIO DISPLAY
000105:
000106: 10,3562                                           BANK     10
000107: 10,2000                                           SETLOC   DISPLAYS
000108: 10,2000                                           BANK
000109:
000110: 10,3562                                           COUNT*   $$/DSPLA
000111: 10,3562           00004        PRIOLARM           INHINT                                         #  * * * KEEP IN DISPLAY ROUTINES BANK
000112: 10,3563           54001                           TS       L                                     #  SAVE ALARM CODE
000113:
000114: 10,3564           30133                           CA       BUF2                                  #  2 CADR OF PRIOLARM USER
000115: 10,3565           55363                           TS       ALMCADR
000116: 10,3566           30134                           CA       BUF2       +1
000117: 10,3567           05576                           TC       PRIOENT    +1                         #  * LEAVE L ALONE
000118: 10,3570           77467        -2SEC              DEC      -200       B-14                       #  *** DONT MOVE
000119: 10,3571           35006                           CAF      V05N09
000120: 10,3572           12504                           TCF      PRIODSPR
000121:
000122:    5634                                           BLOCK    02
000123:    4000                                           SETLOC   FFTAG7
000124:    4000                                           BANK
000125:
000126:    5634                                           COUNT*   $$/ALARM
000127:    5634           00004        BAILOUT            INHINT
000128:    5635           30002                           CA       Q


000130:    5636           55363                           TS       ALMCADR
000131:
000132:    5637           50002                           INDEX    Q
000133:    5640           30000                           CAF      0
000134:    5641           05574                           TC       BORTENT
000135:    5642           40400        OCT40400           OCT      40400
000136:
000137:    5643           00004                           INHINT
000138:    5644           34752        WHIMPER            CA       TWO
000139:    5645           60005                           AD       Z
000140:    5646           54017                           TS       BRUPT
000141:    5647           50017                           RESUME
000142:    5650           04635                           TC       POSTJUMP                              #  RESUME SENDS CONTROL HERE
000143:    5651           12765                           CADR     ENEMA
000144:    5652           00004        POODOO             INHINT
000145:    5653           30002                           CA       Q
000146:    5654           55363        ABORT2             TS       ALMCADR
000147:    5655           50002                           INDEX    Q
000148:    5656           30000                           CAF      0
000149:    5657           05574                           TC       BORTENT
000150:    5660           77770        OCT77770           OCT      77770                                 #  DON'T MOVE
000151:
000152:    5661           34765                           CAF      OCT35                                 #  4.35SPOT FOR GOPOODOO
000153:    5662           54001                           TS       L
000154:    5663           40000                           COM
000155:    5664           52761                           DXCH     -PHASE4
000156:    5665           00004        GOPOODOO           INHINT
000157:    5666           04616                           TC       BANKCALL                              #  RESET STATEFLG, REINTFLG, AND NODOFLAG.
000158:    5667           27755                           CADR     FLAGS
000159:    5670           30103                           CA       FLAGWRD7                              #  IS SERVICER CURRENTLY IN OPERATION?
000160:    5671           74746                           MASK     V37FLBIT
000161:    5672           10000                           CCS      A
000162:    5673           15701                           TCF      STRTIDLE
000163:    5674           04616                           TC       BANKCALL                              #  TERMINATE GRPS 1, 3, 5, AND 6
000164:    5675           12652                           CADR     V37KLEAN
000165:    5676           04616                           TC       BANKCALL                              #  TERMINATE GRPS 2, 4, 1, 3, 5, AND 6
000166:    5677           12643                           CADR     MR.KLEAN                              #        (I.E., GRP 4 LAST)
000167:    5700           15644                           TCF      WHIMPER
000168:    5701           35743        STRTIDLE           CAF      BBSERVDL
000169:    5702           04727                           TC       SUPERSW
000170:    5703           04616                           TC       BANKCALL                              #  PUT SERVICER INTO ITS "GROUND" STATE
000171:    5704           57321                           CADR     SERVIDLE                              #  AND PROCEED TO GOTOPOOH.
000172:    5705           00004        CCSHOLE            INHINT
000173:    5706           30002                           CA       Q
000174:    5707           05654                           TC       ABORT2
000175:    5710           01103        OCT1103            OCT      1103
000176:    5711           00004        CURTAINS           INHINT
000177:    5712           30002                           CA       Q
000178:    5713           05571                           TC       ALARM2
000179:    5714           00217        OCT217             OCT      00217


000181:    5715           01363                           TC       ALMCADR                               #  RETURN TO USER
000182:
000183:    5716           00004        BAILOUT1           INHINT
000184:    5717           53364                           DXCH     ALMCADR
000185:    5720           35742                           CAF      ADR40400
000186:    5721           54061        BOTHABRT           TS       ITEMP1
000187:    5722           50002                           INDEX    Q
000188:    5723           30000                           CAF      0
000189:    5724           54001                           TS       L
000190:    5725           15603                           TCF      CHKFAIL1
000191:    5726           00004        POODOO1            INHINT
000192:    5727           53364                           DXCH     ALMCADR
000193:    5730           35741                           CAF      ADR77770
000194:    5731           15721                           TCF      BOTHABRT
000195:
000196:    5732           00004        ALARM1             INHINT
000197:    5733           53364                           DXCH     ALMCADR
000198:    5734           00004        ALMNCADR           INHINT
000199:    5735           50002                           INDEX    Q
000200:    5736           30000                           CA       0
000201:    5737           54001                           TS       L
000202:    5740           15601                           TCF      LARMENT
000203:
000204:    5741           15660        ADR77770           TCF      OCT77770
000205:    5742           15642        ADR40400           TCF      OCT40400
000206:    5743     5155               DOALARM            EQUALS   ENDOFJOB
000207:    5743  E7,1515                                  EBANK=   DVCNTR
000208:    5743           56067        BBSERVDL           BBCON    SERVIDLE
000209:
000210:                                                                                                  #  CALLING SEQUENCE FOR VARALARM
000211:                                                                                                  #                CAF     (ALARM)
000212:                                                                                                  #                TC      VARALARM
000213:
000214:                                                                                                  #  VARALARM TURNS ON PROGRAM ALARM LIGHT BUT DOES NOT DISPLAY
000215:
000216:    5744           00004        VARALARM           INHINT
000217:
000218:    5745           54001                           TS       L                                     #  SAVE USERS ALARM CODE
000219:
000220:    5746           30002                           CA       Q                                     #  SAVE USERS Q
000221:    5747           55363                           TS       ALMCADR
000222:
000223:    5750           05575                           TC       PRIOENT
000224:    5751           00014        OCT14              OCT      14                                    #  DONT MOVE
000225:
000226:    5752           01363                           TC       ALMCADR                               #  RETURN TO USER
000227:
000228:    5753     5644               ABORT              EQUALS   WHIMPER
000229: 13,3755                                           BANK     13
000230: 13,2000                                           SETLOC   ABTFLGS
000231: 13,2000                                           BANK


000233: 13,3755                                           COUNT*   $$/ALARM
000234:
000235: 13,3755           44747        FLAGS              CS       STATEBIT
000236: 13,3756           70077                           MASK     FLAGWRD3
000237: 13,3757           54077                           TS       FLAGWRD3
000238: 13,3760           44745                           CS       REINTBIT
000239: 13,3761           70106                           MASK     FLGWRD10
000240: 13,3762           54106                           TS       FLGWRD10
000241: 13,3763           44753                           CS       NODOBIT
000242: 13,3764           70076                           MASK     FLAGWRD2
000243: 13,3765           54076                           TS       FLAGWRD2
000244: 13,3766           00002                           TC       Q
000245:

End of include-file ALARM_AND_ABORT.agc.  Parent file is MAIN.agc


