
Source Code


000002:                                                                                                  ## Copyright:   Public domain.
000003:                                                                                                  ## Filename:    ALARM_AND_ABORT.agc
000004:                                                                                                  ## Purpose:     A section of Luminary revision 97.
000005:                                                                                                  ##              It is part of the reconstructed source code for the
000006:                                                                                                  ##              original release of the flight software for the Lunar
000007:                                                                                                  ##              Module's (LM) Apollo Guidance Computer (AGC) for Apollo 11.
000008:                                                                                                  ##              The code has been recreated from a copy of Luminary 99
000009:                                                                                                  ##              revision 001, using asterisks indicating changed lines in
000010:                                                                                                  ##              the listing and Luminary Memos #83 and #85, which list
000011:                                                                                                  ##              changes between Luminary 97 and 98, and 98 and 99. The
000012:                                                                                                  ##              code has been adapted such that the resulting bugger words
000013:                                                                                                  ##              exactly match those specified for Luminary 97 in NASA drawing
000014:                                                                                                  ##              2021152D, which gives relatively high confidence that the
000015:                                                                                                  ##              reconstruction is correct.
000016:                                                                                                  ## Reference:   pp. 1381-1385
000017:                                                                                                  ## Assembler:   yaYUL
000018:                                                                                                  ## Contact:     Ron Burkey <info@sandroid.org>.
000019:                                                                                                  ## Website:     www.ibiblio.org/apollo/index.html
000020:                                                                                                  ## Mod history: 2019-07-28 MAS  Created from Luminary 99.
000021:


000023:                                                                                                  #  THE FOLLOWING SUBROUTINE MAY BE CALLED TO DISPLAY A NON-ABORTIVE ALARM CONDITION.  IT MAY BE CALLED
000024:                                                                                                  #  EITHER IN INTERRUPT OR UNDER EXECUTIVE CONTROL.
000025:
000026:                                                                                                  #  CALLING SEQUENCE IS AS FOLLOWS:
000027:                                                                                                  #                TC      ALARM
000028:                                                                                                  #                OCT     AAANN           ALARM NO. NN IN GENERAL AREA AAA.
000029:                                                                                                  #                                        (RETURNS HERE)
000030:
000031:    5567                                           BLOCK    02
000032:    4000                                           SETLOC   FFTAG7
000033:    4000                                           BANK
000034:
000035:    5567     0375                                  EBANK=   FAILREG
000036:
000037:    5567                                           COUNT*   $$/ALARM
000038:
000039:                                                                                                  #  ALARM TURNS ON THE PROGRAM ALARM LIGHT, BUT DOES NOT DISPLAY.
000040:
000041:    5567           00004        ALARM              INHINT
000042:
000043:    5570           30002                           CA       Q
000044:    5571           55363        ALARM2             TS       ALMCADR
000045:    5572           50002                           INDEX    Q
000046:    5573           30000                           CA       0
000047:    5574           54001        BORTENT            TS       L
000048:
000049:    5575           30006        PRIOENT            CA       BBANK
000050:    5576           00006                 +1        EXTEND
000051:    5577           04007                           ROR      SUPERBNK                              #  ADD SUPER BITS.
000052:    5600           55364                           TS       ALMCADR    +1
000053:
000054:    5601           30002        LARMENT            CA       Q                                     #  STORE RETURN FOR ALARM
000055:    5602           54061                           TS       ITEMP1
000056:
000057:    5603           10375        CHKFAIL1           CCS      FAILREG                               #  IS ANYTHING IN FAILREG
000058:    5604           15607                           TCF      CHKFAIL2                              #  YES TRY NEXT REG
000059:    5605           22375                           LXCH     FAILREG
000060:    5606           15621                           TCF      PROGLARM                              #  TURN ALARM LIGHT ON FOR FIRST ALARM
000061:
000062:    5607           10376        CHKFAIL2           CCS      FAILREG    +1
000063:    5610           15613                           TCF      FAIL3
000064:    5611           22376                           LXCH     FAILREG    +1
000065:    5612           15624                           TCF      MULTEXIT
000066:
000067:    5613           30377        FAIL3              CA       FAILREG    +2
000068:    5614           74733                           MASK     POSMAX
000069:    5615           10000                           CCS      A
000070:    5616           15630                           TCF      MULTFAIL
000071:    5617           22377                           LXCH     FAILREG    +2
000072:    5620           15624                           TCF      MULTEXIT
000073:


000075:
000076:    5621           41036        PROGLARM           CS       DSPTAB     +11D
000077:    5622           75642                           MASK     OCT40400
000078:    5623           27036                           ADS      DSPTAB     +11D
000079:
000080:
000081:    5624           56061        MULTEXIT           XCH      ITEMP1                                #  OBTAIN RETURN ADDRESS IN A
000082:    5625           00003                           RELINT
000083:    5626           50000                           INDEX    A
000084:    5627           00001                           TC       1
000085:
000086:    5630           30001        MULTFAIL           CA       L
000087:    5631           64735                           AD       BIT15
000088:    5632           54377                           TS       FAILREG    +2
000089:
000090:    5633           15624                           TCF      MULTEXIT
000091:
000092:                                                                                                  #  PRIOLARM DISPLAYS V05N09 VIA PRIODSPR WITH 3 RETURNS TO THE USER FROM THE ASTRONAUT AT CALL LOC +1,+2,+3 AND
000093:                                                                                                  #  AN IMMEDIATE RETURN TO THE USER AT CALL LOC +4.  EXAMPLE FOLLOWS,
000094:                                                                                                  #                CAF     OCTXX           ALARM CODE
000095:                                                                                                  #                TC      BANKCALL
000096:                                                                                                  #                CADR    PRIOLARM
000097:                                                                                                  #                ...     ...
000098:                                                                                                  #                ...     ...
000099:                                                                                                  #                ...     ...             ASTRONAUT RETURN
000100:                                                                                                  #                TC      PHASCHNG        IMMEDIATE RETURN TO USER.  RESTART
000101:                                                                                                  #                OCT     X.1             PHASE CHANGE FOR PRIO DISPLAY
000102:
000103: 10,3562                                           BANK     10
000104: 10,2000                                           SETLOC   DISPLAYS
000105: 10,2000                                           BANK
000106:
000107: 10,3562                                           COUNT*   $$/DSPLA
000108: 10,3562           00004        PRIOLARM           INHINT                                         #  * * * KEEP IN DISPLAY ROUTINES BANK
000109: 10,3563           54001                           TS       L                                     #  SAVE ALARM CODE
000110:
000111: 10,3564           30133                           CA       BUF2                                  #  2 CADR OF PRIOLARM USER
000112: 10,3565           55363                           TS       ALMCADR
000113: 10,3566           30134                           CA       BUF2       +1
000114: 10,3567           05576                           TC       PRIOENT    +1                         #  * LEAVE L ALONE
000115: 10,3570           77467        -2SEC              DEC      -200       B-14                       #  *** DONT MOVE
000116: 10,3571           35006                           CAF      V05N09
000117: 10,3572           12504                           TCF      PRIODSPR
000118:
000119:    5634                                           BLOCK    02
000120:    4000                                           SETLOC   FFTAG7
000121:    4000                                           BANK
000122:
000123:    5634                                           COUNT*   $$/ALARM
000124:    5634           00004        BAILOUT            INHINT
000125:    5635           30002                           CA       Q


000127:    5636           55363                           TS       ALMCADR
000128:
000129:    5637           50002                           INDEX    Q
000130:    5640           30000                           CAF      0
000131:    5641           05574                           TC       BORTENT
000132:    5642           40400        OCT40400           OCT      40400
000133:
000134:    5643           00004                           INHINT
000135:    5644           34752        WHIMPER            CA       TWO
000136:    5645           60005                           AD       Z
000137:    5646           54017                           TS       BRUPT
000138:    5647           50017                           RESUME
000139:    5650           04635                           TC       POSTJUMP                              #  RESUME SENDS CONTROL HERE
000140:    5651           12765                           CADR     ENEMA
000141:    5652           00004        POODOO             INHINT
000142:    5653           30002                           CA       Q
000143:    5654           55363        ABORT2             TS       ALMCADR
000144:    5655           50002                           INDEX    Q
000145:    5656           30000                           CAF      0
000146:    5657           05574                           TC       BORTENT
000147:    5660           77770        OCT77770           OCT      77770                                 #  DON'T MOVE
000148:
000149:    5661           34765                           CAF      OCT35                                 #  4.35SPOT FOR GOPOODOO
000150:    5662           54001                           TS       L
000151:    5663           40000                           COM
000152:    5664           52761                           DXCH     -PHASE4
000153:    5665           00004        GOPOODOO           INHINT
000154:    5666           04616                           TC       BANKCALL                              #  RESET STATEFLG, REINTFLG, AND NODOFLAG.
000155:    5667           27755                           CADR     FLAGS
000156:    5670           30103                           CA       FLAGWRD7                              #  IS SERVICER CURRENTLY IN OPERATION?
000157:    5671           74746                           MASK     V37FLBIT
000158:    5672           10000                           CCS      A
000159:    5673           15701                           TCF      STRTIDLE
000160:    5674           04616                           TC       BANKCALL                              #  TERMINATE GRPS 1, 3, 5, AND 6
000161:    5675           12652                           CADR     V37KLEAN
000162:    5676           04616                           TC       BANKCALL                              #  TERMINATE GRPS 2, 4, 1, 3, 5, AND 6
000163:    5677           12643                           CADR     MR.KLEAN                              #        (I.E., GRP 4 LAST)
000164:    5700           15644                           TCF      WHIMPER
000165:    5701           35743        STRTIDLE           CAF      BBSERVDL
000166:    5702           04727                           TC       SUPERSW
000167:    5703           04616                           TC       BANKCALL                              #  PUT SERVICER INTO ITS "GROUND" STATE
000168:    5704           57321                           CADR     SERVIDLE                              #  AND PROCEED TO GOTOPOOH.
000169:    5705           00004        CCSHOLE            INHINT
000170:    5706           30002                           CA       Q
000171:    5707           05654                           TC       ABORT2
000172:    5710           01103        OCT21103           OCT      1103
000173:    5711           00004        CURTAINS           INHINT
000174:    5712           30002                           CA       Q
000175:    5713           05571                           TC       ALARM2
000176:    5714           00217        OCT217             OCT      00217


000178:    5715           01363                           TC       ALMCADR                               #  RETURN TO USER
000179:
000180:    5716           00004        BAILOUT1           INHINT
000181:    5717           53364                           DXCH     ALMCADR
000182:    5720           35742                           CAF      ADR40400
000183:    5721           54061        BOTHABRT           TS       ITEMP1
000184:    5722           50002                           INDEX    Q
000185:    5723           30000                           CAF      0
000186:    5724           54001                           TS       L
000187:    5725           15603                           TCF      CHKFAIL1
000188:    5726           00004        POODOO1            INHINT
000189:    5727           53364                           DXCH     ALMCADR
000190:    5730           35741                           CAF      ADR77770
000191:    5731           15721                           TCF      BOTHABRT
000192:
000193:    5732           00004        ALARM1             INHINT
000194:    5733           53364                           DXCH     ALMCADR
000195:    5734           00004        ALMNCADR           INHINT
000196:    5735           50002                           INDEX    Q
000197:    5736           30000                           CA       0
000198:    5737           54001                           TS       L
000199:    5740           15601                           TCF      LARMENT
000200:
000201:    5741           15660        ADR77770           TCF      OCT77770
000202:    5742           15642        ADR40400           TCF      OCT40400
000203:    5743     5155               DOALARM            EQUALS   ENDOFJOB
000204:    5743  E7,1515                                  EBANK=   DVCNTR
000205:    5743           56067        BBSERVDL           BBCON    SERVIDLE
000206:
000207:                                                                                                  #  CALLING SEQUENCE FOR VARALARM
000208:                                                                                                  #                CAF     (ALARM)
000209:                                                                                                  #                TC      VARALARM
000210:
000211:                                                                                                  #  VARALARM TURNS ON PROGRAM ALARM LIGHT BUT DOES NOT DISPLAY
000212:
000213:    5744           00004        VARALARM           INHINT
000214:
000215:    5745           54001                           TS       L                                     #  SAVE USERS ALARM CODE
000216:
000217:    5746           30002                           CA       Q                                     #  SAVE USERS Q
000218:    5747           55363                           TS       ALMCADR
000219:
000220:    5750           05575                           TC       PRIOENT
000221:    5751           00014        OCT14              OCT      14                                    #  DONT MOVE
000222:
000223:    5752           01363                           TC       ALMCADR                               #  RETURN TO USER
000224:
000225:    5753     5644               ABORT              EQUALS   WHIMPER
000226: 13,3755                                           BANK     13
000227: 13,2000                                           SETLOC   ABTFLGS
000228: 13,2000                                           BANK


000230: 13,3755                                           COUNT*   $$/ALARM
000231:
000232: 13,3755           44747        FLAGS              CS       STATEBIT
000233: 13,3756           70077                           MASK     FLAGWRD3
000234: 13,3757           54077                           TS       FLAGWRD3
000235: 13,3760           44745                           CS       REINTBIT
000236: 13,3761           70106                           MASK     FLGWRD10
000237: 13,3762           54106                           TS       FLGWRD10
000238: 13,3763           44753                           CS       NODOBIT
000239: 13,3764           70076                           MASK     FLAGWRD2
000240: 13,3765           54076                           TS       FLAGWRD2
000241: 13,3766           00002                           TC       Q
000242:

End of include-file ALARM_AND_ABORT.agc.  Parent file is MAIN.agc


