
Source Code


000002:                                                                                                  ## Copyright:   Public domain.
000003:                                                                                                  ## Filename:    ALARM_AND_ABORT.agc
000004:                                                                                                  ## Purpose:     A section of Luminary revision 97.
000005:                                                                                                  ##              It is part of the reconstructed source code for the
000006:                                                                                                  ##              original release of the flight software for the Lunar
000007:                                                                                                  ##              Module's (LM) Apollo Guidance Computer (AGC) for Apollo 11.
000008:                                                                                                  ##              The code has been recreated from a copy of Luminary 99
000009:                                                                                                  ##              revision 001, using asterisks indicating changed lines in
000010:                                                                                                  ##              the listing and Luminary Memos #83 and #85, which list
000011:                                                                                                  ##              changes between Luminary 97 and 98, and 98 and 99. The
000012:                                                                                                  ##              code has been adapted such that the resulting bugger words
000013:                                                                                                  ##              exactly match those specified for Luminary 97 in NASA drawing
000014:                                                                                                  ##              2021152D, which gives relatively high confidence that the
000015:                                                                                                  ##              reconstruction is correct.
000016:                                                                                                  ## Reference:   pp. 1381-1385
000017:                                                                                                  ## Assembler:   yaYUL
000018:                                                                                                  ## Contact:     Ron Burkey <info@sandroid.org>.
000019:                                                                                                  ## Website:     www.ibiblio.org/apollo/index.html
000020:                                                                                                  ## Mod history: 2019-07-28 MAS  Created from Luminary 99.
000021:                                                                                                  ##              2021-05-30 ABS  OCT21103 -> OCT1103
000022:


000024:                                                                                                  #  THE FOLLOWING SUBROUTINE MAY BE CALLED TO DISPLAY A NON-ABORTIVE ALARM CONDITION.  IT MAY BE CALLED
000025:                                                                                                  #  EITHER IN INTERRUPT OR UNDER EXECUTIVE CONTROL.
000026:
000027:                                                                                                  #  CALLING SEQUENCE IS AS FOLLOWS:
000028:                                                                                                  #                TC      ALARM
000029:                                                                                                  #                OCT     AAANN           ALARM NO. NN IN GENERAL AREA AAA.
000030:                                                                                                  #                                        (RETURNS HERE)
000031:
000032:    5567                                           BLOCK    02
000033:    4000                                           SETLOC   FFTAG7
000034:    4000                                           BANK
000035:
000036:    5567     0375                                  EBANK=   FAILREG
000037:
000038:    5567                                           COUNT*   $$/ALARM
000039:
000040:                                                                                                  #  ALARM TURNS ON THE PROGRAM ALARM LIGHT, BUT DOES NOT DISPLAY.
000041:
000042:    5567           00004        ALARM              INHINT
000043:
000044:    5570           30002                           CA       Q
000045:    5571           55363        ALARM2             TS       ALMCADR
000046:    5572           50002                           INDEX    Q
000047:    5573           30000                           CA       0
000048:    5574           54001        BORTENT            TS       L
000049:
000050:    5575           30006        PRIOENT            CA       BBANK
000051:    5576           00006                 +1        EXTEND
000052:    5577           04007                           ROR      SUPERBNK                              #  ADD SUPER BITS.
000053:    5600           55364                           TS       ALMCADR    +1
000054:
000055:    5601           30002        LARMENT            CA       Q                                     #  STORE RETURN FOR ALARM
000056:    5602           54061                           TS       ITEMP1
000057:
000058:    5603           10375        CHKFAIL1           CCS      FAILREG                               #  IS ANYTHING IN FAILREG
000059:    5604           15607                           TCF      CHKFAIL2                              #  YES TRY NEXT REG
000060:    5605           22375                           LXCH     FAILREG
000061:    5606           15621                           TCF      PROGLARM                              #  TURN ALARM LIGHT ON FOR FIRST ALARM
000062:
000063:    5607           10376        CHKFAIL2           CCS      FAILREG    +1
000064:    5610           15613                           TCF      FAIL3
000065:    5611           22376                           LXCH     FAILREG    +1
000066:    5612           15624                           TCF      MULTEXIT
000067:
000068:    5613           30377        FAIL3              CA       FAILREG    +2
000069:    5614           74733                           MASK     POSMAX
000070:    5615           10000                           CCS      A
000071:    5616           15630                           TCF      MULTFAIL
000072:    5617           22377                           LXCH     FAILREG    +2
000073:    5620           15624                           TCF      MULTEXIT
000074:


000076:
000077:    5621           41036        PROGLARM           CS       DSPTAB     +11D
000078:    5622           75642                           MASK     OCT40400
000079:    5623           27036                           ADS      DSPTAB     +11D
000080:
000081:
000082:    5624           56061        MULTEXIT           XCH      ITEMP1                                #  OBTAIN RETURN ADDRESS IN A
000083:    5625           00003                           RELINT
000084:    5626           50000                           INDEX    A
000085:    5627           00001                           TC       1
000086:
000087:    5630           30001        MULTFAIL           CA       L
000088:    5631           64735                           AD       BIT15
000089:    5632           54377                           TS       FAILREG    +2
000090:
000091:    5633           15624                           TCF      MULTEXIT
000092:
000093:                                                                                                  #  PRIOLARM DISPLAYS V05N09 VIA PRIODSPR WITH 3 RETURNS TO THE USER FROM THE ASTRONAUT AT CALL LOC +1,+2,+3 AND
000094:                                                                                                  #  AN IMMEDIATE RETURN TO THE USER AT CALL LOC +4.  EXAMPLE FOLLOWS,
000095:                                                                                                  #                CAF     OCTXX           ALARM CODE
000096:                                                                                                  #                TC      BANKCALL
000097:                                                                                                  #                CADR    PRIOLARM
000098:                                                                                                  #                ...     ...
000099:                                                                                                  #                ...     ...
000100:                                                                                                  #                ...     ...             ASTRONAUT RETURN
000101:                                                                                                  #                TC      PHASCHNG        IMMEDIATE RETURN TO USER.  RESTART
000102:                                                                                                  #                OCT     X.1             PHASE CHANGE FOR PRIO DISPLAY
000103:
000104: 10,3562                                           BANK     10
000105: 10,2000                                           SETLOC   DISPLAYS
000106: 10,2000                                           BANK
000107:
000108: 10,3562                                           COUNT*   $$/DSPLA
000109: 10,3562           00004        PRIOLARM           INHINT                                         #  * * * KEEP IN DISPLAY ROUTINES BANK
000110: 10,3563           54001                           TS       L                                     #  SAVE ALARM CODE
000111:
000112: 10,3564           30133                           CA       BUF2                                  #  2 CADR OF PRIOLARM USER
000113: 10,3565           55363                           TS       ALMCADR
000114: 10,3566           30134                           CA       BUF2       +1
000115: 10,3567           05576                           TC       PRIOENT    +1                         #  * LEAVE L ALONE
000116: 10,3570           77467        -2SEC              DEC      -200       B-14                       #  *** DONT MOVE
000117: 10,3571           35006                           CAF      V05N09
000118: 10,3572           12504                           TCF      PRIODSPR
000119:
000120:    5634                                           BLOCK    02
000121:    4000                                           SETLOC   FFTAG7
000122:    4000                                           BANK
000123:
000124:    5634                                           COUNT*   $$/ALARM
000125:    5634           00004        BAILOUT            INHINT
000126:    5635           30002                           CA       Q


000128:    5636           55363                           TS       ALMCADR
000129:
000130:    5637           50002                           INDEX    Q
000131:    5640           30000                           CAF      0
000132:    5641           05574                           TC       BORTENT
000133:    5642           40400        OCT40400           OCT      40400
000134:
000135:    5643           00004                           INHINT
000136:    5644           34752        WHIMPER            CA       TWO
000137:    5645           60005                           AD       Z
000138:    5646           54017                           TS       BRUPT
000139:    5647           50017                           RESUME
000140:    5650           04635                           TC       POSTJUMP                              #  RESUME SENDS CONTROL HERE
000141:    5651           12765                           CADR     ENEMA
000142:    5652           00004        POODOO             INHINT
000143:    5653           30002                           CA       Q
000144:    5654           55363        ABORT2             TS       ALMCADR
000145:    5655           50002                           INDEX    Q
000146:    5656           30000                           CAF      0
000147:    5657           05574                           TC       BORTENT
000148:    5660           77770        OCT77770           OCT      77770                                 #  DON'T MOVE
000149:
000150:    5661           34765                           CAF      OCT35                                 #  4.35SPOT FOR GOPOODOO
000151:    5662           54001                           TS       L
000152:    5663           40000                           COM
000153:    5664           52761                           DXCH     -PHASE4
000154:    5665           00004        GOPOODOO           INHINT
000155:    5666           04616                           TC       BANKCALL                              #  RESET STATEFLG, REINTFLG, AND NODOFLAG.
000156:    5667           27755                           CADR     FLAGS
000157:    5670           30103                           CA       FLAGWRD7                              #  IS SERVICER CURRENTLY IN OPERATION?
000158:    5671           74746                           MASK     V37FLBIT
000159:    5672           10000                           CCS      A
000160:    5673           15701                           TCF      STRTIDLE
000161:    5674           04616                           TC       BANKCALL                              #  TERMINATE GRPS 1, 3, 5, AND 6
000162:    5675           12652                           CADR     V37KLEAN
000163:    5676           04616                           TC       BANKCALL                              #  TERMINATE GRPS 2, 4, 1, 3, 5, AND 6
000164:    5677           12643                           CADR     MR.KLEAN                              #        (I.E., GRP 4 LAST)
000165:    5700           15644                           TCF      WHIMPER
000166:    5701           35743        STRTIDLE           CAF      BBSERVDL
000167:    5702           04727                           TC       SUPERSW
000168:    5703           04616                           TC       BANKCALL                              #  PUT SERVICER INTO ITS "GROUND" STATE
000169:    5704           57321                           CADR     SERVIDLE                              #  AND PROCEED TO GOTOPOOH.
000170:    5705           00004        CCSHOLE            INHINT
000171:    5706           30002                           CA       Q
000172:    5707           05654                           TC       ABORT2
000173:    5710           01103        OCT1103            OCT      1103
000174:    5711           00004        CURTAINS           INHINT
000175:    5712           30002                           CA       Q
000176:    5713           05571                           TC       ALARM2
000177:    5714           00217        OCT217             OCT      00217


000179:    5715           01363                           TC       ALMCADR                               #  RETURN TO USER
000180:
000181:    5716           00004        BAILOUT1           INHINT
000182:    5717           53364                           DXCH     ALMCADR
000183:    5720           35742                           CAF      ADR40400
000184:    5721           54061        BOTHABRT           TS       ITEMP1
000185:    5722           50002                           INDEX    Q
000186:    5723           30000                           CAF      0
000187:    5724           54001                           TS       L
000188:    5725           15603                           TCF      CHKFAIL1
000189:    5726           00004        POODOO1            INHINT
000190:    5727           53364                           DXCH     ALMCADR
000191:    5730           35741                           CAF      ADR77770
000192:    5731           15721                           TCF      BOTHABRT
000193:
000194:    5732           00004        ALARM1             INHINT
000195:    5733           53364                           DXCH     ALMCADR
000196:    5734           00004        ALMNCADR           INHINT
000197:    5735           50002                           INDEX    Q
000198:    5736           30000                           CA       0
000199:    5737           54001                           TS       L
000200:    5740           15601                           TCF      LARMENT
000201:
000202:    5741           15660        ADR77770           TCF      OCT77770
000203:    5742           15642        ADR40400           TCF      OCT40400
000204:    5743     5155               DOALARM            EQUALS   ENDOFJOB
000205:    5743  E7,1515                                  EBANK=   DVCNTR
000206:    5743           56067        BBSERVDL           BBCON    SERVIDLE
000207:
000208:                                                                                                  #  CALLING SEQUENCE FOR VARALARM
000209:                                                                                                  #                CAF     (ALARM)
000210:                                                                                                  #                TC      VARALARM
000211:
000212:                                                                                                  #  VARALARM TURNS ON PROGRAM ALARM LIGHT BUT DOES NOT DISPLAY
000213:
000214:    5744           00004        VARALARM           INHINT
000215:
000216:    5745           54001                           TS       L                                     #  SAVE USERS ALARM CODE
000217:
000218:    5746           30002                           CA       Q                                     #  SAVE USERS Q
000219:    5747           55363                           TS       ALMCADR
000220:
000221:    5750           05575                           TC       PRIOENT
000222:    5751           00014        OCT14              OCT      14                                    #  DONT MOVE
000223:
000224:    5752           01363                           TC       ALMCADR                               #  RETURN TO USER
000225:
000226:    5753     5644               ABORT              EQUALS   WHIMPER
000227: 13,3755                                           BANK     13
000228: 13,2000                                           SETLOC   ABTFLGS
000229: 13,2000                                           BANK


000231: 13,3755                                           COUNT*   $$/ALARM
000232:
000233: 13,3755           44747        FLAGS              CS       STATEBIT
000234: 13,3756           70077                           MASK     FLAGWRD3
000235: 13,3757           54077                           TS       FLAGWRD3
000236: 13,3760           44745                           CS       REINTBIT
000237: 13,3761           70106                           MASK     FLGWRD10
000238: 13,3762           54106                           TS       FLGWRD10
000239: 13,3763           44753                           CS       NODOBIT
000240: 13,3764           70076                           MASK     FLAGWRD2
000241: 13,3765           54076                           TS       FLAGWRD2
000242: 13,3766           00002                           TC       Q
000243:

End of include-file ALARM_AND_ABORT.agc.  Parent file is MAIN.agc


