
Source Code


000002:                                                                                                  ## Copyright:   Public domain.
000003:                                                                                                  ## Filename:    CONIC_SUBROUTINES.agc
000004:                                                                                                  ## Purpose:     A section of Luminary revision 97.
000005:                                                                                                  ##              It is part of the reconstructed source code for the
000006:                                                                                                  ##              original release of the flight software for the Lunar
000007:                                                                                                  ##              Module's (LM) Apollo Guidance Computer (AGC) for Apollo 11.
000008:                                                                                                  ##              The code has been recreated from a copy of Luminary 99
000009:                                                                                                  ##              revision 001, using asterisks indicating changed lines in
000010:                                                                                                  ##              the listing and Luminary Memos #83 and #85, which list
000011:                                                                                                  ##              changes between Luminary 97 and 98, and 98 and 99. The
000012:                                                                                                  ##              code has been adapted such that the resulting bugger words
000013:                                                                                                  ##              exactly match those specified for Luminary 97 in NASA drawing
000014:                                                                                                  ##              2021152D, which gives relatively high confidence that the
000015:                                                                                                  ##              reconstruction is correct.
000016:                                                                                                  ## Reference:   pp. 1159-1204
000017:                                                                                                  ## Assembler:   yaYUL
000018:                                                                                                  ## Contact:     Ron Burkey <info@sandroid.org>.
000019:                                                                                                  ## Website:     www.ibiblio.org/apollo/index.html
000020:                                                                                                  ## Mod history: 2019-07-28 MAS  Created from Luminary 99.
000021:


000023:                                                                                                  #  PROGRAM DESCRIPTION - ENTIRE CONIC SUBROUTINE LOG SECTION     DATE - 1 SEPTEMBER 1967
000024:                                                                                                  #  MOD NO. - 0                                                   LOG SECTION - CONIC SUBROUTINES
000025:                                                                                                  #  MOD BY KRAUSE                                                 ASSEMBLY - COLOSSUS REVISION 88
000026:
000027:                                                                                                  #  FUNCTIONAL DESCRIPTION -
000028:                                                                                                  #        THE FOLLOWING SET OF SUBROUTINES SOLVE VARIOUS PROBLEMS INVOLVING THE TRAJECTORY PRODUCED BY A CENTRAL
000029:                                                                                                  #  INVERSE-SQUARE FORCE ACTING ON A POINT MASS, AS OUTLINED IN THE CMC AND LGC LUNAR LANDING MISSION GSOP, SECTION
000030:                                                                                                  #  5.5.1.2.  A GENERAL USAGE POINT-OF-VIEW WAS TAKEN IN FORMULATING, MECHANIZING, AND SCALING THE SUBROUTINES,
000031:                                                                                                  #  RATHER THAN OPTIMIZING EACH FOR A PARTICULAR USE.  THEREFORE, MULTIPLE USAGE CAN BE MADE OF THE SUBROUTINES
000032:                                                                                                  #  INVOLVING ANY REALISTIC SET OF CONSTRAINTS.  IT SHOULD BE NOTED THAT ONLY ONE SET OF CODING IS USED, WHETHER THE
000033:                                                                                                  #  EARTH, MOON, OR ANY OTHER CELESTIAL BODY IS SPECIFIED AS THE CENTRAL BODY OF THE PROBLEM, PROVIDED ONE OBSERVES
000034:                                                                                                  #  THE INHERENT SCALE CHANGE REQUIRED IN POSITION, VELOCITY, MU, AND TIME, AS OUTLINED IN MISSION PROGRAMMING
000035:                                                                                                  #  DEFINITION MEMO NO. 10.  THIS CAN BE ACCOMPLISHED BY SIMPLY ADDING TO THE MUTABLE AND INITIALIZING THE SUBROU-
000036:                                                                                                  #  TINES APPROPRIATELY.
000037:
000038:                                                                                                  #        DUE TO THE UNIFORMITY OF THE EQUATIONS INVOLVED, CODING WAS MINIMIZED BY TREATING INDIVIDUAL EQUATIONS AND
000039:                                                                                                  #  BLOCKS OF EQUATIONS AS SUBROUTINES OF LOWER RANK WHENEVER POSSIBLE.  AS A RESULT, THREE BY-PRODUCTS SUBROUTINES,
000040:                                                                                                  #  DIRECTLY USABLE AS INDEPENDENT SUBROUTINES, WERE GENERATED.
000041:
000042:                                                                                                  #  RESTRICTIONS -
000043:                                                                                                  #        THE ONLY LIMITATION IN THE SCOPE OF PROBLEM WHICH CAN BE SOLVED BY A PARTICULAR SUBROUTINE IS THE SCALING
000044:                                                                                                  #  LIMIT OF EACH PARAMETER AS SPECIFIED IN THE GSOP.  THESE SCALING LIMITS WERE CHOSEN SO THAT ALL FEASIBLE TRAJEC-
000045:                                                                                                  #  TORIES COULD BE HANDLED.
000046:
000047:                                                                                                  #        SINCE THE SUBROUTINES (EXCEPT KEPLER) USE COMMON SUBROUTINES OF LOWER RANK WHICH USE ERASABLE OTHER THAN
000048:                                                                                                  #  THE PUSHLIST (DUE TO ITS LIMITED SIZE) AND COMMON INTERPRETIVE SWITCHES, THE CONIC SUBROUTINES CANNOT BE ALLOWED
000049:                                                                                                  #  TO INTERRUPT EACH OTHER.  IT IS UP TO THE USER TO GUARANTEE THIS CONDITION.
000050:


000052:                                                                                                  #  PROGRAM DESCRIPTION - KEPLER SUBROUTINE                       DATE - 11 OCTOBER 1967
000053:                                                                                                  #  MOD NO. -1                                                    LOG SECTION - CONIC SUBROUTINES
000054:                                                                                                  #  MOD BY KRAUSE                                                 ASSEMBLY - COLOSSUS 103 AND SUNDANCE 222
000055:                                                                                                  #  MOD NO. - 2 (AUGUST 1968) BY ROBERTSON: TO PERMIT BACKDATING BY MORE THAN ONE ORBITAL PERIOD.
000056:                                                                                                  #  MOD NO. - 3 (DEC 1968) BY ROBERTSON:  SUPPRESSION OF X-MODULO-ING
000057:                                                                                                  #  MOD. NO. - 4 (JAN 1969) BY ROBERTSON:  CLEAR OVFIND AT KEPLER ENTRY
000058:
000059:                                                                                                  #  FUNCTIONAL DESCRIPTION -
000060:                                                                                                  #        THIS SUBROUTINE, GIVEN AN INITIAL STATE VECTOR AND THE DESIRED TRANSFER TIME THROUGH WHICH THE STATE IS TO
000061:                                                                                                  #  BE UPDATED ALONG A CONIC TRAJECTORY, COMPUTES THE NEW, UPDATED STATE VECTOR.  THE TRAJECTORY MAY BE ANY CONIC
000062:                                                                                                  #  SECTION - CIRCULAR, ELLIPTIC, PARABOLIC, HYPERBOLIC, OR RECTILINEAR WITH RESPECT TO THE EARTH OR THE MOON.  THE
000063:                                                                                                  #  USE OF THE SUBROUTINE CAN BE EXTENDED USING OTHER PRIMARY BODIES BY SIMPLE ADDITIONS TO THE MUTABLE WITHOUT
000064:                                                                                                  #  INTRODUCING ANY CODING CHANGES, ACCEPTING THE INHERENT SCALE FACTOR CHANGES IN POSITION AND VELOCITY.  AN ITERA-
000065:                                                                                                  #  TION TECHNIQUE IS UTILIZED IN THE COMPUTATION.
000066:
000067:                                                                                                  #        IF A NEGATIVE TIME-OF-FLIGHT IS INPUT, THE PROGRAM WILL SOLVE FOR THE STATE WHICH WOULD BE PRODUCED BY
000068:                                                                                                  #  EXTRAPOLATING THE POSITION BACKWARD IN TIME.
000069:
000070:                                                                                                  #        IF THE ABSOLUTE VALUE OF THE DESIRED TRANSFER TIME EXCEEDS THE ORBITAL PERIOD, THE SUBROUTINE, THROUGH A
000071:                                                                                                  #   MODULAR TECHNIQUE, WILL COMPUTE THE STATE CORRESPONDING TO THE DESIRED TIME (WHETHER POSITIVE OR NEGATIVE).
000072:
000073:                                                                                                  #  THE RESTRICTIONS ARE -
000074:                                                                                                  #        1. (PREVIOUS RESTRICTION ON THE NEGATIVE DESIRED TRANSFER TIME IS NOW DELETED.)
000075:                                                                                                  #        2. THE PARAMETERS IN THE PROBLEM CANNOT EXCEED THEIR SCALING LIMITS AS SPECIFIED IN THE GSOP.  IF
000076:                                                                                                  #           ANY OF THESE LIMITS ARE EXCEEDED, THE RESULTING SOLUTION WILL BE MEANINGLESS.
000077:
000078:                                                                                                  #        THE NUMBER OF ITERATIONS AND, THEREFORE, THE COMPUTATION SPEED IS DEPENDENT ON THE ACCURACY OF THE
000079:                                                                                                  #  GUESS, XKFPNEW.  THE AGC COMPUTATION TIME IS APPROXIMATELY .061 SECONDS FOR INITIALIZATION, .065 SECONDS FOR THE
000080:                                                                                                  #  FINAL COMPUTATIONS, PLUS .083 SECONDS FOR EACH ITERATION.
000081:
000082:                                                                                                  #  REFERENCES -
000083:                                                                                                  #        R-479, MISSION PROGRAMMING DEFINITION MEMO NO. 10, LUNAR LANDING MISSION GSOP, SECTION 5.5, SGA
000084:                                                                                                  #        MEMO 67-4.
000085:
000086:                                                                                                  #  INPUT - ERASABLE INITIALIZATION REQUIRED
000087:                                                                                                  #                        * SCALE FACTOR  *
000088:                                                                                                  #        VARIABLE        *IN POWERS OF 2 *               DESCRIPTION AND REMARKS
000089:                                                                                                  #        --------        *-------------- *               -----------------------
000090:                                                                                                  #        RRECT           * +29 FOR EARTH *       DP INITIAL POSITION VECTOR IN METERS
000091:                                                                                                  #                        * +27 FOR MOON  *


000093:                                                                                                  #        VRECT           * +7 FOR EARTH  *       DP INITIAL VELOCITY VECTOR IN METERS/CENTISECOND
000094:                                                                                                  #                        * +5 FOR MOON   *
000095:                                                                                                  #        X1 (38D)        * NONE          *       INDEX REGISTER SET TO -2D OR -10D ACCORDING TO WHETHER THE EARTH OR MOON,
000096:                                                                                                  #                        *               *               RESPECTIVELY, IS THE CENTRAL BODY
000097:                                                                                                  #        TAU.            * +28           *       DESIRED TRANSFER TIME IN CENTISECONDS (DP)
000098:                                                                                                  #                        *               *               MAY BE POS OR NEG AND ABSOLUTE VALUE MAY BE GREATER OR LESS THAN ONE ORBITAL PERIOD.
000099:                                                                                                  #        XKEPNEW         * +17 FOR EARTH *       DP GUESS OF ROOT X OF KEPLERS EQN IN SQRT(METERS). SIGN SHOULD AGREE WITH THAT OF TAU.
000100:                                                                                                  #                        * +16 FOR MOON  *               AND ABS VALUE SHOULD BE LESS THAN THAT CORRESPONDING TO A PERIOD, VIZ, 2PI SQRT(SEMI-
000101:                                                                                                  #                        *               *               MAJOR AXIS), FOR SPEED OF CONVERGENCE, BUT IF EITHER CONDITION FAILS, XKEPNEW IS RESET
000102:                                                                                                  #                        *               *               BY KEPLER TO A POOR BUT VALID GUESS.
000103:                                                                                                  #        TC              * +28           *       DP PREV. VALUE OF TIME IN CENTISECS.  MUST BE LESS THAN ONE ORBITAL PERIOD.
000104:                                                                                                  #        XPREV           * +17 FOR EARTH *       DP PREV. VALUE OF X IN SQRT(METERS).  MUST BE LESS THAN AN X CORRESPONDING TO ONE
000105:                                                                                                  #                        * +16 FOR MOON  *               ORBITAL PERIOD, VIZ, 2PI SQRT(SEMI-MAJOR AXIS)
000106:
000107:                                                                                                  #  SUBROUTINES CALLED -
000108:                                                                                                  #        DELTIME
000109:
000110:                                                                                                  #  CALLING SEQUENCE AND NORMAL EXIT MODES -
000111:                                                                                                  #        KEPRTN-2        GOTO                    MUST BE IN INTERPRETIVE MODE BUT OVFIND ARBITRARY.
000112:                                                                                                  #        KEPRTN-1                KEPLER          RETURNS WITH XPREV IN MPAC. PL IS AT 0.
000113:                                                                                                  #        KEPRTN          ...                     CONTINUE
000114:
000115:                                                                                                  #  KEPLER MUST NOT BE CALLED DIRECTLY SINCE AN INTERRUPTION OF IT WOULD DESTROY THE ERASABLES IT NEEDS TO COMPLETE
000116:                                                                                                  #  THE INTERRUPTED JOB.  THEREFORE THE USER MUST CALL CSMCONIC OR LEMCONIC WHICH GUARANTEES NO INTERRUPTS AND WHICH
000117:                                                                                                  #  ALSO CALLS KEPPREP TO COMPUTE A GUESS OF XKEPNEW.
000118:
000119:                                                                                                  #  ABORT EXIT MODES -
000120:                                                                                                  #        NONE
000121:
000122:                                                                                                  #  OUTPUT -
000123:                                                                                                  #                        * SCALE FACTOR  *
000124:                                                                                                  #        VARIABLE        *IN POWERS OF 2 *       DESCRIPTION AND REMARKS
000125:                                                                                                  #        --------        *-------------- *       -----------------------
000126:                                                                                                  #        RCV             * +29 FOR EARTH *       DP TERMINAL POSITION VECTOR IN METERS
000127:                                                                                                  #                        * +27 FOR MOON  *
000128:                                                                                                  #        VCV             * +7 FOR EARTH  *       DP TERMINAL VELOCITY VECTOR IN METERS/CENTISEC
000129:                                                                                                  #                        * +5 FOR MOON   *
000130:                                                                                                  #        TC              * +28           *       DP TRANSFER TIME IN CENTISECS TO WHICH KEPLER CONVERGED. ALWAYS LESS THAN ONE PERIOD.
000131:                                                                                                  #        XPREV           * +17 FOR EARTH *       DP VALUE OF X IN SQRT(METERS) TO WHCIH KEPLER CONVERGED. ALWAYS LESS THAN THE X
000132:                                                                                                  #                        * +16 FOR MOON  *               CORRESPONDING TO ONE PERIOD.


000134:                                                                                                  #  FOR OTHER OUTPUT WHICH MAY BE OF USE, SEE DEBRIS.
000135:
000136:                                                                                                  #  DEBRIS -
000137:                                                                                                  #        PARAMETERS WHICH MAY BE OF USE -
000138:                                                                                                  #                        * SCALE FACTOR  *
000139:                                                                                                  #        VARIABLE        *IN POWERS OF 2 *       DESCRIPTION AND REMARKS
000140:                                                                                                  #        --------        *-------------- *       -----------------------
000141:                                                                                                  #        URRECT          * +1            *       DP UNIT VECTOR OF INITIAL POSITION
000142:                                                                                                  #        R1              * +29 FOR EARTH *       DP MAGNITUDE OF INITIAL POSITION IN METERS
000143:                                                                                                  #                        * +27 FOR MOON  *
000144:                                                                                                  #        ALPHA           * -22 FOR EARTH *       DP INVERSE OF SEMIMAJOR AXIS IN 1/METERS
000145:                                                                                                  #                        * -20 FOR MOON  *
000146:                                                                                                  #        TMODULO         * +28           *       DP INTEGRAL NUMBER OF PERIODS IN CENTISECS. WHICH WAS SUBTRACTED FROM TAU. TO PRODUCE A
000147:                                                                                                  #                        *               *       TAU. OF LESS THAN ONE PERIOD.
000148:
000149:                                                                                                  #  PARAMETERS OF NO USE -
000150:                                                                                                  #        DP PARAMETERS - EPSILONT, DELX, DELT, RCNORM, XMODULO, PLUS PUSHLIST REGISTERS 0 THROUGH 39D.
000151:


000153:
000154:                                                                                                  #  PROGRAM DESCRIPTION - LAMBERT SUBROUTINE                      DATE - 1 SEPTEMBER 1967
000155:                                                                                                  #  MOD NO. - 0                                                   LOG SECTION - CONIC SUBROUTINES
000156:                                                                                                  #  MOD BY KRAUSE                                                 ASSEMBLY - COLOSSUS REVISION 88
000157:
000158:                                                                                                  #  FUNCTIONAL DESCRIPTION -
000159:                                                                                                  #        THIS SUBROUTINE CALCULATES THE INITIAL VELOCITY REQUIRED TO TRANSFER A POINT-MASS ALONG A CONIC TRAJECTORY
000160:                                                                                                  #  FROM AN INITIAL POSITION TO A TERMINAL POSITION IN A PRESCRIBED TIME INTERVAL.  THE RESULTING TRAJECTORY MAY BE
000161:                                                                                                  #  A SECTION OF A CIRCLE, ELLIPSE, PARABOLA, OR HYPERBOLA WITH RESPECT TO THE EARTH OR THE MOON.  THE USE OF THE
000162:                                                                                                  #  SUBROUTINE CAN BE EXTENDED USING OTHER PRIMARY BODIES BY SIMPLE ADDITIONS TO THE MUTABLE WITHOUT INTRODUCING ANY
000163:                                                                                                  #  CODING CHANGES, ACCEPTING THE INHERENT SCALE FACTOR CHANGES IN POSITION AND VELOCITY.  AN ITERATION TECHNIQUE IS
000164:                                                                                                  #  UTILIZED IN THE COMPUTATION.
000165:
000166:                                                                                                  #  THE RESTRICTIONS ARE -
000167:                                                                                                  #        1. RECTILINEAR TRAJECTORIES CANNOT BE COMPUTED.
000168:                                                                                                  #        2. AN ACCURACY DEGRADATION OCCURS AS THE COSINE OF THE TRUE ANOMALY DIFFERENCE APPROACHES +1.0.
000169:                                                                                                  #        3. THE ANGLE BETWEEN ANY POSITION VECTOR AND ITS VELOCITY VECTOR MUST BE GREATER THAN 1 DEGREE 47.5 MINUTES
000170:                                                                                                  #           AND LESS THAN 178 DEGREES 12.5 MINUTES.
000171:                                                                                                  #        4. NEGATIVE TRANSFER TIME IS AMBIGUOUS AND WILL RESULT IN NO SOLUTION.
000172:                                                                                                  #        5. THE PARAMETERS IN THE PROBLEM MUST NOT EXCEED THEIR SCALING LIMITS SPECIFIED IN THE GSOP.  IF THE
000173:                                                                                                  #           LIMITS ARE EXCEEDED, THE RESULTING SOLUTION WILL BE MEANINGLESS.
000174:
000175:                                                                                                  #        THE NUMBER OF ITERATIONS AND, THEREFORE, THE COMPUTATIONS SPEED IS DEPENDENT ON THE ACCURACY OF THE FIRST
000176:                                                                                                  #  GUESS OF THE INDEPENDENT VARIABLE, COGA.                                 THE AGC COMPUTATION TIME IS APPROXIMATE-
000177:                                                                                                  #  LY .105 SECONDS FOR INITIALIZATION, .069 SECONDS FOR FINAL COMPUTATIONS, PLUS .205 SECONDS FOR EACH ITERATION.
000178:
000179:                                                                                                  #  REFERENCES -
000180:                                                                                                  #        R-479, MISSION PROGRAMMING DEFINITION MEMO NO. 10, LUNAR LANDING MISSION GSOP - SECTION 5.5, SGA MEMO 67-8,
000181:                                                                                                  #        SGA MEMO 67-4.
000182:
000183:                                                                                                  #  INPUT - ERASABLE INITIALIZATION REQUIRED
000184:                                                                                                  #
000185:                                                                                                  #                        * SCALE FACTOR  *
000186:                                                                                                  #        VARIABLE        *IN POWERS OF 2 *       DESCRIPTION AND REMARKS
000187:                                                                                                  #        --------        *-------------- *       -----------------------
000188:                                                                                                  #        R1VEC           * +29 FOR EARTH *       DP INITIAL POSITION VECTOR IN METERS
000189:                                                                                                  #                        * +27 FOR MOON  *
000190:                                                                                                  #        R2VEC           * +29 FOR EARTH *       DP TARGET OR TERMINAL POSITION VECTOR IN METERS
000191:                                                                                                  #                        * +27 FOR MOON  *
000192:                                                                                                  #        TDESIRED        * +28           *       DP DESIRED TRANSFER TIME IN CENTISECONDS
000193:                                                                                                  #        X1 (38D)        * NONE          *       INDEX REGISTER SET TO -2D OR -10D ACCORDING TO WHETHER THE EARTH OR MOON,
000194:                                                                                                  #                        *               *               RESPECTIVELY, IS THE CENTRAL BODY
000195:                                                                                                  #        GEOMSGN         * NONE          *       SP +.5 IF DESIRED TRANSFER ANGLE IS LESS THAN 180 DEGREES, -.5 IF GREATER THAN 180 DEG.
000196:                                                                                                  #        GUESSW          * NONE          *       AN INTERPRETER SWITCH TO BE SET IF NO GUESS OF COGA IS AVAILABLE, CLEAR IF A GUESS OF


000198:                                                                                                  #                        *               *               COGA IS TO BE USED BY LAMBERT
000199:                                                                                                  #        COGA            * +5            *       DP GUESS OF COTANGNT OF FLIGHT PATH ANGLE (MEASURED FROM VERTICAL).  THIS WILL BE
000200:                                                                                                  #                                        *       IGNORED IF GUESSW IS SET.
000201:                                                                                                  #        NORMSW          * NONE          *       AN INTERPRETER SWITCH TO BE SET IF UN IS TO BE AN INPUT TO THE SUBROUTINE, CLEAR IF
000202:                                                                                                  #                        *               *               LAMBERT IS TO COMPUTE ITS OWN NORMAL (UN).
000203:                                                                                                  #        UN              * +1            *       DP UNIT NORMAL TO THE DESIRED ORBIT PLANE IN THE DIRECTION OF THE RESULTING ANGULAR
000204:                                                                                                  #                        *               *               MOMENTUM VECTOR.  THIS WILL BE IGNORED IF NORMSW IS CLEAR.
000205:                                                                                                  #        VTARGTAG        * NONE          *       A S.P. TAG TO BE SET TO ZERO IF LAMBERT IS TO COMPUTE THE VELOCITY AT R2VEC AS WELL AS
000206:                                                                                                  #                        *               *               AT R1VEC.
000207:                                                                                                  #        ITERCTR         * NONE          *       A S.P. COUNTER WHICH SPECIFIES THE MAXIMUM NUMBER OF ITERATIONS ALLOWABLE.
000208:                                                                                                  #                        *               *               (AN ITERATION MEANS A PASS THRU KEPLER EQN (DELTIME). AT LEAST ONE OF THESE MUST
000209:                                                                                                  #                        *               *               ALWAYS OCCUR, EVEN IF COGA CORRESPONDING TO SOLUTION WERE INPUT AS A GUESS.)
000210:                                                                                                  #                        *               *               TWENTY ITERATIONS ARE SUFFICIENT TO SOLVE ALL PROBLEMS INCLUDING THOSE WITHOUT GUESS.
000211:
000212:                                                                                                  #  SUBROUTINES CALLED -
000213:                                                                                                  #        GEOM, GETX, DELTIME, ITERATOR, LAMENTER (PART OF NEWSTATE)
000214:
000215:                                                                                                  #  CALLING SEQUENCE AND NORMAL EXIT MODES -
000216:                                                                                                  #        L       CALL                    MUST BE IN INTERPRETIVE MODE BUT OVFIND ARBITRARY.
000217:                                                                                                  #        L+1             LAMBERT         RETURNS WITH PL AT 0 AND WITH VVEC IN MPAC IF VTARGTAG WAS NON-ZERO OR VTARGET
000218:                                                                                                  #                                        IN MPAC IF VTARGTAG WAS ZERO
000219:                                                                                                  #        L+2     BON                     CONTINUE IF SOLNSW CLEAR SINCE SOLUTION IS ACCEPTABLE
000220:                                                                                                  #        L+3             SOLNSW
000221:                                                                                                  #        L+4             LAMABORT
000222:
000223:                                                                                                  #        IF A LAMBERT RESULT IS TO BE A FIRST GUESS FOR THE NEXT LAMBERT CALCULATION, COGA MUST BE PRESERVED AND
000224:                                                                                                  #  GUESSW MUST BE CLEAR FOR EACH SUCCEEDING LAMBERT CALL.
000225:
000226:                                                                                                  #  ABORT EXIT MODES -
000227:                                                                                                  #        IF SOLNSW WAS SET UPON EXITING, EITHER LAMBERT WAS ASKED TO COMPUTE A TRANSFER TOO NEAR 0 OR 360 DEG, OR T
000228:                                                                                                  #  WAS TOO SMALL TO PRODUCE A REALISTIC TRANSFER BETWEEN R1VEC AND R2VEC.  IN EITHER CASE THE FIX MUST BE MADE
000229:                                                                                                  #  ACCORDING TO THE NEEDS OF THE PARTICULAR USER.  THE ABORT EXIT MODE MAY BE CODED AS ...
000230:                                                                                                  #  LAMABORT      DLOAD   ABS             A MEASURE OF PROXIMITY TO 0 OR
000231:                                                                                                  #                        1-CSTH          360 DEGREES.
000232:                                                                                                  #                DSU     BMN
000233:                                                                                                  #                        ONEBIT
000234:                                                                                                  #                        CHANGER2        CHANGE R2VEC DIRECTION SLIGHTLY.
000235:                                                                                                  #                DLOAD   DAD
000236:                                                                                                  #                        TDESIRED
000237:                                                                                                  #                        SOMETIME
000238:                                                                                                  #                STCALL  TDESIRED        INCREASE TDESIRED
000239:                                                                                                  #                        LAMBERT
000240:


000242:                                                                                                  #  OUTPUT -
000243:                                                                                                  #                        * SCALE FACTOR  *
000244:                                                                                                  #        VARIABLE        *IN POWERS OF 2 *       DESCRIPTION AND REMARKS
000245:                                                                                                  #        --------        *-------------- *       -----------------------
000246:                                                                                                  #        VVEC            * +7 FOR EARTH  *       DP INITIAL VELOCITY VECTOR IN METERS/CENTISECOND REQUIRED TO SATISFY THE BOUNDARY VALUE
000247:                                                                                                  #                        * +5 FOR MOON   *               PROBLEM.
000248:                                                                                                  #        VTARGET         * +7 FOR EARTH  *       DP RESULTANT VELOCITY VECTOR AT R2VEC IN METERS/CENTISECOND.
000249:                                                                                                  #                        * +5 FOR MOON   *
000250:                                                                                                  #        SOLNSW          * NONE          *       INTERPRETER SWITCH WHICH IS SET IF THE SUBROUTINE CANNOT SOLVE THE PROBLEM, CLEAR IF THE
000251:                                                                                                  #                        *               *               SOLUTION EXISTS.
000252:
000253:                                                                                                  #        FOR OTHER OUTPUT WHICH MAY BE OF USE, SEE DEBRIS.
000254:
000255:                                                                                                  #  DEBRIS -
000256:                                                                                                  #        PARAMETERS WHICH MAY BE OF USE -
000257:
000258:                                                                                                  #                        * SCALE FACTOR  *
000259:                                                                                                  #        VARIABLE        *IN POWERS OF 2 *       DESCRIPTION AND REMARKS
000260:                                                                                                  #        --------        *-------------- *       -----------------------
000261:                                                                                                  #        SNTH            * +1            *       DP SIN OF ANGLE BETWEEN R1VEC AND R2VEC
000262:                                                                                                  #        CSTH            * +1            *       DP COSINE OF ANGLE
000263:                                                                                                  #        1-CSTH          * +2            *       DP 1-CSTH
000264:                                                                                                  #        COGA            * +5            *       DP COTAN OF INITIAL REQUIRED FLIGHT PATH ANGLE MEASURED FROM VERTICAL
000265:                                                                                                  #        P               * +4            *       DP RATIO OF SEMILATUS RECTUM TO INITIAL RADIUS
000266:                                                                                                  #        R1A             * +6            *       DP RATIO OF INITIAL RADIUS TO SEMIMAJOR AXIS
000267:                                                                                                  #        R1 (32D)        * +29 FOR EARTH *       DP INITIAL RADIUS IN METERS
000268:                                                                                                  #                        * +27 FOR MOON  *
000269:                                                                                                  #        UR1             * +1            *       DP UNIT VECTOR OF R1VEC
000270:                                                                                                  #        U2              * +1            *       DP UNIT VECTOR OF R2VEC
000271:
000272:                                                                                                  #        PARAMETERS OF NO USE
000273:                                                                                                  #                DP PARAMETERS - EPSILONL, CSTH-RHO, TPREV, TERRLAMB, R2, RTNLAMB (SP), PLUS PUSHLIST REGISTER 0 THROUGH 41D
000274:                                                                                                  #                ADDITIONAL INTERPRETIVE SWITCHES USED - INFINFLG, 360SW, SLOPESW, ORDERSW
000275:


000277:                                                                                                  #  PROGRAM DESCRIPTION - TIME-THETA SUBROUTINE                   DATE - 1 SEPTEMBER 1967
000278:                                                                                                  #  MOD NO. - 0                                                   LOG SECTION - CONIC SUBROUTINES
000279:                                                                                                  #  MOD BY KRAUSE                                                 ASSEMBLY - COLOSSUS REVISION 88
000280:
000281:                                                                                                  #  FUNCTIONAL DESCRIPTION -
000282:                                                                                                  #        THIS SUBROUTINE, GIVEN AN INITIAL STATE VECTOR AND A DESIRED TRUE-ANOMALY-DIFFERENCE THROUGH WHICH THE
000283:                                                                                                  #  STATE IS TO BE UPDATED ALONG A CONIC TRAJECTORY, CALCULATES THE CORRESPONDING TIME-OF-FLIGHT AND, IN ADDITION,
000284:                                                                                                  #  PROVIDES THE OPTION OF COMPUTING THE NEW UPDATED STATE VECTOR.  THE RESULTING TRAJECTORY MAY BE A SECTION OF A
000285:                                                                                                  #  CIRCLE, ELLIPSE, PARABOLA, OR HYPERBOLA WITH RESPECT TO THE EARTH OR THE MOON.  THE USE OF THE SUBROUTINE CAN BE
000286:                                                                                                  #  EXTENDED USING OTHER PRIMARY BODIES BY SIMPLE ADDITIONS TO THE MUTABLE WITHOUT INTRODUCING ANY CODING CHANGES,
000287:                                                                                                  #  ACCEPTING THE INHERENT SCALE FACTOR CHANGES IN POSITION AND VELOCITY.
000288:
000289:                                                                                                  #  THE RESTRICTIONS ARE -
000290:                                                                                                  #        1. THE ANGLE BETWEEN ANY POSITION VECTOR AND ITS VELOCITY VECTOR MUST BE GREATER THAN 1 DEGREE 47.5 MINUTES
000291:                                                                                                  #           AND LESS THAN 178 DEGREES 12.5 MINUTES.
000292:                                                                                                  #        2. THE PARAMETERS IN THE PROBLEM MUST NOT EXCEED THEIR SCALING LIMITS SPECIFIED IN THE GSOP.  IF THE LIMITS
000293:                                                                                                  #           ARE EXCEEDED, THE RESULTING SOLUTION WILL BE MEANINGLESS.
000294:
000295:                                                                                                  #        THE AGC COMPUTATION TIME IS APPROXIMATELY .292 SECONDS.
000296:
000297:                                                                                                  #  REFERENCES -
000298:                                                                                                  #        R-479, MISSION PROGRAMMING DEFINITION MEMO NO. 10, LUNAR LANDING MISSION GSOP-SECTION 5.5, SGA MEMO 67-8.
000299:
000300:                                                                                                  #  INPUT - ERASABLE INITIALIZATION REQUIRED
000301:                                                                                                  #                        * SCALE FACTOR  *
000302:                                                                                                  #        VARIABLE        *IN POWERS OF 2 *       DESCRIPTION AND REMARKS
000303:                                                                                                  #        --------        *-------------- *       -----------------------
000304:                                                                                                  #        RVEC            * +29 FOR EARTH *       DP INITIAL POSITION VECTOR IN METERS
000305:                                                                                                  #                        * +27 FOR MOON  *
000306:                                                                                                  #        VVEC            * +7 FOR EARTH  *       DP INITIAL VELOCITY VECTOR IN METERS/CENTISECOND
000307:                                                                                                  #                        * +5 FOR MOON   *
000308:                                                                                                  #        SNTH            * +1            *       DP SINE OF TRUE-ANOMALY-DIFFERENCE THROUGH WHICH THE STATE IS TO BE UPDATED
000309:                                                                                                  #        CSTH            * +1            *       DP COSINE OF THE ANGLE
000310:                                                                                                  #        RVSW            * NONE          *       AN INTERPRETIVE SWITCH TO BE SET IF ONLY TIME IS TO BE AN OUTPUT, CLEAR IF THE NEW STATE
000311:                                                                                                  #                        *               *               IS TO BE COMPUTED ALSO.
000312:                                                                                                  #        X1 (38D)        * NONE          *       INDEX REGISTER TO BE SET TO -2D OR -10D ACCORDING TO WHETHER THE EARTH OR MOON,
000313:                                                                                                  #                        *               *               RESPECTIVELY, IS THE CENTRAL BODY.
000314:
000315:                                                                                                  #  SUBROUTINES CALLED -


000317:                                                                                                  #        PARAM, GEOM, GETX, DELTIME, NEWSTATE
000318:
000319:                                                                                                  #  CALLING SEQUENCE AND NORMAL EXIT MODES -
000320:                                                                                                  #        IF ONLY TIME IS DESIRED AS OUTPUT -
000321:                                                                                                  #        L       SET     CALL            MUST BE IN INTERPRETIVE MODE BUT OVFIND ARBITRARY.
000322:                                                                                                  #        L+1             RVSW
000323:                                                                                                  #        L+2             TIMETHET        RETURN WITH PL AT 0 AND T IN MPAC
000324:                                                                                                  #        L+3     ...                     CONTINUE
000325:
000326:                                                                                                  #        IF THE UPDATE STATE VECTOR IS DESIRED AS WELL -
000327:                                                                                                  #        L       CLEAR   CALL            MUST BE IN INTERPRETIVE MODE BUT OVFIND ARBITRARY.
000328:                                                                                                  #        L+1             RVSW
000329:                                                                                                  #        L+2             TIMETHET        RETURNS WITH PL AT 6.  THE INITIAL POSITION VECTOR IS IN 0D OF THE PUSHLIST AND
000330:                                                                                                  #                                        THE INITIAL VELOCITY VECTOR IN MPAC.
000331:                                                                                                  #        L+3     STOVL   NEWVVEC
000332:                                                                                                  #        L+4     STADR
000333:                                                                                                  #        L+5     STORE   NEWRVEC         NEWVVEC AND NEWRVEC ARE SYMBOLIC REPRESENTATIONS OF THE USERS LOCATIONS.
000334:                                                                                                  #        L+6     ...                     CONTINUE
000335:
000336:                                                                                                  #  ABORT EXIT MODES -
000337:                                                                                                  #        IF COGAFLAG AND/OR INFINFLG IS SET AT THE EXIT TO TIME-THETA, TIME-THETA WILL TRANSFER TO POODOO WITH
000338:                                                                                                  #        AN ALARM CODE (ORIGINALLY 00607), AND NOT RETURN TO THE CALLING PROGRAM.  (PCR 692 AND 721).
000339:
000340:                                                                                                  #  OUTPUT -
000341:                                                                                                  #                        * SCALE FACTOR  *
000342:                                                                                                  #        VARIABLE        *IN POWERS OF 2 *       DESCRIPTION AND REMARKS
000343:                                                                                                  #        --------        *-------------- *       -----------------------
000344:                                                                                                  #        T (30D)         * +28           *       DP TRANSFER TIME IN CENTISECONDS
000345:                                                                                                  #        INFINFLG        * NONE          *       AN INTERPRETIVE SWITCH WHICH IS SET IF THE TRANSFER ANGLE REQUIRES CLOSURE THROUGH
000346:                                                                                                  #                        *               *               INFINITY (NO SOLUTION), CLEAR IF A PHYSICAL SOLUTION IS POSSIBLE.
000347:                                                                                                  #        COGAFLAG        * NONE          *       AN INTERPRETIVE SWITCH WHICH IS SET IF RESTRICTION 1 HAS BEEN VIOLATED (NO SOLUTION),
000348:                                                                                                  #                        *               *               CLEAR IF NOT.
000349:
000350:                                                                                                  #        IN ADDITION, IF RVSW IS CLEAR, THE FOLLOWING ARE OUTPUT -
000351:                                                                                                  #        MPAC  -         * +7 FOR EARTH  *       DP TERMINAL VELOCITY VECTOR IN METERS/CENTISEC.
000352:                                                                                                  #         MPAC +5        * +5 FOR MOON   *
000353:                                                                                                  #        0D - 5D         * +29 FOR EARTH *       DP TERMINAL POSITION VECTOR IN METERS (PL AT 6D)
000354:                                                                                                  #                        * +27 FOR MOON  *
000355:
000356:                                                                                                  #        FOR OTHER OUTPUT WHICH MAY BE OF USE, SEE DEBRIS.
000357:


000359:                                                                                                  #  DEBRIS -
000360:                                                                                                  #        PARAMETERS WHICH MAY BE OF USE -
000361:                                                                                                  #
000362:                                                                                                  #                        * SCALE FACTOR  *
000363:                                                                                                  #        VARIABLE        *IN POWERS OF 2 *       DESCRIPTION AND REMARKS
000364:                                                                                                  #        --------        *-------------- *       -----------------------
000365:                                                                                                  #        R1 (32D)        * +29 FOR EARTH *       DP MAGNITUDE OF INITIAL POSITION VECTOR, RVEC, IN METERS
000366:                                                                                                  #                        * +27 FOR MOON  *
000367:                                                                                                  #        R1A             * +6            *       DP RATIO OF R1 TO SEMIMAJOR AXIS (NEG. FOR HYPERBOLIC TRAJECTORIES)
000368:                                                                                                  #        P               * +4            *       DP RATIO OF SEMILATUS RECTUM TO R1
000369:                                                                                                  #        COGA            * +5            *       DP COTAN OF ANGLE BETWEEN RVEC AND VVEC
000370:                                                                                                  #        UR1             * +1            *       DP UNIT VECTOR OF RVEC
000371:                                                                                                  #        U2              * +1            *       DP UNIT VECTOR OF VVEC
000372:                                                                                                  #        UN              * +1            *       DP UNIT VECTOR OF UR1*U2
000373:
000374:                                                                                                  #        PARAMETERS OF NO USE -
000375:                                                                                                  #        SP PARAMETERS - RTNTT, GEOMSGN, RTNPRM, MAGVEC2=R2 (DP), PLUS PUSHLIST LOCATIONS 0-11D, 14D-21D, 24D-39D, 41D
000376:                                                                                                  #        ADDITIONAL INTERPRETIVE SWITCHES USED - NORMSW, 360SW
000377:


000379:                                                                                                  #  PROGRAM DESCRIPTION - TIME-RADIUS SUBROUTINE          DATE - 11 OCTOBER 1967
000380:                                                                                                  #  MOD NO. -1                                            LOG SECTION - CONIC SUBROUTINES
000381:                                                                                                  #  MOD BY KRAUSE                                         ASSEMBLY - COLOSSUS REVISION 88
000382:
000383:                                                                                                  #  FUNCTIONAL DESCRIPTION -
000384:
000385:                                                                                                  #        THIS SUBROUTINE, GIVEN AN INITIAL STATE VECTOR AND A DESIRED RADIUS TO WHICH THE
000386:                                                                                                  #        STATE IS TO BE UPDATED ALONG A CONIC TRAJECTORY, CALCULATES THE CORRESPONDING TIME-OF-FLIGHT AND, IN ADDITION,
000387:                                                                                                  #        PROVIDES THE OPTION OF COMPUTING THE NEW UPDATED STATE VECTOR.  THE RESULTING TRAJECTORY MAY BE A SECTION OF A
000388:                                                                                                  #        CIRCLE, ELLIPSE, PARABOLA, OR HYPERBOLA WITH RESPECT TO THE EARTH OR THE MOON.  THE USE OF THE SUBROUTINE CAN BE
000389:                                                                                                  #        EXTENDED USING OTHER PRIMARY BODIES BY SIMPLE ADDITIONS TO THE MUTABLE WITHOUT INTRODUCING ANY CODING CHANGES,
000390:                                                                                                  #        ACCEPTING THE INHERENT SCALE FACTOR CHANGES IN POSITION AND VELOCITY.
000391:
000392:                                                                                                  #        IF THE DESIRED RADIUS IS BEYOND THE RADIUS OF APOCENTER OF THE CONIC OR BELOW THE RADIUS OF PERICENTER,
000393:                                                                                                  #        APSESW WILL BE SET AND THE SUBROUTINE WILL RETURN THE APOCENTER OR PERICENTER SOLUTION, RESPECTIVELY.
000394:
000395:                                                                                                  #  THE RESTRICTIONS ARE -
000396:                                                                                                  #        1. THE ANGLE BETWEEN ANY POSITION VECTOR AND ITS VELOCITY VECTOR MUST BE GREATER THAN 1 DEGREE 47.5 MINUTES
000397:                                                                                                  #           AND LESS THAN 178 DEGREES 12.5 MINUTES.
000398:                                                                                                  #        2. THE PARAMETERS IN THE PROBLEM MUST NOT EXCEED THEIR SCALING LIMITS SPECIFIED IN THE GSOP.  IF THE LIMITS
000399:                                                                                                  #           ARE EXCEEDED, THE RESULTING SOLUTION WILL BE MEANINGLESS.
000400:                                                                                                  #        3. AN ACCURACY DEGRADATION OCCURS AS THE SENSITIVITIES OF TIME AND UPDATED STATE VECTOR TO CHANGES IN
000401:                                                                                                  #           RDESIRED INCREASE.  THIS WILL OCCUR NEAR EITHER APSIS OF THE CONIC AND WHEN THE CONIC IS NEARLY CIRCULAR.  IN
000402:                                                                                                  #           PARTICULAR, IF THE CONIC IS AN EXACT CIRCLE, THE PROBLEM IS UNDEFINED AND THE SUBROUTINE WILL ABORT.
000403:
000404:                                                                                                  #        THE AGC COMPUTATION TIME IS APPROXIMATELY .363 SECONDS
000405:
000406:                                                                                                  #  REFERENCES -
000407:                                                                                                  #        R-479, MISSION PROGRAMMING DEFINITION MEMO NO. 10, LUNAR LANDING MISSION GSOP-SECTION 5.5, SGA MEMO 67-8.
000408:
000409:                                                                                                  #  INPUT - ERASABLE INITIALIZATION REQUIRED
000410:                                                                                                  #                        * SCALE FACTOR  *
000411:                                                                                                  #        VARIABLE        *IN POWERS OF 2 *       DESCRIPTION AND REMARKS
000412:                                                                                                  #        --------        *-------------- *       -----------------------
000413:                                                                                                  #        RVEC            * +29 FOR EARTH *       DP INITIAL POSITION VECTOR IN METERS
000414:                                                                                                  #                        * +27 FOR MOON  *
000415:                                                                                                  #        VVEC            * +7 FOR EARTH  *       DP INITIAL VELOCITY VECTOR IN METERS/CENTISECOND
000416:                                                                                                  #                        * +5 FOR MOON   *
000417:                                                                                                  #        RDESIRED        * +29 FOR EARTH *       DP TERMINAL RADIAL DISTANCE ON CONIC TRAJECTORY FOR WHICH TRANSFER TIME IS TO BE
000418:                                                                                                  #                        * +27 FOR MOON  *               COMPUTED.
000419:                                                                                                  #        SGNRDOT         * NONE          *       SP TAG SET TO +.5 OR -.5 ACCORDING TO WHETHER THE RADIAL VELOCITY AT RDESIRED IS TO BE
000420:                                                                                                  #                        *               *               POSITIVE OR NEGATIVE, RESPECTIVELY.   THIS TAG REDUCES THE DOUBLE-VALUED PROBLEM TO A


000422:                                                                                                  #                        *               *               SINGLE-VALUED PROBLEM.
000423:                                                                                                  #        X1 (38D)        * NONE          *       INDEX REGISTER TO BE SET TO -2D OR -10D ACCORDING TO WHETHER THE EARTH OR MOON,
000424:                                                                                                  #                        *               *               RESPECTIVELY, IS THE CENTRAL BODY.
000425:                                                                                                  #        RVSW            * NONE          *       AN INTERPRETIVE SWITCH TO BE SET IF ONLY TIME IS TO BE AN OUTPUT, CLEAR IF THE NEW STATE
000426:                                                                                                  #                        *               *               IS TO BE COMPUTED ALSO.
000427:
000428:                                                                                                  #  SUBROUTINES CALLED -
000429:                                                                                                  #        PARAM, GEOM, GETX, DELTIME, NEWSTATE
000430:
000431:                                                                                                  #  CALLING SEQUENCE AND NORMAL EXIT MODES -
000432:
000433:                                                                                                  #        IF ONLY TIME IS DESIRED AS OUTPUT -
000434:                                                                                                  #        L       SET     CALL            MUST BE IN INTERPRETIVE MODE BUT OVFIND ARBITRARY.
000435:                                                                                                  #        L+1             RVSW
000436:                                                                                                  #        L+2             TIMERAD         RETURN WITH PL AT 0 AND T IN MPAC
000437:                                                                                                  #        L+3     ...                     CONTINUE
000438:
000439:                                                                                                  #        IF THE UPDATE STATE VECTOR IS DESIRED AS WELL -
000440:                                                                                                  #        L       CLEAR   CALL            MUST BE IN INTERPRETIVE MODE BUT OVFIND ARBITRARY.
000441:                                                                                                  #        L+1             RVSW
000442:                                                                                                  #        L+2             TIMERAD         RETURNS WITH PL AT 6.  THE INITIAL POSITION VECTOR IS IN 0D OF THE PUSHLIST AND
000443:                                                                                                  #                                        THE INITIAL VELOCITY VECTOR IN MPAC.
000444:                                                                                                  #        L+3     STOVL   NEWVVEC
000445:                                                                                                  #        L+4     STADR
000446:                                                                                                  #        L+5     STORE   NEWRVEC         NEWVVEC AND NEWRVEC ARE SYMBOLIC REPRESENTATIONS OF THE USERS LOCATIONS.
000447:                                                                                                  #        L+6     ...                     CONTINUE
000448:
000449:                                                                                                  #  ABORT EXIT MODES -
000450:                                                                                                  #        IF SOLNSW AND/OR COGAFLAG AND/OR INFINFLG IS SET AT THE EXIT TO TIME-RADIUS, TIME-RADIUS WILL TRANSFER
000451:                                                                                                  #        TO POODOO WITH AN ALARM CODE (ORIGINALLY 00607), AND NOT RETURN TO THE CALLING PROGRAM. (PCR 692 & 721)
000452:
000453:                                                                                                  #  OUTPUT -
000454:                                                                                                  #                        * SCALE FACTOR  *
000455:                                                                                                  #        VARIABLE        *IN POWERS OF 2 *       DESCRIPTION AND REMARKS
000456:                                                                                                  #        --------        *-------------- *       -----------------------
000457:                                                                                                  #        T (30D)         * +28           *       DP TRANSFER TIME IN CENTISECONDS
000458:                                                                                                  #        INFINFLG        * NONE          *       AN INTERPRETIVE SWITCH WHICH IS SET IF RDESIRED AND SGNRDOT REQUIRE CLOSURE THROUGH
000459:                                                                                                  #                        *               *               INFINITY (NO SOLUTION), CLEAR IF A PHYSICAL SOLUTION IS POSSIBLE.
000460:                                                                                                  #        COGAFLAG        * NONE          *       AN INTERPRETIVE SWITCH WHICH IS SET IF RESTRICTION 1 HAS BEEN VIOLATED (NO SOLUTION),
000461:                                                                                                  #                        *               *               CLEAR IF NOT.
000462:                                                                                                  #        APSESW          * NONE          *       AN INTERPRETIVE SWITCH WHICH IS SET IF RDESIRED WAS GREATER THAN RADIUS OF APOCENTER OR


000464:                                                                                                  #                        *               *               LESS THAN RADIUS OF PERICENTER.  THE APOCENTER OR PERICENTER SOLUTION, RESPECTIVELY,
000465:                                                                                                  #                        *               *               WILL THEN BE RETURNED.  THE SWITCH IS CLEAR IF RDESIRED WAS BETWEEN PERICENTER AND
000466:                                                                                                  #                        *               *               APOCENTER.
000467:                                                                                                  #        SOLNSW          * NONE          *       AN INTERPRETIVE SWITCH WHICH IS SET IF THE CONIC IS SO CLOSE TO A CIRCLE THAT THE TERMIN
000468:                                                                                                  #                                        *               POINT IS AMBIGUOUS, VIOLATING RESTRICTION 3.  IF ECCENTRICITY IS GREATER THAN 2-TO-THE-
000469:                                                                                                  #                                        *               MINUS-18, THE SWITCH IS CLEAR.
000470:
000471:                                                                                                  #        IN ADDITION, IF RVSW IS CLEAR, THE FOLLOWING ARE OUTPUT -
000472:
000473:                                                                                                  #        MPAC  -         * +7 FOR EARTH  *       DP TERMINAL VELOCITY VECTOR IN METERS/CENTISEC.
000474:                                                                                                  #         MPAC +5        * +5 FOR MOON   *
000475:                                                                                                  #        0D - 5D         * +29 FOR EARTH *       DP TERMINAL POSITION VECTOR IN METERS (PL AT 6D)
000476:                                                                                                  #                        * +27 FOR MOON  *
000477:
000478:                                                                                                  #        FOR OTHER OUTPUT WHICH MAY BE OF USE, SEE DEBRIS.
000479:
000480:                                                                                                  #  DEBRIS -
000481:                                                                                                  #        PARAMETERS WHICH MAY BE OF USE -
000482:
000483:                                                                                                  #                        * SCALE FACTOR  *
000484:                                                                                                  #        VARIABLE        *IN POWERS OF 2 *       DESCRIPTION AND REMARKS
000485:                                                                                                  #        --------        *-------------- *       -----------------------
000486:                                                                                                  #        R1 (32D)        * +29 FOR EARTH *       DP MAGNITUDE OF INITIAL POSITION VECTOR, RVEC, IN METERS
000487:                                                                                                  #                        * +27 FOR MOON  *
000488:                                                                                                  #        R1A             * +6            *       DP RATIO OF R1 TO SEMIMAJOR AXIS (NEG. FOR HYPERBOLIC TRAJECTORIES)
000489:                                                                                                  #        P               * +4            *       DP RATIO OF SEMILATUS RECTUM TO R1
000490:                                                                                                  #        COGA            * +5            *       DP COTAN OF ANGLE BETWEEN RVEC AND VVEC
000491:                                                                                                  #        UR1             * +1            *       DP UNIT VECTOR OF RVEC
000492:                                                                                                  #        U2              * +1            *       DP UNIT VECTOR OF VVEC
000493:                                                                                                  #        UN              * +1            *       DP UNIT VECTOR OF UR1*U2
000494:                                                                                                  #        CSTH            * +1            *       DP COSINE OF TRUE ANOMALY DIFFERENCE BETWEEN RVEC AND RDESIRED.
000495:                                                                                                  #        SNTH            * +1            *       DP SINE OF TRUE ANOMALY DIFFERENCE.
000496:
000497:                                                                                                  #        PARAMETERS OF NO USE -
000498:                                                                                                  #                SP PARAMETERS - RTNTT, GEOMSGN, RTNPRM, MAGVEC2=R2 (DP), PLUS PUSHLIST LOCATIONS 0-11D, 14D-21D, 24D-39D, 41D
000499:                                                                                                  #                ADDITIONAL INTERPRETIVE SWITCHES USED - NORMSW, 360SW
000500:
000501:


000503:                                                                                                  #  PROGRAM DESCRIPTION - APSIDES SUBROUTINE              DATE - 1 SEPTEMBER 1967
000504:                                                                                                  #  MOD NO. - 0                                           LOG SECTION - CONIC SUBROUTINES
000505:                                                                                                  #  MOD BY KRAUSE                                         ASSEMBLY - COLOSSUS REVISION 88
000506:
000507:                                                                                                  #  FUNCTIONAL DESCRIPTION -
000508:
000509:                                                                                                  #        THIS SUBROUTINE, GIVEN AN INITIAL STATE VECTOR CALCULATES THE RADIUS OF PERICENTER AND OF APOCENTER AND THE
000510:                                                                                                  #        ECCENTRICITY OF THE RESULTING CONIC TRAJECTORY, WHICH MAY BE A STRAIGHT LINE,
000511:                                                                                                  #        CIRCLE, ELLIPSE, PARABOLA, OR HYPERBOLA WITH RESPECT TO THE EARTH OR THE MOON.  THE USE OF THE SUBROUTINE CAN BE
000512:                                                                                                  #        EXTENDED USING OTHER PRIMARY BODIES BY SIMPLE ADDITIONS TO THE MUTABLE WITHOUT INTRODUCING ANY CODING CHANGES,
000513:                                                                                                  #        ACCEPTING THE INHERENT SCALE FACTOR CHANGES IN POSITION AND VELOCITY.
000514:
000515:                                                                                                  #  THE RESTRICTIONS ARE -
000516:                                                                                                  #        1. IF APOCENTER IS BEYOND THE SCALING OF POSITION, THE SCALE FACTOR LIMIT (536,870,910 METERS WITH RESPECT
000517:                                                                                                  #           TO THE EARTH OR 134,217,727.5 METERS WITH RESPECT TO THE MOON) WILL BE RETURNED.
000518:                                                                                                  #        2. THE PARAMETERS IN THE PROBLEM MUST NOT EXCEED THEIR SCALING LIMITS SPECIFIED IN THE GSOP.  IF THE LIMITS
000519:                                                                                                  #           ARE EXCEEDED, THE RESULTING SOLUTION WILL BE MEANINGLESS.
000520:
000521:                                                                                                  #        THE AGC COMPUTATION TIME IS APPROXIMATELY .103 SECONDS.
000522:
000523:                                                                                                  #  REFERENCES -
000524:                                                                                                  #        MISSION PROGRAMMING DEFINITION MEMO NO. 10, LUNAR LANDING MISSION GSOP-SECTION 5.5
000525:
000526:                                                                                                  #  INPUT - ERASABLE INITIALIZATION REQUIRED
000527:                                                                                                  #                        * SCALE FACTOR  *
000528:                                                                                                  #        VARIABLE        *IN POWERS OF 2 *       DESCRIPTION AND REMARKS
000529:                                                                                                  #        --------        *-------------- *       -----------------------
000530:                                                                                                  #        RVEC            * +29 FOR EARTH *       DP INITIAL POSITION VECTOR IN METERS
000531:                                                                                                  #                        * +27 FOR MOON  *
000532:                                                                                                  #        VVEC            * +7 FOR EARTH  *       DP INITIAL VELOCITY VECTOR IN METERS/CENTISECOND
000533:                                                                                                  #                        * +5 FOR MOON   *
000534:                                                                                                  #        X1 (38D)        * NONE          *       INDEX REGISTER TO BE SET TO -2D OR -10D ACCORDING TO WHETHER THE EARTH OR MOON,
000535:                                                                                                  #                        *               *               RESPECTIVELY, IS THE CENTRAL BODY.
000536:
000537:                                                                                                  #  SUBROUTINES CALLED -
000538:                                                                                                  #        PARAM, GEOM
000539:
000540:                                                                                                  #  CALLING SEQUENCE AND NORMAL EXIT MODES -


000542:                                                                                                  #        IF ONLY TIME IS DESIRED AS OUTPUT -
000543:                                                                                                  #        L       CALL                    MUST BE IN INTERPRETIVE MODE BUT OVFIND ARBITRARY.
000544:                                                                                                  #        L+1             APSIDES         RETURNS WITH PL AT 0, RADIUS OF APOCENTER IN MPAC AND RADIUS OF PERICENTER IN 0D
000545:                                                                                                  #        L+2     STODL   APOAPSE
000546:                                                                                                  #        L+3             0D
000547:                                                                                                  #        L+4     STORE   PERIAPSE        APOAPSE AND PERIAPSE ARE SYMBOLIC REPRESENTATIONS OF THE USERS LOCATIONS
000548:                                                                                                  #        L+5     ...                     CONTINUE
000549:
000550:                                                                                                  #  OUTPUT -
000551:                                                                                                  #                        * SCALE FACTOR  *
000552:                                                                                                  #        VARIABLE        *IN POWERS OF 2 *       DESCRIPTION AND REMARKS
000553:                                                                                                  #        --------        *-------------- *       -----------------------
000554:                                                                                                  #        MPAC            * +29 FOR EARTH *       DP RADIUS OF APOCENTER IN METERS
000555:                                                                                                  #                        * +27 FOR MOON  *
000556:                                                                                                  #        0D-1D           * +29 FOR EARTH *       DP RADIUS OF PERICENTER IN METERS
000557:                                                                                                  #                        * +27 FOR MOON  *
000558:                                                                                                  #        ECC             * +3            *       DP ECCENTRICITY OF CONIC TRAJECTORY.
000559:
000560:                                                                                                  #        FOR OTHER OUTPUT WHICH MAY BE OF USE, SEE DEBRIS.
000561:
000562:                                                                                                  #  DEBRIS -
000563:
000564:                                                                                                  #        PARAMETERS WHICH MAY BE OF USE -
000565:
000566:                                                                                                  #                        * SCALE FACTOR  *
000567:                                                                                                  #        VARIABLE        *IN POWERS OF 2 *       DESCRIPTION AND REMARKS
000568:                                                                                                  #        --------        *-------------- *       -----------------------
000569:                                                                                                  #        R1 (32D)        * +29 FOR EARTH *       DP MAGNITUDE OF INITIAL POSITION VECTOR, RVEC, IN METERS
000570:                                                                                                  #                        * +27 FOR MOON  *
000571:                                                                                                  #        R1A             * +6            *       DP RATIO OF R1 TO SEMIMAJOR AXIS (NEG. FOR HYPERBOLIC TRAJECTORIES)
000572:                                                                                                  #        P               * +4            *       DP RATIO OF SEMILATUS RECTUM TO R1
000573:                                                                                                  #        COGA            * +5            *       DP COTAN OF ANGLE BETWEEN RVEC AND VVEC
000574:                                                                                                  #        UR1             * +1            *       DP UNIT VECTOR OF RVEC
000575:                                                                                                  #        U2              * +1            *       DP UNIT VECTOR OF VVEC
000576:                                                                                                  #        UN              * +1            *       DP UNIT VECTOR OF UR1*U2
000577:                                                                                                  #        MAGVEC2         * +7 FOR EARTH  *       DP MAGNITUDE OF VVEC
000578:                                                                                                  #                        * +5 FOR MOON   *
000579:
000580:                                                                                                  #        PARAMETERS OF NO USE -
000581:                                                                                                  #                SP PARAMETERS - RTNAPSE, GEOMSGN, RTNPRM, PLUS PUSHLIST LOCATIONS 0-5, 10D-11D, 14D-21D, 31D-38D.
000582:                                                                                                  #                ADDITIONAL INTERPRETIVE SWITCHES USED - NORMSW
000583:
000584: 12,2000                                           SETLOC   CONICS


000586: 12,2000                                           BANK
000587:
000588: 12,2023                                           COUNT*   $$/CONIC
000589: 12,2023  E5,1721                                  EBANK=   UR1
000590: 12,2023           40001        KEPLERN            SETPD    BOV
000591: 12,2024           00001                                    0
000592: 12,2025           24026                                    +1
000593: 12,2026           77773                           VLOAD*
000594: 12,2027           10005                                    MUTABLE,1
000595: 12,2030           24017                           STOVL    14D
000596: 12,2031           01503                                    RRECT
000597: 12,2032           66256                           UNIT     SSP
000598: 12,2033           00027                                    ITERCTR
000599: 12,2034           00024                                    20D
000600: 12,2035           16647                           STODL    URRECT
000601: 12,2036           00045                                    36D
000602: 12,2037           24041                           STOVL    R1
000603: 12,2040           01503                                    RRECT
000604: 12,2041           76441                           DOT      SL1R
000605: 12,2042           01511                                    VRECT
000606: 12,2043           76405                           DMP      SL1R
000607: 12,2044           00023                                    1/ROOTMU                              #  1/ROOTMU (-17 OR -14)
000608: 12,2045           24043                           STOVL    KEPC1                                 #  C1=R.V/ROOTMU (+17 OR +16)
000609: 12,2046           01511                                    VRECT
000610: 12,2047           57236                           VSQ      DMPR
000611: 12,2050           00017                                    1/MU                                  #  1/MU (-34 OR -28)
000612: 12,2051           52405                           DMP      SL3
000613: 12,2052           00041                                    R1
000614: 12,2053           61425                           DSU      ROUND
000615: 12,2054           11035                                    D1/64
000616: 12,2055           00045                           STORE    KEPC2                                 #  C2=RV.V/MU -1 (+6)
000617:
000618: 12,2056           74421                           BDSU     SR1R
000619: 12,2057           11035                                    D1/64
000620: 12,2060           77671                           DDV
000621: 12,2061           00041                                    R1
000622: 12,2062           00011                           STORE    ALPHA                                 #  ALPHA=(1-C2)/R1 (-22 OR -20)
000623:
000624: 12,2063           71244                           BPL      DLOAD                                 #  MAXIMUM X DEPENDS ON TYPE OF CONIC
000625: 12,2064           24073                                    1REV
000626: 12,2065           11053                                    -50SC                                 #  -50SC (+12)
000627: 12,2066           40071                           DDV      BOV
000628: 12,2067           00011                                    ALPHA
000629: 12,2070           24077                                    STOREMAX
000630: 12,2071           52166                           SQRT     GOTO
000631: 12,2072           24077                                    STOREMAX
000632:
000633: 12,2073           55366        1REV               SQRT     BDDV


000635: 12,2074           11055                                    2PISC                                 #  2PISC (+6)
000636: 12,2075           77600                           BOV
000637: 12,2076           24077                                    STOREMAX
000638: 12,2077           00013        STOREMAX           STORE    XMAX
000639: 12,2100           65205                           DMP      PDDL
000640: 12,2101           00023                                    1/ROOTMU
000641: 12,2102           00011                                    ALPHA
000642: 12,2103           65301                           NORM     PDDL
000643: 12,2104           00047                                    X1
000644: 12,2105           56257                           SL*      DDV
000645: 12,2106           20173                                    0          -6,1
000646: 12,2107           50000                           BOV      BMN
000647: 12,2110           24124                                    MODDONE
000648: 12,2111           24124                                    MODDONE                               #  MPAC=PERIOD
000649: 12,2112           51525        PERIODCH           PDDL     ABS                                   #  0D=PERIOD
000650: 12,2113           02074                                    TAU.
000651: 12,2114           50025                           DSU      BMN
000652: 12,2115           00001                                    0D
000653: 12,2116           24124                                    MODDONE
000654: 12,2117           77765                           SIGN
000655: 12,2120           02074                                    TAU.
000656: 12,2121           16074                           STODL    TAU.
000657: 12,2122           77650                           GOTO
000658: 12,2123           24112                                    PERIODCH
000659: 12,2124           71201        MODDONE            SETPD    DLOAD
000660: 12,2125           00001                                    0
000661: 12,2126           02130                                    XKEPNEW
000662: 12,2127           00025                           STORE    X
000663: 12,2130           53165                           SIGN     BZE
000664: 12,2131           02074                                    TAU.
000665: 12,2132           24302                                    BADX
000666: 12,2133           51440                           BMN      ABS
000667: 12,2134           24302                                    BADX
000668: 12,2135           51025                           DSU      BPL
000669: 12,2136           00013                                    XMAX
000670: 12,2137           24302                                    BADX
000671: 12,2140           51145        STORBNDS           DLOAD    BPL
000672: 12,2141           02074                                    TAU.
000673: 12,2142           24152                                    STOREMIN
000674: 12,2143           57545                           DLOAD    DCOMP
000675: 12,2144           00013                                    XMAX
000676: 12,2145           14015                           STODL    XMIN
000677: 12,2146           24007                                    KEPZERO
000678: 12,2147           00013                           STORE    XMAX
000679: 12,2150           77650                           GOTO
000680: 12,2151           24155                                    DXCOMP
000681: 12,2152           77745        STOREMIN           DLOAD
000682: 12,2153           24007                                    KEPZERO
000683: 12,2154           00015                           STORE    XMIN
000684: 12,2155           57345        DXCOMP             DLOAD    DMPR


000686: 12,2156           02074                                    TAU.
000687: 12,2157           11046                                    BEE22
000688: 12,2160           77646                           ABS
000689: 12,2161           16177                           STODL    EPSILONT
000690: 12,2162           01553                                    XPREV
000691: 12,2163           77621        XDIFF              BDSU
000692: 12,2164           00025                                    X
000693: 12,2165           02643                           STORE    DELX
000694:
000695: 12,2166           63545        KEPLOOP            DLOAD    DSQ
000696: 12,2167           00025                                    X                                     #  X=XKEP
000697: 12,2170           41501                           NORM     PUSH                                  #  0D=XSQ (+34 OR +32 -N1)       PL AT 2
000698: 12,2171           00047                                    X1
000699: 12,2172           53605                           DMP      SRR*
000700: 12,2173           00011                                    ALPHA
000701: 12,2174           21573                                    0          -6,1
000702: 12,2175           34031                           STCALL   XI                                    #  XI=ALPHA XSQ (+6)
000703: 12,2176           24421                                    DELTIME
000704: 12,2177           44200                           BOV      BDSU
000705: 12,2200           24311                                    TIMEOVFL                              #  UNLIKELY
000706: 12,2201           02074                                    TAU.
000707: 12,2202           02645                           STORE    DELT                                  #  DELT=DELINDEP
000708: 12,2203           44246                           ABS      BDSU
000709: 12,2204           02177                                    EPSILONT
000710: 12,2205           71244                           BPL      DLOAD
000711: 12,2206           24333                                    KEPCONVG
000712: 12,2207           00037                                    T
000713: 12,2210           60225                           DSU      NORM
000714: 12,2211           01551                                    TC
000715: 12,2212           00047                                    X1
000716: 12,2213           60325                           PDDL     NORM
000717: 12,2214           02643                                    DELX
000718: 12,2215           00050                                    X2
000719: 12,2216           41260                           XSU,1    DMP
000720: 12,2217           00047                                    X2
000721: 12,2220           02645                                    DELT
000722: 12,2221           56257                           SLR*     DDV
000723: 12,2222           21202                                    1,1
000724: 12,2223           41542                           SR1      PUSH                                  #  0D=TRIAL DELX         PL AT 2
000725: 12,2224           71244                           BPL      DLOAD
000726: 12,2225           24246                                    POSDELX
000727: 12,2226           00025                                    X
000728: 12,2227           00013                           STORE    XMAX                                  #  MOVE MAX BOUND IN
000729: 12,2230           45221                           BDSU     DSU                                   #                        PL AT 0
000730: 12,2231           00015                                    XMIN
000731: 12,2232           51000                           BOV      BPL
000732: 12,2233           24240                                    NDXCHNGE
000733: 12,2234           24240                                    NDXCHNGE
000734: 12,2235           52145                           DLOAD    GOTO


000736: 12,2236           00001                                    0D
000737: 12,2237           24260                                    NEWDELX
000738:
000739: 12,2240           45345        NDXCHNGE           DLOAD    DSU
000740: 12,2241           00015                                    XMIN
000741: 12,2242           00025                                    X
000742: 12,2243           52075                           DMPR     GOTO                                  #  TO FORCE MPAC +2 TO ZERO
000743: 12,2244           11051                                    DP9/10
000744: 12,2245           24260                                    NEWDELX
000745:
000746: 12,2246           77745        POSDELX            DLOAD
000747: 12,2247           00025                                    X
000748: 12,2250           00015                           STORE    XMIN                                  #  MOVE MIN BOUND IN
000749: 12,2251           45221                           BDSU     DSU                                   #                        PL AT 0
000750: 12,2252           00013                                    XMAX
000751: 12,2253           50000                           BOV      BMN
000752: 12,2254           24274                                    PDXCHNGE
000753: 12,2255           24274                                    PDXCHNGE
000754: 12,2256           77745                           DLOAD
000755: 12,2257           00001                                    0D
000756: 12,2260           02643        NEWDELX            STORE    DELX
000757: 12,2261           43254                           BZE      DAD
000758: 12,2262           24333                                    KEPCONVG
000759: 12,2263           00025                                    X
000760: 12,2264           14025                           STODL    X
000761: 12,2265           00037                                    T
000762: 12,2266           01551                           STORE    TC
000763: 12,2267           46034        BRNCHCTR           RTB      BHIZ
000764: 12,2270           24644                                    CHECKCTR
000765: 12,2271           24333                                    KEPCONVG
000766: 12,2272           77650                           GOTO
000767: 12,2273           24166                                    KEPLOOP                               #  ITERATE
000768:
000769: 12,2274           45345        PDXCHNGE           DLOAD    DSU
000770: 12,2275           00013                                    XMAX
000771: 12,2276           00025                                    X
000772: 12,2277           52075                           DMPR     GOTO                                  #  TO FORCE MPAC +2 TO ZERO
000773: 12,2300           11051                                    DP9/10
000774: 12,2301           24260                                    NEWDELX
000775:
000776: 12,2302           70545        BADX               DLOAD    SR1
000777: 12,2303           00013                                    XMAX
000778: 12,2304           77765                           SIGN
000779: 12,2305           02074                                    TAU.
000780: 12,2306           00025                           STORE    X
000781: 12,2307           77650                           GOTO


000783: 12,2310           24140                                    STORBNDS
000784: 12,2311           50145        TIMEOVFL           DLOAD    BMN                                   #  X WAS TOO BIG
000785: 12,2312           00025                                    X
000786: 12,2313           24330                                    NEGTOVFL
000787: 12,2314           00013                           STORE    XMAX
000788: 12,2315           70545        CMNTOVFL           DLOAD    SR1
000789: 12,2316           02643                                    DELX
000790: 12,2317           02643                           STORE    DELX
000791: 12,2320           44254                           BZE      BDSU
000792: 12,2321           02112                                    KEPRTN
000793: 12,2322           00025                                    X
000794: 12,2323           14025                           STODL    X
000795: 12,2324           01551                                    TC
000796: 12,2325           00037                           STORE    T
000797: 12,2326           77650                           GOTO
000798: 12,2327           24267                                    BRNCHCTR
000799: 12,2330           00015        NEGTOVFL           STORE    XMIN
000800: 12,2331           77650                           GOTO
000801: 12,2332           24315                                    CMNTOVFL
000802: 12,2333           44545        KEPCONVG           DLOAD    SR4R
000803: 12,2334           00041                                    R1
000804: 12,2335           74225                           DSU      VXSC
000805: 12,2336           00035                                    XSQC(XI)
000806: 12,2337           02647                                    URRECT
000807: 12,2340           65372                           VSL1     PDDL                                  #  0D=(R1-XSQC(XI))URRECT (+33 OR +31)
000808: 12,2341           00025                                    X
000809: 12,2342           60316                           DSQ      NORM
000810: 12,2343           00047                                    X1
000811: 12,2344           57275                           DMPR     DMPR
000812: 12,2345           00023                                    1/ROOTMU
000813: 12,2346           00025                                    X
000814: 12,2347           53605                           DMP      SRR*
000815: 12,2350           00033                                    S(XI)
000816: 12,2351           21572                                    0          -7,1
000817: 12,2352           77621                           BDSU
000818: 12,2353           00037                                    T
000819: 12,2354           74352                           SL1      VXSC
000820: 12,2355           01511                                    VRECT
000821: 12,2356           53372                           VSL1     VAD                                   #                                PL AT 0
000822: 12,2357           77712                           VSL4
000823: 12,2360           01535                           STORE    RCV                                   #  RCV (+29 OR +27)
000824:
000825: 12,2361           60246                           ABVAL    NORM
000826: 12,2362           00050                                    X2
000827: 12,2363           14043                           STODL    RCNORM
000828: 12,2364           00031                                    XI
000829: 12,2365           45275                           DMPR     DSU
000830: 12,2366           00033                                    S(XI)
000831: 12,2367           11033                                    D1/128


000833: 12,2370           76405                           DMP      SL1R
000834: 12,2371           00021                                    ROOTMU
000835: 12,2372           53605                           DMP      SLR*
000836: 12,2373           00025                                    X
000837: 12,2374           56601                                    0          -3,2
000838: 12,2375           74271                           DDV      VXSC
000839: 12,2376           00043                                    RCNORM
000840: 12,2377           02647                                    URRECT
000841: 12,2400           65372                           VSL1     PDDL                                  #  0D=URRECT(XI S(XI)-1)X ROOTMU/RCV (+15
000842: 12,2401           00035                                    XSQC(XI)                              #  OR +13)                       PL AT 6
000843: 12,2402           56257                           SLR*     DDV
000844: 12,2403           56602                                    0          -4,2
000845: 12,2404           00043                                    RCNORM
000846: 12,2405           74221                           BDSU     VXSC
000847: 12,2406           11047                                    D1/256
000848: 12,2407           01511                                    VRECT
000849: 12,2410           42455                           VAD      VSL8
000850: 12,2411           77626                           STADR                                          #                                PL AT 0
000851: 12,2412           62234                           STODL    VCV                                   #  VCV (+7 OR +5)
000852: 12,2413           00037                                    T
000853: 12,2414           15551                           STODL    TC
000854: 12,2415           00025                                    X
000855: 12,2416           01553                           STORE    XPREV
000856: 12,2417           77650                           GOTO
000857: 12,2420           02112                                    KEPRTN
000858:


000860: 12,2421           77776        DELTIME            EXIT                                           #  MPAC=XI (+6), 0D=XSQ (+34 OR +32 -N1)
000861: 12,2422           07222                           TC       POLY
000862: 12,2423           00010                           DEC      8          B-14
000863: 12,2424           02525 12526                     2DEC     .083333334
000864: 12,2426           67356 75666                     2DEC     -.266666684
000865: 12,2430           15001 23771                     2DEC     .406349155
000866: 12,2432           64342 43674                     2DEC     -.361198675
000867: 12,2434           06563 04645                     2DEC     .210153242
000868: 12,2436           75173 52672                     2DEC     -.086221951
000869: 12,2440           00656 14331                     2DEC     .026268812
000870: 12,2442           77633 40512                     2DEC     -.006163316
000871: 12,2444           00023 11210                     2DEC     .001177342
000872: 12,2446           77774 67506                     2DEC     -.000199055
000873:
000874: 12,2450           06037                           TC       INTPRET
000875: 12,2451           14033                           STODL    S(XI)
000876: 12,2452           00031                                    XI
000877: 12,2453           77776                           EXIT
000878: 12,2454           07222                           TC       POLY
000879: 12,2455           00010                           DEC      8          B-14
000880: 12,2456           01000 00000                     2DEC     .031250001
000881: 12,2460           72525 52506                     2DEC     -.166666719
000882: 12,2462           13301 15337                     2DEC     .355555413
000883: 12,2464           62776 54733                     2DEC     -.406347410
000884: 12,2466           11176 13267                     2DEC     .288962094
000885: 12,2470           73410 51674                     2DEC     -.140117894
000886: 12,2472           01446 33641                     2DEC     .049247387
000887: 12,2474           77451 65233                     2DEC     -.013081923
000888: 12,2476           00055 37266                     2DEC     .002806389
000889: 12,2500           77767 52336                     2DEC     -.000529414
000890: 12,2502           06037                           TC       INTPRET


000892: 12,2503           53605                           DMP      SRR*                                  #                                PL AT 0
000893: 12,2504           00001                                    0D
000894: 12,2505           21574                                    0          -5,1
000895: 12,2506           00035                           STORE    XSQC(XI)                              #  XSQC(XI) (+33 OR +31)
000896: 12,2507           72405                           DMP      SL1
000897: 12,2510           00043                                    KEPC1
000898: 12,2511           65234                           RTB      PDDL                                  #  XCH WITH PL. 0D=C1 XSQ C(XI) (+49 OR +46
000899: 12,2512           21633                                    TPMODE                                #                                PL AT 0,3
000900: 12,2513           53605                           DMP      SRR*
000901: 12,2514           00033                                    S(XI)
000902: 12,2515           21574                                    0          -5,1
000903: 12,2516           72405                           DMP      SL1
000904: 12,2517           00045                                    KEPC2
000905: 12,2520           65234                           RTB      PDDL                                  #  3D=C2 XSQ S(XI) (+35 OR +33)  PL AT 6
000906: 12,2521           21633                                    TPMODE
000907: 12,2522           00041                                    R1
000908: 12,2523           76261                           SR       TAD                                   #                                PL AT 3
000909: 12,2524           20607                                    6
000910: 12,2525           41301                           NORM     DMP                                   #  TO PRESERVE SIGNIF.
000911: 12,2526           00047                                    X1
000912: 12,2527           00025                                    X
000913: 12,2530           76257                           SR*      TAD                                   #  X(C2 XSQ S(XI) +R1) (+49 OR +46)  PL AT 0
000914: 12,2531           20576                                    0          -3,1
000915: 12,2532           57232                           SL4R     DMPR
000916: 12,2533           00023                                    1/ROOTMU
000917: 12,2534           00037                           STORE    T
000918: 12,2535           77616                           RVQ
000919:


000921: 12,2536           71214        ITERATOR           BONCLR   DLOAD
000922: 12,2537           00614                                    SLOPESW
000923: 12,2540           24606                                    FIRSTIME
000924: 12,2541           00037                                    DEP
000925: 12,2542           60225                           DSU      NORM
000926: 12,2543           02762                                    DEPREV
000927: 12,2544           00047                                    X1
000928: 12,2545           60325                           PDDL     NORM
000929: 12,2546           00015                                    DELINDEP
000930: 12,2547           00050                                    X2
000931: 12,2550           41260                           XSU,1    DMP
000932: 12,2551           00047                                    X2
000933: 12,2552           02760                                    DELDEP
000934: 12,2553           56257                           SLR*     DDV                                   #                                PL UP 2
000935: 12,2554           21202                                    1,1
000936: 12,2555           43142                           SR1      BOFF
000937: 12,2556           04351                                    ORDERSW
000938: 12,2557           24562                                    SGNCHECK
000939: 12,2560           75246                           ABS      SIGN                                  #  IN CASE 2ND DERIV. CHANGED SIGN, MUST
000940: 12,2561           02760                                    DELDEP                                #  DISREGARD IT TO FIND MIN.
000941:
000942: 12,2562           51006        SGNCHECK           PUSH     BPL                                   #  TRIAL DELINDEP                PL DOWN 2
000943: 12,2563           24620                                    POSDEL
000944: 12,2564           43145                           DLOAD    BON
000945: 12,2565           02766                                    INDEP
000946: 12,2566           04311                                    ORDERSW
000947: 12,2567           24571                                    MINCHECK
000948: 12,2570           00017                           STORE    MAX                                   #  IF NOT 2ND ORDER, CAN MOVE MAX BOUND IN.
000949:
000950: 12,2571           45221        MINCHECK           BDSU     DSU
000951: 12,2572           00011                                    MIN
000952: 12,2573           51000                           BOV      BPL
000953: 12,2574           24600                                    MODNGDEL
000954: 12,2575           24600                                    MODNGDEL
000955: 12,2576           77650                           GOTO
000956: 12,2577           24632                                    DELOK
000957:
000958: 12,2600           45345        MODNGDEL           DLOAD    DSU                                   #  TRIAL DELINDEP WOULD EXCEED MIN BOUND
000959: 12,2601           00011                                    MIN
000960: 12,2602           02766                                    INDEP
000961: 12,2603           52005                           DMP      GOTO
000962: 12,2604           11051                                    DP9/10
000963: 12,2605           24634                                    NEWDEL
000964:
000965: 12,2606           41345        FIRSTIME           DLOAD    DMP
000966: 12,2607           00011                                    MIN
000967: 12,2610           00051                                    TWEEKIT                               #  DLOAD TWEEKIT(40D) SENSITIVE TO CHANGE.
000968: 12,2611           41325                           PDDL     DMP                                   #  S2(41D) SHOULDNT CONTAIN HI ORDER ONES


000970: 12,2612           00017                                    MAX
000971: 12,2613           00051                                    TWEEKIT
000972: 12,2614           77625                           DSU
000973: 12,2615           52165                           SIGN     GOTO
000974: 12,2616           02760                                    DELDEP
000975: 12,2617           24562                                    SGNCHECK
000976:
000977: 12,2620           43145        POSDEL             DLOAD    BON
000978: 12,2621           02766                                    INDEP
000979: 12,2622           04311                                    ORDERSW
000980: 12,2623           24625                                    MAXCHECK
000981: 12,2624           00011                           STORE    MIN                                   #  IF NOT 2ND ORDER, CAN MOVE MIN BOUND IN.
000982:
000983: 12,2625           45221        MAXCHECK           BDSU     DSU
000984: 12,2626           00017                                    MAX
000985: 12,2627           50000                           BOV      BMN
000986: 12,2630           24636                                    MODPSDEL
000987: 12,2631           24636                                    MODPSDEL
000988: 12,2632           77745        DELOK              DLOAD
000989: 12,2633           00001                                    0D
000990: 12,2634           00015        NEWDEL             STORE    DELINDEP
000991: 12,2635           77616                           RVQ
000992:
000993: 12,2636           45345        MODPSDEL           DLOAD    DSU
000994: 12,2637           00017                                    MAX
000995: 12,2640           02766                                    INDEP
000996: 12,2641           52005                           DMP      GOTO
000997: 12,2642           11051                                    DP9/10
000998: 12,2643           24634                                    NEWDEL
000999:
001000: 12,2644           44753        CHECKCTR           CS       ONE
001001: 12,2645           50120                           INDEX    FIXLOC
001002: 12,2646           60026                           AD       ITERCTR
001003: 12,2647           50120                           INDEX    FIXLOC
001004: 12,2650           54026                           TS       ITERCTR
001005: 12,2651           54154                           TS       MPAC
001006: 12,2652           06061                           TC       DANZIG
001007:


001009: 12,2653           44545        NEWSTATE           DLOAD    SR4R
001010: 12,2654           00041                                    R1
001011: 12,2655           74225                           DSU      VXSC
001012: 12,2656           00035                                    XSQC(XI)
001013: 12,2657           02722                                    UR1
001014: 12,2660           65372                           VSL1     PDDL                                  #  0D=(R1-XSQC(XI))UR1 (+33 OR 31) PL AT 6
001015: 12,2661           00025                                    X
001016: 12,2662           60316                           DSQ      NORM
001017: 12,2663           00047                                    X1
001018: 12,2664           57275                           DMPR     DMPR
001019: 12,2665           00023                                    1/ROOTMU
001020: 12,2666           00025                                    X
001021: 12,2667           53605                           DMP      SRR*
001022: 12,2670           00033                                    S(XI)
001023: 12,2671           21572                                    0          -7,1
001024: 12,2672           77621                           BDSU
001025: 12,2673           00037                                    T
001026: 12,2674           74352                           SL1      VXSC
001027: 12,2675           02744                                    VVEC
001028: 12,2676           53372                           VSL1     VAD                                   #                                PL AT 0
001029: 12,2677           41512                           VSL4     PUSH
001030: 12,2700           77646                           ABVAL
001031: 12,2701           77701        LAMENTER           NORM
001032: 12,2702           00047                                    X1
001033: 12,2703           16720                           STODL    R2
001034: 12,2704           00031                                    XI
001035: 12,2705           45205                           DMP      DSU
001036: 12,2706           00033                                    S(XI)
001037: 12,2707           11033                                    D1/128
001038: 12,2710           76405                           DMP      SL1R
001039: 12,2711           00021                                    ROOTMU
001040: 12,2712           53605                           DMP      SLR*
001041: 12,2713           00025                                    X
001042: 12,2714           21176                                    0          -3,1
001043: 12,2715           74271                           DDV      VXSC
001044: 12,2716           02720                                    R2
001045: 12,2717           02722                                    UR1
001046: 12,2720           65372                           VSL1     PDDL                                  #  6D=V2VEC PART (+15 OR 13)     PL AT 12
001047: 12,2721           00035                                    XSQC(XI)
001048: 12,2722           56257                           SLR*     DDV
001049: 12,2723           21175                                    0          -4,1
001050: 12,2724           02720                                    R2
001051: 12,2725           77621                           BDSU
001052: 12,2726           11047                                    D1/256
001053: 12,2727           53361                           VXSC     VAD                                   #                                PL AT 6
001054: 12,2730           02744                                    VVEC
001055: 12,2731           43412                           VSL8     RVQ
001056:


001058: 04,2000                                           SETLOC   CONICS1
001059: 04,2000                                           BANK
001060:
001061: 04,3027                                           COUNT*   $$/CONIC
001062:                                                                                                  #  DO NOT DISTURB THE ORDER OF THESE CDS, OVERLAYS HAVE BEEN MADE.
001063: 04,3027           00000        BEE17              DEC      0          B-14                       #  KEEP WITH D1/8 2DEC 1.0B-17 (0000004000)
001064: 04,3030           04000 00000  D1/8               2DEC     1.0        B-3
001065: 04,3032           00200 00000  D1/128             2DEC     1.0        B-7
001066: 04,3034           00400 00000  D1/64              2DEC     1.0        B-6
001067: 04,3036           10000 00000  D1/4               2DEC     1.0        B-2
001068: 04,3040           02000 00000  D1/16              2DEC     1.0        B-4
001069: 04,3042           01000 00000  D1/32              2DEC     1.0        B-5
001070: 04,3044           00020 00000  D1/1024            2DEC     1.0        B-10
001071: 04,3046           00100 00000  D1/256             2DEC     1.0        B-8
001072: 04,3050           34631 23146  DP9/10             2DEC     .9
001073: 04,3052  12,2006               KEPZERO            EQUALS   LO6ZEROS
001074: 04,3052           77467 77777  -50SC              2DEC     -50.0      B-12
001075: 04,3054           03110 17665  2PISC              2DEC     6.28318530 B-6
001076: 04,3056  04,3041               BEE19              EQUALS   D1/32      -1                         #  2DEC 1.0 B-19 (00000 01000)
001077: 04,3056  04,3045               BEE22              EQUALS   D1/256     -1                         #  2DEC 1.0 B-22 (00000 00100)
001078: 04,3056           00000 00001  ONEBIT             2DEC     1.0        B-28
001079: 04,3060           37767 37737  COGUPLIM           2DEC     .999511597
001080: 04,3062           40010 40040  COGLOLIM           2DEC     -.999511597
001081:


001083: 12,2000                                           SETLOC   CONICS
001084: 12,2000                                           BANK
001085:
001086: 12,2732                                           COUNT*   $$/CONIC
001087: 12,2732           40220        TIMETHET           STQ      SETPD                                 #                                PL AT 0
001088: 12,2733           02710                                    RTNTT
001089: 12,2734           00001                                    0
001090: 12,2735           77600                           BOV
001091: 12,2736           24737                                    +1
001092: 12,2737           63375                           VLOAD    PDVL                                  #  SETUP FOR PARAM CALL          PL AT 6
001093: 12,2740           02655                                    RVEC
001094: 12,2741           02744                                    VVEC
001095: 12,2742           77624                           CALL
001096: 12,2743           11064                                    PARAM
001097: 12,2744           45000                           BOV      CALL                                  #                                PL AT 0
001098: 12,2745           24764                                    COGAOVFL
001099: 12,2746           24767                                    GETX
001100: 12,2747           43145        COMMNOUT           DLOAD    BON
001101: 12,2750           00031                                    XI
001102: 12,2751           04310                                    INFINFLG
001103: 12,2752           25742                                    ABTCONIC
001104: 12,2753           45014                           CLEAR    CALL
001105: 12,2754           04273                                    COGAFLAG
001106: 12,2755           24421                                    DELTIME
001107: 12,2756           45014                           BON      CALL
001108: 12,2757           03706                                    RVSW
001109: 12,2760           02710                                    RTNTT
001110: 12,2761           24653                                    NEWSTATE
001111: 12,2762           77650                           GOTO
001112: 12,2763           02710                                    RTNTT
001113:
001114: 12,2764           77614        COGAOVFL           SETGO
001115: 12,2765           04033                                    COGAFLAG
001116: 12,2766           25742                                    ABTCONIC
001117:
001118: 04,3064                                           BANK     4
001119: 04,2000                                           SETLOC   CONICS1
001120: 04,2000                                           BANK
001121: 04,3064                                           COUNT*   $$/CONIC
001122: 04,3064           43020        PARAM              STQ      CLEAR                                 #  MPAC=V1VEC, 0D=R1VEC          PL AT 6
001123: 04,3065           02753                                    RTNPRM
001124: 04,3066           03665                                    NORMSW
001125: 04,3067           77614                           CLEAR
001126: 04,3070           04273                                    COGAFLAG
001127: 04,3071           45131                           SSP      CALL
001128: 04,3072           02673                                    GEOMSGN
001129: 04,3073           27777                                    37777                                 #  GAMMA ALWAYS LESS THAN 180DEG
001130: 04,3074           11130                                    GEOM                                  #  MPAC=SNGA (+1), 0D=CSGA (+1)  PL AT 2
001131: 04,3075           14045                           STODL    36D                                   #  36D=SIN GAMMA (+1)            PL AT 0
001132: 04,3076           56261                           SR       DDV


001134: 04,3077           20606                                    5
001135: 04,3100           00045                                    36D
001136: 04,3101           32766                           STOVL*   COGA
001137: 04,3102           10005                                    MUTABLE,1
001138: 04,3103           14017                           STODL    1/MU
001139: 04,3104           02720                                    MAGVEC2
001140: 04,3105           60316                           DSQ      NORM
001141: 04,3106           00047                                    X1
001142: 04,3107           41275                           DMPR     DMP
001143: 04,3110           00017                                    1/MU
001144: 04,3111           00041                                    R1
001145: 04,3112           77657                           SRR*
001146: 04,3113           21576                                    0          -3,1
001147: 04,3114           44206                           PUSH     BDSU                                  #  0D=R1 V1SQ/MU (+6)            PL AT 2
001148: 04,3115           11043                                    D1/32
001149: 04,3116           16742                           STODL    R1A                                   #  R1A (+6)                      PL AT 0
001150:
001151: 04,3117           60205                           DMP      NORM
001152: 04,3120           00045                                    36D
001153: 04,3121           00047                                    X1
001154: 04,3122           53605                           DMP      SR*
001155: 04,3123           00045                                    36D
001156: 04,3124           20575                                    0          -4,1
001157: 04,3125           02740                           STORE    P                                     #  P (+4)
001158: 04,3126           77650                           GOTO
001159: 04,3127           02753                                    RTNPRM
001160:


001162: 04,3130           77656        GEOM               UNIT                                           #  MPAC=V2VEC, 0D=R1VEC          PL AT 6
001163: 04,3131           16712                           STODL    U2                                    #  U2 (+1)
001164: 04,3132           00045                                    36D
001165: 04,3133           26720                           STOVL    MAGVEC2                               #                                PL AT 0
001166: 04,3134           77656                           UNIT
001167: 04,3135           02722                           STORE    UR1                                   #  UR1 (+1)
001168: 04,3136           72441                           DOT      SL1
001169: 04,3137           02712                                    U2
001170: 04,3140           77725                           PDDL                                           #  OD=CSTH (+1)                  PL AT 2
001171: 04,3141           00045                                    36D
001172: 04,3142           24041                           STOVL    R1                                    #  R1 (+29 OR +27)
001173: 04,3143           02722                                    UR1
001174: 04,3144           76435                           VXV      VSL1
001175: 04,3145           02712                                    U2
001176: 04,3146           75214                           BON      SIGN
001177: 04,3147           03705                                    NORMSW
001178: 04,3150           11162                                    HAVENORM
001179: 04,3151           02673                                    GEOMSGN
001180: 04,3152           40056                           UNIT     BOV
001181: 04,3153           11160                                    COLINEAR
001182: 04,3154           16674        UNITNORM           STODL    UN                                    #  UN (+1)
001183: 04,3155           00045                                    36D
001184: 04,3156           43565                           SIGN     RVQ                                   #  MPAC=SNTH (+1), 34D=SNTH.SNTH (+2)
001185: 04,3157           02673                                    GEOMSGN
001186:
001187: 04,3160           52162        COLINEAR           VSR1     GOTO
001188: 04,3161           11154                                    UNITNORM
001189:
001190: 04,3162           75246        HAVENORM           ABVAL    SIGN
001191: 04,3163           02673                                    GEOMSGN
001192: 04,3164           77616                           RVQ                                            #  MPAC=SNTH (+1), 34D=SNTH.SNTH (+2)
001193:


001195: 12,2767                                           BANK     12
001196: 12,2000                                           SETLOC   CONICS
001197: 12,2000                                           BANK
001198:
001199: 12,2767                                           COUNT*   $$/CONIC
001200: 12,2767           66374        GETX               AXT,2    SSP                                   #  ASSUMES P (+4) IN MPAC
001201: 12,2770           00003                                    3
001202: 12,2771           00052                                    S2
001203: 12,2772           00001                                    1
001204: 12,2773           77614                           CLEAR
001205: 12,2774           04276                                    360SW
001206: 12,2775           65366                           SQRT     PDDL                                  #  0D=SQRT(P)                    PL AT 2
001207: 12,2776           02732                                    CSTH
001208: 12,2777           44342                           SR1      BDSU
001209: 12,3000           11037                                    D1/4
001210: 12,3001           54325                           PDDL     SRR                                   #                                PL AT 4D
001211: 12,3002           02730                                    SNTH
001212: 12,3003           21607                                    6
001213: 12,3004           77671                           DDV                                            #                                PL AT 2
001214: 12,3005           77600                           BOV
001215: 12,3006           25122                                    360CHECK
001216: 12,3007           41225                           DSU      DMP
001217: 12,3010           02766                                    COGA                                  #                                PL AT 0
001218: 12,3011           40132                           SL2R     BOV
001219: 12,3012           25122                                    360CHECK
001220: 12,3013           63406        WLOOP              PUSH     DSQ                                   #  0D=W (+5)                     PL AT 2
001221: 12,3014           65351                           TLOAD    PDDL                                  #  2D=WSQ (+10)                  PL AT 5
001222: 12,3015           00155                                    MPAC
001223: 12,3016           02742                                    R1A
001224: 12,3017           76202                           SR4      TAD                                   #                                PL AT 2
001225: 12,3020           75440                           BMN      SQRT
001226: 12,3021           25205                                    INFINITY
001227: 12,3022           43306                           ROUND    DAD                                   #                                PL AT 0D
001228: 12,3023           61000                           BOV      TIX,2
001229: 12,3024           25120                                    RESETX2
001230: 12,3025           25013                                    WLOOP
001231:
001232: 12,3026           40065                           BDDV     BOV
001233: 12,3027           11033                                    D1/128
001234: 12,3030           25205                                    INFINITY
001235: 12,3031           41440        POLYCOEF           BMN      PUSH                                  #  0D=1/W (+2) OR 16/W (+6)      PL AT 2
001236: 12,3032           25205                                    INFINITY
001237: 12,3033           77716                           DSQ
001238: 12,3034           41301                           NORM     DMP
001239: 12,3035           00047                                    X1
001240: 12,3036           02742                                    R1A
001241: 12,3037           77457                           SRR*     EXIT
001242: 12,3040           21567                                    0          -10D,1
001243: 12,3041           07222                           TC       POLY


001245: 12,3042           00005                           DEC      5          B-14
001246: 12,3043           20000 00000                     2DEC     .5
001247: 12,3045           72525 52471                     2DEC     -.166666770
001248: 12,3047           03146 15003                     2DEC     .100000392
001249: 12,3051           75556 45210                     2DEC     -.071401086
001250: 12,3053           01615 13553                     2DEC     .055503292
001251: 12,3055           76371 63777                     2DEC     -.047264098
001252: 12,3057           01232 27367                     2DEC     .040694204
001253:
001254: 12,3061           06037                           TC       INTPRET
001255: 12,3062           76405                           DMP      SL1R                                  #                                PL AT 0D
001256: 12,3063           43006                           PUSH     BON
001257: 12,3064           04316                                    360SW
001258: 12,3065           25172                                    TRUE360X
001259: 12,3066           60316        XCOMMON            DSQ      NORM
001260: 12,3067           00047                                    X1
001261: 12,3070           53605                           DMP      SRR*
001262: 12,3071           02742                                    R1A
001263: 12,3072           21565                                    0          -12D,1
001264: 12,3073           14031                           STODL    XI                                    #  XI (+6)
001265: 12,3074           00041                                    R1
001266: 12,3075           75542                           SR1      SQRT
001267: 12,3076           41306                           ROUND    DMP
001268: 12,3077           77632                           SL4R                                           #                                PL AT 0
001269: 12,3100           00025                           STORE    X                                     #  X (+17 OR +16)
001270:
001271: 12,3101           60316                           DSQ      NORM
001272: 12,3102           00047                                    X1
001273: 12,3103           41325                           PDDL     DMP                                   #  0D=XSQ (+34 OR +32 -N1)       PL AT 2
001274: 12,3104           02740                                    P
001275: 12,3105           00041                                    R1
001276: 12,3106           75452                           SL3      SQRT
001277: 12,3107           56405                           DMP      SL3R
001278: 12,3110           02766                                    COGA
001279: 12,3111           14043                           STODL    KEPC1
001280: 12,3112           02742                                    R1A
001281: 12,3113           43021                           BDSU     CLEAR
001282: 12,3114           11035                                    D1/64
001283: 12,3115           04270                                    INFINFLG
001284: 12,3116           00045                           STORE    KEPC2
001285: 12,3117           77616                           RVQ
001286:


001288: 12,3120           77774        RESETX2            AXT,2
001289: 12,3121           00003                                    3
001290:
001291: 12,3122           51001        360CHECK           SETPD    BPL
001292: 12,3123           00001                                    0D
001293: 12,3124           25127                                    INVRSEQN
001294: 12,3125           77614                           SET
001295: 12,3126           04076                                    360SW
001296:
001297: 12,3127           75545        INVRSEQN           DLOAD    SQRT
001298: 12,3130           02740                                    P
001299: 12,3131           41325                           PDDL     DMP                                   #  0D=SQRT(P) (+2)               PL AT 2
001300: 12,3132           02730                                    SNTH
001301: 12,3133           02766                                    COGA
001302: 12,3134           65352                           SL1      PDDL                                  #  2D=SNTH COGA (+5)             PL AT 4
001303: 12,3135           02732                                    CSTH
001304: 12,3136           43202                           SR4      DAD
001305: 12,3137           11043                                    D1/32
001306: 12,3140           41225                           DSU      DMP                                   #                                PL AT 2,0
001307: 12,3141           55301                           NORM     BDDV
001308: 12,3142           00047                                    X1
001309: 12,3143           02730                                    SNTH
001310: 12,3144           51457                           SLR*     ABS                                   #  NOTE: NEAR 360 CASE TREATED DIFFERENTLY
001311: 12,3145           21174                                    0          -5,1
001312: 12,3146           63406                           PUSH     DSQ                                   #  0D=1/W (-1)                   PL AT 2
001313: 12,3147           14043                           STODL    34D
001314: 12,3150           11041                                    D1/16
001315: 12,3151           63406        1/WLOOP            PUSH     DSQ                                   #  2D=G (+4)                     PL AT 4
001316: 12,3152           65234                           RTB      PDDL                                  #                                PL AT 7
001317: 12,3153           21633                                    TPMODE
001318: 12,3154           02742                                    R1A
001319: 12,3155           40405                           DMP      SR4
001320: 12,3156           00043                                    34D
001321: 12,3157           77771                           TAD                                            #                                PL AT 4
001322: 12,3160           75440                           BMN      SQRT
001323: 12,3161           25205                                    INFINITY
001324: 12,3162           77615                           DAD                                            #                                PL AT 2
001325: 12,3163           60304                           TIX,2    NORM
001326: 12,3164           25151                                    1/WLOOP
001327: 12,3165           00047                                    X1
001328: 12,3166           77665                           BDDV
001329: 12,3167           52057                           SLR*     GOTO                                  #                                PL AT 0
001330: 12,3170           21172                                    0          -7,1
001331: 12,3171           25031                                    POLYCOEF
001332:
001333: 12,3172           50145        TRUE360X           DLOAD    BMN
001334: 12,3173           02742                                    R1A


001336: 12,3174           25205                                    INFINITY
001337: 12,3175           60366                           SQRT     NORM
001338: 12,3176           00047                                    X1
001339: 12,3177           53665                           BDDV     SL*
001340: 12,3200           11055                                    2PISC
001341: 12,3201           20176                                    0          -3,1
001342: 12,3202           41425                           DSU      PUSH                                  #  0D=2PI/SQRT(R1A) -X           PL AT 0,2
001343: 12,3203           77650                           GOTO
001344: 12,3204           25066                                    XCOMMON
001345: 12,3205           40001        INFINITY           SETPD    BOV                                   #  NO SOLUTION EXISTS SINCE CLOSURE THROUGH
001346: 12,3206           00001                                    0                                     #  INFINITY IS REQUIRED
001347: 12,3207           25210                                    OVFLCLR
001348: 12,3210           43414        OVFLCLR            SET      RVQ
001349: 12,3211           04070                                    INFINFLG
001350:


001352: 12,3212           40220        LAMBERT            STQ      SETPD
001353: 12,3213           02710                                    RTNLAMB
001354: 12,3214           00001                                    0D
001355: 12,3215           77600                           BOV
001356: 12,3216           25217                                    +1
001357: 12,3217           76614                           CLEAR    VLOAD*
001358: 12,3220           02674                                    SOLNSW
001359: 12,3221           10005                                    MUTABLE,1
001360: 12,3222           14017                           STODL    1/MU
001361: 12,3223           02671                                    TDESIRED
001362: 12,3224           77675                           DMPR
001363: 12,3225           11042                                    BEE19
001364: 12,3226           02764                           STORE    EPSILONL
001365: 12,3227           77214                           SET      VLOAD
001366: 12,3230           00474                                    SLOPESW
001367: 12,3231           02655                                    R1VEC
001368: 12,3232           45115                           PDVL     CALL                                  #  0D=R1VEC (+29 OR +27)         PL AT 6
001369: 12,3233           02663                                    R2VEC                                 #  MPAC=R2VEC (+29 OR +27)
001370: 12,3234           11130                                    GEOM
001371: 12,3235           16730                           STODL    SNTH                                  #  0D=CSTH (+1)                  PL AT 2
001372: 12,3236           02720                                    MAGVEC2
001373: 12,3237           65301                           NORM     PDDL                                  #                                PL AT 4
001374: 12,3240           00047                                    X1
001375: 12,3241           00041                                    R1
001376: 12,3242           56342                           SR1      DDV                                   #                                PL AT 2
001377: 12,3243           65257                           SL*      PDDL                                  #  DXCH WITH 0D, 0D=R1/R2 (+7)   PL AT 0,2
001378: 12,3244           20173                                    0          -6,1
001379: 12,3245           77626                           STADR
001380: 12,3246           75045                           STORE    CSTH                                  #  CSTH (+1)
001381: 12,3247           44342                           SR1      BDSU
001382: 12,3250           11037                                    D1/4
001383: 12,3251           02734                           STORE    1-CSTH                                #  1-CSTH (+2)
001384:
001385: 12,3252           53106                           ROUND    BZE
001386: 12,3253           25463                                    360LAMB
001387: 12,3254           65301                           NORM     PDDL                                  #                                PL AT 4
001388: 12,3255           00047                                    X1
001389: 12,3256           00001                                    0D
001390: 12,3257           56342                           SR1      DDV                                   #                                PL AT 2
001391: 12,3260           75457                           SL*      SQRT
001392: 12,3261           20176                                    0          -3,1
001393: 12,3262           54325                           PDDL     SR                                    #  2D=SQRT(2R1/R2(1-CSTH)) (+5)  PL AT 4
001394: 12,3263           02730                                    SNTH
001395: 12,3264           20607                                    6
001396: 12,3265           43271                           DDV      DAD                                   #                                PL AT 2
001397: 12,3266           02734                                    1-CSTH
001398: 12,3267           77626                           STADR
001399: 12,3270           77760                           STORE    COGAMAX
001400: 12,3271           50000                           BOV      BMN                                   #  IF OVFL, COGAMAX=COGUPLIM
001401: 12,3272           25277                                    UPLIM                                 #  IF NEG, USE EVEN IF LT COGLOLIM, SINCE


001403: 12,3273           25302                                    MAXCOGA                               #        THIS WOULD BE RESET IN LAMBLOOP
001404: 12,3274           50025                           DSU      BMN                                   #  IF COGAMAX GT COGUPLIM, COGAMAX=COGUPLIM
001405: 12,3275           11061                                    COGUPLIM
001406: 12,3276           25302                                    MAXCOGA                               #  OTHERWISE OK, SO GO TO MAXCOGA
001407: 12,3277           77745        UPLIM              DLOAD
001408: 12,3300           11061                                    COGUPLIM                              #  COGUPLIM=.999511597 = MAX VALUE OF COGA
001409: 12,3301           00017                           STORE    COGAMAX                               #        NOT CAUSING OVFL IN R1A CALCULATION
001410: 12,3302           77745        MAXCOGA            DLOAD
001411: 12,3303           02732                                    CSTH
001412: 12,3304           45261                           SR       DSU                                   #                                PL AT 0
001413: 12,3305           20607                                    6
001414: 12,3306           77626                           STADR
001415: 12,3307           61041                           STODL    CSTH-RHO
001416: 12,3310           02673                                    GEOMSGN
001417: 12,3311           71240                           BMN      DLOAD
001418: 12,3312           25503                                    LOLIM
001419: 12,3313           02736                                    CSTH-RHO
001420: 12,3314           56352                           SL1      DDV
001421: 12,3315           02730                                    SNTH
001422: 12,3316           77600                           BOV
001423: 12,3317           25503                                    LOLIM
001424: 12,3320           00011        MINCOGA            STORE    COGAMIN                               #  COGAMIN (+5)
001425: 12,3321           66214                           BON      SSP
001426: 12,3322           00715                                    GUESSW
001427: 12,3323           25467                                    NOGUESS
001428: 12,3324           00051                                    TWEEKIT
001429: 12,3325           00001                                    00001
001430: 12,3326           77745                           DLOAD
001431: 12,3327           02766                                    COGA
001432:
001433: 12,3330           77605        LAMBLOOP           DMP
001434: 12,3331           02730                                    SNTH
001435: 12,3332           45342                           SR1      DSU
001436: 12,3333           02736                                    CSTH-RHO
001437: 12,3334           65301                           NORM     PDDL                                  #  0D=SNTH COGA-(CSTH-RHO) (+7+C(X1)) PL=2
001438: 12,3335           00047                                    X1
001439: 12,3336           02734                                    1-CSTH
001440: 12,3337           56257                           SL*      DDV                                   #  1-CSTH (+2)                   PL AT 0
001441: 12,3340           20170                                    0          -9D,1
001442: 12,3341           53040                           BMN      BZE
001443: 12,3342           25417                                    NEGP
001444: 12,3343           25417                                    NEGP
001445: 12,3344           16740                           STODL    P                                     #  P=(1-CSTH)/(SNTH COGA-(CSTH-RHO)) (+4)
001446: 12,3345           02766                                    COGA
001447: 12,3346           43316                           DSQ      DAD
001448: 12,3347           11045                                    D1/1024
001449: 12,3350           41301                           NORM     DMP
001450: 12,3351           00047                                    X1
001451: 12,3352           02740                                    P


001453: 12,3353           44257                           SR*      BDSU
001454: 12,3354           20571                                    0          -8D,1
001455: 12,3355           11043                                    D1/32
001456: 12,3356           16742                           STODL    R1A                                   #  R1A=2-P(1+COGA COGA) (+6)
001457: 12,3357           02740                                    P
001458: 12,3360           45000                           BOV      CALL
001459: 12,3361           25422                                    HIENERGY
001460: 12,3362           24767                                    GETX
001461: 12,3363           77745                           DLOAD
001462: 12,3364           00037                                    T
001463: 12,3365           16762                           STODL    TPREV
001464: 12,3366           00031                                    XI
001465: 12,3367           45014                           BON      CALL
001466: 12,3370           04310                                    INFINFLG
001467: 12,3371           25417                                    NEGP                                  #  HAVE EXCEEDED THEORETICAL BOUNDS
001468: 12,3372           24421                                    DELTIME
001469: 12,3373           44200                           BOV      BDSU
001470: 12,3374           25437                                    BIGTIME
001471: 12,3375           02671                                    TDESIRED
001472: 12,3376           02760                           STORE    TERRLAMB
001473: 12,3377           44246                           ABS      BDSU
001474: 12,3400           02764                                    EPSILONL
001475: 12,3401           47044                           BPL      RTB
001476: 12,3402           25506                                    INITV
001477: 12,3403           24644                                    CHECKCTR
001478: 12,3404           45030                           BHIZ     CALL
001479: 12,3405           25450                                    SUFFCHEK
001480: 12,3406           24536                                    ITERATOR
001481: 12,3407           53145                           DLOAD    BZE
001482: 12,3410           00155                                    MPAC
001483: 12,3411           25450                                    SUFFCHEK
001484: 12,3412           77615                           DAD
001485: 12,3413           02766                                    COGA
001486: 12,3414           02766                           STORE    COGA
001487: 12,3415           77650                           GOTO
001488: 12,3416           25330                                    LAMBLOOP
001489:
001490: 12,3417           51145        NEGP               DLOAD    BPL                                   #  IMPOSSIBLE TRAJECTORY DUE TO INACCURATE
001491: 12,3420           00015                                    DCOGA                                 #  BOUND CALCULATION. TRY NEW COGA.
001492: 12,3421           25442                                    LOENERGY
001493:
001494: 12,3422           71201        HIENERGY           SETPD    DLOAD                                 #  HIGH ENERGY TRAJECTORY RESULTED
001495: 12,3423           00001                                    0
001496: 12,3424           02766                                    COGA                                  #  IN OVFL OF P OR R1A, OR XI EXCEEDING 50.
001497: 12,3425           00011                           STORE    COGAMIN                               #  THIS IS THE NEW BOUND.
001498: 12,3426           70545        COMMONLM           DLOAD    SR1
001499: 12,3427           00015                                    DCOGA


001501: 12,3430           00015                           STORE    DCOGA                                 #  USE DCOGA/2 AS DECREMENT
001502: 12,3431           44254                           BZE      BDSU
001503: 12,3432           25450                                    SUFFCHEK
001504: 12,3433           02766                                    COGA
001505: 12,3434           02766                           STORE    COGA
001506: 12,3435           77650                           GOTO                                           #  RESTART THIS LOOP
001507: 12,3436           25330                                    LAMBLOOP
001508:
001509: 12,3437           77745        BIGTIME            DLOAD
001510: 12,3440           02762                                    TPREV
001511: 12,3441           00037                           STORE    T
001512:
001513: 12,3442           71201        LOENERGY           SETPD    DLOAD                                 #  LOW ENERGY TRAJECTORY RESULTED
001514: 12,3443           00001                                    0
001515: 12,3444           02766                                    COGA                                  #  IN OVERFLOW OF TIME.
001516: 12,3445           00017                           STORE    COGAMAX                               #  THIS IS THE NEW BOUND.
001517: 12,3446           77650                           GOTO
001518: 12,3447           25426                                    COMMONLM
001519:
001520: 12,3450           51545        SUFFCHEK           DLOAD    ABS
001521: 12,3451           02760                                    TERRLAMB
001522: 12,3452           41325                           PDDL     DMP                                   #                                PL AT 2D
001523: 12,3453           02671                                    TDESIRED
001524: 12,3454           11030                                    BEE17
001525: 12,3455           45215                           DAD      DSU                                   #                                PL AT 0D
001526: 12,3456           11057                                    ONEBIT
001527: 12,3457           43044                           BPL      SETGO
001528: 12,3460           25506                                    INITV
001529: 12,3461           02434                                    SOLNSW
001530: 12,3462           25506                                    INITV
001531: 12,3463           43001        360LAMB            SETPD    SETGO                                 #  LAMBERT CANNOT HANDLE CSTH=1
001532: 12,3464           00001                                    0
001533: 12,3465           02434                                    SOLNSW
001534: 12,3466           02710                                    RTNLAMB
001535:
001536: 12,3467           71331        NOGUESS            SSP      DLOAD
001537: 12,3470           00051                                    TWEEKIT
001538: 12,3471           10000                                    20000
001539: 12,3472           00011                                    COGAMIN
001540: 12,3473           65342                           SR1      PDDL                                  #                                PL AT 2
001541: 12,3474           00017                                    COGAMAX
001542: 12,3475           43342                           SR1      DAD
001543: 12,3476           77626                           STADR                                          #                                PL AT 0
001544: 12,3477           75011                           STORE    COGA
001545: 12,3500           00015                           STORE    DCOGA
001546: 12,3501           77650                           GOTO


001548: 12,3502           25330                                    LAMBLOOP
001549:
001550: 12,3503           52145        LOLIM              DLOAD    GOTO
001551: 12,3504           11063                                    COGLOLIM                              #  COGLOLIM=-.999511597
001552: 12,3505           25320                                    MINCOGA
001553:
001554: 12,3506           60345        INITV              DLOAD    NORM
001555: 12,3507           00041                                    R1
001556: 12,3510           00047                                    X1
001557: 12,3511           70525                           PDDL     SR1                                   #                                PL AT 2
001558: 12,3512           02740                                    P
001559: 12,3513           77671                           DDV                                            #                                PL AT 0
001560: 12,3514           75457                           SL*      SQRT
001561: 12,3515           20175                                    0          -4,1
001562: 12,3516           72405                           DMP      SL1
001563: 12,3517           00021                                    ROOTMU
001564: 12,3520           41206                           PUSH     DMP                                   #  0D=VTAN (+7)                  PL AT 2
001565: 12,3521           02766                                    COGA
001566: 12,3522           74261                           SL       VXSC
001567: 12,3523           20206                                    5
001568: 12,3524           02722                                    UR1
001569: 12,3525           77725                           PDDL                                           #  XCH WITH 0D                   PL AT 0,6
001570: 12,3526           76561                           VXSC     VSL1
001571: 12,3527           02674                                    UN
001572: 12,3530           53235                           VXV      VAD                                   #                                PL AT 0
001573: 12,3531           02722                                    UR1
001574: 12,3532           77772                           VSL1
001575: 12,3533           02744                           STORE    VVEC
001576: 12,3534           53135                           SLOAD    BZE
001577: 12,3535           02702                                    VTARGTAG
001578: 12,3536           25541                                    TARGETV
001579: 12,3537           77650                           GOTO
001580: 12,3540           02710                                    RTNLAMB
001581:
001582: 12,3541           45145        TARGETV            DLOAD    CALL
001583: 12,3542           02720                                    MAGVEC2
001584: 12,3543           24701                                    LAMENTER
001585: 12,3544           02703                           STORE    VTARGET
001586: 12,3545           77650                           GOTO
001587: 12,3546           02710                                    RTNLAMB
001588:


001590: 12,3547           40220        TIMERAD            STQ      SETPD                                 #                                PL AT 0
001591: 12,3550           02710                                    RTNTR
001592: 12,3551           00001                                    0
001593: 12,3552           77600                           BOV
001594: 12,3553           25554                                    +1
001595: 12,3554           63375                           VLOAD    PDVL                                  #                                PL AT 6
001596: 12,3555           02655                                    RVEC
001597: 12,3556           02744                                    VVEC
001598: 12,3557           77624                           CALL
001599: 12,3560           11064                                    PARAM
001600: 12,3561           71200                           BOV      DLOAD                                 #                                PL AT 0
001601: 12,3562           24764                                    COGAOVFL
001602: 12,3563           11043                                    D1/32
001603: 12,3564           41225                           DSU      DMP
001604: 12,3565           02742                                    R1A
001605: 12,3566           02740                                    P
001606: 12,3567           41366                           SQRT     DMP
001607: 12,3570           02766                                    COGA
001608: 12,3571           74212                           SL4      VXSC
001609: 12,3572           02712                                    U2
001610: 12,3573           45325                           PDDL     DSU                                   #                                PL AT 6
001611: 12,3574           11035                                    D1/64
001612: 12,3575           02742                                    R1A
001613: 12,3576           52361                           VXSC     VSU                                   #                                PL AT 0
001614: 12,3577           02722                                    UR1
001615: 12,3600           53512                           VSL4     UNIT
001616: 12,3601           77600                           BOV
001617: 12,3602           25660                                    CIRCULAR
001618: 12,3603           60325                           PDDL     NORM                                  #  0D=UNIT(ECC) (+3)             PL AT 6
001619: 12,3604           02756                                    RDESIRED                              #  36D=ECC (+3)
001620: 12,3605           00047                                    X1
001621: 12,3606           41325                           PDDL     DMP                                   #                                PL AT 8
001622: 12,3607           00041                                    R1
001623: 12,3610           02740                                    P
001624: 12,3611           56257                           SL*      DDV                                   #                                PL AT 6
001625: 12,3612           20201                                    0,1
001626: 12,3613           56225                           DSU      DDV
001627: 12,3614           11041                                    D1/16
001628: 12,3615           00045                                    36D                                   #  36D=ECC (+3)
001629: 12,3616           00031                           STORE    COSF
001630: 12,3617           63400                           BOV      DSQ
001631: 12,3620           25664                                    BADR2
001632: 12,3621           50021                           BDSU     BMN
001633: 12,3622           11037                                    D1/4
001634: 12,3623           25664                                    BADR2
001635: 12,3624           75366                           SQRT     SIGN
001636: 12,3625           02755                                    SGNRDOT
001637: 12,3626           77614                           CLEAR
001638: 12,3627           04272                                    APSESW


001640: 12,3630           76561        TERMNVEC           VXSC     VSL1
001641: 12,3631           02674                                    UN
001642: 12,3632           63235                           VXV      PDVL                                  #  VXCH WITH 0D                  PL AT 0,6
001643: 12,3633           00001                                    0D
001644: 12,3634           53361                           VXSC     VAD                                   #                                PL AT 0
001645: 12,3635           00031                                    COSF
001646: 12,3636           41572                           VSL1     PUSH                                  #  0D=U2                         PL AT 6
001647:
001648: 12,3637           56241                           DOT      DDV                                   #  LIMITS RESULT TO POSMAX OR NEGMAX
001649: 12,3640           02722                                    UR1
001650: 12,3641           25756                                    DP1/4
001651: 12,3642           40142                           SR1      BOV                                   #  SCALE BACK DOWN TO NORMAL
001652: 12,3643           25644                                    +1                                    #  CLEAR OVFIND IF SET
001653: 12,3644           26732                           STOVL    CSTH                                  #  CSTH (+1)
001654: 12,3645           02722                                    UR1
001655: 12,3646           76435                           VXV      VSL1
001656: 12,3647           72441                           DOT      SL1
001657: 12,3650           02674                                    UN
001658: 12,3651           16730                           STODL    SNTH                                  #  SNTH (+1)
001659: 12,3652           02740                                    P
001660: 12,3653           77624                           CALL
001661: 12,3654           24767                                    GETX
001662: 12,3655           77614                           CLRGO
001663: 12,3656           02634                                    SOLNSW
001664: 12,3657           24747                                    COMMNOUT
001665:
001666: 12,3660           43001        CIRCULAR           SETPD    SETGO
001667: 12,3661           00001                                    0
001668: 12,3662           02434                                    SOLNSW
001669: 12,3663           25742                                    ABTCONIC
001670:
001671: 12,3664           75345        BADR2              DLOAD    SIGN
001672: 12,3665           24005                                    LODPHALF
001673: 12,3666           00031                                    COSF
001674: 12,3667           14031                           STODL    COSF
001675: 12,3670           24007                                    KEPZERO
001676: 12,3671           77614                           SETGO
001677: 12,3672           04032                                    APSESW
001678: 12,3673           25630                                    TERMNVEC
001679:


001681: 12,3674           40220        APSIDES            STQ      SETPD                                 #                                PL AT 0
001682: 12,3675           02710                                    RTNAPSE
001683: 12,3676           00001                                    0D
001684: 12,3677           77600                           BOV
001685: 12,3700           25701                                    +1
001686: 12,3701           63375                           VLOAD    PDVL                                  #                                PL AT 6
001687: 12,3702           02655                                    RVEC
001688: 12,3703           02744                                    VVEC
001689: 12,3704           77624                           CALL
001690: 12,3705           11064                                    PARAM
001691: 12,3706           77600                           BOV                                            #                                PL AT 0
001692: 12,3707           25710                                    GETECC
001693: 12,3710           42405        GETECC             DMP      SL4
001694: 12,3711           02742                                    R1A
001695: 12,3712           75421                           BDSU     SQRT
001696: 12,3713           11035                                    D1/64
001697: 12,3714           02752                           STORE    ECC
001698: 12,3715           65215                           DAD      PDDL                                  #                                PL AT 2
001699: 12,3716           11031                                    D1/8
001700: 12,3717           00041                                    R1
001701: 12,3720           72405                           DMP      SL1
001702: 12,3721           02740                                    P
001703: 12,3722           77671                           DDV                                            #                                PL AT 0
001704: 12,3723           60325                           PDDL     NORM                                  #  0D=RP (+29 OR +27)            PL AT 2
001705: 12,3724           02742                                    R1A
001706: 12,3725           00047                                    X1
001707: 12,3726           53725                           PDDL     SL*                                   #                                PL AT 4
001708: 12,3727           00041                                    R1
001709: 12,3730           20174                                    0          -5,1
001710: 12,3731           45271                           DDV      DSU                                   #                                PL AT 2,0
001711: 12,3732           50000                           BOV      BMN
001712: 12,3733           25737                                    INFINAPO
001713: 12,3734           25737                                    INFINAPO
001714: 12,3735           77650                           GOTO
001715: 12,3736           02710                                    RTNAPSE
001716: 12,3737           52145        INFINAPO           DLOAD    GOTO                                  #  RETURNS WITH APOAPSIS IN MPAC, PERIAPSIS
001717: 12,3740           24020                                    LDPOSMAX
001718: 12,3741           02710                                    RTNAPSE                               #  THAT PL IS AT 0.
001719:


001721: 12,3742           77776        ABTCONIC           EXIT
001722: 12,3743           05652                           TC       POODOO
001723: 12,3744           00607                           OCT      00607
001724:


001726: 12,3745  12,2017               LDPOSMAX           EQUALS   LODPMAX                               #  DPPOSMAX IN LOW MEMORY.
001727:
001728:                                                                                                  #  ERASABLE ASSIGNMENTS
001729:
001730:                                                                                                  #  KEPLER SUBROUTINE
001731:
001732:                                                                                                  #        INPUT -
001733:                                                                                                  #  RRECT         ERASE   +5
001734:                                                                                                  #  VRECT         ERASE   +5
001735:                                                                                                  #  TAU.          ERASE   +1


001737:                                                                                                  #  XKEP          ERASE   +1
001738:                                                                                                  #  TC            ERASE   +1
001739:                                                                                                  #  XPREV         ERASE   +1
001740: 12,3745                        1/MU               EQUALS   14D
001741: 12,3745                        ROOTMU             EQUALS   16D
001742: 12,3745                        1/ROOTMU           EQUALS   18D
001743:
001744:                                                                                                  #        OUTPUT -
001745:                                                                                                  #  RCV           ERASE   +5
001746:                                                                                                  #  VCV           ERASE   +5


001748:                                                                                                  #  RC            ERASE   +1
001749:                                                                                                  #  XPREV         ERASE   +1
001750:
001751:                                                                                                  #        DEBRIS -
001752: 12,3745                        ALPHA              EQUALS   8D
001753: 12,3745                        XMAX               EQUALS   10D
001754: 12,3745                        XMIN               EQUALS   12D
001755: 12,3745                        X                  EQUALS   20D
001756: 12,3745                        XI                 EQUALS   24D
001757: 12,3745                        S(XI)              EQUALS   26D
001758: 12,3745                        XSQC(XI)           EQUALS   28D
001759: 12,3745                        T                  EQUALS   30D
001760: 12,3745                        R1                 EQUALS   32D
001761: 12,3745                        KEPC1              EQUALS   34D
001762: 12,3745                        KEPC2              EQUALS   36D
001763:                                                                                                  #  DELX          ERASE   +1
001764:                                                                                                  #  DELT          ERASE   +1
001765:                                                                                                  #  URRECT        ERASE   +5
001766:                                                                                                  #  RCNORM        ERASE   +1
001767:                                                                                                  #  XPREV         EQUALS  XKEP
001768:
001769:
001770:                                                                                                  #  LAMBERT SUBROUTINE
001771:
001772:                                                                                                  #        INPUT -
001773:                                                                                                  #  R1VEC         ERASE   +5
001774:                                                                                                  #  R2VEC         ERASE   +5
001775:                                                                                                  #  TDESIRED      ERASE   +1
001776:                                                                                                  #  GEOMSGN       ERASE   +0
001777:                                                                                                  #  GUESSW                        0 IF COGA GUESS AVAILABLE, 1 IF NOT


001779:                                                                                                  #  COGA          ERASE   +1      INPUT ONLY IF GUESSW IS ZERO.
001780:                                                                                                  #  NORMSW                        0 IF UN TO BE COMPUTED, 1 IF UN INPUT
001781:                                                                                                  #  UN            ERASE   +5      ONLY USED IF NORMSW IS 1
001782:                                                                                                  #  VTARGTAG      ERASE   +0
001783:                                                                                                  #  TWEEKIT       EQUALS  40D     ONLY USED IF GUESSW IS 0
001784:
001785:                                                                                                  #        OUTPUT -
001786:                                                                                                  #  VTARGET       ERASE   +5      AVAILABLE ONLY IF VTARGTAG IS ZERO.
001787:                                                                                                  #  V1VEC         EQUALS  MPAC
001788:
001789:                                                                                                  #        DEBRIS -
001790:                                                                                                  #  RTNLAMB       ERASE   +0
001791:                                                                                                  #  U2            ERASE   +5
001792:                                                                                                  #  MAGVEC2       ERASE   +1
001793:                                                                                                  #  UR1           ERASE   +5


001795:                                                                                                  #  R1            EQUALS  31D
001796:                                                                                                  #  UN            ERASE   +5
001797:                                                                                                  #  SNTH          ERASE   +1
001798:                                                                                                  #  CSTH          ERASE   +1
001799:                                                                                                  #  1-CSTH        ERASE   +1
001800:                                                                                                  #  CSTH-RHO      ERASE   +1
001801: 12,3745                        COGAMAX            EQUALS   14D                                   #  CLOBBERS 1/MU
001802: 12,3745                        COGAMIN            EQUALS   8D
001803: 12,3745                        DCOGA              EQUALS   12D
001804:                                                                                                  #  TWEEKIT       EQUALS  40D
001805:                                                                                                  #  P             ERASE   +1
001806:                                                                                                  #  COGA          ERASE   +1
001807:                                                                                                  #  R1A           ERASE   +1
001808:                                                                                                  #  X             EQUALS  20D
001809:                                                                                                  #  XSQ           EQUALS  22D
001810:                                                                                                  #  XI            EQUALS  24D
001811:                                                                                                  #  S(XI)         EQUALS  26D
001812:                                                                                                  #  XSQC(XI)      EQUALS  28D
001813:                                                                                                  #  T             EQUALS  30D
001814:                                                                                                  #  KEPC1         EQUALS  34D
001815:                                                                                                  #  KEPC2         EQUALS  36D
001816:                                                                                                  #  SLOPESW
001817:                                                                                                  #  SOLNSW
001818:
001819:                                                                                                  #        OTHERS -
001820:                                                                                                  #  RVEC          EQUALS  R1VEC
001821:                                                                                                  #  VVEC          ERASE   +5
001822:                                                                                                  #  COGAFLAG
001823:                                                                                                  #  RVSW
001824:                                                                                                  #  INFINFLG
001825:                                                                                                  #  APSESW
001826:                                                                                                  #  360SW
001827:                                                                                                  #  RTNTT         EQUALS  RTNLAMB
001828:                                                                                                  #  ECC           ERASE   +1
001829:                                                                                                  #  RTNTR         EQUALS  RTNLAMB


001831:                                                                                                  #  RTNAPSE       EQUALS  RTNLAMB
001832:                                                                                                  #  R2            EQUALS  MAGVEC2
001833: 12,3745                        COSF               EQUALS   24D
001834:                                                                                                  #  RTNPRM        ERASE   +0
001835:                                                                                                  #  SGNRDOT       ERASE   +0
001836:                                                                                                  #  RDESIRED      ERASE   +1
001837:
001838:
001839:                                                                                                  #  ITERATOR SUBROUTINE
001840:                                                                                                  #  ORDERSW
001841: 12,3745                        MAX                EQUALS   14D                                   #  CLOBBERS 1/MU
001842: 12,3745                        MIN                EQUALS   8D


001844:                                                                                                  #  INDEP         ERASE   +1
001845: 12,3745                        DELINDEP           EQUALS   12D
001846: 12,3745                        ITERCTR            EQUALS   22D
001847: 12,3745                        DEP                EQUALS   30D


001849:                                                                                                  #  DELDEP        ERASE   +1


001851:                                                                                                  #  DEPREV        ERASE   +1
001852: 12,3745                        TWEEKIT            EQUALS   40D
001853:
001854:
001855:                                                                                                  #  MORE KEPLER
001856:                                                                                                  #  EPSILONT      ERASE   +1
001857:
001858:
001859:                                                                                                  #  MORE LAMBERT
001860:                                                                                                  #  TERRLAMB      EQUALS  DELDEP
001861:                                                                                                  #  TPREV         EQUALS  DEPREV
001862:
001863:                                                                                                  #  EPSILONL      EQUALS  EPSILONT +2     DOUBLE PRECISION WORD

End of include-file CONIC_SUBROUTINES.agc.  Parent file is MAIN.agc


