
Source Code


000002:                                                                                                  ## Copyright:   Public domain.
000003:                                                                                                  ## Filename:    DAP_INTERFACE_SUBROUTINES.agc
000004:                                                                                                  ## Purpose:     A section of Luminary revision 97.
000005:                                                                                                  ##              It is part of the reconstructed source code for the
000006:                                                                                                  ##              original release of the flight software for the Lunar
000007:                                                                                                  ##              Module's (LM) Apollo Guidance Computer (AGC) for Apollo 11.
000008:                                                                                                  ##              The code has been recreated from a copy of Luminary 99
000009:                                                                                                  ##              revision 001, using asterisks indicating changed lines in
000010:                                                                                                  ##              the listing and Luminary Memos #83 and #85, which list
000011:                                                                                                  ##              changes between Luminary 97 and 98, and 98 and 99. The
000012:                                                                                                  ##              code has been adapted such that the resulting bugger words
000013:                                                                                                  ##              exactly match those specified for Luminary 97 in NASA drawing
000014:                                                                                                  ##              2021152D, which gives relatively high confidence that the
000015:                                                                                                  ##              reconstruction is correct.
000016:                                                                                                  ## Reference:   pp. 1406-1409
000017:                                                                                                  ## Assembler:   yaYUL
000018:                                                                                                  ## Contact:     Ron Burkey <info@sandroid.org>.
000019:                                                                                                  ## Website:     www.ibiblio.org/apollo/index.html
000020:                                                                                                  ## Mod history: 2019-07-28 MAS  Created from Luminary 99.
000021:


000023: 20,2123                                           BANK     20
000024: 20,2000                                           SETLOC   DAPS3
000025: 20,2000                                           BANK
000026:
000027: 20,2123  E6,1635                                  EBANK=   CDUXD
000028: 20,2123                                           COUNT*   $$/DAPIF
000029:
000030:                                                                                                  #  MOD 0         DATE    11/15/66        BY GEORGE W. CHERRY
000031:                                                                                                  #  MOD 1                  1/23/67        MODIFICATION BY PETER ADLER
000032:
000033:                                                                                                  #  FUNCTIONAL DESCRIPTION
000034:                                                                                                  #        HEREIN ARE A COLLECTION OF SUBROUTINES WHICH ALLOW MISSION CONTROL PROGRAMS TO CONTROL THE MODE
000035:                                                                                                  #        AND INTERFACE WITH THE DAP.
000036:
000037:                                                                                                  #  CALLING SEQUENCES
000038:                                                                                                  #        IN INTERRUPT OR WITH INTERRUPT INHIBITED
000039:                                                                                                  #                TC      IBNKCALL
000040:                                                                                                  #                FCADR   ROUTINE
000041:                                                                                                  #        IN A JOB WITHOUT INTERRUPT INHIBITED
000042:                                                                                                  #                INHINT
000043:                                                                                                  #                TC      IBNKCALL
000044:                                                                                                  #                FCADR   ROUTINE
000045:                                                                                                  #                RELINT
000046:
000047:                                                                                                  #  OUTPUT
000048:                                                                                                  #        SEE INDIVIDUAL ROUTINES BELOW
000049:
000050:                                                                                                  #  DEBRIS
000051:                                                                                                  #        A, L, AND SOMETIMES MDUETEMP                    ODE     NOT IN PULSES MODE
000052:


000054:                                                                                                  #  SUBROUTINE NAMES:
000055:                                                                                                  #        SETMAXDB, SETMINDB, RESTORDB, PFLITEDB
000056:                                                                                                  #  MODIFIED:     30 JANUARY 1968 BY P S WEISSMAN TO CREATE RESTORDB.
000057:                                                                                                  #  MODIFIED:     1 MARCH 1968 BY P S WEISSMAN TO SAVE EBANK AND CREATE PFLITEDB
000058:
000059:                                                                                                  #  FUNCTIONAL DESCRIPTION:
000060:                                                                                                  #        SETMAXDB - SET DEADBAND TO 5.0 DEGREES
000061:                                                                                                  #        SETMINDB - SET DEADBAND TO 0.3 DEGREE
000062:                                                                                                  #        RESTORDB - SET DEADBAND TO MAX OR MIN ACCORDING TO SETTING OF DBSELECT BIT OF DAPBOOLS
000063:                                                                                                  #        PFLITEDB - SET DEADBAND TO 1.0 DEGREE AND ZERO THE COMMANDED ATTITUDE CHANGE AND COMMANDED RATE
000064:
000065:                                                                                                  #        ALL ENTRIES SET UP A NOVAC JOB TO DO 1/ACCS SO THAT THE TJETLAW SWITCH CURVES ARE POSITIONED TO
000066:                                                                                                  #        REFLECT THE NEW DEADBAND.  IT SHOULD BE NOTED THAT THE DEADBAND REFERS TO THE ATTITUDE IN THE P-, U-, AND V-AXES.
000067:
000068:                                                                                                  #  SUBROUTINE CALLED:    NOVAC
000069:
000070:                                                                                                  #  CALLING SEQUENCE:     SAME AS ABOVE
000071:                                                                                                  #                        OR      TC RESTORDB +1    FROM ALLCOAST
000072:
000073:                                                                                                  #  DEBRIS:               A, L, Q, RUPTREG1, (ITEMPS IN NOVAC)
000074:
000075: 20,2123           30111        RESTORDB           CAE      DAPBOOLS                              #  DETERMINE CREW-SELECTED DEADBAND.
000076: 20,2124           74750                           MASK     DBSELECT
000077: 20,2125           00006                           EXTEND
000078: 20,2126           12140                           BZF      SETMINDB
000079:
000080: 20,2127           32151        SETMAXDB           CAF      WIDEDB                                #  SET 5 DEGREE DEADBAND.
000081: 20,2130           55346                 +1        TS       DB
000082:
000083: 20,2131           00006                           EXTEND                                         #  SET UP JOB TO RE-POSITION SWITCH CURVES.
000084: 20,2132           22070                           QXCH     RUPTREG1
000085: 20,2133           37715        CALLACCS           CAF      PRIO27
000086: 20,2134           05072                           TC       NOVAC
000087: 20,2135  E6,1537                                  EBANK=   AOSQ
000088: 20,2135           02454 40106                     2CADR    1/ACCJOB
000089:
000090: 20,2137           00070                           TC       RUPTREG1                              #  RETURN TO CALLER.
000091:
000092: 20,2140           32150        SETMINDB           CAF      NARROWDB                              #  SET 0.3 DEGREE DEADBAND.
000093: 20,2141           12130                           TCF      SETMAXDB   +1
000094:
000095: 20,2142           00006        PFLITEDB           EXTEND                                         #  THE RETURN FROM CALLACCS IS TO RUPTREG1.
000096: 20,2143           22070                           QXCH     RUPTREG1
000097: 20,2144           02153                           TC       ZATTEROR                              #  ZERO THE ERRORS AND COMMANDED RATES.
000098: 20,2145           32152                           CAF      POWERDB                               #  SET DB TO 1.0 DEG.
000099: 20,2146           55346                           TS       DB
000100: 20,2147           12133                           TCF      CALLACCS                              #  SET UP 1/ACCS AND RETURN TO CALLER.
000101: 20,2150           00155        NARROWDB           OCTAL    00155                                 #  0.3 DEGREE SCALED AT 45.


000103: 20,2151           03434        WIDEDB             OCTAL    03434                                 #  5.0 DEGREES SCALED AT 45.
000104: 20,2152           00554        POWERDB            DEC      .02222                                #  1.0 DEGREE SCALED AT 45.
000105:
000106: 20,2153           35015        ZATTEROR           CAF      EBANK6
000107: 20,2154           56003                           XCH      EBANK
000108: 20,2155           54001                           TS       L                                     #  SAVE CALLERS EBANK IN L.
000109: 20,2156           30032                           CAE      CDUX
000110: 20,2157           55635                           TS       CDUXD
000111: 20,2160           30033                           CAE      CDUY
000112: 20,2161           55636                           TS       CDUYD
000113: 20,2162           30034                           CAE      CDUZ
000114: 20,2163           55637                           TS       CDUZD
000115: 20,2164           12170                           TCF      STOPRATE   +3
000116:
000117: 20,2165           35015        STOPRATE           CAF      EBANK6
000118: 20,2166           56003                           XCH      EBANK
000119: 20,2167           54001                           TS       L                                     #  SAVE CALLERS EBANK IN L.
000120: 20,2170           34755                 +3        CAF      ZERO
000121: 20,2171           55643                           TS       OMEGAPD
000122: 20,2172           55644                           TS       OMEGAQD
000123: 20,2173           55645                           TS       OMEGARD
000124: 20,2174           55640                           TS       DELCDUX
000125: 20,2175           55641                           TS       DELCDUY
000126: 20,2176           55642                           TS       DELCDUZ
000127: 20,2177           55277                           TS       DELPEROR
000128: 20,2200           55300                           TS       DELQEROR
000129: 20,2201           55301                           TS       DELREROR
000130: 20,2202           22003                           LXCH     EBANK                                 #  RESTORE CALLERS EBANK.
000131: 20,2203           00002                           TC       Q
000132:
000133:                                                                                                  #  SUBROUTINE NAME:      ALLCOAST
000134:                                                                                                  #  WILL BE CALLED BY FRESH STARTS AND ENGINE OFF ROUTINES.               .
000135:
000136:                                                                                                  #  CALLING SEQUENCE:     (SAME AS ABOVE)
000137:
000138:                                                                                                  #  EXIT:                 RETURN TO Q.
000139:
000140:                                                                                                  #  SUBROUTINES CALLED:   STOPRATE, RESTORDB, NOVAC
000141:
000142:                                                                                                  #  ZERO:                 (FOR ALL AXES) AOS, ALPHA, AOSTERM, OMEGAD, DELCDU, DELEROR
000143:
000144:                                                                                                  #  OUTPUT:               DRIFTBIT/DAPBOOLS, DB, JOB TO DO 1/ACCS
000145:
000146:                                                                                                  #  DEBRIS:               A, L, Q, RUPTREG1, RUPTREG2, (ITEMPS IN NOVAC)
000147:
000148: 20,2204           00006        ALLCOAST           EXTEND                                         #  SAVE Q FOR RETURN
000149: 20,2205           22071                           QXCH     RUPTREG2


000151: 20,2206           02165                           TC       STOPRATE                              #  CLEAR RATE INTERFACE.  RETURN WITH A=0
000152: 20,2207           22003                           LXCH     EBANK                                 #  AND L=EBANK6.  SAVE CALLERS EBANK.
000153: 20,2210           55537                           TS       AOSQ
000154: 20,2211           55540                           TS       AOSQ       +1
000155: 20,2212           55541                           TS       AOSR
000156: 20,2213           55542                           TS       AOSR       +1
000157: 20,2214           55424                           TS       ALPHAQ                                #  FOR DOWNLIST.
000158: 20,2215           55425                           TS       ALPHAR
000159: 20,2216           55545                           TS       AOSQTERM
000160: 20,2217           55546                           TS       AOSRTERM
000161: 20,2220           22003                           LXCH     EBANK                                 #  RESTORE EBANK (EBANK6 NO LONGER NEEDED)
000162:
000163: 20,2221           40111                           CS       DAPBOOLS                              #  SET UP DRIFTBIT
000164: 20,2222           74744                           MASK     DRIFTBIT
000165: 20,2223           26111                           ADS      DAPBOOLS
000166: 20,2224           02124                           TC       RESTORDB   +1                         #  RESTORE DEADBANK TO CREW-SELECTED VALUE.
000167:
000168: 20,2225           00071                           TC       RUPTREG2                              #  RETURN.
000169:

End of include-file DAP_INTERFACE_SUBROUTINES.agc.  Parent file is MAIN.agc


