
Source Code


000002:                                                                                                  ## Copyright:   Public domain.
000003:                                                                                                  ## Filename:    FRESH_START_AND_RESTART.agc
000004:                                                                                                  ## Purpose:     A section of Luminary revision 97.
000005:                                                                                                  ##              It is part of the reconstructed source code for the
000006:                                                                                                  ##              second release of the flight software for the Lunar
000007:                                                                                                  ##              Module's (LM) Apollo Guidance Computer (AGC) for Apollo 11.
000008:                                                                                                  ##              It was created to fix two incorrect ephemeris constants in
000009:                                                                                                  ##              Luminary 96, as described by anomaly report LNY-59.
000010:                                                                                                  ##              The code has been recreated from a copy of Luminary 99
000011:                                                                                                  ##              revision 001, using asterisks indicating changed lines in
000012:                                                                                                  ##              the listing and Luminary Memos #83 and #85, which list
000013:                                                                                                  ##              changes between Luminary 97 and 98, and 98 and 99. The
000014:                                                                                                  ##              code has been adapted such that the resulting bugger words
000015:                                                                                                  ##              exactly match those specified for Luminary 97 in NASA drawing
000016:                                                                                                  ##              2021152D, which gives relatively high confidence that the
000017:                                                                                                  ##              reconstruction is correct.
000018:                                                                                                  ## Reference:   pp. 211-237
000019:                                                                                                  ## Assembler:   yaYUL
000020:                                                                                                  ## Contact:     Ron Burkey <info@sandroid.org>.
000021:                                                                                                  ## Website:     www.ibiblio.org/apollo/index.html
000022:                                                                                                  ## Mod history: 2019-07-28 MAS  Created from Luminary 99.
000023:                                                                                                  ##              2021-05-30 ABS  00 -> OO in various symbol names.
000024:                                                                                                  ##                              CANTROD -> CANTROO
000025:


000027: 10,2000                                           BANK     10
000028: 05,2000                                           SETLOC   FRANDRES
000029: 05,2000                                           BANK
000030:
000031: 05,2447  E3,1400                                  EBANK=   LST1
000032:
000033: 05,2447                                           COUNT*   $$/START                              #  FRESH AND RESTART
000034: 05,2447           00004        SLAP1              INHINT                                         #  FRESH START.  COMES HERE FROM PINBALL.
000035: 05,2450           03107                           TC       STARTSUB                              #  SUBROUTINE DOES MOST OF THE WORK.
000036:
000037: 05,2451           12456        STARTSW            TCF      SKIPSIM                               #  PATCH....TCF STARTSIM...FOR SIMULATION
000038: 05,2452           34736        STARTSIM           CAF      BIT14
000039: 05,2453           05105                           TC       FINDVAC
000040: 05,2454           77777        SIM2CADR           OCT      77777                                 #  PATCH 2CADR (AND EBANK DESIGNATION) OF
000041: 05,2455           77777                           OCT      77777                                 #  SIMULATION START ADDRESS.
000042:
000043: 05,2456           31036        SKIPSIM            CA       DSPTAB     +11D                       #  TURN OFF ALL DSPTAB +11D LAMPS
000044: 05,2457           74771                           MASK     BITS4&6                               #  EXCEPT THE GIMBAL LOCK & NO ATT ONLY ON
000045: 05,2460           64735                           AD       BIT15                                 #  REQUESTED FRESH START.
000046: 05,2461           55036                           TS       DSPTAB     +11D
000047:
000048: 05,2462           34740                           CA       BIT12                                 #  INITIALIZE DOWNLINK ERASABLE MEMORY
000049: 05,2463           54333                           TS       DUMPCNT                               #  DUMP FOR ONE PASS.
000050:
000051: 05,2464           34755                           CA       ZERO
000052: 05,2465           55365                           TS       ERCOUNT
000053: 05,2466           54375                           TS       FAILREG
000054: 05,2467           54376                           TS       FAILREG    +1
000055: 05,2470           54377                           TS       FAILREG    +2
000056: 05,2471           54320                           TS       REDOCTR
000057:
000058: 05,2472           44644                           CS       PRIO12
000059: 05,2473           55313                           TS       DSRUPTSW
000060:
000061: 05,2474           34736        DOFSTART           CAF      BIT14                                 #  INSURE ENGINE IS OFF.
000062: 05,2475           00006                           EXTEND
000063: 05,2476           01011                           WRITE    DSALMOUT
000064: 05,2477           44755                           CS       ZERO
000065: 05,2500           54055                           TS       THRUST
000066:
000067: 05,2501           34751        DOFSTRT1           CAF      FOUR
000068: 05,2502           55273                           TS       RCSFLAGS                              #  INITIALIZE ATTITUDE ERROR DISPLAYS.
000069: 05,2503           34355                           CA       PRIO30
000070: 05,2504           54366                           TS       RESTREG                               #  SUPER BANK PRIORITY FOR DISPLAYS.
000071:
000072: 05,2505           34755                           CA       ZERO
000073: 05,2506           55246                           TS       ABDELV                                #  DAP INITIALIZATION
000074: 05,2507           54371                           TS       NVSAVE
000075: 05,2510           55072                           TS       EBANKTEM


000077: 05,2511           55262                           TS       CH5MASK
000078: 05,2512           55263                           TS       CH6MASK
000079: 05,2513           55276                           TS       PVALVEST                              #  FOR RCS FAILURE MONITOR
000080: 05,2514           55360                           TS       ERESTORE                              #  ***** MUST NOT BE REMOVED FROM DOFSTART
000081: 05,2515           55362                           TS       SMODE                                 #  ***** MUST NOT BE REMOVED FROM DOFSTART
000082: 05,2516           54332                           TS       DNLSTCOD                              #  SELECT POO DOWNLIST
000083: 05,2517           55324                           TS       AGSWORD                               #  ALLOW AGS INITIALIZATION
000084: 05,2520           55501                           TS       UPSVFLAG                              #  ZERO UPDATE STATE VECTOR REQUEST FLAGWRD
000085: 05,2521           00006                           EXTEND
000086: 05,2522           01005                           WRITE    CHAN5                                 #  TURN OFF RCS JETS.
000087: 05,2523           00006                           EXTEND
000088: 05,2524           01006                           WRITE    CHAN6                                 #  TURN OFF RCS JETS.
000089: 05,2525           00006                           EXTEND
000090: 05,2526           01012                           WRITE    CHAN12
000091: 05,2527           00006                           EXTEND
000092: 05,2530           01013                           WRITE    CHAN13
000093: 05,2531           00006                           EXTEND
000094: 05,2532           01014                           WRITE    CHAN14
000095: 05,2533           41036                           CS       DSPTAB     +11D
000096: 05,2534           74771                           MASK     BITS4&6
000097: 05,2535           10000                           CCS      A
000098: 05,2536           02542                           TC       +4
000099: 05,2537           34771                           CA       BITS4&6
000100: 05,2540           00006                           EXTEND                                         #  THE IMU WAS IN COARSE ALIGN IN GIMBAL
000101: 05,2541           05012                           WOR      CHAN12                                #  LOCK, SO PUT IT BACK INTO COARSE ALIGN.
000102: 05,2542           02643                 +4        TC       MR.KLEAN
000103:
000104: 05,2543           44755                           CS       ZERO
000105: 05,2544           55011                           TS       MODREG
000106:
000107: 05,2545           33362                           CAF      IM30INIF                              #  FRESH START IMU INITIALIZATION.
000108: 05,2546           55302                           TS       IMODES30
000109:
000110: 05,2547           33067                           CAF      MAXDB
000111: 05,2550           55346                           TS       DB
000112: 05,2551           34751                           CAF      FOUR
000113: 05,2552           55325                           TS       RATEINDX                              #  INITIALIZE KALCMANU RATE
000114: 05,2553           33063                           CA       BOOLSTRT
000115: 05,2554           54111                           TS       DAPBOOLS
000116: 05,2555           35015                           CAF      EBANK6
000117: 05,2556           54003                           TS       EBANK
000118: 05,2557  E6,1400                                  EBANK=   HIASCENT
000119:
000120: 05,2557           33060                           CA       STIKSTRT
000121: 05,2560           55444                           TS       STIKSENS
000122: 05,2561           33061                           CA       RATESTRT
000123: 05,2562           55476                           TS       -RATEDB
000124: 05,2563           32000                           CAF      FULLAPS                               #  INITIALIZE MAXIMUM ASCENT MASS FOR USE
000125: 05,2564           55400                           TS       HIASCENT                              #    BY 1/ACCS UNTIL THE PAD LOAD IS DONE.
000126: 05,2565           33064                           CA       77001OCT                              #      LOAD DAP FILTER GAINS PAD LOAD


000128: 05,2566           55403                           TS       DKTRAP                                #        TO BEST PRESENT ESTIMATE OF GOODIES
000129: 05,2567           55406                           TS       LMTRAP                                #  .14 DEG
000130: 05,2570           33065                           CA       60DEC
000131: 05,2571           55405                           TS       DKKAOSN
000132: 05,2572           55410                           TS       LMKAOSN                               #  6 SEC GAIN FOR ALPHA
000133: 05,2573           34755                           CA       ZERO
000134: 05,2574           55407                           TS       LMOMEGAN                              #  UNITY GAIN
000135: 05,2575           34363                           CA       TEN
000136: 05,2576           55404                           TS       DKOMEGAN                              #  1 SEC GAIN FOR OMEGA
000137: 05,2577           34744                           CAF      BIT8                                  #  SET DOCKED DB TO 1.4 DEG.  MAY OVERWRITE
000138: 05,2600           55411                           TS       DKDB                                  #        WITH PAD LOAD.
000139: 05,2601           35026                           CAF      IM33INIT
000140: 05,2602           64746                           AD       BIT6                                  #  KEEP BOTH DAP AND ERROR-NEEDLES DISPLAY
000141: 05,2603           55303                           TS       IMODES33                              #        OFF UNTIL ICDU ZERO IS FINISHED.
000142:
000143: 05,2604           00006                           EXTEND                                         #  INITIALIZE SWITCHES ONLY ON FRESH START.
000144: 05,2605           33367                           DCA      SWINIT
000145: 05,2606           52075                           DXCH     STATE
000146: 05,2607           33370                           CA       SWINIT     +2
000147: 05,2610           54076                           TS       STATE      +2
000148: 05,2611           34737                           CA       REFSMBIT                              #  DO NOT ALTER REFSMFLG ON FRESH START.
000149: 05,2612           70077                           MASK     STATE      +3
000150: 05,2613           63371                           AD       SWINIT     +3
000151: 05,2614           54077                           TS       STATE      +3
000152: 05,2615           00006                           EXTEND
000153: 05,2616           33373                           DCA      SWINIT     +4
000154: 05,2617           52101                           DXCH     STATE      +4
000155: 05,2620           00006                           EXTEND
000156: 05,2621           33375                           DCA      SWINIT     +6
000157: 05,2622           52103                           DXCH     STATE      +6
000158: 05,2623           34744                           CA       SURFFBIT                              #  DO NOT ALTER  SURFFLAG ON FRESH START.
000159: 05,2624           64740                           AD       CMOONBIT                              #                CMOONFLG
000160: 05,2625           64741                           AD       LMOONBIT                              #                LMOONFLG
000161: 05,2626           70104                           MASK     STATE      +8D
000162: 05,2627           63376                           AD       SWINIT     +8D
000163: 05,2630           54104                           TS       STATE      +8D
000164: 05,2631           33377                           CA       SWINIT     +9D
000165: 05,2632           54105                           TS       STATE      +9D
000166: 05,2633           34737                           CA       APSFLBIT                              #  DO NOT ALTER APSFLAG ON FRESH START.
000167: 05,2634           70106                           MASK     STATE      +10D
000168: 05,2635           63400                           AD       SWINIT     +10D
000169: 05,2636           54106                           TS       STATE      +10D
000170: 05,2637           33401                           CAF      SWINIT     +11D
000171: 05,2640           54107                           TS       STATE      +11D
000172:
000173: 05,2641           04635        ENDRSTRT           TC       POSTJUMP                              #  NOW IN ANOTHER BANK.
000174: 05,2642           03210                           CADR     DUMMYJOB   +2                         #  PICKS UP AT RELINT.   (DONT ZERO NEWJOB)
000175:
000176: 05,2643           00004        MR.KLEAN           INHINT


000178: 05,2644           00006                           EXTEND
000179: 05,2645           34755                           DCA      NEG0
000180: 05,2646           52755                           DXCH     -PHASE2
000181: 05,2647           00006        POOKLEAN           EXTEND
000182: 05,2650           34755                           DCA      NEG0
000183: 05,2651           52761                           DXCH     -PHASE4
000184: 05,2652           00006        V37KLEAN           EXTEND
000185: 05,2653           34755                           DCA      NEG0
000186: 05,2654           52753                           DXCH     -PHASE1
000187: 05,2655           00006                           EXTEND
000188: 05,2656           34755                           DCA      NEG0
000189: 05,2657           52757                           DXCH     -PHASE3
000190: 05,2660           00006                           EXTEND
000191: 05,2661           34755                           DCA      NEG0
000192: 05,2662           52763                           DXCH     -PHASE5
000193: 05,2663           00006                           EXTEND
000194: 05,2664           34755                           DCA      NEG0
000195: 05,2665           52765                           DXCH     -PHASE6
000196: 05,2666           00002                           TC       Q
000197:


000199:                                                                                                  #  COMES HERE FROM LOCATION 4000, GOJAM. RESTART ANY PROGRAMS WHICH MAY HAVE BEEN RUNNING AT THE TIME
000200:
000201: 05,2667  E3,1400                                  EBANK=   LST1
000202: 05,2667           24320        GOPROG             INCR     REDOCTR                               #  ADVANCE RESTART COUNTER.
000203:
000204: 05,2670           22002                           LXCH     Q
000205: 05,2671           00006                           EXTEND
000206: 05,2672           04007                           ROR      SUPERBNK
000207: 05,2673           53433                           DXCH     RSBBQ
000208: 05,2674           31036                           CA       DSPTAB     +11D
000209: 05,2675           74750                           MASK     BIT4
000210: 05,2676           00006                           EXTEND
000211: 05,2677           12703                           BZF      +4
000212: 05,2700           64746                           AD       BIT6                                  #  SET ERROR COUNTER ENABLE
000213: 05,2701           00006                           EXTEND
000214: 05,2702           05012                           WOR      CHAN12                                #  ISS WAS IN COARS ALIGN SO GO BACK TO
000215: 05,2703           03070        BUTTONS            TC       LIGHTSET
000216:
000217:                                                                                                  #  ERASCHK TEMPORARILY STORES THE CONTENTS OF TWO ERASABLE LOCATIONS, X
000218:                                                                                                  #  AND X+1 INTO SKEEP5 AND SKEEP6.  IT ALSO STORES X INTO SKEEP7 AND
000219:                                                                                                  #  ERESTORE.  IF ERASCHK IS INTERRUPTED BY A RESTART, C(ERESTORE) SHOULD
000220:                                                                                                  #  EQUAL C(SKEEP7), AND BE A + NUMBER LESS THAN 2000 OCT.  OTHERWISE
000221:                                                                                                  #  C(ERESTORE) SHOULD EQUAL +0.
000222:
000223: 05,2704           34350                           CAF      HI5
000224: 05,2705           71360                           MASK     ERESTORE
000225: 05,2706           00006                           EXTEND
000226: 05,2707           12711                           BZF      +2                                    #  IF ERESTORE NOT = +0 OR +N LESS THAN 2K,
000227: 05,2710           13105                           TCF      NONAVKEY   +3                         #  DO FRESH START - E MEMORY MIGHT BE BAD
000228: 05,2711           41360                           CS       ERESTORE
000229: 05,2712           00006                           EXTEND
000230: 05,2713           12730                           BZF      DORSTART                              #  = +0 CONTINUE WITH RESTART.
000231: 05,2714           61377                           AD       SKEEP7
000232: 05,2715           00006                           EXTEND
000233: 05,2716           12720                           BZF      +2                                    #  = SKEEP7, RESTORE E MEMORY.
000234: 05,2717           13105                           TCF      NONAVKEY   +3                         #  DO FRESH START - E MEMORY MIGHT BE BAD
000235: 05,2720           31374                           CA       SKEEP4
000236: 05,2721           54003                           TS       EBANK                                 #  EBANK OF E MEMORY THAT WAS UNDER TEST.
000237: 05,2722           00006                           EXTEND                                         #  (NOT DXCH SINCE THIS MIGHT HAPPEN AGAIN)
000238: 05,2723           31376                           DCA      SKEEP5
000239: 05,2724           51377                           INDEX    SKEEP7
000240: 05,2725           52001                           DXCH     0000                                  #  E MEMORY RESTORED.
000241: 05,2726           34755                           CA       ZERO
000242: 05,2727           55360                           TS       ERESTORE
000243: 05,2730           03107        DORSTART           TC       STARTSUB                              #  DO INITIALIZATION AFTER ERASE RESTORE.
000244:
000245: 05,2731           44736        SETINFL            CS       INTFLBIT
000246: 05,2732           70106                           MASK     FLGWRD10
000247: 05,2733           54106                           TS       FLGWRD10


000249: 05,2734           33364                           CA       9,6,4                                 #  LEAVE PROG ALARM, GIMBAL LOCK, NO ATT
000250: 05,2735           71036                           MASK     DSPTAB     +11D                       #  LAMPS INTACT ON HARDWARE RESTART
000251: 05,2736           64735                           AD       BIT15
000252: 05,2737           57036                           XCH      DSPTAB     +11D
000253: 05,2740           33350                           CAF      IFAILINH                              #  LEAVE IMU FAILURE INHIBITS INTACT ON
000254: 05,2741           71302                           MASK     IMODES30                              #  HARDWARE RESTART. RESET ALL FAILURE
000255: 05,2742           63363                           AD       IM30INIR                              #  CODES.
000256: 05,2743           55302                           TS       IMODES30
000257:
000258: 05,2744           31324                           CA       AGSWORD                               #  BE SURE OF CORRECT DOWNLIST
000259: 05,2745           54332                           TS       DNLSTCOD
000260:
000261: 05,2746           34750                           CA       BIT4                                  #  TURN ON THROTTLE COUNTER
000262: 05,2747           00006                           EXTEND
000263: 05,2750           05014                           WOR      CHAN14                                #  TURN ON THRUST DRIVE
000264: 05,2751           40101                           CS       FLAGWRD5
000265: 05,2752           74745                           MASK     ENGONBIT
000266: 05,2753           10000                           CCS      A
000267: 05,2754           12761                           TCF      +5
000268: 05,2755           34737                           CAF      BIT13
000269: 05,2756           00006                           EXTEND
000270: 05,2757           05011                           WOR      DSALMOUT                              #  TURN ENGINE ON
000271: 05,2760           12775                           TCF      GOPROG3
000272: 05,2761           34736                 +5        CAF      BIT14
000273: 05,2762           00006                           EXTEND
000274: 05,2763           05011                           WOR      DSALMOUT                              #  TURN ENGINE OFF.
000275: 05,2764           12775                           TCF      GOPROG3
000276:
000277: 05,2765           00004        ENEMA              INHINT
000278: 05,2766           03124                           TC       STARTSB1
000279: 05,2767           12771                           TCF      GOPROG2A
000280: 05,2770           03146        GOPROG2            TC       STARTSB2
000281: 05,2771           03070        GOPROG2A           TC       LIGHTSET
000282: 05,2772           43066                           CS       RSFLGBTS                              #  CLEAR BITS 7 AND 14.
000283: 05,2773           70106                           MASK     FLGWRD10
000284: 05,2774           54106                           TS       FLGWRD10
000285:
000286: 05,2775           34756        GOPROG3            CAF      NUMGRPS                               #  VERIFY PHASE TABLE AGREEMENTS
000287: 05,2776           54161        PCLOOP             TS       MPAC       +5
000288: 05,2777           60000                           DOUBLE
000289: 05,3000           00006                           EXTEND
000290: 05,3001           50000                           INDEX    A
000291: 05,3002           30753                           DCA      -PHASE1                               #  COMPLEMENT INTO A, DIRECT INTO L.
000292: 05,3003           00006                           EXTEND
000293: 05,3004           06001                           RXOR     LCHAN                                 #  RESULT MUST BE -0 FOR AGREEMENT.
000294: 05,3005           10000                           CCS      A
000295: 05,3006           13054                           TCF      PTBAD                                 #  RESTART FAILURE.
000296: 05,3007           13054                           TCF      PTBAD
000297: 05,3010           13054                           TCF      PTBAD


000299: 05,3011           10161                           CCS      MPAC       +5                         #  PROCESS ALL RESTART GROUPS.
000300: 05,3012           12776                           TCF      PCLOOP
000301:
000302: 05,3013           54162                           TS       MPAC       +6                         #  SET TO +0.
000303: 05,3014           05315                           TC       MMDSPLAY                              #  DISPLAY MAJOR MODE
000304:
000305: 05,3015           00004                           INHINT                                         #  RELINT DONE IN MMDSPLAY
000306:
000307: 05,3016           44736                           CS       DIDFLBIT                              #  CLEAR DIDFLAG IN ORDER TO FORCE R10 TO
000308: 05,3017           70075                           MASK     FLAGWRD1                              #  RE-INITIALIZE ITSELF IF IT HAD BEEN
000309: 05,3020           54075                           TS       FLAGWRD1                              #  OPERATING AT THE TIME OF THE RESTART.
000310:
000311: 05,3021           44740                           CS       RODFLBIT                              #  CLEAR RODFLAG.  IF P66 IS IN OPERATION
000312: 05,3022           70075                           MASK     FLAGWRD1                              #        IT WILL RE-INITIALIZE ITSELF AND
000313: 05,3023           54075                           TS       FLAGWRD1                              #        CONTINUE.
000314:
000315: 05,3024           44741                           CS       P21FLBIT                              #  CLEAR P21 FLAG SO THAT P21 WILL COMPUTE
000316: 05,3025           70074                           MASK     FLAGWRD0                              #  NEW BASE STATE VECTORS.
000317: 05,3026           54074                           TS       FLAGWRD0
000318:
000319: 05,3027           34756                           CAF      NUMGRPS                               #  SEE IF ANY GROUPS RUNNING.
000320: 05,3030           54161        NXTRST             TS       MPAC       +5
000321: 05,3031           60000                           DOUBLE
000322: 05,3032           50000                           INDEX    A
000323: 05,3033           10753                           CCS      PHASE1
000324: 05,3034           13036                           TCF      PACTIVE                               #  PNZ - GROUP ACTIVE.
000325: 05,3035           13043                           TCF      PINACT                                #  +0 - GROUP NOT RUNNING.
000326:
000327: 05,3036           54154        PACTIVE            TS       MPAC
000328: 05,3037           24154                           INCR     MPAC                                  #  ABS OF PHASE.
000329: 05,3040           24162                           INCR     MPAC       +6                         #  INDICATE GROUP DEMANDS PRESENT.
000330: 05,3041           33062                           CA       RACTCADR
000331: 05,3042           04622                           TC       SWCALL                                #  MUST RETURN TO SWRETURN.
000332:
000333: 05,3043           10161        PINACT             CCS      MPAC       +5                         #  PROCESS ALL RESTART GROUPS.
000334: 05,3044           13030                           TCF      NXTRST
000335:
000336: 05,3045           10162                           CCS      MPAC       +6                         #  NO, CHECK PHASE ACTIVITY FLAG
000337: 05,3046           12641                           TCF      ENDRSTRT                              #  PHASE ACTIVE
000338: 05,3047           34735                           CAF      BIT15                                 #  IS MODE -0
000339: 05,3050           71011                           MASK     MODREG
000340: 05,3051           00006                           EXTEND
000341: 05,3052           16001                           BZF      GOTOPOOH                              #  NO
000342: 05,3053           12641                           TCF      ENDRSTRT                              #  YES
000343: 05,3054           05567        PTBAD              TC       ALARM                                 #  SET ALARM TO SHOW PHASE TABLE FAILURE.
000344: 05,3055           01107                           OCT      1107
000345:
000346: 05,3056           12501                           TCF      DOFSTRT1
000347:                                                                                                  # ******** ****** ******


000349:                                                                                                  #  DO NOT USE GOPROG2 OR ENEMA WITHOUT CONSULTING POOH PEOPLE
000350:
000351: 05,3057     4737               OCT10000           =        BIT13
000352: 05,3057     4355               OCT30000           =        PRIO30
000353: 05,3057           07777        OCT7777            OCT      7777
000354: 05,3060           32321        STIKSTRT           DEC      0.825268                              #  20 D/S MAXIMUM COMMANDED RATE
000355: 05,3061           77445        RATESTRT           DEC      -218       B-14
000356: 05,3062           03526        RACTCADR           CADR     RESTARTS
000357: 05,3063           21312        BOOLSTRT           OCT      21312
000358: 05,3064           77001        77001OCT           OCT      77001                                 #  .14 DEG SCALED AT 4.5 DEG
000359: 05,3065           00074        60DEC              DEC      60         B-14
000360: 05,3066           20100        RSFLGBTS           OCT      20100
000361: 05,3067           03434        MAXDB              OCTAL    03434                                 #  5 DEG ATTITUDE DEADBAND, SCALED AT 45.
000362:
000363: 05,3070           34747        LIGHTSET           CAF      BIT5                                  #  CHECK FOR MARK REJECT AND ERROR RESET
000364: 05,3071           00006                           EXTEND
000365: 05,3072           02016                           RAND     NAVKEYIN
000366: 05,3073           00006                           EXTEND
000367: 05,3074           13102                           BZF      NONAVKEY                              #  NO MARK REJECT
000368: 05,3075           00006                           EXTEND
000369: 05,3076           00015                           READ     MNKEYIN                               #  CHECK IF KEYS 2M AND 5M ON
000370: 05,3077           63361                           AD       -ELR                                  #  MAIN DSKY KEYCODE (BITS 1-5)
000371: 05,3100           00006                           EXTEND
000372: 05,3101           13103                           BZF      +2
000373:
000374: 05,3102           00002        NONAVKEY           TC       Q
000375:
000376: 05,3103           03107                           TC       STARTSUB
000377: 05,3104           12474                           TCF      DOFSTART
000378: 05,3105           03107                 +3        TC       STARTSUB
000379: 05,3106           12501                           TCF      DOFSTRT1                              #  DO FRESH START BUT DON'T TOUCH ENGINE
000380:


000382:                                                                                                  #  INITIALIZATION COMMON TO BOTH FRESH START AND RESTART.
000383:
000384: 05,3107  E6,1537                                  EBANK=   AOSQ
000385: 05,3107           33351        STARTSUB           CAF      LDNPHAS1                              #  SET POINTER SO NEXT 20MS DOWNRUPT WILL
000386: 05,3110           54335                           TS       DNTMGOTO                              #  CAUSE THE CURRENT DOWNLIST TO BE
000387:                                                                                                  #  INTERRUPTED AND START SENDING FROM THE
000388:                                                                                                  #  BEGINNING OF THE CURRENT DOWNLIST.
000389: 05,3111           34746                           CAF      BIT6
000390: 05,3112           00006                           EXTEND
000391: 05,3113           02033                           RAND     CHAN33
000392: 05,3114           63365                           AD       RMODINIT
000393: 05,3115           54110                           TS       RADMODES
000394:
000395: 05,3116           34733                           CAF      POSMAX
000396: 05,3117           54026                           TS       TIME3
000397: 05,3120           67746                           AD       MINUS2
000398: 05,3121           54027                           TS       TIME4
000399: 05,3122           67747                           AD       NEGONE
000400: 05,3123           54030                           TS       TIME5
000401:
000402: 05,3124           35015        STARTSB1           CAF      EBANK6
000403: 05,3125           54003                           TS       EBANK
000404:
000405: 05,3126           44737                           CS       BIT13                                 #  CAUSE DAPIDLER TO CALL 1/ACCS
000406: 05,3127           71273                           MASK     RCSFLAGS
000407: 05,3130           55273                           TS       RCSFLAGS                              #  ZERO BIT 13
000408: 05,3131           34733                           CAF      POSMAX                                #  DISABLE TIME6 CLOCK.  JUST IN CASE A T6
000409: 05,3132           55466                           TS       T6NEXT                                #        RUPT IS ALREADY IN THE PRIORITY CHAIN,
000410: 05,3133           00006                           EXTEND                                         #        ENSURE THAT IT'S INPUTS WILL RENDER IT
000411: 05,3134           03013                           WAND     CHAN13                                #        INEFFECTUAL.
000412: 05,3135           34755                           CAF      ZERO
000413: 05,3136           55465                           TS       NXT6ADR
000414: 05,3137           55472                           TS       NEXTP
000415:
000416: 05,3140           44751                           CS       ACCSOKAY
000417: 05,3141           70111                           MASK     DAPBOOLS
000418: 05,3142           54111                           TS       DAPBOOLS
000419:
000420: 05,3143           00006                           EXTEND                                         #  SET T5RUPT FOR DAPIDLER PROGRAM.
000421: 05,3144           33347                           DCA      IDLEADR
000422: 05,3145           53275                           DXCH     T5ADR
000423:
000424: 05,3146           33360        STARTSB2           CAF      OCT30001                              #  DURING SOFTWARE RESTART, DO NOT DISTURB
000425: 05,3147           00006                           EXTEND                                         #  ENGINE ON, OFF AND ISS WARNING.
000426: 05,3150           03011                           WAND     DSALMOUT
000427:
000428: 05,3151           44743                           CS       READRBIT                              #  CLEAR READRFLG FOR R29.
000429: 05,3152           70077                           MASK     FLAGWRD3
000430: 05,3153           54077                           TS       FLAGWRD3


000432:
000433: 05,3154           40077                           CS       FLAGWRD3                              #  DURING SOFTWARE RESTART, CLEAR TURNON,
000434: 05,3155           74741                           MASK     NR29FBIT                              #  REPOSITION, CDU ZERO AND REMODE BITS
000435: 05,3156           00006                           EXTEND                                         #  IN RADMODES, SINCE TASKS ASSOCIATED
000436: 05,3157           13161                           BZF      +2                                    #  WITH THESE BITS HAVE BEEN KILLED
000437: 05,3160           34742                           CAF      BIT10                                 #  ALSO IF R29 HAD BEEN REQUESTED,
000438: 05,3161           63354                           AD       OCT32001                              #  (NOR29FLG = 0) CLEAR BIT 10 RADMODES
000439: 05,3162           40000                           COM                                            #  TO MAKE R29 FORGET IT HAD STARTED
000440: 05,3163           70110                           MASK     RADMODES                              #  DESIGNATING
000441: 05,3164           54110                           TS       RADMODES
000442: 05,3165           33356                           CAF      OCT27470                              #  DURING SOFTWARE RESTART, DO NOT DISTURB
000443: 05,3166           00006                           EXTEND                                         #  IMU FLAGS.  (COURSE ALIGN ENABLE, ZERO
000444: 05,3167           03012                           WAND     CHAN12                                #  IMU CDUS, ENABLE IMU COUNTER) AND GIMBAL
000445:                                                                                                  #  TRIM DRIVES.  LEAVE RR LOCKON ENABLE
000446:                                                                                                  #  ALONE.
000447:
000448: 05,3170           44750                           CS       NORRMBIT                              #  ENABLE R25.
000449: 05,3171           70101                           MASK     FLAGWRD5
000450: 05,3172           54101                           TS       FLAGWRD5
000451:
000452: 05,3173           44741                           CS       R77FLBIT                              #  CLEAR R77FLAG
000453: 05,3174           70101                           MASK     FLAGWRD5
000454: 05,3175           54101                           TS       FLAGWRD5
000455: 05,3176           33357                           CAF      OCT74160                              #  DURING SOFTWARE RESTART, DO NOT DUSTURB
000456: 05,3177           00006                           EXTEND                                         #  TELEMETRY FLAGS, RESET TRAP FLAGS, AND
000457: 05,3200           03013                           WAND     CHAN13                                #  ENABLE T6RUPT FLAG.
000458:
000459: 05,3201           34740                           CAF      BIT12                                 #  REENABLE RUPT10 (RUPT QUICKLY
000460: 05,3202           00006                           EXTEND                                         #        RESUMES EXCEPT DURING P64)
000461: 05,3203           05013                           WOR      CHAN13
000462:
000463: 05,3204           34746                           CAF      BIT6                                  #  DURING SOFTWARE RESTART, DO NOT DISTURB
000464: 05,3205           00006                           EXTEND                                         #  GYRO ENABLE FLAG.
000465: 05,3206           03014                           WAND     CHAN14
000466:
000467: 05,3207  E3,1400                                  EBANK=   LST1
000468: 05,3207           35007                           CAF      STARTEB
000469: 05,3210           54003                           TS       EBANK                                 #  SET FOR E3
000470:
000471: 05,3211           34734                           CAF      NEG1/2                                #  INITIALIZE WAITLIST DELTA-TS.
000472: 05,3212           55407                           TS       LST1       +7
000473: 05,3213           55406                           TS       LST1       +6
000474: 05,3214           55405                           TS       LST1       +5
000475: 05,3215           55404                           TS       LST1       +4
000476: 05,3216           55403                           TS       LST1       +3
000477: 05,3217           55402                           TS       LST1       +2
000478: 05,3220           55401                           TS       LST1       +1
000479: 05,3221           55400                           TS       LST1
000480:
000481: 05,3222           45236                           CS       ENDTASK
000482: 05,3223           55410                           TS       LST2


000484: 05,3224           55412                           TS       LST2       +2
000485: 05,3225           55414                           TS       LST2       +4
000486: 05,3226           55416                           TS       LST2       +6
000487: 05,3227           55420                           TS       LST2       +8D
000488: 05,3230           55422                           TS       LST2       +10D
000489: 05,3231           55424                           TS       LST2       +12D
000490: 05,3232           55426                           TS       LST2       +14D
000491: 05,3233           55430                           TS       LST2       +16D
000492: 05,3234           45237                           CS       ENDTASK    +1
000493: 05,3235           55411                           TS       LST2       +1
000494: 05,3236           55413                           TS       LST2       +3
000495: 05,3237           55415                           TS       LST2       +5
000496: 05,3240           55417                           TS       LST2       +7
000497: 05,3241           55421                           TS       LST2       +9D
000498: 05,3242           55423                           TS       LST2       +11D
000499: 05,3243           55425                           TS       LST2       +13D
000500: 05,3244           55427                           TS       LST2       +15D
000501: 05,3245           55431                           TS       LST2       +17D
000502:
000503: 05,3246           44755                           CS       ZERO                                  #  MAKE ALL EXECUTIVE REGISTER SETS
000504: 05,3247           54167                           TS       PRIORITY                              #  AVAILABLE.
000505: 05,3250           54203                           TS       PRIORITY   +12D
000506: 05,3251           54217                           TS       PRIORITY   +24D
000507: 05,3252           54233                           TS       PRIORITY   +36D
000508: 05,3253           54247                           TS       PRIORITY   +48D
000509: 05,3254           54263                           TS       PRIORITY   +60D
000510: 05,3255           54277                           TS       PRIORITY   +72D
000511: 05,3256           54313                           TS       PRIORITY   +84D
000512:
000513: 05,3257           55313                           TS       DSRUPTSW
000514: 05,3260           54067                           TS       NEWJOB                                #  SHOWS NO ACTIVE JOBS.
000515:
000516: 05,3261           33353                           CAF      VAC1ADRC                              #  MAKE ALL VAC AREAS AVAILABLE.
000517: 05,3262           54400                           TS       VAC1USE
000518: 05,3263           63355                           AD       LTHVACA
000519: 05,3264           54454                           TS       VAC2USE
000520: 05,3265           63355                           AD       LTHVACA
000521: 05,3266           54530                           TS       VAC3USE
000522: 05,3267           63355                           AD       LTHVACA
000523: 05,3270           54604                           TS       VAC4USE
000524: 05,3271           63355                           AD       LTHVACA
000525: 05,3272           54660                           TS       VAC5USE
000526:
000527: 05,3273           34363                           CAF      TEN
000528: 05,3274           54154        DSPOFF             TS       MPAC                                  #  R1, R2, R3).
000529: 05,3275           44740                           CS       BIT12
000530: 05,3276           50154                           INDEX    MPAC
000531: 05,3277           55023                           TS       DSPTAB
000532: 05,3300           10154                           CCS      MPAC
000533: 05,3301           13274                           TCF      DSPOFF
000534:


000536: 05,3302           55326                           TS       DELAYLOC
000537: 05,3303           55327                           TS       DELAYLOC   +1
000538: 05,3304           55330                           TS       DELAYLOC   +2
000539: 05,3305           55074                           TS       R1SAVE
000540: 05,3306           54045                           TS       INLINK
000541: 05,3307           54776                           TS       DSPCNT
000542: 05,3310           55042                           TS       CADRSTOR
000543: 05,3311           55013                           TS       REQRET
000544: 05,3312           55015                           TS       CLPASS
000545: 05,3313           55012                           TS       DSPLOCK
000546: 05,3314           55020                           TS       MONSAVE                               #  KILL MONITOR
000547: 05,3315           55021                           TS       MONSAVE1
000548: 05,3316           55001                           TS       VERBREG
000549: 05,3317           55002                           TS       NOUNREG
000550: 05,3320           55043                           TS       DSPLIST
000551: 05,3321           55312                           TS       MARKSTAT
000552: 05,3322           55044                           TS       EXTVBACT                              #  MAKE EXTENDED VERBS AVAILABLE
000553: 05,3323           55304                           TS       IMUCADR
000554: 05,3324           55305                           TS       OPTCADR
000555: 05,3325           55306                           TS       RADCADR
000556: 05,3326           55307                           TS       ATTCADR
000557: 05,3327           55314                           TS       LGYRO
000558: 05,3330           54100                           TS       FLAGWRD4                              #  KILL INTERFACE DISPLAYS
000559: 05,3331           34760                           CAF      NOUTCON
000560: 05,3332           55016                           TS       NOUT
000561:
000562: 05,3333           44753                           CS       ONE
000563: 05,3334           55100                           TS       SAMPLIM
000564: 05,3335           34746                           CAF      BIT6
000565: 05,3336           71303                           MASK     IMODES33                              #  LEAVE BIT 6 UNCHANGED
000566: 05,3337           65026                           AD       IM33INIT                              #  NO PIP OR TM FAILS.  BIT6=0 IN THIS WORD.
000567: 05,3340           55303                           TS       IMODES33
000568:
000569: 05,3341           33352                           CAF      LESCHK                                #  SELF CHECK GO-TO REGISTER.
000570: 05,3342           55361                           TS       SELFRET
000571:
000572: 05,3343           44360                           CS       VD1
000573: 05,3344           54777                           TS       DSPCOUNT
000574:
000575: 05,3345           00002                           TC       Q
000576: 05,3346  E6,1537                                  EBANK=   AOSQ
000577: 05,3346           02024 34066  IDLEADR            2CADR    DAPIDLER
000578:
000579: 05,3350           00435        IFAILINH           OCT      435
000580: 05,3351           03515        LDNPHAS1           GENADR   DNPHASE1
000581: 05,3352           03336        LESCHK             GENADR   SELFCHK
000582: 05,3353           00400        VAC1ADRC           ADRES    VAC1USE
000583: 05,3354           32001        OCT32001           OCT      32001
000584: 05,3355           00054        LTHVACA            DEC      44         B-14
000585:


000587: 05,3356           27470        OCT27470           OCT      27470
000588: 05,3357           74160        OCT74160           OCT      74160
000589: 05,3360           30001        OCT30001           OCT      30001
000590: 05,3361     5007               STARTEB            EQUALS   EBANK3
000591: 05,3361     4756               NUMGRPS            EQUALS   FIVE
000592: 05,3361           77755        -ELR               OCT      -22                                   #  -ERROR LIGHT RESET KEY CODE.
000593: 05,3362           37411        IM30INIF           OCT      37411                                 #  INHIBITS IMU FAIL FOR 5 SEC AND PIP ISSW
000594: 05,3363           37000        IM30INIR           OCT      37000
000595: 05,3364     5026               IM33INIT           =        PRIO16                                #  NO PIP OR TM FAIL SIGNALS.
000596: 05,3364           00450        9,6,4              OCT      450
000597: 05,3365           00102        RMODINIT           OCT      00102
000598: 05,3366           00000        SWINIT             OCT      0
000599: 05,3367           00000                           OCT      0
000600: 05,3370           00000                           OCT      0
000601: 05,3371           02000                           OCT      02000                                 #  BIT 11 = NOR29FLG
000602: 05,3372           00000                           OCT      0
000603: 05,3373           00000                           OCT      0
000604: 05,3374           00000                           OCT      0
000605: 05,3375           00100                           OCT      00100
000606:
000607: 05,3376           00000                           OCT      0
000608: 05,3377           00000                           OCT      0
000609: 05,3400           00000                           OCT      0
000610: 05,3401           40000                           OCT      40000                                 #  BIT 15 = LRBYPASS.
000611:


000613:                                                                                                  #  PROGRAM NAME          GOTOPOOH                ASSEMBLY SUNDANCE
000614:                                                                                                  #  LOG SECTION           FRESH START AND RESTART
000615:
000616:                                                                                                  #  FUNCTIONAL DESCRIPTION
000617:
000618:                                                                                                  #        FLASH V 37 ON DSKY %MM CHANGE REQUEST "
000619:
000620:                                                                                                  #  INPUT/OUTPUT INFORMATION
000621:
000622:                                                                                                  #        A. CALLING SEQUENCE                     TC GOTOPOOH
000623:                                                                                                  #        B. ERASABLE INITIALIZATION              NONE
000624:                                                                                                  #        C. OUTPUT FLASH V 37 ON DSKY
000625:                                                                                                  #        D. DEBRIS                               L
000626:
000627:                                                                                                  #  PROGRAM ANALYSIS
000628:
000629:                                                                                                  #        A. SUBROUTINES CALLED                   PRIODSPR, LINUS
000630:                                                                                                  #        B. NORMAL EXIT                          TCF ENDOFJOB
000631:                                                                                                  #        C. ALARM AND ABORT EXITS                NONE
000632:
000633:    6001                                           BLOCK    03
000634:    6000                                           SETLOC   FFTAG5
000635:    6000                                           BANK
000636:
000637:    6001                                           COUNT*   $$/P00
000638:    6001           34764        GOTOPOOH           CAF      OCT33                                 #  4.33 SPOT FOR GOPOOFIX
000639:    6002           54001                           TS       L
000640:    6003           40000                           COM
000641:    6004           52761                           DXCH     -PHASE4
000642:
000643:    6005           04635                           TC       POSTJUMP
000644:    6006           10024                           CADR     GOPOOFIX
000645:    6007           00024        OCT24              MM       20         B-14
000646:    6010           00031        OCT31              MM       25         B-14
000647:
000648: 20,2004                                           BANK     20
000649: 04,2000                                           SETLOC   VERB37
000650: 04,2000                                           BANK
000651:
000652: 04,2024                                           COUNT*   $$/P00                                #  VERB 37 AND P00 IN BANK 4.
000653: 04,2024           05516        GOPOOFIX           TC       DOWNFLAG                              #  ALLOW X-AXIS OVERRIDE
000654: 04,2025           00311                           ADRES    XOVINFLG
000655:
000656: 04,2026           05516                           TC       DOWNFLAG                              #  INSURE THAT ULLAGE IS OFF
000657: 04,2027           00314                           ADRES    ULLAGFLG


000659: 04,2030           05476                           TC       CLEARMRK   +2                         #  RELEASE MARK DISPLAY SYSTEM.
000660: 04,2031           32037                           CAF      V37N99
000661: 04,2032           04616                           TC       BANKCALL
000662: 04,2033           20476                           CADR     GOFLASH
000663: 04,2034           12031                           TCF      -3
000664: 04,2035           12031                           TCF      -4
000665: 04,2036           12031                           TCF      -5
000666:
000667: 04,2037           11343        V37N99             VN       3799
000668:


000670:                                                                                                  #  PROGRAM NAME          V37                     ASSEMBLY SUNDANCE
000671:
000672:                                                                                                  #  LOG SECTION           FRESH START AND RESTART
000673:
000674:                                                                                                  #  FUNCTIONAL DESCRIPTION
000675:
000676:                                                                                                  #        1. CHECK IF NEW PROGRAM ALLOWED.  IF BIT 1 OF FLAGWRD2 (NODOFLAG) IS SET, AN ALARM 1520 IS CALLED.
000677:                                                                                                  #        2. CHECK FOR VALIDITY OF PROGRAM SELECTED.  IF AN INVALID PROGRAM IS SELECTED, THE OPERATOR ERROR LIGHT IS
000678:                                                                                                  #           SET AND CURRENT ACTIVITY, IF ANY, CONTINUES.
000679:                                                                                                  #        3. SERVICER IS TERMINATED IF IT HAS BEEN RUNNING.
000680:                                                                                                  #        4. INSTALL IS EXECUTED TO AVOID INTERRUPTING INTEGRATION.
000681:                                                                                                  #        5. THE ENGINE IS TURNED OFF AND THE DAP IS INITIALIZED FOR COAST.
000682:                                                                                                  #        6. TRACK AND UPDATE FLAGS ARE SET TO ZERO.
000683:                                                                                                  #        7. DISPLAY SYSTEM IS RELEASED.
000684:                                                                                                  #        8. THE FOLLOWING ARE PERFORMED FOR EACH OF THE THREE CASES.
000685:                                                                                                  #                A. PROGRAM SELECTED IS P00.
000686:                                                                                                  #                        1. RENDEZVOUS AND P25 FLAGS ARE RESET.  (KILL P20 AND P25)
000687:                                                                                                  #                        2. STATINT1 IS SCHEDULED BY SETTING RESTART GROUP 2.
000688:                                                                                                  #                        3. MAJOR MODE 00 IS STORED IN THE MODE REGISTER (MODREG).
000689:                                                                                                  #                        4. SUPERBANK 3 IS SELECTED.
000690:                                                                                                  #                        5. NODOFLAG IS RESET.
000691:                                                                                                  #                        6. ALL RESTART GROUPS EXCEPT GROUP2 ARE CLEARED. CONTROL IS TRANSFERRED TO RESTART PROGRAM (GOPROG2)
000692:                                                                                                  #                           WHICH CAUSES ALL CURRENT ACTIVITY TO BE DISCONTINUED AND A 9 MINUTE INTEGRATION CYCLE TO BE
000693:                                                                                                  #                           INITIATED.
000694:                                                                                                  #                B. PROGRAM SELECTED IS P20 OR P25.
000695:                                                                                                  #                        1. IF THE CURRENT MAJOR MODE IS THE SAME AS THE SELECTED NEWPROGRAM, THE PROGRAM IS RE-INITIALIZED
000696:                                                                                                  #                           VIA V37XEQ, ALL RESTART GROUPS, EXCEPT GROUP 4 ARE CLEARED.
000697:                                                                                                  #                        2. IF THE CURRENT MAJOR MODE IS NOT EQUAL TO THE NEW REQUEST, A CHECK IS MADE TO SEE IF THE REQUEST-
000698:                                                                                                  #                           ED MAJOR MODE HAS BEEN RUNNING IN THE BACKGROUND,
000699:                                                                                                  #                           AND IF IT HAS, NO NEW PROGRAM IS SCHEDULED, THE EXISTING
000700:                                                                                                  #                           P20 OR P25 IS RESTARTED TO CONTINUE, AND ITS MM IS SET.
000701:                                                                                                  #                        3. CONTROL IS TRANSFERRED TO GOPROG2.
000702:                                                                                                  #                C. PROGRAM SELECTED IS NEITHER P00, P20, NOR P25
000703:                                                                                                  #                        1. V37XEQ IS SCHEDULED (AS A JOB) BY SETTING RESTART GROUP 4
000704:                                                                                                  #                        2. ALL CURRENT ACTIVITY EXCEPT RENDEZVOUS AND TRACKING IS DISCONTINUED BY CLEARING ALL RESTART
000705:                                                                                                  #                           GROUPS.  IF THE RENDEZVOUS OR THE P25 FLAG IS ON, GROUP 2 IS NOT CLEARED, ALLOWING THESE PROGRAMS
000706:                                                                                                  #                           TO CONTINUE.
000707:
000708:                                                                                                  #  INPUT/OUTPUT INFORMATION
000709:
000710:                                                                                                  #        A. CALLING SEQUENCE
000711:                                                                                                  #                CONTROL IS DIRECTED TO V37 BY THE VERBFAN ROUTINE.
000712:                                                                                                  #                VERBFAN GOES TO C(VERBTAB+C(VERBREG)). VERB 37 = MMCHANG.
000713:                                                                                                  #                MMCHANG EXECUTES A   TC POSTJUMP, CADR V37.
000714:
000715:                                                                                                  #        B. ERASABLE INITIALIZATION              NONE
000716:
000717:                                                                                                  #        C. OUTPUT


000719:                                                                                                  #                MAJOR MODE CHANGE
000720:
000721:                                                                                                  #        D. DEBRIS
000722:                                                                                                  #                MMNUMBER, MPAC +1, MINDEX, BASETEMP +C(MINDEX), FLAGWRD0, FLAGWRD1, FLAGWRD2, MODREG, GOLOC -1,
000723:                                                                                                  #                GOLOC, GOLOC +1, GOLOC +2, BASETEMP, -PHASE2, PHASE2, -PHASE4
000724:
000725:                                                                                                  #  PROGRAM ANALYSIS
000726:
000727:                                                                                                  #        A. SUBROUTINES CALLED
000728:                                                                                                  #                ALARM, RELDSP, PINBRNCH, INTSTALL, ENGINOF2, ALLCOAST, V37KLEAN, GOPROG2, FALTON, FINDVAC, SUPERSW,
000729:                                                                                                  #                DSPMM
000730:
000731:                                                                                                  #        B. NORMAL EXIT                          TC ENDOFJOB
000732:
000733:                                                                                                  #        C. ALARMS                               1520 (MAJOR MODE CHANGE NOT PERMITTED)
000734:
000735: 04,2040           54775        V37                TS       MMNUMBER                              #  SAVE MAJOR MODE
000736: 04,2041           34355                           CAF      PRIO30                                #  RESTART AT PINBALL PRIORITY
000737: 04,2042           54366                           TS       RESTREG
000738:
000739: 04,2043           31302                           CA       IMODES30                              #  IS IMU BEINB INITIALIZED
000740: 04,2044           74746                           MASK     BIT6
000741: 04,2045           10000                           CCS      A
000742: 04,2046           12065                           TCF      CANTROO
000743:
000744: 04,2047           40775                           CS       MMNUMBER                              #  IS P70 REQUESTED?
000745: 04,2050           62400                           AD       DEC70
000746: 04,2051           00006                           EXTEND
000747: 04,2052           12373                           BZF      SETUP70                               #  YES
000748: 04,2053           64753                           AD       ONE                                   #  IS P71 REQUESTED?
000749: 04,2054           00006                           EXTEND
000750: 04,2055           12372                           BZF      SETUP71                               #  YES
000751:
000752: 04,2056           30775                           CA       MMNUMBER                              #  IS NEW REQUEST POO
000753: 04,2057           00006                           EXTEND
000754: 04,2060           12107                           BZF      ISSERVON                              #  YES, CHECK SERVICER STATUS
000755:
000756: 04,2061           40076                           CS       FLAGWRD2                              #  NO, IS NODO V37 FLAG SET
000757: 04,2062           74753                           MASK     NODOBIT
000758: 04,2063           10000                           CCS      A
000759: 04,2064           12072                           TCF      CHECKTAB                              #  NO
000760: 04,2065           05567        CANTROO            TC       ALARM
000761: 04,2066           01520                           OCT      1520
000762:
000763: 04,2067           04457        V37BAD             TC       RELDSP                                #  RELEASES DISPLAY FROM ASTRONAUT
000764:
000765: 04,2070           04635                           TC       POSTJUMP                              #  BRING BACK LAST NORMAL DISPLAY IF THERE
000766: 04,2071           21050                           CADR     PINBRNCH                              #  WAS ONE.  OTHERWISE DO AN EOJ.
000767:
000768: 04,2072           32477        CHECKTAB           CA       NOV37MM                               #  INDEX FOR MM TABLES.
000769:


000771: 04,2073           54155        AGAINMM            TS       MPAC       +1
000772: 04,2074           50155                           NDX      MPAC       +1
000773: 04,2075           32441                           CA       PREMM1                                #  OBTAIN WHICH MM THIS IS FOR
000774: 04,2076           76074                           MASK     LOW7
000775: 04,2077           40000                           COM
000776: 04,2100           60775                           AD       MMNUMBER
000777: 04,2101           10000                           CCS      A
000778: 04,2102           10155                           CCS      MPAC       +1                         #  IF GR, SEE IF ANY MORE IN LIST
000779: 04,2103           12073                           TCF      AGAINMM                               #  YES, GET NEXT ONE
000780: 04,2104           12322                           TCF      V37NONO                               #  LAST TIME OR PASSED MM
000781:
000782: 04,2105           30155                           CA       MPAC       +1
000783: 04,2106           54774                           TS       MINDEX                                #  SAVE INDEX FOR LATER
000784:
000785: 04,2107           40103        ISSERVON           CS       FLAGWRD7                              #  V37 FLAG SET - I.E. IS SERVICER GOING
000786: 04,2110           74746                           MASK     V37FLBIT
000787: 04,2111           10000                           CCS      A
000788: 04,2112           12134                           TCF      CANV37                                #  NO
000789:
000790: 04,2113           05516                           TC       DOWNFLAG                              #  YES, TURN OFF THE AVERAGE FLAG AND
000791: 04,2114           00163                           ADRES    AVEGFLAG                              #  WAIT FOR SERVICER TO RETURN TO CANV37.
000792:
000793: 04,2115           32366                           CAF      V37RETAD
000794: 04,2116           55260                           TS       OUTROUTE
000795:
000796: 04,2117           15155                           TCF      ENDOFJOB
000797:
000798: 04,2120           40074        V37RET             CS       FLAGWRD0                              #  IS P20 OR P22 RUNNING?
000799: 04,2121           74745                           MASK     RNDVZBIT
000800: 04,2122           10000                           CCS      A
000801: 04,2123           12125                           TCF      +2                                    #  NO. CHECK FOR P25.
000802: 04,2124           12132                           TCF      2.7SPT                                #  YES. DO 2.7SPOT
000803: 04,2125           40074                           CS       FLAGWRD0                              #  IS P25 RUNNING?
000804: 04,2126           74743                           MASK     P25FLBIT
000805: 04,2127           10000                           CCS      A
000806: 04,2130           32367        2.0SPT             CA       OCT37667
000807: 04,2131           64747        2.11SPT            AD       BIT5
000808: 04,2132           62370        2.7SPT             AD       OCT40072
000809: 04,2133           05357                           TC       PHSCHNGA
000810:
000811: 04,2134           34755        CANV37             CAF      ZERO
000812: 04,2135           00006                           EXTEND
000813: 04,2136           01007                           WRITE    SUPERBNK
000814:
000815: 04,2137           32365                           CAF      ROOAD
000816: 04,2140           54374                           TS       TEMPFLSH
000817:
000818: 04,2141           05353                           TC       PHASCHNG
000819: 04,2142           00014                           OCT      14
000820:


000822:
000823: 04,2143           06037        ROO                TC       INTPRET
000824:
000825: 04,2144           77624                           CALL                                           #  WAIT FOR INTEGRATION TO FINISH
000826: 04,2145           27414                                    INTSTALL
000827: 04,2146           77776        DUMMYAD            EXIT
000828:
000829: 04,2147           05516                           TC       DOWNFLAG
000830: 04,2150           00124                           ADRES    3AXISFLG                              #  RESET 3-AXIS FLAG
000831:
000832: 04,2151           34735                           CAF      LRBYBIT                               #  CLEAN UP THE R12 FLAGWORD.
000833: 04,2152           54107                           TS       FLGWRD11
000834:
000835: 04,2153           05516                           TC       DOWNFLAG                              #  INSURE THAT THE R04FLAG IS CLEAR.
000836: 04,2154           00063                           ADRES    R04FLAG
000837:
000838: 04,2155           05516                           TC       DOWNFLAG                              #  INSURE MUNFLAG IS CLEAR.
000839: 04,2156           00141                           ADRES    MUNFLAG
000840:
000841: 04,2157           05516                           TC       DOWNFLAG                              #  ALLOW X-AXIS OVERRIDE.
000842: 04,2160           00311                           ADRES    XOVINFLG
000843: 04,2161           10775                           CCS      MMNUMBER                              #  IS THIS A POOH REQUEST
000844: 04,2162           12310                           TCF      NOUVEAU                               #  NO, PICK UP NEW PROGRAM
000845:
000846: 04,2163           04457        POOH               TC       RELDSP                                #  RELEASE DISPLAY SYSTEM
000847:
000848: 04,2164           35017                           CAF      PRIO5                                 #  SET VARIABLE RESTART PRIORITY FOR
000849: 04,2165           55056                           TS       PHSPRDT2                              #  P00 INTEGRATION.
000850:
000851: 04,2166           06011                           TC       CLRADMOD                              #  CLRADMOD DOES AN INHINT.
000852:
000853: 04,2167           44753                           CS       NODOBIT                               #  TURN OFF NODOFLAG.
000854: 04,2170           70076                           MASK     FLAGWRD2
000855: 04,2171           54076                           TS       FLAGWRD2
000856:
000857: 04,2172           34756                           CA       FIVE                                  #  SET RESTART FOR STATEINT1
000858: 04,2173           54001                           TS       L
000859: 04,2174           40000                           COM
000860: 04,2175           52755                           DXCH     -PHASE2
000861:
000862: 04,2176           42371                           CS       OCT700                                #  TURN OFF P20, P25, IMU IN USE FLAG
000863: 04,2177           70074                           MASK     FLAGWRD0
000864: 04,2200           54074                           TS       FLAGWRD0                              #                         RENDFLG
000865:
000866: 04,2201           34755                           CAF      DNLADP00
000867:
000868: 04,2202           54332        SEUDOPOO           TS       DNLSTCOD                              #  SET UP APPROPRIATE DOWNLIST CODE
000869: 04,2203           55324                           TS       AGSWORD                               #    (CURRENT LIST WILL BE COMPLETED BEFORE
000870:                                                                                                  #      NEW ONE IS STARTED)
000871: 04,2204           04674                           TC       IBNKCALL
000872: 04,2205           75555                           CADR     ENGINOF1
000873:


000875: 04,2206           04674                           TC       IBNKCALL                              #  INSURE ALLCOAST.
000876: 04,2207           40204                           CADR     ALLCOAST                              #  DOES A RESTORDB.
000877:
000878: 04,2210           44775                           CS       OCT120                                #  TURN OFF TRACK, UPDATE FLAGS
000879: 04,2211           55072                           TS       EBANKTEM
000880: 04,2212           70075                           MASK     FLAGWRD1
000881: 04,2213           54075                           TS       FLAGWRD1
000882:
000883: 04,2214           04674                           TC       IBNKCALL                              #  KILL GROUPS 1,3,5,6
000884: 04,2215           12652                           CADR     V37KLEAN
000885:
000886: 04,2216           10775                           CCS      MMNUMBER                              #  IS IT POOH
000887: 04,2217           12226                           TCF      RENDVOO                               #  NO
000888: 04,2220           04674        GOMOD              TC       IBNKCALL                              #  REDUNDANT EXCEPT FOR GROUP 4
000889: 04,2221           12647                           CADR     POOKLEAN
000890:
000891: 04,2222           30775                           CA       MMNUMBER
000892: 04,2223           55011                           TS       MODREG
000893:
000894: 04,2224           04635        GOGOPROG           TC       POSTJUMP
000895: 04,2225           12770                           CADR     GOPROG2
000896:
000897: 04,2226           41011        RENDVOO            CS       MODREG                                #  IS CURRENT PROGRAM 22
000898: 04,2227           62326                           AD       OCT26
000899: 04,2230           00006                           EXTEND
000900: 04,2231           12250                           BZF      RESET22                               #  YES - CLEAR RENDEZVOUS FLAG
000901:
000902: 04,2232           40775                           CS       MMNUMBER                              #  IS NEW PROGRAM P22
000903: 04,2233           62326                           AD       OCT26
000904: 04,2234           00006                           EXTEND
000905: 04,2235           12250                           BZF      RESET22
000906:
000907: 04,2236           67746                           AD       NEG2                                  #  IS NEW PROGRAM = P20 OR P25
000908: 04,2237           00006                           EXTEND
000909: 04,2240           12262                           BZF      RENDNOO                               #  YES
000910: 04,2241           64756                           AD       FIVE                                  #  25
000911: 04,2242           00006                           EXTEND
000912: 04,2243           12262                           BZF      RENDNOO                               #  YES
000913:
000914: 04,2244           32324                           CA       OCT500                                #  NO, IS EITHER P20 OR P25 RUNNING
000915: 04,2245           70074                           MASK     FLAGWRD0
000916: 04,2246           10000                           CCS      A
000917: 04,2247           12257                           TCF      POOFIZZ                               #  YES, LEAVE GROUP 2 TO PICK UP P20 OR P25
000918:
000919: 04,2250           42371        RESET22            CS       OCT700                                #  CLEAR RENDEZVOUS, P25
000920: 04,2251           70074                           MASK     FLAGWRD0                              #  AND IMU IN USE FLAGS
000921: 04,2252           54074                           TS       FLAGWRD0
000922: 04,2253           06011                           TC       CLRADMOD


000924:
000925: 04,2254           00006        KILL2              EXTEND                                         #  NO, KILL 2
000926: 04,2255           34755                           DCA      NEG0
000927: 04,2256           52755                           DXCH     -PHASE2
000928:
000929: 04,2257           32364        POOFIZZ            CAF      V37QCAD                               #  RESTART POINT FOR V37XEQ
000930: 04,2260           54374                           TS       TEMPFLSH
000931:
000932: 04,2261           12224                           TCF      GOGOPROG
000933:
000934: 04,2262           41011        RENDNOO            CS       MODREG
000935: 04,2263           66007                           AD       OCT24
000936: 04,2264           00006                           EXTEND
000937: 04,2265           12254                           BZF      KILL2                                 #  P20 OR P25 ON TOP OF P20 OR P25 -
000938:
000939: 04,2266           64756                           AD       FIVE
000940: 04,2267           00006                           EXTEND
000941: 04,2270           12254                           BZF      KILL2
000942:
000943: 04,2271           32324                           CA       OCT500
000944: 04,2272           70074                           MASK     FLAGWRD0
000945: 04,2273           60775                           AD       MMNUMBER
000946: 04,2274           40000                           COM
000947: 04,2275           62327                           AD       P20REG                                #  IS IT 20 AND IS RENDEZVOUS FLAG ON
000948: 04,2276           00006                           EXTEND
000949: 04,2277           12304                           BZF      STATQUO                               #  YES
000950: 04,2300           62325                           AD       OCT305                                #  IS IT 25 AND IS P25 BIT ON
000951: 04,2301           00006                           EXTEND
000952: 04,2302           12304                           BZF      STATQUO                               #  YES, LEAVE AS IS
000953: 04,2303           12254                           TCF      KILL2
000954:
000955: 04,2304           40075        STATQUO            CS       FLAGWRD1                              #  SET TRACKFLAG
000956: 04,2305           74775                           MASK     OCT120                                #        UPDATE FLAG
000957: 04,2306           26075                           ADS      FLAGWRD1
000958:
000959: 04,2307           12220                           TCF      GOMOD
000960:
000961: 04,2310           32324        NOUVEAU            CAF      OCT500                                #  IS P20 OR P25 FLAG SET
000962: 04,2311           70074                           MASK     FLAGWRD0
000963: 04,2312           10000                           CCS      A
000964: 04,2313           12316                           TCF      +3                                    #  YES
000965: 04,2314           05516                           TC       DOWNFLAG                              #  NO, RESET IMUINUSE FLAG
000966: 04,2315           00007                           ADRES    IMUSE
000967:
000968: 04,2316           50774                           INDEX    MINDEX
000969: 04,2317           32500                           CAF      DNLADMM1                              #  OBTAIN APPROPRIATE DOWNLIST ADDRESS
000970:
000971: 04,2320           00004                           INHINT
000972: 04,2321           12202                           TCF      SEUDOPOO
000973:
000974: 04,2322           04364        V37NONO            TC       FALTON                                #  COME HERE IF MM REQUESTED DOESNT EXIST


000976: 04,2323           12067                           TCF      V37BAD
000977:
000978: 04,2324     4750               OCT00010           EQUALS   BIT4
000979: 04,2324           00500        OCT500             OCT      500                                   #  BITS 7 AND 9
000980: 04,2325           00305        OCT305             OCT      305
000981: 04,2326           00026        OCT26              OCT      26
000982: 04,2327           00124        P20REG             OCT      124
000983:
000984: 04,2330           00004        V37XEQ             INHINT
000985: 04,2331           50774                           INDEX    MINDEX
000986: 04,2332           32441                           CAF      PREMM1                                #  OBTAIN PRIO, EBANK, AND MM
000987: 04,2333           55060                           TS       MMTEMP
000988: 04,2334           54020                           TS       CYR                                   #  SHIFT RIGHT TO BITS 14-10
000989:
000990: 04,2335           30020                           CA       CYR
000991: 04,2336           77725                           MASK     PRIO37
000992: 04,2337           55062                           TS       PHSPRDT4                              #  PRESET GROUP 4 RESTART PRIORITY
000993: 04,2340           54063                           TS       NEWPRIO                               #  STORE PRIO FOR SPVAC
000994:
000995: 04,2341           31060                           CA       MMTEMP                                #  OBTAIN EBANK - BITS 8, 9, 10 OF MMTEMP.
000996: 04,2342           00006                           EXTEND
000997: 04,2343           74744                           MP       BIT8
000998: 04,2344           74757                           MASK     LOW3
000999: 04,2345           54001                           TS       L
001000:
001001: 04,2346           50774                           INDEX    MINDEX
001002: 04,2347           32403                           CAF      FCADRMM1
001003: 04,2350           55061                           TS       BASETEMP                              #  MAKE BBCON BY ADDING HI5 OF FCADR
001004: 04,2351           74350                           MASK     HI5
001005: 04,2352           26001                           ADS      L
001006:
001007: 04,2353           31061                           CA       BASETEMP                              #  OBTAIN GENADR PORTION OF 2CADR.
001008: 04,2354           75012                           MASK     LOW10
001009: 04,2355           64741                           AD       BIT11
001010:
001011: 04,2356           05116                           TC       SPVAC
001012:
001013: 04,2357           31060        V37XEQC            CA       MMTEMP                                #  UPON RETURN FROM FINDVAC PLACE THE
001014: 04,2360           76074                           MASK     LOW7                                  #  NEW MM IN MODREG (THE LOW 7 BITS OF
001015: 04,2361           05314                           TC       NEWMODEA                              #  PHSPRDT1)
001016:
001017: 04,2362           04457                           TC       RELDSP                                #  RELEASE DISPLAY
001018: 04,2363           05155                           TC       ENDOFJOB                              #  AND EXIT
001019:
001020: 04,2364     5660               NEG7               EQUALS   OCT77770
001021:
001022: 04,2364     1060               MMTEMP             EQUALS   PHSPRDT3
001023: 04,2364     1061               BASETEMP           EQUALS   TBASE4
001024: 04,2364           10333        V37QCAD            CADR     V37XEQ     +3
001025: 04,2365           10146        ROOAD              CADR     DUMMYAD
001026:


001028: 04,2366           10120        V37RETAD           CADR     V37RET
001029: 04,2367           37667        OCT37667           OCT      37667
001030: 04,2370           40072        OCT40072           OCT      40072
001031: 04,2371           00700        OCT700             OCT      700
001032:
001033: 04,2372           36245        SETUP71            CAF      THREE
001034: 04,2373           54002        SETUP70            TS       Q
001035: 04,2374           00006                           EXTEND
001036: 04,2375           32402                           DCA      P70CADR
001037: 04,2376           60002                           AD       Q
001038: 04,2377           52006                           DTCB
001039:
001040: 04,2400           00106        DEC70              DEC      70         B-14
001041: 04,2401  E7,1520                                  EBANK=   R
001042: 04,2401           02072 42067  P70CADR            2CADR    P70
001043:
001044:                                                                                                  #  FOR VERB 37 TWO TABLES ARE MAINTAINED.  EACH TABLE HAS AN ENTRY FOR EACH
001045:                                                                                                  #  MAJOR MODE THAT CAN BE STARTED FROM THE KEYBOARD.  THE ENTRIES ARE PUT
001046:                                                                                                  #  INTO THE TABLE WITH THE ENTRY FOR THE HIGHEST MAJOR MODE COMING FIRST,
001047:                                                                                                  #  TO THE LOWEST MAJOR MODE WHICH IS THE LAST ENTRY IN EACH TABLE.
001048:
001049:                                                                                                  #  THE FCADRMM TABLE CONTAINS THE FCADR OF THE STARTING JOB OF
001050:                                                                                                  #  THE MAJOR MODE.  FOR EXAMPLE,
001051:
001052:                                                                                                  #        FCADRMM1        FCADR   P79             START OF P 79
001053:                                                                                                  #                        FCADR   PROG18          START OF P 18
001054:                                                                                                  #                        FCADR   P01             START OF P 01
001055:
001056:                                                                                                  #  NOTE,         THE FIRST ENTRY MUST BE LABLED FCADRMM1.
001057:                                                                                                  #  ----
001058:
001059: 04,2403           71526        FCADRMM1           FCADR    P79
001060: 04,2404           71274                           FCADR    P78
001061: 04,2405           26207                           FCADR    P76
001062: 04,2406           72731                           FCADR    P75
001063: 04,2407           72547                           FCADR    P74
001064: 04,2410           72220                           FCADR    P73
001065: 04,2411           72031                           FCADR    P72
001066: 04,2412           62144                           FCADR    LANDJUNK
001067: 04,2413           64776                           FCADR    P63LM
001068: 04,2414           33314                           FCADR    P57
001069: 04,2415           32050                           FCADR    PROG52
001070: 04,2416           31427                           FCADR    P51
001071: 04,2417           75436                           FCADR    P47LM
001072: 04,2420           75410                           FCADR    P42LM
001073: 04,2421           75272                           FCADR    P41LM
001074: 04,2422           75147                           FCADR    P40LM
001075: 04,2423           71521                           FCADR    P39
001076: 04,2424           71271                           FCADR    P38


001078: 04,2425           72725                           FCADR    P35
001079: 04,2426           72545                           FCADR    P34
001080: 04,2427           72216                           FCADR    P33
001081: 04,2430           72027                           FCADR    P32
001082: 04,2431           72450                           FCADR    P31
001083: 04,2432           72000                           FCADR    P30
001084: 04,2433           50404                           FCADR    PROG25
001085: 04,2434           50000                           FCADR    PROG22
001086: 04,2435           51505                           FCADR    PROG21
001087: 04,2436           50000                           FCADR    PROG20
001088: 04,2437           60061                           FCADR    P12LM
001089: 04,2440           77655                           FCADR    P06
001090:
001091:                                                                                                  #  THE PREMM TABLE CONTAINS THE E-BANK, MAJOR MODE, AND PRIORITY
001092:                                                                                                  #  INFORMATION, IT IS IN THE FOLLOWING FORM,
001093:
001094:                                                                                                  #        PPP PPE EEM MMM MMM
001095:
001096:                                                                                                  #        WHERE THE       7 M BITS CONTAIN THE MAJOR MODE NUMBER
001097:                                                                                                  #                        3 E BITS CONTAIN THE E-BANK NUMBER
001098:                                                                                                  #                        5 P BITS CONTAIN THE PRIORITY AT WHICH THE JOB IS
001099:                                                                                                  #                            TO BE STARTED
001100:
001101:                                                                                                  #        FOR EXAMPLE,
001102:
001103:                                                                                                  #                PREMM1          OCT     67213           PRIORITY        33
001104:                                                                                                  #                                                        E-BANK  5
001105:                                                                                                  #                                                        MAJOR MODE      11
001106:                                                                                                  #                                OCT     25437           PRIORITY        12
001107:                                                                                                  #                                                        E-BANK  6
001108:                                                                                                  #                                                        MAJOR MODE      31
001109:
001110:                                                                                                  #  NOTE,         THE FIRST ENTRY MUST BE LABELED PREMM1
001111:
001112: 04,2441           27717        PREMM1             OCT      27717                                 #  MM 79         EBANK 7         PRIO 13
001113: 04,2442           27716                           OCT      27716                                 #  MM 78         EBANK 7         PRIO 13
001114: 04,2443           27714                           OCT      27714                                 #  MM 76         EBANK 7         PRIO 13
001115: 04,2444           27713                           OCT      27713                                 #  MM 75         EBANK 7         PRIO 13
001116: 04,2445           27712                           OCT      27712                                 #  MM 74         EBANK 7         PRIO 13
001117: 04,2446           27711                           OCT      27711                                 #  MM 73         EBANK 7         PRIO 13
001118: 04,2447           27710                           OCT      27710                                 #  MM 72         EBANK 7         PRIO 13
001119: 04,2450           27704                           OCT      27704                                 #  MM 68         EBANK 7         PRIO 13
001120: 04,2451           27677                           OCT      27677                                 #  MM 63         EBANK 7         PRIO 13
001121: 04,2452           27271                           OCT      27271                                 #  MM 57         EBANK 5         PRIO 13
001122: 04,2453           27264                           OCT      27264                                 #  MM 52         EBANK 5         PRIO 13
001123: 04,2454           27263                           OCT      27263                                 #  MM 51         EBANK 5         PRIO 13
001124: 04,2455           27657                           OCT      27657                                 #  MM 47         EBANK 7         PRIO 13
001125: 04,2456           27652                           OCT      27652                                 #  MM 42         EBANK 7         PRIO 13
001126: 04,2457           27651                           OCT      27651                                 #  MM 41         EBANK 7         PRIO 13
001127: 04,2460           27650                           OCT      27650                                 #  MM 40         EBANK 7         PRIO 13
001128: 04,2461           27647                           OCT      27647                                 #  MM 39         EBANK 7         PRIO 13
001129: 04,2462           27646                           OCT      27646                                 #  MM 38         EBANK 7         PRIO 13


001131: 04,2463           27643                           OCT      27643                                 #  MM 35         EBANK 7         PRIO 13
001132: 04,2464           27642                           OCT      27642                                 #  MM 34         EBANK 7         PRIO 13
001133: 04,2465           27641                           OCT      27641                                 #  MM 33         EBANK 7         PRIO 13
001134: 04,2466           27640                           OCT      27640                                 #  MM 32         EBANK 7         PRIO 13
001135: 04,2467           27637                           OCT      27637                                 #  MM 31         EBANK 7         PRIO 13
001136: 04,2470           27636                           OCT      27636                                 #  MM 30         EBANK 7         PRIO 13
001137: 04,2471           27631                           OCT      27631                                 #  MM 25         EBANK 7         PRIO 13
001138: 04,2472           27626                           OCT      27626                                 #  MM 22         EBANK 7         PRIO 13
001139: 04,2473           27625                           OCT      27625                                 #  MM 21         EBANK 7         PRIO 13
001140: 04,2474           27624                           OCT      27624                                 #  MM 20         EBANK 7         PRIO 13
001141: 04,2475           27614                           OCT      27614                                 #  MM 12         EBANK 7         PRIO 13
001142: 04,2476           27006                           OCT      27006                                 #  MM 06         EBANK 4         PRIO 13
001143:
001144:                                                                                                  #  NOTE,         THE FOLLOWING CONSTANT IS THE NUMBER OF ENTRIES IN EACH OF
001145:                                                                                                  #  ----          THE ABOVE LISTS-1(IE, THE NUMBER OF MAJOR MODES (EXCEPT P00)
001146:                                                                                                  #                THAT CAN BE CALLED FROM THE KEYBOARD MINUS ONE)
001147:
001148: 04,2477           00035        NOV37MM            DEC      29         B-14                       #  MM'S -1
001149:
001150: 04,2500           00002        DNLADMM1           ADRES    RENDEZVU                              #  P79
001151: 04,2501           00002                           ADRES    RENDEZVU                              #  P78
001152: 04,2502           00002                           ADRES    RENDEZVU
001153: 04,2503           00002                           ADRES    RENDEZVU                              #  P75
001154: 04,2504           00002                           ADRES    RENDEZVU                              #  P74
001155: 04,2505           00002                           ADRES    RENDEZVU                              #  P73
001156: 04,2506           00002                           ADRES    RENDEZVU                              #  P72
001157: 04,2507           00004                           ADRES    DESASCNT                              #  P68
001158: 04,2510           00004                           ADRES    DESASCNT                              #  P63
001159: 04,2511           00005                           ADRES    LUNRSALN                              #  P57
001160: 04,2512           00000                           ADRES    COSTALIN                              #  P52
001161: 04,2513           00000                           ADRES    COSTALIN                              #  P51
001162: 04,2514           00003                           ADRES    ORBMANUV                              #  P47
001163: 04,2515           00003                           ADRES    ORBMANUV                              #  P42
001164: 04,2516           00003                           ADRES    ORBMANUV                              #  P41
001165: 04,2517           00003                           ADRES    ORBMANUV                              #  P40
001166: 04,2520           00002                           ADRES    RENDEZVU                              #  P39
001167: 04,2521           00002                           ADRES    RENDEZVU                              #  P38
001168: 04,2522           00002                           ADRES    RENDEZVU                              #  P35
001169: 04,2523           00002                           ADRES    RENDEZVU                              #  P34
001170: 04,2524           00002                           ADRES    RENDEZVU                              #  P33
001171: 04,2525           00002                           ADRES    RENDEZVU                              #  P32
001172: 04,2526           00002                           ADRES    RENDEZVU                              #  P31LM
001173: 04,2527           00002                           ADRES    RENDEZVU                              #  P30
001174: 04,2530           00002                           ADRES    RENDEZVU                              #  P25
001175: 04,2531           00005                           ADRES    LUNRSALN                              #  P22
001176: 04,2532           00002                           ADRES    RENDEZVU                              #  P21
001177: 04,2533           00002                           ADRES    RENDEZVU                              #  P20
001178: 04,2534           00004                           ADRES    DESASCNT                              #  P12
001179: 04,2535           00000                           ADRES    COSTALIN                              #  P06
001180: 04,2536     4755               DNLADP00           =        ZERO
001181: 04,2536                        COSTALIN           =        0


001183: 04,2536                        AGSUPDAT           =        1
001184: 04,2536                        RENDEZVU           =        2
001185: 04,2536                        ORBMANUV           =        3
001186: 04,2536                        DESASCNT           =        4
001187: 04,2536                        LUNRSALN           =        5
001188:
001189: 13,2026                                           BANK     13
001190: 13,2000                                           SETLOC   INTINIT
001191: 13,2000                                           BANK
001192:
001193: 13,2026                                           COUNT*   $$/INTIN
001194:
001195: 13,2026  E3,1554                                  EBANK=   RRECTCSM
001196:
001197:                                                                                                  #  THIS ROUTINE DOES THE POO INTEGRATION
001198:
001199: 13,2026           43014        STATEUP            SET      BOF                                   #  EXTRAPOLATE CM STATE VECTOR
001200: 13,2027           01474                                    VINTFLAG
001201: 13,2030           04347                                    SURFFLAG                              #  ALSO 6X6 W-MATRIX IF LM ON LUNAR
001202: 13,2031           26036                                    DOINT                                 #        SURFACE AND W-MATRIX VALID
001203: 13,2032           43014                           BOF      SET                                   #        FOR RENDEZVOUS NAVIGATION.
001204: 13,2033           02756                                    RENDWFLG
001205: 13,2034           26036                                    DOINT
001206: 13,2035           01476                                    DIM0FLAG
001207: 13,2036           45014        DOINT              CLEAR    CALL
001208: 13,2037           01667                                    PRECIFLG                              #  ENGAGES 4-TIME STEP LOGIC IN INTEGRATION
001209: 13,2040           27134                                    INTEGRV                               #  WHEN MODREG = 0
001210:
001211: 13,2041           71214                           BON      DLOAD
001212: 13,2042           04307                                    SURFFLAG
001213: 13,2043           26063                                    NO-INT
001214: 13,2044           01571                                    TETCSM
001215: 13,2045           34041                           STCALL   TDEC1
001216: 13,2046           27414                                    INTSTALL
001217: 13,2047           45014                           CLEAR    CALL                                  #  EXTRAPOLATE LM STATE VECTOR
001218: 13,2050           01674                                    VINTFLAG
001219: 13,2051           26644                                    SETIFLGS
001220: 13,2052           77614                           BOF                                            #  ALSO 9X9 W-MATRIX IF W IS VALID
001221: 13,2053           02756                                    RENDWFLG
001222: 13,2054           26060                                    DOINT2
001223: 13,2055           43014                           SET      SET
001224: 13,2056           01476                                    DIM0FLAG
001225: 13,2057           01475                                    D6OR9FLG
001226: 13,2060           45014        DOINT2             SET      CALL
001227: 13,2061           01467                                    PRECIFLG                              #  DISENGAGE 4 TIME STEP LOGIC IN INTEG.
001228: 13,2062           27134                                    INTEGRV
001229: 13,2063           77614        NO-INT             CLRGO
001230: 13,2064           01236                                    NODOFLAG
001231: 13,2065           26632                                    ENDINT


001233:                                                                                                  #  THISVINT IS CALLED BY MIDTOAV1 AND 2
001234:
001235: 13,2066           43414        THISVINT           CLEAR    RVQ
001236: 13,2067           01674                                    VINTFLAG
001237:
001238:

End of include-file FRESH_START_AND_RESTART.agc.  Parent file is MAIN.agc


