
Source Code


000002:                                                                                                  ## Copyright:   Public domain.
000003:                                                                                                  ## Filename:    IMU_PERFORMANCE_TESTS_4.agc
000004:                                                                                                  ## Purpose:     A section of Luminary revision 97.
000005:                                                                                                  ##              It is part of the reconstructed source code for the
000006:                                                                                                  ##              original release of the flight software for the Lunar
000007:                                                                                                  ##              Module's (LM) Apollo Guidance Computer (AGC) for Apollo 11.
000008:                                                                                                  ##              The code has been recreated from a copy of Luminary 99
000009:                                                                                                  ##              revision 001, using asterisks indicating changed lines in
000010:                                                                                                  ##              the listing and Luminary Memos #83 and #85, which list
000011:                                                                                                  ##              changes between Luminary 97 and 98, and 98 and 99. The
000012:                                                                                                  ##              code has been adapted such that the resulting bugger words
000013:                                                                                                  ##              exactly match those specified for Luminary 97 in NASA drawing
000014:                                                                                                  ##              2021152D, which gives relatively high confidence that the
000015:                                                                                                  ##              reconstruction is correct.
000016:                                                                                                  ## Reference:   pp. 382-389
000017:                                                                                                  ## Assembler:   yaYUL
000018:                                                                                                  ## Contact:     Ron Burkey <info@sandroid.org>.
000019:                                                                                                  ## Website:     www.ibiblio.org/apollo/index.html
000020:                                                                                                  ## Mod history: 2019-07-28 MAS  Created from Luminary 99.
000021:


000023:                                                                                                  #  PROGRAM -     IMU PERFORMANCE TESTS 4
000024:                                                                                                  #  DATE -        NOV 15, 1966
000025:                                                                                                  #  BY -          GEORGE SCHMIDT IL7-146 EXT 1126
000026:                                                                                                  #  MOD NO-ZERO
000027:
000028:                                                                                                  #  FUNCTIONAL DESCRIPTION
000029:
000030:                                                                                                  #  THIS SECTION CONSISTS OF THE FILTER FOR THE GYRO DRIFT TESTS.  NO COMPASS
000031:                                                                                                  #  IS DONE IN LEM.  FOR A DESCRIPTION OF THE FILTER SEE E-1973.  THIS
000032:                                                                                                  #  SECTION IS ENTERED FROM IMU 2.  IT RETURNS THERE AT END OF TEST.
000033:
000034:                                                                                                  #  EARTHR,OGC ZERO,ERTHRVSE
000035:
000036:                                                                                                  #  NORMAL EXIT
000037:
000038:                                                                                                  #  LENGTHOT GOES TO ZERO - RETURN TO IMU PERF TESTS 2 CONTROL
000039:
000040:                                                                                                  #  ALARMS
000041:
000042:                                                                                                  #  1600  OVERFLOW IN DRIFT TEST
000043:                                                                                                  #  1601  BAD IMU MODING IN ANY ROUTINE THAT USES IMUSTALL
000044:                                                                                                  #        OUTPUT
000045:
000046:                                                                                                  #  FLASHING DISPLAY OF RESULTS - CONTROLLED IN IMU PERF TESTS 2
000047:
000048:                                                                                                  #  DEBRIS
000049:
000050:                                                                                                  #  ALL CENTRALS - ALL OF EBANK XSM
000051:


000053: 33,2045                                           BANK     33
000054: 37,2000                                           SETLOC   IMU4
000055: 37,2000                                           BANK
000056: 37,2500                                           COUNT*   $$/P07
000057:
000058: 37,2500  E5,1642                                  EBANK=   XSM
000059:
000060: 37,2500           00004        ESTIMS             INHINT
000061: 37,2501           31572                           CAE      1SECXT
000062: 37,2502           05173                           TC       TWIDDLE
000063: 37,2503  E5,1642                                  EBANK=   XSM
000064: 37,2503           02536                           ADRES    ALLOOP
000065: 37,2504           34755                           CAF      ZERO                                  #  ZERO THE PIPAS
000066: 37,2505           54037                           TS       PIPAX
000067: 37,2506           54040                           TS       PIPAY
000068: 37,2507           54041                           TS       PIPAZ
000069: 37,2510           00003                           RELINT
000070: 37,2511           33075                           CA       77DECML
000071: 37,2512           55571                           TS       ZERONDX
000072: 37,2513           33076                           CA       ALXXXZ
000073: 37,2514           02367                           TC       ZEROING
000074: 37,2515           06037                           TC       INTPRET
000075: 37,2516           77735                           SLOAD
000076: 37,2517           37057                                    SCHZEROS
000077: 37,2520           25477                           STOVL    GCOMPSW    -1
000078: 37,2521           37070                                    INTVAL     +2
000079: 37,2522           26445                           STOVL    ALX1S
000080: 37,2523           37057                                    SCHZEROS
000081: 37,2524           00325                           STORE    DELVX
000082: 37,2525           01472                           STORE    GCOMP
000083: 37,2526           77735                           SLOAD
000084: 37,2527           02441                                    TORQNDX
000085: 37,2530           50076                           DCOMP    BMN
000086: 37,2531           76534                                    VERTSKIP
000087: 37,2532           77624                           CALL
000088: 37,2533           76401                                    ERTHRVSE
000089: 37,2534           77776        VERTSKIP           EXIT
000090: 37,2535           03035                           TC       SLEEPIE    +1
000091:


000093: 37,2536           31576        ALLOOP             CA       OVFLOWCK
000094: 37,2537           00006                           EXTEND
000095: 37,2540           12542                           BZF      +2
000096: 37,2541           05261                           TC       TASKOVER
000097: 37,2542           11530                           CCS      ALTIM
000098: 37,2543           30000                           CA       A                                     #  SHOULD NEVER HIT THIS LOCATION
000099: 37,2544           55531                           TS       ALTIMS
000100: 37,2545           40000                           CS       A
000101: 37,2546           55530                           TS       ALTIM
000102: 37,2547           44753                           CS       ONE
000103: 37,2550           61562                           AD       GEOCOMPS
000104: 37,2551           00006                           EXTEND
000105: 37,2552           12556                           BZF      +4
000106: 37,2553           31412                           CA       LENGTHOT
000107: 37,2554           00006                           EXTEND
000108: 37,2555           62562                           BZMF     +5
000109: 37,2556           31572                           CAE      1SECXT
000110: 37,2557           05173                           TC       TWIDDLE
000111: 37,2560  E5,1642                                  EBANK=   XSM
000112: 37,2560           02536                           ADRES    ALLOOP
000113: 37,2561           34755                           CAF      ZERO
000114: 37,2562           56037                           XCH      PIPAX
000115: 37,2563           54324                           TS       DELVX
000116: 37,2564           34755                           CAF      ZERO
000117: 37,2565           56040                           XCH      PIPAY
000118: 37,2566           54326                           TS       DELVY
000119: 37,2567           34755                           CAF      ZERO
000120: 37,2570           56041                           XCH      PIPAZ
000121: 37,2571           54330                           TS       DELVZ
000122: 37,2572           34736        SPECSTS            CAF      PRIO20
000123: 37,2573           05105                           TC       FINDVAC
000124: 37,2574  E5,1642                                  EBANK=   XSM
000125: 37,2574           02577 76065                     2CADR    ALFLT                                 #  START THE JOB
000126:
000127: 37,2576           05261                           TC       TASKOVER
000128:


000130: 37,2577           11562        ALFLT              CCS      GEOCOMPS
000131: 37,2600           02602                           TC       +2
000132: 37,2601           02604                           TC       NORMLOP
000133: 37,2602           04616                           TC       BANKCALL
000134: 37,2603           15263                           CADR     1/PIPA
000135: 37,2604           06037        NORMLOP            TC       INTPRET
000136: 37,2605           77745                           DLOAD
000137: 37,2606           37066                                    INTVAL
000138: 37,2607           24051                           STOVL    S1
000139: 37,2610           00325                                    DELVX
000140: 37,2611           76505                           VXM      VSL1
000141: 37,2612           02643                                    XSM
000142: 37,2613           57545                           DLOAD    DCOMP
000143: 37,2614           00160                                    MPAC       +3
000144: 37,2615           16523                           STODL    DPIPAY
000145: 37,2616           00162                                    MPAC       +5
000146: 37,2617           02527                           STORE    DPIPAZ
000147:
000148: 37,2620           76001                           SETPD    AXT,1
000149: 37,2621           00001                                    0
000150: 37,2622           00010                                    8D
000151: 37,2623           57535                           SLOAD    DCOMP
000152: 37,2624           02563                                    GEOCOMPS
000153: 37,2625           77640                           BMN
000154: 37,2626           76772                                    PERFERAS
000155: 37,2627           50135        ALCGKK             SLOAD    BMN
000156: 37,2630           02532                                    ALTIMS
000157: 37,2631           76644                                    ALFLT3
000158: 37,2632           72174        ALKCG              AXT,2    LXA,1                                 #  LOADS SLOPES AND TIME CONSTANTS AT RQST
000159: 37,2633           00014                                    12D
000160: 37,2634           02444                                    ALX1S
000161: 37,2635           62143        ALKCG2             DLOAD*   INCR,1
000162: 37,2636           02243                                    ALFDK      +144D,1
000163: 37,2637           77775                           DEC      -2         B-14
000164: 37,2640           12545                           STORE    ALDK       +10D,2
000165: 37,2641           66104                           TIX,2    SXA,1
000166: 37,2642           76635                                    ALKCG2
000167: 37,2643           02444                                    ALX1S
000168:
000169: 37,2644           77770        ALFLT3             AXT,1
000170: 37,2645           00010                                    8D
000171: 37,2646           41343        DELMLP             DLOAD*   DMP
000172: 37,2647           02533                                    DPIPAY     +8D,1
000173: 37,2650           37100                                    PIPASC
000174: 37,2651           43661                           SLR      BDSU*
000175: 37,2652           21212                                    9D
000176: 37,2653           02501                                    INTY       +8D,1
000177: 37,2654           06501                           STORE    INTY       +8D,1
000178: 37,2655           40725                           PDDL     DMP*
000179: 37,2656           37102                                    VELSC


000181: 37,2657           02521                                    VLAUN      +8D,1
000182: 37,2660           77732                           SL2R
000183: 37,2661           45425                           DSU      STADR
000184: 37,2662           71216                           STORE    DELM       +8D,1
000185: 37,2663           06563                           STORE    DELM       +10D,1
000186: 37,2664           77100                           TIX,1    AXT,2
000187: 37,2665           76646                                    DELMLP
000188: 37,2666           00004                                    4
000189: 37,2667           56743        ALILP              DLOAD*   DMPR*
000190: 37,2670           75324                                    ALK        +4,2
000191: 37,2671           75240                                    ALDK       +4,2
000192: 37,2672           12453                           STORE    ALK        +4,2
000193: 37,2673           77104                           TIX,2    AXT,2
000194: 37,2674           76667                                    ALILP
000195: 37,2675           00010                                    8D
000196: 37,2676           66140        ALKLP              LXC,1    SXA,1
000197: 37,2677           02445                                    CMPX1
000198: 37,2700           02445                                    CMPX1
000199: 37,2701           56743                           DLOAD*   DMPR*
000200: 37,2702           02450                                    ALK        +1,1
000201: 37,2703           75216                                    DELM       +8D,2
000202: 37,2704           77613                           DAD*
000203: 37,2705           75276                                    INTY       +8D,2
000204: 37,2706           12501                           STORE    INTY       +8D,2
000205: 37,2707           42743                           DLOAD*   DAD*
000206: 37,2710           75314                                    ALK        +12D,2
000207: 37,2711           75230                                    ALDK       +12D,2
000208: 37,2712           12463                           STORE    ALK        +12D,2
000209: 37,2713           42673                           DMPR*    DAD*
000210: 37,2714           75216                                    DELM       +8D,2
000211: 37,2715           75266                                    INTY       +16D,2
000212: 37,2716           12511                           STORE    INTY       +16D,2
000213: 37,2717           40743                           DLOAD*   DMP*
000214: 37,2720           37105                                    ALSK       +1,1
000215: 37,2721           75216                                    DELM       +8D,2
000216: 37,2722           42772                           SL1R     DAD*
000217: 37,2723           75256                                    VLAUN      +8D,2
000218: 37,2724           12521                           STORE    VLAUN      +8D,2
000219: 37,2725           76104                           TIX,2    AXT,1
000220: 37,2726           76676                                    ALKLP
000221: 37,2727           00010                                    8D
000222:
000223: 37,2730           64743        LOOSE              DLOAD*   PDDL*
000224: 37,2731           02523                                    ACCWD      +8D,1
000225: 37,2732           02521                                    VLAUN      +8D,1
000226: 37,2733           55523                           PDDL*    VDEF
000227: 37,2734           02531                                    POSNV      +8D,1
000228: 37,2735           76521                           MXV      VSL1
000229: 37,2736           02001                                    TRANSM1


000231: 37,2737           77745                           DLOAD
000232: 37,2740           00155                                    MPAC
000233: 37,2741           06531                           STORE    POSNV      +8D,1
000234: 37,2742           77745                           DLOAD
000235: 37,2743           00160                                    MPAC       +3
000236: 37,2744           06521                           STORE    VLAUN      +8D,1
000237: 37,2745           77745                           DLOAD
000238: 37,2746           00162                                    MPAC       +5
000239: 37,2747           06523                           STORE    ACCWD      +8D,1
000240: 37,2750           77700                           TIX,1
000241: 37,2751           76730                                    LOOSE
000242:
000243: 37,2752           76174                           AXT,2    AXT,1                                 #  EVALUATE SINES AND COSINES
000244: 37,2753           00006                                    6
000245: 37,2754           00002                                    2
000246: 37,2755           57343        BOOP               DLOAD*   DMPR
000247: 37,2756           02503                                    ANGX       +2,1
000248: 37,2757           37110                                    GEORGEJ
000249: 37,2760           77722                           SR2R
000250: 37,2761           73406                           PUSH     SIN
000251: 37,2762           56072                           SL3R     XAD,1
000252: 37,2763           00046                                    X1
000253: 37,2764           10021                           STORE    16D,2
000254: 37,2765           77745                           DLOAD
000255: 37,2766           77746                           COS
000256: 37,2767           10027                           STORE    22D,2                                 #  COSINES
000257: 37,2770           77704                           TIX,2
000258: 37,2771           76755                                    BOOP
000259:
000260: 37,2772           77776        PERFERAS           EXIT
000261: 37,2773           35016                           CA       EBANK7
000262: 37,2774           54003                           TS       EBANK
000263: 37,2775  E7,1400                                  EBANK=   ATIGINC
000264: 37,2775           01400                           TC       ATIGINC                               #  GOTO ERASABLE TO CALCULATE ONLY TO RETN
000265:
000266:                                                                                                  #                             CAUTION
000267:
000268:                                                                                                  #  THE ERASABLE PROGRAM THAT DOES THE CALCULATIONS MUST BE LOADED
000269:                                                                                                  #  BEFORE ANY ATTEMPT IS MADE TO RUN THE IMU PERFORMANCE TEST
000270:
000271: 37,2776  E5,1400                                  EBANK=   AZIMUTH
000272: 37,2776           11412                           CCS      LENGTHOT
000273: 37,2777           03034                           TC       SLEEPIE
000274: 37,3000           11440                           CCS      TORQNDX
000275: 37,3001           13003                           TCF      +2
000276: 37,3002           03005                           TC       SETUPER1
000277: 37,3003           30032                           CA       CDUX
000278: 37,3004           55414                           TS       LOSVEC     +1                         #  FOR TROUBLESHOOTING VD POSNS 2$4
000279:


000281: 37,3005           06037        SETUPER1           TC       INTPRET
000282: 37,3006           65345                           DLOAD    PDDL                                  #  ANGLES FROM DRIFT TEST ONLY
000283: 37,3007           02473                                    ANGZ
000284: 37,3010           02477                                    ANGY
000285: 37,3011           55525                           PDDL     VDEF
000286: 37,3012           02501                                    ANGX
000287: 37,3013           74276                           VCOMP    VXSC
000288: 37,3014           37110                                    GEORGEJ
000289: 37,3015           74521                           MXV      VSR1
000290: 37,3016           02643                                    XSM
000291: 37,3017           02740                           STORE    OGC
000292: 37,3020           77776                           EXIT
000293:
000294: 37,3021           32475                           CA       OGCPL
000295: 37,3022           04616                           TC       BANKCALL
000296: 37,3023           17323                           CADR     IMUPULSE
000297: 37,3024           02315                           TC       IMUSLLLG
000298: 37,3025           11440        GEOSTRT4           CCS      TORQNDX                               #  ONLY POSITIVE IF IN VERTICAL DRIFT TEST
000299: 37,3026           02263                           TC       VALMIS
000300: 37,3027           06037                           TC       INTPRET
000301: 37,3030           77624                           CALL
000302: 37,3031           76401                                    ERTHRVSE
000303: 37,3032           77776                           EXIT
000304: 37,3033           02117                           TC       TORQUE
000305:
000306: 37,3034           55412        SLEEPIE            TS       LENGTHOT                              #  TEST NOT OVER-DECREMENT LENGTHOT
000307: 37,3035           11440                           CCS      TORQNDX                               #  ARE WE DOING VERTDRIFT
000308: 37,3036           02447                           TC       EARTHR*
000309: 37,3037           05155                           TC       ENDOFJOB
000310:
000311: 37,3040           35014        SOMEERRR           CA       EBANK5
000312: 37,3041           54003                           TS       EBANK
000313: 37,3042           34753                           CA       ONE
000314: 37,3043           55576                           TS       OVFLOWCK                              #  STOP ALLOOP FROM CALLING ITSELF
000315: 37,3044           05567                           TC       ALARM
000316: 37,3045           01600                           OCT      1600
000317: 37,3046           02270                           TC       ENDTEST1
000318: 37,3047           33054        SOMERR2            CAF      OCT1601
000319: 37,3050           05744                           TC       VARALARM
000320: 37,3051           05516                           TC       DOWNFLAG
000321: 37,3052           00007                           ADRES    IMUSE
000322: 37,3053           05155                           TC       ENDOFJOB
000323:
000324: 37,3054           01601        OCT1601            OCT      01601
000325: 37,3055           06200        DEC585             OCT      06200                                 #  3200 B+14 ORDER IS IMPORTANT
000326: 37,3056           00000 00000  SCHZEROS           2DEC     .00000000


000328: 37,3060           00000 00000                     2DEC     .00000000
000329:
000330: 37,3062           00000                           OCT      00000
000331: 37,3063           00000        ONEDPP             OCT      00000                                 #  ORDER IS IMPORTANT
000332: 37,3064           00001                           OCT      00001
000333:
000334: 37,3065           00004        INTVAL             OCT      4
000335: 37,3066           00002                           OCT      2
000336: 37,3067           00220                           DEC      144        B-14
000337: 37,3070           77776                           DEC      -1         B-14
000338: 37,3071           35730 00035  SOUPLY             2DEC     .93505870                             #  INITIAL GAINS FOR PIP OUTPUTS
000339:
000340: 37,3073           10317 17550                     2DEC     .26266423                             #  INITIAL GAINS/4 FOR ERECTION ANGLES
000341:
000342: 37,3075           00115        77DECML            DEC      77         B-14
000343: 37,3076           01443        ALXXXZ             GENADR   ALX1S      -1
000344: 37,3077           04133 02265  PIPASC             2DEC     .13055869
000345:
000346: 37,3101           57223 66451  VELSC              2DEC     -.52223476                            #  512/980.402
000347:
000348: 37,3103           05427 12577  ALSK               2DEC     .17329931                             #  SSWAY VEL GAIN X 980.402/4096
000349:
000350: 37,3105           77567 44202                     2DEC     -.00835370                            #  SSWAY ACCEL GAIN X 980.402/4096
000351:
000352: 37,3107           24276 14066  GEORGEJ            2DEC     .63661977
000353:
000354: 37,3111           23073 11773  GEORGEK            2DEC     .59737013
000355:

End of include-file IMU_PERFORMANCE_TESTS_4.agc.  Parent file is MAIN.agc


