
Source Code


000002:                                                                                                  ## Copyright:   Public domain.
000003:                                                                                                  ## Filename:    INTERPRETER.agc
000004:                                                                                                  ## Purpose:     A section of Luminary revision 97.
000005:                                                                                                  ##              It is part of the reconstructed source code for the
000006:                                                                                                  ##              original release of the flight software for the Lunar
000007:                                                                                                  ##              Module's (LM) Apollo Guidance Computer (AGC) for Apollo 11.
000008:                                                                                                  ##              The code has been recreated from a copy of Luminary 99
000009:                                                                                                  ##              revision 001, using asterisks indicating changed lines in
000010:                                                                                                  ##              the listing and Luminary Memos #83 and #85, which list
000011:                                                                                                  ##              changes between Luminary 97 and 98, and 98 and 99. The
000012:                                                                                                  ##              code has been adapted such that the resulting bugger words
000013:                                                                                                  ##              exactly match those specified for Luminary 97 in NASA drawing
000014:                                                                                                  ##              2021152D, which gives relatively high confidence that the
000015:                                                                                                  ##              reconstruction is correct.
000016:                                                                                                  ## Reference:   pp. 1002-1094
000017:                                                                                                  ## Assembler:   yaYUL
000018:                                                                                                  ## Contact:     Ron Burkey <info@sandroid.org>.
000019:                                                                                                  ## Website:     www.ibiblio.org/apollo/index.html
000020:                                                                                                  ## Mod history: 2019-07-28 MAS  Created from Luminary 99.
000021:


000023:                                                                                                  #  SECTION 1   DISPATCHER
000024:
000025:                                                                                                  #  ENTRY TO THE INTERPRETER.  INTPRET SETS LOC TO THE FIRST INSTRUCTION, BANKSET TO THE BBANK OF THE
000026:                                                                                                  #  OBJECT INTERPRETIVE PROGRAM, AND INTBIT15 TO THE BIT15 CONTENTS OF FBANK.  INTERPRETIVE PROGRAMS MAY BE IN
000027:                                                                                                  #  VIRTUALLY ALL BANKS PRESENT UNDER ANY SUPER-BANK SETTING, WITH THE RESTRICTION THAT PROGRAMS IN HIGH BANKS
000028:                                                                                                  #  (BIT15 OF FBANK = 1) DO NOT REFER TO LOWBANKS, AND VICE-VERSA.  THE INTERPRETER DOES NOT SWITCH SUPERBANKS.
000029:                                                                                                  #  E-BANK SWITCHING OCCURS WHENEVER GENERAL ERASABLE (100-3777) IS ADDRESSED.
000030:
000031:    6037                                           BLOCK    03
000032:
000033:    6037                                           COUNT*   $$/INTER
000034:    6037           00003        INTPRET            RELINT
000035:    6040           00006                           EXTEND                                         #  SET LOC TO THE WORD FOLLOWING THE TC.
000036:    6041           22164                           QXCH     LOC
000037:
000038:    6042           30006                 +2        CA       BBANK                                 #  INTERPRETIVE BRANCHES FINISH HERE.
000039:    6043           54165                           TS       BANKSET
000040:    6044           74735                           MASK     BIT15                                 #  GET 15TH BIT FOR INDEXABLE ADDRESSES.
000041:    6045           54115                           TS       INTBIT15
000042:
000043:    6046           54023                           TS       EDOP                                  #  MAKE SURE NO INSTRUCTIONS LEFT OVER
000044:
000045:    6047           16070                           TCF      NEWOPS                                #  PICK UP OP CODE PAIR AND BEGIN.
000046:
000047:    6050           22006        INTRSM             LXCH     BBANK                                 #  RESUME SUSPENDED INTERPRETIVE JOB
000048:    6051           16042                           TCF      INTPRET    +3
000049:
000050:                                                                                                  #  DLOAD LOADS MPAC, MPAC +1, LEAVING ZERO IN MPAC +2.
000051:
000052:    6052           00006        DLOAD              EXTEND
000053:    6053           50116                           INDEX    ADDRWD
000054:    6054           30001                           DCA      0                                     #  LOAD DP C(C(ADDRWD)) INTO MPAC,MPAX +1
000055:    6055           52155        SLOAD2             DXCH     MPAC
000056:    6056           34755                           CAF      ZERO                                  #  ZERO MPAC +2
000057:


000059:                                                                                                  #  AT THE END OF MOST INSTRUCTIONS, CONTROL IS GIVEN TO DANZIG TO DISPATCH THE NEXT OPERATION.
000060:
000061:    6057           54156                           TS       MPAC       +2                         #  AND DECLARE DP MODE
000062:
000063:    6060           54163        NEWMODE            TS       MODE                                  #  PROLOGUE FOR MODE-CHANGING INSTRUCTIONS.
000064:
000065:    6061           30165        DANZIG             CA       BANKSET                               #  SET BBANK BEFORE TESTING NEWJOB SO THAT
000066:    6062           54006                           TS       BBANK                                 #  IT MAY BE SAVED DIRECTLY BY CHANJOB.
000067:
000068:    6063           10023        NOIBNKSW           CCS      EDOP                                  #  SEE IF AN ORDER CODE IS LEFT OVER FROM
000069:    6064           16077                           TCF      OPJUMP                                #  THE LAST PAIR RETRIEVED.  IF SO, EXECUTE.
000070:                                                                                                  #  EDOP IS SET TO ZERO ON ITS RE-EDITING.
000071:
000072:    6065           10067                           CCS      NEWJOB                                #  SEE IF A JOB OF HIGHER PRIORITY IS
000073:    6066           15126                           TCF      CHANG2                                #  PRESENT, AND IF SO, CHANGE JOBS.
000074:
000075:    6067           24164                           INCR     LOC                                   #  ADVANCE THE LOCATION COUNTER.
000076:
000077:                                                                                                  #  ITRACE (1) REFERS TO "NEWOPS".
000078:    6070           50164        NEWOPS             INDEX    LOC                                   #  ENTRY TO BEGIN BY PICKING OP CODE PAIR.
000079:    6071           30000                           CA       0                                     #  MAY BE AN OPCODE PAIR OR A STORE CODE.
000080:    6072           10000                           CCS      A                                     #  TEST SIGN AND GET DABS(A).
000081:    6073           16362                           TCF      DOSTORE                               #  PROCESS STORE CODE.
000082:
000083:    6074           00177        LOW7               OCT      177
000084:
000085:    6075           54023                           TS       EDOP                                  #  OP CODE PAIR.  LEAVE THE OTHER IN EDOP
000086:    6076           76074                           MASK     LOW7                                  #  WHERE CCS EDOP WILL HONOR IT NEXT.
000087:
000088:    6077           54020        OPJUMP             TS       CYR                                   #  LOWWD ENTERS HERE IF A RIGHT-HAND OP
000089:    6100           10020                           CCS      CYR                                   #  CODE IS TO BE PROCESSED.  TEST PREFICES.
000090:    6101           16247                           TCF      OPJUMP2                               #  TEST SECOND PREFIX BIT.
000091:
000092:    6102           16743                           TCF      EXIT                                  #  +0 OP CODE IS EXIT.
000093:


000095:                                                                                                  #  PROCESS ADDRESSES WHICH MAY BE DIRECT, INDEXED, OR REFERENCE THE PUSHDOWN LIST.
000096:
000097:    6103           74753        ADDRESS            MASK     BIT1                                  #  SEE IF ADDRESS IS INDEXED.  CYR CONTAINED
000098:    6104           10000                           CCS      A                                     #  400XX, SO BIT 1 IS NOW AS IT WAS IN CYR.
000099:    6105           16146                           TCF      INDEX                                 #  FORM INDEXED ADDRESS.
000100:
000101:    6106           50164        DIRADRES           INDEX    LOC                                   #  LOOK AHEAD TO NEXT WORD TO SEE IF
000102:    6107           40001        OCT40001           CS       1                                     #  ADDRESS IS GIVEN.
000103:    6110           10000                           CCS      A
000104:    6111           16215                           TCF      PUSHUP                                #  IF NOT.
000105:
000106:    6112           77773        NEG4               DEC      -4         B-14
000107:
000108:    6113           24164                           INCR     LOC                                   #  IF SO, TO SHOW WE PICKED UP A WORD.
000109:    6114           54116                           TS       ADDRWD
000110:


000112:                                                                                                  #  FINAL DIGESTION OF DIRECT ADDRESSES OF OP CODES WITH 01 PREFIX IS DONE HERE.   IN EACH CASE, THE
000113:                                                                                                  #  REQUIRED 12-BIT SUB-ADDRESS IS LEFT IN ADDRWD, WITH ANY REQUIRED E OR F BANK SWITCHING DONE.  ADDRESSES LESS
000114:                                                                                                  #  THAN 45D ARE TAKEN TO BE RELATIVE TO THE WORK AREA.  THE OP CODE IS NOW IN BITS 1-5 OF CYR WITH BIT 14 = 1.
000115:
000116:    6115           66251                           AD       -ENDVAC                               #  SEE IF ADDRESS RELATIVE TO WORK AREA.
000117:    6116           10000                           CCS      A
000118:    6117           67743                           AD       -ENDERAS                              #  IF NOT, SEE IF IN GENERAL ERASABLE.
000119:    6120           16125                           TCF      IERASTST
000120:
000121:    6121           30120        NETZERO            CA       FIXLOC                                #  IF SO, LEAVE THE MODIFIED ADDRESS IN
000122:    6122           26116                           ADS      ADDRWD                                #  ADDRWD AND DISPATCH.
000123:    6123           50020        ITR15              INDEX    CYR                                   #  THIS INDEX MAKES THE NEXT INSTRUCTION
000124:    6124           76273                           7        INDJUMP    -1                         #  TCF INDJUMP + OP, EDITING CYR.
000125:
000126:    6125           00006        IERASTST           EXTEND
000127:    6126           66136                           BZMF     GEADDR                                #  GO PROCESS GENERAL-ERASABLE ADDRESS.
000128:
000129:    6127           75012                           MASK     LOW10                                 #  FIXED BANK ADDRESS. RESTORE AND ADD B15.
000130:    6130           65012                           AD       LOW10                                 #  SWITCH BANKS AND LEAVE SUBADDRESS IN
000131:    6131           56116                           XCH      ADDRWD                                #  ADDRWD FOR OPERAND RETRIEVAL. (THIS
000132:    6132           60115                           AD       INTBIT15                              #  METHOD PRECLUDES USE OF THE LAST
000133:    6133           54004                           TS       FBANK                                 #  LOCATION IN EACH FBANK.)
000134:    6134           50020        ITR12              INDEX    CYR
000135:    6135           76273                           7        INDJUMP    -1
000136:
000137:    6136           74357        GEADDR             MASK     LOW8
000138:    6137           65007                           AD       OCT1400
000139:    6140           56116                           XCH      ADDRWD
000140:    6141           54003                           TS       EBANK
000141:    6142           50020        ITR10              INDEX    CYR
000142:    6143           76273                           7        INDJUMP    -1
000143:


000145:                                                                                                  #  THE FOLLOWING ROUTINE PROCESSES INTERPRETIVE INDEXED ADDRESSES.  AN INTERPRETER INDEX REGISTER MAY
000146:                                                                                                  #  CONTAIN THE ADDRESS OF ANY ERASABLE REGISTER (0-42 BEING RELATIVE TO THE VAC AREA) OR ANY INTERPRETIVE PROGRAM
000147:                                                                                                  #  BANK, OR ANY INTEGER IN THAT RANGE.
000148:
000149:    6144           37733        DODLOAD*           CAF      DLOAD*                                #  STODL* COMES HERE TO PROCESS LOAD ADR.
000150:    6145           54020                           TS       CYR                                   #  (STOVL* ENTERS HERE).
000151:
000152:    6146           30120        INDEX              CA       FIXLOC                                #  SET UP INDEX LOCATION.
000153:    6147           54130                           TS       INDEXLOC
000154:    6150           24164                           INCR     LOC                                   #  (ADDRESS ALWAYS GIVEN).
000155:    6151           50164                           INDEX    LOC
000156:    6152           40000                           CS       0
000157:    6153           10000                           CCS      A                                     #  INDEX 2 IF ADDRESS STORED COMPLEMENTED.
000158:    6154           24130                           INCR     INDEXLOC
000159:    6155           16156                           NOOP
000160:
000161:    6156           54116                           TS       ADDRWD                                #  14 BIT ADDRESS TO ADDRWD.
000162:    6157           77742                           MASK     HIGH4                                 #  IF ADDRESS GREATER THAN 2K, ADD INTBIT15
000163:    6160           00006                           EXTEND
000164:    6161           16164                           BZF      INDEX2
000165:    6162           30115                           CA       INTBIT15
000166:    6163           26116                           ADS      ADDRWD
000167:
000168:    6164           50130        INDEX2             INDEX    INDEXLOC
000169:    6165           40046                           CS       X1
000170:    6166           26116                           ADS      ADDRWD                                #  DO AUGMENT, IGNORING AND CORRECTING OVF.
000171:
000172:    6167           77744                           MASK     HIGH9                                 #  SEE IF ADDRESS IS IN WORK AREA.
000173:    6170           00006                           EXTEND
000174:    6171           16204                           BZF      INDWORK
000175:    6172           77742                           MASK     HIGH4                                 #  SEE IF IN FIXED BANK.
000176:    6173           00006                           EXTEND
000177:    6174           16206                           BZF      INDERASE
000178:
000179:    6175           30116                           CA       ADDRWD                                #  IN FIXED - SWITCH BANKS AND CREATE
000180:    6176           54004                           TS       FBANK                                 #  SUB-ADDRESS.
000181:    6177           75012                           MASK     LOW10
000182:    6200           64741                           AD       2K
000183:    6201           54116                           TS       ADDRWD
000184:    6202           50020        ITR11              INDEX    CYR
000185:    6203           36273                           3        INDJUMP    -1
000186:
000187:    6204           30120        INDWORK            CA       FIXLOC                                #  MAKE ADDRWD RELATIVE TO WORK AREA.
000188:    6205           16212                           TCF      ITR13      -1
000189:
000190:    6206           35007        INDERASE           CA       OCT1400
000191:    6207           56116                           XCH      ADDRWD
000192:    6210           54003                           TS       EBANK
000193:    6211           74357                           MASK     LOW8
000194:    6212           26116                 -1        ADS      ADDRWD


000196:    6213           50020        ITR13              INDEX    CYR
000197:    6214           36273                           3        INDJUMP    -1
000198:


000200:                                                                                                  #  PUSH-UP ROUTINES.  WHEN NO OPERAND ADDRESS IS GIVEN, THE APPROPRIATE OPERAND IS TAKEN FROM THE PUSH-DOWN
000201:                                                                                                  #  LIST.  IN MOST CASES THE MODE OF THE RESULT (VECTOR OR SCALAR) OF THE LAST ARITHMETIC OPERATION PERFORMED
000202:                                                                                                  #  IS THE SAME AS THE TYPE OF OPERAND DESIRED (ALL ADD/SUBTRACT ETC.).  EXCEPTIONS TO THIS GENERAL RULE ARE LISTED
000203:                                                                                                  #  BELOW (NOTE THAT IN EVERY CASE THE MODE REGISTER IS LEFT INTACT):
000204:
000205:                                                                                                  #        1.      VXSC AND V/SC WANT THE OPPOSITE TYPE OF OPERAND, E.G., IF THE LAST OPERATION YIELDED A VECTOR
000206:                                                                                                  #                RESULT, VXSC WANTS A SCALAR.
000207:
000208:                                                                                                  #        2.      THE LOAD CODES SHOULD LOAD THE ACCUMULATOR INDEPENDENT OF THE RESULT OF THE LAST OPERATION.  THIS
000209:                                                                                                  #                INCLUDES VLOAD, DLOAD, TLOAD, PDDL, AND PDVL (NO PUSHUP WITH SLOAD).
000210:
000211:                                                                                                  #        3.      SOME ARITHMETIC OPERATIONS REQUIRE A STANDARD TYPE OF OPERAND REGARDLESS OF THE PREVIOUS OPERATION.
000212:                                                                                                  #                THIS INCLUDES SIGN WANTING DP AND TAD REQUIRING TP.
000213:
000214:    6215           34360        PUSHUP             CAF      OCT23                                 #  IF THE LOW 5 BITS OF CYR ARE LESS THAN
000215:    6216           70020                           MASK     CYR                                   #  20, THIS OP REQUIRES SPECIAL ATTENTION.
000216:    6217           66222                           AD       -OCT10                                #  (NO -0).
000217:    6220           10000                           CCS      A
000218:    6221           16233                           TCF      REGUP                                 #  FOR ALL CODES GREATER THAN OCT 7.
000219:
000220:    6222           77767        -OCT10             OCT      -10
000221:
000222:    6223           66112                           AD       NEG4                                  #  WE NOW HAVE 7 - OP CODE (MOD4).  SEE IF
000223:    6224           10000                           CCS      A                                     #  THE OP CODE (MOD4) IS THREE (REVERSE).
000224:    6225           50000                           INDEX    A                                     #  NO - THE MODE IS DEFINITE.  PICK UP THE
000225:    6226           46244                           CS       NO.WDS
000226:    6227           16235                           TCF      REGUP      +2
000227:
000228:    6230           50163                           INDEX    MODE                                  #  FOR VXSC AND V/SC WE WANT THE REQUIRED
000229:    6231           46242                           CS       REVCNT                                #  PUSHLOC DECREMENT WITHOUT CHANGING THE
000230:    6232           16235                           TCF      REGUP      +2                         #  MODE AT THIS TIME.
000231:
000232:    6233           50163        REGUP              INDEX    MODE                                  #  MOST ALL OP CODES PUSHUP HERE.
000233:    6234           46244                           CS       NO.WDS
000234:    6235           26166                 +2        ADS      PUSHLOC
000235:    6236           54116                           TS       ADDRWD
000236:    6237           50020        ITR14              INDEX    CYR
000237:    6240           76273                           7        INDJUMP    -1                         #  (THE INDEX MAKES THIS A TCF.)
000238:
000239:    6241           00002                           OCT      2                                     #  REVERSE PUSHUP DECREMENT. VECTOR TAKES 2
000240:    6242           00006        REVCNT             OCT      6                                     #  WORDS, SCALAR TAKES 6.
000241:    6243           00006                           OCT      6
000242:    6244           00002        NO.WDS             OCT      2                                     #  CONVENTIONAL DECREMENT IS 6 WORDS VECTOR
000243:    6245           00003        OCTAL3             OCT      3                                     #  2 IN DP, AND 3 IN TP.
000244:    6246           00006                           OCT      6
000245:


000247:                                                                                                  #  TEST THE SECOND PREFIX BIT TO SEE IF THIS IS A MISCELLANEOUS OR A UNARY/SHORT SHIFT OPERATION.
000248:
000249:    6247           10020        OPJUMP2            CCS      CYR                                   #  TEST SECOND PREFIX BIT.
000250:    6250           16263                           TCF      OPJUMP3                               #  TEST THIRD BIT TO SEE IF UNARY OR SHIFT.
000251:
000252:    6251           77722        -ENDVAC            DEC      -45        B-14
000253:
000254:                                                                                                  #  THE FOLLOWING ROUTINE PROCESSES ADDRESSES OF SUFFIX CLASS 10.  THEY ARE BASICALLY WORK AREA ADDRESSES
000255:                                                                                                  #  IN THE RANGE 0-52, ERASABLE ECADR CONSTANTS FROM 100-3777, AND FCADRS ABOVE THAT.  ALL 15 BITS ARE AVAILABLE
000256:                                                                                                  #  IN CONTRAST TO SUFFIX 1, IN WHICH ONLY THE LOW ORDER 14 ARE AVAILABLE.
000257:
000258:    6252           24164        15BITADR           INCR     LOC                                   #  (ENTRY HERE FROM STCALL).
000259:    6253           50164                           INDEX    LOC                                   #  PICK UP ADDRESS WORD.
000260:    6254           30000                           CA       0
000261:    6255           54117                           TS       POLISH                                #  WE MAY NEED A SUBADDRESS LATER.
000262:
000263:    6256           35013                           CAF      LOW7+2K                               #  THESE INSTRUCTIONS ARE IN BANK 1.
000264:    6257           54004                           TS       FBANK
000265:    6260           70020                           MASK     CYR
000266:    6261           50000        ITR7               INDEX    A
000267:    6262           16334                           TCF      MISCJUMP
000268:


000270:                                                                                                  #  COMPLETE THE DISPATCHING OF UNARY AND SHORT SHIFT OPERATIONS.
000271:
000272:    6263           54004        OPJUMP3            TS       FBANK                                 #  CALL IN BANK 0 (BITS 11-15 OF A ARE 0.)
000273:                                                                                                  #  ITRACE (6) REFERS TO "OPJUMP3".
000274:    6264           10020                           CCS      CYR                                   #  TEST THIRD PREFIX BIT.
000275:    6265           50000                           INDEX    A                                     #  THE DECREMENTED UNARY CODE IS IN BITS
000276:    6266           12000                           TCF      UNAJUMP                               #  1-4 OF A (ZERO, EXIT, HAS BEEN DETECTED)
000277:
000278:    6267           10163                           CCS      MODE                                  #  ITS A SHORT SHIFT CODE.  SEE IF PRESENT
000279:    6270           12017                           TCF      SHORTT                                #  SCALAR OR VECTOR.
000280:    6271           12017                           TCF      SHORTT
000281:    6272           12121                           TCF      SHORTV                                #  CALLS THE APPROPRIATE ROUTINE.
000282:
000283:    6273     4350               FBANKMSK           EQUALS   BANKMASK
000284:    6273           00122        LVBUF              ADRES    VBUF
000285:


000287:                                                                                                  #  THE FOLLOWING IS THE JUMP TABLE FOR OP CODES WHICH MAY HAVE INDEXABLE ADDRESSES OR MAY PUSH UP.
000288:
000289:    6274           16505        INDJUMP            TCF      VLOAD                                 #  00 - LOAD MPAC WITH A VECTOR.
000290:    6275           17071                           TCF      TAD                                   #  01 - TRIPLE PRECISION ADD TO MPAC.
000291:    6276           17655                           TCF      SIGN                                  #  02 - COMPLEMENT MPAC (V OR SC) IF X NEG.
000292:    6277           17401                           TCF      VXSC                                  #  03 - VECTOR TIMES SCALAR.
000293:    6300           16703                           TCF      CGOTO                                 #  04 - COMPUTED GO TO.
000294:    6301           16470                           TCF      TLOAD                                 #  05 - LOAD MPAC WITH TRIPLE PRECISION.
000295:    6302           16052                           TCF      DLOAD                                 #  06 - LOAD MPAC WITH A DP SCALAR.
000296:    6303           17624                           TCF      V/SC                                  #  07 - VECTOR DIVIDED BY SCALAR.
000297:
000298:    6304           16501                           TCF      SLOAD                                 #  10 - LOAD MPACIN SINGLE PRECISION.
000299:    6305           16620                           TCF      SSP                                   #  11 - SET SINGLE PRECISION INTO X.
000300:    6306           16523                           TCF      PDDL                                  #  12 - PUSH DOWN MPAC AND RE-LOAD IN DP.
000301:    6307           17334                           TCF      MXV                                   #  13 - MATRIX POST-MULTIPLIED BY VECTOR.
000302:    6310           16557                           TCF      PDVL                                  #  14 - PUSH DOWN AND VECTOR LOAD.
000303:    6311           16626                           TCF      CCALL                                 #  15 - COMPUTED CALL.
000304:    6312           17337                           TCF      VXM                                   #  16 - MATRIX PRE-MULTIPLIED BY VECTOR.
000305:    6313           17616                           TCF      TSLC                                  #  17 - NORMALIZE MPAC (SCALAR ONLY).
000306:
000307:    6314           17574                           TCF      DMPR                                  #  20 - DP MULTIPLY AND ROUND.
000308:    6315           17577                           TCF      DDV                                   #  21 - DP DIVIDE BY.
000309:    6316           17603                           TCF      BDDV                                  #  22 - DP DIVIDE INTO.
000310:    6317           17621                           TCF      GSHIFT                                #  23 - GENERAL SHIFT INSTRUCTION.
000311:    6320           16751                           TCF      VAD                                   #  24 - VECTOR ADD.
000312:    6321           16747                           TCF      VSU                                   #  25 - VECTOR SUBTRACT.
000313:    6322           17036                           TCF      BVSU                                  #  26 - VECTOR SUBTRACT FROM.
000314:    6323           17331                           TCF      DOT                                   #  27 - VECTOR DOT PRODUCT.
000315:
000316:    6324           17460                           TCF      VXV                                   #  30 - VECTOR CROSS PRODUCT.
000317:    6325           17425                           TCF      VPROJ                                 #  31 - VECTOR PROJECTION.
000318:    6326           17005                           TCF      DSU                                   #  32 - DP SUBTRACT.
000319:    6327           17062                           TCF      BDSU                                  #  33 - DP SUBTRACT FROM.
000320:    6330           16775                           TCF      DAD                                   #  34 - DP ADD.
000321:    6331           16331                           TCF      +0                                    #  35 - AVAILABLE
000322:    6332           17572                           TCF      DMP1                                  #  36 - DP MULTIPLY.
000323:    6333           17613                           TCF      SETPD                                 #  37 - SET PUSH DOWN POINTER (DIRECT ONLY)
000324:
000325:                                                                                                  #  CODES 10 AND 14 MUST NOT PUSH UP. CODE 04 MAY BE USED FOR VECTOR DECLARE BEFORE PUSHUP IF DESIRED.
000326:


000328:                                                                                                  #  THE FOLLOWING JUMP TABLE APPLIES TO INDEX, BRANCH, AND MISCELLANEOUS INSTRUCTIONS.
000329:
000330:    6334           12344        MISCJUMP           TCF      AXT                                   #  00 - ADDRESS TO INDEX TRUE.
000331:    6335           12351                           TCF      AXC                                   #  01 - ADDRESS TO INDEX COMPLEMENTED.
000332:    6336           12354                           TCF      LXA                                   #  02 - LOAD INDEX FROM ERASABLE.
000333:    6337           12360                           TCF      LXC                                   #  03 - LOAD INDEX FROM COMPLEMENT OF ERAS.
000334:    6340           12364                           TCF      SXA                                   #  04 - STORE INDEX IN ERASABLE.
000335:    6341           12372                           TCF      XCHX                                  #  05 - EXCHANGE INDEX WITH ERASABLE.
000336:    6342           12406                           TCF      INCR                                  #  06 - INCREMENT INDEX REGISTER.
000337:    6343           12415                           TCF      TIX                                   #  07 - TRANSFER ON INDEX.
000338:
000339:    6344           12400                           TCF      XAD                                   #  10 - INDEX REGISTER ADD FROM ERASABLE.
000340:    6345           12411                           TCF      XSU                                   #  11 - INDEX SUBTRACT FROM ERASABLE.
000341:    6346           12467                           TCF      BZE/GOTO                              #  12 - BRANCH ZERO AND GOTO.
000342:    6347           12474                           TCF      BPL/BMN                               #  13 - BRANCH PLUS AND BRANCH MINUS.
000343:    6350           12447                           TCF      RTB/BHIZ                              #  14 - RETURN TO BASIC AND BRANCH HI ZERO.
000344:    6351           12507                           TCF      CALL/ITA                              #  15 - CALL AND STORE QPRET.
000345:    6352           12516                           TCF      SW/                                   #  16 - SWITCH INSTRUCTIONS AND AVAILABLE.
000346:    6353           12457                           TCF      BOV(B)                                #  17 - BRANCH ON OVERFLOW TO BASIC OR INT.
000347:


000349:                                                                                                  #  THE FOLLOWING JUMP TABLE APPIES TO UNARY INSTRUCTIONS.
000350:
000351:    6354                                           COUNT*   $$/INTER
000352: 00,2000                                           BANK     0                                     #  00 - EXIT - DETECTED EARLIER.
000353: 00,2000           13207        UNAJUMP            TCF      SQRT                                  #  01 - SQUARE ROOT.
000354: 00,2001           13530                           TCF      SINE                                  #  02 - SIN.
000355: 00,2002           13517                           TCF      COSINE                                #  03 - COS.
000356: 00,2003           13610                           TCF      ARCSIN                                #  04 - ARC SIN.
000357: 00,2004           13612                           TCF      ARCCOS                                #  05 - ARC COS.
000358: 00,2005           13174                           TCF      DSQ                                   #  06 - DP SQUARE.
000359: 00,2006           12116                           TCF      ROUND                                 #  07 - ROUND TO DP.
000360:
000361: 00,2007           17670                           TCF      COMP                                  #  10 - COMPLEMENT VECTOR OR SCALAR.
000362: 00,2010           13232                           TCF      VDEF                                  #  11 - VECTOR DEFINE.
000363: 00,2011           13023                           TCF      UNIT                                  #  12 - UNIT VECTOR.
000364: 00,2012           13176                           TCF      ABVALABS                              #  13 - LENGTH OF VECTOR OR MAG OF SCALAR.
000365: 00,2013           13245                           TCF      VSQ                                   #  14 - SQUARE OF LENGTH OF VECTOR.
000366: 00,2014           16354                           TCF      STADR                                 #  15 - PUSH UP ON STORE CODE.
000367: 00,2015           13274                           TCF      RVQ                                   #  16 - RETURN VIA QPRET.
000368: 00,2016           13247                           TCF      PUSH                                  #  17 - PUSH MPAC DOWN.
000369:


000371:                                                                                                  #  SECTION 2     LOAD AND STORE PACKAGE.
000372:
000373:                                                                                                  #  A SET OF EIGHT STORE CODES IS PROVIDED AS THE PRIMARY METHOD OF STORING THE MULTI-PURPOSE
000374:                                                                                                  #  ACCUMULATOR (MPAC).  IF IN THE DANZIG SECTION LOC REFERS TO AN ALGEBRAICALLY POSITIVE WORD, IT IS TAKEN AS A
000375:                                                                                                  #  STORE CODE WITH A CORRESPONDING ERASABLE ADDRESS.  MOST OF THESE CODES ARE TWO ADDRESS, SPECIFYING THAT THE WORD
000376:                                                                                                  #  FOLLOWING THE STORE CODE IS TO BE USED AS AN ADDRESS FROM WHICH TO RE-LOAD MPAC.  FOUR OPTIONS ARE AVAILABLE:
000377:
000378:                                                                                                  #        1. STORE        STORE MPAC.  THE E ADDRESS MAY BE INDEXED.
000379:                                                                                                  #        2. STODL        STORE MPAC AND RE-LOAD IT IN DP WITH THE NEXT ADDRESS (THE LOAD MAY BE INDEXED).
000380:                                                                                                  #        3. STOVL        STORE MPAC AND RE-LOAD A VECTOR (AS ABOVE).
000381:                                                                                                  #        4. STCALL       STORE AND DO A CALL (BOTH ADDRESSES MUST BE DIRECT HERE).
000382:
000383:                                                                                                  #  STODL AND STOVL WILL TAKE FROM THE PUSH-DOWN LIST IF NO LOAD ADDRESS IS GIVEN.
000384:
000385:    6354                                           BLOCK    3
000386:
000387:    6354                                           COUNT*   $$/INTER
000388:    6354           30165        STADR              CA       BANKSET                               #  THE STADR CODE (PUSHUP UP ON STORE
000389:    6355           54004                           TS       FBANK                                 #  ADDRESS) ENTERS HERE.
000390:    6356           24164                           INCR     LOC
000391:    6357           50164        ITR1               INDEX    LOC                                   #  THE STORECODE WAS STORED COMPLEMENTED TO
000392:    6360           40000                           CS       0                                     #  MAKE IT LOOK LIKE AN OPCODE PAIR.
000393:    6361           67747                           AD       NEGONE                                #  (YUL CANT REMOVE 1 BECAUSE OF EARLY CCS)
000394:
000395:    6362           54116        DOSTORE            TS       ADDRWD
000396:    6363           74356                           MASK     LOW11                                 #  ENTRY FROM DISPATCHER.  SAVE THE ERASABLE
000397:    6364           56116                           XCH      ADDRWD                                #  ADDRESS AND JUMP ON THE STORE CODE NO.
000398:    6365           77722                           MASK     B12T14
000399:    6366           00006                           EXTEND
000400:    6367           74747                           MP       BIT5                                  #  EACH TRANSFER VECTOR ENTRY IS TWO WORDS.
000401:    6370           50000                           INDEX    A
000402:    6371           16372                           TCF      STORJUMP
000403:


000405:                                                                                                  #  STORE CODE JUMP TABLE.  CALLS THE APPROPRIATE STORING ROUTINE AND EXITS TO DANZIG OR TO ADDRESS WITH
000406:                                                                                                  #  A SUPPLIED OPERATION CODE.
000407:
000408:                                                                                                  #  STORE STORE,1 AND STORE,2 RETURN TO DANZIG, THUS RESETTING THE EBANK TO ITS STATE AT INTPRET.
000409:
000410:    6372           06422        STORJUMP           TC       STORE                                 #  STORE.
000411:    6373           16061                           TCF      DANZIG                                #  PICK UP NEW OP CODE(S).
000412:    6374           06414                           TC       STORE,1
000413:    6375           16061                           TCF      DANZIG
000414:    6376           06417                           TC       STORE,2
000415:    6377           16061                           TCF      DANZIG
000416:
000417:    6400           06422                           TC       STORE                                 #  STODL.
000418:    6401           16460                           TCF      DODLOAD
000419:
000420:    6402           06422                           TC       STORE                                 #  STODL WITH INDEXED LOAD ADDRESS.
000421:    6403           16144                           TCF      DODLOAD*
000422:
000423:    6404           06422                           TC       STORE                                 #  STOVL.
000424:    6405           16463                           TCF      DOVLOAD
000425:
000426:    6406           06422                           TC       STORE                                 #  STOVL WITH INDEXED LOAD ADDRESS.
000427:    6407           16466                           TCF      DOVLOAD*
000428:    6410           06422                           TC       STORE                                 #  STOTC.
000429:    6411           34766                           CAF      CALLCODE
000430:    6412           54020                           TS       CYR
000431:    6413           16252                           TCF      15BITADR                              #  GET A 15 BIT ADDRESS.
000432:


000434:                                                                                                  #  STORE CODE ADDRESS PROCESSOR.
000435:
000436:    6414           50120        STORE,1            INDEX    FIXLOC
000437:    6415           40046                           CS       X1
000438:    6416           16421                           TCF      PRESTORE
000439:
000440:    6417           50120        STORE,2            INDEX    FIXLOC
000441:    6420           40047                           CS       X2
000442:    6421           26116        PRESTORE           ADS      ADDRWD                                #  RESULTANT ADDRESS IS IN ERASABLE.
000443:
000444:    6422           40116        STORE              CS       ADDRWD
000445:    6423           64772                           AD       DEC45
000446:    6424           10000                           CCS      A                                     #  DOES THE ADDRESS POINT TO THE WORK AREA?
000447:    6425           30120                           CA       FIXLOC                                #  YES.
000448:    6426           16433                           TCF      AHEAD5
000449:    6427           35007                           CA       OCT1400                               #  NO.  SET EBANK & MAKE UP SUBADDRESS.
000450:    6430           56116                           XCH      ADDRWD
000451:    6431           54003                           TS       EBANK
000452:    6432           74357                           MASK     LOW8
000453:    6433           26116        AHEAD5             ADS      ADDRWD
000454:


000456:                                                                                                  #  STORING ROUTINES.  STORE DP, TP, OR VECTOR AS INDICATED BY MODE.
000457:
000458:    6434           00006        STARTSTO           EXTEND                                         #  MPAC,+1 MUST BE STORED IN ANY EVENT.
000459:                                                                                                  #  ITRACE (5) REFERS TO "STARTSTO".
000460:    6435           30155                           DCA      MPAC
000461:    6436           50116                           INDEX    ADDRWD
000462:    6437           52001                           DXCH     0
000463:
000464:    6440           10163                           CCS      MODE
000465:    6441           16454                           TCF      TSTORE
000466:    6442           00002                           TC       Q
000467:
000468:    6443           00006        VSTORE             EXTEND
000469:    6444           30160                           DCA      MPAC       +3
000470:    6445           50116                           INDEX    ADDRWD
000471:    6446           52003                           DXCH     2
000472:
000473:    6447           00006                           EXTEND
000474:    6450           30162                           DCA      MPAC       +5
000475:    6451           50116                           INDEX    ADDRWD
000476:    6452           52005                           DXCH     4
000477:    6453           00002                           TC       Q
000478:
000479:    6454           30156        TSTORE             CA       MPAC       +2
000480:    6455           50116                           INDEX    ADDRWD
000481:    6456           54002                           TS       2
000482:    6457           00002                           TC       Q
000483:


000485:                                                                                                  #  ROUTINES TO BEGIN PROCESSING OF THE SECOND ADDRESS ASSOCIATED WITH ALL STORE-TYPE CODES EXCEPT STORE
000486:                                                                                                  #  ITSELF.
000487:
000488:    6460           37732        DODLOAD            CAF      DLOADCOD
000489:    6461           54020                           TS       CYR
000490:    6462           16106                           TCF      DIRADRES                              #  GO GET A DIRECT ADDRESS.
000491:
000492:    6463           34735        DOVLOAD            CAF      VLOADCOD
000493:    6464           54020                           TS       CYR
000494:    6465           16106                           TCF      DIRADRES
000495:
000496:    6466           36107        DOVLOAD*           CAF      VLOAD*
000497:    6467           16145                           TCF      DODLOAD*   +1                         #  PROLOGUE TO INDEX ROUTINE.
000498:


000500:                                                                                                  #  THE FOLLOWING LOAD INSTRUCTIONS ARE PROVIDED FOR LOADING THE MULTI-PURPOSE ACCUMULATOR MPAC.
000501:
000502:    6470           50116        TLOAD              INDEX    ADDRWD
000503:    6471           30002                           CA       2                                     #  LOAD A TRIPLE PRECISION ARGUMENT INTO
000504:    6472           54156                           TS       MPAC       +2                         #  THE FIRST THREE MPAC REGISTERS, WITH THE
000505:    6473           00006                           EXTEND                                         #  CONTENTS OF THE OTHER FOUR IRRELEVANT.
000506:    6474           50116                           INDEX    ADDRWD
000507:    6475           30001                           DCA      0
000508:    6476           52155                           DXCH     MPAC
000509:    6477           34753        TMODE              CAF      ONE
000510:    6500           16060                           TCF      NEWMODE                               #  DECLARE TRIPLE PRECISION MODE.
000511:
000512:    6501           22007        SLOAD              ZL                                             #  LOAD A SINGLE PRECISION NUMBER INTO
000513:    6502           50116                           INDEX    ADDRWD                                #  MPAC, SETTING MPAC+1,2 TO ZERO.  THE
000514:    6503           30000                           CA       0                                     #  CONTENTS OF THE REMAINING MPAC REGISTERS
000515:    6504           16055                           TCF      SLOAD2                                #  ARE IRRELEVANT.
000516:
000517:    6505           00006        VLOAD              EXTEND                                         #  LOAD A DOUBLE PRECISION VECTOR INTO
000518:    6506           50116                           INDEX    ADDRWD                                #  MPAC,+1, MPAC+3,4, AND MPAC+5,6.  THE
000519:    6507           30001                           DCA      0                                     #  CONTENTS OF MPAC +2 ARE IRRELEVANT.
000520:    6510           52155                           DXCH     MPAC
000521:
000522:    6511           00006        ENDVLOAD           EXTEND                                         #  PDVL COMES HERE TO FINISH UP FOR DP, TP.
000523:    6512           50116                           INDEX    ADDRWD
000524:    6513           30003                           DCA      2
000525:    6514           52160                           DXCH     MPAC       +3
000526:
000527:    6515           00006                 +4        EXTEND                                         #  TPDVL FINISHES HERE.
000528:    6516           50116                           INDEX    ADDRWD
000529:    6517           30005                           DCA      4
000530:    6520           52162                           DXCH     MPAC       +5
000531:
000532:    6521           44753        VMODE              CS       ONE                                   #  DECLARE VECTOR MODE.
000533:    6522           16060                           TCF      NEWMODE
000534:


000536:                                                                                                  #  THE FOLLOWING INSTRUCTIONS ARE PROVIDED FOR STORING OPERANDS IN THE PUSHDOWN LIST:
000537:                                                                                                  #        1.      PUSH            PUSHDOWN AND NO LOAD.
000538:                                                                                                  #        2.      PDDL            PUSHDOWN AND DOUBLE PRECISION LOAD.
000539:                                                                                                  #        3.      PDVL            PUSHDOWN AND VECTOR LOAD.
000540:
000541:    6523           00006        PDDL               EXTEND
000542:    6524           50116                           INDEX    ADDRWD                                #  LOAD MPAC,+1, PUSHING THE FORMER
000543:    6525           30001                           DCA      0                                     #  CONTENTS DOWN.
000544:    6526           52155                           DXCH     MPAC
000545:    6527           50166                           INDEX    PUSHLOC
000546:    6530           52001                           DXCH     0
000547:
000548:    6531           50163                           INDEX    MODE                                  #  ADVANCE THE PUSHDOWN POINTER APPRO-
000549:    6532           36244                           CAF      NO.WDS                                #  PRIATELY.
000550:    6533           26166                           ADS      PUSHLOC
000551:
000552:    6534           10163                           CCS      MODE
000553:    6535           16552                           TCF      ENDTPUSH
000554:    6536           16550                           TCF      ENDDPUSH
000555:
000556:    6537           54163                           TS       MODE                                  #  NOW DP.
000557:    6540           54156        ENDVPUSH           TS       MPAC       +2
000558:    6541           52160                           DXCH     MPAC       +3                         #  PUSH DOWN THE REST OF THE VECTOR HERE.
000559:    6542           50166                           INDEX    PUSHLOC
000560:    6543           51775                           DXCH     0          -4
000561:
000562:    6544           52162                           DXCH     MPAC       +5
000563:    6545           50166                           INDEX    PUSHLOC
000564:    6546           51777                           DXCH     0          -2
000565:
000566:    6547           16061                           TCF      DANZIG
000567:
000568:    6550           54156        ENDDPUSH           TS       MPAC       +2                         #  SET MPAC +2 TO ZERO AND EXIT ON DP.
000569:    6551           16061                           TCF      DANZIG
000570:
000571:    6552           54163        ENDTPUSH           TS       MODE
000572:    6553           56156                           XCH      MPAC       +2                         #  ON TRIPLE, SET MPAC +2 TO ZERO, PUSHING
000573:    6554           50166                 +2        INDEX    PUSHLOC                               #  DOWN THE OLD CONTENTS
000574:    6555           53777                           TS       0          -1
000575:    6556           16061                           TCF      DANZIG
000576:


000578:                                                                                                  #  PDVL - PUSHDOWN AND VECTOR LOAD.
000579:
000580:    6557           00006        PDVL               EXTEND                                         #  RELOAD MPAC AND PUSH DOWN ITS CONTENTS.
000581:    6560           50116                           INDEX    ADDRWD
000582:    6561           30001                           DCA      0
000583:    6562           52155                           DXCH     MPAC
000584:    6563           50166                           INDEX    PUSHLOC
000585:    6564           52001                           DXCH     0
000586:
000587:    6565           50163                           INDEX    MODE                                  #  ADVANCE THE PUSHDOWN POINTER.
000588:    6566           36244                           CAF      NO.WDS
000589:    6567           26166                           ADS      PUSHLOC
000590:
000591:    6570           10163                           CCS      MODE                                  #  TEST PAST MODE.
000592:    6571           16610                           TCF      TPDVL
000593:    6572           16511                           TCF      ENDVLOAD                              #  JUST LOAD LAST FOUR REGISTERS ON DP.
000594:
000595:    6573           00006        VPDVL              EXTEND                                         #  PUSHDOWN AND RE-LOAD LAST TWO COMPONENTS
000596:    6574           50116                           INDEX    ADDRWD
000597:    6575           30003                           DCA      2
000598:    6576           52160                           DXCH     MPAC       +3
000599:    6577           50166                           INDEX    PUSHLOC
000600:    6600           51775                           DXCH     0          -4
000601:
000602:    6601           00006                           EXTEND
000603:    6602           50116                           INDEX    ADDRWD
000604:    6603           30005                           DCA      4
000605:    6604           52162                           DXCH     MPAC       +5
000606:    6605           50166                           INDEX    PUSHLOC
000607:    6606           51777                           DXCH     0          -2
000608:
000609:    6607           16061                           TCF      DANZIG
000610:
000611:    6610           00006        TPDVL              EXTEND                                         #  ON TP, WE MUST LOAD THE Y COMPONENT
000612:    6611           50116                           INDEX    ADDRWD                                #  BEFORE STORING MPAC +2 IN CASE THIS IS A
000613:    6612           30003                           DCA      2                                     #  PUSHUP.
000614:    6613           52160                           DXCH     MPAC       +3
000615:
000616:    6614           30156                           CA       MPAC       +2
000617:    6615           50166                           INDEX    PUSHLOC                               #  IN DP.
000618:    6616           53777                           TS       0          -1
000619:    6617           16515                           TCF      ENDVLOAD   +4
000620:
000621:                                                                                                  #  SSP (STORE SINGLE PRECISION) IS EXECUTED HERE.
000622:
000623:    6620           24164        SSP                INCR     LOC                                   #  PICK UP THE WORD FOLLOWING THE GIVEN
000624:    6621           50164                           INDEX    LOC                                   #  ADDRESS AND STORE IT AT X.
000625:    6622           30000                           CA       0
000626:    6623           50116        STORE1             INDEX    ADDRWD                                #  SOME INDEX AND MISCELLANEOUS OPS END
000627:    6624           54000                           TS       0                                     #  HERE.


000629:    6625           16061                           TCF      DANZIG
000630:


000632:                                                                                                  #  SEQUENCE CHANGING AND SUBROUTINE CALLING OPTIONS.
000633:
000634:                                                                                                  #  THE FOLLOWING OPERATIONS ARE AVAILABLE FOR SEQUENCING CHANGING, BRANCHING, AND CALLING SUBROUTINES:
000635:                                                                                                  #        1.      GOTO            GO TO.
000636:                                                                                                  #        2.      CALL            CALL SUBROUTINE SETTING QPRET.
000637:                                                                                                  #        3.      CGOTO           COMPUTED GO TO.
000638:                                                                                                  #        4.      CCALL           COMPUTED CALL.
000639:                                                                                                  #        7.      BPL             BRANCH IF MPAC POSITIVE OR ZERO.
000640:                                                                                                  #        8.      BZE             BRANCH IF MPAC ZERO.
000641:                                                                                                  #        9.      BMN             BRANCH IF MPAC NEGATIVE NON-ZERO.
000642:
000643:    6626           24164        CCALL              INCR     LOC                                   #  MAINTAIN LOC FOR QPRET COMPUTATION.
000644:    6627           50164                           INDEX    LOC
000645:    6630           30000                           CAF      0                                     #  GET BASE ADDRESS OF CADR LIST.
000646:    6631           50116                           INDEX    ADDRWD
000647:    6632           60000                           AD       0                                     #  ADD INCREMENT.
000648:    6633           54004                           TS       FBANK                                 #  SELECT DESIRED CADR.
000649:    6634           75012                           MASK     LOW10
000650:    6635           50000                           INDEX    A
000651:    6636           32000                           CAF      10000
000652:    6637           54117                           TS       POLISH
000653:
000654:    6640           30165        CALL               CA       BANKSET                               #  FOR ANY OF THE CALL OPTIONS, MAKE UP THE
000655:    6641           74350                           MASK     BANKMASK                              #  ADDRESS OF THE NEXT OP-CODE PAIR/STORE
000656:    6642           64350                           AD       BANKMASK                              #  CODE AND LEAVE IT IN QPRET.  NOTE THAT
000657:    6643           60164                           AD       LOC                                   #  BANKMASK = -(2000 - 1).
000658:    6644           50120                           INDEX    FIXLOC
000659:    6645           54052                           TS       QPRET
000660:
000661:    6646           30117        GOTO               CA       POLISH                                #  BASIC BRANCHING SEQUENCE.
000662:    6647           77742                 +1        MASK     HIGH4
000663:    6650           00006                           EXTEND
000664:    6651           16662                           BZF      GOTOERS                               #  SEE IF ADDRESS POINTS TO FIXED OR ERAS.
000665:    6652           30165                 +4        CA       BANKSET                               #  SET EBANK PART OF BBANK.  NEXT, SET UP
000666:    6653           54006                           TS       BBANK                                 #  FBANK.  THE COMBINATION IS PICKED UP &
000667:    6654           30117                           CA       POLISH                                #  PUT INTO BANKSET AT INTPRET +2.
000668:    6655           54004                           TS       FBANK
000669:    6656           75012                           MASK     LOW10
000670:    6657           64741                           AD       2K
000671:    6660           54164                           TS       LOC
000672:    6661           16042                           TCF      INTPRET    +3
000673:
000674:    6662  E3,1400                                  EBANK=   1400                                  #  SO YUL DOESN'T CUSS THE "CA 1400" BELOW.
000675:
000676:    6662           30117        GOTOERS            CA       POLISH                                #  THE GIVEN ADDRESS IS IN ERASABLE - SEE
000677:    6663           66251                           AD       -ENDVAC                               #  IF RELATIVE TO THE WORK AREA.
000678:    6664           10000                           CCS      A
000679:    6665           30117                           CA       POLISH                                #  GENERAL ERASABLE.
000680:    6666           16675                           TCF      GOTOGE
000681:


000683:    6667           30120                           CA       FIXLOC                                #  WORK AREA.
000684:    6670           60117                           AD       POLISH
000685:    6671           50000                           INDEX    A                                     #  USE THE GIVEN ADDRESS AS THE ADDRESS OF
000686:    6672           30000                           CA       0                                     #  THE BRANCH ADDRESS.
000687:    6673           54117                           TS       POLISH
000688:    6674           16647                           TCF      GOTO       +1                         #  ALLOWS ARBITRARY INDIRECTNESS LEVELS.
000689:
000690:    6675           54003        GOTOGE             TS       EBANK
000691:    6676           74357                           MASK     LOW8
000692:    6677           50000                           INDEX    A                                     #  USE THE GIVEN ADDRESS AS THE ADDRESS OF
000693:    6700           31400                           CA       1400                                  #  THE BRANCH ADDRESS.
000694:    6701           54117                           TS       POLISH
000695:    6702           16647                           TCF      GOTO       +1
000696:
000697:    6703           50164        CGOTO              INDEX    LOC                                   #  COMPUTED GO TO.  PICK UP ADDRESS OF CADR
000698:    6704           30001                           CA       1                                     #  LIST.
000699:    6705           50116                           INDEX    ADDRWD                                #  ADD MODIFIER.
000700:    6706           60000                           AD       0
000701:    6707           54004                           TS       FBANK                                 #  SELECT GOTO ADDRESS.
000702:    6710           75012                           MASK     LOW10
000703:    6711           50000                           INDEX    A
000704:    6712           32000                           CA       10000
000705:    6713           54117                           TS       POLISH
000706:    6714           16647                           TCF      GOTO       +1                         #  WITH ADDRESS IN A.
000707:
000708:    6715           30165        SWBRANCH           CA       BANKSET                               #  SWITCH INSTRUCTIONS WHICH ELECT TO
000709:    6716           54004                           TS       FBANK                                 #  BRANCH COME HERE TO DO SO.
000710:    6717           50164                           INDEX    LOC
000711:    6720           30001                           CA       1
000712:    6721           54117                           TS       POLISH
000713:    6722           16647                           TCF      GOTO       +1
000714:


000716:                                                                                                  #  TRIPLE PRECISION BRANCHING ROUTINE.  IF CALLING TC IS AT L, RETURN IS AS FOLLOWS:
000717:                                                                                                  #        L+1     IF MPAC IS GREATER THAN ZERO.
000718:                                                                                                  #        L+2     IF MPAC IS EQUAL TO +0 OR -0.
000719:                                                                                                  #        L+3     IF MPAC IS LESS THAN ZERO.
000720:
000721:    6723           10154        BRANCH             CCS      MPAC
000722:    6724           00002                           TC       Q
000723:    6725           16727                           TCF      +2                                    #  ON ZERO.
000724:    6726           16741                           TCF      NEG
000725:
000726:    6727           10155                           CCS      MPAC       +1
000727:    6730           00002                           TC       Q
000728:    6731           16733                           TCF      +2
000729:    6732           16741                           TCF      NEG
000730:
000731:    6733           10156                           CCS      MPAC       +2
000732:    6734           00002                           TC       Q
000733:    6735           16737                           TCF      +2
000734:    6736           16741                           TCF      NEG
000735:
000736:    6737           50002        Q+1                INDEX    Q
000737:    6740           00001                           TC       1
000738:
000739:    6741           50002        NEG                INDEX    Q                                     #  IF FIRST NON-ZERO REGISTER WAS NEGATIVE.
000740:    6742           00002                           TC       2
000741:
000742:    6743     6741               Q+2                =        NEG
000743:
000744:                                                                                                  #  ITRACE (3) REFERS TO "EXIT".
000745:
000746:    6743           30165        EXIT               CA       BANKSET                               #  RESTORE USER'S BANK SETTING, AND LEAVE
000747:    6744           54006                           TS       BBANK                                 #  INTERPRETIVE MODE.
000748:    6745           50164                           INDEX    LOC
000749:    6746           00001                           TC       1
000750:


000752:                                                                                                  #  SECTION 3 - ADD/SUBTRACT PACKAGE.
000753:
000754:                                                                                                  #           THE FOLLOWING OPERATIONS ARE PROVIDED FOR ADDING TO AND SUBTRACTING FROM THE MULTI-PURPOSE ACCUMULATOR
000755:                                                                                                  #  MPAC:
000756:
000757:                                                                                                  #        1.      DAD     DOUBLE PRECISION ADD.
000758:                                                                                                  #        2.      DSU     DOUBLE PRECISION SUBTRACT.
000759:                                                                                                  #        3.      BDSU    DOUBLE PRECISION SUBTRACT FROM.
000760:                                                                                                  #        4.      TAD     TRIPLE PRECISION ADD.
000761:                                                                                                  #        5.      VAD     VECTOR ADD.
000762:                                                                                                  #        6.      VSU     VECTOR SUBTRACT.
000763:                                                                                                  #        7.      BVSU    VECTOR SUBTRACT FROM.
000764:                                                                                                  #  THE INTERPRETIVE OVERFLOW INDICATOR OVFIND IS SET NON-ZERO IF OVERFLOW OCCURS IN ANY OF THE ABOVE.
000765:
000766:    6747           34735        VSU                CAF      BIT15                                 #  CHANGES 0 TO DCS.
000767:    6750           16752                           TCF      +2
000768:
000769:    6751           34355        VAD                CAF      PRIO30                                #  CHANGES 0 TO DCA.
000770:    6752           26116                           ADS      ADDRWD
000771:    6753           00006                           EXTEND
000772:    6754           50116                           INDEX    ADDRWD
000773:    6755           00003                           READ     HISCALAR                              #  DCA 2 OR DCS 2
000774:    6756           20160                           DAS      MPAC       +3
000775:    6757           00006                           EXTEND                                         #  CHECK OVERFLOW.
000776:    6760           16762                           BZF      +2
000777:    6761           07014                           TC       OVERFLWY
000778:
000779:    6762           00006                           EXTEND
000780:    6763           50116                           INDEX    ADDRWD
000781:    6764           00005                           READ     CHAN5                                 #  DCA 4 OR DCS 4
000782:    6765           20162                           DAS      MPAC       +5
000783:    6766           00006                           EXTEND
000784:    6767           16771                           BZF      +2
000785:    6770           07011                           TC       OVERFLWZ
000786:
000787:    6771           00006                           EXTEND
000788:    6772           50116                           INDEX    ADDRWD
000789:    6773           00001                           READ     LCHAN                                 #  DCA 0 OR DCS 0
000790:    6774           17000                           TCF      ENDVXV
000791:
000792:    6775           00006        DAD                EXTEND
000793:    6776           50116                           INDEX    ADDRWD
000794:    6777           30001                           DCA      0
000795:    7000           20155        ENDVXV             DAS      MPAC                                  #  VXV FINISHES HERE.
000796:    7001           00006                           EXTEND
000797:    7002           16061                           BZF      DANZIG
000798:


000800:    7003           07017        SETOVF             TC       OVERFLOW
000801:    7004           16061                           TCF      DANZIG
000802:


000804:    7005           00006        DSU                EXTEND
000805:    7006           50116                           INDEX    ADDRWD
000806:    7007           40001                           DCS      0
000807:    7010           17000                           TCF      ENDVXV
000808:
000809:    7011           54001        OVERFLWZ           TS       L                                     #  ENTRY FOR THIRD COMPONENT.
000810:    7012           34756                           CAF      FIVE
000811:    7013           17016                           TCF      +3
000812:
000813:    7014           54001        OVERFLWY           TS       L                                     #  ENTRY FOR SECOND COMPONENT.
000814:    7015           36245                           CAF      THREE
000815:    7016           56001                           XCH      L
000816:
000817:    7017           50000        OVERFLOW           INDEX    A                                     #  ENTRY FOR 1ST COMP OR DP (L=0).
000818:    7020           44734                           CS       LIMITS                                #  PICK UP POSMAX OR NEGMAX.
000819:    7021           54130                           TS       BUF
000820:    7022           00006                           EXTEND
000821:    7023           24000                           AUG      A                                     #  FORCE OVERFLOW.
000822:    7024           50001                           INDEX    L
000823:    7025           26155                           ADS      MPAC       +1
000824:    7026           54007                           TS       7
000825:    7027           34755                           CAF      ZERO
000826:    7030           60130                           AD       BUF
000827:    7031           50001                           INDEX    L
000828:    7032           26154                           ADS      MPAC
000829:    7033           54007                           TS       7
000830:    7034           00002                           TC       Q                                     #  NO OVERFLOW EXIT.
000831:    7035           17152                           TCF      SETOVF2                               #  SET OVFIND AND EXIT.
000832:
000833:    7036           00006        BVSU               EXTEND
000834:    7037           50116                           INDEX    ADDRWD
000835:    7040           30003                           DCA      2
000836:    7041           52160                           DXCH     MPAC       +3
000837:    7042           00006                           EXTEND
000838:    7043           40001                           DCOM
000839:    7044           20160                           DAS      MPAC       +3
000840:    7045           00006                           EXTEND
000841:    7046           17050                           BZF      +2
000842:    7047           07014                           TC       OVERFLWY
000843:
000844:    7050           00006                           EXTEND
000845:    7051           50116                           INDEX    ADDRWD
000846:    7052           30005                           DCA      4
000847:    7053           52162                           DXCH     MPAC       +5
000848:    7054           00006                           EXTEND
000849:    7055           40001                           DCOM
000850:    7056           20162                           DAS      MPAC       +5
000851:    7057           00006                           EXTEND
000852:    7060           17062                           BZF      +2
000853:    7061           07011                           TC       OVERFLWZ
000854:


000856:    7062           00006        BDSU               EXTEND
000857:    7063           50116                           INDEX    ADDRWD
000858:    7064           30001                           DCA      0
000859:    7065           52155                           DXCH     MPAC
000860:    7066           00006                           EXTEND
000861:    7067           40001                           DCOM
000862:    7070           17000                           TCF      ENDVXV
000863:


000865:                                                                                                  #  TRIPLE PRECISION ADD ROUTINE.
000866:
000867:    7071           00006        TAD                EXTEND
000868:    7072           50116                           INDEX    ADDRWD
000869:    7073           30002                           DCA      1                                     #  ADD MINOR PARTS FIRST.
000870:    7074           20156                           DAS      MPAC       +1
000871:    7075           50116                           INDEX    ADDRWD
000872:    7076           60000                           AD       0
000873:    7077           60154                           AD       MPAC
000874:    7100           54154                           TS       MPAC
000875:    7101           16061                           TCF      DANZIG
000876:
000877:    7102           17003                           TCF      SETOVF                                #  SET OVFIND IF SUCH OCCURS.
000878:


000880:                                                                                                  #  ARITHMETIC SUBROUTINES REQUIRED IN FIXED-FIXED.
000881:                                                                                                  #        1.  DMPSUB      DOUBLE PRECISION MULTIPLY. MULTIPLY THE CONTENTS OF MPAC,+1 BY THE DP WORD WHOSE ADDRESS
000882:                                                                                                  #                        IS IN ADDRWD AND LEAVE A TRIPLE PRECISION RESULT IN MPAC.
000883:                                                                                                  #        2.  ROUNDSUB    ROUND THE TRIPLE PRECISON CONTENTS OF MPAC TO DOUBLE PRECISION.
000884:                                                                                                  #        3.  DOTSUB      TAKE THE DOT PRODUCT OF THE VECTOR IN MPAC AND THE VECTOR WHOSE ADDRESS IS IN ADDRWD
000885:                                                                                                  #                        AND LEAVE THE TRIPLE PRECISION RESULT IN MPAC.
000886:                                                                                                  #        4.  POLY        USING THE CONTENTS OF MPAC AS A DP ARGUMENT, EVALUATE THE POLYNOMIAL WHOSE DEGREE AND
000887:                                                                                                  #                        COEFFICIENTS IMMEDIATELY FOLLOW THE TC POLY INSTRUCTION (SEE ROUTINE FOR DETAILS.)
000888:
000889:    7103           50002        DMP                INDEX    Q                                     #  BASIC SUBROUTINE FOR USE BY PINBALL, ETC
000890:    7104           30000                           CAF      0                                     #  ADRES OF ARGUMENT FOLLOWS  TC DMP .
000891:    7105           24002                           INCR     Q
000892:    7106           54116                 -1        TS       ADDRWD                                #  (PROLOGUE FOR SETTING ADDRWD.)
000893:
000894:    7107           50116        DMPSUB             INDEX    ADDRWD                                #  GET MINOR PART OF OPERAND AT C(ADDRWD).
000895:    7110           30001                           CA       1
000896:    7111           54156                           TS       MPAC       +2                         #  THIS WORKS FOR SQUARING MPAC AS WELL.
000897:    7112           34755                           CAF      ZERO                                  #  SET MPAC +1 TO ZERO SO WE CAN ACCUMULATE
000898:    7113           56155                           XCH      MPAC       +1                         #  THE PARTIAL PRODUCTS WITH DAS
000899:    7114           54135                           TS       MPTEMP                                #  INSTRUCTIONS.
000900:    7115           00006                           EXTEND
000901:    7116           70156                           MP       MPAC       +2                         #  MINOR OF MPAC X MINOR OF C(ADDRWD).
000902:
000903:    7117           56156                           XCH      MPAC       +2                         #  DISCARD MINOR PART OF ABOVE RESULT AND
000904:    7120           00006                           EXTEND                                         #  FORM MAJOR OF MPAC X MINOR OF C(ADDRWD).
000905:    7121           70154                           MP       MPAC
000906:    7122           20156                           DAS      MPAC       +1                         #  GUARANTEED NO OVERFLOW.
000907:
000908:    7123           50116                           INDEX    ADDRWD                                #  GET MAJOR PART OF ARGUMENT AT C(ADDRWD).
000909:    7124           30000                           CA       0
000910:    7125           56135                           XCH      MPTEMP                                #  SAVE AND BRING OUT MINOR OF MPAC.
000911:    7126           00006        DMPSUB2            EXTEND
000912:    7127           70135                           MP       MPTEMP                                #  MAJOR OF C(ADDRWD) X MINOR OF MPAC.
000913:    7130           20156                           DAS      MPAC       +1                         #  ACCUMULATE, SETTING A TO NET OVERFLOW.
000914:
000915:    7131           56154                           XCH      MPAC                                  #  SETTING MPAC TO 0 OR +-1.
000916:    7132           00006                           EXTEND
000917:    7133           70135                           MP       MPTEMP                                #  MAJOR OF MPAC X MAJOR OF C(ADDRWD).
000918:    7134           20155                           DAS      MPAC                                  #  GUARANTEED NO OVERFLOW.
000919:    7135           00002                           TC       Q                                     #  49 MCT = .573 MS. INCLUDING RETURN.
000920:


000922:                                                                                                  #  ROUND MPAC TO DOUBLE PRECISION, SETTING OVFIND ON THE RARE EVENT OF OVERFLOW.
000923:
000924:    7136           34755        ROUNDSUB           CAF      ZERO                                  #  SET MPAC +2 = 0 FOR SCALARS AND CHANGE
000925:    7137           54163                 +1        TS       MODE                                  #  MODE TO DP.
000926:
000927:    7140           56156        VROUND             XCH      MPAC       +2                         #  BUT WE NEEDNT TAKE THE TIME FOR VECTORS.
000928:    7141           60000                           DOUBLE
000929:    7142           54001                           TS       L
000930:    7143           00002                           TC       Q
000931:
000932:    7144           60155                           AD       MPAC       +1                         #  ADD ROUNDING BIT IF MPAC +2 WAS GREATER
000933:    7145           54155                           TS       MPAC       +1                         #  THAN .5 IN MAGNITUDE.
000934:    7146           00002                           TC       Q
000935:
000936:    7147           60154                           AD       MPAC                                  #  PROPAGATE INTERFLOW.
000937:    7150           54154                           TS       MPAC
000938:    7151           00002                           TC       Q
000939:
000940:    7152           54121        SETOVF2            TS       OVFIND                                #  (RARE).
000941:    7153           00002                           TC       Q
000942:


000944:                                                                                                  #  THE DOT PRODUCT SUBROUTINE USUALLY FORMS THE DOT PRODUCT OF THE VECTOR IN MPAC WITH A STANDARD SIX
000945:                                                                                                  #  REGISTER VECTOR WHOSE ADDRESS IS IN ADDRWD.  IN THIS CASE C(DOTINC) ARE SET TO 2.   VXM, HOWEVER, SETS C(DOTINC) TO
000946:                                                                                                  #  6 SO THAT DOTSUB DOTS MPAC WITH A COLUMN VECTOR OF THE MATRIX IN QUESTION IN THIS CASE.
000947:
000948:    7154           34752        PREDOT             CAF      TWO                                   #  PROLOGUE TO SET DOTINC TO 2.
000949:    7155           54136                           TS       DOTINC
000950:
000951:    7156           00006        DOTSUB             EXTEND
000952:    7157           22137                           QXCH     DOTRET                                #  SAVE RETURN.
000953:    7160           07107                           TC       DMPSUB                                #  DOT X COMPONENTS.
000954:    7161           52160                           DXCH     MPAC       +3                         #  POSITION Y COMPONENT OF MPAC FOR
000955:    7162           52155                           DXCH     MPAC                                  #  MULTIPLICATION WHILE SAVING RESULT IN
000956:    7163           52131                           DXCH     BUF                                   #  THREE WORD BUFFER, BUF.
000957:    7164           30156                           CA       MPAC       +2
000958:    7165           54132                           TS       BUF        +2
000959:
000960:    7166           30136                           CA       DOTINC                                #  ADVANCE ADDRWD TO Y COMPONENT OF
000961:    7167           26116                           ADS      ADDRWD                                #  OTHER ARGUMENT.
000962:    7170           07107                           TC       DMPSUB
000963:    7171           52156                           DXCH     MPAC       +1                         #  ACCUMULATE PARTIAL PRODUCTS.
000964:    7172           20132                           DAS      BUF        +1
000965:    7173           60154                           AD       MPAC
000966:    7174           60130                           AD       BUF
000967:    7175           54130                           TS       BUF
000968:    7176           17200                           TCF      +2
000969:    7177           54121                           TS       OVFIND                                #  IF OVERFLOW OCCURS.
000970:
000971:    7200           52162                           DXCH     MPAC       +5                         #  MULTIPLY Z COMPONENTS.
000972:    7201           52155                           DXCH     MPAC
000973:    7202           30136                           CA       DOTINC
000974:    7203           26116                           ADS      ADDRWD
000975:    7204           07107                           TC       DMPSUB
000976:    7205           52132        ENDDOT             DXCH     BUF        +1                         #  LEAVE FINAL ACCUMULATION IN MPAC.
000977:    7206           20156                           DAS      MPAC       +1
000978:    7207           60154                           AD       MPAC
000979:    7210           60130                           AD       BUF
000980:    7211           54154                           TS       MPAC
000981:    7212           00137                           TC       DOTRET
000982:
000983:    7213           07017                           TC       OVERFLOW                              #  ON OVERFLOW HERE.
000984:    7214           00137                           TC       DOTRET
000985:


000987:                                                                                                  #  DOUBLE PRECISION POLYNOMIAL EVALUATOR
000988:                                                                                                  #                                  N        N-1
000989:                                                                                                  #        THIS ROUTINE EVALUATES A X  + A   X    + ... + A  X + A  LEAVING THE DP RESULT IN MPAC ON EXIT.
000990:                                                                                                  #                                N      N-1              1      0
000991:
000992:                                                                                                  #  THE ROUTINE HAS TWO ENTRIES
000993:
000994:                                                                                                  #        1.      ENTRY THRU POWRSERS.  THE COEFFICIENTS MAY BE EITHER IN FIXED OR ERASABLE, THE CALL IS BY
000995:                                                                                                  #                TC POWRSERS, AND THE RETURN IS TO LOC(TC POWRSERS)+1.  THE ENTERING DATA MUST BE AS FOLLOWS
000996:
000997:                                                                                                  #                        A               SP      LOC-3           ADDRESS FOR REFERENCING COEF TABLE
000998:                                                                                                  #                        L               SP      N-1             N IS THE DEGREE OF THE POWER SERIES
000999:                                                                                                  #                        MPAC            DP      X               ARGUMENT
001000:                                                                                                  #                        LOC-2N          DP      A(0)
001001:                                                                                                  #                                        ...
001002:                                                                                                  #                        LOC             DP      A(N)
001003:
001004:                                                                                                  #        2.      ENTRY THRU POLY.  THE CALL TO POLY AND THE ENTERING DATA MUST BE AS FOLLOWS
001005:
001006:                                                                                                  #                        MPAC            DP      X               ARGUMENT
001007:                                                                                                  #                        LOC             TC      POLY
001008:                                                                                                  #                        LOC+1           SP      N-1
001009:                                                                                                  #                        LOC+2           DP      A(0)
001010:                                                                                                  #                                        ...
001011:                                                                                                  #                        LOC+2N+2        DP      A(N)            RETURN IS TO LOC+2N+4
001012:
001013:    7215           00006        POWRSERS           EXTEND
001014:    7216           22141                           QXCH     POLYRET                               #  RETURN ADDRESS
001015:    7217           54117                           TS       POLISH                                #  POWER SERIES ADDRESS
001016:    7220           22140                           LXCH     POLYCNT                               #  N-1 TO COUNTER
001017:    7221           17232                           TCF      POLYCOM                               #  SKIP SET UP BY POLY
001018:
001019:    7222           50002        POLY               INDEX    Q
001020:    7223           30000                           CAF      0
001021:    7224           54140                           TS       POLYCNT                               #  N-1 TO COUNTER
001022:    7225           60000                           DOUBLE
001023:    7226           60002                           AD       Q
001024:    7227           54117                           TS       POLISH                                #  L(A(N))-3 TO POLISH
001025:    7230           64756                           AD       FIVE
001026:    7231           54141                           TS       POLYRET                               #  STORE RETURN ADDRESS
001027:
001028:    7232           36273        POLYCOM            CAF      LVBUF                                 #  INCOMING X WILL BE MOVED TO VBUF, SO
001029:    7233           54116                           TS       ADDRWD                                #  SET ADDRWD SO DMPSUB WILL MPY BY VBUF.
001030:
001031:    7234           00006                           EXTEND
001032:    7235           50117                           INDEX    POLISH
001033:    7236           30004                           DCA      3
001034:


001036:    7237           52155                           DXCH     MPAC                                  #  LOAD A(N) INTO MPAC,
001037:    7240           52123                           DXCH     VBUF                                  #  SAVING X IN VBUF
001038:    7241           17245                           TCF      POLY2
001039:
001040:    7242           54140        POLYLOOP           TS       POLYCNT                               #  SAVE DECREMENTED LOOP COUNTER
001041:    7243           44752                           CS       TWO
001042:    7244           26117                           ADS      POLISH                                #  REGRESS COEFFICIENT POINTER
001043:
001044:    7245           07107        POLY2              TC       DMPSUB                                #  MULTIPLY BY X
001045:    7246           00006                           EXTEND
001046:    7247           50117                           INDEX    POLISH
001047:    7250           30002                           DCA      1                                     #  ADD IN NEXT COEFFICIENT
001048:    7251           20155                           DAS      MPAC                                  #  USERS RESPONSIBILITY TO ASSURE NO OVFLOW
001049:
001050:    7252           10140                           CCS      POLYCNT
001051:    7253           17242                           TCF      POLYLOOP
001052:    7254           00141                           TC       POLYRET                               #  RETURN CALLER
001053:


001055:                                                                                                  #  MISCELLANEOUS MULTI-PRECISION ROUTINES REQUIRED IN FIXED-FIXED BUT NOT USED BY THE INTERPRETER.
001056:
001057:    7255           34755        DPAGREE            CAF      ZERO                                  #  DOUBLE PRECISION ENTRY -
001058:    7256           54156                           TS       MPAC       +2                         #  ZERO LOW-ORDER WORD
001059:
001060:    7257           22002        TPAGREE            LXCH     Q                                     #  FORCE SIGN AGREEMENT AMONG THE TRIPLE
001061:    7260           06723                           TC       BRANCH                                #  PRECISION CONTENTS OF MPAC.  RETURNING
001062:    7261           17265                           TCF      ARG+                                  #  WITH SIGNUM OF THE INPUT IN A.
001063:    7262           17305                           TCF      ARGZERO
001064:
001065:    7263           44733                           CS       POSMAX                                #  IF NEGATIVE.
001066:    7264           17266                           TCF      +2
001067:
001068:    7265           34733        ARG+               CAF      POSMAX
001069:    7266           54002                           TS       Q
001070:    7267           00006                           EXTEND
001071:    7270           24000                           AUG      A                                     #  FORMS +-1.0.
001072:    7271           60156                           AD       MPAC       +2
001073:    7272           54156                           TS       MPAC       +2
001074:    7273           34755                           CAF      ZERO
001075:    7274           60002                           AD       Q
001076:    7275           60155                           AD       MPAC       +1
001077:    7276           54155                           TS       MPAC       +1
001078:    7277           34755                           CAF      ZERO
001079:    7300           60002                           AD       Q                                     #  Q STILL HAS POSMAX OR NEGMAX IN IT.
001080:    7301           60154                           AD       MPAC
001081:    7302           54154        ARGZERO2           TS       MPAC                                  #  ALWAYS SKIPPING UNLESS ARGZERO.
001082:    7303           54155                           TS       MPAC       +1
001083:    7304           00001                           TC       L                                     #  RETURN VIA L.
001084:
001085:    7305           54156        ARGZERO            TS       MPAC       +2                         #  SET ALL THREE MPAC REGISTERS TO ZERO.
001086:    7306           17302                           TCF      ARGZERO2
001087:
001088:                                                                                                  #  SHORTMP MULTIPLIES THE TP CONTENTS OF MPAC BY THE SINGLE PRECISION NUMBER ARRIVING IN A.
001089:
001090:    7307           54135        SHORTMP            TS       MPTEMP
001091:    7310           00006                           EXTEND
001092:    7311           70156                           MP       MPAC       +2
001093:    7312           54156                           TS       MPAC       +2
001094:    7313           34755        SHORTMP2           CAF      ZERO                                  #  SO SUBSEQUENT DAS WILL WORK.
001095:    7314           56155                           XCH      MPAC       +1
001096:    7315           17126                           TCF      DMPSUB2
001097:


001099:                                                                                                  #  DMPNSUB MULTIPLIES THE DP FRACTION ARRIVING IN MPAC BY THE SP
001100:                                                                                                  #  INTEGER ARRIVING IN A.  THE DP PRODUCT DEPARTS BOTH IN MPAC AND IN
001101:                                                                                                  #  A AND L.  NOTE THAT DMPNSUB NORMALLY INCREASES THE MAGNITUDE OF THE
001102:                                                                                                  #  CONTENTS OF MPAC.  THE CUSTOMER MUST INSURE THAT B(A) X B(MPAC,MPAC+1)
001103:                                                                                                  #  AND B(A) X B(MPAC) ARE LESS THAN 1 IN MAGNITUDE, WHERE B, AS IS OBVIOUS,
001104:                                                                                                  #  INDICATES THE ARRIVING CONTENTS.
001105:
001106:    7316           54135        DMPNSUB            TS       DMPNTEMP
001107:    7317           00006                           EXTEND
001108:    7320           70155                           MP       MPAC       +1
001109:    7321           52155                           DXCH     MPAC                                  #  LOW PRODUCT TO MPAC, HIGH FACTOR TO A
001110:    7322           00006                           EXTEND
001111:    7323           70135                           MP       DMPNTEMP
001112:    7324           30001                           CA       L
001113:    7325           26154                           ADS      MPAC                                  #  COMPLETING THE PRODUCT IN MPAC
001114:    7326           00006                           EXTEND
001115:    7327           30155                           DCA      MPAC                                  #  BRINGING THE PRODUCT INTO A AND L
001116:    7330           00002                           TC       Q
001117:


001119:                                                                                                  #  MISCELLANEOUS VECTOR OPERATIONS.  INCLUDED HERE ARE THE FOLLOWING:
001120:                                                                                                  #        1.      DOT     DP VECTOR DOT PRODUCT.
001121:                                                                                                  #        2.      VXV     DP VECTOR CROSS PRODUCT.
001122:                                                                                                  #        3.      VXSC    DP VECTOR TIMES SCALAR.
001123:                                                                                                  #        4.      V/SC    DP VECTOR DIVIDED BY SCALAR.
001124:                                                                                                  #        5.      VPROJ   DP VECTOR PROJECTION.  ( (MPAC.X)MPAC ).
001125:                                                                                                  #        6.      VXM     DP VECTOR POST-MULTIPLIED BY MATRIX.
001126:                                                                                                  #        7.      MXV     DP VECTOR PRE-MULTIPLIED BY MATRIX.
001127:
001128:    7331           07154        DOT                TC       PREDOT                                #  DO THE DOT PRODUCT AND EXIT, CHANGING
001129:    7332           34755        DMODE              CAF      ZERO                                  #  THE MODE TO DP SCALAR.
001130:    7333           16060                           TCF      NEWMODE
001131:
001132:    7334           34752        MXV                CAF      TWO                                   #  SET UP MATINC AND DOTINC FOR ROW
001133:    7335           54140                           TS       MATINC                                #  VECTORS.
001134:    7336           17342                           TCF      VXM/MXV                               #  GO TO COMMON PORTION.
001135:
001136:    7337           44363        VXM                CS       TEN                                   #  SET MATINC AND DOTINC TO REFER TO MATRIX
001137:    7340           54140                           TS       MATINC                                #  AS THREE COLUMN VECTORS.
001138:    7341           36242                           CAF      SIX
001139:


001141:                                                                                                  #  COMMON PORTION OF MXV AND VXM.
001142:
001143:    7342           54136        VXM/MXV            TS       DOTINC
001144:                                                                                                  #  ITRACE (2) REFERS TO "VXM/MXV".
001145:    7343           07532                           TC       MPACVBUF                              #  SAVE VECTOR IN MPAC FOR FURTHER USE.
001146:
001147:    7344           07156                           TC       DOTSUB                                #  GO DOT TO GET X COMPONENT OF ANSWER.
001148:    7345           00006                           EXTEND
001149:    7346           30123                           DCA      VBUF                                  #  MOVE MPAC VECTOR BACK INTO MPAC, SAVING
001150:    7347           52155                           DXCH     MPAC                                  #  NEW X COMPONENT IN BUF2.
001151:    7350           52134                           DXCH     BUF2
001152:    7351           00006                           EXTEND
001153:    7352           30125                           DCA      VBUF       +2
001154:    7353           52160                           DXCH     MPAC       +3
001155:    7354           00006                           EXTEND
001156:    7355           30127                           DCA      VBUF       +4
001157:    7356           52162                           DXCH     MPAC       +5
001158:    7357           30140                           CA       MATINC                                #  INITIALIZE ADDRWD FOR NEXT DOT PRODUCT.
001159:    7360           26116                           ADS      ADDRWD                                #  FORMS BASE ADDRESS OF NEXT COLUMN(ROW).
001160:
001161:    7361           07156                           TC       DOTSUB
001162:    7362           52123                           DXCH     VBUF                                  #  MOVE GIVEN VECTOR BACK TO MPAC, SAVING Y
001163:    7363           52155                           DXCH     MPAC                                  #  COMPONENT OF ANSWER IN VBUF +2.
001164:    7364           52125                           DXCH     VBUF       +2
001165:    7365           52160                           DXCH     MPAC       +3
001166:    7366           52127                           DXCH     VBUF       +4
001167:    7367           52162                           DXCH     MPAC       +5
001168:    7370           30140                           CA       MATINC                                #  FORM ADDRESS OF LAST COLUMN OR ROW.
001169:    7371           26116                           ADS      ADDRWD
001170:
001171:    7372           07156                           TC       DOTSUB
001172:    7373           52134                           DXCH     BUF2                                  #  ANSWER NOW COMPLETE. PUT COMPONENTS INTO
001173:    7374           52155                           DXCH     MPAC                                  #  PROPER MPAC REGISTERS.
001174:    7375           52162                           DXCH     MPAC       +5
001175:    7376           52125                           DXCH     VBUF       +2
001176:    7377           52160                           DXCH     MPAC       +3
001177:    7400           16061                           TCF      DANZIG                                #  EXIT.
001178:


001180:                                                                                                  #  VXSC - VECTOR TIMES SCALAR.
001181:
001182:    7401           10163        VXSC               CCS      MODE                                  #  TEST PRESENT MODE.
001183:    7402           17430                           TCF      DVXSC                                 #  SEPARATE ROUTINE WHEN SCALAR IS IN MPAC.
001184:    7403           17430                           TCF      DVXSC
001185:
001186:    7404           07107        VVXSC              TC       DMPSUB                                #  COMPUTE X COMPONENT
001187:    7405           07140                           TC       VROUND                                #  AND ROUND IT.
001188:    7406           52160                           DXCH     MPAC       +3                         #  PUT Y COMPONENT INTO MPAC SAVING MPAC IN
001189:    7407           52155                           DXCH     MPAC                                  #  MPAC +3.
001190:    7410           52160                           DXCH     MPAC       +3
001191:
001192:    7411           07107                           TC       DMPSUB                                #  DO SAME FOR Y AND Z COMPONENTS.
001193:    7412           07140                           TC       VROUND
001194:    7413           52162                           DXCH     MPAC       +5
001195:    7414           52155                           DXCH     MPAC
001196:    7415           52162                           DXCH     MPAC       +5
001197:
001198:    7416           07107                           TC       DMPSUB
001199:    7417           07140                           TC       VROUND
001200:    7420           52155        VROTATEX           DXCH     MPAC                                  #  EXIT USED TO RESTORE MPAC AFTER THIS
001201:    7421           52162                           DXCH     MPAC       +5                         #  TYPE OF ROTATION.  CALLED BY VECTOR SHIFT
001202:    7422           52160                           DXCH     MPAC       +3                         #  RIGHT, V/SC, ETC.
001203:    7423           52155                           DXCH     MPAC
001204:    7424           16061                           TCF      DANZIG
001205:


001207:                                                                                                  #  DP VECTOR PROJECTION ROUTINE.
001208:
001209:    7425           07154        VPROJ              TC       PREDOT                                #  (MPAC.X)MPAC IS COMPUTED AND LEFT IN
001210:    7426           44751                           CS       FOUR                                  #  MPAC.  DO DOT AND FALL INTO DVXSC.
001211:    7427           26116                           ADS      ADDRWD
001212:
001213:                                                                                                  #  VXSC WHEN SCALAR ARRIVES IN MPAC AND VECTOR IS AT X.
001214:
001215:    7430           00006        DVXSC              EXTEND                                         #  SAVE SCALAR IN MPAC +3 AND GET X
001216:    7431           30155                           DCA      MPAC                                  #  COMPONENT OF ANSWER.
001217:    7432           52160                           DXCH     MPAC       +3
001218:    7433           07107                           TC       DMPSUB
001219:    7434           07140                           TC       VROUND
001220:
001221:    7435           34752                           CAF      TWO                                   #  ADVANCE ADDRWD TO Y COMPONENT OF X.
001222:    7436           26116                           ADS      ADDRWD
001223:    7437           00006                           EXTEND
001224:    7440           30160                           DCA      MPAC       +3                         #  PUT SCALAR BACK INTO MPAC AND SAVE
001225:    7441           52155                           DXCH     MPAC                                  #  X RESULT IN MPAC +5.
001226:    7442           52162                           DXCH     MPAC       +5
001227:    7443           07107                           TC       DMPSUB
001228:    7444           07140                           TC       VROUND
001229:
001230:    7445           34752                           CAF      TWO
001231:    7446           26116                           ADS      ADDRWD                                #  TO Z COMPONENT.
001232:    7447           52160                           DXCH     MPAC       +3                         #  BRING SCALAR BACK, PUTTING Y RESULT IN
001233:    7450           52155                           DXCH     MPAC                                  #  THE PROPER PLACE.
001234:    7451           52160                           DXCH     MPAC       +3
001235:    7452           07107                           TC       DMPSUB
001236:    7453           07140                           TC       VROUND
001237:
001238:    7454           52155                           DXCH     MPAC                                  #  PUT Z COMPONENT IN PROPER PLACE, ALSO
001239:    7455           52162                           DXCH     MPAC       +5                         #  POSITIONING X.
001240:    7456           52155                           DXCH     MPAC
001241:
001242:    7457           16521                           TCF      VMODE                                 #  MODE HAS CHANGED TO VECTOR.
001243:


001245:                                                                                                  #           THE VECTOR CROSS PRODUCT ROUTINE CALCULATES (X M -X M ,X M -X M ,X M -X M ) WHERE M IS THE VECTOR IN
001246:                                                                                                  #                                                         3 2  2 3  1 3  3 1  2 1  1 2
001247:                                                                                                  #  MPAC AND X THE VECTOR AT THE GIVEN ADDRESS.
001248:
001249:    7460           00006        VXV                EXTEND
001250:    7461           30162                           DCA      MPAC       +5                         #  FORM UP M3X1, LEAVING M1 IN VBUF.
001251:    7462           52155                           DXCH     MPAC
001252:    7463           52123                           DXCH     VBUF
001253:    7464           07107                           TC       DMPSUB                                #  BY X1.
001254:
001255:    7465           00006                           EXTEND
001256:    7466           40160                           DCS      MPAC       +3                         #  CALCULATE -X1M2, SAVING X1M3 IN VBUF +2.
001257:    7467           52155                           DXCH     MPAC
001258:    7470           52125                           DXCH     VBUF       +2
001259:    7471           07107                           TC       DMPSUB
001260:
001261:    7472           34752                           CAF      TWO                                   #  ADVANCE ADDRWD TO X2.
001262:    7473           26116                           ADS      ADDRWD
001263:    7474           00006                           EXTEND
001264:    7475           40162                           DCS      MPAC       +5                         #  PREPARE TO GET -X2M3, SAVING -X1M2 IN
001265:    7476           52155                           DXCH     MPAC                                  #  MPAC +5.
001266:    7477           52162                           DXCH     MPAC       +5
001267:    7500           07107                           TC       DMPSUB
001268:
001269:    7501           00006                           EXTEND
001270:    7502           30123                           DCA      VBUF                                  #  GET X2M1, SAVING -X2M3 IN VBUF +4.
001271:    7503           52155                           DXCH     MPAC
001272:    7504           52127                           DXCH     VBUF       +4
001273:    7505           07107                           TC       DMPSUB
001274:
001275:    7506           34752                           CAF      TWO                                   #  ADVANCE ADDRWD TO X3.
001276:    7507           26116                           ADS      ADDRWD
001277:    7510           00006                           EXTEND
001278:    7511           40123                           DCS      VBUF                                  #  GET -X3M1, ADDING X2M1 TO MPAC +5 TO
001279:    7512           52155                           DXCH     MPAC                                  #  COMPLETE THE Z COMPONENT OF THE ANSWER.
001280:    7513           20162                           DAS      MPAC       +5
001281:
001282:    7514           00006                           EXTEND
001283:    7515           17517                           BZF      +2
001284:    7516           07011                           TC       OVERFLWZ
001285:
001286:    7517           07107                           TC       DMPSUB
001287:    7520           52125                           DXCH     VBUF       +2                         #  MOVE X1M3 TO MPAC +3 SETTING UP FOR X3M2
001288:    7521           52160                           DXCH     MPAC       +3                         #  AND ADD -X3M1 TO MPAC +3 TO COMPLETE THE
001289:    7522           52155                           DXCH     MPAC                                  #  Y COMPONENT OF THE RESULT.
001290:    7523           20160                           DAS      MPAC       +3
001291:
001292:    7524           00006                           EXTEND
001293:    7525           17527                           BZF      +2


001295:    7526           07014                           TC       OVERFLWY
001296:
001297:    7527           07107                           TC       DMPSUB
001298:    7530           52127                           DXCH     VBUF       +4                         #  GO ADD -X2M3 TO X3M2 TO COMPLETE THE X
001299:    7531           17000                           TCF      ENDVXV                                #  COMPONENT (TAIL END OF DAD).
001300:
001301:                                                                                                  #  THE MPACVBUF SUBROUTINE SAVES THE VECTOR IN MPAC IN VBUF WITHOUT CLOBBERING MPAC.
001302:
001303:    7532           00006        MPACVBUF           EXTEND                                         #  CALLED BY MXV, VXM, AND UNIT.
001304:    7533           30155                           DCA      MPAC
001305:    7534           52123                           DXCH     VBUF
001306:    7535           00006                           EXTEND
001307:    7536           30160                           DCA      MPAC       +3
001308:    7537           52125                           DXCH     VBUF       +2
001309:    7540           00006                           EXTEND
001310:    7541           30162                           DCA      MPAC       +5
001311:    7542           52127                           DXCH     VBUF       +4
001312:    7543           00002                           TC       Q                                     #  RETURN TO CALLER.
001313:
001314:                                                                                                  #  DOUBLE PRECISION SIGN AGREE ROUTINE.  ARRIVE WITH INPUT IN A+L.  OUTPUT IS IN A + L.
001315:
001316:    7544           10000        ALSIGNAG           CCS      A                                     #  TEST UPPER PART.
001317:    7545           17551                           TCF      UPPOS                                 #  IT IS POSITIVE
001318:    7546           00002                           TC       Q                                     #  ZERO
001319:    7547           17561                           TCF      UPNEG                                 #  NEGATIVE
001320:    7550           00002                           TC       Q                                     #  ZERO
001321:
001322:    7551           56001        UPPOS              XCH      L                                     #  SAVE DECREMENTED UPPER PART.
001323:    7552           64736                           AD       HALF
001324:    7553           64736                           AD       HALF
001325:    7554           54000                           TS       A                                     #  SKIPS ON OVERFLOW
001326:    7555           17557                           TCF      +2
001327:    7556           24001                           INCR     L                                     #  RESTORE UPPER TO ROIGINAL VALUE
001328:    7557           56001                           XCH      L                                     #  SWAP A + L BACK.
001329:    7560           00002                           TC       Q
001330:
001331:    7561           56001        UPNEG              XCH      L                                     #  SAVE COMPLEMENTED + DECREMENTED UPPER PT
001332:    7562           64735                           AD       NEGMAX
001333:    7563           67747                           AD       NEGONE
001334:    7564           54000                           TS       A
001335:    7565           17567                           TCF      +2                                    #  DONT INCREMENT IF NO OVERFLOW.
001336:    7566           24001                           INCR     L
001337:    7567           56001                           XCH      L
001338:    7570           40000                           COM                                            #  MAKE NEGATIVE AGAIN.
001339:    7571           00002                           TC       Q
001340:


001342:                                                                                                  #  INTERPRETIVE INSTRUCTIONS WHOSE EXECUTION CONSISTS OF PRINCIPALLY CALLING SUBROUTINES.
001343:
001344:    7572           07107        DMP1               TC       DMPSUB                                #  DMP INSTRUCTION.
001345:    7573           16061                           TCF      DANZIG
001346:
001347:    7574           07107        DMPR               TC       DMPSUB
001348:    7575           07137                           TC       ROUNDSUB   +1                         #  (C(A) = +0).
001349:    7576           16061                           TCF      DANZIG
001350:
001351:    7577           00006        DDV                EXTEND
001352:    7600           50116                           INDEX    ADDRWD                                #  MOVE DIVIDEND INTO BUF.
001353:    7601           30001                           DCA      0
001354:    7602           17607                           TCF      BDDV       +4
001355:
001356:    7603           00006        BDDV               EXTEND                                         #  MOVE DIVISOR INTO MPAC SAVING MPAC, THE
001357:    7604           50116                           INDEX    ADDRWD                                #  DIVIDEND, IN BUF.
001358:    7605           30001                           DCA      0
001359:    7606           52155                           DXCH     MPAC
001360:    7607           52131                 +4        DXCH     BUF
001361:    7610           34755                           CAF      ZERO                                  #  DIVIDE ROUTINES IN BANK 0.
001362:    7611           54004                           TS       FBANK
001363:    7612           12353                           TCF      DDV/BDDV
001364:
001365:    7613           30116        SETPD              CA       ADDRWD                                #  MUST SET TO WORK AREA, OR EBANK TROUBLE.
001366:    7614           54166                           TS       PUSHLOC
001367:    7615           16063                           TCF      NOIBNKSW                              #  NO FBANK SWITCH REQUIRED.
001368:
001369:    7616           34755        TSLC               CAF      ZERO                                  #  SHIFTING ROUTINES LOCATED IN BANK 00.
001370:    7617           54004                           TS       FBANK
001371:    7620           12172                           TCF      TSLC2
001372:
001373:    7621           36074        GSHIFT             CAF      LOW7                                  #  USED AS MASK AT GENSHIFT. THIS PROCESSES
001374:    7622           54004                           TS       FBANK                                 #  ANY SHIFT INSTRUCTION (EXCEPT TSLC) WITH
001375:    7623           12214                           TCF      GENSHIFT                              #  AN ADDRESS (ROUTINES IN BANK 0).
001376:


001378:                                                                                                  #  THE FOLLOWING IS THE PROLOGUE TO V/SC.  IF THE PRESENT MODE IS VECTOR, IT SAVES THE SCALAR AT X IN BUF
001379:                                                                                                  #  AND CALLS THE V/SC ROUTINE IN BANK 0.  IF THE PRESENT MODE IS SCALAR, IT MOVES THE VECTOR AT X INTO MPAC, SAVING
001380:                                                                                                  #  THE SCALAR IN MPAC IN BUF BEFORE CALLING THE V/SC ROUTINE IN BANK 0.
001381:
001382:    7624           10163        V/SC               CCS      MODE
001383:    7625           17636                           TCF      DV/SC                                 #  MOVE VECTOR INTO MPAC.
001384:    7626           17636                           TCF      DV/SC
001385:
001386:    7627           00006        VV/SC              EXTEND
001387:    7630           50116                           INDEX    ADDRWD
001388:    7631           30001                           DCA      0
001389:    7632           52131        V/SC1              DXCH     BUF                                   #  IN BOTH CASES, VECTOR IS NOW IN MPAC AND
001390:    7633           34755                           CAF      ZERO                                  #  SCALAR IN BUF.
001391:    7634           54004                           TS       FBANK
001392:    7635           12654                           TCF      V/SC2
001393:
001394:    7636           00006        DV/SC              EXTEND
001395:    7637           50116                           INDEX    ADDRWD
001396:    7640           30003                           DCA      2
001397:    7641           52160                           DXCH     MPAC       +3
001398:    7642           00006                           EXTEND
001399:    7643           50116                           INDEX    ADDRWD
001400:    7644           30005                           DCA      4
001401:    7645           52162                           DXCH     MPAC       +5
001402:
001403:    7646           44753                           CS       ONE                                   #  CHANGE MODE TO VECTOR.
001404:    7647           54163                           TS       MODE
001405:
001406:    7650           00006                           EXTEND
001407:    7651           50116                           INDEX    ADDRWD
001408:    7652           30001                           DCA      0
001409:    7653           52155                           DXCH     MPAC
001410:    7654           17632                           TCF      V/SC1                                 #  FINISH PROLOGUE AT COMMON SECTION.
001411:


001413:                                                                                                  #  SIGN AND COMPLEMENT INSTRUCTIONS.
001414:
001415:    7655           50116        SIGN               INDEX    ADDRWD                                #  CALL COMP INSTRUCTION IF WORD AT X IS
001416:    7656           10000                           CCS      0                                     #  NEGATIVE NON-ZERO.
001417:    7657           16061                           TCF      DANZIG
001418:    7660           17662                           TCF      +2
001419:    7661           17670                           TCF      COMP                                  #  DO THE COMPLEMENT.
001420:
001421:    7662           50116                           INDEX    ADDRWD
001422:    7663           10001        CCSL               CCS      1
001423:    7664           16061                           TCF      DANZIG
001424:    7665           16061                           TCF      DANZIG
001425:    7666           17670                           TCF      COMP
001426:    7667           16061                           TCF      DANZIG
001427:    7670           00006        COMP               EXTEND                                         #  COMPLEMENT DP MPAC IN EVERY CASE.
001428:    7671           40155                           DCS      MPAC
001429:    7672           52155                           DXCH     MPAC
001430:
001431:    7673           10163                           CCS      MODE                                  #  EITHER COMPLEMENT MPAC +3 OR THE REST OF
001432:    7674           17705                           TCF      DCOMP                                 #  THE VECTOR ACCUMULATOR.
001433:    7675           17705                           TCF      DCOMP
001434:
001435:    7676           00006                           EXTEND                                         #  VECTOR COMPLEMENT.
001436:    7677           40160                           DCS      MPAC       +3
001437:    7700           52160                           DXCH     MPAC       +3
001438:    7701           00006                           EXTEND
001439:    7702           40162                           DCS      MPAC       +5
001440:    7703           52162                           DXCH     MPAC       +5
001441:    7704           16061                           TCF      DANZIG
001442:
001443:    7705           40156        DCOMP              CS       MPAC       +2
001444:    7706           54156                           TS       MPAC       +2
001445:    7707           16061                           TCF      DANZIG
001446:


001448:                                                                                                  #  THE FOLLOWING SHORT SHIFT CODES REQUIRE NO ADDRESS WORD:
001449:                                                                                                  #        1.      SR1 TO SR4      SCALAR SHIFT RIGHT.
001450:                                                                                                  #        2.      SR1R TO SR4R    SCALAR SHIFT RIGHT AND ROUND.
001451:                                                                                                  #        3.      SL1 TO SL4      SCALAR SHIFT LEFT.
001452:                                                                                                  #        4.      SL1R TO SL4R    SCALAR SHIFT LEFT AND ROUND.
001453:                                                                                                  #        5.      VSR1 TO VSR8    VECTOR SHIFT RIGHT (ALWAYS ROUNDS).
001454:                                                                                                  #        6.      VSL1 TO VSL8    VECTOR SHIFT LEFT (NEVER ROUNDS).
001455:                                                                                                  #  THE FOLLOWING CODES REQUIRE AN ADDRESS WHICH MAY BE INDEXED:*
001456:                                                                                                  #        1.      SR              SCALAR SHIFT RIGHT.
001457:                                                                                                  #        2.      SRR             SCALAR SHIFT RIGHT AND ROUND.
001458:                                                                                                  #        3.      SL              SCALAR SHIFT LEFT.
001459:                                                                                                  #        4.      SLR             SCALAR SHIFT LEFT AND ROUND.
001460:                                                                                                  #        5.      VSR             VECTOR SHIFT RIGHT.
001461:                                                                                                  #        6.      VSL             VECTOR SHIFT LEFT.
001462:                                                                                                  #  * IF THE ADDRESS IS INDEXED, AND THE INDEX MODIFICATION RESULTS IN A NEGATIVE SHIFT COUNT, A SHIFT OF THE
001463:                                                                                                  #  ABSOLUTE VALUE OF THE COUNT IS DONE IN THE OPPOSITE DIRECTION.
001464:
001465: 00,2017                                           BANK     00
001466:
001467: 00,2017                                           COUNT*   $$/INTER
001468: 00,2017           36242        SHORTT             CAF      SIX                                   #  SCALAR SHORT SHIFTS COME HERE.  THE SHIFT
001469: 00,2020           70020                           MASK     CYR                                   #  COUNT-1 IS NOW IN BITS 2-3 OF CYR.  THE
001470: 00,2021           54021                           TS       SR                                    #  ROUNDING BIT IS IN BIT1 AT THIS POINT.
001471:
001472: 00,2022           10020                           CCS      CYR                                   #  SEE IF RIGHT OR LEFT SHIFT DESIRED.
001473: 00,2023           12101                           TCF      TSSL                                  #  SHIFT LEFT.
001474:
001475: 00,2024           00024        SRDDV              DEC      20         B-14                       #  MPTEMP SETTING FOR SR BEFORE DDV.
001476:
001477: 00,2025           50021        TSSR               INDEX    SR                                    #  GET SHIFTING BIT.
001478: 00,2026           34736                           CAF      BIT14
001479: 00,2027           54135                           TS       MPTEMP
001480:
001481: 00,2030           10020                           CCS      CYR                                   #  SEE IF A ROUND IS DESIRED.
001482: 00,2031           02050        RIGHTR             TC       MPACSRND                              #  YES - SHIFT RIGHT AND ROUND.
001483: 00,2032           16060                           TCF      NEWMODE                               #  SET MODE TO DP (C(A) = 0).
001484: 00,2033           30135        MPACSHR            CA       MPTEMP                                #  DO A TRIPLE PRECISION SHIFT RIGHT.
001485: 00,2034           00006                           EXTEND
001486: 00,2035           70156                           MP       MPAC       +2
001487: 00,2036           54156                 +3        TS       MPAC       +2                         #  (EXIT FROM SQRT AND ABVAL).
001488: 00,2037           30135                           CA       MPTEMP
001489: 00,2040           00006                           EXTEND
001490: 00,2041           70154                           MP       MPAC                                  #  SHIFT MAJOR PART INTO A,L AND PLACE IN


001492: 00,2042           52155                           DXCH     MPAC                                  #  MPAC,+1.
001493: 00,2043           30135                           CA       MPTEMP
001494: 00,2044           00006                           EXTEND
001495: 00,2045           70001                           MP       L                                     #  ORIGINAL C(MPAC +1).
001496: 00,2046           20156                           DAS      MPAC       +1                         #  GUARANTEED NO OVERFLOW.
001497: 00,2047           16061                           TCF      DANZIG
001498:
001499:                                                                                                  #  MPAC SHIFT RIGHT AND ROUND SUBROUTINES.
001500:
001501: 00,2050           30156        MPACSRND           CA       MPAC       +2                         #  WE HAVE TO DO ALL THREE MULTIPLIES SINCE
001502: 00,2051           00006                           EXTEND                                         #  MPAC +1 AND MPAC +2 MIGHT HAVE SIGN
001503: 00,2052           70135                           MP       MPTEMP                                #  DISAGREEMENT WITH A SHIFT RIGHT OF 1.
001504: 00,2053           56155                           XCH      MPAC       +1
001505: 00,2054           00006                           EXTEND
001506: 00,2055           70135                           MP       MPTEMP
001507: 00,2056           56155                           XCH      MPAC       +1                         #  TRIAL MINOR PART.
001508: 00,2057           60001                           AD       L
001509:
001510: 00,2060           60000        VSHR2              DOUBLE                                         #  (FINISH VECTOR COMPONENT SHIFT RIGHT
001511: 00,2061           54156                           TS       MPAC       +2                         #  AND ROUND.
001512: 00,2062           12064                           TCF      +2
001513: 00,2063           26155                           ADS      MPAC       +1                         #  GUARANTEED NO OVERFLOW.
001514:
001515: 00,2064           34755                           CAF      ZERO
001516: 00,2065           54156                           TS       MPAC       +2
001517: 00,2066           56154                           XCH      MPAC                                  #  SETTING TO ZERO SO FOLLOWING DAS WORKS.
001518: 00,2067           00006                           EXTEND
001519: 00,2070           70135                           MP       MPTEMP
001520: 00,2071           20155                           DAS      MPAC                                  #  AGAIN NO OVERFLOW.
001521: 00,2072           00002                           TC       Q
001522:
001523: 00,2073           30135        VSHRRND            CA       MPTEMP                                #  ENTRY TO SHIFT RIGHT AND ROUND MPAC WHEN
001524: 00,2074           00006                           EXTEND                                         #  MPAC CONTAINS A VECTOR COMPONENT.
001525: 00,2075           70155                           MP       MPAC       +1
001526: 00,2076           54155                           TS       MPAC       +1
001527: 00,2077           56001                           XCH      L
001528: 00,2100           12060                           TCF      VSHR2                                 #  GO ADD ONE IF NECESSARY AND FINISH.
001529:


001531:                                                                                                  #  ROUTINE FOR SHORT SCALAR SHIFT LEFT (AND MAYBE ROUND).
001532:
001533: 00,2101           30021        TSSL               CA       SR                                    #  GET SHIFT COUNT FOR SR.
001534: 00,2102           54135                 +1        TS       MPTEMP
001535:
001536: 00,2103           00006                 +2        EXTEND                                         #  ENTRY HERE FROM SL FOR SCALARS.
001537: 00,2104           30156                           DCA      MPAC       +1                         #  SHIFTING LEFT ONE PLACE AT A TIME IS
001538: 00,2105           20156                           DAS      MPAC       +1                         #  FASTER THAN DOING THE WHOLE SHIFT WITH
001539: 00,2106           60154                           AD       MPAC                                  #  MULTIPLIES ASSUMING THAT FREQUENCY OF
001540: 00,2107           60154                           AD       MPAC                                  #  SHIFT COUNTS GOES DOWN RAPIDLY AS A
001541: 00,2110           54154                           TS       MPAC                                  #  FUNCTION OF THEIR MAGNITUDE.
001542: 00,2111           12113                           TCF      +2
001543: 00,2112           54121                           TS       OVFIND                                #  OVERFLOW.  (LEAVES OVERFLOW-CORRECTED
001544:                                                                                                  #  RESULT ANYWAY).
001545: 00,2113           10135                           CCS      MPTEMP                                #  LOOP ON DECREMENTED SHIFT COUNT.
001546: 00,2114           12102                           TCF      TSSL       +1
001547:
001548: 00,2115           10020                           CCS      CYR                                   #  SEE IF ROUND WANTED.
001549: 00,2116           07136        ROUND              TC       ROUNDSUB                              #  YES - ROUND AND EXIT.
001550: 00,2117           16061                           TCF      DANZIG                                #  SL LEAVES A ZERO IN CYR FOR NO ROUND.
001551: 00,2120           16061                           TCF      DANZIG                                #  NO - EXIT IMMEDIATL
001552:


001554:                                                                                                  #  VECTOR SHIFTING ROUTINES.
001555:
001556: 00,2121           34757        SHORTV             CAF      LOW3                                  #  SAVE 3 BIT SHIFT COUNT - 1 WITHOUT
001557: 00,2122           70020                           MASK     CYR                                   #  EDITING CYR.
001558: 00,2123           54135                           TS       MPTEMP
001559: 00,2124           10020                           CCS      CYR                                   #  SEE IF LEFT OR RIGHT SHIFT.
001560: 00,2125           12145                           TCF      VSSL                                  #  VECTOR SHIFT LEFT.
001561: 00,2126           00176        OCT176             OCT      176                                   #  USED IN PROCESSED SHIFTS WITH - COUNT.
001562:
001563: 00,2127           50135        VSSR               INDEX    MPTEMP                                #  (ENTRY FROM SR).  PICK UP SHIFTING BIT.
001564: 00,2130           34736                           CAF      BIT14                                 #  MPTEMP CONTAINS THE SHIFT COUNT - 1.
001565: 00,2131           54135                           TS       MPTEMP
001566: 00,2132           02073                           TC       VSHRRND                               #  SHIFT X COMPONENT.
001567:
001568: 00,2133           52155                           DXCH     MPAC                                  #  SWAP X AND Y COMPONENTS.
001569: 00,2134           52160                           DXCH     MPAC       +3
001570: 00,2135           52155                           DXCH     MPAC
001571: 00,2136           02073                           TC       VSHRRND                               #  SHIFT Y COMPONENT.
001572:
001573: 00,2137           52155                           DXCH     MPAC                                  #  SWAP Y AND Z COMPONENTS.
001574: 00,2140           52162                           DXCH     MPAC       +5
001575: 00,2141           52155                           DXCH     MPAC
001576: 00,2142           02073                           TC       VSHRRND                               #  SHIFT Z COMPONENT.
001577:
001578: 00,2143           17420                           TCF      VROTATEX                              #  RESTORE COMPONENTS TO PROPER PLACES.
001579:


001581:                                                                                                  #  VECTOR SHIFT LEFT - DONE ONE PLACE AT A TIME.
001582:
001583: 00,2144           54135                 -1        TS       MPTEMP                                #  SHIFTING LOOP.
001584:
001585: 00,2145           00006        VSSL               EXTEND
001586: 00,2146           30155                           DCA      MPAC
001587: 00,2147           20155                           DAS      MPAC
001588: 00,2150           00006                           EXTEND
001589: 00,2151           12153                           BZF      +2
001590: 00,2152           07017                           TC       OVERFLOW
001591:
001592: 00,2153           00006                           EXTEND
001593: 00,2154           30160                           DCA      MPAC       +3
001594: 00,2155           20160                           DAS      MPAC       +3
001595: 00,2156           00006                           EXTEND
001596: 00,2157           12161                           BZF      +2
001597: 00,2160           07014                           TC       OVERFLWY
001598:
001599: 00,2161           00006                           EXTEND
001600: 00,2162           30162                           DCA      MPAC       +5
001601: 00,2163           20162                           DAS      MPAC       +5
001602: 00,2164           00006                           EXTEND
001603: 00,2165           12167                           BZF      +2
001604: 00,2166           07011                           TC       OVERFLWZ
001605:
001606: 00,2167           10135                           CCS      MPTEMP                                #  LOOP ON DECREMENTED SHIFT COUNTER.
001607: 00,2170           12144                           TCF      VSSL       -1
001608: 00,2171           16061                           TCF      DANZIG                                #  EXIT.
001609:


001611:                                                                                                  #  TSLC - TRIPLE SHIFT LEFT AND COUNT.  SHIFTS MPAC LEFT UNTIL GREATER THAN .5 IN MAGNITUDE, LEAVING
001612:                                                                                                  #  THE COMPLEMENT OF THE NUMBER OF SHIFTS REQUIRED IN X.
001613:
001614: 00,2172           54135        TSLC2              TS       MPTEMP                                #  START BY ZEROING SHIFT COUNT (IN A NOW).
001615: 00,2173           06723                           TC       BRANCH                                #  EXIT WITH NO SHIFTING IF ARGUMENT ZERO.
001616: 00,2174           12176                           TCF      +2
001617: 00,2175           12212                           TCF      ENDTSLC                               #  STORES ZERO SHIFT COUNT IN THIS CASE.
001618:
001619: 00,2176           07257                           TC       TPAGREE                               #  MAY CAUSE UPSHIFT OF ONE EXTRA PLACE.
001620:
001621: 00,2177           30154                           CA       MPAC                                  #  BEGIN NORMALIZATION LOOP.
001622: 00,2200           12207                           TCF      TSLCTEST
001623:
001624: 00,2201           24135        TSLCLOOP           INCR     MPTEMP                                #  INCREMENT SHIFT COUNTER.
001625: 00,2202           00006                           EXTEND
001626: 00,2203           30156                           DCA      MPAC       +1
001627: 00,2204           20156                           DAS      MPAC       +1
001628: 00,2205           60154                           AD       MPAC
001629: 00,2206           26154                           ADS      MPAC
001630: 00,2207           60000        TSLCTEST           DOUBLE                                         #  SEE IF (ANOTHER) SHIFT IS REQUIRED.
001631: 00,2210           54000                           OVSK
001632: 00,2211           12201                           TCF      TSLCLOOP                              #  YES - INCREMENT COUNT AND SHIFT AGAIN.
001633:
001634: 00,2212           40135        ENDTSLC            CS       MPTEMP
001635: 00,2213           16623                           TCF      STORE1                                #  STORE SHIFT COUNT AND RETURN TO DANZIG.
001636:


001638:                                                                                                  #  THE FOLLOWING ROUTINES PROCESSES THE GENERAL SHIFT INSTRUCTIONS SR, SRR, SL, AND SLR.
001639:                                                                                                  #  THE GIVEN ADDRESS IS DECODED AS FOLLOWS:
001640:                                                                                                  #        BITS 1-7        SHIFT COUNT (SUBADDRESS) LESS THAN 125 DECIMAL.
001641:                                                                                                  #        BIT 8           PSEUDO SIGN BIT (DETECTS CHANGE IN SIGN IN INDEXED SHIFTS).
001642:                                                                                                  #        BIT 9           0 FOR LEFT SHIFT, AND 1 FOR RIGHT SHIFT.
001643:                                                                                                  #        BIT 10          1 FOR TERMINAL ROUND ON SCALAR SHIFTS, 0 OTHERWISE.
001644:                                                                                                  #        BITS 11-13      0.
001645:                                                                                                  #        BIT 14          1.
001646:                                                                                                  #        BIT 15          0.
001647:                                                                                                  #  THE ABOVE ENCODING IS DONE BY THE YUL SYSTEM.
001648:
001649: 00,2214           70116        GENSHIFT           MASK     ADDRWD                                #  GET SHIFT COUNT, TESTING FOR ZERO.
001650: 00,2215           10000                           CCS      A                                     #  (ARRIVES WITH C(A) = LOW7).
001651: 00,2216           12224                           TCF      GENSHFT2                              #  IF NON-ZERO, PROCEED WITH DECREMENTED CT
001652:
001653: 00,2217           34742                           CAF      BIT10                                 #  ZERO SHIFT COUNT.  NO SHIFTS NEEDED BUT
001654: 00,2220           70116                           MASK     ADDRWD                                #  WE MIGHT HAVE TO ROUND MPAC ON SLR AND
001655: 00,2221           10000                           CCS      A                                     #  SRR (SCALAR ONLY).
001656: 00,2222           07136                           TC       ROUNDSUB
001657: 00,2223           16061                           TCF      DANZIG
001658:
001659: 00,2224           54135        GENSHFT2           TS       MPTEMP                                #  DECREMENTED SHIFT COUNT TO MPTEMP.
001660: 00,2225           34744                           CAF      BIT8                                  #  TEST MEANING OF LOW SEVEN BIT COUNT IN
001661: 00,2226           00006                           EXTEND                                         #  MPTEMP NOW.
001662: 00,2227           70116                           MP       ADDRWD
001663: 00,2230           76245                           MASK     LOW2                                  #  JUMPS ON SHIFT DIRECTION (BIT8) AND
001664: 00,2231           50000                           INDEX    A
001665: 00,2232           12233                           TCF      +1                                    #  ORIGINAL SHIFT DIRECTION (BIT 9).
001666: 00,2233           12332                           TCF      RIGHT-                                #  NEGATIVE SHIFT COUNT FOR SL OR SLR.
001667: 00,2234           12342                           TCF      LEFT                                  #  SL OR SLR.
001668: 00,2235           12336                           TCF      LEFT-                                 #  NEGATIVE SHIFT COUNT WITH SR OR SRR.
001669:


001671:                                                                                                  #  GENERAL SHIFT RIGHT.
001672:
001673: 00,2236           10163        RIGHT              CCS      MODE                                  #  SEE IF VECTOR OR SCALAR.
001674: 00,2237           12277                           TCF      GENSCR
001675: 00,2240           12277                           TCF      GENSCR
001676:
001677: 00,2241           30135                           CA       MPTEMP                                #  SEE IF SHIFT COUNT LESS THAN 14D.
001678: 00,2242           63733        VRIGHT2            AD       NEG12
001679: 00,2243           00006                           EXTEND
001680: 00,2244           62127                           BZMF     VSSR                                  #  IF SO, BRANCH AND SHIFT IMMEDIATELY.
001681:
001682: 00,2245           67747                           AD       NEGONE                                #  IF NOT, REDUCE MPTEMP BY A TOTAL OF 14,
001683: 00,2246           54135                           TS       MPTEMP                                #  AND DO A SHIFT RIGHT AND ROUND BY 14.
001684: 00,2247           34755                           CAF      ZERO                                  #  THE ROUND AT THIS STAGE MAY INTRODUCE A
001685: 00,2250           54001                           TS       L                                     #  ONE BIT ERROR IN A SHIFT RIGHT 15D.
001686: 00,2251           56154                           XCH      MPAC
001687: 00,2252           56155                           XCH      MPAC       +1
001688: 00,2253           02272                           TC       SETROUND                              #  X COMPONENT NOW SHIFTED, SO MAKE UP THE
001689: 00,2254           20155                           DAS      MPAC                                  #  ROUNDING QUANTITY (0 IN A AND 0 OR +-1
001690:                                                                                                  #  IN L).
001691: 00,2255           56157                           XCH      MPAC       +3                         #  REPEAT THE ABOVE PROCESS FOR Y AND Z.
001692: 00,2256           56160                           XCH      MPAC       +4
001693: 00,2257           02272                           TC       SETROUND
001694: 00,2260           20160                           DAS      MPAC       +3                         #  NO OVERFLOW ON THESE ADDS.
001695:
001696: 00,2261           56161                           XCH      MPAC       +5
001697: 00,2262           56162                           XCH      MPAC       +6
001698: 00,2263           02272                           TC       SETROUND
001699: 00,2264           20162                           DAS      MPAC       +5
001700:
001701: 00,2265           10135                           CCS      MPTEMP                                #  SEE IF DONE, DOING FINAL DECREMENT.
001702: 00,2266           54135                           TS       MPTEMP
001703: 00,2267           12242                           TCF      VRIGHT2
001704: 00,2270           04604        BIASLO             DEC      .2974      B-1                        #  SQRT CONSTANT
001705:
001706: 00,2271           16061                           TCF      DANZIG
001707:
001708: 00,2272           60000        SETROUND           DOUBLE                                         #  MAKES UP ROUNDING QUANTITY FROM ARRIVING
001709: 00,2273           54156                           TS       MPAC       +2                         #  C(A).  L IS ZERO INITIALLY.
001710: 00,2274           34755                           CAF      ZERO
001711: 00,2275           56001                           XCH      L
001712: 00,2276           00002                           TC       Q                                     #  RETURN AND DO THE DAS, RESETTING L TO 0.
001713:


001715:                                                                                                  #  PROCESS SR AND SRR FOR SCALARS.
001716:
001717: 00,2277           30135        GENSCR             CA       MPTEMP                                #  SEE IF THE ORIGINAL SHIFT COUNT WAS LESS
001718: 00,2300           63733                 +1        AD       NEG12                                 #  THAN 14D.
001719: 00,2301           00006                           EXTEND
001720: 00,2302           62322                           BZMF     DOSSHFT                               #  DO THE SHIFT IMMEDIATELY IF SO.
001721:
001722: 00,2303           67747                 +4        AD       NEGONE                                #  IF NOT, DECREMENT SHIFT COUNT BY 14D AND
001723: 00,2304           54135                           TS       MPTEMP                                #  SHIFT MPAC RIGHT 14 PLACES.
001724: 00,2305           34755                           CAF      ZERO
001725: 00,2306           56154                           XCH      MPAC
001726: 00,2307           56155                           XCH      MPAC       +1
001727: 00,2310           54156                           TS       MPAC       +2
001728: 00,2311           10135                           CCS      MPTEMP                                #  SEE IF FINISHED, DO FINAL DECREMENT.
001729: 00,2312           54135                           TS       MPTEMP
001730: 00,2313           02300                           TC       GENSCR     +1
001731: 00,2314           22650        SLOPEHI            DEC      .5884                                 #  SQRT CONSTANT.
001732: 00,2315           34742                           CAF      BIT10                                 #  FINISHED WITH SHIFT.  SEE IF ROUND
001733: 00,2316           70116                           MASK     ADDRWD                                #  WANTED.
001734: 00,2317           10000                           CCS      A
001735: 00,2320           07136                           TC       ROUNDSUB
001736: 00,2321           16061                           TCF      DANZIG                                #  DO SO AND/OR EXIT.
001737:
001738: 00,2322           50135        DOSSHFT            INDEX    MPTEMP                                #  PICK UP SHIFTING BIT.
001739: 00,2323           34736                           CAF      BIT14
001740: 00,2324           54135                           TS       MPTEMP
001741: 00,2325           34742                           CAF      BIT10                                 #  SEE IF TERMINAL ROUND DESIRED.
001742: 00,2326           70116                           MASK     ADDRWD
001743: 00,2327           10000                           CCS      A
001744: 00,2330           12031                           TCF      RIGHTR                                #  YES.
001745: 00,2331           12033                           TCF      MPACSHR                               #  JUST SHIFT RIGHT.
001746:


001748:                                                                                                  #  PROCESS THE RIGHT- (SL(R) WITH A NEGATIVE COUNT), LEFT-, AND LEFT OPTIONS.
001749:
001750: 00,2332           40135        RIGHT-             CS       MPTEMP                                #  GET ABSOLUTE VALUE - 1 OF SHIFT COUNT
001751: 00,2333           62126                           AD       OCT176                                #  UNDERSTANDING THAT BIT8 (PSEUDO-SIGN)
001752: 00,2334           54135                           TS       MPTEMP                                #  WAS 1 INITIALLY.
001753: 00,2335           12236                           TCF      RIGHT                                 #  DO NORMAL SHIFT RIGHT.
001754:
001755: 00,2336           42126        LEFT-              CS       OCT176                                #  SAME PROLOGUE TO LEFT FOR INDEXED RIGHT
001756: 00,2337           60135                           AD       MPTEMP                                #  SHIFTS WHOSE NET SHIFT COUNT IS NEGATIVE
001757: 00,2340           40000                           COM
001758: 00,2341           54135                           TS       MPTEMP
001759:
001760: 00,2342           10163        LEFT               CCS      MODE                                  #  SINCE LEFT SHIFTING IS SONE ONE PLACE AT
001761: 00,2343           12346                           TCF      GENSCL                                #  A TIME, NO COMPARISON WITH 14 NEED BE
001762: 00,2344           12346                           TCF      GENSCL                                #  DONE.  FOR SCALARS, SEE IF TERMINAL ROUND
001763: 00,2345           12145                           TCF      VSSL                                  #  DESIRED.  FOR VECTORS, SHIFT IMMEDIATELY.
001764:
001765: 00,2346           40116        GENSCL             CS       ADDRWD                                #  PUT ROUNDING BIT (BIT 10 OF ADDRWD) INTO
001766: 00,2347           00006                           EXTEND                                         #  BIT 15 OF CYR WHERE THE ROUNDING BIT OF
001767: 00,2350           74746                           MP       BIT6                                  #  A SHORT SHIFT LEFT WOULD BE
001768: 00,2351           54020                           TS       CYR
001769: 00,2352           12103                           TCF      TSSL       +2                         #  DO THE SHIFT.
001770:


001772:                                                                                                  #  SCALAR DIVISION INSTRUCTIONS, DDV AND BDDV, ARE EXECUTED HERE.  AT THIS POINT, THE DIVIDEND IS IN MPAC
001773:                                                                                                  #  AND THE DIVISOR IN BUF.
001774:
001775: 00,2353           44753        DDV/BDDV           CS       ONE                                   #  INITIALIZATION.
001776: 00,2354           54136                           TS       DVSIGN                                #  +-1 FOR POSITIVE QUOTIENT - -0 FOR NEG.
001777: 00,2355           54137                           TS       DVNORMCT                              #  DIVIDEND NORMALIZATION COUNT.
001778: 00,2356           54140                           TS       MAXDVSW                               #  NEAR-ONE DIVIDE FLAG.
001779:
001780: 00,2357           10130                           CCS      BUF                                   #  FORCE BUF POSITIVE WITH THE MAJOR PART
001781: 00,2360           12516                           TCF      BUFPOS                                #  NON-ZERO.
001782: 00,2361           12363                           TCF      +2
001783: 00,2362           12531                           TCF      BUFNEG
001784:
001785: 00,2363           54156        BUFZERO            TS       MPAC       +2                         #  ZERO THIS.
001786: 00,2364           07257                           TC       TPAGREE                               #  FORCE SIGN AGREEMENT BEFORE OVERFLOW
001787:
001788: 00,2365           10154                           CCS      MPAC                                  #  TEST TO SEE IF MPAC NON-ZERO.  (TOO BIG)
001789: 00,2366           12414                           TCF      OVF+                                  #  MAJOR PART OF DIVIDEND IS POSITIVE NON-0
001790: 00,2367           12371                           TCF      +2
001791: 00,2370           12413                           TCF      OVF+       -1                         #  MAJOR PART OF DIVIDEND IS NEG. NON-ZERO
001792:
001793: 00,2371           56131                           XCH      BUF        +1                         #  SHIFT DIVIDEND AND DIVISOR LEFT 14.
001794: 00,2372           56130                           XCH      BUF
001795: 00,2373           56155                           XCH      MPAC       +1
001796: 00,2374           56154                           XCH      MPAC
001797: 00,2375           10130                           CCS      BUF                                   #  TRY AGAIN ON FORMER MINOR PART.
001798: 00,2376           12422                           TCF      BUF+
001799: 00,2377           12401                           TCF      +2                                    #  OVERFLOW ON ZERO DIVISOR.
001800: 00,2400           12416                           TCF      BUF-
001801:
001802: 00,2401           40154                           CS       MPAC                                  #  SIGN OF MPAC DETERMINES SIGN OF RESULT.
001803: 00,2402           00006        SGNDVOVF           EXTEND
001804: 00,2403           62405                           BZMF     +2
001805: 00,2404           24136                           INCR     DVSIGN                                #  NEGMAX IN MPAC PERHAPS.
001806: 00,2405           34733        DVOVF              CAF      POSMAX                                #  ON DIVISION OVERFLOW OF ANY SORT, SET
001807: 00,2406           54154                           TS       MPAC                                  #  SET DP MPAC TO +-POSMAX.
001808: 00,2407           02630                           TC       FINALDV    +3
001809: 00,2410           34753                           CAF      ONE                                   #  SET OVERFLOW INDICATOR AND EXIT.
001810: 00,2411           54121                           TS       OVFIND
001811: 00,2412           06061                           TC       DANZIG
001812:
001813: 00,2413           24136                 -1        INCR     DVSIGN
001814: 00,2414           40131        OVF+               CS       BUF        +1                         #  LOAD LOWER ORDER PART OF DIVISOR.
001815: 00,2415           12402                           TCF      SGNDVOVF                              #  GET SIGN OF RESULT.
001816:
001817: 00,2416           00006        BUF-               EXTEND                                         #  IF BUF IS NEGATIVE, COMPLEMENT IT AND
001818: 00,2417           40131                           DCS      BUF                                   #  MAINTAIN DVSIGN FOR FINAL QUOTIENT SIGN.
001819: 00,2420           52131                           DXCH     BUF
001820: 00,2421           24136                           INCR     DVSIGN                                #  NOW -0.
001821:


001823: 00,2422           10154        BUF+               CCS      MPAC                                  #  FORCE MPAC POSITIVE, CHECKING FOR ZERO
001824: 00,2423           12437                           TCF      MPAC+                                 #  DIVIDEND IN THE PROCESS.
001825: 00,2424           12426                           TCF      +2
001826: 00,2425           12433                           TCF      MPAC-
001827: 00,2426           10155                           CCS      MPAC       +1
001828: 00,2427           12437                           TCF      MPAC+
001829: 00,2430           16061                           TCF      DANZIG                                #  EXIT IMMEDIATELY ON ZERO DIVIDEND.
001830: 00,2431           12433                           TCF      MPAC-
001831: 00,2432           16061                           TCF      DANZIG
001832:
001833: 00,2433           00006        MPAC-              EXTEND                                         #  FORCE MPAC POSITIVE AS BUF IN BUF-.
001834: 00,2434           40155                           DCS      MPAC
001835: 00,2435           52155                           DXCH     MPAC
001836: 00,2436           24136                           INCR     DVSIGN                                #  NOW +1 OR -0.
001837:


001839: 00,2437           40154        MPAC+              CS       MPAC                                  #  CHECK FOR DIVISION OVERFLOW.  IF THE
001840: 00,2440           67747                           AD       NEGONE                                #  MAJOR PART OF THE DIVIDEND IS LESS THAN
001841: 00,2441           60130                           AD       BUF                                   #  THE MAJOR PART OF THE DIVISOR BY AT
001842: 00,2442           10000                           CCS      A                                     #  LEAST TWO, WE CAN PROCEED IMMEDIATELY
001843: 00,2443           12505                           TCF      DVNORM                                #  WITHOUT NORMALIZATION PRODUCING A DVMAX.
001844: 00,2444           60001        -1/2+2             OCT      60001                                 #  USED IN SQRTSUB.
001845:
001846: 00,2445           12446                           TCF      +1                                    #  IF THE ABOVE DOES NOT HOLD, FORCE SIGN
001847: 00,2446           34736                           CAF      HALF                                  #  AGREEMENT IN NUMERATOR AND DENOMINATOR
001848: 00,2447           60000                           DOUBLE                                         #  TO FACILITATE OVERFLOW AND NEAR-ONE
001849: 00,2450           60155                           AD       MPAC       +1                         #  CHECKING.
001850: 00,2451           54155                           TS       MPAC       +1
001851: 00,2452           34755                           CAF      ZERO
001852: 00,2453           64733                           AD       POSMAX
001853: 00,2454           26154                           ADS      MPAC
001854:
001855: 00,2455           34736                           CAF      HALF                                  #  SAME FOR BUF.
001856: 00,2456           60000                           DOUBLE
001857: 00,2457           60131                           AD       BUF        +1
001858: 00,2460           54131                           TS       BUF        +1
001859: 00,2461           34755                           CAF      ZERO
001860: 00,2462           64733                           AD       POSMAX
001861: 00,2463           26130                           ADS      BUF
001862:
001863: 00,2464           40154                           CS       MPAC                                  #  CHECK MAGNITUDE OF SIGN-CORRECTED
001864: 00,2465           60130                           AD       BUF                                   #  OPERANDS.
001865: 00,2466           10000                           CCS      A
001866: 00,2467           12505                           TCF      DVNORM                                #  DIVIDE OK - WILL NOT BECOME MAXDV CASE.
001867: 00,2470           00133        LBUF2              ADRES    BUF2
001868: 00,2471           12405                           TCF      DVOVF                                 #  DIVISOR NOT LESS THAN DIVIDEND - OVF.
001869:
001870: 00,2472           54140                           TS       MAXDVSW                               #  IF THE MAJOR PARTS OF THE DIVIDEND AND
001871: 00,2473           40155                           CS       MPAC       +1                         #  DIVISOR ARE EQUAL, A SPECIAL APPROXIMA-
001872: 00,2474           60131                           AD       BUF        +1                         #  TION IS USED (PROVIDED THE DIVISION IS
001873: 00,2475           00006                           EXTEND                                         #  POSSIBLE, OF COURSE).
001874: 00,2476           62405                           BZMF     DVOVF
001875: 00,2477           12505                           TCF      DVNORM                                #  IF NO OVERFLOW.
001876:


001878: 00,2500           00006        BUFNORM            EXTEND                                         #  ADD -1 TO AUGMENT SHIFT COUNT AND SHIFT
001879: 00,2501           24137                           AUG      DVNORMCT                              #  LEFT ONE PLACE.
001880: 00,2502           00006                           EXTEND
001881: 00,2503           30131                           DCA      BUF
001882: 00,2504           20131                           DAS      BUF
001883:
001884: 00,2505           30130        DVNORM             CA       BUF                                   #  SEE IF DIVISOR NORMALIZED YET.
001885: 00,2506           60000                           DOUBLE
001886: 00,2507           54000                           OVSK
001887: 00,2510           12500                           TCF      BUFNORM                               #  NO - SHIFT LEFT ONE AND TRY AGAIN.
001888:
001889: 00,2511           52155                           DXCH     MPAC                                  #  CALL DIVIDEND NORMALIZATION SEQUENCE
001890: 00,2512           50137                           INDEX    DVNORMCT                              #  PRIOR TO DOING THE DIVIDE.
001891: 00,2513           02565                           TC       MAXTEST
001892:
001893: 00,2514           54156                           TS       MPAC       +2                         #  RETURNS WITH DIVISION DONE AND C(A) = 0.
001894: 00,2515           16061                           TCF      DANZIG
001895:
001896: 00,2516           10000        BUFPOS             CCS      A
001897: 00,2517           12422                           TCF      BUF+                                  #  TO BUF+ IF BUF IS GREATER THAN +1.
001898:
001899: 00,2520           40131                           CS       BUF        +1                         #  IF BUF IS +1, FORCING SIGN AGREEMENT
001900: 00,2521           00006                           EXTEND                                         #  MAY CAUSE BUF TO BECOME ZERO.
001901: 00,2522           62422                           BZMF     BUF+                                  #  BRANCH IF SIGNS AGREE.
001902:
001903: 00,2523           34736                           CA       HALF                                  #  SIGNS DISAGREE.  FORCE AGREEMENT.
001904: 00,2524           60000                 +6        DOUBLE
001905: 00,2525           26131                           ADS      BUF        +1
001906: 00,2526           34755                           CA       ZERO
001907: 00,2527           54130                           TS       BUF
001908: 00,2530           12363                           TCF      BUFZERO
001909:
001910: 00,2531           10000        BUFNEG             CCS      A
001911: 00,2532           12416                           TCF      BUF-                                  #  TO BUF- IF BUF IS LESS THAN -1.
001912:
001913: 00,2533           30131                           CA       BUF        +1                         #  IF BUF IS -1, FORCING SIGN AGREEMENT
001914: 00,2534           00006                           EXTEND                                         #  MAY CAUSE BUF TO BECOME ZERO.
001915: 00,2535           62416                           BZMF     BUF-                                  #  BRANCH IF SIGNS AGREE.
001916:
001917: 00,2536           44736                           CS       HALF                                  #  SIGNS DISAGREE.  FORCE AGREEMENT.
001918: 00,2537           12524                           TCF      BUFPOS     +6
001919:


001921:                                                                                                  #  THE FOLLOWING ARE PROLOGUES TO SHIFT THE DIVIDEND ARRIVING IN A AND L BEFORE THE DIVIDE.
001922:
001923: 00,2540           22021                 -21D      LXCH     SR                                    #  SPECIAL PROLOGUE FOR UNIT WHEN THE
001924: 00,2541           00006                           EXTEND                                         #  LENGTH OF THE ARGUMENT WAS NOT LESS THAN
001925: 00,2542           74736                           MP       HALF                                  #  .5.  IN THIS CASE, EACH COMPONENT MUST BE
001926: 00,2543           56001                           XCH      L                                     #  SHIFTED RIGHT ONE TO PRODUCE A HALF-UNIT
001927: 00,2544           60021                           AD       SR                                    #  VECTOR.
001928: 00,2545           56001                           XCH      L
001929: 00,2546           12571                           TCF      GENDDV     +1                         #  WITH DP DIVIDEND IN A,L.
001930:
001931: 00,2547           20001                           DDOUBL                                         #  PROLOGUE WHICH NORMALIZES THE DIVIDEND
001932: 00,2550           20001                           DDOUBL                                         #  WHEN IT IS KNOWN THAT NO DIVISION
001933: 00,2551           20001                           DDOUBL                                         #  OVERFLOW WILL OCCUR.
001934: 00,2552           20001                           DDOUBL
001935: 00,2553           20001                           DDOUBL
001936: 00,2554           20001                           DDOUBL
001937: 00,2555           20001                           DDOUBL
001938: 00,2556           20001                           DDOUBL
001939: 00,2557           20001                           DDOUBL
001940: 00,2560           20001                           DDOUBL
001941: 00,2561           20001                           DDOUBL
001942: 00,2562           20001                           DDOUBL
001943: 00,2563           20001                           DDOUBL
001944: 00,2564           52155                           DXCH     MPAC
001945:
001946: 00,2565           10140        MAXTEST            CCS      MAXDVSW                               #  0 IF MAJORS MIGHT BE =, -1 OTHERWISE.
001947: 00,2566           06552        BIASHI             DEC      .4192      B-1                        #  SQRT CONSTANTS
001948:
001949: 00,2567           12642                           TCF      MAXDV                                 #  CHECK TO SEE IF THEY ARE NOW EQUAL.
001950:


001952:                                                                                                  #  THE FOLLOWING IS A GENERAL PURPOSE DOUBLE PRECISION DIVISION ROUTINE.  IT DIVIDES MPAC BY BUF AND LEAVES
001953:                                                                                                  #  THE RESULT IN MPAC.  THE FOLLOWING CONDITIONS MUST BE SATISFIED:
001954:
001955:                                                                                                  #        1.      THE DIVISOR (BUF) MUST BE POSITIVE AND NOT LESS THAN .5.
001956:
001957:                                                                                                  #        2.      THE DIVIDEND (MPAC) MUST BE POSITIVE WITH THE MAJOR PART OF MPAC STRICTLY LESS THAN THAT OF BUF
001958:                                                                                                  #                (A SPECIAL APPROXIMATION, MAXDV, IS USED WHEN THE MAJOR PARTS ARE EQUAL).
001959:
001960:                                                                                                  #  UNDERSTANDING THAT A/B = Q + S(R/B) WHERE S = 2(-14) AND Q AND R ARE QUOTIENT AND REMAINDER, RESPEC-
001961:                                                                                                  #  TIVELY, THE FOLLOWING APPROXIMATION IS OBTAINED BY MULTIPLYING ABOVE AND BELOW BY C - SD AND NEGLECTING TERMS OF
001962:                                                                                                  #  ORDER S-SQUARED (POSSIBLY INTRODUCING ERROR INTO THE LOW TWO BITS OF THE RESULT).  SIGN AGREEMENT IS UNNECESSARY.
001963:
001964:                                                                                                  #        A + SB .      (R - QD)                                             A + SB
001965:                                                                                                  #        ------ = Q + S(------) WHERE Q AND R ARE QUOTIENT AND REMAINDER OF ------ RESPECTIVELY.
001966:                                                                                                  #        C + SD        (  C   )                                                C
001967:
001968: 00,2570           52155        GENDDV             DXCH     MPAC                                  #  WE NEED A AND B ONLY FOR FIRST DV.
001969: 00,2571           00006                 +1        EXTEND                                         #  (SPECIAL UNIT PROLOGUE ENTERS HERE).
001970: 00,2572           10130                           DV       BUF                                   #  A NOW CONTAINS Q AND L, R.
001971: 00,2573           52155                           DXCH     MPAC
001972:
001973: 00,2574           40154                           CS       MPAC                                  #  FORM DIVIDEND FOR MINOR PART OF RESULT.
001974: 00,2575           00006                           EXTEND
001975: 00,2576           70131                           MP       BUF        +1
001976: 00,2577           60155                           AD       MPAC       +1                         #  OVERFLOW AT THIS POINT IS POSITIVE SINCE
001977: 00,2600           54000                           OVSK                                           #  R IS POSITIVE IN EVERY CASE.
001978: 00,2601           12606                           TCF      +5
001979:
001980: 00,2602           00006                           EXTEND                                         #  OVERFLOW CAN BE REMOVED BY SUBTRACTING C
001981: 00,2603           60130                           SU       BUF                                   #  (BUF) ONCE SINCE R IS ALWAYS LESS THAN C
001982: 00,2604           24154                           INCR     MPAC                                  #  IN THIS CASE.  INCR COMPENSATES SUBTRACT.
001983: 00,2605           12610                           TCF      +DOWN                                 #  (SINCE C(A) IS STILL POSITIVE).
001984:
001985: 00,2606           00006                 +5        EXTEND                                         #  C(A) CAN BE MADE LESS THAN C IN MAGNI-
001986: 00,2607           62620                           BZMF     -UP                                   #  TUDE BY DIMINISHING IT BY C (SINCE C IS
001987:                                                                                                  #  NOT LESS THAN .5) UNLESS C(A) = 0.
001988:


001990: 00,2610           00006        +DOWN              EXTEND
001991: 00,2611           60130                           SU       BUF                                   #  IF POSITIVE, REDUCE ONLY IF NECESSARY
001992: 00,2612           00006                           EXTEND                                         #  SINCE THE COMPENSATING INCR MIGHT CAUSE
001993: 00,2613           12616                           BZF      +3                                    #  OVERFLOW.
001994: 00,2614           00006                           EXTEND                                         #  DONT SUBTRACT UNLESS RESULT IS POSITIVE
001995: 00,2615           62624                           BZMF     ENDMAXDV                              #  OR ZERO.
001996:
001997: 00,2616           24154                 +3        INCR     MPAC                                  #  KEEP SUBTRACT HERE AND COMPENSATE.
001998: 00,2617           12625                           TCF      FINALDV
001999:
002000: 00,2620           00006        -UP                EXTEND                                         #  IF ZERO, SET MINOR PART OF RESULT TO
002001: 00,2621           12630                           BZF      FINALDV    +3                         #  ZERO.
002002:
002003: 00,2622           00006                           EXTEND                                         #  IF NEGATIVE, ADD C TO A, SUBTRACTING ONE
002004: 00,2623           26154                           DIM      MPAC                                  #  TO COMPENSATE.  DIM IS OK HERE SINCE THE
002005: 00,2624           60130        ENDMAXDV           AD       BUF                                   #  MAJOR PART NEVER GOES NEGATIVE.
002006:


002008: 00,2625           22007        FINALDV            ZL                                             #  DO DV TO OBTAIN MINOR PART OF RESULT.
002009: 00,2626           00006                           EXTEND
002010: 00,2627           10130                           DV       BUF
002011: 00,2630           54155                 +3        TS       MPAC       +1
002012:
002013: 00,2631           10136                           CCS      DVSIGN                                #  LEAVE RESULT POSITIVE UNLESS C(DVSIGN)=
002014: 00,2632           00002                           TC       Q                                     #  -0.
002015: 00,2633           00002                           TC       Q
002016: 00,2634           00002                           TC       Q
002017:
002018: 00,2635           00006                           EXTEND
002019: 00,2636           40155                           DCS      MPAC
002020: 00,2637           52155                           DXCH     MPAC
002021: 00,2640           34755                           CAF      ZERO                                  #  SO WE ALWAYS RETURN WITH C(A) = 0.
002022: 00,2641           00002                           TC       Q
002023:


002025:                                                                                                  #  IF THE MAJOR PARTS OF THE DIVISOR AND DIVIDEND ARE EQUAL, BUT THE MINOR PARTS ARE SUCH THAT THE
002026:                                                                                                  #  DIVIDEND IS STRICTLY LESS THAN THE DIVISOR IN MAGNITUDE, THE FOLLOWING APPROXIMATION IS USED.  THE ASSUMPTIONS
002027:                                                                                                  #  ARE THE SAME AS THE GENERAL ROUTINE WITH THE ADDITION THAT SIGN AGREEMENT IS NECESSARY (B, C, & D POSITIVE).
002028:
002029:                                                                                                  #        C + SB .          (C + B - D)
002030:                                                                                                  #        ------ = 37777 + S(---------)
002031:                                                                                                  #        C + SD            (    C    )
002032:
002033:                                                                                                  #  THE DIVISION MAY BE PERFORMED IMMEDIATELY SINCE B IS STRICTLY LESS THAN D AND C IS NOT LESS THAN .5.
002034:
002035: 00,2642           40154        MAXDV              CS       MPAC                                  #  SEE IF MAXDV CASE STILL HOLDS AFTER
002036: 00,2643           60130                           AD       BUF                                   #  NORMALIZATION.
002037: 00,2644           00006                           EXTEND
002038: 00,2645           12647                           BZF      +2
002039: 00,2646           12570                           TCF      GENDDV                                #  MPAC NOW LESS THAN BUF - DIVIDE AS USUAL
002040:
002041: 00,2647           34733                 +2        CAF      POSMAX                                #  SET MAJOR PART OF RESULT.
002042: 00,2650           54154                           TS       MPAC
002043:
002044: 00,2651           40131                           CS       BUF        +1                         #  FORM DIVIDEND OF MINOR PART OF RESULT.
002045: 00,2652           60155                           AD       MPAC       +1
002046: 00,2653           12624                           TCF      ENDMAXDV                              #  GO ADD C AND DO DIVIDE, ATTACHING SIGN
002047:                                                                                                  #  BEFORE EXITING.
002048:


002050:                                                                                                  #  VECTOR DIVIDED BY SCALAR, V/SC, IS EXECUTED HERE.  THE VECTOR IS NOW IN MPAC WITH SCALAR IN BUF.
002051:
002052: 00,2654           44753        V/SC2              CS       ONE                                   #  INITIALIZE DIVIDEND NORMALIZATION COUNT
002053: 00,2655           54137                           TS       DVNORMCT                              #  AND DIVISION SIGN REGISTER.
002054: 00,2656           54127                           TS       VBUF       +5
002055:
002056: 00,2657           03010                           TC       VECAGREE                              #  FORCE SIGN AGREEMENT IN VECTOR
002057:
002058: 00,2660           52131                           DXCH     BUF
002059: 00,2661           07544                           TC       ALSIGNAG                              #  SIGN AGREE BUF
002060: 00,2662           52131                           DXCH     BUF
002061: 00,2663           10130                           CCS      BUF                                   #  FORCE DIVISOR POSITIVE WITH MAJOR PART
002062: 00,2664           12721                           TCF      /BUF+                                 #  NON-ZERO (IF POSSIBLE).
002063: 00,2665           12667                           TCF      +2
002064: 00,2666           12715                           TCF      /BUF-
002065:
002066: 00,2667           56131                           XCH      BUF        +1                         #  SHIFT VECTOR AND SCALAR LEFT 14.
002067: 00,2670           56130                           XCH      BUF
002068: 00,2671           56155                           XCH      MPAC       +1
002069: 00,2672           56154                           XCH      MPAC
002070: 00,2673           00006                           EXTEND                                         #  CHECK FOR OVERFLOW IN EACH CASE.
002071: 00,2674           12676                           BZF      +2
002072: 00,2675           12405                           TCF      DVOVF
002073:
002074: 00,2676           56160                           XCH      MPAC       +4
002075: 00,2677           56157                           XCH      MPAC       +3
002076: 00,2700           00006                           EXTEND
002077: 00,2701           12703                           BZF      +2
002078: 00,2702           12405                           TCF      DVOVF
002079:
002080: 00,2703           56162                           XCH      MPAC       +6
002081: 00,2704           56161                           XCH      MPAC       +5
002082: 00,2705           00006                           EXTEND
002083: 00,2706           12710                           BZF      +2
002084: 00,2707           12405                           TCF      DVOVF
002085:
002086: 00,2710           10130                           CCS      BUF
002087: 00,2711           12721                           TCF      /BUF+
002088: 00,2712           12405                           TCF      DVOVF                                 #  ZERO DIVISOR - OVERFLOW.
002089: 00,2713           12715                           TCF      /BUF-
002090: 00,2714           12405                           TCF      DVOVF
002091:
002092: 00,2715           00006        /BUF-              EXTEND                                         #  ON NEGATIVE, COMPLEMENT BUF AND MAINTAIN
002093: 00,2716           40131                           DCS      BUF                                   #  DVSIGN IN VBUF +5.
002094: 00,2717           52131                           DXCH     BUF
002095: 00,2720           24127                           INCR     VBUF       +5
002096:


002098: 00,2721           00006        /BUF+              EXTEND
002099: 00,2722           30131                           DCA      BUF                                   #  LEAVE ABS(ORIG DIVISOR) IN BUF2
002100: 00,2723           52134                           DXCH     BUF2                                  #  FOR OVERFLOW TESTING
002101: 00,2724           12732                           TCF      /NORM                                 #  NORMALIZE DIVISOR IN BUF.
002102:
002103: 00,2725           00006        /NORM2             EXTEND                                         #  IF LESS THAN .5, AUGMENT DVNORMCT AND
002104: 00,2726           24137                           AUG      DVNORMCT                              #  DOUBLE DIVISOR.
002105: 00,2727           00006                           EXTEND
002106: 00,2730           30131                           DCA      BUF
002107: 00,2731           20131                           DAS      BUF
002108:
002109: 00,2732           30130        /NORM              CA       BUF                                   #  SEE IF DIVISOR NORMALIZED.
002110: 00,2733           60000                           DOUBLE
002111: 00,2734           54000                           OVSK
002112: 00,2735           12725                           TCF      /NORM2                                #  DOUBLE AND TRY AGAIN IF NOT.
002113:
002114: 00,2736           02750                           TC       V/SCDV                                #  DO X COMPONENT DIVIDE.
002115: 00,2737           52160                           DXCH     MPAC       +3                         #  SUPPLY ARGUMENTS IN USUAL SEQUENCE.
002116: 00,2740           52155                           DXCH     MPAC
002117: 00,2741           52160                           DXCH     MPAC       +3
002118:
002119: 00,2742           02750                           TC       V/SCDV                                #  Y COMPONENT.
002120: 00,2743           52162                           DXCH     MPAC       +5
002121: 00,2744           52155                           DXCH     MPAC
002122: 00,2745           52162                           DXCH     MPAC       +5
002123:
002124: 00,2746           02750                           TC       V/SCDV                                #  Z COMPONENT.
002125: 00,2747           17420                           TCF      VROTATEX                              #  GO RE-ARRANGE COMPONENTS BEFORE EXIT.
002126:


002128:                                                                                                  #  SUBROUTINE USED BY V/SC TO DIVIDE VECTOR COMPONENT IN MPAC,+1 BY THE SCALAR GIVEN IN BUF.
002129:
002130: 00,2750           30127        V/SCDV             CA       VBUF       +5                         #  REFLECTS SIGN OF SCALAR.
002131: 00,2751           54136                           TS       DVSIGN
002132:
002133: 00,2752           10154                           CCS      MPAC                                  #  FORCE MPAC POSITIVE, EXITING ON ZERO.
002134: 00,2753           12767                           TCF      /MPAC+
002135: 00,2754           12756                           TCF      +2
002136: 00,2755           12763                           TCF      /MPAC-
002137:
002138: 00,2756           10155                           CCS      MPAC       +1
002139: 00,2757           12767                           TCF      /MPAC+
002140: 00,2760           00002                           TC       Q
002141: 00,2761           12763                           TCF      /MPAC-
002142: 00,2762           00002                           TC       Q
002143:
002144: 00,2763           00006        /MPAC-             EXTEND                                         #  USUAL COMPLEMENTING AND SETTING OF SIGN.
002145: 00,2764           40155                           DCS      MPAC
002146: 00,2765           52155                           DXCH     MPAC
002147: 00,2766           24136                           INCR     DVSIGN
002148:
002149: 00,2767           44753        /MPAC+             CS       ONE                                   #  INITIALIZE NEAR-ONE SWITCH.
002150: 00,2770           54140                           TS       MAXDVSW
002151:
002152: 00,2771           40154                           CS       MPAC                                  #  CHECK POSSIBLE OVERFLOW.
002153: 00,2772           60133                           AD       BUF2                                  #  UNNORMALIZED INPUT DIVISOR.
002154: 00,2773           10000                           CCS      A
002155: 00,2774           13004                           TCF      DDVCALL                               #  NOT NEAR-ONE
002156: 00,2775           12777                           TCF      +2                                    #  +0 IS JUST POSSIBLE
002157: 00,2776           12405                           TCF      DVOVF                                 #  NO HOPE
002158: 00,2777           54140                           TS       MAXDVSW                               #  SIGNAL POSSIBLE NEAR-ONE CASE
002159: 00,3000           40155                           CS       MPAC       +1                         #  SEE IF DIVISION CAN BE DONE
002160: 00,3001           60134                           AD       BUF2       +1
002161: 00,3002           00006                           EXTEND
002162: 00,3003           62405                           BZMF     DVOVF
002163:
002164: 00,3004           52155        DDVCALL            DXCH     MPAC                                  #  CALL PRE-DIVIDE NORMALIZATION.
002165: 00,3005           50137                           INDEX    DVNORMCT
002166: 00,3006           12565                           TCF      MAXTEST
002167:


002169: 00,3007           32506        SLOPELO            DEC      .8324
002170:
002171: 00,3010           56002        VECAGREE           XCH      Q                                     #  SAVE Q IN A
002172: 00,3011           52155                           DXCH     MPAC
002173: 00,3012           07544                           TC       ALSIGNAG                              #  SIGNAGREE MPAC
002174: 00,3013           52155                           DXCH     MPAC
002175: 00,3014           52160                           DXCH     MPAC       +3
002176: 00,3015           07544                           TC       ALSIGNAG                              #  SIGN AGREE MPAC +3
002177: 00,3016           52160                           DXCH     MPAC       +3
002178: 00,3017           52162                           DXCH     MPAC       +5
002179: 00,3020           07544                           TC       ALSIGNAG                              #  SIGNAGREE MPAC +5
002180: 00,3021           52162                           DXCH     MPAC       +5
002181: 00,3022           00000                           TC       A
002182:


002184:                                                                                                  #  THE FOLLOWING ROUTINE EXECUTES THE UNIT INSTRUCTION, WHICH TAKES THE UNIT OF THE VECTOR IN MPAC.
002185:
002186: 00,3023           03010        UNIT               TC       VECAGREE                              #  FORCE SIGN AGREEMENT IN VECTOR
002187: 00,3024           07532                           TC       MPACVBUF                              #  SAVE ARGUMENT IN VBUF
002188: 00,3025           34755                           CAF      ZERO                                  #  MUST SENSE OVERFLOW IN FOLLOWING DOT.
002189: 00,3026           56121                           XCH      OVFIND
002190: 00,3027           54141                           TS       TEM1
002191: 00,3030           03317                           TC       VSQSUB                                #  DOT MPAC WITH ITSELF.
002192: 00,3031           30141                           CA       TEM1
002193: 00,3032           56121                           XCH      OVFIND
002194: 00,3033           00006                           EXTEND
002195: 00,3034           13036                           BZF      +2
002196: 00,3035           12405                           TCF      DVOVF
002197: 00,3036           00006                           EXTEND
002198: 00,3037           30155                           DCA      MPAC                                  #  LEAVE THE SQUARE OF THE LENGTH OF THE
002199: 00,3040           50120                           INDEX    FIXLOC                                #  ARGUMENT IN LVSQUARE.
002200: 00,3041           52043                           DXCH     LVSQUARE
002201:
002202: 00,3042           03343                           TC       SQRTSUB                               #  GO TAKE THE NORMALIZED SQUARE ROOT.
002203:
002204: 00,3043           10154                           CCS      MPAC                                  #  CHECK FOR UNIT OVERFLOW.
002205: 00,3044           13051                           TCF      +5                                    #  MPAC IS NOT LESS THAN .5 UNLESS
002206: 00,3045           54001                           TS       L
002207: 00,3046           50120                           INDEX    FIXLOC
002208: 00,3047           52045                           DXCH     LV
002209: 00,3050           12405                           TCF      DVOVF                                 #  INPUT TO SQRTSUB WAS 0.
002210:
002211: 00,3051           44317                           CS       FOURTEEN                              #  SEE IF THE INPUT WAS SO SMALL THE THE
002212: 00,3052           60135                           AD       MPTEMP                                #  FIRST TWO REGISTERS OF THE SQUARE WERE 0
002213: 00,3053           10000                           CCS      A
002214: 00,3054           40000                           COM                                            #  IF SO, SAVE THE NEGATIVE OF THE SHIFT
002215: 00,3055           13133                           TCF      SMALL                                 #  COUNT -15D.
002216:
002217: 00,3056           13065                           TCF      LARGE                                 #  (THIS IS USUALLY THE CASE.)
002218:
002219: 00,3057           44761                           CS       THIRTEEN                              #  IF THE SHIFT COUNT WAS EXACTLY 14, SET
002220: 00,3060           54135                           TS       MPTEMP                                #  THE PRE-DIVIDE NORM COUNT TO -13D.
002221:
002222: 00,3061           30154                           CA       MPAC                                  #  SHIFT THE LENGTH RIGHT 14 BEFORE STORING
002223: 00,3062           54001        SMALL2             TS       L                                     #  (SMALL EXITS TO THIS POINT).
002224: 00,3063           34755                           CAF      ZERO
002225: 00,3064           13112                           TCF      LARGE2                                #  GO TO STORE LENGTH AND PROCEED.
002226:
002227: 00,3065           10135        LARGE              CCS      MPTEMP                                #  MOST ALL CASES COME HERE.
002228: 00,3066           13074                           TCF      LARGE3                                #  SEE IF NO NORMALIZATION WAS REQUIRED BY
002229:
002230: 00,3067           42024                           CS       SRDDV                                 #  SQRT, AND IF SO, SET UP FOR A SHIFT
002231: 00,3070           54135                           TS       MPTEMP                                #  RIGHT 1 BEFORE DIVIDING TO PRODUCE
002232: 00,3071           00006                           EXTEND                                         #  THE DESIRED HALF UNIT VECTOR.
002233: 00,3072           30155                           DCA      MPAC


002235: 00,3073           13112                           TCF      LARGE2
002236:


002238: 00,3074           40000        LARGE3             COM                                            #  LEAVE NEGATIVE OF SHIFT COUNT-1 FOR
002239: 00,3075           54135                           TS       MPTEMP                                #  PREDIVIDE LEFT SHIFT.
002240:
002241: 00,3076           40000                           COM                                            #  PICK UP REQUIRED SHIFTING BIT TO UNNORM-
002242: 00,3077           50000                           INDEX    A                                     #  ALIZE THE SQRT RESULT.
002243: 00,3100           34736                           CAF      BIT14
002244: 00,3101           54130                           TS       BUF
002245: 00,3102           00006                           EXTEND
002246: 00,3103           70155                           MP       MPAC       +1
002247: 00,3104           56130                           XCH      BUF
002248: 00,3105           00006                           EXTEND                                         #  (UNNORMALIZE THE SQRT FOR LV).
002249: 00,3106           70154                           MP       MPAC
002250: 00,3107           56001                           XCH      L
002251: 00,3110           60130                           AD       BUF
002252: 00,3111           56001                           XCH      L
002253:
002254: 00,3112           50120        LARGE2             INDEX    FIXLOC
002255: 00,3113           52045                           DXCH     LV                                    #  LENGTH NOW STORED IN WORK AREA.
002256:
002257: 00,3114           44753                           CS       ONE
002258: 00,3115           54140                           TS       MAXDVSW                               #  NO MAXDV CASES IN UNIT.
002259:
002260: 00,3116           52123                           DXCH     VBUF                                  #  PREPARE X COMPONENT FOR DIVIDE, SETTING
002261: 00,3117           52155                           DXCH     MPAC                                  #  LENGTH OF VECTOR AS DIVISOR IN BUF.
002262: 00,3120           52131                           DXCH     BUF
002263: 00,3121           03151                           TC       UNITDV
002264:
002265: 00,3122           52125                           DXCH     VBUF       +2                         #  DO Y AND Z IN USUAL FASHION SO WE CAN
002266: 00,3123           52155                           DXCH     MPAC                                  #  EXIT THROUGH VROTATEX.
002267: 00,3124           52160                           DXCH     MPAC       +3
002268: 00,3125           03151                           TC       UNITDV
002269:
002270: 00,3126           52127                           DXCH     VBUF       +4
002271: 00,3127           52155                           DXCH     MPAC
002272: 00,3130           52162                           DXCH     MPAC       +5
002273: 00,3131           03151                           TC       UNITDV
002274: 00,3132           17420                           TCF      VROTATEX                              #  AND EXIT.
002275:


002277:                                                                                                  #  IF THE LENGTH OF THE ARGUMENT VECTOR WAS LESS THAN 2(-28), EACH COMPONENT MUST BE SHIFTED LEFT AT LEAST
002278:                                                                                                  #  14 PLACES BEFORE THE DIVIDE. NOTE THAT IN THIS CASE, THE MAJOR PART OF EACH COMPONENT IS ZERO.
002279:
002280: 00,3133           54135        SMALL              TS       MPTEMP                                #  NEGATIVE OF PRE-DIVIDE SHIFT COUNT.
002281:
002282: 00,3134           34755                           CAF      ZERO                                  #  SHIFT EACH COMPONENT LEFT 14.
002283: 00,3135           56123                           XCH      VBUF       +1
002284: 00,3136           56122                           XCH      VBUF
002285: 00,3137           56125                           XCH      VBUF       +3
002286: 00,3140           56124                           XCH      VBUF       +2
002287: 00,3141           56127                           XCH      VBUF       +5
002288: 00,3142           56126                           XCH      VBUF       +4
002289:
002290: 00,3143           40135                           CS       MPTEMP
002291: 00,3144           50000                           INDEX    A
002292: 00,3145           34736                           CAF      BIT14
002293: 00,3146           00006                           EXTEND
002294: 00,3147           70154                           MP       MPAC
002295: 00,3150           13062                           TCF      SMALL2
002296:
002297: 00,3151     4761               THIRTEEN           =        OCT15
002298: 00,3151     4317               FOURTEEN           =        OCT16
002299: 00,3151     4317               OCT16              =        R1D1
002300:


002302:                                                                                                  #  THE FOLLOWING ROUTINE SETS UP THE CALL TO THE DIVIDE ROUTINES.
002303:
002304: 00,3151           10154        UNITDV             CCS      MPAC                                  #  FORCE MPAC POSITIVE IF POSSIBLE, SETTING
002305: 00,3152           13170                           TCF      UMPAC+                                #  DVSIGN ACCORDING TO THE SIGN OF MPAC
002306: 00,3153           13155                           TCF      +2                                    #  SINCE THE DIVISOR IS ALWAYS POSITIVE
002307: 00,3154           13162                           TCF      UMPAC-                                #  HERE.
002308:
002309: 00,3155           10155                           CCS      MPAC       +1
002310: 00,3156           13170                           TCF      UMPAC+
002311: 00,3157           00002                           TC       Q                                     #  EXIT IMMEDIATELY ON ZERO.
002312: 00,3160           13162                           TCF      UMPAC-
002313: 00,3161           00002                           TC       Q
002314:
002315: 00,3162           44755        UMPAC-             CS       ZERO                                  #  IF NEGATIVE, SET -0 IN DVSIGN FOR FINAL
002316: 00,3163           54136                           TS       DVSIGN                                #  COMPLEMENT.
002317: 00,3164           00006                           EXTEND
002318: 00,3165           40155                           DCS      MPAC                                  #  PICK UP ABSOLUTE VALUE OF ARG AND JUMP.
002319: 00,3166           50135                           INDEX    MPTEMP
002320: 00,3167           12564                           TCF      MAXTEST    -1
002321:
002322: 00,3170           54136        UMPAC+             TS       DVSIGN                                #  SET DVSIGN FOR POSITIVE QUOTIENT.
002323: 00,3171           52155                           DXCH     MPAC
002324: 00,3172           50135                           INDEX    MPTEMP
002325: 00,3173           12564                           TCF      MAXTEST    -1
002326:


002328:                                                                                                  #  MISCELLANEOUS UNARY OPERATIONS.
002329:
002330: 00,3174           03300        DSQ                TC       DSQSUB                                #  SQUARE THE DP CONTENTS OF MPAC.
002331: 00,3175           16061                           TCF      DANZIG
002332:
002333: 00,3176           10163        ABVALABS           CCS      MODE                                  #  ABVAL OR ABS INSTRUCTION.
002334: 00,3177           13226                           TCF      ABS                                   #  DO ABS ON SCALAR.
002335: 00,3200           13226                           TCF      ABS
002336:
002337: 00,3201           03317        ABVAL              TC       VSQSUB                                #  DOT MPAC WITH ITSELF.
002338: 00,3202           22163                           LXCH     MODE                                  #  MODE IS NOW DP (L ZERO AFTER DAS).
002339:
002340: 00,3203           00006                           EXTEND                                         #  STORE SQUARE OF LENGTH IN WORK AREA.
002341: 00,3204           30155                           DCA      MPAC
002342: 00,3205           50120                           INDEX    FIXLOC
002343: 00,3206           52043                           DXCH     LVSQUARE
002344:


002346:                                                                                                  #  PROGRAM DESCRIPTION - SUBROUTINE SQRT
002347:
002348:                                                                                                  #  FUNCTIONAL DESCRIPTION - DOUBLE PRECISION SQUARE ROOT ROUTINE
002349:                                                                                                  #        THIS PROGRAM TAKES THE SQUARE ROOT OF THE 27 OR 28 MOST SIGNIFICANT BITS IN THE TRIPLE PRECISION SET OF
002350:                                                                                                  #        NUMBERS - MPAC, MPAC+1, AND MPAC+2.  THE ROOT IS RETURNED DOUBLE PRECISION IN MPAC AND MPAC+1.
002351:
002352:                                                                                                  #  WARNING - THIS SUBROUTINE USES A TRIPLE PRECISION INPUT.  THE PROGRAMMER MUST ASSURE THE CONTENTS OF MPAC+2
002353:                                                                                                  #        ESPECIALLY IF THE CONTENTS OF MPAC IS SMALL OR ZERO.  FOR DETAILS SEE STG MEMO NO.949.
002354:
002355:                                                                                                  #  CALLING SEQUENCE - IN INTERPRETIVE MODE I.E., FOLLOWING TC  INTPRET,SQRT   NO ADDRESS IS ALLOWED
002356:                                                                                                  #        INPUT SCALING  THE BINARY POINT IS ASSUMED TO THE RIGHT OF BIT 15.  THE ANSWER IS RETURNED WITH THE SAME SCALING
002357:
002358:                                                                                                  #  SUBROUTINES - GENSCR, MPACSHR, SQRTSUB, ABORT
002359:
002360:                                                                                                  #  ABORT EXIT MODE - ABORTS ON NEGATIVE INPUT -1.2X10E-4 (77775 OCTAL) OR LESS.
002361:                                                                                                  #        DISPLAYS ERROR CODE 1302
002362:                                                                                                  #                TC      ABORT
002363:                                                                                                  #                OCT     1302
002364:
002365:                                                                                                  #  DEBRIS - LOCATIONS BUF, MPTEMP, ADDRWD ARE USED
002366:
002367: 00,3207           03343        SQRT               TC       SQRTSUB                               #  TAKE THE SQUARE ROOT OF MPAC.
002368: 00,3210           10135                           CCS      MPTEMP                                #  RETURNED NORMALIZED SQUARE ROOT.  SEE IF
002369: 00,3211           13213                           TCF      +2                                    #  ANY UN-NORMALIZATION REQUIRED AND EXIT
002370: 00,3212           16061                           TCF      DANZIG                                #  IF NOT.
002371:
002372: 00,3213           63733                           AD       NEG12                                 #  A RIGHT SHIFT OF MORE THAN 13 COULD BE
002373: 00,3214           00006                           EXTEND                                         #  REQUIRED IF INPUT WAS ZERO IN MPAC,+1.
002374: 00,3215           63221                           BZMF     SQRTSHFT                              #  GOES HERE IN MOST CASES.
002375: 00,3216           22007                           ZL                                             #  IF A LONG SHIFT IS REQUIRED, GO TO
002376: 00,3217           22116                           LXCH     ADDRWD                                #  GENERAL RIGHT SHIFT ROUTINES.
002377: 00,3220           12303                           TCF      GENSCR     +4                         #  ADDRWD WAS ZERO TO PREVENT ROUND.
002378:
002379: 00,3221           50135        SQRTSHFT           INDEX    MPTEMP                                #  SELECT SHIFTING BIT AND EXIT THROUGH
002380: 00,3222           34735                           CAF      BIT15                                 #  SHIFT ROUTINES.
002381: 00,3223           54135                           TS       MPTEMP
002382: 00,3224           34755                           CAF      ZERO                                  #  TO ZERO MPAC +2 IN THE PROCESS.
002383: 00,3225           12036                           TCF      MPACSHR    +3
002384:
002385: 00,3226           06723        ABS                TC       BRANCH                                #  TEST SIGN OF MPAC AND COMPLEMENT IF
002386: 00,3227           16061                           TCF      DANZIG
002387: 00,3230           16061                           TCF      DANZIG
002388: 00,3231           17670                           TCF      COMP
002389:


002391: 00,3232           44751        VDEF               CS       FOUR                                  #  VECTOR DEFINE - ESSENTIALLY TREATS
002392: 00,3233           26166                           ADS      PUSHLOC                               #  SCALAR IN MPAC AS X COMPONENT, PUSHES UP
002393: 00,3234           00006                           EXTEND                                         #  FOR Y AND THEN AGAIN FOR Z.
002394: 00,3235           50000                           INDEX    A
002395: 00,3236           30003                           DCA      2
002396: 00,3237           52160                           DXCH     MPAC       +3
002397: 00,3240           00006                           EXTEND
002398: 00,3241           50166                           INDEX    PUSHLOC
002399: 00,3242           30001                           DCA      0
002400: 00,3243           52162                           DXCH     MPAC       +5
002401: 00,3244           16521                           TCF      VMODE                                 #  MODE IS NON VECTOR.
002402:
002403: 00,3245           03317        VSQ                TC       VSQSUB                                #  DOT MPAC WITH ITSELF.
002404: 00,3246           17332                           TCF      DMODE                                 #  MODE IS NOW DP.
002405:
002406: 00,3247           00006        PUSH               EXTEND                                         #  PUSH DOWN MPAC LEAVING IT LOADED.
002407: 00,3250           30155                           DCA      MPAC
002408: 00,3251           50166                           INDEX    PUSHLOC                               #  PUSH DOWN FIRST TWO REGISTERS IN EACH
002409: 00,3252           52001                           DXCH     0
002410:
002411: 00,3253           50163                           INDEX    MODE                                  #  INCREMENT PUSHDOWN POINTER.
002412: 00,3254           36244                           CAF      NO.WDS
002413: 00,3255           26166                           ADS      PUSHLOC
002414:
002415: 00,3256           10163                           CCS      MODE
002416: 00,3257           13272                           TCF      TPUSH                                 #  PUSH DOWN MPAC +2.
002417: 00,3260           16061                           TCF      DANZIG                                #  DONE FOR DP.
002418:
002419: 00,3261           00006                           EXTEND                                         #  ON VECTOR, PUSH DOWN Y AND Z COMPONENTS.
002420: 00,3262           30160                           DCA      MPAC       +3
002421: 00,3263           50166                           INDEX    PUSHLOC
002422: 00,3264           51775                           DXCH     0          -4
002423: 00,3265           00006                           EXTEND
002424: 00,3266           30162                           DCA      MPAC       +5
002425: 00,3267           50166                           INDEX    PUSHLOC
002426: 00,3270           51777                           DXCH     0          -2
002427: 00,3271           16061                           TCF      DANZIG
002428:
002429: 00,3272           30156        TPUSH              CA       MPAC       +2
002430: 00,3273           16554                           TCF      ENDTPUSH   +2
002431:
002432: 00,3274           50120        RVQ                INDEX    FIXLOC                                #  RVQ - RETURN IVA QPRET.
002433: 00,3275           30052                           CA       QPRET
002434: 00,3276           54117                           TS       POLISH
002435: 00,3277           16652                           TCF      GOTO       +4                         #  (ASSUME QPRET POINTS TO FIXED ONLY.)
002436:


002438:                                                                                                  #  THE FOLLOWING SUBROUTINES ARE USED IN SQUARING MPAC, IN BOTH THE SCALAR AND VECTOR SENSE.  THEY ARE
002439:                                                                                                  #  SPECIAL CASES OF DMPSUB AND DOTSUB, PUT IN TO SAVE SOME TIME.
002440:
002441: 00,3300           30155        DSQSUB             CA       MPAC       +1                         #  SQUARES THE SCALAR CONTENTS OF MPAC.
002442: 00,3301           00006                           EXTEND
002443: 00,3302           70000                           SQUARE
002444: 00,3303           54156                           TS       MPAC       +2
002445: 00,3304           34755                           CAF      ZERO                                  #  FORM 2(CROSS TERM).
002446: 00,3305           56155                           XCH      MPAC       +1
002447: 00,3306           00006                           EXTEND
002448: 00,3307           70154                           MP       MPAC
002449: 00,3310           20001                           DDOUBL                                         #  AND MAYBE OVERFLOW.
002450: 00,3311           20156                           DAS      MPAC       +1                         #  AND SET A TO NET OVERFLOW.
002451: 00,3312           56154                           XCH      MPAC
002452: 00,3313           00006                           EXTEND
002453: 00,3314           70000                           SQUARE
002454: 00,3315           20155                           DAS      MPAC
002455: 00,3316           00002                           TC       Q
002456:
002457: 00,3317           00006        VSQSUB             EXTEND                                         #  DOTS THE VECTOR IN MPAC WITH ITSELF.
002458: 00,3320           22137                           QXCH     DOTRET
002459: 00,3321           03300                           TC       DSQSUB                                #  SQUARE THE X COMPONENT.
002460: 00,3322           52160                           DXCH     MPAC       +3
002461: 00,3323           52155                           DXCH     MPAC
002462: 00,3324           52131                           DXCH     BUF                                   #  SO WE CAN END IN DOTSUB.
002463: 00,3325           30156                           CA       MPAC       +2
002464: 00,3326           54132                           TS       BUF        +2
002465:
002466: 00,3327           03300                           TC       DSQSUB                                #  SQUARE Y COMPONENT.
002467: 00,3330           52156                           DXCH     MPAC       +1
002468: 00,3331           20132                           DAS      BUF        +1
002469: 00,3332           60154                           AD       MPAC
002470: 00,3333           60130                           AD       BUF
002471: 00,3334           54130                           TS       BUF
002472: 00,3335           13337                           TCF      +2
002473: 00,3336           54121                           TS       OVFIND                                #  IF OVERFLOW.
002474:
002475: 00,3337           52162                           DXCH     MPAC       +5
002476: 00,3340           52155                           DXCH     MPAC
002477: 00,3341           03300                           TC       DSQSUB                                #  SQUARE Z COMPONENT.
002478: 00,3342           17205                           TCF      ENDDOT                                #  END AS IN DOTSUB.
002479:


002481:                                                                                                  #  DOUBLE PRECISION SQUARE ROOT ROUTINE.  TAKE THE SQUARE ROOT OF THE TRIPLE PRECISION (MPAC +2 USED ONLY
002482:                                                                                                  #  IN NORMALIZATION) CONTENTS OF MPAC AND LEAVE THE NORMALIZED RESULT IN MPAC (C(MPAC) GREATER THAN OR EQUAL TO
002483:                                                                                                  #  .5).  THE RIGHT SHIFT COUNT (TO UNNORMALIZE) IS LEFT IN MPTEMP.
002484:
002485: 00,3343           34755        SQRTSUB            CAF      ZERO                                  #  START BY ZEROING RIGHT SHIFT COUNT.
002486: 00,3344           54135                           TS       MPTEMP
002487:
002488: 00,3345           10154                           CCS      MPAC                                  #  CHECK FOR POSITIVE ARGUMENT, SHIFTING
002489: 00,3346           13405                           TCF      SMPAC+                                #  FIRST SIGNIFICANT MPAC REGISTER INTO
002490: 00,3347           13351                           TCF      +2                                    #  MPAC ITSELF.
002491: 00,3350           13373                           TCF      SQRTNEG                               #  SEE IF MAG OF ARGUMENT LESS THAN 10(-4).
002492:
002493: 00,3351           56156                           XCH      MPAC       +2                         #  MPAC IS ZERO - SHIFT LEFT 14.
002494: 00,3352           56155                           XCH      MPAC       +1
002495: 00,3353           54154                           TS       MPAC
002496: 00,3354           34757                           CAF      SEVEN                                 #  AUGMENT RIGHT SHIFT COUNTER.
002497: 00,3355           54135                           TS       MPTEMP
002498:
002499: 00,3356           10154                           CCS      MPAC                                  #  SEE IF MPAC NOW PNZ.
002500: 00,3357           13405                           TCF      SMPAC+
002501: 00,3360           13362                           TCF      +2
002502: 00,3361           13376                           TCF      ZEROANS                               #  NEGATIVE BUT LESS THAN 10(-4) IN MAG.
002503:
002504: 00,3362           56155                           XCH      MPAC       +1                         #  ZERO - SHIFT LEFT 14 AGAIN.
002505: 00,3363           54154                           TS       MPAC
002506: 00,3364           34757                           CAF      SEVEN                                 #  AUGMENT RIGHT SHIFT COUNTER.
002507: 00,3365           26135                           ADS      MPTEMP
002508:
002509: 00,3366           10154                           CCS      MPAC
002510: 00,3367           13405                           TCF      SMPAC+
002511: 00,3370           00002                           TC       Q                                     #  SQRT(0) = 0.
002512: 00,3371           13376                           TCF      ZEROANS
002513: 00,3372           13453                           TCF      FIXROOT                               #  DO NOT LEAVE SQRTSUB WITH -0 IN MPAC.
002514:
002515: 00,3373           10000        SQRTNEG            CCS      A                                     #  ARGUMENT IS NEGATIVE, BUT SEE IF SIGN-
002516: 00,3374           13402                           TCF      SQRTABRT                              #  CORRECTED ARGUMENT IS LESS THAN 10(-4)
002517:
002518: 00,3375           10155                           CCS      MPAC       +1                         #  IN MAGNITUDE.  IF SO, CALL ANSWER ZERO.
002519: 00,3376           34755        ZEROANS            CAF      ZERO                                  #  FORCE ANSWER TO ZERO HERE.
002520: 00,3377           13453                           TCF      FIXROOT
002521: 00,3400           13402                           TCF      SQRTABRT
002522: 00,3401           13453                           TCF      FIXROOT
002523:
002524: 00,3402           52165        SQRTABRT           DXCH     LOC
002525: 00,3403           05726                           TC       POODOO1
002526: 00,3404           01302                           OCT      1302
002527:


002529: 00,3405           62444        SMPAC+             AD       -1/2+2                                #  SEE IF ARGUMENT GREATER THAN OR EQUAL TO
002530: 00,3406           00006                           EXTEND                                         #  .5.
002531: 00,3407           63456                           BZMF     SRTEST                                #  IF SO, SEE IF LESS THAN .25.
002532:
002533: 00,3410           52155                           DXCH     MPAC                                  #  WE WILL TAKE THE SQUARE ROOT OF MPAC/2.
002534: 00,3411           22021                           LXCH     SR                                    #  SHIFT RIGHT 1 AND GO TO THE SQRT ROUTINE
002535: 00,3412           00006                           EXTEND
002536: 00,3413           74736                           MP       HALF
002537: 00,3414           52155                           DXCH     MPAC
002538: 00,3415           56021                           XCH      SR
002539: 00,3416           26155                           ADS      MPAC       +1                         #  GUARANTEED NO OVERFLOW.
002540:
002541: 00,3417           32314        ARGHI              CAF      SLOPEHI                               #  ARGUMENT BETWEEN .25 AND .5. GET A
002542: 00,3420           00006                           EXTEND                                         #  LINEAR APPROXIMATION FOR THIS RANGE.
002543: 00,3421           70154                           MP       MPAC
002544: 00,3422           62566                           AD       BIASHI                                #  X0/2 = (MPAC/2)(SLOPEHI) + BIASHI/2.
002545:
002546: 00,3423           54130                 +4        TS       BUF                                   #  X0/2 (ARGLO ENTERS HERE).
002547: 00,3424           30154                           CA       MPAC                                  #  SINGLE-PRECISION THROUGHOUT.
002548: 00,3425           22007                           ZL
002549: 00,3426           00006                           EXTEND
002550: 00,3427           10130                           DV       BUF                                   #  (MPAC/2)/(X0/2)
002551: 00,3430           00006                           EXTEND
002552: 00,3431           74736                           MP       HALF
002553: 00,3432           26130                           ADS      BUF                                   #  X1 = X0/2 + .5(MPAC/2)/(X0/2).
002554:
002555: 00,3433           00006                           EXTEND
002556: 00,3434           74736                           MP       HALF                                  #  FORM UP X1/2.
002557: 00,3435           52155                           DXCH     MPAC                                  #  SAVE AND BRING OUT ARGUMENT.
002558: 00,3436           00006                           EXTEND                                         #  TAKE DP QUOTIENT WITH X1.
002559: 00,3437           10130                           DV       BUF
002560: 00,3440           54131                           TS       BUF        +1                         #  SAVE MAJOR PART OF QUOTIENT.
002561: 00,3441           34755                           CAF      ZERO                                  #  FORM MINOR PART OF QUOTIENT USING
002562: 00,3442           56001                           XCH      L                                     #  (REMAINDER,0).
002563: 00,3443           00006                           EXTEND
002564: 00,3444           10130                           DV       BUF
002565: 00,3445           54001                           TS       L                                     #  IN PREPARATION FOR DAS.
002566: 00,3446           30131                           CA       BUF        +1
002567: 00,3447           20155                           DAS      MPAC                                  #  X2 = X1/2 + (MPAC/2)X1
002568:
002569: 00,3450           00006                           EXTEND                                         #  OVERFLOWS IF ARG. NEAR POSMAX.
002570: 00,3451           13455                           BZF      TCQBNK00
002571: 00,3452           34733                           CAF      POSMAX
002572: 00,3453           54154        FIXROOT            TS       MPAC
002573: 00,3454           54155                           TS       MPAC       +1
002574: 00,3455           00002        TCQBNK00           TC       Q                                     #  RETURN TO CALLER TO UNNORMALIZE, ETC.
002575:


002577: 00,3456           64737        SRTEST             AD       QUARTER                               #  ARGUMENT WAS LESS THAN .5, SEE IF LESS
002578: 00,3457           00006                           EXTEND                                         #  THAN .25.
002579: 00,3460           63502                           BZMF     SQRTNORM                              #  IF SO, BEGIN NORMALIZATION.
002580:
002581: 00,3461           52155                           DXCH     MPAC                                  #  IF BETWEEN .5 AND .25, SHIFT RIGHT 1 AND
002582: 00,3462           22021                           LXCH     SR                                    #  START AT ARGLO.
002583: 00,3463           00006                           EXTEND
002584: 00,3464           74736                           MP       HALF
002585: 00,3465           52155                           DXCH     MPAC
002586: 00,3466           56021                           XCH      SR
002587: 00,3467           26155                           ADS      MPAC       +1                         #  NO OVERFLOW.
002588:
002589: 00,3470           33007        ARGLO              CAF      SLOPELO                               #  (NORMALIZED) ARGUMENT BETWEEN .125 AND
002590: 00,3471           00006                           EXTEND                                         #  .25
002591: 00,3472           70154                           MP       MPAC
002592: 00,3473           62270                           AD       BIASLO
002593: 00,3474           13423                           TCF      ARGHI      +4                         #  BEGIN SQUARE ROOT.
002594:
002595: 00,3475           00006        SQRTNM2            EXTEND                                         #  SHIFT LEFT 2 AND INCREMENT RIGHT SHIFT
002596: 00,3476           30156                           DCA      MPAC       +1                         #  COUNT (FOR TERMINAL UNNORMALIZATION).
002597: 00,3477           20156                           DAS      MPAC       +1
002598: 00,3500           60154                           AD       MPAC
002599: 00,3501           26154                           ADS      MPAC                                  #  (NO OVERFLOW).
002600:
002601: 00,3502           24135        SQRTNORM           INCR     MPTEMP                                #  FIRST TIME THROUGH, JUST SHIFT LEFT 1
002602: 00,3503           00006                           EXTEND                                         #  (PUTS IN EFFECTIVE RIGHT SHIFT SINCE
002603: 00,3504           30156                           DCA      MPAC       +1                         #  WE WANT MPAC/2).
002604: 00,3505           20156                           DAS      MPAC       +1
002605: 00,3506           60154                           AD       MPAC
002606: 00,3507           26154                           ADS      MPAC                                  #  (AGAIN NO OVERFLOW).
002607: 00,3510           60000                           DOUBLE
002608: 00,3511           54022                           TS       CYL
002609:
002610: 00,3512           10022        NORMTEST           CCS      CYL                                   #  SEE IF ARGUMENT NOW NORMALIZED AT
002611: 00,3513           10022                           CCS      CYL                                   #  GREATER THAN .125.
002612: 00,3514           13475                           TCF      SQRTNM2                               #  NO - SHIFT LEFT 2 MORE AND TRY AGAIN.
002613: 00,3515           13417                           TCF      ARGHI                                 #  YES - NOW BETWEEN .5 AND .25.
002614: 00,3516           13470                           TCF      ARGLO                                 #  ARGUMENT NOW BETWEEN .25 AND .125.
002615:


002617:                                                                                                  #  TRIGONOMETRIC FUNCTION PACKAGE.
002618:                                                                                                  #        THE FOLLOWING TRIGONOMETRIC FUNCTIONS ARE AVAILABLE AS INTERPRETIVE OPERATIONS:
002619:                                                                                                  #        1.      SIN             COMPUTES (1/2)SINE(2 PI MPAC).
002620:                                                                                                  #        2.      COS             COMPUTES (1/2)COSINE(2 PI MPAC).
002621:                                                                                                  #        3.      ASIN            COMPUTES (1/2PI)ARCSINE(2 MPAC).
002622:                                                                                                  #        4.      ACOS            COMPUTES (1/2PI)ARCCOSINE(2 MPAC).
002623:
002624:                                                                                                  #  SIN-ASIN AND COS-ACOS ARE MUTUALLY INVERSE, IE SIN(ASIN(X)) = X.
002625:
002626: 00,3517           06723        COSINE             TC       BRANCH                                #  FINDS COSINE USING THE IDENTITY
002627: 00,3520           13523                           TCF      +3                                    #  COS(X) = SIN(PI/2 - ABS(X)).
002628: 00,3521           13526                           TCF      PRESINE
002629: 00,3522           13526                           TCF      PRESINE
002630:
002631: 00,3523           00006                 +3        EXTEND
002632: 00,3524           40155                           DCS      MPAC
002633: 00,3525           52155                           DXCH     MPAC
002634:
002635: 00,3526           34737        PRESINE            CAF      QUARTER                               #  PI/2 SCALED.
002636: 00,3527           26154                           ADS      MPAC
002637:
002638: 00,3530           52155        SINE               DXCH     MPAC                                  #  DOUBLE ARGUMENT.
002639: 00,3531           20001                           DDOUBL
002640: 00,3532           54000                           OVSK                                           #  SEE IF OVERFLOW PRESENT.
002641: 00,3533           13536                           TCF      +3                                    #  IF NOT, ARGUMENT OK AS IS.
002642:
002643: 00,3534           00006                           EXTEND                                         #  IF SO, WE LOST (OR GAINED) PI, SO
002644: 00,3535           40001                           DCOM                                           #  COMPLEMENT MPAC USING THE IDENTITY
002645:                                                                                                  #  SIN(X-(+)PI) = SIN(-X).
002646: 00,3536           52155                 +3        DXCH     MPAC
002647: 00,3537           30154                           CA       MPAC                                  #  SEE IF ARGUMENT GREATER THAN .5 IN
002648: 00,3540           60000                           DOUBLE                                         #  MAGNITUDE.  IF SO, REDUCE IT TO LESS THAN
002649: 00,3541           54001                           TS       L                                     #  .5 (+-PI/2 SCALED) AS FOLLOWS:
002650: 00,3542           13553                           TCF      SN1
002651:
002652: 00,3543           50000                           INDEX    A                                     #  IF POSITIVE, FORM PI - X, IF NEGATIVE
002653: 00,3544           34735                           CAF      NEG1/2     +1                         #  USE -PI -X.
002654: 00,3545           60000                           DOUBLE
002655: 00,3546           00006                           EXTEND
002656: 00,3547           60154                           SU       MPAC                                  #  GUARANTEED NO OVERFLOW.
002657: 00,3550           54154                           TS       MPAC
002658: 00,3551           40155                           CS       MPAC       +1
002659: 00,3552           54155                           TS       MPAC       +1
002660:


002662: 00,3553           00006        SN1                EXTEND                                         #  SET UP TO EVALUATE HASTINGS POLYNOMIAL
002663: 00,3554           30155                           DCA      MPAC
002664: 00,3555           52134                           DXCH     BUF2
002665: 00,3556           03300                           TC       DSQSUB                                #  SQUARE MPAC.
002666:
002667: 00,3557           07222                           TC       POLY                                  #  EVALUATE FOURTH ORDER POLYNOMIAL.
002668: 00,3560           00003                           DEC      3          B-14
002669: 00,3561           14441 37325                     2DEC     +.3926990796
002670:
002671: 00,3563           53250 60764                     2DEC     -.6459637111
002672:
002673: 00,3565           12146 21276                     2DEC     +.318758717
002674:
002675: 00,3567           75466 71471                     2DEC     -.074780249
002676:
002677: 00,3571           00236 32757                     2DEC     +.009694988
002678:
002679: 00,3573           32470                           CAF      LBUF2                                 #  MULTIPLY BY ARGUMENT AND SHIFT LEFT 2.
002680: 00,3574           07106                           TC       DMPSUB     -1
002681:
002682: 00,3575           00006                           EXTEND
002683: 00,3576           30156                           DCA      MPAC       +1
002684: 00,3577           20156                           DAS      MPAC       +1
002685: 00,3600           60154                           AD       MPAC
002686: 00,3601           26154                           ADS      MPAC                                  #  NEITHER SHIFT OVERFLOWS.
002687: 00,3602           00006                           EXTEND
002688: 00,3603           30156                           DCA      MPAC       +1
002689: 00,3604           20156                           DAS      MPAC       +1
002690: 00,3605           60154                           AD       MPAC
002691: 00,3606           26154                           ADS      MPAC
002692: 00,3607           16061                           TCF      DANZIG
002693:


002695:                                                                                                  #  ARCSIN/ARCCOS ROUTINE.
002696:
002697: 00,3610           33631        ARCSIN             CAF      LASINEX                               #  COMPUTE ARCSIN BY USING THE IDENTITY
002698: 00,3611           13613                           TCF      +2                                    #  ARCSIN(X) = PI/2 - ARCCOS(X).
002699:
002700: 00,3612           33713        ARCCOS             CAF      LDANZIG                               #  (EXITS IMMEDIATELY).
002701: 00,3613           54136                           TS       ESCAPE
002702: 00,3614           06723                           TC       BRANCH                                #  TEST SIGN OF INPUT.
002703: 00,3615           13625                           TCF      ACOSST                                #  START IMMEDIATELY IF POSITIVE.
002704: 00,3616           13731                           TCF      ACOSZERO                              #  ARCCOS(0) = PI/2 = .25.
002705: 00,3617           00006                           EXTEND                                         #  IF NEGATIVE, USE THE IDENTITY
002706: 00,3620           40155                           DCS      MPAC                                  #  ARCCOS(X) = PI - ARCCOS(-X), FORCING
002707: 00,3621           52155                           DXCH     MPAC                                  #  ARGUMENT POSITIVE.
002708: 00,3622           33734                           CAF      TCSUBTR                               #  SET EXIT TO DO ABOVE BEFORE
002709: 00,3623           56136                           XCH      ESCAPE                                #  ARCSIN/ARCCOS CONSIDERATIONS.
002710: 00,3624           54137                           TS       ESCAPE2
002711:
002712: 00,3625           44736        ACOSST             CS       HALF                                  #  TEST MAGNITUDE OF INPUT.
002713: 00,3626           60154                           AD       MPAC
002714: 00,3627           10000                           CCS      A
002715: 00,3630           13721                           TCF      ACOSOVF                               #  THIS IS PROBABLY AN OVERFLOW CASE.
002716:
002717: 00,3631           13707        LASINEX            TCF      ASINEX
002718:
002719: 00,3632           13642                           TCF      ACOSST2                               #  NO OVERFLOW - PROCEED.
002720:
002721: 00,3633           10155                           CCS      MPAC       +1                         #  IF MAJOR PART IS .5, CALL ANSWER 0
002722: 00,3634           34755                           CAF      ZERO                                  #  UNLESS MINOR PART NEGATIVE.
002723: 00,3635           13637                           TCF      ACOS=0
002724:
002725: 00,3636           13642                           TCF      ACOSST2
002726:
002727: 00,3637           54155        ACOS=0             TS       MPAC       +1
002728: 00,3640           54154                           TS       MPAC
002729: 00,3641           00136                           TC       ESCAPE
002730:
002731: 00,3642           00006        ACOSST2            EXTEND                                         #  NOW THAT ARGUMENT IS IN PROPER RANGE,
002732: 00,3643           40155                           DCS      MPAC                                  #  BEGIN COMPUTATION.  USE HASTINGS
002733: 00,3644           64736                           AD       HALF                                  #  APPROXIMATION ARCCOS(X) = SQRT(1-X)P(X)
002734: 00,3645           52155                           DXCH     MPAC                                  #  IN A SCALED VERSION WHERE P(X) IS A
002735: 00,3646           52134                           DXCH     BUF2                                  #  SEVENTH ORDER POLYNOMIAL.
002736:
002737: 00,3647           03343                           TC       SQRTSUB                               #  RETURNS WITH NORMALIZED SQUARE ROOT.
002738:
002739: 00,3650           10135                           CCS      MPTEMP                                #  SEE IF UN-NORMALIZATION REQUIRED.
002740: 00,3651           13714                           TCF      ACOSSHR                               #  IF SO.
002741:


002743: 00,3652           52155        ACOS3              DXCH     MPAC                                  #  SET UP FOR POLYNOMIAL EVALUATION.
002744: 00,3653           52134                           DXCH     BUF2
002745: 00,3654           52155                           DXCH     MPAC
002746:
002747: 00,3655           07222                           TC       POLY
002748: 00,3656           00006                           DEC      6          B-14
002749: 00,3657           13240 23630                     2DEC     +.353553385                            #  COEFFICIENTS ARE C 2(+I)/PISQRT(2) WHERE
002750:
002751: 00,3661           74721 47775                     2DEC*    -.0483017006 B+1*                       #  I
002752:
002753: 00,3663           02440 20237                     2DEC*    +.0200273085 B+2*                       #  WHERE C STANDS FOR ORIGINAL COEFFS.
002754:
002755: 00,3665           75067 70742                     2DEC*    -.0112931863 B+3*
002756:
002757: 00,3667           03436 26756                     2DEC*    +.00695311612 B+4*
002758:
002759: 00,3671           74037 57640                     2DEC*    -.00384617957 B+5*
002760:
002761: 00,3673           03046 07143                     2DEC*    +.001501297736 B+6*
002762:
002763: 00,3675           76654 42244                     2DEC*    -.000284160334 B+7*
002764:
002765:
002766: 00,3677           32470                           CAF      LBUF2                                 #  DO FINAL MULTIPLY AND GO TO ANY
002767: 00,3700           07106                           TC       DMPSUB     -1                         #  EPILOGUE SEQUENCES.
002768: 00,3701           00136                           TC       ESCAPE
002769:
002770: 00,3702           00006        SUBTR              EXTEND                                         #  EPILOGUE FOR NEGATIVE INPUTS TO ARCCOS.
002771: 00,3703           40155                           DCS      MPAC
002772: 00,3704           64736                           AD       HALF                                  #  FORMS PI - ARCCOS(-X) = ARCCOS(X).
002773: 00,3705           52155                           DXCH     MPAC
002774: 00,3706           00137                           TC       ESCAPE2                               #  GO TO POSSIBLE ARCSIN EPILOGUE.
002775:
002776: 00,3707           00006        ASINEX             EXTEND
002777: 00,3710           40155                           DCS      MPAC                                  #  ARCSIN EPILOGUE - GET ARCSIN(X)
002778: 00,3711           64737                           AD       QUARTER                               #  = PI/2 - ARCCOS(X).
002779: 00,3712           52155                           DXCH     MPAC
002780: 00,3713           16061        LDANZIG            TCF      DANZIG
002781:


002783: 00,3714           50000        ACOSSHR            INDEX    A                                     #  THE SHIFT RIGHT IS LESS THAN 14 SINCE
002784: 00,3715           34736                           CAF      BIT14                                 #  THE INPUT WAS NON-ZERO DP.
002785: 00,3716           54135                           TS       MPTEMP
002786: 00,3717           02073                           TC       VSHRRND                               #  DP SHIFT RIGHT AND ROUND.
002787: 00,3720           13652                           TCF      ACOS3                                 #  PROCEED.
002788:
002789: 00,3721           00006        ACOSOVF            EXTEND                                         #  IF MAJOR PART WAS ONLY 1 MORE THAN .5,
002790: 00,3722           13637                           BZF      ACOS=0                                #  CALL ANSWER ZERO.
002791:
002792: 00,3723           00006        ACOSABRT           EXTEND                                         #  IF OVERFLOW, CALL ANSWER ZERO BUT
002793: 00,3724           30165                           DCA      LOC                                   #  SOUND AN ALARM.
002794: 00,3725           05732                           TC       ALARM1
002795: 00,3726           01301                           OCT      1301
002796:
002797: 00,3727           34755                           CAF      ZERO
002798: 00,3730           13637                           TCF      ACOS=0
002799:
002800: 00,3731           34737        ACOSZERO           CAF      QUARTER                               #  ACOS(0) = PI/2.
002801: 00,3732           13640                           TCF      ACOS=0     +1                         #  SET MPAC AND EXIT VIA ESCAPE.
002802:
002803: 00,3733           77763        NEG12              DEC      -12        B-14
002804: 00,3734           13702        TCSUBTR            TCF      SUBTR
002805:


002807:                                                                                                  #  THE FOLLOWING INSTRUCTIONS ARE AVAILABLE FOR SETTING, MODIFYING, AND BRANCHING ON INDEX REGISTERS:
002808:                                                                                                  #        1.      AXT     ADDRESS TO INDEX TRUE.
002809:                                                                                                  #        1.      AXC     ADDRESS TO INDEX COMPLEMENTED.
002810:                                                                                                  #        3.      LXA     LOAD INDEX FROM ERASABLE.
002811:                                                                                                  #        4.      LXC     LOAD INDEX COMPLEMENTED FROM ERASABLE.
002812:                                                                                                  #        5.      SXA     STORE INDEX IN ERASABLE.
002813:                                                                                                  #        6.      XCHX    EXCHANGE INDEX REIGSTER WITH ERASABLE.
002814:
002815:                                                                                                  #        7.      INCR    INCREMENT INDEX REGISTER.
002816:                                                                                                  #        8.      XAD     ERASABLE ADD TO INDEX REGISTER.
002817:                                                                                                  #        9.      XSU     ERASABLE SUBTRACT FROM INDEX REGISTER.
002818:                                                                                                  #        10.     TIX     BRANCH ON INDEX REGISTER AND DECREMENT.
002819:
002820: 01,2344                                           BANK     01
002821:
002822: 01,2344                                           COUNT*   $$/INTER
002823: 01,2344           02441        AXT                TC       TAGSUB                                #  SELECT APPROPRIATE INDEX REGISTER.
002824: 01,2345           30117                           CA       POLISH
002825: 01,2346           50130        XSTORE             INDEX    INDEXLOC                              #  CONTAINS C(FIXLOC) OR C(FIXLOC)+1.
002826: 01,2347           54046                           TS       X1
002827: 01,2350           16061                           TCF      DANZIG
002828:
002829: 01,2351           02441        AXC                TC       TAGSUB
002830: 01,2352           40117                           CS       POLISH
002831: 01,2353           02346                           TC       XSTORE
002832:
002833: 01,2354           02427        LXA                TC       15ADRERS                              #  LOAD INDEX REGISTER FROM ERASABLE.
002834: 01,2355           50117                           INDEX    POLISH
002835: 01,2356           30000                           CA       0
002836: 01,2357           12346                           TCF      XSTORE
002837:
002838: 01,2360           02427        LXC                TC       15ADRERS                              #  LOAD NDX REG FROM ERASABLE COMPLEMENTED.
002839: 01,2361           50117                           INDEX    POLISH
002840: 01,2362           40000                           CS       0
002841: 01,2363           12346                           TCF      XSTORE
002842:
002843: 01,2364           02427        SXA                TC       15ADRERS                              #  STORE INDEX REGISTER IN ERASABLE.
002844: 01,2365           50130                           INDEX    INDEXLOC
002845: 01,2366           30046                           CA       X1
002846: 01,2367           50117        MSTORE1            INDEX    POLISH
002847: 01,2370           54000                           TS       0
002848: 01,2371           16061                           TCF      DANZIG
002849:


002851: 01,2372           02427        XCHX               TC       15ADRERS                              #  EXCHANGE INDEX REGISTER WITH ERASABLE.
002852: 01,2373           50117                           INDEX    POLISH
002853: 01,2374           30000                           CA       0
002854: 01,2375           50130                           INDEX    INDEXLOC
002855: 01,2376           56046                           XCH      X1
002856: 01,2377           12367                           TCF      MSTORE1
002857:
002858: 01,2400           02427        XAD                TC       15ADRERS                              #  ADD ERASABLE TO INDEX REGISTER.
002859: 01,2401           50117                           INDEX    POLISH
002860: 01,2402           30000                           CA       0
002861: 01,2403           50130        XAD2               INDEX    INDEXLOC
002862: 01,2404           26046                           ADS      X1                                    #  IGNORING OVERFLOWS.
002863: 01,2405           16061                           TCF      DANZIG
002864:
002865: 01,2406           02441        INCR               TC       TAGSUB                                #  INCREMENT INDEX REGISTER.
002866: 01,2407           30117                           CA       POLISH
002867: 01,2410           12403                           TCF      XAD2
002868:
002869: 01,2411           02427        XSU                TC       15ADRERS                              #  SUBTRACT ERASABLE FROM INDEX REGISTER.
002870: 01,2412           50117                           INDEX    POLISH
002871: 01,2413           40000                           CS       0
002872: 01,2414           12403                           TCF      XAD2
002873:
002874: 01,2415           02441        TIX                TC       TAGSUB                                #  BRANCH AND DECREMENT ON INDEX.
002875: 01,2416           50130                           INDEX    INDEXLOC
002876: 01,2417           40050                           CS       S1
002877: 01,2420           50130                           INDEX    INDEXLOC
002878: 01,2421           60046                           AD       X1
002879: 01,2422           00006                           EXTEND                                         #  NO OPERATION IF DECREMENTED INDEX IS
002880: 01,2423           66061                           BZMF     DANZIG                                #  NEGATIVE OR ZERO.
002881:
002882: 01,2424           50130        DOTIXBR            INDEX    INDEXLOC
002883: 01,2425           56046                           XCH      X1                                    #  IGNORING OVERFLOWS.
002884:
002885: 01,2426           16646                           TCF      GOTO                                  #  DO THE BRANCH USING THE CADR IN POLISH.
002886:


002888:                                                                                                  #  SUBROUTINE TO CONVERT AN ERASABLE ADDRESS (11 BITS) TO AN EBANK SETTING AND SUBADDRESS.
002889:
002890: 01,2427           40117        15ADRERS           CS       POLISH
002891: 01,2430           64772                           AD       DEC45
002892: 01,2431           10000                           CCS      A                                     #  DOES THE ADDRESS POINT TO THE WORK AREA?
002893: 01,2432           30120                           CA       FIXLOC                                #  YES.  ADD FIXLOC.  EBANK OK AS IS.
002894: 01,2433           12440                           TCF      +5
002895:
002896: 01,2434           35007                           CA       OCT1400                               #  NO. SET EBANK & MAKE UP SUBADDRESS.
002897: 01,2435           56117                           XCH      POLISH
002898: 01,2436           54003                           TS       EBANK
002899: 01,2437           74357                           MASK     LOW8
002900: 01,2440           26117                 +5        ADS      POLISH                                #  FALL INTO TAGSUB, AND RETURN VIA Q.
002901:
002902:                                                                                                  #  SUBROUTINE WHICH SETS THE ADDRESS OF THE SPECIFIED INDEX IN INDEXLOC.  (ACTUALLY, THE ADDRESS -38D.)
002903:
002904: 01,2441           30120        TAGSUB             CA       FIXLOC
002905: 01,2442           54130                           TS       INDEXLOC
002906:
002907: 01,2443           10020                           CCS      CYR                                   #  BIT 15 SPECIFIES INDEX.
002908: 01,2444           24130                           INCR     INDEXLOC                              #  0 MEANS USE X2.
002909: 01,2445           00002                           TC       Q
002910: 01,2446           00002                           TC       Q                                     #  1 FOR X1.
002911:


002913:                                                                                                  #  MISCELLANEOUS OPERATION CODES WITH DIRECT ADDRESSES.  INCLUDED HERE ARE:
002914:                                                                                                  #        1.      ITA     STORE QPRET (RETURN ADDRESS) IN ERASABLE.
002915:                                                                                                  #        2.      CALL    CALL A SUBROUTINE, LEAVING RETURN IN QPRET.
002916:                                                                                                  #        3.      RTB     RETURN TO BASIC LANGUAGE AT THE GIVEN ADDRESS.
002917:                                                                                                  #        4.      BHIZ    BRANCH IF THE HIGH ORDER OF MPAC IS ZERO (SINGLE PRECISION).
002918:                                                                                                  #        5.      BOV     BRANCH ON OVERFLOW.
002919:                                                                                                  #        6.      GOTO    SIMPLE SEQUENCE CHANGE.
002920:
002921: 01,2447           10020        RTB/BHIZ           CCS      CYR
002922: 01,2450           30117        RTB                CA       POLISH
002923: 01,2451           04621                           TC       SWCALL     -1                         #  SO A "TC Q" FROM ROUTINE LEADS TO DANZIG
002924:
002925: 01,2452           10154        BHIZ               CCS      MPAC
002926: 01,2453           16061                           TCF      DANZIG
002927: 01,2454           16646                           TCF      GOTO
002928: 01,2455           16061                           TCF      DANZIG
002929: 01,2456           16646                           TCF      GOTO
002930:
002931: 01,2457           10121        BOV(B)             CCS      OVFIND                                #  BRANCH ON OVERFLOW TO BASIC OR INTERP.
002932: 01,2460           12462                           TCF      +2
002933: 01,2461           16061                           TCF      DANZIG
002934: 01,2462           54121                           TS       OVFIND
002935: 01,2463           10020                           CCS      CYR
002936: 01,2464           12450                           TCF      RTB                                   #  IF BASIC.
002937: 01,2465           00360        B5TOBB             OCT      360
002938: 01,2466           16646                           TCF      GOTO
002939:


002941: 01,2467           10020        BZE/GOTO           CCS      CYR                                   #  SEE WHICH OP-CODE IS DESIRED.
002942: 01,2470           06723                           TC       BRANCH                                #  DO BZE.
002943: 01,2471           16061                           TCF      DANZIG
002944: 01,2472           16646                           TCF      GOTO                                  #  DO GOTO.
002945: 01,2473           16061                           TCF      DANZIG
002946:
002947: 01,2474           10020        BPL/BMN            CCS      CYR
002948: 01,2475           12503                           TCF      BPL
002949: 01,2476           12000        5B10               DEC      5          B+10                       #  SHIFTS OP CODE IN SWITCH INSTRUCTION ADR
002950:
002951: 01,2477           06723                           TC       BRANCH                                #  DO BMN.
002952: 01,2500           16061                           TCF      DANZIG
002953: 01,2501           16061                           TCF      DANZIG
002954: 01,2502           16646                           TCF      GOTO                                  #  ONLY IF NNZ.
002955:
002956: 01,2503           06723        BPL                TC       BRANCH
002957: 01,2504           16646                           TCF      GOTO                                  #  IF POSITIVE OR ZERO.
002958: 01,2505           16646                           TCF      GOTO
002959: 01,2506           16061                           TCF      DANZIG
002960:
002961: 01,2507           10020        CALL/ITA           CCS      CYR
002962: 01,2510           16640                           TCF      CALL
002963:
002964: 01,2511           05705                           TC       CCSHOLE
002965: 01,2512           02427                           TC       15ADRERS                              #  STORE QPRET.  (TAGSUB AFTER 15ADRERS IS
002966: 01,2513           50120                           INDEX    FIXLOC                                #  SLOW IN THIS CASE, BUT SAVES STORAGE.)
002967: 01,2514           30052                           CA       QPRET
002968: 01,2515           12367                           TCF      MSTORE1
002969:


002971:                                                                                                  #  THE FOLLOWING OPERATIONS ARE AVAILABLE FOR ALTERING AND TESTING INTERPRETIVE SWITCHES:
002972:
002973:                                                                                                  #        00      BONSET          SET A SWITCH AND DO A GOTO IF IT WAS ON.
002974:                                                                                                  #        01      SETGO           SET A SWITCH AND DO A GOTO.
002975:                                                                                                  #        02      BOFSET          SET A SWITCH AND DOA GOTO IF IT WAS OFF
002976:                                                                                                  #        03      SET             SET A SWITCH.
002977:
002978:                                                                                                  #        04      BONINV          INVERT A SWITCH AND BRANCH IF IT WAS ON.
002979:                                                                                                  #        05      INVGO           INVERT A SWITCH AND DO A GOTO.
002980:                                                                                                  #        06      BOFINV          INVERT A SWITCH AND BRANCH IF IT WAS OFF
002981:                                                                                                  #        07      INVERT          INVERT A SWITCH.
002982:
002983:                                                                                                  #        10      BONCLR          CLEAR A SWITCH AND BRANCH IF IT WAS ON.
002984:                                                                                                  #        11      CLRGO           CLEAR A SWITCH AND DO A GOTO.
002985:                                                                                                  #        12      BOFCLR          CLEAR A SWITCH AND BRANCH IF IT WAS OFF.
002986:                                                                                                  #        13      CLEAR           CLEAR A SWITCH.
002987:
002988:                                                                                                  #        14      BON             BRANCH IF A SWITCH WAS ON.
002989:                                                                                                  #        16      BOFF            BRANCH IF A SWITCH WAS OFF.
002990:
002991:                                                                                                  #  THE ADDRESS SUPPLIED WITH THE SWITCH INSTRUCTION IS INTERPRETED AS FOLLOWS:
002992:
002993:                                                                                                  #        BITS 1-4        SWITCH BIT NUMBER (1-15).
002994:                                                                                                  #        BITS 5-8        SWITCH OPERATION NUMBER.
002995:                                                                                                  #        BITS 9-         SWITCH WORD NUMBER (UP TO 64 SWITCH WORDS).
002996:
002997:                                                                                                  #  THE ADDRESS ITSELF IS MADE UP BY THE YUL SYSTEM ASSEMBLER.  THE BRANCH INSTRUCTIONS REQUIRE TWO
002998:                                                                                                  #  ADDRESSES, THE SECOND TAKEN AS THE DIRECT (OR INDIRECT IF IN ERASABLE) ADDRESS OF THE BRANCH.
002999:
003000: 01,2516           34762        SWITCHES           CAF      LOW4                                  #  LEAVE THE SWITCH BIT IN SWBIT.
003001: 01,2517           70117                           MASK     POLISH
003002: 01,2520           50000                           INDEX    A
003003: 01,2521           34735                           CAF      BIT15                                 #  (NUMBER FROM LEFT TO RIGHT.)
003004: 01,2522           54131                           TS       SWBIT
003005:
003006: 01,2523           34745                           CAF      BIT7                                  #  LEAVE THE SWITCH NUMBER IN SWWORD.
003007: 01,2524           00006                           EXTEND
003008: 01,2525           70117                           MP       POLISH
003009: 01,2526           54130                           TS       SWWORD
003010:
003011: 01,2527           00004                           INHINT                                         #  DURING SWITCH CHANGE SO RUPT CAN USE TOO
003012: 01,2530           50000                           INDEX    A                                     #  LEAVE THE SWITCH WORD ITSELF IN L.
003013: 01,2531           30074                           CA       STATE
003014: 01,2532           54002                           TS       Q                                     #  Q WILL BE USED AS A CHANNEL.


003016: 01,2533           34741                           CAF      BIT11
003017: 01,2534           00006                           EXTEND                                         #  DISPATCH SWITCH BIT OPERATION AS IN BITS
003018: 01,2535           70117                           MP       POLISH                                #  7-8 OF POLISH.
003019: 01,2536           72576                           MASK     B3TOB4                                #  GETS 4X2-BIT CODE.
003020: 01,2537           50000                           INDEX    A
003021: 01,2540           12541                           TCF      +1
003022:
003023: 01,2541           30131                 +1        CA       SWBIT                                 #  00 - SET SWITCH IN QUESTION.
003024: 01,2542           00006                           EXTEND
003025: 01,2543           04002                           ROR      QCHAN
003026: 01,2544           12553                           TCF      SWSTORE
003027:
003028: 01,2545           30131                 +5        CA       SWBIT                                 #  01 - INVERT SWITCH.
003029: 01,2546           00006                           EXTEND
003030: 01,2547           06002                           RXOR     QCHAN
003031: 01,2550           12553                           TCF      SWSTORE
003032:
003033: 01,2551           40131                 +9D       CS       SWBIT                                 #  10 - CLEAR.
003034: 01,2552           70002                           MASK     Q
003035: 01,2553           50130        SWSTORE            INDEX    SWWORD
003036: 01,2554           54074                           TS       STATE                                 #  NEW SWITCH WORD.
003037:


003039: 01,2555           00003                 +13D      RELINT                                         #  11 - NOOP.
003040: 01,2556           34737                           CAF      BIT13
003041: 01,2557           00006                           EXTEND                                         #  DISPATCH SEQUCE CHANGING OR BRANCHING
003042: 01,2560           70117                           MP       POLISH                                #  CODE.
003043: 01,2561           72576                           MASK     B3TOB4
003044: 01,2562           50000                           INDEX    A
003045: 01,2563           12564                           TCF      +1                                    #  ORIGINALLY STORED IN BITS 5-6.
003046:
003047: 01,2564           40002                 +1        CS       Q                                     #  00 - BRANCH IF ON.
003048: 01,2565           70131        TEST               MASK     SWBIT
003049: 01,2566           10000                           CCS      A
003050: 01,2567           12577                           TCF      SWSKIP
003051:
003052: 01,2570           16715                 +5        TCF      SWBRANCH                              #  01 - GO TO.
003053:
003054: 01,2571           12577                           TCF      SWSKIP                                #  HERE ONLY ON BIT 15.
003055:
003056: 01,2572           05705                           TC       CCSHOLE
003057: 01,2573           05705                           TC       CCSHOLE
003058:
003059: 01,2574           30002                 +9D       CA       Q                                     #  10 - BRANCH IF OFF.
003060: 01,2575           12565                           TCF      TEST
003061:
003062: 01,2576           00014        B3TOB4             OCT      0014
003063: 01,2577           24164        SWSKIP             INCR     LOC
003064:
003065: 01,2600  01,2516               SW/                EQUALS   SWITCHES
003066:
003067: 01,2600           16061                 +13D      TCF      DANZIG                                #  11 - NOOP.
003068:

End of include-file INTERPRETER.agc.  Parent file is MAIN.agc


