
Source Code


000002:                                                                                                  ## Copyright:   Public domain.
000003:                                                                                                  ## Filename:    INTERRUPT_LEAD_INS.agc
000004:                                                                                                  ## Purpose:     A section of Luminary revision 97.
000005:                                                                                                  ##              It is part of the reconstructed source code for the
000006:                                                                                                  ##              original release of the flight software for the Lunar
000007:                                                                                                  ##              Module's (LM) Apollo Guidance Computer (AGC) for Apollo 11.
000008:                                                                                                  ##              The code has been recreated from a copy of Luminary 99
000009:                                                                                                  ##              revision 001, using asterisks indicating changed lines in
000010:                                                                                                  ##              the listing and Luminary Memos #83 and #85, which list
000011:                                                                                                  ##              changes between Luminary 97 and 98, and 98 and 99. The
000012:                                                                                                  ##              code has been adapted such that the resulting bugger words
000013:                                                                                                  ##              exactly match those specified for Luminary 97 in NASA drawing
000014:                                                                                                  ##              2021152D, which gives relatively high confidence that the
000015:                                                                                                  ##              reconstruction is correct.
000016:                                                                                                  ## Reference:   pp. 153-154
000017:                                                                                                  ## Assembler:   yaYUL
000018:                                                                                                  ## Contact:     Ron Burkey <info@sandroid.org>.
000019:                                                                                                  ## Website:     www.ibiblio.org/apollo/index.html
000020:                                                                                                  ## Mod history: 2019-07-28 MAS  Created from Luminary 99.
000021:


000023:    4000                                           SETLOC   4000
000024:
000025:    4000                                           COUNT*   $$/RUPTS                              #  FIX-FIX LEAD INS
000026:    4000           00004                           INHINT                                         #  GO
000027:    4001           34054                           CAF      GOBB
000028:    4002           56006                           XCH      BBANK
000029:    4003           12667                           TCF      GOPROG
000030:
000031:    4004           52011                           DXCH     ARUPT                                 #  T6RUPT
000032:    4005           00006                           EXTEND
000033:    4006           34056                           DCA      T6ADR
000034:    4007           52006                           DTCB
000035:
000036:    4010           52011                           DXCH     ARUPT                                 #  T5RUPT - AUTOPILOT
000037:    4011           00006                           EXTEND
000038:    4012           31275                           DCA      T5ADR
000039:    4013           52006                           DTCB
000040:
000041:    4014           52011                           DXCH     ARUPT                                 #  T3RUPT
000042:    4015           34057                           CAF      T3RPTBB
000043:    4016           56006                           XCH      BBANK
000044:    4017           13407                           TCF      T3RUPT
000045:
000046:    4020           52011                           DXCH     ARUPT                                 #  T4RUPT
000047:    4021           34064                           CAF      T4RPTBB
000048:    4022           56006                           XCH      BBANK
000049:    4023           12000                           TCF      T4RUPT
000050:
000051:    4024           52011                           DXCH     ARUPT                                 #  KEYRUPT1
000052:    4025           34060                           CAF      KEYRPTBB
000053:    4026           56006                           XCH      BBANK
000054:    4027           13274                           TCF      KEYRUPT1
000055:
000056:    4030           52011                           DXCH     ARUPT                                 #  KEYRUPT2
000057:    4031           34061                           CAF      MKRUPTBB
000058:    4032           56006                           XCH      BBANK
000059:    4033           12332                           TCF      MARKRUPT
000060:
000061:    4034           52011                           DXCH     ARUPT                                 #  UPRUPT
000062:    4035           34060                           CAF      UPRPTBB
000063:    4036           56006                           XCH      BBANK
000064:    4037           13317                           TCF      UPRUPT
000065:
000066:    4040           52011                           DXCH     ARUPT                                 #  DOWNRUPT
000067:    4041           34062                           CAF      DWNRPTBB
000068:    4042           56006                           XCH      BBANK
000069:    4043           13506                           TCF      DODOWNTM
000070:
000071:    4044           52011                           DXCH     ARUPT                                 #  RADAR RUPT
000072:    4045           34063                           CAF      RDRPTBB


000074:    4046           56006                           XCH      BBANK
000075:    4047           13150                           TCF      RADAREAD
000076:
000077:    4050           52011                           DXCH     ARUPT                                 #  RUPT10 IS USED ONLY BY LANDING GUIDANCE
000078:    4051           34065                           CA       RUPT10BB
000079:    4052           56006                           XCH      BBANK
000080:    4053           12275                           TCF      PITFALL
000081:
000082:
000083:    4054  E3,1400                                  EBANK=   LST1                                  #  RESTART USES E0, E3
000084:    4054           12103        GOBB               BBCON    GOPROG
000085:
000086:    4055  E6,1464                                  EBANK=   PERROR
000087:    4055           02065 36106  T6ADR              2CADR    DOT6RUPT
000088:
000089:    4057  E3,1400                                  EBANK=   LST1
000090:    4057           02103        T3RPTBB            BBCON    T3RUPT
000091:
000092:    4060     0073                                  EBANK=   KEYTEMP1
000093:    4060           10100        KEYRPTBB           BBCON    KEYRUPT1
000094:
000095:    4061  E7,1404                                  EBANK=   AOTAZ
000096:    4061           16107        MKRUPTBB           BBCON    MARKRUPT
000097:
000098:    4062     4060               UPRPTBB            =        KEYRPTBB
000099:
000100:    4062     0340                                  EBANK=   DNTMBUFF
000101:    4062           12100        DWNRPTBB           BBCON    DODOWNTM
000102:
000103:    4063     0110                                  EBANK=   RADMODES
000104:    4063           52100        RDRPTBB            BBCON    RADAREAD
000105:
000106:    4064  E6,1414                                  EBANK=   M11
000107:    4064           14106        T4RPTBB            BBCON    T4RUPT
000108:
000109:    4065  E7,1647                                  EBANK=   ELVIRA
000110:    4065           22107        RUPT10BB           BBCON    PITFALL
000111:

End of include-file INTERRUPT_LEAD_INS.agc.  Parent file is MAIN.agc


