
Source Code


000002:                                                                                                  ## Copyright:   Public domain.
000003:                                                                                                  ## Filename:    INTERPRETIVE_CONSTANTS.agc
000004:                                                                                                  ## Purpose:     A section of Luminary revision 97.
000005:                                                                                                  ##              It is part of the reconstructed source code for the
000006:                                                                                                  ##              original release of the flight software for the Lunar
000007:                                                                                                  ##              Module's (LM) Apollo Guidance Computer (AGC) for Apollo 11.
000008:                                                                                                  ##              The code has been recreated from a copy of Luminary 99
000009:                                                                                                  ##              revision 001, using asterisks indicating changed lines in
000010:                                                                                                  ##              the listing and Luminary Memos #83 and #85, which list
000011:                                                                                                  ##              changes between Luminary 97 and 98, and 98 and 99. The
000012:                                                                                                  ##              code has been adapted such that the resulting bugger words
000013:                                                                                                  ##              exactly match those specified for Luminary 97 in NASA drawing
000014:                                                                                                  ##              2021152D, which gives relatively high confidence that the
000015:                                                                                                  ##              reconstruction is correct.
000016:                                                                                                  ## Reference:   pp. 1100-1101
000017:                                                                                                  ## Assembler:   yaYUL
000018:                                                                                                  ## Contact:     Ron Burkey <info@sandroid.org>.
000019:                                                                                                  ## Website:     www.ibiblio.org/apollo/index.html
000020:                                                                                                  ## Mod history: 2019-07-28 MAS  Created from Luminary 99.
000021:


000023: 23,2000                                           SETLOC   INTPRET1
000024: 23,2000                                           BANK
000025:
000026: 23,2511                                           COUNT*   $$/ICONS
000027: 23,2511           10000 00000  DP1/4TH            2DEC     .25
000028:
000029: 23,2513           00000 00000  UNITZ              2DEC     0          B-28
000030:
000031: 23,2515           00000 00000  UNITY              2DEC     0          B-28
000032:
000033: 23,2517           20000 00000  UNITX              2DEC     .5
000034:
000035: 23,2521           00000 00000  ZEROVECS           2DEC     0          B-28
000036:
000037: 23,2523           00000 00000                     2DEC     0          B-28
000038:
000039: 23,2525           00000 00000                     2DEC     0          B-28
000040:
000041: 23,2527  23,2517               DPHALF             =        UNITX
000042: 23,2527           37777        DPPOSMAX           OCT      37777
000043: 23,2530           37777                           OCT      37777
000044:


000046:                                                                                                  #  INTERPRETIVE CONSTANTS IN THE OTHER HALF-MEMORY
000047:
000048: 12,2000                                           SETLOC   INTPRET2
000049: 12,2000                                           BANK
000050:
000051: 12,2000                                           COUNT*   $$/ICONS
000052: 12,2000           00000 00000  ZUNIT              2DEC     0          B-28
000053:
000054: 12,2002           00000 00000  YUNIT              2DEC     0          B-28
000055:
000056: 12,2004           20000 00000  XUNIT              2DEC     .5
000057:
000058: 12,2006           00000 00000  ZEROVEC            2DEC     0          B-28
000059:
000060: 12,2010           00000 00000                     2DEC     0          B-28
000061:
000062: 12,2012           00000 00000                     2DEC     0          B-28
000063:
000064: 12,2014           77777                           OCT      77777                                 #  -0, -6, -12 MUST REMAIN IN THIS ORDER
000065: 12,2015           77771        DFC-6              DEC      -6         B-14
000066: 12,2016           77763        DFC-12             DEC      -12        B-14
000067: 12,2017           37777 37777  LODPMAX            2OCT     3777737777                            #  THESE TWO CONSTANTS MUST REMAIN
000068:
000069: 12,2021           37777 37777  LODPMAX1           2OCT     3777737777                            #  ADJACENT AND THE SAME FOR INTEGRATION
000070:
000071: 12,2023  12,2006               ZERODP             =        ZEROVEC
000072: 12,2023  12,2004               HALFDP             =        XUNIT
000073:
000074:

End of include-file INTERPRETIVE_CONSTANTS.agc.  Parent file is MAIN.agc


